{
  "address": "0xb02068AE04Bf5d184EFDe3583e09f2185a30da0e",
  "abi": [
    {
      "anonymous": false,
      "inputs": [
        {
          "indexed": true,
          "internalType": "address",
          "name": "owner",
          "type": "address"
        },
        {
          "indexed": true,
          "internalType": "address",
          "name": "spender",
          "type": "address"
        },
        {
          "indexed": false,
          "internalType": "uint256",
          "name": "value",
          "type": "uint256"
        }
      ],
      "name": "Approval",
      "type": "event"
    },
    {
      "anonymous": false,
      "inputs": [
        {
          "indexed": false,
          "internalType": "address",
          "name": "_user",
          "type": "address"
        },
        {
          "indexed": false,
          "internalType": "uint256",
          "name": "_amount",
          "type": "uint256"
        },
        {
          "indexed": false,
          "internalType": "uint256",
          "name": "_shares",
          "type": "uint256"
        }
      ],
      "name": "Deposit",
      "type": "event"
    },
    {
      "anonymous": false,
      "inputs": [
        {
          "indexed": false,
          "internalType": "uint256",
          "name": "_amount",
          "type": "uint256"
        }
      ],
      "name": "EmergencyWithdraw",
      "type": "event"
    },
    {
      "anonymous": false,
      "inputs": [
        {
          "indexed": false,
          "internalType": "uint8",
          "name": "version",
          "type": "uint8"
        }
      ],
      "name": "Initialized",
      "type": "event"
    },
    {
      "anonymous": false,
      "inputs": [
        {
          "indexed": false,
          "internalType": "uint256",
          "name": "_amount",
          "type": "uint256"
        }
      ],
      "name": "Invest",
      "type": "event"
    },
    {
      "anonymous": false,
      "inputs": [
        {
          "indexed": true,
          "internalType": "address",
          "name": "previousOwner",
          "type": "address"
        },
        {
          "indexed": true,
          "internalType": "address",
          "name": "newOwner",
          "type": "address"
        }
      ],
      "name": "OwnershipTransferred",
      "type": "event"
    },
    {
      "anonymous": false,
      "inputs": [
        {
          "indexed": false,
          "internalType": "address",
          "name": "account",
          "type": "address"
        }
      ],
      "name": "Paused",
      "type": "event"
    },
    {
      "anonymous": false,
      "inputs": [
        {
          "indexed": false,
          "internalType": "address",
          "name": "_oldAdmin",
          "type": "address"
        },
        {
          "indexed": false,
          "internalType": "address",
          "name": "_newAdmin",
          "type": "address"
        }
      ],
      "name": "SetAdmin",
      "type": "event"
    },
    {
      "anonymous": false,
      "inputs": [
        {
          "indexed": false,
          "internalType": "address",
          "name": "_wallet",
          "type": "address"
        }
      ],
      "name": "SetTreasuryWallet",
      "type": "event"
    },
    {
      "anonymous": false,
      "inputs": [
        {
          "indexed": false,
          "internalType": "uint256",
          "name": "_fee",
          "type": "uint256"
        }
      ],
      "name": "SetYieldFeePerc",
      "type": "event"
    },
    {
      "anonymous": false,
      "inputs": [
        {
          "indexed": true,
          "internalType": "address",
          "name": "from",
          "type": "address"
        },
        {
          "indexed": true,
          "internalType": "address",
          "name": "to",
          "type": "address"
        },
        {
          "indexed": false,
          "internalType": "uint256",
          "name": "value",
          "type": "uint256"
        }
      ],
      "name": "Transfer",
      "type": "event"
    },
    {
      "anonymous": false,
      "inputs": [
        {
          "indexed": false,
          "internalType": "address",
          "name": "account",
          "type": "address"
        }
      ],
      "name": "Unpaused",
      "type": "event"
    },
    {
      "anonymous": false,
      "inputs": [
        {
          "indexed": false,
          "internalType": "address",
          "name": "_user",
          "type": "address"
        },
        {
          "indexed": false,
          "internalType": "uint256",
          "name": "_amount",
          "type": "uint256"
        },
        {
          "indexed": false,
          "internalType": "uint256",
          "name": "_shares",
          "type": "uint256"
        }
      ],
      "name": "Withdraw",
      "type": "event"
    },
    {
      "anonymous": false,
      "inputs": [
        {
          "indexed": false,
          "internalType": "uint256",
          "name": "_amount",
          "type": "uint256"
        }
      ],
      "name": "Yield",
      "type": "event"
    },
    {
      "anonymous": false,
      "inputs": [
        {
          "indexed": false,
          "internalType": "uint256",
          "name": "_amount",
          "type": "uint256"
        }
      ],
      "name": "YieldFee",
      "type": "event"
    },
    {
      "inputs": [],
      "name": "JoeRouter",
      "outputs": [
        {
          "internalType": "contract IUniRouter",
          "name": "",
          "type": "address"
        }
      ],
      "stateMutability": "view",
      "type": "function"
    },
    {
      "inputs": [],
      "name": "WAVAX",
      "outputs": [
        {
          "internalType": "contract IERC20Upgradeable",
          "name": "",
          "type": "address"
        }
      ],
      "stateMutability": "view",
      "type": "function"
    },
    {
      "inputs": [],
      "name": "aPool",
      "outputs": [
        {
          "internalType": "contract IPool",
          "name": "",
          "type": "address"
        }
      ],
      "stateMutability": "view",
      "type": "function"
    },
    {
      "inputs": [],
      "name": "aRewardsController",
      "outputs": [
        {
          "internalType": "contract IRewardsController",
          "name": "",
          "type": "address"
        }
      ],
      "stateMutability": "view",
      "type": "function"
    },
    {
      "inputs": [],
      "name": "aToken",
      "outputs": [
        {
          "internalType": "contract IAToken",
          "name": "",
          "type": "address"
        }
      ],
      "stateMutability": "view",
      "type": "function"
    },
    {
      "inputs": [],
      "name": "admin",
      "outputs": [
        {
          "internalType": "address",
          "name": "",
          "type": "address"
        }
      ],
      "stateMutability": "view",
      "type": "function"
    },
    {
      "inputs": [
        {
          "internalType": "address",
          "name": "owner",
          "type": "address"
        },
        {
          "internalType": "address",
          "name": "spender",
          "type": "address"
        }
      ],
      "name": "allowance",
      "outputs": [
        {
          "internalType": "uint256",
          "name": "",
          "type": "uint256"
        }
      ],
      "stateMutability": "view",
      "type": "function"
    },
    {
      "inputs": [
        {
          "internalType": "address",
          "name": "spender",
          "type": "address"
        },
        {
          "internalType": "uint256",
          "name": "amount",
          "type": "uint256"
        }
      ],
      "name": "approve",
      "outputs": [
        {
          "internalType": "bool",
          "name": "",
          "type": "bool"
        }
      ],
      "stateMutability": "nonpayable",
      "type": "function"
    },
    {
      "inputs": [
        {
          "internalType": "address",
          "name": "account",
          "type": "address"
        }
      ],
      "name": "balanceOf",
      "outputs": [
        {
          "internalType": "uint256",
          "name": "",
          "type": "uint256"
        }
      ],
      "stateMutability": "view",
      "type": "function"
    },
    {
      "inputs": [],
      "name": "decimals",
      "outputs": [
        {
          "internalType": "uint8",
          "name": "",
          "type": "uint8"
        }
      ],
      "stateMutability": "view",
      "type": "function"
    },
    {
      "inputs": [
        {
          "internalType": "address",
          "name": "spender",
          "type": "address"
        },
        {
          "internalType": "uint256",
          "name": "subtractedValue",
          "type": "uint256"
        }
      ],
      "name": "decreaseAllowance",
      "outputs": [
        {
          "internalType": "bool",
          "name": "",
          "type": "bool"
        }
      ],
      "stateMutability": "nonpayable",
      "type": "function"
    },
    {
      "inputs": [
        {
          "internalType": "uint256",
          "name": "_amount",
          "type": "uint256"
        }
      ],
      "name": "deposit",
      "outputs": [],
      "stateMutability": "nonpayable",
      "type": "function"
    },
    {
      "inputs": [],
      "name": "emergencyWithdraw",
      "outputs": [],
      "stateMutability": "nonpayable",
      "type": "function"
    },
    {
      "inputs": [],
      "name": "getAPR",
      "outputs": [
        {
          "internalType": "uint256",
          "name": "",
          "type": "uint256"
        }
      ],
      "stateMutability": "view",
      "type": "function"
    },
    {
      "inputs": [],
      "name": "getAllPool",
      "outputs": [
        {
          "internalType": "uint256",
          "name": "",
          "type": "uint256"
        }
      ],
      "stateMutability": "view",
      "type": "function"
    },
    {
      "inputs": [],
      "name": "getAllPoolInUSD",
      "outputs": [
        {
          "internalType": "uint256",
          "name": "",
          "type": "uint256"
        }
      ],
      "stateMutability": "view",
      "type": "function"
    },
    {
      "inputs": [],
      "name": "getPendingRewards",
      "outputs": [
        {
          "internalType": "uint256",
          "name": "",
          "type": "uint256"
        }
      ],
      "stateMutability": "view",
      "type": "function"
    },
    {
      "inputs": [
        {
          "internalType": "bool",
          "name": "inUSD",
          "type": "bool"
        }
      ],
      "name": "getPricePerFullShare",
      "outputs": [
        {
          "internalType": "uint256",
          "name": "",
          "type": "uint256"
        }
      ],
      "stateMutability": "view",
      "type": "function"
    },
    {
      "inputs": [
        {
          "internalType": "address",
          "name": "spender",
          "type": "address"
        },
        {
          "internalType": "uint256",
          "name": "addedValue",
          "type": "uint256"
        }
      ],
      "name": "increaseAllowance",
      "outputs": [
        {
          "internalType": "bool",
          "name": "",
          "type": "bool"
        }
      ],
      "stateMutability": "nonpayable",
      "type": "function"
    },
    {
      "inputs": [
        {
          "internalType": "string",
          "name": "_name",
          "type": "string"
        },
        {
          "internalType": "string",
          "name": "_symbol",
          "type": "string"
        },
        {
          "internalType": "contract IAToken",
          "name": "_aToken",
          "type": "address"
        },
        {
          "internalType": "address",
          "name": "_treasury",
          "type": "address"
        },
        {
          "internalType": "address",
          "name": "_admin",
          "type": "address"
        }
      ],
      "name": "initialize",
      "outputs": [],
      "stateMutability": "nonpayable",
      "type": "function"
    },
    {
      "inputs": [],
      "name": "name",
      "outputs": [
        {
          "internalType": "string",
          "name": "",
          "type": "string"
        }
      ],
      "stateMutability": "view",
      "type": "function"
    },
    {
      "inputs": [],
      "name": "owner",
      "outputs": [
        {
          "internalType": "address",
          "name": "",
          "type": "address"
        }
      ],
      "stateMutability": "view",
      "type": "function"
    },
    {
      "inputs": [],
      "name": "paused",
      "outputs": [
        {
          "internalType": "bool",
          "name": "",
          "type": "bool"
        }
      ],
      "stateMutability": "view",
      "type": "function"
    },
    {
      "inputs": [],
      "name": "reinvest",
      "outputs": [],
      "stateMutability": "nonpayable",
      "type": "function"
    },
    {
      "inputs": [],
      "name": "renounceOwnership",
      "outputs": [],
      "stateMutability": "nonpayable",
      "type": "function"
    },
    {
      "inputs": [
        {
          "internalType": "address",
          "name": "_newAdmin",
          "type": "address"
        }
      ],
      "name": "setAdmin",
      "outputs": [],
      "stateMutability": "nonpayable",
      "type": "function"
    },
    {
      "inputs": [
        {
          "internalType": "uint256",
          "name": "_yieldFeePerc",
          "type": "uint256"
        }
      ],
      "name": "setFee",
      "outputs": [],
      "stateMutability": "nonpayable",
      "type": "function"
    },
    {
      "inputs": [
        {
          "internalType": "address",
          "name": "_wallet",
          "type": "address"
        }
      ],
      "name": "setTreasuryWallet",
      "outputs": [],
      "stateMutability": "nonpayable",
      "type": "function"
    },
    {
      "inputs": [],
      "name": "symbol",
      "outputs": [
        {
          "internalType": "string",
          "name": "",
          "type": "string"
        }
      ],
      "stateMutability": "view",
      "type": "function"
    },
    {
      "inputs": [],
      "name": "token",
      "outputs": [
        {
          "internalType": "contract IERC20Upgradeable",
          "name": "",
          "type": "address"
        }
      ],
      "stateMutability": "view",
      "type": "function"
    },
    {
      "inputs": [],
      "name": "totalSupply",
      "outputs": [
        {
          "internalType": "uint256",
          "name": "",
          "type": "uint256"
        }
      ],
      "stateMutability": "view",
      "type": "function"
    },
    {
      "inputs": [
        {
          "internalType": "address",
          "name": "to",
          "type": "address"
        },
        {
          "internalType": "uint256",
          "name": "amount",
          "type": "uint256"
        }
      ],
      "name": "transfer",
      "outputs": [
        {
          "internalType": "bool",
          "name": "",
          "type": "bool"
        }
      ],
      "stateMutability": "nonpayable",
      "type": "function"
    },
    {
      "inputs": [
        {
          "internalType": "address",
          "name": "from",
          "type": "address"
        },
        {
          "internalType": "address",
          "name": "to",
          "type": "address"
        },
        {
          "internalType": "uint256",
          "name": "amount",
          "type": "uint256"
        }
      ],
      "name": "transferFrom",
      "outputs": [
        {
          "internalType": "bool",
          "name": "",
          "type": "bool"
        }
      ],
      "stateMutability": "nonpayable",
      "type": "function"
    },
    {
      "inputs": [
        {
          "internalType": "address",
          "name": "newOwner",
          "type": "address"
        }
      ],
      "name": "transferOwnership",
      "outputs": [],
      "stateMutability": "nonpayable",
      "type": "function"
    },
    {
      "inputs": [],
      "name": "treasuryWallet",
      "outputs": [
        {
          "internalType": "address",
          "name": "",
          "type": "address"
        }
      ],
      "stateMutability": "view",
      "type": "function"
    },
    {
      "inputs": [
        {
          "internalType": "uint256",
          "name": "_shares",
          "type": "uint256"
        }
      ],
      "name": "withdraw",
      "outputs": [],
      "stateMutability": "nonpayable",
      "type": "function"
    },
    {
      "inputs": [],
      "name": "yield",
      "outputs": [],
      "stateMutability": "nonpayable",
      "type": "function"
    },
    {
      "inputs": [],
      "name": "yieldFee",
      "outputs": [
        {
          "internalType": "uint256",
          "name": "",
          "type": "uint256"
        }
      ],
      "stateMutability": "view",
      "type": "function"
    }
  ],
  "transactionHash": "0x4c00d383d69bdbaf49f72f7f2345afd9fc12933e00aa6390b476cc6ed95aea72",
  "args": [],
  "numDeployments": 1,
  "solcInputHash": "af335a048dd6f91bd7e1f8ed7d5d8ea8",
  "bytecode": "0x608060405234801561001057600080fd5b50611b49806100206000396000f3fe608060405234801561001057600080fd5b50600436106102325760003560e01c806395d89b4111610130578063c89d5b8b116100b8578063e595cbb61161007c578063e595cbb6146104a7578063f2fde38b146104ba578063f851a440146104cd578063fc0c546a146104e1578063fdb5a03e146104f457600080fd5b8063c89d5b8b1461045e578063d9621f9e1461046b578063db0ed6a014610479578063db2e21bc1461048c578063dd62ed3e1461049457600080fd5b8063a8602fea116100ff578063a8602fea14610403578063a9059cbb14610416578063b6b55f2514610429578063bd244af41461043c578063c12f857f1461044357600080fd5b806395d89b41146103cd578063a0c1f15e146103d5578063a20a4cb4146103e8578063a457c2d7146103f057600080fd5b8063313ce567116101be578063704b6c0211610182578063704b6c021461035d57806370a0823114610370578063715018a61461039957806373b295c2146103a15780638da5cb5b146103bc57600080fd5b8063313ce5671461030957806339509351146103185780634626402b1461032b5780635c975abb1461033f57806369fe0e2d1461034a57600080fd5b806318160ddd1161020557806318160ddd146102b657806320f14908146102be57806323b872dd146102d957806328593984146102ec5780632e1a7d4d146102f657600080fd5b8063034f40831461023757806306fdde0314610253578063095ea7b31461026857806314085ff01461028b575b600080fd5b61024060fb5481565b6040519081526020015b60405180910390f35b61025b6104fc565b60405161024a9190611684565b61027b6102763660046116ee565b61058e565b604051901515815260200161024a565b60ff5461029e906001600160a01b031681565b6040516001600160a01b03909116815260200161024a565b603554610240565b6102406102cc36600461171a565b50670de0b6b3a764000090565b61027b6102e7366004611743565b6105a6565b6102f46105ca565b005b6102f4610304366004611784565b610638565b6040516012815260200161024a565b61027b6103263660046116ee565b610693565b6101005461029e906001600160a01b031681565b60975460ff1661027b565b6102f4610358366004611784565b6106b5565b6102f461036b36600461179d565b610763565b61024061037e36600461179d565b6001600160a01b031660009081526033602052604090205490565b6102f46107ef565b61029e73b31f66aa3c1e785363f0875a1b74e27b85fd66c781565b6065546001600160a01b031661029e565b61025b610823565b60fc5461029e906001600160a01b031681565b610240610832565b61027b6103fe3660046116ee565b610938565b6102f461041136600461179d565b6109b3565b61027b6104243660046116ee565b610a73565b6102f4610437366004611784565b610a81565b6000610240565b61029e7360ae616a2155ee3d9a68541ba4544862310933d481565b661c6bf526340000610240565b678ac7230489e80000610240565b6102f461048736600461185d565b610afc565b6102f4610e0d565b6102406104a23660046118fb565b610e78565b60fe5461029e906001600160a01b031681565b6102f46104c836600461179d565b610ea3565b6101015461029e906001600160a01b031681565b60fd5461029e906001600160a01b031681565b6102f4610f3e565b60606036805461050b90611934565b80601f016020809104026020016040519081016040528092919081815260200182805461053790611934565b80156105845780601f1061055957610100808354040283529160200191610584565b820191906000526020600020905b81548152906001019060200180831161056757829003601f168201915b5050505050905090565b60003361059c818585610fcf565b5060019392505050565b6000336105b48582856110f3565b6105bf85858561116d565b506001949350505050565b6065546001600160a01b03163314806105ee5750610101546001600160a01b031633145b6106135760405162461bcd60e51b815260040161060a9061196f565b60405180910390fd5b60975460ff16156106365760405162461bcd60e51b815260040161060a9061199c565b565b600260c954141561068b5760405162461bcd60e51b815260206004820152601f60248201527f5265656e7472616e637947756172643a207265656e7472616e742063616c6c00604482015260640161060a565b50600160c955565b60003361059c8185856106a68383610e78565b6106b091906119c6565b610fcf565b6065546001600160a01b031633146106df5760405162461bcd60e51b815260040161060a906119ec565b61271081106107275760405162461bcd60e51b81526020600482015260146024820152731e5a595b1911995954195c98c81a5b9d985b1a5960621b604482015260640161060a565b60fb8190556040518181527f5cdc47cbc2be1e35e5429dd646b1e2047ab328f4108873ab71318989f7566ceb906020015b60405180910390a150565b6065546001600160a01b0316331461078d5760405162461bcd60e51b815260040161060a906119ec565b61010180546001600160a01b038381166001600160a01b031983168117909355604080519190921680825260208201939093527f848ac24ab84501710d6631faab117b66b79aba7ec6f7778cf3bcff428c1a4efc910160405180910390a15050565b6065546001600160a01b031633146108195760405162461bcd60e51b815260040161060a906119ec565b610636600061133b565b60606037805461050b90611934565b60fc546040516370a0823160e01b81523060048201526000916001600160a01b0316906370a082319060240160206040518083038186803b15801561087657600080fd5b505afa15801561088a573d6000803e3d6000fd5b505050506040513d601f19601f820116820180604052508101906108ae9190611a21565b60fd546040516370a0823160e01b81523060048201526001600160a01b03909116906370a082319060240160206040518083038186803b1580156108f157600080fd5b505afa158015610905573d6000803e3d6000fd5b505050506040513d601f19601f820116820180604052508101906109299190611a21565b61093391906119c6565b905090565b600033816109468286610e78565b9050838110156109a65760405162461bcd60e51b815260206004820152602560248201527f45524332303a2064656372656173656420616c6c6f77616e63652062656c6f77604482015264207a65726f60d81b606482015260840161060a565b6105bf8286868403610fcf565b6065546001600160a01b031633146109dd5760405162461bcd60e51b815260040161060a906119ec565b6001600160a01b038116610a245760405162461bcd60e51b815260206004820152600e60248201526d1dd85b1b195d081a5b9d985b1a5960921b604482015260640161060a565b61010080546001600160a01b0319166001600160a01b0383169081179091556040519081527f60edc991b058a7e279075cf86f19a6b478334efec47e089d09890b139c78232790602001610758565b60003361059c81858561116d565b600260c9541415610ad45760405162461bcd60e51b815260206004820152601f60248201527f5265656e7472616e637947756172643a207265656e7472616e742063616c6c00604482015260640161060a565b600260c95560975460ff161561068b5760405162461bcd60e51b815260040161060a9061199c565b6000610b08600161138d565b90508015610b20576000805461ff0019166101001790555b610b2a8686611415565b610b3261144a565b6107d060fb5560fc80546001600160a01b0319166001600160a01b038616908117909155604080516358b50cef60e11b8152905163b16a19de91600480820192602092909190829003018186803b158015610b8c57600080fd5b505afa158015610ba0573d6000803e3d6000fd5b505050506040513d601f19601f82011682018060405250810190610bc49190611a3a565b60fd80546001600160a01b0319166001600160a01b039290921691821790556040805163313ce56760e01b8152905163313ce56791600480820192602092909190829003018186803b158015610c1957600080fd5b505afa158015610c2d573d6000803e3d6000fd5b505050506040513d601f19601f82011682018060405250810190610c519190611a57565b60fd60146101000a81548160ff021916908360ff16021790555060fc60009054906101000a90046001600160a01b03166001600160a01b0316637535d2466040518163ffffffff1660e01b815260040160206040518083038186803b158015610cb957600080fd5b505afa158015610ccd573d6000803e3d6000fd5b505050506040513d601f19601f82011682018060405250810190610cf19190611a3a565b60fe80546001600160a01b0319166001600160a01b0392831617905560fc54604080516375d2641360e01b8152905191909216916375d26413916004808301926020929190829003018186803b158015610d4a57600080fd5b505afa158015610d5e573d6000803e3d6000fd5b505050506040513d601f19601f82011682018060405250810190610d829190611a3a565b60ff80546001600160a01b03199081166001600160a01b03938416179091556101008054821686841617905561010180549091169184169190911790558015610e05576000805461ff0019169055604051600181527f7f26b83ff96e1f2b6a682f133852f6798a09c465da95921460cefb38474024989060200160405180910390a15b505050505050565b6065546001600160a01b0316331480610e315750610101546001600160a01b031633145b610e4d5760405162461bcd60e51b815260040161060a9061196f565b60975460ff1615610e705760405162461bcd60e51b815260040161060a9061199c565b610636611479565b6001600160a01b03918216600090815260346020908152604080832093909416825291909152205490565b6065546001600160a01b03163314610ecd5760405162461bcd60e51b815260040161060a906119ec565b6001600160a01b038116610f325760405162461bcd60e51b815260206004820152602660248201527f4f776e61626c653a206e6577206f776e657220697320746865207a65726f206160448201526564647265737360d01b606482015260840161060a565b610f3b8161133b565b50565b6065546001600160a01b0316331480610f625750610101546001600160a01b031633145b610f7e5760405162461bcd60e51b815260040161060a9061196f565b60975460ff16610fc75760405162461bcd60e51b815260206004820152601460248201527314185d5cd8589b194e881b9bdd081c185d5cd95960621b604482015260640161060a565b6106366114ee565b6001600160a01b0383166110315760405162461bcd60e51b8152602060048201526024808201527f45524332303a20617070726f76652066726f6d20746865207a65726f206164646044820152637265737360e01b606482015260840161060a565b6001600160a01b0382166110925760405162461bcd60e51b815260206004820152602260248201527f45524332303a20617070726f766520746f20746865207a65726f206164647265604482015261737360f01b606482015260840161060a565b6001600160a01b0383811660008181526034602090815260408083209487168084529482529182902085905590518481527f8c5be1e5ebec7d5bd14f71427d1e84f3dd0314c0f7b2291e5b200ac8c7c3b925910160405180910390a3505050565b60006110ff8484610e78565b90506000198114611167578181101561115a5760405162461bcd60e51b815260206004820152601d60248201527f45524332303a20696e73756666696369656e7420616c6c6f77616e6365000000604482015260640161060a565b6111678484848403610fcf565b50505050565b6001600160a01b0383166111d15760405162461bcd60e51b815260206004820152602560248201527f45524332303a207472616e736665722066726f6d20746865207a65726f206164604482015264647265737360d81b606482015260840161060a565b6001600160a01b0382166112335760405162461bcd60e51b815260206004820152602360248201527f45524332303a207472616e7366657220746f20746865207a65726f206164647260448201526265737360e81b606482015260840161060a565b6001600160a01b038316600090815260336020526040902054818110156112ab5760405162461bcd60e51b815260206004820152602660248201527f45524332303a207472616e7366657220616d6f756e7420657863656564732062604482015265616c616e636560d01b606482015260840161060a565b6001600160a01b038085166000908152603360205260408082208585039055918516815290812080548492906112e29084906119c6565b92505081905550826001600160a01b0316846001600160a01b03167fddf252ad1be2c89b69c2b068fc378daa952ba7f163c4a11628f55a4df523b3ef8460405161132e91815260200190565b60405180910390a3611167565b606580546001600160a01b038381166001600160a01b0319831681179093556040519116919082907f8be0079c531659141344cd1fd0a4f28419497f9722a3daafe3b4186f6b6457e090600090a35050565b60008054610100900460ff16156113d4578160ff1660011480156113b05750303b155b6113cc5760405162461bcd60e51b815260040161060a90611a7a565b506000919050565b60005460ff8084169116106113fb5760405162461bcd60e51b815260040161060a90611a7a565b506000805460ff191660ff92909216919091179055600190565b600054610100900460ff1661143c5760405162461bcd60e51b815260040161060a90611ac8565b611446828261156d565b5050565b600054610100900460ff166114715760405162461bcd60e51b815260040161060a90611ac8565b6106366115bb565b60975460ff161561149c5760405162461bcd60e51b815260040161060a9061199c565b6097805460ff191660011790557f62e78cea01bee320cd4e420270b5ea74000d11b0c9f74754ebdbfc544b05a2586114d13390565b6040516001600160a01b03909116815260200160405180910390a1565b60975460ff166115375760405162461bcd60e51b815260206004820152601460248201527314185d5cd8589b194e881b9bdd081c185d5cd95960621b604482015260640161060a565b6097805460ff191690557f5db9ee0a495bf2e6ff9c91a7834c1ba4fdd244a5e8aa4e537bd38aeae4b073aa336114d1565b505050565b600054610100900460ff166115945760405162461bcd60e51b815260040161060a90611ac8565b81516115a79060369060208501906115eb565b5080516115689060379060208401906115eb565b600054610100900460ff166115e25760405162461bcd60e51b815260040161060a90611ac8565b6106363361133b565b8280546115f790611934565b90600052602060002090601f016020900481019282611619576000855561165f565b82601f1061163257805160ff191683800117855561165f565b8280016001018555821561165f579182015b8281111561165f578251825591602001919060010190611644565b5061166b92915061166f565b5090565b5b8082111561166b5760008155600101611670565b600060208083528351808285015260005b818110156116b157858101830151858201604001528201611695565b818111156116c3576000604083870101525b50601f01601f1916929092016040019392505050565b6001600160a01b0381168114610f3b57600080fd5b6000806040838503121561170157600080fd5b823561170c816116d9565b946020939093013593505050565b60006020828403121561172c57600080fd5b8135801515811461173c57600080fd5b9392505050565b60008060006060848603121561175857600080fd5b8335611763816116d9565b92506020840135611773816116d9565b929592945050506040919091013590565b60006020828403121561179657600080fd5b5035919050565b6000602082840312156117af57600080fd5b813561173c816116d9565b634e487b7160e01b600052604160045260246000fd5b600082601f8301126117e157600080fd5b813567ffffffffffffffff808211156117fc576117fc6117ba565b604051601f8301601f19908116603f01168101908282118183101715611824576118246117ba565b8160405283815286602085880101111561183d57600080fd5b836020870160208301376000602085830101528094505050505092915050565b600080600080600060a0868803121561187557600080fd5b853567ffffffffffffffff8082111561188d57600080fd5b61189989838a016117d0565b965060208801359150808211156118af57600080fd5b506118bc888289016117d0565b94505060408601356118cd816116d9565b925060608601356118dd816116d9565b915060808601356118ed816116d9565b809150509295509295909350565b6000806040838503121561190e57600080fd5b8235611919816116d9565b91506020830135611929816116d9565b809150509250929050565b600181811c9082168061194857607f821691505b6020821081141561196957634e487b7160e01b600052602260045260246000fd5b50919050565b60208082526013908201527227b7363c9037bbb732b91037b91030b236b4b760691b604082015260600190565b60208082526010908201526f14185d5cd8589b194e881c185d5cd95960821b604082015260600190565b600082198211156119e757634e487b7160e01b600052601160045260246000fd5b500190565b6020808252818101527f4f776e61626c653a2063616c6c6572206973206e6f7420746865206f776e6572604082015260600190565b600060208284031215611a3357600080fd5b5051919050565b600060208284031215611a4c57600080fd5b815161173c816116d9565b600060208284031215611a6957600080fd5b815160ff8116811461173c57600080fd5b6020808252602e908201527f496e697469616c697a61626c653a20636f6e747261637420697320616c72656160408201526d191e481a5b9a5d1a585b1a5e995960921b606082015260800190565b6020808252602b908201527f496e697469616c697a61626c653a20636f6e7472616374206973206e6f74206960408201526a6e697469616c697a696e6760a81b60608201526080019056fea2646970667358221220dcfb291f7e92db12e3d1fdd6e4e390b7d39faa6486f683c23b03c6c1e6412a7264736f6c63430008090033",
  "devdoc": {
    "kind": "dev",
    "methods": {
      "allowance(address,address)": {
        "details": "See {IERC20-allowance}."
      },
      "approve(address,uint256)": {
        "details": "See {IERC20-approve}. NOTE: If `amount` is the maximum `uint256`, the allowance is not updated on `transferFrom`. This is semantically equivalent to an infinite approval. Requirements: - `spender` cannot be the zero address."
      },
      "balanceOf(address)": {
        "details": "See {IERC20-balanceOf}."
      },
      "decimals()": {
        "details": "Returns the number of decimals used to get its user representation. For example, if `decimals` equals `2`, a balance of `505` tokens should be displayed to a user as `5.05` (`505 / 10 ** 2`). Tokens usually opt for a value of 18, imitating the relationship between Ether and Wei. This is the value {ERC20} uses, unless this function is overridden; NOTE: This information is only used for _display_ purposes: it in no way affects any of the arithmetic of the contract, including {IERC20-balanceOf} and {IERC20-transfer}."
      },
      "decreaseAllowance(address,uint256)": {
        "details": "Atomically decreases the allowance granted to `spender` by the caller. This is an alternative to {approve} that can be used as a mitigation for problems described in {IERC20-approve}. Emits an {Approval} event indicating the updated allowance. Requirements: - `spender` cannot be the zero address. - `spender` must have allowance for the caller of at least `subtractedValue`."
      },
      "deposit(uint256)": {
        "params": {
          "_amount": "amount of lptokens to deposit"
        }
      },
      "increaseAllowance(address,uint256)": {
        "details": "Atomically increases the allowance granted to `spender` by the caller. This is an alternative to {approve} that can be used as a mitigation for problems described in {IERC20-approve}. Emits an {Approval} event indicating the updated allowance. Requirements: - `spender` cannot be the zero address."
      },
      "name()": {
        "details": "Returns the name of the token."
      },
      "owner()": {
        "details": "Returns the address of the current owner."
      },
      "paused()": {
        "details": "Returns true if the contract is paused, and false otherwise."
      },
      "renounceOwnership()": {
        "details": "Leaves the contract without owner. It will not be possible to call `onlyOwner` functions anymore. Can only be called by the current owner. NOTE: Renouncing ownership will leave the contract without an owner, thereby removing any functionality that is only available to the owner."
      },
      "setFee(uint256)": {
        "params": {
          "_yieldFeePerc": "deposit fee percentage. 2000 for 20%"
        }
      },
      "symbol()": {
        "details": "Returns the symbol of the token, usually a shorter version of the name."
      },
      "totalSupply()": {
        "details": "See {IERC20-totalSupply}."
      },
      "transfer(address,uint256)": {
        "details": "See {IERC20-transfer}. Requirements: - `to` cannot be the zero address. - the caller must have a balance of at least `amount`."
      },
      "transferFrom(address,address,uint256)": {
        "details": "See {IERC20-transferFrom}. Emits an {Approval} event indicating the updated allowance. This is not required by the EIP. See the note at the beginning of {ERC20}. NOTE: Does not update the allowance if the current allowance is the maximum `uint256`. Requirements: - `from` and `to` cannot be the zero address. - `from` must have a balance of at least `amount`. - the caller must have allowance for ``from``'s tokens of at least `amount`."
      },
      "transferOwnership(address)": {
        "details": "Transfers ownership of the contract to a new account (`newOwner`). Can only be called by the current owner."
      },
      "withdraw(uint256)": {
        "params": {
          "_shares": "amount of shares to burn"
        }
      }
    },
    "version": 1
  },
  "userdoc": {
    "kind": "user",
    "methods": {
      "emergencyWithdraw()": {
        "notice": "Withdraws funds staked in mirror to this vault and pauses deposit, yield, invest functions"
      },
      "getPendingRewards()": {
        "notice": "Returns the pending rewards in USD."
      },
      "reinvest()": {
        "notice": "Unpauses deposit, yield, invest functions, and invests funds."
      },
      "setFee(uint256)": {
        "notice": "Function to set deposit and yield fee"
      }
    },
    "version": 1
  },
  "storageLayout": {
    "storage": [
      {
        "astId": 130,
        "contract": "contracts/mwi/deps/VaultTest.sol:Aave3VaultTest",
        "label": "_initialized",
        "offset": 0,
        "slot": "0",
        "type": "t_uint8"
      },
      {
        "astId": 133,
        "contract": "contracts/mwi/deps/VaultTest.sol:Aave3VaultTest",
        "label": "_initializing",
        "offset": 1,
        "slot": "0",
        "type": "t_bool"
      },
      {
        "astId": 1657,
        "contract": "contracts/mwi/deps/VaultTest.sol:Aave3VaultTest",
        "label": "__gap",
        "offset": 0,
        "slot": "1",
        "type": "t_array(t_uint256)50_storage"
      },
      {
        "astId": 454,
        "contract": "contracts/mwi/deps/VaultTest.sol:Aave3VaultTest",
        "label": "_balances",
        "offset": 0,
        "slot": "51",
        "type": "t_mapping(t_address,t_uint256)"
      },
      {
        "astId": 460,
        "contract": "contracts/mwi/deps/VaultTest.sol:Aave3VaultTest",
        "label": "_allowances",
        "offset": 0,
        "slot": "52",
        "type": "t_mapping(t_address,t_mapping(t_address,t_uint256))"
      },
      {
        "astId": 462,
        "contract": "contracts/mwi/deps/VaultTest.sol:Aave3VaultTest",
        "label": "_totalSupply",
        "offset": 0,
        "slot": "53",
        "type": "t_uint256"
      },
      {
        "astId": 464,
        "contract": "contracts/mwi/deps/VaultTest.sol:Aave3VaultTest",
        "label": "_name",
        "offset": 0,
        "slot": "54",
        "type": "t_string_storage"
      },
      {
        "astId": 466,
        "contract": "contracts/mwi/deps/VaultTest.sol:Aave3VaultTest",
        "label": "_symbol",
        "offset": 0,
        "slot": "55",
        "type": "t_string_storage"
      },
      {
        "astId": 1045,
        "contract": "contracts/mwi/deps/VaultTest.sol:Aave3VaultTest",
        "label": "__gap",
        "offset": 0,
        "slot": "56",
        "type": "t_array(t_uint256)45_storage"
      },
      {
        "astId": 10,
        "contract": "contracts/mwi/deps/VaultTest.sol:Aave3VaultTest",
        "label": "_owner",
        "offset": 0,
        "slot": "101",
        "type": "t_address"
      },
      {
        "astId": 122,
        "contract": "contracts/mwi/deps/VaultTest.sol:Aave3VaultTest",
        "label": "__gap",
        "offset": 0,
        "slot": "102",
        "type": "t_array(t_uint256)49_storage"
      },
      {
        "astId": 286,
        "contract": "contracts/mwi/deps/VaultTest.sol:Aave3VaultTest",
        "label": "_paused",
        "offset": 0,
        "slot": "151",
        "type": "t_bool"
      },
      {
        "astId": 375,
        "contract": "contracts/mwi/deps/VaultTest.sol:Aave3VaultTest",
        "label": "__gap",
        "offset": 0,
        "slot": "152",
        "type": "t_array(t_uint256)49_storage"
      },
      {
        "astId": 390,
        "contract": "contracts/mwi/deps/VaultTest.sol:Aave3VaultTest",
        "label": "_status",
        "offset": 0,
        "slot": "201",
        "type": "t_uint256"
      },
      {
        "astId": 434,
        "contract": "contracts/mwi/deps/VaultTest.sol:Aave3VaultTest",
        "label": "__gap",
        "offset": 0,
        "slot": "202",
        "type": "t_array(t_uint256)49_storage"
      },
      {
        "astId": 8429,
        "contract": "contracts/mwi/deps/VaultTest.sol:Aave3VaultTest",
        "label": "yieldFee",
        "offset": 0,
        "slot": "251",
        "type": "t_uint256"
      },
      {
        "astId": 8432,
        "contract": "contracts/mwi/deps/VaultTest.sol:Aave3VaultTest",
        "label": "aToken",
        "offset": 0,
        "slot": "252",
        "type": "t_contract(IAToken)8290"
      },
      {
        "astId": 8435,
        "contract": "contracts/mwi/deps/VaultTest.sol:Aave3VaultTest",
        "label": "token",
        "offset": 0,
        "slot": "253",
        "type": "t_contract(IERC20Upgradeable)1124"
      },
      {
        "astId": 8437,
        "contract": "contracts/mwi/deps/VaultTest.sol:Aave3VaultTest",
        "label": "tokenDecimals",
        "offset": 20,
        "slot": "253",
        "type": "t_uint8"
      },
      {
        "astId": 8440,
        "contract": "contracts/mwi/deps/VaultTest.sol:Aave3VaultTest",
        "label": "aPool",
        "offset": 0,
        "slot": "254",
        "type": "t_contract(IPool)8321"
      },
      {
        "astId": 8443,
        "contract": "contracts/mwi/deps/VaultTest.sol:Aave3VaultTest",
        "label": "aRewardsController",
        "offset": 0,
        "slot": "255",
        "type": "t_contract(IRewardsController)8398"
      },
      {
        "astId": 8445,
        "contract": "contracts/mwi/deps/VaultTest.sol:Aave3VaultTest",
        "label": "treasuryWallet",
        "offset": 0,
        "slot": "256",
        "type": "t_address"
      },
      {
        "astId": 8447,
        "contract": "contracts/mwi/deps/VaultTest.sol:Aave3VaultTest",
        "label": "admin",
        "offset": 0,
        "slot": "257",
        "type": "t_address"
      },
      {
        "astId": 8451,
        "contract": "contracts/mwi/deps/VaultTest.sol:Aave3VaultTest",
        "label": "depositedBlock",
        "offset": 0,
        "slot": "258",
        "type": "t_mapping(t_address,t_uint256)"
      }
    ],
    "types": {
      "t_address": {
        "encoding": "inplace",
        "label": "address",
        "numberOfBytes": "20"
      },
      "t_array(t_uint256)45_storage": {
        "base": "t_uint256",
        "encoding": "inplace",
        "label": "uint256[45]",
        "numberOfBytes": "1440"
      },
      "t_array(t_uint256)49_storage": {
        "base": "t_uint256",
        "encoding": "inplace",
        "label": "uint256[49]",
        "numberOfBytes": "1568"
      },
      "t_array(t_uint256)50_storage": {
        "base": "t_uint256",
        "encoding": "inplace",
        "label": "uint256[50]",
        "numberOfBytes": "1600"
      },
      "t_bool": {
        "encoding": "inplace",
        "label": "bool",
        "numberOfBytes": "1"
      },
      "t_contract(IAToken)8290": {
        "encoding": "inplace",
        "label": "contract IAToken",
        "numberOfBytes": "20"
      },
      "t_contract(IERC20Upgradeable)1124": {
        "encoding": "inplace",
        "label": "contract IERC20Upgradeable",
        "numberOfBytes": "20"
      },
      "t_contract(IPool)8321": {
        "encoding": "inplace",
        "label": "contract IPool",
        "numberOfBytes": "20"
      },
      "t_contract(IRewardsController)8398": {
        "encoding": "inplace",
        "label": "contract IRewardsController",
        "numberOfBytes": "20"
      },
      "t_mapping(t_address,t_mapping(t_address,t_uint256))": {
        "encoding": "mapping",
        "key": "t_address",
        "label": "mapping(address => mapping(address => uint256))",
        "numberOfBytes": "32",
        "value": "t_mapping(t_address,t_uint256)"
      },
      "t_mapping(t_address,t_uint256)": {
        "encoding": "mapping",
        "key": "t_address",
        "label": "mapping(address => uint256)",
        "numberOfBytes": "32",
        "value": "t_uint256"
      },
      "t_string_storage": {
        "encoding": "bytes",
        "label": "string",
        "numberOfBytes": "32"
      },
      "t_uint256": {
        "encoding": "inplace",
        "label": "uint256",
        "numberOfBytes": "32"
      },
      "t_uint8": {
        "encoding": "inplace",
        "label": "uint8",
        "numberOfBytes": "1"
      }
    }
  }
}