{
  "address": "0x744e24ACa66e6E02964C4bE248fD727585a8BDe4",
  "abi": [
    {
      "anonymous": false,
      "inputs": [
        {
          "indexed": false,
          "internalType": "uint256",
          "name": "currentWatermark",
          "type": "uint256"
        },
        {
          "indexed": false,
          "internalType": "uint256",
          "name": "lastWatermark",
          "type": "uint256"
        }
      ],
      "name": "AdjustWatermark",
      "type": "event"
    },
    {
      "anonymous": false,
      "inputs": [
        {
          "indexed": true,
          "internalType": "address",
          "name": "owner",
          "type": "address"
        },
        {
          "indexed": true,
          "internalType": "address",
          "name": "spender",
          "type": "address"
        },
        {
          "indexed": false,
          "internalType": "uint256",
          "name": "value",
          "type": "uint256"
        }
      ],
      "name": "Approval",
      "type": "event"
    },
    {
      "anonymous": false,
      "inputs": [
        {
          "indexed": false,
          "internalType": "address",
          "name": "user",
          "type": "address"
        },
        {
          "indexed": false,
          "internalType": "uint256",
          "name": "reqId",
          "type": "uint256"
        },
        {
          "indexed": false,
          "internalType": "uint256",
          "name": "amount",
          "type": "uint256"
        }
      ],
      "name": "Claim",
      "type": "event"
    },
    {
      "anonymous": false,
      "inputs": [
        {
          "indexed": false,
          "internalType": "address",
          "name": "user",
          "type": "address"
        },
        {
          "indexed": false,
          "internalType": "uint256",
          "name": "amount",
          "type": "uint256"
        },
        {
          "indexed": false,
          "internalType": "uint256",
          "name": "claimedCount",
          "type": "uint256"
        }
      ],
      "name": "ClaimMulti",
      "type": "event"
    },
    {
      "anonymous": false,
      "inputs": [
        {
          "indexed": false,
          "internalType": "uint256",
          "name": "currentWatermark",
          "type": "uint256"
        },
        {
          "indexed": false,
          "internalType": "uint256",
          "name": "lastWatermark",
          "type": "uint256"
        },
        {
          "indexed": false,
          "internalType": "uint256",
          "name": "fee",
          "type": "uint256"
        }
      ],
      "name": "CollectProfitAndUpdateWatermark",
      "type": "event"
    },
    {
      "anonymous": false,
      "inputs": [
        {
          "indexed": false,
          "internalType": "address",
          "name": "user",
          "type": "address"
        },
        {
          "indexed": false,
          "internalType": "uint256",
          "name": "amount",
          "type": "uint256"
        },
        {
          "indexed": false,
          "internalType": "uint256",
          "name": "shares",
          "type": "uint256"
        }
      ],
      "name": "Deposit",
      "type": "event"
    },
    {
      "anonymous": false,
      "inputs": [
        {
          "indexed": false,
          "internalType": "uint256",
          "name": "stAmount",
          "type": "uint256"
        }
      ],
      "name": "EmergencyWithdraw",
      "type": "event"
    },
    {
      "anonymous": false,
      "inputs": [
        {
          "indexed": false,
          "internalType": "uint8",
          "name": "version",
          "type": "uint8"
        }
      ],
      "name": "Initialized",
      "type": "event"
    },
    {
      "anonymous": false,
      "inputs": [
        {
          "indexed": false,
          "internalType": "uint256",
          "name": "amount",
          "type": "uint256"
        }
      ],
      "name": "Invest",
      "type": "event"
    },
    {
      "anonymous": false,
      "inputs": [
        {
          "indexed": true,
          "internalType": "address",
          "name": "previousOwner",
          "type": "address"
        },
        {
          "indexed": true,
          "internalType": "address",
          "name": "newOwner",
          "type": "address"
        }
      ],
      "name": "OwnershipTransferred",
      "type": "event"
    },
    {
      "anonymous": false,
      "inputs": [
        {
          "indexed": false,
          "internalType": "address",
          "name": "account",
          "type": "address"
        }
      ],
      "name": "Paused",
      "type": "event"
    },
    {
      "anonymous": false,
      "inputs": [
        {
          "indexed": false,
          "internalType": "uint256",
          "name": "stAmount",
          "type": "uint256"
        }
      ],
      "name": "Redeem",
      "type": "event"
    },
    {
      "anonymous": false,
      "inputs": [
        {
          "indexed": true,
          "internalType": "address",
          "name": "from",
          "type": "address"
        },
        {
          "indexed": true,
          "internalType": "address",
          "name": "to",
          "type": "address"
        },
        {
          "indexed": false,
          "internalType": "uint256",
          "name": "value",
          "type": "uint256"
        }
      ],
      "name": "Transfer",
      "type": "event"
    },
    {
      "anonymous": false,
      "inputs": [
        {
          "indexed": false,
          "internalType": "uint256",
          "name": "fees",
          "type": "uint256"
        },
        {
          "indexed": false,
          "internalType": "address",
          "name": "token",
          "type": "address"
        }
      ],
      "name": "TransferredOutFees",
      "type": "event"
    },
    {
      "anonymous": false,
      "inputs": [
        {
          "indexed": false,
          "internalType": "address",
          "name": "account",
          "type": "address"
        }
      ],
      "name": "Unpaused",
      "type": "event"
    },
    {
      "anonymous": false,
      "inputs": [
        {
          "indexed": false,
          "internalType": "address",
          "name": "user",
          "type": "address"
        },
        {
          "indexed": false,
          "internalType": "uint256",
          "name": "shares",
          "type": "uint256"
        },
        {
          "indexed": false,
          "internalType": "uint256",
          "name": "amount",
          "type": "uint256"
        },
        {
          "indexed": false,
          "internalType": "uint256",
          "name": "reqId",
          "type": "uint256"
        },
        {
          "indexed": false,
          "internalType": "uint256",
          "name": "pendingAmount",
          "type": "uint256"
        }
      ],
      "name": "Withdraw",
      "type": "event"
    },
    {
      "inputs": [],
      "name": "admin",
      "outputs": [
        {
          "internalType": "address",
          "name": "",
          "type": "address"
        }
      ],
      "stateMutability": "view",
      "type": "function"
    },
    {
      "inputs": [
        {
          "internalType": "address",
          "name": "owner",
          "type": "address"
        },
        {
          "internalType": "address",
          "name": "spender",
          "type": "address"
        }
      ],
      "name": "allowance",
      "outputs": [
        {
          "internalType": "uint256",
          "name": "",
          "type": "uint256"
        }
      ],
      "stateMutability": "view",
      "type": "function"
    },
    {
      "inputs": [
        {
          "internalType": "address",
          "name": "spender",
          "type": "address"
        },
        {
          "internalType": "uint256",
          "name": "amount",
          "type": "uint256"
        }
      ],
      "name": "approve",
      "outputs": [
        {
          "internalType": "bool",
          "name": "",
          "type": "bool"
        }
      ],
      "stateMutability": "nonpayable",
      "type": "function"
    },
    {
      "inputs": [],
      "name": "avalanchePool",
      "outputs": [
        {
          "internalType": "contract IAvalanchePool",
          "name": "",
          "type": "address"
        }
      ],
      "stateMutability": "view",
      "type": "function"
    },
    {
      "inputs": [
        {
          "internalType": "address",
          "name": "account",
          "type": "address"
        }
      ],
      "name": "balanceOf",
      "outputs": [
        {
          "internalType": "uint256",
          "name": "",
          "type": "uint256"
        }
      ],
      "stateMutability": "view",
      "type": "function"
    },
    {
      "inputs": [],
      "name": "bufferedDeposits",
      "outputs": [
        {
          "internalType": "uint256",
          "name": "",
          "type": "uint256"
        }
      ],
      "stateMutability": "view",
      "type": "function"
    },
    {
      "inputs": [],
      "name": "bufferedWithdrawals",
      "outputs": [
        {
          "internalType": "uint256",
          "name": "",
          "type": "uint256"
        }
      ],
      "stateMutability": "view",
      "type": "function"
    },
    {
      "inputs": [
        {
          "internalType": "uint256",
          "name": "_reqId",
          "type": "uint256"
        }
      ],
      "name": "claim",
      "outputs": [
        {
          "internalType": "uint256",
          "name": "_amount",
          "type": "uint256"
        }
      ],
      "stateMutability": "nonpayable",
      "type": "function"
    },
    {
      "inputs": [
        {
          "internalType": "uint256[]",
          "name": "_reqIds",
          "type": "uint256[]"
        }
      ],
      "name": "claimMulti",
      "outputs": [
        {
          "internalType": "uint256",
          "name": "_amount",
          "type": "uint256"
        },
        {
          "internalType": "uint256",
          "name": "_claimedCount",
          "type": "uint256"
        },
        {
          "internalType": "bool[]",
          "name": "_claimed",
          "type": "bool[]"
        }
      ],
      "stateMutability": "nonpayable",
      "type": "function"
    },
    {
      "inputs": [],
      "name": "claimUnbonded",
      "outputs": [],
      "stateMutability": "nonpayable",
      "type": "function"
    },
    {
      "inputs": [],
      "name": "collectProfitAndUpdateWatermark",
      "outputs": [],
      "stateMutability": "nonpayable",
      "type": "function"
    },
    {
      "inputs": [],
      "name": "decimals",
      "outputs": [
        {
          "internalType": "uint8",
          "name": "",
          "type": "uint8"
        }
      ],
      "stateMutability": "view",
      "type": "function"
    },
    {
      "inputs": [
        {
          "internalType": "address",
          "name": "spender",
          "type": "address"
        },
        {
          "internalType": "uint256",
          "name": "subtractedValue",
          "type": "uint256"
        }
      ],
      "name": "decreaseAllowance",
      "outputs": [
        {
          "internalType": "bool",
          "name": "",
          "type": "bool"
        }
      ],
      "stateMutability": "nonpayable",
      "type": "function"
    },
    {
      "inputs": [
        {
          "internalType": "uint256",
          "name": "_amount",
          "type": "uint256"
        }
      ],
      "name": "deposit",
      "outputs": [],
      "stateMutability": "nonpayable",
      "type": "function"
    },
    {
      "inputs": [],
      "name": "depositETH",
      "outputs": [],
      "stateMutability": "payable",
      "type": "function"
    },
    {
      "inputs": [],
      "name": "emergencyPendingRedeems",
      "outputs": [
        {
          "internalType": "uint256",
          "name": "_redeems",
          "type": "uint256"
        }
      ],
      "stateMutability": "view",
      "type": "function"
    },
    {
      "inputs": [],
      "name": "emergencyRedeem",
      "outputs": [],
      "stateMutability": "nonpayable",
      "type": "function"
    },
    {
      "inputs": [],
      "name": "emergencyWithdraw",
      "outputs": [],
      "stateMutability": "nonpayable",
      "type": "function"
    },
    {
      "inputs": [],
      "name": "fees",
      "outputs": [
        {
          "internalType": "uint256",
          "name": "",
          "type": "uint256"
        }
      ],
      "stateMutability": "view",
      "type": "function"
    },
    {
      "inputs": [],
      "name": "getAPR",
      "outputs": [
        {
          "internalType": "uint256",
          "name": "",
          "type": "uint256"
        }
      ],
      "stateMutability": "view",
      "type": "function"
    },
    {
      "inputs": [],
      "name": "getAllPool",
      "outputs": [
        {
          "internalType": "uint256",
          "name": "_pool",
          "type": "uint256"
        }
      ],
      "stateMutability": "view",
      "type": "function"
    },
    {
      "inputs": [],
      "name": "getAllPoolInUSD",
      "outputs": [
        {
          "internalType": "uint256",
          "name": "",
          "type": "uint256"
        }
      ],
      "stateMutability": "view",
      "type": "function"
    },
    {
      "inputs": [],
      "name": "getBaseApr",
      "outputs": [
        {
          "internalType": "uint256",
          "name": "",
          "type": "uint256"
        },
        {
          "internalType": "uint256",
          "name": "",
          "type": "uint256"
        },
        {
          "internalType": "bool",
          "name": "",
          "type": "bool"
        }
      ],
      "stateMutability": "view",
      "type": "function"
    },
    {
      "inputs": [],
      "name": "getBaseAprData",
      "outputs": [
        {
          "internalType": "uint256",
          "name": "",
          "type": "uint256"
        },
        {
          "internalType": "uint256",
          "name": "",
          "type": "uint256"
        },
        {
          "internalType": "uint256",
          "name": "",
          "type": "uint256"
        }
      ],
      "stateMutability": "view",
      "type": "function"
    },
    {
      "inputs": [],
      "name": "getBufferedDeposits",
      "outputs": [
        {
          "internalType": "uint256",
          "name": "",
          "type": "uint256"
        }
      ],
      "stateMutability": "view",
      "type": "function"
    },
    {
      "inputs": [],
      "name": "getEmergencyUnbondings",
      "outputs": [
        {
          "internalType": "uint256",
          "name": "",
          "type": "uint256"
        }
      ],
      "stateMutability": "view",
      "type": "function"
    },
    {
      "inputs": [],
      "name": "getInvestedStTokens",
      "outputs": [
        {
          "internalType": "uint256",
          "name": "_stAmount",
          "type": "uint256"
        }
      ],
      "stateMutability": "view",
      "type": "function"
    },
    {
      "inputs": [],
      "name": "getPendingRewards",
      "outputs": [
        {
          "internalType": "uint256",
          "name": "",
          "type": "uint256"
        }
      ],
      "stateMutability": "view",
      "type": "function"
    },
    {
      "inputs": [
        {
          "internalType": "uint256",
          "name": "_shares",
          "type": "uint256"
        }
      ],
      "name": "getPoolByShares",
      "outputs": [
        {
          "internalType": "uint256",
          "name": "",
          "type": "uint256"
        }
      ],
      "stateMutability": "view",
      "type": "function"
    },
    {
      "inputs": [
        {
          "internalType": "uint256",
          "name": "_stAmount",
          "type": "uint256"
        }
      ],
      "name": "getPooledTokenByStToken",
      "outputs": [
        {
          "internalType": "uint256",
          "name": "",
          "type": "uint256"
        }
      ],
      "stateMutability": "view",
      "type": "function"
    },
    {
      "inputs": [
        {
          "internalType": "uint256",
          "name": "_amount",
          "type": "uint256"
        }
      ],
      "name": "getSharesByPool",
      "outputs": [
        {
          "internalType": "uint256",
          "name": "",
          "type": "uint256"
        }
      ],
      "stateMutability": "view",
      "type": "function"
    },
    {
      "inputs": [
        {
          "internalType": "uint256",
          "name": "_amount",
          "type": "uint256"
        }
      ],
      "name": "getStTokenByPooledToken",
      "outputs": [
        {
          "internalType": "uint256",
          "name": "",
          "type": "uint256"
        }
      ],
      "stateMutability": "view",
      "type": "function"
    },
    {
      "inputs": [],
      "name": "getTokenUnbonded",
      "outputs": [
        {
          "internalType": "uint256",
          "name": "",
          "type": "uint256"
        }
      ],
      "stateMutability": "view",
      "type": "function"
    },
    {
      "inputs": [
        {
          "internalType": "uint256",
          "name": "_reqId",
          "type": "uint256"
        }
      ],
      "name": "getWithdrawRequest",
      "outputs": [
        {
          "internalType": "bool",
          "name": "_claimable",
          "type": "bool"
        },
        {
          "internalType": "uint256",
          "name": "_tokenAmt",
          "type": "uint256"
        },
        {
          "internalType": "uint256",
          "name": "_stTokenAmt",
          "type": "uint256"
        },
        {
          "internalType": "uint256",
          "name": "_requestTs",
          "type": "uint256"
        },
        {
          "internalType": "uint256",
          "name": "_waitForTs",
          "type": "uint256"
        }
      ],
      "stateMutability": "view",
      "type": "function"
    },
    {
      "inputs": [
        {
          "internalType": "address",
          "name": "spender",
          "type": "address"
        },
        {
          "internalType": "uint256",
          "name": "addedValue",
          "type": "uint256"
        }
      ],
      "name": "increaseAllowance",
      "outputs": [
        {
          "internalType": "bool",
          "name": "",
          "type": "bool"
        }
      ],
      "stateMutability": "nonpayable",
      "type": "function"
    },
    {
      "inputs": [
        {
          "internalType": "string",
          "name": "_name",
          "type": "string"
        },
        {
          "internalType": "string",
          "name": "_symbol",
          "type": "string"
        },
        {
          "internalType": "address",
          "name": "_treasury",
          "type": "address"
        },
        {
          "internalType": "address",
          "name": "_admin",
          "type": "address"
        },
        {
          "internalType": "address",
          "name": "_priceOracle",
          "type": "address"
        },
        {
          "internalType": "address",
          "name": "_token",
          "type": "address"
        },
        {
          "internalType": "address",
          "name": "_stToken",
          "type": "address"
        }
      ],
      "name": "initialize",
      "outputs": [],
      "stateMutability": "nonpayable",
      "type": "function"
    },
    {
      "inputs": [
        {
          "internalType": "address",
          "name": "_treasury",
          "type": "address"
        },
        {
          "internalType": "address",
          "name": "_admin",
          "type": "address"
        },
        {
          "internalType": "address",
          "name": "_priceOracle",
          "type": "address"
        }
      ],
      "name": "initialize1",
      "outputs": [],
      "stateMutability": "nonpayable",
      "type": "function"
    },
    {
      "inputs": [],
      "name": "invest",
      "outputs": [],
      "stateMutability": "nonpayable",
      "type": "function"
    },
    {
      "inputs": [],
      "name": "investInterval",
      "outputs": [
        {
          "internalType": "uint256",
          "name": "",
          "type": "uint256"
        }
      ],
      "stateMutability": "view",
      "type": "function"
    },
    {
      "inputs": [],
      "name": "lastCollectProfitTs",
      "outputs": [
        {
          "internalType": "uint256",
          "name": "",
          "type": "uint256"
        }
      ],
      "stateMutability": "view",
      "type": "function"
    },
    {
      "inputs": [],
      "name": "lastInvestTs",
      "outputs": [
        {
          "internalType": "uint256",
          "name": "",
          "type": "uint256"
        }
      ],
      "stateMutability": "view",
      "type": "function"
    },
    {
      "inputs": [],
      "name": "lastRedeemTs",
      "outputs": [
        {
          "internalType": "uint256",
          "name": "",
          "type": "uint256"
        }
      ],
      "stateMutability": "view",
      "type": "function"
    },
    {
      "inputs": [],
      "name": "minInvestAmount",
      "outputs": [
        {
          "internalType": "uint256",
          "name": "",
          "type": "uint256"
        }
      ],
      "stateMutability": "view",
      "type": "function"
    },
    {
      "inputs": [],
      "name": "minRedeemAmount",
      "outputs": [
        {
          "internalType": "uint256",
          "name": "",
          "type": "uint256"
        }
      ],
      "stateMutability": "view",
      "type": "function"
    },
    {
      "inputs": [],
      "name": "name",
      "outputs": [
        {
          "internalType": "string",
          "name": "",
          "type": "string"
        }
      ],
      "stateMutability": "view",
      "type": "function"
    },
    {
      "inputs": [],
      "name": "nft",
      "outputs": [
        {
          "internalType": "contract IStVaultNFT",
          "name": "",
          "type": "address"
        }
      ],
      "stateMutability": "view",
      "type": "function"
    },
    {
      "inputs": [],
      "name": "oneEpoch",
      "outputs": [
        {
          "internalType": "uint256",
          "name": "",
          "type": "uint256"
        }
      ],
      "stateMutability": "view",
      "type": "function"
    },
    {
      "inputs": [],
      "name": "owner",
      "outputs": [
        {
          "internalType": "address",
          "name": "",
          "type": "address"
        }
      ],
      "stateMutability": "view",
      "type": "function"
    },
    {
      "inputs": [],
      "name": "paused",
      "outputs": [
        {
          "internalType": "bool",
          "name": "",
          "type": "bool"
        }
      ],
      "stateMutability": "view",
      "type": "function"
    },
    {
      "inputs": [],
      "name": "pendingRedeems",
      "outputs": [
        {
          "internalType": "uint256",
          "name": "",
          "type": "uint256"
        }
      ],
      "stateMutability": "view",
      "type": "function"
    },
    {
      "inputs": [],
      "name": "pendingWithdrawals",
      "outputs": [
        {
          "internalType": "uint256",
          "name": "",
          "type": "uint256"
        }
      ],
      "stateMutability": "view",
      "type": "function"
    },
    {
      "inputs": [],
      "name": "priceOracle",
      "outputs": [
        {
          "internalType": "contract IPriceOracle",
          "name": "",
          "type": "address"
        }
      ],
      "stateMutability": "view",
      "type": "function"
    },
    {
      "inputs": [],
      "name": "redeem",
      "outputs": [],
      "stateMutability": "nonpayable",
      "type": "function"
    },
    {
      "inputs": [],
      "name": "redeemInterval",
      "outputs": [
        {
          "internalType": "uint256",
          "name": "",
          "type": "uint256"
        }
      ],
      "stateMutability": "view",
      "type": "function"
    },
    {
      "inputs": [],
      "name": "reinvest",
      "outputs": [],
      "stateMutability": "nonpayable",
      "type": "function"
    },
    {
      "inputs": [],
      "name": "renounceOwnership",
      "outputs": [],
      "stateMutability": "nonpayable",
      "type": "function"
    },
    {
      "inputs": [],
      "name": "resetApr",
      "outputs": [],
      "stateMutability": "nonpayable",
      "type": "function"
    },
    {
      "inputs": [
        {
          "internalType": "address",
          "name": "_newAdmin",
          "type": "address"
        }
      ],
      "name": "setAdmin",
      "outputs": [],
      "stateMutability": "nonpayable",
      "type": "function"
    },
    {
      "inputs": [
        {
          "internalType": "uint256",
          "name": "_yieldFeePerc",
          "type": "uint256"
        }
      ],
      "name": "setFee",
      "outputs": [],
      "stateMutability": "nonpayable",
      "type": "function"
    },
    {
      "inputs": [
        {
          "internalType": "address",
          "name": "_nft",
          "type": "address"
        }
      ],
      "name": "setNFT",
      "outputs": [],
      "stateMutability": "nonpayable",
      "type": "function"
    },
    {
      "inputs": [
        {
          "internalType": "uint256",
          "name": "_minInvestAmount",
          "type": "uint256"
        },
        {
          "internalType": "uint256",
          "name": "_minRedeemAmount",
          "type": "uint256"
        }
      ],
      "name": "setStakingAmounts",
      "outputs": [],
      "stateMutability": "nonpayable",
      "type": "function"
    },
    {
      "inputs": [
        {
          "internalType": "uint256",
          "name": "_unbondingPeriod",
          "type": "uint256"
        },
        {
          "internalType": "uint256",
          "name": "_investInterval",
          "type": "uint256"
        },
        {
          "internalType": "uint256",
          "name": "_redeemInterval",
          "type": "uint256"
        },
        {
          "internalType": "uint256",
          "name": "_oneEpoch",
          "type": "uint256"
        }
      ],
      "name": "setStakingPeriods",
      "outputs": [],
      "stateMutability": "nonpayable",
      "type": "function"
    },
    {
      "inputs": [
        {
          "internalType": "address",
          "name": "_wallet",
          "type": "address"
        }
      ],
      "name": "setTreasuryWallet",
      "outputs": [],
      "stateMutability": "nonpayable",
      "type": "function"
    },
    {
      "inputs": [],
      "name": "stToken",
      "outputs": [
        {
          "internalType": "contract IERC20Upgradeable",
          "name": "",
          "type": "address"
        }
      ],
      "stateMutability": "view",
      "type": "function"
    },
    {
      "inputs": [],
      "name": "symbol",
      "outputs": [
        {
          "internalType": "string",
          "name": "",
          "type": "string"
        }
      ],
      "stateMutability": "view",
      "type": "function"
    },
    {
      "inputs": [],
      "name": "token",
      "outputs": [
        {
          "internalType": "contract IERC20Upgradeable",
          "name": "",
          "type": "address"
        }
      ],
      "stateMutability": "view",
      "type": "function"
    },
    {
      "inputs": [],
      "name": "totalSupply",
      "outputs": [
        {
          "internalType": "uint256",
          "name": "",
          "type": "uint256"
        }
      ],
      "stateMutability": "view",
      "type": "function"
    },
    {
      "inputs": [
        {
          "internalType": "address",
          "name": "to",
          "type": "address"
        },
        {
          "internalType": "uint256",
          "name": "amount",
          "type": "uint256"
        }
      ],
      "name": "transfer",
      "outputs": [
        {
          "internalType": "bool",
          "name": "",
          "type": "bool"
        }
      ],
      "stateMutability": "nonpayable",
      "type": "function"
    },
    {
      "inputs": [
        {
          "internalType": "address",
          "name": "from",
          "type": "address"
        },
        {
          "internalType": "address",
          "name": "to",
          "type": "address"
        },
        {
          "internalType": "uint256",
          "name": "amount",
          "type": "uint256"
        }
      ],
      "name": "transferFrom",
      "outputs": [
        {
          "internalType": "bool",
          "name": "",
          "type": "bool"
        }
      ],
      "stateMutability": "nonpayable",
      "type": "function"
    },
    {
      "inputs": [
        {
          "internalType": "address",
          "name": "newOwner",
          "type": "address"
        }
      ],
      "name": "transferOwnership",
      "outputs": [],
      "stateMutability": "nonpayable",
      "type": "function"
    },
    {
      "inputs": [],
      "name": "treasuryWallet",
      "outputs": [
        {
          "internalType": "address",
          "name": "",
          "type": "address"
        }
      ],
      "stateMutability": "view",
      "type": "function"
    },
    {
      "inputs": [],
      "name": "unbondingPeriod",
      "outputs": [
        {
          "internalType": "uint256",
          "name": "",
          "type": "uint256"
        }
      ],
      "stateMutability": "view",
      "type": "function"
    },
    {
      "inputs": [],
      "name": "watermark",
      "outputs": [
        {
          "internalType": "uint256",
          "name": "",
          "type": "uint256"
        }
      ],
      "stateMutability": "view",
      "type": "function"
    },
    {
      "inputs": [
        {
          "internalType": "uint256",
          "name": "_shares",
          "type": "uint256"
        }
      ],
      "name": "withdraw",
      "outputs": [
        {
          "internalType": "uint256",
          "name": "_amount",
          "type": "uint256"
        },
        {
          "internalType": "uint256",
          "name": "_reqId",
          "type": "uint256"
        }
      ],
      "stateMutability": "nonpayable",
      "type": "function"
    },
    {
      "inputs": [],
      "name": "withdrawFees",
      "outputs": [],
      "stateMutability": "nonpayable",
      "type": "function"
    },
    {
      "inputs": [],
      "name": "yield",
      "outputs": [],
      "stateMutability": "nonpayable",
      "type": "function"
    },
    {
      "inputs": [],
      "name": "yieldFee",
      "outputs": [
        {
          "internalType": "uint256",
          "name": "",
          "type": "uint256"
        }
      ],
      "stateMutability": "view",
      "type": "function"
    },
    {
      "stateMutability": "payable",
      "type": "receive"
    }
  ],
  "transactionHash": "0xaaa0ef4da094e8a1a0ab333501098ce9e2b75412e9e64a82ecb2889ec1c2fcdb",
  "args": [],
  "numDeployments": 2,
  "solcInputHash": "18e6d69e8c55104389e24742de408d15",
  "bytecode": "0x608060405234801561001057600080fd5b50614a79806100206000396000f3fe6080604052600436106104565760003560e01c80637e478b861161023f578063c1c33f0e11610139578063e4717f6a116100b6578063f6326fb31161007a578063f6326fb314610c61578063f851a44014610c69578063fc0c546a14610c89578063fdb5a03e14610caa578063fe8fc02a14610cbf57600080fd5b8063e4717f6a14610bc7578063e8b5e51f14610bf6578063f13dc2e214610c0b578063f2fde38b14610c21578063f56e9c6614610c4157600080fd5b8063d36af3fc116100fd578063d36af3fc146108a4578063d80dfc3b14610b5e578063d9621f9e146108a4578063db2e21bc14610b92578063dd62ed3e14610ba757600080fd5b8063c1c33f0e14610a9f578063c378022c14610abf578063c89d5b8b14610adf578063c91f0c5314610af4578063cc0fe4a414610b1457600080fd5b8063a5ff3f80116101c7578063b6b55f251161018b578063b6b55f2514610a1e578063bb46554214610a3e578063bd244af414610a5e578063be040fb014610a73578063beca03d514610a8857600080fd5b8063a5ff3f8014610999578063a8602fea146109b0578063a9059cbb146109d0578063b09f5320146109f0578063b162d5dc14610a0757600080fd5b806395d89b411161020e57806395d89b41146109225780639af1d35a146109375780639bceb8571461094d578063a20a4cb414610964578063a457c2d71461097957600080fd5b80637e478b86146108b85780638954b3e0146108d85780638da5cb5b146108ed5780639119c0671461090b57600080fd5b806339509351116103505780635c975abb116102d85780636cf6d6751161029c5780636cf6d67514610822578063704b6c021461083957806370a0823114610859578063715018a61461088f57806373ff5f7c146108a457600080fd5b80635c975abb146107a35780635f86fe9c146107bb57806361bc47881461066b57806369fe0e2d146107ed5780636ba897841461080d57600080fd5b8063470343d81161031f578063470343d81461072e578063476343ee1461074357806347ccca02146107585780634a351b8a146107795780634b950d0f1461078e57600080fd5b806339509351146106c05780633f690113146106e057806342050f58146106f75780634626402b1461070e57600080fd5b806324b1a1f7116103de5780632e1a7d4d116103a25780632e1a7d4d1461061a578063313ce5671461064f578063318ea9201461066b578063379607f51461068957806338f360b3146106a957600080fd5b806324b1a1f71461059a5780632630c12f146105af57806328593984146105d05780632a39e8e4146105e55780632d2009b0146105fa57600080fd5b8063095ea7b311610425578063095ea7b3146104fd57806318160ddd1461052d5780631a813a3c1461054257806323b6443e1461055957806323b872dd1461057a57600080fd5b8063034f4083146104625780630601fb221461048b57806306fdde03146104c45780630912ae6d146104e657600080fd5b3661045d57005b600080fd5b34801561046e57600080fd5b5061047860fb5481565b6040519081526020015b60405180910390f35b34801561049757600080fd5b5061012c546104ac906001600160a01b031681565b6040516001600160a01b039091168152602001610482565b3480156104d057600080fd5b506104d9610cd6565b60405161048291906141f3565b3480156104f257600080fd5b5061047861010c5481565b34801561050957600080fd5b5061051d61051836600461423d565b610d68565b6040519015158152602001610482565b34801561053957600080fd5b50603554610478565b34801561054e57600080fd5b50610557610d82565b005b34801561056557600080fd5b50610103546104ac906001600160a01b031681565b34801561058657600080fd5b5061051d610595366004614267565b610dcc565b3480156105a657600080fd5b50610478610df2565b3480156105bb57600080fd5b50610100546104ac906001600160a01b031681565b3480156105dc57600080fd5b50610557610e0d565b3480156105f157600080fd5b50610478610e6f565b34801561060657600080fd5b506105576106153660046142a3565b610e88565b34801561062657600080fd5b5061063a6106353660046142d5565b610eca565b60408051928352602083019190915201610482565b34801561065b57600080fd5b5060405160128152602001610482565b34801561067757600080fd5b506104786106863660046142d5565b90565b34801561069557600080fd5b506104786106a43660046142d5565b61125e565b3480156106b557600080fd5b5061047861010d5481565b3480156106cc57600080fd5b5061051d6106db36600461423d565b6114f5565b3480156106ec57600080fd5b5061047861010f5481565b34801561070357600080fd5b506104786101125481565b34801561071a57600080fd5b5060fe546104ac906001600160a01b031681565b34801561073a57600080fd5b50610557611517565b34801561074f57600080fd5b50610557611581565b34801561076457600080fd5b50610101546104ac906001600160a01b031681565b34801561078557600080fd5b506104786115cb565b34801561079a57600080fd5b5061055761165a565b3480156107af57600080fd5b5060655460ff1661051d565b3480156107c757600080fd5b506107d06116a3565b604080519384526020840192909252151590820152606001610482565b3480156107f957600080fd5b506105576108083660046142d5565b611779565b34801561081957600080fd5b506104786117f2565b34801561082e57600080fd5b5061047861010a5481565b34801561084557600080fd5b506105576108543660046142ee565b611888565b34801561086557600080fd5b506104786108743660046142ee565b6001600160a01b031660009081526033602052604090205490565b34801561089b57600080fd5b506105576118d4565b3480156108b057600080fd5b506000610478565b3480156108c457600080fd5b506105576108d3366004614309565b611908565b3480156108e457600080fd5b50610557611a14565b3480156108f957600080fd5b5060c9546001600160a01b03166104ac565b34801561091757600080fd5b506104786101085481565b34801561092e57600080fd5b506104d9611a7d565b34801561094357600080fd5b5061047860fd5481565b34801561095957600080fd5b506104786101115481565b34801561097057600080fd5b50610478611a8c565b34801561098557600080fd5b5061051d61099436600461423d565b611c2e565b3480156109a557600080fd5b506104786101105481565b3480156109bc57600080fd5b506105576109cb3660046142ee565b611cb4565b3480156109dc57600080fd5b5061051d6109eb36600461423d565b611d47565b3480156109fc57600080fd5b506104786101065481565b348015610a1357600080fd5b5061047861010b5481565b348015610a2a57600080fd5b50610557610a393660046142d5565b611d55565b348015610a4a57600080fd5b50610478610a593660046142d5565b611db2565b348015610a6a57600080fd5b50610478611def565b348015610a7f57600080fd5b50610557611e14565b348015610a9457600080fd5b506104786101075481565b348015610aab57600080fd5b50610478610aba3660046142d5565b611f75565b348015610acb57600080fd5b50610557610ada36600461432b565b611f92565b348015610aeb57600080fd5b5061047861214f565b348015610b0057600080fd5b50610557610b0f366004614425565b612163565b348015610b2057600080fd5b50610b34610b2f3660046142d5565b6123ac565b6040805195151586526020860194909452928401919091526060830152608082015260a001610482565b348015610b6a57600080fd5b5061011554610116546101175460408051938452602084019290925290820152606001610482565b348015610b9e57600080fd5b5061055761243d565b348015610bb357600080fd5b50610478610bc23660046144dc565b6124ac565b348015610bd357600080fd5b50610be7610be236600461450f565b6124d7565b604051610482939291906145b5565b348015610c0257600080fd5b506105576127ba565b348015610c1757600080fd5b5061047860fc5481565b348015610c2d57600080fd5b50610557610c3c3660046142ee565b612824565b348015610c4d57600080fd5b50610557610c5c3660046142ee565b6128bc565b610557612951565b348015610c7557600080fd5b5060ff546104ac906001600160a01b031681565b348015610c9557600080fd5b50610102546104ac906001600160a01b031681565b348015610cb657600080fd5b506105576129ad565b348015610ccb57600080fd5b5061047861010e5481565b606060368054610ce59061460c565b80601f0160208091040260200160405190810160405280929190818152602001828054610d119061460c565b8015610d5e5780601f10610d3357610100808354040283529160200191610d5e565b820191906000526020600020905b815481529060010190602001808311610d4157829003601f168201915b5050505050905090565b600033610d76818585612a85565b60019150505b92915050565b60c9546001600160a01b0316331480610da5575060ff546001600160a01b031633145b610dca5760405162461bcd60e51b8152600401610dc190614641565b60405180910390fd5b565b600033610dda858285612baa565b610de5858585612c1e565b60019150505b9392505050565b6000610e0861010654610e03612dec565b612e1e565b905090565b60c9546001600160a01b0316331480610e30575060ff546001600160a01b031633145b610e4c5760405162461bcd60e51b8152600401610dc190614641565b60655460ff1615610dca5760405162461bcd60e51b8152600401610dc19061466e565b600061010654610e7e30612e2e565b610e0891906146ae565b60c9546001600160a01b03163314610eb25760405162461bcd60e51b8152600401610dc1906146c5565b61010a9390935561010e919091556101105561011255565b60008060026097541415610ef05760405162461bcd60e51b8152600401610dc1906146fa565b600260975582610f335760405162461bcd60e51b815260206004820152600e60248201526d125b9d985b1a5908105b5bdd5b9d60921b6044820152606401610dc1565b33600090815260336020526040902054831115610f875760405162461bcd60e51b81526020600482015260126024820152714e6f7420656e6f7567682062616c616e636560701b6044820152606401610dc1565b3360009081526101136020526040902054431415610fe75760405162461bcd60e51b815260206004820152601a60248201527f57697468647261772077697468696e2073616d6520626c6f636b0000000000006044820152606401610dc1565b6000610ff284611db2565b9050610ffe3385612ee7565b611009816000613032565b6000611013610df2565b60fd549091506000818311156110355760fd5461103090846146ae565b611038565b60005b905083811061104c5792945060009261105c565b94508461105981856146ae565b93505b61106686846146ae565b6101065583156111ee57600061107c6101055490565b905060008186610105546110909190614731565b61109a9190614766565b9050600080610105546110ad8486614731565b6110b79190614766565b975082156111e9578761010760008282546110d2919061477a565b909155505060655460ff166110ff578261010860008282546110f4919061477a565b9091555061112b9050565b60006111096117f2565b9050838111156111225761111d84826146ae565b611125565b60005b61010955505b610101546040516335313c2160e11b81523360048201526001600160a01b0390911690636a62784290602401602060405180830381600087803b15801561117157600080fd5b505af1158015611185573d6000803e3d6000fd5b505050506040513d601f19601f820116820180604052508101906111a99190614792565b604080516060810182528a815260208082018781524283850190815260008681526101149093529390912091518255516001820155905160029091015598505b505050505b85156111fe576111fe33876130b4565b604080513381526020810189905290810187905260608101869052608081018590527fe08737ac48a1dab4b1a46c7dc9398bd5bfc6d7ad6fabb7cd8caa254de14def359060a00160405180910390a1505050506001609781905550915091565b6000600260975414156112835760405162461bcd60e51b8152600401610dc1906146fa565b60026097556101015460405163430c208160e01b8152336004820152602481018490526001600160a01b039091169063430c20819060440160206040518083038186803b1580156112d357600080fd5b505afa1580156112e7573d6000803e3d6000fd5b505050506040513d601f19601f8201168201806040525081019061130b91906147ab565b6113435760405162461bcd60e51b81526020600482015260096024820152682737ba1037bbb732b960b91b6044820152606401610dc1565b600082815261011460209081526040918290208251606081018452815481526001820154928101929092526002015491810182905261010a549091611388919061477a565b4210156113cf5760405162461bcd60e51b8152602060048201526015602482015274139bdd0818589b19481d1bc818db185a5b481e595d605a1b6044820152606401610dc1565b80516113e26113dc610e6f565b82613102565b9250600083116114265760405162461bcd60e51b815260206004820152600f60248201526e27379032b737bab3b4103a37b5b2b760891b6044820152606401610dc1565b61010154604051630852cd8d60e31b8152600481018690526001600160a01b03909116906342966c6890602401600060405180830381600087803b15801561146d57600080fd5b505af1158015611481573d6000803e3d6000fd5b5050505080610107600082825461149891906146ae565b909155506114a8905033846130b4565b60408051338152602081018690529081018490527f34fcbac0073d7c3d388e51312faf357774904998eeb8fca628b9e6f65ee1cbf79060600160405180910390a150506001609755919050565b600033610d7681858561150883836124ac565b611512919061477a565b612a85565b60c9546001600160a01b031633148061153a575060ff546001600160a01b031633145b6115565760405162461bcd60e51b8152600401610dc190614641565b60655460ff16156115795760405162461bcd60e51b8152600401610dc19061466e565b610dca613145565b60c9546001600160a01b03163314806115a4575060ff546001600160a01b031633145b6115c05760405162461bcd60e51b8152600401610dc190614641565b6115c86131f4565b50565b60006115d960655460ff1690565b1561068657610103546040516370a0823160e01b81523060048201526001600160a01b03909116906370a082319060240160206040518083038186803b15801561162257600080fd5b505afa158015611636573d6000803e3d6000fd5b505050506040513d601f19601f82011682018060405250810190610e089190614792565b60c9546001600160a01b031633146116845760405162461bcd60e51b8152600401610dc1906146c5565b61169b600061011581905561011681905561011755565b610dca6132b5565b610115546101165461011754600092839283928215806116cf5750426116cc8262093a8061477a565b11155b1561176b5760006116e7670de0b6b3a7640000611db2565b90508260001080156116f857508083105b1561175a57600061170983426146ae565b6117139085614731565b670de0b6b3a76400006301e1338061172b87866146ae565b6117359190614731565b61173f9190614731565b6117499190614766565b989197506001965090945050505050565b600097909650600195509350505050565b509094909350600092509050565b60c9546001600160a01b031633146117a35760405162461bcd60e51b8152600401610dc1906146c5565b610bb981106117ed5760405162461bcd60e51b81526020600482015260166024820152755969656c64204665652063616e6e6f74203e2033302560501b6044820152606401610dc1565b60fb55565b61012c5460405163019dceaf60e11b815230600482015260009182916001600160a01b039091169063033b9d5e9060240160206040518083038186803b15801561183b57600080fd5b505afa15801561184f573d6000803e3d6000fd5b505050506040513d601f19601f820116820180604052508101906118739190614792565b905061188281610109546132e1565b91505090565b60c9546001600160a01b031633146118b25760405162461bcd60e51b8152600401610dc1906146c5565b60ff80546001600160a01b0319166001600160a01b0392909216919091179055565b60c9546001600160a01b031633146118fe5760405162461bcd60e51b8152600401610dc1906146c5565b610dca60006132f0565b60c9546001600160a01b031633146119325760405162461bcd60e51b8152600401610dc1906146c5565b600081116119825760405162461bcd60e51b815260206004820152601b60248201527f6d696e52656465656d416d6f756e74206d757374206265203e203000000000006044820152606401610dc1565b61012c60009054906101000a90046001600160a01b03166001600160a01b031663d9bbd2786040518163ffffffff1660e01b815260040160206040518083038186803b1580156119d157600080fd5b505afa1580156119e5573d6000803e3d6000fd5b505050506040513d601f19601f82011682018060405250810190611a099190614792565b61010b5561010c5550565b60c9546001600160a01b0316331480611a37575060ff546001600160a01b031633145b611a535760405162461bcd60e51b8152600401610dc190614641565b60655460ff16611a755760405162461bcd60e51b8152600401610dc1906147cd565b610dca613342565b606060378054610ce59061460c565b6000611a9a60655460ff1690565b611b6657600061010854611aac600090565b610103546040516370a0823160e01b81523060048201526001600160a01b03909116906370a082319060240160206040518083038186803b158015611af057600080fd5b505afa158015611b04573d6000803e3d6000fd5b505050506040513d601f19601f82011682018060405250810190611b289190614792565b611b32919061477a565b611b3c91906146ae565b90508015611b48578091505b61010654611b56908361477a565b915060fd548261188291906146ae565b600061010854611b746117f2565b6000610103546040516370a0823160e01b81523060048201526001600160a01b03909116906370a082319060240160206040518083038186803b158015611bba57600080fd5b505afa158015611bce573d6000803e3d6000fd5b505050506040513d601f19601f82011682018060405250810190611bf29190614792565b611bfc919061477a565b611c06919061477a565b611c1091906146ae565b90508015611c1c578091505b611c24612dec565b611b56908361477a565b60003381611c3c82866124ac565b905083811015611c9c5760405162461bcd60e51b815260206004820152602560248201527f45524332303a2064656372656173656420616c6c6f77616e63652062656c6f77604482015264207a65726f60d81b6064820152608401610dc1565b611ca98286868403612a85565b506001949350505050565b60c9546001600160a01b03163314611cde5760405162461bcd60e51b8152600401610dc1906146c5565b6001600160a01b038116611d255760405162461bcd60e51b815260206004820152600e60248201526d1dd85b1b195d081a5b9d985b1a5960921b6044820152606401610dc1565b60fe80546001600160a01b0319166001600160a01b0392909216919091179055565b600033610d76818585612c1e565b60026097541415611d785760405162461bcd60e51b8152600401610dc1906146fa565b600260975560655460ff1615611da05760405162461bcd60e51b8152600401610dc19061466e565b611daa33826133be565b506001609755565b600080611dbe60355490565b90508015611de85780611dcf611a8c565b611dd99085614731565b611de39190614766565b610deb565b5090919050565b600080611dfa611a8c565b61010254909150611882906001600160a01b031682613526565b60c9546001600160a01b0316331480611e37575060ff546001600160a01b031633145b611e535760405162461bcd60e51b8152600401610dc190614641565b60655460ff1615611e765760405162461bcd60e51b8152600401610dc19061466e565b6101085461010c54811015611eb95760405162461bcd60e51b81526020600482015260096024820152681d1bdbc81cdb585b1b60ba1b6044820152606401610dc1565b6101105461010f54611ecb919061477a565b421015611f135760405162461bcd60e51b8152602060048201526016602482015275139bdd0818589b19481d1bc81c995919595b481e595d60521b6044820152606401610dc1565b6000611f1e826135f4565b9050806101086000828254611f3391906146ae565b90915550504261010f556040518181527f702d5967f45f6513a38ffc42d6ba9bf230bd40e8f53b16363c7eb4fd2deb9a44906020015b60405180910390a15050565b600080611f80611a8c565b90508015611de85780611dcf60355490565b6000611f9e60016136f5565b90508015611fb6576000805461ff0019166101001790555b6120366040518060400160405280601081526020016f0a6a89240a6e8c2d6d2dcce4082ac82b60831b815250604051806040016040528060098152602001680e6e8d2a6e882ac82b60bb1b81525086868673eeeeeeeeeeeeeeeeeeeeeeeeeeeeeeeeeeeeeeee73bd97c29aa3e83c523c9714edca8db8881841a593612163565b61012c80546001600160a01b031916730c29d40cbd3c9073f4c0c96bf88ae1b4b4fe1d119081179091556224ea0061010a5560408051631b377a4f60e31b8152905163d9bbd27891600480820192602092909190829003018186803b15801561209e57600080fd5b505afa1580156120b2573d6000803e3d6000fd5b505050506040513d601f19601f820116820180604052508101906120d69190614792565b61010b55620151806101125561012c5461010354612103916001600160a01b039182169116600019613782565b8015612149576000805461ff0019169055604051600181527f7f26b83ff96e1f2b6a682f133852f6798a09c465da95921460cefb38474024989060200160405180910390a15b50505050565b60008061215a6116a3565b50909392505050565b600061216f60016136f5565b90508015612187576000805461ff0019166101001790555b6001600160a01b0386166121d05760405162461bcd60e51b815260206004820152601060248201526f1d1c99585cdd5c9e481a5b9d985b1a5960821b6044820152606401610dc1565b6121d86138d9565b6121e0613909565b6121ea8888613930565b6107d060fb5560fe80546001600160a01b038089166001600160a01b03199283161790925560ff80548884169083161790556101008054878416908316179055610102805486841690831681179091556101038054938616939092169290921790556122559061397e565b61010360146101000a81548160ff021916908360ff16021790555061010360009054906101000a90046001600160a01b03166001600160a01b031663313ce5676040518163ffffffff1660e01b815260040160206040518083038186803b1580156122bf57600080fd5b505afa1580156122d3573d6000803e3d6000fd5b505050506040513d601f19601f820116820180604052508101906122f7919061480c565b610103805460ff60a81b1916600160a81b60ff93841602179081905561232791600160a01b90910416600a61490b565b610104556101035461234490600160a81b900460ff16600a61490b565b61010555600161010b81905561010c5561235c6132b5565b80156123a2576000805461ff0019169055604051600181527f7f26b83ff96e1f2b6a682f133852f6798a09c465da95921460cefb38474024989060200160405180910390a15b5050505050505050565b60008181526101146020908152604080832081516060810183528154808252600183015494820185905260029092015492810183905261010a549193929185919082906123f9908561477a565b9050428111156124145761240d42826146ae565b9250612432565b6000612427612421610e6f565b88613102565b111561243257600196505b505091939590929450565b60c9546001600160a01b0316331480612460575060ff546001600160a01b031633145b61247c5760405162461bcd60e51b8152600401610dc190614641565b60655460ff161561249f5760405162461bcd60e51b8152600401610dc19061466e565b6124a7613a22565b611a75565b6001600160a01b03918216600090815260346020908152604080832093909416825291909152205490565b6000806060600260975414156124ff5760405162461bcd60e51b8152600401610dc1906146fa565b6002609755600061250e610e6f565b85519091506000908067ffffffffffffffff81111561252f5761252f61436e565b604051908082528060200260200182016040528015612558578160200160208202803683370190505b50935060005b8181101561275857600088828151811061257a5761257a61491a565b60209081029190910101516101015460405163430c208160e01b8152336004820152602481018390529192506001600160a01b03169063430c20819060440160206040518083038186803b1580156125d157600080fd5b505afa1580156125e5573d6000803e3d6000fd5b505050506040513d601f19601f8201168201806040525081019061260991906147ab565b6126135750612746565b600081815261011460209081526040918290208251606081018452815481526001820154928101929092526002015491810182905261010a549091612658919061477a565b421015612666575050612746565b80516126728782613102565b95508561268157505050612746565b61268b868b61477a565b995061269786886146ae565b96508061010760008282546126ac91906146ae565b909155505061010154604051630852cd8d60e31b8152600481018590526001600160a01b03909116906342966c6890602401600060405180830381600087803b1580156126f857600080fd5b505af115801561270c573d6000803e3d6000fd5b50505050888061271b90614930565b99505060018885815181106127325761273261491a565b911515602092830291909101909101525050505b8061275081614930565b91505061255e565b5085156127ab5761276933876130b4565b60408051338152602081018890529081018690527f1230003b239f7686d92a5b33084711bef8ae5f401f3d27f049d9196a138d44829060600160405180910390a15b50506001609755509193909250565b60c9546001600160a01b03163314806127dd575060ff546001600160a01b031633145b6127f95760405162461bcd60e51b8152600401610dc190614641565b60655460ff161561281c5760405162461bcd60e51b8152600401610dc19061466e565b610dca613a97565b60c9546001600160a01b0316331461284e5760405162461bcd60e51b8152600401610dc1906146c5565b6001600160a01b0381166128b35760405162461bcd60e51b815260206004820152602660248201527f4f776e61626c653a206e6577206f776e657220697320746865207a65726f206160448201526564647265737360d01b6064820152608401610dc1565b6115c8816132f0565b60c9546001600160a01b031633146128e65760405162461bcd60e51b8152600401610dc1906146c5565b610101546001600160a01b03161561292e5760405162461bcd60e51b815260206004820152600b60248201526a105b1c9958591e481cd95d60aa1b6044820152606401610dc1565b61010180546001600160a01b0319166001600160a01b0392909216919091179055565b600260975414156129745760405162461bcd60e51b8152600401610dc1906146fa565b600260975560655460ff161561299c5760405162461bcd60e51b8152600401610dc19061466e565b6129a633346133be565b6001609755565b60c9546001600160a01b03163314806129d0575060ff546001600160a01b031633145b6129ec5760405162461bcd60e51b8152600401610dc190614641565b60655460ff16612a0e5760405162461bcd60e51b8152600401610dc1906147cd565b612a166117f2565b15612a6f5760405162461bcd60e51b815260206004820152602360248201527f456d657267656e637920756e626f6e64696e67206973206e6f742066696e69736044820152621a195960ea1b6064820152608401610dc1565b612a77613b24565b600061010955610dca613a97565b6001600160a01b038316612ae75760405162461bcd60e51b8152602060048201526024808201527f45524332303a20617070726f76652066726f6d20746865207a65726f206164646044820152637265737360e01b6064820152608401610dc1565b6001600160a01b038216612b485760405162461bcd60e51b815260206004820152602260248201527f45524332303a20617070726f766520746f20746865207a65726f206164647265604482015261737360f01b6064820152608401610dc1565b6001600160a01b0383811660008181526034602090815260408083209487168084529482529182902085905590518481527f8c5be1e5ebec7d5bd14f71427d1e84f3dd0314c0f7b2291e5b200ac8c7c3b92591015b60405180910390a3505050565b6000612bb684846124ac565b905060001981146121495781811015612c115760405162461bcd60e51b815260206004820152601d60248201527f45524332303a20696e73756666696369656e7420616c6c6f77616e63650000006044820152606401610dc1565b6121498484848403612a85565b6001600160a01b038316612c825760405162461bcd60e51b815260206004820152602560248201527f45524332303a207472616e736665722066726f6d20746865207a65726f206164604482015264647265737360d81b6064820152608401610dc1565b6001600160a01b038216612ce45760405162461bcd60e51b815260206004820152602360248201527f45524332303a207472616e7366657220746f20746865207a65726f206164647260448201526265737360e81b6064820152608401610dc1565b6001600160a01b03831660009081526033602052604090205481811015612d5c5760405162461bcd60e51b815260206004820152602660248201527f45524332303a207472616e7366657220616d6f756e7420657863656564732062604482015265616c616e636560d01b6064820152608401610dc1565b6001600160a01b03808516600090815260336020526040808220858503905591851681529081208054849290612d9390849061477a565b92505081905550826001600160a01b0316846001600160a01b03167fddf252ad1be2c89b69c2b068fc378daa952ba7f163c4a11628f55a4df523b3ef84604051612ddf91815260200190565b60405180910390a3612149565b600080612df830612e2e565b61010754909150808211612e0d576000612e17565b612e1781836146ae565b9250505090565b600081831015611de85781610deb565b610102546000906001600160a01b031673eeeeeeeeeeeeeeeeeeeeeeeeeeeeeeeeeeeeeeee1415612e6957816001600160a01b031631610d7c565b610102546040516370a0823160e01b81526001600160a01b038481166004830152909116906370a082319060240160206040518083038186803b158015612eaf57600080fd5b505afa158015612ec3573d6000803e3d6000fd5b505050506040513d601f19601f82011682018060405250810190610d7c9190614792565b6001600160a01b038216612f475760405162461bcd60e51b815260206004820152602160248201527f45524332303a206275726e2066726f6d20746865207a65726f206164647265736044820152607360f81b6064820152608401610dc1565b6001600160a01b03821660009081526033602052604090205481811015612fbb5760405162461bcd60e51b815260206004820152602260248201527f45524332303a206275726e20616d6f756e7420657863656564732062616c616e604482015261636560f01b6064820152608401610dc1565b6001600160a01b0383166000908152603360205260408120838303905560358054849290612fea9084906146ae565b90915550506040518281526000906001600160a01b038516907fddf252ad1be2c89b69c2b068fc378daa952ba7f163c4a11628f55a4df523b3ef90602001612b9d565b505050565b60fc54600182151514613062578260fc541161304f576000613070565b8260fc5461305d91906146ae565b613070565b8260fc54613070919061477a565b60fc81905560408051918252602082018390527f07b7fa586c4fdef11992d9448b97ba78814c23ddec7e1d4bf195fda6716e472691015b60405180910390a1505050565b610102546001600160a01b031673eeeeeeeeeeeeeeeeeeeeeeeeeeeeeeeeeeeeeeee14156130ea576130e68282613b77565b5050565b610102546130e6906001600160a01b03168383613c2a565b6000806305f5e100613118846305f5e0ff614731565b6131229190614766565b905080841061313a5761313584846132e1565b61313d565b60005b949350505050565b600061314f611a8c565b60fc549091506000818311156131b157600061316b83856146ae565b905061271060fb548261317e9190614731565b6131889190614766565b91508160fd600082825461319c919061477a565b909155506131ac905082856146ae565b60fc55505b426101115560408051848152602081018490529081018290527fa3e3c8c92ed1e364d04865f99cd96c3ae8f5a7d800f4a1d8148a58c6de6f1b71906060016130a7565b60006131fe610df2565b60fd54909150801580159061321257508115155b156132b1578082811015613235576000915061322e81846146ae565b9250613248565b61323f83836146ae565b60009390925090505b60fd82905561010683905560fe54613269906001600160a01b0316826130b4565b61010254604080518381526001600160a01b0390921660208301527f6e027f1905abd7233c51c9483e29a545074ed10d39db528c9791a246b26741ff910160405180910390a1505b5090565b60008060006132c26116a3565b925092509250801561302d575061011591909155610116554261011755565b6000818310611de85781610deb565b60c980546001600160a01b038381166001600160a01b0319831681179093556040519116919082907f8be0079c531659141344cd1fd0a4f28419497f9722a3daafe3b4186f6b6457e090600090a35050565b6101105461010f54613354919061477a565b4210610dca5761010854600061336982613c5a565b9050808211156133825761337d81836146ae565b613385565b60005b610108554261010f556040518181527f99d7f8b71cfb9126984f7a5eed3a40e64a8959e9b0e442221546fb04ec6a489c90602001611f69565b600081116133ff5760405162461bcd60e51b815260206004820152600e60248201526d125b9d985b1a5908185b5bdd5b9d60921b6044820152606401610dc1565b6001600160a01b03808316600090815261011360205260409020439055610102541673eeeeeeeeeeeeeeeeeeeeeeeeeeeeeeeeeeeeeeee146134545761010254613454906001600160a01b0316833084613d68565b806101066000828254613467919061477a565b909155506000905081613478611a8c565b61348291906146ae565b9050600061348f60355490565b9050600082158061349e575081155b6134bc57826134ad8386614731565b6134b79190614766565b6134be565b835b90506134ca8582613da0565b6134d5846001613032565b604080516001600160a01b0387168152602081018690529081018290527f90890809c654f11d6e72a28fa60149770a0d11ec6c92319d6ceb2bb0a4ea1a159060600160405180910390a15050505050565b6101005460405163b3596f0760e01b81526001600160a01b038481166004830152600092839283929091169063b3596f0790602401604080518083038186803b15801561357257600080fd5b505afa158015613586573d6000803e3d6000fd5b505050506040513d601f19601f820116820180604052508101906135aa919061494b565b9150915060006135b98661397e565b90506135c682600a61490b565b836135d6878460ff166012613e7f565b6135e09190614731565b6135ea9190614766565b9695505050505050565b610103546040516370a0823160e01b815230600482015282916000916001600160a01b03909116906370a082319060240160206040518083038186803b15801561363d57600080fd5b505afa158015613651573d6000803e3d6000fd5b505050506040513d601f19601f820116820180604052508101906136759190614792565b905080156136ef5761012c546001600160a01b031663f912656482851161369c578461369e565b825b6040518263ffffffff1660e01b81526004016136bc91815260200190565b600060405180830381600087803b1580156136d657600080fd5b505af11580156136ea573d6000803e3d6000fd5b505050505b50919050565b60008054610100900460ff161561373c578160ff1660011480156137185750303b155b6137345760405162461bcd60e51b8152600401610dc19061496e565b506000919050565b60005460ff8084169116106137635760405162461bcd60e51b8152600401610dc19061496e565b506000805460ff191660ff92909216919091179055600190565b919050565b80158061380b5750604051636eb1769f60e11b81523060048201526001600160a01b03838116602483015284169063dd62ed3e9060440160206040518083038186803b1580156137d157600080fd5b505afa1580156137e5573d6000803e3d6000fd5b505050506040513d601f19601f820116820180604052508101906138099190614792565b155b6138765760405162461bcd60e51b815260206004820152603660248201527f5361666545524332303a20617070726f76652066726f6d206e6f6e2d7a65726f60448201527520746f206e6f6e2d7a65726f20616c6c6f77616e636560501b6064820152608401610dc1565b6040516001600160a01b03831660248201526044810182905261302d90849063095ea7b360e01b906064015b60408051601f198184030181529190526020810180516001600160e01b03166001600160e01b031990931692909217909152613edd565b600054610100900460ff166139005760405162461bcd60e51b8152600401610dc1906149bc565b610dca336132f0565b600054610100900460ff166129a65760405162461bcd60e51b8152600401610dc1906149bc565b600054610100900460ff166139575760405162461bcd60e51b8152600401610dc1906149bc565b815161396a906036906020850190614137565b50805161302d906037906020840190614137565b60006001600160a01b03821673eeeeeeeeeeeeeeeeeeeeeeeeeeeeeeeeeeeeeeee14613a1a57816001600160a01b031663313ce5676040518163ffffffff1660e01b815260040160206040518083038186803b1580156139dd57600080fd5b505afa1580156139f1573d6000803e3d6000fd5b505050506040513d601f19601f82011682018060405250810190613a15919061480c565b610d7c565b601292915050565b60655460ff1615613a455760405162461bcd60e51b8152600401610dc19061466e565b6065805460ff191660011790557f62e78cea01bee320cd4e420270b5ea74000d11b0c9f74754ebdbfc544b05a258613a7a3390565b6040516001600160a01b03909116815260200160405180910390a1565b613a9f613145565b6000613aa96131f4565b905061010b548110158015613acf575061010e5461010d54613acb919061477a565b4210155b156115c8576000613adf82613faf565b9050613aeb81836146ae565b610106554261010d556040518181527fa09b7ae452b7bffb9e204c3a016e80caeecf46f554d112644f36fa114dac6ffa90602001611f69565b60655460ff16613b465760405162461bcd60e51b8152600401610dc1906147cd565b6065805460ff191690557f5db9ee0a495bf2e6ff9c91a7834c1ba4fdd244a5e8aa4e537bd38aeae4b073aa33613a7a565b604080516000808252602082019092526001600160a01b038416908390604051613ba19190614a07565b60006040518083038185875af1925050503d8060008114613bde576040519150601f19603f3d011682016040523d82523d6000602084013e613be3565b606091505b505090508061302d5760405162461bcd60e51b8152602060048201526013602482015272115512081d1c985b9cd9995c8819985a5b1959606a1b6044820152606401610dc1565b6040516001600160a01b03831660248201526044810182905261302d90849063a9059cbb60e01b906064016138a2565b610103546040516370a0823160e01b815230600482015260009182916001600160a01b03909116906370a082319060240160206040518083038186803b158015613ca357600080fd5b505afa158015613cb7573d6000803e3d6000fd5b505050506040513d601f19601f82011682018060405250810190613cdb9190614792565b905061010c5481106136ef5761012c54604051633e44995960e21b8152600481018390526001600160a01b039091169063f912656490602401600060405180830381600087803b158015613d2e57600080fd5b505af1158015613d42573d6000803e3d6000fd5b50505050828111613d54576000613d5e565b613d5e83826146ae565b6101095592915050565b6040516001600160a01b03808516602483015283166044820152606481018290526121499085906323b872dd60e01b906084016138a2565b6001600160a01b038216613df65760405162461bcd60e51b815260206004820152601f60248201527f45524332303a206d696e7420746f20746865207a65726f2061646472657373006044820152606401610dc1565b8060356000828254613e08919061477a565b90915550506001600160a01b03821660009081526033602052604081208054839290613e3590849061477a565b90915550506040518181526001600160a01b038316906000907fddf252ad1be2c89b69c2b068fc378daa952ba7f163c4a11628f55a4df523b3ef9060200160405180910390a35050565b600081831415613e90575082610deb565b81831015613ebe57613ea283836146ae565b613ead90600a614a23565b613eb79085614731565b9050610deb565b613ec882846146ae565b613ed390600a614a23565b613eb79085614766565b6000613f32826040518060400160405280602081526020017f5361666545524332303a206c6f772d6c6576656c2063616c6c206661696c6564815250856001600160a01b03166140239092919063ffffffff16565b80519091501561302d5780806020019051810190613f5091906147ab565b61302d5760405162461bcd60e51b815260206004820152602a60248201527f5361666545524332303a204552433230206f7065726174696f6e20646964206e6044820152691bdd081cdd58d8d9595960b21b6064820152608401610dc1565b600061010b5482613fc09190614a2f565b613fca90836146ae565b9050801561377d5761012c60009054906101000a90046001600160a01b03166001600160a01b0316639f893188826040518263ffffffff1660e01b81526004016000604051808303818588803b1580156136d657600080fd5b606061313d8484600085856001600160a01b0385163b6140855760405162461bcd60e51b815260206004820152601d60248201527f416464726573733a2063616c6c20746f206e6f6e2d636f6e74726163740000006044820152606401610dc1565b600080866001600160a01b031685876040516140a19190614a07565b60006040518083038185875af1925050503d80600081146140de576040519150601f19603f3d011682016040523d82523d6000602084013e6140e3565b606091505b50915091506140f38282866140fe565b979650505050505050565b6060831561410d575081610deb565b82511561411d5782518084602001fd5b8160405162461bcd60e51b8152600401610dc191906141f3565b8280546141439061460c565b90600052602060002090601f01602090048101928261416557600085556141ab565b82601f1061417e57805160ff19168380011785556141ab565b828001600101855582156141ab579182015b828111156141ab578251825591602001919060010190614190565b506132b19291505b808211156132b157600081556001016141b3565b60005b838110156141e25781810151838201526020016141ca565b838111156121495750506000910152565b60208152600082518060208401526142128160408501602087016141c7565b601f01601f19169190910160400192915050565b80356001600160a01b038116811461377d57600080fd5b6000806040838503121561425057600080fd5b61425983614226565b946020939093013593505050565b60008060006060848603121561427c57600080fd5b61428584614226565b925061429360208501614226565b9150604084013590509250925092565b600080600080608085870312156142b957600080fd5b5050823594602084013594506040840135936060013592509050565b6000602082840312156142e757600080fd5b5035919050565b60006020828403121561430057600080fd5b610deb82614226565b6000806040838503121561431c57600080fd5b50508035926020909101359150565b60008060006060848603121561434057600080fd5b61434984614226565b925061435760208501614226565b915061436560408501614226565b90509250925092565b634e487b7160e01b600052604160045260246000fd5b604051601f8201601f1916810167ffffffffffffffff811182821017156143ad576143ad61436e565b604052919050565b600082601f8301126143c657600080fd5b813567ffffffffffffffff8111156143e0576143e061436e565b6143f3601f8201601f1916602001614384565b81815284602083860101111561440857600080fd5b816020850160208301376000918101602001919091529392505050565b600080600080600080600060e0888a03121561444057600080fd5b873567ffffffffffffffff8082111561445857600080fd5b6144648b838c016143b5565b985060208a013591508082111561447a57600080fd5b506144878a828b016143b5565b96505061449660408901614226565b94506144a460608901614226565b93506144b260808901614226565b92506144c060a08901614226565b91506144ce60c08901614226565b905092959891949750929550565b600080604083850312156144ef57600080fd5b6144f883614226565b915061450660208401614226565b90509250929050565b6000602080838503121561452257600080fd5b823567ffffffffffffffff8082111561453a57600080fd5b818501915085601f83011261454e57600080fd5b8135818111156145605761456061436e565b8060051b9150614571848301614384565b818152918301840191848101908884111561458b57600080fd5b938501935b838510156145a957843582529385019390850190614590565b98975050505050505050565b6000606082018583526020858185015260606040850152818551808452608086019150828701935060005b818110156145fe5784511515835293830193918301916001016145e0565b509098975050505050505050565b600181811c9082168061462057607f821691505b602082108114156136ef57634e487b7160e01b600052602260045260246000fd5b60208082526013908201527227b7363c9037bbb732b91037b91030b236b4b760691b604082015260600190565b60208082526010908201526f14185d5cd8589b194e881c185d5cd95960821b604082015260600190565b634e487b7160e01b600052601160045260246000fd5b6000828210156146c0576146c0614698565b500390565b6020808252818101527f4f776e61626c653a2063616c6c6572206973206e6f7420746865206f776e6572604082015260600190565b6020808252601f908201527f5265656e7472616e637947756172643a207265656e7472616e742063616c6c00604082015260600190565b600081600019048311821515161561474b5761474b614698565b500290565b634e487b7160e01b600052601260045260246000fd5b60008261477557614775614750565b500490565b6000821982111561478d5761478d614698565b500190565b6000602082840312156147a457600080fd5b5051919050565b6000602082840312156147bd57600080fd5b81518015158114610deb57600080fd5b60208082526014908201527314185d5cd8589b194e881b9bdd081c185d5cd95960621b604082015260600190565b805160ff8116811461377d57600080fd5b60006020828403121561481e57600080fd5b610deb826147fb565b600181815b8085111561486257816000190482111561484857614848614698565b8085161561485557918102915b93841c939080029061482c565b509250929050565b60008261487957506001610d7c565b8161488657506000610d7c565b816001811461489c57600281146148a6576148c2565b6001915050610d7c565b60ff8411156148b7576148b7614698565b50506001821b610d7c565b5060208310610133831016604e8410600b84101617156148e5575081810a610d7c565b6148ef8383614827565b806000190482111561490357614903614698565b029392505050565b6000610deb60ff84168361486a565b634e487b7160e01b600052603260045260246000fd5b600060001982141561494457614944614698565b5060010190565b6000806040838503121561495e57600080fd5b82519150614506602084016147fb565b6020808252602e908201527f496e697469616c697a61626c653a20636f6e747261637420697320616c72656160408201526d191e481a5b9a5d1a585b1a5e995960921b606082015260800190565b6020808252602b908201527f496e697469616c697a61626c653a20636f6e7472616374206973206e6f74206960408201526a6e697469616c697a696e6760a81b606082015260800190565b60008251614a198184602087016141c7565b9190910192915050565b6000610deb838361486a565b600082614a3e57614a3e614750565b50069056fea2646970667358221220bd35b9211a53e189c24c3b19eb34690609650c07f72bf5bad1778b01900676f464736f6c63430008090033",
  "devdoc": {
    "kind": "dev",
    "methods": {
      "allowance(address,address)": {
        "details": "See {IERC20-allowance}."
      },
      "approve(address,uint256)": {
        "details": "See {IERC20-approve}. NOTE: If `amount` is the maximum `uint256`, the allowance is not updated on `transferFrom`. This is semantically equivalent to an infinite approval. Requirements: - `spender` cannot be the zero address."
      },
      "balanceOf(address)": {
        "details": "See {IERC20-balanceOf}."
      },
      "claim(uint256)": {
        "details": "claim token with NFT token",
        "returns": {
          "_amount": "is the amount of claimed token."
        }
      },
      "claimMulti(uint256[])": {
        "details": "claim token with NFT tokens",
        "returns": {
          "_amount": "is the amount of claimed token.",
          "_claimed": "is the flag indicating whether the token is claimed.",
          "_claimedCount": "is the count of reqIds that are claimed."
        }
      },
      "claimUnbonded()": {
        "details": "claim the unbonded tokens from the staking pool. It's called by admin."
      },
      "collectProfitAndUpdateWatermark()": {
        "details": "collect profit and update the watermark"
      },
      "decimals()": {
        "details": "Returns the number of decimals used to get its user representation. For example, if `decimals` equals `2`, a balance of `505` tokens should be displayed to a user as `5.05` (`505 / 10 ** 2`). Tokens usually opt for a value of 18, imitating the relationship between Ether and Wei. This is the value {ERC20} uses, unless this function is overridden; NOTE: This information is only used for _display_ purposes: it in no way affects any of the arithmetic of the contract, including {IERC20-balanceOf} and {IERC20-transfer}."
      },
      "decreaseAllowance(address,uint256)": {
        "details": "Atomically decreases the allowance granted to `spender` by the caller. This is an alternative to {approve} that can be used as a mitigation for problems described in {IERC20-approve}. Emits an {Approval} event indicating the updated allowance. Requirements: - `spender` cannot be the zero address. - `spender` must have allowance for the caller of at least `subtractedValue`."
      },
      "deposit(uint256)": {
        "details": "deposit `_amount` of token."
      },
      "depositETH()": {
        "details": "deposit the native asset."
      },
      "emergencyPendingRedeems()": {
        "details": "the total amount of emergency withdrawal stToken that is not yet requested to the staking pool."
      },
      "emergencyRedeem()": {
        "details": "In emergency mode, redeem the rest of stTokens. Especially it's needed for stNEAR because the MetaPool has a buffer limit."
      },
      "getAPR()": {
        "returns": {
          "_0": "the APR in the vault. It's scaled by 1e18."
        }
      },
      "getAllPool()": {
        "details": "it doesn't include the unbonding stTokens according to the burnt shares."
      },
      "getAllPoolInUSD()": {
        "returns": {
          "_0": "the total USD value of tokens in the vault."
        }
      },
      "getPoolByShares(uint256)": {
        "returns": {
          "_0": "the amount of token that corresponds to `_shares` of shares."
        }
      },
      "getPooledTokenByStToken(uint256)": {
        "params": {
          "_stAmount": "Amount of stTokens"
        }
      },
      "getSharesByPool(uint256)": {
        "returns": {
          "_0": "the amount of shares that corresponds to `_amount` of token."
        }
      },
      "getStTokenByPooledToken(uint256)": {
        "params": {
          "_amount": "Amount of tokens"
        }
      },
      "getTokenUnbonded()": {
        "returns": {
          "_0": "the unbonded token amount that is claimable from the staking pool."
        }
      },
      "getWithdrawRequest(uint256)": {
        "returns": {
          "_claimable": "specifys whether user can claim tokens for it.",
          "_requestTs": "is timestmap when withdrawal requested.",
          "_stTokenAmt": "is amount of stToken to redeem.",
          "_tokenAmt": "is amount of token to claim.",
          "_waitForTs": "is timestamp to wait for."
        }
      },
      "increaseAllowance(address,uint256)": {
        "details": "Atomically increases the allowance granted to `spender` by the caller. This is an alternative to {approve} that can be used as a mitigation for problems described in {IERC20-approve}. Emits an {Approval} event indicating the updated allowance. Requirements: - `spender` cannot be the zero address."
      },
      "invest()": {
        "details": "stake the buffered deposits into the staking pool. It's called by admin."
      },
      "name()": {
        "details": "Returns the name of the token."
      },
      "owner()": {
        "details": "Returns the address of the current owner."
      },
      "paused()": {
        "details": "Returns true if the contract is paused, and false otherwise."
      },
      "redeem()": {
        "details": "redeem the requested withdrawals from the staking pool. It's called by admin."
      },
      "renounceOwnership()": {
        "details": "Leaves the contract without owner. It will not be possible to call `onlyOwner` functions anymore. Can only be called by the current owner. NOTE: Renouncing ownership will leave the contract without an owner, thereby removing any functionality that is only available to the owner."
      },
      "setFee(uint256)": {
        "params": {
          "_yieldFeePerc": "deposit fee percentage. 2000 for 20%"
        }
      },
      "symbol()": {
        "details": "Returns the symbol of the token, usually a shorter version of the name."
      },
      "totalSupply()": {
        "details": "See {IERC20-totalSupply}."
      },
      "transfer(address,uint256)": {
        "details": "See {IERC20-transfer}. Requirements: - `to` cannot be the zero address. - the caller must have a balance of at least `amount`."
      },
      "transferFrom(address,address,uint256)": {
        "details": "See {IERC20-transferFrom}. Emits an {Approval} event indicating the updated allowance. This is not required by the EIP. See the note at the beginning of {ERC20}. NOTE: Does not update the allowance if the current allowance is the maximum `uint256`. Requirements: - `from` and `to` cannot be the zero address. - `from` must have a balance of at least `amount`. - the caller must have allowance for ``from``'s tokens of at least `amount`."
      },
      "transferOwnership(address)": {
        "details": "Transfers ownership of the contract to a new account (`newOwner`). Can only be called by the current owner."
      },
      "withdraw(uint256)": {
        "details": "request a withdrawal that corresponds to `_shares` of shares.",
        "returns": {
          "_amount": "is the amount of withdrawn token.",
          "_reqId": "is the NFT token id indicating the request for rest of withdrawal. 0 if no request is made."
        }
      },
      "withdrawFees()": {
        "details": "transfer out fees."
      },
      "yield()": {
        "details": "take rewards and reinvest them. It's called by admin."
      }
    },
    "version": 1
  },
  "userdoc": {
    "kind": "user",
    "methods": {
      "emergencyWithdraw()": {
        "notice": "Withdraws funds staked in mirror to this vault and pauses deposit, yield, invest functions"
      },
      "getPendingRewards()": {
        "notice": "Returns the pending rewards in USD."
      },
      "reinvest()": {
        "notice": "Unpauses deposit, yield, invest functions, and invests funds."
      },
      "setFee(uint256)": {
        "notice": "Function to set deposit and yield fee"
      }
    },
    "version": 1
  },
  "storageLayout": {
    "storage": [
      {
        "astId": 130,
        "contract": "contracts/stVaults/ankr/AvaxStAVAXVaultTest.sol:AvaxStAVAXVaultTest",
        "label": "_initialized",
        "offset": 0,
        "slot": "0",
        "type": "t_uint8"
      },
      {
        "astId": 133,
        "contract": "contracts/stVaults/ankr/AvaxStAVAXVaultTest.sol:AvaxStAVAXVaultTest",
        "label": "_initializing",
        "offset": 1,
        "slot": "0",
        "type": "t_bool"
      },
      {
        "astId": 2709,
        "contract": "contracts/stVaults/ankr/AvaxStAVAXVaultTest.sol:AvaxStAVAXVaultTest",
        "label": "__gap",
        "offset": 0,
        "slot": "1",
        "type": "t_array(t_uint256)50_storage"
      },
      {
        "astId": 454,
        "contract": "contracts/stVaults/ankr/AvaxStAVAXVaultTest.sol:AvaxStAVAXVaultTest",
        "label": "_balances",
        "offset": 0,
        "slot": "51",
        "type": "t_mapping(t_address,t_uint256)"
      },
      {
        "astId": 460,
        "contract": "contracts/stVaults/ankr/AvaxStAVAXVaultTest.sol:AvaxStAVAXVaultTest",
        "label": "_allowances",
        "offset": 0,
        "slot": "52",
        "type": "t_mapping(t_address,t_mapping(t_address,t_uint256))"
      },
      {
        "astId": 462,
        "contract": "contracts/stVaults/ankr/AvaxStAVAXVaultTest.sol:AvaxStAVAXVaultTest",
        "label": "_totalSupply",
        "offset": 0,
        "slot": "53",
        "type": "t_uint256"
      },
      {
        "astId": 464,
        "contract": "contracts/stVaults/ankr/AvaxStAVAXVaultTest.sol:AvaxStAVAXVaultTest",
        "label": "_name",
        "offset": 0,
        "slot": "54",
        "type": "t_string_storage"
      },
      {
        "astId": 466,
        "contract": "contracts/stVaults/ankr/AvaxStAVAXVaultTest.sol:AvaxStAVAXVaultTest",
        "label": "_symbol",
        "offset": 0,
        "slot": "55",
        "type": "t_string_storage"
      },
      {
        "astId": 1045,
        "contract": "contracts/stVaults/ankr/AvaxStAVAXVaultTest.sol:AvaxStAVAXVaultTest",
        "label": "__gap",
        "offset": 0,
        "slot": "56",
        "type": "t_array(t_uint256)45_storage"
      },
      {
        "astId": 286,
        "contract": "contracts/stVaults/ankr/AvaxStAVAXVaultTest.sol:AvaxStAVAXVaultTest",
        "label": "_paused",
        "offset": 0,
        "slot": "101",
        "type": "t_bool"
      },
      {
        "astId": 375,
        "contract": "contracts/stVaults/ankr/AvaxStAVAXVaultTest.sol:AvaxStAVAXVaultTest",
        "label": "__gap",
        "offset": 0,
        "slot": "102",
        "type": "t_array(t_uint256)49_storage"
      },
      {
        "astId": 390,
        "contract": "contracts/stVaults/ankr/AvaxStAVAXVaultTest.sol:AvaxStAVAXVaultTest",
        "label": "_status",
        "offset": 0,
        "slot": "151",
        "type": "t_uint256"
      },
      {
        "astId": 434,
        "contract": "contracts/stVaults/ankr/AvaxStAVAXVaultTest.sol:AvaxStAVAXVaultTest",
        "label": "__gap",
        "offset": 0,
        "slot": "152",
        "type": "t_array(t_uint256)49_storage"
      },
      {
        "astId": 10,
        "contract": "contracts/stVaults/ankr/AvaxStAVAXVaultTest.sol:AvaxStAVAXVaultTest",
        "label": "_owner",
        "offset": 0,
        "slot": "201",
        "type": "t_address"
      },
      {
        "astId": 122,
        "contract": "contracts/stVaults/ankr/AvaxStAVAXVaultTest.sol:AvaxStAVAXVaultTest",
        "label": "__gap",
        "offset": 0,
        "slot": "202",
        "type": "t_array(t_uint256)49_storage"
      },
      {
        "astId": 36016,
        "contract": "contracts/stVaults/ankr/AvaxStAVAXVaultTest.sol:AvaxStAVAXVaultTest",
        "label": "yieldFee",
        "offset": 0,
        "slot": "251",
        "type": "t_uint256"
      },
      {
        "astId": 36018,
        "contract": "contracts/stVaults/ankr/AvaxStAVAXVaultTest.sol:AvaxStAVAXVaultTest",
        "label": "watermark",
        "offset": 0,
        "slot": "252",
        "type": "t_uint256"
      },
      {
        "astId": 36020,
        "contract": "contracts/stVaults/ankr/AvaxStAVAXVaultTest.sol:AvaxStAVAXVaultTest",
        "label": "fees",
        "offset": 0,
        "slot": "253",
        "type": "t_uint256"
      },
      {
        "astId": 36022,
        "contract": "contracts/stVaults/ankr/AvaxStAVAXVaultTest.sol:AvaxStAVAXVaultTest",
        "label": "treasuryWallet",
        "offset": 0,
        "slot": "254",
        "type": "t_address"
      },
      {
        "astId": 36024,
        "contract": "contracts/stVaults/ankr/AvaxStAVAXVaultTest.sol:AvaxStAVAXVaultTest",
        "label": "admin",
        "offset": 0,
        "slot": "255",
        "type": "t_address"
      },
      {
        "astId": 36027,
        "contract": "contracts/stVaults/ankr/AvaxStAVAXVaultTest.sol:AvaxStAVAXVaultTest",
        "label": "priceOracle",
        "offset": 0,
        "slot": "256",
        "type": "t_contract(IPriceOracle)11071"
      },
      {
        "astId": 36030,
        "contract": "contracts/stVaults/ankr/AvaxStAVAXVaultTest.sol:AvaxStAVAXVaultTest",
        "label": "nft",
        "offset": 0,
        "slot": "257",
        "type": "t_contract(IStVaultNFT)53011"
      },
      {
        "astId": 36033,
        "contract": "contracts/stVaults/ankr/AvaxStAVAXVaultTest.sol:AvaxStAVAXVaultTest",
        "label": "token",
        "offset": 0,
        "slot": "258",
        "type": "t_contract(IERC20Upgradeable)1124"
      },
      {
        "astId": 36036,
        "contract": "contracts/stVaults/ankr/AvaxStAVAXVaultTest.sol:AvaxStAVAXVaultTest",
        "label": "stToken",
        "offset": 0,
        "slot": "259",
        "type": "t_contract(IERC20Upgradeable)1124"
      },
      {
        "astId": 36038,
        "contract": "contracts/stVaults/ankr/AvaxStAVAXVaultTest.sol:AvaxStAVAXVaultTest",
        "label": "tokenDecimals",
        "offset": 20,
        "slot": "259",
        "type": "t_uint8"
      },
      {
        "astId": 36040,
        "contract": "contracts/stVaults/ankr/AvaxStAVAXVaultTest.sol:AvaxStAVAXVaultTest",
        "label": "stTokenDecimals",
        "offset": 21,
        "slot": "259",
        "type": "t_uint8"
      },
      {
        "astId": 36042,
        "contract": "contracts/stVaults/ankr/AvaxStAVAXVaultTest.sol:AvaxStAVAXVaultTest",
        "label": "oneToken",
        "offset": 0,
        "slot": "260",
        "type": "t_uint256"
      },
      {
        "astId": 36044,
        "contract": "contracts/stVaults/ankr/AvaxStAVAXVaultTest.sol:AvaxStAVAXVaultTest",
        "label": "oneStToken",
        "offset": 0,
        "slot": "261",
        "type": "t_uint256"
      },
      {
        "astId": 36046,
        "contract": "contracts/stVaults/ankr/AvaxStAVAXVaultTest.sol:AvaxStAVAXVaultTest",
        "label": "bufferedDeposits",
        "offset": 0,
        "slot": "262",
        "type": "t_uint256"
      },
      {
        "astId": 36048,
        "contract": "contracts/stVaults/ankr/AvaxStAVAXVaultTest.sol:AvaxStAVAXVaultTest",
        "label": "pendingWithdrawals",
        "offset": 0,
        "slot": "263",
        "type": "t_uint256"
      },
      {
        "astId": 36050,
        "contract": "contracts/stVaults/ankr/AvaxStAVAXVaultTest.sol:AvaxStAVAXVaultTest",
        "label": "pendingRedeems",
        "offset": 0,
        "slot": "264",
        "type": "t_uint256"
      },
      {
        "astId": 36052,
        "contract": "contracts/stVaults/ankr/AvaxStAVAXVaultTest.sol:AvaxStAVAXVaultTest",
        "label": "emergencyUnbondings",
        "offset": 0,
        "slot": "265",
        "type": "t_uint256"
      },
      {
        "astId": 36054,
        "contract": "contracts/stVaults/ankr/AvaxStAVAXVaultTest.sol:AvaxStAVAXVaultTest",
        "label": "unbondingPeriod",
        "offset": 0,
        "slot": "266",
        "type": "t_uint256"
      },
      {
        "astId": 36056,
        "contract": "contracts/stVaults/ankr/AvaxStAVAXVaultTest.sol:AvaxStAVAXVaultTest",
        "label": "minInvestAmount",
        "offset": 0,
        "slot": "267",
        "type": "t_uint256"
      },
      {
        "astId": 36058,
        "contract": "contracts/stVaults/ankr/AvaxStAVAXVaultTest.sol:AvaxStAVAXVaultTest",
        "label": "minRedeemAmount",
        "offset": 0,
        "slot": "268",
        "type": "t_uint256"
      },
      {
        "astId": 36060,
        "contract": "contracts/stVaults/ankr/AvaxStAVAXVaultTest.sol:AvaxStAVAXVaultTest",
        "label": "lastInvestTs",
        "offset": 0,
        "slot": "269",
        "type": "t_uint256"
      },
      {
        "astId": 36062,
        "contract": "contracts/stVaults/ankr/AvaxStAVAXVaultTest.sol:AvaxStAVAXVaultTest",
        "label": "investInterval",
        "offset": 0,
        "slot": "270",
        "type": "t_uint256"
      },
      {
        "astId": 36064,
        "contract": "contracts/stVaults/ankr/AvaxStAVAXVaultTest.sol:AvaxStAVAXVaultTest",
        "label": "lastRedeemTs",
        "offset": 0,
        "slot": "271",
        "type": "t_uint256"
      },
      {
        "astId": 36066,
        "contract": "contracts/stVaults/ankr/AvaxStAVAXVaultTest.sol:AvaxStAVAXVaultTest",
        "label": "redeemInterval",
        "offset": 0,
        "slot": "272",
        "type": "t_uint256"
      },
      {
        "astId": 36068,
        "contract": "contracts/stVaults/ankr/AvaxStAVAXVaultTest.sol:AvaxStAVAXVaultTest",
        "label": "lastCollectProfitTs",
        "offset": 0,
        "slot": "273",
        "type": "t_uint256"
      },
      {
        "astId": 36070,
        "contract": "contracts/stVaults/ankr/AvaxStAVAXVaultTest.sol:AvaxStAVAXVaultTest",
        "label": "oneEpoch",
        "offset": 0,
        "slot": "274",
        "type": "t_uint256"
      },
      {
        "astId": 36074,
        "contract": "contracts/stVaults/ankr/AvaxStAVAXVaultTest.sol:AvaxStAVAXVaultTest",
        "label": "depositedBlock",
        "offset": 0,
        "slot": "275",
        "type": "t_mapping(t_address,t_uint256)"
      },
      {
        "astId": 36079,
        "contract": "contracts/stVaults/ankr/AvaxStAVAXVaultTest.sol:AvaxStAVAXVaultTest",
        "label": "nft2WithdrawRequest",
        "offset": 0,
        "slot": "276",
        "type": "t_mapping(t_uint256,t_struct(WithdrawRequest)52713_storage)"
      },
      {
        "astId": 36081,
        "contract": "contracts/stVaults/ankr/AvaxStAVAXVaultTest.sol:AvaxStAVAXVaultTest",
        "label": "baseApr",
        "offset": 0,
        "slot": "277",
        "type": "t_uint256"
      },
      {
        "astId": 36083,
        "contract": "contracts/stVaults/ankr/AvaxStAVAXVaultTest.sol:AvaxStAVAXVaultTest",
        "label": "baseTokenRate",
        "offset": 0,
        "slot": "278",
        "type": "t_uint256"
      },
      {
        "astId": 36085,
        "contract": "contracts/stVaults/ankr/AvaxStAVAXVaultTest.sol:AvaxStAVAXVaultTest",
        "label": "baseAprLastUpdate",
        "offset": 0,
        "slot": "279",
        "type": "t_uint256"
      },
      {
        "astId": 38177,
        "contract": "contracts/stVaults/ankr/AvaxStAVAXVaultTest.sol:AvaxStAVAXVaultTest",
        "label": "__gap",
        "offset": 0,
        "slot": "280",
        "type": "t_array(t_uint256)20_storage"
      },
      {
        "astId": 39670,
        "contract": "contracts/stVaults/ankr/AvaxStAVAXVaultTest.sol:AvaxStAVAXVaultTest",
        "label": "avalanchePool",
        "offset": 0,
        "slot": "300",
        "type": "t_contract(IAvalanchePool)39648"
      }
    ],
    "types": {
      "t_address": {
        "encoding": "inplace",
        "label": "address",
        "numberOfBytes": "20"
      },
      "t_array(t_uint256)20_storage": {
        "base": "t_uint256",
        "encoding": "inplace",
        "label": "uint256[20]",
        "numberOfBytes": "640"
      },
      "t_array(t_uint256)45_storage": {
        "base": "t_uint256",
        "encoding": "inplace",
        "label": "uint256[45]",
        "numberOfBytes": "1440"
      },
      "t_array(t_uint256)49_storage": {
        "base": "t_uint256",
        "encoding": "inplace",
        "label": "uint256[49]",
        "numberOfBytes": "1568"
      },
      "t_array(t_uint256)50_storage": {
        "base": "t_uint256",
        "encoding": "inplace",
        "label": "uint256[50]",
        "numberOfBytes": "1600"
      },
      "t_bool": {
        "encoding": "inplace",
        "label": "bool",
        "numberOfBytes": "1"
      },
      "t_contract(IAvalanchePool)39648": {
        "encoding": "inplace",
        "label": "contract IAvalanchePool",
        "numberOfBytes": "20"
      },
      "t_contract(IERC20Upgradeable)1124": {
        "encoding": "inplace",
        "label": "contract IERC20Upgradeable",
        "numberOfBytes": "20"
      },
      "t_contract(IPriceOracle)11071": {
        "encoding": "inplace",
        "label": "contract IPriceOracle",
        "numberOfBytes": "20"
      },
      "t_contract(IStVaultNFT)53011": {
        "encoding": "inplace",
        "label": "contract IStVaultNFT",
        "numberOfBytes": "20"
      },
      "t_mapping(t_address,t_mapping(t_address,t_uint256))": {
        "encoding": "mapping",
        "key": "t_address",
        "label": "mapping(address => mapping(address => uint256))",
        "numberOfBytes": "32",
        "value": "t_mapping(t_address,t_uint256)"
      },
      "t_mapping(t_address,t_uint256)": {
        "encoding": "mapping",
        "key": "t_address",
        "label": "mapping(address => uint256)",
        "numberOfBytes": "32",
        "value": "t_uint256"
      },
      "t_mapping(t_uint256,t_struct(WithdrawRequest)52713_storage)": {
        "encoding": "mapping",
        "key": "t_uint256",
        "label": "mapping(uint256 => struct IStVault.WithdrawRequest)",
        "numberOfBytes": "32",
        "value": "t_struct(WithdrawRequest)52713_storage"
      },
      "t_string_storage": {
        "encoding": "bytes",
        "label": "string",
        "numberOfBytes": "32"
      },
      "t_struct(WithdrawRequest)52713_storage": {
        "encoding": "inplace",
        "label": "struct IStVault.WithdrawRequest",
        "members": [
          {
            "astId": 52708,
            "contract": "contracts/stVaults/ankr/AvaxStAVAXVaultTest.sol:AvaxStAVAXVaultTest",
            "label": "tokenAmt",
            "offset": 0,
            "slot": "0",
            "type": "t_uint256"
          },
          {
            "astId": 52710,
            "contract": "contracts/stVaults/ankr/AvaxStAVAXVaultTest.sol:AvaxStAVAXVaultTest",
            "label": "stTokenAmt",
            "offset": 0,
            "slot": "1",
            "type": "t_uint256"
          },
          {
            "astId": 52712,
            "contract": "contracts/stVaults/ankr/AvaxStAVAXVaultTest.sol:AvaxStAVAXVaultTest",
            "label": "requestTs",
            "offset": 0,
            "slot": "2",
            "type": "t_uint256"
          }
        ],
        "numberOfBytes": "96"
      },
      "t_uint256": {
        "encoding": "inplace",
        "label": "uint256",
        "numberOfBytes": "32"
      },
      "t_uint8": {
        "encoding": "inplace",
        "label": "uint8",
        "numberOfBytes": "1"
      }
    }
  }
}