{
  "address": "0x64046688C724cd3Ac2aF5325E034aef86243Ed4c",
  "abi": [
    {
      "anonymous": false,
      "inputs": [
        {
          "indexed": false,
          "internalType": "uint8",
          "name": "version",
          "type": "uint8"
        }
      ],
      "name": "Initialized",
      "type": "event"
    },
    {
      "anonymous": false,
      "inputs": [
        {
          "indexed": true,
          "internalType": "address",
          "name": "previousOwner",
          "type": "address"
        },
        {
          "indexed": true,
          "internalType": "address",
          "name": "newOwner",
          "type": "address"
        }
      ],
      "name": "OwnershipTransferred",
      "type": "event"
    },
    {
      "inputs": [],
      "name": "SWAP_BASE_TOKEN",
      "outputs": [
        {
          "internalType": "contract IERC20Upgradeable",
          "name": "",
          "type": "address"
        }
      ],
      "stateMutability": "view",
      "type": "function"
    },
    {
      "inputs": [
        {
          "internalType": "address",
          "name": "_tokenA",
          "type": "address"
        },
        {
          "internalType": "uint256",
          "name": "_amountOut",
          "type": "uint256"
        }
      ],
      "name": "getAmountsInForETH",
      "outputs": [
        {
          "internalType": "uint256",
          "name": "",
          "type": "uint256"
        }
      ],
      "stateMutability": "view",
      "type": "function"
    },
    {
      "inputs": [
        {
          "internalType": "contract IUniRouter",
          "name": "_router",
          "type": "address"
        },
        {
          "internalType": "contract IERC20Upgradeable",
          "name": "_SWAP_BASE_TOKEN",
          "type": "address"
        }
      ],
      "name": "initialize",
      "outputs": [],
      "stateMutability": "nonpayable",
      "type": "function"
    },
    {
      "inputs": [],
      "name": "owner",
      "outputs": [
        {
          "internalType": "address",
          "name": "",
          "type": "address"
        }
      ],
      "stateMutability": "view",
      "type": "function"
    },
    {
      "inputs": [],
      "name": "renounceOwnership",
      "outputs": [],
      "stateMutability": "nonpayable",
      "type": "function"
    },
    {
      "inputs": [],
      "name": "router",
      "outputs": [
        {
          "internalType": "contract IUniRouter",
          "name": "",
          "type": "address"
        }
      ],
      "stateMutability": "view",
      "type": "function"
    },
    {
      "inputs": [
        {
          "internalType": "contract IUniRouter",
          "name": "_router",
          "type": "address"
        }
      ],
      "name": "setRouter",
      "outputs": [],
      "stateMutability": "nonpayable",
      "type": "function"
    },
    {
      "inputs": [
        {
          "internalType": "address",
          "name": "_tokenB",
          "type": "address"
        },
        {
          "internalType": "uint256",
          "name": "_minAmount",
          "type": "uint256"
        }
      ],
      "name": "swapExactETHForTokens",
      "outputs": [
        {
          "internalType": "uint256",
          "name": "",
          "type": "uint256"
        }
      ],
      "stateMutability": "payable",
      "type": "function"
    },
    {
      "inputs": [
        {
          "internalType": "address",
          "name": "_tokenA",
          "type": "address"
        },
        {
          "internalType": "uint256",
          "name": "_amt",
          "type": "uint256"
        },
        {
          "internalType": "uint256",
          "name": "_minAmount",
          "type": "uint256"
        }
      ],
      "name": "swapExactTokensForETH",
      "outputs": [
        {
          "internalType": "uint256",
          "name": "",
          "type": "uint256"
        }
      ],
      "stateMutability": "nonpayable",
      "type": "function"
    },
    {
      "inputs": [
        {
          "internalType": "address",
          "name": "_tokenA",
          "type": "address"
        },
        {
          "internalType": "address",
          "name": "_tokenB",
          "type": "address"
        },
        {
          "internalType": "uint256",
          "name": "_amt",
          "type": "uint256"
        },
        {
          "internalType": "uint256",
          "name": "_minAmount",
          "type": "uint256"
        }
      ],
      "name": "swapExactTokensForTokens",
      "outputs": [
        {
          "internalType": "uint256",
          "name": "",
          "type": "uint256"
        }
      ],
      "stateMutability": "nonpayable",
      "type": "function"
    },
    {
      "inputs": [
        {
          "internalType": "address",
          "name": "_tokenA",
          "type": "address"
        },
        {
          "internalType": "address",
          "name": "_tokenB",
          "type": "address"
        },
        {
          "internalType": "uint256",
          "name": "_amt",
          "type": "uint256"
        },
        {
          "internalType": "uint256",
          "name": "_minAmount",
          "type": "uint256"
        }
      ],
      "name": "swapExactTokensForTokens2",
      "outputs": [
        {
          "internalType": "uint256",
          "name": "",
          "type": "uint256"
        }
      ],
      "stateMutability": "nonpayable",
      "type": "function"
    },
    {
      "inputs": [
        {
          "internalType": "address",
          "name": "_tokenA",
          "type": "address"
        },
        {
          "internalType": "uint256",
          "name": "_amountInMax",
          "type": "uint256"
        },
        {
          "internalType": "uint256",
          "name": "_amountOut",
          "type": "uint256"
        }
      ],
      "name": "swapTokensForExactETH",
      "outputs": [
        {
          "internalType": "uint256",
          "name": "_spentTokenAmount",
          "type": "uint256"
        }
      ],
      "stateMutability": "nonpayable",
      "type": "function"
    },
    {
      "inputs": [
        {
          "internalType": "address",
          "name": "newOwner",
          "type": "address"
        }
      ],
      "name": "transferOwnership",
      "outputs": [],
      "stateMutability": "nonpayable",
      "type": "function"
    },
    {
      "stateMutability": "payable",
      "type": "receive"
    }
  ],
  "transactionHash": "0xececefd78f4583e930cccc0462d6dce9341cf708d143799d904a82a8455c2fea",
  "args": [],
  "numDeployments": 1,
  "solcInputHash": "8b89f766db2130077100f5c5084b38d6",
  "bytecode": "0x608060405234801561001057600080fd5b506116d8806100206000396000f3fe6080604052600436106100c65760003560e01c806397966c351161007f578063c038847a11610059578063c038847a14610205578063c0d7865514610225578063f2fde38b14610245578063f887ea401461026557600080fd5b806397966c35146101b2578063b79c48e5146101d2578063bd9b2084146101e557600080fd5b806330703f32146100d25780633a38d7061461010f578063485cc9551461013d578063715018a61461015f57806389fe039b146101745780638da5cb5b1461019457600080fd5b366100cd57005b600080fd5b3480156100de57600080fd5b506066546100f2906001600160a01b031681565b6040516001600160a01b0390911681526020015b60405180910390f35b34801561011b57600080fd5b5061012f61012a366004611244565b610285565b604051908152602001610106565b34801561014957600080fd5b5061015d610158366004611270565b6103a5565b005b34801561016b57600080fd5b5061015d6104ee565b34801561018057600080fd5b5061012f61018f3660046112a9565b610524565b3480156101a057600080fd5b506033546001600160a01b03166100f2565b3480156101be57600080fd5b5061012f6101cd3660046112a9565b610680565b61012f6101e0366004611244565b6107fb565b3480156101f157600080fd5b5061012f6102003660046112ef565b61091f565b34801561021157600080fd5b5061012f6102203660046112ef565b610a9e565b34801561023157600080fd5b5061015d610240366004611324565b610bf7565b34801561025157600080fd5b5061015d610260366004611324565b610c43565b34801561027157600080fd5b506065546100f2906001600160a01b031681565b6040805160028082526060820183526000928392919060208301908036833701905050905083816000815181106102be576102be611357565b6001600160a01b0392831660209182029290920101526066548251911690829060019081106102ef576102ef611357565b6001600160a01b0392831660209182029290920101526065546040516307c0329d60e21b8152911690631f00ca749061032e90869085906004016113b1565b60006040518083038186803b15801561034657600080fd5b505afa15801561035a573d6000803e3d6000fd5b505050506040513d6000823e601f3d908101601f1916820160405261038291908101906113ca565b60008151811061039457610394611357565b602002602001015191505092915050565b60006103b16001610cde565b905080156103c9576000805461ff0019166101001790555b6001600160a01b0383166104155760405162461bcd60e51b815260206004820152600e60248201526d24b73b30b634b2103937baba32b960911b60448201526064015b60405180910390fd5b6001600160a01b03821661046b5760405162461bcd60e51b815260206004820152601760248201527f496e76616c696420535741505f424153455f544f4b454e000000000000000000604482015260640161040c565b610473610d66565b606580546001600160a01b038086166001600160a01b031992831617909255606680549285169290911691909117905580156104e9576000805461ff0019169055604051600181527f7f26b83ff96e1f2b6a682f133852f6798a09c465da95921460cefb38474024989060200160405180910390a15b505050565b6033546001600160a01b031633146105185760405162461bcd60e51b815260040161040c90611488565b6105226000610d95565b565b60003361053c6001600160a01b038716823087610de7565b606554610556906001600160a01b03888116911686610e58565b604080516002808252606082018352600092602083019080368337019050509050868160008151811061058b5761058b611357565b60200260200101906001600160a01b031690816001600160a01b03168152505085816001815181106105bf576105bf611357565b6001600160a01b0392831660209182029290920101526065546040516338ed173960e01b81529116906338ed17399061060490889088908690889042906004016114bd565b600060405180830381600087803b15801561061e57600080fd5b505af1158015610632573d6000803e3d6000fd5b505050506040513d6000823e601f3d908101601f1916820160405261065a91908101906113ca565b60018151811061066c5761066c611357565b602002602001015192505050949350505050565b6000336106986001600160a01b038716823087610de7565b6065546106b2906001600160a01b03888116911686610e58565b604080516003808252608082019092526000916020820160608036833701905050905086816000815181106106e9576106e9611357565b6001600160a01b03928316602091820292909201015260665482519116908290600190811061071a5761071a611357565b60200260200101906001600160a01b031690816001600160a01b031681525050858160028151811061074e5761074e611357565b6001600160a01b0392831660209182029290920101526065546040516338ed173960e01b81529116906338ed17399061079390889088908690889042906004016114bd565b600060405180830381600087803b1580156107ad57600080fd5b505af11580156107c1573d6000803e3d6000fd5b505050506040513d6000823e601f3d908101601f191682016040526107e991908101906113ca565b60028151811061066c5761066c611357565b60408051600280825260608201835260009283929190602083019080368337505060665482519293506001600160a01b03169183915060009061084057610840611357565b60200260200101906001600160a01b031690816001600160a01b031681525050838160018151811061087457610874611357565b6001600160a01b0392831660209182029290920101526065541663a2a1623d34858433426040518663ffffffff1660e01b81526004016108b794939291906114f9565b6000604051808303818588803b1580156108d057600080fd5b505af11580156108e4573d6000803e3d6000fd5b50505050506040513d6000823e601f3d908101601f1916820160405261090d91908101906113ca565b60018151811061039457610394611357565b6000336109376001600160a01b038616823087610de7565b606554610951906001600160a01b03878116911686610e58565b604080516002808252606082018352600092602083019080368337019050509050858160008151811061098657610986611357565b6001600160a01b0392831660209182029290920101526066548251911690829060019081106109b7576109b7611357565b6001600160a01b039283166020918202929092010152606554604051633d2120b560e11b8152911690637a42416a906109fc90879089908690889042906004016114bd565b600060405180830381600087803b158015610a1657600080fd5b505af1158015610a2a573d6000803e3d6000fd5b505050506040513d6000823e601f3d908101601f19168201604052610a5291908101906113ca565b600081518110610a6457610a64611357565b6020026020010151925082851115610a9557610a9582610a84858861152e565b6001600160a01b0389169190610f7c565b50509392505050565b600033610ab66001600160a01b038616823087610de7565b606554610ad0906001600160a01b03878116911686610e58565b6040805160028082526060820183526000926020830190803683370190505090508581600081518110610b0557610b05611357565b6001600160a01b039283166020918202929092010152606654825191169082906001908110610b3657610b36611357565b6001600160a01b03928316602091820292909201015260655460405163676528d160e01b815291169063676528d190610b7b90889088908690889042906004016114bd565b600060405180830381600087803b158015610b9557600080fd5b505af1158015610ba9573d6000803e3d6000fd5b505050506040513d6000823e601f3d908101601f19168201604052610bd191908101906113ca565b600181518110610be357610be3611357565b6020026020010151925050505b9392505050565b6033546001600160a01b03163314610c215760405162461bcd60e51b815260040161040c90611488565b606580546001600160a01b0319166001600160a01b0392909216919091179055565b6033546001600160a01b03163314610c6d5760405162461bcd60e51b815260040161040c90611488565b6001600160a01b038116610cd25760405162461bcd60e51b815260206004820152602660248201527f4f776e61626c653a206e6577206f776e657220697320746865207a65726f206160448201526564647265737360d01b606482015260840161040c565b610cdb81610d95565b50565b60008054610100900460ff1615610d25578160ff166001148015610d015750303b155b610d1d5760405162461bcd60e51b815260040161040c90611553565b506000919050565b60005460ff808416911610610d4c5760405162461bcd60e51b815260040161040c90611553565b506000805460ff191660ff92909216919091179055600190565b600054610100900460ff16610d8d5760405162461bcd60e51b815260040161040c906115a1565b610522610fac565b603380546001600160a01b038381166001600160a01b0319831681179093556040519116919082907f8be0079c531659141344cd1fd0a4f28419497f9722a3daafe3b4186f6b6457e090600090a35050565b6040516001600160a01b0380851660248301528316604482015260648101829052610e529085906323b872dd60e01b906084015b60408051601f198184030181529190526020810180516001600160e01b03166001600160e01b031990931692909217909152610fdc565b50505050565b801580610ee15750604051636eb1769f60e11b81523060048201526001600160a01b03838116602483015284169063dd62ed3e9060440160206040518083038186803b158015610ea757600080fd5b505afa158015610ebb573d6000803e3d6000fd5b505050506040513d601f19601f82011682018060405250810190610edf91906115ec565b155b610f4c5760405162461bcd60e51b815260206004820152603660248201527f5361666545524332303a20617070726f76652066726f6d206e6f6e2d7a65726f60448201527520746f206e6f6e2d7a65726f20616c6c6f77616e636560501b606482015260840161040c565b6040516001600160a01b0383166024820152604481018290526104e990849063095ea7b360e01b90606401610e1b565b6040516001600160a01b0383166024820152604481018290526104e990849063a9059cbb60e01b90606401610e1b565b600054610100900460ff16610fd35760405162461bcd60e51b815260040161040c906115a1565b61052233610d95565b6000611031826040518060400160405280602081526020017f5361666545524332303a206c6f772d6c6576656c2063616c6c206661696c6564815250856001600160a01b03166110ae9092919063ffffffff16565b8051909150156104e9578080602001905181019061104f9190611605565b6104e95760405162461bcd60e51b815260206004820152602a60248201527f5361666545524332303a204552433230206f7065726174696f6e20646964206e6044820152691bdd081cdd58d8d9595960b21b606482015260840161040c565b60606110bd84846000856110c5565b949350505050565b6060824710156111265760405162461bcd60e51b815260206004820152602660248201527f416464726573733a20696e73756666696369656e742062616c616e636520666f6044820152651c8818d85b1b60d21b606482015260840161040c565b6001600160a01b0385163b61117d5760405162461bcd60e51b815260206004820152601d60248201527f416464726573733a2063616c6c20746f206e6f6e2d636f6e7472616374000000604482015260640161040c565b600080866001600160a01b031685876040516111999190611653565b60006040518083038185875af1925050503d80600081146111d6576040519150601f19603f3d011682016040523d82523d6000602084013e6111db565b606091505b50915091506111eb8282866111f6565b979650505050505050565b60608315611205575081610bf0565b8251156112155782518084602001fd5b8160405162461bcd60e51b815260040161040c919061166f565b6001600160a01b0381168114610cdb57600080fd5b6000806040838503121561125757600080fd5b82356112628161122f565b946020939093013593505050565b6000806040838503121561128357600080fd5b823561128e8161122f565b9150602083013561129e8161122f565b809150509250929050565b600080600080608085870312156112bf57600080fd5b84356112ca8161122f565b935060208501356112da8161122f565b93969395505050506040820135916060013590565b60008060006060848603121561130457600080fd5b833561130f8161122f565b95602085013595506040909401359392505050565b60006020828403121561133657600080fd5b8135610bf08161122f565b634e487b7160e01b600052604160045260246000fd5b634e487b7160e01b600052603260045260246000fd5b600081518084526020808501945080840160005b838110156113a65781516001600160a01b031687529582019590820190600101611381565b509495945050505050565b8281526040602082015260006110bd604083018461136d565b600060208083850312156113dd57600080fd5b825167ffffffffffffffff808211156113f557600080fd5b818501915085601f83011261140957600080fd5b81518181111561141b5761141b611341565b8060051b604051601f19603f8301168101818110858211171561144057611440611341565b60405291825284820192508381018501918883111561145e57600080fd5b938501935b8285101561147c57845184529385019392850192611463565b98975050505050505050565b6020808252818101527f4f776e61626c653a2063616c6c6572206973206e6f7420746865206f776e6572604082015260600190565b85815284602082015260a0604082015260006114dc60a083018661136d565b6001600160a01b0394909416606083015250608001529392505050565b848152608060208201526000611512608083018661136d565b6001600160a01b03949094166040830152506060015292915050565b60008282101561154e57634e487b7160e01b600052601160045260246000fd5b500390565b6020808252602e908201527f496e697469616c697a61626c653a20636f6e747261637420697320616c72656160408201526d191e481a5b9a5d1a585b1a5e995960921b606082015260800190565b6020808252602b908201527f496e697469616c697a61626c653a20636f6e7472616374206973206e6f74206960408201526a6e697469616c697a696e6760a81b606082015260800190565b6000602082840312156115fe57600080fd5b5051919050565b60006020828403121561161757600080fd5b81518015158114610bf057600080fd5b60005b8381101561164257818101518382015260200161162a565b83811115610e525750506000910152565b60008251611665818460208701611627565b9190910192915050565b602081526000825180602084015261168e816040850160208701611627565b601f01601f1916919091016040019291505056fea26469706673582212209f9ce6ac33c84e356718ba6ed521e48919d6fc00cf047b8174bf83a53c5c35e664736f6c63430008090033",
  "devdoc": {
    "kind": "dev",
    "methods": {
      "owner()": {
        "details": "Returns the address of the current owner."
      },
      "renounceOwnership()": {
        "details": "Leaves the contract without owner. It will not be possible to call `onlyOwner` functions anymore. Can only be called by the current owner. NOTE: Renouncing ownership will leave the contract without an owner, thereby removing any functionality that is only available to the owner."
      },
      "transferOwnership(address)": {
        "details": "Transfers ownership of the contract to a new account (`newOwner`). Can only be called by the current owner."
      }
    },
    "version": 1
  },
  "userdoc": {
    "kind": "user",
    "methods": {},
    "version": 1
  },
  "storageLayout": {
    "storage": [
      {
        "astId": 713,
        "contract": "contracts/swap/AvaxSwapTest.sol:AvaxSwapTest",
        "label": "_initialized",
        "offset": 0,
        "slot": "0",
        "type": "t_uint8"
      },
      {
        "astId": 716,
        "contract": "contracts/swap/AvaxSwapTest.sol:AvaxSwapTest",
        "label": "_initializing",
        "offset": 1,
        "slot": "0",
        "type": "t_bool"
      },
      {
        "astId": 3292,
        "contract": "contracts/swap/AvaxSwapTest.sol:AvaxSwapTest",
        "label": "__gap",
        "offset": 0,
        "slot": "1",
        "type": "t_array(t_uint256)50_storage"
      },
      {
        "astId": 593,
        "contract": "contracts/swap/AvaxSwapTest.sol:AvaxSwapTest",
        "label": "_owner",
        "offset": 0,
        "slot": "51",
        "type": "t_address"
      },
      {
        "astId": 705,
        "contract": "contracts/swap/AvaxSwapTest.sol:AvaxSwapTest",
        "label": "__gap",
        "offset": 0,
        "slot": "52",
        "type": "t_array(t_uint256)49_storage"
      },
      {
        "astId": 55290,
        "contract": "contracts/swap/AvaxSwapTest.sol:AvaxSwapTest",
        "label": "router",
        "offset": 0,
        "slot": "101",
        "type": "t_contract(IUniRouter)65216"
      },
      {
        "astId": 55293,
        "contract": "contracts/swap/AvaxSwapTest.sol:AvaxSwapTest",
        "label": "SWAP_BASE_TOKEN",
        "offset": 0,
        "slot": "102",
        "type": "t_contract(IERC20Upgradeable)1707"
      },
      {
        "astId": 55801,
        "contract": "contracts/swap/AvaxSwapTest.sol:AvaxSwapTest",
        "label": "__gap",
        "offset": 0,
        "slot": "103",
        "type": "t_array(t_uint256)48_storage"
      }
    ],
    "types": {
      "t_address": {
        "encoding": "inplace",
        "label": "address",
        "numberOfBytes": "20"
      },
      "t_array(t_uint256)48_storage": {
        "base": "t_uint256",
        "encoding": "inplace",
        "label": "uint256[48]",
        "numberOfBytes": "1536"
      },
      "t_array(t_uint256)49_storage": {
        "base": "t_uint256",
        "encoding": "inplace",
        "label": "uint256[49]",
        "numberOfBytes": "1568"
      },
      "t_array(t_uint256)50_storage": {
        "base": "t_uint256",
        "encoding": "inplace",
        "label": "uint256[50]",
        "numberOfBytes": "1600"
      },
      "t_bool": {
        "encoding": "inplace",
        "label": "bool",
        "numberOfBytes": "1"
      },
      "t_contract(IERC20Upgradeable)1707": {
        "encoding": "inplace",
        "label": "contract IERC20Upgradeable",
        "numberOfBytes": "20"
      },
      "t_contract(IUniRouter)65216": {
        "encoding": "inplace",
        "label": "contract IUniRouter",
        "numberOfBytes": "20"
      },
      "t_uint256": {
        "encoding": "inplace",
        "label": "uint256",
        "numberOfBytes": "32"
      },
      "t_uint8": {
        "encoding": "inplace",
        "label": "uint8",
        "numberOfBytes": "1"
      }
    }
  }
}