{
  "address": "0x0BF29e06F15EF556eB27F157F1121F5f69559a44",
  "abi": [
    {
      "anonymous": false,
      "inputs": [
        {
          "indexed": true,
          "internalType": "uint256",
          "name": "currentWatermark",
          "type": "uint256"
        },
        {
          "indexed": true,
          "internalType": "uint256",
          "name": "lastWatermark",
          "type": "uint256"
        }
      ],
      "name": "AdjustWatermark",
      "type": "event"
    },
    {
      "anonymous": false,
      "inputs": [
        {
          "indexed": true,
          "internalType": "address",
          "name": "owner",
          "type": "address"
        },
        {
          "indexed": true,
          "internalType": "address",
          "name": "spender",
          "type": "address"
        },
        {
          "indexed": false,
          "internalType": "uint256",
          "name": "value",
          "type": "uint256"
        }
      ],
      "name": "Approval",
      "type": "event"
    },
    {
      "anonymous": false,
      "inputs": [
        {
          "indexed": true,
          "internalType": "address",
          "name": "user",
          "type": "address"
        },
        {
          "indexed": true,
          "internalType": "uint256",
          "name": "reqId",
          "type": "uint256"
        },
        {
          "indexed": true,
          "internalType": "uint256",
          "name": "amount",
          "type": "uint256"
        }
      ],
      "name": "Claim",
      "type": "event"
    },
    {
      "anonymous": false,
      "inputs": [
        {
          "indexed": true,
          "internalType": "address",
          "name": "user",
          "type": "address"
        },
        {
          "indexed": true,
          "internalType": "uint256",
          "name": "amount",
          "type": "uint256"
        },
        {
          "indexed": true,
          "internalType": "uint256",
          "name": "claimedCount",
          "type": "uint256"
        }
      ],
      "name": "ClaimMulti",
      "type": "event"
    },
    {
      "anonymous": false,
      "inputs": [
        {
          "indexed": true,
          "internalType": "uint256",
          "name": "currentWatermark",
          "type": "uint256"
        },
        {
          "indexed": true,
          "internalType": "uint256",
          "name": "lastWatermark",
          "type": "uint256"
        },
        {
          "indexed": true,
          "internalType": "uint256",
          "name": "fee",
          "type": "uint256"
        }
      ],
      "name": "CollectProfitAndUpdateWatermark",
      "type": "event"
    },
    {
      "anonymous": false,
      "inputs": [
        {
          "indexed": true,
          "internalType": "address",
          "name": "user",
          "type": "address"
        },
        {
          "indexed": true,
          "internalType": "uint256",
          "name": "amount",
          "type": "uint256"
        },
        {
          "indexed": true,
          "internalType": "uint256",
          "name": "shares",
          "type": "uint256"
        }
      ],
      "name": "Deposit",
      "type": "event"
    },
    {
      "anonymous": false,
      "inputs": [
        {
          "indexed": true,
          "internalType": "uint256",
          "name": "stAmount",
          "type": "uint256"
        }
      ],
      "name": "EmergencyWithdraw",
      "type": "event"
    },
    {
      "anonymous": false,
      "inputs": [
        {
          "indexed": false,
          "internalType": "uint8",
          "name": "version",
          "type": "uint8"
        }
      ],
      "name": "Initialized",
      "type": "event"
    },
    {
      "anonymous": false,
      "inputs": [
        {
          "indexed": true,
          "internalType": "uint256",
          "name": "amount",
          "type": "uint256"
        }
      ],
      "name": "Invest",
      "type": "event"
    },
    {
      "anonymous": false,
      "inputs": [
        {
          "indexed": true,
          "internalType": "address",
          "name": "previousOwner",
          "type": "address"
        },
        {
          "indexed": true,
          "internalType": "address",
          "name": "newOwner",
          "type": "address"
        }
      ],
      "name": "OwnershipTransferred",
      "type": "event"
    },
    {
      "anonymous": false,
      "inputs": [
        {
          "indexed": false,
          "internalType": "address",
          "name": "account",
          "type": "address"
        }
      ],
      "name": "Paused",
      "type": "event"
    },
    {
      "anonymous": false,
      "inputs": [
        {
          "indexed": true,
          "internalType": "uint256",
          "name": "stAmount",
          "type": "uint256"
        }
      ],
      "name": "Redeem",
      "type": "event"
    },
    {
      "anonymous": false,
      "inputs": [
        {
          "indexed": true,
          "internalType": "address",
          "name": "from",
          "type": "address"
        },
        {
          "indexed": true,
          "internalType": "address",
          "name": "to",
          "type": "address"
        },
        {
          "indexed": false,
          "internalType": "uint256",
          "name": "value",
          "type": "uint256"
        }
      ],
      "name": "Transfer",
      "type": "event"
    },
    {
      "anonymous": false,
      "inputs": [
        {
          "indexed": true,
          "internalType": "uint256",
          "name": "fees",
          "type": "uint256"
        },
        {
          "indexed": true,
          "internalType": "address",
          "name": "token",
          "type": "address"
        }
      ],
      "name": "TransferredOutFees",
      "type": "event"
    },
    {
      "anonymous": false,
      "inputs": [
        {
          "indexed": false,
          "internalType": "address",
          "name": "account",
          "type": "address"
        }
      ],
      "name": "Unpaused",
      "type": "event"
    },
    {
      "anonymous": false,
      "inputs": [
        {
          "indexed": true,
          "internalType": "address",
          "name": "user",
          "type": "address"
        },
        {
          "indexed": false,
          "internalType": "uint256",
          "name": "shares",
          "type": "uint256"
        },
        {
          "indexed": true,
          "internalType": "uint256",
          "name": "amount",
          "type": "uint256"
        },
        {
          "indexed": false,
          "internalType": "uint256",
          "name": "reqId",
          "type": "uint256"
        },
        {
          "indexed": true,
          "internalType": "uint256",
          "name": "pendingAmount",
          "type": "uint256"
        }
      ],
      "name": "Withdraw",
      "type": "event"
    },
    {
      "inputs": [],
      "name": "admin",
      "outputs": [
        {
          "internalType": "address",
          "name": "",
          "type": "address"
        }
      ],
      "stateMutability": "view",
      "type": "function"
    },
    {
      "inputs": [
        {
          "internalType": "address",
          "name": "owner",
          "type": "address"
        },
        {
          "internalType": "address",
          "name": "spender",
          "type": "address"
        }
      ],
      "name": "allowance",
      "outputs": [
        {
          "internalType": "uint256",
          "name": "",
          "type": "uint256"
        }
      ],
      "stateMutability": "view",
      "type": "function"
    },
    {
      "inputs": [
        {
          "internalType": "address",
          "name": "spender",
          "type": "address"
        },
        {
          "internalType": "uint256",
          "name": "amount",
          "type": "uint256"
        }
      ],
      "name": "approve",
      "outputs": [
        {
          "internalType": "bool",
          "name": "",
          "type": "bool"
        }
      ],
      "stateMutability": "nonpayable",
      "type": "function"
    },
    {
      "inputs": [],
      "name": "avalanchePool",
      "outputs": [
        {
          "internalType": "contract IAvalanchePool",
          "name": "",
          "type": "address"
        }
      ],
      "stateMutability": "view",
      "type": "function"
    },
    {
      "inputs": [
        {
          "internalType": "address",
          "name": "account",
          "type": "address"
        }
      ],
      "name": "balanceOf",
      "outputs": [
        {
          "internalType": "uint256",
          "name": "",
          "type": "uint256"
        }
      ],
      "stateMutability": "view",
      "type": "function"
    },
    {
      "inputs": [],
      "name": "bufferedDeposits",
      "outputs": [
        {
          "internalType": "uint256",
          "name": "",
          "type": "uint256"
        }
      ],
      "stateMutability": "view",
      "type": "function"
    },
    {
      "inputs": [],
      "name": "bufferedWithdrawals",
      "outputs": [
        {
          "internalType": "uint256",
          "name": "",
          "type": "uint256"
        }
      ],
      "stateMutability": "view",
      "type": "function"
    },
    {
      "inputs": [
        {
          "internalType": "uint256",
          "name": "_reqId",
          "type": "uint256"
        }
      ],
      "name": "claim",
      "outputs": [
        {
          "internalType": "uint256",
          "name": "_amount",
          "type": "uint256"
        }
      ],
      "stateMutability": "nonpayable",
      "type": "function"
    },
    {
      "inputs": [
        {
          "internalType": "uint256[]",
          "name": "_reqIds",
          "type": "uint256[]"
        }
      ],
      "name": "claimMulti",
      "outputs": [
        {
          "internalType": "uint256",
          "name": "_amount",
          "type": "uint256"
        },
        {
          "internalType": "uint256",
          "name": "_claimedCount",
          "type": "uint256"
        },
        {
          "internalType": "bool[]",
          "name": "_claimed",
          "type": "bool[]"
        }
      ],
      "stateMutability": "nonpayable",
      "type": "function"
    },
    {
      "inputs": [],
      "name": "claimUnbonded",
      "outputs": [],
      "stateMutability": "nonpayable",
      "type": "function"
    },
    {
      "inputs": [],
      "name": "collectProfitAndUpdateWatermark",
      "outputs": [],
      "stateMutability": "nonpayable",
      "type": "function"
    },
    {
      "inputs": [],
      "name": "decimals",
      "outputs": [
        {
          "internalType": "uint8",
          "name": "",
          "type": "uint8"
        }
      ],
      "stateMutability": "view",
      "type": "function"
    },
    {
      "inputs": [
        {
          "internalType": "address",
          "name": "spender",
          "type": "address"
        },
        {
          "internalType": "uint256",
          "name": "subtractedValue",
          "type": "uint256"
        }
      ],
      "name": "decreaseAllowance",
      "outputs": [
        {
          "internalType": "bool",
          "name": "",
          "type": "bool"
        }
      ],
      "stateMutability": "nonpayable",
      "type": "function"
    },
    {
      "inputs": [
        {
          "internalType": "uint256",
          "name": "_amount",
          "type": "uint256"
        }
      ],
      "name": "deposit",
      "outputs": [],
      "stateMutability": "nonpayable",
      "type": "function"
    },
    {
      "inputs": [],
      "name": "depositETH",
      "outputs": [],
      "stateMutability": "payable",
      "type": "function"
    },
    {
      "inputs": [],
      "name": "emergencyPendingRedeems",
      "outputs": [
        {
          "internalType": "uint256",
          "name": "_redeems",
          "type": "uint256"
        }
      ],
      "stateMutability": "view",
      "type": "function"
    },
    {
      "inputs": [],
      "name": "emergencyRedeem",
      "outputs": [],
      "stateMutability": "nonpayable",
      "type": "function"
    },
    {
      "inputs": [],
      "name": "emergencyWithdraw",
      "outputs": [],
      "stateMutability": "nonpayable",
      "type": "function"
    },
    {
      "inputs": [],
      "name": "fees",
      "outputs": [
        {
          "internalType": "uint256",
          "name": "",
          "type": "uint256"
        }
      ],
      "stateMutability": "view",
      "type": "function"
    },
    {
      "inputs": [],
      "name": "getAPR",
      "outputs": [
        {
          "internalType": "uint256",
          "name": "",
          "type": "uint256"
        }
      ],
      "stateMutability": "view",
      "type": "function"
    },
    {
      "inputs": [],
      "name": "getAllPool",
      "outputs": [
        {
          "internalType": "uint256",
          "name": "_pool",
          "type": "uint256"
        }
      ],
      "stateMutability": "view",
      "type": "function"
    },
    {
      "inputs": [],
      "name": "getAllPoolInUSD",
      "outputs": [
        {
          "internalType": "uint256",
          "name": "",
          "type": "uint256"
        }
      ],
      "stateMutability": "view",
      "type": "function"
    },
    {
      "inputs": [],
      "name": "getBaseApr",
      "outputs": [
        {
          "internalType": "uint256",
          "name": "",
          "type": "uint256"
        },
        {
          "internalType": "uint256",
          "name": "",
          "type": "uint256"
        },
        {
          "internalType": "bool",
          "name": "",
          "type": "bool"
        }
      ],
      "stateMutability": "view",
      "type": "function"
    },
    {
      "inputs": [],
      "name": "getBaseAprData",
      "outputs": [
        {
          "internalType": "uint256",
          "name": "",
          "type": "uint256"
        },
        {
          "internalType": "uint256",
          "name": "",
          "type": "uint256"
        },
        {
          "internalType": "uint256",
          "name": "",
          "type": "uint256"
        }
      ],
      "stateMutability": "view",
      "type": "function"
    },
    {
      "inputs": [],
      "name": "getBufferedDeposits",
      "outputs": [
        {
          "internalType": "uint256",
          "name": "",
          "type": "uint256"
        }
      ],
      "stateMutability": "view",
      "type": "function"
    },
    {
      "inputs": [],
      "name": "getEmergencyUnbondings",
      "outputs": [
        {
          "internalType": "uint256",
          "name": "",
          "type": "uint256"
        }
      ],
      "stateMutability": "view",
      "type": "function"
    },
    {
      "inputs": [],
      "name": "getInvestedStTokens",
      "outputs": [
        {
          "internalType": "uint256",
          "name": "_stAmount",
          "type": "uint256"
        }
      ],
      "stateMutability": "view",
      "type": "function"
    },
    {
      "inputs": [],
      "name": "getPendingRewards",
      "outputs": [
        {
          "internalType": "uint256",
          "name": "",
          "type": "uint256"
        }
      ],
      "stateMutability": "view",
      "type": "function"
    },
    {
      "inputs": [
        {
          "internalType": "uint256",
          "name": "_shares",
          "type": "uint256"
        }
      ],
      "name": "getPoolByShares",
      "outputs": [
        {
          "internalType": "uint256",
          "name": "",
          "type": "uint256"
        }
      ],
      "stateMutability": "view",
      "type": "function"
    },
    {
      "inputs": [
        {
          "internalType": "uint256",
          "name": "_stAmount",
          "type": "uint256"
        }
      ],
      "name": "getPooledTokenByStToken",
      "outputs": [
        {
          "internalType": "uint256",
          "name": "",
          "type": "uint256"
        }
      ],
      "stateMutability": "view",
      "type": "function"
    },
    {
      "inputs": [
        {
          "internalType": "uint256",
          "name": "_amount",
          "type": "uint256"
        }
      ],
      "name": "getSharesByPool",
      "outputs": [
        {
          "internalType": "uint256",
          "name": "",
          "type": "uint256"
        }
      ],
      "stateMutability": "view",
      "type": "function"
    },
    {
      "inputs": [
        {
          "internalType": "uint256",
          "name": "_amount",
          "type": "uint256"
        }
      ],
      "name": "getStTokenByPooledToken",
      "outputs": [
        {
          "internalType": "uint256",
          "name": "",
          "type": "uint256"
        }
      ],
      "stateMutability": "view",
      "type": "function"
    },
    {
      "inputs": [],
      "name": "getTokenUnbonded",
      "outputs": [
        {
          "internalType": "uint256",
          "name": "",
          "type": "uint256"
        }
      ],
      "stateMutability": "view",
      "type": "function"
    },
    {
      "inputs": [
        {
          "internalType": "uint256",
          "name": "_reqId",
          "type": "uint256"
        }
      ],
      "name": "getWithdrawRequest",
      "outputs": [
        {
          "internalType": "bool",
          "name": "_claimable",
          "type": "bool"
        },
        {
          "internalType": "uint256",
          "name": "_tokenAmt",
          "type": "uint256"
        },
        {
          "internalType": "uint256",
          "name": "_stTokenAmt",
          "type": "uint256"
        },
        {
          "internalType": "uint256",
          "name": "_requestTs",
          "type": "uint256"
        },
        {
          "internalType": "uint256",
          "name": "_waitForTs",
          "type": "uint256"
        }
      ],
      "stateMutability": "view",
      "type": "function"
    },
    {
      "inputs": [
        {
          "internalType": "address",
          "name": "spender",
          "type": "address"
        },
        {
          "internalType": "uint256",
          "name": "addedValue",
          "type": "uint256"
        }
      ],
      "name": "increaseAllowance",
      "outputs": [
        {
          "internalType": "bool",
          "name": "",
          "type": "bool"
        }
      ],
      "stateMutability": "nonpayable",
      "type": "function"
    },
    {
      "inputs": [
        {
          "internalType": "string",
          "name": "_name",
          "type": "string"
        },
        {
          "internalType": "string",
          "name": "_symbol",
          "type": "string"
        },
        {
          "internalType": "address",
          "name": "_treasury",
          "type": "address"
        },
        {
          "internalType": "address",
          "name": "_admin",
          "type": "address"
        },
        {
          "internalType": "address",
          "name": "_priceOracle",
          "type": "address"
        },
        {
          "internalType": "address",
          "name": "_token",
          "type": "address"
        },
        {
          "internalType": "address",
          "name": "_stToken",
          "type": "address"
        }
      ],
      "name": "initialize",
      "outputs": [],
      "stateMutability": "nonpayable",
      "type": "function"
    },
    {
      "inputs": [
        {
          "internalType": "address",
          "name": "_treasury",
          "type": "address"
        },
        {
          "internalType": "address",
          "name": "_admin",
          "type": "address"
        },
        {
          "internalType": "address",
          "name": "_priceOracle",
          "type": "address"
        }
      ],
      "name": "initialize1",
      "outputs": [],
      "stateMutability": "nonpayable",
      "type": "function"
    },
    {
      "inputs": [],
      "name": "invest",
      "outputs": [],
      "stateMutability": "nonpayable",
      "type": "function"
    },
    {
      "inputs": [],
      "name": "investInterval",
      "outputs": [
        {
          "internalType": "uint256",
          "name": "",
          "type": "uint256"
        }
      ],
      "stateMutability": "view",
      "type": "function"
    },
    {
      "inputs": [],
      "name": "lastCollectProfitTs",
      "outputs": [
        {
          "internalType": "uint256",
          "name": "",
          "type": "uint256"
        }
      ],
      "stateMutability": "view",
      "type": "function"
    },
    {
      "inputs": [],
      "name": "lastInvestTs",
      "outputs": [
        {
          "internalType": "uint256",
          "name": "",
          "type": "uint256"
        }
      ],
      "stateMutability": "view",
      "type": "function"
    },
    {
      "inputs": [],
      "name": "lastRedeemTs",
      "outputs": [
        {
          "internalType": "uint256",
          "name": "",
          "type": "uint256"
        }
      ],
      "stateMutability": "view",
      "type": "function"
    },
    {
      "inputs": [],
      "name": "minInvestAmount",
      "outputs": [
        {
          "internalType": "uint256",
          "name": "",
          "type": "uint256"
        }
      ],
      "stateMutability": "view",
      "type": "function"
    },
    {
      "inputs": [],
      "name": "minRedeemAmount",
      "outputs": [
        {
          "internalType": "uint256",
          "name": "",
          "type": "uint256"
        }
      ],
      "stateMutability": "view",
      "type": "function"
    },
    {
      "inputs": [],
      "name": "name",
      "outputs": [
        {
          "internalType": "string",
          "name": "",
          "type": "string"
        }
      ],
      "stateMutability": "view",
      "type": "function"
    },
    {
      "inputs": [],
      "name": "nft",
      "outputs": [
        {
          "internalType": "contract IStVaultNFT",
          "name": "",
          "type": "address"
        }
      ],
      "stateMutability": "view",
      "type": "function"
    },
    {
      "inputs": [],
      "name": "oneEpoch",
      "outputs": [
        {
          "internalType": "uint256",
          "name": "",
          "type": "uint256"
        }
      ],
      "stateMutability": "view",
      "type": "function"
    },
    {
      "inputs": [],
      "name": "owner",
      "outputs": [
        {
          "internalType": "address",
          "name": "",
          "type": "address"
        }
      ],
      "stateMutability": "view",
      "type": "function"
    },
    {
      "inputs": [],
      "name": "paused",
      "outputs": [
        {
          "internalType": "bool",
          "name": "",
          "type": "bool"
        }
      ],
      "stateMutability": "view",
      "type": "function"
    },
    {
      "inputs": [],
      "name": "pendingRedeems",
      "outputs": [
        {
          "internalType": "uint256",
          "name": "",
          "type": "uint256"
        }
      ],
      "stateMutability": "view",
      "type": "function"
    },
    {
      "inputs": [],
      "name": "pendingWithdrawals",
      "outputs": [
        {
          "internalType": "uint256",
          "name": "",
          "type": "uint256"
        }
      ],
      "stateMutability": "view",
      "type": "function"
    },
    {
      "inputs": [],
      "name": "priceOracle",
      "outputs": [
        {
          "internalType": "contract IPriceOracle",
          "name": "",
          "type": "address"
        }
      ],
      "stateMutability": "view",
      "type": "function"
    },
    {
      "inputs": [],
      "name": "redeem",
      "outputs": [],
      "stateMutability": "nonpayable",
      "type": "function"
    },
    {
      "inputs": [],
      "name": "redeemInterval",
      "outputs": [
        {
          "internalType": "uint256",
          "name": "",
          "type": "uint256"
        }
      ],
      "stateMutability": "view",
      "type": "function"
    },
    {
      "inputs": [],
      "name": "reinvest",
      "outputs": [],
      "stateMutability": "nonpayable",
      "type": "function"
    },
    {
      "inputs": [],
      "name": "renounceOwnership",
      "outputs": [],
      "stateMutability": "nonpayable",
      "type": "function"
    },
    {
      "inputs": [],
      "name": "resetApr",
      "outputs": [],
      "stateMutability": "nonpayable",
      "type": "function"
    },
    {
      "inputs": [
        {
          "internalType": "address",
          "name": "_newAdmin",
          "type": "address"
        }
      ],
      "name": "setAdmin",
      "outputs": [],
      "stateMutability": "nonpayable",
      "type": "function"
    },
    {
      "inputs": [
        {
          "internalType": "uint256",
          "name": "_yieldFeePerc",
          "type": "uint256"
        }
      ],
      "name": "setFee",
      "outputs": [],
      "stateMutability": "nonpayable",
      "type": "function"
    },
    {
      "inputs": [
        {
          "internalType": "address",
          "name": "_nft",
          "type": "address"
        }
      ],
      "name": "setNFT",
      "outputs": [],
      "stateMutability": "nonpayable",
      "type": "function"
    },
    {
      "inputs": [
        {
          "internalType": "uint256",
          "name": "_minInvestAmount",
          "type": "uint256"
        },
        {
          "internalType": "uint256",
          "name": "_minRedeemAmount",
          "type": "uint256"
        }
      ],
      "name": "setStakingAmounts",
      "outputs": [],
      "stateMutability": "nonpayable",
      "type": "function"
    },
    {
      "inputs": [
        {
          "internalType": "uint256",
          "name": "_unbondingPeriod",
          "type": "uint256"
        },
        {
          "internalType": "uint256",
          "name": "_investInterval",
          "type": "uint256"
        },
        {
          "internalType": "uint256",
          "name": "_redeemInterval",
          "type": "uint256"
        },
        {
          "internalType": "uint256",
          "name": "_oneEpoch",
          "type": "uint256"
        }
      ],
      "name": "setStakingPeriods",
      "outputs": [],
      "stateMutability": "nonpayable",
      "type": "function"
    },
    {
      "inputs": [
        {
          "internalType": "address",
          "name": "_wallet",
          "type": "address"
        }
      ],
      "name": "setTreasuryWallet",
      "outputs": [],
      "stateMutability": "nonpayable",
      "type": "function"
    },
    {
      "inputs": [],
      "name": "stToken",
      "outputs": [
        {
          "internalType": "contract IERC20Upgradeable",
          "name": "",
          "type": "address"
        }
      ],
      "stateMutability": "view",
      "type": "function"
    },
    {
      "inputs": [],
      "name": "symbol",
      "outputs": [
        {
          "internalType": "string",
          "name": "",
          "type": "string"
        }
      ],
      "stateMutability": "view",
      "type": "function"
    },
    {
      "inputs": [],
      "name": "token",
      "outputs": [
        {
          "internalType": "contract IERC20Upgradeable",
          "name": "",
          "type": "address"
        }
      ],
      "stateMutability": "view",
      "type": "function"
    },
    {
      "inputs": [],
      "name": "totalSupply",
      "outputs": [
        {
          "internalType": "uint256",
          "name": "",
          "type": "uint256"
        }
      ],
      "stateMutability": "view",
      "type": "function"
    },
    {
      "inputs": [
        {
          "internalType": "address",
          "name": "to",
          "type": "address"
        },
        {
          "internalType": "uint256",
          "name": "amount",
          "type": "uint256"
        }
      ],
      "name": "transfer",
      "outputs": [
        {
          "internalType": "bool",
          "name": "",
          "type": "bool"
        }
      ],
      "stateMutability": "nonpayable",
      "type": "function"
    },
    {
      "inputs": [
        {
          "internalType": "address",
          "name": "from",
          "type": "address"
        },
        {
          "internalType": "address",
          "name": "to",
          "type": "address"
        },
        {
          "internalType": "uint256",
          "name": "amount",
          "type": "uint256"
        }
      ],
      "name": "transferFrom",
      "outputs": [
        {
          "internalType": "bool",
          "name": "",
          "type": "bool"
        }
      ],
      "stateMutability": "nonpayable",
      "type": "function"
    },
    {
      "inputs": [
        {
          "internalType": "address",
          "name": "newOwner",
          "type": "address"
        }
      ],
      "name": "transferOwnership",
      "outputs": [],
      "stateMutability": "nonpayable",
      "type": "function"
    },
    {
      "inputs": [],
      "name": "treasuryWallet",
      "outputs": [
        {
          "internalType": "address",
          "name": "",
          "type": "address"
        }
      ],
      "stateMutability": "view",
      "type": "function"
    },
    {
      "inputs": [],
      "name": "unbondingPeriod",
      "outputs": [
        {
          "internalType": "uint256",
          "name": "",
          "type": "uint256"
        }
      ],
      "stateMutability": "view",
      "type": "function"
    },
    {
      "inputs": [],
      "name": "watermark",
      "outputs": [
        {
          "internalType": "uint256",
          "name": "",
          "type": "uint256"
        }
      ],
      "stateMutability": "view",
      "type": "function"
    },
    {
      "inputs": [
        {
          "internalType": "uint256",
          "name": "_shares",
          "type": "uint256"
        }
      ],
      "name": "withdraw",
      "outputs": [
        {
          "internalType": "uint256",
          "name": "_amount",
          "type": "uint256"
        },
        {
          "internalType": "uint256",
          "name": "_reqId",
          "type": "uint256"
        }
      ],
      "stateMutability": "nonpayable",
      "type": "function"
    },
    {
      "inputs": [],
      "name": "withdrawFees",
      "outputs": [],
      "stateMutability": "nonpayable",
      "type": "function"
    },
    {
      "inputs": [],
      "name": "yield",
      "outputs": [],
      "stateMutability": "nonpayable",
      "type": "function"
    },
    {
      "inputs": [],
      "name": "yieldFee",
      "outputs": [
        {
          "internalType": "uint256",
          "name": "",
          "type": "uint256"
        }
      ],
      "stateMutability": "view",
      "type": "function"
    },
    {
      "stateMutability": "payable",
      "type": "receive"
    }
  ],
  "transactionHash": "0x2e38847b358eff149873e378db9f50bdbc1db01dea6f8598a9856e6cc0d51d4a",
  "args": [],
  "numDeployments": 4,
  "solcInputHash": "e7bf97b189076acd7516f944faf6c9df",
  "bytecode": "0x608060405234801561001057600080fd5b50614a05806100206000396000f3fe6080604052600436106104565760003560e01c80637e478b861161023f578063c1c33f0e11610139578063e4717f6a116100b6578063f6326fb31161007a578063f6326fb314610c61578063f851a44014610c69578063fc0c546a14610c89578063fdb5a03e14610caa578063fe8fc02a14610cbf57600080fd5b8063e4717f6a14610bc7578063e8b5e51f14610bf6578063f13dc2e214610c0b578063f2fde38b14610c21578063f56e9c6614610c4157600080fd5b8063d36af3fc116100fd578063d36af3fc146108a4578063d80dfc3b14610b5e578063d9621f9e146108a4578063db2e21bc14610b92578063dd62ed3e14610ba757600080fd5b8063c1c33f0e14610a9f578063c378022c14610abf578063c89d5b8b14610adf578063c91f0c5314610af4578063cc0fe4a414610b1457600080fd5b8063a5ff3f80116101c7578063b6b55f251161018b578063b6b55f2514610a1e578063bb46554214610a3e578063bd244af414610a5e578063be040fb014610a73578063beca03d514610a8857600080fd5b8063a5ff3f8014610999578063a8602fea146109b0578063a9059cbb146109d0578063b09f5320146109f0578063b162d5dc14610a0757600080fd5b806395d89b411161020e57806395d89b41146109225780639af1d35a146109375780639bceb8571461094d578063a20a4cb414610964578063a457c2d71461097957600080fd5b80637e478b86146108b85780638954b3e0146108d85780638da5cb5b146108ed5780639119c0671461090b57600080fd5b806339509351116103505780635c975abb116102d85780636cf6d6751161029c5780636cf6d67514610822578063704b6c021461083957806370a0823114610859578063715018a61461088f57806373ff5f7c146108a457600080fd5b80635c975abb146107a35780635f86fe9c146107bb57806361bc47881461066b57806369fe0e2d146107ed5780636ba897841461080d57600080fd5b8063470343d81161031f578063470343d81461072e578063476343ee1461074357806347ccca02146107585780634a351b8a146107795780634b950d0f1461078e57600080fd5b806339509351146106c05780633f690113146106e057806342050f58146106f75780634626402b1461070e57600080fd5b806324b1a1f7116103de5780632e1a7d4d116103a25780632e1a7d4d1461061a578063313ce5671461064f578063318ea9201461066b578063379607f51461068957806338f360b3146106a957600080fd5b806324b1a1f71461059a5780632630c12f146105af57806328593984146105d05780632a39e8e4146105e55780632d2009b0146105fa57600080fd5b8063095ea7b311610425578063095ea7b3146104fd57806318160ddd1461052d5780631a813a3c1461054257806323b6443e1461055957806323b872dd1461057a57600080fd5b8063034f4083146104625780630601fb221461048b57806306fdde03146104c45780630912ae6d146104e657600080fd5b3661045d57005b600080fd5b34801561046e57600080fd5b5061047860fb5481565b6040519081526020015b60405180910390f35b34801561049757600080fd5b5061012c546104ac906001600160a01b031681565b6040516001600160a01b039091168152602001610482565b3480156104d057600080fd5b506104d9610cd6565b604051610482919061417f565b3480156104f257600080fd5b5061047861010c5481565b34801561050957600080fd5b5061051d6105183660046141c9565b610d68565b6040519015158152602001610482565b34801561053957600080fd5b50603554610478565b34801561054e57600080fd5b50610557610d82565b005b34801561056557600080fd5b50610103546104ac906001600160a01b031681565b34801561058657600080fd5b5061051d6105953660046141f3565b610dcc565b3480156105a657600080fd5b50610478610df2565b3480156105bb57600080fd5b50610100546104ac906001600160a01b031681565b3480156105dc57600080fd5b50610557610e0d565b3480156105f157600080fd5b50610478610e6f565b34801561060657600080fd5b5061055761061536600461422f565b610e88565b34801561062657600080fd5b5061063a610635366004614261565b610eca565b60408051928352602083019190915201610482565b34801561065b57600080fd5b5060405160128152602001610482565b34801561067757600080fd5b50610478610686366004614261565b90565b34801561069557600080fd5b506104786106a4366004614261565b61124e565b3480156106b557600080fd5b5061047861010d5481565b3480156106cc57600080fd5b5061051d6106db3660046141c9565b6114d3565b3480156106ec57600080fd5b5061047861010f5481565b34801561070357600080fd5b506104786101125481565b34801561071a57600080fd5b5060fe546104ac906001600160a01b031681565b34801561073a57600080fd5b506105576114f5565b34801561074f57600080fd5b5061055761155f565b34801561076457600080fd5b50610101546104ac906001600160a01b031681565b34801561078557600080fd5b506104786115a9565b34801561079a57600080fd5b50610557611638565b3480156107af57600080fd5b5060655460ff1661051d565b3480156107c757600080fd5b506107d0611681565b604080519384526020840192909252151590820152606001610482565b3480156107f957600080fd5b50610557610808366004614261565b611757565b34801561081957600080fd5b506104786117d0565b34801561082e57600080fd5b5061047861010a5481565b34801561084557600080fd5b5061055761085436600461427a565b611866565b34801561086557600080fd5b5061047861087436600461427a565b6001600160a01b031660009081526033602052604090205490565b34801561089b57600080fd5b506105576118b2565b3480156108b057600080fd5b506000610478565b3480156108c457600080fd5b506105576108d3366004614295565b6118e6565b3480156108e457600080fd5b506105576119f2565b3480156108f957600080fd5b5060c9546001600160a01b03166104ac565b34801561091757600080fd5b506104786101085481565b34801561092e57600080fd5b506104d9611a5b565b34801561094357600080fd5b5061047860fd5481565b34801561095957600080fd5b506104786101115481565b34801561097057600080fd5b50610478611a6a565b34801561098557600080fd5b5061051d6109943660046141c9565b611c0c565b3480156109a557600080fd5b506104786101105481565b3480156109bc57600080fd5b506105576109cb36600461427a565b611c92565b3480156109dc57600080fd5b5061051d6109eb3660046141c9565b611d25565b3480156109fc57600080fd5b506104786101065481565b348015610a1357600080fd5b5061047861010b5481565b348015610a2a57600080fd5b50610557610a39366004614261565b611d33565b348015610a4a57600080fd5b50610478610a59366004614261565b611d90565b348015610a6a57600080fd5b50610478611dcd565b348015610a7f57600080fd5b50610557611df2565b348015610a9457600080fd5b506104786101075481565b348015610aab57600080fd5b50610478610aba366004614261565b611f4a565b348015610acb57600080fd5b50610557610ada3660046142b7565b611f67565b348015610aeb57600080fd5b50610478612124565b348015610b0057600080fd5b50610557610b0f3660046143b1565b612138565b348015610b2057600080fd5b50610b34610b2f366004614261565b612381565b6040805195151586526020860194909452928401919091526060830152608082015260a001610482565b348015610b6a57600080fd5b5061011554610116546101175460408051938452602084019290925290820152606001610482565b348015610b9e57600080fd5b50610557612412565b348015610bb357600080fd5b50610478610bc2366004614468565b612481565b348015610bd357600080fd5b50610be7610be236600461449b565b6124ac565b60405161048293929190614541565b348015610c0257600080fd5b5061055761277d565b348015610c1757600080fd5b5061047860fc5481565b348015610c2d57600080fd5b50610557610c3c36600461427a565b6127e7565b348015610c4d57600080fd5b50610557610c5c36600461427a565b61287f565b610557612914565b348015610c7557600080fd5b5060ff546104ac906001600160a01b031681565b348015610c9557600080fd5b50610102546104ac906001600160a01b031681565b348015610cb657600080fd5b50610557612970565b348015610ccb57600080fd5b5061047861010e5481565b606060368054610ce590614598565b80601f0160208091040260200160405190810160405280929190818152602001828054610d1190614598565b8015610d5e5780601f10610d3357610100808354040283529160200191610d5e565b820191906000526020600020905b815481529060010190602001808311610d4157829003601f168201915b5050505050905090565b600033610d76818585612a48565b60019150505b92915050565b60c9546001600160a01b0316331480610da5575060ff546001600160a01b031633145b610dca5760405162461bcd60e51b8152600401610dc1906145cd565b60405180910390fd5b565b600033610dda858285612b6d565b610de5858585612be1565b60019150505b9392505050565b6000610e0861010654610e03612daf565b612de1565b905090565b60c9546001600160a01b0316331480610e30575060ff546001600160a01b031633145b610e4c5760405162461bcd60e51b8152600401610dc1906145cd565b60655460ff1615610dca5760405162461bcd60e51b8152600401610dc1906145fa565b600061010654610e7e30612df1565b610e08919061463a565b60c9546001600160a01b03163314610eb25760405162461bcd60e51b8152600401610dc190614651565b61010a9390935561010e919091556101105561011255565b60008060026097541415610ef05760405162461bcd60e51b8152600401610dc190614686565b600260975582610f335760405162461bcd60e51b815260206004820152600e60248201526d125b9d985b1a5908105b5bdd5b9d60921b6044820152606401610dc1565b33600090815260336020526040902054831115610f875760405162461bcd60e51b81526020600482015260126024820152714e6f7420656e6f7567682062616c616e636560701b6044820152606401610dc1565b3360009081526101136020526040902054431415610fe75760405162461bcd60e51b815260206004820152601a60248201527f57697468647261772077697468696e2073616d6520626c6f636b0000000000006044820152606401610dc1565b6000610ff284611d90565b9050610ffe3385612eaa565b611009816000612ff5565b6000611013610df2565b60fd549091506000818311156110355760fd54611030908461463a565b611038565b60005b905083811061104c5792945060009261105c565b945084611059818561463a565b93505b611066868461463a565b6101065583156111ee57600061107c6101055490565b9050600081866101055461109091906146bd565b61109a91906146f2565b9050600080610105546110ad84866146bd565b6110b791906146f2565b975082156111e9578761010760008282546110d29190614706565b909155505060655460ff166110ff578261010860008282546110f49190614706565b9091555061112b9050565b60006111096117d0565b9050838111156111225761111d848261463a565b611125565b60005b61010955505b610101546040516335313c2160e11b81523360048201526001600160a01b0390911690636a62784290602401602060405180830381600087803b15801561117157600080fd5b505af1158015611185573d6000803e3d6000fd5b505050506040513d601f19601f820116820180604052508101906111a9919061471e565b604080516060810182528a815260208082018781524283850190815260008681526101149093529390912091518255516001820155905160029091015598505b505050505b85156111fe576111fe3387613069565b60408051888152602081018790528591889133917fe08737ac48a1dab4b1a46c7dc9398bd5bfc6d7ad6fabb7cd8caa254de14def35910160405180910390a4505050506001609781905550915091565b6000600260975414156112735760405162461bcd60e51b8152600401610dc190614686565b60026097556101015460405163430c208160e01b8152336004820152602481018490526001600160a01b039091169063430c20819060440160206040518083038186803b1580156112c357600080fd5b505afa1580156112d7573d6000803e3d6000fd5b505050506040513d601f19601f820116820180604052508101906112fb9190614737565b6113335760405162461bcd60e51b81526020600482015260096024820152682737ba1037bbb732b960b91b6044820152606401610dc1565b600082815261011460209081526040918290208251606081018452815481526001820154928101929092526002015491810182905261010a5490916113789190614706565b4210156113bf5760405162461bcd60e51b8152602060048201526015602482015274139bdd0818589b19481d1bc818db185a5b481e595d605a1b6044820152606401610dc1565b80516113d26113cc610e6f565b826130b7565b9250600083116114165760405162461bcd60e51b815260206004820152600f60248201526e27379032b737bab3b4103a37b5b2b760891b6044820152606401610dc1565b61010154604051630852cd8d60e31b8152600481018690526001600160a01b03909116906342966c6890602401600060405180830381600087803b15801561145d57600080fd5b505af1158015611471573d6000803e3d6000fd5b50505050806101076000828254611488919061463a565b9091555061149890503384613069565b6040518390859033907f34fcbac0073d7c3d388e51312faf357774904998eeb8fca628b9e6f65ee1cbf790600090a450506001609755919050565b600033610d768185856114e68383612481565b6114f09190614706565b612a48565b60c9546001600160a01b0316331480611518575060ff546001600160a01b031633145b6115345760405162461bcd60e51b8152600401610dc1906145cd565b60655460ff16156115575760405162461bcd60e51b8152600401610dc1906145fa565b610dca6130fa565b60c9546001600160a01b0316331480611582575060ff546001600160a01b031633145b61159e5760405162461bcd60e51b8152600401610dc1906145cd565b6115a661319f565b50565b60006115b760655460ff1690565b1561068657610103546040516370a0823160e01b81523060048201526001600160a01b03909116906370a082319060240160206040518083038186803b15801561160057600080fd5b505afa158015611614573d6000803e3d6000fd5b505050506040513d601f19601f82011682018060405250810190610e08919061471e565b60c9546001600160a01b031633146116625760405162461bcd60e51b8152600401610dc190614651565b611679600061011581905561011681905561011755565b610dca613255565b610115546101165461011754600092839283928215806116ad5750426116aa8262093a80614706565b11155b156117495760006116c5670de0b6b3a7640000611d90565b90508260001080156116d657508083105b156117385760006116e7834261463a565b6116f190856146bd565b670de0b6b3a76400006301e13380611709878661463a565b61171391906146bd565b61171d91906146bd565b61172791906146f2565b989197506001965090945050505050565b600097909650600195509350505050565b509094909350600092509050565b60c9546001600160a01b031633146117815760405162461bcd60e51b8152600401610dc190614651565b610bb981106117cb5760405162461bcd60e51b81526020600482015260166024820152755969656c64204665652063616e6e6f74203e2033302560501b6044820152606401610dc1565b60fb55565b61012c5460405163019dceaf60e11b815230600482015260009182916001600160a01b039091169063033b9d5e9060240160206040518083038186803b15801561181957600080fd5b505afa15801561182d573d6000803e3d6000fd5b505050506040513d601f19601f82011682018060405250810190611851919061471e565b90506118608161010954613281565b91505090565b60c9546001600160a01b031633146118905760405162461bcd60e51b8152600401610dc190614651565b60ff80546001600160a01b0319166001600160a01b0392909216919091179055565b60c9546001600160a01b031633146118dc5760405162461bcd60e51b8152600401610dc190614651565b610dca6000613290565b60c9546001600160a01b031633146119105760405162461bcd60e51b8152600401610dc190614651565b600081116119605760405162461bcd60e51b815260206004820152601b60248201527f6d696e52656465656d416d6f756e74206d757374206265203e203000000000006044820152606401610dc1565b61012c60009054906101000a90046001600160a01b03166001600160a01b031663d9bbd2786040518163ffffffff1660e01b815260040160206040518083038186803b1580156119af57600080fd5b505afa1580156119c3573d6000803e3d6000fd5b505050506040513d601f19601f820116820180604052508101906119e7919061471e565b61010b5561010c5550565b60c9546001600160a01b0316331480611a15575060ff546001600160a01b031633145b611a315760405162461bcd60e51b8152600401610dc1906145cd565b60655460ff16611a535760405162461bcd60e51b8152600401610dc190614759565b610dca6132e2565b606060378054610ce590614598565b6000611a7860655460ff1690565b611b4457600061010854611a8a600090565b610103546040516370a0823160e01b81523060048201526001600160a01b03909116906370a082319060240160206040518083038186803b158015611ace57600080fd5b505afa158015611ae2573d6000803e3d6000fd5b505050506040513d601f19601f82011682018060405250810190611b06919061471e565b611b109190614706565b611b1a919061463a565b90508015611b26578091505b61010654611b349083614706565b915060fd5482611860919061463a565b600061010854611b526117d0565b6000610103546040516370a0823160e01b81523060048201526001600160a01b03909116906370a082319060240160206040518083038186803b158015611b9857600080fd5b505afa158015611bac573d6000803e3d6000fd5b505050506040513d601f19601f82011682018060405250810190611bd0919061471e565b611bda9190614706565b611be49190614706565b611bee919061463a565b90508015611bfa578091505b611c02612daf565b611b349083614706565b60003381611c1a8286612481565b905083811015611c7a5760405162461bcd60e51b815260206004820152602560248201527f45524332303a2064656372656173656420616c6c6f77616e63652062656c6f77604482015264207a65726f60d81b6064820152608401610dc1565b611c878286868403612a48565b506001949350505050565b60c9546001600160a01b03163314611cbc5760405162461bcd60e51b8152600401610dc190614651565b6001600160a01b038116611d035760405162461bcd60e51b815260206004820152600e60248201526d1dd85b1b195d081a5b9d985b1a5960921b6044820152606401610dc1565b60fe80546001600160a01b0319166001600160a01b0392909216919091179055565b600033610d76818585612be1565b60026097541415611d565760405162461bcd60e51b8152600401610dc190614686565b600260975560655460ff1615611d7e5760405162461bcd60e51b8152600401610dc1906145fa565b611d88338261335d565b506001609755565b600080611d9c60355490565b90508015611dc65780611dad611a6a565b611db790856146bd565b611dc191906146f2565b610deb565b5090919050565b600080611dd8611a6a565b61010254909150611860906001600160a01b0316826134b3565b60c9546001600160a01b0316331480611e15575060ff546001600160a01b031633145b611e315760405162461bcd60e51b8152600401610dc1906145cd565b60655460ff1615611e545760405162461bcd60e51b8152600401610dc1906145fa565b6101085461010c54811015611e975760405162461bcd60e51b81526020600482015260096024820152681d1bdbc81cdb585b1b60ba1b6044820152606401610dc1565b6101105461010f54611ea99190614706565b421015611ef15760405162461bcd60e51b8152602060048201526016602482015275139bdd0818589b19481d1bc81c995919595b481e595d60521b6044820152606401610dc1565b6000611efc82613581565b9050806101086000828254611f11919061463a565b90915550504261010f5560405181907f702d5967f45f6513a38ffc42d6ba9bf230bd40e8f53b16363c7eb4fd2deb9a4490600090a25050565b600080611f55611a6a565b90508015611dc65780611dad60355490565b6000611f736001613682565b90508015611f8b576000805461ff0019166101001790555b61200b6040518060400160405280601081526020016f0a6a89240a6e8c2d6d2dcce4082ac82b60831b815250604051806040016040528060098152602001680e6e8d2a6e882ac82b60bb1b81525086868673eeeeeeeeeeeeeeeeeeeeeeeeeeeeeeeeeeeeeeee73bd97c29aa3e83c523c9714edca8db8881841a593612138565b61012c80546001600160a01b031916730c29d40cbd3c9073f4c0c96bf88ae1b4b4fe1d119081179091556224ea0061010a5560408051631b377a4f60e31b8152905163d9bbd27891600480820192602092909190829003018186803b15801561207357600080fd5b505afa158015612087573d6000803e3d6000fd5b505050506040513d601f19601f820116820180604052508101906120ab919061471e565b61010b55620151806101125561012c54610103546120d8916001600160a01b03918216911660001961370f565b801561211e576000805461ff0019169055604051600181527f7f26b83ff96e1f2b6a682f133852f6798a09c465da95921460cefb38474024989060200160405180910390a15b50505050565b60008061212f611681565b50909392505050565b60006121446001613682565b9050801561215c576000805461ff0019166101001790555b6001600160a01b0386166121a55760405162461bcd60e51b815260206004820152601060248201526f1d1c99585cdd5c9e481a5b9d985b1a5960821b6044820152606401610dc1565b6121ad613866565b6121b5613896565b6121bf88886138bd565b6107d060fb5560fe80546001600160a01b038089166001600160a01b03199283161790925560ff805488841690831617905561010080548784169083161790556101028054868416908316811790915561010380549386169390921692909217905561222a9061390b565b61010360146101000a81548160ff021916908360ff16021790555061010360009054906101000a90046001600160a01b03166001600160a01b031663313ce5676040518163ffffffff1660e01b815260040160206040518083038186803b15801561229457600080fd5b505afa1580156122a8573d6000803e3d6000fd5b505050506040513d601f19601f820116820180604052508101906122cc9190614798565b610103805460ff60a81b1916600160a81b60ff9384160217908190556122fc91600160a01b90910416600a614897565b610104556101035461231990600160a81b900460ff16600a614897565b61010555600161010b81905561010c55612331613255565b8015612377576000805461ff0019169055604051600181527f7f26b83ff96e1f2b6a682f133852f6798a09c465da95921460cefb38474024989060200160405180910390a15b5050505050505050565b60008181526101146020908152604080832081516060810183528154808252600183015494820185905260029092015492810183905261010a549193929185919082906123ce9085614706565b9050428111156123e9576123e2428261463a565b9250612407565b60006123fc6123f6610e6f565b886130b7565b111561240757600196505b505091939590929450565b60c9546001600160a01b0316331480612435575060ff546001600160a01b031633145b6124515760405162461bcd60e51b8152600401610dc1906145cd565b60655460ff16156124745760405162461bcd60e51b8152600401610dc1906145fa565b61247c6139af565b611a53565b6001600160a01b03918216600090815260346020908152604080832093909416825291909152205490565b6000806060600260975414156124d45760405162461bcd60e51b8152600401610dc190614686565b600260975560006124e3610e6f565b85519091506000908067ffffffffffffffff811115612504576125046142fa565b60405190808252806020026020018201604052801561252d578160200160208202803683370190505b50935060005b8181101561272d57600088828151811061254f5761254f6148a6565b60209081029190910101516101015460405163430c208160e01b8152336004820152602481018390529192506001600160a01b03169063430c20819060440160206040518083038186803b1580156125a657600080fd5b505afa1580156125ba573d6000803e3d6000fd5b505050506040513d601f19601f820116820180604052508101906125de9190614737565b6125e8575061271b565b600081815261011460209081526040918290208251606081018452815481526001820154928101929092526002015491810182905261010a54909161262d9190614706565b42101561263b57505061271b565b805161264787826130b7565b9550856126565750505061271b565b612660868b614706565b995061266c868861463a565b9650806101076000828254612681919061463a565b909155505061010154604051630852cd8d60e31b8152600481018590526001600160a01b03909116906342966c6890602401600060405180830381600087803b1580156126cd57600080fd5b505af11580156126e1573d6000803e3d6000fd5b5050505088806126f0906148bc565b9950506001888581518110612707576127076148a6565b911515602092830291909101909101525050505b80612725816148bc565b915050612533565b50851561276e5761273e3387613069565b6040518590879033907f1230003b239f7686d92a5b33084711bef8ae5f401f3d27f049d9196a138d448290600090a45b50506001609755509193909250565b60c9546001600160a01b03163314806127a0575060ff546001600160a01b031633145b6127bc5760405162461bcd60e51b8152600401610dc1906145cd565b60655460ff16156127df5760405162461bcd60e51b8152600401610dc1906145fa565b610dca613a24565b60c9546001600160a01b031633146128115760405162461bcd60e51b8152600401610dc190614651565b6001600160a01b0381166128765760405162461bcd60e51b815260206004820152602660248201527f4f776e61626c653a206e6577206f776e657220697320746865207a65726f206160448201526564647265737360d01b6064820152608401610dc1565b6115a681613290565b60c9546001600160a01b031633146128a95760405162461bcd60e51b8152600401610dc190614651565b610101546001600160a01b0316156128f15760405162461bcd60e51b815260206004820152600b60248201526a105b1c9958591e481cd95d60aa1b6044820152606401610dc1565b61010180546001600160a01b0319166001600160a01b0392909216919091179055565b600260975414156129375760405162461bcd60e51b8152600401610dc190614686565b600260975560655460ff161561295f5760405162461bcd60e51b8152600401610dc1906145fa565b612969333461335d565b6001609755565b60c9546001600160a01b0316331480612993575060ff546001600160a01b031633145b6129af5760405162461bcd60e51b8152600401610dc1906145cd565b60655460ff166129d15760405162461bcd60e51b8152600401610dc190614759565b6129d96117d0565b15612a325760405162461bcd60e51b815260206004820152602360248201527f456d657267656e637920756e626f6e64696e67206973206e6f742066696e69736044820152621a195960ea1b6064820152608401610dc1565b612a3a613ab0565b600061010955610dca613a24565b6001600160a01b038316612aaa5760405162461bcd60e51b8152602060048201526024808201527f45524332303a20617070726f76652066726f6d20746865207a65726f206164646044820152637265737360e01b6064820152608401610dc1565b6001600160a01b038216612b0b5760405162461bcd60e51b815260206004820152602260248201527f45524332303a20617070726f766520746f20746865207a65726f206164647265604482015261737360f01b6064820152608401610dc1565b6001600160a01b0383811660008181526034602090815260408083209487168084529482529182902085905590518481527f8c5be1e5ebec7d5bd14f71427d1e84f3dd0314c0f7b2291e5b200ac8c7c3b92591015b60405180910390a3505050565b6000612b798484612481565b9050600019811461211e5781811015612bd45760405162461bcd60e51b815260206004820152601d60248201527f45524332303a20696e73756666696369656e7420616c6c6f77616e63650000006044820152606401610dc1565b61211e8484848403612a48565b6001600160a01b038316612c455760405162461bcd60e51b815260206004820152602560248201527f45524332303a207472616e736665722066726f6d20746865207a65726f206164604482015264647265737360d81b6064820152608401610dc1565b6001600160a01b038216612ca75760405162461bcd60e51b815260206004820152602360248201527f45524332303a207472616e7366657220746f20746865207a65726f206164647260448201526265737360e81b6064820152608401610dc1565b6001600160a01b03831660009081526033602052604090205481811015612d1f5760405162461bcd60e51b815260206004820152602660248201527f45524332303a207472616e7366657220616d6f756e7420657863656564732062604482015265616c616e636560d01b6064820152608401610dc1565b6001600160a01b03808516600090815260336020526040808220858503905591851681529081208054849290612d56908490614706565b92505081905550826001600160a01b0316846001600160a01b03167fddf252ad1be2c89b69c2b068fc378daa952ba7f163c4a11628f55a4df523b3ef84604051612da291815260200190565b60405180910390a361211e565b600080612dbb30612df1565b61010754909150808211612dd0576000612dda565b612dda818361463a565b9250505090565b600081831015611dc65781610deb565b610102546000906001600160a01b031673eeeeeeeeeeeeeeeeeeeeeeeeeeeeeeeeeeeeeeee1415612e2c57816001600160a01b031631610d7c565b610102546040516370a0823160e01b81526001600160a01b038481166004830152909116906370a082319060240160206040518083038186803b158015612e7257600080fd5b505afa158015612e86573d6000803e3d6000fd5b505050506040513d601f19601f82011682018060405250810190610d7c919061471e565b6001600160a01b038216612f0a5760405162461bcd60e51b815260206004820152602160248201527f45524332303a206275726e2066726f6d20746865207a65726f206164647265736044820152607360f81b6064820152608401610dc1565b6001600160a01b03821660009081526033602052604090205481811015612f7e5760405162461bcd60e51b815260206004820152602260248201527f45524332303a206275726e20616d6f756e7420657863656564732062616c616e604482015261636560f01b6064820152608401610dc1565b6001600160a01b0383166000908152603360205260408120838303905560358054849290612fad90849061463a565b90915550506040518281526000906001600160a01b038516907fddf252ad1be2c89b69c2b068fc378daa952ba7f163c4a11628f55a4df523b3ef90602001612b60565b505050565b60fc54600182151514613025578260fc5411613012576000613033565b8260fc54613020919061463a565b613033565b8260fc546130339190614706565b60fc8190556040518291907f07b7fa586c4fdef11992d9448b97ba78814c23ddec7e1d4bf195fda6716e472690600090a3505050565b610102546001600160a01b031673eeeeeeeeeeeeeeeeeeeeeeeeeeeeeeeeeeeeeeee141561309f5761309b8282613b03565b5050565b6101025461309b906001600160a01b03168383613bb6565b6000806305f5e1006130cd846305f5e0ff6146bd565b6130d791906146f2565b90508084106130ef576130ea8484613281565b6130f2565b60005b949350505050565b6000613104611a6a565b60fc54909150600081831115613166576000613120838561463a565b905061271060fb548261313391906146bd565b61313d91906146f2565b91508160fd60008282546131519190614706565b909155506131619050828561463a565b60fc55505b42610111556040518190839085907fa3e3c8c92ed1e364d04865f99cd96c3ae8f5a7d800f4a1d8148a58c6de6f1b7190600090a4505050565b60006131a9610df2565b60fd5490915080158015906131bd57508115155b156132515780828110156131e057600091506131d9818461463a565b92506131f3565b6131ea838361463a565b60009390925090505b60fd82905561010683905560fe54613214906001600160a01b031682613069565b610102546040516001600160a01b039091169082907f6e027f1905abd7233c51c9483e29a545074ed10d39db528c9791a246b26741ff90600090a3505b5090565b6000806000613262611681565b9250925092508015612ff0575061011591909155610116554261011755565b6000818310611dc65781610deb565b60c980546001600160a01b038381166001600160a01b0319831681179093556040519116919082907f8be0079c531659141344cd1fd0a4f28419497f9722a3daafe3b4186f6b6457e090600090a35050565b6101105461010f546132f49190614706565b4210610dca5761010854600061330982613be6565b9050808211156133225761331d818361463a565b613325565b60005b610108554261010f5560405181907f99d7f8b71cfb9126984f7a5eed3a40e64a8959e9b0e442221546fb04ec6a489c90600090a25050565b6000811161339e5760405162461bcd60e51b815260206004820152600e60248201526d125b9d985b1a5908185b5bdd5b9d60921b6044820152606401610dc1565b6001600160a01b03808316600090815261011360205260409020439055610102541673eeeeeeeeeeeeeeeeeeeeeeeeeeeeeeeeeeeeeeee146133f357610102546133f3906001600160a01b0316833084613cf4565b8061010660008282546134069190614706565b909155506000905081613417611a6a565b613421919061463a565b9050600061342e60355490565b9050600082158061343d575081155b61345b578261344c83866146bd565b61345691906146f2565b61345d565b835b90506134698582613d2c565b613474846001612ff5565b8084866001600160a01b03167f90890809c654f11d6e72a28fa60149770a0d11ec6c92319d6ceb2bb0a4ea1a1560405160405180910390a45050505050565b6101005460405163b3596f0760e01b81526001600160a01b038481166004830152600092839283929091169063b3596f0790602401604080518083038186803b1580156134ff57600080fd5b505afa158015613513573d6000803e3d6000fd5b505050506040513d601f19601f8201168201806040525081019061353791906148d7565b9150915060006135468661390b565b905061355382600a614897565b83613563878460ff166012613e0b565b61356d91906146bd565b61357791906146f2565b9695505050505050565b610103546040516370a0823160e01b815230600482015282916000916001600160a01b03909116906370a082319060240160206040518083038186803b1580156135ca57600080fd5b505afa1580156135de573d6000803e3d6000fd5b505050506040513d601f19601f82011682018060405250810190613602919061471e565b9050801561367c5761012c546001600160a01b031663f9126564828511613629578461362b565b825b6040518263ffffffff1660e01b815260040161364991815260200190565b600060405180830381600087803b15801561366357600080fd5b505af1158015613677573d6000803e3d6000fd5b505050505b50919050565b60008054610100900460ff16156136c9578160ff1660011480156136a55750303b155b6136c15760405162461bcd60e51b8152600401610dc1906148fa565b506000919050565b60005460ff8084169116106136f05760405162461bcd60e51b8152600401610dc1906148fa565b506000805460ff191660ff92909216919091179055600190565b919050565b8015806137985750604051636eb1769f60e11b81523060048201526001600160a01b03838116602483015284169063dd62ed3e9060440160206040518083038186803b15801561375e57600080fd5b505afa158015613772573d6000803e3d6000fd5b505050506040513d601f19601f82011682018060405250810190613796919061471e565b155b6138035760405162461bcd60e51b815260206004820152603660248201527f5361666545524332303a20617070726f76652066726f6d206e6f6e2d7a65726f60448201527520746f206e6f6e2d7a65726f20616c6c6f77616e636560501b6064820152608401610dc1565b6040516001600160a01b038316602482015260448101829052612ff090849063095ea7b360e01b906064015b60408051601f198184030181529190526020810180516001600160e01b03166001600160e01b031990931692909217909152613e69565b600054610100900460ff1661388d5760405162461bcd60e51b8152600401610dc190614948565b610dca33613290565b600054610100900460ff166129695760405162461bcd60e51b8152600401610dc190614948565b600054610100900460ff166138e45760405162461bcd60e51b8152600401610dc190614948565b81516138f79060369060208501906140c3565b508051612ff09060379060208401906140c3565b60006001600160a01b03821673eeeeeeeeeeeeeeeeeeeeeeeeeeeeeeeeeeeeeeee146139a757816001600160a01b031663313ce5676040518163ffffffff1660e01b815260040160206040518083038186803b15801561396a57600080fd5b505afa15801561397e573d6000803e3d6000fd5b505050506040513d601f19601f820116820180604052508101906139a29190614798565b610d7c565b601292915050565b60655460ff16156139d25760405162461bcd60e51b8152600401610dc1906145fa565b6065805460ff191660011790557f62e78cea01bee320cd4e420270b5ea74000d11b0c9f74754ebdbfc544b05a258613a073390565b6040516001600160a01b03909116815260200160405180910390a1565b613a2c6130fa565b6000613a3661319f565b905061010b548110158015613a5c575061010e5461010d54613a589190614706565b4210155b156115a6576000613a6c82613f3b565b9050613a78818361463a565b610106554261010d5560405181907fa09b7ae452b7bffb9e204c3a016e80caeecf46f554d112644f36fa114dac6ffa90600090a25050565b60655460ff16613ad25760405162461bcd60e51b8152600401610dc190614759565b6065805460ff191690557f5db9ee0a495bf2e6ff9c91a7834c1ba4fdd244a5e8aa4e537bd38aeae4b073aa33613a07565b604080516000808252602082019092526001600160a01b038416908390604051613b2d9190614993565b60006040518083038185875af1925050503d8060008114613b6a576040519150601f19603f3d011682016040523d82523d6000602084013e613b6f565b606091505b5050905080612ff05760405162461bcd60e51b8152602060048201526013602482015272115512081d1c985b9cd9995c8819985a5b1959606a1b6044820152606401610dc1565b6040516001600160a01b038316602482015260448101829052612ff090849063a9059cbb60e01b9060640161382f565b610103546040516370a0823160e01b815230600482015260009182916001600160a01b03909116906370a082319060240160206040518083038186803b158015613c2f57600080fd5b505afa158015613c43573d6000803e3d6000fd5b505050506040513d601f19601f82011682018060405250810190613c67919061471e565b905061010c54811061367c5761012c54604051633e44995960e21b8152600481018390526001600160a01b039091169063f912656490602401600060405180830381600087803b158015613cba57600080fd5b505af1158015613cce573d6000803e3d6000fd5b50505050828111613ce0576000613cea565b613cea838261463a565b6101095592915050565b6040516001600160a01b038085166024830152831660448201526064810182905261211e9085906323b872dd60e01b9060840161382f565b6001600160a01b038216613d825760405162461bcd60e51b815260206004820152601f60248201527f45524332303a206d696e7420746f20746865207a65726f2061646472657373006044820152606401610dc1565b8060356000828254613d949190614706565b90915550506001600160a01b03821660009081526033602052604081208054839290613dc1908490614706565b90915550506040518181526001600160a01b038316906000907fddf252ad1be2c89b69c2b068fc378daa952ba7f163c4a11628f55a4df523b3ef9060200160405180910390a35050565b600081831415613e1c575082610deb565b81831015613e4a57613e2e838361463a565b613e3990600a6149af565b613e4390856146bd565b9050610deb565b613e54828461463a565b613e5f90600a6149af565b613e4390856146f2565b6000613ebe826040518060400160405280602081526020017f5361666545524332303a206c6f772d6c6576656c2063616c6c206661696c6564815250856001600160a01b0316613faf9092919063ffffffff16565b805190915015612ff05780806020019051810190613edc9190614737565b612ff05760405162461bcd60e51b815260206004820152602a60248201527f5361666545524332303a204552433230206f7065726174696f6e20646964206e6044820152691bdd081cdd58d8d9595960b21b6064820152608401610dc1565b600061010b5482613f4c91906149bb565b613f56908361463a565b9050801561370a5761012c60009054906101000a90046001600160a01b03166001600160a01b0316639f893188826040518263ffffffff1660e01b81526004016000604051808303818588803b15801561366357600080fd5b60606130f28484600085856001600160a01b0385163b6140115760405162461bcd60e51b815260206004820152601d60248201527f416464726573733a2063616c6c20746f206e6f6e2d636f6e74726163740000006044820152606401610dc1565b600080866001600160a01b0316858760405161402d9190614993565b60006040518083038185875af1925050503d806000811461406a576040519150601f19603f3d011682016040523d82523d6000602084013e61406f565b606091505b509150915061407f82828661408a565b979650505050505050565b60608315614099575081610deb565b8251156140a95782518084602001fd5b8160405162461bcd60e51b8152600401610dc1919061417f565b8280546140cf90614598565b90600052602060002090601f0160209004810192826140f15760008555614137565b82601f1061410a57805160ff1916838001178555614137565b82800160010185558215614137579182015b8281111561413757825182559160200191906001019061411c565b506132519291505b80821115613251576000815560010161413f565b60005b8381101561416e578181015183820152602001614156565b8381111561211e5750506000910152565b602081526000825180602084015261419e816040850160208701614153565b601f01601f19169190910160400192915050565b80356001600160a01b038116811461370a57600080fd5b600080604083850312156141dc57600080fd5b6141e5836141b2565b946020939093013593505050565b60008060006060848603121561420857600080fd5b614211846141b2565b925061421f602085016141b2565b9150604084013590509250925092565b6000806000806080858703121561424557600080fd5b5050823594602084013594506040840135936060013592509050565b60006020828403121561427357600080fd5b5035919050565b60006020828403121561428c57600080fd5b610deb826141b2565b600080604083850312156142a857600080fd5b50508035926020909101359150565b6000806000606084860312156142cc57600080fd5b6142d5846141b2565b92506142e3602085016141b2565b91506142f1604085016141b2565b90509250925092565b634e487b7160e01b600052604160045260246000fd5b604051601f8201601f1916810167ffffffffffffffff81118282101715614339576143396142fa565b604052919050565b600082601f83011261435257600080fd5b813567ffffffffffffffff81111561436c5761436c6142fa565b61437f601f8201601f1916602001614310565b81815284602083860101111561439457600080fd5b816020850160208301376000918101602001919091529392505050565b600080600080600080600060e0888a0312156143cc57600080fd5b873567ffffffffffffffff808211156143e457600080fd5b6143f08b838c01614341565b985060208a013591508082111561440657600080fd5b506144138a828b01614341565b965050614422604089016141b2565b9450614430606089016141b2565b935061443e608089016141b2565b925061444c60a089016141b2565b915061445a60c089016141b2565b905092959891949750929550565b6000806040838503121561447b57600080fd5b614484836141b2565b9150614492602084016141b2565b90509250929050565b600060208083850312156144ae57600080fd5b823567ffffffffffffffff808211156144c657600080fd5b818501915085601f8301126144da57600080fd5b8135818111156144ec576144ec6142fa565b8060051b91506144fd848301614310565b818152918301840191848101908884111561451757600080fd5b938501935b838510156145355784358252938501939085019061451c565b98975050505050505050565b6000606082018583526020858185015260606040850152818551808452608086019150828701935060005b8181101561458a57845115158352938301939183019160010161456c565b509098975050505050505050565b600181811c908216806145ac57607f821691505b6020821081141561367c57634e487b7160e01b600052602260045260246000fd5b60208082526013908201527227b7363c9037bbb732b91037b91030b236b4b760691b604082015260600190565b60208082526010908201526f14185d5cd8589b194e881c185d5cd95960821b604082015260600190565b634e487b7160e01b600052601160045260246000fd5b60008282101561464c5761464c614624565b500390565b6020808252818101527f4f776e61626c653a2063616c6c6572206973206e6f7420746865206f776e6572604082015260600190565b6020808252601f908201527f5265656e7472616e637947756172643a207265656e7472616e742063616c6c00604082015260600190565b60008160001904831182151516156146d7576146d7614624565b500290565b634e487b7160e01b600052601260045260246000fd5b600082614701576147016146dc565b500490565b6000821982111561471957614719614624565b500190565b60006020828403121561473057600080fd5b5051919050565b60006020828403121561474957600080fd5b81518015158114610deb57600080fd5b60208082526014908201527314185d5cd8589b194e881b9bdd081c185d5cd95960621b604082015260600190565b805160ff8116811461370a57600080fd5b6000602082840312156147aa57600080fd5b610deb82614787565b600181815b808511156147ee5781600019048211156147d4576147d4614624565b808516156147e157918102915b93841c93908002906147b8565b509250929050565b60008261480557506001610d7c565b8161481257506000610d7c565b816001811461482857600281146148325761484e565b6001915050610d7c565b60ff84111561484357614843614624565b50506001821b610d7c565b5060208310610133831016604e8410600b8410161715614871575081810a610d7c565b61487b83836147b3565b806000190482111561488f5761488f614624565b029392505050565b6000610deb60ff8416836147f6565b634e487b7160e01b600052603260045260246000fd5b60006000198214156148d0576148d0614624565b5060010190565b600080604083850312156148ea57600080fd5b8251915061449260208401614787565b6020808252602e908201527f496e697469616c697a61626c653a20636f6e747261637420697320616c72656160408201526d191e481a5b9a5d1a585b1a5e995960921b606082015260800190565b6020808252602b908201527f496e697469616c697a61626c653a20636f6e7472616374206973206e6f74206960408201526a6e697469616c697a696e6760a81b606082015260800190565b600082516149a5818460208701614153565b9190910192915050565b6000610deb83836147f6565b6000826149ca576149ca6146dc565b50069056fea264697066735822122092a0733c0cf039e1f90844f8c93928b14f87bc82f7ac64ba1d83ff1ed9d9bbca64736f6c63430008090033",
  "devdoc": {
    "kind": "dev",
    "methods": {
      "allowance(address,address)": {
        "details": "See {IERC20-allowance}."
      },
      "approve(address,uint256)": {
        "details": "See {IERC20-approve}. NOTE: If `amount` is the maximum `uint256`, the allowance is not updated on `transferFrom`. This is semantically equivalent to an infinite approval. Requirements: - `spender` cannot be the zero address."
      },
      "balanceOf(address)": {
        "details": "See {IERC20-balanceOf}."
      },
      "claim(uint256)": {
        "details": "claim token with NFT token",
        "returns": {
          "_amount": "is the amount of claimed token."
        }
      },
      "claimMulti(uint256[])": {
        "details": "claim token with NFT tokens",
        "returns": {
          "_amount": "is the amount of claimed token.",
          "_claimed": "is the flag indicating whether the token is claimed.",
          "_claimedCount": "is the count of reqIds that are claimed."
        }
      },
      "claimUnbonded()": {
        "details": "claim the unbonded tokens from the staking pool. It's called by admin."
      },
      "collectProfitAndUpdateWatermark()": {
        "details": "collect profit and update the watermark"
      },
      "decimals()": {
        "details": "Returns the number of decimals used to get its user representation. For example, if `decimals` equals `2`, a balance of `505` tokens should be displayed to a user as `5.05` (`505 / 10 ** 2`). Tokens usually opt for a value of 18, imitating the relationship between Ether and Wei. This is the value {ERC20} uses, unless this function is overridden; NOTE: This information is only used for _display_ purposes: it in no way affects any of the arithmetic of the contract, including {IERC20-balanceOf} and {IERC20-transfer}."
      },
      "decreaseAllowance(address,uint256)": {
        "details": "Atomically decreases the allowance granted to `spender` by the caller. This is an alternative to {approve} that can be used as a mitigation for problems described in {IERC20-approve}. Emits an {Approval} event indicating the updated allowance. Requirements: - `spender` cannot be the zero address. - `spender` must have allowance for the caller of at least `subtractedValue`."
      },
      "deposit(uint256)": {
        "details": "deposit `_amount` of token."
      },
      "depositETH()": {
        "details": "deposit the native asset."
      },
      "emergencyPendingRedeems()": {
        "details": "the total amount of emergency withdrawal stToken that is not yet requested to the staking pool."
      },
      "emergencyRedeem()": {
        "details": "In emergency mode, redeem the rest of stTokens. Especially it's needed for stNEAR because the MetaPool has a buffer limit."
      },
      "getAPR()": {
        "returns": {
          "_0": "the APR in the vault. It's scaled by 1e18."
        }
      },
      "getAllPool()": {
        "details": "it doesn't include the unbonding stTokens according to the burnt shares."
      },
      "getAllPoolInUSD()": {
        "returns": {
          "_0": "the total USD value of tokens in the vault."
        }
      },
      "getPoolByShares(uint256)": {
        "returns": {
          "_0": "the amount of token that corresponds to `_shares` of shares."
        }
      },
      "getPooledTokenByStToken(uint256)": {
        "params": {
          "_stAmount": "Amount of stTokens"
        }
      },
      "getSharesByPool(uint256)": {
        "returns": {
          "_0": "the amount of shares that corresponds to `_amount` of token."
        }
      },
      "getStTokenByPooledToken(uint256)": {
        "params": {
          "_amount": "Amount of tokens"
        }
      },
      "getTokenUnbonded()": {
        "returns": {
          "_0": "the unbonded token amount that is claimable from the staking pool."
        }
      },
      "getWithdrawRequest(uint256)": {
        "returns": {
          "_claimable": "specifys whether user can claim tokens for it.",
          "_requestTs": "is timestmap when withdrawal requested.",
          "_stTokenAmt": "is amount of stToken to redeem.",
          "_tokenAmt": "is amount of token to claim.",
          "_waitForTs": "is timestamp to wait for."
        }
      },
      "increaseAllowance(address,uint256)": {
        "details": "Atomically increases the allowance granted to `spender` by the caller. This is an alternative to {approve} that can be used as a mitigation for problems described in {IERC20-approve}. Emits an {Approval} event indicating the updated allowance. Requirements: - `spender` cannot be the zero address."
      },
      "invest()": {
        "details": "stake the buffered deposits into the staking pool. It's called by admin."
      },
      "name()": {
        "details": "Returns the name of the token."
      },
      "owner()": {
        "details": "Returns the address of the current owner."
      },
      "paused()": {
        "details": "Returns true if the contract is paused, and false otherwise."
      },
      "redeem()": {
        "details": "redeem the requested withdrawals from the staking pool. It's called by admin."
      },
      "renounceOwnership()": {
        "details": "Leaves the contract without owner. It will not be possible to call `onlyOwner` functions anymore. Can only be called by the current owner. NOTE: Renouncing ownership will leave the contract without an owner, thereby removing any functionality that is only available to the owner."
      },
      "setFee(uint256)": {
        "params": {
          "_yieldFeePerc": "deposit fee percentage. 2000 for 20%"
        }
      },
      "symbol()": {
        "details": "Returns the symbol of the token, usually a shorter version of the name."
      },
      "totalSupply()": {
        "details": "See {IERC20-totalSupply}."
      },
      "transfer(address,uint256)": {
        "details": "See {IERC20-transfer}. Requirements: - `to` cannot be the zero address. - the caller must have a balance of at least `amount`."
      },
      "transferFrom(address,address,uint256)": {
        "details": "See {IERC20-transferFrom}. Emits an {Approval} event indicating the updated allowance. This is not required by the EIP. See the note at the beginning of {ERC20}. NOTE: Does not update the allowance if the current allowance is the maximum `uint256`. Requirements: - `from` and `to` cannot be the zero address. - `from` must have a balance of at least `amount`. - the caller must have allowance for ``from``'s tokens of at least `amount`."
      },
      "transferOwnership(address)": {
        "details": "Transfers ownership of the contract to a new account (`newOwner`). Can only be called by the current owner."
      },
      "withdraw(uint256)": {
        "details": "request a withdrawal that corresponds to `_shares` of shares.",
        "returns": {
          "_amount": "is the amount of withdrawn token.",
          "_reqId": "is the NFT token id indicating the request for rest of withdrawal. 0 if no request is made."
        }
      },
      "withdrawFees()": {
        "details": "transfer out fees."
      },
      "yield()": {
        "details": "take rewards and reinvest them. It's called by admin."
      }
    },
    "version": 1
  },
  "userdoc": {
    "kind": "user",
    "methods": {
      "emergencyWithdraw()": {
        "notice": "Withdraws funds staked in mirror to this vault and pauses deposit, yield, invest functions"
      },
      "getPendingRewards()": {
        "notice": "Returns the pending rewards in USD."
      },
      "reinvest()": {
        "notice": "Unpauses deposit, yield, invest functions, and invests funds."
      },
      "setFee(uint256)": {
        "notice": "Function to set deposit and yield fee"
      }
    },
    "version": 1
  },
  "storageLayout": {
    "storage": [
      {
        "astId": 713,
        "contract": "contracts/stVaults/ankr/AvaxStAVAXVaultTest.sol:AvaxStAVAXVaultTest",
        "label": "_initialized",
        "offset": 0,
        "slot": "0",
        "type": "t_uint8"
      },
      {
        "astId": 716,
        "contract": "contracts/stVaults/ankr/AvaxStAVAXVaultTest.sol:AvaxStAVAXVaultTest",
        "label": "_initializing",
        "offset": 1,
        "slot": "0",
        "type": "t_bool"
      },
      {
        "astId": 3292,
        "contract": "contracts/stVaults/ankr/AvaxStAVAXVaultTest.sol:AvaxStAVAXVaultTest",
        "label": "__gap",
        "offset": 0,
        "slot": "1",
        "type": "t_array(t_uint256)50_storage"
      },
      {
        "astId": 1037,
        "contract": "contracts/stVaults/ankr/AvaxStAVAXVaultTest.sol:AvaxStAVAXVaultTest",
        "label": "_balances",
        "offset": 0,
        "slot": "51",
        "type": "t_mapping(t_address,t_uint256)"
      },
      {
        "astId": 1043,
        "contract": "contracts/stVaults/ankr/AvaxStAVAXVaultTest.sol:AvaxStAVAXVaultTest",
        "label": "_allowances",
        "offset": 0,
        "slot": "52",
        "type": "t_mapping(t_address,t_mapping(t_address,t_uint256))"
      },
      {
        "astId": 1045,
        "contract": "contracts/stVaults/ankr/AvaxStAVAXVaultTest.sol:AvaxStAVAXVaultTest",
        "label": "_totalSupply",
        "offset": 0,
        "slot": "53",
        "type": "t_uint256"
      },
      {
        "astId": 1047,
        "contract": "contracts/stVaults/ankr/AvaxStAVAXVaultTest.sol:AvaxStAVAXVaultTest",
        "label": "_name",
        "offset": 0,
        "slot": "54",
        "type": "t_string_storage"
      },
      {
        "astId": 1049,
        "contract": "contracts/stVaults/ankr/AvaxStAVAXVaultTest.sol:AvaxStAVAXVaultTest",
        "label": "_symbol",
        "offset": 0,
        "slot": "55",
        "type": "t_string_storage"
      },
      {
        "astId": 1628,
        "contract": "contracts/stVaults/ankr/AvaxStAVAXVaultTest.sol:AvaxStAVAXVaultTest",
        "label": "__gap",
        "offset": 0,
        "slot": "56",
        "type": "t_array(t_uint256)45_storage"
      },
      {
        "astId": 869,
        "contract": "contracts/stVaults/ankr/AvaxStAVAXVaultTest.sol:AvaxStAVAXVaultTest",
        "label": "_paused",
        "offset": 0,
        "slot": "101",
        "type": "t_bool"
      },
      {
        "astId": 958,
        "contract": "contracts/stVaults/ankr/AvaxStAVAXVaultTest.sol:AvaxStAVAXVaultTest",
        "label": "__gap",
        "offset": 0,
        "slot": "102",
        "type": "t_array(t_uint256)49_storage"
      },
      {
        "astId": 973,
        "contract": "contracts/stVaults/ankr/AvaxStAVAXVaultTest.sol:AvaxStAVAXVaultTest",
        "label": "_status",
        "offset": 0,
        "slot": "151",
        "type": "t_uint256"
      },
      {
        "astId": 1017,
        "contract": "contracts/stVaults/ankr/AvaxStAVAXVaultTest.sol:AvaxStAVAXVaultTest",
        "label": "__gap",
        "offset": 0,
        "slot": "152",
        "type": "t_array(t_uint256)49_storage"
      },
      {
        "astId": 593,
        "contract": "contracts/stVaults/ankr/AvaxStAVAXVaultTest.sol:AvaxStAVAXVaultTest",
        "label": "_owner",
        "offset": 0,
        "slot": "201",
        "type": "t_address"
      },
      {
        "astId": 705,
        "contract": "contracts/stVaults/ankr/AvaxStAVAXVaultTest.sol:AvaxStAVAXVaultTest",
        "label": "__gap",
        "offset": 0,
        "slot": "202",
        "type": "t_array(t_uint256)49_storage"
      },
      {
        "astId": 37477,
        "contract": "contracts/stVaults/ankr/AvaxStAVAXVaultTest.sol:AvaxStAVAXVaultTest",
        "label": "yieldFee",
        "offset": 0,
        "slot": "251",
        "type": "t_uint256"
      },
      {
        "astId": 37479,
        "contract": "contracts/stVaults/ankr/AvaxStAVAXVaultTest.sol:AvaxStAVAXVaultTest",
        "label": "watermark",
        "offset": 0,
        "slot": "252",
        "type": "t_uint256"
      },
      {
        "astId": 37481,
        "contract": "contracts/stVaults/ankr/AvaxStAVAXVaultTest.sol:AvaxStAVAXVaultTest",
        "label": "fees",
        "offset": 0,
        "slot": "253",
        "type": "t_uint256"
      },
      {
        "astId": 37483,
        "contract": "contracts/stVaults/ankr/AvaxStAVAXVaultTest.sol:AvaxStAVAXVaultTest",
        "label": "treasuryWallet",
        "offset": 0,
        "slot": "254",
        "type": "t_address"
      },
      {
        "astId": 37485,
        "contract": "contracts/stVaults/ankr/AvaxStAVAXVaultTest.sol:AvaxStAVAXVaultTest",
        "label": "admin",
        "offset": 0,
        "slot": "255",
        "type": "t_address"
      },
      {
        "astId": 37488,
        "contract": "contracts/stVaults/ankr/AvaxStAVAXVaultTest.sol:AvaxStAVAXVaultTest",
        "label": "priceOracle",
        "offset": 0,
        "slot": "256",
        "type": "t_contract(IPriceOracle)11910"
      },
      {
        "astId": 37491,
        "contract": "contracts/stVaults/ankr/AvaxStAVAXVaultTest.sol:AvaxStAVAXVaultTest",
        "label": "nft",
        "offset": 0,
        "slot": "257",
        "type": "t_contract(IStVaultNFT)65066"
      },
      {
        "astId": 37494,
        "contract": "contracts/stVaults/ankr/AvaxStAVAXVaultTest.sol:AvaxStAVAXVaultTest",
        "label": "token",
        "offset": 0,
        "slot": "258",
        "type": "t_contract(IERC20Upgradeable)1707"
      },
      {
        "astId": 37497,
        "contract": "contracts/stVaults/ankr/AvaxStAVAXVaultTest.sol:AvaxStAVAXVaultTest",
        "label": "stToken",
        "offset": 0,
        "slot": "259",
        "type": "t_contract(IERC20Upgradeable)1707"
      },
      {
        "astId": 37499,
        "contract": "contracts/stVaults/ankr/AvaxStAVAXVaultTest.sol:AvaxStAVAXVaultTest",
        "label": "tokenDecimals",
        "offset": 20,
        "slot": "259",
        "type": "t_uint8"
      },
      {
        "astId": 37501,
        "contract": "contracts/stVaults/ankr/AvaxStAVAXVaultTest.sol:AvaxStAVAXVaultTest",
        "label": "stTokenDecimals",
        "offset": 21,
        "slot": "259",
        "type": "t_uint8"
      },
      {
        "astId": 37503,
        "contract": "contracts/stVaults/ankr/AvaxStAVAXVaultTest.sol:AvaxStAVAXVaultTest",
        "label": "oneToken",
        "offset": 0,
        "slot": "260",
        "type": "t_uint256"
      },
      {
        "astId": 37505,
        "contract": "contracts/stVaults/ankr/AvaxStAVAXVaultTest.sol:AvaxStAVAXVaultTest",
        "label": "oneStToken",
        "offset": 0,
        "slot": "261",
        "type": "t_uint256"
      },
      {
        "astId": 37507,
        "contract": "contracts/stVaults/ankr/AvaxStAVAXVaultTest.sol:AvaxStAVAXVaultTest",
        "label": "bufferedDeposits",
        "offset": 0,
        "slot": "262",
        "type": "t_uint256"
      },
      {
        "astId": 37509,
        "contract": "contracts/stVaults/ankr/AvaxStAVAXVaultTest.sol:AvaxStAVAXVaultTest",
        "label": "pendingWithdrawals",
        "offset": 0,
        "slot": "263",
        "type": "t_uint256"
      },
      {
        "astId": 37511,
        "contract": "contracts/stVaults/ankr/AvaxStAVAXVaultTest.sol:AvaxStAVAXVaultTest",
        "label": "pendingRedeems",
        "offset": 0,
        "slot": "264",
        "type": "t_uint256"
      },
      {
        "astId": 37513,
        "contract": "contracts/stVaults/ankr/AvaxStAVAXVaultTest.sol:AvaxStAVAXVaultTest",
        "label": "emergencyUnbondings",
        "offset": 0,
        "slot": "265",
        "type": "t_uint256"
      },
      {
        "astId": 37515,
        "contract": "contracts/stVaults/ankr/AvaxStAVAXVaultTest.sol:AvaxStAVAXVaultTest",
        "label": "unbondingPeriod",
        "offset": 0,
        "slot": "266",
        "type": "t_uint256"
      },
      {
        "astId": 37517,
        "contract": "contracts/stVaults/ankr/AvaxStAVAXVaultTest.sol:AvaxStAVAXVaultTest",
        "label": "minInvestAmount",
        "offset": 0,
        "slot": "267",
        "type": "t_uint256"
      },
      {
        "astId": 37519,
        "contract": "contracts/stVaults/ankr/AvaxStAVAXVaultTest.sol:AvaxStAVAXVaultTest",
        "label": "minRedeemAmount",
        "offset": 0,
        "slot": "268",
        "type": "t_uint256"
      },
      {
        "astId": 37521,
        "contract": "contracts/stVaults/ankr/AvaxStAVAXVaultTest.sol:AvaxStAVAXVaultTest",
        "label": "lastInvestTs",
        "offset": 0,
        "slot": "269",
        "type": "t_uint256"
      },
      {
        "astId": 37523,
        "contract": "contracts/stVaults/ankr/AvaxStAVAXVaultTest.sol:AvaxStAVAXVaultTest",
        "label": "investInterval",
        "offset": 0,
        "slot": "270",
        "type": "t_uint256"
      },
      {
        "astId": 37525,
        "contract": "contracts/stVaults/ankr/AvaxStAVAXVaultTest.sol:AvaxStAVAXVaultTest",
        "label": "lastRedeemTs",
        "offset": 0,
        "slot": "271",
        "type": "t_uint256"
      },
      {
        "astId": 37527,
        "contract": "contracts/stVaults/ankr/AvaxStAVAXVaultTest.sol:AvaxStAVAXVaultTest",
        "label": "redeemInterval",
        "offset": 0,
        "slot": "272",
        "type": "t_uint256"
      },
      {
        "astId": 37529,
        "contract": "contracts/stVaults/ankr/AvaxStAVAXVaultTest.sol:AvaxStAVAXVaultTest",
        "label": "lastCollectProfitTs",
        "offset": 0,
        "slot": "273",
        "type": "t_uint256"
      },
      {
        "astId": 37531,
        "contract": "contracts/stVaults/ankr/AvaxStAVAXVaultTest.sol:AvaxStAVAXVaultTest",
        "label": "oneEpoch",
        "offset": 0,
        "slot": "274",
        "type": "t_uint256"
      },
      {
        "astId": 37535,
        "contract": "contracts/stVaults/ankr/AvaxStAVAXVaultTest.sol:AvaxStAVAXVaultTest",
        "label": "depositedBlock",
        "offset": 0,
        "slot": "275",
        "type": "t_mapping(t_address,t_uint256)"
      },
      {
        "astId": 37540,
        "contract": "contracts/stVaults/ankr/AvaxStAVAXVaultTest.sol:AvaxStAVAXVaultTest",
        "label": "nft2WithdrawRequest",
        "offset": 0,
        "slot": "276",
        "type": "t_mapping(t_uint256,t_struct(WithdrawRequest)64768_storage)"
      },
      {
        "astId": 37542,
        "contract": "contracts/stVaults/ankr/AvaxStAVAXVaultTest.sol:AvaxStAVAXVaultTest",
        "label": "baseApr",
        "offset": 0,
        "slot": "277",
        "type": "t_uint256"
      },
      {
        "astId": 37544,
        "contract": "contracts/stVaults/ankr/AvaxStAVAXVaultTest.sol:AvaxStAVAXVaultTest",
        "label": "baseTokenRate",
        "offset": 0,
        "slot": "278",
        "type": "t_uint256"
      },
      {
        "astId": 37546,
        "contract": "contracts/stVaults/ankr/AvaxStAVAXVaultTest.sol:AvaxStAVAXVaultTest",
        "label": "baseAprLastUpdate",
        "offset": 0,
        "slot": "279",
        "type": "t_uint256"
      },
      {
        "astId": 39638,
        "contract": "contracts/stVaults/ankr/AvaxStAVAXVaultTest.sol:AvaxStAVAXVaultTest",
        "label": "__gap",
        "offset": 0,
        "slot": "280",
        "type": "t_array(t_uint256)20_storage"
      },
      {
        "astId": 41349,
        "contract": "contracts/stVaults/ankr/AvaxStAVAXVaultTest.sol:AvaxStAVAXVaultTest",
        "label": "avalanchePool",
        "offset": 0,
        "slot": "300",
        "type": "t_contract(IAvalanchePool)41327"
      }
    ],
    "types": {
      "t_address": {
        "encoding": "inplace",
        "label": "address",
        "numberOfBytes": "20"
      },
      "t_array(t_uint256)20_storage": {
        "base": "t_uint256",
        "encoding": "inplace",
        "label": "uint256[20]",
        "numberOfBytes": "640"
      },
      "t_array(t_uint256)45_storage": {
        "base": "t_uint256",
        "encoding": "inplace",
        "label": "uint256[45]",
        "numberOfBytes": "1440"
      },
      "t_array(t_uint256)49_storage": {
        "base": "t_uint256",
        "encoding": "inplace",
        "label": "uint256[49]",
        "numberOfBytes": "1568"
      },
      "t_array(t_uint256)50_storage": {
        "base": "t_uint256",
        "encoding": "inplace",
        "label": "uint256[50]",
        "numberOfBytes": "1600"
      },
      "t_bool": {
        "encoding": "inplace",
        "label": "bool",
        "numberOfBytes": "1"
      },
      "t_contract(IAvalanchePool)41327": {
        "encoding": "inplace",
        "label": "contract IAvalanchePool",
        "numberOfBytes": "20"
      },
      "t_contract(IERC20Upgradeable)1707": {
        "encoding": "inplace",
        "label": "contract IERC20Upgradeable",
        "numberOfBytes": "20"
      },
      "t_contract(IPriceOracle)11910": {
        "encoding": "inplace",
        "label": "contract IPriceOracle",
        "numberOfBytes": "20"
      },
      "t_contract(IStVaultNFT)65066": {
        "encoding": "inplace",
        "label": "contract IStVaultNFT",
        "numberOfBytes": "20"
      },
      "t_mapping(t_address,t_mapping(t_address,t_uint256))": {
        "encoding": "mapping",
        "key": "t_address",
        "label": "mapping(address => mapping(address => uint256))",
        "numberOfBytes": "32",
        "value": "t_mapping(t_address,t_uint256)"
      },
      "t_mapping(t_address,t_uint256)": {
        "encoding": "mapping",
        "key": "t_address",
        "label": "mapping(address => uint256)",
        "numberOfBytes": "32",
        "value": "t_uint256"
      },
      "t_mapping(t_uint256,t_struct(WithdrawRequest)64768_storage)": {
        "encoding": "mapping",
        "key": "t_uint256",
        "label": "mapping(uint256 => struct IStVault.WithdrawRequest)",
        "numberOfBytes": "32",
        "value": "t_struct(WithdrawRequest)64768_storage"
      },
      "t_string_storage": {
        "encoding": "bytes",
        "label": "string",
        "numberOfBytes": "32"
      },
      "t_struct(WithdrawRequest)64768_storage": {
        "encoding": "inplace",
        "label": "struct IStVault.WithdrawRequest",
        "members": [
          {
            "astId": 64763,
            "contract": "contracts/stVaults/ankr/AvaxStAVAXVaultTest.sol:AvaxStAVAXVaultTest",
            "label": "tokenAmt",
            "offset": 0,
            "slot": "0",
            "type": "t_uint256"
          },
          {
            "astId": 64765,
            "contract": "contracts/stVaults/ankr/AvaxStAVAXVaultTest.sol:AvaxStAVAXVaultTest",
            "label": "stTokenAmt",
            "offset": 0,
            "slot": "1",
            "type": "t_uint256"
          },
          {
            "astId": 64767,
            "contract": "contracts/stVaults/ankr/AvaxStAVAXVaultTest.sol:AvaxStAVAXVaultTest",
            "label": "requestTs",
            "offset": 0,
            "slot": "2",
            "type": "t_uint256"
          }
        ],
        "numberOfBytes": "96"
      },
      "t_uint256": {
        "encoding": "inplace",
        "label": "uint256",
        "numberOfBytes": "32"
      },
      "t_uint8": {
        "encoding": "inplace",
        "label": "uint8",
        "numberOfBytes": "1"
      }
    }
  }
}