{
  "address": "0xDFF0F1F6CBE25BFbf43d0646cA4D0a8699D63De2",
  "abi": [
    {
      "anonymous": false,
      "inputs": [
        {
          "indexed": false,
          "internalType": "uint8",
          "name": "version",
          "type": "uint8"
        }
      ],
      "name": "Initialized",
      "type": "event"
    },
    {
      "anonymous": false,
      "inputs": [
        {
          "indexed": true,
          "internalType": "address",
          "name": "previousOwner",
          "type": "address"
        },
        {
          "indexed": true,
          "internalType": "address",
          "name": "newOwner",
          "type": "address"
        }
      ],
      "name": "OwnershipTransferred",
      "type": "event"
    },
    {
      "inputs": [
        {
          "internalType": "address",
          "name": "asset",
          "type": "address"
        }
      ],
      "name": "getAssetPrice",
      "outputs": [
        {
          "internalType": "uint256",
          "name": "price",
          "type": "uint256"
        },
        {
          "internalType": "uint8",
          "name": "decimals",
          "type": "uint8"
        }
      ],
      "stateMutability": "view",
      "type": "function"
    },
    {
      "inputs": [
        {
          "internalType": "address[]",
          "name": "assets",
          "type": "address[]"
        }
      ],
      "name": "getAssetsPrices",
      "outputs": [
        {
          "internalType": "uint256[]",
          "name": "prices",
          "type": "uint256[]"
        },
        {
          "internalType": "uint8[]",
          "name": "decimalsArray",
          "type": "uint8[]"
        }
      ],
      "stateMutability": "view",
      "type": "function"
    },
    {
      "inputs": [
        {
          "internalType": "address",
          "name": "asset",
          "type": "address"
        }
      ],
      "name": "getSourceOfAsset",
      "outputs": [
        {
          "internalType": "address",
          "name": "",
          "type": "address"
        }
      ],
      "stateMutability": "view",
      "type": "function"
    },
    {
      "inputs": [],
      "name": "initialize",
      "outputs": [],
      "stateMutability": "nonpayable",
      "type": "function"
    },
    {
      "inputs": [],
      "name": "owner",
      "outputs": [
        {
          "internalType": "address",
          "name": "",
          "type": "address"
        }
      ],
      "stateMutability": "view",
      "type": "function"
    },
    {
      "inputs": [],
      "name": "renounceOwnership",
      "outputs": [],
      "stateMutability": "nonpayable",
      "type": "function"
    },
    {
      "inputs": [
        {
          "internalType": "address[]",
          "name": "assets",
          "type": "address[]"
        },
        {
          "internalType": "address[]",
          "name": "sources",
          "type": "address[]"
        }
      ],
      "name": "setAssetSources",
      "outputs": [],
      "stateMutability": "nonpayable",
      "type": "function"
    },
    {
      "inputs": [
        {
          "internalType": "address",
          "name": "newOwner",
          "type": "address"
        }
      ],
      "name": "transferOwnership",
      "outputs": [],
      "stateMutability": "nonpayable",
      "type": "function"
    }
  ],
  "transactionHash": "0x0d94513b9cbb15561d75f21b674c7faa7ab713805e99312457c83a719aeb096c",
  "args": [],
  "numDeployments": 2,
  "solcInputHash": "444ef7aa19f358e4e1927861efcbcac1",
  "bytecode": "0x608060405234801561001057600080fd5b50610cab806100206000396000f3fe608060405234801561001057600080fd5b50600436106100885760003560e01c80639d23d9f21161005b5780639d23d9f2146100f5578063abfd531014610116578063b3596f0714610129578063f2fde38b1461015357600080fd5b8063715018a61461008d5780638129fc1c146100975780638da5cb5b1461009f57806392bf2be0146100c9575b600080fd5b610095610166565b005b6100956101a5565b6033546001600160a01b03165b6040516001600160a01b0390911681526020015b60405180910390f35b6100ac6100d7366004610933565b6001600160a01b039081166000908152606560205260409020541690565b610108610103366004610a0d565b610383565b6040516100c0929190610a4a565b610095610124366004610ac8565b6104aa565b61013c610137366004610933565b6105bf565b6040805192835260ff9091166020830152016100c0565b610095610161366004610933565b6106e1565b6033546001600160a01b031633146101995760405162461bcd60e51b815260040161019090610b2c565b60405180910390fd5b6101a36000610775565b565b60006101b160016107c7565b905080156101c9576000805461ff0019166101001790555b6101d1610854565b60408051600280825260608201835260009260208301908036833701905050905073c7198437980c041c805a1edcba50c1ce5db951188160008151811061021a5761021a610b61565b60200260200101906001600160a01b031690816001600160a01b03168152505073b31f66aa3c1e785363f0875a1b74e27b85fd66c78160018151811061026257610262610b61565b6001600160a01b0392909216602092830291909101820152604080516002808252606082018352600093919290918301908036833701905050905073ebe676ee90fe1112671f19b6b7459bc678b67e8a816000815181106102c5576102c5610b61565b60200260200101906001600160a01b031690816001600160a01b031681525050730a77230d17318075983913bc2145db16c73661568160018151811061030d5761030d610b61565b60200260200101906001600160a01b031690816001600160a01b03168152505061033782826104aa565b50508015610380576000805461ff0019169055604051600181527f7f26b83ff96e1f2b6a682f133852f6798a09c465da95921460cefb3847402498906020015b60405180910390a15b50565b805160609081908067ffffffffffffffff8111156103a3576103a3610955565b6040519080825280602002602001820160405280156103cc578160200160208202803683370190505b5092508067ffffffffffffffff8111156103e8576103e8610955565b604051908082528060200260200182016040528015610411578160200160208202803683370190505b50915060005b818110156104a35760008061044487848151811061043757610437610b61565b60200260200101516105bf565b915091508186848151811061045b5761045b610b61565b6020026020010181815250508085848151811061047a5761047a610b61565b602002602001019060ff16908160ff16815250505050808061049b90610b77565b915050610417565b5050915091565b6033546001600160a01b031633146104d45760405162461bcd60e51b815260040161019090610b2c565b81518151811461051f5760405162461bcd60e51b815260206004820152601660248201527509cdee840dac2e8c6d040c2e4e4c2f240d8cadccee8d60531b6044820152606401610190565b60005b818110156105b95782818151811061053c5761053c610b61565b60200260200101516065600086848151811061055a5761055a610b61565b60200260200101516001600160a01b03166001600160a01b0316815260200190815260200160002060006101000a8154816001600160a01b0302191690836001600160a01b0316021790555080806105b190610b77565b915050610522565b50505050565b6001600160a01b03808216600090815260656020526040812054909182911680156106db576000816001600160a01b03166350d25bcd6040518163ffffffff1660e01b815260040160206040518083038186803b15801561061f57600080fd5b505afa158015610633573d6000803e3d6000fd5b505050506040513d601f19601f820116820180604052508101906106579190610ba0565b90506000811315610666578093505b816001600160a01b031663313ce5676040518163ffffffff1660e01b815260040160206040518083038186803b15801561069f57600080fd5b505afa1580156106b3573d6000803e3d6000fd5b505050506040513d601f19601f820116820180604052508101906106d79190610bb9565b9250505b50915091565b6033546001600160a01b0316331461070b5760405162461bcd60e51b815260040161019090610b2c565b6001600160a01b0381166107705760405162461bcd60e51b815260206004820152602660248201527f4f776e61626c653a206e6577206f776e657220697320746865207a65726f206160448201526564647265737360d01b6064820152608401610190565b610380815b603380546001600160a01b038381166001600160a01b0319831681179093556040519116919082907f8be0079c531659141344cd1fd0a4f28419497f9722a3daafe3b4186f6b6457e090600090a35050565b60008054610100900460ff161561080e578160ff1660011480156107ea5750303b155b6108065760405162461bcd60e51b815260040161019090610bdc565b506000919050565b60005460ff8084169116106108355760405162461bcd60e51b815260040161019090610bdc565b506000805460ff191660ff92909216919091179055600190565b919050565b600061086060016107c7565b90508015610878576000805461ff0019166101001790555b6108806108c2565b8015610380576000805461ff0019169055604051600181527f7f26b83ff96e1f2b6a682f133852f6798a09c465da95921460cefb384740249890602001610377565b600054610100900460ff166108e95760405162461bcd60e51b815260040161019090610c2a565b6101a3600054610100900460ff166109135760405162461bcd60e51b815260040161019090610c2a565b6101a333610775565b80356001600160a01b038116811461084f57600080fd5b60006020828403121561094557600080fd5b61094e8261091c565b9392505050565b634e487b7160e01b600052604160045260246000fd5b600082601f83011261097c57600080fd5b8135602067ffffffffffffffff8083111561099957610999610955565b8260051b604051601f19603f830116810181811084821117156109be576109be610955565b6040529384528581018301938381019250878511156109dc57600080fd5b83870191505b84821015610a02576109f38261091c565b835291830191908301906109e2565b979650505050505050565b600060208284031215610a1f57600080fd5b813567ffffffffffffffff811115610a3657600080fd5b610a428482850161096b565b949350505050565b604080825283519082018190526000906020906060840190828701845b82811015610a8357815184529284019290840190600101610a67565b5050508381038285015284518082528583019183019060005b81811015610abb57835160ff1683529284019291840191600101610a9c565b5090979650505050505050565b60008060408385031215610adb57600080fd5b823567ffffffffffffffff80821115610af357600080fd5b610aff8683870161096b565b93506020850135915080821115610b1557600080fd5b50610b228582860161096b565b9150509250929050565b6020808252818101527f4f776e61626c653a2063616c6c6572206973206e6f7420746865206f776e6572604082015260600190565b634e487b7160e01b600052603260045260246000fd5b6000600019821415610b9957634e487b7160e01b600052601160045260246000fd5b5060010190565b600060208284031215610bb257600080fd5b5051919050565b600060208284031215610bcb57600080fd5b815160ff8116811461094e57600080fd5b6020808252602e908201527f496e697469616c697a61626c653a20636f6e747261637420697320616c72656160408201526d191e481a5b9a5d1a585b1a5e995960921b606082015260800190565b6020808252602b908201527f496e697469616c697a61626c653a20636f6e7472616374206973206e6f74206960408201526a6e697469616c697a696e6760a81b60608201526080019056fea26469706673582212201c132cd04a623506cce6495dbe355f0bb94d9d5ca5f69cfdcb81524e561ec1f364736f6c63430008090033",
  "devdoc": {
    "kind": "dev",
    "methods": {
      "getAssetPrice(address)": {
        "params": {
          "asset": "The asset address"
        },
        "returns": {
          "price": "The prices of the given assets"
        }
      },
      "getAssetsPrices(address[])": {
        "params": {
          "assets": "The list of assets addresses"
        },
        "returns": {
          "prices": "The prices of the given assets"
        }
      },
      "getSourceOfAsset(address)": {
        "params": {
          "asset": "The address of the asset"
        },
        "returns": {
          "_0": "The address of the source"
        }
      },
      "owner()": {
        "details": "Returns the address of the current owner."
      },
      "renounceOwnership()": {
        "details": "Leaves the contract without owner. It will not be possible to call `onlyOwner` functions anymore. Can only be called by the current owner. NOTE: Renouncing ownership will leave the contract without an owner, thereby removing any functionality that is only available to the owner."
      },
      "setAssetSources(address[],address[])": {
        "params": {
          "assets": "The addresses of the assets",
          "sources": "The addresses of the price sources"
        }
      },
      "transferOwnership(address)": {
        "details": "Transfers ownership of the contract to a new account (`newOwner`). Can only be called by the current owner."
      }
    },
    "version": 1
  },
  "userdoc": {
    "kind": "user",
    "methods": {
      "getAssetPrice(address)": {
        "notice": "Returns a list of prices from a list of assets addresses"
      },
      "getAssetsPrices(address[])": {
        "notice": "Returns a list of prices from a list of assets addresses"
      },
      "getSourceOfAsset(address)": {
        "notice": "Returns the address of the source for an asset address"
      },
      "setAssetSources(address[],address[])": {
        "notice": "Sets or replaces price sources of assets"
      }
    },
    "version": 1
  },
  "storageLayout": {
    "storage": [
      {
        "astId": 130,
        "contract": "contracts/bni/priceOracle/AvaxPriceOracle.sol:AvaxPriceOracle",
        "label": "_initialized",
        "offset": 0,
        "slot": "0",
        "type": "t_uint8"
      },
      {
        "astId": 133,
        "contract": "contracts/bni/priceOracle/AvaxPriceOracle.sol:AvaxPriceOracle",
        "label": "_initializing",
        "offset": 1,
        "slot": "0",
        "type": "t_bool"
      },
      {
        "astId": 1657,
        "contract": "contracts/bni/priceOracle/AvaxPriceOracle.sol:AvaxPriceOracle",
        "label": "__gap",
        "offset": 0,
        "slot": "1",
        "type": "t_array(t_uint256)50_storage"
      },
      {
        "astId": 10,
        "contract": "contracts/bni/priceOracle/AvaxPriceOracle.sol:AvaxPriceOracle",
        "label": "_owner",
        "offset": 0,
        "slot": "51",
        "type": "t_address"
      },
      {
        "astId": 122,
        "contract": "contracts/bni/priceOracle/AvaxPriceOracle.sol:AvaxPriceOracle",
        "label": "__gap",
        "offset": 0,
        "slot": "52",
        "type": "t_array(t_uint256)49_storage"
      },
      {
        "astId": 8797,
        "contract": "contracts/bni/priceOracle/AvaxPriceOracle.sol:AvaxPriceOracle",
        "label": "assetsSources",
        "offset": 0,
        "slot": "101",
        "type": "t_mapping(t_address,t_contract(IChainlinkAggregator)8788)"
      },
      {
        "astId": 8999,
        "contract": "contracts/bni/priceOracle/AvaxPriceOracle.sol:AvaxPriceOracle",
        "label": "__gap",
        "offset": 0,
        "slot": "102",
        "type": "t_array(t_uint256)49_storage"
      }
    ],
    "types": {
      "t_address": {
        "encoding": "inplace",
        "label": "address",
        "numberOfBytes": "20"
      },
      "t_array(t_uint256)49_storage": {
        "base": "t_uint256",
        "encoding": "inplace",
        "label": "uint256[49]",
        "numberOfBytes": "1568"
      },
      "t_array(t_uint256)50_storage": {
        "base": "t_uint256",
        "encoding": "inplace",
        "label": "uint256[50]",
        "numberOfBytes": "1600"
      },
      "t_bool": {
        "encoding": "inplace",
        "label": "bool",
        "numberOfBytes": "1"
      },
      "t_contract(IChainlinkAggregator)8788": {
        "encoding": "inplace",
        "label": "contract IChainlinkAggregator",
        "numberOfBytes": "20"
      },
      "t_mapping(t_address,t_contract(IChainlinkAggregator)8788)": {
        "encoding": "mapping",
        "key": "t_address",
        "label": "mapping(address => contract IChainlinkAggregator)",
        "numberOfBytes": "32",
        "value": "t_contract(IChainlinkAggregator)8788"
      },
      "t_uint256": {
        "encoding": "inplace",
        "label": "uint256",
        "numberOfBytes": "32"
      },
      "t_uint8": {
        "encoding": "inplace",
        "label": "uint8",
        "numberOfBytes": "1"
      }
    }
  }
}