{
  "address": "0x48203cA1d7dF09e05a832D462fd6227f6Ef2Db28",
  "abi": [
    {
      "anonymous": false,
      "inputs": [
        {
          "indexed": false,
          "internalType": "address",
          "name": "token",
          "type": "address"
        },
        {
          "indexed": false,
          "internalType": "uint256",
          "name": "pid",
          "type": "uint256"
        }
      ],
      "name": "AddToken",
      "type": "event"
    },
    {
      "anonymous": false,
      "inputs": [
        {
          "indexed": false,
          "internalType": "address",
          "name": "claimer",
          "type": "address"
        },
        {
          "indexed": false,
          "internalType": "address",
          "name": "token",
          "type": "address"
        },
        {
          "indexed": false,
          "internalType": "uint256",
          "name": "tokenAmt",
          "type": "uint256"
        },
        {
          "indexed": false,
          "internalType": "uint256",
          "name": "USDTAmt",
          "type": "uint256"
        }
      ],
      "name": "Claim",
      "type": "event"
    },
    {
      "anonymous": false,
      "inputs": [
        {
          "indexed": false,
          "internalType": "uint256",
          "name": "USDTAmt",
          "type": "uint256"
        }
      ],
      "name": "EmergencyWithdraw",
      "type": "event"
    },
    {
      "anonymous": false,
      "inputs": [
        {
          "indexed": false,
          "internalType": "uint8",
          "name": "version",
          "type": "uint8"
        }
      ],
      "name": "Initialized",
      "type": "event"
    },
    {
      "anonymous": false,
      "inputs": [
        {
          "indexed": true,
          "internalType": "address",
          "name": "previousOwner",
          "type": "address"
        },
        {
          "indexed": true,
          "internalType": "address",
          "name": "newOwner",
          "type": "address"
        }
      ],
      "name": "OwnershipTransferred",
      "type": "event"
    },
    {
      "anonymous": false,
      "inputs": [
        {
          "indexed": false,
          "internalType": "address",
          "name": "account",
          "type": "address"
        }
      ],
      "name": "Paused",
      "type": "event"
    },
    {
      "anonymous": false,
      "inputs": [
        {
          "indexed": false,
          "internalType": "address",
          "name": "token",
          "type": "address"
        },
        {
          "indexed": false,
          "internalType": "uint256",
          "name": "pid",
          "type": "uint256"
        }
      ],
      "name": "RemoveToken",
      "type": "event"
    },
    {
      "anonymous": false,
      "inputs": [
        {
          "indexed": false,
          "internalType": "address",
          "name": "oldAdmin",
          "type": "address"
        },
        {
          "indexed": false,
          "internalType": "address",
          "name": "newAdmin",
          "type": "address"
        }
      ],
      "name": "SetAdminWallet",
      "type": "event"
    },
    {
      "anonymous": false,
      "inputs": [
        {
          "indexed": false,
          "internalType": "address",
          "name": "oldTreasuryWallet",
          "type": "address"
        },
        {
          "indexed": false,
          "internalType": "address",
          "name": "newTreasuryWallet",
          "type": "address"
        }
      ],
      "name": "SetTreasuryWallet",
      "type": "event"
    },
    {
      "anonymous": false,
      "inputs": [
        {
          "indexed": false,
          "internalType": "address",
          "name": "account",
          "type": "address"
        }
      ],
      "name": "Unpaused",
      "type": "event"
    },
    {
      "anonymous": false,
      "inputs": [
        {
          "indexed": false,
          "internalType": "uint256",
          "name": "sharePerc",
          "type": "uint256"
        },
        {
          "indexed": false,
          "internalType": "uint256",
          "name": "USDTAmt",
          "type": "uint256"
        }
      ],
      "name": "Withdraw",
      "type": "event"
    },
    {
      "inputs": [],
      "name": "AVAXVault",
      "outputs": [
        {
          "internalType": "contract IStVault",
          "name": "",
          "type": "address"
        }
      ],
      "stateMutability": "view",
      "type": "function"
    },
    {
      "inputs": [],
      "name": "SWAP_BASE_TOKEN",
      "outputs": [
        {
          "internalType": "contract IERC20UpgradeableExt",
          "name": "",
          "type": "address"
        }
      ],
      "stateMutability": "view",
      "type": "function"
    },
    {
      "inputs": [],
      "name": "USDT",
      "outputs": [
        {
          "internalType": "contract IERC20UpgradeableExt",
          "name": "",
          "type": "address"
        }
      ],
      "stateMutability": "view",
      "type": "function"
    },
    {
      "inputs": [
        {
          "internalType": "address",
          "name": "_token",
          "type": "address"
        }
      ],
      "name": "addToken",
      "outputs": [],
      "stateMutability": "nonpayable",
      "type": "function"
    },
    {
      "inputs": [],
      "name": "admin",
      "outputs": [
        {
          "internalType": "address",
          "name": "",
          "type": "address"
        }
      ],
      "stateMutability": "view",
      "type": "function"
    },
    {
      "inputs": [
        {
          "internalType": "address",
          "name": "_claimer",
          "type": "address"
        }
      ],
      "name": "claim",
      "outputs": [
        {
          "internalType": "uint256",
          "name": "USDTAmt",
          "type": "uint256"
        }
      ],
      "stateMutability": "nonpayable",
      "type": "function"
    },
    {
      "inputs": [],
      "name": "claimEmergencyWithdrawal",
      "outputs": [],
      "stateMutability": "nonpayable",
      "type": "function"
    },
    {
      "inputs": [
        {
          "internalType": "address",
          "name": "",
          "type": "address"
        },
        {
          "internalType": "address",
          "name": "",
          "type": "address"
        },
        {
          "internalType": "uint256",
          "name": "",
          "type": "uint256"
        }
      ],
      "name": "claimer2ReqIds",
      "outputs": [
        {
          "internalType": "uint256",
          "name": "",
          "type": "uint256"
        }
      ],
      "stateMutability": "view",
      "type": "function"
    },
    {
      "inputs": [],
      "name": "emergencyWithdraw",
      "outputs": [],
      "stateMutability": "nonpayable",
      "type": "function"
    },
    {
      "inputs": [],
      "name": "getAPR",
      "outputs": [
        {
          "internalType": "uint256",
          "name": "",
          "type": "uint256"
        }
      ],
      "stateMutability": "view",
      "type": "function"
    },
    {
      "inputs": [],
      "name": "getAllPoolInUSD",
      "outputs": [
        {
          "internalType": "uint256",
          "name": "",
          "type": "uint256"
        }
      ],
      "stateMutability": "view",
      "type": "function"
    },
    {
      "inputs": [
        {
          "internalType": "address",
          "name": "_claimer",
          "type": "address"
        }
      ],
      "name": "getAllUnbonded",
      "outputs": [
        {
          "internalType": "uint256",
          "name": "waitingInUSD",
          "type": "uint256"
        },
        {
          "internalType": "uint256",
          "name": "unbondedInUSD",
          "type": "uint256"
        },
        {
          "internalType": "uint256",
          "name": "waitForTs",
          "type": "uint256"
        }
      ],
      "stateMutability": "view",
      "type": "function"
    },
    {
      "inputs": [],
      "name": "getCurrentTokenCompositionPerc",
      "outputs": [
        {
          "internalType": "address[]",
          "name": "",
          "type": "address[]"
        },
        {
          "internalType": "uint256[]",
          "name": "percentages",
          "type": "uint256[]"
        }
      ],
      "stateMutability": "view",
      "type": "function"
    },
    {
      "inputs": [],
      "name": "getEachPoolInUSD",
      "outputs": [
        {
          "internalType": "address[]",
          "name": "",
          "type": "address[]"
        },
        {
          "internalType": "uint256[]",
          "name": "pools",
          "type": "uint256[]"
        }
      ],
      "stateMutability": "view",
      "type": "function"
    },
    {
      "inputs": [],
      "name": "getEmergencyWithdrawalUnbonded",
      "outputs": [
        {
          "internalType": "uint256",
          "name": "waitingInUSD",
          "type": "uint256"
        },
        {
          "internalType": "uint256",
          "name": "unbondedInUSD",
          "type": "uint256"
        },
        {
          "internalType": "uint256",
          "name": "waitForTs",
          "type": "uint256"
        }
      ],
      "stateMutability": "view",
      "type": "function"
    },
    {
      "inputs": [],
      "name": "getPoolCount",
      "outputs": [
        {
          "internalType": "uint256",
          "name": "",
          "type": "uint256"
        }
      ],
      "stateMutability": "view",
      "type": "function"
    },
    {
      "inputs": [
        {
          "internalType": "address",
          "name": "_claimer",
          "type": "address"
        },
        {
          "internalType": "uint256",
          "name": "_pid",
          "type": "uint256"
        }
      ],
      "name": "getPoolUnbonded",
      "outputs": [
        {
          "internalType": "uint256",
          "name": "waiting",
          "type": "uint256"
        },
        {
          "internalType": "uint256",
          "name": "waitingInUSD",
          "type": "uint256"
        },
        {
          "internalType": "uint256",
          "name": "unbonded",
          "type": "uint256"
        },
        {
          "internalType": "uint256",
          "name": "unbondedInUSD",
          "type": "uint256"
        },
        {
          "internalType": "uint256",
          "name": "waitForTs",
          "type": "uint256"
        }
      ],
      "stateMutability": "view",
      "type": "function"
    },
    {
      "inputs": [
        {
          "internalType": "address",
          "name": "_claimer",
          "type": "address"
        }
      ],
      "name": "getPoolsUnbonded",
      "outputs": [
        {
          "internalType": "address[]",
          "name": "",
          "type": "address[]"
        },
        {
          "internalType": "uint256[]",
          "name": "waitings",
          "type": "uint256[]"
        },
        {
          "internalType": "uint256[]",
          "name": "waitingInUSDs",
          "type": "uint256[]"
        },
        {
          "internalType": "uint256[]",
          "name": "unbondeds",
          "type": "uint256[]"
        },
        {
          "internalType": "uint256[]",
          "name": "unbondedInUSDs",
          "type": "uint256[]"
        },
        {
          "internalType": "uint256[]",
          "name": "waitForTses",
          "type": "uint256[]"
        }
      ],
      "stateMutability": "view",
      "type": "function"
    },
    {
      "inputs": [],
      "name": "getTokens",
      "outputs": [
        {
          "internalType": "address[]",
          "name": "",
          "type": "address[]"
        }
      ],
      "stateMutability": "view",
      "type": "function"
    },
    {
      "inputs": [],
      "name": "getUSDTPriceInUSD",
      "outputs": [
        {
          "internalType": "uint256",
          "name": "",
          "type": "uint256"
        },
        {
          "internalType": "uint8",
          "name": "",
          "type": "uint8"
        }
      ],
      "stateMutability": "view",
      "type": "function"
    },
    {
      "inputs": [
        {
          "internalType": "address",
          "name": "_admin",
          "type": "address"
        },
        {
          "internalType": "address",
          "name": "_priceOracle",
          "type": "address"
        },
        {
          "internalType": "address",
          "name": "_router",
          "type": "address"
        },
        {
          "internalType": "address",
          "name": "_SWAP_BASE_TOKEN",
          "type": "address"
        },
        {
          "internalType": "address",
          "name": "_USDT",
          "type": "address"
        },
        {
          "internalType": "address",
          "name": "_token0",
          "type": "address"
        }
      ],
      "name": "initialize",
      "outputs": [],
      "stateMutability": "nonpayable",
      "type": "function"
    },
    {
      "inputs": [
        {
          "internalType": "address",
          "name": "_admin",
          "type": "address"
        },
        {
          "internalType": "address",
          "name": "_priceOracle",
          "type": "address"
        },
        {
          "internalType": "contract IStVault",
          "name": "_AVAXVault",
          "type": "address"
        }
      ],
      "name": "initialize1",
      "outputs": [],
      "stateMutability": "nonpayable",
      "type": "function"
    },
    {
      "inputs": [
        {
          "internalType": "address[]",
          "name": "_tokens",
          "type": "address[]"
        },
        {
          "internalType": "uint256[]",
          "name": "_USDTAmts",
          "type": "uint256[]"
        }
      ],
      "name": "invest",
      "outputs": [],
      "stateMutability": "nonpayable",
      "type": "function"
    },
    {
      "inputs": [],
      "name": "owner",
      "outputs": [
        {
          "internalType": "address",
          "name": "",
          "type": "address"
        }
      ],
      "stateMutability": "view",
      "type": "function"
    },
    {
      "inputs": [],
      "name": "paused",
      "outputs": [
        {
          "internalType": "bool",
          "name": "",
          "type": "bool"
        }
      ],
      "stateMutability": "view",
      "type": "function"
    },
    {
      "inputs": [
        {
          "internalType": "address",
          "name": "",
          "type": "address"
        }
      ],
      "name": "pid",
      "outputs": [
        {
          "internalType": "uint256",
          "name": "",
          "type": "uint256"
        }
      ],
      "stateMutability": "view",
      "type": "function"
    },
    {
      "inputs": [],
      "name": "priceOracle",
      "outputs": [
        {
          "internalType": "contract IPriceOracle",
          "name": "",
          "type": "address"
        }
      ],
      "stateMutability": "view",
      "type": "function"
    },
    {
      "inputs": [
        {
          "internalType": "address[]",
          "name": "_tokens",
          "type": "address[]"
        },
        {
          "internalType": "uint256[]",
          "name": "_USDTAmts",
          "type": "uint256[]"
        }
      ],
      "name": "reinvest",
      "outputs": [],
      "stateMutability": "nonpayable",
      "type": "function"
    },
    {
      "inputs": [
        {
          "internalType": "uint256",
          "name": "_pid",
          "type": "uint256"
        }
      ],
      "name": "removeToken",
      "outputs": [],
      "stateMutability": "nonpayable",
      "type": "function"
    },
    {
      "inputs": [],
      "name": "renounceOwnership",
      "outputs": [],
      "stateMutability": "nonpayable",
      "type": "function"
    },
    {
      "inputs": [
        {
          "internalType": "address",
          "name": "",
          "type": "address"
        },
        {
          "internalType": "uint256",
          "name": "",
          "type": "uint256"
        }
      ],
      "name": "reqId2Index",
      "outputs": [
        {
          "internalType": "uint256",
          "name": "",
          "type": "uint256"
        }
      ],
      "stateMutability": "view",
      "type": "function"
    },
    {
      "inputs": [],
      "name": "router",
      "outputs": [
        {
          "internalType": "contract IUniRouter",
          "name": "",
          "type": "address"
        }
      ],
      "stateMutability": "view",
      "type": "function"
    },
    {
      "inputs": [
        {
          "internalType": "address",
          "name": "_admin",
          "type": "address"
        }
      ],
      "name": "setAdmin",
      "outputs": [],
      "stateMutability": "nonpayable",
      "type": "function"
    },
    {
      "inputs": [
        {
          "internalType": "contract IStVault",
          "name": "_AVAXVault",
          "type": "address"
        }
      ],
      "name": "setStVault",
      "outputs": [],
      "stateMutability": "nonpayable",
      "type": "function"
    },
    {
      "inputs": [
        {
          "internalType": "address",
          "name": "_vault",
          "type": "address"
        }
      ],
      "name": "setVault",
      "outputs": [],
      "stateMutability": "nonpayable",
      "type": "function"
    },
    {
      "inputs": [
        {
          "internalType": "uint256",
          "name": "",
          "type": "uint256"
        }
      ],
      "name": "tokens",
      "outputs": [
        {
          "internalType": "address",
          "name": "",
          "type": "address"
        }
      ],
      "stateMutability": "view",
      "type": "function"
    },
    {
      "inputs": [
        {
          "internalType": "address",
          "name": "newOwner",
          "type": "address"
        }
      ],
      "name": "transferOwnership",
      "outputs": [],
      "stateMutability": "nonpayable",
      "type": "function"
    },
    {
      "inputs": [],
      "name": "vault",
      "outputs": [
        {
          "internalType": "address",
          "name": "",
          "type": "address"
        }
      ],
      "stateMutability": "view",
      "type": "function"
    },
    {
      "inputs": [
        {
          "internalType": "address",
          "name": "_claimer",
          "type": "address"
        },
        {
          "internalType": "uint256",
          "name": "_sharePerc",
          "type": "uint256"
        }
      ],
      "name": "withdrawPerc",
      "outputs": [
        {
          "internalType": "uint256",
          "name": "USDTAmt",
          "type": "uint256"
        }
      ],
      "stateMutability": "nonpayable",
      "type": "function"
    },
    {
      "stateMutability": "payable",
      "type": "receive"
    }
  ],
  "transactionHash": "0x99f756515053ee03d25d3179fc360993fa6a0aecb465cc97203dfab05671b708",
  "args": [],
  "numDeployments": 1,
  "solcInputHash": "6644b0a9238d655c0d3bed5065c63e58",
  "bytecode": "0x608060405234801561001057600080fd5b50614957806100206000396000f3fe6080604052600436106102345760003560e01c80639b8608821161012e578063d48bfca7116100ab578063e66fa5dc1161006f578063e66fa5dc146106b9578063f2fde38b14610701578063f851a44014610721578063f887ea4014610741578063fbfa77cf1461076157600080fd5b8063d48bfca7146105ed578063d8274d0a1461060d578063d9e063271461063a578063da454e6114610672578063db2e21bc146106a457600080fd5b8063c378022c116100f2578063c378022c14610558578063c54e44eb14610578578063c89d5b8b14610598578063cc2a9a5b146105ad578063d38d5fc4146105cd57600080fd5b80639b860882146104c0578063aa6ca808146104e0578063aae0923614610502578063b47c6a2714610517578063bd244af41461054357600080fd5b806336c5d724116101bc5780636817031b116101805780636817031b14610438578063704b6c0214610458578063715018a6146104785780638da5cb5b1461048d5780638eec5d70146104ab57600080fd5b806336c5d724146103925780634631b246146103b25780634f64b2be146103d55780634fb02c95146103f55780635c975abb1461041557600080fd5b806325b074f61161020357806325b074f6146102e25780632630c12f1461031257806326b89b7114610332578063297d0e4c1461035257806330703f321461037257600080fd5b806309b056f814610240578063127a30fd1461025757806317e6cdba146102945780631e83409a146102c257600080fd5b3661023b57005b600080fd5b34801561024c57600080fd5b50610255610781565b005b34801561026357600080fd5b5060c854610277906001600160a01b031681565b6040516001600160a01b0390911681526020015b60405180910390f35b3480156102a057600080fd5b506102b46102af366004613e9f565b6107c0565b60405190815260200161028b565b3480156102ce57600080fd5b506102b46102dd366004613ee0565b6107fe565b3480156102ee57600080fd5b506102f761083a565b6040805193845260208401929092529082015260600161028b565b34801561031e57600080fd5b50609c54610277906001600160a01b031681565b34801561033e57600080fd5b5061025561034d366004613fd1565b610853565b34801561035e57600080fd5b5061025561036d366004613ee0565b61088b565b34801561037e57600080fd5b50609854610277906001600160a01b031681565b34801561039e57600080fd5b506102556103ad366004614092565b6108d7565b3480156103be57600080fd5b506103c7610ad0565b60405161028b92919061411f565b3480156103e157600080fd5b506102776103f0366004614092565b610c6f565b34801561040157600080fd5b506102f7610410366004613ee0565b610c99565b34801561042157600080fd5b5060335460ff16604051901515815260200161028b565b34801561044457600080fd5b50610255610453366004613ee0565b610cb4565b34801561046457600080fd5b50610255610473366004613ee0565b610d45565b34801561048457600080fd5b50610255610dd1565b34801561049957600080fd5b506065546001600160a01b0316610277565b3480156104b757600080fd5b50609d546102b4565b3480156104cc57600080fd5b506102556104db366004613fd1565b610e07565b3480156104ec57600080fd5b506104f5610e39565b60405161028b919061414d565b34801561050e57600080fd5b506103c7610e9b565b34801561052357600080fd5b5061052c610f08565b6040805192835260ff90911660208301520161028b565b34801561054f57600080fd5b506102b4610f92565b34801561056457600080fd5b50610255610573366004614160565b611024565b34801561058457600080fd5b50609954610277906001600160a01b031681565b3480156105a457600080fd5b506102b4611109565b3480156105b957600080fd5b506102556105c83660046141ab565b611238565b3480156105d957600080fd5b506102b46105e836600461422d565b6115c5565b3480156105f957600080fd5b50610255610608366004613ee0565b6116a4565b34801561061957600080fd5b506102b4610628366004613ee0565b609e6020526000908152604090205481565b34801561064657600080fd5b506102b461065536600461422d565b60a060209081526000928352604080842090915290825290205481565b34801561067e57600080fd5b5061069261068d366004613ee0565b6118d6565b60405161028b96959493929190614259565b3480156106b057600080fd5b50610255611b91565b3480156106c557600080fd5b506106d96106d436600461422d565b611c32565b604080519586526020860194909452928401919091526060830152608082015260a00161028b565b34801561070d57600080fd5b5061025561071c366004613ee0565b611e39565b34801561072d57600080fd5b50609a54610277906001600160a01b031681565b34801561074d57600080fd5b50609754610277906001600160a01b031681565b34801561076d57600080fd5b50609b54610277906001600160a01b031681565b609b546001600160a01b031633146107b45760405162461bcd60e51b81526004016107ab906142db565b60405180910390fd5b6107bd30611ed1565b50565b609f60205282600052604060002060205281600052604060002081815481106107e857600080fd5b9060005260206000200160009250925050505481565b609b546000906001600160a01b0316331461082b5760405162461bcd60e51b81526004016107ab906142db565b61083482611ed1565b92915050565b600080600061084830611f33565b925092509250909192565b609b546001600160a01b0316331461087d5760405162461bcd60e51b81526004016107ab906142db565b6108878282611fb2565b5050565b6065546001600160a01b031633146108b55760405162461bcd60e51b81526004016107ab906142ff565b60c880546001600160a01b0319166001600160a01b0392909216919091179055565b6065546001600160a01b031633146109015760405162461bcd60e51b81526004016107ab906142ff565b609d548082106109415760405162461bcd60e51b815260206004820152600b60248201526a125b9d985b1a59081c1a5960aa1b60448201526064016107ab565b600061094c836120e8565b905080156109905760405162461bcd60e51b8152602060048201526011602482015270506f6f6c206973206e6f7420656d70747960781b60448201526064016107ab565b6000609d84815481106109a5576109a5614334565b6000918252602090912001546001600160a01b03169050609d6109c9600185614360565b815481106109d9576109d9614334565b600091825260209091200154609d80546001600160a01b039092169186908110610a0557610a05614334565b9060005260206000200160006101000a8154816001600160a01b0302191690836001600160a01b03160217905550609d805480610a4457610a44614377565b60008281526020808220830160001990810180546001600160a01b03191690559092019092556001600160a01b0383168252609e90526040812055610a87612168565b604080516001600160a01b0383168152602081018690527f67f5552e5abc48ba6305130450943fa23b76a0b6eb18c29d3eea39559139fc5a91015b60405180910390a150505050565b6060806000610add612231565b80519091506000805b82811015610b2757838181518110610b0057610b00614334565b602002602001015182610b13919061438d565b915080610b1f816143a5565b915050610ae6565b5060008215610b4157610b3c836127106143c0565b610b44565b60005b9050826001600160401b03811115610b5e57610b5e613efd565b604051908082528060200260200182016040528015610b87578160200160208202803683370190505b50945060005b83811015610c03578215610bd25782612710868381518110610bb157610bb1614334565b6020026020010151610bc391906143e2565b610bcd91906143c0565b610bd4565b815b868281518110610be657610be6614334565b602090810291909101015280610bfb816143a5565b915050610b8d565b50609d8581805480602002602001604051908101604052809291908181526020018280548015610c5c57602002820191906000526020600020905b81546001600160a01b03168152600190910190602001808311610c3e575b5050505050915095509550505050509091565b609d8181548110610c7f57600080fd5b6000918252602090912001546001600160a01b0316905081565b6000806000610ca784611f33565b9250925092509193909250565b6065546001600160a01b03163314610cde5760405162461bcd60e51b81526004016107ab906142ff565b609b546001600160a01b031615610d235760405162461bcd60e51b815260206004820152600960248201526815985d5b1d081cd95d60ba1b60448201526064016107ab565b609b80546001600160a01b0319166001600160a01b0392909216919091179055565b6065546001600160a01b03163314610d6f5760405162461bcd60e51b81526004016107ab906142ff565b609a80546001600160a01b038381166001600160a01b031983168117909355604080519190921680825260208201939093527f9f0ac88be9159761bacf6c9e7c294c397ebf594607f6b3f2f70e7e0841ea68e891015b60405180910390a15050565b6065546001600160a01b03163314610dfb5760405162461bcd60e51b81526004016107ab906142ff565b610e0560006122c3565b565b609b546001600160a01b03163314610e315760405162461bcd60e51b81526004016107ab906142db565b61087d612315565b6060609d805480602002602001604051908101604052809291908181526020018280548015610e9157602002820191906000526020600020905b81546001600160a01b03168152600190910190602001808311610e73575b5050505050905090565b606080609d610ea8612231565b815460408051602080840282018101909252828152918491830182828015610ef957602002820191906000526020600020905b81546001600160a01b03168152600190910190602001808311610edb575b50505050509150915091509091565b609c5460995460405163b3596f0760e01b81526001600160a01b0391821660048201526000928392169063b3596f0790602401604080518083038186803b158015610f5257600080fd5b505afa158015610f66573d6000803e3d6000fd5b505050506040513d601f19601f82011682018060405250810190610f8a9190614412565b915091509091565b600080610f9d612231565b80519091506000805b82811015610fe757838181518110610fc057610fc0614334565b602002602001015182610fd3919061438d565b915080610fdf816143a5565b915050610fa6565b5060335460ff161561101d57600080610ffe61083a565b50909250905061100e818361438d565b611018908461438d565b925050505b9392505050565b600061103060016123a8565b90508015611048576000805461ff0019166101001790555b6110a6848473d7f655e3376ce2d7a2b08ff01eb3b1023191a90173d00ae08403b9bbb9124bb305c09058e32c39a48c7378ae2880bd1672b49a33cf796cf53fe6db0ab01d73eeeeeeeeeeeeeeeeeeeeeeeeeeeeeeeeeeeeeeee611238565b60c880546001600160a01b0319166001600160a01b0384161790558015611103576000805461ff0019169055604051600181527f7f26b83ff96e1f2b6a682f133852f6798a09c465da95921460cefb384740249890602001610ac2565b50505050565b6000806000611116610ad0565b81519193509150600090815b8181101561122257600061115c609d838154811061114257611142614334565b6000918252602090912001546001600160a01b0316612435565b90506001600160a01b0381161561120f5784828151811061117f5761117f614334565b6020026020010151816001600160a01b031663c89d5b8b6040518163ffffffff1660e01b815260040160206040518083038186803b1580156111c057600080fd5b505afa1580156111d4573d6000803e3d6000fd5b505050506040513d601f19601f820116820180604052508101906111f8919061443e565b61120291906143e2565b61120c908561438d565b93505b508061121a816143a5565b915050611122565b5061122f612710836143c0565b94505050505090565b600061124460016123a8565b9050801561125c576000805461ff0019166101001790555b6001600160a01b0385166112a35760405162461bcd60e51b815260206004820152600e60248201526d24b73b30b634b2103937baba32b960911b60448201526064016107ab565b6001600160a01b0384166112f95760405162461bcd60e51b815260206004820152601760248201527f496e76616c696420535741505f424153455f544f4b454e00000000000000000060448201526064016107ab565b6001600160a01b03831661133e5760405162461bcd60e51b815260206004820152600c60248201526b125b9d985b1a59081554d11560a21b60448201526064016107ab565b6001600160a01b0382166113855760405162461bcd60e51b815260206004820152600e60248201526d0496e76616c696420746f6b656e360941b60448201526064016107ab565b61138d61246d565b609a80546001600160a01b03808a166001600160a01b031992831617909255609c805489841690831617905560978054888416908316179055609880548784169083161790556099805492861692909116821790556040805163313ce56760e01b8152905163313ce56791600481810192602092909190829003018186803b15801561141857600080fd5b505afa15801561142c573d6000803e3d6000fd5b505050506040513d601f19601f820116820180604052508101906114509190614457565b6099805460ff60a01b1916600160a01b60ff938416810291909117918290556006910490911610156114c45760405162461bcd60e51b815260206004820152601760248201527f5553445420646563696d616c73206d757374203e3d203600000000000000000060448201526064016107ab565b609d80546001810182556000919091527fd26e832454299e9fabb89e0e5fffdc046d4e14431bc1bf607ffb2e8a1ddecf7b0180546001600160a01b0319166001600160a01b038416179055611517612168565b609754609954611536916001600160a01b03918216911660001961249c565b6001600160a01b03821673eeeeeeeeeeeeeeeeeeeeeeeeeeeeeeeeeeeeeeee1461157657609754611576906001600160a01b03848116911660001961249c565b80156115bc576000805461ff0019169055604051600181527f7f26b83ff96e1f2b6a682f133852f6798a09c465da95921460cefb38474024989060200160405180910390a15b50505050505050565b609b546000906001600160a01b031633146115f25760405162461bcd60e51b81526004016107ab906142db565b670de0b6b3a76400008211156116365760405162461bcd60e51b81526020600482015260096024820152684f766572203130302560b81b60448201526064016107ab565b61164083836125f3565b9050801561166557609b54609954611665916001600160a01b03918216911683612634565b60408051838152602081018390527f56ca301a9219608c91e7bcee90e083c19671d2cdcc96752c7af291cee5f9c8c8910160405180910390a192915050565b6065546001600160a01b031633146116ce5760405162461bcd60e51b81526004016107ab906142ff565b6001600160a01b0381166000908152609e6020526040902054801580156117205750609d60008154811061170457611704614334565b6000918252602090912001546001600160a01b03838116911614155b61175c5760405162461bcd60e51b815260206004820152600d60248201526c105b1c9958591e481859191959609a1b60448201526064016107ab565b609d80546001808201835560008390527fd26e832454299e9fabb89e0e5fffdc046d4e14431bc1bf607ffb2e8a1ddecf7b90910180546001600160a01b0319166001600160a01b03861617905590546117b59190614360565b6001600160a01b0383166000818152609e6020526040902082905590915073eeeeeeeeeeeeeeeeeeeeeeeeeeeeeeeeeeeeeeee148015906118765750609754604051636eb1769f60e11b81523060048201526001600160a01b0391821660248201529083169063dd62ed3e9060440160206040518083038186803b15801561183c57600080fd5b505afa158015611850573d6000803e3d6000fd5b505050506040513d601f19601f82011682018060405250810190611874919061443e565b155b1561189757609754611897906001600160a01b03848116911660001961249c565b604080516001600160a01b0384168152602081018390527fe1bea1af9b1d1aede8b7fa043080de8690470a8ae61449360b3d0c0bf8104b469101610dc5565b6060806060806060806000609d805490509050806001600160401b0381111561190157611901613efd565b60405190808252806020026020018201604052801561192a578160200160208202803683370190505b509550806001600160401b0381111561194557611945613efd565b60405190808252806020026020018201604052801561196e578160200160208202803683370190505b509450806001600160401b0381111561198957611989613efd565b6040519080825280602002602001820160405280156119b2578160200160208202803683370190505b509350806001600160401b038111156119cd576119cd613efd565b6040519080825280602002602001820160405280156119f6578160200160208202803683370190505b509250806001600160401b03811115611a1157611a11613efd565b604051908082528060200260200182016040528015611a3a578160200160208202803683370190505b50915060005b81811015611b17576000806000806000611a5a8e87611c32565b94509450945094509450848c8781518110611a7757611a77614334565b602002602001018181525050838b8781518110611a9657611a96614334565b602002602001018181525050828a8781518110611ab557611ab5614334565b60200260200101818152505081898781518110611ad457611ad4614334565b60200260200101818152505080888781518110611af357611af3614334565b60200260200101818152505050505050508080611b0f906143a5565b915050611a40565b50609d868686868685805480602002602001604051908101604052809291908181526020018280548015611b7457602002820191906000526020600020905b81546001600160a01b03168152600190910190602001808311611b56575b505050505095509650965096509650965096505091939550919395565b609b546001600160a01b03163314611bbb5760405162461bcd60e51b81526004016107ab906142db565b611bc3612664565b6000611bd730670de0b6b3a76400006125f3565b90508015611bfc57609b54609954611bfc916001600160a01b03918216911683612634565b6040518181527f99d7f8b71cfb9126984f7a5eed3a40e64a8959e9b0e442221546fb04ec6a489c9060200160405180910390a150565b6000806000806000609d80549050861015611e2f576000609d8781548110611c5c57611c5c614334565b60009182526020822001546001600160a01b03169150611c7b82612435565b90506001600160a01b03811615611e2c576001600160a01b038083166000908152609f60209081526040808320938d16835292815282822080548451818402810184019095528085529293929091830182828015611cf857602002820191906000526020600020905b815481526020019060010190808311611ce4575b5050505050905060005b8151811015611e03576000828281518110611d1f57611d1f614334565b602002602001015190506000806000866001600160a01b031663cc0fe4a4856040518263ffffffff1660e01b8152600401611d5c91815260200190565b60a06040518083038186803b158015611d7457600080fd5b505afa158015611d88573d6000803e3d6000fd5b505050506040513d601f19601f82011682018060405250810190611dac9190614482565b94505050925092508215611dcb57611dc4828c61438d565b9a50611dec565b611dd5828e61438d565b9c50881580611de357508089115b15611dec578098505b505050508080611dfb906143a5565b915050611d02565b508715611e1757611e1483896126df565b96505b8515611e2a57611e2783876126df565b94505b505b50505b9295509295909350565b6065546001600160a01b03163314611e635760405162461bcd60e51b81526004016107ab906142ff565b6001600160a01b038116611ec85760405162461bcd60e51b815260206004820152602660248201527f4f776e61626c653a206e6577206f776e657220697320746865207a65726f206160448201526564647265737360d01b60648201526084016107ab565b6107bd816122c3565b609d54600090815b81811015611f0957611eeb84826127ac565b611ef5908461438d565b925080611f01816143a5565b915050611ed9565b508115611f2d57609b54609954611f2d916001600160a01b03918216911684612634565b50919050565b609d5460009081908190815b81811015611fa9576000806000611f568985611c32565b94509450509350508288611f6a919061438d565b9750611f76828861438d565b96508715611f9357851580611f8a57508086115b15611f93578095505b5050508080611fa1906143a5565b915050611f3f565b50509193909250565b8151609d5460009081906001600160401b03811115611fd357611fd3613efd565b604051908082528060200260200182016040528015611ffc578160200160208202803683370190505b50905060005b838110156120b957600085828151811061201e5761201e614334565b602002602001015190508084612034919061438d565b93506000609e600089858151811061204e5761204e614334565b60200260200101516001600160a01b03166001600160a01b031681526020019081526020016000205490508184828151811061208c5761208c614334565b602002602001018181516120a0919061438d565b9052508291506120b19050816143a5565b915050612002565b50609b546099546120d8916001600160a01b0391821691163085612a3c565b6120e181612a74565b5050505050565b600080609d83815481106120fe576120fe614334565b60009182526020822001546001600160a01b0316915061211d82612435565b90506001600160a01b0381161561213e5761213781612db2565b9250612161565b600061214a8330612f3a565b9050801561215f5761215c83826126df565b93505b505b5050919050565b6000609d8054806020026020016040519081016040528092919081815260200182805480156121c057602002820191906000526020600020905b81546001600160a01b031681526001909101906020018083116121a2575b505083519394506000925050505b8181101561222c5780609e60008584815181106121ed576121ed614334565b60200260200101516001600160a01b03166001600160a01b03168152602001908152602001600020819055508080612224906143a5565b9150506121ce565b505050565b609d54606090806001600160401b0381111561224f5761224f613efd565b604051908082528060200260200182016040528015612278578160200160208202803683370190505b50915060005b818110156122be5761228f816120e8565b8382815181106122a1576122a1614334565b6020908102919091010152806122b6816143a5565b91505061227e565b505090565b606580546001600160a01b038381166001600160a01b0319831681179093556040519116919082907f8be0079c531659141344cd1fd0a4f28419497f9722a3daafe3b4186f6b6457e090600090a35050565b60335460ff1661235e5760405162461bcd60e51b815260206004820152601460248201527314185d5cd8589b194e881b9bdd081c185d5cd95960621b60448201526064016107ab565b6033805460ff191690557f5db9ee0a495bf2e6ff9c91a7834c1ba4fdd244a5e8aa4e537bd38aeae4b073aa335b6040516001600160a01b03909116815260200160405180910390a1565b60008054610100900460ff16156123ef578160ff1660011480156123cb5750303b155b6123e75760405162461bcd60e51b81526004016107ab906144c9565b506000919050565b60005460ff8084169116106124165760405162461bcd60e51b81526004016107ab906144c9565b506000805460ff191660ff92909216919091179055600190565b919050565b60006001600160a01b03821673eeeeeeeeeeeeeeeeeeeeeeeeeeeeeeeeeeeeeeee141561243057505060c8546001600160a01b031690565b600054610100900460ff166124945760405162461bcd60e51b81526004016107ab90614517565b610e05612fea565b8015806125255750604051636eb1769f60e11b81523060048201526001600160a01b03838116602483015284169063dd62ed3e9060440160206040518083038186803b1580156124eb57600080fd5b505afa1580156124ff573d6000803e3d6000fd5b505050506040513d601f19601f82011682018060405250810190612523919061443e565b155b6125905760405162461bcd60e51b815260206004820152603660248201527f5361666545524332303a20617070726f76652066726f6d206e6f6e2d7a65726f60448201527520746f206e6f6e2d7a65726f20616c6c6f77616e636560501b60648201526084016107ab565b6040516001600160a01b03831660248201526044810182905261222c90849063095ea7b360e01b906064015b60408051601f198184030181529190526020810180516001600160e01b03166001600160e01b03199093169290921790915261301a565b609d54600090815b8181101561262c5761260e8582866130ec565b612618908461438d565b925080612624816143a5565b9150506125fb565b505092915050565b6040516001600160a01b03831660248201526044810182905261222c90849063a9059cbb60e01b906064016125bc565b60335460ff16156126aa5760405162461bcd60e51b815260206004820152601060248201526f14185d5cd8589b194e881c185d5cd95960821b60448201526064016107ab565b6033805460ff191660011790557f62e78cea01bee320cd4e420270b5ea74000d11b0c9f74754ebdbfc544b05a25861238b3390565b609c5460405163b3596f0760e01b81526001600160a01b038481166004830152600092839283929091169063b3596f0790602401604080518083038186803b15801561272a57600080fd5b505afa15801561273e573d6000803e3d6000fd5b505050506040513d601f19601f820116820180604052508101906127629190614412565b915091506000612771866131e9565b905061277e82600a61463e565b8361278e878460ff16601261328d565b61279891906143e2565b6127a291906143c0565b9695505050505050565b600080609d83815481106127c2576127c2614334565b60009182526020822001546001600160a01b031691506127e182612435565b90506001600160a01b0381161561262c576001600160a01b038083166000908152609f6020908152604080832093891683529281528282208054845181840281018401909552808552929392909183018282801561285e57602002820191906000526020600020905b81548152602001906001019080831161284a575b505050505090506000806000846001600160a01b031663e4717f6a856040518263ffffffff1660e01b8152600401612896919061464d565b600060405180830381600087803b1580156128b057600080fd5b505af11580156128c4573d6000803e3d6000fd5b505050506040513d6000823e601f3d908101601f191682016040526128ec9190810190614660565b919450925090508215612a30576000826001600160401b0381111561291357612913613efd565b60405190808252806020026020018201604052801561293c578160200160208202803683370190505b5090506000805b86518110156129c25783818151811061295e5761295e614334565b6020026020010151156129b05786818151811061297d5761297d614334565b6020026020010151838380612991906143a5565b9450815181106129a3576129a3614334565b6020026020010181815250505b806129ba816143a5565b915050612943565b506129ce888c846132eb565b6129d88886613460565b604080516001600160a01b03808f1682528b166020820152908101879052606081018290529099507f865ca08d59f5cb456e85cd2f7ef63664ea4f73327414e9d8152c4158b0e946459060800160405180910390a150505b50505050505092915050565b6040516001600160a01b03808516602483015283166044820152606481018290526111039085906323b872dd60e01b906084016125bc565b805160005b8181101561222c576000838281518110612a9557612a95614334565b602002602001015190508060001415612aae5750612da0565b6000609d8381548110612ac357612ac3614334565b60009182526020822001546099546001600160a01b039182169350168214612ca357600080612af0610f08565b609c5460405163b3596f0760e01b81526001600160a01b038881166004830152939550919350600092839291169063b3596f0790602401604080518083038186803b158015612b3e57600080fd5b505afa158015612b52573d6000803e3d6000fd5b505050506040513d601f19601f82011682018060405250810190612b769190614412565b915091506000612b85876131e9565b90506000612b93828461470c565b612b9e90600a61463e565b612ba890876143e2565b609954909150600090612bc590600160a01b900460ff168761470c565b612bd090600a61463e565b612bda90866143e2565b90506000612be98260646143e2565b612bf3848d6143e2565b612bfe9060556143e2565b612c0891906143c0565b90506001600160a01b038a1673eeeeeeeeeeeeeeeeeeeeeeeeeeeeeeeeeeeeeeee1415612c4d57609954612c46906001600160a01b03168c83613623565b9850612c96565b6098546001600160a01b038b811691161415612c7b57609954612c46906001600160a01b03168b8d8461374c565b609954612c93906001600160a01b03168b8d84613879565b98505b5050505050505050612ca6565b50815b6000612cb183612435565b90506001600160a01b03811615612d9b576001600160a01b03831673eeeeeeeeeeeeeeeeeeeeeeeeeeeeeeeeeeeeeeee1415612d4057806001600160a01b031663f6326fb3836040518263ffffffff1660e01b81526004016000604051808303818588803b158015612d2257600080fd5b505af1158015612d36573d6000803e3d6000fd5b5050505050612d9b565b60405163b6b55f2560e01b8152600481018390526001600160a01b0382169063b6b55f2590602401600060405180830381600087803b158015612d8257600080fd5b505af1158015612d96573d6000803e3d6000fd5b505050505b505050505b80612daa816143a5565b915050612a79565b600080826001600160a01b03166318160ddd6040518163ffffffff1660e01b815260040160206040518083038186803b158015612dee57600080fd5b505afa158015612e02573d6000803e3d6000fd5b505050506040513d601f19601f82011682018060405250810190612e26919061443e565b90508015612f31576040516370a0823160e01b815230600482015281906001600160a01b038516906370a082319060240160206040518083038186803b158015612e6f57600080fd5b505afa158015612e83573d6000803e3d6000fd5b505050506040513d601f19601f82011682018060405250810190612ea7919061443e565b846001600160a01b031663bd244af46040518163ffffffff1660e01b815260040160206040518083038186803b158015612ee057600080fd5b505afa158015612ef4573d6000803e3d6000fd5b505050506040513d601f19601f82011682018060405250810190612f18919061443e565b612f2291906143e2565b612f2c91906143c0565b61101d565b60009392505050565b60006001600160a01b03831673eeeeeeeeeeeeeeeeeeeeeeeeeeeeeeeeeeeeeeee1415612f7157816001600160a01b03163161101d565b6040516370a0823160e01b81526001600160a01b0383811660048301528416906370a082319060240160206040518083038186803b158015612fb257600080fd5b505afa158015612fc6573d6000803e3d6000fd5b505050506040513d601f19601f8201168201806040525081019061101d919061443e565b600054610100900460ff166130115760405162461bcd60e51b81526004016107ab90614517565b610e05336122c3565b600061306f826040518060400160405280602081526020017f5361666545524332303a206c6f772d6c6576656c2063616c6c206661696c6564815250856001600160a01b03166139c59092919063ffffffff16565b80519091501561222c578080602001905181019061308d9190614731565b61222c5760405162461bcd60e51b815260206004820152602a60248201527f5361666545524332303a204552433230206f7065726174696f6e20646964206e6044820152691bdd081cdd58d8d9595960b21b60648201526084016107ab565b600080609d848154811061310257613102614334565b60009182526020822001546001600160a01b0316915061312182612435565b90506001600160a01b0381161561318157600061313e82866139dc565b9094509050801561317b5761317b609d878154811061315f5761315f614334565b6000918252602090912001546001600160a01b03168883613b94565b506131e0565b6000670de0b6b3a7640000856131978530612f3a565b6131a191906143e2565b6131ab91906143c0565b905080156131de576099546001600160a01b03848116911614156131d1578093506131de565b6131db8382613460565b93505b505b50509392505050565b60006001600160a01b03821673eeeeeeeeeeeeeeeeeeeeeeeeeeeeeeeeeeeeeeee1461328557816001600160a01b031663313ce5676040518163ffffffff1660e01b815260040160206040518083038186803b15801561324857600080fd5b505afa15801561325c573d6000803e3d6000fd5b505050506040513d601f19601f820116820180604052508101906132809190614457565b610834565b601292915050565b60008183141561329e57508261101d565b818310156132cc576132b08383614360565b6132bb90600a61474c565b6132c590856143e2565b905061101d565b6132d68284614360565b6132e190600a61474c565b6132c590856143c0565b6001600160a01b038084166000908152609f602090815260408083209386168352929052908120805490915b835181101561345857600084828151811061333457613334614334565b6020908102919091018101516001600160a01b038916600090815260a0835260408082208383529093529190912054909150613371600185614360565b81146133e757600085613385600187614360565b8154811061339557613395614334565b90600052602060002001549050808683815481106133b5576133b5614334565b60009182526020808320909101929092556001600160a01b038b16815260a08252604080822093825292909152208190555b848054806133f7576133f7614377565b60019003818190600052602060002001600090559055838061341890614758565b6001600160a01b038a16600090815260a0602090815260408083209683529590529384209390935550909250819050613450816143a5565b915050613317565b505050505050565b600080600061346d610f08565b609c5460405163b3596f0760e01b81526001600160a01b038981166004830152939550919350600092839291169063b3596f0790602401604080518083038186803b1580156134bb57600080fd5b505afa1580156134cf573d6000803e3d6000fd5b505050506040513d601f19601f820116820180604052508101906134f39190614412565b915091506000613502886131e9565b60995490915060009061351f90600160a01b900460ff168661470c565b61352a90600a61463e565b61353490856143e2565b90506000613542838561470c565b61354d90600a61463e565b61355790886143e2565b905060006135668260646143e2565b613570848c6143e2565b61357b9060556143e2565b61358591906143c0565b90506001600160a01b038b1673eeeeeeeeeeeeeeeeeeeeeeeeeeeeeeeeeeeeeeee14156135ca576099546135c3906001600160a01b03168b83613c0c565b9850613615565b6098546001600160a01b038c8116911614156135f9576099546135c3908c906001600160a01b03168c8461374c565b609954613612908c906001600160a01b03168c84613879565b98505b505050505050505092915050565b60408051600280825260608201835260009283929190602083019080368337019050509050848160008151811061365c5761365c614334565b6001600160a01b03928316602091820292909201015260985482519116908290600190811061368d5761368d614334565b6001600160a01b03928316602091820292909201015260975460405163676528d160e01b815291169063676528d1906136d2908790879086903090429060040161476f565b600060405180830381600087803b1580156136ec57600080fd5b505af1158015613700573d6000803e3d6000fd5b505050506040513d6000823e601f3d908101601f1916820160405261372891908101906147ab565b60018151811061373a5761373a614334565b60200260200101519150509392505050565b60408051600280825260608201835260009283929190602083019080368337019050509050858160008151811061378557613785614334565b60200260200101906001600160a01b031690816001600160a01b03168152505084816001815181106137b9576137b9614334565b6001600160a01b0392831660209182029290920101526097546040516338ed173960e01b81529116906338ed1739906137fe908790879086903090429060040161476f565b600060405180830381600087803b15801561381857600080fd5b505af115801561382c573d6000803e3d6000fd5b505050506040513d6000823e601f3d908101601f1916820160405261385491908101906147ab565b60018151811061386657613866614334565b6020026020010151915050949350505050565b604080516003808252608082019092526000918291906020820160608036833701905050905085816000815181106138b3576138b3614334565b6001600160a01b0392831660209182029290920101526098548251911690829060019081106138e4576138e4614334565b60200260200101906001600160a01b031690816001600160a01b031681525050848160028151811061391857613918614334565b6001600160a01b0392831660209182029290920101526097546040516338ed173960e01b81529116906338ed17399061395d908790879086903090429060040161476f565b600060405180830381600087803b15801561397757600080fd5b505af115801561398b573d6000803e3d6000fd5b505050506040513d6000823e601f3d908101601f191682016040526139b391908101906147ab565b60028151811061386657613866614334565b60606139d48484600085613d20565b949350505050565b6040516370a0823160e01b815230600482015260009081908190670de0b6b3a76400009085906001600160a01b038816906370a082319060240160206040518083038186803b158015613a2e57600080fd5b505afa158015613a42573d6000803e3d6000fd5b505050506040513d601f19601f82011682018060405250810190613a66919061443e565b613a7091906143e2565b613a7a91906143c0565b90508015613b8c57604051632e1a7d4d60e01b81526004810182905260009081906001600160a01b03881690632e1a7d4d906024016040805180830381600087803b158015613ac857600080fd5b505af1158015613adc573d6000803e3d6000fd5b505050506040513d601f19601f82011682018060405250810190613b009190614830565b90925090508115613b8857613b85876001600160a01b031663fc0c546a6040518163ffffffff1660e01b815260040160206040518083038186803b158015613b4757600080fd5b505afa158015613b5b573d6000803e3d6000fd5b505050506040513d601f19601f82011682018060405250810190613b7f9190614854565b83613460565b94505b9250505b509250929050565b6001600160a01b038084166000908152609f6020908152604080832093861683529281529181208054600181810183558284529390922090910183905580549091613bde91614360565b6001600160a01b03909416600090815260a06020908152604080832094835293905291909120929092555050565b60408051600280825260608201835260009283929190602083019080368337505060985482519293506001600160a01b031691839150600090613c5157613c51614334565b60200260200101906001600160a01b031690816001600160a01b0316815250508481600181518110613c8557613c85614334565b6001600160a01b03928316602091820292909201015260975460405163a2a1623d60e01b815291169063a2a1623d908690613cca908790869030904290600401614871565b6000604051808303818588803b158015613ce357600080fd5b505af1158015613cf7573d6000803e3d6000fd5b50505050506040513d6000823e601f3d908101601f1916820160405261372891908101906147ab565b606082471015613d815760405162461bcd60e51b815260206004820152602660248201527f416464726573733a20696e73756666696369656e742062616c616e636520666f6044820152651c8818d85b1b60d21b60648201526084016107ab565b6001600160a01b0385163b613dd85760405162461bcd60e51b815260206004820152601d60248201527f416464726573733a2063616c6c20746f206e6f6e2d636f6e747261637400000060448201526064016107ab565b600080866001600160a01b03168587604051613df491906148d2565b60006040518083038185875af1925050503d8060008114613e31576040519150601f19603f3d011682016040523d82523d6000602084013e613e36565b606091505b5091509150613e46828286613e51565b979650505050505050565b60608315613e6057508161101d565b825115613e705782518084602001fd5b8160405162461bcd60e51b81526004016107ab91906148ee565b6001600160a01b03811681146107bd57600080fd5b600080600060608486031215613eb457600080fd5b8335613ebf81613e8a565b92506020840135613ecf81613e8a565b929592945050506040919091013590565b600060208284031215613ef257600080fd5b813561101d81613e8a565b634e487b7160e01b600052604160045260246000fd5b604051601f8201601f191681016001600160401b0381118282101715613f3b57613f3b613efd565b604052919050565b60006001600160401b03821115613f5c57613f5c613efd565b5060051b60200190565b600082601f830112613f7757600080fd5b81356020613f8c613f8783613f43565b613f13565b82815260059290921b84018101918181019086841115613fab57600080fd5b8286015b84811015613fc65780358352918301918301613faf565b509695505050505050565b60008060408385031215613fe457600080fd5b82356001600160401b0380821115613ffb57600080fd5b818501915085601f83011261400f57600080fd5b8135602061401f613f8783613f43565b82815260059290921b8401810191818101908984111561403e57600080fd5b948201945b8386101561406557853561405681613e8a565b82529482019490820190614043565b9650508601359250508082111561407b57600080fd5b5061408885828601613f66565b9150509250929050565b6000602082840312156140a457600080fd5b5035919050565b600081518084526020808501945080840160005b838110156140e45781516001600160a01b0316875295820195908201906001016140bf565b509495945050505050565b600081518084526020808501945080840160005b838110156140e457815187529582019590820190600101614103565b60408152600061413260408301856140ab565b828103602084015261414481856140ef565b95945050505050565b60208152600061101d60208301846140ab565b60008060006060848603121561417557600080fd5b833561418081613e8a565b9250602084013561419081613e8a565b915060408401356141a081613e8a565b809150509250925092565b60008060008060008060c087890312156141c457600080fd5b86356141cf81613e8a565b955060208701356141df81613e8a565b945060408701356141ef81613e8a565b935060608701356141ff81613e8a565b9250608087013561420f81613e8a565b915060a087013561421f81613e8a565b809150509295509295509295565b6000806040838503121561424057600080fd5b823561424b81613e8a565b946020939093013593505050565b60c08152600061426c60c08301896140ab565b828103602084015261427e81896140ef565b9050828103604084015261429281886140ef565b905082810360608401526142a681876140ef565b905082810360808401526142ba81866140ef565b905082810360a08401526142ce81856140ef565b9998505050505050505050565b6020808252600a908201526913db9b1e481d985d5b1d60b21b604082015260600190565b6020808252818101527f4f776e61626c653a2063616c6c6572206973206e6f7420746865206f776e6572604082015260600190565b634e487b7160e01b600052603260045260246000fd5b634e487b7160e01b600052601160045260246000fd5b6000828210156143725761437261434a565b500390565b634e487b7160e01b600052603160045260246000fd5b600082198211156143a0576143a061434a565b500190565b60006000198214156143b9576143b961434a565b5060010190565b6000826143dd57634e487b7160e01b600052601260045260246000fd5b500490565b60008160001904831182151516156143fc576143fc61434a565b500290565b805160ff8116811461243057600080fd5b6000806040838503121561442557600080fd5b8251915061443560208401614401565b90509250929050565b60006020828403121561445057600080fd5b5051919050565b60006020828403121561446957600080fd5b61101d82614401565b8051801515811461243057600080fd5b600080600080600060a0868803121561449a57600080fd5b6144a386614472565b602087015160408801516060890151608090990151929a91995097965090945092505050565b6020808252602e908201527f496e697469616c697a61626c653a20636f6e747261637420697320616c72656160408201526d191e481a5b9a5d1a585b1a5e995960921b606082015260800190565b6020808252602b908201527f496e697469616c697a61626c653a20636f6e7472616374206973206e6f74206960408201526a6e697469616c697a696e6760a81b606082015260800190565b600181815b80851115613b8c5781600019048211156145835761458361434a565b8085161561459057918102915b93841c9390800290614567565b6000826145ac57506001610834565b816145b957506000610834565b81600181146145cf57600281146145d9576145f5565b6001915050610834565b60ff8411156145ea576145ea61434a565b50506001821b610834565b5060208310610133831016604e8410600b8410161715614618575081810a610834565b6146228383614562565b80600019048211156146365761463661434a565b029392505050565b600061101d60ff84168361459d565b60208152600061101d60208301846140ef565b60008060006060848603121561467557600080fd5b83519250602080850151925060408501516001600160401b0381111561469a57600080fd5b8501601f810187136146ab57600080fd5b80516146b9613f8782613f43565b81815260059190911b820183019083810190898311156146d857600080fd5b928401925b828410156146fd576146ee84614472565b825292840192908401906146dd565b80955050505050509250925092565b600060ff821660ff84168060ff038211156147295761472961434a565b019392505050565b60006020828403121561474357600080fd5b61101d82614472565b600061101d838361459d565b6000816147675761476761434a565b506000190190565b85815284602082015260a06040820152600061478e60a08301866140ab565b6001600160a01b0394909416606083015250608001529392505050565b600060208083850312156147be57600080fd5b82516001600160401b038111156147d457600080fd5b8301601f810185136147e557600080fd5b80516147f3613f8782613f43565b81815260059190911b8201830190838101908783111561481257600080fd5b928401925b82841015613e4657835182529284019290840190614817565b6000806040838503121561484357600080fd5b505080516020909101519092909150565b60006020828403121561486657600080fd5b815161101d81613e8a565b84815260806020820152600061488a60808301866140ab565b6001600160a01b03949094166040830152506060015292915050565b60005b838110156148c15781810151838201526020016148a9565b838111156111035750506000910152565b600082516148e48184602087016148a6565b9190910192915050565b602081526000825180602084015261490d8160408501602087016148a6565b601f01601f1916919091016040019291505056fea264697066735822122054a8ca67f4f14f547b5b252f846dfe96eb0c01a2b70a7ac84974e2d6247671e664736f6c63430008090033",
  "devdoc": {
    "kind": "dev",
    "methods": {
      "getPoolUnbonded(address,uint256)": {
        "returns": {
          "unbonded": "is token amount that is unbonded.",
          "unbondedInUSD": "is USD value of token amount that is unbonded.",
          "waitForTs": "is timestamp to wait to the next claim.",
          "waiting": "is token amount that is not unbonded.",
          "waitingInUSD": "is USD value of token amount that is not unbonded."
        }
      },
      "getUSDTPriceInUSD()": {
        "returns": {
          "_0": "the price of USDT in USD."
        }
      },
      "invest(address[],uint256[])": {
        "params": {
          "_USDTAmts": "amounts of USDT should be deposited to each pools. They have been denominated in USDT decimals"
        }
      },
      "owner()": {
        "details": "Returns the address of the current owner."
      },
      "paused()": {
        "details": "Returns true if the contract is paused, and false otherwise."
      },
      "reinvest(address[],uint256[])": {
        "params": {
          "_USDTAmts": "amounts of USDT should be deposited to each pools. They have been denominated in USDT decimals"
        }
      },
      "renounceOwnership()": {
        "details": "Leaves the contract without owner. It will not be possible to call `onlyOwner` functions anymore. Can only be called by the current owner. NOTE: Renouncing ownership will leave the contract without an owner, thereby removing any functionality that is only available to the owner."
      },
      "transferOwnership(address)": {
        "details": "Transfers ownership of the contract to a new account (`newOwner`). Can only be called by the current owner."
      }
    },
    "version": 1
  },
  "userdoc": {
    "kind": "user",
    "methods": {},
    "version": 1
  },
  "storageLayout": {
    "storage": [
      {
        "astId": 130,
        "contract": "contracts/sti/strategy/AvaxSTIStrategyTest.sol:AvaxSTIStrategyTest",
        "label": "_initialized",
        "offset": 0,
        "slot": "0",
        "type": "t_uint8"
      },
      {
        "astId": 133,
        "contract": "contracts/sti/strategy/AvaxSTIStrategyTest.sol:AvaxSTIStrategyTest",
        "label": "_initializing",
        "offset": 1,
        "slot": "0",
        "type": "t_bool"
      },
      {
        "astId": 2709,
        "contract": "contracts/sti/strategy/AvaxSTIStrategyTest.sol:AvaxSTIStrategyTest",
        "label": "__gap",
        "offset": 0,
        "slot": "1",
        "type": "t_array(t_uint256)50_storage"
      },
      {
        "astId": 286,
        "contract": "contracts/sti/strategy/AvaxSTIStrategyTest.sol:AvaxSTIStrategyTest",
        "label": "_paused",
        "offset": 0,
        "slot": "51",
        "type": "t_bool"
      },
      {
        "astId": 375,
        "contract": "contracts/sti/strategy/AvaxSTIStrategyTest.sol:AvaxSTIStrategyTest",
        "label": "__gap",
        "offset": 0,
        "slot": "52",
        "type": "t_array(t_uint256)49_storage"
      },
      {
        "astId": 10,
        "contract": "contracts/sti/strategy/AvaxSTIStrategyTest.sol:AvaxSTIStrategyTest",
        "label": "_owner",
        "offset": 0,
        "slot": "101",
        "type": "t_address"
      },
      {
        "astId": 122,
        "contract": "contracts/sti/strategy/AvaxSTIStrategyTest.sol:AvaxSTIStrategyTest",
        "label": "__gap",
        "offset": 0,
        "slot": "102",
        "type": "t_array(t_uint256)49_storage"
      },
      {
        "astId": 46466,
        "contract": "contracts/sti/strategy/AvaxSTIStrategyTest.sol:AvaxSTIStrategyTest",
        "label": "router",
        "offset": 0,
        "slot": "151",
        "type": "t_contract(IUniRouter)52936"
      },
      {
        "astId": 46469,
        "contract": "contracts/sti/strategy/AvaxSTIStrategyTest.sol:AvaxSTIStrategyTest",
        "label": "SWAP_BASE_TOKEN",
        "offset": 0,
        "slot": "152",
        "type": "t_contract(IERC20UpgradeableExt)52440"
      },
      {
        "astId": 46472,
        "contract": "contracts/sti/strategy/AvaxSTIStrategyTest.sol:AvaxSTIStrategyTest",
        "label": "USDT",
        "offset": 0,
        "slot": "153",
        "type": "t_contract(IERC20UpgradeableExt)52440"
      },
      {
        "astId": 46474,
        "contract": "contracts/sti/strategy/AvaxSTIStrategyTest.sol:AvaxSTIStrategyTest",
        "label": "usdtDecimals",
        "offset": 20,
        "slot": "153",
        "type": "t_uint8"
      },
      {
        "astId": 46476,
        "contract": "contracts/sti/strategy/AvaxSTIStrategyTest.sol:AvaxSTIStrategyTest",
        "label": "admin",
        "offset": 0,
        "slot": "154",
        "type": "t_address"
      },
      {
        "astId": 46478,
        "contract": "contracts/sti/strategy/AvaxSTIStrategyTest.sol:AvaxSTIStrategyTest",
        "label": "vault",
        "offset": 0,
        "slot": "155",
        "type": "t_address"
      },
      {
        "astId": 46481,
        "contract": "contracts/sti/strategy/AvaxSTIStrategyTest.sol:AvaxSTIStrategyTest",
        "label": "priceOracle",
        "offset": 0,
        "slot": "156",
        "type": "t_contract(IPriceOracle)11071"
      },
      {
        "astId": 46484,
        "contract": "contracts/sti/strategy/AvaxSTIStrategyTest.sol:AvaxSTIStrategyTest",
        "label": "tokens",
        "offset": 0,
        "slot": "157",
        "type": "t_array(t_address)dyn_storage"
      },
      {
        "astId": 46488,
        "contract": "contracts/sti/strategy/AvaxSTIStrategyTest.sol:AvaxSTIStrategyTest",
        "label": "pid",
        "offset": 0,
        "slot": "158",
        "type": "t_mapping(t_address,t_uint256)"
      },
      {
        "astId": 46495,
        "contract": "contracts/sti/strategy/AvaxSTIStrategyTest.sol:AvaxSTIStrategyTest",
        "label": "claimer2ReqIds",
        "offset": 0,
        "slot": "159",
        "type": "t_mapping(t_address,t_mapping(t_address,t_array(t_uint256)dyn_storage))"
      },
      {
        "astId": 46501,
        "contract": "contracts/sti/strategy/AvaxSTIStrategyTest.sol:AvaxSTIStrategyTest",
        "label": "reqId2Index",
        "offset": 0,
        "slot": "160",
        "type": "t_mapping(t_address,t_mapping(t_uint256,t_uint256))"
      },
      {
        "astId": 49202,
        "contract": "contracts/sti/strategy/AvaxSTIStrategyTest.sol:AvaxSTIStrategyTest",
        "label": "__gap",
        "offset": 0,
        "slot": "161",
        "type": "t_array(t_uint256)39_storage"
      },
      {
        "astId": 46210,
        "contract": "contracts/sti/strategy/AvaxSTIStrategyTest.sol:AvaxSTIStrategyTest",
        "label": "AVAXVault",
        "offset": 0,
        "slot": "200",
        "type": "t_contract(IStVault)52760"
      }
    ],
    "types": {
      "t_address": {
        "encoding": "inplace",
        "label": "address",
        "numberOfBytes": "20"
      },
      "t_array(t_address)dyn_storage": {
        "base": "t_address",
        "encoding": "dynamic_array",
        "label": "address[]",
        "numberOfBytes": "32"
      },
      "t_array(t_uint256)39_storage": {
        "base": "t_uint256",
        "encoding": "inplace",
        "label": "uint256[39]",
        "numberOfBytes": "1248"
      },
      "t_array(t_uint256)49_storage": {
        "base": "t_uint256",
        "encoding": "inplace",
        "label": "uint256[49]",
        "numberOfBytes": "1568"
      },
      "t_array(t_uint256)50_storage": {
        "base": "t_uint256",
        "encoding": "inplace",
        "label": "uint256[50]",
        "numberOfBytes": "1600"
      },
      "t_array(t_uint256)dyn_storage": {
        "base": "t_uint256",
        "encoding": "dynamic_array",
        "label": "uint256[]",
        "numberOfBytes": "32"
      },
      "t_bool": {
        "encoding": "inplace",
        "label": "bool",
        "numberOfBytes": "1"
      },
      "t_contract(IERC20UpgradeableExt)52440": {
        "encoding": "inplace",
        "label": "contract IERC20UpgradeableExt",
        "numberOfBytes": "20"
      },
      "t_contract(IPriceOracle)11071": {
        "encoding": "inplace",
        "label": "contract IPriceOracle",
        "numberOfBytes": "20"
      },
      "t_contract(IStVault)52760": {
        "encoding": "inplace",
        "label": "contract IStVault",
        "numberOfBytes": "20"
      },
      "t_contract(IUniRouter)52936": {
        "encoding": "inplace",
        "label": "contract IUniRouter",
        "numberOfBytes": "20"
      },
      "t_mapping(t_address,t_array(t_uint256)dyn_storage)": {
        "encoding": "mapping",
        "key": "t_address",
        "label": "mapping(address => uint256[])",
        "numberOfBytes": "32",
        "value": "t_array(t_uint256)dyn_storage"
      },
      "t_mapping(t_address,t_mapping(t_address,t_array(t_uint256)dyn_storage))": {
        "encoding": "mapping",
        "key": "t_address",
        "label": "mapping(address => mapping(address => uint256[]))",
        "numberOfBytes": "32",
        "value": "t_mapping(t_address,t_array(t_uint256)dyn_storage)"
      },
      "t_mapping(t_address,t_mapping(t_uint256,t_uint256))": {
        "encoding": "mapping",
        "key": "t_address",
        "label": "mapping(address => mapping(uint256 => uint256))",
        "numberOfBytes": "32",
        "value": "t_mapping(t_uint256,t_uint256)"
      },
      "t_mapping(t_address,t_uint256)": {
        "encoding": "mapping",
        "key": "t_address",
        "label": "mapping(address => uint256)",
        "numberOfBytes": "32",
        "value": "t_uint256"
      },
      "t_mapping(t_uint256,t_uint256)": {
        "encoding": "mapping",
        "key": "t_uint256",
        "label": "mapping(uint256 => uint256)",
        "numberOfBytes": "32",
        "value": "t_uint256"
      },
      "t_uint256": {
        "encoding": "inplace",
        "label": "uint256",
        "numberOfBytes": "32"
      },
      "t_uint8": {
        "encoding": "inplace",
        "label": "uint8",
        "numberOfBytes": "1"
      }
    }
  }
}