{
  "address": "0x64c319E6bE2C3Da28dB94783aBd910a5028EB252",
  "abi": [
    {
      "inputs": [
        {
          "internalType": "address",
          "name": "sender",
          "type": "address"
        },
        {
          "internalType": "string[]",
          "name": "urls",
          "type": "string[]"
        },
        {
          "internalType": "bytes",
          "name": "callData",
          "type": "bytes"
        },
        {
          "internalType": "bytes4",
          "name": "callbackFunction",
          "type": "bytes4"
        },
        {
          "internalType": "bytes",
          "name": "extraData",
          "type": "bytes"
        }
      ],
      "name": "OffchainLookup",
      "type": "error"
    },
    {
      "anonymous": false,
      "inputs": [
        {
          "indexed": true,
          "internalType": "uint256",
          "name": "chainID",
          "type": "uint256"
        },
        {
          "indexed": true,
          "internalType": "address",
          "name": "token",
          "type": "address"
        },
        {
          "indexed": true,
          "internalType": "uint256",
          "name": "tid",
          "type": "uint256"
        }
      ],
      "name": "AddToken",
      "type": "event"
    },
    {
      "anonymous": false,
      "inputs": [
        {
          "indexed": true,
          "internalType": "address",
          "name": "caller",
          "type": "address"
        },
        {
          "indexed": true,
          "internalType": "uint256",
          "name": "shareBurned",
          "type": "uint256"
        }
      ],
      "name": "Burn",
      "type": "event"
    },
    {
      "anonymous": false,
      "inputs": [
        {
          "indexed": false,
          "internalType": "uint8",
          "name": "version",
          "type": "uint8"
        }
      ],
      "name": "Initialized",
      "type": "event"
    },
    {
      "anonymous": false,
      "inputs": [
        {
          "indexed": true,
          "internalType": "address",
          "name": "caller",
          "type": "address"
        },
        {
          "indexed": true,
          "internalType": "uint256",
          "name": "amtDeposit",
          "type": "uint256"
        },
        {
          "indexed": true,
          "internalType": "uint256",
          "name": "shareMinted",
          "type": "uint256"
        }
      ],
      "name": "Mint",
      "type": "event"
    },
    {
      "anonymous": false,
      "inputs": [
        {
          "indexed": true,
          "internalType": "address",
          "name": "account",
          "type": "address"
        },
        {
          "indexed": true,
          "internalType": "enum BNIMinterV1.OperationType",
          "name": "operation",
          "type": "uint8"
        },
        {
          "indexed": false,
          "internalType": "uint256",
          "name": "amount",
          "type": "uint256"
        },
        {
          "indexed": true,
          "internalType": "uint256",
          "name": "nonce",
          "type": "uint256"
        }
      ],
      "name": "NewOperation",
      "type": "event"
    },
    {
      "anonymous": false,
      "inputs": [
        {
          "indexed": true,
          "internalType": "address",
          "name": "previousOwner",
          "type": "address"
        },
        {
          "indexed": true,
          "internalType": "address",
          "name": "newOwner",
          "type": "address"
        }
      ],
      "name": "OwnershipTransferred",
      "type": "event"
    },
    {
      "anonymous": false,
      "inputs": [
        {
          "indexed": false,
          "internalType": "address",
          "name": "account",
          "type": "address"
        }
      ],
      "name": "Paused",
      "type": "event"
    },
    {
      "anonymous": false,
      "inputs": [
        {
          "indexed": true,
          "internalType": "uint256",
          "name": "chainID",
          "type": "uint256"
        },
        {
          "indexed": true,
          "internalType": "address",
          "name": "token",
          "type": "address"
        },
        {
          "indexed": true,
          "internalType": "uint256",
          "name": "tid",
          "type": "uint256"
        },
        {
          "indexed": false,
          "internalType": "uint256",
          "name": "targetPerc",
          "type": "uint256"
        }
      ],
      "name": "RemoveToken",
      "type": "event"
    },
    {
      "anonymous": false,
      "inputs": [
        {
          "indexed": true,
          "internalType": "bytes32",
          "name": "role",
          "type": "bytes32"
        },
        {
          "indexed": true,
          "internalType": "bytes32",
          "name": "previousAdminRole",
          "type": "bytes32"
        },
        {
          "indexed": true,
          "internalType": "bytes32",
          "name": "newAdminRole",
          "type": "bytes32"
        }
      ],
      "name": "RoleAdminChanged",
      "type": "event"
    },
    {
      "anonymous": false,
      "inputs": [
        {
          "indexed": true,
          "internalType": "bytes32",
          "name": "role",
          "type": "bytes32"
        },
        {
          "indexed": true,
          "internalType": "address",
          "name": "account",
          "type": "address"
        },
        {
          "indexed": true,
          "internalType": "address",
          "name": "sender",
          "type": "address"
        }
      ],
      "name": "RoleGranted",
      "type": "event"
    },
    {
      "anonymous": false,
      "inputs": [
        {
          "indexed": true,
          "internalType": "bytes32",
          "name": "role",
          "type": "bytes32"
        },
        {
          "indexed": true,
          "internalType": "address",
          "name": "account",
          "type": "address"
        },
        {
          "indexed": true,
          "internalType": "address",
          "name": "sender",
          "type": "address"
        }
      ],
      "name": "RoleRevoked",
      "type": "event"
    },
    {
      "anonymous": false,
      "inputs": [
        {
          "indexed": false,
          "internalType": "address",
          "name": "account",
          "type": "address"
        }
      ],
      "name": "Unpaused",
      "type": "event"
    },
    {
      "inputs": [],
      "name": "ADMIN_ROLE",
      "outputs": [
        {
          "internalType": "bytes32",
          "name": "",
          "type": "bytes32"
        }
      ],
      "stateMutability": "view",
      "type": "function"
    },
    {
      "inputs": [],
      "name": "BNI",
      "outputs": [
        {
          "internalType": "contract IBNI",
          "name": "",
          "type": "address"
        }
      ],
      "stateMutability": "view",
      "type": "function"
    },
    {
      "inputs": [],
      "name": "DEFAULT_ADMIN_ROLE",
      "outputs": [
        {
          "internalType": "bytes32",
          "name": "",
          "type": "bytes32"
        }
      ],
      "stateMutability": "view",
      "type": "function"
    },
    {
      "inputs": [
        {
          "internalType": "uint256",
          "name": "_chainID",
          "type": "uint256"
        },
        {
          "internalType": "address",
          "name": "_token",
          "type": "address"
        }
      ],
      "name": "addToken",
      "outputs": [],
      "stateMutability": "nonpayable",
      "type": "function"
    },
    {
      "inputs": [],
      "name": "admin",
      "outputs": [
        {
          "internalType": "address",
          "name": "",
          "type": "address"
        }
      ],
      "stateMutability": "view",
      "type": "function"
    },
    {
      "inputs": [
        {
          "internalType": "address",
          "name": "_account",
          "type": "address"
        },
        {
          "internalType": "uint256",
          "name": "_pool",
          "type": "uint256"
        },
        {
          "internalType": "uint256",
          "name": "_share",
          "type": "uint256"
        }
      ],
      "name": "burnByAdmin",
      "outputs": [],
      "stateMutability": "nonpayable",
      "type": "function"
    },
    {
      "inputs": [
        {
          "internalType": "uint256",
          "name": "",
          "type": "uint256"
        }
      ],
      "name": "chainIDs",
      "outputs": [
        {
          "internalType": "uint256",
          "name": "",
          "type": "uint256"
        }
      ],
      "stateMutability": "view",
      "type": "function"
    },
    {
      "inputs": [
        {
          "internalType": "address",
          "name": "_account",
          "type": "address"
        }
      ],
      "name": "exitWithdrawalByAdmin",
      "outputs": [],
      "stateMutability": "nonpayable",
      "type": "function"
    },
    {
      "inputs": [],
      "name": "gatewaySigner",
      "outputs": [
        {
          "internalType": "address",
          "name": "",
          "type": "address"
        }
      ],
      "stateMutability": "view",
      "type": "function"
    },
    {
      "inputs": [
        {
          "internalType": "uint256[]",
          "name": "_allPoolInUSDs",
          "type": "uint256[]"
        },
        {
          "internalType": "uint256[]",
          "name": "_APRs",
          "type": "uint256[]"
        }
      ],
      "name": "getAPR",
      "outputs": [
        {
          "internalType": "uint256",
          "name": "",
          "type": "uint256"
        }
      ],
      "stateMutability": "pure",
      "type": "function"
    },
    {
      "inputs": [],
      "name": "getAPR1",
      "outputs": [
        {
          "internalType": "uint256",
          "name": "",
          "type": "uint256"
        }
      ],
      "stateMutability": "view",
      "type": "function"
    },
    {
      "inputs": [
        {
          "internalType": "bytes",
          "name": "result",
          "type": "bytes"
        },
        {
          "internalType": "bytes",
          "name": "extraData",
          "type": "bytes"
        }
      ],
      "name": "getAPR1WithSig",
      "outputs": [
        {
          "internalType": "uint256",
          "name": "",
          "type": "uint256"
        }
      ],
      "stateMutability": "view",
      "type": "function"
    },
    {
      "inputs": [
        {
          "internalType": "uint256[]",
          "name": "_allPoolInUSDs",
          "type": "uint256[]"
        }
      ],
      "name": "getAllPoolInUSD",
      "outputs": [
        {
          "internalType": "uint256",
          "name": "",
          "type": "uint256"
        }
      ],
      "stateMutability": "pure",
      "type": "function"
    },
    {
      "inputs": [],
      "name": "getAllPoolInUSD1",
      "outputs": [
        {
          "internalType": "uint256",
          "name": "",
          "type": "uint256"
        }
      ],
      "stateMutability": "view",
      "type": "function"
    },
    {
      "inputs": [
        {
          "internalType": "bytes",
          "name": "result",
          "type": "bytes"
        },
        {
          "internalType": "bytes",
          "name": "extraData",
          "type": "bytes"
        }
      ],
      "name": "getAllPoolInUSD1WithSig",
      "outputs": [
        {
          "internalType": "uint256",
          "name": "",
          "type": "uint256"
        }
      ],
      "stateMutability": "view",
      "type": "function"
    },
    {
      "inputs": [
        {
          "internalType": "uint256",
          "name": "_nonce",
          "type": "uint256"
        }
      ],
      "name": "getAllPoolInUSDAtNonce1",
      "outputs": [
        {
          "internalType": "uint256",
          "name": "",
          "type": "uint256"
        }
      ],
      "stateMutability": "view",
      "type": "function"
    },
    {
      "inputs": [
        {
          "internalType": "uint256[]",
          "name": "_chainIDs",
          "type": "uint256[]"
        },
        {
          "internalType": "address[]",
          "name": "_tokens",
          "type": "address[]"
        },
        {
          "internalType": "uint256[]",
          "name": "_poolInUSDs",
          "type": "uint256[]"
        }
      ],
      "name": "getCurrentTokenCompositionPerc",
      "outputs": [
        {
          "internalType": "uint256[]",
          "name": "",
          "type": "uint256[]"
        },
        {
          "internalType": "address[]",
          "name": "",
          "type": "address[]"
        },
        {
          "internalType": "uint256[]",
          "name": "pools",
          "type": "uint256[]"
        },
        {
          "internalType": "uint256[]",
          "name": "percentages",
          "type": "uint256[]"
        }
      ],
      "stateMutability": "view",
      "type": "function"
    },
    {
      "inputs": [],
      "name": "getCurrentTokenCompositionPerc1",
      "outputs": [
        {
          "internalType": "uint256[]",
          "name": "",
          "type": "uint256[]"
        },
        {
          "internalType": "address[]",
          "name": "",
          "type": "address[]"
        },
        {
          "internalType": "uint256[]",
          "name": "",
          "type": "uint256[]"
        },
        {
          "internalType": "uint256[]",
          "name": "",
          "type": "uint256[]"
        }
      ],
      "stateMutability": "view",
      "type": "function"
    },
    {
      "inputs": [
        {
          "internalType": "bytes",
          "name": "result",
          "type": "bytes"
        },
        {
          "internalType": "bytes",
          "name": "extraData",
          "type": "bytes"
        }
      ],
      "name": "getCurrentTokenCompositionPercWithSig",
      "outputs": [
        {
          "internalType": "uint256[]",
          "name": "",
          "type": "uint256[]"
        },
        {
          "internalType": "address[]",
          "name": "",
          "type": "address[]"
        },
        {
          "internalType": "uint256[]",
          "name": "",
          "type": "uint256[]"
        },
        {
          "internalType": "uint256[]",
          "name": "",
          "type": "uint256[]"
        }
      ],
      "stateMutability": "view",
      "type": "function"
    },
    {
      "inputs": [
        {
          "internalType": "uint256[]",
          "name": "_chainIDs",
          "type": "uint256[]"
        },
        {
          "internalType": "address[]",
          "name": "_tokens",
          "type": "address[]"
        },
        {
          "internalType": "uint256[]",
          "name": "_poolInUSDs",
          "type": "uint256[]"
        },
        {
          "internalType": "uint256",
          "name": "_USDT6Amt",
          "type": "uint256"
        }
      ],
      "name": "getDepositTokenComposition",
      "outputs": [
        {
          "internalType": "uint256[]",
          "name": "",
          "type": "uint256[]"
        },
        {
          "internalType": "address[]",
          "name": "",
          "type": "address[]"
        },
        {
          "internalType": "uint256[]",
          "name": "_USDT6Amts",
          "type": "uint256[]"
        }
      ],
      "stateMutability": "view",
      "type": "function"
    },
    {
      "inputs": [
        {
          "internalType": "uint256",
          "name": "_USDT6Amt",
          "type": "uint256"
        }
      ],
      "name": "getDepositTokenComposition1",
      "outputs": [
        {
          "internalType": "uint256[]",
          "name": "",
          "type": "uint256[]"
        },
        {
          "internalType": "address[]",
          "name": "",
          "type": "address[]"
        },
        {
          "internalType": "uint256[]",
          "name": "",
          "type": "uint256[]"
        }
      ],
      "stateMutability": "view",
      "type": "function"
    },
    {
      "inputs": [
        {
          "internalType": "bytes",
          "name": "result",
          "type": "bytes"
        },
        {
          "internalType": "bytes",
          "name": "extraData",
          "type": "bytes"
        }
      ],
      "name": "getDepositTokenComposition1WithSig",
      "outputs": [
        {
          "internalType": "uint256[]",
          "name": "",
          "type": "uint256[]"
        },
        {
          "internalType": "address[]",
          "name": "",
          "type": "address[]"
        },
        {
          "internalType": "uint256[]",
          "name": "",
          "type": "uint256[]"
        }
      ],
      "stateMutability": "view",
      "type": "function"
    },
    {
      "inputs": [],
      "name": "getNonce",
      "outputs": [
        {
          "internalType": "uint256",
          "name": "",
          "type": "uint256"
        }
      ],
      "stateMutability": "view",
      "type": "function"
    },
    {
      "inputs": [
        {
          "internalType": "uint256",
          "name": "_nonce",
          "type": "uint256"
        }
      ],
      "name": "getOperation",
      "outputs": [
        {
          "components": [
            {
              "internalType": "address",
              "name": "account",
              "type": "address"
            },
            {
              "internalType": "enum BNIMinterV1.OperationType",
              "name": "operation",
              "type": "uint8"
            },
            {
              "internalType": "uint256",
              "name": "amount",
              "type": "uint256"
            },
            {
              "internalType": "bool",
              "name": "done",
              "type": "bool"
            }
          ],
          "internalType": "struct BNIMinterV1.Operation",
          "name": "",
          "type": "tuple"
        }
      ],
      "stateMutability": "view",
      "type": "function"
    },
    {
      "inputs": [
        {
          "internalType": "uint256[]",
          "name": "_allPoolInUSDs",
          "type": "uint256[]"
        }
      ],
      "name": "getPricePerFullShare",
      "outputs": [
        {
          "internalType": "uint256",
          "name": "",
          "type": "uint256"
        }
      ],
      "stateMutability": "view",
      "type": "function"
    },
    {
      "inputs": [],
      "name": "getPricePerFullShare1",
      "outputs": [
        {
          "internalType": "uint256",
          "name": "",
          "type": "uint256"
        }
      ],
      "stateMutability": "view",
      "type": "function"
    },
    {
      "inputs": [
        {
          "internalType": "bytes",
          "name": "result",
          "type": "bytes"
        },
        {
          "internalType": "bytes",
          "name": "extraData",
          "type": "bytes"
        }
      ],
      "name": "getPricePerFullShare1WithSig",
      "outputs": [
        {
          "internalType": "uint256",
          "name": "",
          "type": "uint256"
        }
      ],
      "stateMutability": "view",
      "type": "function"
    },
    {
      "inputs": [
        {
          "internalType": "bytes32",
          "name": "role",
          "type": "bytes32"
        }
      ],
      "name": "getRoleAdmin",
      "outputs": [
        {
          "internalType": "bytes32",
          "name": "",
          "type": "bytes32"
        }
      ],
      "stateMutability": "view",
      "type": "function"
    },
    {
      "inputs": [
        {
          "internalType": "bytes32",
          "name": "role",
          "type": "bytes32"
        },
        {
          "internalType": "uint256",
          "name": "index",
          "type": "uint256"
        }
      ],
      "name": "getRoleMember",
      "outputs": [
        {
          "internalType": "address",
          "name": "",
          "type": "address"
        }
      ],
      "stateMutability": "view",
      "type": "function"
    },
    {
      "inputs": [
        {
          "internalType": "bytes32",
          "name": "role",
          "type": "bytes32"
        }
      ],
      "name": "getRoleMemberCount",
      "outputs": [
        {
          "internalType": "uint256",
          "name": "",
          "type": "uint256"
        }
      ],
      "stateMutability": "view",
      "type": "function"
    },
    {
      "inputs": [],
      "name": "getUSDTPriceInUSD",
      "outputs": [
        {
          "internalType": "uint256",
          "name": "",
          "type": "uint256"
        },
        {
          "internalType": "uint8",
          "name": "",
          "type": "uint8"
        }
      ],
      "stateMutability": "view",
      "type": "function"
    },
    {
      "inputs": [
        {
          "internalType": "address",
          "name": "_account",
          "type": "address"
        },
        {
          "internalType": "uint256",
          "name": "_share",
          "type": "uint256"
        }
      ],
      "name": "getWithdrawPerc",
      "outputs": [
        {
          "internalType": "uint256",
          "name": "_sharePerc",
          "type": "uint256"
        }
      ],
      "stateMutability": "view",
      "type": "function"
    },
    {
      "inputs": [
        {
          "internalType": "bytes32",
          "name": "role",
          "type": "bytes32"
        },
        {
          "internalType": "address",
          "name": "account",
          "type": "address"
        }
      ],
      "name": "grantRole",
      "outputs": [],
      "stateMutability": "nonpayable",
      "type": "function"
    },
    {
      "inputs": [
        {
          "internalType": "bytes32",
          "name": "role",
          "type": "bytes32"
        },
        {
          "internalType": "address",
          "name": "account",
          "type": "address"
        }
      ],
      "name": "hasRole",
      "outputs": [
        {
          "internalType": "bool",
          "name": "",
          "type": "bool"
        }
      ],
      "stateMutability": "view",
      "type": "function"
    },
    {
      "inputs": [
        {
          "internalType": "address",
          "name": "_account",
          "type": "address"
        },
        {
          "internalType": "uint256",
          "name": "_pool",
          "type": "uint256"
        },
        {
          "internalType": "uint256",
          "name": "_USDT6Amt",
          "type": "uint256"
        }
      ],
      "name": "initDepositByAdmin",
      "outputs": [],
      "stateMutability": "nonpayable",
      "type": "function"
    },
    {
      "inputs": [
        {
          "internalType": "address",
          "name": "_admin",
          "type": "address"
        },
        {
          "internalType": "address",
          "name": "_BNI",
          "type": "address"
        },
        {
          "internalType": "address",
          "name": "_priceOracle",
          "type": "address"
        }
      ],
      "name": "initialize",
      "outputs": [],
      "stateMutability": "nonpayable",
      "type": "function"
    },
    {
      "inputs": [
        {
          "internalType": "address",
          "name": "_userAgent",
          "type": "address"
        },
        {
          "internalType": "address",
          "name": "_biconomy",
          "type": "address"
        }
      ],
      "name": "initialize2",
      "outputs": [],
      "stateMutability": "nonpayable",
      "type": "function"
    },
    {
      "inputs": [
        {
          "internalType": "address",
          "name": "forwarder",
          "type": "address"
        }
      ],
      "name": "isTrustedForwarder",
      "outputs": [
        {
          "internalType": "bool",
          "name": "",
          "type": "bool"
        }
      ],
      "stateMutability": "view",
      "type": "function"
    },
    {
      "inputs": [
        {
          "internalType": "address",
          "name": "_account",
          "type": "address"
        },
        {
          "internalType": "uint256",
          "name": "_USDT6Amt",
          "type": "uint256"
        }
      ],
      "name": "mintByAdmin",
      "outputs": [],
      "stateMutability": "nonpayable",
      "type": "function"
    },
    {
      "inputs": [
        {
          "internalType": "uint256",
          "name": "",
          "type": "uint256"
        }
      ],
      "name": "operations",
      "outputs": [
        {
          "internalType": "address",
          "name": "account",
          "type": "address"
        },
        {
          "internalType": "enum BNIMinterV1.OperationType",
          "name": "operation",
          "type": "uint8"
        },
        {
          "internalType": "uint256",
          "name": "amount",
          "type": "uint256"
        },
        {
          "internalType": "bool",
          "name": "done",
          "type": "bool"
        }
      ],
      "stateMutability": "view",
      "type": "function"
    },
    {
      "inputs": [],
      "name": "owner",
      "outputs": [
        {
          "internalType": "address",
          "name": "",
          "type": "address"
        }
      ],
      "stateMutability": "view",
      "type": "function"
    },
    {
      "inputs": [],
      "name": "paused",
      "outputs": [
        {
          "internalType": "bool",
          "name": "",
          "type": "bool"
        }
      ],
      "stateMutability": "view",
      "type": "function"
    },
    {
      "inputs": [
        {
          "internalType": "uint256",
          "name": "",
          "type": "uint256"
        }
      ],
      "name": "poolsAtNonce",
      "outputs": [
        {
          "internalType": "uint256",
          "name": "",
          "type": "uint256"
        }
      ],
      "stateMutability": "view",
      "type": "function"
    },
    {
      "inputs": [],
      "name": "priceOracle",
      "outputs": [
        {
          "internalType": "contract IPriceOracle",
          "name": "",
          "type": "address"
        }
      ],
      "stateMutability": "view",
      "type": "function"
    },
    {
      "inputs": [],
      "name": "relpaceTokens",
      "outputs": [],
      "stateMutability": "nonpayable",
      "type": "function"
    },
    {
      "inputs": [
        {
          "internalType": "uint256",
          "name": "_tid",
          "type": "uint256"
        }
      ],
      "name": "removeToken",
      "outputs": [],
      "stateMutability": "nonpayable",
      "type": "function"
    },
    {
      "inputs": [],
      "name": "renounceOwnership",
      "outputs": [],
      "stateMutability": "nonpayable",
      "type": "function"
    },
    {
      "inputs": [
        {
          "internalType": "bytes32",
          "name": "role",
          "type": "bytes32"
        },
        {
          "internalType": "address",
          "name": "account",
          "type": "address"
        }
      ],
      "name": "renounceRole",
      "outputs": [],
      "stateMutability": "nonpayable",
      "type": "function"
    },
    {
      "inputs": [
        {
          "internalType": "bytes32",
          "name": "role",
          "type": "bytes32"
        },
        {
          "internalType": "address",
          "name": "account",
          "type": "address"
        }
      ],
      "name": "revokeRole",
      "outputs": [],
      "stateMutability": "nonpayable",
      "type": "function"
    },
    {
      "inputs": [
        {
          "internalType": "address",
          "name": "_admin",
          "type": "address"
        }
      ],
      "name": "setAdmin",
      "outputs": [],
      "stateMutability": "nonpayable",
      "type": "function"
    },
    {
      "inputs": [
        {
          "internalType": "address",
          "name": "_biconomy",
          "type": "address"
        }
      ],
      "name": "setBiconomy",
      "outputs": [],
      "stateMutability": "nonpayable",
      "type": "function"
    },
    {
      "inputs": [
        {
          "internalType": "address",
          "name": "_signer",
          "type": "address"
        }
      ],
      "name": "setGatewaySigner",
      "outputs": [],
      "stateMutability": "nonpayable",
      "type": "function"
    },
    {
      "inputs": [
        {
          "internalType": "address",
          "name": "_priceOracle",
          "type": "address"
        }
      ],
      "name": "setPriceOracle",
      "outputs": [],
      "stateMutability": "nonpayable",
      "type": "function"
    },
    {
      "inputs": [
        {
          "internalType": "uint256[]",
          "name": "_targetPerc",
          "type": "uint256[]"
        }
      ],
      "name": "setTokenCompositionTargetPerc",
      "outputs": [],
      "stateMutability": "nonpayable",
      "type": "function"
    },
    {
      "inputs": [
        {
          "internalType": "string[]",
          "name": "_urls",
          "type": "string[]"
        }
      ],
      "name": "setUrls",
      "outputs": [],
      "stateMutability": "nonpayable",
      "type": "function"
    },
    {
      "inputs": [
        {
          "internalType": "address",
          "name": "_userAgent",
          "type": "address"
        }
      ],
      "name": "setUserAgent",
      "outputs": [],
      "stateMutability": "nonpayable",
      "type": "function"
    },
    {
      "inputs": [
        {
          "internalType": "bytes4",
          "name": "interfaceId",
          "type": "bytes4"
        }
      ],
      "name": "supportsInterface",
      "outputs": [
        {
          "internalType": "bool",
          "name": "",
          "type": "bool"
        }
      ],
      "stateMutability": "view",
      "type": "function"
    },
    {
      "inputs": [
        {
          "internalType": "uint256",
          "name": "",
          "type": "uint256"
        }
      ],
      "name": "targetPercentages",
      "outputs": [
        {
          "internalType": "uint256",
          "name": "",
          "type": "uint256"
        }
      ],
      "stateMutability": "view",
      "type": "function"
    },
    {
      "inputs": [
        {
          "internalType": "uint256",
          "name": "",
          "type": "uint256"
        },
        {
          "internalType": "address",
          "name": "",
          "type": "address"
        }
      ],
      "name": "tid",
      "outputs": [
        {
          "internalType": "uint256",
          "name": "",
          "type": "uint256"
        }
      ],
      "stateMutability": "view",
      "type": "function"
    },
    {
      "inputs": [
        {
          "internalType": "uint256",
          "name": "",
          "type": "uint256"
        }
      ],
      "name": "tokens",
      "outputs": [
        {
          "internalType": "address",
          "name": "",
          "type": "address"
        }
      ],
      "stateMutability": "view",
      "type": "function"
    },
    {
      "inputs": [
        {
          "internalType": "address",
          "name": "newOwner",
          "type": "address"
        }
      ],
      "name": "transferOwnership",
      "outputs": [],
      "stateMutability": "nonpayable",
      "type": "function"
    },
    {
      "inputs": [],
      "name": "trustedForwarder",
      "outputs": [
        {
          "internalType": "address",
          "name": "",
          "type": "address"
        }
      ],
      "stateMutability": "view",
      "type": "function"
    },
    {
      "inputs": [
        {
          "internalType": "uint256",
          "name": "",
          "type": "uint256"
        }
      ],
      "name": "urls",
      "outputs": [
        {
          "internalType": "string",
          "name": "",
          "type": "string"
        }
      ],
      "stateMutability": "view",
      "type": "function"
    },
    {
      "inputs": [],
      "name": "userAgent",
      "outputs": [
        {
          "internalType": "address",
          "name": "",
          "type": "address"
        }
      ],
      "stateMutability": "view",
      "type": "function"
    },
    {
      "inputs": [
        {
          "internalType": "address",
          "name": "",
          "type": "address"
        }
      ],
      "name": "userLastOperationNonce",
      "outputs": [
        {
          "internalType": "uint256",
          "name": "",
          "type": "uint256"
        }
      ],
      "stateMutability": "view",
      "type": "function"
    },
    {
      "inputs": [],
      "name": "version",
      "outputs": [
        {
          "internalType": "uint256",
          "name": "",
          "type": "uint256"
        }
      ],
      "stateMutability": "view",
      "type": "function"
    },
    {
      "inputs": [],
      "name": "versionRecipient",
      "outputs": [
        {
          "internalType": "string",
          "name": "",
          "type": "string"
        }
      ],
      "stateMutability": "pure",
      "type": "function"
    }
  ],
  "transactionHash": "0xd429eef65225af11708341af447e8eaf6b20afb85e06084aa0a07cd24b19084e",
  "args": [],
  "numDeployments": 19,
  "solcInputHash": "8fb37d3d62d31049357507871c7ce04d",
  "bytecode": "0x608060405234801561001057600080fd5b506152e9806100206000396000f3fe608060405234801561001057600080fd5b50600436106103f15760003560e01c80637fb2df4211610215578063c0c53b8b11610125578063e629f7b3116100b8578063f2fde38b11610087578063f2fde38b14610905578063f3253c6314610918578063f77de4861461092b578063f851a4401461093e578063fd6878cc1461095157600080fd5b8063e629f7b3146108c4578063ec2e54c7146108d7578063ece90e90146108ea578063f2f3325a146108f257600080fd5b8063d3b974a0116100f4578063d3b974a014610878578063d547741f1461088b578063da3bc85c1461089e578063dd8aae41146108b157600080fd5b8063c0c53b8b14610837578063ca15c8731461084a578063cb25bb651461085d578063d087d2881461087057600080fd5b8063a08ce520116101a8578063af3da2f411610177578063af3da2f4146107bb578063b2e9949d146107ce578063b47c6a27146107f1578063b9bd5bb514610810578063bdf1c4a11461082357600080fd5b8063a08ce52014610785578063a217fddf14610798578063a7645a20146107a0578063af05a749146107b357600080fd5b80639434b989116101e45780639434b9891461073957806397cd02e61461074c5780639ecb6fae1461075f5780639f86d4dd1461077257600080fd5b80637fb2df42146106ef5780638da5cb5b146107025780639010d07c1461071357806391d148541461072657600080fd5b806349445553116103105780635c975abb116102a3578063715018a611610272578063715018a61461069957806375b238fc146106a1578063796676be146106b65780637da0a877146106c95780637ed66ec6146106dc57600080fd5b80635c975abb146106555780636628f945146106605780636cc895a914610673578063704b6c021461068657600080fd5b806354fd4d50116102df57806354fd4d501461060e57806357016b0a14610618578063572b6c051461062b5780635796d0b01461064d57600080fd5b806349445553146105be5780634f64b2be146105e05780635042f9b6146105f3578063530e784f146105fb57600080fd5b80632630c12f1161038857806338a871631161035757806338a871631461054f57806340b8e57f1461057257806343a463c714610585578063486ff0cd1461059857600080fd5b80632630c12f146104eb5780632f2ff15d1461051657806336568abe1461052957806336c5d7241461053c57600080fd5b806319dac5af116103c457806319dac5af1461045c5780631c60ffc31461047c578063202e3924146104a7578063248a9ca3146104c757600080fd5b806301ffc9a7146103f657806309d23e241461041e5780630d8b76a81461043f57806317409ec314610454575b600080fd5b610409610404366004614293565b610964565b60405190151581526020015b60405180910390f35b61043161042c3660046142bd565b61098f565b604051908152602001610415565b61045261044d3660046142ed565b6109b0565b005b610452610a24565b61043161046a3660046142ed565b60d46020526000908152604090205481565b61043161048a366004614308565b60cc60209081526000928352604080842090915290825290205481565b6104ba6104b53660046142bd565b610c79565b604051610415919061436c565b6104316104d53660046142bd565b6000908152610107602052604090206001015490565b60cf546104fe906001600160a01b031681565b6040516001600160a01b039091168152602001610415565b610452610524366004614308565b610d3c565b610452610537366004614308565b610d67565b61045261054a3660046142bd565b610df5565b61056261055d3660046143ee565b6110f0565b60405161041594939291906144cd565b6104316105803660046143ee565b6111e9565b610452610593366004614525565b611260565b6040805180820190915260018152603160f81b60208201525b60405161041591906145b0565b6105d16105cc3660046142bd565b6112d1565b604051610415939291906145c3565b6104fe6105ee3660046142bd565b611345565b61043161136f565b6104526106093660046142ed565b6113ba565b61043161016b5481565b610452610626366004614308565b611425565b6104096106393660046142ed565b60d2546001600160a01b0391821691161490565b61056261163a565b60655460ff16610409565b61045261066e3660046142ed565b61168d565b6104526106813660046146bc565b61173d565b6104526106943660046142ed565b611799565b610452611847565b61043160008051602061529483398151915281565b6105b16106c43660046142bd565b61189c565b60d2546104fe906001600160a01b031681565b6105d16106ea3660046143ee565b611948565b6104526106fd366004614786565b6119e2565b6097546001600160a01b03166104fe565b6104fe6107213660046147fa565b611b30565b610409610734366004614308565b611b50565b61045261074736600461481c565b611b7c565b61043161075a3660046148ac565b611cb7565b61043161076d3660046142bd565b611d7d565b6104316107803660046148e8565b611dec565b6104316107933660046143ee565b611f55565b610431600081565b6104316107ae3660046142bd565b611fc5565b610431611fd5565b6104526107c93660046148e8565b612020565b6107e16107dc3660046142bd565b61224e565b6040516104159493929190614912565b6107f9612299565b6040805192835260ff909116602083015201610415565b61045261081e3660046142ed565b612334565b61016c546104fe906001600160a01b031681565b610452610845366004614946565b61239f565b6104316108583660046142bd565b612422565b61056261086b3660046149eb565b61243a565b60d354610431565b6105d1610886366004614a72565b612638565b610452610899366004614308565b61296f565b6104316108ac366004614b01565b612995565b6104316108bf3660046148ac565b612a7e565b6104526108d2366004614525565b612acf565b60ce546104fe906001600160a01b031681565b610431612c65565b6104316109003660046142bd565b612cb0565b6104526109133660046142ed565b612cc1565b60d1546104fe906001600160a01b031681565b6104526109393660046142ed565b612d4c565b60cd546104fe906001600160a01b031681565b61043161095f3660046143ee565b612d6f565b60006001600160e01b03198216635a05180f60e01b1480610989575061098982612dd3565b92915050565b60c9818154811061099f57600080fd5b600091825260209091200154905081565b6109b8612e08565b6001600160a01b03166109d36097546001600160a01b031690565b6001600160a01b031614610a025760405162461bcd60e51b81526004016109f990614b64565b60405180910390fd5b60d280546001600160a01b0319166001600160a01b0392909216919091179055565b610a2c612e08565b6001600160a01b0316610a476097546001600160a01b031690565b6001600160a01b031614610a6d5760405162461bcd60e51b81526004016109f990614b64565b60c9805480610a7e57610a7e614b99565b6001900381819060005260206000200160009055905560c9805480610aa557610aa5614b99565b6001900381819060005260206000200160009055905560c9805480610acc57610acc614b99565b600082815260208120820160001990810182905590910190915560c980546001818101835592829052620138817f66be4f155c5ef2ebd3772b228f2f00681e4ed5826cdb3b1943cc11ad15ad1d28918201558154808401835561a869908201558154928301909155634e45415391015560ca805480610b4d57610b4d614b99565b600082815260209020810160001990810180546001600160a01b031916905501905560ca805480610b8057610b80614b99565b600082815260209020810160001990810180546001600160a01b031916905501905560ca805480610bb357610bb3614b99565b600082815260208120820160001990810180546001600160a01b0319908116909155920190925560ca805460018181018355938290527f42d72674974f694b5f5159593243114d38a5c39c89d6b62fee061ff523240ee190810180548416739c3c9283d3e44854697cd22d3faa240cfb0328891790558154808501835581018054841673d00ae08403b9bbb9124bb305c09058e32c39a48c1790558154938401909155919091018054909116734861825e75ab14553e5af711ebbe6873d369d146179055565b60408051608081018252600080825260208201819052918101829052606081019190915260d3610caa600184614bc5565b81548110610cba57610cba614bdc565b6000918252602091829020604080516080810190915260039092020180546001600160a01b0381168352919290919083019060ff600160a01b909104166002811115610d0857610d08614334565b6002811115610d1957610d19614334565b81526001820154602082015260029091015460ff16151560409091015292915050565b60008281526101076020526040902060010154610d5881612e3c565b610d628383612e4d565b505050565b610d6f612e08565b6001600160a01b0316816001600160a01b031614610de75760405162461bcd60e51b815260206004820152602f60248201527f416363657373436f6e74726f6c3a2063616e206f6e6c792072656e6f756e636560448201526e103937b632b9903337b91039b2b63360891b60648201526084016109f9565b610df18282612e70565b5050565b610dfd612e08565b6001600160a01b0316610e186097546001600160a01b031690565b6001600160a01b031614610e3e5760405162461bcd60e51b81526004016109f990614b64565b60ca54808210610e7e5760405162461bcd60e51b815260206004820152600b60248201526a125b9d985b1a59081d1a5960aa1b60448201526064016109f9565b600060c98381548110610e9357610e93614bdc565b90600052602060002001549050600060ca8481548110610eb557610eb5614bdc565b600091825260208220015460cb80546001600160a01b0390921693509086908110610ee257610ee2614bdc565b9060005260206000200154905060c9600185610efe9190614bc5565b81548110610f0e57610f0e614bdc565b906000526020600020015460c98681548110610f2c57610f2c614bdc565b60009182526020909120015560c9805480610f4957610f49614b99565b6001900381819060005260206000200160009055905560ca600185610f6e9190614bc5565b81548110610f7e57610f7e614bdc565b60009182526020909120015460ca80546001600160a01b039092169187908110610faa57610faa614bdc565b9060005260206000200160006101000a8154816001600160a01b0302191690836001600160a01b0316021790555060ca805480610fe957610fe9614b99565b600082815260209020810160001990810180546001600160a01b031916905501905560cb611018600186614bc5565b8154811061102857611028614bdc565b906000526020600020015460cb868154811061104657611046614bdc565b60009182526020909120015560cb80548061106357611063614b99565b60008281526020808220830160001990810183905590920190925584825260cc815260408083206001600160a01b03861684529091528120556110a4612e93565b84826001600160a01b0316847fd8cc1d279bf727e9ee02c4ed116f7c12f4965ace9b477482de71a7929a1871b3846040516110e191815260200190565b60405180910390a45050505050565b606080808060008080806111068b8d018d614c12565b935093509350935060006111968286868660405160200161112993929190614ce3565b60408051601f198184030181529082905280516020918201207f19457468657265756d205369676e6564204d6573736167653a0a33320000000091830191909152603c820152605c0160405160208183030381529060405280519060200120612fd690919063ffffffff16565b60d1549091506001600160a01b038083169116146111c65760405162461bcd60e51b81526004016109f990614d2c565b6111d185858561243a565b98509850985098505050505050945094509450949050565b60008080806111fa87890189614d59565b9250925092506000611219828585604051602001611129929190614dd6565b60d1549091506001600160a01b038083169116146112495760405162461bcd60e51b81526004016109f990614d2c565b6112538484612995565b9998505050505050505050565b60008051602061529483398151915261127881612e3c565b60655460ff16156112be5760405162461bcd60e51b815260206004820152601060248201526f14185d5cd8589b194e881c185d5cd95960821b60448201526064016109f9565b6112cb8460018585612ff2565b50505050565b6040805160048152602481018252602080820180516001600160e01b0316633c1d708960e01b179052825190810184905260609283928392309260d09291633f6b376360e11b91015b60408051601f1981840301815290829052630556f18360e41b82526109f99594939291600401614e26565b60ca818154811061135557600080fd5b6000918252602090912001546001600160a01b0316905081565b6040805160048152602481018252602080820180516001600160e01b03166328217cdb60e11b179052825160009181018290529092309260d0929091630504672960e51b910161131a565b6113c2612e08565b6001600160a01b03166113dd6097546001600160a01b031690565b6001600160a01b0316146114035760405162461bcd60e51b81526004016109f990614b64565b60cf80546001600160a01b0319166001600160a01b0392909216919091179055565b61142d612e08565b6001600160a01b03166114486097546001600160a01b031690565b6001600160a01b03161461146e5760405162461bcd60e51b81526004016109f990614b64565b600082815260cc602090815260408083206001600160a01b0385168452909152902054801580156114bd575060c96000815481106114ae576114ae614bdc565b90600052602060002001548314155b80156114f4575060ca6000815481106114d8576114d8614bdc565b6000918252602090912001546001600160a01b03838116911614155b6115305760405162461bcd60e51b815260206004820152600d60248201526c105b1c9958591e481859191959609a1b60448201526064016109f9565b60c9805460018082019092557f66be4f155c5ef2ebd3772b228f2f00681e4ed5826cdb3b1943cc11ad15ad1d280184905560ca805480830182557f42d72674974f694b5f5159593243114d38a5c39c89d6b62fee061ff523240ee10180546001600160a01b0319166001600160a01b03861617905560cb8054808401825560009182527fa7ce836d032b2bf62b7e2097a8e0a6d8aeb35405ad15271e96d3b0188a1d06fb0155546115e19190614bc5565b600084815260cc602090815260408083206001600160a01b0387168085529252808320849055519293508392909186917fefa15d4fefbb71d07b3cdc624ab208ebe2d3b6933946582fd8b807e8a5bc93cc9190a4505050565b6040805160048152602481018252602080820180516001600160e01b03166305796d0b60e41b1790528251600091810191909152606092839283928392309260d09290916338a8716360e01b910161131a565b611695612e08565b6001600160a01b03166116b06097546001600160a01b031690565b6001600160a01b0316146116d65760405162461bcd60e51b81526004016109f990614b64565b61016c546001600160a01b031680156117015761170160008051602061529483398151915282612e70565b61016c80546001600160a01b0319166001600160a01b03841690811790915515610df157610df1600080516020615294833981519152836131e0565b611745612e08565b6001600160a01b03166117606097546001600160a01b031690565b6001600160a01b0316146117865760405162461bcd60e51b81526004016109f990614b64565b8051610df19060d090602084019061414a565b6117a1612e08565b6001600160a01b03166117bc6097546001600160a01b031690565b6001600160a01b0316146117e25760405162461bcd60e51b81526004016109f990614b64565b60cd546001600160a01b0316801561180c5761180c60008051602061529483398151915282612e70565b60cd80546001600160a01b0319166001600160a01b03841690811790915515610df157610df1600080516020615294833981519152836131e0565b61184f612e08565b6001600160a01b031661186a6097546001600160a01b031690565b6001600160a01b0316146118905760405162461bcd60e51b81526004016109f990614b64565b61189a60006131ea565b565b60d081815481106118ac57600080fd5b9060005260206000200160009150905080546118c790614deb565b80601f01602080910402602001604051908101604052809291908181526020018280546118f390614deb565b80156119405780601f1061191557610100808354040283529160200191611940565b820191906000526020600020905b81548152906001019060200180831161192357829003601f168201915b505050505081565b60608080600061195a858701876142bd565b9050600080808061196d8b8d018d614c12565b935093509350935060006119908286868660405160200161112993929190614ce3565b60d1549091506001600160a01b038083169116146119c05760405162461bcd60e51b81526004016109f990614d2c565b6119cc85858589612638565b9850985098505050505050509450945094915050565b6119ea612e08565b6001600160a01b0316611a056097546001600160a01b031690565b6001600160a01b031614611a2b5760405162461bcd60e51b81526004016109f990614b64565b60cb5481908114611a6e5760405162461bcd60e51b815260206004820152600d60248201526c125b9d985b1a590818dbdd5b9d609a1b60448201526064016109f9565b6000805b82811015611aea57848482818110611a8c57611a8c614bdc565b9050602002013560cb8281548110611aa657611aa6614bdc565b600091825260209091200155848482818110611ac457611ac4614bdc565b9050602002013582611ad69190614f53565b915080611ae281614f6b565b915050611a72565b5061271081146112cb5760405162461bcd60e51b815260206004820152601160248201527024b73b30b634b2103830b930b6b2ba32b960791b60448201526064016109f9565b600082815261013960205260408120611b49908361323c565b9392505050565b6000918252610107602090815260408084206001600160a01b0393909316845291905290205460ff1690565b611b84612e08565b6001600160a01b0316611b9f6097546001600160a01b031690565b6001600160a01b031614611bc55760405162461bcd60e51b81526004016109f990614b64565b600261016b5410611c095760405162461bcd60e51b815260206004820152600e60248201526d105b1c9958591e4818d85b1b195960921b60448201526064016109f9565b600261016b55611c2b6000611c266097546001600160a01b031690565b6131e0565b60cd546001600160a01b031615611c615760cd54611c6190600080516020615294833981519152906001600160a01b03166131e0565b6001600160a01b03821615611c8857611c88600080516020615294833981519152836131e0565b61016c80546001600160a01b039384166001600160a01b03199182161790915560d28054929093169116179055565b60008060ce60009054906101000a90046001600160a01b03166001600160a01b03166318160ddd6040518163ffffffff1660e01b815260040160206040518083038186803b158015611d0857600080fd5b505afa158015611d1c573d6000803e3d6000fd5b505050506040513d601f19601f82011682018060405250810190611d409190614f86565b905080611d575750670de0b6b3a764000092915050565b80611d6184612a7e565b611d7390670de0b6b3a7640000614f9f565b611b499190614fbe565b60003060d0639ecb6fae60e01b84604051602401611d9d91815260200190565b60408051601f19818403018152918152602080830180516001600160e01b03166001600160e01b031990951694909417909352519091630504672960e51b9161131a9188910190815260200190565b6000816000108015611e7a575060ce546040516370a0823160e01b81526001600160a01b038581166004830152909116906370a082319060240160206040518083038186803b158015611e3e57600080fd5b505afa158015611e52573d6000803e3d6000fd5b505050506040513d601f19601f82011682018060405250810190611e769190614f86565b8211155b611ebd5760405162461bcd60e51b8152602060048201526014602482015273125b9d985b1a59081cda185c9948185b5bdd5b9d60621b60448201526064016109f9565b60ce60009054906101000a90046001600160a01b03166001600160a01b03166318160ddd6040518163ffffffff1660e01b815260040160206040518083038186803b158015611f0b57600080fd5b505afa158015611f1f573d6000803e3d6000fd5b505050506040513d601f19601f82011682018060405250810190611f439190614f86565b611d7383670de0b6b3a7640000614f9f565b60008080611f6586880188614fe0565b915091506000611f8082846040516020016111299190615039565b60d1549091506001600160a01b03808316911614611fb05760405162461bcd60e51b81526004016109f990614d2c565b611fb983612a7e565b98975050505050505050565b60cb818154811061099f57600080fd5b6040805160048152602481018252602080820180516001600160e01b031663af05a74960e01b179052825160009181018290529092309260d0929091633f5a1e3360e21b910161131a565b60008051602061529483398151915261203881612e3c565b60655460ff161561207e5760405162461bcd60e51b815260206004820152601060248201526f14185d5cd8589b194e881c185d5cd95960821b60448201526064016109f9565b600061208b846001613248565b509050600080612099612299565b909250905060006120ab82600a615129565b836120bb8864e8d4a51000614f9f565b6120c59190614f9f565b6120cf9190614fbe565b9050600060ce60009054906101000a90046001600160a01b03166001600160a01b03166318160ddd6040518163ffffffff1660e01b815260040160206040518083038186803b15801561212157600080fd5b505afa158015612135573d6000803e3d6000fd5b505050506040513d601f19601f820116820180604052508101906121599190614f86565b90506000811580612168575085155b61218657856121778484614f9f565b6121819190614fbe565b612188565b825b90506103e8612199826103e5614f9f565b6121a39190614fbe565b60ce546040516340c10f1960e01b81526001600160a01b038c81166004830152602482018490529293509116906340c10f1990604401600060405180830381600087803b1580156121f357600080fd5b505af1158015612207573d6000803e3d6000fd5b5050505080838a6001600160a01b03167f4c209b5fc8ad50758f13e2e1088ba56a560dff690a1c6fef26394f4c03821c4f60405160405180910390a4505050505050505050565b60d3818154811061225e57600080fd5b60009182526020909120600390910201805460018201546002909201546001600160a01b038216935060ff600160a01b909204821692911684565b60cf5460405163b3596f0760e01b81527378ae2880bd1672b49a33cf796cf53fe6db0ab01d600482015260009182916001600160a01b039091169063b3596f0790602401604080518083038186803b1580156122f457600080fd5b505afa158015612308573d6000803e3d6000fd5b505050506040513d601f19601f8201168201806040525081019061232c9190615138565b915091509091565b61233c612e08565b6001600160a01b03166123576097546001600160a01b031690565b6001600160a01b03161461237d5760405162461bcd60e51b81526004016109f990614b64565b60d180546001600160a01b0319166001600160a01b0392909216919091179055565b60006123ab600161339e565b905080156123c3576000805461ff0019166101001790555b6123ce84848461342b565b6123d6610a24565b80156112cb576000805461ff0019169055604051600181527f7f26b83ff96e1f2b6a682f133852f6798a09c465da95921460cefb3847402498906020015b60405180910390a150505050565b600081815261013960205260408120610989906136a2565b60608060608061244b8787876136ac565b80519092506000805b828110156124955784818151811061246e5761246e614bdc565b6020026020010151826124819190614f53565b91508061248d81614f6b565b915050612454565b50816001600160401b038111156124ae576124ae6145fc565b6040519080825280602002602001820160405280156124d7578160200160208202803683370190505b50925060005b82811015612570578115612522578161271086838151811061250157612501614bdc565b60200260200101516125139190614f9f565b61251d9190614fbe565b612541565b60cb818154811061253557612535614bdc565b90600052602060002001545b84828151811061255357612553614bdc565b60209081029190910101528061256881614f6b565b9150506124dd565b5060c960ca8585838054806020026020016040519081016040528092919081815260200182805480156125c257602002820191906000526020600020905b8154815260200190600101908083116125ae575b505050505093508280548060200260200160405190810160405280929190818152602001828054801561261e57602002820191906000526020600020905b81546001600160a01b03168152600190910190602001808311612600575b505050505092509550955095509550505093509350935093565b606080606060008061264b89898961243a565b935093505050600081519050600080612662612299565b9092509050600061267482600a615129565b836126848c64e8d4a51000614f9f565b61268e9190614f9f565b6126989190614fbe565b905060005b848110156126de578681815181106126b7576126b7614bdc565b6020026020010151826126ca9190614f53565b9150806126d681614f6b565b91505061269d565b50600080856001600160401b038111156126fa576126fa6145fc565b604051908082528060200260200182016040528015612723578160200160208202803683370190505b50905060005b868110156127f457600061271060cb838154811061274957612749614bdc565b90600052602060002001548661275f9190614f9f565b6127699190614fbe565b9050808a838151811061277e5761277e614bdc565b602002602001015110156127e15760008a83815181106127a0576127a0614bdc565b6020026020010151826127b39190614bc5565b9050808484815181106127c8576127c8614bdc565b60209081029190910101526127dd8186614f53565b9450505b50806127ec81614f6b565b915050612729565b50856001600160401b0381111561280d5761280d6145fc565b604051908082528060200260200182016040528015612836578160200160208202803683370190505b50985060005b868110156128a3578282828151811061285757612857614bdc565b60200260200101518e61286a9190614f9f565b6128749190614fbe565b8a828151811061288657612886614bdc565b60209081029190910101528061289b81614f6b565b91505061283c565b5060c960ca8a828054806020026020016040519081016040528092919081815260200182805480156128f457602002820191906000526020600020905b8154815260200190600101908083116128e0575b505050505092508180548060200260200160405190810160405280929190818152602001828054801561295057602002820191906000526020600020905b81546001600160a01b03168152600190910190602001808311612932575b505050505091509a509a509a5050505050505050509450945094915050565b6000828152610107602052604090206001015461298b81612e3c565b610d628383612e70565b815181516000919081146129e45760405162461bcd60e51b815260206004820152601660248201527509cdee840dac2e8c6d040c2e4e4c2f240d8cadccee8d60531b60448201526064016109f9565b60006129ef85612a7e565b905080612a0157600092505050610989565b6000805b83811015612a6957868181518110612a1f57612a1f614bdc565b6020026020010151868281518110612a3957612a39614bdc565b6020026020010151612a4b9190614f9f565b612a559083614f53565b915080612a6181614f6b565b915050612a05565b50612a748282614fbe565b9695505050505050565b805160009081805b82811015612ac757848181518110612aa057612aa0614bdc565b602002602001015182612ab39190614f53565b915080612abf81614f6b565b915050612a86565b509392505050565b600080516020615294833981519152612ae781612e3c565b816000108015612b73575060ce546040516370a0823160e01b81526001600160a01b038681166004830152909116906370a082319060240160206040518083038186803b158015612b3757600080fd5b505afa158015612b4b573d6000803e3d6000fd5b505050506040513d601f19601f82011682018060405250810190612b6f9190614f86565b8211155b612bb65760405162461bcd60e51b8152602060048201526014602482015273125b9d985b1a59081cda185c9948185b5bdd5b9d60621b60448201526064016109f9565b612bc38460028585612ff2565b60ce5460405163079cc67960e41b81526001600160a01b03868116600483015260248201859052909116906379cc679090604401600060405180830381600087803b158015612c1157600080fd5b505af1158015612c25573d6000803e3d6000fd5b50506040518492506001600160a01b03871691507fcc16f5dbb4873280815c1ee09dbd06736cffcc184412cf7a71a0fdb75d397ca590600090a350505050565b6040805160048152602481018252602080820180516001600160e01b0316630ece90e960e41b179052825160009181018290529092309260d09290916340b8e57f60e01b910161131a565b61016d818154811061099f57600080fd5b612cc9612e08565b6001600160a01b0316612ce46097546001600160a01b031690565b6001600160a01b031614612d0a5760405162461bcd60e51b81526004016109f990614b64565b612d266000612d216097546001600160a01b031690565b612e70565b612d2f8161383c565b6001600160a01b03811615612d4957612d496000826131e0565b50565b600080516020615294833981519152612d6481612e3c565b6112cb826002613248565b60008080612d7f86880188614fe0565b915091506000612d9a82846040516020016111299190615039565b60d1549091506001600160a01b03808316911614612dca5760405162461bcd60e51b81526004016109f990614d2c565b611fb983611cb7565b60006001600160e01b03198216637965db0b60e01b148061098957506301ffc9a760e01b6001600160e01b0319831614610989565b600060183610801590612e25575060d2546001600160a01b031633145b15612e37575060131936013560601c90565b503390565b612d4981612e48612e08565b6138f3565b612e578282613957565b600082815261013960205260409020610d6290826139df565b612e7a82826139f4565b600082815261013960205260409020610d629082613a7a565b600060c9805480602002602001604051908101604052809291908181526020018280548015612ee157602002820191906000526020600020905b815481526020019060010190808311612ecd575b50505050509050600060ca805480602002602001604051908101604052809291908181526020018280548015612f4057602002820191906000526020600020905b81546001600160a01b03168152600190910190602001808311612f22575b505083519394506000925050505b818110156112cb578060cc6000868481518110612f6d57612f6d614bdc565b602002602001015181526020019081526020016000206000858481518110612f9757612f97614bdc565b60200260200101516001600160a01b03166001600160a01b03168152602001908152602001600020819055508080612fce90614f6b565b915050612f4e565b6000806000612fe58585613a8f565b91509150612ac781613afc565b6001600160a01b038416600090815260d46020526040902054801561307157600061301c82610c79565b9050806060015161306f5760405162461bcd60e51b815260206004820152601f60248201527f50726576696f7573206f7065726174696f6e206e6f742066696e69736865640060448201526064016109f9565b505b60d36040518060800160405280876001600160a01b0316815260200186600281111561309f5761309f614334565b8152602080820186905260006040909201829052835460018101855593825290819020825160039094020180546001600160a01b039094166001600160a01b031985168117825591830151929390929183916001600160a81b03191617600160a01b83600281111561311357613113614334565b021790555060408201516001828101919091556060909201516002909101805460ff191691151591909117905561016d805491820181556000527f535f6990c27693b80d059530c371f53ea19bfc595ef3bd58348694aac90953000183905560d3546001600160a01b038616600090815260d4602052604090208190559050808460028111156131a5576131a5614334565b866001600160a01b03167f10d3887b2457af3c1a2b037160ac9b072afe851d7835cc253ee6c0d47cbd4281856040516110e191815260200190565b610df18282612e4d565b609780546001600160a01b038381166001600160a01b0319831681179093556040519116919082907f8be0079c531659141344cd1fd0a4f28419497f9722a3daafe3b4186f6b6457e090600090a35050565b6000611b498383613cb7565b6001600160a01b038216600090815260d4602052604081205481908061329f5760405162461bcd60e51b815260206004820152600c60248201526b27379037b832b930ba34b7b760a11b60448201526064016109f9565b60006132aa82610c79565b90508460028111156132be576132be614334565b816020015160028111156132d4576132d4614334565b1480156132e357506060810151155b6133225760405162461bcd60e51b815260206004820152601060248201526f105b1c9958591e48199a5b9a5cda195960821b60448201526064016109f9565b600160d36133308285614bc5565b8154811061334057613340614bdc565b60009182526020909120600390910201600201805460ff191691151591909117905561016d613370600184614bc5565b8154811061338057613380614bdc565b906000526020600020015481604001519350935050505b9250929050565b60008054610100900460ff16156133e5578160ff1660011480156133c15750303b155b6133dd5760405162461bcd60e51b81526004016109f99061516e565b506000919050565b60005460ff80841691161061340c5760405162461bcd60e51b81526004016109f99061516e565b506000805460ff191660ff92909216919091179055600190565b919050565b6000613437600161339e565b9050801561344f576000805461ff0019166101001790555b613457613ce1565b60cd80546001600160a01b038087166001600160a01b03199283161790925560ce805486841690831617905560cf80549285169282169290921790915560c980546001818101835560897f66be4f155c5ef2ebd3772b228f2f00681e4ed5826cdb3b1943cc11ad15ad1d28928301558254808201845561a86a908301558254808201909355634e454152929091019190915560ca805480830182557f42d72674974f694b5f5159593243114d38a5c39c89d6b62fee061ff523240ee190810180548516730d500b1d8e8ef31e21c99d1db9a6444d3adf12701790558154808401835581018054851673b31f66aa3c1e785363f0875a1b74e27b85fd66c7179055815480840190925501805490921673c42c30ac6cc15fac9bd938618bcaa1a1fae8501d1790915560cb805480830182556000829052610fa07fa7ce836d032b2bf62b7e2097a8e0a6d8aeb35405ad15271e96d3b0188a1d06fb9182018190558254808501845582015581549283019091556107d09101556135d6612e93565b60d0805460018101825560009190915260408051808201909152601680825275687474703a2f2f6c6f63616c686f73743a383030302f60501b6020909201918252613644927fe89d44c8fd6a9bac8af33ce47f56337617d449bf7ff3956b618c646de829cbcb0191906141a7565b5060d180546001600160a01b0319166001600160a01b03861617905580156112cb576000805461ff0019169055604051600181527f7f26b83ff96e1f2b6a682f133852f6798a09c465da95921460cefb384740249890602001612414565b6000610989825490565b815160ca5460609190806001600160401b038111156136cd576136cd6145fc565b6040519080825280602002602001820160405280156136f6578160200160208202803683370190505b50925060005b8281101561383257600087828151811061371857613718614bdc565b60200260200101519050600087838151811061373657613736614bdc565b602090810291909101810151600084815260cc835260408082206001600160a01b0384168352909352919091205490915080851161377657505050613820565b801580156137d7575060c960008154811061379357613793614bdc565b9060005260206000200154831415806137d7575060ca6000815481106137bb576137bb614bdc565b6000918252602090912001546001600160a01b03838116911614155b156137e457505050613820565b8784815181106137f6576137f6614bdc565b602002602001015187828151811061381057613810614bdc565b6020026020010181815250505050505b8061382a81614f6b565b9150506136fc565b5050509392505050565b613844612e08565b6001600160a01b031661385f6097546001600160a01b031690565b6001600160a01b0316146138855760405162461bcd60e51b81526004016109f990614b64565b6001600160a01b0381166138ea5760405162461bcd60e51b815260206004820152602660248201527f4f776e61626c653a206e6577206f776e657220697320746865207a65726f206160448201526564647265737360d01b60648201526084016109f9565b612d49816131ea565b6138fd8282611b50565b610df157613915816001600160a01b03166014613d10565b613920836020613d10565b6040516020016139319291906151bc565b60408051601f198184030181529082905262461bcd60e51b82526109f9916004016145b0565b6139618282611b50565b610df1576000828152610107602090815260408083206001600160a01b03851684529091529020805460ff1916600117905561399b612e08565b6001600160a01b0316816001600160a01b0316837f2f8788117e7eff1d82e926ec794901d17c78024a50270940304540a733656f0d60405160405180910390a45050565b6000611b49836001600160a01b038416613eab565b6139fe8282611b50565b15610df1576000828152610107602090815260408083206001600160a01b03851684529091529020805460ff19169055613a36612e08565b6001600160a01b0316816001600160a01b0316837ff6391f5c32d9c69d2a47ea670b442974b53935d1edc7fd64eb21e047a839171b60405160405180910390a45050565b6000611b49836001600160a01b038416613efa565b600080825160411415613ac65760208301516040840151606085015160001a613aba87828585613fed565b94509450505050613397565b825160401415613af05760208301516040840151613ae58683836140da565b935093505050613397565b50600090506002613397565b6000816004811115613b1057613b10614334565b1415613b195750565b6001816004811115613b2d57613b2d614334565b1415613b7b5760405162461bcd60e51b815260206004820152601860248201527f45434453413a20696e76616c6964207369676e6174757265000000000000000060448201526064016109f9565b6002816004811115613b8f57613b8f614334565b1415613bdd5760405162461bcd60e51b815260206004820152601f60248201527f45434453413a20696e76616c6964207369676e6174757265206c656e6774680060448201526064016109f9565b6003816004811115613bf157613bf1614334565b1415613c4a5760405162461bcd60e51b815260206004820152602260248201527f45434453413a20696e76616c6964207369676e6174757265202773272076616c604482015261756560f01b60648201526084016109f9565b6004816004811115613c5e57613c5e614334565b1415612d495760405162461bcd60e51b815260206004820152602260248201527f45434453413a20696e76616c6964207369676e6174757265202776272076616c604482015261756560f01b60648201526084016109f9565b6000826000018281548110613cce57613cce614bdc565b9060005260206000200154905092915050565b600054610100900460ff16613d085760405162461bcd60e51b81526004016109f990615231565b61189a614113565b60606000613d1f836002614f9f565b613d2a906002614f53565b6001600160401b03811115613d4157613d416145fc565b6040519080825280601f01601f191660200182016040528015613d6b576020820181803683370190505b509050600360fc1b81600081518110613d8657613d86614bdc565b60200101906001600160f81b031916908160001a905350600f60fb1b81600181518110613db557613db5614bdc565b60200101906001600160f81b031916908160001a9053506000613dd9846002614f9f565b613de4906001614f53565b90505b6001811115613e5c576f181899199a1a9b1b9c1cb0b131b232b360811b85600f1660108110613e1857613e18614bdc565b1a60f81b828281518110613e2e57613e2e614bdc565b60200101906001600160f81b031916908160001a90535060049490941c93613e558161527c565b9050613de7565b508315611b495760405162461bcd60e51b815260206004820181905260248201527f537472696e67733a20686578206c656e67746820696e73756666696369656e7460448201526064016109f9565b6000818152600183016020526040812054613ef257508154600181810184556000848152602080822090930184905584548482528286019093526040902091909155610989565b506000610989565b60008181526001830160205260408120548015613fe3576000613f1e600183614bc5565b8554909150600090613f3290600190614bc5565b9050818114613f97576000866000018281548110613f5257613f52614bdc565b9060005260206000200154905080876000018481548110613f7557613f75614bdc565b6000918252602080832090910192909255918252600188019052604090208390555b8554869080613fa857613fa8614b99565b600190038181906000526020600020016000905590558560010160008681526020019081526020016000206000905560019350505050610989565b6000915050610989565b6000807f7fffffffffffffffffffffffffffffff5d576e7357a4501ddfe92f46681b20a083111561402457506000905060036140d1565b8460ff16601b1415801561403c57508460ff16601c14155b1561404d57506000905060046140d1565b6040805160008082526020820180845289905260ff881692820192909252606081018690526080810185905260019060a0016020604051602081039080840390855afa1580156140a1573d6000803e3d6000fd5b5050604051601f1901519150506001600160a01b0381166140ca576000600192509250506140d1565b9150600090505b94509492505050565b6000806001600160ff1b038316816140f760ff86901c601b614f53565b905061410587828885613fed565b935093505050935093915050565b600054610100900460ff1661413a5760405162461bcd60e51b81526004016109f990615231565b61189a614145612e08565b6131ea565b828054828255906000526020600020908101928215614197579160200282015b8281111561419757825180516141879184916020909101906141a7565b509160200191906001019061416a565b506141a3929150614227565b5090565b8280546141b390614deb565b90600052602060002090601f0160209004810192826141d5576000855561421b565b82601f106141ee57805160ff191683800117855561421b565b8280016001018555821561421b579182015b8281111561421b578251825591602001919060010190614200565b506141a3929150614244565b808211156141a357600061423b8282614259565b50600101614227565b5b808211156141a35760008155600101614245565b50805461426590614deb565b6000825580601f10614275575050565b601f016020900490600052602060002090810190612d499190614244565b6000602082840312156142a557600080fd5b81356001600160e01b031981168114611b4957600080fd5b6000602082840312156142cf57600080fd5b5035919050565b80356001600160a01b038116811461342657600080fd5b6000602082840312156142ff57600080fd5b611b49826142d6565b6000806040838503121561431b57600080fd5b8235915061432b602084016142d6565b90509250929050565b634e487b7160e01b600052602160045260246000fd5b6003811061436857634e487b7160e01b600052602160045260246000fd5b9052565b81516001600160a01b0316815260208083015160808301916143909084018261434a565b506040830151604083015260608301511515606083015292915050565b60008083601f8401126143bf57600080fd5b5081356001600160401b038111156143d657600080fd5b60208301915083602082850101111561339757600080fd5b6000806000806040858703121561440457600080fd5b84356001600160401b038082111561441b57600080fd5b614427888389016143ad565b9096509450602087013591508082111561444057600080fd5b5061444d878288016143ad565b95989497509550505050565b600081518084526020808501945080840160005b838110156144895781518752958201959082019060010161446d565b509495945050505050565b600081518084526020808501945080840160005b838110156144895781516001600160a01b0316875295820195908201906001016144a8565b6080815260006144e06080830187614459565b82810360208401526144f28187614494565b905082810360408401526145068186614459565b9050828103606084015261451a8185614459565b979650505050505050565b60008060006060848603121561453a57600080fd5b614543846142d6565b95602085013595506040909401359392505050565b60005b8381101561457357818101518382015260200161455b565b838111156112cb5750506000910152565b6000815180845261459c816020860160208601614558565b601f01601f19169290920160200192915050565b602081526000611b496020830184614584565b6060815260006145d66060830186614459565b82810360208401526145e88186614494565b90508281036040840152612a748185614459565b634e487b7160e01b600052604160045260246000fd5b604051601f8201601f191681016001600160401b038111828210171561463a5761463a6145fc565b604052919050565b60006001600160401b0382111561465b5761465b6145fc565b5060051b60200190565b60006001600160401b0383111561467e5761467e6145fc565b614691601f8401601f1916602001614612565b90508281528383830111156146a557600080fd5b828260208301376000602084830101529392505050565b600060208083850312156146cf57600080fd5b82356001600160401b03808211156146e657600080fd5b818501915085601f8301126146fa57600080fd5b813561470d61470882614642565b614612565b81815260059190911b8301840190848101908883111561472c57600080fd5b8585015b83811015614779578035858111156147485760008081fd5b8601603f81018b1361475a5760008081fd5b61476b8b8983013560408401614665565b845250918601918601614730565b5098975050505050505050565b6000806020838503121561479957600080fd5b82356001600160401b03808211156147b057600080fd5b818501915085601f8301126147c457600080fd5b8135818111156147d357600080fd5b8660208260051b85010111156147e857600080fd5b60209290920196919550909350505050565b6000806040838503121561480d57600080fd5b50508035926020909101359150565b6000806040838503121561482f57600080fd5b614838836142d6565b915061432b602084016142d6565b600082601f83011261485757600080fd5b8135602061486761470883614642565b82815260059290921b8401810191818101908684111561488657600080fd5b8286015b848110156148a1578035835291830191830161488a565b509695505050505050565b6000602082840312156148be57600080fd5b81356001600160401b038111156148d457600080fd5b6148e084828501614846565b949350505050565b600080604083850312156148fb57600080fd5b614904836142d6565b946020939093013593505050565b6001600160a01b03851681526080810161492f602083018661434a565b836040830152821515606083015295945050505050565b60008060006060848603121561495b57600080fd5b614964846142d6565b9250614972602085016142d6565b9150614980604085016142d6565b90509250925092565b600082601f83011261499a57600080fd5b813560206149aa61470883614642565b82815260059290921b840181019181810190868411156149c957600080fd5b8286015b848110156148a1576149de816142d6565b83529183019183016149cd565b600080600060608486031215614a0057600080fd5b83356001600160401b0380821115614a1757600080fd5b614a2387838801614846565b94506020860135915080821115614a3957600080fd5b614a4587838801614989565b93506040860135915080821115614a5b57600080fd5b50614a6886828701614846565b9150509250925092565b60008060008060808587031215614a8857600080fd5b84356001600160401b0380821115614a9f57600080fd5b614aab88838901614846565b95506020870135915080821115614ac157600080fd5b614acd88838901614989565b94506040870135915080821115614ae357600080fd5b50614af087828801614846565b949793965093946060013593505050565b60008060408385031215614b1457600080fd5b82356001600160401b0380821115614b2b57600080fd5b614b3786838701614846565b93506020850135915080821115614b4d57600080fd5b50614b5a85828601614846565b9150509250929050565b6020808252818101527f4f776e61626c653a2063616c6c6572206973206e6f7420746865206f776e6572604082015260600190565b634e487b7160e01b600052603160045260246000fd5b634e487b7160e01b600052601160045260246000fd5b600082821015614bd757614bd7614baf565b500390565b634e487b7160e01b600052603260045260246000fd5b600082601f830112614c0357600080fd5b611b4983833560208501614665565b60008060008060808587031215614c2857600080fd5b84356001600160401b0380821115614c3f57600080fd5b614c4b88838901614846565b95506020870135915080821115614c6157600080fd5b614c6d88838901614989565b94506040870135915080821115614c8357600080fd5b614c8f88838901614846565b93506060870135915080821115614ca557600080fd5b50614cb287828801614bf2565b91505092959194509250565b805160009060208084018383156144895781518752958201959082019060010161446d565b6000614cef8286614cbe565b8451602080870160005b83811015614d1e5781516001600160a01b031685529382019390820190600101614cf9565b50505050612a748185614cbe565b60208082526013908201527214da59db995c881a5cc81a5b98dbdc9c9958dd606a1b604082015260600190565b600080600060608486031215614d6e57600080fd5b83356001600160401b0380821115614d8557600080fd5b614d9187838801614846565b94506020860135915080821115614da757600080fd5b614db387838801614846565b93506040860135915080821115614dc957600080fd5b50614a6886828701614bf2565b60006148e0614de58386614cbe565b84614cbe565b600181811c90821680614dff57607f821691505b60208210811415614e2057634e487b7160e01b600052602260045260246000fd5b50919050565b600060a0820160018060a01b0388168352602060a08185015281885480845260c08601915060c08160051b870101935060008a8152838120815b83811015614f175788870360bf1901855281548390600181811c9080831680614e8a57607f831692505b8a8310811415614ea857634e487b7160e01b88526022600452602488fd5b828c5260208c01818015614ec35760018114614ed457614efe565b60ff19861682528c82019650614efe565b6000898152602090208a5b86811015614ef857815484820152908501908e01614edf565b83019750505b50949b5050978901979490940193505050600101614e60565b5050505050508281036040840152614f2f8187614584565b6001600160e01b03198616606085015290508281036080840152611fb98185614584565b60008219821115614f6657614f66614baf565b500190565b6000600019821415614f7f57614f7f614baf565b5060010190565b600060208284031215614f9857600080fd5b5051919050565b6000816000190483118215151615614fb957614fb9614baf565b500290565b600082614fdb57634e487b7160e01b600052601260045260246000fd5b500490565b60008060408385031215614ff357600080fd5b82356001600160401b038082111561500a57600080fd5b61501686838701614846565b9350602085013591508082111561502c57600080fd5b50614b5a85828601614bf2565b6000611b498284614cbe565b600181815b8085111561508057816000190482111561506657615066614baf565b8085161561507357918102915b93841c939080029061504a565b509250929050565b60008261509757506001610989565b816150a457506000610989565b81600181146150ba57600281146150c4576150e0565b6001915050610989565b60ff8411156150d5576150d5614baf565b50506001821b610989565b5060208310610133831016604e8410600b8410161715615103575081810a610989565b61510d8383615045565b806000190482111561512157615121614baf565b029392505050565b6000611b4960ff841683615088565b6000806040838503121561514b57600080fd5b82519150602083015160ff8116811461516357600080fd5b809150509250929050565b6020808252602e908201527f496e697469616c697a61626c653a20636f6e747261637420697320616c72656160408201526d191e481a5b9a5d1a585b1a5e995960921b606082015260800190565b7f416363657373436f6e74726f6c3a206163636f756e74200000000000000000008152600083516151f4816017850160208801614558565b7001034b99036b4b9b9b4b733903937b6329607d1b6017918401918201528351615225816028840160208801614558565b01602801949350505050565b6020808252602b908201527f496e697469616c697a61626c653a20636f6e7472616374206973206e6f74206960408201526a6e697469616c697a696e6760a81b606082015260800190565b60008161528b5761528b614baf565b50600019019056fea49807205ce4d355092ef5a8a18f56e8913cf4a201fbe287825b095693c21775a26469706673582212208a93ceb5fc3d93916aee615434950551acaaeac2d29be74f01dfdcf135be7bae64736f6c63430008090033",
  "devdoc": {
    "kind": "dev",
    "methods": {
      "burnByAdmin(address,uint256,uint256)": {
        "details": "mint BNIs according to the deposited USDT",
        "params": {
          "_account": "account to which BNIs will be minted",
          "_pool": "total pool in USD",
          "_share": "amount of BNI to be burnt"
        }
      },
      "getDepositTokenComposition(uint256[],address[],uint256[],uint256)": {
        "params": {
          "_USDT6Amt": "amount of USDT with 6 decimals"
        },
        "returns": {
          "_0": "_USDT6Amts amount of USDT should be deposited to each pools"
        }
      },
      "getRoleAdmin(bytes32)": {
        "details": "Returns the admin role that controls `role`. See {grantRole} and {revokeRole}. To change a role's admin, use {_setRoleAdmin}."
      },
      "getRoleMember(bytes32,uint256)": {
        "details": "Returns one of the accounts that have `role`. `index` must be a value between 0 and {getRoleMemberCount}, non-inclusive. Role bearers are not sorted in any particular way, and their ordering may change at any point. WARNING: When using {getRoleMember} and {getRoleMemberCount}, make sure you perform all queries on the same block. See the following https://forum.openzeppelin.com/t/iterating-over-elements-on-enumerableset-in-openzeppelin-contracts/2296[forum post] for more information."
      },
      "getRoleMemberCount(bytes32)": {
        "details": "Returns the number of accounts that have `role`. Can be used together with {getRoleMember} to enumerate all bearers of a role."
      },
      "getUSDTPriceInUSD()": {
        "returns": {
          "_0": "the price of USDT in USD."
        }
      },
      "getWithdrawPerc(address,uint256)": {
        "params": {
          "_share": "amount of BNI to be withdrawn"
        },
        "returns": {
          "_sharePerc": "percentage of assets which should be withdrawn. It's 18 decimals"
        }
      },
      "grantRole(bytes32,address)": {
        "details": "Grants `role` to `account`. If `account` had not been already granted `role`, emits a {RoleGranted} event. Requirements: - the caller must have ``role``'s admin role."
      },
      "hasRole(bytes32,address)": {
        "details": "Returns `true` if `account` has been granted `role`."
      },
      "initDepositByAdmin(address,uint256,uint256)": {
        "params": {
          "_USDT6Amt": "USDT with 6 decimals to be deposited",
          "_account": "account to which BNIs will be minted",
          "_pool": "total pool in USD"
        }
      },
      "mintByAdmin(address,uint256)": {
        "details": "mint BNIs according to the deposited USDT",
        "params": {
          "_USDT6Amt": "the deposited USDT with 6 decimals",
          "_account": "account to which BNIs will be minted"
        }
      },
      "owner()": {
        "details": "Returns the address of the current owner."
      },
      "paused()": {
        "details": "Returns true if the contract is paused, and false otherwise."
      },
      "renounceOwnership()": {
        "details": "Leaves the contract without owner. It will not be possible to call `onlyOwner` functions anymore. Can only be called by the current owner. NOTE: Renouncing ownership will leave the contract without an owner, thereby removing any functionality that is only available to the owner."
      },
      "renounceRole(bytes32,address)": {
        "details": "Revokes `role` from the calling account. Roles are often managed via {grantRole} and {revokeRole}: this function's purpose is to provide a mechanism for accounts to lose their privileges if they are compromised (such as when a trusted device is misplaced). If the calling account had been revoked `role`, emits a {RoleRevoked} event. Requirements: - the caller must be `account`."
      },
      "revokeRole(bytes32,address)": {
        "details": "Revokes `role` from `account`. If `account` had been granted `role`, emits a {RoleRevoked} event. Requirements: - the caller must have ``role``'s admin role."
      },
      "supportsInterface(bytes4)": {
        "details": "See {IERC165-supportsInterface}."
      },
      "transferOwnership(address)": {
        "details": "Transfers ownership of the contract to a new account (`newOwner`). Can only be called by the current owner."
      }
    },
    "version": 1
  },
  "userdoc": {
    "kind": "user",
    "methods": {
      "addToken(uint256,address)": {
        "notice": "After this method called, setTokenCompositionTargetPerc should be called to adjust percentages."
      },
      "getAPR(uint256[],uint256[])": {
        "notice": "The length of array is based on network count. And the lengths should be same on the arraies."
      },
      "getAllPoolInUSD(uint256[])": {
        "notice": "The length of array is based on network count. And the lengths should be same on the arraies."
      },
      "getCurrentTokenCompositionPerc(uint256[],address[],uint256[])": {
        "notice": "The length of array is based on token count. And the lengths should be same on the arraies."
      },
      "getDepositTokenComposition(uint256[],address[],uint256[],uint256)": {
        "notice": "The length of array is based on token count. And the lengths should be same on the arraies."
      },
      "getPricePerFullShare(uint256[])": {
        "notice": "Can be used for calculate both user shares & APR"
      },
      "getWithdrawPerc(address,uint256)": {
        "notice": "The length of array is based on token count. And the lengths should be same on the arraies."
      },
      "removeToken(uint256)": {
        "notice": "After this method called, setTokenCompositionTargetPerc should be called to adjust percentages."
      },
      "setTokenCompositionTargetPerc(uint256[])": {
        "notice": "The length of array is based on token count."
      }
    },
    "version": 1
  },
  "storageLayout": {
    "storage": [
      {
        "astId": 713,
        "contract": "contracts/bni/BNIMinterTest.sol:BNIMinterTest",
        "label": "_initialized",
        "offset": 0,
        "slot": "0",
        "type": "t_uint8"
      },
      {
        "astId": 716,
        "contract": "contracts/bni/BNIMinterTest.sol:BNIMinterTest",
        "label": "_initializing",
        "offset": 1,
        "slot": "0",
        "type": "t_bool"
      },
      {
        "astId": 973,
        "contract": "contracts/bni/BNIMinterTest.sol:BNIMinterTest",
        "label": "_status",
        "offset": 0,
        "slot": "1",
        "type": "t_uint256"
      },
      {
        "astId": 1017,
        "contract": "contracts/bni/BNIMinterTest.sol:BNIMinterTest",
        "label": "__gap",
        "offset": 0,
        "slot": "2",
        "type": "t_array(t_uint256)49_storage"
      },
      {
        "astId": 3292,
        "contract": "contracts/bni/BNIMinterTest.sol:BNIMinterTest",
        "label": "__gap",
        "offset": 0,
        "slot": "51",
        "type": "t_array(t_uint256)50_storage"
      },
      {
        "astId": 869,
        "contract": "contracts/bni/BNIMinterTest.sol:BNIMinterTest",
        "label": "_paused",
        "offset": 0,
        "slot": "101",
        "type": "t_bool"
      },
      {
        "astId": 958,
        "contract": "contracts/bni/BNIMinterTest.sol:BNIMinterTest",
        "label": "__gap",
        "offset": 0,
        "slot": "102",
        "type": "t_array(t_uint256)49_storage"
      },
      {
        "astId": 593,
        "contract": "contracts/bni/BNIMinterTest.sol:BNIMinterTest",
        "label": "_owner",
        "offset": 0,
        "slot": "151",
        "type": "t_address"
      },
      {
        "astId": 705,
        "contract": "contracts/bni/BNIMinterTest.sol:BNIMinterTest",
        "label": "__gap",
        "offset": 0,
        "slot": "152",
        "type": "t_array(t_uint256)49_storage"
      },
      {
        "astId": 6234,
        "contract": "contracts/bni/BNIMinterTest.sol:BNIMinterTest",
        "label": "chainIDs",
        "offset": 0,
        "slot": "201",
        "type": "t_array(t_uint256)dyn_storage"
      },
      {
        "astId": 6237,
        "contract": "contracts/bni/BNIMinterTest.sol:BNIMinterTest",
        "label": "tokens",
        "offset": 0,
        "slot": "202",
        "type": "t_array(t_address)dyn_storage"
      },
      {
        "astId": 6240,
        "contract": "contracts/bni/BNIMinterTest.sol:BNIMinterTest",
        "label": "targetPercentages",
        "offset": 0,
        "slot": "203",
        "type": "t_array(t_uint256)dyn_storage"
      },
      {
        "astId": 6246,
        "contract": "contracts/bni/BNIMinterTest.sol:BNIMinterTest",
        "label": "tid",
        "offset": 0,
        "slot": "204",
        "type": "t_mapping(t_uint256,t_mapping(t_address,t_uint256))"
      },
      {
        "astId": 6248,
        "contract": "contracts/bni/BNIMinterTest.sol:BNIMinterTest",
        "label": "admin",
        "offset": 0,
        "slot": "205",
        "type": "t_address"
      },
      {
        "astId": 6251,
        "contract": "contracts/bni/BNIMinterTest.sol:BNIMinterTest",
        "label": "BNI",
        "offset": 0,
        "slot": "206",
        "type": "t_contract(IBNI)6132"
      },
      {
        "astId": 6254,
        "contract": "contracts/bni/BNIMinterTest.sol:BNIMinterTest",
        "label": "priceOracle",
        "offset": 0,
        "slot": "207",
        "type": "t_contract(IPriceOracle)12144"
      },
      {
        "astId": 6257,
        "contract": "contracts/bni/BNIMinterTest.sol:BNIMinterTest",
        "label": "urls",
        "offset": 0,
        "slot": "208",
        "type": "t_array(t_string_storage)dyn_storage"
      },
      {
        "astId": 6259,
        "contract": "contracts/bni/BNIMinterTest.sol:BNIMinterTest",
        "label": "gatewaySigner",
        "offset": 0,
        "slot": "209",
        "type": "t_address"
      },
      {
        "astId": 6261,
        "contract": "contracts/bni/BNIMinterTest.sol:BNIMinterTest",
        "label": "trustedForwarder",
        "offset": 0,
        "slot": "210",
        "type": "t_address"
      },
      {
        "astId": 6265,
        "contract": "contracts/bni/BNIMinterTest.sol:BNIMinterTest",
        "label": "operations",
        "offset": 0,
        "slot": "211",
        "type": "t_array(t_struct(Operation)6231_storage)dyn_storage"
      },
      {
        "astId": 6269,
        "contract": "contracts/bni/BNIMinterTest.sol:BNIMinterTest",
        "label": "userLastOperationNonce",
        "offset": 0,
        "slot": "212",
        "type": "t_mapping(t_address,t_uint256)"
      },
      {
        "astId": 3946,
        "contract": "contracts/bni/BNIMinterTest.sol:BNIMinterTest",
        "label": "__gap",
        "offset": 0,
        "slot": "213",
        "type": "t_array(t_uint256)50_storage"
      },
      {
        "astId": 184,
        "contract": "contracts/bni/BNIMinterTest.sol:BNIMinterTest",
        "label": "_roles",
        "offset": 0,
        "slot": "263",
        "type": "t_mapping(t_bytes32,t_struct(RoleData)179_storage)"
      },
      {
        "astId": 483,
        "contract": "contracts/bni/BNIMinterTest.sol:BNIMinterTest",
        "label": "__gap",
        "offset": 0,
        "slot": "264",
        "type": "t_array(t_uint256)49_storage"
      },
      {
        "astId": 33,
        "contract": "contracts/bni/BNIMinterTest.sol:BNIMinterTest",
        "label": "_roleMembers",
        "offset": 0,
        "slot": "313",
        "type": "t_mapping(t_bytes32,t_struct(AddressSet)4359_storage)"
      },
      {
        "astId": 143,
        "contract": "contracts/bni/BNIMinterTest.sol:BNIMinterTest",
        "label": "__gap",
        "offset": 0,
        "slot": "314",
        "type": "t_array(t_uint256)49_storage"
      },
      {
        "astId": 6437,
        "contract": "contracts/bni/BNIMinterTest.sol:BNIMinterTest",
        "label": "version",
        "offset": 0,
        "slot": "363",
        "type": "t_uint256"
      },
      {
        "astId": 6439,
        "contract": "contracts/bni/BNIMinterTest.sol:BNIMinterTest",
        "label": "userAgent",
        "offset": 0,
        "slot": "364",
        "type": "t_address"
      },
      {
        "astId": 6442,
        "contract": "contracts/bni/BNIMinterTest.sol:BNIMinterTest",
        "label": "poolsAtNonce",
        "offset": 0,
        "slot": "365",
        "type": "t_array(t_uint256)dyn_storage"
      }
    ],
    "types": {
      "t_address": {
        "encoding": "inplace",
        "label": "address",
        "numberOfBytes": "20"
      },
      "t_array(t_address)dyn_storage": {
        "base": "t_address",
        "encoding": "dynamic_array",
        "label": "address[]",
        "numberOfBytes": "32"
      },
      "t_array(t_bytes32)dyn_storage": {
        "base": "t_bytes32",
        "encoding": "dynamic_array",
        "label": "bytes32[]",
        "numberOfBytes": "32"
      },
      "t_array(t_string_storage)dyn_storage": {
        "base": "t_string_storage",
        "encoding": "dynamic_array",
        "label": "string[]",
        "numberOfBytes": "32"
      },
      "t_array(t_struct(Operation)6231_storage)dyn_storage": {
        "base": "t_struct(Operation)6231_storage",
        "encoding": "dynamic_array",
        "label": "struct BNIMinterV1.Operation[]",
        "numberOfBytes": "32"
      },
      "t_array(t_uint256)49_storage": {
        "base": "t_uint256",
        "encoding": "inplace",
        "label": "uint256[49]",
        "numberOfBytes": "1568"
      },
      "t_array(t_uint256)50_storage": {
        "base": "t_uint256",
        "encoding": "inplace",
        "label": "uint256[50]",
        "numberOfBytes": "1600"
      },
      "t_array(t_uint256)dyn_storage": {
        "base": "t_uint256",
        "encoding": "dynamic_array",
        "label": "uint256[]",
        "numberOfBytes": "32"
      },
      "t_bool": {
        "encoding": "inplace",
        "label": "bool",
        "numberOfBytes": "1"
      },
      "t_bytes32": {
        "encoding": "inplace",
        "label": "bytes32",
        "numberOfBytes": "32"
      },
      "t_contract(IBNI)6132": {
        "encoding": "inplace",
        "label": "contract IBNI",
        "numberOfBytes": "20"
      },
      "t_contract(IPriceOracle)12144": {
        "encoding": "inplace",
        "label": "contract IPriceOracle",
        "numberOfBytes": "20"
      },
      "t_enum(OperationType)6221": {
        "encoding": "inplace",
        "label": "enum BNIMinterV1.OperationType",
        "numberOfBytes": "1"
      },
      "t_mapping(t_address,t_bool)": {
        "encoding": "mapping",
        "key": "t_address",
        "label": "mapping(address => bool)",
        "numberOfBytes": "32",
        "value": "t_bool"
      },
      "t_mapping(t_address,t_uint256)": {
        "encoding": "mapping",
        "key": "t_address",
        "label": "mapping(address => uint256)",
        "numberOfBytes": "32",
        "value": "t_uint256"
      },
      "t_mapping(t_bytes32,t_struct(AddressSet)4359_storage)": {
        "encoding": "mapping",
        "key": "t_bytes32",
        "label": "mapping(bytes32 => struct EnumerableSetUpgradeable.AddressSet)",
        "numberOfBytes": "32",
        "value": "t_struct(AddressSet)4359_storage"
      },
      "t_mapping(t_bytes32,t_struct(RoleData)179_storage)": {
        "encoding": "mapping",
        "key": "t_bytes32",
        "label": "mapping(bytes32 => struct AccessControlUpgradeable.RoleData)",
        "numberOfBytes": "32",
        "value": "t_struct(RoleData)179_storage"
      },
      "t_mapping(t_bytes32,t_uint256)": {
        "encoding": "mapping",
        "key": "t_bytes32",
        "label": "mapping(bytes32 => uint256)",
        "numberOfBytes": "32",
        "value": "t_uint256"
      },
      "t_mapping(t_uint256,t_mapping(t_address,t_uint256))": {
        "encoding": "mapping",
        "key": "t_uint256",
        "label": "mapping(uint256 => mapping(address => uint256))",
        "numberOfBytes": "32",
        "value": "t_mapping(t_address,t_uint256)"
      },
      "t_string_storage": {
        "encoding": "bytes",
        "label": "string",
        "numberOfBytes": "32"
      },
      "t_struct(AddressSet)4359_storage": {
        "encoding": "inplace",
        "label": "struct EnumerableSetUpgradeable.AddressSet",
        "members": [
          {
            "astId": 4358,
            "contract": "contracts/bni/BNIMinterTest.sol:BNIMinterTest",
            "label": "_inner",
            "offset": 0,
            "slot": "0",
            "type": "t_struct(Set)4058_storage"
          }
        ],
        "numberOfBytes": "64"
      },
      "t_struct(Operation)6231_storage": {
        "encoding": "inplace",
        "label": "struct BNIMinterV1.Operation",
        "members": [
          {
            "astId": 6223,
            "contract": "contracts/bni/BNIMinterTest.sol:BNIMinterTest",
            "label": "account",
            "offset": 0,
            "slot": "0",
            "type": "t_address"
          },
          {
            "astId": 6226,
            "contract": "contracts/bni/BNIMinterTest.sol:BNIMinterTest",
            "label": "operation",
            "offset": 20,
            "slot": "0",
            "type": "t_enum(OperationType)6221"
          },
          {
            "astId": 6228,
            "contract": "contracts/bni/BNIMinterTest.sol:BNIMinterTest",
            "label": "amount",
            "offset": 0,
            "slot": "1",
            "type": "t_uint256"
          },
          {
            "astId": 6230,
            "contract": "contracts/bni/BNIMinterTest.sol:BNIMinterTest",
            "label": "done",
            "offset": 0,
            "slot": "2",
            "type": "t_bool"
          }
        ],
        "numberOfBytes": "96"
      },
      "t_struct(RoleData)179_storage": {
        "encoding": "inplace",
        "label": "struct AccessControlUpgradeable.RoleData",
        "members": [
          {
            "astId": 176,
            "contract": "contracts/bni/BNIMinterTest.sol:BNIMinterTest",
            "label": "members",
            "offset": 0,
            "slot": "0",
            "type": "t_mapping(t_address,t_bool)"
          },
          {
            "astId": 178,
            "contract": "contracts/bni/BNIMinterTest.sol:BNIMinterTest",
            "label": "adminRole",
            "offset": 0,
            "slot": "1",
            "type": "t_bytes32"
          }
        ],
        "numberOfBytes": "64"
      },
      "t_struct(Set)4058_storage": {
        "encoding": "inplace",
        "label": "struct EnumerableSetUpgradeable.Set",
        "members": [
          {
            "astId": 4053,
            "contract": "contracts/bni/BNIMinterTest.sol:BNIMinterTest",
            "label": "_values",
            "offset": 0,
            "slot": "0",
            "type": "t_array(t_bytes32)dyn_storage"
          },
          {
            "astId": 4057,
            "contract": "contracts/bni/BNIMinterTest.sol:BNIMinterTest",
            "label": "_indexes",
            "offset": 0,
            "slot": "1",
            "type": "t_mapping(t_bytes32,t_uint256)"
          }
        ],
        "numberOfBytes": "64"
      },
      "t_uint256": {
        "encoding": "inplace",
        "label": "uint256",
        "numberOfBytes": "32"
      },
      "t_uint8": {
        "encoding": "inplace",
        "label": "uint8",
        "numberOfBytes": "1"
      }
    }
  }
}