{
  "address": "0xAc6b9423c02a8ec9E856A3aCd719be36039F95E6",
  "abi": [
    {
      "inputs": [
        {
          "internalType": "address",
          "name": "sender",
          "type": "address"
        },
        {
          "internalType": "string[]",
          "name": "urls",
          "type": "string[]"
        },
        {
          "internalType": "bytes",
          "name": "callData",
          "type": "bytes"
        },
        {
          "internalType": "bytes4",
          "name": "callbackFunction",
          "type": "bytes4"
        },
        {
          "internalType": "bytes",
          "name": "extraData",
          "type": "bytes"
        }
      ],
      "name": "OffchainLookup",
      "type": "error"
    },
    {
      "anonymous": false,
      "inputs": [
        {
          "indexed": false,
          "internalType": "uint256",
          "name": "chainID",
          "type": "uint256"
        },
        {
          "indexed": false,
          "internalType": "address",
          "name": "token",
          "type": "address"
        },
        {
          "indexed": false,
          "internalType": "uint256",
          "name": "tid",
          "type": "uint256"
        }
      ],
      "name": "AddToken",
      "type": "event"
    },
    {
      "anonymous": false,
      "inputs": [
        {
          "indexed": false,
          "internalType": "address",
          "name": "caller",
          "type": "address"
        },
        {
          "indexed": false,
          "internalType": "uint256",
          "name": "shareBurned",
          "type": "uint256"
        }
      ],
      "name": "Burn",
      "type": "event"
    },
    {
      "anonymous": false,
      "inputs": [
        {
          "indexed": false,
          "internalType": "uint8",
          "name": "version",
          "type": "uint8"
        }
      ],
      "name": "Initialized",
      "type": "event"
    },
    {
      "anonymous": false,
      "inputs": [
        {
          "indexed": false,
          "internalType": "address",
          "name": "caller",
          "type": "address"
        },
        {
          "indexed": false,
          "internalType": "uint256",
          "name": "amtDeposit",
          "type": "uint256"
        },
        {
          "indexed": false,
          "internalType": "uint256",
          "name": "shareMinted",
          "type": "uint256"
        }
      ],
      "name": "Mint",
      "type": "event"
    },
    {
      "anonymous": false,
      "inputs": [
        {
          "indexed": true,
          "internalType": "address",
          "name": "previousOwner",
          "type": "address"
        },
        {
          "indexed": true,
          "internalType": "address",
          "name": "newOwner",
          "type": "address"
        }
      ],
      "name": "OwnershipTransferred",
      "type": "event"
    },
    {
      "anonymous": false,
      "inputs": [
        {
          "indexed": false,
          "internalType": "address",
          "name": "account",
          "type": "address"
        }
      ],
      "name": "Paused",
      "type": "event"
    },
    {
      "anonymous": false,
      "inputs": [
        {
          "indexed": false,
          "internalType": "uint256",
          "name": "chainID",
          "type": "uint256"
        },
        {
          "indexed": false,
          "internalType": "address",
          "name": "token",
          "type": "address"
        },
        {
          "indexed": false,
          "internalType": "uint256",
          "name": "targetPerc",
          "type": "uint256"
        },
        {
          "indexed": false,
          "internalType": "uint256",
          "name": "tid",
          "type": "uint256"
        }
      ],
      "name": "RemoveToken",
      "type": "event"
    },
    {
      "anonymous": false,
      "inputs": [
        {
          "indexed": false,
          "internalType": "address",
          "name": "oldAdmin",
          "type": "address"
        },
        {
          "indexed": false,
          "internalType": "address",
          "name": "newAdmin",
          "type": "address"
        }
      ],
      "name": "SetAdminWallet",
      "type": "event"
    },
    {
      "anonymous": false,
      "inputs": [
        {
          "indexed": false,
          "internalType": "address",
          "name": "account",
          "type": "address"
        }
      ],
      "name": "Unpaused",
      "type": "event"
    },
    {
      "inputs": [],
      "name": "BNI",
      "outputs": [
        {
          "internalType": "contract IBNI",
          "name": "",
          "type": "address"
        }
      ],
      "stateMutability": "view",
      "type": "function"
    },
    {
      "inputs": [
        {
          "internalType": "uint256",
          "name": "_chainID",
          "type": "uint256"
        },
        {
          "internalType": "address",
          "name": "_token",
          "type": "address"
        }
      ],
      "name": "addToken",
      "outputs": [],
      "stateMutability": "nonpayable",
      "type": "function"
    },
    {
      "inputs": [],
      "name": "admin",
      "outputs": [
        {
          "internalType": "address",
          "name": "",
          "type": "address"
        }
      ],
      "stateMutability": "view",
      "type": "function"
    },
    {
      "inputs": [
        {
          "internalType": "address",
          "name": "_account",
          "type": "address"
        },
        {
          "internalType": "uint256",
          "name": "_share",
          "type": "uint256"
        }
      ],
      "name": "burnByAdmin",
      "outputs": [],
      "stateMutability": "nonpayable",
      "type": "function"
    },
    {
      "inputs": [
        {
          "internalType": "uint256",
          "name": "",
          "type": "uint256"
        }
      ],
      "name": "chainIDs",
      "outputs": [
        {
          "internalType": "uint256",
          "name": "",
          "type": "uint256"
        }
      ],
      "stateMutability": "view",
      "type": "function"
    },
    {
      "inputs": [
        {
          "internalType": "address",
          "name": "_account",
          "type": "address"
        }
      ],
      "name": "exitWithdrawal",
      "outputs": [],
      "stateMutability": "nonpayable",
      "type": "function"
    },
    {
      "inputs": [],
      "name": "gatewaySigner",
      "outputs": [
        {
          "internalType": "address",
          "name": "",
          "type": "address"
        }
      ],
      "stateMutability": "view",
      "type": "function"
    },
    {
      "inputs": [
        {
          "internalType": "uint256[]",
          "name": "_allPoolInUSDs",
          "type": "uint256[]"
        },
        {
          "internalType": "uint256[]",
          "name": "_APRs",
          "type": "uint256[]"
        }
      ],
      "name": "getAPR",
      "outputs": [
        {
          "internalType": "uint256",
          "name": "",
          "type": "uint256"
        }
      ],
      "stateMutability": "pure",
      "type": "function"
    },
    {
      "inputs": [],
      "name": "getAPR1",
      "outputs": [
        {
          "internalType": "uint256",
          "name": "",
          "type": "uint256"
        }
      ],
      "stateMutability": "view",
      "type": "function"
    },
    {
      "inputs": [
        {
          "internalType": "bytes",
          "name": "result",
          "type": "bytes"
        },
        {
          "internalType": "bytes",
          "name": "extraData",
          "type": "bytes"
        }
      ],
      "name": "getAPR1WithSig",
      "outputs": [
        {
          "internalType": "uint256",
          "name": "",
          "type": "uint256"
        }
      ],
      "stateMutability": "view",
      "type": "function"
    },
    {
      "inputs": [
        {
          "internalType": "uint256[]",
          "name": "_allPoolInUSDs",
          "type": "uint256[]"
        }
      ],
      "name": "getAllPoolInUSD",
      "outputs": [
        {
          "internalType": "uint256",
          "name": "",
          "type": "uint256"
        }
      ],
      "stateMutability": "pure",
      "type": "function"
    },
    {
      "inputs": [],
      "name": "getAllPoolInUSD1",
      "outputs": [
        {
          "internalType": "uint256",
          "name": "",
          "type": "uint256"
        }
      ],
      "stateMutability": "view",
      "type": "function"
    },
    {
      "inputs": [
        {
          "internalType": "bytes",
          "name": "result",
          "type": "bytes"
        },
        {
          "internalType": "bytes",
          "name": "extraData",
          "type": "bytes"
        }
      ],
      "name": "getAllPoolInUSD1WithSig",
      "outputs": [
        {
          "internalType": "uint256",
          "name": "",
          "type": "uint256"
        }
      ],
      "stateMutability": "view",
      "type": "function"
    },
    {
      "inputs": [
        {
          "internalType": "uint256",
          "name": "_nonce",
          "type": "uint256"
        }
      ],
      "name": "getAllPoolInUSDAtNonce1",
      "outputs": [
        {
          "internalType": "uint256",
          "name": "",
          "type": "uint256"
        }
      ],
      "stateMutability": "view",
      "type": "function"
    },
    {
      "inputs": [
        {
          "internalType": "uint256[]",
          "name": "_chainIDs",
          "type": "uint256[]"
        },
        {
          "internalType": "address[]",
          "name": "_tokens",
          "type": "address[]"
        },
        {
          "internalType": "uint256[]",
          "name": "_poolInUSDs",
          "type": "uint256[]"
        }
      ],
      "name": "getCurrentTokenCompositionPerc",
      "outputs": [
        {
          "internalType": "uint256[]",
          "name": "",
          "type": "uint256[]"
        },
        {
          "internalType": "address[]",
          "name": "",
          "type": "address[]"
        },
        {
          "internalType": "uint256[]",
          "name": "pools",
          "type": "uint256[]"
        },
        {
          "internalType": "uint256[]",
          "name": "percentages",
          "type": "uint256[]"
        }
      ],
      "stateMutability": "view",
      "type": "function"
    },
    {
      "inputs": [],
      "name": "getCurrentTokenCompositionPerc1",
      "outputs": [
        {
          "internalType": "uint256[]",
          "name": "",
          "type": "uint256[]"
        },
        {
          "internalType": "address[]",
          "name": "",
          "type": "address[]"
        },
        {
          "internalType": "uint256[]",
          "name": "",
          "type": "uint256[]"
        },
        {
          "internalType": "uint256[]",
          "name": "",
          "type": "uint256[]"
        }
      ],
      "stateMutability": "view",
      "type": "function"
    },
    {
      "inputs": [
        {
          "internalType": "bytes",
          "name": "result",
          "type": "bytes"
        },
        {
          "internalType": "bytes",
          "name": "extraData",
          "type": "bytes"
        }
      ],
      "name": "getCurrentTokenCompositionPercWithSig",
      "outputs": [
        {
          "internalType": "uint256[]",
          "name": "",
          "type": "uint256[]"
        },
        {
          "internalType": "address[]",
          "name": "",
          "type": "address[]"
        },
        {
          "internalType": "uint256[]",
          "name": "",
          "type": "uint256[]"
        },
        {
          "internalType": "uint256[]",
          "name": "",
          "type": "uint256[]"
        }
      ],
      "stateMutability": "view",
      "type": "function"
    },
    {
      "inputs": [
        {
          "internalType": "uint256[]",
          "name": "_chainIDs",
          "type": "uint256[]"
        },
        {
          "internalType": "address[]",
          "name": "_tokens",
          "type": "address[]"
        },
        {
          "internalType": "uint256[]",
          "name": "_poolInUSDs",
          "type": "uint256[]"
        },
        {
          "internalType": "uint256",
          "name": "_USDTAmt",
          "type": "uint256"
        }
      ],
      "name": "getDepositTokenComposition",
      "outputs": [
        {
          "internalType": "uint256[]",
          "name": "",
          "type": "uint256[]"
        },
        {
          "internalType": "address[]",
          "name": "",
          "type": "address[]"
        },
        {
          "internalType": "uint256[]",
          "name": "_USDTAmts",
          "type": "uint256[]"
        }
      ],
      "stateMutability": "view",
      "type": "function"
    },
    {
      "inputs": [
        {
          "internalType": "uint256",
          "name": "_USDTAmt",
          "type": "uint256"
        }
      ],
      "name": "getDepositTokenComposition1",
      "outputs": [
        {
          "internalType": "uint256[]",
          "name": "",
          "type": "uint256[]"
        },
        {
          "internalType": "address[]",
          "name": "",
          "type": "address[]"
        },
        {
          "internalType": "uint256[]",
          "name": "",
          "type": "uint256[]"
        }
      ],
      "stateMutability": "view",
      "type": "function"
    },
    {
      "inputs": [
        {
          "internalType": "bytes",
          "name": "result",
          "type": "bytes"
        },
        {
          "internalType": "bytes",
          "name": "extraData",
          "type": "bytes"
        }
      ],
      "name": "getDepositTokenComposition1WithSig",
      "outputs": [
        {
          "internalType": "uint256[]",
          "name": "",
          "type": "uint256[]"
        },
        {
          "internalType": "address[]",
          "name": "",
          "type": "address[]"
        },
        {
          "internalType": "uint256[]",
          "name": "",
          "type": "uint256[]"
        }
      ],
      "stateMutability": "view",
      "type": "function"
    },
    {
      "inputs": [],
      "name": "getNonce",
      "outputs": [
        {
          "internalType": "uint256",
          "name": "",
          "type": "uint256"
        }
      ],
      "stateMutability": "view",
      "type": "function"
    },
    {
      "inputs": [
        {
          "internalType": "uint256",
          "name": "_nonce",
          "type": "uint256"
        }
      ],
      "name": "getOperation",
      "outputs": [
        {
          "components": [
            {
              "internalType": "address",
              "name": "account",
              "type": "address"
            },
            {
              "internalType": "enum BNIMinter.OperationType",
              "name": "operation",
              "type": "uint8"
            },
            {
              "internalType": "uint256",
              "name": "amount",
              "type": "uint256"
            },
            {
              "internalType": "bool",
              "name": "done",
              "type": "bool"
            }
          ],
          "internalType": "struct BNIMinter.Operation",
          "name": "",
          "type": "tuple"
        }
      ],
      "stateMutability": "view",
      "type": "function"
    },
    {
      "inputs": [
        {
          "internalType": "uint256[]",
          "name": "_allPoolInUSDs",
          "type": "uint256[]"
        }
      ],
      "name": "getPricePerFullShare",
      "outputs": [
        {
          "internalType": "uint256",
          "name": "",
          "type": "uint256"
        }
      ],
      "stateMutability": "view",
      "type": "function"
    },
    {
      "inputs": [],
      "name": "getPricePerFullShare1",
      "outputs": [
        {
          "internalType": "uint256",
          "name": "",
          "type": "uint256"
        }
      ],
      "stateMutability": "view",
      "type": "function"
    },
    {
      "inputs": [
        {
          "internalType": "bytes",
          "name": "result",
          "type": "bytes"
        },
        {
          "internalType": "bytes",
          "name": "extraData",
          "type": "bytes"
        }
      ],
      "name": "getPricePerFullShare1WithSig",
      "outputs": [
        {
          "internalType": "uint256",
          "name": "",
          "type": "uint256"
        }
      ],
      "stateMutability": "view",
      "type": "function"
    },
    {
      "inputs": [],
      "name": "getUSDTPriceInUSD",
      "outputs": [
        {
          "internalType": "uint256",
          "name": "",
          "type": "uint256"
        },
        {
          "internalType": "uint8",
          "name": "",
          "type": "uint8"
        }
      ],
      "stateMutability": "view",
      "type": "function"
    },
    {
      "inputs": [
        {
          "internalType": "address",
          "name": "_account",
          "type": "address"
        },
        {
          "internalType": "uint256",
          "name": "_share",
          "type": "uint256"
        }
      ],
      "name": "getWithdrawPerc",
      "outputs": [
        {
          "internalType": "uint256",
          "name": "_sharePerc",
          "type": "uint256"
        }
      ],
      "stateMutability": "view",
      "type": "function"
    },
    {
      "inputs": [
        {
          "internalType": "address",
          "name": "_account",
          "type": "address"
        },
        {
          "internalType": "uint256",
          "name": "_USDTAmt",
          "type": "uint256"
        }
      ],
      "name": "initDeposit",
      "outputs": [],
      "stateMutability": "nonpayable",
      "type": "function"
    },
    {
      "inputs": [
        {
          "internalType": "address",
          "name": "_admin",
          "type": "address"
        },
        {
          "internalType": "address",
          "name": "_BNI",
          "type": "address"
        },
        {
          "internalType": "address",
          "name": "_priceOracle",
          "type": "address"
        }
      ],
      "name": "initialize",
      "outputs": [],
      "stateMutability": "nonpayable",
      "type": "function"
    },
    {
      "inputs": [
        {
          "internalType": "address",
          "name": "forwarder",
          "type": "address"
        }
      ],
      "name": "isTrustedForwarder",
      "outputs": [
        {
          "internalType": "bool",
          "name": "",
          "type": "bool"
        }
      ],
      "stateMutability": "view",
      "type": "function"
    },
    {
      "inputs": [
        {
          "internalType": "uint256",
          "name": "_pool",
          "type": "uint256"
        },
        {
          "internalType": "address",
          "name": "_account",
          "type": "address"
        }
      ],
      "name": "mintByAdmin",
      "outputs": [],
      "stateMutability": "nonpayable",
      "type": "function"
    },
    {
      "inputs": [
        {
          "internalType": "uint256",
          "name": "",
          "type": "uint256"
        }
      ],
      "name": "operations",
      "outputs": [
        {
          "internalType": "address",
          "name": "account",
          "type": "address"
        },
        {
          "internalType": "enum BNIMinter.OperationType",
          "name": "operation",
          "type": "uint8"
        },
        {
          "internalType": "uint256",
          "name": "amount",
          "type": "uint256"
        },
        {
          "internalType": "bool",
          "name": "done",
          "type": "bool"
        }
      ],
      "stateMutability": "view",
      "type": "function"
    },
    {
      "inputs": [],
      "name": "owner",
      "outputs": [
        {
          "internalType": "address",
          "name": "",
          "type": "address"
        }
      ],
      "stateMutability": "view",
      "type": "function"
    },
    {
      "inputs": [],
      "name": "paused",
      "outputs": [
        {
          "internalType": "bool",
          "name": "",
          "type": "bool"
        }
      ],
      "stateMutability": "view",
      "type": "function"
    },
    {
      "inputs": [],
      "name": "priceOracle",
      "outputs": [
        {
          "internalType": "contract IPriceOracle",
          "name": "",
          "type": "address"
        }
      ],
      "stateMutability": "view",
      "type": "function"
    },
    {
      "inputs": [
        {
          "internalType": "uint256",
          "name": "_tid",
          "type": "uint256"
        }
      ],
      "name": "removeToken",
      "outputs": [],
      "stateMutability": "nonpayable",
      "type": "function"
    },
    {
      "inputs": [],
      "name": "renounceOwnership",
      "outputs": [],
      "stateMutability": "nonpayable",
      "type": "function"
    },
    {
      "inputs": [
        {
          "internalType": "address",
          "name": "_admin",
          "type": "address"
        }
      ],
      "name": "setAdmin",
      "outputs": [],
      "stateMutability": "nonpayable",
      "type": "function"
    },
    {
      "inputs": [
        {
          "internalType": "address",
          "name": "_biconomy",
          "type": "address"
        }
      ],
      "name": "setBiconomy",
      "outputs": [],
      "stateMutability": "nonpayable",
      "type": "function"
    },
    {
      "inputs": [
        {
          "internalType": "address",
          "name": "_signer",
          "type": "address"
        }
      ],
      "name": "setGatewaySigner",
      "outputs": [],
      "stateMutability": "nonpayable",
      "type": "function"
    },
    {
      "inputs": [
        {
          "internalType": "address",
          "name": "_priceOracle",
          "type": "address"
        }
      ],
      "name": "setPriceOracle",
      "outputs": [],
      "stateMutability": "nonpayable",
      "type": "function"
    },
    {
      "inputs": [
        {
          "internalType": "uint256[]",
          "name": "_targetPerc",
          "type": "uint256[]"
        }
      ],
      "name": "setTokenCompositionTargetPerc",
      "outputs": [],
      "stateMutability": "nonpayable",
      "type": "function"
    },
    {
      "inputs": [
        {
          "internalType": "string[]",
          "name": "_urls",
          "type": "string[]"
        }
      ],
      "name": "setUrls",
      "outputs": [],
      "stateMutability": "nonpayable",
      "type": "function"
    },
    {
      "inputs": [
        {
          "internalType": "uint256",
          "name": "",
          "type": "uint256"
        }
      ],
      "name": "targetPercentages",
      "outputs": [
        {
          "internalType": "uint256",
          "name": "",
          "type": "uint256"
        }
      ],
      "stateMutability": "view",
      "type": "function"
    },
    {
      "inputs": [
        {
          "internalType": "uint256",
          "name": "",
          "type": "uint256"
        },
        {
          "internalType": "address",
          "name": "",
          "type": "address"
        }
      ],
      "name": "tid",
      "outputs": [
        {
          "internalType": "uint256",
          "name": "",
          "type": "uint256"
        }
      ],
      "stateMutability": "view",
      "type": "function"
    },
    {
      "inputs": [
        {
          "internalType": "uint256",
          "name": "",
          "type": "uint256"
        }
      ],
      "name": "tokens",
      "outputs": [
        {
          "internalType": "address",
          "name": "",
          "type": "address"
        }
      ],
      "stateMutability": "view",
      "type": "function"
    },
    {
      "inputs": [
        {
          "internalType": "address",
          "name": "newOwner",
          "type": "address"
        }
      ],
      "name": "transferOwnership",
      "outputs": [],
      "stateMutability": "nonpayable",
      "type": "function"
    },
    {
      "inputs": [],
      "name": "trustedForwarder",
      "outputs": [
        {
          "internalType": "address",
          "name": "",
          "type": "address"
        }
      ],
      "stateMutability": "view",
      "type": "function"
    },
    {
      "inputs": [
        {
          "internalType": "uint256",
          "name": "",
          "type": "uint256"
        }
      ],
      "name": "urls",
      "outputs": [
        {
          "internalType": "string",
          "name": "",
          "type": "string"
        }
      ],
      "stateMutability": "view",
      "type": "function"
    },
    {
      "inputs": [
        {
          "internalType": "address",
          "name": "",
          "type": "address"
        }
      ],
      "name": "userLastOperationNonce",
      "outputs": [
        {
          "internalType": "uint256",
          "name": "",
          "type": "uint256"
        }
      ],
      "stateMutability": "view",
      "type": "function"
    },
    {
      "inputs": [],
      "name": "versionRecipient",
      "outputs": [
        {
          "internalType": "string",
          "name": "",
          "type": "string"
        }
      ],
      "stateMutability": "pure",
      "type": "function"
    }
  ],
  "transactionHash": "0x997cb399f7309b8eae2f356589c3f1acefb3d7f3331c36f695c7bff0fa69bf61",
  "args": [],
  "numDeployments": 12,
  "solcInputHash": "5826fd535572ace200bb265808622787",
  "bytecode": "0x608060405234801561001057600080fd5b50614495806100206000396000f3fe608060405234801561001057600080fd5b50600436106102f15760003560e01c80637da0a8771161019d578063c0c53b8b116100e9578063ec2e54c7116100a2578063f2fde38b1161007c578063f2fde38b146106f3578063f3253c6314610706578063f851a44014610719578063fd6878cc1461072c57600080fd5b8063ec2e54c7146106c5578063ece90e90146106d8578063ef02197f146106e057600080fd5b8063c0c53b8b1461065e578063cb25bb6514610671578063d087d28814610684578063d3b974a01461068c578063da3bc85c1461069f578063dd8aae41146106b257600080fd5b80639f86d4dd11610156578063af05a74911610130578063af05a74914610601578063b2e9949d14610609578063b47c6a271461062c578063b9bd5bb51461064b57600080fd5b80639f86d4dd146105c8578063a08ce520146105db578063a7645a20146105ee57600080fd5b80637da0a877146105585780637ed66ec61461056b5780637fb2df421461057e5780638da5cb5b1461059157806397cd02e6146105a25780639ecb6fae146105b557600080fd5b80634f64b2be1161025c5780635ad748e411610215578063704b6c02116101ef578063704b6c0214610517578063715018a61461052a578063770c76dd14610532578063796676be1461054557600080fd5b80635ad748e4146104e65780635c975abb146104f95780636cc895a91461050457600080fd5b80634f64b2be1461046b5780635042f9b61461047e578063530e784f1461048657806357016b0a14610499578063572b6c05146104ac5780635796d0b0146104de57600080fd5b80632630c12f116102ae5780632630c12f146103af57806336c5d724146103da57806338a87163146103ed57806340b8e57f14610410578063486ff0cd14610423578063494455531461044957600080fd5b806309d23e24146102f65780630d8b76a81461031c57806319dac5af146103315780631c60ffc3146103515780631cc0f27d1461037c578063202e39241461038f575b600080fd5b610309610304366004613572565b61073f565b6040519081526020015b60405180910390f35b61032f61032a3660046135a2565b610760565b005b61030961033f3660046135a2565b60d46020526000908152604090205481565b61030961035f3660046135bd565b60cc60209081526000928352604080842090915290825290205481565b61032f61038a3660046135a2565b6107d4565b6103a261039d366004613572565b610822565b6040516103139190613621565b60cf546103c2906001600160a01b031681565b6040516001600160a01b039091168152602001610313565b61032f6103e8366004613572565b6108e5565b6104006103fb3660046136a3565b610beb565b6040516103139493929190613782565b61030961041e3660046136a3565b610ce4565b6040805180820190915260018152603160f81b60208201525b6040516103139190613827565b61045c610457366004613572565b610d5b565b6040516103139392919061383a565b6103c2610479366004613572565b610dcf565b610309610df9565b61032f6104943660046135a2565b610e44565b61032f6104a73660046135bd565b610eaf565b6104ce6104ba3660046135a2565b60d2546001600160a01b0391821691161490565b6040519015158152602001610313565b6104006110da565b61032f6104f4366004613873565b61112d565b60655460ff166104ce565b61032f61051236600461395d565b61134f565b61032f6105253660046135a2565b6113ab565b61032f611455565b61032f6105403660046135bd565b6114aa565b61043c610553366004613572565b611786565b60d2546103c2906001600160a01b031681565b61045c6105793660046136a3565b611832565b61032f61058c366004613a27565b6118cc565b6097546001600160a01b03166103c2565b6103096105b0366004613b01565b611a20565b6103096105c3366004613572565b611aed565b6103096105d6366004613873565b611b5c565b6103096105e93660046136a3565b611cd8565b6103096105fc366004613572565b611d48565b610309611d58565b61061c610617366004613572565b611da3565b6040516103139493929190613b3d565b610634611dee565b6040805192835260ff909116602083015201610313565b61032f6106593660046135a2565b611e89565b61032f61066c366004613b71565b611ef4565b61040061067f366004613c16565b612174565b60d354610309565b61045c61069a366004613c9d565b612372565b6103096106ad366004613d2c565b6126a9565b6103096106c0366004613b01565b612792565b60ce546103c2906001600160a01b031681565b6103096127e3565b61032f6106ee366004613873565b61282e565b61032f6107013660046135a2565b6128bf565b60d1546103c2906001600160a01b031681565b60cd546103c2906001600160a01b031681565b61030961073a3660046136a3565b612979565b60c9818154811061074f57600080fd5b600091825260209091200154905081565b6107686129dd565b6001600160a01b03166107836097546001600160a01b031690565b6001600160a01b0316146107b25760405162461bcd60e51b81526004016107a990613d8f565b60405180910390fd5b60d280546001600160a01b0319166001600160a01b0392909216919091179055565b6097546001600160a01b03163314806107f7575060cd546001600160a01b031633145b6108135760405162461bcd60e51b81526004016107a990613dc4565b61081e816002612a11565b5050565b60408051608081018252600080825260208201819052918101829052606081019190915260d3610853600184613e07565b8154811061086357610863613e1e565b6000918252602091829020604080516080810190915260039092020180546001600160a01b0381168352919290919083019060ff600160a01b9091041660028111156108b1576108b16135e9565b60028111156108c2576108c26135e9565b81526001820154602082015260029091015460ff16151560409091015292915050565b6108ed6129dd565b6001600160a01b03166109086097546001600160a01b031690565b6001600160a01b03161461092e5760405162461bcd60e51b81526004016107a990613d8f565b60ca5480821061096e5760405162461bcd60e51b815260206004820152600b60248201526a125b9d985b1a59081d1a5960aa1b60448201526064016107a9565b600060c9838154811061098357610983613e1e565b90600052602060002001549050600060ca84815481106109a5576109a5613e1e565b600091825260208220015460cb80546001600160a01b03909216935090869081106109d2576109d2613e1e565b9060005260206000200154905060c96001856109ee9190613e07565b815481106109fe576109fe613e1e565b906000526020600020015460c98681548110610a1c57610a1c613e1e565b60009182526020909120015560c9805480610a3957610a39613e34565b6001900381819060005260206000200160009055905560ca600185610a5e9190613e07565b81548110610a6e57610a6e613e1e565b60009182526020909120015460ca80546001600160a01b039092169187908110610a9a57610a9a613e1e565b9060005260206000200160006101000a8154816001600160a01b0302191690836001600160a01b0316021790555060ca805480610ad957610ad9613e34565b600082815260209020810160001990810180546001600160a01b031916905501905560cb610b08600186613e07565b81548110610b1857610b18613e1e565b906000526020600020015460cb8681548110610b3657610b36613e1e565b60009182526020909120015560cb805480610b5357610b53613e34565b60008281526020808220830160001990810183905590920190925584825260cc815260408083206001600160a01b0386168452909152812055610b94612b35565b604080518481526001600160a01b0384166020820152908101829052606081018690527fd8cc1d279bf727e9ee02c4ed116f7c12f4965ace9b477482de71a7929a1871b39060800160405180910390a15050505050565b60608080806000808080610c018b8d018d613e6a565b93509350935093506000610c9182868686604051602001610c2493929190613f3b565b60408051601f198184030181529082905280516020918201207f19457468657265756d205369676e6564204d6573736167653a0a33320000000091830191909152603c820152605c0160405160208183030381529060405280519060200120612c7890919063ffffffff16565b60d1549091506001600160a01b03808316911614610cc15760405162461bcd60e51b81526004016107a990613f84565b610ccc858585612174565b98509850985098505050505050945094509450949050565b6000808080610cf587890189613fb1565b9250925092506000610d14828585604051602001610c2492919061402e565b60d1549091506001600160a01b03808316911614610d445760405162461bcd60e51b81526004016107a990613f84565b610d4e84846126a9565b9998505050505050505050565b6040805160048152602481018252602080820180516001600160e01b0316633c1d708960e01b179052825190810184905260609283928392309260d09291633f6b376360e11b91015b60408051601f1981840301815290829052630556f18360e41b82526107a9959493929160040161407e565b60ca8181548110610ddf57600080fd5b6000918252602090912001546001600160a01b0316905081565b6040805160048152602481018252602080820180516001600160e01b03166328217cdb60e11b179052825160009181018290529092309260d0929091630504672960e51b9101610da4565b610e4c6129dd565b6001600160a01b0316610e676097546001600160a01b031690565b6001600160a01b031614610e8d5760405162461bcd60e51b81526004016107a990613d8f565b60cf80546001600160a01b0319166001600160a01b0392909216919091179055565b610eb76129dd565b6001600160a01b0316610ed26097546001600160a01b031690565b6001600160a01b031614610ef85760405162461bcd60e51b81526004016107a990613d8f565b600082815260cc602090815260408083206001600160a01b038516845290915290205480158015610f47575060c9600081548110610f3857610f38613e1e565b90600052602060002001548314155b8015610f7e575060ca600081548110610f6257610f62613e1e565b6000918252602090912001546001600160a01b03838116911614155b610fba5760405162461bcd60e51b815260206004820152600d60248201526c105b1c9958591e481859191959609a1b60448201526064016107a9565b60c9805460018082019092557f66be4f155c5ef2ebd3772b228f2f00681e4ed5826cdb3b1943cc11ad15ad1d280184905560ca805480830182557f42d72674974f694b5f5159593243114d38a5c39c89d6b62fee061ff523240ee10180546001600160a01b0319166001600160a01b03861617905560cb8054808401825560009182527fa7ce836d032b2bf62b7e2097a8e0a6d8aeb35405ad15271e96d3b0188a1d06fb01555461106b9190613e07565b600084815260cc602090815260408083206001600160a01b038716808552908352928190208490558051878152918201929092529081018290529091507fefa15d4fefbb71d07b3cdc624ab208ebe2d3b6933946582fd8b807e8a5bc93cc9060600160405180910390a1505050565b6040805160048152602481018252602080820180516001600160e01b03166305796d0b60e41b1790528251600091810191909152606092839283928392309260d09290916338a8716360e01b9101610da4565b6097546001600160a01b0316331480611150575060cd546001600160a01b031633145b61116c5760405162461bcd60e51b81526004016107a990613dc4565b600260015414156111bf5760405162461bcd60e51b815260206004820152601f60248201527f5265656e7472616e637947756172643a207265656e7472616e742063616c6c0060448201526064016107a9565b6002600155801580159061124f575060ce546040516370a0823160e01b81526001600160a01b038481166004830152909116906370a082319060240160206040518083038186803b15801561121357600080fd5b505afa158015611227573d6000803e3d6000fd5b505050506040513d601f19601f8201168201806040525081019061124b91906141ab565b8111155b6112925760405162461bcd60e51b8152602060048201526014602482015273125b9d985b1a59081cda185c9948185b5bdd5b9d60621b60448201526064016107a9565b61129e82600283612c94565b60ce5460405163079cc67960e41b81526001600160a01b03848116600483015260248201849052909116906379cc679090604401600060405180830381600087803b1580156112ec57600080fd5b505af1158015611300573d6000803e3d6000fd5b5050604080516001600160a01b0386168152602081018590527fcc16f5dbb4873280815c1ee09dbd06736cffcc184412cf7a71a0fdb75d397ca5935001905060405180910390a1505060018055565b6113576129dd565b6001600160a01b03166113726097546001600160a01b031690565b6001600160a01b0316146113985760405162461bcd60e51b81526004016107a990613d8f565b805161081e9060d0906020840190613429565b6113b36129dd565b6001600160a01b03166113ce6097546001600160a01b031690565b6001600160a01b0316146113f45760405162461bcd60e51b81526004016107a990613d8f565b60cd80546001600160a01b038381166001600160a01b031983168117909355604080519190921680825260208201939093527f9f0ac88be9159761bacf6c9e7c294c397ebf594607f6b3f2f70e7e0841ea68e8910160405180910390a15050565b61145d6129dd565b6001600160a01b03166114786097546001600160a01b031690565b6001600160a01b03161461149e5760405162461bcd60e51b81526004016107a990613d8f565b6114a86000612e03565b565b6097546001600160a01b03163314806114cd575060cd546001600160a01b031633145b6114e95760405162461bcd60e51b81526004016107a990613dc4565b6002600154141561153c5760405162461bcd60e51b815260206004820152601f60248201527f5265656e7472616e637947756172643a207265656e7472616e742063616c6c0060448201526064016107a9565b600260015560655460ff16156115875760405162461bcd60e51b815260206004820152601060248201526f14185d5cd8589b194e881c185d5cd95960821b60448201526064016107a9565b6000611594826001612a11565b90506000806115a1611dee565b909250905060006115b382600a6142a8565b836115c38664e8d4a510006142b7565b6115cd91906142b7565b6115d791906142d6565b90508581106115e75760006115f1565b6115f18187613e07565b9550600060ce60009054906101000a90046001600160a01b03166001600160a01b03166318160ddd6040518163ffffffff1660e01b815260040160206040518083038186803b15801561164357600080fd5b505afa158015611657573d6000803e3d6000fd5b505050506040513d601f19601f8201168201806040525081019061167b91906141ab565b9050600081158061168a575087155b6116a8578761169984846142b7565b6116a391906142d6565b6116aa565b825b90506103e86116bb826103e56142b7565b6116c591906142d6565b60ce546040516340c10f1960e01b81526001600160a01b038a81166004830152602482018490529293509116906340c10f1990604401600060405180830381600087803b15801561171557600080fd5b505af1158015611729573d6000803e3d6000fd5b5050604080516001600160a01b038b168152602081018790529081018490527f4c209b5fc8ad50758f13e2e1088ba56a560dff690a1c6fef26394f4c03821c4f9250606001905060405180910390a1505060018055505050505050565b60d0818154811061179657600080fd5b9060005260206000200160009150905080546117b190614043565b80601f01602080910402602001604051908101604052809291908181526020018280546117dd90614043565b801561182a5780601f106117ff5761010080835404028352916020019161182a565b820191906000526020600020905b81548152906001019060200180831161180d57829003601f168201915b505050505081565b60608080600061184485870187613572565b905060008080806118578b8d018d613e6a565b9350935093509350600061187a82868686604051602001610c2493929190613f3b565b60d1549091506001600160a01b038083169116146118aa5760405162461bcd60e51b81526004016107a990613f84565b6118b685858589612372565b9850985098505050505050509450945094915050565b6118d46129dd565b6001600160a01b03166118ef6097546001600160a01b031690565b6001600160a01b0316146119155760405162461bcd60e51b81526004016107a990613d8f565b60cb54819081146119585760405162461bcd60e51b815260206004820152600d60248201526c125b9d985b1a590818dbdd5b9d609a1b60448201526064016107a9565b6000805b828110156119d45784848281811061197657611976613e1e565b9050602002013560cb828154811061199057611990613e1e565b6000918252602090912001558484828181106119ae576119ae613e1e565b90506020020135826119c091906142f8565b9150806119cc81614310565b91505061195c565b506127108114611a1a5760405162461bcd60e51b815260206004820152601160248201527024b73b30b634b2103830b930b6b2ba32b960791b60448201526064016107a9565b50505050565b60008060ce60009054906101000a90046001600160a01b03166001600160a01b03166318160ddd6040518163ffffffff1660e01b815260040160206040518083038186803b158015611a7157600080fd5b505afa158015611a85573d6000803e3d6000fd5b505050506040513d601f19601f82011682018060405250810190611aa991906141ab565b905080611ac05750670de0b6b3a764000092915050565b80611aca84612792565b611adc90670de0b6b3a76400006142b7565b611ae691906142d6565b9392505050565b60003060d0639ecb6fae60e01b84604051602401611b0d91815260200190565b60408051601f19818403018152918152602080830180516001600160e01b03166001600160e01b031990951694909417909352519091630504672960e51b91610da49188910190815260200190565b6000816000108015611bea575060ce546040516370a0823160e01b81526001600160a01b038581166004830152909116906370a082319060240160206040518083038186803b158015611bae57600080fd5b505afa158015611bc2573d6000803e3d6000fd5b505050506040513d601f19601f82011682018060405250810190611be691906141ab565b8211155b611c2d5760405162461bcd60e51b8152602060048201526014602482015273125b9d985b1a59081cda185c9948185b5bdd5b9d60621b60448201526064016107a9565b60ce60009054906101000a90046001600160a01b03166001600160a01b03166318160ddd6040518163ffffffff1660e01b815260040160206040518083038186803b158015611c7b57600080fd5b505afa158015611c8f573d6000803e3d6000fd5b505050506040513d601f19601f82011682018060405250810190611cb391906141ab565b611cc583670de0b6b3a76400006142b7565b611ccf91906142d6565b90505b92915050565b60008080611ce88688018861432b565b915091506000611d038284604051602001610c249190614384565b60d1549091506001600160a01b03808316911614611d335760405162461bcd60e51b81526004016107a990613f84565b611d3c83612792565b98975050505050505050565b60cb818154811061074f57600080fd5b6040805160048152602481018252602080820180516001600160e01b031663af05a74960e01b179052825160009181018290529092309260d0929091633f5a1e3360e21b9101610da4565b60d38181548110611db357600080fd5b60009182526020909120600390910201805460018201546002909201546001600160a01b038216935060ff600160a01b909204821692911684565b60cf5460405163b3596f0760e01b81527378ae2880bd1672b49a33cf796cf53fe6db0ab01d600482015260009182916001600160a01b039091169063b3596f0790602401604080518083038186803b158015611e4957600080fd5b505afa158015611e5d573d6000803e3d6000fd5b505050506040513d601f19601f82011682018060405250810190611e819190614390565b915091509091565b611e916129dd565b6001600160a01b0316611eac6097546001600160a01b031690565b6001600160a01b031614611ed25760405162461bcd60e51b81526004016107a990613d8f565b60d180546001600160a01b0319166001600160a01b0392909216919091179055565b6000611f006001612e55565b90508015611f18576000805461ff0019166101001790555b611f20612ee2565b60cd80546001600160a01b038087166001600160a01b03199283161790925560ce805486841690831617905560cf80549285169282169290921790915560c980546001818101835560897f66be4f155c5ef2ebd3772b228f2f00681e4ed5826cdb3b1943cc11ad15ad1d28928301558254808201845561a86a908301558254808201909355634e454152929091019190915560ca805480830182557f42d72674974f694b5f5159593243114d38a5c39c89d6b62fee061ff523240ee190810180548516730d500b1d8e8ef31e21c99d1db9a6444d3adf12701790558154808401835581018054851673b31f66aa3c1e785363f0875a1b74e27b85fd66c7179055815480840190925501805490921673c42c30ac6cc15fac9bd938618bcaa1a1fae8501d1790915560cb805480830182556000829052610fa07fa7ce836d032b2bf62b7e2097a8e0a6d8aeb35405ad15271e96d3b0188a1d06fb9182018190558254808501845582015581549283019091556107d091015561209f612b35565b60d0805460018101825560009190915260408051808201909152601680825275687474703a2f2f6c6f63616c686f73743a383030302f60501b602090920191825261210d927fe89d44c8fd6a9bac8af33ce47f56337617d449bf7ff3956b618c646de829cbcb019190613486565b5060d180546001600160a01b0319166001600160a01b0386161790558015611a1a576000805461ff0019169055604051600181527f7f26b83ff96e1f2b6a682f133852f6798a09c465da95921460cefb38474024989060200160405180910390a150505050565b606080606080612185878787612f11565b80519092506000805b828110156121cf578481815181106121a8576121a8613e1e565b6020026020010151826121bb91906142f8565b9150806121c781614310565b91505061218e565b50816001600160401b038111156121e8576121e861389d565b604051908082528060200260200182016040528015612211578160200160208202803683370190505b50925060005b828110156122aa57811561225c578161271086838151811061223b5761223b613e1e565b602002602001015161224d91906142b7565b61225791906142d6565b61227b565b60cb818154811061226f5761226f613e1e565b90600052602060002001545b84828151811061228d5761228d613e1e565b6020908102919091010152806122a281614310565b915050612217565b5060c960ca8585838054806020026020016040519081016040528092919081815260200182805480156122fc57602002820191906000526020600020905b8154815260200190600101908083116122e8575b505050505093508280548060200260200160405190810160405280929190818152602001828054801561235857602002820191906000526020600020905b81546001600160a01b0316815260019091019060200180831161233a575b505050505092509550955095509550505093509350935093565b6060806060600080612385898989612174565b93509350505060008151905060008061239c611dee565b909250905060006123ae82600a6142a8565b836123be8c64e8d4a510006142b7565b6123c891906142b7565b6123d291906142d6565b905060005b84811015612418578681815181106123f1576123f1613e1e565b60200260200101518261240491906142f8565b91508061241081614310565b9150506123d7565b50600080856001600160401b038111156124345761243461389d565b60405190808252806020026020018201604052801561245d578160200160208202803683370190505b50905060005b8681101561252e57600061271060cb838154811061248357612483613e1e565b90600052602060002001548661249991906142b7565b6124a391906142d6565b9050808a83815181106124b8576124b8613e1e565b6020026020010151101561251b5760008a83815181106124da576124da613e1e565b6020026020010151826124ed9190613e07565b90508084848151811061250257612502613e1e565b602090810291909101015261251781866142f8565b9450505b508061252681614310565b915050612463565b50856001600160401b038111156125475761254761389d565b604051908082528060200260200182016040528015612570578160200160208202803683370190505b50985060005b868110156125dd578282828151811061259157612591613e1e565b60200260200101518e6125a491906142b7565b6125ae91906142d6565b8a82815181106125c0576125c0613e1e565b6020908102919091010152806125d581614310565b915050612576565b5060c960ca8a8280548060200260200160405190810160405280929190818152602001828054801561262e57602002820191906000526020600020905b81548152602001906001019080831161261a575b505050505092508180548060200260200160405190810160405280929190818152602001828054801561268a57602002820191906000526020600020905b81546001600160a01b0316815260019091019060200180831161266c575b505050505091509a509a509a5050505050505050509450945094915050565b815181516000919081146126f85760405162461bcd60e51b815260206004820152601660248201527509cdee840dac2e8c6d040c2e4e4c2f240d8cadccee8d60531b60448201526064016107a9565b600061270385612792565b90508061271557600092505050611cd2565b6000805b8381101561277d5786818151811061273357612733613e1e565b602002602001015186828151811061274d5761274d613e1e565b602002602001015161275f91906142b7565b61276990836142f8565b91508061277581614310565b915050612719565b5061278882826142d6565b9695505050505050565b805160009081805b828110156127db578481815181106127b4576127b4613e1e565b6020026020010151826127c791906142f8565b9150806127d381614310565b91505061279a565b509392505050565b6040805160048152602481018252602080820180516001600160e01b0316630ece90e960e41b179052825160009181018290529092309260d09290916340b8e57f60e01b9101610da4565b6097546001600160a01b0316331480612851575060cd546001600160a01b031633145b61286d5760405162461bcd60e51b81526004016107a990613dc4565b60655460ff16156128b35760405162461bcd60e51b815260206004820152601060248201526f14185d5cd8589b194e881c185d5cd95960821b60448201526064016107a9565b61081e82600183612c94565b6128c76129dd565b6001600160a01b03166128e26097546001600160a01b031690565b6001600160a01b0316146129085760405162461bcd60e51b81526004016107a990613d8f565b6001600160a01b03811661296d5760405162461bcd60e51b815260206004820152602660248201527f4f776e61626c653a206e6577206f776e657220697320746865207a65726f206160448201526564647265737360d01b60648201526084016107a9565b61297681612e03565b50565b600080806129898688018861432b565b9150915060006129a48284604051602001610c249190614384565b60d1549091506001600160a01b038083169116146129d45760405162461bcd60e51b81526004016107a990613f84565b611d3c83611a20565b6000601836108015906129fa575060d2546001600160a01b031633145b15612a0c575060131936013560601c90565b503390565b6001600160a01b038216600090815260d4602052604081205480612a665760405162461bcd60e51b815260206004820152600c60248201526b27379037b832b930ba34b7b760a11b60448201526064016107a9565b6000612a7182610822565b9050836002811115612a8557612a856135e9565b81602001516002811115612a9b57612a9b6135e9565b148015612aaa57506060810151155b612ae95760405162461bcd60e51b815260206004820152601060248201526f105b1c9958591e48199a5b9a5cda195960821b60448201526064016107a9565b600160d3612af78285613e07565b81548110612b0757612b07613e1e565b60009182526020909120600390910201600201805460ff191691151591909117905560400151949350505050565b600060c9805480602002602001604051908101604052809291908181526020018280548015612b8357602002820191906000526020600020905b815481526020019060010190808311612b6f575b50505050509050600060ca805480602002602001604051908101604052809291908181526020018280548015612be257602002820191906000526020600020905b81546001600160a01b03168152600190910190602001808311612bc4575b505083519394506000925050505b81811015611a1a578060cc6000868481518110612c0f57612c0f613e1e565b602002602001015181526020019081526020016000206000858481518110612c3957612c39613e1e565b60200260200101516001600160a01b03166001600160a01b03168152602001908152602001600020819055508080612c7090614310565b915050612bf0565b6000806000612c8785856130a1565b915091506127db81613111565b6001600160a01b038316600090815260d460205260409020548015612d13576000612cbe82610822565b90508060600151612d115760405162461bcd60e51b815260206004820152601f60248201527f50726576696f7573206f7065726174696f6e206e6f742066696e69736865640060448201526064016107a9565b505b60d36040518060800160405280866001600160a01b03168152602001856002811115612d4157612d416135e9565b8152602080820186905260006040909201829052835460018101855593825290819020825160039094020180546001600160a01b039094166001600160a01b031985168117825591830151929390929183916001600160a81b03191617600160a01b836002811115612db557612db56135e9565b0217905550604082015160018201556060909101516002909101805460ff191691151591909117905560d3546001600160a01b03909416600090815260d46020526040902093909355505050565b609780546001600160a01b038381166001600160a01b0319831681179093556040519116919082907f8be0079c531659141344cd1fd0a4f28419497f9722a3daafe3b4186f6b6457e090600090a35050565b60008054610100900460ff1615612e9c578160ff166001148015612e785750303b155b612e945760405162461bcd60e51b81526004016107a9906143c6565b506000919050565b60005460ff808416911610612ec35760405162461bcd60e51b81526004016107a9906143c6565b506000805460ff191660ff92909216919091179055600190565b919050565b600054610100900460ff16612f095760405162461bcd60e51b81526004016107a990614414565b6114a86132cc565b815160ca5460609190806001600160401b03811115612f3257612f3261389d565b604051908082528060200260200182016040528015612f5b578160200160208202803683370190505b50925060005b82811015613097576000878281518110612f7d57612f7d613e1e565b602002602001015190506000878381518110612f9b57612f9b613e1e565b602090810291909101810151600084815260cc835260408082206001600160a01b03841683529093529190912054909150808511612fdb57505050613085565b8015801561303c575060c9600081548110612ff857612ff8613e1e565b90600052602060002001548314158061303c575060ca60008154811061302057613020613e1e565b6000918252602090912001546001600160a01b03838116911614155b1561304957505050613085565b87848151811061305b5761305b613e1e565b602002602001015187828151811061307557613075613e1e565b6020026020010181815250505050505b8061308f81614310565b915050612f61565b5050509392505050565b6000808251604114156130d85760208301516040840151606085015160001a6130cc87828585613303565b9450945050505061310a565b82516040141561310257602083015160408401516130f78683836133f0565b93509350505061310a565b506000905060025b9250929050565b6000816004811115613125576131256135e9565b141561312e5750565b6001816004811115613142576131426135e9565b14156131905760405162461bcd60e51b815260206004820152601860248201527f45434453413a20696e76616c6964207369676e6174757265000000000000000060448201526064016107a9565b60028160048111156131a4576131a46135e9565b14156131f25760405162461bcd60e51b815260206004820152601f60248201527f45434453413a20696e76616c6964207369676e6174757265206c656e6774680060448201526064016107a9565b6003816004811115613206576132066135e9565b141561325f5760405162461bcd60e51b815260206004820152602260248201527f45434453413a20696e76616c6964207369676e6174757265202773272076616c604482015261756560f01b60648201526084016107a9565b6004816004811115613273576132736135e9565b14156129765760405162461bcd60e51b815260206004820152602260248201527f45434453413a20696e76616c6964207369676e6174757265202776272076616c604482015261756560f01b60648201526084016107a9565b600054610100900460ff166132f35760405162461bcd60e51b81526004016107a990614414565b6114a86132fe6129dd565b612e03565b6000807f7fffffffffffffffffffffffffffffff5d576e7357a4501ddfe92f46681b20a083111561333a57506000905060036133e7565b8460ff16601b1415801561335257508460ff16601c14155b1561336357506000905060046133e7565b6040805160008082526020820180845289905260ff881692820192909252606081018690526080810185905260019060a0016020604051602081039080840390855afa1580156133b7573d6000803e3d6000fd5b5050604051601f1901519150506001600160a01b0381166133e0576000600192509250506133e7565b9150600090505b94509492505050565b6000806001600160ff1b0383168161340d60ff86901c601b6142f8565b905061341b87828885613303565b935093505050935093915050565b828054828255906000526020600020908101928215613476579160200282015b828111156134765782518051613466918491602090910190613486565b5091602001919060010190613449565b50613482929150613506565b5090565b82805461349290614043565b90600052602060002090601f0160209004810192826134b457600085556134fa565b82601f106134cd57805160ff19168380011785556134fa565b828001600101855582156134fa579182015b828111156134fa5782518255916020019190600101906134df565b50613482929150613523565b8082111561348257600061351a8282613538565b50600101613506565b5b808211156134825760008155600101613524565b50805461354490614043565b6000825580601f10613554575050565b601f0160209004906000526020600020908101906129769190613523565b60006020828403121561358457600080fd5b5035919050565b80356001600160a01b0381168114612edd57600080fd5b6000602082840312156135b457600080fd5b611ccf8261358b565b600080604083850312156135d057600080fd5b823591506135e06020840161358b565b90509250929050565b634e487b7160e01b600052602160045260246000fd5b6003811061361d57634e487b7160e01b600052602160045260246000fd5b9052565b81516001600160a01b031681526020808301516080830191613645908401826135ff565b506040830151604083015260608301511515606083015292915050565b60008083601f84011261367457600080fd5b5081356001600160401b0381111561368b57600080fd5b60208301915083602082850101111561310a57600080fd5b600080600080604085870312156136b957600080fd5b84356001600160401b03808211156136d057600080fd5b6136dc88838901613662565b909650945060208701359150808211156136f557600080fd5b5061370287828801613662565b95989497509550505050565b600081518084526020808501945080840160005b8381101561373e57815187529582019590820190600101613722565b509495945050505050565b600081518084526020808501945080840160005b8381101561373e5781516001600160a01b03168752958201959082019060010161375d565b608081526000613795608083018761370e565b82810360208401526137a78187613749565b905082810360408401526137bb818661370e565b905082810360608401526137cf818561370e565b979650505050505050565b6000815180845260005b81811015613800576020818501810151868301820152016137e4565b81811115613812576000602083870101525b50601f01601f19169290920160200192915050565b602081526000611ccf60208301846137da565b60608152600061384d606083018661370e565b828103602084015261385f8186613749565b90508281036040840152612788818561370e565b6000806040838503121561388657600080fd5b61388f8361358b565b946020939093013593505050565b634e487b7160e01b600052604160045260246000fd5b604051601f8201601f191681016001600160401b03811182821017156138db576138db61389d565b604052919050565b60006001600160401b038211156138fc576138fc61389d565b5060051b60200190565b60006001600160401b0383111561391f5761391f61389d565b613932601f8401601f19166020016138b3565b905082815283838301111561394657600080fd5b828260208301376000602084830101529392505050565b6000602080838503121561397057600080fd5b82356001600160401b038082111561398757600080fd5b818501915085601f83011261399b57600080fd5b81356139ae6139a9826138e3565b6138b3565b81815260059190911b830184019084810190888311156139cd57600080fd5b8585015b83811015613a1a578035858111156139e95760008081fd5b8601603f81018b136139fb5760008081fd5b613a0c8b8983013560408401613906565b8452509186019186016139d1565b5098975050505050505050565b60008060208385031215613a3a57600080fd5b82356001600160401b0380821115613a5157600080fd5b818501915085601f830112613a6557600080fd5b813581811115613a7457600080fd5b8660208260051b8501011115613a8957600080fd5b60209290920196919550909350505050565b600082601f830112613aac57600080fd5b81356020613abc6139a9836138e3565b82815260059290921b84018101918181019086841115613adb57600080fd5b8286015b84811015613af65780358352918301918301613adf565b509695505050505050565b600060208284031215613b1357600080fd5b81356001600160401b03811115613b2957600080fd5b613b3584828501613a9b565b949350505050565b6001600160a01b038516815260808101613b5a60208301866135ff565b836040830152821515606083015295945050505050565b600080600060608486031215613b8657600080fd5b613b8f8461358b565b9250613b9d6020850161358b565b9150613bab6040850161358b565b90509250925092565b600082601f830112613bc557600080fd5b81356020613bd56139a9836138e3565b82815260059290921b84018101918181019086841115613bf457600080fd5b8286015b84811015613af657613c098161358b565b8352918301918301613bf8565b600080600060608486031215613c2b57600080fd5b83356001600160401b0380821115613c4257600080fd5b613c4e87838801613a9b565b94506020860135915080821115613c6457600080fd5b613c7087838801613bb4565b93506040860135915080821115613c8657600080fd5b50613c9386828701613a9b565b9150509250925092565b60008060008060808587031215613cb357600080fd5b84356001600160401b0380821115613cca57600080fd5b613cd688838901613a9b565b95506020870135915080821115613cec57600080fd5b613cf888838901613bb4565b94506040870135915080821115613d0e57600080fd5b50613d1b87828801613a9b565b949793965093946060013593505050565b60008060408385031215613d3f57600080fd5b82356001600160401b0380821115613d5657600080fd5b613d6286838701613a9b565b93506020850135915080821115613d7857600080fd5b50613d8585828601613a9b565b9150509250929050565b6020808252818101527f4f776e61626c653a2063616c6c6572206973206e6f7420746865206f776e6572604082015260600190565b60208082526013908201527227b7363c9037bbb732b91037b91030b236b4b760691b604082015260600190565b634e487b7160e01b600052601160045260246000fd5b600082821015613e1957613e19613df1565b500390565b634e487b7160e01b600052603260045260246000fd5b634e487b7160e01b600052603160045260246000fd5b600082601f830112613e5b57600080fd5b611ccf83833560208501613906565b60008060008060808587031215613e8057600080fd5b84356001600160401b0380821115613e9757600080fd5b613ea388838901613a9b565b95506020870135915080821115613eb957600080fd5b613ec588838901613bb4565b94506040870135915080821115613edb57600080fd5b613ee788838901613a9b565b93506060870135915080821115613efd57600080fd5b50613f0a87828801613e4a565b91505092959194509250565b8051600090602080840183831561373e57815187529582019590820190600101613722565b6000613f478286613f16565b8451602080870160005b83811015613f765781516001600160a01b031685529382019390820190600101613f51565b505050506127888185613f16565b60208082526013908201527214da59db995c881a5cc81a5b98dbdc9c9958dd606a1b604082015260600190565b600080600060608486031215613fc657600080fd5b83356001600160401b0380821115613fdd57600080fd5b613fe987838801613a9b565b94506020860135915080821115613fff57600080fd5b61400b87838801613a9b565b9350604086013591508082111561402157600080fd5b50613c9386828701613e4a565b6000613b3561403d8386613f16565b84613f16565b600181811c9082168061405757607f821691505b6020821081141561407857634e487b7160e01b600052602260045260246000fd5b50919050565b600060a0820160018060a01b0388168352602060a08185015281885480845260c08601915060c08160051b870101935060008a8152838120815b8381101561416f5788870360bf1901855281548390600181811c90808316806140e257607f831692505b8a831081141561410057634e487b7160e01b88526022600452602488fd5b828c5260208c0181801561411b576001811461412c57614156565b60ff19861682528c82019650614156565b6000898152602090208a5b8681101561415057815484820152908501908e01614137565b83019750505b50949b50509789019794909401935050506001016140b8565b505050505050828103604084015261418781876137da565b6001600160e01b03198616606085015290508281036080840152611d3c81856137da565b6000602082840312156141bd57600080fd5b5051919050565b600181815b808511156141ff5781600019048211156141e5576141e5613df1565b808516156141f257918102915b93841c93908002906141c9565b509250929050565b60008261421657506001611cd2565b8161422357506000611cd2565b816001811461423957600281146142435761425f565b6001915050611cd2565b60ff84111561425457614254613df1565b50506001821b611cd2565b5060208310610133831016604e8410600b8410161715614282575081810a611cd2565b61428c83836141c4565b80600019048211156142a0576142a0613df1565b029392505050565b6000611ccf60ff841683614207565b60008160001904831182151516156142d1576142d1613df1565b500290565b6000826142f357634e487b7160e01b600052601260045260246000fd5b500490565b6000821982111561430b5761430b613df1565b500190565b600060001982141561432457614324613df1565b5060010190565b6000806040838503121561433e57600080fd5b82356001600160401b038082111561435557600080fd5b61436186838701613a9b565b9350602085013591508082111561437757600080fd5b50613d8585828601613e4a565b6000611ccf8284613f16565b600080604083850312156143a357600080fd5b82519150602083015160ff811681146143bb57600080fd5b809150509250929050565b6020808252602e908201527f496e697469616c697a61626c653a20636f6e747261637420697320616c72656160408201526d191e481a5b9a5d1a585b1a5e995960921b606082015260800190565b6020808252602b908201527f496e697469616c697a61626c653a20636f6e7472616374206973206e6f74206960408201526a6e697469616c697a696e6760a81b60608201526080019056fea264697066735822122010062592a1e278464d1ea02499f5008832a9e4368afe97f7bbff1ebe1752dae664736f6c63430008090033",
  "devdoc": {
    "kind": "dev",
    "methods": {
      "burnByAdmin(address,uint256)": {
        "details": "mint BNIs according to the deposited USDT",
        "params": {
          "_account": "account to which BNIs will be minted",
          "_share": "amount of BNI to be burnt"
        }
      },
      "getDepositTokenComposition(uint256[],address[],uint256[],uint256)": {
        "params": {
          "_USDTAmt": "amount of USDT with 6 decimals"
        },
        "returns": {
          "_0": "_USDTAmts amount of USDT should be deposited to each pools"
        }
      },
      "getUSDTPriceInUSD()": {
        "returns": {
          "_0": "the price of USDT in USD."
        }
      },
      "getWithdrawPerc(address,uint256)": {
        "params": {
          "_share": "amount of BNI to be withdrawn"
        },
        "returns": {
          "_sharePerc": "percentage of assets which should be withdrawn. It's 18 decimals"
        }
      },
      "initDeposit(address,uint256)": {
        "params": {
          "_USDTAmt": "USDT with 6 decimals to be deposited",
          "_account": "account to which BNIs will be minted"
        }
      },
      "mintByAdmin(uint256,address)": {
        "details": "mint BNIs according to the deposited USDT",
        "params": {
          "_account": "account to which BNIs will be minted",
          "_pool": "total USD worth in all pools of BNI after deposited"
        }
      },
      "owner()": {
        "details": "Returns the address of the current owner."
      },
      "paused()": {
        "details": "Returns true if the contract is paused, and false otherwise."
      },
      "renounceOwnership()": {
        "details": "Leaves the contract without owner. It will not be possible to call `onlyOwner` functions anymore. Can only be called by the current owner. NOTE: Renouncing ownership will leave the contract without an owner, thereby removing any functionality that is only available to the owner."
      },
      "transferOwnership(address)": {
        "details": "Transfers ownership of the contract to a new account (`newOwner`). Can only be called by the current owner."
      }
    },
    "version": 1
  },
  "userdoc": {
    "kind": "user",
    "methods": {
      "addToken(uint256,address)": {
        "notice": "After this method called, setTokenCompositionTargetPerc should be called to adjust percentages."
      },
      "getAPR(uint256[],uint256[])": {
        "notice": "The length of array is based on network count. And the lengths should be same on the arraies."
      },
      "getAllPoolInUSD(uint256[])": {
        "notice": "The length of array is based on network count. And the lengths should be same on the arraies."
      },
      "getCurrentTokenCompositionPerc(uint256[],address[],uint256[])": {
        "notice": "The length of array is based on token count. And the lengths should be same on the arraies."
      },
      "getDepositTokenComposition(uint256[],address[],uint256[],uint256)": {
        "notice": "The length of array is based on token count. And the lengths should be same on the arraies."
      },
      "getPricePerFullShare(uint256[])": {
        "notice": "Can be used for calculate both user shares & APR"
      },
      "getWithdrawPerc(address,uint256)": {
        "notice": "The length of array is based on token count. And the lengths should be same on the arraies."
      },
      "removeToken(uint256)": {
        "notice": "After this method called, setTokenCompositionTargetPerc should be called to adjust percentages."
      },
      "setTokenCompositionTargetPerc(uint256[])": {
        "notice": "The length of array is based on token count."
      }
    },
    "version": 1
  },
  "storageLayout": {
    "storage": [
      {
        "astId": 130,
        "contract": "contracts/bni/BNIMinterTest.sol:BNIMinterTest",
        "label": "_initialized",
        "offset": 0,
        "slot": "0",
        "type": "t_uint8"
      },
      {
        "astId": 133,
        "contract": "contracts/bni/BNIMinterTest.sol:BNIMinterTest",
        "label": "_initializing",
        "offset": 1,
        "slot": "0",
        "type": "t_bool"
      },
      {
        "astId": 390,
        "contract": "contracts/bni/BNIMinterTest.sol:BNIMinterTest",
        "label": "_status",
        "offset": 0,
        "slot": "1",
        "type": "t_uint256"
      },
      {
        "astId": 434,
        "contract": "contracts/bni/BNIMinterTest.sol:BNIMinterTest",
        "label": "__gap",
        "offset": 0,
        "slot": "2",
        "type": "t_array(t_uint256)49_storage"
      },
      {
        "astId": 2709,
        "contract": "contracts/bni/BNIMinterTest.sol:BNIMinterTest",
        "label": "__gap",
        "offset": 0,
        "slot": "51",
        "type": "t_array(t_uint256)50_storage"
      },
      {
        "astId": 286,
        "contract": "contracts/bni/BNIMinterTest.sol:BNIMinterTest",
        "label": "_paused",
        "offset": 0,
        "slot": "101",
        "type": "t_bool"
      },
      {
        "astId": 375,
        "contract": "contracts/bni/BNIMinterTest.sol:BNIMinterTest",
        "label": "__gap",
        "offset": 0,
        "slot": "102",
        "type": "t_array(t_uint256)49_storage"
      },
      {
        "astId": 10,
        "contract": "contracts/bni/BNIMinterTest.sol:BNIMinterTest",
        "label": "_owner",
        "offset": 0,
        "slot": "151",
        "type": "t_address"
      },
      {
        "astId": 122,
        "contract": "contracts/bni/BNIMinterTest.sol:BNIMinterTest",
        "label": "__gap",
        "offset": 0,
        "slot": "152",
        "type": "t_array(t_uint256)49_storage"
      },
      {
        "astId": 3722,
        "contract": "contracts/bni/BNIMinterTest.sol:BNIMinterTest",
        "label": "chainIDs",
        "offset": 0,
        "slot": "201",
        "type": "t_array(t_uint256)dyn_storage"
      },
      {
        "astId": 3725,
        "contract": "contracts/bni/BNIMinterTest.sol:BNIMinterTest",
        "label": "tokens",
        "offset": 0,
        "slot": "202",
        "type": "t_array(t_address)dyn_storage"
      },
      {
        "astId": 3728,
        "contract": "contracts/bni/BNIMinterTest.sol:BNIMinterTest",
        "label": "targetPercentages",
        "offset": 0,
        "slot": "203",
        "type": "t_array(t_uint256)dyn_storage"
      },
      {
        "astId": 3734,
        "contract": "contracts/bni/BNIMinterTest.sol:BNIMinterTest",
        "label": "tid",
        "offset": 0,
        "slot": "204",
        "type": "t_mapping(t_uint256,t_mapping(t_address,t_uint256))"
      },
      {
        "astId": 3736,
        "contract": "contracts/bni/BNIMinterTest.sol:BNIMinterTest",
        "label": "admin",
        "offset": 0,
        "slot": "205",
        "type": "t_address"
      },
      {
        "astId": 3739,
        "contract": "contracts/bni/BNIMinterTest.sol:BNIMinterTest",
        "label": "BNI",
        "offset": 0,
        "slot": "206",
        "type": "t_contract(IBNI)3617"
      },
      {
        "astId": 3742,
        "contract": "contracts/bni/BNIMinterTest.sol:BNIMinterTest",
        "label": "priceOracle",
        "offset": 0,
        "slot": "207",
        "type": "t_contract(IPriceOracle)8978"
      },
      {
        "astId": 3745,
        "contract": "contracts/bni/BNIMinterTest.sol:BNIMinterTest",
        "label": "urls",
        "offset": 0,
        "slot": "208",
        "type": "t_array(t_string_storage)dyn_storage"
      },
      {
        "astId": 3747,
        "contract": "contracts/bni/BNIMinterTest.sol:BNIMinterTest",
        "label": "gatewaySigner",
        "offset": 0,
        "slot": "209",
        "type": "t_address"
      },
      {
        "astId": 3749,
        "contract": "contracts/bni/BNIMinterTest.sol:BNIMinterTest",
        "label": "trustedForwarder",
        "offset": 0,
        "slot": "210",
        "type": "t_address"
      },
      {
        "astId": 3753,
        "contract": "contracts/bni/BNIMinterTest.sol:BNIMinterTest",
        "label": "operations",
        "offset": 0,
        "slot": "211",
        "type": "t_array(t_struct(Operation)3719_storage)dyn_storage"
      },
      {
        "astId": 3757,
        "contract": "contracts/bni/BNIMinterTest.sol:BNIMinterTest",
        "label": "userLastOperationNonce",
        "offset": 0,
        "slot": "212",
        "type": "t_mapping(t_address,t_uint256)"
      }
    ],
    "types": {
      "t_address": {
        "encoding": "inplace",
        "label": "address",
        "numberOfBytes": "20"
      },
      "t_array(t_address)dyn_storage": {
        "base": "t_address",
        "encoding": "dynamic_array",
        "label": "address[]",
        "numberOfBytes": "32"
      },
      "t_array(t_string_storage)dyn_storage": {
        "base": "t_string_storage",
        "encoding": "dynamic_array",
        "label": "string[]",
        "numberOfBytes": "32"
      },
      "t_array(t_struct(Operation)3719_storage)dyn_storage": {
        "base": "t_struct(Operation)3719_storage",
        "encoding": "dynamic_array",
        "label": "struct BNIMinter.Operation[]",
        "numberOfBytes": "32"
      },
      "t_array(t_uint256)49_storage": {
        "base": "t_uint256",
        "encoding": "inplace",
        "label": "uint256[49]",
        "numberOfBytes": "1568"
      },
      "t_array(t_uint256)50_storage": {
        "base": "t_uint256",
        "encoding": "inplace",
        "label": "uint256[50]",
        "numberOfBytes": "1600"
      },
      "t_array(t_uint256)dyn_storage": {
        "base": "t_uint256",
        "encoding": "dynamic_array",
        "label": "uint256[]",
        "numberOfBytes": "32"
      },
      "t_bool": {
        "encoding": "inplace",
        "label": "bool",
        "numberOfBytes": "1"
      },
      "t_contract(IBNI)3617": {
        "encoding": "inplace",
        "label": "contract IBNI",
        "numberOfBytes": "20"
      },
      "t_contract(IPriceOracle)8978": {
        "encoding": "inplace",
        "label": "contract IPriceOracle",
        "numberOfBytes": "20"
      },
      "t_enum(OperationType)3709": {
        "encoding": "inplace",
        "label": "enum BNIMinter.OperationType",
        "numberOfBytes": "1"
      },
      "t_mapping(t_address,t_uint256)": {
        "encoding": "mapping",
        "key": "t_address",
        "label": "mapping(address => uint256)",
        "numberOfBytes": "32",
        "value": "t_uint256"
      },
      "t_mapping(t_uint256,t_mapping(t_address,t_uint256))": {
        "encoding": "mapping",
        "key": "t_uint256",
        "label": "mapping(uint256 => mapping(address => uint256))",
        "numberOfBytes": "32",
        "value": "t_mapping(t_address,t_uint256)"
      },
      "t_string_storage": {
        "encoding": "bytes",
        "label": "string",
        "numberOfBytes": "32"
      },
      "t_struct(Operation)3719_storage": {
        "encoding": "inplace",
        "label": "struct BNIMinter.Operation",
        "members": [
          {
            "astId": 3711,
            "contract": "contracts/bni/BNIMinterTest.sol:BNIMinterTest",
            "label": "account",
            "offset": 0,
            "slot": "0",
            "type": "t_address"
          },
          {
            "astId": 3714,
            "contract": "contracts/bni/BNIMinterTest.sol:BNIMinterTest",
            "label": "operation",
            "offset": 20,
            "slot": "0",
            "type": "t_enum(OperationType)3709"
          },
          {
            "astId": 3716,
            "contract": "contracts/bni/BNIMinterTest.sol:BNIMinterTest",
            "label": "amount",
            "offset": 0,
            "slot": "1",
            "type": "t_uint256"
          },
          {
            "astId": 3718,
            "contract": "contracts/bni/BNIMinterTest.sol:BNIMinterTest",
            "label": "done",
            "offset": 0,
            "slot": "2",
            "type": "t_bool"
          }
        ],
        "numberOfBytes": "96"
      },
      "t_uint256": {
        "encoding": "inplace",
        "label": "uint256",
        "numberOfBytes": "32"
      },
      "t_uint8": {
        "encoding": "inplace",
        "label": "uint8",
        "numberOfBytes": "1"
      }
    }
  }
}