{
  "address": "0x3E260090D74F3950832c2950925d5536891F70fc",
  "abi": [
    {
      "anonymous": false,
      "inputs": [
        {
          "indexed": false,
          "internalType": "uint8",
          "name": "version",
          "type": "uint8"
        }
      ],
      "name": "Initialized",
      "type": "event"
    },
    {
      "anonymous": false,
      "inputs": [
        {
          "indexed": true,
          "internalType": "address",
          "name": "previousOwner",
          "type": "address"
        },
        {
          "indexed": true,
          "internalType": "address",
          "name": "newOwner",
          "type": "address"
        }
      ],
      "name": "OwnershipTransferred",
      "type": "event"
    },
    {
      "anonymous": false,
      "inputs": [
        {
          "indexed": false,
          "internalType": "address",
          "name": "account",
          "type": "address"
        }
      ],
      "name": "Paused",
      "type": "event"
    },
    {
      "anonymous": false,
      "inputs": [
        {
          "indexed": true,
          "internalType": "bytes32",
          "name": "role",
          "type": "bytes32"
        },
        {
          "indexed": true,
          "internalType": "bytes32",
          "name": "previousAdminRole",
          "type": "bytes32"
        },
        {
          "indexed": true,
          "internalType": "bytes32",
          "name": "newAdminRole",
          "type": "bytes32"
        }
      ],
      "name": "RoleAdminChanged",
      "type": "event"
    },
    {
      "anonymous": false,
      "inputs": [
        {
          "indexed": true,
          "internalType": "bytes32",
          "name": "role",
          "type": "bytes32"
        },
        {
          "indexed": true,
          "internalType": "address",
          "name": "account",
          "type": "address"
        },
        {
          "indexed": true,
          "internalType": "address",
          "name": "sender",
          "type": "address"
        }
      ],
      "name": "RoleGranted",
      "type": "event"
    },
    {
      "anonymous": false,
      "inputs": [
        {
          "indexed": true,
          "internalType": "bytes32",
          "name": "role",
          "type": "bytes32"
        },
        {
          "indexed": true,
          "internalType": "address",
          "name": "account",
          "type": "address"
        },
        {
          "indexed": true,
          "internalType": "address",
          "name": "sender",
          "type": "address"
        }
      ],
      "name": "RoleRevoked",
      "type": "event"
    },
    {
      "anonymous": false,
      "inputs": [
        {
          "indexed": true,
          "internalType": "address",
          "name": "from",
          "type": "address"
        },
        {
          "indexed": false,
          "internalType": "address",
          "name": "token",
          "type": "address"
        },
        {
          "indexed": true,
          "internalType": "uint256",
          "name": "amount",
          "type": "uint256"
        },
        {
          "indexed": false,
          "internalType": "uint256",
          "name": "fromChainId",
          "type": "uint256"
        },
        {
          "indexed": true,
          "internalType": "uint256",
          "name": "toChainId",
          "type": "uint256"
        },
        {
          "indexed": false,
          "internalType": "address",
          "name": "to",
          "type": "address"
        },
        {
          "indexed": false,
          "internalType": "enum BasicUserAgentBase.AdapterType",
          "name": "adapterType",
          "type": "uint8"
        },
        {
          "indexed": false,
          "internalType": "uint256",
          "name": "nonce",
          "type": "uint256"
        }
      ],
      "name": "Transfer",
      "type": "event"
    },
    {
      "anonymous": false,
      "inputs": [
        {
          "indexed": false,
          "internalType": "address",
          "name": "account",
          "type": "address"
        }
      ],
      "name": "Unpaused",
      "type": "event"
    },
    {
      "inputs": [],
      "name": "ADAPTER_ROLE",
      "outputs": [
        {
          "internalType": "bytes32",
          "name": "",
          "type": "bytes32"
        }
      ],
      "stateMutability": "view",
      "type": "function"
    },
    {
      "inputs": [],
      "name": "DEFAULT_ADMIN_ROLE",
      "outputs": [
        {
          "internalType": "bytes32",
          "name": "",
          "type": "bytes32"
        }
      ],
      "stateMutability": "view",
      "type": "function"
    },
    {
      "inputs": [],
      "name": "USDC",
      "outputs": [
        {
          "internalType": "contract IERC20Upgradeable",
          "name": "",
          "type": "address"
        }
      ],
      "stateMutability": "view",
      "type": "function"
    },
    {
      "inputs": [],
      "name": "USDT",
      "outputs": [
        {
          "internalType": "contract IERC20Upgradeable",
          "name": "",
          "type": "address"
        }
      ],
      "stateMutability": "view",
      "type": "function"
    },
    {
      "inputs": [],
      "name": "admin",
      "outputs": [
        {
          "internalType": "address",
          "name": "",
          "type": "address"
        }
      ],
      "stateMutability": "view",
      "type": "function"
    },
    {
      "inputs": [],
      "name": "bniMinter",
      "outputs": [
        {
          "internalType": "contract IBNIMinter",
          "name": "",
          "type": "address"
        }
      ],
      "stateMutability": "view",
      "type": "function"
    },
    {
      "inputs": [],
      "name": "bniVault",
      "outputs": [
        {
          "internalType": "contract IBNIVault",
          "name": "",
          "type": "address"
        }
      ],
      "stateMutability": "view",
      "type": "function"
    },
    {
      "inputs": [
        {
          "internalType": "uint256",
          "name": "_pool",
          "type": "uint256"
        },
        {
          "internalType": "uint256",
          "name": "_share",
          "type": "uint256"
        },
        {
          "internalType": "bytes",
          "name": "_signature",
          "type": "bytes"
        }
      ],
      "name": "burn",
      "outputs": [
        {
          "internalType": "uint256",
          "name": "_feeAmt",
          "type": "uint256"
        }
      ],
      "stateMutability": "payable",
      "type": "function"
    },
    {
      "inputs": [
        {
          "internalType": "address",
          "name": "_account",
          "type": "address"
        },
        {
          "internalType": "uint256",
          "name": "_pool",
          "type": "uint256"
        },
        {
          "internalType": "uint256",
          "name": "_share",
          "type": "uint256"
        }
      ],
      "name": "burnByAdmin",
      "outputs": [],
      "stateMutability": "nonpayable",
      "type": "function"
    },
    {
      "inputs": [
        {
          "internalType": "uint256",
          "name": "",
          "type": "uint256"
        }
      ],
      "name": "callAdapterTypes",
      "outputs": [
        {
          "internalType": "enum BasicUserAgentBase.AdapterType",
          "name": "",
          "type": "uint8"
        }
      ],
      "stateMutability": "view",
      "type": "function"
    },
    {
      "inputs": [],
      "name": "cbridgeAdapter",
      "outputs": [
        {
          "internalType": "contract IXChainAdapter",
          "name": "",
          "type": "address"
        }
      ],
      "stateMutability": "view",
      "type": "function"
    },
    {
      "inputs": [
        {
          "internalType": "uint256",
          "name": "",
          "type": "uint256"
        }
      ],
      "name": "cbridgeSenders",
      "outputs": [
        {
          "internalType": "address",
          "name": "",
          "type": "address"
        }
      ],
      "stateMutability": "view",
      "type": "function"
    },
    {
      "inputs": [],
      "name": "chainIdOnLP",
      "outputs": [
        {
          "internalType": "uint256",
          "name": "",
          "type": "uint256"
        }
      ],
      "stateMutability": "view",
      "type": "function"
    },
    {
      "inputs": [
        {
          "internalType": "uint256[]",
          "name": "_toChainIds",
          "type": "uint256[]"
        },
        {
          "internalType": "address[]",
          "name": "_tokens",
          "type": "address[]"
        },
        {
          "internalType": "uint256[]",
          "name": "_USDTAmts",
          "type": "uint256[]"
        },
        {
          "internalType": "uint256",
          "name": "_minterNonce",
          "type": "uint256"
        },
        {
          "internalType": "bytes",
          "name": "_signature",
          "type": "bytes"
        }
      ],
      "name": "deposit",
      "outputs": [
        {
          "internalType": "uint256",
          "name": "_feeAmt",
          "type": "uint256"
        }
      ],
      "stateMutability": "payable",
      "type": "function"
    },
    {
      "inputs": [
        {
          "internalType": "address",
          "name": "_account",
          "type": "address"
        },
        {
          "internalType": "address[]",
          "name": "_tokens",
          "type": "address[]"
        },
        {
          "internalType": "uint256[]",
          "name": "_USDTAmts",
          "type": "uint256[]"
        },
        {
          "internalType": "uint256",
          "name": "_minterNonce",
          "type": "uint256"
        }
      ],
      "name": "depositByAgent",
      "outputs": [],
      "stateMutability": "nonpayable",
      "type": "function"
    },
    {
      "inputs": [
        {
          "internalType": "uint256",
          "name": "_gatheredAmount",
          "type": "uint256"
        },
        {
          "internalType": "bytes",
          "name": "_signature",
          "type": "bytes"
        }
      ],
      "name": "exitWithdrawal",
      "outputs": [
        {
          "internalType": "uint256",
          "name": "_feeAmt",
          "type": "uint256"
        }
      ],
      "stateMutability": "payable",
      "type": "function"
    },
    {
      "inputs": [
        {
          "internalType": "address",
          "name": "_account",
          "type": "address"
        }
      ],
      "name": "exitWithdrawalByAdmin",
      "outputs": [],
      "stateMutability": "nonpayable",
      "type": "function"
    },
    {
      "inputs": [
        {
          "internalType": "uint256[]",
          "name": "_fromChainIds",
          "type": "uint256[]"
        },
        {
          "internalType": "enum BasicUserAgentBase.AdapterType[]",
          "name": "_adapterTypes",
          "type": "uint8[]"
        },
        {
          "internalType": "bytes",
          "name": "_signature",
          "type": "bytes"
        }
      ],
      "name": "gather",
      "outputs": [
        {
          "internalType": "uint256",
          "name": "_feeAmt",
          "type": "uint256"
        }
      ],
      "stateMutability": "payable",
      "type": "function"
    },
    {
      "inputs": [
        {
          "internalType": "address",
          "name": "_account",
          "type": "address"
        },
        {
          "internalType": "uint256",
          "name": "_toChainId",
          "type": "uint256"
        },
        {
          "internalType": "enum BasicUserAgentBase.AdapterType",
          "name": "_adapterType",
          "type": "uint8"
        }
      ],
      "name": "gatherByAdmin",
      "outputs": [],
      "stateMutability": "nonpayable",
      "type": "function"
    },
    {
      "inputs": [
        {
          "internalType": "bytes",
          "name": "message",
          "type": "bytes"
        }
      ],
      "name": "getMessageHashForSafe",
      "outputs": [
        {
          "internalType": "bytes32",
          "name": "",
          "type": "bytes32"
        }
      ],
      "stateMutability": "view",
      "type": "function"
    },
    {
      "inputs": [
        {
          "internalType": "bytes32",
          "name": "role",
          "type": "bytes32"
        }
      ],
      "name": "getRoleAdmin",
      "outputs": [
        {
          "internalType": "bytes32",
          "name": "",
          "type": "bytes32"
        }
      ],
      "stateMutability": "view",
      "type": "function"
    },
    {
      "inputs": [
        {
          "internalType": "bytes32",
          "name": "role",
          "type": "bytes32"
        },
        {
          "internalType": "uint256",
          "name": "index",
          "type": "uint256"
        }
      ],
      "name": "getRoleMember",
      "outputs": [
        {
          "internalType": "address",
          "name": "",
          "type": "address"
        }
      ],
      "stateMutability": "view",
      "type": "function"
    },
    {
      "inputs": [
        {
          "internalType": "bytes32",
          "name": "role",
          "type": "bytes32"
        }
      ],
      "name": "getRoleMemberCount",
      "outputs": [
        {
          "internalType": "uint256",
          "name": "",
          "type": "uint256"
        }
      ],
      "stateMutability": "view",
      "type": "function"
    },
    {
      "inputs": [
        {
          "internalType": "bytes32",
          "name": "role",
          "type": "bytes32"
        },
        {
          "internalType": "address",
          "name": "account",
          "type": "address"
        }
      ],
      "name": "grantRole",
      "outputs": [],
      "stateMutability": "nonpayable",
      "type": "function"
    },
    {
      "inputs": [
        {
          "internalType": "bytes32",
          "name": "role",
          "type": "bytes32"
        },
        {
          "internalType": "address",
          "name": "account",
          "type": "address"
        }
      ],
      "name": "hasRole",
      "outputs": [
        {
          "internalType": "bool",
          "name": "",
          "type": "bool"
        }
      ],
      "stateMutability": "view",
      "type": "function"
    },
    {
      "inputs": [
        {
          "internalType": "uint256",
          "name": "_pool",
          "type": "uint256"
        },
        {
          "internalType": "uint256",
          "name": "_USDT6Amt",
          "type": "uint256"
        },
        {
          "internalType": "bytes",
          "name": "_signature",
          "type": "bytes"
        }
      ],
      "name": "initDeposit",
      "outputs": [
        {
          "internalType": "uint256",
          "name": "_feeAmt",
          "type": "uint256"
        }
      ],
      "stateMutability": "payable",
      "type": "function"
    },
    {
      "inputs": [
        {
          "internalType": "address",
          "name": "_account",
          "type": "address"
        },
        {
          "internalType": "uint256",
          "name": "_pool",
          "type": "uint256"
        },
        {
          "internalType": "uint256",
          "name": "_USDT6Amt",
          "type": "uint256"
        }
      ],
      "name": "initDepositByAdmin",
      "outputs": [],
      "stateMutability": "nonpayable",
      "type": "function"
    },
    {
      "inputs": [
        {
          "internalType": "address",
          "name": "_admin",
          "type": "address"
        },
        {
          "internalType": "contract ISwap",
          "name": "_swap",
          "type": "address"
        },
        {
          "internalType": "contract IXChainAdapter",
          "name": "_multichainAdapter",
          "type": "address"
        },
        {
          "internalType": "contract IXChainAdapter",
          "name": "_cbridgeAdapter",
          "type": "address"
        }
      ],
      "name": "initialize",
      "outputs": [],
      "stateMutability": "nonpayable",
      "type": "function"
    },
    {
      "inputs": [
        {
          "internalType": "address",
          "name": "_subImpl",
          "type": "address"
        },
        {
          "internalType": "address",
          "name": "_admin",
          "type": "address"
        },
        {
          "internalType": "contract ISwap",
          "name": "_swap",
          "type": "address"
        },
        {
          "internalType": "contract IXChainAdapter",
          "name": "_multichainAdapter",
          "type": "address"
        },
        {
          "internalType": "contract IXChainAdapter",
          "name": "_cbridgeAdapter",
          "type": "address"
        },
        {
          "internalType": "contract IBNIMinter",
          "name": "_bniMinter",
          "type": "address"
        },
        {
          "internalType": "contract IBNIVault",
          "name": "_bniVault",
          "type": "address"
        }
      ],
      "name": "initialize1",
      "outputs": [],
      "stateMutability": "nonpayable",
      "type": "function"
    },
    {
      "inputs": [],
      "name": "isLPChain",
      "outputs": [
        {
          "internalType": "bool",
          "name": "",
          "type": "bool"
        }
      ],
      "stateMutability": "view",
      "type": "function"
    },
    {
      "inputs": [
        {
          "internalType": "address",
          "name": "forwarder",
          "type": "address"
        }
      ],
      "name": "isTrustedForwarder",
      "outputs": [
        {
          "internalType": "bool",
          "name": "",
          "type": "bool"
        }
      ],
      "stateMutability": "view",
      "type": "function"
    },
    {
      "inputs": [
        {
          "internalType": "address",
          "name": "_account",
          "type": "address"
        },
        {
          "internalType": "bytes",
          "name": "_data",
          "type": "bytes"
        },
        {
          "internalType": "bytes",
          "name": "_signature",
          "type": "bytes"
        }
      ],
      "name": "isValidSignature",
      "outputs": [
        {
          "internalType": "bool",
          "name": "",
          "type": "bool"
        }
      ],
      "stateMutability": "view",
      "type": "function"
    },
    {
      "inputs": [
        {
          "internalType": "uint256",
          "name": "_USDT6Amt",
          "type": "uint256"
        },
        {
          "internalType": "bytes",
          "name": "_signature",
          "type": "bytes"
        }
      ],
      "name": "mint",
      "outputs": [
        {
          "internalType": "uint256",
          "name": "_feeAmt",
          "type": "uint256"
        }
      ],
      "stateMutability": "payable",
      "type": "function"
    },
    {
      "inputs": [
        {
          "internalType": "address",
          "name": "_account",
          "type": "address"
        },
        {
          "internalType": "uint256",
          "name": "_USDT6Amt",
          "type": "uint256"
        }
      ],
      "name": "mintByAdmin",
      "outputs": [],
      "stateMutability": "nonpayable",
      "type": "function"
    },
    {
      "inputs": [],
      "name": "multichainAdapter",
      "outputs": [
        {
          "internalType": "contract IXChainAdapter",
          "name": "",
          "type": "address"
        }
      ],
      "stateMutability": "view",
      "type": "function"
    },
    {
      "inputs": [
        {
          "internalType": "address",
          "name": "",
          "type": "address"
        }
      ],
      "name": "nonces",
      "outputs": [
        {
          "internalType": "uint256",
          "name": "",
          "type": "uint256"
        }
      ],
      "stateMutability": "view",
      "type": "function"
    },
    {
      "inputs": [
        {
          "internalType": "uint256",
          "name": "_cbridgeNonce",
          "type": "uint256"
        },
        {
          "internalType": "address",
          "name": "_token",
          "type": "address"
        },
        {
          "internalType": "uint256",
          "name": "amount",
          "type": "uint256"
        },
        {
          "internalType": "uint256",
          "name": "",
          "type": "uint256"
        },
        {
          "internalType": "address",
          "name": "",
          "type": "address"
        }
      ],
      "name": "onRefunded",
      "outputs": [],
      "stateMutability": "nonpayable",
      "type": "function"
    },
    {
      "inputs": [],
      "name": "owner",
      "outputs": [
        {
          "internalType": "address",
          "name": "",
          "type": "address"
        }
      ],
      "stateMutability": "view",
      "type": "function"
    },
    {
      "inputs": [],
      "name": "pause",
      "outputs": [],
      "stateMutability": "nonpayable",
      "type": "function"
    },
    {
      "inputs": [],
      "name": "paused",
      "outputs": [
        {
          "internalType": "bool",
          "name": "",
          "type": "bool"
        }
      ],
      "stateMutability": "view",
      "type": "function"
    },
    {
      "inputs": [],
      "name": "renounceOwnership",
      "outputs": [],
      "stateMutability": "nonpayable",
      "type": "function"
    },
    {
      "inputs": [
        {
          "internalType": "bytes32",
          "name": "role",
          "type": "bytes32"
        },
        {
          "internalType": "address",
          "name": "account",
          "type": "address"
        }
      ],
      "name": "renounceRole",
      "outputs": [],
      "stateMutability": "nonpayable",
      "type": "function"
    },
    {
      "inputs": [
        {
          "internalType": "bytes32",
          "name": "role",
          "type": "bytes32"
        },
        {
          "internalType": "address",
          "name": "account",
          "type": "address"
        }
      ],
      "name": "revokeRole",
      "outputs": [],
      "stateMutability": "nonpayable",
      "type": "function"
    },
    {
      "inputs": [
        {
          "internalType": "address",
          "name": "_admin",
          "type": "address"
        }
      ],
      "name": "setAdmin",
      "outputs": [],
      "stateMutability": "nonpayable",
      "type": "function"
    },
    {
      "inputs": [
        {
          "internalType": "contract IBNIMinter",
          "name": "_bniMinter",
          "type": "address"
        }
      ],
      "name": "setBNIMinter",
      "outputs": [],
      "stateMutability": "nonpayable",
      "type": "function"
    },
    {
      "inputs": [
        {
          "internalType": "contract IBNIVault",
          "name": "_bniVault",
          "type": "address"
        }
      ],
      "name": "setBNIVault",
      "outputs": [],
      "stateMutability": "nonpayable",
      "type": "function"
    },
    {
      "inputs": [
        {
          "internalType": "address",
          "name": "_biconomy",
          "type": "address"
        }
      ],
      "name": "setBiconomy",
      "outputs": [],
      "stateMutability": "nonpayable",
      "type": "function"
    },
    {
      "inputs": [
        {
          "internalType": "contract IXChainAdapter",
          "name": "_cbridgeAdapter",
          "type": "address"
        }
      ],
      "name": "setCBridgeAdapter",
      "outputs": [],
      "stateMutability": "nonpayable",
      "type": "function"
    },
    {
      "inputs": [
        {
          "internalType": "uint256[]",
          "name": "_chainIds",
          "type": "uint256[]"
        },
        {
          "internalType": "enum BasicUserAgentBase.AdapterType[]",
          "name": "_adapterTypes",
          "type": "uint8[]"
        }
      ],
      "name": "setCallAdapterTypes",
      "outputs": [],
      "stateMutability": "nonpayable",
      "type": "function"
    },
    {
      "inputs": [
        {
          "internalType": "contract IXChainAdapter",
          "name": "_multichainAdapter",
          "type": "address"
        }
      ],
      "name": "setMultichainAdapter",
      "outputs": [],
      "stateMutability": "nonpayable",
      "type": "function"
    },
    {
      "inputs": [
        {
          "internalType": "address",
          "name": "_subImpl",
          "type": "address"
        }
      ],
      "name": "setSubImpl",
      "outputs": [],
      "stateMutability": "nonpayable",
      "type": "function"
    },
    {
      "inputs": [
        {
          "internalType": "uint256[]",
          "name": "_chainIds",
          "type": "uint256[]"
        },
        {
          "internalType": "address[]",
          "name": "_userAgents",
          "type": "address[]"
        }
      ],
      "name": "setUserAgents",
      "outputs": [],
      "stateMutability": "nonpayable",
      "type": "function"
    },
    {
      "inputs": [],
      "name": "subImpl",
      "outputs": [
        {
          "internalType": "address",
          "name": "",
          "type": "address"
        }
      ],
      "stateMutability": "view",
      "type": "function"
    },
    {
      "inputs": [
        {
          "internalType": "bytes4",
          "name": "interfaceId",
          "type": "bytes4"
        }
      ],
      "name": "supportsInterface",
      "outputs": [
        {
          "internalType": "bool",
          "name": "",
          "type": "bool"
        }
      ],
      "stateMutability": "view",
      "type": "function"
    },
    {
      "inputs": [
        {
          "internalType": "uint256",
          "name": "_gatheredAmount",
          "type": "uint256"
        },
        {
          "internalType": "bytes",
          "name": "_signature",
          "type": "bytes"
        }
      ],
      "name": "takeOut",
      "outputs": [],
      "stateMutability": "nonpayable",
      "type": "function"
    },
    {
      "inputs": [
        {
          "internalType": "uint256[]",
          "name": "_amounts",
          "type": "uint256[]"
        },
        {
          "internalType": "uint256[]",
          "name": "_toChainIds",
          "type": "uint256[]"
        },
        {
          "internalType": "enum BasicUserAgentBase.AdapterType[]",
          "name": "_adapterTypes",
          "type": "uint8[]"
        },
        {
          "internalType": "bytes",
          "name": "_signature",
          "type": "bytes"
        }
      ],
      "name": "transfer",
      "outputs": [
        {
          "internalType": "uint256",
          "name": "_feeAmt",
          "type": "uint256"
        }
      ],
      "stateMutability": "payable",
      "type": "function"
    },
    {
      "inputs": [
        {
          "internalType": "address",
          "name": "newOwner",
          "type": "address"
        }
      ],
      "name": "transferOwnership",
      "outputs": [],
      "stateMutability": "nonpayable",
      "type": "function"
    },
    {
      "inputs": [],
      "name": "trustedForwarder",
      "outputs": [
        {
          "internalType": "address",
          "name": "",
          "type": "address"
        }
      ],
      "stateMutability": "view",
      "type": "function"
    },
    {
      "inputs": [],
      "name": "unpause",
      "outputs": [],
      "stateMutability": "nonpayable",
      "type": "function"
    },
    {
      "inputs": [
        {
          "internalType": "address",
          "name": "",
          "type": "address"
        }
      ],
      "name": "usdcBalances",
      "outputs": [
        {
          "internalType": "uint256",
          "name": "",
          "type": "uint256"
        }
      ],
      "stateMutability": "view",
      "type": "function"
    },
    {
      "inputs": [
        {
          "internalType": "address",
          "name": "",
          "type": "address"
        }
      ],
      "name": "usdtBalances",
      "outputs": [
        {
          "internalType": "uint256",
          "name": "",
          "type": "uint256"
        }
      ],
      "stateMutability": "view",
      "type": "function"
    },
    {
      "inputs": [
        {
          "internalType": "uint256",
          "name": "",
          "type": "uint256"
        }
      ],
      "name": "userAgents",
      "outputs": [
        {
          "internalType": "address",
          "name": "",
          "type": "address"
        }
      ],
      "stateMutability": "view",
      "type": "function"
    },
    {
      "inputs": [],
      "name": "versionRecipient",
      "outputs": [
        {
          "internalType": "string",
          "name": "",
          "type": "string"
        }
      ],
      "stateMutability": "pure",
      "type": "function"
    },
    {
      "inputs": [
        {
          "internalType": "uint256[]",
          "name": "_chainIds",
          "type": "uint256[]"
        },
        {
          "internalType": "uint256",
          "name": "_sharePerc",
          "type": "uint256"
        },
        {
          "internalType": "uint256",
          "name": "_minterNonce",
          "type": "uint256"
        },
        {
          "internalType": "bytes",
          "name": "_signature",
          "type": "bytes"
        }
      ],
      "name": "withdraw",
      "outputs": [
        {
          "internalType": "uint256",
          "name": "_feeAmt",
          "type": "uint256"
        }
      ],
      "stateMutability": "payable",
      "type": "function"
    },
    {
      "inputs": [
        {
          "internalType": "address",
          "name": "_account",
          "type": "address"
        },
        {
          "internalType": "uint256",
          "name": "_sharePerc",
          "type": "uint256"
        },
        {
          "internalType": "uint256",
          "name": "_minterNonce",
          "type": "uint256"
        }
      ],
      "name": "withdrawPercByAgent",
      "outputs": [],
      "stateMutability": "nonpayable",
      "type": "function"
    },
    {
      "stateMutability": "payable",
      "type": "receive"
    }
  ],
  "transactionHash": "0x43bfca5e7282f11766d4419239a629f00a8ec764d98e0cad67154d732c064668",
  "args": [],
  "numDeployments": 1,
  "solcInputHash": "d804abab90110ec1311aab4f18ffccdd",
  "bytecode": "0x608060405234801561001057600080fd5b50614cdd806100206000396000f3fe6080604052600436106103d25760003560e01c80637ecebe00116101fd578063b8a6752d11610118578063e629f7b3116100ab578063f77de4861161007a578063f77de48614610b66578063f7bb364c14610b86578063f851a44014610ba1578063f8c8765e14610bc2578063fc637c3c14610be257600080fd5b8063e629f7b314610af4578063e9e81a6a14610af4578063f2ea161814610b0f578063f2fde38b14610b4657600080fd5b8063d1dbbc60116100e7578063d1dbbc6014610a9b578063d547741f14610aae578063d843a40014610ace578063db7fd408146108d057600080fd5b8063b8a6752d14610a27578063c54e44eb14610a3a578063c7205bce14610a5b578063ca15c87314610a7b57600080fd5b80638da5cb5b116101905780639e17747a1161015f5780639e17747a146109a4578063a217fddf146109c4578063a99c68c5146109d9578063af3da2f414610a0757600080fd5b80638da5cb5b146109375780639010d07c14610956578063918f1a5c1461097657806391d148541461098457600080fd5b806384762739116101cc57806384762739146108d057806386355d96146108e3578063897fd469146108f657806389a302711461091657600080fd5b80637ecebe001461085a5780638033a8051461088857806380a5a371146108a85780638456cb59146108bb57600080fd5b806343a463c7116102ed5780635f2b3737116102805780636ebf33ce1161024f5780636ebf33ce146107ce578063704b6c0214610805578063715018a6146108255780637da0a8771461083a57600080fd5b80635f2b37371461075f57806363032feb1461077f5780636687977f146107a05780636e5677ce146107b357600080fd5b806357cdd7f9116102bc57806357cdd7f9146106d8578063582489cb146106f9578063582712b1146107275780635c975abb1461074757600080fd5b806343a463c714610639578063472c38ff14610659578063486ff0cd14610679578063572b6c05146106a957600080fd5b8063278758a81161036557806336568abe1161033457806336568abe146105a657806339dacedb146105c65780633f4ba83a146106045780634107c4f61461061957600080fd5b8063278758a81461052657806328054fb7146105465780632f2ff15d1461056657806331e8df891461058657600080fd5b80630d8b76a8116103a15780630d8b76a81461049d57806319463093146104bf5780631a5787d8146104df578063248a9ca3146104f657600080fd5b8063013dee70146103de57806301ffc9a71461041c57806302a882e61461044c5780630c3a18211461047c57600080fd5b366103d957005b600080fd5b3480156103ea57600080fd5b50610195546103ff906001600160a01b031681565b6040516001600160a01b0390911681526020015b60405180910390f35b34801561042857600080fd5b5061043c610437366004613e40565b610c02565b6040519015158152602001610413565b34801561045857600080fd5b5061046e600080516020614c8883398151915281565b604051908152602001610413565b34801561048857600080fd5b50610166546103ff906001600160a01b031681565b3480156104a957600080fd5b506104bd6104b8366004613e7f565b610c2d565b005b3480156104cb57600080fd5b5061046e6104da366004613f51565b610ca2565b3480156104eb57600080fd5b5061046e6101925481565b34801561050257600080fd5b5061046e610511366004613f85565b60009081526097602052604090206001015490565b34801561053257600080fd5b506104bd610541366004613e7f565b610cee565b34801561055257600080fd5b506104bd610561366004613fad565b610f23565b34801561057257600080fd5b506104bd610581366004613feb565b610f31565b34801561059257600080fd5b506104bd6105a1366004613e7f565b610f5b565b3480156105b257600080fd5b506104bd6105c1366004613feb565b610fdf565b3480156105d257600080fd5b506105f76105e1366004613f85565b61016a6020526000908152604090205460ff1681565b6040516104139190614053565b34801561061057600080fd5b506104bd611069565b34801561062557600080fd5b506104bd610634366004614061565b6113b6565b34801561064557600080fd5b506104bd6106543660046140f7565b611548565b34801561066557600080fd5b506104bd61067436600461412c565b6115d0565b34801561068557600080fd5b5060408051808201825260018152603160f81b6020820152905161041391906141da565b3480156106b557600080fd5b5061043c6106c4366004613e7f565b6000546001600160a01b0391821691161490565b3480156106e457600080fd5b50610167546103ff906001600160a01b031681565b34801561070557600080fd5b5061046e610714366004613e7f565b6101656020526000908152604090205481565b34801561073357600080fd5b506104bd6107423660046142d4565b6116c7565b34801561075357600080fd5b5060fb5460ff1661043c565b34801561076b57600080fd5b506104bd61077a3660046143b3565b6116d6565b34801561078b57600080fd5b50610194546103ff906001600160a01b031681565b61046e6107ae36600461445e565b6117ee565b3480156107bf57600080fd5b506104bd6105613660046144db565b3480156107da57600080fd5b506103ff6107e9366004613f85565b610169602052600090815260409020546001600160a01b031681565b34801561081157600080fd5b506104bd610820366004613e7f565b611802565b34801561083157600080fd5b506104bd61186f565b34801561084657600080fd5b506000546103ff906001600160a01b031681565b34801561086657600080fd5b5061046e610875366004613e7f565b6101606020526000908152604090205481565b34801561089457600080fd5b506104bd6108a3366004613e7f565b6118c3565b61046e6108b6366004614526565b611978565b3480156108c757600080fd5b506104bd61198b565b61046e6108de3660046144db565b611a80565b61046e6108f1366004614578565b611a92565b34801561090257600080fd5b506104bd610911366004614634565b611aa7565b34801561092257600080fd5b50610162546103ff906001600160a01b031681565b34801561094357600080fd5b5061012d546001600160a01b03166103ff565b34801561096257600080fd5b506103ff61097136600461468d565b611bbc565b61046e6108b63660046146af565b34801561099057600080fd5b5061043c61099f366004613feb565b611bdb565b3480156109b057600080fd5b506104bd6109bf366004613e7f565b611c06565b3480156109d057600080fd5b5061046e600081565b3480156109e557600080fd5b5061046e6109f4366004613e7f565b6101646020526000908152604090205481565b348015610a1357600080fd5b506104bd610a2236600461472d565b611c8a565b61046e610a35366004614526565b611c92565b348015610a4657600080fd5b50610163546103ff906001600160a01b031681565b348015610a6757600080fd5b5061043c610a76366004614759565b611e6e565b348015610a8757600080fd5b5061046e610a96366004613f85565b611fed565b61046e610aa93660046147a2565b612004565b348015610aba57600080fd5b506104bd610ac9366004613feb565b6120bc565b348015610ada57600080fd5b50610193546103ff9061010090046001600160a01b031681565b348015610b0057600080fd5b506104bd6105613660046140f7565b348015610b1b57600080fd5b506103ff610b2a366004613f85565b610168602052600090815260409020546001600160a01b031681565b348015610b5257600080fd5b506104bd610b61366004613e7f565b6120e1565b348015610b7257600080fd5b506104bd610b81366004613e7f565b612137565b348015610b9257600080fd5b506101935461043c9060ff1681565b348015610bad57600080fd5b5061015f546103ff906001600160a01b031681565b348015610bce57600080fd5b506104bd610bdd366004614837565b61213f565b348015610bee57600080fd5b506104bd610bfd366004613e7f565b612262565b60006001600160e01b03198216635a05180f60e01b1480610c275750610c27826122d5565b92915050565b610c3561230a565b6001600160a01b0316610c5161012d546001600160a01b031690565b6001600160a01b031614610c805760405162461bcd60e51b8152600401610c7790614893565b60405180910390fd5b600080546001600160a01b0319166001600160a01b0392909216919091179055565b805160209182012060015460408051601960f81b81860152600160f81b602182015260228101929092526042808301939093528051808303909301835260629091019052805191012090565b610cf661230a565b6001600160a01b0316610d1261012d546001600160a01b031690565b6001600160a01b031614610d385760405162461bcd60e51b8152600401610c7790614893565b6001600160a01b038116610d7e5760405162461bcd60e51b815260206004820152600d60248201526c125b9d985b1a59081d985d5b1d609a1b6044820152606401610c77565b610194546001600160a01b03168015610dc35761016354610daa906001600160a01b0316826000612319565b61016254610dc3906001600160a01b0316826000612319565b61019480546001600160a01b0319166001600160a01b0384811691821790925561016354604051636eb1769f60e11b815230600482015260248101929092529091169063dd62ed3e9060440160206040518083038186803b158015610e2757600080fd5b505afa158015610e3b573d6000803e3d6000fd5b505050506040513d601f19601f82011682018060405250810190610e5f91906148c8565b610e7d5761016354610e7d906001600160a01b031683600019612319565b61016254604051636eb1769f60e11b81523060048201526001600160a01b0384811660248301529091169063dd62ed3e9060440160206040518083038186803b158015610ec957600080fd5b505afa158015610edd573d6000803e3d6000fd5b505050506040513d601f19601f82011682018060405250810190610f0191906148c8565b610f1f5761016254610f1f906001600160a01b031683600019612319565b5050565b610f2b612470565b50505050565b600082815260976020526040902060010154610f4c816124f1565b610f568383612502565b505050565b610f6361230a565b6001600160a01b0316610f7f61012d546001600160a01b031690565b6001600160a01b031614610fa55760405162461bcd60e51b8152600401610c7790614893565b61016754610fbc906001600160a01b031682612524565b61016780546001600160a01b0319166001600160a01b0392909216919091179055565b610fe761230a565b6001600160a01b0316816001600160a01b03161461105f5760405162461bcd60e51b815260206004820152602f60248201527f416363657373436f6e74726f6c3a2063616e206f6e6c792072656e6f756e636560448201526e103937b632b9903337b91039b2b63360891b6064820152608401610c77565b610f1f82826125f6565b61107161230a565b6001600160a01b031661108d61012d546001600160a01b031690565b6001600160a01b0316146110b35760405162461bcd60e51b8152600401610c7790614893565b60fb5460ff166110fc5760405162461bcd60e51b815260206004820152601460248201527314185d5cd8589b194e881b9bdd081c185d5cd95960621b6044820152606401610c77565b611104612618565b6101635461016654604051636eb1769f60e11b81523060048201526001600160a01b03918216602482015291169063dd62ed3e9060440160206040518083038186803b15801561115357600080fd5b505afa158015611167573d6000803e3d6000fd5b505050506040513d601f19601f8201168201806040525081019061118b91906148c8565b6111b05761016654610163546111b0916001600160a01b039182169116600019612319565b6101625461016654604051636eb1769f60e11b81523060048201526001600160a01b03918216602482015291169063dd62ed3e9060440160206040518083038186803b1580156111ff57600080fd5b505afa158015611213573d6000803e3d6000fd5b505050506040513d601f19601f8201168201806040525081019061123791906148c8565b61125c57610166546101625461125c916001600160a01b039182169116600019612319565b6101635461016754604051636eb1769f60e11b81523060048201526001600160a01b03918216602482015291169063dd62ed3e9060440160206040518083038186803b1580156112ab57600080fd5b505afa1580156112bf573d6000803e3d6000fd5b505050506040513d601f19601f820116820180604052508101906112e391906148c8565b611308576101675461016354611308916001600160a01b039182169116600019612319565b6101625461016754604051636eb1769f60e11b81523060048201526001600160a01b03918216602482015291169063dd62ed3e9060440160206040518083038186803b15801561135757600080fd5b505afa15801561136b573d6000803e3d6000fd5b505050506040513d601f19601f8201168201806040525081019061138f91906148c8565b6113b45761016754610162546113b4916001600160a01b039182169116600019612319565b565b60006113c260016126b1565b905080156113de576000805460ff60a81b1916600160a81b1790555b6113e6612751565b61140360006113fe61012d546001600160a01b031690565b61278a565b61140b612794565b611415600161281c565b61016280546001600160a01b0319166001600160a01b0392909216919091179055611440600061281c565b61016380546001600160a01b03199081166001600160a01b039384161790915561015f805482168a8416179055610161805490911691881691909117905561148785611c06565b61149084610f5b565b61019580546001600160a01b0319166001600160a01b038a1617905560004661a86a61019281905561019380546001600160a81b031916918314610100600160a81b031916919091176101006001600160a01b0388160217905590506114f583610cee565b50801561153e576000805460ff60a81b19169055604051600181527f7f26b83ff96e1f2b6a682f133852f6798a09c465da95921460cefb38474024989060200160405180910390a15b5050505050505050565b600080516020614c88833981519152611560816124f1565b610193546040516343a463c760e01b81526001600160a01b0386811660048301526024820186905260448201859052610100909204909116906343a463c790606401600060405180830381600087803b1580156115bc57600080fd5b505af115801561153e573d6000803e3d6000fd5b610167546001600160a01b0316331461161a5760405162461bcd60e51b815260206004820152600c60248201526b4f6e6c79206342726964676560a01b6044820152606401610c77565b60008581526101686020526040902054610163546001600160a01b039182169186811691161415611679576001600160a01b038116600090815261016560205260408120805486929061166e9084906148f7565b909155506116bf9050565b610162546001600160a01b03868116911614156116bf576001600160a01b03811660009081526101646020526040812080548692906116b99084906148f7565b90915550505b505050505050565b6116cf612470565b5050505050565b6116de61230a565b6001600160a01b03166116fa61012d546001600160a01b031690565b6001600160a01b0316146117205760405162461bcd60e51b8152600401610c7790614893565b815160005b81811015610f2b5760008482815181106117415761174161490f565b60200260200101519050806000141561178e5760405162461bcd60e51b815260206004820152600f60248201526e125b9d985b1a590818da185a5b9251608a1b6044820152606401610c77565b8382815181106117a0576117a061490f565b602090810291909101810151600083815261016a9092526040909120805460ff1916600183818111156117d5576117d561401b565b02179055505080806117e690614925565b915050611725565b60006117f8612470565b5095945050505050565b61180a61230a565b6001600160a01b031661182661012d546001600160a01b031690565b6001600160a01b03161461184c5760405162461bcd60e51b8152600401610c7790614893565b61015f80546001600160a01b0319166001600160a01b0392909216919091179055565b61187761230a565b6001600160a01b031661189361012d546001600160a01b031690565b6001600160a01b0316146118b95760405162461bcd60e51b8152600401610c7790614893565b6113b46000612a7c565b6118cb61230a565b6001600160a01b03166118e761012d546001600160a01b031690565b6001600160a01b03161461190d5760405162461bcd60e51b8152600401610c7790614893565b6001600160a01b0381166119555760405162461bcd60e51b815260206004820152600f60248201526e496e76616c6964206164647265737360881b6044820152606401610c77565b61019580546001600160a01b0319166001600160a01b0392909216919091179055565b6000611982612470565b50949350505050565b61199361230a565b6001600160a01b03166119af61012d546001600160a01b031690565b6001600160a01b0316146119d55760405162461bcd60e51b8152600401610c7790614893565b60fb5460ff16156119f85760405162461bcd60e51b8152600401610c7790614940565b611a00612acf565b6101665461016354611a20916001600160a01b0391821691166000612319565b6101665461016254611a40916001600160a01b0391821691166000612319565b6101675461016354611a60916001600160a01b0391821691166000612319565b61016754610162546113b4916001600160a01b0391821691166000612319565b6000611a8a612470565b509392505050565b6000611a9c612470565b509695505050505050565b611aaf61230a565b6001600160a01b0316611acb61012d546001600160a01b031690565b6001600160a01b031614611af15760405162461bcd60e51b8152600401610c7790614893565b815160005b81811015610f2b576000848281518110611b1257611b1261490f565b602002602001015190508060001415611b5f5760405162461bcd60e51b815260206004820152600f60248201526e125b9d985b1a590818da185a5b9251608a1b6044820152606401610c77565b838281518110611b7157611b7161490f565b6020908102919091018101516000928352610169909152604090912080546001600160a01b0319166001600160a01b0390921691909117905580611bb481614925565b915050611af6565b600082815260c960205260408120611bd49083612b28565b9392505050565b60009182526097602090815260408084206001600160a01b0393909316845291905290205460ff1690565b611c0e61230a565b6001600160a01b0316611c2a61012d546001600160a01b031690565b6001600160a01b031614611c505760405162461bcd60e51b8152600401610c7790614893565b61016654611c67906001600160a01b031682612524565b61016680546001600160a01b0319166001600160a01b0392909216919091179055565b610f56612470565b6000611ca060fb5460ff1690565b15611cbd5760405162461bcd60e51b8152600401610c7790614940565b6000611cc761230a565b6001600160a01b038116600090815261016060209081526040918290205491516bffffffffffffffffffffffff19606085901b169181019190915260348101829052605481018990526074810188905291925090611d40906094015b604051602081830303815290604052805190602001208686612b34565b6101935460ff1615611dc557610193546040516343a463c760e01b81526001600160a01b038481166004830152602482018a905260448201899052610100909204909116906343a463c790606401600060405180830381600087803b158015611da857600080fd5b505af1158015611dbc573d6000803e3d6000fd5b50505050611e3c565b604080516001600160a01b038481166024830152604482018a905260648083018a90528351808403909101815260849092018352602080830180516001600160e01b03166343a463c760e01b179052610192546000818152610169909252938120549293611e3893909216908481612ba8565b9350505b611e478160016148f7565b6001600160a01b039092166000908152610160602052604090209190915550949350505050565b600080611e7a85610ca2565b90506001600160a01b0386163b15611ed657611ece86828787878080601f016020809104026020016040519081016040528093929190818152602001838380828437600092019190915250612d5092505050565b915050611fe5565b6000806000611f1a87878080601f01602080910402602001604051908101604052809392919081815260200183838082843760009201829052509250612dec915050565b6040517f19457468657265756d205369676e6564204d6573736167653a0a3332000000006020820152603c81018890529295509093509150600090605c0160408051601f198184030181528282528051602091820120600080855291840180845281905260ff88169284019290925260608301869052608083018590529092509060019060a0016020604051602081039080840390855afa158015611fc3573d6000803e3d6000fd5b5050604051601f1901516001600160a01b038d81169116149750505050505050505b949350505050565b600081815260c960205260408120610c2790612e0a565b600061201260fb5460ff1690565b1561202f5760405162461bcd60e51b8152600401610c7790614940565b600061203961230a565b6001600160a01b03811660009081526101606020908152604091829020549151929350909161207691611d2391859185918d918d918d910161499d565b61208282898989612e14565b506000935061209490508160016148f7565b6001600160a01b03909216600090815261016060205260409020919091555095945050505050565b6000828152609760205260409020600101546120d7816124f1565b610f5683836125f6565b6120e961230a565b6001600160a01b031661210561012d546001600160a01b031690565b6001600160a01b03161461212b5760405162461bcd60e51b8152600401610c7790614893565b61213481613085565b50565b610f1f612470565b600061214b60016126b1565b90508015612167576000805460ff60a81b1916600160a81b1790555b61216f612751565b61218760006113fe61012d546001600160a01b031690565b61218f612794565b6121996001613100565b61016280546001600160a01b0319166001600160a01b03929092169190911790556121c46000613100565b61016380546001600160a01b03199081166001600160a01b039384161790915561015f80548216888416179055610161805490911691861691909117905561220b83611c06565b61221482610f5b565b80156116cf576000805460ff60a81b19169055604051600181527f7f26b83ff96e1f2b6a682f133852f6798a09c465da95921460cefb38474024989060200160405180910390a15050505050565b61226a61230a565b6001600160a01b031661228661012d546001600160a01b031690565b6001600160a01b0316146122ac5760405162461bcd60e51b8152600401610c7790614893565b61019380546001600160a01b0390921661010002610100600160a81b0319909216919091179055565b60006001600160e01b03198216637965db0b60e01b1480610c2757506301ffc9a760e01b6001600160e01b0319831614610c27565b6000612314613350565b905090565b8015806123a25750604051636eb1769f60e11b81523060048201526001600160a01b03838116602483015284169063dd62ed3e9060440160206040518083038186803b15801561236857600080fd5b505afa15801561237c573d6000803e3d6000fd5b505050506040513d601f19601f820116820180604052508101906123a091906148c8565b155b61240d5760405162461bcd60e51b815260206004820152603660248201527f5361666545524332303a20617070726f76652066726f6d206e6f6e2d7a65726f60448201527520746f206e6f6e2d7a65726f20616c6c6f77616e636560501b6064820152608401610c77565b6040516001600160a01b038316602482015260448101829052610f5690849063095ea7b360e01b906064015b60408051601f198184030181529190526020810180516001600160e01b03166001600160e01b031990931692909217909152613384565b610195546040516060916000916001600160a01b03909116906124969083903690614a0d565b600060405180830381855af49150503d80600081146124d1576040519150601f19603f3d011682016040523d82523d6000602084013e6124d6565b606091505b505090506040513d6000823e8180156124ed573d82f35b3d82fd5b612134816124fd61230a565b613456565b61250c82826134ba565b600082815260c960205260409020610f569082613541565b806001600160a01b0316826001600160a01b03161415612542575050565b6001600160a01b0382161561259b57612569600080516020614c88833981519152836125f6565b61016354612582906001600160a01b0316836000612319565b6101625461259b906001600160a01b0316836000612319565b6001600160a01b03811615610f1f576125c2600080516020614c888339815191528261278a565b610162546125dc906001600160a01b031682600019612319565b61016354610f1f906001600160a01b031682600019612319565b6126008282613556565b600082815260c960205260409020610f5690826135db565b60fb5460ff166126615760405162461bcd60e51b815260206004820152601460248201527314185d5cd8589b194e881b9bdd081c185d5cd95960621b6044820152606401610c77565b60fb805460ff191690557f5db9ee0a495bf2e6ff9c91a7834c1ba4fdd244a5e8aa4e537bd38aeae4b073aa61269461230a565b6040516001600160a01b03909116815260200160405180910390a1565b60008054600160a81b900460ff16156126fa578160ff1660011480156126d65750303b155b6126f25760405162461bcd60e51b8152600401610c7790614a1d565b506000919050565b60005460ff808416600160a01b90920416106127285760405162461bcd60e51b8152600401610c7790614a1d565b506000805460ff909216600160a01b0260ff60a01b19909216919091179055600190565b919050565b600054600160a81b900460ff1661277a5760405162461bcd60e51b8152600401610c7790614a6b565b6113b461278561230a565b612a7c565b610f1f8282612502565b600054600160a81b900460ff166127bd5760405162461bcd60e51b8152600401610c7790614a6b565b61281760007f47e79534a245952e8b16893a336b85a3d9ea9fa8c573f3d803afb92a794692184660408051602081019390935282015230606082015260800160405160208183030381529060405280519060200120905090565b600155565b600046634e45415381141561289c57600183600181111561283f5761283f61401b565b1415612861575073cceca5c4a3355f8e7a0b7d2a7251eec012be7c5892915050565b60008360018111156128755761287561401b565b1415612897575073f9c249974c1acf96a59e5757cc9ba7035ce489b192915050565b612a73565b61a8698114156129125760018360018111156128ba576128ba61401b565b14156128dc5750737acdaba7ee51c1c3f7c6d605cc26b1c9aab0495a92915050565b60008360018111156128f0576128f061401b565b141561289757507378ae2880bd1672b49a33cf796cf53fe6db0ab01d92915050565b606181141561298757600183600181111561292f5761292f61401b565b1415612951575073da14d11d2c7d79f167b6057de3d9cc25c2c488d592915050565b60008360018111156129655761296561401b565b14156128975750731f326a8ca5399418a76ea0efa0403cbb00790c6792915050565b60048114156129fc5760018360018111156129a4576129a461401b565b14156129c6575073df5324ebe6f6b852ff5cbf73627ee137e907527692915050565b60008360018111156129da576129da61401b565b141561289757507321e48034753e490ff04f2f75f7caedf081b320d592915050565b62013881811415612a73576001836001811115612a1b57612a1b61401b565b1415612a3d5750736600bec324ccdd12c70297311aefb37fafb1d68992915050565b6000836001811115612a5157612a5161401b565b1415612a735750737e4c234b1d634db790592d1550816b19e862f74492915050565b50600092915050565b61012d80546001600160a01b038381166001600160a01b0319831681179093556040519116919082907f8be0079c531659141344cd1fd0a4f28419497f9722a3daafe3b4186f6b6457e090600090a35050565b60fb5460ff1615612af25760405162461bcd60e51b8152600401610c7790614940565b60fb805460ff191660011790557f62e78cea01bee320cd4e420270b5ea74000d11b0c9f74754ebdbfc544b05a25861269461230a565b6000611bd483836135f0565b61015f546040805160208101869052612b68926001600160a01b031691016040516020818303038152906040528484611e6e565b610f565760405162461bcd60e51b8152602060048201526011602482015270496e76616c6964207369676e617475726560781b6044820152606401610c77565b60006001600160a01b038516612bf95760405162461bcd60e51b8152602060048201526016602482015275125b9d985b1a59081d185c99d95d10dbdb9d1c9858dd60521b6044820152606401610c77565b60006001600088815261016a602052604090205460ff166001811115612c2157612c2161401b565b14612c3857610167546001600160a01b0316612c46565b610166546001600160a01b03165b60405163bebc4f7160e01b81529091506001600160a01b0382169063bebc4f7190612c7b908a908a908a908a90600401614ab6565b60206040518083038186803b158015612c9357600080fd5b505afa158015612ca7573d6000803e3d6000fd5b505050506040513d601f19601f82011682018060405250810190612ccb91906148c8565b915082158015612cdb5750814710155b156117f857604051630ef95ceb60e31b81526001600160a01b038216906377cae758908490612d14908b908b908b908b90600401614ab6565b6000604051808303818588803b158015612d2d57600080fd5b505af1158015612d41573d6000803e3d6000fd5b50505050505095945050505050565b600080856001600160a01b031663e75235b86040518163ffffffff1660e01b815260040160206040518083038186803b158015612d8c57600080fd5b505afa158015612da0573d6000803e3d6000fd5b505050506040513d601f19601f82011682018060405250810190612dc491906148c8565b905080612dd5576000915050611fe5565b612de2868686868561361a565b9695505050505050565b60419081029190910160208101516040820151919092015160ff1692565b6000610c27825490565b8251606090600090806001600160401b03811115612e3457612e34613e9c565b604051908082528060200260200182016040528015612e5d578160200160208202803683370190505b50925046600080805b848110156130235760008a8281518110612e8257612e8261490f565b6020026020010151905060008a8381518110612ea057612ea061490f565b6020026020010151905085811415612ec357612ebc82866148f7565b945061300e565b828814612ff357818c8981518110612edd57612edd61490f565b602002602001018181525050808b8981518110612efc57612efc61490f565b602002602001018181525050898381518110612f1a57612f1a61490f565b60200260200101518a8981518110612f3457612f3461490f565b60200260200101906001811115612f4d57612f4d61401b565b90816001811115612f6057612f6061401b565b905250600081815261016960205260409020546001600160a01b031680612fbe5760405162461bcd60e51b8152602060048201526012602482015271125b9d985b1a59081d5cd95c881859d95b9d60721b6044820152606401610c77565b808a8a81518110612fd157612fd161490f565b60200260200101906001600160a01b031690816001600160a01b031681525050505b87612ffd81614925565b985061300b905082856148f7565b93505b5050808061301b90614925565b915050612e66565b506130488a3061303384866148f7565b610163546001600160a01b0316929190613876565b6001600160a01b038a1660009081526101656020526040812080548492906130719084906148f7565b925050819055505050505094509492505050565b61308d61230a565b6001600160a01b03166130a961012d546001600160a01b031690565b6001600160a01b0316146130cf5760405162461bcd60e51b8152600401610c7790614893565b6130ec60006130e761012d546001600160a01b031690565b6125f6565b6130f5816138ae565b61213460008261278a565b600046634e45415281141561317b5760018360018111156131235761312361401b565b1415613145575073b12bfca5a55806aaf64e99521918a4bf0fc4080292915050565b60008360018111156131595761315961401b565b14156128975750734988a896b1227218e4a686fde5eabdcabd91571f92915050565b61a86a8114156131f15760018360018111156131995761319961401b565b14156131bb575073a7d7079b0fead91f3e65f86e8915cb59c1a4c66492915050565b60008360018111156131cf576131cf61401b565b1415612897575073c7198437980c041c805a1edcba50c1ce5db9511892915050565b603881141561326657600183600181111561320e5761320e61401b565b14156132305750738ac76a51cc950d9822d68b83fe1ad97b32cd580d92915050565b60008360018111156132445761324461401b565b141561289757507355d398326f99059ff775485246999027b319795592915050565b60018114156132db5760018360018111156132835761328361401b565b14156132a5575073a0b86991c6218b36c1d19d4a2e9eb0ce3606eb4892915050565b60008360018111156132b9576132b961401b565b1415612897575073dac17f958d2ee523a2206206994597c13d831ec792915050565b6089811415612a735760018360018111156132f8576132f861401b565b141561331a5750732791bca1f2de4661ed88a30c99a7a9449aa8417492915050565b600083600181111561332e5761332e61401b565b1415612a73575073c2132d05d31c914a87c6611c10748aeb04b58e8f92915050565b60006018361080159061336d57506000546001600160a01b031633145b1561337f575060131936013560601c90565b503390565b60006133d9826040518060400160405280602081526020017f5361666545524332303a206c6f772d6c6576656c2063616c6c206661696c6564815250856001600160a01b03166139669092919063ffffffff16565b805190915015610f5657808060200190518101906133f79190614ae3565b610f565760405162461bcd60e51b815260206004820152602a60248201527f5361666545524332303a204552433230206f7065726174696f6e20646964206e6044820152691bdd081cdd58d8d9595960b21b6064820152608401610c77565b6134608282611bdb565b610f1f57613478816001600160a01b03166014613975565b613483836020613975565b604051602001613494929190614b05565b60408051601f198184030181529082905262461bcd60e51b8252610c77916004016141da565b6134c48282611bdb565b610f1f5760008281526097602090815260408083206001600160a01b03851684529091529020805460ff191660011790556134fd61230a565b6001600160a01b0316816001600160a01b0316837f2f8788117e7eff1d82e926ec794901d17c78024a50270940304540a733656f0d60405160405180910390a45050565b6000611bd4836001600160a01b038416613b10565b6135608282611bdb565b15610f1f5760008281526097602090815260408083206001600160a01b03851684529091529020805460ff1916905561359761230a565b6001600160a01b0316816001600160a01b0316837ff6391f5c32d9c69d2a47ea670b442974b53935d1edc7fd64eb21e047a839171b60405160405180910390a45050565b6000611bd4836001600160a01b038416613b5f565b60008260000182815481106136075761360761490f565b9060005260206000200154905092915050565b6000613627826041614b7a565b835110156136375750600061386d565b600080876001600160a01b031663a0e67e2b6040518163ffffffff1660e01b815260040160006040518083038186803b15801561367357600080fd5b505afa158015613687573d6000803e3d6000fd5b505050506040513d6000823e601f3d908101601f191682016040526136af9190810190614b99565b905060008080805b878110156138625760418181028a0160208101516040820151919092015160ff1695509093509150836137925791945084916136f4886041614b7a565b82101561370a576000965050505050505061386d565b88516137178360206148f7565b111561372c576000965050505050505061386d565b6020828a018101518a51909182906137459086906148f7565b61374f91906148f7565b111561376557600097505050505050505061386d565b898301602001613776888d83613c52565b61378b5760009850505050505050505061386d565b5050613833565b6040517f19457468657265756d205369676e6564204d6573736167653a0a3332000000006020820152603c81018c9052600190605c0160408051601f198184030181528282528051602091820120600084529083018083525260ff871690820152606081018590526080810184905260a0016020604051602081039080840390855afa158015613826573d6000803e3d6000fd5b5050506020604051035195505b61383d8587613c6c565b613850576000965050505050505061386d565b8061385a81614925565b9150506136b7565b600196505050505050505b95945050505050565b6040516001600160a01b0380851660248301528316604482015260648101829052610f2b9085906323b872dd60e01b90608401612439565b6138b661230a565b6001600160a01b03166138d261012d546001600160a01b031690565b6001600160a01b0316146138f85760405162461bcd60e51b8152600401610c7790614893565b6001600160a01b03811661395d5760405162461bcd60e51b815260206004820152602660248201527f4f776e61626c653a206e6577206f776e657220697320746865207a65726f206160448201526564647265737360d01b6064820152608401610c77565b61213481612a7c565b6060611fe58484600085613cd6565b60606000613984836002614b7a565b61398f9060026148f7565b6001600160401b038111156139a6576139a6613e9c565b6040519080825280601f01601f1916602001820160405280156139d0576020820181803683370190505b509050600360fc1b816000815181106139eb576139eb61490f565b60200101906001600160f81b031916908160001a905350600f60fb1b81600181518110613a1a57613a1a61490f565b60200101906001600160f81b031916908160001a9053506000613a3e846002614b7a565b613a499060016148f7565b90505b6001811115613ac1576f181899199a1a9b1b9c1cb0b131b232b360811b85600f1660108110613a7d57613a7d61490f565b1a60f81b828281518110613a9357613a9361490f565b60200101906001600160f81b031916908160001a90535060049490941c93613aba81614c27565b9050613a4c565b508315611bd45760405162461bcd60e51b815260206004820181905260248201527f537472696e67733a20686578206c656e67746820696e73756666696369656e746044820152606401610c77565b6000818152600183016020526040812054613b5757508154600181810184556000848152602080822090930184905584548482528286019093526040902091909155610c27565b506000610c27565b60008181526001830160205260408120548015613c48576000613b83600183614c3e565b8554909150600090613b9790600190614c3e565b9050818114613bfc576000866000018281548110613bb757613bb761490f565b9060005260206000200154905080876000018481548110613bda57613bda61490f565b6000918252602080832090910192909255918252600188019052604090208390555b8554869080613c0d57613c0d614c55565b600190038181906000526020600020016000905590558560010160008681526020019081526020016000206000905560019350505050610c27565b6000915050610c27565b600080613c5e84610ca2565b905061386d85828686612d50565b8151600090815b81811015613ccb57836001600160a01b0316858281518110613c9757613c9761490f565b60200260200101516001600160a01b03161415613cb957600192505050610c27565b80613cc381614925565b915050613c73565b506000949350505050565b606082471015613d375760405162461bcd60e51b815260206004820152602660248201527f416464726573733a20696e73756666696369656e742062616c616e636520666f6044820152651c8818d85b1b60d21b6064820152608401610c77565b6001600160a01b0385163b613d8e5760405162461bcd60e51b815260206004820152601d60248201527f416464726573733a2063616c6c20746f206e6f6e2d636f6e74726163740000006044820152606401610c77565b600080866001600160a01b03168587604051613daa9190614c6b565b60006040518083038185875af1925050503d8060008114613de7576040519150601f19603f3d011682016040523d82523d6000602084013e613dec565b606091505b5091509150613dfc828286613e07565b979650505050505050565b60608315613e16575081611bd4565b825115613e265782518084602001fd5b8160405162461bcd60e51b8152600401610c7791906141da565b600060208284031215613e5257600080fd5b81356001600160e01b031981168114611bd457600080fd5b6001600160a01b038116811461213457600080fd5b600060208284031215613e9157600080fd5b8135611bd481613e6a565b634e487b7160e01b600052604160045260246000fd5b604051601f8201601f191681016001600160401b0381118282101715613eda57613eda613e9c565b604052919050565b600082601f830112613ef357600080fd5b81356001600160401b03811115613f0c57613f0c613e9c565b613f1f601f8201601f1916602001613eb2565b818152846020838601011115613f3457600080fd5b816020850160208301376000918101602001919091529392505050565b600060208284031215613f6357600080fd5b81356001600160401b03811115613f7957600080fd5b611fe584828501613ee2565b600060208284031215613f9757600080fd5b5035919050565b80356002811061274c57600080fd5b600080600060608486031215613fc257600080fd5b8335613fcd81613e6a565b925060208401359150613fe260408501613f9e565b90509250925092565b60008060408385031215613ffe57600080fd5b82359150602083013561401081613e6a565b809150509250929050565b634e487b7160e01b600052602160045260246000fd5b6002811061404f57634e487b7160e01b600052602160045260246000fd5b9052565b60208101610c278284614031565b600080600080600080600060e0888a03121561407c57600080fd5b873561408781613e6a565b9650602088013561409781613e6a565b955060408801356140a781613e6a565b945060608801356140b781613e6a565b935060808801356140c781613e6a565b925060a08801356140d781613e6a565b915060c08801356140e781613e6a565b8091505092959891949750929550565b60008060006060848603121561410c57600080fd5b833561411781613e6a565b95602085013595506040909401359392505050565b600080600080600060a0868803121561414457600080fd5b85359450602086013561415681613e6a565b93506040860135925060608601359150608086013561417481613e6a565b809150509295509295909350565b60005b8381101561419d578181015183820152602001614185565b83811115610f2b5750506000910152565b600081518084526141c6816020860160208601614182565b601f01601f19169290920160200192915050565b602081526000611bd460208301846141ae565b60006001600160401b0382111561420657614206613e9c565b5060051b60200190565b600082601f83011261422157600080fd5b81356020614236614231836141ed565b613eb2565b82815260059290921b8401810191818101908684111561425557600080fd5b8286015b84811015611a9c57803561426c81613e6a565b8352918301918301614259565b600082601f83011261428a57600080fd5b8135602061429a614231836141ed565b82815260059290921b840181019181810190868411156142b957600080fd5b8286015b84811015611a9c57803583529183019183016142bd565b600080600080608085870312156142ea57600080fd5b84356142f581613e6a565b935060208501356001600160401b038082111561431157600080fd5b61431d88838901614210565b9450604087013591508082111561433357600080fd5b5061434087828801614279565b949793965093946060013593505050565b600082601f83011261436257600080fd5b81356020614372614231836141ed565b82815260059290921b8401810191818101908684111561439157600080fd5b8286015b84811015611a9c576143a681613f9e565b8352918301918301614395565b600080604083850312156143c657600080fd5b82356001600160401b03808211156143dd57600080fd5b6143e986838701614279565b935060208501359150808211156143ff57600080fd5b5061440c85828601614351565b9150509250929050565b60008083601f84011261442857600080fd5b5081356001600160401b0381111561443f57600080fd5b60208301915083602082850101111561445757600080fd5b9250929050565b60008060008060006080868803121561447657600080fd5b85356001600160401b038082111561448d57600080fd5b61449989838a01614279565b9650602088013595506040880135945060608801359150808211156144bd57600080fd5b506144ca88828901614416565b969995985093965092949392505050565b6000806000604084860312156144f057600080fd5b8335925060208401356001600160401b0381111561450d57600080fd5b61451986828701614416565b9497909650939450505050565b6000806000806060858703121561453c57600080fd5b843593506020850135925060408501356001600160401b0381111561456057600080fd5b61456c87828801614416565b95989497509550505050565b60008060008060008060a0878903121561459157600080fd5b86356001600160401b03808211156145a857600080fd5b6145b48a838b01614279565b975060208901359150808211156145ca57600080fd5b6145d68a838b01614210565b965060408901359150808211156145ec57600080fd5b6145f88a838b01614279565b955060608901359450608089013591508082111561461557600080fd5b5061462289828a01614416565b979a9699509497509295939492505050565b6000806040838503121561464757600080fd5b82356001600160401b038082111561465e57600080fd5b61466a86838701614279565b9350602085013591508082111561468057600080fd5b5061440c85828601614210565b600080604083850312156146a057600080fd5b50508035926020909101359150565b600080600080606085870312156146c557600080fd5b84356001600160401b03808211156146dc57600080fd5b6146e888838901614279565b955060208701359150808211156146fe57600080fd5b61470a88838901614351565b9450604087013591508082111561472057600080fd5b5061456c87828801614416565b6000806040838503121561474057600080fd5b823561474b81613e6a565b946020939093013593505050565b6000806000806060858703121561476f57600080fd5b843561477a81613e6a565b935060208501356001600160401b038082111561479657600080fd5b61470a88838901613ee2565b6000806000806000608086880312156147ba57600080fd5b85356001600160401b03808211156147d157600080fd5b6147dd89838a01614279565b965060208801359150808211156147f357600080fd5b6147ff89838a01614279565b9550604088013591508082111561481557600080fd5b61482189838a01614351565b945060608801359150808211156144bd57600080fd5b6000806000806080858703121561484d57600080fd5b843561485881613e6a565b9350602085013561486881613e6a565b9250604085013561487881613e6a565b9150606085013561488881613e6a565b939692955090935050565b6020808252818101527f4f776e61626c653a2063616c6c6572206973206e6f7420746865206f776e6572604082015260600190565b6000602082840312156148da57600080fd5b5051919050565b634e487b7160e01b600052601160045260246000fd5b6000821982111561490a5761490a6148e1565b500190565b634e487b7160e01b600052603260045260246000fd5b6000600019821415614939576149396148e1565b5060010190565b60208082526010908201526f14185d5cd8589b194e881c185d5cd95960821b604082015260600190565b60008151602080840160005b8381101561499257815187529582019590820190600101614976565b509495945050505050565b6bffffffffffffffffffffffff198660601b16815284601482015260006149d06149ca603484018761496a565b8561496a565b8351602080860160005b838110156149fd576149ed858351614031565b93820193908201906001016149da565b50929a9950505050505050505050565b8183823760009101908152919050565b6020808252602e908201527f496e697469616c697a61626c653a20636f6e747261637420697320616c72656160408201526d191e481a5b9a5d1a585b1a5e995960921b606082015260800190565b6020808252602b908201527f496e697469616c697a61626c653a20636f6e7472616374206973206e6f74206960408201526a6e697469616c697a696e6760a81b606082015260800190565b84815260018060a01b0384166020820152826040820152608060608201526000612de260808301846141ae565b600060208284031215614af557600080fd5b81518015158114611bd457600080fd5b7f416363657373436f6e74726f6c3a206163636f756e7420000000000000000000815260008351614b3d816017850160208801614182565b7001034b99036b4b9b9b4b733903937b6329607d1b6017918401918201528351614b6e816028840160208801614182565b01602801949350505050565b6000816000190483118215151615614b9457614b946148e1565b500290565b60006020808385031215614bac57600080fd5b82516001600160401b03811115614bc257600080fd5b8301601f81018513614bd357600080fd5b8051614be1614231826141ed565b81815260059190911b82018301908381019087831115614c0057600080fd5b928401925b82841015613dfc578351614c1881613e6a565b82529284019290840190614c05565b600081614c3657614c366148e1565b506000190190565b600082821015614c5057614c506148e1565b500390565b634e487b7160e01b600052603160045260246000fd5b60008251614c7d818460208701614182565b919091019291505056fedbeb657137b1822b3d5418bea6fd641226d964b4c3871ef23546db2622258871a2646970667358221220bf0787513a4086f0bbafd3fe620d0883655e80f630bbb6fe4a4f1e6ba3d884c464736f6c63430008090033",
  "devdoc": {
    "kind": "dev",
    "methods": {
      "burn(uint256,uint256,bytes)": {
        "details": "It calls burnByAdmin of BNIMinter.",
        "params": {
          "_pool": "total pool in USD",
          "_share": "amount of shares"
        }
      },
      "deposit(uint256[],address[],uint256[],uint256,bytes)": {
        "details": "It calls depositByAdmin of BNIVaults."
      },
      "exitWithdrawal(uint256,bytes)": {
        "details": "It calls exitWithdrawalByAdmin of BNIMinter.",
        "params": {
          "_gatheredAmount": "is the amount of token that is gathered."
        }
      },
      "gather(uint256[],uint8[],bytes)": {
        "details": "It gathers withdrawn tokens of the user from user agents."
      },
      "getMessageHashForSafe(bytes)": {
        "details": "Returns hash of a message that can be signed by owners.",
        "params": {
          "message": "Message that should be hashed"
        },
        "returns": {
          "_0": "Message hash."
        }
      },
      "getRoleAdmin(bytes32)": {
        "details": "Returns the admin role that controls `role`. See {grantRole} and {revokeRole}. To change a role's admin, use {_setRoleAdmin}."
      },
      "getRoleMember(bytes32,uint256)": {
        "details": "Returns one of the accounts that have `role`. `index` must be a value between 0 and {getRoleMemberCount}, non-inclusive. Role bearers are not sorted in any particular way, and their ordering may change at any point. WARNING: When using {getRoleMember} and {getRoleMemberCount}, make sure you perform all queries on the same block. See the following https://forum.openzeppelin.com/t/iterating-over-elements-on-enumerableset-in-openzeppelin-contracts/2296[forum post] for more information."
      },
      "getRoleMemberCount(bytes32)": {
        "details": "Returns the number of accounts that have `role`. Can be used together with {getRoleMember} to enumerate all bearers of a role."
      },
      "grantRole(bytes32,address)": {
        "details": "Grants `role` to `account`. If `account` had not been already granted `role`, emits a {RoleGranted} event. Requirements: - the caller must have ``role``'s admin role."
      },
      "hasRole(bytes32,address)": {
        "details": "Returns `true` if `account` has been granted `role`."
      },
      "initDeposit(uint256,uint256,bytes)": {
        "details": "It calls initDepositByAdmin of BNIMinter.",
        "params": {
          "_USDT6Amt": "USDT with 6 decimals to be deposited",
          "_pool": "total pool in USD"
        }
      },
      "mint(uint256,bytes)": {
        "details": "It calls mintByAdmin of BNIMinter."
      },
      "owner()": {
        "details": "Returns the address of the current owner."
      },
      "paused()": {
        "details": "Returns true if the contract is paused, and false otherwise."
      },
      "renounceOwnership()": {
        "details": "Leaves the contract without owner. It will not be possible to call `onlyOwner` functions anymore. Can only be called by the current owner. NOTE: Renouncing ownership will leave the contract without an owner, thereby removing any functionality that is only available to the owner."
      },
      "renounceRole(bytes32,address)": {
        "details": "Revokes `role` from the calling account. Roles are often managed via {grantRole} and {revokeRole}: this function's purpose is to provide a mechanism for accounts to lose their privileges if they are compromised (such as when a trusted device is misplaced). If the calling account had been revoked `role`, emits a {RoleRevoked} event. Requirements: - the caller must be `account`."
      },
      "revokeRole(bytes32,address)": {
        "details": "Revokes `role` from `account`. If `account` had been granted `role`, emits a {RoleRevoked} event. Requirements: - the caller must have ``role``'s admin role."
      },
      "setSubImpl(address)": {
        "details": "Delegate to sub contract"
      },
      "supportsInterface(bytes4)": {
        "details": "See {IERC165-supportsInterface}."
      },
      "takeOut(uint256,bytes)": {
        "details": "It takes out tokens from this agent.",
        "params": {
          "_gatheredAmount": "is the amount of token that is gathered."
        }
      },
      "transfer(uint256[],uint256[],uint8[],bytes)": {
        "details": "It transfers tokens to user agents"
      },
      "withdraw(uint256[],uint256,uint256,bytes)": {
        "details": "It calls withdrawPercByAdmin of BNIVaults."
      }
    },
    "version": 1
  },
  "userdoc": {
    "kind": "user",
    "methods": {
      "exitWithdrawal(uint256,bytes)": {
        "notice": "_gatheredAmount doesn't include the balance which is withdrawan in this agent."
      },
      "isTrustedForwarder(address)": {
        "notice": "return if the forwarder is trusted to forward relayed transactions to us. the forwarder is required to verify the sender's signature, and verify the call is not a replay."
      },
      "onRefunded(uint256,address,uint256,uint256,address)": {
        "notice": "Never revert in this function. If not, cbridgeAdapter.executeMessageWithTransferRefund will be failed."
      },
      "takeOut(uint256,bytes)": {
        "notice": "_gatheredAmount doesn't include the balance which is withdrawan in this agent."
      }
    },
    "version": 1
  },
  "storageLayout": {
    "storage": [
      {
        "astId": 67829,
        "contract": "contracts/xchain/agent/BNIUserAgentTest.sol:BNIUserAgentTest",
        "label": "trustedForwarder",
        "offset": 0,
        "slot": "0",
        "type": "t_address"
      },
      {
        "astId": 713,
        "contract": "contracts/xchain/agent/BNIUserAgentTest.sol:BNIUserAgentTest",
        "label": "_initialized",
        "offset": 20,
        "slot": "0",
        "type": "t_uint8"
      },
      {
        "astId": 716,
        "contract": "contracts/xchain/agent/BNIUserAgentTest.sol:BNIUserAgentTest",
        "label": "_initializing",
        "offset": 21,
        "slot": "0",
        "type": "t_bool"
      },
      {
        "astId": 68344,
        "contract": "contracts/xchain/agent/BNIUserAgentTest.sol:BNIUserAgentTest",
        "label": "separator",
        "offset": 0,
        "slot": "1",
        "type": "t_bytes32"
      },
      {
        "astId": 68761,
        "contract": "contracts/xchain/agent/BNIUserAgentTest.sol:BNIUserAgentTest",
        "label": "__gap",
        "offset": 0,
        "slot": "2",
        "type": "t_array(t_uint256)49_storage"
      },
      {
        "astId": 3292,
        "contract": "contracts/xchain/agent/BNIUserAgentTest.sol:BNIUserAgentTest",
        "label": "__gap",
        "offset": 0,
        "slot": "51",
        "type": "t_array(t_uint256)50_storage"
      },
      {
        "astId": 3946,
        "contract": "contracts/xchain/agent/BNIUserAgentTest.sol:BNIUserAgentTest",
        "label": "__gap",
        "offset": 0,
        "slot": "101",
        "type": "t_array(t_uint256)50_storage"
      },
      {
        "astId": 184,
        "contract": "contracts/xchain/agent/BNIUserAgentTest.sol:BNIUserAgentTest",
        "label": "_roles",
        "offset": 0,
        "slot": "151",
        "type": "t_mapping(t_bytes32,t_struct(RoleData)179_storage)"
      },
      {
        "astId": 483,
        "contract": "contracts/xchain/agent/BNIUserAgentTest.sol:BNIUserAgentTest",
        "label": "__gap",
        "offset": 0,
        "slot": "152",
        "type": "t_array(t_uint256)49_storage"
      },
      {
        "astId": 33,
        "contract": "contracts/xchain/agent/BNIUserAgentTest.sol:BNIUserAgentTest",
        "label": "_roleMembers",
        "offset": 0,
        "slot": "201",
        "type": "t_mapping(t_bytes32,t_struct(AddressSet)4359_storage)"
      },
      {
        "astId": 143,
        "contract": "contracts/xchain/agent/BNIUserAgentTest.sol:BNIUserAgentTest",
        "label": "__gap",
        "offset": 0,
        "slot": "202",
        "type": "t_array(t_uint256)49_storage"
      },
      {
        "astId": 869,
        "contract": "contracts/xchain/agent/BNIUserAgentTest.sol:BNIUserAgentTest",
        "label": "_paused",
        "offset": 0,
        "slot": "251",
        "type": "t_bool"
      },
      {
        "astId": 958,
        "contract": "contracts/xchain/agent/BNIUserAgentTest.sol:BNIUserAgentTest",
        "label": "__gap",
        "offset": 0,
        "slot": "252",
        "type": "t_array(t_uint256)49_storage"
      },
      {
        "astId": 593,
        "contract": "contracts/xchain/agent/BNIUserAgentTest.sol:BNIUserAgentTest",
        "label": "_owner",
        "offset": 0,
        "slot": "301",
        "type": "t_address"
      },
      {
        "astId": 705,
        "contract": "contracts/xchain/agent/BNIUserAgentTest.sol:BNIUserAgentTest",
        "label": "__gap",
        "offset": 0,
        "slot": "302",
        "type": "t_array(t_uint256)49_storage"
      },
      {
        "astId": 59413,
        "contract": "contracts/xchain/agent/BNIUserAgentTest.sol:BNIUserAgentTest",
        "label": "admin",
        "offset": 0,
        "slot": "351",
        "type": "t_address"
      },
      {
        "astId": 59417,
        "contract": "contracts/xchain/agent/BNIUserAgentTest.sol:BNIUserAgentTest",
        "label": "nonces",
        "offset": 0,
        "slot": "352",
        "type": "t_mapping(t_address,t_uint256)"
      },
      {
        "astId": 59420,
        "contract": "contracts/xchain/agent/BNIUserAgentTest.sol:BNIUserAgentTest",
        "label": "swap",
        "offset": 0,
        "slot": "353",
        "type": "t_contract(ISwap)55907"
      },
      {
        "astId": 59423,
        "contract": "contracts/xchain/agent/BNIUserAgentTest.sol:BNIUserAgentTest",
        "label": "USDC",
        "offset": 0,
        "slot": "354",
        "type": "t_contract(IERC20Upgradeable)1707"
      },
      {
        "astId": 59426,
        "contract": "contracts/xchain/agent/BNIUserAgentTest.sol:BNIUserAgentTest",
        "label": "USDT",
        "offset": 0,
        "slot": "355",
        "type": "t_contract(IERC20Upgradeable)1707"
      },
      {
        "astId": 59430,
        "contract": "contracts/xchain/agent/BNIUserAgentTest.sol:BNIUserAgentTest",
        "label": "usdcBalances",
        "offset": 0,
        "slot": "356",
        "type": "t_mapping(t_address,t_uint256)"
      },
      {
        "astId": 59434,
        "contract": "contracts/xchain/agent/BNIUserAgentTest.sol:BNIUserAgentTest",
        "label": "usdtBalances",
        "offset": 0,
        "slot": "357",
        "type": "t_mapping(t_address,t_uint256)"
      },
      {
        "astId": 59437,
        "contract": "contracts/xchain/agent/BNIUserAgentTest.sol:BNIUserAgentTest",
        "label": "multichainAdapter",
        "offset": 0,
        "slot": "358",
        "type": "t_contract(IXChainAdapter)56211"
      },
      {
        "astId": 59440,
        "contract": "contracts/xchain/agent/BNIUserAgentTest.sol:BNIUserAgentTest",
        "label": "cbridgeAdapter",
        "offset": 0,
        "slot": "359",
        "type": "t_contract(IXChainAdapter)56211"
      },
      {
        "astId": 59444,
        "contract": "contracts/xchain/agent/BNIUserAgentTest.sol:BNIUserAgentTest",
        "label": "cbridgeSenders",
        "offset": 0,
        "slot": "360",
        "type": "t_mapping(t_uint256,t_address)"
      },
      {
        "astId": 59448,
        "contract": "contracts/xchain/agent/BNIUserAgentTest.sol:BNIUserAgentTest",
        "label": "userAgents",
        "offset": 0,
        "slot": "361",
        "type": "t_mapping(t_uint256,t_address)"
      },
      {
        "astId": 59453,
        "contract": "contracts/xchain/agent/BNIUserAgentTest.sol:BNIUserAgentTest",
        "label": "callAdapterTypes",
        "offset": 0,
        "slot": "362",
        "type": "t_mapping(t_uint256,t_enum(AdapterType)59406)"
      },
      {
        "astId": 60089,
        "contract": "contracts/xchain/agent/BNIUserAgentTest.sol:BNIUserAgentTest",
        "label": "__gap",
        "offset": 0,
        "slot": "363",
        "type": "t_array(t_uint256)39_storage"
      },
      {
        "astId": 57112,
        "contract": "contracts/xchain/agent/BNIUserAgentTest.sol:BNIUserAgentTest",
        "label": "chainIdOnLP",
        "offset": 0,
        "slot": "402",
        "type": "t_uint256"
      },
      {
        "astId": 57114,
        "contract": "contracts/xchain/agent/BNIUserAgentTest.sol:BNIUserAgentTest",
        "label": "isLPChain",
        "offset": 0,
        "slot": "403",
        "type": "t_bool"
      },
      {
        "astId": 57117,
        "contract": "contracts/xchain/agent/BNIUserAgentTest.sol:BNIUserAgentTest",
        "label": "bniMinter",
        "offset": 1,
        "slot": "403",
        "type": "t_contract(IBNIMinter)10340"
      },
      {
        "astId": 57120,
        "contract": "contracts/xchain/agent/BNIUserAgentTest.sol:BNIUserAgentTest",
        "label": "bniVault",
        "offset": 0,
        "slot": "404",
        "type": "t_contract(IBNIVault)10387"
      },
      {
        "astId": 57122,
        "contract": "contracts/xchain/agent/BNIUserAgentTest.sol:BNIUserAgentTest",
        "label": "subImpl",
        "offset": 0,
        "slot": "405",
        "type": "t_address"
      }
    ],
    "types": {
      "t_address": {
        "encoding": "inplace",
        "label": "address",
        "numberOfBytes": "20"
      },
      "t_array(t_bytes32)dyn_storage": {
        "base": "t_bytes32",
        "encoding": "dynamic_array",
        "label": "bytes32[]",
        "numberOfBytes": "32"
      },
      "t_array(t_uint256)39_storage": {
        "base": "t_uint256",
        "encoding": "inplace",
        "label": "uint256[39]",
        "numberOfBytes": "1248"
      },
      "t_array(t_uint256)49_storage": {
        "base": "t_uint256",
        "encoding": "inplace",
        "label": "uint256[49]",
        "numberOfBytes": "1568"
      },
      "t_array(t_uint256)50_storage": {
        "base": "t_uint256",
        "encoding": "inplace",
        "label": "uint256[50]",
        "numberOfBytes": "1600"
      },
      "t_bool": {
        "encoding": "inplace",
        "label": "bool",
        "numberOfBytes": "1"
      },
      "t_bytes32": {
        "encoding": "inplace",
        "label": "bytes32",
        "numberOfBytes": "32"
      },
      "t_contract(IBNIMinter)10340": {
        "encoding": "inplace",
        "label": "contract IBNIMinter",
        "numberOfBytes": "20"
      },
      "t_contract(IBNIVault)10387": {
        "encoding": "inplace",
        "label": "contract IBNIVault",
        "numberOfBytes": "20"
      },
      "t_contract(IERC20Upgradeable)1707": {
        "encoding": "inplace",
        "label": "contract IERC20Upgradeable",
        "numberOfBytes": "20"
      },
      "t_contract(ISwap)55907": {
        "encoding": "inplace",
        "label": "contract ISwap",
        "numberOfBytes": "20"
      },
      "t_contract(IXChainAdapter)56211": {
        "encoding": "inplace",
        "label": "contract IXChainAdapter",
        "numberOfBytes": "20"
      },
      "t_enum(AdapterType)59406": {
        "encoding": "inplace",
        "label": "enum BasicUserAgentBase.AdapterType",
        "numberOfBytes": "1"
      },
      "t_mapping(t_address,t_bool)": {
        "encoding": "mapping",
        "key": "t_address",
        "label": "mapping(address => bool)",
        "numberOfBytes": "32",
        "value": "t_bool"
      },
      "t_mapping(t_address,t_uint256)": {
        "encoding": "mapping",
        "key": "t_address",
        "label": "mapping(address => uint256)",
        "numberOfBytes": "32",
        "value": "t_uint256"
      },
      "t_mapping(t_bytes32,t_struct(AddressSet)4359_storage)": {
        "encoding": "mapping",
        "key": "t_bytes32",
        "label": "mapping(bytes32 => struct EnumerableSetUpgradeable.AddressSet)",
        "numberOfBytes": "32",
        "value": "t_struct(AddressSet)4359_storage"
      },
      "t_mapping(t_bytes32,t_struct(RoleData)179_storage)": {
        "encoding": "mapping",
        "key": "t_bytes32",
        "label": "mapping(bytes32 => struct AccessControlUpgradeable.RoleData)",
        "numberOfBytes": "32",
        "value": "t_struct(RoleData)179_storage"
      },
      "t_mapping(t_bytes32,t_uint256)": {
        "encoding": "mapping",
        "key": "t_bytes32",
        "label": "mapping(bytes32 => uint256)",
        "numberOfBytes": "32",
        "value": "t_uint256"
      },
      "t_mapping(t_uint256,t_address)": {
        "encoding": "mapping",
        "key": "t_uint256",
        "label": "mapping(uint256 => address)",
        "numberOfBytes": "32",
        "value": "t_address"
      },
      "t_mapping(t_uint256,t_enum(AdapterType)59406)": {
        "encoding": "mapping",
        "key": "t_uint256",
        "label": "mapping(uint256 => enum BasicUserAgentBase.AdapterType)",
        "numberOfBytes": "32",
        "value": "t_enum(AdapterType)59406"
      },
      "t_struct(AddressSet)4359_storage": {
        "encoding": "inplace",
        "label": "struct EnumerableSetUpgradeable.AddressSet",
        "members": [
          {
            "astId": 4358,
            "contract": "contracts/xchain/agent/BNIUserAgentTest.sol:BNIUserAgentTest",
            "label": "_inner",
            "offset": 0,
            "slot": "0",
            "type": "t_struct(Set)4058_storage"
          }
        ],
        "numberOfBytes": "64"
      },
      "t_struct(RoleData)179_storage": {
        "encoding": "inplace",
        "label": "struct AccessControlUpgradeable.RoleData",
        "members": [
          {
            "astId": 176,
            "contract": "contracts/xchain/agent/BNIUserAgentTest.sol:BNIUserAgentTest",
            "label": "members",
            "offset": 0,
            "slot": "0",
            "type": "t_mapping(t_address,t_bool)"
          },
          {
            "astId": 178,
            "contract": "contracts/xchain/agent/BNIUserAgentTest.sol:BNIUserAgentTest",
            "label": "adminRole",
            "offset": 0,
            "slot": "1",
            "type": "t_bytes32"
          }
        ],
        "numberOfBytes": "64"
      },
      "t_struct(Set)4058_storage": {
        "encoding": "inplace",
        "label": "struct EnumerableSetUpgradeable.Set",
        "members": [
          {
            "astId": 4053,
            "contract": "contracts/xchain/agent/BNIUserAgentTest.sol:BNIUserAgentTest",
            "label": "_values",
            "offset": 0,
            "slot": "0",
            "type": "t_array(t_bytes32)dyn_storage"
          },
          {
            "astId": 4057,
            "contract": "contracts/xchain/agent/BNIUserAgentTest.sol:BNIUserAgentTest",
            "label": "_indexes",
            "offset": 0,
            "slot": "1",
            "type": "t_mapping(t_bytes32,t_uint256)"
          }
        ],
        "numberOfBytes": "64"
      },
      "t_uint256": {
        "encoding": "inplace",
        "label": "uint256",
        "numberOfBytes": "32"
      },
      "t_uint8": {
        "encoding": "inplace",
        "label": "uint8",
        "numberOfBytes": "1"
      }
    }
  }
}