{
  "address": "0x7A533b4E7d54bFE45B772e8b1ED33233382B56C6",
  "abi": [
    {
      "anonymous": false,
      "inputs": [
        {
          "indexed": false,
          "internalType": "uint8",
          "name": "version",
          "type": "uint8"
        }
      ],
      "name": "Initialized",
      "type": "event"
    },
    {
      "anonymous": false,
      "inputs": [
        {
          "indexed": true,
          "internalType": "address",
          "name": "previousOwner",
          "type": "address"
        },
        {
          "indexed": true,
          "internalType": "address",
          "name": "newOwner",
          "type": "address"
        }
      ],
      "name": "OwnershipTransferred",
      "type": "event"
    },
    {
      "anonymous": false,
      "inputs": [
        {
          "indexed": false,
          "internalType": "address",
          "name": "account",
          "type": "address"
        }
      ],
      "name": "Paused",
      "type": "event"
    },
    {
      "anonymous": false,
      "inputs": [
        {
          "indexed": true,
          "internalType": "bytes32",
          "name": "role",
          "type": "bytes32"
        },
        {
          "indexed": true,
          "internalType": "bytes32",
          "name": "previousAdminRole",
          "type": "bytes32"
        },
        {
          "indexed": true,
          "internalType": "bytes32",
          "name": "newAdminRole",
          "type": "bytes32"
        }
      ],
      "name": "RoleAdminChanged",
      "type": "event"
    },
    {
      "anonymous": false,
      "inputs": [
        {
          "indexed": true,
          "internalType": "bytes32",
          "name": "role",
          "type": "bytes32"
        },
        {
          "indexed": true,
          "internalType": "address",
          "name": "account",
          "type": "address"
        },
        {
          "indexed": true,
          "internalType": "address",
          "name": "sender",
          "type": "address"
        }
      ],
      "name": "RoleGranted",
      "type": "event"
    },
    {
      "anonymous": false,
      "inputs": [
        {
          "indexed": true,
          "internalType": "bytes32",
          "name": "role",
          "type": "bytes32"
        },
        {
          "indexed": true,
          "internalType": "address",
          "name": "account",
          "type": "address"
        },
        {
          "indexed": true,
          "internalType": "address",
          "name": "sender",
          "type": "address"
        }
      ],
      "name": "RoleRevoked",
      "type": "event"
    },
    {
      "anonymous": false,
      "inputs": [
        {
          "indexed": false,
          "internalType": "address",
          "name": "account",
          "type": "address"
        },
        {
          "indexed": false,
          "internalType": "uint256",
          "name": "balance",
          "type": "uint256"
        },
        {
          "indexed": false,
          "internalType": "uint256",
          "name": "tokensForFee",
          "type": "uint256"
        }
      ],
      "name": "SkipGathering",
      "type": "event"
    },
    {
      "anonymous": false,
      "inputs": [
        {
          "indexed": true,
          "internalType": "address",
          "name": "from",
          "type": "address"
        },
        {
          "indexed": false,
          "internalType": "address",
          "name": "token",
          "type": "address"
        },
        {
          "indexed": true,
          "internalType": "uint256",
          "name": "amount",
          "type": "uint256"
        },
        {
          "indexed": false,
          "internalType": "uint256",
          "name": "fromChainId",
          "type": "uint256"
        },
        {
          "indexed": true,
          "internalType": "uint256",
          "name": "toChainId",
          "type": "uint256"
        },
        {
          "indexed": false,
          "internalType": "address",
          "name": "to",
          "type": "address"
        },
        {
          "indexed": false,
          "internalType": "enum BasicUserAgentBase.AdapterType",
          "name": "adapterType",
          "type": "uint8"
        },
        {
          "indexed": false,
          "internalType": "uint256",
          "name": "nonce",
          "type": "uint256"
        }
      ],
      "name": "Transfer",
      "type": "event"
    },
    {
      "anonymous": false,
      "inputs": [
        {
          "indexed": false,
          "internalType": "address",
          "name": "account",
          "type": "address"
        }
      ],
      "name": "Unpaused",
      "type": "event"
    },
    {
      "inputs": [],
      "name": "ADAPTER_ROLE",
      "outputs": [
        {
          "internalType": "bytes32",
          "name": "",
          "type": "bytes32"
        }
      ],
      "stateMutability": "view",
      "type": "function"
    },
    {
      "inputs": [],
      "name": "DEFAULT_ADMIN_ROLE",
      "outputs": [
        {
          "internalType": "bytes32",
          "name": "",
          "type": "bytes32"
        }
      ],
      "stateMutability": "view",
      "type": "function"
    },
    {
      "inputs": [],
      "name": "USDC",
      "outputs": [
        {
          "internalType": "contract IERC20Upgradeable",
          "name": "",
          "type": "address"
        }
      ],
      "stateMutability": "view",
      "type": "function"
    },
    {
      "inputs": [],
      "name": "USDT",
      "outputs": [
        {
          "internalType": "contract IERC20Upgradeable",
          "name": "",
          "type": "address"
        }
      ],
      "stateMutability": "view",
      "type": "function"
    },
    {
      "inputs": [],
      "name": "admin",
      "outputs": [
        {
          "internalType": "address",
          "name": "",
          "type": "address"
        }
      ],
      "stateMutability": "view",
      "type": "function"
    },
    {
      "inputs": [],
      "name": "bniMinter",
      "outputs": [
        {
          "internalType": "contract IBNIMinter",
          "name": "",
          "type": "address"
        }
      ],
      "stateMutability": "view",
      "type": "function"
    },
    {
      "inputs": [],
      "name": "bniVault",
      "outputs": [
        {
          "internalType": "contract IBNIVault",
          "name": "",
          "type": "address"
        }
      ],
      "stateMutability": "view",
      "type": "function"
    },
    {
      "inputs": [
        {
          "internalType": "uint256",
          "name": "_pool",
          "type": "uint256"
        },
        {
          "internalType": "uint256",
          "name": "_share",
          "type": "uint256"
        },
        {
          "internalType": "bytes",
          "name": "_signature",
          "type": "bytes"
        }
      ],
      "name": "burn",
      "outputs": [
        {
          "internalType": "uint256",
          "name": "_feeAmt",
          "type": "uint256"
        }
      ],
      "stateMutability": "payable",
      "type": "function"
    },
    {
      "inputs": [
        {
          "internalType": "address",
          "name": "_account",
          "type": "address"
        },
        {
          "internalType": "uint256",
          "name": "_pool",
          "type": "uint256"
        },
        {
          "internalType": "uint256",
          "name": "_share",
          "type": "uint256"
        }
      ],
      "name": "burnByAdmin",
      "outputs": [],
      "stateMutability": "nonpayable",
      "type": "function"
    },
    {
      "inputs": [
        {
          "internalType": "uint256",
          "name": "",
          "type": "uint256"
        }
      ],
      "name": "callAdapterTypes",
      "outputs": [
        {
          "internalType": "enum BasicUserAgentBase.AdapterType",
          "name": "",
          "type": "uint8"
        }
      ],
      "stateMutability": "view",
      "type": "function"
    },
    {
      "inputs": [],
      "name": "cbridgeAdapter",
      "outputs": [
        {
          "internalType": "contract IXChainAdapter",
          "name": "",
          "type": "address"
        }
      ],
      "stateMutability": "view",
      "type": "function"
    },
    {
      "inputs": [
        {
          "internalType": "uint256",
          "name": "",
          "type": "uint256"
        }
      ],
      "name": "cbridgeSenders",
      "outputs": [
        {
          "internalType": "address",
          "name": "",
          "type": "address"
        }
      ],
      "stateMutability": "view",
      "type": "function"
    },
    {
      "inputs": [],
      "name": "chainIdOnLP",
      "outputs": [
        {
          "internalType": "uint256",
          "name": "",
          "type": "uint256"
        }
      ],
      "stateMutability": "view",
      "type": "function"
    },
    {
      "inputs": [
        {
          "internalType": "uint256[]",
          "name": "_toChainIds",
          "type": "uint256[]"
        },
        {
          "internalType": "address[]",
          "name": "_tokens",
          "type": "address[]"
        },
        {
          "internalType": "uint256[]",
          "name": "_USDT6Amts",
          "type": "uint256[]"
        },
        {
          "internalType": "uint256",
          "name": "_minterNonce",
          "type": "uint256"
        },
        {
          "internalType": "bytes",
          "name": "_signature",
          "type": "bytes"
        }
      ],
      "name": "deposit",
      "outputs": [
        {
          "internalType": "uint256",
          "name": "_feeAmt",
          "type": "uint256"
        }
      ],
      "stateMutability": "payable",
      "type": "function"
    },
    {
      "inputs": [
        {
          "internalType": "address",
          "name": "_account",
          "type": "address"
        },
        {
          "internalType": "address[]",
          "name": "_tokens",
          "type": "address[]"
        },
        {
          "internalType": "uint256[]",
          "name": "_USDT6Amts",
          "type": "uint256[]"
        },
        {
          "internalType": "uint256",
          "name": "_minterNonce",
          "type": "uint256"
        }
      ],
      "name": "depositByAgent",
      "outputs": [],
      "stateMutability": "nonpayable",
      "type": "function"
    },
    {
      "inputs": [
        {
          "internalType": "uint256",
          "name": "_gatheredAmount",
          "type": "uint256"
        },
        {
          "internalType": "bytes",
          "name": "_signature",
          "type": "bytes"
        }
      ],
      "name": "exitWithdrawal",
      "outputs": [
        {
          "internalType": "uint256",
          "name": "_feeAmt",
          "type": "uint256"
        }
      ],
      "stateMutability": "payable",
      "type": "function"
    },
    {
      "inputs": [
        {
          "internalType": "address",
          "name": "_account",
          "type": "address"
        }
      ],
      "name": "exitWithdrawalByAdmin",
      "outputs": [],
      "stateMutability": "nonpayable",
      "type": "function"
    },
    {
      "inputs": [
        {
          "internalType": "bytes4",
          "name": "",
          "type": "bytes4"
        }
      ],
      "name": "gasAmounts",
      "outputs": [
        {
          "internalType": "uint256",
          "name": "",
          "type": "uint256"
        }
      ],
      "stateMutability": "view",
      "type": "function"
    },
    {
      "inputs": [
        {
          "internalType": "uint256",
          "name": "",
          "type": "uint256"
        }
      ],
      "name": "gasCosts",
      "outputs": [
        {
          "internalType": "uint256",
          "name": "",
          "type": "uint256"
        }
      ],
      "stateMutability": "view",
      "type": "function"
    },
    {
      "inputs": [
        {
          "internalType": "uint256[]",
          "name": "_fromChainIds",
          "type": "uint256[]"
        },
        {
          "internalType": "enum BasicUserAgentBase.AdapterType[]",
          "name": "_adapterTypes",
          "type": "uint8[]"
        },
        {
          "internalType": "bytes",
          "name": "_signature",
          "type": "bytes"
        }
      ],
      "name": "gather",
      "outputs": [
        {
          "internalType": "uint256",
          "name": "_feeAmt",
          "type": "uint256"
        }
      ],
      "stateMutability": "payable",
      "type": "function"
    },
    {
      "inputs": [
        {
          "internalType": "address",
          "name": "_account",
          "type": "address"
        },
        {
          "internalType": "uint256",
          "name": "_toChainId",
          "type": "uint256"
        },
        {
          "internalType": "enum BasicUserAgentBase.AdapterType",
          "name": "_adapterType",
          "type": "uint8"
        }
      ],
      "name": "gatherByAdmin",
      "outputs": [],
      "stateMutability": "nonpayable",
      "type": "function"
    },
    {
      "inputs": [
        {
          "internalType": "bytes",
          "name": "message",
          "type": "bytes"
        }
      ],
      "name": "getMessageHashForSafe",
      "outputs": [
        {
          "internalType": "bytes32",
          "name": "",
          "type": "bytes32"
        }
      ],
      "stateMutability": "view",
      "type": "function"
    },
    {
      "inputs": [
        {
          "internalType": "bytes32",
          "name": "role",
          "type": "bytes32"
        }
      ],
      "name": "getRoleAdmin",
      "outputs": [
        {
          "internalType": "bytes32",
          "name": "",
          "type": "bytes32"
        }
      ],
      "stateMutability": "view",
      "type": "function"
    },
    {
      "inputs": [
        {
          "internalType": "bytes32",
          "name": "role",
          "type": "bytes32"
        },
        {
          "internalType": "uint256",
          "name": "index",
          "type": "uint256"
        }
      ],
      "name": "getRoleMember",
      "outputs": [
        {
          "internalType": "address",
          "name": "",
          "type": "address"
        }
      ],
      "stateMutability": "view",
      "type": "function"
    },
    {
      "inputs": [
        {
          "internalType": "bytes32",
          "name": "role",
          "type": "bytes32"
        }
      ],
      "name": "getRoleMemberCount",
      "outputs": [
        {
          "internalType": "uint256",
          "name": "",
          "type": "uint256"
        }
      ],
      "stateMutability": "view",
      "type": "function"
    },
    {
      "inputs": [
        {
          "internalType": "bytes32",
          "name": "role",
          "type": "bytes32"
        },
        {
          "internalType": "address",
          "name": "account",
          "type": "address"
        }
      ],
      "name": "grantRole",
      "outputs": [],
      "stateMutability": "nonpayable",
      "type": "function"
    },
    {
      "inputs": [
        {
          "internalType": "bytes32",
          "name": "role",
          "type": "bytes32"
        },
        {
          "internalType": "address",
          "name": "account",
          "type": "address"
        }
      ],
      "name": "hasRole",
      "outputs": [
        {
          "internalType": "bool",
          "name": "",
          "type": "bool"
        }
      ],
      "stateMutability": "view",
      "type": "function"
    },
    {
      "inputs": [],
      "name": "isLPChain",
      "outputs": [
        {
          "internalType": "bool",
          "name": "",
          "type": "bool"
        }
      ],
      "stateMutability": "view",
      "type": "function"
    },
    {
      "inputs": [
        {
          "internalType": "address",
          "name": "forwarder",
          "type": "address"
        }
      ],
      "name": "isTrustedForwarder",
      "outputs": [
        {
          "internalType": "bool",
          "name": "",
          "type": "bool"
        }
      ],
      "stateMutability": "view",
      "type": "function"
    },
    {
      "inputs": [
        {
          "internalType": "address",
          "name": "_account",
          "type": "address"
        },
        {
          "internalType": "bytes",
          "name": "_data",
          "type": "bytes"
        },
        {
          "internalType": "bytes",
          "name": "_signature",
          "type": "bytes"
        }
      ],
      "name": "isValidSignature",
      "outputs": [
        {
          "internalType": "bool",
          "name": "",
          "type": "bool"
        }
      ],
      "stateMutability": "view",
      "type": "function"
    },
    {
      "inputs": [
        {
          "internalType": "address",
          "name": "_token",
          "type": "address"
        },
        {
          "internalType": "uint256",
          "name": "_toChainId",
          "type": "uint256"
        },
        {
          "internalType": "enum BasicUserAgentBase.AdapterType",
          "name": "_adapterType",
          "type": "uint8"
        }
      ],
      "name": "minTransfer",
      "outputs": [
        {
          "internalType": "uint256",
          "name": "",
          "type": "uint256"
        }
      ],
      "stateMutability": "view",
      "type": "function"
    },
    {
      "inputs": [
        {
          "internalType": "uint256",
          "name": "_USDT6Amt",
          "type": "uint256"
        },
        {
          "internalType": "bytes",
          "name": "_signature",
          "type": "bytes"
        }
      ],
      "name": "mint",
      "outputs": [
        {
          "internalType": "uint256",
          "name": "_feeAmt",
          "type": "uint256"
        }
      ],
      "stateMutability": "payable",
      "type": "function"
    },
    {
      "inputs": [
        {
          "internalType": "address",
          "name": "_account",
          "type": "address"
        },
        {
          "internalType": "uint256",
          "name": "_USDT6Amt",
          "type": "uint256"
        }
      ],
      "name": "mintByAdmin",
      "outputs": [],
      "stateMutability": "nonpayable",
      "type": "function"
    },
    {
      "inputs": [],
      "name": "multichainAdapter",
      "outputs": [
        {
          "internalType": "contract IXChainAdapter",
          "name": "",
          "type": "address"
        }
      ],
      "stateMutability": "view",
      "type": "function"
    },
    {
      "inputs": [
        {
          "internalType": "address",
          "name": "",
          "type": "address"
        }
      ],
      "name": "nonces",
      "outputs": [
        {
          "internalType": "uint256",
          "name": "",
          "type": "uint256"
        }
      ],
      "stateMutability": "view",
      "type": "function"
    },
    {
      "inputs": [],
      "name": "owner",
      "outputs": [
        {
          "internalType": "address",
          "name": "",
          "type": "address"
        }
      ],
      "stateMutability": "view",
      "type": "function"
    },
    {
      "inputs": [],
      "name": "paused",
      "outputs": [
        {
          "internalType": "bool",
          "name": "",
          "type": "bool"
        }
      ],
      "stateMutability": "view",
      "type": "function"
    },
    {
      "inputs": [],
      "name": "renounceOwnership",
      "outputs": [],
      "stateMutability": "nonpayable",
      "type": "function"
    },
    {
      "inputs": [
        {
          "internalType": "bytes32",
          "name": "role",
          "type": "bytes32"
        },
        {
          "internalType": "address",
          "name": "account",
          "type": "address"
        }
      ],
      "name": "renounceRole",
      "outputs": [],
      "stateMutability": "nonpayable",
      "type": "function"
    },
    {
      "inputs": [
        {
          "internalType": "bytes32",
          "name": "role",
          "type": "bytes32"
        },
        {
          "internalType": "address",
          "name": "account",
          "type": "address"
        }
      ],
      "name": "revokeRole",
      "outputs": [],
      "stateMutability": "nonpayable",
      "type": "function"
    },
    {
      "inputs": [],
      "name": "subImpl",
      "outputs": [
        {
          "internalType": "address",
          "name": "",
          "type": "address"
        }
      ],
      "stateMutability": "view",
      "type": "function"
    },
    {
      "inputs": [
        {
          "internalType": "bytes4",
          "name": "interfaceId",
          "type": "bytes4"
        }
      ],
      "name": "supportsInterface",
      "outputs": [
        {
          "internalType": "bool",
          "name": "",
          "type": "bool"
        }
      ],
      "stateMutability": "view",
      "type": "function"
    },
    {
      "inputs": [
        {
          "internalType": "uint256",
          "name": "_gatheredAmount",
          "type": "uint256"
        },
        {
          "internalType": "bytes",
          "name": "_signature",
          "type": "bytes"
        }
      ],
      "name": "takeOut",
      "outputs": [],
      "stateMutability": "nonpayable",
      "type": "function"
    },
    {
      "inputs": [
        {
          "internalType": "uint256[]",
          "name": "_amounts",
          "type": "uint256[]"
        },
        {
          "internalType": "uint256[]",
          "name": "_toChainIds",
          "type": "uint256[]"
        },
        {
          "internalType": "enum BasicUserAgentBase.AdapterType[]",
          "name": "_adapterTypes",
          "type": "uint8[]"
        },
        {
          "internalType": "bytes",
          "name": "_signature",
          "type": "bytes"
        }
      ],
      "name": "transfer",
      "outputs": [
        {
          "internalType": "uint256",
          "name": "_feeAmt",
          "type": "uint256"
        }
      ],
      "stateMutability": "payable",
      "type": "function"
    },
    {
      "inputs": [
        {
          "internalType": "address",
          "name": "newOwner",
          "type": "address"
        }
      ],
      "name": "transferOwnership",
      "outputs": [],
      "stateMutability": "nonpayable",
      "type": "function"
    },
    {
      "inputs": [],
      "name": "treasuryWallet",
      "outputs": [
        {
          "internalType": "address",
          "name": "",
          "type": "address"
        }
      ],
      "stateMutability": "view",
      "type": "function"
    },
    {
      "inputs": [],
      "name": "trustedForwarder",
      "outputs": [
        {
          "internalType": "address",
          "name": "",
          "type": "address"
        }
      ],
      "stateMutability": "view",
      "type": "function"
    },
    {
      "inputs": [
        {
          "internalType": "address",
          "name": "",
          "type": "address"
        }
      ],
      "name": "usdcBalances",
      "outputs": [
        {
          "internalType": "uint256",
          "name": "",
          "type": "uint256"
        }
      ],
      "stateMutability": "view",
      "type": "function"
    },
    {
      "inputs": [
        {
          "internalType": "address",
          "name": "",
          "type": "address"
        }
      ],
      "name": "usdtBalances",
      "outputs": [
        {
          "internalType": "uint256",
          "name": "",
          "type": "uint256"
        }
      ],
      "stateMutability": "view",
      "type": "function"
    },
    {
      "inputs": [
        {
          "internalType": "uint256",
          "name": "",
          "type": "uint256"
        }
      ],
      "name": "userAgents",
      "outputs": [
        {
          "internalType": "address",
          "name": "",
          "type": "address"
        }
      ],
      "stateMutability": "view",
      "type": "function"
    },
    {
      "inputs": [],
      "name": "versionRecipient",
      "outputs": [
        {
          "internalType": "string",
          "name": "",
          "type": "string"
        }
      ],
      "stateMutability": "pure",
      "type": "function"
    },
    {
      "inputs": [
        {
          "internalType": "uint256[]",
          "name": "_chainIds",
          "type": "uint256[]"
        },
        {
          "internalType": "uint256",
          "name": "_sharePerc",
          "type": "uint256"
        },
        {
          "internalType": "uint256",
          "name": "_minterNonce",
          "type": "uint256"
        },
        {
          "internalType": "bytes",
          "name": "_signature",
          "type": "bytes"
        }
      ],
      "name": "withdraw",
      "outputs": [
        {
          "internalType": "uint256",
          "name": "_feeAmt",
          "type": "uint256"
        }
      ],
      "stateMutability": "payable",
      "type": "function"
    },
    {
      "inputs": [
        {
          "internalType": "address",
          "name": "_account",
          "type": "address"
        },
        {
          "internalType": "uint256",
          "name": "_sharePerc",
          "type": "uint256"
        },
        {
          "internalType": "uint256",
          "name": "_minterNonce",
          "type": "uint256"
        }
      ],
      "name": "withdrawPercByAgent",
      "outputs": [],
      "stateMutability": "nonpayable",
      "type": "function"
    },
    {
      "stateMutability": "payable",
      "type": "receive"
    }
  ],
  "transactionHash": "0x7150598667d2e73d3d89a87793a35e3b2d50d6da99cd9711999421ad0081396f",
  "args": [],
  "numDeployments": 7,
  "solcInputHash": "04842d089792fcf0727a890f678740e1",
  "bytecode": "0x608060405234801561001057600080fd5b50614f65806100206000396000f3fe60806040526004361061031e5760003560e01c80637ecebe00116101ab578063c7205bce116100f7578063e629f7b311610095578063f2fde38b1161006f578063f2fde38b146109d4578063f77de486146109f4578063f7bb364c14610a14578063f851a44014610a2f57600080fd5b8063e629f7b31461095d578063e9e81a6a1461097d578063f2ea16181461099d57600080fd5b8063d547741f116100d1578063d547741f146108e4578063d843a40014610904578063db7fd4081461092a578063e4ebcbd01461093d57600080fd5b8063c7205bce14610891578063ca15c873146108b1578063d1dbbc60146108d157600080fd5b80639010d07c11610164578063a217fddf1161013e578063a217fddf1461080d578063a99c68c514610822578063af3da2f414610850578063c54e44eb1461087057600080fd5b80639010d07c146107ba578063918f1a5c146107da57806391d14854146107ed57600080fd5b80637ecebe001461071357806380a5a37114610741578063847627391461075457806386355d961461076757806389a302711461077a5780638da5cb5b1461079b57600080fd5b80634626402b1161026a5780635c975abb116102235780636e5677ce116101fd5780636e5677ce146106875780636ebf33ce146106a7578063715018a6146106de5780637da0a877146106f357600080fd5b80635c975abb1461063b57806363032feb146106535780636687977f1461067457600080fd5b80634626402b1461054c578063486ff0cd1461056d578063572b6c051461059d57806357cdd7f9146105cc578063582489cb146105ed578063582712b11461061b57600080fd5b80631a5787d8116102d75780632f2ff15d116102b15780632f2ff15d146104a057806336568abe146104c057806339dacedb146104e0578063407a2e981461051e57600080fd5b80631a5787d814610437578063248a9ca31461044e57806328054fb71461047e57600080fd5b8063013dee701461032a57806301ffc9a71461036857806302a882e6146103985780630c3a1821146103c8578063187f3c54146103e9578063194630931461041757600080fd5b3661032557005b600080fd5b34801561033657600080fd5b506101955461034b906001600160a01b031681565b6040516001600160a01b0390911681526020015b60405180910390f35b34801561037457600080fd5b50610388610383366004614018565b610a50565b604051901515815260200161035f565b3480156103a457600080fd5b506103ba600080516020614f1083398151915281565b60405190815260200161035f565b3480156103d457600080fd5b506101665461034b906001600160a01b031681565b3480156103f557600080fd5b506103ba610404366004614042565b61016c6020526000908152604090205481565b34801561042357600080fd5b506103ba610432366004614110565b610a7b565b34801561044357600080fd5b506103ba6101925481565b34801561045a57600080fd5b506103ba610469366004614042565b60009081526097602052604090206001015490565b34801561048a57600080fd5b5061049e61049936600461416d565b610ac7565b005b3480156104ac57600080fd5b5061049e6104bb3660046141ab565b610edc565b3480156104cc57600080fd5b5061049e6104db3660046141ab565b610f06565b3480156104ec57600080fd5b506105116104fb366004614042565b61016a6020526000908152604090205460ff1681565b60405161035f9190614213565b34801561052a57600080fd5b506103ba610539366004614018565b61016b6020526000908152604090205481565b34801561055857600080fd5b5061016d5461034b906001600160a01b031681565b34801561057957600080fd5b5060408051808201825260018152603160f81b6020820152905161035f9190614279565b3480156105a957600080fd5b506103886105b836600461428c565b6000546001600160a01b0391821691161490565b3480156105d857600080fd5b506101675461034b906001600160a01b031681565b3480156105f957600080fd5b506103ba61060836600461428c565b6101656020526000908152604090205481565b34801561062757600080fd5b5061049e61063636600461439b565b610f94565b34801561064757600080fd5b5060fb5460ff16610388565b34801561065f57600080fd5b506101945461034b906001600160a01b031681565b6103ba610682366004614460565b61101c565b34801561069357600080fd5b5061049e6106a23660046144dd565b611119565b3480156106b357600080fd5b5061034b6106c2366004614042565b610169602052600090815260409020546001600160a01b031681565b3480156106ea57600080fd5b5061049e6111fb565b3480156106ff57600080fd5b5060005461034b906001600160a01b031681565b34801561071f57600080fd5b506103ba61072e36600461428c565b6101606020526000908152604090205481565b6103ba61074f366004614528565b611281565b6103ba6107623660046144dd565b611438565b6103ba61077536600461457a565b6115fd565b34801561078657600080fd5b506101625461034b906001600160a01b031681565b3480156107a757600080fd5b5061012d546001600160a01b031661034b565b3480156107c657600080fd5b5061034b6107d5366004614636565b611706565b6103ba6107e83660046146ba565b611725565b3480156107f957600080fd5b506103886108083660046141ab565b61177a565b34801561081957600080fd5b506103ba600081565b34801561082e57600080fd5b506103ba61083d36600461428c565b6101646020526000908152604090205481565b34801561085c57600080fd5b5061049e61086b366004614738565b6117a5565b34801561087c57600080fd5b506101635461034b906001600160a01b031681565b34801561089d57600080fd5b506103886108ac366004614764565b61182f565b3480156108bd57600080fd5b506103ba6108cc366004614042565b6119ae565b6103ba6108df3660046147ad565b6119c5565b3480156108f057600080fd5b5061049e6108ff3660046141ab565b611ad5565b34801561091057600080fd5b506101935461034b9061010090046001600160a01b031681565b6103ba6109383660046144dd565b611afa565b34801561094957600080fd5b506103ba61095836600461416d565b611c9e565b34801561096957600080fd5b5061049e610978366004614842565b611dc7565b34801561098957600080fd5b5061049e610998366004614842565b611e50565b3480156109a957600080fd5b5061034b6109b8366004614042565b610168602052600090815260409020546001600160a01b031681565b3480156109e057600080fd5b5061049e6109ef36600461428c565b611e87565b348015610a0057600080fd5b5061049e610a0f36600461428c565b611f72565b348015610a2057600080fd5b50610193546103889060ff1681565b348015610a3b57600080fd5b5061015f5461034b906001600160a01b031681565b60006001600160e01b03198216635a05180f60e01b1480610a755750610a7582611ff4565b92915050565b805160209182012060015460408051601960f81b81860152600160f81b602182015260228101929092526042808301939093528051808303909301835260629091019052805191012090565b600080516020614f10833981519152610adf81612029565b6001600160a01b038416600090815261016560205260409020548015610ed557600084815261016960205260409020546001600160a01b031680610b5f5760405162461bcd60e51b8152602060048201526012602482015271125b9d985b1a59081d5cd95c881859d95b9d60721b60448201526064015b60405180910390fd5b604080516001808252818301909252600091602080830190803683370190505090508281600081518110610b9557610b95614877565b60209081029190910101526040805160018082528183019092526000918160200160208202803683370190505090508681600081518110610bd857610bd8614877565b60209081029190910101526040805160018082528183019092526000918160200160208202803683370190505090508381600081518110610c1b57610c1b614877565b6001600160a01b0392909216602092830291909101909101526040805160018082528183019092526000918160200160208202803683370190505090508781600081518110610c6c57610c6c614877565b60200260200101906001811115610c8557610c856141db565b90816001811115610c9857610c986141db565b90525061016354600090610cbe908c906001600160a01b0316878787876001888161203a565b506101615461016354604051631d1c6b8360e11b81526001600160a01b03918216600482015260248101849052929350600092911690633a38d7069060440160206040518083038186803b158015610d1557600080fd5b505afa158015610d29573d6000803e3d6000fd5b505050506040513d601f19601f82011682018060405250810190610d4d919061488d565b61016354909150610d68906001600160a01b03168c8c611c9e565b610d7290826148bc565b881115610e91576101615461016354604051632f66c82160e21b81526000926001600160a01b039081169263bd9b208492610db79290911690869088906004016148d4565b602060405180830381600087803b158015610dd157600080fd5b505af1158015610de5573d6000803e3d6000fd5b505050506040513d601f19601f82011682018060405250810190610e09919061488d565b9050610e15818a6148f5565b87600081518110610e2857610e28614877565b602002602001018181525050600061016560008f6001600160a01b03166001600160a01b0316815260200190815260200160002081905550610e898d61016360009054906101000a90046001600160a01b03168989898960018a600061203a565b505050610ecd565b7f9a3d91c3be9db46fe3f28c6af2323ca43270ddc311fff0246a27ff41eb5a39ba8c8983604051610ec4939291906148d4565b60405180910390a15b505050505050505b5050505050565b600082815260976020526040902060010154610ef781612029565b610f018383612099565b505050565b610f0e6120bb565b6001600160a01b0316816001600160a01b031614610f865760405162461bcd60e51b815260206004820152602f60248201527f416363657373436f6e74726f6c3a2063616e206f6e6c792072656e6f756e636560448201526e103937b632b9903337b91039b2b63360891b6064820152608401610b56565b610f9082826120ca565b5050565b600080516020614f10833981519152610fac81612029565b6101945460405163582712b160e01b81526001600160a01b039091169063582712b190610fe3908890889088908890600401614980565b600060405180830381600087803b158015610ffd57600080fd5b505af1158015611011573d6000803e3d6000fd5b505050505050505050565b6000806110276120bb565b6001600160a01b0381166000908152610160602090815260409182902054915192935034926110819161106491869185918e918e918e91016149ed565b6040516020818303038152906040528051906020012087876120ec565b6000805b8a518110156110d6576110b4858c83815181106110a4576110a4614877565b60200260200101518c8c88612160565b945091506110c282876148bc565b9550806110ce81614a26565b915050611085565b506110e28260016148bc565b6001600160a01b03851660009081526101606020526040902055821561110c5761110c8484612198565b5050505095945050505050565b60006111236120bb565b6001600160a01b0381166000908152610160602090815260409182902054915192935090916111799161115c91859185918a9101614a41565b6040516020818303038152906040528051906020012085856120ec565b6001600160a01b0382166000908152610165602052604081205461119d90876148bc565b6001600160a01b0380851660009081526101656020526040812055610163549192506111cb9116848361224b565b6111d68260016148bc565b6001600160a01b03909316600090815261016060205260409020929092555050505050565b6112036120bb565b6001600160a01b031661121f61012d546001600160a01b031690565b6001600160a01b0316146112755760405162461bcd60e51b815260206004820181905260248201527f4f776e61626c653a2063616c6c6572206973206e6f7420746865206f776e65726044820152606401610b56565b61127f60006122ae565b565b60008061128c6120bb565b6001600160a01b038116600090815261016060209081526040918290205491516bffffffffffffffffffffffff19606085901b169181019190915260348101829052605481018990526074810188905291925034916112ed90609401611064565b6101935460ff1615611369576101935460405163e629f7b360e01b81526101009091046001600160a01b03169063e629f7b3906113329086908c908c906004016148d4565b600060405180830381600087803b15801561134c57600080fd5b505af1158015611360573d6000803e3d6000fd5b505050506113f8565b600063e629f7b360e01b848a8a604051602401611388939291906148d4565b60408051601f19818403018152918152602080830180516001600160e01b03166001600160e01b031990951694909417909352610192546000818152610169909452908320549193506113f19290916001600160a01b0316908463e629f7b360e01b8883612301565b9095509250505b6114038160016148bc565b6001600160a01b03841660009081526101606020526040902055811561142d5761142d8383612198565b505050949350505050565b6000806114436120bb565b6001600160a01b03811660009081526101606020908152604091829020549151929350349261147c9161106491869185918c9101614a41565b6101935460ff16156114f35761019354604051637bbef24360e11b81526001600160a01b0385811660048301526101009092049091169063f77de48690602401600060405180830381600087803b1580156114d657600080fd5b505af11580156114ea573d6000803e3d6000fd5b5050505061156b565b604080516001600160a01b038581166024808401919091528351808403909101815260449092018352602080830180516001600160e01b0316637bbef24360e11b17905261019254600081815261016990925293812054929361156493909216908463117481fb60e21b8883612301565b9095509250505b6001600160a01b0383166000908152610165602052604081205461158f90896148bc565b6001600160a01b0380861660009081526101656020526040812055610163549192506115bd9116858361224b565b6115c88260016148bc565b6001600160a01b0385166000908152610160602052604090205582156115f2576115f28484612198565b505050509392505050565b600061160b60fb5460ff1690565b156116285760405162461bcd60e51b8152600401610b5690614a6b565b60006116326120bb565b6001600160a01b0381166000908152610160602090815260409182902054915192935034926116719161106491869185918f918f918f918f9101614a95565b60008060006116838d8d8d6000612516565b915091505b8151156116c15761169b86838c8861272a565b955092506116a983886148bc565b96506116b78d8d8d84612516565b9092509050611688565b6116cc8460016148bc565b6001600160a01b0387166000908152610160602052604090205584156116f6576116f68686612198565b5050505050509695505050505050565b600082815260c96020526040812061171e908361275c565b9392505050565b6000806117306120bb565b6001600160a01b03811660009081526101606020908152604091829020549151929350349261176b9161106491869185918d918d9101614b37565b600093506114038160016148bc565b60009182526097602090815260408084206001600160a01b0393909316845291905290205460ff1690565b600080516020614f108339815191526117bd81612029565b61019354604051632bcf68bd60e21b81526001600160a01b038581166004830152602482018590526101009092049091169063af3da2f490604401600060405180830381600087803b15801561181257600080fd5b505af1158015611826573d6000803e3d6000fd5b50505050505050565b60008061183b85610a7b565b90506001600160a01b0386163b156118975761188f86828787878080601f01602080910402602001604051908101604052809392919081815260200183838082843760009201919091525061276892505050565b9150506119a6565b60008060006118db87878080601f01602080910402602001604051908101604052809392919081815260200183838082843760009201829052509250612804915050565b6040517f19457468657265756d205369676e6564204d6573736167653a0a3332000000006020820152603c81018890529295509093509150600090605c0160408051601f198184030181528282528051602091820120600080855291840180845281905260ff88169284019290925260608301869052608083018590529092509060019060a0016020604051602081039080840390855afa158015611984573d6000803e3d6000fd5b5050604051601f1901516001600160a01b038d81169116149750505050505050505b949350505050565b600081815260c960205260408120610a7590612822565b60006119d360fb5460ff1690565b156119f05760405162461bcd60e51b8152600401610b5690614a6b565b60006119fa6120bb565b6001600160a01b038116600090815261016060209081526040918290205491519293503492611a379161106491869185918e918e918e9101614b65565b6000805b8a51811015611a7d578a8181518110611a5657611a56614877565b602002602001015182611a6991906148bc565b915080611a7581614a26565b915050611a3b565b5061016354611a97906001600160a01b031685308461282c565b6001600160a01b0384166000908152610165602052604081208054839290611ac09084906148bc565b90915550600095506110e290508260016148bc565b600082815260976020526040902060010154611af081612029565b610f0183836120ca565b6000611b0860fb5460ff1690565b15611b255760405162461bcd60e51b8152600401610b5690614a6b565b6000611b2f6120bb565b6001600160a01b038116600090815261016060209081526040918290205491519293503492611b689161106491869185918c9101614a41565b6101935460ff1615611be65761019354604051632bcf68bd60e21b81526001600160a01b038581166004830152602482018a90526101009092049091169063af3da2f490604401600060405180830381600087803b158015611bc957600080fd5b505af1158015611bdd573d6000803e3d6000fd5b50505050611c5f565b604080516001600160a01b03858116602483015260448083018b90528351808403909101815260649092018352602080830180516001600160e01b0316632bcf68bd60e21b908117909152610192546000818152610169909352948220549394611c5894909316919085908883612301565b9095509250505b611c6a8160016148bc565b6001600160a01b038416600090815261016060205260409020558115611c9457611c948383612198565b5050509392505050565b600080826001811115611cb357611cb36141db565b14611d425761016754604051632bdb981960e11b81526001600160a01b03868116600483015260248201869052909116906357b730329060440160206040518083038186803b158015611d0557600080fd5b505afa158015611d19573d6000803e3d6000fd5b505050506040513d601f19601f82011682018060405250810190611d3d919061488d565b6119a6565b61016654604051632bdb981960e11b81526001600160a01b03868116600483015260248201869052909116906357b730329060440160206040518083038186803b158015611d8f57600080fd5b505afa158015611da3573d6000803e3d6000fd5b505050506040513d601f19601f820116820180604052508101906119a6919061488d565b600080516020614f10833981519152611ddf81612029565b6101935460405163e629f7b360e01b81526101009091046001600160a01b03169063e629f7b390611e18908790879087906004016148d4565b600060405180830381600087803b158015611e3257600080fd5b505af1158015611e46573d6000803e3d6000fd5b5050505050505050565b600080516020614f10833981519152611e6881612029565b61019454611e81906001600160a01b0316858585612864565b50505050565b611e8f6120bb565b6001600160a01b0316611eab61012d546001600160a01b031690565b6001600160a01b031614611f015760405162461bcd60e51b815260206004820181905260248201527f4f776e61626c653a2063616c6c6572206973206e6f7420746865206f776e65726044820152606401610b56565b6001600160a01b038116611f665760405162461bcd60e51b815260206004820152602660248201527f4f776e61626c653a206e6577206f776e657220697320746865207a65726f206160448201526564647265737360d01b6064820152608401610b56565b611f6f816122ae565b50565b600080516020614f10833981519152611f8a81612029565b61019354604051637bbef24360e11b81526001600160a01b0384811660048301526101009092049091169063f77de48690602401600060405180830381600087803b158015611fd857600080fd5b505af1158015611fec573d6000803e3d6000fd5b505050505050565b60006001600160e01b03198216637965db0b60e01b1480610a7557506301ffc9a760e01b6001600160e01b0319831614610a75565b611f6f816120356120bb565b612a03565b6000828161204b8a8a8a8a8a612a67565b90508315801561205c575080515115155b1561206c5761206c8c8c83612f73565b6060810151511561208a576120848c8c8385886130b6565b90935091505b50995099975050505050505050565b6120a382826131ed565b600082815260c960205260409020610f019082613274565b60006120c5613289565b905090565b6120d482826132bd565b600082815260c960205260409020610f019082613342565b61015f546040805160208101869052612120926001600160a01b03169101604051602081830303815290604052848461182f565b610f015760405162461bcd60e51b8152602060048201526011602482015270496e76616c6964207369676e617475726560781b6044820152606401610b56565b600081468614156121895761019454612184906001600160a01b0316888787612864565b61218e565b600091505b9550959350505050565b604080516000808252602082019092526001600160a01b0384169083906040516121c29190614b96565b60006040518083038185875af1925050503d80600081146121ff576040519150601f19603f3d011682016040523d82523d6000602084013e612204565b606091505b5050905080610f015760405162461bcd60e51b8152602060048201526013602482015272115512081d1c985b9cd9995c8819985a5b1959606a1b6044820152606401610b56565b6040516001600160a01b038316602482015260448101829052610f0190849063a9059cbb60e01b906064015b60408051601f198184030181529190526020810180516001600160e01b03166001600160e01b031990931692909217909152613357565b61012d80546001600160a01b038381166001600160a01b0319831681179093556040519116919082907f8be0079c531659141344cd1fd0a4f28419497f9722a3daafe3b4186f6b6457e090600090a35050565b6000826001600160a01b0388166123535760405162461bcd60e51b8152602060048201526016602482015275125b9d985b1a59081d185c99d95d10dbdb9d1c9858dd60521b6044820152606401610b56565b60008060008b815261016a602052604090205460ff16600181111561237a5761237a6141db565b1461239157610167546001600160a01b031661239f565b610166546001600160a01b03165b90506000816001600160a01b031663bebc4f718c8c8c8c6040518563ffffffff1660e01b81526004016123d59493929190614bb2565b60206040518083038186803b1580156123ed57600080fd5b505afa158015612401573d6000803e3d6000fd5b505050506040513d601f19601f82011682018060405250810190612425919061488d565b610167549094508491506001600160a01b03838116911614156124835760008b815261016c60209081526040808320546001600160e01b03198b16845261016b909252909120546124769190614bdf565b61248090856148bc565b93505b841580156124915750838310155b15612508576124a084846148f5565b9250816001600160a01b03166377cae758828d8d8d8d6040518663ffffffff1660e01b81526004016124d59493929190614bb2565b6000604051808303818588803b1580156124ee57600080fd5b505af1158015612502573d6000803e3d6000fd5b50505050505b505097509795505050505050565b61253a60405180606001604052806000815260200160608152602001606081525090565b60008060608082865b8a518110156125b75784612572578a818151811061256357612563614877565b60200260200101519450612597565b8a818151811061258457612584614877565b60200260200101518514612597576125b7565b816125a181614a26565b92505080806125af90614a26565b915050612543565b506125c281886148bc565b9450801561270557806001600160401b038111156125e2576125e261405b565b60405190808252806020026020018201604052801561260b578160200160208202803683370190505b509250806001600160401b038111156126265761262661405b565b60405190808252806020026020018201604052801561264f578160200160208202803683370190505b50915060009050865b858110156127035789818151811061267257612672614877565b602002602001015184838151811061268c5761268c614877565b60200260200101906001600160a01b031690816001600160a01b0316815250508881815181106126be576126be614877565b60200260200101518383815181106126d8576126d8614877565b6020908102919091010152816126ed81614a26565b92505080806126fb90614a26565b915050612658565b505b5060408051606081018252938452602084019290925290820152969095509350505050565b600080468551141561274c5761274286868686613429565b9092509050612753565b5060009050815b94509492505050565b600061171e83836136b9565b600080856001600160a01b031663e75235b86040518163ffffffff1660e01b815260040160206040518083038186803b1580156127a457600080fd5b505afa1580156127b8573d6000803e3d6000fd5b505050506040513d601f19601f820116820180604052508101906127dc919061488d565b9050806127ed5760009150506119a6565b6127fa86868686856136e3565b9695505050505050565b60419081029190910160208101516040820151919092015160ff1692565b6000610a75825490565b6040516001600160a01b0380851660248301528316604482015260648101829052611e819085906323b872dd60e01b90608401612277565b610163546040516370a0823160e01b81523060048201526000916001600160a01b0316906370a082319060240160206040518083038186803b1580156128a957600080fd5b505afa1580156128bd573d6000803e3d6000fd5b505050506040513d601f19601f820116820180604052508101906128e1919061488d565b6040516374f40d3560e11b81529091506001600160a01b0386169063e9e81a6a90612914908790879087906004016148d4565b600060405180830381600087803b15801561292e57600080fd5b505af1158015612942573d6000803e3d6000fd5b5050610163546040516370a0823160e01b81523060048201528493506001600160a01b0390911691506370a082319060240160206040518083038186803b15801561298c57600080fd5b505afa1580156129a0573d6000803e3d6000fd5b505050506040513d601f19601f820116820180604052508101906129c4919061488d565b6129ce91906148f5565b6001600160a01b03851660009081526101656020526040812080549091906129f79084906148bc565b90915550505050505050565b612a0d828261177a565b610f9057612a25816001600160a01b0316601461393f565b612a3083602061393f565b604051602001612a41929190614bfe565b60408051601f198184030181529082905262461bcd60e51b8252610b5691600401614279565b612aa06040518060c001604052806060815260200160608152602001606081526020016060815260200160608152602001606081525090565b60008060005b84811015612b46576000868281518110612ac257612ac2614877565b60200260200101516001811115612adb57612adb6141db565b1415612af35782612aeb81614a26565b935050612b34565b6001868281518110612b0757612b07614877565b60200260200101516001811115612b2057612b206141db565b1415612b345781612b3081614a26565b9250505b80612b3e81614a26565b915050612aa6565b506040518060c00160405280836001600160401b03811115612b6a57612b6a61405b565b604051908082528060200260200182016040528015612b93578160200160208202803683370190505b508152602001836001600160401b03811115612bb157612bb161405b565b604051908082528060200260200182016040528015612bda578160200160208202803683370190505b508152602001836001600160401b03811115612bf857612bf861405b565b604051908082528060200260200182016040528015612c21578160200160208202803683370190505b508152602001826001600160401b03811115612c3f57612c3f61405b565b604051908082528060200260200182016040528015612c68578160200160208202803683370190505b508152602001826001600160401b03811115612c8657612c8661405b565b604051908082528060200260200182016040528015612caf578160200160208202803683370190505b508152602001826001600160401b03811115612ccd57612ccd61405b565b604051908082528060200260200182016040528015612cf6578160200160208202803683370190505b509052925060009150819050805b84811015612f67576000868281518110612d2057612d20614877565b60200260200101516001811115612d3957612d396141db565b1415612e1157888181518110612d5157612d51614877565b602002602001015184600001518481518110612d6f57612d6f614877565b602002602001018181525050878181518110612d8d57612d8d614877565b602002602001015184602001518481518110612dab57612dab614877565b602002602001018181525050868181518110612dc957612dc9614877565b602002602001015184604001518481518110612de757612de7614877565b6001600160a01b039092166020928302919091019091015282612e0981614a26565b935050612f55565b6001868281518110612e2557612e25614877565b60200260200101516001811115612e3e57612e3e6141db565b1415612f1657888181518110612e5657612e56614877565b602002602001015184606001518381518110612e7457612e74614877565b602002602001018181525050878181518110612e9257612e92614877565b602002602001015184608001518381518110612eb057612eb0614877565b602002602001018181525050868181518110612ece57612ece614877565b60200260200101518460a001518381518110612eec57612eec614877565b6001600160a01b039092166020928302919091019091015281612f0e81614a26565b925050612f55565b60405162461bcd60e51b8152602060048201526014602482015273496e76616c69642061646170746572207479706560601b6044820152606401610b56565b80612f5f81614a26565b915050612d04565b50505095945050505050565b80518051610166546020840151604080860151905163219d5ca560e01b815293946001600160a01b039093169363219d5ca593612fb99389939192909190600401614c73565b600060405180830381600087803b158015612fd357600080fd5b505af1158015612fe7573d6000803e3d6000fd5b505050506000612ff44690565b905060005b82811015611fec578360200151818151811061301757613017614877565b60200260200101518460000151828151811061303557613035614877565b6020026020010151876001600160a01b03167f3ba03e6b4cb24f75ab77e3b8fb7ea0a24af301c15f5fb5709dd68c396048881588868960400151878151811061308057613080614877565b602002602001015160008060405161309c959493929190614cbd565b60405180910390a4806130ae81614a26565b915050612ff9565b6060830151516101675460408051633b11ca5160e01b8152905160009386939092859284926001600160a01b031691633b11ca51916004808301926020929190829003018186803b15801561310a57600080fd5b505afa15801561311e573d6000803e3d6000fd5b505050506040513d601f19601f82011682018060405250810190613142919061488d565b61314c9190614bdf565b46600090815261016c602090815260408220546305e5a4c160e11b90925261016b90527f2d70e6734fd5e0405ac12bd06c0e35dc8bbf9b8fc8cb72137e2af4c27ee117015491925083916131a09190614bdf565b6131aa9190614bdf565b6131b490826148bc565b9350841580156131c45750838310155b156131e1576131d384846148f5565b92506131e189898984613ada565b50509550959350505050565b6131f7828261177a565b610f905760008281526097602090815260408083206001600160a01b03851684529091529020805460ff191660011790556132306120bb565b6001600160a01b0316816001600160a01b0316837f2f8788117e7eff1d82e926ec794901d17c78024a50270940304540a733656f0d60405160405180910390a45050565b600061171e836001600160a01b038416613cdd565b6000601836108015906132a657506000546001600160a01b031633145b156132b8575060131936013560601c90565b503390565b6132c7828261177a565b15610f905760008281526097602090815260408083206001600160a01b03851684529091529020805460ff191690556132fe6120bb565b6001600160a01b0316816001600160a01b0316837ff6391f5c32d9c69d2a47ea670b442974b53935d1edc7fd64eb21e047a839171b60405160405180910390a45050565b600061171e836001600160a01b038416613d2c565b60006133ac826040518060400160405280602081526020017f5361666545524332303a206c6f772d6c6576656c2063616c6c206661696c6564815250856001600160a01b0316613e1f9092919063ffffffff16565b805190915015610f0157808060200190518101906133ca9190614cf9565b610f015760405162461bcd60e51b815260206004820152602a60248201527f5361666545524332303a204552433230206f7065726174696f6e20646964206e6044820152691bdd081cdd58d8d9595960b21b6064820152608401610b56565b600081468551141561361b576001600160a01b0386166000908152610165602052604081205490805b87604001515181101561349c578760400151818151811061347557613475614877565b60200260200101518261348891906148bc565b91508061349481614a26565b915050613452565b50610163546040805163313ce56760e01b815290516006926001600160a01b03169163313ce567916004808301926020929190829003018186803b1580156134e357600080fd5b505afa1580156134f7573d6000803e3d6000fd5b505050506040513d601f19601f8201168201806040525081019061351b9190614d1b565b6135259190614d3e565b61353090600a614e45565b61353a9082614bdf565b9050808210156135835760405162461bcd60e51b8152602060048201526014602482015273496e73756666696369656e742062616c616e636560601b6044820152606401610b56565b61358d81836148f5565b6001600160a01b03808a16600090815261016560209081526040918290209390935561019454928a01518a820151915163582712b160e01b8152939092169263582712b1926135e2928d928c90600401614980565b600060405180830381600087803b1580156135fc57600080fd5b505af1158015613610573d6000803e3d6000fd5b505050505050612753565b600063582712b160e01b8787602001518860400151886040516024016136449493929190614980565b60408051601f19818403018152918152602080830180516001600160e01b03166001600160e01b03199095169490941790935288516000818152610169909452908320549193506136ab9290916001600160a01b031690846372f0cbbb60e11b8783612301565b909890975095505050505050565b60008260000182815481106136d0576136d0614877565b9060005260206000200154905092915050565b60006136f0826041614bdf565b8351101561370057506000613936565b600080876001600160a01b031663a0e67e2b6040518163ffffffff1660e01b815260040160006040518083038186803b15801561373c57600080fd5b505afa158015613750573d6000803e3d6000fd5b505050506040513d6000823e601f3d908101601f191682016040526137789190810190614e54565b905060008080805b8781101561392b5760418181028a0160208101516040820151919092015160ff16955090935091508361385b5791945084916137bd886041614bdf565b8210156137d35760009650505050505050613936565b88516137e08360206148bc565b11156137f55760009650505050505050613936565b6020828a018101518a519091829061380e9086906148bc565b61381891906148bc565b111561382e576000975050505050505050613936565b89830160200161383f888d83613e2e565b61385457600098505050505050505050613936565b50506138fc565b6040517f19457468657265756d205369676e6564204d6573736167653a0a3332000000006020820152603c81018c9052600190605c0160408051601f198184030181528282528051602091820120600084529083018083525260ff871690820152606081018590526080810184905260a0016020604051602081039080840390855afa1580156138ef573d6000803e3d6000fd5b5050506020604051035195505b6139068587613e48565b6139195760009650505050505050613936565b8061392381614a26565b915050613780565b600196505050505050505b95945050505050565b6060600061394e836002614bdf565b6139599060026148bc565b6001600160401b038111156139705761397061405b565b6040519080825280601f01601f19166020018201604052801561399a576020820181803683370190505b509050600360fc1b816000815181106139b5576139b5614877565b60200101906001600160f81b031916908160001a905350600f60fb1b816001815181106139e4576139e4614877565b60200101906001600160f81b031916908160001a9053506000613a08846002614bdf565b613a139060016148bc565b90505b6001811115613a8b576f181899199a1a9b1b9c1cb0b131b232b360811b85600f1660108110613a4757613a47614877565b1a60f81b828281518110613a5d57613a5d614877565b60200101906001600160f81b031916908160001a90535060049490941c93613a8481614ee2565b9050613a16565b50831561171e5760405162461bcd60e51b815260206004820181905260248201527f537472696e67733a20686578206c656e67746820696e73756666696369656e746044820152606401610b56565b610167546040805163057ff68760e51b815290516000926001600160a01b03169163affed0e0916004808301926020929190829003018186803b158015613b2057600080fd5b505afa158015613b34573d6000803e3d6000fd5b505050506040513d601f19601f82011682018060405250810190613b58919061488d565b610167546060850151608086015160a087015160405163219d5ca560e01b81529495506001600160a01b039093169363219d5ca5938793613ba1938b9391929091600401614c73565b6000604051808303818588803b158015613bba57600080fd5b505af1158015613bce573d6000803e3d6000fd5b50505050506000613bdc4690565b905060005b846060015151811015611826576000613bfa82856148bc565b60008181526101686020526040902080546001600160a01b0319166001600160a01b038b16179055608087015180519192509083908110613c3d57613c3d614877565b602002602001015186606001518381518110613c5b57613c5b614877565b6020026020010151896001600160a01b03167f3ba03e6b4cb24f75ab77e3b8fb7ea0a24af301c15f5fb5709dd68c39604888158a878b60a001518881518110613ca657613ca6614877565b6020026020010151600188604051613cc2959493929190614cbd565b60405180910390a45080613cd581614a26565b915050613be1565b6000818152600183016020526040812054613d2457508154600181810184556000848152602080822090930184905584548482528286019093526040902091909155610a75565b506000610a75565b60008181526001830160205260408120548015613e15576000613d506001836148f5565b8554909150600090613d64906001906148f5565b9050818114613dc9576000866000018281548110613d8457613d84614877565b9060005260206000200154905080876000018481548110613da757613da7614877565b6000918252602080832090910192909255918252600188019052604090208390555b8554869080613dda57613dda614ef9565b600190038181906000526020600020016000905590558560010160008681526020019081526020016000206000905560019350505050610a75565b6000915050610a75565b60606119a68484600085613eae565b600080613e3a84610a7b565b905061393685828686612768565b6000805b8351811015613ea457826001600160a01b0316848281518110613e7157613e71614877565b60200260200101516001600160a01b03161415613e92576001915050610a75565b80613e9c81614a26565b915050613e4c565b5060009392505050565b606082471015613f0f5760405162461bcd60e51b815260206004820152602660248201527f416464726573733a20696e73756666696369656e742062616c616e636520666f6044820152651c8818d85b1b60d21b6064820152608401610b56565b6001600160a01b0385163b613f665760405162461bcd60e51b815260206004820152601d60248201527f416464726573733a2063616c6c20746f206e6f6e2d636f6e74726163740000006044820152606401610b56565b600080866001600160a01b03168587604051613f829190614b96565b60006040518083038185875af1925050503d8060008114613fbf576040519150601f19603f3d011682016040523d82523d6000602084013e613fc4565b606091505b5091509150613fd4828286613fdf565b979650505050505050565b60608315613fee57508161171e565b825115613ffe5782518084602001fd5b8160405162461bcd60e51b8152600401610b569190614279565b60006020828403121561402a57600080fd5b81356001600160e01b03198116811461171e57600080fd5b60006020828403121561405457600080fd5b5035919050565b634e487b7160e01b600052604160045260246000fd5b604051601f8201601f191681016001600160401b03811182821017156140995761409961405b565b604052919050565b600082601f8301126140b257600080fd5b81356001600160401b038111156140cb576140cb61405b565b6140de601f8201601f1916602001614071565b8181528460208386010111156140f357600080fd5b816020850160208301376000918101602001919091529392505050565b60006020828403121561412257600080fd5b81356001600160401b0381111561413857600080fd5b6119a6848285016140a1565b6001600160a01b0381168114611f6f57600080fd5b80356002811061416857600080fd5b919050565b60008060006060848603121561418257600080fd5b833561418d81614144565b9250602084013591506141a260408501614159565b90509250925092565b600080604083850312156141be57600080fd5b8235915060208301356141d081614144565b809150509250929050565b634e487b7160e01b600052602160045260246000fd5b6002811061420f57634e487b7160e01b600052602160045260246000fd5b9052565b60208101610a7582846141f1565b60005b8381101561423c578181015183820152602001614224565b83811115611e815750506000910152565b60008151808452614265816020860160208601614221565b601f01601f19169290920160200192915050565b60208152600061171e602083018461424d565b60006020828403121561429e57600080fd5b813561171e81614144565b60006001600160401b038211156142c2576142c261405b565b5060051b60200190565b600082601f8301126142dd57600080fd5b813560206142f26142ed836142a9565b614071565b82815260059290921b8401810191818101908684111561431157600080fd5b8286015b8481101561433557803561432881614144565b8352918301918301614315565b509695505050505050565b600082601f83011261435157600080fd5b813560206143616142ed836142a9565b82815260059290921b8401810191818101908684111561438057600080fd5b8286015b848110156143355780358352918301918301614384565b600080600080608085870312156143b157600080fd5b84356143bc81614144565b935060208501356001600160401b03808211156143d857600080fd5b6143e4888389016142cc565b945060408701359150808211156143fa57600080fd5b5061440787828801614340565b949793965093946060013593505050565b60008083601f84011261442a57600080fd5b5081356001600160401b0381111561444157600080fd5b60208301915083602082850101111561445957600080fd5b9250929050565b60008060008060006080868803121561447857600080fd5b85356001600160401b038082111561448f57600080fd5b61449b89838a01614340565b9650602088013595506040880135945060608801359150808211156144bf57600080fd5b506144cc88828901614418565b969995985093965092949392505050565b6000806000604084860312156144f257600080fd5b8335925060208401356001600160401b0381111561450f57600080fd5b61451b86828701614418565b9497909650939450505050565b6000806000806060858703121561453e57600080fd5b843593506020850135925060408501356001600160401b0381111561456257600080fd5b61456e87828801614418565b95989497509550505050565b60008060008060008060a0878903121561459357600080fd5b86356001600160401b03808211156145aa57600080fd5b6145b68a838b01614340565b975060208901359150808211156145cc57600080fd5b6145d88a838b016142cc565b965060408901359150808211156145ee57600080fd5b6145fa8a838b01614340565b955060608901359450608089013591508082111561461757600080fd5b5061462489828a01614418565b979a9699509497509295939492505050565b6000806040838503121561464957600080fd5b50508035926020909101359150565b600082601f83011261466957600080fd5b813560206146796142ed836142a9565b82815260059290921b8401810191818101908684111561469857600080fd5b8286015b84811015614335576146ad81614159565b835291830191830161469c565b600080600080606085870312156146d057600080fd5b84356001600160401b03808211156146e757600080fd5b6146f388838901614340565b9550602087013591508082111561470957600080fd5b61471588838901614658565b9450604087013591508082111561472b57600080fd5b5061456e87828801614418565b6000806040838503121561474b57600080fd5b823561475681614144565b946020939093013593505050565b6000806000806060858703121561477a57600080fd5b843561478581614144565b935060208501356001600160401b03808211156147a157600080fd5b614715888389016140a1565b6000806000806000608086880312156147c557600080fd5b85356001600160401b03808211156147dc57600080fd5b6147e889838a01614340565b965060208801359150808211156147fe57600080fd5b61480a89838a01614340565b9550604088013591508082111561482057600080fd5b61482c89838a01614658565b945060608801359150808211156144bf57600080fd5b60008060006060848603121561485757600080fd5b833561486281614144565b95602085013595506040909401359392505050565b634e487b7160e01b600052603260045260246000fd5b60006020828403121561489f57600080fd5b5051919050565b634e487b7160e01b600052601160045260246000fd5b600082198211156148cf576148cf6148a6565b500190565b6001600160a01b039390931683526020830191909152604082015260600190565b600082821015614907576149076148a6565b500390565b600081518084526020808501945080840160005b838110156149455781516001600160a01b031687529582019590820190600101614920565b509495945050505050565b600081518084526020808501945080840160005b8381101561494557815187529582019590820190600101614964565b6001600160a01b03851681526080602082018190526000906149a49083018661490c565b82810360408401526149b68186614950565b91505082606083015295945050505050565b8051600090602080840183831561494557815187529582019590820190600101614964565b6001600160601b03198660601b1681528460148201526000614a1260348301866149c8565b938452505060208201526040019392505050565b6000600019821415614a3a57614a3a6148a6565b5060010190565b60609390931b6bffffffffffffffffffffffff191683526014830191909152603482015260540190565b60208082526010908201526f14185d5cd8589b194e881c185d5cd95960821b604082015260600190565b6001600160601b03198760601b1681528560148201526000614aba60348301876149c8565b8551602080880160005b83811015614ae95781516001600160a01b031685529382019390820190600101614ac4565b5050614af583886149c8565b9586529094019998505050505050505050565b60008151602080840160005b8381101561494557614b278783516141f1565b9582019590820190600101614b14565b6001600160601b03198560601b16815283601482015260006127fa614b5f60348401866149c8565b84614b08565b6001600160601b03198660601b1681528460148201526000613fd4614b5f614b9060348501886149c8565b866149c8565b60008251614ba8818460208701614221565b9190910192915050565b84815260018060a01b03841660208201528260408201526080606082015260006127fa608083018461424d565b6000816000190483118215151615614bf957614bf96148a6565b500290565b7f416363657373436f6e74726f6c3a206163636f756e7420000000000000000000815260008351614c36816017850160208801614221565b7001034b99036b4b9b9b4b733903937b6329607d1b6017918401918201528351614c67816028840160208801614221565b01602801949350505050565b6001600160a01b0385168152608060208201819052600090614c9790830186614950565b8281036040840152614ca98186614950565b90508281036060840152613fd4818561490c565b6001600160a01b038681168252602082018690528416604082015260a08101614ce960608301856141f1565b8260808301529695505050505050565b600060208284031215614d0b57600080fd5b8151801515811461171e57600080fd5b600060208284031215614d2d57600080fd5b815160ff8116811461171e57600080fd5b600060ff821660ff841680821015614d5857614d586148a6565b90039392505050565b600181815b80851115614d9c578160001904821115614d8257614d826148a6565b80851615614d8f57918102915b93841c9390800290614d66565b509250929050565b600082614db357506001610a75565b81614dc057506000610a75565b8160018114614dd65760028114614de057614dfc565b6001915050610a75565b60ff841115614df157614df16148a6565b50506001821b610a75565b5060208310610133831016604e8410600b8410161715614e1f575081810a610a75565b614e298383614d61565b8060001904821115614e3d57614e3d6148a6565b029392505050565b600061171e60ff841683614da4565b60006020808385031215614e6757600080fd5b82516001600160401b03811115614e7d57600080fd5b8301601f81018513614e8e57600080fd5b8051614e9c6142ed826142a9565b81815260059190911b82018301908381019087831115614ebb57600080fd5b928401925b82841015613fd4578351614ed381614144565b82529284019290840190614ec0565b600081614ef157614ef16148a6565b506000190190565b634e487b7160e01b600052603160045260246000fdfedbeb657137b1822b3d5418bea6fd641226d964b4c3871ef23546db2622258871a264697066735822122056f97adb017e85b80db038f199b3b890add3cc115d4cdc5c47e3556c5476f96c64736f6c63430008090033",
  "devdoc": {
    "kind": "dev",
    "methods": {
      "burn(uint256,uint256,bytes)": {
        "details": "It calls burnByAdmin of BNIMinter.",
        "params": {
          "_pool": "total pool in USD",
          "_share": "amount of shares"
        }
      },
      "deposit(uint256[],address[],uint256[],uint256,bytes)": {
        "details": "It calls depositByAgent of BNIVaults."
      },
      "exitWithdrawal(uint256,bytes)": {
        "details": "It calls exitWithdrawalByAdmin of BNIMinter.",
        "params": {
          "_gatheredAmount": "is the amount of token that is gathered."
        }
      },
      "gather(uint256[],uint8[],bytes)": {
        "details": "It gathers withdrawn tokens of the user from user agents."
      },
      "getMessageHashForSafe(bytes)": {
        "details": "Returns hash of a message that can be signed by owners.",
        "params": {
          "message": "Message that should be hashed"
        },
        "returns": {
          "_0": "Message hash."
        }
      },
      "getRoleAdmin(bytes32)": {
        "details": "Returns the admin role that controls `role`. See {grantRole} and {revokeRole}. To change a role's admin, use {_setRoleAdmin}."
      },
      "getRoleMember(bytes32,uint256)": {
        "details": "Returns one of the accounts that have `role`. `index` must be a value between 0 and {getRoleMemberCount}, non-inclusive. Role bearers are not sorted in any particular way, and their ordering may change at any point. WARNING: When using {getRoleMember} and {getRoleMemberCount}, make sure you perform all queries on the same block. See the following https://forum.openzeppelin.com/t/iterating-over-elements-on-enumerableset-in-openzeppelin-contracts/2296[forum post] for more information."
      },
      "getRoleMemberCount(bytes32)": {
        "details": "Returns the number of accounts that have `role`. Can be used together with {getRoleMember} to enumerate all bearers of a role."
      },
      "grantRole(bytes32,address)": {
        "details": "Grants `role` to `account`. If `account` had not been already granted `role`, emits a {RoleGranted} event. Requirements: - the caller must have ``role``'s admin role."
      },
      "hasRole(bytes32,address)": {
        "details": "Returns `true` if `account` has been granted `role`."
      },
      "mint(uint256,bytes)": {
        "details": "It calls mintByAdmin of BNIMinter."
      },
      "owner()": {
        "details": "Returns the address of the current owner."
      },
      "paused()": {
        "details": "Returns true if the contract is paused, and false otherwise."
      },
      "renounceOwnership()": {
        "details": "Leaves the contract without owner. It will not be possible to call `onlyOwner` functions anymore. Can only be called by the current owner. NOTE: Renouncing ownership will leave the contract without an owner, thereby removing any functionality that is only available to the owner."
      },
      "renounceRole(bytes32,address)": {
        "details": "Revokes `role` from the calling account. Roles are often managed via {grantRole} and {revokeRole}: this function's purpose is to provide a mechanism for accounts to lose their privileges if they are compromised (such as when a trusted device is misplaced). If the calling account had been revoked `role`, emits a {RoleRevoked} event. Requirements: - the caller must be `account`."
      },
      "revokeRole(bytes32,address)": {
        "details": "Revokes `role` from `account`. If `account` had been granted `role`, emits a {RoleRevoked} event. Requirements: - the caller must have ``role``'s admin role."
      },
      "supportsInterface(bytes4)": {
        "details": "See {IERC165-supportsInterface}."
      },
      "takeOut(uint256,bytes)": {
        "details": "It takes out tokens from this agent.",
        "params": {
          "_gatheredAmount": "is the amount of token that is gathered."
        }
      },
      "transfer(uint256[],uint256[],uint8[],bytes)": {
        "details": "It transfers tokens to user agents"
      },
      "transferOwnership(address)": {
        "details": "Transfers ownership of the contract to a new account (`newOwner`). Can only be called by the current owner."
      },
      "withdraw(uint256[],uint256,uint256,bytes)": {
        "details": "It calls withdrawPercByAgent of BNIVaults."
      }
    },
    "version": 1
  },
  "userdoc": {
    "kind": "user",
    "methods": {
      "exitWithdrawal(uint256,bytes)": {
        "notice": "_gatheredAmount doesn't include the balance which is withdrawan in this agent."
      },
      "isTrustedForwarder(address)": {
        "notice": "return if the forwarder is trusted to forward relayed transactions to us. the forwarder is required to verify the sender's signature, and verify the call is not a replay."
      },
      "takeOut(uint256,bytes)": {
        "notice": "_gatheredAmount doesn't include the balance which is withdrawan in this agent."
      }
    },
    "version": 1
  },
  "storageLayout": {
    "storage": [
      {
        "astId": 69988,
        "contract": "contracts/xchain/agent/BNIUserAgentSubTest.sol:BNIUserAgentSubTest",
        "label": "trustedForwarder",
        "offset": 0,
        "slot": "0",
        "type": "t_address"
      },
      {
        "astId": 713,
        "contract": "contracts/xchain/agent/BNIUserAgentSubTest.sol:BNIUserAgentSubTest",
        "label": "_initialized",
        "offset": 20,
        "slot": "0",
        "type": "t_uint8"
      },
      {
        "astId": 716,
        "contract": "contracts/xchain/agent/BNIUserAgentSubTest.sol:BNIUserAgentSubTest",
        "label": "_initializing",
        "offset": 21,
        "slot": "0",
        "type": "t_bool"
      },
      {
        "astId": 70528,
        "contract": "contracts/xchain/agent/BNIUserAgentSubTest.sol:BNIUserAgentSubTest",
        "label": "separator",
        "offset": 0,
        "slot": "1",
        "type": "t_bytes32"
      },
      {
        "astId": 70941,
        "contract": "contracts/xchain/agent/BNIUserAgentSubTest.sol:BNIUserAgentSubTest",
        "label": "__gap",
        "offset": 0,
        "slot": "2",
        "type": "t_array(t_uint256)49_storage"
      },
      {
        "astId": 3292,
        "contract": "contracts/xchain/agent/BNIUserAgentSubTest.sol:BNIUserAgentSubTest",
        "label": "__gap",
        "offset": 0,
        "slot": "51",
        "type": "t_array(t_uint256)50_storage"
      },
      {
        "astId": 3946,
        "contract": "contracts/xchain/agent/BNIUserAgentSubTest.sol:BNIUserAgentSubTest",
        "label": "__gap",
        "offset": 0,
        "slot": "101",
        "type": "t_array(t_uint256)50_storage"
      },
      {
        "astId": 184,
        "contract": "contracts/xchain/agent/BNIUserAgentSubTest.sol:BNIUserAgentSubTest",
        "label": "_roles",
        "offset": 0,
        "slot": "151",
        "type": "t_mapping(t_bytes32,t_struct(RoleData)179_storage)"
      },
      {
        "astId": 483,
        "contract": "contracts/xchain/agent/BNIUserAgentSubTest.sol:BNIUserAgentSubTest",
        "label": "__gap",
        "offset": 0,
        "slot": "152",
        "type": "t_array(t_uint256)49_storage"
      },
      {
        "astId": 33,
        "contract": "contracts/xchain/agent/BNIUserAgentSubTest.sol:BNIUserAgentSubTest",
        "label": "_roleMembers",
        "offset": 0,
        "slot": "201",
        "type": "t_mapping(t_bytes32,t_struct(AddressSet)4359_storage)"
      },
      {
        "astId": 143,
        "contract": "contracts/xchain/agent/BNIUserAgentSubTest.sol:BNIUserAgentSubTest",
        "label": "__gap",
        "offset": 0,
        "slot": "202",
        "type": "t_array(t_uint256)49_storage"
      },
      {
        "astId": 869,
        "contract": "contracts/xchain/agent/BNIUserAgentSubTest.sol:BNIUserAgentSubTest",
        "label": "_paused",
        "offset": 0,
        "slot": "251",
        "type": "t_bool"
      },
      {
        "astId": 958,
        "contract": "contracts/xchain/agent/BNIUserAgentSubTest.sol:BNIUserAgentSubTest",
        "label": "__gap",
        "offset": 0,
        "slot": "252",
        "type": "t_array(t_uint256)49_storage"
      },
      {
        "astId": 593,
        "contract": "contracts/xchain/agent/BNIUserAgentSubTest.sol:BNIUserAgentSubTest",
        "label": "_owner",
        "offset": 0,
        "slot": "301",
        "type": "t_address"
      },
      {
        "astId": 705,
        "contract": "contracts/xchain/agent/BNIUserAgentSubTest.sol:BNIUserAgentSubTest",
        "label": "__gap",
        "offset": 0,
        "slot": "302",
        "type": "t_array(t_uint256)49_storage"
      },
      {
        "astId": 60227,
        "contract": "contracts/xchain/agent/BNIUserAgentSubTest.sol:BNIUserAgentSubTest",
        "label": "admin",
        "offset": 0,
        "slot": "351",
        "type": "t_address"
      },
      {
        "astId": 60231,
        "contract": "contracts/xchain/agent/BNIUserAgentSubTest.sol:BNIUserAgentSubTest",
        "label": "nonces",
        "offset": 0,
        "slot": "352",
        "type": "t_mapping(t_address,t_uint256)"
      },
      {
        "astId": 60234,
        "contract": "contracts/xchain/agent/BNIUserAgentSubTest.sol:BNIUserAgentSubTest",
        "label": "swap",
        "offset": 0,
        "slot": "353",
        "type": "t_contract(ISwap)56041"
      },
      {
        "astId": 60237,
        "contract": "contracts/xchain/agent/BNIUserAgentSubTest.sol:BNIUserAgentSubTest",
        "label": "USDC",
        "offset": 0,
        "slot": "354",
        "type": "t_contract(IERC20Upgradeable)1707"
      },
      {
        "astId": 60240,
        "contract": "contracts/xchain/agent/BNIUserAgentSubTest.sol:BNIUserAgentSubTest",
        "label": "USDT",
        "offset": 0,
        "slot": "355",
        "type": "t_contract(IERC20Upgradeable)1707"
      },
      {
        "astId": 60244,
        "contract": "contracts/xchain/agent/BNIUserAgentSubTest.sol:BNIUserAgentSubTest",
        "label": "usdcBalances",
        "offset": 0,
        "slot": "356",
        "type": "t_mapping(t_address,t_uint256)"
      },
      {
        "astId": 60248,
        "contract": "contracts/xchain/agent/BNIUserAgentSubTest.sol:BNIUserAgentSubTest",
        "label": "usdtBalances",
        "offset": 0,
        "slot": "357",
        "type": "t_mapping(t_address,t_uint256)"
      },
      {
        "astId": 60251,
        "contract": "contracts/xchain/agent/BNIUserAgentSubTest.sol:BNIUserAgentSubTest",
        "label": "multichainAdapter",
        "offset": 0,
        "slot": "358",
        "type": "t_contract(IXChainAdapter)56366"
      },
      {
        "astId": 60254,
        "contract": "contracts/xchain/agent/BNIUserAgentSubTest.sol:BNIUserAgentSubTest",
        "label": "cbridgeAdapter",
        "offset": 0,
        "slot": "359",
        "type": "t_contract(IXChainAdapter)56366"
      },
      {
        "astId": 60258,
        "contract": "contracts/xchain/agent/BNIUserAgentSubTest.sol:BNIUserAgentSubTest",
        "label": "cbridgeSenders",
        "offset": 0,
        "slot": "360",
        "type": "t_mapping(t_uint256,t_address)"
      },
      {
        "astId": 60262,
        "contract": "contracts/xchain/agent/BNIUserAgentSubTest.sol:BNIUserAgentSubTest",
        "label": "userAgents",
        "offset": 0,
        "slot": "361",
        "type": "t_mapping(t_uint256,t_address)"
      },
      {
        "astId": 60267,
        "contract": "contracts/xchain/agent/BNIUserAgentSubTest.sol:BNIUserAgentSubTest",
        "label": "callAdapterTypes",
        "offset": 0,
        "slot": "362",
        "type": "t_mapping(t_uint256,t_enum(AdapterType)60201)"
      },
      {
        "astId": 60271,
        "contract": "contracts/xchain/agent/BNIUserAgentSubTest.sol:BNIUserAgentSubTest",
        "label": "gasAmounts",
        "offset": 0,
        "slot": "363",
        "type": "t_mapping(t_bytes4,t_uint256)"
      },
      {
        "astId": 60275,
        "contract": "contracts/xchain/agent/BNIUserAgentSubTest.sol:BNIUserAgentSubTest",
        "label": "gasCosts",
        "offset": 0,
        "slot": "364",
        "type": "t_mapping(t_uint256,t_uint256)"
      },
      {
        "astId": 60277,
        "contract": "contracts/xchain/agent/BNIUserAgentSubTest.sol:BNIUserAgentSubTest",
        "label": "treasuryWallet",
        "offset": 0,
        "slot": "365",
        "type": "t_address"
      },
      {
        "astId": 61000,
        "contract": "contracts/xchain/agent/BNIUserAgentSubTest.sol:BNIUserAgentSubTest",
        "label": "__gap",
        "offset": 0,
        "slot": "366",
        "type": "t_array(t_uint256)36_storage"
      },
      {
        "astId": 57154,
        "contract": "contracts/xchain/agent/BNIUserAgentSubTest.sol:BNIUserAgentSubTest",
        "label": "chainIdOnLP",
        "offset": 0,
        "slot": "402",
        "type": "t_uint256"
      },
      {
        "astId": 57156,
        "contract": "contracts/xchain/agent/BNIUserAgentSubTest.sol:BNIUserAgentSubTest",
        "label": "isLPChain",
        "offset": 0,
        "slot": "403",
        "type": "t_bool"
      },
      {
        "astId": 57159,
        "contract": "contracts/xchain/agent/BNIUserAgentSubTest.sol:BNIUserAgentSubTest",
        "label": "bniMinter",
        "offset": 1,
        "slot": "403",
        "type": "t_contract(IBNIMinter)10340"
      },
      {
        "astId": 57162,
        "contract": "contracts/xchain/agent/BNIUserAgentSubTest.sol:BNIUserAgentSubTest",
        "label": "bniVault",
        "offset": 0,
        "slot": "404",
        "type": "t_contract(IBNIVault)10387"
      },
      {
        "astId": 57164,
        "contract": "contracts/xchain/agent/BNIUserAgentSubTest.sol:BNIUserAgentSubTest",
        "label": "subImpl",
        "offset": 0,
        "slot": "405",
        "type": "t_address"
      }
    ],
    "types": {
      "t_address": {
        "encoding": "inplace",
        "label": "address",
        "numberOfBytes": "20"
      },
      "t_array(t_bytes32)dyn_storage": {
        "base": "t_bytes32",
        "encoding": "dynamic_array",
        "label": "bytes32[]",
        "numberOfBytes": "32"
      },
      "t_array(t_uint256)36_storage": {
        "base": "t_uint256",
        "encoding": "inplace",
        "label": "uint256[36]",
        "numberOfBytes": "1152"
      },
      "t_array(t_uint256)49_storage": {
        "base": "t_uint256",
        "encoding": "inplace",
        "label": "uint256[49]",
        "numberOfBytes": "1568"
      },
      "t_array(t_uint256)50_storage": {
        "base": "t_uint256",
        "encoding": "inplace",
        "label": "uint256[50]",
        "numberOfBytes": "1600"
      },
      "t_bool": {
        "encoding": "inplace",
        "label": "bool",
        "numberOfBytes": "1"
      },
      "t_bytes32": {
        "encoding": "inplace",
        "label": "bytes32",
        "numberOfBytes": "32"
      },
      "t_bytes4": {
        "encoding": "inplace",
        "label": "bytes4",
        "numberOfBytes": "4"
      },
      "t_contract(IBNIMinter)10340": {
        "encoding": "inplace",
        "label": "contract IBNIMinter",
        "numberOfBytes": "20"
      },
      "t_contract(IBNIVault)10387": {
        "encoding": "inplace",
        "label": "contract IBNIVault",
        "numberOfBytes": "20"
      },
      "t_contract(IERC20Upgradeable)1707": {
        "encoding": "inplace",
        "label": "contract IERC20Upgradeable",
        "numberOfBytes": "20"
      },
      "t_contract(ISwap)56041": {
        "encoding": "inplace",
        "label": "contract ISwap",
        "numberOfBytes": "20"
      },
      "t_contract(IXChainAdapter)56366": {
        "encoding": "inplace",
        "label": "contract IXChainAdapter",
        "numberOfBytes": "20"
      },
      "t_enum(AdapterType)60201": {
        "encoding": "inplace",
        "label": "enum BasicUserAgentBase.AdapterType",
        "numberOfBytes": "1"
      },
      "t_mapping(t_address,t_bool)": {
        "encoding": "mapping",
        "key": "t_address",
        "label": "mapping(address => bool)",
        "numberOfBytes": "32",
        "value": "t_bool"
      },
      "t_mapping(t_address,t_uint256)": {
        "encoding": "mapping",
        "key": "t_address",
        "label": "mapping(address => uint256)",
        "numberOfBytes": "32",
        "value": "t_uint256"
      },
      "t_mapping(t_bytes32,t_struct(AddressSet)4359_storage)": {
        "encoding": "mapping",
        "key": "t_bytes32",
        "label": "mapping(bytes32 => struct EnumerableSetUpgradeable.AddressSet)",
        "numberOfBytes": "32",
        "value": "t_struct(AddressSet)4359_storage"
      },
      "t_mapping(t_bytes32,t_struct(RoleData)179_storage)": {
        "encoding": "mapping",
        "key": "t_bytes32",
        "label": "mapping(bytes32 => struct AccessControlUpgradeable.RoleData)",
        "numberOfBytes": "32",
        "value": "t_struct(RoleData)179_storage"
      },
      "t_mapping(t_bytes32,t_uint256)": {
        "encoding": "mapping",
        "key": "t_bytes32",
        "label": "mapping(bytes32 => uint256)",
        "numberOfBytes": "32",
        "value": "t_uint256"
      },
      "t_mapping(t_bytes4,t_uint256)": {
        "encoding": "mapping",
        "key": "t_bytes4",
        "label": "mapping(bytes4 => uint256)",
        "numberOfBytes": "32",
        "value": "t_uint256"
      },
      "t_mapping(t_uint256,t_address)": {
        "encoding": "mapping",
        "key": "t_uint256",
        "label": "mapping(uint256 => address)",
        "numberOfBytes": "32",
        "value": "t_address"
      },
      "t_mapping(t_uint256,t_enum(AdapterType)60201)": {
        "encoding": "mapping",
        "key": "t_uint256",
        "label": "mapping(uint256 => enum BasicUserAgentBase.AdapterType)",
        "numberOfBytes": "32",
        "value": "t_enum(AdapterType)60201"
      },
      "t_mapping(t_uint256,t_uint256)": {
        "encoding": "mapping",
        "key": "t_uint256",
        "label": "mapping(uint256 => uint256)",
        "numberOfBytes": "32",
        "value": "t_uint256"
      },
      "t_struct(AddressSet)4359_storage": {
        "encoding": "inplace",
        "label": "struct EnumerableSetUpgradeable.AddressSet",
        "members": [
          {
            "astId": 4358,
            "contract": "contracts/xchain/agent/BNIUserAgentSubTest.sol:BNIUserAgentSubTest",
            "label": "_inner",
            "offset": 0,
            "slot": "0",
            "type": "t_struct(Set)4058_storage"
          }
        ],
        "numberOfBytes": "64"
      },
      "t_struct(RoleData)179_storage": {
        "encoding": "inplace",
        "label": "struct AccessControlUpgradeable.RoleData",
        "members": [
          {
            "astId": 176,
            "contract": "contracts/xchain/agent/BNIUserAgentSubTest.sol:BNIUserAgentSubTest",
            "label": "members",
            "offset": 0,
            "slot": "0",
            "type": "t_mapping(t_address,t_bool)"
          },
          {
            "astId": 178,
            "contract": "contracts/xchain/agent/BNIUserAgentSubTest.sol:BNIUserAgentSubTest",
            "label": "adminRole",
            "offset": 0,
            "slot": "1",
            "type": "t_bytes32"
          }
        ],
        "numberOfBytes": "64"
      },
      "t_struct(Set)4058_storage": {
        "encoding": "inplace",
        "label": "struct EnumerableSetUpgradeable.Set",
        "members": [
          {
            "astId": 4053,
            "contract": "contracts/xchain/agent/BNIUserAgentSubTest.sol:BNIUserAgentSubTest",
            "label": "_values",
            "offset": 0,
            "slot": "0",
            "type": "t_array(t_bytes32)dyn_storage"
          },
          {
            "astId": 4057,
            "contract": "contracts/xchain/agent/BNIUserAgentSubTest.sol:BNIUserAgentSubTest",
            "label": "_indexes",
            "offset": 0,
            "slot": "1",
            "type": "t_mapping(t_bytes32,t_uint256)"
          }
        ],
        "numberOfBytes": "64"
      },
      "t_uint256": {
        "encoding": "inplace",
        "label": "uint256",
        "numberOfBytes": "32"
      },
      "t_uint8": {
        "encoding": "inplace",
        "label": "uint8",
        "numberOfBytes": "1"
      }
    }
  }
}