{
  "address": "0x55dE8c1C54bE0A36E4F326E6403b81e76343734F",
  "abi": [
    {
      "anonymous": false,
      "inputs": [
        {
          "indexed": false,
          "internalType": "uint8",
          "name": "version",
          "type": "uint8"
        }
      ],
      "name": "Initialized",
      "type": "event"
    },
    {
      "anonymous": false,
      "inputs": [
        {
          "indexed": true,
          "internalType": "address",
          "name": "previousOwner",
          "type": "address"
        },
        {
          "indexed": true,
          "internalType": "address",
          "name": "newOwner",
          "type": "address"
        }
      ],
      "name": "OwnershipTransferred",
      "type": "event"
    },
    {
      "anonymous": false,
      "inputs": [
        {
          "indexed": false,
          "internalType": "address",
          "name": "account",
          "type": "address"
        }
      ],
      "name": "Paused",
      "type": "event"
    },
    {
      "anonymous": false,
      "inputs": [
        {
          "indexed": true,
          "internalType": "bytes32",
          "name": "role",
          "type": "bytes32"
        },
        {
          "indexed": true,
          "internalType": "bytes32",
          "name": "previousAdminRole",
          "type": "bytes32"
        },
        {
          "indexed": true,
          "internalType": "bytes32",
          "name": "newAdminRole",
          "type": "bytes32"
        }
      ],
      "name": "RoleAdminChanged",
      "type": "event"
    },
    {
      "anonymous": false,
      "inputs": [
        {
          "indexed": true,
          "internalType": "bytes32",
          "name": "role",
          "type": "bytes32"
        },
        {
          "indexed": true,
          "internalType": "address",
          "name": "account",
          "type": "address"
        },
        {
          "indexed": true,
          "internalType": "address",
          "name": "sender",
          "type": "address"
        }
      ],
      "name": "RoleGranted",
      "type": "event"
    },
    {
      "anonymous": false,
      "inputs": [
        {
          "indexed": true,
          "internalType": "bytes32",
          "name": "role",
          "type": "bytes32"
        },
        {
          "indexed": true,
          "internalType": "address",
          "name": "account",
          "type": "address"
        },
        {
          "indexed": true,
          "internalType": "address",
          "name": "sender",
          "type": "address"
        }
      ],
      "name": "RoleRevoked",
      "type": "event"
    },
    {
      "anonymous": false,
      "inputs": [
        {
          "indexed": true,
          "internalType": "address",
          "name": "from",
          "type": "address"
        },
        {
          "indexed": false,
          "internalType": "address",
          "name": "token",
          "type": "address"
        },
        {
          "indexed": true,
          "internalType": "uint256",
          "name": "amount",
          "type": "uint256"
        },
        {
          "indexed": false,
          "internalType": "uint256",
          "name": "fromChainId",
          "type": "uint256"
        },
        {
          "indexed": true,
          "internalType": "uint256",
          "name": "toChainId",
          "type": "uint256"
        },
        {
          "indexed": false,
          "internalType": "address",
          "name": "to",
          "type": "address"
        },
        {
          "indexed": false,
          "internalType": "enum BasicUserAgentBase.AdapterType",
          "name": "adapterType",
          "type": "uint8"
        },
        {
          "indexed": false,
          "internalType": "uint256",
          "name": "nonce",
          "type": "uint256"
        }
      ],
      "name": "Transfer",
      "type": "event"
    },
    {
      "anonymous": false,
      "inputs": [
        {
          "indexed": false,
          "internalType": "address",
          "name": "account",
          "type": "address"
        }
      ],
      "name": "Unpaused",
      "type": "event"
    },
    {
      "inputs": [],
      "name": "ADAPTER_ROLE",
      "outputs": [
        {
          "internalType": "bytes32",
          "name": "",
          "type": "bytes32"
        }
      ],
      "stateMutability": "view",
      "type": "function"
    },
    {
      "inputs": [],
      "name": "DEFAULT_ADMIN_ROLE",
      "outputs": [
        {
          "internalType": "bytes32",
          "name": "",
          "type": "bytes32"
        }
      ],
      "stateMutability": "view",
      "type": "function"
    },
    {
      "inputs": [],
      "name": "USDC",
      "outputs": [
        {
          "internalType": "contract IERC20Upgradeable",
          "name": "",
          "type": "address"
        }
      ],
      "stateMutability": "view",
      "type": "function"
    },
    {
      "inputs": [],
      "name": "USDT",
      "outputs": [
        {
          "internalType": "contract IERC20Upgradeable",
          "name": "",
          "type": "address"
        }
      ],
      "stateMutability": "view",
      "type": "function"
    },
    {
      "inputs": [],
      "name": "admin",
      "outputs": [
        {
          "internalType": "address",
          "name": "",
          "type": "address"
        }
      ],
      "stateMutability": "view",
      "type": "function"
    },
    {
      "inputs": [],
      "name": "bniMinter",
      "outputs": [
        {
          "internalType": "contract IBNIMinter",
          "name": "",
          "type": "address"
        }
      ],
      "stateMutability": "view",
      "type": "function"
    },
    {
      "inputs": [],
      "name": "bniVault",
      "outputs": [
        {
          "internalType": "contract IBNIVault",
          "name": "",
          "type": "address"
        }
      ],
      "stateMutability": "view",
      "type": "function"
    },
    {
      "inputs": [
        {
          "internalType": "uint256",
          "name": "_pool",
          "type": "uint256"
        },
        {
          "internalType": "uint256",
          "name": "_share",
          "type": "uint256"
        },
        {
          "internalType": "bytes",
          "name": "_signature",
          "type": "bytes"
        }
      ],
      "name": "burn",
      "outputs": [
        {
          "internalType": "uint256",
          "name": "_feeAmt",
          "type": "uint256"
        }
      ],
      "stateMutability": "payable",
      "type": "function"
    },
    {
      "inputs": [
        {
          "internalType": "address",
          "name": "_account",
          "type": "address"
        },
        {
          "internalType": "uint256",
          "name": "_pool",
          "type": "uint256"
        },
        {
          "internalType": "uint256",
          "name": "_share",
          "type": "uint256"
        }
      ],
      "name": "burnByAdmin",
      "outputs": [],
      "stateMutability": "nonpayable",
      "type": "function"
    },
    {
      "inputs": [
        {
          "internalType": "uint256",
          "name": "",
          "type": "uint256"
        }
      ],
      "name": "callAdapterTypes",
      "outputs": [
        {
          "internalType": "enum BasicUserAgentBase.AdapterType",
          "name": "",
          "type": "uint8"
        }
      ],
      "stateMutability": "view",
      "type": "function"
    },
    {
      "inputs": [],
      "name": "cbridgeAdapter",
      "outputs": [
        {
          "internalType": "contract IXChainAdapter",
          "name": "",
          "type": "address"
        }
      ],
      "stateMutability": "view",
      "type": "function"
    },
    {
      "inputs": [
        {
          "internalType": "uint256",
          "name": "",
          "type": "uint256"
        }
      ],
      "name": "cbridgeSenders",
      "outputs": [
        {
          "internalType": "address",
          "name": "",
          "type": "address"
        }
      ],
      "stateMutability": "view",
      "type": "function"
    },
    {
      "inputs": [],
      "name": "chainIdOnLP",
      "outputs": [
        {
          "internalType": "uint256",
          "name": "",
          "type": "uint256"
        }
      ],
      "stateMutability": "view",
      "type": "function"
    },
    {
      "inputs": [
        {
          "internalType": "uint256[]",
          "name": "_toChainIds",
          "type": "uint256[]"
        },
        {
          "internalType": "address[]",
          "name": "_tokens",
          "type": "address[]"
        },
        {
          "internalType": "uint256[]",
          "name": "_USDTAmts",
          "type": "uint256[]"
        },
        {
          "internalType": "uint256",
          "name": "_minterNonce",
          "type": "uint256"
        },
        {
          "internalType": "bytes",
          "name": "_signature",
          "type": "bytes"
        }
      ],
      "name": "deposit",
      "outputs": [
        {
          "internalType": "uint256",
          "name": "_feeAmt",
          "type": "uint256"
        }
      ],
      "stateMutability": "payable",
      "type": "function"
    },
    {
      "inputs": [
        {
          "internalType": "address",
          "name": "_account",
          "type": "address"
        },
        {
          "internalType": "address[]",
          "name": "_tokens",
          "type": "address[]"
        },
        {
          "internalType": "uint256[]",
          "name": "_USDTAmts",
          "type": "uint256[]"
        },
        {
          "internalType": "uint256",
          "name": "_minterNonce",
          "type": "uint256"
        }
      ],
      "name": "depositByAgent",
      "outputs": [],
      "stateMutability": "nonpayable",
      "type": "function"
    },
    {
      "inputs": [
        {
          "internalType": "uint256",
          "name": "_gatheredAmount",
          "type": "uint256"
        },
        {
          "internalType": "bytes",
          "name": "_signature",
          "type": "bytes"
        }
      ],
      "name": "exitWithdrawal",
      "outputs": [
        {
          "internalType": "uint256",
          "name": "_feeAmt",
          "type": "uint256"
        }
      ],
      "stateMutability": "payable",
      "type": "function"
    },
    {
      "inputs": [
        {
          "internalType": "address",
          "name": "_account",
          "type": "address"
        }
      ],
      "name": "exitWithdrawalByAdmin",
      "outputs": [],
      "stateMutability": "nonpayable",
      "type": "function"
    },
    {
      "inputs": [
        {
          "internalType": "bytes4",
          "name": "",
          "type": "bytes4"
        }
      ],
      "name": "gasAmounts",
      "outputs": [
        {
          "internalType": "uint256",
          "name": "",
          "type": "uint256"
        }
      ],
      "stateMutability": "view",
      "type": "function"
    },
    {
      "inputs": [
        {
          "internalType": "uint256",
          "name": "",
          "type": "uint256"
        }
      ],
      "name": "gasCosts",
      "outputs": [
        {
          "internalType": "uint256",
          "name": "",
          "type": "uint256"
        }
      ],
      "stateMutability": "view",
      "type": "function"
    },
    {
      "inputs": [
        {
          "internalType": "uint256[]",
          "name": "_fromChainIds",
          "type": "uint256[]"
        },
        {
          "internalType": "enum BasicUserAgentBase.AdapterType[]",
          "name": "_adapterTypes",
          "type": "uint8[]"
        },
        {
          "internalType": "bytes",
          "name": "_signature",
          "type": "bytes"
        }
      ],
      "name": "gather",
      "outputs": [
        {
          "internalType": "uint256",
          "name": "_feeAmt",
          "type": "uint256"
        }
      ],
      "stateMutability": "payable",
      "type": "function"
    },
    {
      "inputs": [
        {
          "internalType": "address",
          "name": "_account",
          "type": "address"
        },
        {
          "internalType": "uint256",
          "name": "_toChainId",
          "type": "uint256"
        },
        {
          "internalType": "enum BasicUserAgentBase.AdapterType",
          "name": "_adapterType",
          "type": "uint8"
        }
      ],
      "name": "gatherByAdmin",
      "outputs": [],
      "stateMutability": "nonpayable",
      "type": "function"
    },
    {
      "inputs": [
        {
          "internalType": "bytes",
          "name": "message",
          "type": "bytes"
        }
      ],
      "name": "getMessageHashForSafe",
      "outputs": [
        {
          "internalType": "bytes32",
          "name": "",
          "type": "bytes32"
        }
      ],
      "stateMutability": "view",
      "type": "function"
    },
    {
      "inputs": [
        {
          "internalType": "bytes32",
          "name": "role",
          "type": "bytes32"
        }
      ],
      "name": "getRoleAdmin",
      "outputs": [
        {
          "internalType": "bytes32",
          "name": "",
          "type": "bytes32"
        }
      ],
      "stateMutability": "view",
      "type": "function"
    },
    {
      "inputs": [
        {
          "internalType": "bytes32",
          "name": "role",
          "type": "bytes32"
        },
        {
          "internalType": "uint256",
          "name": "index",
          "type": "uint256"
        }
      ],
      "name": "getRoleMember",
      "outputs": [
        {
          "internalType": "address",
          "name": "",
          "type": "address"
        }
      ],
      "stateMutability": "view",
      "type": "function"
    },
    {
      "inputs": [
        {
          "internalType": "bytes32",
          "name": "role",
          "type": "bytes32"
        }
      ],
      "name": "getRoleMemberCount",
      "outputs": [
        {
          "internalType": "uint256",
          "name": "",
          "type": "uint256"
        }
      ],
      "stateMutability": "view",
      "type": "function"
    },
    {
      "inputs": [
        {
          "internalType": "bytes32",
          "name": "role",
          "type": "bytes32"
        },
        {
          "internalType": "address",
          "name": "account",
          "type": "address"
        }
      ],
      "name": "grantRole",
      "outputs": [],
      "stateMutability": "nonpayable",
      "type": "function"
    },
    {
      "inputs": [
        {
          "internalType": "bytes32",
          "name": "role",
          "type": "bytes32"
        },
        {
          "internalType": "address",
          "name": "account",
          "type": "address"
        }
      ],
      "name": "hasRole",
      "outputs": [
        {
          "internalType": "bool",
          "name": "",
          "type": "bool"
        }
      ],
      "stateMutability": "view",
      "type": "function"
    },
    {
      "inputs": [
        {
          "internalType": "uint256",
          "name": "_pool",
          "type": "uint256"
        },
        {
          "internalType": "uint256",
          "name": "_USDT6Amt",
          "type": "uint256"
        },
        {
          "internalType": "bytes",
          "name": "_signature",
          "type": "bytes"
        }
      ],
      "name": "initDeposit",
      "outputs": [
        {
          "internalType": "uint256",
          "name": "_feeAmt",
          "type": "uint256"
        }
      ],
      "stateMutability": "payable",
      "type": "function"
    },
    {
      "inputs": [
        {
          "internalType": "address",
          "name": "_account",
          "type": "address"
        },
        {
          "internalType": "uint256",
          "name": "_pool",
          "type": "uint256"
        },
        {
          "internalType": "uint256",
          "name": "_USDT6Amt",
          "type": "uint256"
        }
      ],
      "name": "initDepositByAdmin",
      "outputs": [],
      "stateMutability": "nonpayable",
      "type": "function"
    },
    {
      "inputs": [
        {
          "internalType": "address",
          "name": "_treasury",
          "type": "address"
        },
        {
          "internalType": "address",
          "name": "_admin",
          "type": "address"
        },
        {
          "internalType": "contract ISwap",
          "name": "_swap",
          "type": "address"
        },
        {
          "internalType": "contract IXChainAdapter",
          "name": "_multichainAdapter",
          "type": "address"
        },
        {
          "internalType": "contract IXChainAdapter",
          "name": "_cbridgeAdapter",
          "type": "address"
        }
      ],
      "name": "initialize",
      "outputs": [],
      "stateMutability": "nonpayable",
      "type": "function"
    },
    {
      "inputs": [
        {
          "internalType": "address",
          "name": "_subImpl",
          "type": "address"
        },
        {
          "internalType": "address",
          "name": "_treasury",
          "type": "address"
        },
        {
          "internalType": "address",
          "name": "_admin",
          "type": "address"
        },
        {
          "internalType": "contract ISwap",
          "name": "_swap",
          "type": "address"
        },
        {
          "internalType": "contract IXChainAdapter",
          "name": "_multichainAdapter",
          "type": "address"
        },
        {
          "internalType": "contract IXChainAdapter",
          "name": "_cbridgeAdapter",
          "type": "address"
        },
        {
          "internalType": "contract IBNIMinter",
          "name": "_bniMinter",
          "type": "address"
        },
        {
          "internalType": "contract IBNIVault",
          "name": "_bniVault",
          "type": "address"
        }
      ],
      "name": "initialize1",
      "outputs": [],
      "stateMutability": "nonpayable",
      "type": "function"
    },
    {
      "inputs": [],
      "name": "isLPChain",
      "outputs": [
        {
          "internalType": "bool",
          "name": "",
          "type": "bool"
        }
      ],
      "stateMutability": "view",
      "type": "function"
    },
    {
      "inputs": [
        {
          "internalType": "address",
          "name": "forwarder",
          "type": "address"
        }
      ],
      "name": "isTrustedForwarder",
      "outputs": [
        {
          "internalType": "bool",
          "name": "",
          "type": "bool"
        }
      ],
      "stateMutability": "view",
      "type": "function"
    },
    {
      "inputs": [
        {
          "internalType": "address",
          "name": "_account",
          "type": "address"
        },
        {
          "internalType": "bytes",
          "name": "_data",
          "type": "bytes"
        },
        {
          "internalType": "bytes",
          "name": "_signature",
          "type": "bytes"
        }
      ],
      "name": "isValidSignature",
      "outputs": [
        {
          "internalType": "bool",
          "name": "",
          "type": "bool"
        }
      ],
      "stateMutability": "view",
      "type": "function"
    },
    {
      "inputs": [
        {
          "internalType": "address",
          "name": "_token",
          "type": "address"
        },
        {
          "internalType": "uint256",
          "name": "_toChainId",
          "type": "uint256"
        },
        {
          "internalType": "enum BasicUserAgentBase.AdapterType",
          "name": "_adapterType",
          "type": "uint8"
        }
      ],
      "name": "minTransfer",
      "outputs": [
        {
          "internalType": "uint256",
          "name": "",
          "type": "uint256"
        }
      ],
      "stateMutability": "view",
      "type": "function"
    },
    {
      "inputs": [
        {
          "internalType": "uint256",
          "name": "_USDT6Amt",
          "type": "uint256"
        },
        {
          "internalType": "bytes",
          "name": "_signature",
          "type": "bytes"
        }
      ],
      "name": "mint",
      "outputs": [
        {
          "internalType": "uint256",
          "name": "_feeAmt",
          "type": "uint256"
        }
      ],
      "stateMutability": "payable",
      "type": "function"
    },
    {
      "inputs": [
        {
          "internalType": "address",
          "name": "_account",
          "type": "address"
        },
        {
          "internalType": "uint256",
          "name": "_USDT6Amt",
          "type": "uint256"
        }
      ],
      "name": "mintByAdmin",
      "outputs": [],
      "stateMutability": "nonpayable",
      "type": "function"
    },
    {
      "inputs": [],
      "name": "multichainAdapter",
      "outputs": [
        {
          "internalType": "contract IXChainAdapter",
          "name": "",
          "type": "address"
        }
      ],
      "stateMutability": "view",
      "type": "function"
    },
    {
      "inputs": [
        {
          "internalType": "address",
          "name": "",
          "type": "address"
        }
      ],
      "name": "nonces",
      "outputs": [
        {
          "internalType": "uint256",
          "name": "",
          "type": "uint256"
        }
      ],
      "stateMutability": "view",
      "type": "function"
    },
    {
      "inputs": [
        {
          "internalType": "uint256",
          "name": "_cbridgeNonce",
          "type": "uint256"
        },
        {
          "internalType": "address",
          "name": "_token",
          "type": "address"
        },
        {
          "internalType": "uint256",
          "name": "amount",
          "type": "uint256"
        },
        {
          "internalType": "uint256",
          "name": "",
          "type": "uint256"
        },
        {
          "internalType": "address",
          "name": "",
          "type": "address"
        }
      ],
      "name": "onRefunded",
      "outputs": [],
      "stateMutability": "nonpayable",
      "type": "function"
    },
    {
      "inputs": [],
      "name": "owner",
      "outputs": [
        {
          "internalType": "address",
          "name": "",
          "type": "address"
        }
      ],
      "stateMutability": "view",
      "type": "function"
    },
    {
      "inputs": [],
      "name": "pause",
      "outputs": [],
      "stateMutability": "nonpayable",
      "type": "function"
    },
    {
      "inputs": [],
      "name": "paused",
      "outputs": [
        {
          "internalType": "bool",
          "name": "",
          "type": "bool"
        }
      ],
      "stateMutability": "view",
      "type": "function"
    },
    {
      "inputs": [],
      "name": "renounceOwnership",
      "outputs": [],
      "stateMutability": "nonpayable",
      "type": "function"
    },
    {
      "inputs": [
        {
          "internalType": "bytes32",
          "name": "role",
          "type": "bytes32"
        },
        {
          "internalType": "address",
          "name": "account",
          "type": "address"
        }
      ],
      "name": "renounceRole",
      "outputs": [],
      "stateMutability": "nonpayable",
      "type": "function"
    },
    {
      "inputs": [
        {
          "internalType": "bytes32",
          "name": "role",
          "type": "bytes32"
        },
        {
          "internalType": "address",
          "name": "account",
          "type": "address"
        }
      ],
      "name": "revokeRole",
      "outputs": [],
      "stateMutability": "nonpayable",
      "type": "function"
    },
    {
      "inputs": [
        {
          "internalType": "address",
          "name": "_admin",
          "type": "address"
        }
      ],
      "name": "setAdmin",
      "outputs": [],
      "stateMutability": "nonpayable",
      "type": "function"
    },
    {
      "inputs": [
        {
          "internalType": "contract IBNIMinter",
          "name": "_bniMinter",
          "type": "address"
        }
      ],
      "name": "setBNIMinter",
      "outputs": [],
      "stateMutability": "nonpayable",
      "type": "function"
    },
    {
      "inputs": [
        {
          "internalType": "contract IBNIVault",
          "name": "_bniVault",
          "type": "address"
        }
      ],
      "name": "setBNIVault",
      "outputs": [],
      "stateMutability": "nonpayable",
      "type": "function"
    },
    {
      "inputs": [
        {
          "internalType": "address",
          "name": "_biconomy",
          "type": "address"
        }
      ],
      "name": "setBiconomy",
      "outputs": [],
      "stateMutability": "nonpayable",
      "type": "function"
    },
    {
      "inputs": [
        {
          "internalType": "contract IXChainAdapter",
          "name": "_cbridgeAdapter",
          "type": "address"
        }
      ],
      "name": "setCBridgeAdapter",
      "outputs": [],
      "stateMutability": "nonpayable",
      "type": "function"
    },
    {
      "inputs": [
        {
          "internalType": "uint256[]",
          "name": "_chainIds",
          "type": "uint256[]"
        },
        {
          "internalType": "enum BasicUserAgentBase.AdapterType[]",
          "name": "_adapterTypes",
          "type": "uint8[]"
        }
      ],
      "name": "setCallAdapterTypes",
      "outputs": [],
      "stateMutability": "nonpayable",
      "type": "function"
    },
    {
      "inputs": [
        {
          "internalType": "bytes4[]",
          "name": "_selectors",
          "type": "bytes4[]"
        },
        {
          "internalType": "uint256[]",
          "name": "_amounts",
          "type": "uint256[]"
        }
      ],
      "name": "setGasAmounts",
      "outputs": [],
      "stateMutability": "nonpayable",
      "type": "function"
    },
    {
      "inputs": [
        {
          "internalType": "uint256[]",
          "name": "_chainIds",
          "type": "uint256[]"
        },
        {
          "internalType": "uint256[]",
          "name": "_costs",
          "type": "uint256[]"
        }
      ],
      "name": "setGasCosts",
      "outputs": [],
      "stateMutability": "nonpayable",
      "type": "function"
    },
    {
      "inputs": [
        {
          "internalType": "contract IXChainAdapter",
          "name": "_multichainAdapter",
          "type": "address"
        }
      ],
      "name": "setMultichainAdapter",
      "outputs": [],
      "stateMutability": "nonpayable",
      "type": "function"
    },
    {
      "inputs": [
        {
          "internalType": "address",
          "name": "_subImpl",
          "type": "address"
        }
      ],
      "name": "setSubImpl",
      "outputs": [],
      "stateMutability": "nonpayable",
      "type": "function"
    },
    {
      "inputs": [
        {
          "internalType": "contract ISwap",
          "name": "_swap",
          "type": "address"
        }
      ],
      "name": "setSwapper",
      "outputs": [],
      "stateMutability": "nonpayable",
      "type": "function"
    },
    {
      "inputs": [
        {
          "internalType": "address",
          "name": "_wallet",
          "type": "address"
        }
      ],
      "name": "setTreasuryWallet",
      "outputs": [],
      "stateMutability": "nonpayable",
      "type": "function"
    },
    {
      "inputs": [
        {
          "internalType": "uint256[]",
          "name": "_chainIds",
          "type": "uint256[]"
        },
        {
          "internalType": "address[]",
          "name": "_userAgents",
          "type": "address[]"
        }
      ],
      "name": "setUserAgents",
      "outputs": [],
      "stateMutability": "nonpayable",
      "type": "function"
    },
    {
      "inputs": [],
      "name": "subImpl",
      "outputs": [
        {
          "internalType": "address",
          "name": "",
          "type": "address"
        }
      ],
      "stateMutability": "view",
      "type": "function"
    },
    {
      "inputs": [
        {
          "internalType": "bytes4",
          "name": "interfaceId",
          "type": "bytes4"
        }
      ],
      "name": "supportsInterface",
      "outputs": [
        {
          "internalType": "bool",
          "name": "",
          "type": "bool"
        }
      ],
      "stateMutability": "view",
      "type": "function"
    },
    {
      "inputs": [
        {
          "internalType": "uint256",
          "name": "_gatheredAmount",
          "type": "uint256"
        },
        {
          "internalType": "bytes",
          "name": "_signature",
          "type": "bytes"
        }
      ],
      "name": "takeOut",
      "outputs": [],
      "stateMutability": "nonpayable",
      "type": "function"
    },
    {
      "inputs": [
        {
          "internalType": "uint256[]",
          "name": "_amounts",
          "type": "uint256[]"
        },
        {
          "internalType": "uint256[]",
          "name": "_toChainIds",
          "type": "uint256[]"
        },
        {
          "internalType": "enum BasicUserAgentBase.AdapterType[]",
          "name": "_adapterTypes",
          "type": "uint8[]"
        },
        {
          "internalType": "bytes",
          "name": "_signature",
          "type": "bytes"
        }
      ],
      "name": "transfer",
      "outputs": [
        {
          "internalType": "uint256",
          "name": "_feeAmt",
          "type": "uint256"
        }
      ],
      "stateMutability": "payable",
      "type": "function"
    },
    {
      "inputs": [
        {
          "internalType": "address",
          "name": "newOwner",
          "type": "address"
        }
      ],
      "name": "transferOwnership",
      "outputs": [],
      "stateMutability": "nonpayable",
      "type": "function"
    },
    {
      "inputs": [],
      "name": "treasuryWallet",
      "outputs": [
        {
          "internalType": "address",
          "name": "",
          "type": "address"
        }
      ],
      "stateMutability": "view",
      "type": "function"
    },
    {
      "inputs": [],
      "name": "trustedForwarder",
      "outputs": [
        {
          "internalType": "address",
          "name": "",
          "type": "address"
        }
      ],
      "stateMutability": "view",
      "type": "function"
    },
    {
      "inputs": [],
      "name": "unpause",
      "outputs": [],
      "stateMutability": "nonpayable",
      "type": "function"
    },
    {
      "inputs": [
        {
          "internalType": "address",
          "name": "",
          "type": "address"
        }
      ],
      "name": "usdcBalances",
      "outputs": [
        {
          "internalType": "uint256",
          "name": "",
          "type": "uint256"
        }
      ],
      "stateMutability": "view",
      "type": "function"
    },
    {
      "inputs": [
        {
          "internalType": "address",
          "name": "",
          "type": "address"
        }
      ],
      "name": "usdtBalances",
      "outputs": [
        {
          "internalType": "uint256",
          "name": "",
          "type": "uint256"
        }
      ],
      "stateMutability": "view",
      "type": "function"
    },
    {
      "inputs": [
        {
          "internalType": "uint256",
          "name": "",
          "type": "uint256"
        }
      ],
      "name": "userAgents",
      "outputs": [
        {
          "internalType": "address",
          "name": "",
          "type": "address"
        }
      ],
      "stateMutability": "view",
      "type": "function"
    },
    {
      "inputs": [],
      "name": "versionRecipient",
      "outputs": [
        {
          "internalType": "string",
          "name": "",
          "type": "string"
        }
      ],
      "stateMutability": "pure",
      "type": "function"
    },
    {
      "inputs": [
        {
          "internalType": "uint256[]",
          "name": "_chainIds",
          "type": "uint256[]"
        },
        {
          "internalType": "uint256",
          "name": "_sharePerc",
          "type": "uint256"
        },
        {
          "internalType": "uint256",
          "name": "_minterNonce",
          "type": "uint256"
        },
        {
          "internalType": "bytes",
          "name": "_signature",
          "type": "bytes"
        }
      ],
      "name": "withdraw",
      "outputs": [
        {
          "internalType": "uint256",
          "name": "_feeAmt",
          "type": "uint256"
        }
      ],
      "stateMutability": "payable",
      "type": "function"
    },
    {
      "inputs": [],
      "name": "withdrawFee",
      "outputs": [],
      "stateMutability": "nonpayable",
      "type": "function"
    },
    {
      "inputs": [
        {
          "internalType": "address",
          "name": "_account",
          "type": "address"
        },
        {
          "internalType": "uint256",
          "name": "_sharePerc",
          "type": "uint256"
        },
        {
          "internalType": "uint256",
          "name": "_minterNonce",
          "type": "uint256"
        }
      ],
      "name": "withdrawPercByAgent",
      "outputs": [],
      "stateMutability": "nonpayable",
      "type": "function"
    },
    {
      "stateMutability": "payable",
      "type": "receive"
    }
  ],
  "transactionHash": "0x98c11b541ca948313b42bb4cee54fe7dc636118290ad1393b24484e378f14db4",
  "args": [],
  "numDeployments": 6,
  "solcInputHash": "5fed896d3eb2c018b5f6bbc2ab937b9b",
  "bytecode": "0x608060405234801561001057600080fd5b506152b7806100206000396000f3fe6080604052600436106104355760003560e01c80637ecebe0011610229578063b8a6752d1161012e578063e629f7b3116100b6578063f2fde38b1161007a578063f2fde38b14610cf6578063f77de48614610d16578063f7bb364c14610d36578063f851a44014610d51578063fc637c3c14610d7257600080fd5b8063e629f7b314610c6f578063e941fa7814610c8a578063e9e81a6a14610c6f578063f203d04714610c9f578063f2ea161814610cbf57600080fd5b8063d1dbbc60116100fd578063d1dbbc6014610bfb578063d547741f14610c09578063d843a40014610c29578063db7fd408146109f0578063e4ebcbd014610c4f57600080fd5b8063b8a6752d14610b87578063c54e44eb14610b9a578063c7205bce14610bbb578063ca15c87314610bdb57600080fd5b80639010d07c116101b15780639e17747a116101805780639e17747a14610ae4578063a217fddf14610b04578063a8602fea14610b19578063a99c68c514610b39578063af3da2f414610b6757600080fd5b80639010d07c14610a76578063918f1a5c14610a9657806391d1485414610aa45780639c82f2a414610ac457600080fd5b806384762739116101f857806384762739146109f057806386355d9614610a03578063897fd46914610a1657806389a3027114610a365780638da5cb5b14610a5757600080fd5b80637ecebe001461097a5780638033a805146109a857806380a5a371146109c85780638456cb59146109db57600080fd5b806343a463c71161033a5780635c975abb116102c25780636ebf33ce116102865780636ebf33ce146108ce5780636f6a886214610905578063704b6c0214610925578063715018a6146109455780637da0a8771461095a57600080fd5b80635c975abb146108475780635f2b37371461085f57806363032feb1461087f5780636687977f146108a05780636e5677ce146108b357600080fd5b80634d944755116103095780634d94475514610789578063572b6c05146107a957806357cdd7f9146107d8578063582489cb146107f9578063582712b11461082757600080fd5b806343a463c7146106f85780634626402b14610718578063472c38ff14610739578063486ff0cd1461075957600080fd5b8063248a9ca3116103bd57806331e8df891161038c57806331e8df891461063757806336568abe1461065757806339dacedb146106775780633f4ba83a146106b5578063407a2e98146106ca57600080fd5b8063248a9ca3146105a7578063278758a8146105d757806328054fb7146105f75780632f2ff15d1461061757600080fd5b80630d8b76a8116104045780630d8b76a8146105005780631459457a14610522578063187f3c541461054257806319463093146105705780631a5787d81461059057600080fd5b8063013dee701461044157806301ffc9a71461047f57806302a882e6146104af5780630c3a1821146104df57600080fd5b3661043c57005b600080fd5b34801561044d57600080fd5b5061019554610462906001600160a01b031681565b6040516001600160a01b0390911681526020015b60405180910390f35b34801561048b57600080fd5b5061049f61049a3660046143b9565b610d92565b6040519015158152602001610476565b3480156104bb57600080fd5b506104d160008051602061526283398151915281565b604051908152602001610476565b3480156104eb57600080fd5b5061016654610462906001600160a01b031681565b34801561050c57600080fd5b5061052061051b3660046143e9565b610dbd565b005b34801561052e57600080fd5b5061052061053d366004614406565b610e32565b34801561054e57600080fd5b506104d161055d366004614477565b61016c6020526000908152604090205481565b34801561057c57600080fd5b506104d161058b366004614545565b610fe5565b34801561059c57600080fd5b506104d16101925481565b3480156105b357600080fd5b506104d16105c2366004614477565b60009081526097602052604090206001015490565b3480156105e357600080fd5b506105206105f23660046143e9565b611031565b34801561060357600080fd5b50610520610612366004614588565b611266565b34801561062357600080fd5b506105206106323660046145c6565b611274565b34801561064357600080fd5b506105206106523660046143e9565b61129e565b34801561066357600080fd5b506105206106723660046145c6565b611322565b34801561068357600080fd5b506106a8610692366004614477565b61016a6020526000908152604090205460ff1681565b604051610476919061460c565b3480156106c157600080fd5b506105206113ac565b3480156106d657600080fd5b506104d16106e53660046143b9565b61016b6020526000908152604090205481565b34801561070457600080fd5b50610520610713366004614634565b6116f9565b34801561072457600080fd5b5061016d54610462906001600160a01b031681565b34801561074557600080fd5b50610520610754366004614669565b61178b565b34801561076557600080fd5b5060408051808201825260018152603160f81b602082015290516104769190614709565b34801561079557600080fd5b506105206107a436600461479f565b611881565b3480156107b557600080fd5b5061049f6107c43660046143e9565b6000546001600160a01b0391821691161490565b3480156107e457600080fd5b5061016754610462906001600160a01b031681565b34801561080557600080fd5b506104d16108143660046143e9565b6101656020526000908152604090205481565b34801561083357600080fd5b506105206108423660046148c2565b611941565b34801561085357600080fd5b5060fb5460ff1661049f565b34801561086b57600080fd5b5061052061087a3660046149a1565b611950565b34801561088b57600080fd5b5061019454610462906001600160a01b031681565b6104d16108ae366004614a42565b611a68565b3480156108bf57600080fd5b50610520610612366004614abf565b3480156108da57600080fd5b506104626108e9366004614477565b610169602052600090815260409020546001600160a01b031681565b34801561091157600080fd5b50610520610920366004614b0a565b611a7c565b34801561093157600080fd5b506105206109403660046143e9565b611b31565b34801561095157600080fd5b50610520611b9e565b34801561096657600080fd5b50600054610462906001600160a01b031681565b34801561098657600080fd5b506104d16109953660046143e9565b6101606020526000908152604090205481565b3480156109b457600080fd5b506105206109c33660046143e9565b611bf2565b6104d16109d6366004614b56565b611ca7565b3480156109e757600080fd5b50610520611cba565b6104d16109fe366004614abf565b611daf565b6104d1610a11366004614ba8565b611dc1565b348015610a2257600080fd5b50610520610a31366004614c64565b611dd6565b348015610a4257600080fd5b5061016254610462906001600160a01b031681565b348015610a6357600080fd5b5061012d546001600160a01b0316610462565b348015610a8257600080fd5b50610462610a91366004614cbd565b611eeb565b6104d16109d6366004614cdf565b348015610ab057600080fd5b5061049f610abf3660046145c6565b611f0a565b348015610ad057600080fd5b50610520610adf3660046143e9565b611f35565b348015610af057600080fd5b50610520610aff3660046143e9565b611fb9565b348015610b1057600080fd5b506104d1600081565b348015610b2557600080fd5b50610520610b343660046143e9565b61203d565b348015610b4557600080fd5b506104d1610b543660046143e9565b6101646020526000908152604090205481565b348015610b7357600080fd5b50610520610b82366004614d5d565b6120f1565b6104d1610b95366004614b56565b6120f9565b348015610ba657600080fd5b5061016354610462906001600160a01b031681565b348015610bc757600080fd5b5061049f610bd6366004614d89565b6122ec565b348015610be757600080fd5b506104d1610bf6366004614477565b61246b565b6104d16108ae366004614dd2565b348015610c1557600080fd5b50610520610c243660046145c6565b612482565b348015610c3557600080fd5b50610193546104629061010090046001600160a01b031681565b348015610c5b57600080fd5b506104d1610c6a366004614588565b6124a7565b348015610c7b57600080fd5b50610520610612366004614634565b348015610c9657600080fd5b506105206125d0565b348015610cab57600080fd5b50610520610cba366004614e67565b612631565b348015610ccb57600080fd5b50610462610cda366004614477565b610168602052600090815260409020546001600160a01b031681565b348015610d0257600080fd5b50610520610d113660046143e9565b612805565b348015610d2257600080fd5b50610520610d313660046143e9565b61285b565b348015610d4257600080fd5b506101935461049f9060ff1681565b348015610d5d57600080fd5b5061015f54610462906001600160a01b031681565b348015610d7e57600080fd5b50610520610d8d3660046143e9565b612863565b60006001600160e01b03198216635a05180f60e01b1480610db75750610db7826128d6565b92915050565b610dc561290b565b6001600160a01b0316610de161012d546001600160a01b031690565b6001600160a01b031614610e105760405162461bcd60e51b8152600401610e0790614f10565b60405180910390fd5b600080546001600160a01b0319166001600160a01b0392909216919091179055565b6000610e3e600161291a565b90508015610e5a576000805460ff60a81b1916600160a81b1790555b6001600160a01b038616610ea35760405162461bcd60e51b815260206004820152601060248201526f1d1c99585cdd5c9e481a5b9d985b1a5960821b6044820152606401610e07565b610eab6129ba565b610ec86000610ec361012d546001600160a01b031690565b6129f3565b610ed06129fd565b610eda6001612a85565b61016280546001600160a01b0319166001600160a01b0392909216919091179055610f056000612a85565b61016380546001600160a01b03199081166001600160a01b039384161790915561016d8054821689841617905561015f8054909116918716919091179055610f4c84611f35565b610f5583611fb9565b610f5e8261129e565b6305e5a4c160e11b60005261016b602052620283077f2d70e6734fd5e0405ac12bd06c0e35dc8bbf9b8fc8cb72137e2af4c27ee11701558015610fdd576000805460ff60a81b19169055604051600181527f7f26b83ff96e1f2b6a682f133852f6798a09c465da95921460cefb38474024989060200160405180910390a15b505050505050565b805160209182012060015460408051601960f81b81860152600160f81b602182015260228101929092526042808301939093528051808303909301835260629091019052805191012090565b61103961290b565b6001600160a01b031661105561012d546001600160a01b031690565b6001600160a01b03161461107b5760405162461bcd60e51b8152600401610e0790614f10565b6001600160a01b0381166110c15760405162461bcd60e51b815260206004820152600d60248201526c125b9d985b1a59081d985d5b1d609a1b6044820152606401610e07565b610194546001600160a01b0316801561110657610163546110ed906001600160a01b0316826000612ce3565b61016254611106906001600160a01b0316826000612ce3565b61019480546001600160a01b0319166001600160a01b0384811691821790925561016354604051636eb1769f60e11b815230600482015260248101929092529091169063dd62ed3e9060440160206040518083038186803b15801561116a57600080fd5b505afa15801561117e573d6000803e3d6000fd5b505050506040513d601f19601f820116820180604052508101906111a29190614f45565b6111c057610163546111c0906001600160a01b031683600019612ce3565b61016254604051636eb1769f60e11b81523060048201526001600160a01b0384811660248301529091169063dd62ed3e9060440160206040518083038186803b15801561120c57600080fd5b505afa158015611220573d6000803e3d6000fd5b505050506040513d601f19601f820116820180604052508101906112449190614f45565b6112625761016254611262906001600160a01b031683600019612ce3565b5050565b61126e612e29565b50505050565b60008281526097602052604090206001015461128f81612eaa565b6112998383612ebb565b505050565b6112a661290b565b6001600160a01b03166112c261012d546001600160a01b031690565b6001600160a01b0316146112e85760405162461bcd60e51b8152600401610e0790614f10565b610167546112ff906001600160a01b031682612edd565b61016780546001600160a01b0319166001600160a01b0392909216919091179055565b61132a61290b565b6001600160a01b0316816001600160a01b0316146113a25760405162461bcd60e51b815260206004820152602f60248201527f416363657373436f6e74726f6c3a2063616e206f6e6c792072656e6f756e636560448201526e103937b632b9903337b91039b2b63360891b6064820152608401610e07565b6112628282612faf565b6113b461290b565b6001600160a01b03166113d061012d546001600160a01b031690565b6001600160a01b0316146113f65760405162461bcd60e51b8152600401610e0790614f10565b60fb5460ff1661143f5760405162461bcd60e51b815260206004820152601460248201527314185d5cd8589b194e881b9bdd081c185d5cd95960621b6044820152606401610e07565b611447612fd1565b6101635461016654604051636eb1769f60e11b81523060048201526001600160a01b03918216602482015291169063dd62ed3e9060440160206040518083038186803b15801561149657600080fd5b505afa1580156114aa573d6000803e3d6000fd5b505050506040513d601f19601f820116820180604052508101906114ce9190614f45565b6114f35761016654610163546114f3916001600160a01b039182169116600019612ce3565b6101625461016654604051636eb1769f60e11b81523060048201526001600160a01b03918216602482015291169063dd62ed3e9060440160206040518083038186803b15801561154257600080fd5b505afa158015611556573d6000803e3d6000fd5b505050506040513d601f19601f8201168201806040525081019061157a9190614f45565b61159f57610166546101625461159f916001600160a01b039182169116600019612ce3565b6101635461016754604051636eb1769f60e11b81523060048201526001600160a01b03918216602482015291169063dd62ed3e9060440160206040518083038186803b1580156115ee57600080fd5b505afa158015611602573d6000803e3d6000fd5b505050506040513d601f19601f820116820180604052508101906116269190614f45565b61164b57610167546101635461164b916001600160a01b039182169116600019612ce3565b6101625461016754604051636eb1769f60e11b81523060048201526001600160a01b03918216602482015291169063dd62ed3e9060440160206040518083038186803b15801561169a57600080fd5b505afa1580156116ae573d6000803e3d6000fd5b505050506040513d601f19601f820116820180604052508101906116d29190614f45565b6116f75761016754610162546116f7916001600160a01b039182169116600019612ce3565b565b60008051602061526283398151915261171181612eaa565b610193546040516343a463c760e01b81526001600160a01b0386811660048301526024820186905260448201859052610100909204909116906343a463c790606401600060405180830381600087803b15801561176d57600080fd5b505af1158015611781573d6000803e3d6000fd5b5050505050505050565b610167546001600160a01b031633146117d55760405162461bcd60e51b815260206004820152600c60248201526b4f6e6c79206342726964676560a01b6044820152606401610e07565b60008581526101686020526040902054610163546001600160a01b039182169186811691161415611834576001600160a01b0381166000908152610165602052604081208054869290611829908490614f74565b90915550610fdd9050565b610162546001600160a01b0386811691161415610fdd576001600160a01b0381166000908152610164602052604081208054869290611874908490614f74565b9091555050505050505050565b61188961290b565b6001600160a01b03166118a561012d546001600160a01b031690565b6001600160a01b0316146118cb5760405162461bcd60e51b8152600401610e0790614f10565b60005b82518110156112995760008382815181106118eb576118eb614f8c565b6020026020010151905082828151811061190757611907614f8c565b6020908102919091018101516001600160e01b0319909216600090815261016b90915260409020558061193981614fa2565b9150506118ce565b611949612e29565b5050505050565b61195861290b565b6001600160a01b031661197461012d546001600160a01b031690565b6001600160a01b03161461199a5760405162461bcd60e51b8152600401610e0790614f10565b815160005b8181101561126e5760008482815181106119bb576119bb614f8c565b602002602001015190508060001415611a085760405162461bcd60e51b815260206004820152600f60248201526e125b9d985b1a590818da185a5b9251608a1b6044820152606401610e07565b838281518110611a1a57611a1a614f8c565b602090810291909101810151600083815261016a9092526040909120805460ff191660018381811115611a4f57611a4f6145f6565b0217905550508080611a6090614fa2565b91505061199f565b6000611a72612e29565b5095945050505050565b611a8461290b565b6001600160a01b0316611aa061012d546001600160a01b031690565b6001600160a01b031614611ac65760405162461bcd60e51b8152600401610e0790614f10565b60005b8251811015611299576000838281518110611ae657611ae6614f8c565b60200260200101519050828281518110611b0257611b02614f8c565b602090810291909101810151600092835261016c90915260409091205580611b2981614fa2565b915050611ac9565b611b3961290b565b6001600160a01b0316611b5561012d546001600160a01b031690565b6001600160a01b031614611b7b5760405162461bcd60e51b8152600401610e0790614f10565b61015f80546001600160a01b0319166001600160a01b0392909216919091179055565b611ba661290b565b6001600160a01b0316611bc261012d546001600160a01b031690565b6001600160a01b031614611be85760405162461bcd60e51b8152600401610e0790614f10565b6116f7600061306a565b611bfa61290b565b6001600160a01b0316611c1661012d546001600160a01b031690565b6001600160a01b031614611c3c5760405162461bcd60e51b8152600401610e0790614f10565b6001600160a01b038116611c845760405162461bcd60e51b815260206004820152600f60248201526e496e76616c6964206164647265737360881b6044820152606401610e07565b61019580546001600160a01b0319166001600160a01b0392909216919091179055565b6000611cb1612e29565b50949350505050565b611cc261290b565b6001600160a01b0316611cde61012d546001600160a01b031690565b6001600160a01b031614611d045760405162461bcd60e51b8152600401610e0790614f10565b60fb5460ff1615611d275760405162461bcd60e51b8152600401610e0790614fbd565b611d2f6130bd565b6101665461016354611d4f916001600160a01b0391821691166000612ce3565b6101665461016254611d6f916001600160a01b0391821691166000612ce3565b6101675461016354611d8f916001600160a01b0391821691166000612ce3565b61016754610162546116f7916001600160a01b0391821691166000612ce3565b6000611db9612e29565b509392505050565b6000611dcb612e29565b509695505050505050565b611dde61290b565b6001600160a01b0316611dfa61012d546001600160a01b031690565b6001600160a01b031614611e205760405162461bcd60e51b8152600401610e0790614f10565b815160005b8181101561126e576000848281518110611e4157611e41614f8c565b602002602001015190508060001415611e8e5760405162461bcd60e51b815260206004820152600f60248201526e125b9d985b1a590818da185a5b9251608a1b6044820152606401610e07565b838281518110611ea057611ea0614f8c565b6020908102919091018101516000928352610169909152604090912080546001600160a01b0319166001600160a01b0390921691909117905580611ee381614fa2565b915050611e25565b600082815260c960205260408120611f039083613116565b9392505050565b60009182526097602090815260408084206001600160a01b0393909316845291905290205460ff1690565b611f3d61290b565b6001600160a01b0316611f5961012d546001600160a01b031690565b6001600160a01b031614611f7f5760405162461bcd60e51b8152600401610e0790614f10565b61016154611f96906001600160a01b031682613122565b61016180546001600160a01b0319166001600160a01b0392909216919091179055565b611fc161290b565b6001600160a01b0316611fdd61012d546001600160a01b031690565b6001600160a01b0316146120035760405162461bcd60e51b8152600401610e0790614f10565b6101665461201a906001600160a01b031682612edd565b61016680546001600160a01b0319166001600160a01b0392909216919091179055565b61204561290b565b6001600160a01b031661206161012d546001600160a01b031690565b6001600160a01b0316146120875760405162461bcd60e51b8152600401610e0790614f10565b6001600160a01b0381166120ce5760405162461bcd60e51b815260206004820152600e60248201526d1dd85b1b195d081a5b9d985b1a5960921b6044820152606401610e07565b61016d80546001600160a01b0319166001600160a01b0392909216919091179055565b611299612e29565b600061210760fb5460ff1690565b156121245760405162461bcd60e51b8152600401610e0790614fbd565b600061212e61290b565b6001600160a01b038116600090815261016060209081526040918290205491516bffffffffffffffffffffffff19606085901b169181019190915260348101829052605481018990526074810188905291925034916121a7906094016040516020818303038152906040528051906020012087876131aa565b6101935460ff161561222c57610193546040516343a463c760e01b81526001600160a01b038581166004830152602482018b9052604482018a9052610100909204909116906343a463c790606401600060405180830381600087803b15801561220f57600080fd5b505af1158015612223573d6000803e3d6000fd5b505050506122ac565b604080516001600160a01b038581166024830152604482018b905260648083018b90528351808403909101815260849092018352602080830180516001600160e01b03166343a463c760e01b9081179091526101925460008181526101699093529482205493946122a59490931691908590888361321e565b9095509250505b6122b7816001614f74565b6001600160a01b0384166000908152610160602052604090205581156122e1576122e18383613433565b505050949350505050565b6000806122f885610fe5565b90506001600160a01b0386163b156123545761234c86828787878080601f0160208091040260200160405190810160405280939291908181526020018383808284376000920191909152506134e692505050565b915050612463565b600080600061239887878080601f01602080910402602001604051908101604052809392919081815260200183838082843760009201829052509250613582915050565b6040517f19457468657265756d205369676e6564204d6573736167653a0a3332000000006020820152603c81018890529295509093509150600090605c0160408051601f198184030181528282528051602091820120600080855291840180845281905260ff88169284019290925260608301869052608083018590529092509060019060a0016020604051602081039080840390855afa158015612441573d6000803e3d6000fd5b5050604051601f1901516001600160a01b038d81169116149750505050505050505b949350505050565b600081815260c960205260408120610db7906135a0565b60008281526097602052604090206001015461249d81612eaa565b6112998383612faf565b6000808260018111156124bc576124bc6145f6565b1461254b5761016754604051632bdb981960e11b81526001600160a01b03868116600483015260248201869052909116906357b730329060440160206040518083038186803b15801561250e57600080fd5b505afa158015612522573d6000803e3d6000fd5b505050506040513d601f19601f820116820180604052508101906125469190614f45565b612463565b61016654604051632bdb981960e11b81526001600160a01b03868116600483015260248201869052909116906357b730329060440160206040518083038186803b15801561259857600080fd5b505afa1580156125ac573d6000803e3d6000fd5b505050506040513d601f19601f820116820180604052508101906124639190614f45565b6125d861290b565b6001600160a01b03166125f461012d546001600160a01b031690565b6001600160a01b03161461261a5760405162461bcd60e51b8152600401610e0790614f10565b61016d546116f7906001600160a01b031647613433565b600061263d600161291a565b90508015612659576000805460ff60a81b1916600160a81b1790555b6126616129ba565b6126796000610ec361012d546001600160a01b031690565b6126816129fd565b61268b60016135aa565b61016280546001600160a01b0319166001600160a01b03929092169190911790556126b660006135aa565b61016380546001600160a01b03199081166001600160a01b039384161790915561016d805482168b841617905561015f80549091169189169190911790556126fd86611f35565b61270685611fb9565b61270f8461129e565b61019580546001600160a01b0319166001600160a01b038b1617905561a8696101925546610192546101938054634e45415360005261016a6020527f6c585d855e16497087f6ed093c621ebf17e5140687c03b009023a4cdb199a0f4805460ff191660011790556001600160a01b03871661010002610100600160a81b031994909314939093166001600160a81b0319909316929092171790556127b282611031565b80156127fa576000805460ff60a81b19169055604051600181527f7f26b83ff96e1f2b6a682f133852f6798a09c465da95921460cefb38474024989060200160405180910390a15b505050505050505050565b61280d61290b565b6001600160a01b031661282961012d546001600160a01b031690565b6001600160a01b03161461284f5760405162461bcd60e51b8152600401610e0790614f10565b61285881613872565b50565b611262612e29565b61286b61290b565b6001600160a01b031661288761012d546001600160a01b031690565b6001600160a01b0316146128ad5760405162461bcd60e51b8152600401610e0790614f10565b61019380546001600160a01b0390921661010002610100600160a81b0319909216919091179055565b60006001600160e01b03198216637965db0b60e01b1480610db757506301ffc9a760e01b6001600160e01b0319831614610db7565b60006129156138ed565b905090565b60008054600160a81b900460ff1615612963578160ff16600114801561293f5750303b155b61295b5760405162461bcd60e51b8152600401610e0790614fe7565b506000919050565b60005460ff808416600160a01b90920416106129915760405162461bcd60e51b8152600401610e0790614fe7565b506000805460ff909216600160a01b0260ff60a01b19909216919091179055600190565b919050565b600054600160a81b900460ff166129e35760405162461bcd60e51b8152600401610e0790615035565b6116f76129ee61290b565b61306a565b6112628282612ebb565b600054600160a81b900460ff16612a265760405162461bcd60e51b8152600401610e0790615035565b612a8060007f47e79534a245952e8b16893a336b85a3d9ea9fa8c573f3d803afb92a794692184660408051602081019390935282015230606082015260800160405160208183030381529060405280519060200120905090565b600155565b600046634e454152811415612b05576001836001811115612aa857612aa86145f6565b1415612aca575073b12bfca5a55806aaf64e99521918a4bf0fc4080292915050565b6000836001811115612ade57612ade6145f6565b1415612b005750734988a896b1227218e4a686fde5eabdcabd91571f92915050565b612cda565b61a86a811415612b7b576001836001811115612b2357612b236145f6565b1415612b45575073a7d7079b0fead91f3e65f86e8915cb59c1a4c66492915050565b6000836001811115612b5957612b596145f6565b1415612b00575073c7198437980c041c805a1edcba50c1ce5db9511892915050565b6038811415612bf0576001836001811115612b9857612b986145f6565b1415612bba5750738ac76a51cc950d9822d68b83fe1ad97b32cd580d92915050565b6000836001811115612bce57612bce6145f6565b1415612b0057507355d398326f99059ff775485246999027b319795592915050565b6001811415612c65576001836001811115612c0d57612c0d6145f6565b1415612c2f575073a0b86991c6218b36c1d19d4a2e9eb0ce3606eb4892915050565b6000836001811115612c4357612c436145f6565b1415612b00575073dac17f958d2ee523a2206206994597c13d831ec792915050565b6089811415612cda576001836001811115612c8257612c826145f6565b1415612ca45750732791bca1f2de4661ed88a30c99a7a9449aa8417492915050565b6000836001811115612cb857612cb86145f6565b1415612cda575073c2132d05d31c914a87c6611c10748aeb04b58e8f92915050565b50600092915050565b801580612d6c5750604051636eb1769f60e11b81523060048201526001600160a01b03838116602483015284169063dd62ed3e9060440160206040518083038186803b158015612d3257600080fd5b505afa158015612d46573d6000803e3d6000fd5b505050506040513d601f19601f82011682018060405250810190612d6a9190614f45565b155b612dd75760405162461bcd60e51b815260206004820152603660248201527f5361666545524332303a20617070726f76652066726f6d206e6f6e2d7a65726f60448201527520746f206e6f6e2d7a65726f20616c6c6f77616e636560501b6064820152608401610e07565b604080516001600160a01b038416602482015260448082018490528251808303909101815260649091019091526020810180516001600160e01b031663095ea7b360e01b179052611299908490613921565b610195546040516060916000916001600160a01b0390911690612e4f9083903690615080565b600060405180830381855af49150503d8060008114612e8a576040519150601f19603f3d011682016040523d82523d6000602084013e612e8f565b606091505b505090506040513d6000823e818015612ea6573d82f35b3d82fd5b61285881612eb661290b565b6139f3565b612ec58282613a57565b600082815260c9602052604090206112999082613ade565b806001600160a01b0316826001600160a01b03161415612efb575050565b6001600160a01b03821615612f5457612f2260008051602061526283398151915283612faf565b61016354612f3b906001600160a01b0316836000612ce3565b61016254612f54906001600160a01b0316836000612ce3565b6001600160a01b0381161561126257612f7b600080516020615262833981519152826129f3565b61016254612f95906001600160a01b031682600019612ce3565b61016354611262906001600160a01b031682600019612ce3565b612fb98282613af3565b600082815260c9602052604090206112999082613b78565b60fb5460ff1661301a5760405162461bcd60e51b815260206004820152601460248201527314185d5cd8589b194e881b9bdd081c185d5cd95960621b6044820152606401610e07565b60fb805460ff191690557f5db9ee0a495bf2e6ff9c91a7834c1ba4fdd244a5e8aa4e537bd38aeae4b073aa61304d61290b565b6040516001600160a01b03909116815260200160405180910390a1565b61012d80546001600160a01b038381166001600160a01b0319831681179093556040519116919082907f8be0079c531659141344cd1fd0a4f28419497f9722a3daafe3b4186f6b6457e090600090a35050565b60fb5460ff16156130e05760405162461bcd60e51b8152600401610e0790614fbd565b60fb805460ff191660011790557f62e78cea01bee320cd4e420270b5ea74000d11b0c9f74754ebdbfc544b05a25861304d61290b565b6000611f038383613b8d565b806001600160a01b0316826001600160a01b03161415613140575050565b6001600160a01b038216156131815761016354613168906001600160a01b0316836000612ce3565b61016254613181906001600160a01b0316836000612ce3565b6001600160a01b038116156112625761016254612f95906001600160a01b031682600019612ce3565b61015f5460408051602081018690526131de926001600160a01b0316910160405160208183030381529060405284846122ec565b6112995760405162461bcd60e51b8152602060048201526011602482015270496e76616c6964207369676e617475726560781b6044820152606401610e07565b6000826001600160a01b0388166132705760405162461bcd60e51b8152602060048201526016602482015275125b9d985b1a59081d185c99d95d10dbdb9d1c9858dd60521b6044820152606401610e07565b60008060008b815261016a602052604090205460ff166001811115613297576132976145f6565b146132ae57610167546001600160a01b03166132bc565b610166546001600160a01b03165b90506000816001600160a01b031663bebc4f718c8c8c8c6040518563ffffffff1660e01b81526004016132f29493929190615090565b60206040518083038186803b15801561330a57600080fd5b505afa15801561331e573d6000803e3d6000fd5b505050506040513d601f19601f820116820180604052508101906133429190614f45565b610167549094508491506001600160a01b03838116911614156133a05760008b815261016c60209081526040808320546001600160e01b03198b16845261016b9092529091205461339391906150bd565b61339d9085614f74565b93505b841580156133ae5750838310155b15613425576133bd84846150dc565b9250816001600160a01b03166377cae758828d8d8d8d6040518663ffffffff1660e01b81526004016133f29493929190615090565b6000604051808303818588803b15801561340b57600080fd5b505af115801561341f573d6000803e3d6000fd5b50505050505b505097509795505050505050565b604080516000808252602082019092526001600160a01b03841690839060405161345d91906150f3565b60006040518083038185875af1925050503d806000811461349a576040519150601f19603f3d011682016040523d82523d6000602084013e61349f565b606091505b50509050806112995760405162461bcd60e51b8152602060048201526013602482015272115512081d1c985b9cd9995c8819985a5b1959606a1b6044820152606401610e07565b600080856001600160a01b031663e75235b86040518163ffffffff1660e01b815260040160206040518083038186803b15801561352257600080fd5b505afa158015613536573d6000803e3d6000fd5b505050506040513d601f19601f8201168201806040525081019061355a9190614f45565b90508061356b576000915050612463565b6135788686868685613bb7565b9695505050505050565b60419081029190910160208101516040820151919092015160ff1692565b6000610db7825490565b600046634e4541538114156136255760018360018111156135cd576135cd6145f6565b14156135ef575073cceca5c4a3355f8e7a0b7d2a7251eec012be7c5892915050565b6000836001811115613603576136036145f6565b1415612b00575073f9c249974c1acf96a59e5757cc9ba7035ce489b192915050565b61a86981141561369b576001836001811115613643576136436145f6565b14156136655750737acdaba7ee51c1c3f7c6d605cc26b1c9aab0495a92915050565b6000836001811115613679576136796145f6565b1415612b0057507378ae2880bd1672b49a33cf796cf53fe6db0ab01d92915050565b60618114156137105760018360018111156136b8576136b86145f6565b14156136da575073da14d11d2c7d79f167b6057de3d9cc25c2c488d592915050565b60008360018111156136ee576136ee6145f6565b1415612b005750731f326a8ca5399418a76ea0efa0403cbb00790c6792915050565b600481141561378557600183600181111561372d5761372d6145f6565b141561374f575073df5324ebe6f6b852ff5cbf73627ee137e907527692915050565b6000836001811115613763576137636145f6565b1415612b0057507321e48034753e490ff04f2f75f7caedf081b320d592915050565b610fa28114156137fb5760018360018111156137a3576137a36145f6565b14156137c5575073147abee959a578f2ae5f9bc996dcf6259ebd3a8992915050565b60008360018111156137d9576137d96145f6565b1415612b00575073b02068ae04bf5d184efde3583e09f2185a30da0e92915050565b62013881811415612cda57600183600181111561381a5761381a6145f6565b141561383c5750736600bec324ccdd12c70297311aefb37fafb1d68992915050565b6000836001811115613850576138506145f6565b1415612cda5750737e4c234b1d634db790592d1550816b19e862f74492915050565b61387a61290b565b6001600160a01b031661389661012d546001600160a01b031690565b6001600160a01b0316146138bc5760405162461bcd60e51b8152600401610e0790614f10565b6138d960006138d461012d546001600160a01b031690565b612faf565b6138e281613e13565b6128586000826129f3565b60006018361080159061390a57506000546001600160a01b031633145b1561391c575060131936013560601c90565b503390565b6000613976826040518060400160405280602081526020017f5361666545524332303a206c6f772d6c6576656c2063616c6c206661696c6564815250856001600160a01b0316613ecb9092919063ffffffff16565b8051909150156112995780806020019051810190613994919061510f565b6112995760405162461bcd60e51b815260206004820152602a60248201527f5361666545524332303a204552433230206f7065726174696f6e20646964206e6044820152691bdd081cdd58d8d9595960b21b6064820152608401610e07565b6139fd8282611f0a565b61126257613a15816001600160a01b03166014613eda565b613a20836020613eda565b604051602001613a31929190615131565b60408051601f198184030181529082905262461bcd60e51b8252610e0791600401614709565b613a618282611f0a565b6112625760008281526097602090815260408083206001600160a01b03851684529091529020805460ff19166001179055613a9a61290b565b6001600160a01b0316816001600160a01b0316837f2f8788117e7eff1d82e926ec794901d17c78024a50270940304540a733656f0d60405160405180910390a45050565b6000611f03836001600160a01b038416614075565b613afd8282611f0a565b156112625760008281526097602090815260408083206001600160a01b03851684529091529020805460ff19169055613b3461290b565b6001600160a01b0316816001600160a01b0316837ff6391f5c32d9c69d2a47ea670b442974b53935d1edc7fd64eb21e047a839171b60405160405180910390a45050565b6000611f03836001600160a01b0384166140c4565b6000826000018281548110613ba457613ba4614f8c565b9060005260206000200154905092915050565b6000613bc48260416150bd565b83511015613bd457506000613e0a565b600080876001600160a01b031663a0e67e2b6040518163ffffffff1660e01b815260040160006040518083038186803b158015613c1057600080fd5b505afa158015613c24573d6000803e3d6000fd5b505050506040513d6000823e601f3d908101601f19168201604052613c4c91908101906151a6565b905060008080805b87811015613dff5760418181028a0160208101516040820151919092015160ff169550909350915083613d2f579194508491613c918860416150bd565b821015613ca75760009650505050505050613e0a565b8851613cb4836020614f74565b1115613cc95760009650505050505050613e0a565b6020828a018101518a5190918290613ce2908690614f74565b613cec9190614f74565b1115613d02576000975050505050505050613e0a565b898301602001613d13888d836141b7565b613d2857600098505050505050505050613e0a565b5050613dd0565b6040517f19457468657265756d205369676e6564204d6573736167653a0a3332000000006020820152603c81018c9052600190605c0160408051601f198184030181528282528051602091820120600084529083018083525260ff871690820152606081018590526080810184905260a0016020604051602081039080840390855afa158015613dc3573d6000803e3d6000fd5b5050506020604051035195505b613dda85876141d1565b613ded5760009650505050505050613e0a565b80613df781614fa2565b915050613c54565b600196505050505050505b95945050505050565b613e1b61290b565b6001600160a01b0316613e3761012d546001600160a01b031690565b6001600160a01b031614613e5d5760405162461bcd60e51b8152600401610e0790614f10565b6001600160a01b038116613ec25760405162461bcd60e51b815260206004820152602660248201527f4f776e61626c653a206e6577206f776e657220697320746865207a65726f206160448201526564647265737360d01b6064820152608401610e07565b6128588161306a565b60606124638484600085614237565b60606000613ee98360026150bd565b613ef4906002614f74565b6001600160401b03811115613f0b57613f0b614490565b6040519080825280601f01601f191660200182016040528015613f35576020820181803683370190505b509050600360fc1b81600081518110613f5057613f50614f8c565b60200101906001600160f81b031916908160001a905350600f60fb1b81600181518110613f7f57613f7f614f8c565b60200101906001600160f81b031916908160001a9053506000613fa38460026150bd565b613fae906001614f74565b90505b6001811115614026576f181899199a1a9b1b9c1cb0b131b232b360811b85600f1660108110613fe257613fe2614f8c565b1a60f81b828281518110613ff857613ff8614f8c565b60200101906001600160f81b031916908160001a90535060049490941c9361401f81615234565b9050613fb1565b508315611f035760405162461bcd60e51b815260206004820181905260248201527f537472696e67733a20686578206c656e67746820696e73756666696369656e746044820152606401610e07565b60008181526001830160205260408120546140bc57508154600181810184556000848152602080822090930184905584548482528286019093526040902091909155610db7565b506000610db7565b600081815260018301602052604081205480156141ad5760006140e86001836150dc565b85549091506000906140fc906001906150dc565b905081811461416157600086600001828154811061411c5761411c614f8c565b906000526020600020015490508087600001848154811061413f5761413f614f8c565b6000918252602080832090910192909255918252600188019052604090208390555b85548690806141725761417261524b565b600190038181906000526020600020016000905590558560010160008681526020019081526020016000206000905560019350505050610db7565b6000915050610db7565b6000806141c384610fe5565b9050613e0a858286866134e6565b6000805b835181101561422d57826001600160a01b03168482815181106141fa576141fa614f8c565b60200260200101516001600160a01b0316141561421b576001915050610db7565b8061422581614fa2565b9150506141d5565b5060009392505050565b6060824710156142985760405162461bcd60e51b815260206004820152602660248201527f416464726573733a20696e73756666696369656e742062616c616e636520666f6044820152651c8818d85b1b60d21b6064820152608401610e07565b6001600160a01b0385163b6142ef5760405162461bcd60e51b815260206004820152601d60248201527f416464726573733a2063616c6c20746f206e6f6e2d636f6e74726163740000006044820152606401610e07565b600080866001600160a01b0316858760405161430b91906150f3565b60006040518083038185875af1925050503d8060008114614348576040519150601f19603f3d011682016040523d82523d6000602084013e61434d565b606091505b509150915061435d828286614368565b979650505050505050565b60608315614377575081611f03565b8251156143875782518084602001fd5b8160405162461bcd60e51b8152600401610e079190614709565b80356001600160e01b0319811681146129b557600080fd5b6000602082840312156143cb57600080fd5b611f03826143a1565b6001600160a01b038116811461285857600080fd5b6000602082840312156143fb57600080fd5b8135611f03816143d4565b600080600080600060a0868803121561441e57600080fd5b8535614429816143d4565b94506020860135614439816143d4565b93506040860135614449816143d4565b92506060860135614459816143d4565b91506080860135614469816143d4565b809150509295509295909350565b60006020828403121561448957600080fd5b5035919050565b634e487b7160e01b600052604160045260246000fd5b604051601f8201601f191681016001600160401b03811182821017156144ce576144ce614490565b604052919050565b600082601f8301126144e757600080fd5b81356001600160401b0381111561450057614500614490565b614513601f8201601f19166020016144a6565b81815284602083860101111561452857600080fd5b816020850160208301376000918101602001919091529392505050565b60006020828403121561455757600080fd5b81356001600160401b0381111561456d57600080fd5b612463848285016144d6565b8035600281106129b557600080fd5b60008060006060848603121561459d57600080fd5b83356145a8816143d4565b9250602084013591506145bd60408501614579565b90509250925092565b600080604083850312156145d957600080fd5b8235915060208301356145eb816143d4565b809150509250929050565b634e487b7160e01b600052602160045260246000fd5b602081016002831061462e57634e487b7160e01b600052602160045260246000fd5b91905290565b60008060006060848603121561464957600080fd5b8335614654816143d4565b95602085013595506040909401359392505050565b600080600080600060a0868803121561468157600080fd5b853594506020860135614693816143d4565b935060408601359250606086013591506080860135614469816143d4565b60005b838110156146cc5781810151838201526020016146b4565b8381111561126e5750506000910152565b600081518084526146f58160208601602086016146b1565b601f01601f19169290920160200192915050565b602081526000611f0360208301846146dd565b60006001600160401b0382111561473557614735614490565b5060051b60200190565b600082601f83011261475057600080fd5b813560206147656147608361471c565b6144a6565b82815260059290921b8401810191818101908684111561478457600080fd5b8286015b84811015611dcb5780358352918301918301614788565b600080604083850312156147b257600080fd5b82356001600160401b03808211156147c957600080fd5b818501915085601f8301126147dd57600080fd5b813560206147ed6147608361471c565b82815260059290921b8401810191818101908984111561480c57600080fd5b948201945b8386101561483157614822866143a1565b82529482019490820190614811565b9650508601359250508082111561484757600080fd5b506148548582860161473f565b9150509250929050565b600082601f83011261486f57600080fd5b8135602061487f6147608361471c565b82815260059290921b8401810191818101908684111561489e57600080fd5b8286015b84811015611dcb5780356148b5816143d4565b83529183019183016148a2565b600080600080608085870312156148d857600080fd5b84356148e3816143d4565b935060208501356001600160401b03808211156148ff57600080fd5b61490b8883890161485e565b9450604087013591508082111561492157600080fd5b5061492e8782880161473f565b949793965093946060013593505050565b600082601f83011261495057600080fd5b813560206149606147608361471c565b82815260059290921b8401810191818101908684111561497f57600080fd5b8286015b84811015611dcb5761499481614579565b8352918301918301614983565b600080604083850312156149b457600080fd5b82356001600160401b03808211156149cb57600080fd5b6149d78683870161473f565b935060208501359150808211156149ed57600080fd5b506148548582860161493f565b60008083601f840112614a0c57600080fd5b5081356001600160401b03811115614a2357600080fd5b602083019150836020828501011115614a3b57600080fd5b9250929050565b600080600080600060808688031215614a5a57600080fd5b85356001600160401b0380821115614a7157600080fd5b614a7d89838a0161473f565b965060208801359550604088013594506060880135915080821115614aa157600080fd5b50614aae888289016149fa565b969995985093965092949392505050565b600080600060408486031215614ad457600080fd5b8335925060208401356001600160401b03811115614af157600080fd5b614afd868287016149fa565b9497909650939450505050565b60008060408385031215614b1d57600080fd5b82356001600160401b0380821115614b3457600080fd5b614b408683870161473f565b9350602085013591508082111561484757600080fd5b60008060008060608587031215614b6c57600080fd5b843593506020850135925060408501356001600160401b03811115614b9057600080fd5b614b9c878288016149fa565b95989497509550505050565b60008060008060008060a08789031215614bc157600080fd5b86356001600160401b0380821115614bd857600080fd5b614be48a838b0161473f565b97506020890135915080821115614bfa57600080fd5b614c068a838b0161485e565b96506040890135915080821115614c1c57600080fd5b614c288a838b0161473f565b9550606089013594506080890135915080821115614c4557600080fd5b50614c5289828a016149fa565b979a9699509497509295939492505050565b60008060408385031215614c7757600080fd5b82356001600160401b0380821115614c8e57600080fd5b614c9a8683870161473f565b93506020850135915080821115614cb057600080fd5b506148548582860161485e565b60008060408385031215614cd057600080fd5b50508035926020909101359150565b60008060008060608587031215614cf557600080fd5b84356001600160401b0380821115614d0c57600080fd5b614d188883890161473f565b95506020870135915080821115614d2e57600080fd5b614d3a8883890161493f565b94506040870135915080821115614d5057600080fd5b50614b9c878288016149fa565b60008060408385031215614d7057600080fd5b8235614d7b816143d4565b946020939093013593505050565b60008060008060608587031215614d9f57600080fd5b8435614daa816143d4565b935060208501356001600160401b0380821115614dc657600080fd5b614d3a888389016144d6565b600080600080600060808688031215614dea57600080fd5b85356001600160401b0380821115614e0157600080fd5b614e0d89838a0161473f565b96506020880135915080821115614e2357600080fd5b614e2f89838a0161473f565b95506040880135915080821115614e4557600080fd5b614e5189838a0161493f565b94506060880135915080821115614aa157600080fd5b600080600080600080600080610100898b031215614e8457600080fd5b8835614e8f816143d4565b97506020890135614e9f816143d4565b96506040890135614eaf816143d4565b95506060890135614ebf816143d4565b94506080890135614ecf816143d4565b935060a0890135614edf816143d4565b925060c0890135614eef816143d4565b915060e0890135614eff816143d4565b809150509295985092959890939650565b6020808252818101527f4f776e61626c653a2063616c6c6572206973206e6f7420746865206f776e6572604082015260600190565b600060208284031215614f5757600080fd5b5051919050565b634e487b7160e01b600052601160045260246000fd5b60008219821115614f8757614f87614f5e565b500190565b634e487b7160e01b600052603260045260246000fd5b6000600019821415614fb657614fb6614f5e565b5060010190565b60208082526010908201526f14185d5cd8589b194e881c185d5cd95960821b604082015260600190565b6020808252602e908201527f496e697469616c697a61626c653a20636f6e747261637420697320616c72656160408201526d191e481a5b9a5d1a585b1a5e995960921b606082015260800190565b6020808252602b908201527f496e697469616c697a61626c653a20636f6e7472616374206973206e6f74206960408201526a6e697469616c697a696e6760a81b606082015260800190565b8183823760009101908152919050565b84815260018060a01b038416602082015282604082015260806060820152600061357860808301846146dd565b60008160001904831182151516156150d7576150d7614f5e565b500290565b6000828210156150ee576150ee614f5e565b500390565b600082516151058184602087016146b1565b9190910192915050565b60006020828403121561512157600080fd5b81518015158114611f0357600080fd5b7f416363657373436f6e74726f6c3a206163636f756e74200000000000000000008152600083516151698160178501602088016146b1565b7001034b99036b4b9b9b4b733903937b6329607d1b601791840191820152835161519a8160288401602088016146b1565b01602801949350505050565b600060208083850312156151b957600080fd5b82516001600160401b038111156151cf57600080fd5b8301601f810185136151e057600080fd5b80516151ee6147608261471c565b81815260059190911b8201830190838101908783111561520d57600080fd5b928401925b8284101561435d578351615225816143d4565b82529284019290840190615212565b60008161524357615243614f5e565b506000190190565b634e487b7160e01b600052603160045260246000fdfedbeb657137b1822b3d5418bea6fd641226d964b4c3871ef23546db2622258871a26469706673582212205d2160086f05d4f49ba5b8d7650d70e2a776177dd4e45f2a675f374fad01456f64736f6c63430008090033",
  "devdoc": {
    "kind": "dev",
    "methods": {
      "burn(uint256,uint256,bytes)": {
        "details": "It calls burnByAdmin of BNIMinter.",
        "params": {
          "_pool": "total pool in USD",
          "_share": "amount of shares"
        }
      },
      "deposit(uint256[],address[],uint256[],uint256,bytes)": {
        "details": "It calls depositByAdmin of BNIVaults."
      },
      "exitWithdrawal(uint256,bytes)": {
        "details": "It calls exitWithdrawalByAdmin of BNIMinter.",
        "params": {
          "_gatheredAmount": "is the amount of token that is gathered."
        }
      },
      "gather(uint256[],uint8[],bytes)": {
        "details": "It gathers withdrawn tokens of the user from user agents."
      },
      "getMessageHashForSafe(bytes)": {
        "details": "Returns hash of a message that can be signed by owners.",
        "params": {
          "message": "Message that should be hashed"
        },
        "returns": {
          "_0": "Message hash."
        }
      },
      "getRoleAdmin(bytes32)": {
        "details": "Returns the admin role that controls `role`. See {grantRole} and {revokeRole}. To change a role's admin, use {_setRoleAdmin}."
      },
      "getRoleMember(bytes32,uint256)": {
        "details": "Returns one of the accounts that have `role`. `index` must be a value between 0 and {getRoleMemberCount}, non-inclusive. Role bearers are not sorted in any particular way, and their ordering may change at any point. WARNING: When using {getRoleMember} and {getRoleMemberCount}, make sure you perform all queries on the same block. See the following https://forum.openzeppelin.com/t/iterating-over-elements-on-enumerableset-in-openzeppelin-contracts/2296[forum post] for more information."
      },
      "getRoleMemberCount(bytes32)": {
        "details": "Returns the number of accounts that have `role`. Can be used together with {getRoleMember} to enumerate all bearers of a role."
      },
      "grantRole(bytes32,address)": {
        "details": "Grants `role` to `account`. If `account` had not been already granted `role`, emits a {RoleGranted} event. Requirements: - the caller must have ``role``'s admin role."
      },
      "hasRole(bytes32,address)": {
        "details": "Returns `true` if `account` has been granted `role`."
      },
      "initDeposit(uint256,uint256,bytes)": {
        "details": "It calls initDepositByAdmin of BNIMinter.",
        "params": {
          "_USDT6Amt": "USDT with 6 decimals to be deposited",
          "_pool": "total pool in USD"
        }
      },
      "mint(uint256,bytes)": {
        "details": "It calls mintByAdmin of BNIMinter."
      },
      "owner()": {
        "details": "Returns the address of the current owner."
      },
      "paused()": {
        "details": "Returns true if the contract is paused, and false otherwise."
      },
      "renounceOwnership()": {
        "details": "Leaves the contract without owner. It will not be possible to call `onlyOwner` functions anymore. Can only be called by the current owner. NOTE: Renouncing ownership will leave the contract without an owner, thereby removing any functionality that is only available to the owner."
      },
      "renounceRole(bytes32,address)": {
        "details": "Revokes `role` from the calling account. Roles are often managed via {grantRole} and {revokeRole}: this function's purpose is to provide a mechanism for accounts to lose their privileges if they are compromised (such as when a trusted device is misplaced). If the calling account had been revoked `role`, emits a {RoleRevoked} event. Requirements: - the caller must be `account`."
      },
      "revokeRole(bytes32,address)": {
        "details": "Revokes `role` from `account`. If `account` had been granted `role`, emits a {RoleRevoked} event. Requirements: - the caller must have ``role``'s admin role."
      },
      "setSubImpl(address)": {
        "details": "Delegate to sub contract"
      },
      "supportsInterface(bytes4)": {
        "details": "See {IERC165-supportsInterface}."
      },
      "takeOut(uint256,bytes)": {
        "details": "It takes out tokens from this agent.",
        "params": {
          "_gatheredAmount": "is the amount of token that is gathered."
        }
      },
      "transfer(uint256[],uint256[],uint8[],bytes)": {
        "details": "It transfers tokens to user agents"
      },
      "withdraw(uint256[],uint256,uint256,bytes)": {
        "details": "It calls withdrawPercByAdmin of BNIVaults."
      }
    },
    "version": 1
  },
  "userdoc": {
    "kind": "user",
    "methods": {
      "exitWithdrawal(uint256,bytes)": {
        "notice": "_gatheredAmount doesn't include the balance which is withdrawan in this agent."
      },
      "isTrustedForwarder(address)": {
        "notice": "return if the forwarder is trusted to forward relayed transactions to us. the forwarder is required to verify the sender's signature, and verify the call is not a replay."
      },
      "onRefunded(uint256,address,uint256,uint256,address)": {
        "notice": "Never revert in this function. If not, cbridgeAdapter.executeMessageWithTransferRefund will be failed."
      },
      "takeOut(uint256,bytes)": {
        "notice": "_gatheredAmount doesn't include the balance which is withdrawan in this agent."
      }
    },
    "version": 1
  },
  "storageLayout": {
    "storage": [
      {
        "astId": 69975,
        "contract": "contracts/xchain/agent/BNIUserAgentTest.sol:BNIUserAgentTest",
        "label": "trustedForwarder",
        "offset": 0,
        "slot": "0",
        "type": "t_address"
      },
      {
        "astId": 713,
        "contract": "contracts/xchain/agent/BNIUserAgentTest.sol:BNIUserAgentTest",
        "label": "_initialized",
        "offset": 20,
        "slot": "0",
        "type": "t_uint8"
      },
      {
        "astId": 716,
        "contract": "contracts/xchain/agent/BNIUserAgentTest.sol:BNIUserAgentTest",
        "label": "_initializing",
        "offset": 21,
        "slot": "0",
        "type": "t_bool"
      },
      {
        "astId": 70515,
        "contract": "contracts/xchain/agent/BNIUserAgentTest.sol:BNIUserAgentTest",
        "label": "separator",
        "offset": 0,
        "slot": "1",
        "type": "t_bytes32"
      },
      {
        "astId": 70928,
        "contract": "contracts/xchain/agent/BNIUserAgentTest.sol:BNIUserAgentTest",
        "label": "__gap",
        "offset": 0,
        "slot": "2",
        "type": "t_array(t_uint256)49_storage"
      },
      {
        "astId": 3292,
        "contract": "contracts/xchain/agent/BNIUserAgentTest.sol:BNIUserAgentTest",
        "label": "__gap",
        "offset": 0,
        "slot": "51",
        "type": "t_array(t_uint256)50_storage"
      },
      {
        "astId": 3946,
        "contract": "contracts/xchain/agent/BNIUserAgentTest.sol:BNIUserAgentTest",
        "label": "__gap",
        "offset": 0,
        "slot": "101",
        "type": "t_array(t_uint256)50_storage"
      },
      {
        "astId": 184,
        "contract": "contracts/xchain/agent/BNIUserAgentTest.sol:BNIUserAgentTest",
        "label": "_roles",
        "offset": 0,
        "slot": "151",
        "type": "t_mapping(t_bytes32,t_struct(RoleData)179_storage)"
      },
      {
        "astId": 483,
        "contract": "contracts/xchain/agent/BNIUserAgentTest.sol:BNIUserAgentTest",
        "label": "__gap",
        "offset": 0,
        "slot": "152",
        "type": "t_array(t_uint256)49_storage"
      },
      {
        "astId": 33,
        "contract": "contracts/xchain/agent/BNIUserAgentTest.sol:BNIUserAgentTest",
        "label": "_roleMembers",
        "offset": 0,
        "slot": "201",
        "type": "t_mapping(t_bytes32,t_struct(AddressSet)4359_storage)"
      },
      {
        "astId": 143,
        "contract": "contracts/xchain/agent/BNIUserAgentTest.sol:BNIUserAgentTest",
        "label": "__gap",
        "offset": 0,
        "slot": "202",
        "type": "t_array(t_uint256)49_storage"
      },
      {
        "astId": 869,
        "contract": "contracts/xchain/agent/BNIUserAgentTest.sol:BNIUserAgentTest",
        "label": "_paused",
        "offset": 0,
        "slot": "251",
        "type": "t_bool"
      },
      {
        "astId": 958,
        "contract": "contracts/xchain/agent/BNIUserAgentTest.sol:BNIUserAgentTest",
        "label": "__gap",
        "offset": 0,
        "slot": "252",
        "type": "t_array(t_uint256)49_storage"
      },
      {
        "astId": 593,
        "contract": "contracts/xchain/agent/BNIUserAgentTest.sol:BNIUserAgentTest",
        "label": "_owner",
        "offset": 0,
        "slot": "301",
        "type": "t_address"
      },
      {
        "astId": 705,
        "contract": "contracts/xchain/agent/BNIUserAgentTest.sol:BNIUserAgentTest",
        "label": "__gap",
        "offset": 0,
        "slot": "302",
        "type": "t_array(t_uint256)49_storage"
      },
      {
        "astId": 60214,
        "contract": "contracts/xchain/agent/BNIUserAgentTest.sol:BNIUserAgentTest",
        "label": "admin",
        "offset": 0,
        "slot": "351",
        "type": "t_address"
      },
      {
        "astId": 60218,
        "contract": "contracts/xchain/agent/BNIUserAgentTest.sol:BNIUserAgentTest",
        "label": "nonces",
        "offset": 0,
        "slot": "352",
        "type": "t_mapping(t_address,t_uint256)"
      },
      {
        "astId": 60221,
        "contract": "contracts/xchain/agent/BNIUserAgentTest.sol:BNIUserAgentTest",
        "label": "swap",
        "offset": 0,
        "slot": "353",
        "type": "t_contract(ISwap)56041"
      },
      {
        "astId": 60224,
        "contract": "contracts/xchain/agent/BNIUserAgentTest.sol:BNIUserAgentTest",
        "label": "USDC",
        "offset": 0,
        "slot": "354",
        "type": "t_contract(IERC20Upgradeable)1707"
      },
      {
        "astId": 60227,
        "contract": "contracts/xchain/agent/BNIUserAgentTest.sol:BNIUserAgentTest",
        "label": "USDT",
        "offset": 0,
        "slot": "355",
        "type": "t_contract(IERC20Upgradeable)1707"
      },
      {
        "astId": 60231,
        "contract": "contracts/xchain/agent/BNIUserAgentTest.sol:BNIUserAgentTest",
        "label": "usdcBalances",
        "offset": 0,
        "slot": "356",
        "type": "t_mapping(t_address,t_uint256)"
      },
      {
        "astId": 60235,
        "contract": "contracts/xchain/agent/BNIUserAgentTest.sol:BNIUserAgentTest",
        "label": "usdtBalances",
        "offset": 0,
        "slot": "357",
        "type": "t_mapping(t_address,t_uint256)"
      },
      {
        "astId": 60238,
        "contract": "contracts/xchain/agent/BNIUserAgentTest.sol:BNIUserAgentTest",
        "label": "multichainAdapter",
        "offset": 0,
        "slot": "358",
        "type": "t_contract(IXChainAdapter)56366"
      },
      {
        "astId": 60241,
        "contract": "contracts/xchain/agent/BNIUserAgentTest.sol:BNIUserAgentTest",
        "label": "cbridgeAdapter",
        "offset": 0,
        "slot": "359",
        "type": "t_contract(IXChainAdapter)56366"
      },
      {
        "astId": 60245,
        "contract": "contracts/xchain/agent/BNIUserAgentTest.sol:BNIUserAgentTest",
        "label": "cbridgeSenders",
        "offset": 0,
        "slot": "360",
        "type": "t_mapping(t_uint256,t_address)"
      },
      {
        "astId": 60249,
        "contract": "contracts/xchain/agent/BNIUserAgentTest.sol:BNIUserAgentTest",
        "label": "userAgents",
        "offset": 0,
        "slot": "361",
        "type": "t_mapping(t_uint256,t_address)"
      },
      {
        "astId": 60254,
        "contract": "contracts/xchain/agent/BNIUserAgentTest.sol:BNIUserAgentTest",
        "label": "callAdapterTypes",
        "offset": 0,
        "slot": "362",
        "type": "t_mapping(t_uint256,t_enum(AdapterType)60188)"
      },
      {
        "astId": 60258,
        "contract": "contracts/xchain/agent/BNIUserAgentTest.sol:BNIUserAgentTest",
        "label": "gasAmounts",
        "offset": 0,
        "slot": "363",
        "type": "t_mapping(t_bytes4,t_uint256)"
      },
      {
        "astId": 60262,
        "contract": "contracts/xchain/agent/BNIUserAgentTest.sol:BNIUserAgentTest",
        "label": "gasCosts",
        "offset": 0,
        "slot": "364",
        "type": "t_mapping(t_uint256,t_uint256)"
      },
      {
        "astId": 60264,
        "contract": "contracts/xchain/agent/BNIUserAgentTest.sol:BNIUserAgentTest",
        "label": "treasuryWallet",
        "offset": 0,
        "slot": "365",
        "type": "t_address"
      },
      {
        "astId": 60987,
        "contract": "contracts/xchain/agent/BNIUserAgentTest.sol:BNIUserAgentTest",
        "label": "__gap",
        "offset": 0,
        "slot": "366",
        "type": "t_array(t_uint256)36_storage"
      },
      {
        "astId": 57154,
        "contract": "contracts/xchain/agent/BNIUserAgentTest.sol:BNIUserAgentTest",
        "label": "chainIdOnLP",
        "offset": 0,
        "slot": "402",
        "type": "t_uint256"
      },
      {
        "astId": 57156,
        "contract": "contracts/xchain/agent/BNIUserAgentTest.sol:BNIUserAgentTest",
        "label": "isLPChain",
        "offset": 0,
        "slot": "403",
        "type": "t_bool"
      },
      {
        "astId": 57159,
        "contract": "contracts/xchain/agent/BNIUserAgentTest.sol:BNIUserAgentTest",
        "label": "bniMinter",
        "offset": 1,
        "slot": "403",
        "type": "t_contract(IBNIMinter)10340"
      },
      {
        "astId": 57162,
        "contract": "contracts/xchain/agent/BNIUserAgentTest.sol:BNIUserAgentTest",
        "label": "bniVault",
        "offset": 0,
        "slot": "404",
        "type": "t_contract(IBNIVault)10387"
      },
      {
        "astId": 57164,
        "contract": "contracts/xchain/agent/BNIUserAgentTest.sol:BNIUserAgentTest",
        "label": "subImpl",
        "offset": 0,
        "slot": "405",
        "type": "t_address"
      }
    ],
    "types": {
      "t_address": {
        "encoding": "inplace",
        "label": "address",
        "numberOfBytes": "20"
      },
      "t_array(t_bytes32)dyn_storage": {
        "base": "t_bytes32",
        "encoding": "dynamic_array",
        "label": "bytes32[]",
        "numberOfBytes": "32"
      },
      "t_array(t_uint256)36_storage": {
        "base": "t_uint256",
        "encoding": "inplace",
        "label": "uint256[36]",
        "numberOfBytes": "1152"
      },
      "t_array(t_uint256)49_storage": {
        "base": "t_uint256",
        "encoding": "inplace",
        "label": "uint256[49]",
        "numberOfBytes": "1568"
      },
      "t_array(t_uint256)50_storage": {
        "base": "t_uint256",
        "encoding": "inplace",
        "label": "uint256[50]",
        "numberOfBytes": "1600"
      },
      "t_bool": {
        "encoding": "inplace",
        "label": "bool",
        "numberOfBytes": "1"
      },
      "t_bytes32": {
        "encoding": "inplace",
        "label": "bytes32",
        "numberOfBytes": "32"
      },
      "t_bytes4": {
        "encoding": "inplace",
        "label": "bytes4",
        "numberOfBytes": "4"
      },
      "t_contract(IBNIMinter)10340": {
        "encoding": "inplace",
        "label": "contract IBNIMinter",
        "numberOfBytes": "20"
      },
      "t_contract(IBNIVault)10387": {
        "encoding": "inplace",
        "label": "contract IBNIVault",
        "numberOfBytes": "20"
      },
      "t_contract(IERC20Upgradeable)1707": {
        "encoding": "inplace",
        "label": "contract IERC20Upgradeable",
        "numberOfBytes": "20"
      },
      "t_contract(ISwap)56041": {
        "encoding": "inplace",
        "label": "contract ISwap",
        "numberOfBytes": "20"
      },
      "t_contract(IXChainAdapter)56366": {
        "encoding": "inplace",
        "label": "contract IXChainAdapter",
        "numberOfBytes": "20"
      },
      "t_enum(AdapterType)60188": {
        "encoding": "inplace",
        "label": "enum BasicUserAgentBase.AdapterType",
        "numberOfBytes": "1"
      },
      "t_mapping(t_address,t_bool)": {
        "encoding": "mapping",
        "key": "t_address",
        "label": "mapping(address => bool)",
        "numberOfBytes": "32",
        "value": "t_bool"
      },
      "t_mapping(t_address,t_uint256)": {
        "encoding": "mapping",
        "key": "t_address",
        "label": "mapping(address => uint256)",
        "numberOfBytes": "32",
        "value": "t_uint256"
      },
      "t_mapping(t_bytes32,t_struct(AddressSet)4359_storage)": {
        "encoding": "mapping",
        "key": "t_bytes32",
        "label": "mapping(bytes32 => struct EnumerableSetUpgradeable.AddressSet)",
        "numberOfBytes": "32",
        "value": "t_struct(AddressSet)4359_storage"
      },
      "t_mapping(t_bytes32,t_struct(RoleData)179_storage)": {
        "encoding": "mapping",
        "key": "t_bytes32",
        "label": "mapping(bytes32 => struct AccessControlUpgradeable.RoleData)",
        "numberOfBytes": "32",
        "value": "t_struct(RoleData)179_storage"
      },
      "t_mapping(t_bytes32,t_uint256)": {
        "encoding": "mapping",
        "key": "t_bytes32",
        "label": "mapping(bytes32 => uint256)",
        "numberOfBytes": "32",
        "value": "t_uint256"
      },
      "t_mapping(t_bytes4,t_uint256)": {
        "encoding": "mapping",
        "key": "t_bytes4",
        "label": "mapping(bytes4 => uint256)",
        "numberOfBytes": "32",
        "value": "t_uint256"
      },
      "t_mapping(t_uint256,t_address)": {
        "encoding": "mapping",
        "key": "t_uint256",
        "label": "mapping(uint256 => address)",
        "numberOfBytes": "32",
        "value": "t_address"
      },
      "t_mapping(t_uint256,t_enum(AdapterType)60188)": {
        "encoding": "mapping",
        "key": "t_uint256",
        "label": "mapping(uint256 => enum BasicUserAgentBase.AdapterType)",
        "numberOfBytes": "32",
        "value": "t_enum(AdapterType)60188"
      },
      "t_mapping(t_uint256,t_uint256)": {
        "encoding": "mapping",
        "key": "t_uint256",
        "label": "mapping(uint256 => uint256)",
        "numberOfBytes": "32",
        "value": "t_uint256"
      },
      "t_struct(AddressSet)4359_storage": {
        "encoding": "inplace",
        "label": "struct EnumerableSetUpgradeable.AddressSet",
        "members": [
          {
            "astId": 4358,
            "contract": "contracts/xchain/agent/BNIUserAgentTest.sol:BNIUserAgentTest",
            "label": "_inner",
            "offset": 0,
            "slot": "0",
            "type": "t_struct(Set)4058_storage"
          }
        ],
        "numberOfBytes": "64"
      },
      "t_struct(RoleData)179_storage": {
        "encoding": "inplace",
        "label": "struct AccessControlUpgradeable.RoleData",
        "members": [
          {
            "astId": 176,
            "contract": "contracts/xchain/agent/BNIUserAgentTest.sol:BNIUserAgentTest",
            "label": "members",
            "offset": 0,
            "slot": "0",
            "type": "t_mapping(t_address,t_bool)"
          },
          {
            "astId": 178,
            "contract": "contracts/xchain/agent/BNIUserAgentTest.sol:BNIUserAgentTest",
            "label": "adminRole",
            "offset": 0,
            "slot": "1",
            "type": "t_bytes32"
          }
        ],
        "numberOfBytes": "64"
      },
      "t_struct(Set)4058_storage": {
        "encoding": "inplace",
        "label": "struct EnumerableSetUpgradeable.Set",
        "members": [
          {
            "astId": 4053,
            "contract": "contracts/xchain/agent/BNIUserAgentTest.sol:BNIUserAgentTest",
            "label": "_values",
            "offset": 0,
            "slot": "0",
            "type": "t_array(t_bytes32)dyn_storage"
          },
          {
            "astId": 4057,
            "contract": "contracts/xchain/agent/BNIUserAgentTest.sol:BNIUserAgentTest",
            "label": "_indexes",
            "offset": 0,
            "slot": "1",
            "type": "t_mapping(t_bytes32,t_uint256)"
          }
        ],
        "numberOfBytes": "64"
      },
      "t_uint256": {
        "encoding": "inplace",
        "label": "uint256",
        "numberOfBytes": "32"
      },
      "t_uint8": {
        "encoding": "inplace",
        "label": "uint8",
        "numberOfBytes": "1"
      }
    }
  }
}