{
  "address": "0x65a8943a06e22eb2a3e36fc85392a9eaeaddf446",
  "abi": [
    {
      "anonymous": false,
      "inputs": [
        {
          "indexed": false,
          "internalType": "uint8",
          "name": "version",
          "type": "uint8"
        }
      ],
      "name": "Initialized",
      "type": "event"
    },
    {
      "anonymous": false,
      "inputs": [
        {
          "indexed": true,
          "internalType": "address",
          "name": "previousOwner",
          "type": "address"
        },
        {
          "indexed": true,
          "internalType": "address",
          "name": "newOwner",
          "type": "address"
        }
      ],
      "name": "OwnershipTransferred",
      "type": "event"
    },
    {
      "anonymous": false,
      "inputs": [
        {
          "indexed": false,
          "internalType": "address",
          "name": "account",
          "type": "address"
        }
      ],
      "name": "Paused",
      "type": "event"
    },
    {
      "anonymous": false,
      "inputs": [
        {
          "indexed": true,
          "internalType": "bytes32",
          "name": "role",
          "type": "bytes32"
        },
        {
          "indexed": true,
          "internalType": "bytes32",
          "name": "previousAdminRole",
          "type": "bytes32"
        },
        {
          "indexed": true,
          "internalType": "bytes32",
          "name": "newAdminRole",
          "type": "bytes32"
        }
      ],
      "name": "RoleAdminChanged",
      "type": "event"
    },
    {
      "anonymous": false,
      "inputs": [
        {
          "indexed": true,
          "internalType": "bytes32",
          "name": "role",
          "type": "bytes32"
        },
        {
          "indexed": true,
          "internalType": "address",
          "name": "account",
          "type": "address"
        },
        {
          "indexed": true,
          "internalType": "address",
          "name": "sender",
          "type": "address"
        }
      ],
      "name": "RoleGranted",
      "type": "event"
    },
    {
      "anonymous": false,
      "inputs": [
        {
          "indexed": true,
          "internalType": "bytes32",
          "name": "role",
          "type": "bytes32"
        },
        {
          "indexed": true,
          "internalType": "address",
          "name": "account",
          "type": "address"
        },
        {
          "indexed": true,
          "internalType": "address",
          "name": "sender",
          "type": "address"
        }
      ],
      "name": "RoleRevoked",
      "type": "event"
    },
    {
      "anonymous": false,
      "inputs": [
        {
          "indexed": true,
          "internalType": "address",
          "name": "from",
          "type": "address"
        },
        {
          "indexed": false,
          "internalType": "address",
          "name": "token",
          "type": "address"
        },
        {
          "indexed": true,
          "internalType": "uint256",
          "name": "amount",
          "type": "uint256"
        },
        {
          "indexed": false,
          "internalType": "uint256",
          "name": "fromChainId",
          "type": "uint256"
        },
        {
          "indexed": true,
          "internalType": "uint256",
          "name": "toChainId",
          "type": "uint256"
        },
        {
          "indexed": false,
          "internalType": "address",
          "name": "to",
          "type": "address"
        },
        {
          "indexed": false,
          "internalType": "enum BasicUserAgentBase.AdapterType",
          "name": "adapterType",
          "type": "uint8"
        },
        {
          "indexed": false,
          "internalType": "uint256",
          "name": "nonce",
          "type": "uint256"
        }
      ],
      "name": "Transfer",
      "type": "event"
    },
    {
      "anonymous": false,
      "inputs": [
        {
          "indexed": false,
          "internalType": "address",
          "name": "account",
          "type": "address"
        }
      ],
      "name": "Unpaused",
      "type": "event"
    },
    {
      "inputs": [],
      "name": "ADAPTER_ROLE",
      "outputs": [
        {
          "internalType": "bytes32",
          "name": "",
          "type": "bytes32"
        }
      ],
      "stateMutability": "view",
      "type": "function"
    },
    {
      "inputs": [],
      "name": "DEFAULT_ADMIN_ROLE",
      "outputs": [
        {
          "internalType": "bytes32",
          "name": "",
          "type": "bytes32"
        }
      ],
      "stateMutability": "view",
      "type": "function"
    },
    {
      "inputs": [],
      "name": "USDC",
      "outputs": [
        {
          "internalType": "contract IERC20Upgradeable",
          "name": "",
          "type": "address"
        }
      ],
      "stateMutability": "view",
      "type": "function"
    },
    {
      "inputs": [],
      "name": "USDT",
      "outputs": [
        {
          "internalType": "contract IERC20Upgradeable",
          "name": "",
          "type": "address"
        }
      ],
      "stateMutability": "view",
      "type": "function"
    },
    {
      "inputs": [],
      "name": "admin",
      "outputs": [
        {
          "internalType": "address",
          "name": "",
          "type": "address"
        }
      ],
      "stateMutability": "view",
      "type": "function"
    },
    {
      "inputs": [],
      "name": "bniMinter",
      "outputs": [
        {
          "internalType": "contract IBNIMinter",
          "name": "",
          "type": "address"
        }
      ],
      "stateMutability": "view",
      "type": "function"
    },
    {
      "inputs": [],
      "name": "bniVault",
      "outputs": [
        {
          "internalType": "contract IBNIVault",
          "name": "",
          "type": "address"
        }
      ],
      "stateMutability": "view",
      "type": "function"
    },
    {
      "inputs": [
        {
          "internalType": "uint256",
          "name": "_pool",
          "type": "uint256"
        },
        {
          "internalType": "uint256",
          "name": "_share",
          "type": "uint256"
        },
        {
          "internalType": "bytes",
          "name": "_signature",
          "type": "bytes"
        }
      ],
      "name": "burn",
      "outputs": [
        {
          "internalType": "uint256",
          "name": "_feeAmt",
          "type": "uint256"
        }
      ],
      "stateMutability": "payable",
      "type": "function"
    },
    {
      "inputs": [
        {
          "internalType": "address",
          "name": "_account",
          "type": "address"
        },
        {
          "internalType": "uint256",
          "name": "_pool",
          "type": "uint256"
        },
        {
          "internalType": "uint256",
          "name": "_share",
          "type": "uint256"
        }
      ],
      "name": "burnByAdmin",
      "outputs": [],
      "stateMutability": "nonpayable",
      "type": "function"
    },
    {
      "inputs": [
        {
          "internalType": "uint256",
          "name": "",
          "type": "uint256"
        }
      ],
      "name": "callAdapterTypes",
      "outputs": [
        {
          "internalType": "enum BasicUserAgentBase.AdapterType",
          "name": "",
          "type": "uint8"
        }
      ],
      "stateMutability": "view",
      "type": "function"
    },
    {
      "inputs": [],
      "name": "cbridgeAdapter",
      "outputs": [
        {
          "internalType": "contract IXChainAdapter",
          "name": "",
          "type": "address"
        }
      ],
      "stateMutability": "view",
      "type": "function"
    },
    {
      "inputs": [
        {
          "internalType": "uint256",
          "name": "",
          "type": "uint256"
        }
      ],
      "name": "cbridgeSenders",
      "outputs": [
        {
          "internalType": "address",
          "name": "",
          "type": "address"
        }
      ],
      "stateMutability": "view",
      "type": "function"
    },
    {
      "inputs": [],
      "name": "chainIdOnLP",
      "outputs": [
        {
          "internalType": "uint256",
          "name": "",
          "type": "uint256"
        }
      ],
      "stateMutability": "view",
      "type": "function"
    },
    {
      "inputs": [
        {
          "internalType": "uint256[]",
          "name": "_toChainIds",
          "type": "uint256[]"
        },
        {
          "internalType": "address[]",
          "name": "_tokens",
          "type": "address[]"
        },
        {
          "internalType": "uint256[]",
          "name": "_USDTAmts",
          "type": "uint256[]"
        },
        {
          "internalType": "uint256",
          "name": "_minterNonce",
          "type": "uint256"
        },
        {
          "internalType": "bytes",
          "name": "_signature",
          "type": "bytes"
        }
      ],
      "name": "deposit",
      "outputs": [
        {
          "internalType": "uint256",
          "name": "_feeAmt",
          "type": "uint256"
        }
      ],
      "stateMutability": "payable",
      "type": "function"
    },
    {
      "inputs": [
        {
          "internalType": "address",
          "name": "_account",
          "type": "address"
        },
        {
          "internalType": "address[]",
          "name": "_tokens",
          "type": "address[]"
        },
        {
          "internalType": "uint256[]",
          "name": "_USDTAmts",
          "type": "uint256[]"
        },
        {
          "internalType": "uint256",
          "name": "_minterNonce",
          "type": "uint256"
        }
      ],
      "name": "depositByAgent",
      "outputs": [],
      "stateMutability": "nonpayable",
      "type": "function"
    },
    {
      "inputs": [
        {
          "internalType": "uint256",
          "name": "_gatheredAmount",
          "type": "uint256"
        },
        {
          "internalType": "bytes",
          "name": "_signature",
          "type": "bytes"
        }
      ],
      "name": "exitWithdrawal",
      "outputs": [
        {
          "internalType": "uint256",
          "name": "_feeAmt",
          "type": "uint256"
        }
      ],
      "stateMutability": "payable",
      "type": "function"
    },
    {
      "inputs": [
        {
          "internalType": "address",
          "name": "_account",
          "type": "address"
        }
      ],
      "name": "exitWithdrawalByAdmin",
      "outputs": [],
      "stateMutability": "nonpayable",
      "type": "function"
    },
    {
      "inputs": [
        {
          "internalType": "uint256[]",
          "name": "_fromChainIds",
          "type": "uint256[]"
        },
        {
          "internalType": "enum BasicUserAgentBase.AdapterType[]",
          "name": "_adapterTypes",
          "type": "uint8[]"
        },
        {
          "internalType": "bytes",
          "name": "_signature",
          "type": "bytes"
        }
      ],
      "name": "gather",
      "outputs": [
        {
          "internalType": "uint256",
          "name": "_feeAmt",
          "type": "uint256"
        }
      ],
      "stateMutability": "payable",
      "type": "function"
    },
    {
      "inputs": [
        {
          "internalType": "address",
          "name": "_account",
          "type": "address"
        },
        {
          "internalType": "uint256",
          "name": "_toChainId",
          "type": "uint256"
        },
        {
          "internalType": "enum BasicUserAgentBase.AdapterType",
          "name": "_adapterType",
          "type": "uint8"
        }
      ],
      "name": "gatherByAdmin",
      "outputs": [],
      "stateMutability": "nonpayable",
      "type": "function"
    },
    {
      "inputs": [
        {
          "internalType": "bytes",
          "name": "message",
          "type": "bytes"
        }
      ],
      "name": "getMessageHashForSafe",
      "outputs": [
        {
          "internalType": "bytes32",
          "name": "",
          "type": "bytes32"
        }
      ],
      "stateMutability": "view",
      "type": "function"
    },
    {
      "inputs": [
        {
          "internalType": "bytes32",
          "name": "role",
          "type": "bytes32"
        }
      ],
      "name": "getRoleAdmin",
      "outputs": [
        {
          "internalType": "bytes32",
          "name": "",
          "type": "bytes32"
        }
      ],
      "stateMutability": "view",
      "type": "function"
    },
    {
      "inputs": [
        {
          "internalType": "bytes32",
          "name": "role",
          "type": "bytes32"
        },
        {
          "internalType": "uint256",
          "name": "index",
          "type": "uint256"
        }
      ],
      "name": "getRoleMember",
      "outputs": [
        {
          "internalType": "address",
          "name": "",
          "type": "address"
        }
      ],
      "stateMutability": "view",
      "type": "function"
    },
    {
      "inputs": [
        {
          "internalType": "bytes32",
          "name": "role",
          "type": "bytes32"
        }
      ],
      "name": "getRoleMemberCount",
      "outputs": [
        {
          "internalType": "uint256",
          "name": "",
          "type": "uint256"
        }
      ],
      "stateMutability": "view",
      "type": "function"
    },
    {
      "inputs": [
        {
          "internalType": "bytes32",
          "name": "role",
          "type": "bytes32"
        },
        {
          "internalType": "address",
          "name": "account",
          "type": "address"
        }
      ],
      "name": "grantRole",
      "outputs": [],
      "stateMutability": "nonpayable",
      "type": "function"
    },
    {
      "inputs": [
        {
          "internalType": "bytes32",
          "name": "role",
          "type": "bytes32"
        },
        {
          "internalType": "address",
          "name": "account",
          "type": "address"
        }
      ],
      "name": "hasRole",
      "outputs": [
        {
          "internalType": "bool",
          "name": "",
          "type": "bool"
        }
      ],
      "stateMutability": "view",
      "type": "function"
    },
    {
      "inputs": [
        {
          "internalType": "uint256",
          "name": "_pool",
          "type": "uint256"
        },
        {
          "internalType": "uint256",
          "name": "_USDT6Amt",
          "type": "uint256"
        },
        {
          "internalType": "bytes",
          "name": "_signature",
          "type": "bytes"
        }
      ],
      "name": "initDeposit",
      "outputs": [
        {
          "internalType": "uint256",
          "name": "_feeAmt",
          "type": "uint256"
        }
      ],
      "stateMutability": "payable",
      "type": "function"
    },
    {
      "inputs": [
        {
          "internalType": "address",
          "name": "_account",
          "type": "address"
        },
        {
          "internalType": "uint256",
          "name": "_pool",
          "type": "uint256"
        },
        {
          "internalType": "uint256",
          "name": "_USDT6Amt",
          "type": "uint256"
        }
      ],
      "name": "initDepositByAdmin",
      "outputs": [],
      "stateMutability": "nonpayable",
      "type": "function"
    },
    {
      "inputs": [
        {
          "internalType": "address",
          "name": "_admin",
          "type": "address"
        },
        {
          "internalType": "contract ISwap",
          "name": "_swap",
          "type": "address"
        },
        {
          "internalType": "contract IXChainAdapter",
          "name": "_multichainAdapter",
          "type": "address"
        },
        {
          "internalType": "contract IXChainAdapter",
          "name": "_cbridgeAdapter",
          "type": "address"
        }
      ],
      "name": "initialize",
      "outputs": [],
      "stateMutability": "nonpayable",
      "type": "function"
    },
    {
      "inputs": [
        {
          "internalType": "address",
          "name": "_subImpl",
          "type": "address"
        },
        {
          "internalType": "address",
          "name": "_admin",
          "type": "address"
        },
        {
          "internalType": "contract ISwap",
          "name": "_swap",
          "type": "address"
        },
        {
          "internalType": "contract IXChainAdapter",
          "name": "_multichainAdapter",
          "type": "address"
        },
        {
          "internalType": "contract IXChainAdapter",
          "name": "_cbridgeAdapter",
          "type": "address"
        },
        {
          "internalType": "contract IBNIMinter",
          "name": "_bniMinter",
          "type": "address"
        },
        {
          "internalType": "contract IBNIVault",
          "name": "_bniVault",
          "type": "address"
        }
      ],
      "name": "initialize1",
      "outputs": [],
      "stateMutability": "nonpayable",
      "type": "function"
    },
    {
      "inputs": [],
      "name": "isLPChain",
      "outputs": [
        {
          "internalType": "bool",
          "name": "",
          "type": "bool"
        }
      ],
      "stateMutability": "view",
      "type": "function"
    },
    {
      "inputs": [
        {
          "internalType": "address",
          "name": "forwarder",
          "type": "address"
        }
      ],
      "name": "isTrustedForwarder",
      "outputs": [
        {
          "internalType": "bool",
          "name": "",
          "type": "bool"
        }
      ],
      "stateMutability": "view",
      "type": "function"
    },
    {
      "inputs": [
        {
          "internalType": "address",
          "name": "_account",
          "type": "address"
        },
        {
          "internalType": "bytes",
          "name": "_data",
          "type": "bytes"
        },
        {
          "internalType": "bytes",
          "name": "_signature",
          "type": "bytes"
        }
      ],
      "name": "isValidSignature",
      "outputs": [
        {
          "internalType": "bool",
          "name": "",
          "type": "bool"
        }
      ],
      "stateMutability": "view",
      "type": "function"
    },
    {
      "inputs": [
        {
          "internalType": "uint256",
          "name": "_USDT6Amt",
          "type": "uint256"
        },
        {
          "internalType": "bytes",
          "name": "_signature",
          "type": "bytes"
        }
      ],
      "name": "mint",
      "outputs": [
        {
          "internalType": "uint256",
          "name": "_feeAmt",
          "type": "uint256"
        }
      ],
      "stateMutability": "payable",
      "type": "function"
    },
    {
      "inputs": [
        {
          "internalType": "address",
          "name": "_account",
          "type": "address"
        },
        {
          "internalType": "uint256",
          "name": "_USDT6Amt",
          "type": "uint256"
        }
      ],
      "name": "mintByAdmin",
      "outputs": [],
      "stateMutability": "nonpayable",
      "type": "function"
    },
    {
      "inputs": [],
      "name": "multichainAdapter",
      "outputs": [
        {
          "internalType": "contract IXChainAdapter",
          "name": "",
          "type": "address"
        }
      ],
      "stateMutability": "view",
      "type": "function"
    },
    {
      "inputs": [
        {
          "internalType": "address",
          "name": "",
          "type": "address"
        }
      ],
      "name": "nonces",
      "outputs": [
        {
          "internalType": "uint256",
          "name": "",
          "type": "uint256"
        }
      ],
      "stateMutability": "view",
      "type": "function"
    },
    {
      "inputs": [
        {
          "internalType": "uint256",
          "name": "_cbridgeNonce",
          "type": "uint256"
        },
        {
          "internalType": "address",
          "name": "_token",
          "type": "address"
        },
        {
          "internalType": "uint256",
          "name": "amount",
          "type": "uint256"
        },
        {
          "internalType": "uint256",
          "name": "",
          "type": "uint256"
        },
        {
          "internalType": "address",
          "name": "",
          "type": "address"
        }
      ],
      "name": "onRefunded",
      "outputs": [],
      "stateMutability": "nonpayable",
      "type": "function"
    },
    {
      "inputs": [],
      "name": "owner",
      "outputs": [
        {
          "internalType": "address",
          "name": "",
          "type": "address"
        }
      ],
      "stateMutability": "view",
      "type": "function"
    },
    {
      "inputs": [],
      "name": "pause",
      "outputs": [],
      "stateMutability": "nonpayable",
      "type": "function"
    },
    {
      "inputs": [],
      "name": "paused",
      "outputs": [
        {
          "internalType": "bool",
          "name": "",
          "type": "bool"
        }
      ],
      "stateMutability": "view",
      "type": "function"
    },
    {
      "inputs": [],
      "name": "renounceOwnership",
      "outputs": [],
      "stateMutability": "nonpayable",
      "type": "function"
    },
    {
      "inputs": [
        {
          "internalType": "bytes32",
          "name": "role",
          "type": "bytes32"
        },
        {
          "internalType": "address",
          "name": "account",
          "type": "address"
        }
      ],
      "name": "renounceRole",
      "outputs": [],
      "stateMutability": "nonpayable",
      "type": "function"
    },
    {
      "inputs": [
        {
          "internalType": "bytes32",
          "name": "role",
          "type": "bytes32"
        },
        {
          "internalType": "address",
          "name": "account",
          "type": "address"
        }
      ],
      "name": "revokeRole",
      "outputs": [],
      "stateMutability": "nonpayable",
      "type": "function"
    },
    {
      "inputs": [
        {
          "internalType": "address",
          "name": "_admin",
          "type": "address"
        }
      ],
      "name": "setAdmin",
      "outputs": [],
      "stateMutability": "nonpayable",
      "type": "function"
    },
    {
      "inputs": [
        {
          "internalType": "contract IBNIMinter",
          "name": "_bniMinter",
          "type": "address"
        }
      ],
      "name": "setBNIMinter",
      "outputs": [],
      "stateMutability": "nonpayable",
      "type": "function"
    },
    {
      "inputs": [
        {
          "internalType": "contract IBNIVault",
          "name": "_bniVault",
          "type": "address"
        }
      ],
      "name": "setBNIVault",
      "outputs": [],
      "stateMutability": "nonpayable",
      "type": "function"
    },
    {
      "inputs": [
        {
          "internalType": "address",
          "name": "_biconomy",
          "type": "address"
        }
      ],
      "name": "setBiconomy",
      "outputs": [],
      "stateMutability": "nonpayable",
      "type": "function"
    },
    {
      "inputs": [
        {
          "internalType": "contract IXChainAdapter",
          "name": "_cbridgeAdapter",
          "type": "address"
        }
      ],
      "name": "setCBridgeAdapter",
      "outputs": [],
      "stateMutability": "nonpayable",
      "type": "function"
    },
    {
      "inputs": [
        {
          "internalType": "uint256[]",
          "name": "_chainIds",
          "type": "uint256[]"
        },
        {
          "internalType": "enum BasicUserAgentBase.AdapterType[]",
          "name": "_adapterTypes",
          "type": "uint8[]"
        }
      ],
      "name": "setCallAdapterTypes",
      "outputs": [],
      "stateMutability": "nonpayable",
      "type": "function"
    },
    {
      "inputs": [
        {
          "internalType": "contract IXChainAdapter",
          "name": "_multichainAdapter",
          "type": "address"
        }
      ],
      "name": "setMultichainAdapter",
      "outputs": [],
      "stateMutability": "nonpayable",
      "type": "function"
    },
    {
      "inputs": [
        {
          "internalType": "address",
          "name": "_subImpl",
          "type": "address"
        }
      ],
      "name": "setSubImpl",
      "outputs": [],
      "stateMutability": "nonpayable",
      "type": "function"
    },
    {
      "inputs": [],
      "name": "setTemp",
      "outputs": [],
      "stateMutability": "nonpayable",
      "type": "function"
    },
    {
      "inputs": [
        {
          "internalType": "uint256[]",
          "name": "_chainIds",
          "type": "uint256[]"
        },
        {
          "internalType": "address[]",
          "name": "_userAgents",
          "type": "address[]"
        }
      ],
      "name": "setUserAgents",
      "outputs": [],
      "stateMutability": "nonpayable",
      "type": "function"
    },
    {
      "inputs": [],
      "name": "subImpl",
      "outputs": [
        {
          "internalType": "address",
          "name": "",
          "type": "address"
        }
      ],
      "stateMutability": "view",
      "type": "function"
    },
    {
      "inputs": [
        {
          "internalType": "bytes4",
          "name": "interfaceId",
          "type": "bytes4"
        }
      ],
      "name": "supportsInterface",
      "outputs": [
        {
          "internalType": "bool",
          "name": "",
          "type": "bool"
        }
      ],
      "stateMutability": "view",
      "type": "function"
    },
    {
      "inputs": [
        {
          "internalType": "uint256",
          "name": "_gatheredAmount",
          "type": "uint256"
        },
        {
          "internalType": "bytes",
          "name": "_signature",
          "type": "bytes"
        }
      ],
      "name": "takeOut",
      "outputs": [],
      "stateMutability": "nonpayable",
      "type": "function"
    },
    {
      "inputs": [
        {
          "internalType": "uint256[]",
          "name": "_amounts",
          "type": "uint256[]"
        },
        {
          "internalType": "uint256[]",
          "name": "_toChainIds",
          "type": "uint256[]"
        },
        {
          "internalType": "enum BasicUserAgentBase.AdapterType[]",
          "name": "_adapterTypes",
          "type": "uint8[]"
        },
        {
          "internalType": "bytes",
          "name": "_signature",
          "type": "bytes"
        }
      ],
      "name": "transfer",
      "outputs": [
        {
          "internalType": "uint256",
          "name": "_feeAmt",
          "type": "uint256"
        }
      ],
      "stateMutability": "payable",
      "type": "function"
    },
    {
      "inputs": [
        {
          "internalType": "address",
          "name": "newOwner",
          "type": "address"
        }
      ],
      "name": "transferOwnership",
      "outputs": [],
      "stateMutability": "nonpayable",
      "type": "function"
    },
    {
      "inputs": [],
      "name": "trustedForwarder",
      "outputs": [
        {
          "internalType": "address",
          "name": "",
          "type": "address"
        }
      ],
      "stateMutability": "view",
      "type": "function"
    },
    {
      "inputs": [],
      "name": "unpause",
      "outputs": [],
      "stateMutability": "nonpayable",
      "type": "function"
    },
    {
      "inputs": [
        {
          "internalType": "address",
          "name": "",
          "type": "address"
        }
      ],
      "name": "usdcBalances",
      "outputs": [
        {
          "internalType": "uint256",
          "name": "",
          "type": "uint256"
        }
      ],
      "stateMutability": "view",
      "type": "function"
    },
    {
      "inputs": [
        {
          "internalType": "address",
          "name": "",
          "type": "address"
        }
      ],
      "name": "usdtBalances",
      "outputs": [
        {
          "internalType": "uint256",
          "name": "",
          "type": "uint256"
        }
      ],
      "stateMutability": "view",
      "type": "function"
    },
    {
      "inputs": [
        {
          "internalType": "uint256",
          "name": "",
          "type": "uint256"
        }
      ],
      "name": "userAgents",
      "outputs": [
        {
          "internalType": "address",
          "name": "",
          "type": "address"
        }
      ],
      "stateMutability": "view",
      "type": "function"
    },
    {
      "inputs": [],
      "name": "versionRecipient",
      "outputs": [
        {
          "internalType": "string",
          "name": "",
          "type": "string"
        }
      ],
      "stateMutability": "pure",
      "type": "function"
    },
    {
      "inputs": [
        {
          "internalType": "uint256[]",
          "name": "_chainIds",
          "type": "uint256[]"
        },
        {
          "internalType": "uint256",
          "name": "_sharePerc",
          "type": "uint256"
        },
        {
          "internalType": "uint256",
          "name": "_minterNonce",
          "type": "uint256"
        },
        {
          "internalType": "bytes",
          "name": "_signature",
          "type": "bytes"
        }
      ],
      "name": "withdraw",
      "outputs": [
        {
          "internalType": "uint256",
          "name": "_feeAmt",
          "type": "uint256"
        }
      ],
      "stateMutability": "payable",
      "type": "function"
    },
    {
      "inputs": [
        {
          "internalType": "address",
          "name": "_account",
          "type": "address"
        },
        {
          "internalType": "uint256",
          "name": "_sharePerc",
          "type": "uint256"
        },
        {
          "internalType": "uint256",
          "name": "_minterNonce",
          "type": "uint256"
        }
      ],
      "name": "withdrawPercByAgent",
      "outputs": [],
      "stateMutability": "nonpayable",
      "type": "function"
    },
    {
      "stateMutability": "payable",
      "type": "receive"
    }
  ],
  "transactionHash": "0x84a28bb38e0ff5811f9183cd6ea3ce4aa10a15c4e69755e69645407995746df5",
  "args": [],
  "numDeployments": 3,
  "solcInputHash": "9ec5fef45cff5c628e27c09dec5539e7",
  "bytecode": "0x608060405234801561001057600080fd5b50614e1a806100206000396000f3fe6080604052600436106103dd5760003560e01c80638033a805116101fd578063b8a6752d11610118578063e629f7b3116100ab578063f77de4861161007a578063f77de48614610b86578063f7bb364c14610ba6578063f851a44014610bc1578063f8c8765e14610be2578063fc637c3c14610c0257600080fd5b8063e629f7b314610b14578063e9e81a6a14610b14578063f2ea161814610b2f578063f2fde38b14610b6657600080fd5b8063d1dbbc60116100e7578063d1dbbc6014610abb578063d547741f14610ace578063d843a40014610aee578063db7fd408146108db57600080fd5b8063b8a6752d14610a47578063c54e44eb14610a5a578063c7205bce14610a7b578063ca15c87314610a9b57600080fd5b80639010d07c11610190578063a217fddf1161015f578063a217fddf146109cf578063a99c68c5146109e4578063af3da2f414610a12578063b677bdb714610a3257600080fd5b80639010d07c14610961578063918f1a5c1461098157806391d148541461098f5780639e17747a146109af57600080fd5b806386355d96116101cc57806386355d96146108ee578063897fd4691461090157806389a30271146109215780638da5cb5b1461094257600080fd5b80638033a8051461089357806380a5a371146108b35780638456cb59146108c657806384762739146108db57600080fd5b806343a463c7116102f85780635f2b37371161028b5780636ebf33ce1161025a5780636ebf33ce146107d9578063704b6c0214610810578063715018a6146108305780637da0a877146108455780637ecebe001461086557600080fd5b80635f2b37371461076a57806363032feb1461078a5780636687977f146107ab5780636e5677ce146107be57600080fd5b806357cdd7f9116102c757806357cdd7f9146106e3578063582489cb14610704578063582712b1146107325780635c975abb1461075257600080fd5b806343a463c714610644578063472c38ff14610664578063486ff0cd14610684578063572b6c05146106b457600080fd5b8063278758a81161037057806336568abe1161033f57806336568abe146105b157806339dacedb146105d15780633f4ba83a1461060f5780634107c4f61461062457600080fd5b8063278758a81461053157806328054fb7146105515780632f2ff15d1461057157806331e8df891461059157600080fd5b80630d8b76a8116103ac5780630d8b76a8146104a857806319463093146104ca5780631a5787d8146104ea578063248a9ca31461050157600080fd5b8063013dee70146103e957806301ffc9a71461042757806302a882e6146104575780630c3a18211461048757600080fd5b366103e457005b600080fd5b3480156103f557600080fd5b506101955461040a906001600160a01b031681565b6040516001600160a01b0390911681526020015b60405180910390f35b34801561043357600080fd5b50610447610442366004613f7d565b610c22565b604051901515815260200161041e565b34801561046357600080fd5b50610479600080516020614dc583398151915281565b60405190815260200161041e565b34801561049357600080fd5b506101665461040a906001600160a01b031681565b3480156104b457600080fd5b506104c86104c3366004613fbc565b610c4d565b005b3480156104d657600080fd5b506104796104e536600461408e565b610cc2565b3480156104f657600080fd5b506104796101925481565b34801561050d57600080fd5b5061047961051c3660046140c2565b60009081526097602052604090206001015490565b34801561053d57600080fd5b506104c861054c366004613fbc565b610d0e565b34801561055d57600080fd5b506104c861056c3660046140ea565b610f43565b34801561057d57600080fd5b506104c861058c366004614128565b610f51565b34801561059d57600080fd5b506104c86105ac366004613fbc565b610f7b565b3480156105bd57600080fd5b506104c86105cc366004614128565b610fff565b3480156105dd57600080fd5b506106026105ec3660046140c2565b61016a6020526000908152604090205460ff1681565b60405161041e9190614190565b34801561061b57600080fd5b506104c8611089565b34801561063057600080fd5b506104c861063f36600461419e565b6113d6565b34801561065057600080fd5b506104c861065f366004614234565b6115a5565b34801561067057600080fd5b506104c861067f366004614269565b61162d565b34801561069057600080fd5b5060408051808201825260018152603160f81b6020820152905161041e9190614317565b3480156106c057600080fd5b506104476106cf366004613fbc565b6000546001600160a01b0391821691161490565b3480156106ef57600080fd5b506101675461040a906001600160a01b031681565b34801561071057600080fd5b5061047961071f366004613fbc565b6101656020526000908152604090205481565b34801561073e57600080fd5b506104c861074d366004614411565b611724565b34801561075e57600080fd5b5060fb5460ff16610447565b34801561077657600080fd5b506104c86107853660046144f0565b611733565b34801561079657600080fd5b506101945461040a906001600160a01b031681565b6104796107b936600461459b565b61184b565b3480156107ca57600080fd5b506104c861056c366004614618565b3480156107e557600080fd5b5061040a6107f43660046140c2565b610169602052600090815260409020546001600160a01b031681565b34801561081c57600080fd5b506104c861082b366004613fbc565b61185f565b34801561083c57600080fd5b506104c86118cc565b34801561085157600080fd5b5060005461040a906001600160a01b031681565b34801561087157600080fd5b50610479610880366004613fbc565b6101606020526000908152604090205481565b34801561089f57600080fd5b506104c86108ae366004613fbc565b611920565b6104796108c1366004614663565b6119d5565b3480156108d257600080fd5b506104c86119e8565b6104796108e9366004614618565b611add565b6104796108fc3660046146b5565b611aef565b34801561090d57600080fd5b506104c861091c366004614771565b611b04565b34801561092d57600080fd5b506101625461040a906001600160a01b031681565b34801561094e57600080fd5b5061012d546001600160a01b031661040a565b34801561096d57600080fd5b5061040a61097c3660046147ca565b611c19565b6104796108c13660046147ec565b34801561099b57600080fd5b506104476109aa366004614128565b611c38565b3480156109bb57600080fd5b506104c86109ca366004613fbc565b611c63565b3480156109db57600080fd5b50610479600081565b3480156109f057600080fd5b506104796109ff366004613fbc565b6101646020526000908152604090205481565b348015610a1e57600080fd5b506104c8610a2d36600461486a565b611ce7565b348015610a3e57600080fd5b506104c8611cef565b610479610a55366004614663565b611d5a565b348015610a6657600080fd5b506101635461040a906001600160a01b031681565b348015610a8757600080fd5b50610447610a96366004614896565b611f36565b348015610aa757600080fd5b50610479610ab63660046140c2565b6120b5565b610479610ac93660046148df565b6120cc565b348015610ada57600080fd5b506104c8610ae9366004614128565b612184565b348015610afa57600080fd5b506101935461040a9061010090046001600160a01b031681565b348015610b2057600080fd5b506104c861056c366004614234565b348015610b3b57600080fd5b5061040a610b4a3660046140c2565b610168602052600090815260409020546001600160a01b031681565b348015610b7257600080fd5b506104c8610b81366004613fbc565b6121a9565b348015610b9257600080fd5b506104c8610ba1366004613fbc565b6121ff565b348015610bb257600080fd5b50610193546104479060ff1681565b348015610bcd57600080fd5b5061015f5461040a906001600160a01b031681565b348015610bee57600080fd5b506104c8610bfd366004614974565b612207565b348015610c0e57600080fd5b506104c8610c1d366004613fbc565b61232a565b60006001600160e01b03198216635a05180f60e01b1480610c475750610c478261239d565b92915050565b610c556123d2565b6001600160a01b0316610c7161012d546001600160a01b031690565b6001600160a01b031614610ca05760405162461bcd60e51b8152600401610c97906149d0565b60405180910390fd5b600080546001600160a01b0319166001600160a01b0392909216919091179055565b805160209182012060015460408051601960f81b81860152600160f81b602182015260228101929092526042808301939093528051808303909301835260629091019052805191012090565b610d166123d2565b6001600160a01b0316610d3261012d546001600160a01b031690565b6001600160a01b031614610d585760405162461bcd60e51b8152600401610c97906149d0565b6001600160a01b038116610d9e5760405162461bcd60e51b815260206004820152600d60248201526c125b9d985b1a59081d985d5b1d609a1b6044820152606401610c97565b610194546001600160a01b03168015610de35761016354610dca906001600160a01b03168260006123e1565b61016254610de3906001600160a01b03168260006123e1565b61019480546001600160a01b0319166001600160a01b0384811691821790925561016354604051636eb1769f60e11b815230600482015260248101929092529091169063dd62ed3e9060440160206040518083038186803b158015610e4757600080fd5b505afa158015610e5b573d6000803e3d6000fd5b505050506040513d601f19601f82011682018060405250810190610e7f9190614a05565b610e9d5761016354610e9d906001600160a01b0316836000196123e1565b61016254604051636eb1769f60e11b81523060048201526001600160a01b0384811660248301529091169063dd62ed3e9060440160206040518083038186803b158015610ee957600080fd5b505afa158015610efd573d6000803e3d6000fd5b505050506040513d601f19601f82011682018060405250810190610f219190614a05565b610f3f5761016254610f3f906001600160a01b0316836000196123e1565b5050565b610f4b612538565b50505050565b600082815260976020526040902060010154610f6c816125b9565b610f7683836125ca565b505050565b610f836123d2565b6001600160a01b0316610f9f61012d546001600160a01b031690565b6001600160a01b031614610fc55760405162461bcd60e51b8152600401610c97906149d0565b61016754610fdc906001600160a01b0316826125ec565b61016780546001600160a01b0319166001600160a01b0392909216919091179055565b6110076123d2565b6001600160a01b0316816001600160a01b03161461107f5760405162461bcd60e51b815260206004820152602f60248201527f416363657373436f6e74726f6c3a2063616e206f6e6c792072656e6f756e636560448201526e103937b632b9903337b91039b2b63360891b6064820152608401610c97565b610f3f82826126be565b6110916123d2565b6001600160a01b03166110ad61012d546001600160a01b031690565b6001600160a01b0316146110d35760405162461bcd60e51b8152600401610c97906149d0565b60fb5460ff1661111c5760405162461bcd60e51b815260206004820152601460248201527314185d5cd8589b194e881b9bdd081c185d5cd95960621b6044820152606401610c97565b6111246126e0565b6101635461016654604051636eb1769f60e11b81523060048201526001600160a01b03918216602482015291169063dd62ed3e9060440160206040518083038186803b15801561117357600080fd5b505afa158015611187573d6000803e3d6000fd5b505050506040513d601f19601f820116820180604052508101906111ab9190614a05565b6111d05761016654610163546111d0916001600160a01b0391821691166000196123e1565b6101625461016654604051636eb1769f60e11b81523060048201526001600160a01b03918216602482015291169063dd62ed3e9060440160206040518083038186803b15801561121f57600080fd5b505afa158015611233573d6000803e3d6000fd5b505050506040513d601f19601f820116820180604052508101906112579190614a05565b61127c57610166546101625461127c916001600160a01b0391821691166000196123e1565b6101635461016754604051636eb1769f60e11b81523060048201526001600160a01b03918216602482015291169063dd62ed3e9060440160206040518083038186803b1580156112cb57600080fd5b505afa1580156112df573d6000803e3d6000fd5b505050506040513d601f19601f820116820180604052508101906113039190614a05565b611328576101675461016354611328916001600160a01b0391821691166000196123e1565b6101625461016754604051636eb1769f60e11b81523060048201526001600160a01b03918216602482015291169063dd62ed3e9060440160206040518083038186803b15801561137757600080fd5b505afa15801561138b573d6000803e3d6000fd5b505050506040513d601f19601f820116820180604052508101906113af9190614a05565b6113d45761016754610162546113d4916001600160a01b0391821691166000196123e1565b565b60006113e26001612779565b905080156113fe576000805460ff60a81b1916600160a81b1790555b611406612819565b611423600061141e61012d546001600160a01b031690565b612852565b61142b61285c565b61143560016128e4565b61016280546001600160a01b0319166001600160a01b039290921691909117905561146060006128e4565b61016380546001600160a01b03199081166001600160a01b039384161790915561015f805482168a841617905561016180549091169188169190911790556114a785611c63565b6114b084610f7b565b61019580546001600160a01b0319166001600160a01b038a1617905561a8696101925546610192546101938054634e45415360005261016a6020527f6c585d855e16497087f6ed093c621ebf17e5140687c03b009023a4cdb199a0f4805460ff191660011790556001600160a01b03871661010002610100600160a81b031994909314939093166001600160a81b03199093169290921717905561155382610d0e565b801561159b576000805460ff60a81b19169055604051600181527f7f26b83ff96e1f2b6a682f133852f6798a09c465da95921460cefb38474024989060200160405180910390a15b5050505050505050565b600080516020614dc58339815191526115bd816125b9565b610193546040516343a463c760e01b81526001600160a01b0386811660048301526024820186905260448201859052610100909204909116906343a463c790606401600060405180830381600087803b15801561161957600080fd5b505af115801561159b573d6000803e3d6000fd5b610167546001600160a01b031633146116775760405162461bcd60e51b815260206004820152600c60248201526b4f6e6c79206342726964676560a01b6044820152606401610c97565b60008581526101686020526040902054610163546001600160a01b0391821691868116911614156116d6576001600160a01b03811660009081526101656020526040812080548692906116cb908490614a34565b9091555061171c9050565b610162546001600160a01b038681169116141561171c576001600160a01b0381166000908152610164602052604081208054869290611716908490614a34565b90915550505b505050505050565b61172c612538565b5050505050565b61173b6123d2565b6001600160a01b031661175761012d546001600160a01b031690565b6001600160a01b03161461177d5760405162461bcd60e51b8152600401610c97906149d0565b815160005b81811015610f4b57600084828151811061179e5761179e614a4c565b6020026020010151905080600014156117eb5760405162461bcd60e51b815260206004820152600f60248201526e125b9d985b1a590818da185a5b9251608a1b6044820152606401610c97565b8382815181106117fd576117fd614a4c565b602090810291909101810151600083815261016a9092526040909120805460ff19166001838181111561183257611832614158565b021790555050808061184390614a62565b915050611782565b6000611855612538565b5095945050505050565b6118676123d2565b6001600160a01b031661188361012d546001600160a01b031690565b6001600160a01b0316146118a95760405162461bcd60e51b8152600401610c97906149d0565b61015f80546001600160a01b0319166001600160a01b0392909216919091179055565b6118d46123d2565b6001600160a01b03166118f061012d546001600160a01b031690565b6001600160a01b0316146119165760405162461bcd60e51b8152600401610c97906149d0565b6113d46000612bba565b6119286123d2565b6001600160a01b031661194461012d546001600160a01b031690565b6001600160a01b03161461196a5760405162461bcd60e51b8152600401610c97906149d0565b6001600160a01b0381166119b25760405162461bcd60e51b815260206004820152600f60248201526e496e76616c6964206164647265737360881b6044820152606401610c97565b61019580546001600160a01b0319166001600160a01b0392909216919091179055565b60006119df612538565b50949350505050565b6119f06123d2565b6001600160a01b0316611a0c61012d546001600160a01b031690565b6001600160a01b031614611a325760405162461bcd60e51b8152600401610c97906149d0565b60fb5460ff1615611a555760405162461bcd60e51b8152600401610c9790614a7d565b611a5d612c0d565b6101665461016354611a7d916001600160a01b03918216911660006123e1565b6101665461016254611a9d916001600160a01b03918216911660006123e1565b6101675461016354611abd916001600160a01b03918216911660006123e1565b61016754610162546113d4916001600160a01b03918216911660006123e1565b6000611ae7612538565b509392505050565b6000611af9612538565b509695505050505050565b611b0c6123d2565b6001600160a01b0316611b2861012d546001600160a01b031690565b6001600160a01b031614611b4e5760405162461bcd60e51b8152600401610c97906149d0565b815160005b81811015610f4b576000848281518110611b6f57611b6f614a4c565b602002602001015190508060001415611bbc5760405162461bcd60e51b815260206004820152600f60248201526e125b9d985b1a590818da185a5b9251608a1b6044820152606401610c97565b838281518110611bce57611bce614a4c565b6020908102919091018101516000928352610169909152604090912080546001600160a01b0319166001600160a01b0390921691909117905580611c1181614a62565b915050611b53565b600082815260c960205260408120611c319083612c66565b9392505050565b60009182526097602090815260408084206001600160a01b0393909316845291905290205460ff1690565b611c6b6123d2565b6001600160a01b0316611c8761012d546001600160a01b031690565b6001600160a01b031614611cad5760405162461bcd60e51b8152600401610c97906149d0565b61016654611cc4906001600160a01b0316826125ec565b61016680546001600160a01b0319166001600160a01b0392909216919091179055565b610f76612538565b611cf76123d2565b6001600160a01b0316611d1361012d546001600160a01b031690565b6001600160a01b031614611d395760405162461bcd60e51b8152600401610c97906149d0565b61a869610192554661019254610193805460ff191692909114919091179055565b6000611d6860fb5460ff1690565b15611d855760405162461bcd60e51b8152600401610c9790614a7d565b6000611d8f6123d2565b6001600160a01b038116600090815261016060209081526040918290205491516bffffffffffffffffffffffff19606085901b169181019190915260348101829052605481018990526074810188905291925090611e08906094015b604051602081830303815290604052805190602001208686612c72565b6101935460ff1615611e8d57610193546040516343a463c760e01b81526001600160a01b038481166004830152602482018a905260448201899052610100909204909116906343a463c790606401600060405180830381600087803b158015611e7057600080fd5b505af1158015611e84573d6000803e3d6000fd5b50505050611f04565b604080516001600160a01b038481166024830152604482018a905260648083018a90528351808403909101815260849092018352602080830180516001600160e01b03166343a463c760e01b179052610192546000818152610169909252938120549293611f0093909216908481612ce6565b9350505b611f0f816001614a34565b6001600160a01b039092166000908152610160602052604090209190915550949350505050565b600080611f4285610cc2565b90506001600160a01b0386163b15611f9e57611f9686828787878080601f016020809104026020016040519081016040528093929190818152602001838380828437600092019190915250612e8d92505050565b9150506120ad565b6000806000611fe287878080601f01602080910402602001604051908101604052809392919081815260200183838082843760009201829052509250612f29915050565b6040517f19457468657265756d205369676e6564204d6573736167653a0a3332000000006020820152603c81018890529295509093509150600090605c0160408051601f198184030181528282528051602091820120600080855291840180845281905260ff88169284019290925260608301869052608083018590529092509060019060a0016020604051602081039080840390855afa15801561208b573d6000803e3d6000fd5b5050604051601f1901516001600160a01b038d81169116149750505050505050505b949350505050565b600081815260c960205260408120610c4790612f47565b60006120da60fb5460ff1690565b156120f75760405162461bcd60e51b8152600401610c9790614a7d565b60006121016123d2565b6001600160a01b03811660009081526101606020908152604091829020549151929350909161213e91611deb91859185918d918d918d9101614ada565b61214a82898989612f51565b506000935061215c9050816001614a34565b6001600160a01b03909216600090815261016060205260409020919091555095945050505050565b60008281526097602052604090206001015461219f816125b9565b610f7683836126be565b6121b16123d2565b6001600160a01b03166121cd61012d546001600160a01b031690565b6001600160a01b0316146121f35760405162461bcd60e51b8152600401610c97906149d0565b6121fc816131c2565b50565b610f3f612538565b60006122136001612779565b9050801561222f576000805460ff60a81b1916600160a81b1790555b612237612819565b61224f600061141e61012d546001600160a01b031690565b61225761285c565b612261600161323d565b61016280546001600160a01b0319166001600160a01b039290921691909117905561228c600061323d565b61016380546001600160a01b03199081166001600160a01b039384161790915561015f8054821688841617905561016180549091169186169190911790556122d383611c63565b6122dc82610f7b565b801561172c576000805460ff60a81b19169055604051600181527f7f26b83ff96e1f2b6a682f133852f6798a09c465da95921460cefb38474024989060200160405180910390a15050505050565b6123326123d2565b6001600160a01b031661234e61012d546001600160a01b031690565b6001600160a01b0316146123745760405162461bcd60e51b8152600401610c97906149d0565b61019380546001600160a01b0390921661010002610100600160a81b0319909216919091179055565b60006001600160e01b03198216637965db0b60e01b1480610c4757506301ffc9a760e01b6001600160e01b0319831614610c47565b60006123dc61348d565b905090565b80158061246a5750604051636eb1769f60e11b81523060048201526001600160a01b03838116602483015284169063dd62ed3e9060440160206040518083038186803b15801561243057600080fd5b505afa158015612444573d6000803e3d6000fd5b505050506040513d601f19601f820116820180604052508101906124689190614a05565b155b6124d55760405162461bcd60e51b815260206004820152603660248201527f5361666545524332303a20617070726f76652066726f6d206e6f6e2d7a65726f60448201527520746f206e6f6e2d7a65726f20616c6c6f77616e636560501b6064820152608401610c97565b6040516001600160a01b038316602482015260448101829052610f7690849063095ea7b360e01b906064015b60408051601f198184030181529190526020810180516001600160e01b03166001600160e01b0319909316929092179091526134c1565b610195546040516060916000916001600160a01b039091169061255e9083903690614b4a565b600060405180830381855af49150503d8060008114612599576040519150601f19603f3d011682016040523d82523d6000602084013e61259e565b606091505b505090506040513d6000823e8180156125b5573d82f35b3d82fd5b6121fc816125c56123d2565b613593565b6125d482826135f7565b600082815260c960205260409020610f76908261367e565b806001600160a01b0316826001600160a01b0316141561260a575050565b6001600160a01b0382161561266357612631600080516020614dc5833981519152836126be565b6101635461264a906001600160a01b03168360006123e1565b61016254612663906001600160a01b03168360006123e1565b6001600160a01b03811615610f3f5761268a600080516020614dc583398151915282612852565b610162546126a4906001600160a01b0316826000196123e1565b61016354610f3f906001600160a01b0316826000196123e1565b6126c88282613693565b600082815260c960205260409020610f769082613718565b60fb5460ff166127295760405162461bcd60e51b815260206004820152601460248201527314185d5cd8589b194e881b9bdd081c185d5cd95960621b6044820152606401610c97565b60fb805460ff191690557f5db9ee0a495bf2e6ff9c91a7834c1ba4fdd244a5e8aa4e537bd38aeae4b073aa61275c6123d2565b6040516001600160a01b03909116815260200160405180910390a1565b60008054600160a81b900460ff16156127c2578160ff16600114801561279e5750303b155b6127ba5760405162461bcd60e51b8152600401610c9790614b5a565b506000919050565b60005460ff808416600160a01b90920416106127f05760405162461bcd60e51b8152600401610c9790614b5a565b506000805460ff909216600160a01b0260ff60a01b19909216919091179055600190565b919050565b600054600160a81b900460ff166128425760405162461bcd60e51b8152600401610c9790614ba8565b6113d461284d6123d2565b612bba565b610f3f82826125ca565b600054600160a81b900460ff166128855760405162461bcd60e51b8152600401610c9790614ba8565b6128df60007f47e79534a245952e8b16893a336b85a3d9ea9fa8c573f3d803afb92a794692184660408051602081019390935282015230606082015260800160405160208183030381529060405280519060200120905090565b600155565b600046634e45415381141561296457600183600181111561290757612907614158565b1415612929575073cceca5c4a3355f8e7a0b7d2a7251eec012be7c5892915050565b600083600181111561293d5761293d614158565b141561295f575073f9c249974c1acf96a59e5757cc9ba7035ce489b192915050565b612bb1565b61a8698114156129da57600183600181111561298257612982614158565b14156129a45750737acdaba7ee51c1c3f7c6d605cc26b1c9aab0495a92915050565b60008360018111156129b8576129b8614158565b141561295f57507378ae2880bd1672b49a33cf796cf53fe6db0ab01d92915050565b6061811415612a4f5760018360018111156129f7576129f7614158565b1415612a19575073da14d11d2c7d79f167b6057de3d9cc25c2c488d592915050565b6000836001811115612a2d57612a2d614158565b141561295f5750731f326a8ca5399418a76ea0efa0403cbb00790c6792915050565b6004811415612ac4576001836001811115612a6c57612a6c614158565b1415612a8e575073df5324ebe6f6b852ff5cbf73627ee137e907527692915050565b6000836001811115612aa257612aa2614158565b141561295f57507321e48034753e490ff04f2f75f7caedf081b320d592915050565b610fa2811415612b3a576001836001811115612ae257612ae2614158565b1415612b04575073147abee959a578f2ae5f9bc996dcf6259ebd3a8992915050565b6000836001811115612b1857612b18614158565b141561295f575073b02068ae04bf5d184efde3583e09f2185a30da0e92915050565b62013881811415612bb1576001836001811115612b5957612b59614158565b1415612b7b5750736600bec324ccdd12c70297311aefb37fafb1d68992915050565b6000836001811115612b8f57612b8f614158565b1415612bb15750737e4c234b1d634db790592d1550816b19e862f74492915050565b50600092915050565b61012d80546001600160a01b038381166001600160a01b0319831681179093556040519116919082907f8be0079c531659141344cd1fd0a4f28419497f9722a3daafe3b4186f6b6457e090600090a35050565b60fb5460ff1615612c305760405162461bcd60e51b8152600401610c9790614a7d565b60fb805460ff191660011790557f62e78cea01bee320cd4e420270b5ea74000d11b0c9f74754ebdbfc544b05a25861275c6123d2565b6000611c31838361372d565b61015f546040805160208101869052612ca6926001600160a01b031691016040516020818303038152906040528484611f36565b610f765760405162461bcd60e51b8152602060048201526011602482015270496e76616c6964207369676e617475726560781b6044820152606401610c97565b60006001600160a01b038516612d375760405162461bcd60e51b8152602060048201526016602482015275125b9d985b1a59081d185c99d95d10dbdb9d1c9858dd60521b6044820152606401610c97565b600080600088815261016a602052604090205460ff166001811115612d5e57612d5e614158565b14612d7557610167546001600160a01b0316612d83565b610166546001600160a01b03165b60405163bebc4f7160e01b81529091506001600160a01b0382169063bebc4f7190612db8908a908a908a908a90600401614bf3565b60206040518083038186803b158015612dd057600080fd5b505afa158015612de4573d6000803e3d6000fd5b505050506040513d601f19601f82011682018060405250810190612e089190614a05565b915082158015612e185750814710155b1561185557604051630ef95ceb60e31b81526001600160a01b038216906377cae758908490612e51908b908b908b908b90600401614bf3565b6000604051808303818588803b158015612e6a57600080fd5b505af1158015612e7e573d6000803e3d6000fd5b50505050505095945050505050565b600080856001600160a01b031663e75235b86040518163ffffffff1660e01b815260040160206040518083038186803b158015612ec957600080fd5b505afa158015612edd573d6000803e3d6000fd5b505050506040513d601f19601f82011682018060405250810190612f019190614a05565b905080612f125760009150506120ad565b612f1f8686868685613757565b9695505050505050565b60419081029190910160208101516040820151919092015160ff1692565b6000610c47825490565b8251606090600090806001600160401b03811115612f7157612f71613fd9565b604051908082528060200260200182016040528015612f9a578160200160208202803683370190505b50925046600080805b848110156131605760008a8281518110612fbf57612fbf614a4c565b6020026020010151905060008a8381518110612fdd57612fdd614a4c565b602002602001015190508581141561300057612ff98286614a34565b945061314b565b82881461313057818c898151811061301a5761301a614a4c565b602002602001018181525050808b898151811061303957613039614a4c565b60200260200101818152505089838151811061305757613057614a4c565b60200260200101518a898151811061307157613071614a4c565b6020026020010190600181111561308a5761308a614158565b9081600181111561309d5761309d614158565b905250600081815261016960205260409020546001600160a01b0316806130fb5760405162461bcd60e51b8152602060048201526012602482015271125b9d985b1a59081d5cd95c881859d95b9d60721b6044820152606401610c97565b808a8a8151811061310e5761310e614a4c565b60200260200101906001600160a01b031690816001600160a01b031681525050505b8761313a81614a62565b985061314890508285614a34565b93505b5050808061315890614a62565b915050612fa3565b506131858a306131708486614a34565b610163546001600160a01b03169291906139b3565b6001600160a01b038a1660009081526101656020526040812080548492906131ae908490614a34565b925050819055505050505094509492505050565b6131ca6123d2565b6001600160a01b03166131e661012d546001600160a01b031690565b6001600160a01b03161461320c5760405162461bcd60e51b8152600401610c97906149d0565b613229600061322461012d546001600160a01b031690565b6126be565b613232816139eb565b6121fc600082612852565b600046634e4541528114156132b857600183600181111561326057613260614158565b1415613282575073b12bfca5a55806aaf64e99521918a4bf0fc4080292915050565b600083600181111561329657613296614158565b141561295f5750734988a896b1227218e4a686fde5eabdcabd91571f92915050565b61a86a81141561332e5760018360018111156132d6576132d6614158565b14156132f8575073a7d7079b0fead91f3e65f86e8915cb59c1a4c66492915050565b600083600181111561330c5761330c614158565b141561295f575073c7198437980c041c805a1edcba50c1ce5db9511892915050565b60388114156133a357600183600181111561334b5761334b614158565b141561336d5750738ac76a51cc950d9822d68b83fe1ad97b32cd580d92915050565b600083600181111561338157613381614158565b141561295f57507355d398326f99059ff775485246999027b319795592915050565b60018114156134185760018360018111156133c0576133c0614158565b14156133e2575073a0b86991c6218b36c1d19d4a2e9eb0ce3606eb4892915050565b60008360018111156133f6576133f6614158565b141561295f575073dac17f958d2ee523a2206206994597c13d831ec792915050565b6089811415612bb157600183600181111561343557613435614158565b14156134575750732791bca1f2de4661ed88a30c99a7a9449aa8417492915050565b600083600181111561346b5761346b614158565b1415612bb1575073c2132d05d31c914a87c6611c10748aeb04b58e8f92915050565b6000601836108015906134aa57506000546001600160a01b031633145b156134bc575060131936013560601c90565b503390565b6000613516826040518060400160405280602081526020017f5361666545524332303a206c6f772d6c6576656c2063616c6c206661696c6564815250856001600160a01b0316613aa39092919063ffffffff16565b805190915015610f7657808060200190518101906135349190614c20565b610f765760405162461bcd60e51b815260206004820152602a60248201527f5361666545524332303a204552433230206f7065726174696f6e20646964206e6044820152691bdd081cdd58d8d9595960b21b6064820152608401610c97565b61359d8282611c38565b610f3f576135b5816001600160a01b03166014613ab2565b6135c0836020613ab2565b6040516020016135d1929190614c42565b60408051601f198184030181529082905262461bcd60e51b8252610c9791600401614317565b6136018282611c38565b610f3f5760008281526097602090815260408083206001600160a01b03851684529091529020805460ff1916600117905561363a6123d2565b6001600160a01b0316816001600160a01b0316837f2f8788117e7eff1d82e926ec794901d17c78024a50270940304540a733656f0d60405160405180910390a45050565b6000611c31836001600160a01b038416613c4d565b61369d8282611c38565b15610f3f5760008281526097602090815260408083206001600160a01b03851684529091529020805460ff191690556136d46123d2565b6001600160a01b0316816001600160a01b0316837ff6391f5c32d9c69d2a47ea670b442974b53935d1edc7fd64eb21e047a839171b60405160405180910390a45050565b6000611c31836001600160a01b038416613c9c565b600082600001828154811061374457613744614a4c565b9060005260206000200154905092915050565b6000613764826041614cb7565b83511015613774575060006139aa565b600080876001600160a01b031663a0e67e2b6040518163ffffffff1660e01b815260040160006040518083038186803b1580156137b057600080fd5b505afa1580156137c4573d6000803e3d6000fd5b505050506040513d6000823e601f3d908101601f191682016040526137ec9190810190614cd6565b905060008080805b8781101561399f5760418181028a0160208101516040820151919092015160ff1695509093509150836138cf579194508491613831886041614cb7565b82101561384757600096505050505050506139aa565b8851613854836020614a34565b111561386957600096505050505050506139aa565b6020828a018101518a5190918290613882908690614a34565b61388c9190614a34565b11156138a25760009750505050505050506139aa565b8983016020016138b3888d83613d8f565b6138c8576000985050505050505050506139aa565b5050613970565b6040517f19457468657265756d205369676e6564204d6573736167653a0a3332000000006020820152603c81018c9052600190605c0160408051601f198184030181528282528051602091820120600084529083018083525260ff871690820152606081018590526080810184905260a0016020604051602081039080840390855afa158015613963573d6000803e3d6000fd5b5050506020604051035195505b61397a8587613da9565b61398d57600096505050505050506139aa565b8061399781614a62565b9150506137f4565b600196505050505050505b95945050505050565b6040516001600160a01b0380851660248301528316604482015260648101829052610f4b9085906323b872dd60e01b90608401612501565b6139f36123d2565b6001600160a01b0316613a0f61012d546001600160a01b031690565b6001600160a01b031614613a355760405162461bcd60e51b8152600401610c97906149d0565b6001600160a01b038116613a9a5760405162461bcd60e51b815260206004820152602660248201527f4f776e61626c653a206e6577206f776e657220697320746865207a65726f206160448201526564647265737360d01b6064820152608401610c97565b6121fc81612bba565b60606120ad8484600085613e13565b60606000613ac1836002614cb7565b613acc906002614a34565b6001600160401b03811115613ae357613ae3613fd9565b6040519080825280601f01601f191660200182016040528015613b0d576020820181803683370190505b509050600360fc1b81600081518110613b2857613b28614a4c565b60200101906001600160f81b031916908160001a905350600f60fb1b81600181518110613b5757613b57614a4c565b60200101906001600160f81b031916908160001a9053506000613b7b846002614cb7565b613b86906001614a34565b90505b6001811115613bfe576f181899199a1a9b1b9c1cb0b131b232b360811b85600f1660108110613bba57613bba614a4c565b1a60f81b828281518110613bd057613bd0614a4c565b60200101906001600160f81b031916908160001a90535060049490941c93613bf781614d64565b9050613b89565b508315611c315760405162461bcd60e51b815260206004820181905260248201527f537472696e67733a20686578206c656e67746820696e73756666696369656e746044820152606401610c97565b6000818152600183016020526040812054613c9457508154600181810184556000848152602080822090930184905584548482528286019093526040902091909155610c47565b506000610c47565b60008181526001830160205260408120548015613d85576000613cc0600183614d7b565b8554909150600090613cd490600190614d7b565b9050818114613d39576000866000018281548110613cf457613cf4614a4c565b9060005260206000200154905080876000018481548110613d1757613d17614a4c565b6000918252602080832090910192909255918252600188019052604090208390555b8554869080613d4a57613d4a614d92565b600190038181906000526020600020016000905590558560010160008681526020019081526020016000206000905560019350505050610c47565b6000915050610c47565b600080613d9b84610cc2565b90506139aa85828686612e8d565b8151600090815b81811015613e0857836001600160a01b0316858281518110613dd457613dd4614a4c565b60200260200101516001600160a01b03161415613df657600192505050610c47565b80613e0081614a62565b915050613db0565b506000949350505050565b606082471015613e745760405162461bcd60e51b815260206004820152602660248201527f416464726573733a20696e73756666696369656e742062616c616e636520666f6044820152651c8818d85b1b60d21b6064820152608401610c97565b6001600160a01b0385163b613ecb5760405162461bcd60e51b815260206004820152601d60248201527f416464726573733a2063616c6c20746f206e6f6e2d636f6e74726163740000006044820152606401610c97565b600080866001600160a01b03168587604051613ee79190614da8565b60006040518083038185875af1925050503d8060008114613f24576040519150601f19603f3d011682016040523d82523d6000602084013e613f29565b606091505b5091509150613f39828286613f44565b979650505050505050565b60608315613f53575081611c31565b825115613f635782518084602001fd5b8160405162461bcd60e51b8152600401610c979190614317565b600060208284031215613f8f57600080fd5b81356001600160e01b031981168114611c3157600080fd5b6001600160a01b03811681146121fc57600080fd5b600060208284031215613fce57600080fd5b8135611c3181613fa7565b634e487b7160e01b600052604160045260246000fd5b604051601f8201601f191681016001600160401b038111828210171561401757614017613fd9565b604052919050565b600082601f83011261403057600080fd5b81356001600160401b0381111561404957614049613fd9565b61405c601f8201601f1916602001613fef565b81815284602083860101111561407157600080fd5b816020850160208301376000918101602001919091529392505050565b6000602082840312156140a057600080fd5b81356001600160401b038111156140b657600080fd5b6120ad8482850161401f565b6000602082840312156140d457600080fd5b5035919050565b80356002811061281457600080fd5b6000806000606084860312156140ff57600080fd5b833561410a81613fa7565b92506020840135915061411f604085016140db565b90509250925092565b6000806040838503121561413b57600080fd5b82359150602083013561414d81613fa7565b809150509250929050565b634e487b7160e01b600052602160045260246000fd5b6002811061418c57634e487b7160e01b600052602160045260246000fd5b9052565b60208101610c47828461416e565b600080600080600080600060e0888a0312156141b957600080fd5b87356141c481613fa7565b965060208801356141d481613fa7565b955060408801356141e481613fa7565b945060608801356141f481613fa7565b9350608088013561420481613fa7565b925060a088013561421481613fa7565b915060c088013561422481613fa7565b8091505092959891949750929550565b60008060006060848603121561424957600080fd5b833561425481613fa7565b95602085013595506040909401359392505050565b600080600080600060a0868803121561428157600080fd5b85359450602086013561429381613fa7565b9350604086013592506060860135915060808601356142b181613fa7565b809150509295509295909350565b60005b838110156142da5781810151838201526020016142c2565b83811115610f4b5750506000910152565b600081518084526143038160208601602086016142bf565b601f01601f19169290920160200192915050565b602081526000611c3160208301846142eb565b60006001600160401b0382111561434357614343613fd9565b5060051b60200190565b600082601f83011261435e57600080fd5b8135602061437361436e8361432a565b613fef565b82815260059290921b8401810191818101908684111561439257600080fd5b8286015b84811015611af95780356143a981613fa7565b8352918301918301614396565b600082601f8301126143c757600080fd5b813560206143d761436e8361432a565b82815260059290921b840181019181810190868411156143f657600080fd5b8286015b84811015611af957803583529183019183016143fa565b6000806000806080858703121561442757600080fd5b843561443281613fa7565b935060208501356001600160401b038082111561444e57600080fd5b61445a8883890161434d565b9450604087013591508082111561447057600080fd5b5061447d878288016143b6565b949793965093946060013593505050565b600082601f83011261449f57600080fd5b813560206144af61436e8361432a565b82815260059290921b840181019181810190868411156144ce57600080fd5b8286015b84811015611af9576144e3816140db565b83529183019183016144d2565b6000806040838503121561450357600080fd5b82356001600160401b038082111561451a57600080fd5b614526868387016143b6565b9350602085013591508082111561453c57600080fd5b506145498582860161448e565b9150509250929050565b60008083601f84011261456557600080fd5b5081356001600160401b0381111561457c57600080fd5b60208301915083602082850101111561459457600080fd5b9250929050565b6000806000806000608086880312156145b357600080fd5b85356001600160401b03808211156145ca57600080fd5b6145d689838a016143b6565b9650602088013595506040880135945060608801359150808211156145fa57600080fd5b5061460788828901614553565b969995985093965092949392505050565b60008060006040848603121561462d57600080fd5b8335925060208401356001600160401b0381111561464a57600080fd5b61465686828701614553565b9497909650939450505050565b6000806000806060858703121561467957600080fd5b843593506020850135925060408501356001600160401b0381111561469d57600080fd5b6146a987828801614553565b95989497509550505050565b60008060008060008060a087890312156146ce57600080fd5b86356001600160401b03808211156146e557600080fd5b6146f18a838b016143b6565b9750602089013591508082111561470757600080fd5b6147138a838b0161434d565b9650604089013591508082111561472957600080fd5b6147358a838b016143b6565b955060608901359450608089013591508082111561475257600080fd5b5061475f89828a01614553565b979a9699509497509295939492505050565b6000806040838503121561478457600080fd5b82356001600160401b038082111561479b57600080fd5b6147a7868387016143b6565b935060208501359150808211156147bd57600080fd5b506145498582860161434d565b600080604083850312156147dd57600080fd5b50508035926020909101359150565b6000806000806060858703121561480257600080fd5b84356001600160401b038082111561481957600080fd5b614825888389016143b6565b9550602087013591508082111561483b57600080fd5b6148478883890161448e565b9450604087013591508082111561485d57600080fd5b506146a987828801614553565b6000806040838503121561487d57600080fd5b823561488881613fa7565b946020939093013593505050565b600080600080606085870312156148ac57600080fd5b84356148b781613fa7565b935060208501356001600160401b03808211156148d357600080fd5b6148478883890161401f565b6000806000806000608086880312156148f757600080fd5b85356001600160401b038082111561490e57600080fd5b61491a89838a016143b6565b9650602088013591508082111561493057600080fd5b61493c89838a016143b6565b9550604088013591508082111561495257600080fd5b61495e89838a0161448e565b945060608801359150808211156145fa57600080fd5b6000806000806080858703121561498a57600080fd5b843561499581613fa7565b935060208501356149a581613fa7565b925060408501356149b581613fa7565b915060608501356149c581613fa7565b939692955090935050565b6020808252818101527f4f776e61626c653a2063616c6c6572206973206e6f7420746865206f776e6572604082015260600190565b600060208284031215614a1757600080fd5b5051919050565b634e487b7160e01b600052601160045260246000fd5b60008219821115614a4757614a47614a1e565b500190565b634e487b7160e01b600052603260045260246000fd5b6000600019821415614a7657614a76614a1e565b5060010190565b60208082526010908201526f14185d5cd8589b194e881c185d5cd95960821b604082015260600190565b60008151602080840160005b83811015614acf57815187529582019590820190600101614ab3565b509495945050505050565b6bffffffffffffffffffffffff198660601b1681528460148201526000614b0d614b076034840187614aa7565b85614aa7565b8351602080860160005b83811015614b3a57614b2a85835161416e565b9382019390820190600101614b17565b50929a9950505050505050505050565b8183823760009101908152919050565b6020808252602e908201527f496e697469616c697a61626c653a20636f6e747261637420697320616c72656160408201526d191e481a5b9a5d1a585b1a5e995960921b606082015260800190565b6020808252602b908201527f496e697469616c697a61626c653a20636f6e7472616374206973206e6f74206960408201526a6e697469616c697a696e6760a81b606082015260800190565b84815260018060a01b0384166020820152826040820152608060608201526000612f1f60808301846142eb565b600060208284031215614c3257600080fd5b81518015158114611c3157600080fd5b7f416363657373436f6e74726f6c3a206163636f756e7420000000000000000000815260008351614c7a8160178501602088016142bf565b7001034b99036b4b9b9b4b733903937b6329607d1b6017918401918201528351614cab8160288401602088016142bf565b01602801949350505050565b6000816000190483118215151615614cd157614cd1614a1e565b500290565b60006020808385031215614ce957600080fd5b82516001600160401b03811115614cff57600080fd5b8301601f81018513614d1057600080fd5b8051614d1e61436e8261432a565b81815260059190911b82018301908381019087831115614d3d57600080fd5b928401925b82841015613f39578351614d5581613fa7565b82529284019290840190614d42565b600081614d7357614d73614a1e565b506000190190565b600082821015614d8d57614d8d614a1e565b500390565b634e487b7160e01b600052603160045260246000fd5b60008251614dba8184602087016142bf565b919091019291505056fedbeb657137b1822b3d5418bea6fd641226d964b4c3871ef23546db2622258871a2646970667358221220837cb3fb25c6f57c89e8d2f13d81d92191e2f1dc81f781c04ff73b7dff399b2664736f6c63430008090033",
  "devdoc": {
    "kind": "dev",
    "methods": {
      "burn(uint256,uint256,bytes)": {
        "details": "It calls burnByAdmin of BNIMinter.",
        "params": {
          "_pool": "total pool in USD",
          "_share": "amount of shares"
        }
      },
      "deposit(uint256[],address[],uint256[],uint256,bytes)": {
        "details": "It calls depositByAdmin of BNIVaults."
      },
      "exitWithdrawal(uint256,bytes)": {
        "details": "It calls exitWithdrawalByAdmin of BNIMinter.",
        "params": {
          "_gatheredAmount": "is the amount of token that is gathered."
        }
      },
      "gather(uint256[],uint8[],bytes)": {
        "details": "It gathers withdrawn tokens of the user from user agents."
      },
      "getMessageHashForSafe(bytes)": {
        "details": "Returns hash of a message that can be signed by owners.",
        "params": {
          "message": "Message that should be hashed"
        },
        "returns": {
          "_0": "Message hash."
        }
      },
      "getRoleAdmin(bytes32)": {
        "details": "Returns the admin role that controls `role`. See {grantRole} and {revokeRole}. To change a role's admin, use {_setRoleAdmin}."
      },
      "getRoleMember(bytes32,uint256)": {
        "details": "Returns one of the accounts that have `role`. `index` must be a value between 0 and {getRoleMemberCount}, non-inclusive. Role bearers are not sorted in any particular way, and their ordering may change at any point. WARNING: When using {getRoleMember} and {getRoleMemberCount}, make sure you perform all queries on the same block. See the following https://forum.openzeppelin.com/t/iterating-over-elements-on-enumerableset-in-openzeppelin-contracts/2296[forum post] for more information."
      },
      "getRoleMemberCount(bytes32)": {
        "details": "Returns the number of accounts that have `role`. Can be used together with {getRoleMember} to enumerate all bearers of a role."
      },
      "grantRole(bytes32,address)": {
        "details": "Grants `role` to `account`. If `account` had not been already granted `role`, emits a {RoleGranted} event. Requirements: - the caller must have ``role``'s admin role."
      },
      "hasRole(bytes32,address)": {
        "details": "Returns `true` if `account` has been granted `role`."
      },
      "initDeposit(uint256,uint256,bytes)": {
        "details": "It calls initDepositByAdmin of BNIMinter.",
        "params": {
          "_USDT6Amt": "USDT with 6 decimals to be deposited",
          "_pool": "total pool in USD"
        }
      },
      "mint(uint256,bytes)": {
        "details": "It calls mintByAdmin of BNIMinter."
      },
      "owner()": {
        "details": "Returns the address of the current owner."
      },
      "paused()": {
        "details": "Returns true if the contract is paused, and false otherwise."
      },
      "renounceOwnership()": {
        "details": "Leaves the contract without owner. It will not be possible to call `onlyOwner` functions anymore. Can only be called by the current owner. NOTE: Renouncing ownership will leave the contract without an owner, thereby removing any functionality that is only available to the owner."
      },
      "renounceRole(bytes32,address)": {
        "details": "Revokes `role` from the calling account. Roles are often managed via {grantRole} and {revokeRole}: this function's purpose is to provide a mechanism for accounts to lose their privileges if they are compromised (such as when a trusted device is misplaced). If the calling account had been revoked `role`, emits a {RoleRevoked} event. Requirements: - the caller must be `account`."
      },
      "revokeRole(bytes32,address)": {
        "details": "Revokes `role` from `account`. If `account` had been granted `role`, emits a {RoleRevoked} event. Requirements: - the caller must have ``role``'s admin role."
      },
      "setSubImpl(address)": {
        "details": "Delegate to sub contract"
      },
      "supportsInterface(bytes4)": {
        "details": "See {IERC165-supportsInterface}."
      },
      "takeOut(uint256,bytes)": {
        "details": "It takes out tokens from this agent.",
        "params": {
          "_gatheredAmount": "is the amount of token that is gathered."
        }
      },
      "transfer(uint256[],uint256[],uint8[],bytes)": {
        "details": "It transfers tokens to user agents"
      },
      "withdraw(uint256[],uint256,uint256,bytes)": {
        "details": "It calls withdrawPercByAdmin of BNIVaults."
      }
    },
    "version": 1
  },
  "userdoc": {
    "kind": "user",
    "methods": {
      "exitWithdrawal(uint256,bytes)": {
        "notice": "_gatheredAmount doesn't include the balance which is withdrawan in this agent."
      },
      "isTrustedForwarder(address)": {
        "notice": "return if the forwarder is trusted to forward relayed transactions to us. the forwarder is required to verify the sender's signature, and verify the call is not a replay."
      },
      "onRefunded(uint256,address,uint256,uint256,address)": {
        "notice": "Never revert in this function. If not, cbridgeAdapter.executeMessageWithTransferRefund will be failed."
      },
      "takeOut(uint256,bytes)": {
        "notice": "_gatheredAmount doesn't include the balance which is withdrawan in this agent."
      }
    },
    "version": 1
  },
  "storageLayout": {
    "storage": [
      {
        "astId": 68220,
        "contract": "contracts/xchain/agent/BNIUserAgentTest.sol:BNIUserAgentTest",
        "label": "trustedForwarder",
        "offset": 0,
        "slot": "0",
        "type": "t_address"
      },
      {
        "astId": 713,
        "contract": "contracts/xchain/agent/BNIUserAgentTest.sol:BNIUserAgentTest",
        "label": "_initialized",
        "offset": 20,
        "slot": "0",
        "type": "t_uint8"
      },
      {
        "astId": 716,
        "contract": "contracts/xchain/agent/BNIUserAgentTest.sol:BNIUserAgentTest",
        "label": "_initializing",
        "offset": 21,
        "slot": "0",
        "type": "t_bool"
      },
      {
        "astId": 68760,
        "contract": "contracts/xchain/agent/BNIUserAgentTest.sol:BNIUserAgentTest",
        "label": "separator",
        "offset": 0,
        "slot": "1",
        "type": "t_bytes32"
      },
      {
        "astId": 69177,
        "contract": "contracts/xchain/agent/BNIUserAgentTest.sol:BNIUserAgentTest",
        "label": "__gap",
        "offset": 0,
        "slot": "2",
        "type": "t_array(t_uint256)49_storage"
      },
      {
        "astId": 3292,
        "contract": "contracts/xchain/agent/BNIUserAgentTest.sol:BNIUserAgentTest",
        "label": "__gap",
        "offset": 0,
        "slot": "51",
        "type": "t_array(t_uint256)50_storage"
      },
      {
        "astId": 3946,
        "contract": "contracts/xchain/agent/BNIUserAgentTest.sol:BNIUserAgentTest",
        "label": "__gap",
        "offset": 0,
        "slot": "101",
        "type": "t_array(t_uint256)50_storage"
      },
      {
        "astId": 184,
        "contract": "contracts/xchain/agent/BNIUserAgentTest.sol:BNIUserAgentTest",
        "label": "_roles",
        "offset": 0,
        "slot": "151",
        "type": "t_mapping(t_bytes32,t_struct(RoleData)179_storage)"
      },
      {
        "astId": 483,
        "contract": "contracts/xchain/agent/BNIUserAgentTest.sol:BNIUserAgentTest",
        "label": "__gap",
        "offset": 0,
        "slot": "152",
        "type": "t_array(t_uint256)49_storage"
      },
      {
        "astId": 33,
        "contract": "contracts/xchain/agent/BNIUserAgentTest.sol:BNIUserAgentTest",
        "label": "_roleMembers",
        "offset": 0,
        "slot": "201",
        "type": "t_mapping(t_bytes32,t_struct(AddressSet)4359_storage)"
      },
      {
        "astId": 143,
        "contract": "contracts/xchain/agent/BNIUserAgentTest.sol:BNIUserAgentTest",
        "label": "__gap",
        "offset": 0,
        "slot": "202",
        "type": "t_array(t_uint256)49_storage"
      },
      {
        "astId": 869,
        "contract": "contracts/xchain/agent/BNIUserAgentTest.sol:BNIUserAgentTest",
        "label": "_paused",
        "offset": 0,
        "slot": "251",
        "type": "t_bool"
      },
      {
        "astId": 958,
        "contract": "contracts/xchain/agent/BNIUserAgentTest.sol:BNIUserAgentTest",
        "label": "__gap",
        "offset": 0,
        "slot": "252",
        "type": "t_array(t_uint256)49_storage"
      },
      {
        "astId": 593,
        "contract": "contracts/xchain/agent/BNIUserAgentTest.sol:BNIUserAgentTest",
        "label": "_owner",
        "offset": 0,
        "slot": "301",
        "type": "t_address"
      },
      {
        "astId": 705,
        "contract": "contracts/xchain/agent/BNIUserAgentTest.sol:BNIUserAgentTest",
        "label": "__gap",
        "offset": 0,
        "slot": "302",
        "type": "t_array(t_uint256)49_storage"
      },
      {
        "astId": 59577,
        "contract": "contracts/xchain/agent/BNIUserAgentTest.sol:BNIUserAgentTest",
        "label": "admin",
        "offset": 0,
        "slot": "351",
        "type": "t_address"
      },
      {
        "astId": 59581,
        "contract": "contracts/xchain/agent/BNIUserAgentTest.sol:BNIUserAgentTest",
        "label": "nonces",
        "offset": 0,
        "slot": "352",
        "type": "t_mapping(t_address,t_uint256)"
      },
      {
        "astId": 59584,
        "contract": "contracts/xchain/agent/BNIUserAgentTest.sol:BNIUserAgentTest",
        "label": "swap",
        "offset": 0,
        "slot": "353",
        "type": "t_contract(ISwap)56041"
      },
      {
        "astId": 59587,
        "contract": "contracts/xchain/agent/BNIUserAgentTest.sol:BNIUserAgentTest",
        "label": "USDC",
        "offset": 0,
        "slot": "354",
        "type": "t_contract(IERC20Upgradeable)1707"
      },
      {
        "astId": 59590,
        "contract": "contracts/xchain/agent/BNIUserAgentTest.sol:BNIUserAgentTest",
        "label": "USDT",
        "offset": 0,
        "slot": "355",
        "type": "t_contract(IERC20Upgradeable)1707"
      },
      {
        "astId": 59594,
        "contract": "contracts/xchain/agent/BNIUserAgentTest.sol:BNIUserAgentTest",
        "label": "usdcBalances",
        "offset": 0,
        "slot": "356",
        "type": "t_mapping(t_address,t_uint256)"
      },
      {
        "astId": 59598,
        "contract": "contracts/xchain/agent/BNIUserAgentTest.sol:BNIUserAgentTest",
        "label": "usdtBalances",
        "offset": 0,
        "slot": "357",
        "type": "t_mapping(t_address,t_uint256)"
      },
      {
        "astId": 59601,
        "contract": "contracts/xchain/agent/BNIUserAgentTest.sol:BNIUserAgentTest",
        "label": "multichainAdapter",
        "offset": 0,
        "slot": "358",
        "type": "t_contract(IXChainAdapter)56345"
      },
      {
        "astId": 59604,
        "contract": "contracts/xchain/agent/BNIUserAgentTest.sol:BNIUserAgentTest",
        "label": "cbridgeAdapter",
        "offset": 0,
        "slot": "359",
        "type": "t_contract(IXChainAdapter)56345"
      },
      {
        "astId": 59608,
        "contract": "contracts/xchain/agent/BNIUserAgentTest.sol:BNIUserAgentTest",
        "label": "cbridgeSenders",
        "offset": 0,
        "slot": "360",
        "type": "t_mapping(t_uint256,t_address)"
      },
      {
        "astId": 59612,
        "contract": "contracts/xchain/agent/BNIUserAgentTest.sol:BNIUserAgentTest",
        "label": "userAgents",
        "offset": 0,
        "slot": "361",
        "type": "t_mapping(t_uint256,t_address)"
      },
      {
        "astId": 59617,
        "contract": "contracts/xchain/agent/BNIUserAgentTest.sol:BNIUserAgentTest",
        "label": "callAdapterTypes",
        "offset": 0,
        "slot": "362",
        "type": "t_mapping(t_uint256,t_enum(AdapterType)59570)"
      },
      {
        "astId": 60253,
        "contract": "contracts/xchain/agent/BNIUserAgentTest.sol:BNIUserAgentTest",
        "label": "__gap",
        "offset": 0,
        "slot": "363",
        "type": "t_array(t_uint256)39_storage"
      },
      {
        "astId": 57251,
        "contract": "contracts/xchain/agent/BNIUserAgentTest.sol:BNIUserAgentTest",
        "label": "chainIdOnLP",
        "offset": 0,
        "slot": "402",
        "type": "t_uint256"
      },
      {
        "astId": 57253,
        "contract": "contracts/xchain/agent/BNIUserAgentTest.sol:BNIUserAgentTest",
        "label": "isLPChain",
        "offset": 0,
        "slot": "403",
        "type": "t_bool"
      },
      {
        "astId": 57256,
        "contract": "contracts/xchain/agent/BNIUserAgentTest.sol:BNIUserAgentTest",
        "label": "bniMinter",
        "offset": 1,
        "slot": "403",
        "type": "t_contract(IBNIMinter)10340"
      },
      {
        "astId": 57259,
        "contract": "contracts/xchain/agent/BNIUserAgentTest.sol:BNIUserAgentTest",
        "label": "bniVault",
        "offset": 0,
        "slot": "404",
        "type": "t_contract(IBNIVault)10387"
      },
      {
        "astId": 57261,
        "contract": "contracts/xchain/agent/BNIUserAgentTest.sol:BNIUserAgentTest",
        "label": "subImpl",
        "offset": 0,
        "slot": "405",
        "type": "t_address"
      }
    ],
    "types": {
      "t_address": {
        "encoding": "inplace",
        "label": "address",
        "numberOfBytes": "20"
      },
      "t_array(t_bytes32)dyn_storage": {
        "base": "t_bytes32",
        "encoding": "dynamic_array",
        "label": "bytes32[]",
        "numberOfBytes": "32"
      },
      "t_array(t_uint256)39_storage": {
        "base": "t_uint256",
        "encoding": "inplace",
        "label": "uint256[39]",
        "numberOfBytes": "1248"
      },
      "t_array(t_uint256)49_storage": {
        "base": "t_uint256",
        "encoding": "inplace",
        "label": "uint256[49]",
        "numberOfBytes": "1568"
      },
      "t_array(t_uint256)50_storage": {
        "base": "t_uint256",
        "encoding": "inplace",
        "label": "uint256[50]",
        "numberOfBytes": "1600"
      },
      "t_bool": {
        "encoding": "inplace",
        "label": "bool",
        "numberOfBytes": "1"
      },
      "t_bytes32": {
        "encoding": "inplace",
        "label": "bytes32",
        "numberOfBytes": "32"
      },
      "t_contract(IBNIMinter)10340": {
        "encoding": "inplace",
        "label": "contract IBNIMinter",
        "numberOfBytes": "20"
      },
      "t_contract(IBNIVault)10387": {
        "encoding": "inplace",
        "label": "contract IBNIVault",
        "numberOfBytes": "20"
      },
      "t_contract(IERC20Upgradeable)1707": {
        "encoding": "inplace",
        "label": "contract IERC20Upgradeable",
        "numberOfBytes": "20"
      },
      "t_contract(ISwap)56041": {
        "encoding": "inplace",
        "label": "contract ISwap",
        "numberOfBytes": "20"
      },
      "t_contract(IXChainAdapter)56345": {
        "encoding": "inplace",
        "label": "contract IXChainAdapter",
        "numberOfBytes": "20"
      },
      "t_enum(AdapterType)59570": {
        "encoding": "inplace",
        "label": "enum BasicUserAgentBase.AdapterType",
        "numberOfBytes": "1"
      },
      "t_mapping(t_address,t_bool)": {
        "encoding": "mapping",
        "key": "t_address",
        "label": "mapping(address => bool)",
        "numberOfBytes": "32",
        "value": "t_bool"
      },
      "t_mapping(t_address,t_uint256)": {
        "encoding": "mapping",
        "key": "t_address",
        "label": "mapping(address => uint256)",
        "numberOfBytes": "32",
        "value": "t_uint256"
      },
      "t_mapping(t_bytes32,t_struct(AddressSet)4359_storage)": {
        "encoding": "mapping",
        "key": "t_bytes32",
        "label": "mapping(bytes32 => struct EnumerableSetUpgradeable.AddressSet)",
        "numberOfBytes": "32",
        "value": "t_struct(AddressSet)4359_storage"
      },
      "t_mapping(t_bytes32,t_struct(RoleData)179_storage)": {
        "encoding": "mapping",
        "key": "t_bytes32",
        "label": "mapping(bytes32 => struct AccessControlUpgradeable.RoleData)",
        "numberOfBytes": "32",
        "value": "t_struct(RoleData)179_storage"
      },
      "t_mapping(t_bytes32,t_uint256)": {
        "encoding": "mapping",
        "key": "t_bytes32",
        "label": "mapping(bytes32 => uint256)",
        "numberOfBytes": "32",
        "value": "t_uint256"
      },
      "t_mapping(t_uint256,t_address)": {
        "encoding": "mapping",
        "key": "t_uint256",
        "label": "mapping(uint256 => address)",
        "numberOfBytes": "32",
        "value": "t_address"
      },
      "t_mapping(t_uint256,t_enum(AdapterType)59570)": {
        "encoding": "mapping",
        "key": "t_uint256",
        "label": "mapping(uint256 => enum BasicUserAgentBase.AdapterType)",
        "numberOfBytes": "32",
        "value": "t_enum(AdapterType)59570"
      },
      "t_struct(AddressSet)4359_storage": {
        "encoding": "inplace",
        "label": "struct EnumerableSetUpgradeable.AddressSet",
        "members": [
          {
            "astId": 4358,
            "contract": "contracts/xchain/agent/BNIUserAgentTest.sol:BNIUserAgentTest",
            "label": "_inner",
            "offset": 0,
            "slot": "0",
            "type": "t_struct(Set)4058_storage"
          }
        ],
        "numberOfBytes": "64"
      },
      "t_struct(RoleData)179_storage": {
        "encoding": "inplace",
        "label": "struct AccessControlUpgradeable.RoleData",
        "members": [
          {
            "astId": 176,
            "contract": "contracts/xchain/agent/BNIUserAgentTest.sol:BNIUserAgentTest",
            "label": "members",
            "offset": 0,
            "slot": "0",
            "type": "t_mapping(t_address,t_bool)"
          },
          {
            "astId": 178,
            "contract": "contracts/xchain/agent/BNIUserAgentTest.sol:BNIUserAgentTest",
            "label": "adminRole",
            "offset": 0,
            "slot": "1",
            "type": "t_bytes32"
          }
        ],
        "numberOfBytes": "64"
      },
      "t_struct(Set)4058_storage": {
        "encoding": "inplace",
        "label": "struct EnumerableSetUpgradeable.Set",
        "members": [
          {
            "astId": 4053,
            "contract": "contracts/xchain/agent/BNIUserAgentTest.sol:BNIUserAgentTest",
            "label": "_values",
            "offset": 0,
            "slot": "0",
            "type": "t_array(t_bytes32)dyn_storage"
          },
          {
            "astId": 4057,
            "contract": "contracts/xchain/agent/BNIUserAgentTest.sol:BNIUserAgentTest",
            "label": "_indexes",
            "offset": 0,
            "slot": "1",
            "type": "t_mapping(t_bytes32,t_uint256)"
          }
        ],
        "numberOfBytes": "64"
      },
      "t_uint256": {
        "encoding": "inplace",
        "label": "uint256",
        "numberOfBytes": "32"
      },
      "t_uint8": {
        "encoding": "inplace",
        "label": "uint8",
        "numberOfBytes": "1"
      }
    }
  }
}