{
  "address": "0x36146D325aA8Ab4c8df853BEca2b9c5Eeb7eb6F5",
  "abi": [
    {
      "anonymous": false,
      "inputs": [
        {
          "indexed": false,
          "internalType": "uint256",
          "name": "currentWatermark",
          "type": "uint256"
        },
        {
          "indexed": false,
          "internalType": "uint256",
          "name": "lastWatermark",
          "type": "uint256"
        }
      ],
      "name": "AdjustWatermark",
      "type": "event"
    },
    {
      "anonymous": false,
      "inputs": [
        {
          "indexed": false,
          "internalType": "uint256",
          "name": "currentWatermark",
          "type": "uint256"
        },
        {
          "indexed": false,
          "internalType": "uint256",
          "name": "lastWatermark",
          "type": "uint256"
        },
        {
          "indexed": false,
          "internalType": "uint256",
          "name": "fee",
          "type": "uint256"
        }
      ],
      "name": "CollectProfitAndUpdateWatermark",
      "type": "event"
    },
    {
      "anonymous": false,
      "inputs": [
        {
          "indexed": false,
          "internalType": "address",
          "name": "caller",
          "type": "address"
        },
        {
          "indexed": false,
          "internalType": "uint256",
          "name": "amtDeposit",
          "type": "uint256"
        },
        {
          "indexed": false,
          "internalType": "address",
          "name": "tokenDeposit",
          "type": "address"
        }
      ],
      "name": "Deposit",
      "type": "event"
    },
    {
      "anonymous": false,
      "inputs": [
        {
          "indexed": false,
          "internalType": "uint8",
          "name": "version",
          "type": "uint8"
        }
      ],
      "name": "Initialized",
      "type": "event"
    },
    {
      "anonymous": false,
      "inputs": [
        {
          "indexed": true,
          "internalType": "address",
          "name": "previousOwner",
          "type": "address"
        },
        {
          "indexed": true,
          "internalType": "address",
          "name": "newOwner",
          "type": "address"
        }
      ],
      "name": "OwnershipTransferred",
      "type": "event"
    },
    {
      "anonymous": false,
      "inputs": [
        {
          "indexed": false,
          "internalType": "address",
          "name": "account",
          "type": "address"
        }
      ],
      "name": "Paused",
      "type": "event"
    },
    {
      "anonymous": false,
      "inputs": [
        {
          "indexed": false,
          "internalType": "uint256",
          "name": "pid",
          "type": "uint256"
        },
        {
          "indexed": false,
          "internalType": "uint256",
          "name": "sharePerc",
          "type": "uint256"
        },
        {
          "indexed": false,
          "internalType": "uint256",
          "name": "amount",
          "type": "uint256"
        },
        {
          "indexed": false,
          "internalType": "address",
          "name": "target",
          "type": "address"
        }
      ],
      "name": "Rebalance",
      "type": "event"
    },
    {
      "anonymous": false,
      "inputs": [
        {
          "indexed": false,
          "internalType": "uint256",
          "name": "amount",
          "type": "uint256"
        }
      ],
      "name": "Reinvest",
      "type": "event"
    },
    {
      "anonymous": false,
      "inputs": [
        {
          "indexed": false,
          "internalType": "address",
          "name": "oldAdmin",
          "type": "address"
        },
        {
          "indexed": false,
          "internalType": "address",
          "name": "newAdmin",
          "type": "address"
        }
      ],
      "name": "SetAdminWallet",
      "type": "event"
    },
    {
      "anonymous": false,
      "inputs": [
        {
          "indexed": false,
          "internalType": "address",
          "name": "oldTreasuryWallet",
          "type": "address"
        },
        {
          "indexed": false,
          "internalType": "address",
          "name": "newTreasuryWallet",
          "type": "address"
        }
      ],
      "name": "SetTreasuryWallet",
      "type": "event"
    },
    {
      "anonymous": false,
      "inputs": [
        {
          "indexed": false,
          "internalType": "uint256",
          "name": "fees",
          "type": "uint256"
        },
        {
          "indexed": false,
          "internalType": "address",
          "name": "token",
          "type": "address"
        }
      ],
      "name": "TransferredOutFees",
      "type": "event"
    },
    {
      "anonymous": false,
      "inputs": [
        {
          "indexed": false,
          "internalType": "address",
          "name": "account",
          "type": "address"
        }
      ],
      "name": "Unpaused",
      "type": "event"
    },
    {
      "anonymous": false,
      "inputs": [
        {
          "indexed": false,
          "internalType": "address",
          "name": "caller",
          "type": "address"
        },
        {
          "indexed": false,
          "internalType": "uint256",
          "name": "amtWithdraw",
          "type": "uint256"
        },
        {
          "indexed": false,
          "internalType": "address",
          "name": "tokenWithdraw",
          "type": "address"
        },
        {
          "indexed": false,
          "internalType": "uint256",
          "name": "sharePerc",
          "type": "uint256"
        }
      ],
      "name": "Withdraw",
      "type": "event"
    },
    {
      "inputs": [],
      "name": "USDT",
      "outputs": [
        {
          "internalType": "contract IERC20UpgradeableExt",
          "name": "",
          "type": "address"
        }
      ],
      "stateMutability": "view",
      "type": "function"
    },
    {
      "inputs": [],
      "name": "admin",
      "outputs": [
        {
          "internalType": "address",
          "name": "",
          "type": "address"
        }
      ],
      "stateMutability": "view",
      "type": "function"
    },
    {
      "inputs": [],
      "name": "collectProfitAndUpdateWatermark",
      "outputs": [],
      "stateMutability": "nonpayable",
      "type": "function"
    },
    {
      "inputs": [
        {
          "internalType": "address",
          "name": "_account",
          "type": "address"
        },
        {
          "internalType": "address[]",
          "name": "_tokens",
          "type": "address[]"
        },
        {
          "internalType": "uint256[]",
          "name": "_USDTAmts",
          "type": "uint256[]"
        },
        {
          "internalType": "uint256",
          "name": "_nonce",
          "type": "uint256"
        }
      ],
      "name": "depositByAdmin",
      "outputs": [],
      "stateMutability": "nonpayable",
      "type": "function"
    },
    {
      "inputs": [],
      "name": "emergencyWithdraw",
      "outputs": [],
      "stateMutability": "nonpayable",
      "type": "function"
    },
    {
      "inputs": [],
      "name": "fees",
      "outputs": [
        {
          "internalType": "uint256",
          "name": "",
          "type": "uint256"
        }
      ],
      "stateMutability": "view",
      "type": "function"
    },
    {
      "inputs": [],
      "name": "firstOperationNonce",
      "outputs": [
        {
          "internalType": "uint256",
          "name": "",
          "type": "uint256"
        }
      ],
      "stateMutability": "view",
      "type": "function"
    },
    {
      "inputs": [],
      "name": "getAPR",
      "outputs": [
        {
          "internalType": "uint256",
          "name": "",
          "type": "uint256"
        }
      ],
      "stateMutability": "view",
      "type": "function"
    },
    {
      "inputs": [],
      "name": "getAllPoolInUSD",
      "outputs": [
        {
          "internalType": "uint256",
          "name": "",
          "type": "uint256"
        }
      ],
      "stateMutability": "view",
      "type": "function"
    },
    {
      "inputs": [
        {
          "internalType": "uint256",
          "name": "_nonce",
          "type": "uint256"
        }
      ],
      "name": "getAllPoolInUSDAtNonce",
      "outputs": [
        {
          "internalType": "uint256",
          "name": "",
          "type": "uint256"
        }
      ],
      "stateMutability": "view",
      "type": "function"
    },
    {
      "inputs": [],
      "name": "getChainID",
      "outputs": [
        {
          "internalType": "uint256",
          "name": "id",
          "type": "uint256"
        }
      ],
      "stateMutability": "view",
      "type": "function"
    },
    {
      "inputs": [],
      "name": "getCurrentCompositionPerc",
      "outputs": [
        {
          "internalType": "address[]",
          "name": "tokens",
          "type": "address[]"
        },
        {
          "internalType": "uint256[]",
          "name": "percentages",
          "type": "uint256[]"
        }
      ],
      "stateMutability": "view",
      "type": "function"
    },
    {
      "inputs": [],
      "name": "getEachPoolInUSD",
      "outputs": [
        {
          "internalType": "uint256[]",
          "name": "chainIDs",
          "type": "uint256[]"
        },
        {
          "internalType": "address[]",
          "name": "tokens",
          "type": "address[]"
        },
        {
          "internalType": "uint256[]",
          "name": "pools",
          "type": "uint256[]"
        }
      ],
      "stateMutability": "view",
      "type": "function"
    },
    {
      "inputs": [],
      "name": "getUSDTPriceInUSD",
      "outputs": [
        {
          "internalType": "uint256",
          "name": "",
          "type": "uint256"
        },
        {
          "internalType": "uint8",
          "name": "",
          "type": "uint8"
        }
      ],
      "stateMutability": "view",
      "type": "function"
    },
    {
      "inputs": [
        {
          "internalType": "address",
          "name": "_treasuryWallet",
          "type": "address"
        },
        {
          "internalType": "address",
          "name": "_admin",
          "type": "address"
        },
        {
          "internalType": "address",
          "name": "_strategy",
          "type": "address"
        },
        {
          "internalType": "address",
          "name": "_priceOracle",
          "type": "address"
        },
        {
          "internalType": "address",
          "name": "_USDT",
          "type": "address"
        }
      ],
      "name": "initialize",
      "outputs": [],
      "stateMutability": "nonpayable",
      "type": "function"
    },
    {
      "inputs": [
        {
          "internalType": "address",
          "name": "forwarder",
          "type": "address"
        }
      ],
      "name": "isTrustedForwarder",
      "outputs": [
        {
          "internalType": "bool",
          "name": "",
          "type": "bool"
        }
      ],
      "stateMutability": "view",
      "type": "function"
    },
    {
      "inputs": [],
      "name": "lastOperationNonce",
      "outputs": [
        {
          "internalType": "uint256",
          "name": "",
          "type": "uint256"
        }
      ],
      "stateMutability": "view",
      "type": "function"
    },
    {
      "inputs": [
        {
          "internalType": "uint256",
          "name": "",
          "type": "uint256"
        }
      ],
      "name": "operationAmounts",
      "outputs": [
        {
          "internalType": "uint256",
          "name": "",
          "type": "uint256"
        }
      ],
      "stateMutability": "view",
      "type": "function"
    },
    {
      "inputs": [],
      "name": "owner",
      "outputs": [
        {
          "internalType": "address",
          "name": "",
          "type": "address"
        }
      ],
      "stateMutability": "view",
      "type": "function"
    },
    {
      "inputs": [],
      "name": "paused",
      "outputs": [
        {
          "internalType": "bool",
          "name": "",
          "type": "bool"
        }
      ],
      "stateMutability": "view",
      "type": "function"
    },
    {
      "inputs": [
        {
          "internalType": "uint256",
          "name": "",
          "type": "uint256"
        }
      ],
      "name": "poolAtNonce",
      "outputs": [
        {
          "internalType": "uint256",
          "name": "poolInUSD",
          "type": "uint256"
        },
        {
          "internalType": "uint256",
          "name": "ts",
          "type": "uint256"
        }
      ],
      "stateMutability": "view",
      "type": "function"
    },
    {
      "inputs": [],
      "name": "priceOracle",
      "outputs": [
        {
          "internalType": "contract IPriceOracle",
          "name": "",
          "type": "address"
        }
      ],
      "stateMutability": "view",
      "type": "function"
    },
    {
      "inputs": [],
      "name": "profitFeePerc",
      "outputs": [
        {
          "internalType": "uint256",
          "name": "",
          "type": "uint256"
        }
      ],
      "stateMutability": "view",
      "type": "function"
    },
    {
      "inputs": [
        {
          "internalType": "uint256",
          "name": "_pid",
          "type": "uint256"
        },
        {
          "internalType": "uint256",
          "name": "_sharePerc",
          "type": "uint256"
        },
        {
          "internalType": "address",
          "name": "_target",
          "type": "address"
        }
      ],
      "name": "rebalance",
      "outputs": [],
      "stateMutability": "nonpayable",
      "type": "function"
    },
    {
      "inputs": [
        {
          "internalType": "address[]",
          "name": "_tokens",
          "type": "address[]"
        },
        {
          "internalType": "uint256[]",
          "name": "_perc",
          "type": "uint256[]"
        }
      ],
      "name": "reinvest",
      "outputs": [],
      "stateMutability": "nonpayable",
      "type": "function"
    },
    {
      "inputs": [],
      "name": "renounceOwnership",
      "outputs": [],
      "stateMutability": "nonpayable",
      "type": "function"
    },
    {
      "inputs": [
        {
          "internalType": "address",
          "name": "_admin",
          "type": "address"
        }
      ],
      "name": "setAdmin",
      "outputs": [],
      "stateMutability": "nonpayable",
      "type": "function"
    },
    {
      "inputs": [
        {
          "internalType": "address",
          "name": "_biconomy",
          "type": "address"
        }
      ],
      "name": "setBiconomy",
      "outputs": [],
      "stateMutability": "nonpayable",
      "type": "function"
    },
    {
      "inputs": [
        {
          "internalType": "address",
          "name": "_priceOracle",
          "type": "address"
        }
      ],
      "name": "setPriceOracle",
      "outputs": [],
      "stateMutability": "nonpayable",
      "type": "function"
    },
    {
      "inputs": [
        {
          "internalType": "uint256",
          "name": "_profitFeePerc",
          "type": "uint256"
        }
      ],
      "name": "setProfitFeePerc",
      "outputs": [],
      "stateMutability": "nonpayable",
      "type": "function"
    },
    {
      "inputs": [
        {
          "internalType": "address",
          "name": "_strategy",
          "type": "address"
        }
      ],
      "name": "setStrategy",
      "outputs": [],
      "stateMutability": "nonpayable",
      "type": "function"
    },
    {
      "inputs": [
        {
          "internalType": "address",
          "name": "_treasuryWallet",
          "type": "address"
        }
      ],
      "name": "setTreasuryWallet",
      "outputs": [],
      "stateMutability": "nonpayable",
      "type": "function"
    },
    {
      "inputs": [],
      "name": "strategy",
      "outputs": [
        {
          "internalType": "contract IStrategy",
          "name": "",
          "type": "address"
        }
      ],
      "stateMutability": "view",
      "type": "function"
    },
    {
      "inputs": [
        {
          "internalType": "address",
          "name": "newOwner",
          "type": "address"
        }
      ],
      "name": "transferOwnership",
      "outputs": [],
      "stateMutability": "nonpayable",
      "type": "function"
    },
    {
      "inputs": [],
      "name": "treasuryWallet",
      "outputs": [
        {
          "internalType": "address",
          "name": "",
          "type": "address"
        }
      ],
      "stateMutability": "view",
      "type": "function"
    },
    {
      "inputs": [],
      "name": "trustedForwarder",
      "outputs": [
        {
          "internalType": "address",
          "name": "",
          "type": "address"
        }
      ],
      "stateMutability": "view",
      "type": "function"
    },
    {
      "inputs": [
        {
          "internalType": "address",
          "name": "",
          "type": "address"
        }
      ],
      "name": "userLastOperationNonce",
      "outputs": [
        {
          "internalType": "uint256",
          "name": "",
          "type": "uint256"
        }
      ],
      "stateMutability": "view",
      "type": "function"
    },
    {
      "inputs": [],
      "name": "versionRecipient",
      "outputs": [
        {
          "internalType": "string",
          "name": "",
          "type": "string"
        }
      ],
      "stateMutability": "pure",
      "type": "function"
    },
    {
      "inputs": [],
      "name": "watermark",
      "outputs": [
        {
          "internalType": "uint256",
          "name": "",
          "type": "uint256"
        }
      ],
      "stateMutability": "view",
      "type": "function"
    },
    {
      "inputs": [],
      "name": "withdrawFees",
      "outputs": [],
      "stateMutability": "nonpayable",
      "type": "function"
    },
    {
      "inputs": [
        {
          "internalType": "address",
          "name": "_account",
          "type": "address"
        },
        {
          "internalType": "uint256",
          "name": "_sharePerc",
          "type": "uint256"
        },
        {
          "internalType": "uint256",
          "name": "_nonce",
          "type": "uint256"
        }
      ],
      "name": "withdrawPercByAdmin",
      "outputs": [],
      "stateMutability": "nonpayable",
      "type": "function"
    }
  ],
  "transactionHash": "0xddca4401358db3216b3e81dff87daf0b47f69293f07994bf6459993d7e516492",
  "args": [],
  "numDeployments": 5,
  "solcInputHash": "233991dc8428f72ab84898ee673d42d8",
  "bytecode": "0x608060405234801561001057600080fd5b50613963806100206000396000f3fe608060405234801561001057600080fd5b50600436106102535760003560e01c80638855c91a11610146578063bd244af4116100c3578063e63cfa3b11610087578063e63cfa3b1461050d578063efca0d0714610549578063f13dc2e214610552578063f2fde38b1461055b578063f851a4401461056e578063ffec4eb11461058157600080fd5b8063bd244af4146104cf578063c54e44eb146104d7578063c89d5b8b146104ea578063db2e21bc146104f2578063e5e19776146104fa57600080fd5b8063a8c62e761161010a578063a8c62e761461045d578063a9d98f5914610470578063aae0923614610483578063ac25f6891461049a578063b47c6a27146104b057600080fd5b80638855c91a146104145780638da5cb5b1461041d5780639af1d35a1461042e5780639b86088214610437578063a8602fea1461044a57600080fd5b8063476343ee116101d45780635c975abb116101985780635c975abb146103c85780636d2b3d7b146103d3578063704b6c02146103e6578063715018a6146103f95780637da0a8771461040157600080fd5b8063476343ee14610352578063486ff0cd1461035a578063530e784f1461037d578063564b81ef14610390578063572b6c051461039657600080fd5b80632630c12f1161021b5780632630c12f146102e657806333a100ca1461031157806345d207ec146103245780634626402b14610337578063470343d81461034a57600080fd5b8063057feb99146102585780630b47b7ff1461028b5780630d8b76a8146102a05780631459457a146102b357806319dac5af146102c6575b600080fd5b610278610266366004612fd3565b60d66020526000908152604090205481565b6040519081526020015b60405180910390f35b61029e610299366004612fd3565b61058a565b005b61029e6102ae366004613001565b610634565b61029e6102c136600461301e565b61069f565b6102786102d4366004613001565b60d56020526000908152604090205481565b60cc546102f9906001600160a01b031681565b6040516001600160a01b039091168152602001610282565b61029e61031f366004613001565b610874565b61029e61033236600461308f565b61097d565b60ce546102f9906001600160a01b031681565b61029e610d97565b61029e610e03565b60408051808201825260018152603160f81b6020820152905161028291906130f0565b61029e61038b366004613001565b610ffb565b46610278565b6103b86103a4366004613001565b60d1546001600160a01b0391821691161490565b6040519015158152602001610282565b60655460ff166103b8565b61029e6103e1366004613123565b611066565b61029e6103f4366004613001565b61127d565b61029e611328565b60d1546102f9906001600160a01b031681565b61027860d35481565b6097546001600160a01b03166102f9565b61027860d05481565b61029e610445366004613296565b61137b565b61029e610458366004613001565b6116d7565b60cb546102f9906001600160a01b031681565b61027861047e366004612fd3565b61177a565b61048b611804565b6040516102829392919061336e565b6104a2611ac3565b6040516102829291906133a7565b6104b8611b58565b6040805192835260ff909116602083015201610282565b610278611bda565b60c9546102f9906001600160a01b031681565b610278611d7c565b61029e611dfe565b61029e6105083660046133d5565b611ed7565b61053461051b366004612fd3565b60d4602052600090815260409020805460019091015482565b60408051928352602083019190915201610282565b61027860cd5481565b61027860cf5481565b61029e610569366004613001565b612348565b60ca546102f9906001600160a01b031681565b61027860d25481565b6105926123ff565b6001600160a01b03166105ad6097546001600160a01b031690565b6001600160a01b0316146105dc5760405162461bcd60e51b81526004016105d390613453565b60405180910390fd5b610bb960cd541061062f5760405162461bcd60e51b815260206004820152601760248201527f50726f666974206665652063616e6e6f74203e2033302500000000000000000060448201526064016105d3565b60cd55565b61063c6123ff565b6001600160a01b03166106576097546001600160a01b031690565b6001600160a01b03161461067d5760405162461bcd60e51b81526004016105d390613453565b60d180546001600160a01b0319166001600160a01b0392909216919091179055565b60006106ab6001612433565b905080156106c3576000805461ff0019166101001790555b6106cb6124c0565b60ce80546001600160a01b038089166001600160a01b03199283161790925560ca805488841690831617905560cb805487841690831617905560cc80548684169083161790556107d060cd5560c9805492851692909116821790556040805163313ce56760e01b8152905163313ce56791600481810192602092909190829003018186803b15801561075c57600080fd5b505afa158015610770573d6000803e3d6000fd5b505050506040513d601f19601f820116820180604052508101906107949190613499565b60c9805460ff60a01b1916600160a01b60ff93841681029190911791829055900416600611156108065760405162461bcd60e51b815260206004820152601760248201527f5553445420646563696d616c73206d757374203e3d203600000000000000000060448201526064016105d3565b60cb5460c954610825916001600160a01b0391821691166000196124ef565b801561086c576000805461ff0019169055604051600181527f7f26b83ff96e1f2b6a682f133852f6798a09c465da95921460cefb3847402498906020015b60405180910390a15b505050505050565b61087c6123ff565b6001600160a01b03166108976097546001600160a01b031690565b6001600160a01b0316146108bd5760405162461bcd60e51b81526004016105d390613453565b60cb80546001600160a01b0319166001600160a01b0383811691821790925560c954604051636eb1769f60e11b815230600482015260248101929092529091169063dd62ed3e9060440160206040518083038186803b15801561091f57600080fd5b505afa158015610933573d6000803e3d6000fd5b505050506040513d601f19601f8201168201806040525081019061095791906134b4565b61097a5760cb5460c95461097a916001600160a01b0391821691166000196124ef565b50565b6097546001600160a01b03163314806109a0575060ca546001600160a01b031633145b6109bc5760405162461bcd60e51b81526004016105d3906134cd565b60026001541415610a0f5760405162461bcd60e51b815260206004820152601f60248201527f5265656e7472616e637947756172643a207265656e7472616e742063616c6c0060448201526064016105d3565b600260015581610a565760405162461bcd60e51b81526020600482015260126024820152710536861726550657263206d757374203e20360741b60448201526064016105d3565b670de0b6b3a7640000821115610a9a5760405162461bcd60e51b81526020600482015260096024820152684f766572203130302560b81b60448201526064016105d3565b6000610aa4611bda565b90506000670de0b6b3a7640000610abb8584613510565b610ac5919061352f565b6001600160a01b038616600090815260d560205260409020549091508311610b215760405162461bcd60e51b815260206004820152600f60248201526e139bdb98d9481a5cc818995a1a5b99608a1b60448201526064016105d3565b6001600160a01b038516600090815260d56020908152604080832086905585835260d69091529020819055610b56838361264b565b600060d05483610b669190613551565b610b7883670de0b6b3a7640000613510565b610b82919061352f565b90506000610b9260655460ff1690565b610c815760cb5460405163ed47d90960e01b8152600481018490526001600160a01b039091169063ed47d90990602401600060405180830381600087803b158015610bdc57600080fd5b505af1158015610bf0573d6000803e3d6000fd5b505060c9546040516370a0823160e01b81523060048201526001600160a01b0390911692506370a08231915060240160206040518083038186803b158015610c3757600080fd5b505afa158015610c4b573d6000803e3d6000fd5b505050506040513d601f19601f82011682018060405250810190610c6f91906134b4565b9050610c7c836000612697565b610d1f565b60c9546040516370a0823160e01b8152306004820152670de0b6b3a76400009184916001600160a01b03909116906370a082319060240160206040518083038186803b158015610cd057600080fd5b505afa158015610ce4573d6000803e3d6000fd5b505050506040513d601f19601f82011682018060405250810190610d0891906134b4565b610d129190613510565b610d1c919061352f565b90505b60c954610d36906001600160a01b03168883612719565b60c954604080516001600160a01b038a81168252602082018790529092168282015260608201889052517f457f950b75085c30ff780acd57bde642ff1316cc4aad9f286af2c1ffc4163a789181900360800190a15050600180555050505050565b6097546001600160a01b0316331480610dba575060ca546001600160a01b031633145b610dd65760405162461bcd60e51b81526004016105d3906134cd565b60655460ff1615610df95760405162461bcd60e51b81526004016105d390613569565b610e01612749565b565b6097546001600160a01b0316331480610e26575060ca546001600160a01b031633145b610e425760405162461bcd60e51b81526004016105d3906134cd565b60655460ff16610f665760cb5460408051632f4912bd60e21b815290516000926001600160a01b03169163bd244af4916004808301926020929190829003018186803b158015610e9157600080fd5b505afa158015610ea5573d6000803e3d6000fd5b505050506040513d601f19601f82011682018060405250810190610ec991906134b4565b60d0549091506000828210610ee657670de0b6b3a7640000610f03565b82610ef983670de0b6b3a7640000613510565b610f03919061352f565b60cb5460405163ed47d90960e01b8152600481018390529192506001600160a01b03169063ed47d90990602401600060405180830381600087803b158015610f4a57600080fd5b505af1158015610f5e573d6000803e3d6000fd5b505050505050505b60c9546040516370a0823160e01b8152306004820152610ff7916001600160a01b0316906370a082319060240160206040518083038186803b158015610fab57600080fd5b505afa158015610fbf573d6000803e3d6000fd5b505050506040513d601f19601f82011682018060405250810190610fe391906134b4565b60408051600081526020810190915261285d565b5050565b6110036123ff565b6001600160a01b031661101e6097546001600160a01b031690565b6001600160a01b0316146110445760405162461bcd60e51b81526004016105d390613453565b60cc80546001600160a01b0319166001600160a01b0392909216919091179055565b6097546001600160a01b0316331480611089575060ca546001600160a01b031633145b6110a55760405162461bcd60e51b81526004016105d3906134cd565b60cb5460405163778d98b360e11b815260048101859052602481018490526000916001600160a01b03169063ef1b316690604401602060405180830381600087803b1580156110f357600080fd5b505af1158015611107573d6000803e3d6000fd5b505050506040513d601f19601f8201168201806040525081019061112b91906134b4565b905080156112775760408051600180825281830190925260009160208083019080368337019050509050828160008151811061116957611169613593565b6001600160a01b03929092166020928302919091019091015260408051600180825281830190925260009181602001602082028036833701905050905082816000815181106111ba576111ba613593565b602090810291909101015260cb546040516326b89b7160e01b81526001600160a01b03909116906326b89b71906111f790859085906004016133a7565b600060405180830381600087803b15801561121157600080fd5b505af1158015611225573d6000803e3d6000fd5b505060408051898152602081018990529081018690526001600160a01b03871660608201527f2be1fd30870a31378112c815f24e8611c8a87ed036bce5cf5670a8e34dbf210a92506080019050610863565b50505050565b6112856123ff565b6001600160a01b03166112a06097546001600160a01b031690565b6001600160a01b0316146112c65760405162461bcd60e51b81526004016105d390613453565b60ca80546001600160a01b038381166001600160a01b031983168117909355604080519190921680825260208201939093527f9f0ac88be9159761bacf6c9e7c294c397ebf594607f6b3f2f70e7e0841ea68e891015b60405180910390a15050565b6113306123ff565b6001600160a01b031661134b6097546001600160a01b031690565b6001600160a01b0316146113715760405162461bcd60e51b81526004016105d390613453565b610e016000612a33565b6097546001600160a01b031633148061139e575060ca546001600160a01b031633145b6113ba5760405162461bcd60e51b81526004016105d3906134cd565b60655460ff166114035760405162461bcd60e51b815260206004820152601460248201527314185d5cd8589b194e881b9bdd081c185d5cd95960621b60448201526064016105d3565b81518151811461144e5760405162461bcd60e51b815260206004820152601660248201527509cdee840dac2e8c6d040c2e4e4c2f240d8cadccee8d60531b60448201526064016105d3565b611456612a85565b60c9546040516370a0823160e01b81523060048201526000916001600160a01b0316906370a082319060240160206040518083038186803b15801561149a57600080fd5b505afa1580156114ae573d6000803e3d6000fd5b505050506040513d601f19601f820116820180604052508101906114d291906134b4565b90508015611277576000806114e5611b58565b909250905060006114f782600a61368d565b60c954849061151190600160a01b900460ff16601261369c565b61151c90600a61368d565b6115269087613510565b6115309190613510565b61153a919061352f565b90506000805b868110156115775787818151811061155a5761155a613593565b60200260200101519150808061156f906136bf565b915050611540565b5060008667ffffffffffffffff8111156115935761159361315c565b6040519080825280602002602001820160405280156115bc578160200160208202803683370190505b50905060005b878110156116295782878a83815181106115de576115de613593565b60200260200101516115f09190613510565b6115fa919061352f565b82828151811061160c5761160c613593565b602090810291909101015280611621816136bf565b9150506115c2565b5060cb546040516326b89b7160e01b81526001600160a01b03909116906326b89b719061165c908c9085906004016133a7565b600060405180830381600087803b15801561167657600080fd5b505af115801561168a573d6000803e3d6000fd5b50505050611699836001612697565b6040518681527fc13e24d2b0a3bacd5d1a7c514125a1e27323abf7c86f6d36597f8752bbd7eed79060200160405180910390a1505050505050505050565b6116df6123ff565b6001600160a01b03166116fa6097546001600160a01b031690565b6001600160a01b0316146117205760405162461bcd60e51b81526004016105d390613453565b60ce80546001600160a01b038381166001600160a01b031983168117909355604080519190921680825260208201939093527febcecb9db04071cf4b4ecc1e2e1e4603e74c9382d6e36c3531f0b62af4c78ed7910161131c565b600060d2546000146117f65760d25482101561179857506000919050565b60d35482116117f657815b60d25481106117f457600081815260d4602090815260409182902082518084019093528054835260010154908201819052156117e157519392505050565b50806117ec816136da565b9150506117a3565b505b6117fe611bda565b92915050565b606080606060cb60009054906101000a90046001600160a01b03166001600160a01b031663aae092366040518163ffffffff1660e01b815260040160006040518083038186803b15801561185757600080fd5b505afa15801561186b573d6000803e3d6000fd5b505050506040513d6000823e601f3d908101601f19168201604052611893919081019061374c565b80519193509150468167ffffffffffffffff8111156118b4576118b461315c565b6040519080825280602002602001820160405280156118dd578160200160208202803683370190505b50945060005b8281101561191b57818682815181106118fe576118fe613593565b602090810291909101015280611913816136bf565b9150506118e3565b5060c9546040516370a0823160e01b81523060048201526000916001600160a01b0316906370a082319060240160206040518083038186803b15801561196057600080fd5b505afa158015611974573d6000803e3d6000fd5b505050506040513d601f19601f8201168201806040525081019061199891906134b4565b90506000811180156119aa5750600083115b15611abb576000806119ba611b58565b909250905060006119cc82600a61368d565b60c95484906119e690600160a01b900460ff16601261369c565b6119f190600a61368d565b60c9546040516370a0823160e01b81523060048201526001600160a01b03909116906370a082319060240160206040518083038186803b158015611a3457600080fd5b505afa158015611a48573d6000803e3d6000fd5b505050506040513d601f19601f82011682018060405250810190611a6c91906134b4565b611a769190613510565b611a809190613510565b611a8a919061352f565b90508087600081518110611aa057611aa0613593565b60200260200101818151611ab49190613551565b9052505050505b505050909192565b60608060cb60009054906101000a90046001600160a01b03166001600160a01b0316634631b2466040518163ffffffff1660e01b815260040160006040518083038186803b158015611b1457600080fd5b505afa158015611b28573d6000803e3d6000fd5b505050506040513d6000823e601f3d908101601f19168201604052611b50919081019061374c565b915091509091565b60cc5460c95460405163b3596f0760e01b81526001600160a01b0391821660048201526000928392169063b3596f0790602401604080518083038186803b158015611ba257600080fd5b505afa158015611bb6573d6000803e3d6000fd5b505050506040513d601f19601f82011682018060405250810190611b509190613807565b600080611be960655460ff1690565b15611cd057600080611bf9611b58565b9092509050611c0981600a61368d565b60c9548390611c2390600160a01b900460ff16601261369c565b611c2e90600a61368d565b60c9546040516370a0823160e01b81523060048201526001600160a01b03909116906370a082319060240160206040518083038186803b158015611c7157600080fd5b505afa158015611c85573d6000803e3d6000fd5b505050506040513d601f19601f82011682018060405250810190611ca991906134b4565b611cb39190613510565b611cbd9190613510565b611cc7919061352f565b92505050611d59565b60cb60009054906101000a90046001600160a01b03166001600160a01b031663bd244af46040518163ffffffff1660e01b815260040160206040518083038186803b158015611d1e57600080fd5b505afa158015611d32573d6000803e3d6000fd5b505050506040513d601f19601f82011682018060405250810190611d5691906134b4565b90505b60d0548111611d69576000611d76565b60d054611d769082613833565b91505090565b60cb546040805163c89d5b8b60e01b815290516000926001600160a01b03169163c89d5b8b916004808301926020929190829003018186803b158015611dc157600080fd5b505afa158015611dd5573d6000803e3d6000fd5b505050506040513d601f19601f82011682018060405250810190611df991906134b4565b905090565b6097546001600160a01b0316331480611e21575060ca546001600160a01b031633145b611e3d5760405162461bcd60e51b81526004016105d3906134cd565b60655460ff1615611e605760405162461bcd60e51b81526004016105d390613569565b611e68612b1e565b60cb60009054906101000a90046001600160a01b03166001600160a01b031663db2e21bc6040518163ffffffff1660e01b8152600401600060405180830381600087803b158015611eb857600080fd5b505af1158015611ecc573d6000803e3d6000fd5b5050600060cf555050565b6097546001600160a01b0316331480611efa575060ca546001600160a01b031633145b611f165760405162461bcd60e51b81526004016105d3906134cd565b60026001541415611f695760405162461bcd60e51b815260206004820152601f60248201527f5265656e7472616e637947756172643a207265656e7472616e742063616c6c0060448201526064016105d3565b600260015560655460ff1615611f915760405162461bcd60e51b81526004016105d390613569565b6001600160a01b038416611fd95760405162461bcd60e51b815260206004820152600f60248201526e125b9d985b1a59081858d8dbdd5b9d608a1b60448201526064016105d3565b8251825181146120245760405162461bcd60e51b815260206004820152601660248201527509cdee840dac2e8c6d040c2e4e4c2f240d8cadccee8d60531b60448201526064016105d3565b60c95460009061204090600690600160a01b900460ff1661369c565b61204b90600a61368d565b90506000805b838110156120d5578286828151811061206c5761206c613593565b602002602001015161207e9190613510565b86828151811061209057612090613593565b6020026020010181815250508581815181106120ae576120ae613593565b6020026020010151826120c19190613551565b9150806120cd816136bf565b915050612051565b50806000106121195760405162461bcd60e51b815260206004820152601060248201526f0416d6f756e7473206d757374203e20360841b60448201526064016105d3565b6001600160a01b038716600090815260d5602052604090205484116121725760405162461bcd60e51b815260206004820152600f60248201526e139bdb98d9481a5cc818995a1a5b99608a1b60448201526064016105d3565b6001600160a01b03808816600090815260d56020526040902085905560c95461219c911682612b77565b600085815260d660205260409020556121bc846121b7611bda565b61264b565b60c9546121d4906001600160a01b0316883084612cac565b6000806121df611b58565b909250905060006121f182600a61368d565b60c954849061220b90600160a01b900460ff16601261369c565b61221690600a61368d565b6122209087613510565b61222a9190613510565b612234919061352f565b60cf549091501561224757612247612749565b600080612254868b61285d565b909250905081156122c45760cb546040516326b89b7160e01b81526001600160a01b03909116906326b89b7190612291908e9085906004016133a7565b600060405180830381600087803b1580156122ab57600080fd5b505af11580156122bf573d6000803e3d6000fd5b505050505b6122cf836001612697565b60c9546040517fe31c7b8d08ee7db0afa68782e1028ef92305caeea8626633ad44d413e30f6b2f9161232e918f918a916001600160a01b03909116906001600160a01b0393841681526020810192909252909116604082015260600190565b60405180910390a150506001805550505050505050505050565b6123506123ff565b6001600160a01b031661236b6097546001600160a01b031690565b6001600160a01b0316146123915760405162461bcd60e51b81526004016105d390613453565b6001600160a01b0381166123f65760405162461bcd60e51b815260206004820152602660248201527f4f776e61626c653a206e6577206f776e657220697320746865207a65726f206160448201526564647265737360d01b60648201526084016105d3565b61097a81612a33565b60006018361080159061241c575060d1546001600160a01b031633145b1561242e575060131936013560601c90565b503390565b60008054610100900460ff161561247a578160ff1660011480156124565750303b155b6124725760405162461bcd60e51b81526004016105d39061384a565b506000919050565b60005460ff8084169116106124a15760405162461bcd60e51b81526004016105d39061384a565b506000805460ff191660ff92909216919091179055600190565b919050565b600054610100900460ff166124e75760405162461bcd60e51b81526004016105d390613898565b610e01612ce4565b8015806125785750604051636eb1769f60e11b81523060048201526001600160a01b03838116602483015284169063dd62ed3e9060440160206040518083038186803b15801561253e57600080fd5b505afa158015612552573d6000803e3d6000fd5b505050506040513d601f19601f8201168201806040525081019061257691906134b4565b155b6125e35760405162461bcd60e51b815260206004820152603660248201527f5361666545524332303a20617070726f76652066726f6d206e6f6e2d7a65726f60448201527520746f206e6f6e2d7a65726f20616c6c6f77616e636560501b60648201526084016105d3565b6040516001600160a01b03831660248201526044810182905261264690849063095ea7b360e01b906064015b60408051601f198184030181529190526020810180516001600160e01b03166001600160e01b031990931692909217909152612d1b565b505050565b604080518082018252828152426020808301918252600086815260d49091529290922090518155905160019091015560d2546126875760d28290555b8160d3541015610ff7575060d355565b60cf546001821515146126c7578260cf54116126b45760006126d5565b8260cf546126c29190613833565b6126d5565b8260cf546126d59190613551565b60cf81905560408051918252602082018390527f07b7fa586c4fdef11992d9448b97ba78814c23ddec7e1d4bf195fda6716e472691015b60405180910390a1505050565b6040516001600160a01b03831660248201526044810182905261264690849063a9059cbb60e01b9060640161260f565b60cb5460408051632f4912bd60e21b815290516000926001600160a01b03169163bd244af4916004808301926020929190829003018186803b15801561278e57600080fd5b505afa1580156127a2573d6000803e3d6000fd5b505050506040513d601f19601f820116820180604052508101906127c691906134b4565b60cf5490915060008183111561281f5760006127e28385613833565b905061271060cd54826127f59190613510565b6127ff919061352f565b91508160d060008282546128139190613551565b90915550505060cf8390555b60408051848152602081018490529081018290527fa3e3c8c92ed1e364d04865f99cd96c3ae8f5a7d800f4a1d8148a58c6de6f1b719060600161270c565b60d0546000906060908015612a2a57600080612877611b58565b60c9549193509150600090839061289990600160a01b900460ff16601261369c565b6128a490600a61368d565b6128ae9190613510565b6128b983600a61368d565b6128c39086613510565b6128cd919061352f565b87519091508890818310156128f157600095506128ea838b613833565b9950612952565b6128fc84600a61368d565b60c954869061291690600160a01b900460ff16601261369c565b61292190600a61368d565b61292b908d613510565b6129359190613510565b61293f919061352f565b6129499087613833565b60009a90965092505b60d086905560005b818110156129c157828b8b838151811061297657612976613593565b60200260200101516129889190613510565b612992919061352f565b8a82815181106129a4576129a4613593565b6020908102919091010152806129b9816136bf565b91505061295a565b5060ce5460c9546129df916001600160a01b03918216911685612719565b60c954604080518581526001600160a01b0390921660208301527f6e027f1905abd7233c51c9483e29a545074ed10d39db528c9791a246b26741ff910160405180910390a150505050505b50929391925050565b609780546001600160a01b038381166001600160a01b0319831681179093556040519116919082907f8be0079c531659141344cd1fd0a4f28419497f9722a3daafe3b4186f6b6457e090600090a35050565b60655460ff16612ace5760405162461bcd60e51b815260206004820152601460248201527314185d5cd8589b194e881b9bdd081c185d5cd95960621b60448201526064016105d3565b6065805460ff191690557f5db9ee0a495bf2e6ff9c91a7834c1ba4fdd244a5e8aa4e537bd38aeae4b073aa612b016123ff565b6040516001600160a01b03909116815260200160405180910390a1565b60655460ff1615612b415760405162461bcd60e51b81526004016105d390613569565b6065805460ff191660011790557f62e78cea01bee320cd4e420270b5ea74000d11b0c9f74754ebdbfc544b05a258612b016123ff565b60cc5460405163b3596f0760e01b81526001600160a01b038481166004830152600092839283929091169063b3596f0790602401604080518083038186803b158015612bc257600080fd5b505afa158015612bd6573d6000803e3d6000fd5b505050506040513d601f19601f82011682018060405250810190612bfa9190613807565b915091506000856001600160a01b031663313ce5676040518163ffffffff1660e01b815260040160206040518083038186803b158015612c3957600080fd5b505afa158015612c4d573d6000803e3d6000fd5b505050506040513d601f19601f82011682018060405250810190612c719190613499565b9050612c7e82600a61368d565b83612c8e878460ff166012612ded565b612c989190613510565b612ca2919061352f565b9695505050505050565b6040516001600160a01b03808516602483015283166044820152606481018290526112779085906323b872dd60e01b9060840161260f565b600054610100900460ff16612d0b5760405162461bcd60e51b81526004016105d390613898565b610e01612d166123ff565b612a33565b6000612d70826040518060400160405280602081526020017f5361666545524332303a206c6f772d6c6576656c2063616c6c206661696c6564815250856001600160a01b0316612e529092919063ffffffff16565b8051909150156126465780806020019051810190612d8e91906138e3565b6126465760405162461bcd60e51b815260206004820152602a60248201527f5361666545524332303a204552433230206f7065726174696f6e20646964206e6044820152691bdd081cdd58d8d9595960b21b60648201526084016105d3565b600081831415612dfe575082612e4b565b81831015612e2c57612e108383613833565b612e1b90600a613905565b612e259085613510565b9050612e4b565b612e368284613833565b612e4190600a613905565b612e25908561352f565b9392505050565b6060612e618484600085612e69565b949350505050565b606082471015612eca5760405162461bcd60e51b815260206004820152602660248201527f416464726573733a20696e73756666696369656e742062616c616e636520666f6044820152651c8818d85b1b60d21b60648201526084016105d3565b6001600160a01b0385163b612f215760405162461bcd60e51b815260206004820152601d60248201527f416464726573733a2063616c6c20746f206e6f6e2d636f6e747261637400000060448201526064016105d3565b600080866001600160a01b03168587604051612f3d9190613911565b60006040518083038185875af1925050503d8060008114612f7a576040519150601f19603f3d011682016040523d82523d6000602084013e612f7f565b606091505b5091509150612f8f828286612f9a565b979650505050505050565b60608315612fa9575081612e4b565b825115612fb95782518084602001fd5b8160405162461bcd60e51b81526004016105d391906130f0565b600060208284031215612fe557600080fd5b5035919050565b6001600160a01b038116811461097a57600080fd5b60006020828403121561301357600080fd5b8135612e4b81612fec565b600080600080600060a0868803121561303657600080fd5b853561304181612fec565b9450602086013561305181612fec565b9350604086013561306181612fec565b9250606086013561307181612fec565b9150608086013561308181612fec565b809150509295509295909350565b6000806000606084860312156130a457600080fd5b83356130af81612fec565b95602085013595506040909401359392505050565b60005b838110156130df5781810151838201526020016130c7565b838111156112775750506000910152565b602081526000825180602084015261310f8160408501602087016130c4565b601f01601f19169190910160400192915050565b60008060006060848603121561313857600080fd5b8335925060208401359150604084013561315181612fec565b809150509250925092565b634e487b7160e01b600052604160045260246000fd5b604051601f8201601f1916810167ffffffffffffffff8111828210171561319b5761319b61315c565b604052919050565b600067ffffffffffffffff8211156131bd576131bd61315c565b5060051b60200190565b600082601f8301126131d857600080fd5b813560206131ed6131e8836131a3565b613172565b82815260059290921b8401810191818101908684111561320c57600080fd5b8286015b8481101561323057803561322381612fec565b8352918301918301613210565b509695505050505050565b600082601f83011261324c57600080fd5b8135602061325c6131e8836131a3565b82815260059290921b8401810191818101908684111561327b57600080fd5b8286015b84811015613230578035835291830191830161327f565b600080604083850312156132a957600080fd5b823567ffffffffffffffff808211156132c157600080fd5b6132cd868387016131c7565b935060208501359150808211156132e357600080fd5b506132f08582860161323b565b9150509250929050565b600081518084526020808501945080840160005b8381101561332a5781518752958201959082019060010161330e565b509495945050505050565b600081518084526020808501945080840160005b8381101561332a5781516001600160a01b031687529582019590820190600101613349565b60608152600061338160608301866132fa565b82810360208401526133938186613335565b90508281036040840152612ca281856132fa565b6040815260006133ba6040830185613335565b82810360208401526133cc81856132fa565b95945050505050565b600080600080608085870312156133eb57600080fd5b84356133f681612fec565b9350602085013567ffffffffffffffff8082111561341357600080fd5b61341f888389016131c7565b9450604087013591508082111561343557600080fd5b506134428782880161323b565b949793965093946060013593505050565b6020808252818101527f4f776e61626c653a2063616c6c6572206973206e6f7420746865206f776e6572604082015260600190565b805160ff811681146124bb57600080fd5b6000602082840312156134ab57600080fd5b612e4b82613488565b6000602082840312156134c657600080fd5b5051919050565b60208082526013908201527227b7363c9037bbb732b91037b91030b236b4b760691b604082015260600190565b634e487b7160e01b600052601160045260246000fd5b600081600019048311821515161561352a5761352a6134fa565b500290565b60008261354c57634e487b7160e01b600052601260045260246000fd5b500490565b60008219821115613564576135646134fa565b500190565b60208082526010908201526f14185d5cd8589b194e881c185d5cd95960821b604082015260600190565b634e487b7160e01b600052603260045260246000fd5b600181815b808511156135e45781600019048211156135ca576135ca6134fa565b808516156135d757918102915b93841c93908002906135ae565b509250929050565b6000826135fb575060016117fe565b81613608575060006117fe565b816001811461361e576002811461362857613644565b60019150506117fe565b60ff841115613639576136396134fa565b50506001821b6117fe565b5060208310610133831016604e8410600b8410161715613667575081810a6117fe565b61367183836135a9565b8060001904821115613685576136856134fa565b029392505050565b6000612e4b60ff8416836135ec565b600060ff821660ff8416808210156136b6576136b66134fa565b90039392505050565b60006000198214156136d3576136d36134fa565b5060010190565b6000816136e9576136e96134fa565b506000190190565b600082601f83011261370257600080fd5b815160206137126131e8836131a3565b82815260059290921b8401810191818101908684111561373157600080fd5b8286015b848110156132305780518352918301918301613735565b6000806040838503121561375f57600080fd5b825167ffffffffffffffff8082111561377757600080fd5b818501915085601f83011261378b57600080fd5b8151602061379b6131e8836131a3565b82815260059290921b840181019181810190898411156137ba57600080fd5b948201945b838610156137e15785516137d281612fec565b825294820194908201906137bf565b918801519196509093505050808211156137fa57600080fd5b506132f0858286016136f1565b6000806040838503121561381a57600080fd5b8251915061382a60208401613488565b90509250929050565b600082821015613845576138456134fa565b500390565b6020808252602e908201527f496e697469616c697a61626c653a20636f6e747261637420697320616c72656160408201526d191e481a5b9a5d1a585b1a5e995960921b606082015260800190565b6020808252602b908201527f496e697469616c697a61626c653a20636f6e7472616374206973206e6f74206960408201526a6e697469616c697a696e6760a81b606082015260800190565b6000602082840312156138f557600080fd5b81518015158114612e4b57600080fd5b6000612e4b83836135ec565b600082516139238184602087016130c4565b919091019291505056fea2646970667358221220fb2bd684e8946550963caa6f44283de5c6f17599bf2e5b0450aa5ad21f17c34064736f6c63430008090033",
  "devdoc": {
    "kind": "dev",
    "methods": {
      "depositByAdmin(address,address[],uint256[],uint256)": {
        "params": {
          "_USDTAmts": "amounts of USDT should be deposited to each pools. It's 6 decimals"
        }
      },
      "getUSDTPriceInUSD()": {
        "returns": {
          "_0": "the price of USDT in USD."
        }
      },
      "owner()": {
        "details": "Returns the address of the current owner."
      },
      "paused()": {
        "details": "Returns true if the contract is paused, and false otherwise."
      },
      "renounceOwnership()": {
        "details": "Leaves the contract without owner. It will not be possible to call `onlyOwner` functions anymore. Can only be called by the current owner. NOTE: Renouncing ownership will leave the contract without an owner, thereby removing any functionality that is only available to the owner."
      },
      "transferOwnership(address)": {
        "details": "Transfers ownership of the contract to a new account (`newOwner`). Can only be called by the current owner."
      },
      "withdrawPercByAdmin(address,uint256,uint256)": {
        "params": {
          "_sharePerc": "percentage of assets which should be withdrawn. It's 18 decimals"
        }
      }
    },
    "version": 1
  },
  "userdoc": {
    "kind": "user",
    "methods": {
      "depositByAdmin(address,address[],uint256[],uint256)": {
        "notice": "The length of array is based on token count. And the lengths should be same on the arraies."
      }
    },
    "version": 1
  },
  "storageLayout": {
    "storage": [
      {
        "astId": 130,
        "contract": "contracts/bni/BNIVaultTest.sol:BNIVaultTest",
        "label": "_initialized",
        "offset": 0,
        "slot": "0",
        "type": "t_uint8"
      },
      {
        "astId": 133,
        "contract": "contracts/bni/BNIVaultTest.sol:BNIVaultTest",
        "label": "_initializing",
        "offset": 1,
        "slot": "0",
        "type": "t_bool"
      },
      {
        "astId": 390,
        "contract": "contracts/bni/BNIVaultTest.sol:BNIVaultTest",
        "label": "_status",
        "offset": 0,
        "slot": "1",
        "type": "t_uint256"
      },
      {
        "astId": 434,
        "contract": "contracts/bni/BNIVaultTest.sol:BNIVaultTest",
        "label": "__gap",
        "offset": 0,
        "slot": "2",
        "type": "t_array(t_uint256)49_storage"
      },
      {
        "astId": 2709,
        "contract": "contracts/bni/BNIVaultTest.sol:BNIVaultTest",
        "label": "__gap",
        "offset": 0,
        "slot": "51",
        "type": "t_array(t_uint256)50_storage"
      },
      {
        "astId": 286,
        "contract": "contracts/bni/BNIVaultTest.sol:BNIVaultTest",
        "label": "_paused",
        "offset": 0,
        "slot": "101",
        "type": "t_bool"
      },
      {
        "astId": 375,
        "contract": "contracts/bni/BNIVaultTest.sol:BNIVaultTest",
        "label": "__gap",
        "offset": 0,
        "slot": "102",
        "type": "t_array(t_uint256)49_storage"
      },
      {
        "astId": 10,
        "contract": "contracts/bni/BNIVaultTest.sol:BNIVaultTest",
        "label": "_owner",
        "offset": 0,
        "slot": "151",
        "type": "t_address"
      },
      {
        "astId": 122,
        "contract": "contracts/bni/BNIVaultTest.sol:BNIVaultTest",
        "label": "__gap",
        "offset": 0,
        "slot": "152",
        "type": "t_array(t_uint256)49_storage"
      },
      {
        "astId": 5863,
        "contract": "contracts/bni/BNIVaultTest.sol:BNIVaultTest",
        "label": "USDT",
        "offset": 0,
        "slot": "201",
        "type": "t_contract(IERC20UpgradeableExt)51017"
      },
      {
        "astId": 5865,
        "contract": "contracts/bni/BNIVaultTest.sol:BNIVaultTest",
        "label": "usdtDecimals",
        "offset": 20,
        "slot": "201",
        "type": "t_uint8"
      },
      {
        "astId": 5867,
        "contract": "contracts/bni/BNIVaultTest.sol:BNIVaultTest",
        "label": "admin",
        "offset": 0,
        "slot": "202",
        "type": "t_address"
      },
      {
        "astId": 5870,
        "contract": "contracts/bni/BNIVaultTest.sol:BNIVaultTest",
        "label": "strategy",
        "offset": 0,
        "slot": "203",
        "type": "t_contract(IStrategy)5845"
      },
      {
        "astId": 5873,
        "contract": "contracts/bni/BNIVaultTest.sol:BNIVaultTest",
        "label": "priceOracle",
        "offset": 0,
        "slot": "204",
        "type": "t_contract(IPriceOracle)9022"
      },
      {
        "astId": 5875,
        "contract": "contracts/bni/BNIVaultTest.sol:BNIVaultTest",
        "label": "profitFeePerc",
        "offset": 0,
        "slot": "205",
        "type": "t_uint256"
      },
      {
        "astId": 5877,
        "contract": "contracts/bni/BNIVaultTest.sol:BNIVaultTest",
        "label": "treasuryWallet",
        "offset": 0,
        "slot": "206",
        "type": "t_address"
      },
      {
        "astId": 5879,
        "contract": "contracts/bni/BNIVaultTest.sol:BNIVaultTest",
        "label": "watermark",
        "offset": 0,
        "slot": "207",
        "type": "t_uint256"
      },
      {
        "astId": 5881,
        "contract": "contracts/bni/BNIVaultTest.sol:BNIVaultTest",
        "label": "fees",
        "offset": 0,
        "slot": "208",
        "type": "t_uint256"
      },
      {
        "astId": 5883,
        "contract": "contracts/bni/BNIVaultTest.sol:BNIVaultTest",
        "label": "trustedForwarder",
        "offset": 0,
        "slot": "209",
        "type": "t_address"
      },
      {
        "astId": 5885,
        "contract": "contracts/bni/BNIVaultTest.sol:BNIVaultTest",
        "label": "firstOperationNonce",
        "offset": 0,
        "slot": "210",
        "type": "t_uint256"
      },
      {
        "astId": 5887,
        "contract": "contracts/bni/BNIVaultTest.sol:BNIVaultTest",
        "label": "lastOperationNonce",
        "offset": 0,
        "slot": "211",
        "type": "t_uint256"
      },
      {
        "astId": 5892,
        "contract": "contracts/bni/BNIVaultTest.sol:BNIVaultTest",
        "label": "poolAtNonce",
        "offset": 0,
        "slot": "212",
        "type": "t_mapping(t_uint256,t_struct(PoolSnapshot)5860_storage)"
      },
      {
        "astId": 5896,
        "contract": "contracts/bni/BNIVaultTest.sol:BNIVaultTest",
        "label": "userLastOperationNonce",
        "offset": 0,
        "slot": "213",
        "type": "t_mapping(t_address,t_uint256)"
      },
      {
        "astId": 5900,
        "contract": "contracts/bni/BNIVaultTest.sol:BNIVaultTest",
        "label": "operationAmounts",
        "offset": 0,
        "slot": "214",
        "type": "t_mapping(t_uint256,t_uint256)"
      }
    ],
    "types": {
      "t_address": {
        "encoding": "inplace",
        "label": "address",
        "numberOfBytes": "20"
      },
      "t_array(t_uint256)49_storage": {
        "base": "t_uint256",
        "encoding": "inplace",
        "label": "uint256[49]",
        "numberOfBytes": "1568"
      },
      "t_array(t_uint256)50_storage": {
        "base": "t_uint256",
        "encoding": "inplace",
        "label": "uint256[50]",
        "numberOfBytes": "1600"
      },
      "t_bool": {
        "encoding": "inplace",
        "label": "bool",
        "numberOfBytes": "1"
      },
      "t_contract(IERC20UpgradeableExt)51017": {
        "encoding": "inplace",
        "label": "contract IERC20UpgradeableExt",
        "numberOfBytes": "20"
      },
      "t_contract(IPriceOracle)9022": {
        "encoding": "inplace",
        "label": "contract IPriceOracle",
        "numberOfBytes": "20"
      },
      "t_contract(IStrategy)5845": {
        "encoding": "inplace",
        "label": "contract IStrategy",
        "numberOfBytes": "20"
      },
      "t_mapping(t_address,t_uint256)": {
        "encoding": "mapping",
        "key": "t_address",
        "label": "mapping(address => uint256)",
        "numberOfBytes": "32",
        "value": "t_uint256"
      },
      "t_mapping(t_uint256,t_struct(PoolSnapshot)5860_storage)": {
        "encoding": "mapping",
        "key": "t_uint256",
        "label": "mapping(uint256 => struct BNIVault.PoolSnapshot)",
        "numberOfBytes": "32",
        "value": "t_struct(PoolSnapshot)5860_storage"
      },
      "t_mapping(t_uint256,t_uint256)": {
        "encoding": "mapping",
        "key": "t_uint256",
        "label": "mapping(uint256 => uint256)",
        "numberOfBytes": "32",
        "value": "t_uint256"
      },
      "t_struct(PoolSnapshot)5860_storage": {
        "encoding": "inplace",
        "label": "struct BNIVault.PoolSnapshot",
        "members": [
          {
            "astId": 5857,
            "contract": "contracts/bni/BNIVaultTest.sol:BNIVaultTest",
            "label": "poolInUSD",
            "offset": 0,
            "slot": "0",
            "type": "t_uint256"
          },
          {
            "astId": 5859,
            "contract": "contracts/bni/BNIVaultTest.sol:BNIVaultTest",
            "label": "ts",
            "offset": 0,
            "slot": "1",
            "type": "t_uint256"
          }
        ],
        "numberOfBytes": "64"
      },
      "t_uint256": {
        "encoding": "inplace",
        "label": "uint256",
        "numberOfBytes": "32"
      },
      "t_uint8": {
        "encoding": "inplace",
        "label": "uint8",
        "numberOfBytes": "1"
      }
    }
  }
}