{
  "address": "0xB60F1a1f71C6871206315D9F6d117589EE8D73e0",
  "abi": [
    {
      "anonymous": false,
      "inputs": [
        {
          "indexed": true,
          "internalType": "uint256",
          "name": "currentWatermark",
          "type": "uint256"
        },
        {
          "indexed": true,
          "internalType": "uint256",
          "name": "lastWatermark",
          "type": "uint256"
        }
      ],
      "name": "AdjustWatermark",
      "type": "event"
    },
    {
      "anonymous": false,
      "inputs": [
        {
          "indexed": true,
          "internalType": "uint256",
          "name": "currentWatermark",
          "type": "uint256"
        },
        {
          "indexed": true,
          "internalType": "uint256",
          "name": "lastWatermark",
          "type": "uint256"
        },
        {
          "indexed": true,
          "internalType": "uint256",
          "name": "fee",
          "type": "uint256"
        }
      ],
      "name": "CollectProfitAndUpdateWatermark",
      "type": "event"
    },
    {
      "anonymous": false,
      "inputs": [
        {
          "indexed": true,
          "internalType": "address",
          "name": "account",
          "type": "address"
        },
        {
          "indexed": false,
          "internalType": "address",
          "name": "from",
          "type": "address"
        },
        {
          "indexed": true,
          "internalType": "uint256",
          "name": "amtDeposit",
          "type": "uint256"
        },
        {
          "indexed": true,
          "internalType": "address",
          "name": "tokenDeposit",
          "type": "address"
        }
      ],
      "name": "Deposit",
      "type": "event"
    },
    {
      "anonymous": false,
      "inputs": [
        {
          "indexed": false,
          "internalType": "uint8",
          "name": "version",
          "type": "uint8"
        }
      ],
      "name": "Initialized",
      "type": "event"
    },
    {
      "anonymous": false,
      "inputs": [
        {
          "indexed": true,
          "internalType": "address",
          "name": "previousOwner",
          "type": "address"
        },
        {
          "indexed": true,
          "internalType": "address",
          "name": "newOwner",
          "type": "address"
        }
      ],
      "name": "OwnershipTransferred",
      "type": "event"
    },
    {
      "anonymous": false,
      "inputs": [
        {
          "indexed": false,
          "internalType": "address",
          "name": "account",
          "type": "address"
        }
      ],
      "name": "Paused",
      "type": "event"
    },
    {
      "anonymous": false,
      "inputs": [
        {
          "indexed": true,
          "internalType": "uint256",
          "name": "pid",
          "type": "uint256"
        },
        {
          "indexed": false,
          "internalType": "uint256",
          "name": "sharePerc",
          "type": "uint256"
        },
        {
          "indexed": true,
          "internalType": "uint256",
          "name": "amount",
          "type": "uint256"
        },
        {
          "indexed": true,
          "internalType": "address",
          "name": "target",
          "type": "address"
        }
      ],
      "name": "Rebalance",
      "type": "event"
    },
    {
      "anonymous": false,
      "inputs": [
        {
          "indexed": true,
          "internalType": "uint256",
          "name": "amount",
          "type": "uint256"
        }
      ],
      "name": "Reinvest",
      "type": "event"
    },
    {
      "anonymous": false,
      "inputs": [
        {
          "indexed": true,
          "internalType": "uint256",
          "name": "fees",
          "type": "uint256"
        },
        {
          "indexed": true,
          "internalType": "address",
          "name": "token",
          "type": "address"
        }
      ],
      "name": "TransferredOutFees",
      "type": "event"
    },
    {
      "anonymous": false,
      "inputs": [
        {
          "indexed": false,
          "internalType": "address",
          "name": "account",
          "type": "address"
        }
      ],
      "name": "Unpaused",
      "type": "event"
    },
    {
      "anonymous": false,
      "inputs": [
        {
          "indexed": true,
          "internalType": "address",
          "name": "account",
          "type": "address"
        },
        {
          "indexed": false,
          "internalType": "address",
          "name": "to",
          "type": "address"
        },
        {
          "indexed": true,
          "internalType": "uint256",
          "name": "amtWithdraw",
          "type": "uint256"
        },
        {
          "indexed": true,
          "internalType": "address",
          "name": "tokenWithdraw",
          "type": "address"
        },
        {
          "indexed": false,
          "internalType": "uint256",
          "name": "sharePerc",
          "type": "uint256"
        }
      ],
      "name": "Withdraw",
      "type": "event"
    },
    {
      "inputs": [],
      "name": "USDT",
      "outputs": [
        {
          "internalType": "contract IERC20UpgradeableExt",
          "name": "",
          "type": "address"
        }
      ],
      "stateMutability": "view",
      "type": "function"
    },
    {
      "inputs": [],
      "name": "admin",
      "outputs": [
        {
          "internalType": "address",
          "name": "",
          "type": "address"
        }
      ],
      "stateMutability": "view",
      "type": "function"
    },
    {
      "inputs": [],
      "name": "collectProfitAndUpdateWatermark",
      "outputs": [],
      "stateMutability": "nonpayable",
      "type": "function"
    },
    {
      "inputs": [
        {
          "internalType": "address",
          "name": "_account",
          "type": "address"
        },
        {
          "internalType": "address[]",
          "name": "_tokens",
          "type": "address[]"
        },
        {
          "internalType": "uint256[]",
          "name": "_USDT6Amts",
          "type": "uint256[]"
        },
        {
          "internalType": "uint256",
          "name": "_nonce",
          "type": "uint256"
        }
      ],
      "name": "depositByAdmin",
      "outputs": [],
      "stateMutability": "nonpayable",
      "type": "function"
    },
    {
      "inputs": [
        {
          "internalType": "address",
          "name": "_account",
          "type": "address"
        },
        {
          "internalType": "address[]",
          "name": "_tokens",
          "type": "address[]"
        },
        {
          "internalType": "uint256[]",
          "name": "_USDT6Amts",
          "type": "uint256[]"
        },
        {
          "internalType": "uint256",
          "name": "_nonce",
          "type": "uint256"
        }
      ],
      "name": "depositByAgent",
      "outputs": [],
      "stateMutability": "nonpayable",
      "type": "function"
    },
    {
      "inputs": [],
      "name": "emergencyWithdraw",
      "outputs": [],
      "stateMutability": "nonpayable",
      "type": "function"
    },
    {
      "inputs": [],
      "name": "fees",
      "outputs": [
        {
          "internalType": "uint256",
          "name": "",
          "type": "uint256"
        }
      ],
      "stateMutability": "view",
      "type": "function"
    },
    {
      "inputs": [],
      "name": "firstOperationNonce",
      "outputs": [
        {
          "internalType": "uint256",
          "name": "",
          "type": "uint256"
        }
      ],
      "stateMutability": "view",
      "type": "function"
    },
    {
      "inputs": [],
      "name": "getAPR",
      "outputs": [
        {
          "internalType": "uint256",
          "name": "",
          "type": "uint256"
        }
      ],
      "stateMutability": "view",
      "type": "function"
    },
    {
      "inputs": [],
      "name": "getAllPoolInUSD",
      "outputs": [
        {
          "internalType": "uint256",
          "name": "",
          "type": "uint256"
        }
      ],
      "stateMutability": "view",
      "type": "function"
    },
    {
      "inputs": [
        {
          "internalType": "uint256",
          "name": "_nonce",
          "type": "uint256"
        }
      ],
      "name": "getAllPoolInUSDAtNonce",
      "outputs": [
        {
          "internalType": "uint256",
          "name": "",
          "type": "uint256"
        }
      ],
      "stateMutability": "view",
      "type": "function"
    },
    {
      "inputs": [],
      "name": "getCurrentCompositionPerc",
      "outputs": [
        {
          "internalType": "address[]",
          "name": "tokens",
          "type": "address[]"
        },
        {
          "internalType": "uint256[]",
          "name": "percentages",
          "type": "uint256[]"
        }
      ],
      "stateMutability": "view",
      "type": "function"
    },
    {
      "inputs": [],
      "name": "getEachPoolInUSD",
      "outputs": [
        {
          "internalType": "uint256[]",
          "name": "chainIDs",
          "type": "uint256[]"
        },
        {
          "internalType": "address[]",
          "name": "tokens",
          "type": "address[]"
        },
        {
          "internalType": "uint256[]",
          "name": "pools",
          "type": "uint256[]"
        }
      ],
      "stateMutability": "view",
      "type": "function"
    },
    {
      "inputs": [],
      "name": "getUSDTPriceInUSD",
      "outputs": [
        {
          "internalType": "uint256",
          "name": "",
          "type": "uint256"
        },
        {
          "internalType": "uint8",
          "name": "",
          "type": "uint8"
        }
      ],
      "stateMutability": "view",
      "type": "function"
    },
    {
      "inputs": [
        {
          "internalType": "address",
          "name": "_treasuryWallet",
          "type": "address"
        },
        {
          "internalType": "address",
          "name": "_admin",
          "type": "address"
        },
        {
          "internalType": "address",
          "name": "_strategy",
          "type": "address"
        },
        {
          "internalType": "address",
          "name": "_priceOracle",
          "type": "address"
        },
        {
          "internalType": "address",
          "name": "_USDT",
          "type": "address"
        }
      ],
      "name": "initialize",
      "outputs": [],
      "stateMutability": "nonpayable",
      "type": "function"
    },
    {
      "inputs": [
        {
          "internalType": "address",
          "name": "_userAgent",
          "type": "address"
        },
        {
          "internalType": "address",
          "name": "_biconomy",
          "type": "address"
        }
      ],
      "name": "initialize2",
      "outputs": [],
      "stateMutability": "nonpayable",
      "type": "function"
    },
    {
      "inputs": [
        {
          "internalType": "address",
          "name": "forwarder",
          "type": "address"
        }
      ],
      "name": "isTrustedForwarder",
      "outputs": [
        {
          "internalType": "bool",
          "name": "",
          "type": "bool"
        }
      ],
      "stateMutability": "view",
      "type": "function"
    },
    {
      "inputs": [],
      "name": "lastOperationNonce",
      "outputs": [
        {
          "internalType": "uint256",
          "name": "",
          "type": "uint256"
        }
      ],
      "stateMutability": "view",
      "type": "function"
    },
    {
      "inputs": [
        {
          "internalType": "uint256",
          "name": "",
          "type": "uint256"
        }
      ],
      "name": "operationAmounts",
      "outputs": [
        {
          "internalType": "uint256",
          "name": "",
          "type": "uint256"
        }
      ],
      "stateMutability": "view",
      "type": "function"
    },
    {
      "inputs": [],
      "name": "owner",
      "outputs": [
        {
          "internalType": "address",
          "name": "",
          "type": "address"
        }
      ],
      "stateMutability": "view",
      "type": "function"
    },
    {
      "inputs": [],
      "name": "paused",
      "outputs": [
        {
          "internalType": "bool",
          "name": "",
          "type": "bool"
        }
      ],
      "stateMutability": "view",
      "type": "function"
    },
    {
      "inputs": [
        {
          "internalType": "uint256",
          "name": "",
          "type": "uint256"
        }
      ],
      "name": "poolAtNonce",
      "outputs": [
        {
          "internalType": "uint256",
          "name": "poolInUSD",
          "type": "uint256"
        },
        {
          "internalType": "uint256",
          "name": "ts",
          "type": "uint256"
        }
      ],
      "stateMutability": "view",
      "type": "function"
    },
    {
      "inputs": [],
      "name": "priceOracle",
      "outputs": [
        {
          "internalType": "contract IPriceOracle",
          "name": "",
          "type": "address"
        }
      ],
      "stateMutability": "view",
      "type": "function"
    },
    {
      "inputs": [],
      "name": "profitFeePerc",
      "outputs": [
        {
          "internalType": "uint256",
          "name": "",
          "type": "uint256"
        }
      ],
      "stateMutability": "view",
      "type": "function"
    },
    {
      "inputs": [
        {
          "internalType": "uint256",
          "name": "_pid",
          "type": "uint256"
        },
        {
          "internalType": "uint256",
          "name": "_sharePerc",
          "type": "uint256"
        },
        {
          "internalType": "address",
          "name": "_target",
          "type": "address"
        }
      ],
      "name": "rebalance",
      "outputs": [],
      "stateMutability": "nonpayable",
      "type": "function"
    },
    {
      "inputs": [
        {
          "internalType": "address[]",
          "name": "_tokens",
          "type": "address[]"
        },
        {
          "internalType": "uint256[]",
          "name": "_perc",
          "type": "uint256[]"
        }
      ],
      "name": "reinvest",
      "outputs": [],
      "stateMutability": "nonpayable",
      "type": "function"
    },
    {
      "inputs": [],
      "name": "renounceOwnership",
      "outputs": [],
      "stateMutability": "nonpayable",
      "type": "function"
    },
    {
      "inputs": [
        {
          "internalType": "address",
          "name": "_admin",
          "type": "address"
        }
      ],
      "name": "setAdmin",
      "outputs": [],
      "stateMutability": "nonpayable",
      "type": "function"
    },
    {
      "inputs": [
        {
          "internalType": "address",
          "name": "_biconomy",
          "type": "address"
        }
      ],
      "name": "setBiconomy",
      "outputs": [],
      "stateMutability": "nonpayable",
      "type": "function"
    },
    {
      "inputs": [
        {
          "internalType": "address",
          "name": "_priceOracle",
          "type": "address"
        }
      ],
      "name": "setPriceOracle",
      "outputs": [],
      "stateMutability": "nonpayable",
      "type": "function"
    },
    {
      "inputs": [
        {
          "internalType": "uint256",
          "name": "_profitFeePerc",
          "type": "uint256"
        }
      ],
      "name": "setProfitFeePerc",
      "outputs": [],
      "stateMutability": "nonpayable",
      "type": "function"
    },
    {
      "inputs": [
        {
          "internalType": "address",
          "name": "_strategy",
          "type": "address"
        }
      ],
      "name": "setStrategy",
      "outputs": [],
      "stateMutability": "nonpayable",
      "type": "function"
    },
    {
      "inputs": [
        {
          "internalType": "address",
          "name": "_treasuryWallet",
          "type": "address"
        }
      ],
      "name": "setTreasuryWallet",
      "outputs": [],
      "stateMutability": "nonpayable",
      "type": "function"
    },
    {
      "inputs": [
        {
          "internalType": "address",
          "name": "_userAgent",
          "type": "address"
        }
      ],
      "name": "setUserAgent",
      "outputs": [],
      "stateMutability": "nonpayable",
      "type": "function"
    },
    {
      "inputs": [],
      "name": "strategy",
      "outputs": [
        {
          "internalType": "contract IStrategy",
          "name": "",
          "type": "address"
        }
      ],
      "stateMutability": "view",
      "type": "function"
    },
    {
      "inputs": [
        {
          "internalType": "address",
          "name": "newOwner",
          "type": "address"
        }
      ],
      "name": "transferOwnership",
      "outputs": [],
      "stateMutability": "nonpayable",
      "type": "function"
    },
    {
      "inputs": [],
      "name": "treasuryWallet",
      "outputs": [
        {
          "internalType": "address",
          "name": "",
          "type": "address"
        }
      ],
      "stateMutability": "view",
      "type": "function"
    },
    {
      "inputs": [],
      "name": "trustedForwarder",
      "outputs": [
        {
          "internalType": "address",
          "name": "",
          "type": "address"
        }
      ],
      "stateMutability": "view",
      "type": "function"
    },
    {
      "inputs": [],
      "name": "userAgent",
      "outputs": [
        {
          "internalType": "address",
          "name": "",
          "type": "address"
        }
      ],
      "stateMutability": "view",
      "type": "function"
    },
    {
      "inputs": [
        {
          "internalType": "address",
          "name": "",
          "type": "address"
        }
      ],
      "name": "userLastOperationNonce",
      "outputs": [
        {
          "internalType": "uint256",
          "name": "",
          "type": "uint256"
        }
      ],
      "stateMutability": "view",
      "type": "function"
    },
    {
      "inputs": [],
      "name": "version",
      "outputs": [
        {
          "internalType": "uint256",
          "name": "",
          "type": "uint256"
        }
      ],
      "stateMutability": "view",
      "type": "function"
    },
    {
      "inputs": [],
      "name": "versionRecipient",
      "outputs": [
        {
          "internalType": "string",
          "name": "",
          "type": "string"
        }
      ],
      "stateMutability": "pure",
      "type": "function"
    },
    {
      "inputs": [],
      "name": "watermark",
      "outputs": [
        {
          "internalType": "uint256",
          "name": "",
          "type": "uint256"
        }
      ],
      "stateMutability": "view",
      "type": "function"
    },
    {
      "inputs": [],
      "name": "withdrawFees",
      "outputs": [],
      "stateMutability": "nonpayable",
      "type": "function"
    },
    {
      "inputs": [
        {
          "internalType": "address",
          "name": "_account",
          "type": "address"
        },
        {
          "internalType": "uint256",
          "name": "_sharePerc",
          "type": "uint256"
        },
        {
          "internalType": "uint256",
          "name": "_nonce",
          "type": "uint256"
        }
      ],
      "name": "withdrawPercByAdmin",
      "outputs": [],
      "stateMutability": "nonpayable",
      "type": "function"
    },
    {
      "inputs": [
        {
          "internalType": "address",
          "name": "_account",
          "type": "address"
        },
        {
          "internalType": "uint256",
          "name": "_sharePerc",
          "type": "uint256"
        },
        {
          "internalType": "uint256",
          "name": "_nonce",
          "type": "uint256"
        }
      ],
      "name": "withdrawPercByAgent",
      "outputs": [],
      "stateMutability": "nonpayable",
      "type": "function"
    }
  ],
  "transactionHash": "0xfd8d23f0ced1bbcbb96200c519bc2edfd48b9fc9eeb4d4be70fc9571f43fdf36",
  "args": [],
  "numDeployments": 6,
  "solcInputHash": "b614cee8b0f92e45233ee7aa74b96455",
  "bytecode": "0x608060405234801561001057600080fd5b50613bdd806100206000396000f3fe608060405234801561001057600080fd5b506004361061028a5760003560e01c80638da5cb5b1161015c578063bdf1c4a1116100ce578063e9e81a6a11610087578063e9e81a6a146105cf578063efca0d07146105e2578063f13dc2e2146105eb578063f2fde38b146105f4578063f851a44014610607578063ffec4eb11461061a57600080fd5b8063bdf1c4a11461054a578063c54e44eb1461055d578063c89d5b8b14610570578063db2e21bc14610578578063e5e1977614610580578063e63cfa3b1461059357600080fd5b8063a8c62e7611610120578063a8c62e76146104d0578063a9d98f59146104e3578063aae09236146104f6578063ac25f6891461050d578063b47c6a2714610523578063bd244af41461054257600080fd5b80638da5cb5b1461047d5780639434b9891461048e5780639af1d35a146104a15780639b860882146104aa578063a8602fea146104bd57600080fd5b8063486ff0cd116102005780636628f945116101b95780636628f945146104205780636d2b3d7b14610433578063704b6c0214610446578063715018a6146104595780637da0a877146104615780638855c91a1461047457600080fd5b8063486ff0cd14610391578063530e784f146103b457806354fd4d50146103c7578063572b6c05146103d0578063582712b1146104025780635c975abb1461041557600080fd5b80632630c12f116102525780632630c12f1461031d57806333a100ca1461034857806345d207ec1461035b5780634626402b1461036e578063470343d814610381578063476343ee1461038957600080fd5b8063057feb991461028f5780630b47b7ff146102c25780630d8b76a8146102d75780631459457a146102ea57806319dac5af146102fd575b600080fd5b6102af61029d3660046131dd565b60d66020526000908152604090205481565b6040519081526020015b60405180910390f35b6102d56102d03660046131dd565b610623565b005b6102d56102e536600461320b565b6106cd565b6102d56102f8366004613228565b610738565b6102af61030b36600461320b565b60d56020526000908152604090205481565b60cc54610330906001600160a01b031681565b6040516001600160a01b0390911681526020016102b9565b6102d561035636600461320b565b61090c565b6102d5610369366004613299565b610a15565b60ce54610330906001600160a01b031681565b6102d5610a91565b6102d5610afd565b60408051808201825260018152603160f81b602082015290516102b991906132fa565b6102d56103c236600461320b565b610cf5565b6102af60d75481565b6103f26103de36600461320b565b60d1546001600160a01b0391821691161490565b60405190151581526020016102b9565b6102d5610410366004613467565b610d60565b60655460ff166103f2565b6102d561042e36600461320b565b610e10565b6102d56104413660046134e5565b610e7b565b6102d561045436600461320b565b61108c565b6102d56110f7565b60d154610330906001600160a01b031681565b6102af60d35481565b6097546001600160a01b0316610330565b6102d561049c36600461351e565b61114a565b6102af60d05481565b6102d56104b8366004613557565b611209565b6102d56104cb36600461320b565b61155d565b60cb54610330906001600160a01b031681565b6102af6104f13660046131dd565b6115c8565b6104fe611652565b6040516102b99392919061362f565b610515611911565b6040516102b9929190613668565b61052b6119a6565b6040805192835260ff9091166020830152016102b9565b6102af611a28565b60d854610330906001600160a01b031681565b60c954610330906001600160a01b031681565b6102af611bca565b6102d5611c4c565b6102d561058e366004613467565b611d25565b6105ba6105a13660046131dd565b60d4602052600090815260409020805460019091015482565b604080519283526020830191909152016102b9565b6102d56105dd366004613299565b611dbc565b6102af60cd5481565b6102af60cf5481565b6102d561060236600461320b565b611e3e565b60ca54610330906001600160a01b031681565b6102af60d25481565b61062b611ef5565b6001600160a01b03166106466097546001600160a01b031690565b6001600160a01b0316146106755760405162461bcd60e51b815260040161066c90613696565b60405180910390fd5b610bb960cd54106106c85760405162461bcd60e51b815260206004820152601760248201527f50726f666974206665652063616e6e6f74203e20333025000000000000000000604482015260640161066c565b60cd55565b6106d5611ef5565b6001600160a01b03166106f06097546001600160a01b031690565b6001600160a01b0316146107165760405162461bcd60e51b815260040161066c90613696565b60d180546001600160a01b0319166001600160a01b0392909216919091179055565b60006107446001611f29565b9050801561075c576000805461ff0019166101001790555b610764611fb6565b60ce80546001600160a01b038089166001600160a01b03199283161790925560ca805488841690831617905560cb805487841690831617905560cc80548684169083161790556107d060cd5560c9805492851692909116821790556040805163313ce56760e01b8152905163313ce56791600481810192602092909190829003018186803b1580156107f557600080fd5b505afa158015610809573d6000803e3d6000fd5b505050506040513d601f19601f8201168201806040525081019061082d91906136dc565b60c9805460ff60a01b1916600160a01b60ff938416810291909117918290559004166006111561089f5760405162461bcd60e51b815260206004820152601760248201527f5553445420646563696d616c73206d757374203e3d2036000000000000000000604482015260640161066c565b60cb5460c9546108be916001600160a01b039182169116600019611fe5565b8015610904576000805461ff0019169055604051600181527f7f26b83ff96e1f2b6a682f133852f6798a09c465da95921460cefb38474024989060200160405180910390a15b505050505050565b610914611ef5565b6001600160a01b031661092f6097546001600160a01b031690565b6001600160a01b0316146109555760405162461bcd60e51b815260040161066c90613696565b60cb80546001600160a01b0319166001600160a01b0383811691821790925560c954604051636eb1769f60e11b815230600482015260248101929092529091169063dd62ed3e9060440160206040518083038186803b1580156109b757600080fd5b505afa1580156109cb573d6000803e3d6000fd5b505050506040513d601f19601f820116820180604052508101906109ef91906136f7565b610a125760cb5460c954610a12916001600160a01b039182169116600019611fe5565b50565b6097546001600160a01b0316331480610a38575060ca546001600160a01b031633145b610a545760405162461bcd60e51b815260040161066c90613710565b60026001541415610a775760405162461bcd60e51b815260040161066c9061373d565b6002600155610a8883808484612141565b50506001805550565b6097546001600160a01b0316331480610ab4575060ca546001600160a01b031633145b610ad05760405162461bcd60e51b815260040161066c90613710565b60655460ff1615610af35760405162461bcd60e51b815260040161066c90613774565b610afb6124c0565b565b6097546001600160a01b0316331480610b20575060ca546001600160a01b031633145b610b3c5760405162461bcd60e51b815260040161066c90613710565b60655460ff16610c605760cb5460408051632f4912bd60e21b815290516000926001600160a01b03169163bd244af4916004808301926020929190829003018186803b158015610b8b57600080fd5b505afa158015610b9f573d6000803e3d6000fd5b505050506040513d601f19601f82011682018060405250810190610bc391906136f7565b60d0549091506000828210610be057670de0b6b3a7640000610bfd565b82610bf383670de0b6b3a76400006137b4565b610bfd91906137d3565b60cb5460405163ed47d90960e01b8152600481018390529192506001600160a01b03169063ed47d90990602401600060405180830381600087803b158015610c4457600080fd5b505af1158015610c58573d6000803e3d6000fd5b505050505050505b60c9546040516370a0823160e01b8152306004820152610cf1916001600160a01b0316906370a082319060240160206040518083038186803b158015610ca557600080fd5b505afa158015610cb9573d6000803e3d6000fd5b505050506040513d601f19601f82011682018060405250810190610cdd91906136f7565b6040805160008152602081019091526125ca565b5050565b610cfd611ef5565b6001600160a01b0316610d186097546001600160a01b031690565b6001600160a01b031614610d3e5760405162461bcd60e51b815260040161066c90613696565b60cc80546001600160a01b0319166001600160a01b0392909216919091179055565b60d8546001600160a01b03163314610da75760405162461bcd60e51b815260206004820152600a60248201526913db9b1e481859d95b9d60b21b604482015260640161066c565b60026001541415610dca5760405162461bcd60e51b815260040161066c9061373d565b600260015560655460ff1615610df25760405162461bcd60e51b815260040161066c90613774565b610e0684610dfe611ef5565b858585612795565b5050600180555050565b610e18611ef5565b6001600160a01b0316610e336097546001600160a01b031690565b6001600160a01b031614610e595760405162461bcd60e51b815260040161066c90613696565b60d880546001600160a01b0319166001600160a01b0392909216919091179055565b6097546001600160a01b0316331480610e9e575060ca546001600160a01b031633145b610eba5760405162461bcd60e51b815260040161066c90613710565b60cb5460405163778d98b360e11b815260048101859052602481018490526000916001600160a01b03169063ef1b316690604401602060405180830381600087803b158015610f0857600080fd5b505af1158015610f1c573d6000803e3d6000fd5b505050506040513d601f19601f82011682018060405250810190610f4091906136f7565b9050801561108657604080516001808252818301909252600091602080830190803683370190505090508281600081518110610f7e57610f7e6137f5565b6001600160a01b0392909216602092830291909101909101526040805160018082528183019092526000918160200160208202803683370190505090508281600081518110610fcf57610fcf6137f5565b602090810291909101015260cb546040516326b89b7160e01b81526001600160a01b03909116906326b89b719061100c9085908590600401613668565b600060405180830381600087803b15801561102657600080fd5b505af115801561103a573d6000803e3d6000fd5b50505050836001600160a01b031683877f2be1fd30870a31378112c815f24e8611c8a87ed036bce5cf5670a8e34dbf210a8860405161107b91815260200190565b60405180910390a450505b50505050565b611094611ef5565b6001600160a01b03166110af6097546001600160a01b031690565b6001600160a01b0316146110d55760405162461bcd60e51b815260040161066c90613696565b60ca80546001600160a01b0319166001600160a01b0392909216919091179055565b6110ff611ef5565b6001600160a01b031661111a6097546001600160a01b031690565b6001600160a01b0316146111405760405162461bcd60e51b815260040161066c90613696565b610afb6000612b52565b611152611ef5565b6001600160a01b031661116d6097546001600160a01b031690565b6001600160a01b0316146111935760405162461bcd60e51b815260040161066c90613696565b600260d754106111d65760405162461bcd60e51b815260206004820152600e60248201526d105b1c9958591e4818d85b1b195960921b604482015260640161066c565b600260d75560d880546001600160a01b039384166001600160a01b03199182161790915560d18054929093169116179055565b6097546001600160a01b031633148061122c575060ca546001600160a01b031633145b6112485760405162461bcd60e51b815260040161066c90613710565b60655460ff166112915760405162461bcd60e51b815260206004820152601460248201527314185d5cd8589b194e881b9bdd081c185d5cd95960621b604482015260640161066c565b8151815181146112dc5760405162461bcd60e51b815260206004820152601660248201527509cdee840dac2e8c6d040c2e4e4c2f240d8cadccee8d60531b604482015260640161066c565b6112e4612ba4565b60c9546040516370a0823160e01b81523060048201526000916001600160a01b0316906370a082319060240160206040518083038186803b15801561132857600080fd5b505afa15801561133c573d6000803e3d6000fd5b505050506040513d601f19601f8201168201806040525081019061136091906136f7565b90508015611086576000806113736119a6565b9092509050600061138582600a6138ef565b60c954849061139f90600160a01b900460ff1660126138fe565b6113aa90600a6138ef565b6113b490876137b4565b6113be91906137b4565b6113c891906137d3565b90506000805b86811015611405578781815181106113e8576113e86137f5565b6020026020010151915080806113fd90613921565b9150506113ce565b5060008667ffffffffffffffff8111156114215761142161332d565b60405190808252806020026020018201604052801561144a578160200160208202803683370190505b50905060005b878110156114b75782878a838151811061146c5761146c6137f5565b602002602001015161147e91906137b4565b61148891906137d3565b82828151811061149a5761149a6137f5565b6020908102919091010152806114af81613921565b915050611450565b5060cb546040516326b89b7160e01b81526001600160a01b03909116906326b89b71906114ea908c908590600401613668565b600060405180830381600087803b15801561150457600080fd5b505af1158015611518573d6000803e3d6000fd5b50505050611527836001612c3d565b60405186907fc13e24d2b0a3bacd5d1a7c514125a1e27323abf7c86f6d36597f8752bbd7eed790600090a2505050505050505050565b611565611ef5565b6001600160a01b03166115806097546001600160a01b031690565b6001600160a01b0316146115a65760405162461bcd60e51b815260040161066c90613696565b60ce80546001600160a01b0319166001600160a01b0392909216919091179055565b600060d2546000146116445760d2548210156115e657506000919050565b60d354821161164457815b60d254811061164257600081815260d46020908152604091829020825180840190935280548352600101549082018190521561162f57519392505050565b508061163a8161393c565b9150506115f1565b505b61164c611a28565b92915050565b606080606060cb60009054906101000a90046001600160a01b03166001600160a01b031663aae092366040518163ffffffff1660e01b815260040160006040518083038186803b1580156116a557600080fd5b505afa1580156116b9573d6000803e3d6000fd5b505050506040513d6000823e601f3d908101601f191682016040526116e191908101906139ae565b80519193509150468167ffffffffffffffff8111156117025761170261332d565b60405190808252806020026020018201604052801561172b578160200160208202803683370190505b50945060005b82811015611769578186828151811061174c5761174c6137f5565b60209081029190910101528061176181613921565b915050611731565b5060c9546040516370a0823160e01b81523060048201526000916001600160a01b0316906370a082319060240160206040518083038186803b1580156117ae57600080fd5b505afa1580156117c2573d6000803e3d6000fd5b505050506040513d601f19601f820116820180604052508101906117e691906136f7565b90506000811180156117f85750600083115b15611909576000806118086119a6565b9092509050600061181a82600a6138ef565b60c954849061183490600160a01b900460ff1660126138fe565b61183f90600a6138ef565b60c9546040516370a0823160e01b81523060048201526001600160a01b03909116906370a082319060240160206040518083038186803b15801561188257600080fd5b505afa158015611896573d6000803e3d6000fd5b505050506040513d601f19601f820116820180604052508101906118ba91906136f7565b6118c491906137b4565b6118ce91906137b4565b6118d891906137d3565b905080876000815181106118ee576118ee6137f5565b602002602001018181516119029190613a69565b9052505050505b505050909192565b60608060cb60009054906101000a90046001600160a01b03166001600160a01b0316634631b2466040518163ffffffff1660e01b815260040160006040518083038186803b15801561196257600080fd5b505afa158015611976573d6000803e3d6000fd5b505050506040513d6000823e601f3d908101601f1916820160405261199e91908101906139ae565b915091509091565b60cc5460c95460405163b3596f0760e01b81526001600160a01b0391821660048201526000928392169063b3596f0790602401604080518083038186803b1580156119f057600080fd5b505afa158015611a04573d6000803e3d6000fd5b505050506040513d601f19601f8201168201806040525081019061199e9190613a81565b600080611a3760655460ff1690565b15611b1e57600080611a476119a6565b9092509050611a5781600a6138ef565b60c9548390611a7190600160a01b900460ff1660126138fe565b611a7c90600a6138ef565b60c9546040516370a0823160e01b81523060048201526001600160a01b03909116906370a082319060240160206040518083038186803b158015611abf57600080fd5b505afa158015611ad3573d6000803e3d6000fd5b505050506040513d601f19601f82011682018060405250810190611af791906136f7565b611b0191906137b4565b611b0b91906137b4565b611b1591906137d3565b92505050611ba7565b60cb60009054906101000a90046001600160a01b03166001600160a01b031663bd244af46040518163ffffffff1660e01b815260040160206040518083038186803b158015611b6c57600080fd5b505afa158015611b80573d6000803e3d6000fd5b505050506040513d601f19601f82011682018060405250810190611ba491906136f7565b90505b60d0548111611bb7576000611bc4565b60d054611bc49082613aad565b91505090565b60cb546040805163c89d5b8b60e01b815290516000926001600160a01b03169163c89d5b8b916004808301926020929190829003018186803b158015611c0f57600080fd5b505afa158015611c23573d6000803e3d6000fd5b505050506040513d601f19601f82011682018060405250810190611c4791906136f7565b905090565b6097546001600160a01b0316331480611c6f575060ca546001600160a01b031633145b611c8b5760405162461bcd60e51b815260040161066c90613710565b60655460ff1615611cae5760405162461bcd60e51b815260040161066c90613774565b611cb6612cb1565b60cb60009054906101000a90046001600160a01b03166001600160a01b031663db2e21bc6040518163ffffffff1660e01b8152600401600060405180830381600087803b158015611d0657600080fd5b505af1158015611d1a573d6000803e3d6000fd5b5050600060cf555050565b6097546001600160a01b0316331480611d48575060ca546001600160a01b031633145b611d645760405162461bcd60e51b815260040161066c90613710565b60026001541415611d875760405162461bcd60e51b815260040161066c9061373d565b600260015560655460ff1615611daf5760405162461bcd60e51b815260040161066c90613774565b610e068485858585612795565b60d8546001600160a01b03163314611e035760405162461bcd60e51b815260206004820152600a60248201526913db9b1e481859d95b9d60b21b604482015260640161066c565b60026001541415611e265760405162461bcd60e51b815260040161066c9061373d565b6002600155610a8883611e37611ef5565b8484612141565b611e46611ef5565b6001600160a01b0316611e616097546001600160a01b031690565b6001600160a01b031614611e875760405162461bcd60e51b815260040161066c90613696565b6001600160a01b038116611eec5760405162461bcd60e51b815260206004820152602660248201527f4f776e61626c653a206e6577206f776e657220697320746865207a65726f206160448201526564647265737360d01b606482015260840161066c565b610a1281612b52565b600060183610801590611f12575060d1546001600160a01b031633145b15611f24575060131936013560601c90565b503390565b60008054610100900460ff1615611f70578160ff166001148015611f4c5750303b155b611f685760405162461bcd60e51b815260040161066c90613ac4565b506000919050565b60005460ff808416911610611f975760405162461bcd60e51b815260040161066c90613ac4565b506000805460ff191660ff92909216919091179055600190565b919050565b600054610100900460ff16611fdd5760405162461bcd60e51b815260040161066c90613b12565b610afb612d0a565b80158061206e5750604051636eb1769f60e11b81523060048201526001600160a01b03838116602483015284169063dd62ed3e9060440160206040518083038186803b15801561203457600080fd5b505afa158015612048573d6000803e3d6000fd5b505050506040513d601f19601f8201168201806040525081019061206c91906136f7565b155b6120d95760405162461bcd60e51b815260206004820152603660248201527f5361666545524332303a20617070726f76652066726f6d206e6f6e2d7a65726f60448201527520746f206e6f6e2d7a65726f20616c6c6f77616e636560501b606482015260840161066c565b6040516001600160a01b03831660248201526044810182905261213c90849063095ea7b360e01b906064015b60408051601f198184030181529190526020810180516001600160e01b03166001600160e01b031990931692909217909152612d41565b505050565b600082116121865760405162461bcd60e51b81526020600482015260126024820152710536861726550657263206d757374203e20360741b604482015260640161066c565b670de0b6b3a76400008211156121ca5760405162461bcd60e51b81526020600482015260096024820152684f766572203130302560b81b604482015260640161066c565b60006121d4611a28565b90506000670de0b6b3a76400006121eb85846137b4565b6121f591906137d3565b6001600160a01b038716600090815260d5602052604090205490915083116122515760405162461bcd60e51b815260206004820152600f60248201526e139bdb98d9481a5cc818995a1a5b99608a1b604482015260640161066c565b6001600160a01b038616600090815260d56020908152604080832086905585835260d690915290208190556122868383612e13565b600060d054836122969190613a69565b6122a883670de0b6b3a76400006137b4565b6122b291906137d3565b905060006122c260655460ff1690565b6123b15760cb5460405163ed47d90960e01b8152600481018490526001600160a01b039091169063ed47d90990602401600060405180830381600087803b15801561230c57600080fd5b505af1158015612320573d6000803e3d6000fd5b505060c9546040516370a0823160e01b81523060048201526001600160a01b0390911692506370a08231915060240160206040518083038186803b15801561236757600080fd5b505afa15801561237b573d6000803e3d6000fd5b505050506040513d601f19601f8201168201806040525081019061239f91906136f7565b90506123ac836000612c3d565b61244f565b60c9546040516370a0823160e01b8152306004820152670de0b6b3a76400009184916001600160a01b03909116906370a082319060240160206040518083038186803b15801561240057600080fd5b505afa158015612414573d6000803e3d6000fd5b505050506040513d601f19601f8201168201806040525081019061243891906136f7565b61244291906137b4565b61244c91906137d3565b90505b60c954612466906001600160a01b03168883612e5f565b60c954604080516001600160a01b038a81168252602082018a9052928316928692908c16917f919fc3589577d8ba8023ca13d0b64eaeb6af31c331b4b81c0d42d66423603077910160405180910390a45050505050505050565b60cb5460408051632f4912bd60e21b815290516000926001600160a01b03169163bd244af4916004808301926020929190829003018186803b15801561250557600080fd5b505afa158015612519573d6000803e3d6000fd5b505050506040513d601f19601f8201168201806040525081019061253d91906136f7565b60cf549091506000818311156125965760006125598385613aad565b905061271060cd548261256c91906137b4565b61257691906137d3565b91508160d0600082825461258a9190613a69565b90915550505060cf8390555b8082847fa3e3c8c92ed1e364d04865f99cd96c3ae8f5a7d800f4a1d8148a58c6de6f1b7160405160405180910390a4505050565b60d054600090606090801561278c576000806125e46119a6565b60c9549193509150600090839061260690600160a01b900460ff1660126138fe565b61261190600a6138ef565b61261b91906137b4565b61262683600a6138ef565b61263090866137b4565b61263a91906137d3565b875190915088908183101561265e5760009550612657838b613aad565b99506126bf565b61266984600a6138ef565b60c954869061268390600160a01b900460ff1660126138fe565b61268e90600a6138ef565b612698908d6137b4565b6126a291906137b4565b6126ac91906137d3565b6126b69087613aad565b60009a90965092505b60d086905560005b8181101561272e57828b8b83815181106126e3576126e36137f5565b60200260200101516126f591906137b4565b6126ff91906137d3565b8a8281518110612711576127116137f5565b60209081029190910101528061272681613921565b9150506126c7565b5060ce5460c95461274c916001600160a01b03918216911685612e5f565b60c9546040516001600160a01b039091169084907f6e027f1905abd7233c51c9483e29a545074ed10d39db528c9791a246b26741ff90600090a350505050505b50929391925050565b6001600160a01b0385166127dd5760405162461bcd60e51b815260206004820152600f60248201526e125b9d985b1a59081858d8dbdd5b9d608a1b604482015260640161066c565b8251825181146128285760405162461bcd60e51b815260206004820152601660248201527509cdee840dac2e8c6d040c2e4e4c2f240d8cadccee8d60531b604482015260640161066c565b60c95460009061284490600690600160a01b900460ff166138fe565b61284f90600a6138ef565b90506000805b838110156128d95782868281518110612870576128706137f5565b602002602001015161288291906137b4565b868281518110612894576128946137f5565b6020026020010181815250508581815181106128b2576128b26137f5565b6020026020010151826128c59190613a69565b9150806128d181613921565b915050612855565b508060001061291d5760405162461bcd60e51b815260206004820152601060248201526f0416d6f756e7473206d757374203e20360841b604482015260640161066c565b6001600160a01b038816600090815260d5602052604090205484116129765760405162461bcd60e51b815260206004820152600f60248201526e139bdb98d9481a5cc818995a1a5b99608a1b604482015260640161066c565b6001600160a01b03808916600090815260d56020526040902085905560c9546129a0911682612e8f565b600085815260d660205260409020556129c0846129bb611a28565b612e13565b60c9546129d8906001600160a01b0316883084612fc4565b6000806129e36119a6565b909250905060006129f582600a6138ef565b60c9548490612a0f90600160a01b900460ff1660126138fe565b612a1a90600a6138ef565b612a2490876137b4565b612a2e91906137b4565b612a3891906137d3565b60cf5490915015612a4b57612a4b6124c0565b600080612a58868b6125ca565b90925090508115612ac85760cb546040516326b89b7160e01b81526001600160a01b03909116906326b89b7190612a95908e908590600401613668565b600060405180830381600087803b158015612aaf57600080fd5b505af1158015612ac3573d6000803e3d6000fd5b505050505b612ad3836001612c3d565b60c960009054906101000a90046001600160a01b03166001600160a01b0316868e6001600160a01b03167f364bb76a44233df8584c690de6da7810626a5e77192f3ebc942c35bcb1add24f8f604051612b3b91906001600160a01b0391909116815260200190565b60405180910390a450505050505050505050505050565b609780546001600160a01b038381166001600160a01b0319831681179093556040519116919082907f8be0079c531659141344cd1fd0a4f28419497f9722a3daafe3b4186f6b6457e090600090a35050565b60655460ff16612bed5760405162461bcd60e51b815260206004820152601460248201527314185d5cd8589b194e881b9bdd081c185d5cd95960621b604482015260640161066c565b6065805460ff191690557f5db9ee0a495bf2e6ff9c91a7834c1ba4fdd244a5e8aa4e537bd38aeae4b073aa612c20611ef5565b6040516001600160a01b03909116815260200160405180910390a1565b60cf54600182151514612c6d578260cf5411612c5a576000612c7b565b8260cf54612c689190613aad565b612c7b565b8260cf54612c7b9190613a69565b60cf8190556040518291907f07b7fa586c4fdef11992d9448b97ba78814c23ddec7e1d4bf195fda6716e472690600090a3505050565b60655460ff1615612cd45760405162461bcd60e51b815260040161066c90613774565b6065805460ff191660011790557f62e78cea01bee320cd4e420270b5ea74000d11b0c9f74754ebdbfc544b05a258612c20611ef5565b600054610100900460ff16612d315760405162461bcd60e51b815260040161066c90613b12565b610afb612d3c611ef5565b612b52565b6000612d96826040518060400160405280602081526020017f5361666545524332303a206c6f772d6c6576656c2063616c6c206661696c6564815250856001600160a01b0316612ffc9092919063ffffffff16565b80519091501561213c5780806020019051810190612db49190613b5d565b61213c5760405162461bcd60e51b815260206004820152602a60248201527f5361666545524332303a204552433230206f7065726174696f6e20646964206e6044820152691bdd081cdd58d8d9595960b21b606482015260840161066c565b604080518082018252828152426020808301918252600086815260d49091529290922090518155905160019091015560d254612e4f5760d28290555b8160d3541015610cf1575060d355565b6040516001600160a01b03831660248201526044810182905261213c90849063a9059cbb60e01b90606401612105565b60cc5460405163b3596f0760e01b81526001600160a01b038481166004830152600092839283929091169063b3596f0790602401604080518083038186803b158015612eda57600080fd5b505afa158015612eee573d6000803e3d6000fd5b505050506040513d601f19601f82011682018060405250810190612f129190613a81565b915091506000856001600160a01b031663313ce5676040518163ffffffff1660e01b815260040160206040518083038186803b158015612f5157600080fd5b505afa158015612f65573d6000803e3d6000fd5b505050506040513d601f19601f82011682018060405250810190612f8991906136dc565b9050612f9682600a6138ef565b83612fa6878460ff166012613015565b612fb091906137b4565b612fba91906137d3565b9695505050505050565b6040516001600160a01b03808516602483015283166044820152606481018290526110869085906323b872dd60e01b90608401612105565b606061300b8484600085613073565b90505b9392505050565b60008183141561302657508261300e565b81831015613054576130388383613aad565b61304390600a613b7f565b61304d90856137b4565b905061300e565b61305e8284613aad565b61306990600a613b7f565b61304d90856137d3565b6060824710156130d45760405162461bcd60e51b815260206004820152602660248201527f416464726573733a20696e73756666696369656e742062616c616e636520666f6044820152651c8818d85b1b60d21b606482015260840161066c565b6001600160a01b0385163b61312b5760405162461bcd60e51b815260206004820152601d60248201527f416464726573733a2063616c6c20746f206e6f6e2d636f6e7472616374000000604482015260640161066c565b600080866001600160a01b031685876040516131479190613b8b565b60006040518083038185875af1925050503d8060008114613184576040519150601f19603f3d011682016040523d82523d6000602084013e613189565b606091505b50915091506131998282866131a4565b979650505050505050565b606083156131b357508161300e565b8251156131c35782518084602001fd5b8160405162461bcd60e51b815260040161066c91906132fa565b6000602082840312156131ef57600080fd5b5035919050565b6001600160a01b0381168114610a1257600080fd5b60006020828403121561321d57600080fd5b813561300e816131f6565b600080600080600060a0868803121561324057600080fd5b853561324b816131f6565b9450602086013561325b816131f6565b9350604086013561326b816131f6565b9250606086013561327b816131f6565b9150608086013561328b816131f6565b809150509295509295909350565b6000806000606084860312156132ae57600080fd5b83356132b9816131f6565b95602085013595506040909401359392505050565b60005b838110156132e95781810151838201526020016132d1565b838111156110865750506000910152565b60208152600082518060208401526133198160408501602087016132ce565b601f01601f19169190910160400192915050565b634e487b7160e01b600052604160045260246000fd5b604051601f8201601f1916810167ffffffffffffffff8111828210171561336c5761336c61332d565b604052919050565b600067ffffffffffffffff82111561338e5761338e61332d565b5060051b60200190565b600082601f8301126133a957600080fd5b813560206133be6133b983613374565b613343565b82815260059290921b840181019181810190868411156133dd57600080fd5b8286015b848110156134015780356133f4816131f6565b83529183019183016133e1565b509695505050505050565b600082601f83011261341d57600080fd5b8135602061342d6133b983613374565b82815260059290921b8401810191818101908684111561344c57600080fd5b8286015b848110156134015780358352918301918301613450565b6000806000806080858703121561347d57600080fd5b8435613488816131f6565b9350602085013567ffffffffffffffff808211156134a557600080fd5b6134b188838901613398565b945060408701359150808211156134c757600080fd5b506134d48782880161340c565b949793965093946060013593505050565b6000806000606084860312156134fa57600080fd5b83359250602084013591506040840135613513816131f6565b809150509250925092565b6000806040838503121561353157600080fd5b823561353c816131f6565b9150602083013561354c816131f6565b809150509250929050565b6000806040838503121561356a57600080fd5b823567ffffffffffffffff8082111561358257600080fd5b61358e86838701613398565b935060208501359150808211156135a457600080fd5b506135b18582860161340c565b9150509250929050565b600081518084526020808501945080840160005b838110156135eb578151875295820195908201906001016135cf565b509495945050505050565b600081518084526020808501945080840160005b838110156135eb5781516001600160a01b03168752958201959082019060010161360a565b60608152600061364260608301866135bb565b828103602084015261365481866135f6565b90508281036040840152612fba81856135bb565b60408152600061367b60408301856135f6565b828103602084015261368d81856135bb565b95945050505050565b6020808252818101527f4f776e61626c653a2063616c6c6572206973206e6f7420746865206f776e6572604082015260600190565b805160ff81168114611fb157600080fd5b6000602082840312156136ee57600080fd5b61300e826136cb565b60006020828403121561370957600080fd5b5051919050565b60208082526013908201527227b7363c9037bbb732b91037b91030b236b4b760691b604082015260600190565b6020808252601f908201527f5265656e7472616e637947756172643a207265656e7472616e742063616c6c00604082015260600190565b60208082526010908201526f14185d5cd8589b194e881c185d5cd95960821b604082015260600190565b634e487b7160e01b600052601160045260246000fd5b60008160001904831182151516156137ce576137ce61379e565b500290565b6000826137f057634e487b7160e01b600052601260045260246000fd5b500490565b634e487b7160e01b600052603260045260246000fd5b600181815b8085111561384657816000190482111561382c5761382c61379e565b8085161561383957918102915b93841c9390800290613810565b509250929050565b60008261385d5750600161164c565b8161386a5750600061164c565b8160018114613880576002811461388a576138a6565b600191505061164c565b60ff84111561389b5761389b61379e565b50506001821b61164c565b5060208310610133831016604e8410600b84101617156138c9575081810a61164c565b6138d3838361380b565b80600019048211156138e7576138e761379e565b029392505050565b600061300e60ff84168361384e565b600060ff821660ff8416808210156139185761391861379e565b90039392505050565b60006000198214156139355761393561379e565b5060010190565b60008161394b5761394b61379e565b506000190190565b600082601f83011261396457600080fd5b815160206139746133b983613374565b82815260059290921b8401810191818101908684111561399357600080fd5b8286015b848110156134015780518352918301918301613997565b600080604083850312156139c157600080fd5b825167ffffffffffffffff808211156139d957600080fd5b818501915085601f8301126139ed57600080fd5b815160206139fd6133b983613374565b82815260059290921b84018101918181019089841115613a1c57600080fd5b948201945b83861015613a43578551613a34816131f6565b82529482019490820190613a21565b91880151919650909350505080821115613a5c57600080fd5b506135b185828601613953565b60008219821115613a7c57613a7c61379e565b500190565b60008060408385031215613a9457600080fd5b82519150613aa4602084016136cb565b90509250929050565b600082821015613abf57613abf61379e565b500390565b6020808252602e908201527f496e697469616c697a61626c653a20636f6e747261637420697320616c72656160408201526d191e481a5b9a5d1a585b1a5e995960921b606082015260800190565b6020808252602b908201527f496e697469616c697a61626c653a20636f6e7472616374206973206e6f74206960408201526a6e697469616c697a696e6760a81b606082015260800190565b600060208284031215613b6f57600080fd5b8151801515811461300e57600080fd5b600061300e838361384e565b60008251613b9d8184602087016132ce565b919091019291505056fea2646970667358221220cb4fa001cebf5c90b87f93a7cb660665dc18d1874eee57a113910a78e757524f64736f6c63430008090033",
  "devdoc": {
    "kind": "dev",
    "methods": {
      "depositByAdmin(address,address[],uint256[],uint256)": {
        "params": {
          "_USDT6Amts": "amounts of USDT should be deposited to each pools. It's 6 decimals"
        }
      },
      "getUSDTPriceInUSD()": {
        "returns": {
          "_0": "the price of USDT in USD."
        }
      },
      "owner()": {
        "details": "Returns the address of the current owner."
      },
      "paused()": {
        "details": "Returns true if the contract is paused, and false otherwise."
      },
      "renounceOwnership()": {
        "details": "Leaves the contract without owner. It will not be possible to call `onlyOwner` functions anymore. Can only be called by the current owner. NOTE: Renouncing ownership will leave the contract without an owner, thereby removing any functionality that is only available to the owner."
      },
      "transferOwnership(address)": {
        "details": "Transfers ownership of the contract to a new account (`newOwner`). Can only be called by the current owner."
      },
      "withdrawPercByAdmin(address,uint256,uint256)": {
        "params": {
          "_sharePerc": "percentage of assets which should be withdrawn. It's 18 decimals"
        }
      }
    },
    "version": 1
  },
  "userdoc": {
    "kind": "user",
    "methods": {
      "depositByAdmin(address,address[],uint256[],uint256)": {
        "notice": "The length of array is based on token count. And the lengths should be same on the arraies."
      }
    },
    "version": 1
  },
  "storageLayout": {
    "storage": [
      {
        "astId": 713,
        "contract": "contracts/bni/BNIVaultTest.sol:BNIVaultTest",
        "label": "_initialized",
        "offset": 0,
        "slot": "0",
        "type": "t_uint8"
      },
      {
        "astId": 716,
        "contract": "contracts/bni/BNIVaultTest.sol:BNIVaultTest",
        "label": "_initializing",
        "offset": 1,
        "slot": "0",
        "type": "t_bool"
      },
      {
        "astId": 973,
        "contract": "contracts/bni/BNIVaultTest.sol:BNIVaultTest",
        "label": "_status",
        "offset": 0,
        "slot": "1",
        "type": "t_uint256"
      },
      {
        "astId": 1017,
        "contract": "contracts/bni/BNIVaultTest.sol:BNIVaultTest",
        "label": "__gap",
        "offset": 0,
        "slot": "2",
        "type": "t_array(t_uint256)49_storage"
      },
      {
        "astId": 3292,
        "contract": "contracts/bni/BNIVaultTest.sol:BNIVaultTest",
        "label": "__gap",
        "offset": 0,
        "slot": "51",
        "type": "t_array(t_uint256)50_storage"
      },
      {
        "astId": 869,
        "contract": "contracts/bni/BNIVaultTest.sol:BNIVaultTest",
        "label": "_paused",
        "offset": 0,
        "slot": "101",
        "type": "t_bool"
      },
      {
        "astId": 958,
        "contract": "contracts/bni/BNIVaultTest.sol:BNIVaultTest",
        "label": "__gap",
        "offset": 0,
        "slot": "102",
        "type": "t_array(t_uint256)49_storage"
      },
      {
        "astId": 593,
        "contract": "contracts/bni/BNIVaultTest.sol:BNIVaultTest",
        "label": "_owner",
        "offset": 0,
        "slot": "151",
        "type": "t_address"
      },
      {
        "astId": 705,
        "contract": "contracts/bni/BNIVaultTest.sol:BNIVaultTest",
        "label": "__gap",
        "offset": 0,
        "slot": "152",
        "type": "t_array(t_uint256)49_storage"
      },
      {
        "astId": 8547,
        "contract": "contracts/bni/BNIVaultTest.sol:BNIVaultTest",
        "label": "USDT",
        "offset": 0,
        "slot": "201",
        "type": "t_contract(IERC20UpgradeableExt)65868"
      },
      {
        "astId": 8549,
        "contract": "contracts/bni/BNIVaultTest.sol:BNIVaultTest",
        "label": "usdtDecimals",
        "offset": 20,
        "slot": "201",
        "type": "t_uint8"
      },
      {
        "astId": 8551,
        "contract": "contracts/bni/BNIVaultTest.sol:BNIVaultTest",
        "label": "admin",
        "offset": 0,
        "slot": "202",
        "type": "t_address"
      },
      {
        "astId": 8554,
        "contract": "contracts/bni/BNIVaultTest.sol:BNIVaultTest",
        "label": "strategy",
        "offset": 0,
        "slot": "203",
        "type": "t_contract(IStrategy)8527"
      },
      {
        "astId": 8557,
        "contract": "contracts/bni/BNIVaultTest.sol:BNIVaultTest",
        "label": "priceOracle",
        "offset": 0,
        "slot": "204",
        "type": "t_contract(IPriceOracle)11910"
      },
      {
        "astId": 8559,
        "contract": "contracts/bni/BNIVaultTest.sol:BNIVaultTest",
        "label": "profitFeePerc",
        "offset": 0,
        "slot": "205",
        "type": "t_uint256"
      },
      {
        "astId": 8561,
        "contract": "contracts/bni/BNIVaultTest.sol:BNIVaultTest",
        "label": "treasuryWallet",
        "offset": 0,
        "slot": "206",
        "type": "t_address"
      },
      {
        "astId": 8563,
        "contract": "contracts/bni/BNIVaultTest.sol:BNIVaultTest",
        "label": "watermark",
        "offset": 0,
        "slot": "207",
        "type": "t_uint256"
      },
      {
        "astId": 8565,
        "contract": "contracts/bni/BNIVaultTest.sol:BNIVaultTest",
        "label": "fees",
        "offset": 0,
        "slot": "208",
        "type": "t_uint256"
      },
      {
        "astId": 8567,
        "contract": "contracts/bni/BNIVaultTest.sol:BNIVaultTest",
        "label": "trustedForwarder",
        "offset": 0,
        "slot": "209",
        "type": "t_address"
      },
      {
        "astId": 8569,
        "contract": "contracts/bni/BNIVaultTest.sol:BNIVaultTest",
        "label": "firstOperationNonce",
        "offset": 0,
        "slot": "210",
        "type": "t_uint256"
      },
      {
        "astId": 8571,
        "contract": "contracts/bni/BNIVaultTest.sol:BNIVaultTest",
        "label": "lastOperationNonce",
        "offset": 0,
        "slot": "211",
        "type": "t_uint256"
      },
      {
        "astId": 8576,
        "contract": "contracts/bni/BNIVaultTest.sol:BNIVaultTest",
        "label": "poolAtNonce",
        "offset": 0,
        "slot": "212",
        "type": "t_mapping(t_uint256,t_struct(PoolSnapshot)8544_storage)"
      },
      {
        "astId": 8580,
        "contract": "contracts/bni/BNIVaultTest.sol:BNIVaultTest",
        "label": "userLastOperationNonce",
        "offset": 0,
        "slot": "213",
        "type": "t_mapping(t_address,t_uint256)"
      },
      {
        "astId": 8584,
        "contract": "contracts/bni/BNIVaultTest.sol:BNIVaultTest",
        "label": "operationAmounts",
        "offset": 0,
        "slot": "214",
        "type": "t_mapping(t_uint256,t_uint256)"
      },
      {
        "astId": 8586,
        "contract": "contracts/bni/BNIVaultTest.sol:BNIVaultTest",
        "label": "version",
        "offset": 0,
        "slot": "215",
        "type": "t_uint256"
      },
      {
        "astId": 8588,
        "contract": "contracts/bni/BNIVaultTest.sol:BNIVaultTest",
        "label": "userAgent",
        "offset": 0,
        "slot": "216",
        "type": "t_address"
      }
    ],
    "types": {
      "t_address": {
        "encoding": "inplace",
        "label": "address",
        "numberOfBytes": "20"
      },
      "t_array(t_uint256)49_storage": {
        "base": "t_uint256",
        "encoding": "inplace",
        "label": "uint256[49]",
        "numberOfBytes": "1568"
      },
      "t_array(t_uint256)50_storage": {
        "base": "t_uint256",
        "encoding": "inplace",
        "label": "uint256[50]",
        "numberOfBytes": "1600"
      },
      "t_bool": {
        "encoding": "inplace",
        "label": "bool",
        "numberOfBytes": "1"
      },
      "t_contract(IERC20UpgradeableExt)65868": {
        "encoding": "inplace",
        "label": "contract IERC20UpgradeableExt",
        "numberOfBytes": "20"
      },
      "t_contract(IPriceOracle)11910": {
        "encoding": "inplace",
        "label": "contract IPriceOracle",
        "numberOfBytes": "20"
      },
      "t_contract(IStrategy)8527": {
        "encoding": "inplace",
        "label": "contract IStrategy",
        "numberOfBytes": "20"
      },
      "t_mapping(t_address,t_uint256)": {
        "encoding": "mapping",
        "key": "t_address",
        "label": "mapping(address => uint256)",
        "numberOfBytes": "32",
        "value": "t_uint256"
      },
      "t_mapping(t_uint256,t_struct(PoolSnapshot)8544_storage)": {
        "encoding": "mapping",
        "key": "t_uint256",
        "label": "mapping(uint256 => struct BNIVault.PoolSnapshot)",
        "numberOfBytes": "32",
        "value": "t_struct(PoolSnapshot)8544_storage"
      },
      "t_mapping(t_uint256,t_uint256)": {
        "encoding": "mapping",
        "key": "t_uint256",
        "label": "mapping(uint256 => uint256)",
        "numberOfBytes": "32",
        "value": "t_uint256"
      },
      "t_struct(PoolSnapshot)8544_storage": {
        "encoding": "inplace",
        "label": "struct BNIVault.PoolSnapshot",
        "members": [
          {
            "astId": 8541,
            "contract": "contracts/bni/BNIVaultTest.sol:BNIVaultTest",
            "label": "poolInUSD",
            "offset": 0,
            "slot": "0",
            "type": "t_uint256"
          },
          {
            "astId": 8543,
            "contract": "contracts/bni/BNIVaultTest.sol:BNIVaultTest",
            "label": "ts",
            "offset": 0,
            "slot": "1",
            "type": "t_uint256"
          }
        ],
        "numberOfBytes": "64"
      },
      "t_uint256": {
        "encoding": "inplace",
        "label": "uint256",
        "numberOfBytes": "32"
      },
      "t_uint8": {
        "encoding": "inplace",
        "label": "uint8",
        "numberOfBytes": "1"
      }
    }
  }
}