{
  "address": "0x22689A772B7716C0b0Ab6bF7Aa74da20A5A2191e",
  "abi": [
    {
      "anonymous": false,
      "inputs": [
        {
          "indexed": false,
          "internalType": "uint256",
          "name": "WBTCTargetPool",
          "type": "uint256"
        },
        {
          "indexed": false,
          "internalType": "uint256",
          "name": "WETHTargetPool",
          "type": "uint256"
        },
        {
          "indexed": false,
          "internalType": "uint256",
          "name": "WAVAXCurrentPool",
          "type": "uint256"
        },
        {
          "indexed": false,
          "internalType": "uint256",
          "name": "USDTCurrentPool",
          "type": "uint256"
        }
      ],
      "name": "CurrentComposition",
      "type": "event"
    },
    {
      "anonymous": false,
      "inputs": [
        {
          "indexed": false,
          "internalType": "uint256",
          "name": "USDTAmt",
          "type": "uint256"
        }
      ],
      "name": "EmergencyWithdraw",
      "type": "event"
    },
    {
      "anonymous": false,
      "inputs": [
        {
          "indexed": false,
          "internalType": "uint8",
          "name": "version",
          "type": "uint8"
        }
      ],
      "name": "Initialized",
      "type": "event"
    },
    {
      "anonymous": false,
      "inputs": [
        {
          "indexed": false,
          "internalType": "uint256",
          "name": "USDTAmt",
          "type": "uint256"
        },
        {
          "indexed": false,
          "internalType": "uint256",
          "name": "USDtAmt",
          "type": "uint256"
        }
      ],
      "name": "InvestUSDT",
      "type": "event"
    },
    {
      "anonymous": false,
      "inputs": [
        {
          "indexed": false,
          "internalType": "uint256",
          "name": "USDTAmt",
          "type": "uint256"
        },
        {
          "indexed": false,
          "internalType": "uint256",
          "name": "WAVAXAmt",
          "type": "uint256"
        }
      ],
      "name": "InvestWAVAX",
      "type": "event"
    },
    {
      "anonymous": false,
      "inputs": [
        {
          "indexed": false,
          "internalType": "uint256",
          "name": "USDTAmt",
          "type": "uint256"
        },
        {
          "indexed": false,
          "internalType": "uint256",
          "name": "WBTCAmt",
          "type": "uint256"
        }
      ],
      "name": "InvestWBTC",
      "type": "event"
    },
    {
      "anonymous": false,
      "inputs": [
        {
          "indexed": false,
          "internalType": "uint256",
          "name": "USDTAmt",
          "type": "uint256"
        },
        {
          "indexed": false,
          "internalType": "uint256",
          "name": "WETHAmt",
          "type": "uint256"
        }
      ],
      "name": "InvestWETH",
      "type": "event"
    },
    {
      "anonymous": false,
      "inputs": [
        {
          "indexed": true,
          "internalType": "address",
          "name": "previousOwner",
          "type": "address"
        },
        {
          "indexed": true,
          "internalType": "address",
          "name": "newOwner",
          "type": "address"
        }
      ],
      "name": "OwnershipTransferred",
      "type": "event"
    },
    {
      "anonymous": false,
      "inputs": [
        {
          "indexed": false,
          "internalType": "uint256",
          "name": "WBTCTargetPool",
          "type": "uint256"
        },
        {
          "indexed": false,
          "internalType": "uint256",
          "name": "WETHTargetPool",
          "type": "uint256"
        },
        {
          "indexed": false,
          "internalType": "uint256",
          "name": "WAVAXTargetPool",
          "type": "uint256"
        },
        {
          "indexed": false,
          "internalType": "uint256",
          "name": "USDTTargetPool",
          "type": "uint256"
        }
      ],
      "name": "TargetComposition",
      "type": "event"
    },
    {
      "anonymous": false,
      "inputs": [
        {
          "indexed": false,
          "internalType": "uint256",
          "name": "sharePerc",
          "type": "uint256"
        },
        {
          "indexed": false,
          "internalType": "uint256",
          "name": "USDTAmt",
          "type": "uint256"
        }
      ],
      "name": "Withdraw",
      "type": "event"
    },
    {
      "anonymous": false,
      "inputs": [
        {
          "indexed": false,
          "internalType": "uint256",
          "name": "USDtAmt",
          "type": "uint256"
        },
        {
          "indexed": false,
          "internalType": "uint256",
          "name": "USDTAmt",
          "type": "uint256"
        }
      ],
      "name": "WithdrawUSDT",
      "type": "event"
    },
    {
      "anonymous": false,
      "inputs": [
        {
          "indexed": false,
          "internalType": "uint256",
          "name": "WAVAXAmt",
          "type": "uint256"
        },
        {
          "indexed": false,
          "internalType": "uint256",
          "name": "USDTAmt",
          "type": "uint256"
        }
      ],
      "name": "WithdrawWAVAX",
      "type": "event"
    },
    {
      "anonymous": false,
      "inputs": [
        {
          "indexed": false,
          "internalType": "uint256",
          "name": "WBTCAmt",
          "type": "uint256"
        },
        {
          "indexed": false,
          "internalType": "uint256",
          "name": "USDTAmt",
          "type": "uint256"
        }
      ],
      "name": "WithdrawWBTC",
      "type": "event"
    },
    {
      "anonymous": false,
      "inputs": [
        {
          "indexed": false,
          "internalType": "uint256",
          "name": "WETHAmt",
          "type": "uint256"
        },
        {
          "indexed": false,
          "internalType": "uint256",
          "name": "USDTAmt",
          "type": "uint256"
        }
      ],
      "name": "WithdrawWETH",
      "type": "event"
    },
    {
      "inputs": [],
      "name": "JoeRouter",
      "outputs": [
        {
          "internalType": "contract IRouter",
          "name": "",
          "type": "address"
        }
      ],
      "stateMutability": "view",
      "type": "function"
    },
    {
      "inputs": [],
      "name": "USDT",
      "outputs": [
        {
          "internalType": "contract IERC20Upgradeable",
          "name": "",
          "type": "address"
        }
      ],
      "stateMutability": "view",
      "type": "function"
    },
    {
      "inputs": [],
      "name": "USDTTargetPerc",
      "outputs": [
        {
          "internalType": "uint256",
          "name": "",
          "type": "uint256"
        }
      ],
      "stateMutability": "view",
      "type": "function"
    },
    {
      "inputs": [],
      "name": "USDTVault",
      "outputs": [
        {
          "internalType": "contract IL2Vault",
          "name": "",
          "type": "address"
        }
      ],
      "stateMutability": "view",
      "type": "function"
    },
    {
      "inputs": [],
      "name": "USDT_MAIN",
      "outputs": [
        {
          "internalType": "contract IERC20Upgradeable",
          "name": "",
          "type": "address"
        }
      ],
      "stateMutability": "view",
      "type": "function"
    },
    {
      "inputs": [],
      "name": "USDt",
      "outputs": [
        {
          "internalType": "contract IERC20Upgradeable",
          "name": "",
          "type": "address"
        }
      ],
      "stateMutability": "view",
      "type": "function"
    },
    {
      "inputs": [],
      "name": "USDt_MAIN",
      "outputs": [
        {
          "internalType": "contract IERC20Upgradeable",
          "name": "",
          "type": "address"
        }
      ],
      "stateMutability": "view",
      "type": "function"
    },
    {
      "inputs": [],
      "name": "WAVAX",
      "outputs": [
        {
          "internalType": "contract IERC20Upgradeable",
          "name": "",
          "type": "address"
        }
      ],
      "stateMutability": "view",
      "type": "function"
    },
    {
      "inputs": [],
      "name": "WAVAXTargetPerc",
      "outputs": [
        {
          "internalType": "uint256",
          "name": "",
          "type": "uint256"
        }
      ],
      "stateMutability": "view",
      "type": "function"
    },
    {
      "inputs": [],
      "name": "WAVAXVault",
      "outputs": [
        {
          "internalType": "contract IL2Vault",
          "name": "",
          "type": "address"
        }
      ],
      "stateMutability": "view",
      "type": "function"
    },
    {
      "inputs": [],
      "name": "WAVAX_MAIN",
      "outputs": [
        {
          "internalType": "contract IERC20Upgradeable",
          "name": "",
          "type": "address"
        }
      ],
      "stateMutability": "view",
      "type": "function"
    },
    {
      "inputs": [],
      "name": "WBTC",
      "outputs": [
        {
          "internalType": "contract IERC20Upgradeable",
          "name": "",
          "type": "address"
        }
      ],
      "stateMutability": "view",
      "type": "function"
    },
    {
      "inputs": [],
      "name": "WBTCTargetPerc",
      "outputs": [
        {
          "internalType": "uint256",
          "name": "",
          "type": "uint256"
        }
      ],
      "stateMutability": "view",
      "type": "function"
    },
    {
      "inputs": [],
      "name": "WBTCVault",
      "outputs": [
        {
          "internalType": "contract IL2Vault",
          "name": "",
          "type": "address"
        }
      ],
      "stateMutability": "view",
      "type": "function"
    },
    {
      "inputs": [],
      "name": "WBTC_MAIN",
      "outputs": [
        {
          "internalType": "contract IERC20Upgradeable",
          "name": "",
          "type": "address"
        }
      ],
      "stateMutability": "view",
      "type": "function"
    },
    {
      "inputs": [],
      "name": "WETH",
      "outputs": [
        {
          "internalType": "contract IERC20Upgradeable",
          "name": "",
          "type": "address"
        }
      ],
      "stateMutability": "view",
      "type": "function"
    },
    {
      "inputs": [],
      "name": "WETHTargetPerc",
      "outputs": [
        {
          "internalType": "uint256",
          "name": "",
          "type": "uint256"
        }
      ],
      "stateMutability": "view",
      "type": "function"
    },
    {
      "inputs": [],
      "name": "WETHVault",
      "outputs": [
        {
          "internalType": "contract IL2Vault",
          "name": "",
          "type": "address"
        }
      ],
      "stateMutability": "view",
      "type": "function"
    },
    {
      "inputs": [],
      "name": "WETH_MAIN",
      "outputs": [
        {
          "internalType": "contract IERC20Upgradeable",
          "name": "",
          "type": "address"
        }
      ],
      "stateMutability": "view",
      "type": "function"
    },
    {
      "inputs": [],
      "name": "emergencyWithdraw",
      "outputs": [],
      "stateMutability": "nonpayable",
      "type": "function"
    },
    {
      "inputs": [],
      "name": "getAPR",
      "outputs": [
        {
          "internalType": "uint256",
          "name": "",
          "type": "uint256"
        }
      ],
      "stateMutability": "view",
      "type": "function"
    },
    {
      "inputs": [],
      "name": "getAllPoolInUSD",
      "outputs": [
        {
          "internalType": "uint256",
          "name": "",
          "type": "uint256"
        }
      ],
      "stateMutability": "view",
      "type": "function"
    },
    {
      "inputs": [],
      "name": "getCurrentTokenCompositionPerc",
      "outputs": [
        {
          "internalType": "address[]",
          "name": "tokens",
          "type": "address[]"
        },
        {
          "internalType": "uint256[]",
          "name": "percentages",
          "type": "uint256[]"
        }
      ],
      "stateMutability": "view",
      "type": "function"
    },
    {
      "inputs": [
        {
          "internalType": "contract IL2Vault",
          "name": "_WBTCVault",
          "type": "address"
        },
        {
          "internalType": "contract IL2Vault",
          "name": "_WETHVault",
          "type": "address"
        },
        {
          "internalType": "contract IL2Vault",
          "name": "_WAVAXVault",
          "type": "address"
        },
        {
          "internalType": "contract IL2Vault",
          "name": "_USDTVault",
          "type": "address"
        }
      ],
      "name": "initialize",
      "outputs": [],
      "stateMutability": "nonpayable",
      "type": "function"
    },
    {
      "inputs": [
        {
          "internalType": "uint256",
          "name": "USDTAmt",
          "type": "uint256"
        }
      ],
      "name": "invest",
      "outputs": [],
      "stateMutability": "nonpayable",
      "type": "function"
    },
    {
      "inputs": [],
      "name": "owner",
      "outputs": [
        {
          "internalType": "address",
          "name": "",
          "type": "address"
        }
      ],
      "stateMutability": "view",
      "type": "function"
    },
    {
      "inputs": [],
      "name": "renounceOwnership",
      "outputs": [],
      "stateMutability": "nonpayable",
      "type": "function"
    },
    {
      "inputs": [
        {
          "internalType": "uint256[]",
          "name": "_targetPerc",
          "type": "uint256[]"
        }
      ],
      "name": "setTokenCompositionTargetPerc",
      "outputs": [],
      "stateMutability": "nonpayable",
      "type": "function"
    },
    {
      "inputs": [
        {
          "internalType": "address",
          "name": "_vault",
          "type": "address"
        }
      ],
      "name": "setVault",
      "outputs": [],
      "stateMutability": "nonpayable",
      "type": "function"
    },
    {
      "inputs": [
        {
          "internalType": "address",
          "name": "newOwner",
          "type": "address"
        }
      ],
      "name": "transferOwnership",
      "outputs": [],
      "stateMutability": "nonpayable",
      "type": "function"
    },
    {
      "inputs": [],
      "name": "vault",
      "outputs": [
        {
          "internalType": "address",
          "name": "",
          "type": "address"
        }
      ],
      "stateMutability": "view",
      "type": "function"
    },
    {
      "inputs": [
        {
          "internalType": "uint256",
          "name": "farmIndex",
          "type": "uint256"
        },
        {
          "internalType": "uint256",
          "name": "sharePerc",
          "type": "uint256"
        }
      ],
      "name": "withdrawFromFarm",
      "outputs": [
        {
          "internalType": "uint256",
          "name": "USDTAmt",
          "type": "uint256"
        }
      ],
      "stateMutability": "nonpayable",
      "type": "function"
    },
    {
      "inputs": [
        {
          "internalType": "uint256",
          "name": "sharePerc",
          "type": "uint256"
        }
      ],
      "name": "withdrawPerc",
      "outputs": [
        {
          "internalType": "uint256",
          "name": "USDTAmt",
          "type": "uint256"
        }
      ],
      "stateMutability": "nonpayable",
      "type": "function"
    }
  ],
  "transactionHash": "0x65a6e9f3f0fa653b71b16000021c9df39a30c25c9ddbf47d65c8bb7eac1bd2be",
  "args": [],
  "numDeployments": 1,
  "solcInputHash": "1c783289bcdb61376118cf3bacbca3df",
  "bytecode": "0x608060405234801561001057600080fd5b50611beb806100206000396000f3fe608060405234801561001057600080fd5b50600436106101fb5760003560e01c80638da5cb5b1161011a578063c89d5b8b116100ad578063ed47d9091161007c578063ed47d909146103ed578063eede27b614610356578063f2fde38b14610400578063f8c8765e14610413578063fbfa77cf1461042657600080fd5b8063c89d5b8b146103ca578063cc742cb614610317578063db2e21bc146103d2578063e8e3318b146103da57600080fd5b8063bb9e887d116100e9578063bb9e887d146102bc578063bd244af41461038c578063c12f857f14610394578063c54e44eb146103af57600080fd5b80638da5cb5b146103455780639b2f58f214610356578063ad5c464814610371578063b61bf6a81461037157600080fd5b80634dede3de11610192578063715018a611610161578063715018a614610306578063735b0a0e1461030e57806373b295c2146103175780637fb2df421461033257600080fd5b80634dede3de146102bc57806364351540146102d75780636817031b146102e05780636e21950f146102f357600080fd5b80632afcf480116101ce5780632afcf480146102755780633acf36541461028a5780634631b2461461029d5780634b10dbb1146102b357600080fd5b80630b450cb81461020057806312166f1e146102305780631289a7c71461024b57806326abc06814610262575b600080fd5b606554610213906001600160a01b031681565b6040516001600160a01b0390911681526020015b60405180910390f35b61021373c7198437980c041c805a1edcba50c1ce5db9511881565b610254606a5481565b604051908152602001610227565b606854610213906001600160a01b031681565b6102886102833660046117c6565b610439565b005b606754610213906001600160a01b031681565b6102a561049c565b6040516102279291906117df565b610254606b5481565b6102137350b7545627a5162f82a992c33b87adc75187b21881565b610254606c5481565b6102886102ee366004611878565b610824565b610254610301366004611895565b6108b5565b6102886109fd565b61025460695481565b61021373b31f66aa3c1e785363f0875a1b74e27b85fd66c781565b6102886103403660046118b7565b610a33565b6033546001600160a01b0316610213565b610213739702230a8ea53601f5cd2dc00fdbc13d4df4a8c781565b6102137349d5c2bdffac6ce2bfdb6640f4f80f226bc10bab81565b610254610be7565b6102137360ae616a2155ee3d9a68541ba4544862310933d481565b6102137378ae2880bd1672b49a33cf796cf53fe6db0ab01d81565b610254610c71565b610288610f60565b606654610213906001600160a01b031681565b6102546103fb3660046117c6565b611079565b61028861040e366004611878565b6111f9565b61028861042136600461192c565b611291565b606d54610213906001600160a01b031681565b606d546001600160a01b0316331461046c5760405162461bcd60e51b815260040161046390611988565b60405180910390fd5b606d54610499907378ae2880bd1672b49a33cf796cf53fe6db0ab01d906001600160a01b0316308461136c565b50565b60408051600480825260a08201909252606091829190602082016080803683370190505091507350b7545627a5162f82a992c33b87adc75187b218826000815181106104ea576104ea6119ac565b60200260200101906001600160a01b031690816001600160a01b0316815250507349d5c2bdffac6ce2bfdb6640f4f80f226bc10bab82600181518110610532576105326119ac565b60200260200101906001600160a01b031690816001600160a01b03168152505073b31f66aa3c1e785363f0875a1b74e27b85fd66c78260028151811061057a5761057a6119ac565b60200260200101906001600160a01b031690816001600160a01b031681525050739702230a8ea53601f5cd2dc00fdbc13d4df4a8c7826003815181106105c2576105c26119ac565b60200260200101906001600160a01b031690816001600160a01b03168152505060006105ec6113dd565b9050600081600381518110610603576106036119ac565b60200260200101518260028151811061061e5761061e6119ac565b602002602001015183600181518110610639576106396119ac565b602002602001015184600081518110610654576106546119ac565b602002602001015161066691906119d8565b61067091906119d8565b61067a91906119d8565b60408051600480825260a082019092529192506020820160808036833701905050925080156106db5780612710836000815181106106ba576106ba6119ac565b60200260200101516106cc91906119f0565b6106d69190611a0f565b6106df565b6069545b836000815181106106f2576106f26119ac565b6020908102919091010152801561073b57806127108360018151811061071a5761071a6119ac565b602002602001015161072c91906119f0565b6107369190611a0f565b61073f565b606a545b83600181518110610752576107526119ac565b6020908102919091010152801561079b57806127108360028151811061077a5761077a6119ac565b602002602001015161078c91906119f0565b6107969190611a0f565b61079f565b606b545b836002815181106107b2576107b26119ac565b602090810291909101015280156107fb5780612710836003815181106107da576107da6119ac565b60200260200101516107ec91906119f0565b6107f69190611a0f565b6107ff565b606c545b83600381518110610812576108126119ac565b60200260200101818152505050509091565b6033546001600160a01b0316331461084e5760405162461bcd60e51b815260040161046390611a31565b606d546001600160a01b0316156108935760405162461bcd60e51b815260206004820152600960248201526815985d5b1d081cd95d60ba1b6044820152606401610463565b606d80546001600160a01b0319166001600160a01b0392909216919091179055565b606d546000906001600160a01b031633146108e25760405162461bcd60e51b815260040161046390611988565b670de0b6b3a76400008211156109265760405162461bcd60e51b81526020600482015260096024820152684f766572203130302560b81b6044820152606401610463565b6040516370a0823160e01b8152306004820152670de0b6b3a76400009083907378ae2880bd1672b49a33cf796cf53fe6db0ab01d906370a082319060240160206040518083038186803b15801561097c57600080fd5b505afa158015610990573d6000803e3d6000fd5b505050506040513d601f19601f820116820180604052508101906109b49190611a66565b6109be91906119f0565b6109c89190611a0f565b606d549091506109f7907378ae2880bd1672b49a33cf796cf53fe6db0ab01d906001600160a01b031683611403565b92915050565b6033546001600160a01b03163314610a275760405162461bcd60e51b815260040161046390611a31565b610a316000611438565b565b6033546001600160a01b03163314610a5d5760405162461bcd60e51b815260040161046390611a31565b60048114610a9d5760405162461bcd60e51b815260206004820152600d60248201526c125b9d985b1a590818dbdd5b9d609a1b6044820152606401610463565b61271082826003818110610ab357610ab36119ac565b9050602002013583836002818110610acd57610acd6119ac565b9050602002013584846001818110610ae757610ae76119ac565b9050602002013585856000818110610b0157610b016119ac565b90506020020135610b1291906119d8565b610b1c91906119d8565b610b2691906119d8565b14610b675760405162461bcd60e51b815260206004820152601160248201527024b73b30b634b2103830b930b6b2ba32b960791b6044820152606401610463565b81816000818110610b7a57610b7a6119ac565b60200291909101356069555081816001818110610b9957610b996119ac565b6020029190910135606a555081816002818110610bb857610bb86119ac565b6020029190910135606b555081816003818110610bd757610bd76119ac565b6020029190910135606c55505050565b6040516370a0823160e01b81523060048201526000907378ae2880bd1672b49a33cf796cf53fe6db0ab01d906370a082319060240160206040518083038186803b158015610c3457600080fd5b505afa158015610c48573d6000803e3d6000fd5b505050506040513d601f19601f82011682018060405250810190610c6c9190611a66565b905090565b600080610c7c61049c565b915050600081600381518110610c9457610c946119ac565b6020026020010151606860009054906101000a90046001600160a01b03166001600160a01b031663c89d5b8b6040518163ffffffff1660e01b815260040160206040518083038186803b158015610cea57600080fd5b505afa158015610cfe573d6000803e3d6000fd5b505050506040513d601f19601f82011682018060405250810190610d229190611a66565b610d2c91906119f0565b82600281518110610d3f57610d3f6119ac565b6020026020010151606760009054906101000a90046001600160a01b03166001600160a01b031663c89d5b8b6040518163ffffffff1660e01b815260040160206040518083038186803b158015610d9557600080fd5b505afa158015610da9573d6000803e3d6000fd5b505050506040513d601f19601f82011682018060405250810190610dcd9190611a66565b610dd791906119f0565b83600181518110610dea57610dea6119ac565b6020026020010151606660009054906101000a90046001600160a01b03166001600160a01b031663c89d5b8b6040518163ffffffff1660e01b815260040160206040518083038186803b158015610e4057600080fd5b505afa158015610e54573d6000803e3d6000fd5b505050506040513d601f19601f82011682018060405250810190610e789190611a66565b610e8291906119f0565b84600081518110610e9557610e956119ac565b6020026020010151606560009054906101000a90046001600160a01b03166001600160a01b031663c89d5b8b6040518163ffffffff1660e01b815260040160206040518083038186803b158015610eeb57600080fd5b505afa158015610eff573d6000803e3d6000fd5b505050506040513d601f19601f82011682018060405250810190610f239190611a66565b610f2d91906119f0565b610f3791906119d8565b610f4191906119d8565b610f4b91906119d8565b9050610f5961271082611a0f565b9250505090565b606d546001600160a01b03163314610f8a5760405162461bcd60e51b815260040161046390611988565b6040516370a0823160e01b81523060048201526000907378ae2880bd1672b49a33cf796cf53fe6db0ab01d906370a082319060240160206040518083038186803b158015610fd757600080fd5b505afa158015610feb573d6000803e3d6000fd5b505050506040513d601f19601f8201168201806040525081019061100f9190611a66565b9050801561104357606d54611043907378ae2880bd1672b49a33cf796cf53fe6db0ab01d906001600160a01b031683611403565b6040518181527f99d7f8b71cfb9126984f7a5eed3a40e64a8959e9b0e442221546fb04ec6a489c9060200160405180910390a150565b606d546000906001600160a01b031633146110a65760405162461bcd60e51b815260040161046390611988565b670de0b6b3a76400008211156110ea5760405162461bcd60e51b81526020600482015260096024820152684f766572203130302560b81b6044820152606401610463565b6040516370a0823160e01b8152306004820152670de0b6b3a76400009083907378ae2880bd1672b49a33cf796cf53fe6db0ab01d906370a082319060240160206040518083038186803b15801561114057600080fd5b505afa158015611154573d6000803e3d6000fd5b505050506040513d601f19601f820116820180604052508101906111789190611a66565b61118291906119f0565b61118c9190611a0f565b606d549091506111bb907378ae2880bd1672b49a33cf796cf53fe6db0ab01d906001600160a01b031683611403565b60408051838152602081018390527f56ca301a9219608c91e7bcee90e083c19671d2cdcc96752c7af291cee5f9c8c8910160405180910390a1919050565b6033546001600160a01b031633146112235760405162461bcd60e51b815260040161046390611a31565b6001600160a01b0381166112885760405162461bcd60e51b815260206004820152602660248201527f4f776e61626c653a206e6577206f776e657220697320746865207a65726f206160448201526564647265737360d01b6064820152608401610463565b61049981611438565b600061129d600161148a565b905080156112b5576000805461ff0019166101001790555b6112bd611512565b611194606955610dac606a556105dc606b556101f4606c55606580546001600160a01b038088166001600160a01b031992831617909255606680548784169083161790556067805486841690831617905560688054928516929091169190911790558015611365576000805461ff0019169055604051600181527f7f26b83ff96e1f2b6a682f133852f6798a09c465da95921460cefb38474024989060200160405180910390a15b5050505050565b6040516001600160a01b03808516602483015283166044820152606481018290526113d79085906323b872dd60e01b906084015b60408051601f198184030181529190526020810180516001600160e01b03166001600160e01b031990931692909217909152611541565b50505050565b60408051600480825260a082019092526060916020820160808036833701905050905090565b6040516001600160a01b03831660248201526044810182905261143390849063a9059cbb60e01b906064016113a0565b505050565b603380546001600160a01b038381166001600160a01b0319831681179093556040519116919082907f8be0079c531659141344cd1fd0a4f28419497f9722a3daafe3b4186f6b6457e090600090a35050565b60008054610100900460ff16156114d1578160ff1660011480156114ad5750303b155b6114c95760405162461bcd60e51b815260040161046390611a7f565b506000919050565b60005460ff8084169116106114f85760405162461bcd60e51b815260040161046390611a7f565b506000805460ff191660ff92909216919091179055600190565b600054610100900460ff166115395760405162461bcd60e51b815260040161046390611acd565b610a31611613565b6000611596826040518060400160405280602081526020017f5361666545524332303a206c6f772d6c6576656c2063616c6c206661696c6564815250856001600160a01b03166116439092919063ffffffff16565b80519091501561143357808060200190518101906115b49190611b18565b6114335760405162461bcd60e51b815260206004820152602a60248201527f5361666545524332303a204552433230206f7065726174696f6e20646964206e6044820152691bdd081cdd58d8d9595960b21b6064820152608401610463565b600054610100900460ff1661163a5760405162461bcd60e51b815260040161046390611acd565b610a3133611438565b6060611652848460008561165c565b90505b9392505050565b6060824710156116bd5760405162461bcd60e51b815260206004820152602660248201527f416464726573733a20696e73756666696369656e742062616c616e636520666f6044820152651c8818d85b1b60d21b6064820152608401610463565b6001600160a01b0385163b6117145760405162461bcd60e51b815260206004820152601d60248201527f416464726573733a2063616c6c20746f206e6f6e2d636f6e74726163740000006044820152606401610463565b600080866001600160a01b031685876040516117309190611b66565b60006040518083038185875af1925050503d806000811461176d576040519150601f19603f3d011682016040523d82523d6000602084013e611772565b606091505b509150915061178282828661178d565b979650505050505050565b6060831561179c575081611655565b8251156117ac5782518084602001fd5b8160405162461bcd60e51b81526004016104639190611b82565b6000602082840312156117d857600080fd5b5035919050565b604080825283519082018190526000906020906060840190828701845b828110156118215781516001600160a01b0316845292840192908401906001016117fc565b5050508381038285015284518082528583019183019060005b818110156118565783518352928401929184019160010161183a565b5090979650505050505050565b6001600160a01b038116811461049957600080fd5b60006020828403121561188a57600080fd5b813561165581611863565b600080604083850312156118a857600080fd5b50508035926020909101359150565b600080602083850312156118ca57600080fd5b823567ffffffffffffffff808211156118e257600080fd5b818501915085601f8301126118f657600080fd5b81358181111561190557600080fd5b8660208260051b850101111561191a57600080fd5b60209290920196919550909350505050565b6000806000806080858703121561194257600080fd5b843561194d81611863565b9350602085013561195d81611863565b9250604085013561196d81611863565b9150606085013561197d81611863565b939692955090935050565b6020808252600a908201526913db9b1e481d985d5b1d60b21b604082015260600190565b634e487b7160e01b600052603260045260246000fd5b634e487b7160e01b600052601160045260246000fd5b600082198211156119eb576119eb6119c2565b500190565b6000816000190483118215151615611a0a57611a0a6119c2565b500290565b600082611a2c57634e487b7160e01b600052601260045260246000fd5b500490565b6020808252818101527f4f776e61626c653a2063616c6c6572206973206e6f7420746865206f776e6572604082015260600190565b600060208284031215611a7857600080fd5b5051919050565b6020808252602e908201527f496e697469616c697a61626c653a20636f6e747261637420697320616c72656160408201526d191e481a5b9a5d1a585b1a5e995960921b606082015260800190565b6020808252602b908201527f496e697469616c697a61626c653a20636f6e7472616374206973206e6f74206960408201526a6e697469616c697a696e6760a81b606082015260800190565b600060208284031215611b2a57600080fd5b8151801515811461165557600080fd5b60005b83811015611b55578181015183820152602001611b3d565b838111156113d75750506000910152565b60008251611b78818460208701611b3a565b9190910192915050565b6020815260008251806020840152611ba1816040850160208701611b3a565b601f01601f1916919091016040019291505056fea2646970667358221220d00871b8fa809bec58eb1ed974d5e6b36c285c0f296ea311c5b06a41e5a6fa5264736f6c63430008090033",
  "devdoc": {
    "kind": "dev",
    "methods": {
      "owner()": {
        "details": "Returns the address of the current owner."
      },
      "renounceOwnership()": {
        "details": "Leaves the contract without owner. It will not be possible to call `onlyOwner` functions anymore. Can only be called by the current owner. NOTE: Renouncing ownership will leave the contract without an owner, thereby removing any functionality that is only available to the owner."
      },
      "transferOwnership(address)": {
        "details": "Transfers ownership of the contract to a new account (`newOwner`). Can only be called by the current owner."
      }
    },
    "version": 1
  },
  "userdoc": {
    "kind": "user",
    "methods": {},
    "version": 1
  },
  "storageLayout": {
    "storage": [
      {
        "astId": 130,
        "contract": "contracts/mwi/MWIStrategyTest.sol:MWIStrategyTest",
        "label": "_initialized",
        "offset": 0,
        "slot": "0",
        "type": "t_uint8"
      },
      {
        "astId": 133,
        "contract": "contracts/mwi/MWIStrategyTest.sol:MWIStrategyTest",
        "label": "_initializing",
        "offset": 1,
        "slot": "0",
        "type": "t_bool"
      },
      {
        "astId": 1657,
        "contract": "contracts/mwi/MWIStrategyTest.sol:MWIStrategyTest",
        "label": "__gap",
        "offset": 0,
        "slot": "1",
        "type": "t_array(t_uint256)50_storage"
      },
      {
        "astId": 10,
        "contract": "contracts/mwi/MWIStrategyTest.sol:MWIStrategyTest",
        "label": "_owner",
        "offset": 0,
        "slot": "51",
        "type": "t_address"
      },
      {
        "astId": 122,
        "contract": "contracts/mwi/MWIStrategyTest.sol:MWIStrategyTest",
        "label": "__gap",
        "offset": 0,
        "slot": "52",
        "type": "t_array(t_uint256)49_storage"
      },
      {
        "astId": 3991,
        "contract": "contracts/mwi/MWIStrategyTest.sol:MWIStrategyTest",
        "label": "WBTCVault",
        "offset": 0,
        "slot": "101",
        "type": "t_contract(IL2Vault)3916"
      },
      {
        "astId": 3994,
        "contract": "contracts/mwi/MWIStrategyTest.sol:MWIStrategyTest",
        "label": "WETHVault",
        "offset": 0,
        "slot": "102",
        "type": "t_contract(IL2Vault)3916"
      },
      {
        "astId": 3997,
        "contract": "contracts/mwi/MWIStrategyTest.sol:MWIStrategyTest",
        "label": "WAVAXVault",
        "offset": 0,
        "slot": "103",
        "type": "t_contract(IL2Vault)3916"
      },
      {
        "astId": 4000,
        "contract": "contracts/mwi/MWIStrategyTest.sol:MWIStrategyTest",
        "label": "USDTVault",
        "offset": 0,
        "slot": "104",
        "type": "t_contract(IL2Vault)3916"
      },
      {
        "astId": 4005,
        "contract": "contracts/mwi/MWIStrategyTest.sol:MWIStrategyTest",
        "label": "WBTCTargetPerc",
        "offset": 0,
        "slot": "105",
        "type": "t_uint256"
      },
      {
        "astId": 4007,
        "contract": "contracts/mwi/MWIStrategyTest.sol:MWIStrategyTest",
        "label": "WETHTargetPerc",
        "offset": 0,
        "slot": "106",
        "type": "t_uint256"
      },
      {
        "astId": 4009,
        "contract": "contracts/mwi/MWIStrategyTest.sol:MWIStrategyTest",
        "label": "WAVAXTargetPerc",
        "offset": 0,
        "slot": "107",
        "type": "t_uint256"
      },
      {
        "astId": 4011,
        "contract": "contracts/mwi/MWIStrategyTest.sol:MWIStrategyTest",
        "label": "USDTTargetPerc",
        "offset": 0,
        "slot": "108",
        "type": "t_uint256"
      },
      {
        "astId": 4013,
        "contract": "contracts/mwi/MWIStrategyTest.sol:MWIStrategyTest",
        "label": "vault",
        "offset": 0,
        "slot": "109",
        "type": "t_address"
      }
    ],
    "types": {
      "t_address": {
        "encoding": "inplace",
        "label": "address",
        "numberOfBytes": "20"
      },
      "t_array(t_uint256)49_storage": {
        "base": "t_uint256",
        "encoding": "inplace",
        "label": "uint256[49]",
        "numberOfBytes": "1568"
      },
      "t_array(t_uint256)50_storage": {
        "base": "t_uint256",
        "encoding": "inplace",
        "label": "uint256[50]",
        "numberOfBytes": "1600"
      },
      "t_bool": {
        "encoding": "inplace",
        "label": "bool",
        "numberOfBytes": "1"
      },
      "t_contract(IL2Vault)3916": {
        "encoding": "inplace",
        "label": "contract IL2Vault",
        "numberOfBytes": "20"
      },
      "t_uint256": {
        "encoding": "inplace",
        "label": "uint256",
        "numberOfBytes": "32"
      },
      "t_uint8": {
        "encoding": "inplace",
        "label": "uint8",
        "numberOfBytes": "1"
      }
    }
  }
}