{
  "address": "0xF7c26881DB053bBc824e1812ABddE4811f250B20",
  "abi": [
    {
      "anonymous": false,
      "inputs": [
        {
          "indexed": true,
          "internalType": "address",
          "name": "owner",
          "type": "address"
        },
        {
          "indexed": true,
          "internalType": "address",
          "name": "spender",
          "type": "address"
        },
        {
          "indexed": false,
          "internalType": "uint256",
          "name": "value",
          "type": "uint256"
        }
      ],
      "name": "Approval",
      "type": "event"
    },
    {
      "anonymous": false,
      "inputs": [
        {
          "indexed": false,
          "internalType": "address",
          "name": "caller",
          "type": "address"
        },
        {
          "indexed": false,
          "internalType": "uint256",
          "name": "amtDeposit",
          "type": "uint256"
        },
        {
          "indexed": false,
          "internalType": "address",
          "name": "tokenDeposit",
          "type": "address"
        },
        {
          "indexed": false,
          "internalType": "uint256",
          "name": "shareMinted",
          "type": "uint256"
        }
      ],
      "name": "Deposit",
      "type": "event"
    },
    {
      "anonymous": false,
      "inputs": [
        {
          "indexed": false,
          "internalType": "uint8",
          "name": "version",
          "type": "uint8"
        }
      ],
      "name": "Initialized",
      "type": "event"
    },
    {
      "anonymous": false,
      "inputs": [
        {
          "indexed": true,
          "internalType": "address",
          "name": "previousOwner",
          "type": "address"
        },
        {
          "indexed": true,
          "internalType": "address",
          "name": "newOwner",
          "type": "address"
        }
      ],
      "name": "OwnershipTransferred",
      "type": "event"
    },
    {
      "anonymous": false,
      "inputs": [
        {
          "indexed": false,
          "internalType": "address",
          "name": "account",
          "type": "address"
        }
      ],
      "name": "Paused",
      "type": "event"
    },
    {
      "anonymous": false,
      "inputs": [
        {
          "indexed": false,
          "internalType": "uint256",
          "name": "farmIndex",
          "type": "uint256"
        },
        {
          "indexed": false,
          "internalType": "uint256",
          "name": "sharePerc",
          "type": "uint256"
        },
        {
          "indexed": false,
          "internalType": "uint256",
          "name": "amount",
          "type": "uint256"
        }
      ],
      "name": "Rebalance",
      "type": "event"
    },
    {
      "anonymous": false,
      "inputs": [
        {
          "indexed": false,
          "internalType": "uint256",
          "name": "amount",
          "type": "uint256"
        }
      ],
      "name": "Reinvest",
      "type": "event"
    },
    {
      "anonymous": false,
      "inputs": [
        {
          "indexed": false,
          "internalType": "address",
          "name": "oldAdmin",
          "type": "address"
        },
        {
          "indexed": false,
          "internalType": "address",
          "name": "newAdmin",
          "type": "address"
        }
      ],
      "name": "SetAdminWallet",
      "type": "event"
    },
    {
      "anonymous": false,
      "inputs": [
        {
          "indexed": false,
          "internalType": "address",
          "name": "oldBiconomy",
          "type": "address"
        },
        {
          "indexed": false,
          "internalType": "address",
          "name": "newBiconomy",
          "type": "address"
        }
      ],
      "name": "SetBiconomy",
      "type": "event"
    },
    {
      "anonymous": false,
      "inputs": [
        {
          "indexed": false,
          "internalType": "address",
          "name": "oldTreasuryWallet",
          "type": "address"
        },
        {
          "indexed": false,
          "internalType": "address",
          "name": "newTreasuryWallet",
          "type": "address"
        }
      ],
      "name": "SetTreasuryWallet",
      "type": "event"
    },
    {
      "anonymous": false,
      "inputs": [
        {
          "indexed": true,
          "internalType": "address",
          "name": "from",
          "type": "address"
        },
        {
          "indexed": true,
          "internalType": "address",
          "name": "to",
          "type": "address"
        },
        {
          "indexed": false,
          "internalType": "uint256",
          "name": "value",
          "type": "uint256"
        }
      ],
      "name": "Transfer",
      "type": "event"
    },
    {
      "anonymous": false,
      "inputs": [
        {
          "indexed": false,
          "internalType": "address",
          "name": "account",
          "type": "address"
        }
      ],
      "name": "Unpaused",
      "type": "event"
    },
    {
      "anonymous": false,
      "inputs": [
        {
          "indexed": false,
          "internalType": "address",
          "name": "caller",
          "type": "address"
        },
        {
          "indexed": false,
          "internalType": "uint256",
          "name": "amtWithdraw",
          "type": "uint256"
        },
        {
          "indexed": false,
          "internalType": "address",
          "name": "tokenWithdraw",
          "type": "address"
        },
        {
          "indexed": false,
          "internalType": "uint256",
          "name": "shareBurned",
          "type": "uint256"
        }
      ],
      "name": "Withdraw",
      "type": "event"
    },
    {
      "inputs": [],
      "name": "USDT",
      "outputs": [
        {
          "internalType": "contract IERC20Upgradeable",
          "name": "",
          "type": "address"
        }
      ],
      "stateMutability": "view",
      "type": "function"
    },
    {
      "inputs": [],
      "name": "admin",
      "outputs": [
        {
          "internalType": "address",
          "name": "",
          "type": "address"
        }
      ],
      "stateMutability": "view",
      "type": "function"
    },
    {
      "inputs": [
        {
          "internalType": "address",
          "name": "owner",
          "type": "address"
        },
        {
          "internalType": "address",
          "name": "spender",
          "type": "address"
        }
      ],
      "name": "allowance",
      "outputs": [
        {
          "internalType": "uint256",
          "name": "",
          "type": "uint256"
        }
      ],
      "stateMutability": "view",
      "type": "function"
    },
    {
      "inputs": [
        {
          "internalType": "address",
          "name": "spender",
          "type": "address"
        },
        {
          "internalType": "uint256",
          "name": "amount",
          "type": "uint256"
        }
      ],
      "name": "approve",
      "outputs": [
        {
          "internalType": "bool",
          "name": "",
          "type": "bool"
        }
      ],
      "stateMutability": "nonpayable",
      "type": "function"
    },
    {
      "inputs": [
        {
          "internalType": "address",
          "name": "account",
          "type": "address"
        }
      ],
      "name": "balanceOf",
      "outputs": [
        {
          "internalType": "uint256",
          "name": "",
          "type": "uint256"
        }
      ],
      "stateMutability": "view",
      "type": "function"
    },
    {
      "inputs": [],
      "name": "decimals",
      "outputs": [
        {
          "internalType": "uint8",
          "name": "",
          "type": "uint8"
        }
      ],
      "stateMutability": "view",
      "type": "function"
    },
    {
      "inputs": [
        {
          "internalType": "address",
          "name": "spender",
          "type": "address"
        },
        {
          "internalType": "uint256",
          "name": "subtractedValue",
          "type": "uint256"
        }
      ],
      "name": "decreaseAllowance",
      "outputs": [
        {
          "internalType": "bool",
          "name": "",
          "type": "bool"
        }
      ],
      "stateMutability": "nonpayable",
      "type": "function"
    },
    {
      "inputs": [
        {
          "internalType": "uint256",
          "name": "amount",
          "type": "uint256"
        }
      ],
      "name": "deposit",
      "outputs": [],
      "stateMutability": "nonpayable",
      "type": "function"
    },
    {
      "inputs": [],
      "name": "emergencyWithdraw",
      "outputs": [],
      "stateMutability": "nonpayable",
      "type": "function"
    },
    {
      "inputs": [],
      "name": "getAPR",
      "outputs": [
        {
          "internalType": "uint256",
          "name": "",
          "type": "uint256"
        }
      ],
      "stateMutability": "view",
      "type": "function"
    },
    {
      "inputs": [],
      "name": "getAllPoolInUSD",
      "outputs": [
        {
          "internalType": "uint256",
          "name": "",
          "type": "uint256"
        }
      ],
      "stateMutability": "view",
      "type": "function"
    },
    {
      "inputs": [],
      "name": "getCurrentCompositionPerc",
      "outputs": [
        {
          "internalType": "address[]",
          "name": "tokens",
          "type": "address[]"
        },
        {
          "internalType": "uint256[]",
          "name": "percentages",
          "type": "uint256[]"
        }
      ],
      "stateMutability": "view",
      "type": "function"
    },
    {
      "inputs": [],
      "name": "getPricePerFullShare",
      "outputs": [
        {
          "internalType": "uint256",
          "name": "",
          "type": "uint256"
        }
      ],
      "stateMutability": "view",
      "type": "function"
    },
    {
      "inputs": [
        {
          "internalType": "address",
          "name": "spender",
          "type": "address"
        },
        {
          "internalType": "uint256",
          "name": "addedValue",
          "type": "uint256"
        }
      ],
      "name": "increaseAllowance",
      "outputs": [
        {
          "internalType": "bool",
          "name": "",
          "type": "bool"
        }
      ],
      "stateMutability": "nonpayable",
      "type": "function"
    },
    {
      "inputs": [
        {
          "internalType": "address",
          "name": "_treasuryWallet",
          "type": "address"
        },
        {
          "internalType": "address",
          "name": "_admin",
          "type": "address"
        },
        {
          "internalType": "address",
          "name": "_biconomy",
          "type": "address"
        },
        {
          "internalType": "address",
          "name": "_strategy",
          "type": "address"
        }
      ],
      "name": "initialize",
      "outputs": [],
      "stateMutability": "nonpayable",
      "type": "function"
    },
    {
      "inputs": [
        {
          "internalType": "address",
          "name": "forwarder",
          "type": "address"
        }
      ],
      "name": "isTrustedForwarder",
      "outputs": [
        {
          "internalType": "bool",
          "name": "",
          "type": "bool"
        }
      ],
      "stateMutability": "view",
      "type": "function"
    },
    {
      "inputs": [],
      "name": "name",
      "outputs": [
        {
          "internalType": "string",
          "name": "",
          "type": "string"
        }
      ],
      "stateMutability": "view",
      "type": "function"
    },
    {
      "inputs": [],
      "name": "owner",
      "outputs": [
        {
          "internalType": "address",
          "name": "",
          "type": "address"
        }
      ],
      "stateMutability": "view",
      "type": "function"
    },
    {
      "inputs": [],
      "name": "paused",
      "outputs": [
        {
          "internalType": "bool",
          "name": "",
          "type": "bool"
        }
      ],
      "stateMutability": "view",
      "type": "function"
    },
    {
      "inputs": [
        {
          "internalType": "uint256",
          "name": "farmIndex",
          "type": "uint256"
        },
        {
          "internalType": "uint256",
          "name": "sharePerc",
          "type": "uint256"
        }
      ],
      "name": "rebalance",
      "outputs": [],
      "stateMutability": "nonpayable",
      "type": "function"
    },
    {
      "inputs": [],
      "name": "reinvest",
      "outputs": [],
      "stateMutability": "nonpayable",
      "type": "function"
    },
    {
      "inputs": [],
      "name": "renounceOwnership",
      "outputs": [],
      "stateMutability": "nonpayable",
      "type": "function"
    },
    {
      "inputs": [
        {
          "internalType": "address",
          "name": "_admin",
          "type": "address"
        }
      ],
      "name": "setAdmin",
      "outputs": [],
      "stateMutability": "nonpayable",
      "type": "function"
    },
    {
      "inputs": [
        {
          "internalType": "address",
          "name": "_biconomy",
          "type": "address"
        }
      ],
      "name": "setBiconomy",
      "outputs": [],
      "stateMutability": "nonpayable",
      "type": "function"
    },
    {
      "inputs": [
        {
          "internalType": "address",
          "name": "_treasuryWallet",
          "type": "address"
        }
      ],
      "name": "setTreasuryWallet",
      "outputs": [],
      "stateMutability": "nonpayable",
      "type": "function"
    },
    {
      "inputs": [],
      "name": "strategy",
      "outputs": [
        {
          "internalType": "contract IStrategy",
          "name": "",
          "type": "address"
        }
      ],
      "stateMutability": "view",
      "type": "function"
    },
    {
      "inputs": [],
      "name": "symbol",
      "outputs": [
        {
          "internalType": "string",
          "name": "",
          "type": "string"
        }
      ],
      "stateMutability": "view",
      "type": "function"
    },
    {
      "inputs": [],
      "name": "totalSupply",
      "outputs": [
        {
          "internalType": "uint256",
          "name": "",
          "type": "uint256"
        }
      ],
      "stateMutability": "view",
      "type": "function"
    },
    {
      "inputs": [
        {
          "internalType": "address",
          "name": "to",
          "type": "address"
        },
        {
          "internalType": "uint256",
          "name": "amount",
          "type": "uint256"
        }
      ],
      "name": "transfer",
      "outputs": [
        {
          "internalType": "bool",
          "name": "",
          "type": "bool"
        }
      ],
      "stateMutability": "nonpayable",
      "type": "function"
    },
    {
      "inputs": [
        {
          "internalType": "address",
          "name": "from",
          "type": "address"
        },
        {
          "internalType": "address",
          "name": "to",
          "type": "address"
        },
        {
          "internalType": "uint256",
          "name": "amount",
          "type": "uint256"
        }
      ],
      "name": "transferFrom",
      "outputs": [
        {
          "internalType": "bool",
          "name": "",
          "type": "bool"
        }
      ],
      "stateMutability": "nonpayable",
      "type": "function"
    },
    {
      "inputs": [
        {
          "internalType": "address",
          "name": "newOwner",
          "type": "address"
        }
      ],
      "name": "transferOwnership",
      "outputs": [],
      "stateMutability": "nonpayable",
      "type": "function"
    },
    {
      "inputs": [],
      "name": "treasuryWallet",
      "outputs": [
        {
          "internalType": "address",
          "name": "",
          "type": "address"
        }
      ],
      "stateMutability": "view",
      "type": "function"
    },
    {
      "inputs": [],
      "name": "trustedForwarder",
      "outputs": [
        {
          "internalType": "address",
          "name": "",
          "type": "address"
        }
      ],
      "stateMutability": "view",
      "type": "function"
    },
    {
      "inputs": [],
      "name": "versionRecipient",
      "outputs": [
        {
          "internalType": "string",
          "name": "",
          "type": "string"
        }
      ],
      "stateMutability": "pure",
      "type": "function"
    },
    {
      "inputs": [
        {
          "internalType": "uint256",
          "name": "share",
          "type": "uint256"
        }
      ],
      "name": "withdraw",
      "outputs": [],
      "stateMutability": "nonpayable",
      "type": "function"
    }
  ],
  "transactionHash": "0xb4ec0b14cf1afc781b9123d32d5975c1493eaa1c0071d0b42dc330827aac3297",
  "args": [],
  "numDeployments": 2,
  "solcInputHash": "ebc48b2277612057e0bbdb57a8da2b94",
  "bytecode": "0x608060405234801561001057600080fd5b50612a88806100206000396000f3fe608060405234801561001057600080fd5b50600436106102115760003560e01c80638da5cb5b11610125578063c54e44eb116100ad578063df8879b81161007c578063df8879b81461046e578063f2fde38b14610481578063f851a44014610494578063f8c8765e146104a7578063fdb5a03e146104ba57600080fd5b8063c54e44eb14610430578063c89d5b8b1461044b578063db2e21bc14610453578063dd62ed3e1461045b57600080fd5b8063a8c62e76116100f4578063a8c62e76146103d9578063a9059cbb146103ec578063ac25f689146103ff578063b6b55f2514610415578063bd244af41461042857600080fd5b80638da5cb5b1461039a57806395d89b41146103ab578063a457c2d7146103b3578063a8602fea146103c657600080fd5b80634626402b116101a8578063704b6c0211610177578063704b6c021461033b57806370a082311461034e578063715018a61461037757806377c7b8fc1461037f5780637da0a8771461038757600080fd5b80634626402b146102c6578063486ff0cd146102f1578063572b6c051461030e5780635c975abb1461033057600080fd5b806323b872dd116101e457806323b872dd1461027e5780632e1a7d4d14610291578063313ce567146102a457806339509351146102b357600080fd5b806306fdde0314610216578063095ea7b3146102345780630d8b76a81461025757806318160ddd1461026c575b600080fd5b61021e6104c2565b60405161022b9190612454565b60405180910390f35b61024761024236600461249c565b610554565b604051901515815260200161022b565b61026a6102653660046124c8565b610576565b005b6035545b60405190815260200161022b565b61024761028c3660046124e5565b61062a565b61026a61029f366004612526565b61065a565b6040516012815260200161022b565b6102476102c136600461249c565b610995565b60fd546102d9906001600160a01b031681565b6040516001600160a01b03909116815260200161022b565b6040805180820190915260018152603160f81b602082015261021e565b61024761031c3660046124c8565b60fb546001600160a01b0391821691161490565b60c95460ff16610247565b61026a6103493660046124c8565b6109c1565b61027061035c3660046124c8565b6001600160a01b031660009081526033602052604090205490565b61026a610a64565b610270610ab9565b60fb546102d9906001600160a01b031681565b6065546001600160a01b03166102d9565b61021e610b06565b6102476103c136600461249c565b610b15565b61026a6103d43660046124c8565b610ba6565b60fc546102d9906001600160a01b031681565b6102476103fa36600461249c565b610c49565b610407610c61565b60405161022b92919061253f565b61026a610423366004612526565b610cf6565b610270610f70565b6102d97378ae2880bd1672b49a33cf796cf53fe6db0ab01d81565b61027061109f565b61026a6110e4565b6102706104693660046125c3565b6111b8565b61026a61047c3660046125fc565b6111e3565b61026a61048f3660046124c8565b611355565b60fe546102d9906001600160a01b031681565b61026a6104b536600461261e565b61140f565b61026a611544565b6060603680546104d19061267a565b80601f01602080910402602001604051908101604052809291908181526020018280546104fd9061267a565b801561054a5780601f1061051f5761010080835404028352916020019161054a565b820191906000526020600020905b81548152906001019060200180831161052d57829003601f168201915b5050505050905090565b60008061055f6116fa565b905061056c818585611704565b5060019392505050565b61057e6116fa565b6001600160a01b03166105996065546001600160a01b031690565b6001600160a01b0316146105c85760405162461bcd60e51b81526004016105bf906126b5565b60405180910390fd5b60fb80546001600160a01b038381166001600160a01b031983168117909355604080519190921680825260208201939093527f56b079178193d2a52b3949d9cd8bc5503daadffd4a704722e18b8325021a974191015b60405180910390a15050565b6000806106356116fa565b9050610642858285611828565b61064d85858561189c565b60019150505b9392505050565b600260975414156106ad5760405162461bcd60e51b815260206004820152601f60248201527f5265656e7472616e637947756172643a207265656e7472616e742063616c6c0060448201526064016105bf565b60026097553332146106ec5760405162461bcd60e51b81526020600482015260086024820152674f6e6c7920454f4160c01b60448201526064016105bf565b6000811161072e5760405162461bcd60e51b815260206004820152600f60248201526e0536861726573206d757374203e203608c1b60448201526064016105bf565b3360009081526033602052604090205481111561078d5760405162461bcd60e51b815260206004820152601c60248201527f4e6f7420656e6f75676820736861726520746f2077697468647261770000000060448201526064016105bf565b600061079860355490565b9050600081836107a6610f70565b6107b09190612700565b6107ba919061271f565b90506107c860c95460ff1690565b6108f35760fc546001600160a01b031663ed47d909836107f086670de0b6b3a7640000612700565b6107fa919061271f565b6040518263ffffffff1660e01b815260040161081891815260200190565b600060405180830381600087803b15801561083257600080fd5b505af1158015610846573d6000803e3d6000fd5b50506040516370a0823160e01b81523060048201526108ee92503391507378ae2880bd1672b49a33cf796cf53fe6db0ab01d906370a082319060240160206040518083038186803b15801561089a57600080fd5b505afa1580156108ae573d6000803e3d6000fd5b505050506040513d601f19601f820116820180604052508101906108d29190612741565b7378ae2880bd1672b49a33cf796cf53fe6db0ab01d9190611a6a565b610927565b600061090464e8d4a510008361271f565b90506109257378ae2880bd1672b49a33cf796cf53fe6db0ab01d3383611a6a565b505b6109313384611acd565b60408051338152602081018390527378ae2880bd1672b49a33cf796cf53fe6db0ab01d818301526060810185905290517f457f950b75085c30ff780acd57bde642ff1316cc4aad9f286af2c1ffc4163a789181900360800190a15050600160975550565b6000806109a06116fa565b905061056c8185856109b285896111b8565b6109bc919061275a565b611704565b6109c96116fa565b6001600160a01b03166109e46065546001600160a01b031690565b6001600160a01b031614610a0a5760405162461bcd60e51b81526004016105bf906126b5565b60fe80546001600160a01b038381166001600160a01b031983168117909355604080519190921680825260208201939093527f9f0ac88be9159761bacf6c9e7c294c397ebf594607f6b3f2f70e7e0841ea68e8910161061e565b610a6c6116fa565b6001600160a01b0316610a876065546001600160a01b031690565b6001600160a01b031614610aad5760405162461bcd60e51b81526004016105bf906126b5565b610ab76000611c1b565b565b600080610ac560355490565b905080610adb57670de0b6b3a764000091505090565b80610ae4610f70565b610af690670de0b6b3a7640000612700565b610b00919061271f565b91505090565b6060603780546104d19061267a565b600080610b206116fa565b90506000610b2e82866111b8565b905083811015610b8e5760405162461bcd60e51b815260206004820152602560248201527f45524332303a2064656372656173656420616c6c6f77616e63652062656c6f77604482015264207a65726f60d81b60648201526084016105bf565b610b9b8286868403611704565b506001949350505050565b610bae6116fa565b6001600160a01b0316610bc96065546001600160a01b031690565b6001600160a01b031614610bef5760405162461bcd60e51b81526004016105bf906126b5565b60fd80546001600160a01b038381166001600160a01b031983168117909355604080519190921680825260208201939093527febcecb9db04071cf4b4ecc1e2e1e4603e74c9382d6e36c3531f0b62af4c78ed7910161061e565b600080610c546116fa565b905061056c81858561189c565b60608060fc60009054906101000a90046001600160a01b03166001600160a01b0316634631b2466040518163ffffffff1660e01b815260040160006040518083038186803b158015610cb257600080fd5b505afa158015610cc6573d6000803e3d6000fd5b505050506040513d6000823e601f3d908101601f19168201604052610cee9190810190612848565b915091509091565b60026097541415610d495760405162461bcd60e51b815260206004820152601f60248201527f5265656e7472616e637947756172643a207265656e7472616e742063616c6c0060448201526064016105bf565b600260975560c95460ff1615610d715760405162461bcd60e51b81526004016105bf9061290d565b33321480610d89575060fb546001600160a01b031633145b610dcc5760405162461bcd60e51b81526020600482015260146024820152734f6e6c7920454f41206f72204269636f6e6f6d7960601b60448201526064016105bf565b60008111610e0e5760405162461bcd60e51b815260206004820152600f60248201526e0416d6f756e74206d757374203e203608c1b60448201526064016105bf565b6000610e18610f70565b90506000610e246116fa565b9050610e467378ae2880bd1672b49a33cf796cf53fe6db0ab01d823086611c6d565b60fc546040516255f9e960e71b8152600481018590526001600160a01b0390911690632afcf48090602401600060405180830381600087803b158015610e8b57600080fd5b505af1158015610e9f573d6000803e3d6000fd5b5050505060008364e8d4a51000610eb69190612700565b90506000610ec360355490565b90506000811580610ed45750818511155b610ef25784610ee38385612700565b610eed919061271f565b610ef4565b825b9050610f008482611ca5565b604080516001600160a01b0386168152602081018590527378ae2880bd1672b49a33cf796cf53fe6db0ab01d818301526060810183905290517fd2f8022f659fd9c8c558f30c00fd5ee7038f7cb56da45095c3e0e7d48b3e0c4b9181900360800190a15050600160975550505050565b6000610f7e60c95460ff1690565b15611019576040516370a0823160e01b81523060048201527378ae2880bd1672b49a33cf796cf53fe6db0ab01d906370a082319060240160206040518083038186803b158015610fcd57600080fd5b505afa158015610fe1573d6000803e3d6000fd5b505050506040513d601f19601f820116820180604052508101906110059190612741565b6110149064e8d4a51000612700565b905090565b60fc60009054906101000a90046001600160a01b03166001600160a01b031663bd244af46040518163ffffffff1660e01b815260040160206040518083038186803b15801561106757600080fd5b505afa15801561107b573d6000803e3d6000fd5b505050506040513d601f19601f820116820180604052508101906110149190612741565b60fc546040805163c89d5b8b60e01b815290516000926001600160a01b03169163c89d5b8b916004808301926020929190829003018186803b15801561106757600080fd5b6065546001600160a01b0316331480611107575060fe546001600160a01b031633145b6111235760405162461bcd60e51b81526004016105bf90612937565b60c95460ff16156111465760405162461bcd60e51b81526004016105bf9061290d565b61114e611d85565b60fc60009054906101000a90046001600160a01b03166001600160a01b031663db2e21bc6040518163ffffffff1660e01b8152600401600060405180830381600087803b15801561119e57600080fd5b505af11580156111b2573d6000803e3d6000fd5b50505050565b6001600160a01b03918216600090815260346020908152604080832093909416825291909152205490565b6065546001600160a01b0316331480611206575060fe546001600160a01b031633145b6112225760405162461bcd60e51b81526004016105bf90612937565b60fc54604051636e21950f60e01b815260048101849052602481018390526000916001600160a01b031690636e21950f90604401602060405180830381600087803b15801561127057600080fd5b505af1158015611284573d6000803e3d6000fd5b505050506040513d601f19601f820116820180604052508101906112a89190612741565b905080156113505760fc546040516255f9e960e71b8152600481018390526001600160a01b0390911690632afcf48090602401600060405180830381600087803b1580156112f557600080fd5b505af1158015611309573d6000803e3d6000fd5b505060408051868152602081018690529081018490527fe0b4077da7dfa5015ff10fab6a214f37acc1b23d745f30336942d17e07848c6b9250606001905060405180910390a15b505050565b61135d6116fa565b6001600160a01b03166113786065546001600160a01b031690565b6001600160a01b03161461139e5760405162461bcd60e51b81526004016105bf906126b5565b6001600160a01b0381166114035760405162461bcd60e51b815260206004820152602660248201527f4f776e61626c653a206e6577206f776e657220697320746865207a65726f206160448201526564647265737360d01b60648201526084016105bf565b61140c81611c1b565b50565b600061141b6001611dfb565b90508015611433576000805461ff0019166101001790555b6114856040518060400160405280601581526020017409ac2e4d6cae840aecad2ced0e8cac84092dcc8caf605b1b815250604051806040016040528060038152602001624d574960e81b815250611e83565b61148d611eb4565b60fc80546001600160a01b038085166001600160a01b0319928316811790935560fd805489831690841617905560fe805488831690841617905560fb8054918716919092161790556114f7907378ae2880bd1672b49a33cf796cf53fe6db0ab01d90600019611ee3565b801561153d576000805461ff0019169055604051600181527f7f26b83ff96e1f2b6a682f133852f6798a09c465da95921460cefb38474024989060200160405180910390a15b5050505050565b6065546001600160a01b0316331480611567575060fe546001600160a01b031633145b6115835760405162461bcd60e51b81526004016105bf90612937565b60c95460ff166115cc5760405162461bcd60e51b815260206004820152601460248201527314185d5cd8589b194e881b9bdd081c185d5cd95960621b60448201526064016105bf565b6115d4612007565b6040516370a0823160e01b81523060048201526000907378ae2880bd1672b49a33cf796cf53fe6db0ab01d906370a082319060240160206040518083038186803b15801561162157600080fd5b505afa158015611635573d6000803e3d6000fd5b505050506040513d601f19601f820116820180604052508101906116599190612741565b9050801561140c5760fc546040516255f9e960e71b8152600481018390526001600160a01b0390911690632afcf48090602401600060405180830381600087803b1580156116a657600080fd5b505af11580156116ba573d6000803e3d6000fd5b505050507fc13e24d2b0a3bacd5d1a7c514125a1e27323abf7c86f6d36597f8752bbd7eed7816040516116ef91815260200190565b60405180910390a150565b6000611014612083565b6001600160a01b0383166117665760405162461bcd60e51b8152602060048201526024808201527f45524332303a20617070726f76652066726f6d20746865207a65726f206164646044820152637265737360e01b60648201526084016105bf565b6001600160a01b0382166117c75760405162461bcd60e51b815260206004820152602260248201527f45524332303a20617070726f766520746f20746865207a65726f206164647265604482015261737360f01b60648201526084016105bf565b6001600160a01b0383811660008181526034602090815260408083209487168084529482529182902085905590518481527f8c5be1e5ebec7d5bd14f71427d1e84f3dd0314c0f7b2291e5b200ac8c7c3b925910160405180910390a3505050565b600061183484846111b8565b905060001981146111b2578181101561188f5760405162461bcd60e51b815260206004820152601d60248201527f45524332303a20696e73756666696369656e7420616c6c6f77616e636500000060448201526064016105bf565b6111b28484848403611704565b6001600160a01b0383166119005760405162461bcd60e51b815260206004820152602560248201527f45524332303a207472616e736665722066726f6d20746865207a65726f206164604482015264647265737360d81b60648201526084016105bf565b6001600160a01b0382166119625760405162461bcd60e51b815260206004820152602360248201527f45524332303a207472616e7366657220746f20746865207a65726f206164647260448201526265737360e81b60648201526084016105bf565b6001600160a01b038316600090815260336020526040902054818110156119da5760405162461bcd60e51b815260206004820152602660248201527f45524332303a207472616e7366657220616d6f756e7420657863656564732062604482015265616c616e636560d01b60648201526084016105bf565b6001600160a01b03808516600090815260336020526040808220858503905591851681529081208054849290611a1190849061275a565b92505081905550826001600160a01b0316846001600160a01b03167fddf252ad1be2c89b69c2b068fc378daa952ba7f163c4a11628f55a4df523b3ef84604051611a5d91815260200190565b60405180910390a36111b2565b6040516001600160a01b03831660248201526044810182905261135090849063a9059cbb60e01b906064015b60408051601f198184030181529190526020810180516001600160e01b03166001600160e01b0319909316929092179091526120b7565b6001600160a01b038216611b2d5760405162461bcd60e51b815260206004820152602160248201527f45524332303a206275726e2066726f6d20746865207a65726f206164647265736044820152607360f81b60648201526084016105bf565b6001600160a01b03821660009081526033602052604090205481811015611ba15760405162461bcd60e51b815260206004820152602260248201527f45524332303a206275726e20616d6f756e7420657863656564732062616c616e604482015261636560f01b60648201526084016105bf565b6001600160a01b0383166000908152603360205260408120838303905560358054849290611bd0908490612964565b90915550506040518281526000906001600160a01b038516907fddf252ad1be2c89b69c2b068fc378daa952ba7f163c4a11628f55a4df523b3ef9060200160405180910390a3505050565b606580546001600160a01b038381166001600160a01b0319831681179093556040519116919082907f8be0079c531659141344cd1fd0a4f28419497f9722a3daafe3b4186f6b6457e090600090a35050565b6040516001600160a01b03808516602483015283166044820152606481018290526111b29085906323b872dd60e01b90608401611a96565b6001600160a01b038216611cfb5760405162461bcd60e51b815260206004820152601f60248201527f45524332303a206d696e7420746f20746865207a65726f20616464726573730060448201526064016105bf565b8060356000828254611d0d919061275a565b90915550506001600160a01b03821660009081526033602052604081208054839290611d3a90849061275a565b90915550506040518181526001600160a01b038316906000907fddf252ad1be2c89b69c2b068fc378daa952ba7f163c4a11628f55a4df523b3ef9060200160405180910390a35b5050565b60c95460ff1615611da85760405162461bcd60e51b81526004016105bf9061290d565b60c9805460ff191660011790557f62e78cea01bee320cd4e420270b5ea74000d11b0c9f74754ebdbfc544b05a258611dde6116fa565b6040516001600160a01b03909116815260200160405180910390a1565b60008054610100900460ff1615611e42578160ff166001148015611e1e5750303b155b611e3a5760405162461bcd60e51b81526004016105bf9061297b565b506000919050565b60005460ff808416911610611e695760405162461bcd60e51b81526004016105bf9061297b565b506000805460ff191660ff92909216919091179055600190565b600054610100900460ff16611eaa5760405162461bcd60e51b81526004016105bf906129c9565b611d818282612189565b600054610100900460ff16611edb5760405162461bcd60e51b81526004016105bf906129c9565b610ab76121d7565b801580611f6c5750604051636eb1769f60e11b81523060048201526001600160a01b03838116602483015284169063dd62ed3e9060440160206040518083038186803b158015611f3257600080fd5b505afa158015611f46573d6000803e3d6000fd5b505050506040513d601f19601f82011682018060405250810190611f6a9190612741565b155b611fd75760405162461bcd60e51b815260206004820152603660248201527f5361666545524332303a20617070726f76652066726f6d206e6f6e2d7a65726f60448201527520746f206e6f6e2d7a65726f20616c6c6f77616e636560501b60648201526084016105bf565b6040516001600160a01b03831660248201526044810182905261135090849063095ea7b360e01b90606401611a96565b60c95460ff166120505760405162461bcd60e51b815260206004820152601460248201527314185d5cd8589b194e881b9bdd081c185d5cd95960621b60448201526064016105bf565b60c9805460ff191690557f5db9ee0a495bf2e6ff9c91a7834c1ba4fdd244a5e8aa4e537bd38aeae4b073aa611dde6116fa565b6000601836108015906120a0575060fb546001600160a01b031633145b156120b2575060131936013560601c90565b503390565b600061210c826040518060400160405280602081526020017f5361666545524332303a206c6f772d6c6576656c2063616c6c206661696c6564815250856001600160a01b031661220e9092919063ffffffff16565b805190915015611350578080602001905181019061212a9190612a14565b6113505760405162461bcd60e51b815260206004820152602a60248201527f5361666545524332303a204552433230206f7065726174696f6e20646964206e6044820152691bdd081cdd58d8d9595960b21b60648201526084016105bf565b600054610100900460ff166121b05760405162461bcd60e51b81526004016105bf906129c9565b81516121c390603690602085019061238f565b50805161135090603790602084019061238f565b600054610100900460ff166121fe5760405162461bcd60e51b81526004016105bf906129c9565b610ab76122096116fa565b611c1b565b606061221d8484600085612225565b949350505050565b6060824710156122865760405162461bcd60e51b815260206004820152602660248201527f416464726573733a20696e73756666696369656e742062616c616e636520666f6044820152651c8818d85b1b60d21b60648201526084016105bf565b6001600160a01b0385163b6122dd5760405162461bcd60e51b815260206004820152601d60248201527f416464726573733a2063616c6c20746f206e6f6e2d636f6e747261637400000060448201526064016105bf565b600080866001600160a01b031685876040516122f99190612a36565b60006040518083038185875af1925050503d8060008114612336576040519150601f19603f3d011682016040523d82523d6000602084013e61233b565b606091505b509150915061234b828286612356565b979650505050505050565b60608315612365575081610653565b8251156123755782518084602001fd5b8160405162461bcd60e51b81526004016105bf9190612454565b82805461239b9061267a565b90600052602060002090601f0160209004810192826123bd5760008555612403565b82601f106123d657805160ff1916838001178555612403565b82800160010185558215612403579182015b828111156124035782518255916020019190600101906123e8565b5061240f929150612413565b5090565b5b8082111561240f5760008155600101612414565b60005b8381101561244357818101518382015260200161242b565b838111156111b25750506000910152565b6020815260008251806020840152612473816040850160208701612428565b601f01601f19169190910160400192915050565b6001600160a01b038116811461140c57600080fd5b600080604083850312156124af57600080fd5b82356124ba81612487565b946020939093013593505050565b6000602082840312156124da57600080fd5b813561065381612487565b6000806000606084860312156124fa57600080fd5b833561250581612487565b9250602084013561251581612487565b929592945050506040919091013590565b60006020828403121561253857600080fd5b5035919050565b604080825283519082018190526000906020906060840190828701845b828110156125815781516001600160a01b03168452928401929084019060010161255c565b5050508381038285015284518082528583019183019060005b818110156125b65783518352928401929184019160010161259a565b5090979650505050505050565b600080604083850312156125d657600080fd5b82356125e181612487565b915060208301356125f181612487565b809150509250929050565b6000806040838503121561260f57600080fd5b50508035926020909101359150565b6000806000806080858703121561263457600080fd5b843561263f81612487565b9350602085013561264f81612487565b9250604085013561265f81612487565b9150606085013561266f81612487565b939692955090935050565b600181811c9082168061268e57607f821691505b602082108114156126af57634e487b7160e01b600052602260045260246000fd5b50919050565b6020808252818101527f4f776e61626c653a2063616c6c6572206973206e6f7420746865206f776e6572604082015260600190565b634e487b7160e01b600052601160045260246000fd5b600081600019048311821515161561271a5761271a6126ea565b500290565b60008261273c57634e487b7160e01b600052601260045260246000fd5b500490565b60006020828403121561275357600080fd5b5051919050565b6000821982111561276d5761276d6126ea565b500190565b634e487b7160e01b600052604160045260246000fd5b604051601f8201601f1916810167ffffffffffffffff811182821017156127b1576127b1612772565b604052919050565b600067ffffffffffffffff8211156127d3576127d3612772565b5060051b60200190565b600082601f8301126127ee57600080fd5b815160206128036127fe836127b9565b612788565b82815260059290921b8401810191818101908684111561282257600080fd5b8286015b8481101561283d5780518352918301918301612826565b509695505050505050565b6000806040838503121561285b57600080fd5b825167ffffffffffffffff8082111561287357600080fd5b818501915085601f83011261288757600080fd5b815160206128976127fe836127b9565b82815260059290921b840181019181810190898411156128b657600080fd5b948201945b838610156128dd5785516128ce81612487565b825294820194908201906128bb565b918801519196509093505050808211156128f657600080fd5b50612903858286016127dd565b9150509250929050565b60208082526010908201526f14185d5cd8589b194e881c185d5cd95960821b604082015260600190565b60208082526013908201527227b7363c9037bbb732b91037b91030b236b4b760691b604082015260600190565b600082821015612976576129766126ea565b500390565b6020808252602e908201527f496e697469616c697a61626c653a20636f6e747261637420697320616c72656160408201526d191e481a5b9a5d1a585b1a5e995960921b606082015260800190565b6020808252602b908201527f496e697469616c697a61626c653a20636f6e7472616374206973206e6f74206960408201526a6e697469616c697a696e6760a81b606082015260800190565b600060208284031215612a2657600080fd5b8151801515811461065357600080fd5b60008251612a48818460208701612428565b919091019291505056fea2646970667358221220fc3b72b95010e94e264e4b117329c76d5cac338fdbfaaeb451f3b0cdccbc152064736f6c63430008090033",
  "devdoc": {
    "kind": "dev",
    "methods": {
      "allowance(address,address)": {
        "details": "See {IERC20-allowance}."
      },
      "approve(address,uint256)": {
        "details": "See {IERC20-approve}. NOTE: If `amount` is the maximum `uint256`, the allowance is not updated on `transferFrom`. This is semantically equivalent to an infinite approval. Requirements: - `spender` cannot be the zero address."
      },
      "balanceOf(address)": {
        "details": "See {IERC20-balanceOf}."
      },
      "decimals()": {
        "details": "Returns the number of decimals used to get its user representation. For example, if `decimals` equals `2`, a balance of `505` tokens should be displayed to a user as `5.05` (`505 / 10 ** 2`). Tokens usually opt for a value of 18, imitating the relationship between Ether and Wei. This is the value {ERC20} uses, unless this function is overridden; NOTE: This information is only used for _display_ purposes: it in no way affects any of the arithmetic of the contract, including {IERC20-balanceOf} and {IERC20-transfer}."
      },
      "decreaseAllowance(address,uint256)": {
        "details": "Atomically decreases the allowance granted to `spender` by the caller. This is an alternative to {approve} that can be used as a mitigation for problems described in {IERC20-approve}. Emits an {Approval} event indicating the updated allowance. Requirements: - `spender` cannot be the zero address. - `spender` must have allowance for the caller of at least `subtractedValue`."
      },
      "increaseAllowance(address,uint256)": {
        "details": "Atomically increases the allowance granted to `spender` by the caller. This is an alternative to {approve} that can be used as a mitigation for problems described in {IERC20-approve}. Emits an {Approval} event indicating the updated allowance. Requirements: - `spender` cannot be the zero address."
      },
      "name()": {
        "details": "Returns the name of the token."
      },
      "owner()": {
        "details": "Returns the address of the current owner."
      },
      "paused()": {
        "details": "Returns true if the contract is paused, and false otherwise."
      },
      "renounceOwnership()": {
        "details": "Leaves the contract without owner. It will not be possible to call `onlyOwner` functions anymore. Can only be called by the current owner. NOTE: Renouncing ownership will leave the contract without an owner, thereby removing any functionality that is only available to the owner."
      },
      "symbol()": {
        "details": "Returns the symbol of the token, usually a shorter version of the name."
      },
      "totalSupply()": {
        "details": "See {IERC20-totalSupply}."
      },
      "transfer(address,uint256)": {
        "details": "See {IERC20-transfer}. Requirements: - `to` cannot be the zero address. - the caller must have a balance of at least `amount`."
      },
      "transferFrom(address,address,uint256)": {
        "details": "See {IERC20-transferFrom}. Emits an {Approval} event indicating the updated allowance. This is not required by the EIP. See the note at the beginning of {ERC20}. NOTE: Does not update the allowance if the current allowance is the maximum `uint256`. Requirements: - `from` and `to` cannot be the zero address. - `from` must have a balance of at least `amount`. - the caller must have allowance for ``from``'s tokens of at least `amount`."
      },
      "transferOwnership(address)": {
        "details": "Transfers ownership of the contract to a new account (`newOwner`). Can only be called by the current owner."
      }
    },
    "version": 1
  },
  "userdoc": {
    "kind": "user",
    "methods": {
      "getPricePerFullShare()": {
        "notice": "Can be use for calculate both user shares & APR    "
      },
      "isTrustedForwarder(address)": {
        "notice": "return if the forwarder is trusted to forward relayed transactions to us. the forwarder is required to verify the sender's signature, and verify the call is not a replay."
      }
    },
    "version": 1
  },
  "storageLayout": {
    "storage": [
      {
        "astId": 130,
        "contract": "contracts/mwi/MWIVaultTest.sol:MWIVaultTest",
        "label": "_initialized",
        "offset": 0,
        "slot": "0",
        "type": "t_uint8"
      },
      {
        "astId": 133,
        "contract": "contracts/mwi/MWIVaultTest.sol:MWIVaultTest",
        "label": "_initializing",
        "offset": 1,
        "slot": "0",
        "type": "t_bool"
      },
      {
        "astId": 1657,
        "contract": "contracts/mwi/MWIVaultTest.sol:MWIVaultTest",
        "label": "__gap",
        "offset": 0,
        "slot": "1",
        "type": "t_array(t_uint256)50_storage"
      },
      {
        "astId": 454,
        "contract": "contracts/mwi/MWIVaultTest.sol:MWIVaultTest",
        "label": "_balances",
        "offset": 0,
        "slot": "51",
        "type": "t_mapping(t_address,t_uint256)"
      },
      {
        "astId": 460,
        "contract": "contracts/mwi/MWIVaultTest.sol:MWIVaultTest",
        "label": "_allowances",
        "offset": 0,
        "slot": "52",
        "type": "t_mapping(t_address,t_mapping(t_address,t_uint256))"
      },
      {
        "astId": 462,
        "contract": "contracts/mwi/MWIVaultTest.sol:MWIVaultTest",
        "label": "_totalSupply",
        "offset": 0,
        "slot": "53",
        "type": "t_uint256"
      },
      {
        "astId": 464,
        "contract": "contracts/mwi/MWIVaultTest.sol:MWIVaultTest",
        "label": "_name",
        "offset": 0,
        "slot": "54",
        "type": "t_string_storage"
      },
      {
        "astId": 466,
        "contract": "contracts/mwi/MWIVaultTest.sol:MWIVaultTest",
        "label": "_symbol",
        "offset": 0,
        "slot": "55",
        "type": "t_string_storage"
      },
      {
        "astId": 1045,
        "contract": "contracts/mwi/MWIVaultTest.sol:MWIVaultTest",
        "label": "__gap",
        "offset": 0,
        "slot": "56",
        "type": "t_array(t_uint256)45_storage"
      },
      {
        "astId": 10,
        "contract": "contracts/mwi/MWIVaultTest.sol:MWIVaultTest",
        "label": "_owner",
        "offset": 0,
        "slot": "101",
        "type": "t_address"
      },
      {
        "astId": 122,
        "contract": "contracts/mwi/MWIVaultTest.sol:MWIVaultTest",
        "label": "__gap",
        "offset": 0,
        "slot": "102",
        "type": "t_array(t_uint256)49_storage"
      },
      {
        "astId": 390,
        "contract": "contracts/mwi/MWIVaultTest.sol:MWIVaultTest",
        "label": "_status",
        "offset": 0,
        "slot": "151",
        "type": "t_uint256"
      },
      {
        "astId": 434,
        "contract": "contracts/mwi/MWIVaultTest.sol:MWIVaultTest",
        "label": "__gap",
        "offset": 0,
        "slot": "152",
        "type": "t_array(t_uint256)49_storage"
      },
      {
        "astId": 286,
        "contract": "contracts/mwi/MWIVaultTest.sol:MWIVaultTest",
        "label": "_paused",
        "offset": 0,
        "slot": "201",
        "type": "t_bool"
      },
      {
        "astId": 375,
        "contract": "contracts/mwi/MWIVaultTest.sol:MWIVaultTest",
        "label": "__gap",
        "offset": 0,
        "slot": "202",
        "type": "t_array(t_uint256)49_storage"
      },
      {
        "astId": 9140,
        "contract": "contracts/mwi/MWIVaultTest.sol:MWIVaultTest",
        "label": "trustedForwarder",
        "offset": 0,
        "slot": "251",
        "type": "t_address"
      },
      {
        "astId": 6152,
        "contract": "contracts/mwi/MWIVaultTest.sol:MWIVaultTest",
        "label": "strategy",
        "offset": 0,
        "slot": "252",
        "type": "t_contract(IStrategy)6129"
      },
      {
        "astId": 6154,
        "contract": "contracts/mwi/MWIVaultTest.sol:MWIVaultTest",
        "label": "treasuryWallet",
        "offset": 0,
        "slot": "253",
        "type": "t_address"
      },
      {
        "astId": 6156,
        "contract": "contracts/mwi/MWIVaultTest.sol:MWIVaultTest",
        "label": "admin",
        "offset": 0,
        "slot": "254",
        "type": "t_address"
      }
    ],
    "types": {
      "t_address": {
        "encoding": "inplace",
        "label": "address",
        "numberOfBytes": "20"
      },
      "t_array(t_uint256)45_storage": {
        "base": "t_uint256",
        "encoding": "inplace",
        "label": "uint256[45]",
        "numberOfBytes": "1440"
      },
      "t_array(t_uint256)49_storage": {
        "base": "t_uint256",
        "encoding": "inplace",
        "label": "uint256[49]",
        "numberOfBytes": "1568"
      },
      "t_array(t_uint256)50_storage": {
        "base": "t_uint256",
        "encoding": "inplace",
        "label": "uint256[50]",
        "numberOfBytes": "1600"
      },
      "t_bool": {
        "encoding": "inplace",
        "label": "bool",
        "numberOfBytes": "1"
      },
      "t_contract(IStrategy)6129": {
        "encoding": "inplace",
        "label": "contract IStrategy",
        "numberOfBytes": "20"
      },
      "t_mapping(t_address,t_mapping(t_address,t_uint256))": {
        "encoding": "mapping",
        "key": "t_address",
        "label": "mapping(address => mapping(address => uint256))",
        "numberOfBytes": "32",
        "value": "t_mapping(t_address,t_uint256)"
      },
      "t_mapping(t_address,t_uint256)": {
        "encoding": "mapping",
        "key": "t_address",
        "label": "mapping(address => uint256)",
        "numberOfBytes": "32",
        "value": "t_uint256"
      },
      "t_string_storage": {
        "encoding": "bytes",
        "label": "string",
        "numberOfBytes": "32"
      },
      "t_uint256": {
        "encoding": "inplace",
        "label": "uint256",
        "numberOfBytes": "32"
      },
      "t_uint8": {
        "encoding": "inplace",
        "label": "uint8",
        "numberOfBytes": "1"
      }
    }
  }
}