{
  "address": "0x4D881834b50575495fBB80740A0B9fd53D27D705",
  "abi": [
    {
      "anonymous": false,
      "inputs": [
        {
          "indexed": true,
          "internalType": "address",
          "name": "owner",
          "type": "address"
        },
        {
          "indexed": true,
          "internalType": "address",
          "name": "spender",
          "type": "address"
        },
        {
          "indexed": false,
          "internalType": "uint256",
          "name": "value",
          "type": "uint256"
        }
      ],
      "name": "Approval",
      "type": "event"
    },
    {
      "anonymous": false,
      "inputs": [
        {
          "indexed": false,
          "internalType": "address",
          "name": "caller",
          "type": "address"
        },
        {
          "indexed": false,
          "internalType": "uint256",
          "name": "amtDeposit",
          "type": "uint256"
        },
        {
          "indexed": false,
          "internalType": "address",
          "name": "tokenDeposit",
          "type": "address"
        },
        {
          "indexed": false,
          "internalType": "uint256",
          "name": "shareMinted",
          "type": "uint256"
        }
      ],
      "name": "Deposit",
      "type": "event"
    },
    {
      "anonymous": false,
      "inputs": [
        {
          "indexed": false,
          "internalType": "uint8",
          "name": "version",
          "type": "uint8"
        }
      ],
      "name": "Initialized",
      "type": "event"
    },
    {
      "anonymous": false,
      "inputs": [
        {
          "indexed": true,
          "internalType": "address",
          "name": "previousOwner",
          "type": "address"
        },
        {
          "indexed": true,
          "internalType": "address",
          "name": "newOwner",
          "type": "address"
        }
      ],
      "name": "OwnershipTransferred",
      "type": "event"
    },
    {
      "anonymous": false,
      "inputs": [
        {
          "indexed": false,
          "internalType": "address",
          "name": "account",
          "type": "address"
        }
      ],
      "name": "Paused",
      "type": "event"
    },
    {
      "anonymous": false,
      "inputs": [
        {
          "indexed": false,
          "internalType": "uint256",
          "name": "farmIndex",
          "type": "uint256"
        },
        {
          "indexed": false,
          "internalType": "uint256",
          "name": "sharePerc",
          "type": "uint256"
        },
        {
          "indexed": false,
          "internalType": "uint256",
          "name": "amount",
          "type": "uint256"
        }
      ],
      "name": "Rebalance",
      "type": "event"
    },
    {
      "anonymous": false,
      "inputs": [
        {
          "indexed": false,
          "internalType": "uint256",
          "name": "amount",
          "type": "uint256"
        }
      ],
      "name": "Reinvest",
      "type": "event"
    },
    {
      "anonymous": false,
      "inputs": [
        {
          "indexed": false,
          "internalType": "address",
          "name": "oldAdmin",
          "type": "address"
        },
        {
          "indexed": false,
          "internalType": "address",
          "name": "newAdmin",
          "type": "address"
        }
      ],
      "name": "SetAdminWallet",
      "type": "event"
    },
    {
      "anonymous": false,
      "inputs": [
        {
          "indexed": false,
          "internalType": "address",
          "name": "oldBiconomy",
          "type": "address"
        },
        {
          "indexed": false,
          "internalType": "address",
          "name": "newBiconomy",
          "type": "address"
        }
      ],
      "name": "SetBiconomy",
      "type": "event"
    },
    {
      "anonymous": false,
      "inputs": [
        {
          "indexed": false,
          "internalType": "address",
          "name": "oldTreasuryWallet",
          "type": "address"
        },
        {
          "indexed": false,
          "internalType": "address",
          "name": "newTreasuryWallet",
          "type": "address"
        }
      ],
      "name": "SetTreasuryWallet",
      "type": "event"
    },
    {
      "anonymous": false,
      "inputs": [
        {
          "indexed": true,
          "internalType": "address",
          "name": "from",
          "type": "address"
        },
        {
          "indexed": true,
          "internalType": "address",
          "name": "to",
          "type": "address"
        },
        {
          "indexed": false,
          "internalType": "uint256",
          "name": "value",
          "type": "uint256"
        }
      ],
      "name": "Transfer",
      "type": "event"
    },
    {
      "anonymous": false,
      "inputs": [
        {
          "indexed": false,
          "internalType": "address",
          "name": "account",
          "type": "address"
        }
      ],
      "name": "Unpaused",
      "type": "event"
    },
    {
      "anonymous": false,
      "inputs": [
        {
          "indexed": false,
          "internalType": "address",
          "name": "caller",
          "type": "address"
        },
        {
          "indexed": false,
          "internalType": "uint256",
          "name": "amtWithdraw",
          "type": "uint256"
        },
        {
          "indexed": false,
          "internalType": "address",
          "name": "tokenWithdraw",
          "type": "address"
        },
        {
          "indexed": false,
          "internalType": "uint256",
          "name": "shareBurned",
          "type": "uint256"
        }
      ],
      "name": "Withdraw",
      "type": "event"
    },
    {
      "inputs": [],
      "name": "USDT",
      "outputs": [
        {
          "internalType": "contract IERC20Upgradeable",
          "name": "",
          "type": "address"
        }
      ],
      "stateMutability": "view",
      "type": "function"
    },
    {
      "inputs": [],
      "name": "admin",
      "outputs": [
        {
          "internalType": "address",
          "name": "",
          "type": "address"
        }
      ],
      "stateMutability": "view",
      "type": "function"
    },
    {
      "inputs": [
        {
          "internalType": "address",
          "name": "owner",
          "type": "address"
        },
        {
          "internalType": "address",
          "name": "spender",
          "type": "address"
        }
      ],
      "name": "allowance",
      "outputs": [
        {
          "internalType": "uint256",
          "name": "",
          "type": "uint256"
        }
      ],
      "stateMutability": "view",
      "type": "function"
    },
    {
      "inputs": [
        {
          "internalType": "address",
          "name": "spender",
          "type": "address"
        },
        {
          "internalType": "uint256",
          "name": "amount",
          "type": "uint256"
        }
      ],
      "name": "approve",
      "outputs": [
        {
          "internalType": "bool",
          "name": "",
          "type": "bool"
        }
      ],
      "stateMutability": "nonpayable",
      "type": "function"
    },
    {
      "inputs": [
        {
          "internalType": "address",
          "name": "account",
          "type": "address"
        }
      ],
      "name": "balanceOf",
      "outputs": [
        {
          "internalType": "uint256",
          "name": "",
          "type": "uint256"
        }
      ],
      "stateMutability": "view",
      "type": "function"
    },
    {
      "inputs": [],
      "name": "decimals",
      "outputs": [
        {
          "internalType": "uint8",
          "name": "",
          "type": "uint8"
        }
      ],
      "stateMutability": "view",
      "type": "function"
    },
    {
      "inputs": [
        {
          "internalType": "address",
          "name": "spender",
          "type": "address"
        },
        {
          "internalType": "uint256",
          "name": "subtractedValue",
          "type": "uint256"
        }
      ],
      "name": "decreaseAllowance",
      "outputs": [
        {
          "internalType": "bool",
          "name": "",
          "type": "bool"
        }
      ],
      "stateMutability": "nonpayable",
      "type": "function"
    },
    {
      "inputs": [
        {
          "internalType": "uint256",
          "name": "amount",
          "type": "uint256"
        }
      ],
      "name": "deposit",
      "outputs": [],
      "stateMutability": "nonpayable",
      "type": "function"
    },
    {
      "inputs": [
        {
          "internalType": "address",
          "name": "account",
          "type": "address"
        },
        {
          "internalType": "uint256",
          "name": "amount",
          "type": "uint256"
        }
      ],
      "name": "depositByAdmin",
      "outputs": [],
      "stateMutability": "nonpayable",
      "type": "function"
    },
    {
      "inputs": [],
      "name": "emergencyWithdraw",
      "outputs": [],
      "stateMutability": "nonpayable",
      "type": "function"
    },
    {
      "inputs": [],
      "name": "getAPR",
      "outputs": [
        {
          "internalType": "uint256",
          "name": "",
          "type": "uint256"
        }
      ],
      "stateMutability": "view",
      "type": "function"
    },
    {
      "inputs": [],
      "name": "getAllPoolInUSD",
      "outputs": [
        {
          "internalType": "uint256",
          "name": "",
          "type": "uint256"
        }
      ],
      "stateMutability": "view",
      "type": "function"
    },
    {
      "inputs": [],
      "name": "getCurrentCompositionPerc",
      "outputs": [
        {
          "internalType": "address[]",
          "name": "tokens",
          "type": "address[]"
        },
        {
          "internalType": "uint256[]",
          "name": "percentages",
          "type": "uint256[]"
        }
      ],
      "stateMutability": "view",
      "type": "function"
    },
    {
      "inputs": [],
      "name": "getPricePerFullShare",
      "outputs": [
        {
          "internalType": "uint256",
          "name": "",
          "type": "uint256"
        }
      ],
      "stateMutability": "view",
      "type": "function"
    },
    {
      "inputs": [
        {
          "internalType": "address",
          "name": "spender",
          "type": "address"
        },
        {
          "internalType": "uint256",
          "name": "addedValue",
          "type": "uint256"
        }
      ],
      "name": "increaseAllowance",
      "outputs": [
        {
          "internalType": "bool",
          "name": "",
          "type": "bool"
        }
      ],
      "stateMutability": "nonpayable",
      "type": "function"
    },
    {
      "inputs": [
        {
          "internalType": "address",
          "name": "_treasuryWallet",
          "type": "address"
        },
        {
          "internalType": "address",
          "name": "_admin",
          "type": "address"
        },
        {
          "internalType": "address",
          "name": "_biconomy",
          "type": "address"
        },
        {
          "internalType": "address",
          "name": "_strategy",
          "type": "address"
        }
      ],
      "name": "initialize",
      "outputs": [],
      "stateMutability": "nonpayable",
      "type": "function"
    },
    {
      "inputs": [
        {
          "internalType": "address",
          "name": "forwarder",
          "type": "address"
        }
      ],
      "name": "isTrustedForwarder",
      "outputs": [
        {
          "internalType": "bool",
          "name": "",
          "type": "bool"
        }
      ],
      "stateMutability": "view",
      "type": "function"
    },
    {
      "inputs": [],
      "name": "name",
      "outputs": [
        {
          "internalType": "string",
          "name": "",
          "type": "string"
        }
      ],
      "stateMutability": "view",
      "type": "function"
    },
    {
      "inputs": [],
      "name": "owner",
      "outputs": [
        {
          "internalType": "address",
          "name": "",
          "type": "address"
        }
      ],
      "stateMutability": "view",
      "type": "function"
    },
    {
      "inputs": [],
      "name": "paused",
      "outputs": [
        {
          "internalType": "bool",
          "name": "",
          "type": "bool"
        }
      ],
      "stateMutability": "view",
      "type": "function"
    },
    {
      "inputs": [
        {
          "internalType": "uint256",
          "name": "farmIndex",
          "type": "uint256"
        },
        {
          "internalType": "uint256",
          "name": "sharePerc",
          "type": "uint256"
        }
      ],
      "name": "rebalance",
      "outputs": [],
      "stateMutability": "nonpayable",
      "type": "function"
    },
    {
      "inputs": [],
      "name": "reinvest",
      "outputs": [],
      "stateMutability": "nonpayable",
      "type": "function"
    },
    {
      "inputs": [],
      "name": "renounceOwnership",
      "outputs": [],
      "stateMutability": "nonpayable",
      "type": "function"
    },
    {
      "inputs": [
        {
          "internalType": "address",
          "name": "_admin",
          "type": "address"
        }
      ],
      "name": "setAdmin",
      "outputs": [],
      "stateMutability": "nonpayable",
      "type": "function"
    },
    {
      "inputs": [
        {
          "internalType": "address",
          "name": "_biconomy",
          "type": "address"
        }
      ],
      "name": "setBiconomy",
      "outputs": [],
      "stateMutability": "nonpayable",
      "type": "function"
    },
    {
      "inputs": [
        {
          "internalType": "address",
          "name": "_treasuryWallet",
          "type": "address"
        }
      ],
      "name": "setTreasuryWallet",
      "outputs": [],
      "stateMutability": "nonpayable",
      "type": "function"
    },
    {
      "inputs": [],
      "name": "strategy",
      "outputs": [
        {
          "internalType": "contract IStrategy",
          "name": "",
          "type": "address"
        }
      ],
      "stateMutability": "view",
      "type": "function"
    },
    {
      "inputs": [],
      "name": "symbol",
      "outputs": [
        {
          "internalType": "string",
          "name": "",
          "type": "string"
        }
      ],
      "stateMutability": "view",
      "type": "function"
    },
    {
      "inputs": [],
      "name": "totalSupply",
      "outputs": [
        {
          "internalType": "uint256",
          "name": "",
          "type": "uint256"
        }
      ],
      "stateMutability": "view",
      "type": "function"
    },
    {
      "inputs": [
        {
          "internalType": "address",
          "name": "to",
          "type": "address"
        },
        {
          "internalType": "uint256",
          "name": "amount",
          "type": "uint256"
        }
      ],
      "name": "transfer",
      "outputs": [
        {
          "internalType": "bool",
          "name": "",
          "type": "bool"
        }
      ],
      "stateMutability": "nonpayable",
      "type": "function"
    },
    {
      "inputs": [
        {
          "internalType": "address",
          "name": "from",
          "type": "address"
        },
        {
          "internalType": "address",
          "name": "to",
          "type": "address"
        },
        {
          "internalType": "uint256",
          "name": "amount",
          "type": "uint256"
        }
      ],
      "name": "transferFrom",
      "outputs": [
        {
          "internalType": "bool",
          "name": "",
          "type": "bool"
        }
      ],
      "stateMutability": "nonpayable",
      "type": "function"
    },
    {
      "inputs": [
        {
          "internalType": "address",
          "name": "newOwner",
          "type": "address"
        }
      ],
      "name": "transferOwnership",
      "outputs": [],
      "stateMutability": "nonpayable",
      "type": "function"
    },
    {
      "inputs": [],
      "name": "treasuryWallet",
      "outputs": [
        {
          "internalType": "address",
          "name": "",
          "type": "address"
        }
      ],
      "stateMutability": "view",
      "type": "function"
    },
    {
      "inputs": [],
      "name": "trustedForwarder",
      "outputs": [
        {
          "internalType": "address",
          "name": "",
          "type": "address"
        }
      ],
      "stateMutability": "view",
      "type": "function"
    },
    {
      "inputs": [],
      "name": "versionRecipient",
      "outputs": [
        {
          "internalType": "string",
          "name": "",
          "type": "string"
        }
      ],
      "stateMutability": "pure",
      "type": "function"
    },
    {
      "inputs": [
        {
          "internalType": "uint256",
          "name": "share",
          "type": "uint256"
        }
      ],
      "name": "withdraw",
      "outputs": [],
      "stateMutability": "nonpayable",
      "type": "function"
    },
    {
      "inputs": [
        {
          "internalType": "address",
          "name": "account",
          "type": "address"
        },
        {
          "internalType": "uint256",
          "name": "share",
          "type": "uint256"
        }
      ],
      "name": "withdrawByAdmin",
      "outputs": [],
      "stateMutability": "nonpayable",
      "type": "function"
    }
  ],
  "transactionHash": "0xde27767eb41964efebce9436fd197bd93a3e503234e1448df4ad7211a23f12ec",
  "args": [],
  "numDeployments": 4,
  "solcInputHash": "76182b434e5b9a31b439c76f4245f01f",
  "bytecode": "0x608060405234801561001057600080fd5b50612b6b806100206000396000f3fe608060405234801561001057600080fd5b50600436106102275760003560e01c80637da0a87711610130578063bd244af4116100b8578063df8879b81161007c578063df8879b8146104aa578063f2fde38b146104bd578063f851a440146104d0578063f8c8765e146104e3578063fdb5a03e146104f657600080fd5b8063bd244af414610464578063c54e44eb1461046c578063c89d5b8b14610487578063db2e21bc1461048f578063dd62ed3e1461049757600080fd5b8063a8602fea116100ff578063a8602fea14610402578063a8c62e7614610415578063a9059cbb14610428578063ac25f6891461043b578063b6b55f251461045157600080fd5b80637da0a877146103c35780638da5cb5b146103d657806395d89b41146103e7578063a457c2d7146103ef57600080fd5b80634626402b116101b35780635c975abb116101825780635c975abb1461036c578063704b6c021461037757806370a082311461038a578063715018a6146103b357806377c7b8fc146103bb57600080fd5b80634626402b146102ef578063486ff0cd1461031a578063487c358014610337578063572b6c051461034a57600080fd5b806323b872dd116101fa57806323b872dd146102945780632d9c7dcf146102a75780632e1a7d4d146102ba578063313ce567146102cd57806339509351146102dc57600080fd5b806306fdde031461022c578063095ea7b31461024a5780630d8b76a81461026d57806318160ddd14610282575b600080fd5b6102346104fe565b6040516102419190612537565b60405180910390f35b61025d61025836600461257f565b610590565b6040519015158152602001610241565b61028061027b3660046125ab565b6105b2565b005b6035545b604051908152602001610241565b61025d6102a23660046125c8565b610666565b6102806102b536600461257f565b610696565b6102806102c8366004612609565b6106e3565b60405160128152602001610241565b61025d6102ea36600461257f565b6106f7565b60fd54610302906001600160a01b031681565b6040516001600160a01b039091168152602001610241565b6040805180820190915260018152603160f81b6020820152610234565b61028061034536600461257f565b610723565b61025d6103583660046125ab565b60fb546001600160a01b0391821691161490565b60c95460ff1661025d565b6102806103853660046125ab565b61076c565b6102866103983660046125ab565b6001600160a01b031660009081526033602052604090205490565b61028061080f565b610286610864565b60fb54610302906001600160a01b031681565b6065546001600160a01b0316610302565b6102346108b1565b61025d6103fd36600461257f565b6108c0565b6102806104103660046125ab565b610951565b60fc54610302906001600160a01b031681565b61025d61043636600461257f565b6109f4565b610443610a0c565b604051610241929190612622565b61028061045f366004612609565b610aa1565b610286610ab2565b6103027378ae2880bd1672b49a33cf796cf53fe6db0ab01d81565b610286610be1565b610280610c26565b6102866104a53660046126a6565b610cfa565b6102806104b83660046126df565b610d25565b6102806104cb3660046125ab565b610e97565b60fe54610302906001600160a01b031681565b6102806104f1366004612701565b610f4e565b610280611083565b60606036805461050d9061275d565b80601f01602080910402602001604051908101604052809291908181526020018280546105399061275d565b80156105865780601f1061055b57610100808354040283529160200191610586565b820191906000526020600020905b81548152906001019060200180831161056957829003601f168201915b5050505050905090565b60008061059b611239565b90506105a8818585611243565b5060019392505050565b6105ba611239565b6001600160a01b03166105d56065546001600160a01b031690565b6001600160a01b0316146106045760405162461bcd60e51b81526004016105fb90612798565b60405180910390fd5b60fb80546001600160a01b038381166001600160a01b031983168117909355604080519190921680825260208201939093527f56b079178193d2a52b3949d9cd8bc5503daadffd4a704722e18b8325021a974191015b60405180910390a15050565b600080610671611239565b905061067e858285611367565b6106898585856113db565b60019150505b9392505050565b6065546001600160a01b03163314806106b9575060fe546001600160a01b031633145b6106d55760405162461bcd60e51b81526004016105fb906127cd565b6106df82826115a9565b5050565b6106f46106ee611239565b826117d5565b50565b600080610702611239565b90506105a88185856107148589610cfa565b61071e9190612810565b611243565b6065546001600160a01b0316331480610746575060fe546001600160a01b031633145b6107625760405162461bcd60e51b81526004016105fb906127cd565b6106df82826117d5565b610774611239565b6001600160a01b031661078f6065546001600160a01b031690565b6001600160a01b0316146107b55760405162461bcd60e51b81526004016105fb90612798565b60fe80546001600160a01b038381166001600160a01b031983168117909355604080519190921680825260208201939093527f9f0ac88be9159761bacf6c9e7c294c397ebf594607f6b3f2f70e7e0841ea68e8910161065a565b610817611239565b6001600160a01b03166108326065546001600160a01b031690565b6001600160a01b0316146108585760405162461bcd60e51b81526004016105fb90612798565b6108626000611b4e565b565b60008061087060355490565b90508061088657670de0b6b3a764000091505090565b8061088f610ab2565b6108a190670de0b6b3a7640000612828565b6108ab9190612847565b91505090565b60606037805461050d9061275d565b6000806108cb611239565b905060006108d98286610cfa565b9050838110156109395760405162461bcd60e51b815260206004820152602560248201527f45524332303a2064656372656173656420616c6c6f77616e63652062656c6f77604482015264207a65726f60d81b60648201526084016105fb565b6109468286868403611243565b506001949350505050565b610959611239565b6001600160a01b03166109746065546001600160a01b031690565b6001600160a01b03161461099a5760405162461bcd60e51b81526004016105fb90612798565b60fd80546001600160a01b038381166001600160a01b031983168117909355604080519190921680825260208201939093527febcecb9db04071cf4b4ecc1e2e1e4603e74c9382d6e36c3531f0b62af4c78ed7910161065a565b6000806109ff611239565b90506105a88185856113db565b60608060fc60009054906101000a90046001600160a01b03166001600160a01b0316634631b2466040518163ffffffff1660e01b815260040160006040518083038186803b158015610a5d57600080fd5b505afa158015610a71573d6000803e3d6000fd5b505050506040513d6000823e601f3d908101601f19168201604052610a99919081019061293f565b915091509091565b6106f4610aac611239565b826115a9565b6000610ac060c95460ff1690565b15610b5b576040516370a0823160e01b81523060048201527378ae2880bd1672b49a33cf796cf53fe6db0ab01d906370a082319060240160206040518083038186803b158015610b0f57600080fd5b505afa158015610b23573d6000803e3d6000fd5b505050506040513d601f19601f82011682018060405250810190610b479190612a04565b610b569064e8d4a51000612828565b905090565b60fc60009054906101000a90046001600160a01b03166001600160a01b031663bd244af46040518163ffffffff1660e01b815260040160206040518083038186803b158015610ba957600080fd5b505afa158015610bbd573d6000803e3d6000fd5b505050506040513d601f19601f82011682018060405250810190610b569190612a04565b60fc546040805163c89d5b8b60e01b815290516000926001600160a01b03169163c89d5b8b916004808301926020929190829003018186803b158015610ba957600080fd5b6065546001600160a01b0316331480610c49575060fe546001600160a01b031633145b610c655760405162461bcd60e51b81526004016105fb906127cd565b60c95460ff1615610c885760405162461bcd60e51b81526004016105fb90612a1d565b610c90611ba0565b60fc60009054906101000a90046001600160a01b03166001600160a01b031663db2e21bc6040518163ffffffff1660e01b8152600401600060405180830381600087803b158015610ce057600080fd5b505af1158015610cf4573d6000803e3d6000fd5b50505050565b6001600160a01b03918216600090815260346020908152604080832093909416825291909152205490565b6065546001600160a01b0316331480610d48575060fe546001600160a01b031633145b610d645760405162461bcd60e51b81526004016105fb906127cd565b60fc54604051636e21950f60e01b815260048101849052602481018390526000916001600160a01b031690636e21950f90604401602060405180830381600087803b158015610db257600080fd5b505af1158015610dc6573d6000803e3d6000fd5b505050506040513d601f19601f82011682018060405250810190610dea9190612a04565b90508015610e925760fc546040516255f9e960e71b8152600481018390526001600160a01b0390911690632afcf48090602401600060405180830381600087803b158015610e3757600080fd5b505af1158015610e4b573d6000803e3d6000fd5b505060408051868152602081018690529081018490527fe0b4077da7dfa5015ff10fab6a214f37acc1b23d745f30336942d17e07848c6b9250606001905060405180910390a15b505050565b610e9f611239565b6001600160a01b0316610eba6065546001600160a01b031690565b6001600160a01b031614610ee05760405162461bcd60e51b81526004016105fb90612798565b6001600160a01b038116610f455760405162461bcd60e51b815260206004820152602660248201527f4f776e61626c653a206e6577206f776e657220697320746865207a65726f206160448201526564647265737360d01b60648201526084016105fb565b6106f481611b4e565b6000610f5a6001611c16565b90508015610f72576000805461ff0019166101001790555b610fc46040518060400160405280601581526020017409ac2e4d6cae840aecad2ced0e8cac84092dcc8caf605b1b815250604051806040016040528060038152602001624d574960e81b815250611c9e565b610fcc611ccf565b60fc80546001600160a01b038085166001600160a01b0319928316811790935560fd805489831690841617905560fe805488831690841617905560fb805491871691909216179055611036907378ae2880bd1672b49a33cf796cf53fe6db0ab01d90600019611cfe565b801561107c576000805461ff0019169055604051600181527f7f26b83ff96e1f2b6a682f133852f6798a09c465da95921460cefb38474024989060200160405180910390a15b5050505050565b6065546001600160a01b03163314806110a6575060fe546001600160a01b031633145b6110c25760405162461bcd60e51b81526004016105fb906127cd565b60c95460ff1661110b5760405162461bcd60e51b815260206004820152601460248201527314185d5cd8589b194e881b9bdd081c185d5cd95960621b60448201526064016105fb565b611113611e55565b6040516370a0823160e01b81523060048201526000907378ae2880bd1672b49a33cf796cf53fe6db0ab01d906370a082319060240160206040518083038186803b15801561116057600080fd5b505afa158015611174573d6000803e3d6000fd5b505050506040513d601f19601f820116820180604052508101906111989190612a04565b905080156106f45760fc546040516255f9e960e71b8152600481018390526001600160a01b0390911690632afcf48090602401600060405180830381600087803b1580156111e557600080fd5b505af11580156111f9573d6000803e3d6000fd5b505050507fc13e24d2b0a3bacd5d1a7c514125a1e27323abf7c86f6d36597f8752bbd7eed78160405161122e91815260200190565b60405180910390a150565b6000610b56611ed1565b6001600160a01b0383166112a55760405162461bcd60e51b8152602060048201526024808201527f45524332303a20617070726f76652066726f6d20746865207a65726f206164646044820152637265737360e01b60648201526084016105fb565b6001600160a01b0382166113065760405162461bcd60e51b815260206004820152602260248201527f45524332303a20617070726f766520746f20746865207a65726f206164647265604482015261737360f01b60648201526084016105fb565b6001600160a01b0383811660008181526034602090815260408083209487168084529482529182902085905590518481527f8c5be1e5ebec7d5bd14f71427d1e84f3dd0314c0f7b2291e5b200ac8c7c3b925910160405180910390a3505050565b60006113738484610cfa565b90506000198114610cf457818110156113ce5760405162461bcd60e51b815260206004820152601d60248201527f45524332303a20696e73756666696369656e7420616c6c6f77616e636500000060448201526064016105fb565b610cf48484848403611243565b6001600160a01b03831661143f5760405162461bcd60e51b815260206004820152602560248201527f45524332303a207472616e736665722066726f6d20746865207a65726f206164604482015264647265737360d81b60648201526084016105fb565b6001600160a01b0382166114a15760405162461bcd60e51b815260206004820152602360248201527f45524332303a207472616e7366657220746f20746865207a65726f206164647260448201526265737360e81b60648201526084016105fb565b6001600160a01b038316600090815260336020526040902054818110156115195760405162461bcd60e51b815260206004820152602660248201527f45524332303a207472616e7366657220616d6f756e7420657863656564732062604482015265616c616e636560d01b60648201526084016105fb565b6001600160a01b03808516600090815260336020526040808220858503905591851681529081208054849290611550908490612810565b92505081905550826001600160a01b0316846001600160a01b03167fddf252ad1be2c89b69c2b068fc378daa952ba7f163c4a11628f55a4df523b3ef8460405161159c91815260200190565b60405180910390a3610cf4565b600260975414156115fc5760405162461bcd60e51b815260206004820152601f60248201527f5265656e7472616e637947756172643a207265656e7472616e742063616c6c0060448201526064016105fb565b600260975560c95460ff16156116245760405162461bcd60e51b81526004016105fb90612a1d565b600081116116665760405162461bcd60e51b815260206004820152600f60248201526e0416d6f756e74206d757374203e203608c1b60448201526064016105fb565b6001600160a01b038216600090815260ff60205260408120439055611689610ab2565b90506116ab7378ae2880bd1672b49a33cf796cf53fe6db0ab01d843085611f05565b60fc546040516255f9e960e71b8152600481018490526001600160a01b0390911690632afcf48090602401600060405180830381600087803b1580156116f057600080fd5b505af1158015611704573d6000803e3d6000fd5b5050505060008264e8d4a5100061171b9190612828565b9050600061172860355490565b905060008115806117395750818411155b61175757836117488385612828565b6117529190612847565b611759565b825b90506117658682611f3d565b604080516001600160a01b0388168152602081018590527378ae2880bd1672b49a33cf796cf53fe6db0ab01d818301526060810183905290517fd2f8022f659fd9c8c558f30c00fd5ee7038f7cb56da45095c3e0e7d48b3e0c4b9181900360800190a15050600160975550505050565b600260975414156118285760405162461bcd60e51b815260206004820152601f60248201527f5265656e7472616e637947756172643a207265656e7472616e742063616c6c0060448201526064016105fb565b60026097558061186c5760405162461bcd60e51b815260206004820152600f60248201526e0536861726573206d757374203e203608c1b60448201526064016105fb565b6001600160a01b0382166000908152603360205260409020548111156118d45760405162461bcd60e51b815260206004820152601c60248201527f4e6f7420656e6f75676820736861726520746f2077697468647261770000000060448201526064016105fb565b6001600160a01b038216600090815260ff602052604090205443141561193c5760405162461bcd60e51b815260206004820152601a60248201527f57697468647261772077697468696e2073616d6520626c6f636b00000000000060448201526064016105fb565b600061194760355490565b905060008183611955610ab2565b61195f9190612828565b6119699190612847565b905061197760c95460ff1690565b611aa25760fc546001600160a01b031663ed47d9098361199f86670de0b6b3a7640000612828565b6119a99190612847565b6040518263ffffffff1660e01b81526004016119c791815260200190565b600060405180830381600087803b1580156119e157600080fd5b505af11580156119f5573d6000803e3d6000fd5b50506040516370a0823160e01b8152306004820152611a9d92508691507378ae2880bd1672b49a33cf796cf53fe6db0ab01d906370a082319060240160206040518083038186803b158015611a4957600080fd5b505afa158015611a5d573d6000803e3d6000fd5b505050506040513d601f19601f82011682018060405250810190611a819190612a04565b7378ae2880bd1672b49a33cf796cf53fe6db0ab01d919061201c565b611ad6565b6000611ab364e8d4a5100083612847565b9050611ad47378ae2880bd1672b49a33cf796cf53fe6db0ab01d868361201c565b505b611ae0848461204c565b604080516001600160a01b0386168152602081018390527378ae2880bd1672b49a33cf796cf53fe6db0ab01d818301526060810185905290517f457f950b75085c30ff780acd57bde642ff1316cc4aad9f286af2c1ffc4163a789181900360800190a1505060016097555050565b606580546001600160a01b038381166001600160a01b0319831681179093556040519116919082907f8be0079c531659141344cd1fd0a4f28419497f9722a3daafe3b4186f6b6457e090600090a35050565b60c95460ff1615611bc35760405162461bcd60e51b81526004016105fb90612a1d565b60c9805460ff191660011790557f62e78cea01bee320cd4e420270b5ea74000d11b0c9f74754ebdbfc544b05a258611bf9611239565b6040516001600160a01b03909116815260200160405180910390a1565b60008054610100900460ff1615611c5d578160ff166001148015611c395750303b155b611c555760405162461bcd60e51b81526004016105fb90612a47565b506000919050565b60005460ff808416911610611c845760405162461bcd60e51b81526004016105fb90612a47565b506000805460ff191660ff92909216919091179055600190565b600054610100900460ff16611cc55760405162461bcd60e51b81526004016105fb90612a95565b6106df828261219a565b600054610100900460ff16611cf65760405162461bcd60e51b81526004016105fb90612a95565b6108626121e8565b801580611d875750604051636eb1769f60e11b81523060048201526001600160a01b03838116602483015284169063dd62ed3e9060440160206040518083038186803b158015611d4d57600080fd5b505afa158015611d61573d6000803e3d6000fd5b505050506040513d601f19601f82011682018060405250810190611d859190612a04565b155b611df25760405162461bcd60e51b815260206004820152603660248201527f5361666545524332303a20617070726f76652066726f6d206e6f6e2d7a65726f60448201527520746f206e6f6e2d7a65726f20616c6c6f77616e636560501b60648201526084016105fb565b6040516001600160a01b038316602482015260448101829052610e9290849063095ea7b360e01b906064015b60408051601f198184030181529190526020810180516001600160e01b03166001600160e01b03199093169290921790915261221f565b60c95460ff16611e9e5760405162461bcd60e51b815260206004820152601460248201527314185d5cd8589b194e881b9bdd081c185d5cd95960621b60448201526064016105fb565b60c9805460ff191690557f5db9ee0a495bf2e6ff9c91a7834c1ba4fdd244a5e8aa4e537bd38aeae4b073aa611bf9611239565b600060183610801590611eee575060fb546001600160a01b031633145b15611f00575060131936013560601c90565b503390565b6040516001600160a01b0380851660248301528316604482015260648101829052610cf49085906323b872dd60e01b90608401611e1e565b6001600160a01b038216611f935760405162461bcd60e51b815260206004820152601f60248201527f45524332303a206d696e7420746f20746865207a65726f20616464726573730060448201526064016105fb565b8060356000828254611fa59190612810565b90915550506001600160a01b03821660009081526033602052604081208054839290611fd2908490612810565b90915550506040518181526001600160a01b038316906000907fddf252ad1be2c89b69c2b068fc378daa952ba7f163c4a11628f55a4df523b3ef9060200160405180910390a35050565b6040516001600160a01b038316602482015260448101829052610e9290849063a9059cbb60e01b90606401611e1e565b6001600160a01b0382166120ac5760405162461bcd60e51b815260206004820152602160248201527f45524332303a206275726e2066726f6d20746865207a65726f206164647265736044820152607360f81b60648201526084016105fb565b6001600160a01b038216600090815260336020526040902054818110156121205760405162461bcd60e51b815260206004820152602260248201527f45524332303a206275726e20616d6f756e7420657863656564732062616c616e604482015261636560f01b60648201526084016105fb565b6001600160a01b038316600090815260336020526040812083830390556035805484929061214f908490612ae0565b90915550506040518281526000906001600160a01b038516907fddf252ad1be2c89b69c2b068fc378daa952ba7f163c4a11628f55a4df523b3ef9060200160405180910390a3505050565b600054610100900460ff166121c15760405162461bcd60e51b81526004016105fb90612a95565b81516121d4906036906020850190612472565b508051610e92906037906020840190612472565b600054610100900460ff1661220f5760405162461bcd60e51b81526004016105fb90612a95565b61086261221a611239565b611b4e565b6000612274826040518060400160405280602081526020017f5361666545524332303a206c6f772d6c6576656c2063616c6c206661696c6564815250856001600160a01b03166122f19092919063ffffffff16565b805190915015610e9257808060200190518101906122929190612af7565b610e925760405162461bcd60e51b815260206004820152602a60248201527f5361666545524332303a204552433230206f7065726174696f6e20646964206e6044820152691bdd081cdd58d8d9595960b21b60648201526084016105fb565b60606123008484600085612308565b949350505050565b6060824710156123695760405162461bcd60e51b815260206004820152602660248201527f416464726573733a20696e73756666696369656e742062616c616e636520666f6044820152651c8818d85b1b60d21b60648201526084016105fb565b6001600160a01b0385163b6123c05760405162461bcd60e51b815260206004820152601d60248201527f416464726573733a2063616c6c20746f206e6f6e2d636f6e747261637400000060448201526064016105fb565b600080866001600160a01b031685876040516123dc9190612b19565b60006040518083038185875af1925050503d8060008114612419576040519150601f19603f3d011682016040523d82523d6000602084013e61241e565b606091505b509150915061242e828286612439565b979650505050505050565b6060831561244857508161068f565b8251156124585782518084602001fd5b8160405162461bcd60e51b81526004016105fb9190612537565b82805461247e9061275d565b90600052602060002090601f0160209004810192826124a057600085556124e6565b82601f106124b957805160ff19168380011785556124e6565b828001600101855582156124e6579182015b828111156124e65782518255916020019190600101906124cb565b506124f29291506124f6565b5090565b5b808211156124f257600081556001016124f7565b60005b8381101561252657818101518382015260200161250e565b83811115610cf45750506000910152565b602081526000825180602084015261255681604085016020870161250b565b601f01601f19169190910160400192915050565b6001600160a01b03811681146106f457600080fd5b6000806040838503121561259257600080fd5b823561259d8161256a565b946020939093013593505050565b6000602082840312156125bd57600080fd5b813561068f8161256a565b6000806000606084860312156125dd57600080fd5b83356125e88161256a565b925060208401356125f88161256a565b929592945050506040919091013590565b60006020828403121561261b57600080fd5b5035919050565b604080825283519082018190526000906020906060840190828701845b828110156126645781516001600160a01b03168452928401929084019060010161263f565b5050508381038285015284518082528583019183019060005b818110156126995783518352928401929184019160010161267d565b5090979650505050505050565b600080604083850312156126b957600080fd5b82356126c48161256a565b915060208301356126d48161256a565b809150509250929050565b600080604083850312156126f257600080fd5b50508035926020909101359150565b6000806000806080858703121561271757600080fd5b84356127228161256a565b935060208501356127328161256a565b925060408501356127428161256a565b915060608501356127528161256a565b939692955090935050565b600181811c9082168061277157607f821691505b6020821081141561279257634e487b7160e01b600052602260045260246000fd5b50919050565b6020808252818101527f4f776e61626c653a2063616c6c6572206973206e6f7420746865206f776e6572604082015260600190565b60208082526013908201527227b7363c9037bbb732b91037b91030b236b4b760691b604082015260600190565b634e487b7160e01b600052601160045260246000fd5b60008219821115612823576128236127fa565b500190565b6000816000190483118215151615612842576128426127fa565b500290565b60008261286457634e487b7160e01b600052601260045260246000fd5b500490565b634e487b7160e01b600052604160045260246000fd5b604051601f8201601f1916810167ffffffffffffffff811182821017156128a8576128a8612869565b604052919050565b600067ffffffffffffffff8211156128ca576128ca612869565b5060051b60200190565b600082601f8301126128e557600080fd5b815160206128fa6128f5836128b0565b61287f565b82815260059290921b8401810191818101908684111561291957600080fd5b8286015b84811015612934578051835291830191830161291d565b509695505050505050565b6000806040838503121561295257600080fd5b825167ffffffffffffffff8082111561296a57600080fd5b818501915085601f83011261297e57600080fd5b8151602061298e6128f5836128b0565b82815260059290921b840181019181810190898411156129ad57600080fd5b948201945b838610156129d45785516129c58161256a565b825294820194908201906129b2565b918801519196509093505050808211156129ed57600080fd5b506129fa858286016128d4565b9150509250929050565b600060208284031215612a1657600080fd5b5051919050565b60208082526010908201526f14185d5cd8589b194e881c185d5cd95960821b604082015260600190565b6020808252602e908201527f496e697469616c697a61626c653a20636f6e747261637420697320616c72656160408201526d191e481a5b9a5d1a585b1a5e995960921b606082015260800190565b6020808252602b908201527f496e697469616c697a61626c653a20636f6e7472616374206973206e6f74206960408201526a6e697469616c697a696e6760a81b606082015260800190565b600082821015612af257612af26127fa565b500390565b600060208284031215612b0957600080fd5b8151801515811461068f57600080fd5b60008251612b2b81846020870161250b565b919091019291505056fea264697066735822122037af0b7212c5227de2bba08a4e03cac8905f963e55c762b2dc60ce76c6105a6e64736f6c63430008090033",
  "devdoc": {
    "kind": "dev",
    "methods": {
      "allowance(address,address)": {
        "details": "See {IERC20-allowance}."
      },
      "approve(address,uint256)": {
        "details": "See {IERC20-approve}. NOTE: If `amount` is the maximum `uint256`, the allowance is not updated on `transferFrom`. This is semantically equivalent to an infinite approval. Requirements: - `spender` cannot be the zero address."
      },
      "balanceOf(address)": {
        "details": "See {IERC20-balanceOf}."
      },
      "decimals()": {
        "details": "Returns the number of decimals used to get its user representation. For example, if `decimals` equals `2`, a balance of `505` tokens should be displayed to a user as `5.05` (`505 / 10 ** 2`). Tokens usually opt for a value of 18, imitating the relationship between Ether and Wei. This is the value {ERC20} uses, unless this function is overridden; NOTE: This information is only used for _display_ purposes: it in no way affects any of the arithmetic of the contract, including {IERC20-balanceOf} and {IERC20-transfer}."
      },
      "decreaseAllowance(address,uint256)": {
        "details": "Atomically decreases the allowance granted to `spender` by the caller. This is an alternative to {approve} that can be used as a mitigation for problems described in {IERC20-approve}. Emits an {Approval} event indicating the updated allowance. Requirements: - `spender` cannot be the zero address. - `spender` must have allowance for the caller of at least `subtractedValue`."
      },
      "increaseAllowance(address,uint256)": {
        "details": "Atomically increases the allowance granted to `spender` by the caller. This is an alternative to {approve} that can be used as a mitigation for problems described in {IERC20-approve}. Emits an {Approval} event indicating the updated allowance. Requirements: - `spender` cannot be the zero address."
      },
      "name()": {
        "details": "Returns the name of the token."
      },
      "owner()": {
        "details": "Returns the address of the current owner."
      },
      "paused()": {
        "details": "Returns true if the contract is paused, and false otherwise."
      },
      "renounceOwnership()": {
        "details": "Leaves the contract without owner. It will not be possible to call `onlyOwner` functions anymore. Can only be called by the current owner. NOTE: Renouncing ownership will leave the contract without an owner, thereby removing any functionality that is only available to the owner."
      },
      "symbol()": {
        "details": "Returns the symbol of the token, usually a shorter version of the name."
      },
      "totalSupply()": {
        "details": "See {IERC20-totalSupply}."
      },
      "transfer(address,uint256)": {
        "details": "See {IERC20-transfer}. Requirements: - `to` cannot be the zero address. - the caller must have a balance of at least `amount`."
      },
      "transferFrom(address,address,uint256)": {
        "details": "See {IERC20-transferFrom}. Emits an {Approval} event indicating the updated allowance. This is not required by the EIP. See the note at the beginning of {ERC20}. NOTE: Does not update the allowance if the current allowance is the maximum `uint256`. Requirements: - `from` and `to` cannot be the zero address. - `from` must have a balance of at least `amount`. - the caller must have allowance for ``from``'s tokens of at least `amount`."
      },
      "transferOwnership(address)": {
        "details": "Transfers ownership of the contract to a new account (`newOwner`). Can only be called by the current owner."
      }
    },
    "version": 1
  },
  "userdoc": {
    "kind": "user",
    "methods": {
      "getPricePerFullShare()": {
        "notice": "Can be use for calculate both user shares & APR    "
      },
      "isTrustedForwarder(address)": {
        "notice": "return if the forwarder is trusted to forward relayed transactions to us. the forwarder is required to verify the sender's signature, and verify the call is not a replay."
      }
    },
    "version": 1
  },
  "storageLayout": {
    "storage": [
      {
        "astId": 713,
        "contract": "contracts/mwi/MWIVaultTest.sol:MWIVaultTest",
        "label": "_initialized",
        "offset": 0,
        "slot": "0",
        "type": "t_uint8"
      },
      {
        "astId": 716,
        "contract": "contracts/mwi/MWIVaultTest.sol:MWIVaultTest",
        "label": "_initializing",
        "offset": 1,
        "slot": "0",
        "type": "t_bool"
      },
      {
        "astId": 3292,
        "contract": "contracts/mwi/MWIVaultTest.sol:MWIVaultTest",
        "label": "__gap",
        "offset": 0,
        "slot": "1",
        "type": "t_array(t_uint256)50_storage"
      },
      {
        "astId": 1037,
        "contract": "contracts/mwi/MWIVaultTest.sol:MWIVaultTest",
        "label": "_balances",
        "offset": 0,
        "slot": "51",
        "type": "t_mapping(t_address,t_uint256)"
      },
      {
        "astId": 1043,
        "contract": "contracts/mwi/MWIVaultTest.sol:MWIVaultTest",
        "label": "_allowances",
        "offset": 0,
        "slot": "52",
        "type": "t_mapping(t_address,t_mapping(t_address,t_uint256))"
      },
      {
        "astId": 1045,
        "contract": "contracts/mwi/MWIVaultTest.sol:MWIVaultTest",
        "label": "_totalSupply",
        "offset": 0,
        "slot": "53",
        "type": "t_uint256"
      },
      {
        "astId": 1047,
        "contract": "contracts/mwi/MWIVaultTest.sol:MWIVaultTest",
        "label": "_name",
        "offset": 0,
        "slot": "54",
        "type": "t_string_storage"
      },
      {
        "astId": 1049,
        "contract": "contracts/mwi/MWIVaultTest.sol:MWIVaultTest",
        "label": "_symbol",
        "offset": 0,
        "slot": "55",
        "type": "t_string_storage"
      },
      {
        "astId": 1628,
        "contract": "contracts/mwi/MWIVaultTest.sol:MWIVaultTest",
        "label": "__gap",
        "offset": 0,
        "slot": "56",
        "type": "t_array(t_uint256)45_storage"
      },
      {
        "astId": 593,
        "contract": "contracts/mwi/MWIVaultTest.sol:MWIVaultTest",
        "label": "_owner",
        "offset": 0,
        "slot": "101",
        "type": "t_address"
      },
      {
        "astId": 705,
        "contract": "contracts/mwi/MWIVaultTest.sol:MWIVaultTest",
        "label": "__gap",
        "offset": 0,
        "slot": "102",
        "type": "t_array(t_uint256)49_storage"
      },
      {
        "astId": 973,
        "contract": "contracts/mwi/MWIVaultTest.sol:MWIVaultTest",
        "label": "_status",
        "offset": 0,
        "slot": "151",
        "type": "t_uint256"
      },
      {
        "astId": 1017,
        "contract": "contracts/mwi/MWIVaultTest.sol:MWIVaultTest",
        "label": "__gap",
        "offset": 0,
        "slot": "152",
        "type": "t_array(t_uint256)49_storage"
      },
      {
        "astId": 869,
        "contract": "contracts/mwi/MWIVaultTest.sol:MWIVaultTest",
        "label": "_paused",
        "offset": 0,
        "slot": "201",
        "type": "t_bool"
      },
      {
        "astId": 958,
        "contract": "contracts/mwi/MWIVaultTest.sol:MWIVaultTest",
        "label": "__gap",
        "offset": 0,
        "slot": "202",
        "type": "t_array(t_uint256)49_storage"
      },
      {
        "astId": 70220,
        "contract": "contracts/mwi/MWIVaultTest.sol:MWIVaultTest",
        "label": "trustedForwarder",
        "offset": 0,
        "slot": "251",
        "type": "t_address"
      },
      {
        "astId": 34455,
        "contract": "contracts/mwi/MWIVaultTest.sol:MWIVaultTest",
        "label": "strategy",
        "offset": 0,
        "slot": "252",
        "type": "t_contract(IStrategy)34432"
      },
      {
        "astId": 34457,
        "contract": "contracts/mwi/MWIVaultTest.sol:MWIVaultTest",
        "label": "treasuryWallet",
        "offset": 0,
        "slot": "253",
        "type": "t_address"
      },
      {
        "astId": 34459,
        "contract": "contracts/mwi/MWIVaultTest.sol:MWIVaultTest",
        "label": "admin",
        "offset": 0,
        "slot": "254",
        "type": "t_address"
      },
      {
        "astId": 34463,
        "contract": "contracts/mwi/MWIVaultTest.sol:MWIVaultTest",
        "label": "depositedBlock",
        "offset": 0,
        "slot": "255",
        "type": "t_mapping(t_address,t_uint256)"
      }
    ],
    "types": {
      "t_address": {
        "encoding": "inplace",
        "label": "address",
        "numberOfBytes": "20"
      },
      "t_array(t_uint256)45_storage": {
        "base": "t_uint256",
        "encoding": "inplace",
        "label": "uint256[45]",
        "numberOfBytes": "1440"
      },
      "t_array(t_uint256)49_storage": {
        "base": "t_uint256",
        "encoding": "inplace",
        "label": "uint256[49]",
        "numberOfBytes": "1568"
      },
      "t_array(t_uint256)50_storage": {
        "base": "t_uint256",
        "encoding": "inplace",
        "label": "uint256[50]",
        "numberOfBytes": "1600"
      },
      "t_bool": {
        "encoding": "inplace",
        "label": "bool",
        "numberOfBytes": "1"
      },
      "t_contract(IStrategy)34432": {
        "encoding": "inplace",
        "label": "contract IStrategy",
        "numberOfBytes": "20"
      },
      "t_mapping(t_address,t_mapping(t_address,t_uint256))": {
        "encoding": "mapping",
        "key": "t_address",
        "label": "mapping(address => mapping(address => uint256))",
        "numberOfBytes": "32",
        "value": "t_mapping(t_address,t_uint256)"
      },
      "t_mapping(t_address,t_uint256)": {
        "encoding": "mapping",
        "key": "t_address",
        "label": "mapping(address => uint256)",
        "numberOfBytes": "32",
        "value": "t_uint256"
      },
      "t_string_storage": {
        "encoding": "bytes",
        "label": "string",
        "numberOfBytes": "32"
      },
      "t_uint256": {
        "encoding": "inplace",
        "label": "uint256",
        "numberOfBytes": "32"
      },
      "t_uint8": {
        "encoding": "inplace",
        "label": "uint8",
        "numberOfBytes": "1"
      }
    }
  }
}