{
  "address": "0x51b35D872e6b7247F90932b5BE760f5a7436C04f",
  "abi": [
    {
      "inputs": [
        {
          "internalType": "address",
          "name": "sender",
          "type": "address"
        },
        {
          "internalType": "string[]",
          "name": "urls",
          "type": "string[]"
        },
        {
          "internalType": "bytes",
          "name": "callData",
          "type": "bytes"
        },
        {
          "internalType": "bytes4",
          "name": "callbackFunction",
          "type": "bytes4"
        },
        {
          "internalType": "bytes",
          "name": "extraData",
          "type": "bytes"
        }
      ],
      "name": "OffchainLookup",
      "type": "error"
    },
    {
      "anonymous": false,
      "inputs": [
        {
          "indexed": true,
          "internalType": "uint256",
          "name": "chainID",
          "type": "uint256"
        },
        {
          "indexed": true,
          "internalType": "address",
          "name": "token",
          "type": "address"
        },
        {
          "indexed": true,
          "internalType": "uint256",
          "name": "tid",
          "type": "uint256"
        }
      ],
      "name": "AddToken",
      "type": "event"
    },
    {
      "anonymous": false,
      "inputs": [
        {
          "indexed": true,
          "internalType": "address",
          "name": "caller",
          "type": "address"
        },
        {
          "indexed": true,
          "internalType": "uint256",
          "name": "shareBurned",
          "type": "uint256"
        }
      ],
      "name": "Burn",
      "type": "event"
    },
    {
      "anonymous": false,
      "inputs": [
        {
          "indexed": false,
          "internalType": "uint8",
          "name": "version",
          "type": "uint8"
        }
      ],
      "name": "Initialized",
      "type": "event"
    },
    {
      "anonymous": false,
      "inputs": [
        {
          "indexed": true,
          "internalType": "address",
          "name": "caller",
          "type": "address"
        },
        {
          "indexed": true,
          "internalType": "uint256",
          "name": "amtDeposit",
          "type": "uint256"
        },
        {
          "indexed": true,
          "internalType": "uint256",
          "name": "shareMinted",
          "type": "uint256"
        }
      ],
      "name": "Mint",
      "type": "event"
    },
    {
      "anonymous": false,
      "inputs": [
        {
          "indexed": true,
          "internalType": "address",
          "name": "account",
          "type": "address"
        },
        {
          "indexed": true,
          "internalType": "enum STIMinter.OperationType",
          "name": "operation",
          "type": "uint8"
        },
        {
          "indexed": false,
          "internalType": "uint256",
          "name": "amount",
          "type": "uint256"
        },
        {
          "indexed": true,
          "internalType": "uint256",
          "name": "nonce",
          "type": "uint256"
        }
      ],
      "name": "NewOperation",
      "type": "event"
    },
    {
      "anonymous": false,
      "inputs": [
        {
          "indexed": true,
          "internalType": "address",
          "name": "previousOwner",
          "type": "address"
        },
        {
          "indexed": true,
          "internalType": "address",
          "name": "newOwner",
          "type": "address"
        }
      ],
      "name": "OwnershipTransferred",
      "type": "event"
    },
    {
      "anonymous": false,
      "inputs": [
        {
          "indexed": false,
          "internalType": "address",
          "name": "account",
          "type": "address"
        }
      ],
      "name": "Paused",
      "type": "event"
    },
    {
      "anonymous": false,
      "inputs": [
        {
          "indexed": true,
          "internalType": "uint256",
          "name": "chainID",
          "type": "uint256"
        },
        {
          "indexed": true,
          "internalType": "address",
          "name": "token",
          "type": "address"
        },
        {
          "indexed": true,
          "internalType": "uint256",
          "name": "tid",
          "type": "uint256"
        },
        {
          "indexed": false,
          "internalType": "uint256",
          "name": "targetPerc",
          "type": "uint256"
        }
      ],
      "name": "RemoveToken",
      "type": "event"
    },
    {
      "anonymous": false,
      "inputs": [
        {
          "indexed": true,
          "internalType": "bytes32",
          "name": "role",
          "type": "bytes32"
        },
        {
          "indexed": true,
          "internalType": "bytes32",
          "name": "previousAdminRole",
          "type": "bytes32"
        },
        {
          "indexed": true,
          "internalType": "bytes32",
          "name": "newAdminRole",
          "type": "bytes32"
        }
      ],
      "name": "RoleAdminChanged",
      "type": "event"
    },
    {
      "anonymous": false,
      "inputs": [
        {
          "indexed": true,
          "internalType": "bytes32",
          "name": "role",
          "type": "bytes32"
        },
        {
          "indexed": true,
          "internalType": "address",
          "name": "account",
          "type": "address"
        },
        {
          "indexed": true,
          "internalType": "address",
          "name": "sender",
          "type": "address"
        }
      ],
      "name": "RoleGranted",
      "type": "event"
    },
    {
      "anonymous": false,
      "inputs": [
        {
          "indexed": true,
          "internalType": "bytes32",
          "name": "role",
          "type": "bytes32"
        },
        {
          "indexed": true,
          "internalType": "address",
          "name": "account",
          "type": "address"
        },
        {
          "indexed": true,
          "internalType": "address",
          "name": "sender",
          "type": "address"
        }
      ],
      "name": "RoleRevoked",
      "type": "event"
    },
    {
      "anonymous": false,
      "inputs": [
        {
          "indexed": false,
          "internalType": "address",
          "name": "account",
          "type": "address"
        }
      ],
      "name": "Unpaused",
      "type": "event"
    },
    {
      "inputs": [],
      "name": "ADMIN_ROLE",
      "outputs": [
        {
          "internalType": "bytes32",
          "name": "",
          "type": "bytes32"
        }
      ],
      "stateMutability": "view",
      "type": "function"
    },
    {
      "inputs": [],
      "name": "DEFAULT_ADMIN_ROLE",
      "outputs": [
        {
          "internalType": "bytes32",
          "name": "",
          "type": "bytes32"
        }
      ],
      "stateMutability": "view",
      "type": "function"
    },
    {
      "inputs": [],
      "name": "STI",
      "outputs": [
        {
          "internalType": "contract ISTI",
          "name": "",
          "type": "address"
        }
      ],
      "stateMutability": "view",
      "type": "function"
    },
    {
      "inputs": [
        {
          "internalType": "uint256",
          "name": "_chainID",
          "type": "uint256"
        },
        {
          "internalType": "address",
          "name": "_token",
          "type": "address"
        }
      ],
      "name": "addToken",
      "outputs": [],
      "stateMutability": "nonpayable",
      "type": "function"
    },
    {
      "inputs": [],
      "name": "admin",
      "outputs": [
        {
          "internalType": "address",
          "name": "",
          "type": "address"
        }
      ],
      "stateMutability": "view",
      "type": "function"
    },
    {
      "inputs": [
        {
          "internalType": "address",
          "name": "_account",
          "type": "address"
        },
        {
          "internalType": "uint256",
          "name": "_pool",
          "type": "uint256"
        },
        {
          "internalType": "uint256",
          "name": "_share",
          "type": "uint256"
        }
      ],
      "name": "burnByAdmin",
      "outputs": [],
      "stateMutability": "nonpayable",
      "type": "function"
    },
    {
      "inputs": [
        {
          "internalType": "uint256",
          "name": "",
          "type": "uint256"
        }
      ],
      "name": "chainIDs",
      "outputs": [
        {
          "internalType": "uint256",
          "name": "",
          "type": "uint256"
        }
      ],
      "stateMutability": "view",
      "type": "function"
    },
    {
      "inputs": [
        {
          "internalType": "address",
          "name": "_account",
          "type": "address"
        }
      ],
      "name": "exitWithdrawalByAdmin",
      "outputs": [],
      "stateMutability": "nonpayable",
      "type": "function"
    },
    {
      "inputs": [],
      "name": "gatewaySigner",
      "outputs": [
        {
          "internalType": "address",
          "name": "",
          "type": "address"
        }
      ],
      "stateMutability": "view",
      "type": "function"
    },
    {
      "inputs": [
        {
          "internalType": "uint256[]",
          "name": "_allPoolInUSDs",
          "type": "uint256[]"
        },
        {
          "internalType": "uint256[]",
          "name": "_APRs",
          "type": "uint256[]"
        }
      ],
      "name": "getAPR",
      "outputs": [
        {
          "internalType": "uint256",
          "name": "",
          "type": "uint256"
        }
      ],
      "stateMutability": "pure",
      "type": "function"
    },
    {
      "inputs": [],
      "name": "getAPR1",
      "outputs": [
        {
          "internalType": "uint256",
          "name": "",
          "type": "uint256"
        }
      ],
      "stateMutability": "view",
      "type": "function"
    },
    {
      "inputs": [
        {
          "internalType": "bytes",
          "name": "result",
          "type": "bytes"
        },
        {
          "internalType": "bytes",
          "name": "extraData",
          "type": "bytes"
        }
      ],
      "name": "getAPR1WithSig",
      "outputs": [
        {
          "internalType": "uint256",
          "name": "",
          "type": "uint256"
        }
      ],
      "stateMutability": "view",
      "type": "function"
    },
    {
      "inputs": [
        {
          "internalType": "uint256[]",
          "name": "_allPoolInUSDs",
          "type": "uint256[]"
        }
      ],
      "name": "getAllPoolInUSD",
      "outputs": [
        {
          "internalType": "uint256",
          "name": "",
          "type": "uint256"
        }
      ],
      "stateMutability": "pure",
      "type": "function"
    },
    {
      "inputs": [],
      "name": "getAllPoolInUSD1",
      "outputs": [
        {
          "internalType": "uint256",
          "name": "",
          "type": "uint256"
        }
      ],
      "stateMutability": "view",
      "type": "function"
    },
    {
      "inputs": [
        {
          "internalType": "bytes",
          "name": "result",
          "type": "bytes"
        },
        {
          "internalType": "bytes",
          "name": "extraData",
          "type": "bytes"
        }
      ],
      "name": "getAllPoolInUSD1WithSig",
      "outputs": [
        {
          "internalType": "uint256",
          "name": "",
          "type": "uint256"
        }
      ],
      "stateMutability": "view",
      "type": "function"
    },
    {
      "inputs": [
        {
          "internalType": "uint256",
          "name": "_nonce",
          "type": "uint256"
        }
      ],
      "name": "getAllPoolInUSDAtNonce1",
      "outputs": [
        {
          "internalType": "uint256",
          "name": "",
          "type": "uint256"
        }
      ],
      "stateMutability": "view",
      "type": "function"
    },
    {
      "inputs": [
        {
          "internalType": "uint256[]",
          "name": "_chainIDs",
          "type": "uint256[]"
        },
        {
          "internalType": "address[]",
          "name": "_tokens",
          "type": "address[]"
        },
        {
          "internalType": "uint256[]",
          "name": "_poolInUSDs",
          "type": "uint256[]"
        }
      ],
      "name": "getCurrentTokenCompositionPerc",
      "outputs": [
        {
          "internalType": "uint256[]",
          "name": "",
          "type": "uint256[]"
        },
        {
          "internalType": "address[]",
          "name": "",
          "type": "address[]"
        },
        {
          "internalType": "uint256[]",
          "name": "pools",
          "type": "uint256[]"
        },
        {
          "internalType": "uint256[]",
          "name": "percentages",
          "type": "uint256[]"
        }
      ],
      "stateMutability": "view",
      "type": "function"
    },
    {
      "inputs": [],
      "name": "getCurrentTokenCompositionPerc1",
      "outputs": [
        {
          "internalType": "uint256[]",
          "name": "",
          "type": "uint256[]"
        },
        {
          "internalType": "address[]",
          "name": "",
          "type": "address[]"
        },
        {
          "internalType": "uint256[]",
          "name": "",
          "type": "uint256[]"
        },
        {
          "internalType": "uint256[]",
          "name": "",
          "type": "uint256[]"
        }
      ],
      "stateMutability": "view",
      "type": "function"
    },
    {
      "inputs": [
        {
          "internalType": "bytes",
          "name": "result",
          "type": "bytes"
        },
        {
          "internalType": "bytes",
          "name": "extraData",
          "type": "bytes"
        }
      ],
      "name": "getCurrentTokenCompositionPercWithSig",
      "outputs": [
        {
          "internalType": "uint256[]",
          "name": "",
          "type": "uint256[]"
        },
        {
          "internalType": "address[]",
          "name": "",
          "type": "address[]"
        },
        {
          "internalType": "uint256[]",
          "name": "",
          "type": "uint256[]"
        },
        {
          "internalType": "uint256[]",
          "name": "",
          "type": "uint256[]"
        }
      ],
      "stateMutability": "view",
      "type": "function"
    },
    {
      "inputs": [
        {
          "internalType": "uint256[]",
          "name": "_chainIDs",
          "type": "uint256[]"
        },
        {
          "internalType": "address[]",
          "name": "_tokens",
          "type": "address[]"
        },
        {
          "internalType": "uint256[]",
          "name": "_poolInUSDs",
          "type": "uint256[]"
        },
        {
          "internalType": "uint256",
          "name": "_USDT6Amt",
          "type": "uint256"
        }
      ],
      "name": "getDepositTokenComposition",
      "outputs": [
        {
          "internalType": "uint256[]",
          "name": "",
          "type": "uint256[]"
        },
        {
          "internalType": "address[]",
          "name": "",
          "type": "address[]"
        },
        {
          "internalType": "uint256[]",
          "name": "_USDT6Amts",
          "type": "uint256[]"
        }
      ],
      "stateMutability": "view",
      "type": "function"
    },
    {
      "inputs": [
        {
          "internalType": "uint256",
          "name": "_USDT6Amt",
          "type": "uint256"
        }
      ],
      "name": "getDepositTokenComposition1",
      "outputs": [
        {
          "internalType": "uint256[]",
          "name": "",
          "type": "uint256[]"
        },
        {
          "internalType": "address[]",
          "name": "",
          "type": "address[]"
        },
        {
          "internalType": "uint256[]",
          "name": "",
          "type": "uint256[]"
        }
      ],
      "stateMutability": "view",
      "type": "function"
    },
    {
      "inputs": [
        {
          "internalType": "bytes",
          "name": "result",
          "type": "bytes"
        },
        {
          "internalType": "bytes",
          "name": "extraData",
          "type": "bytes"
        }
      ],
      "name": "getDepositTokenComposition1WithSig",
      "outputs": [
        {
          "internalType": "uint256[]",
          "name": "",
          "type": "uint256[]"
        },
        {
          "internalType": "address[]",
          "name": "",
          "type": "address[]"
        },
        {
          "internalType": "uint256[]",
          "name": "",
          "type": "uint256[]"
        }
      ],
      "stateMutability": "view",
      "type": "function"
    },
    {
      "inputs": [],
      "name": "getNonce",
      "outputs": [
        {
          "internalType": "uint256",
          "name": "",
          "type": "uint256"
        }
      ],
      "stateMutability": "view",
      "type": "function"
    },
    {
      "inputs": [
        {
          "internalType": "uint256",
          "name": "_nonce",
          "type": "uint256"
        }
      ],
      "name": "getOperation",
      "outputs": [
        {
          "components": [
            {
              "internalType": "address",
              "name": "account",
              "type": "address"
            },
            {
              "internalType": "enum STIMinter.OperationType",
              "name": "operation",
              "type": "uint8"
            },
            {
              "internalType": "bool",
              "name": "done",
              "type": "bool"
            },
            {
              "internalType": "uint256",
              "name": "pool",
              "type": "uint256"
            },
            {
              "internalType": "uint256",
              "name": "amount",
              "type": "uint256"
            }
          ],
          "internalType": "struct STIMinter.Operation",
          "name": "",
          "type": "tuple"
        }
      ],
      "stateMutability": "view",
      "type": "function"
    },
    {
      "inputs": [
        {
          "internalType": "address",
          "name": "_account",
          "type": "address"
        }
      ],
      "name": "getPoolsUnbonded1",
      "outputs": [
        {
          "internalType": "uint256[]",
          "name": "",
          "type": "uint256[]"
        },
        {
          "internalType": "address[]",
          "name": "",
          "type": "address[]"
        },
        {
          "internalType": "uint256[]",
          "name": "",
          "type": "uint256[]"
        },
        {
          "internalType": "uint256[]",
          "name": "",
          "type": "uint256[]"
        },
        {
          "internalType": "uint256[]",
          "name": "",
          "type": "uint256[]"
        },
        {
          "internalType": "uint256[]",
          "name": "",
          "type": "uint256[]"
        },
        {
          "internalType": "uint256[]",
          "name": "",
          "type": "uint256[]"
        }
      ],
      "stateMutability": "view",
      "type": "function"
    },
    {
      "inputs": [
        {
          "internalType": "bytes",
          "name": "result",
          "type": "bytes"
        },
        {
          "internalType": "bytes",
          "name": "",
          "type": "bytes"
        }
      ],
      "name": "getPoolsUnbonded1WithSig",
      "outputs": [
        {
          "internalType": "uint256[]",
          "name": "_chainIDs",
          "type": "uint256[]"
        },
        {
          "internalType": "address[]",
          "name": "_tokens",
          "type": "address[]"
        },
        {
          "internalType": "uint256[]",
          "name": "_waitings",
          "type": "uint256[]"
        },
        {
          "internalType": "uint256[]",
          "name": "_waitingInUSDs",
          "type": "uint256[]"
        },
        {
          "internalType": "uint256[]",
          "name": "_unbondeds",
          "type": "uint256[]"
        },
        {
          "internalType": "uint256[]",
          "name": "_unbondedInUSDs",
          "type": "uint256[]"
        },
        {
          "internalType": "uint256[]",
          "name": "_waitForTses",
          "type": "uint256[]"
        }
      ],
      "stateMutability": "view",
      "type": "function"
    },
    {
      "inputs": [
        {
          "internalType": "uint256[]",
          "name": "_allPoolInUSDs",
          "type": "uint256[]"
        }
      ],
      "name": "getPricePerFullShare",
      "outputs": [
        {
          "internalType": "uint256",
          "name": "",
          "type": "uint256"
        }
      ],
      "stateMutability": "view",
      "type": "function"
    },
    {
      "inputs": [],
      "name": "getPricePerFullShare1",
      "outputs": [
        {
          "internalType": "uint256",
          "name": "",
          "type": "uint256"
        }
      ],
      "stateMutability": "view",
      "type": "function"
    },
    {
      "inputs": [
        {
          "internalType": "bytes",
          "name": "result",
          "type": "bytes"
        },
        {
          "internalType": "bytes",
          "name": "extraData",
          "type": "bytes"
        }
      ],
      "name": "getPricePerFullShare1WithSig",
      "outputs": [
        {
          "internalType": "uint256",
          "name": "",
          "type": "uint256"
        }
      ],
      "stateMutability": "view",
      "type": "function"
    },
    {
      "inputs": [
        {
          "internalType": "bytes32",
          "name": "role",
          "type": "bytes32"
        }
      ],
      "name": "getRoleAdmin",
      "outputs": [
        {
          "internalType": "bytes32",
          "name": "",
          "type": "bytes32"
        }
      ],
      "stateMutability": "view",
      "type": "function"
    },
    {
      "inputs": [
        {
          "internalType": "bytes32",
          "name": "role",
          "type": "bytes32"
        },
        {
          "internalType": "uint256",
          "name": "index",
          "type": "uint256"
        }
      ],
      "name": "getRoleMember",
      "outputs": [
        {
          "internalType": "address",
          "name": "",
          "type": "address"
        }
      ],
      "stateMutability": "view",
      "type": "function"
    },
    {
      "inputs": [
        {
          "internalType": "bytes32",
          "name": "role",
          "type": "bytes32"
        }
      ],
      "name": "getRoleMemberCount",
      "outputs": [
        {
          "internalType": "uint256",
          "name": "",
          "type": "uint256"
        }
      ],
      "stateMutability": "view",
      "type": "function"
    },
    {
      "inputs": [],
      "name": "getUSDTPriceInUSD",
      "outputs": [
        {
          "internalType": "uint256",
          "name": "",
          "type": "uint256"
        },
        {
          "internalType": "uint8",
          "name": "",
          "type": "uint8"
        }
      ],
      "stateMutability": "view",
      "type": "function"
    },
    {
      "inputs": [
        {
          "internalType": "address",
          "name": "_account",
          "type": "address"
        },
        {
          "internalType": "uint256",
          "name": "_share",
          "type": "uint256"
        }
      ],
      "name": "getWithdrawPerc",
      "outputs": [
        {
          "internalType": "uint256",
          "name": "_sharePerc",
          "type": "uint256"
        }
      ],
      "stateMutability": "view",
      "type": "function"
    },
    {
      "inputs": [],
      "name": "getWithdrawableSharePerc1",
      "outputs": [
        {
          "internalType": "uint256",
          "name": "",
          "type": "uint256"
        }
      ],
      "stateMutability": "view",
      "type": "function"
    },
    {
      "inputs": [
        {
          "internalType": "bytes",
          "name": "result",
          "type": "bytes"
        },
        {
          "internalType": "bytes",
          "name": "extraData",
          "type": "bytes"
        }
      ],
      "name": "getWithdrawableSharePerc1WithSig",
      "outputs": [
        {
          "internalType": "uint256",
          "name": "_sharePerc",
          "type": "uint256"
        }
      ],
      "stateMutability": "view",
      "type": "function"
    },
    {
      "inputs": [
        {
          "internalType": "bytes32",
          "name": "role",
          "type": "bytes32"
        },
        {
          "internalType": "address",
          "name": "account",
          "type": "address"
        }
      ],
      "name": "grantRole",
      "outputs": [],
      "stateMutability": "nonpayable",
      "type": "function"
    },
    {
      "inputs": [
        {
          "internalType": "bytes32",
          "name": "role",
          "type": "bytes32"
        },
        {
          "internalType": "address",
          "name": "account",
          "type": "address"
        }
      ],
      "name": "hasRole",
      "outputs": [
        {
          "internalType": "bool",
          "name": "",
          "type": "bool"
        }
      ],
      "stateMutability": "view",
      "type": "function"
    },
    {
      "inputs": [
        {
          "internalType": "address",
          "name": "_account",
          "type": "address"
        },
        {
          "internalType": "uint256",
          "name": "_pool",
          "type": "uint256"
        },
        {
          "internalType": "uint256",
          "name": "_USDT6Amt",
          "type": "uint256"
        }
      ],
      "name": "initDepositByAdmin",
      "outputs": [],
      "stateMutability": "nonpayable",
      "type": "function"
    },
    {
      "inputs": [
        {
          "internalType": "address",
          "name": "_admin",
          "type": "address"
        },
        {
          "internalType": "address",
          "name": "_userAgent",
          "type": "address"
        },
        {
          "internalType": "address",
          "name": "_biconomy",
          "type": "address"
        },
        {
          "internalType": "address",
          "name": "_STI",
          "type": "address"
        },
        {
          "internalType": "address",
          "name": "_priceOracle",
          "type": "address"
        }
      ],
      "name": "initialize",
      "outputs": [],
      "stateMutability": "nonpayable",
      "type": "function"
    },
    {
      "inputs": [
        {
          "internalType": "address",
          "name": "forwarder",
          "type": "address"
        }
      ],
      "name": "isTrustedForwarder",
      "outputs": [
        {
          "internalType": "bool",
          "name": "",
          "type": "bool"
        }
      ],
      "stateMutability": "view",
      "type": "function"
    },
    {
      "inputs": [
        {
          "internalType": "address",
          "name": "_account",
          "type": "address"
        },
        {
          "internalType": "uint256",
          "name": "_USDT6Amt",
          "type": "uint256"
        }
      ],
      "name": "mintByAdmin",
      "outputs": [],
      "stateMutability": "nonpayable",
      "type": "function"
    },
    {
      "inputs": [
        {
          "internalType": "uint256",
          "name": "",
          "type": "uint256"
        }
      ],
      "name": "operations",
      "outputs": [
        {
          "internalType": "address",
          "name": "account",
          "type": "address"
        },
        {
          "internalType": "enum STIMinter.OperationType",
          "name": "operation",
          "type": "uint8"
        },
        {
          "internalType": "bool",
          "name": "done",
          "type": "bool"
        },
        {
          "internalType": "uint256",
          "name": "pool",
          "type": "uint256"
        },
        {
          "internalType": "uint256",
          "name": "amount",
          "type": "uint256"
        }
      ],
      "stateMutability": "view",
      "type": "function"
    },
    {
      "inputs": [],
      "name": "owner",
      "outputs": [
        {
          "internalType": "address",
          "name": "",
          "type": "address"
        }
      ],
      "stateMutability": "view",
      "type": "function"
    },
    {
      "inputs": [],
      "name": "paused",
      "outputs": [
        {
          "internalType": "bool",
          "name": "",
          "type": "bool"
        }
      ],
      "stateMutability": "view",
      "type": "function"
    },
    {
      "inputs": [],
      "name": "priceOracle",
      "outputs": [
        {
          "internalType": "contract IPriceOracle",
          "name": "",
          "type": "address"
        }
      ],
      "stateMutability": "view",
      "type": "function"
    },
    {
      "inputs": [
        {
          "internalType": "uint256",
          "name": "_tid",
          "type": "uint256"
        }
      ],
      "name": "removeToken",
      "outputs": [],
      "stateMutability": "nonpayable",
      "type": "function"
    },
    {
      "inputs": [],
      "name": "renounceOwnership",
      "outputs": [],
      "stateMutability": "nonpayable",
      "type": "function"
    },
    {
      "inputs": [
        {
          "internalType": "bytes32",
          "name": "role",
          "type": "bytes32"
        },
        {
          "internalType": "address",
          "name": "account",
          "type": "address"
        }
      ],
      "name": "renounceRole",
      "outputs": [],
      "stateMutability": "nonpayable",
      "type": "function"
    },
    {
      "inputs": [
        {
          "internalType": "bytes32",
          "name": "role",
          "type": "bytes32"
        },
        {
          "internalType": "address",
          "name": "account",
          "type": "address"
        }
      ],
      "name": "revokeRole",
      "outputs": [],
      "stateMutability": "nonpayable",
      "type": "function"
    },
    {
      "inputs": [
        {
          "internalType": "address",
          "name": "_admin",
          "type": "address"
        }
      ],
      "name": "setAdmin",
      "outputs": [],
      "stateMutability": "nonpayable",
      "type": "function"
    },
    {
      "inputs": [
        {
          "internalType": "address",
          "name": "_biconomy",
          "type": "address"
        }
      ],
      "name": "setBiconomy",
      "outputs": [],
      "stateMutability": "nonpayable",
      "type": "function"
    },
    {
      "inputs": [
        {
          "internalType": "address",
          "name": "_signer",
          "type": "address"
        }
      ],
      "name": "setGatewaySigner",
      "outputs": [],
      "stateMutability": "nonpayable",
      "type": "function"
    },
    {
      "inputs": [
        {
          "internalType": "uint256[]",
          "name": "_targetPerc",
          "type": "uint256[]"
        }
      ],
      "name": "setTokenCompositionTargetPerc",
      "outputs": [],
      "stateMutability": "nonpayable",
      "type": "function"
    },
    {
      "inputs": [
        {
          "internalType": "string[]",
          "name": "_urls",
          "type": "string[]"
        }
      ],
      "name": "setUrls",
      "outputs": [],
      "stateMutability": "nonpayable",
      "type": "function"
    },
    {
      "inputs": [
        {
          "internalType": "address",
          "name": "_userAgent",
          "type": "address"
        }
      ],
      "name": "setUserAgent",
      "outputs": [],
      "stateMutability": "nonpayable",
      "type": "function"
    },
    {
      "inputs": [
        {
          "internalType": "bytes4",
          "name": "interfaceId",
          "type": "bytes4"
        }
      ],
      "name": "supportsInterface",
      "outputs": [
        {
          "internalType": "bool",
          "name": "",
          "type": "bool"
        }
      ],
      "stateMutability": "view",
      "type": "function"
    },
    {
      "inputs": [
        {
          "internalType": "uint256",
          "name": "",
          "type": "uint256"
        }
      ],
      "name": "targetPercentages",
      "outputs": [
        {
          "internalType": "uint256",
          "name": "",
          "type": "uint256"
        }
      ],
      "stateMutability": "view",
      "type": "function"
    },
    {
      "inputs": [
        {
          "internalType": "uint256",
          "name": "",
          "type": "uint256"
        },
        {
          "internalType": "address",
          "name": "",
          "type": "address"
        }
      ],
      "name": "tid",
      "outputs": [
        {
          "internalType": "uint256",
          "name": "",
          "type": "uint256"
        }
      ],
      "stateMutability": "view",
      "type": "function"
    },
    {
      "inputs": [
        {
          "internalType": "uint256",
          "name": "",
          "type": "uint256"
        }
      ],
      "name": "tokens",
      "outputs": [
        {
          "internalType": "address",
          "name": "",
          "type": "address"
        }
      ],
      "stateMutability": "view",
      "type": "function"
    },
    {
      "inputs": [
        {
          "internalType": "address",
          "name": "newOwner",
          "type": "address"
        }
      ],
      "name": "transferOwnership",
      "outputs": [],
      "stateMutability": "nonpayable",
      "type": "function"
    },
    {
      "inputs": [],
      "name": "trustedForwarder",
      "outputs": [
        {
          "internalType": "address",
          "name": "",
          "type": "address"
        }
      ],
      "stateMutability": "view",
      "type": "function"
    },
    {
      "inputs": [
        {
          "internalType": "uint256",
          "name": "",
          "type": "uint256"
        }
      ],
      "name": "urls",
      "outputs": [
        {
          "internalType": "string",
          "name": "",
          "type": "string"
        }
      ],
      "stateMutability": "view",
      "type": "function"
    },
    {
      "inputs": [],
      "name": "userAgent",
      "outputs": [
        {
          "internalType": "address",
          "name": "",
          "type": "address"
        }
      ],
      "stateMutability": "view",
      "type": "function"
    },
    {
      "inputs": [
        {
          "internalType": "address",
          "name": "",
          "type": "address"
        }
      ],
      "name": "userLastOperationNonce",
      "outputs": [
        {
          "internalType": "uint256",
          "name": "",
          "type": "uint256"
        }
      ],
      "stateMutability": "view",
      "type": "function"
    },
    {
      "inputs": [],
      "name": "versionRecipient",
      "outputs": [
        {
          "internalType": "string",
          "name": "",
          "type": "string"
        }
      ],
      "stateMutability": "pure",
      "type": "function"
    }
  ],
  "transactionHash": "0xcffac6ea85a6ea32d821d22468178cecc447d7342bff8052bc1be91d3de98d1e",
  "args": [],
  "numDeployments": 3,
  "solcInputHash": "2face7f9beeeea4447cebaabd4723e5c",
  "bytecode": "0x608060405234801561001057600080fd5b5061549f806100206000396000f3fe608060405234801561001057600080fd5b50600436106103e65760003560e01c80637ed66ec61161020a578063b47c6a2711610125578063da3bc85c116100b8578063f2fde38b11610087578063f2fde38b1461090f578063f3253c6314610922578063f77de48614610936578063f851a44014610949578063fd6878cc1461095d57600080fd5b8063da3bc85c146108ce578063dd8aae41146108e1578063e629f7b3146108f4578063ece90e901461090757600080fd5b8063cb25bb65116100f4578063cb25bb651461088c578063d087d2881461089f578063d3b974a0146108a8578063d547741f146108bb57600080fd5b8063b47c6a2714610833578063b9bd5bb514610852578063bdf1c4a114610865578063ca15c8731461087957600080fd5b80639ecb6fae1161019d578063a7645a201161016c578063a7645a20146107e1578063af05a749146107f4578063af3da2f4146107fc578063b2e9949d1461080f57600080fd5b80639ecb6fae146107a05780639f86d4dd146107b3578063a08ce520146107c6578063a217fddf146107d957600080fd5b806391d14854116101d957806391d14854146107535780639532a433146107665780639600abf91461077a57806397cd02e61461078d57600080fd5b80637ed66ec6146107095780637fb2df421461071c5780638da5cb5b1461072f5780639010d07c1461074057600080fd5b8063486ff0cd116103055780635796d0b011610298578063704b6c0211610267578063704b6c02146106b3578063715018a6146106c657806375b238fc146106ce578063796676be146106e35780637da0a877146106f657600080fd5b80635796d0b0146106735780635c975abb1461067b5780636628f9451461068d5780636cc895a9146106a057600080fd5b80635344cac9116102d45780635344cac9146106055780635605af2c1461062b57806357016b0a1461063e578063572b6c051461065157600080fd5b8063486ff0cd146105a257806349445553146105c85780634f64b2be146105ea5780635042f9b6146105fd57600080fd5b8063248a9ca31161037d57806336c5d7241161034c57806336c5d7241461054657806338a871631461055957806340b8e57f1461057c57806343a463c71461058f57600080fd5b8063248a9ca3146104d15780632630c12f146104f45780632f2ff15d1461052057806336568abe1461053357600080fd5b8063193ab102116103b9578063193ab1021461045c57806319dac5af146104645780631c60ffc314610485578063202e3924146104b157600080fd5b806301ffc9a7146103eb57806309d23e24146104135780630d8b76a8146104345780631459457a14610449575b600080fd5b6103fe6103f9366004614233565b610970565b60405190151581526020015b60405180910390f35b61042661042136600461425d565b61099b565b60405190815260200161040a565b61044761044236600461428d565b6109bd565b005b6104476104573660046142a8565b610a31565b610426610d9c565b61042661047236600461428d565b6101376020526000908152604090205481565b61042661049336600461430d565b61013060209081526000928352604080842090915290825290205481565b6104c46104bf36600461425d565b610e0f565b60405161040a9190614371565b6104266104df36600461425d565b60009081526065602052604090206001015490565b61013354610508906001600160a01b031681565b6040516001600160a01b03909116815260200161040a565b61044761052e36600461430d565b610ee8565b61044761054136600461430d565b610f12565b61044761055436600461425d565b610fa0565b61056c6105673660046143fd565b6112a9565b60405161040a94939291906144dc565b61042661058a3660046143fd565b6113a4565b61044761059d366004614534565b61141c565b6040805180820190915260018152603160f81b60208201525b60405161040a91906145bf565b6105db6105d636600461425d565b611494565b60405161040a939291906145d2565b6105086105f836600461425d565b6114e2565b61042661150d565b61061861061336600461428d565b611559565b60405161040a979695949392919061460b565b6104266106393660046143fd565b6115ea565b61044761064c36600461430d565b6116c7565b6103fe61065f36600461428d565b60c9546001600160a01b0391821691161490565b61056c6118e3565b60c954600160a01b900460ff166103fe565b61044761069b36600461428d565b611937565b6104476106ae366004614762565b6119e7565b6104476106c136600461428d565b611a44565b610447611af4565b61042660008051602061544a83398151915281565b6105bb6106f136600461425d565b611b49565b60c954610508906001600160a01b031681565b6105db6107173660046143fd565b611bf6565b61044761072a36600461482c565b611c91565b60fb546001600160a01b0316610508565b61050861074e3660046148a0565b611de1565b6103fe61076136600461430d565b611e00565b61013254610508906001600160a01b031681565b6106186107883660046143fd565b611e2b565b61042661079b366004614928565b611f61565b6104266107ae36600461425d565b612028565b6104266107c1366004614964565b612098565b6104266107d43660046143fd565b612203565b610426600081565b6104266107ef36600461425d565b612274565b610426612285565b61044761080a366004614964565b6122d1565b61082261081d36600461425d565b612508565b60405161040a95949392919061498e565b61083b61255c565b6040805192835260ff90911660208301520161040a565b61044761086036600461428d565b6125f8565b61013854610508906001600160a01b031681565b61042661088736600461425d565b612664565b61056c61089a366004614a29565b61267b565b61013654610426565b6105db6108b6366004614ab0565b61287c565b6104476108c936600461430d565b612bb6565b6104266108dc366004614b3f565b612bdb565b6104266108ef366004614928565b612cc4565b610447610902366004614534565b612d15565b610426612ead565b61044761091d36600461428d565b612ef9565b61013554610508906001600160a01b031681565b61044761094436600461428d565b612f84565b61013154610508906001600160a01b031681565b61042661096b3660046143fd565b612fa7565b60006001600160e01b03198216635a05180f60e01b148061099557506109958261300c565b92915050565b61012d81815481106109ac57600080fd5b600091825260209091200154905081565b6109c5613041565b6001600160a01b03166109e060fb546001600160a01b031690565b6001600160a01b031614610a0f5760405162461bcd60e51b8152600401610a0690614ba2565b60405180910390fd5b60c980546001600160a01b0319166001600160a01b0392909216919091179055565b6000610a3d6001613050565b90508015610a55576000805461ff0019166101001790555b610a5d6130dd565b6000610a7160fb546001600160a01b031690565b61013180546001600160a01b03808b166001600160a01b0319928316179092556101388054928a16929091169190911790559050610ab060008261310c565b610ac860008051602061544a8339815191528861310c565b610ae060008051602061544a8339815191528761310c565b60c980546001600160a01b038088166001600160a01b031992831617909255610132805487841690831617905561013380549286169282169290921790915561012d80546001818101835560047f193a3ae4da5049eb74cee39e4cf5827f7ce7b1d1d1775ef1c6311eb60558e6d592830181905561012e805480840182557fbdaadd9f750d0166045bf387a364eadd28ba243e04512a47282aa5147a68e37f9081018054881673eeeeeeeeeeeeeeeeeeeeeeeeeeeeeeeeeeeeeeee9081179091558654808601885586019390935581548085018355810180548816737d1afa7b718fb893db30a3abc0cfc608aacfebb01790558554808501875560619086015581548085018355810180548816841790558554808501875561a86990860155815480850183558101805488169093179092558454808401909555634e4541539490930193909355815480820190925591018054909216734861825e75ab14553e5af711ebbe6873d369d1461790915561012f8054808301825560008290526107d07f232da9e50dad2971456a78fb5cd6ff6b75019984d6e918139ce990999420f97991820181905582548085018455820181905582548085018455820181905582548085018455820181905582549384019092559190910155610cc1613116565b610134805460018101825560009190915260408051808201909152601680825275687474703a2f2f6c6f63616c686f73743a383030312f60501b6020909201918252610d30927fe1c588fe1269da19c317f679b04e226f5e48296f9b2c8351127eb010907c472f0191906140ea565b505061013580546001600160a01b0319166001600160a01b0388161790558015610d94576000805461ff0019169055604051600181527f7f26b83ff96e1f2b6a682f133852f6798a09c465da95921460cefb38474024989060200160405180910390a15b505050505050565b6040805160048152602481018252602080820180516001600160e01b0316630c9d588160e11b17905282516000918101829052909230926101349290916315816bcb60e21b91015b60408051601f1981840301815290829052630556f18360e41b8252610a069594939291600401614c12565b6040805160a081018252600080825260208201819052918101829052606081018290526080810191909152610136610e48600184614d55565b81548110610e5857610e58614d6c565b60009182526020918290206040805160a0810190915260039092020180546001600160a01b0381168352919290919083019060ff600160a01b909104166002811115610ea657610ea6614339565b6002811115610eb757610eb7614339565b81528154600160a81b900460ff16151560208201526001820154604082015260029091015460609091015292915050565b600082815260656020526040902060010154610f038161325c565b610f0d838361326d565b505050565b610f1a613041565b6001600160a01b0316816001600160a01b031614610f925760405162461bcd60e51b815260206004820152602f60248201527f416363657373436f6e74726f6c3a2063616e206f6e6c792072656e6f756e636560448201526e103937b632b9903337b91039b2b63360891b6064820152608401610a06565b610f9c828261328f565b5050565b610fa8613041565b6001600160a01b0316610fc360fb546001600160a01b031690565b6001600160a01b031614610fe95760405162461bcd60e51b8152600401610a0690614ba2565b61012e5480821061102a5760405162461bcd60e51b815260206004820152600b60248201526a125b9d985b1a59081d1a5960aa1b6044820152606401610a06565b600061012d838154811061104057611040614d6c565b90600052602060002001549050600061012e848154811061106357611063614d6c565b600091825260208220015461012f80546001600160a01b039092169350908690811061109157611091614d6c565b9060005260206000200154905061012d6001856110ae9190614d55565b815481106110be576110be614d6c565b906000526020600020015461012d86815481106110dd576110dd614d6c565b60009182526020909120015561012d8054806110fb576110fb614d82565b6001900381819060005260206000200160009055905561012e6001856111219190614d55565b8154811061113157611131614d6c565b60009182526020909120015461012e80546001600160a01b03909216918790811061115e5761115e614d6c565b9060005260206000200160006101000a8154816001600160a01b0302191690836001600160a01b0316021790555061012e80548061119e5761119e614d82565b600082815260209020810160001990810180546001600160a01b031916905501905561012f6111ce600186614d55565b815481106111de576111de614d6c565b906000526020600020015461012f86815481106111fd576111fd614d6c565b60009182526020909120015561012f80548061121b5761121b614d82565b600082815260208082208301600019908101839055909201909255848252610130815260408083206001600160a01b038616845290915281205561125d613116565b84826001600160a01b0316847fd8cc1d279bf727e9ee02c4ed116f7c12f4965ace9b477482de71a7929a1871b38460405161129a91815260200190565b60405180910390a45050505050565b606080808060008080806112bf8b8d018d614db8565b93509350935093506000611350828686866040516020016112e293929190614eb7565b60408051601f198184030181529082905280516020918201207f19457468657265756d205369676e6564204d6573736167653a0a33320000000091830191909152603c820152605c015b604051602081830303815290604052805190602001206132b190919063ffffffff16565b610135549091506001600160a01b038083169116146113815760405162461bcd60e51b8152600401610a0690614ede565b61138c85858561267b565b98509850985098505050505050945094509450949050565b60008080806113b587890189614f0b565b92509250925060006113d48285856040516020016112e2929190614f88565b610135549091506001600160a01b038083169116146114055760405162461bcd60e51b8152600401610a0690614ede565b61140f8484612bdb565b9998505050505050505050565b60008051602061544a8339815191526114348161325c565b60c954600160a01b900460ff16156114815760405162461bcd60e51b815260206004820152601060248201526f14185d5cd8589b194e881c185d5cd95960821b6044820152606401610a06565b61148e84600185856132cd565b50505050565b6040805160048152602481018252602080820180516001600160e01b0316633c1d708960e01b17905282519081018490526060928392839230926101349291633f6b376360e11b9101610de4565b61012e81815481106114f357600080fd5b6000918252602090912001546001600160a01b0316905081565b6040805160048152602481018252602080820180516001600160e01b03166328217cdb60e11b1790528251600091810182905290923092610134929091630504672960e51b9101610de4565b606080606080606080606030610134635344cac960e01b8a60405160240161159091906001600160a01b0391909116815260200190565b60408051601f19818403018152918152602080830180516001600160e01b03166001600160e01b031990951694909417909352519091639600abf960e01b91610de4918e91016001600160a01b0391909116815260200190565b60008080806115fb87890189614f0b565b925092509250600061161a8285856040516020016112e2929190614f88565b610135549091506001600160a01b0380831691161461164b5760405162461bcd60e51b8152600401610a0690614ede565b82518015611671578360008151811061166657611666614d6c565b602002602001015195505b60015b818110156116b957600085828151811061169057611690614d6c565b60200260200101519050808811156116a6578097505b50806116b181614f97565b915050611674565b505050505050949350505050565b6116cf613041565b6001600160a01b03166116ea60fb546001600160a01b031690565b6001600160a01b0316146117105760405162461bcd60e51b8152600401610a0690614ba2565b6000828152610130602090815260408083206001600160a01b038516845290915290205480158015611761575061012d60008154811061175257611752614d6c565b90600052602060002001548314155b8015611799575061012e60008154811061177d5761177d614d6c565b6000918252602090912001546001600160a01b03838116911614155b6117d55760405162461bcd60e51b815260206004820152600d60248201526c105b1c9958591e481859191959609a1b6044820152606401610a06565b61012d805460018082019092557f193a3ae4da5049eb74cee39e4cf5827f7ce7b1d1d1775ef1c6311eb60558e6d50184905561012e805480830182557fbdaadd9f750d0166045bf387a364eadd28ba243e04512a47282aa5147a68e37f0180546001600160a01b0319166001600160a01b03861617905561012f8054808401825560009182527f232da9e50dad2971456a78fb5cd6ff6b75019984d6e918139ce990999420f9790155546118899190614d55565b6000848152610130602090815260408083206001600160a01b0387168085529252808320849055519293508392909186917fefa15d4fefbb71d07b3cdc624ab208ebe2d3b6933946582fd8b807e8a5bc93cc9190a4505050565b6040805160048152602481018252602080820180516001600160e01b03166305796d0b60e41b179052825160009181019190915260609283928392839230926101349290916338a8716360e01b9101610de4565b61193f613041565b6001600160a01b031661195a60fb546001600160a01b031690565b6001600160a01b0316146119805760405162461bcd60e51b8152600401610a0690614ba2565b610138546001600160a01b031680156119ab576119ab60008051602061544a8339815191528261328f565b61013880546001600160a01b0319166001600160a01b03841690811790915515610f9c57610f9c60008051602061544a8339815191528361310c565b6119ef613041565b6001600160a01b0316611a0a60fb546001600160a01b031690565b6001600160a01b031614611a305760405162461bcd60e51b8152600401610a0690614ba2565b8051610f9c9061013490602084019061416e565b611a4c613041565b6001600160a01b0316611a6760fb546001600160a01b031690565b6001600160a01b031614611a8d5760405162461bcd60e51b8152600401610a0690614ba2565b610131546001600160a01b03168015611ab857611ab860008051602061544a8339815191528261328f565b61013180546001600160a01b0319166001600160a01b03841690811790915515610f9c57610f9c60008051602061544a8339815191528361310c565b611afc613041565b6001600160a01b0316611b1760fb546001600160a01b031690565b6001600160a01b031614611b3d5760405162461bcd60e51b8152600401610a0690614ba2565b611b4760006134a3565b565b6101348181548110611b5a57600080fd5b906000526020600020016000915090508054611b7590614bd7565b80601f0160208091040260200160405190810160405280929190818152602001828054611ba190614bd7565b8015611bee5780601f10611bc357610100808354040283529160200191611bee565b820191906000526020600020905b815481529060010190602001808311611bd157829003601f168201915b505050505081565b606080806000611c088587018761425d565b90506000808080611c1b8b8d018d614db8565b93509350935093506000611c3e828686866040516020016112e293929190614eb7565b610135549091506001600160a01b03808316911614611c6f5760405162461bcd60e51b8152600401610a0690614ede565b611c7b8585858961287c565b9850985098505050505050509450945094915050565b611c99613041565b6001600160a01b0316611cb460fb546001600160a01b031690565b6001600160a01b031614611cda5760405162461bcd60e51b8152600401610a0690614ba2565b61012f5481908114611d1e5760405162461bcd60e51b815260206004820152600d60248201526c125b9d985b1a590818dbdd5b9d609a1b6044820152606401610a06565b6000805b82811015611d9b57848482818110611d3c57611d3c614d6c565b9050602002013561012f8281548110611d5757611d57614d6c565b600091825260209091200155848482818110611d7557611d75614d6c565b9050602002013582611d879190614fb2565b915080611d9381614f97565b915050611d22565b50612710811461148e5760405162461bcd60e51b815260206004820152601160248201527024b73b30b634b2103830b930b6b2ba32b960791b6044820152606401610a06565b6000828152609760205260408120611df990836134f5565b9392505050565b60009182526065602090815260408084206001600160a01b0393909316845291905290205460ff1690565b606080808080808080611e408b8d018d614fca565b604051979f50959d50939b509199509750955093509150600090611e72908a908a908a908a908a908a90602001615109565b604051602081830303815290604052805190602001209050600083604051602001611e9d919061513c565b60408051808303601f19018152828252805160209182012081840186905283830181905282518085038401815260608501909352825192909101919091207f19457468657265756d205369676e6564204d6573736167653a0a3332000000006080840152609c830181905290925090600090611f1d90869060bc0161132c565b610135549091506001600160a01b03808316911614611f4e5760405162461bcd60e51b8152600401610a0690614ede565b5050505050949950949992975094509450565b60008061013260009054906101000a90046001600160a01b03166001600160a01b03166318160ddd6040518163ffffffff1660e01b815260040160206040518083038186803b158015611fb357600080fd5b505afa158015611fc7573d6000803e3d6000fd5b505050506040513d601f19601f82011682018060405250810190611feb9190615148565b9050806120025750670de0b6b3a764000092915050565b8061200c84612cc4565b61201e90670de0b6b3a7640000615161565b611df99190615180565b600030610134639ecb6fae60e01b8460405160240161204991815260200190565b60408051601f19818403018152918152602080830180516001600160e01b03166001600160e01b031990951694909417909352519091630504672960e51b91610de49188910190815260200190565b60008160001080156121275750610132546040516370a0823160e01b81526001600160a01b038581166004830152909116906370a082319060240160206040518083038186803b1580156120eb57600080fd5b505afa1580156120ff573d6000803e3d6000fd5b505050506040513d601f19601f820116820180604052508101906121239190615148565b8211155b61216a5760405162461bcd60e51b8152602060048201526014602482015273125b9d985b1a59081cda185c9948185b5bdd5b9d60621b6044820152606401610a06565b61013260009054906101000a90046001600160a01b03166001600160a01b03166318160ddd6040518163ffffffff1660e01b815260040160206040518083038186803b1580156121b957600080fd5b505afa1580156121cd573d6000803e3d6000fd5b505050506040513d601f19601f820116820180604052508101906121f19190615148565b61201e83670de0b6b3a7640000615161565b60008080612213868801886151a2565b91509150600061222e82846040516020016112e2919061513c565b610135549091506001600160a01b0380831691161461225f5760405162461bcd60e51b8152600401610a0690614ede565b61226883612cc4565b98975050505050505050565b61012f81815481106109ac57600080fd5b6040805160048152602481018252602080820180516001600160e01b031663af05a74960e01b1790528251600091810182905290923092610134929091633f5a1e3360e21b9101610de4565b60008051602061544a8339815191526122e98161325c565b60c954600160a01b900460ff16156123365760405162461bcd60e51b815260206004820152601060248201526f14185d5cd8589b194e881c185d5cd95960821b6044820152606401610a06565b6000612343846001613501565b50905060008061235161255c565b9092509050600061236382600a6152df565b836123738864e8d4a51000615161565b61237d9190615161565b6123879190615180565b9050600061013260009054906101000a90046001600160a01b03166001600160a01b03166318160ddd6040518163ffffffff1660e01b815260040160206040518083038186803b1580156123da57600080fd5b505afa1580156123ee573d6000803e3d6000fd5b505050506040513d601f19601f820116820180604052508101906124129190615148565b90506000851580612421575081155b61243f57856124308484615161565b61243a9190615180565b612441565b825b90506103e8612452826103e5615161565b61245c9190615180565b610132546040516340c10f1960e01b81526001600160a01b038c81166004830152602482018490529293509116906340c10f1990604401600060405180830381600087803b1580156124ad57600080fd5b505af11580156124c1573d6000803e3d6000fd5b5050505080838a6001600160a01b03167f4c209b5fc8ad50758f13e2e1088ba56a560dff690a1c6fef26394f4c03821c4f60405160405180910390a4505050505050505050565b610136818154811061251957600080fd5b60009182526020909120600390910201805460018201546002909201546001600160a01b038216935060ff600160a01b8304811693600160a81b90930416919085565b6101335460405163b3596f0760e01b81527378ae2880bd1672b49a33cf796cf53fe6db0ab01d600482015260009182916001600160a01b039091169063b3596f0790602401604080518083038186803b1580156125b857600080fd5b505afa1580156125cc573d6000803e3d6000fd5b505050506040513d601f19601f820116820180604052508101906125f091906152ee565b915091509091565b612600613041565b6001600160a01b031661261b60fb546001600160a01b031690565b6001600160a01b0316146126415760405162461bcd60e51b8152600401610a0690614ba2565b61013580546001600160a01b0319166001600160a01b0392909216919091179055565b60008181526097602052604081206109959061363b565b60608060608061268c878787613645565b80519092506000805b828110156126d6578481815181106126af576126af614d6c565b6020026020010151826126c29190614fb2565b9150806126ce81614f97565b915050612695565b50816001600160401b038111156126ef576126ef6146a2565b604051908082528060200260200182016040528015612718578160200160208202803683370190505b50925060005b828110156127b2578115612763578161271086838151811061274257612742614d6c565b60200260200101516127549190615161565b61275e9190615180565b612783565b61012f818154811061277757612777614d6c565b90600052602060002001545b84828151811061279557612795614d6c565b6020908102919091010152806127aa81614f97565b91505061271e565b5061012d61012e85858380548060200260200160405190810160405280929190818152602001828054801561280657602002820191906000526020600020905b8154815260200190600101908083116127f2575b505050505093508280548060200260200160405190810160405280929190818152602001828054801561286257602002820191906000526020600020905b81546001600160a01b03168152600190910190602001808311612844575b505050505092509550955095509550505093509350935093565b606080606060008061288f89898961267b565b9350935050506000815190506000806128a661255c565b909250905060006128b882600a6152df565b836128c88c64e8d4a51000615161565b6128d29190615161565b6128dc9190615180565b905060005b84811015612922578681815181106128fb576128fb614d6c565b60200260200101518261290e9190614fb2565b91508061291a81614f97565b9150506128e1565b50600080856001600160401b0381111561293e5761293e6146a2565b604051908082528060200260200182016040528015612967578160200160208202803683370190505b50905060005b86811015612a3957600061271061012f838154811061298e5761298e614d6c565b9060005260206000200154866129a49190615161565b6129ae9190615180565b9050808a83815181106129c3576129c3614d6c565b60200260200101511015612a265760008a83815181106129e5576129e5614d6c565b6020026020010151826129f89190614d55565b905080848481518110612a0d57612a0d614d6c565b6020908102919091010152612a228186614fb2565b9450505b5080612a3181614f97565b91505061296d565b50856001600160401b03811115612a5257612a526146a2565b604051908082528060200260200182016040528015612a7b578160200160208202803683370190505b50985060005b86811015612ae85782828281518110612a9c57612a9c614d6c565b60200260200101518e612aaf9190615161565b612ab99190615180565b8a8281518110612acb57612acb614d6c565b602090810291909101015280612ae081614f97565b915050612a81565b5061012d61012e8a82805480602002602001604051908101604052809291908181526020018280548015612b3b57602002820191906000526020600020905b815481526020019060010190808311612b27575b5050505050925081805480602002602001604051908101604052809291908181526020018280548015612b9757602002820191906000526020600020905b81546001600160a01b03168152600190910190602001808311612b79575b505050505091509a509a509a5050505050505050509450945094915050565b600082815260656020526040902060010154612bd18161325c565b610f0d838361328f565b81518151600091908114612c2a5760405162461bcd60e51b815260206004820152601660248201527509cdee840dac2e8c6d040c2e4e4c2f240d8cadccee8d60531b6044820152606401610a06565b6000612c3585612cc4565b905080612c4757600092505050610995565b6000805b83811015612caf57868181518110612c6557612c65614d6c565b6020026020010151868281518110612c7f57612c7f614d6c565b6020026020010151612c919190615161565b612c9b9083614fb2565b915080612ca781614f97565b915050612c4b565b50612cba8282615180565b9695505050505050565b805160009081805b82811015612d0d57848181518110612ce657612ce6614d6c565b602002602001015182612cf99190614fb2565b915080612d0581614f97565b915050612ccc565b509392505050565b60008051602061544a833981519152612d2d8161325c565b816000108015612dba5750610132546040516370a0823160e01b81526001600160a01b038681166004830152909116906370a082319060240160206040518083038186803b158015612d7e57600080fd5b505afa158015612d92573d6000803e3d6000fd5b505050506040513d601f19601f82011682018060405250810190612db69190615148565b8211155b612dfd5760405162461bcd60e51b8152602060048201526014602482015273125b9d985b1a59081cda185c9948185b5bdd5b9d60621b6044820152606401610a06565b612e0a84600285856132cd565b6101325460405163079cc67960e41b81526001600160a01b03868116600483015260248201859052909116906379cc679090604401600060405180830381600087803b158015612e5957600080fd5b505af1158015612e6d573d6000803e3d6000fd5b50506040518492506001600160a01b03871691507fcc16f5dbb4873280815c1ee09dbd06736cffcc184412cf7a71a0fdb75d397ca590600090a350505050565b6040805160048152602481018252602080820180516001600160e01b0316630ece90e960e41b17905282516000918101829052909230926101349290916340b8e57f60e01b9101610de4565b612f01613041565b6001600160a01b0316612f1c60fb546001600160a01b031690565b6001600160a01b031614612f425760405162461bcd60e51b8152600401610a0690614ba2565b612f5e6000612f5960fb546001600160a01b031690565b61328f565b612f67816137d9565b6001600160a01b03811615612f8157612f8160008261310c565b50565b60008051602061544a833981519152612f9c8161325c565b61148e826002613501565b60008080612fb7868801886151a2565b915091506000612fd282846040516020016112e2919061513c565b610135549091506001600160a01b038083169116146130035760405162461bcd60e51b8152600401610a0690614ede565b61226883611f61565b60006001600160e01b03198216637965db0b60e01b148061099557506301ffc9a760e01b6001600160e01b0319831614610995565b600061304b613890565b905090565b60008054610100900460ff1615613097578160ff1660011480156130735750303b155b61308f5760405162461bcd60e51b8152600401610a0690615324565b506000919050565b60005460ff8084169116106130be5760405162461bcd60e51b8152600401610a0690615324565b506000805460ff191660ff92909216919091179055600190565b919050565b600054610100900460ff166131045760405162461bcd60e51b8152600401610a0690615372565b611b476138c4565b610f9c828261326d565b600061012d80548060200260200160405190810160405280929190818152602001828054801561316557602002820191906000526020600020905b815481526020019060010190808311613151575b50505050509050600061012e8054806020026020016040519081016040528092919081815260200182805480156131c557602002820191906000526020600020905b81546001600160a01b031681526001909101906020018083116131a7575b505083519394506000925050505b8181101561148e578061013060008684815181106131f3576131f3614d6c565b60200260200101518152602001908152602001600020600085848151811061321d5761321d614d6c565b60200260200101516001600160a01b03166001600160a01b0316815260200190815260200160002081905550808061325490614f97565b9150506131d3565b612f8181613268613041565b6138fb565b613277828261395f565b6000828152609760205260409020610f0d90826139e6565b61329982826139fb565b6000828152609760205260409020610f0d9082613a80565b60008060006132c08585613a95565b91509150612d0d81613b02565b6001600160a01b03841660009081526101376020526040902054801561334d5760006132f882610e0f565b9050806040015161334b5760405162461bcd60e51b815260206004820152601f60248201527f50726576696f7573206f7065726174696f6e206e6f742066696e6973686564006044820152606401610a06565b505b6101366040518060a00160405280876001600160a01b0316815260200186600281111561337c5761337c614339565b8152600060208083018290526040830188905260609092018690528354600181018555938152819020825160039094020180546001600160a01b039094166001600160a01b031985168117825591830151929390929183916001600160a81b03191617600160a01b8360028111156133f6576133f6614339565b021790555060408201518154901515600160a81b0260ff60a81b19909116178155606082015160018201556080909101516002909101556134376101365490565b6001600160a01b03861660009081526101376020526040902081905590508084600281111561346857613468614339565b866001600160a01b03167f10d3887b2457af3c1a2b037160ac9b072afe851d7835cc253ee6c0d47cbd42818560405161129a91815260200190565b60fb80546001600160a01b038381166001600160a01b0319831681179093556040519116919082907f8be0079c531659141344cd1fd0a4f28419497f9722a3daafe3b4186f6b6457e090600090a35050565b6000611df98383613cbd565b6001600160a01b038216600090815261013760205260408120548190806135595760405162461bcd60e51b815260206004820152600c60248201526b27379037b832b930ba34b7b760a11b6044820152606401610a06565b600061356482610e0f565b905084600281111561357857613578614339565b8160200151600281111561358e5761358e614339565b14801561359d57506040810151155b6135dc5760405162461bcd60e51b815260206004820152601060248201526f105b1c9958591e48199a5b9a5cda195960821b6044820152606401610a06565b60016101366135eb8285614d55565b815481106135fb576135fb614d6c565b906000526020600020906003020160000160156101000a81548160ff021916908315150217905550806060015181608001519350935050505b9250929050565b6000610995825490565b815161012e5460609190806001600160401b03811115613667576136676146a2565b604051908082528060200260200182016040528015613690578160200160208202803683370190505b50925060005b828110156137cf5760008782815181106136b2576136b2614d6c565b6020026020010151905060008783815181106136d0576136d0614d6c565b6020908102919091018101516000848152610130835260408082206001600160a01b03841683529093529190912054909150808511613711575050506137bd565b80158015613774575061012d60008154811061372f5761372f614d6c565b906000526020600020015483141580613774575061012e60008154811061375857613758614d6c565b6000918252602090912001546001600160a01b03838116911614155b15613781575050506137bd565b87848151811061379357613793614d6c565b60200260200101518782815181106137ad576137ad614d6c565b6020026020010181815250505050505b806137c781614f97565b915050613696565b5050509392505050565b6137e1613041565b6001600160a01b03166137fc60fb546001600160a01b031690565b6001600160a01b0316146138225760405162461bcd60e51b8152600401610a0690614ba2565b6001600160a01b0381166138875760405162461bcd60e51b815260206004820152602660248201527f4f776e61626c653a206e6577206f776e657220697320746865207a65726f206160448201526564647265737360d01b6064820152608401610a06565b612f81816134a3565b6000601836108015906138ad575060c9546001600160a01b031633145b156138bf575060131936013560601c90565b503390565b600054610100900460ff166138eb5760405162461bcd60e51b8152600401610a0690615372565b611b476138f6613041565b6134a3565b6139058282611e00565b610f9c5761391d816001600160a01b03166014613ce7565b613928836020613ce7565b6040516020016139399291906153bd565b60408051601f198184030181529082905262461bcd60e51b8252610a06916004016145bf565b6139698282611e00565b610f9c5760008281526065602090815260408083206001600160a01b03851684529091529020805460ff191660011790556139a2613041565b6001600160a01b0316816001600160a01b0316837f2f8788117e7eff1d82e926ec794901d17c78024a50270940304540a733656f0d60405160405180910390a45050565b6000611df9836001600160a01b038416613e82565b613a058282611e00565b15610f9c5760008281526065602090815260408083206001600160a01b03851684529091529020805460ff19169055613a3c613041565b6001600160a01b0316816001600160a01b0316837ff6391f5c32d9c69d2a47ea670b442974b53935d1edc7fd64eb21e047a839171b60405160405180910390a45050565b6000611df9836001600160a01b038416613ed1565b600080825160411415613acc5760208301516040840151606085015160001a613ac087828585613fc4565b94509450505050613634565b825160401415613af65760208301516040840151613aeb8683836140b1565b935093505050613634565b50600090506002613634565b6000816004811115613b1657613b16614339565b1415613b1f5750565b6001816004811115613b3357613b33614339565b1415613b815760405162461bcd60e51b815260206004820152601860248201527f45434453413a20696e76616c6964207369676e617475726500000000000000006044820152606401610a06565b6002816004811115613b9557613b95614339565b1415613be35760405162461bcd60e51b815260206004820152601f60248201527f45434453413a20696e76616c6964207369676e6174757265206c656e677468006044820152606401610a06565b6003816004811115613bf757613bf7614339565b1415613c505760405162461bcd60e51b815260206004820152602260248201527f45434453413a20696e76616c6964207369676e6174757265202773272076616c604482015261756560f01b6064820152608401610a06565b6004816004811115613c6457613c64614339565b1415612f815760405162461bcd60e51b815260206004820152602260248201527f45434453413a20696e76616c6964207369676e6174757265202776272076616c604482015261756560f01b6064820152608401610a06565b6000826000018281548110613cd457613cd4614d6c565b9060005260206000200154905092915050565b60606000613cf6836002615161565b613d01906002614fb2565b6001600160401b03811115613d1857613d186146a2565b6040519080825280601f01601f191660200182016040528015613d42576020820181803683370190505b509050600360fc1b81600081518110613d5d57613d5d614d6c565b60200101906001600160f81b031916908160001a905350600f60fb1b81600181518110613d8c57613d8c614d6c565b60200101906001600160f81b031916908160001a9053506000613db0846002615161565b613dbb906001614fb2565b90505b6001811115613e33576f181899199a1a9b1b9c1cb0b131b232b360811b85600f1660108110613def57613def614d6c565b1a60f81b828281518110613e0557613e05614d6c565b60200101906001600160f81b031916908160001a90535060049490941c93613e2c81615432565b9050613dbe565b508315611df95760405162461bcd60e51b815260206004820181905260248201527f537472696e67733a20686578206c656e67746820696e73756666696369656e746044820152606401610a06565b6000818152600183016020526040812054613ec957508154600181810184556000848152602080822090930184905584548482528286019093526040902091909155610995565b506000610995565b60008181526001830160205260408120548015613fba576000613ef5600183614d55565b8554909150600090613f0990600190614d55565b9050818114613f6e576000866000018281548110613f2957613f29614d6c565b9060005260206000200154905080876000018481548110613f4c57613f4c614d6c565b6000918252602080832090910192909255918252600188019052604090208390555b8554869080613f7f57613f7f614d82565b600190038181906000526020600020016000905590558560010160008681526020019081526020016000206000905560019350505050610995565b6000915050610995565b6000807f7fffffffffffffffffffffffffffffff5d576e7357a4501ddfe92f46681b20a0831115613ffb57506000905060036140a8565b8460ff16601b1415801561401357508460ff16601c14155b1561402457506000905060046140a8565b6040805160008082526020820180845289905260ff881692820192909252606081018690526080810185905260019060a0016020604051602081039080840390855afa158015614078573d6000803e3d6000fd5b5050604051601f1901519150506001600160a01b0381166140a1576000600192509250506140a8565b9150600090505b94509492505050565b6000806001600160ff1b038316816140ce60ff86901c601b614fb2565b90506140dc87828885613fc4565b935093505050935093915050565b8280546140f690614bd7565b90600052602060002090601f016020900481019282614118576000855561415e565b82601f1061413157805160ff191683800117855561415e565b8280016001018555821561415e579182015b8281111561415e578251825591602001919060010190614143565b5061416a9291506141c7565b5090565b8280548282559060005260206000209081019282156141bb579160200282015b828111156141bb57825180516141ab9184916020909101906140ea565b509160200191906001019061418e565b5061416a9291506141dc565b5b8082111561416a57600081556001016141c8565b8082111561416a5760006141f082826141f9565b506001016141dc565b50805461420590614bd7565b6000825580601f10614215575050565b601f016020900490600052602060002090810190612f8191906141c7565b60006020828403121561424557600080fd5b81356001600160e01b031981168114611df957600080fd5b60006020828403121561426f57600080fd5b5035919050565b80356001600160a01b03811681146130d857600080fd5b60006020828403121561429f57600080fd5b611df982614276565b600080600080600060a086880312156142c057600080fd5b6142c986614276565b94506142d760208701614276565b93506142e560408701614276565b92506142f360608701614276565b915061430160808701614276565b90509295509295909350565b6000806040838503121561432057600080fd5b8235915061433060208401614276565b90509250929050565b634e487b7160e01b600052602160045260246000fd5b6003811061436d57634e487b7160e01b600052602160045260246000fd5b9052565b81516001600160a01b0316815260208083015160a08301916143959084018261434f565b50604083015115156040830152606083015160608301526080830151608083015292915050565b60008083601f8401126143ce57600080fd5b5081356001600160401b038111156143e557600080fd5b60208301915083602082850101111561363457600080fd5b6000806000806040858703121561441357600080fd5b84356001600160401b038082111561442a57600080fd5b614436888389016143bc565b9096509450602087013591508082111561444f57600080fd5b5061445c878288016143bc565b95989497509550505050565b600081518084526020808501945080840160005b838110156144985781518752958201959082019060010161447c565b509495945050505050565b600081518084526020808501945080840160005b838110156144985781516001600160a01b0316875295820195908201906001016144b7565b6080815260006144ef6080830187614468565b828103602084015261450181876144a3565b905082810360408401526145158186614468565b905082810360608401526145298185614468565b979650505050505050565b60008060006060848603121561454957600080fd5b61455284614276565b95602085013595506040909401359392505050565b60005b8381101561458257818101518382015260200161456a565b8381111561148e5750506000910152565b600081518084526145ab816020860160208601614567565b601f01601f19169290920160200192915050565b602081526000611df96020830184614593565b6060815260006145e56060830186614468565b82810360208401526145f781866144a3565b90508281036040840152612cba8185614468565b60e08152600061461e60e083018a614468565b8281036020840152614630818a6144a3565b905082810360408401526146448189614468565b905082810360608401526146588188614468565b9050828103608084015261466c8187614468565b905082810360a08401526146808186614468565b905082810360c08401526146948185614468565b9a9950505050505050505050565b634e487b7160e01b600052604160045260246000fd5b604051601f8201601f191681016001600160401b03811182821017156146e0576146e06146a2565b604052919050565b60006001600160401b03821115614701576147016146a2565b5060051b60200190565b60006001600160401b03831115614724576147246146a2565b614737601f8401601f19166020016146b8565b905082815283838301111561474b57600080fd5b828260208301376000602084830101529392505050565b6000602080838503121561477557600080fd5b82356001600160401b038082111561478c57600080fd5b818501915085601f8301126147a057600080fd5b81356147b36147ae826146e8565b6146b8565b81815260059190911b830184019084810190888311156147d257600080fd5b8585015b8381101561481f578035858111156147ee5760008081fd5b8601603f81018b136148005760008081fd5b6148118b898301356040840161470b565b8452509186019186016147d6565b5098975050505050505050565b6000806020838503121561483f57600080fd5b82356001600160401b038082111561485657600080fd5b818501915085601f83011261486a57600080fd5b81358181111561487957600080fd5b8660208260051b850101111561488e57600080fd5b60209290920196919550909350505050565b600080604083850312156148b357600080fd5b50508035926020909101359150565b600082601f8301126148d357600080fd5b813560206148e36147ae836146e8565b82815260059290921b8401810191818101908684111561490257600080fd5b8286015b8481101561491d5780358352918301918301614906565b509695505050505050565b60006020828403121561493a57600080fd5b81356001600160401b0381111561495057600080fd5b61495c848285016148c2565b949350505050565b6000806040838503121561497757600080fd5b61498083614276565b946020939093013593505050565b6001600160a01b038616815260a081016149ab602083018761434f565b9315156040820152606081019290925260809091015292915050565b600082601f8301126149d857600080fd5b813560206149e86147ae836146e8565b82815260059290921b84018101918181019086841115614a0757600080fd5b8286015b8481101561491d57614a1c81614276565b8352918301918301614a0b565b600080600060608486031215614a3e57600080fd5b83356001600160401b0380821115614a5557600080fd5b614a61878388016148c2565b94506020860135915080821115614a7757600080fd5b614a83878388016149c7565b93506040860135915080821115614a9957600080fd5b50614aa6868287016148c2565b9150509250925092565b60008060008060808587031215614ac657600080fd5b84356001600160401b0380821115614add57600080fd5b614ae9888389016148c2565b95506020870135915080821115614aff57600080fd5b614b0b888389016149c7565b94506040870135915080821115614b2157600080fd5b50614b2e878288016148c2565b949793965093946060013593505050565b60008060408385031215614b5257600080fd5b82356001600160401b0380821115614b6957600080fd5b614b75868387016148c2565b93506020850135915080821115614b8b57600080fd5b50614b98858286016148c2565b9150509250929050565b6020808252818101527f4f776e61626c653a2063616c6c6572206973206e6f7420746865206f776e6572604082015260600190565b600181811c90821680614beb57607f821691505b60208210811415614c0c57634e487b7160e01b600052602260045260246000fd5b50919050565b600060a0820160018060a01b0388168352602060a08185015281885480845260c08601915060c08160051b870101935060008a8152838120815b83811015614d035788870360bf1901855281548390600181811c9080831680614c7657607f831692505b8a8310811415614c9457634e487b7160e01b88526022600452602488fd5b828c5260208c01818015614caf5760018114614cc057614cea565b60ff19861682528c82019650614cea565b6000898152602090208a5b86811015614ce457815484820152908501908e01614ccb565b83019750505b50949b5050978901979490940193505050600101614c4c565b5050505050508281036040840152614d1b8187614593565b6001600160e01b031986166060850152905082810360808401526122688185614593565b634e487b7160e01b600052601160045260246000fd5b600082821015614d6757614d67614d3f565b500390565b634e487b7160e01b600052603260045260246000fd5b634e487b7160e01b600052603160045260246000fd5b600082601f830112614da957600080fd5b611df98383356020850161470b565b60008060008060808587031215614dce57600080fd5b84356001600160401b0380821115614de557600080fd5b614df1888389016148c2565b95506020870135915080821115614e0757600080fd5b614e13888389016149c7565b94506040870135915080821115614e2957600080fd5b614e35888389016148c2565b93506060870135915080821115614e4b57600080fd5b50614e5887828801614d98565b91505092959194509250565b805160009060208084018383156144985781518752958201959082019060010161447c565b805160009060208084018383156144985781516001600160a01b0316875295820195908201906001016144b7565b6000614ed5614ecf614ec98488614e64565b86614e89565b84614e64565b95945050505050565b60208082526013908201527214da59db995c881a5cc81a5b98dbdc9c9958dd606a1b604082015260600190565b600080600060608486031215614f2057600080fd5b83356001600160401b0380821115614f3757600080fd5b614f43878388016148c2565b94506020860135915080821115614f5957600080fd5b614f65878388016148c2565b93506040860135915080821115614f7b57600080fd5b50614aa686828701614d98565b600061495c614ecf8386614e64565b6000600019821415614fab57614fab614d3f565b5060010190565b60008219821115614fc557614fc5614d3f565b500190565b600080600080600080600080610100898b031215614fe757600080fd5b88356001600160401b0380821115614ffe57600080fd5b61500a8c838d016148c2565b995060208b013591508082111561502057600080fd5b61502c8c838d016149c7565b985060408b013591508082111561504257600080fd5b61504e8c838d016148c2565b975060608b013591508082111561506457600080fd5b6150708c838d016148c2565b965060808b013591508082111561508657600080fd5b6150928c838d016148c2565b955060a08b01359150808211156150a857600080fd5b6150b48c838d016148c2565b945060c08b01359150808211156150ca57600080fd5b6150d68c838d016148c2565b935060e08b01359150808211156150ec57600080fd5b506150f98b828c01614d98565b9150509295985092959890939650565b6000612268614ecf61513661513061512a615124878e614e64565b8c614e89565b8a614e64565b88614e64565b86614e64565b6000611df98284614e64565b60006020828403121561515a57600080fd5b5051919050565b600081600019048311821515161561517b5761517b614d3f565b500290565b60008261519d57634e487b7160e01b600052601260045260246000fd5b500490565b600080604083850312156151b557600080fd5b82356001600160401b03808211156151cc57600080fd5b6151d8868387016148c2565b935060208501359150808211156151ee57600080fd5b50614b9885828601614d98565b600181815b8085111561523657816000190482111561521c5761521c614d3f565b8085161561522957918102915b93841c9390800290615200565b509250929050565b60008261524d57506001610995565b8161525a57506000610995565b8160018114615270576002811461527a57615296565b6001915050610995565b60ff84111561528b5761528b614d3f565b50506001821b610995565b5060208310610133831016604e8410600b84101617156152b9575081810a610995565b6152c383836151fb565b80600019048211156152d7576152d7614d3f565b029392505050565b6000611df960ff84168361523e565b6000806040838503121561530157600080fd5b82519150602083015160ff8116811461531957600080fd5b809150509250929050565b6020808252602e908201527f496e697469616c697a61626c653a20636f6e747261637420697320616c72656160408201526d191e481a5b9a5d1a585b1a5e995960921b606082015260800190565b6020808252602b908201527f496e697469616c697a61626c653a20636f6e7472616374206973206e6f74206960408201526a6e697469616c697a696e6760a81b606082015260800190565b7f416363657373436f6e74726f6c3a206163636f756e74200000000000000000008152600083516153f5816017850160208801614567565b7001034b99036b4b9b9b4b733903937b6329607d1b6017918401918201528351615426816028840160208801614567565b01602801949350505050565b60008161544157615441614d3f565b50600019019056fea49807205ce4d355092ef5a8a18f56e8913cf4a201fbe287825b095693c21775a264697066735822122096feddaf4bec6b809a515294ea7071daf581ef8774601179d3fdee4474ff724164736f6c63430008090033",
  "devdoc": {
    "kind": "dev",
    "methods": {
      "burnByAdmin(address,uint256,uint256)": {
        "details": "mint STIs according to the deposited USDT",
        "params": {
          "_account": "account to which STIs will be minted",
          "_pool": "total pool in USD",
          "_share": "amount of STI to be burnt"
        }
      },
      "getDepositTokenComposition(uint256[],address[],uint256[],uint256)": {
        "params": {
          "_USDT6Amt": "amount of USDT with 6 decimals"
        },
        "returns": {
          "_0": "_USDT6Amts amount of USDT should be deposited to each pools"
        }
      },
      "getPoolsUnbonded1(address)": {
        "returns": {
          "_0": "_chainIDs is an array of chain IDs.",
          "_1": "_tokens is an array of tokens.",
          "_2": "_waitings is an array of token amounts that is not unbonded.",
          "_3": "_waitingInUSDs is an array of USD value of token amounts that is not unbonded.",
          "_4": "_unbondeds is an array of token amounts that is unbonded.",
          "_5": "_unbondedInUSDs is an array USD value of token amounts that is unbonded.",
          "_6": "_waitForTses is an array of timestamps to wait to the next claim."
        }
      },
      "getRoleAdmin(bytes32)": {
        "details": "Returns the admin role that controls `role`. See {grantRole} and {revokeRole}. To change a role's admin, use {_setRoleAdmin}."
      },
      "getRoleMember(bytes32,uint256)": {
        "details": "Returns one of the accounts that have `role`. `index` must be a value between 0 and {getRoleMemberCount}, non-inclusive. Role bearers are not sorted in any particular way, and their ordering may change at any point. WARNING: When using {getRoleMember} and {getRoleMemberCount}, make sure you perform all queries on the same block. See the following https://forum.openzeppelin.com/t/iterating-over-elements-on-enumerableset-in-openzeppelin-contracts/2296[forum post] for more information."
      },
      "getRoleMemberCount(bytes32)": {
        "details": "Returns the number of accounts that have `role`. Can be used together with {getRoleMember} to enumerate all bearers of a role."
      },
      "getUSDTPriceInUSD()": {
        "returns": {
          "_0": "the price of USDT in USD."
        }
      },
      "getWithdrawPerc(address,uint256)": {
        "params": {
          "_share": "amount of STI to be withdrawn"
        },
        "returns": {
          "_sharePerc": "percentage of assets which should be withdrawn. It's 18 decimals"
        }
      },
      "grantRole(bytes32,address)": {
        "details": "Grants `role` to `account`. If `account` had not been already granted `role`, emits a {RoleGranted} event. Requirements: - the caller must have ``role``'s admin role."
      },
      "hasRole(bytes32,address)": {
        "details": "Returns `true` if `account` has been granted `role`."
      },
      "initDepositByAdmin(address,uint256,uint256)": {
        "params": {
          "_USDT6Amt": "USDT with 6 decimals to be deposited",
          "_account": "account to which BNIs will be minted",
          "_pool": "total pool in USD"
        }
      },
      "mintByAdmin(address,uint256)": {
        "details": "mint STIs according to the deposited USDT",
        "params": {
          "_USDT6Amt": "the deposited USDT with 6 decimals.",
          "_account": "account to which STIs will be minted"
        }
      },
      "owner()": {
        "details": "Returns the address of the current owner."
      },
      "paused()": {
        "details": "Returns true if the contract is paused, and false otherwise."
      },
      "renounceOwnership()": {
        "details": "Leaves the contract without owner. It will not be possible to call `onlyOwner` functions anymore. Can only be called by the current owner. NOTE: Renouncing ownership will leave the contract without an owner, thereby removing any functionality that is only available to the owner."
      },
      "renounceRole(bytes32,address)": {
        "details": "Revokes `role` from the calling account. Roles are often managed via {grantRole} and {revokeRole}: this function's purpose is to provide a mechanism for accounts to lose their privileges if they are compromised (such as when a trusted device is misplaced). If the calling account had been revoked `role`, emits a {RoleRevoked} event. Requirements: - the caller must be `account`."
      },
      "revokeRole(bytes32,address)": {
        "details": "Revokes `role` from `account`. If `account` had been granted `role`, emits a {RoleRevoked} event. Requirements: - the caller must have ``role``'s admin role."
      },
      "supportsInterface(bytes4)": {
        "details": "See {IERC165-supportsInterface}."
      },
      "transferOwnership(address)": {
        "details": "Transfers ownership of the contract to a new account (`newOwner`). Can only be called by the current owner."
      }
    },
    "version": 1
  },
  "userdoc": {
    "kind": "user",
    "methods": {
      "addToken(uint256,address)": {
        "notice": "After this method called, setTokenCompositionTargetPerc should be called to adjust percentages."
      },
      "getAPR(uint256[],uint256[])": {
        "notice": "The length of array is based on network count. And the lengths should be same on the arraies."
      },
      "getAllPoolInUSD(uint256[])": {
        "notice": "The length of array is based on network count. And the lengths should be same on the arraies."
      },
      "getCurrentTokenCompositionPerc(uint256[],address[],uint256[])": {
        "notice": "The length of array is based on token count. And the lengths should be same on the arraies."
      },
      "getDepositTokenComposition(uint256[],address[],uint256[],uint256)": {
        "notice": "The length of array is based on token count. And the lengths should be same on the arraies."
      },
      "getPricePerFullShare(uint256[])": {
        "notice": "Can be used for calculate both user shares & APR"
      },
      "isTrustedForwarder(address)": {
        "notice": "return if the forwarder is trusted to forward relayed transactions to us. the forwarder is required to verify the sender's signature, and verify the call is not a replay."
      },
      "removeToken(uint256)": {
        "notice": "After this method called, setTokenCompositionTargetPerc should be called to adjust percentages."
      },
      "setTokenCompositionTargetPerc(uint256[])": {
        "notice": "The length of array is based on token count."
      }
    },
    "version": 1
  },
  "storageLayout": {
    "storage": [
      {
        "astId": 713,
        "contract": "contracts/sti/STIMinterTest.sol:STIMinterTest",
        "label": "_initialized",
        "offset": 0,
        "slot": "0",
        "type": "t_uint8"
      },
      {
        "astId": 716,
        "contract": "contracts/sti/STIMinterTest.sol:STIMinterTest",
        "label": "_initializing",
        "offset": 1,
        "slot": "0",
        "type": "t_bool"
      },
      {
        "astId": 3292,
        "contract": "contracts/sti/STIMinterTest.sol:STIMinterTest",
        "label": "__gap",
        "offset": 0,
        "slot": "1",
        "type": "t_array(t_uint256)50_storage"
      },
      {
        "astId": 3946,
        "contract": "contracts/sti/STIMinterTest.sol:STIMinterTest",
        "label": "__gap",
        "offset": 0,
        "slot": "51",
        "type": "t_array(t_uint256)50_storage"
      },
      {
        "astId": 184,
        "contract": "contracts/sti/STIMinterTest.sol:STIMinterTest",
        "label": "_roles",
        "offset": 0,
        "slot": "101",
        "type": "t_mapping(t_bytes32,t_struct(RoleData)179_storage)"
      },
      {
        "astId": 483,
        "contract": "contracts/sti/STIMinterTest.sol:STIMinterTest",
        "label": "__gap",
        "offset": 0,
        "slot": "102",
        "type": "t_array(t_uint256)49_storage"
      },
      {
        "astId": 33,
        "contract": "contracts/sti/STIMinterTest.sol:STIMinterTest",
        "label": "_roleMembers",
        "offset": 0,
        "slot": "151",
        "type": "t_mapping(t_bytes32,t_struct(AddressSet)4359_storage)"
      },
      {
        "astId": 143,
        "contract": "contracts/sti/STIMinterTest.sol:STIMinterTest",
        "label": "__gap",
        "offset": 0,
        "slot": "152",
        "type": "t_array(t_uint256)49_storage"
      },
      {
        "astId": 70214,
        "contract": "contracts/sti/STIMinterTest.sol:STIMinterTest",
        "label": "trustedForwarder",
        "offset": 0,
        "slot": "201",
        "type": "t_address"
      },
      {
        "astId": 869,
        "contract": "contracts/sti/STIMinterTest.sol:STIMinterTest",
        "label": "_paused",
        "offset": 20,
        "slot": "201",
        "type": "t_bool"
      },
      {
        "astId": 958,
        "contract": "contracts/sti/STIMinterTest.sol:STIMinterTest",
        "label": "__gap",
        "offset": 0,
        "slot": "202",
        "type": "t_array(t_uint256)49_storage"
      },
      {
        "astId": 593,
        "contract": "contracts/sti/STIMinterTest.sol:STIMinterTest",
        "label": "_owner",
        "offset": 0,
        "slot": "251",
        "type": "t_address"
      },
      {
        "astId": 705,
        "contract": "contracts/sti/STIMinterTest.sol:STIMinterTest",
        "label": "__gap",
        "offset": 0,
        "slot": "252",
        "type": "t_array(t_uint256)49_storage"
      },
      {
        "astId": 44639,
        "contract": "contracts/sti/STIMinterTest.sol:STIMinterTest",
        "label": "chainIDs",
        "offset": 0,
        "slot": "301",
        "type": "t_array(t_uint256)dyn_storage"
      },
      {
        "astId": 44642,
        "contract": "contracts/sti/STIMinterTest.sol:STIMinterTest",
        "label": "tokens",
        "offset": 0,
        "slot": "302",
        "type": "t_array(t_address)dyn_storage"
      },
      {
        "astId": 44645,
        "contract": "contracts/sti/STIMinterTest.sol:STIMinterTest",
        "label": "targetPercentages",
        "offset": 0,
        "slot": "303",
        "type": "t_array(t_uint256)dyn_storage"
      },
      {
        "astId": 44651,
        "contract": "contracts/sti/STIMinterTest.sol:STIMinterTest",
        "label": "tid",
        "offset": 0,
        "slot": "304",
        "type": "t_mapping(t_uint256,t_mapping(t_address,t_uint256))"
      },
      {
        "astId": 44653,
        "contract": "contracts/sti/STIMinterTest.sol:STIMinterTest",
        "label": "admin",
        "offset": 0,
        "slot": "305",
        "type": "t_address"
      },
      {
        "astId": 44656,
        "contract": "contracts/sti/STIMinterTest.sol:STIMinterTest",
        "label": "STI",
        "offset": 0,
        "slot": "306",
        "type": "t_contract(ISTI)44484"
      },
      {
        "astId": 44659,
        "contract": "contracts/sti/STIMinterTest.sol:STIMinterTest",
        "label": "priceOracle",
        "offset": 0,
        "slot": "307",
        "type": "t_contract(IPriceOracle)12144"
      },
      {
        "astId": 44662,
        "contract": "contracts/sti/STIMinterTest.sol:STIMinterTest",
        "label": "urls",
        "offset": 0,
        "slot": "308",
        "type": "t_array(t_string_storage)dyn_storage"
      },
      {
        "astId": 44664,
        "contract": "contracts/sti/STIMinterTest.sol:STIMinterTest",
        "label": "gatewaySigner",
        "offset": 0,
        "slot": "309",
        "type": "t_address"
      },
      {
        "astId": 44668,
        "contract": "contracts/sti/STIMinterTest.sol:STIMinterTest",
        "label": "operations",
        "offset": 0,
        "slot": "310",
        "type": "t_array(t_struct(Operation)44631_storage)dyn_storage"
      },
      {
        "astId": 44672,
        "contract": "contracts/sti/STIMinterTest.sol:STIMinterTest",
        "label": "userLastOperationNonce",
        "offset": 0,
        "slot": "311",
        "type": "t_mapping(t_address,t_uint256)"
      },
      {
        "astId": 44674,
        "contract": "contracts/sti/STIMinterTest.sol:STIMinterTest",
        "label": "userAgent",
        "offset": 0,
        "slot": "312",
        "type": "t_address"
      }
    ],
    "types": {
      "t_address": {
        "encoding": "inplace",
        "label": "address",
        "numberOfBytes": "20"
      },
      "t_array(t_address)dyn_storage": {
        "base": "t_address",
        "encoding": "dynamic_array",
        "label": "address[]",
        "numberOfBytes": "32"
      },
      "t_array(t_bytes32)dyn_storage": {
        "base": "t_bytes32",
        "encoding": "dynamic_array",
        "label": "bytes32[]",
        "numberOfBytes": "32"
      },
      "t_array(t_string_storage)dyn_storage": {
        "base": "t_string_storage",
        "encoding": "dynamic_array",
        "label": "string[]",
        "numberOfBytes": "32"
      },
      "t_array(t_struct(Operation)44631_storage)dyn_storage": {
        "base": "t_struct(Operation)44631_storage",
        "encoding": "dynamic_array",
        "label": "struct STIMinter.Operation[]",
        "numberOfBytes": "32"
      },
      "t_array(t_uint256)49_storage": {
        "base": "t_uint256",
        "encoding": "inplace",
        "label": "uint256[49]",
        "numberOfBytes": "1568"
      },
      "t_array(t_uint256)50_storage": {
        "base": "t_uint256",
        "encoding": "inplace",
        "label": "uint256[50]",
        "numberOfBytes": "1600"
      },
      "t_array(t_uint256)dyn_storage": {
        "base": "t_uint256",
        "encoding": "dynamic_array",
        "label": "uint256[]",
        "numberOfBytes": "32"
      },
      "t_bool": {
        "encoding": "inplace",
        "label": "bool",
        "numberOfBytes": "1"
      },
      "t_bytes32": {
        "encoding": "inplace",
        "label": "bytes32",
        "numberOfBytes": "32"
      },
      "t_contract(IPriceOracle)12144": {
        "encoding": "inplace",
        "label": "contract IPriceOracle",
        "numberOfBytes": "20"
      },
      "t_contract(ISTI)44484": {
        "encoding": "inplace",
        "label": "contract ISTI",
        "numberOfBytes": "20"
      },
      "t_enum(OperationType)44619": {
        "encoding": "inplace",
        "label": "enum STIMinter.OperationType",
        "numberOfBytes": "1"
      },
      "t_mapping(t_address,t_bool)": {
        "encoding": "mapping",
        "key": "t_address",
        "label": "mapping(address => bool)",
        "numberOfBytes": "32",
        "value": "t_bool"
      },
      "t_mapping(t_address,t_uint256)": {
        "encoding": "mapping",
        "key": "t_address",
        "label": "mapping(address => uint256)",
        "numberOfBytes": "32",
        "value": "t_uint256"
      },
      "t_mapping(t_bytes32,t_struct(AddressSet)4359_storage)": {
        "encoding": "mapping",
        "key": "t_bytes32",
        "label": "mapping(bytes32 => struct EnumerableSetUpgradeable.AddressSet)",
        "numberOfBytes": "32",
        "value": "t_struct(AddressSet)4359_storage"
      },
      "t_mapping(t_bytes32,t_struct(RoleData)179_storage)": {
        "encoding": "mapping",
        "key": "t_bytes32",
        "label": "mapping(bytes32 => struct AccessControlUpgradeable.RoleData)",
        "numberOfBytes": "32",
        "value": "t_struct(RoleData)179_storage"
      },
      "t_mapping(t_bytes32,t_uint256)": {
        "encoding": "mapping",
        "key": "t_bytes32",
        "label": "mapping(bytes32 => uint256)",
        "numberOfBytes": "32",
        "value": "t_uint256"
      },
      "t_mapping(t_uint256,t_mapping(t_address,t_uint256))": {
        "encoding": "mapping",
        "key": "t_uint256",
        "label": "mapping(uint256 => mapping(address => uint256))",
        "numberOfBytes": "32",
        "value": "t_mapping(t_address,t_uint256)"
      },
      "t_string_storage": {
        "encoding": "bytes",
        "label": "string",
        "numberOfBytes": "32"
      },
      "t_struct(AddressSet)4359_storage": {
        "encoding": "inplace",
        "label": "struct EnumerableSetUpgradeable.AddressSet",
        "members": [
          {
            "astId": 4358,
            "contract": "contracts/sti/STIMinterTest.sol:STIMinterTest",
            "label": "_inner",
            "offset": 0,
            "slot": "0",
            "type": "t_struct(Set)4058_storage"
          }
        ],
        "numberOfBytes": "64"
      },
      "t_struct(Operation)44631_storage": {
        "encoding": "inplace",
        "label": "struct STIMinter.Operation",
        "members": [
          {
            "astId": 44621,
            "contract": "contracts/sti/STIMinterTest.sol:STIMinterTest",
            "label": "account",
            "offset": 0,
            "slot": "0",
            "type": "t_address"
          },
          {
            "astId": 44624,
            "contract": "contracts/sti/STIMinterTest.sol:STIMinterTest",
            "label": "operation",
            "offset": 20,
            "slot": "0",
            "type": "t_enum(OperationType)44619"
          },
          {
            "astId": 44626,
            "contract": "contracts/sti/STIMinterTest.sol:STIMinterTest",
            "label": "done",
            "offset": 21,
            "slot": "0",
            "type": "t_bool"
          },
          {
            "astId": 44628,
            "contract": "contracts/sti/STIMinterTest.sol:STIMinterTest",
            "label": "pool",
            "offset": 0,
            "slot": "1",
            "type": "t_uint256"
          },
          {
            "astId": 44630,
            "contract": "contracts/sti/STIMinterTest.sol:STIMinterTest",
            "label": "amount",
            "offset": 0,
            "slot": "2",
            "type": "t_uint256"
          }
        ],
        "numberOfBytes": "96"
      },
      "t_struct(RoleData)179_storage": {
        "encoding": "inplace",
        "label": "struct AccessControlUpgradeable.RoleData",
        "members": [
          {
            "astId": 176,
            "contract": "contracts/sti/STIMinterTest.sol:STIMinterTest",
            "label": "members",
            "offset": 0,
            "slot": "0",
            "type": "t_mapping(t_address,t_bool)"
          },
          {
            "astId": 178,
            "contract": "contracts/sti/STIMinterTest.sol:STIMinterTest",
            "label": "adminRole",
            "offset": 0,
            "slot": "1",
            "type": "t_bytes32"
          }
        ],
        "numberOfBytes": "64"
      },
      "t_struct(Set)4058_storage": {
        "encoding": "inplace",
        "label": "struct EnumerableSetUpgradeable.Set",
        "members": [
          {
            "astId": 4053,
            "contract": "contracts/sti/STIMinterTest.sol:STIMinterTest",
            "label": "_values",
            "offset": 0,
            "slot": "0",
            "type": "t_array(t_bytes32)dyn_storage"
          },
          {
            "astId": 4057,
            "contract": "contracts/sti/STIMinterTest.sol:STIMinterTest",
            "label": "_indexes",
            "offset": 0,
            "slot": "1",
            "type": "t_mapping(t_bytes32,t_uint256)"
          }
        ],
        "numberOfBytes": "64"
      },
      "t_uint256": {
        "encoding": "inplace",
        "label": "uint256",
        "numberOfBytes": "32"
      },
      "t_uint8": {
        "encoding": "inplace",
        "label": "uint8",
        "numberOfBytes": "1"
      }
    }
  }
}