{
  "address": "0x181448cB4B9bE640673696493216276b6743F589",
  "abi": [
    {
      "anonymous": false,
      "inputs": [
        {
          "indexed": false,
          "internalType": "uint8",
          "name": "version",
          "type": "uint8"
        }
      ],
      "name": "Initialized",
      "type": "event"
    },
    {
      "anonymous": false,
      "inputs": [
        {
          "indexed": true,
          "internalType": "address",
          "name": "previousOwner",
          "type": "address"
        },
        {
          "indexed": true,
          "internalType": "address",
          "name": "newOwner",
          "type": "address"
        }
      ],
      "name": "OwnershipTransferred",
      "type": "event"
    },
    {
      "anonymous": false,
      "inputs": [
        {
          "indexed": false,
          "internalType": "address",
          "name": "account",
          "type": "address"
        }
      ],
      "name": "Paused",
      "type": "event"
    },
    {
      "anonymous": false,
      "inputs": [
        {
          "indexed": true,
          "internalType": "bytes32",
          "name": "role",
          "type": "bytes32"
        },
        {
          "indexed": true,
          "internalType": "bytes32",
          "name": "previousAdminRole",
          "type": "bytes32"
        },
        {
          "indexed": true,
          "internalType": "bytes32",
          "name": "newAdminRole",
          "type": "bytes32"
        }
      ],
      "name": "RoleAdminChanged",
      "type": "event"
    },
    {
      "anonymous": false,
      "inputs": [
        {
          "indexed": true,
          "internalType": "bytes32",
          "name": "role",
          "type": "bytes32"
        },
        {
          "indexed": true,
          "internalType": "address",
          "name": "account",
          "type": "address"
        },
        {
          "indexed": true,
          "internalType": "address",
          "name": "sender",
          "type": "address"
        }
      ],
      "name": "RoleGranted",
      "type": "event"
    },
    {
      "anonymous": false,
      "inputs": [
        {
          "indexed": true,
          "internalType": "bytes32",
          "name": "role",
          "type": "bytes32"
        },
        {
          "indexed": true,
          "internalType": "address",
          "name": "account",
          "type": "address"
        },
        {
          "indexed": true,
          "internalType": "address",
          "name": "sender",
          "type": "address"
        }
      ],
      "name": "RoleRevoked",
      "type": "event"
    },
    {
      "anonymous": false,
      "inputs": [
        {
          "indexed": true,
          "internalType": "address",
          "name": "from",
          "type": "address"
        },
        {
          "indexed": false,
          "internalType": "address",
          "name": "token",
          "type": "address"
        },
        {
          "indexed": true,
          "internalType": "uint256",
          "name": "amount",
          "type": "uint256"
        },
        {
          "indexed": false,
          "internalType": "uint256",
          "name": "fromChainId",
          "type": "uint256"
        },
        {
          "indexed": true,
          "internalType": "uint256",
          "name": "toChainId",
          "type": "uint256"
        },
        {
          "indexed": false,
          "internalType": "address",
          "name": "to",
          "type": "address"
        },
        {
          "indexed": false,
          "internalType": "enum BasicUserAgentBase.AdapterType",
          "name": "adapterType",
          "type": "uint8"
        },
        {
          "indexed": false,
          "internalType": "uint256",
          "name": "nonce",
          "type": "uint256"
        }
      ],
      "name": "Transfer",
      "type": "event"
    },
    {
      "anonymous": false,
      "inputs": [
        {
          "indexed": false,
          "internalType": "address",
          "name": "account",
          "type": "address"
        }
      ],
      "name": "Unpaused",
      "type": "event"
    },
    {
      "inputs": [],
      "name": "ADAPTER_ROLE",
      "outputs": [
        {
          "internalType": "bytes32",
          "name": "",
          "type": "bytes32"
        }
      ],
      "stateMutability": "view",
      "type": "function"
    },
    {
      "inputs": [],
      "name": "DEFAULT_ADMIN_ROLE",
      "outputs": [
        {
          "internalType": "bytes32",
          "name": "",
          "type": "bytes32"
        }
      ],
      "stateMutability": "view",
      "type": "function"
    },
    {
      "inputs": [],
      "name": "USDC",
      "outputs": [
        {
          "internalType": "contract IERC20Upgradeable",
          "name": "",
          "type": "address"
        }
      ],
      "stateMutability": "view",
      "type": "function"
    },
    {
      "inputs": [],
      "name": "USDT",
      "outputs": [
        {
          "internalType": "contract IERC20Upgradeable",
          "name": "",
          "type": "address"
        }
      ],
      "stateMutability": "view",
      "type": "function"
    },
    {
      "inputs": [],
      "name": "admin",
      "outputs": [
        {
          "internalType": "address",
          "name": "",
          "type": "address"
        }
      ],
      "stateMutability": "view",
      "type": "function"
    },
    {
      "inputs": [
        {
          "internalType": "uint256",
          "name": "_pool",
          "type": "uint256"
        },
        {
          "internalType": "uint256",
          "name": "_share",
          "type": "uint256"
        },
        {
          "internalType": "bytes",
          "name": "_signature",
          "type": "bytes"
        }
      ],
      "name": "burn",
      "outputs": [
        {
          "internalType": "uint256",
          "name": "_feeAmt",
          "type": "uint256"
        }
      ],
      "stateMutability": "payable",
      "type": "function"
    },
    {
      "inputs": [
        {
          "internalType": "address",
          "name": "_account",
          "type": "address"
        },
        {
          "internalType": "uint256",
          "name": "_pool",
          "type": "uint256"
        },
        {
          "internalType": "uint256",
          "name": "_share",
          "type": "uint256"
        }
      ],
      "name": "burnByAdmin",
      "outputs": [],
      "stateMutability": "nonpayable",
      "type": "function"
    },
    {
      "inputs": [
        {
          "internalType": "uint256",
          "name": "",
          "type": "uint256"
        }
      ],
      "name": "callAdapterTypes",
      "outputs": [
        {
          "internalType": "enum BasicUserAgentBase.AdapterType",
          "name": "",
          "type": "uint8"
        }
      ],
      "stateMutability": "view",
      "type": "function"
    },
    {
      "inputs": [],
      "name": "cbridgeAdapter",
      "outputs": [
        {
          "internalType": "contract IXChainAdapter",
          "name": "",
          "type": "address"
        }
      ],
      "stateMutability": "view",
      "type": "function"
    },
    {
      "inputs": [
        {
          "internalType": "uint256",
          "name": "",
          "type": "uint256"
        }
      ],
      "name": "cbridgeSenders",
      "outputs": [
        {
          "internalType": "address",
          "name": "",
          "type": "address"
        }
      ],
      "stateMutability": "view",
      "type": "function"
    },
    {
      "inputs": [],
      "name": "chainIdOnLP",
      "outputs": [
        {
          "internalType": "uint256",
          "name": "",
          "type": "uint256"
        }
      ],
      "stateMutability": "view",
      "type": "function"
    },
    {
      "inputs": [
        {
          "internalType": "uint256[]",
          "name": "_chainIds",
          "type": "uint256[]"
        },
        {
          "internalType": "bytes",
          "name": "_signature",
          "type": "bytes"
        }
      ],
      "name": "claim",
      "outputs": [
        {
          "internalType": "uint256",
          "name": "_feeAmt",
          "type": "uint256"
        }
      ],
      "stateMutability": "payable",
      "type": "function"
    },
    {
      "inputs": [
        {
          "internalType": "address",
          "name": "_account",
          "type": "address"
        }
      ],
      "name": "claimByAgent",
      "outputs": [],
      "stateMutability": "nonpayable",
      "type": "function"
    },
    {
      "inputs": [
        {
          "internalType": "uint256[]",
          "name": "_toChainIds",
          "type": "uint256[]"
        },
        {
          "internalType": "address[]",
          "name": "_tokens",
          "type": "address[]"
        },
        {
          "internalType": "uint256[]",
          "name": "_USDTAmts",
          "type": "uint256[]"
        },
        {
          "internalType": "uint256",
          "name": "_minterNonce",
          "type": "uint256"
        },
        {
          "internalType": "bytes",
          "name": "_signature",
          "type": "bytes"
        }
      ],
      "name": "deposit",
      "outputs": [
        {
          "internalType": "uint256",
          "name": "_feeAmt",
          "type": "uint256"
        }
      ],
      "stateMutability": "payable",
      "type": "function"
    },
    {
      "inputs": [
        {
          "internalType": "address",
          "name": "_account",
          "type": "address"
        },
        {
          "internalType": "address[]",
          "name": "_tokens",
          "type": "address[]"
        },
        {
          "internalType": "uint256[]",
          "name": "_USDTAmts",
          "type": "uint256[]"
        },
        {
          "internalType": "uint256",
          "name": "_minterNonce",
          "type": "uint256"
        }
      ],
      "name": "depositByAgent",
      "outputs": [],
      "stateMutability": "nonpayable",
      "type": "function"
    },
    {
      "inputs": [
        {
          "internalType": "uint256",
          "name": "_gatheredAmount",
          "type": "uint256"
        },
        {
          "internalType": "bytes",
          "name": "_signature",
          "type": "bytes"
        }
      ],
      "name": "exitWithdrawal",
      "outputs": [
        {
          "internalType": "uint256",
          "name": "_feeAmt",
          "type": "uint256"
        }
      ],
      "stateMutability": "payable",
      "type": "function"
    },
    {
      "inputs": [
        {
          "internalType": "address",
          "name": "_account",
          "type": "address"
        }
      ],
      "name": "exitWithdrawalByAdmin",
      "outputs": [],
      "stateMutability": "nonpayable",
      "type": "function"
    },
    {
      "inputs": [
        {
          "internalType": "bytes4",
          "name": "",
          "type": "bytes4"
        }
      ],
      "name": "gasAmounts",
      "outputs": [
        {
          "internalType": "uint256",
          "name": "",
          "type": "uint256"
        }
      ],
      "stateMutability": "view",
      "type": "function"
    },
    {
      "inputs": [
        {
          "internalType": "uint256",
          "name": "",
          "type": "uint256"
        }
      ],
      "name": "gasCosts",
      "outputs": [
        {
          "internalType": "uint256",
          "name": "",
          "type": "uint256"
        }
      ],
      "stateMutability": "view",
      "type": "function"
    },
    {
      "inputs": [
        {
          "internalType": "uint256[]",
          "name": "_fromChainIds",
          "type": "uint256[]"
        },
        {
          "internalType": "enum BasicUserAgentBase.AdapterType[]",
          "name": "_adapterTypes",
          "type": "uint8[]"
        },
        {
          "internalType": "bytes",
          "name": "_signature",
          "type": "bytes"
        }
      ],
      "name": "gather",
      "outputs": [
        {
          "internalType": "uint256",
          "name": "_feeAmt",
          "type": "uint256"
        }
      ],
      "stateMutability": "payable",
      "type": "function"
    },
    {
      "inputs": [
        {
          "internalType": "address",
          "name": "_account",
          "type": "address"
        },
        {
          "internalType": "uint256",
          "name": "_toChainId",
          "type": "uint256"
        },
        {
          "internalType": "enum BasicUserAgentBase.AdapterType",
          "name": "_adapterType",
          "type": "uint8"
        }
      ],
      "name": "gatherByAdmin",
      "outputs": [],
      "stateMutability": "nonpayable",
      "type": "function"
    },
    {
      "inputs": [
        {
          "internalType": "bytes",
          "name": "message",
          "type": "bytes"
        }
      ],
      "name": "getMessageHashForSafe",
      "outputs": [
        {
          "internalType": "bytes32",
          "name": "",
          "type": "bytes32"
        }
      ],
      "stateMutability": "view",
      "type": "function"
    },
    {
      "inputs": [
        {
          "internalType": "bytes32",
          "name": "role",
          "type": "bytes32"
        }
      ],
      "name": "getRoleAdmin",
      "outputs": [
        {
          "internalType": "bytes32",
          "name": "",
          "type": "bytes32"
        }
      ],
      "stateMutability": "view",
      "type": "function"
    },
    {
      "inputs": [
        {
          "internalType": "bytes32",
          "name": "role",
          "type": "bytes32"
        },
        {
          "internalType": "uint256",
          "name": "index",
          "type": "uint256"
        }
      ],
      "name": "getRoleMember",
      "outputs": [
        {
          "internalType": "address",
          "name": "",
          "type": "address"
        }
      ],
      "stateMutability": "view",
      "type": "function"
    },
    {
      "inputs": [
        {
          "internalType": "bytes32",
          "name": "role",
          "type": "bytes32"
        }
      ],
      "name": "getRoleMemberCount",
      "outputs": [
        {
          "internalType": "uint256",
          "name": "",
          "type": "uint256"
        }
      ],
      "stateMutability": "view",
      "type": "function"
    },
    {
      "inputs": [
        {
          "internalType": "bytes32",
          "name": "role",
          "type": "bytes32"
        },
        {
          "internalType": "address",
          "name": "account",
          "type": "address"
        }
      ],
      "name": "grantRole",
      "outputs": [],
      "stateMutability": "nonpayable",
      "type": "function"
    },
    {
      "inputs": [
        {
          "internalType": "bytes32",
          "name": "role",
          "type": "bytes32"
        },
        {
          "internalType": "address",
          "name": "account",
          "type": "address"
        }
      ],
      "name": "hasRole",
      "outputs": [
        {
          "internalType": "bool",
          "name": "",
          "type": "bool"
        }
      ],
      "stateMutability": "view",
      "type": "function"
    },
    {
      "inputs": [
        {
          "internalType": "uint256",
          "name": "_pool",
          "type": "uint256"
        },
        {
          "internalType": "uint256",
          "name": "_USDT6Amt",
          "type": "uint256"
        },
        {
          "internalType": "bytes",
          "name": "_signature",
          "type": "bytes"
        }
      ],
      "name": "initDeposit",
      "outputs": [
        {
          "internalType": "uint256",
          "name": "_feeAmt",
          "type": "uint256"
        }
      ],
      "stateMutability": "payable",
      "type": "function"
    },
    {
      "inputs": [
        {
          "internalType": "address",
          "name": "_account",
          "type": "address"
        },
        {
          "internalType": "uint256",
          "name": "_pool",
          "type": "uint256"
        },
        {
          "internalType": "uint256",
          "name": "_USDT6Amt",
          "type": "uint256"
        }
      ],
      "name": "initDepositByAdmin",
      "outputs": [],
      "stateMutability": "nonpayable",
      "type": "function"
    },
    {
      "inputs": [
        {
          "internalType": "address",
          "name": "_treasury",
          "type": "address"
        },
        {
          "internalType": "address",
          "name": "_admin",
          "type": "address"
        },
        {
          "internalType": "contract ISwap",
          "name": "_swap",
          "type": "address"
        },
        {
          "internalType": "contract IXChainAdapter",
          "name": "_multichainAdapter",
          "type": "address"
        },
        {
          "internalType": "contract IXChainAdapter",
          "name": "_cbridgeAdapter",
          "type": "address"
        }
      ],
      "name": "initialize",
      "outputs": [],
      "stateMutability": "nonpayable",
      "type": "function"
    },
    {
      "inputs": [
        {
          "internalType": "address",
          "name": "_subImpl",
          "type": "address"
        },
        {
          "internalType": "address",
          "name": "_treasury",
          "type": "address"
        },
        {
          "internalType": "address",
          "name": "_admin",
          "type": "address"
        },
        {
          "internalType": "contract ISwap",
          "name": "_swap",
          "type": "address"
        },
        {
          "internalType": "contract IXChainAdapter",
          "name": "_multichainAdapter",
          "type": "address"
        },
        {
          "internalType": "contract IXChainAdapter",
          "name": "_cbridgeAdapter",
          "type": "address"
        },
        {
          "internalType": "contract ISTIMinter",
          "name": "_stiMinter",
          "type": "address"
        },
        {
          "internalType": "contract ISTIVault",
          "name": "_stiVault",
          "type": "address"
        }
      ],
      "name": "initialize1",
      "outputs": [],
      "stateMutability": "nonpayable",
      "type": "function"
    },
    {
      "inputs": [],
      "name": "isLPChain",
      "outputs": [
        {
          "internalType": "bool",
          "name": "",
          "type": "bool"
        }
      ],
      "stateMutability": "view",
      "type": "function"
    },
    {
      "inputs": [
        {
          "internalType": "address",
          "name": "forwarder",
          "type": "address"
        }
      ],
      "name": "isTrustedForwarder",
      "outputs": [
        {
          "internalType": "bool",
          "name": "",
          "type": "bool"
        }
      ],
      "stateMutability": "view",
      "type": "function"
    },
    {
      "inputs": [
        {
          "internalType": "address",
          "name": "_account",
          "type": "address"
        },
        {
          "internalType": "bytes",
          "name": "_data",
          "type": "bytes"
        },
        {
          "internalType": "bytes",
          "name": "_signature",
          "type": "bytes"
        }
      ],
      "name": "isValidSignature",
      "outputs": [
        {
          "internalType": "bool",
          "name": "",
          "type": "bool"
        }
      ],
      "stateMutability": "view",
      "type": "function"
    },
    {
      "inputs": [
        {
          "internalType": "address",
          "name": "_token",
          "type": "address"
        },
        {
          "internalType": "uint256",
          "name": "_toChainId",
          "type": "uint256"
        },
        {
          "internalType": "enum BasicUserAgentBase.AdapterType",
          "name": "_adapterType",
          "type": "uint8"
        }
      ],
      "name": "minTransfer",
      "outputs": [
        {
          "internalType": "uint256",
          "name": "",
          "type": "uint256"
        }
      ],
      "stateMutability": "view",
      "type": "function"
    },
    {
      "inputs": [
        {
          "internalType": "uint256",
          "name": "_USDT6Amt",
          "type": "uint256"
        },
        {
          "internalType": "bytes",
          "name": "_signature",
          "type": "bytes"
        }
      ],
      "name": "mint",
      "outputs": [
        {
          "internalType": "uint256",
          "name": "_feeAmt",
          "type": "uint256"
        }
      ],
      "stateMutability": "payable",
      "type": "function"
    },
    {
      "inputs": [
        {
          "internalType": "address",
          "name": "_account",
          "type": "address"
        },
        {
          "internalType": "uint256",
          "name": "_USDT6Amt",
          "type": "uint256"
        }
      ],
      "name": "mintByAdmin",
      "outputs": [],
      "stateMutability": "nonpayable",
      "type": "function"
    },
    {
      "inputs": [],
      "name": "multichainAdapter",
      "outputs": [
        {
          "internalType": "contract IXChainAdapter",
          "name": "",
          "type": "address"
        }
      ],
      "stateMutability": "view",
      "type": "function"
    },
    {
      "inputs": [
        {
          "internalType": "address",
          "name": "",
          "type": "address"
        }
      ],
      "name": "nonces",
      "outputs": [
        {
          "internalType": "uint256",
          "name": "",
          "type": "uint256"
        }
      ],
      "stateMutability": "view",
      "type": "function"
    },
    {
      "inputs": [
        {
          "internalType": "uint256",
          "name": "_cbridgeNonce",
          "type": "uint256"
        },
        {
          "internalType": "address",
          "name": "_token",
          "type": "address"
        },
        {
          "internalType": "uint256",
          "name": "amount",
          "type": "uint256"
        },
        {
          "internalType": "uint256",
          "name": "",
          "type": "uint256"
        },
        {
          "internalType": "address",
          "name": "",
          "type": "address"
        }
      ],
      "name": "onRefunded",
      "outputs": [],
      "stateMutability": "nonpayable",
      "type": "function"
    },
    {
      "inputs": [],
      "name": "owner",
      "outputs": [
        {
          "internalType": "address",
          "name": "",
          "type": "address"
        }
      ],
      "stateMutability": "view",
      "type": "function"
    },
    {
      "inputs": [],
      "name": "pause",
      "outputs": [],
      "stateMutability": "nonpayable",
      "type": "function"
    },
    {
      "inputs": [],
      "name": "paused",
      "outputs": [
        {
          "internalType": "bool",
          "name": "",
          "type": "bool"
        }
      ],
      "stateMutability": "view",
      "type": "function"
    },
    {
      "inputs": [],
      "name": "renounceOwnership",
      "outputs": [],
      "stateMutability": "nonpayable",
      "type": "function"
    },
    {
      "inputs": [
        {
          "internalType": "bytes32",
          "name": "role",
          "type": "bytes32"
        },
        {
          "internalType": "address",
          "name": "account",
          "type": "address"
        }
      ],
      "name": "renounceRole",
      "outputs": [],
      "stateMutability": "nonpayable",
      "type": "function"
    },
    {
      "inputs": [
        {
          "internalType": "bytes32",
          "name": "role",
          "type": "bytes32"
        },
        {
          "internalType": "address",
          "name": "account",
          "type": "address"
        }
      ],
      "name": "revokeRole",
      "outputs": [],
      "stateMutability": "nonpayable",
      "type": "function"
    },
    {
      "inputs": [
        {
          "internalType": "address",
          "name": "_admin",
          "type": "address"
        }
      ],
      "name": "setAdmin",
      "outputs": [],
      "stateMutability": "nonpayable",
      "type": "function"
    },
    {
      "inputs": [
        {
          "internalType": "address",
          "name": "_biconomy",
          "type": "address"
        }
      ],
      "name": "setBiconomy",
      "outputs": [],
      "stateMutability": "nonpayable",
      "type": "function"
    },
    {
      "inputs": [
        {
          "internalType": "contract IXChainAdapter",
          "name": "_cbridgeAdapter",
          "type": "address"
        }
      ],
      "name": "setCBridgeAdapter",
      "outputs": [],
      "stateMutability": "nonpayable",
      "type": "function"
    },
    {
      "inputs": [
        {
          "internalType": "uint256[]",
          "name": "_chainIds",
          "type": "uint256[]"
        },
        {
          "internalType": "enum BasicUserAgentBase.AdapterType[]",
          "name": "_adapterTypes",
          "type": "uint8[]"
        }
      ],
      "name": "setCallAdapterTypes",
      "outputs": [],
      "stateMutability": "nonpayable",
      "type": "function"
    },
    {
      "inputs": [
        {
          "internalType": "bytes4[]",
          "name": "_selectors",
          "type": "bytes4[]"
        },
        {
          "internalType": "uint256[]",
          "name": "_amounts",
          "type": "uint256[]"
        }
      ],
      "name": "setGasAmounts",
      "outputs": [],
      "stateMutability": "nonpayable",
      "type": "function"
    },
    {
      "inputs": [
        {
          "internalType": "uint256[]",
          "name": "_chainIds",
          "type": "uint256[]"
        },
        {
          "internalType": "uint256[]",
          "name": "_costs",
          "type": "uint256[]"
        }
      ],
      "name": "setGasCosts",
      "outputs": [],
      "stateMutability": "nonpayable",
      "type": "function"
    },
    {
      "inputs": [
        {
          "internalType": "contract IXChainAdapter",
          "name": "_multichainAdapter",
          "type": "address"
        }
      ],
      "name": "setMultichainAdapter",
      "outputs": [],
      "stateMutability": "nonpayable",
      "type": "function"
    },
    {
      "inputs": [
        {
          "internalType": "contract ISTIMinter",
          "name": "_stiMinter",
          "type": "address"
        }
      ],
      "name": "setSTIMinter",
      "outputs": [],
      "stateMutability": "nonpayable",
      "type": "function"
    },
    {
      "inputs": [
        {
          "internalType": "contract ISTIVault",
          "name": "_stiVault",
          "type": "address"
        }
      ],
      "name": "setSTIVault",
      "outputs": [],
      "stateMutability": "nonpayable",
      "type": "function"
    },
    {
      "inputs": [
        {
          "internalType": "address",
          "name": "_subImpl",
          "type": "address"
        }
      ],
      "name": "setSubImpl",
      "outputs": [],
      "stateMutability": "nonpayable",
      "type": "function"
    },
    {
      "inputs": [
        {
          "internalType": "contract ISwap",
          "name": "_swap",
          "type": "address"
        }
      ],
      "name": "setSwapper",
      "outputs": [],
      "stateMutability": "nonpayable",
      "type": "function"
    },
    {
      "inputs": [
        {
          "internalType": "address",
          "name": "_wallet",
          "type": "address"
        }
      ],
      "name": "setTreasuryWallet",
      "outputs": [],
      "stateMutability": "nonpayable",
      "type": "function"
    },
    {
      "inputs": [
        {
          "internalType": "uint256[]",
          "name": "_chainIds",
          "type": "uint256[]"
        },
        {
          "internalType": "address[]",
          "name": "_userAgents",
          "type": "address[]"
        }
      ],
      "name": "setUserAgents",
      "outputs": [],
      "stateMutability": "nonpayable",
      "type": "function"
    },
    {
      "inputs": [],
      "name": "stiMinter",
      "outputs": [
        {
          "internalType": "contract ISTIMinter",
          "name": "",
          "type": "address"
        }
      ],
      "stateMutability": "view",
      "type": "function"
    },
    {
      "inputs": [],
      "name": "stiVault",
      "outputs": [
        {
          "internalType": "contract ISTIVault",
          "name": "",
          "type": "address"
        }
      ],
      "stateMutability": "view",
      "type": "function"
    },
    {
      "inputs": [],
      "name": "subImpl",
      "outputs": [
        {
          "internalType": "address",
          "name": "",
          "type": "address"
        }
      ],
      "stateMutability": "view",
      "type": "function"
    },
    {
      "inputs": [
        {
          "internalType": "bytes4",
          "name": "interfaceId",
          "type": "bytes4"
        }
      ],
      "name": "supportsInterface",
      "outputs": [
        {
          "internalType": "bool",
          "name": "",
          "type": "bool"
        }
      ],
      "stateMutability": "view",
      "type": "function"
    },
    {
      "inputs": [
        {
          "internalType": "uint256",
          "name": "_gatheredAmount",
          "type": "uint256"
        },
        {
          "internalType": "bytes",
          "name": "_signature",
          "type": "bytes"
        }
      ],
      "name": "takeOut",
      "outputs": [],
      "stateMutability": "nonpayable",
      "type": "function"
    },
    {
      "inputs": [],
      "name": "temp",
      "outputs": [],
      "stateMutability": "nonpayable",
      "type": "function"
    },
    {
      "inputs": [
        {
          "internalType": "uint256[]",
          "name": "_amounts",
          "type": "uint256[]"
        },
        {
          "internalType": "uint256[]",
          "name": "_toChainIds",
          "type": "uint256[]"
        },
        {
          "internalType": "enum BasicUserAgentBase.AdapterType[]",
          "name": "_adapterTypes",
          "type": "uint8[]"
        },
        {
          "internalType": "bytes",
          "name": "_signature",
          "type": "bytes"
        }
      ],
      "name": "transfer",
      "outputs": [
        {
          "internalType": "uint256",
          "name": "_feeAmt",
          "type": "uint256"
        }
      ],
      "stateMutability": "payable",
      "type": "function"
    },
    {
      "inputs": [
        {
          "internalType": "address",
          "name": "newOwner",
          "type": "address"
        }
      ],
      "name": "transferOwnership",
      "outputs": [],
      "stateMutability": "nonpayable",
      "type": "function"
    },
    {
      "inputs": [],
      "name": "treasuryWallet",
      "outputs": [
        {
          "internalType": "address",
          "name": "",
          "type": "address"
        }
      ],
      "stateMutability": "view",
      "type": "function"
    },
    {
      "inputs": [],
      "name": "trustedForwarder",
      "outputs": [
        {
          "internalType": "address",
          "name": "",
          "type": "address"
        }
      ],
      "stateMutability": "view",
      "type": "function"
    },
    {
      "inputs": [],
      "name": "unpause",
      "outputs": [],
      "stateMutability": "nonpayable",
      "type": "function"
    },
    {
      "inputs": [
        {
          "internalType": "address",
          "name": "",
          "type": "address"
        }
      ],
      "name": "usdcBalances",
      "outputs": [
        {
          "internalType": "uint256",
          "name": "",
          "type": "uint256"
        }
      ],
      "stateMutability": "view",
      "type": "function"
    },
    {
      "inputs": [
        {
          "internalType": "address",
          "name": "",
          "type": "address"
        }
      ],
      "name": "usdtBalances",
      "outputs": [
        {
          "internalType": "uint256",
          "name": "",
          "type": "uint256"
        }
      ],
      "stateMutability": "view",
      "type": "function"
    },
    {
      "inputs": [
        {
          "internalType": "uint256",
          "name": "",
          "type": "uint256"
        }
      ],
      "name": "userAgents",
      "outputs": [
        {
          "internalType": "address",
          "name": "",
          "type": "address"
        }
      ],
      "stateMutability": "view",
      "type": "function"
    },
    {
      "inputs": [],
      "name": "versionRecipient",
      "outputs": [
        {
          "internalType": "string",
          "name": "",
          "type": "string"
        }
      ],
      "stateMutability": "pure",
      "type": "function"
    },
    {
      "inputs": [
        {
          "internalType": "uint256[]",
          "name": "_chainIds",
          "type": "uint256[]"
        },
        {
          "internalType": "uint256",
          "name": "_sharePerc",
          "type": "uint256"
        },
        {
          "internalType": "uint256",
          "name": "_minterNonce",
          "type": "uint256"
        },
        {
          "internalType": "bytes",
          "name": "_signature",
          "type": "bytes"
        }
      ],
      "name": "withdraw",
      "outputs": [
        {
          "internalType": "uint256",
          "name": "_feeAmt",
          "type": "uint256"
        }
      ],
      "stateMutability": "payable",
      "type": "function"
    },
    {
      "inputs": [],
      "name": "withdrawFee",
      "outputs": [],
      "stateMutability": "nonpayable",
      "type": "function"
    },
    {
      "inputs": [
        {
          "internalType": "address",
          "name": "_account",
          "type": "address"
        },
        {
          "internalType": "uint256",
          "name": "_sharePerc",
          "type": "uint256"
        },
        {
          "internalType": "uint256",
          "name": "_minterNonce",
          "type": "uint256"
        }
      ],
      "name": "withdrawPercByAgent",
      "outputs": [],
      "stateMutability": "nonpayable",
      "type": "function"
    },
    {
      "stateMutability": "payable",
      "type": "receive"
    }
  ],
  "transactionHash": "0x18a4f71cc01305800f0e37a5653dea278452c57198fc4a12a041c000baae5bd5",
  "args": [],
  "numDeployments": 6,
  "solcInputHash": "04842d089792fcf0727a890f678740e1",
  "bytecode": "0x608060405234801561001057600080fd5b506150f8806100206000396000f3fe6080604052600436106104565760003560e01c80637da0a8771161023f578063af3da2f411610139578063e4ebcbd0116100b6578063f2ea16181161007a578063f2ea161814610d43578063f2fde38b14610d7a578063f77de486146105f8578063f7bb364c14610d9a578063f851a44014610db557600080fd5b8063e4ebcbd014610cd3578063e629f7b314610cf3578063e941fa7814610d0e578063e9e81a6a14610cf3578063f203d04714610d2357600080fd5b8063d1dbbc60116100fd578063d1dbbc6014610c76578063d48a3d3d14610c84578063d547741f14610c92578063db7fd40814610a6b578063ddd8793414610cb257600080fd5b8063af3da2f414610be2578063b8a6752d14610c02578063c54e44eb14610c15578063c7205bce14610c36578063ca15c87314610c5657600080fd5b806389a30271116101c75780639c82f2a41161018b5780639c82f2a414610b3f5780639e17747a14610b5f578063a217fddf14610b7f578063a8602fea14610b94578063a99c68c514610bb457600080fd5b806389a3027114610ab15780638da5cb5b14610ad25780639010d07c14610af1578063918f1a5c14610b1157806391d1485414610b1f57600080fd5b80638365d5ee1161020e5780638365d5ee14610a305780638456cb5914610a565780638476273914610a6b57806386355d9614610a7e578063897fd46914610a9157600080fd5b80637da0a877146109af5780637ecebe00146109cf5780638033a805146109fd57806380a5a37114610a1d57600080fd5b80634626402b116103505780635f2b3737116102d85780636f6a88621161029c5780636f6a88621461091a578063704013591461093a578063704b6c021461095a578063715018a61461097a578063754fc0c81461098f57600080fd5b80635f2b3737146108805780636687977f146108a0578063673402e5146108b35780636e5677ce146108c85780636ebf33ce146108e357600080fd5b8063572b6c051161031f578063572b6c05146107ca57806357cdd7f9146107f9578063582489cb1461081a578063582712b1146108485780635c975abb1461086857600080fd5b80634626402b14610739578063472c38ff1461075a578063486ff0cd1461077a5780634d944755146107aa57600080fd5b8063248a9ca3116103de57806336568abe116103a257806336568abe1461067857806339dacedb146106985780633f4ba83a146106d6578063407a2e98146106eb57806343a463c71461071957600080fd5b8063248a9ca3146105c8578063264489ce146105f857806328054fb7146106185780632f2ff15d1461063857806331e8df891461065857600080fd5b80630d8b76a8116104255780630d8b76a8146105215780631459457a14610543578063187f3c541461056357806319463093146105915780631a5787d8146105b157600080fd5b8063013dee701461046257806301ffc9a7146104a057806302a882e6146104d05780630c3a18211461050057600080fd5b3661045d57005b600080fd5b34801561046e57600080fd5b5061019554610483906001600160a01b031681565b6040516001600160a01b0390911681526020015b60405180910390f35b3480156104ac57600080fd5b506104c06104bb3660046141d8565b610dd6565b6040519015158152602001610497565b3480156104dc57600080fd5b506104f26000805160206150a383398151915281565b604051908152602001610497565b34801561050c57600080fd5b5061016654610483906001600160a01b031681565b34801561052d57600080fd5b5061054161053c366004614208565b610e01565b005b34801561054f57600080fd5b5061054161055e366004614225565b610e76565b34801561056f57600080fd5b506104f261057e366004614296565b61016c6020526000908152604090205481565b34801561059d57600080fd5b506104f26105ac366004614364565b611029565b3480156105bd57600080fd5b506104f26101925481565b3480156105d457600080fd5b506104f26105e3366004614296565b60009081526097602052604090206001015490565b34801561060457600080fd5b50610541610613366004614208565b611075565b34801561062457600080fd5b506105416106333660046143a7565b611081565b34801561064457600080fd5b506105416106533660046143e5565b61108f565b34801561066457600080fd5b50610541610673366004614208565b6110b9565b34801561068457600080fd5b506105416106933660046143e5565b61113d565b3480156106a457600080fd5b506106c96106b3366004614296565b61016a6020526000908152604090205460ff1681565b604051610497919061442b565b3480156106e257600080fd5b506105416111c7565b3480156106f757600080fd5b506104f26107063660046141d8565b61016b6020526000908152604090205481565b34801561072557600080fd5b50610541610734366004614453565b611514565b34801561074557600080fd5b5061016d54610483906001600160a01b031681565b34801561076657600080fd5b50610541610775366004614488565b6115a6565b34801561078657600080fd5b5060408051808201825260018152603160f81b6020820152905161049791906144fc565b3480156107b657600080fd5b506105416107c53660046145b2565b61169c565b3480156107d657600080fd5b506104c06107e5366004614208565b6000546001600160a01b0391821691161490565b34801561080557600080fd5b5061016754610483906001600160a01b031681565b34801561082657600080fd5b506104f2610835366004614208565b6101656020526000908152604090205481565b34801561085457600080fd5b506105416108633660046146d5565b61175c565b34801561087457600080fd5b5060fb5460ff166104c0565b34801561088c57600080fd5b5061054161089b3660046147b4565b61176b565b6104f26108ae366004614855565b611883565b3480156108bf57600080fd5b50610541611897565b3480156108d457600080fd5b506105416106333660046148d2565b3480156108ef57600080fd5b506104836108fe366004614296565b610169602052600090815260409020546001600160a01b031681565b34801561092657600080fd5b5061054161093536600461491d565b611902565b34801561094657600080fd5b50610541610955366004614208565b6119b7565b34801561096657600080fd5b50610541610975366004614208565b611be8565b34801561098657600080fd5b50610541611c55565b34801561099b57600080fd5b506105416109aa366004614208565b611ca9565b3480156109bb57600080fd5b50600054610483906001600160a01b031681565b3480156109db57600080fd5b506104f26109ea366004614208565b6101606020526000908152604090205481565b348015610a0957600080fd5b50610541610a18366004614208565b611d1c565b6104f2610a2b366004614969565b611dd1565b348015610a3c57600080fd5b50610193546104839061010090046001600160a01b031681565b348015610a6257600080fd5b50610541611de4565b6104f2610a793660046148d2565b611ed9565b6104f2610a8c3660046149bb565b611eeb565b348015610a9d57600080fd5b50610541610aac366004614a77565b611f00565b348015610abd57600080fd5b5061016254610483906001600160a01b031681565b348015610ade57600080fd5b5061012d546001600160a01b0316610483565b348015610afd57600080fd5b50610483610b0c366004614ad0565b612015565b6104f2610a2b366004614af2565b348015610b2b57600080fd5b506104c0610b3a3660046143e5565b612034565b348015610b4b57600080fd5b50610541610b5a366004614208565b61205f565b348015610b6b57600080fd5b50610541610b7a366004614208565b6120e3565b348015610b8b57600080fd5b506104f2600081565b348015610ba057600080fd5b50610541610baf366004614208565b612167565b348015610bc057600080fd5b506104f2610bcf366004614208565b6101646020526000908152604090205481565b348015610bee57600080fd5b50610541610bfd366004614b70565b61221b565b6104f2610c10366004614969565b612223565b348015610c2157600080fd5b5061016354610483906001600160a01b031681565b348015610c4257600080fd5b506104c0610c51366004614b9c565b61239b565b348015610c6257600080fd5b506104f2610c71366004614296565b61251a565b6104f26108ae366004614be5565b6104f2610a79366004614c7a565b348015610c9e57600080fd5b50610541610cad3660046143e5565b612531565b348015610cbe57600080fd5b5061019454610483906001600160a01b031681565b348015610cdf57600080fd5b506104f2610cee3660046143a7565b612556565b348015610cff57600080fd5b50610541610633366004614453565b348015610d1a57600080fd5b5061054161267f565b348015610d2f57600080fd5b50610541610d3e366004614cd5565b6126e0565b348015610d4f57600080fd5b50610483610d5e366004614296565b610168602052600090815260409020546001600160a01b031681565b348015610d8657600080fd5b50610541610d95366004614208565b6128b4565b348015610da657600080fd5b50610193546104c09060ff1681565b348015610dc157600080fd5b5061015f54610483906001600160a01b031681565b60006001600160e01b03198216635a05180f60e01b1480610dfb5750610dfb8261290a565b92915050565b610e0961293f565b6001600160a01b0316610e2561012d546001600160a01b031690565b6001600160a01b031614610e545760405162461bcd60e51b8152600401610e4b90614d7e565b60405180910390fd5b600080546001600160a01b0319166001600160a01b0392909216919091179055565b6000610e82600161294e565b90508015610e9e576000805460ff60a81b1916600160a81b1790555b6001600160a01b038616610ee75760405162461bcd60e51b815260206004820152601060248201526f1d1c99585cdd5c9e481a5b9d985b1a5960821b6044820152606401610e4b565b610eef6129ee565b610f0c6000610f0761012d546001600160a01b031690565b612a27565b610f14612a31565b610f1e6001612ab9565b61016280546001600160a01b0319166001600160a01b0392909216919091179055610f496000612ab9565b61016380546001600160a01b03199081166001600160a01b039384161790915561016d8054821689841617905561015f8054909116918716919091179055610f908461205f565b610f99836120e3565b610fa2826110b9565b6305e5a4c160e11b60005261016b602052620283077f2d70e6734fd5e0405ac12bd06c0e35dc8bbf9b8fc8cb72137e2af4c27ee11701558015611021576000805460ff60a81b19169055604051600181527f7f26b83ff96e1f2b6a682f133852f6798a09c465da95921460cefb38474024989060200160405180910390a15b505050505050565b805160209182012060015460408051601960f81b81860152600160f81b602182015260228101929092526042808301939093528051808303909301835260629091019052805191012090565b61107d612d17565b5050565b611089612d17565b50505050565b6000828152609760205260409020600101546110aa81612d98565b6110b48383612da9565b505050565b6110c161293f565b6001600160a01b03166110dd61012d546001600160a01b031690565b6001600160a01b0316146111035760405162461bcd60e51b8152600401610e4b90614d7e565b6101675461111a906001600160a01b031682612dcb565b61016780546001600160a01b0319166001600160a01b0392909216919091179055565b61114561293f565b6001600160a01b0316816001600160a01b0316146111bd5760405162461bcd60e51b815260206004820152602f60248201527f416363657373436f6e74726f6c3a2063616e206f6e6c792072656e6f756e636560448201526e103937b632b9903337b91039b2b63360891b6064820152608401610e4b565b61107d8282612e9d565b6111cf61293f565b6001600160a01b03166111eb61012d546001600160a01b031690565b6001600160a01b0316146112115760405162461bcd60e51b8152600401610e4b90614d7e565b60fb5460ff1661125a5760405162461bcd60e51b815260206004820152601460248201527314185d5cd8589b194e881b9bdd081c185d5cd95960621b6044820152606401610e4b565b611262612ebf565b6101635461016654604051636eb1769f60e11b81523060048201526001600160a01b03918216602482015291169063dd62ed3e9060440160206040518083038186803b1580156112b157600080fd5b505afa1580156112c5573d6000803e3d6000fd5b505050506040513d601f19601f820116820180604052508101906112e99190614db3565b61130e57610166546101635461130e916001600160a01b039182169116600019612f58565b6101625461016654604051636eb1769f60e11b81523060048201526001600160a01b03918216602482015291169063dd62ed3e9060440160206040518083038186803b15801561135d57600080fd5b505afa158015611371573d6000803e3d6000fd5b505050506040513d601f19601f820116820180604052508101906113959190614db3565b6113ba5761016654610162546113ba916001600160a01b039182169116600019612f58565b6101635461016754604051636eb1769f60e11b81523060048201526001600160a01b03918216602482015291169063dd62ed3e9060440160206040518083038186803b15801561140957600080fd5b505afa15801561141d573d6000803e3d6000fd5b505050506040513d601f19601f820116820180604052508101906114419190614db3565b611466576101675461016354611466916001600160a01b039182169116600019612f58565b6101625461016754604051636eb1769f60e11b81523060048201526001600160a01b03918216602482015291169063dd62ed3e9060440160206040518083038186803b1580156114b557600080fd5b505afa1580156114c9573d6000803e3d6000fd5b505050506040513d601f19601f820116820180604052508101906114ed9190614db3565b611512576101675461016254611512916001600160a01b039182169116600019612f58565b565b6000805160206150a383398151915261152c81612d98565b610193546040516343a463c760e01b81526001600160a01b0386811660048301526024820186905260448201859052610100909204909116906343a463c790606401600060405180830381600087803b15801561158857600080fd5b505af115801561159c573d6000803e3d6000fd5b5050505050505050565b610167546001600160a01b031633146115f05760405162461bcd60e51b815260206004820152600c60248201526b4f6e6c79206342726964676560a01b6044820152606401610e4b565b60008581526101686020526040902054610163546001600160a01b03918216918681169116141561164f576001600160a01b0381166000908152610165602052604081208054869290611644908490614de2565b909155506110219050565b610162546001600160a01b0386811691161415611021576001600160a01b038116600090815261016460205260408120805486929061168f908490614de2565b9091555050505050505050565b6116a461293f565b6001600160a01b03166116c061012d546001600160a01b031690565b6001600160a01b0316146116e65760405162461bcd60e51b8152600401610e4b90614d7e565b60005b82518110156110b457600083828151811061170657611706614dfa565b6020026020010151905082828151811061172257611722614dfa565b6020908102919091018101516001600160e01b0319909216600090815261016b90915260409020558061175481614e10565b9150506116e9565b611764612d17565b5050505050565b61177361293f565b6001600160a01b031661178f61012d546001600160a01b031690565b6001600160a01b0316146117b55760405162461bcd60e51b8152600401610e4b90614d7e565b815160005b818110156110895760008482815181106117d6576117d6614dfa565b6020026020010151905080600014156118235760405162461bcd60e51b815260206004820152600f60248201526e125b9d985b1a590818da185a5b9251608a1b6044820152606401610e4b565b83828151811061183557611835614dfa565b602090810291909101810151600083815261016a9092526040909120805460ff19166001838181111561186a5761186a614415565b021790555050808061187b90614e10565b9150506117ba565b600061188d612d17565b5095945050505050565b61189f61293f565b6001600160a01b03166118bb61012d546001600160a01b031690565b6001600160a01b0316146118e15760405162461bcd60e51b8152600401610e4b90614d7e565b61a869610192554661019254610193805460ff191692909114919091179055565b61190a61293f565b6001600160a01b031661192661012d546001600160a01b031690565b6001600160a01b03161461194c5760405162461bcd60e51b8152600401610e4b90614d7e565b60005b82518110156110b457600083828151811061196c5761196c614dfa565b6020026020010151905082828151811061198857611988614dfa565b602090810291909101810151600092835261016c909152604090912055806119af81614e10565b91505061194f565b6119bf61293f565b6001600160a01b03166119db61012d546001600160a01b031690565b6001600160a01b031614611a015760405162461bcd60e51b8152600401610e4b90614d7e565b6001600160a01b038116611a475760405162461bcd60e51b815260206004820152600d60248201526c125b9d985b1a59081d985d5b1d609a1b6044820152606401610e4b565b610194546001600160a01b03168015611a8c5761016354611a73906001600160a01b0316826000612f58565b61016254611a8c906001600160a01b0316826000612f58565b61019480546001600160a01b0319166001600160a01b0384811691821790925561016354604051636eb1769f60e11b815230600482015260248101929092529091169063dd62ed3e9060440160206040518083038186803b158015611af057600080fd5b505afa158015611b04573d6000803e3d6000fd5b505050506040513d601f19601f82011682018060405250810190611b289190614db3565b611b465761016354611b46906001600160a01b031683600019612f58565b61016254604051636eb1769f60e11b81523060048201526001600160a01b0384811660248301529091169063dd62ed3e9060440160206040518083038186803b158015611b9257600080fd5b505afa158015611ba6573d6000803e3d6000fd5b505050506040513d601f19601f82011682018060405250810190611bca9190614db3565b61107d576101625461107d906001600160a01b031683600019612f58565b611bf061293f565b6001600160a01b0316611c0c61012d546001600160a01b031690565b6001600160a01b031614611c325760405162461bcd60e51b8152600401610e4b90614d7e565b61015f80546001600160a01b0319166001600160a01b0392909216919091179055565b611c5d61293f565b6001600160a01b0316611c7961012d546001600160a01b031690565b6001600160a01b031614611c9f5760405162461bcd60e51b8152600401610e4b90614d7e565b611512600061309e565b611cb161293f565b6001600160a01b0316611ccd61012d546001600160a01b031690565b6001600160a01b031614611cf35760405162461bcd60e51b8152600401610e4b90614d7e565b61019380546001600160a01b0390921661010002610100600160a81b0319909216919091179055565b611d2461293f565b6001600160a01b0316611d4061012d546001600160a01b031690565b6001600160a01b031614611d665760405162461bcd60e51b8152600401610e4b90614d7e565b6001600160a01b038116611dae5760405162461bcd60e51b815260206004820152600f60248201526e496e76616c6964206164647265737360881b6044820152606401610e4b565b61019580546001600160a01b0319166001600160a01b0392909216919091179055565b6000611ddb612d17565b50949350505050565b611dec61293f565b6001600160a01b0316611e0861012d546001600160a01b031690565b6001600160a01b031614611e2e5760405162461bcd60e51b8152600401610e4b90614d7e565b60fb5460ff1615611e515760405162461bcd60e51b8152600401610e4b90614e2b565b611e596130f1565b6101665461016354611e79916001600160a01b0391821691166000612f58565b6101665461016254611e99916001600160a01b0391821691166000612f58565b6101675461016354611eb9916001600160a01b0391821691166000612f58565b6101675461016254611512916001600160a01b0391821691166000612f58565b6000611ee3612d17565b509392505050565b6000611ef5612d17565b509695505050505050565b611f0861293f565b6001600160a01b0316611f2461012d546001600160a01b031690565b6001600160a01b031614611f4a5760405162461bcd60e51b8152600401610e4b90614d7e565b815160005b81811015611089576000848281518110611f6b57611f6b614dfa565b602002602001015190508060001415611fb85760405162461bcd60e51b815260206004820152600f60248201526e125b9d985b1a590818da185a5b9251608a1b6044820152606401610e4b565b838281518110611fca57611fca614dfa565b6020908102919091018101516000928352610169909152604090912080546001600160a01b0319166001600160a01b039092169190911790558061200d81614e10565b915050611f4f565b600082815260c96020526040812061202d908361314a565b9392505050565b60009182526097602090815260408084206001600160a01b0393909316845291905290205460ff1690565b61206761293f565b6001600160a01b031661208361012d546001600160a01b031690565b6001600160a01b0316146120a95760405162461bcd60e51b8152600401610e4b90614d7e565b610161546120c0906001600160a01b031682613156565b61016180546001600160a01b0319166001600160a01b0392909216919091179055565b6120eb61293f565b6001600160a01b031661210761012d546001600160a01b031690565b6001600160a01b03161461212d5760405162461bcd60e51b8152600401610e4b90614d7e565b61016654612144906001600160a01b031682612dcb565b61016680546001600160a01b0319166001600160a01b0392909216919091179055565b61216f61293f565b6001600160a01b031661218b61012d546001600160a01b031690565b6001600160a01b0316146121b15760405162461bcd60e51b8152600401610e4b90614d7e565b6001600160a01b0381166121f85760405162461bcd60e51b815260206004820152600e60248201526d1dd85b1b195d081a5b9d985b1a5960921b6044820152606401610e4b565b61016d80546001600160a01b0319166001600160a01b0392909216919091179055565b6110b4612d17565b600061223160fb5460ff1690565b1561224e5760405162461bcd60e51b8152600401610e4b90614e2b565b600061225861293f565b6001600160a01b038116600090815261016060209081526040918290205491516bffffffffffffffffffffffff19606085901b169181019190915260348101829052605481018990526074810188905291925034916122d1906094016040516020818303038152906040528051906020012087876131de565b6101935460ff161561235657610193546040516343a463c760e01b81526001600160a01b038581166004830152602482018b9052604482018a9052610100909204909116906343a463c790606401600060405180830381600087803b15801561233957600080fd5b505af115801561234d573d6000803e3d6000fd5b5050505061235b565b600093505b612366816001614de2565b6001600160a01b038416600090815261016060205260409020558115612390576123908383613252565b505050949350505050565b6000806123a785611029565b90506001600160a01b0386163b15612403576123fb86828787878080601f01602080910402602001604051908101604052809392919081815260200183838082843760009201919091525061330592505050565b915050612512565b600080600061244787878080601f016020809104026020016040519081016040528093929190818152602001838380828437600092018290525092506133a1915050565b6040517f19457468657265756d205369676e6564204d6573736167653a0a3332000000006020820152603c81018890529295509093509150600090605c0160408051601f198184030181528282528051602091820120600080855291840180845281905260ff88169284019290925260608301869052608083018590529092509060019060a0016020604051602081039080840390855afa1580156124f0573d6000803e3d6000fd5b5050604051601f1901516001600160a01b038d81169116149750505050505050505b949350505050565b600081815260c960205260408120610dfb906133bf565b60008281526097602052604090206001015461254c81612d98565b6110b48383612e9d565b60008082600181111561256b5761256b614415565b146125fa5761016754604051632bdb981960e11b81526001600160a01b03868116600483015260248201869052909116906357b730329060440160206040518083038186803b1580156125bd57600080fd5b505afa1580156125d1573d6000803e3d6000fd5b505050506040513d601f19601f820116820180604052508101906125f59190614db3565b612512565b61016654604051632bdb981960e11b81526001600160a01b03868116600483015260248201869052909116906357b730329060440160206040518083038186803b15801561264757600080fd5b505afa15801561265b573d6000803e3d6000fd5b505050506040513d601f19601f820116820180604052508101906125129190614db3565b61268761293f565b6001600160a01b03166126a361012d546001600160a01b031690565b6001600160a01b0316146126c95760405162461bcd60e51b8152600401610e4b90614d7e565b61016d54611512906001600160a01b031647613252565b60006126ec600161294e565b90508015612708576000805460ff60a81b1916600160a81b1790555b6127106129ee565b6127286000610f0761012d546001600160a01b031690565b612730612a31565b61273a60016133c9565b61016280546001600160a01b0319166001600160a01b039290921691909117905561276560006133c9565b61016380546001600160a01b03199081166001600160a01b039384161790915561016d805482168b841617905561015f80549091169189169190911790556127ac8661205f565b6127b5856120e3565b6127be846110b9565b61019580546001600160a01b0319166001600160a01b038b1617905561a8696101925546610192546101938054634e45415360005261016a6020527f6c585d855e16497087f6ed093c621ebf17e5140687c03b009023a4cdb199a0f4805460ff191660011790556001600160a01b03871661010002610100600160a81b031994909314939093166001600160a81b031990931692909217179055612861826119b7565b80156128a9576000805460ff60a81b19169055604051600181527f7f26b83ff96e1f2b6a682f133852f6798a09c465da95921460cefb38474024989060200160405180910390a15b505050505050505050565b6128bc61293f565b6001600160a01b03166128d861012d546001600160a01b031690565b6001600160a01b0316146128fe5760405162461bcd60e51b8152600401610e4b90614d7e565b61290781613691565b50565b60006001600160e01b03198216637965db0b60e01b1480610dfb57506301ffc9a760e01b6001600160e01b0319831614610dfb565b600061294961370c565b905090565b60008054600160a81b900460ff1615612997578160ff1660011480156129735750303b155b61298f5760405162461bcd60e51b8152600401610e4b90614e55565b506000919050565b60005460ff808416600160a01b90920416106129c55760405162461bcd60e51b8152600401610e4b90614e55565b506000805460ff909216600160a01b0260ff60a01b19909216919091179055600190565b919050565b600054600160a81b900460ff16612a175760405162461bcd60e51b8152600401610e4b90614ea3565b611512612a2261293f565b61309e565b61107d8282612da9565b600054600160a81b900460ff16612a5a5760405162461bcd60e51b8152600401610e4b90614ea3565b612ab460007f47e79534a245952e8b16893a336b85a3d9ea9fa8c573f3d803afb92a794692184660408051602081019390935282015230606082015260800160405160208183030381529060405280519060200120905090565b600155565b600046634e454152811415612b39576001836001811115612adc57612adc614415565b1415612afe575073b12bfca5a55806aaf64e99521918a4bf0fc4080292915050565b6000836001811115612b1257612b12614415565b1415612b345750734988a896b1227218e4a686fde5eabdcabd91571f92915050565b612d0e565b61a86a811415612baf576001836001811115612b5757612b57614415565b1415612b79575073a7d7079b0fead91f3e65f86e8915cb59c1a4c66492915050565b6000836001811115612b8d57612b8d614415565b1415612b34575073c7198437980c041c805a1edcba50c1ce5db9511892915050565b6038811415612c24576001836001811115612bcc57612bcc614415565b1415612bee5750738ac76a51cc950d9822d68b83fe1ad97b32cd580d92915050565b6000836001811115612c0257612c02614415565b1415612b3457507355d398326f99059ff775485246999027b319795592915050565b6001811415612c99576001836001811115612c4157612c41614415565b1415612c63575073a0b86991c6218b36c1d19d4a2e9eb0ce3606eb4892915050565b6000836001811115612c7757612c77614415565b1415612b34575073dac17f958d2ee523a2206206994597c13d831ec792915050565b6089811415612d0e576001836001811115612cb657612cb6614415565b1415612cd85750732791bca1f2de4661ed88a30c99a7a9449aa8417492915050565b6000836001811115612cec57612cec614415565b1415612d0e575073c2132d05d31c914a87c6611c10748aeb04b58e8f92915050565b50600092915050565b610195546040516060916000916001600160a01b0390911690612d3d9083903690614eee565b600060405180830381855af49150503d8060008114612d78576040519150601f19603f3d011682016040523d82523d6000602084013e612d7d565b606091505b505090506040513d6000823e818015612d94573d82f35b3d82fd5b61290781612da461293f565b613740565b612db382826137a4565b600082815260c9602052604090206110b4908261382b565b806001600160a01b0316826001600160a01b03161415612de9575050565b6001600160a01b03821615612e4257612e106000805160206150a383398151915283612e9d565b61016354612e29906001600160a01b0316836000612f58565b61016254612e42906001600160a01b0316836000612f58565b6001600160a01b0381161561107d57612e696000805160206150a383398151915282612a27565b61016254612e83906001600160a01b031682600019612f58565b6101635461107d906001600160a01b031682600019612f58565b612ea78282613840565b600082815260c9602052604090206110b490826138c5565b60fb5460ff16612f085760405162461bcd60e51b815260206004820152601460248201527314185d5cd8589b194e881b9bdd081c185d5cd95960621b6044820152606401610e4b565b60fb805460ff191690557f5db9ee0a495bf2e6ff9c91a7834c1ba4fdd244a5e8aa4e537bd38aeae4b073aa612f3b61293f565b6040516001600160a01b03909116815260200160405180910390a1565b801580612fe15750604051636eb1769f60e11b81523060048201526001600160a01b03838116602483015284169063dd62ed3e9060440160206040518083038186803b158015612fa757600080fd5b505afa158015612fbb573d6000803e3d6000fd5b505050506040513d601f19601f82011682018060405250810190612fdf9190614db3565b155b61304c5760405162461bcd60e51b815260206004820152603660248201527f5361666545524332303a20617070726f76652066726f6d206e6f6e2d7a65726f60448201527520746f206e6f6e2d7a65726f20616c6c6f77616e636560501b6064820152608401610e4b565b604080516001600160a01b038416602482015260448082018490528251808303909101815260649091019091526020810180516001600160e01b031663095ea7b360e01b1790526110b49084906138da565b61012d80546001600160a01b038381166001600160a01b0319831681179093556040519116919082907f8be0079c531659141344cd1fd0a4f28419497f9722a3daafe3b4186f6b6457e090600090a35050565b60fb5460ff16156131145760405162461bcd60e51b8152600401610e4b90614e2b565b60fb805460ff191660011790557f62e78cea01bee320cd4e420270b5ea74000d11b0c9f74754ebdbfc544b05a258612f3b61293f565b600061202d83836139ac565b806001600160a01b0316826001600160a01b03161415613174575050565b6001600160a01b038216156131b5576101635461319c906001600160a01b0316836000612f58565b610162546131b5906001600160a01b0316836000612f58565b6001600160a01b0381161561107d5761016254612e83906001600160a01b031682600019612f58565b61015f546040805160208101869052613212926001600160a01b03169101604051602081830303815290604052848461239b565b6110b45760405162461bcd60e51b8152602060048201526011602482015270496e76616c6964207369676e617475726560781b6044820152606401610e4b565b604080516000808252602082019092526001600160a01b03841690839060405161327c9190614efe565b60006040518083038185875af1925050503d80600081146132b9576040519150601f19603f3d011682016040523d82523d6000602084013e6132be565b606091505b50509050806110b45760405162461bcd60e51b8152602060048201526013602482015272115512081d1c985b9cd9995c8819985a5b1959606a1b6044820152606401610e4b565b600080856001600160a01b031663e75235b86040518163ffffffff1660e01b815260040160206040518083038186803b15801561334157600080fd5b505afa158015613355573d6000803e3d6000fd5b505050506040513d601f19601f820116820180604052508101906133799190614db3565b90508061338a576000915050612512565b61339786868686856139d6565b9695505050505050565b60419081029190910160208101516040820151919092015160ff1692565b6000610dfb825490565b600046634e4541538114156134445760018360018111156133ec576133ec614415565b141561340e575073cceca5c4a3355f8e7a0b7d2a7251eec012be7c5892915050565b600083600181111561342257613422614415565b1415612b34575073f9c249974c1acf96a59e5757cc9ba7035ce489b192915050565b61a8698114156134ba57600183600181111561346257613462614415565b14156134845750737acdaba7ee51c1c3f7c6d605cc26b1c9aab0495a92915050565b600083600181111561349857613498614415565b1415612b3457507378ae2880bd1672b49a33cf796cf53fe6db0ab01d92915050565b606181141561352f5760018360018111156134d7576134d7614415565b14156134f9575073da14d11d2c7d79f167b6057de3d9cc25c2c488d592915050565b600083600181111561350d5761350d614415565b1415612b345750731f326a8ca5399418a76ea0efa0403cbb00790c6792915050565b60048114156135a457600183600181111561354c5761354c614415565b141561356e575073df5324ebe6f6b852ff5cbf73627ee137e907527692915050565b600083600181111561358257613582614415565b1415612b3457507321e48034753e490ff04f2f75f7caedf081b320d592915050565b610fa281141561361a5760018360018111156135c2576135c2614415565b14156135e4575073147abee959a578f2ae5f9bc996dcf6259ebd3a8992915050565b60008360018111156135f8576135f8614415565b1415612b34575073b02068ae04bf5d184efde3583e09f2185a30da0e92915050565b62013881811415612d0e57600183600181111561363957613639614415565b141561365b5750736600bec324ccdd12c70297311aefb37fafb1d68992915050565b600083600181111561366f5761366f614415565b1415612d0e5750737e4c234b1d634db790592d1550816b19e862f74492915050565b61369961293f565b6001600160a01b03166136b561012d546001600160a01b031690565b6001600160a01b0316146136db5760405162461bcd60e51b8152600401610e4b90614d7e565b6136f860006136f361012d546001600160a01b031690565b612e9d565b61370181613c32565b612907600082612a27565b60006018361080159061372957506000546001600160a01b031633145b1561373b575060131936013560601c90565b503390565b61374a8282612034565b61107d57613762816001600160a01b03166014613cea565b61376d836020613cea565b60405160200161377e929190614f1a565b60408051601f198184030181529082905262461bcd60e51b8252610e4b916004016144fc565b6137ae8282612034565b61107d5760008281526097602090815260408083206001600160a01b03851684529091529020805460ff191660011790556137e761293f565b6001600160a01b0316816001600160a01b0316837f2f8788117e7eff1d82e926ec794901d17c78024a50270940304540a733656f0d60405160405180910390a45050565b600061202d836001600160a01b038416613e85565b61384a8282612034565b1561107d5760008281526097602090815260408083206001600160a01b03851684529091529020805460ff1916905561388161293f565b6001600160a01b0316816001600160a01b0316837ff6391f5c32d9c69d2a47ea670b442974b53935d1edc7fd64eb21e047a839171b60405160405180910390a45050565b600061202d836001600160a01b038416613ed4565b600061392f826040518060400160405280602081526020017f5361666545524332303a206c6f772d6c6576656c2063616c6c206661696c6564815250856001600160a01b0316613fc79092919063ffffffff16565b8051909150156110b4578080602001905181019061394d9190614f8f565b6110b45760405162461bcd60e51b815260206004820152602a60248201527f5361666545524332303a204552433230206f7065726174696f6e20646964206e6044820152691bdd081cdd58d8d9595960b21b6064820152608401610e4b565b60008260000182815481106139c3576139c3614dfa565b9060005260206000200154905092915050565b60006139e3826041614fb1565b835110156139f357506000613c29565b600080876001600160a01b031663a0e67e2b6040518163ffffffff1660e01b815260040160006040518083038186803b158015613a2f57600080fd5b505afa158015613a43573d6000803e3d6000fd5b505050506040513d6000823e601f3d908101601f19168201604052613a6b9190810190614fd0565b905060008080805b87811015613c1e5760418181028a0160208101516040820151919092015160ff169550909350915083613b4e579194508491613ab0886041614fb1565b821015613ac65760009650505050505050613c29565b8851613ad3836020614de2565b1115613ae85760009650505050505050613c29565b6020828a018101518a5190918290613b01908690614de2565b613b0b9190614de2565b1115613b21576000975050505050505050613c29565b898301602001613b32888d83613fd6565b613b4757600098505050505050505050613c29565b5050613bef565b6040517f19457468657265756d205369676e6564204d6573736167653a0a3332000000006020820152603c81018c9052600190605c0160408051601f198184030181528282528051602091820120600084529083018083525260ff871690820152606081018590526080810184905260a0016020604051602081039080840390855afa158015613be2573d6000803e3d6000fd5b5050506020604051035195505b613bf98587613ff0565b613c0c5760009650505050505050613c29565b80613c1681614e10565b915050613a73565b600196505050505050505b95945050505050565b613c3a61293f565b6001600160a01b0316613c5661012d546001600160a01b031690565b6001600160a01b031614613c7c5760405162461bcd60e51b8152600401610e4b90614d7e565b6001600160a01b038116613ce15760405162461bcd60e51b815260206004820152602660248201527f4f776e61626c653a206e6577206f776e657220697320746865207a65726f206160448201526564647265737360d01b6064820152608401610e4b565b6129078161309e565b60606000613cf9836002614fb1565b613d04906002614de2565b6001600160401b03811115613d1b57613d1b6142af565b6040519080825280601f01601f191660200182016040528015613d45576020820181803683370190505b509050600360fc1b81600081518110613d6057613d60614dfa565b60200101906001600160f81b031916908160001a905350600f60fb1b81600181518110613d8f57613d8f614dfa565b60200101906001600160f81b031916908160001a9053506000613db3846002614fb1565b613dbe906001614de2565b90505b6001811115613e36576f181899199a1a9b1b9c1cb0b131b232b360811b85600f1660108110613df257613df2614dfa565b1a60f81b828281518110613e0857613e08614dfa565b60200101906001600160f81b031916908160001a90535060049490941c93613e2f8161505e565b9050613dc1565b50831561202d5760405162461bcd60e51b815260206004820181905260248201527f537472696e67733a20686578206c656e67746820696e73756666696369656e746044820152606401610e4b565b6000818152600183016020526040812054613ecc57508154600181810184556000848152602080822090930184905584548482528286019093526040902091909155610dfb565b506000610dfb565b60008181526001830160205260408120548015613fbd576000613ef8600183615075565b8554909150600090613f0c90600190615075565b9050818114613f71576000866000018281548110613f2c57613f2c614dfa565b9060005260206000200154905080876000018481548110613f4f57613f4f614dfa565b6000918252602080832090910192909255918252600188019052604090208390555b8554869080613f8257613f8261508c565b600190038181906000526020600020016000905590558560010160008681526020019081526020016000206000905560019350505050610dfb565b6000915050610dfb565b60606125128484600085614056565b600080613fe284611029565b9050613c2985828686613305565b6000805b835181101561404c57826001600160a01b031684828151811061401957614019614dfa565b60200260200101516001600160a01b0316141561403a576001915050610dfb565b8061404481614e10565b915050613ff4565b5060009392505050565b6060824710156140b75760405162461bcd60e51b815260206004820152602660248201527f416464726573733a20696e73756666696369656e742062616c616e636520666f6044820152651c8818d85b1b60d21b6064820152608401610e4b565b6001600160a01b0385163b61410e5760405162461bcd60e51b815260206004820152601d60248201527f416464726573733a2063616c6c20746f206e6f6e2d636f6e74726163740000006044820152606401610e4b565b600080866001600160a01b0316858760405161412a9190614efe565b60006040518083038185875af1925050503d8060008114614167576040519150601f19603f3d011682016040523d82523d6000602084013e61416c565b606091505b509150915061417c828286614187565b979650505050505050565b6060831561419657508161202d565b8251156141a65782518084602001fd5b8160405162461bcd60e51b8152600401610e4b91906144fc565b80356001600160e01b0319811681146129e957600080fd5b6000602082840312156141ea57600080fd5b61202d826141c0565b6001600160a01b038116811461290757600080fd5b60006020828403121561421a57600080fd5b813561202d816141f3565b600080600080600060a0868803121561423d57600080fd5b8535614248816141f3565b94506020860135614258816141f3565b93506040860135614268816141f3565b92506060860135614278816141f3565b91506080860135614288816141f3565b809150509295509295909350565b6000602082840312156142a857600080fd5b5035919050565b634e487b7160e01b600052604160045260246000fd5b604051601f8201601f191681016001600160401b03811182821017156142ed576142ed6142af565b604052919050565b600082601f83011261430657600080fd5b81356001600160401b0381111561431f5761431f6142af565b614332601f8201601f19166020016142c5565b81815284602083860101111561434757600080fd5b816020850160208301376000918101602001919091529392505050565b60006020828403121561437657600080fd5b81356001600160401b0381111561438c57600080fd5b612512848285016142f5565b8035600281106129e957600080fd5b6000806000606084860312156143bc57600080fd5b83356143c7816141f3565b9250602084013591506143dc60408501614398565b90509250925092565b600080604083850312156143f857600080fd5b82359150602083013561440a816141f3565b809150509250929050565b634e487b7160e01b600052602160045260246000fd5b602081016002831061444d57634e487b7160e01b600052602160045260246000fd5b91905290565b60008060006060848603121561446857600080fd5b8335614473816141f3565b95602085013595506040909401359392505050565b600080600080600060a086880312156144a057600080fd5b8535945060208601356144b2816141f3565b935060408601359250606086013591506080860135614288816141f3565b60005b838110156144eb5781810151838201526020016144d3565b838111156110895750506000910152565b602081526000825180602084015261451b8160408501602087016144d0565b601f01601f19169190910160400192915050565b60006001600160401b03821115614548576145486142af565b5060051b60200190565b600082601f83011261456357600080fd5b813560206145786145738361452f565b6142c5565b82815260059290921b8401810191818101908684111561459757600080fd5b8286015b84811015611ef5578035835291830191830161459b565b600080604083850312156145c557600080fd5b82356001600160401b03808211156145dc57600080fd5b818501915085601f8301126145f057600080fd5b813560206146006145738361452f565b82815260059290921b8401810191818101908984111561461f57600080fd5b948201945b8386101561464457614635866141c0565b82529482019490820190614624565b9650508601359250508082111561465a57600080fd5b5061466785828601614552565b9150509250929050565b600082601f83011261468257600080fd5b813560206146926145738361452f565b82815260059290921b840181019181810190868411156146b157600080fd5b8286015b84811015611ef55780356146c8816141f3565b83529183019183016146b5565b600080600080608085870312156146eb57600080fd5b84356146f6816141f3565b935060208501356001600160401b038082111561471257600080fd5b61471e88838901614671565b9450604087013591508082111561473457600080fd5b5061474187828801614552565b949793965093946060013593505050565b600082601f83011261476357600080fd5b813560206147736145738361452f565b82815260059290921b8401810191818101908684111561479257600080fd5b8286015b84811015611ef5576147a781614398565b8352918301918301614796565b600080604083850312156147c757600080fd5b82356001600160401b03808211156147de57600080fd5b6147ea86838701614552565b9350602085013591508082111561480057600080fd5b5061466785828601614752565b60008083601f84011261481f57600080fd5b5081356001600160401b0381111561483657600080fd5b60208301915083602082850101111561484e57600080fd5b9250929050565b60008060008060006080868803121561486d57600080fd5b85356001600160401b038082111561488457600080fd5b61489089838a01614552565b9650602088013595506040880135945060608801359150808211156148b457600080fd5b506148c18882890161480d565b969995985093965092949392505050565b6000806000604084860312156148e757600080fd5b8335925060208401356001600160401b0381111561490457600080fd5b6149108682870161480d565b9497909650939450505050565b6000806040838503121561493057600080fd5b82356001600160401b038082111561494757600080fd5b61495386838701614552565b9350602085013591508082111561465a57600080fd5b6000806000806060858703121561497f57600080fd5b843593506020850135925060408501356001600160401b038111156149a357600080fd5b6149af8782880161480d565b95989497509550505050565b60008060008060008060a087890312156149d457600080fd5b86356001600160401b03808211156149eb57600080fd5b6149f78a838b01614552565b97506020890135915080821115614a0d57600080fd5b614a198a838b01614671565b96506040890135915080821115614a2f57600080fd5b614a3b8a838b01614552565b9550606089013594506080890135915080821115614a5857600080fd5b50614a6589828a0161480d565b979a9699509497509295939492505050565b60008060408385031215614a8a57600080fd5b82356001600160401b0380821115614aa157600080fd5b614aad86838701614552565b93506020850135915080821115614ac357600080fd5b5061466785828601614671565b60008060408385031215614ae357600080fd5b50508035926020909101359150565b60008060008060608587031215614b0857600080fd5b84356001600160401b0380821115614b1f57600080fd5b614b2b88838901614552565b95506020870135915080821115614b4157600080fd5b614b4d88838901614752565b94506040870135915080821115614b6357600080fd5b506149af8782880161480d565b60008060408385031215614b8357600080fd5b8235614b8e816141f3565b946020939093013593505050565b60008060008060608587031215614bb257600080fd5b8435614bbd816141f3565b935060208501356001600160401b0380821115614bd957600080fd5b614b4d888389016142f5565b600080600080600060808688031215614bfd57600080fd5b85356001600160401b0380821115614c1457600080fd5b614c2089838a01614552565b96506020880135915080821115614c3657600080fd5b614c4289838a01614552565b95506040880135915080821115614c5857600080fd5b614c6489838a01614752565b945060608801359150808211156148b457600080fd5b600080600060408486031215614c8f57600080fd5b83356001600160401b0380821115614ca657600080fd5b614cb287838801614552565b94506020860135915080821115614cc857600080fd5b506149108682870161480d565b600080600080600080600080610100898b031215614cf257600080fd5b8835614cfd816141f3565b97506020890135614d0d816141f3565b96506040890135614d1d816141f3565b95506060890135614d2d816141f3565b94506080890135614d3d816141f3565b935060a0890135614d4d816141f3565b925060c0890135614d5d816141f3565b915060e0890135614d6d816141f3565b809150509295985092959890939650565b6020808252818101527f4f776e61626c653a2063616c6c6572206973206e6f7420746865206f776e6572604082015260600190565b600060208284031215614dc557600080fd5b5051919050565b634e487b7160e01b600052601160045260246000fd5b60008219821115614df557614df5614dcc565b500190565b634e487b7160e01b600052603260045260246000fd5b6000600019821415614e2457614e24614dcc565b5060010190565b60208082526010908201526f14185d5cd8589b194e881c185d5cd95960821b604082015260600190565b6020808252602e908201527f496e697469616c697a61626c653a20636f6e747261637420697320616c72656160408201526d191e481a5b9a5d1a585b1a5e995960921b606082015260800190565b6020808252602b908201527f496e697469616c697a61626c653a20636f6e7472616374206973206e6f74206960408201526a6e697469616c697a696e6760a81b606082015260800190565b8183823760009101908152919050565b60008251614f108184602087016144d0565b9190910192915050565b7f416363657373436f6e74726f6c3a206163636f756e7420000000000000000000815260008351614f528160178501602088016144d0565b7001034b99036b4b9b9b4b733903937b6329607d1b6017918401918201528351614f838160288401602088016144d0565b01602801949350505050565b600060208284031215614fa157600080fd5b8151801515811461202d57600080fd5b6000816000190483118215151615614fcb57614fcb614dcc565b500290565b60006020808385031215614fe357600080fd5b82516001600160401b03811115614ff957600080fd5b8301601f8101851361500a57600080fd5b80516150186145738261452f565b81815260059190911b8201830190838101908783111561503757600080fd5b928401925b8284101561417c57835161504f816141f3565b8252928401929084019061503c565b60008161506d5761506d614dcc565b506000190190565b60008282101561508757615087614dcc565b500390565b634e487b7160e01b600052603160045260246000fdfedbeb657137b1822b3d5418bea6fd641226d964b4c3871ef23546db2622258871a264697066735822122068901aa7b3745294ec76c08fe433312e2f072a5a415185b884489a66bb38396864736f6c63430008090033",
  "devdoc": {
    "kind": "dev",
    "methods": {
      "burn(uint256,uint256,bytes)": {
        "details": "It calls burnByAdmin of STIMinter.",
        "params": {
          "_pool": "total pool in USD",
          "_share": "amount of shares"
        }
      },
      "claim(uint256[],bytes)": {
        "details": "It calls claimByAdmin of STIVaults."
      },
      "deposit(uint256[],address[],uint256[],uint256,bytes)": {
        "details": "It calls depositByAdmin of STIVaults."
      },
      "exitWithdrawal(uint256,bytes)": {
        "details": "It calls exitWithdrawalByAdmin of STIMinter.",
        "params": {
          "_gatheredAmount": "is the amount of token that is gathered."
        }
      },
      "gather(uint256[],uint8[],bytes)": {
        "details": "It gathers withdrawn tokens of the user from user agents."
      },
      "getMessageHashForSafe(bytes)": {
        "details": "Returns hash of a message that can be signed by owners.",
        "params": {
          "message": "Message that should be hashed"
        },
        "returns": {
          "_0": "Message hash."
        }
      },
      "getRoleAdmin(bytes32)": {
        "details": "Returns the admin role that controls `role`. See {grantRole} and {revokeRole}. To change a role's admin, use {_setRoleAdmin}."
      },
      "getRoleMember(bytes32,uint256)": {
        "details": "Returns one of the accounts that have `role`. `index` must be a value between 0 and {getRoleMemberCount}, non-inclusive. Role bearers are not sorted in any particular way, and their ordering may change at any point. WARNING: When using {getRoleMember} and {getRoleMemberCount}, make sure you perform all queries on the same block. See the following https://forum.openzeppelin.com/t/iterating-over-elements-on-enumerableset-in-openzeppelin-contracts/2296[forum post] for more information."
      },
      "getRoleMemberCount(bytes32)": {
        "details": "Returns the number of accounts that have `role`. Can be used together with {getRoleMember} to enumerate all bearers of a role."
      },
      "grantRole(bytes32,address)": {
        "details": "Grants `role` to `account`. If `account` had not been already granted `role`, emits a {RoleGranted} event. Requirements: - the caller must have ``role``'s admin role."
      },
      "hasRole(bytes32,address)": {
        "details": "Returns `true` if `account` has been granted `role`."
      },
      "initDeposit(uint256,uint256,bytes)": {
        "details": "It calls initDepositByAdmin of STIMinter.",
        "params": {
          "_USDT6Amt": "USDT with 6 decimals to be deposited",
          "_pool": "total pool in USD"
        }
      },
      "mint(uint256,bytes)": {
        "details": "It calls mintByAdmin of STIMinter."
      },
      "owner()": {
        "details": "Returns the address of the current owner."
      },
      "paused()": {
        "details": "Returns true if the contract is paused, and false otherwise."
      },
      "renounceOwnership()": {
        "details": "Leaves the contract without owner. It will not be possible to call `onlyOwner` functions anymore. Can only be called by the current owner. NOTE: Renouncing ownership will leave the contract without an owner, thereby removing any functionality that is only available to the owner."
      },
      "renounceRole(bytes32,address)": {
        "details": "Revokes `role` from the calling account. Roles are often managed via {grantRole} and {revokeRole}: this function's purpose is to provide a mechanism for accounts to lose their privileges if they are compromised (such as when a trusted device is misplaced). If the calling account had been revoked `role`, emits a {RoleRevoked} event. Requirements: - the caller must be `account`."
      },
      "revokeRole(bytes32,address)": {
        "details": "Revokes `role` from `account`. If `account` had been granted `role`, emits a {RoleRevoked} event. Requirements: - the caller must have ``role``'s admin role."
      },
      "setSubImpl(address)": {
        "details": "Delegate to sub contract"
      },
      "supportsInterface(bytes4)": {
        "details": "See {IERC165-supportsInterface}."
      },
      "takeOut(uint256,bytes)": {
        "details": "It takes out tokens from this agent.",
        "params": {
          "_gatheredAmount": "is the amount of token that is gathered."
        }
      },
      "transfer(uint256[],uint256[],uint8[],bytes)": {
        "details": "It transfers tokens to user agents"
      },
      "withdraw(uint256[],uint256,uint256,bytes)": {
        "details": "It calls withdrawPercByAdmin of STIVaults."
      }
    },
    "version": 1
  },
  "userdoc": {
    "kind": "user",
    "methods": {
      "exitWithdrawal(uint256,bytes)": {
        "notice": "_gatheredAmount doesn't include the balance which is withdrawan in this agent."
      },
      "isTrustedForwarder(address)": {
        "notice": "return if the forwarder is trusted to forward relayed transactions to us. the forwarder is required to verify the sender's signature, and verify the call is not a replay."
      },
      "onRefunded(uint256,address,uint256,uint256,address)": {
        "notice": "Never revert in this function. If not, cbridgeAdapter.executeMessageWithTransferRefund will be failed."
      },
      "takeOut(uint256,bytes)": {
        "notice": "_gatheredAmount doesn't include the balance which is withdrawan in this agent."
      }
    },
    "version": 1
  },
  "storageLayout": {
    "storage": [
      {
        "astId": 69988,
        "contract": "contracts/xchain/agent/STIUserAgentTest.sol:STIUserAgentTest",
        "label": "trustedForwarder",
        "offset": 0,
        "slot": "0",
        "type": "t_address"
      },
      {
        "astId": 713,
        "contract": "contracts/xchain/agent/STIUserAgentTest.sol:STIUserAgentTest",
        "label": "_initialized",
        "offset": 20,
        "slot": "0",
        "type": "t_uint8"
      },
      {
        "astId": 716,
        "contract": "contracts/xchain/agent/STIUserAgentTest.sol:STIUserAgentTest",
        "label": "_initializing",
        "offset": 21,
        "slot": "0",
        "type": "t_bool"
      },
      {
        "astId": 70528,
        "contract": "contracts/xchain/agent/STIUserAgentTest.sol:STIUserAgentTest",
        "label": "separator",
        "offset": 0,
        "slot": "1",
        "type": "t_bytes32"
      },
      {
        "astId": 70941,
        "contract": "contracts/xchain/agent/STIUserAgentTest.sol:STIUserAgentTest",
        "label": "__gap",
        "offset": 0,
        "slot": "2",
        "type": "t_array(t_uint256)49_storage"
      },
      {
        "astId": 3292,
        "contract": "contracts/xchain/agent/STIUserAgentTest.sol:STIUserAgentTest",
        "label": "__gap",
        "offset": 0,
        "slot": "51",
        "type": "t_array(t_uint256)50_storage"
      },
      {
        "astId": 3946,
        "contract": "contracts/xchain/agent/STIUserAgentTest.sol:STIUserAgentTest",
        "label": "__gap",
        "offset": 0,
        "slot": "101",
        "type": "t_array(t_uint256)50_storage"
      },
      {
        "astId": 184,
        "contract": "contracts/xchain/agent/STIUserAgentTest.sol:STIUserAgentTest",
        "label": "_roles",
        "offset": 0,
        "slot": "151",
        "type": "t_mapping(t_bytes32,t_struct(RoleData)179_storage)"
      },
      {
        "astId": 483,
        "contract": "contracts/xchain/agent/STIUserAgentTest.sol:STIUserAgentTest",
        "label": "__gap",
        "offset": 0,
        "slot": "152",
        "type": "t_array(t_uint256)49_storage"
      },
      {
        "astId": 33,
        "contract": "contracts/xchain/agent/STIUserAgentTest.sol:STIUserAgentTest",
        "label": "_roleMembers",
        "offset": 0,
        "slot": "201",
        "type": "t_mapping(t_bytes32,t_struct(AddressSet)4359_storage)"
      },
      {
        "astId": 143,
        "contract": "contracts/xchain/agent/STIUserAgentTest.sol:STIUserAgentTest",
        "label": "__gap",
        "offset": 0,
        "slot": "202",
        "type": "t_array(t_uint256)49_storage"
      },
      {
        "astId": 869,
        "contract": "contracts/xchain/agent/STIUserAgentTest.sol:STIUserAgentTest",
        "label": "_paused",
        "offset": 0,
        "slot": "251",
        "type": "t_bool"
      },
      {
        "astId": 958,
        "contract": "contracts/xchain/agent/STIUserAgentTest.sol:STIUserAgentTest",
        "label": "__gap",
        "offset": 0,
        "slot": "252",
        "type": "t_array(t_uint256)49_storage"
      },
      {
        "astId": 593,
        "contract": "contracts/xchain/agent/STIUserAgentTest.sol:STIUserAgentTest",
        "label": "_owner",
        "offset": 0,
        "slot": "301",
        "type": "t_address"
      },
      {
        "astId": 705,
        "contract": "contracts/xchain/agent/STIUserAgentTest.sol:STIUserAgentTest",
        "label": "__gap",
        "offset": 0,
        "slot": "302",
        "type": "t_array(t_uint256)49_storage"
      },
      {
        "astId": 60227,
        "contract": "contracts/xchain/agent/STIUserAgentTest.sol:STIUserAgentTest",
        "label": "admin",
        "offset": 0,
        "slot": "351",
        "type": "t_address"
      },
      {
        "astId": 60231,
        "contract": "contracts/xchain/agent/STIUserAgentTest.sol:STIUserAgentTest",
        "label": "nonces",
        "offset": 0,
        "slot": "352",
        "type": "t_mapping(t_address,t_uint256)"
      },
      {
        "astId": 60234,
        "contract": "contracts/xchain/agent/STIUserAgentTest.sol:STIUserAgentTest",
        "label": "swap",
        "offset": 0,
        "slot": "353",
        "type": "t_contract(ISwap)56041"
      },
      {
        "astId": 60237,
        "contract": "contracts/xchain/agent/STIUserAgentTest.sol:STIUserAgentTest",
        "label": "USDC",
        "offset": 0,
        "slot": "354",
        "type": "t_contract(IERC20Upgradeable)1707"
      },
      {
        "astId": 60240,
        "contract": "contracts/xchain/agent/STIUserAgentTest.sol:STIUserAgentTest",
        "label": "USDT",
        "offset": 0,
        "slot": "355",
        "type": "t_contract(IERC20Upgradeable)1707"
      },
      {
        "astId": 60244,
        "contract": "contracts/xchain/agent/STIUserAgentTest.sol:STIUserAgentTest",
        "label": "usdcBalances",
        "offset": 0,
        "slot": "356",
        "type": "t_mapping(t_address,t_uint256)"
      },
      {
        "astId": 60248,
        "contract": "contracts/xchain/agent/STIUserAgentTest.sol:STIUserAgentTest",
        "label": "usdtBalances",
        "offset": 0,
        "slot": "357",
        "type": "t_mapping(t_address,t_uint256)"
      },
      {
        "astId": 60251,
        "contract": "contracts/xchain/agent/STIUserAgentTest.sol:STIUserAgentTest",
        "label": "multichainAdapter",
        "offset": 0,
        "slot": "358",
        "type": "t_contract(IXChainAdapter)56366"
      },
      {
        "astId": 60254,
        "contract": "contracts/xchain/agent/STIUserAgentTest.sol:STIUserAgentTest",
        "label": "cbridgeAdapter",
        "offset": 0,
        "slot": "359",
        "type": "t_contract(IXChainAdapter)56366"
      },
      {
        "astId": 60258,
        "contract": "contracts/xchain/agent/STIUserAgentTest.sol:STIUserAgentTest",
        "label": "cbridgeSenders",
        "offset": 0,
        "slot": "360",
        "type": "t_mapping(t_uint256,t_address)"
      },
      {
        "astId": 60262,
        "contract": "contracts/xchain/agent/STIUserAgentTest.sol:STIUserAgentTest",
        "label": "userAgents",
        "offset": 0,
        "slot": "361",
        "type": "t_mapping(t_uint256,t_address)"
      },
      {
        "astId": 60267,
        "contract": "contracts/xchain/agent/STIUserAgentTest.sol:STIUserAgentTest",
        "label": "callAdapterTypes",
        "offset": 0,
        "slot": "362",
        "type": "t_mapping(t_uint256,t_enum(AdapterType)60201)"
      },
      {
        "astId": 60271,
        "contract": "contracts/xchain/agent/STIUserAgentTest.sol:STIUserAgentTest",
        "label": "gasAmounts",
        "offset": 0,
        "slot": "363",
        "type": "t_mapping(t_bytes4,t_uint256)"
      },
      {
        "astId": 60275,
        "contract": "contracts/xchain/agent/STIUserAgentTest.sol:STIUserAgentTest",
        "label": "gasCosts",
        "offset": 0,
        "slot": "364",
        "type": "t_mapping(t_uint256,t_uint256)"
      },
      {
        "astId": 60277,
        "contract": "contracts/xchain/agent/STIUserAgentTest.sol:STIUserAgentTest",
        "label": "treasuryWallet",
        "offset": 0,
        "slot": "365",
        "type": "t_address"
      },
      {
        "astId": 61000,
        "contract": "contracts/xchain/agent/STIUserAgentTest.sol:STIUserAgentTest",
        "label": "__gap",
        "offset": 0,
        "slot": "366",
        "type": "t_array(t_uint256)36_storage"
      },
      {
        "astId": 61845,
        "contract": "contracts/xchain/agent/STIUserAgentTest.sol:STIUserAgentTest",
        "label": "chainIdOnLP",
        "offset": 0,
        "slot": "402",
        "type": "t_uint256"
      },
      {
        "astId": 61847,
        "contract": "contracts/xchain/agent/STIUserAgentTest.sol:STIUserAgentTest",
        "label": "isLPChain",
        "offset": 0,
        "slot": "403",
        "type": "t_bool"
      },
      {
        "astId": 61850,
        "contract": "contracts/xchain/agent/STIUserAgentTest.sol:STIUserAgentTest",
        "label": "stiMinter",
        "offset": 1,
        "slot": "403",
        "type": "t_contract(ISTIMinter)44167"
      },
      {
        "astId": 61853,
        "contract": "contracts/xchain/agent/STIUserAgentTest.sol:STIUserAgentTest",
        "label": "stiVault",
        "offset": 0,
        "slot": "404",
        "type": "t_contract(ISTIVault)44224"
      },
      {
        "astId": 61855,
        "contract": "contracts/xchain/agent/STIUserAgentTest.sol:STIUserAgentTest",
        "label": "subImpl",
        "offset": 0,
        "slot": "405",
        "type": "t_address"
      }
    ],
    "types": {
      "t_address": {
        "encoding": "inplace",
        "label": "address",
        "numberOfBytes": "20"
      },
      "t_array(t_bytes32)dyn_storage": {
        "base": "t_bytes32",
        "encoding": "dynamic_array",
        "label": "bytes32[]",
        "numberOfBytes": "32"
      },
      "t_array(t_uint256)36_storage": {
        "base": "t_uint256",
        "encoding": "inplace",
        "label": "uint256[36]",
        "numberOfBytes": "1152"
      },
      "t_array(t_uint256)49_storage": {
        "base": "t_uint256",
        "encoding": "inplace",
        "label": "uint256[49]",
        "numberOfBytes": "1568"
      },
      "t_array(t_uint256)50_storage": {
        "base": "t_uint256",
        "encoding": "inplace",
        "label": "uint256[50]",
        "numberOfBytes": "1600"
      },
      "t_bool": {
        "encoding": "inplace",
        "label": "bool",
        "numberOfBytes": "1"
      },
      "t_bytes32": {
        "encoding": "inplace",
        "label": "bytes32",
        "numberOfBytes": "32"
      },
      "t_bytes4": {
        "encoding": "inplace",
        "label": "bytes4",
        "numberOfBytes": "4"
      },
      "t_contract(IERC20Upgradeable)1707": {
        "encoding": "inplace",
        "label": "contract IERC20Upgradeable",
        "numberOfBytes": "20"
      },
      "t_contract(ISTIMinter)44167": {
        "encoding": "inplace",
        "label": "contract ISTIMinter",
        "numberOfBytes": "20"
      },
      "t_contract(ISTIVault)44224": {
        "encoding": "inplace",
        "label": "contract ISTIVault",
        "numberOfBytes": "20"
      },
      "t_contract(ISwap)56041": {
        "encoding": "inplace",
        "label": "contract ISwap",
        "numberOfBytes": "20"
      },
      "t_contract(IXChainAdapter)56366": {
        "encoding": "inplace",
        "label": "contract IXChainAdapter",
        "numberOfBytes": "20"
      },
      "t_enum(AdapterType)60201": {
        "encoding": "inplace",
        "label": "enum BasicUserAgentBase.AdapterType",
        "numberOfBytes": "1"
      },
      "t_mapping(t_address,t_bool)": {
        "encoding": "mapping",
        "key": "t_address",
        "label": "mapping(address => bool)",
        "numberOfBytes": "32",
        "value": "t_bool"
      },
      "t_mapping(t_address,t_uint256)": {
        "encoding": "mapping",
        "key": "t_address",
        "label": "mapping(address => uint256)",
        "numberOfBytes": "32",
        "value": "t_uint256"
      },
      "t_mapping(t_bytes32,t_struct(AddressSet)4359_storage)": {
        "encoding": "mapping",
        "key": "t_bytes32",
        "label": "mapping(bytes32 => struct EnumerableSetUpgradeable.AddressSet)",
        "numberOfBytes": "32",
        "value": "t_struct(AddressSet)4359_storage"
      },
      "t_mapping(t_bytes32,t_struct(RoleData)179_storage)": {
        "encoding": "mapping",
        "key": "t_bytes32",
        "label": "mapping(bytes32 => struct AccessControlUpgradeable.RoleData)",
        "numberOfBytes": "32",
        "value": "t_struct(RoleData)179_storage"
      },
      "t_mapping(t_bytes32,t_uint256)": {
        "encoding": "mapping",
        "key": "t_bytes32",
        "label": "mapping(bytes32 => uint256)",
        "numberOfBytes": "32",
        "value": "t_uint256"
      },
      "t_mapping(t_bytes4,t_uint256)": {
        "encoding": "mapping",
        "key": "t_bytes4",
        "label": "mapping(bytes4 => uint256)",
        "numberOfBytes": "32",
        "value": "t_uint256"
      },
      "t_mapping(t_uint256,t_address)": {
        "encoding": "mapping",
        "key": "t_uint256",
        "label": "mapping(uint256 => address)",
        "numberOfBytes": "32",
        "value": "t_address"
      },
      "t_mapping(t_uint256,t_enum(AdapterType)60201)": {
        "encoding": "mapping",
        "key": "t_uint256",
        "label": "mapping(uint256 => enum BasicUserAgentBase.AdapterType)",
        "numberOfBytes": "32",
        "value": "t_enum(AdapterType)60201"
      },
      "t_mapping(t_uint256,t_uint256)": {
        "encoding": "mapping",
        "key": "t_uint256",
        "label": "mapping(uint256 => uint256)",
        "numberOfBytes": "32",
        "value": "t_uint256"
      },
      "t_struct(AddressSet)4359_storage": {
        "encoding": "inplace",
        "label": "struct EnumerableSetUpgradeable.AddressSet",
        "members": [
          {
            "astId": 4358,
            "contract": "contracts/xchain/agent/STIUserAgentTest.sol:STIUserAgentTest",
            "label": "_inner",
            "offset": 0,
            "slot": "0",
            "type": "t_struct(Set)4058_storage"
          }
        ],
        "numberOfBytes": "64"
      },
      "t_struct(RoleData)179_storage": {
        "encoding": "inplace",
        "label": "struct AccessControlUpgradeable.RoleData",
        "members": [
          {
            "astId": 176,
            "contract": "contracts/xchain/agent/STIUserAgentTest.sol:STIUserAgentTest",
            "label": "members",
            "offset": 0,
            "slot": "0",
            "type": "t_mapping(t_address,t_bool)"
          },
          {
            "astId": 178,
            "contract": "contracts/xchain/agent/STIUserAgentTest.sol:STIUserAgentTest",
            "label": "adminRole",
            "offset": 0,
            "slot": "1",
            "type": "t_bytes32"
          }
        ],
        "numberOfBytes": "64"
      },
      "t_struct(Set)4058_storage": {
        "encoding": "inplace",
        "label": "struct EnumerableSetUpgradeable.Set",
        "members": [
          {
            "astId": 4053,
            "contract": "contracts/xchain/agent/STIUserAgentTest.sol:STIUserAgentTest",
            "label": "_values",
            "offset": 0,
            "slot": "0",
            "type": "t_array(t_bytes32)dyn_storage"
          },
          {
            "astId": 4057,
            "contract": "contracts/xchain/agent/STIUserAgentTest.sol:STIUserAgentTest",
            "label": "_indexes",
            "offset": 0,
            "slot": "1",
            "type": "t_mapping(t_bytes32,t_uint256)"
          }
        ],
        "numberOfBytes": "64"
      },
      "t_uint256": {
        "encoding": "inplace",
        "label": "uint256",
        "numberOfBytes": "32"
      },
      "t_uint8": {
        "encoding": "inplace",
        "label": "uint8",
        "numberOfBytes": "1"
      }
    }
  }
}