{
  "address": "0xf2429fb530305b4A5413f5d733186835B07C4f61",
  "abi": [
    {
      "anonymous": false,
      "inputs": [
        {
          "indexed": false,
          "internalType": "uint8",
          "name": "version",
          "type": "uint8"
        }
      ],
      "name": "Initialized",
      "type": "event"
    },
    {
      "anonymous": false,
      "inputs": [
        {
          "indexed": true,
          "internalType": "address",
          "name": "previousOwner",
          "type": "address"
        },
        {
          "indexed": true,
          "internalType": "address",
          "name": "newOwner",
          "type": "address"
        }
      ],
      "name": "OwnershipTransferred",
      "type": "event"
    },
    {
      "anonymous": false,
      "inputs": [
        {
          "indexed": false,
          "internalType": "address",
          "name": "account",
          "type": "address"
        }
      ],
      "name": "Paused",
      "type": "event"
    },
    {
      "anonymous": false,
      "inputs": [
        {
          "indexed": true,
          "internalType": "bytes32",
          "name": "role",
          "type": "bytes32"
        },
        {
          "indexed": true,
          "internalType": "bytes32",
          "name": "previousAdminRole",
          "type": "bytes32"
        },
        {
          "indexed": true,
          "internalType": "bytes32",
          "name": "newAdminRole",
          "type": "bytes32"
        }
      ],
      "name": "RoleAdminChanged",
      "type": "event"
    },
    {
      "anonymous": false,
      "inputs": [
        {
          "indexed": true,
          "internalType": "bytes32",
          "name": "role",
          "type": "bytes32"
        },
        {
          "indexed": true,
          "internalType": "address",
          "name": "account",
          "type": "address"
        },
        {
          "indexed": true,
          "internalType": "address",
          "name": "sender",
          "type": "address"
        }
      ],
      "name": "RoleGranted",
      "type": "event"
    },
    {
      "anonymous": false,
      "inputs": [
        {
          "indexed": true,
          "internalType": "bytes32",
          "name": "role",
          "type": "bytes32"
        },
        {
          "indexed": true,
          "internalType": "address",
          "name": "account",
          "type": "address"
        },
        {
          "indexed": true,
          "internalType": "address",
          "name": "sender",
          "type": "address"
        }
      ],
      "name": "RoleRevoked",
      "type": "event"
    },
    {
      "anonymous": false,
      "inputs": [
        {
          "indexed": false,
          "internalType": "uint256",
          "name": "fromChainId",
          "type": "uint256"
        },
        {
          "indexed": false,
          "internalType": "address",
          "name": "token",
          "type": "address"
        },
        {
          "indexed": true,
          "internalType": "uint256",
          "name": "amount",
          "type": "uint256"
        },
        {
          "indexed": true,
          "internalType": "uint256",
          "name": "toChainId",
          "type": "uint256"
        },
        {
          "indexed": true,
          "internalType": "address",
          "name": "account",
          "type": "address"
        }
      ],
      "name": "Transfer",
      "type": "event"
    },
    {
      "anonymous": false,
      "inputs": [
        {
          "indexed": false,
          "internalType": "address",
          "name": "account",
          "type": "address"
        }
      ],
      "name": "Unpaused",
      "type": "event"
    },
    {
      "inputs": [],
      "name": "ADAPTER_ROLE",
      "outputs": [
        {
          "internalType": "bytes32",
          "name": "",
          "type": "bytes32"
        }
      ],
      "stateMutability": "view",
      "type": "function"
    },
    {
      "inputs": [],
      "name": "DEFAULT_ADMIN_ROLE",
      "outputs": [
        {
          "internalType": "bytes32",
          "name": "",
          "type": "bytes32"
        }
      ],
      "stateMutability": "view",
      "type": "function"
    },
    {
      "inputs": [],
      "name": "USDC",
      "outputs": [
        {
          "internalType": "contract IERC20Upgradeable",
          "name": "",
          "type": "address"
        }
      ],
      "stateMutability": "view",
      "type": "function"
    },
    {
      "inputs": [],
      "name": "USDT",
      "outputs": [
        {
          "internalType": "contract IERC20Upgradeable",
          "name": "",
          "type": "address"
        }
      ],
      "stateMutability": "view",
      "type": "function"
    },
    {
      "inputs": [],
      "name": "admin",
      "outputs": [
        {
          "internalType": "address",
          "name": "",
          "type": "address"
        }
      ],
      "stateMutability": "view",
      "type": "function"
    },
    {
      "inputs": [
        {
          "internalType": "uint256",
          "name": "_pool",
          "type": "uint256"
        },
        {
          "internalType": "uint256",
          "name": "_share",
          "type": "uint256"
        },
        {
          "internalType": "bytes",
          "name": "_signature",
          "type": "bytes"
        }
      ],
      "name": "burn",
      "outputs": [
        {
          "internalType": "uint256",
          "name": "_feeAmt",
          "type": "uint256"
        }
      ],
      "stateMutability": "payable",
      "type": "function"
    },
    {
      "inputs": [
        {
          "internalType": "address",
          "name": "_account",
          "type": "address"
        },
        {
          "internalType": "uint256",
          "name": "_pool",
          "type": "uint256"
        },
        {
          "internalType": "uint256",
          "name": "_share",
          "type": "uint256"
        }
      ],
      "name": "burnByAdmin",
      "outputs": [],
      "stateMutability": "nonpayable",
      "type": "function"
    },
    {
      "inputs": [
        {
          "internalType": "uint256",
          "name": "",
          "type": "uint256"
        }
      ],
      "name": "callAdapterTypes",
      "outputs": [
        {
          "internalType": "enum BasicUserAgentBase.AdapterType",
          "name": "",
          "type": "uint8"
        }
      ],
      "stateMutability": "view",
      "type": "function"
    },
    {
      "inputs": [],
      "name": "cbridgeAdapter",
      "outputs": [
        {
          "internalType": "contract IXChainAdapter",
          "name": "",
          "type": "address"
        }
      ],
      "stateMutability": "view",
      "type": "function"
    },
    {
      "inputs": [
        {
          "internalType": "uint256",
          "name": "",
          "type": "uint256"
        }
      ],
      "name": "cbridgeSenders",
      "outputs": [
        {
          "internalType": "address",
          "name": "",
          "type": "address"
        }
      ],
      "stateMutability": "view",
      "type": "function"
    },
    {
      "inputs": [],
      "name": "chainIdOnLP",
      "outputs": [
        {
          "internalType": "uint256",
          "name": "",
          "type": "uint256"
        }
      ],
      "stateMutability": "view",
      "type": "function"
    },
    {
      "inputs": [
        {
          "internalType": "uint256[]",
          "name": "_chainIds",
          "type": "uint256[]"
        },
        {
          "internalType": "bytes",
          "name": "_signature",
          "type": "bytes"
        }
      ],
      "name": "claim",
      "outputs": [
        {
          "internalType": "uint256",
          "name": "_feeAmt",
          "type": "uint256"
        }
      ],
      "stateMutability": "payable",
      "type": "function"
    },
    {
      "inputs": [
        {
          "internalType": "address",
          "name": "_account",
          "type": "address"
        }
      ],
      "name": "claimByAgent",
      "outputs": [],
      "stateMutability": "nonpayable",
      "type": "function"
    },
    {
      "inputs": [
        {
          "internalType": "uint256[]",
          "name": "_toChainIds",
          "type": "uint256[]"
        },
        {
          "internalType": "address[]",
          "name": "_tokens",
          "type": "address[]"
        },
        {
          "internalType": "uint256[]",
          "name": "_USDTAmts",
          "type": "uint256[]"
        },
        {
          "internalType": "uint256",
          "name": "_minterNonce",
          "type": "uint256"
        },
        {
          "internalType": "bytes",
          "name": "_signature",
          "type": "bytes"
        }
      ],
      "name": "deposit",
      "outputs": [
        {
          "internalType": "uint256",
          "name": "_feeAmt",
          "type": "uint256"
        }
      ],
      "stateMutability": "payable",
      "type": "function"
    },
    {
      "inputs": [
        {
          "internalType": "address",
          "name": "_account",
          "type": "address"
        },
        {
          "internalType": "address[]",
          "name": "_tokens",
          "type": "address[]"
        },
        {
          "internalType": "uint256[]",
          "name": "_USDTAmts",
          "type": "uint256[]"
        },
        {
          "internalType": "uint256",
          "name": "_minterNonce",
          "type": "uint256"
        }
      ],
      "name": "depositByAgent",
      "outputs": [],
      "stateMutability": "nonpayable",
      "type": "function"
    },
    {
      "inputs": [
        {
          "internalType": "uint256",
          "name": "_gatheredAmount",
          "type": "uint256"
        },
        {
          "internalType": "bytes",
          "name": "_signature",
          "type": "bytes"
        }
      ],
      "name": "exitWithdrawal",
      "outputs": [
        {
          "internalType": "uint256",
          "name": "_feeAmt",
          "type": "uint256"
        }
      ],
      "stateMutability": "payable",
      "type": "function"
    },
    {
      "inputs": [
        {
          "internalType": "address",
          "name": "_account",
          "type": "address"
        }
      ],
      "name": "exitWithdrawalByAdmin",
      "outputs": [],
      "stateMutability": "nonpayable",
      "type": "function"
    },
    {
      "inputs": [
        {
          "internalType": "uint256[]",
          "name": "_fromChainIds",
          "type": "uint256[]"
        },
        {
          "internalType": "enum BasicUserAgentBase.AdapterType[]",
          "name": "_adapterTypes",
          "type": "uint8[]"
        },
        {
          "internalType": "bytes",
          "name": "_signature",
          "type": "bytes"
        }
      ],
      "name": "gather",
      "outputs": [
        {
          "internalType": "uint256",
          "name": "_feeAmt",
          "type": "uint256"
        }
      ],
      "stateMutability": "payable",
      "type": "function"
    },
    {
      "inputs": [
        {
          "internalType": "address",
          "name": "_account",
          "type": "address"
        },
        {
          "internalType": "uint256",
          "name": "_toChainId",
          "type": "uint256"
        },
        {
          "internalType": "enum BasicUserAgentBase.AdapterType",
          "name": "_adapterType",
          "type": "uint8"
        }
      ],
      "name": "gatherByAdmin",
      "outputs": [],
      "stateMutability": "nonpayable",
      "type": "function"
    },
    {
      "inputs": [
        {
          "internalType": "bytes",
          "name": "message",
          "type": "bytes"
        }
      ],
      "name": "getMessageHashForSafe",
      "outputs": [
        {
          "internalType": "bytes32",
          "name": "",
          "type": "bytes32"
        }
      ],
      "stateMutability": "view",
      "type": "function"
    },
    {
      "inputs": [
        {
          "internalType": "bytes32",
          "name": "role",
          "type": "bytes32"
        }
      ],
      "name": "getRoleAdmin",
      "outputs": [
        {
          "internalType": "bytes32",
          "name": "",
          "type": "bytes32"
        }
      ],
      "stateMutability": "view",
      "type": "function"
    },
    {
      "inputs": [
        {
          "internalType": "bytes32",
          "name": "role",
          "type": "bytes32"
        },
        {
          "internalType": "uint256",
          "name": "index",
          "type": "uint256"
        }
      ],
      "name": "getRoleMember",
      "outputs": [
        {
          "internalType": "address",
          "name": "",
          "type": "address"
        }
      ],
      "stateMutability": "view",
      "type": "function"
    },
    {
      "inputs": [
        {
          "internalType": "bytes32",
          "name": "role",
          "type": "bytes32"
        }
      ],
      "name": "getRoleMemberCount",
      "outputs": [
        {
          "internalType": "uint256",
          "name": "",
          "type": "uint256"
        }
      ],
      "stateMutability": "view",
      "type": "function"
    },
    {
      "inputs": [
        {
          "internalType": "bytes32",
          "name": "role",
          "type": "bytes32"
        },
        {
          "internalType": "address",
          "name": "account",
          "type": "address"
        }
      ],
      "name": "grantRole",
      "outputs": [],
      "stateMutability": "nonpayable",
      "type": "function"
    },
    {
      "inputs": [
        {
          "internalType": "bytes32",
          "name": "role",
          "type": "bytes32"
        },
        {
          "internalType": "address",
          "name": "account",
          "type": "address"
        }
      ],
      "name": "hasRole",
      "outputs": [
        {
          "internalType": "bool",
          "name": "",
          "type": "bool"
        }
      ],
      "stateMutability": "view",
      "type": "function"
    },
    {
      "inputs": [
        {
          "internalType": "uint256",
          "name": "_pool",
          "type": "uint256"
        },
        {
          "internalType": "uint256",
          "name": "_USDT6Amt",
          "type": "uint256"
        },
        {
          "internalType": "bytes",
          "name": "_signature",
          "type": "bytes"
        }
      ],
      "name": "initDeposit",
      "outputs": [
        {
          "internalType": "uint256",
          "name": "_feeAmt",
          "type": "uint256"
        }
      ],
      "stateMutability": "payable",
      "type": "function"
    },
    {
      "inputs": [
        {
          "internalType": "address",
          "name": "_account",
          "type": "address"
        },
        {
          "internalType": "uint256",
          "name": "_pool",
          "type": "uint256"
        },
        {
          "internalType": "uint256",
          "name": "_USDT6Amt",
          "type": "uint256"
        }
      ],
      "name": "initDepositByAdmin",
      "outputs": [],
      "stateMutability": "nonpayable",
      "type": "function"
    },
    {
      "inputs": [
        {
          "internalType": "address",
          "name": "_admin",
          "type": "address"
        },
        {
          "internalType": "contract ISwap",
          "name": "_swap",
          "type": "address"
        },
        {
          "internalType": "contract IXChainAdapter",
          "name": "_multichainAdapter",
          "type": "address"
        },
        {
          "internalType": "contract IXChainAdapter",
          "name": "_cbridgeAdapter",
          "type": "address"
        }
      ],
      "name": "initialize",
      "outputs": [],
      "stateMutability": "nonpayable",
      "type": "function"
    },
    {
      "inputs": [
        {
          "internalType": "address",
          "name": "_subImpl",
          "type": "address"
        },
        {
          "internalType": "address",
          "name": "_admin",
          "type": "address"
        },
        {
          "internalType": "contract ISwap",
          "name": "_swap",
          "type": "address"
        },
        {
          "internalType": "contract IXChainAdapter",
          "name": "_multichainAdapter",
          "type": "address"
        },
        {
          "internalType": "contract IXChainAdapter",
          "name": "_cbridgeAdapter",
          "type": "address"
        },
        {
          "internalType": "contract ISTIMinter",
          "name": "_stiMinter",
          "type": "address"
        },
        {
          "internalType": "contract ISTIVault",
          "name": "_stiVault",
          "type": "address"
        }
      ],
      "name": "initialize1",
      "outputs": [],
      "stateMutability": "nonpayable",
      "type": "function"
    },
    {
      "inputs": [],
      "name": "isLPChain",
      "outputs": [
        {
          "internalType": "bool",
          "name": "",
          "type": "bool"
        }
      ],
      "stateMutability": "view",
      "type": "function"
    },
    {
      "inputs": [
        {
          "internalType": "address",
          "name": "forwarder",
          "type": "address"
        }
      ],
      "name": "isTrustedForwarder",
      "outputs": [
        {
          "internalType": "bool",
          "name": "",
          "type": "bool"
        }
      ],
      "stateMutability": "view",
      "type": "function"
    },
    {
      "inputs": [
        {
          "internalType": "address",
          "name": "_account",
          "type": "address"
        },
        {
          "internalType": "bytes",
          "name": "_data",
          "type": "bytes"
        },
        {
          "internalType": "bytes",
          "name": "_signature",
          "type": "bytes"
        }
      ],
      "name": "isValidSignature",
      "outputs": [
        {
          "internalType": "bool",
          "name": "",
          "type": "bool"
        }
      ],
      "stateMutability": "view",
      "type": "function"
    },
    {
      "inputs": [
        {
          "internalType": "uint256",
          "name": "_USDT6Amt",
          "type": "uint256"
        },
        {
          "internalType": "bytes",
          "name": "_signature",
          "type": "bytes"
        }
      ],
      "name": "mint",
      "outputs": [
        {
          "internalType": "uint256",
          "name": "_feeAmt",
          "type": "uint256"
        }
      ],
      "stateMutability": "payable",
      "type": "function"
    },
    {
      "inputs": [
        {
          "internalType": "address",
          "name": "_account",
          "type": "address"
        },
        {
          "internalType": "uint256",
          "name": "_USDT6Amt",
          "type": "uint256"
        }
      ],
      "name": "mintByAdmin",
      "outputs": [],
      "stateMutability": "nonpayable",
      "type": "function"
    },
    {
      "inputs": [],
      "name": "multichainAdapter",
      "outputs": [
        {
          "internalType": "contract IXChainAdapter",
          "name": "",
          "type": "address"
        }
      ],
      "stateMutability": "view",
      "type": "function"
    },
    {
      "inputs": [
        {
          "internalType": "address",
          "name": "",
          "type": "address"
        }
      ],
      "name": "nonces",
      "outputs": [
        {
          "internalType": "uint256",
          "name": "",
          "type": "uint256"
        }
      ],
      "stateMutability": "view",
      "type": "function"
    },
    {
      "inputs": [
        {
          "internalType": "uint256",
          "name": "_cbridgeNonce",
          "type": "uint256"
        },
        {
          "internalType": "address",
          "name": "_token",
          "type": "address"
        },
        {
          "internalType": "uint256",
          "name": "amount",
          "type": "uint256"
        },
        {
          "internalType": "uint256",
          "name": "",
          "type": "uint256"
        },
        {
          "internalType": "address",
          "name": "",
          "type": "address"
        }
      ],
      "name": "onRefunded",
      "outputs": [],
      "stateMutability": "nonpayable",
      "type": "function"
    },
    {
      "inputs": [],
      "name": "owner",
      "outputs": [
        {
          "internalType": "address",
          "name": "",
          "type": "address"
        }
      ],
      "stateMutability": "view",
      "type": "function"
    },
    {
      "inputs": [],
      "name": "pause",
      "outputs": [],
      "stateMutability": "nonpayable",
      "type": "function"
    },
    {
      "inputs": [],
      "name": "paused",
      "outputs": [
        {
          "internalType": "bool",
          "name": "",
          "type": "bool"
        }
      ],
      "stateMutability": "view",
      "type": "function"
    },
    {
      "inputs": [],
      "name": "renounceOwnership",
      "outputs": [],
      "stateMutability": "nonpayable",
      "type": "function"
    },
    {
      "inputs": [
        {
          "internalType": "bytes32",
          "name": "role",
          "type": "bytes32"
        },
        {
          "internalType": "address",
          "name": "account",
          "type": "address"
        }
      ],
      "name": "renounceRole",
      "outputs": [],
      "stateMutability": "nonpayable",
      "type": "function"
    },
    {
      "inputs": [
        {
          "internalType": "bytes32",
          "name": "role",
          "type": "bytes32"
        },
        {
          "internalType": "address",
          "name": "account",
          "type": "address"
        }
      ],
      "name": "revokeRole",
      "outputs": [],
      "stateMutability": "nonpayable",
      "type": "function"
    },
    {
      "inputs": [
        {
          "internalType": "address",
          "name": "_admin",
          "type": "address"
        }
      ],
      "name": "setAdmin",
      "outputs": [],
      "stateMutability": "nonpayable",
      "type": "function"
    },
    {
      "inputs": [
        {
          "internalType": "address",
          "name": "_biconomy",
          "type": "address"
        }
      ],
      "name": "setBiconomy",
      "outputs": [],
      "stateMutability": "nonpayable",
      "type": "function"
    },
    {
      "inputs": [
        {
          "internalType": "contract IXChainAdapter",
          "name": "_cbridgeAdapter",
          "type": "address"
        }
      ],
      "name": "setCBridgeAdapter",
      "outputs": [],
      "stateMutability": "nonpayable",
      "type": "function"
    },
    {
      "inputs": [
        {
          "internalType": "uint256[]",
          "name": "_chainIds",
          "type": "uint256[]"
        },
        {
          "internalType": "enum BasicUserAgentBase.AdapterType[]",
          "name": "_adapterTypes",
          "type": "uint8[]"
        }
      ],
      "name": "setCallAdapterTypes",
      "outputs": [],
      "stateMutability": "nonpayable",
      "type": "function"
    },
    {
      "inputs": [
        {
          "internalType": "contract IXChainAdapter",
          "name": "_multichainAdapter",
          "type": "address"
        }
      ],
      "name": "setMultichainAdapter",
      "outputs": [],
      "stateMutability": "nonpayable",
      "type": "function"
    },
    {
      "inputs": [
        {
          "internalType": "contract ISTIMinter",
          "name": "_stiMinter",
          "type": "address"
        }
      ],
      "name": "setSTIMinter",
      "outputs": [],
      "stateMutability": "nonpayable",
      "type": "function"
    },
    {
      "inputs": [
        {
          "internalType": "uint256[]",
          "name": "_chainIds",
          "type": "uint256[]"
        },
        {
          "internalType": "contract ISTIVault[]",
          "name": "_stiVaults",
          "type": "address[]"
        }
      ],
      "name": "setSTIVaults",
      "outputs": [],
      "stateMutability": "nonpayable",
      "type": "function"
    },
    {
      "inputs": [
        {
          "internalType": "address",
          "name": "_subImpl",
          "type": "address"
        }
      ],
      "name": "setSubImpl",
      "outputs": [],
      "stateMutability": "nonpayable",
      "type": "function"
    },
    {
      "inputs": [
        {
          "internalType": "uint256[]",
          "name": "_chainIds",
          "type": "uint256[]"
        },
        {
          "internalType": "address[]",
          "name": "_userAgents",
          "type": "address[]"
        }
      ],
      "name": "setUserAgents",
      "outputs": [],
      "stateMutability": "nonpayable",
      "type": "function"
    },
    {
      "inputs": [],
      "name": "stiMinter",
      "outputs": [
        {
          "internalType": "contract ISTIMinter",
          "name": "",
          "type": "address"
        }
      ],
      "stateMutability": "view",
      "type": "function"
    },
    {
      "inputs": [
        {
          "internalType": "uint256",
          "name": "",
          "type": "uint256"
        }
      ],
      "name": "stiVaults",
      "outputs": [
        {
          "internalType": "contract ISTIVault",
          "name": "",
          "type": "address"
        }
      ],
      "stateMutability": "view",
      "type": "function"
    },
    {
      "inputs": [],
      "name": "subImpl",
      "outputs": [
        {
          "internalType": "address",
          "name": "",
          "type": "address"
        }
      ],
      "stateMutability": "view",
      "type": "function"
    },
    {
      "inputs": [
        {
          "internalType": "bytes4",
          "name": "interfaceId",
          "type": "bytes4"
        }
      ],
      "name": "supportsInterface",
      "outputs": [
        {
          "internalType": "bool",
          "name": "",
          "type": "bool"
        }
      ],
      "stateMutability": "view",
      "type": "function"
    },
    {
      "inputs": [
        {
          "internalType": "uint256",
          "name": "_gatheredAmount",
          "type": "uint256"
        },
        {
          "internalType": "bytes",
          "name": "_signature",
          "type": "bytes"
        }
      ],
      "name": "takeOut",
      "outputs": [],
      "stateMutability": "nonpayable",
      "type": "function"
    },
    {
      "inputs": [
        {
          "internalType": "uint256[]",
          "name": "_amounts",
          "type": "uint256[]"
        },
        {
          "internalType": "uint256[]",
          "name": "_toChainIds",
          "type": "uint256[]"
        },
        {
          "internalType": "enum BasicUserAgentBase.AdapterType[]",
          "name": "_adapterTypes",
          "type": "uint8[]"
        },
        {
          "internalType": "bytes",
          "name": "_signature",
          "type": "bytes"
        }
      ],
      "name": "transfer",
      "outputs": [
        {
          "internalType": "uint256",
          "name": "_feeAmt",
          "type": "uint256"
        }
      ],
      "stateMutability": "payable",
      "type": "function"
    },
    {
      "inputs": [
        {
          "internalType": "address",
          "name": "newOwner",
          "type": "address"
        }
      ],
      "name": "transferOwnership",
      "outputs": [],
      "stateMutability": "nonpayable",
      "type": "function"
    },
    {
      "inputs": [],
      "name": "trustedForwarder",
      "outputs": [
        {
          "internalType": "address",
          "name": "",
          "type": "address"
        }
      ],
      "stateMutability": "view",
      "type": "function"
    },
    {
      "inputs": [],
      "name": "unpause",
      "outputs": [],
      "stateMutability": "nonpayable",
      "type": "function"
    },
    {
      "inputs": [
        {
          "internalType": "address",
          "name": "",
          "type": "address"
        }
      ],
      "name": "usdcBalances",
      "outputs": [
        {
          "internalType": "uint256",
          "name": "",
          "type": "uint256"
        }
      ],
      "stateMutability": "view",
      "type": "function"
    },
    {
      "inputs": [
        {
          "internalType": "address",
          "name": "",
          "type": "address"
        }
      ],
      "name": "usdtBalances",
      "outputs": [
        {
          "internalType": "uint256",
          "name": "",
          "type": "uint256"
        }
      ],
      "stateMutability": "view",
      "type": "function"
    },
    {
      "inputs": [
        {
          "internalType": "uint256",
          "name": "",
          "type": "uint256"
        }
      ],
      "name": "userAgents",
      "outputs": [
        {
          "internalType": "address",
          "name": "",
          "type": "address"
        }
      ],
      "stateMutability": "view",
      "type": "function"
    },
    {
      "inputs": [],
      "name": "versionRecipient",
      "outputs": [
        {
          "internalType": "string",
          "name": "",
          "type": "string"
        }
      ],
      "stateMutability": "pure",
      "type": "function"
    },
    {
      "inputs": [
        {
          "internalType": "uint256[]",
          "name": "_chainIds",
          "type": "uint256[]"
        },
        {
          "internalType": "uint256",
          "name": "_sharePerc",
          "type": "uint256"
        },
        {
          "internalType": "uint256",
          "name": "_minterNonce",
          "type": "uint256"
        },
        {
          "internalType": "bytes",
          "name": "_signature",
          "type": "bytes"
        }
      ],
      "name": "withdraw",
      "outputs": [
        {
          "internalType": "uint256",
          "name": "_feeAmt",
          "type": "uint256"
        }
      ],
      "stateMutability": "payable",
      "type": "function"
    },
    {
      "inputs": [
        {
          "internalType": "address",
          "name": "_account",
          "type": "address"
        },
        {
          "internalType": "uint256",
          "name": "_sharePerc",
          "type": "uint256"
        },
        {
          "internalType": "uint256",
          "name": "_minterNonce",
          "type": "uint256"
        }
      ],
      "name": "withdrawPercByAgent",
      "outputs": [],
      "stateMutability": "nonpayable",
      "type": "function"
    },
    {
      "stateMutability": "payable",
      "type": "receive"
    }
  ],
  "transactionHash": "0x52ddfc68b514553401613d388ff35b96064ee0fd14b80d9ade633e801269c8a7",
  "args": [],
  "numDeployments": 4,
  "solcInputHash": "b614cee8b0f92e45233ee7aa74b96455",
  "bytecode": "0x608060405234801561001057600080fd5b50614b78806100206000396000f3fe6080604052600436106103e85760003560e01c80637ecebe0011610208578063af3da2f411610118578063db7fd408116100ab578063f2fde38b1161007a578063f2fde38b14610bc0578063f77de4861461053c578063f7bb364c14610be0578063f851a44014610bfb578063f8c8765e14610c1c57600080fd5b8063db7fd40814610942578063e629f7b314610b6e578063e9e81a6a14610b6e578063f2ea161814610b8957600080fd5b8063ca15c873116100e7578063ca15c87314610b0d578063d1dbbc6014610b2d578063d48a3d3d14610b40578063d547741f14610b4e57600080fd5b8063af3da2f414610a99578063b8a6752d14610ab9578063c54e44eb14610acc578063c7205bce14610aed57600080fd5b806389a302711161019b57806391d148541161016a57806391d14854146109f65780639479758714610a165780639e17747a14610a36578063a217fddf14610a56578063a99c68c514610a6b57600080fd5b806389a30271146109885780638da5cb5b146109a95780639010d07c146109c8578063918f1a5c146109e857600080fd5b80638456cb59116101d75780638456cb591461092d578063847627391461094257806386355d9614610955578063897fd4691461096857600080fd5b80637ecebe00146108a65780638033a805146108d457806380a5a371146108f45780638365d5ee1461090757600080fd5b806343a463c7116103035780635c975abb116102965780636ebf33ce116102655780636ebf33ce146107fa578063704b6c0214610831578063715018a614610851578063754fc0c8146108665780637da0a8771461088657600080fd5b80635c975abb146107945780635f2b3737146107ac5780636687977f146107cc5780636e5677ce146107df57600080fd5b8063572b6c05116102d2578063572b6c05146106f657806357cdd7f914610725578063582489cb14610746578063582712b11461077457600080fd5b806343a463c71461064f57806344f745f91461066f578063472c38ff146106a6578063486ff0cd146106c657600080fd5b8063264489ce1161037b57806336568abe1161034a57806336568abe146105bc57806339dacedb146105dc5780633f4ba83a1461061a5780634107c4f61461062f57600080fd5b8063264489ce1461053c57806328054fb71461055c5780632f2ff15d1461057c57806331e8df891461059c57600080fd5b80630d8b76a8116103b75780630d8b76a8146104b357806319463093146104d55780631a5787d8146104f5578063248a9ca31461050c57600080fd5b8063013dee70146103f457806301ffc9a71461043257806302a882e6146104625780630c3a18211461049257600080fd5b366103ef57005b600080fd5b34801561040057600080fd5b5061019554610415906001600160a01b031681565b6040516001600160a01b0390911681526020015b60405180910390f35b34801561043e57600080fd5b5061045261044d366004613bcd565b610c3c565b6040519015158152602001610429565b34801561046e57600080fd5b50610484600080516020614b2383398151915281565b604051908152602001610429565b34801561049e57600080fd5b5061016654610415906001600160a01b031681565b3480156104bf57600080fd5b506104d36104ce366004613c0c565b610c67565b005b3480156104e157600080fd5b506104846104f0366004613cde565b610cdc565b34801561050157600080fd5b506104846101925481565b34801561051857600080fd5b50610484610527366004613d12565b60009081526097602052604090206001015490565b34801561054857600080fd5b506104d3610557366004613c0c565b610d28565b34801561056857600080fd5b506104d3610577366004613d3a565b610d34565b34801561058857600080fd5b506104d3610597366004613d78565b610d42565b3480156105a857600080fd5b506104d36105b7366004613c0c565b610d6c565b3480156105c857600080fd5b506104d36105d7366004613d78565b610df0565b3480156105e857600080fd5b5061060d6105f7366004613d12565b61016a6020526000908152604090205460ff1681565b6040516104299190613de0565b34801561062657600080fd5b506104d3610e7a565b34801561063b57600080fd5b506104d361064a366004613dee565b6111c7565b34801561065b57600080fd5b506104d361066a366004613e84565b611359565b34801561067b57600080fd5b5061041561068a366004613d12565b610194602052600090815260409020546001600160a01b031681565b3480156106b257600080fd5b506104d36106c1366004613eb9565b6113e1565b3480156106d257600080fd5b5060408051808201825260018152603160f81b602082015290516104299190613f3b565b34801561070257600080fd5b50610452610711366004613c0c565b6000546001600160a01b0391821691161490565b34801561073157600080fd5b5061016754610415906001600160a01b031681565b34801561075257600080fd5b50610484610761366004613c0c565b6101656020526000908152604090205481565b34801561078057600080fd5b506104d361078f366004614055565b6114d8565b3480156107a057600080fd5b5060fb5460ff16610452565b3480156107b857600080fd5b506104d36107c7366004614134565b6114e7565b6104846107da3660046141df565b6115dd565b3480156107eb57600080fd5b506104d361057736600461425c565b34801561080657600080fd5b50610415610815366004613d12565b610169602052600090815260409020546001600160a01b031681565b34801561083d57600080fd5b506104d361084c366004613c0c565b6115f1565b34801561085d57600080fd5b506104d361165e565b34801561087257600080fd5b506104d3610881366004613c0c565b6116b2565b34801561089257600080fd5b50600054610415906001600160a01b031681565b3480156108b257600080fd5b506104846108c1366004613c0c565b6101606020526000908152604090205481565b3480156108e057600080fd5b506104d36108ef366004613c0c565b611725565b6104846109023660046142a7565b6117da565b34801561091357600080fd5b50610193546104159061010090046001600160a01b031681565b34801561093957600080fd5b506104d36117ed565b61048461095036600461425c565b6118e2565b6104846109633660046142f9565b6118f4565b34801561097457600080fd5b506104d36109833660046143b5565b611909565b34801561099457600080fd5b5061016254610415906001600160a01b031681565b3480156109b557600080fd5b5061012d546001600160a01b0316610415565b3480156109d457600080fd5b506104156109e336600461440e565b6119fc565b610484610902366004614430565b348015610a0257600080fd5b50610452610a11366004613d78565b611a1b565b348015610a2257600080fd5b506104d3610a313660046144ae565b611a46565b348015610a4257600080fd5b506104d3610a51366004613c0c565b611b12565b348015610a6257600080fd5b50610484600081565b348015610a7757600080fd5b50610484610a86366004613c0c565b6101646020526000908152604090205481565b348015610aa557600080fd5b506104d3610ab4366004614571565b611b96565b610484610ac73660046142a7565b611b9e565b348015610ad857600080fd5b5061016354610415906001600160a01b031681565b348015610af957600080fd5b50610452610b0836600461459d565b611d08565b348015610b1957600080fd5b50610484610b28366004613d12565b611e87565b610484610b3b3660046145e6565b611e9e565b61048461095036600461467b565b348015610b5a57600080fd5b506104d3610b69366004613d78565b611f56565b348015610b7a57600080fd5b506104d3610577366004613e84565b348015610b9557600080fd5b50610415610ba4366004613d12565b610168602052600090815260409020546001600160a01b031681565b348015610bcc57600080fd5b506104d3610bdb366004613c0c565b611f7b565b348015610bec57600080fd5b50610193546104529060ff1681565b348015610c0757600080fd5b5061015f54610415906001600160a01b031681565b348015610c2857600080fd5b506104d3610c373660046146d6565b611fd1565b60006001600160e01b03198216635a05180f60e01b1480610c615750610c61826120f4565b92915050565b610c6f612129565b6001600160a01b0316610c8b61012d546001600160a01b031690565b6001600160a01b031614610cba5760405162461bcd60e51b8152600401610cb190614732565b60405180910390fd5b600080546001600160a01b0319166001600160a01b0392909216919091179055565b805160209182012060015460408051601960f81b81860152600160f81b602182015260228101929092526042808301939093528051808303909301835260629091019052805191012090565b610d30612138565b5050565b610d3c612138565b50505050565b600082815260976020526040902060010154610d5d816121b9565b610d6783836121ca565b505050565b610d74612129565b6001600160a01b0316610d9061012d546001600160a01b031690565b6001600160a01b031614610db65760405162461bcd60e51b8152600401610cb190614732565b61016754610dcd906001600160a01b0316826121ec565b61016780546001600160a01b0319166001600160a01b0392909216919091179055565b610df8612129565b6001600160a01b0316816001600160a01b031614610e705760405162461bcd60e51b815260206004820152602f60248201527f416363657373436f6e74726f6c3a2063616e206f6e6c792072656e6f756e636560448201526e103937b632b9903337b91039b2b63360891b6064820152608401610cb1565b610d3082826122be565b610e82612129565b6001600160a01b0316610e9e61012d546001600160a01b031690565b6001600160a01b031614610ec45760405162461bcd60e51b8152600401610cb190614732565b60fb5460ff16610f0d5760405162461bcd60e51b815260206004820152601460248201527314185d5cd8589b194e881b9bdd081c185d5cd95960621b6044820152606401610cb1565b610f156122e0565b6101635461016654604051636eb1769f60e11b81523060048201526001600160a01b03918216602482015291169063dd62ed3e9060440160206040518083038186803b158015610f6457600080fd5b505afa158015610f78573d6000803e3d6000fd5b505050506040513d601f19601f82011682018060405250810190610f9c9190614767565b610fc1576101665461016354610fc1916001600160a01b039182169116600019612379565b6101625461016654604051636eb1769f60e11b81523060048201526001600160a01b03918216602482015291169063dd62ed3e9060440160206040518083038186803b15801561101057600080fd5b505afa158015611024573d6000803e3d6000fd5b505050506040513d601f19601f820116820180604052508101906110489190614767565b61106d57610166546101625461106d916001600160a01b039182169116600019612379565b6101635461016754604051636eb1769f60e11b81523060048201526001600160a01b03918216602482015291169063dd62ed3e9060440160206040518083038186803b1580156110bc57600080fd5b505afa1580156110d0573d6000803e3d6000fd5b505050506040513d601f19601f820116820180604052508101906110f49190614767565b611119576101675461016354611119916001600160a01b039182169116600019612379565b6101625461016754604051636eb1769f60e11b81523060048201526001600160a01b03918216602482015291169063dd62ed3e9060440160206040518083038186803b15801561116857600080fd5b505afa15801561117c573d6000803e3d6000fd5b505050506040513d601f19601f820116820180604052508101906111a09190614767565b6111c55761016754610162546111c5916001600160a01b039182169116600019612379565b565b60006111d360016124d0565b905080156111ef576000805460ff60a81b1916600160a81b1790555b6111f7612570565b611214600061120f61012d546001600160a01b031690565b6125a9565b61121c6125b3565b611226600161263b565b61016280546001600160a01b0319166001600160a01b0392909216919091179055611251600061263b565b61016380546001600160a01b03199081166001600160a01b039384161790915561015f805482168a8416179055610161805490911691881691909117905561129885611b12565b6112a184610d6c565b61019580546001600160a01b0319166001600160a01b038a16179055600046600461019281905561019380546001600160a81b031916918314610100600160a81b031916919091176101006001600160a01b038816021790559050611306818461289b565b50801561134f576000805460ff60a81b19169055604051600181527f7f26b83ff96e1f2b6a682f133852f6798a09c465da95921460cefb38474024989060200160405180910390a15b5050505050505050565b600080516020614b23833981519152611371816121b9565b610193546040516343a463c760e01b81526001600160a01b0386811660048301526024820186905260448201859052610100909204909116906343a463c790606401600060405180830381600087803b1580156113cd57600080fd5b505af115801561134f573d6000803e3d6000fd5b610167546001600160a01b0316331461142b5760405162461bcd60e51b815260206004820152600c60248201526b4f6e6c79206342726964676560a01b6044820152606401610cb1565b60008581526101686020526040902054610163546001600160a01b03918216918681169116141561148a576001600160a01b038116600090815261016560205260408120805486929061147f908490614796565b909155506114d09050565b610162546001600160a01b03868116911614156114d0576001600160a01b03811660009081526101646020526040812080548692906114ca908490614796565b90915550505b505050505050565b6114e0612138565b5050505050565b6114ef612129565b6001600160a01b031661150b61012d546001600160a01b031690565b6001600160a01b0316146115315760405162461bcd60e51b8152600401610cb190614732565b815160005b81811015610d3c576000848281518110611552576115526147ae565b60200260200101519050806000141561157d5760405162461bcd60e51b8152600401610cb1906147c4565b83828151811061158f5761158f6147ae565b602090810291909101810151600083815261016a9092526040909120805460ff1916600183818111156115c4576115c4613da8565b02179055505080806115d5906147ed565b915050611536565b60006115e7612138565b5095945050505050565b6115f9612129565b6001600160a01b031661161561012d546001600160a01b031690565b6001600160a01b03161461163b5760405162461bcd60e51b8152600401610cb190614732565b61015f80546001600160a01b0319166001600160a01b0392909216919091179055565b611666612129565b6001600160a01b031661168261012d546001600160a01b031690565b6001600160a01b0316146116a85760405162461bcd60e51b8152600401610cb190614732565b6111c56000612959565b6116ba612129565b6001600160a01b03166116d661012d546001600160a01b031690565b6001600160a01b0316146116fc5760405162461bcd60e51b8152600401610cb190614732565b61019380546001600160a01b0390921661010002610100600160a81b0319909216919091179055565b61172d612129565b6001600160a01b031661174961012d546001600160a01b031690565b6001600160a01b03161461176f5760405162461bcd60e51b8152600401610cb190614732565b6001600160a01b0381166117b75760405162461bcd60e51b815260206004820152600f60248201526e496e76616c6964206164647265737360881b6044820152606401610cb1565b61019580546001600160a01b0319166001600160a01b0392909216919091179055565b60006117e4612138565b50949350505050565b6117f5612129565b6001600160a01b031661181161012d546001600160a01b031690565b6001600160a01b0316146118375760405162461bcd60e51b8152600401610cb190614732565b60fb5460ff161561185a5760405162461bcd60e51b8152600401610cb190614808565b6118626129ac565b6101665461016354611882916001600160a01b0391821691166000612379565b61016654610162546118a2916001600160a01b0391821691166000612379565b61016754610163546118c2916001600160a01b0391821691166000612379565b61016754610162546111c5916001600160a01b0391821691166000612379565b60006118ec612138565b509392505050565b60006118fe612138565b509695505050505050565b611911612129565b6001600160a01b031661192d61012d546001600160a01b031690565b6001600160a01b0316146119535760405162461bcd60e51b8152600401610cb190614732565b815160005b81811015610d3c576000848281518110611974576119746147ae565b60200260200101519050806000141561199f5760405162461bcd60e51b8152600401610cb1906147c4565b8382815181106119b1576119b16147ae565b6020908102919091018101516000928352610169909152604090912080546001600160a01b0319166001600160a01b03909216919091179055806119f4816147ed565b915050611958565b600082815260c960205260408120611a149083612a05565b9392505050565b60009182526097602090815260408084206001600160a01b0393909316845291905290205460ff1690565b611a4e612129565b6001600160a01b0316611a6a61012d546001600160a01b031690565b6001600160a01b031614611a905760405162461bcd60e51b8152600401610cb190614732565b815160005b81811015610d3c576000848281518110611ab157611ab16147ae565b602002602001015190508060001415611adc5760405162461bcd60e51b8152600401610cb1906147c4565b611aff81858481518110611af257611af26147ae565b602002602001015161289b565b5080611b0a816147ed565b915050611a95565b611b1a612129565b6001600160a01b0316611b3661012d546001600160a01b031690565b6001600160a01b031614611b5c5760405162461bcd60e51b8152600401610cb190614732565b61016654611b73906001600160a01b0316826121ec565b61016680546001600160a01b0319166001600160a01b0392909216919091179055565b610d67612138565b6000611bac60fb5460ff1690565b15611bc95760405162461bcd60e51b8152600401610cb190614808565b6000611bd3612129565b6001600160a01b038116600090815261016060209081526040918290205491516bffffffffffffffffffffffff19606085901b169181019190915260348101829052605481018990526074810188905291925090611c4c906094015b604051602081830303815290604052805190602001208686612a11565b6101935460ff1615611cd157610193546040516343a463c760e01b81526001600160a01b038481166004830152602482018a905260448201899052610100909204909116906343a463c790606401600060405180830381600087803b158015611cb457600080fd5b505af1158015611cc8573d6000803e3d6000fd5b50505050611cd6565b600092505b611ce1816001614796565b6001600160a01b039092166000908152610160602052604090209190915550949350505050565b600080611d1485610cdc565b90506001600160a01b0386163b15611d7057611d6886828787878080601f016020809104026020016040519081016040528093929190818152602001838380828437600092019190915250612a8592505050565b915050611e7f565b6000806000611db487878080601f01602080910402602001604051908101604052809392919081815260200183838082843760009201829052509250612b21915050565b6040517f19457468657265756d205369676e6564204d6573736167653a0a3332000000006020820152603c81018890529295509093509150600090605c0160408051601f198184030181528282528051602091820120600080855291840180845281905260ff88169284019290925260608301869052608083018590529092509060019060a0016020604051602081039080840390855afa158015611e5d573d6000803e3d6000fd5b5050604051601f1901516001600160a01b038d81169116149750505050505050505b949350505050565b600081815260c960205260408120610c6190612b3f565b6000611eac60fb5460ff1690565b15611ec95760405162461bcd60e51b8152600401610cb190614808565b6000611ed3612129565b6001600160a01b038116600090815261016060209081526040918290205491519293509091611f1091611c2f91859185918d918d918d9101614865565b611f1c82898989612b49565b5060009350611f2e9050816001614796565b6001600160a01b03909216600090815261016060205260409020919091555095945050505050565b600082815260976020526040902060010154611f71816121b9565b610d6783836122be565b611f83612129565b6001600160a01b0316611f9f61012d546001600160a01b031690565b6001600160a01b031614611fc55760405162461bcd60e51b8152600401610cb190614732565b611fce81612e12565b50565b6000611fdd60016124d0565b90508015611ff9576000805460ff60a81b1916600160a81b1790555b612001612570565b612019600061120f61012d546001600160a01b031690565b6120216125b3565b61202b6001612e8d565b61016280546001600160a01b0319166001600160a01b03929092169190911790556120566000612e8d565b61016380546001600160a01b03199081166001600160a01b039384161790915561015f80548216888416179055610161805490911691861691909117905561209d83611b12565b6120a682610d6c565b80156114e0576000805460ff60a81b19169055604051600181527f7f26b83ff96e1f2b6a682f133852f6798a09c465da95921460cefb38474024989060200160405180910390a15050505050565b60006001600160e01b03198216637965db0b60e01b1480610c6157506301ffc9a760e01b6001600160e01b0319831614610c61565b60006121336130dd565b905090565b610195546040516060916000916001600160a01b039091169061215e90839036906148d5565b600060405180830381855af49150503d8060008114612199576040519150601f19603f3d011682016040523d82523d6000602084013e61219e565b606091505b505090506040513d6000823e8180156121b5573d82f35b3d82fd5b611fce816121c5612129565b613111565b6121d48282613175565b600082815260c960205260409020610d6790826131fc565b806001600160a01b0316826001600160a01b0316141561220a575050565b6001600160a01b0382161561226357612231600080516020614b23833981519152836122be565b6101635461224a906001600160a01b0316836000612379565b61016254612263906001600160a01b0316836000612379565b6001600160a01b03811615610d305761228a600080516020614b23833981519152826125a9565b610162546122a4906001600160a01b031682600019612379565b61016354610d30906001600160a01b031682600019612379565b6122c88282613211565b600082815260c960205260409020610d679082613296565b60fb5460ff166123295760405162461bcd60e51b815260206004820152601460248201527314185d5cd8589b194e881b9bdd081c185d5cd95960621b6044820152606401610cb1565b60fb805460ff191690557f5db9ee0a495bf2e6ff9c91a7834c1ba4fdd244a5e8aa4e537bd38aeae4b073aa61235c612129565b6040516001600160a01b03909116815260200160405180910390a1565b8015806124025750604051636eb1769f60e11b81523060048201526001600160a01b03838116602483015284169063dd62ed3e9060440160206040518083038186803b1580156123c857600080fd5b505afa1580156123dc573d6000803e3d6000fd5b505050506040513d601f19601f820116820180604052508101906124009190614767565b155b61246d5760405162461bcd60e51b815260206004820152603660248201527f5361666545524332303a20617070726f76652066726f6d206e6f6e2d7a65726f60448201527520746f206e6f6e2d7a65726f20616c6c6f77616e636560501b6064820152608401610cb1565b6040516001600160a01b038316602482015260448101829052610d6790849063095ea7b360e01b906064015b60408051601f198184030181529190526020810180516001600160e01b03166001600160e01b0319909316929092179091526132ab565b60008054600160a81b900460ff1615612519578160ff1660011480156124f55750303b155b6125115760405162461bcd60e51b8152600401610cb1906148e5565b506000919050565b60005460ff808416600160a01b90920416106125475760405162461bcd60e51b8152600401610cb1906148e5565b506000805460ff909216600160a01b0260ff60a01b19909216919091179055600190565b919050565b600054600160a81b900460ff166125995760405162461bcd60e51b8152600401610cb190614933565b6111c56125a4612129565b612959565b610d3082826121ca565b600054600160a81b900460ff166125dc5760405162461bcd60e51b8152600401610cb190614933565b61263660007f47e79534a245952e8b16893a336b85a3d9ea9fa8c573f3d803afb92a794692184660408051602081019390935282015230606082015260800160405160208183030381529060405280519060200120905090565b600155565b600046634e4541538114156126bb57600183600181111561265e5761265e613da8565b1415612680575073cceca5c4a3355f8e7a0b7d2a7251eec012be7c5892915050565b600083600181111561269457612694613da8565b14156126b6575073f9c249974c1acf96a59e5757cc9ba7035ce489b192915050565b612892565b61a8698114156127315760018360018111156126d9576126d9613da8565b14156126fb5750737acdaba7ee51c1c3f7c6d605cc26b1c9aab0495a92915050565b600083600181111561270f5761270f613da8565b14156126b657507378ae2880bd1672b49a33cf796cf53fe6db0ab01d92915050565b60618114156127a657600183600181111561274e5761274e613da8565b1415612770575073da14d11d2c7d79f167b6057de3d9cc25c2c488d592915050565b600083600181111561278457612784613da8565b14156126b65750731f326a8ca5399418a76ea0efa0403cbb00790c6792915050565b600481141561281b5760018360018111156127c3576127c3613da8565b14156127e5575073df5324ebe6f6b852ff5cbf73627ee137e907527692915050565b60008360018111156127f9576127f9613da8565b14156126b657507321e48034753e490ff04f2f75f7caedf081b320d592915050565b6201388181141561289257600183600181111561283a5761283a613da8565b141561285c5750736600bec324ccdd12c70297311aefb37fafb1d68992915050565b600083600181111561287057612870613da8565b14156128925750737e4c234b1d634db790592d1550816b19e862f74492915050565b50600092915050565b60008281526101946020526040902080546001600160a01b038381166001600160a01b0319831617909255166128ce4690565b831415610d67576001600160a01b0381161561291657610163546128fd906001600160a01b0316826000612379565b61016254612916906001600160a01b0316826000612379565b6001600160a01b03821615610d67576101635461293f906001600160a01b031683600019612379565b61016254610d67906001600160a01b031683600019612379565b61012d80546001600160a01b038381166001600160a01b0319831681179093556040519116919082907f8be0079c531659141344cd1fd0a4f28419497f9722a3daafe3b4186f6b6457e090600090a35050565b60fb5460ff16156129cf5760405162461bcd60e51b8152600401610cb190614808565b60fb805460ff191660011790557f62e78cea01bee320cd4e420270b5ea74000d11b0c9f74754ebdbfc544b05a25861235c612129565b6000611a14838361337d565b61015f546040805160208101869052612a45926001600160a01b031691016040516020818303038152906040528484611d08565b610d675760405162461bcd60e51b8152602060048201526011602482015270496e76616c6964207369676e617475726560781b6044820152606401610cb1565b600080856001600160a01b031663e75235b86040518163ffffffff1660e01b815260040160206040518083038186803b158015612ac157600080fd5b505afa158015612ad5573d6000803e3d6000fd5b505050506040513d601f19601f82011682018060405250810190612af99190614767565b905080612b0a576000915050611e7f565b612b1786868686856133a7565b9695505050505050565b60419081029190910160208101516040820151919092015160ff1692565b6000610c61825490565b8251606090600090806001600160401b03811115612b6957612b69613c29565b604051908082528060200260200182016040528015612b92578160200160208202803683370190505b50925046600080805b84811015612db05760008a8281518110612bb757612bb76147ae565b6020026020010151905060008a8381518110612bd557612bd56147ae565b6020026020010151905085811415612c5057600086815261019460205260409020546001600160a01b0316612c3f5760405162461bcd60e51b815260206004820152601060248201526f125b9d985b1a59081cdd1a55985d5b1d60821b6044820152606401610cb1565b612c498286614796565b9450612d9b565b828814612d8057818c8981518110612c6a57612c6a6147ae565b602002602001018181525050808b8981518110612c8957612c896147ae565b602002602001018181525050898381518110612ca757612ca76147ae565b60200260200101518a8981518110612cc157612cc16147ae565b60200260200101906001811115612cda57612cda613da8565b90816001811115612ced57612ced613da8565b905250600081815261016960205260409020546001600160a01b031680612d4b5760405162461bcd60e51b8152602060048201526012602482015271125b9d985b1a59081d5cd95c881859d95b9d60721b6044820152606401610cb1565b808a8a81518110612d5e57612d5e6147ae565b60200260200101906001600160a01b031690816001600160a01b031681525050505b87612d8a816147ed565b9850612d9890508285614796565b93505b50508080612da8906147ed565b915050612b9b565b50612dd58a30612dc08486614796565b610163546001600160a01b0316929190613603565b6001600160a01b038a166000908152610165602052604081208054849290612dfe908490614796565b925050819055505050505094509492505050565b612e1a612129565b6001600160a01b0316612e3661012d546001600160a01b031690565b6001600160a01b031614612e5c5760405162461bcd60e51b8152600401610cb190614732565b612e796000612e7461012d546001600160a01b031690565b6122be565b612e828161363b565b611fce6000826125a9565b600046634e454152811415612f08576001836001811115612eb057612eb0613da8565b1415612ed2575073b12bfca5a55806aaf64e99521918a4bf0fc4080292915050565b6000836001811115612ee657612ee6613da8565b14156126b65750734988a896b1227218e4a686fde5eabdcabd91571f92915050565b61a86a811415612f7e576001836001811115612f2657612f26613da8565b1415612f48575073a7d7079b0fead91f3e65f86e8915cb59c1a4c66492915050565b6000836001811115612f5c57612f5c613da8565b14156126b6575073c7198437980c041c805a1edcba50c1ce5db9511892915050565b6038811415612ff3576001836001811115612f9b57612f9b613da8565b1415612fbd5750738ac76a51cc950d9822d68b83fe1ad97b32cd580d92915050565b6000836001811115612fd157612fd1613da8565b14156126b657507355d398326f99059ff775485246999027b319795592915050565b600181141561306857600183600181111561301057613010613da8565b1415613032575073a0b86991c6218b36c1d19d4a2e9eb0ce3606eb4892915050565b600083600181111561304657613046613da8565b14156126b6575073dac17f958d2ee523a2206206994597c13d831ec792915050565b608981141561289257600183600181111561308557613085613da8565b14156130a75750732791bca1f2de4661ed88a30c99a7a9449aa8417492915050565b60008360018111156130bb576130bb613da8565b1415612892575073c2132d05d31c914a87c6611c10748aeb04b58e8f92915050565b6000601836108015906130fa57506000546001600160a01b031633145b1561310c575060131936013560601c90565b503390565b61311b8282611a1b565b610d3057613133816001600160a01b031660146136f3565b61313e8360206136f3565b60405160200161314f92919061497e565b60408051601f198184030181529082905262461bcd60e51b8252610cb191600401613f3b565b61317f8282611a1b565b610d305760008281526097602090815260408083206001600160a01b03851684529091529020805460ff191660011790556131b8612129565b6001600160a01b0316816001600160a01b0316837f2f8788117e7eff1d82e926ec794901d17c78024a50270940304540a733656f0d60405160405180910390a45050565b6000611a14836001600160a01b03841661388e565b61321b8282611a1b565b15610d305760008281526097602090815260408083206001600160a01b03851684529091529020805460ff19169055613252612129565b6001600160a01b0316816001600160a01b0316837ff6391f5c32d9c69d2a47ea670b442974b53935d1edc7fd64eb21e047a839171b60405160405180910390a45050565b6000611a14836001600160a01b0384166138dd565b6000613300826040518060400160405280602081526020017f5361666545524332303a206c6f772d6c6576656c2063616c6c206661696c6564815250856001600160a01b03166139d09092919063ffffffff16565b805190915015610d67578080602001905181019061331e91906149f3565b610d675760405162461bcd60e51b815260206004820152602a60248201527f5361666545524332303a204552433230206f7065726174696f6e20646964206e6044820152691bdd081cdd58d8d9595960b21b6064820152608401610cb1565b6000826000018281548110613394576133946147ae565b9060005260206000200154905092915050565b60006133b4826041614a15565b835110156133c4575060006135fa565b600080876001600160a01b031663a0e67e2b6040518163ffffffff1660e01b815260040160006040518083038186803b15801561340057600080fd5b505afa158015613414573d6000803e3d6000fd5b505050506040513d6000823e601f3d908101601f1916820160405261343c9190810190614a34565b905060008080805b878110156135ef5760418181028a0160208101516040820151919092015160ff16955090935091508361351f579194508491613481886041614a15565b82101561349757600096505050505050506135fa565b88516134a4836020614796565b11156134b957600096505050505050506135fa565b6020828a018101518a51909182906134d2908690614796565b6134dc9190614796565b11156134f25760009750505050505050506135fa565b898301602001613503888d836139df565b613518576000985050505050505050506135fa565b50506135c0565b6040517f19457468657265756d205369676e6564204d6573736167653a0a3332000000006020820152603c81018c9052600190605c0160408051601f198184030181528282528051602091820120600084529083018083525260ff871690820152606081018590526080810184905260a0016020604051602081039080840390855afa1580156135b3573d6000803e3d6000fd5b5050506020604051035195505b6135ca85876139f9565b6135dd57600096505050505050506135fa565b806135e7816147ed565b915050613444565b600196505050505050505b95945050505050565b6040516001600160a01b0380851660248301528316604482015260648101829052610d3c9085906323b872dd60e01b90608401612499565b613643612129565b6001600160a01b031661365f61012d546001600160a01b031690565b6001600160a01b0316146136855760405162461bcd60e51b8152600401610cb190614732565b6001600160a01b0381166136ea5760405162461bcd60e51b815260206004820152602660248201527f4f776e61626c653a206e6577206f776e657220697320746865207a65726f206160448201526564647265737360d01b6064820152608401610cb1565b611fce81612959565b60606000613702836002614a15565b61370d906002614796565b6001600160401b0381111561372457613724613c29565b6040519080825280601f01601f19166020018201604052801561374e576020820181803683370190505b509050600360fc1b81600081518110613769576137696147ae565b60200101906001600160f81b031916908160001a905350600f60fb1b81600181518110613798576137986147ae565b60200101906001600160f81b031916908160001a90535060006137bc846002614a15565b6137c7906001614796565b90505b600181111561383f576f181899199a1a9b1b9c1cb0b131b232b360811b85600f16601081106137fb576137fb6147ae565b1a60f81b828281518110613811576138116147ae565b60200101906001600160f81b031916908160001a90535060049490941c9361383881614ac2565b90506137ca565b508315611a145760405162461bcd60e51b815260206004820181905260248201527f537472696e67733a20686578206c656e67746820696e73756666696369656e746044820152606401610cb1565b60008181526001830160205260408120546138d557508154600181810184556000848152602080822090930184905584548482528286019093526040902091909155610c61565b506000610c61565b600081815260018301602052604081205480156139c6576000613901600183614ad9565b855490915060009061391590600190614ad9565b905081811461397a576000866000018281548110613935576139356147ae565b9060005260206000200154905080876000018481548110613958576139586147ae565b6000918252602080832090910192909255918252600188019052604090208390555b855486908061398b5761398b614af0565b600190038181906000526020600020016000905590558560010160008681526020019081526020016000206000905560019350505050610c61565b6000915050610c61565b6060611e7f8484600085613a63565b6000806139eb84610cdc565b90506135fa85828686612a85565b8151600090815b81811015613a5857836001600160a01b0316858281518110613a2457613a246147ae565b60200260200101516001600160a01b03161415613a4657600192505050610c61565b80613a50816147ed565b915050613a00565b506000949350505050565b606082471015613ac45760405162461bcd60e51b815260206004820152602660248201527f416464726573733a20696e73756666696369656e742062616c616e636520666f6044820152651c8818d85b1b60d21b6064820152608401610cb1565b6001600160a01b0385163b613b1b5760405162461bcd60e51b815260206004820152601d60248201527f416464726573733a2063616c6c20746f206e6f6e2d636f6e74726163740000006044820152606401610cb1565b600080866001600160a01b03168587604051613b379190614b06565b60006040518083038185875af1925050503d8060008114613b74576040519150601f19603f3d011682016040523d82523d6000602084013e613b79565b606091505b5091509150613b89828286613b94565b979650505050505050565b60608315613ba3575081611a14565b825115613bb35782518084602001fd5b8160405162461bcd60e51b8152600401610cb19190613f3b565b600060208284031215613bdf57600080fd5b81356001600160e01b031981168114611a1457600080fd5b6001600160a01b0381168114611fce57600080fd5b600060208284031215613c1e57600080fd5b8135611a1481613bf7565b634e487b7160e01b600052604160045260246000fd5b604051601f8201601f191681016001600160401b0381118282101715613c6757613c67613c29565b604052919050565b600082601f830112613c8057600080fd5b81356001600160401b03811115613c9957613c99613c29565b613cac601f8201601f1916602001613c3f565b818152846020838601011115613cc157600080fd5b816020850160208301376000918101602001919091529392505050565b600060208284031215613cf057600080fd5b81356001600160401b03811115613d0657600080fd5b611e7f84828501613c6f565b600060208284031215613d2457600080fd5b5035919050565b80356002811061256b57600080fd5b600080600060608486031215613d4f57600080fd5b8335613d5a81613bf7565b925060208401359150613d6f60408501613d2b565b90509250925092565b60008060408385031215613d8b57600080fd5b823591506020830135613d9d81613bf7565b809150509250929050565b634e487b7160e01b600052602160045260246000fd5b60028110613ddc57634e487b7160e01b600052602160045260246000fd5b9052565b60208101610c618284613dbe565b600080600080600080600060e0888a031215613e0957600080fd5b8735613e1481613bf7565b96506020880135613e2481613bf7565b95506040880135613e3481613bf7565b94506060880135613e4481613bf7565b93506080880135613e5481613bf7565b925060a0880135613e6481613bf7565b915060c0880135613e7481613bf7565b8091505092959891949750929550565b600080600060608486031215613e9957600080fd5b8335613ea481613bf7565b95602085013595506040909401359392505050565b600080600080600060a08688031215613ed157600080fd5b853594506020860135613ee381613bf7565b935060408601359250606086013591506080860135613f0181613bf7565b809150509295509295909350565b60005b83811015613f2a578181015183820152602001613f12565b83811115610d3c5750506000910152565b6020815260008251806020840152613f5a816040850160208701613f0f565b601f01601f19169190910160400192915050565b60006001600160401b03821115613f8757613f87613c29565b5060051b60200190565b600082601f830112613fa257600080fd5b81356020613fb7613fb283613f6e565b613c3f565b82815260059290921b84018101918181019086841115613fd657600080fd5b8286015b848110156118fe578035613fed81613bf7565b8352918301918301613fda565b600082601f83011261400b57600080fd5b8135602061401b613fb283613f6e565b82815260059290921b8401810191818101908684111561403a57600080fd5b8286015b848110156118fe578035835291830191830161403e565b6000806000806080858703121561406b57600080fd5b843561407681613bf7565b935060208501356001600160401b038082111561409257600080fd5b61409e88838901613f91565b945060408701359150808211156140b457600080fd5b506140c187828801613ffa565b949793965093946060013593505050565b600082601f8301126140e357600080fd5b813560206140f3613fb283613f6e565b82815260059290921b8401810191818101908684111561411257600080fd5b8286015b848110156118fe5761412781613d2b565b8352918301918301614116565b6000806040838503121561414757600080fd5b82356001600160401b038082111561415e57600080fd5b61416a86838701613ffa565b9350602085013591508082111561418057600080fd5b5061418d858286016140d2565b9150509250929050565b60008083601f8401126141a957600080fd5b5081356001600160401b038111156141c057600080fd5b6020830191508360208285010111156141d857600080fd5b9250929050565b6000806000806000608086880312156141f757600080fd5b85356001600160401b038082111561420e57600080fd5b61421a89838a01613ffa565b96506020880135955060408801359450606088013591508082111561423e57600080fd5b5061424b88828901614197565b969995985093965092949392505050565b60008060006040848603121561427157600080fd5b8335925060208401356001600160401b0381111561428e57600080fd5b61429a86828701614197565b9497909650939450505050565b600080600080606085870312156142bd57600080fd5b843593506020850135925060408501356001600160401b038111156142e157600080fd5b6142ed87828801614197565b95989497509550505050565b60008060008060008060a0878903121561431257600080fd5b86356001600160401b038082111561432957600080fd5b6143358a838b01613ffa565b9750602089013591508082111561434b57600080fd5b6143578a838b01613f91565b9650604089013591508082111561436d57600080fd5b6143798a838b01613ffa565b955060608901359450608089013591508082111561439657600080fd5b506143a389828a01614197565b979a9699509497509295939492505050565b600080604083850312156143c857600080fd5b82356001600160401b03808211156143df57600080fd5b6143eb86838701613ffa565b9350602085013591508082111561440157600080fd5b5061418d85828601613f91565b6000806040838503121561442157600080fd5b50508035926020909101359150565b6000806000806060858703121561444657600080fd5b84356001600160401b038082111561445d57600080fd5b61446988838901613ffa565b9550602087013591508082111561447f57600080fd5b61448b888389016140d2565b945060408701359150808211156144a157600080fd5b506142ed87828801614197565b600080604083850312156144c157600080fd5b82356001600160401b03808211156144d857600080fd5b6144e486838701613ffa565b93506020915081850135818111156144fb57600080fd5b85019050601f8101861361450e57600080fd5b803561451c613fb282613f6e565b81815260059190911b8201830190838101908883111561453b57600080fd5b928401925b8284101561456257833561455381613bf7565b82529284019290840190614540565b80955050505050509250929050565b6000806040838503121561458457600080fd5b823561458f81613bf7565b946020939093013593505050565b600080600080606085870312156145b357600080fd5b84356145be81613bf7565b935060208501356001600160401b03808211156145da57600080fd5b61448b88838901613c6f565b6000806000806000608086880312156145fe57600080fd5b85356001600160401b038082111561461557600080fd5b61462189838a01613ffa565b9650602088013591508082111561463757600080fd5b61464389838a01613ffa565b9550604088013591508082111561465957600080fd5b61466589838a016140d2565b9450606088013591508082111561423e57600080fd5b60008060006040848603121561469057600080fd5b83356001600160401b03808211156146a757600080fd5b6146b387838801613ffa565b945060208601359150808211156146c957600080fd5b5061429a86828701614197565b600080600080608085870312156146ec57600080fd5b84356146f781613bf7565b9350602085013561470781613bf7565b9250604085013561471781613bf7565b9150606085013561472781613bf7565b939692955090935050565b6020808252818101527f4f776e61626c653a2063616c6c6572206973206e6f7420746865206f776e6572604082015260600190565b60006020828403121561477957600080fd5b5051919050565b634e487b7160e01b600052601160045260246000fd5b600082198211156147a9576147a9614780565b500190565b634e487b7160e01b600052603260045260246000fd5b6020808252600f908201526e125b9d985b1a590818da185a5b9251608a1b604082015260600190565b600060001982141561480157614801614780565b5060010190565b60208082526010908201526f14185d5cd8589b194e881c185d5cd95960821b604082015260600190565b60008151602080840160005b8381101561485a5781518752958201959082019060010161483e565b509495945050505050565b6bffffffffffffffffffffffff198660601b16815284601482015260006148986148926034840187614832565b85614832565b8351602080860160005b838110156148c5576148b5858351613dbe565b93820193908201906001016148a2565b50929a9950505050505050505050565b8183823760009101908152919050565b6020808252602e908201527f496e697469616c697a61626c653a20636f6e747261637420697320616c72656160408201526d191e481a5b9a5d1a585b1a5e995960921b606082015260800190565b6020808252602b908201527f496e697469616c697a61626c653a20636f6e7472616374206973206e6f74206960408201526a6e697469616c697a696e6760a81b606082015260800190565b7f416363657373436f6e74726f6c3a206163636f756e74200000000000000000008152600083516149b6816017850160208801613f0f565b7001034b99036b4b9b9b4b733903937b6329607d1b60179184019182015283516149e7816028840160208801613f0f565b01602801949350505050565b600060208284031215614a0557600080fd5b81518015158114611a1457600080fd5b6000816000190483118215151615614a2f57614a2f614780565b500290565b60006020808385031215614a4757600080fd5b82516001600160401b03811115614a5d57600080fd5b8301601f81018513614a6e57600080fd5b8051614a7c613fb282613f6e565b81815260059190911b82018301908381019087831115614a9b57600080fd5b928401925b82841015613b89578351614ab381613bf7565b82529284019290840190614aa0565b600081614ad157614ad1614780565b506000190190565b600082821015614aeb57614aeb614780565b500390565b634e487b7160e01b600052603160045260246000fd5b60008251614b18818460208701613f0f565b919091019291505056fedbeb657137b1822b3d5418bea6fd641226d964b4c3871ef23546db2622258871a264697066735822122061b60a8cf7a6e0e5c7ba7c088c35d641d12ec415190504cbf181309a082d8ebd64736f6c63430008090033",
  "devdoc": {
    "kind": "dev",
    "methods": {
      "burn(uint256,uint256,bytes)": {
        "details": "It calls burnByAdmin of STIMinter.",
        "params": {
          "_pool": "total pool in USD",
          "_share": "amount of shares"
        }
      },
      "claim(uint256[],bytes)": {
        "details": "It calls claimByAdmin of STIVaults."
      },
      "deposit(uint256[],address[],uint256[],uint256,bytes)": {
        "details": "It calls depositByAdmin of STIVaults."
      },
      "exitWithdrawal(uint256,bytes)": {
        "details": "It calls exitWithdrawalByAdmin of STIMinter.",
        "params": {
          "_gatheredAmount": "is the amount of token that is gathered."
        }
      },
      "gather(uint256[],uint8[],bytes)": {
        "details": "It gathers withdrawn tokens of the user from user agents."
      },
      "getMessageHashForSafe(bytes)": {
        "details": "Returns hash of a message that can be signed by owners.",
        "params": {
          "message": "Message that should be hashed"
        },
        "returns": {
          "_0": "Message hash."
        }
      },
      "getRoleAdmin(bytes32)": {
        "details": "Returns the admin role that controls `role`. See {grantRole} and {revokeRole}. To change a role's admin, use {_setRoleAdmin}."
      },
      "getRoleMember(bytes32,uint256)": {
        "details": "Returns one of the accounts that have `role`. `index` must be a value between 0 and {getRoleMemberCount}, non-inclusive. Role bearers are not sorted in any particular way, and their ordering may change at any point. WARNING: When using {getRoleMember} and {getRoleMemberCount}, make sure you perform all queries on the same block. See the following https://forum.openzeppelin.com/t/iterating-over-elements-on-enumerableset-in-openzeppelin-contracts/2296[forum post] for more information."
      },
      "getRoleMemberCount(bytes32)": {
        "details": "Returns the number of accounts that have `role`. Can be used together with {getRoleMember} to enumerate all bearers of a role."
      },
      "grantRole(bytes32,address)": {
        "details": "Grants `role` to `account`. If `account` had not been already granted `role`, emits a {RoleGranted} event. Requirements: - the caller must have ``role``'s admin role."
      },
      "hasRole(bytes32,address)": {
        "details": "Returns `true` if `account` has been granted `role`."
      },
      "initDeposit(uint256,uint256,bytes)": {
        "details": "It calls initDepositByAdmin of STIMinter.",
        "params": {
          "_USDT6Amt": "USDT with 6 decimals to be deposited",
          "_pool": "total pool in USD"
        }
      },
      "mint(uint256,bytes)": {
        "details": "It calls mintByAdmin of STIMinter."
      },
      "owner()": {
        "details": "Returns the address of the current owner."
      },
      "paused()": {
        "details": "Returns true if the contract is paused, and false otherwise."
      },
      "renounceOwnership()": {
        "details": "Leaves the contract without owner. It will not be possible to call `onlyOwner` functions anymore. Can only be called by the current owner. NOTE: Renouncing ownership will leave the contract without an owner, thereby removing any functionality that is only available to the owner."
      },
      "renounceRole(bytes32,address)": {
        "details": "Revokes `role` from the calling account. Roles are often managed via {grantRole} and {revokeRole}: this function's purpose is to provide a mechanism for accounts to lose their privileges if they are compromised (such as when a trusted device is misplaced). If the calling account had been revoked `role`, emits a {RoleRevoked} event. Requirements: - the caller must be `account`."
      },
      "revokeRole(bytes32,address)": {
        "details": "Revokes `role` from `account`. If `account` had been granted `role`, emits a {RoleRevoked} event. Requirements: - the caller must have ``role``'s admin role."
      },
      "setSubImpl(address)": {
        "details": "Delegate to sub contract"
      },
      "supportsInterface(bytes4)": {
        "details": "See {IERC165-supportsInterface}."
      },
      "takeOut(uint256,bytes)": {
        "details": "It takes out tokens from this agent.",
        "params": {
          "_gatheredAmount": "is the amount of token that is gathered."
        }
      },
      "transfer(uint256[],uint256[],uint8[],bytes)": {
        "details": "It transfers tokens to user agents"
      },
      "withdraw(uint256[],uint256,uint256,bytes)": {
        "details": "It calls withdrawPercByAdmin of STIVaults."
      }
    },
    "version": 1
  },
  "userdoc": {
    "kind": "user",
    "methods": {
      "exitWithdrawal(uint256,bytes)": {
        "notice": "_gatheredAmount doesn't include the balance which is withdrawan in this agent."
      },
      "isTrustedForwarder(address)": {
        "notice": "return if the forwarder is trusted to forward relayed transactions to us. the forwarder is required to verify the sender's signature, and verify the call is not a replay."
      },
      "onRefunded(uint256,address,uint256,uint256,address)": {
        "notice": "Never revert in this function. If not, cbridgeAdapter.executeMessageWithTransferRefund will be failed."
      },
      "takeOut(uint256,bytes)": {
        "notice": "_gatheredAmount doesn't include the balance which is withdrawan in this agent."
      }
    },
    "version": 1
  },
  "storageLayout": {
    "storage": [
      {
        "astId": 66453,
        "contract": "contracts/xchain/agent/STIUserAgentTest.sol:STIUserAgentTest",
        "label": "trustedForwarder",
        "offset": 0,
        "slot": "0",
        "type": "t_address"
      },
      {
        "astId": 713,
        "contract": "contracts/xchain/agent/STIUserAgentTest.sol:STIUserAgentTest",
        "label": "_initialized",
        "offset": 20,
        "slot": "0",
        "type": "t_uint8"
      },
      {
        "astId": 716,
        "contract": "contracts/xchain/agent/STIUserAgentTest.sol:STIUserAgentTest",
        "label": "_initializing",
        "offset": 21,
        "slot": "0",
        "type": "t_bool"
      },
      {
        "astId": 66968,
        "contract": "contracts/xchain/agent/STIUserAgentTest.sol:STIUserAgentTest",
        "label": "separator",
        "offset": 0,
        "slot": "1",
        "type": "t_bytes32"
      },
      {
        "astId": 67385,
        "contract": "contracts/xchain/agent/STIUserAgentTest.sol:STIUserAgentTest",
        "label": "__gap",
        "offset": 0,
        "slot": "2",
        "type": "t_array(t_uint256)49_storage"
      },
      {
        "astId": 3292,
        "contract": "contracts/xchain/agent/STIUserAgentTest.sol:STIUserAgentTest",
        "label": "__gap",
        "offset": 0,
        "slot": "51",
        "type": "t_array(t_uint256)50_storage"
      },
      {
        "astId": 3946,
        "contract": "contracts/xchain/agent/STIUserAgentTest.sol:STIUserAgentTest",
        "label": "__gap",
        "offset": 0,
        "slot": "101",
        "type": "t_array(t_uint256)50_storage"
      },
      {
        "astId": 184,
        "contract": "contracts/xchain/agent/STIUserAgentTest.sol:STIUserAgentTest",
        "label": "_roles",
        "offset": 0,
        "slot": "151",
        "type": "t_mapping(t_bytes32,t_struct(RoleData)179_storage)"
      },
      {
        "astId": 483,
        "contract": "contracts/xchain/agent/STIUserAgentTest.sol:STIUserAgentTest",
        "label": "__gap",
        "offset": 0,
        "slot": "152",
        "type": "t_array(t_uint256)49_storage"
      },
      {
        "astId": 33,
        "contract": "contracts/xchain/agent/STIUserAgentTest.sol:STIUserAgentTest",
        "label": "_roleMembers",
        "offset": 0,
        "slot": "201",
        "type": "t_mapping(t_bytes32,t_struct(AddressSet)4359_storage)"
      },
      {
        "astId": 143,
        "contract": "contracts/xchain/agent/STIUserAgentTest.sol:STIUserAgentTest",
        "label": "__gap",
        "offset": 0,
        "slot": "202",
        "type": "t_array(t_uint256)49_storage"
      },
      {
        "astId": 869,
        "contract": "contracts/xchain/agent/STIUserAgentTest.sol:STIUserAgentTest",
        "label": "_paused",
        "offset": 0,
        "slot": "251",
        "type": "t_bool"
      },
      {
        "astId": 958,
        "contract": "contracts/xchain/agent/STIUserAgentTest.sol:STIUserAgentTest",
        "label": "__gap",
        "offset": 0,
        "slot": "252",
        "type": "t_array(t_uint256)49_storage"
      },
      {
        "astId": 593,
        "contract": "contracts/xchain/agent/STIUserAgentTest.sol:STIUserAgentTest",
        "label": "_owner",
        "offset": 0,
        "slot": "301",
        "type": "t_address"
      },
      {
        "astId": 705,
        "contract": "contracts/xchain/agent/STIUserAgentTest.sol:STIUserAgentTest",
        "label": "__gap",
        "offset": 0,
        "slot": "302",
        "type": "t_array(t_uint256)49_storage"
      },
      {
        "astId": 59830,
        "contract": "contracts/xchain/agent/STIUserAgentTest.sol:STIUserAgentTest",
        "label": "admin",
        "offset": 0,
        "slot": "351",
        "type": "t_address"
      },
      {
        "astId": 59834,
        "contract": "contracts/xchain/agent/STIUserAgentTest.sol:STIUserAgentTest",
        "label": "nonces",
        "offset": 0,
        "slot": "352",
        "type": "t_mapping(t_address,t_uint256)"
      },
      {
        "astId": 59837,
        "contract": "contracts/xchain/agent/STIUserAgentTest.sol:STIUserAgentTest",
        "label": "swap",
        "offset": 0,
        "slot": "353",
        "type": "t_contract(ISwap)55898"
      },
      {
        "astId": 59840,
        "contract": "contracts/xchain/agent/STIUserAgentTest.sol:STIUserAgentTest",
        "label": "USDC",
        "offset": 0,
        "slot": "354",
        "type": "t_contract(IERC20Upgradeable)1707"
      },
      {
        "astId": 59843,
        "contract": "contracts/xchain/agent/STIUserAgentTest.sol:STIUserAgentTest",
        "label": "USDT",
        "offset": 0,
        "slot": "355",
        "type": "t_contract(IERC20Upgradeable)1707"
      },
      {
        "astId": 59847,
        "contract": "contracts/xchain/agent/STIUserAgentTest.sol:STIUserAgentTest",
        "label": "usdcBalances",
        "offset": 0,
        "slot": "356",
        "type": "t_mapping(t_address,t_uint256)"
      },
      {
        "astId": 59851,
        "contract": "contracts/xchain/agent/STIUserAgentTest.sol:STIUserAgentTest",
        "label": "usdtBalances",
        "offset": 0,
        "slot": "357",
        "type": "t_mapping(t_address,t_uint256)"
      },
      {
        "astId": 59854,
        "contract": "contracts/xchain/agent/STIUserAgentTest.sol:STIUserAgentTest",
        "label": "multichainAdapter",
        "offset": 0,
        "slot": "358",
        "type": "t_contract(IXChainAdapter)56205"
      },
      {
        "astId": 59857,
        "contract": "contracts/xchain/agent/STIUserAgentTest.sol:STIUserAgentTest",
        "label": "cbridgeAdapter",
        "offset": 0,
        "slot": "359",
        "type": "t_contract(IXChainAdapter)56205"
      },
      {
        "astId": 59861,
        "contract": "contracts/xchain/agent/STIUserAgentTest.sol:STIUserAgentTest",
        "label": "cbridgeSenders",
        "offset": 0,
        "slot": "360",
        "type": "t_mapping(t_uint256,t_address)"
      },
      {
        "astId": 59865,
        "contract": "contracts/xchain/agent/STIUserAgentTest.sol:STIUserAgentTest",
        "label": "userAgents",
        "offset": 0,
        "slot": "361",
        "type": "t_mapping(t_uint256,t_address)"
      },
      {
        "astId": 59870,
        "contract": "contracts/xchain/agent/STIUserAgentTest.sol:STIUserAgentTest",
        "label": "callAdapterTypes",
        "offset": 0,
        "slot": "362",
        "type": "t_mapping(t_uint256,t_enum(AdapterType)59823)"
      },
      {
        "astId": 60396,
        "contract": "contracts/xchain/agent/STIUserAgentTest.sol:STIUserAgentTest",
        "label": "__gap",
        "offset": 0,
        "slot": "363",
        "type": "t_array(t_uint256)39_storage"
      },
      {
        "astId": 61390,
        "contract": "contracts/xchain/agent/STIUserAgentTest.sol:STIUserAgentTest",
        "label": "chainIdOnLP",
        "offset": 0,
        "slot": "402",
        "type": "t_uint256"
      },
      {
        "astId": 61392,
        "contract": "contracts/xchain/agent/STIUserAgentTest.sol:STIUserAgentTest",
        "label": "isLPChain",
        "offset": 0,
        "slot": "403",
        "type": "t_bool"
      },
      {
        "astId": 61395,
        "contract": "contracts/xchain/agent/STIUserAgentTest.sol:STIUserAgentTest",
        "label": "stiMinter",
        "offset": 1,
        "slot": "403",
        "type": "t_contract(ISTIMinter)44036"
      },
      {
        "astId": 61400,
        "contract": "contracts/xchain/agent/STIUserAgentTest.sol:STIUserAgentTest",
        "label": "stiVaults",
        "offset": 0,
        "slot": "404",
        "type": "t_mapping(t_uint256,t_contract(ISTIVault)44093)"
      },
      {
        "astId": 61402,
        "contract": "contracts/xchain/agent/STIUserAgentTest.sol:STIUserAgentTest",
        "label": "subImpl",
        "offset": 0,
        "slot": "405",
        "type": "t_address"
      }
    ],
    "types": {
      "t_address": {
        "encoding": "inplace",
        "label": "address",
        "numberOfBytes": "20"
      },
      "t_array(t_bytes32)dyn_storage": {
        "base": "t_bytes32",
        "encoding": "dynamic_array",
        "label": "bytes32[]",
        "numberOfBytes": "32"
      },
      "t_array(t_uint256)39_storage": {
        "base": "t_uint256",
        "encoding": "inplace",
        "label": "uint256[39]",
        "numberOfBytes": "1248"
      },
      "t_array(t_uint256)49_storage": {
        "base": "t_uint256",
        "encoding": "inplace",
        "label": "uint256[49]",
        "numberOfBytes": "1568"
      },
      "t_array(t_uint256)50_storage": {
        "base": "t_uint256",
        "encoding": "inplace",
        "label": "uint256[50]",
        "numberOfBytes": "1600"
      },
      "t_bool": {
        "encoding": "inplace",
        "label": "bool",
        "numberOfBytes": "1"
      },
      "t_bytes32": {
        "encoding": "inplace",
        "label": "bytes32",
        "numberOfBytes": "32"
      },
      "t_contract(IERC20Upgradeable)1707": {
        "encoding": "inplace",
        "label": "contract IERC20Upgradeable",
        "numberOfBytes": "20"
      },
      "t_contract(ISTIMinter)44036": {
        "encoding": "inplace",
        "label": "contract ISTIMinter",
        "numberOfBytes": "20"
      },
      "t_contract(ISTIVault)44093": {
        "encoding": "inplace",
        "label": "contract ISTIVault",
        "numberOfBytes": "20"
      },
      "t_contract(ISwap)55898": {
        "encoding": "inplace",
        "label": "contract ISwap",
        "numberOfBytes": "20"
      },
      "t_contract(IXChainAdapter)56205": {
        "encoding": "inplace",
        "label": "contract IXChainAdapter",
        "numberOfBytes": "20"
      },
      "t_enum(AdapterType)59823": {
        "encoding": "inplace",
        "label": "enum BasicUserAgentBase.AdapterType",
        "numberOfBytes": "1"
      },
      "t_mapping(t_address,t_bool)": {
        "encoding": "mapping",
        "key": "t_address",
        "label": "mapping(address => bool)",
        "numberOfBytes": "32",
        "value": "t_bool"
      },
      "t_mapping(t_address,t_uint256)": {
        "encoding": "mapping",
        "key": "t_address",
        "label": "mapping(address => uint256)",
        "numberOfBytes": "32",
        "value": "t_uint256"
      },
      "t_mapping(t_bytes32,t_struct(AddressSet)4359_storage)": {
        "encoding": "mapping",
        "key": "t_bytes32",
        "label": "mapping(bytes32 => struct EnumerableSetUpgradeable.AddressSet)",
        "numberOfBytes": "32",
        "value": "t_struct(AddressSet)4359_storage"
      },
      "t_mapping(t_bytes32,t_struct(RoleData)179_storage)": {
        "encoding": "mapping",
        "key": "t_bytes32",
        "label": "mapping(bytes32 => struct AccessControlUpgradeable.RoleData)",
        "numberOfBytes": "32",
        "value": "t_struct(RoleData)179_storage"
      },
      "t_mapping(t_bytes32,t_uint256)": {
        "encoding": "mapping",
        "key": "t_bytes32",
        "label": "mapping(bytes32 => uint256)",
        "numberOfBytes": "32",
        "value": "t_uint256"
      },
      "t_mapping(t_uint256,t_address)": {
        "encoding": "mapping",
        "key": "t_uint256",
        "label": "mapping(uint256 => address)",
        "numberOfBytes": "32",
        "value": "t_address"
      },
      "t_mapping(t_uint256,t_contract(ISTIVault)44093)": {
        "encoding": "mapping",
        "key": "t_uint256",
        "label": "mapping(uint256 => contract ISTIVault)",
        "numberOfBytes": "32",
        "value": "t_contract(ISTIVault)44093"
      },
      "t_mapping(t_uint256,t_enum(AdapterType)59823)": {
        "encoding": "mapping",
        "key": "t_uint256",
        "label": "mapping(uint256 => enum BasicUserAgentBase.AdapterType)",
        "numberOfBytes": "32",
        "value": "t_enum(AdapterType)59823"
      },
      "t_struct(AddressSet)4359_storage": {
        "encoding": "inplace",
        "label": "struct EnumerableSetUpgradeable.AddressSet",
        "members": [
          {
            "astId": 4358,
            "contract": "contracts/xchain/agent/STIUserAgentTest.sol:STIUserAgentTest",
            "label": "_inner",
            "offset": 0,
            "slot": "0",
            "type": "t_struct(Set)4058_storage"
          }
        ],
        "numberOfBytes": "64"
      },
      "t_struct(RoleData)179_storage": {
        "encoding": "inplace",
        "label": "struct AccessControlUpgradeable.RoleData",
        "members": [
          {
            "astId": 176,
            "contract": "contracts/xchain/agent/STIUserAgentTest.sol:STIUserAgentTest",
            "label": "members",
            "offset": 0,
            "slot": "0",
            "type": "t_mapping(t_address,t_bool)"
          },
          {
            "astId": 178,
            "contract": "contracts/xchain/agent/STIUserAgentTest.sol:STIUserAgentTest",
            "label": "adminRole",
            "offset": 0,
            "slot": "1",
            "type": "t_bytes32"
          }
        ],
        "numberOfBytes": "64"
      },
      "t_struct(Set)4058_storage": {
        "encoding": "inplace",
        "label": "struct EnumerableSetUpgradeable.Set",
        "members": [
          {
            "astId": 4053,
            "contract": "contracts/xchain/agent/STIUserAgentTest.sol:STIUserAgentTest",
            "label": "_values",
            "offset": 0,
            "slot": "0",
            "type": "t_array(t_bytes32)dyn_storage"
          },
          {
            "astId": 4057,
            "contract": "contracts/xchain/agent/STIUserAgentTest.sol:STIUserAgentTest",
            "label": "_indexes",
            "offset": 0,
            "slot": "1",
            "type": "t_mapping(t_bytes32,t_uint256)"
          }
        ],
        "numberOfBytes": "64"
      },
      "t_uint256": {
        "encoding": "inplace",
        "label": "uint256",
        "numberOfBytes": "32"
      },
      "t_uint8": {
        "encoding": "inplace",
        "label": "uint8",
        "numberOfBytes": "1"
      }
    }
  }
}