{
  "address": "0xd5810509EA8Fe1256dA45aE8c571c5BD1476362e",
  "abi": [
    {
      "anonymous": false,
      "inputs": [
        {
          "indexed": false,
          "internalType": "uint8",
          "name": "version",
          "type": "uint8"
        }
      ],
      "name": "Initialized",
      "type": "event"
    },
    {
      "anonymous": false,
      "inputs": [
        {
          "indexed": true,
          "internalType": "address",
          "name": "previousOwner",
          "type": "address"
        },
        {
          "indexed": true,
          "internalType": "address",
          "name": "newOwner",
          "type": "address"
        }
      ],
      "name": "OwnershipTransferred",
      "type": "event"
    },
    {
      "anonymous": false,
      "inputs": [
        {
          "indexed": false,
          "internalType": "address",
          "name": "account",
          "type": "address"
        }
      ],
      "name": "Paused",
      "type": "event"
    },
    {
      "anonymous": false,
      "inputs": [
        {
          "indexed": true,
          "internalType": "bytes32",
          "name": "role",
          "type": "bytes32"
        },
        {
          "indexed": true,
          "internalType": "bytes32",
          "name": "previousAdminRole",
          "type": "bytes32"
        },
        {
          "indexed": true,
          "internalType": "bytes32",
          "name": "newAdminRole",
          "type": "bytes32"
        }
      ],
      "name": "RoleAdminChanged",
      "type": "event"
    },
    {
      "anonymous": false,
      "inputs": [
        {
          "indexed": true,
          "internalType": "bytes32",
          "name": "role",
          "type": "bytes32"
        },
        {
          "indexed": true,
          "internalType": "address",
          "name": "account",
          "type": "address"
        },
        {
          "indexed": true,
          "internalType": "address",
          "name": "sender",
          "type": "address"
        }
      ],
      "name": "RoleGranted",
      "type": "event"
    },
    {
      "anonymous": false,
      "inputs": [
        {
          "indexed": true,
          "internalType": "bytes32",
          "name": "role",
          "type": "bytes32"
        },
        {
          "indexed": true,
          "internalType": "address",
          "name": "account",
          "type": "address"
        },
        {
          "indexed": true,
          "internalType": "address",
          "name": "sender",
          "type": "address"
        }
      ],
      "name": "RoleRevoked",
      "type": "event"
    },
    {
      "anonymous": false,
      "inputs": [
        {
          "indexed": false,
          "internalType": "uint256",
          "name": "fromChainId",
          "type": "uint256"
        },
        {
          "indexed": false,
          "internalType": "address",
          "name": "token",
          "type": "address"
        },
        {
          "indexed": true,
          "internalType": "uint256",
          "name": "amount",
          "type": "uint256"
        },
        {
          "indexed": true,
          "internalType": "uint256",
          "name": "toChainId",
          "type": "uint256"
        },
        {
          "indexed": true,
          "internalType": "address",
          "name": "account",
          "type": "address"
        }
      ],
      "name": "Transfer",
      "type": "event"
    },
    {
      "anonymous": false,
      "inputs": [
        {
          "indexed": false,
          "internalType": "address",
          "name": "account",
          "type": "address"
        }
      ],
      "name": "Unpaused",
      "type": "event"
    },
    {
      "inputs": [],
      "name": "ADAPTER_ROLE",
      "outputs": [
        {
          "internalType": "bytes32",
          "name": "",
          "type": "bytes32"
        }
      ],
      "stateMutability": "view",
      "type": "function"
    },
    {
      "inputs": [],
      "name": "DEFAULT_ADMIN_ROLE",
      "outputs": [
        {
          "internalType": "bytes32",
          "name": "",
          "type": "bytes32"
        }
      ],
      "stateMutability": "view",
      "type": "function"
    },
    {
      "inputs": [],
      "name": "USDC",
      "outputs": [
        {
          "internalType": "contract IERC20Upgradeable",
          "name": "",
          "type": "address"
        }
      ],
      "stateMutability": "view",
      "type": "function"
    },
    {
      "inputs": [],
      "name": "USDT",
      "outputs": [
        {
          "internalType": "contract IERC20Upgradeable",
          "name": "",
          "type": "address"
        }
      ],
      "stateMutability": "view",
      "type": "function"
    },
    {
      "inputs": [],
      "name": "admin",
      "outputs": [
        {
          "internalType": "address",
          "name": "",
          "type": "address"
        }
      ],
      "stateMutability": "view",
      "type": "function"
    },
    {
      "inputs": [
        {
          "internalType": "uint256",
          "name": "_pool",
          "type": "uint256"
        },
        {
          "internalType": "uint256",
          "name": "_share",
          "type": "uint256"
        },
        {
          "internalType": "bytes",
          "name": "_signature",
          "type": "bytes"
        }
      ],
      "name": "burn",
      "outputs": [
        {
          "internalType": "uint256",
          "name": "_feeAmt",
          "type": "uint256"
        }
      ],
      "stateMutability": "payable",
      "type": "function"
    },
    {
      "inputs": [
        {
          "internalType": "address",
          "name": "_account",
          "type": "address"
        },
        {
          "internalType": "uint256",
          "name": "_pool",
          "type": "uint256"
        },
        {
          "internalType": "uint256",
          "name": "_share",
          "type": "uint256"
        }
      ],
      "name": "burnByAdmin",
      "outputs": [],
      "stateMutability": "nonpayable",
      "type": "function"
    },
    {
      "inputs": [
        {
          "internalType": "uint256",
          "name": "",
          "type": "uint256"
        }
      ],
      "name": "callAdapterTypes",
      "outputs": [
        {
          "internalType": "enum BasicUserAgentBase.AdapterType",
          "name": "",
          "type": "uint8"
        }
      ],
      "stateMutability": "view",
      "type": "function"
    },
    {
      "inputs": [],
      "name": "cbridgeAdapter",
      "outputs": [
        {
          "internalType": "contract IXChainAdapter",
          "name": "",
          "type": "address"
        }
      ],
      "stateMutability": "view",
      "type": "function"
    },
    {
      "inputs": [
        {
          "internalType": "uint256",
          "name": "",
          "type": "uint256"
        }
      ],
      "name": "cbridgeSenders",
      "outputs": [
        {
          "internalType": "address",
          "name": "",
          "type": "address"
        }
      ],
      "stateMutability": "view",
      "type": "function"
    },
    {
      "inputs": [],
      "name": "chainIdOnLP",
      "outputs": [
        {
          "internalType": "uint256",
          "name": "",
          "type": "uint256"
        }
      ],
      "stateMutability": "view",
      "type": "function"
    },
    {
      "inputs": [
        {
          "internalType": "uint256[]",
          "name": "_chainIds",
          "type": "uint256[]"
        },
        {
          "internalType": "bytes",
          "name": "_signature",
          "type": "bytes"
        }
      ],
      "name": "claim",
      "outputs": [
        {
          "internalType": "uint256",
          "name": "_feeAmt",
          "type": "uint256"
        }
      ],
      "stateMutability": "payable",
      "type": "function"
    },
    {
      "inputs": [
        {
          "internalType": "address",
          "name": "_account",
          "type": "address"
        }
      ],
      "name": "claimByAgent",
      "outputs": [],
      "stateMutability": "nonpayable",
      "type": "function"
    },
    {
      "inputs": [
        {
          "internalType": "uint256[]",
          "name": "_toChainIds",
          "type": "uint256[]"
        },
        {
          "internalType": "address[]",
          "name": "_tokens",
          "type": "address[]"
        },
        {
          "internalType": "uint256[]",
          "name": "_USDT6Amts",
          "type": "uint256[]"
        },
        {
          "internalType": "uint256",
          "name": "_minterNonce",
          "type": "uint256"
        },
        {
          "internalType": "bytes",
          "name": "_signature",
          "type": "bytes"
        }
      ],
      "name": "deposit",
      "outputs": [
        {
          "internalType": "uint256",
          "name": "_feeAmt",
          "type": "uint256"
        }
      ],
      "stateMutability": "payable",
      "type": "function"
    },
    {
      "inputs": [
        {
          "internalType": "address",
          "name": "_account",
          "type": "address"
        },
        {
          "internalType": "address[]",
          "name": "_tokens",
          "type": "address[]"
        },
        {
          "internalType": "uint256[]",
          "name": "_USDT6Amts",
          "type": "uint256[]"
        },
        {
          "internalType": "uint256",
          "name": "_minterNonce",
          "type": "uint256"
        }
      ],
      "name": "depositByAgent",
      "outputs": [],
      "stateMutability": "nonpayable",
      "type": "function"
    },
    {
      "inputs": [
        {
          "internalType": "uint256",
          "name": "_gatheredAmount",
          "type": "uint256"
        },
        {
          "internalType": "bytes",
          "name": "_signature",
          "type": "bytes"
        }
      ],
      "name": "exitWithdrawal",
      "outputs": [
        {
          "internalType": "uint256",
          "name": "_feeAmt",
          "type": "uint256"
        }
      ],
      "stateMutability": "payable",
      "type": "function"
    },
    {
      "inputs": [
        {
          "internalType": "address",
          "name": "_account",
          "type": "address"
        }
      ],
      "name": "exitWithdrawalByAdmin",
      "outputs": [],
      "stateMutability": "nonpayable",
      "type": "function"
    },
    {
      "inputs": [
        {
          "internalType": "uint256[]",
          "name": "_fromChainIds",
          "type": "uint256[]"
        },
        {
          "internalType": "enum BasicUserAgentBase.AdapterType[]",
          "name": "_adapterTypes",
          "type": "uint8[]"
        },
        {
          "internalType": "bytes",
          "name": "_signature",
          "type": "bytes"
        }
      ],
      "name": "gather",
      "outputs": [
        {
          "internalType": "uint256",
          "name": "_feeAmt",
          "type": "uint256"
        }
      ],
      "stateMutability": "payable",
      "type": "function"
    },
    {
      "inputs": [
        {
          "internalType": "address",
          "name": "_account",
          "type": "address"
        },
        {
          "internalType": "uint256",
          "name": "_toChainId",
          "type": "uint256"
        },
        {
          "internalType": "enum BasicUserAgentBase.AdapterType",
          "name": "_adapterType",
          "type": "uint8"
        }
      ],
      "name": "gatherByAdmin",
      "outputs": [],
      "stateMutability": "nonpayable",
      "type": "function"
    },
    {
      "inputs": [
        {
          "internalType": "bytes",
          "name": "message",
          "type": "bytes"
        }
      ],
      "name": "getMessageHashForSafe",
      "outputs": [
        {
          "internalType": "bytes32",
          "name": "",
          "type": "bytes32"
        }
      ],
      "stateMutability": "view",
      "type": "function"
    },
    {
      "inputs": [
        {
          "internalType": "bytes32",
          "name": "role",
          "type": "bytes32"
        }
      ],
      "name": "getRoleAdmin",
      "outputs": [
        {
          "internalType": "bytes32",
          "name": "",
          "type": "bytes32"
        }
      ],
      "stateMutability": "view",
      "type": "function"
    },
    {
      "inputs": [
        {
          "internalType": "bytes32",
          "name": "role",
          "type": "bytes32"
        },
        {
          "internalType": "uint256",
          "name": "index",
          "type": "uint256"
        }
      ],
      "name": "getRoleMember",
      "outputs": [
        {
          "internalType": "address",
          "name": "",
          "type": "address"
        }
      ],
      "stateMutability": "view",
      "type": "function"
    },
    {
      "inputs": [
        {
          "internalType": "bytes32",
          "name": "role",
          "type": "bytes32"
        }
      ],
      "name": "getRoleMemberCount",
      "outputs": [
        {
          "internalType": "uint256",
          "name": "",
          "type": "uint256"
        }
      ],
      "stateMutability": "view",
      "type": "function"
    },
    {
      "inputs": [
        {
          "internalType": "bytes32",
          "name": "role",
          "type": "bytes32"
        },
        {
          "internalType": "address",
          "name": "account",
          "type": "address"
        }
      ],
      "name": "grantRole",
      "outputs": [],
      "stateMutability": "nonpayable",
      "type": "function"
    },
    {
      "inputs": [
        {
          "internalType": "bytes32",
          "name": "role",
          "type": "bytes32"
        },
        {
          "internalType": "address",
          "name": "account",
          "type": "address"
        }
      ],
      "name": "hasRole",
      "outputs": [
        {
          "internalType": "bool",
          "name": "",
          "type": "bool"
        }
      ],
      "stateMutability": "view",
      "type": "function"
    },
    {
      "inputs": [],
      "name": "isLPChain",
      "outputs": [
        {
          "internalType": "bool",
          "name": "",
          "type": "bool"
        }
      ],
      "stateMutability": "view",
      "type": "function"
    },
    {
      "inputs": [
        {
          "internalType": "address",
          "name": "forwarder",
          "type": "address"
        }
      ],
      "name": "isTrustedForwarder",
      "outputs": [
        {
          "internalType": "bool",
          "name": "",
          "type": "bool"
        }
      ],
      "stateMutability": "view",
      "type": "function"
    },
    {
      "inputs": [
        {
          "internalType": "address",
          "name": "_account",
          "type": "address"
        },
        {
          "internalType": "bytes",
          "name": "_data",
          "type": "bytes"
        },
        {
          "internalType": "bytes",
          "name": "_signature",
          "type": "bytes"
        }
      ],
      "name": "isValidSignature",
      "outputs": [
        {
          "internalType": "bool",
          "name": "",
          "type": "bool"
        }
      ],
      "stateMutability": "view",
      "type": "function"
    },
    {
      "inputs": [
        {
          "internalType": "uint256",
          "name": "_USDT6Amt",
          "type": "uint256"
        },
        {
          "internalType": "bytes",
          "name": "_signature",
          "type": "bytes"
        }
      ],
      "name": "mint",
      "outputs": [
        {
          "internalType": "uint256",
          "name": "_feeAmt",
          "type": "uint256"
        }
      ],
      "stateMutability": "payable",
      "type": "function"
    },
    {
      "inputs": [
        {
          "internalType": "address",
          "name": "_account",
          "type": "address"
        },
        {
          "internalType": "uint256",
          "name": "_USDT6Amt",
          "type": "uint256"
        }
      ],
      "name": "mintByAdmin",
      "outputs": [],
      "stateMutability": "nonpayable",
      "type": "function"
    },
    {
      "inputs": [],
      "name": "multichainAdapter",
      "outputs": [
        {
          "internalType": "contract IXChainAdapter",
          "name": "",
          "type": "address"
        }
      ],
      "stateMutability": "view",
      "type": "function"
    },
    {
      "inputs": [
        {
          "internalType": "address",
          "name": "",
          "type": "address"
        }
      ],
      "name": "nonces",
      "outputs": [
        {
          "internalType": "uint256",
          "name": "",
          "type": "uint256"
        }
      ],
      "stateMutability": "view",
      "type": "function"
    },
    {
      "inputs": [],
      "name": "owner",
      "outputs": [
        {
          "internalType": "address",
          "name": "",
          "type": "address"
        }
      ],
      "stateMutability": "view",
      "type": "function"
    },
    {
      "inputs": [],
      "name": "paused",
      "outputs": [
        {
          "internalType": "bool",
          "name": "",
          "type": "bool"
        }
      ],
      "stateMutability": "view",
      "type": "function"
    },
    {
      "inputs": [],
      "name": "renounceOwnership",
      "outputs": [],
      "stateMutability": "nonpayable",
      "type": "function"
    },
    {
      "inputs": [
        {
          "internalType": "bytes32",
          "name": "role",
          "type": "bytes32"
        },
        {
          "internalType": "address",
          "name": "account",
          "type": "address"
        }
      ],
      "name": "renounceRole",
      "outputs": [],
      "stateMutability": "nonpayable",
      "type": "function"
    },
    {
      "inputs": [
        {
          "internalType": "bytes32",
          "name": "role",
          "type": "bytes32"
        },
        {
          "internalType": "address",
          "name": "account",
          "type": "address"
        }
      ],
      "name": "revokeRole",
      "outputs": [],
      "stateMutability": "nonpayable",
      "type": "function"
    },
    {
      "inputs": [],
      "name": "stiMinter",
      "outputs": [
        {
          "internalType": "contract ISTIMinter",
          "name": "",
          "type": "address"
        }
      ],
      "stateMutability": "view",
      "type": "function"
    },
    {
      "inputs": [
        {
          "internalType": "uint256",
          "name": "",
          "type": "uint256"
        }
      ],
      "name": "stiVaults",
      "outputs": [
        {
          "internalType": "contract ISTIVault",
          "name": "",
          "type": "address"
        }
      ],
      "stateMutability": "view",
      "type": "function"
    },
    {
      "inputs": [],
      "name": "subImpl",
      "outputs": [
        {
          "internalType": "address",
          "name": "",
          "type": "address"
        }
      ],
      "stateMutability": "view",
      "type": "function"
    },
    {
      "inputs": [
        {
          "internalType": "bytes4",
          "name": "interfaceId",
          "type": "bytes4"
        }
      ],
      "name": "supportsInterface",
      "outputs": [
        {
          "internalType": "bool",
          "name": "",
          "type": "bool"
        }
      ],
      "stateMutability": "view",
      "type": "function"
    },
    {
      "inputs": [
        {
          "internalType": "uint256",
          "name": "_gatheredAmount",
          "type": "uint256"
        },
        {
          "internalType": "bytes",
          "name": "_signature",
          "type": "bytes"
        }
      ],
      "name": "takeOut",
      "outputs": [],
      "stateMutability": "nonpayable",
      "type": "function"
    },
    {
      "inputs": [
        {
          "internalType": "address",
          "name": "newOwner",
          "type": "address"
        }
      ],
      "name": "transferOwnership",
      "outputs": [],
      "stateMutability": "nonpayable",
      "type": "function"
    },
    {
      "inputs": [],
      "name": "trustedForwarder",
      "outputs": [
        {
          "internalType": "address",
          "name": "",
          "type": "address"
        }
      ],
      "stateMutability": "view",
      "type": "function"
    },
    {
      "inputs": [
        {
          "internalType": "address",
          "name": "",
          "type": "address"
        }
      ],
      "name": "usdcBalances",
      "outputs": [
        {
          "internalType": "uint256",
          "name": "",
          "type": "uint256"
        }
      ],
      "stateMutability": "view",
      "type": "function"
    },
    {
      "inputs": [
        {
          "internalType": "address",
          "name": "",
          "type": "address"
        }
      ],
      "name": "usdtBalances",
      "outputs": [
        {
          "internalType": "uint256",
          "name": "",
          "type": "uint256"
        }
      ],
      "stateMutability": "view",
      "type": "function"
    },
    {
      "inputs": [
        {
          "internalType": "uint256",
          "name": "",
          "type": "uint256"
        }
      ],
      "name": "userAgents",
      "outputs": [
        {
          "internalType": "address",
          "name": "",
          "type": "address"
        }
      ],
      "stateMutability": "view",
      "type": "function"
    },
    {
      "inputs": [],
      "name": "versionRecipient",
      "outputs": [
        {
          "internalType": "string",
          "name": "",
          "type": "string"
        }
      ],
      "stateMutability": "pure",
      "type": "function"
    },
    {
      "inputs": [
        {
          "internalType": "uint256[]",
          "name": "_chainIds",
          "type": "uint256[]"
        },
        {
          "internalType": "uint256",
          "name": "_sharePerc",
          "type": "uint256"
        },
        {
          "internalType": "uint256",
          "name": "_minterNonce",
          "type": "uint256"
        },
        {
          "internalType": "bytes",
          "name": "_signature",
          "type": "bytes"
        }
      ],
      "name": "withdraw",
      "outputs": [
        {
          "internalType": "uint256",
          "name": "_feeAmt",
          "type": "uint256"
        }
      ],
      "stateMutability": "payable",
      "type": "function"
    },
    {
      "inputs": [
        {
          "internalType": "address",
          "name": "_account",
          "type": "address"
        },
        {
          "internalType": "uint256",
          "name": "_sharePerc",
          "type": "uint256"
        },
        {
          "internalType": "uint256",
          "name": "_minterNonce",
          "type": "uint256"
        }
      ],
      "name": "withdrawPercByAgent",
      "outputs": [],
      "stateMutability": "nonpayable",
      "type": "function"
    },
    {
      "stateMutability": "payable",
      "type": "receive"
    }
  ],
  "transactionHash": "0x3687b6d98864a447e38bb5284f0c7b5e4c83f115b524978db0fb9f319086e597",
  "args": [],
  "numDeployments": 1,
  "solcInputHash": "8b89f766db2130077100f5c5084b38d6",
  "bytecode": "0x608060405234801561001057600080fd5b50614cba806100206000396000f3fe6080604052600436106102cd5760003560e01c806380a5a37111610175578063c54e44eb116100dc578063e629f7b311610095578063f2fde38b1161006f578063f2fde38b1461091c578063f77de4861461093c578063f7bb364c1461095c578063f851a4401461097757600080fd5b8063e629f7b3146108a5578063e9e81a6a146108c5578063f2ea1618146108e557600080fd5b8063c54e44eb146107fe578063c7205bce1461081f578063ca15c8731461083f578063d48a3d3d1461085f578063d547741f14610872578063db7fd4081461089257600080fd5b80639010d07c1161012e5780639010d07c14610748578063918f1a5c1461076857806391d148541461077b578063a217fddf1461079b578063a99c68c5146107b0578063af3da2f4146107de57600080fd5b806380a5a371146106a95780638365d5ee146106bc57806384762739146106e257806386355d96146106f557806389a30271146107085780638da5cb5b1461072957600080fd5b806344f745f9116102345780635c975abb116101ed5780636ebf33ce116101c75780636ebf33ce1461060f578063715018a6146106465780637da0a8771461065b5780637ecebe001461067b57600080fd5b80635c975abb146105c45780636687977f146105dc5780636e5677ce146105ef57600080fd5b806344f745f9146104bf578063486ff0cd146104f6578063572b6c051461052657806357cdd7f914610555578063582489cb14610576578063582712b1146105a457600080fd5b8063248a9ca311610286578063248a9ca3146103cf578063264489ce146103ff57806328054fb7146104215780632f2ff15d1461044157806336568abe1461046157806339dacedb1461048157600080fd5b8063013dee70146102d957806301ffc9a71461031757806302a882e6146103475780630c3a18211461037757806319463093146103985780631a5787d8146103b857600080fd5b366102d457005b600080fd5b3480156102e557600080fd5b50610195546102fa906001600160a01b031681565b6040516001600160a01b0390911681526020015b60405180910390f35b34801561032357600080fd5b50610337610332366004613db8565b610998565b604051901515815260200161030e565b34801561035357600080fd5b50610369600080516020614c6583398151915281565b60405190815260200161030e565b34801561038357600080fd5b50610166546102fa906001600160a01b031681565b3480156103a457600080fd5b506103696103b3366004613e97565b6109c3565b3480156103c457600080fd5b506103696101925481565b3480156103db57600080fd5b506103696103ea366004613ecb565b60009081526097602052604090206001015490565b34801561040b57600080fd5b5061041f61041a366004613ef9565b610a0f565b005b34801561042d57600080fd5b5061041f61043c366004613f2a565b610bda565b34801561044d57600080fd5b5061041f61045c366004613f68565b610fa9565b34801561046d57600080fd5b5061041f61047c366004613f68565b610fd3565b34801561048d57600080fd5b506104b261049c366004613ecb565b61016a6020526000908152604090205460ff1681565b60405161030e9190613fcc565b3480156104cb57600080fd5b506102fa6104da366004613ecb565b610194602052600090815260409020546001600160a01b031681565b34801561050257600080fd5b5060408051808201825260018152603160f81b6020820152905161030e9190614037565b34801561053257600080fd5b50610337610541366004613ef9565b6000546001600160a01b0391821691161490565b34801561056157600080fd5b50610167546102fa906001600160a01b031681565b34801561058257600080fd5b50610369610591366004613ef9565b6101656020526000908152604090205481565b3480156105b057600080fd5b5061041f6105bf366004614131565b611061565b3480156105d057600080fd5b5060fb5460ff16610337565b6103696105ea3660046141f6565b6110fa565b3480156105fb57600080fd5b5061041f61060a366004614273565b6111e2565b34801561061b57600080fd5b506102fa61062a366004613ecb565b610169602052600090815260409020546001600160a01b031681565b34801561065257600080fd5b5061041f6112c4565b34801561066757600080fd5b506000546102fa906001600160a01b031681565b34801561068757600080fd5b50610369610696366004613ef9565b6101606020526000908152604090205481565b6103696106b73660046142be565b61134a565b3480156106c857600080fd5b50610193546102fa9061010090046001600160a01b031681565b6103696106f0366004614273565b6114e6565b610369610703366004614310565b611692565b34801561071457600080fd5b50610162546102fa906001600160a01b031681565b34801561073557600080fd5b5061012d546001600160a01b03166102fa565b34801561075457600080fd5b506102fa6107633660046143cc565b6117b8565b6103696107763660046143ee565b6117d7565b34801561078757600080fd5b50610337610796366004613f68565b611890565b3480156107a757600080fd5b50610369600081565b3480156107bc57600080fd5b506103696107cb366004613ef9565b6101646020526000908152604090205481565b3480156107ea57600080fd5b5061041f6107f93660046144c7565b6118bb565b34801561080a57600080fd5b50610163546102fa906001600160a01b031681565b34801561082b57600080fd5b5061033761083a3660046144f3565b611945565b34801561084b57600080fd5b5061036961085a366004613ecb565b611ad2565b61036961086d366004614552565b611ae9565b34801561087e57600080fd5b5061041f61088d366004613f68565b611bac565b6103696108a0366004614273565b611bd1565b3480156108b157600080fd5b5061041f6108c03660046145ad565b611d5b565b3480156108d157600080fd5b5061041f6108e03660046145ad565b611de4565b3480156108f157600080fd5b506102fa610900366004613ecb565b610168602052600090815260409020546001600160a01b031681565b34801561092857600080fd5b5061041f610937366004613ef9565b611e28565b34801561094857600080fd5b5061041f610957366004613ef9565b611f13565b34801561096857600080fd5b50610193546103379060ff1681565b34801561098357600080fd5b5061015f546102fa906001600160a01b031681565b60006001600160e01b03198216635a05180f60e01b14806109bd57506109bd82611f95565b92915050565b805160209182012060015460408051601960f81b81860152600160f81b602182015260228101929092526042808301939093528051808303909301835260629091019052805191012090565b600080516020614c65833981519152610a2781611fca565b46600090815261019460209081526040808320546101635482516370a0823160e01b815230600482015292516001600160a01b03928316959492909116926370a08231926024808301939192829003018186803b158015610a8757600080fd5b505afa158015610a9b573d6000803e3d6000fd5b505050506040513d601f19601f82011682018060405250810190610abf91906145e2565b60405163132244e760e11b81526001600160a01b0386811660048301529192509083169063264489ce90602401600060405180830381600087803b158015610b0657600080fd5b505af1158015610b1a573d6000803e3d6000fd5b5050610163546040516370a0823160e01b81523060048201528493506001600160a01b0390911691506370a082319060240160206040518083038186803b158015610b6457600080fd5b505afa158015610b78573d6000803e3d6000fd5b505050506040513d601f19601f82011682018060405250810190610b9c91906145e2565b610ba69190614611565b6001600160a01b0385166000908152610165602052604081208054909190610bcf908490614628565b909155505050505050565b600080516020614c65833981519152610bf281611fca565b6001600160a01b038416600090815261016560205260409020548015610fa257600084815261016960205260409020546001600160a01b031680610c725760405162461bcd60e51b8152602060048201526012602482015271125b9d985b1a59081d5cd95c881859d95b9d60721b60448201526064015b60405180910390fd5b604080516001808252818301909252600091602080830190803683370190505090508281600081518110610ca857610ca8614640565b60209081029190910101526040805160018082528183019092526000918160200160208202803683370190505090508681600081518110610ceb57610ceb614640565b60209081029190910101526040805160018082528183019092526000918160200160208202803683370190505090508381600081518110610d2e57610d2e614640565b6001600160a01b0392909216602092830291909101909101526040805160018082528183019092526000918160200160208202803683370190505090508781600081518110610d7f57610d7f614640565b60200260200101906001811115610d9857610d98613f98565b90816001811115610dab57610dab613f98565b9052506000610dc18b8287878787600180611fdb565b6101615461016354604051631d1c6b8360e11b81526001600160a01b03918216600482015260248101849052929350600092911690633a38d7069060440160206040518083038186803b158015610e1757600080fd5b505afa158015610e2b573d6000803e3d6000fd5b505050506040513d601f19601f82011682018060405250810190610e4f91906145e2565b905080881115610f9a576101615461016354604051632f66c82160e21b81526000926001600160a01b039081169263bd9b208492610e97929091169086908890600401614656565b602060405180830381600087803b158015610eb157600080fd5b505af1158015610ec5573d6000803e3d6000fd5b505050506040513d601f19601f82011682018060405250810190610ee991906145e2565b9050610ef5818a614611565b87600081518110610f0857610f08614640565b6020908102919091018101919091526001600160a01b038e16600090815261016590915260408120819055610f45908e9089898989600185611fdb565b506001600160a01b038d168c8a7f4b435ccc56b601078848376dd01c26d5427d126f72431adea9e4ee614129cd394661016354604080519283526001600160a01b0390911660208301520160405180910390a4505b505050505050505b5050505050565b600082815260976020526040902060010154610fc481611fca565b610fce83836120bb565b505050565b610fdb6120dd565b6001600160a01b0316816001600160a01b0316146110535760405162461bcd60e51b815260206004820152602f60248201527f416363657373436f6e74726f6c3a2063616e206f6e6c792072656e6f756e636560448201526e103937b632b9903337b91039b2b63360891b6064820152608401610c69565b61105d82826120ec565b5050565b600080516020614c6583398151915261107981611fca565b46600090815261019460205260409081902054905163582712b160e01b81526001600160a01b0390911690819063582712b1906110c09089908990899089906004016146eb565b600060405180830381600087803b1580156110da57600080fd5b505af11580156110ee573d6000803e3d6000fd5b50505050505050505050565b6000806111056120dd565b6001600160a01b03811660009081526101606020908152604091829020549151929350909161115f9161114291859185918d918d918d9101614758565b60405160208183030381529060405280519060200120868661210e565b60005b88518110156111ae57611190838a838151811061118157611181614640565b60200260200101518a8a612182565b61119a9085614628565b9350806111a681614791565b915050611162565b506111ba816001614628565b6001600160a01b03909216600090815261016060205260409020919091555095945050505050565b60006111ec6120dd565b6001600160a01b0381166000908152610160602090815260409182902054915192935090916112429161122591859185918a91016147ac565b60405160208183030381529060405280519060200120858561210e565b6001600160a01b038216600090815261016560205260408120546112669087614628565b6001600160a01b03808516600090815261016560205260408120556101635491925061129491168483612256565b61129f826001614628565b6001600160a01b03909316600090815261016060205260409020929092555050505050565b6112cc6120dd565b6001600160a01b03166112e861012d546001600160a01b031690565b6001600160a01b03161461133e5760405162461bcd60e51b815260206004820181905260248201527f4f776e61626c653a2063616c6c6572206973206e6f7420746865206f776e65726044820152606401610c69565b61134860006122a8565b565b6000806113556120dd565b6001600160a01b038116600090815261016060209081526040918290205491516bffffffffffffffffffffffff19606085901b1691810191909152603481018290526054810189905260748101889052919250906113b590609401611142565b6101935460ff1615611431576101935460405163e629f7b360e01b81526101009091046001600160a01b03169063e629f7b3906113fa9085908b908b90600401614656565b600060405180830381600087803b15801561141457600080fd5b505af1158015611428573d6000803e3d6000fd5b505050506114b4565b600063e629f7b360e01b83898960405160240161145093929190614656565b60408051601f19818403018152918152602080830180516001600160e01b03166001600160e01b031990951694909417909352610192546000818152610169909452908320549193506114b09290916001600160a01b03169084816122fb565b9350505b6114bf816001614628565b6001600160a01b039092166000908152610160602052604090209190915550949350505050565b6000806114f16120dd565b6001600160a01b03811660009081526101606020908152604091829020549151929350909161152a9161114291859185918b91016147ac565b6101935460ff16156115a15761019354604051637bbef24360e11b81526001600160a01b0384811660048301526101009092049091169063f77de48690602401600060405180830381600087803b15801561158457600080fd5b505af1158015611598573d6000803e3d6000fd5b5050505061160d565b604080516001600160a01b038481166024808401919091528351808403909101815260449092018352602080830180516001600160e01b0316637bbef24360e11b179052610192546000818152610169909252938120549293611609939092169084816122fb565b9350505b6001600160a01b038216600090815261016560205260408120546116319088614628565b6001600160a01b03808516600090815261016560205260408120556101635491925061165f91168483612256565b61166a826001614628565b6001600160a01b03909316600090815261016060205260409020929092555090949350505050565b60006116a060fb5460ff1690565b156116e05760405162461bcd60e51b815260206004820152601060248201526f14185d5cd8589b194e881c185d5cd95960821b6044820152606401610c69565b60006116ea6120dd565b6001600160a01b0381166000908152610160602090815260409182902054915192935090916117299161114291859185918e918e918e918e91016147d6565b60008060008061173c8d8d8d60006124a4565b93509350935093505b831561177f57611758868585858e612681565b6117629088614628565b96506117708d8d8d846124a4565b92965090945092509050611745565b61178a856001614628565b6001600160a01b039096166000908152610160602052604090209590955550939a9950505050505050505050565b600082815260c9602052604081206117d0908361291a565b9392505050565b6000806117e26120dd565b6001600160a01b03811660009081526101606020908152604091829020549151929350909161181d9161114291859185918c918c9101614849565b60005b8751811015611884576118668389838151811061183f5761183f614640565b602002602001015189848151811061185957611859614640565b6020026020010151612926565b6118709085614628565b93508061187c81614791565b915050611820565b506114bf816001614628565b60009182526097602090815260408084206001600160a01b0393909316845291905290205460ff1690565b600080516020614c658339815191526118d381611fca565b61019354604051632bcf68bd60e21b81526001600160a01b038581166004830152602482018590526101009092049091169063af3da2f490604401600060405180830381600087803b15801561192857600080fd5b505af115801561193c573d6000803e3d6000fd5b50505050505050565b600080611951856109c3565b90506001600160a01b0386163b156119ad576119a586828787878080601f0160208091040260200160405190810160405280939291908181526020018383808284376000920191909152506129b692505050565b915050611aca565b60008060006119f187878080601f01602080910402602001604051908101604052809392919081815260200183838082843760009201829052509250612a52915050565b6040517f19457468657265756d205369676e6564204d6573736167653a0a3332000000006020820152603c81018890529295509093509150600090605c0160408051601f198184030181528282528051602091820120600080855291840180845281905260ff88169284019290925260608301869052608083018590529092509060019060a0016020604051602081039080840390855afa158015611a9a573d6000803e3d6000fd5b5050506020604051035190508a6001600160a01b0316816001600160a01b0316149650505050505050611aca565b505b949350505050565b600081815260c9602052604081206109bd90612a70565b600080611af46120dd565b6001600160a01b038116600090815261016060209081526040918290205491519293509091611b2d9161114291859185918b91016148ac565b60005b8651811015611b7a57611b5c83888381518110611b4f57611b4f614640565b6020026020010151612a7a565b611b669085614628565b935080611b7281614791565b915050611b30565b50611b86816001614628565b6001600160a01b0390921660009081526101606020526040902091909155509392505050565b600082815260976020526040902060010154611bc781611fca565b610fce83836120ec565b6000611bdf60fb5460ff1690565b15611c1f5760405162461bcd60e51b815260206004820152601060248201526f14185d5cd8589b194e881c185d5cd95960821b6044820152606401610c69565b6000611c296120dd565b6001600160a01b038116600090815261016060209081526040918290205491519293509091611c629161114291859185918b91016147ac565b6101935460ff1615611ce05761019354604051632bcf68bd60e21b81526001600160a01b038481166004830152602482018990526101009092049091169063af3da2f490604401600060405180830381600087803b158015611cc357600080fd5b505af1158015611cd7573d6000803e3d6000fd5b50505050611d50565b604080516001600160a01b03848116602483015260448083018a90528351808403909101815260649092018352602080830180516001600160e01b0316632bcf68bd60e21b179052610192546000818152610169909252938120549293611d4c939092169084816122fb565b9350505b611b86816001614628565b600080516020614c65833981519152611d7381611fca565b6101935460405163e629f7b360e01b81526101009091046001600160a01b03169063e629f7b390611dac90879087908790600401614656565b600060405180830381600087803b158015611dc657600080fd5b505af1158015611dda573d6000803e3d6000fd5b5050505050505050565b600080516020614c65833981519152611dfc81611fca565b4660009081526101946020526040902054611e22906001600160a01b0316858585612b87565b50505050565b611e306120dd565b6001600160a01b0316611e4c61012d546001600160a01b031690565b6001600160a01b031614611ea25760405162461bcd60e51b815260206004820181905260248201527f4f776e61626c653a2063616c6c6572206973206e6f7420746865206f776e65726044820152606401610c69565b6001600160a01b038116611f075760405162461bcd60e51b815260206004820152602660248201527f4f776e61626c653a206e6577206f776e657220697320746865207a65726f206160448201526564647265737360d01b6064820152608401610c69565b611f10816122a8565b50565b600080516020614c65833981519152611f2b81611fca565b61019354604051637bbef24360e11b81526001600160a01b0384811660048301526101009092049091169063f77de48690602401600060405180830381600087803b158015611f7957600080fd5b505af1158015611f8d573d6000803e3d6000fd5b505050505050565b60006001600160e01b03198216637965db0b60e01b14806109bd57506301ffc9a760e01b6001600160e01b03198316146109bd565b611f1081611fd66120dd565b612d26565b6000806000806000806000611ff38d8d8d8d8d612d8a565b949a5092985090965094509250905087158015612011575060008651115b156120915761016660009054906101000a90046001600160a01b03166001600160a01b03166365a130b48f8888886040518563ffffffff1660e01b815260040161205e94939291906148d1565b600060405180830381600087803b15801561207857600080fd5b505af115801561208c573d6000803e3d6000fd5b505050505b8251156120a9576120a68f8f8585858d613238565b96505b50505050505098975050505050505050565b6120c5828261342c565b600082815260c960205260409020610fce90826134b3565b60006120e76134c8565b905090565b6120f682826134fc565b600082815260c960205260409020610fce9082613581565b61015f546040805160208101869052612142926001600160a01b031691016040516020818303038152906040528484611945565b610fce5760405162461bcd60e51b8152602060048201526011602482015270496e76616c6964207369676e617475726560781b6044820152606401610c69565b600083815261019460205260408120546001600160a01b0316806121b85760405162461bcd60e51b8152600401610c6990614919565b468514156121d1576121cc81878686612b87565b611ac8565b600063e9e81a6a60e01b8786866040516024016121f093929190614656565b60408051601f19818403018152918152602080830180516001600160e01b03166001600160e01b031990951694909417909352600089815261016990935282205490925061224b9188916001600160a01b03169084816122fb565b979650505050505050565b604080516001600160a01b038416602482015260448082018490528251808303909101815260649091019091526020810180516001600160e01b031663a9059cbb60e01b179052610fce908490613596565b61012d80546001600160a01b038381166001600160a01b0319831681179093556040519116919082907f8be0079c531659141344cd1fd0a4f28419497f9722a3daafe3b4186f6b6457e090600090a35050565b60006001600160a01b03851661234c5760405162461bcd60e51b8152602060048201526016602482015275125b9d985b1a59081d185c99d95d10dbdb9d1c9858dd60521b6044820152606401610c69565b60006001600088815261016a602052604090205460ff16600181111561237457612374613f98565b1461238b57610167546001600160a01b0316612399565b610166546001600160a01b03165b60405163bebc4f7160e01b81529091506001600160a01b0382169063bebc4f71906123ce908a908a908a908a90600401614943565b60206040518083038186803b1580156123e657600080fd5b505afa1580156123fa573d6000803e3d6000fd5b505050506040513d601f19601f8201168201806040525081019061241e91906145e2565b91508215801561242e5750814710155b1561249a57604051630ef95ceb60e31b81526001600160a01b038216906377cae758908490612467908b908b908b908b90600401614943565b6000604051808303818588803b15801561248057600080fd5b505af1158015612494573d6000803e3d6000fd5b50505050505b5095945050505050565b83516000906060908190839081865b8281101561252657866124e1578a81815181106124d2576124d2614640565b60200260200101519650612506565b8a81815181106124f3576124f3614640565b6020026020010151871461250657612526565b8161251081614791565b925050808061251e90614791565b9150506124b3565b506125318188614628565b9250801561267457806001600160401b0381111561255157612551613de2565b60405190808252806020026020018201604052801561257a578160200160208202803683370190505b509450806001600160401b0381111561259557612595613de2565b6040519080825280602002602001820160405280156125be578160200160208202803683370190505b50935060009050865b83811015612672578981815181106125e1576125e1614640565b60200260200101518683815181106125fb576125fb614640565b60200260200101906001600160a01b031690816001600160a01b03168152505088818151811061262d5761262d614640565b602002602001015185838151811061264757612647614640565b60209081029190910101528161265c81614791565b925050808061266a90614791565b9150506125c7565b505b5050945094509450949050565b600084815261019460205260408120546001600160a01b0316806126b75760405162461bcd60e51b8152600401610c6990614919565b46861415612892576001600160a01b0387166000908152610165602052604081205490805b865181101561271e578681815181106126f7576126f7614640565b60200260200101518261270a9190614628565b91508061271681614791565b9150506126dc565b50610163546040805163313ce56760e01b815290516006926001600160a01b03169163313ce567916004808301926020929190829003018186803b15801561276557600080fd5b505afa158015612779573d6000803e3d6000fd5b505050506040513d601f19601f8201168201806040525081019061279d9190614970565b6127a79190614993565b6127b290600a614a9a565b6127bc9082614aa9565b9050808210156128055760405162461bcd60e51b8152602060048201526014602482015273496e73756666696369656e742062616c616e636560601b6044820152606401610c69565b61280f8183614611565b6001600160a01b03808b16600090815261016560205260409081902092909255905163582712b160e01b81529084169063582712b190612859908c908b908b908b906004016146eb565b600060405180830381600087803b15801561287357600080fd5b505af1158015612887573d6000803e3d6000fd5b50505050505061249a565b600063582712b160e01b888787876040516024016128b394939291906146eb565b60408051601f19818403018152918152602080830180516001600160e01b03166001600160e01b03199095169490941790935260008a815261016990935282205490925061290e9189916001600160a01b03169084816122fb565b98975050505050505050565b60006117d08383613668565b6000468381146129ae5760006328054fb760e01b86838660405160240161294f93929190614ac8565b60408051601f19818403018152918152602080830180516001600160e01b03166001600160e01b03199095169490941790935260008881526101699093528220549092506129aa9187916001600160a01b03169084816122fb565b9250505b509392505050565b600080856001600160a01b031663e75235b86040518163ffffffff1660e01b815260040160206040518083038186803b1580156129f257600080fd5b505afa158015612a06573d6000803e3d6000fd5b505050506040513d601f19601f82011682018060405250810190612a2a91906145e2565b905080612a3b576000915050611aca565b612a488686868685613692565b9695505050505050565b60419081029190910160208101516040820151919092015160ff1692565b60006109bd825490565b600081815261019460205260408120546001600160a01b031680612ab05760405162461bcd60e51b8152600401610c6990614919565b46831415612b185760405163132244e760e11b81526001600160a01b03858116600483015282169063264489ce90602401600060405180830381600087803b158015612afb57600080fd5b505af1158015612b0f573d6000803e3d6000fd5b50505050612b80565b604080516001600160a01b038681166024808401919091528351808403909101815260449092018352602080830180516001600160e01b031663132244e760e11b1790526000878152610169909152928320549192612b7c928792169084816122fb565b9250505b5092915050565b610163546040516370a0823160e01b81523060048201526000916001600160a01b0316906370a082319060240160206040518083038186803b158015612bcc57600080fd5b505afa158015612be0573d6000803e3d6000fd5b505050506040513d601f19601f82011682018060405250810190612c0491906145e2565b6040516374f40d3560e11b81529091506001600160a01b0386169063e9e81a6a90612c3790879087908790600401614656565b600060405180830381600087803b158015612c5157600080fd5b505af1158015612c65573d6000803e3d6000fd5b5050610163546040516370a0823160e01b81523060048201528493506001600160a01b0390911691506370a082319060240160206040518083038186803b158015612caf57600080fd5b505afa158015612cc3573d6000803e3d6000fd5b505050506040513d601f19601f82011682018060405250810190612ce791906145e2565b612cf19190614611565b6001600160a01b0385166000908152610165602052604081208054909190612d1a908490614628565b90915550505050505050565b612d308282611890565b61105d57612d48816001600160a01b031660146138ee565b612d538360206138ee565b604051602001612d64929190614af6565b60408051601f198184030181529082905262461bcd60e51b8252610c6991600401614037565b60608060608060608060008060005b89811015612e395760018b8281518110612db557612db5614640565b60200260200101516001811115612dce57612dce613f98565b1415612de65782612dde81614791565b935050612e27565b60008b8281518110612dfa57612dfa614640565b60200260200101516001811115612e1357612e13613f98565b1415612e275781612e2381614791565b9250505b80612e3181614791565b915050612d99565b50816001600160401b03811115612e5257612e52613de2565b604051908082528060200260200182016040528015612e7b578160200160208202803683370190505b509750816001600160401b03811115612e9657612e96613de2565b604051908082528060200260200182016040528015612ebf578160200160208202803683370190505b509650816001600160401b03811115612eda57612eda613de2565b604051908082528060200260200182016040528015612f03578160200160208202803683370190505b509550806001600160401b03811115612f1e57612f1e613de2565b604051908082528060200260200182016040528015612f47578160200160208202803683370190505b509450806001600160401b03811115612f6257612f62613de2565b604051908082528060200260200182016040528015612f8b578160200160208202803683370190505b509350806001600160401b03811115612fa657612fa6613de2565b604051908082528060200260200182016040528015612fcf578160200160208202803683370190505b509250600091506000905060005b898110156132285760018b8281518110612ff957612ff9614640565b6020026020010151600181111561301257613012613f98565b14156130de578d818151811061302a5761302a614640565b602002602001015189848151811061304457613044614640565b6020026020010181815250508c818151811061306257613062614640565b602002602001015188848151811061307c5761307c614640565b6020026020010181815250508b818151811061309a5761309a614640565b60200260200101518784815181106130b4576130b4614640565b6001600160a01b0390921660209283029190910190910152826130d681614791565b935050613216565b60008b82815181106130f2576130f2614640565b6020026020010151600181111561310b5761310b613f98565b14156131d7578d818151811061312357613123614640565b602002602001015186838151811061313d5761313d614640565b6020026020010181815250508c818151811061315b5761315b614640565b602002602001015185838151811061317557613175614640565b6020026020010181815250508b818151811061319357613193614640565b60200260200101518483815181106131ad576131ad614640565b6001600160a01b0390921660209283029190910190910152816131cf81614791565b925050613216565b60405162461bcd60e51b8152602060048201526014602482015273496e76616c69642061646170746572207479706560601b6044820152606401610c69565b8061322081614791565b915050612fdd565b5050509550955095509550955095565b600080855190508061016760009054906101000a90046001600160a01b03166001600160a01b0316633b11ca516040518163ffffffff1660e01b815260040160206040518083038186803b15801561328f57600080fd5b505afa1580156132a3573d6000803e3d6000fd5b505050506040513d601f19601f820116820180604052508101906132c791906145e2565b6132d19190614aa9565b9150821580156132e15750814710155b1561342157610167546040805163057ff68760e51b815290516000926001600160a01b03169163affed0e0916004808301926020929190829003018186803b15801561332c57600080fd5b505afa158015613340573d6000803e3d6000fd5b505050506040513d601f19601f8201168201806040525081019061336491906145e2565b610167546040516319684c2d60e21b81529192506001600160a01b0316906365a130b490859061339e908c908c908c908c906004016148d1565b6000604051808303818588803b1580156133b757600080fd5b505af11580156133cb573d6000803e3d6000fd5b508493505050505b6133dd8383614628565b81101561341e5760008181526101686020526040902080546001600160a01b0319166001600160a01b038c161790558061341681614791565b9150506133d3565b50505b509695505050505050565b6134368282611890565b61105d5760008281526097602090815260408083206001600160a01b03851684529091529020805460ff1916600117905561346f6120dd565b6001600160a01b0316816001600160a01b0316837f2f8788117e7eff1d82e926ec794901d17c78024a50270940304540a733656f0d60405160405180910390a45050565b60006117d0836001600160a01b038416613a89565b6000601836108015906134e557506000546001600160a01b031633145b156134f7575060131936013560601c90565b503390565b6135068282611890565b1561105d5760008281526097602090815260408083206001600160a01b03851684529091529020805460ff1916905561353d6120dd565b6001600160a01b0316816001600160a01b0316837ff6391f5c32d9c69d2a47ea670b442974b53935d1edc7fd64eb21e047a839171b60405160405180910390a45050565b60006117d0836001600160a01b038416613ad8565b60006135eb826040518060400160405280602081526020017f5361666545524332303a206c6f772d6c6576656c2063616c6c206661696c6564815250856001600160a01b0316613bcb9092919063ffffffff16565b805190915015610fce57808060200190518101906136099190614b6b565b610fce5760405162461bcd60e51b815260206004820152602a60248201527f5361666545524332303a204552433230206f7065726174696f6e20646964206e6044820152691bdd081cdd58d8d9595960b21b6064820152608401610c69565b600082600001828154811061367f5761367f614640565b9060005260206000200154905092915050565b600061369f826041614aa9565b835110156136af575060006138e5565b600080876001600160a01b031663a0e67e2b6040518163ffffffff1660e01b815260040160006040518083038186803b1580156136eb57600080fd5b505afa1580156136ff573d6000803e3d6000fd5b505050506040513d6000823e601f3d908101601f191682016040526137279190810190614b8d565b905060008080805b878110156138da5760418181028a0160208101516040820151919092015160ff16955090935091508361380a57919450849161376c886041614aa9565b82101561378257600096505050505050506138e5565b885161378f836020614628565b11156137a457600096505050505050506138e5565b6020828a018101518a51909182906137bd908690614628565b6137c79190614628565b11156137dd5760009750505050505050506138e5565b8983016020016137ee888d83613bda565b613803576000985050505050505050506138e5565b50506138ab565b6040517f19457468657265756d205369676e6564204d6573736167653a0a3332000000006020820152603c81018c9052600190605c0160408051601f198184030181528282528051602091820120600084529083018083525260ff871690820152606081018590526080810184905260a0016020604051602081039080840390855afa15801561389e573d6000803e3d6000fd5b5050506020604051035195505b6138b58587613bf4565b6138c857600096505050505050506138e5565b806138d281614791565b91505061372f565b600196505050505050505b95945050505050565b606060006138fd836002614aa9565b613908906002614628565b6001600160401b0381111561391f5761391f613de2565b6040519080825280601f01601f191660200182016040528015613949576020820181803683370190505b509050600360fc1b8160008151811061396457613964614640565b60200101906001600160f81b031916908160001a905350600f60fb1b8160018151811061399357613993614640565b60200101906001600160f81b031916908160001a90535060006139b7846002614aa9565b6139c2906001614628565b90505b6001811115613a3a576f181899199a1a9b1b9c1cb0b131b232b360811b85600f16601081106139f6576139f6614640565b1a60f81b828281518110613a0c57613a0c614640565b60200101906001600160f81b031916908160001a90535060049490941c93613a3381614c1b565b90506139c5565b5083156117d05760405162461bcd60e51b815260206004820181905260248201527f537472696e67733a20686578206c656e67746820696e73756666696369656e746044820152606401610c69565b6000818152600183016020526040812054613ad0575081546001818101845560008481526020808220909301849055845484825282860190935260409020919091556109bd565b5060006109bd565b60008181526001830160205260408120548015613bc1576000613afc600183614611565b8554909150600090613b1090600190614611565b9050818114613b75576000866000018281548110613b3057613b30614640565b9060005260206000200154905080876000018481548110613b5357613b53614640565b6000918252602080832090910192909255918252600188019052604090208390555b8554869080613b8657613b86614c32565b6001900381819060005260206000200160009055905585600101600086815260200190815260200160002060009055600193505050506109bd565b60009150506109bd565b6060611aca8484600085613c5e565b600080613be6846109c3565b90506138e5858286866129b6565b8151600090815b81811015613c5357836001600160a01b0316858281518110613c1f57613c1f614640565b60200260200101516001600160a01b03161415613c41576001925050506109bd565b80613c4b81614791565b915050613bfb565b506000949350505050565b606082471015613cbf5760405162461bcd60e51b815260206004820152602660248201527f416464726573733a20696e73756666696369656e742062616c616e636520666f6044820152651c8818d85b1b60d21b6064820152608401610c69565b6001600160a01b0385163b613d165760405162461bcd60e51b815260206004820152601d60248201527f416464726573733a2063616c6c20746f206e6f6e2d636f6e74726163740000006044820152606401610c69565b600080866001600160a01b03168587604051613d329190614c48565b60006040518083038185875af1925050503d8060008114613d6f576040519150601f19603f3d011682016040523d82523d6000602084013e613d74565b606091505b509150915061224b82828660608315613d8e5750816117d0565b825115613d9e5782518084602001fd5b8160405162461bcd60e51b8152600401610c699190614037565b600060208284031215613dca57600080fd5b81356001600160e01b0319811681146117d057600080fd5b634e487b7160e01b600052604160045260246000fd5b604051601f8201601f191681016001600160401b0381118282101715613e2057613e20613de2565b604052919050565b600082601f830112613e3957600080fd5b81356001600160401b03811115613e5257613e52613de2565b613e65601f8201601f1916602001613df8565b818152846020838601011115613e7a57600080fd5b816020850160208301376000918101602001919091529392505050565b600060208284031215613ea957600080fd5b81356001600160401b03811115613ebf57600080fd5b611aca84828501613e28565b600060208284031215613edd57600080fd5b5035919050565b6001600160a01b0381168114611f1057600080fd5b600060208284031215613f0b57600080fd5b81356117d081613ee4565b803560028110613f2557600080fd5b919050565b600080600060608486031215613f3f57600080fd5b8335613f4a81613ee4565b925060208401359150613f5f60408501613f16565b90509250925092565b60008060408385031215613f7b57600080fd5b823591506020830135613f8d81613ee4565b809150509250929050565b634e487b7160e01b600052602160045260246000fd5b60028110611f1057634e487b7160e01b600052602160045260246000fd5b60208101613fd983613fae565b91905290565b60005b83811015613ffa578181015183820152602001613fe2565b83811115611e225750506000910152565b60008151808452614023816020860160208601613fdf565b601f01601f19169290920160200192915050565b6020815260006117d0602083018461400b565b60006001600160401b0382111561406357614063613de2565b5060051b60200190565b600082601f83011261407e57600080fd5b8135602061409361408e8361404a565b613df8565b82815260059290921b840181019181810190868411156140b257600080fd5b8286015b848110156134215780356140c981613ee4565b83529183019183016140b6565b600082601f8301126140e757600080fd5b813560206140f761408e8361404a565b82815260059290921b8401810191818101908684111561411657600080fd5b8286015b84811015613421578035835291830191830161411a565b6000806000806080858703121561414757600080fd5b843561415281613ee4565b935060208501356001600160401b038082111561416e57600080fd5b61417a8883890161406d565b9450604087013591508082111561419057600080fd5b5061419d878288016140d6565b949793965093946060013593505050565b60008083601f8401126141c057600080fd5b5081356001600160401b038111156141d757600080fd5b6020830191508360208285010111156141ef57600080fd5b9250929050565b60008060008060006080868803121561420e57600080fd5b85356001600160401b038082111561422557600080fd5b61423189838a016140d6565b96506020880135955060408801359450606088013591508082111561425557600080fd5b50614262888289016141ae565b969995985093965092949392505050565b60008060006040848603121561428857600080fd5b8335925060208401356001600160401b038111156142a557600080fd5b6142b1868287016141ae565b9497909650939450505050565b600080600080606085870312156142d457600080fd5b843593506020850135925060408501356001600160401b038111156142f857600080fd5b614304878288016141ae565b95989497509550505050565b60008060008060008060a0878903121561432957600080fd5b86356001600160401b038082111561434057600080fd5b61434c8a838b016140d6565b9750602089013591508082111561436257600080fd5b61436e8a838b0161406d565b9650604089013591508082111561438457600080fd5b6143908a838b016140d6565b95506060890135945060808901359150808211156143ad57600080fd5b506143ba89828a016141ae565b979a9699509497509295939492505050565b600080604083850312156143df57600080fd5b50508035926020909101359150565b6000806000806060858703121561440457600080fd5b84356001600160401b038082111561441b57600080fd5b614427888389016140d6565b955060209150818701358181111561443e57600080fd5b8701601f8101891361444f57600080fd5b803561445d61408e8261404a565b81815260059190911b8201840190848101908b83111561447c57600080fd5b928501925b828410156144a15761449284613f16565b82529285019290850190614481565b975050505060408701359150808211156144ba57600080fd5b50614304878288016141ae565b600080604083850312156144da57600080fd5b82356144e581613ee4565b946020939093013593505050565b6000806000806060858703121561450957600080fd5b843561451481613ee4565b935060208501356001600160401b038082111561453057600080fd5b61453c88838901613e28565b945060408701359150808211156144ba57600080fd5b60008060006040848603121561456757600080fd5b83356001600160401b038082111561457e57600080fd5b61458a878388016140d6565b945060208601359150808211156145a057600080fd5b506142b1868287016141ae565b6000806000606084860312156145c257600080fd5b83356145cd81613ee4565b95602085013595506040909401359392505050565b6000602082840312156145f457600080fd5b5051919050565b634e487b7160e01b600052601160045260246000fd5b600082821015614623576146236145fb565b500390565b6000821982111561463b5761463b6145fb565b500190565b634e487b7160e01b600052603260045260246000fd5b6001600160a01b039390931683526020830191909152604082015260600190565b600081518084526020808501945080840160005b838110156146b05781516001600160a01b03168752958201959082019060010161468b565b509495945050505050565b600081518084526020808501945080840160005b838110156146b0578151875295820195908201906001016146cf565b6001600160a01b038516815260806020820181905260009061470f90830186614677565b828103604084015261472181866146bb565b91505082606083015295945050505050565b805160009060208084018383156146b0578151875295820195908201906001016146cf565b6001600160601b03198660601b168152846014820152600061477d6034830186614733565b938452505060208201526040019392505050565b60006000198214156147a5576147a56145fb565b5060010190565b60609390931b6bffffffffffffffffffffffff191683526014830191909152603482015260540190565b6001600160601b03198760601b16815285601482015260006147fb6034830187614733565b8551602080880160005b8381101561482a5781516001600160a01b031685529382019390820190600101614805565b50506148368388614733565b9586529094019998505050505050505050565b6001600160601b03198560601b168152836014820152600061486e6034830185614733565b8351602080860160005b8381101561489d57815161488b81613fae565b85529382019390820190600101614878565b50929998505050505050505050565b6001600160601b03198460601b16815282601482015260006138e56034830184614733565b6148da85613fae565b8481526080602082015260006148f360808301866146bb565b828103604084015261490581866146bb565b9050828103606084015261224b8185614677565b60208082526010908201526f125b9d985b1a59081cdd1a55985d5b1d60821b604082015260600190565b84815260018060a01b0384166020820152826040820152608060608201526000612a48608083018461400b565b60006020828403121561498257600080fd5b815160ff811681146117d057600080fd5b600060ff821660ff8416808210156149ad576149ad6145fb565b90039392505050565b600181815b808511156149f15781600019048211156149d7576149d76145fb565b808516156149e457918102915b93841c93908002906149bb565b509250929050565b600082614a08575060016109bd565b81614a15575060006109bd565b8160018114614a2b5760028114614a3557614a51565b60019150506109bd565b60ff841115614a4657614a466145fb565b50506001821b6109bd565b5060208310610133831016604e8410600b8410161715614a74575081810a6109bd565b614a7e83836149b6565b8060001904821115614a9257614a926145fb565b029392505050565b60006117d060ff8416836149f9565b6000816000190483118215151615614ac357614ac36145fb565b500290565b6001600160a01b03841681526020810183905260608101614ae883613fae565b826040830152949350505050565b7f416363657373436f6e74726f6c3a206163636f756e7420000000000000000000815260008351614b2e816017850160208801613fdf565b7001034b99036b4b9b9b4b733903937b6329607d1b6017918401918201528351614b5f816028840160208801613fdf565b01602801949350505050565b600060208284031215614b7d57600080fd5b815180151581146117d057600080fd5b60006020808385031215614ba057600080fd5b82516001600160401b03811115614bb657600080fd5b8301601f81018513614bc757600080fd5b8051614bd561408e8261404a565b81815260059190911b82018301908381019087831115614bf457600080fd5b928401925b8284101561224b578351614c0c81613ee4565b82529284019290840190614bf9565b600081614c2a57614c2a6145fb565b506000190190565b634e487b7160e01b600052603160045260246000fd5b60008251614c5a818460208701613fdf565b919091019291505056fedbeb657137b1822b3d5418bea6fd641226d964b4c3871ef23546db2622258871a2646970667358221220173d3bd581a0dd28f0709923ab0d2e5b1487e4ee2054156db0f0eecd464d744164736f6c63430008090033",
  "devdoc": {
    "kind": "dev",
    "methods": {
      "burn(uint256,uint256,bytes)": {
        "details": "It calls burnByAdmin of STIMinter.",
        "params": {
          "_pool": "total pool in USD",
          "_share": "amount of shares"
        }
      },
      "claim(uint256[],bytes)": {
        "details": "It calls claimByAgent of STIVaults."
      },
      "deposit(uint256[],address[],uint256[],uint256,bytes)": {
        "details": "It calls depositByAgent of STIVaults."
      },
      "exitWithdrawal(uint256,bytes)": {
        "details": "It calls exitWithdrawalByAdmin of STIMinter.",
        "params": {
          "_gatheredAmount": "is the amount of token that is gathered."
        }
      },
      "gather(uint256[],uint8[],bytes)": {
        "details": "It gathers withdrawn tokens of the user from user agents."
      },
      "getMessageHashForSafe(bytes)": {
        "details": "Returns hash of a message that can be signed by owners.",
        "params": {
          "message": "Message that should be hashed"
        },
        "returns": {
          "_0": "Message hash."
        }
      },
      "getRoleAdmin(bytes32)": {
        "details": "Returns the admin role that controls `role`. See {grantRole} and {revokeRole}. To change a role's admin, use {_setRoleAdmin}."
      },
      "getRoleMember(bytes32,uint256)": {
        "details": "Returns one of the accounts that have `role`. `index` must be a value between 0 and {getRoleMemberCount}, non-inclusive. Role bearers are not sorted in any particular way, and their ordering may change at any point. WARNING: When using {getRoleMember} and {getRoleMemberCount}, make sure you perform all queries on the same block. See the following https://forum.openzeppelin.com/t/iterating-over-elements-on-enumerableset-in-openzeppelin-contracts/2296[forum post] for more information."
      },
      "getRoleMemberCount(bytes32)": {
        "details": "Returns the number of accounts that have `role`. Can be used together with {getRoleMember} to enumerate all bearers of a role."
      },
      "grantRole(bytes32,address)": {
        "details": "Grants `role` to `account`. If `account` had not been already granted `role`, emits a {RoleGranted} event. Requirements: - the caller must have ``role``'s admin role."
      },
      "hasRole(bytes32,address)": {
        "details": "Returns `true` if `account` has been granted `role`."
      },
      "mint(uint256,bytes)": {
        "details": "It calls mintByAdmin of STIMinter."
      },
      "owner()": {
        "details": "Returns the address of the current owner."
      },
      "paused()": {
        "details": "Returns true if the contract is paused, and false otherwise."
      },
      "renounceOwnership()": {
        "details": "Leaves the contract without owner. It will not be possible to call `onlyOwner` functions anymore. Can only be called by the current owner. NOTE: Renouncing ownership will leave the contract without an owner, thereby removing any functionality that is only available to the owner."
      },
      "renounceRole(bytes32,address)": {
        "details": "Revokes `role` from the calling account. Roles are often managed via {grantRole} and {revokeRole}: this function's purpose is to provide a mechanism for accounts to lose their privileges if they are compromised (such as when a trusted device is misplaced). If the calling account had been revoked `role`, emits a {RoleRevoked} event. Requirements: - the caller must be `account`."
      },
      "revokeRole(bytes32,address)": {
        "details": "Revokes `role` from `account`. If `account` had been granted `role`, emits a {RoleRevoked} event. Requirements: - the caller must have ``role``'s admin role."
      },
      "supportsInterface(bytes4)": {
        "details": "See {IERC165-supportsInterface}."
      },
      "takeOut(uint256,bytes)": {
        "details": "It takes out tokens from this agent.",
        "params": {
          "_gatheredAmount": "is the amount of token that is gathered."
        }
      },
      "transferOwnership(address)": {
        "details": "Transfers ownership of the contract to a new account (`newOwner`). Can only be called by the current owner."
      },
      "withdraw(uint256[],uint256,uint256,bytes)": {
        "details": "It calls withdrawPercByAgent of STIVaults."
      }
    },
    "version": 1
  },
  "userdoc": {
    "kind": "user",
    "methods": {
      "exitWithdrawal(uint256,bytes)": {
        "notice": "_gatheredAmount doesn't include the balance which is withdrawan in this agent."
      },
      "isTrustedForwarder(address)": {
        "notice": "return if the forwarder is trusted to forward relayed transactions to us. the forwarder is required to verify the sender's signature, and verify the call is not a replay."
      },
      "takeOut(uint256,bytes)": {
        "notice": "_gatheredAmount doesn't include the balance which is withdrawan in this agent."
      }
    },
    "version": 1
  },
  "storageLayout": {
    "storage": [
      {
        "astId": 65224,
        "contract": "contracts/xchain/agent/STIUserAgentSub.sol:STIUserAgentSub",
        "label": "trustedForwarder",
        "offset": 0,
        "slot": "0",
        "type": "t_address"
      },
      {
        "astId": 713,
        "contract": "contracts/xchain/agent/STIUserAgentSub.sol:STIUserAgentSub",
        "label": "_initialized",
        "offset": 20,
        "slot": "0",
        "type": "t_uint8"
      },
      {
        "astId": 716,
        "contract": "contracts/xchain/agent/STIUserAgentSub.sol:STIUserAgentSub",
        "label": "_initializing",
        "offset": 21,
        "slot": "0",
        "type": "t_bool"
      },
      {
        "astId": 65739,
        "contract": "contracts/xchain/agent/STIUserAgentSub.sol:STIUserAgentSub",
        "label": "separator",
        "offset": 0,
        "slot": "1",
        "type": "t_bytes32"
      },
      {
        "astId": 66156,
        "contract": "contracts/xchain/agent/STIUserAgentSub.sol:STIUserAgentSub",
        "label": "__gap",
        "offset": 0,
        "slot": "2",
        "type": "t_array(t_uint256)49_storage"
      },
      {
        "astId": 3292,
        "contract": "contracts/xchain/agent/STIUserAgentSub.sol:STIUserAgentSub",
        "label": "__gap",
        "offset": 0,
        "slot": "51",
        "type": "t_array(t_uint256)50_storage"
      },
      {
        "astId": 3946,
        "contract": "contracts/xchain/agent/STIUserAgentSub.sol:STIUserAgentSub",
        "label": "__gap",
        "offset": 0,
        "slot": "101",
        "type": "t_array(t_uint256)50_storage"
      },
      {
        "astId": 184,
        "contract": "contracts/xchain/agent/STIUserAgentSub.sol:STIUserAgentSub",
        "label": "_roles",
        "offset": 0,
        "slot": "151",
        "type": "t_mapping(t_bytes32,t_struct(RoleData)179_storage)"
      },
      {
        "astId": 483,
        "contract": "contracts/xchain/agent/STIUserAgentSub.sol:STIUserAgentSub",
        "label": "__gap",
        "offset": 0,
        "slot": "152",
        "type": "t_array(t_uint256)49_storage"
      },
      {
        "astId": 33,
        "contract": "contracts/xchain/agent/STIUserAgentSub.sol:STIUserAgentSub",
        "label": "_roleMembers",
        "offset": 0,
        "slot": "201",
        "type": "t_mapping(t_bytes32,t_struct(AddressSet)4359_storage)"
      },
      {
        "astId": 143,
        "contract": "contracts/xchain/agent/STIUserAgentSub.sol:STIUserAgentSub",
        "label": "__gap",
        "offset": 0,
        "slot": "202",
        "type": "t_array(t_uint256)49_storage"
      },
      {
        "astId": 869,
        "contract": "contracts/xchain/agent/STIUserAgentSub.sol:STIUserAgentSub",
        "label": "_paused",
        "offset": 0,
        "slot": "251",
        "type": "t_bool"
      },
      {
        "astId": 958,
        "contract": "contracts/xchain/agent/STIUserAgentSub.sol:STIUserAgentSub",
        "label": "__gap",
        "offset": 0,
        "slot": "252",
        "type": "t_array(t_uint256)49_storage"
      },
      {
        "astId": 593,
        "contract": "contracts/xchain/agent/STIUserAgentSub.sol:STIUserAgentSub",
        "label": "_owner",
        "offset": 0,
        "slot": "301",
        "type": "t_address"
      },
      {
        "astId": 705,
        "contract": "contracts/xchain/agent/STIUserAgentSub.sol:STIUserAgentSub",
        "label": "__gap",
        "offset": 0,
        "slot": "302",
        "type": "t_array(t_uint256)49_storage"
      },
      {
        "astId": 59240,
        "contract": "contracts/xchain/agent/STIUserAgentSub.sol:STIUserAgentSub",
        "label": "admin",
        "offset": 0,
        "slot": "351",
        "type": "t_address"
      },
      {
        "astId": 59244,
        "contract": "contracts/xchain/agent/STIUserAgentSub.sol:STIUserAgentSub",
        "label": "nonces",
        "offset": 0,
        "slot": "352",
        "type": "t_mapping(t_address,t_uint256)"
      },
      {
        "astId": 59247,
        "contract": "contracts/xchain/agent/STIUserAgentSub.sol:STIUserAgentSub",
        "label": "swap",
        "offset": 0,
        "slot": "353",
        "type": "t_contract(ISwap)55898"
      },
      {
        "astId": 59250,
        "contract": "contracts/xchain/agent/STIUserAgentSub.sol:STIUserAgentSub",
        "label": "USDC",
        "offset": 0,
        "slot": "354",
        "type": "t_contract(IERC20Upgradeable)1707"
      },
      {
        "astId": 59253,
        "contract": "contracts/xchain/agent/STIUserAgentSub.sol:STIUserAgentSub",
        "label": "USDT",
        "offset": 0,
        "slot": "355",
        "type": "t_contract(IERC20Upgradeable)1707"
      },
      {
        "astId": 59257,
        "contract": "contracts/xchain/agent/STIUserAgentSub.sol:STIUserAgentSub",
        "label": "usdcBalances",
        "offset": 0,
        "slot": "356",
        "type": "t_mapping(t_address,t_uint256)"
      },
      {
        "astId": 59261,
        "contract": "contracts/xchain/agent/STIUserAgentSub.sol:STIUserAgentSub",
        "label": "usdtBalances",
        "offset": 0,
        "slot": "357",
        "type": "t_mapping(t_address,t_uint256)"
      },
      {
        "astId": 59264,
        "contract": "contracts/xchain/agent/STIUserAgentSub.sol:STIUserAgentSub",
        "label": "multichainAdapter",
        "offset": 0,
        "slot": "358",
        "type": "t_contract(IXChainAdapter)56205"
      },
      {
        "astId": 59267,
        "contract": "contracts/xchain/agent/STIUserAgentSub.sol:STIUserAgentSub",
        "label": "cbridgeAdapter",
        "offset": 0,
        "slot": "359",
        "type": "t_contract(IXChainAdapter)56205"
      },
      {
        "astId": 59271,
        "contract": "contracts/xchain/agent/STIUserAgentSub.sol:STIUserAgentSub",
        "label": "cbridgeSenders",
        "offset": 0,
        "slot": "360",
        "type": "t_mapping(t_uint256,t_address)"
      },
      {
        "astId": 59275,
        "contract": "contracts/xchain/agent/STIUserAgentSub.sol:STIUserAgentSub",
        "label": "userAgents",
        "offset": 0,
        "slot": "361",
        "type": "t_mapping(t_uint256,t_address)"
      },
      {
        "astId": 59280,
        "contract": "contracts/xchain/agent/STIUserAgentSub.sol:STIUserAgentSub",
        "label": "callAdapterTypes",
        "offset": 0,
        "slot": "362",
        "type": "t_mapping(t_uint256,t_enum(AdapterType)59233)"
      },
      {
        "astId": 59806,
        "contract": "contracts/xchain/agent/STIUserAgentSub.sol:STIUserAgentSub",
        "label": "__gap",
        "offset": 0,
        "slot": "363",
        "type": "t_array(t_uint256)39_storage"
      },
      {
        "astId": 60800,
        "contract": "contracts/xchain/agent/STIUserAgentSub.sol:STIUserAgentSub",
        "label": "chainIdOnLP",
        "offset": 0,
        "slot": "402",
        "type": "t_uint256"
      },
      {
        "astId": 60802,
        "contract": "contracts/xchain/agent/STIUserAgentSub.sol:STIUserAgentSub",
        "label": "isLPChain",
        "offset": 0,
        "slot": "403",
        "type": "t_bool"
      },
      {
        "astId": 60805,
        "contract": "contracts/xchain/agent/STIUserAgentSub.sol:STIUserAgentSub",
        "label": "stiMinter",
        "offset": 1,
        "slot": "403",
        "type": "t_contract(ISTIMinter)44036"
      },
      {
        "astId": 60810,
        "contract": "contracts/xchain/agent/STIUserAgentSub.sol:STIUserAgentSub",
        "label": "stiVaults",
        "offset": 0,
        "slot": "404",
        "type": "t_mapping(t_uint256,t_contract(ISTIVault)44093)"
      },
      {
        "astId": 60812,
        "contract": "contracts/xchain/agent/STIUserAgentSub.sol:STIUserAgentSub",
        "label": "subImpl",
        "offset": 0,
        "slot": "405",
        "type": "t_address"
      }
    ],
    "types": {
      "t_address": {
        "encoding": "inplace",
        "label": "address",
        "numberOfBytes": "20"
      },
      "t_array(t_bytes32)dyn_storage": {
        "base": "t_bytes32",
        "encoding": "dynamic_array",
        "label": "bytes32[]",
        "numberOfBytes": "32"
      },
      "t_array(t_uint256)39_storage": {
        "base": "t_uint256",
        "encoding": "inplace",
        "label": "uint256[39]",
        "numberOfBytes": "1248"
      },
      "t_array(t_uint256)49_storage": {
        "base": "t_uint256",
        "encoding": "inplace",
        "label": "uint256[49]",
        "numberOfBytes": "1568"
      },
      "t_array(t_uint256)50_storage": {
        "base": "t_uint256",
        "encoding": "inplace",
        "label": "uint256[50]",
        "numberOfBytes": "1600"
      },
      "t_bool": {
        "encoding": "inplace",
        "label": "bool",
        "numberOfBytes": "1"
      },
      "t_bytes32": {
        "encoding": "inplace",
        "label": "bytes32",
        "numberOfBytes": "32"
      },
      "t_contract(IERC20Upgradeable)1707": {
        "encoding": "inplace",
        "label": "contract IERC20Upgradeable",
        "numberOfBytes": "20"
      },
      "t_contract(ISTIMinter)44036": {
        "encoding": "inplace",
        "label": "contract ISTIMinter",
        "numberOfBytes": "20"
      },
      "t_contract(ISTIVault)44093": {
        "encoding": "inplace",
        "label": "contract ISTIVault",
        "numberOfBytes": "20"
      },
      "t_contract(ISwap)55898": {
        "encoding": "inplace",
        "label": "contract ISwap",
        "numberOfBytes": "20"
      },
      "t_contract(IXChainAdapter)56205": {
        "encoding": "inplace",
        "label": "contract IXChainAdapter",
        "numberOfBytes": "20"
      },
      "t_enum(AdapterType)59233": {
        "encoding": "inplace",
        "label": "enum BasicUserAgentBase.AdapterType",
        "numberOfBytes": "1"
      },
      "t_mapping(t_address,t_bool)": {
        "encoding": "mapping",
        "key": "t_address",
        "label": "mapping(address => bool)",
        "numberOfBytes": "32",
        "value": "t_bool"
      },
      "t_mapping(t_address,t_uint256)": {
        "encoding": "mapping",
        "key": "t_address",
        "label": "mapping(address => uint256)",
        "numberOfBytes": "32",
        "value": "t_uint256"
      },
      "t_mapping(t_bytes32,t_struct(AddressSet)4359_storage)": {
        "encoding": "mapping",
        "key": "t_bytes32",
        "label": "mapping(bytes32 => struct EnumerableSetUpgradeable.AddressSet)",
        "numberOfBytes": "32",
        "value": "t_struct(AddressSet)4359_storage"
      },
      "t_mapping(t_bytes32,t_struct(RoleData)179_storage)": {
        "encoding": "mapping",
        "key": "t_bytes32",
        "label": "mapping(bytes32 => struct AccessControlUpgradeable.RoleData)",
        "numberOfBytes": "32",
        "value": "t_struct(RoleData)179_storage"
      },
      "t_mapping(t_bytes32,t_uint256)": {
        "encoding": "mapping",
        "key": "t_bytes32",
        "label": "mapping(bytes32 => uint256)",
        "numberOfBytes": "32",
        "value": "t_uint256"
      },
      "t_mapping(t_uint256,t_address)": {
        "encoding": "mapping",
        "key": "t_uint256",
        "label": "mapping(uint256 => address)",
        "numberOfBytes": "32",
        "value": "t_address"
      },
      "t_mapping(t_uint256,t_contract(ISTIVault)44093)": {
        "encoding": "mapping",
        "key": "t_uint256",
        "label": "mapping(uint256 => contract ISTIVault)",
        "numberOfBytes": "32",
        "value": "t_contract(ISTIVault)44093"
      },
      "t_mapping(t_uint256,t_enum(AdapterType)59233)": {
        "encoding": "mapping",
        "key": "t_uint256",
        "label": "mapping(uint256 => enum BasicUserAgentBase.AdapterType)",
        "numberOfBytes": "32",
        "value": "t_enum(AdapterType)59233"
      },
      "t_struct(AddressSet)4359_storage": {
        "encoding": "inplace",
        "label": "struct EnumerableSetUpgradeable.AddressSet",
        "members": [
          {
            "astId": 4358,
            "contract": "contracts/xchain/agent/STIUserAgentSub.sol:STIUserAgentSub",
            "label": "_inner",
            "offset": 0,
            "slot": "0",
            "type": "t_struct(Set)4058_storage"
          }
        ],
        "numberOfBytes": "64"
      },
      "t_struct(RoleData)179_storage": {
        "encoding": "inplace",
        "label": "struct AccessControlUpgradeable.RoleData",
        "members": [
          {
            "astId": 176,
            "contract": "contracts/xchain/agent/STIUserAgentSub.sol:STIUserAgentSub",
            "label": "members",
            "offset": 0,
            "slot": "0",
            "type": "t_mapping(t_address,t_bool)"
          },
          {
            "astId": 178,
            "contract": "contracts/xchain/agent/STIUserAgentSub.sol:STIUserAgentSub",
            "label": "adminRole",
            "offset": 0,
            "slot": "1",
            "type": "t_bytes32"
          }
        ],
        "numberOfBytes": "64"
      },
      "t_struct(Set)4058_storage": {
        "encoding": "inplace",
        "label": "struct EnumerableSetUpgradeable.Set",
        "members": [
          {
            "astId": 4053,
            "contract": "contracts/xchain/agent/STIUserAgentSub.sol:STIUserAgentSub",
            "label": "_values",
            "offset": 0,
            "slot": "0",
            "type": "t_array(t_bytes32)dyn_storage"
          },
          {
            "astId": 4057,
            "contract": "contracts/xchain/agent/STIUserAgentSub.sol:STIUserAgentSub",
            "label": "_indexes",
            "offset": 0,
            "slot": "1",
            "type": "t_mapping(t_bytes32,t_uint256)"
          }
        ],
        "numberOfBytes": "64"
      },
      "t_uint256": {
        "encoding": "inplace",
        "label": "uint256",
        "numberOfBytes": "32"
      },
      "t_uint8": {
        "encoding": "inplace",
        "label": "uint8",
        "numberOfBytes": "1"
      }
    }
  }
}