{
  "address": "0x79cDfB2A215DC74613e574CAe0e962f8B5A72928",
  "abi": [
    {
      "anonymous": false,
      "inputs": [
        {
          "indexed": false,
          "internalType": "uint8",
          "name": "version",
          "type": "uint8"
        }
      ],
      "name": "Initialized",
      "type": "event"
    },
    {
      "anonymous": false,
      "inputs": [
        {
          "indexed": true,
          "internalType": "address",
          "name": "previousOwner",
          "type": "address"
        },
        {
          "indexed": true,
          "internalType": "address",
          "name": "newOwner",
          "type": "address"
        }
      ],
      "name": "OwnershipTransferred",
      "type": "event"
    },
    {
      "anonymous": false,
      "inputs": [
        {
          "indexed": false,
          "internalType": "address",
          "name": "account",
          "type": "address"
        }
      ],
      "name": "Paused",
      "type": "event"
    },
    {
      "anonymous": false,
      "inputs": [
        {
          "indexed": true,
          "internalType": "bytes32",
          "name": "role",
          "type": "bytes32"
        },
        {
          "indexed": true,
          "internalType": "bytes32",
          "name": "previousAdminRole",
          "type": "bytes32"
        },
        {
          "indexed": true,
          "internalType": "bytes32",
          "name": "newAdminRole",
          "type": "bytes32"
        }
      ],
      "name": "RoleAdminChanged",
      "type": "event"
    },
    {
      "anonymous": false,
      "inputs": [
        {
          "indexed": true,
          "internalType": "bytes32",
          "name": "role",
          "type": "bytes32"
        },
        {
          "indexed": true,
          "internalType": "address",
          "name": "account",
          "type": "address"
        },
        {
          "indexed": true,
          "internalType": "address",
          "name": "sender",
          "type": "address"
        }
      ],
      "name": "RoleGranted",
      "type": "event"
    },
    {
      "anonymous": false,
      "inputs": [
        {
          "indexed": true,
          "internalType": "bytes32",
          "name": "role",
          "type": "bytes32"
        },
        {
          "indexed": true,
          "internalType": "address",
          "name": "account",
          "type": "address"
        },
        {
          "indexed": true,
          "internalType": "address",
          "name": "sender",
          "type": "address"
        }
      ],
      "name": "RoleRevoked",
      "type": "event"
    },
    {
      "anonymous": false,
      "inputs": [
        {
          "indexed": true,
          "internalType": "address",
          "name": "from",
          "type": "address"
        },
        {
          "indexed": false,
          "internalType": "address",
          "name": "token",
          "type": "address"
        },
        {
          "indexed": true,
          "internalType": "uint256",
          "name": "amount",
          "type": "uint256"
        },
        {
          "indexed": false,
          "internalType": "uint256",
          "name": "fromChainId",
          "type": "uint256"
        },
        {
          "indexed": true,
          "internalType": "uint256",
          "name": "toChainId",
          "type": "uint256"
        },
        {
          "indexed": false,
          "internalType": "address",
          "name": "to",
          "type": "address"
        },
        {
          "indexed": false,
          "internalType": "enum BasicUserAgentBase.AdapterType",
          "name": "adapterType",
          "type": "uint8"
        },
        {
          "indexed": false,
          "internalType": "uint256",
          "name": "nonce",
          "type": "uint256"
        }
      ],
      "name": "Transfer",
      "type": "event"
    },
    {
      "anonymous": false,
      "inputs": [
        {
          "indexed": false,
          "internalType": "address",
          "name": "account",
          "type": "address"
        }
      ],
      "name": "Unpaused",
      "type": "event"
    },
    {
      "inputs": [],
      "name": "ADAPTER_ROLE",
      "outputs": [
        {
          "internalType": "bytes32",
          "name": "",
          "type": "bytes32"
        }
      ],
      "stateMutability": "view",
      "type": "function"
    },
    {
      "inputs": [],
      "name": "DEFAULT_ADMIN_ROLE",
      "outputs": [
        {
          "internalType": "bytes32",
          "name": "",
          "type": "bytes32"
        }
      ],
      "stateMutability": "view",
      "type": "function"
    },
    {
      "inputs": [],
      "name": "USDC",
      "outputs": [
        {
          "internalType": "contract IERC20Upgradeable",
          "name": "",
          "type": "address"
        }
      ],
      "stateMutability": "view",
      "type": "function"
    },
    {
      "inputs": [],
      "name": "USDT",
      "outputs": [
        {
          "internalType": "contract IERC20Upgradeable",
          "name": "",
          "type": "address"
        }
      ],
      "stateMutability": "view",
      "type": "function"
    },
    {
      "inputs": [],
      "name": "admin",
      "outputs": [
        {
          "internalType": "address",
          "name": "",
          "type": "address"
        }
      ],
      "stateMutability": "view",
      "type": "function"
    },
    {
      "inputs": [
        {
          "internalType": "uint256",
          "name": "_pool",
          "type": "uint256"
        },
        {
          "internalType": "uint256",
          "name": "_share",
          "type": "uint256"
        },
        {
          "internalType": "bytes",
          "name": "_signature",
          "type": "bytes"
        }
      ],
      "name": "burn",
      "outputs": [
        {
          "internalType": "uint256",
          "name": "_feeAmt",
          "type": "uint256"
        }
      ],
      "stateMutability": "payable",
      "type": "function"
    },
    {
      "inputs": [
        {
          "internalType": "address",
          "name": "_account",
          "type": "address"
        },
        {
          "internalType": "uint256",
          "name": "_pool",
          "type": "uint256"
        },
        {
          "internalType": "uint256",
          "name": "_share",
          "type": "uint256"
        }
      ],
      "name": "burnByAdmin",
      "outputs": [],
      "stateMutability": "nonpayable",
      "type": "function"
    },
    {
      "inputs": [
        {
          "internalType": "uint256",
          "name": "",
          "type": "uint256"
        }
      ],
      "name": "callAdapterTypes",
      "outputs": [
        {
          "internalType": "enum BasicUserAgentBase.AdapterType",
          "name": "",
          "type": "uint8"
        }
      ],
      "stateMutability": "view",
      "type": "function"
    },
    {
      "inputs": [],
      "name": "cbridgeAdapter",
      "outputs": [
        {
          "internalType": "contract IXChainAdapter",
          "name": "",
          "type": "address"
        }
      ],
      "stateMutability": "view",
      "type": "function"
    },
    {
      "inputs": [
        {
          "internalType": "uint256",
          "name": "",
          "type": "uint256"
        }
      ],
      "name": "cbridgeSenders",
      "outputs": [
        {
          "internalType": "address",
          "name": "",
          "type": "address"
        }
      ],
      "stateMutability": "view",
      "type": "function"
    },
    {
      "inputs": [],
      "name": "chainIdOnLP",
      "outputs": [
        {
          "internalType": "uint256",
          "name": "",
          "type": "uint256"
        }
      ],
      "stateMutability": "view",
      "type": "function"
    },
    {
      "inputs": [
        {
          "internalType": "uint256[]",
          "name": "_chainIds",
          "type": "uint256[]"
        },
        {
          "internalType": "bytes",
          "name": "_signature",
          "type": "bytes"
        }
      ],
      "name": "claim",
      "outputs": [
        {
          "internalType": "uint256",
          "name": "_feeAmt",
          "type": "uint256"
        }
      ],
      "stateMutability": "payable",
      "type": "function"
    },
    {
      "inputs": [
        {
          "internalType": "address",
          "name": "_account",
          "type": "address"
        }
      ],
      "name": "claimByAgent",
      "outputs": [],
      "stateMutability": "nonpayable",
      "type": "function"
    },
    {
      "inputs": [
        {
          "internalType": "uint256[]",
          "name": "_toChainIds",
          "type": "uint256[]"
        },
        {
          "internalType": "address[]",
          "name": "_tokens",
          "type": "address[]"
        },
        {
          "internalType": "uint256[]",
          "name": "_USDTAmts",
          "type": "uint256[]"
        },
        {
          "internalType": "uint256",
          "name": "_minterNonce",
          "type": "uint256"
        },
        {
          "internalType": "bytes",
          "name": "_signature",
          "type": "bytes"
        }
      ],
      "name": "deposit",
      "outputs": [
        {
          "internalType": "uint256",
          "name": "_feeAmt",
          "type": "uint256"
        }
      ],
      "stateMutability": "payable",
      "type": "function"
    },
    {
      "inputs": [
        {
          "internalType": "address",
          "name": "_account",
          "type": "address"
        },
        {
          "internalType": "address[]",
          "name": "_tokens",
          "type": "address[]"
        },
        {
          "internalType": "uint256[]",
          "name": "_USDTAmts",
          "type": "uint256[]"
        },
        {
          "internalType": "uint256",
          "name": "_minterNonce",
          "type": "uint256"
        }
      ],
      "name": "depositByAgent",
      "outputs": [],
      "stateMutability": "nonpayable",
      "type": "function"
    },
    {
      "inputs": [
        {
          "internalType": "uint256",
          "name": "_gatheredAmount",
          "type": "uint256"
        },
        {
          "internalType": "bytes",
          "name": "_signature",
          "type": "bytes"
        }
      ],
      "name": "exitWithdrawal",
      "outputs": [
        {
          "internalType": "uint256",
          "name": "_feeAmt",
          "type": "uint256"
        }
      ],
      "stateMutability": "payable",
      "type": "function"
    },
    {
      "inputs": [
        {
          "internalType": "address",
          "name": "_account",
          "type": "address"
        }
      ],
      "name": "exitWithdrawalByAdmin",
      "outputs": [],
      "stateMutability": "nonpayable",
      "type": "function"
    },
    {
      "inputs": [
        {
          "internalType": "uint256[]",
          "name": "_fromChainIds",
          "type": "uint256[]"
        },
        {
          "internalType": "enum BasicUserAgentBase.AdapterType[]",
          "name": "_adapterTypes",
          "type": "uint8[]"
        },
        {
          "internalType": "bytes",
          "name": "_signature",
          "type": "bytes"
        }
      ],
      "name": "gather",
      "outputs": [
        {
          "internalType": "uint256",
          "name": "_feeAmt",
          "type": "uint256"
        }
      ],
      "stateMutability": "payable",
      "type": "function"
    },
    {
      "inputs": [
        {
          "internalType": "address",
          "name": "_account",
          "type": "address"
        },
        {
          "internalType": "uint256",
          "name": "_toChainId",
          "type": "uint256"
        },
        {
          "internalType": "enum BasicUserAgentBase.AdapterType",
          "name": "_adapterType",
          "type": "uint8"
        }
      ],
      "name": "gatherByAdmin",
      "outputs": [],
      "stateMutability": "nonpayable",
      "type": "function"
    },
    {
      "inputs": [
        {
          "internalType": "bytes",
          "name": "message",
          "type": "bytes"
        }
      ],
      "name": "getMessageHashForSafe",
      "outputs": [
        {
          "internalType": "bytes32",
          "name": "",
          "type": "bytes32"
        }
      ],
      "stateMutability": "view",
      "type": "function"
    },
    {
      "inputs": [
        {
          "internalType": "bytes32",
          "name": "role",
          "type": "bytes32"
        }
      ],
      "name": "getRoleAdmin",
      "outputs": [
        {
          "internalType": "bytes32",
          "name": "",
          "type": "bytes32"
        }
      ],
      "stateMutability": "view",
      "type": "function"
    },
    {
      "inputs": [
        {
          "internalType": "bytes32",
          "name": "role",
          "type": "bytes32"
        },
        {
          "internalType": "uint256",
          "name": "index",
          "type": "uint256"
        }
      ],
      "name": "getRoleMember",
      "outputs": [
        {
          "internalType": "address",
          "name": "",
          "type": "address"
        }
      ],
      "stateMutability": "view",
      "type": "function"
    },
    {
      "inputs": [
        {
          "internalType": "bytes32",
          "name": "role",
          "type": "bytes32"
        }
      ],
      "name": "getRoleMemberCount",
      "outputs": [
        {
          "internalType": "uint256",
          "name": "",
          "type": "uint256"
        }
      ],
      "stateMutability": "view",
      "type": "function"
    },
    {
      "inputs": [
        {
          "internalType": "bytes32",
          "name": "role",
          "type": "bytes32"
        },
        {
          "internalType": "address",
          "name": "account",
          "type": "address"
        }
      ],
      "name": "grantRole",
      "outputs": [],
      "stateMutability": "nonpayable",
      "type": "function"
    },
    {
      "inputs": [
        {
          "internalType": "bytes32",
          "name": "role",
          "type": "bytes32"
        },
        {
          "internalType": "address",
          "name": "account",
          "type": "address"
        }
      ],
      "name": "hasRole",
      "outputs": [
        {
          "internalType": "bool",
          "name": "",
          "type": "bool"
        }
      ],
      "stateMutability": "view",
      "type": "function"
    },
    {
      "inputs": [
        {
          "internalType": "uint256",
          "name": "_pool",
          "type": "uint256"
        },
        {
          "internalType": "uint256",
          "name": "_USDT6Amt",
          "type": "uint256"
        },
        {
          "internalType": "bytes",
          "name": "_signature",
          "type": "bytes"
        }
      ],
      "name": "initDeposit",
      "outputs": [
        {
          "internalType": "uint256",
          "name": "_feeAmt",
          "type": "uint256"
        }
      ],
      "stateMutability": "payable",
      "type": "function"
    },
    {
      "inputs": [
        {
          "internalType": "address",
          "name": "_account",
          "type": "address"
        },
        {
          "internalType": "uint256",
          "name": "_pool",
          "type": "uint256"
        },
        {
          "internalType": "uint256",
          "name": "_USDT6Amt",
          "type": "uint256"
        }
      ],
      "name": "initDepositByAdmin",
      "outputs": [],
      "stateMutability": "nonpayable",
      "type": "function"
    },
    {
      "inputs": [
        {
          "internalType": "address",
          "name": "_admin",
          "type": "address"
        },
        {
          "internalType": "contract ISwap",
          "name": "_swap",
          "type": "address"
        },
        {
          "internalType": "contract IXChainAdapter",
          "name": "_multichainAdapter",
          "type": "address"
        },
        {
          "internalType": "contract IXChainAdapter",
          "name": "_cbridgeAdapter",
          "type": "address"
        }
      ],
      "name": "initialize",
      "outputs": [],
      "stateMutability": "nonpayable",
      "type": "function"
    },
    {
      "inputs": [
        {
          "internalType": "address",
          "name": "_subImpl",
          "type": "address"
        },
        {
          "internalType": "address",
          "name": "_admin",
          "type": "address"
        },
        {
          "internalType": "contract ISwap",
          "name": "_swap",
          "type": "address"
        },
        {
          "internalType": "contract IXChainAdapter",
          "name": "_multichainAdapter",
          "type": "address"
        },
        {
          "internalType": "contract IXChainAdapter",
          "name": "_cbridgeAdapter",
          "type": "address"
        },
        {
          "internalType": "contract ISTIMinter",
          "name": "_stiMinter",
          "type": "address"
        },
        {
          "internalType": "contract ISTIVault",
          "name": "_stiVault",
          "type": "address"
        }
      ],
      "name": "initialize1",
      "outputs": [],
      "stateMutability": "nonpayable",
      "type": "function"
    },
    {
      "inputs": [],
      "name": "isLPChain",
      "outputs": [
        {
          "internalType": "bool",
          "name": "",
          "type": "bool"
        }
      ],
      "stateMutability": "view",
      "type": "function"
    },
    {
      "inputs": [
        {
          "internalType": "address",
          "name": "forwarder",
          "type": "address"
        }
      ],
      "name": "isTrustedForwarder",
      "outputs": [
        {
          "internalType": "bool",
          "name": "",
          "type": "bool"
        }
      ],
      "stateMutability": "view",
      "type": "function"
    },
    {
      "inputs": [
        {
          "internalType": "address",
          "name": "_account",
          "type": "address"
        },
        {
          "internalType": "bytes",
          "name": "_data",
          "type": "bytes"
        },
        {
          "internalType": "bytes",
          "name": "_signature",
          "type": "bytes"
        }
      ],
      "name": "isValidSignature",
      "outputs": [
        {
          "internalType": "bool",
          "name": "",
          "type": "bool"
        }
      ],
      "stateMutability": "view",
      "type": "function"
    },
    {
      "inputs": [
        {
          "internalType": "uint256",
          "name": "_USDT6Amt",
          "type": "uint256"
        },
        {
          "internalType": "bytes",
          "name": "_signature",
          "type": "bytes"
        }
      ],
      "name": "mint",
      "outputs": [
        {
          "internalType": "uint256",
          "name": "_feeAmt",
          "type": "uint256"
        }
      ],
      "stateMutability": "payable",
      "type": "function"
    },
    {
      "inputs": [
        {
          "internalType": "address",
          "name": "_account",
          "type": "address"
        },
        {
          "internalType": "uint256",
          "name": "_USDT6Amt",
          "type": "uint256"
        }
      ],
      "name": "mintByAdmin",
      "outputs": [],
      "stateMutability": "nonpayable",
      "type": "function"
    },
    {
      "inputs": [],
      "name": "multichainAdapter",
      "outputs": [
        {
          "internalType": "contract IXChainAdapter",
          "name": "",
          "type": "address"
        }
      ],
      "stateMutability": "view",
      "type": "function"
    },
    {
      "inputs": [
        {
          "internalType": "address",
          "name": "",
          "type": "address"
        }
      ],
      "name": "nonces",
      "outputs": [
        {
          "internalType": "uint256",
          "name": "",
          "type": "uint256"
        }
      ],
      "stateMutability": "view",
      "type": "function"
    },
    {
      "inputs": [
        {
          "internalType": "uint256",
          "name": "_cbridgeNonce",
          "type": "uint256"
        },
        {
          "internalType": "address",
          "name": "_token",
          "type": "address"
        },
        {
          "internalType": "uint256",
          "name": "amount",
          "type": "uint256"
        },
        {
          "internalType": "uint256",
          "name": "",
          "type": "uint256"
        },
        {
          "internalType": "address",
          "name": "",
          "type": "address"
        }
      ],
      "name": "onRefunded",
      "outputs": [],
      "stateMutability": "nonpayable",
      "type": "function"
    },
    {
      "inputs": [],
      "name": "owner",
      "outputs": [
        {
          "internalType": "address",
          "name": "",
          "type": "address"
        }
      ],
      "stateMutability": "view",
      "type": "function"
    },
    {
      "inputs": [],
      "name": "pause",
      "outputs": [],
      "stateMutability": "nonpayable",
      "type": "function"
    },
    {
      "inputs": [],
      "name": "paused",
      "outputs": [
        {
          "internalType": "bool",
          "name": "",
          "type": "bool"
        }
      ],
      "stateMutability": "view",
      "type": "function"
    },
    {
      "inputs": [],
      "name": "renounceOwnership",
      "outputs": [],
      "stateMutability": "nonpayable",
      "type": "function"
    },
    {
      "inputs": [
        {
          "internalType": "bytes32",
          "name": "role",
          "type": "bytes32"
        },
        {
          "internalType": "address",
          "name": "account",
          "type": "address"
        }
      ],
      "name": "renounceRole",
      "outputs": [],
      "stateMutability": "nonpayable",
      "type": "function"
    },
    {
      "inputs": [
        {
          "internalType": "bytes32",
          "name": "role",
          "type": "bytes32"
        },
        {
          "internalType": "address",
          "name": "account",
          "type": "address"
        }
      ],
      "name": "revokeRole",
      "outputs": [],
      "stateMutability": "nonpayable",
      "type": "function"
    },
    {
      "inputs": [
        {
          "internalType": "address",
          "name": "_admin",
          "type": "address"
        }
      ],
      "name": "setAdmin",
      "outputs": [],
      "stateMutability": "nonpayable",
      "type": "function"
    },
    {
      "inputs": [
        {
          "internalType": "address",
          "name": "_biconomy",
          "type": "address"
        }
      ],
      "name": "setBiconomy",
      "outputs": [],
      "stateMutability": "nonpayable",
      "type": "function"
    },
    {
      "inputs": [
        {
          "internalType": "contract IXChainAdapter",
          "name": "_cbridgeAdapter",
          "type": "address"
        }
      ],
      "name": "setCBridgeAdapter",
      "outputs": [],
      "stateMutability": "nonpayable",
      "type": "function"
    },
    {
      "inputs": [
        {
          "internalType": "uint256[]",
          "name": "_chainIds",
          "type": "uint256[]"
        },
        {
          "internalType": "enum BasicUserAgentBase.AdapterType[]",
          "name": "_adapterTypes",
          "type": "uint8[]"
        }
      ],
      "name": "setCallAdapterTypes",
      "outputs": [],
      "stateMutability": "nonpayable",
      "type": "function"
    },
    {
      "inputs": [
        {
          "internalType": "contract IXChainAdapter",
          "name": "_multichainAdapter",
          "type": "address"
        }
      ],
      "name": "setMultichainAdapter",
      "outputs": [],
      "stateMutability": "nonpayable",
      "type": "function"
    },
    {
      "inputs": [
        {
          "internalType": "contract ISTIMinter",
          "name": "_stiMinter",
          "type": "address"
        }
      ],
      "name": "setSTIMinter",
      "outputs": [],
      "stateMutability": "nonpayable",
      "type": "function"
    },
    {
      "inputs": [
        {
          "internalType": "contract ISTIVault",
          "name": "_stiVault",
          "type": "address"
        }
      ],
      "name": "setSTIVault",
      "outputs": [],
      "stateMutability": "nonpayable",
      "type": "function"
    },
    {
      "inputs": [
        {
          "internalType": "address",
          "name": "_subImpl",
          "type": "address"
        }
      ],
      "name": "setSubImpl",
      "outputs": [],
      "stateMutability": "nonpayable",
      "type": "function"
    },
    {
      "inputs": [
        {
          "internalType": "uint256[]",
          "name": "_chainIds",
          "type": "uint256[]"
        },
        {
          "internalType": "address[]",
          "name": "_userAgents",
          "type": "address[]"
        }
      ],
      "name": "setUserAgents",
      "outputs": [],
      "stateMutability": "nonpayable",
      "type": "function"
    },
    {
      "inputs": [],
      "name": "stiMinter",
      "outputs": [
        {
          "internalType": "contract ISTIMinter",
          "name": "",
          "type": "address"
        }
      ],
      "stateMutability": "view",
      "type": "function"
    },
    {
      "inputs": [],
      "name": "stiVault",
      "outputs": [
        {
          "internalType": "contract ISTIVault",
          "name": "",
          "type": "address"
        }
      ],
      "stateMutability": "view",
      "type": "function"
    },
    {
      "inputs": [],
      "name": "subImpl",
      "outputs": [
        {
          "internalType": "address",
          "name": "",
          "type": "address"
        }
      ],
      "stateMutability": "view",
      "type": "function"
    },
    {
      "inputs": [
        {
          "internalType": "bytes4",
          "name": "interfaceId",
          "type": "bytes4"
        }
      ],
      "name": "supportsInterface",
      "outputs": [
        {
          "internalType": "bool",
          "name": "",
          "type": "bool"
        }
      ],
      "stateMutability": "view",
      "type": "function"
    },
    {
      "inputs": [
        {
          "internalType": "uint256",
          "name": "_gatheredAmount",
          "type": "uint256"
        },
        {
          "internalType": "bytes",
          "name": "_signature",
          "type": "bytes"
        }
      ],
      "name": "takeOut",
      "outputs": [],
      "stateMutability": "nonpayable",
      "type": "function"
    },
    {
      "inputs": [
        {
          "internalType": "uint256[]",
          "name": "_amounts",
          "type": "uint256[]"
        },
        {
          "internalType": "uint256[]",
          "name": "_toChainIds",
          "type": "uint256[]"
        },
        {
          "internalType": "enum BasicUserAgentBase.AdapterType[]",
          "name": "_adapterTypes",
          "type": "uint8[]"
        },
        {
          "internalType": "bytes",
          "name": "_signature",
          "type": "bytes"
        }
      ],
      "name": "transfer",
      "outputs": [
        {
          "internalType": "uint256",
          "name": "_feeAmt",
          "type": "uint256"
        }
      ],
      "stateMutability": "payable",
      "type": "function"
    },
    {
      "inputs": [
        {
          "internalType": "address",
          "name": "newOwner",
          "type": "address"
        }
      ],
      "name": "transferOwnership",
      "outputs": [],
      "stateMutability": "nonpayable",
      "type": "function"
    },
    {
      "inputs": [],
      "name": "trustedForwarder",
      "outputs": [
        {
          "internalType": "address",
          "name": "",
          "type": "address"
        }
      ],
      "stateMutability": "view",
      "type": "function"
    },
    {
      "inputs": [],
      "name": "unpause",
      "outputs": [],
      "stateMutability": "nonpayable",
      "type": "function"
    },
    {
      "inputs": [
        {
          "internalType": "address",
          "name": "",
          "type": "address"
        }
      ],
      "name": "usdcBalances",
      "outputs": [
        {
          "internalType": "uint256",
          "name": "",
          "type": "uint256"
        }
      ],
      "stateMutability": "view",
      "type": "function"
    },
    {
      "inputs": [
        {
          "internalType": "address",
          "name": "",
          "type": "address"
        }
      ],
      "name": "usdtBalances",
      "outputs": [
        {
          "internalType": "uint256",
          "name": "",
          "type": "uint256"
        }
      ],
      "stateMutability": "view",
      "type": "function"
    },
    {
      "inputs": [
        {
          "internalType": "uint256",
          "name": "",
          "type": "uint256"
        }
      ],
      "name": "userAgents",
      "outputs": [
        {
          "internalType": "address",
          "name": "",
          "type": "address"
        }
      ],
      "stateMutability": "view",
      "type": "function"
    },
    {
      "inputs": [],
      "name": "versionRecipient",
      "outputs": [
        {
          "internalType": "string",
          "name": "",
          "type": "string"
        }
      ],
      "stateMutability": "pure",
      "type": "function"
    },
    {
      "inputs": [
        {
          "internalType": "uint256[]",
          "name": "_chainIds",
          "type": "uint256[]"
        },
        {
          "internalType": "uint256",
          "name": "_sharePerc",
          "type": "uint256"
        },
        {
          "internalType": "uint256",
          "name": "_minterNonce",
          "type": "uint256"
        },
        {
          "internalType": "bytes",
          "name": "_signature",
          "type": "bytes"
        }
      ],
      "name": "withdraw",
      "outputs": [
        {
          "internalType": "uint256",
          "name": "_feeAmt",
          "type": "uint256"
        }
      ],
      "stateMutability": "payable",
      "type": "function"
    },
    {
      "inputs": [
        {
          "internalType": "address",
          "name": "_account",
          "type": "address"
        },
        {
          "internalType": "uint256",
          "name": "_sharePerc",
          "type": "uint256"
        },
        {
          "internalType": "uint256",
          "name": "_minterNonce",
          "type": "uint256"
        }
      ],
      "name": "withdrawPercByAgent",
      "outputs": [],
      "stateMutability": "nonpayable",
      "type": "function"
    },
    {
      "stateMutability": "payable",
      "type": "receive"
    }
  ],
  "transactionHash": "0xfd1cdb3db271f2a27e76f9a8b4f5cc855d560b7158f169d3961016ff77fcf508",
  "args": [],
  "numDeployments": 2,
  "solcInputHash": "9ec5fef45cff5c628e27c09dec5539e7",
  "bytecode": "0x608060405234801561001057600080fd5b50614bbb806100206000396000f3fe6080604052600436106103e85760003560e01c80637ecebe0011610208578063b8a6752d11610118578063ddd87934116100ab578063f2fde38b1161007a578063f2fde38b14610baa578063f77de4861461053c578063f7bb364c14610bca578063f851a44014610be5578063f8c8765e14610c0657600080fd5b8063ddd8793414610b37578063e629f7b314610b58578063e9e81a6a14610b58578063f2ea161814610b7357600080fd5b8063d1dbbc60116100e7578063d1dbbc6014610af6578063d48a3d3d14610b09578063d547741f14610b17578063db7fd4081461092b57600080fd5b8063b8a6752d14610a82578063c54e44eb14610a95578063c7205bce14610ab6578063ca15c87314610ad657600080fd5b806389a302711161019b57806391d148541161016a57806391d14854146109df5780639e17747a146109ff578063a217fddf14610a1f578063a99c68c514610a34578063af3da2f414610a6257600080fd5b806389a30271146109715780638da5cb5b146109925780639010d07c146109b1578063918f1a5c146109d157600080fd5b80638456cb59116101d75780638456cb5914610916578063847627391461092b57806386355d961461093e578063897fd4691461095157600080fd5b80637ecebe001461088f5780638033a805146108bd57806380a5a371146108dd5780638365d5ee146108f057600080fd5b806343a463c7116103035780635f2b373711610296578063704013591161026557806370401359146107fa578063704b6c021461081a578063715018a61461083a578063754fc0c81461084f5780637da0a8771461086f57600080fd5b80635f2b3737146107755780636687977f146107955780636e5677ce146107a85780636ebf33ce146107c357600080fd5b806357cdd7f9116102d257806357cdd7f9146106ee578063582489cb1461070f578063582712b11461073d5780635c975abb1461075d57600080fd5b806343a463c71461064f578063472c38ff1461066f578063486ff0cd1461068f578063572b6c05146106bf57600080fd5b8063264489ce1161037b57806336568abe1161034a57806336568abe146105bc57806339dacedb146105dc5780633f4ba83a1461061a5780634107c4f61461062f57600080fd5b8063264489ce1461053c57806328054fb71461055c5780632f2ff15d1461057c57806331e8df891461059c57600080fd5b80630d8b76a8116103b75780630d8b76a8146104b357806319463093146104d55780631a5787d8146104f5578063248a9ca31461050c57600080fd5b8063013dee70146103f457806301ffc9a71461043257806302a882e6146104625780630c3a18211461049257600080fd5b366103ef57005b600080fd5b34801561040057600080fd5b5061019554610415906001600160a01b031681565b6040516001600160a01b0390911681526020015b60405180910390f35b34801561043e57600080fd5b5061045261044d366004613cfc565b610c26565b6040519015158152602001610429565b34801561046e57600080fd5b50610484600080516020614b6683398151915281565b604051908152602001610429565b34801561049e57600080fd5b5061016654610415906001600160a01b031681565b3480156104bf57600080fd5b506104d36104ce366004613d3b565b610c51565b005b3480156104e157600080fd5b506104846104f0366004613e0d565b610cc6565b34801561050157600080fd5b506104846101925481565b34801561051857600080fd5b50610484610527366004613e41565b60009081526097602052604090206001015490565b34801561054857600080fd5b506104d3610557366004613d3b565b610d12565b34801561056857600080fd5b506104d3610577366004613e69565b610d1e565b34801561058857600080fd5b506104d3610597366004613ea7565b610d2c565b3480156105a857600080fd5b506104d36105b7366004613d3b565b610d56565b3480156105c857600080fd5b506104d36105d7366004613ea7565b610dda565b3480156105e857600080fd5b5061060d6105f7366004613e41565b61016a6020526000908152604090205460ff1681565b6040516104299190613f0f565b34801561062657600080fd5b506104d3610e64565b34801561063b57600080fd5b506104d361064a366004613f1d565b6111b1565b34801561065b57600080fd5b506104d361066a366004613fb3565b61137f565b34801561067b57600080fd5b506104d361068a366004613fe8565b611407565b34801561069b57600080fd5b5060408051808201825260018152603160f81b60208201529051610429919061406a565b3480156106cb57600080fd5b506104526106da366004613d3b565b6000546001600160a01b0391821691161490565b3480156106fa57600080fd5b5061016754610415906001600160a01b031681565b34801561071b57600080fd5b5061048461072a366004613d3b565b6101656020526000908152604090205481565b34801561074957600080fd5b506104d3610758366004614184565b6114fe565b34801561076957600080fd5b5060fb5460ff16610452565b34801561078157600080fd5b506104d3610790366004614263565b61150d565b6104846107a336600461430e565b611625565b3480156107b457600080fd5b506104d361057736600461438b565b3480156107cf57600080fd5b506104156107de366004613e41565b610169602052600090815260409020546001600160a01b031681565b34801561080657600080fd5b506104d3610815366004613d3b565b611639565b34801561082657600080fd5b506104d3610835366004613d3b565b61186a565b34801561084657600080fd5b506104d36118d7565b34801561085b57600080fd5b506104d361086a366004613d3b565b61192b565b34801561087b57600080fd5b50600054610415906001600160a01b031681565b34801561089b57600080fd5b506104846108aa366004613d3b565b6101606020526000908152604090205481565b3480156108c957600080fd5b506104d36108d8366004613d3b565b61199e565b6104846108eb3660046143d6565b611a53565b3480156108fc57600080fd5b50610193546104159061010090046001600160a01b031681565b34801561092257600080fd5b506104d3611a66565b61048461093936600461438b565b611b5b565b61048461094c366004614428565b611b6d565b34801561095d57600080fd5b506104d361096c3660046144e4565b611b82565b34801561097d57600080fd5b5061016254610415906001600160a01b031681565b34801561099e57600080fd5b5061012d546001600160a01b0316610415565b3480156109bd57600080fd5b506104156109cc36600461453d565b611c97565b6104846108eb36600461455f565b3480156109eb57600080fd5b506104526109fa366004613ea7565b611cb6565b348015610a0b57600080fd5b506104d3610a1a366004613d3b565b611ce1565b348015610a2b57600080fd5b50610484600081565b348015610a4057600080fd5b50610484610a4f366004613d3b565b6101646020526000908152604090205481565b348015610a6e57600080fd5b506104d3610a7d3660046145dd565b611d65565b610484610a903660046143d6565b611d6d565b348015610aa157600080fd5b5061016354610415906001600160a01b031681565b348015610ac257600080fd5b50610452610ad1366004614609565b611ed7565b348015610ae257600080fd5b50610484610af1366004613e41565b612056565b610484610b04366004614652565b61206d565b6104846109393660046146e7565b348015610b2357600080fd5b506104d3610b32366004613ea7565b612125565b348015610b4357600080fd5b5061019454610415906001600160a01b031681565b348015610b6457600080fd5b506104d3610577366004613fb3565b348015610b7f57600080fd5b50610415610b8e366004613e41565b610168602052600090815260409020546001600160a01b031681565b348015610bb657600080fd5b506104d3610bc5366004613d3b565b61214a565b348015610bd657600080fd5b50610193546104529060ff1681565b348015610bf157600080fd5b5061015f54610415906001600160a01b031681565b348015610c1257600080fd5b506104d3610c21366004614742565b6121a0565b60006001600160e01b03198216635a05180f60e01b1480610c4b5750610c4b826122c3565b92915050565b610c596122f8565b6001600160a01b0316610c7561012d546001600160a01b031690565b6001600160a01b031614610ca45760405162461bcd60e51b8152600401610c9b9061479e565b60405180910390fd5b600080546001600160a01b0319166001600160a01b0392909216919091179055565b805160209182012060015460408051601960f81b81860152600160f81b602182015260228101929092526042808301939093528051808303909301835260629091019052805191012090565b610d1a612307565b5050565b610d26612307565b50505050565b600082815260976020526040902060010154610d4781612388565b610d518383612399565b505050565b610d5e6122f8565b6001600160a01b0316610d7a61012d546001600160a01b031690565b6001600160a01b031614610da05760405162461bcd60e51b8152600401610c9b9061479e565b61016754610db7906001600160a01b0316826123bb565b61016780546001600160a01b0319166001600160a01b0392909216919091179055565b610de26122f8565b6001600160a01b0316816001600160a01b031614610e5a5760405162461bcd60e51b815260206004820152602f60248201527f416363657373436f6e74726f6c3a2063616e206f6e6c792072656e6f756e636560448201526e103937b632b9903337b91039b2b63360891b6064820152608401610c9b565b610d1a828261248d565b610e6c6122f8565b6001600160a01b0316610e8861012d546001600160a01b031690565b6001600160a01b031614610eae5760405162461bcd60e51b8152600401610c9b9061479e565b60fb5460ff16610ef75760405162461bcd60e51b815260206004820152601460248201527314185d5cd8589b194e881b9bdd081c185d5cd95960621b6044820152606401610c9b565b610eff6124af565b6101635461016654604051636eb1769f60e11b81523060048201526001600160a01b03918216602482015291169063dd62ed3e9060440160206040518083038186803b158015610f4e57600080fd5b505afa158015610f62573d6000803e3d6000fd5b505050506040513d601f19601f82011682018060405250810190610f8691906147d3565b610fab576101665461016354610fab916001600160a01b039182169116600019612548565b6101625461016654604051636eb1769f60e11b81523060048201526001600160a01b03918216602482015291169063dd62ed3e9060440160206040518083038186803b158015610ffa57600080fd5b505afa15801561100e573d6000803e3d6000fd5b505050506040513d601f19601f8201168201806040525081019061103291906147d3565b611057576101665461016254611057916001600160a01b039182169116600019612548565b6101635461016754604051636eb1769f60e11b81523060048201526001600160a01b03918216602482015291169063dd62ed3e9060440160206040518083038186803b1580156110a657600080fd5b505afa1580156110ba573d6000803e3d6000fd5b505050506040513d601f19601f820116820180604052508101906110de91906147d3565b611103576101675461016354611103916001600160a01b039182169116600019612548565b6101625461016754604051636eb1769f60e11b81523060048201526001600160a01b03918216602482015291169063dd62ed3e9060440160206040518083038186803b15801561115257600080fd5b505afa158015611166573d6000803e3d6000fd5b505050506040513d601f19601f8201168201806040525081019061118a91906147d3565b6111af5761016754610162546111af916001600160a01b039182169116600019612548565b565b60006111bd600161269f565b905080156111d9576000805460ff60a81b1916600160a81b1790555b6111e161273f565b6111fe60006111f961012d546001600160a01b031690565b612778565b611206612782565b611210600161280a565b61016280546001600160a01b0319166001600160a01b039290921691909117905561123b600061280a565b61016380546001600160a01b03199081166001600160a01b039384161790915561015f805482168a8416179055610161805490911691881691909117905561128285611ce1565b61128b84610d56565b61019580546001600160a01b0319166001600160a01b038a1617905560046101925546610192546101938054634e45415360005261016a6020527f6c585d855e16497087f6ed093c621ebf17e5140687c03b009023a4cdb199a0f4805460ff191660011790556001600160a01b03871661010002610100600160a81b031994909314939093166001600160a81b03199093169290921717905561132d82611639565b8015611375576000805460ff60a81b19169055604051600181527f7f26b83ff96e1f2b6a682f133852f6798a09c465da95921460cefb38474024989060200160405180910390a15b5050505050505050565b600080516020614b6683398151915261139781612388565b610193546040516343a463c760e01b81526001600160a01b0386811660048301526024820186905260448201859052610100909204909116906343a463c790606401600060405180830381600087803b1580156113f357600080fd5b505af1158015611375573d6000803e3d6000fd5b610167546001600160a01b031633146114515760405162461bcd60e51b815260206004820152600c60248201526b4f6e6c79206342726964676560a01b6044820152606401610c9b565b60008581526101686020526040902054610163546001600160a01b0391821691868116911614156114b0576001600160a01b03811660009081526101656020526040812080548692906114a5908490614802565b909155506114f69050565b610162546001600160a01b03868116911614156114f6576001600160a01b03811660009081526101646020526040812080548692906114f0908490614802565b90915550505b505050505050565b611506612307565b5050505050565b6115156122f8565b6001600160a01b031661153161012d546001600160a01b031690565b6001600160a01b0316146115575760405162461bcd60e51b8152600401610c9b9061479e565b815160005b81811015610d265760008482815181106115785761157861481a565b6020026020010151905080600014156115c55760405162461bcd60e51b815260206004820152600f60248201526e125b9d985b1a590818da185a5b9251608a1b6044820152606401610c9b565b8382815181106115d7576115d761481a565b602090810291909101810151600083815261016a9092526040909120805460ff19166001838181111561160c5761160c613ed7565b021790555050808061161d90614830565b91505061155c565b600061162f612307565b5095945050505050565b6116416122f8565b6001600160a01b031661165d61012d546001600160a01b031690565b6001600160a01b0316146116835760405162461bcd60e51b8152600401610c9b9061479e565b6001600160a01b0381166116c95760405162461bcd60e51b815260206004820152600d60248201526c125b9d985b1a59081d985d5b1d609a1b6044820152606401610c9b565b610194546001600160a01b0316801561170e57610163546116f5906001600160a01b0316826000612548565b6101625461170e906001600160a01b0316826000612548565b61019480546001600160a01b0319166001600160a01b0384811691821790925561016354604051636eb1769f60e11b815230600482015260248101929092529091169063dd62ed3e9060440160206040518083038186803b15801561177257600080fd5b505afa158015611786573d6000803e3d6000fd5b505050506040513d601f19601f820116820180604052508101906117aa91906147d3565b6117c857610163546117c8906001600160a01b031683600019612548565b61016254604051636eb1769f60e11b81523060048201526001600160a01b0384811660248301529091169063dd62ed3e9060440160206040518083038186803b15801561181457600080fd5b505afa158015611828573d6000803e3d6000fd5b505050506040513d601f19601f8201168201806040525081019061184c91906147d3565b610d1a5761016254610d1a906001600160a01b031683600019612548565b6118726122f8565b6001600160a01b031661188e61012d546001600160a01b031690565b6001600160a01b0316146118b45760405162461bcd60e51b8152600401610c9b9061479e565b61015f80546001600160a01b0319166001600160a01b0392909216919091179055565b6118df6122f8565b6001600160a01b03166118fb61012d546001600160a01b031690565b6001600160a01b0316146119215760405162461bcd60e51b8152600401610c9b9061479e565b6111af6000612ae0565b6119336122f8565b6001600160a01b031661194f61012d546001600160a01b031690565b6001600160a01b0316146119755760405162461bcd60e51b8152600401610c9b9061479e565b61019380546001600160a01b0390921661010002610100600160a81b0319909216919091179055565b6119a66122f8565b6001600160a01b03166119c261012d546001600160a01b031690565b6001600160a01b0316146119e85760405162461bcd60e51b8152600401610c9b9061479e565b6001600160a01b038116611a305760405162461bcd60e51b815260206004820152600f60248201526e496e76616c6964206164647265737360881b6044820152606401610c9b565b61019580546001600160a01b0319166001600160a01b0392909216919091179055565b6000611a5d612307565b50949350505050565b611a6e6122f8565b6001600160a01b0316611a8a61012d546001600160a01b031690565b6001600160a01b031614611ab05760405162461bcd60e51b8152600401610c9b9061479e565b60fb5460ff1615611ad35760405162461bcd60e51b8152600401610c9b9061484b565b611adb612b33565b6101665461016354611afb916001600160a01b0391821691166000612548565b6101665461016254611b1b916001600160a01b0391821691166000612548565b6101675461016354611b3b916001600160a01b0391821691166000612548565b61016754610162546111af916001600160a01b0391821691166000612548565b6000611b65612307565b509392505050565b6000611b77612307565b509695505050505050565b611b8a6122f8565b6001600160a01b0316611ba661012d546001600160a01b031690565b6001600160a01b031614611bcc5760405162461bcd60e51b8152600401610c9b9061479e565b815160005b81811015610d26576000848281518110611bed57611bed61481a565b602002602001015190508060001415611c3a5760405162461bcd60e51b815260206004820152600f60248201526e125b9d985b1a590818da185a5b9251608a1b6044820152606401610c9b565b838281518110611c4c57611c4c61481a565b6020908102919091018101516000928352610169909152604090912080546001600160a01b0319166001600160a01b0390921691909117905580611c8f81614830565b915050611bd1565b600082815260c960205260408120611caf9083612b8c565b9392505050565b60009182526097602090815260408084206001600160a01b0393909316845291905290205460ff1690565b611ce96122f8565b6001600160a01b0316611d0561012d546001600160a01b031690565b6001600160a01b031614611d2b5760405162461bcd60e51b8152600401610c9b9061479e565b61016654611d42906001600160a01b0316826123bb565b61016680546001600160a01b0319166001600160a01b0392909216919091179055565b610d51612307565b6000611d7b60fb5460ff1690565b15611d985760405162461bcd60e51b8152600401610c9b9061484b565b6000611da26122f8565b6001600160a01b038116600090815261016060209081526040918290205491516bffffffffffffffffffffffff19606085901b169181019190915260348101829052605481018990526074810188905291925090611e1b906094015b604051602081830303815290604052805190602001208686612b98565b6101935460ff1615611ea057610193546040516343a463c760e01b81526001600160a01b038481166004830152602482018a905260448201899052610100909204909116906343a463c790606401600060405180830381600087803b158015611e8357600080fd5b505af1158015611e97573d6000803e3d6000fd5b50505050611ea5565b600092505b611eb0816001614802565b6001600160a01b039092166000908152610160602052604090209190915550949350505050565b600080611ee385610cc6565b90506001600160a01b0386163b15611f3f57611f3786828787878080601f016020809104026020016040519081016040528093929190818152602001838380828437600092019190915250612c0c92505050565b91505061204e565b6000806000611f8387878080601f01602080910402602001604051908101604052809392919081815260200183838082843760009201829052509250612ca8915050565b6040517f19457468657265756d205369676e6564204d6573736167653a0a3332000000006020820152603c81018890529295509093509150600090605c0160408051601f198184030181528282528051602091820120600080855291840180845281905260ff88169284019290925260608301869052608083018590529092509060019060a0016020604051602081039080840390855afa15801561202c573d6000803e3d6000fd5b5050604051601f1901516001600160a01b038d81169116149750505050505050505b949350505050565b600081815260c960205260408120610c4b90612cc6565b600061207b60fb5460ff1690565b156120985760405162461bcd60e51b8152600401610c9b9061484b565b60006120a26122f8565b6001600160a01b0381166000908152610160602090815260409182902054915192935090916120df91611dfe91859185918d918d918d91016148a8565b6120eb82898989612cd0565b50600093506120fd9050816001614802565b6001600160a01b03909216600090815261016060205260409020919091555095945050505050565b60008281526097602052604090206001015461214081612388565b610d51838361248d565b6121526122f8565b6001600160a01b031661216e61012d546001600160a01b031690565b6001600160a01b0316146121945760405162461bcd60e51b8152600401610c9b9061479e565b61219d81612f41565b50565b60006121ac600161269f565b905080156121c8576000805460ff60a81b1916600160a81b1790555b6121d061273f565b6121e860006111f961012d546001600160a01b031690565b6121f0612782565b6121fa6001612fbc565b61016280546001600160a01b0319166001600160a01b03929092169190911790556122256000612fbc565b61016380546001600160a01b03199081166001600160a01b039384161790915561015f80548216888416179055610161805490911691861691909117905561226c83611ce1565b61227582610d56565b8015611506576000805460ff60a81b19169055604051600181527f7f26b83ff96e1f2b6a682f133852f6798a09c465da95921460cefb38474024989060200160405180910390a15050505050565b60006001600160e01b03198216637965db0b60e01b1480610c4b57506301ffc9a760e01b6001600160e01b0319831614610c4b565b600061230261320c565b905090565b610195546040516060916000916001600160a01b039091169061232d9083903690614918565b600060405180830381855af49150503d8060008114612368576040519150601f19603f3d011682016040523d82523d6000602084013e61236d565b606091505b505090506040513d6000823e818015612384573d82f35b3d82fd5b61219d816123946122f8565b613240565b6123a382826132a4565b600082815260c960205260409020610d51908261332b565b806001600160a01b0316826001600160a01b031614156123d9575050565b6001600160a01b0382161561243257612400600080516020614b668339815191528361248d565b61016354612419906001600160a01b0316836000612548565b61016254612432906001600160a01b0316836000612548565b6001600160a01b03811615610d1a57612459600080516020614b6683398151915282612778565b61016254612473906001600160a01b031682600019612548565b61016354610d1a906001600160a01b031682600019612548565b6124978282613340565b600082815260c960205260409020610d5190826133c5565b60fb5460ff166124f85760405162461bcd60e51b815260206004820152601460248201527314185d5cd8589b194e881b9bdd081c185d5cd95960621b6044820152606401610c9b565b60fb805460ff191690557f5db9ee0a495bf2e6ff9c91a7834c1ba4fdd244a5e8aa4e537bd38aeae4b073aa61252b6122f8565b6040516001600160a01b03909116815260200160405180910390a1565b8015806125d15750604051636eb1769f60e11b81523060048201526001600160a01b03838116602483015284169063dd62ed3e9060440160206040518083038186803b15801561259757600080fd5b505afa1580156125ab573d6000803e3d6000fd5b505050506040513d601f19601f820116820180604052508101906125cf91906147d3565b155b61263c5760405162461bcd60e51b815260206004820152603660248201527f5361666545524332303a20617070726f76652066726f6d206e6f6e2d7a65726f60448201527520746f206e6f6e2d7a65726f20616c6c6f77616e636560501b6064820152608401610c9b565b6040516001600160a01b038316602482015260448101829052610d5190849063095ea7b360e01b906064015b60408051601f198184030181529190526020810180516001600160e01b03166001600160e01b0319909316929092179091526133da565b60008054600160a81b900460ff16156126e8578160ff1660011480156126c45750303b155b6126e05760405162461bcd60e51b8152600401610c9b90614928565b506000919050565b60005460ff808416600160a01b90920416106127165760405162461bcd60e51b8152600401610c9b90614928565b506000805460ff909216600160a01b0260ff60a01b19909216919091179055600190565b919050565b600054600160a81b900460ff166127685760405162461bcd60e51b8152600401610c9b90614976565b6111af6127736122f8565b612ae0565b610d1a8282612399565b600054600160a81b900460ff166127ab5760405162461bcd60e51b8152600401610c9b90614976565b61280560007f47e79534a245952e8b16893a336b85a3d9ea9fa8c573f3d803afb92a794692184660408051602081019390935282015230606082015260800160405160208183030381529060405280519060200120905090565b600155565b600046634e45415381141561288a57600183600181111561282d5761282d613ed7565b141561284f575073cceca5c4a3355f8e7a0b7d2a7251eec012be7c5892915050565b600083600181111561286357612863613ed7565b1415612885575073f9c249974c1acf96a59e5757cc9ba7035ce489b192915050565b612ad7565b61a8698114156129005760018360018111156128a8576128a8613ed7565b14156128ca5750737acdaba7ee51c1c3f7c6d605cc26b1c9aab0495a92915050565b60008360018111156128de576128de613ed7565b141561288557507378ae2880bd1672b49a33cf796cf53fe6db0ab01d92915050565b606181141561297557600183600181111561291d5761291d613ed7565b141561293f575073da14d11d2c7d79f167b6057de3d9cc25c2c488d592915050565b600083600181111561295357612953613ed7565b14156128855750731f326a8ca5399418a76ea0efa0403cbb00790c6792915050565b60048114156129ea57600183600181111561299257612992613ed7565b14156129b4575073df5324ebe6f6b852ff5cbf73627ee137e907527692915050565b60008360018111156129c8576129c8613ed7565b141561288557507321e48034753e490ff04f2f75f7caedf081b320d592915050565b610fa2811415612a60576001836001811115612a0857612a08613ed7565b1415612a2a575073147abee959a578f2ae5f9bc996dcf6259ebd3a8992915050565b6000836001811115612a3e57612a3e613ed7565b1415612885575073b02068ae04bf5d184efde3583e09f2185a30da0e92915050565b62013881811415612ad7576001836001811115612a7f57612a7f613ed7565b1415612aa15750736600bec324ccdd12c70297311aefb37fafb1d68992915050565b6000836001811115612ab557612ab5613ed7565b1415612ad75750737e4c234b1d634db790592d1550816b19e862f74492915050565b50600092915050565b61012d80546001600160a01b038381166001600160a01b0319831681179093556040519116919082907f8be0079c531659141344cd1fd0a4f28419497f9722a3daafe3b4186f6b6457e090600090a35050565b60fb5460ff1615612b565760405162461bcd60e51b8152600401610c9b9061484b565b60fb805460ff191660011790557f62e78cea01bee320cd4e420270b5ea74000d11b0c9f74754ebdbfc544b05a25861252b6122f8565b6000611caf83836134ac565b61015f546040805160208101869052612bcc926001600160a01b031691016040516020818303038152906040528484611ed7565b610d515760405162461bcd60e51b8152602060048201526011602482015270496e76616c6964207369676e617475726560781b6044820152606401610c9b565b600080856001600160a01b031663e75235b86040518163ffffffff1660e01b815260040160206040518083038186803b158015612c4857600080fd5b505afa158015612c5c573d6000803e3d6000fd5b505050506040513d601f19601f82011682018060405250810190612c8091906147d3565b905080612c9157600091505061204e565b612c9e86868686856134d6565b9695505050505050565b60419081029190910160208101516040820151919092015160ff1692565b6000610c4b825490565b8251606090600090806001600160401b03811115612cf057612cf0613d58565b604051908082528060200260200182016040528015612d19578160200160208202803683370190505b50925046600080805b84811015612edf5760008a8281518110612d3e57612d3e61481a565b6020026020010151905060008a8381518110612d5c57612d5c61481a565b6020026020010151905085811415612d7f57612d788286614802565b9450612eca565b828814612eaf57818c8981518110612d9957612d9961481a565b602002602001018181525050808b8981518110612db857612db861481a565b602002602001018181525050898381518110612dd657612dd661481a565b60200260200101518a8981518110612df057612df061481a565b60200260200101906001811115612e0957612e09613ed7565b90816001811115612e1c57612e1c613ed7565b905250600081815261016960205260409020546001600160a01b031680612e7a5760405162461bcd60e51b8152602060048201526012602482015271125b9d985b1a59081d5cd95c881859d95b9d60721b6044820152606401610c9b565b808a8a81518110612e8d57612e8d61481a565b60200260200101906001600160a01b031690816001600160a01b031681525050505b87612eb981614830565b9850612ec790508285614802565b93505b50508080612ed790614830565b915050612d22565b50612f048a30612eef8486614802565b610163546001600160a01b0316929190613732565b6001600160a01b038a166000908152610165602052604081208054849290612f2d908490614802565b925050819055505050505094509492505050565b612f496122f8565b6001600160a01b0316612f6561012d546001600160a01b031690565b6001600160a01b031614612f8b5760405162461bcd60e51b8152600401610c9b9061479e565b612fa86000612fa361012d546001600160a01b031690565b61248d565b612fb18161376a565b61219d600082612778565b600046634e454152811415613037576001836001811115612fdf57612fdf613ed7565b1415613001575073b12bfca5a55806aaf64e99521918a4bf0fc4080292915050565b600083600181111561301557613015613ed7565b14156128855750734988a896b1227218e4a686fde5eabdcabd91571f92915050565b61a86a8114156130ad57600183600181111561305557613055613ed7565b1415613077575073a7d7079b0fead91f3e65f86e8915cb59c1a4c66492915050565b600083600181111561308b5761308b613ed7565b1415612885575073c7198437980c041c805a1edcba50c1ce5db9511892915050565b60388114156131225760018360018111156130ca576130ca613ed7565b14156130ec5750738ac76a51cc950d9822d68b83fe1ad97b32cd580d92915050565b600083600181111561310057613100613ed7565b141561288557507355d398326f99059ff775485246999027b319795592915050565b600181141561319757600183600181111561313f5761313f613ed7565b1415613161575073a0b86991c6218b36c1d19d4a2e9eb0ce3606eb4892915050565b600083600181111561317557613175613ed7565b1415612885575073dac17f958d2ee523a2206206994597c13d831ec792915050565b6089811415612ad75760018360018111156131b4576131b4613ed7565b14156131d65750732791bca1f2de4661ed88a30c99a7a9449aa8417492915050565b60008360018111156131ea576131ea613ed7565b1415612ad7575073c2132d05d31c914a87c6611c10748aeb04b58e8f92915050565b60006018361080159061322957506000546001600160a01b031633145b1561323b575060131936013560601c90565b503390565b61324a8282611cb6565b610d1a57613262816001600160a01b03166014613822565b61326d836020613822565b60405160200161327e9291906149c1565b60408051601f198184030181529082905262461bcd60e51b8252610c9b9160040161406a565b6132ae8282611cb6565b610d1a5760008281526097602090815260408083206001600160a01b03851684529091529020805460ff191660011790556132e76122f8565b6001600160a01b0316816001600160a01b0316837f2f8788117e7eff1d82e926ec794901d17c78024a50270940304540a733656f0d60405160405180910390a45050565b6000611caf836001600160a01b0384166139bd565b61334a8282611cb6565b15610d1a5760008281526097602090815260408083206001600160a01b03851684529091529020805460ff191690556133816122f8565b6001600160a01b0316816001600160a01b0316837ff6391f5c32d9c69d2a47ea670b442974b53935d1edc7fd64eb21e047a839171b60405160405180910390a45050565b6000611caf836001600160a01b038416613a0c565b600061342f826040518060400160405280602081526020017f5361666545524332303a206c6f772d6c6576656c2063616c6c206661696c6564815250856001600160a01b0316613aff9092919063ffffffff16565b805190915015610d51578080602001905181019061344d9190614a36565b610d515760405162461bcd60e51b815260206004820152602a60248201527f5361666545524332303a204552433230206f7065726174696f6e20646964206e6044820152691bdd081cdd58d8d9595960b21b6064820152608401610c9b565b60008260000182815481106134c3576134c361481a565b9060005260206000200154905092915050565b60006134e3826041614a58565b835110156134f357506000613729565b600080876001600160a01b031663a0e67e2b6040518163ffffffff1660e01b815260040160006040518083038186803b15801561352f57600080fd5b505afa158015613543573d6000803e3d6000fd5b505050506040513d6000823e601f3d908101601f1916820160405261356b9190810190614a77565b905060008080805b8781101561371e5760418181028a0160208101516040820151919092015160ff16955090935091508361364e5791945084916135b0886041614a58565b8210156135c65760009650505050505050613729565b88516135d3836020614802565b11156135e85760009650505050505050613729565b6020828a018101518a5190918290613601908690614802565b61360b9190614802565b1115613621576000975050505050505050613729565b898301602001613632888d83613b0e565b61364757600098505050505050505050613729565b50506136ef565b6040517f19457468657265756d205369676e6564204d6573736167653a0a3332000000006020820152603c81018c9052600190605c0160408051601f198184030181528282528051602091820120600084529083018083525260ff871690820152606081018590526080810184905260a0016020604051602081039080840390855afa1580156136e2573d6000803e3d6000fd5b5050506020604051035195505b6136f98587613b28565b61370c5760009650505050505050613729565b8061371681614830565b915050613573565b600196505050505050505b95945050505050565b6040516001600160a01b0380851660248301528316604482015260648101829052610d269085906323b872dd60e01b90608401612668565b6137726122f8565b6001600160a01b031661378e61012d546001600160a01b031690565b6001600160a01b0316146137b45760405162461bcd60e51b8152600401610c9b9061479e565b6001600160a01b0381166138195760405162461bcd60e51b815260206004820152602660248201527f4f776e61626c653a206e6577206f776e657220697320746865207a65726f206160448201526564647265737360d01b6064820152608401610c9b565b61219d81612ae0565b60606000613831836002614a58565b61383c906002614802565b6001600160401b0381111561385357613853613d58565b6040519080825280601f01601f19166020018201604052801561387d576020820181803683370190505b509050600360fc1b816000815181106138985761389861481a565b60200101906001600160f81b031916908160001a905350600f60fb1b816001815181106138c7576138c761481a565b60200101906001600160f81b031916908160001a90535060006138eb846002614a58565b6138f6906001614802565b90505b600181111561396e576f181899199a1a9b1b9c1cb0b131b232b360811b85600f166010811061392a5761392a61481a565b1a60f81b8282815181106139405761394061481a565b60200101906001600160f81b031916908160001a90535060049490941c9361396781614b05565b90506138f9565b508315611caf5760405162461bcd60e51b815260206004820181905260248201527f537472696e67733a20686578206c656e67746820696e73756666696369656e746044820152606401610c9b565b6000818152600183016020526040812054613a0457508154600181810184556000848152602080822090930184905584548482528286019093526040902091909155610c4b565b506000610c4b565b60008181526001830160205260408120548015613af5576000613a30600183614b1c565b8554909150600090613a4490600190614b1c565b9050818114613aa9576000866000018281548110613a6457613a6461481a565b9060005260206000200154905080876000018481548110613a8757613a8761481a565b6000918252602080832090910192909255918252600188019052604090208390555b8554869080613aba57613aba614b33565b600190038181906000526020600020016000905590558560010160008681526020019081526020016000206000905560019350505050610c4b565b6000915050610c4b565b606061204e8484600085613b92565b600080613b1a84610cc6565b905061372985828686612c0c565b8151600090815b81811015613b8757836001600160a01b0316858281518110613b5357613b5361481a565b60200260200101516001600160a01b03161415613b7557600192505050610c4b565b80613b7f81614830565b915050613b2f565b506000949350505050565b606082471015613bf35760405162461bcd60e51b815260206004820152602660248201527f416464726573733a20696e73756666696369656e742062616c616e636520666f6044820152651c8818d85b1b60d21b6064820152608401610c9b565b6001600160a01b0385163b613c4a5760405162461bcd60e51b815260206004820152601d60248201527f416464726573733a2063616c6c20746f206e6f6e2d636f6e74726163740000006044820152606401610c9b565b600080866001600160a01b03168587604051613c669190614b49565b60006040518083038185875af1925050503d8060008114613ca3576040519150601f19603f3d011682016040523d82523d6000602084013e613ca8565b606091505b5091509150613cb8828286613cc3565b979650505050505050565b60608315613cd2575081611caf565b825115613ce25782518084602001fd5b8160405162461bcd60e51b8152600401610c9b919061406a565b600060208284031215613d0e57600080fd5b81356001600160e01b031981168114611caf57600080fd5b6001600160a01b038116811461219d57600080fd5b600060208284031215613d4d57600080fd5b8135611caf81613d26565b634e487b7160e01b600052604160045260246000fd5b604051601f8201601f191681016001600160401b0381118282101715613d9657613d96613d58565b604052919050565b600082601f830112613daf57600080fd5b81356001600160401b03811115613dc857613dc8613d58565b613ddb601f8201601f1916602001613d6e565b818152846020838601011115613df057600080fd5b816020850160208301376000918101602001919091529392505050565b600060208284031215613e1f57600080fd5b81356001600160401b03811115613e3557600080fd5b61204e84828501613d9e565b600060208284031215613e5357600080fd5b5035919050565b80356002811061273a57600080fd5b600080600060608486031215613e7e57600080fd5b8335613e8981613d26565b925060208401359150613e9e60408501613e5a565b90509250925092565b60008060408385031215613eba57600080fd5b823591506020830135613ecc81613d26565b809150509250929050565b634e487b7160e01b600052602160045260246000fd5b60028110613f0b57634e487b7160e01b600052602160045260246000fd5b9052565b60208101610c4b8284613eed565b600080600080600080600060e0888a031215613f3857600080fd5b8735613f4381613d26565b96506020880135613f5381613d26565b95506040880135613f6381613d26565b94506060880135613f7381613d26565b93506080880135613f8381613d26565b925060a0880135613f9381613d26565b915060c0880135613fa381613d26565b8091505092959891949750929550565b600080600060608486031215613fc857600080fd5b8335613fd381613d26565b95602085013595506040909401359392505050565b600080600080600060a0868803121561400057600080fd5b85359450602086013561401281613d26565b93506040860135925060608601359150608086013561403081613d26565b809150509295509295909350565b60005b83811015614059578181015183820152602001614041565b83811115610d265750506000910152565b602081526000825180602084015261408981604085016020870161403e565b601f01601f19169190910160400192915050565b60006001600160401b038211156140b6576140b6613d58565b5060051b60200190565b600082601f8301126140d157600080fd5b813560206140e66140e18361409d565b613d6e565b82815260059290921b8401810191818101908684111561410557600080fd5b8286015b84811015611b7757803561411c81613d26565b8352918301918301614109565b600082601f83011261413a57600080fd5b8135602061414a6140e18361409d565b82815260059290921b8401810191818101908684111561416957600080fd5b8286015b84811015611b77578035835291830191830161416d565b6000806000806080858703121561419a57600080fd5b84356141a581613d26565b935060208501356001600160401b03808211156141c157600080fd5b6141cd888389016140c0565b945060408701359150808211156141e357600080fd5b506141f087828801614129565b949793965093946060013593505050565b600082601f83011261421257600080fd5b813560206142226140e18361409d565b82815260059290921b8401810191818101908684111561424157600080fd5b8286015b84811015611b775761425681613e5a565b8352918301918301614245565b6000806040838503121561427657600080fd5b82356001600160401b038082111561428d57600080fd5b61429986838701614129565b935060208501359150808211156142af57600080fd5b506142bc85828601614201565b9150509250929050565b60008083601f8401126142d857600080fd5b5081356001600160401b038111156142ef57600080fd5b60208301915083602082850101111561430757600080fd5b9250929050565b60008060008060006080868803121561432657600080fd5b85356001600160401b038082111561433d57600080fd5b61434989838a01614129565b96506020880135955060408801359450606088013591508082111561436d57600080fd5b5061437a888289016142c6565b969995985093965092949392505050565b6000806000604084860312156143a057600080fd5b8335925060208401356001600160401b038111156143bd57600080fd5b6143c9868287016142c6565b9497909650939450505050565b600080600080606085870312156143ec57600080fd5b843593506020850135925060408501356001600160401b0381111561441057600080fd5b61441c878288016142c6565b95989497509550505050565b60008060008060008060a0878903121561444157600080fd5b86356001600160401b038082111561445857600080fd5b6144648a838b01614129565b9750602089013591508082111561447a57600080fd5b6144868a838b016140c0565b9650604089013591508082111561449c57600080fd5b6144a88a838b01614129565b95506060890135945060808901359150808211156144c557600080fd5b506144d289828a016142c6565b979a9699509497509295939492505050565b600080604083850312156144f757600080fd5b82356001600160401b038082111561450e57600080fd5b61451a86838701614129565b9350602085013591508082111561453057600080fd5b506142bc858286016140c0565b6000806040838503121561455057600080fd5b50508035926020909101359150565b6000806000806060858703121561457557600080fd5b84356001600160401b038082111561458c57600080fd5b61459888838901614129565b955060208701359150808211156145ae57600080fd5b6145ba88838901614201565b945060408701359150808211156145d057600080fd5b5061441c878288016142c6565b600080604083850312156145f057600080fd5b82356145fb81613d26565b946020939093013593505050565b6000806000806060858703121561461f57600080fd5b843561462a81613d26565b935060208501356001600160401b038082111561464657600080fd5b6145ba88838901613d9e565b60008060008060006080868803121561466a57600080fd5b85356001600160401b038082111561468157600080fd5b61468d89838a01614129565b965060208801359150808211156146a357600080fd5b6146af89838a01614129565b955060408801359150808211156146c557600080fd5b6146d189838a01614201565b9450606088013591508082111561436d57600080fd5b6000806000604084860312156146fc57600080fd5b83356001600160401b038082111561471357600080fd5b61471f87838801614129565b9450602086013591508082111561473557600080fd5b506143c9868287016142c6565b6000806000806080858703121561475857600080fd5b843561476381613d26565b9350602085013561477381613d26565b9250604085013561478381613d26565b9150606085013561479381613d26565b939692955090935050565b6020808252818101527f4f776e61626c653a2063616c6c6572206973206e6f7420746865206f776e6572604082015260600190565b6000602082840312156147e557600080fd5b5051919050565b634e487b7160e01b600052601160045260246000fd5b60008219821115614815576148156147ec565b500190565b634e487b7160e01b600052603260045260246000fd5b6000600019821415614844576148446147ec565b5060010190565b60208082526010908201526f14185d5cd8589b194e881c185d5cd95960821b604082015260600190565b60008151602080840160005b8381101561489d57815187529582019590820190600101614881565b509495945050505050565b6bffffffffffffffffffffffff198660601b16815284601482015260006148db6148d56034840187614875565b85614875565b8351602080860160005b83811015614908576148f8858351613eed565b93820193908201906001016148e5565b50929a9950505050505050505050565b8183823760009101908152919050565b6020808252602e908201527f496e697469616c697a61626c653a20636f6e747261637420697320616c72656160408201526d191e481a5b9a5d1a585b1a5e995960921b606082015260800190565b6020808252602b908201527f496e697469616c697a61626c653a20636f6e7472616374206973206e6f74206960408201526a6e697469616c697a696e6760a81b606082015260800190565b7f416363657373436f6e74726f6c3a206163636f756e74200000000000000000008152600083516149f981601785016020880161403e565b7001034b99036b4b9b9b4b733903937b6329607d1b6017918401918201528351614a2a81602884016020880161403e565b01602801949350505050565b600060208284031215614a4857600080fd5b81518015158114611caf57600080fd5b6000816000190483118215151615614a7257614a726147ec565b500290565b60006020808385031215614a8a57600080fd5b82516001600160401b03811115614aa057600080fd5b8301601f81018513614ab157600080fd5b8051614abf6140e18261409d565b81815260059190911b82018301908381019087831115614ade57600080fd5b928401925b82841015613cb8578351614af681613d26565b82529284019290840190614ae3565b600081614b1457614b146147ec565b506000190190565b600082821015614b2e57614b2e6147ec565b500390565b634e487b7160e01b600052603160045260246000fd5b60008251614b5b81846020870161403e565b919091019291505056fedbeb657137b1822b3d5418bea6fd641226d964b4c3871ef23546db2622258871a26469706673582212208f14ae86c177080c9c21d29453916b5000b04ea2c48cd255085653340be0060f64736f6c63430008090033",
  "devdoc": {
    "kind": "dev",
    "methods": {
      "burn(uint256,uint256,bytes)": {
        "details": "It calls burnByAdmin of STIMinter.",
        "params": {
          "_pool": "total pool in USD",
          "_share": "amount of shares"
        }
      },
      "claim(uint256[],bytes)": {
        "details": "It calls claimByAdmin of STIVaults."
      },
      "deposit(uint256[],address[],uint256[],uint256,bytes)": {
        "details": "It calls depositByAdmin of STIVaults."
      },
      "exitWithdrawal(uint256,bytes)": {
        "details": "It calls exitWithdrawalByAdmin of STIMinter.",
        "params": {
          "_gatheredAmount": "is the amount of token that is gathered."
        }
      },
      "gather(uint256[],uint8[],bytes)": {
        "details": "It gathers withdrawn tokens of the user from user agents."
      },
      "getMessageHashForSafe(bytes)": {
        "details": "Returns hash of a message that can be signed by owners.",
        "params": {
          "message": "Message that should be hashed"
        },
        "returns": {
          "_0": "Message hash."
        }
      },
      "getRoleAdmin(bytes32)": {
        "details": "Returns the admin role that controls `role`. See {grantRole} and {revokeRole}. To change a role's admin, use {_setRoleAdmin}."
      },
      "getRoleMember(bytes32,uint256)": {
        "details": "Returns one of the accounts that have `role`. `index` must be a value between 0 and {getRoleMemberCount}, non-inclusive. Role bearers are not sorted in any particular way, and their ordering may change at any point. WARNING: When using {getRoleMember} and {getRoleMemberCount}, make sure you perform all queries on the same block. See the following https://forum.openzeppelin.com/t/iterating-over-elements-on-enumerableset-in-openzeppelin-contracts/2296[forum post] for more information."
      },
      "getRoleMemberCount(bytes32)": {
        "details": "Returns the number of accounts that have `role`. Can be used together with {getRoleMember} to enumerate all bearers of a role."
      },
      "grantRole(bytes32,address)": {
        "details": "Grants `role` to `account`. If `account` had not been already granted `role`, emits a {RoleGranted} event. Requirements: - the caller must have ``role``'s admin role."
      },
      "hasRole(bytes32,address)": {
        "details": "Returns `true` if `account` has been granted `role`."
      },
      "initDeposit(uint256,uint256,bytes)": {
        "details": "It calls initDepositByAdmin of STIMinter.",
        "params": {
          "_USDT6Amt": "USDT with 6 decimals to be deposited",
          "_pool": "total pool in USD"
        }
      },
      "mint(uint256,bytes)": {
        "details": "It calls mintByAdmin of STIMinter."
      },
      "owner()": {
        "details": "Returns the address of the current owner."
      },
      "paused()": {
        "details": "Returns true if the contract is paused, and false otherwise."
      },
      "renounceOwnership()": {
        "details": "Leaves the contract without owner. It will not be possible to call `onlyOwner` functions anymore. Can only be called by the current owner. NOTE: Renouncing ownership will leave the contract without an owner, thereby removing any functionality that is only available to the owner."
      },
      "renounceRole(bytes32,address)": {
        "details": "Revokes `role` from the calling account. Roles are often managed via {grantRole} and {revokeRole}: this function's purpose is to provide a mechanism for accounts to lose their privileges if they are compromised (such as when a trusted device is misplaced). If the calling account had been revoked `role`, emits a {RoleRevoked} event. Requirements: - the caller must be `account`."
      },
      "revokeRole(bytes32,address)": {
        "details": "Revokes `role` from `account`. If `account` had been granted `role`, emits a {RoleRevoked} event. Requirements: - the caller must have ``role``'s admin role."
      },
      "setSubImpl(address)": {
        "details": "Delegate to sub contract"
      },
      "supportsInterface(bytes4)": {
        "details": "See {IERC165-supportsInterface}."
      },
      "takeOut(uint256,bytes)": {
        "details": "It takes out tokens from this agent.",
        "params": {
          "_gatheredAmount": "is the amount of token that is gathered."
        }
      },
      "transfer(uint256[],uint256[],uint8[],bytes)": {
        "details": "It transfers tokens to user agents"
      },
      "withdraw(uint256[],uint256,uint256,bytes)": {
        "details": "It calls withdrawPercByAdmin of STIVaults."
      }
    },
    "version": 1
  },
  "userdoc": {
    "kind": "user",
    "methods": {
      "exitWithdrawal(uint256,bytes)": {
        "notice": "_gatheredAmount doesn't include the balance which is withdrawan in this agent."
      },
      "isTrustedForwarder(address)": {
        "notice": "return if the forwarder is trusted to forward relayed transactions to us. the forwarder is required to verify the sender's signature, and verify the call is not a replay."
      },
      "onRefunded(uint256,address,uint256,uint256,address)": {
        "notice": "Never revert in this function. If not, cbridgeAdapter.executeMessageWithTransferRefund will be failed."
      },
      "takeOut(uint256,bytes)": {
        "notice": "_gatheredAmount doesn't include the balance which is withdrawan in this agent."
      }
    },
    "version": 1
  },
  "storageLayout": {
    "storage": [
      {
        "astId": 68220,
        "contract": "contracts/xchain/agent/STIUserAgentTest.sol:STIUserAgentTest",
        "label": "trustedForwarder",
        "offset": 0,
        "slot": "0",
        "type": "t_address"
      },
      {
        "astId": 713,
        "contract": "contracts/xchain/agent/STIUserAgentTest.sol:STIUserAgentTest",
        "label": "_initialized",
        "offset": 20,
        "slot": "0",
        "type": "t_uint8"
      },
      {
        "astId": 716,
        "contract": "contracts/xchain/agent/STIUserAgentTest.sol:STIUserAgentTest",
        "label": "_initializing",
        "offset": 21,
        "slot": "0",
        "type": "t_bool"
      },
      {
        "astId": 68760,
        "contract": "contracts/xchain/agent/STIUserAgentTest.sol:STIUserAgentTest",
        "label": "separator",
        "offset": 0,
        "slot": "1",
        "type": "t_bytes32"
      },
      {
        "astId": 69177,
        "contract": "contracts/xchain/agent/STIUserAgentTest.sol:STIUserAgentTest",
        "label": "__gap",
        "offset": 0,
        "slot": "2",
        "type": "t_array(t_uint256)49_storage"
      },
      {
        "astId": 3292,
        "contract": "contracts/xchain/agent/STIUserAgentTest.sol:STIUserAgentTest",
        "label": "__gap",
        "offset": 0,
        "slot": "51",
        "type": "t_array(t_uint256)50_storage"
      },
      {
        "astId": 3946,
        "contract": "contracts/xchain/agent/STIUserAgentTest.sol:STIUserAgentTest",
        "label": "__gap",
        "offset": 0,
        "slot": "101",
        "type": "t_array(t_uint256)50_storage"
      },
      {
        "astId": 184,
        "contract": "contracts/xchain/agent/STIUserAgentTest.sol:STIUserAgentTest",
        "label": "_roles",
        "offset": 0,
        "slot": "151",
        "type": "t_mapping(t_bytes32,t_struct(RoleData)179_storage)"
      },
      {
        "astId": 483,
        "contract": "contracts/xchain/agent/STIUserAgentTest.sol:STIUserAgentTest",
        "label": "__gap",
        "offset": 0,
        "slot": "152",
        "type": "t_array(t_uint256)49_storage"
      },
      {
        "astId": 33,
        "contract": "contracts/xchain/agent/STIUserAgentTest.sol:STIUserAgentTest",
        "label": "_roleMembers",
        "offset": 0,
        "slot": "201",
        "type": "t_mapping(t_bytes32,t_struct(AddressSet)4359_storage)"
      },
      {
        "astId": 143,
        "contract": "contracts/xchain/agent/STIUserAgentTest.sol:STIUserAgentTest",
        "label": "__gap",
        "offset": 0,
        "slot": "202",
        "type": "t_array(t_uint256)49_storage"
      },
      {
        "astId": 869,
        "contract": "contracts/xchain/agent/STIUserAgentTest.sol:STIUserAgentTest",
        "label": "_paused",
        "offset": 0,
        "slot": "251",
        "type": "t_bool"
      },
      {
        "astId": 958,
        "contract": "contracts/xchain/agent/STIUserAgentTest.sol:STIUserAgentTest",
        "label": "__gap",
        "offset": 0,
        "slot": "252",
        "type": "t_array(t_uint256)49_storage"
      },
      {
        "astId": 593,
        "contract": "contracts/xchain/agent/STIUserAgentTest.sol:STIUserAgentTest",
        "label": "_owner",
        "offset": 0,
        "slot": "301",
        "type": "t_address"
      },
      {
        "astId": 705,
        "contract": "contracts/xchain/agent/STIUserAgentTest.sol:STIUserAgentTest",
        "label": "__gap",
        "offset": 0,
        "slot": "302",
        "type": "t_array(t_uint256)49_storage"
      },
      {
        "astId": 59577,
        "contract": "contracts/xchain/agent/STIUserAgentTest.sol:STIUserAgentTest",
        "label": "admin",
        "offset": 0,
        "slot": "351",
        "type": "t_address"
      },
      {
        "astId": 59581,
        "contract": "contracts/xchain/agent/STIUserAgentTest.sol:STIUserAgentTest",
        "label": "nonces",
        "offset": 0,
        "slot": "352",
        "type": "t_mapping(t_address,t_uint256)"
      },
      {
        "astId": 59584,
        "contract": "contracts/xchain/agent/STIUserAgentTest.sol:STIUserAgentTest",
        "label": "swap",
        "offset": 0,
        "slot": "353",
        "type": "t_contract(ISwap)56041"
      },
      {
        "astId": 59587,
        "contract": "contracts/xchain/agent/STIUserAgentTest.sol:STIUserAgentTest",
        "label": "USDC",
        "offset": 0,
        "slot": "354",
        "type": "t_contract(IERC20Upgradeable)1707"
      },
      {
        "astId": 59590,
        "contract": "contracts/xchain/agent/STIUserAgentTest.sol:STIUserAgentTest",
        "label": "USDT",
        "offset": 0,
        "slot": "355",
        "type": "t_contract(IERC20Upgradeable)1707"
      },
      {
        "astId": 59594,
        "contract": "contracts/xchain/agent/STIUserAgentTest.sol:STIUserAgentTest",
        "label": "usdcBalances",
        "offset": 0,
        "slot": "356",
        "type": "t_mapping(t_address,t_uint256)"
      },
      {
        "astId": 59598,
        "contract": "contracts/xchain/agent/STIUserAgentTest.sol:STIUserAgentTest",
        "label": "usdtBalances",
        "offset": 0,
        "slot": "357",
        "type": "t_mapping(t_address,t_uint256)"
      },
      {
        "astId": 59601,
        "contract": "contracts/xchain/agent/STIUserAgentTest.sol:STIUserAgentTest",
        "label": "multichainAdapter",
        "offset": 0,
        "slot": "358",
        "type": "t_contract(IXChainAdapter)56345"
      },
      {
        "astId": 59604,
        "contract": "contracts/xchain/agent/STIUserAgentTest.sol:STIUserAgentTest",
        "label": "cbridgeAdapter",
        "offset": 0,
        "slot": "359",
        "type": "t_contract(IXChainAdapter)56345"
      },
      {
        "astId": 59608,
        "contract": "contracts/xchain/agent/STIUserAgentTest.sol:STIUserAgentTest",
        "label": "cbridgeSenders",
        "offset": 0,
        "slot": "360",
        "type": "t_mapping(t_uint256,t_address)"
      },
      {
        "astId": 59612,
        "contract": "contracts/xchain/agent/STIUserAgentTest.sol:STIUserAgentTest",
        "label": "userAgents",
        "offset": 0,
        "slot": "361",
        "type": "t_mapping(t_uint256,t_address)"
      },
      {
        "astId": 59617,
        "contract": "contracts/xchain/agent/STIUserAgentTest.sol:STIUserAgentTest",
        "label": "callAdapterTypes",
        "offset": 0,
        "slot": "362",
        "type": "t_mapping(t_uint256,t_enum(AdapterType)59570)"
      },
      {
        "astId": 60253,
        "contract": "contracts/xchain/agent/STIUserAgentTest.sol:STIUserAgentTest",
        "label": "__gap",
        "offset": 0,
        "slot": "363",
        "type": "t_array(t_uint256)39_storage"
      },
      {
        "astId": 61208,
        "contract": "contracts/xchain/agent/STIUserAgentTest.sol:STIUserAgentTest",
        "label": "chainIdOnLP",
        "offset": 0,
        "slot": "402",
        "type": "t_uint256"
      },
      {
        "astId": 61210,
        "contract": "contracts/xchain/agent/STIUserAgentTest.sol:STIUserAgentTest",
        "label": "isLPChain",
        "offset": 0,
        "slot": "403",
        "type": "t_bool"
      },
      {
        "astId": 61213,
        "contract": "contracts/xchain/agent/STIUserAgentTest.sol:STIUserAgentTest",
        "label": "stiMinter",
        "offset": 1,
        "slot": "403",
        "type": "t_contract(ISTIMinter)44167"
      },
      {
        "astId": 61216,
        "contract": "contracts/xchain/agent/STIUserAgentTest.sol:STIUserAgentTest",
        "label": "stiVault",
        "offset": 0,
        "slot": "404",
        "type": "t_contract(ISTIVault)44224"
      },
      {
        "astId": 61218,
        "contract": "contracts/xchain/agent/STIUserAgentTest.sol:STIUserAgentTest",
        "label": "subImpl",
        "offset": 0,
        "slot": "405",
        "type": "t_address"
      }
    ],
    "types": {
      "t_address": {
        "encoding": "inplace",
        "label": "address",
        "numberOfBytes": "20"
      },
      "t_array(t_bytes32)dyn_storage": {
        "base": "t_bytes32",
        "encoding": "dynamic_array",
        "label": "bytes32[]",
        "numberOfBytes": "32"
      },
      "t_array(t_uint256)39_storage": {
        "base": "t_uint256",
        "encoding": "inplace",
        "label": "uint256[39]",
        "numberOfBytes": "1248"
      },
      "t_array(t_uint256)49_storage": {
        "base": "t_uint256",
        "encoding": "inplace",
        "label": "uint256[49]",
        "numberOfBytes": "1568"
      },
      "t_array(t_uint256)50_storage": {
        "base": "t_uint256",
        "encoding": "inplace",
        "label": "uint256[50]",
        "numberOfBytes": "1600"
      },
      "t_bool": {
        "encoding": "inplace",
        "label": "bool",
        "numberOfBytes": "1"
      },
      "t_bytes32": {
        "encoding": "inplace",
        "label": "bytes32",
        "numberOfBytes": "32"
      },
      "t_contract(IERC20Upgradeable)1707": {
        "encoding": "inplace",
        "label": "contract IERC20Upgradeable",
        "numberOfBytes": "20"
      },
      "t_contract(ISTIMinter)44167": {
        "encoding": "inplace",
        "label": "contract ISTIMinter",
        "numberOfBytes": "20"
      },
      "t_contract(ISTIVault)44224": {
        "encoding": "inplace",
        "label": "contract ISTIVault",
        "numberOfBytes": "20"
      },
      "t_contract(ISwap)56041": {
        "encoding": "inplace",
        "label": "contract ISwap",
        "numberOfBytes": "20"
      },
      "t_contract(IXChainAdapter)56345": {
        "encoding": "inplace",
        "label": "contract IXChainAdapter",
        "numberOfBytes": "20"
      },
      "t_enum(AdapterType)59570": {
        "encoding": "inplace",
        "label": "enum BasicUserAgentBase.AdapterType",
        "numberOfBytes": "1"
      },
      "t_mapping(t_address,t_bool)": {
        "encoding": "mapping",
        "key": "t_address",
        "label": "mapping(address => bool)",
        "numberOfBytes": "32",
        "value": "t_bool"
      },
      "t_mapping(t_address,t_uint256)": {
        "encoding": "mapping",
        "key": "t_address",
        "label": "mapping(address => uint256)",
        "numberOfBytes": "32",
        "value": "t_uint256"
      },
      "t_mapping(t_bytes32,t_struct(AddressSet)4359_storage)": {
        "encoding": "mapping",
        "key": "t_bytes32",
        "label": "mapping(bytes32 => struct EnumerableSetUpgradeable.AddressSet)",
        "numberOfBytes": "32",
        "value": "t_struct(AddressSet)4359_storage"
      },
      "t_mapping(t_bytes32,t_struct(RoleData)179_storage)": {
        "encoding": "mapping",
        "key": "t_bytes32",
        "label": "mapping(bytes32 => struct AccessControlUpgradeable.RoleData)",
        "numberOfBytes": "32",
        "value": "t_struct(RoleData)179_storage"
      },
      "t_mapping(t_bytes32,t_uint256)": {
        "encoding": "mapping",
        "key": "t_bytes32",
        "label": "mapping(bytes32 => uint256)",
        "numberOfBytes": "32",
        "value": "t_uint256"
      },
      "t_mapping(t_uint256,t_address)": {
        "encoding": "mapping",
        "key": "t_uint256",
        "label": "mapping(uint256 => address)",
        "numberOfBytes": "32",
        "value": "t_address"
      },
      "t_mapping(t_uint256,t_enum(AdapterType)59570)": {
        "encoding": "mapping",
        "key": "t_uint256",
        "label": "mapping(uint256 => enum BasicUserAgentBase.AdapterType)",
        "numberOfBytes": "32",
        "value": "t_enum(AdapterType)59570"
      },
      "t_struct(AddressSet)4359_storage": {
        "encoding": "inplace",
        "label": "struct EnumerableSetUpgradeable.AddressSet",
        "members": [
          {
            "astId": 4358,
            "contract": "contracts/xchain/agent/STIUserAgentTest.sol:STIUserAgentTest",
            "label": "_inner",
            "offset": 0,
            "slot": "0",
            "type": "t_struct(Set)4058_storage"
          }
        ],
        "numberOfBytes": "64"
      },
      "t_struct(RoleData)179_storage": {
        "encoding": "inplace",
        "label": "struct AccessControlUpgradeable.RoleData",
        "members": [
          {
            "astId": 176,
            "contract": "contracts/xchain/agent/STIUserAgentTest.sol:STIUserAgentTest",
            "label": "members",
            "offset": 0,
            "slot": "0",
            "type": "t_mapping(t_address,t_bool)"
          },
          {
            "astId": 178,
            "contract": "contracts/xchain/agent/STIUserAgentTest.sol:STIUserAgentTest",
            "label": "adminRole",
            "offset": 0,
            "slot": "1",
            "type": "t_bytes32"
          }
        ],
        "numberOfBytes": "64"
      },
      "t_struct(Set)4058_storage": {
        "encoding": "inplace",
        "label": "struct EnumerableSetUpgradeable.Set",
        "members": [
          {
            "astId": 4053,
            "contract": "contracts/xchain/agent/STIUserAgentTest.sol:STIUserAgentTest",
            "label": "_values",
            "offset": 0,
            "slot": "0",
            "type": "t_array(t_bytes32)dyn_storage"
          },
          {
            "astId": 4057,
            "contract": "contracts/xchain/agent/STIUserAgentTest.sol:STIUserAgentTest",
            "label": "_indexes",
            "offset": 0,
            "slot": "1",
            "type": "t_mapping(t_bytes32,t_uint256)"
          }
        ],
        "numberOfBytes": "64"
      },
      "t_uint256": {
        "encoding": "inplace",
        "label": "uint256",
        "numberOfBytes": "32"
      },
      "t_uint8": {
        "encoding": "inplace",
        "label": "uint8",
        "numberOfBytes": "1"
      }
    }
  }
}