{
  "address": "0xaD626872739ba9A4E501D14D339EbC996C552572",
  "abi": [
    {
      "anonymous": false,
      "inputs": [
        {
          "indexed": false,
          "internalType": "address",
          "name": "caller",
          "type": "address"
        },
        {
          "indexed": false,
          "internalType": "uint256",
          "name": "amtDeposit",
          "type": "uint256"
        },
        {
          "indexed": false,
          "internalType": "address",
          "name": "tokenDeposit",
          "type": "address"
        }
      ],
      "name": "Deposit",
      "type": "event"
    },
    {
      "anonymous": false,
      "inputs": [
        {
          "indexed": false,
          "internalType": "uint8",
          "name": "version",
          "type": "uint8"
        }
      ],
      "name": "Initialized",
      "type": "event"
    },
    {
      "anonymous": false,
      "inputs": [
        {
          "indexed": true,
          "internalType": "address",
          "name": "previousOwner",
          "type": "address"
        },
        {
          "indexed": true,
          "internalType": "address",
          "name": "newOwner",
          "type": "address"
        }
      ],
      "name": "OwnershipTransferred",
      "type": "event"
    },
    {
      "anonymous": false,
      "inputs": [
        {
          "indexed": false,
          "internalType": "address",
          "name": "account",
          "type": "address"
        }
      ],
      "name": "Paused",
      "type": "event"
    },
    {
      "anonymous": false,
      "inputs": [
        {
          "indexed": false,
          "internalType": "uint256",
          "name": "amount",
          "type": "uint256"
        }
      ],
      "name": "Reinvest",
      "type": "event"
    },
    {
      "anonymous": false,
      "inputs": [
        {
          "indexed": false,
          "internalType": "address",
          "name": "oldAdmin",
          "type": "address"
        },
        {
          "indexed": false,
          "internalType": "address",
          "name": "newAdmin",
          "type": "address"
        }
      ],
      "name": "SetAdminWallet",
      "type": "event"
    },
    {
      "anonymous": false,
      "inputs": [
        {
          "indexed": false,
          "internalType": "address",
          "name": "oldBiconomy",
          "type": "address"
        },
        {
          "indexed": false,
          "internalType": "address",
          "name": "newBiconomy",
          "type": "address"
        }
      ],
      "name": "SetBiconomy",
      "type": "event"
    },
    {
      "anonymous": false,
      "inputs": [
        {
          "indexed": false,
          "internalType": "address",
          "name": "account",
          "type": "address"
        }
      ],
      "name": "Unpaused",
      "type": "event"
    },
    {
      "anonymous": false,
      "inputs": [
        {
          "indexed": false,
          "internalType": "address",
          "name": "caller",
          "type": "address"
        },
        {
          "indexed": false,
          "internalType": "uint256",
          "name": "amtWithdraw",
          "type": "uint256"
        },
        {
          "indexed": false,
          "internalType": "address",
          "name": "tokenWithdraw",
          "type": "address"
        },
        {
          "indexed": false,
          "internalType": "uint256",
          "name": "sharePerc",
          "type": "uint256"
        }
      ],
      "name": "Withdraw",
      "type": "event"
    },
    {
      "inputs": [],
      "name": "USDT",
      "outputs": [
        {
          "internalType": "contract IERC20UpgradeableExt",
          "name": "",
          "type": "address"
        }
      ],
      "stateMutability": "view",
      "type": "function"
    },
    {
      "inputs": [],
      "name": "admin",
      "outputs": [
        {
          "internalType": "address",
          "name": "",
          "type": "address"
        }
      ],
      "stateMutability": "view",
      "type": "function"
    },
    {
      "inputs": [],
      "name": "claim",
      "outputs": [],
      "stateMutability": "nonpayable",
      "type": "function"
    },
    {
      "inputs": [
        {
          "internalType": "address",
          "name": "_account",
          "type": "address"
        }
      ],
      "name": "claimByAdmin",
      "outputs": [],
      "stateMutability": "nonpayable",
      "type": "function"
    },
    {
      "inputs": [],
      "name": "claimEmergencyWithdrawal",
      "outputs": [],
      "stateMutability": "nonpayable",
      "type": "function"
    },
    {
      "inputs": [
        {
          "internalType": "address",
          "name": "_account",
          "type": "address"
        },
        {
          "internalType": "address[]",
          "name": "_tokens",
          "type": "address[]"
        },
        {
          "internalType": "uint256[]",
          "name": "_USDTAmts",
          "type": "uint256[]"
        },
        {
          "internalType": "uint256",
          "name": "_nonce",
          "type": "uint256"
        }
      ],
      "name": "depositByAdmin",
      "outputs": [],
      "stateMutability": "nonpayable",
      "type": "function"
    },
    {
      "inputs": [],
      "name": "emergencyWithdraw",
      "outputs": [],
      "stateMutability": "nonpayable",
      "type": "function"
    },
    {
      "inputs": [],
      "name": "firstOperationNonce",
      "outputs": [
        {
          "internalType": "uint256",
          "name": "",
          "type": "uint256"
        }
      ],
      "stateMutability": "view",
      "type": "function"
    },
    {
      "inputs": [],
      "name": "getAPR",
      "outputs": [
        {
          "internalType": "uint256",
          "name": "",
          "type": "uint256"
        }
      ],
      "stateMutability": "view",
      "type": "function"
    },
    {
      "inputs": [],
      "name": "getAllPoolInUSD",
      "outputs": [
        {
          "internalType": "uint256",
          "name": "allPool",
          "type": "uint256"
        }
      ],
      "stateMutability": "view",
      "type": "function"
    },
    {
      "inputs": [
        {
          "internalType": "uint256",
          "name": "_nonce",
          "type": "uint256"
        }
      ],
      "name": "getAllPoolInUSDAtNonce",
      "outputs": [
        {
          "internalType": "uint256",
          "name": "",
          "type": "uint256"
        }
      ],
      "stateMutability": "view",
      "type": "function"
    },
    {
      "inputs": [
        {
          "internalType": "address",
          "name": "_account",
          "type": "address"
        }
      ],
      "name": "getAllUnbonded",
      "outputs": [
        {
          "internalType": "uint256",
          "name": "waitingInUSD",
          "type": "uint256"
        },
        {
          "internalType": "uint256",
          "name": "unbondedInUSD",
          "type": "uint256"
        },
        {
          "internalType": "uint256",
          "name": "waitForTs",
          "type": "uint256"
        }
      ],
      "stateMutability": "view",
      "type": "function"
    },
    {
      "inputs": [],
      "name": "getChainID",
      "outputs": [
        {
          "internalType": "uint256",
          "name": "id",
          "type": "uint256"
        }
      ],
      "stateMutability": "view",
      "type": "function"
    },
    {
      "inputs": [],
      "name": "getCurrentCompositionPerc",
      "outputs": [
        {
          "internalType": "address[]",
          "name": "tokens",
          "type": "address[]"
        },
        {
          "internalType": "uint256[]",
          "name": "percentages",
          "type": "uint256[]"
        }
      ],
      "stateMutability": "view",
      "type": "function"
    },
    {
      "inputs": [],
      "name": "getEachPoolInUSD",
      "outputs": [
        {
          "internalType": "uint256[]",
          "name": "chainIDs",
          "type": "uint256[]"
        },
        {
          "internalType": "address[]",
          "name": "tokens",
          "type": "address[]"
        },
        {
          "internalType": "uint256[]",
          "name": "pools",
          "type": "uint256[]"
        }
      ],
      "stateMutability": "view",
      "type": "function"
    },
    {
      "inputs": [],
      "name": "getEmergencyWithdrawalUnbonded",
      "outputs": [
        {
          "internalType": "uint256",
          "name": "waitingInUSD",
          "type": "uint256"
        },
        {
          "internalType": "uint256",
          "name": "unbondedInUSD",
          "type": "uint256"
        },
        {
          "internalType": "uint256",
          "name": "waitForTs",
          "type": "uint256"
        }
      ],
      "stateMutability": "view",
      "type": "function"
    },
    {
      "inputs": [
        {
          "internalType": "address",
          "name": "_account",
          "type": "address"
        }
      ],
      "name": "getPoolsUnbonded",
      "outputs": [
        {
          "internalType": "uint256[]",
          "name": "chainIDs",
          "type": "uint256[]"
        },
        {
          "internalType": "address[]",
          "name": "tokens",
          "type": "address[]"
        },
        {
          "internalType": "uint256[]",
          "name": "waitings",
          "type": "uint256[]"
        },
        {
          "internalType": "uint256[]",
          "name": "waitingInUSDs",
          "type": "uint256[]"
        },
        {
          "internalType": "uint256[]",
          "name": "unbondeds",
          "type": "uint256[]"
        },
        {
          "internalType": "uint256[]",
          "name": "unbondedInUSDs",
          "type": "uint256[]"
        },
        {
          "internalType": "uint256[]",
          "name": "waitForTses",
          "type": "uint256[]"
        }
      ],
      "stateMutability": "view",
      "type": "function"
    },
    {
      "inputs": [],
      "name": "getUSDTPriceInUSD",
      "outputs": [
        {
          "internalType": "uint256",
          "name": "",
          "type": "uint256"
        },
        {
          "internalType": "uint8",
          "name": "",
          "type": "uint8"
        }
      ],
      "stateMutability": "view",
      "type": "function"
    },
    {
      "inputs": [],
      "name": "getWithdrawableSharePerc",
      "outputs": [
        {
          "internalType": "uint256",
          "name": "chainID",
          "type": "uint256"
        },
        {
          "internalType": "uint256",
          "name": "sharePerc",
          "type": "uint256"
        }
      ],
      "stateMutability": "view",
      "type": "function"
    },
    {
      "inputs": [
        {
          "internalType": "address",
          "name": "_admin",
          "type": "address"
        },
        {
          "internalType": "address",
          "name": "_biconomy",
          "type": "address"
        },
        {
          "internalType": "address",
          "name": "_strategy",
          "type": "address"
        },
        {
          "internalType": "address",
          "name": "_priceOracle",
          "type": "address"
        },
        {
          "internalType": "address",
          "name": "_USDT",
          "type": "address"
        }
      ],
      "name": "initialize",
      "outputs": [],
      "stateMutability": "nonpayable",
      "type": "function"
    },
    {
      "inputs": [
        {
          "internalType": "address",
          "name": "forwarder",
          "type": "address"
        }
      ],
      "name": "isTrustedForwarder",
      "outputs": [
        {
          "internalType": "bool",
          "name": "",
          "type": "bool"
        }
      ],
      "stateMutability": "view",
      "type": "function"
    },
    {
      "inputs": [],
      "name": "lastOperationNonce",
      "outputs": [
        {
          "internalType": "uint256",
          "name": "",
          "type": "uint256"
        }
      ],
      "stateMutability": "view",
      "type": "function"
    },
    {
      "inputs": [
        {
          "internalType": "uint256",
          "name": "",
          "type": "uint256"
        }
      ],
      "name": "operationAmounts",
      "outputs": [
        {
          "internalType": "uint256",
          "name": "",
          "type": "uint256"
        }
      ],
      "stateMutability": "view",
      "type": "function"
    },
    {
      "inputs": [],
      "name": "owner",
      "outputs": [
        {
          "internalType": "address",
          "name": "",
          "type": "address"
        }
      ],
      "stateMutability": "view",
      "type": "function"
    },
    {
      "inputs": [],
      "name": "paused",
      "outputs": [
        {
          "internalType": "bool",
          "name": "",
          "type": "bool"
        }
      ],
      "stateMutability": "view",
      "type": "function"
    },
    {
      "inputs": [
        {
          "internalType": "uint256",
          "name": "",
          "type": "uint256"
        }
      ],
      "name": "poolAtNonce",
      "outputs": [
        {
          "internalType": "uint256",
          "name": "poolInUSD",
          "type": "uint256"
        },
        {
          "internalType": "uint256",
          "name": "ts",
          "type": "uint256"
        }
      ],
      "stateMutability": "view",
      "type": "function"
    },
    {
      "inputs": [],
      "name": "priceOracle",
      "outputs": [
        {
          "internalType": "contract IPriceOracle",
          "name": "",
          "type": "address"
        }
      ],
      "stateMutability": "view",
      "type": "function"
    },
    {
      "inputs": [
        {
          "internalType": "address[]",
          "name": "_tokens",
          "type": "address[]"
        },
        {
          "internalType": "uint256[]",
          "name": "_perc",
          "type": "uint256[]"
        }
      ],
      "name": "reinvest",
      "outputs": [],
      "stateMutability": "nonpayable",
      "type": "function"
    },
    {
      "inputs": [],
      "name": "renounceOwnership",
      "outputs": [],
      "stateMutability": "nonpayable",
      "type": "function"
    },
    {
      "inputs": [
        {
          "internalType": "address",
          "name": "_admin",
          "type": "address"
        }
      ],
      "name": "setAdmin",
      "outputs": [],
      "stateMutability": "nonpayable",
      "type": "function"
    },
    {
      "inputs": [
        {
          "internalType": "address",
          "name": "_biconomy",
          "type": "address"
        }
      ],
      "name": "setBiconomy",
      "outputs": [],
      "stateMutability": "nonpayable",
      "type": "function"
    },
    {
      "inputs": [
        {
          "internalType": "address",
          "name": "_strategy",
          "type": "address"
        }
      ],
      "name": "setStrategy",
      "outputs": [],
      "stateMutability": "nonpayable",
      "type": "function"
    },
    {
      "inputs": [],
      "name": "strategy",
      "outputs": [
        {
          "internalType": "contract IStrategy",
          "name": "",
          "type": "address"
        }
      ],
      "stateMutability": "view",
      "type": "function"
    },
    {
      "inputs": [
        {
          "internalType": "address",
          "name": "newOwner",
          "type": "address"
        }
      ],
      "name": "transferOwnership",
      "outputs": [],
      "stateMutability": "nonpayable",
      "type": "function"
    },
    {
      "inputs": [],
      "name": "trustedForwarder",
      "outputs": [
        {
          "internalType": "address",
          "name": "",
          "type": "address"
        }
      ],
      "stateMutability": "view",
      "type": "function"
    },
    {
      "inputs": [
        {
          "internalType": "address",
          "name": "",
          "type": "address"
        }
      ],
      "name": "userLastOperationNonce",
      "outputs": [
        {
          "internalType": "uint256",
          "name": "",
          "type": "uint256"
        }
      ],
      "stateMutability": "view",
      "type": "function"
    },
    {
      "inputs": [],
      "name": "versionRecipient",
      "outputs": [
        {
          "internalType": "string",
          "name": "",
          "type": "string"
        }
      ],
      "stateMutability": "pure",
      "type": "function"
    },
    {
      "inputs": [
        {
          "internalType": "address",
          "name": "_account",
          "type": "address"
        },
        {
          "internalType": "uint256",
          "name": "_sharePerc",
          "type": "uint256"
        },
        {
          "internalType": "uint256",
          "name": "_nonce",
          "type": "uint256"
        }
      ],
      "name": "withdrawPercByAdmin",
      "outputs": [],
      "stateMutability": "nonpayable",
      "type": "function"
    }
  ],
  "transactionHash": "0x57ba16e43f8eaca8725e0ecccf3ff6e96af754a6e6721b7a742c68eff0653340",
  "args": [],
  "numDeployments": 4,
  "solcInputHash": "233991dc8428f72ab84898ee673d42d8",
  "bytecode": "0x608060405234801561001057600080fd5b5061348c806100206000396000f3fe608060405234801561001057600080fd5b50600436106102325760003560e01c80637da0a87711610130578063bd244af4116100b8578063e5e197761161007c578063e5e19776146104fd578063e63cfa3b14610510578063f2fde38b14610537578063f851a4401461054a578063ffec4eb11461055d57600080fd5b8063bd244af4146104ac578063c54e44eb146104b4578063c89d5b8b146104c7578063da454e61146104cf578063db2e21bc146104f557600080fd5b8063a8c62e76116100ff578063a8c62e761461043a578063a9d98f591461044d578063aae0923614610460578063ac25f68914610477578063b47c6a271461048d57600080fd5b80637da0a877146103fa5780638855c91a1461040d5780638da5cb5b146104165780639b8608821461042757600080fd5b806345d207ec116101be578063564b81ef11610182578063564b81ef1461039c578063572b6c05146103a25780635c975abb146103d4578063704b6c02146103df578063715018a6146103f257600080fd5b806345d207ec14610338578063486ff0cd1461034b5780634e71d92d1461036e5780634fb02c95146103765780634fc97cdf1461038957600080fd5b80631459457a116102055780631459457a146102a457806319dac5af146102b757806325b074f6146102d75780632630c12f146102fa57806333a100ca1461032557600080fd5b806304fe09ee14610237578063057feb991461025957806309b056f8146102875780630d8b76a814610291575b600080fd5b61023f610566565b604080519283526020830191909152015b60405180910390f35b610279610267366004612913565b60d16020526000908152604090205481565b604051908152602001610250565b61028f6105c1565b005b61028f61029f366004612941565b610695565b61028f6102b236600461295e565b610740565b6102796102c5366004612941565b60d06020526000908152604090205481565b6102df610914565b60408051938452602084019290925290820152606001610250565b60cc5461030d906001600160a01b031681565b6040516001600160a01b039091168152602001610250565b61028f610333366004612941565b6109aa565b61028f6103463660046129cf565b610ab3565b60408051808201825260018152603160f81b602082015290516102509190612a30565b61028f610ef4565b6102df610384366004612941565b610f2b565b61028f610397366004612941565b610fbc565b46610279565b6103c46103b0366004612941565b6000546001600160a01b0391821691161490565b6040519015158152602001610250565b60655460ff166103c4565b61028f6103ed366004612941565b611033565b61028f6110d6565b60005461030d906001600160a01b031681565b61027960ce5481565b6097546001600160a01b031661030d565b61028f610435366004612b9d565b61112b565b60cb5461030d906001600160a01b031681565b61027961045b366004612913565b61147b565b610468611505565b60405161025093929190612c75565b61047f6116f9565b604051610250929190612cae565b61049561178e565b6040805192835260ff909116602083015201610250565b610279611810565b60c95461030d906001600160a01b031681565b610279611833565b6104e26104dd366004612941565b6118b5565b6040516102509796959493929190612cdc565b61028f6119e3565b61028f61050b366004612d73565b611a9d565b61023f61051e366004612913565b60cf602052600090815260409020805460019091015482565b61028f610545366004612941565b611e29565b60ca5461030d906001600160a01b031681565b61027960cd5481565b606554469060009060ff166105835750670de0b6b3a76400009091565b60008061058e611ee0565b909250905061059d8183612e07565b6105af83670de0b6b3a7640000612e1f565b6105b99190612e3e565b925050509091565b6097546001600160a01b03163314806105e4575060ca546001600160a01b031633145b6106095760405162461bcd60e51b815260040161060090612e60565b60405180910390fd5b60655460ff1661062b5760405162461bcd60e51b815260040161060090612e8d565b60cb60009054906101000a90046001600160a01b03166001600160a01b03166309b056f86040518163ffffffff1660e01b8152600401600060405180830381600087803b15801561067b57600080fd5b505af115801561068f573d6000803e3d6000fd5b50505050565b61069d61200e565b6001600160a01b03166106b86097546001600160a01b031690565b6001600160a01b0316146106de5760405162461bcd60e51b815260040161060090612ebb565b600080546001600160a01b038381166001600160a01b031983168117909355604080519190921680825260208201939093527f56b079178193d2a52b3949d9cd8bc5503daadffd4a704722e18b8325021a974191015b60405180910390a15050565b600061074c6001612018565b90508015610768576000805460ff60a81b1916600160a81b1790555b6107706120b8565b60ca80546001600160a01b038089166001600160a01b0319928316179092556000805488841690831617905560cb805487841690831617905560cc805486841690831617905560c9805492851692909116821790556040805163313ce56760e01b8152905163313ce56791600480820192602092909190829003018186803b1580156107fb57600080fd5b505afa15801561080f573d6000803e3d6000fd5b505050506040513d601f19601f820116820180604052508101906108339190612f01565b60c9805460ff60a01b1916600160a01b60ff93841681029190911791829055900416600611156108a55760405162461bcd60e51b815260206004820152601760248201527f5553445420646563696d616c73206d757374203e3d20360000000000000000006044820152606401610600565b60cb5460c9546108c4916001600160a01b0391821691166000196120e9565b801561090c576000805460ff60a81b19169055604051600181527f7f26b83ff96e1f2b6a682f133852f6798a09c465da95921460cefb38474024989060200160405180910390a15b505050505050565b600080600060cb60009054906101000a90046001600160a01b03166001600160a01b03166325b074f66040518163ffffffff1660e01b815260040160606040518083038186803b15801561096757600080fd5b505afa15801561097b573d6000803e3d6000fd5b505050506040513d601f19601f8201168201806040525081019061099f9190612f1c565b925092509250909192565b6109b261200e565b6001600160a01b03166109cd6097546001600160a01b031690565b6001600160a01b0316146109f35760405162461bcd60e51b815260040161060090612ebb565b60cb80546001600160a01b0319166001600160a01b0383811691821790925560c954604051636eb1769f60e11b815230600482015260248101929092529091169063dd62ed3e9060440160206040518083038186803b158015610a5557600080fd5b505afa158015610a69573d6000803e3d6000fd5b505050506040513d601f19601f82011682018060405250810190610a8d9190612f4a565b610ab05760cb5460c954610ab0916001600160a01b0391821691166000196120e9565b50565b6097546001600160a01b0316331480610ad6575060ca546001600160a01b031633145b610af25760405162461bcd60e51b815260040161060090612e60565b60026001541415610b155760405162461bcd60e51b815260040161060090612f63565b600260015581610b5c5760405162461bcd60e51b81526020600482015260126024820152710536861726550657263206d757374203e20360741b6044820152606401610600565b670de0b6b3a7640000821115610ba05760405162461bcd60e51b81526020600482015260096024820152684f766572203130302560b81b6044820152606401610600565b600080610bab611ee0565b90925090506000610bbc8284612e07565b90506000670de0b6b3a7640000610bd38784612e1f565b610bdd9190612e3e565b6001600160a01b038816600090815260d060205260409020549091508511610c395760405162461bcd60e51b815260206004820152600f60248201526e139bdb98d9481a5cc818995a1a5b99608a1b6044820152606401610600565b6001600160a01b038716600090815260d06020908152604080832088905587835260d19091529020819055610c6e8583612245565b6000848211610d115760c9546040516370a0823160e01b8152306004820152869184916001600160a01b03909116906370a082319060240160206040518083038186803b158015610cbe57600080fd5b505afa158015610cd2573d6000803e3d6000fd5b505050506040513d601f19601f82011682018060405250810190610cf69190612f4a565b610d009190612e1f565b610d0a9190612e3e565b9050610e75565b60655460ff16610e2d5760cb546001600160a01b031663d38d5fc48986610d388987612f9a565b610d4a90670de0b6b3a7640000612e1f565b610d549190612e3e565b6040516001600160e01b031960e085901b1681526001600160a01b0390921660048301526024820152604401600060405180830381600087803b158015610d9a57600080fd5b505af1158015610dae573d6000803e3d6000fd5b505060c9546040516370a0823160e01b81523060048201526001600160a01b0390911692506370a08231915060240160206040518083038186803b158015610df557600080fd5b505afa158015610e09573d6000803e3d6000fd5b505050506040513d601f19601f82011682018060405250810190610d0a9190612f4a565b60405162461bcd60e51b815260206004820152601760248201527f526574727920616674657220616c6c20636c61696d65640000000000000000006044820152606401610600565b8015610e925760c954610e92906001600160a01b03168983612295565b60c954604080516001600160a01b038b81168252602082018690529092168282015260608201899052517f457f950b75085c30ff780acd57bde642ff1316cc4aad9f286af2c1ffc4163a789181900360800190a1505060018055505050505050565b60026001541415610f175760405162461bcd60e51b815260040161060090612f63565b6002600155610f25336122c5565b60018055565b60cb54604051634fb02c9560e01b81526001600160a01b0383811660048301526000928392839290911690634fb02c959060240160606040518083038186803b158015610f7757600080fd5b505afa158015610f8b573d6000803e3d6000fd5b505050506040513d601f19601f82011682018060405250810190610faf9190612f1c565b9250925092509193909250565b6097546001600160a01b0316331480610fdf575060ca546001600160a01b031633145b610ffb5760405162461bcd60e51b815260040161060090612e60565b6002600154141561101e5760405162461bcd60e51b815260040161060090612f63565b600260015561102c816122c5565b5060018055565b61103b61200e565b6001600160a01b03166110566097546001600160a01b031690565b6001600160a01b03161461107c5760405162461bcd60e51b815260040161060090612ebb565b60ca80546001600160a01b038381166001600160a01b031983168117909355604080519190921680825260208201939093527f9f0ac88be9159761bacf6c9e7c294c397ebf594607f6b3f2f70e7e0841ea68e89101610734565b6110de61200e565b6001600160a01b03166110f96097546001600160a01b031690565b6001600160a01b03161461111f5760405162461bcd60e51b815260040161060090612ebb565b6111296000612364565b565b6097546001600160a01b031633148061114e575060ca546001600160a01b031633145b61116a5760405162461bcd60e51b815260040161060090612e60565b60655460ff1661118c5760405162461bcd60e51b815260040161060090612e8d565b8151815181146111d75760405162461bcd60e51b815260206004820152601660248201527509cdee840dac2e8c6d040c2e4e4c2f240d8cadccee8d60531b6044820152606401610600565b6000806111e2610914565b5090925090506111f28183612e07565b156112505760405162461bcd60e51b815260206004820152602860248201527f4e65656420746f20636c61696d20656d657267656e6379207769746864726177604482015267185b08199a5c9cdd60c21b6064820152608401610600565b6112586123b6565b60c9546040516370a0823160e01b81523060048201526000916001600160a01b0316906370a082319060240160206040518083038186803b15801561129c57600080fd5b505afa1580156112b0573d6000803e3d6000fd5b505050506040513d601f19601f820116820180604052508101906112d49190612f4a565b9050801561090c576000805b85811015611321578681815181106112fa576112fa612fb1565b60200260200101518261130d9190612e07565b91508061131981612fc7565b9150506112e0565b5060008567ffffffffffffffff81111561133d5761133d612a63565b604051908082528060200260200182016040528015611366578160200160208202803683370190505b50905060005b868110156113d357828489838151811061138857611388612fb1565b602002602001015161139a9190612e1f565b6113a49190612e3e565b8282815181106113b6576113b6612fb1565b6020908102919091010152806113cb81612fc7565b91505061136c565b5060cb54604051634dc3044160e11b81526001600160a01b0390911690639b86088290611406908b908590600401612cae565b600060405180830381600087803b15801561142057600080fd5b505af1158015611434573d6000803e3d6000fd5b505050507fc13e24d2b0a3bacd5d1a7c514125a1e27323abf7c86f6d36597f8752bbd7eed78360405161146991815260200190565b60405180910390a15050505050505050565b600060cd546000146114f75760cd5482101561149957506000919050565b60ce5482116114f757815b60cd5481106114f557600081815260cf602090815260409182902082518084019093528054835260010154908201819052156114e257519392505050565b50806114ed81612fe2565b9150506114a4565b505b6114ff611810565b92915050565b606080606060cb60009054906101000a90046001600160a01b03166001600160a01b031663aae092366040518163ffffffff1660e01b815260040160006040518083038186803b15801561155857600080fd5b505afa15801561156c573d6000803e3d6000fd5b505050506040513d6000823e601f3d908101601f1916820160405261159491908101906130b8565b80519193509150468167ffffffffffffffff8111156115b5576115b5612a63565b6040519080825280602002602001820160405280156115de578160200160208202803683370190505b50945060005b8281101561161c57818682815181106115ff576115ff612fb1565b60209081029190910101528061161481612fc7565b9150506115e4565b5060c9546040516370a0823160e01b81523060048201526000916001600160a01b0316906370a082319060240160206040518083038186803b15801561166157600080fd5b505afa158015611675573d6000803e3d6000fd5b505050506040513d601f19601f820116820180604052508101906116999190612f4a565b90506000811180156116ab5750600083115b156116f15760c9546116c6906001600160a01b031682612428565b846000815181106116d9576116d9612fb1565b602002602001018181516116ed9190612e07565b9052505b505050909192565b60608060cb60009054906101000a90046001600160a01b03166001600160a01b0316634631b2466040518163ffffffff1660e01b815260040160006040518083038186803b15801561174a57600080fd5b505afa15801561175e573d6000803e3d6000fd5b505050506040513d6000823e601f3d908101601f1916820160405261178691908101906130b8565b915091509091565b60cc5460c95460405163b3596f0760e01b81526001600160a01b0391821660048201526000928392169063b3596f0790602401604080518083038186803b1580156117d857600080fd5b505afa1580156117ec573d6000803e3d6000fd5b505050506040513d601f19601f820116820180604052508101906117869190613112565b600080600061181d611ee0565b909250905061182c8183612e07565b9250505090565b60cb546040805163c89d5b8b60e01b815290516000926001600160a01b03169163c89d5b8b916004808301926020929190829003018186803b15801561187857600080fd5b505afa15801561188c573d6000803e3d6000fd5b505050506040513d601f19601f820116820180604052508101906118b09190612f4a565b905090565b60cb5460405163da454e6160e01b81526001600160a01b038381166004830152606092839283928392839283928392169063da454e619060240160006040518083038186803b15801561190757600080fd5b505afa15801561191b573d6000803e3d6000fd5b505050506040513d6000823e601f3d908101601f19168201604052611943919081019061313e565b8551959b50939950919750955093509150468167ffffffffffffffff81111561196e5761196e612a63565b604051908082528060200260200182016040528015611997578160200160208202803683370190505b50985060005b828110156119d557818a82815181106119b8576119b8612fb1565b6020908102919091010152806119cd81612fc7565b91505061199d565b505050919395979092949650565b6097546001600160a01b0316331480611a06575060ca546001600160a01b031633145b611a225760405162461bcd60e51b815260040161060090612e60565b60655460ff1615611a455760405162461bcd60e51b815260040161060090613233565b611a4d61255d565b60cb60009054906101000a90046001600160a01b03166001600160a01b031663db2e21bc6040518163ffffffff1660e01b8152600401600060405180830381600087803b15801561067b57600080fd5b6097546001600160a01b0316331480611ac0575060ca546001600160a01b031633145b611adc5760405162461bcd60e51b815260040161060090612e60565b60026001541415611aff5760405162461bcd60e51b815260040161060090612f63565b600260015560655460ff1615611b275760405162461bcd60e51b815260040161060090613233565b6001600160a01b038416611b6f5760405162461bcd60e51b815260206004820152600f60248201526e125b9d985b1a59081858d8dbdd5b9d608a1b6044820152606401610600565b825182518114611bba5760405162461bcd60e51b815260206004820152601660248201527509cdee840dac2e8c6d040c2e4e4c2f240d8cadccee8d60531b6044820152606401610600565b60c954600090611bd690600690600160a01b900460ff1661325d565b611be190600a613364565b90506000805b83811015611c6b5782868281518110611c0257611c02612fb1565b6020026020010151611c149190612e1f565b868281518110611c2657611c26612fb1565b602002602001018181525050858181518110611c4457611c44612fb1565b602002602001015182611c579190612e07565b915080611c6381612fc7565b915050611be7565b5060008111611caf5760405162461bcd60e51b815260206004820152601060248201526f0416d6f756e7473206d757374203e20360841b6044820152606401610600565b6001600160a01b038716600090815260d060205260409020548411611d085760405162461bcd60e51b815260206004820152600f60248201526e139bdb98d9481a5cc818995a1a5b99608a1b6044820152606401610600565b6001600160a01b03808816600090815260d06020526040902085905560c954611d32911682612428565b600085815260d16020526040902055611d5284611d4d611810565b612245565b60c954611d6a906001600160a01b03168830846125b6565b60cb546040516326b89b7160e01b81526001600160a01b03909116906326b89b7190611d9c9089908990600401612cae565b600060405180830381600087803b158015611db657600080fd5b505af1158015611dca573d6000803e3d6000fd5b505060c954604080516001600160a01b038c811682526020820187905290921682820152517fe31c7b8d08ee7db0afa68782e1028ef92305caeea8626633ad44d413e30f6b2f9350908190036060019150a15050600180555050505050565b611e3161200e565b6001600160a01b0316611e4c6097546001600160a01b031690565b6001600160a01b031614611e725760405162461bcd60e51b815260040161060090612ebb565b6001600160a01b038116611ed75760405162461bcd60e51b815260206004820152602660248201527f4f776e61626c653a206e6577206f776e657220697320746865207a65726f206160448201526564647265737360d01b6064820152608401610600565b610ab081612364565b60c9546040516370a0823160e01b8152306004820152600091829182916001600160a01b0316906370a082319060240160206040518083038186803b158015611f2857600080fd5b505afa158015611f3c573d6000803e3d6000fd5b505050506040513d601f19601f82011682018060405250810190611f609190612f4a565b90508015611f815760c954611f7e906001600160a01b031682612428565b92505b60cb60009054906101000a90046001600160a01b03166001600160a01b031663bd244af46040518163ffffffff1660e01b815260040160206040518083038186803b158015611fcf57600080fd5b505afa158015611fe3573d6000803e3d6000fd5b505050506040513d601f19601f820116820180604052508101906120079190612f4a565b9150509091565b60006118b06125ee565b60008054600160a81b900460ff1615612061578160ff16600114801561203d5750303b155b6120595760405162461bcd60e51b815260040161060090613373565b506000919050565b60005460ff808416600160a01b909204161061208f5760405162461bcd60e51b815260040161060090613373565b506000805460ff909216600160a01b0260ff60a01b19909216919091179055600190565b919050565b600054600160a81b900460ff166120e15760405162461bcd60e51b8152600401610600906133c1565b611129612622565b8015806121725750604051636eb1769f60e11b81523060048201526001600160a01b03838116602483015284169063dd62ed3e9060440160206040518083038186803b15801561213857600080fd5b505afa15801561214c573d6000803e3d6000fd5b505050506040513d601f19601f820116820180604052508101906121709190612f4a565b155b6121dd5760405162461bcd60e51b815260206004820152603660248201527f5361666545524332303a20617070726f76652066726f6d206e6f6e2d7a65726f60448201527520746f206e6f6e2d7a65726f20616c6c6f77616e636560501b6064820152608401610600565b6040516001600160a01b03831660248201526044810182905261224090849063095ea7b360e01b906064015b60408051601f198184030181529190526020810180516001600160e01b03166001600160e01b03199093169290921790915261265b565b505050565b604080518082018252828152426020808301918252600086815260cf9091529290922090518155905160019091015560cd546122815760cd8290555b8160ce5410156122915760ce8290555b5050565b6040516001600160a01b03831660248201526044810182905261224090849063a9059cbb60e01b90606401612209565b60cb54604051630f41a04d60e11b81526001600160a01b0383811660048301526000921690631e83409a90602401602060405180830381600087803b15801561230d57600080fd5b505af1158015612321573d6000803e3d6000fd5b505050506040513d601f19601f820116820180604052508101906123459190612f4a565b905080156122915760c954612291906001600160a01b03168383612295565b609780546001600160a01b038381166001600160a01b0319831681179093556040519116919082907f8be0079c531659141344cd1fd0a4f28419497f9722a3daafe3b4186f6b6457e090600090a35050565b60655460ff166123d85760405162461bcd60e51b815260040161060090612e8d565b6065805460ff191690557f5db9ee0a495bf2e6ff9c91a7834c1ba4fdd244a5e8aa4e537bd38aeae4b073aa61240b61200e565b6040516001600160a01b03909116815260200160405180910390a1565b60cc5460405163b3596f0760e01b81526001600160a01b038481166004830152600092839283929091169063b3596f0790602401604080518083038186803b15801561247357600080fd5b505afa158015612487573d6000803e3d6000fd5b505050506040513d601f19601f820116820180604052508101906124ab9190613112565b915091506000856001600160a01b031663313ce5676040518163ffffffff1660e01b815260040160206040518083038186803b1580156124ea57600080fd5b505afa1580156124fe573d6000803e3d6000fd5b505050506040513d601f19601f820116820180604052508101906125229190612f01565b905061252f82600a613364565b8361253f878460ff16601261272d565b6125499190612e1f565b6125539190612e3e565b9695505050505050565b60655460ff16156125805760405162461bcd60e51b815260040161060090613233565b6065805460ff191660011790557f62e78cea01bee320cd4e420270b5ea74000d11b0c9f74754ebdbfc544b05a25861240b61200e565b6040516001600160a01b038085166024830152831660448201526064810182905261068f9085906323b872dd60e01b90608401612209565b60006018361080159061260b57506000546001600160a01b031633145b1561261d575060131936013560601c90565b503390565b600054600160a81b900460ff1661264b5760405162461bcd60e51b8152600401610600906133c1565b61112961265661200e565b612364565b60006126b0826040518060400160405280602081526020017f5361666545524332303a206c6f772d6c6576656c2063616c6c206661696c6564815250856001600160a01b03166127929092919063ffffffff16565b80519091501561224057808060200190518101906126ce919061340c565b6122405760405162461bcd60e51b815260206004820152602a60248201527f5361666545524332303a204552433230206f7065726174696f6e20646964206e6044820152691bdd081cdd58d8d9595960b21b6064820152608401610600565b60008183141561273e57508261278b565b8183101561276c576127508383612f9a565b61275b90600a61342e565b6127659085612e1f565b905061278b565b6127768284612f9a565b61278190600a61342e565b6127659085612e3e565b9392505050565b60606127a184846000856127a9565b949350505050565b60608247101561280a5760405162461bcd60e51b815260206004820152602660248201527f416464726573733a20696e73756666696369656e742062616c616e636520666f6044820152651c8818d85b1b60d21b6064820152608401610600565b6001600160a01b0385163b6128615760405162461bcd60e51b815260206004820152601d60248201527f416464726573733a2063616c6c20746f206e6f6e2d636f6e74726163740000006044820152606401610600565b600080866001600160a01b0316858760405161287d919061343a565b60006040518083038185875af1925050503d80600081146128ba576040519150601f19603f3d011682016040523d82523d6000602084013e6128bf565b606091505b50915091506128cf8282866128da565b979650505050505050565b606083156128e957508161278b565b8251156128f95782518084602001fd5b8160405162461bcd60e51b81526004016106009190612a30565b60006020828403121561292557600080fd5b5035919050565b6001600160a01b0381168114610ab057600080fd5b60006020828403121561295357600080fd5b813561278b8161292c565b600080600080600060a0868803121561297657600080fd5b85356129818161292c565b945060208601356129918161292c565b935060408601356129a18161292c565b925060608601356129b18161292c565b915060808601356129c18161292c565b809150509295509295909350565b6000806000606084860312156129e457600080fd5b83356129ef8161292c565b95602085013595506040909401359392505050565b60005b83811015612a1f578181015183820152602001612a07565b8381111561068f5750506000910152565b6020815260008251806020840152612a4f816040850160208701612a04565b601f01601f19169190910160400192915050565b634e487b7160e01b600052604160045260246000fd5b604051601f8201601f1916810167ffffffffffffffff81118282101715612aa257612aa2612a63565b604052919050565b600067ffffffffffffffff821115612ac457612ac4612a63565b5060051b60200190565b600082601f830112612adf57600080fd5b81356020612af4612aef83612aaa565b612a79565b82815260059290921b84018101918181019086841115612b1357600080fd5b8286015b84811015612b37578035612b2a8161292c565b8352918301918301612b17565b509695505050505050565b600082601f830112612b5357600080fd5b81356020612b63612aef83612aaa565b82815260059290921b84018101918181019086841115612b8257600080fd5b8286015b84811015612b375780358352918301918301612b86565b60008060408385031215612bb057600080fd5b823567ffffffffffffffff80821115612bc857600080fd5b612bd486838701612ace565b93506020850135915080821115612bea57600080fd5b50612bf785828601612b42565b9150509250929050565b600081518084526020808501945080840160005b83811015612c3157815187529582019590820190600101612c15565b509495945050505050565b600081518084526020808501945080840160005b83811015612c315781516001600160a01b031687529582019590820190600101612c50565b606081526000612c886060830186612c01565b8281036020840152612c9a8186612c3c565b905082810360408401526125538185612c01565b604081526000612cc16040830185612c3c565b8281036020840152612cd38185612c01565b95945050505050565b60e081526000612cef60e083018a612c01565b8281036020840152612d01818a612c3c565b90508281036040840152612d158189612c01565b90508281036060840152612d298188612c01565b90508281036080840152612d3d8187612c01565b905082810360a0840152612d518186612c01565b905082810360c0840152612d658185612c01565b9a9950505050505050505050565b60008060008060808587031215612d8957600080fd5b8435612d948161292c565b9350602085013567ffffffffffffffff80821115612db157600080fd5b612dbd88838901612ace565b94506040870135915080821115612dd357600080fd5b50612de087828801612b42565b949793965093946060013593505050565b634e487b7160e01b600052601160045260246000fd5b60008219821115612e1a57612e1a612df1565b500190565b6000816000190483118215151615612e3957612e39612df1565b500290565b600082612e5b57634e487b7160e01b600052601260045260246000fd5b500490565b60208082526013908201527227b7363c9037bbb732b91037b91030b236b4b760691b604082015260600190565b60208082526014908201527314185d5cd8589b194e881b9bdd081c185d5cd95960621b604082015260600190565b6020808252818101527f4f776e61626c653a2063616c6c6572206973206e6f7420746865206f776e6572604082015260600190565b805160ff811681146120b357600080fd5b600060208284031215612f1357600080fd5b61278b82612ef0565b600080600060608486031215612f3157600080fd5b8351925060208401519150604084015190509250925092565b600060208284031215612f5c57600080fd5b5051919050565b6020808252601f908201527f5265656e7472616e637947756172643a207265656e7472616e742063616c6c00604082015260600190565b600082821015612fac57612fac612df1565b500390565b634e487b7160e01b600052603260045260246000fd5b6000600019821415612fdb57612fdb612df1565b5060010190565b600081612ff157612ff1612df1565b506000190190565b600082601f83011261300a57600080fd5b8151602061301a612aef83612aaa565b82815260059290921b8401810191818101908684111561303957600080fd5b8286015b84811015612b375780516130508161292c565b835291830191830161303d565b600082601f83011261306e57600080fd5b8151602061307e612aef83612aaa565b82815260059290921b8401810191818101908684111561309d57600080fd5b8286015b84811015612b3757805183529183019183016130a1565b600080604083850312156130cb57600080fd5b825167ffffffffffffffff808211156130e357600080fd5b6130ef86838701612ff9565b9350602085015191508082111561310557600080fd5b50612bf78582860161305d565b6000806040838503121561312557600080fd5b8251915061313560208401612ef0565b90509250929050565b60008060008060008060c0878903121561315757600080fd5b865167ffffffffffffffff8082111561316f57600080fd5b61317b8a838b01612ff9565b9750602089015191508082111561319157600080fd5b61319d8a838b0161305d565b965060408901519150808211156131b357600080fd5b6131bf8a838b0161305d565b955060608901519150808211156131d557600080fd5b6131e18a838b0161305d565b945060808901519150808211156131f757600080fd5b6132038a838b0161305d565b935060a089015191508082111561321957600080fd5b5061322689828a0161305d565b9150509295509295509295565b60208082526010908201526f14185d5cd8589b194e881c185d5cd95960821b604082015260600190565b600060ff821660ff84168082101561327757613277612df1565b90039392505050565b600181815b808511156132bb5781600019048211156132a1576132a1612df1565b808516156132ae57918102915b93841c9390800290613285565b509250929050565b6000826132d2575060016114ff565b816132df575060006114ff565b81600181146132f557600281146132ff5761331b565b60019150506114ff565b60ff84111561331057613310612df1565b50506001821b6114ff565b5060208310610133831016604e8410600b841016171561333e575081810a6114ff565b6133488383613280565b806000190482111561335c5761335c612df1565b029392505050565b600061278b60ff8416836132c3565b6020808252602e908201527f496e697469616c697a61626c653a20636f6e747261637420697320616c72656160408201526d191e481a5b9a5d1a585b1a5e995960921b606082015260800190565b6020808252602b908201527f496e697469616c697a61626c653a20636f6e7472616374206973206e6f74206960408201526a6e697469616c697a696e6760a81b606082015260800190565b60006020828403121561341e57600080fd5b8151801515811461278b57600080fd5b600061278b83836132c3565b6000825161344c818460208701612a04565b919091019291505056fea2646970667358221220ff74e8ebef7c80f7c7946a3888663684391327a5d39b25576ff413e747ae726064736f6c63430008090033",
  "devdoc": {
    "kind": "dev",
    "methods": {
      "depositByAdmin(address,address[],uint256[],uint256)": {
        "params": {
          "_USDTAmts": "amounts of USDT should be deposited to each pools. It's 6 decimals"
        }
      },
      "getUSDTPriceInUSD()": {
        "returns": {
          "_0": "the price of USDT in USD."
        }
      },
      "getWithdrawableSharePerc()": {
        "returns": {
          "chainID": "is the ID of the current chain",
          "sharePerc": "is percentage of the value in the vault of the total value. It's useful for calculating the withdrawable share under emergency status."
        }
      },
      "owner()": {
        "details": "Returns the address of the current owner."
      },
      "paused()": {
        "details": "Returns true if the contract is paused, and false otherwise."
      },
      "renounceOwnership()": {
        "details": "Leaves the contract without owner. It will not be possible to call `onlyOwner` functions anymore. Can only be called by the current owner. NOTE: Renouncing ownership will leave the contract without an owner, thereby removing any functionality that is only available to the owner."
      },
      "transferOwnership(address)": {
        "details": "Transfers ownership of the contract to a new account (`newOwner`). Can only be called by the current owner."
      },
      "withdrawPercByAdmin(address,uint256,uint256)": {
        "params": {
          "_sharePerc": "percentage of assets which should be withdrawn. It's 18 decimals"
        }
      }
    },
    "version": 1
  },
  "userdoc": {
    "kind": "user",
    "methods": {
      "depositByAdmin(address,address[],uint256[],uint256)": {
        "notice": "The length of array is based on token count. And the lengths should be same on the arraies."
      },
      "isTrustedForwarder(address)": {
        "notice": "return if the forwarder is trusted to forward relayed transactions to us. the forwarder is required to verify the sender's signature, and verify the call is not a replay."
      }
    },
    "version": 1
  },
  "storageLayout": {
    "storage": [
      {
        "astId": 51521,
        "contract": "contracts/sti/STIVault.sol:STIVault",
        "label": "trustedForwarder",
        "offset": 0,
        "slot": "0",
        "type": "t_address"
      },
      {
        "astId": 130,
        "contract": "contracts/sti/STIVault.sol:STIVault",
        "label": "_initialized",
        "offset": 20,
        "slot": "0",
        "type": "t_uint8"
      },
      {
        "astId": 133,
        "contract": "contracts/sti/STIVault.sol:STIVault",
        "label": "_initializing",
        "offset": 21,
        "slot": "0",
        "type": "t_bool"
      },
      {
        "astId": 390,
        "contract": "contracts/sti/STIVault.sol:STIVault",
        "label": "_status",
        "offset": 0,
        "slot": "1",
        "type": "t_uint256"
      },
      {
        "astId": 434,
        "contract": "contracts/sti/STIVault.sol:STIVault",
        "label": "__gap",
        "offset": 0,
        "slot": "2",
        "type": "t_array(t_uint256)49_storage"
      },
      {
        "astId": 2709,
        "contract": "contracts/sti/STIVault.sol:STIVault",
        "label": "__gap",
        "offset": 0,
        "slot": "51",
        "type": "t_array(t_uint256)50_storage"
      },
      {
        "astId": 286,
        "contract": "contracts/sti/STIVault.sol:STIVault",
        "label": "_paused",
        "offset": 0,
        "slot": "101",
        "type": "t_bool"
      },
      {
        "astId": 375,
        "contract": "contracts/sti/STIVault.sol:STIVault",
        "label": "__gap",
        "offset": 0,
        "slot": "102",
        "type": "t_array(t_uint256)49_storage"
      },
      {
        "astId": 10,
        "contract": "contracts/sti/STIVault.sol:STIVault",
        "label": "_owner",
        "offset": 0,
        "slot": "151",
        "type": "t_address"
      },
      {
        "astId": 122,
        "contract": "contracts/sti/STIVault.sol:STIVault",
        "label": "__gap",
        "offset": 0,
        "slot": "152",
        "type": "t_array(t_uint256)49_storage"
      },
      {
        "astId": 43262,
        "contract": "contracts/sti/STIVault.sol:STIVault",
        "label": "USDT",
        "offset": 0,
        "slot": "201",
        "type": "t_contract(IERC20UpgradeableExt)51017"
      },
      {
        "astId": 43264,
        "contract": "contracts/sti/STIVault.sol:STIVault",
        "label": "usdtDecimals",
        "offset": 20,
        "slot": "201",
        "type": "t_uint8"
      },
      {
        "astId": 43266,
        "contract": "contracts/sti/STIVault.sol:STIVault",
        "label": "admin",
        "offset": 0,
        "slot": "202",
        "type": "t_address"
      },
      {
        "astId": 43269,
        "contract": "contracts/sti/STIVault.sol:STIVault",
        "label": "strategy",
        "offset": 0,
        "slot": "203",
        "type": "t_contract(IStrategy)43242"
      },
      {
        "astId": 43272,
        "contract": "contracts/sti/STIVault.sol:STIVault",
        "label": "priceOracle",
        "offset": 0,
        "slot": "204",
        "type": "t_contract(IPriceOracle)9022"
      },
      {
        "astId": 43274,
        "contract": "contracts/sti/STIVault.sol:STIVault",
        "label": "firstOperationNonce",
        "offset": 0,
        "slot": "205",
        "type": "t_uint256"
      },
      {
        "astId": 43276,
        "contract": "contracts/sti/STIVault.sol:STIVault",
        "label": "lastOperationNonce",
        "offset": 0,
        "slot": "206",
        "type": "t_uint256"
      },
      {
        "astId": 43281,
        "contract": "contracts/sti/STIVault.sol:STIVault",
        "label": "poolAtNonce",
        "offset": 0,
        "slot": "207",
        "type": "t_mapping(t_uint256,t_struct(PoolSnapshot)43259_storage)"
      },
      {
        "astId": 43285,
        "contract": "contracts/sti/STIVault.sol:STIVault",
        "label": "userLastOperationNonce",
        "offset": 0,
        "slot": "208",
        "type": "t_mapping(t_address,t_uint256)"
      },
      {
        "astId": 43289,
        "contract": "contracts/sti/STIVault.sol:STIVault",
        "label": "operationAmounts",
        "offset": 0,
        "slot": "209",
        "type": "t_mapping(t_uint256,t_uint256)"
      }
    ],
    "types": {
      "t_address": {
        "encoding": "inplace",
        "label": "address",
        "numberOfBytes": "20"
      },
      "t_array(t_uint256)49_storage": {
        "base": "t_uint256",
        "encoding": "inplace",
        "label": "uint256[49]",
        "numberOfBytes": "1568"
      },
      "t_array(t_uint256)50_storage": {
        "base": "t_uint256",
        "encoding": "inplace",
        "label": "uint256[50]",
        "numberOfBytes": "1600"
      },
      "t_bool": {
        "encoding": "inplace",
        "label": "bool",
        "numberOfBytes": "1"
      },
      "t_contract(IERC20UpgradeableExt)51017": {
        "encoding": "inplace",
        "label": "contract IERC20UpgradeableExt",
        "numberOfBytes": "20"
      },
      "t_contract(IPriceOracle)9022": {
        "encoding": "inplace",
        "label": "contract IPriceOracle",
        "numberOfBytes": "20"
      },
      "t_contract(IStrategy)43242": {
        "encoding": "inplace",
        "label": "contract IStrategy",
        "numberOfBytes": "20"
      },
      "t_mapping(t_address,t_uint256)": {
        "encoding": "mapping",
        "key": "t_address",
        "label": "mapping(address => uint256)",
        "numberOfBytes": "32",
        "value": "t_uint256"
      },
      "t_mapping(t_uint256,t_struct(PoolSnapshot)43259_storage)": {
        "encoding": "mapping",
        "key": "t_uint256",
        "label": "mapping(uint256 => struct STIVault.PoolSnapshot)",
        "numberOfBytes": "32",
        "value": "t_struct(PoolSnapshot)43259_storage"
      },
      "t_mapping(t_uint256,t_uint256)": {
        "encoding": "mapping",
        "key": "t_uint256",
        "label": "mapping(uint256 => uint256)",
        "numberOfBytes": "32",
        "value": "t_uint256"
      },
      "t_struct(PoolSnapshot)43259_storage": {
        "encoding": "inplace",
        "label": "struct STIVault.PoolSnapshot",
        "members": [
          {
            "astId": 43256,
            "contract": "contracts/sti/STIVault.sol:STIVault",
            "label": "poolInUSD",
            "offset": 0,
            "slot": "0",
            "type": "t_uint256"
          },
          {
            "astId": 43258,
            "contract": "contracts/sti/STIVault.sol:STIVault",
            "label": "ts",
            "offset": 0,
            "slot": "1",
            "type": "t_uint256"
          }
        ],
        "numberOfBytes": "64"
      },
      "t_uint256": {
        "encoding": "inplace",
        "label": "uint256",
        "numberOfBytes": "32"
      },
      "t_uint8": {
        "encoding": "inplace",
        "label": "uint8",
        "numberOfBytes": "1"
      }
    }
  }
}