{
  "address": "0xfA42Ad5199F54a060E30585593B0818E9c896F26",
  "abi": [
    {
      "anonymous": false,
      "inputs": [
        {
          "indexed": false,
          "internalType": "address",
          "name": "caller",
          "type": "address"
        },
        {
          "indexed": false,
          "internalType": "uint256",
          "name": "amtDeposit",
          "type": "uint256"
        },
        {
          "indexed": false,
          "internalType": "address",
          "name": "tokenDeposit",
          "type": "address"
        }
      ],
      "name": "Deposit",
      "type": "event"
    },
    {
      "anonymous": false,
      "inputs": [
        {
          "indexed": false,
          "internalType": "uint8",
          "name": "version",
          "type": "uint8"
        }
      ],
      "name": "Initialized",
      "type": "event"
    },
    {
      "anonymous": false,
      "inputs": [
        {
          "indexed": true,
          "internalType": "address",
          "name": "previousOwner",
          "type": "address"
        },
        {
          "indexed": true,
          "internalType": "address",
          "name": "newOwner",
          "type": "address"
        }
      ],
      "name": "OwnershipTransferred",
      "type": "event"
    },
    {
      "anonymous": false,
      "inputs": [
        {
          "indexed": false,
          "internalType": "address",
          "name": "account",
          "type": "address"
        }
      ],
      "name": "Paused",
      "type": "event"
    },
    {
      "anonymous": false,
      "inputs": [
        {
          "indexed": false,
          "internalType": "uint256",
          "name": "amount",
          "type": "uint256"
        }
      ],
      "name": "Reinvest",
      "type": "event"
    },
    {
      "anonymous": false,
      "inputs": [
        {
          "indexed": false,
          "internalType": "address",
          "name": "oldAdmin",
          "type": "address"
        },
        {
          "indexed": false,
          "internalType": "address",
          "name": "newAdmin",
          "type": "address"
        }
      ],
      "name": "SetAdminWallet",
      "type": "event"
    },
    {
      "anonymous": false,
      "inputs": [
        {
          "indexed": false,
          "internalType": "address",
          "name": "oldBiconomy",
          "type": "address"
        },
        {
          "indexed": false,
          "internalType": "address",
          "name": "newBiconomy",
          "type": "address"
        }
      ],
      "name": "SetBiconomy",
      "type": "event"
    },
    {
      "anonymous": false,
      "inputs": [
        {
          "indexed": false,
          "internalType": "address",
          "name": "account",
          "type": "address"
        }
      ],
      "name": "Unpaused",
      "type": "event"
    },
    {
      "anonymous": false,
      "inputs": [
        {
          "indexed": false,
          "internalType": "address",
          "name": "caller",
          "type": "address"
        },
        {
          "indexed": false,
          "internalType": "uint256",
          "name": "amtWithdraw",
          "type": "uint256"
        },
        {
          "indexed": false,
          "internalType": "address",
          "name": "tokenWithdraw",
          "type": "address"
        },
        {
          "indexed": false,
          "internalType": "uint256",
          "name": "sharePerc",
          "type": "uint256"
        }
      ],
      "name": "Withdraw",
      "type": "event"
    },
    {
      "inputs": [],
      "name": "USDT",
      "outputs": [
        {
          "internalType": "contract IERC20UpgradeableExt",
          "name": "",
          "type": "address"
        }
      ],
      "stateMutability": "view",
      "type": "function"
    },
    {
      "inputs": [],
      "name": "admin",
      "outputs": [
        {
          "internalType": "address",
          "name": "",
          "type": "address"
        }
      ],
      "stateMutability": "view",
      "type": "function"
    },
    {
      "inputs": [],
      "name": "claim",
      "outputs": [],
      "stateMutability": "nonpayable",
      "type": "function"
    },
    {
      "inputs": [
        {
          "internalType": "address",
          "name": "_account",
          "type": "address"
        }
      ],
      "name": "claimByAdmin",
      "outputs": [],
      "stateMutability": "nonpayable",
      "type": "function"
    },
    {
      "inputs": [],
      "name": "claimEmergencyWithdrawal",
      "outputs": [],
      "stateMutability": "nonpayable",
      "type": "function"
    },
    {
      "inputs": [
        {
          "internalType": "address",
          "name": "_account",
          "type": "address"
        },
        {
          "internalType": "address[]",
          "name": "_tokens",
          "type": "address[]"
        },
        {
          "internalType": "uint256[]",
          "name": "_USDTAmts",
          "type": "uint256[]"
        }
      ],
      "name": "depositByAdmin",
      "outputs": [],
      "stateMutability": "nonpayable",
      "type": "function"
    },
    {
      "inputs": [],
      "name": "emergencyWithdraw",
      "outputs": [],
      "stateMutability": "nonpayable",
      "type": "function"
    },
    {
      "inputs": [],
      "name": "getAPR",
      "outputs": [
        {
          "internalType": "uint256",
          "name": "",
          "type": "uint256"
        }
      ],
      "stateMutability": "view",
      "type": "function"
    },
    {
      "inputs": [],
      "name": "getAllPoolInUSD",
      "outputs": [
        {
          "internalType": "uint256",
          "name": "allPool",
          "type": "uint256"
        }
      ],
      "stateMutability": "view",
      "type": "function"
    },
    {
      "inputs": [
        {
          "internalType": "address",
          "name": "_account",
          "type": "address"
        }
      ],
      "name": "getAllUnbonded",
      "outputs": [
        {
          "internalType": "uint256",
          "name": "waitingInUSD",
          "type": "uint256"
        },
        {
          "internalType": "uint256",
          "name": "unbondedInUSD",
          "type": "uint256"
        },
        {
          "internalType": "uint256",
          "name": "waitForTs",
          "type": "uint256"
        }
      ],
      "stateMutability": "view",
      "type": "function"
    },
    {
      "inputs": [],
      "name": "getChainID",
      "outputs": [
        {
          "internalType": "uint256",
          "name": "id",
          "type": "uint256"
        }
      ],
      "stateMutability": "view",
      "type": "function"
    },
    {
      "inputs": [],
      "name": "getCurrentCompositionPerc",
      "outputs": [
        {
          "internalType": "address[]",
          "name": "tokens",
          "type": "address[]"
        },
        {
          "internalType": "uint256[]",
          "name": "percentages",
          "type": "uint256[]"
        }
      ],
      "stateMutability": "view",
      "type": "function"
    },
    {
      "inputs": [],
      "name": "getEachPoolInUSD",
      "outputs": [
        {
          "internalType": "uint256[]",
          "name": "chainIDs",
          "type": "uint256[]"
        },
        {
          "internalType": "address[]",
          "name": "tokens",
          "type": "address[]"
        },
        {
          "internalType": "uint256[]",
          "name": "pools",
          "type": "uint256[]"
        }
      ],
      "stateMutability": "view",
      "type": "function"
    },
    {
      "inputs": [],
      "name": "getEmergencyWithdrawalUnbonded",
      "outputs": [
        {
          "internalType": "uint256",
          "name": "waitingInUSD",
          "type": "uint256"
        },
        {
          "internalType": "uint256",
          "name": "unbondedInUSD",
          "type": "uint256"
        },
        {
          "internalType": "uint256",
          "name": "waitForTs",
          "type": "uint256"
        }
      ],
      "stateMutability": "view",
      "type": "function"
    },
    {
      "inputs": [
        {
          "internalType": "address",
          "name": "_account",
          "type": "address"
        }
      ],
      "name": "getPoolsUnbonded",
      "outputs": [
        {
          "internalType": "uint256[]",
          "name": "chainIDs",
          "type": "uint256[]"
        },
        {
          "internalType": "address[]",
          "name": "tokens",
          "type": "address[]"
        },
        {
          "internalType": "uint256[]",
          "name": "waitings",
          "type": "uint256[]"
        },
        {
          "internalType": "uint256[]",
          "name": "waitingInUSDs",
          "type": "uint256[]"
        },
        {
          "internalType": "uint256[]",
          "name": "unbondeds",
          "type": "uint256[]"
        },
        {
          "internalType": "uint256[]",
          "name": "unbondedInUSDs",
          "type": "uint256[]"
        },
        {
          "internalType": "uint256[]",
          "name": "waitForTses",
          "type": "uint256[]"
        }
      ],
      "stateMutability": "view",
      "type": "function"
    },
    {
      "inputs": [],
      "name": "getUSDTPriceInUSD",
      "outputs": [
        {
          "internalType": "uint256",
          "name": "",
          "type": "uint256"
        },
        {
          "internalType": "uint8",
          "name": "",
          "type": "uint8"
        }
      ],
      "stateMutability": "view",
      "type": "function"
    },
    {
      "inputs": [],
      "name": "getWithdrawableSharePerc",
      "outputs": [
        {
          "internalType": "uint256",
          "name": "chainID",
          "type": "uint256"
        },
        {
          "internalType": "uint256",
          "name": "sharePerc",
          "type": "uint256"
        }
      ],
      "stateMutability": "view",
      "type": "function"
    },
    {
      "inputs": [
        {
          "internalType": "address",
          "name": "_admin",
          "type": "address"
        },
        {
          "internalType": "address",
          "name": "_biconomy",
          "type": "address"
        },
        {
          "internalType": "address",
          "name": "_strategy",
          "type": "address"
        },
        {
          "internalType": "address",
          "name": "_priceOracle",
          "type": "address"
        },
        {
          "internalType": "address",
          "name": "_USDT",
          "type": "address"
        }
      ],
      "name": "initialize",
      "outputs": [],
      "stateMutability": "nonpayable",
      "type": "function"
    },
    {
      "inputs": [
        {
          "internalType": "address",
          "name": "forwarder",
          "type": "address"
        }
      ],
      "name": "isTrustedForwarder",
      "outputs": [
        {
          "internalType": "bool",
          "name": "",
          "type": "bool"
        }
      ],
      "stateMutability": "view",
      "type": "function"
    },
    {
      "inputs": [],
      "name": "owner",
      "outputs": [
        {
          "internalType": "address",
          "name": "",
          "type": "address"
        }
      ],
      "stateMutability": "view",
      "type": "function"
    },
    {
      "inputs": [],
      "name": "paused",
      "outputs": [
        {
          "internalType": "bool",
          "name": "",
          "type": "bool"
        }
      ],
      "stateMutability": "view",
      "type": "function"
    },
    {
      "inputs": [],
      "name": "priceOracle",
      "outputs": [
        {
          "internalType": "contract IPriceOracle",
          "name": "",
          "type": "address"
        }
      ],
      "stateMutability": "view",
      "type": "function"
    },
    {
      "inputs": [
        {
          "internalType": "address[]",
          "name": "_tokens",
          "type": "address[]"
        },
        {
          "internalType": "uint256[]",
          "name": "_perc",
          "type": "uint256[]"
        }
      ],
      "name": "reinvest",
      "outputs": [],
      "stateMutability": "nonpayable",
      "type": "function"
    },
    {
      "inputs": [],
      "name": "renounceOwnership",
      "outputs": [],
      "stateMutability": "nonpayable",
      "type": "function"
    },
    {
      "inputs": [
        {
          "internalType": "address",
          "name": "_admin",
          "type": "address"
        }
      ],
      "name": "setAdmin",
      "outputs": [],
      "stateMutability": "nonpayable",
      "type": "function"
    },
    {
      "inputs": [
        {
          "internalType": "address",
          "name": "_biconomy",
          "type": "address"
        }
      ],
      "name": "setBiconomy",
      "outputs": [],
      "stateMutability": "nonpayable",
      "type": "function"
    },
    {
      "inputs": [
        {
          "internalType": "address",
          "name": "_strategy",
          "type": "address"
        }
      ],
      "name": "setStrategy",
      "outputs": [],
      "stateMutability": "nonpayable",
      "type": "function"
    },
    {
      "inputs": [],
      "name": "strategy",
      "outputs": [
        {
          "internalType": "contract IStrategy",
          "name": "",
          "type": "address"
        }
      ],
      "stateMutability": "view",
      "type": "function"
    },
    {
      "inputs": [
        {
          "internalType": "address",
          "name": "newOwner",
          "type": "address"
        }
      ],
      "name": "transferOwnership",
      "outputs": [],
      "stateMutability": "nonpayable",
      "type": "function"
    },
    {
      "inputs": [],
      "name": "trustedForwarder",
      "outputs": [
        {
          "internalType": "address",
          "name": "",
          "type": "address"
        }
      ],
      "stateMutability": "view",
      "type": "function"
    },
    {
      "inputs": [],
      "name": "versionRecipient",
      "outputs": [
        {
          "internalType": "string",
          "name": "",
          "type": "string"
        }
      ],
      "stateMutability": "pure",
      "type": "function"
    },
    {
      "inputs": [
        {
          "internalType": "address",
          "name": "_account",
          "type": "address"
        },
        {
          "internalType": "uint256",
          "name": "_sharePerc",
          "type": "uint256"
        }
      ],
      "name": "withdrawPercByAdmin",
      "outputs": [],
      "stateMutability": "nonpayable",
      "type": "function"
    }
  ],
  "transactionHash": "0x64815f3b30a57f726500d7da996bb3f0ae4d5237381f5ecdfa773eb0dc3ab257",
  "args": [],
  "numDeployments": 2,
  "solcInputHash": "2307edc77e035cd3c350c10aab722186",
  "bytecode": "0x608060405234801561001057600080fd5b5061317b806100206000396000f3fe608060405234801561001057600080fd5b50600436106101f05760003560e01c80637da0a8771161010f578063c5434618116100a2578063da454e6111610071578063da454e6114610440578063db2e21bc14610466578063f2fde38b1461046e578063f851a4401461048157600080fd5b8063c5434618146103ff578063c54e44eb14610412578063c89d5b8b14610425578063ccbbd1d71461042d57600080fd5b8063aae09236116100de578063aae09236146103ab578063ac25f689146103c2578063b47c6a27146103d8578063bd244af4146103f757600080fd5b80637da0a877146103615780638da5cb5b146103745780639b86088214610385578063a8c62e761461039857600080fd5b80634e71d92d11610187578063572b6c0511610156578063572b6c05146103095780635c975abb1461033b578063704b6c0214610346578063715018a61461035957600080fd5b80634e71d92d146102cb5780634fb02c95146102d35780634fc97cdf146102e6578063564b81ef146102f957600080fd5b806325b074f6116101c357806325b074f6146102475780632630c12f1461026a57806333a100ca14610295578063486ff0cd146102a857600080fd5b806304fe09ee146101f557806309b056f8146102175780630d8b76a8146102215780631459457a14610234575b600080fd5b6101fd610494565b604080519283526020830191909152015b60405180910390f35b61021f6104ef565b005b61021f61022f36600461264e565b6105c3565b61021f61024236600461266b565b61066e565b61024f610842565b6040805193845260208401929092529082015260600161020e565b60cc5461027d906001600160a01b031681565b6040516001600160a01b03909116815260200161020e565b61021f6102a336600461264e565b6108d8565b60408051808201825260018152603160f81b6020820152905161020e9190612708565b61021f6109e1565b61024f6102e136600461264e565b610a18565b61021f6102f436600461264e565b610aa9565b465b60405190815260200161020e565b61032b61031736600461264e565b6000546001600160a01b0391821691161490565b604051901515815260200161020e565b60655460ff1661032b565b61021f61035436600461264e565b610b20565b61021f610bc3565b60005461027d906001600160a01b031681565b6097546001600160a01b031661027d565b61021f610393366004612875565b610c18565b60cb5461027d906001600160a01b031681565b6103b3610f68565b60405161020e9392919061294d565b6103ca61115c565b60405161020e929190612990565b6103e06111f1565b6040805192835260ff90911660208301520161020e565b6102fb611273565b61021f61040d3660046129be565b611296565b60c95461027d906001600160a01b031681565b6102fb61157e565b61021f61043b366004612a34565b611600565b61045361044e36600461264e565b6119b1565b60405161020e9796959493929190612a60565b61021f611adf565b61021f61047c36600461264e565b611b99565b60ca5461027d906001600160a01b031681565b606554469060009060ff166104b15750670de0b6b3a76400009091565b6000806104bc611c50565b90925090506104cb8183612b0d565b6104dd83670de0b6b3a7640000612b25565b6104e79190612b44565b925050509091565b6097546001600160a01b0316331480610512575060ca546001600160a01b031633145b6105375760405162461bcd60e51b815260040161052e90612b66565b60405180910390fd5b60655460ff166105595760405162461bcd60e51b815260040161052e90612b93565b60cb60009054906101000a90046001600160a01b03166001600160a01b03166309b056f86040518163ffffffff1660e01b8152600401600060405180830381600087803b1580156105a957600080fd5b505af11580156105bd573d6000803e3d6000fd5b50505050565b6105cb611d7e565b6001600160a01b03166105e66097546001600160a01b031690565b6001600160a01b03161461060c5760405162461bcd60e51b815260040161052e90612bc1565b600080546001600160a01b038381166001600160a01b031983168117909355604080519190921680825260208201939093527f56b079178193d2a52b3949d9cd8bc5503daadffd4a704722e18b8325021a974191015b60405180910390a15050565b600061067a6001611d88565b90508015610696576000805460ff60a81b1916600160a81b1790555b61069e611e28565b60ca80546001600160a01b038089166001600160a01b0319928316179092556000805488841690831617905560cb805487841690831617905560cc805486841690831617905560c9805492851692909116821790556040805163313ce56760e01b8152905163313ce56791600480820192602092909190829003018186803b15801561072957600080fd5b505afa15801561073d573d6000803e3d6000fd5b505050506040513d601f19601f820116820180604052508101906107619190612c07565b60c9805460ff60a01b1916600160a01b60ff93841681029190911791829055900416600611156107d35760405162461bcd60e51b815260206004820152601760248201527f5553445420646563696d616c73206d757374203e3d2036000000000000000000604482015260640161052e565b60cb5460c9546107f2916001600160a01b039182169116600019611e59565b801561083a576000805460ff60a81b19169055604051600181527f7f26b83ff96e1f2b6a682f133852f6798a09c465da95921460cefb38474024989060200160405180910390a15b505050505050565b600080600060cb60009054906101000a90046001600160a01b03166001600160a01b03166325b074f66040518163ffffffff1660e01b815260040160606040518083038186803b15801561089557600080fd5b505afa1580156108a9573d6000803e3d6000fd5b505050506040513d601f19601f820116820180604052508101906108cd9190612c22565b925092509250909192565b6108e0611d7e565b6001600160a01b03166108fb6097546001600160a01b031690565b6001600160a01b0316146109215760405162461bcd60e51b815260040161052e90612bc1565b60cb80546001600160a01b0319166001600160a01b0383811691821790925560c954604051636eb1769f60e11b815230600482015260248101929092529091169063dd62ed3e9060440160206040518083038186803b15801561098357600080fd5b505afa158015610997573d6000803e3d6000fd5b505050506040513d601f19601f820116820180604052508101906109bb9190612c50565b6109de5760cb5460c9546109de916001600160a01b039182169116600019611e59565b50565b60026001541415610a045760405162461bcd60e51b815260040161052e90612c69565b6002600155610a1233611fb5565b60018055565b60cb54604051634fb02c9560e01b81526001600160a01b0383811660048301526000928392839290911690634fb02c959060240160606040518083038186803b158015610a6457600080fd5b505afa158015610a78573d6000803e3d6000fd5b505050506040513d601f19601f82011682018060405250810190610a9c9190612c22565b9250925092509193909250565b6097546001600160a01b0316331480610acc575060ca546001600160a01b031633145b610ae85760405162461bcd60e51b815260040161052e90612b66565b60026001541415610b0b5760405162461bcd60e51b815260040161052e90612c69565b6002600155610b1981611fb5565b5060018055565b610b28611d7e565b6001600160a01b0316610b436097546001600160a01b031690565b6001600160a01b031614610b695760405162461bcd60e51b815260040161052e90612bc1565b60ca80546001600160a01b038381166001600160a01b031983168117909355604080519190921680825260208201939093527f9f0ac88be9159761bacf6c9e7c294c397ebf594607f6b3f2f70e7e0841ea68e89101610662565b610bcb611d7e565b6001600160a01b0316610be66097546001600160a01b031690565b6001600160a01b031614610c0c5760405162461bcd60e51b815260040161052e90612bc1565b610c166000612058565b565b6097546001600160a01b0316331480610c3b575060ca546001600160a01b031633145b610c575760405162461bcd60e51b815260040161052e90612b66565b60655460ff16610c795760405162461bcd60e51b815260040161052e90612b93565b815181518114610cc45760405162461bcd60e51b815260206004820152601660248201527509cdee840dac2e8c6d040c2e4e4c2f240d8cadccee8d60531b604482015260640161052e565b600080610ccf610842565b509092509050610cdf8183612b0d565b15610d3d5760405162461bcd60e51b815260206004820152602860248201527f4e65656420746f20636c61696d20656d657267656e6379207769746864726177604482015267185b08199a5c9cdd60c21b606482015260840161052e565b610d456120aa565b60c9546040516370a0823160e01b81523060048201526000916001600160a01b0316906370a082319060240160206040518083038186803b158015610d8957600080fd5b505afa158015610d9d573d6000803e3d6000fd5b505050506040513d601f19601f82011682018060405250810190610dc19190612c50565b9050801561083a576000805b85811015610e0e57868181518110610de757610de7612ca0565b602002602001015182610dfa9190612b0d565b915080610e0681612cb6565b915050610dcd565b5060008567ffffffffffffffff811115610e2a57610e2a61273b565b604051908082528060200260200182016040528015610e53578160200160208202803683370190505b50905060005b86811015610ec0578284898381518110610e7557610e75612ca0565b6020026020010151610e879190612b25565b610e919190612b44565b828281518110610ea357610ea3612ca0565b602090810291909101015280610eb881612cb6565b915050610e59565b5060cb54604051634dc3044160e11b81526001600160a01b0390911690639b86088290610ef3908b908590600401612990565b600060405180830381600087803b158015610f0d57600080fd5b505af1158015610f21573d6000803e3d6000fd5b505050507fc13e24d2b0a3bacd5d1a7c514125a1e27323abf7c86f6d36597f8752bbd7eed783604051610f5691815260200190565b60405180910390a15050505050505050565b606080606060cb60009054906101000a90046001600160a01b03166001600160a01b031663aae092366040518163ffffffff1660e01b815260040160006040518083038186803b158015610fbb57600080fd5b505afa158015610fcf573d6000803e3d6000fd5b505050506040513d6000823e601f3d908101601f19168201604052610ff79190810190612d90565b80519193509150468167ffffffffffffffff8111156110185761101861273b565b604051908082528060200260200182016040528015611041578160200160208202803683370190505b50945060005b8281101561107f578186828151811061106257611062612ca0565b60209081029190910101528061107781612cb6565b915050611047565b5060c9546040516370a0823160e01b81523060048201526000916001600160a01b0316906370a082319060240160206040518083038186803b1580156110c457600080fd5b505afa1580156110d8573d6000803e3d6000fd5b505050506040513d601f19601f820116820180604052508101906110fc9190612c50565b905060008111801561110e5750600083115b156111545760c954611129906001600160a01b03168261211c565b8460008151811061113c5761113c612ca0565b602002602001018181516111509190612b0d565b9052505b505050909192565b60608060cb60009054906101000a90046001600160a01b03166001600160a01b0316634631b2466040518163ffffffff1660e01b815260040160006040518083038186803b1580156111ad57600080fd5b505afa1580156111c1573d6000803e3d6000fd5b505050506040513d6000823e601f3d908101601f191682016040526111e99190810190612d90565b915091509091565b60cc5460c95460405163b3596f0760e01b81526001600160a01b0391821660048201526000928392169063b3596f0790602401604080518083038186803b15801561123b57600080fd5b505afa15801561124f573d6000803e3d6000fd5b505050506040513d601f19601f820116820180604052508101906111e99190612dea565b6000806000611280611c50565b909250905061128f8183612b0d565b9250505090565b6097546001600160a01b03163314806112b9575060ca546001600160a01b031633145b6112d55760405162461bcd60e51b815260040161052e90612b66565b600260015414156112f85760405162461bcd60e51b815260040161052e90612c69565b600260015560655460ff16156113205760405162461bcd60e51b815260040161052e90612e16565b6001600160a01b0383166113685760405162461bcd60e51b815260206004820152600f60248201526e125b9d985b1a59081858d8dbdd5b9d608a1b604482015260640161052e565b8151815181146113b35760405162461bcd60e51b815260206004820152601660248201527509cdee840dac2e8c6d040c2e4e4c2f240d8cadccee8d60531b604482015260640161052e565b60c9546000906113cf90600690600160a01b900460ff16612e40565b6113da90600a612f47565b90506000805b8381101561146457828582815181106113fb576113fb612ca0565b602002602001015161140d9190612b25565b85828151811061141f5761141f612ca0565b60200260200101818152505084818151811061143d5761143d612ca0565b6020026020010151826114509190612b0d565b91508061145c81612cb6565b9150506113e0565b50600081116114a85760405162461bcd60e51b815260206004820152601060248201526f0416d6f756e7473206d757374203e20360841b604482015260640161052e565b60c9546114c0906001600160a01b0316873084612253565b60cb546040516326b89b7160e01b81526001600160a01b03909116906326b89b71906114f29088908890600401612990565b600060405180830381600087803b15801561150c57600080fd5b505af1158015611520573d6000803e3d6000fd5b505060c954604080516001600160a01b038b811682526020820187905290921682820152517fe31c7b8d08ee7db0afa68782e1028ef92305caeea8626633ad44d413e30f6b2f9350908190036060019150a150506001805550505050565b60cb546040805163c89d5b8b60e01b815290516000926001600160a01b03169163c89d5b8b916004808301926020929190829003018186803b1580156115c357600080fd5b505afa1580156115d7573d6000803e3d6000fd5b505050506040513d601f19601f820116820180604052508101906115fb9190612c50565b905090565b6097546001600160a01b0316331480611623575060ca546001600160a01b031633145b61163f5760405162461bcd60e51b815260040161052e90612b66565b600260015414156116625760405162461bcd60e51b815260040161052e90612c69565b6002600155806116a95760405162461bcd60e51b81526020600482015260126024820152710536861726550657263206d757374203e20360741b604482015260640161052e565b670de0b6b3a76400008111156116ed5760405162461bcd60e51b81526020600482015260096024820152684f766572203130302560b81b604482015260640161052e565b6000806116f8611c50565b909250905060006117098284612b0d565b90506000670de0b6b3a76400006117208684612b25565b61172a9190612b44565b905060008482116117cf5760c9546040516370a0823160e01b8152306004820152869184916001600160a01b03909116906370a082319060240160206040518083038186803b15801561177c57600080fd5b505afa158015611790573d6000803e3d6000fd5b505050506040513d601f19601f820116820180604052508101906117b49190612c50565b6117be9190612b25565b6117c89190612b44565b9050611933565b60655460ff166118eb5760cb546001600160a01b031663d38d5fc488866117f68987612f56565b61180890670de0b6b3a7640000612b25565b6118129190612b44565b6040516001600160e01b031960e085901b1681526001600160a01b0390921660048301526024820152604401600060405180830381600087803b15801561185857600080fd5b505af115801561186c573d6000803e3d6000fd5b505060c9546040516370a0823160e01b81523060048201526001600160a01b0390911692506370a08231915060240160206040518083038186803b1580156118b357600080fd5b505afa1580156118c7573d6000803e3d6000fd5b505050506040513d601f19601f820116820180604052508101906117c89190612c50565b60405162461bcd60e51b815260206004820152601760248201527f526574727920616674657220616c6c20636c61696d6564000000000000000000604482015260640161052e565b80156119505760c954611950906001600160a01b0316888361228b565b60c954604080516001600160a01b038a81168252602082018690529092168282015260608201889052517f457f950b75085c30ff780acd57bde642ff1316cc4aad9f286af2c1ffc4163a789181900360800190a15050600180555050505050565b60cb5460405163da454e6160e01b81526001600160a01b038381166004830152606092839283928392839283928392169063da454e619060240160006040518083038186803b158015611a0357600080fd5b505afa158015611a17573d6000803e3d6000fd5b505050506040513d6000823e601f3d908101601f19168201604052611a3f9190810190612f6d565b8551959b50939950919750955093509150468167ffffffffffffffff811115611a6a57611a6a61273b565b604051908082528060200260200182016040528015611a93578160200160208202803683370190505b50985060005b82811015611ad157818a8281518110611ab457611ab4612ca0565b602090810291909101015280611ac981612cb6565b915050611a99565b505050919395979092949650565b6097546001600160a01b0316331480611b02575060ca546001600160a01b031633145b611b1e5760405162461bcd60e51b815260040161052e90612b66565b60655460ff1615611b415760405162461bcd60e51b815260040161052e90612e16565b611b496122bb565b60cb60009054906101000a90046001600160a01b03166001600160a01b031663db2e21bc6040518163ffffffff1660e01b8152600401600060405180830381600087803b1580156105a957600080fd5b611ba1611d7e565b6001600160a01b0316611bbc6097546001600160a01b031690565b6001600160a01b031614611be25760405162461bcd60e51b815260040161052e90612bc1565b6001600160a01b038116611c475760405162461bcd60e51b815260206004820152602660248201527f4f776e61626c653a206e6577206f776e657220697320746865207a65726f206160448201526564647265737360d01b606482015260840161052e565b6109de81612058565b60c9546040516370a0823160e01b8152306004820152600091829182916001600160a01b0316906370a082319060240160206040518083038186803b158015611c9857600080fd5b505afa158015611cac573d6000803e3d6000fd5b505050506040513d601f19601f82011682018060405250810190611cd09190612c50565b90508015611cf15760c954611cee906001600160a01b03168261211c565b92505b60cb60009054906101000a90046001600160a01b03166001600160a01b031663bd244af46040518163ffffffff1660e01b815260040160206040518083038186803b158015611d3f57600080fd5b505afa158015611d53573d6000803e3d6000fd5b505050506040513d601f19601f82011682018060405250810190611d779190612c50565b9150509091565b60006115fb612314565b60008054600160a81b900460ff1615611dd1578160ff166001148015611dad5750303b155b611dc95760405162461bcd60e51b815260040161052e90613062565b506000919050565b60005460ff808416600160a01b9092041610611dff5760405162461bcd60e51b815260040161052e90613062565b506000805460ff909216600160a01b0260ff60a01b19909216919091179055600190565b919050565b600054600160a81b900460ff16611e515760405162461bcd60e51b815260040161052e906130b0565b610c16612348565b801580611ee25750604051636eb1769f60e11b81523060048201526001600160a01b03838116602483015284169063dd62ed3e9060440160206040518083038186803b158015611ea857600080fd5b505afa158015611ebc573d6000803e3d6000fd5b505050506040513d601f19601f82011682018060405250810190611ee09190612c50565b155b611f4d5760405162461bcd60e51b815260206004820152603660248201527f5361666545524332303a20617070726f76652066726f6d206e6f6e2d7a65726f60448201527520746f206e6f6e2d7a65726f20616c6c6f77616e636560501b606482015260840161052e565b6040516001600160a01b038316602482015260448101829052611fb090849063095ea7b360e01b906064015b60408051601f198184030181529190526020810180516001600160e01b03166001600160e01b031990931692909217909152612381565b505050565b60cb54604051630f41a04d60e11b81526001600160a01b0383811660048301526000921690631e83409a90602401602060405180830381600087803b158015611ffd57600080fd5b505af1158015612011573d6000803e3d6000fd5b505050506040513d601f19601f820116820180604052508101906120359190612c50565b905080156120545760c954612054906001600160a01b0316838361228b565b5050565b609780546001600160a01b038381166001600160a01b0319831681179093556040519116919082907f8be0079c531659141344cd1fd0a4f28419497f9722a3daafe3b4186f6b6457e090600090a35050565b60655460ff166120cc5760405162461bcd60e51b815260040161052e90612b93565b6065805460ff191690557f5db9ee0a495bf2e6ff9c91a7834c1ba4fdd244a5e8aa4e537bd38aeae4b073aa6120ff611d7e565b6040516001600160a01b03909116815260200160405180910390a1565b60cc5460405163b3596f0760e01b81526001600160a01b038481166004830152600092839283929091169063b3596f0790602401604080518083038186803b15801561216757600080fd5b505afa15801561217b573d6000803e3d6000fd5b505050506040513d601f19601f8201168201806040525081019061219f9190612dea565b915091506000856001600160a01b031663313ce5676040518163ffffffff1660e01b815260040160206040518083038186803b1580156121de57600080fd5b505afa1580156121f2573d6000803e3d6000fd5b505050506040513d601f19601f820116820180604052508101906122169190612c07565b905061222382600a612f47565b83612233878460ff166012612453565b61223d9190612b25565b6122479190612b44565b93505050505b92915050565b6040516001600160a01b03808516602483015283166044820152606481018290526105bd9085906323b872dd60e01b90608401611f79565b6040516001600160a01b038316602482015260448101829052611fb090849063a9059cbb60e01b90606401611f79565b60655460ff16156122de5760405162461bcd60e51b815260040161052e90612e16565b6065805460ff191660011790557f62e78cea01bee320cd4e420270b5ea74000d11b0c9f74754ebdbfc544b05a2586120ff611d7e565b60006018361080159061233157506000546001600160a01b031633145b15612343575060131936013560601c90565b503390565b600054600160a81b900460ff166123715760405162461bcd60e51b815260040161052e906130b0565b610c1661237c611d7e565b612058565b60006123d6826040518060400160405280602081526020017f5361666545524332303a206c6f772d6c6576656c2063616c6c206661696c6564815250856001600160a01b03166124b89092919063ffffffff16565b805190915015611fb057808060200190518101906123f491906130fb565b611fb05760405162461bcd60e51b815260206004820152602a60248201527f5361666545524332303a204552433230206f7065726174696f6e20646964206e6044820152691bdd081cdd58d8d9595960b21b606482015260840161052e565b6000818314156124645750826124b1565b81831015612492576124768383612f56565b61248190600a61311d565b61248b9085612b25565b90506124b1565b61249c8284612f56565b6124a790600a61311d565b61248b9085612b44565b9392505050565b60606124c784846000856124cf565b949350505050565b6060824710156125305760405162461bcd60e51b815260206004820152602660248201527f416464726573733a20696e73756666696369656e742062616c616e636520666f6044820152651c8818d85b1b60d21b606482015260840161052e565b6001600160a01b0385163b6125875760405162461bcd60e51b815260206004820152601d60248201527f416464726573733a2063616c6c20746f206e6f6e2d636f6e7472616374000000604482015260640161052e565b600080866001600160a01b031685876040516125a39190613129565b60006040518083038185875af1925050503d80600081146125e0576040519150601f19603f3d011682016040523d82523d6000602084013e6125e5565b606091505b50915091506125f5828286612600565b979650505050505050565b6060831561260f5750816124b1565b82511561261f5782518084602001fd5b8160405162461bcd60e51b815260040161052e9190612708565b6001600160a01b03811681146109de57600080fd5b60006020828403121561266057600080fd5b81356124b181612639565b600080600080600060a0868803121561268357600080fd5b853561268e81612639565b9450602086013561269e81612639565b935060408601356126ae81612639565b925060608601356126be81612639565b915060808601356126ce81612639565b809150509295509295909350565b60005b838110156126f75781810151838201526020016126df565b838111156105bd5750506000910152565b60208152600082518060208401526127278160408501602087016126dc565b601f01601f19169190910160400192915050565b634e487b7160e01b600052604160045260246000fd5b604051601f8201601f1916810167ffffffffffffffff8111828210171561277a5761277a61273b565b604052919050565b600067ffffffffffffffff82111561279c5761279c61273b565b5060051b60200190565b600082601f8301126127b757600080fd5b813560206127cc6127c783612782565b612751565b82815260059290921b840181019181810190868411156127eb57600080fd5b8286015b8481101561280f57803561280281612639565b83529183019183016127ef565b509695505050505050565b600082601f83011261282b57600080fd5b8135602061283b6127c783612782565b82815260059290921b8401810191818101908684111561285a57600080fd5b8286015b8481101561280f578035835291830191830161285e565b6000806040838503121561288857600080fd5b823567ffffffffffffffff808211156128a057600080fd5b6128ac868387016127a6565b935060208501359150808211156128c257600080fd5b506128cf8582860161281a565b9150509250929050565b600081518084526020808501945080840160005b83811015612909578151875295820195908201906001016128ed565b509495945050505050565b600081518084526020808501945080840160005b838110156129095781516001600160a01b031687529582019590820190600101612928565b60608152600061296060608301866128d9565b82810360208401526129728186612914565b9050828103604084015261298681856128d9565b9695505050505050565b6040815260006129a36040830185612914565b82810360208401526129b581856128d9565b95945050505050565b6000806000606084860312156129d357600080fd5b83356129de81612639565b9250602084013567ffffffffffffffff808211156129fb57600080fd5b612a07878388016127a6565b93506040860135915080821115612a1d57600080fd5b50612a2a8682870161281a565b9150509250925092565b60008060408385031215612a4757600080fd5b8235612a5281612639565b946020939093013593505050565b60e081526000612a7360e083018a6128d9565b8281036020840152612a85818a612914565b90508281036040840152612a9981896128d9565b90508281036060840152612aad81886128d9565b90508281036080840152612ac181876128d9565b905082810360a0840152612ad581866128d9565b905082810360c0840152612ae981856128d9565b9a9950505050505050505050565b634e487b7160e01b600052601160045260246000fd5b60008219821115612b2057612b20612af7565b500190565b6000816000190483118215151615612b3f57612b3f612af7565b500290565b600082612b6157634e487b7160e01b600052601260045260246000fd5b500490565b60208082526013908201527227b7363c9037bbb732b91037b91030b236b4b760691b604082015260600190565b60208082526014908201527314185d5cd8589b194e881b9bdd081c185d5cd95960621b604082015260600190565b6020808252818101527f4f776e61626c653a2063616c6c6572206973206e6f7420746865206f776e6572604082015260600190565b805160ff81168114611e2357600080fd5b600060208284031215612c1957600080fd5b6124b182612bf6565b600080600060608486031215612c3757600080fd5b8351925060208401519150604084015190509250925092565b600060208284031215612c6257600080fd5b5051919050565b6020808252601f908201527f5265656e7472616e637947756172643a207265656e7472616e742063616c6c00604082015260600190565b634e487b7160e01b600052603260045260246000fd5b6000600019821415612cca57612cca612af7565b5060010190565b600082601f830112612ce257600080fd5b81516020612cf26127c783612782565b82815260059290921b84018101918181019086841115612d1157600080fd5b8286015b8481101561280f578051612d2881612639565b8352918301918301612d15565b600082601f830112612d4657600080fd5b81516020612d566127c783612782565b82815260059290921b84018101918181019086841115612d7557600080fd5b8286015b8481101561280f5780518352918301918301612d79565b60008060408385031215612da357600080fd5b825167ffffffffffffffff80821115612dbb57600080fd5b612dc786838701612cd1565b93506020850151915080821115612ddd57600080fd5b506128cf85828601612d35565b60008060408385031215612dfd57600080fd5b82519150612e0d60208401612bf6565b90509250929050565b60208082526010908201526f14185d5cd8589b194e881c185d5cd95960821b604082015260600190565b600060ff821660ff841680821015612e5a57612e5a612af7565b90039392505050565b600181815b80851115612e9e578160001904821115612e8457612e84612af7565b80851615612e9157918102915b93841c9390800290612e68565b509250929050565b600082612eb55750600161224d565b81612ec25750600061224d565b8160018114612ed85760028114612ee257612efe565b600191505061224d565b60ff841115612ef357612ef3612af7565b50506001821b61224d565b5060208310610133831016604e8410600b8410161715612f21575081810a61224d565b612f2b8383612e63565b8060001904821115612f3f57612f3f612af7565b029392505050565b60006124b160ff841683612ea6565b600082821015612f6857612f68612af7565b500390565b60008060008060008060c08789031215612f8657600080fd5b865167ffffffffffffffff80821115612f9e57600080fd5b612faa8a838b01612cd1565b97506020890151915080821115612fc057600080fd5b612fcc8a838b01612d35565b96506040890151915080821115612fe257600080fd5b612fee8a838b01612d35565b9550606089015191508082111561300457600080fd5b6130108a838b01612d35565b9450608089015191508082111561302657600080fd5b6130328a838b01612d35565b935060a089015191508082111561304857600080fd5b5061305589828a01612d35565b9150509295509295509295565b6020808252602e908201527f496e697469616c697a61626c653a20636f6e747261637420697320616c72656160408201526d191e481a5b9a5d1a585b1a5e995960921b606082015260800190565b6020808252602b908201527f496e697469616c697a61626c653a20636f6e7472616374206973206e6f74206960408201526a6e697469616c697a696e6760a81b606082015260800190565b60006020828403121561310d57600080fd5b815180151581146124b157600080fd5b60006124b18383612ea6565b6000825161313b8184602087016126dc565b919091019291505056fea26469706673582212208ad7e6d800bf2d8bd332062ff6a6b0da0087340b837f417b4f9fe743e420a92f64736f6c63430008090033",
  "devdoc": {
    "kind": "dev",
    "methods": {
      "depositByAdmin(address,address[],uint256[])": {
        "params": {
          "_USDTAmts": "amounts of USDT should be deposited to each pools. It's 6 decimals"
        }
      },
      "getUSDTPriceInUSD()": {
        "returns": {
          "_0": "the price of USDT in USD."
        }
      },
      "getWithdrawableSharePerc()": {
        "returns": {
          "chainID": "is the ID of the current chain",
          "sharePerc": "is percentage of the value in the vault of the total value. It's useful for calculating the withdrawable share under emergency status."
        }
      },
      "owner()": {
        "details": "Returns the address of the current owner."
      },
      "paused()": {
        "details": "Returns true if the contract is paused, and false otherwise."
      },
      "renounceOwnership()": {
        "details": "Leaves the contract without owner. It will not be possible to call `onlyOwner` functions anymore. Can only be called by the current owner. NOTE: Renouncing ownership will leave the contract without an owner, thereby removing any functionality that is only available to the owner."
      },
      "transferOwnership(address)": {
        "details": "Transfers ownership of the contract to a new account (`newOwner`). Can only be called by the current owner."
      },
      "withdrawPercByAdmin(address,uint256)": {
        "params": {
          "_sharePerc": "percentage of assets which should be withdrawn. It's 18 decimals"
        }
      }
    },
    "version": 1
  },
  "userdoc": {
    "kind": "user",
    "methods": {
      "depositByAdmin(address,address[],uint256[])": {
        "notice": "The length of array is based on token count. And the lengths should be same on the arraies."
      },
      "isTrustedForwarder(address)": {
        "notice": "return if the forwarder is trusted to forward relayed transactions to us. the forwarder is required to verify the sender's signature, and verify the call is not a replay."
      }
    },
    "version": 1
  },
  "storageLayout": {
    "storage": [
      {
        "astId": 53142,
        "contract": "contracts/sti/STIVault.sol:STIVault",
        "label": "trustedForwarder",
        "offset": 0,
        "slot": "0",
        "type": "t_address"
      },
      {
        "astId": 130,
        "contract": "contracts/sti/STIVault.sol:STIVault",
        "label": "_initialized",
        "offset": 20,
        "slot": "0",
        "type": "t_uint8"
      },
      {
        "astId": 133,
        "contract": "contracts/sti/STIVault.sol:STIVault",
        "label": "_initializing",
        "offset": 21,
        "slot": "0",
        "type": "t_bool"
      },
      {
        "astId": 390,
        "contract": "contracts/sti/STIVault.sol:STIVault",
        "label": "_status",
        "offset": 0,
        "slot": "1",
        "type": "t_uint256"
      },
      {
        "astId": 434,
        "contract": "contracts/sti/STIVault.sol:STIVault",
        "label": "__gap",
        "offset": 0,
        "slot": "2",
        "type": "t_array(t_uint256)49_storage"
      },
      {
        "astId": 2709,
        "contract": "contracts/sti/STIVault.sol:STIVault",
        "label": "__gap",
        "offset": 0,
        "slot": "51",
        "type": "t_array(t_uint256)50_storage"
      },
      {
        "astId": 286,
        "contract": "contracts/sti/STIVault.sol:STIVault",
        "label": "_paused",
        "offset": 0,
        "slot": "101",
        "type": "t_bool"
      },
      {
        "astId": 375,
        "contract": "contracts/sti/STIVault.sol:STIVault",
        "label": "__gap",
        "offset": 0,
        "slot": "102",
        "type": "t_array(t_uint256)49_storage"
      },
      {
        "astId": 10,
        "contract": "contracts/sti/STIVault.sol:STIVault",
        "label": "_owner",
        "offset": 0,
        "slot": "151",
        "type": "t_address"
      },
      {
        "astId": 122,
        "contract": "contracts/sti/STIVault.sol:STIVault",
        "label": "__gap",
        "offset": 0,
        "slot": "152",
        "type": "t_array(t_uint256)49_storage"
      },
      {
        "astId": 45055,
        "contract": "contracts/sti/STIVault.sol:STIVault",
        "label": "USDT",
        "offset": 0,
        "slot": "201",
        "type": "t_contract(IERC20UpgradeableExt)52638"
      },
      {
        "astId": 45057,
        "contract": "contracts/sti/STIVault.sol:STIVault",
        "label": "usdtDecimals",
        "offset": 20,
        "slot": "201",
        "type": "t_uint8"
      },
      {
        "astId": 45059,
        "contract": "contracts/sti/STIVault.sol:STIVault",
        "label": "admin",
        "offset": 0,
        "slot": "202",
        "type": "t_address"
      },
      {
        "astId": 45062,
        "contract": "contracts/sti/STIVault.sol:STIVault",
        "label": "strategy",
        "offset": 0,
        "slot": "203",
        "type": "t_contract(IStrategy)45040"
      },
      {
        "astId": 45065,
        "contract": "contracts/sti/STIVault.sol:STIVault",
        "label": "priceOracle",
        "offset": 0,
        "slot": "204",
        "type": "t_contract(IPriceOracle)11071"
      }
    ],
    "types": {
      "t_address": {
        "encoding": "inplace",
        "label": "address",
        "numberOfBytes": "20"
      },
      "t_array(t_uint256)49_storage": {
        "base": "t_uint256",
        "encoding": "inplace",
        "label": "uint256[49]",
        "numberOfBytes": "1568"
      },
      "t_array(t_uint256)50_storage": {
        "base": "t_uint256",
        "encoding": "inplace",
        "label": "uint256[50]",
        "numberOfBytes": "1600"
      },
      "t_bool": {
        "encoding": "inplace",
        "label": "bool",
        "numberOfBytes": "1"
      },
      "t_contract(IERC20UpgradeableExt)52638": {
        "encoding": "inplace",
        "label": "contract IERC20UpgradeableExt",
        "numberOfBytes": "20"
      },
      "t_contract(IPriceOracle)11071": {
        "encoding": "inplace",
        "label": "contract IPriceOracle",
        "numberOfBytes": "20"
      },
      "t_contract(IStrategy)45040": {
        "encoding": "inplace",
        "label": "contract IStrategy",
        "numberOfBytes": "20"
      },
      "t_uint256": {
        "encoding": "inplace",
        "label": "uint256",
        "numberOfBytes": "32"
      },
      "t_uint8": {
        "encoding": "inplace",
        "label": "uint8",
        "numberOfBytes": "1"
      }
    }
  }
}