{
  "address": "0xA7D232115a654DE6f3838D356d197f1C882e3094",
  "abi": [
    {
      "anonymous": false,
      "inputs": [
        {
          "indexed": false,
          "internalType": "uint256",
          "name": "currentWatermark",
          "type": "uint256"
        },
        {
          "indexed": false,
          "internalType": "uint256",
          "name": "lastWatermark",
          "type": "uint256"
        }
      ],
      "name": "AdjustWatermark",
      "type": "event"
    },
    {
      "anonymous": false,
      "inputs": [
        {
          "indexed": true,
          "internalType": "address",
          "name": "owner",
          "type": "address"
        },
        {
          "indexed": true,
          "internalType": "address",
          "name": "spender",
          "type": "address"
        },
        {
          "indexed": false,
          "internalType": "uint256",
          "name": "value",
          "type": "uint256"
        }
      ],
      "name": "Approval",
      "type": "event"
    },
    {
      "anonymous": false,
      "inputs": [
        {
          "indexed": false,
          "internalType": "address",
          "name": "user",
          "type": "address"
        },
        {
          "indexed": false,
          "internalType": "uint256",
          "name": "reqId",
          "type": "uint256"
        },
        {
          "indexed": false,
          "internalType": "uint256",
          "name": "amount",
          "type": "uint256"
        }
      ],
      "name": "Claim",
      "type": "event"
    },
    {
      "anonymous": false,
      "inputs": [
        {
          "indexed": false,
          "internalType": "address",
          "name": "user",
          "type": "address"
        },
        {
          "indexed": false,
          "internalType": "uint256",
          "name": "amount",
          "type": "uint256"
        },
        {
          "indexed": false,
          "internalType": "uint256",
          "name": "claimedCount",
          "type": "uint256"
        }
      ],
      "name": "ClaimMulti",
      "type": "event"
    },
    {
      "anonymous": false,
      "inputs": [
        {
          "indexed": false,
          "internalType": "uint256",
          "name": "currentWatermark",
          "type": "uint256"
        },
        {
          "indexed": false,
          "internalType": "uint256",
          "name": "lastWatermark",
          "type": "uint256"
        },
        {
          "indexed": false,
          "internalType": "uint256",
          "name": "fee",
          "type": "uint256"
        }
      ],
      "name": "CollectProfitAndUpdateWatermark",
      "type": "event"
    },
    {
      "anonymous": false,
      "inputs": [
        {
          "indexed": false,
          "internalType": "address",
          "name": "user",
          "type": "address"
        },
        {
          "indexed": false,
          "internalType": "uint256",
          "name": "amount",
          "type": "uint256"
        },
        {
          "indexed": false,
          "internalType": "uint256",
          "name": "shares",
          "type": "uint256"
        }
      ],
      "name": "Deposit",
      "type": "event"
    },
    {
      "anonymous": false,
      "inputs": [
        {
          "indexed": false,
          "internalType": "uint256",
          "name": "stAmount",
          "type": "uint256"
        }
      ],
      "name": "EmergencyWithdraw",
      "type": "event"
    },
    {
      "anonymous": false,
      "inputs": [
        {
          "indexed": false,
          "internalType": "uint8",
          "name": "version",
          "type": "uint8"
        }
      ],
      "name": "Initialized",
      "type": "event"
    },
    {
      "anonymous": false,
      "inputs": [
        {
          "indexed": false,
          "internalType": "uint256",
          "name": "amount",
          "type": "uint256"
        }
      ],
      "name": "Invest",
      "type": "event"
    },
    {
      "anonymous": false,
      "inputs": [
        {
          "indexed": true,
          "internalType": "address",
          "name": "previousOwner",
          "type": "address"
        },
        {
          "indexed": true,
          "internalType": "address",
          "name": "newOwner",
          "type": "address"
        }
      ],
      "name": "OwnershipTransferred",
      "type": "event"
    },
    {
      "anonymous": false,
      "inputs": [
        {
          "indexed": false,
          "internalType": "address",
          "name": "account",
          "type": "address"
        }
      ],
      "name": "Paused",
      "type": "event"
    },
    {
      "anonymous": false,
      "inputs": [
        {
          "indexed": false,
          "internalType": "uint256",
          "name": "stAmount",
          "type": "uint256"
        }
      ],
      "name": "Redeem",
      "type": "event"
    },
    {
      "anonymous": false,
      "inputs": [
        {
          "indexed": true,
          "internalType": "address",
          "name": "from",
          "type": "address"
        },
        {
          "indexed": true,
          "internalType": "address",
          "name": "to",
          "type": "address"
        },
        {
          "indexed": false,
          "internalType": "uint256",
          "name": "value",
          "type": "uint256"
        }
      ],
      "name": "Transfer",
      "type": "event"
    },
    {
      "anonymous": false,
      "inputs": [
        {
          "indexed": false,
          "internalType": "uint256",
          "name": "fees",
          "type": "uint256"
        },
        {
          "indexed": false,
          "internalType": "address",
          "name": "token",
          "type": "address"
        }
      ],
      "name": "TransferredOutFees",
      "type": "event"
    },
    {
      "anonymous": false,
      "inputs": [
        {
          "indexed": false,
          "internalType": "address",
          "name": "account",
          "type": "address"
        }
      ],
      "name": "Unpaused",
      "type": "event"
    },
    {
      "anonymous": false,
      "inputs": [
        {
          "indexed": false,
          "internalType": "address",
          "name": "user",
          "type": "address"
        },
        {
          "indexed": false,
          "internalType": "uint256",
          "name": "shares",
          "type": "uint256"
        },
        {
          "indexed": false,
          "internalType": "uint256",
          "name": "amount",
          "type": "uint256"
        },
        {
          "indexed": false,
          "internalType": "uint256",
          "name": "reqId",
          "type": "uint256"
        },
        {
          "indexed": false,
          "internalType": "uint256",
          "name": "pendingAmount",
          "type": "uint256"
        }
      ],
      "name": "Withdraw",
      "type": "event"
    },
    {
      "inputs": [],
      "name": "admin",
      "outputs": [
        {
          "internalType": "address",
          "name": "",
          "type": "address"
        }
      ],
      "stateMutability": "view",
      "type": "function"
    },
    {
      "inputs": [
        {
          "internalType": "address",
          "name": "owner",
          "type": "address"
        },
        {
          "internalType": "address",
          "name": "spender",
          "type": "address"
        }
      ],
      "name": "allowance",
      "outputs": [
        {
          "internalType": "uint256",
          "name": "",
          "type": "uint256"
        }
      ],
      "stateMutability": "view",
      "type": "function"
    },
    {
      "inputs": [
        {
          "internalType": "address",
          "name": "spender",
          "type": "address"
        },
        {
          "internalType": "uint256",
          "name": "amount",
          "type": "uint256"
        }
      ],
      "name": "approve",
      "outputs": [
        {
          "internalType": "bool",
          "name": "",
          "type": "bool"
        }
      ],
      "stateMutability": "nonpayable",
      "type": "function"
    },
    {
      "inputs": [
        {
          "internalType": "address",
          "name": "account",
          "type": "address"
        }
      ],
      "name": "balanceOf",
      "outputs": [
        {
          "internalType": "uint256",
          "name": "",
          "type": "uint256"
        }
      ],
      "stateMutability": "view",
      "type": "function"
    },
    {
      "inputs": [],
      "name": "bufferedDeposits",
      "outputs": [
        {
          "internalType": "uint256",
          "name": "",
          "type": "uint256"
        }
      ],
      "stateMutability": "view",
      "type": "function"
    },
    {
      "inputs": [],
      "name": "bufferedWithdrawals",
      "outputs": [
        {
          "internalType": "uint256",
          "name": "",
          "type": "uint256"
        }
      ],
      "stateMutability": "view",
      "type": "function"
    },
    {
      "inputs": [
        {
          "internalType": "uint256",
          "name": "_reqId",
          "type": "uint256"
        }
      ],
      "name": "claim",
      "outputs": [
        {
          "internalType": "uint256",
          "name": "_amount",
          "type": "uint256"
        }
      ],
      "stateMutability": "nonpayable",
      "type": "function"
    },
    {
      "inputs": [
        {
          "internalType": "uint256[]",
          "name": "_reqIds",
          "type": "uint256[]"
        }
      ],
      "name": "claimMulti",
      "outputs": [
        {
          "internalType": "uint256",
          "name": "_amount",
          "type": "uint256"
        },
        {
          "internalType": "uint256",
          "name": "_claimedCount",
          "type": "uint256"
        },
        {
          "internalType": "bool[]",
          "name": "_claimed",
          "type": "bool[]"
        }
      ],
      "stateMutability": "nonpayable",
      "type": "function"
    },
    {
      "inputs": [],
      "name": "claimUnbonded",
      "outputs": [],
      "stateMutability": "nonpayable",
      "type": "function"
    },
    {
      "inputs": [],
      "name": "collectProfitAndUpdateWatermark",
      "outputs": [],
      "stateMutability": "nonpayable",
      "type": "function"
    },
    {
      "inputs": [],
      "name": "decimals",
      "outputs": [
        {
          "internalType": "uint8",
          "name": "",
          "type": "uint8"
        }
      ],
      "stateMutability": "view",
      "type": "function"
    },
    {
      "inputs": [
        {
          "internalType": "address",
          "name": "spender",
          "type": "address"
        },
        {
          "internalType": "uint256",
          "name": "subtractedValue",
          "type": "uint256"
        }
      ],
      "name": "decreaseAllowance",
      "outputs": [
        {
          "internalType": "bool",
          "name": "",
          "type": "bool"
        }
      ],
      "stateMutability": "nonpayable",
      "type": "function"
    },
    {
      "inputs": [
        {
          "internalType": "uint256",
          "name": "_amount",
          "type": "uint256"
        }
      ],
      "name": "deposit",
      "outputs": [],
      "stateMutability": "nonpayable",
      "type": "function"
    },
    {
      "inputs": [],
      "name": "depositETH",
      "outputs": [],
      "stateMutability": "payable",
      "type": "function"
    },
    {
      "inputs": [],
      "name": "emergencyPendingRedeems",
      "outputs": [
        {
          "internalType": "uint256",
          "name": "_redeems",
          "type": "uint256"
        }
      ],
      "stateMutability": "view",
      "type": "function"
    },
    {
      "inputs": [],
      "name": "emergencyRedeem",
      "outputs": [],
      "stateMutability": "nonpayable",
      "type": "function"
    },
    {
      "inputs": [],
      "name": "emergencyWithdraw",
      "outputs": [],
      "stateMutability": "nonpayable",
      "type": "function"
    },
    {
      "inputs": [],
      "name": "fees",
      "outputs": [
        {
          "internalType": "uint256",
          "name": "",
          "type": "uint256"
        }
      ],
      "stateMutability": "view",
      "type": "function"
    },
    {
      "inputs": [],
      "name": "getAPR",
      "outputs": [
        {
          "internalType": "uint256",
          "name": "",
          "type": "uint256"
        }
      ],
      "stateMutability": "view",
      "type": "function"
    },
    {
      "inputs": [],
      "name": "getAllPool",
      "outputs": [
        {
          "internalType": "uint256",
          "name": "_pool",
          "type": "uint256"
        }
      ],
      "stateMutability": "view",
      "type": "function"
    },
    {
      "inputs": [],
      "name": "getAllPoolInUSD",
      "outputs": [
        {
          "internalType": "uint256",
          "name": "",
          "type": "uint256"
        }
      ],
      "stateMutability": "view",
      "type": "function"
    },
    {
      "inputs": [],
      "name": "getBaseApr",
      "outputs": [
        {
          "internalType": "uint256",
          "name": "",
          "type": "uint256"
        },
        {
          "internalType": "uint256",
          "name": "",
          "type": "uint256"
        },
        {
          "internalType": "bool",
          "name": "",
          "type": "bool"
        }
      ],
      "stateMutability": "view",
      "type": "function"
    },
    {
      "inputs": [],
      "name": "getBaseAprData",
      "outputs": [
        {
          "internalType": "uint256",
          "name": "",
          "type": "uint256"
        },
        {
          "internalType": "uint256",
          "name": "",
          "type": "uint256"
        },
        {
          "internalType": "uint256",
          "name": "",
          "type": "uint256"
        }
      ],
      "stateMutability": "view",
      "type": "function"
    },
    {
      "inputs": [],
      "name": "getBufferedDeposits",
      "outputs": [
        {
          "internalType": "uint256",
          "name": "",
          "type": "uint256"
        }
      ],
      "stateMutability": "view",
      "type": "function"
    },
    {
      "inputs": [],
      "name": "getEmergencyUnbondings",
      "outputs": [
        {
          "internalType": "uint256",
          "name": "",
          "type": "uint256"
        }
      ],
      "stateMutability": "view",
      "type": "function"
    },
    {
      "inputs": [],
      "name": "getInvestedStTokens",
      "outputs": [
        {
          "internalType": "uint256",
          "name": "_stAmount",
          "type": "uint256"
        }
      ],
      "stateMutability": "view",
      "type": "function"
    },
    {
      "inputs": [],
      "name": "getPendingRewards",
      "outputs": [
        {
          "internalType": "uint256",
          "name": "",
          "type": "uint256"
        }
      ],
      "stateMutability": "view",
      "type": "function"
    },
    {
      "inputs": [
        {
          "internalType": "uint256",
          "name": "_shares",
          "type": "uint256"
        }
      ],
      "name": "getPoolByShares",
      "outputs": [
        {
          "internalType": "uint256",
          "name": "",
          "type": "uint256"
        }
      ],
      "stateMutability": "view",
      "type": "function"
    },
    {
      "inputs": [
        {
          "internalType": "uint256",
          "name": "_stAmount",
          "type": "uint256"
        }
      ],
      "name": "getPooledTokenByStToken",
      "outputs": [
        {
          "internalType": "uint256",
          "name": "",
          "type": "uint256"
        }
      ],
      "stateMutability": "view",
      "type": "function"
    },
    {
      "inputs": [
        {
          "internalType": "uint256",
          "name": "_amount",
          "type": "uint256"
        }
      ],
      "name": "getSharesByPool",
      "outputs": [
        {
          "internalType": "uint256",
          "name": "",
          "type": "uint256"
        }
      ],
      "stateMutability": "view",
      "type": "function"
    },
    {
      "inputs": [
        {
          "internalType": "uint256",
          "name": "_amount",
          "type": "uint256"
        }
      ],
      "name": "getStTokenByPooledToken",
      "outputs": [
        {
          "internalType": "uint256",
          "name": "",
          "type": "uint256"
        }
      ],
      "stateMutability": "view",
      "type": "function"
    },
    {
      "inputs": [],
      "name": "getTokenUnbonded",
      "outputs": [
        {
          "internalType": "uint256",
          "name": "",
          "type": "uint256"
        }
      ],
      "stateMutability": "view",
      "type": "function"
    },
    {
      "inputs": [
        {
          "internalType": "uint256",
          "name": "_reqId",
          "type": "uint256"
        }
      ],
      "name": "getWithdrawRequest",
      "outputs": [
        {
          "internalType": "bool",
          "name": "_claimable",
          "type": "bool"
        },
        {
          "internalType": "uint256",
          "name": "_tokenAmt",
          "type": "uint256"
        },
        {
          "internalType": "uint256",
          "name": "_stTokenAmt",
          "type": "uint256"
        },
        {
          "internalType": "uint256",
          "name": "_requestTs",
          "type": "uint256"
        },
        {
          "internalType": "uint256",
          "name": "_waitForTs",
          "type": "uint256"
        }
      ],
      "stateMutability": "view",
      "type": "function"
    },
    {
      "inputs": [
        {
          "internalType": "address",
          "name": "spender",
          "type": "address"
        },
        {
          "internalType": "uint256",
          "name": "addedValue",
          "type": "uint256"
        }
      ],
      "name": "increaseAllowance",
      "outputs": [
        {
          "internalType": "bool",
          "name": "",
          "type": "bool"
        }
      ],
      "stateMutability": "nonpayable",
      "type": "function"
    },
    {
      "inputs": [
        {
          "internalType": "string",
          "name": "_name",
          "type": "string"
        },
        {
          "internalType": "string",
          "name": "_symbol",
          "type": "string"
        },
        {
          "internalType": "address",
          "name": "_treasury",
          "type": "address"
        },
        {
          "internalType": "address",
          "name": "_admin",
          "type": "address"
        },
        {
          "internalType": "address",
          "name": "_priceOracle",
          "type": "address"
        },
        {
          "internalType": "address",
          "name": "_token",
          "type": "address"
        },
        {
          "internalType": "address",
          "name": "_stToken",
          "type": "address"
        }
      ],
      "name": "initialize",
      "outputs": [],
      "stateMutability": "nonpayable",
      "type": "function"
    },
    {
      "inputs": [
        {
          "internalType": "address",
          "name": "_treasury",
          "type": "address"
        },
        {
          "internalType": "address",
          "name": "_admin",
          "type": "address"
        },
        {
          "internalType": "address",
          "name": "_priceOracle",
          "type": "address"
        }
      ],
      "name": "initialize1",
      "outputs": [],
      "stateMutability": "nonpayable",
      "type": "function"
    },
    {
      "inputs": [],
      "name": "invest",
      "outputs": [],
      "stateMutability": "nonpayable",
      "type": "function"
    },
    {
      "inputs": [],
      "name": "investInterval",
      "outputs": [
        {
          "internalType": "uint256",
          "name": "",
          "type": "uint256"
        }
      ],
      "stateMutability": "view",
      "type": "function"
    },
    {
      "inputs": [],
      "name": "lastCollectProfitTs",
      "outputs": [
        {
          "internalType": "uint256",
          "name": "",
          "type": "uint256"
        }
      ],
      "stateMutability": "view",
      "type": "function"
    },
    {
      "inputs": [],
      "name": "lastInvestTs",
      "outputs": [
        {
          "internalType": "uint256",
          "name": "",
          "type": "uint256"
        }
      ],
      "stateMutability": "view",
      "type": "function"
    },
    {
      "inputs": [],
      "name": "lastRedeemTs",
      "outputs": [
        {
          "internalType": "uint256",
          "name": "",
          "type": "uint256"
        }
      ],
      "stateMutability": "view",
      "type": "function"
    },
    {
      "inputs": [],
      "name": "minInvestAmount",
      "outputs": [
        {
          "internalType": "uint256",
          "name": "",
          "type": "uint256"
        }
      ],
      "stateMutability": "view",
      "type": "function"
    },
    {
      "inputs": [],
      "name": "minRedeemAmount",
      "outputs": [
        {
          "internalType": "uint256",
          "name": "",
          "type": "uint256"
        }
      ],
      "stateMutability": "view",
      "type": "function"
    },
    {
      "inputs": [],
      "name": "name",
      "outputs": [
        {
          "internalType": "string",
          "name": "",
          "type": "string"
        }
      ],
      "stateMutability": "view",
      "type": "function"
    },
    {
      "inputs": [],
      "name": "nft",
      "outputs": [
        {
          "internalType": "contract IStVaultNFT",
          "name": "",
          "type": "address"
        }
      ],
      "stateMutability": "view",
      "type": "function"
    },
    {
      "inputs": [],
      "name": "oneEpoch",
      "outputs": [
        {
          "internalType": "uint256",
          "name": "",
          "type": "uint256"
        }
      ],
      "stateMutability": "view",
      "type": "function"
    },
    {
      "inputs": [],
      "name": "owner",
      "outputs": [
        {
          "internalType": "address",
          "name": "",
          "type": "address"
        }
      ],
      "stateMutability": "view",
      "type": "function"
    },
    {
      "inputs": [],
      "name": "paused",
      "outputs": [
        {
          "internalType": "bool",
          "name": "",
          "type": "bool"
        }
      ],
      "stateMutability": "view",
      "type": "function"
    },
    {
      "inputs": [],
      "name": "pendingRedeems",
      "outputs": [
        {
          "internalType": "uint256",
          "name": "",
          "type": "uint256"
        }
      ],
      "stateMutability": "view",
      "type": "function"
    },
    {
      "inputs": [],
      "name": "pendingWithdrawals",
      "outputs": [
        {
          "internalType": "uint256",
          "name": "",
          "type": "uint256"
        }
      ],
      "stateMutability": "view",
      "type": "function"
    },
    {
      "inputs": [],
      "name": "priceOracle",
      "outputs": [
        {
          "internalType": "contract IPriceOracle",
          "name": "",
          "type": "address"
        }
      ],
      "stateMutability": "view",
      "type": "function"
    },
    {
      "inputs": [],
      "name": "redeem",
      "outputs": [],
      "stateMutability": "nonpayable",
      "type": "function"
    },
    {
      "inputs": [],
      "name": "redeemInterval",
      "outputs": [
        {
          "internalType": "uint256",
          "name": "",
          "type": "uint256"
        }
      ],
      "stateMutability": "view",
      "type": "function"
    },
    {
      "inputs": [],
      "name": "reinvest",
      "outputs": [],
      "stateMutability": "nonpayable",
      "type": "function"
    },
    {
      "inputs": [],
      "name": "renounceOwnership",
      "outputs": [],
      "stateMutability": "nonpayable",
      "type": "function"
    },
    {
      "inputs": [],
      "name": "resetApr",
      "outputs": [],
      "stateMutability": "nonpayable",
      "type": "function"
    },
    {
      "inputs": [
        {
          "internalType": "address",
          "name": "_newAdmin",
          "type": "address"
        }
      ],
      "name": "setAdmin",
      "outputs": [],
      "stateMutability": "nonpayable",
      "type": "function"
    },
    {
      "inputs": [
        {
          "internalType": "uint256",
          "name": "_yieldFeePerc",
          "type": "uint256"
        }
      ],
      "name": "setFee",
      "outputs": [],
      "stateMutability": "nonpayable",
      "type": "function"
    },
    {
      "inputs": [
        {
          "internalType": "address",
          "name": "_nft",
          "type": "address"
        }
      ],
      "name": "setNFT",
      "outputs": [],
      "stateMutability": "nonpayable",
      "type": "function"
    },
    {
      "inputs": [
        {
          "internalType": "uint256",
          "name": "_minInvestAmount",
          "type": "uint256"
        },
        {
          "internalType": "uint256",
          "name": "_minRedeemAmount",
          "type": "uint256"
        }
      ],
      "name": "setStakingAmounts",
      "outputs": [],
      "stateMutability": "nonpayable",
      "type": "function"
    },
    {
      "inputs": [
        {
          "internalType": "uint256",
          "name": "_unbondingPeriod",
          "type": "uint256"
        },
        {
          "internalType": "uint256",
          "name": "_investInterval",
          "type": "uint256"
        },
        {
          "internalType": "uint256",
          "name": "_redeemInterval",
          "type": "uint256"
        },
        {
          "internalType": "uint256",
          "name": "_oneEpoch",
          "type": "uint256"
        }
      ],
      "name": "setStakingPeriods",
      "outputs": [],
      "stateMutability": "nonpayable",
      "type": "function"
    },
    {
      "inputs": [
        {
          "internalType": "address",
          "name": "_wallet",
          "type": "address"
        }
      ],
      "name": "setTreasuryWallet",
      "outputs": [],
      "stateMutability": "nonpayable",
      "type": "function"
    },
    {
      "inputs": [],
      "name": "stToken",
      "outputs": [
        {
          "internalType": "contract IERC20Upgradeable",
          "name": "",
          "type": "address"
        }
      ],
      "stateMutability": "view",
      "type": "function"
    },
    {
      "inputs": [],
      "name": "symbol",
      "outputs": [
        {
          "internalType": "string",
          "name": "",
          "type": "string"
        }
      ],
      "stateMutability": "view",
      "type": "function"
    },
    {
      "inputs": [],
      "name": "token",
      "outputs": [
        {
          "internalType": "contract IERC20Upgradeable",
          "name": "",
          "type": "address"
        }
      ],
      "stateMutability": "view",
      "type": "function"
    },
    {
      "inputs": [],
      "name": "totalSupply",
      "outputs": [
        {
          "internalType": "uint256",
          "name": "",
          "type": "uint256"
        }
      ],
      "stateMutability": "view",
      "type": "function"
    },
    {
      "inputs": [
        {
          "internalType": "address",
          "name": "to",
          "type": "address"
        },
        {
          "internalType": "uint256",
          "name": "amount",
          "type": "uint256"
        }
      ],
      "name": "transfer",
      "outputs": [
        {
          "internalType": "bool",
          "name": "",
          "type": "bool"
        }
      ],
      "stateMutability": "nonpayable",
      "type": "function"
    },
    {
      "inputs": [
        {
          "internalType": "address",
          "name": "from",
          "type": "address"
        },
        {
          "internalType": "address",
          "name": "to",
          "type": "address"
        },
        {
          "internalType": "uint256",
          "name": "amount",
          "type": "uint256"
        }
      ],
      "name": "transferFrom",
      "outputs": [
        {
          "internalType": "bool",
          "name": "",
          "type": "bool"
        }
      ],
      "stateMutability": "nonpayable",
      "type": "function"
    },
    {
      "inputs": [
        {
          "internalType": "address",
          "name": "newOwner",
          "type": "address"
        }
      ],
      "name": "transferOwnership",
      "outputs": [],
      "stateMutability": "nonpayable",
      "type": "function"
    },
    {
      "inputs": [],
      "name": "treasuryWallet",
      "outputs": [
        {
          "internalType": "address",
          "name": "",
          "type": "address"
        }
      ],
      "stateMutability": "view",
      "type": "function"
    },
    {
      "inputs": [],
      "name": "unbondingPeriod",
      "outputs": [
        {
          "internalType": "uint256",
          "name": "",
          "type": "uint256"
        }
      ],
      "stateMutability": "view",
      "type": "function"
    },
    {
      "inputs": [],
      "name": "watermark",
      "outputs": [
        {
          "internalType": "uint256",
          "name": "",
          "type": "uint256"
        }
      ],
      "stateMutability": "view",
      "type": "function"
    },
    {
      "inputs": [
        {
          "internalType": "uint256",
          "name": "_shares",
          "type": "uint256"
        }
      ],
      "name": "withdraw",
      "outputs": [
        {
          "internalType": "uint256",
          "name": "_amount",
          "type": "uint256"
        },
        {
          "internalType": "uint256",
          "name": "_reqId",
          "type": "uint256"
        }
      ],
      "stateMutability": "nonpayable",
      "type": "function"
    },
    {
      "inputs": [],
      "name": "withdrawFees",
      "outputs": [],
      "stateMutability": "nonpayable",
      "type": "function"
    },
    {
      "inputs": [],
      "name": "yield",
      "outputs": [],
      "stateMutability": "nonpayable",
      "type": "function"
    },
    {
      "inputs": [],
      "name": "yieldFee",
      "outputs": [
        {
          "internalType": "uint256",
          "name": "",
          "type": "uint256"
        }
      ],
      "stateMutability": "view",
      "type": "function"
    },
    {
      "stateMutability": "payable",
      "type": "receive"
    }
  ],
  "transactionHash": "0xe73bf4a302d434196ce911f1d3270016f029b8e8a44acc022206093fd0523c8f",
  "args": [],
  "numDeployments": 1,
  "solcInputHash": "30393b3060a535cd32ad26225a67306c",
  "bytecode": "0x608060405234801561001057600080fd5b506129d6806100206000396000f3fe60806040526004361061044b5760003560e01c80638954b3e011610234578063c378022c1161012e578063e4717f6a116100b6578063f6326fb31161007a578063f6326fb314610bda578063f851a44014610be2578063fc0c546a14610c02578063fdb5a03e14610c23578063fe8fc02a14610c3857600080fd5b8063e4717f6a14610b55578063e8b5e51f146105a4578063f13dc2e214610b84578063f2fde38b14610b9a578063f56e9c6614610bba57600080fd5b8063d36af3fc116100fd578063d36af3fc14610725578063d80dfc3b14610aec578063d9621f9e14610725578063db2e21bc14610b20578063dd62ed3e14610b3557600080fd5b8063c378022c14610a4d578063c89d5b8b14610a6d578063c91f0c5314610a82578063cc0fe4a414610aa257600080fd5b8063a8602fea116101bc578063bb46554211610180578063bb465542146109e1578063bd244af414610725578063be040fb014610a01578063beca03d514610a16578063c1c33f0e14610a2d57600080fd5b8063a8602fea14610953578063a9059cbb14610973578063b09f532014610993578063b162d5dc146109aa578063b6b55f25146109c157600080fd5b80639af1d35a116102035780639af1d35a146108ef5780639bceb85714610905578063a20a4cb414610725578063a457c2d71461091c578063a5ff3f801461093c57600080fd5b80638954b3e0146108905780638da5cb5b146108a55780639119c067146108c357806395d89b41146108da57600080fd5b80633f690113116103455780635f86fe9c116102cd578063704b6c0211610291578063704b6c021461080557806370a0823114610825578063715018a61461085b57806373ff5f7c146107255780637e478b861461087057600080fd5b80635f86fe9c1461076657806361bc47881461079857806369fe0e2d146107b85780636ba89784146107d85780636cf6d675146107ee57600080fd5b8063476343ee11610314578063476343ee146104fe57806347ccca02146107045780634a351b8a146107255780634b950d0f146107395780635c975abb1461074e57600080fd5b80633f690113146106b657806342050f58146106cd5780634626402b146106e4578063470343d8146105a457600080fd5b80632630c12f116103d3578063313ce56711610397578063313ce56714610623578063318ea9201461063f578063379607f51461065f57806338f360b31461067f578063395093511461069657600080fd5b80632630c12f1461058357806328593984146105a45780632a39e8e4146105b95780632d2009b0146105ce5780632e1a7d4d146105ee57600080fd5b806318160ddd1161041a57806318160ddd146104e95780631a813a3c146104fe57806323b6443e1461051557806323b872dd1461054e57806324b1a1f71461056e57600080fd5b8063034f40831461045757806306fdde03146104805780630912ae6d146104a2578063095ea7b3146104b957600080fd5b3661045257005b600080fd5b34801561046357600080fd5b5061046d60fb5481565b6040519081526020015b60405180910390f35b34801561048c57600080fd5b50610495610c4f565b604051610477919061221b565b3480156104ae57600080fd5b5061046d61010c5481565b3480156104c557600080fd5b506104d96104d4366004612287565b610ce1565b6040519015158152602001610477565b3480156104f557600080fd5b5060355461046d565b34801561050a57600080fd5b50610513610cfb565b005b34801561052157600080fd5b5061010354610536906001600160a01b031681565b6040516001600160a01b039091168152602001610477565b34801561055a57600080fd5b506104d96105693660046122b1565b610d45565b34801561057a57600080fd5b5061046d610d6b565b34801561058f57600080fd5b5061010054610536906001600160a01b031681565b3480156105b057600080fd5b50610513610d86565b3480156105c557600080fd5b5061046d610de8565b3480156105da57600080fd5b506105136105e93660046122ed565b610e00565b3480156105fa57600080fd5b5061060e61060936600461231f565b610e42565b60408051928352602083019190915201610477565b34801561062f57600080fd5b5060405160128152602001610477565b34801561064b57600080fd5b5061046d61065a36600461231f565b610e74565b34801561066b57600080fd5b5061046d61067a36600461231f565b610e9a565b34801561068b57600080fd5b5061046d61010d5481565b3480156106a257600080fd5b506104d96106b1366004612287565b610ec9565b3480156106c257600080fd5b5061046d61010f5481565b3480156106d957600080fd5b5061046d6101125481565b3480156106f057600080fd5b5060fe54610536906001600160a01b031681565b34801561071057600080fd5b5061010154610536906001600160a01b031681565b34801561073157600080fd5b50600061046d565b34801561074557600080fd5b50610513610eee565b34801561075a57600080fd5b5060655460ff166104d9565b34801561077257600080fd5b5061077b610f37565b604080519384526020840192909252151590820152606001610477565b3480156107a457600080fd5b5061046d6107b336600461231f565b61100d565b3480156107c457600080fd5b506105136107d336600461231f565b611033565b3480156107e457600080fd5b506101095461046d565b3480156107fa57600080fd5b5061046d61010a5481565b34801561081157600080fd5b50610513610820366004612338565b6110ac565b34801561083157600080fd5b5061046d610840366004612338565b6001600160a01b031660009081526033602052604090205490565b34801561086757600080fd5b506105136110f8565b34801561087c57600080fd5b5061051361088b366004612353565b61112c565b34801561089c57600080fd5b50610513611203565b3480156108b157600080fd5b5060c9546001600160a01b0316610536565b3480156108cf57600080fd5b5061046d6101085481565b3480156108e657600080fd5b50610495611264565b3480156108fb57600080fd5b5061046d60fd5481565b34801561091157600080fd5b5061046d6101115481565b34801561092857600080fd5b506104d9610937366004612287565b611273565b34801561094857600080fd5b5061046d6101105481565b34801561095f57600080fd5b5061051361096e366004612338565b6112f9565b34801561097f57600080fd5b506104d961098e366004612287565b61138c565b34801561099f57600080fd5b5061046d6101065481565b3480156109b657600080fd5b5061046d61010b5481565b3480156109cd57600080fd5b506105136109dc36600461231f565b61139a565b3480156109ed57600080fd5b5061046d6109fc36600461231f565b6113ed565b348015610a0d57600080fd5b50610513611423565b348015610a2257600080fd5b5061046d6101075481565b348015610a3957600080fd5b5061046d610a4836600461231f565b6114a2565b348015610a5957600080fd5b50610513610a68366004612375565b6114aa565b348015610a7957600080fd5b5061046d6115a0565b348015610a8e57600080fd5b50610513610a9d36600461246f565b6115b4565b348015610aae57600080fd5b50610ac2610abd36600461231f565b611735565b6040805195151586526020860194909452928401919091526060830152608082015260a001610477565b348015610af857600080fd5b5061011554610116546101175460408051938452602084019290925290820152606001610477565b348015610b2c57600080fd5b506105136117c6565b348015610b4157600080fd5b5061046d610b50366004612526565b611830565b348015610b6157600080fd5b50610b75610b70366004612559565b61185b565b604051610477939291906125ff565b348015610b9057600080fd5b5061046d60fc5481565b348015610ba657600080fd5b50610513610bb5366004612338565b61188f565b348015610bc657600080fd5b50610513610bd5366004612338565b611927565b6105136119bc565b348015610bee57600080fd5b5060ff54610536906001600160a01b031681565b348015610c0e57600080fd5b5061010254610536906001600160a01b031681565b348015610c2f57600080fd5b50610513611a0e565b348015610c4457600080fd5b5061046d61010e5481565b606060368054610c5e90612656565b80601f0160208091040260200160405190810160405280929190818152602001828054610c8a90612656565b8015610cd75780601f10610cac57610100808354040283529160200191610cd7565b820191906000526020600020905b815481529060010190602001808311610cba57829003601f168201915b5050505050905090565b600033610cef818585611ae0565b60019150505b92915050565b60c9546001600160a01b0316331480610d1e575060ff546001600160a01b031633145b610d435760405162461bcd60e51b8152600401610d3a90612691565b60405180910390fd5b565b600033610d53858285611c04565b610d5e858585611c78565b60019150505b9392505050565b6000610d8161010654610d7c600090565b611e46565b905090565b60c9546001600160a01b0316331480610da9575060ff546001600160a01b031633145b610dc55760405162461bcd60e51b8152600401610d3a90612691565b60655460ff1615610d435760405162461bcd60e51b8152600401610d3a906126be565b600061010654610df6600090565b610d8191906126fe565b60c9546001600160a01b03163314610e2a5760405162461bcd60e51b8152600401610d3a90612715565b61010a9390935561010e919091556101105561011255565b60008060026097541415610e685760405162461bcd60e51b8152600401610d3a9061274a565b60016097559092909150565b61010354600090610cf590839060ff600160a01b8204811691600160a81b900416611e56565b600060026097541415610ebf5760405162461bcd60e51b8152600401610d3a9061274a565b6001609755919050565b600033610cef818585610edc8383611830565b610ee69190612781565b611ae0565b50565b60c9546001600160a01b03163314610f185760405162461bcd60e51b8152600401610d3a90612715565b610f2f600061011581905561011681905561011755565b610d43611eb4565b61011554610116546101175460009283928392821580610f63575042610f608262093a80612781565b11155b15610fff576000610f7b670de0b6b3a76400006113ed565b9050826000108015610f8c57508083105b15610fee576000610f9d83426126fe565b610fa79085612799565b670de0b6b3a76400006301e13380610fbf87866126fe565b610fc99190612799565b610fd39190612799565b610fdd91906127b8565b989197506001965090945050505050565b600097909650600195509350505050565b509094909350600092509050565b600061101b61010454610e74565b610104546110299084612799565b610cf591906127b8565b60c9546001600160a01b0316331461105d5760405162461bcd60e51b8152600401610d3a90612715565b610bb981106110a75760405162461bcd60e51b81526020600482015260166024820152755969656c64204665652063616e6e6f74203e2033302560501b6044820152606401610d3a565b60fb55565b60c9546001600160a01b031633146110d65760405162461bcd60e51b8152600401610d3a90612715565b60ff80546001600160a01b0319166001600160a01b0392909216919091179055565b60c9546001600160a01b031633146111225760405162461bcd60e51b8152600401610d3a90612715565b610d436000611ee4565b60c9546001600160a01b031633146111565760405162461bcd60e51b8152600401610d3a90612715565b600082116111a65760405162461bcd60e51b815260206004820152601b60248201527f6d696e496e76657374416d6f756e74206d757374206265203e203000000000006044820152606401610d3a565b600081116111f65760405162461bcd60e51b815260206004820152601b60248201527f6d696e52656465656d416d6f756e74206d757374206265203e203000000000006044820152606401610d3a565b61010b9190915561010c55565b60c9546001600160a01b0316331480611226575060ff546001600160a01b031633145b6112425760405162461bcd60e51b8152600401610d3a90612691565b60655460ff16610d435760405162461bcd60e51b8152600401610d3a906127da565b606060378054610c5e90612656565b600033816112818286611830565b9050838110156112e15760405162461bcd60e51b815260206004820152602560248201527f45524332303a2064656372656173656420616c6c6f77616e63652062656c6f77604482015264207a65726f60d81b6064820152608401610d3a565b6112ee8286868403611ae0565b506001949350505050565b60c9546001600160a01b031633146113235760405162461bcd60e51b8152600401610d3a90612715565b6001600160a01b03811661136a5760405162461bcd60e51b815260206004820152600e60248201526d1dd85b1b195d081a5b9d985b1a5960921b6044820152606401610d3a565b60fe80546001600160a01b0319166001600160a01b0392909216919091179055565b600033610cef818585611c78565b600260975414156113bd5760405162461bcd60e51b8152600401610d3a9061274a565b600260975560655460ff16156113e55760405162461bcd60e51b8152600401610d3a906126be565b506001609755565b6000806113f960355490565b9050801561141c578061140d600085612799565b61141791906127b8565b610d64565b5090919050565b60c9546001600160a01b0316331480611446575060ff546001600160a01b031633145b6114625760405162461bcd60e51b8152600401610d3a90612691565b60655460ff16156114855760405162461bcd60e51b8152600401610d3a906126be565b600080610108600082825461149a91906126fe565b909155505050565b60008061141c565b60006114b66001611f36565b905080156114ce576000805461ff0019166101001790555b61154c6040518060400160405280600f81526020016e0a6a89240a6e8c2d6d2dcce408aa89608b1b815250604051806040016040528060088152602001670e6e8d2a6e88aa8960c31b81525086868673eeeeeeeeeeeeeeeeeeeeeeeeeeeeeeeeeeeeeeee73f4242f9d78db7218ad72ee3ae14469dbde8731ed6115b4565b6201518061011255801561159a576000805461ff0019169055604051600181527f7f26b83ff96e1f2b6a682f133852f6798a09c465da95921460cefb38474024989060200160405180910390a15b50505050565b6000806115ab610f37565b50909392505050565b60006115c06001611f36565b905080156115d8576000805461ff0019166101001790555b6001600160a01b0386166116215760405162461bcd60e51b815260206004820152601060248201526f1d1c99585cdd5c9e481a5b9d985b1a5960821b6044820152606401610d3a565b611629611fc3565b611631611ff3565b61163b888861201a565b6107d060fb5560fe80546001600160a01b03199081166001600160a01b038981169190911790925560ff805482168884161781556101008054831688851617905561010280548316878516179055610103805490921692851692909217908190556116b091600160a01b90910416600a6128ec565b61010455610103546116cd90600160a81b900460ff16600a6128ec565b61010555600161010b81905561010c556116e5611eb4565b801561172b576000805461ff0019169055604051600181527f7f26b83ff96e1f2b6a682f133852f6798a09c465da95921460cefb38474024989060200160405180910390a15b5050505050505050565b60008181526101146020908152604080832081516060810183528154808252600183015494820185905260029092015492810183905261010a549193929185919082906117829085612781565b90504281111561179d5761179642826126fe565b92506117bb565b60006117b06117aa610de8565b88612068565b11156117bb57600196505b505091939590929450565b60c9546001600160a01b03163314806117e9575060ff546001600160a01b031633145b6118055760405162461bcd60e51b8152600401610d3a90612691565b60655460ff16156118285760405162461bcd60e51b8152600401610d3a906126be565b610d436120ab565b6001600160a01b03918216600090815260346020908152604080832093909416825291909152205490565b6000806060600260975414156118835760405162461bcd60e51b8152600401610d3a9061274a565b60016097559193909250565b60c9546001600160a01b031633146118b95760405162461bcd60e51b8152600401610d3a90612715565b6001600160a01b03811661191e5760405162461bcd60e51b815260206004820152602660248201527f4f776e61626c653a206e6577206f776e657220697320746865207a65726f206160448201526564647265737360d01b6064820152608401610d3a565b610eeb81611ee4565b60c9546001600160a01b031633146119515760405162461bcd60e51b8152600401610d3a90612715565b610101546001600160a01b0316156119995760405162461bcd60e51b815260206004820152600b60248201526a105b1c9958591e481cd95d60aa1b6044820152606401610d3a565b61010180546001600160a01b0319166001600160a01b0392909216919091179055565b600260975414156119df5760405162461bcd60e51b8152600401610d3a9061274a565b600260975560655460ff1615611a075760405162461bcd60e51b8152600401610d3a906126be565b6001609755565b60c9546001600160a01b0316331480611a31575060ff546001600160a01b031633145b611a4d5760405162461bcd60e51b8152600401610d3a90612691565b60655460ff16611a6f5760405162461bcd60e51b8152600401610d3a906127da565b6101095415611acc5760405162461bcd60e51b815260206004820152602360248201527f456d657267656e637920756e626f6e64696e67206973206e6f742066696e69736044820152621a195960ea1b6064820152608401610d3a565b611ad4612120565b600061010955610d4380565b6001600160a01b038316611b425760405162461bcd60e51b8152602060048201526024808201527f45524332303a20617070726f76652066726f6d20746865207a65726f206164646044820152637265737360e01b6064820152608401610d3a565b6001600160a01b038216611ba35760405162461bcd60e51b815260206004820152602260248201527f45524332303a20617070726f766520746f20746865207a65726f206164647265604482015261737360f01b6064820152608401610d3a565b6001600160a01b0383811660008181526034602090815260408083209487168084529482529182902085905590518481527f8c5be1e5ebec7d5bd14f71427d1e84f3dd0314c0f7b2291e5b200ac8c7c3b925910160405180910390a3505050565b6000611c108484611830565b9050600019811461159a5781811015611c6b5760405162461bcd60e51b815260206004820152601d60248201527f45524332303a20696e73756666696369656e7420616c6c6f77616e63650000006044820152606401610d3a565b61159a8484848403611ae0565b6001600160a01b038316611cdc5760405162461bcd60e51b815260206004820152602560248201527f45524332303a207472616e736665722066726f6d20746865207a65726f206164604482015264647265737360d81b6064820152608401610d3a565b6001600160a01b038216611d3e5760405162461bcd60e51b815260206004820152602360248201527f45524332303a207472616e7366657220746f20746865207a65726f206164647260448201526265737360e81b6064820152608401610d3a565b6001600160a01b03831660009081526033602052604090205481811015611db65760405162461bcd60e51b815260206004820152602660248201527f45524332303a207472616e7366657220616d6f756e7420657863656564732062604482015265616c616e636560d01b6064820152608401610d3a565b6001600160a01b03808516600090815260336020526040808220858503905591851681529081208054849290611ded908490612781565b92505081905550826001600160a01b0316846001600160a01b03167fddf252ad1be2c89b69c2b068fc378daa952ba7f163c4a11628f55a4df523b3ef84604051611e3991815260200190565b60405180910390a361159a565b60008183101561141c5781610d64565b600081831415611e67575082610d64565b81831015611e9557611e7983836126fe565b611e8490600a6128fb565b611e8e9085612799565b9050610d64565b611e9f82846126fe565b611eaa90600a6128fb565b611e8e90856127b8565b6000806000611ec1610f37565b9250925092508015611edf5761011583905561011682905542610117555b505050565b60c980546001600160a01b038381166001600160a01b0319831681179093556040519116919082907f8be0079c531659141344cd1fd0a4f28419497f9722a3daafe3b4186f6b6457e090600090a35050565b60008054610100900460ff1615611f7d578160ff166001148015611f595750303b155b611f755760405162461bcd60e51b8152600401610d3a90612907565b506000919050565b60005460ff808416911610611fa45760405162461bcd60e51b8152600401610d3a90612907565b506000805460ff191660ff92909216919091179055600190565b919050565b600054610100900460ff16611fea5760405162461bcd60e51b8152600401610d3a90612955565b610d4333611ee4565b600054610100900460ff16611a075760405162461bcd60e51b8152600401610d3a90612955565b600054610100900460ff166120415760405162461bcd60e51b8152600401610d3a90612955565b8151612054906036906020850190612182565b508051611edf906037906020840190612182565b6000806305f5e10061207e846305f5e0ff612799565b61208891906127b8565b90508084106120a05761209b8484612173565b6120a3565b60005b949350505050565b60655460ff16156120ce5760405162461bcd60e51b8152600401610d3a906126be565b6065805460ff191660011790557f62e78cea01bee320cd4e420270b5ea74000d11b0c9f74754ebdbfc544b05a2586121033390565b6040516001600160a01b03909116815260200160405180910390a1565b60655460ff166121425760405162461bcd60e51b8152600401610d3a906127da565b6065805460ff191690557f5db9ee0a495bf2e6ff9c91a7834c1ba4fdd244a5e8aa4e537bd38aeae4b073aa33612103565b600081831061141c5781610d64565b82805461218e90612656565b90600052602060002090601f0160209004810192826121b057600085556121f6565b82601f106121c957805160ff19168380011785556121f6565b828001600101855582156121f6579182015b828111156121f65782518255916020019190600101906121db565b50612202929150612206565b5090565b5b808211156122025760008155600101612207565b600060208083528351808285015260005b818110156122485785810183015185820160400152820161222c565b8181111561225a576000604083870101525b50601f01601f1916929092016040019392505050565b80356001600160a01b0381168114611fbe57600080fd5b6000806040838503121561229a57600080fd5b6122a383612270565b946020939093013593505050565b6000806000606084860312156122c657600080fd5b6122cf84612270565b92506122dd60208501612270565b9150604084013590509250925092565b6000806000806080858703121561230357600080fd5b5050823594602084013594506040840135936060013592509050565b60006020828403121561233157600080fd5b5035919050565b60006020828403121561234a57600080fd5b610d6482612270565b6000806040838503121561236657600080fd5b50508035926020909101359150565b60008060006060848603121561238a57600080fd5b61239384612270565b92506123a160208501612270565b91506123af60408501612270565b90509250925092565b634e487b7160e01b600052604160045260246000fd5b604051601f8201601f1916810167ffffffffffffffff811182821017156123f7576123f76123b8565b604052919050565b600082601f83011261241057600080fd5b813567ffffffffffffffff81111561242a5761242a6123b8565b61243d601f8201601f19166020016123ce565b81815284602083860101111561245257600080fd5b816020850160208301376000918101602001919091529392505050565b600080600080600080600060e0888a03121561248a57600080fd5b873567ffffffffffffffff808211156124a257600080fd5b6124ae8b838c016123ff565b985060208a01359150808211156124c457600080fd5b506124d18a828b016123ff565b9650506124e060408901612270565b94506124ee60608901612270565b93506124fc60808901612270565b925061250a60a08901612270565b915061251860c08901612270565b905092959891949750929550565b6000806040838503121561253957600080fd5b61254283612270565b915061255060208401612270565b90509250929050565b6000602080838503121561256c57600080fd5b823567ffffffffffffffff8082111561258457600080fd5b818501915085601f83011261259857600080fd5b8135818111156125aa576125aa6123b8565b8060051b91506125bb8483016123ce565b81815291830184019184810190888411156125d557600080fd5b938501935b838510156125f3578435825293850193908501906125da565b98975050505050505050565b6000606082018583526020858185015260606040850152818551808452608086019150828701935060005b8181101561264857845115158352938301939183019160010161262a565b509098975050505050505050565b600181811c9082168061266a57607f821691505b6020821081141561268b57634e487b7160e01b600052602260045260246000fd5b50919050565b60208082526013908201527227b7363c9037bbb732b91037b91030b236b4b760691b604082015260600190565b60208082526010908201526f14185d5cd8589b194e881c185d5cd95960821b604082015260600190565b634e487b7160e01b600052601160045260246000fd5b600082821015612710576127106126e8565b500390565b6020808252818101527f4f776e61626c653a2063616c6c6572206973206e6f7420746865206f776e6572604082015260600190565b6020808252601f908201527f5265656e7472616e637947756172643a207265656e7472616e742063616c6c00604082015260600190565b60008219821115612794576127946126e8565b500190565b60008160001904831182151516156127b3576127b36126e8565b500290565b6000826127d557634e487b7160e01b600052601260045260246000fd5b500490565b60208082526014908201527314185d5cd8589b194e881b9bdd081c185d5cd95960621b604082015260600190565b600181815b80851115612843578160001904821115612829576128296126e8565b8085161561283657918102915b93841c939080029061280d565b509250929050565b60008261285a57506001610cf5565b8161286757506000610cf5565b816001811461287d5760028114612887576128a3565b6001915050610cf5565b60ff841115612898576128986126e8565b50506001821b610cf5565b5060208310610133831016604e8410600b84101617156128c6575081810a610cf5565b6128d08383612808565b80600019048211156128e4576128e46126e8565b029392505050565b6000610d6460ff84168361284b565b6000610d64838361284b565b6020808252602e908201527f496e697469616c697a61626c653a20636f6e747261637420697320616c72656160408201526d191e481a5b9a5d1a585b1a5e995960921b606082015260800190565b6020808252602b908201527f496e697469616c697a61626c653a20636f6e7472616374206973206e6f74206960408201526a6e697469616c697a696e6760a81b60608201526080019056fea2646970667358221220e7ead66679cf6e7fecfc966fc0137478aa651c4a518b9b6c7a2dcc26703ce19664736f6c63430008090033",
  "devdoc": {
    "kind": "dev",
    "methods": {
      "allowance(address,address)": {
        "details": "See {IERC20-allowance}."
      },
      "approve(address,uint256)": {
        "details": "See {IERC20-approve}. NOTE: If `amount` is the maximum `uint256`, the allowance is not updated on `transferFrom`. This is semantically equivalent to an infinite approval. Requirements: - `spender` cannot be the zero address."
      },
      "balanceOf(address)": {
        "details": "See {IERC20-balanceOf}."
      },
      "claim(uint256)": {
        "details": "claim token with NFT token",
        "returns": {
          "_amount": "is the amount of claimed token."
        }
      },
      "claimMulti(uint256[])": {
        "details": "claim token with NFT tokens",
        "returns": {
          "_amount": "is the amount of claimed token.",
          "_claimed": "is the flag indicating whether the token is claimed.",
          "_claimedCount": "is the count of reqIds that are claimed."
        }
      },
      "claimUnbonded()": {
        "details": "claim the unbonded tokens from the staking pool. It's called by admin."
      },
      "collectProfitAndUpdateWatermark()": {
        "details": "collect profit and update the watermark"
      },
      "decimals()": {
        "details": "Returns the number of decimals used to get its user representation. For example, if `decimals` equals `2`, a balance of `505` tokens should be displayed to a user as `5.05` (`505 / 10 ** 2`). Tokens usually opt for a value of 18, imitating the relationship between Ether and Wei. This is the value {ERC20} uses, unless this function is overridden; NOTE: This information is only used for _display_ purposes: it in no way affects any of the arithmetic of the contract, including {IERC20-balanceOf} and {IERC20-transfer}."
      },
      "decreaseAllowance(address,uint256)": {
        "details": "Atomically decreases the allowance granted to `spender` by the caller. This is an alternative to {approve} that can be used as a mitigation for problems described in {IERC20-approve}. Emits an {Approval} event indicating the updated allowance. Requirements: - `spender` cannot be the zero address. - `spender` must have allowance for the caller of at least `subtractedValue`."
      },
      "deposit(uint256)": {
        "details": "deposit `_amount` of token."
      },
      "depositETH()": {
        "details": "deposit the native asset."
      },
      "emergencyPendingRedeems()": {
        "details": "the total amount of emergency withdrawal stToken that is not yet requested to the staking pool."
      },
      "emergencyRedeem()": {
        "details": "In emergency mode, redeem the rest of stTokens. Especially it's needed for stNEAR because the MetaPool has a buffer limit."
      },
      "getAPR()": {
        "returns": {
          "_0": "the APR in the vault. It's scaled by 1e18."
        }
      },
      "getAllPool()": {
        "details": "it doesn't include the unbonding stTokens according to the burnt shares."
      },
      "getAllPoolInUSD()": {
        "returns": {
          "_0": "the total USD value of tokens in the vault."
        }
      },
      "getPoolByShares(uint256)": {
        "returns": {
          "_0": "the amount of token that corresponds to `_shares` of shares."
        }
      },
      "getPooledTokenByStToken(uint256)": {
        "params": {
          "_stAmount": "Amount of stTokens"
        }
      },
      "getSharesByPool(uint256)": {
        "returns": {
          "_0": "the amount of shares that corresponds to `_amount` of token."
        }
      },
      "getStTokenByPooledToken(uint256)": {
        "params": {
          "_amount": "Amount of tokens"
        }
      },
      "getTokenUnbonded()": {
        "returns": {
          "_0": "the unbonded token amount that is claimable from the staking pool."
        }
      },
      "getWithdrawRequest(uint256)": {
        "returns": {
          "_claimable": "specifys whether user can claim tokens for it.",
          "_requestTs": "is timestmap when withdrawal requested.",
          "_stTokenAmt": "is amount of stToken to redeem.",
          "_tokenAmt": "is amount of token to claim.",
          "_waitForTs": "is timestamp to wait for."
        }
      },
      "increaseAllowance(address,uint256)": {
        "details": "Atomically increases the allowance granted to `spender` by the caller. This is an alternative to {approve} that can be used as a mitigation for problems described in {IERC20-approve}. Emits an {Approval} event indicating the updated allowance. Requirements: - `spender` cannot be the zero address."
      },
      "invest()": {
        "details": "stake the buffered deposits into the staking pool. It's called by admin."
      },
      "name()": {
        "details": "Returns the name of the token."
      },
      "owner()": {
        "details": "Returns the address of the current owner."
      },
      "paused()": {
        "details": "Returns true if the contract is paused, and false otherwise."
      },
      "redeem()": {
        "details": "redeem the requested withdrawals from the staking pool. It's called by admin."
      },
      "renounceOwnership()": {
        "details": "Leaves the contract without owner. It will not be possible to call `onlyOwner` functions anymore. Can only be called by the current owner. NOTE: Renouncing ownership will leave the contract without an owner, thereby removing any functionality that is only available to the owner."
      },
      "setFee(uint256)": {
        "params": {
          "_yieldFeePerc": "deposit fee percentage. 2000 for 20%"
        }
      },
      "symbol()": {
        "details": "Returns the symbol of the token, usually a shorter version of the name."
      },
      "totalSupply()": {
        "details": "See {IERC20-totalSupply}."
      },
      "transfer(address,uint256)": {
        "details": "See {IERC20-transfer}. Requirements: - `to` cannot be the zero address. - the caller must have a balance of at least `amount`."
      },
      "transferFrom(address,address,uint256)": {
        "details": "See {IERC20-transferFrom}. Emits an {Approval} event indicating the updated allowance. This is not required by the EIP. See the note at the beginning of {ERC20}. NOTE: Does not update the allowance if the current allowance is the maximum `uint256`. Requirements: - `from` and `to` cannot be the zero address. - `from` must have a balance of at least `amount`. - the caller must have allowance for ``from``'s tokens of at least `amount`."
      },
      "transferOwnership(address)": {
        "details": "Transfers ownership of the contract to a new account (`newOwner`). Can only be called by the current owner."
      },
      "withdraw(uint256)": {
        "details": "request a withdrawal that corresponds to `_shares` of shares.",
        "returns": {
          "_amount": "is the amount of withdrawn token.",
          "_reqId": "is the NFT token id indicating the request for rest of withdrawal. 0 if no request is made."
        }
      },
      "withdrawFees()": {
        "details": "transfer out fees."
      },
      "yield()": {
        "details": "take rewards and reinvest them. It's called by admin."
      }
    },
    "version": 1
  },
  "userdoc": {
    "kind": "user",
    "methods": {
      "emergencyWithdraw()": {
        "notice": "Withdraws funds staked in mirror to this vault and pauses deposit, yield, invest functions"
      },
      "getPendingRewards()": {
        "notice": "Returns the pending rewards in USD."
      },
      "reinvest()": {
        "notice": "Unpauses deposit, yield, invest functions, and invests funds."
      },
      "setFee(uint256)": {
        "notice": "Function to set deposit and yield fee"
      }
    },
    "version": 1
  },
  "storageLayout": {
    "storage": [
      {
        "astId": 130,
        "contract": "contracts/stVaults/lido/EthStETHVaultTest.sol:EthStETHVaultTest",
        "label": "_initialized",
        "offset": 0,
        "slot": "0",
        "type": "t_uint8"
      },
      {
        "astId": 133,
        "contract": "contracts/stVaults/lido/EthStETHVaultTest.sol:EthStETHVaultTest",
        "label": "_initializing",
        "offset": 1,
        "slot": "0",
        "type": "t_bool"
      },
      {
        "astId": 2709,
        "contract": "contracts/stVaults/lido/EthStETHVaultTest.sol:EthStETHVaultTest",
        "label": "__gap",
        "offset": 0,
        "slot": "1",
        "type": "t_array(t_uint256)50_storage"
      },
      {
        "astId": 454,
        "contract": "contracts/stVaults/lido/EthStETHVaultTest.sol:EthStETHVaultTest",
        "label": "_balances",
        "offset": 0,
        "slot": "51",
        "type": "t_mapping(t_address,t_uint256)"
      },
      {
        "astId": 460,
        "contract": "contracts/stVaults/lido/EthStETHVaultTest.sol:EthStETHVaultTest",
        "label": "_allowances",
        "offset": 0,
        "slot": "52",
        "type": "t_mapping(t_address,t_mapping(t_address,t_uint256))"
      },
      {
        "astId": 462,
        "contract": "contracts/stVaults/lido/EthStETHVaultTest.sol:EthStETHVaultTest",
        "label": "_totalSupply",
        "offset": 0,
        "slot": "53",
        "type": "t_uint256"
      },
      {
        "astId": 464,
        "contract": "contracts/stVaults/lido/EthStETHVaultTest.sol:EthStETHVaultTest",
        "label": "_name",
        "offset": 0,
        "slot": "54",
        "type": "t_string_storage"
      },
      {
        "astId": 466,
        "contract": "contracts/stVaults/lido/EthStETHVaultTest.sol:EthStETHVaultTest",
        "label": "_symbol",
        "offset": 0,
        "slot": "55",
        "type": "t_string_storage"
      },
      {
        "astId": 1045,
        "contract": "contracts/stVaults/lido/EthStETHVaultTest.sol:EthStETHVaultTest",
        "label": "__gap",
        "offset": 0,
        "slot": "56",
        "type": "t_array(t_uint256)45_storage"
      },
      {
        "astId": 286,
        "contract": "contracts/stVaults/lido/EthStETHVaultTest.sol:EthStETHVaultTest",
        "label": "_paused",
        "offset": 0,
        "slot": "101",
        "type": "t_bool"
      },
      {
        "astId": 375,
        "contract": "contracts/stVaults/lido/EthStETHVaultTest.sol:EthStETHVaultTest",
        "label": "__gap",
        "offset": 0,
        "slot": "102",
        "type": "t_array(t_uint256)49_storage"
      },
      {
        "astId": 390,
        "contract": "contracts/stVaults/lido/EthStETHVaultTest.sol:EthStETHVaultTest",
        "label": "_status",
        "offset": 0,
        "slot": "151",
        "type": "t_uint256"
      },
      {
        "astId": 434,
        "contract": "contracts/stVaults/lido/EthStETHVaultTest.sol:EthStETHVaultTest",
        "label": "__gap",
        "offset": 0,
        "slot": "152",
        "type": "t_array(t_uint256)49_storage"
      },
      {
        "astId": 10,
        "contract": "contracts/stVaults/lido/EthStETHVaultTest.sol:EthStETHVaultTest",
        "label": "_owner",
        "offset": 0,
        "slot": "201",
        "type": "t_address"
      },
      {
        "astId": 122,
        "contract": "contracts/stVaults/lido/EthStETHVaultTest.sol:EthStETHVaultTest",
        "label": "__gap",
        "offset": 0,
        "slot": "202",
        "type": "t_array(t_uint256)49_storage"
      },
      {
        "astId": 38200,
        "contract": "contracts/stVaults/lido/EthStETHVaultTest.sol:EthStETHVaultTest",
        "label": "yieldFee",
        "offset": 0,
        "slot": "251",
        "type": "t_uint256"
      },
      {
        "astId": 38202,
        "contract": "contracts/stVaults/lido/EthStETHVaultTest.sol:EthStETHVaultTest",
        "label": "watermark",
        "offset": 0,
        "slot": "252",
        "type": "t_uint256"
      },
      {
        "astId": 38204,
        "contract": "contracts/stVaults/lido/EthStETHVaultTest.sol:EthStETHVaultTest",
        "label": "fees",
        "offset": 0,
        "slot": "253",
        "type": "t_uint256"
      },
      {
        "astId": 38206,
        "contract": "contracts/stVaults/lido/EthStETHVaultTest.sol:EthStETHVaultTest",
        "label": "treasuryWallet",
        "offset": 0,
        "slot": "254",
        "type": "t_address"
      },
      {
        "astId": 38208,
        "contract": "contracts/stVaults/lido/EthStETHVaultTest.sol:EthStETHVaultTest",
        "label": "admin",
        "offset": 0,
        "slot": "255",
        "type": "t_address"
      },
      {
        "astId": 38211,
        "contract": "contracts/stVaults/lido/EthStETHVaultTest.sol:EthStETHVaultTest",
        "label": "priceOracle",
        "offset": 0,
        "slot": "256",
        "type": "t_contract(IPriceOracle)11071"
      },
      {
        "astId": 38214,
        "contract": "contracts/stVaults/lido/EthStETHVaultTest.sol:EthStETHVaultTest",
        "label": "nft",
        "offset": 0,
        "slot": "257",
        "type": "t_contract(IStVaultNFT)52983"
      },
      {
        "astId": 38217,
        "contract": "contracts/stVaults/lido/EthStETHVaultTest.sol:EthStETHVaultTest",
        "label": "token",
        "offset": 0,
        "slot": "258",
        "type": "t_contract(IERC20Upgradeable)1124"
      },
      {
        "astId": 38220,
        "contract": "contracts/stVaults/lido/EthStETHVaultTest.sol:EthStETHVaultTest",
        "label": "stToken",
        "offset": 0,
        "slot": "259",
        "type": "t_contract(IERC20Upgradeable)1124"
      },
      {
        "astId": 38222,
        "contract": "contracts/stVaults/lido/EthStETHVaultTest.sol:EthStETHVaultTest",
        "label": "tokenDecimals",
        "offset": 20,
        "slot": "259",
        "type": "t_uint8"
      },
      {
        "astId": 38224,
        "contract": "contracts/stVaults/lido/EthStETHVaultTest.sol:EthStETHVaultTest",
        "label": "stTokenDecimals",
        "offset": 21,
        "slot": "259",
        "type": "t_uint8"
      },
      {
        "astId": 38226,
        "contract": "contracts/stVaults/lido/EthStETHVaultTest.sol:EthStETHVaultTest",
        "label": "oneToken",
        "offset": 0,
        "slot": "260",
        "type": "t_uint256"
      },
      {
        "astId": 38228,
        "contract": "contracts/stVaults/lido/EthStETHVaultTest.sol:EthStETHVaultTest",
        "label": "oneStToken",
        "offset": 0,
        "slot": "261",
        "type": "t_uint256"
      },
      {
        "astId": 38230,
        "contract": "contracts/stVaults/lido/EthStETHVaultTest.sol:EthStETHVaultTest",
        "label": "bufferedDeposits",
        "offset": 0,
        "slot": "262",
        "type": "t_uint256"
      },
      {
        "astId": 38232,
        "contract": "contracts/stVaults/lido/EthStETHVaultTest.sol:EthStETHVaultTest",
        "label": "pendingWithdrawals",
        "offset": 0,
        "slot": "263",
        "type": "t_uint256"
      },
      {
        "astId": 38234,
        "contract": "contracts/stVaults/lido/EthStETHVaultTest.sol:EthStETHVaultTest",
        "label": "pendingRedeems",
        "offset": 0,
        "slot": "264",
        "type": "t_uint256"
      },
      {
        "astId": 38236,
        "contract": "contracts/stVaults/lido/EthStETHVaultTest.sol:EthStETHVaultTest",
        "label": "emergencyUnbondings",
        "offset": 0,
        "slot": "265",
        "type": "t_uint256"
      },
      {
        "astId": 38238,
        "contract": "contracts/stVaults/lido/EthStETHVaultTest.sol:EthStETHVaultTest",
        "label": "unbondingPeriod",
        "offset": 0,
        "slot": "266",
        "type": "t_uint256"
      },
      {
        "astId": 38240,
        "contract": "contracts/stVaults/lido/EthStETHVaultTest.sol:EthStETHVaultTest",
        "label": "minInvestAmount",
        "offset": 0,
        "slot": "267",
        "type": "t_uint256"
      },
      {
        "astId": 38242,
        "contract": "contracts/stVaults/lido/EthStETHVaultTest.sol:EthStETHVaultTest",
        "label": "minRedeemAmount",
        "offset": 0,
        "slot": "268",
        "type": "t_uint256"
      },
      {
        "astId": 38244,
        "contract": "contracts/stVaults/lido/EthStETHVaultTest.sol:EthStETHVaultTest",
        "label": "lastInvestTs",
        "offset": 0,
        "slot": "269",
        "type": "t_uint256"
      },
      {
        "astId": 38246,
        "contract": "contracts/stVaults/lido/EthStETHVaultTest.sol:EthStETHVaultTest",
        "label": "investInterval",
        "offset": 0,
        "slot": "270",
        "type": "t_uint256"
      },
      {
        "astId": 38248,
        "contract": "contracts/stVaults/lido/EthStETHVaultTest.sol:EthStETHVaultTest",
        "label": "lastRedeemTs",
        "offset": 0,
        "slot": "271",
        "type": "t_uint256"
      },
      {
        "astId": 38250,
        "contract": "contracts/stVaults/lido/EthStETHVaultTest.sol:EthStETHVaultTest",
        "label": "redeemInterval",
        "offset": 0,
        "slot": "272",
        "type": "t_uint256"
      },
      {
        "astId": 38252,
        "contract": "contracts/stVaults/lido/EthStETHVaultTest.sol:EthStETHVaultTest",
        "label": "lastCollectProfitTs",
        "offset": 0,
        "slot": "273",
        "type": "t_uint256"
      },
      {
        "astId": 38254,
        "contract": "contracts/stVaults/lido/EthStETHVaultTest.sol:EthStETHVaultTest",
        "label": "oneEpoch",
        "offset": 0,
        "slot": "274",
        "type": "t_uint256"
      },
      {
        "astId": 38258,
        "contract": "contracts/stVaults/lido/EthStETHVaultTest.sol:EthStETHVaultTest",
        "label": "depositedBlock",
        "offset": 0,
        "slot": "275",
        "type": "t_mapping(t_address,t_uint256)"
      },
      {
        "astId": 38263,
        "contract": "contracts/stVaults/lido/EthStETHVaultTest.sol:EthStETHVaultTest",
        "label": "nft2WithdrawRequest",
        "offset": 0,
        "slot": "276",
        "type": "t_mapping(t_uint256,t_struct(WithdrawRequest)52685_storage)"
      },
      {
        "astId": 38265,
        "contract": "contracts/stVaults/lido/EthStETHVaultTest.sol:EthStETHVaultTest",
        "label": "baseApr",
        "offset": 0,
        "slot": "277",
        "type": "t_uint256"
      },
      {
        "astId": 38267,
        "contract": "contracts/stVaults/lido/EthStETHVaultTest.sol:EthStETHVaultTest",
        "label": "baseTokenRate",
        "offset": 0,
        "slot": "278",
        "type": "t_uint256"
      },
      {
        "astId": 38269,
        "contract": "contracts/stVaults/lido/EthStETHVaultTest.sol:EthStETHVaultTest",
        "label": "baseAprLastUpdate",
        "offset": 0,
        "slot": "279",
        "type": "t_uint256"
      },
      {
        "astId": 39427,
        "contract": "contracts/stVaults/lido/EthStETHVaultTest.sol:EthStETHVaultTest",
        "label": "__gap",
        "offset": 0,
        "slot": "280",
        "type": "t_array(t_uint256)20_storage"
      }
    ],
    "types": {
      "t_address": {
        "encoding": "inplace",
        "label": "address",
        "numberOfBytes": "20"
      },
      "t_array(t_uint256)20_storage": {
        "base": "t_uint256",
        "encoding": "inplace",
        "label": "uint256[20]",
        "numberOfBytes": "640"
      },
      "t_array(t_uint256)45_storage": {
        "base": "t_uint256",
        "encoding": "inplace",
        "label": "uint256[45]",
        "numberOfBytes": "1440"
      },
      "t_array(t_uint256)49_storage": {
        "base": "t_uint256",
        "encoding": "inplace",
        "label": "uint256[49]",
        "numberOfBytes": "1568"
      },
      "t_array(t_uint256)50_storage": {
        "base": "t_uint256",
        "encoding": "inplace",
        "label": "uint256[50]",
        "numberOfBytes": "1600"
      },
      "t_bool": {
        "encoding": "inplace",
        "label": "bool",
        "numberOfBytes": "1"
      },
      "t_contract(IERC20Upgradeable)1124": {
        "encoding": "inplace",
        "label": "contract IERC20Upgradeable",
        "numberOfBytes": "20"
      },
      "t_contract(IPriceOracle)11071": {
        "encoding": "inplace",
        "label": "contract IPriceOracle",
        "numberOfBytes": "20"
      },
      "t_contract(IStVaultNFT)52983": {
        "encoding": "inplace",
        "label": "contract IStVaultNFT",
        "numberOfBytes": "20"
      },
      "t_mapping(t_address,t_mapping(t_address,t_uint256))": {
        "encoding": "mapping",
        "key": "t_address",
        "label": "mapping(address => mapping(address => uint256))",
        "numberOfBytes": "32",
        "value": "t_mapping(t_address,t_uint256)"
      },
      "t_mapping(t_address,t_uint256)": {
        "encoding": "mapping",
        "key": "t_address",
        "label": "mapping(address => uint256)",
        "numberOfBytes": "32",
        "value": "t_uint256"
      },
      "t_mapping(t_uint256,t_struct(WithdrawRequest)52685_storage)": {
        "encoding": "mapping",
        "key": "t_uint256",
        "label": "mapping(uint256 => struct IStVault.WithdrawRequest)",
        "numberOfBytes": "32",
        "value": "t_struct(WithdrawRequest)52685_storage"
      },
      "t_string_storage": {
        "encoding": "bytes",
        "label": "string",
        "numberOfBytes": "32"
      },
      "t_struct(WithdrawRequest)52685_storage": {
        "encoding": "inplace",
        "label": "struct IStVault.WithdrawRequest",
        "members": [
          {
            "astId": 52680,
            "contract": "contracts/stVaults/lido/EthStETHVaultTest.sol:EthStETHVaultTest",
            "label": "tokenAmt",
            "offset": 0,
            "slot": "0",
            "type": "t_uint256"
          },
          {
            "astId": 52682,
            "contract": "contracts/stVaults/lido/EthStETHVaultTest.sol:EthStETHVaultTest",
            "label": "stTokenAmt",
            "offset": 0,
            "slot": "1",
            "type": "t_uint256"
          },
          {
            "astId": 52684,
            "contract": "contracts/stVaults/lido/EthStETHVaultTest.sol:EthStETHVaultTest",
            "label": "requestTs",
            "offset": 0,
            "slot": "2",
            "type": "t_uint256"
          }
        ],
        "numberOfBytes": "96"
      },
      "t_uint256": {
        "encoding": "inplace",
        "label": "uint256",
        "numberOfBytes": "32"
      },
      "t_uint8": {
        "encoding": "inplace",
        "label": "uint8",
        "numberOfBytes": "1"
      }
    }
  }
}