{
  "address": "0x2B63eaB073F3684BCA6160532B3e60e1c934b024",
  "abi": [
    {
      "anonymous": false,
      "inputs": [
        {
          "indexed": false,
          "internalType": "uint256",
          "name": "currentWatermark",
          "type": "uint256"
        },
        {
          "indexed": false,
          "internalType": "uint256",
          "name": "lastWatermark",
          "type": "uint256"
        }
      ],
      "name": "AdjustWatermark",
      "type": "event"
    },
    {
      "anonymous": false,
      "inputs": [
        {
          "indexed": true,
          "internalType": "address",
          "name": "owner",
          "type": "address"
        },
        {
          "indexed": true,
          "internalType": "address",
          "name": "spender",
          "type": "address"
        },
        {
          "indexed": false,
          "internalType": "uint256",
          "name": "value",
          "type": "uint256"
        }
      ],
      "name": "Approval",
      "type": "event"
    },
    {
      "anonymous": false,
      "inputs": [
        {
          "indexed": false,
          "internalType": "address",
          "name": "user",
          "type": "address"
        },
        {
          "indexed": false,
          "internalType": "uint256",
          "name": "reqId",
          "type": "uint256"
        },
        {
          "indexed": false,
          "internalType": "uint256",
          "name": "amount",
          "type": "uint256"
        }
      ],
      "name": "Claim",
      "type": "event"
    },
    {
      "anonymous": false,
      "inputs": [
        {
          "indexed": false,
          "internalType": "address",
          "name": "user",
          "type": "address"
        },
        {
          "indexed": false,
          "internalType": "uint256",
          "name": "amount",
          "type": "uint256"
        },
        {
          "indexed": false,
          "internalType": "uint256",
          "name": "claimedCount",
          "type": "uint256"
        }
      ],
      "name": "ClaimMulti",
      "type": "event"
    },
    {
      "anonymous": false,
      "inputs": [
        {
          "indexed": false,
          "internalType": "uint256",
          "name": "currentWatermark",
          "type": "uint256"
        },
        {
          "indexed": false,
          "internalType": "uint256",
          "name": "lastWatermark",
          "type": "uint256"
        },
        {
          "indexed": false,
          "internalType": "uint256",
          "name": "fee",
          "type": "uint256"
        }
      ],
      "name": "CollectProfitAndUpdateWatermark",
      "type": "event"
    },
    {
      "anonymous": false,
      "inputs": [
        {
          "indexed": false,
          "internalType": "address",
          "name": "user",
          "type": "address"
        },
        {
          "indexed": false,
          "internalType": "uint256",
          "name": "amount",
          "type": "uint256"
        },
        {
          "indexed": false,
          "internalType": "uint256",
          "name": "shares",
          "type": "uint256"
        }
      ],
      "name": "Deposit",
      "type": "event"
    },
    {
      "anonymous": false,
      "inputs": [
        {
          "indexed": false,
          "internalType": "uint256",
          "name": "stAmount",
          "type": "uint256"
        }
      ],
      "name": "EmergencyWithdraw",
      "type": "event"
    },
    {
      "anonymous": false,
      "inputs": [
        {
          "indexed": false,
          "internalType": "uint8",
          "name": "version",
          "type": "uint8"
        }
      ],
      "name": "Initialized",
      "type": "event"
    },
    {
      "anonymous": false,
      "inputs": [
        {
          "indexed": false,
          "internalType": "uint256",
          "name": "amount",
          "type": "uint256"
        }
      ],
      "name": "Invest",
      "type": "event"
    },
    {
      "anonymous": false,
      "inputs": [
        {
          "indexed": true,
          "internalType": "address",
          "name": "previousOwner",
          "type": "address"
        },
        {
          "indexed": true,
          "internalType": "address",
          "name": "newOwner",
          "type": "address"
        }
      ],
      "name": "OwnershipTransferred",
      "type": "event"
    },
    {
      "anonymous": false,
      "inputs": [
        {
          "indexed": false,
          "internalType": "address",
          "name": "account",
          "type": "address"
        }
      ],
      "name": "Paused",
      "type": "event"
    },
    {
      "anonymous": false,
      "inputs": [
        {
          "indexed": false,
          "internalType": "uint256",
          "name": "stAmount",
          "type": "uint256"
        }
      ],
      "name": "Redeem",
      "type": "event"
    },
    {
      "anonymous": false,
      "inputs": [
        {
          "indexed": true,
          "internalType": "address",
          "name": "from",
          "type": "address"
        },
        {
          "indexed": true,
          "internalType": "address",
          "name": "to",
          "type": "address"
        },
        {
          "indexed": false,
          "internalType": "uint256",
          "name": "value",
          "type": "uint256"
        }
      ],
      "name": "Transfer",
      "type": "event"
    },
    {
      "anonymous": false,
      "inputs": [
        {
          "indexed": false,
          "internalType": "uint256",
          "name": "fees",
          "type": "uint256"
        },
        {
          "indexed": false,
          "internalType": "address",
          "name": "token",
          "type": "address"
        }
      ],
      "name": "TransferredOutFees",
      "type": "event"
    },
    {
      "anonymous": false,
      "inputs": [
        {
          "indexed": false,
          "internalType": "address",
          "name": "account",
          "type": "address"
        }
      ],
      "name": "Unpaused",
      "type": "event"
    },
    {
      "anonymous": false,
      "inputs": [
        {
          "indexed": false,
          "internalType": "address",
          "name": "user",
          "type": "address"
        },
        {
          "indexed": false,
          "internalType": "uint256",
          "name": "shares",
          "type": "uint256"
        },
        {
          "indexed": false,
          "internalType": "uint256",
          "name": "amount",
          "type": "uint256"
        },
        {
          "indexed": false,
          "internalType": "uint256",
          "name": "reqId",
          "type": "uint256"
        },
        {
          "indexed": false,
          "internalType": "uint256",
          "name": "pendingAmount",
          "type": "uint256"
        }
      ],
      "name": "Withdraw",
      "type": "event"
    },
    {
      "inputs": [],
      "name": "admin",
      "outputs": [
        {
          "internalType": "address",
          "name": "",
          "type": "address"
        }
      ],
      "stateMutability": "view",
      "type": "function"
    },
    {
      "inputs": [
        {
          "internalType": "address",
          "name": "owner",
          "type": "address"
        },
        {
          "internalType": "address",
          "name": "spender",
          "type": "address"
        }
      ],
      "name": "allowance",
      "outputs": [
        {
          "internalType": "uint256",
          "name": "",
          "type": "uint256"
        }
      ],
      "stateMutability": "view",
      "type": "function"
    },
    {
      "inputs": [
        {
          "internalType": "address",
          "name": "spender",
          "type": "address"
        },
        {
          "internalType": "uint256",
          "name": "amount",
          "type": "uint256"
        }
      ],
      "name": "approve",
      "outputs": [
        {
          "internalType": "bool",
          "name": "",
          "type": "bool"
        }
      ],
      "stateMutability": "nonpayable",
      "type": "function"
    },
    {
      "inputs": [
        {
          "internalType": "address",
          "name": "account",
          "type": "address"
        }
      ],
      "name": "balanceOf",
      "outputs": [
        {
          "internalType": "uint256",
          "name": "",
          "type": "uint256"
        }
      ],
      "stateMutability": "view",
      "type": "function"
    },
    {
      "inputs": [],
      "name": "bufferedDeposits",
      "outputs": [
        {
          "internalType": "uint256",
          "name": "",
          "type": "uint256"
        }
      ],
      "stateMutability": "view",
      "type": "function"
    },
    {
      "inputs": [],
      "name": "bufferedWithdrawals",
      "outputs": [
        {
          "internalType": "uint256",
          "name": "",
          "type": "uint256"
        }
      ],
      "stateMutability": "view",
      "type": "function"
    },
    {
      "inputs": [
        {
          "internalType": "uint256",
          "name": "_reqId",
          "type": "uint256"
        }
      ],
      "name": "claim",
      "outputs": [
        {
          "internalType": "uint256",
          "name": "_amount",
          "type": "uint256"
        }
      ],
      "stateMutability": "nonpayable",
      "type": "function"
    },
    {
      "inputs": [
        {
          "internalType": "uint256[]",
          "name": "_reqIds",
          "type": "uint256[]"
        }
      ],
      "name": "claimMulti",
      "outputs": [
        {
          "internalType": "uint256",
          "name": "_amount",
          "type": "uint256"
        },
        {
          "internalType": "uint256",
          "name": "_claimedCount",
          "type": "uint256"
        },
        {
          "internalType": "bool[]",
          "name": "_claimed",
          "type": "bool[]"
        }
      ],
      "stateMutability": "nonpayable",
      "type": "function"
    },
    {
      "inputs": [],
      "name": "claimUnbonded",
      "outputs": [],
      "stateMutability": "nonpayable",
      "type": "function"
    },
    {
      "inputs": [],
      "name": "collectProfitAndUpdateWatermark",
      "outputs": [],
      "stateMutability": "nonpayable",
      "type": "function"
    },
    {
      "inputs": [],
      "name": "decimals",
      "outputs": [
        {
          "internalType": "uint8",
          "name": "",
          "type": "uint8"
        }
      ],
      "stateMutability": "view",
      "type": "function"
    },
    {
      "inputs": [
        {
          "internalType": "address",
          "name": "spender",
          "type": "address"
        },
        {
          "internalType": "uint256",
          "name": "subtractedValue",
          "type": "uint256"
        }
      ],
      "name": "decreaseAllowance",
      "outputs": [
        {
          "internalType": "bool",
          "name": "",
          "type": "bool"
        }
      ],
      "stateMutability": "nonpayable",
      "type": "function"
    },
    {
      "inputs": [
        {
          "internalType": "uint256",
          "name": "_amount",
          "type": "uint256"
        }
      ],
      "name": "deposit",
      "outputs": [],
      "stateMutability": "nonpayable",
      "type": "function"
    },
    {
      "inputs": [],
      "name": "depositETH",
      "outputs": [],
      "stateMutability": "payable",
      "type": "function"
    },
    {
      "inputs": [],
      "name": "emergencyPendingRedeems",
      "outputs": [
        {
          "internalType": "uint256",
          "name": "_redeems",
          "type": "uint256"
        }
      ],
      "stateMutability": "view",
      "type": "function"
    },
    {
      "inputs": [],
      "name": "emergencyRedeem",
      "outputs": [],
      "stateMutability": "nonpayable",
      "type": "function"
    },
    {
      "inputs": [],
      "name": "emergencyWithdraw",
      "outputs": [],
      "stateMutability": "nonpayable",
      "type": "function"
    },
    {
      "inputs": [],
      "name": "fees",
      "outputs": [
        {
          "internalType": "uint256",
          "name": "",
          "type": "uint256"
        }
      ],
      "stateMutability": "view",
      "type": "function"
    },
    {
      "inputs": [],
      "name": "first",
      "outputs": [
        {
          "internalType": "uint256",
          "name": "",
          "type": "uint256"
        }
      ],
      "stateMutability": "view",
      "type": "function"
    },
    {
      "inputs": [],
      "name": "getAPR",
      "outputs": [
        {
          "internalType": "uint256",
          "name": "",
          "type": "uint256"
        }
      ],
      "stateMutability": "view",
      "type": "function"
    },
    {
      "inputs": [],
      "name": "getAllPool",
      "outputs": [
        {
          "internalType": "uint256",
          "name": "_pool",
          "type": "uint256"
        }
      ],
      "stateMutability": "view",
      "type": "function"
    },
    {
      "inputs": [],
      "name": "getAllPoolInUSD",
      "outputs": [
        {
          "internalType": "uint256",
          "name": "",
          "type": "uint256"
        }
      ],
      "stateMutability": "view",
      "type": "function"
    },
    {
      "inputs": [],
      "name": "getBaseApr",
      "outputs": [
        {
          "internalType": "uint256",
          "name": "",
          "type": "uint256"
        },
        {
          "internalType": "uint256",
          "name": "",
          "type": "uint256"
        },
        {
          "internalType": "bool",
          "name": "",
          "type": "bool"
        }
      ],
      "stateMutability": "view",
      "type": "function"
    },
    {
      "inputs": [],
      "name": "getBaseAprData",
      "outputs": [
        {
          "internalType": "uint256",
          "name": "",
          "type": "uint256"
        },
        {
          "internalType": "uint256",
          "name": "",
          "type": "uint256"
        },
        {
          "internalType": "uint256",
          "name": "",
          "type": "uint256"
        }
      ],
      "stateMutability": "view",
      "type": "function"
    },
    {
      "inputs": [],
      "name": "getBufferedDeposits",
      "outputs": [
        {
          "internalType": "uint256",
          "name": "",
          "type": "uint256"
        }
      ],
      "stateMutability": "view",
      "type": "function"
    },
    {
      "inputs": [],
      "name": "getEmergencyUnbondings",
      "outputs": [
        {
          "internalType": "uint256",
          "name": "",
          "type": "uint256"
        }
      ],
      "stateMutability": "view",
      "type": "function"
    },
    {
      "inputs": [],
      "name": "getInvestedStTokens",
      "outputs": [
        {
          "internalType": "uint256",
          "name": "_stAmount",
          "type": "uint256"
        }
      ],
      "stateMutability": "view",
      "type": "function"
    },
    {
      "inputs": [],
      "name": "getPendingRewards",
      "outputs": [
        {
          "internalType": "uint256",
          "name": "",
          "type": "uint256"
        }
      ],
      "stateMutability": "view",
      "type": "function"
    },
    {
      "inputs": [
        {
          "internalType": "uint256",
          "name": "_shares",
          "type": "uint256"
        }
      ],
      "name": "getPoolByShares",
      "outputs": [
        {
          "internalType": "uint256",
          "name": "",
          "type": "uint256"
        }
      ],
      "stateMutability": "view",
      "type": "function"
    },
    {
      "inputs": [
        {
          "internalType": "uint256",
          "name": "_stAmount",
          "type": "uint256"
        }
      ],
      "name": "getPooledTokenByStToken",
      "outputs": [
        {
          "internalType": "uint256",
          "name": "",
          "type": "uint256"
        }
      ],
      "stateMutability": "view",
      "type": "function"
    },
    {
      "inputs": [
        {
          "internalType": "uint256",
          "name": "_amount",
          "type": "uint256"
        }
      ],
      "name": "getSharesByPool",
      "outputs": [
        {
          "internalType": "uint256",
          "name": "",
          "type": "uint256"
        }
      ],
      "stateMutability": "view",
      "type": "function"
    },
    {
      "inputs": [
        {
          "internalType": "uint256",
          "name": "_amount",
          "type": "uint256"
        }
      ],
      "name": "getStTokenByPooledToken",
      "outputs": [
        {
          "internalType": "uint256",
          "name": "",
          "type": "uint256"
        }
      ],
      "stateMutability": "view",
      "type": "function"
    },
    {
      "inputs": [],
      "name": "getTokenUnbonded",
      "outputs": [
        {
          "internalType": "uint256",
          "name": "",
          "type": "uint256"
        }
      ],
      "stateMutability": "view",
      "type": "function"
    },
    {
      "inputs": [
        {
          "internalType": "uint256",
          "name": "_reqId",
          "type": "uint256"
        }
      ],
      "name": "getWithdrawRequest",
      "outputs": [
        {
          "internalType": "bool",
          "name": "_claimable",
          "type": "bool"
        },
        {
          "internalType": "uint256",
          "name": "_tokenAmt",
          "type": "uint256"
        },
        {
          "internalType": "uint256",
          "name": "_stTokenAmt",
          "type": "uint256"
        },
        {
          "internalType": "uint256",
          "name": "_requestTs",
          "type": "uint256"
        },
        {
          "internalType": "uint256",
          "name": "_waitForTs",
          "type": "uint256"
        }
      ],
      "stateMutability": "view",
      "type": "function"
    },
    {
      "inputs": [
        {
          "internalType": "address",
          "name": "spender",
          "type": "address"
        },
        {
          "internalType": "uint256",
          "name": "addedValue",
          "type": "uint256"
        }
      ],
      "name": "increaseAllowance",
      "outputs": [
        {
          "internalType": "bool",
          "name": "",
          "type": "bool"
        }
      ],
      "stateMutability": "nonpayable",
      "type": "function"
    },
    {
      "inputs": [
        {
          "internalType": "string",
          "name": "_name",
          "type": "string"
        },
        {
          "internalType": "string",
          "name": "_symbol",
          "type": "string"
        },
        {
          "internalType": "address",
          "name": "_treasury",
          "type": "address"
        },
        {
          "internalType": "address",
          "name": "_admin",
          "type": "address"
        },
        {
          "internalType": "address",
          "name": "_priceOracle",
          "type": "address"
        },
        {
          "internalType": "address",
          "name": "_token",
          "type": "address"
        },
        {
          "internalType": "address",
          "name": "_stToken",
          "type": "address"
        }
      ],
      "name": "initialize",
      "outputs": [],
      "stateMutability": "nonpayable",
      "type": "function"
    },
    {
      "inputs": [
        {
          "internalType": "address",
          "name": "_treasury",
          "type": "address"
        },
        {
          "internalType": "address",
          "name": "_admin",
          "type": "address"
        },
        {
          "internalType": "address",
          "name": "_priceOracle",
          "type": "address"
        }
      ],
      "name": "initialize1",
      "outputs": [],
      "stateMutability": "nonpayable",
      "type": "function"
    },
    {
      "inputs": [],
      "name": "invest",
      "outputs": [],
      "stateMutability": "nonpayable",
      "type": "function"
    },
    {
      "inputs": [],
      "name": "investInterval",
      "outputs": [
        {
          "internalType": "uint256",
          "name": "",
          "type": "uint256"
        }
      ],
      "stateMutability": "view",
      "type": "function"
    },
    {
      "inputs": [],
      "name": "last",
      "outputs": [
        {
          "internalType": "uint256",
          "name": "",
          "type": "uint256"
        }
      ],
      "stateMutability": "view",
      "type": "function"
    },
    {
      "inputs": [],
      "name": "lastCollectProfitTs",
      "outputs": [
        {
          "internalType": "uint256",
          "name": "",
          "type": "uint256"
        }
      ],
      "stateMutability": "view",
      "type": "function"
    },
    {
      "inputs": [],
      "name": "lastInvestTs",
      "outputs": [
        {
          "internalType": "uint256",
          "name": "",
          "type": "uint256"
        }
      ],
      "stateMutability": "view",
      "type": "function"
    },
    {
      "inputs": [],
      "name": "lastRedeemTs",
      "outputs": [
        {
          "internalType": "uint256",
          "name": "",
          "type": "uint256"
        }
      ],
      "stateMutability": "view",
      "type": "function"
    },
    {
      "inputs": [],
      "name": "minInvestAmount",
      "outputs": [
        {
          "internalType": "uint256",
          "name": "",
          "type": "uint256"
        }
      ],
      "stateMutability": "view",
      "type": "function"
    },
    {
      "inputs": [],
      "name": "minRedeemAmount",
      "outputs": [
        {
          "internalType": "uint256",
          "name": "",
          "type": "uint256"
        }
      ],
      "stateMutability": "view",
      "type": "function"
    },
    {
      "inputs": [],
      "name": "name",
      "outputs": [
        {
          "internalType": "string",
          "name": "",
          "type": "string"
        }
      ],
      "stateMutability": "view",
      "type": "function"
    },
    {
      "inputs": [],
      "name": "nft",
      "outputs": [
        {
          "internalType": "contract IStVaultNFT",
          "name": "",
          "type": "address"
        }
      ],
      "stateMutability": "view",
      "type": "function"
    },
    {
      "inputs": [],
      "name": "oneEpoch",
      "outputs": [
        {
          "internalType": "uint256",
          "name": "",
          "type": "uint256"
        }
      ],
      "stateMutability": "view",
      "type": "function"
    },
    {
      "inputs": [],
      "name": "owner",
      "outputs": [
        {
          "internalType": "address",
          "name": "",
          "type": "address"
        }
      ],
      "stateMutability": "view",
      "type": "function"
    },
    {
      "inputs": [],
      "name": "paused",
      "outputs": [
        {
          "internalType": "bool",
          "name": "",
          "type": "bool"
        }
      ],
      "stateMutability": "view",
      "type": "function"
    },
    {
      "inputs": [],
      "name": "pendingRedeems",
      "outputs": [
        {
          "internalType": "uint256",
          "name": "",
          "type": "uint256"
        }
      ],
      "stateMutability": "view",
      "type": "function"
    },
    {
      "inputs": [],
      "name": "pendingWithdrawals",
      "outputs": [
        {
          "internalType": "uint256",
          "name": "",
          "type": "uint256"
        }
      ],
      "stateMutability": "view",
      "type": "function"
    },
    {
      "inputs": [],
      "name": "priceOracle",
      "outputs": [
        {
          "internalType": "contract IPriceOracle",
          "name": "",
          "type": "address"
        }
      ],
      "stateMutability": "view",
      "type": "function"
    },
    {
      "inputs": [],
      "name": "redeem",
      "outputs": [],
      "stateMutability": "nonpayable",
      "type": "function"
    },
    {
      "inputs": [],
      "name": "redeemInterval",
      "outputs": [
        {
          "internalType": "uint256",
          "name": "",
          "type": "uint256"
        }
      ],
      "stateMutability": "view",
      "type": "function"
    },
    {
      "inputs": [],
      "name": "reinvest",
      "outputs": [],
      "stateMutability": "nonpayable",
      "type": "function"
    },
    {
      "inputs": [],
      "name": "renounceOwnership",
      "outputs": [],
      "stateMutability": "nonpayable",
      "type": "function"
    },
    {
      "inputs": [],
      "name": "resetApr",
      "outputs": [],
      "stateMutability": "nonpayable",
      "type": "function"
    },
    {
      "inputs": [
        {
          "internalType": "address",
          "name": "_newAdmin",
          "type": "address"
        }
      ],
      "name": "setAdmin",
      "outputs": [],
      "stateMutability": "nonpayable",
      "type": "function"
    },
    {
      "inputs": [
        {
          "internalType": "uint256",
          "name": "_yieldFeePerc",
          "type": "uint256"
        }
      ],
      "name": "setFee",
      "outputs": [],
      "stateMutability": "nonpayable",
      "type": "function"
    },
    {
      "inputs": [
        {
          "internalType": "address",
          "name": "_nft",
          "type": "address"
        }
      ],
      "name": "setNFT",
      "outputs": [],
      "stateMutability": "nonpayable",
      "type": "function"
    },
    {
      "inputs": [
        {
          "internalType": "uint256",
          "name": "_minInvestAmount",
          "type": "uint256"
        },
        {
          "internalType": "uint256",
          "name": "_minRedeemAmount",
          "type": "uint256"
        }
      ],
      "name": "setStakingAmounts",
      "outputs": [],
      "stateMutability": "nonpayable",
      "type": "function"
    },
    {
      "inputs": [
        {
          "internalType": "uint256",
          "name": "_unbondingPeriod",
          "type": "uint256"
        },
        {
          "internalType": "uint256",
          "name": "_investInterval",
          "type": "uint256"
        },
        {
          "internalType": "uint256",
          "name": "_redeemInterval",
          "type": "uint256"
        },
        {
          "internalType": "uint256",
          "name": "_oneEpoch",
          "type": "uint256"
        }
      ],
      "name": "setStakingPeriods",
      "outputs": [],
      "stateMutability": "nonpayable",
      "type": "function"
    },
    {
      "inputs": [
        {
          "internalType": "address",
          "name": "_wallet",
          "type": "address"
        }
      ],
      "name": "setTreasuryWallet",
      "outputs": [],
      "stateMutability": "nonpayable",
      "type": "function"
    },
    {
      "inputs": [],
      "name": "stToken",
      "outputs": [
        {
          "internalType": "contract IERC20Upgradeable",
          "name": "",
          "type": "address"
        }
      ],
      "stateMutability": "view",
      "type": "function"
    },
    {
      "inputs": [],
      "name": "symbol",
      "outputs": [
        {
          "internalType": "string",
          "name": "",
          "type": "string"
        }
      ],
      "stateMutability": "view",
      "type": "function"
    },
    {
      "inputs": [],
      "name": "token",
      "outputs": [
        {
          "internalType": "contract IERC20Upgradeable",
          "name": "",
          "type": "address"
        }
      ],
      "stateMutability": "view",
      "type": "function"
    },
    {
      "inputs": [
        {
          "internalType": "uint256",
          "name": "",
          "type": "uint256"
        }
      ],
      "name": "tokenIds",
      "outputs": [
        {
          "internalType": "uint256",
          "name": "",
          "type": "uint256"
        }
      ],
      "stateMutability": "view",
      "type": "function"
    },
    {
      "inputs": [],
      "name": "totalSupply",
      "outputs": [
        {
          "internalType": "uint256",
          "name": "",
          "type": "uint256"
        }
      ],
      "stateMutability": "view",
      "type": "function"
    },
    {
      "inputs": [
        {
          "internalType": "address",
          "name": "to",
          "type": "address"
        },
        {
          "internalType": "uint256",
          "name": "amount",
          "type": "uint256"
        }
      ],
      "name": "transfer",
      "outputs": [
        {
          "internalType": "bool",
          "name": "",
          "type": "bool"
        }
      ],
      "stateMutability": "nonpayable",
      "type": "function"
    },
    {
      "inputs": [
        {
          "internalType": "address",
          "name": "from",
          "type": "address"
        },
        {
          "internalType": "address",
          "name": "to",
          "type": "address"
        },
        {
          "internalType": "uint256",
          "name": "amount",
          "type": "uint256"
        }
      ],
      "name": "transferFrom",
      "outputs": [
        {
          "internalType": "bool",
          "name": "",
          "type": "bool"
        }
      ],
      "stateMutability": "nonpayable",
      "type": "function"
    },
    {
      "inputs": [
        {
          "internalType": "address",
          "name": "newOwner",
          "type": "address"
        }
      ],
      "name": "transferOwnership",
      "outputs": [],
      "stateMutability": "nonpayable",
      "type": "function"
    },
    {
      "inputs": [],
      "name": "treasuryWallet",
      "outputs": [
        {
          "internalType": "address",
          "name": "",
          "type": "address"
        }
      ],
      "stateMutability": "view",
      "type": "function"
    },
    {
      "inputs": [],
      "name": "unbondingPeriod",
      "outputs": [
        {
          "internalType": "uint256",
          "name": "",
          "type": "uint256"
        }
      ],
      "stateMutability": "view",
      "type": "function"
    },
    {
      "inputs": [],
      "name": "watermark",
      "outputs": [
        {
          "internalType": "uint256",
          "name": "",
          "type": "uint256"
        }
      ],
      "stateMutability": "view",
      "type": "function"
    },
    {
      "inputs": [
        {
          "internalType": "uint256",
          "name": "_shares",
          "type": "uint256"
        }
      ],
      "name": "withdraw",
      "outputs": [
        {
          "internalType": "uint256",
          "name": "_amount",
          "type": "uint256"
        },
        {
          "internalType": "uint256",
          "name": "_reqId",
          "type": "uint256"
        }
      ],
      "stateMutability": "nonpayable",
      "type": "function"
    },
    {
      "inputs": [],
      "name": "withdrawFees",
      "outputs": [],
      "stateMutability": "nonpayable",
      "type": "function"
    },
    {
      "inputs": [],
      "name": "yield",
      "outputs": [],
      "stateMutability": "nonpayable",
      "type": "function"
    },
    {
      "inputs": [],
      "name": "yieldFee",
      "outputs": [
        {
          "internalType": "uint256",
          "name": "",
          "type": "uint256"
        }
      ],
      "stateMutability": "view",
      "type": "function"
    },
    {
      "stateMutability": "payable",
      "type": "receive"
    }
  ],
  "transactionHash": "0x1715b7d1bde8deb73a188fe7c4698908d805ab70b3b19da6782e6bbbfb35a37a",
  "args": [],
  "numDeployments": 2,
  "solcInputHash": "aa8af62c39c4987602902032509083cd",
  "bytecode": "0x608060405234801561001057600080fd5b50612a6b806100206000396000f3fe60806040526004361061046c5760003560e01c80637e478b861161024a578063c378022c11610139578063e4717f6a116100b6578063f6326fb31161007a578063f6326fb314610c57578063f851a44014610c5f578063fc0c546a14610c7f578063fdb5a03e14610ca0578063fe8fc02a14610cb557600080fd5b8063e4717f6a14610bd2578063e8b5e51f146105c5578063f13dc2e214610c01578063f2fde38b14610c17578063f56e9c6614610c3757600080fd5b8063d58778d6116100fd578063d58778d614610b3b578063d80dfc3b14610b69578063d9621f9e14610774578063db2e21bc14610b9d578063dd62ed3e14610bb257600080fd5b8063c378022c14610a9c578063c89d5b8b14610abc578063c91f0c5314610ad1578063cc0fe4a414610af1578063d36af3fc1461077457600080fd5b8063a8602fea116101c7578063bb4655421161018b578063bb46554214610a30578063bd244af414610774578063be040fb014610a50578063beca03d514610a65578063c1c33f0e14610a7c57600080fd5b8063a8602fea146109a2578063a9059cbb146109c2578063b09f5320146109e2578063b162d5dc146109f9578063b6b55f2514610a1057600080fd5b80639af1d35a1161020e5780639af1d35a1461093e5780639bceb85714610954578063a20a4cb414610774578063a457c2d71461096b578063a5ff3f801461098b57600080fd5b80637e478b86146108bf5780638954b3e0146108df5780638da5cb5b146108f45780639119c0671461091257806395d89b411461092957600080fd5b80633df4ddf4116103665780635c975abb116102e35780636cf6d675116102a75780636cf6d6751461083d578063704b6c021461085457806370a0823114610874578063715018a6146108aa57806373ff5f7c1461077457600080fd5b80635c975abb1461079d5780635f86fe9c146107b557806361bc4788146107e757806369fe0e2d146108075780636ba897841461082757600080fd5b8063476343ee1161032a578063476343ee1461051f57806347799da81461073c57806347ccca02146107535780634a351b8a146107745780634b950d0f1461078857600080fd5b80633df4ddf4146106d75780633f690113146106ee57806342050f58146107055780634626402b1461071c578063470343d8146105c557600080fd5b80632630c12f116103f4578063313ce567116103b8578063313ce56714610644578063318ea92014610660578063379607f51461068057806338f360b3146106a057806339509351146106b757600080fd5b80632630c12f146105a457806328593984146105c55780632a39e8e4146105da5780632d2009b0146105ef5780632e1a7d4d1461060f57600080fd5b806318160ddd1161043b57806318160ddd1461050a5780631a813a3c1461051f57806323b6443e1461053657806323b872dd1461056f57806324b1a1f71461058f57600080fd5b8063034f40831461047857806306fdde03146104a15780630912ae6d146104c3578063095ea7b3146104da57600080fd5b3661047357005b600080fd5b34801561048457600080fd5b5061048e60fb5481565b6040519081526020015b60405180910390f35b3480156104ad57600080fd5b506104b6610ccc565b60405161049891906122b0565b3480156104cf57600080fd5b5061048e61010c5481565b3480156104e657600080fd5b506104fa6104f536600461231c565b610d5e565b6040519015158152602001610498565b34801561051657600080fd5b5060355461048e565b34801561052b57600080fd5b50610534610d78565b005b34801561054257600080fd5b5061010354610557906001600160a01b031681565b6040516001600160a01b039091168152602001610498565b34801561057b57600080fd5b506104fa61058a366004612346565b610dc2565b34801561059b57600080fd5b5061048e610de8565b3480156105b057600080fd5b5061010054610557906001600160a01b031681565b3480156105d157600080fd5b50610534610e03565b3480156105e657600080fd5b5061048e610e65565b3480156105fb57600080fd5b5061053461060a366004612382565b610e7d565b34801561061b57600080fd5b5061062f61062a3660046123b4565b610ebf565b60408051928352602083019190915201610498565b34801561065057600080fd5b5060405160128152602001610498565b34801561066c57600080fd5b5061048e61067b3660046123b4565b610ef1565b34801561068c57600080fd5b5061048e61069b3660046123b4565b610f17565b3480156106ac57600080fd5b5061048e61010d5481565b3480156106c357600080fd5b506104fa6106d236600461231c565b610f46565b3480156106e357600080fd5b5061048e61012d5481565b3480156106fa57600080fd5b5061048e61010f5481565b34801561071157600080fd5b5061048e6101125481565b34801561072857600080fd5b5060fe54610557906001600160a01b031681565b34801561074857600080fd5b5061048e61012e5481565b34801561075f57600080fd5b5061010154610557906001600160a01b031681565b34801561078057600080fd5b50600061048e565b34801561079457600080fd5b50610534610f6b565b3480156107a957600080fd5b5060655460ff166104fa565b3480156107c157600080fd5b506107ca610fb4565b604080519384526020840192909252151590820152606001610498565b3480156107f357600080fd5b5061048e6108023660046123b4565b61108a565b34801561081357600080fd5b506105346108223660046123b4565b6110b0565b34801561083357600080fd5b506101095461048e565b34801561084957600080fd5b5061048e61010a5481565b34801561086057600080fd5b5061053461086f3660046123cd565b611129565b34801561088057600080fd5b5061048e61088f3660046123cd565b6001600160a01b031660009081526033602052604090205490565b3480156108b657600080fd5b50610534611175565b3480156108cb57600080fd5b506105346108da3660046123e8565b6111a9565b3480156108eb57600080fd5b50610534611280565b34801561090057600080fd5b5060c9546001600160a01b0316610557565b34801561091e57600080fd5b5061048e6101085481565b34801561093557600080fd5b506104b66112e1565b34801561094a57600080fd5b5061048e60fd5481565b34801561096057600080fd5b5061048e6101115481565b34801561097757600080fd5b506104fa61098636600461231c565b6112f0565b34801561099757600080fd5b5061048e6101105481565b3480156109ae57600080fd5b506105346109bd3660046123cd565b611376565b3480156109ce57600080fd5b506104fa6109dd36600461231c565b611409565b3480156109ee57600080fd5b5061048e6101065481565b348015610a0557600080fd5b5061048e61010b5481565b348015610a1c57600080fd5b50610534610a2b3660046123b4565b611417565b348015610a3c57600080fd5b5061048e610a4b3660046123b4565b61146a565b348015610a5c57600080fd5b506105346114a0565b348015610a7157600080fd5b5061048e6101075481565b348015610a8857600080fd5b5061048e610a973660046123b4565b61151f565b348015610aa857600080fd5b50610534610ab736600461240a565b611527565b348015610ac857600080fd5b5061048e611635565b348015610add57600080fd5b50610534610aec366004612504565b611649565b348015610afd57600080fd5b50610b11610b0c3660046123b4565b6117ca565b6040805195151586526020860194909452928401919091526060830152608082015260a001610498565b348015610b4757600080fd5b5061048e610b563660046123b4565b61012c6020526000908152604090205481565b348015610b7557600080fd5b5061011554610116546101175460408051938452602084019290925290820152606001610498565b348015610ba957600080fd5b5061053461185b565b348015610bbe57600080fd5b5061048e610bcd3660046125bb565b6118c5565b348015610bde57600080fd5b50610bf2610bed3660046125ee565b6118f0565b60405161049893929190612694565b348015610c0d57600080fd5b5061048e60fc5481565b348015610c2357600080fd5b50610534610c323660046123cd565b611924565b348015610c4357600080fd5b50610534610c523660046123cd565b6119bc565b610534611a51565b348015610c6b57600080fd5b5060ff54610557906001600160a01b031681565b348015610c8b57600080fd5b5061010254610557906001600160a01b031681565b348015610cac57600080fd5b50610534611aa3565b348015610cc157600080fd5b5061048e61010e5481565b606060368054610cdb906126eb565b80601f0160208091040260200160405190810160405280929190818152602001828054610d07906126eb565b8015610d545780601f10610d2957610100808354040283529160200191610d54565b820191906000526020600020905b815481529060010190602001808311610d3757829003601f168201915b5050505050905090565b600033610d6c818585611b75565b60019150505b92915050565b60c9546001600160a01b0316331480610d9b575060ff546001600160a01b031633145b610dc05760405162461bcd60e51b8152600401610db790612726565b60405180910390fd5b565b600033610dd0858285611c99565b610ddb858585611d0d565b60019150505b9392505050565b6000610dfe61010654610df9600090565b611edb565b905090565b60c9546001600160a01b0316331480610e26575060ff546001600160a01b031633145b610e425760405162461bcd60e51b8152600401610db790612726565b60655460ff1615610dc05760405162461bcd60e51b8152600401610db790612753565b600061010654610e73600090565b610dfe9190612793565b60c9546001600160a01b03163314610ea75760405162461bcd60e51b8152600401610db7906127aa565b61010a9390935561010e919091556101105561011255565b60008060026097541415610ee55760405162461bcd60e51b8152600401610db7906127df565b60016097559092909150565b61010354600090610d7290839060ff600160a01b8204811691600160a81b900416611eeb565b600060026097541415610f3c5760405162461bcd60e51b8152600401610db7906127df565b6001609755919050565b600033610d6c818585610f5983836118c5565b610f639190612816565b611b75565b50565b60c9546001600160a01b03163314610f955760405162461bcd60e51b8152600401610db7906127aa565b610fac600061011581905561011681905561011755565b610dc0611f49565b61011554610116546101175460009283928392821580610fe0575042610fdd8262093a80612816565b11155b1561107c576000610ff8670de0b6b3a764000061146a565b905082600010801561100957508083105b1561106b57600061101a8342612793565b611024908561282e565b670de0b6b3a76400006301e1338061103c8786612793565b611046919061282e565b611050919061282e565b61105a919061284d565b989197506001965090945050505050565b600097909650600195509350505050565b509094909350600092509050565b600061109861010454610ef1565b610104546110a6908461282e565b610d72919061284d565b60c9546001600160a01b031633146110da5760405162461bcd60e51b8152600401610db7906127aa565b610bb981106111245760405162461bcd60e51b81526020600482015260166024820152755969656c64204665652063616e6e6f74203e2033302560501b6044820152606401610db7565b60fb55565b60c9546001600160a01b031633146111535760405162461bcd60e51b8152600401610db7906127aa565b60ff80546001600160a01b0319166001600160a01b0392909216919091179055565b60c9546001600160a01b0316331461119f5760405162461bcd60e51b8152600401610db7906127aa565b610dc06000611f79565b60c9546001600160a01b031633146111d35760405162461bcd60e51b8152600401610db7906127aa565b600082116112235760405162461bcd60e51b815260206004820152601b60248201527f6d696e496e76657374416d6f756e74206d757374206265203e203000000000006044820152606401610db7565b600081116112735760405162461bcd60e51b815260206004820152601b60248201527f6d696e52656465656d416d6f756e74206d757374206265203e203000000000006044820152606401610db7565b61010b9190915561010c55565b60c9546001600160a01b03163314806112a3575060ff546001600160a01b031633145b6112bf5760405162461bcd60e51b8152600401610db790612726565b60655460ff16610dc05760405162461bcd60e51b8152600401610db79061286f565b606060378054610cdb906126eb565b600033816112fe82866118c5565b90508381101561135e5760405162461bcd60e51b815260206004820152602560248201527f45524332303a2064656372656173656420616c6c6f77616e63652062656c6f77604482015264207a65726f60d81b6064820152608401610db7565b61136b8286868403611b75565b506001949350505050565b60c9546001600160a01b031633146113a05760405162461bcd60e51b8152600401610db7906127aa565b6001600160a01b0381166113e75760405162461bcd60e51b815260206004820152600e60248201526d1dd85b1b195d081a5b9d985b1a5960921b6044820152606401610db7565b60fe80546001600160a01b0319166001600160a01b0392909216919091179055565b600033610d6c818585611d0d565b6002609754141561143a5760405162461bcd60e51b8152600401610db7906127df565b600260975560655460ff16156114625760405162461bcd60e51b8152600401610db790612753565b506001609755565b60008061147660355490565b90508015611499578061148a60008561282e565b611494919061284d565b610de1565b5090919050565b60c9546001600160a01b03163314806114c3575060ff546001600160a01b031633145b6114df5760405162461bcd60e51b8152600401610db790612726565b60655460ff16156115025760405162461bcd60e51b8152600401610db790612753565b60008061010860008282546115179190612793565b909155505050565b600080611499565b60006115336001611fcb565b9050801561154b576000805461ff0019166101001790555b6115cd60405180604001604052806011815260200170535449205374616b696e67204d4154494360781b8152506040518060400160405280600a81526020016973746953744d4154494360b01b815250868686737d1afa7b718fb893db30a3abc0cfc608aacfebb0739ee91f9f426fa633d227f7a9b000e28b9dfd8599611649565b6205460061010a556201518061011255600161012d55600061012e55801561162f576000805461ff0019169055604051600181527f7f26b83ff96e1f2b6a682f133852f6798a09c465da95921460cefb38474024989060200160405180910390a15b50505050565b600080611640610fb4565b50909392505050565b60006116556001611fcb565b9050801561166d576000805461ff0019166101001790555b6001600160a01b0386166116b65760405162461bcd60e51b815260206004820152601060248201526f1d1c99585cdd5c9e481a5b9d985b1a5960821b6044820152606401610db7565b6116be612058565b6116c6612088565b6116d088886120af565b6107d060fb5560fe80546001600160a01b03199081166001600160a01b038981169190911790925560ff8054821688841617815561010080548316888516179055610102805483168785161790556101038054909216928516929092179081905561174591600160a01b90910416600a612981565b610104556101035461176290600160a81b900460ff16600a612981565b61010555600161010b81905561010c5561177a611f49565b80156117c0576000805461ff0019169055604051600181527f7f26b83ff96e1f2b6a682f133852f6798a09c465da95921460cefb38474024989060200160405180910390a15b5050505050505050565b60008181526101146020908152604080832081516060810183528154808252600183015494820185905260029092015492810183905261010a549193929185919082906118179085612816565b9050428111156118325761182b4282612793565b9250611850565b600061184561183f610e65565b886120fd565b111561185057600196505b505091939590929450565b60c9546001600160a01b031633148061187e575060ff546001600160a01b031633145b61189a5760405162461bcd60e51b8152600401610db790612726565b60655460ff16156118bd5760405162461bcd60e51b8152600401610db790612753565b610dc0612140565b6001600160a01b03918216600090815260346020908152604080832093909416825291909152205490565b6000806060600260975414156119185760405162461bcd60e51b8152600401610db7906127df565b60016097559193909250565b60c9546001600160a01b0316331461194e5760405162461bcd60e51b8152600401610db7906127aa565b6001600160a01b0381166119b35760405162461bcd60e51b815260206004820152602660248201527f4f776e61626c653a206e6577206f776e657220697320746865207a65726f206160448201526564647265737360d01b6064820152608401610db7565b610f6881611f79565b60c9546001600160a01b031633146119e65760405162461bcd60e51b8152600401610db7906127aa565b610101546001600160a01b031615611a2e5760405162461bcd60e51b815260206004820152600b60248201526a105b1c9958591e481cd95d60aa1b6044820152606401610db7565b61010180546001600160a01b0319166001600160a01b0392909216919091179055565b60026097541415611a745760405162461bcd60e51b8152600401610db7906127df565b600260975560655460ff1615611a9c5760405162461bcd60e51b8152600401610db790612753565b6001609755565b60c9546001600160a01b0316331480611ac6575060ff546001600160a01b031633145b611ae25760405162461bcd60e51b8152600401610db790612726565b60655460ff16611b045760405162461bcd60e51b8152600401610db79061286f565b6101095415611b615760405162461bcd60e51b815260206004820152602360248201527f456d657267656e637920756e626f6e64696e67206973206e6f742066696e69736044820152621a195960ea1b6064820152608401610db7565b611b696121b5565b600061010955610dc080565b6001600160a01b038316611bd75760405162461bcd60e51b8152602060048201526024808201527f45524332303a20617070726f76652066726f6d20746865207a65726f206164646044820152637265737360e01b6064820152608401610db7565b6001600160a01b038216611c385760405162461bcd60e51b815260206004820152602260248201527f45524332303a20617070726f766520746f20746865207a65726f206164647265604482015261737360f01b6064820152608401610db7565b6001600160a01b0383811660008181526034602090815260408083209487168084529482529182902085905590518481527f8c5be1e5ebec7d5bd14f71427d1e84f3dd0314c0f7b2291e5b200ac8c7c3b925910160405180910390a3505050565b6000611ca584846118c5565b9050600019811461162f5781811015611d005760405162461bcd60e51b815260206004820152601d60248201527f45524332303a20696e73756666696369656e7420616c6c6f77616e63650000006044820152606401610db7565b61162f8484848403611b75565b6001600160a01b038316611d715760405162461bcd60e51b815260206004820152602560248201527f45524332303a207472616e736665722066726f6d20746865207a65726f206164604482015264647265737360d81b6064820152608401610db7565b6001600160a01b038216611dd35760405162461bcd60e51b815260206004820152602360248201527f45524332303a207472616e7366657220746f20746865207a65726f206164647260448201526265737360e81b6064820152608401610db7565b6001600160a01b03831660009081526033602052604090205481811015611e4b5760405162461bcd60e51b815260206004820152602660248201527f45524332303a207472616e7366657220616d6f756e7420657863656564732062604482015265616c616e636560d01b6064820152608401610db7565b6001600160a01b03808516600090815260336020526040808220858503905591851681529081208054849290611e82908490612816565b92505081905550826001600160a01b0316846001600160a01b03167fddf252ad1be2c89b69c2b068fc378daa952ba7f163c4a11628f55a4df523b3ef84604051611ece91815260200190565b60405180910390a361162f565b6000818310156114995781610de1565b600081831415611efc575082610de1565b81831015611f2a57611f0e8383612793565b611f1990600a612990565b611f23908561282e565b9050610de1565b611f348284612793565b611f3f90600a612990565b611f23908561284d565b6000806000611f56610fb4565b9250925092508015611f745761011583905561011682905542610117555b505050565b60c980546001600160a01b038381166001600160a01b0319831681179093556040519116919082907f8be0079c531659141344cd1fd0a4f28419497f9722a3daafe3b4186f6b6457e090600090a35050565b60008054610100900460ff1615612012578160ff166001148015611fee5750303b155b61200a5760405162461bcd60e51b8152600401610db79061299c565b506000919050565b60005460ff8084169116106120395760405162461bcd60e51b8152600401610db79061299c565b506000805460ff191660ff92909216919091179055600190565b919050565b600054610100900460ff1661207f5760405162461bcd60e51b8152600401610db7906129ea565b610dc033611f79565b600054610100900460ff16611a9c5760405162461bcd60e51b8152600401610db7906129ea565b600054610100900460ff166120d65760405162461bcd60e51b8152600401610db7906129ea565b81516120e9906036906020850190612217565b508051611f74906037906020840190612217565b6000806305f5e100612113846305f5e0ff61282e565b61211d919061284d565b9050808410612135576121308484612208565b612138565b60005b949350505050565b60655460ff16156121635760405162461bcd60e51b8152600401610db790612753565b6065805460ff191660011790557f62e78cea01bee320cd4e420270b5ea74000d11b0c9f74754ebdbfc544b05a2586121983390565b6040516001600160a01b03909116815260200160405180910390a1565b60655460ff166121d75760405162461bcd60e51b8152600401610db79061286f565b6065805460ff191690557f5db9ee0a495bf2e6ff9c91a7834c1ba4fdd244a5e8aa4e537bd38aeae4b073aa33612198565b60008183106114995781610de1565b828054612223906126eb565b90600052602060002090601f016020900481019282612245576000855561228b565b82601f1061225e57805160ff191683800117855561228b565b8280016001018555821561228b579182015b8281111561228b578251825591602001919060010190612270565b5061229792915061229b565b5090565b5b80821115612297576000815560010161229c565b600060208083528351808285015260005b818110156122dd578581018301518582016040015282016122c1565b818111156122ef576000604083870101525b50601f01601f1916929092016040019392505050565b80356001600160a01b038116811461205357600080fd5b6000806040838503121561232f57600080fd5b61233883612305565b946020939093013593505050565b60008060006060848603121561235b57600080fd5b61236484612305565b925061237260208501612305565b9150604084013590509250925092565b6000806000806080858703121561239857600080fd5b5050823594602084013594506040840135936060013592509050565b6000602082840312156123c657600080fd5b5035919050565b6000602082840312156123df57600080fd5b610de182612305565b600080604083850312156123fb57600080fd5b50508035926020909101359150565b60008060006060848603121561241f57600080fd5b61242884612305565b925061243660208501612305565b915061244460408501612305565b90509250925092565b634e487b7160e01b600052604160045260246000fd5b604051601f8201601f1916810167ffffffffffffffff8111828210171561248c5761248c61244d565b604052919050565b600082601f8301126124a557600080fd5b813567ffffffffffffffff8111156124bf576124bf61244d565b6124d2601f8201601f1916602001612463565b8181528460208386010111156124e757600080fd5b816020850160208301376000918101602001919091529392505050565b600080600080600080600060e0888a03121561251f57600080fd5b873567ffffffffffffffff8082111561253757600080fd5b6125438b838c01612494565b985060208a013591508082111561255957600080fd5b506125668a828b01612494565b96505061257560408901612305565b945061258360608901612305565b935061259160808901612305565b925061259f60a08901612305565b91506125ad60c08901612305565b905092959891949750929550565b600080604083850312156125ce57600080fd5b6125d783612305565b91506125e560208401612305565b90509250929050565b6000602080838503121561260157600080fd5b823567ffffffffffffffff8082111561261957600080fd5b818501915085601f83011261262d57600080fd5b81358181111561263f5761263f61244d565b8060051b9150612650848301612463565b818152918301840191848101908884111561266a57600080fd5b938501935b838510156126885784358252938501939085019061266f565b98975050505050505050565b6000606082018583526020858185015260606040850152818551808452608086019150828701935060005b818110156126dd5784511515835293830193918301916001016126bf565b509098975050505050505050565b600181811c908216806126ff57607f821691505b6020821081141561272057634e487b7160e01b600052602260045260246000fd5b50919050565b60208082526013908201527227b7363c9037bbb732b91037b91030b236b4b760691b604082015260600190565b60208082526010908201526f14185d5cd8589b194e881c185d5cd95960821b604082015260600190565b634e487b7160e01b600052601160045260246000fd5b6000828210156127a5576127a561277d565b500390565b6020808252818101527f4f776e61626c653a2063616c6c6572206973206e6f7420746865206f776e6572604082015260600190565b6020808252601f908201527f5265656e7472616e637947756172643a207265656e7472616e742063616c6c00604082015260600190565b600082198211156128295761282961277d565b500190565b60008160001904831182151516156128485761284861277d565b500290565b60008261286a57634e487b7160e01b600052601260045260246000fd5b500490565b60208082526014908201527314185d5cd8589b194e881b9bdd081c185d5cd95960621b604082015260600190565b600181815b808511156128d85781600019048211156128be576128be61277d565b808516156128cb57918102915b93841c93908002906128a2565b509250929050565b6000826128ef57506001610d72565b816128fc57506000610d72565b8160018114612912576002811461291c57612938565b6001915050610d72565b60ff84111561292d5761292d61277d565b50506001821b610d72565b5060208310610133831016604e8410600b841016171561295b575081810a610d72565b612965838361289d565b80600019048211156129795761297961277d565b029392505050565b6000610de160ff8416836128e0565b6000610de183836128e0565b6020808252602e908201527f496e697469616c697a61626c653a20636f6e747261637420697320616c72656160408201526d191e481a5b9a5d1a585b1a5e995960921b606082015260800190565b6020808252602b908201527f496e697469616c697a61626c653a20636f6e7472616374206973206e6f74206960408201526a6e697469616c697a696e6760a81b60608201526080019056fea2646970667358221220f6352f2ec18688c78176446da61680f0d59b6158620ca60fa335f940663163df64736f6c63430008090033",
  "devdoc": {
    "kind": "dev",
    "methods": {
      "allowance(address,address)": {
        "details": "See {IERC20-allowance}."
      },
      "approve(address,uint256)": {
        "details": "See {IERC20-approve}. NOTE: If `amount` is the maximum `uint256`, the allowance is not updated on `transferFrom`. This is semantically equivalent to an infinite approval. Requirements: - `spender` cannot be the zero address."
      },
      "balanceOf(address)": {
        "details": "See {IERC20-balanceOf}."
      },
      "claim(uint256)": {
        "details": "claim token with NFT token",
        "returns": {
          "_amount": "is the amount of claimed token."
        }
      },
      "claimMulti(uint256[])": {
        "details": "claim token with NFT tokens",
        "returns": {
          "_amount": "is the amount of claimed token.",
          "_claimed": "is the flag indicating whether the token is claimed.",
          "_claimedCount": "is the count of reqIds that are claimed."
        }
      },
      "claimUnbonded()": {
        "details": "claim the unbonded tokens from the staking pool. It's called by admin."
      },
      "collectProfitAndUpdateWatermark()": {
        "details": "collect profit and update the watermark"
      },
      "decimals()": {
        "details": "Returns the number of decimals used to get its user representation. For example, if `decimals` equals `2`, a balance of `505` tokens should be displayed to a user as `5.05` (`505 / 10 ** 2`). Tokens usually opt for a value of 18, imitating the relationship between Ether and Wei. This is the value {ERC20} uses, unless this function is overridden; NOTE: This information is only used for _display_ purposes: it in no way affects any of the arithmetic of the contract, including {IERC20-balanceOf} and {IERC20-transfer}."
      },
      "decreaseAllowance(address,uint256)": {
        "details": "Atomically decreases the allowance granted to `spender` by the caller. This is an alternative to {approve} that can be used as a mitigation for problems described in {IERC20-approve}. Emits an {Approval} event indicating the updated allowance. Requirements: - `spender` cannot be the zero address. - `spender` must have allowance for the caller of at least `subtractedValue`."
      },
      "deposit(uint256)": {
        "details": "deposit `_amount` of token."
      },
      "depositETH()": {
        "details": "deposit the native asset."
      },
      "emergencyPendingRedeems()": {
        "details": "the total amount of emergency withdrawal stToken that is not yet requested to the staking pool."
      },
      "emergencyRedeem()": {
        "details": "In emergency mode, redeem the rest of stTokens. Especially it's needed for stNEAR because the MetaPool has a buffer limit."
      },
      "getAPR()": {
        "returns": {
          "_0": "the APR in the vault. It's scaled by 1e18."
        }
      },
      "getAllPool()": {
        "details": "it doesn't include the unbonding stTokens according to the burnt shares."
      },
      "getAllPoolInUSD()": {
        "returns": {
          "_0": "the total USD value of tokens in the vault."
        }
      },
      "getPoolByShares(uint256)": {
        "returns": {
          "_0": "the amount of token that corresponds to `_shares` of shares."
        }
      },
      "getPooledTokenByStToken(uint256)": {
        "params": {
          "_stAmount": "Amount of stTokens"
        }
      },
      "getSharesByPool(uint256)": {
        "returns": {
          "_0": "the amount of shares that corresponds to `_amount` of token."
        }
      },
      "getStTokenByPooledToken(uint256)": {
        "params": {
          "_amount": "Amount of tokens"
        }
      },
      "getTokenUnbonded()": {
        "returns": {
          "_0": "the unbonded token amount that is claimable from the staking pool."
        }
      },
      "getWithdrawRequest(uint256)": {
        "returns": {
          "_claimable": "specifys whether user can claim tokens for it.",
          "_requestTs": "is timestmap when withdrawal requested.",
          "_stTokenAmt": "is amount of stToken to redeem.",
          "_tokenAmt": "is amount of token to claim.",
          "_waitForTs": "is timestamp to wait for."
        }
      },
      "increaseAllowance(address,uint256)": {
        "details": "Atomically increases the allowance granted to `spender` by the caller. This is an alternative to {approve} that can be used as a mitigation for problems described in {IERC20-approve}. Emits an {Approval} event indicating the updated allowance. Requirements: - `spender` cannot be the zero address."
      },
      "invest()": {
        "details": "stake the buffered deposits into the staking pool. It's called by admin."
      },
      "name()": {
        "details": "Returns the name of the token."
      },
      "owner()": {
        "details": "Returns the address of the current owner."
      },
      "paused()": {
        "details": "Returns true if the contract is paused, and false otherwise."
      },
      "redeem()": {
        "details": "redeem the requested withdrawals from the staking pool. It's called by admin."
      },
      "renounceOwnership()": {
        "details": "Leaves the contract without owner. It will not be possible to call `onlyOwner` functions anymore. Can only be called by the current owner. NOTE: Renouncing ownership will leave the contract without an owner, thereby removing any functionality that is only available to the owner."
      },
      "setFee(uint256)": {
        "params": {
          "_yieldFeePerc": "deposit fee percentage. 2000 for 20%"
        }
      },
      "symbol()": {
        "details": "Returns the symbol of the token, usually a shorter version of the name."
      },
      "totalSupply()": {
        "details": "See {IERC20-totalSupply}."
      },
      "transfer(address,uint256)": {
        "details": "See {IERC20-transfer}. Requirements: - `to` cannot be the zero address. - the caller must have a balance of at least `amount`."
      },
      "transferFrom(address,address,uint256)": {
        "details": "See {IERC20-transferFrom}. Emits an {Approval} event indicating the updated allowance. This is not required by the EIP. See the note at the beginning of {ERC20}. NOTE: Does not update the allowance if the current allowance is the maximum `uint256`. Requirements: - `from` and `to` cannot be the zero address. - `from` must have a balance of at least `amount`. - the caller must have allowance for ``from``'s tokens of at least `amount`."
      },
      "transferOwnership(address)": {
        "details": "Transfers ownership of the contract to a new account (`newOwner`). Can only be called by the current owner."
      },
      "withdraw(uint256)": {
        "details": "request a withdrawal that corresponds to `_shares` of shares.",
        "returns": {
          "_amount": "is the amount of withdrawn token.",
          "_reqId": "is the NFT token id indicating the request for rest of withdrawal. 0 if no request is made."
        }
      },
      "withdrawFees()": {
        "details": "transfer out fees."
      },
      "yield()": {
        "details": "take rewards and reinvest them. It's called by admin."
      }
    },
    "version": 1
  },
  "userdoc": {
    "kind": "user",
    "methods": {
      "emergencyWithdraw()": {
        "notice": "Withdraws funds staked in mirror to this vault and pauses deposit, yield, invest functions"
      },
      "getPendingRewards()": {
        "notice": "Returns the pending rewards in USD."
      },
      "reinvest()": {
        "notice": "Unpauses deposit, yield, invest functions, and invests funds."
      },
      "setFee(uint256)": {
        "notice": "Function to set deposit and yield fee"
      }
    },
    "version": 1
  },
  "storageLayout": {
    "storage": [
      {
        "astId": 713,
        "contract": "contracts/stVaults/lido/EthStMATICVaultTest.sol:EthStMATICVaultTest",
        "label": "_initialized",
        "offset": 0,
        "slot": "0",
        "type": "t_uint8"
      },
      {
        "astId": 716,
        "contract": "contracts/stVaults/lido/EthStMATICVaultTest.sol:EthStMATICVaultTest",
        "label": "_initializing",
        "offset": 1,
        "slot": "0",
        "type": "t_bool"
      },
      {
        "astId": 3292,
        "contract": "contracts/stVaults/lido/EthStMATICVaultTest.sol:EthStMATICVaultTest",
        "label": "__gap",
        "offset": 0,
        "slot": "1",
        "type": "t_array(t_uint256)50_storage"
      },
      {
        "astId": 1037,
        "contract": "contracts/stVaults/lido/EthStMATICVaultTest.sol:EthStMATICVaultTest",
        "label": "_balances",
        "offset": 0,
        "slot": "51",
        "type": "t_mapping(t_address,t_uint256)"
      },
      {
        "astId": 1043,
        "contract": "contracts/stVaults/lido/EthStMATICVaultTest.sol:EthStMATICVaultTest",
        "label": "_allowances",
        "offset": 0,
        "slot": "52",
        "type": "t_mapping(t_address,t_mapping(t_address,t_uint256))"
      },
      {
        "astId": 1045,
        "contract": "contracts/stVaults/lido/EthStMATICVaultTest.sol:EthStMATICVaultTest",
        "label": "_totalSupply",
        "offset": 0,
        "slot": "53",
        "type": "t_uint256"
      },
      {
        "astId": 1047,
        "contract": "contracts/stVaults/lido/EthStMATICVaultTest.sol:EthStMATICVaultTest",
        "label": "_name",
        "offset": 0,
        "slot": "54",
        "type": "t_string_storage"
      },
      {
        "astId": 1049,
        "contract": "contracts/stVaults/lido/EthStMATICVaultTest.sol:EthStMATICVaultTest",
        "label": "_symbol",
        "offset": 0,
        "slot": "55",
        "type": "t_string_storage"
      },
      {
        "astId": 1628,
        "contract": "contracts/stVaults/lido/EthStMATICVaultTest.sol:EthStMATICVaultTest",
        "label": "__gap",
        "offset": 0,
        "slot": "56",
        "type": "t_array(t_uint256)45_storage"
      },
      {
        "astId": 869,
        "contract": "contracts/stVaults/lido/EthStMATICVaultTest.sol:EthStMATICVaultTest",
        "label": "_paused",
        "offset": 0,
        "slot": "101",
        "type": "t_bool"
      },
      {
        "astId": 958,
        "contract": "contracts/stVaults/lido/EthStMATICVaultTest.sol:EthStMATICVaultTest",
        "label": "__gap",
        "offset": 0,
        "slot": "102",
        "type": "t_array(t_uint256)49_storage"
      },
      {
        "astId": 973,
        "contract": "contracts/stVaults/lido/EthStMATICVaultTest.sol:EthStMATICVaultTest",
        "label": "_status",
        "offset": 0,
        "slot": "151",
        "type": "t_uint256"
      },
      {
        "astId": 1017,
        "contract": "contracts/stVaults/lido/EthStMATICVaultTest.sol:EthStMATICVaultTest",
        "label": "__gap",
        "offset": 0,
        "slot": "152",
        "type": "t_array(t_uint256)49_storage"
      },
      {
        "astId": 593,
        "contract": "contracts/stVaults/lido/EthStMATICVaultTest.sol:EthStMATICVaultTest",
        "label": "_owner",
        "offset": 0,
        "slot": "201",
        "type": "t_address"
      },
      {
        "astId": 705,
        "contract": "contracts/stVaults/lido/EthStMATICVaultTest.sol:EthStMATICVaultTest",
        "label": "__gap",
        "offset": 0,
        "slot": "202",
        "type": "t_array(t_uint256)49_storage"
      },
      {
        "astId": 39670,
        "contract": "contracts/stVaults/lido/EthStMATICVaultTest.sol:EthStMATICVaultTest",
        "label": "yieldFee",
        "offset": 0,
        "slot": "251",
        "type": "t_uint256"
      },
      {
        "astId": 39672,
        "contract": "contracts/stVaults/lido/EthStMATICVaultTest.sol:EthStMATICVaultTest",
        "label": "watermark",
        "offset": 0,
        "slot": "252",
        "type": "t_uint256"
      },
      {
        "astId": 39674,
        "contract": "contracts/stVaults/lido/EthStMATICVaultTest.sol:EthStMATICVaultTest",
        "label": "fees",
        "offset": 0,
        "slot": "253",
        "type": "t_uint256"
      },
      {
        "astId": 39676,
        "contract": "contracts/stVaults/lido/EthStMATICVaultTest.sol:EthStMATICVaultTest",
        "label": "treasuryWallet",
        "offset": 0,
        "slot": "254",
        "type": "t_address"
      },
      {
        "astId": 39678,
        "contract": "contracts/stVaults/lido/EthStMATICVaultTest.sol:EthStMATICVaultTest",
        "label": "admin",
        "offset": 0,
        "slot": "255",
        "type": "t_address"
      },
      {
        "astId": 39681,
        "contract": "contracts/stVaults/lido/EthStMATICVaultTest.sol:EthStMATICVaultTest",
        "label": "priceOracle",
        "offset": 0,
        "slot": "256",
        "type": "t_contract(IPriceOracle)11910"
      },
      {
        "astId": 39684,
        "contract": "contracts/stVaults/lido/EthStMATICVaultTest.sol:EthStMATICVaultTest",
        "label": "nft",
        "offset": 0,
        "slot": "257",
        "type": "t_contract(IStVaultNFT)66253"
      },
      {
        "astId": 39687,
        "contract": "contracts/stVaults/lido/EthStMATICVaultTest.sol:EthStMATICVaultTest",
        "label": "token",
        "offset": 0,
        "slot": "258",
        "type": "t_contract(IERC20Upgradeable)1707"
      },
      {
        "astId": 39690,
        "contract": "contracts/stVaults/lido/EthStMATICVaultTest.sol:EthStMATICVaultTest",
        "label": "stToken",
        "offset": 0,
        "slot": "259",
        "type": "t_contract(IERC20Upgradeable)1707"
      },
      {
        "astId": 39692,
        "contract": "contracts/stVaults/lido/EthStMATICVaultTest.sol:EthStMATICVaultTest",
        "label": "tokenDecimals",
        "offset": 20,
        "slot": "259",
        "type": "t_uint8"
      },
      {
        "astId": 39694,
        "contract": "contracts/stVaults/lido/EthStMATICVaultTest.sol:EthStMATICVaultTest",
        "label": "stTokenDecimals",
        "offset": 21,
        "slot": "259",
        "type": "t_uint8"
      },
      {
        "astId": 39696,
        "contract": "contracts/stVaults/lido/EthStMATICVaultTest.sol:EthStMATICVaultTest",
        "label": "oneToken",
        "offset": 0,
        "slot": "260",
        "type": "t_uint256"
      },
      {
        "astId": 39698,
        "contract": "contracts/stVaults/lido/EthStMATICVaultTest.sol:EthStMATICVaultTest",
        "label": "oneStToken",
        "offset": 0,
        "slot": "261",
        "type": "t_uint256"
      },
      {
        "astId": 39700,
        "contract": "contracts/stVaults/lido/EthStMATICVaultTest.sol:EthStMATICVaultTest",
        "label": "bufferedDeposits",
        "offset": 0,
        "slot": "262",
        "type": "t_uint256"
      },
      {
        "astId": 39702,
        "contract": "contracts/stVaults/lido/EthStMATICVaultTest.sol:EthStMATICVaultTest",
        "label": "pendingWithdrawals",
        "offset": 0,
        "slot": "263",
        "type": "t_uint256"
      },
      {
        "astId": 39704,
        "contract": "contracts/stVaults/lido/EthStMATICVaultTest.sol:EthStMATICVaultTest",
        "label": "pendingRedeems",
        "offset": 0,
        "slot": "264",
        "type": "t_uint256"
      },
      {
        "astId": 39706,
        "contract": "contracts/stVaults/lido/EthStMATICVaultTest.sol:EthStMATICVaultTest",
        "label": "emergencyUnbondings",
        "offset": 0,
        "slot": "265",
        "type": "t_uint256"
      },
      {
        "astId": 39708,
        "contract": "contracts/stVaults/lido/EthStMATICVaultTest.sol:EthStMATICVaultTest",
        "label": "unbondingPeriod",
        "offset": 0,
        "slot": "266",
        "type": "t_uint256"
      },
      {
        "astId": 39710,
        "contract": "contracts/stVaults/lido/EthStMATICVaultTest.sol:EthStMATICVaultTest",
        "label": "minInvestAmount",
        "offset": 0,
        "slot": "267",
        "type": "t_uint256"
      },
      {
        "astId": 39712,
        "contract": "contracts/stVaults/lido/EthStMATICVaultTest.sol:EthStMATICVaultTest",
        "label": "minRedeemAmount",
        "offset": 0,
        "slot": "268",
        "type": "t_uint256"
      },
      {
        "astId": 39714,
        "contract": "contracts/stVaults/lido/EthStMATICVaultTest.sol:EthStMATICVaultTest",
        "label": "lastInvestTs",
        "offset": 0,
        "slot": "269",
        "type": "t_uint256"
      },
      {
        "astId": 39716,
        "contract": "contracts/stVaults/lido/EthStMATICVaultTest.sol:EthStMATICVaultTest",
        "label": "investInterval",
        "offset": 0,
        "slot": "270",
        "type": "t_uint256"
      },
      {
        "astId": 39718,
        "contract": "contracts/stVaults/lido/EthStMATICVaultTest.sol:EthStMATICVaultTest",
        "label": "lastRedeemTs",
        "offset": 0,
        "slot": "271",
        "type": "t_uint256"
      },
      {
        "astId": 39720,
        "contract": "contracts/stVaults/lido/EthStMATICVaultTest.sol:EthStMATICVaultTest",
        "label": "redeemInterval",
        "offset": 0,
        "slot": "272",
        "type": "t_uint256"
      },
      {
        "astId": 39722,
        "contract": "contracts/stVaults/lido/EthStMATICVaultTest.sol:EthStMATICVaultTest",
        "label": "lastCollectProfitTs",
        "offset": 0,
        "slot": "273",
        "type": "t_uint256"
      },
      {
        "astId": 39724,
        "contract": "contracts/stVaults/lido/EthStMATICVaultTest.sol:EthStMATICVaultTest",
        "label": "oneEpoch",
        "offset": 0,
        "slot": "274",
        "type": "t_uint256"
      },
      {
        "astId": 39728,
        "contract": "contracts/stVaults/lido/EthStMATICVaultTest.sol:EthStMATICVaultTest",
        "label": "depositedBlock",
        "offset": 0,
        "slot": "275",
        "type": "t_mapping(t_address,t_uint256)"
      },
      {
        "astId": 39733,
        "contract": "contracts/stVaults/lido/EthStMATICVaultTest.sol:EthStMATICVaultTest",
        "label": "nft2WithdrawRequest",
        "offset": 0,
        "slot": "276",
        "type": "t_mapping(t_uint256,t_struct(WithdrawRequest)65955_storage)"
      },
      {
        "astId": 39735,
        "contract": "contracts/stVaults/lido/EthStMATICVaultTest.sol:EthStMATICVaultTest",
        "label": "baseApr",
        "offset": 0,
        "slot": "277",
        "type": "t_uint256"
      },
      {
        "astId": 39737,
        "contract": "contracts/stVaults/lido/EthStMATICVaultTest.sol:EthStMATICVaultTest",
        "label": "baseTokenRate",
        "offset": 0,
        "slot": "278",
        "type": "t_uint256"
      },
      {
        "astId": 39739,
        "contract": "contracts/stVaults/lido/EthStMATICVaultTest.sol:EthStMATICVaultTest",
        "label": "baseAprLastUpdate",
        "offset": 0,
        "slot": "279",
        "type": "t_uint256"
      },
      {
        "astId": 40907,
        "contract": "contracts/stVaults/lido/EthStMATICVaultTest.sol:EthStMATICVaultTest",
        "label": "__gap",
        "offset": 0,
        "slot": "280",
        "type": "t_array(t_uint256)20_storage"
      },
      {
        "astId": 42891,
        "contract": "contracts/stVaults/lido/EthStMATICVaultTest.sol:EthStMATICVaultTest",
        "label": "tokenIds",
        "offset": 0,
        "slot": "300",
        "type": "t_mapping(t_uint256,t_uint256)"
      },
      {
        "astId": 42893,
        "contract": "contracts/stVaults/lido/EthStMATICVaultTest.sol:EthStMATICVaultTest",
        "label": "first",
        "offset": 0,
        "slot": "301",
        "type": "t_uint256"
      },
      {
        "astId": 42895,
        "contract": "contracts/stVaults/lido/EthStMATICVaultTest.sol:EthStMATICVaultTest",
        "label": "last",
        "offset": 0,
        "slot": "302",
        "type": "t_uint256"
      }
    ],
    "types": {
      "t_address": {
        "encoding": "inplace",
        "label": "address",
        "numberOfBytes": "20"
      },
      "t_array(t_uint256)20_storage": {
        "base": "t_uint256",
        "encoding": "inplace",
        "label": "uint256[20]",
        "numberOfBytes": "640"
      },
      "t_array(t_uint256)45_storage": {
        "base": "t_uint256",
        "encoding": "inplace",
        "label": "uint256[45]",
        "numberOfBytes": "1440"
      },
      "t_array(t_uint256)49_storage": {
        "base": "t_uint256",
        "encoding": "inplace",
        "label": "uint256[49]",
        "numberOfBytes": "1568"
      },
      "t_array(t_uint256)50_storage": {
        "base": "t_uint256",
        "encoding": "inplace",
        "label": "uint256[50]",
        "numberOfBytes": "1600"
      },
      "t_bool": {
        "encoding": "inplace",
        "label": "bool",
        "numberOfBytes": "1"
      },
      "t_contract(IERC20Upgradeable)1707": {
        "encoding": "inplace",
        "label": "contract IERC20Upgradeable",
        "numberOfBytes": "20"
      },
      "t_contract(IPriceOracle)11910": {
        "encoding": "inplace",
        "label": "contract IPriceOracle",
        "numberOfBytes": "20"
      },
      "t_contract(IStVaultNFT)66253": {
        "encoding": "inplace",
        "label": "contract IStVaultNFT",
        "numberOfBytes": "20"
      },
      "t_mapping(t_address,t_mapping(t_address,t_uint256))": {
        "encoding": "mapping",
        "key": "t_address",
        "label": "mapping(address => mapping(address => uint256))",
        "numberOfBytes": "32",
        "value": "t_mapping(t_address,t_uint256)"
      },
      "t_mapping(t_address,t_uint256)": {
        "encoding": "mapping",
        "key": "t_address",
        "label": "mapping(address => uint256)",
        "numberOfBytes": "32",
        "value": "t_uint256"
      },
      "t_mapping(t_uint256,t_struct(WithdrawRequest)65955_storage)": {
        "encoding": "mapping",
        "key": "t_uint256",
        "label": "mapping(uint256 => struct IStVault.WithdrawRequest)",
        "numberOfBytes": "32",
        "value": "t_struct(WithdrawRequest)65955_storage"
      },
      "t_mapping(t_uint256,t_uint256)": {
        "encoding": "mapping",
        "key": "t_uint256",
        "label": "mapping(uint256 => uint256)",
        "numberOfBytes": "32",
        "value": "t_uint256"
      },
      "t_string_storage": {
        "encoding": "bytes",
        "label": "string",
        "numberOfBytes": "32"
      },
      "t_struct(WithdrawRequest)65955_storage": {
        "encoding": "inplace",
        "label": "struct IStVault.WithdrawRequest",
        "members": [
          {
            "astId": 65950,
            "contract": "contracts/stVaults/lido/EthStMATICVaultTest.sol:EthStMATICVaultTest",
            "label": "tokenAmt",
            "offset": 0,
            "slot": "0",
            "type": "t_uint256"
          },
          {
            "astId": 65952,
            "contract": "contracts/stVaults/lido/EthStMATICVaultTest.sol:EthStMATICVaultTest",
            "label": "stTokenAmt",
            "offset": 0,
            "slot": "1",
            "type": "t_uint256"
          },
          {
            "astId": 65954,
            "contract": "contracts/stVaults/lido/EthStMATICVaultTest.sol:EthStMATICVaultTest",
            "label": "requestTs",
            "offset": 0,
            "slot": "2",
            "type": "t_uint256"
          }
        ],
        "numberOfBytes": "96"
      },
      "t_uint256": {
        "encoding": "inplace",
        "label": "uint256",
        "numberOfBytes": "32"
      },
      "t_uint8": {
        "encoding": "inplace",
        "label": "uint8",
        "numberOfBytes": "1"
      }
    }
  }
}