{
  "address": "0x7e78D5CaB721Cc7340C9EF97511f846Dfac4594e",
  "abi": [
    {
      "anonymous": false,
      "inputs": [
        {
          "indexed": false,
          "internalType": "address",
          "name": "token",
          "type": "address"
        },
        {
          "indexed": false,
          "internalType": "uint256",
          "name": "pid",
          "type": "uint256"
        }
      ],
      "name": "AddToken",
      "type": "event"
    },
    {
      "anonymous": false,
      "inputs": [
        {
          "indexed": false,
          "internalType": "address",
          "name": "claimer",
          "type": "address"
        },
        {
          "indexed": false,
          "internalType": "address",
          "name": "token",
          "type": "address"
        },
        {
          "indexed": false,
          "internalType": "uint256",
          "name": "tokenAmt",
          "type": "uint256"
        },
        {
          "indexed": false,
          "internalType": "uint256",
          "name": "USDTAmt",
          "type": "uint256"
        }
      ],
      "name": "Claim",
      "type": "event"
    },
    {
      "anonymous": false,
      "inputs": [
        {
          "indexed": false,
          "internalType": "uint256",
          "name": "USDTAmt",
          "type": "uint256"
        }
      ],
      "name": "EmergencyWithdraw",
      "type": "event"
    },
    {
      "anonymous": false,
      "inputs": [
        {
          "indexed": false,
          "internalType": "uint8",
          "name": "version",
          "type": "uint8"
        }
      ],
      "name": "Initialized",
      "type": "event"
    },
    {
      "anonymous": false,
      "inputs": [
        {
          "indexed": true,
          "internalType": "address",
          "name": "previousOwner",
          "type": "address"
        },
        {
          "indexed": true,
          "internalType": "address",
          "name": "newOwner",
          "type": "address"
        }
      ],
      "name": "OwnershipTransferred",
      "type": "event"
    },
    {
      "anonymous": false,
      "inputs": [
        {
          "indexed": false,
          "internalType": "address",
          "name": "account",
          "type": "address"
        }
      ],
      "name": "Paused",
      "type": "event"
    },
    {
      "anonymous": false,
      "inputs": [
        {
          "indexed": false,
          "internalType": "address",
          "name": "token",
          "type": "address"
        },
        {
          "indexed": false,
          "internalType": "uint256",
          "name": "pid",
          "type": "uint256"
        }
      ],
      "name": "RemoveToken",
      "type": "event"
    },
    {
      "anonymous": false,
      "inputs": [
        {
          "indexed": false,
          "internalType": "address",
          "name": "oldAdmin",
          "type": "address"
        },
        {
          "indexed": false,
          "internalType": "address",
          "name": "newAdmin",
          "type": "address"
        }
      ],
      "name": "SetAdminWallet",
      "type": "event"
    },
    {
      "anonymous": false,
      "inputs": [
        {
          "indexed": false,
          "internalType": "address",
          "name": "oldTreasuryWallet",
          "type": "address"
        },
        {
          "indexed": false,
          "internalType": "address",
          "name": "newTreasuryWallet",
          "type": "address"
        }
      ],
      "name": "SetTreasuryWallet",
      "type": "event"
    },
    {
      "anonymous": false,
      "inputs": [
        {
          "indexed": false,
          "internalType": "address",
          "name": "account",
          "type": "address"
        }
      ],
      "name": "Unpaused",
      "type": "event"
    },
    {
      "anonymous": false,
      "inputs": [
        {
          "indexed": false,
          "internalType": "uint256",
          "name": "sharePerc",
          "type": "uint256"
        },
        {
          "indexed": false,
          "internalType": "uint256",
          "name": "USDTAmt",
          "type": "uint256"
        }
      ],
      "name": "Withdraw",
      "type": "event"
    },
    {
      "inputs": [],
      "name": "ETHVault",
      "outputs": [
        {
          "internalType": "contract IStVault",
          "name": "",
          "type": "address"
        }
      ],
      "stateMutability": "view",
      "type": "function"
    },
    {
      "inputs": [],
      "name": "MATICVault",
      "outputs": [
        {
          "internalType": "contract IStVault",
          "name": "",
          "type": "address"
        }
      ],
      "stateMutability": "view",
      "type": "function"
    },
    {
      "inputs": [],
      "name": "SWAP_BASE_TOKEN",
      "outputs": [
        {
          "internalType": "contract IERC20UpgradeableExt",
          "name": "",
          "type": "address"
        }
      ],
      "stateMutability": "view",
      "type": "function"
    },
    {
      "inputs": [],
      "name": "USDT",
      "outputs": [
        {
          "internalType": "contract IERC20UpgradeableExt",
          "name": "",
          "type": "address"
        }
      ],
      "stateMutability": "view",
      "type": "function"
    },
    {
      "inputs": [
        {
          "internalType": "address",
          "name": "_token",
          "type": "address"
        }
      ],
      "name": "addToken",
      "outputs": [],
      "stateMutability": "nonpayable",
      "type": "function"
    },
    {
      "inputs": [],
      "name": "admin",
      "outputs": [
        {
          "internalType": "address",
          "name": "",
          "type": "address"
        }
      ],
      "stateMutability": "view",
      "type": "function"
    },
    {
      "inputs": [
        {
          "internalType": "address",
          "name": "_claimer",
          "type": "address"
        }
      ],
      "name": "claim",
      "outputs": [
        {
          "internalType": "uint256",
          "name": "USDTAmt",
          "type": "uint256"
        }
      ],
      "stateMutability": "nonpayable",
      "type": "function"
    },
    {
      "inputs": [],
      "name": "claimEmergencyWithdrawal",
      "outputs": [],
      "stateMutability": "nonpayable",
      "type": "function"
    },
    {
      "inputs": [
        {
          "internalType": "address",
          "name": "",
          "type": "address"
        },
        {
          "internalType": "address",
          "name": "",
          "type": "address"
        },
        {
          "internalType": "uint256",
          "name": "",
          "type": "uint256"
        }
      ],
      "name": "claimer2ReqIds",
      "outputs": [
        {
          "internalType": "uint256",
          "name": "",
          "type": "uint256"
        }
      ],
      "stateMutability": "view",
      "type": "function"
    },
    {
      "inputs": [],
      "name": "emergencyWithdraw",
      "outputs": [],
      "stateMutability": "nonpayable",
      "type": "function"
    },
    {
      "inputs": [],
      "name": "getAPR",
      "outputs": [
        {
          "internalType": "uint256",
          "name": "",
          "type": "uint256"
        }
      ],
      "stateMutability": "view",
      "type": "function"
    },
    {
      "inputs": [],
      "name": "getAllPoolInUSD",
      "outputs": [
        {
          "internalType": "uint256",
          "name": "",
          "type": "uint256"
        }
      ],
      "stateMutability": "view",
      "type": "function"
    },
    {
      "inputs": [
        {
          "internalType": "address",
          "name": "_claimer",
          "type": "address"
        }
      ],
      "name": "getAllUnbonded",
      "outputs": [
        {
          "internalType": "uint256",
          "name": "waitingInUSD",
          "type": "uint256"
        },
        {
          "internalType": "uint256",
          "name": "unbondedInUSD",
          "type": "uint256"
        },
        {
          "internalType": "uint256",
          "name": "waitForTs",
          "type": "uint256"
        }
      ],
      "stateMutability": "view",
      "type": "function"
    },
    {
      "inputs": [],
      "name": "getCurrentTokenCompositionPerc",
      "outputs": [
        {
          "internalType": "address[]",
          "name": "",
          "type": "address[]"
        },
        {
          "internalType": "uint256[]",
          "name": "percentages",
          "type": "uint256[]"
        }
      ],
      "stateMutability": "view",
      "type": "function"
    },
    {
      "inputs": [],
      "name": "getEachPoolInUSD",
      "outputs": [
        {
          "internalType": "address[]",
          "name": "",
          "type": "address[]"
        },
        {
          "internalType": "uint256[]",
          "name": "pools",
          "type": "uint256[]"
        }
      ],
      "stateMutability": "view",
      "type": "function"
    },
    {
      "inputs": [],
      "name": "getEmergencyWithdrawalUnbonded",
      "outputs": [
        {
          "internalType": "uint256",
          "name": "waitingInUSD",
          "type": "uint256"
        },
        {
          "internalType": "uint256",
          "name": "unbondedInUSD",
          "type": "uint256"
        },
        {
          "internalType": "uint256",
          "name": "waitForTs",
          "type": "uint256"
        }
      ],
      "stateMutability": "view",
      "type": "function"
    },
    {
      "inputs": [],
      "name": "getPoolCount",
      "outputs": [
        {
          "internalType": "uint256",
          "name": "",
          "type": "uint256"
        }
      ],
      "stateMutability": "view",
      "type": "function"
    },
    {
      "inputs": [
        {
          "internalType": "address",
          "name": "_claimer",
          "type": "address"
        },
        {
          "internalType": "uint256",
          "name": "_pid",
          "type": "uint256"
        }
      ],
      "name": "getPoolUnbonded",
      "outputs": [
        {
          "internalType": "uint256",
          "name": "waiting",
          "type": "uint256"
        },
        {
          "internalType": "uint256",
          "name": "waitingInUSD",
          "type": "uint256"
        },
        {
          "internalType": "uint256",
          "name": "unbonded",
          "type": "uint256"
        },
        {
          "internalType": "uint256",
          "name": "unbondedInUSD",
          "type": "uint256"
        },
        {
          "internalType": "uint256",
          "name": "waitForTs",
          "type": "uint256"
        }
      ],
      "stateMutability": "view",
      "type": "function"
    },
    {
      "inputs": [
        {
          "internalType": "address",
          "name": "_claimer",
          "type": "address"
        }
      ],
      "name": "getPoolsUnbonded",
      "outputs": [
        {
          "internalType": "address[]",
          "name": "",
          "type": "address[]"
        },
        {
          "internalType": "uint256[]",
          "name": "waitings",
          "type": "uint256[]"
        },
        {
          "internalType": "uint256[]",
          "name": "waitingInUSDs",
          "type": "uint256[]"
        },
        {
          "internalType": "uint256[]",
          "name": "unbondeds",
          "type": "uint256[]"
        },
        {
          "internalType": "uint256[]",
          "name": "unbondedInUSDs",
          "type": "uint256[]"
        },
        {
          "internalType": "uint256[]",
          "name": "waitForTses",
          "type": "uint256[]"
        }
      ],
      "stateMutability": "view",
      "type": "function"
    },
    {
      "inputs": [],
      "name": "getTokens",
      "outputs": [
        {
          "internalType": "address[]",
          "name": "",
          "type": "address[]"
        }
      ],
      "stateMutability": "view",
      "type": "function"
    },
    {
      "inputs": [],
      "name": "getUSDTPriceInUSD",
      "outputs": [
        {
          "internalType": "uint256",
          "name": "",
          "type": "uint256"
        },
        {
          "internalType": "uint8",
          "name": "",
          "type": "uint8"
        }
      ],
      "stateMutability": "view",
      "type": "function"
    },
    {
      "inputs": [
        {
          "internalType": "address",
          "name": "_admin",
          "type": "address"
        },
        {
          "internalType": "address",
          "name": "_priceOracle",
          "type": "address"
        },
        {
          "internalType": "address",
          "name": "_router",
          "type": "address"
        },
        {
          "internalType": "address",
          "name": "_SWAP_BASE_TOKEN",
          "type": "address"
        },
        {
          "internalType": "address",
          "name": "_USDT",
          "type": "address"
        },
        {
          "internalType": "address",
          "name": "_token0",
          "type": "address"
        }
      ],
      "name": "initialize",
      "outputs": [],
      "stateMutability": "nonpayable",
      "type": "function"
    },
    {
      "inputs": [
        {
          "internalType": "address",
          "name": "_admin",
          "type": "address"
        },
        {
          "internalType": "address",
          "name": "_priceOracle",
          "type": "address"
        },
        {
          "internalType": "contract IStVault",
          "name": "_ETHVault",
          "type": "address"
        },
        {
          "internalType": "contract IStVault",
          "name": "_MATICVault",
          "type": "address"
        }
      ],
      "name": "initialize1",
      "outputs": [],
      "stateMutability": "nonpayable",
      "type": "function"
    },
    {
      "inputs": [
        {
          "internalType": "address[]",
          "name": "_tokens",
          "type": "address[]"
        },
        {
          "internalType": "uint256[]",
          "name": "_USDTAmts",
          "type": "uint256[]"
        }
      ],
      "name": "invest",
      "outputs": [],
      "stateMutability": "nonpayable",
      "type": "function"
    },
    {
      "inputs": [],
      "name": "owner",
      "outputs": [
        {
          "internalType": "address",
          "name": "",
          "type": "address"
        }
      ],
      "stateMutability": "view",
      "type": "function"
    },
    {
      "inputs": [],
      "name": "paused",
      "outputs": [
        {
          "internalType": "bool",
          "name": "",
          "type": "bool"
        }
      ],
      "stateMutability": "view",
      "type": "function"
    },
    {
      "inputs": [
        {
          "internalType": "address",
          "name": "",
          "type": "address"
        }
      ],
      "name": "pid",
      "outputs": [
        {
          "internalType": "uint256",
          "name": "",
          "type": "uint256"
        }
      ],
      "stateMutability": "view",
      "type": "function"
    },
    {
      "inputs": [],
      "name": "priceOracle",
      "outputs": [
        {
          "internalType": "contract IPriceOracle",
          "name": "",
          "type": "address"
        }
      ],
      "stateMutability": "view",
      "type": "function"
    },
    {
      "inputs": [
        {
          "internalType": "address[]",
          "name": "_tokens",
          "type": "address[]"
        },
        {
          "internalType": "uint256[]",
          "name": "_USDTAmts",
          "type": "uint256[]"
        }
      ],
      "name": "reinvest",
      "outputs": [],
      "stateMutability": "nonpayable",
      "type": "function"
    },
    {
      "inputs": [
        {
          "internalType": "uint256",
          "name": "_pid",
          "type": "uint256"
        }
      ],
      "name": "removeToken",
      "outputs": [],
      "stateMutability": "nonpayable",
      "type": "function"
    },
    {
      "inputs": [],
      "name": "renounceOwnership",
      "outputs": [],
      "stateMutability": "nonpayable",
      "type": "function"
    },
    {
      "inputs": [
        {
          "internalType": "address",
          "name": "",
          "type": "address"
        },
        {
          "internalType": "uint256",
          "name": "",
          "type": "uint256"
        }
      ],
      "name": "reqId2Index",
      "outputs": [
        {
          "internalType": "uint256",
          "name": "",
          "type": "uint256"
        }
      ],
      "stateMutability": "view",
      "type": "function"
    },
    {
      "inputs": [],
      "name": "router",
      "outputs": [
        {
          "internalType": "contract IUniRouter",
          "name": "",
          "type": "address"
        }
      ],
      "stateMutability": "view",
      "type": "function"
    },
    {
      "inputs": [
        {
          "internalType": "address",
          "name": "_admin",
          "type": "address"
        }
      ],
      "name": "setAdmin",
      "outputs": [],
      "stateMutability": "nonpayable",
      "type": "function"
    },
    {
      "inputs": [
        {
          "internalType": "contract IStVault",
          "name": "_ETHVault",
          "type": "address"
        },
        {
          "internalType": "contract IStVault",
          "name": "_MATICVault",
          "type": "address"
        }
      ],
      "name": "setStVault",
      "outputs": [],
      "stateMutability": "nonpayable",
      "type": "function"
    },
    {
      "inputs": [
        {
          "internalType": "address",
          "name": "_vault",
          "type": "address"
        }
      ],
      "name": "setVault",
      "outputs": [],
      "stateMutability": "nonpayable",
      "type": "function"
    },
    {
      "inputs": [
        {
          "internalType": "uint256",
          "name": "",
          "type": "uint256"
        }
      ],
      "name": "tokens",
      "outputs": [
        {
          "internalType": "address",
          "name": "",
          "type": "address"
        }
      ],
      "stateMutability": "view",
      "type": "function"
    },
    {
      "inputs": [
        {
          "internalType": "address",
          "name": "newOwner",
          "type": "address"
        }
      ],
      "name": "transferOwnership",
      "outputs": [],
      "stateMutability": "nonpayable",
      "type": "function"
    },
    {
      "inputs": [],
      "name": "vault",
      "outputs": [
        {
          "internalType": "address",
          "name": "",
          "type": "address"
        }
      ],
      "stateMutability": "view",
      "type": "function"
    },
    {
      "inputs": [
        {
          "internalType": "address",
          "name": "_claimer",
          "type": "address"
        },
        {
          "internalType": "uint256",
          "name": "_sharePerc",
          "type": "uint256"
        }
      ],
      "name": "withdrawPerc",
      "outputs": [
        {
          "internalType": "uint256",
          "name": "USDTAmt",
          "type": "uint256"
        }
      ],
      "stateMutability": "nonpayable",
      "type": "function"
    },
    {
      "stateMutability": "payable",
      "type": "receive"
    }
  ],
  "transactionHash": "0x96d00fa114c0d877773f12f210f7a5c7272dec4cd767454985d5f8d98f8cfeb6",
  "args": [],
  "numDeployments": 1,
  "solcInputHash": "30393b3060a535cd32ad26225a67306c",
  "bytecode": "0x608060405234801561001057600080fd5b506132eb806100206000396000f3fe60806040526004361061023f5760003560e01c8063aa6ca8081161012e578063d48bfca7116100ab578063e66fa5dc1161006f578063e66fa5dc146106e4578063f2fde38b1461072c578063f851a4401461074c578063f887ea401461076c578063fbfa77cf1461078c57600080fd5b8063d48bfca714610618578063d8274d0a14610638578063d9e0632714610665578063da454e611461069d578063db2e21bc146106cf57600080fd5b8063bd3317d6116100f2578063bd3317d614610583578063c54e44eb146105a3578063c89d5b8b146105c3578063cc2a9a5b146105d8578063d38d5fc4146105f857600080fd5b8063aa6ca808146104eb578063aae092361461050d578063b3e2f3c814610522578063b47c6a2714610542578063bd244af41461056e57600080fd5b80634f64b2be116101bc578063704b6c0211610180578063704b6c0214610463578063715018a6146104835780638da5cb5b146104985780638eec5d70146104b65780639b860882146104cb57600080fd5b80634f64b2be146103c05780634fb02c95146103e05780635c975abb14610400578063652e5105146104235780636817031b1461044357600080fd5b80632630c12f116102035780632630c12f1461030557806326b89b711461033d57806330703f321461035d57806336c5d7241461037d5780634631b2461461039d57600080fd5b806309b056f81461024b57806317e6cdba146102625780631a448d5f146102955780631e83409a146102b557806325b074f6146102d557600080fd5b3661024657005b600080fd5b34801561025757600080fd5b506102606107ac565b005b34801561026e57600080fd5b5061028261027d366004612a10565b6107e4565b6040519081526020015b60405180910390f35b3480156102a157600080fd5b506102606102b0366004612a51565b610822565b3480156102c157600080fd5b506102826102d0366004612a8a565b61087a565b3480156102e157600080fd5b506102ea6108b0565b6040805193845260208401929092529082015260600161028c565b34801561031157600080fd5b50609c54610325906001600160a01b031681565b6040516001600160a01b03909116815260200161028c565b34801561034957600080fd5b50610260610358366004612b7d565b6108c9565b34801561036957600080fd5b50609854610325906001600160a01b031681565b34801561038957600080fd5b50610260610398366004612c3f565b610901565b3480156103a957600080fd5b506103b2610af9565b60405161028c929190612ccc565b3480156103cc57600080fd5b506103256103db366004612c3f565b610c99565b3480156103ec57600080fd5b506102ea6103fb366004612a8a565b610cc3565b34801561040c57600080fd5b5060335460ff16604051901515815260200161028c565b34801561042f57600080fd5b5060c954610325906001600160a01b031681565b34801561044f57600080fd5b5061026061045e366004612a8a565b610cde565b34801561046f57600080fd5b5061026061047e366004612a8a565b610d6f565b34801561048f57600080fd5b50610260610dfb565b3480156104a457600080fd5b506065546001600160a01b0316610325565b3480156104c257600080fd5b50609d54610282565b3480156104d757600080fd5b506102606104e6366004612b7d565b610e2f565b3480156104f757600080fd5b50610500610e61565b60405161028c9190612cfa565b34801561051957600080fd5b506103b2610ec3565b34801561052e57600080fd5b5061026061053d366004612d0d565b610f30565b34801561054e57600080fd5b5061055761108d565b6040805192835260ff90911660208301520161028c565b34801561057a57600080fd5b50610282611117565b34801561058f57600080fd5b5060c854610325906001600160a01b031681565b3480156105af57600080fd5b50609954610325906001600160a01b031681565b3480156105cf57600080fd5b506102826111a9565b3480156105e457600080fd5b506102606105f3366004612d69565b6112d8565b34801561060457600080fd5b50610282610613366004612deb565b611606565b34801561062457600080fd5b50610260610633366004612a8a565b6116e5565b34801561064457600080fd5b50610282610653366004612a8a565b609e6020526000908152604090205481565b34801561067157600080fd5b50610282610680366004612deb565b60a060209081526000928352604080842090915290825290205481565b3480156106a957600080fd5b506106bd6106b8366004612a8a565b61184a565b60405161028c96959493929190612e17565b3480156106db57600080fd5b50610260611b0a565b3480156106f057600080fd5b506107046106ff366004612deb565b611bab565b604080519586526020860194909452928401919091526060830152608082015260a00161028c565b34801561073857600080fd5b50610260610747366004612a8a565b611db2565b34801561075857600080fd5b50609a54610325906001600160a01b031681565b34801561077857600080fd5b50609754610325906001600160a01b031681565b34801561079857600080fd5b50609b54610325906001600160a01b031681565b609b546001600160a01b031633146107df5760405162461bcd60e51b81526004016107d690612e99565b60405180910390fd5b565b50565b609f602052826000526040600020602052816000526040600020818154811061080c57600080fd5b9060005260206000200160009250925050505481565b6065546001600160a01b0316331461084c5760405162461bcd60e51b81526004016107d690612ebd565b60c880546001600160a01b039384166001600160a01b03199182161790915560c98054929093169116179055565b609b546000906001600160a01b031633146108a75760405162461bcd60e51b81526004016107d690612e99565b60005b92915050565b60008060006108be30611e4a565b925092509250909192565b609b546001600160a01b031633146108f35760405162461bcd60e51b81526004016107d690612e99565b6108fd8282611ec9565b5050565b6065546001600160a01b0316331461092b5760405162461bcd60e51b81526004016107d690612ebd565b609d5480821061096b5760405162461bcd60e51b815260206004820152600b60248201526a125b9d985b1a59081c1a5960aa1b60448201526064016107d6565b600061097683611ff0565b905080156109ba5760405162461bcd60e51b8152602060048201526011602482015270506f6f6c206973206e6f7420656d70747960781b60448201526064016107d6565b6000609d84815481106109cf576109cf612ef2565b6000918252602090912001546001600160a01b03169050609d6109f3600185612f1e565b81548110610a0357610a03612ef2565b600091825260209091200154609d80546001600160a01b039092169186908110610a2f57610a2f612ef2565b9060005260206000200160006101000a8154816001600160a01b0302191690836001600160a01b03160217905550609d805480610a6e57610a6e612f35565b60008281526020808220830160001990810180546001600160a01b03191690559092019092556001600160a01b0383168252609e90526040812055610ab1612086565b604080516001600160a01b0383168152602081018690527f67f5552e5abc48ba6305130450943fa23b76a0b6eb18c29d3eea39559139fc5a910160405180910390a150505050565b6060806000610b0661214f565b80519091506000805b82811015610b5057838181518110610b2957610b29612ef2565b602002602001015182610b3c9190612f4b565b915080610b4881612f63565b915050610b0f565b5060008215610b6a57610b6583612710612f7e565b610b6d565b60005b90508267ffffffffffffffff811115610b8857610b88612aa7565b604051908082528060200260200182016040528015610bb1578160200160208202803683370190505b50945060005b83811015610c2d578215610bfc5782612710868381518110610bdb57610bdb612ef2565b6020026020010151610bed9190612fa0565b610bf79190612f7e565b610bfe565b815b868281518110610c1057610c10612ef2565b602090810291909101015280610c2581612f63565b915050610bb7565b50609d8581805480602002602001604051908101604052809291908181526020018280548015610c8657602002820191906000526020600020905b81546001600160a01b03168152600190910190602001808311610c68575b5050505050915095509550505050509091565b609d8181548110610ca957600080fd5b6000918252602090912001546001600160a01b0316905081565b6000806000610cd184611e4a565b9250925092509193909250565b6065546001600160a01b03163314610d085760405162461bcd60e51b81526004016107d690612ebd565b609b546001600160a01b031615610d4d5760405162461bcd60e51b815260206004820152600960248201526815985d5b1d081cd95d60ba1b60448201526064016107d6565b609b80546001600160a01b0319166001600160a01b0392909216919091179055565b6065546001600160a01b03163314610d995760405162461bcd60e51b81526004016107d690612ebd565b609a80546001600160a01b038381166001600160a01b031983168117909355604080519190921680825260208201939093527f9f0ac88be9159761bacf6c9e7c294c397ebf594607f6b3f2f70e7e0841ea68e891015b60405180910390a15050565b6065546001600160a01b03163314610e255760405162461bcd60e51b81526004016107d690612ebd565b6107df60006121e2565b609b546001600160a01b03163314610e595760405162461bcd60e51b81526004016107d690612e99565b6108f3612234565b6060609d805480602002602001604051908101604052809291908181526020018280548015610eb957602002820191906000526020600020905b81546001600160a01b03168152600190910190602001808311610e9b575b5050505050905090565b606080609d610ed061214f565b815460408051602080840282018101909252828152918491830182828015610f2157602002820191906000526020600020905b81546001600160a01b03168152600190910190602001808311610f03575b50505050509150915091509091565b6000610f3c60016122c7565b90508015610f54576000805461ff0019166101001790555b610fb28585737a250d5630b4cf539739df2c5dacb4c659f2488d73c778417e063141139fce010982780140aa0cd5ab7321e48034753e490ff04f2f75f7caedf081b320d573eeeeeeeeeeeeeeeeeeeeeeeeeeeeeeeeeeeeeeee6112d8565b609d80546001810182556000919091527fd26e832454299e9fabb89e0e5fffdc046d4e14431bc1bf607ffb2e8a1ddecf7b0180546001600160a01b031916737d1afa7b718fb893db30a3abc0cfc608aacfebb0179055611010612086565b60c880546001600160a01b038086166001600160a01b03199283161790925560c98054928516929091169190911790558015611086576000805461ff0019169055604051600181527f7f26b83ff96e1f2b6a682f133852f6798a09c465da95921460cefb38474024989060200160405180910390a15b5050505050565b609c5460995460405163b3596f0760e01b81526001600160a01b0391821660048201526000928392169063b3596f0790602401604080518083038186803b1580156110d757600080fd5b505afa1580156110eb573d6000803e3d6000fd5b505050506040513d601f19601f8201168201806040525081019061110f9190612fd0565b915091509091565b60008061112261214f565b80519091506000805b8281101561116c5783818151811061114557611145612ef2565b6020026020010151826111589190612f4b565b91508061116481612f63565b91505061112b565b5060335460ff16156111a2576000806111836108b0565b5090925090506111938183612f4b565b61119d9084612f4b565b925050505b9392505050565b60008060006111b6610af9565b81519193509150600090815b818110156112c25760006111fc609d83815481106111e2576111e2612ef2565b6000918252602090912001546001600160a01b0316612354565b90506001600160a01b038116156112af5784828151811061121f5761121f612ef2565b6020026020010151816001600160a01b031663c89d5b8b6040518163ffffffff1660e01b815260040160206040518083038186803b15801561126057600080fd5b505afa158015611274573d6000803e3d6000fd5b505050506040513d601f19601f820116820180604052508101906112989190612ffc565b6112a29190612fa0565b6112ac9085612f4b565b93505b50806112ba81612f63565b9150506111c2565b506112cf61271083612f7e565b94505050505090565b60006112e460016122c7565b905080156112fc576000805461ff0019166101001790555b6001600160a01b0385166113435760405162461bcd60e51b815260206004820152600e60248201526d24b73b30b634b2103937baba32b960911b60448201526064016107d6565b6001600160a01b0384166113995760405162461bcd60e51b815260206004820152601760248201527f496e76616c696420535741505f424153455f544f4b454e00000000000000000060448201526064016107d6565b6001600160a01b0383166113de5760405162461bcd60e51b815260206004820152600c60248201526b125b9d985b1a59081554d11560a21b60448201526064016107d6565b6001600160a01b0382166114255760405162461bcd60e51b815260206004820152600e60248201526d0496e76616c696420746f6b656e360941b60448201526064016107d6565b61142d6123c2565b609a80546001600160a01b03808a166001600160a01b031992831617909255609c805489841690831617905560978054888416908316179055609880548784169083161790556099805492861692909116821790556040805163313ce56760e01b8152905163313ce56791600481810192602092909190829003018186803b1580156114b857600080fd5b505afa1580156114cc573d6000803e3d6000fd5b505050506040513d601f19601f820116820180604052508101906114f09190613015565b6099805460ff60a01b1916600160a01b60ff938416810291909117918290556006910490911610156115645760405162461bcd60e51b815260206004820152601760248201527f5553445420646563696d616c73206d757374203e3d203600000000000000000060448201526064016107d6565b609d80546001810182556000919091527fd26e832454299e9fabb89e0e5fffdc046d4e14431bc1bf607ffb2e8a1ddecf7b0180546001600160a01b0319166001600160a01b0384161790556115b7612086565b80156115fd576000805461ff0019169055604051600181527f7f26b83ff96e1f2b6a682f133852f6798a09c465da95921460cefb38474024989060200160405180910390a15b50505050505050565b609b546000906001600160a01b031633146116335760405162461bcd60e51b81526004016107d690612e99565b670de0b6b3a76400008211156116775760405162461bcd60e51b81526020600482015260096024820152684f766572203130302560b81b60448201526064016107d6565b61168183836123f1565b905080156116a657609b546099546116a6916001600160a01b0391821691168361248d565b60408051838152602081018390527f56ca301a9219608c91e7bcee90e083c19671d2cdcc96752c7af291cee5f9c8c8910160405180910390a192915050565b6065546001600160a01b0316331461170f5760405162461bcd60e51b81526004016107d690612ebd565b6001600160a01b0381166000908152609e6020526040902054801580156117615750609d60008154811061174557611745612ef2565b6000918252602090912001546001600160a01b03838116911614155b61179d5760405162461bcd60e51b815260206004820152600d60248201526c105b1c9958591e481859191959609a1b60448201526064016107d6565b609d80546001808201835560008390527fd26e832454299e9fabb89e0e5fffdc046d4e14431bc1bf607ffb2e8a1ddecf7b90910180546001600160a01b0319166001600160a01b03861617905590546117f69190612f1e565b6001600160a01b0383166000818152609e6020908152604091829020849055815192835282018390529192507fe1bea1af9b1d1aede8b7fa043080de8690470a8ae61449360b3d0c0bf8104b469101610def565b6060806060806060806000609d8054905090508067ffffffffffffffff81111561187657611876612aa7565b60405190808252806020026020018201604052801561189f578160200160208202803683370190505b5095508067ffffffffffffffff8111156118bb576118bb612aa7565b6040519080825280602002602001820160405280156118e4578160200160208202803683370190505b5094508067ffffffffffffffff81111561190057611900612aa7565b604051908082528060200260200182016040528015611929578160200160208202803683370190505b5093508067ffffffffffffffff81111561194557611945612aa7565b60405190808252806020026020018201604052801561196e578160200160208202803683370190505b5092508067ffffffffffffffff81111561198a5761198a612aa7565b6040519080825280602002602001820160405280156119b3578160200160208202803683370190505b50915060005b81811015611a905760008060008060006119d38e87611bab565b94509450945094509450848c87815181106119f0576119f0612ef2565b602002602001018181525050838b8781518110611a0f57611a0f612ef2565b602002602001018181525050828a8781518110611a2e57611a2e612ef2565b60200260200101818152505081898781518110611a4d57611a4d612ef2565b60200260200101818152505080888781518110611a6c57611a6c612ef2565b60200260200101818152505050505050508080611a8890612f63565b9150506119b9565b50609d868686868685805480602002602001604051908101604052809291908181526020018280548015611aed57602002820191906000526020600020905b81546001600160a01b03168152600190910190602001808311611acf575b505050505095509650965096509650965096505091939550919395565b609b546001600160a01b03163314611b345760405162461bcd60e51b81526004016107d690612e99565b611b3c6124f0565b6000611b5030670de0b6b3a76400006123f1565b90508015611b7557609b54609954611b75916001600160a01b0391821691168361248d565b6040518181527f99d7f8b71cfb9126984f7a5eed3a40e64a8959e9b0e442221546fb04ec6a489c9060200160405180910390a150565b6000806000806000609d80549050861015611da8576000609d8781548110611bd557611bd5612ef2565b60009182526020822001546001600160a01b03169150611bf482612354565b90506001600160a01b03811615611da5576001600160a01b038083166000908152609f60209081526040808320938d16835292815282822080548451818402810184019095528085529293929091830182828015611c7157602002820191906000526020600020905b815481526020019060010190808311611c5d575b5050505050905060005b8151811015611d7c576000828281518110611c9857611c98612ef2565b602002602001015190506000806000866001600160a01b031663cc0fe4a4856040518263ffffffff1660e01b8152600401611cd591815260200190565b60a06040518083038186803b158015611ced57600080fd5b505afa158015611d01573d6000803e3d6000fd5b505050506040513d601f19601f82011682018060405250810190611d259190613040565b94505050925092508215611d4457611d3d828c612f4b565b9a50611d65565b611d4e828e612f4b565b9c50881580611d5c57508089115b15611d65578098505b505050508080611d7490612f63565b915050611c7b565b508715611d9057611d8d838961256b565b96505b8515611da357611da0838761256b565b94505b505b50505b9295509295909350565b6065546001600160a01b03163314611ddc5760405162461bcd60e51b81526004016107d690612ebd565b6001600160a01b038116611e415760405162461bcd60e51b815260206004820152602660248201527f4f776e61626c653a206e6577206f776e657220697320746865207a65726f206160448201526564647265737360d01b60648201526084016107d6565b6107e1816121e2565b609d5460009081908190815b81811015611ec0576000806000611e6d8985611bab565b94509450509350508288611e819190612f4b565b9750611e8d8288612f4b565b96508715611eaa57851580611ea157508086115b15611eaa578095505b5050508080611eb890612f63565b915050611e56565b50509193909250565b8151609d54600090819067ffffffffffffffff811115611eeb57611eeb612aa7565b604051908082528060200260200182016040528015611f14578160200160208202803683370190505b50905060005b83811015611fd1576000858281518110611f3657611f36612ef2565b602002602001015190508084611f4c9190612f4b565b93506000609e6000898581518110611f6657611f66612ef2565b60200260200101516001600160a01b03166001600160a01b0316815260200190815260200160002054905081848281518110611fa457611fa4612ef2565b60200260200101818151611fb89190612f4b565b905250829150611fc9905081612f63565b915050611f1a565b50609b54609954611086916001600160a01b0391821691163085612638565b609954609d546040516370a0823160e01b81523060048201526000926108aa926001600160a01b039091169182906370a082319060240160206040518083038186803b15801561203f57600080fd5b505afa158015612053573d6000803e3d6000fd5b505050506040513d601f19601f820116820180604052508101906120779190612ffc565b6120819190612f7e565b61256b565b6000609d8054806020026020016040519081016040528092919081815260200182805480156120de57602002820191906000526020600020905b81546001600160a01b031681526001909101906020018083116120c0575b505083519394506000925050505b8181101561214a5780609e600085848151811061210b5761210b612ef2565b60200260200101516001600160a01b03166001600160a01b0316815260200190815260200160002081905550808061214290612f63565b9150506120ec565b505050565b609d546060908067ffffffffffffffff81111561216e5761216e612aa7565b604051908082528060200260200182016040528015612197578160200160208202803683370190505b50915060005b818110156121dd576121ae81611ff0565b8382815181106121c0576121c0612ef2565b6020908102919091010152806121d581612f63565b91505061219d565b505090565b606580546001600160a01b038381166001600160a01b0319831681179093556040519116919082907f8be0079c531659141344cd1fd0a4f28419497f9722a3daafe3b4186f6b6457e090600090a35050565b60335460ff1661227d5760405162461bcd60e51b815260206004820152601460248201527314185d5cd8589b194e881b9bdd081c185d5cd95960621b60448201526064016107d6565b6033805460ff191690557f5db9ee0a495bf2e6ff9c91a7834c1ba4fdd244a5e8aa4e537bd38aeae4b073aa335b6040516001600160a01b03909116815260200160405180910390a1565b60008054610100900460ff161561230e578160ff1660011480156122ea5750303b155b6123065760405162461bcd60e51b81526004016107d690613087565b506000919050565b60005460ff8084169116106123355760405162461bcd60e51b81526004016107d690613087565b506000805460ff191660ff92909216919091179055600190565b919050565b60006001600160a01b03821673eeeeeeeeeeeeeeeeeeeeeeeeeeeeeeeeeeeeeeee141561238c57505060c8546001600160a01b031690565b6001600160a01b038216737d1afa7b718fb893db30a3abc0cfc608aacfebb0141561234f57505060c9546001600160a01b031690565b600054610100900460ff166123e95760405162461bcd60e51b81526004016107d6906130d5565b6107df612676565b6099546040516370a0823160e01b8152306004820152600091670de0b6b3a76400009184916001600160a01b0316906370a082319060240160206040518083038186803b15801561244157600080fd5b505afa158015612455573d6000803e3d6000fd5b505050506040513d601f19601f820116820180604052508101906124799190612ffc565b6124839190612fa0565b6111a29190612f7e565b6040516001600160a01b03831660248201526044810182905261214a90849063a9059cbb60e01b906064015b60408051601f198184030181529190526020810180516001600160e01b03166001600160e01b0319909316929092179091526126a6565b60335460ff16156125365760405162461bcd60e51b815260206004820152601060248201526f14185d5cd8589b194e881c185d5cd95960821b60448201526064016107d6565b6033805460ff191660011790557f62e78cea01bee320cd4e420270b5ea74000d11b0c9f74754ebdbfc544b05a2586122aa3390565b609c5460405163b3596f0760e01b81526001600160a01b038481166004830152600092839283929091169063b3596f0790602401604080518083038186803b1580156125b657600080fd5b505afa1580156125ca573d6000803e3d6000fd5b505050506040513d601f19601f820116820180604052508101906125ee9190612fd0565b9150915060006125fd86612778565b905061260a82600a613204565b8361261a878460ff16601261281c565b6126249190612fa0565b61262e9190612f7e565b9695505050505050565b6040516001600160a01b03808516602483015283166044820152606481018290526126709085906323b872dd60e01b906084016124b9565b50505050565b600054610100900460ff1661269d5760405162461bcd60e51b81526004016107d6906130d5565b6107df336121e2565b60006126fb826040518060400160405280602081526020017f5361666545524332303a206c6f772d6c6576656c2063616c6c206661696c6564815250856001600160a01b031661287a9092919063ffffffff16565b80519091501561214a57808060200190518101906127199190613213565b61214a5760405162461bcd60e51b815260206004820152602a60248201527f5361666545524332303a204552433230206f7065726174696f6e20646964206e6044820152691bdd081cdd58d8d9595960b21b60648201526084016107d6565b60006001600160a01b03821673eeeeeeeeeeeeeeeeeeeeeeeeeeeeeeeeeeeeeeee1461281457816001600160a01b031663313ce5676040518163ffffffff1660e01b815260040160206040518083038186803b1580156127d757600080fd5b505afa1580156127eb573d6000803e3d6000fd5b505050506040513d601f19601f8201168201806040525081019061280f9190613015565b6108aa565b601292915050565b60008183141561282d5750826111a2565b8183101561285b5761283f8383612f1e565b61284a90600a61322e565b6128549085612fa0565b90506111a2565b6128658284612f1e565b61287090600a61322e565b6128549085612f7e565b60606128898484600085612891565b949350505050565b6060824710156128f25760405162461bcd60e51b815260206004820152602660248201527f416464726573733a20696e73756666696369656e742062616c616e636520666f6044820152651c8818d85b1b60d21b60648201526084016107d6565b6001600160a01b0385163b6129495760405162461bcd60e51b815260206004820152601d60248201527f416464726573733a2063616c6c20746f206e6f6e2d636f6e747261637400000060448201526064016107d6565b600080866001600160a01b031685876040516129659190613266565b60006040518083038185875af1925050503d80600081146129a2576040519150601f19603f3d011682016040523d82523d6000602084013e6129a7565b606091505b50915091506129b78282866129c2565b979650505050505050565b606083156129d15750816111a2565b8251156129e15782518084602001fd5b8160405162461bcd60e51b81526004016107d69190613282565b6001600160a01b03811681146107e157600080fd5b600080600060608486031215612a2557600080fd5b8335612a30816129fb565b92506020840135612a40816129fb565b929592945050506040919091013590565b60008060408385031215612a6457600080fd5b8235612a6f816129fb565b91506020830135612a7f816129fb565b809150509250929050565b600060208284031215612a9c57600080fd5b81356111a2816129fb565b634e487b7160e01b600052604160045260246000fd5b604051601f8201601f1916810167ffffffffffffffff81118282101715612ae657612ae6612aa7565b604052919050565b600067ffffffffffffffff821115612b0857612b08612aa7565b5060051b60200190565b600082601f830112612b2357600080fd5b81356020612b38612b3383612aee565b612abd565b82815260059290921b84018101918181019086841115612b5757600080fd5b8286015b84811015612b725780358352918301918301612b5b565b509695505050505050565b60008060408385031215612b9057600080fd5b823567ffffffffffffffff80821115612ba857600080fd5b818501915085601f830112612bbc57600080fd5b81356020612bcc612b3383612aee565b82815260059290921b84018101918181019089841115612beb57600080fd5b948201945b83861015612c12578535612c03816129fb565b82529482019490820190612bf0565b96505086013592505080821115612c2857600080fd5b50612c3585828601612b12565b9150509250929050565b600060208284031215612c5157600080fd5b5035919050565b600081518084526020808501945080840160005b83811015612c915781516001600160a01b031687529582019590820190600101612c6c565b509495945050505050565b600081518084526020808501945080840160005b83811015612c9157815187529582019590820190600101612cb0565b604081526000612cdf6040830185612c58565b8281036020840152612cf18185612c9c565b95945050505050565b6020815260006111a26020830184612c58565b60008060008060808587031215612d2357600080fd5b8435612d2e816129fb565b93506020850135612d3e816129fb565b92506040850135612d4e816129fb565b91506060850135612d5e816129fb565b939692955090935050565b60008060008060008060c08789031215612d8257600080fd5b8635612d8d816129fb565b95506020870135612d9d816129fb565b94506040870135612dad816129fb565b93506060870135612dbd816129fb565b92506080870135612dcd816129fb565b915060a0870135612ddd816129fb565b809150509295509295509295565b60008060408385031215612dfe57600080fd5b8235612e09816129fb565b946020939093013593505050565b60c081526000612e2a60c0830189612c58565b8281036020840152612e3c8189612c9c565b90508281036040840152612e508188612c9c565b90508281036060840152612e648187612c9c565b90508281036080840152612e788186612c9c565b905082810360a0840152612e8c8185612c9c565b9998505050505050505050565b6020808252600a908201526913db9b1e481d985d5b1d60b21b604082015260600190565b6020808252818101527f4f776e61626c653a2063616c6c6572206973206e6f7420746865206f776e6572604082015260600190565b634e487b7160e01b600052603260045260246000fd5b634e487b7160e01b600052601160045260246000fd5b600082821015612f3057612f30612f08565b500390565b634e487b7160e01b600052603160045260246000fd5b60008219821115612f5e57612f5e612f08565b500190565b6000600019821415612f7757612f77612f08565b5060010190565b600082612f9b57634e487b7160e01b600052601260045260246000fd5b500490565b6000816000190483118215151615612fba57612fba612f08565b500290565b805160ff8116811461234f57600080fd5b60008060408385031215612fe357600080fd5b82519150612ff360208401612fbf565b90509250929050565b60006020828403121561300e57600080fd5b5051919050565b60006020828403121561302757600080fd5b6111a282612fbf565b8051801515811461234f57600080fd5b600080600080600060a0868803121561305857600080fd5b61306186613030565b602087015160408801516060890151608090990151929a91995097965090945092505050565b6020808252602e908201527f496e697469616c697a61626c653a20636f6e747261637420697320616c72656160408201526d191e481a5b9a5d1a585b1a5e995960921b606082015260800190565b6020808252602b908201527f496e697469616c697a61626c653a20636f6e7472616374206973206e6f74206960408201526a6e697469616c697a696e6760a81b606082015260800190565b600181815b8085111561315b57816000190482111561314157613141612f08565b8085161561314e57918102915b93841c9390800290613125565b509250929050565b600082613172575060016108aa565b8161317f575060006108aa565b8160018114613195576002811461319f576131bb565b60019150506108aa565b60ff8411156131b0576131b0612f08565b50506001821b6108aa565b5060208310610133831016604e8410600b84101617156131de575081810a6108aa565b6131e88383613120565b80600019048211156131fc576131fc612f08565b029392505050565b60006111a260ff841683613163565b60006020828403121561322557600080fd5b6111a282613030565b60006111a28383613163565b60005b8381101561325557818101518382015260200161323d565b838111156126705750506000910152565b6000825161327881846020870161323a565b9190910192915050565b60208152600082518060208401526132a181604085016020870161323a565b601f01601f1916919091016040019291505056fea2646970667358221220ea3b2c2926ea3c5c7d1738bf0748a5a8b5840590d46a1b7744258fed7739f81464736f6c63430008090033",
  "devdoc": {
    "kind": "dev",
    "methods": {
      "getPoolUnbonded(address,uint256)": {
        "returns": {
          "unbonded": "is token amount that is unbonded.",
          "unbondedInUSD": "is USD value of token amount that is unbonded.",
          "waitForTs": "is timestamp to wait to the next claim.",
          "waiting": "is token amount that is not unbonded.",
          "waitingInUSD": "is USD value of token amount that is not unbonded."
        }
      },
      "getUSDTPriceInUSD()": {
        "returns": {
          "_0": "the price of USDT in USD."
        }
      },
      "invest(address[],uint256[])": {
        "params": {
          "_USDTAmts": "amounts of USDT should be deposited to each pools. They have been denominated in USDT decimals"
        }
      },
      "owner()": {
        "details": "Returns the address of the current owner."
      },
      "paused()": {
        "details": "Returns true if the contract is paused, and false otherwise."
      },
      "reinvest(address[],uint256[])": {
        "params": {
          "_USDTAmts": "amounts of USDT should be deposited to each pools. They have been denominated in USDT decimals"
        }
      },
      "renounceOwnership()": {
        "details": "Leaves the contract without owner. It will not be possible to call `onlyOwner` functions anymore. Can only be called by the current owner. NOTE: Renouncing ownership will leave the contract without an owner, thereby removing any functionality that is only available to the owner."
      },
      "transferOwnership(address)": {
        "details": "Transfers ownership of the contract to a new account (`newOwner`). Can only be called by the current owner."
      }
    },
    "version": 1
  },
  "userdoc": {
    "kind": "user",
    "methods": {},
    "version": 1
  },
  "storageLayout": {
    "storage": [
      {
        "astId": 130,
        "contract": "contracts/sti/strategy/EthSTIStrategyTest.sol:EthSTIStrategyTest",
        "label": "_initialized",
        "offset": 0,
        "slot": "0",
        "type": "t_uint8"
      },
      {
        "astId": 133,
        "contract": "contracts/sti/strategy/EthSTIStrategyTest.sol:EthSTIStrategyTest",
        "label": "_initializing",
        "offset": 1,
        "slot": "0",
        "type": "t_bool"
      },
      {
        "astId": 2709,
        "contract": "contracts/sti/strategy/EthSTIStrategyTest.sol:EthSTIStrategyTest",
        "label": "__gap",
        "offset": 0,
        "slot": "1",
        "type": "t_array(t_uint256)50_storage"
      },
      {
        "astId": 286,
        "contract": "contracts/sti/strategy/EthSTIStrategyTest.sol:EthSTIStrategyTest",
        "label": "_paused",
        "offset": 0,
        "slot": "51",
        "type": "t_bool"
      },
      {
        "astId": 375,
        "contract": "contracts/sti/strategy/EthSTIStrategyTest.sol:EthSTIStrategyTest",
        "label": "__gap",
        "offset": 0,
        "slot": "52",
        "type": "t_array(t_uint256)49_storage"
      },
      {
        "astId": 10,
        "contract": "contracts/sti/strategy/EthSTIStrategyTest.sol:EthSTIStrategyTest",
        "label": "_owner",
        "offset": 0,
        "slot": "101",
        "type": "t_address"
      },
      {
        "astId": 122,
        "contract": "contracts/sti/strategy/EthSTIStrategyTest.sol:EthSTIStrategyTest",
        "label": "__gap",
        "offset": 0,
        "slot": "102",
        "type": "t_array(t_uint256)49_storage"
      },
      {
        "astId": 49405,
        "contract": "contracts/sti/strategy/EthSTIStrategyTest.sol:EthSTIStrategyTest",
        "label": "router",
        "offset": 0,
        "slot": "151",
        "type": "t_contract(IUniRouter)53115"
      },
      {
        "astId": 49408,
        "contract": "contracts/sti/strategy/EthSTIStrategyTest.sol:EthSTIStrategyTest",
        "label": "SWAP_BASE_TOKEN",
        "offset": 0,
        "slot": "152",
        "type": "t_contract(IERC20UpgradeableExt)52619"
      },
      {
        "astId": 49411,
        "contract": "contracts/sti/strategy/EthSTIStrategyTest.sol:EthSTIStrategyTest",
        "label": "USDT",
        "offset": 0,
        "slot": "153",
        "type": "t_contract(IERC20UpgradeableExt)52619"
      },
      {
        "astId": 49413,
        "contract": "contracts/sti/strategy/EthSTIStrategyTest.sol:EthSTIStrategyTest",
        "label": "usdtDecimals",
        "offset": 20,
        "slot": "153",
        "type": "t_uint8"
      },
      {
        "astId": 49415,
        "contract": "contracts/sti/strategy/EthSTIStrategyTest.sol:EthSTIStrategyTest",
        "label": "admin",
        "offset": 0,
        "slot": "154",
        "type": "t_address"
      },
      {
        "astId": 49417,
        "contract": "contracts/sti/strategy/EthSTIStrategyTest.sol:EthSTIStrategyTest",
        "label": "vault",
        "offset": 0,
        "slot": "155",
        "type": "t_address"
      },
      {
        "astId": 49420,
        "contract": "contracts/sti/strategy/EthSTIStrategyTest.sol:EthSTIStrategyTest",
        "label": "priceOracle",
        "offset": 0,
        "slot": "156",
        "type": "t_contract(IPriceOracle)11071"
      },
      {
        "astId": 49423,
        "contract": "contracts/sti/strategy/EthSTIStrategyTest.sol:EthSTIStrategyTest",
        "label": "tokens",
        "offset": 0,
        "slot": "157",
        "type": "t_array(t_address)dyn_storage"
      },
      {
        "astId": 49427,
        "contract": "contracts/sti/strategy/EthSTIStrategyTest.sol:EthSTIStrategyTest",
        "label": "pid",
        "offset": 0,
        "slot": "158",
        "type": "t_mapping(t_address,t_uint256)"
      },
      {
        "astId": 49434,
        "contract": "contracts/sti/strategy/EthSTIStrategyTest.sol:EthSTIStrategyTest",
        "label": "claimer2ReqIds",
        "offset": 0,
        "slot": "159",
        "type": "t_mapping(t_address,t_mapping(t_address,t_array(t_uint256)dyn_storage))"
      },
      {
        "astId": 49440,
        "contract": "contracts/sti/strategy/EthSTIStrategyTest.sol:EthSTIStrategyTest",
        "label": "reqId2Index",
        "offset": 0,
        "slot": "160",
        "type": "t_mapping(t_address,t_mapping(t_uint256,t_uint256))"
      },
      {
        "astId": 51984,
        "contract": "contracts/sti/strategy/EthSTIStrategyTest.sol:EthSTIStrategyTest",
        "label": "__gap",
        "offset": 0,
        "slot": "161",
        "type": "t_array(t_uint256)39_storage"
      },
      {
        "astId": 52316,
        "contract": "contracts/sti/strategy/EthSTIStrategyTest.sol:EthSTIStrategyTest",
        "label": "ETHVault",
        "offset": 0,
        "slot": "200",
        "type": "t_contract(IStVault)52939"
      },
      {
        "astId": 52319,
        "contract": "contracts/sti/strategy/EthSTIStrategyTest.sol:EthSTIStrategyTest",
        "label": "MATICVault",
        "offset": 0,
        "slot": "201",
        "type": "t_contract(IStVault)52939"
      }
    ],
    "types": {
      "t_address": {
        "encoding": "inplace",
        "label": "address",
        "numberOfBytes": "20"
      },
      "t_array(t_address)dyn_storage": {
        "base": "t_address",
        "encoding": "dynamic_array",
        "label": "address[]",
        "numberOfBytes": "32"
      },
      "t_array(t_uint256)39_storage": {
        "base": "t_uint256",
        "encoding": "inplace",
        "label": "uint256[39]",
        "numberOfBytes": "1248"
      },
      "t_array(t_uint256)49_storage": {
        "base": "t_uint256",
        "encoding": "inplace",
        "label": "uint256[49]",
        "numberOfBytes": "1568"
      },
      "t_array(t_uint256)50_storage": {
        "base": "t_uint256",
        "encoding": "inplace",
        "label": "uint256[50]",
        "numberOfBytes": "1600"
      },
      "t_array(t_uint256)dyn_storage": {
        "base": "t_uint256",
        "encoding": "dynamic_array",
        "label": "uint256[]",
        "numberOfBytes": "32"
      },
      "t_bool": {
        "encoding": "inplace",
        "label": "bool",
        "numberOfBytes": "1"
      },
      "t_contract(IERC20UpgradeableExt)52619": {
        "encoding": "inplace",
        "label": "contract IERC20UpgradeableExt",
        "numberOfBytes": "20"
      },
      "t_contract(IPriceOracle)11071": {
        "encoding": "inplace",
        "label": "contract IPriceOracle",
        "numberOfBytes": "20"
      },
      "t_contract(IStVault)52939": {
        "encoding": "inplace",
        "label": "contract IStVault",
        "numberOfBytes": "20"
      },
      "t_contract(IUniRouter)53115": {
        "encoding": "inplace",
        "label": "contract IUniRouter",
        "numberOfBytes": "20"
      },
      "t_mapping(t_address,t_array(t_uint256)dyn_storage)": {
        "encoding": "mapping",
        "key": "t_address",
        "label": "mapping(address => uint256[])",
        "numberOfBytes": "32",
        "value": "t_array(t_uint256)dyn_storage"
      },
      "t_mapping(t_address,t_mapping(t_address,t_array(t_uint256)dyn_storage))": {
        "encoding": "mapping",
        "key": "t_address",
        "label": "mapping(address => mapping(address => uint256[]))",
        "numberOfBytes": "32",
        "value": "t_mapping(t_address,t_array(t_uint256)dyn_storage)"
      },
      "t_mapping(t_address,t_mapping(t_uint256,t_uint256))": {
        "encoding": "mapping",
        "key": "t_address",
        "label": "mapping(address => mapping(uint256 => uint256))",
        "numberOfBytes": "32",
        "value": "t_mapping(t_uint256,t_uint256)"
      },
      "t_mapping(t_address,t_uint256)": {
        "encoding": "mapping",
        "key": "t_address",
        "label": "mapping(address => uint256)",
        "numberOfBytes": "32",
        "value": "t_uint256"
      },
      "t_mapping(t_uint256,t_uint256)": {
        "encoding": "mapping",
        "key": "t_uint256",
        "label": "mapping(uint256 => uint256)",
        "numberOfBytes": "32",
        "value": "t_uint256"
      },
      "t_uint256": {
        "encoding": "inplace",
        "label": "uint256",
        "numberOfBytes": "32"
      },
      "t_uint8": {
        "encoding": "inplace",
        "label": "uint8",
        "numberOfBytes": "1"
      }
    }
  }
}