{
  "address": "0xD3883afC0f374A8ED4578309c4f50c384000Fd57",
  "abi": [
    {
      "anonymous": false,
      "inputs": [
        {
          "indexed": false,
          "internalType": "uint8",
          "name": "version",
          "type": "uint8"
        }
      ],
      "name": "Initialized",
      "type": "event"
    },
    {
      "anonymous": false,
      "inputs": [
        {
          "indexed": true,
          "internalType": "address",
          "name": "previousOwner",
          "type": "address"
        },
        {
          "indexed": true,
          "internalType": "address",
          "name": "newOwner",
          "type": "address"
        }
      ],
      "name": "OwnershipTransferred",
      "type": "event"
    },
    {
      "anonymous": false,
      "inputs": [
        {
          "indexed": true,
          "internalType": "bytes32",
          "name": "role",
          "type": "bytes32"
        },
        {
          "indexed": true,
          "internalType": "bytes32",
          "name": "previousAdminRole",
          "type": "bytes32"
        },
        {
          "indexed": true,
          "internalType": "bytes32",
          "name": "newAdminRole",
          "type": "bytes32"
        }
      ],
      "name": "RoleAdminChanged",
      "type": "event"
    },
    {
      "anonymous": false,
      "inputs": [
        {
          "indexed": true,
          "internalType": "bytes32",
          "name": "role",
          "type": "bytes32"
        },
        {
          "indexed": true,
          "internalType": "address",
          "name": "account",
          "type": "address"
        },
        {
          "indexed": true,
          "internalType": "address",
          "name": "sender",
          "type": "address"
        }
      ],
      "name": "RoleGranted",
      "type": "event"
    },
    {
      "anonymous": false,
      "inputs": [
        {
          "indexed": true,
          "internalType": "bytes32",
          "name": "role",
          "type": "bytes32"
        },
        {
          "indexed": true,
          "internalType": "address",
          "name": "account",
          "type": "address"
        },
        {
          "indexed": true,
          "internalType": "address",
          "name": "sender",
          "type": "address"
        }
      ],
      "name": "RoleRevoked",
      "type": "event"
    },
    {
      "anonymous": false,
      "inputs": [
        {
          "indexed": false,
          "internalType": "address",
          "name": "from",
          "type": "address"
        },
        {
          "indexed": true,
          "internalType": "address",
          "name": "token",
          "type": "address"
        },
        {
          "indexed": true,
          "internalType": "uint256",
          "name": "amount",
          "type": "uint256"
        },
        {
          "indexed": true,
          "internalType": "uint256",
          "name": "toChainId",
          "type": "uint256"
        },
        {
          "indexed": false,
          "internalType": "address",
          "name": "to",
          "type": "address"
        }
      ],
      "name": "Transfer",
      "type": "event"
    },
    {
      "inputs": [],
      "name": "CLIENT_ROLE",
      "outputs": [
        {
          "internalType": "bytes32",
          "name": "",
          "type": "bytes32"
        }
      ],
      "stateMutability": "view",
      "type": "function"
    },
    {
      "inputs": [],
      "name": "DEFAULT_ADMIN_ROLE",
      "outputs": [
        {
          "internalType": "bytes32",
          "name": "",
          "type": "bytes32"
        }
      ],
      "stateMutability": "view",
      "type": "function"
    },
    {
      "inputs": [
        {
          "internalType": "bytes",
          "name": "data",
          "type": "bytes"
        }
      ],
      "name": "anyExecute",
      "outputs": [
        {
          "internalType": "bool",
          "name": "success",
          "type": "bool"
        },
        {
          "internalType": "bytes",
          "name": "result",
          "type": "bytes"
        }
      ],
      "stateMutability": "nonpayable",
      "type": "function"
    },
    {
      "inputs": [],
      "name": "anycallExecutor",
      "outputs": [
        {
          "internalType": "contract IAnycallExecutor",
          "name": "",
          "type": "address"
        }
      ],
      "stateMutability": "view",
      "type": "function"
    },
    {
      "inputs": [
        {
          "internalType": "enum Const.TokenID",
          "name": "",
          "type": "uint8"
        },
        {
          "internalType": "uint256",
          "name": "",
          "type": "uint256"
        }
      ],
      "name": "anyswapMap",
      "outputs": [
        {
          "internalType": "address",
          "name": "router",
          "type": "address"
        },
        {
          "internalType": "address",
          "name": "underlying",
          "type": "address"
        },
        {
          "internalType": "address",
          "name": "anyToken",
          "type": "address"
        },
        {
          "internalType": "uint8",
          "name": "underlyingDecimals",
          "type": "uint8"
        },
        {
          "internalType": "uint8",
          "name": "anyTokenDecimals",
          "type": "uint8"
        },
        {
          "internalType": "uint256",
          "name": "minimumSwap",
          "type": "uint256"
        }
      ],
      "stateMutability": "view",
      "type": "function"
    },
    {
      "inputs": [
        {
          "internalType": "uint256",
          "name": "",
          "type": "uint256"
        },
        {
          "internalType": "address",
          "name": "",
          "type": "address"
        },
        {
          "internalType": "uint256",
          "name": "",
          "type": "uint256"
        },
        {
          "internalType": "bytes",
          "name": "",
          "type": "bytes"
        }
      ],
      "name": "calcCallFee",
      "outputs": [
        {
          "internalType": "uint256",
          "name": "",
          "type": "uint256"
        }
      ],
      "stateMutability": "view",
      "type": "function"
    },
    {
      "inputs": [],
      "name": "calcTransferFee",
      "outputs": [
        {
          "internalType": "uint256",
          "name": "",
          "type": "uint256"
        }
      ],
      "stateMutability": "view",
      "type": "function"
    },
    {
      "inputs": [
        {
          "internalType": "uint256",
          "name": "",
          "type": "uint256"
        },
        {
          "internalType": "address",
          "name": "",
          "type": "address"
        },
        {
          "internalType": "uint256",
          "name": "",
          "type": "uint256"
        },
        {
          "internalType": "bytes",
          "name": "",
          "type": "bytes"
        }
      ],
      "name": "call",
      "outputs": [],
      "stateMutability": "payable",
      "type": "function"
    },
    {
      "inputs": [
        {
          "internalType": "bytes32",
          "name": "role",
          "type": "bytes32"
        }
      ],
      "name": "getRoleAdmin",
      "outputs": [
        {
          "internalType": "bytes32",
          "name": "",
          "type": "bytes32"
        }
      ],
      "stateMutability": "view",
      "type": "function"
    },
    {
      "inputs": [
        {
          "internalType": "bytes32",
          "name": "role",
          "type": "bytes32"
        },
        {
          "internalType": "uint256",
          "name": "index",
          "type": "uint256"
        }
      ],
      "name": "getRoleMember",
      "outputs": [
        {
          "internalType": "address",
          "name": "",
          "type": "address"
        }
      ],
      "stateMutability": "view",
      "type": "function"
    },
    {
      "inputs": [
        {
          "internalType": "bytes32",
          "name": "role",
          "type": "bytes32"
        }
      ],
      "name": "getRoleMemberCount",
      "outputs": [
        {
          "internalType": "uint256",
          "name": "",
          "type": "uint256"
        }
      ],
      "stateMutability": "view",
      "type": "function"
    },
    {
      "inputs": [
        {
          "internalType": "bytes32",
          "name": "role",
          "type": "bytes32"
        },
        {
          "internalType": "address",
          "name": "account",
          "type": "address"
        }
      ],
      "name": "grantRole",
      "outputs": [],
      "stateMutability": "nonpayable",
      "type": "function"
    },
    {
      "inputs": [
        {
          "internalType": "bytes32",
          "name": "role",
          "type": "bytes32"
        },
        {
          "internalType": "address",
          "name": "account",
          "type": "address"
        }
      ],
      "name": "hasRole",
      "outputs": [
        {
          "internalType": "bool",
          "name": "",
          "type": "bool"
        }
      ],
      "stateMutability": "view",
      "type": "function"
    },
    {
      "inputs": [],
      "name": "initialize",
      "outputs": [],
      "stateMutability": "nonpayable",
      "type": "function"
    },
    {
      "inputs": [],
      "name": "owner",
      "outputs": [
        {
          "internalType": "address",
          "name": "",
          "type": "address"
        }
      ],
      "stateMutability": "view",
      "type": "function"
    },
    {
      "inputs": [
        {
          "internalType": "uint256",
          "name": "",
          "type": "uint256"
        }
      ],
      "name": "peers",
      "outputs": [
        {
          "internalType": "address",
          "name": "",
          "type": "address"
        }
      ],
      "stateMutability": "view",
      "type": "function"
    },
    {
      "inputs": [],
      "name": "renounceOwnership",
      "outputs": [],
      "stateMutability": "nonpayable",
      "type": "function"
    },
    {
      "inputs": [
        {
          "internalType": "bytes32",
          "name": "role",
          "type": "bytes32"
        },
        {
          "internalType": "address",
          "name": "account",
          "type": "address"
        }
      ],
      "name": "renounceRole",
      "outputs": [],
      "stateMutability": "nonpayable",
      "type": "function"
    },
    {
      "inputs": [
        {
          "internalType": "bytes32",
          "name": "role",
          "type": "bytes32"
        },
        {
          "internalType": "address",
          "name": "account",
          "type": "address"
        }
      ],
      "name": "revokeRole",
      "outputs": [],
      "stateMutability": "nonpayable",
      "type": "function"
    },
    {
      "inputs": [
        {
          "internalType": "enum Const.TokenID",
          "name": "_tokenId",
          "type": "uint8"
        },
        {
          "internalType": "uint256",
          "name": "_chainId",
          "type": "uint256"
        },
        {
          "internalType": "address",
          "name": "_router",
          "type": "address"
        },
        {
          "internalType": "address",
          "name": "_unterlying",
          "type": "address"
        },
        {
          "internalType": "address",
          "name": "_anyToken",
          "type": "address"
        },
        {
          "internalType": "uint8",
          "name": "_underlyingDecimals",
          "type": "uint8"
        },
        {
          "internalType": "uint8",
          "name": "_anyTokenDecimals",
          "type": "uint8"
        },
        {
          "internalType": "uint256",
          "name": "_minimumSwap",
          "type": "uint256"
        }
      ],
      "name": "setAnyswapEntry",
      "outputs": [],
      "stateMutability": "nonpayable",
      "type": "function"
    },
    {
      "inputs": [
        {
          "internalType": "uint256[]",
          "name": "_chainIds",
          "type": "uint256[]"
        },
        {
          "internalType": "address[]",
          "name": "_peers",
          "type": "address[]"
        }
      ],
      "name": "setPeers",
      "outputs": [],
      "stateMutability": "nonpayable",
      "type": "function"
    },
    {
      "inputs": [
        {
          "internalType": "bytes4",
          "name": "interfaceId",
          "type": "bytes4"
        }
      ],
      "name": "supportsInterface",
      "outputs": [
        {
          "internalType": "bool",
          "name": "",
          "type": "bool"
        }
      ],
      "stateMutability": "view",
      "type": "function"
    },
    {
      "inputs": [
        {
          "internalType": "enum Const.TokenID",
          "name": "_tokenId",
          "type": "uint8"
        },
        {
          "internalType": "uint256[]",
          "name": "_amounts",
          "type": "uint256[]"
        },
        {
          "internalType": "uint256[]",
          "name": "_toChainIds",
          "type": "uint256[]"
        },
        {
          "internalType": "address[]",
          "name": "_toAddresses",
          "type": "address[]"
        }
      ],
      "name": "transfer",
      "outputs": [],
      "stateMutability": "payable",
      "type": "function"
    },
    {
      "inputs": [
        {
          "internalType": "address",
          "name": "newOwner",
          "type": "address"
        }
      ],
      "name": "transferOwnership",
      "outputs": [],
      "stateMutability": "nonpayable",
      "type": "function"
    },
    {
      "stateMutability": "payable",
      "type": "receive"
    }
  ],
  "transactionHash": "0x027c6b354ee4c29b64ce3334a716cf235c569bbb12709a4c1189f89c33b64ac2",
  "args": [],
  "numDeployments": 1,
  "solcInputHash": "aa8af62c39c4987602902032509083cd",
  "bytecode": "0x608060405234801561001057600080fd5b50612480806100206000396000f3fe60806040526004361061014f5760003560e01c806391d14854116100b6578063ca15c8731161006f578063ca15c873146103c4578063ce973d8d146103e4578063d2c7dfcc1461049b578063d547741f146104bc578063eae6f652146104dc578063f2fde38b1461051057600080fd5b806391d14854146102e65780639abaf47914610306578063a217fddf14610334578063ac3bcb4314610349578063be4f3e8f14610369578063bebc4f711461039f57600080fd5b806365a130b41161010857806365a130b414610244578063715018a61461025757806377cae7581461026c5780638129fc1c1461027f5780638da5cb5b146102945780639010d07c146102c657600080fd5b806301ffc9a71461015b578063248a9ca3146101905780632de2c8ad146101ce5780632f2ff15d146101f057806336568abe146102105780633b11ca511461023057600080fd5b3661015657005b600080fd5b34801561016757600080fd5b5061017b610176366004611b0a565b610530565b60405190151581526020015b60405180910390f35b34801561019c57600080fd5b506101c06101ab366004611b34565b60009081526065602052604090206001015490565b604051908152602001610187565b3480156101da57600080fd5b506101ee6101e9366004611c9c565b61055b565b005b3480156101fc57600080fd5b506101ee61020b366004611d00565b61065e565b34801561021c57600080fd5b506101ee61022b366004611d00565b610688565b34801561023c57600080fd5b5060006101c0565b6101ee610252366004611d3f565b610706565b34801561026357600080fd5b506101ee610899565b6101ee61027a366004611e48565b6108cf565b34801561028b57600080fd5b506101ee610900565b3480156102a057600080fd5b5060c9546001600160a01b03165b6040516001600160a01b039091168152602001610187565b3480156102d257600080fd5b506102ae6102e1366004611e9f565b610975565b3480156102f257600080fd5b5061017b610301366004611d00565b610994565b34801561031257600080fd5b50610326610321366004611ec1565b6109bf565b604051610187929190611f8b565b34801561034057600080fd5b506101c0600081565b34801561035557600080fd5b506101ee610364366004611fb7565b610b30565b34801561037557600080fd5b506102ae610384366004611b34565b60fb602052600090815260409020546001600160a01b031681565b3480156103ab57600080fd5b506101c06103ba366004611e48565b6000949350505050565b3480156103d057600080fd5b506101c06103df366004611b34565b610d13565b3480156103f057600080fd5b506104576103ff366004612046565b61012d60209081526000928352604080842090915290825290208054600182015460028301546003909301546001600160a01b03928316939183169282169160ff600160a01b8204811692600160a81b909204169086565b604080516001600160a01b0397881681529587166020870152939095169284019290925260ff908116606084015216608082015260a081019190915260c001610187565b3480156104a757600080fd5b5061012e546102ae906001600160a01b031681565b3480156104c857600080fd5b506101ee6104d7366004611d00565b610d2a565b3480156104e857600080fd5b506101c07fa5ff3ec7a96cdbba4d2d5172d66bbc73c6db3885f29b21be5da9fa7a7c02523281565b34801561051c57600080fd5b506101ee61052b366004612070565b610d4f565b60006001600160e01b03198216635a05180f60e01b1480610555575061055582610da9565b92915050565b60c9546001600160a01b0316331461058e5760405162461bcd60e51b81526004016105859061208d565b60405180910390fd5b815160005b818110156106585760008482815181106105af576105af6120c2565b6020026020010151905080600014156105fc5760405162461bcd60e51b815260206004820152600f60248201526e125b9d985b1a590818da185a5b9251608a1b6044820152606401610585565b83828151811061060e5761060e6120c2565b602090810291909101810151600092835260fb909152604090912080546001600160a01b0319166001600160a01b0390921691909117905580610650816120ee565b915050610593565b50505050565b60008281526065602052604090206001015461067981610dde565b6106838383610de8565b505050565b6001600160a01b03811633146106f85760405162461bcd60e51b815260206004820152602f60248201527f416363657373436f6e74726f6c3a2063616e206f6e6c792072656e6f756e636560448201526e103937b632b9903337b91039b2b63360891b6064820152608401610585565b6107028282610e0a565b5050565b7fa5ff3ec7a96cdbba4d2d5172d66bbc73c6db3885f29b21be5da9fa7a7c02523261073081610dde565b341561076e5760405162461bcd60e51b815260206004820152600d60248201526c139bc8199959481b9959591959609a1b6044820152606401610585565b835146336000805b848110156107b757888181518110610790576107906120c2565b6020026020010151826107a39190612109565b9150806107af816120ee565b915050610776565b5061081882308361012d60008e60018111156107d5576107d5612121565b60018111156107e6576107e6612121565b8152602080820192909252604090810160009081208a82529092529020600101546001600160a01b0316929190610e2c565b60005b8481101561088d5761087b8a8a8381518110610839576108396120c2565b6020026020010151868b8581518110610854576108546120c2565b60200260200101518b868151811061086e5761086e6120c2565b6020026020010151610e97565b80610885816120ee565b91505061081b565b50505050505050505050565b60c9546001600160a01b031633146108c35760405162461bcd60e51b81526004016105859061208d565b6108cd60006110bd565b565b7fa5ff3ec7a96cdbba4d2d5172d66bbc73c6db3885f29b21be5da9fa7a7c0252326108f981610dde565b5050505050565b600061090c600161110f565b90508015610924576000805461ff0019166101001790555b61092c61119c565b8015610972576000805461ff0019169055604051600181527f7f26b83ff96e1f2b6a682f133852f6798a09c465da95921460cefb38474024989060200160405180910390a15b50565b600082815260976020526040812061098d90836111e4565b9392505050565b60009182526065602090815260408084206001600160a01b0393909316845291905290205460ff1690565b6000606060008061012e60009054906101000a90046001600160a01b03166001600160a01b031663d0496d6a6040518163ffffffff1660e01b8152600401606060405180830381600087803b158015610a1757600080fd5b505af1158015610a2b573d6000803e3d6000fd5b505050506040513d601f19601f82011682018060405250810190610a4f9190612137565b50600081815260fb602052604090205491935091506001600160a01b03808416911614610aae5760405162461bcd60e51b815260206004820152600d60248201526c15dc9bdb99c818dbdb9d195e1d609a1b6044820152606401610585565b60008080610abe888a018a61216e565b925092509250826001600160a01b03168282604051610add91906121c7565b60006040518083038185875af1925050503d8060008114610b1a576040519150601f19603f3d011682016040523d82523d6000602084013e610b1f565b606091505b50909a909950975050505050505050565b60c9546001600160a01b03163314610b5a5760405162461bcd60e51b81526004016105859061208d565b6040518060c00160405280876001600160a01b03168152602001866001600160a01b03168152602001856001600160a01b031681526020018460ff1681526020018360ff1681526020018281525061012d60008a6001811115610bbf57610bbf612121565b6001811115610bd057610bd0612121565b8152602080820192909252604090810160009081208b82528352819020835181546001600160a01b03199081166001600160a01b03928316178355938501516001830180549095169082161790935583820151600282018054606087015160808801519387166001600160a81b031990921691909117600160a01b60ff928316021760ff60a81b1916600160a81b919093160291909117905560a0909301516003909301929092559051636eb1769f60e11b815230600482015287821660248201529086169063dd62ed3e9060440160206040518083038186803b158015610cb757600080fd5b505afa158015610ccb573d6000803e3d6000fd5b505050506040513d601f19601f82011682018060405250810190610cef91906121e3565b610d0957610d096001600160a01b038616876000196111f0565b5050505050505050565b600081815260976020526040812061055590611314565b600082815260656020526040902060010154610d4581610dde565b6106838383610e0a565b60c9546001600160a01b03163314610d795760405162461bcd60e51b81526004016105859061208d565b610d956000610d9060c9546001600160a01b031690565b610e0a565b610d9e8161131e565b6109726000826113b6565b60006001600160e01b03198216637965db0b60e01b148061055557506301ffc9a760e01b6001600160e01b0319831614610555565b61097281336113c0565b610df28282611424565b600082815260976020526040902061068390826114aa565b610e1482826114bf565b60008281526097602052604090206106839082611526565b6040516001600160a01b03808516602483015283166044820152606481018290526106589085906323b872dd60e01b906084015b60408051601f198184030181529190526020810180516001600160e01b03166001600160e01b03199093169290921790915261153b565b600061012d6000876001811115610eb057610eb0612121565b6001811115610ec157610ec1612121565b8152602080820192909252604090810160009081208782528352819020815160c08101835281546001600160a01b039081168252600183015481169482019490945260028201549384169281019290925260ff600160a01b8404811660608401819052600160a81b9094041660808301526003015460a08201529150610f4890600a6122e0565b61012d6000886001811115610f5f57610f5f612121565b6001811115610f7057610f70612121565b8152602001908152602001600020600085815260200190815260200160002060030154610f9d91906122ef565b851015610fdf5760405162461bcd60e51b815260206004820152601060248201526f151bdbc81cdb585b1b08185b5bdd5b9d60821b6044820152606401610585565b805160408083015190516376defaf160e11b81526001600160a01b0391821660048201528482166024820152604481018890526064810186905291169063edbdf5e290608401600060405180830381600087803b15801561103f57600080fd5b505af1158015611053573d6000803e3d6000fd5b50505050828582602001516001600160a01b03167f3a92e15f876cc81488721650bc1ba6d625ea349cff7bff2502b86ac0d24e88b833866040516110ad9291906001600160a01b0392831681529116602082015260400190565b60405180910390a4505050505050565b60c980546001600160a01b038381166001600160a01b0319831681179093556040519116919082907f8be0079c531659141344cd1fd0a4f28419497f9722a3daafe3b4186f6b6457e090600090a35050565b60008054610100900460ff1615611156578160ff1660011480156111325750303b155b61114e5760405162461bcd60e51b81526004016105859061230e565b506000919050565b60005460ff80841691161061117d5760405162461bcd60e51b81526004016105859061230e565b506000805460ff191660ff92909216919091179055600190565b919050565b60006111a8600161110f565b905080156111c0576000805461ff0019166101001790555b6111c861160d565b61092c60006111df60c9546001600160a01b031690565b6113b6565b600061098d8383611681565b8015806112795750604051636eb1769f60e11b81523060048201526001600160a01b03838116602483015284169063dd62ed3e9060440160206040518083038186803b15801561123f57600080fd5b505afa158015611253573d6000803e3d6000fd5b505050506040513d601f19601f8201168201806040525081019061127791906121e3565b155b6112e45760405162461bcd60e51b815260206004820152603660248201527f5361666545524332303a20617070726f76652066726f6d206e6f6e2d7a65726f60448201527520746f206e6f6e2d7a65726f20616c6c6f77616e636560501b6064820152608401610585565b6040516001600160a01b03831660248201526044810182905261068390849063095ea7b360e01b90606401610e60565b6000610555825490565b60c9546001600160a01b031633146113485760405162461bcd60e51b81526004016105859061208d565b6001600160a01b0381166113ad5760405162461bcd60e51b815260206004820152602660248201527f4f776e61626c653a206e6577206f776e657220697320746865207a65726f206160448201526564647265737360d01b6064820152608401610585565b610972816110bd565b6107028282610de8565b6113ca8282610994565b610702576113e2816001600160a01b031660146116ab565b6113ed8360206116ab565b6040516020016113fe92919061235c565b60408051601f198184030181529082905262461bcd60e51b8252610585916004016123d1565b61142e8282610994565b6107025760008281526065602090815260408083206001600160a01b03851684529091529020805460ff191660011790556114663390565b6001600160a01b0316816001600160a01b0316837f2f8788117e7eff1d82e926ec794901d17c78024a50270940304540a733656f0d60405160405180910390a45050565b600061098d836001600160a01b038416611847565b6114c98282610994565b156107025760008281526065602090815260408083206001600160a01b0385168085529252808320805460ff1916905551339285917ff6391f5c32d9c69d2a47ea670b442974b53935d1edc7fd64eb21e047a839171b9190a45050565b600061098d836001600160a01b038416611896565b6000611590826040518060400160405280602081526020017f5361666545524332303a206c6f772d6c6576656c2063616c6c206661696c6564815250856001600160a01b03166119899092919063ffffffff16565b80519091501561068357808060200190518101906115ae91906123e4565b6106835760405162461bcd60e51b815260206004820152602a60248201527f5361666545524332303a204552433230206f7065726174696f6e20646964206e6044820152691bdd081cdd58d8d9595960b21b6064820152608401610585565b600054610100900460ff166116785760405162461bcd60e51b815260206004820152602b60248201527f496e697469616c697a61626c653a20636f6e7472616374206973206e6f74206960448201526a6e697469616c697a696e6760a81b6064820152608401610585565b6108cd336110bd565b6000826000018281548110611698576116986120c2565b9060005260206000200154905092915050565b606060006116ba8360026122ef565b6116c5906002612109565b67ffffffffffffffff8111156116dd576116dd611b4d565b6040519080825280601f01601f191660200182016040528015611707576020820181803683370190505b509050600360fc1b81600081518110611722576117226120c2565b60200101906001600160f81b031916908160001a905350600f60fb1b81600181518110611751576117516120c2565b60200101906001600160f81b031916908160001a90535060006117758460026122ef565b611780906001612109565b90505b60018111156117f8576f181899199a1a9b1b9c1cb0b131b232b360811b85600f16601081106117b4576117b46120c2565b1a60f81b8282815181106117ca576117ca6120c2565b60200101906001600160f81b031916908160001a90535060049490941c936117f181612406565b9050611783565b50831561098d5760405162461bcd60e51b815260206004820181905260248201527f537472696e67733a20686578206c656e67746820696e73756666696369656e746044820152606401610585565b600081815260018301602052604081205461188e57508154600181810184556000848152602080822090930184905584548482528286019093526040902091909155610555565b506000610555565b6000818152600183016020526040812054801561197f5760006118ba60018361241d565b85549091506000906118ce9060019061241d565b90508181146119335760008660000182815481106118ee576118ee6120c2565b9060005260206000200154905080876000018481548110611911576119116120c2565b6000918252602080832090910192909255918252600188019052604090208390555b855486908061194457611944612434565b600190038181906000526020600020016000905590558560010160008681526020019081526020016000206000905560019350505050610555565b6000915050610555565b606061199884846000856119a0565b949350505050565b606082471015611a015760405162461bcd60e51b815260206004820152602660248201527f416464726573733a20696e73756666696369656e742062616c616e636520666f6044820152651c8818d85b1b60d21b6064820152608401610585565b6001600160a01b0385163b611a585760405162461bcd60e51b815260206004820152601d60248201527f416464726573733a2063616c6c20746f206e6f6e2d636f6e74726163740000006044820152606401610585565b600080866001600160a01b03168587604051611a7491906121c7565b60006040518083038185875af1925050503d8060008114611ab1576040519150601f19603f3d011682016040523d82523d6000602084013e611ab6565b606091505b5091509150611ac6828286611ad1565b979650505050505050565b60608315611ae057508161098d565b825115611af05782518084602001fd5b8160405162461bcd60e51b815260040161058591906123d1565b600060208284031215611b1c57600080fd5b81356001600160e01b03198116811461098d57600080fd5b600060208284031215611b4657600080fd5b5035919050565b634e487b7160e01b600052604160045260246000fd5b604051601f8201601f1916810167ffffffffffffffff81118282101715611b8c57611b8c611b4d565b604052919050565b600067ffffffffffffffff821115611bae57611bae611b4d565b5060051b60200190565b600082601f830112611bc957600080fd5b81356020611bde611bd983611b94565b611b63565b82815260059290921b84018101918181019086841115611bfd57600080fd5b8286015b84811015611c185780358352918301918301611c01565b509695505050505050565b6001600160a01b038116811461097257600080fd5b600082601f830112611c4957600080fd5b81356020611c59611bd983611b94565b82815260059290921b84018101918181019086841115611c7857600080fd5b8286015b84811015611c18578035611c8f81611c23565b8352918301918301611c7c565b60008060408385031215611caf57600080fd5b823567ffffffffffffffff80821115611cc757600080fd5b611cd386838701611bb8565b93506020850135915080821115611ce957600080fd5b50611cf685828601611c38565b9150509250929050565b60008060408385031215611d1357600080fd5b823591506020830135611d2581611c23565b809150509250929050565b80356002811061119757600080fd5b60008060008060808587031215611d5557600080fd5b611d5e85611d30565b9350602085013567ffffffffffffffff80821115611d7b57600080fd5b611d8788838901611bb8565b94506040870135915080821115611d9d57600080fd5b611da988838901611bb8565b93506060870135915080821115611dbf57600080fd5b50611dcc87828801611c38565b91505092959194509250565b600082601f830112611de957600080fd5b813567ffffffffffffffff811115611e0357611e03611b4d565b611e16601f8201601f1916602001611b63565b818152846020838601011115611e2b57600080fd5b816020850160208301376000918101602001919091529392505050565b60008060008060808587031215611e5e57600080fd5b843593506020850135611e7081611c23565b925060408501359150606085013567ffffffffffffffff811115611e9357600080fd5b611dcc87828801611dd8565b60008060408385031215611eb257600080fd5b50508035926020909101359150565b60008060208385031215611ed457600080fd5b823567ffffffffffffffff80821115611eec57600080fd5b818501915085601f830112611f0057600080fd5b813581811115611f0f57600080fd5b866020828501011115611f2157600080fd5b60209290920196919550909350505050565b60005b83811015611f4e578181015183820152602001611f36565b838111156106585750506000910152565b60008151808452611f77816020860160208601611f33565b601f01601f19169290920160200192915050565b82151581526040602082015260006119986040830184611f5f565b803560ff8116811461119757600080fd5b600080600080600080600080610100898b031215611fd457600080fd5b611fdd89611d30565b9750602089013596506040890135611ff481611c23565b9550606089013561200481611c23565b9450608089013561201481611c23565b935061202260a08a01611fa6565b925061203060c08a01611fa6565b915060e089013590509295985092959890939650565b6000806040838503121561205957600080fd5b61206283611d30565b946020939093013593505050565b60006020828403121561208257600080fd5b813561098d81611c23565b6020808252818101527f4f776e61626c653a2063616c6c6572206973206e6f7420746865206f776e6572604082015260600190565b634e487b7160e01b600052603260045260246000fd5b634e487b7160e01b600052601160045260246000fd5b6000600019821415612102576121026120d8565b5060010190565b6000821982111561211c5761211c6120d8565b500190565b634e487b7160e01b600052602160045260246000fd5b60008060006060848603121561214c57600080fd5b835161215781611c23565b602085015160409095015190969495509392505050565b60008060006060848603121561218357600080fd5b833561218e81611c23565b925060208401359150604084013567ffffffffffffffff8111156121b157600080fd5b6121bd86828701611dd8565b9150509250925092565b600082516121d9818460208701611f33565b9190910192915050565b6000602082840312156121f557600080fd5b5051919050565b600181815b8085111561223757816000190482111561221d5761221d6120d8565b8085161561222a57918102915b93841c9390800290612201565b509250929050565b60008261224e57506001610555565b8161225b57506000610555565b8160018114612271576002811461227b57612297565b6001915050610555565b60ff84111561228c5761228c6120d8565b50506001821b610555565b5060208310610133831016604e8410600b84101617156122ba575081810a610555565b6122c483836121fc565b80600019048211156122d8576122d86120d8565b029392505050565b600061098d60ff84168361223f565b6000816000190483118215151615612309576123096120d8565b500290565b6020808252602e908201527f496e697469616c697a61626c653a20636f6e747261637420697320616c72656160408201526d191e481a5b9a5d1a585b1a5e995960921b606082015260800190565b7f416363657373436f6e74726f6c3a206163636f756e7420000000000000000000815260008351612394816017850160208801611f33565b7001034b99036b4b9b9b4b733903937b6329607d1b60179184019182015283516123c5816028840160208801611f33565b01602801949350505050565b60208152600061098d6020830184611f5f565b6000602082840312156123f657600080fd5b8151801515811461098d57600080fd5b600081612415576124156120d8565b506000190190565b60008282101561242f5761242f6120d8565b500390565b634e487b7160e01b600052603160045260246000fdfea26469706673582212205160557a95462f5aa9df77028ea9be676eb43b30866308a3c3514090c7d0309c64736f6c63430008090033",
  "devdoc": {
    "kind": "dev",
    "methods": {
      "anyExecute(bytes)": {
        "details": "The function to receive message from anycall router. The syntax must not be changed."
      },
      "getRoleAdmin(bytes32)": {
        "details": "Returns the admin role that controls `role`. See {grantRole} and {revokeRole}. To change a role's admin, use {_setRoleAdmin}."
      },
      "getRoleMember(bytes32,uint256)": {
        "details": "Returns one of the accounts that have `role`. `index` must be a value between 0 and {getRoleMemberCount}, non-inclusive. Role bearers are not sorted in any particular way, and their ordering may change at any point. WARNING: When using {getRoleMember} and {getRoleMemberCount}, make sure you perform all queries on the same block. See the following https://forum.openzeppelin.com/t/iterating-over-elements-on-enumerableset-in-openzeppelin-contracts/2296[forum post] for more information."
      },
      "getRoleMemberCount(bytes32)": {
        "details": "Returns the number of accounts that have `role`. Can be used together with {getRoleMember} to enumerate all bearers of a role."
      },
      "grantRole(bytes32,address)": {
        "details": "Grants `role` to `account`. If `account` had not been already granted `role`, emits a {RoleGranted} event. Requirements: - the caller must have ``role``'s admin role."
      },
      "hasRole(bytes32,address)": {
        "details": "Returns `true` if `account` has been granted `role`."
      },
      "owner()": {
        "details": "Returns the address of the current owner."
      },
      "renounceOwnership()": {
        "details": "Leaves the contract without owner. It will not be possible to call `onlyOwner` functions anymore. Can only be called by the current owner. NOTE: Renouncing ownership will leave the contract without an owner, thereby removing any functionality that is only available to the owner."
      },
      "renounceRole(bytes32,address)": {
        "details": "Revokes `role` from the calling account. Roles are often managed via {grantRole} and {revokeRole}: this function's purpose is to provide a mechanism for accounts to lose their privileges if they are compromised (such as when a trusted device is misplaced). If the calling account had been revoked `role`, emits a {RoleRevoked} event. Requirements: - the caller must be `account`."
      },
      "revokeRole(bytes32,address)": {
        "details": "Revokes `role` from `account`. If `account` had been granted `role`, emits a {RoleRevoked} event. Requirements: - the caller must have ``role``'s admin role."
      },
      "supportsInterface(bytes4)": {
        "details": "See {IERC165-supportsInterface}."
      },
      "transferOwnership(address)": {
        "details": "Transfers ownership of the contract to a new account (`newOwner`). Can only be called by the current owner."
      }
    },
    "version": 1
  },
  "userdoc": {
    "kind": "user",
    "methods": {},
    "version": 1
  },
  "storageLayout": {
    "storage": [
      {
        "astId": 713,
        "contract": "contracts/xchain/multichain/MultichainXChainAdapterTest.sol:MultichainXChainAdapterTest",
        "label": "_initialized",
        "offset": 0,
        "slot": "0",
        "type": "t_uint8"
      },
      {
        "astId": 716,
        "contract": "contracts/xchain/multichain/MultichainXChainAdapterTest.sol:MultichainXChainAdapterTest",
        "label": "_initializing",
        "offset": 1,
        "slot": "0",
        "type": "t_bool"
      },
      {
        "astId": 3292,
        "contract": "contracts/xchain/multichain/MultichainXChainAdapterTest.sol:MultichainXChainAdapterTest",
        "label": "__gap",
        "offset": 0,
        "slot": "1",
        "type": "t_array(t_uint256)50_storage"
      },
      {
        "astId": 3946,
        "contract": "contracts/xchain/multichain/MultichainXChainAdapterTest.sol:MultichainXChainAdapterTest",
        "label": "__gap",
        "offset": 0,
        "slot": "51",
        "type": "t_array(t_uint256)50_storage"
      },
      {
        "astId": 184,
        "contract": "contracts/xchain/multichain/MultichainXChainAdapterTest.sol:MultichainXChainAdapterTest",
        "label": "_roles",
        "offset": 0,
        "slot": "101",
        "type": "t_mapping(t_bytes32,t_struct(RoleData)179_storage)"
      },
      {
        "astId": 483,
        "contract": "contracts/xchain/multichain/MultichainXChainAdapterTest.sol:MultichainXChainAdapterTest",
        "label": "__gap",
        "offset": 0,
        "slot": "102",
        "type": "t_array(t_uint256)49_storage"
      },
      {
        "astId": 33,
        "contract": "contracts/xchain/multichain/MultichainXChainAdapterTest.sol:MultichainXChainAdapterTest",
        "label": "_roleMembers",
        "offset": 0,
        "slot": "151",
        "type": "t_mapping(t_bytes32,t_struct(AddressSet)4359_storage)"
      },
      {
        "astId": 143,
        "contract": "contracts/xchain/multichain/MultichainXChainAdapterTest.sol:MultichainXChainAdapterTest",
        "label": "__gap",
        "offset": 0,
        "slot": "152",
        "type": "t_array(t_uint256)49_storage"
      },
      {
        "astId": 593,
        "contract": "contracts/xchain/multichain/MultichainXChainAdapterTest.sol:MultichainXChainAdapterTest",
        "label": "_owner",
        "offset": 0,
        "slot": "201",
        "type": "t_address"
      },
      {
        "astId": 705,
        "contract": "contracts/xchain/multichain/MultichainXChainAdapterTest.sol:MultichainXChainAdapterTest",
        "label": "__gap",
        "offset": 0,
        "slot": "202",
        "type": "t_array(t_uint256)49_storage"
      },
      {
        "astId": 55998,
        "contract": "contracts/xchain/multichain/MultichainXChainAdapterTest.sol:MultichainXChainAdapterTest",
        "label": "peers",
        "offset": 0,
        "slot": "251",
        "type": "t_mapping(t_uint256,t_address)"
      },
      {
        "astId": 56156,
        "contract": "contracts/xchain/multichain/MultichainXChainAdapterTest.sol:MultichainXChainAdapterTest",
        "label": "__gap",
        "offset": 0,
        "slot": "252",
        "type": "t_array(t_uint256)49_storage"
      },
      {
        "astId": 65256,
        "contract": "contracts/xchain/multichain/MultichainXChainAdapterTest.sol:MultichainXChainAdapterTest",
        "label": "anyswapMap",
        "offset": 0,
        "slot": "301",
        "type": "t_mapping(t_enum(TokenID)66524,t_mapping(t_uint256,t_struct(Entry)64840_storage))"
      },
      {
        "astId": 65259,
        "contract": "contracts/xchain/multichain/MultichainXChainAdapterTest.sol:MultichainXChainAdapterTest",
        "label": "anycallExecutor",
        "offset": 0,
        "slot": "302",
        "type": "t_contract(IAnycallExecutor)65036"
      }
    ],
    "types": {
      "t_address": {
        "encoding": "inplace",
        "label": "address",
        "numberOfBytes": "20"
      },
      "t_array(t_bytes32)dyn_storage": {
        "base": "t_bytes32",
        "encoding": "dynamic_array",
        "label": "bytes32[]",
        "numberOfBytes": "32"
      },
      "t_array(t_uint256)49_storage": {
        "base": "t_uint256",
        "encoding": "inplace",
        "label": "uint256[49]",
        "numberOfBytes": "1568"
      },
      "t_array(t_uint256)50_storage": {
        "base": "t_uint256",
        "encoding": "inplace",
        "label": "uint256[50]",
        "numberOfBytes": "1600"
      },
      "t_bool": {
        "encoding": "inplace",
        "label": "bool",
        "numberOfBytes": "1"
      },
      "t_bytes32": {
        "encoding": "inplace",
        "label": "bytes32",
        "numberOfBytes": "32"
      },
      "t_contract(IAnycallExecutor)65036": {
        "encoding": "inplace",
        "label": "contract IAnycallExecutor",
        "numberOfBytes": "20"
      },
      "t_enum(TokenID)66524": {
        "encoding": "inplace",
        "label": "enum Const.TokenID",
        "numberOfBytes": "1"
      },
      "t_mapping(t_address,t_bool)": {
        "encoding": "mapping",
        "key": "t_address",
        "label": "mapping(address => bool)",
        "numberOfBytes": "32",
        "value": "t_bool"
      },
      "t_mapping(t_bytes32,t_struct(AddressSet)4359_storage)": {
        "encoding": "mapping",
        "key": "t_bytes32",
        "label": "mapping(bytes32 => struct EnumerableSetUpgradeable.AddressSet)",
        "numberOfBytes": "32",
        "value": "t_struct(AddressSet)4359_storage"
      },
      "t_mapping(t_bytes32,t_struct(RoleData)179_storage)": {
        "encoding": "mapping",
        "key": "t_bytes32",
        "label": "mapping(bytes32 => struct AccessControlUpgradeable.RoleData)",
        "numberOfBytes": "32",
        "value": "t_struct(RoleData)179_storage"
      },
      "t_mapping(t_bytes32,t_uint256)": {
        "encoding": "mapping",
        "key": "t_bytes32",
        "label": "mapping(bytes32 => uint256)",
        "numberOfBytes": "32",
        "value": "t_uint256"
      },
      "t_mapping(t_enum(TokenID)66524,t_mapping(t_uint256,t_struct(Entry)64840_storage))": {
        "encoding": "mapping",
        "key": "t_enum(TokenID)66524",
        "label": "mapping(enum Const.TokenID => mapping(uint256 => struct AnyswapMap.Entry))",
        "numberOfBytes": "32",
        "value": "t_mapping(t_uint256,t_struct(Entry)64840_storage)"
      },
      "t_mapping(t_uint256,t_address)": {
        "encoding": "mapping",
        "key": "t_uint256",
        "label": "mapping(uint256 => address)",
        "numberOfBytes": "32",
        "value": "t_address"
      },
      "t_mapping(t_uint256,t_struct(Entry)64840_storage)": {
        "encoding": "mapping",
        "key": "t_uint256",
        "label": "mapping(uint256 => struct AnyswapMap.Entry)",
        "numberOfBytes": "32",
        "value": "t_struct(Entry)64840_storage"
      },
      "t_struct(AddressSet)4359_storage": {
        "encoding": "inplace",
        "label": "struct EnumerableSetUpgradeable.AddressSet",
        "members": [
          {
            "astId": 4358,
            "contract": "contracts/xchain/multichain/MultichainXChainAdapterTest.sol:MultichainXChainAdapterTest",
            "label": "_inner",
            "offset": 0,
            "slot": "0",
            "type": "t_struct(Set)4058_storage"
          }
        ],
        "numberOfBytes": "64"
      },
      "t_struct(Entry)64840_storage": {
        "encoding": "inplace",
        "label": "struct AnyswapMap.Entry",
        "members": [
          {
            "astId": 64829,
            "contract": "contracts/xchain/multichain/MultichainXChainAdapterTest.sol:MultichainXChainAdapterTest",
            "label": "router",
            "offset": 0,
            "slot": "0",
            "type": "t_address"
          },
          {
            "astId": 64831,
            "contract": "contracts/xchain/multichain/MultichainXChainAdapterTest.sol:MultichainXChainAdapterTest",
            "label": "underlying",
            "offset": 0,
            "slot": "1",
            "type": "t_address"
          },
          {
            "astId": 64833,
            "contract": "contracts/xchain/multichain/MultichainXChainAdapterTest.sol:MultichainXChainAdapterTest",
            "label": "anyToken",
            "offset": 0,
            "slot": "2",
            "type": "t_address"
          },
          {
            "astId": 64835,
            "contract": "contracts/xchain/multichain/MultichainXChainAdapterTest.sol:MultichainXChainAdapterTest",
            "label": "underlyingDecimals",
            "offset": 20,
            "slot": "2",
            "type": "t_uint8"
          },
          {
            "astId": 64837,
            "contract": "contracts/xchain/multichain/MultichainXChainAdapterTest.sol:MultichainXChainAdapterTest",
            "label": "anyTokenDecimals",
            "offset": 21,
            "slot": "2",
            "type": "t_uint8"
          },
          {
            "astId": 64839,
            "contract": "contracts/xchain/multichain/MultichainXChainAdapterTest.sol:MultichainXChainAdapterTest",
            "label": "minimumSwap",
            "offset": 0,
            "slot": "3",
            "type": "t_uint256"
          }
        ],
        "numberOfBytes": "128"
      },
      "t_struct(RoleData)179_storage": {
        "encoding": "inplace",
        "label": "struct AccessControlUpgradeable.RoleData",
        "members": [
          {
            "astId": 176,
            "contract": "contracts/xchain/multichain/MultichainXChainAdapterTest.sol:MultichainXChainAdapterTest",
            "label": "members",
            "offset": 0,
            "slot": "0",
            "type": "t_mapping(t_address,t_bool)"
          },
          {
            "astId": 178,
            "contract": "contracts/xchain/multichain/MultichainXChainAdapterTest.sol:MultichainXChainAdapterTest",
            "label": "adminRole",
            "offset": 0,
            "slot": "1",
            "type": "t_bytes32"
          }
        ],
        "numberOfBytes": "64"
      },
      "t_struct(Set)4058_storage": {
        "encoding": "inplace",
        "label": "struct EnumerableSetUpgradeable.Set",
        "members": [
          {
            "astId": 4053,
            "contract": "contracts/xchain/multichain/MultichainXChainAdapterTest.sol:MultichainXChainAdapterTest",
            "label": "_values",
            "offset": 0,
            "slot": "0",
            "type": "t_array(t_bytes32)dyn_storage"
          },
          {
            "astId": 4057,
            "contract": "contracts/xchain/multichain/MultichainXChainAdapterTest.sol:MultichainXChainAdapterTest",
            "label": "_indexes",
            "offset": 0,
            "slot": "1",
            "type": "t_mapping(t_bytes32,t_uint256)"
          }
        ],
        "numberOfBytes": "64"
      },
      "t_uint256": {
        "encoding": "inplace",
        "label": "uint256",
        "numberOfBytes": "32"
      },
      "t_uint8": {
        "encoding": "inplace",
        "label": "uint8",
        "numberOfBytes": "1"
      }
    }
  }
}