{
  "address": "0x4cba1Cc93b150AddcC1F9b22D5A5f32aA9a0b58E",
  "abi": [
    {
      "inputs": [
        {
          "internalType": "address",
          "name": "sender",
          "type": "address"
        },
        {
          "internalType": "string[]",
          "name": "urls",
          "type": "string[]"
        },
        {
          "internalType": "bytes",
          "name": "callData",
          "type": "bytes"
        },
        {
          "internalType": "bytes4",
          "name": "callbackFunction",
          "type": "bytes4"
        },
        {
          "internalType": "bytes",
          "name": "extraData",
          "type": "bytes"
        }
      ],
      "name": "OffchainLookup",
      "type": "error"
    },
    {
      "anonymous": false,
      "inputs": [
        {
          "indexed": false,
          "internalType": "uint256",
          "name": "chainID",
          "type": "uint256"
        },
        {
          "indexed": false,
          "internalType": "address",
          "name": "token",
          "type": "address"
        },
        {
          "indexed": false,
          "internalType": "uint256",
          "name": "tid",
          "type": "uint256"
        }
      ],
      "name": "AddToken",
      "type": "event"
    },
    {
      "anonymous": false,
      "inputs": [
        {
          "indexed": false,
          "internalType": "address",
          "name": "caller",
          "type": "address"
        },
        {
          "indexed": false,
          "internalType": "uint256",
          "name": "shareBurned",
          "type": "uint256"
        }
      ],
      "name": "Burn",
      "type": "event"
    },
    {
      "anonymous": false,
      "inputs": [
        {
          "indexed": false,
          "internalType": "uint8",
          "name": "version",
          "type": "uint8"
        }
      ],
      "name": "Initialized",
      "type": "event"
    },
    {
      "anonymous": false,
      "inputs": [
        {
          "indexed": false,
          "internalType": "address",
          "name": "caller",
          "type": "address"
        },
        {
          "indexed": false,
          "internalType": "uint256",
          "name": "amtDeposit",
          "type": "uint256"
        },
        {
          "indexed": false,
          "internalType": "uint256",
          "name": "shareMinted",
          "type": "uint256"
        }
      ],
      "name": "Mint",
      "type": "event"
    },
    {
      "anonymous": false,
      "inputs": [
        {
          "indexed": true,
          "internalType": "address",
          "name": "previousOwner",
          "type": "address"
        },
        {
          "indexed": true,
          "internalType": "address",
          "name": "newOwner",
          "type": "address"
        }
      ],
      "name": "OwnershipTransferred",
      "type": "event"
    },
    {
      "anonymous": false,
      "inputs": [
        {
          "indexed": false,
          "internalType": "address",
          "name": "account",
          "type": "address"
        }
      ],
      "name": "Paused",
      "type": "event"
    },
    {
      "anonymous": false,
      "inputs": [
        {
          "indexed": false,
          "internalType": "uint256",
          "name": "chainID",
          "type": "uint256"
        },
        {
          "indexed": false,
          "internalType": "address",
          "name": "token",
          "type": "address"
        },
        {
          "indexed": false,
          "internalType": "uint256",
          "name": "targetPerc",
          "type": "uint256"
        },
        {
          "indexed": false,
          "internalType": "uint256",
          "name": "tid",
          "type": "uint256"
        }
      ],
      "name": "RemoveToken",
      "type": "event"
    },
    {
      "anonymous": false,
      "inputs": [
        {
          "indexed": false,
          "internalType": "address",
          "name": "oldAdmin",
          "type": "address"
        },
        {
          "indexed": false,
          "internalType": "address",
          "name": "newAdmin",
          "type": "address"
        }
      ],
      "name": "SetAdminWallet",
      "type": "event"
    },
    {
      "anonymous": false,
      "inputs": [
        {
          "indexed": false,
          "internalType": "address",
          "name": "oldBiconomy",
          "type": "address"
        },
        {
          "indexed": false,
          "internalType": "address",
          "name": "newBiconomy",
          "type": "address"
        }
      ],
      "name": "SetBiconomy",
      "type": "event"
    },
    {
      "anonymous": false,
      "inputs": [
        {
          "indexed": false,
          "internalType": "address",
          "name": "account",
          "type": "address"
        }
      ],
      "name": "Unpaused",
      "type": "event"
    },
    {
      "inputs": [],
      "name": "STI",
      "outputs": [
        {
          "internalType": "contract ISTI",
          "name": "",
          "type": "address"
        }
      ],
      "stateMutability": "view",
      "type": "function"
    },
    {
      "inputs": [
        {
          "internalType": "uint256",
          "name": "_chainID",
          "type": "uint256"
        },
        {
          "internalType": "address",
          "name": "_token",
          "type": "address"
        }
      ],
      "name": "addToken",
      "outputs": [],
      "stateMutability": "nonpayable",
      "type": "function"
    },
    {
      "inputs": [],
      "name": "admin",
      "outputs": [
        {
          "internalType": "address",
          "name": "",
          "type": "address"
        }
      ],
      "stateMutability": "view",
      "type": "function"
    },
    {
      "inputs": [
        {
          "internalType": "address",
          "name": "_account",
          "type": "address"
        },
        {
          "internalType": "uint256",
          "name": "_share",
          "type": "uint256"
        }
      ],
      "name": "burnByAdmin",
      "outputs": [],
      "stateMutability": "nonpayable",
      "type": "function"
    },
    {
      "inputs": [
        {
          "internalType": "uint256",
          "name": "",
          "type": "uint256"
        }
      ],
      "name": "chainIDs",
      "outputs": [
        {
          "internalType": "uint256",
          "name": "",
          "type": "uint256"
        }
      ],
      "stateMutability": "view",
      "type": "function"
    },
    {
      "inputs": [
        {
          "internalType": "address",
          "name": "_account",
          "type": "address"
        }
      ],
      "name": "exitWithdrawal",
      "outputs": [],
      "stateMutability": "nonpayable",
      "type": "function"
    },
    {
      "inputs": [],
      "name": "gatewaySigner",
      "outputs": [
        {
          "internalType": "address",
          "name": "",
          "type": "address"
        }
      ],
      "stateMutability": "view",
      "type": "function"
    },
    {
      "inputs": [
        {
          "internalType": "uint256[]",
          "name": "_allPoolInUSDs",
          "type": "uint256[]"
        },
        {
          "internalType": "uint256[]",
          "name": "_APRs",
          "type": "uint256[]"
        }
      ],
      "name": "getAPR",
      "outputs": [
        {
          "internalType": "uint256",
          "name": "",
          "type": "uint256"
        }
      ],
      "stateMutability": "pure",
      "type": "function"
    },
    {
      "inputs": [],
      "name": "getAPR1",
      "outputs": [
        {
          "internalType": "uint256",
          "name": "",
          "type": "uint256"
        }
      ],
      "stateMutability": "view",
      "type": "function"
    },
    {
      "inputs": [
        {
          "internalType": "bytes",
          "name": "result",
          "type": "bytes"
        },
        {
          "internalType": "bytes",
          "name": "extraData",
          "type": "bytes"
        }
      ],
      "name": "getAPR1WithSig",
      "outputs": [
        {
          "internalType": "uint256",
          "name": "",
          "type": "uint256"
        }
      ],
      "stateMutability": "view",
      "type": "function"
    },
    {
      "inputs": [
        {
          "internalType": "uint256[]",
          "name": "_allPoolInUSDs",
          "type": "uint256[]"
        }
      ],
      "name": "getAllPoolInUSD",
      "outputs": [
        {
          "internalType": "uint256",
          "name": "",
          "type": "uint256"
        }
      ],
      "stateMutability": "pure",
      "type": "function"
    },
    {
      "inputs": [],
      "name": "getAllPoolInUSD1",
      "outputs": [
        {
          "internalType": "uint256",
          "name": "",
          "type": "uint256"
        }
      ],
      "stateMutability": "view",
      "type": "function"
    },
    {
      "inputs": [
        {
          "internalType": "bytes",
          "name": "result",
          "type": "bytes"
        },
        {
          "internalType": "bytes",
          "name": "extraData",
          "type": "bytes"
        }
      ],
      "name": "getAllPoolInUSD1WithSig",
      "outputs": [
        {
          "internalType": "uint256",
          "name": "",
          "type": "uint256"
        }
      ],
      "stateMutability": "view",
      "type": "function"
    },
    {
      "inputs": [
        {
          "internalType": "uint256",
          "name": "_nonce",
          "type": "uint256"
        }
      ],
      "name": "getAllPoolInUSDAtNonce1",
      "outputs": [
        {
          "internalType": "uint256",
          "name": "",
          "type": "uint256"
        }
      ],
      "stateMutability": "view",
      "type": "function"
    },
    {
      "inputs": [
        {
          "internalType": "uint256[]",
          "name": "_chainIDs",
          "type": "uint256[]"
        },
        {
          "internalType": "address[]",
          "name": "_tokens",
          "type": "address[]"
        },
        {
          "internalType": "uint256[]",
          "name": "_poolInUSDs",
          "type": "uint256[]"
        }
      ],
      "name": "getCurrentTokenCompositionPerc",
      "outputs": [
        {
          "internalType": "uint256[]",
          "name": "",
          "type": "uint256[]"
        },
        {
          "internalType": "address[]",
          "name": "",
          "type": "address[]"
        },
        {
          "internalType": "uint256[]",
          "name": "pools",
          "type": "uint256[]"
        },
        {
          "internalType": "uint256[]",
          "name": "percentages",
          "type": "uint256[]"
        }
      ],
      "stateMutability": "view",
      "type": "function"
    },
    {
      "inputs": [],
      "name": "getCurrentTokenCompositionPerc1",
      "outputs": [
        {
          "internalType": "uint256[]",
          "name": "",
          "type": "uint256[]"
        },
        {
          "internalType": "address[]",
          "name": "",
          "type": "address[]"
        },
        {
          "internalType": "uint256[]",
          "name": "",
          "type": "uint256[]"
        },
        {
          "internalType": "uint256[]",
          "name": "",
          "type": "uint256[]"
        }
      ],
      "stateMutability": "view",
      "type": "function"
    },
    {
      "inputs": [
        {
          "internalType": "bytes",
          "name": "result",
          "type": "bytes"
        },
        {
          "internalType": "bytes",
          "name": "extraData",
          "type": "bytes"
        }
      ],
      "name": "getCurrentTokenCompositionPercWithSig",
      "outputs": [
        {
          "internalType": "uint256[]",
          "name": "",
          "type": "uint256[]"
        },
        {
          "internalType": "address[]",
          "name": "",
          "type": "address[]"
        },
        {
          "internalType": "uint256[]",
          "name": "",
          "type": "uint256[]"
        },
        {
          "internalType": "uint256[]",
          "name": "",
          "type": "uint256[]"
        }
      ],
      "stateMutability": "view",
      "type": "function"
    },
    {
      "inputs": [
        {
          "internalType": "uint256[]",
          "name": "_chainIDs",
          "type": "uint256[]"
        },
        {
          "internalType": "address[]",
          "name": "_tokens",
          "type": "address[]"
        },
        {
          "internalType": "uint256[]",
          "name": "_poolInUSDs",
          "type": "uint256[]"
        },
        {
          "internalType": "uint256",
          "name": "_USDTAmt",
          "type": "uint256"
        }
      ],
      "name": "getDepositTokenComposition",
      "outputs": [
        {
          "internalType": "uint256[]",
          "name": "",
          "type": "uint256[]"
        },
        {
          "internalType": "address[]",
          "name": "",
          "type": "address[]"
        },
        {
          "internalType": "uint256[]",
          "name": "_USDTAmts",
          "type": "uint256[]"
        }
      ],
      "stateMutability": "view",
      "type": "function"
    },
    {
      "inputs": [
        {
          "internalType": "uint256",
          "name": "_USDTAmt",
          "type": "uint256"
        }
      ],
      "name": "getDepositTokenComposition1",
      "outputs": [
        {
          "internalType": "uint256[]",
          "name": "",
          "type": "uint256[]"
        },
        {
          "internalType": "address[]",
          "name": "",
          "type": "address[]"
        },
        {
          "internalType": "uint256[]",
          "name": "",
          "type": "uint256[]"
        }
      ],
      "stateMutability": "view",
      "type": "function"
    },
    {
      "inputs": [
        {
          "internalType": "bytes",
          "name": "result",
          "type": "bytes"
        },
        {
          "internalType": "bytes",
          "name": "extraData",
          "type": "bytes"
        }
      ],
      "name": "getDepositTokenComposition1WithSig",
      "outputs": [
        {
          "internalType": "uint256[]",
          "name": "",
          "type": "uint256[]"
        },
        {
          "internalType": "address[]",
          "name": "",
          "type": "address[]"
        },
        {
          "internalType": "uint256[]",
          "name": "",
          "type": "uint256[]"
        }
      ],
      "stateMutability": "view",
      "type": "function"
    },
    {
      "inputs": [],
      "name": "getNonce",
      "outputs": [
        {
          "internalType": "uint256",
          "name": "",
          "type": "uint256"
        }
      ],
      "stateMutability": "view",
      "type": "function"
    },
    {
      "inputs": [
        {
          "internalType": "uint256",
          "name": "_nonce",
          "type": "uint256"
        }
      ],
      "name": "getOperation",
      "outputs": [
        {
          "components": [
            {
              "internalType": "address",
              "name": "account",
              "type": "address"
            },
            {
              "internalType": "enum STIMinter.OperationType",
              "name": "operation",
              "type": "uint8"
            },
            {
              "internalType": "uint256",
              "name": "amount",
              "type": "uint256"
            },
            {
              "internalType": "bool",
              "name": "done",
              "type": "bool"
            }
          ],
          "internalType": "struct STIMinter.Operation",
          "name": "",
          "type": "tuple"
        }
      ],
      "stateMutability": "view",
      "type": "function"
    },
    {
      "inputs": [
        {
          "internalType": "address",
          "name": "_account",
          "type": "address"
        }
      ],
      "name": "getPoolsUnbonded1",
      "outputs": [
        {
          "internalType": "uint256[]",
          "name": "",
          "type": "uint256[]"
        },
        {
          "internalType": "address[]",
          "name": "",
          "type": "address[]"
        },
        {
          "internalType": "uint256[]",
          "name": "",
          "type": "uint256[]"
        },
        {
          "internalType": "uint256[]",
          "name": "",
          "type": "uint256[]"
        },
        {
          "internalType": "uint256[]",
          "name": "",
          "type": "uint256[]"
        },
        {
          "internalType": "uint256[]",
          "name": "",
          "type": "uint256[]"
        },
        {
          "internalType": "uint256[]",
          "name": "",
          "type": "uint256[]"
        }
      ],
      "stateMutability": "view",
      "type": "function"
    },
    {
      "inputs": [
        {
          "internalType": "bytes",
          "name": "result",
          "type": "bytes"
        },
        {
          "internalType": "bytes",
          "name": "",
          "type": "bytes"
        }
      ],
      "name": "getPoolsUnbonded1WithSig",
      "outputs": [
        {
          "internalType": "uint256[]",
          "name": "_chainIDs",
          "type": "uint256[]"
        },
        {
          "internalType": "address[]",
          "name": "_tokens",
          "type": "address[]"
        },
        {
          "internalType": "uint256[]",
          "name": "_waitings",
          "type": "uint256[]"
        },
        {
          "internalType": "uint256[]",
          "name": "_waitingInUSDs",
          "type": "uint256[]"
        },
        {
          "internalType": "uint256[]",
          "name": "_unbondeds",
          "type": "uint256[]"
        },
        {
          "internalType": "uint256[]",
          "name": "_unbondedInUSDs",
          "type": "uint256[]"
        },
        {
          "internalType": "uint256[]",
          "name": "_waitForTses",
          "type": "uint256[]"
        }
      ],
      "stateMutability": "view",
      "type": "function"
    },
    {
      "inputs": [
        {
          "internalType": "uint256[]",
          "name": "_allPoolInUSDs",
          "type": "uint256[]"
        }
      ],
      "name": "getPricePerFullShare",
      "outputs": [
        {
          "internalType": "uint256",
          "name": "",
          "type": "uint256"
        }
      ],
      "stateMutability": "view",
      "type": "function"
    },
    {
      "inputs": [],
      "name": "getPricePerFullShare1",
      "outputs": [
        {
          "internalType": "uint256",
          "name": "",
          "type": "uint256"
        }
      ],
      "stateMutability": "view",
      "type": "function"
    },
    {
      "inputs": [
        {
          "internalType": "bytes",
          "name": "result",
          "type": "bytes"
        },
        {
          "internalType": "bytes",
          "name": "extraData",
          "type": "bytes"
        }
      ],
      "name": "getPricePerFullShare1WithSig",
      "outputs": [
        {
          "internalType": "uint256",
          "name": "",
          "type": "uint256"
        }
      ],
      "stateMutability": "view",
      "type": "function"
    },
    {
      "inputs": [],
      "name": "getUSDTPriceInUSD",
      "outputs": [
        {
          "internalType": "uint256",
          "name": "",
          "type": "uint256"
        },
        {
          "internalType": "uint8",
          "name": "",
          "type": "uint8"
        }
      ],
      "stateMutability": "view",
      "type": "function"
    },
    {
      "inputs": [
        {
          "internalType": "address",
          "name": "_account",
          "type": "address"
        },
        {
          "internalType": "uint256",
          "name": "_share",
          "type": "uint256"
        }
      ],
      "name": "getWithdrawPerc",
      "outputs": [
        {
          "internalType": "uint256",
          "name": "_sharePerc",
          "type": "uint256"
        }
      ],
      "stateMutability": "view",
      "type": "function"
    },
    {
      "inputs": [],
      "name": "getWithdrawableSharePerc1",
      "outputs": [
        {
          "internalType": "uint256",
          "name": "",
          "type": "uint256"
        }
      ],
      "stateMutability": "view",
      "type": "function"
    },
    {
      "inputs": [
        {
          "internalType": "bytes",
          "name": "result",
          "type": "bytes"
        },
        {
          "internalType": "bytes",
          "name": "extraData",
          "type": "bytes"
        }
      ],
      "name": "getWithdrawableSharePerc1WithSig",
      "outputs": [
        {
          "internalType": "uint256",
          "name": "_sharePerc",
          "type": "uint256"
        }
      ],
      "stateMutability": "view",
      "type": "function"
    },
    {
      "inputs": [
        {
          "internalType": "address",
          "name": "_account",
          "type": "address"
        },
        {
          "internalType": "uint256",
          "name": "_USDTAmt",
          "type": "uint256"
        }
      ],
      "name": "initDeposit",
      "outputs": [],
      "stateMutability": "nonpayable",
      "type": "function"
    },
    {
      "inputs": [
        {
          "internalType": "address",
          "name": "_admin",
          "type": "address"
        },
        {
          "internalType": "address",
          "name": "_biconomy",
          "type": "address"
        },
        {
          "internalType": "address",
          "name": "_STI",
          "type": "address"
        },
        {
          "internalType": "address",
          "name": "_priceOracle",
          "type": "address"
        }
      ],
      "name": "initialize",
      "outputs": [],
      "stateMutability": "nonpayable",
      "type": "function"
    },
    {
      "inputs": [
        {
          "internalType": "address",
          "name": "forwarder",
          "type": "address"
        }
      ],
      "name": "isTrustedForwarder",
      "outputs": [
        {
          "internalType": "bool",
          "name": "",
          "type": "bool"
        }
      ],
      "stateMutability": "view",
      "type": "function"
    },
    {
      "inputs": [
        {
          "internalType": "uint256",
          "name": "_pool",
          "type": "uint256"
        },
        {
          "internalType": "address",
          "name": "_account",
          "type": "address"
        }
      ],
      "name": "mintByAdmin",
      "outputs": [],
      "stateMutability": "nonpayable",
      "type": "function"
    },
    {
      "inputs": [
        {
          "internalType": "uint256",
          "name": "",
          "type": "uint256"
        }
      ],
      "name": "operations",
      "outputs": [
        {
          "internalType": "address",
          "name": "account",
          "type": "address"
        },
        {
          "internalType": "enum STIMinter.OperationType",
          "name": "operation",
          "type": "uint8"
        },
        {
          "internalType": "uint256",
          "name": "amount",
          "type": "uint256"
        },
        {
          "internalType": "bool",
          "name": "done",
          "type": "bool"
        }
      ],
      "stateMutability": "view",
      "type": "function"
    },
    {
      "inputs": [],
      "name": "owner",
      "outputs": [
        {
          "internalType": "address",
          "name": "",
          "type": "address"
        }
      ],
      "stateMutability": "view",
      "type": "function"
    },
    {
      "inputs": [],
      "name": "paused",
      "outputs": [
        {
          "internalType": "bool",
          "name": "",
          "type": "bool"
        }
      ],
      "stateMutability": "view",
      "type": "function"
    },
    {
      "inputs": [],
      "name": "priceOracle",
      "outputs": [
        {
          "internalType": "contract IPriceOracle",
          "name": "",
          "type": "address"
        }
      ],
      "stateMutability": "view",
      "type": "function"
    },
    {
      "inputs": [
        {
          "internalType": "uint256",
          "name": "_tid",
          "type": "uint256"
        }
      ],
      "name": "removeToken",
      "outputs": [],
      "stateMutability": "nonpayable",
      "type": "function"
    },
    {
      "inputs": [],
      "name": "renounceOwnership",
      "outputs": [],
      "stateMutability": "nonpayable",
      "type": "function"
    },
    {
      "inputs": [
        {
          "internalType": "address",
          "name": "_admin",
          "type": "address"
        }
      ],
      "name": "setAdmin",
      "outputs": [],
      "stateMutability": "nonpayable",
      "type": "function"
    },
    {
      "inputs": [
        {
          "internalType": "address",
          "name": "_biconomy",
          "type": "address"
        }
      ],
      "name": "setBiconomy",
      "outputs": [],
      "stateMutability": "nonpayable",
      "type": "function"
    },
    {
      "inputs": [
        {
          "internalType": "address",
          "name": "_signer",
          "type": "address"
        }
      ],
      "name": "setGatewaySigner",
      "outputs": [],
      "stateMutability": "nonpayable",
      "type": "function"
    },
    {
      "inputs": [
        {
          "internalType": "uint256[]",
          "name": "_targetPerc",
          "type": "uint256[]"
        }
      ],
      "name": "setTokenCompositionTargetPerc",
      "outputs": [],
      "stateMutability": "nonpayable",
      "type": "function"
    },
    {
      "inputs": [
        {
          "internalType": "string[]",
          "name": "_urls",
          "type": "string[]"
        }
      ],
      "name": "setUrls",
      "outputs": [],
      "stateMutability": "nonpayable",
      "type": "function"
    },
    {
      "inputs": [
        {
          "internalType": "uint256",
          "name": "",
          "type": "uint256"
        }
      ],
      "name": "targetPercentages",
      "outputs": [
        {
          "internalType": "uint256",
          "name": "",
          "type": "uint256"
        }
      ],
      "stateMutability": "view",
      "type": "function"
    },
    {
      "inputs": [
        {
          "internalType": "uint256",
          "name": "",
          "type": "uint256"
        },
        {
          "internalType": "address",
          "name": "",
          "type": "address"
        }
      ],
      "name": "tid",
      "outputs": [
        {
          "internalType": "uint256",
          "name": "",
          "type": "uint256"
        }
      ],
      "stateMutability": "view",
      "type": "function"
    },
    {
      "inputs": [
        {
          "internalType": "uint256",
          "name": "",
          "type": "uint256"
        }
      ],
      "name": "tokens",
      "outputs": [
        {
          "internalType": "address",
          "name": "",
          "type": "address"
        }
      ],
      "stateMutability": "view",
      "type": "function"
    },
    {
      "inputs": [
        {
          "internalType": "address",
          "name": "newOwner",
          "type": "address"
        }
      ],
      "name": "transferOwnership",
      "outputs": [],
      "stateMutability": "nonpayable",
      "type": "function"
    },
    {
      "inputs": [],
      "name": "trustedForwarder",
      "outputs": [
        {
          "internalType": "address",
          "name": "",
          "type": "address"
        }
      ],
      "stateMutability": "view",
      "type": "function"
    },
    {
      "inputs": [
        {
          "internalType": "uint256",
          "name": "",
          "type": "uint256"
        }
      ],
      "name": "urls",
      "outputs": [
        {
          "internalType": "string",
          "name": "",
          "type": "string"
        }
      ],
      "stateMutability": "view",
      "type": "function"
    },
    {
      "inputs": [
        {
          "internalType": "address",
          "name": "",
          "type": "address"
        }
      ],
      "name": "userLastOperationNonce",
      "outputs": [
        {
          "internalType": "uint256",
          "name": "",
          "type": "uint256"
        }
      ],
      "stateMutability": "view",
      "type": "function"
    },
    {
      "inputs": [],
      "name": "versionRecipient",
      "outputs": [
        {
          "internalType": "string",
          "name": "",
          "type": "string"
        }
      ],
      "stateMutability": "pure",
      "type": "function"
    }
  ],
  "transactionHash": "0x0e489e1f3ca02886ab568add2cfc73f68d15d23bb68449be96fa15d2dc7c9535",
  "args": [],
  "numDeployments": 8,
  "solcInputHash": "6cb6ac7d30255b6e413bd926ec39bab7",
  "bytecode": "0x608060405234801561001057600080fd5b50614a94806100206000396000f3fe608060405234801561001057600080fd5b50600436106103425760003560e01c80637da0a877116101b8578063b47c6a2711610104578063ece90e90116100a2578063f3253c631161007c578063f3253c6314610785578063f851a44014610798578063f8c8765e146107ab578063fd6878cc146107be57600080fd5b8063ece90e9014610757578063ef02197f1461075f578063f2fde38b1461077257600080fd5b8063d087d288116100de578063d087d28814610716578063d3b974a01461071e578063da3bc85c14610731578063dd8aae411461074457600080fd5b8063b47c6a27146106d1578063b9bd5bb5146106f0578063cb25bb651461070357600080fd5b806397cd02e611610171578063a08ce5201161014b578063a08ce52014610680578063a7645a2014610693578063af05a749146106a6578063b2e9949d146106ae57600080fd5b806397cd02e6146106475780639ecb6fae1461065a5780639f86d4dd1461066d57600080fd5b80637da0a877146105d75780637ed66ec6146105ea5780637fb2df42146105fd5780638da5cb5b146106105780639532a433146106215780639600abf91461063457600080fd5b80634f64b2be116102925780635ad748e411610230578063704b6c021161020a578063704b6c0214610596578063715018a6146105a9578063770c76dd146105b1578063796676be146105c457600080fd5b80635ad748e4146105655780635c975abb146105785780636cc895a91461058357600080fd5b80635605af2c1161026c5780635605af2c1461050557806357016b0a14610518578063572b6c051461052b5780635796d0b01461055d57600080fd5b80634f64b2be146104c45780635042f9b6146104d75780635344cac9146104df57600080fd5b8063202e3924116102ff57806338a87163116102d957806338a871631461044657806340b8e57f14610469578063486ff0cd1461047c57806349445553146104a257600080fd5b8063202e3924146103e85780632630c12f1461040857806336c5d7241461043357600080fd5b806309d23e24146103475780630d8b76a81461036d578063193ab1021461038257806319dac5af1461038a5780631c60ffc3146103aa5780631cc0f27d146103d5575b600080fd5b61035a610355366004613951565b6107d1565b6040519081526020015b60405180910390f35b61038061037b366004613981565b6107f2565b005b61035a6108a6565b61035a610398366004613981565b60d36020526000908152604090205481565b61035a6103b836600461399c565b60cc60209081526000928352604080842090915290825290205481565b6103806103e3366004613981565b610918565b6103fb6103f6366004613951565b610966565b6040516103649190613a00565b60cf5461041b906001600160a01b031681565b6040516001600160a01b039091168152602001610364565b610380610441366004613951565b610a29565b610459610454366004613a82565b610d30565b6040516103649493929190613b61565b61035a610477366004613a82565b610e2a565b6040805180820190915260018152603160f81b60208201525b6040516103649190613c06565b6104b56104b0366004613951565b610ea1565b60405161036493929190613c19565b61041b6104d2366004613951565b610eee565b61035a610f18565b6104f26104ed366004613981565b610f63565b6040516103649796959493929190613c52565b61035a610513366004613a82565b610ff3565b61038061052636600461399c565b6110cf565b61054d610539366004613981565b6000546001600160a01b0391821691161490565b6040519015158152602001610364565b6104596112fa565b610380610573366004613ce9565b61134d565b60655460ff1661054d565b610380610591366004613dd3565b61156f565b6103806105a4366004613981565b6115cb565b61038061166e565b6103806105bf36600461399c565b6116c3565b6104956105d2366004613951565b61199f565b60005461041b906001600160a01b031681565b6104b56105f8366004613a82565b611a4b565b61038061060b366004613e9d565b611ae5565b6097546001600160a01b031661041b565b60ce5461041b906001600160a01b031681565b6104f2610642366004613a82565b611c39565b61035a610655366004613f77565b611d6e565b61035a610668366004613951565b611e3b565b61035a61067b366004613ce9565b611eaa565b61035a61068e366004613a82565b612026565b61035a6106a1366004613951565b612096565b61035a6120a6565b6106c16106bc366004613951565b6120f1565b6040516103649493929190613fb3565b6106d961213c565b6040805192835260ff909116602083015201610364565b6103806106fe366004613981565b6121d7565b610459610711366004614049565b612242565b60d25461035a565b6104b561072c3660046140d0565b612440565b61035a61073f36600461415f565b612777565b61035a610752366004613f77565b612860565b61035a6128b1565b61038061076d366004613ce9565b6128fc565b610380610780366004613981565b61298d565b60d15461041b906001600160a01b031681565b60cd5461041b906001600160a01b031681565b6103806107b93660046141c2565b612a47565b61035a6107cc366004613a82565b612d32565b60c981815481106107e157600080fd5b600091825260209091200154905081565b6107fa612d96565b6001600160a01b03166108156097546001600160a01b031690565b6001600160a01b0316146108445760405162461bcd60e51b815260040161083b90614216565b60405180910390fd5b600080546001600160a01b038381166001600160a01b031983168117909355604080519190921680825260208201939093527f56b079178193d2a52b3949d9cd8bc5503daadffd4a704722e18b8325021a974191015b60405180910390a15050565b6040805160048152602481018252602080820180516001600160e01b0316630c9d588160e11b179052825160009181018290529092309260d09290916315816bcb60e21b91015b60408051601f1981840301815290829052630556f18360e41b825261083b9594939291600401614286565b6097546001600160a01b031633148061093b575060cd546001600160a01b031633145b6109575760405162461bcd60e51b815260040161083b906143b3565b610962816002612da5565b5050565b60408051608081018252600080825260208201819052918101829052606081019190915260d26109976001846143f6565b815481106109a7576109a761440d565b6000918252602091829020604080516080810190915260039092020180546001600160a01b0381168352919290919083019060ff600160a01b9091041660028111156109f5576109f56139c8565b6002811115610a0657610a066139c8565b81526001820154602082015260029091015460ff16151560409091015292915050565b610a31612d96565b6001600160a01b0316610a4c6097546001600160a01b031690565b6001600160a01b031614610a725760405162461bcd60e51b815260040161083b90614216565b60ca54808210610ab25760405162461bcd60e51b815260206004820152600b60248201526a125b9d985b1a59081d1a5960aa1b604482015260640161083b565b600060c98381548110610ac757610ac761440d565b90600052602060002001549050600060ca8481548110610ae957610ae961440d565b600091825260208220015460cb80546001600160a01b0390921693509086908110610b1657610b1661440d565b9060005260206000200154905060c9600185610b3291906143f6565b81548110610b4257610b4261440d565b906000526020600020015460c98681548110610b6057610b6061440d565b60009182526020909120015560c9805480610b7d57610b7d614423565b6001900381819060005260206000200160009055905560ca600185610ba291906143f6565b81548110610bb257610bb261440d565b60009182526020909120015460ca80546001600160a01b039092169187908110610bde57610bde61440d565b9060005260206000200160006101000a8154816001600160a01b0302191690836001600160a01b0316021790555060ca805480610c1d57610c1d614423565b600082815260209020810160001990810180546001600160a01b031916905501905560cb610c4c6001866143f6565b81548110610c5c57610c5c61440d565b906000526020600020015460cb8681548110610c7a57610c7a61440d565b60009182526020909120015560cb805480610c9757610c97614423565b60008281526020808220830160001990810183905590920190925584825260cc815260408083206001600160a01b0386168452909152812055610cd8612ec9565b604080518481526001600160a01b0384166020820152908101829052606081018690527fd8cc1d279bf727e9ee02c4ed116f7c12f4965ace9b477482de71a7929a1871b3906080015b60405180910390a15050505050565b60608080806000808080610d468b8d018d614459565b93509350935093506000610dd782868686604051602001610d6993929190614558565b60408051601f198184030181529082905280516020918201207f19457468657265756d205369676e6564204d6573736167653a0a33320000000091830191909152603c820152605c015b6040516020818303038152906040528051906020012061300c90919063ffffffff16565b60d1549091506001600160a01b03808316911614610e075760405162461bcd60e51b815260040161083b9061457f565b610e12858585612242565b98509850985098505050505050945094509450949050565b6000808080610e3b878901896145ac565b9250925092506000610e5a828585604051602001610d69929190614629565b60d1549091506001600160a01b03808316911614610e8a5760405162461bcd60e51b815260040161083b9061457f565b610e948484612777565b9998505050505050505050565b6040805160048152602481018252602080820180516001600160e01b0316633c1d708960e01b179052825190810184905260609283928392309260d09291633f6b376360e11b91016108ed565b60ca8181548110610efe57600080fd5b6000918252602090912001546001600160a01b0316905081565b6040805160048152602481018252602080820180516001600160e01b03166328217cdb60e11b179052825160009181018290529092309260d0929091630504672960e51b91016108ed565b60608060608060608060603060d0635344cac960e01b8a604051602401610f9991906001600160a01b0391909116815260200190565b60408051601f19818403018152918152602080830180516001600160e01b03166001600160e01b031990951694909417909352519091639600abf960e01b916108ed918e91016001600160a01b0391909116815260200190565b6000808080611004878901896145ac565b9250925092506000611023828585604051602001610d69929190614629565b60d1549091506001600160a01b038083169116146110535760405162461bcd60e51b815260040161083b9061457f565b82518015611079578360008151811061106e5761106e61440d565b602002602001015195505b60015b818110156110c15760008582815181106110985761109861440d565b60200260200101519050808811156110ae578097505b50806110b981614638565b91505061107c565b505050505050949350505050565b6110d7612d96565b6001600160a01b03166110f26097546001600160a01b031690565b6001600160a01b0316146111185760405162461bcd60e51b815260040161083b90614216565b600082815260cc602090815260408083206001600160a01b038516845290915290205480158015611167575060c96000815481106111585761115861440d565b90600052602060002001548314155b801561119e575060ca6000815481106111825761118261440d565b6000918252602090912001546001600160a01b03838116911614155b6111da5760405162461bcd60e51b815260206004820152600d60248201526c105b1c9958591e481859191959609a1b604482015260640161083b565b60c9805460018082019092557f66be4f155c5ef2ebd3772b228f2f00681e4ed5826cdb3b1943cc11ad15ad1d280184905560ca805480830182557f42d72674974f694b5f5159593243114d38a5c39c89d6b62fee061ff523240ee10180546001600160a01b0319166001600160a01b03861617905560cb8054808401825560009182527fa7ce836d032b2bf62b7e2097a8e0a6d8aeb35405ad15271e96d3b0188a1d06fb01555461128b91906143f6565b600084815260cc602090815260408083206001600160a01b038716808552908352928190208490558051878152918201929092529081018290529091507fefa15d4fefbb71d07b3cdc624ab208ebe2d3b6933946582fd8b807e8a5bc93cc9060600160405180910390a1505050565b6040805160048152602481018252602080820180516001600160e01b03166305796d0b60e41b1790528251600091810191909152606092839283928392309260d09290916338a8716360e01b91016108ed565b6097546001600160a01b0316331480611370575060cd546001600160a01b031633145b61138c5760405162461bcd60e51b815260040161083b906143b3565b600260015414156113df5760405162461bcd60e51b815260206004820152601f60248201527f5265656e7472616e637947756172643a207265656e7472616e742063616c6c00604482015260640161083b565b6002600155801580159061146f575060ce546040516370a0823160e01b81526001600160a01b038481166004830152909116906370a082319060240160206040518083038186803b15801561143357600080fd5b505afa158015611447573d6000803e3d6000fd5b505050506040513d601f19601f8201168201806040525081019061146b9190614653565b8111155b6114b25760405162461bcd60e51b8152602060048201526014602482015273125b9d985b1a59081cda185c9948185b5bdd5b9d60621b604482015260640161083b565b6114be82600283613028565b60ce5460405163079cc67960e41b81526001600160a01b03848116600483015260248201849052909116906379cc679090604401600060405180830381600087803b15801561150c57600080fd5b505af1158015611520573d6000803e3d6000fd5b5050604080516001600160a01b0386168152602081018590527fcc16f5dbb4873280815c1ee09dbd06736cffcc184412cf7a71a0fdb75d397ca5935001905060405180910390a1505060018055565b611577612d96565b6001600160a01b03166115926097546001600160a01b031690565b6001600160a01b0316146115b85760405162461bcd60e51b815260040161083b90614216565b80516109629060d0906020840190613808565b6115d3612d96565b6001600160a01b03166115ee6097546001600160a01b031690565b6001600160a01b0316146116145760405162461bcd60e51b815260040161083b90614216565b60cd80546001600160a01b038381166001600160a01b031983168117909355604080519190921680825260208201939093527f9f0ac88be9159761bacf6c9e7c294c397ebf594607f6b3f2f70e7e0841ea68e8910161089a565b611676612d96565b6001600160a01b03166116916097546001600160a01b031690565b6001600160a01b0316146116b75760405162461bcd60e51b815260040161083b90614216565b6116c16000613197565b565b6097546001600160a01b03163314806116e6575060cd546001600160a01b031633145b6117025760405162461bcd60e51b815260040161083b906143b3565b600260015414156117555760405162461bcd60e51b815260206004820152601f60248201527f5265656e7472616e637947756172643a207265656e7472616e742063616c6c00604482015260640161083b565b600260015560655460ff16156117a05760405162461bcd60e51b815260206004820152601060248201526f14185d5cd8589b194e881c185d5cd95960821b604482015260640161083b565b60006117ad826001612da5565b90506000806117ba61213c565b909250905060006117cc82600a614750565b836117dc8664e8d4a5100061475f565b6117e6919061475f565b6117f0919061477e565b905085811061180057600061180a565b61180a81876143f6565b9550600060ce60009054906101000a90046001600160a01b03166001600160a01b03166318160ddd6040518163ffffffff1660e01b815260040160206040518083038186803b15801561185c57600080fd5b505afa158015611870573d6000803e3d6000fd5b505050506040513d601f19601f820116820180604052508101906118949190614653565b905060008715806118a3575081155b6118c157876118b2848461475f565b6118bc919061477e565b6118c3565b825b90506103e86118d4826103e561475f565b6118de919061477e565b60ce546040516340c10f1960e01b81526001600160a01b038a81166004830152602482018490529293509116906340c10f1990604401600060405180830381600087803b15801561192e57600080fd5b505af1158015611942573d6000803e3d6000fd5b5050604080516001600160a01b038b168152602081018790529081018490527f4c209b5fc8ad50758f13e2e1088ba56a560dff690a1c6fef26394f4c03821c4f9250606001905060405180910390a1505060018055505050505050565b60d081815481106119af57600080fd5b9060005260206000200160009150905080546119ca9061424b565b80601f01602080910402602001604051908101604052809291908181526020018280546119f69061424b565b8015611a435780601f10611a1857610100808354040283529160200191611a43565b820191906000526020600020905b815481529060010190602001808311611a2657829003601f168201915b505050505081565b606080806000611a5d85870187613951565b90506000808080611a708b8d018d614459565b93509350935093506000611a9382868686604051602001610d6993929190614558565b60d1549091506001600160a01b03808316911614611ac35760405162461bcd60e51b815260040161083b9061457f565b611acf85858589612440565b9850985098505050505050509450945094915050565b611aed612d96565b6001600160a01b0316611b086097546001600160a01b031690565b6001600160a01b031614611b2e5760405162461bcd60e51b815260040161083b90614216565b60cb5481908114611b715760405162461bcd60e51b815260206004820152600d60248201526c125b9d985b1a590818dbdd5b9d609a1b604482015260640161083b565b6000805b82811015611bed57848482818110611b8f57611b8f61440d565b9050602002013560cb8281548110611ba957611ba961440d565b600091825260209091200155848482818110611bc757611bc761440d565b9050602002013582611bd991906147a0565b915080611be581614638565b915050611b75565b506127108114611c335760405162461bcd60e51b815260206004820152601160248201527024b73b30b634b2103830b930b6b2ba32b960791b604482015260640161083b565b50505050565b606080808080808080611c4e8b8d018d6147b8565b604051979f50959d50939b509199509750955093509150600090611c80908a908a908a908a908a908a906020016148f7565b604051602081830303815290604052805190602001209050600083604051602001611cab919061492a565b60408051808303601f19018152828252805160209182012081840186905283830181905282518085038401815260608501909352825192909101919091207f19457468657265756d205369676e6564204d6573736167653a0a3332000000006080840152609c830181905290925090600090611d2b90869060bc01610db3565b60d1549091506001600160a01b03808316911614611d5b5760405162461bcd60e51b815260040161083b9061457f565b5050505050949950949992975094509450565b60008060ce60009054906101000a90046001600160a01b03166001600160a01b03166318160ddd6040518163ffffffff1660e01b815260040160206040518083038186803b158015611dbf57600080fd5b505afa158015611dd3573d6000803e3d6000fd5b505050506040513d601f19601f82011682018060405250810190611df79190614653565b905080611e0e5750670de0b6b3a764000092915050565b80611e1884612860565b611e2a90670de0b6b3a764000061475f565b611e34919061477e565b9392505050565b60003060d0639ecb6fae60e01b84604051602401611e5b91815260200190565b60408051601f19818403018152918152602080830180516001600160e01b03166001600160e01b031990951694909417909352519091630504672960e51b916108ed9188910190815260200190565b6000816000108015611f38575060ce546040516370a0823160e01b81526001600160a01b038581166004830152909116906370a082319060240160206040518083038186803b158015611efc57600080fd5b505afa158015611f10573d6000803e3d6000fd5b505050506040513d601f19601f82011682018060405250810190611f349190614653565b8211155b611f7b5760405162461bcd60e51b8152602060048201526014602482015273125b9d985b1a59081cda185c9948185b5bdd5b9d60621b604482015260640161083b565b60ce60009054906101000a90046001600160a01b03166001600160a01b03166318160ddd6040518163ffffffff1660e01b815260040160206040518083038186803b158015611fc957600080fd5b505afa158015611fdd573d6000803e3d6000fd5b505050506040513d601f19601f820116820180604052508101906120019190614653565b61201383670de0b6b3a764000061475f565b61201d919061477e565b90505b92915050565b6000808061203686880188614936565b9150915060006120518284604051602001610d69919061492a565b60d1549091506001600160a01b038083169116146120815760405162461bcd60e51b815260040161083b9061457f565b61208a83612860565b98975050505050505050565b60cb81815481106107e157600080fd5b6040805160048152602481018252602080820180516001600160e01b031663af05a74960e01b179052825160009181018290529092309260d0929091633f5a1e3360e21b91016108ed565b60d2818154811061210157600080fd5b60009182526020909120600390910201805460018201546002909201546001600160a01b038216935060ff600160a01b909204821692911684565b60cf5460405163b3596f0760e01b81527321e48034753e490ff04f2f75f7caedf081b320d5600482015260009182916001600160a01b039091169063b3596f0790602401604080518083038186803b15801561219757600080fd5b505afa1580156121ab573d6000803e3d6000fd5b505050506040513d601f19601f820116820180604052508101906121cf919061498f565b915091509091565b6121df612d96565b6001600160a01b03166121fa6097546001600160a01b031690565b6001600160a01b0316146122205760405162461bcd60e51b815260040161083b90614216565b60d180546001600160a01b0319166001600160a01b0392909216919091179055565b6060806060806122538787876131e9565b80519092506000805b8281101561229d578481815181106122765761227661440d565b60200260200101518261228991906147a0565b91508061229581614638565b91505061225c565b50816001600160401b038111156122b6576122b6613d13565b6040519080825280602002602001820160405280156122df578160200160208202803683370190505b50925060005b8281101561237857811561232a57816127108683815181106123095761230961440d565b602002602001015161231b919061475f565b612325919061477e565b612349565b60cb818154811061233d5761233d61440d565b90600052602060002001545b84828151811061235b5761235b61440d565b60209081029190910101528061237081614638565b9150506122e5565b5060c960ca8585838054806020026020016040519081016040528092919081815260200182805480156123ca57602002820191906000526020600020905b8154815260200190600101908083116123b6575b505050505093508280548060200260200160405190810160405280929190818152602001828054801561242657602002820191906000526020600020905b81546001600160a01b03168152600190910190602001808311612408575b505050505092509550955095509550505093509350935093565b6060806060600080612453898989612242565b93509350505060008151905060008061246a61213c565b9092509050600061247c82600a614750565b8361248c8c64e8d4a5100061475f565b612496919061475f565b6124a0919061477e565b905060005b848110156124e6578681815181106124bf576124bf61440d565b6020026020010151826124d291906147a0565b9150806124de81614638565b9150506124a5565b50600080856001600160401b0381111561250257612502613d13565b60405190808252806020026020018201604052801561252b578160200160208202803683370190505b50905060005b868110156125fc57600061271060cb83815481106125515761255161440d565b906000526020600020015486612567919061475f565b612571919061477e565b9050808a83815181106125865761258661440d565b602002602001015110156125e95760008a83815181106125a8576125a861440d565b6020026020010151826125bb91906143f6565b9050808484815181106125d0576125d061440d565b60209081029190910101526125e581866147a0565b9450505b50806125f481614638565b915050612531565b50856001600160401b0381111561261557612615613d13565b60405190808252806020026020018201604052801561263e578160200160208202803683370190505b50985060005b868110156126ab578282828151811061265f5761265f61440d565b60200260200101518e612672919061475f565b61267c919061477e565b8a828151811061268e5761268e61440d565b6020908102919091010152806126a381614638565b915050612644565b5060c960ca8a828054806020026020016040519081016040528092919081815260200182805480156126fc57602002820191906000526020600020905b8154815260200190600101908083116126e8575b505050505092508180548060200260200160405190810160405280929190818152602001828054801561275857602002820191906000526020600020905b81546001600160a01b0316815260019091019060200180831161273a575b505050505091509a509a509a5050505050505050509450945094915050565b815181516000919081146127c65760405162461bcd60e51b815260206004820152601660248201527509cdee840dac2e8c6d040c2e4e4c2f240d8cadccee8d60531b604482015260640161083b565b60006127d185612860565b9050806127e357600092505050612020565b6000805b8381101561284b578681815181106128015761280161440d565b602002602001015186828151811061281b5761281b61440d565b602002602001015161282d919061475f565b61283790836147a0565b91508061284381614638565b9150506127e7565b50612856828261477e565b9695505050505050565b805160009081805b828110156128a9578481815181106128825761288261440d565b60200260200101518261289591906147a0565b9150806128a181614638565b915050612868565b509392505050565b6040805160048152602481018252602080820180516001600160e01b0316630ece90e960e41b179052825160009181018290529092309260d09290916340b8e57f60e01b91016108ed565b6097546001600160a01b031633148061291f575060cd546001600160a01b031633145b61293b5760405162461bcd60e51b815260040161083b906143b3565b60655460ff16156129815760405162461bcd60e51b815260206004820152601060248201526f14185d5cd8589b194e881c185d5cd95960821b604482015260640161083b565b61096282600183613028565b612995612d96565b6001600160a01b03166129b06097546001600160a01b031690565b6001600160a01b0316146129d65760405162461bcd60e51b815260040161083b90614216565b6001600160a01b038116612a3b5760405162461bcd60e51b815260206004820152602660248201527f4f776e61626c653a206e6577206f776e657220697320746865207a65726f206160448201526564647265737360d01b606482015260840161083b565b612a4481613197565b50565b6000612a536001613379565b90508015612a6f576000805460ff60a81b1916600160a81b1790555b612a77613419565b60cd80546001600160a01b038088166001600160a01b0319928316179092556000805487841690831617815560ce805487851690841617905560cf80549386169383169390931790925560c980546001818101835560047f66be4f155c5ef2ebd3772b228f2f00681e4ed5826cdb3b1943cc11ad15ad1d2892830181905560ca805480840182557f42d72674974f694b5f5159593243114d38a5c39c89d6b62fee061ff523240ee19081018054881673eeeeeeeeeeeeeeeeeeeeeeeeeeeeeeeeeeeeeeee9081179091558654808601885586019390935581548085018355810180548816737d1afa7b718fb893db30a3abc0cfc608aacfebb01790558554808501875560619086015581548085018355810180548816841790558554808501875561a86990860155815480850183558101805488169093179092558454808401909555634e4541539490930193909355815480820190925591018054909216734861825e75ab14553e5af711ebbe6873d369d1461790915560cb80548083018255928190526107d07fa7ce836d032b2bf62b7e2097a8e0a6d8aeb35405ad15271e96d3b0188a1d06fb9384018190558154808401835584018190558154808401835584018190558154808401835584018190558154928301909155910155612c5d612ec9565b60d0805460018101825560009190915260408051808201909152601680825275687474703a2f2f6c6f63616c686f73743a383030312f60501b6020909201918252612ccb927fe89d44c8fd6a9bac8af33ce47f56337617d449bf7ff3956b618c646de829cbcb019190613865565b5060d180546001600160a01b0319166001600160a01b0387161790558015612d2b576000805460ff60a81b19169055604051600181527f7f26b83ff96e1f2b6a682f133852f6798a09c465da95921460cefb384740249890602001610d21565b5050505050565b60008080612d4286880188614936565b915091506000612d5d8284604051602001610d69919061492a565b60d1549091506001600160a01b03808316911614612d8d5760405162461bcd60e51b815260040161083b9061457f565b61208a83611d6e565b6000612da061344a565b905090565b6001600160a01b038216600090815260d3602052604081205480612dfa5760405162461bcd60e51b815260206004820152600c60248201526b27379037b832b930ba34b7b760a11b604482015260640161083b565b6000612e0582610966565b9050836002811115612e1957612e196139c8565b81602001516002811115612e2f57612e2f6139c8565b148015612e3e57506060810151155b612e7d5760405162461bcd60e51b815260206004820152601060248201526f105b1c9958591e48199a5b9a5cda195960821b604482015260640161083b565b600160d2612e8b82856143f6565b81548110612e9b57612e9b61440d565b60009182526020909120600390910201600201805460ff191691151591909117905560400151949350505050565b600060c9805480602002602001604051908101604052809291908181526020018280548015612f1757602002820191906000526020600020905b815481526020019060010190808311612f03575b50505050509050600060ca805480602002602001604051908101604052809291908181526020018280548015612f7657602002820191906000526020600020905b81546001600160a01b03168152600190910190602001808311612f58575b505083519394506000925050505b81811015611c33578060cc6000868481518110612fa357612fa361440d565b602002602001015181526020019081526020016000206000858481518110612fcd57612fcd61440d565b60200260200101516001600160a01b03166001600160a01b0316815260200190815260200160002081905550808061300490614638565b915050612f84565b600080600061301b858561347e565b915091506128a9816134ee565b6001600160a01b038316600090815260d3602052604090205480156130a757600061305282610966565b905080606001516130a55760405162461bcd60e51b815260206004820152601f60248201527f50726576696f7573206f7065726174696f6e206e6f742066696e697368656400604482015260640161083b565b505b60d26040518060800160405280866001600160a01b031681526020018560028111156130d5576130d56139c8565b8152602080820186905260006040909201829052835460018101855593825290819020825160039094020180546001600160a01b039094166001600160a01b031985168117825591830151929390929183916001600160a81b03191617600160a01b836002811115613149576131496139c8565b0217905550604082015160018201556060909101516002909101805460ff191691151591909117905560d2546001600160a01b03909416600090815260d36020526040902093909355505050565b609780546001600160a01b038381166001600160a01b0319831681179093556040519116919082907f8be0079c531659141344cd1fd0a4f28419497f9722a3daafe3b4186f6b6457e090600090a35050565b815160ca5460609190806001600160401b0381111561320a5761320a613d13565b604051908082528060200260200182016040528015613233578160200160208202803683370190505b50925060005b8281101561336f5760008782815181106132555761325561440d565b6020026020010151905060008783815181106132735761327361440d565b602090810291909101810151600084815260cc835260408082206001600160a01b038416835290935291909120549091508085116132b35750505061335d565b80158015613314575060c96000815481106132d0576132d061440d565b906000526020600020015483141580613314575060ca6000815481106132f8576132f861440d565b6000918252602090912001546001600160a01b03838116911614155b156133215750505061335d565b8784815181106133335761333361440d565b602002602001015187828151811061334d5761334d61440d565b6020026020010181815250505050505b8061336781614638565b915050613239565b5050509392505050565b60008054600160a81b900460ff16156133c2578160ff16600114801561339e5750303b155b6133ba5760405162461bcd60e51b815260040161083b906149c5565b506000919050565b60005460ff808416600160a01b90920416106133f05760405162461bcd60e51b815260040161083b906149c5565b506000805460ff909216600160a01b0260ff60a01b19909216919091179055600190565b919050565b600054600160a81b900460ff166134425760405162461bcd60e51b815260040161083b90614a13565b6116c16136a9565b60006018361080159061346757506000546001600160a01b031633145b15613479575060131936013560601c90565b503390565b6000808251604114156134b55760208301516040840151606085015160001a6134a9878285856136e2565b945094505050506134e7565b8251604014156134df57602083015160408401516134d48683836137cf565b9350935050506134e7565b506000905060025b9250929050565b6000816004811115613502576135026139c8565b141561350b5750565b600181600481111561351f5761351f6139c8565b141561356d5760405162461bcd60e51b815260206004820152601860248201527f45434453413a20696e76616c6964207369676e61747572650000000000000000604482015260640161083b565b6002816004811115613581576135816139c8565b14156135cf5760405162461bcd60e51b815260206004820152601f60248201527f45434453413a20696e76616c6964207369676e6174757265206c656e67746800604482015260640161083b565b60038160048111156135e3576135e36139c8565b141561363c5760405162461bcd60e51b815260206004820152602260248201527f45434453413a20696e76616c6964207369676e6174757265202773272076616c604482015261756560f01b606482015260840161083b565b6004816004811115613650576136506139c8565b1415612a445760405162461bcd60e51b815260206004820152602260248201527f45434453413a20696e76616c6964207369676e6174757265202776272076616c604482015261756560f01b606482015260840161083b565b600054600160a81b900460ff166136d25760405162461bcd60e51b815260040161083b90614a13565b6116c16136dd612d96565b613197565b6000807f7fffffffffffffffffffffffffffffff5d576e7357a4501ddfe92f46681b20a083111561371957506000905060036137c6565b8460ff16601b1415801561373157508460ff16601c14155b1561374257506000905060046137c6565b6040805160008082526020820180845289905260ff881692820192909252606081018690526080810185905260019060a0016020604051602081039080840390855afa158015613796573d6000803e3d6000fd5b5050604051601f1901519150506001600160a01b0381166137bf576000600192509250506137c6565b9150600090505b94509492505050565b6000806001600160ff1b038316816137ec60ff86901c601b6147a0565b90506137fa878288856136e2565b935093505050935093915050565b828054828255906000526020600020908101928215613855579160200282015b828111156138555782518051613845918491602090910190613865565b5091602001919060010190613828565b506138619291506138e5565b5090565b8280546138719061424b565b90600052602060002090601f01602090048101928261389357600085556138d9565b82601f106138ac57805160ff19168380011785556138d9565b828001600101855582156138d9579182015b828111156138d95782518255916020019190600101906138be565b50613861929150613902565b808211156138615760006138f98282613917565b506001016138e5565b5b808211156138615760008155600101613903565b5080546139239061424b565b6000825580601f10613933575050565b601f016020900490600052602060002090810190612a449190613902565b60006020828403121561396357600080fd5b5035919050565b80356001600160a01b038116811461341457600080fd5b60006020828403121561399357600080fd5b61201d8261396a565b600080604083850312156139af57600080fd5b823591506139bf6020840161396a565b90509250929050565b634e487b7160e01b600052602160045260246000fd5b600381106139fc57634e487b7160e01b600052602160045260246000fd5b9052565b81516001600160a01b031681526020808301516080830191613a24908401826139de565b506040830151604083015260608301511515606083015292915050565b60008083601f840112613a5357600080fd5b5081356001600160401b03811115613a6a57600080fd5b6020830191508360208285010111156134e757600080fd5b60008060008060408587031215613a9857600080fd5b84356001600160401b0380821115613aaf57600080fd5b613abb88838901613a41565b90965094506020870135915080821115613ad457600080fd5b50613ae187828801613a41565b95989497509550505050565b600081518084526020808501945080840160005b83811015613b1d57815187529582019590820190600101613b01565b509495945050505050565b600081518084526020808501945080840160005b83811015613b1d5781516001600160a01b031687529582019590820190600101613b3c565b608081526000613b746080830187613aed565b8281036020840152613b868187613b28565b90508281036040840152613b9a8186613aed565b90508281036060840152613bae8185613aed565b979650505050505050565b6000815180845260005b81811015613bdf57602081850181015186830182015201613bc3565b81811115613bf1576000602083870101525b50601f01601f19169290920160200192915050565b60208152600061201d6020830184613bb9565b606081526000613c2c6060830186613aed565b8281036020840152613c3e8186613b28565b905082810360408401526128568185613aed565b60e081526000613c6560e083018a613aed565b8281036020840152613c77818a613b28565b90508281036040840152613c8b8189613aed565b90508281036060840152613c9f8188613aed565b90508281036080840152613cb38187613aed565b905082810360a0840152613cc78186613aed565b905082810360c0840152613cdb8185613aed565b9a9950505050505050505050565b60008060408385031215613cfc57600080fd5b613d058361396a565b946020939093013593505050565b634e487b7160e01b600052604160045260246000fd5b604051601f8201601f191681016001600160401b0381118282101715613d5157613d51613d13565b604052919050565b60006001600160401b03821115613d7257613d72613d13565b5060051b60200190565b60006001600160401b03831115613d9557613d95613d13565b613da8601f8401601f1916602001613d29565b9050828152838383011115613dbc57600080fd5b828260208301376000602084830101529392505050565b60006020808385031215613de657600080fd5b82356001600160401b0380821115613dfd57600080fd5b818501915085601f830112613e1157600080fd5b8135613e24613e1f82613d59565b613d29565b81815260059190911b83018401908481019088831115613e4357600080fd5b8585015b83811015613e9057803585811115613e5f5760008081fd5b8601603f81018b13613e715760008081fd5b613e828b8983013560408401613d7c565b845250918601918601613e47565b5098975050505050505050565b60008060208385031215613eb057600080fd5b82356001600160401b0380821115613ec757600080fd5b818501915085601f830112613edb57600080fd5b813581811115613eea57600080fd5b8660208260051b8501011115613eff57600080fd5b60209290920196919550909350505050565b600082601f830112613f2257600080fd5b81356020613f32613e1f83613d59565b82815260059290921b84018101918181019086841115613f5157600080fd5b8286015b84811015613f6c5780358352918301918301613f55565b509695505050505050565b600060208284031215613f8957600080fd5b81356001600160401b03811115613f9f57600080fd5b613fab84828501613f11565b949350505050565b6001600160a01b038516815260808101613fd060208301866139de565b836040830152821515606083015295945050505050565b600082601f830112613ff857600080fd5b81356020614008613e1f83613d59565b82815260059290921b8401810191818101908684111561402757600080fd5b8286015b84811015613f6c5761403c8161396a565b835291830191830161402b565b60008060006060848603121561405e57600080fd5b83356001600160401b038082111561407557600080fd5b61408187838801613f11565b9450602086013591508082111561409757600080fd5b6140a387838801613fe7565b935060408601359150808211156140b957600080fd5b506140c686828701613f11565b9150509250925092565b600080600080608085870312156140e657600080fd5b84356001600160401b03808211156140fd57600080fd5b61410988838901613f11565b9550602087013591508082111561411f57600080fd5b61412b88838901613fe7565b9450604087013591508082111561414157600080fd5b5061414e87828801613f11565b949793965093946060013593505050565b6000806040838503121561417257600080fd5b82356001600160401b038082111561418957600080fd5b61419586838701613f11565b935060208501359150808211156141ab57600080fd5b506141b885828601613f11565b9150509250929050565b600080600080608085870312156141d857600080fd5b6141e18561396a565b93506141ef6020860161396a565b92506141fd6040860161396a565b915061420b6060860161396a565b905092959194509250565b6020808252818101527f4f776e61626c653a2063616c6c6572206973206e6f7420746865206f776e6572604082015260600190565b600181811c9082168061425f57607f821691505b6020821081141561428057634e487b7160e01b600052602260045260246000fd5b50919050565b600060a0820160018060a01b0388168352602060a08185015281885480845260c08601915060c08160051b870101935060008a8152838120815b838110156143775788870360bf1901855281548390600181811c90808316806142ea57607f831692505b8a831081141561430857634e487b7160e01b88526022600452602488fd5b828c5260208c0181801561432357600181146143345761435e565b60ff19861682528c8201965061435e565b6000898152602090208a5b8681101561435857815484820152908501908e0161433f565b83019750505b50949b50509789019794909401935050506001016142c0565b505050505050828103604084015261438f8187613bb9565b6001600160e01b0319861660608501529050828103608084015261208a8185613bb9565b60208082526013908201527227b7363c9037bbb732b91037b91030b236b4b760691b604082015260600190565b634e487b7160e01b600052601160045260246000fd5b600082821015614408576144086143e0565b500390565b634e487b7160e01b600052603260045260246000fd5b634e487b7160e01b600052603160045260246000fd5b600082601f83011261444a57600080fd5b61201d83833560208501613d7c565b6000806000806080858703121561446f57600080fd5b84356001600160401b038082111561448657600080fd5b61449288838901613f11565b955060208701359150808211156144a857600080fd5b6144b488838901613fe7565b945060408701359150808211156144ca57600080fd5b6144d688838901613f11565b935060608701359150808211156144ec57600080fd5b506144f987828801614439565b91505092959194509250565b80516000906020808401838315613b1d57815187529582019590820190600101613b01565b80516000906020808401838315613b1d5781516001600160a01b031687529582019590820190600101613b3c565b600061457661457061456a8488614505565b8661452a565b84614505565b95945050505050565b60208082526013908201527214da59db995c881a5cc81a5b98dbdc9c9958dd606a1b604082015260600190565b6000806000606084860312156145c157600080fd5b83356001600160401b03808211156145d857600080fd5b6145e487838801613f11565b945060208601359150808211156145fa57600080fd5b61460687838801613f11565b9350604086013591508082111561461c57600080fd5b506140c686828701614439565b6000613fab6145708386614505565b600060001982141561464c5761464c6143e0565b5060010190565b60006020828403121561466557600080fd5b5051919050565b600181815b808511156146a757816000190482111561468d5761468d6143e0565b8085161561469a57918102915b93841c9390800290614671565b509250929050565b6000826146be57506001612020565b816146cb57506000612020565b81600181146146e157600281146146eb57614707565b6001915050612020565b60ff8411156146fc576146fc6143e0565b50506001821b612020565b5060208310610133831016604e8410600b841016171561472a575081810a612020565b614734838361466c565b8060001904821115614748576147486143e0565b029392505050565b600061201d60ff8416836146af565b6000816000190483118215151615614779576147796143e0565b500290565b60008261479b57634e487b7160e01b600052601260045260246000fd5b500490565b600082198211156147b3576147b36143e0565b500190565b600080600080600080600080610100898b0312156147d557600080fd5b88356001600160401b03808211156147ec57600080fd5b6147f88c838d01613f11565b995060208b013591508082111561480e57600080fd5b61481a8c838d01613fe7565b985060408b013591508082111561483057600080fd5b61483c8c838d01613f11565b975060608b013591508082111561485257600080fd5b61485e8c838d01613f11565b965060808b013591508082111561487457600080fd5b6148808c838d01613f11565b955060a08b013591508082111561489657600080fd5b6148a28c838d01613f11565b945060c08b01359150808211156148b857600080fd5b6148c48c838d01613f11565b935060e08b01359150808211156148da57600080fd5b506148e78b828c01614439565b9150509295985092959890939650565b600061208a61457061492461491e614918614912878e614505565b8c61452a565b8a614505565b88614505565b86614505565b600061201d8284614505565b6000806040838503121561494957600080fd5b82356001600160401b038082111561496057600080fd5b61496c86838701613f11565b9350602085013591508082111561498257600080fd5b506141b885828601614439565b600080604083850312156149a257600080fd5b82519150602083015160ff811681146149ba57600080fd5b809150509250929050565b6020808252602e908201527f496e697469616c697a61626c653a20636f6e747261637420697320616c72656160408201526d191e481a5b9a5d1a585b1a5e995960921b606082015260800190565b6020808252602b908201527f496e697469616c697a61626c653a20636f6e7472616374206973206e6f74206960408201526a6e697469616c697a696e6760a81b60608201526080019056fea26469706673582212205b36bf28f6ca4f6e3c5501beefc51af0db44c7d3ffcc6ed9477a2b0399499fb464736f6c63430008090033",
  "devdoc": {
    "kind": "dev",
    "methods": {
      "burnByAdmin(address,uint256)": {
        "details": "mint STIs according to the deposited USDT",
        "params": {
          "_account": "account to which STIs will be minted",
          "_share": "amount of STI to be burnt"
        }
      },
      "getDepositTokenComposition(uint256[],address[],uint256[],uint256)": {
        "params": {
          "_USDTAmt": "amount of USDT with 6 decimals"
        },
        "returns": {
          "_0": "_USDTAmts amount of USDT should be deposited to each pools"
        }
      },
      "getPoolsUnbonded1(address)": {
        "returns": {
          "_0": "_chainIDs is an array of chain IDs.",
          "_1": "_tokens is an array of tokens.",
          "_2": "_waitings is an array of token amounts that is not unbonded.",
          "_3": "_waitingInUSDs is an array of USD value of token amounts that is not unbonded.",
          "_4": "_unbondeds is an array of token amounts that is unbonded.",
          "_5": "_unbondedInUSDs is an array USD value of token amounts that is unbonded.",
          "_6": "_waitForTses is an array of timestamps to wait to the next claim."
        }
      },
      "getUSDTPriceInUSD()": {
        "returns": {
          "_0": "the price of USDT in USD."
        }
      },
      "getWithdrawPerc(address,uint256)": {
        "params": {
          "_share": "amount of STI to be withdrawn"
        },
        "returns": {
          "_sharePerc": "percentage of assets which should be withdrawn. It's 18 decimals"
        }
      },
      "initDeposit(address,uint256)": {
        "params": {
          "_USDTAmt": "USDT with 6 decimals to be deposited",
          "_account": "account to which BNIs will be minted"
        }
      },
      "mintByAdmin(uint256,address)": {
        "details": "mint STIs according to the deposited USDT",
        "params": {
          "_account": "account to which STIs will be minted",
          "_pool": "total USD worth in all pools of STI after deposited"
        }
      },
      "owner()": {
        "details": "Returns the address of the current owner."
      },
      "paused()": {
        "details": "Returns true if the contract is paused, and false otherwise."
      },
      "renounceOwnership()": {
        "details": "Leaves the contract without owner. It will not be possible to call `onlyOwner` functions anymore. Can only be called by the current owner. NOTE: Renouncing ownership will leave the contract without an owner, thereby removing any functionality that is only available to the owner."
      },
      "transferOwnership(address)": {
        "details": "Transfers ownership of the contract to a new account (`newOwner`). Can only be called by the current owner."
      }
    },
    "version": 1
  },
  "userdoc": {
    "kind": "user",
    "methods": {
      "addToken(uint256,address)": {
        "notice": "After this method called, setTokenCompositionTargetPerc should be called to adjust percentages."
      },
      "getAPR(uint256[],uint256[])": {
        "notice": "The length of array is based on network count. And the lengths should be same on the arraies."
      },
      "getAllPoolInUSD(uint256[])": {
        "notice": "The length of array is based on network count. And the lengths should be same on the arraies."
      },
      "getCurrentTokenCompositionPerc(uint256[],address[],uint256[])": {
        "notice": "The length of array is based on token count. And the lengths should be same on the arraies."
      },
      "getDepositTokenComposition(uint256[],address[],uint256[],uint256)": {
        "notice": "The length of array is based on token count. And the lengths should be same on the arraies."
      },
      "getPricePerFullShare(uint256[])": {
        "notice": "Can be used for calculate both user shares & APR"
      },
      "isTrustedForwarder(address)": {
        "notice": "return if the forwarder is trusted to forward relayed transactions to us. the forwarder is required to verify the sender's signature, and verify the call is not a replay."
      },
      "removeToken(uint256)": {
        "notice": "After this method called, setTokenCompositionTargetPerc should be called to adjust percentages."
      },
      "setTokenCompositionTargetPerc(uint256[])": {
        "notice": "The length of array is based on token count."
      }
    },
    "version": 1
  },
  "storageLayout": {
    "storage": [
      {
        "astId": 51472,
        "contract": "contracts/sti/STIMinterTest.sol:STIMinterTest",
        "label": "trustedForwarder",
        "offset": 0,
        "slot": "0",
        "type": "t_address"
      },
      {
        "astId": 130,
        "contract": "contracts/sti/STIMinterTest.sol:STIMinterTest",
        "label": "_initialized",
        "offset": 20,
        "slot": "0",
        "type": "t_uint8"
      },
      {
        "astId": 133,
        "contract": "contracts/sti/STIMinterTest.sol:STIMinterTest",
        "label": "_initializing",
        "offset": 21,
        "slot": "0",
        "type": "t_bool"
      },
      {
        "astId": 390,
        "contract": "contracts/sti/STIMinterTest.sol:STIMinterTest",
        "label": "_status",
        "offset": 0,
        "slot": "1",
        "type": "t_uint256"
      },
      {
        "astId": 434,
        "contract": "contracts/sti/STIMinterTest.sol:STIMinterTest",
        "label": "__gap",
        "offset": 0,
        "slot": "2",
        "type": "t_array(t_uint256)49_storage"
      },
      {
        "astId": 2709,
        "contract": "contracts/sti/STIMinterTest.sol:STIMinterTest",
        "label": "__gap",
        "offset": 0,
        "slot": "51",
        "type": "t_array(t_uint256)50_storage"
      },
      {
        "astId": 286,
        "contract": "contracts/sti/STIMinterTest.sol:STIMinterTest",
        "label": "_paused",
        "offset": 0,
        "slot": "101",
        "type": "t_bool"
      },
      {
        "astId": 375,
        "contract": "contracts/sti/STIMinterTest.sol:STIMinterTest",
        "label": "__gap",
        "offset": 0,
        "slot": "102",
        "type": "t_array(t_uint256)49_storage"
      },
      {
        "astId": 10,
        "contract": "contracts/sti/STIMinterTest.sol:STIMinterTest",
        "label": "_owner",
        "offset": 0,
        "slot": "151",
        "type": "t_address"
      },
      {
        "astId": 122,
        "contract": "contracts/sti/STIMinterTest.sol:STIMinterTest",
        "label": "__gap",
        "offset": 0,
        "slot": "152",
        "type": "t_array(t_uint256)49_storage"
      },
      {
        "astId": 40533,
        "contract": "contracts/sti/STIMinterTest.sol:STIMinterTest",
        "label": "chainIDs",
        "offset": 0,
        "slot": "201",
        "type": "t_array(t_uint256)dyn_storage"
      },
      {
        "astId": 40536,
        "contract": "contracts/sti/STIMinterTest.sol:STIMinterTest",
        "label": "tokens",
        "offset": 0,
        "slot": "202",
        "type": "t_array(t_address)dyn_storage"
      },
      {
        "astId": 40539,
        "contract": "contracts/sti/STIMinterTest.sol:STIMinterTest",
        "label": "targetPercentages",
        "offset": 0,
        "slot": "203",
        "type": "t_array(t_uint256)dyn_storage"
      },
      {
        "astId": 40545,
        "contract": "contracts/sti/STIMinterTest.sol:STIMinterTest",
        "label": "tid",
        "offset": 0,
        "slot": "204",
        "type": "t_mapping(t_uint256,t_mapping(t_address,t_uint256))"
      },
      {
        "astId": 40547,
        "contract": "contracts/sti/STIMinterTest.sol:STIMinterTest",
        "label": "admin",
        "offset": 0,
        "slot": "205",
        "type": "t_address"
      },
      {
        "astId": 40550,
        "contract": "contracts/sti/STIMinterTest.sol:STIMinterTest",
        "label": "STI",
        "offset": 0,
        "slot": "206",
        "type": "t_contract(ISTI)40387"
      },
      {
        "astId": 40553,
        "contract": "contracts/sti/STIMinterTest.sol:STIMinterTest",
        "label": "priceOracle",
        "offset": 0,
        "slot": "207",
        "type": "t_contract(IPriceOracle)8979"
      },
      {
        "astId": 40556,
        "contract": "contracts/sti/STIMinterTest.sol:STIMinterTest",
        "label": "urls",
        "offset": 0,
        "slot": "208",
        "type": "t_array(t_string_storage)dyn_storage"
      },
      {
        "astId": 40558,
        "contract": "contracts/sti/STIMinterTest.sol:STIMinterTest",
        "label": "gatewaySigner",
        "offset": 0,
        "slot": "209",
        "type": "t_address"
      },
      {
        "astId": 40562,
        "contract": "contracts/sti/STIMinterTest.sol:STIMinterTest",
        "label": "operations",
        "offset": 0,
        "slot": "210",
        "type": "t_array(t_struct(Operation)40530_storage)dyn_storage"
      },
      {
        "astId": 40566,
        "contract": "contracts/sti/STIMinterTest.sol:STIMinterTest",
        "label": "userLastOperationNonce",
        "offset": 0,
        "slot": "211",
        "type": "t_mapping(t_address,t_uint256)"
      }
    ],
    "types": {
      "t_address": {
        "encoding": "inplace",
        "label": "address",
        "numberOfBytes": "20"
      },
      "t_array(t_address)dyn_storage": {
        "base": "t_address",
        "encoding": "dynamic_array",
        "label": "address[]",
        "numberOfBytes": "32"
      },
      "t_array(t_string_storage)dyn_storage": {
        "base": "t_string_storage",
        "encoding": "dynamic_array",
        "label": "string[]",
        "numberOfBytes": "32"
      },
      "t_array(t_struct(Operation)40530_storage)dyn_storage": {
        "base": "t_struct(Operation)40530_storage",
        "encoding": "dynamic_array",
        "label": "struct STIMinter.Operation[]",
        "numberOfBytes": "32"
      },
      "t_array(t_uint256)49_storage": {
        "base": "t_uint256",
        "encoding": "inplace",
        "label": "uint256[49]",
        "numberOfBytes": "1568"
      },
      "t_array(t_uint256)50_storage": {
        "base": "t_uint256",
        "encoding": "inplace",
        "label": "uint256[50]",
        "numberOfBytes": "1600"
      },
      "t_array(t_uint256)dyn_storage": {
        "base": "t_uint256",
        "encoding": "dynamic_array",
        "label": "uint256[]",
        "numberOfBytes": "32"
      },
      "t_bool": {
        "encoding": "inplace",
        "label": "bool",
        "numberOfBytes": "1"
      },
      "t_contract(IPriceOracle)8979": {
        "encoding": "inplace",
        "label": "contract IPriceOracle",
        "numberOfBytes": "20"
      },
      "t_contract(ISTI)40387": {
        "encoding": "inplace",
        "label": "contract ISTI",
        "numberOfBytes": "20"
      },
      "t_enum(OperationType)40520": {
        "encoding": "inplace",
        "label": "enum STIMinter.OperationType",
        "numberOfBytes": "1"
      },
      "t_mapping(t_address,t_uint256)": {
        "encoding": "mapping",
        "key": "t_address",
        "label": "mapping(address => uint256)",
        "numberOfBytes": "32",
        "value": "t_uint256"
      },
      "t_mapping(t_uint256,t_mapping(t_address,t_uint256))": {
        "encoding": "mapping",
        "key": "t_uint256",
        "label": "mapping(uint256 => mapping(address => uint256))",
        "numberOfBytes": "32",
        "value": "t_mapping(t_address,t_uint256)"
      },
      "t_string_storage": {
        "encoding": "bytes",
        "label": "string",
        "numberOfBytes": "32"
      },
      "t_struct(Operation)40530_storage": {
        "encoding": "inplace",
        "label": "struct STIMinter.Operation",
        "members": [
          {
            "astId": 40522,
            "contract": "contracts/sti/STIMinterTest.sol:STIMinterTest",
            "label": "account",
            "offset": 0,
            "slot": "0",
            "type": "t_address"
          },
          {
            "astId": 40525,
            "contract": "contracts/sti/STIMinterTest.sol:STIMinterTest",
            "label": "operation",
            "offset": 20,
            "slot": "0",
            "type": "t_enum(OperationType)40520"
          },
          {
            "astId": 40527,
            "contract": "contracts/sti/STIMinterTest.sol:STIMinterTest",
            "label": "amount",
            "offset": 0,
            "slot": "1",
            "type": "t_uint256"
          },
          {
            "astId": 40529,
            "contract": "contracts/sti/STIMinterTest.sol:STIMinterTest",
            "label": "done",
            "offset": 0,
            "slot": "2",
            "type": "t_bool"
          }
        ],
        "numberOfBytes": "96"
      },
      "t_uint256": {
        "encoding": "inplace",
        "label": "uint256",
        "numberOfBytes": "32"
      },
      "t_uint8": {
        "encoding": "inplace",
        "label": "uint8",
        "numberOfBytes": "1"
      }
    }
  }
}