{
  "address": "0x57D939f5cA1a1113451c6F0f76fE8a38ba5C90Eb",
  "abi": [
    {
      "inputs": [
        {
          "internalType": "address",
          "name": "sender",
          "type": "address"
        },
        {
          "internalType": "string[]",
          "name": "urls",
          "type": "string[]"
        },
        {
          "internalType": "bytes",
          "name": "callData",
          "type": "bytes"
        },
        {
          "internalType": "bytes4",
          "name": "callbackFunction",
          "type": "bytes4"
        },
        {
          "internalType": "bytes",
          "name": "extraData",
          "type": "bytes"
        }
      ],
      "name": "OffchainLookup",
      "type": "error"
    },
    {
      "anonymous": false,
      "inputs": [
        {
          "indexed": false,
          "internalType": "uint256",
          "name": "chainID",
          "type": "uint256"
        },
        {
          "indexed": false,
          "internalType": "address",
          "name": "token",
          "type": "address"
        },
        {
          "indexed": false,
          "internalType": "uint256",
          "name": "tid",
          "type": "uint256"
        }
      ],
      "name": "AddToken",
      "type": "event"
    },
    {
      "anonymous": false,
      "inputs": [
        {
          "indexed": false,
          "internalType": "address",
          "name": "caller",
          "type": "address"
        },
        {
          "indexed": false,
          "internalType": "uint256",
          "name": "shareBurned",
          "type": "uint256"
        }
      ],
      "name": "Burn",
      "type": "event"
    },
    {
      "anonymous": false,
      "inputs": [
        {
          "indexed": false,
          "internalType": "uint8",
          "name": "version",
          "type": "uint8"
        }
      ],
      "name": "Initialized",
      "type": "event"
    },
    {
      "anonymous": false,
      "inputs": [
        {
          "indexed": false,
          "internalType": "address",
          "name": "caller",
          "type": "address"
        },
        {
          "indexed": false,
          "internalType": "uint256",
          "name": "amtDeposit",
          "type": "uint256"
        },
        {
          "indexed": false,
          "internalType": "uint256",
          "name": "shareMinted",
          "type": "uint256"
        }
      ],
      "name": "Mint",
      "type": "event"
    },
    {
      "anonymous": false,
      "inputs": [
        {
          "indexed": true,
          "internalType": "address",
          "name": "previousOwner",
          "type": "address"
        },
        {
          "indexed": true,
          "internalType": "address",
          "name": "newOwner",
          "type": "address"
        }
      ],
      "name": "OwnershipTransferred",
      "type": "event"
    },
    {
      "anonymous": false,
      "inputs": [
        {
          "indexed": false,
          "internalType": "address",
          "name": "account",
          "type": "address"
        }
      ],
      "name": "Paused",
      "type": "event"
    },
    {
      "anonymous": false,
      "inputs": [
        {
          "indexed": false,
          "internalType": "uint256",
          "name": "chainID",
          "type": "uint256"
        },
        {
          "indexed": false,
          "internalType": "address",
          "name": "token",
          "type": "address"
        },
        {
          "indexed": false,
          "internalType": "uint256",
          "name": "targetPerc",
          "type": "uint256"
        },
        {
          "indexed": false,
          "internalType": "uint256",
          "name": "tid",
          "type": "uint256"
        }
      ],
      "name": "RemoveToken",
      "type": "event"
    },
    {
      "anonymous": false,
      "inputs": [
        {
          "indexed": false,
          "internalType": "address",
          "name": "oldAdmin",
          "type": "address"
        },
        {
          "indexed": false,
          "internalType": "address",
          "name": "newAdmin",
          "type": "address"
        }
      ],
      "name": "SetAdminWallet",
      "type": "event"
    },
    {
      "anonymous": false,
      "inputs": [
        {
          "indexed": false,
          "internalType": "address",
          "name": "oldBiconomy",
          "type": "address"
        },
        {
          "indexed": false,
          "internalType": "address",
          "name": "newBiconomy",
          "type": "address"
        }
      ],
      "name": "SetBiconomy",
      "type": "event"
    },
    {
      "anonymous": false,
      "inputs": [
        {
          "indexed": false,
          "internalType": "address",
          "name": "account",
          "type": "address"
        }
      ],
      "name": "Unpaused",
      "type": "event"
    },
    {
      "inputs": [],
      "name": "STI",
      "outputs": [
        {
          "internalType": "contract ISTI",
          "name": "",
          "type": "address"
        }
      ],
      "stateMutability": "view",
      "type": "function"
    },
    {
      "inputs": [
        {
          "internalType": "uint256",
          "name": "_chainID",
          "type": "uint256"
        },
        {
          "internalType": "address",
          "name": "_token",
          "type": "address"
        }
      ],
      "name": "addToken",
      "outputs": [],
      "stateMutability": "nonpayable",
      "type": "function"
    },
    {
      "inputs": [],
      "name": "admin",
      "outputs": [
        {
          "internalType": "address",
          "name": "",
          "type": "address"
        }
      ],
      "stateMutability": "view",
      "type": "function"
    },
    {
      "inputs": [
        {
          "internalType": "address",
          "name": "_account",
          "type": "address"
        },
        {
          "internalType": "uint256",
          "name": "_share",
          "type": "uint256"
        }
      ],
      "name": "burnByAdmin",
      "outputs": [],
      "stateMutability": "nonpayable",
      "type": "function"
    },
    {
      "inputs": [
        {
          "internalType": "uint256",
          "name": "",
          "type": "uint256"
        }
      ],
      "name": "chainIDs",
      "outputs": [
        {
          "internalType": "uint256",
          "name": "",
          "type": "uint256"
        }
      ],
      "stateMutability": "view",
      "type": "function"
    },
    {
      "inputs": [
        {
          "internalType": "address",
          "name": "_account",
          "type": "address"
        }
      ],
      "name": "exitWithdrawal",
      "outputs": [],
      "stateMutability": "nonpayable",
      "type": "function"
    },
    {
      "inputs": [],
      "name": "gatewaySigner",
      "outputs": [
        {
          "internalType": "address",
          "name": "",
          "type": "address"
        }
      ],
      "stateMutability": "view",
      "type": "function"
    },
    {
      "inputs": [
        {
          "internalType": "uint256[]",
          "name": "_allPoolInUSDs",
          "type": "uint256[]"
        },
        {
          "internalType": "uint256[]",
          "name": "_APRs",
          "type": "uint256[]"
        }
      ],
      "name": "getAPR",
      "outputs": [
        {
          "internalType": "uint256",
          "name": "",
          "type": "uint256"
        }
      ],
      "stateMutability": "pure",
      "type": "function"
    },
    {
      "inputs": [],
      "name": "getAPR1",
      "outputs": [
        {
          "internalType": "uint256",
          "name": "",
          "type": "uint256"
        }
      ],
      "stateMutability": "view",
      "type": "function"
    },
    {
      "inputs": [
        {
          "internalType": "bytes",
          "name": "result",
          "type": "bytes"
        },
        {
          "internalType": "bytes",
          "name": "extraData",
          "type": "bytes"
        }
      ],
      "name": "getAPR1WithSig",
      "outputs": [
        {
          "internalType": "uint256",
          "name": "",
          "type": "uint256"
        }
      ],
      "stateMutability": "view",
      "type": "function"
    },
    {
      "inputs": [
        {
          "internalType": "uint256[]",
          "name": "_allPoolInUSDs",
          "type": "uint256[]"
        }
      ],
      "name": "getAllPoolInUSD",
      "outputs": [
        {
          "internalType": "uint256",
          "name": "",
          "type": "uint256"
        }
      ],
      "stateMutability": "pure",
      "type": "function"
    },
    {
      "inputs": [],
      "name": "getAllPoolInUSD1",
      "outputs": [
        {
          "internalType": "uint256",
          "name": "",
          "type": "uint256"
        }
      ],
      "stateMutability": "view",
      "type": "function"
    },
    {
      "inputs": [
        {
          "internalType": "bytes",
          "name": "result",
          "type": "bytes"
        },
        {
          "internalType": "bytes",
          "name": "extraData",
          "type": "bytes"
        }
      ],
      "name": "getAllPoolInUSD1WithSig",
      "outputs": [
        {
          "internalType": "uint256",
          "name": "",
          "type": "uint256"
        }
      ],
      "stateMutability": "view",
      "type": "function"
    },
    {
      "inputs": [
        {
          "internalType": "uint256[]",
          "name": "_chainIDs",
          "type": "uint256[]"
        },
        {
          "internalType": "address[]",
          "name": "_tokens",
          "type": "address[]"
        },
        {
          "internalType": "uint256[]",
          "name": "_poolInUSDs",
          "type": "uint256[]"
        }
      ],
      "name": "getCurrentTokenCompositionPerc",
      "outputs": [
        {
          "internalType": "uint256[]",
          "name": "",
          "type": "uint256[]"
        },
        {
          "internalType": "address[]",
          "name": "",
          "type": "address[]"
        },
        {
          "internalType": "uint256[]",
          "name": "pools",
          "type": "uint256[]"
        },
        {
          "internalType": "uint256[]",
          "name": "percentages",
          "type": "uint256[]"
        }
      ],
      "stateMutability": "view",
      "type": "function"
    },
    {
      "inputs": [],
      "name": "getCurrentTokenCompositionPerc1",
      "outputs": [
        {
          "internalType": "uint256[]",
          "name": "",
          "type": "uint256[]"
        },
        {
          "internalType": "address[]",
          "name": "",
          "type": "address[]"
        },
        {
          "internalType": "uint256[]",
          "name": "",
          "type": "uint256[]"
        },
        {
          "internalType": "uint256[]",
          "name": "",
          "type": "uint256[]"
        }
      ],
      "stateMutability": "view",
      "type": "function"
    },
    {
      "inputs": [
        {
          "internalType": "bytes",
          "name": "result",
          "type": "bytes"
        },
        {
          "internalType": "bytes",
          "name": "extraData",
          "type": "bytes"
        }
      ],
      "name": "getCurrentTokenCompositionPercWithSig",
      "outputs": [
        {
          "internalType": "uint256[]",
          "name": "",
          "type": "uint256[]"
        },
        {
          "internalType": "address[]",
          "name": "",
          "type": "address[]"
        },
        {
          "internalType": "uint256[]",
          "name": "",
          "type": "uint256[]"
        },
        {
          "internalType": "uint256[]",
          "name": "",
          "type": "uint256[]"
        }
      ],
      "stateMutability": "view",
      "type": "function"
    },
    {
      "inputs": [
        {
          "internalType": "uint256[]",
          "name": "_chainIDs",
          "type": "uint256[]"
        },
        {
          "internalType": "address[]",
          "name": "_tokens",
          "type": "address[]"
        },
        {
          "internalType": "uint256[]",
          "name": "_poolInUSDs",
          "type": "uint256[]"
        },
        {
          "internalType": "uint256",
          "name": "_USDTAmt",
          "type": "uint256"
        }
      ],
      "name": "getDepositTokenComposition",
      "outputs": [
        {
          "internalType": "uint256[]",
          "name": "",
          "type": "uint256[]"
        },
        {
          "internalType": "address[]",
          "name": "",
          "type": "address[]"
        },
        {
          "internalType": "uint256[]",
          "name": "_USDTAmts",
          "type": "uint256[]"
        }
      ],
      "stateMutability": "view",
      "type": "function"
    },
    {
      "inputs": [
        {
          "internalType": "uint256",
          "name": "_USDTAmt",
          "type": "uint256"
        }
      ],
      "name": "getDepositTokenComposition1",
      "outputs": [
        {
          "internalType": "uint256[]",
          "name": "",
          "type": "uint256[]"
        },
        {
          "internalType": "address[]",
          "name": "",
          "type": "address[]"
        },
        {
          "internalType": "uint256[]",
          "name": "",
          "type": "uint256[]"
        }
      ],
      "stateMutability": "view",
      "type": "function"
    },
    {
      "inputs": [
        {
          "internalType": "bytes",
          "name": "result",
          "type": "bytes"
        },
        {
          "internalType": "bytes",
          "name": "extraData",
          "type": "bytes"
        }
      ],
      "name": "getDepositTokenComposition1WithSig",
      "outputs": [
        {
          "internalType": "uint256[]",
          "name": "",
          "type": "uint256[]"
        },
        {
          "internalType": "address[]",
          "name": "",
          "type": "address[]"
        },
        {
          "internalType": "uint256[]",
          "name": "",
          "type": "uint256[]"
        }
      ],
      "stateMutability": "view",
      "type": "function"
    },
    {
      "inputs": [],
      "name": "getNonce",
      "outputs": [
        {
          "internalType": "uint256",
          "name": "",
          "type": "uint256"
        }
      ],
      "stateMutability": "view",
      "type": "function"
    },
    {
      "inputs": [
        {
          "internalType": "uint256",
          "name": "_nonce",
          "type": "uint256"
        }
      ],
      "name": "getOperation",
      "outputs": [
        {
          "components": [
            {
              "internalType": "address",
              "name": "account",
              "type": "address"
            },
            {
              "internalType": "enum STIMinter.OperationType",
              "name": "operation",
              "type": "uint8"
            },
            {
              "internalType": "uint256",
              "name": "amount",
              "type": "uint256"
            },
            {
              "internalType": "bool",
              "name": "done",
              "type": "bool"
            }
          ],
          "internalType": "struct STIMinter.Operation",
          "name": "",
          "type": "tuple"
        }
      ],
      "stateMutability": "view",
      "type": "function"
    },
    {
      "inputs": [
        {
          "internalType": "address",
          "name": "_account",
          "type": "address"
        }
      ],
      "name": "getPoolsUnbonded1",
      "outputs": [
        {
          "internalType": "uint256[]",
          "name": "",
          "type": "uint256[]"
        },
        {
          "internalType": "address[]",
          "name": "",
          "type": "address[]"
        },
        {
          "internalType": "uint256[]",
          "name": "",
          "type": "uint256[]"
        },
        {
          "internalType": "uint256[]",
          "name": "",
          "type": "uint256[]"
        },
        {
          "internalType": "uint256[]",
          "name": "",
          "type": "uint256[]"
        },
        {
          "internalType": "uint256[]",
          "name": "",
          "type": "uint256[]"
        },
        {
          "internalType": "uint256[]",
          "name": "",
          "type": "uint256[]"
        }
      ],
      "stateMutability": "view",
      "type": "function"
    },
    {
      "inputs": [
        {
          "internalType": "bytes",
          "name": "result",
          "type": "bytes"
        },
        {
          "internalType": "bytes",
          "name": "",
          "type": "bytes"
        }
      ],
      "name": "getPoolsUnbonded1WithSig",
      "outputs": [
        {
          "internalType": "uint256[]",
          "name": "_chainIDs",
          "type": "uint256[]"
        },
        {
          "internalType": "address[]",
          "name": "_tokens",
          "type": "address[]"
        },
        {
          "internalType": "uint256[]",
          "name": "_waitings",
          "type": "uint256[]"
        },
        {
          "internalType": "uint256[]",
          "name": "_waitingInUSDs",
          "type": "uint256[]"
        },
        {
          "internalType": "uint256[]",
          "name": "_unbondeds",
          "type": "uint256[]"
        },
        {
          "internalType": "uint256[]",
          "name": "_unbondedInUSDs",
          "type": "uint256[]"
        },
        {
          "internalType": "uint256[]",
          "name": "_waitForTses",
          "type": "uint256[]"
        }
      ],
      "stateMutability": "view",
      "type": "function"
    },
    {
      "inputs": [
        {
          "internalType": "uint256[]",
          "name": "_allPoolInUSDs",
          "type": "uint256[]"
        }
      ],
      "name": "getPricePerFullShare",
      "outputs": [
        {
          "internalType": "uint256",
          "name": "",
          "type": "uint256"
        }
      ],
      "stateMutability": "view",
      "type": "function"
    },
    {
      "inputs": [],
      "name": "getPricePerFullShare1",
      "outputs": [
        {
          "internalType": "uint256",
          "name": "",
          "type": "uint256"
        }
      ],
      "stateMutability": "view",
      "type": "function"
    },
    {
      "inputs": [
        {
          "internalType": "bytes",
          "name": "result",
          "type": "bytes"
        },
        {
          "internalType": "bytes",
          "name": "extraData",
          "type": "bytes"
        }
      ],
      "name": "getPricePerFullShare1WithSig",
      "outputs": [
        {
          "internalType": "uint256",
          "name": "",
          "type": "uint256"
        }
      ],
      "stateMutability": "view",
      "type": "function"
    },
    {
      "inputs": [],
      "name": "getUSDTPriceInUSD",
      "outputs": [
        {
          "internalType": "uint256",
          "name": "",
          "type": "uint256"
        },
        {
          "internalType": "uint8",
          "name": "",
          "type": "uint8"
        }
      ],
      "stateMutability": "view",
      "type": "function"
    },
    {
      "inputs": [
        {
          "internalType": "address",
          "name": "_account",
          "type": "address"
        },
        {
          "internalType": "uint256",
          "name": "_share",
          "type": "uint256"
        }
      ],
      "name": "getWithdrawPerc",
      "outputs": [
        {
          "internalType": "uint256",
          "name": "_sharePerc",
          "type": "uint256"
        }
      ],
      "stateMutability": "view",
      "type": "function"
    },
    {
      "inputs": [],
      "name": "getWithdrawableSharePerc1",
      "outputs": [
        {
          "internalType": "uint256",
          "name": "",
          "type": "uint256"
        }
      ],
      "stateMutability": "view",
      "type": "function"
    },
    {
      "inputs": [
        {
          "internalType": "bytes",
          "name": "result",
          "type": "bytes"
        },
        {
          "internalType": "bytes",
          "name": "extraData",
          "type": "bytes"
        }
      ],
      "name": "getWithdrawableSharePerc1WithSig",
      "outputs": [
        {
          "internalType": "uint256",
          "name": "_sharePerc",
          "type": "uint256"
        }
      ],
      "stateMutability": "view",
      "type": "function"
    },
    {
      "inputs": [
        {
          "internalType": "address",
          "name": "_account",
          "type": "address"
        },
        {
          "internalType": "uint256",
          "name": "_USDTAmt",
          "type": "uint256"
        }
      ],
      "name": "initDeposit",
      "outputs": [],
      "stateMutability": "nonpayable",
      "type": "function"
    },
    {
      "inputs": [
        {
          "internalType": "address",
          "name": "_admin",
          "type": "address"
        },
        {
          "internalType": "address",
          "name": "_biconomy",
          "type": "address"
        },
        {
          "internalType": "address",
          "name": "_STI",
          "type": "address"
        },
        {
          "internalType": "address",
          "name": "_priceOracle",
          "type": "address"
        }
      ],
      "name": "initialize",
      "outputs": [],
      "stateMutability": "nonpayable",
      "type": "function"
    },
    {
      "inputs": [
        {
          "internalType": "address",
          "name": "forwarder",
          "type": "address"
        }
      ],
      "name": "isTrustedForwarder",
      "outputs": [
        {
          "internalType": "bool",
          "name": "",
          "type": "bool"
        }
      ],
      "stateMutability": "view",
      "type": "function"
    },
    {
      "inputs": [
        {
          "internalType": "uint256",
          "name": "_pool",
          "type": "uint256"
        },
        {
          "internalType": "address",
          "name": "_account",
          "type": "address"
        }
      ],
      "name": "mintByAdmin",
      "outputs": [],
      "stateMutability": "nonpayable",
      "type": "function"
    },
    {
      "inputs": [
        {
          "internalType": "uint256",
          "name": "",
          "type": "uint256"
        }
      ],
      "name": "operations",
      "outputs": [
        {
          "internalType": "address",
          "name": "account",
          "type": "address"
        },
        {
          "internalType": "enum STIMinter.OperationType",
          "name": "operation",
          "type": "uint8"
        },
        {
          "internalType": "uint256",
          "name": "amount",
          "type": "uint256"
        },
        {
          "internalType": "bool",
          "name": "done",
          "type": "bool"
        }
      ],
      "stateMutability": "view",
      "type": "function"
    },
    {
      "inputs": [],
      "name": "owner",
      "outputs": [
        {
          "internalType": "address",
          "name": "",
          "type": "address"
        }
      ],
      "stateMutability": "view",
      "type": "function"
    },
    {
      "inputs": [],
      "name": "paused",
      "outputs": [
        {
          "internalType": "bool",
          "name": "",
          "type": "bool"
        }
      ],
      "stateMutability": "view",
      "type": "function"
    },
    {
      "inputs": [],
      "name": "priceOracle",
      "outputs": [
        {
          "internalType": "contract IPriceOracle",
          "name": "",
          "type": "address"
        }
      ],
      "stateMutability": "view",
      "type": "function"
    },
    {
      "inputs": [
        {
          "internalType": "uint256",
          "name": "_tid",
          "type": "uint256"
        }
      ],
      "name": "removeToken",
      "outputs": [],
      "stateMutability": "nonpayable",
      "type": "function"
    },
    {
      "inputs": [],
      "name": "renounceOwnership",
      "outputs": [],
      "stateMutability": "nonpayable",
      "type": "function"
    },
    {
      "inputs": [
        {
          "internalType": "address",
          "name": "_admin",
          "type": "address"
        }
      ],
      "name": "setAdmin",
      "outputs": [],
      "stateMutability": "nonpayable",
      "type": "function"
    },
    {
      "inputs": [
        {
          "internalType": "address",
          "name": "_biconomy",
          "type": "address"
        }
      ],
      "name": "setBiconomy",
      "outputs": [],
      "stateMutability": "nonpayable",
      "type": "function"
    },
    {
      "inputs": [
        {
          "internalType": "address",
          "name": "_signer",
          "type": "address"
        }
      ],
      "name": "setGatewaySigner",
      "outputs": [],
      "stateMutability": "nonpayable",
      "type": "function"
    },
    {
      "inputs": [
        {
          "internalType": "uint256[]",
          "name": "_targetPerc",
          "type": "uint256[]"
        }
      ],
      "name": "setTokenCompositionTargetPerc",
      "outputs": [],
      "stateMutability": "nonpayable",
      "type": "function"
    },
    {
      "inputs": [
        {
          "internalType": "string[]",
          "name": "_urls",
          "type": "string[]"
        }
      ],
      "name": "setUrls",
      "outputs": [],
      "stateMutability": "nonpayable",
      "type": "function"
    },
    {
      "inputs": [
        {
          "internalType": "uint256",
          "name": "",
          "type": "uint256"
        }
      ],
      "name": "targetPercentages",
      "outputs": [
        {
          "internalType": "uint256",
          "name": "",
          "type": "uint256"
        }
      ],
      "stateMutability": "view",
      "type": "function"
    },
    {
      "inputs": [
        {
          "internalType": "uint256",
          "name": "",
          "type": "uint256"
        },
        {
          "internalType": "address",
          "name": "",
          "type": "address"
        }
      ],
      "name": "tid",
      "outputs": [
        {
          "internalType": "uint256",
          "name": "",
          "type": "uint256"
        }
      ],
      "stateMutability": "view",
      "type": "function"
    },
    {
      "inputs": [
        {
          "internalType": "uint256",
          "name": "",
          "type": "uint256"
        }
      ],
      "name": "tokens",
      "outputs": [
        {
          "internalType": "address",
          "name": "",
          "type": "address"
        }
      ],
      "stateMutability": "view",
      "type": "function"
    },
    {
      "inputs": [
        {
          "internalType": "address",
          "name": "newOwner",
          "type": "address"
        }
      ],
      "name": "transferOwnership",
      "outputs": [],
      "stateMutability": "nonpayable",
      "type": "function"
    },
    {
      "inputs": [],
      "name": "trustedForwarder",
      "outputs": [
        {
          "internalType": "address",
          "name": "",
          "type": "address"
        }
      ],
      "stateMutability": "view",
      "type": "function"
    },
    {
      "inputs": [
        {
          "internalType": "uint256",
          "name": "",
          "type": "uint256"
        }
      ],
      "name": "urls",
      "outputs": [
        {
          "internalType": "string",
          "name": "",
          "type": "string"
        }
      ],
      "stateMutability": "view",
      "type": "function"
    },
    {
      "inputs": [
        {
          "internalType": "address",
          "name": "",
          "type": "address"
        }
      ],
      "name": "userLastOperationNonce",
      "outputs": [
        {
          "internalType": "uint256",
          "name": "",
          "type": "uint256"
        }
      ],
      "stateMutability": "view",
      "type": "function"
    },
    {
      "inputs": [],
      "name": "versionRecipient",
      "outputs": [
        {
          "internalType": "string",
          "name": "",
          "type": "string"
        }
      ],
      "stateMutability": "pure",
      "type": "function"
    }
  ],
  "transactionHash": "0x0ba70c5c678022f51aceb052b2e12fa307744cbe92561013380a3e24d3ab8150",
  "args": [],
  "numDeployments": 7,
  "solcInputHash": "fee212e58a442b7ae3c8a033b3783538",
  "bytecode": "0x608060405234801561001057600080fd5b506149f7806100206000396000f3fe608060405234801561001057600080fd5b50600436106103275760003560e01c8063796676be116101b8578063b47c6a2711610104578063ece90e90116100a2578063f3253c631161007c578063f3253c6314610757578063f851a4401461076a578063f8c8765e1461077d578063fd6878cc1461079057600080fd5b8063ece90e9014610729578063ef02197f14610731578063f2fde38b1461074457600080fd5b8063d087d288116100de578063d087d288146106e8578063d3b974a0146106f0578063da3bc85c14610703578063dd8aae411461071657600080fd5b8063b47c6a27146106a3578063b9bd5bb5146106c2578063cb25bb65146106d557600080fd5b80639600abf911610171578063a08ce5201161014b578063a08ce52014610652578063a7645a2014610665578063af05a74914610678578063b2e9949d1461068057600080fd5b80639600abf91461061957806397cd02e61461062c5780639f86d4dd1461063f57600080fd5b8063796676be146105a95780637da0a877146105bc5780637ed66ec6146105cf5780637fb2df42146105e25780638da5cb5b146105f55780639532a4331461060657600080fd5b80634f64b2be116102775780635796d0b0116102305780636cc895a91161020a5780636cc895a914610568578063704b6c021461057b578063715018a61461058e578063770c76dd1461059657600080fd5b80635796d0b0146105425780635ad748e41461054a5780635c975abb1461055d57600080fd5b80634f64b2be146104a95780635042f9b6146104bc5780635344cac9146104c45780635605af2c146104ea57806357016b0a146104fd578063572b6c051461051057600080fd5b8063202e3924116102e457806338a87163116102be57806338a871631461042b57806340b8e57f1461044e578063486ff0cd14610461578063494455531461048757600080fd5b8063202e3924146103cd5780632630c12f146103ed57806336c5d7241461041857600080fd5b806309d23e241461032c5780630d8b76a814610352578063193ab1021461036757806319dac5af1461036f5780631c60ffc31461038f5780631cc0f27d146103ba575b600080fd5b61033f61033a3660046138b4565b6107a3565b6040519081526020015b60405180910390f35b6103656103603660046138e4565b6107c4565b005b61033f610878565b61033f61037d3660046138e4565b60d36020526000908152604090205481565b61033f61039d3660046138ff565b60cc60209081526000928352604080842090915290825290205481565b6103656103c83660046138e4565b6108ea565b6103e06103db3660046138b4565b610938565b6040516103499190613963565b60cf54610400906001600160a01b031681565b6040516001600160a01b039091168152602001610349565b6103656104263660046138b4565b6109fb565b61043e6104393660046139e5565b610d02565b6040516103499493929190613ac4565b61033f61045c3660046139e5565b610dfc565b6040805180820190915260018152603160f81b60208201525b6040516103499190613b69565b61049a6104953660046138b4565b610e73565b60405161034993929190613b7c565b6104006104b73660046138b4565b610ec0565b61033f610eea565b6104d76104d23660046138e4565b610f35565b6040516103499796959493929190613bb5565b61033f6104f83660046139e5565b610fc5565b61036561050b3660046138ff565b6110a1565b61053261051e3660046138e4565b6000546001600160a01b0391821691161490565b6040519015158152602001610349565b61043e6112cc565b610365610558366004613c4c565b61131f565b60655460ff16610532565b610365610576366004613d36565b611541565b6103656105893660046138e4565b61159d565b610365611640565b6103656105a43660046138ff565b611695565b61047a6105b73660046138b4565b611971565b600054610400906001600160a01b031681565b61049a6105dd3660046139e5565b611a1d565b6103656105f0366004613e00565b611ab7565b6097546001600160a01b0316610400565b60ce54610400906001600160a01b031681565b6104d76106273660046139e5565b611c0b565b61033f61063a366004613eda565b611d40565b61033f61064d366004613c4c565b611e0d565b61033f6106603660046139e5565b611f89565b61033f6106733660046138b4565b611ff9565b61033f612009565b61069361068e3660046138b4565b612054565b6040516103499493929190613f16565b6106ab61209f565b6040805192835260ff909116602083015201610349565b6103656106d03660046138e4565b61213a565b61043e6106e3366004613fac565b6121a5565b60d25461033f565b61049a6106fe366004614033565b6123a3565b61033f6107113660046140c2565b6126da565b61033f610724366004613eda565b6127c3565b61033f612814565b61036561073f366004613c4c565b61285f565b6103656107523660046138e4565b6128f0565b60d154610400906001600160a01b031681565b60cd54610400906001600160a01b031681565b61036561078b366004614125565b6129aa565b61033f61079e3660046139e5565b612c95565b60c981815481106107b357600080fd5b600091825260209091200154905081565b6107cc612cf9565b6001600160a01b03166107e76097546001600160a01b031690565b6001600160a01b0316146108165760405162461bcd60e51b815260040161080d90614179565b60405180910390fd5b600080546001600160a01b038381166001600160a01b031983168117909355604080519190921680825260208201939093527f56b079178193d2a52b3949d9cd8bc5503daadffd4a704722e18b8325021a974191015b60405180910390a15050565b6040805160048152602481018252602080820180516001600160e01b0316630c9d588160e11b179052825160009181018290529092309260d09290916315816bcb60e21b91015b60408051601f1981840301815290829052630556f18360e41b825261080d95949392916004016141e9565b6097546001600160a01b031633148061090d575060cd546001600160a01b031633145b6109295760405162461bcd60e51b815260040161080d90614316565b610934816002612d08565b5050565b60408051608081018252600080825260208201819052918101829052606081019190915260d2610969600184614359565b8154811061097957610979614370565b6000918252602091829020604080516080810190915260039092020180546001600160a01b0381168352919290919083019060ff600160a01b9091041660028111156109c7576109c761392b565b60028111156109d8576109d861392b565b81526001820154602082015260029091015460ff16151560409091015292915050565b610a03612cf9565b6001600160a01b0316610a1e6097546001600160a01b031690565b6001600160a01b031614610a445760405162461bcd60e51b815260040161080d90614179565b60ca54808210610a845760405162461bcd60e51b815260206004820152600b60248201526a125b9d985b1a59081d1a5960aa1b604482015260640161080d565b600060c98381548110610a9957610a99614370565b90600052602060002001549050600060ca8481548110610abb57610abb614370565b600091825260208220015460cb80546001600160a01b0390921693509086908110610ae857610ae8614370565b9060005260206000200154905060c9600185610b049190614359565b81548110610b1457610b14614370565b906000526020600020015460c98681548110610b3257610b32614370565b60009182526020909120015560c9805480610b4f57610b4f614386565b6001900381819060005260206000200160009055905560ca600185610b749190614359565b81548110610b8457610b84614370565b60009182526020909120015460ca80546001600160a01b039092169187908110610bb057610bb0614370565b9060005260206000200160006101000a8154816001600160a01b0302191690836001600160a01b0316021790555060ca805480610bef57610bef614386565b600082815260209020810160001990810180546001600160a01b031916905501905560cb610c1e600186614359565b81548110610c2e57610c2e614370565b906000526020600020015460cb8681548110610c4c57610c4c614370565b60009182526020909120015560cb805480610c6957610c69614386565b60008281526020808220830160001990810183905590920190925584825260cc815260408083206001600160a01b0386168452909152812055610caa612e2c565b604080518481526001600160a01b0384166020820152908101829052606081018690527fd8cc1d279bf727e9ee02c4ed116f7c12f4965ace9b477482de71a7929a1871b3906080015b60405180910390a15050505050565b60608080806000808080610d188b8d018d6143bc565b93509350935093506000610da982868686604051602001610d3b939291906144bb565b60408051601f198184030181529082905280516020918201207f19457468657265756d205369676e6564204d6573736167653a0a33320000000091830191909152603c820152605c015b60405160208183030381529060405280519060200120612f6f90919063ffffffff16565b60d1549091506001600160a01b03808316911614610dd95760405162461bcd60e51b815260040161080d906144e2565b610de48585856121a5565b98509850985098505050505050945094509450949050565b6000808080610e0d8789018961450f565b9250925092506000610e2c828585604051602001610d3b92919061458c565b60d1549091506001600160a01b03808316911614610e5c5760405162461bcd60e51b815260040161080d906144e2565b610e6684846126da565b9998505050505050505050565b6040805160048152602481018252602080820180516001600160e01b0316633c1d708960e01b179052825190810184905260609283928392309260d09291633f6b376360e11b91016108bf565b60ca8181548110610ed057600080fd5b6000918252602090912001546001600160a01b0316905081565b6040805160048152602481018252602080820180516001600160e01b03166328217cdb60e11b179052825160009181018290529092309260d0929091630504672960e51b91016108bf565b60608060608060608060603060d0635344cac960e01b8a604051602401610f6b91906001600160a01b0391909116815260200190565b60408051601f19818403018152918152602080830180516001600160e01b03166001600160e01b031990951694909417909352519091639600abf960e01b916108bf918e91016001600160a01b0391909116815260200190565b6000808080610fd68789018961450f565b9250925092506000610ff5828585604051602001610d3b92919061458c565b60d1549091506001600160a01b038083169116146110255760405162461bcd60e51b815260040161080d906144e2565b8251801561104b578360008151811061104057611040614370565b602002602001015195505b60015b8181101561109357600085828151811061106a5761106a614370565b6020026020010151905080881115611080578097505b508061108b8161459b565b91505061104e565b505050505050949350505050565b6110a9612cf9565b6001600160a01b03166110c46097546001600160a01b031690565b6001600160a01b0316146110ea5760405162461bcd60e51b815260040161080d90614179565b600082815260cc602090815260408083206001600160a01b038516845290915290205480158015611139575060c960008154811061112a5761112a614370565b90600052602060002001548314155b8015611170575060ca60008154811061115457611154614370565b6000918252602090912001546001600160a01b03838116911614155b6111ac5760405162461bcd60e51b815260206004820152600d60248201526c105b1c9958591e481859191959609a1b604482015260640161080d565b60c9805460018082019092557f66be4f155c5ef2ebd3772b228f2f00681e4ed5826cdb3b1943cc11ad15ad1d280184905560ca805480830182557f42d72674974f694b5f5159593243114d38a5c39c89d6b62fee061ff523240ee10180546001600160a01b0319166001600160a01b03861617905560cb8054808401825560009182527fa7ce836d032b2bf62b7e2097a8e0a6d8aeb35405ad15271e96d3b0188a1d06fb01555461125d9190614359565b600084815260cc602090815260408083206001600160a01b038716808552908352928190208490558051878152918201929092529081018290529091507fefa15d4fefbb71d07b3cdc624ab208ebe2d3b6933946582fd8b807e8a5bc93cc9060600160405180910390a1505050565b6040805160048152602481018252602080820180516001600160e01b03166305796d0b60e41b1790528251600091810191909152606092839283928392309260d09290916338a8716360e01b91016108bf565b6097546001600160a01b0316331480611342575060cd546001600160a01b031633145b61135e5760405162461bcd60e51b815260040161080d90614316565b600260015414156113b15760405162461bcd60e51b815260206004820152601f60248201527f5265656e7472616e637947756172643a207265656e7472616e742063616c6c00604482015260640161080d565b60026001558015801590611441575060ce546040516370a0823160e01b81526001600160a01b038481166004830152909116906370a082319060240160206040518083038186803b15801561140557600080fd5b505afa158015611419573d6000803e3d6000fd5b505050506040513d601f19601f8201168201806040525081019061143d91906145b6565b8111155b6114845760405162461bcd60e51b8152602060048201526014602482015273125b9d985b1a59081cda185c9948185b5bdd5b9d60621b604482015260640161080d565b61149082600283612f8b565b60ce5460405163079cc67960e41b81526001600160a01b03848116600483015260248201849052909116906379cc679090604401600060405180830381600087803b1580156114de57600080fd5b505af11580156114f2573d6000803e3d6000fd5b5050604080516001600160a01b0386168152602081018590527fcc16f5dbb4873280815c1ee09dbd06736cffcc184412cf7a71a0fdb75d397ca5935001905060405180910390a1505060018055565b611549612cf9565b6001600160a01b03166115646097546001600160a01b031690565b6001600160a01b03161461158a5760405162461bcd60e51b815260040161080d90614179565b80516109349060d090602084019061376b565b6115a5612cf9565b6001600160a01b03166115c06097546001600160a01b031690565b6001600160a01b0316146115e65760405162461bcd60e51b815260040161080d90614179565b60cd80546001600160a01b038381166001600160a01b031983168117909355604080519190921680825260208201939093527f9f0ac88be9159761bacf6c9e7c294c397ebf594607f6b3f2f70e7e0841ea68e8910161086c565b611648612cf9565b6001600160a01b03166116636097546001600160a01b031690565b6001600160a01b0316146116895760405162461bcd60e51b815260040161080d90614179565b61169360006130fa565b565b6097546001600160a01b03163314806116b8575060cd546001600160a01b031633145b6116d45760405162461bcd60e51b815260040161080d90614316565b600260015414156117275760405162461bcd60e51b815260206004820152601f60248201527f5265656e7472616e637947756172643a207265656e7472616e742063616c6c00604482015260640161080d565b600260015560655460ff16156117725760405162461bcd60e51b815260206004820152601060248201526f14185d5cd8589b194e881c185d5cd95960821b604482015260640161080d565b600061177f826001612d08565b905060008061178c61209f565b9092509050600061179e82600a6146b3565b836117ae8664e8d4a510006146c2565b6117b891906146c2565b6117c291906146e1565b90508581106117d25760006117dc565b6117dc8187614359565b9550600060ce60009054906101000a90046001600160a01b03166001600160a01b03166318160ddd6040518163ffffffff1660e01b815260040160206040518083038186803b15801561182e57600080fd5b505afa158015611842573d6000803e3d6000fd5b505050506040513d601f19601f8201168201806040525081019061186691906145b6565b90506000871580611875575081155b611893578761188484846146c2565b61188e91906146e1565b611895565b825b90506103e86118a6826103e56146c2565b6118b091906146e1565b60ce546040516340c10f1960e01b81526001600160a01b038a81166004830152602482018490529293509116906340c10f1990604401600060405180830381600087803b15801561190057600080fd5b505af1158015611914573d6000803e3d6000fd5b5050604080516001600160a01b038b168152602081018790529081018490527f4c209b5fc8ad50758f13e2e1088ba56a560dff690a1c6fef26394f4c03821c4f9250606001905060405180910390a1505060018055505050505050565b60d0818154811061198157600080fd5b90600052602060002001600091509050805461199c906141ae565b80601f01602080910402602001604051908101604052809291908181526020018280546119c8906141ae565b8015611a155780601f106119ea57610100808354040283529160200191611a15565b820191906000526020600020905b8154815290600101906020018083116119f857829003601f168201915b505050505081565b606080806000611a2f858701876138b4565b90506000808080611a428b8d018d6143bc565b93509350935093506000611a6582868686604051602001610d3b939291906144bb565b60d1549091506001600160a01b03808316911614611a955760405162461bcd60e51b815260040161080d906144e2565b611aa1858585896123a3565b9850985098505050505050509450945094915050565b611abf612cf9565b6001600160a01b0316611ada6097546001600160a01b031690565b6001600160a01b031614611b005760405162461bcd60e51b815260040161080d90614179565b60cb5481908114611b435760405162461bcd60e51b815260206004820152600d60248201526c125b9d985b1a590818dbdd5b9d609a1b604482015260640161080d565b6000805b82811015611bbf57848482818110611b6157611b61614370565b9050602002013560cb8281548110611b7b57611b7b614370565b600091825260209091200155848482818110611b9957611b99614370565b9050602002013582611bab9190614703565b915080611bb78161459b565b915050611b47565b506127108114611c055760405162461bcd60e51b815260206004820152601160248201527024b73b30b634b2103830b930b6b2ba32b960791b604482015260640161080d565b50505050565b606080808080808080611c208b8d018d61471b565b604051979f50959d50939b509199509750955093509150600090611c52908a908a908a908a908a908a9060200161485a565b604051602081830303815290604052805190602001209050600083604051602001611c7d919061488d565b60408051808303601f19018152828252805160209182012081840186905283830181905282518085038401815260608501909352825192909101919091207f19457468657265756d205369676e6564204d6573736167653a0a3332000000006080840152609c830181905290925090600090611cfd90869060bc01610d85565b60d1549091506001600160a01b03808316911614611d2d5760405162461bcd60e51b815260040161080d906144e2565b5050505050949950949992975094509450565b60008060ce60009054906101000a90046001600160a01b03166001600160a01b03166318160ddd6040518163ffffffff1660e01b815260040160206040518083038186803b158015611d9157600080fd5b505afa158015611da5573d6000803e3d6000fd5b505050506040513d601f19601f82011682018060405250810190611dc991906145b6565b905080611de05750670de0b6b3a764000092915050565b80611dea846127c3565b611dfc90670de0b6b3a76400006146c2565b611e0691906146e1565b9392505050565b6000816000108015611e9b575060ce546040516370a0823160e01b81526001600160a01b038581166004830152909116906370a082319060240160206040518083038186803b158015611e5f57600080fd5b505afa158015611e73573d6000803e3d6000fd5b505050506040513d601f19601f82011682018060405250810190611e9791906145b6565b8211155b611ede5760405162461bcd60e51b8152602060048201526014602482015273125b9d985b1a59081cda185c9948185b5bdd5b9d60621b604482015260640161080d565b60ce60009054906101000a90046001600160a01b03166001600160a01b03166318160ddd6040518163ffffffff1660e01b815260040160206040518083038186803b158015611f2c57600080fd5b505afa158015611f40573d6000803e3d6000fd5b505050506040513d601f19601f82011682018060405250810190611f6491906145b6565b611f7683670de0b6b3a76400006146c2565b611f8091906146e1565b90505b92915050565b60008080611f9986880188614899565b915091506000611fb48284604051602001610d3b919061488d565b60d1549091506001600160a01b03808316911614611fe45760405162461bcd60e51b815260040161080d906144e2565b611fed836127c3565b98975050505050505050565b60cb81815481106107b357600080fd5b6040805160048152602481018252602080820180516001600160e01b031663af05a74960e01b179052825160009181018290529092309260d0929091633f5a1e3360e21b91016108bf565b60d2818154811061206457600080fd5b60009182526020909120600390910201805460018201546002909201546001600160a01b038216935060ff600160a01b909204821692911684565b60cf5460405163b3596f0760e01b81527321e48034753e490ff04f2f75f7caedf081b320d5600482015260009182916001600160a01b039091169063b3596f0790602401604080518083038186803b1580156120fa57600080fd5b505afa15801561210e573d6000803e3d6000fd5b505050506040513d601f19601f8201168201806040525081019061213291906148f2565b915091509091565b612142612cf9565b6001600160a01b031661215d6097546001600160a01b031690565b6001600160a01b0316146121835760405162461bcd60e51b815260040161080d90614179565b60d180546001600160a01b0319166001600160a01b0392909216919091179055565b6060806060806121b687878761314c565b80519092506000805b82811015612200578481815181106121d9576121d9614370565b6020026020010151826121ec9190614703565b9150806121f88161459b565b9150506121bf565b50816001600160401b0381111561221957612219613c76565b604051908082528060200260200182016040528015612242578160200160208202803683370190505b50925060005b828110156122db57811561228d578161271086838151811061226c5761226c614370565b602002602001015161227e91906146c2565b61228891906146e1565b6122ac565b60cb81815481106122a0576122a0614370565b90600052602060002001545b8482815181106122be576122be614370565b6020908102919091010152806122d38161459b565b915050612248565b5060c960ca85858380548060200260200160405190810160405280929190818152602001828054801561232d57602002820191906000526020600020905b815481526020019060010190808311612319575b505050505093508280548060200260200160405190810160405280929190818152602001828054801561238957602002820191906000526020600020905b81546001600160a01b0316815260019091019060200180831161236b575b505050505092509550955095509550505093509350935093565b60608060606000806123b68989896121a5565b9350935050506000815190506000806123cd61209f565b909250905060006123df82600a6146b3565b836123ef8c64e8d4a510006146c2565b6123f991906146c2565b61240391906146e1565b905060005b848110156124495786818151811061242257612422614370565b6020026020010151826124359190614703565b9150806124418161459b565b915050612408565b50600080856001600160401b0381111561246557612465613c76565b60405190808252806020026020018201604052801561248e578160200160208202803683370190505b50905060005b8681101561255f57600061271060cb83815481106124b4576124b4614370565b9060005260206000200154866124ca91906146c2565b6124d491906146e1565b9050808a83815181106124e9576124e9614370565b6020026020010151101561254c5760008a838151811061250b5761250b614370565b60200260200101518261251e9190614359565b90508084848151811061253357612533614370565b60209081029190910101526125488186614703565b9450505b50806125578161459b565b915050612494565b50856001600160401b0381111561257857612578613c76565b6040519080825280602002602001820160405280156125a1578160200160208202803683370190505b50985060005b8681101561260e57828282815181106125c2576125c2614370565b60200260200101518e6125d591906146c2565b6125df91906146e1565b8a82815181106125f1576125f1614370565b6020908102919091010152806126068161459b565b9150506125a7565b5060c960ca8a8280548060200260200160405190810160405280929190818152602001828054801561265f57602002820191906000526020600020905b81548152602001906001019080831161264b575b50505050509250818054806020026020016040519081016040528092919081815260200182805480156126bb57602002820191906000526020600020905b81546001600160a01b0316815260019091019060200180831161269d575b505050505091509a509a509a5050505050505050509450945094915050565b815181516000919081146127295760405162461bcd60e51b815260206004820152601660248201527509cdee840dac2e8c6d040c2e4e4c2f240d8cadccee8d60531b604482015260640161080d565b6000612734856127c3565b90508061274657600092505050611f83565b6000805b838110156127ae5786818151811061276457612764614370565b602002602001015186828151811061277e5761277e614370565b602002602001015161279091906146c2565b61279a9083614703565b9150806127a68161459b565b91505061274a565b506127b982826146e1565b9695505050505050565b805160009081805b8281101561280c578481815181106127e5576127e5614370565b6020026020010151826127f89190614703565b9150806128048161459b565b9150506127cb565b509392505050565b6040805160048152602481018252602080820180516001600160e01b0316630ece90e960e41b179052825160009181018290529092309260d09290916340b8e57f60e01b91016108bf565b6097546001600160a01b0316331480612882575060cd546001600160a01b031633145b61289e5760405162461bcd60e51b815260040161080d90614316565b60655460ff16156128e45760405162461bcd60e51b815260206004820152601060248201526f14185d5cd8589b194e881c185d5cd95960821b604482015260640161080d565b61093482600183612f8b565b6128f8612cf9565b6001600160a01b03166129136097546001600160a01b031690565b6001600160a01b0316146129395760405162461bcd60e51b815260040161080d90614179565b6001600160a01b03811661299e5760405162461bcd60e51b815260206004820152602660248201527f4f776e61626c653a206e6577206f776e657220697320746865207a65726f206160448201526564647265737360d01b606482015260840161080d565b6129a7816130fa565b50565b60006129b660016132dc565b905080156129d2576000805460ff60a81b1916600160a81b1790555b6129da61337c565b60cd80546001600160a01b038088166001600160a01b0319928316179092556000805487841690831617815560ce805487851690841617905560cf80549386169383169390931790925560c980546001818101835560047f66be4f155c5ef2ebd3772b228f2f00681e4ed5826cdb3b1943cc11ad15ad1d2892830181905560ca805480840182557f42d72674974f694b5f5159593243114d38a5c39c89d6b62fee061ff523240ee19081018054881673eeeeeeeeeeeeeeeeeeeeeeeeeeeeeeeeeeeeeeee9081179091558654808601885586019390935581548085018355810180548816737d1afa7b718fb893db30a3abc0cfc608aacfebb01790558554808501875560619086015581548085018355810180548816841790558554808501875561a86990860155815480850183558101805488169093179092558454808401909555634e4541539490930193909355815480820190925591018054909216734861825e75ab14553e5af711ebbe6873d369d1461790915560cb80548083018255928190526107d07fa7ce836d032b2bf62b7e2097a8e0a6d8aeb35405ad15271e96d3b0188a1d06fb9384018190558154808401835584018190558154808401835584018190558154808401835584018190558154928301909155910155612bc0612e2c565b60d0805460018101825560009190915260408051808201909152601680825275687474703a2f2f6c6f63616c686f73743a383030312f60501b6020909201918252612c2e927fe89d44c8fd6a9bac8af33ce47f56337617d449bf7ff3956b618c646de829cbcb0191906137c8565b5060d180546001600160a01b0319166001600160a01b0387161790558015612c8e576000805460ff60a81b19169055604051600181527f7f26b83ff96e1f2b6a682f133852f6798a09c465da95921460cefb384740249890602001610cf3565b5050505050565b60008080612ca586880188614899565b915091506000612cc08284604051602001610d3b919061488d565b60d1549091506001600160a01b03808316911614612cf05760405162461bcd60e51b815260040161080d906144e2565b611fed83611d40565b6000612d036133ad565b905090565b6001600160a01b038216600090815260d3602052604081205480612d5d5760405162461bcd60e51b815260206004820152600c60248201526b27379037b832b930ba34b7b760a11b604482015260640161080d565b6000612d6882610938565b9050836002811115612d7c57612d7c61392b565b81602001516002811115612d9257612d9261392b565b148015612da157506060810151155b612de05760405162461bcd60e51b815260206004820152601060248201526f105b1c9958591e48199a5b9a5cda195960821b604482015260640161080d565b600160d2612dee8285614359565b81548110612dfe57612dfe614370565b60009182526020909120600390910201600201805460ff191691151591909117905560400151949350505050565b600060c9805480602002602001604051908101604052809291908181526020018280548015612e7a57602002820191906000526020600020905b815481526020019060010190808311612e66575b50505050509050600060ca805480602002602001604051908101604052809291908181526020018280548015612ed957602002820191906000526020600020905b81546001600160a01b03168152600190910190602001808311612ebb575b505083519394506000925050505b81811015611c05578060cc6000868481518110612f0657612f06614370565b602002602001015181526020019081526020016000206000858481518110612f3057612f30614370565b60200260200101516001600160a01b03166001600160a01b03168152602001908152602001600020819055508080612f679061459b565b915050612ee7565b6000806000612f7e85856133e1565b9150915061280c81613451565b6001600160a01b038316600090815260d36020526040902054801561300a576000612fb582610938565b905080606001516130085760405162461bcd60e51b815260206004820152601f60248201527f50726576696f7573206f7065726174696f6e206e6f742066696e697368656400604482015260640161080d565b505b60d26040518060800160405280866001600160a01b031681526020018560028111156130385761303861392b565b8152602080820186905260006040909201829052835460018101855593825290819020825160039094020180546001600160a01b039094166001600160a01b031985168117825591830151929390929183916001600160a81b03191617600160a01b8360028111156130ac576130ac61392b565b0217905550604082015160018201556060909101516002909101805460ff191691151591909117905560d2546001600160a01b03909416600090815260d36020526040902093909355505050565b609780546001600160a01b038381166001600160a01b0319831681179093556040519116919082907f8be0079c531659141344cd1fd0a4f28419497f9722a3daafe3b4186f6b6457e090600090a35050565b815160ca5460609190806001600160401b0381111561316d5761316d613c76565b604051908082528060200260200182016040528015613196578160200160208202803683370190505b50925060005b828110156132d25760008782815181106131b8576131b8614370565b6020026020010151905060008783815181106131d6576131d6614370565b602090810291909101810151600084815260cc835260408082206001600160a01b03841683529093529190912054909150808511613216575050506132c0565b80158015613277575060c960008154811061323357613233614370565b906000526020600020015483141580613277575060ca60008154811061325b5761325b614370565b6000918252602090912001546001600160a01b03838116911614155b15613284575050506132c0565b87848151811061329657613296614370565b60200260200101518782815181106132b0576132b0614370565b6020026020010181815250505050505b806132ca8161459b565b91505061319c565b5050509392505050565b60008054600160a81b900460ff1615613325578160ff1660011480156133015750303b155b61331d5760405162461bcd60e51b815260040161080d90614928565b506000919050565b60005460ff808416600160a01b90920416106133535760405162461bcd60e51b815260040161080d90614928565b506000805460ff909216600160a01b0260ff60a01b19909216919091179055600190565b919050565b600054600160a81b900460ff166133a55760405162461bcd60e51b815260040161080d90614976565b61169361360c565b6000601836108015906133ca57506000546001600160a01b031633145b156133dc575060131936013560601c90565b503390565b6000808251604114156134185760208301516040840151606085015160001a61340c87828585613645565b9450945050505061344a565b8251604014156134425760208301516040840151613437868383613732565b93509350505061344a565b506000905060025b9250929050565b60008160048111156134655761346561392b565b141561346e5750565b60018160048111156134825761348261392b565b14156134d05760405162461bcd60e51b815260206004820152601860248201527f45434453413a20696e76616c6964207369676e61747572650000000000000000604482015260640161080d565b60028160048111156134e4576134e461392b565b14156135325760405162461bcd60e51b815260206004820152601f60248201527f45434453413a20696e76616c6964207369676e6174757265206c656e67746800604482015260640161080d565b60038160048111156135465761354661392b565b141561359f5760405162461bcd60e51b815260206004820152602260248201527f45434453413a20696e76616c6964207369676e6174757265202773272076616c604482015261756560f01b606482015260840161080d565b60048160048111156135b3576135b361392b565b14156129a75760405162461bcd60e51b815260206004820152602260248201527f45434453413a20696e76616c6964207369676e6174757265202776272076616c604482015261756560f01b606482015260840161080d565b600054600160a81b900460ff166136355760405162461bcd60e51b815260040161080d90614976565b611693613640612cf9565b6130fa565b6000807f7fffffffffffffffffffffffffffffff5d576e7357a4501ddfe92f46681b20a083111561367c5750600090506003613729565b8460ff16601b1415801561369457508460ff16601c14155b156136a55750600090506004613729565b6040805160008082526020820180845289905260ff881692820192909252606081018690526080810185905260019060a0016020604051602081039080840390855afa1580156136f9573d6000803e3d6000fd5b5050604051601f1901519150506001600160a01b03811661372257600060019250925050613729565b9150600090505b94509492505050565b6000806001600160ff1b0383168161374f60ff86901c601b614703565b905061375d87828885613645565b935093505050935093915050565b8280548282559060005260206000209081019282156137b8579160200282015b828111156137b857825180516137a89184916020909101906137c8565b509160200191906001019061378b565b506137c4929150613848565b5090565b8280546137d4906141ae565b90600052602060002090601f0160209004810192826137f6576000855561383c565b82601f1061380f57805160ff191683800117855561383c565b8280016001018555821561383c579182015b8281111561383c578251825591602001919060010190613821565b506137c4929150613865565b808211156137c457600061385c828261387a565b50600101613848565b5b808211156137c45760008155600101613866565b508054613886906141ae565b6000825580601f10613896575050565b601f0160209004906000526020600020908101906129a79190613865565b6000602082840312156138c657600080fd5b5035919050565b80356001600160a01b038116811461337757600080fd5b6000602082840312156138f657600080fd5b611f80826138cd565b6000806040838503121561391257600080fd5b82359150613922602084016138cd565b90509250929050565b634e487b7160e01b600052602160045260246000fd5b6003811061395f57634e487b7160e01b600052602160045260246000fd5b9052565b81516001600160a01b03168152602080830151608083019161398790840182613941565b506040830151604083015260608301511515606083015292915050565b60008083601f8401126139b657600080fd5b5081356001600160401b038111156139cd57600080fd5b60208301915083602082850101111561344a57600080fd5b600080600080604085870312156139fb57600080fd5b84356001600160401b0380821115613a1257600080fd5b613a1e888389016139a4565b90965094506020870135915080821115613a3757600080fd5b50613a44878288016139a4565b95989497509550505050565b600081518084526020808501945080840160005b83811015613a8057815187529582019590820190600101613a64565b509495945050505050565b600081518084526020808501945080840160005b83811015613a805781516001600160a01b031687529582019590820190600101613a9f565b608081526000613ad76080830187613a50565b8281036020840152613ae98187613a8b565b90508281036040840152613afd8186613a50565b90508281036060840152613b118185613a50565b979650505050505050565b6000815180845260005b81811015613b4257602081850181015186830182015201613b26565b81811115613b54576000602083870101525b50601f01601f19169290920160200192915050565b602081526000611f806020830184613b1c565b606081526000613b8f6060830186613a50565b8281036020840152613ba18186613a8b565b905082810360408401526127b98185613a50565b60e081526000613bc860e083018a613a50565b8281036020840152613bda818a613a8b565b90508281036040840152613bee8189613a50565b90508281036060840152613c028188613a50565b90508281036080840152613c168187613a50565b905082810360a0840152613c2a8186613a50565b905082810360c0840152613c3e8185613a50565b9a9950505050505050505050565b60008060408385031215613c5f57600080fd5b613c68836138cd565b946020939093013593505050565b634e487b7160e01b600052604160045260246000fd5b604051601f8201601f191681016001600160401b0381118282101715613cb457613cb4613c76565b604052919050565b60006001600160401b03821115613cd557613cd5613c76565b5060051b60200190565b60006001600160401b03831115613cf857613cf8613c76565b613d0b601f8401601f1916602001613c8c565b9050828152838383011115613d1f57600080fd5b828260208301376000602084830101529392505050565b60006020808385031215613d4957600080fd5b82356001600160401b0380821115613d6057600080fd5b818501915085601f830112613d7457600080fd5b8135613d87613d8282613cbc565b613c8c565b81815260059190911b83018401908481019088831115613da657600080fd5b8585015b83811015613df357803585811115613dc25760008081fd5b8601603f81018b13613dd45760008081fd5b613de58b8983013560408401613cdf565b845250918601918601613daa565b5098975050505050505050565b60008060208385031215613e1357600080fd5b82356001600160401b0380821115613e2a57600080fd5b818501915085601f830112613e3e57600080fd5b813581811115613e4d57600080fd5b8660208260051b8501011115613e6257600080fd5b60209290920196919550909350505050565b600082601f830112613e8557600080fd5b81356020613e95613d8283613cbc565b82815260059290921b84018101918181019086841115613eb457600080fd5b8286015b84811015613ecf5780358352918301918301613eb8565b509695505050505050565b600060208284031215613eec57600080fd5b81356001600160401b03811115613f0257600080fd5b613f0e84828501613e74565b949350505050565b6001600160a01b038516815260808101613f336020830186613941565b836040830152821515606083015295945050505050565b600082601f830112613f5b57600080fd5b81356020613f6b613d8283613cbc565b82815260059290921b84018101918181019086841115613f8a57600080fd5b8286015b84811015613ecf57613f9f816138cd565b8352918301918301613f8e565b600080600060608486031215613fc157600080fd5b83356001600160401b0380821115613fd857600080fd5b613fe487838801613e74565b94506020860135915080821115613ffa57600080fd5b61400687838801613f4a565b9350604086013591508082111561401c57600080fd5b5061402986828701613e74565b9150509250925092565b6000806000806080858703121561404957600080fd5b84356001600160401b038082111561406057600080fd5b61406c88838901613e74565b9550602087013591508082111561408257600080fd5b61408e88838901613f4a565b945060408701359150808211156140a457600080fd5b506140b187828801613e74565b949793965093946060013593505050565b600080604083850312156140d557600080fd5b82356001600160401b03808211156140ec57600080fd5b6140f886838701613e74565b9350602085013591508082111561410e57600080fd5b5061411b85828601613e74565b9150509250929050565b6000806000806080858703121561413b57600080fd5b614144856138cd565b9350614152602086016138cd565b9250614160604086016138cd565b915061416e606086016138cd565b905092959194509250565b6020808252818101527f4f776e61626c653a2063616c6c6572206973206e6f7420746865206f776e6572604082015260600190565b600181811c908216806141c257607f821691505b602082108114156141e357634e487b7160e01b600052602260045260246000fd5b50919050565b600060a0820160018060a01b0388168352602060a08185015281885480845260c08601915060c08160051b870101935060008a8152838120815b838110156142da5788870360bf1901855281548390600181811c908083168061424d57607f831692505b8a831081141561426b57634e487b7160e01b88526022600452602488fd5b828c5260208c018180156142865760018114614297576142c1565b60ff19861682528c820196506142c1565b6000898152602090208a5b868110156142bb57815484820152908501908e016142a2565b83019750505b50949b5050978901979490940193505050600101614223565b50505050505082810360408401526142f28187613b1c565b6001600160e01b03198616606085015290508281036080840152611fed8185613b1c565b60208082526013908201527227b7363c9037bbb732b91037b91030b236b4b760691b604082015260600190565b634e487b7160e01b600052601160045260246000fd5b60008282101561436b5761436b614343565b500390565b634e487b7160e01b600052603260045260246000fd5b634e487b7160e01b600052603160045260246000fd5b600082601f8301126143ad57600080fd5b611f8083833560208501613cdf565b600080600080608085870312156143d257600080fd5b84356001600160401b03808211156143e957600080fd5b6143f588838901613e74565b9550602087013591508082111561440b57600080fd5b61441788838901613f4a565b9450604087013591508082111561442d57600080fd5b61443988838901613e74565b9350606087013591508082111561444f57600080fd5b5061445c8782880161439c565b91505092959194509250565b80516000906020808401838315613a8057815187529582019590820190600101613a64565b80516000906020808401838315613a805781516001600160a01b031687529582019590820190600101613a9f565b60006144d96144d36144cd8488614468565b8661448d565b84614468565b95945050505050565b60208082526013908201527214da59db995c881a5cc81a5b98dbdc9c9958dd606a1b604082015260600190565b60008060006060848603121561452457600080fd5b83356001600160401b038082111561453b57600080fd5b61454787838801613e74565b9450602086013591508082111561455d57600080fd5b61456987838801613e74565b9350604086013591508082111561457f57600080fd5b506140298682870161439c565b6000613f0e6144d38386614468565b60006000198214156145af576145af614343565b5060010190565b6000602082840312156145c857600080fd5b5051919050565b600181815b8085111561460a5781600019048211156145f0576145f0614343565b808516156145fd57918102915b93841c93908002906145d4565b509250929050565b60008261462157506001611f83565b8161462e57506000611f83565b8160018114614644576002811461464e5761466a565b6001915050611f83565b60ff84111561465f5761465f614343565b50506001821b611f83565b5060208310610133831016604e8410600b841016171561468d575081810a611f83565b61469783836145cf565b80600019048211156146ab576146ab614343565b029392505050565b6000611f8060ff841683614612565b60008160001904831182151516156146dc576146dc614343565b500290565b6000826146fe57634e487b7160e01b600052601260045260246000fd5b500490565b6000821982111561471657614716614343565b500190565b600080600080600080600080610100898b03121561473857600080fd5b88356001600160401b038082111561474f57600080fd5b61475b8c838d01613e74565b995060208b013591508082111561477157600080fd5b61477d8c838d01613f4a565b985060408b013591508082111561479357600080fd5b61479f8c838d01613e74565b975060608b01359150808211156147b557600080fd5b6147c18c838d01613e74565b965060808b01359150808211156147d757600080fd5b6147e38c838d01613e74565b955060a08b01359150808211156147f957600080fd5b6148058c838d01613e74565b945060c08b013591508082111561481b57600080fd5b6148278c838d01613e74565b935060e08b013591508082111561483d57600080fd5b5061484a8b828c0161439c565b9150509295985092959890939650565b6000611fed6144d361488761488161487b614875878e614468565b8c61448d565b8a614468565b88614468565b86614468565b6000611f808284614468565b600080604083850312156148ac57600080fd5b82356001600160401b03808211156148c357600080fd5b6148cf86838701613e74565b935060208501359150808211156148e557600080fd5b5061411b8582860161439c565b6000806040838503121561490557600080fd5b82519150602083015160ff8116811461491d57600080fd5b809150509250929050565b6020808252602e908201527f496e697469616c697a61626c653a20636f6e747261637420697320616c72656160408201526d191e481a5b9a5d1a585b1a5e995960921b606082015260800190565b6020808252602b908201527f496e697469616c697a61626c653a20636f6e7472616374206973206e6f74206960408201526a6e697469616c697a696e6760a81b60608201526080019056fea264697066735822122071ff1a00799039946c879f06dfaa69c9bfd2733c81991a6cb499929e314f3d0b64736f6c63430008090033",
  "devdoc": {
    "kind": "dev",
    "methods": {
      "burnByAdmin(address,uint256)": {
        "details": "mint STIs according to the deposited USDT",
        "params": {
          "_account": "account to which STIs will be minted",
          "_share": "amount of STI to be burnt"
        }
      },
      "getDepositTokenComposition(uint256[],address[],uint256[],uint256)": {
        "params": {
          "_USDTAmt": "amount of USDT with 6 decimals"
        },
        "returns": {
          "_0": "_USDTAmts amount of USDT should be deposited to each pools"
        }
      },
      "getPoolsUnbonded1(address)": {
        "returns": {
          "_0": "_chainIDs is an array of chain IDs.",
          "_1": "_tokens is an array of tokens.",
          "_2": "_waitings is an array of token amounts that is not unbonded.",
          "_3": "_waitingInUSDs is an array of USD value of token amounts that is not unbonded.",
          "_4": "_unbondeds is an array of token amounts that is unbonded.",
          "_5": "_unbondedInUSDs is an array USD value of token amounts that is unbonded.",
          "_6": "_waitForTses is an array of timestamps to wait to the next claim."
        }
      },
      "getUSDTPriceInUSD()": {
        "returns": {
          "_0": "the price of USDT in USD."
        }
      },
      "getWithdrawPerc(address,uint256)": {
        "params": {
          "_share": "amount of STI to be withdrawn"
        },
        "returns": {
          "_sharePerc": "percentage of assets which should be withdrawn. It's 18 decimals"
        }
      },
      "initDeposit(address,uint256)": {
        "params": {
          "_USDTAmt": "USDT with 6 decimals to be deposited",
          "_account": "account to which BNIs will be minted"
        }
      },
      "mintByAdmin(uint256,address)": {
        "details": "mint STIs according to the deposited USDT",
        "params": {
          "_account": "account to which STIs will be minted",
          "_pool": "total USD worth in all pools of STI after deposited"
        }
      },
      "owner()": {
        "details": "Returns the address of the current owner."
      },
      "paused()": {
        "details": "Returns true if the contract is paused, and false otherwise."
      },
      "renounceOwnership()": {
        "details": "Leaves the contract without owner. It will not be possible to call `onlyOwner` functions anymore. Can only be called by the current owner. NOTE: Renouncing ownership will leave the contract without an owner, thereby removing any functionality that is only available to the owner."
      },
      "transferOwnership(address)": {
        "details": "Transfers ownership of the contract to a new account (`newOwner`). Can only be called by the current owner."
      }
    },
    "version": 1
  },
  "userdoc": {
    "kind": "user",
    "methods": {
      "addToken(uint256,address)": {
        "notice": "After this method called, setTokenCompositionTargetPerc should be called to adjust percentages."
      },
      "getAPR(uint256[],uint256[])": {
        "notice": "The length of array is based on network count. And the lengths should be same on the arraies."
      },
      "getAllPoolInUSD(uint256[])": {
        "notice": "The length of array is based on network count. And the lengths should be same on the arraies."
      },
      "getCurrentTokenCompositionPerc(uint256[],address[],uint256[])": {
        "notice": "The length of array is based on token count. And the lengths should be same on the arraies."
      },
      "getDepositTokenComposition(uint256[],address[],uint256[],uint256)": {
        "notice": "The length of array is based on token count. And the lengths should be same on the arraies."
      },
      "getPricePerFullShare(uint256[])": {
        "notice": "Can be used for calculate both user shares & APR"
      },
      "isTrustedForwarder(address)": {
        "notice": "return if the forwarder is trusted to forward relayed transactions to us. the forwarder is required to verify the sender's signature, and verify the call is not a replay."
      },
      "removeToken(uint256)": {
        "notice": "After this method called, setTokenCompositionTargetPerc should be called to adjust percentages."
      },
      "setTokenCompositionTargetPerc(uint256[])": {
        "notice": "The length of array is based on token count."
      }
    },
    "version": 1
  },
  "storageLayout": {
    "storage": [
      {
        "astId": 51442,
        "contract": "contracts/sti/STIMinterTest.sol:STIMinterTest",
        "label": "trustedForwarder",
        "offset": 0,
        "slot": "0",
        "type": "t_address"
      },
      {
        "astId": 130,
        "contract": "contracts/sti/STIMinterTest.sol:STIMinterTest",
        "label": "_initialized",
        "offset": 20,
        "slot": "0",
        "type": "t_uint8"
      },
      {
        "astId": 133,
        "contract": "contracts/sti/STIMinterTest.sol:STIMinterTest",
        "label": "_initializing",
        "offset": 21,
        "slot": "0",
        "type": "t_bool"
      },
      {
        "astId": 390,
        "contract": "contracts/sti/STIMinterTest.sol:STIMinterTest",
        "label": "_status",
        "offset": 0,
        "slot": "1",
        "type": "t_uint256"
      },
      {
        "astId": 434,
        "contract": "contracts/sti/STIMinterTest.sol:STIMinterTest",
        "label": "__gap",
        "offset": 0,
        "slot": "2",
        "type": "t_array(t_uint256)49_storage"
      },
      {
        "astId": 2709,
        "contract": "contracts/sti/STIMinterTest.sol:STIMinterTest",
        "label": "__gap",
        "offset": 0,
        "slot": "51",
        "type": "t_array(t_uint256)50_storage"
      },
      {
        "astId": 286,
        "contract": "contracts/sti/STIMinterTest.sol:STIMinterTest",
        "label": "_paused",
        "offset": 0,
        "slot": "101",
        "type": "t_bool"
      },
      {
        "astId": 375,
        "contract": "contracts/sti/STIMinterTest.sol:STIMinterTest",
        "label": "__gap",
        "offset": 0,
        "slot": "102",
        "type": "t_array(t_uint256)49_storage"
      },
      {
        "astId": 10,
        "contract": "contracts/sti/STIMinterTest.sol:STIMinterTest",
        "label": "_owner",
        "offset": 0,
        "slot": "151",
        "type": "t_address"
      },
      {
        "astId": 122,
        "contract": "contracts/sti/STIMinterTest.sol:STIMinterTest",
        "label": "__gap",
        "offset": 0,
        "slot": "152",
        "type": "t_array(t_uint256)49_storage"
      },
      {
        "astId": 40533,
        "contract": "contracts/sti/STIMinterTest.sol:STIMinterTest",
        "label": "chainIDs",
        "offset": 0,
        "slot": "201",
        "type": "t_array(t_uint256)dyn_storage"
      },
      {
        "astId": 40536,
        "contract": "contracts/sti/STIMinterTest.sol:STIMinterTest",
        "label": "tokens",
        "offset": 0,
        "slot": "202",
        "type": "t_array(t_address)dyn_storage"
      },
      {
        "astId": 40539,
        "contract": "contracts/sti/STIMinterTest.sol:STIMinterTest",
        "label": "targetPercentages",
        "offset": 0,
        "slot": "203",
        "type": "t_array(t_uint256)dyn_storage"
      },
      {
        "astId": 40545,
        "contract": "contracts/sti/STIMinterTest.sol:STIMinterTest",
        "label": "tid",
        "offset": 0,
        "slot": "204",
        "type": "t_mapping(t_uint256,t_mapping(t_address,t_uint256))"
      },
      {
        "astId": 40547,
        "contract": "contracts/sti/STIMinterTest.sol:STIMinterTest",
        "label": "admin",
        "offset": 0,
        "slot": "205",
        "type": "t_address"
      },
      {
        "astId": 40550,
        "contract": "contracts/sti/STIMinterTest.sol:STIMinterTest",
        "label": "STI",
        "offset": 0,
        "slot": "206",
        "type": "t_contract(ISTI)40387"
      },
      {
        "astId": 40553,
        "contract": "contracts/sti/STIMinterTest.sol:STIMinterTest",
        "label": "priceOracle",
        "offset": 0,
        "slot": "207",
        "type": "t_contract(IPriceOracle)8979"
      },
      {
        "astId": 40556,
        "contract": "contracts/sti/STIMinterTest.sol:STIMinterTest",
        "label": "urls",
        "offset": 0,
        "slot": "208",
        "type": "t_array(t_string_storage)dyn_storage"
      },
      {
        "astId": 40558,
        "contract": "contracts/sti/STIMinterTest.sol:STIMinterTest",
        "label": "gatewaySigner",
        "offset": 0,
        "slot": "209",
        "type": "t_address"
      },
      {
        "astId": 40562,
        "contract": "contracts/sti/STIMinterTest.sol:STIMinterTest",
        "label": "operations",
        "offset": 0,
        "slot": "210",
        "type": "t_array(t_struct(Operation)40530_storage)dyn_storage"
      },
      {
        "astId": 40566,
        "contract": "contracts/sti/STIMinterTest.sol:STIMinterTest",
        "label": "userLastOperationNonce",
        "offset": 0,
        "slot": "211",
        "type": "t_mapping(t_address,t_uint256)"
      }
    ],
    "types": {
      "t_address": {
        "encoding": "inplace",
        "label": "address",
        "numberOfBytes": "20"
      },
      "t_array(t_address)dyn_storage": {
        "base": "t_address",
        "encoding": "dynamic_array",
        "label": "address[]",
        "numberOfBytes": "32"
      },
      "t_array(t_string_storage)dyn_storage": {
        "base": "t_string_storage",
        "encoding": "dynamic_array",
        "label": "string[]",
        "numberOfBytes": "32"
      },
      "t_array(t_struct(Operation)40530_storage)dyn_storage": {
        "base": "t_struct(Operation)40530_storage",
        "encoding": "dynamic_array",
        "label": "struct STIMinter.Operation[]",
        "numberOfBytes": "32"
      },
      "t_array(t_uint256)49_storage": {
        "base": "t_uint256",
        "encoding": "inplace",
        "label": "uint256[49]",
        "numberOfBytes": "1568"
      },
      "t_array(t_uint256)50_storage": {
        "base": "t_uint256",
        "encoding": "inplace",
        "label": "uint256[50]",
        "numberOfBytes": "1600"
      },
      "t_array(t_uint256)dyn_storage": {
        "base": "t_uint256",
        "encoding": "dynamic_array",
        "label": "uint256[]",
        "numberOfBytes": "32"
      },
      "t_bool": {
        "encoding": "inplace",
        "label": "bool",
        "numberOfBytes": "1"
      },
      "t_contract(IPriceOracle)8979": {
        "encoding": "inplace",
        "label": "contract IPriceOracle",
        "numberOfBytes": "20"
      },
      "t_contract(ISTI)40387": {
        "encoding": "inplace",
        "label": "contract ISTI",
        "numberOfBytes": "20"
      },
      "t_enum(OperationType)40520": {
        "encoding": "inplace",
        "label": "enum STIMinter.OperationType",
        "numberOfBytes": "1"
      },
      "t_mapping(t_address,t_uint256)": {
        "encoding": "mapping",
        "key": "t_address",
        "label": "mapping(address => uint256)",
        "numberOfBytes": "32",
        "value": "t_uint256"
      },
      "t_mapping(t_uint256,t_mapping(t_address,t_uint256))": {
        "encoding": "mapping",
        "key": "t_uint256",
        "label": "mapping(uint256 => mapping(address => uint256))",
        "numberOfBytes": "32",
        "value": "t_mapping(t_address,t_uint256)"
      },
      "t_string_storage": {
        "encoding": "bytes",
        "label": "string",
        "numberOfBytes": "32"
      },
      "t_struct(Operation)40530_storage": {
        "encoding": "inplace",
        "label": "struct STIMinter.Operation",
        "members": [
          {
            "astId": 40522,
            "contract": "contracts/sti/STIMinterTest.sol:STIMinterTest",
            "label": "account",
            "offset": 0,
            "slot": "0",
            "type": "t_address"
          },
          {
            "astId": 40525,
            "contract": "contracts/sti/STIMinterTest.sol:STIMinterTest",
            "label": "operation",
            "offset": 20,
            "slot": "0",
            "type": "t_enum(OperationType)40520"
          },
          {
            "astId": 40527,
            "contract": "contracts/sti/STIMinterTest.sol:STIMinterTest",
            "label": "amount",
            "offset": 0,
            "slot": "1",
            "type": "t_uint256"
          },
          {
            "astId": 40529,
            "contract": "contracts/sti/STIMinterTest.sol:STIMinterTest",
            "label": "done",
            "offset": 0,
            "slot": "2",
            "type": "t_bool"
          }
        ],
        "numberOfBytes": "96"
      },
      "t_uint256": {
        "encoding": "inplace",
        "label": "uint256",
        "numberOfBytes": "32"
      },
      "t_uint8": {
        "encoding": "inplace",
        "label": "uint8",
        "numberOfBytes": "1"
      }
    }
  }
}