{
  "address": "0x3eb9bE772B56F50Dd25F087CD2Ff708A4F1B9f03",
  "abi": [
    {
      "inputs": [
        {
          "internalType": "address",
          "name": "sender",
          "type": "address"
        },
        {
          "internalType": "string[]",
          "name": "urls",
          "type": "string[]"
        },
        {
          "internalType": "bytes",
          "name": "callData",
          "type": "bytes"
        },
        {
          "internalType": "bytes4",
          "name": "callbackFunction",
          "type": "bytes4"
        },
        {
          "internalType": "bytes",
          "name": "extraData",
          "type": "bytes"
        }
      ],
      "name": "OffchainLookup",
      "type": "error"
    },
    {
      "anonymous": false,
      "inputs": [
        {
          "indexed": false,
          "internalType": "uint256",
          "name": "chainID",
          "type": "uint256"
        },
        {
          "indexed": false,
          "internalType": "address",
          "name": "token",
          "type": "address"
        },
        {
          "indexed": false,
          "internalType": "uint256",
          "name": "tid",
          "type": "uint256"
        }
      ],
      "name": "AddToken",
      "type": "event"
    },
    {
      "anonymous": false,
      "inputs": [
        {
          "indexed": false,
          "internalType": "address",
          "name": "caller",
          "type": "address"
        },
        {
          "indexed": false,
          "internalType": "uint256",
          "name": "shareBurned",
          "type": "uint256"
        }
      ],
      "name": "Burn",
      "type": "event"
    },
    {
      "anonymous": false,
      "inputs": [
        {
          "indexed": false,
          "internalType": "uint8",
          "name": "version",
          "type": "uint8"
        }
      ],
      "name": "Initialized",
      "type": "event"
    },
    {
      "anonymous": false,
      "inputs": [
        {
          "indexed": false,
          "internalType": "address",
          "name": "caller",
          "type": "address"
        },
        {
          "indexed": false,
          "internalType": "uint256",
          "name": "amtDeposit",
          "type": "uint256"
        },
        {
          "indexed": false,
          "internalType": "uint256",
          "name": "shareMinted",
          "type": "uint256"
        }
      ],
      "name": "Mint",
      "type": "event"
    },
    {
      "anonymous": false,
      "inputs": [
        {
          "indexed": true,
          "internalType": "address",
          "name": "previousOwner",
          "type": "address"
        },
        {
          "indexed": true,
          "internalType": "address",
          "name": "newOwner",
          "type": "address"
        }
      ],
      "name": "OwnershipTransferred",
      "type": "event"
    },
    {
      "anonymous": false,
      "inputs": [
        {
          "indexed": false,
          "internalType": "address",
          "name": "account",
          "type": "address"
        }
      ],
      "name": "Paused",
      "type": "event"
    },
    {
      "anonymous": false,
      "inputs": [
        {
          "indexed": false,
          "internalType": "uint256",
          "name": "chainID",
          "type": "uint256"
        },
        {
          "indexed": false,
          "internalType": "address",
          "name": "token",
          "type": "address"
        },
        {
          "indexed": false,
          "internalType": "uint256",
          "name": "targetPerc",
          "type": "uint256"
        },
        {
          "indexed": false,
          "internalType": "uint256",
          "name": "tid",
          "type": "uint256"
        }
      ],
      "name": "RemoveToken",
      "type": "event"
    },
    {
      "anonymous": false,
      "inputs": [
        {
          "indexed": false,
          "internalType": "address",
          "name": "oldAdmin",
          "type": "address"
        },
        {
          "indexed": false,
          "internalType": "address",
          "name": "newAdmin",
          "type": "address"
        }
      ],
      "name": "SetAdminWallet",
      "type": "event"
    },
    {
      "anonymous": false,
      "inputs": [
        {
          "indexed": false,
          "internalType": "address",
          "name": "oldBiconomy",
          "type": "address"
        },
        {
          "indexed": false,
          "internalType": "address",
          "name": "newBiconomy",
          "type": "address"
        }
      ],
      "name": "SetBiconomy",
      "type": "event"
    },
    {
      "anonymous": false,
      "inputs": [
        {
          "indexed": false,
          "internalType": "address",
          "name": "account",
          "type": "address"
        }
      ],
      "name": "Unpaused",
      "type": "event"
    },
    {
      "inputs": [],
      "name": "STI",
      "outputs": [
        {
          "internalType": "contract ISTI",
          "name": "",
          "type": "address"
        }
      ],
      "stateMutability": "view",
      "type": "function"
    },
    {
      "inputs": [
        {
          "internalType": "uint256",
          "name": "_chainID",
          "type": "uint256"
        },
        {
          "internalType": "address",
          "name": "_token",
          "type": "address"
        }
      ],
      "name": "addToken",
      "outputs": [],
      "stateMutability": "nonpayable",
      "type": "function"
    },
    {
      "inputs": [],
      "name": "admin",
      "outputs": [
        {
          "internalType": "address",
          "name": "",
          "type": "address"
        }
      ],
      "stateMutability": "view",
      "type": "function"
    },
    {
      "inputs": [
        {
          "internalType": "address",
          "name": "_account",
          "type": "address"
        },
        {
          "internalType": "uint256",
          "name": "_share",
          "type": "uint256"
        }
      ],
      "name": "burnByAdmin",
      "outputs": [],
      "stateMutability": "nonpayable",
      "type": "function"
    },
    {
      "inputs": [
        {
          "internalType": "uint256",
          "name": "",
          "type": "uint256"
        }
      ],
      "name": "chainIDs",
      "outputs": [
        {
          "internalType": "uint256",
          "name": "",
          "type": "uint256"
        }
      ],
      "stateMutability": "view",
      "type": "function"
    },
    {
      "inputs": [],
      "name": "gatewaySigner",
      "outputs": [
        {
          "internalType": "address",
          "name": "",
          "type": "address"
        }
      ],
      "stateMutability": "view",
      "type": "function"
    },
    {
      "inputs": [
        {
          "internalType": "uint256[]",
          "name": "_allPoolInUSDs",
          "type": "uint256[]"
        },
        {
          "internalType": "uint256[]",
          "name": "_APRs",
          "type": "uint256[]"
        }
      ],
      "name": "getAPR",
      "outputs": [
        {
          "internalType": "uint256",
          "name": "",
          "type": "uint256"
        }
      ],
      "stateMutability": "pure",
      "type": "function"
    },
    {
      "inputs": [],
      "name": "getAPR1",
      "outputs": [
        {
          "internalType": "uint256",
          "name": "",
          "type": "uint256"
        }
      ],
      "stateMutability": "view",
      "type": "function"
    },
    {
      "inputs": [
        {
          "internalType": "bytes",
          "name": "result",
          "type": "bytes"
        },
        {
          "internalType": "bytes",
          "name": "extraData",
          "type": "bytes"
        }
      ],
      "name": "getAPR1WithSig",
      "outputs": [
        {
          "internalType": "uint256",
          "name": "",
          "type": "uint256"
        }
      ],
      "stateMutability": "view",
      "type": "function"
    },
    {
      "inputs": [
        {
          "internalType": "uint256[]",
          "name": "_allPoolInUSDs",
          "type": "uint256[]"
        }
      ],
      "name": "getAllPoolInUSD",
      "outputs": [
        {
          "internalType": "uint256",
          "name": "",
          "type": "uint256"
        }
      ],
      "stateMutability": "pure",
      "type": "function"
    },
    {
      "inputs": [],
      "name": "getAllPoolInUSD1",
      "outputs": [
        {
          "internalType": "uint256",
          "name": "",
          "type": "uint256"
        }
      ],
      "stateMutability": "view",
      "type": "function"
    },
    {
      "inputs": [
        {
          "internalType": "bytes",
          "name": "result",
          "type": "bytes"
        },
        {
          "internalType": "bytes",
          "name": "extraData",
          "type": "bytes"
        }
      ],
      "name": "getAllPoolInUSD1WithSig",
      "outputs": [
        {
          "internalType": "uint256",
          "name": "",
          "type": "uint256"
        }
      ],
      "stateMutability": "view",
      "type": "function"
    },
    {
      "inputs": [
        {
          "internalType": "uint256[]",
          "name": "_chainIDs",
          "type": "uint256[]"
        },
        {
          "internalType": "address[]",
          "name": "_tokens",
          "type": "address[]"
        },
        {
          "internalType": "uint256[]",
          "name": "_poolInUSDs",
          "type": "uint256[]"
        }
      ],
      "name": "getCurrentTokenCompositionPerc",
      "outputs": [
        {
          "internalType": "uint256[]",
          "name": "",
          "type": "uint256[]"
        },
        {
          "internalType": "address[]",
          "name": "",
          "type": "address[]"
        },
        {
          "internalType": "uint256[]",
          "name": "pools",
          "type": "uint256[]"
        },
        {
          "internalType": "uint256[]",
          "name": "percentages",
          "type": "uint256[]"
        }
      ],
      "stateMutability": "view",
      "type": "function"
    },
    {
      "inputs": [],
      "name": "getCurrentTokenCompositionPerc1",
      "outputs": [
        {
          "internalType": "uint256[]",
          "name": "",
          "type": "uint256[]"
        },
        {
          "internalType": "address[]",
          "name": "",
          "type": "address[]"
        },
        {
          "internalType": "uint256[]",
          "name": "",
          "type": "uint256[]"
        },
        {
          "internalType": "uint256[]",
          "name": "",
          "type": "uint256[]"
        }
      ],
      "stateMutability": "view",
      "type": "function"
    },
    {
      "inputs": [
        {
          "internalType": "bytes",
          "name": "result",
          "type": "bytes"
        },
        {
          "internalType": "bytes",
          "name": "extraData",
          "type": "bytes"
        }
      ],
      "name": "getCurrentTokenCompositionPercWithSig",
      "outputs": [
        {
          "internalType": "uint256[]",
          "name": "",
          "type": "uint256[]"
        },
        {
          "internalType": "address[]",
          "name": "",
          "type": "address[]"
        },
        {
          "internalType": "uint256[]",
          "name": "",
          "type": "uint256[]"
        },
        {
          "internalType": "uint256[]",
          "name": "",
          "type": "uint256[]"
        }
      ],
      "stateMutability": "view",
      "type": "function"
    },
    {
      "inputs": [
        {
          "internalType": "uint256[]",
          "name": "_chainIDs",
          "type": "uint256[]"
        },
        {
          "internalType": "address[]",
          "name": "_tokens",
          "type": "address[]"
        },
        {
          "internalType": "uint256[]",
          "name": "_poolInUSDs",
          "type": "uint256[]"
        },
        {
          "internalType": "uint256",
          "name": "_USDTAmt",
          "type": "uint256"
        }
      ],
      "name": "getDepositTokenComposition",
      "outputs": [
        {
          "internalType": "uint256[]",
          "name": "",
          "type": "uint256[]"
        },
        {
          "internalType": "address[]",
          "name": "",
          "type": "address[]"
        },
        {
          "internalType": "uint256[]",
          "name": "_USDTAmts",
          "type": "uint256[]"
        }
      ],
      "stateMutability": "view",
      "type": "function"
    },
    {
      "inputs": [
        {
          "internalType": "uint256",
          "name": "_USDTAmt",
          "type": "uint256"
        }
      ],
      "name": "getDepositTokenComposition1",
      "outputs": [
        {
          "internalType": "uint256[]",
          "name": "",
          "type": "uint256[]"
        },
        {
          "internalType": "address[]",
          "name": "",
          "type": "address[]"
        },
        {
          "internalType": "uint256[]",
          "name": "",
          "type": "uint256[]"
        }
      ],
      "stateMutability": "view",
      "type": "function"
    },
    {
      "inputs": [
        {
          "internalType": "bytes",
          "name": "result",
          "type": "bytes"
        },
        {
          "internalType": "bytes",
          "name": "extraData",
          "type": "bytes"
        }
      ],
      "name": "getDepositTokenComposition1WithSig",
      "outputs": [
        {
          "internalType": "uint256[]",
          "name": "",
          "type": "uint256[]"
        },
        {
          "internalType": "address[]",
          "name": "",
          "type": "address[]"
        },
        {
          "internalType": "uint256[]",
          "name": "",
          "type": "uint256[]"
        }
      ],
      "stateMutability": "view",
      "type": "function"
    },
    {
      "inputs": [
        {
          "internalType": "address",
          "name": "_account",
          "type": "address"
        }
      ],
      "name": "getPoolsUnbonded1",
      "outputs": [
        {
          "internalType": "uint256[]",
          "name": "",
          "type": "uint256[]"
        },
        {
          "internalType": "address[]",
          "name": "",
          "type": "address[]"
        },
        {
          "internalType": "uint256[]",
          "name": "",
          "type": "uint256[]"
        },
        {
          "internalType": "uint256[]",
          "name": "",
          "type": "uint256[]"
        },
        {
          "internalType": "uint256[]",
          "name": "",
          "type": "uint256[]"
        },
        {
          "internalType": "uint256[]",
          "name": "",
          "type": "uint256[]"
        },
        {
          "internalType": "uint256[]",
          "name": "",
          "type": "uint256[]"
        }
      ],
      "stateMutability": "view",
      "type": "function"
    },
    {
      "inputs": [
        {
          "internalType": "bytes",
          "name": "result",
          "type": "bytes"
        },
        {
          "internalType": "bytes",
          "name": "",
          "type": "bytes"
        }
      ],
      "name": "getPoolsUnbonded1WithSig",
      "outputs": [
        {
          "internalType": "uint256[]",
          "name": "_chainIDs",
          "type": "uint256[]"
        },
        {
          "internalType": "address[]",
          "name": "_tokens",
          "type": "address[]"
        },
        {
          "internalType": "uint256[]",
          "name": "_waitings",
          "type": "uint256[]"
        },
        {
          "internalType": "uint256[]",
          "name": "_waitingInUSDs",
          "type": "uint256[]"
        },
        {
          "internalType": "uint256[]",
          "name": "_unbondeds",
          "type": "uint256[]"
        },
        {
          "internalType": "uint256[]",
          "name": "_unbondedInUSDs",
          "type": "uint256[]"
        },
        {
          "internalType": "uint256[]",
          "name": "_waitForTses",
          "type": "uint256[]"
        }
      ],
      "stateMutability": "view",
      "type": "function"
    },
    {
      "inputs": [
        {
          "internalType": "uint256[]",
          "name": "_allPoolInUSDs",
          "type": "uint256[]"
        }
      ],
      "name": "getPricePerFullShare",
      "outputs": [
        {
          "internalType": "uint256",
          "name": "",
          "type": "uint256"
        }
      ],
      "stateMutability": "view",
      "type": "function"
    },
    {
      "inputs": [],
      "name": "getPricePerFullShare1",
      "outputs": [
        {
          "internalType": "uint256",
          "name": "",
          "type": "uint256"
        }
      ],
      "stateMutability": "view",
      "type": "function"
    },
    {
      "inputs": [
        {
          "internalType": "bytes",
          "name": "result",
          "type": "bytes"
        },
        {
          "internalType": "bytes",
          "name": "extraData",
          "type": "bytes"
        }
      ],
      "name": "getPricePerFullShare1WithSig",
      "outputs": [
        {
          "internalType": "uint256",
          "name": "",
          "type": "uint256"
        }
      ],
      "stateMutability": "view",
      "type": "function"
    },
    {
      "inputs": [],
      "name": "getUSDTPriceInUSD",
      "outputs": [
        {
          "internalType": "uint256",
          "name": "",
          "type": "uint256"
        },
        {
          "internalType": "uint8",
          "name": "",
          "type": "uint8"
        }
      ],
      "stateMutability": "view",
      "type": "function"
    },
    {
      "inputs": [
        {
          "internalType": "address",
          "name": "_account",
          "type": "address"
        },
        {
          "internalType": "uint256",
          "name": "_share",
          "type": "uint256"
        }
      ],
      "name": "getWithdrawPerc",
      "outputs": [
        {
          "internalType": "uint256",
          "name": "_sharePerc",
          "type": "uint256"
        }
      ],
      "stateMutability": "view",
      "type": "function"
    },
    {
      "inputs": [],
      "name": "getWithdrawableSharePerc1",
      "outputs": [
        {
          "internalType": "uint256",
          "name": "",
          "type": "uint256"
        }
      ],
      "stateMutability": "view",
      "type": "function"
    },
    {
      "inputs": [
        {
          "internalType": "bytes",
          "name": "result",
          "type": "bytes"
        },
        {
          "internalType": "bytes",
          "name": "extraData",
          "type": "bytes"
        }
      ],
      "name": "getWithdrawableSharePerc1WithSig",
      "outputs": [
        {
          "internalType": "uint256",
          "name": "_sharePerc",
          "type": "uint256"
        }
      ],
      "stateMutability": "view",
      "type": "function"
    },
    {
      "inputs": [
        {
          "internalType": "address",
          "name": "_admin",
          "type": "address"
        },
        {
          "internalType": "address",
          "name": "_biconomy",
          "type": "address"
        },
        {
          "internalType": "address",
          "name": "_STI",
          "type": "address"
        },
        {
          "internalType": "address",
          "name": "_priceOracle",
          "type": "address"
        }
      ],
      "name": "initialize",
      "outputs": [],
      "stateMutability": "nonpayable",
      "type": "function"
    },
    {
      "inputs": [
        {
          "internalType": "address",
          "name": "forwarder",
          "type": "address"
        }
      ],
      "name": "isTrustedForwarder",
      "outputs": [
        {
          "internalType": "bool",
          "name": "",
          "type": "bool"
        }
      ],
      "stateMutability": "view",
      "type": "function"
    },
    {
      "inputs": [
        {
          "internalType": "uint256",
          "name": "_pool",
          "type": "uint256"
        },
        {
          "internalType": "address",
          "name": "_account",
          "type": "address"
        },
        {
          "internalType": "uint256",
          "name": "_USDTAmt",
          "type": "uint256"
        }
      ],
      "name": "mintByAdmin",
      "outputs": [],
      "stateMutability": "nonpayable",
      "type": "function"
    },
    {
      "inputs": [],
      "name": "owner",
      "outputs": [
        {
          "internalType": "address",
          "name": "",
          "type": "address"
        }
      ],
      "stateMutability": "view",
      "type": "function"
    },
    {
      "inputs": [],
      "name": "paused",
      "outputs": [
        {
          "internalType": "bool",
          "name": "",
          "type": "bool"
        }
      ],
      "stateMutability": "view",
      "type": "function"
    },
    {
      "inputs": [],
      "name": "priceOracle",
      "outputs": [
        {
          "internalType": "contract IPriceOracle",
          "name": "",
          "type": "address"
        }
      ],
      "stateMutability": "view",
      "type": "function"
    },
    {
      "inputs": [
        {
          "internalType": "uint256",
          "name": "_tid",
          "type": "uint256"
        }
      ],
      "name": "removeToken",
      "outputs": [],
      "stateMutability": "nonpayable",
      "type": "function"
    },
    {
      "inputs": [],
      "name": "renounceOwnership",
      "outputs": [],
      "stateMutability": "nonpayable",
      "type": "function"
    },
    {
      "inputs": [
        {
          "internalType": "address",
          "name": "_admin",
          "type": "address"
        }
      ],
      "name": "setAdmin",
      "outputs": [],
      "stateMutability": "nonpayable",
      "type": "function"
    },
    {
      "inputs": [
        {
          "internalType": "address",
          "name": "_biconomy",
          "type": "address"
        }
      ],
      "name": "setBiconomy",
      "outputs": [],
      "stateMutability": "nonpayable",
      "type": "function"
    },
    {
      "inputs": [
        {
          "internalType": "address",
          "name": "_signer",
          "type": "address"
        }
      ],
      "name": "setGatewaySigner",
      "outputs": [],
      "stateMutability": "nonpayable",
      "type": "function"
    },
    {
      "inputs": [
        {
          "internalType": "uint256[]",
          "name": "_targetPerc",
          "type": "uint256[]"
        }
      ],
      "name": "setTokenCompositionTargetPerc",
      "outputs": [],
      "stateMutability": "nonpayable",
      "type": "function"
    },
    {
      "inputs": [
        {
          "internalType": "string[]",
          "name": "_urls",
          "type": "string[]"
        }
      ],
      "name": "setUrls",
      "outputs": [],
      "stateMutability": "nonpayable",
      "type": "function"
    },
    {
      "inputs": [
        {
          "internalType": "uint256",
          "name": "",
          "type": "uint256"
        }
      ],
      "name": "targetPercentages",
      "outputs": [
        {
          "internalType": "uint256",
          "name": "",
          "type": "uint256"
        }
      ],
      "stateMutability": "view",
      "type": "function"
    },
    {
      "inputs": [
        {
          "internalType": "uint256",
          "name": "",
          "type": "uint256"
        },
        {
          "internalType": "address",
          "name": "",
          "type": "address"
        }
      ],
      "name": "tid",
      "outputs": [
        {
          "internalType": "uint256",
          "name": "",
          "type": "uint256"
        }
      ],
      "stateMutability": "view",
      "type": "function"
    },
    {
      "inputs": [
        {
          "internalType": "uint256",
          "name": "",
          "type": "uint256"
        }
      ],
      "name": "tokens",
      "outputs": [
        {
          "internalType": "address",
          "name": "",
          "type": "address"
        }
      ],
      "stateMutability": "view",
      "type": "function"
    },
    {
      "inputs": [
        {
          "internalType": "address",
          "name": "newOwner",
          "type": "address"
        }
      ],
      "name": "transferOwnership",
      "outputs": [],
      "stateMutability": "nonpayable",
      "type": "function"
    },
    {
      "inputs": [],
      "name": "trustedForwarder",
      "outputs": [
        {
          "internalType": "address",
          "name": "",
          "type": "address"
        }
      ],
      "stateMutability": "view",
      "type": "function"
    },
    {
      "inputs": [
        {
          "internalType": "uint256",
          "name": "",
          "type": "uint256"
        }
      ],
      "name": "urls",
      "outputs": [
        {
          "internalType": "string",
          "name": "",
          "type": "string"
        }
      ],
      "stateMutability": "view",
      "type": "function"
    },
    {
      "inputs": [],
      "name": "versionRecipient",
      "outputs": [
        {
          "internalType": "string",
          "name": "",
          "type": "string"
        }
      ],
      "stateMutability": "pure",
      "type": "function"
    }
  ],
  "transactionHash": "0x15941b68cdb50389205affe30e69370281dc91592ee8343f88317569bc0caef9",
  "args": [],
  "numDeployments": 1,
  "solcInputHash": "30393b3060a535cd32ad26225a67306c",
  "bytecode": "0x608060405234801561001057600080fd5b506143cb806100206000396000f3fe608060405234801561001057600080fd5b50600436106102955760003560e01c8063796676be11610167578063b47c6a27116100ce578063ece90e9011610087578063ece90e9014610619578063f2fde38b14610621578063f3253c6314610634578063f851a44014610647578063f8c8765e1461065a578063fd6878cc1461066d57600080fd5b8063b47c6a271461059b578063b9bd5bb5146105ba578063cb25bb65146105cd578063d3b974a0146105e0578063da3bc85c146105f3578063dd8aae411461060657600080fd5b80639600abf9116101205780639600abf91461053457806397cd02e6146105475780639f86d4dd1461055a578063a08ce5201461056d578063a7645a2014610580578063af05a7491461059357600080fd5b8063796676be146104c45780637da0a877146104d75780637ed66ec6146104ea5780637fb2df42146104fd5780638da5cb5b146105105780639532a4331461052157600080fd5b80635042f9b61161020b5780635ad748e4116101c45780635ad748e4146104655780635b8e243d146104785780635c975abb1461048b5780636cc895a914610496578063704b6c02146104a9578063715018a6146104bc57600080fd5b80635042f9b6146103d75780635344cac9146103df5780635605af2c1461040557806357016b0a14610418578063572b6c051461042b5780635796d0b01461045d57600080fd5b806336c5d7241161025d57806336c5d7241461033357806338a871631461034657806340b8e57f14610369578063486ff0cd1461037c57806349445553146103a25780634f64b2be146103c457600080fd5b806309d23e241461029a5780630d8b76a8146102c0578063193ab102146102d55780631c60ffc3146102dd5780632630c12f14610308575b600080fd5b6102ad6102a8366004613317565b610680565b6040519081526020015b60405180910390f35b6102d36102ce366004613347565b6106a1565b005b6102ad610755565b6102ad6102eb366004613362565b60cc60209081526000928352604080842090915290825290205481565b60cf5461031b906001600160a01b031681565b6040516001600160a01b0390911681526020016102b7565b6102d3610341366004613317565b6107c7565b6103596103543660046133cf565b610ace565b6040516102b794939291906134ae565b6102ad6103773660046133cf565b610bc8565b6040805180820190915260018152603160f81b60208201525b6040516102b79190613553565b6103b56103b0366004613317565b610c3f565b6040516102b793929190613566565b61031b6103d2366004613317565b610c8c565b6102ad610cb6565b6103f26103ed366004613347565b610d01565b6040516102b7979695949392919061359f565b6102ad6104133660046133cf565b610d62565b6102d3610426366004613362565b610e3e565b61044d610439366004613347565b6000546001600160a01b0391821691161490565b60405190151581526020016102b7565b610359611069565b6102d3610473366004613636565b6110bc565b6102d3610486366004613660565b6112f8565b60655460ff1661044d565b6102d36104a4366004613755565b6115eb565b6102d36104b7366004613347565b61164b565b6102d36116ee565b6103956104d2366004613317565b611743565b60005461031b906001600160a01b031681565b6103b56104f83660046133cf565b6117ef565b6102d361050b36600461381f565b611889565b6097546001600160a01b031661031b565b60ce5461031b906001600160a01b031681565b6103f26105423660046133cf565b6119dd565b6102ad6105553660046138f9565b611b12565b6102ad610568366004613636565b611bdf565b6102ad61057b3660046133cf565b611d5b565b6102ad61058e366004613317565b611dcb565b6102ad611ddb565b6105a3611e26565b6040805192835260ff9091166020830152016102b7565b6102d36105c8366004613347565b611ec1565b6103596105db366004613997565b611f2c565b6103b56105ee366004613a1e565b61212a565b6102ad610601366004613aad565b612461565b6102ad6106143660046138f9565b61254a565b6102ad61259b565b6102d361062f366004613347565b6125e6565b60d15461031b906001600160a01b031681565b60cd5461031b906001600160a01b031681565b6102d3610668366004613b10565b6126a0565b6102ad61067b3660046133cf565b61298b565b60c9818154811061069057600080fd5b600091825260209091200154905081565b6106a96129ef565b6001600160a01b03166106c46097546001600160a01b031690565b6001600160a01b0316146106f35760405162461bcd60e51b81526004016106ea90613b64565b60405180910390fd5b600080546001600160a01b038381166001600160a01b031983168117909355604080519190921680825260208201939093527f56b079178193d2a52b3949d9cd8bc5503daadffd4a704722e18b8325021a974191015b60405180910390a15050565b6040805160048152602481018252602080820180516001600160e01b0316630c9d588160e11b179052825160009181018290529092309260d09290916315816bcb60e21b91015b60408051601f1981840301815290829052630556f18360e41b82526106ea9594939291600401613bd4565b6107cf6129ef565b6001600160a01b03166107ea6097546001600160a01b031690565b6001600160a01b0316146108105760405162461bcd60e51b81526004016106ea90613b64565b60ca548082106108505760405162461bcd60e51b815260206004820152600b60248201526a125b9d985b1a59081d1a5960aa1b60448201526064016106ea565b600060c9838154811061086557610865613d01565b90600052602060002001549050600060ca848154811061088757610887613d01565b600091825260208220015460cb80546001600160a01b03909216935090869081106108b4576108b4613d01565b9060005260206000200154905060c96001856108d09190613d2d565b815481106108e0576108e0613d01565b906000526020600020015460c986815481106108fe576108fe613d01565b60009182526020909120015560c980548061091b5761091b613d44565b6001900381819060005260206000200160009055905560ca6001856109409190613d2d565b8154811061095057610950613d01565b60009182526020909120015460ca80546001600160a01b03909216918790811061097c5761097c613d01565b9060005260206000200160006101000a8154816001600160a01b0302191690836001600160a01b0316021790555060ca8054806109bb576109bb613d44565b600082815260209020810160001990810180546001600160a01b031916905501905560cb6109ea600186613d2d565b815481106109fa576109fa613d01565b906000526020600020015460cb8681548110610a1857610a18613d01565b60009182526020909120015560cb805480610a3557610a35613d44565b60008281526020808220830160001990810183905590920190925584825260cc815260408083206001600160a01b0386168452909152812055610a766129fe565b604080518481526001600160a01b0384166020820152908101829052606081018690527fd8cc1d279bf727e9ee02c4ed116f7c12f4965ace9b477482de71a7929a1871b3906080015b60405180910390a15050505050565b60608080806000808080610ae48b8d018d613d7a565b93509350935093506000610b7582868686604051602001610b0793929190613e79565b60408051601f198184030181529082905280516020918201207f19457468657265756d205369676e6564204d6573736167653a0a33320000000091830191909152603c820152605c015b60405160208183030381529060405280519060200120612b4190919063ffffffff16565b60d1549091506001600160a01b03808316911614610ba55760405162461bcd60e51b81526004016106ea90613ea0565b610bb0858585611f2c565b98509850985098505050505050945094509450949050565b6000808080610bd987890189613ecd565b9250925092506000610bf8828585604051602001610b07929190613f4a565b60d1549091506001600160a01b03808316911614610c285760405162461bcd60e51b81526004016106ea90613ea0565b610c328484612461565b9998505050505050505050565b6040805160048152602481018252602080820180516001600160e01b0316633c1d708960e01b179052825190810184905260609283928392309260d09291633f6b376360e11b910161079c565b60ca8181548110610c9c57600080fd5b6000918252602090912001546001600160a01b0316905081565b6040805160048152602481018252602080820180516001600160e01b03166328217cdb60e11b179052825160009181018290529092309260d0929091630504672960e51b910161079c565b6040805160048152602481018252602080820180516001600160e01b0316630ba9805f60e31b17905282516001600160a01b03851691810191909152606092839283928392839283928392309260d0929091639600abf960e01b910161079c565b6000808080610d7387890189613ecd565b9250925092506000610d92828585604051602001610b07929190613f4a565b60d1549091506001600160a01b03808316911614610dc25760405162461bcd60e51b81526004016106ea90613ea0565b82518015610de85783600081518110610ddd57610ddd613d01565b602002602001015195505b60015b81811015610e30576000858281518110610e0757610e07613d01565b6020026020010151905080881115610e1d578097505b5080610e2881613f59565b915050610deb565b505050505050949350505050565b610e466129ef565b6001600160a01b0316610e616097546001600160a01b031690565b6001600160a01b031614610e875760405162461bcd60e51b81526004016106ea90613b64565b600082815260cc602090815260408083206001600160a01b038516845290915290205480158015610ed6575060c9600081548110610ec757610ec7613d01565b90600052602060002001548314155b8015610f0d575060ca600081548110610ef157610ef1613d01565b6000918252602090912001546001600160a01b03838116911614155b610f495760405162461bcd60e51b815260206004820152600d60248201526c105b1c9958591e481859191959609a1b60448201526064016106ea565b60c9805460018082019092557f66be4f155c5ef2ebd3772b228f2f00681e4ed5826cdb3b1943cc11ad15ad1d280184905560ca805480830182557f42d72674974f694b5f5159593243114d38a5c39c89d6b62fee061ff523240ee10180546001600160a01b0319166001600160a01b03861617905560cb8054808401825560009182527fa7ce836d032b2bf62b7e2097a8e0a6d8aeb35405ad15271e96d3b0188a1d06fb015554610ffa9190613d2d565b600084815260cc602090815260408083206001600160a01b038716808552908352928190208490558051878152918201929092529081018290529091507fefa15d4fefbb71d07b3cdc624ab208ebe2d3b6933946582fd8b807e8a5bc93cc9060600160405180910390a1505050565b6040805160048152602481018252602080820180516001600160e01b03166305796d0b60e41b1790528251600091810191909152606092839283928392309260d09290916338a8716360e01b910161079c565b6097546001600160a01b03163314806110df575060cd546001600160a01b031633145b6111215760405162461bcd60e51b815260206004820152601360248201527227b7363c9037bbb732b91037b91030b236b4b760691b60448201526064016106ea565b600260015414156111745760405162461bcd60e51b815260206004820152601f60248201527f5265656e7472616e637947756172643a207265656e7472616e742063616c6c0060448201526064016106ea565b60026001558015801590611204575060ce546040516370a0823160e01b81526001600160a01b038481166004830152909116906370a082319060240160206040518083038186803b1580156111c857600080fd5b505afa1580156111dc573d6000803e3d6000fd5b505050506040513d601f19601f820116820180604052508101906112009190613f74565b8111155b6112475760405162461bcd60e51b8152602060048201526014602482015273125b9d985b1a59081cda185c9948185b5bdd5b9d60621b60448201526064016106ea565b60ce5460405163079cc67960e41b81526001600160a01b03848116600483015260248201849052909116906379cc679090604401600060405180830381600087803b15801561129557600080fd5b505af11580156112a9573d6000803e3d6000fd5b5050604080516001600160a01b0386168152602081018590527fcc16f5dbb4873280815c1ee09dbd06736cffcc184412cf7a71a0fdb75d397ca5935001905060405180910390a1505060018055565b6097546001600160a01b031633148061131b575060cd546001600160a01b031633145b61135d5760405162461bcd60e51b815260206004820152601360248201527227b7363c9037bbb732b91037b91030b236b4b760691b60448201526064016106ea565b600260015414156113b05760405162461bcd60e51b815260206004820152601f60248201527f5265656e7472616e637947756172643a207265656e7472616e742063616c6c0060448201526064016106ea565b600260015560655460ff16156113fb5760405162461bcd60e51b815260206004820152601060248201526f14185d5cd8589b194e881c185d5cd95960821b60448201526064016106ea565b600080611406611e26565b9092509050600061141882600a614071565b836114288664e8d4a51000614080565b6114329190614080565b61143c919061409f565b905085811061144c576000611456565b6114568187613d2d565b9550600060ce60009054906101000a90046001600160a01b03166001600160a01b03166318160ddd6040518163ffffffff1660e01b815260040160206040518083038186803b1580156114a857600080fd5b505afa1580156114bc573d6000803e3d6000fd5b505050506040513d601f19601f820116820180604052508101906114e09190613f74565b905060008715806114ef575081155b61150d57876114fe8484614080565b611508919061409f565b61150f565b825b90506103e8611520826103e5614080565b61152a919061409f565b60ce546040516340c10f1960e01b81526001600160a01b038a81166004830152602482018490529293509116906340c10f1990604401600060405180830381600087803b15801561157a57600080fd5b505af115801561158e573d6000803e3d6000fd5b5050604080516001600160a01b038b168152602081018790529081018490527f4c209b5fc8ad50758f13e2e1088ba56a560dff690a1c6fef26394f4c03821c4f9250606001905060405180910390a1505060018055505050505050565b6115f36129ef565b6001600160a01b031661160e6097546001600160a01b031690565b6001600160a01b0316146116345760405162461bcd60e51b81526004016106ea90613b64565b80516116479060d09060208401906131ce565b5050565b6116536129ef565b6001600160a01b031661166e6097546001600160a01b031690565b6001600160a01b0316146116945760405162461bcd60e51b81526004016106ea90613b64565b60cd80546001600160a01b038381166001600160a01b031983168117909355604080519190921680825260208201939093527f9f0ac88be9159761bacf6c9e7c294c397ebf594607f6b3f2f70e7e0841ea68e89101610749565b6116f66129ef565b6001600160a01b03166117116097546001600160a01b031690565b6001600160a01b0316146117375760405162461bcd60e51b81526004016106ea90613b64565b6117416000612b5d565b565b60d0818154811061175357600080fd5b90600052602060002001600091509050805461176e90613b99565b80601f016020809104026020016040519081016040528092919081815260200182805461179a90613b99565b80156117e75780601f106117bc576101008083540402835291602001916117e7565b820191906000526020600020905b8154815290600101906020018083116117ca57829003601f168201915b505050505081565b60608080600061180185870187613317565b905060008080806118148b8d018d613d7a565b9350935093509350600061183782868686604051602001610b0793929190613e79565b60d1549091506001600160a01b038083169116146118675760405162461bcd60e51b81526004016106ea90613ea0565b6118738585858961212a565b9850985098505050505050509450945094915050565b6118916129ef565b6001600160a01b03166118ac6097546001600160a01b031690565b6001600160a01b0316146118d25760405162461bcd60e51b81526004016106ea90613b64565b60cb54819081146119155760405162461bcd60e51b815260206004820152600d60248201526c125b9d985b1a590818dbdd5b9d609a1b60448201526064016106ea565b6000805b828110156119915784848281811061193357611933613d01565b9050602002013560cb828154811061194d5761194d613d01565b60009182526020909120015584848281811061196b5761196b613d01565b905060200201358261197d91906140c1565b91508061198981613f59565b915050611919565b5061271081146119d75760405162461bcd60e51b815260206004820152601160248201527024b73b30b634b2103830b930b6b2ba32b960791b60448201526064016106ea565b50505050565b6060808080808080806119f28b8d018d6140d9565b604051979f50959d50939b509199509750955093509150600090611a24908a908a908a908a908a908a90602001614218565b604051602081830303815290604052805190602001209050600083604051602001611a4f919061424b565b60408051808303601f19018152828252805160209182012081840186905283830181905282518085038401815260608501909352825192909101919091207f19457468657265756d205369676e6564204d6573736167653a0a3332000000006080840152609c830181905290925090600090611acf90869060bc01610b51565b60d1549091506001600160a01b03808316911614611aff5760405162461bcd60e51b81526004016106ea90613ea0565b5050505050949950949992975094509450565b60008060ce60009054906101000a90046001600160a01b03166001600160a01b03166318160ddd6040518163ffffffff1660e01b815260040160206040518083038186803b158015611b6357600080fd5b505afa158015611b77573d6000803e3d6000fd5b505050506040513d601f19601f82011682018060405250810190611b9b9190613f74565b905080611bb25750670de0b6b3a764000092915050565b80611bbc8461254a565b611bce90670de0b6b3a7640000614080565b611bd8919061409f565b9392505050565b6000816000108015611c6d575060ce546040516370a0823160e01b81526001600160a01b038581166004830152909116906370a082319060240160206040518083038186803b158015611c3157600080fd5b505afa158015611c45573d6000803e3d6000fd5b505050506040513d601f19601f82011682018060405250810190611c699190613f74565b8211155b611cb05760405162461bcd60e51b8152602060048201526014602482015273125b9d985b1a59081cda185c9948185b5bdd5b9d60621b60448201526064016106ea565b60ce60009054906101000a90046001600160a01b03166001600160a01b03166318160ddd6040518163ffffffff1660e01b815260040160206040518083038186803b158015611cfe57600080fd5b505afa158015611d12573d6000803e3d6000fd5b505050506040513d601f19601f82011682018060405250810190611d369190613f74565b611d4883670de0b6b3a7640000614080565b611d52919061409f565b90505b92915050565b60008080611d6b86880188614257565b915091506000611d868284604051602001610b07919061424b565b60d1549091506001600160a01b03808316911614611db65760405162461bcd60e51b81526004016106ea90613ea0565b611dbf8361254a565b98975050505050505050565b60cb818154811061069057600080fd5b6040805160048152602481018252602080820180516001600160e01b031663af05a74960e01b179052825160009181018290529092309260d0929091633f5a1e3360e21b910161079c565b60cf5460405163b3596f0760e01b81527321e48034753e490ff04f2f75f7caedf081b320d5600482015260009182916001600160a01b039091169063b3596f0790602401604080518083038186803b158015611e8157600080fd5b505afa158015611e95573d6000803e3d6000fd5b505050506040513d601f19601f82011682018060405250810190611eb991906142b0565b915091509091565b611ec96129ef565b6001600160a01b0316611ee46097546001600160a01b031690565b6001600160a01b031614611f0a5760405162461bcd60e51b81526004016106ea90613b64565b60d180546001600160a01b0319166001600160a01b0392909216919091179055565b606080606080611f3d878787612baf565b80519092506000805b82811015611f8757848181518110611f6057611f60613d01565b602002602001015182611f7391906140c1565b915080611f7f81613f59565b915050611f46565b50816001600160401b03811115611fa057611fa0613695565b604051908082528060200260200182016040528015611fc9578160200160208202803683370190505b50925060005b828110156120625781156120145781612710868381518110611ff357611ff3613d01565b60200260200101516120059190614080565b61200f919061409f565b612033565b60cb818154811061202757612027613d01565b90600052602060002001545b84828151811061204557612045613d01565b60209081029190910101528061205a81613f59565b915050611fcf565b5060c960ca8585838054806020026020016040519081016040528092919081815260200182805480156120b457602002820191906000526020600020905b8154815260200190600101908083116120a0575b505050505093508280548060200260200160405190810160405280929190818152602001828054801561211057602002820191906000526020600020905b81546001600160a01b031681526001909101906020018083116120f2575b505050505092509550955095509550505093509350935093565b606080606060008061213d898989611f2c565b935093505050600081519050600080612154611e26565b9092509050600061216682600a614071565b836121768c64e8d4a51000614080565b6121809190614080565b61218a919061409f565b905060005b848110156121d0578681815181106121a9576121a9613d01565b6020026020010151826121bc91906140c1565b9150806121c881613f59565b91505061218f565b50600080856001600160401b038111156121ec576121ec613695565b604051908082528060200260200182016040528015612215578160200160208202803683370190505b50905060005b868110156122e657600061271060cb838154811061223b5761223b613d01565b9060005260206000200154866122519190614080565b61225b919061409f565b9050808a838151811061227057612270613d01565b602002602001015110156122d35760008a838151811061229257612292613d01565b6020026020010151826122a59190613d2d565b9050808484815181106122ba576122ba613d01565b60209081029190910101526122cf81866140c1565b9450505b50806122de81613f59565b91505061221b565b50856001600160401b038111156122ff576122ff613695565b604051908082528060200260200182016040528015612328578160200160208202803683370190505b50985060005b86811015612395578282828151811061234957612349613d01565b60200260200101518e61235c9190614080565b612366919061409f565b8a828151811061237857612378613d01565b60209081029190910101528061238d81613f59565b91505061232e565b5060c960ca8a828054806020026020016040519081016040528092919081815260200182805480156123e657602002820191906000526020600020905b8154815260200190600101908083116123d2575b505050505092508180548060200260200160405190810160405280929190818152602001828054801561244257602002820191906000526020600020905b81546001600160a01b03168152600190910190602001808311612424575b505050505091509a509a509a5050505050505050509450945094915050565b815181516000919081146124b05760405162461bcd60e51b815260206004820152601660248201527509cdee840dac2e8c6d040c2e4e4c2f240d8cadccee8d60531b60448201526064016106ea565b60006124bb8561254a565b9050806124cd57600092505050611d55565b6000805b83811015612535578681815181106124eb576124eb613d01565b602002602001015186828151811061250557612505613d01565b60200260200101516125179190614080565b61252190836140c1565b91508061252d81613f59565b9150506124d1565b50612540828261409f565b9695505050505050565b805160009081805b828110156125935784818151811061256c5761256c613d01565b60200260200101518261257f91906140c1565b91508061258b81613f59565b915050612552565b509392505050565b6040805160048152602481018252602080820180516001600160e01b0316630ece90e960e41b179052825160009181018290529092309260d09290916340b8e57f60e01b910161079c565b6125ee6129ef565b6001600160a01b03166126096097546001600160a01b031690565b6001600160a01b03161461262f5760405162461bcd60e51b81526004016106ea90613b64565b6001600160a01b0381166126945760405162461bcd60e51b815260206004820152602660248201527f4f776e61626c653a206e6577206f776e657220697320746865207a65726f206160448201526564647265737360d01b60648201526084016106ea565b61269d81612b5d565b50565b60006126ac6001612d3f565b905080156126c8576000805460ff60a81b1916600160a81b1790555b6126d0612ddf565b60cd80546001600160a01b038088166001600160a01b0319928316179092556000805487841690831617815560ce805487851690841617905560cf80549386169383169390931790925560c980546001818101835560047f66be4f155c5ef2ebd3772b228f2f00681e4ed5826cdb3b1943cc11ad15ad1d2892830181905560ca805480840182557f42d72674974f694b5f5159593243114d38a5c39c89d6b62fee061ff523240ee19081018054881673eeeeeeeeeeeeeeeeeeeeeeeeeeeeeeeeeeeeeeee9081179091558654808601885586019390935581548085018355810180548816737d1afa7b718fb893db30a3abc0cfc608aacfebb01790558554808501875560619086015581548085018355810180548816841790558554808501875561a86990860155815480850183558101805488169093179092558454808401909555634e4541539490930193909355815480820190925591018054909216734861825e75ab14553e5af711ebbe6873d369d1461790915560cb80548083018255928190526107d07fa7ce836d032b2bf62b7e2097a8e0a6d8aeb35405ad15271e96d3b0188a1d06fb93840181905581548084018355840181905581548084018355840181905581548084018355840181905581549283019091559101556128b66129fe565b60d0805460018101825560009190915260408051808201909152601680825275687474703a2f2f6c6f63616c686f73743a383030312f60501b6020909201918252612924927fe89d44c8fd6a9bac8af33ce47f56337617d449bf7ff3956b618c646de829cbcb01919061322b565b5060d180546001600160a01b0319166001600160a01b0387161790558015612984576000805460ff60a81b19169055604051600181527f7f26b83ff96e1f2b6a682f133852f6798a09c465da95921460cefb384740249890602001610abf565b5050505050565b6000808061299b86880188614257565b9150915060006129b68284604051602001610b07919061424b565b60d1549091506001600160a01b038083169116146129e65760405162461bcd60e51b81526004016106ea90613ea0565b611dbf83611b12565b60006129f9612e10565b905090565b600060c9805480602002602001604051908101604052809291908181526020018280548015612a4c57602002820191906000526020600020905b815481526020019060010190808311612a38575b50505050509050600060ca805480602002602001604051908101604052809291908181526020018280548015612aab57602002820191906000526020600020905b81546001600160a01b03168152600190910190602001808311612a8d575b505083519394506000925050505b818110156119d7578060cc6000868481518110612ad857612ad8613d01565b602002602001015181526020019081526020016000206000858481518110612b0257612b02613d01565b60200260200101516001600160a01b03166001600160a01b03168152602001908152602001600020819055508080612b3990613f59565b915050612ab9565b6000806000612b508585612e44565b9150915061259381612eb4565b609780546001600160a01b038381166001600160a01b0319831681179093556040519116919082907f8be0079c531659141344cd1fd0a4f28419497f9722a3daafe3b4186f6b6457e090600090a35050565b815160ca5460609190806001600160401b03811115612bd057612bd0613695565b604051908082528060200260200182016040528015612bf9578160200160208202803683370190505b50925060005b82811015612d35576000878281518110612c1b57612c1b613d01565b602002602001015190506000878381518110612c3957612c39613d01565b602090810291909101810151600084815260cc835260408082206001600160a01b03841683529093529190912054909150808511612c7957505050612d23565b80158015612cda575060c9600081548110612c9657612c96613d01565b906000526020600020015483141580612cda575060ca600081548110612cbe57612cbe613d01565b6000918252602090912001546001600160a01b03838116911614155b15612ce757505050612d23565b878481518110612cf957612cf9613d01565b6020026020010151878281518110612d1357612d13613d01565b6020026020010181815250505050505b80612d2d81613f59565b915050612bff565b5050509392505050565b60008054600160a81b900460ff1615612d88578160ff166001148015612d645750303b155b612d805760405162461bcd60e51b81526004016106ea906142e6565b506000919050565b60005460ff808416600160a01b9092041610612db65760405162461bcd60e51b81526004016106ea906142e6565b506000805460ff909216600160a01b0260ff60a01b19909216919091179055600190565b919050565b600054600160a81b900460ff16612e085760405162461bcd60e51b81526004016106ea90614334565b61174161306f565b600060183610801590612e2d57506000546001600160a01b031633145b15612e3f575060131936013560601c90565b503390565b600080825160411415612e7b5760208301516040840151606085015160001a612e6f878285856130a8565b94509450505050612ead565b825160401415612ea55760208301516040840151612e9a868383613195565b935093505050612ead565b506000905060025b9250929050565b6000816004811115612ec857612ec861437f565b1415612ed15750565b6001816004811115612ee557612ee561437f565b1415612f335760405162461bcd60e51b815260206004820152601860248201527f45434453413a20696e76616c6964207369676e6174757265000000000000000060448201526064016106ea565b6002816004811115612f4757612f4761437f565b1415612f955760405162461bcd60e51b815260206004820152601f60248201527f45434453413a20696e76616c6964207369676e6174757265206c656e6774680060448201526064016106ea565b6003816004811115612fa957612fa961437f565b14156130025760405162461bcd60e51b815260206004820152602260248201527f45434453413a20696e76616c6964207369676e6174757265202773272076616c604482015261756560f01b60648201526084016106ea565b60048160048111156130165761301661437f565b141561269d5760405162461bcd60e51b815260206004820152602260248201527f45434453413a20696e76616c6964207369676e6174757265202776272076616c604482015261756560f01b60648201526084016106ea565b600054600160a81b900460ff166130985760405162461bcd60e51b81526004016106ea90614334565b6117416130a36129ef565b612b5d565b6000807f7fffffffffffffffffffffffffffffff5d576e7357a4501ddfe92f46681b20a08311156130df575060009050600361318c565b8460ff16601b141580156130f757508460ff16601c14155b15613108575060009050600461318c565b6040805160008082526020820180845289905260ff881692820192909252606081018690526080810185905260019060a0016020604051602081039080840390855afa15801561315c573d6000803e3d6000fd5b5050604051601f1901519150506001600160a01b0381166131855760006001925092505061318c565b9150600090505b94509492505050565b6000806001600160ff1b038316816131b260ff86901c601b6140c1565b90506131c0878288856130a8565b935093505050935093915050565b82805482825590600052602060002090810192821561321b579160200282015b8281111561321b578251805161320b91849160209091019061322b565b50916020019190600101906131ee565b506132279291506132ab565b5090565b82805461323790613b99565b90600052602060002090601f016020900481019282613259576000855561329f565b82601f1061327257805160ff191683800117855561329f565b8280016001018555821561329f579182015b8281111561329f578251825591602001919060010190613284565b506132279291506132c8565b808211156132275760006132bf82826132dd565b506001016132ab565b5b8082111561322757600081556001016132c9565b5080546132e990613b99565b6000825580601f106132f9575050565b601f01602090049060005260206000209081019061269d91906132c8565b60006020828403121561332957600080fd5b5035919050565b80356001600160a01b0381168114612dda57600080fd5b60006020828403121561335957600080fd5b611d5282613330565b6000806040838503121561337557600080fd5b8235915061338560208401613330565b90509250929050565b60008083601f8401126133a057600080fd5b5081356001600160401b038111156133b757600080fd5b602083019150836020828501011115612ead57600080fd5b600080600080604085870312156133e557600080fd5b84356001600160401b03808211156133fc57600080fd5b6134088883890161338e565b9096509450602087013591508082111561342157600080fd5b5061342e8782880161338e565b95989497509550505050565b600081518084526020808501945080840160005b8381101561346a5781518752958201959082019060010161344e565b509495945050505050565b600081518084526020808501945080840160005b8381101561346a5781516001600160a01b031687529582019590820190600101613489565b6080815260006134c1608083018761343a565b82810360208401526134d38187613475565b905082810360408401526134e7818661343a565b905082810360608401526134fb818561343a565b979650505050505050565b6000815180845260005b8181101561352c57602081850181015186830182015201613510565b8181111561353e576000602083870101525b50601f01601f19169290920160200192915050565b602081526000611d526020830184613506565b606081526000613579606083018661343a565b828103602084015261358b8186613475565b90508281036040840152612540818561343a565b60e0815260006135b260e083018a61343a565b82810360208401526135c4818a613475565b905082810360408401526135d8818961343a565b905082810360608401526135ec818861343a565b90508281036080840152613600818761343a565b905082810360a0840152613614818661343a565b905082810360c0840152613628818561343a565b9a9950505050505050505050565b6000806040838503121561364957600080fd5b61365283613330565b946020939093013593505050565b60008060006060848603121561367557600080fd5b8335925061368560208501613330565b9150604084013590509250925092565b634e487b7160e01b600052604160045260246000fd5b604051601f8201601f191681016001600160401b03811182821017156136d3576136d3613695565b604052919050565b60006001600160401b038211156136f4576136f4613695565b5060051b60200190565b60006001600160401b0383111561371757613717613695565b61372a601f8401601f19166020016136ab565b905082815283838301111561373e57600080fd5b828260208301376000602084830101529392505050565b6000602080838503121561376857600080fd5b82356001600160401b038082111561377f57600080fd5b818501915085601f83011261379357600080fd5b81356137a66137a1826136db565b6136ab565b81815260059190911b830184019084810190888311156137c557600080fd5b8585015b83811015613812578035858111156137e15760008081fd5b8601603f81018b136137f35760008081fd5b6138048b89830135604084016136fe565b8452509186019186016137c9565b5098975050505050505050565b6000806020838503121561383257600080fd5b82356001600160401b038082111561384957600080fd5b818501915085601f83011261385d57600080fd5b81358181111561386c57600080fd5b8660208260051b850101111561388157600080fd5b60209290920196919550909350505050565b600082601f8301126138a457600080fd5b813560206138b46137a1836136db565b82815260059290921b840181019181810190868411156138d357600080fd5b8286015b848110156138ee57803583529183019183016138d7565b509695505050505050565b60006020828403121561390b57600080fd5b81356001600160401b0381111561392157600080fd5b61392d84828501613893565b949350505050565b600082601f83011261394657600080fd5b813560206139566137a1836136db565b82815260059290921b8401810191818101908684111561397557600080fd5b8286015b848110156138ee5761398a81613330565b8352918301918301613979565b6000806000606084860312156139ac57600080fd5b83356001600160401b03808211156139c357600080fd5b6139cf87838801613893565b945060208601359150808211156139e557600080fd5b6139f187838801613935565b93506040860135915080821115613a0757600080fd5b50613a1486828701613893565b9150509250925092565b60008060008060808587031215613a3457600080fd5b84356001600160401b0380821115613a4b57600080fd5b613a5788838901613893565b95506020870135915080821115613a6d57600080fd5b613a7988838901613935565b94506040870135915080821115613a8f57600080fd5b50613a9c87828801613893565b949793965093946060013593505050565b60008060408385031215613ac057600080fd5b82356001600160401b0380821115613ad757600080fd5b613ae386838701613893565b93506020850135915080821115613af957600080fd5b50613b0685828601613893565b9150509250929050565b60008060008060808587031215613b2657600080fd5b613b2f85613330565b9350613b3d60208601613330565b9250613b4b60408601613330565b9150613b5960608601613330565b905092959194509250565b6020808252818101527f4f776e61626c653a2063616c6c6572206973206e6f7420746865206f776e6572604082015260600190565b600181811c90821680613bad57607f821691505b60208210811415613bce57634e487b7160e01b600052602260045260246000fd5b50919050565b600060a0820160018060a01b0388168352602060a08185015281885480845260c08601915060c08160051b870101935060008a8152838120815b83811015613cc55788870360bf1901855281548390600181811c9080831680613c3857607f831692505b8a8310811415613c5657634e487b7160e01b88526022600452602488fd5b828c5260208c01818015613c715760018114613c8257613cac565b60ff19861682528c82019650613cac565b6000898152602090208a5b86811015613ca657815484820152908501908e01613c8d565b83019750505b50949b5050978901979490940193505050600101613c0e565b5050505050508281036040840152613cdd8187613506565b6001600160e01b03198616606085015290508281036080840152611dbf8185613506565b634e487b7160e01b600052603260045260246000fd5b634e487b7160e01b600052601160045260246000fd5b600082821015613d3f57613d3f613d17565b500390565b634e487b7160e01b600052603160045260246000fd5b600082601f830112613d6b57600080fd5b611d52838335602085016136fe565b60008060008060808587031215613d9057600080fd5b84356001600160401b0380821115613da757600080fd5b613db388838901613893565b95506020870135915080821115613dc957600080fd5b613dd588838901613935565b94506040870135915080821115613deb57600080fd5b613df788838901613893565b93506060870135915080821115613e0d57600080fd5b50613e1a87828801613d5a565b91505092959194509250565b8051600090602080840183831561346a5781518752958201959082019060010161344e565b8051600090602080840183831561346a5781516001600160a01b031687529582019590820190600101613489565b6000613e97613e91613e8b8488613e26565b86613e4b565b84613e26565b95945050505050565b60208082526013908201527214da59db995c881a5cc81a5b98dbdc9c9958dd606a1b604082015260600190565b600080600060608486031215613ee257600080fd5b83356001600160401b0380821115613ef957600080fd5b613f0587838801613893565b94506020860135915080821115613f1b57600080fd5b613f2787838801613893565b93506040860135915080821115613f3d57600080fd5b50613a1486828701613d5a565b600061392d613e918386613e26565b6000600019821415613f6d57613f6d613d17565b5060010190565b600060208284031215613f8657600080fd5b5051919050565b600181815b80851115613fc8578160001904821115613fae57613fae613d17565b80851615613fbb57918102915b93841c9390800290613f92565b509250929050565b600082613fdf57506001611d55565b81613fec57506000611d55565b8160018114614002576002811461400c57614028565b6001915050611d55565b60ff84111561401d5761401d613d17565b50506001821b611d55565b5060208310610133831016604e8410600b841016171561404b575081810a611d55565b6140558383613f8d565b806000190482111561406957614069613d17565b029392505050565b6000611d5260ff841683613fd0565b600081600019048311821515161561409a5761409a613d17565b500290565b6000826140bc57634e487b7160e01b600052601260045260246000fd5b500490565b600082198211156140d4576140d4613d17565b500190565b600080600080600080600080610100898b0312156140f657600080fd5b88356001600160401b038082111561410d57600080fd5b6141198c838d01613893565b995060208b013591508082111561412f57600080fd5b61413b8c838d01613935565b985060408b013591508082111561415157600080fd5b61415d8c838d01613893565b975060608b013591508082111561417357600080fd5b61417f8c838d01613893565b965060808b013591508082111561419557600080fd5b6141a18c838d01613893565b955060a08b01359150808211156141b757600080fd5b6141c38c838d01613893565b945060c08b01359150808211156141d957600080fd5b6141e58c838d01613893565b935060e08b01359150808211156141fb57600080fd5b506142088b828c01613d5a565b9150509295985092959890939650565b6000611dbf613e9161424561423f614239614233878e613e26565b8c613e4b565b8a613e26565b88613e26565b86613e26565b6000611d528284613e26565b6000806040838503121561426a57600080fd5b82356001600160401b038082111561428157600080fd5b61428d86838701613893565b935060208501359150808211156142a357600080fd5b50613b0685828601613d5a565b600080604083850312156142c357600080fd5b82519150602083015160ff811681146142db57600080fd5b809150509250929050565b6020808252602e908201527f496e697469616c697a61626c653a20636f6e747261637420697320616c72656160408201526d191e481a5b9a5d1a585b1a5e995960921b606082015260800190565b6020808252602b908201527f496e697469616c697a61626c653a20636f6e7472616374206973206e6f74206960408201526a6e697469616c697a696e6760a81b606082015260800190565b634e487b7160e01b600052602160045260246000fdfea264697066735822122014c604d24fdd1facf1f6469dbcd72ee2fa85765d03d5a0b1ff6de9cd9140c1e564736f6c63430008090033",
  "devdoc": {
    "kind": "dev",
    "methods": {
      "burnByAdmin(address,uint256)": {
        "details": "mint STIs according to the deposited USDT",
        "params": {
          "_account": "account to which STIs will be minted",
          "_share": "amount of STI to be burnt"
        }
      },
      "getDepositTokenComposition(uint256[],address[],uint256[],uint256)": {
        "params": {
          "_USDTAmt": "amount of USDT with 6 decimals"
        },
        "returns": {
          "_0": "_USDTAmts amount of USDT should be deposited to each pools"
        }
      },
      "getPoolsUnbonded1(address)": {
        "returns": {
          "_0": "_chainIDs is an array of chain IDs.",
          "_1": "_tokens is an array of tokens.",
          "_2": "_waitings is an array of token amounts that is not unbonded.",
          "_3": "_waitingInUSDs is an array of USD value of token amounts that is not unbonded.",
          "_4": "_unbondeds is an array of token amounts that is unbonded.",
          "_5": "_unbondedInUSDs is an array USD value of token amounts that is unbonded.",
          "_6": "_waitForTses is an array of timestamps to wait to the next claim."
        }
      },
      "getUSDTPriceInUSD()": {
        "returns": {
          "_0": "the price of USDT in USD."
        }
      },
      "getWithdrawPerc(address,uint256)": {
        "params": {
          "_share": "amount of STI to be withdrawn"
        },
        "returns": {
          "_sharePerc": "percentage of assets which should be withdrawn. It's 18 decimals"
        }
      },
      "mintByAdmin(uint256,address,uint256)": {
        "details": "mint STIs according to the deposited USDT",
        "params": {
          "_USDTAmt": "the deposited amount of USDT with 6 decimals",
          "_account": "account to which STIs will be minted",
          "_pool": "total USD worth in all pools of STI after deposited"
        }
      },
      "owner()": {
        "details": "Returns the address of the current owner."
      },
      "paused()": {
        "details": "Returns true if the contract is paused, and false otherwise."
      },
      "renounceOwnership()": {
        "details": "Leaves the contract without owner. It will not be possible to call `onlyOwner` functions anymore. Can only be called by the current owner. NOTE: Renouncing ownership will leave the contract without an owner, thereby removing any functionality that is only available to the owner."
      },
      "transferOwnership(address)": {
        "details": "Transfers ownership of the contract to a new account (`newOwner`). Can only be called by the current owner."
      }
    },
    "version": 1
  },
  "userdoc": {
    "kind": "user",
    "methods": {
      "addToken(uint256,address)": {
        "notice": "After this method called, setTokenCompositionTargetPerc should be called to adjust percentages."
      },
      "getAPR(uint256[],uint256[])": {
        "notice": "The length of array is based on network count. And the lengths should be same on the arraies."
      },
      "getAllPoolInUSD(uint256[])": {
        "notice": "The length of array is based on network count. And the lengths should be same on the arraies."
      },
      "getCurrentTokenCompositionPerc(uint256[],address[],uint256[])": {
        "notice": "The length of array is based on token count. And the lengths should be same on the arraies."
      },
      "getDepositTokenComposition(uint256[],address[],uint256[],uint256)": {
        "notice": "The length of array is based on token count. And the lengths should be same on the arraies."
      },
      "getPricePerFullShare(uint256[])": {
        "notice": "Can be used for calculate both user shares & APR"
      },
      "isTrustedForwarder(address)": {
        "notice": "return if the forwarder is trusted to forward relayed transactions to us. the forwarder is required to verify the sender's signature, and verify the call is not a replay."
      },
      "removeToken(uint256)": {
        "notice": "After this method called, setTokenCompositionTargetPerc should be called to adjust percentages."
      },
      "setTokenCompositionTargetPerc(uint256[])": {
        "notice": "The length of array is based on token count."
      }
    },
    "version": 1
  },
  "storageLayout": {
    "storage": [
      {
        "astId": 53123,
        "contract": "contracts/sti/STIMinterTest.sol:STIMinterTest",
        "label": "trustedForwarder",
        "offset": 0,
        "slot": "0",
        "type": "t_address"
      },
      {
        "astId": 130,
        "contract": "contracts/sti/STIMinterTest.sol:STIMinterTest",
        "label": "_initialized",
        "offset": 20,
        "slot": "0",
        "type": "t_uint8"
      },
      {
        "astId": 133,
        "contract": "contracts/sti/STIMinterTest.sol:STIMinterTest",
        "label": "_initializing",
        "offset": 21,
        "slot": "0",
        "type": "t_bool"
      },
      {
        "astId": 390,
        "contract": "contracts/sti/STIMinterTest.sol:STIMinterTest",
        "label": "_status",
        "offset": 0,
        "slot": "1",
        "type": "t_uint256"
      },
      {
        "astId": 434,
        "contract": "contracts/sti/STIMinterTest.sol:STIMinterTest",
        "label": "__gap",
        "offset": 0,
        "slot": "2",
        "type": "t_array(t_uint256)49_storage"
      },
      {
        "astId": 2709,
        "contract": "contracts/sti/STIMinterTest.sol:STIMinterTest",
        "label": "__gap",
        "offset": 0,
        "slot": "51",
        "type": "t_array(t_uint256)50_storage"
      },
      {
        "astId": 286,
        "contract": "contracts/sti/STIMinterTest.sol:STIMinterTest",
        "label": "_paused",
        "offset": 0,
        "slot": "101",
        "type": "t_bool"
      },
      {
        "astId": 375,
        "contract": "contracts/sti/STIMinterTest.sol:STIMinterTest",
        "label": "__gap",
        "offset": 0,
        "slot": "102",
        "type": "t_array(t_uint256)49_storage"
      },
      {
        "astId": 10,
        "contract": "contracts/sti/STIMinterTest.sol:STIMinterTest",
        "label": "_owner",
        "offset": 0,
        "slot": "151",
        "type": "t_address"
      },
      {
        "astId": 122,
        "contract": "contracts/sti/STIMinterTest.sol:STIMinterTest",
        "label": "__gap",
        "offset": 0,
        "slot": "152",
        "type": "t_array(t_uint256)49_storage"
      },
      {
        "astId": 42586,
        "contract": "contracts/sti/STIMinterTest.sol:STIMinterTest",
        "label": "chainIDs",
        "offset": 0,
        "slot": "201",
        "type": "t_array(t_uint256)dyn_storage"
      },
      {
        "astId": 42589,
        "contract": "contracts/sti/STIMinterTest.sol:STIMinterTest",
        "label": "tokens",
        "offset": 0,
        "slot": "202",
        "type": "t_array(t_address)dyn_storage"
      },
      {
        "astId": 42592,
        "contract": "contracts/sti/STIMinterTest.sol:STIMinterTest",
        "label": "targetPercentages",
        "offset": 0,
        "slot": "203",
        "type": "t_array(t_uint256)dyn_storage"
      },
      {
        "astId": 42598,
        "contract": "contracts/sti/STIMinterTest.sol:STIMinterTest",
        "label": "tid",
        "offset": 0,
        "slot": "204",
        "type": "t_mapping(t_uint256,t_mapping(t_address,t_uint256))"
      },
      {
        "astId": 42600,
        "contract": "contracts/sti/STIMinterTest.sol:STIMinterTest",
        "label": "admin",
        "offset": 0,
        "slot": "205",
        "type": "t_address"
      },
      {
        "astId": 42603,
        "contract": "contracts/sti/STIMinterTest.sol:STIMinterTest",
        "label": "STI",
        "offset": 0,
        "slot": "206",
        "type": "t_contract(ISTI)42470"
      },
      {
        "astId": 42606,
        "contract": "contracts/sti/STIMinterTest.sol:STIMinterTest",
        "label": "priceOracle",
        "offset": 0,
        "slot": "207",
        "type": "t_contract(IPriceOracle)11071"
      },
      {
        "astId": 42609,
        "contract": "contracts/sti/STIMinterTest.sol:STIMinterTest",
        "label": "urls",
        "offset": 0,
        "slot": "208",
        "type": "t_array(t_string_storage)dyn_storage"
      },
      {
        "astId": 42611,
        "contract": "contracts/sti/STIMinterTest.sol:STIMinterTest",
        "label": "gatewaySigner",
        "offset": 0,
        "slot": "209",
        "type": "t_address"
      }
    ],
    "types": {
      "t_address": {
        "encoding": "inplace",
        "label": "address",
        "numberOfBytes": "20"
      },
      "t_array(t_address)dyn_storage": {
        "base": "t_address",
        "encoding": "dynamic_array",
        "label": "address[]",
        "numberOfBytes": "32"
      },
      "t_array(t_string_storage)dyn_storage": {
        "base": "t_string_storage",
        "encoding": "dynamic_array",
        "label": "string[]",
        "numberOfBytes": "32"
      },
      "t_array(t_uint256)49_storage": {
        "base": "t_uint256",
        "encoding": "inplace",
        "label": "uint256[49]",
        "numberOfBytes": "1568"
      },
      "t_array(t_uint256)50_storage": {
        "base": "t_uint256",
        "encoding": "inplace",
        "label": "uint256[50]",
        "numberOfBytes": "1600"
      },
      "t_array(t_uint256)dyn_storage": {
        "base": "t_uint256",
        "encoding": "dynamic_array",
        "label": "uint256[]",
        "numberOfBytes": "32"
      },
      "t_bool": {
        "encoding": "inplace",
        "label": "bool",
        "numberOfBytes": "1"
      },
      "t_contract(IPriceOracle)11071": {
        "encoding": "inplace",
        "label": "contract IPriceOracle",
        "numberOfBytes": "20"
      },
      "t_contract(ISTI)42470": {
        "encoding": "inplace",
        "label": "contract ISTI",
        "numberOfBytes": "20"
      },
      "t_mapping(t_address,t_uint256)": {
        "encoding": "mapping",
        "key": "t_address",
        "label": "mapping(address => uint256)",
        "numberOfBytes": "32",
        "value": "t_uint256"
      },
      "t_mapping(t_uint256,t_mapping(t_address,t_uint256))": {
        "encoding": "mapping",
        "key": "t_uint256",
        "label": "mapping(uint256 => mapping(address => uint256))",
        "numberOfBytes": "32",
        "value": "t_mapping(t_address,t_uint256)"
      },
      "t_string_storage": {
        "encoding": "bytes",
        "label": "string",
        "numberOfBytes": "32"
      },
      "t_uint256": {
        "encoding": "inplace",
        "label": "uint256",
        "numberOfBytes": "32"
      },
      "t_uint8": {
        "encoding": "inplace",
        "label": "uint8",
        "numberOfBytes": "1"
      }
    }
  }
}