{
  "address": "0xb52735CcA0DbEFc65D04F8e974303A91194be165",
  "abi": [
    {
      "inputs": [
        {
          "internalType": "address",
          "name": "sender",
          "type": "address"
        },
        {
          "internalType": "string[]",
          "name": "urls",
          "type": "string[]"
        },
        {
          "internalType": "bytes",
          "name": "callData",
          "type": "bytes"
        },
        {
          "internalType": "bytes4",
          "name": "callbackFunction",
          "type": "bytes4"
        },
        {
          "internalType": "bytes",
          "name": "extraData",
          "type": "bytes"
        }
      ],
      "name": "OffchainLookup",
      "type": "error"
    },
    {
      "anonymous": false,
      "inputs": [
        {
          "indexed": false,
          "internalType": "uint256",
          "name": "chainID",
          "type": "uint256"
        },
        {
          "indexed": false,
          "internalType": "address",
          "name": "token",
          "type": "address"
        },
        {
          "indexed": false,
          "internalType": "uint256",
          "name": "tid",
          "type": "uint256"
        }
      ],
      "name": "AddToken",
      "type": "event"
    },
    {
      "anonymous": false,
      "inputs": [
        {
          "indexed": false,
          "internalType": "address",
          "name": "caller",
          "type": "address"
        },
        {
          "indexed": false,
          "internalType": "uint256",
          "name": "shareBurned",
          "type": "uint256"
        }
      ],
      "name": "Burn",
      "type": "event"
    },
    {
      "anonymous": false,
      "inputs": [
        {
          "indexed": false,
          "internalType": "uint8",
          "name": "version",
          "type": "uint8"
        }
      ],
      "name": "Initialized",
      "type": "event"
    },
    {
      "anonymous": false,
      "inputs": [
        {
          "indexed": false,
          "internalType": "address",
          "name": "caller",
          "type": "address"
        },
        {
          "indexed": false,
          "internalType": "uint256",
          "name": "amtDeposit",
          "type": "uint256"
        },
        {
          "indexed": false,
          "internalType": "uint256",
          "name": "shareMinted",
          "type": "uint256"
        }
      ],
      "name": "Mint",
      "type": "event"
    },
    {
      "anonymous": false,
      "inputs": [
        {
          "indexed": true,
          "internalType": "address",
          "name": "previousOwner",
          "type": "address"
        },
        {
          "indexed": true,
          "internalType": "address",
          "name": "newOwner",
          "type": "address"
        }
      ],
      "name": "OwnershipTransferred",
      "type": "event"
    },
    {
      "anonymous": false,
      "inputs": [
        {
          "indexed": false,
          "internalType": "address",
          "name": "account",
          "type": "address"
        }
      ],
      "name": "Paused",
      "type": "event"
    },
    {
      "anonymous": false,
      "inputs": [
        {
          "indexed": false,
          "internalType": "uint256",
          "name": "chainID",
          "type": "uint256"
        },
        {
          "indexed": false,
          "internalType": "address",
          "name": "token",
          "type": "address"
        },
        {
          "indexed": false,
          "internalType": "uint256",
          "name": "targetPerc",
          "type": "uint256"
        },
        {
          "indexed": false,
          "internalType": "uint256",
          "name": "tid",
          "type": "uint256"
        }
      ],
      "name": "RemoveToken",
      "type": "event"
    },
    {
      "anonymous": false,
      "inputs": [
        {
          "indexed": false,
          "internalType": "address",
          "name": "oldAdmin",
          "type": "address"
        },
        {
          "indexed": false,
          "internalType": "address",
          "name": "newAdmin",
          "type": "address"
        }
      ],
      "name": "SetAdminWallet",
      "type": "event"
    },
    {
      "anonymous": false,
      "inputs": [
        {
          "indexed": false,
          "internalType": "address",
          "name": "oldBiconomy",
          "type": "address"
        },
        {
          "indexed": false,
          "internalType": "address",
          "name": "newBiconomy",
          "type": "address"
        }
      ],
      "name": "SetBiconomy",
      "type": "event"
    },
    {
      "anonymous": false,
      "inputs": [
        {
          "indexed": false,
          "internalType": "address",
          "name": "account",
          "type": "address"
        }
      ],
      "name": "Unpaused",
      "type": "event"
    },
    {
      "inputs": [],
      "name": "STI",
      "outputs": [
        {
          "internalType": "contract ISTI",
          "name": "",
          "type": "address"
        }
      ],
      "stateMutability": "view",
      "type": "function"
    },
    {
      "inputs": [
        {
          "internalType": "uint256",
          "name": "_chainID",
          "type": "uint256"
        },
        {
          "internalType": "address",
          "name": "_token",
          "type": "address"
        }
      ],
      "name": "addToken",
      "outputs": [],
      "stateMutability": "nonpayable",
      "type": "function"
    },
    {
      "inputs": [],
      "name": "admin",
      "outputs": [
        {
          "internalType": "address",
          "name": "",
          "type": "address"
        }
      ],
      "stateMutability": "view",
      "type": "function"
    },
    {
      "inputs": [
        {
          "internalType": "address",
          "name": "_account",
          "type": "address"
        },
        {
          "internalType": "uint256",
          "name": "_share",
          "type": "uint256"
        }
      ],
      "name": "burnByAdmin",
      "outputs": [],
      "stateMutability": "nonpayable",
      "type": "function"
    },
    {
      "inputs": [
        {
          "internalType": "uint256",
          "name": "",
          "type": "uint256"
        }
      ],
      "name": "chainIDs",
      "outputs": [
        {
          "internalType": "uint256",
          "name": "",
          "type": "uint256"
        }
      ],
      "stateMutability": "view",
      "type": "function"
    },
    {
      "inputs": [],
      "name": "gatewaySigner",
      "outputs": [
        {
          "internalType": "address",
          "name": "",
          "type": "address"
        }
      ],
      "stateMutability": "view",
      "type": "function"
    },
    {
      "inputs": [
        {
          "internalType": "uint256[]",
          "name": "_allPoolInUSDs",
          "type": "uint256[]"
        },
        {
          "internalType": "uint256[]",
          "name": "_APRs",
          "type": "uint256[]"
        }
      ],
      "name": "getAPR",
      "outputs": [
        {
          "internalType": "uint256",
          "name": "",
          "type": "uint256"
        }
      ],
      "stateMutability": "pure",
      "type": "function"
    },
    {
      "inputs": [],
      "name": "getAPR1",
      "outputs": [
        {
          "internalType": "uint256",
          "name": "",
          "type": "uint256"
        }
      ],
      "stateMutability": "view",
      "type": "function"
    },
    {
      "inputs": [
        {
          "internalType": "bytes",
          "name": "result",
          "type": "bytes"
        },
        {
          "internalType": "bytes",
          "name": "extraData",
          "type": "bytes"
        }
      ],
      "name": "getAPR1WithSig",
      "outputs": [
        {
          "internalType": "uint256",
          "name": "",
          "type": "uint256"
        }
      ],
      "stateMutability": "view",
      "type": "function"
    },
    {
      "inputs": [
        {
          "internalType": "uint256[]",
          "name": "_allPoolInUSDs",
          "type": "uint256[]"
        }
      ],
      "name": "getAllPoolInUSD",
      "outputs": [
        {
          "internalType": "uint256",
          "name": "",
          "type": "uint256"
        }
      ],
      "stateMutability": "pure",
      "type": "function"
    },
    {
      "inputs": [],
      "name": "getAllPoolInUSD1",
      "outputs": [
        {
          "internalType": "uint256",
          "name": "",
          "type": "uint256"
        }
      ],
      "stateMutability": "view",
      "type": "function"
    },
    {
      "inputs": [
        {
          "internalType": "bytes",
          "name": "result",
          "type": "bytes"
        },
        {
          "internalType": "bytes",
          "name": "extraData",
          "type": "bytes"
        }
      ],
      "name": "getAllPoolInUSD1WithSig",
      "outputs": [
        {
          "internalType": "uint256",
          "name": "",
          "type": "uint256"
        }
      ],
      "stateMutability": "view",
      "type": "function"
    },
    {
      "inputs": [
        {
          "internalType": "uint256[]",
          "name": "_chainIDs",
          "type": "uint256[]"
        },
        {
          "internalType": "address[]",
          "name": "_tokens",
          "type": "address[]"
        },
        {
          "internalType": "uint256[]",
          "name": "_poolInUSDs",
          "type": "uint256[]"
        }
      ],
      "name": "getCurrentTokenCompositionPerc",
      "outputs": [
        {
          "internalType": "uint256[]",
          "name": "",
          "type": "uint256[]"
        },
        {
          "internalType": "address[]",
          "name": "",
          "type": "address[]"
        },
        {
          "internalType": "uint256[]",
          "name": "pools",
          "type": "uint256[]"
        },
        {
          "internalType": "uint256[]",
          "name": "percentages",
          "type": "uint256[]"
        }
      ],
      "stateMutability": "view",
      "type": "function"
    },
    {
      "inputs": [],
      "name": "getCurrentTokenCompositionPerc1",
      "outputs": [
        {
          "internalType": "uint256[]",
          "name": "",
          "type": "uint256[]"
        },
        {
          "internalType": "address[]",
          "name": "",
          "type": "address[]"
        },
        {
          "internalType": "uint256[]",
          "name": "",
          "type": "uint256[]"
        },
        {
          "internalType": "uint256[]",
          "name": "",
          "type": "uint256[]"
        }
      ],
      "stateMutability": "view",
      "type": "function"
    },
    {
      "inputs": [
        {
          "internalType": "bytes",
          "name": "result",
          "type": "bytes"
        },
        {
          "internalType": "bytes",
          "name": "extraData",
          "type": "bytes"
        }
      ],
      "name": "getCurrentTokenCompositionPercWithSig",
      "outputs": [
        {
          "internalType": "uint256[]",
          "name": "",
          "type": "uint256[]"
        },
        {
          "internalType": "address[]",
          "name": "",
          "type": "address[]"
        },
        {
          "internalType": "uint256[]",
          "name": "",
          "type": "uint256[]"
        },
        {
          "internalType": "uint256[]",
          "name": "",
          "type": "uint256[]"
        }
      ],
      "stateMutability": "view",
      "type": "function"
    },
    {
      "inputs": [
        {
          "internalType": "uint256[]",
          "name": "_chainIDs",
          "type": "uint256[]"
        },
        {
          "internalType": "address[]",
          "name": "_tokens",
          "type": "address[]"
        },
        {
          "internalType": "uint256[]",
          "name": "_poolInUSDs",
          "type": "uint256[]"
        },
        {
          "internalType": "uint256",
          "name": "_USDTAmt",
          "type": "uint256"
        }
      ],
      "name": "getDepositTokenComposition",
      "outputs": [
        {
          "internalType": "uint256[]",
          "name": "",
          "type": "uint256[]"
        },
        {
          "internalType": "address[]",
          "name": "",
          "type": "address[]"
        },
        {
          "internalType": "uint256[]",
          "name": "_USDTAmts",
          "type": "uint256[]"
        }
      ],
      "stateMutability": "view",
      "type": "function"
    },
    {
      "inputs": [
        {
          "internalType": "uint256",
          "name": "_USDTAmt",
          "type": "uint256"
        }
      ],
      "name": "getDepositTokenComposition1",
      "outputs": [
        {
          "internalType": "uint256[]",
          "name": "",
          "type": "uint256[]"
        },
        {
          "internalType": "address[]",
          "name": "",
          "type": "address[]"
        },
        {
          "internalType": "uint256[]",
          "name": "",
          "type": "uint256[]"
        }
      ],
      "stateMutability": "view",
      "type": "function"
    },
    {
      "inputs": [
        {
          "internalType": "bytes",
          "name": "result",
          "type": "bytes"
        },
        {
          "internalType": "bytes",
          "name": "extraData",
          "type": "bytes"
        }
      ],
      "name": "getDepositTokenComposition1WithSig",
      "outputs": [
        {
          "internalType": "uint256[]",
          "name": "",
          "type": "uint256[]"
        },
        {
          "internalType": "address[]",
          "name": "",
          "type": "address[]"
        },
        {
          "internalType": "uint256[]",
          "name": "",
          "type": "uint256[]"
        }
      ],
      "stateMutability": "view",
      "type": "function"
    },
    {
      "inputs": [
        {
          "internalType": "address",
          "name": "_account",
          "type": "address"
        }
      ],
      "name": "getPoolsUnbonded1",
      "outputs": [
        {
          "internalType": "uint256[]",
          "name": "",
          "type": "uint256[]"
        },
        {
          "internalType": "address[]",
          "name": "",
          "type": "address[]"
        },
        {
          "internalType": "uint256[]",
          "name": "",
          "type": "uint256[]"
        },
        {
          "internalType": "uint256[]",
          "name": "",
          "type": "uint256[]"
        },
        {
          "internalType": "uint256[]",
          "name": "",
          "type": "uint256[]"
        },
        {
          "internalType": "uint256[]",
          "name": "",
          "type": "uint256[]"
        },
        {
          "internalType": "uint256[]",
          "name": "",
          "type": "uint256[]"
        }
      ],
      "stateMutability": "view",
      "type": "function"
    },
    {
      "inputs": [
        {
          "internalType": "bytes",
          "name": "result",
          "type": "bytes"
        },
        {
          "internalType": "bytes",
          "name": "",
          "type": "bytes"
        }
      ],
      "name": "getPoolsUnbonded1WithSig",
      "outputs": [
        {
          "internalType": "uint256[]",
          "name": "_chainIDs",
          "type": "uint256[]"
        },
        {
          "internalType": "address[]",
          "name": "_tokens",
          "type": "address[]"
        },
        {
          "internalType": "uint256[]",
          "name": "_waitings",
          "type": "uint256[]"
        },
        {
          "internalType": "uint256[]",
          "name": "_waitingInUSDs",
          "type": "uint256[]"
        },
        {
          "internalType": "uint256[]",
          "name": "_unbondeds",
          "type": "uint256[]"
        },
        {
          "internalType": "uint256[]",
          "name": "_unbondedInUSDs",
          "type": "uint256[]"
        },
        {
          "internalType": "uint256[]",
          "name": "_waitForTses",
          "type": "uint256[]"
        }
      ],
      "stateMutability": "view",
      "type": "function"
    },
    {
      "inputs": [
        {
          "internalType": "uint256[]",
          "name": "_allPoolInUSDs",
          "type": "uint256[]"
        }
      ],
      "name": "getPricePerFullShare",
      "outputs": [
        {
          "internalType": "uint256",
          "name": "",
          "type": "uint256"
        }
      ],
      "stateMutability": "view",
      "type": "function"
    },
    {
      "inputs": [],
      "name": "getPricePerFullShare1",
      "outputs": [
        {
          "internalType": "uint256",
          "name": "",
          "type": "uint256"
        }
      ],
      "stateMutability": "view",
      "type": "function"
    },
    {
      "inputs": [
        {
          "internalType": "bytes",
          "name": "result",
          "type": "bytes"
        },
        {
          "internalType": "bytes",
          "name": "extraData",
          "type": "bytes"
        }
      ],
      "name": "getPricePerFullShare1WithSig",
      "outputs": [
        {
          "internalType": "uint256",
          "name": "",
          "type": "uint256"
        }
      ],
      "stateMutability": "view",
      "type": "function"
    },
    {
      "inputs": [],
      "name": "getUSDTPriceInUSD",
      "outputs": [
        {
          "internalType": "uint256",
          "name": "",
          "type": "uint256"
        },
        {
          "internalType": "uint8",
          "name": "",
          "type": "uint8"
        }
      ],
      "stateMutability": "view",
      "type": "function"
    },
    {
      "inputs": [
        {
          "internalType": "address",
          "name": "_account",
          "type": "address"
        },
        {
          "internalType": "uint256",
          "name": "_share",
          "type": "uint256"
        }
      ],
      "name": "getWithdrawPerc",
      "outputs": [
        {
          "internalType": "uint256",
          "name": "_sharePerc",
          "type": "uint256"
        }
      ],
      "stateMutability": "view",
      "type": "function"
    },
    {
      "inputs": [],
      "name": "getWithdrawableSharePerc1",
      "outputs": [
        {
          "internalType": "uint256",
          "name": "",
          "type": "uint256"
        }
      ],
      "stateMutability": "view",
      "type": "function"
    },
    {
      "inputs": [
        {
          "internalType": "bytes",
          "name": "result",
          "type": "bytes"
        },
        {
          "internalType": "bytes",
          "name": "extraData",
          "type": "bytes"
        }
      ],
      "name": "getWithdrawableSharePerc1WithSig",
      "outputs": [
        {
          "internalType": "uint256",
          "name": "_sharePerc",
          "type": "uint256"
        }
      ],
      "stateMutability": "view",
      "type": "function"
    },
    {
      "inputs": [
        {
          "internalType": "address",
          "name": "_admin",
          "type": "address"
        },
        {
          "internalType": "address",
          "name": "_biconomy",
          "type": "address"
        },
        {
          "internalType": "address",
          "name": "_STI",
          "type": "address"
        },
        {
          "internalType": "address",
          "name": "_priceOracle",
          "type": "address"
        }
      ],
      "name": "initialize",
      "outputs": [],
      "stateMutability": "nonpayable",
      "type": "function"
    },
    {
      "inputs": [
        {
          "internalType": "address",
          "name": "forwarder",
          "type": "address"
        }
      ],
      "name": "isTrustedForwarder",
      "outputs": [
        {
          "internalType": "bool",
          "name": "",
          "type": "bool"
        }
      ],
      "stateMutability": "view",
      "type": "function"
    },
    {
      "inputs": [
        {
          "internalType": "uint256",
          "name": "_pool",
          "type": "uint256"
        },
        {
          "internalType": "address",
          "name": "_account",
          "type": "address"
        },
        {
          "internalType": "uint256",
          "name": "_USDTAmt",
          "type": "uint256"
        }
      ],
      "name": "mintByAdmin",
      "outputs": [],
      "stateMutability": "nonpayable",
      "type": "function"
    },
    {
      "inputs": [],
      "name": "owner",
      "outputs": [
        {
          "internalType": "address",
          "name": "",
          "type": "address"
        }
      ],
      "stateMutability": "view",
      "type": "function"
    },
    {
      "inputs": [],
      "name": "paused",
      "outputs": [
        {
          "internalType": "bool",
          "name": "",
          "type": "bool"
        }
      ],
      "stateMutability": "view",
      "type": "function"
    },
    {
      "inputs": [],
      "name": "priceOracle",
      "outputs": [
        {
          "internalType": "contract IPriceOracle",
          "name": "",
          "type": "address"
        }
      ],
      "stateMutability": "view",
      "type": "function"
    },
    {
      "inputs": [
        {
          "internalType": "uint256",
          "name": "_tid",
          "type": "uint256"
        }
      ],
      "name": "removeToken",
      "outputs": [],
      "stateMutability": "nonpayable",
      "type": "function"
    },
    {
      "inputs": [],
      "name": "renounceOwnership",
      "outputs": [],
      "stateMutability": "nonpayable",
      "type": "function"
    },
    {
      "inputs": [
        {
          "internalType": "address",
          "name": "_admin",
          "type": "address"
        }
      ],
      "name": "setAdmin",
      "outputs": [],
      "stateMutability": "nonpayable",
      "type": "function"
    },
    {
      "inputs": [
        {
          "internalType": "address",
          "name": "_biconomy",
          "type": "address"
        }
      ],
      "name": "setBiconomy",
      "outputs": [],
      "stateMutability": "nonpayable",
      "type": "function"
    },
    {
      "inputs": [
        {
          "internalType": "address",
          "name": "_signer",
          "type": "address"
        }
      ],
      "name": "setGatewaySigner",
      "outputs": [],
      "stateMutability": "nonpayable",
      "type": "function"
    },
    {
      "inputs": [
        {
          "internalType": "uint256[]",
          "name": "_targetPerc",
          "type": "uint256[]"
        }
      ],
      "name": "setTokenCompositionTargetPerc",
      "outputs": [],
      "stateMutability": "nonpayable",
      "type": "function"
    },
    {
      "inputs": [
        {
          "internalType": "string[]",
          "name": "_urls",
          "type": "string[]"
        }
      ],
      "name": "setUrls",
      "outputs": [],
      "stateMutability": "nonpayable",
      "type": "function"
    },
    {
      "inputs": [
        {
          "internalType": "uint256",
          "name": "",
          "type": "uint256"
        }
      ],
      "name": "targetPercentages",
      "outputs": [
        {
          "internalType": "uint256",
          "name": "",
          "type": "uint256"
        }
      ],
      "stateMutability": "view",
      "type": "function"
    },
    {
      "inputs": [
        {
          "internalType": "uint256",
          "name": "",
          "type": "uint256"
        },
        {
          "internalType": "address",
          "name": "",
          "type": "address"
        }
      ],
      "name": "tid",
      "outputs": [
        {
          "internalType": "uint256",
          "name": "",
          "type": "uint256"
        }
      ],
      "stateMutability": "view",
      "type": "function"
    },
    {
      "inputs": [
        {
          "internalType": "uint256",
          "name": "",
          "type": "uint256"
        }
      ],
      "name": "tokens",
      "outputs": [
        {
          "internalType": "address",
          "name": "",
          "type": "address"
        }
      ],
      "stateMutability": "view",
      "type": "function"
    },
    {
      "inputs": [
        {
          "internalType": "address",
          "name": "newOwner",
          "type": "address"
        }
      ],
      "name": "transferOwnership",
      "outputs": [],
      "stateMutability": "nonpayable",
      "type": "function"
    },
    {
      "inputs": [],
      "name": "trustedForwarder",
      "outputs": [
        {
          "internalType": "address",
          "name": "",
          "type": "address"
        }
      ],
      "stateMutability": "view",
      "type": "function"
    },
    {
      "inputs": [
        {
          "internalType": "uint256",
          "name": "",
          "type": "uint256"
        }
      ],
      "name": "urls",
      "outputs": [
        {
          "internalType": "string",
          "name": "",
          "type": "string"
        }
      ],
      "stateMutability": "view",
      "type": "function"
    },
    {
      "inputs": [],
      "name": "versionRecipient",
      "outputs": [
        {
          "internalType": "string",
          "name": "",
          "type": "string"
        }
      ],
      "stateMutability": "pure",
      "type": "function"
    }
  ],
  "transactionHash": "0x7c6749c5a30a24c920ef215f150d02975d9058805487e0fa4131f7dd9effe828",
  "args": [],
  "numDeployments": 6,
  "solcInputHash": "0883a46f14c9a4114a58bf8021207cfb",
  "bytecode": "0x608060405234801561001057600080fd5b506143fa806100206000396000f3fe608060405234801561001057600080fd5b50600436106102955760003560e01c8063796676be11610167578063b47c6a27116100ce578063ece90e9011610087578063ece90e9014610619578063f2fde38b14610621578063f3253c6314610634578063f851a44014610647578063f8c8765e1461065a578063fd6878cc1461066d57600080fd5b8063b47c6a271461059b578063b9bd5bb5146105ba578063cb25bb65146105cd578063d3b974a0146105e0578063da3bc85c146105f3578063dd8aae411461060657600080fd5b80639600abf9116101205780639600abf91461053457806397cd02e6146105475780639f86d4dd1461055a578063a08ce5201461056d578063a7645a2014610580578063af05a7491461059357600080fd5b8063796676be146104c45780637da0a877146104d75780637ed66ec6146104ea5780637fb2df42146104fd5780638da5cb5b146105105780639532a4331461052157600080fd5b80635042f9b61161020b5780635ad748e4116101c45780635ad748e4146104655780635b8e243d146104785780635c975abb1461048b5780636cc895a914610496578063704b6c02146104a9578063715018a6146104bc57600080fd5b80635042f9b6146103d75780635344cac9146103df5780635605af2c1461040557806357016b0a14610418578063572b6c051461042b5780635796d0b01461045d57600080fd5b806336c5d7241161025d57806336c5d7241461033357806338a871631461034657806340b8e57f14610369578063486ff0cd1461037c57806349445553146103a25780634f64b2be146103c457600080fd5b806309d23e241461029a5780630d8b76a8146102c0578063193ab102146102d55780631c60ffc3146102dd5780632630c12f14610308575b600080fd5b6102ad6102a8366004613346565b610680565b6040519081526020015b60405180910390f35b6102d36102ce366004613376565b6106a1565b005b6102ad610755565b6102ad6102eb366004613391565b60cc60209081526000928352604080842090915290825290205481565b60cf5461031b906001600160a01b031681565b6040516001600160a01b0390911681526020016102b7565b6102d3610341366004613346565b6107c7565b6103596103543660046133fe565b610ace565b6040516102b794939291906134dd565b6102ad6103773660046133fe565b610bc8565b6040805180820190915260018152603160f81b60208201525b6040516102b79190613582565b6103b56103b0366004613346565b610c3f565b6040516102b793929190613595565b61031b6103d2366004613346565b610c8c565b6102ad610cb6565b6103f26103ed366004613376565b610d01565b6040516102b797969594939291906135ce565b6102ad6104133660046133fe565b610d91565b6102d3610426366004613391565b610e6d565b61044d610439366004613376565b6000546001600160a01b0391821691161490565b60405190151581526020016102b7565b610359611098565b6102d3610473366004613665565b6110eb565b6102d361048636600461368f565b611327565b60655460ff1661044d565b6102d36104a4366004613784565b61161a565b6102d36104b7366004613376565b61167a565b6102d361171d565b6103956104d2366004613346565b611772565b60005461031b906001600160a01b031681565b6103b56104f83660046133fe565b61181e565b6102d361050b36600461384e565b6118b8565b6097546001600160a01b031661031b565b60ce5461031b906001600160a01b031681565b6103f26105423660046133fe565b611a0c565b6102ad610555366004613928565b611b41565b6102ad610568366004613665565b611c0e565b6102ad61057b3660046133fe565b611d8a565b6102ad61058e366004613346565b611dfa565b6102ad611e0a565b6105a3611e55565b6040805192835260ff9091166020830152016102b7565b6102d36105c8366004613376565b611ef0565b6103596105db3660046139c6565b611f5b565b6103b56105ee366004613a4d565b612159565b6102ad610601366004613adc565b612490565b6102ad610614366004613928565b612579565b6102ad6125ca565b6102d361062f366004613376565b612615565b60d15461031b906001600160a01b031681565b60cd5461031b906001600160a01b031681565b6102d3610668366004613b3f565b6126cf565b6102ad61067b3660046133fe565b6129ba565b60c9818154811061069057600080fd5b600091825260209091200154905081565b6106a9612a1e565b6001600160a01b03166106c46097546001600160a01b031690565b6001600160a01b0316146106f35760405162461bcd60e51b81526004016106ea90613b93565b60405180910390fd5b600080546001600160a01b038381166001600160a01b031983168117909355604080519190921680825260208201939093527f56b079178193d2a52b3949d9cd8bc5503daadffd4a704722e18b8325021a974191015b60405180910390a15050565b6040805160048152602481018252602080820180516001600160e01b0316630c9d588160e11b179052825160009181018290529092309260d09290916315816bcb60e21b91015b60408051601f1981840301815290829052630556f18360e41b82526106ea9594939291600401613c03565b6107cf612a1e565b6001600160a01b03166107ea6097546001600160a01b031690565b6001600160a01b0316146108105760405162461bcd60e51b81526004016106ea90613b93565b60ca548082106108505760405162461bcd60e51b815260206004820152600b60248201526a125b9d985b1a59081d1a5960aa1b60448201526064016106ea565b600060c9838154811061086557610865613d30565b90600052602060002001549050600060ca848154811061088757610887613d30565b600091825260208220015460cb80546001600160a01b03909216935090869081106108b4576108b4613d30565b9060005260206000200154905060c96001856108d09190613d5c565b815481106108e0576108e0613d30565b906000526020600020015460c986815481106108fe576108fe613d30565b60009182526020909120015560c980548061091b5761091b613d73565b6001900381819060005260206000200160009055905560ca6001856109409190613d5c565b8154811061095057610950613d30565b60009182526020909120015460ca80546001600160a01b03909216918790811061097c5761097c613d30565b9060005260206000200160006101000a8154816001600160a01b0302191690836001600160a01b0316021790555060ca8054806109bb576109bb613d73565b600082815260209020810160001990810180546001600160a01b031916905501905560cb6109ea600186613d5c565b815481106109fa576109fa613d30565b906000526020600020015460cb8681548110610a1857610a18613d30565b60009182526020909120015560cb805480610a3557610a35613d73565b60008281526020808220830160001990810183905590920190925584825260cc815260408083206001600160a01b0386168452909152812055610a76612a2d565b604080518481526001600160a01b0384166020820152908101829052606081018690527fd8cc1d279bf727e9ee02c4ed116f7c12f4965ace9b477482de71a7929a1871b3906080015b60405180910390a15050505050565b60608080806000808080610ae48b8d018d613da9565b93509350935093506000610b7582868686604051602001610b0793929190613ea8565b60408051601f198184030181529082905280516020918201207f19457468657265756d205369676e6564204d6573736167653a0a33320000000091830191909152603c820152605c015b60405160208183030381529060405280519060200120612b7090919063ffffffff16565b60d1549091506001600160a01b03808316911614610ba55760405162461bcd60e51b81526004016106ea90613ecf565b610bb0858585611f5b565b98509850985098505050505050945094509450949050565b6000808080610bd987890189613efc565b9250925092506000610bf8828585604051602001610b07929190613f79565b60d1549091506001600160a01b03808316911614610c285760405162461bcd60e51b81526004016106ea90613ecf565b610c328484612490565b9998505050505050505050565b6040805160048152602481018252602080820180516001600160e01b0316633c1d708960e01b179052825190810184905260609283928392309260d09291633f6b376360e11b910161079c565b60ca8181548110610c9c57600080fd5b6000918252602090912001546001600160a01b0316905081565b6040805160048152602481018252602080820180516001600160e01b03166328217cdb60e11b179052825160009181018290529092309260d0929091630504672960e51b910161079c565b60608060608060608060603060d0635344cac960e01b8a604051602401610d3791906001600160a01b0391909116815260200190565b60408051601f19818403018152918152602080830180516001600160e01b03166001600160e01b031990951694909417909352519091639600abf960e01b9161079c918e91016001600160a01b0391909116815260200190565b6000808080610da287890189613efc565b9250925092506000610dc1828585604051602001610b07929190613f79565b60d1549091506001600160a01b03808316911614610df15760405162461bcd60e51b81526004016106ea90613ecf565b82518015610e175783600081518110610e0c57610e0c613d30565b602002602001015195505b60015b81811015610e5f576000858281518110610e3657610e36613d30565b6020026020010151905080881115610e4c578097505b5080610e5781613f88565b915050610e1a565b505050505050949350505050565b610e75612a1e565b6001600160a01b0316610e906097546001600160a01b031690565b6001600160a01b031614610eb65760405162461bcd60e51b81526004016106ea90613b93565b600082815260cc602090815260408083206001600160a01b038516845290915290205480158015610f05575060c9600081548110610ef657610ef6613d30565b90600052602060002001548314155b8015610f3c575060ca600081548110610f2057610f20613d30565b6000918252602090912001546001600160a01b03838116911614155b610f785760405162461bcd60e51b815260206004820152600d60248201526c105b1c9958591e481859191959609a1b60448201526064016106ea565b60c9805460018082019092557f66be4f155c5ef2ebd3772b228f2f00681e4ed5826cdb3b1943cc11ad15ad1d280184905560ca805480830182557f42d72674974f694b5f5159593243114d38a5c39c89d6b62fee061ff523240ee10180546001600160a01b0319166001600160a01b03861617905560cb8054808401825560009182527fa7ce836d032b2bf62b7e2097a8e0a6d8aeb35405ad15271e96d3b0188a1d06fb0155546110299190613d5c565b600084815260cc602090815260408083206001600160a01b038716808552908352928190208490558051878152918201929092529081018290529091507fefa15d4fefbb71d07b3cdc624ab208ebe2d3b6933946582fd8b807e8a5bc93cc9060600160405180910390a1505050565b6040805160048152602481018252602080820180516001600160e01b03166305796d0b60e41b1790528251600091810191909152606092839283928392309260d09290916338a8716360e01b910161079c565b6097546001600160a01b031633148061110e575060cd546001600160a01b031633145b6111505760405162461bcd60e51b815260206004820152601360248201527227b7363c9037bbb732b91037b91030b236b4b760691b60448201526064016106ea565b600260015414156111a35760405162461bcd60e51b815260206004820152601f60248201527f5265656e7472616e637947756172643a207265656e7472616e742063616c6c0060448201526064016106ea565b60026001558015801590611233575060ce546040516370a0823160e01b81526001600160a01b038481166004830152909116906370a082319060240160206040518083038186803b1580156111f757600080fd5b505afa15801561120b573d6000803e3d6000fd5b505050506040513d601f19601f8201168201806040525081019061122f9190613fa3565b8111155b6112765760405162461bcd60e51b8152602060048201526014602482015273125b9d985b1a59081cda185c9948185b5bdd5b9d60621b60448201526064016106ea565b60ce5460405163079cc67960e41b81526001600160a01b03848116600483015260248201849052909116906379cc679090604401600060405180830381600087803b1580156112c457600080fd5b505af11580156112d8573d6000803e3d6000fd5b5050604080516001600160a01b0386168152602081018590527fcc16f5dbb4873280815c1ee09dbd06736cffcc184412cf7a71a0fdb75d397ca5935001905060405180910390a1505060018055565b6097546001600160a01b031633148061134a575060cd546001600160a01b031633145b61138c5760405162461bcd60e51b815260206004820152601360248201527227b7363c9037bbb732b91037b91030b236b4b760691b60448201526064016106ea565b600260015414156113df5760405162461bcd60e51b815260206004820152601f60248201527f5265656e7472616e637947756172643a207265656e7472616e742063616c6c0060448201526064016106ea565b600260015560655460ff161561142a5760405162461bcd60e51b815260206004820152601060248201526f14185d5cd8589b194e881c185d5cd95960821b60448201526064016106ea565b600080611435611e55565b9092509050600061144782600a6140a0565b836114578664e8d4a510006140af565b61146191906140af565b61146b91906140ce565b905085811061147b576000611485565b6114858187613d5c565b9550600060ce60009054906101000a90046001600160a01b03166001600160a01b03166318160ddd6040518163ffffffff1660e01b815260040160206040518083038186803b1580156114d757600080fd5b505afa1580156114eb573d6000803e3d6000fd5b505050506040513d601f19601f8201168201806040525081019061150f9190613fa3565b9050600087158061151e575081155b61153c578761152d84846140af565b61153791906140ce565b61153e565b825b90506103e861154f826103e56140af565b61155991906140ce565b60ce546040516340c10f1960e01b81526001600160a01b038a81166004830152602482018490529293509116906340c10f1990604401600060405180830381600087803b1580156115a957600080fd5b505af11580156115bd573d6000803e3d6000fd5b5050604080516001600160a01b038b168152602081018790529081018490527f4c209b5fc8ad50758f13e2e1088ba56a560dff690a1c6fef26394f4c03821c4f9250606001905060405180910390a1505060018055505050505050565b611622612a1e565b6001600160a01b031661163d6097546001600160a01b031690565b6001600160a01b0316146116635760405162461bcd60e51b81526004016106ea90613b93565b80516116769060d09060208401906131fd565b5050565b611682612a1e565b6001600160a01b031661169d6097546001600160a01b031690565b6001600160a01b0316146116c35760405162461bcd60e51b81526004016106ea90613b93565b60cd80546001600160a01b038381166001600160a01b031983168117909355604080519190921680825260208201939093527f9f0ac88be9159761bacf6c9e7c294c397ebf594607f6b3f2f70e7e0841ea68e89101610749565b611725612a1e565b6001600160a01b03166117406097546001600160a01b031690565b6001600160a01b0316146117665760405162461bcd60e51b81526004016106ea90613b93565b6117706000612b8c565b565b60d0818154811061178257600080fd5b90600052602060002001600091509050805461179d90613bc8565b80601f01602080910402602001604051908101604052809291908181526020018280546117c990613bc8565b80156118165780601f106117eb57610100808354040283529160200191611816565b820191906000526020600020905b8154815290600101906020018083116117f957829003601f168201915b505050505081565b60608080600061183085870187613346565b905060008080806118438b8d018d613da9565b9350935093509350600061186682868686604051602001610b0793929190613ea8565b60d1549091506001600160a01b038083169116146118965760405162461bcd60e51b81526004016106ea90613ecf565b6118a285858589612159565b9850985098505050505050509450945094915050565b6118c0612a1e565b6001600160a01b03166118db6097546001600160a01b031690565b6001600160a01b0316146119015760405162461bcd60e51b81526004016106ea90613b93565b60cb54819081146119445760405162461bcd60e51b815260206004820152600d60248201526c125b9d985b1a590818dbdd5b9d609a1b60448201526064016106ea565b6000805b828110156119c05784848281811061196257611962613d30565b9050602002013560cb828154811061197c5761197c613d30565b60009182526020909120015584848281811061199a5761199a613d30565b90506020020135826119ac91906140f0565b9150806119b881613f88565b915050611948565b506127108114611a065760405162461bcd60e51b815260206004820152601160248201527024b73b30b634b2103830b930b6b2ba32b960791b60448201526064016106ea565b50505050565b606080808080808080611a218b8d018d614108565b604051979f50959d50939b509199509750955093509150600090611a53908a908a908a908a908a908a90602001614247565b604051602081830303815290604052805190602001209050600083604051602001611a7e919061427a565b60408051808303601f19018152828252805160209182012081840186905283830181905282518085038401815260608501909352825192909101919091207f19457468657265756d205369676e6564204d6573736167653a0a3332000000006080840152609c830181905290925090600090611afe90869060bc01610b51565b60d1549091506001600160a01b03808316911614611b2e5760405162461bcd60e51b81526004016106ea90613ecf565b5050505050949950949992975094509450565b60008060ce60009054906101000a90046001600160a01b03166001600160a01b03166318160ddd6040518163ffffffff1660e01b815260040160206040518083038186803b158015611b9257600080fd5b505afa158015611ba6573d6000803e3d6000fd5b505050506040513d601f19601f82011682018060405250810190611bca9190613fa3565b905080611be15750670de0b6b3a764000092915050565b80611beb84612579565b611bfd90670de0b6b3a76400006140af565b611c0791906140ce565b9392505050565b6000816000108015611c9c575060ce546040516370a0823160e01b81526001600160a01b038581166004830152909116906370a082319060240160206040518083038186803b158015611c6057600080fd5b505afa158015611c74573d6000803e3d6000fd5b505050506040513d601f19601f82011682018060405250810190611c989190613fa3565b8211155b611cdf5760405162461bcd60e51b8152602060048201526014602482015273125b9d985b1a59081cda185c9948185b5bdd5b9d60621b60448201526064016106ea565b60ce60009054906101000a90046001600160a01b03166001600160a01b03166318160ddd6040518163ffffffff1660e01b815260040160206040518083038186803b158015611d2d57600080fd5b505afa158015611d41573d6000803e3d6000fd5b505050506040513d601f19601f82011682018060405250810190611d659190613fa3565b611d7783670de0b6b3a76400006140af565b611d8191906140ce565b90505b92915050565b60008080611d9a86880188614286565b915091506000611db58284604051602001610b07919061427a565b60d1549091506001600160a01b03808316911614611de55760405162461bcd60e51b81526004016106ea90613ecf565b611dee83612579565b98975050505050505050565b60cb818154811061069057600080fd5b6040805160048152602481018252602080820180516001600160e01b031663af05a74960e01b179052825160009181018290529092309260d0929091633f5a1e3360e21b910161079c565b60cf5460405163b3596f0760e01b81527321e48034753e490ff04f2f75f7caedf081b320d5600482015260009182916001600160a01b039091169063b3596f0790602401604080518083038186803b158015611eb057600080fd5b505afa158015611ec4573d6000803e3d6000fd5b505050506040513d601f19601f82011682018060405250810190611ee891906142df565b915091509091565b611ef8612a1e565b6001600160a01b0316611f136097546001600160a01b031690565b6001600160a01b031614611f395760405162461bcd60e51b81526004016106ea90613b93565b60d180546001600160a01b0319166001600160a01b0392909216919091179055565b606080606080611f6c878787612bde565b80519092506000805b82811015611fb657848181518110611f8f57611f8f613d30565b602002602001015182611fa291906140f0565b915080611fae81613f88565b915050611f75565b50816001600160401b03811115611fcf57611fcf6136c4565b604051908082528060200260200182016040528015611ff8578160200160208202803683370190505b50925060005b82811015612091578115612043578161271086838151811061202257612022613d30565b602002602001015161203491906140af565b61203e91906140ce565b612062565b60cb818154811061205657612056613d30565b90600052602060002001545b84828151811061207457612074613d30565b60209081029190910101528061208981613f88565b915050611ffe565b5060c960ca8585838054806020026020016040519081016040528092919081815260200182805480156120e357602002820191906000526020600020905b8154815260200190600101908083116120cf575b505050505093508280548060200260200160405190810160405280929190818152602001828054801561213f57602002820191906000526020600020905b81546001600160a01b03168152600190910190602001808311612121575b505050505092509550955095509550505093509350935093565b606080606060008061216c898989611f5b565b935093505050600081519050600080612183611e55565b9092509050600061219582600a6140a0565b836121a58c64e8d4a510006140af565b6121af91906140af565b6121b991906140ce565b905060005b848110156121ff578681815181106121d8576121d8613d30565b6020026020010151826121eb91906140f0565b9150806121f781613f88565b9150506121be565b50600080856001600160401b0381111561221b5761221b6136c4565b604051908082528060200260200182016040528015612244578160200160208202803683370190505b50905060005b8681101561231557600061271060cb838154811061226a5761226a613d30565b90600052602060002001548661228091906140af565b61228a91906140ce565b9050808a838151811061229f5761229f613d30565b602002602001015110156123025760008a83815181106122c1576122c1613d30565b6020026020010151826122d49190613d5c565b9050808484815181106122e9576122e9613d30565b60209081029190910101526122fe81866140f0565b9450505b508061230d81613f88565b91505061224a565b50856001600160401b0381111561232e5761232e6136c4565b604051908082528060200260200182016040528015612357578160200160208202803683370190505b50985060005b868110156123c4578282828151811061237857612378613d30565b60200260200101518e61238b91906140af565b61239591906140ce565b8a82815181106123a7576123a7613d30565b6020908102919091010152806123bc81613f88565b91505061235d565b5060c960ca8a8280548060200260200160405190810160405280929190818152602001828054801561241557602002820191906000526020600020905b815481526020019060010190808311612401575b505050505092508180548060200260200160405190810160405280929190818152602001828054801561247157602002820191906000526020600020905b81546001600160a01b03168152600190910190602001808311612453575b505050505091509a509a509a5050505050505050509450945094915050565b815181516000919081146124df5760405162461bcd60e51b815260206004820152601660248201527509cdee840dac2e8c6d040c2e4e4c2f240d8cadccee8d60531b60448201526064016106ea565b60006124ea85612579565b9050806124fc57600092505050611d84565b6000805b838110156125645786818151811061251a5761251a613d30565b602002602001015186828151811061253457612534613d30565b602002602001015161254691906140af565b61255090836140f0565b91508061255c81613f88565b915050612500565b5061256f82826140ce565b9695505050505050565b805160009081805b828110156125c25784818151811061259b5761259b613d30565b6020026020010151826125ae91906140f0565b9150806125ba81613f88565b915050612581565b509392505050565b6040805160048152602481018252602080820180516001600160e01b0316630ece90e960e41b179052825160009181018290529092309260d09290916340b8e57f60e01b910161079c565b61261d612a1e565b6001600160a01b03166126386097546001600160a01b031690565b6001600160a01b03161461265e5760405162461bcd60e51b81526004016106ea90613b93565b6001600160a01b0381166126c35760405162461bcd60e51b815260206004820152602660248201527f4f776e61626c653a206e6577206f776e657220697320746865207a65726f206160448201526564647265737360d01b60648201526084016106ea565b6126cc81612b8c565b50565b60006126db6001612d6e565b905080156126f7576000805460ff60a81b1916600160a81b1790555b6126ff612e0e565b60cd80546001600160a01b038088166001600160a01b0319928316179092556000805487841690831617815560ce805487851690841617905560cf80549386169383169390931790925560c980546001818101835560047f66be4f155c5ef2ebd3772b228f2f00681e4ed5826cdb3b1943cc11ad15ad1d2892830181905560ca805480840182557f42d72674974f694b5f5159593243114d38a5c39c89d6b62fee061ff523240ee19081018054881673eeeeeeeeeeeeeeeeeeeeeeeeeeeeeeeeeeeeeeee9081179091558654808601885586019390935581548085018355810180548816737d1afa7b718fb893db30a3abc0cfc608aacfebb01790558554808501875560619086015581548085018355810180548816841790558554808501875561a86990860155815480850183558101805488169093179092558454808401909555634e4541539490930193909355815480820190925591018054909216734861825e75ab14553e5af711ebbe6873d369d1461790915560cb80548083018255928190526107d07fa7ce836d032b2bf62b7e2097a8e0a6d8aeb35405ad15271e96d3b0188a1d06fb93840181905581548084018355840181905581548084018355840181905581548084018355840181905581549283019091559101556128e5612a2d565b60d0805460018101825560009190915260408051808201909152601680825275687474703a2f2f6c6f63616c686f73743a383030312f60501b6020909201918252612953927fe89d44c8fd6a9bac8af33ce47f56337617d449bf7ff3956b618c646de829cbcb01919061325a565b5060d180546001600160a01b0319166001600160a01b03871617905580156129b3576000805460ff60a81b19169055604051600181527f7f26b83ff96e1f2b6a682f133852f6798a09c465da95921460cefb384740249890602001610abf565b5050505050565b600080806129ca86880188614286565b9150915060006129e58284604051602001610b07919061427a565b60d1549091506001600160a01b03808316911614612a155760405162461bcd60e51b81526004016106ea90613ecf565b611dee83611b41565b6000612a28612e3f565b905090565b600060c9805480602002602001604051908101604052809291908181526020018280548015612a7b57602002820191906000526020600020905b815481526020019060010190808311612a67575b50505050509050600060ca805480602002602001604051908101604052809291908181526020018280548015612ada57602002820191906000526020600020905b81546001600160a01b03168152600190910190602001808311612abc575b505083519394506000925050505b81811015611a06578060cc6000868481518110612b0757612b07613d30565b602002602001015181526020019081526020016000206000858481518110612b3157612b31613d30565b60200260200101516001600160a01b03166001600160a01b03168152602001908152602001600020819055508080612b6890613f88565b915050612ae8565b6000806000612b7f8585612e73565b915091506125c281612ee3565b609780546001600160a01b038381166001600160a01b0319831681179093556040519116919082907f8be0079c531659141344cd1fd0a4f28419497f9722a3daafe3b4186f6b6457e090600090a35050565b815160ca5460609190806001600160401b03811115612bff57612bff6136c4565b604051908082528060200260200182016040528015612c28578160200160208202803683370190505b50925060005b82811015612d64576000878281518110612c4a57612c4a613d30565b602002602001015190506000878381518110612c6857612c68613d30565b602090810291909101810151600084815260cc835260408082206001600160a01b03841683529093529190912054909150808511612ca857505050612d52565b80158015612d09575060c9600081548110612cc557612cc5613d30565b906000526020600020015483141580612d09575060ca600081548110612ced57612ced613d30565b6000918252602090912001546001600160a01b03838116911614155b15612d1657505050612d52565b878481518110612d2857612d28613d30565b6020026020010151878281518110612d4257612d42613d30565b6020026020010181815250505050505b80612d5c81613f88565b915050612c2e565b5050509392505050565b60008054600160a81b900460ff1615612db7578160ff166001148015612d935750303b155b612daf5760405162461bcd60e51b81526004016106ea90614315565b506000919050565b60005460ff808416600160a01b9092041610612de55760405162461bcd60e51b81526004016106ea90614315565b506000805460ff909216600160a01b0260ff60a01b19909216919091179055600190565b919050565b600054600160a81b900460ff16612e375760405162461bcd60e51b81526004016106ea90614363565b61177061309e565b600060183610801590612e5c57506000546001600160a01b031633145b15612e6e575060131936013560601c90565b503390565b600080825160411415612eaa5760208301516040840151606085015160001a612e9e878285856130d7565b94509450505050612edc565b825160401415612ed45760208301516040840151612ec98683836131c4565b935093505050612edc565b506000905060025b9250929050565b6000816004811115612ef757612ef76143ae565b1415612f005750565b6001816004811115612f1457612f146143ae565b1415612f625760405162461bcd60e51b815260206004820152601860248201527f45434453413a20696e76616c6964207369676e6174757265000000000000000060448201526064016106ea565b6002816004811115612f7657612f766143ae565b1415612fc45760405162461bcd60e51b815260206004820152601f60248201527f45434453413a20696e76616c6964207369676e6174757265206c656e6774680060448201526064016106ea565b6003816004811115612fd857612fd86143ae565b14156130315760405162461bcd60e51b815260206004820152602260248201527f45434453413a20696e76616c6964207369676e6174757265202773272076616c604482015261756560f01b60648201526084016106ea565b6004816004811115613045576130456143ae565b14156126cc5760405162461bcd60e51b815260206004820152602260248201527f45434453413a20696e76616c6964207369676e6174757265202776272076616c604482015261756560f01b60648201526084016106ea565b600054600160a81b900460ff166130c75760405162461bcd60e51b81526004016106ea90614363565b6117706130d2612a1e565b612b8c565b6000807f7fffffffffffffffffffffffffffffff5d576e7357a4501ddfe92f46681b20a083111561310e57506000905060036131bb565b8460ff16601b1415801561312657508460ff16601c14155b1561313757506000905060046131bb565b6040805160008082526020820180845289905260ff881692820192909252606081018690526080810185905260019060a0016020604051602081039080840390855afa15801561318b573d6000803e3d6000fd5b5050604051601f1901519150506001600160a01b0381166131b4576000600192509250506131bb565b9150600090505b94509492505050565b6000806001600160ff1b038316816131e160ff86901c601b6140f0565b90506131ef878288856130d7565b935093505050935093915050565b82805482825590600052602060002090810192821561324a579160200282015b8281111561324a578251805161323a91849160209091019061325a565b509160200191906001019061321d565b506132569291506132da565b5090565b82805461326690613bc8565b90600052602060002090601f01602090048101928261328857600085556132ce565b82601f106132a157805160ff19168380011785556132ce565b828001600101855582156132ce579182015b828111156132ce5782518255916020019190600101906132b3565b506132569291506132f7565b808211156132565760006132ee828261330c565b506001016132da565b5b8082111561325657600081556001016132f8565b50805461331890613bc8565b6000825580601f10613328575050565b601f0160209004906000526020600020908101906126cc91906132f7565b60006020828403121561335857600080fd5b5035919050565b80356001600160a01b0381168114612e0957600080fd5b60006020828403121561338857600080fd5b611d818261335f565b600080604083850312156133a457600080fd5b823591506133b46020840161335f565b90509250929050565b60008083601f8401126133cf57600080fd5b5081356001600160401b038111156133e657600080fd5b602083019150836020828501011115612edc57600080fd5b6000806000806040858703121561341457600080fd5b84356001600160401b038082111561342b57600080fd5b613437888389016133bd565b9096509450602087013591508082111561345057600080fd5b5061345d878288016133bd565b95989497509550505050565b600081518084526020808501945080840160005b838110156134995781518752958201959082019060010161347d565b509495945050505050565b600081518084526020808501945080840160005b838110156134995781516001600160a01b0316875295820195908201906001016134b8565b6080815260006134f06080830187613469565b828103602084015261350281876134a4565b905082810360408401526135168186613469565b9050828103606084015261352a8185613469565b979650505050505050565b6000815180845260005b8181101561355b5760208185018101518683018201520161353f565b8181111561356d576000602083870101525b50601f01601f19169290920160200192915050565b602081526000611d816020830184613535565b6060815260006135a86060830186613469565b82810360208401526135ba81866134a4565b9050828103604084015261256f8185613469565b60e0815260006135e160e083018a613469565b82810360208401526135f3818a6134a4565b905082810360408401526136078189613469565b9050828103606084015261361b8188613469565b9050828103608084015261362f8187613469565b905082810360a08401526136438186613469565b905082810360c08401526136578185613469565b9a9950505050505050505050565b6000806040838503121561367857600080fd5b6136818361335f565b946020939093013593505050565b6000806000606084860312156136a457600080fd5b833592506136b46020850161335f565b9150604084013590509250925092565b634e487b7160e01b600052604160045260246000fd5b604051601f8201601f191681016001600160401b0381118282101715613702576137026136c4565b604052919050565b60006001600160401b03821115613723576137236136c4565b5060051b60200190565b60006001600160401b03831115613746576137466136c4565b613759601f8401601f19166020016136da565b905082815283838301111561376d57600080fd5b828260208301376000602084830101529392505050565b6000602080838503121561379757600080fd5b82356001600160401b03808211156137ae57600080fd5b818501915085601f8301126137c257600080fd5b81356137d56137d08261370a565b6136da565b81815260059190911b830184019084810190888311156137f457600080fd5b8585015b83811015613841578035858111156138105760008081fd5b8601603f81018b136138225760008081fd5b6138338b898301356040840161372d565b8452509186019186016137f8565b5098975050505050505050565b6000806020838503121561386157600080fd5b82356001600160401b038082111561387857600080fd5b818501915085601f83011261388c57600080fd5b81358181111561389b57600080fd5b8660208260051b85010111156138b057600080fd5b60209290920196919550909350505050565b600082601f8301126138d357600080fd5b813560206138e36137d08361370a565b82815260059290921b8401810191818101908684111561390257600080fd5b8286015b8481101561391d5780358352918301918301613906565b509695505050505050565b60006020828403121561393a57600080fd5b81356001600160401b0381111561395057600080fd5b61395c848285016138c2565b949350505050565b600082601f83011261397557600080fd5b813560206139856137d08361370a565b82815260059290921b840181019181810190868411156139a457600080fd5b8286015b8481101561391d576139b98161335f565b83529183019183016139a8565b6000806000606084860312156139db57600080fd5b83356001600160401b03808211156139f257600080fd5b6139fe878388016138c2565b94506020860135915080821115613a1457600080fd5b613a2087838801613964565b93506040860135915080821115613a3657600080fd5b50613a43868287016138c2565b9150509250925092565b60008060008060808587031215613a6357600080fd5b84356001600160401b0380821115613a7a57600080fd5b613a86888389016138c2565b95506020870135915080821115613a9c57600080fd5b613aa888838901613964565b94506040870135915080821115613abe57600080fd5b50613acb878288016138c2565b949793965093946060013593505050565b60008060408385031215613aef57600080fd5b82356001600160401b0380821115613b0657600080fd5b613b12868387016138c2565b93506020850135915080821115613b2857600080fd5b50613b35858286016138c2565b9150509250929050565b60008060008060808587031215613b5557600080fd5b613b5e8561335f565b9350613b6c6020860161335f565b9250613b7a6040860161335f565b9150613b886060860161335f565b905092959194509250565b6020808252818101527f4f776e61626c653a2063616c6c6572206973206e6f7420746865206f776e6572604082015260600190565b600181811c90821680613bdc57607f821691505b60208210811415613bfd57634e487b7160e01b600052602260045260246000fd5b50919050565b600060a0820160018060a01b0388168352602060a08185015281885480845260c08601915060c08160051b870101935060008a8152838120815b83811015613cf45788870360bf1901855281548390600181811c9080831680613c6757607f831692505b8a8310811415613c8557634e487b7160e01b88526022600452602488fd5b828c5260208c01818015613ca05760018114613cb157613cdb565b60ff19861682528c82019650613cdb565b6000898152602090208a5b86811015613cd557815484820152908501908e01613cbc565b83019750505b50949b5050978901979490940193505050600101613c3d565b5050505050508281036040840152613d0c8187613535565b6001600160e01b03198616606085015290508281036080840152611dee8185613535565b634e487b7160e01b600052603260045260246000fd5b634e487b7160e01b600052601160045260246000fd5b600082821015613d6e57613d6e613d46565b500390565b634e487b7160e01b600052603160045260246000fd5b600082601f830112613d9a57600080fd5b611d818383356020850161372d565b60008060008060808587031215613dbf57600080fd5b84356001600160401b0380821115613dd657600080fd5b613de2888389016138c2565b95506020870135915080821115613df857600080fd5b613e0488838901613964565b94506040870135915080821115613e1a57600080fd5b613e26888389016138c2565b93506060870135915080821115613e3c57600080fd5b50613e4987828801613d89565b91505092959194509250565b805160009060208084018383156134995781518752958201959082019060010161347d565b805160009060208084018383156134995781516001600160a01b0316875295820195908201906001016134b8565b6000613ec6613ec0613eba8488613e55565b86613e7a565b84613e55565b95945050505050565b60208082526013908201527214da59db995c881a5cc81a5b98dbdc9c9958dd606a1b604082015260600190565b600080600060608486031215613f1157600080fd5b83356001600160401b0380821115613f2857600080fd5b613f34878388016138c2565b94506020860135915080821115613f4a57600080fd5b613f56878388016138c2565b93506040860135915080821115613f6c57600080fd5b50613a4386828701613d89565b600061395c613ec08386613e55565b6000600019821415613f9c57613f9c613d46565b5060010190565b600060208284031215613fb557600080fd5b5051919050565b600181815b80851115613ff7578160001904821115613fdd57613fdd613d46565b80851615613fea57918102915b93841c9390800290613fc1565b509250929050565b60008261400e57506001611d84565b8161401b57506000611d84565b8160018114614031576002811461403b57614057565b6001915050611d84565b60ff84111561404c5761404c613d46565b50506001821b611d84565b5060208310610133831016604e8410600b841016171561407a575081810a611d84565b6140848383613fbc565b806000190482111561409857614098613d46565b029392505050565b6000611d8160ff841683613fff565b60008160001904831182151516156140c9576140c9613d46565b500290565b6000826140eb57634e487b7160e01b600052601260045260246000fd5b500490565b6000821982111561410357614103613d46565b500190565b600080600080600080600080610100898b03121561412557600080fd5b88356001600160401b038082111561413c57600080fd5b6141488c838d016138c2565b995060208b013591508082111561415e57600080fd5b61416a8c838d01613964565b985060408b013591508082111561418057600080fd5b61418c8c838d016138c2565b975060608b01359150808211156141a257600080fd5b6141ae8c838d016138c2565b965060808b01359150808211156141c457600080fd5b6141d08c838d016138c2565b955060a08b01359150808211156141e657600080fd5b6141f28c838d016138c2565b945060c08b013591508082111561420857600080fd5b6142148c838d016138c2565b935060e08b013591508082111561422a57600080fd5b506142378b828c01613d89565b9150509295985092959890939650565b6000611dee613ec061427461426e614268614262878e613e55565b8c613e7a565b8a613e55565b88613e55565b86613e55565b6000611d818284613e55565b6000806040838503121561429957600080fd5b82356001600160401b03808211156142b057600080fd5b6142bc868387016138c2565b935060208501359150808211156142d257600080fd5b50613b3585828601613d89565b600080604083850312156142f257600080fd5b82519150602083015160ff8116811461430a57600080fd5b809150509250929050565b6020808252602e908201527f496e697469616c697a61626c653a20636f6e747261637420697320616c72656160408201526d191e481a5b9a5d1a585b1a5e995960921b606082015260800190565b6020808252602b908201527f496e697469616c697a61626c653a20636f6e7472616374206973206e6f74206960408201526a6e697469616c697a696e6760a81b606082015260800190565b634e487b7160e01b600052602160045260246000fdfea264697066735822122025704d3c17a887506fac4ba0c998ad8490ade93dc164f1ace89b6c4b51bc1a0c64736f6c63430008090033",
  "devdoc": {
    "kind": "dev",
    "methods": {
      "burnByAdmin(address,uint256)": {
        "details": "mint STIs according to the deposited USDT",
        "params": {
          "_account": "account to which STIs will be minted",
          "_share": "amount of STI to be burnt"
        }
      },
      "getDepositTokenComposition(uint256[],address[],uint256[],uint256)": {
        "params": {
          "_USDTAmt": "amount of USDT with 6 decimals"
        },
        "returns": {
          "_0": "_USDTAmts amount of USDT should be deposited to each pools"
        }
      },
      "getPoolsUnbonded1(address)": {
        "returns": {
          "_0": "_chainIDs is an array of chain IDs.",
          "_1": "_tokens is an array of tokens.",
          "_2": "_waitings is an array of token amounts that is not unbonded.",
          "_3": "_waitingInUSDs is an array of USD value of token amounts that is not unbonded.",
          "_4": "_unbondeds is an array of token amounts that is unbonded.",
          "_5": "_unbondedInUSDs is an array USD value of token amounts that is unbonded.",
          "_6": "_waitForTses is an array of timestamps to wait to the next claim."
        }
      },
      "getUSDTPriceInUSD()": {
        "returns": {
          "_0": "the price of USDT in USD."
        }
      },
      "getWithdrawPerc(address,uint256)": {
        "params": {
          "_share": "amount of STI to be withdrawn"
        },
        "returns": {
          "_sharePerc": "percentage of assets which should be withdrawn. It's 18 decimals"
        }
      },
      "mintByAdmin(uint256,address,uint256)": {
        "details": "mint STIs according to the deposited USDT",
        "params": {
          "_USDTAmt": "the deposited amount of USDT with 6 decimals",
          "_account": "account to which STIs will be minted",
          "_pool": "total USD worth in all pools of STI after deposited"
        }
      },
      "owner()": {
        "details": "Returns the address of the current owner."
      },
      "paused()": {
        "details": "Returns true if the contract is paused, and false otherwise."
      },
      "renounceOwnership()": {
        "details": "Leaves the contract without owner. It will not be possible to call `onlyOwner` functions anymore. Can only be called by the current owner. NOTE: Renouncing ownership will leave the contract without an owner, thereby removing any functionality that is only available to the owner."
      },
      "transferOwnership(address)": {
        "details": "Transfers ownership of the contract to a new account (`newOwner`). Can only be called by the current owner."
      }
    },
    "version": 1
  },
  "userdoc": {
    "kind": "user",
    "methods": {
      "addToken(uint256,address)": {
        "notice": "After this method called, setTokenCompositionTargetPerc should be called to adjust percentages."
      },
      "getAPR(uint256[],uint256[])": {
        "notice": "The length of array is based on network count. And the lengths should be same on the arraies."
      },
      "getAllPoolInUSD(uint256[])": {
        "notice": "The length of array is based on network count. And the lengths should be same on the arraies."
      },
      "getCurrentTokenCompositionPerc(uint256[],address[],uint256[])": {
        "notice": "The length of array is based on token count. And the lengths should be same on the arraies."
      },
      "getDepositTokenComposition(uint256[],address[],uint256[],uint256)": {
        "notice": "The length of array is based on token count. And the lengths should be same on the arraies."
      },
      "getPricePerFullShare(uint256[])": {
        "notice": "Can be used for calculate both user shares & APR"
      },
      "isTrustedForwarder(address)": {
        "notice": "return if the forwarder is trusted to forward relayed transactions to us. the forwarder is required to verify the sender's signature, and verify the call is not a replay."
      },
      "removeToken(uint256)": {
        "notice": "After this method called, setTokenCompositionTargetPerc should be called to adjust percentages."
      },
      "setTokenCompositionTargetPerc(uint256[])": {
        "notice": "The length of array is based on token count."
      }
    },
    "version": 1
  },
  "storageLayout": {
    "storage": [
      {
        "astId": 53131,
        "contract": "contracts/sti/STIMinterTest.sol:STIMinterTest",
        "label": "trustedForwarder",
        "offset": 0,
        "slot": "0",
        "type": "t_address"
      },
      {
        "astId": 130,
        "contract": "contracts/sti/STIMinterTest.sol:STIMinterTest",
        "label": "_initialized",
        "offset": 20,
        "slot": "0",
        "type": "t_uint8"
      },
      {
        "astId": 133,
        "contract": "contracts/sti/STIMinterTest.sol:STIMinterTest",
        "label": "_initializing",
        "offset": 21,
        "slot": "0",
        "type": "t_bool"
      },
      {
        "astId": 390,
        "contract": "contracts/sti/STIMinterTest.sol:STIMinterTest",
        "label": "_status",
        "offset": 0,
        "slot": "1",
        "type": "t_uint256"
      },
      {
        "astId": 434,
        "contract": "contracts/sti/STIMinterTest.sol:STIMinterTest",
        "label": "__gap",
        "offset": 0,
        "slot": "2",
        "type": "t_array(t_uint256)49_storage"
      },
      {
        "astId": 2709,
        "contract": "contracts/sti/STIMinterTest.sol:STIMinterTest",
        "label": "__gap",
        "offset": 0,
        "slot": "51",
        "type": "t_array(t_uint256)50_storage"
      },
      {
        "astId": 286,
        "contract": "contracts/sti/STIMinterTest.sol:STIMinterTest",
        "label": "_paused",
        "offset": 0,
        "slot": "101",
        "type": "t_bool"
      },
      {
        "astId": 375,
        "contract": "contracts/sti/STIMinterTest.sol:STIMinterTest",
        "label": "__gap",
        "offset": 0,
        "slot": "102",
        "type": "t_array(t_uint256)49_storage"
      },
      {
        "astId": 10,
        "contract": "contracts/sti/STIMinterTest.sol:STIMinterTest",
        "label": "_owner",
        "offset": 0,
        "slot": "151",
        "type": "t_address"
      },
      {
        "astId": 122,
        "contract": "contracts/sti/STIMinterTest.sol:STIMinterTest",
        "label": "__gap",
        "offset": 0,
        "slot": "152",
        "type": "t_array(t_uint256)49_storage"
      },
      {
        "astId": 42592,
        "contract": "contracts/sti/STIMinterTest.sol:STIMinterTest",
        "label": "chainIDs",
        "offset": 0,
        "slot": "201",
        "type": "t_array(t_uint256)dyn_storage"
      },
      {
        "astId": 42595,
        "contract": "contracts/sti/STIMinterTest.sol:STIMinterTest",
        "label": "tokens",
        "offset": 0,
        "slot": "202",
        "type": "t_array(t_address)dyn_storage"
      },
      {
        "astId": 42598,
        "contract": "contracts/sti/STIMinterTest.sol:STIMinterTest",
        "label": "targetPercentages",
        "offset": 0,
        "slot": "203",
        "type": "t_array(t_uint256)dyn_storage"
      },
      {
        "astId": 42604,
        "contract": "contracts/sti/STIMinterTest.sol:STIMinterTest",
        "label": "tid",
        "offset": 0,
        "slot": "204",
        "type": "t_mapping(t_uint256,t_mapping(t_address,t_uint256))"
      },
      {
        "astId": 42606,
        "contract": "contracts/sti/STIMinterTest.sol:STIMinterTest",
        "label": "admin",
        "offset": 0,
        "slot": "205",
        "type": "t_address"
      },
      {
        "astId": 42609,
        "contract": "contracts/sti/STIMinterTest.sol:STIMinterTest",
        "label": "STI",
        "offset": 0,
        "slot": "206",
        "type": "t_contract(ISTI)42470"
      },
      {
        "astId": 42612,
        "contract": "contracts/sti/STIMinterTest.sol:STIMinterTest",
        "label": "priceOracle",
        "offset": 0,
        "slot": "207",
        "type": "t_contract(IPriceOracle)11071"
      },
      {
        "astId": 42615,
        "contract": "contracts/sti/STIMinterTest.sol:STIMinterTest",
        "label": "urls",
        "offset": 0,
        "slot": "208",
        "type": "t_array(t_string_storage)dyn_storage"
      },
      {
        "astId": 42617,
        "contract": "contracts/sti/STIMinterTest.sol:STIMinterTest",
        "label": "gatewaySigner",
        "offset": 0,
        "slot": "209",
        "type": "t_address"
      }
    ],
    "types": {
      "t_address": {
        "encoding": "inplace",
        "label": "address",
        "numberOfBytes": "20"
      },
      "t_array(t_address)dyn_storage": {
        "base": "t_address",
        "encoding": "dynamic_array",
        "label": "address[]",
        "numberOfBytes": "32"
      },
      "t_array(t_string_storage)dyn_storage": {
        "base": "t_string_storage",
        "encoding": "dynamic_array",
        "label": "string[]",
        "numberOfBytes": "32"
      },
      "t_array(t_uint256)49_storage": {
        "base": "t_uint256",
        "encoding": "inplace",
        "label": "uint256[49]",
        "numberOfBytes": "1568"
      },
      "t_array(t_uint256)50_storage": {
        "base": "t_uint256",
        "encoding": "inplace",
        "label": "uint256[50]",
        "numberOfBytes": "1600"
      },
      "t_array(t_uint256)dyn_storage": {
        "base": "t_uint256",
        "encoding": "dynamic_array",
        "label": "uint256[]",
        "numberOfBytes": "32"
      },
      "t_bool": {
        "encoding": "inplace",
        "label": "bool",
        "numberOfBytes": "1"
      },
      "t_contract(IPriceOracle)11071": {
        "encoding": "inplace",
        "label": "contract IPriceOracle",
        "numberOfBytes": "20"
      },
      "t_contract(ISTI)42470": {
        "encoding": "inplace",
        "label": "contract ISTI",
        "numberOfBytes": "20"
      },
      "t_mapping(t_address,t_uint256)": {
        "encoding": "mapping",
        "key": "t_address",
        "label": "mapping(address => uint256)",
        "numberOfBytes": "32",
        "value": "t_uint256"
      },
      "t_mapping(t_uint256,t_mapping(t_address,t_uint256))": {
        "encoding": "mapping",
        "key": "t_uint256",
        "label": "mapping(uint256 => mapping(address => uint256))",
        "numberOfBytes": "32",
        "value": "t_mapping(t_address,t_uint256)"
      },
      "t_string_storage": {
        "encoding": "bytes",
        "label": "string",
        "numberOfBytes": "32"
      },
      "t_uint256": {
        "encoding": "inplace",
        "label": "uint256",
        "numberOfBytes": "32"
      },
      "t_uint8": {
        "encoding": "inplace",
        "label": "uint8",
        "numberOfBytes": "1"
      }
    }
  }
}