{
  "address": "0x5EcD3A5B0A234562C92B27Ab1FeaF606a5EE09eF",
  "abi": [
    {
      "anonymous": false,
      "inputs": [
        {
          "indexed": false,
          "internalType": "uint8",
          "name": "version",
          "type": "uint8"
        }
      ],
      "name": "Initialized",
      "type": "event"
    },
    {
      "anonymous": false,
      "inputs": [
        {
          "indexed": true,
          "internalType": "address",
          "name": "previousOwner",
          "type": "address"
        },
        {
          "indexed": true,
          "internalType": "address",
          "name": "newOwner",
          "type": "address"
        }
      ],
      "name": "OwnershipTransferred",
      "type": "event"
    },
    {
      "anonymous": false,
      "inputs": [
        {
          "indexed": false,
          "internalType": "address",
          "name": "account",
          "type": "address"
        }
      ],
      "name": "Paused",
      "type": "event"
    },
    {
      "anonymous": false,
      "inputs": [
        {
          "indexed": true,
          "internalType": "bytes32",
          "name": "role",
          "type": "bytes32"
        },
        {
          "indexed": true,
          "internalType": "bytes32",
          "name": "previousAdminRole",
          "type": "bytes32"
        },
        {
          "indexed": true,
          "internalType": "bytes32",
          "name": "newAdminRole",
          "type": "bytes32"
        }
      ],
      "name": "RoleAdminChanged",
      "type": "event"
    },
    {
      "anonymous": false,
      "inputs": [
        {
          "indexed": true,
          "internalType": "bytes32",
          "name": "role",
          "type": "bytes32"
        },
        {
          "indexed": true,
          "internalType": "address",
          "name": "account",
          "type": "address"
        },
        {
          "indexed": true,
          "internalType": "address",
          "name": "sender",
          "type": "address"
        }
      ],
      "name": "RoleGranted",
      "type": "event"
    },
    {
      "anonymous": false,
      "inputs": [
        {
          "indexed": true,
          "internalType": "bytes32",
          "name": "role",
          "type": "bytes32"
        },
        {
          "indexed": true,
          "internalType": "address",
          "name": "account",
          "type": "address"
        },
        {
          "indexed": true,
          "internalType": "address",
          "name": "sender",
          "type": "address"
        }
      ],
      "name": "RoleRevoked",
      "type": "event"
    },
    {
      "anonymous": false,
      "inputs": [
        {
          "indexed": true,
          "internalType": "address",
          "name": "from",
          "type": "address"
        },
        {
          "indexed": false,
          "internalType": "address",
          "name": "token",
          "type": "address"
        },
        {
          "indexed": true,
          "internalType": "uint256",
          "name": "amount",
          "type": "uint256"
        },
        {
          "indexed": false,
          "internalType": "uint256",
          "name": "fromChainId",
          "type": "uint256"
        },
        {
          "indexed": true,
          "internalType": "uint256",
          "name": "toChainId",
          "type": "uint256"
        },
        {
          "indexed": false,
          "internalType": "address",
          "name": "to",
          "type": "address"
        },
        {
          "indexed": false,
          "internalType": "enum BasicUserAgentBase.AdapterType",
          "name": "adapterType",
          "type": "uint8"
        },
        {
          "indexed": false,
          "internalType": "uint256",
          "name": "nonce",
          "type": "uint256"
        }
      ],
      "name": "Transfer",
      "type": "event"
    },
    {
      "anonymous": false,
      "inputs": [
        {
          "indexed": false,
          "internalType": "address",
          "name": "account",
          "type": "address"
        }
      ],
      "name": "Unpaused",
      "type": "event"
    },
    {
      "inputs": [],
      "name": "ADAPTER_ROLE",
      "outputs": [
        {
          "internalType": "bytes32",
          "name": "",
          "type": "bytes32"
        }
      ],
      "stateMutability": "view",
      "type": "function"
    },
    {
      "inputs": [],
      "name": "DEFAULT_ADMIN_ROLE",
      "outputs": [
        {
          "internalType": "bytes32",
          "name": "",
          "type": "bytes32"
        }
      ],
      "stateMutability": "view",
      "type": "function"
    },
    {
      "inputs": [],
      "name": "USDC",
      "outputs": [
        {
          "internalType": "contract IERC20Upgradeable",
          "name": "",
          "type": "address"
        }
      ],
      "stateMutability": "view",
      "type": "function"
    },
    {
      "inputs": [],
      "name": "USDT",
      "outputs": [
        {
          "internalType": "contract IERC20Upgradeable",
          "name": "",
          "type": "address"
        }
      ],
      "stateMutability": "view",
      "type": "function"
    },
    {
      "inputs": [],
      "name": "admin",
      "outputs": [
        {
          "internalType": "address",
          "name": "",
          "type": "address"
        }
      ],
      "stateMutability": "view",
      "type": "function"
    },
    {
      "inputs": [
        {
          "internalType": "uint256",
          "name": "_pool",
          "type": "uint256"
        },
        {
          "internalType": "uint256",
          "name": "_share",
          "type": "uint256"
        },
        {
          "internalType": "bytes",
          "name": "_signature",
          "type": "bytes"
        }
      ],
      "name": "burn",
      "outputs": [
        {
          "internalType": "uint256",
          "name": "_feeAmt",
          "type": "uint256"
        }
      ],
      "stateMutability": "payable",
      "type": "function"
    },
    {
      "inputs": [
        {
          "internalType": "address",
          "name": "_account",
          "type": "address"
        },
        {
          "internalType": "uint256",
          "name": "_pool",
          "type": "uint256"
        },
        {
          "internalType": "uint256",
          "name": "_share",
          "type": "uint256"
        }
      ],
      "name": "burnByAdmin",
      "outputs": [],
      "stateMutability": "nonpayable",
      "type": "function"
    },
    {
      "inputs": [
        {
          "internalType": "uint256",
          "name": "",
          "type": "uint256"
        }
      ],
      "name": "callAdapterTypes",
      "outputs": [
        {
          "internalType": "enum BasicUserAgentBase.AdapterType",
          "name": "",
          "type": "uint8"
        }
      ],
      "stateMutability": "view",
      "type": "function"
    },
    {
      "inputs": [],
      "name": "cbridgeAdapter",
      "outputs": [
        {
          "internalType": "contract IXChainAdapter",
          "name": "",
          "type": "address"
        }
      ],
      "stateMutability": "view",
      "type": "function"
    },
    {
      "inputs": [
        {
          "internalType": "uint256",
          "name": "",
          "type": "uint256"
        }
      ],
      "name": "cbridgeSenders",
      "outputs": [
        {
          "internalType": "address",
          "name": "",
          "type": "address"
        }
      ],
      "stateMutability": "view",
      "type": "function"
    },
    {
      "inputs": [],
      "name": "chainIdOnLP",
      "outputs": [
        {
          "internalType": "uint256",
          "name": "",
          "type": "uint256"
        }
      ],
      "stateMutability": "view",
      "type": "function"
    },
    {
      "inputs": [
        {
          "internalType": "uint256[]",
          "name": "_chainIds",
          "type": "uint256[]"
        },
        {
          "internalType": "bytes",
          "name": "_signature",
          "type": "bytes"
        }
      ],
      "name": "claim",
      "outputs": [
        {
          "internalType": "uint256",
          "name": "_feeAmt",
          "type": "uint256"
        }
      ],
      "stateMutability": "payable",
      "type": "function"
    },
    {
      "inputs": [
        {
          "internalType": "address",
          "name": "_account",
          "type": "address"
        }
      ],
      "name": "claimByAgent",
      "outputs": [],
      "stateMutability": "nonpayable",
      "type": "function"
    },
    {
      "inputs": [
        {
          "internalType": "uint256[]",
          "name": "_toChainIds",
          "type": "uint256[]"
        },
        {
          "internalType": "address[]",
          "name": "_tokens",
          "type": "address[]"
        },
        {
          "internalType": "uint256[]",
          "name": "_USDT6Amts",
          "type": "uint256[]"
        },
        {
          "internalType": "uint256",
          "name": "_minterNonce",
          "type": "uint256"
        },
        {
          "internalType": "bytes",
          "name": "_signature",
          "type": "bytes"
        }
      ],
      "name": "deposit",
      "outputs": [
        {
          "internalType": "uint256",
          "name": "_feeAmt",
          "type": "uint256"
        }
      ],
      "stateMutability": "payable",
      "type": "function"
    },
    {
      "inputs": [
        {
          "internalType": "address",
          "name": "_account",
          "type": "address"
        },
        {
          "internalType": "address[]",
          "name": "_tokens",
          "type": "address[]"
        },
        {
          "internalType": "uint256[]",
          "name": "_USDT6Amts",
          "type": "uint256[]"
        },
        {
          "internalType": "uint256",
          "name": "_minterNonce",
          "type": "uint256"
        }
      ],
      "name": "depositByAgent",
      "outputs": [],
      "stateMutability": "nonpayable",
      "type": "function"
    },
    {
      "inputs": [
        {
          "internalType": "uint256",
          "name": "_gatheredAmount",
          "type": "uint256"
        },
        {
          "internalType": "bytes",
          "name": "_signature",
          "type": "bytes"
        }
      ],
      "name": "exitWithdrawal",
      "outputs": [
        {
          "internalType": "uint256",
          "name": "_feeAmt",
          "type": "uint256"
        }
      ],
      "stateMutability": "payable",
      "type": "function"
    },
    {
      "inputs": [
        {
          "internalType": "address",
          "name": "_account",
          "type": "address"
        }
      ],
      "name": "exitWithdrawalByAdmin",
      "outputs": [],
      "stateMutability": "nonpayable",
      "type": "function"
    },
    {
      "inputs": [
        {
          "internalType": "uint256[]",
          "name": "_fromChainIds",
          "type": "uint256[]"
        },
        {
          "internalType": "enum BasicUserAgentBase.AdapterType[]",
          "name": "_adapterTypes",
          "type": "uint8[]"
        },
        {
          "internalType": "bytes",
          "name": "_signature",
          "type": "bytes"
        }
      ],
      "name": "gather",
      "outputs": [
        {
          "internalType": "uint256",
          "name": "_feeAmt",
          "type": "uint256"
        }
      ],
      "stateMutability": "payable",
      "type": "function"
    },
    {
      "inputs": [
        {
          "internalType": "address",
          "name": "_account",
          "type": "address"
        },
        {
          "internalType": "uint256",
          "name": "_toChainId",
          "type": "uint256"
        },
        {
          "internalType": "enum BasicUserAgentBase.AdapterType",
          "name": "_adapterType",
          "type": "uint8"
        }
      ],
      "name": "gatherByAdmin",
      "outputs": [],
      "stateMutability": "nonpayable",
      "type": "function"
    },
    {
      "inputs": [
        {
          "internalType": "bytes",
          "name": "message",
          "type": "bytes"
        }
      ],
      "name": "getMessageHashForSafe",
      "outputs": [
        {
          "internalType": "bytes32",
          "name": "",
          "type": "bytes32"
        }
      ],
      "stateMutability": "view",
      "type": "function"
    },
    {
      "inputs": [
        {
          "internalType": "bytes32",
          "name": "role",
          "type": "bytes32"
        }
      ],
      "name": "getRoleAdmin",
      "outputs": [
        {
          "internalType": "bytes32",
          "name": "",
          "type": "bytes32"
        }
      ],
      "stateMutability": "view",
      "type": "function"
    },
    {
      "inputs": [
        {
          "internalType": "bytes32",
          "name": "role",
          "type": "bytes32"
        },
        {
          "internalType": "uint256",
          "name": "index",
          "type": "uint256"
        }
      ],
      "name": "getRoleMember",
      "outputs": [
        {
          "internalType": "address",
          "name": "",
          "type": "address"
        }
      ],
      "stateMutability": "view",
      "type": "function"
    },
    {
      "inputs": [
        {
          "internalType": "bytes32",
          "name": "role",
          "type": "bytes32"
        }
      ],
      "name": "getRoleMemberCount",
      "outputs": [
        {
          "internalType": "uint256",
          "name": "",
          "type": "uint256"
        }
      ],
      "stateMutability": "view",
      "type": "function"
    },
    {
      "inputs": [
        {
          "internalType": "bytes32",
          "name": "role",
          "type": "bytes32"
        },
        {
          "internalType": "address",
          "name": "account",
          "type": "address"
        }
      ],
      "name": "grantRole",
      "outputs": [],
      "stateMutability": "nonpayable",
      "type": "function"
    },
    {
      "inputs": [
        {
          "internalType": "bytes32",
          "name": "role",
          "type": "bytes32"
        },
        {
          "internalType": "address",
          "name": "account",
          "type": "address"
        }
      ],
      "name": "hasRole",
      "outputs": [
        {
          "internalType": "bool",
          "name": "",
          "type": "bool"
        }
      ],
      "stateMutability": "view",
      "type": "function"
    },
    {
      "inputs": [],
      "name": "isLPChain",
      "outputs": [
        {
          "internalType": "bool",
          "name": "",
          "type": "bool"
        }
      ],
      "stateMutability": "view",
      "type": "function"
    },
    {
      "inputs": [
        {
          "internalType": "address",
          "name": "forwarder",
          "type": "address"
        }
      ],
      "name": "isTrustedForwarder",
      "outputs": [
        {
          "internalType": "bool",
          "name": "",
          "type": "bool"
        }
      ],
      "stateMutability": "view",
      "type": "function"
    },
    {
      "inputs": [
        {
          "internalType": "address",
          "name": "_account",
          "type": "address"
        },
        {
          "internalType": "bytes",
          "name": "_data",
          "type": "bytes"
        },
        {
          "internalType": "bytes",
          "name": "_signature",
          "type": "bytes"
        }
      ],
      "name": "isValidSignature",
      "outputs": [
        {
          "internalType": "bool",
          "name": "",
          "type": "bool"
        }
      ],
      "stateMutability": "view",
      "type": "function"
    },
    {
      "inputs": [
        {
          "internalType": "uint256",
          "name": "_USDT6Amt",
          "type": "uint256"
        },
        {
          "internalType": "bytes",
          "name": "_signature",
          "type": "bytes"
        }
      ],
      "name": "mint",
      "outputs": [
        {
          "internalType": "uint256",
          "name": "_feeAmt",
          "type": "uint256"
        }
      ],
      "stateMutability": "payable",
      "type": "function"
    },
    {
      "inputs": [
        {
          "internalType": "address",
          "name": "_account",
          "type": "address"
        },
        {
          "internalType": "uint256",
          "name": "_USDT6Amt",
          "type": "uint256"
        }
      ],
      "name": "mintByAdmin",
      "outputs": [],
      "stateMutability": "nonpayable",
      "type": "function"
    },
    {
      "inputs": [],
      "name": "multichainAdapter",
      "outputs": [
        {
          "internalType": "contract IXChainAdapter",
          "name": "",
          "type": "address"
        }
      ],
      "stateMutability": "view",
      "type": "function"
    },
    {
      "inputs": [
        {
          "internalType": "address",
          "name": "",
          "type": "address"
        }
      ],
      "name": "nonces",
      "outputs": [
        {
          "internalType": "uint256",
          "name": "",
          "type": "uint256"
        }
      ],
      "stateMutability": "view",
      "type": "function"
    },
    {
      "inputs": [],
      "name": "owner",
      "outputs": [
        {
          "internalType": "address",
          "name": "",
          "type": "address"
        }
      ],
      "stateMutability": "view",
      "type": "function"
    },
    {
      "inputs": [],
      "name": "paused",
      "outputs": [
        {
          "internalType": "bool",
          "name": "",
          "type": "bool"
        }
      ],
      "stateMutability": "view",
      "type": "function"
    },
    {
      "inputs": [],
      "name": "renounceOwnership",
      "outputs": [],
      "stateMutability": "nonpayable",
      "type": "function"
    },
    {
      "inputs": [
        {
          "internalType": "bytes32",
          "name": "role",
          "type": "bytes32"
        },
        {
          "internalType": "address",
          "name": "account",
          "type": "address"
        }
      ],
      "name": "renounceRole",
      "outputs": [],
      "stateMutability": "nonpayable",
      "type": "function"
    },
    {
      "inputs": [
        {
          "internalType": "bytes32",
          "name": "role",
          "type": "bytes32"
        },
        {
          "internalType": "address",
          "name": "account",
          "type": "address"
        }
      ],
      "name": "revokeRole",
      "outputs": [],
      "stateMutability": "nonpayable",
      "type": "function"
    },
    {
      "inputs": [],
      "name": "stiMinter",
      "outputs": [
        {
          "internalType": "contract ISTIMinter",
          "name": "",
          "type": "address"
        }
      ],
      "stateMutability": "view",
      "type": "function"
    },
    {
      "inputs": [
        {
          "internalType": "uint256",
          "name": "",
          "type": "uint256"
        }
      ],
      "name": "stiVaults",
      "outputs": [
        {
          "internalType": "contract ISTIVault",
          "name": "",
          "type": "address"
        }
      ],
      "stateMutability": "view",
      "type": "function"
    },
    {
      "inputs": [],
      "name": "subImpl",
      "outputs": [
        {
          "internalType": "address",
          "name": "",
          "type": "address"
        }
      ],
      "stateMutability": "view",
      "type": "function"
    },
    {
      "inputs": [
        {
          "internalType": "bytes4",
          "name": "interfaceId",
          "type": "bytes4"
        }
      ],
      "name": "supportsInterface",
      "outputs": [
        {
          "internalType": "bool",
          "name": "",
          "type": "bool"
        }
      ],
      "stateMutability": "view",
      "type": "function"
    },
    {
      "inputs": [
        {
          "internalType": "uint256",
          "name": "_gatheredAmount",
          "type": "uint256"
        },
        {
          "internalType": "bytes",
          "name": "_signature",
          "type": "bytes"
        }
      ],
      "name": "takeOut",
      "outputs": [],
      "stateMutability": "nonpayable",
      "type": "function"
    },
    {
      "inputs": [
        {
          "internalType": "address",
          "name": "newOwner",
          "type": "address"
        }
      ],
      "name": "transferOwnership",
      "outputs": [],
      "stateMutability": "nonpayable",
      "type": "function"
    },
    {
      "inputs": [],
      "name": "trustedForwarder",
      "outputs": [
        {
          "internalType": "address",
          "name": "",
          "type": "address"
        }
      ],
      "stateMutability": "view",
      "type": "function"
    },
    {
      "inputs": [
        {
          "internalType": "address",
          "name": "",
          "type": "address"
        }
      ],
      "name": "usdcBalances",
      "outputs": [
        {
          "internalType": "uint256",
          "name": "",
          "type": "uint256"
        }
      ],
      "stateMutability": "view",
      "type": "function"
    },
    {
      "inputs": [
        {
          "internalType": "address",
          "name": "",
          "type": "address"
        }
      ],
      "name": "usdtBalances",
      "outputs": [
        {
          "internalType": "uint256",
          "name": "",
          "type": "uint256"
        }
      ],
      "stateMutability": "view",
      "type": "function"
    },
    {
      "inputs": [
        {
          "internalType": "uint256",
          "name": "",
          "type": "uint256"
        }
      ],
      "name": "userAgents",
      "outputs": [
        {
          "internalType": "address",
          "name": "",
          "type": "address"
        }
      ],
      "stateMutability": "view",
      "type": "function"
    },
    {
      "inputs": [],
      "name": "versionRecipient",
      "outputs": [
        {
          "internalType": "string",
          "name": "",
          "type": "string"
        }
      ],
      "stateMutability": "pure",
      "type": "function"
    },
    {
      "inputs": [
        {
          "internalType": "uint256[]",
          "name": "_chainIds",
          "type": "uint256[]"
        },
        {
          "internalType": "uint256",
          "name": "_sharePerc",
          "type": "uint256"
        },
        {
          "internalType": "uint256",
          "name": "_minterNonce",
          "type": "uint256"
        },
        {
          "internalType": "bytes",
          "name": "_signature",
          "type": "bytes"
        }
      ],
      "name": "withdraw",
      "outputs": [
        {
          "internalType": "uint256",
          "name": "_feeAmt",
          "type": "uint256"
        }
      ],
      "stateMutability": "payable",
      "type": "function"
    },
    {
      "inputs": [
        {
          "internalType": "address",
          "name": "_account",
          "type": "address"
        },
        {
          "internalType": "uint256",
          "name": "_sharePerc",
          "type": "uint256"
        },
        {
          "internalType": "uint256",
          "name": "_minterNonce",
          "type": "uint256"
        }
      ],
      "name": "withdrawPercByAgent",
      "outputs": [],
      "stateMutability": "nonpayable",
      "type": "function"
    },
    {
      "stateMutability": "payable",
      "type": "receive"
    }
  ],
  "transactionHash": "0xda11f7adf15e75d7252ac0202450c374c27de793c1777cfc04ee0934285a604d",
  "args": [],
  "numDeployments": 2,
  "solcInputHash": "f46c759a62ac9309f7dcc958137622d7",
  "bytecode": "0x608060405234801561001057600080fd5b506147ae806100206000396000f3fe6080604052600436106102cd5760003560e01c806380a5a37111610175578063c54e44eb116100dc578063e629f7b311610095578063f2fde38b1161006f578063f2fde38b1461091c578063f77de4861461093c578063f7bb364c1461095c578063f851a4401461097757600080fd5b8063e629f7b3146108a5578063e9e81a6a146108c5578063f2ea1618146108e557600080fd5b8063c54e44eb146107fe578063c7205bce1461081f578063ca15c8731461083f578063d48a3d3d1461085f578063d547741f14610872578063db7fd4081461089257600080fd5b80639010d07c1161012e5780639010d07c14610748578063918f1a5c1461076857806391d148541461077b578063a217fddf1461079b578063a99c68c5146107b0578063af3da2f4146107de57600080fd5b806380a5a371146106a95780638365d5ee146106bc57806384762739146106e257806386355d96146106f557806389a30271146107085780638da5cb5b1461072957600080fd5b806344f745f9116102345780635c975abb116101ed5780636ebf33ce116101c75780636ebf33ce1461060f578063715018a6146106465780637da0a8771461065b5780637ecebe001461067b57600080fd5b80635c975abb146105c45780636687977f146105dc5780636e5677ce146105ef57600080fd5b806344f745f9146104bf578063486ff0cd146104f6578063572b6c051461052657806357cdd7f914610555578063582489cb14610576578063582712b1146105a457600080fd5b8063248a9ca311610286578063248a9ca3146103cf578063264489ce146103ff57806328054fb7146104215780632f2ff15d1461044157806336568abe1461046157806339dacedb1461048157600080fd5b8063013dee70146102d957806301ffc9a71461031757806302a882e6146103475780630c3a18211461037757806319463093146103985780631a5787d8146103b857600080fd5b366102d457005b600080fd5b3480156102e557600080fd5b50610195546102fa906001600160a01b031681565b6040516001600160a01b0390911681526020015b60405180910390f35b34801561032357600080fd5b50610337610332366004613902565b610998565b604051901515815260200161030e565b34801561035357600080fd5b5061036960008051602061475983398151915281565b60405190815260200161030e565b34801561038357600080fd5b50610166546102fa906001600160a01b031681565b3480156103a457600080fd5b506103696103b33660046139e1565b6109c3565b3480156103c457600080fd5b506103696101925481565b3480156103db57600080fd5b506103696103ea366004613a15565b60009081526097602052604090206001015490565b34801561040b57600080fd5b5061041f61041a366004613a43565b610a0f565b005b34801561042d57600080fd5b5061041f61043c366004613a74565b610bda565b34801561044d57600080fd5b5061041f61045c366004613ab2565b610f57565b34801561046d57600080fd5b5061041f61047c366004613ab2565b610f81565b34801561048d57600080fd5b506104b261049c366004613a15565b61016a6020526000908152604090205460ff1681565b60405161030e9190613b16565b3480156104cb57600080fd5b506102fa6104da366004613a15565b610194602052600090815260409020546001600160a01b031681565b34801561050257600080fd5b5060408051808201825260018152603160f81b6020820152905161030e9190613b55565b34801561053257600080fd5b50610337610541366004613a43565b6000546001600160a01b0391821691161490565b34801561056157600080fd5b50610167546102fa906001600160a01b031681565b34801561058257600080fd5b50610369610591366004613a43565b6101656020526000908152604090205481565b3480156105b057600080fd5b5061041f6105bf366004613c6f565b61100f565b3480156105d057600080fd5b5060fb5460ff16610337565b6103696105ea366004613d34565b6110a8565b3480156105fb57600080fd5b5061041f61060a366004613db1565b611190565b34801561061b57600080fd5b506102fa61062a366004613a15565b610169602052600090815260409020546001600160a01b031681565b34801561065257600080fd5b5061041f611272565b34801561066757600080fd5b506000546102fa906001600160a01b031681565b34801561068757600080fd5b50610369610696366004613a43565b6101606020526000908152604090205481565b6103696106b7366004613dfc565b6112f8565b3480156106c857600080fd5b50610193546102fa9061010090046001600160a01b031681565b6103696106f0366004613db1565b611416565b610369610703366004613e4e565b61155b565b34801561071457600080fd5b50610162546102fa906001600160a01b031681565b34801561073557600080fd5b5061012d546001600160a01b03166102fa565b34801561075457600080fd5b506102fa610763366004613f0a565b611681565b610369610776366004613f2c565b6116a0565b34801561078757600080fd5b50610337610796366004613ab2565b6116e6565b3480156107a757600080fd5b50610369600081565b3480156107bc57600080fd5b506103696107cb366004613a43565b6101646020526000908152604090205481565b3480156107ea57600080fd5b5061041f6107f9366004614005565b611711565b34801561080a57600080fd5b50610163546102fa906001600160a01b031681565b34801561082b57600080fd5b5061033761083a366004614031565b61179b565b34801561084b57600080fd5b5061036961085a366004613a15565b611928565b61036961086d366004614090565b61193f565b34801561087e57600080fd5b5061041f61088d366004613ab2565b6119b8565b6103696108a0366004613db1565b6119dd565b3480156108b157600080fd5b5061041f6108c03660046140eb565b611af2565b3480156108d157600080fd5b5061041f6108e03660046140eb565b611b7b565b3480156108f157600080fd5b506102fa610900366004613a15565b610168602052600090815260409020546001600160a01b031681565b34801561092857600080fd5b5061041f610937366004613a43565b611bbf565b34801561094857600080fd5b5061041f610957366004613a43565b611caa565b34801561096857600080fd5b50610193546103379060ff1681565b34801561098357600080fd5b5061015f546102fa906001600160a01b031681565b60006001600160e01b03198216635a05180f60e01b14806109bd57506109bd82611d2c565b92915050565b805160209182012060015460408051601960f81b81860152600160f81b602182015260228101929092526042808301939093528051808303909301835260629091019052805191012090565b600080516020614759833981519152610a2781611d61565b46600090815261019460209081526040808320546101635482516370a0823160e01b815230600482015292516001600160a01b03928316959492909116926370a08231926024808301939192829003018186803b158015610a8757600080fd5b505afa158015610a9b573d6000803e3d6000fd5b505050506040513d601f19601f82011682018060405250810190610abf9190614120565b60405163132244e760e11b81526001600160a01b0386811660048301529192509083169063264489ce90602401600060405180830381600087803b158015610b0657600080fd5b505af1158015610b1a573d6000803e3d6000fd5b5050610163546040516370a0823160e01b81523060048201528493506001600160a01b0390911691506370a082319060240160206040518083038186803b158015610b6457600080fd5b505afa158015610b78573d6000803e3d6000fd5b505050506040513d601f19601f82011682018060405250810190610b9c9190614120565b610ba6919061414f565b6001600160a01b0385166000908152610165602052604081208054909190610bcf908490614166565b909155505050505050565b600080516020614759833981519152610bf281611d61565b6001600160a01b038416600090815261016560205260409020548015610f5057600084815261016960205260409020546001600160a01b031680610c725760405162461bcd60e51b8152602060048201526012602482015271125b9d985b1a59081d5cd95c881859d95b9d60721b60448201526064015b60405180910390fd5b604080516001808252818301909252600091602080830190803683370190505090508281600081518110610ca857610ca861417e565b60209081029190910101526040805160018082528183019092526000918160200160208202803683370190505090508681600081518110610ceb57610ceb61417e565b60209081029190910101526040805160018082528183019092526000918160200160208202803683370190505090508381600081518110610d2e57610d2e61417e565b6001600160a01b0392909216602092830291909101909101526040805160018082528183019092526000918160200160208202803683370190505090508781600081518110610d7f57610d7f61417e565b60200260200101906001811115610d9857610d98613ae2565b90816001811115610dab57610dab613ae2565b9052506000610dc18b8287878787600180611d72565b6101615461016354604051631d1c6b8360e11b81526001600160a01b03918216600482015260248101849052929350600092911690633a38d7069060440160206040518083038186803b158015610e1757600080fd5b505afa158015610e2b573d6000803e3d6000fd5b505050506040513d601f19601f82011682018060405250810190610e4f9190614120565b905080881115610f48576101615461016354604051632f66c82160e21b81526000926001600160a01b039081169263bd9b208492610e97929091169086908890600401614194565b602060405180830381600087803b158015610eb157600080fd5b505af1158015610ec5573d6000803e3d6000fd5b505050506040513d601f19601f82011682018060405250810190610ee99190614120565b9050610ef5818a61414f565b87600081518110610f0857610f0861417e565b6020908102919091018101919091526001600160a01b038e16600090815261016590915260408120819055610f45908e9089898989600185611d72565b50505b505050505050505b5050505050565b600082815260976020526040902060010154610f7281611d61565b610f7c8383611de4565b505050565b610f89611e06565b6001600160a01b0316816001600160a01b0316146110015760405162461bcd60e51b815260206004820152602f60248201527f416363657373436f6e74726f6c3a2063616e206f6e6c792072656e6f756e636560448201526e103937b632b9903337b91039b2b63360891b6064820152608401610c69565b61100b8282611e15565b5050565b60008051602061475983398151915261102781611d61565b46600090815261019460205260409081902054905163582712b160e01b81526001600160a01b0390911690819063582712b19061106e908990899089908990600401614229565b600060405180830381600087803b15801561108857600080fd5b505af115801561109c573d6000803e3d6000fd5b50505050505050505050565b6000806110b3611e06565b6001600160a01b03811660009081526101606020908152604091829020549151929350909161110d916110f091859185918d918d918d9101614296565b604051602081830303815290604052805190602001208686611e37565b60005b885181101561115c5761113e838a838151811061112f5761112f61417e565b60200260200101518a8a611eab565b6111489085614166565b935080611154816142cf565b915050611110565b50611168816001614166565b6001600160a01b03909216600090815261016060205260409020919091555095945050505050565b600061119a611e06565b6001600160a01b0381166000908152610160602090815260409182902054915192935090916111f0916111d391859185918a91016142ea565b604051602081830303815290604052805190602001208585611e37565b6001600160a01b038216600090815261016560205260408120546112149087614166565b6001600160a01b03808516600090815261016560205260408120556101635491925061124291168483611f29565b61124d826001614166565b6001600160a01b03909316600090815261016060205260409020929092555050505050565b61127a611e06565b6001600160a01b031661129661012d546001600160a01b031690565b6001600160a01b0316146112ec5760405162461bcd60e51b815260206004820181905260248201527f4f776e61626c653a2063616c6c6572206973206e6f7420746865206f776e65726044820152606401610c69565b6112f66000611f7b565b565b600080611303611e06565b6001600160a01b038116600090815261016060209081526040918290205491516bffffffffffffffffffffffff19606085901b169181019190915260348101829052605481018990526074810188905291925090611363906094016110f0565b6101935460ff16156113df576101935460405163e629f7b360e01b81526101009091046001600160a01b03169063e629f7b3906113a89085908b908b90600401614194565b600060405180830381600087803b1580156113c257600080fd5b505af11580156113d6573d6000803e3d6000fd5b505050506113e4565b600092505b6113ef816001614166565b6001600160a01b039092166000908152610160602052604090209190915550949350505050565b600080611421611e06565b6001600160a01b03811660009081526101606020908152604091829020549151929350909161145a916110f091859185918b91016142ea565b6101935460ff16156114d15761019354604051637bbef24360e11b81526001600160a01b0384811660048301526101009092049091169063f77de48690602401600060405180830381600087803b1580156114b457600080fd5b505af11580156114c8573d6000803e3d6000fd5b505050506114d6565b600092505b6001600160a01b038216600090815261016560205260408120546114fa9088614166565b6001600160a01b03808516600090815261016560205260408120556101635491925061152891168483611f29565b611533826001614166565b6001600160a01b03909316600090815261016060205260409020929092555090949350505050565b600061156960fb5460ff1690565b156115a95760405162461bcd60e51b815260206004820152601060248201526f14185d5cd8589b194e881c185d5cd95960821b6044820152606401610c69565b60006115b3611e06565b6001600160a01b0381166000908152610160602090815260409182902054915192935090916115f2916110f091859185918e918e918e918e9101614314565b6000806000806116058d8d8d6000611fce565b93509350935093505b831561164857611621868585858e6121ab565b61162b9088614166565b96506116398d8d8d84611fce565b9296509094509250905061160e565b611653856001614166565b6001600160a01b039096166000908152610160602052604090209590955550939a9950505050505050505050565b600082815260c96020526040812061169990836123ee565b9392505050565b6000806116ab611e06565b6001600160a01b0381166000908152610160602090815260409182902054915192935090916113df916110f091859185918c918c9101614387565b60009182526097602090815260408084206001600160a01b0393909316845291905290205460ff1690565b60008051602061475983398151915261172981611d61565b61019354604051632bcf68bd60e21b81526001600160a01b038581166004830152602482018590526101009092049091169063af3da2f490604401600060405180830381600087803b15801561177e57600080fd5b505af1158015611792573d6000803e3d6000fd5b50505050505050565b6000806117a7856109c3565b90506001600160a01b0386163b15611803576117fb86828787878080601f0160208091040260200160405190810160405280939291908181526020018383808284376000920191909152506123fa92505050565b915050611920565b600080600061184787878080601f01602080910402602001604051908101604052809392919081815260200183838082843760009201829052509250612496915050565b6040517f19457468657265756d205369676e6564204d6573736167653a0a3332000000006020820152603c81018890529295509093509150600090605c0160408051601f198184030181528282528051602091820120600080855291840180845281905260ff88169284019290925260608301869052608083018590529092509060019060a0016020604051602081039080840390855afa1580156118f0573d6000803e3d6000fd5b5050506020604051035190508a6001600160a01b0316816001600160a01b0316149650505050505050611920565b505b949350505050565b600081815260c9602052604081206109bd906124b4565b60008061194a611e06565b6001600160a01b038116600090815261016060209081526040918290205491519293509091611983916110f091859185918b91016143ea565b60009250611992816001614166565b6001600160a01b0390921660009081526101606020526040902091909155509392505050565b6000828152609760205260409020600101546119d381611d61565b610f7c8383611e15565b60006119eb60fb5460ff1690565b15611a2b5760405162461bcd60e51b815260206004820152601060248201526f14185d5cd8589b194e881c185d5cd95960821b6044820152606401610c69565b6000611a35611e06565b6001600160a01b038116600090815261016060209081526040918290205491519293509091611a6e916110f091859185918b91016142ea565b6101935460ff16156119835761019354604051632bcf68bd60e21b81526001600160a01b038481166004830152602482018990526101009092049091169063af3da2f490604401600060405180830381600087803b158015611acf57600080fd5b505af1158015611ae3573d6000803e3d6000fd5b50505050611992816001614166565b600080516020614759833981519152611b0a81611d61565b6101935460405163e629f7b360e01b81526101009091046001600160a01b03169063e629f7b390611b4390879087908790600401614194565b600060405180830381600087803b158015611b5d57600080fd5b505af1158015611b71573d6000803e3d6000fd5b5050505050505050565b600080516020614759833981519152611b9381611d61565b4660009081526101946020526040902054611bb9906001600160a01b03168585856124be565b50505050565b611bc7611e06565b6001600160a01b0316611be361012d546001600160a01b031690565b6001600160a01b031614611c395760405162461bcd60e51b815260206004820181905260248201527f4f776e61626c653a2063616c6c6572206973206e6f7420746865206f776e65726044820152606401610c69565b6001600160a01b038116611c9e5760405162461bcd60e51b815260206004820152602660248201527f4f776e61626c653a206e6577206f776e657220697320746865207a65726f206160448201526564647265737360d01b6064820152608401610c69565b611ca781611f7b565b50565b600080516020614759833981519152611cc281611d61565b61019354604051637bbef24360e11b81526001600160a01b0384811660048301526101009092049091169063f77de48690602401600060405180830381600087803b158015611d1057600080fd5b505af1158015611d24573d6000803e3d6000fd5b505050505050565b60006001600160e01b03198216637965db0b60e01b14806109bd57506301ffc9a760e01b6001600160e01b03198316146109bd565b611ca781611d6d611e06565b61265d565b6000806000806000806000611d8a8d8d8d8d8d6126c1565b949a5092985090965094509250905087158015611da8575060008651115b15611dba57611dba8f8f888888612b6f565b825115611dd257611dcf8f8f8585858d612cb0565b96505b50505050505098975050505050505050565b611dee8282612f66565b600082815260c960205260409020610f7c9082612fed565b6000611e10613002565b905090565b611e1f8282613036565b600082815260c960205260409020610f7c90826130bb565b61015f546040805160208101869052611e6b926001600160a01b03169101604051602081830303815290604052848461179b565b610f7c5760405162461bcd60e51b8152602060048201526011602482015270496e76616c6964207369676e617475726560781b6044820152606401610c69565b600083815261019460205260408120546001600160a01b031680611f045760405162461bcd60e51b815260206004820152601060248201526f125b9d985b1a59081cdd1a55985d5b1d60821b6044820152606401610c69565b46851415611f1d57611f18818786866124be565b61191e565b50600095945050505050565b604080516001600160a01b038416602482015260448082018490528251808303909101815260649091019091526020810180516001600160e01b031663a9059cbb60e01b179052610f7c9084906130d0565b61012d80546001600160a01b038381166001600160a01b0319831681179093556040519116919082907f8be0079c531659141344cd1fd0a4f28419497f9722a3daafe3b4186f6b6457e090600090a35050565b83516000906060908190839081865b82811015612050578661200b578a8181518110611ffc57611ffc61417e565b60200260200101519650612030565b8a818151811061201d5761201d61417e565b6020026020010151871461203057612050565b8161203a816142cf565b9250508080612048906142cf565b915050611fdd565b5061205b8188614166565b9250801561219e57806001600160401b0381111561207b5761207b61392c565b6040519080825280602002602001820160405280156120a4578160200160208202803683370190505b509450806001600160401b038111156120bf576120bf61392c565b6040519080825280602002602001820160405280156120e8578160200160208202803683370190505b50935060009050865b8381101561219c5789818151811061210b5761210b61417e565b60200260200101518683815181106121255761212561417e565b60200260200101906001600160a01b031690816001600160a01b0316815250508881815181106121575761215761417e565b60200260200101518583815181106121715761217161417e565b602090810291909101015281612186816142cf565b9250508080612194906142cf565b9150506120f1565b505b5050945094509450949050565b600084815261019460205260408120546001600160a01b0316806122045760405162461bcd60e51b815260206004820152601060248201526f125b9d985b1a59081cdd1a55985d5b1d60821b6044820152606401610c69565b468614156123df576001600160a01b0387166000908152610165602052604081205490805b865181101561226b578681815181106122445761224461417e565b6020026020010151826122579190614166565b915080612263816142cf565b915050612229565b50610163546040805163313ce56760e01b815290516006926001600160a01b03169163313ce567916004808301926020929190829003018186803b1580156122b257600080fd5b505afa1580156122c6573d6000803e3d6000fd5b505050506040513d601f19601f820116820180604052508101906122ea919061440f565b6122f49190614432565b6122ff90600a614539565b6123099082614548565b9050808210156123525760405162461bcd60e51b8152602060048201526014602482015273496e73756666696369656e742062616c616e636560601b6044820152606401610c69565b61235c818361414f565b6001600160a01b03808b16600090815261016560205260409081902092909255905163582712b160e01b81529084169063582712b1906123a6908c908b908b908b90600401614229565b600060405180830381600087803b1580156123c057600080fd5b505af11580156123d4573d6000803e3d6000fd5b5050505050506123e4565b600091505b5095945050505050565b600061169983836131a2565b600080856001600160a01b031663e75235b86040518163ffffffff1660e01b815260040160206040518083038186803b15801561243657600080fd5b505afa15801561244a573d6000803e3d6000fd5b505050506040513d601f19601f8201168201806040525081019061246e9190614120565b90508061247f576000915050611920565b61248c86868686856131cc565b9695505050505050565b60419081029190910160208101516040820151919092015160ff1692565b60006109bd825490565b610163546040516370a0823160e01b81523060048201526000916001600160a01b0316906370a082319060240160206040518083038186803b15801561250357600080fd5b505afa158015612517573d6000803e3d6000fd5b505050506040513d601f19601f8201168201806040525081019061253b9190614120565b6040516374f40d3560e11b81529091506001600160a01b0386169063e9e81a6a9061256e90879087908790600401614194565b600060405180830381600087803b15801561258857600080fd5b505af115801561259c573d6000803e3d6000fd5b5050610163546040516370a0823160e01b81523060048201528493506001600160a01b0390911691506370a082319060240160206040518083038186803b1580156125e657600080fd5b505afa1580156125fa573d6000803e3d6000fd5b505050506040513d601f19601f8201168201806040525081019061261e9190614120565b612628919061414f565b6001600160a01b0385166000908152610165602052604081208054909190612651908490614166565b90915550505050505050565b61266782826116e6565b61100b5761267f816001600160a01b03166014613428565b61268a836020613428565b60405160200161269b929190614567565b60408051601f198184030181529082905262461bcd60e51b8252610c6991600401613b55565b60608060608060608060008060005b898110156127705760018b82815181106126ec576126ec61417e565b6020026020010151600181111561270557612705613ae2565b141561271d5782612715816142cf565b93505061275e565b60008b82815181106127315761273161417e565b6020026020010151600181111561274a5761274a613ae2565b141561275e578161275a816142cf565b9250505b80612768816142cf565b9150506126d0565b50816001600160401b038111156127895761278961392c565b6040519080825280602002602001820160405280156127b2578160200160208202803683370190505b509750816001600160401b038111156127cd576127cd61392c565b6040519080825280602002602001820160405280156127f6578160200160208202803683370190505b509650816001600160401b038111156128115761281161392c565b60405190808252806020026020018201604052801561283a578160200160208202803683370190505b509550806001600160401b038111156128555761285561392c565b60405190808252806020026020018201604052801561287e578160200160208202803683370190505b509450806001600160401b038111156128995761289961392c565b6040519080825280602002602001820160405280156128c2578160200160208202803683370190505b509350806001600160401b038111156128dd576128dd61392c565b604051908082528060200260200182016040528015612906578160200160208202803683370190505b509250600091506000905060005b89811015612b5f5760018b82815181106129305761293061417e565b6020026020010151600181111561294957612949613ae2565b1415612a15578d81815181106129615761296161417e565b602002602001015189848151811061297b5761297b61417e565b6020026020010181815250508c81815181106129995761299961417e565b60200260200101518884815181106129b3576129b361417e565b6020026020010181815250508b81815181106129d1576129d161417e565b60200260200101518784815181106129eb576129eb61417e565b6001600160a01b039092166020928302919091019091015282612a0d816142cf565b935050612b4d565b60008b8281518110612a2957612a2961417e565b60200260200101516001811115612a4257612a42613ae2565b1415612b0e578d8181518110612a5a57612a5a61417e565b6020026020010151868381518110612a7457612a7461417e565b6020026020010181815250508c8181518110612a9257612a9261417e565b6020026020010151858381518110612aac57612aac61417e565b6020026020010181815250508b8181518110612aca57612aca61417e565b6020026020010151848381518110612ae457612ae461417e565b6001600160a01b039092166020928302919091019091015281612b06816142cf565b925050612b4d565b60405162461bcd60e51b8152602060048201526014602482015273496e76616c69642061646170746572207479706560601b6044820152606401610c69565b80612b57816142cf565b915050612914565b5050509550955095509550955095565b8251610166546040516319684c2d60e21b81526001600160a01b03909116906365a130b490612ba89088908890889088906004016145dc565b600060405180830381600087803b158015612bc257600080fd5b505af1158015612bd6573d6000803e3d6000fd5b505050506000612be34690565b905060005b82811015611b7157848181518110612c0257612c0261417e565b6020026020010151868281518110612c1c57612c1c61417e565b6020026020010151896001600160a01b03167f3ba03e6b4cb24f75ab77e3b8fb7ea0a24af301c15f5fb5709dd68c396048881561016360009054906101000a90046001600160a01b031686898781518110612c7957612c7961417e565b602002602001015160016000604051612c96959493929190614624565b60405180910390a480612ca8816142cf565b915050612be8565b600080855190508061016760009054906101000a90046001600160a01b03166001600160a01b0316633b11ca516040518163ffffffff1660e01b815260040160206040518083038186803b158015612d0757600080fd5b505afa158015612d1b573d6000803e3d6000fd5b505050506040513d601f19601f82011682018060405250810190612d3f9190614120565b612d499190614548565b915082158015612d595750814710155b15612f5b57610167546040805163057ff68760e51b815290516000926001600160a01b03169163affed0e0916004808301926020929190829003018186803b158015612da457600080fd5b505afa158015612db8573d6000803e3d6000fd5b505050506040513d601f19601f82011682018060405250810190612ddc9190614120565b610167546040516319684c2d60e21b81529192506001600160a01b0316906365a130b4908590612e16908c908c908c908c906004016145dc565b6000604051808303818588803b158015612e2f57600080fd5b505af1158015612e43573d6000803e3d6000fd5b50505050506000612e514690565b905060005b83811015612f57576000612e6a8285614166565b60008181526101686020526040902080546001600160a01b0319166001600160a01b038f161790558951909150899083908110612ea957612ea961417e565b60200260200101518a8381518110612ec357612ec361417e565b60200260200101518d6001600160a01b03167f3ba03e6b4cb24f75ab77e3b8fb7ea0a24af301c15f5fb5709dd68c396048881561016360009054906101000a90046001600160a01b0316878d8881518110612f2057612f2061417e565b6020026020010151600088604051612f3c959493929190614624565b60405180910390a45080612f4f816142cf565b915050612e56565b5050505b509695505050505050565b612f7082826116e6565b61100b5760008281526097602090815260408083206001600160a01b03851684529091529020805460ff19166001179055612fa9611e06565b6001600160a01b0316816001600160a01b0316837f2f8788117e7eff1d82e926ec794901d17c78024a50270940304540a733656f0d60405160405180910390a45050565b6000611699836001600160a01b0384166135c3565b60006018361080159061301f57506000546001600160a01b031633145b15613031575060131936013560601c90565b503390565b61304082826116e6565b1561100b5760008281526097602090815260408083206001600160a01b03851684529091529020805460ff19169055613077611e06565b6001600160a01b0316816001600160a01b0316837ff6391f5c32d9c69d2a47ea670b442974b53935d1edc7fd64eb21e047a839171b60405160405180910390a45050565b6000611699836001600160a01b038416613612565b6000613125826040518060400160405280602081526020017f5361666545524332303a206c6f772d6c6576656c2063616c6c206661696c6564815250856001600160a01b03166137059092919063ffffffff16565b805190915015610f7c5780806020019051810190613143919061465f565b610f7c5760405162461bcd60e51b815260206004820152602a60248201527f5361666545524332303a204552433230206f7065726174696f6e20646964206e6044820152691bdd081cdd58d8d9595960b21b6064820152608401610c69565b60008260000182815481106131b9576131b961417e565b9060005260206000200154905092915050565b60006131d9826041614548565b835110156131e95750600061341f565b600080876001600160a01b031663a0e67e2b6040518163ffffffff1660e01b815260040160006040518083038186803b15801561322557600080fd5b505afa158015613239573d6000803e3d6000fd5b505050506040513d6000823e601f3d908101601f191682016040526132619190810190614681565b905060008080805b878110156134145760418181028a0160208101516040820151919092015160ff1695509093509150836133445791945084916132a6886041614548565b8210156132bc576000965050505050505061341f565b88516132c9836020614166565b11156132de576000965050505050505061341f565b6020828a018101518a51909182906132f7908690614166565b6133019190614166565b111561331757600097505050505050505061341f565b898301602001613328888d83613714565b61333d5760009850505050505050505061341f565b50506133e5565b6040517f19457468657265756d205369676e6564204d6573736167653a0a3332000000006020820152603c81018c9052600190605c0160408051601f198184030181528282528051602091820120600084529083018083525260ff871690820152606081018590526080810184905260a0016020604051602081039080840390855afa1580156133d8573d6000803e3d6000fd5b5050506020604051035195505b6133ef858761372e565b613402576000965050505050505061341f565b8061340c816142cf565b915050613269565b600196505050505050505b95945050505050565b60606000613437836002614548565b613442906002614166565b6001600160401b038111156134595761345961392c565b6040519080825280601f01601f191660200182016040528015613483576020820181803683370190505b509050600360fc1b8160008151811061349e5761349e61417e565b60200101906001600160f81b031916908160001a905350600f60fb1b816001815181106134cd576134cd61417e565b60200101906001600160f81b031916908160001a90535060006134f1846002614548565b6134fc906001614166565b90505b6001811115613574576f181899199a1a9b1b9c1cb0b131b232b360811b85600f16601081106135305761353061417e565b1a60f81b8282815181106135465761354661417e565b60200101906001600160f81b031916908160001a90535060049490941c9361356d8161470f565b90506134ff565b5083156116995760405162461bcd60e51b815260206004820181905260248201527f537472696e67733a20686578206c656e67746820696e73756666696369656e746044820152606401610c69565b600081815260018301602052604081205461360a575081546001818101845560008481526020808220909301849055845484825282860190935260409020919091556109bd565b5060006109bd565b600081815260018301602052604081205480156136fb57600061363660018361414f565b855490915060009061364a9060019061414f565b90508181146136af57600086600001828154811061366a5761366a61417e565b906000526020600020015490508087600001848154811061368d5761368d61417e565b6000918252602080832090910192909255918252600188019052604090208390555b85548690806136c0576136c0614726565b6001900381819060005260206000200160009055905585600101600086815260200190815260200160002060009055600193505050506109bd565b60009150506109bd565b60606119208484600085613798565b600080613720846109c3565b905061341f858286866123fa565b8151600090815b8181101561378d57836001600160a01b03168582815181106137595761375961417e565b60200260200101516001600160a01b0316141561377b576001925050506109bd565b80613785816142cf565b915050613735565b506000949350505050565b6060824710156137f95760405162461bcd60e51b815260206004820152602660248201527f416464726573733a20696e73756666696369656e742062616c616e636520666f6044820152651c8818d85b1b60d21b6064820152608401610c69565b6001600160a01b0385163b6138505760405162461bcd60e51b815260206004820152601d60248201527f416464726573733a2063616c6c20746f206e6f6e2d636f6e74726163740000006044820152606401610c69565b600080866001600160a01b0316858760405161386c919061473c565b60006040518083038185875af1925050503d80600081146138a9576040519150601f19603f3d011682016040523d82523d6000602084013e6138ae565b606091505b50915091506138be8282866138c9565b979650505050505050565b606083156138d8575081611699565b8251156138e85782518084602001fd5b8160405162461bcd60e51b8152600401610c699190613b55565b60006020828403121561391457600080fd5b81356001600160e01b03198116811461169957600080fd5b634e487b7160e01b600052604160045260246000fd5b604051601f8201601f191681016001600160401b038111828210171561396a5761396a61392c565b604052919050565b600082601f83011261398357600080fd5b81356001600160401b0381111561399c5761399c61392c565b6139af601f8201601f1916602001613942565b8181528460208386010111156139c457600080fd5b816020850160208301376000918101602001919091529392505050565b6000602082840312156139f357600080fd5b81356001600160401b03811115613a0957600080fd5b61192084828501613972565b600060208284031215613a2757600080fd5b5035919050565b6001600160a01b0381168114611ca757600080fd5b600060208284031215613a5557600080fd5b813561169981613a2e565b803560028110613a6f57600080fd5b919050565b600080600060608486031215613a8957600080fd5b8335613a9481613a2e565b925060208401359150613aa960408501613a60565b90509250925092565b60008060408385031215613ac557600080fd5b823591506020830135613ad781613a2e565b809150509250929050565b634e487b7160e01b600052602160045260246000fd5b60028110611ca757634e487b7160e01b600052602160045260246000fd5b60208101613b2383613af8565b91905290565b60005b83811015613b44578181015183820152602001613b2c565b83811115611bb95750506000910152565b6020815260008251806020840152613b74816040850160208701613b29565b601f01601f19169190910160400192915050565b60006001600160401b03821115613ba157613ba161392c565b5060051b60200190565b600082601f830112613bbc57600080fd5b81356020613bd1613bcc83613b88565b613942565b82815260059290921b84018101918181019086841115613bf057600080fd5b8286015b84811015612f5b578035613c0781613a2e565b8352918301918301613bf4565b600082601f830112613c2557600080fd5b81356020613c35613bcc83613b88565b82815260059290921b84018101918181019086841115613c5457600080fd5b8286015b84811015612f5b5780358352918301918301613c58565b60008060008060808587031215613c8557600080fd5b8435613c9081613a2e565b935060208501356001600160401b0380821115613cac57600080fd5b613cb888838901613bab565b94506040870135915080821115613cce57600080fd5b50613cdb87828801613c14565b949793965093946060013593505050565b60008083601f840112613cfe57600080fd5b5081356001600160401b03811115613d1557600080fd5b602083019150836020828501011115613d2d57600080fd5b9250929050565b600080600080600060808688031215613d4c57600080fd5b85356001600160401b0380821115613d6357600080fd5b613d6f89838a01613c14565b965060208801359550604088013594506060880135915080821115613d9357600080fd5b50613da088828901613cec565b969995985093965092949392505050565b600080600060408486031215613dc657600080fd5b8335925060208401356001600160401b03811115613de357600080fd5b613def86828701613cec565b9497909650939450505050565b60008060008060608587031215613e1257600080fd5b843593506020850135925060408501356001600160401b03811115613e3657600080fd5b613e4287828801613cec565b95989497509550505050565b60008060008060008060a08789031215613e6757600080fd5b86356001600160401b0380821115613e7e57600080fd5b613e8a8a838b01613c14565b97506020890135915080821115613ea057600080fd5b613eac8a838b01613bab565b96506040890135915080821115613ec257600080fd5b613ece8a838b01613c14565b9550606089013594506080890135915080821115613eeb57600080fd5b50613ef889828a01613cec565b979a9699509497509295939492505050565b60008060408385031215613f1d57600080fd5b50508035926020909101359150565b60008060008060608587031215613f4257600080fd5b84356001600160401b0380821115613f5957600080fd5b613f6588838901613c14565b9550602091508187013581811115613f7c57600080fd5b8701601f81018913613f8d57600080fd5b8035613f9b613bcc82613b88565b81815260059190911b8201840190848101908b831115613fba57600080fd5b928501925b82841015613fdf57613fd084613a60565b82529285019290850190613fbf565b97505050506040870135915080821115613ff857600080fd5b50613e4287828801613cec565b6000806040838503121561401857600080fd5b823561402381613a2e565b946020939093013593505050565b6000806000806060858703121561404757600080fd5b843561405281613a2e565b935060208501356001600160401b038082111561406e57600080fd5b61407a88838901613972565b94506040870135915080821115613ff857600080fd5b6000806000604084860312156140a557600080fd5b83356001600160401b03808211156140bc57600080fd5b6140c887838801613c14565b945060208601359150808211156140de57600080fd5b50613def86828701613cec565b60008060006060848603121561410057600080fd5b833561410b81613a2e565b95602085013595506040909401359392505050565b60006020828403121561413257600080fd5b5051919050565b634e487b7160e01b600052601160045260246000fd5b60008282101561416157614161614139565b500390565b6000821982111561417957614179614139565b500190565b634e487b7160e01b600052603260045260246000fd5b6001600160a01b039390931683526020830191909152604082015260600190565b600081518084526020808501945080840160005b838110156141ee5781516001600160a01b0316875295820195908201906001016141c9565b509495945050505050565b600081518084526020808501945080840160005b838110156141ee5781518752958201959082019060010161420d565b6001600160a01b038516815260806020820181905260009061424d908301866141b5565b828103604084015261425f81866141f9565b91505082606083015295945050505050565b805160009060208084018383156141ee5781518752958201959082019060010161420d565b6001600160601b03198660601b16815284601482015260006142bb6034830186614271565b938452505060208201526040019392505050565b60006000198214156142e3576142e3614139565b5060010190565b60609390931b6bffffffffffffffffffffffff191683526014830191909152603482015260540190565b6001600160601b03198760601b16815285601482015260006143396034830187614271565b8551602080880160005b838110156143685781516001600160a01b031685529382019390820190600101614343565b50506143748388614271565b9586529094019998505050505050505050565b6001600160601b03198560601b16815283601482015260006143ac6034830185614271565b8351602080860160005b838110156143db5781516143c981613af8565b855293820193908201906001016143b6565b50929998505050505050505050565b6001600160601b03198460601b168152826014820152600061341f6034830184614271565b60006020828403121561442157600080fd5b815160ff8116811461169957600080fd5b600060ff821660ff84168082101561444c5761444c614139565b90039392505050565b600181815b8085111561449057816000190482111561447657614476614139565b8085161561448357918102915b93841c939080029061445a565b509250929050565b6000826144a7575060016109bd565b816144b4575060006109bd565b81600181146144ca57600281146144d4576144f0565b60019150506109bd565b60ff8411156144e5576144e5614139565b50506001821b6109bd565b5060208310610133831016604e8410600b8410161715614513575081810a6109bd565b61451d8383614455565b806000190482111561453157614531614139565b029392505050565b600061169960ff841683614498565b600081600019048311821515161561456257614562614139565b500290565b7f416363657373436f6e74726f6c3a206163636f756e742000000000000000000081526000835161459f816017850160208801613b29565b7001034b99036b4b9b9b4b733903937b6329607d1b60179184019182015283516145d0816028840160208801613b29565b01602801949350505050565b6145e585613af8565b8481526080602082015260006145fe60808301866141f9565b828103604084015261461081866141f9565b905082810360608401526138be81856141b5565b6001600160a01b038681168252602082018690528416604082015260a0810161464c84613af8565b6060820193909352608001529392505050565b60006020828403121561467157600080fd5b8151801515811461169957600080fd5b6000602080838503121561469457600080fd5b82516001600160401b038111156146aa57600080fd5b8301601f810185136146bb57600080fd5b80516146c9613bcc82613b88565b81815260059190911b820183019083810190878311156146e857600080fd5b928401925b828410156138be57835161470081613a2e565b825292840192908401906146ed565b60008161471e5761471e614139565b506000190190565b634e487b7160e01b600052603160045260246000fd5b6000825161474e818460208701613b29565b919091019291505056fedbeb657137b1822b3d5418bea6fd641226d964b4c3871ef23546db2622258871a2646970667358221220bc160a4a5481bde298b85b771643c3f3f42cd5f85db243fdb0f158adc9b25a8964736f6c63430008090033",
  "devdoc": {
    "kind": "dev",
    "methods": {
      "burn(uint256,uint256,bytes)": {
        "details": "It calls burnByAdmin of STIMinter.",
        "params": {
          "_pool": "total pool in USD",
          "_share": "amount of shares"
        }
      },
      "claim(uint256[],bytes)": {
        "details": "It calls claimByAgent of STIVaults."
      },
      "deposit(uint256[],address[],uint256[],uint256,bytes)": {
        "details": "It calls depositByAgent of STIVaults."
      },
      "exitWithdrawal(uint256,bytes)": {
        "details": "It calls exitWithdrawalByAdmin of STIMinter.",
        "params": {
          "_gatheredAmount": "is the amount of token that is gathered."
        }
      },
      "gather(uint256[],uint8[],bytes)": {
        "details": "It gathers withdrawn tokens of the user from user agents."
      },
      "getMessageHashForSafe(bytes)": {
        "details": "Returns hash of a message that can be signed by owners.",
        "params": {
          "message": "Message that should be hashed"
        },
        "returns": {
          "_0": "Message hash."
        }
      },
      "getRoleAdmin(bytes32)": {
        "details": "Returns the admin role that controls `role`. See {grantRole} and {revokeRole}. To change a role's admin, use {_setRoleAdmin}."
      },
      "getRoleMember(bytes32,uint256)": {
        "details": "Returns one of the accounts that have `role`. `index` must be a value between 0 and {getRoleMemberCount}, non-inclusive. Role bearers are not sorted in any particular way, and their ordering may change at any point. WARNING: When using {getRoleMember} and {getRoleMemberCount}, make sure you perform all queries on the same block. See the following https://forum.openzeppelin.com/t/iterating-over-elements-on-enumerableset-in-openzeppelin-contracts/2296[forum post] for more information."
      },
      "getRoleMemberCount(bytes32)": {
        "details": "Returns the number of accounts that have `role`. Can be used together with {getRoleMember} to enumerate all bearers of a role."
      },
      "grantRole(bytes32,address)": {
        "details": "Grants `role` to `account`. If `account` had not been already granted `role`, emits a {RoleGranted} event. Requirements: - the caller must have ``role``'s admin role."
      },
      "hasRole(bytes32,address)": {
        "details": "Returns `true` if `account` has been granted `role`."
      },
      "mint(uint256,bytes)": {
        "details": "It calls mintByAdmin of STIMinter."
      },
      "owner()": {
        "details": "Returns the address of the current owner."
      },
      "paused()": {
        "details": "Returns true if the contract is paused, and false otherwise."
      },
      "renounceOwnership()": {
        "details": "Leaves the contract without owner. It will not be possible to call `onlyOwner` functions anymore. Can only be called by the current owner. NOTE: Renouncing ownership will leave the contract without an owner, thereby removing any functionality that is only available to the owner."
      },
      "renounceRole(bytes32,address)": {
        "details": "Revokes `role` from the calling account. Roles are often managed via {grantRole} and {revokeRole}: this function's purpose is to provide a mechanism for accounts to lose their privileges if they are compromised (such as when a trusted device is misplaced). If the calling account had been revoked `role`, emits a {RoleRevoked} event. Requirements: - the caller must be `account`."
      },
      "revokeRole(bytes32,address)": {
        "details": "Revokes `role` from `account`. If `account` had been granted `role`, emits a {RoleRevoked} event. Requirements: - the caller must have ``role``'s admin role."
      },
      "supportsInterface(bytes4)": {
        "details": "See {IERC165-supportsInterface}."
      },
      "takeOut(uint256,bytes)": {
        "details": "It takes out tokens from this agent.",
        "params": {
          "_gatheredAmount": "is the amount of token that is gathered."
        }
      },
      "transferOwnership(address)": {
        "details": "Transfers ownership of the contract to a new account (`newOwner`). Can only be called by the current owner."
      },
      "withdraw(uint256[],uint256,uint256,bytes)": {
        "details": "It calls withdrawPercByAgent of STIVaults."
      }
    },
    "version": 1
  },
  "userdoc": {
    "kind": "user",
    "methods": {
      "exitWithdrawal(uint256,bytes)": {
        "notice": "_gatheredAmount doesn't include the balance which is withdrawan in this agent."
      },
      "isTrustedForwarder(address)": {
        "notice": "return if the forwarder is trusted to forward relayed transactions to us. the forwarder is required to verify the sender's signature, and verify the call is not a replay."
      },
      "takeOut(uint256,bytes)": {
        "notice": "_gatheredAmount doesn't include the balance which is withdrawan in this agent."
      }
    },
    "version": 1
  },
  "storageLayout": {
    "storage": [
      {
        "astId": 66271,
        "contract": "contracts/xchain/agent/STIUserAgentSubTest.sol:STIUserAgentSubTest",
        "label": "trustedForwarder",
        "offset": 0,
        "slot": "0",
        "type": "t_address"
      },
      {
        "astId": 713,
        "contract": "contracts/xchain/agent/STIUserAgentSubTest.sol:STIUserAgentSubTest",
        "label": "_initialized",
        "offset": 20,
        "slot": "0",
        "type": "t_uint8"
      },
      {
        "astId": 716,
        "contract": "contracts/xchain/agent/STIUserAgentSubTest.sol:STIUserAgentSubTest",
        "label": "_initializing",
        "offset": 21,
        "slot": "0",
        "type": "t_bool"
      },
      {
        "astId": 66786,
        "contract": "contracts/xchain/agent/STIUserAgentSubTest.sol:STIUserAgentSubTest",
        "label": "separator",
        "offset": 0,
        "slot": "1",
        "type": "t_bytes32"
      },
      {
        "astId": 67203,
        "contract": "contracts/xchain/agent/STIUserAgentSubTest.sol:STIUserAgentSubTest",
        "label": "__gap",
        "offset": 0,
        "slot": "2",
        "type": "t_array(t_uint256)49_storage"
      },
      {
        "astId": 3292,
        "contract": "contracts/xchain/agent/STIUserAgentSubTest.sol:STIUserAgentSubTest",
        "label": "__gap",
        "offset": 0,
        "slot": "51",
        "type": "t_array(t_uint256)50_storage"
      },
      {
        "astId": 3946,
        "contract": "contracts/xchain/agent/STIUserAgentSubTest.sol:STIUserAgentSubTest",
        "label": "__gap",
        "offset": 0,
        "slot": "101",
        "type": "t_array(t_uint256)50_storage"
      },
      {
        "astId": 184,
        "contract": "contracts/xchain/agent/STIUserAgentSubTest.sol:STIUserAgentSubTest",
        "label": "_roles",
        "offset": 0,
        "slot": "151",
        "type": "t_mapping(t_bytes32,t_struct(RoleData)179_storage)"
      },
      {
        "astId": 483,
        "contract": "contracts/xchain/agent/STIUserAgentSubTest.sol:STIUserAgentSubTest",
        "label": "__gap",
        "offset": 0,
        "slot": "152",
        "type": "t_array(t_uint256)49_storage"
      },
      {
        "astId": 33,
        "contract": "contracts/xchain/agent/STIUserAgentSubTest.sol:STIUserAgentSubTest",
        "label": "_roleMembers",
        "offset": 0,
        "slot": "201",
        "type": "t_mapping(t_bytes32,t_struct(AddressSet)4359_storage)"
      },
      {
        "astId": 143,
        "contract": "contracts/xchain/agent/STIUserAgentSubTest.sol:STIUserAgentSubTest",
        "label": "__gap",
        "offset": 0,
        "slot": "202",
        "type": "t_array(t_uint256)49_storage"
      },
      {
        "astId": 869,
        "contract": "contracts/xchain/agent/STIUserAgentSubTest.sol:STIUserAgentSubTest",
        "label": "_paused",
        "offset": 0,
        "slot": "251",
        "type": "t_bool"
      },
      {
        "astId": 958,
        "contract": "contracts/xchain/agent/STIUserAgentSubTest.sol:STIUserAgentSubTest",
        "label": "__gap",
        "offset": 0,
        "slot": "252",
        "type": "t_array(t_uint256)49_storage"
      },
      {
        "astId": 593,
        "contract": "contracts/xchain/agent/STIUserAgentSubTest.sol:STIUserAgentSubTest",
        "label": "_owner",
        "offset": 0,
        "slot": "301",
        "type": "t_address"
      },
      {
        "astId": 705,
        "contract": "contracts/xchain/agent/STIUserAgentSubTest.sol:STIUserAgentSubTest",
        "label": "__gap",
        "offset": 0,
        "slot": "302",
        "type": "t_array(t_uint256)49_storage"
      },
      {
        "astId": 59554,
        "contract": "contracts/xchain/agent/STIUserAgentSubTest.sol:STIUserAgentSubTest",
        "label": "admin",
        "offset": 0,
        "slot": "351",
        "type": "t_address"
      },
      {
        "astId": 59558,
        "contract": "contracts/xchain/agent/STIUserAgentSubTest.sol:STIUserAgentSubTest",
        "label": "nonces",
        "offset": 0,
        "slot": "352",
        "type": "t_mapping(t_address,t_uint256)"
      },
      {
        "astId": 59561,
        "contract": "contracts/xchain/agent/STIUserAgentSubTest.sol:STIUserAgentSubTest",
        "label": "swap",
        "offset": 0,
        "slot": "353",
        "type": "t_contract(ISwap)55907"
      },
      {
        "astId": 59564,
        "contract": "contracts/xchain/agent/STIUserAgentSubTest.sol:STIUserAgentSubTest",
        "label": "USDC",
        "offset": 0,
        "slot": "354",
        "type": "t_contract(IERC20Upgradeable)1707"
      },
      {
        "astId": 59567,
        "contract": "contracts/xchain/agent/STIUserAgentSubTest.sol:STIUserAgentSubTest",
        "label": "USDT",
        "offset": 0,
        "slot": "355",
        "type": "t_contract(IERC20Upgradeable)1707"
      },
      {
        "astId": 59571,
        "contract": "contracts/xchain/agent/STIUserAgentSubTest.sol:STIUserAgentSubTest",
        "label": "usdcBalances",
        "offset": 0,
        "slot": "356",
        "type": "t_mapping(t_address,t_uint256)"
      },
      {
        "astId": 59575,
        "contract": "contracts/xchain/agent/STIUserAgentSubTest.sol:STIUserAgentSubTest",
        "label": "usdtBalances",
        "offset": 0,
        "slot": "357",
        "type": "t_mapping(t_address,t_uint256)"
      },
      {
        "astId": 59578,
        "contract": "contracts/xchain/agent/STIUserAgentSubTest.sol:STIUserAgentSubTest",
        "label": "multichainAdapter",
        "offset": 0,
        "slot": "358",
        "type": "t_contract(IXChainAdapter)56214"
      },
      {
        "astId": 59581,
        "contract": "contracts/xchain/agent/STIUserAgentSubTest.sol:STIUserAgentSubTest",
        "label": "cbridgeAdapter",
        "offset": 0,
        "slot": "359",
        "type": "t_contract(IXChainAdapter)56214"
      },
      {
        "astId": 59585,
        "contract": "contracts/xchain/agent/STIUserAgentSubTest.sol:STIUserAgentSubTest",
        "label": "cbridgeSenders",
        "offset": 0,
        "slot": "360",
        "type": "t_mapping(t_uint256,t_address)"
      },
      {
        "astId": 59589,
        "contract": "contracts/xchain/agent/STIUserAgentSubTest.sol:STIUserAgentSubTest",
        "label": "userAgents",
        "offset": 0,
        "slot": "361",
        "type": "t_mapping(t_uint256,t_address)"
      },
      {
        "astId": 59594,
        "contract": "contracts/xchain/agent/STIUserAgentSubTest.sol:STIUserAgentSubTest",
        "label": "callAdapterTypes",
        "offset": 0,
        "slot": "362",
        "type": "t_mapping(t_uint256,t_enum(AdapterType)59547)"
      },
      {
        "astId": 60239,
        "contract": "contracts/xchain/agent/STIUserAgentSubTest.sol:STIUserAgentSubTest",
        "label": "__gap",
        "offset": 0,
        "slot": "363",
        "type": "t_array(t_uint256)39_storage"
      },
      {
        "astId": 61233,
        "contract": "contracts/xchain/agent/STIUserAgentSubTest.sol:STIUserAgentSubTest",
        "label": "chainIdOnLP",
        "offset": 0,
        "slot": "402",
        "type": "t_uint256"
      },
      {
        "astId": 61235,
        "contract": "contracts/xchain/agent/STIUserAgentSubTest.sol:STIUserAgentSubTest",
        "label": "isLPChain",
        "offset": 0,
        "slot": "403",
        "type": "t_bool"
      },
      {
        "astId": 61238,
        "contract": "contracts/xchain/agent/STIUserAgentSubTest.sol:STIUserAgentSubTest",
        "label": "stiMinter",
        "offset": 1,
        "slot": "403",
        "type": "t_contract(ISTIMinter)44045"
      },
      {
        "astId": 61243,
        "contract": "contracts/xchain/agent/STIUserAgentSubTest.sol:STIUserAgentSubTest",
        "label": "stiVaults",
        "offset": 0,
        "slot": "404",
        "type": "t_mapping(t_uint256,t_contract(ISTIVault)44102)"
      },
      {
        "astId": 61245,
        "contract": "contracts/xchain/agent/STIUserAgentSubTest.sol:STIUserAgentSubTest",
        "label": "subImpl",
        "offset": 0,
        "slot": "405",
        "type": "t_address"
      }
    ],
    "types": {
      "t_address": {
        "encoding": "inplace",
        "label": "address",
        "numberOfBytes": "20"
      },
      "t_array(t_bytes32)dyn_storage": {
        "base": "t_bytes32",
        "encoding": "dynamic_array",
        "label": "bytes32[]",
        "numberOfBytes": "32"
      },
      "t_array(t_uint256)39_storage": {
        "base": "t_uint256",
        "encoding": "inplace",
        "label": "uint256[39]",
        "numberOfBytes": "1248"
      },
      "t_array(t_uint256)49_storage": {
        "base": "t_uint256",
        "encoding": "inplace",
        "label": "uint256[49]",
        "numberOfBytes": "1568"
      },
      "t_array(t_uint256)50_storage": {
        "base": "t_uint256",
        "encoding": "inplace",
        "label": "uint256[50]",
        "numberOfBytes": "1600"
      },
      "t_bool": {
        "encoding": "inplace",
        "label": "bool",
        "numberOfBytes": "1"
      },
      "t_bytes32": {
        "encoding": "inplace",
        "label": "bytes32",
        "numberOfBytes": "32"
      },
      "t_contract(IERC20Upgradeable)1707": {
        "encoding": "inplace",
        "label": "contract IERC20Upgradeable",
        "numberOfBytes": "20"
      },
      "t_contract(ISTIMinter)44045": {
        "encoding": "inplace",
        "label": "contract ISTIMinter",
        "numberOfBytes": "20"
      },
      "t_contract(ISTIVault)44102": {
        "encoding": "inplace",
        "label": "contract ISTIVault",
        "numberOfBytes": "20"
      },
      "t_contract(ISwap)55907": {
        "encoding": "inplace",
        "label": "contract ISwap",
        "numberOfBytes": "20"
      },
      "t_contract(IXChainAdapter)56214": {
        "encoding": "inplace",
        "label": "contract IXChainAdapter",
        "numberOfBytes": "20"
      },
      "t_enum(AdapterType)59547": {
        "encoding": "inplace",
        "label": "enum BasicUserAgentBase.AdapterType",
        "numberOfBytes": "1"
      },
      "t_mapping(t_address,t_bool)": {
        "encoding": "mapping",
        "key": "t_address",
        "label": "mapping(address => bool)",
        "numberOfBytes": "32",
        "value": "t_bool"
      },
      "t_mapping(t_address,t_uint256)": {
        "encoding": "mapping",
        "key": "t_address",
        "label": "mapping(address => uint256)",
        "numberOfBytes": "32",
        "value": "t_uint256"
      },
      "t_mapping(t_bytes32,t_struct(AddressSet)4359_storage)": {
        "encoding": "mapping",
        "key": "t_bytes32",
        "label": "mapping(bytes32 => struct EnumerableSetUpgradeable.AddressSet)",
        "numberOfBytes": "32",
        "value": "t_struct(AddressSet)4359_storage"
      },
      "t_mapping(t_bytes32,t_struct(RoleData)179_storage)": {
        "encoding": "mapping",
        "key": "t_bytes32",
        "label": "mapping(bytes32 => struct AccessControlUpgradeable.RoleData)",
        "numberOfBytes": "32",
        "value": "t_struct(RoleData)179_storage"
      },
      "t_mapping(t_bytes32,t_uint256)": {
        "encoding": "mapping",
        "key": "t_bytes32",
        "label": "mapping(bytes32 => uint256)",
        "numberOfBytes": "32",
        "value": "t_uint256"
      },
      "t_mapping(t_uint256,t_address)": {
        "encoding": "mapping",
        "key": "t_uint256",
        "label": "mapping(uint256 => address)",
        "numberOfBytes": "32",
        "value": "t_address"
      },
      "t_mapping(t_uint256,t_contract(ISTIVault)44102)": {
        "encoding": "mapping",
        "key": "t_uint256",
        "label": "mapping(uint256 => contract ISTIVault)",
        "numberOfBytes": "32",
        "value": "t_contract(ISTIVault)44102"
      },
      "t_mapping(t_uint256,t_enum(AdapterType)59547)": {
        "encoding": "mapping",
        "key": "t_uint256",
        "label": "mapping(uint256 => enum BasicUserAgentBase.AdapterType)",
        "numberOfBytes": "32",
        "value": "t_enum(AdapterType)59547"
      },
      "t_struct(AddressSet)4359_storage": {
        "encoding": "inplace",
        "label": "struct EnumerableSetUpgradeable.AddressSet",
        "members": [
          {
            "astId": 4358,
            "contract": "contracts/xchain/agent/STIUserAgentSubTest.sol:STIUserAgentSubTest",
            "label": "_inner",
            "offset": 0,
            "slot": "0",
            "type": "t_struct(Set)4058_storage"
          }
        ],
        "numberOfBytes": "64"
      },
      "t_struct(RoleData)179_storage": {
        "encoding": "inplace",
        "label": "struct AccessControlUpgradeable.RoleData",
        "members": [
          {
            "astId": 176,
            "contract": "contracts/xchain/agent/STIUserAgentSubTest.sol:STIUserAgentSubTest",
            "label": "members",
            "offset": 0,
            "slot": "0",
            "type": "t_mapping(t_address,t_bool)"
          },
          {
            "astId": 178,
            "contract": "contracts/xchain/agent/STIUserAgentSubTest.sol:STIUserAgentSubTest",
            "label": "adminRole",
            "offset": 0,
            "slot": "1",
            "type": "t_bytes32"
          }
        ],
        "numberOfBytes": "64"
      },
      "t_struct(Set)4058_storage": {
        "encoding": "inplace",
        "label": "struct EnumerableSetUpgradeable.Set",
        "members": [
          {
            "astId": 4053,
            "contract": "contracts/xchain/agent/STIUserAgentSubTest.sol:STIUserAgentSubTest",
            "label": "_values",
            "offset": 0,
            "slot": "0",
            "type": "t_array(t_bytes32)dyn_storage"
          },
          {
            "astId": 4057,
            "contract": "contracts/xchain/agent/STIUserAgentSubTest.sol:STIUserAgentSubTest",
            "label": "_indexes",
            "offset": 0,
            "slot": "1",
            "type": "t_mapping(t_bytes32,t_uint256)"
          }
        ],
        "numberOfBytes": "64"
      },
      "t_uint256": {
        "encoding": "inplace",
        "label": "uint256",
        "numberOfBytes": "32"
      },
      "t_uint8": {
        "encoding": "inplace",
        "label": "uint8",
        "numberOfBytes": "1"
      }
    }
  }
}