{
  "address": "0x55dE8c1C54bE0A36E4F326E6403b81e76343734F",
  "abi": [
    {
      "anonymous": false,
      "inputs": [
        {
          "indexed": true,
          "internalType": "address",
          "name": "caller",
          "type": "address"
        },
        {
          "indexed": true,
          "internalType": "uint256",
          "name": "amtDeposit",
          "type": "uint256"
        },
        {
          "indexed": true,
          "internalType": "address",
          "name": "tokenDeposit",
          "type": "address"
        }
      ],
      "name": "Deposit",
      "type": "event"
    },
    {
      "anonymous": false,
      "inputs": [
        {
          "indexed": false,
          "internalType": "uint8",
          "name": "version",
          "type": "uint8"
        }
      ],
      "name": "Initialized",
      "type": "event"
    },
    {
      "anonymous": false,
      "inputs": [
        {
          "indexed": true,
          "internalType": "address",
          "name": "previousOwner",
          "type": "address"
        },
        {
          "indexed": true,
          "internalType": "address",
          "name": "newOwner",
          "type": "address"
        }
      ],
      "name": "OwnershipTransferred",
      "type": "event"
    },
    {
      "anonymous": false,
      "inputs": [
        {
          "indexed": false,
          "internalType": "address",
          "name": "account",
          "type": "address"
        }
      ],
      "name": "Paused",
      "type": "event"
    },
    {
      "anonymous": false,
      "inputs": [
        {
          "indexed": true,
          "internalType": "uint256",
          "name": "amount",
          "type": "uint256"
        }
      ],
      "name": "Reinvest",
      "type": "event"
    },
    {
      "anonymous": false,
      "inputs": [
        {
          "indexed": false,
          "internalType": "address",
          "name": "account",
          "type": "address"
        }
      ],
      "name": "Unpaused",
      "type": "event"
    },
    {
      "anonymous": false,
      "inputs": [
        {
          "indexed": true,
          "internalType": "address",
          "name": "caller",
          "type": "address"
        },
        {
          "indexed": true,
          "internalType": "uint256",
          "name": "amtWithdraw",
          "type": "uint256"
        },
        {
          "indexed": true,
          "internalType": "address",
          "name": "tokenWithdraw",
          "type": "address"
        },
        {
          "indexed": false,
          "internalType": "uint256",
          "name": "sharePerc",
          "type": "uint256"
        }
      ],
      "name": "Withdraw",
      "type": "event"
    },
    {
      "inputs": [],
      "name": "USDT",
      "outputs": [
        {
          "internalType": "contract IERC20UpgradeableExt",
          "name": "",
          "type": "address"
        }
      ],
      "stateMutability": "view",
      "type": "function"
    },
    {
      "inputs": [],
      "name": "admin",
      "outputs": [
        {
          "internalType": "address",
          "name": "",
          "type": "address"
        }
      ],
      "stateMutability": "view",
      "type": "function"
    },
    {
      "inputs": [],
      "name": "claim",
      "outputs": [],
      "stateMutability": "nonpayable",
      "type": "function"
    },
    {
      "inputs": [
        {
          "internalType": "address",
          "name": "_account",
          "type": "address"
        }
      ],
      "name": "claimByAdmin",
      "outputs": [],
      "stateMutability": "nonpayable",
      "type": "function"
    },
    {
      "inputs": [
        {
          "internalType": "address",
          "name": "_account",
          "type": "address"
        }
      ],
      "name": "claimByAgent",
      "outputs": [],
      "stateMutability": "nonpayable",
      "type": "function"
    },
    {
      "inputs": [],
      "name": "claimEmergencyWithdrawal",
      "outputs": [],
      "stateMutability": "nonpayable",
      "type": "function"
    },
    {
      "inputs": [
        {
          "internalType": "address",
          "name": "_account",
          "type": "address"
        },
        {
          "internalType": "address[]",
          "name": "_tokens",
          "type": "address[]"
        },
        {
          "internalType": "uint256[]",
          "name": "_USDT6Amts",
          "type": "uint256[]"
        },
        {
          "internalType": "uint256",
          "name": "_nonce",
          "type": "uint256"
        }
      ],
      "name": "depositByAdmin",
      "outputs": [],
      "stateMutability": "nonpayable",
      "type": "function"
    },
    {
      "inputs": [
        {
          "internalType": "address",
          "name": "_account",
          "type": "address"
        },
        {
          "internalType": "address[]",
          "name": "_tokens",
          "type": "address[]"
        },
        {
          "internalType": "uint256[]",
          "name": "_USDT6Amts",
          "type": "uint256[]"
        },
        {
          "internalType": "uint256",
          "name": "_nonce",
          "type": "uint256"
        }
      ],
      "name": "depositByAgent",
      "outputs": [],
      "stateMutability": "nonpayable",
      "type": "function"
    },
    {
      "inputs": [],
      "name": "emergencyWithdraw",
      "outputs": [],
      "stateMutability": "nonpayable",
      "type": "function"
    },
    {
      "inputs": [],
      "name": "firstOperationNonce",
      "outputs": [
        {
          "internalType": "uint256",
          "name": "",
          "type": "uint256"
        }
      ],
      "stateMutability": "view",
      "type": "function"
    },
    {
      "inputs": [],
      "name": "getAPR",
      "outputs": [
        {
          "internalType": "uint256",
          "name": "",
          "type": "uint256"
        }
      ],
      "stateMutability": "view",
      "type": "function"
    },
    {
      "inputs": [],
      "name": "getAllPoolInUSD",
      "outputs": [
        {
          "internalType": "uint256",
          "name": "allPool",
          "type": "uint256"
        }
      ],
      "stateMutability": "view",
      "type": "function"
    },
    {
      "inputs": [
        {
          "internalType": "uint256",
          "name": "_nonce",
          "type": "uint256"
        }
      ],
      "name": "getAllPoolInUSDAtNonce",
      "outputs": [
        {
          "internalType": "uint256",
          "name": "",
          "type": "uint256"
        }
      ],
      "stateMutability": "view",
      "type": "function"
    },
    {
      "inputs": [
        {
          "internalType": "address",
          "name": "_account",
          "type": "address"
        }
      ],
      "name": "getAllUnbonded",
      "outputs": [
        {
          "internalType": "uint256",
          "name": "waitingInUSD",
          "type": "uint256"
        },
        {
          "internalType": "uint256",
          "name": "unbondedInUSD",
          "type": "uint256"
        },
        {
          "internalType": "uint256",
          "name": "waitForTs",
          "type": "uint256"
        }
      ],
      "stateMutability": "view",
      "type": "function"
    },
    {
      "inputs": [],
      "name": "getCurrentCompositionPerc",
      "outputs": [
        {
          "internalType": "address[]",
          "name": "tokens",
          "type": "address[]"
        },
        {
          "internalType": "uint256[]",
          "name": "percentages",
          "type": "uint256[]"
        }
      ],
      "stateMutability": "view",
      "type": "function"
    },
    {
      "inputs": [],
      "name": "getEachPoolInUSD",
      "outputs": [
        {
          "internalType": "uint256[]",
          "name": "chainIDs",
          "type": "uint256[]"
        },
        {
          "internalType": "address[]",
          "name": "tokens",
          "type": "address[]"
        },
        {
          "internalType": "uint256[]",
          "name": "pools",
          "type": "uint256[]"
        }
      ],
      "stateMutability": "view",
      "type": "function"
    },
    {
      "inputs": [],
      "name": "getEmergencyWithdrawalUnbonded",
      "outputs": [
        {
          "internalType": "uint256",
          "name": "waitingInUSD",
          "type": "uint256"
        },
        {
          "internalType": "uint256",
          "name": "unbondedInUSD",
          "type": "uint256"
        },
        {
          "internalType": "uint256",
          "name": "waitForTs",
          "type": "uint256"
        }
      ],
      "stateMutability": "view",
      "type": "function"
    },
    {
      "inputs": [
        {
          "internalType": "address",
          "name": "_account",
          "type": "address"
        }
      ],
      "name": "getPoolsUnbonded",
      "outputs": [
        {
          "internalType": "uint256[]",
          "name": "chainIDs",
          "type": "uint256[]"
        },
        {
          "internalType": "address[]",
          "name": "tokens",
          "type": "address[]"
        },
        {
          "internalType": "uint256[]",
          "name": "waitings",
          "type": "uint256[]"
        },
        {
          "internalType": "uint256[]",
          "name": "waitingInUSDs",
          "type": "uint256[]"
        },
        {
          "internalType": "uint256[]",
          "name": "unbondeds",
          "type": "uint256[]"
        },
        {
          "internalType": "uint256[]",
          "name": "unbondedInUSDs",
          "type": "uint256[]"
        },
        {
          "internalType": "uint256[]",
          "name": "waitForTses",
          "type": "uint256[]"
        }
      ],
      "stateMutability": "view",
      "type": "function"
    },
    {
      "inputs": [],
      "name": "getUSDTPriceInUSD",
      "outputs": [
        {
          "internalType": "uint256",
          "name": "",
          "type": "uint256"
        },
        {
          "internalType": "uint8",
          "name": "",
          "type": "uint8"
        }
      ],
      "stateMutability": "view",
      "type": "function"
    },
    {
      "inputs": [],
      "name": "getWithdrawableSharePerc",
      "outputs": [
        {
          "internalType": "uint256",
          "name": "chainID",
          "type": "uint256"
        },
        {
          "internalType": "uint256",
          "name": "sharePerc",
          "type": "uint256"
        }
      ],
      "stateMutability": "view",
      "type": "function"
    },
    {
      "inputs": [
        {
          "internalType": "address",
          "name": "_admin",
          "type": "address"
        },
        {
          "internalType": "address",
          "name": "_userAgent",
          "type": "address"
        },
        {
          "internalType": "address",
          "name": "_biconomy",
          "type": "address"
        },
        {
          "internalType": "address",
          "name": "_strategy",
          "type": "address"
        },
        {
          "internalType": "address",
          "name": "_priceOracle",
          "type": "address"
        },
        {
          "internalType": "address",
          "name": "_USDT",
          "type": "address"
        }
      ],
      "name": "initialize",
      "outputs": [],
      "stateMutability": "nonpayable",
      "type": "function"
    },
    {
      "inputs": [
        {
          "internalType": "address",
          "name": "forwarder",
          "type": "address"
        }
      ],
      "name": "isTrustedForwarder",
      "outputs": [
        {
          "internalType": "bool",
          "name": "",
          "type": "bool"
        }
      ],
      "stateMutability": "view",
      "type": "function"
    },
    {
      "inputs": [],
      "name": "lastOperationNonce",
      "outputs": [
        {
          "internalType": "uint256",
          "name": "",
          "type": "uint256"
        }
      ],
      "stateMutability": "view",
      "type": "function"
    },
    {
      "inputs": [
        {
          "internalType": "uint256",
          "name": "",
          "type": "uint256"
        }
      ],
      "name": "operationAmounts",
      "outputs": [
        {
          "internalType": "uint256",
          "name": "",
          "type": "uint256"
        }
      ],
      "stateMutability": "view",
      "type": "function"
    },
    {
      "inputs": [],
      "name": "owner",
      "outputs": [
        {
          "internalType": "address",
          "name": "",
          "type": "address"
        }
      ],
      "stateMutability": "view",
      "type": "function"
    },
    {
      "inputs": [],
      "name": "paused",
      "outputs": [
        {
          "internalType": "bool",
          "name": "",
          "type": "bool"
        }
      ],
      "stateMutability": "view",
      "type": "function"
    },
    {
      "inputs": [
        {
          "internalType": "uint256",
          "name": "",
          "type": "uint256"
        }
      ],
      "name": "poolAtNonce",
      "outputs": [
        {
          "internalType": "uint256",
          "name": "poolInUSD",
          "type": "uint256"
        },
        {
          "internalType": "uint256",
          "name": "ts",
          "type": "uint256"
        }
      ],
      "stateMutability": "view",
      "type": "function"
    },
    {
      "inputs": [],
      "name": "priceOracle",
      "outputs": [
        {
          "internalType": "contract IPriceOracle",
          "name": "",
          "type": "address"
        }
      ],
      "stateMutability": "view",
      "type": "function"
    },
    {
      "inputs": [
        {
          "internalType": "address[]",
          "name": "_tokens",
          "type": "address[]"
        },
        {
          "internalType": "uint256[]",
          "name": "_perc",
          "type": "uint256[]"
        }
      ],
      "name": "reinvest",
      "outputs": [],
      "stateMutability": "nonpayable",
      "type": "function"
    },
    {
      "inputs": [],
      "name": "renounceOwnership",
      "outputs": [],
      "stateMutability": "nonpayable",
      "type": "function"
    },
    {
      "inputs": [
        {
          "internalType": "address",
          "name": "_admin",
          "type": "address"
        }
      ],
      "name": "setAdmin",
      "outputs": [],
      "stateMutability": "nonpayable",
      "type": "function"
    },
    {
      "inputs": [
        {
          "internalType": "address",
          "name": "_biconomy",
          "type": "address"
        }
      ],
      "name": "setBiconomy",
      "outputs": [],
      "stateMutability": "nonpayable",
      "type": "function"
    },
    {
      "inputs": [
        {
          "internalType": "address",
          "name": "_strategy",
          "type": "address"
        }
      ],
      "name": "setStrategy",
      "outputs": [],
      "stateMutability": "nonpayable",
      "type": "function"
    },
    {
      "inputs": [
        {
          "internalType": "address",
          "name": "_userAgent",
          "type": "address"
        }
      ],
      "name": "setUserAgent",
      "outputs": [],
      "stateMutability": "nonpayable",
      "type": "function"
    },
    {
      "inputs": [],
      "name": "strategy",
      "outputs": [
        {
          "internalType": "contract IStrategy",
          "name": "",
          "type": "address"
        }
      ],
      "stateMutability": "view",
      "type": "function"
    },
    {
      "inputs": [
        {
          "internalType": "address",
          "name": "newOwner",
          "type": "address"
        }
      ],
      "name": "transferOwnership",
      "outputs": [],
      "stateMutability": "nonpayable",
      "type": "function"
    },
    {
      "inputs": [],
      "name": "trustedForwarder",
      "outputs": [
        {
          "internalType": "address",
          "name": "",
          "type": "address"
        }
      ],
      "stateMutability": "view",
      "type": "function"
    },
    {
      "inputs": [],
      "name": "userAgent",
      "outputs": [
        {
          "internalType": "address",
          "name": "",
          "type": "address"
        }
      ],
      "stateMutability": "view",
      "type": "function"
    },
    {
      "inputs": [
        {
          "internalType": "address",
          "name": "",
          "type": "address"
        }
      ],
      "name": "userLastOperationNonce",
      "outputs": [
        {
          "internalType": "uint256",
          "name": "",
          "type": "uint256"
        }
      ],
      "stateMutability": "view",
      "type": "function"
    },
    {
      "inputs": [],
      "name": "versionRecipient",
      "outputs": [
        {
          "internalType": "string",
          "name": "",
          "type": "string"
        }
      ],
      "stateMutability": "pure",
      "type": "function"
    },
    {
      "inputs": [
        {
          "internalType": "address",
          "name": "_account",
          "type": "address"
        },
        {
          "internalType": "uint256",
          "name": "_sharePerc",
          "type": "uint256"
        },
        {
          "internalType": "uint256",
          "name": "_nonce",
          "type": "uint256"
        }
      ],
      "name": "withdrawPercByAdmin",
      "outputs": [],
      "stateMutability": "nonpayable",
      "type": "function"
    },
    {
      "inputs": [
        {
          "internalType": "address",
          "name": "_account",
          "type": "address"
        },
        {
          "internalType": "uint256",
          "name": "_sharePerc",
          "type": "uint256"
        },
        {
          "internalType": "uint256",
          "name": "_nonce",
          "type": "uint256"
        }
      ],
      "name": "withdrawPercByAgent",
      "outputs": [],
      "stateMutability": "nonpayable",
      "type": "function"
    }
  ],
  "transactionHash": "0xa8f46eb2efc9a05eb6d0eda21db96c249397c9dfb345da0baacb89ec074481f8",
  "args": [],
  "numDeployments": 5,
  "solcInputHash": "aa8af62c39c4987602902032509083cd",
  "bytecode": "0x608060405234801561001057600080fd5b50613699806100206000396000f3fe608060405234801561001057600080fd5b506004361061025e5760003560e01c80638855c91a11610146578063c54e44eb116100c3578063e5e1977611610087578063e5e197761461056f578063e63cfa3b14610582578063e9e81a6a146105a9578063f2fde38b146105bc578063f851a440146105cf578063ffec4eb1146105e257600080fd5b8063c54e44eb14610513578063c89d5b8b14610526578063cc2a9a5b1461052e578063da454e6114610541578063db2e21bc1461056757600080fd5b8063aae092361161010a578063aae09236146104ac578063ac25f689146104c3578063b47c6a27146104d9578063bd244af4146104f8578063bdf1c4a11461050057600080fd5b80638855c91a146104595780638da5cb5b146104625780639b86088214610473578063a8c62e7614610486578063a9d98f591461049957600080fd5b8063486ff0cd116101df578063582712b1116101a3578063582712b1146103fa5780635c975abb1461040d5780636628f94514610418578063704b6c021461042b578063715018a61461043e5780637da0a8771461044657600080fd5b8063486ff0cd146103775780634e71d92d1461039a5780634fb02c95146103a25780634fc97cdf146103b5578063572b6c05146103c857600080fd5b806325b074f61161022657806325b074f6146102f05780632630c12f14610313578063264489ce1461033e57806333a100ca1461035157806345d207ec1461036457600080fd5b806304fe09ee14610263578063057feb991461028557806309b056f8146102b35780630d8b76a8146102bd57806319dac5af146102d0575b600080fd5b61026b6105eb565b604080519283526020830191909152015b60405180910390f35b6102a5610293366004612aeb565b60d16020526000908152604090205481565b60405190815260200161027c565b6102bb610646565b005b6102bb6102cb366004612b19565b61071a565b6102a56102de366004612b19565b60d06020526000908152604090205481565b6102f8610785565b6040805193845260208401929092529082015260600161027c565b60cc54610326906001600160a01b031681565b6040516001600160a01b03909116815260200161027c565b6102bb61034c366004612b19565b61081b565b6102bb61035f366004612b19565b610885565b6102bb610372366004612b36565b61098e565b60408051808201825260018152603160f81b6020820152905161027c9190612b97565b6102bb610a0a565b6102f86103b0366004612b19565b610a42565b6102bb6103c3366004612b19565b610ad3565b6103ea6103d6366004612b19565b6000546001600160a01b0391821691161490565b604051901515815260200161027c565b6102bb610408366004612d04565b610b44565b60655460ff166103ea565b6102bb610426366004612b19565b610bd7565b6102bb610439366004612b19565b610c42565b6102bb610cad565b600054610326906001600160a01b031681565b6102a560ce5481565b6097546001600160a01b0316610326565b6102bb610481366004612d82565b610d02565b60cb54610326906001600160a01b031681565b6102a56104a7366004612aeb565b611045565b6104b46110cf565b60405161027c93929190612e5a565b6104cb6112c3565b60405161027c929190612e93565b6104e1611358565b6040805192835260ff90911660208301520161027c565b6102a56113da565b60d254610326906001600160a01b031681565b60c954610326906001600160a01b031681565b6102a56113fd565b6102bb61053c366004612ec1565b61147f565b61055461054f366004612b19565b611660565b60405161027c9796959493929190612f43565b6102bb61178e565b6102bb61057d366004612d04565b611848565b61026b610590366004612aeb565b60cf602052600090815260409020805460019091015482565b6102bb6105b7366004612b36565b6118df565b6102bb6105ca366004612b19565b611944565b60ca54610326906001600160a01b031681565b6102a560cd5481565b606554469060009060ff166106085750670de0b6b3a76400009091565b6000806106136119fb565b90925090506106228183612ff0565b61063483670de0b6b3a7640000613008565b61063e9190613027565b925050509091565b6097546001600160a01b0316331480610669575060ca546001600160a01b031633145b61068e5760405162461bcd60e51b815260040161068590613049565b60405180910390fd5b60655460ff166106b05760405162461bcd60e51b815260040161068590613076565b60cb60009054906101000a90046001600160a01b03166001600160a01b03166309b056f86040518163ffffffff1660e01b8152600401600060405180830381600087803b15801561070057600080fd5b505af1158015610714573d6000803e3d6000fd5b50505050565b610722611b29565b6001600160a01b031661073d6097546001600160a01b031690565b6001600160a01b0316146107635760405162461bcd60e51b8152600401610685906130a4565b600080546001600160a01b0319166001600160a01b0392909216919091179055565b600080600060cb60009054906101000a90046001600160a01b03166001600160a01b03166325b074f66040518163ffffffff1660e01b815260040160606040518083038186803b1580156107d857600080fd5b505afa1580156107ec573d6000803e3d6000fd5b505050506040513d601f19601f8201168201806040525081019061081091906130d9565b925092509250909192565b60d2546001600160a01b031633146108455760405162461bcd60e51b815260040161068590613107565b600260015414156108685760405162461bcd60e51b81526004016106859061312b565b600260015561087e81610879611b29565b611b33565b5060018055565b61088d611b29565b6001600160a01b03166108a86097546001600160a01b031690565b6001600160a01b0316146108ce5760405162461bcd60e51b8152600401610685906130a4565b60cb80546001600160a01b0319166001600160a01b0383811691821790925560c954604051636eb1769f60e11b815230600482015260248101929092529091169063dd62ed3e9060440160206040518083038186803b15801561093057600080fd5b505afa158015610944573d6000803e3d6000fd5b505050506040513d601f19601f820116820180604052508101906109689190613162565b61098b5760cb5460c95461098b916001600160a01b039182169116600019611bd7565b50565b6097546001600160a01b03163314806109b1575060ca546001600160a01b031633145b6109cd5760405162461bcd60e51b815260040161068590613049565b600260015414156109f05760405162461bcd60e51b81526004016106859061312b565b6002600155610a0183808484611d2e565b50506001805550565b60026001541415610a2d5760405162461bcd60e51b81526004016106859061312b565b6002600155610a3c3380611b33565b60018055565b60cb54604051634fb02c9560e01b81526001600160a01b0383811660048301526000928392839290911690634fb02c959060240160606040518083038186803b158015610a8e57600080fd5b505afa158015610aa2573d6000803e3d6000fd5b505050506040513d601f19601f82011682018060405250810190610ac691906130d9565b9250925092509193909250565b6097546001600160a01b0316331480610af6575060ca546001600160a01b031633145b610b125760405162461bcd60e51b815260040161068590613049565b60026001541415610b355760405162461bcd60e51b81526004016106859061312b565b600260015561087e8180611b33565b60d2546001600160a01b03163314610b6e5760405162461bcd60e51b815260040161068590613107565b60026001541415610b915760405162461bcd60e51b81526004016106859061312b565b600260015560655460ff1615610bb95760405162461bcd60e51b81526004016106859061317b565b610bcd84610bc5611b29565b8585856120fc565b5050600180555050565b610bdf611b29565b6001600160a01b0316610bfa6097546001600160a01b031690565b6001600160a01b031614610c205760405162461bcd60e51b8152600401610685906130a4565b60d280546001600160a01b0319166001600160a01b0392909216919091179055565b610c4a611b29565b6001600160a01b0316610c656097546001600160a01b031690565b6001600160a01b031614610c8b5760405162461bcd60e51b8152600401610685906130a4565b60ca80546001600160a01b0319166001600160a01b0392909216919091179055565b610cb5611b29565b6001600160a01b0316610cd06097546001600160a01b031690565b6001600160a01b031614610cf65760405162461bcd60e51b8152600401610685906130a4565b610d0060006123eb565b565b6097546001600160a01b0316331480610d25575060ca546001600160a01b031633145b610d415760405162461bcd60e51b815260040161068590613049565b60655460ff16610d635760405162461bcd60e51b815260040161068590613076565b815181518114610dae5760405162461bcd60e51b815260206004820152601660248201527509cdee840dac2e8c6d040c2e4e4c2f240d8cadccee8d60531b6044820152606401610685565b600080610db9610785565b509092509050610dc98183612ff0565b15610e275760405162461bcd60e51b815260206004820152602860248201527f4e65656420746f20636c61696d20656d657267656e6379207769746864726177604482015267185b08199a5c9cdd60c21b6064820152608401610685565b610e2f61243d565b60c9546040516370a0823160e01b81523060048201526000916001600160a01b0316906370a082319060240160206040518083038186803b158015610e7357600080fd5b505afa158015610e87573d6000803e3d6000fd5b505050506040513d601f19601f82011682018060405250810190610eab9190613162565b9050801561103d576000805b85811015610ef857868181518110610ed157610ed16131a5565b602002602001015182610ee49190612ff0565b915080610ef0816131bb565b915050610eb7565b5060008567ffffffffffffffff811115610f1457610f14612bca565b604051908082528060200260200182016040528015610f3d578160200160208202803683370190505b50905060005b86811015610faa578284898381518110610f5f57610f5f6131a5565b6020026020010151610f719190613008565b610f7b9190613027565b828281518110610f8d57610f8d6131a5565b602090810291909101015280610fa2816131bb565b915050610f43565b5060cb54604051634dc3044160e11b81526001600160a01b0390911690639b86088290610fdd908b908590600401612e93565b600060405180830381600087803b158015610ff757600080fd5b505af115801561100b573d6000803e3d6000fd5b50506040518592507fc13e24d2b0a3bacd5d1a7c514125a1e27323abf7c86f6d36597f8752bbd7eed79150600090a250505b505050505050565b600060cd546000146110c15760cd5482101561106357506000919050565b60ce5482116110c157815b60cd5481106110bf57600081815260cf602090815260409182902082518084019093528054835260010154908201819052156110ac57519392505050565b50806110b7816131d6565b91505061106e565b505b6110c96113da565b92915050565b606080606060cb60009054906101000a90046001600160a01b03166001600160a01b031663aae092366040518163ffffffff1660e01b815260040160006040518083038186803b15801561112257600080fd5b505afa158015611136573d6000803e3d6000fd5b505050506040513d6000823e601f3d908101601f1916820160405261115e91908101906132ac565b80519193509150468167ffffffffffffffff81111561117f5761117f612bca565b6040519080825280602002602001820160405280156111a8578160200160208202803683370190505b50945060005b828110156111e657818682815181106111c9576111c96131a5565b6020908102919091010152806111de816131bb565b9150506111ae565b5060c9546040516370a0823160e01b81523060048201526000916001600160a01b0316906370a082319060240160206040518083038186803b15801561122b57600080fd5b505afa15801561123f573d6000803e3d6000fd5b505050506040513d601f19601f820116820180604052508101906112639190613162565b90506000811180156112755750600083115b156112bb5760c954611290906001600160a01b0316826124af565b846000815181106112a3576112a36131a5565b602002602001018181516112b79190612ff0565b9052505b505050909192565b60608060cb60009054906101000a90046001600160a01b03166001600160a01b0316634631b2466040518163ffffffff1660e01b815260040160006040518083038186803b15801561131457600080fd5b505afa158015611328573d6000803e3d6000fd5b505050506040513d6000823e601f3d908101601f1916820160405261135091908101906132ac565b915091509091565b60cc5460c95460405163b3596f0760e01b81526001600160a01b0391821660048201526000928392169063b3596f0790602401604080518083038186803b1580156113a257600080fd5b505afa1580156113b6573d6000803e3d6000fd5b505050506040513d601f19601f820116820180604052508101906113509190613317565b60008060006113e76119fb565b90925090506113f68183612ff0565b9250505090565b60cb546040805163c89d5b8b60e01b815290516000926001600160a01b03169163c89d5b8b916004808301926020929190829003018186803b15801561144257600080fd5b505afa158015611456573d6000803e3d6000fd5b505050506040513d601f19601f8201168201806040525081019061147a9190613162565b905090565b600061148b60016125e4565b905080156114a7576000805460ff60a81b1916600160a81b1790555b6114af612684565b60ca80546001600160a01b03199081166001600160a01b038a81169190911790925560d28054821689841617905560008054821688841617905560cb8054821687841617905560cc8054821686841617905560c9805490911691841691821790556040805163313ce56760e01b8152905163313ce56791600480820192602092909190829003018186803b15801561154657600080fd5b505afa15801561155a573d6000803e3d6000fd5b505050506040513d601f19601f8201168201806040525081019061157e9190613343565b60c9805460ff60a01b1916600160a01b60ff93841681029190911791829055900416600611156115f05760405162461bcd60e51b815260206004820152601760248201527f5553445420646563696d616c73206d757374203e3d20360000000000000000006044820152606401610685565b60cb5460c95461160f916001600160a01b039182169116600019611bd7565b8015611657576000805460ff60a81b19169055604051600181527f7f26b83ff96e1f2b6a682f133852f6798a09c465da95921460cefb38474024989060200160405180910390a15b50505050505050565b60cb5460405163da454e6160e01b81526001600160a01b038381166004830152606092839283928392839283928392169063da454e619060240160006040518083038186803b1580156116b257600080fd5b505afa1580156116c6573d6000803e3d6000fd5b505050506040513d6000823e601f3d908101601f191682016040526116ee919081019061335e565b8551959b50939950919750955093509150468167ffffffffffffffff81111561171957611719612bca565b604051908082528060200260200182016040528015611742578160200160208202803683370190505b50985060005b8281101561178057818a8281518110611763576117636131a5565b602090810291909101015280611778816131bb565b915050611748565b505050919395979092949650565b6097546001600160a01b03163314806117b1575060ca546001600160a01b031633145b6117cd5760405162461bcd60e51b815260040161068590613049565b60655460ff16156117f05760405162461bcd60e51b81526004016106859061317b565b6117f86126b5565b60cb60009054906101000a90046001600160a01b03166001600160a01b031663db2e21bc6040518163ffffffff1660e01b8152600401600060405180830381600087803b15801561070057600080fd5b6097546001600160a01b031633148061186b575060ca546001600160a01b031633145b6118875760405162461bcd60e51b815260040161068590613049565b600260015414156118aa5760405162461bcd60e51b81526004016106859061312b565b600260015560655460ff16156118d25760405162461bcd60e51b81526004016106859061317b565b610bcd84858585856120fc565b60d2546001600160a01b031633146119095760405162461bcd60e51b815260040161068590613107565b6002600154141561192c5760405162461bcd60e51b81526004016106859061312b565b6002600155610a018361193d611b29565b8484611d2e565b61194c611b29565b6001600160a01b03166119676097546001600160a01b031690565b6001600160a01b03161461198d5760405162461bcd60e51b8152600401610685906130a4565b6001600160a01b0381166119f25760405162461bcd60e51b815260206004820152602660248201527f4f776e61626c653a206e6577206f776e657220697320746865207a65726f206160448201526564647265737360d01b6064820152608401610685565b61098b816123eb565b60c9546040516370a0823160e01b8152306004820152600091829182916001600160a01b0316906370a082319060240160206040518083038186803b158015611a4357600080fd5b505afa158015611a57573d6000803e3d6000fd5b505050506040513d601f19601f82011682018060405250810190611a7b9190613162565b90508015611a9c5760c954611a99906001600160a01b0316826124af565b92505b60cb60009054906101000a90046001600160a01b03166001600160a01b031663bd244af46040518163ffffffff1660e01b815260040160206040518083038186803b158015611aea57600080fd5b505afa158015611afe573d6000803e3d6000fd5b505050506040513d601f19601f82011682018060405250810190611b229190613162565b9150509091565b600061147a61270e565b60cb54604051630f41a04d60e11b81526001600160a01b0384811660048301526000921690631e83409a90602401602060405180830381600087803b158015611b7b57600080fd5b505af1158015611b8f573d6000803e3d6000fd5b505050506040513d601f19601f82011682018060405250810190611bb39190613162565b90508015611bd25760c954611bd2906001600160a01b03168383612742565b505050565b801580611c605750604051636eb1769f60e11b81523060048201526001600160a01b03838116602483015284169063dd62ed3e9060440160206040518083038186803b158015611c2657600080fd5b505afa158015611c3a573d6000803e3d6000fd5b505050506040513d601f19601f82011682018060405250810190611c5e9190613162565b155b611ccb5760405162461bcd60e51b815260206004820152603660248201527f5361666545524332303a20617070726f76652066726f6d206e6f6e2d7a65726f60448201527520746f206e6f6e2d7a65726f20616c6c6f77616e636560501b6064820152608401610685565b6040516001600160a01b038316602482015260448101829052611bd290849063095ea7b360e01b906064015b60408051601f198184030181529190526020810180516001600160e01b03166001600160e01b031990931692909217909152612772565b60008211611d735760405162461bcd60e51b81526020600482015260126024820152710536861726550657263206d757374203e20360741b6044820152606401610685565b670de0b6b3a7640000821115611db75760405162461bcd60e51b81526020600482015260096024820152684f766572203130302560b81b6044820152606401610685565b600080611dc26119fb565b90925090506000611dd38284612ff0565b90506000670de0b6b3a7640000611dea8784613008565b611df49190613027565b6001600160a01b038916600090815260d060205260409020549091508511611e505760405162461bcd60e51b815260206004820152600f60248201526e139bdb98d9481a5cc818995a1a5b99608a1b6044820152606401610685565b6001600160a01b038816600090815260d06020908152604080832088905587835260d19091529020819055611e858583612844565b6000848211611f285760c9546040516370a0823160e01b8152306004820152869184916001600160a01b03909116906370a082319060240160206040518083038186803b158015611ed557600080fd5b505afa158015611ee9573d6000803e3d6000fd5b505050506040513d601f19601f82011682018060405250810190611f0d9190613162565b611f179190613008565b611f219190613027565b905061208c565b60655460ff166120445760cb546001600160a01b031663d38d5fc48a86611f4f8987613453565b611f6190670de0b6b3a7640000613008565b611f6b9190613027565b6040516001600160e01b031960e085901b1681526001600160a01b0390921660048301526024820152604401600060405180830381600087803b158015611fb157600080fd5b505af1158015611fc5573d6000803e3d6000fd5b505060c9546040516370a0823160e01b81523060048201526001600160a01b0390911692506370a08231915060240160206040518083038186803b15801561200c57600080fd5b505afa158015612020573d6000803e3d6000fd5b505050506040513d601f19601f82011682018060405250810190611f219190613162565b60405162461bcd60e51b815260206004820152601760248201527f526574727920616674657220616c6c20636c61696d65640000000000000000006044820152606401610685565b80156120a95760c9546120a9906001600160a01b03168983612742565b60c9546040518881526001600160a01b03918216918491908c16907f457f950b75085c30ff780acd57bde642ff1316cc4aad9f286af2c1ffc4163a789060200160405180910390a4505050505050505050565b6001600160a01b0385166121445760405162461bcd60e51b815260206004820152600f60248201526e125b9d985b1a59081858d8dbdd5b9d608a1b6044820152606401610685565b82518251811461218f5760405162461bcd60e51b815260206004820152601660248201527509cdee840dac2e8c6d040c2e4e4c2f240d8cadccee8d60531b6044820152606401610685565b60c9546000906121ab90600690600160a01b900460ff1661346a565b6121b690600a613571565b90506000805b8381101561224057828682815181106121d7576121d76131a5565b60200260200101516121e99190613008565b8682815181106121fb576121fb6131a5565b602002602001018181525050858181518110612219576122196131a5565b60200260200101518261222c9190612ff0565b915080612238816131bb565b9150506121bc565b50600081116122845760405162461bcd60e51b815260206004820152601060248201526f0416d6f756e7473206d757374203e20360841b6044820152606401610685565b6001600160a01b038816600090815260d0602052604090205484116122dd5760405162461bcd60e51b815260206004820152600f60248201526e139bdb98d9481a5cc818995a1a5b99608a1b6044820152606401610685565b6001600160a01b03808916600090815260d06020526040902085905560c9546123079116826124af565b600085815260d16020526040902055612327846123226113da565b612844565b60c95461233f906001600160a01b0316883084612894565b60cb546040516326b89b7160e01b81526001600160a01b03909116906326b89b71906123719089908990600401612e93565b600060405180830381600087803b15801561238b57600080fd5b505af115801561239f573d6000803e3d6000fd5b505060c9546040516001600160a01b039182169350849250908b16907fe31c7b8d08ee7db0afa68782e1028ef92305caeea8626633ad44d413e30f6b2f90600090a45050505050505050565b609780546001600160a01b038381166001600160a01b0319831681179093556040519116919082907f8be0079c531659141344cd1fd0a4f28419497f9722a3daafe3b4186f6b6457e090600090a35050565b60655460ff1661245f5760405162461bcd60e51b815260040161068590613076565b6065805460ff191690557f5db9ee0a495bf2e6ff9c91a7834c1ba4fdd244a5e8aa4e537bd38aeae4b073aa612492611b29565b6040516001600160a01b03909116815260200160405180910390a1565b60cc5460405163b3596f0760e01b81526001600160a01b038481166004830152600092839283929091169063b3596f0790602401604080518083038186803b1580156124fa57600080fd5b505afa15801561250e573d6000803e3d6000fd5b505050506040513d601f19601f820116820180604052508101906125329190613317565b915091506000856001600160a01b031663313ce5676040518163ffffffff1660e01b815260040160206040518083038186803b15801561257157600080fd5b505afa158015612585573d6000803e3d6000fd5b505050506040513d601f19601f820116820180604052508101906125a99190613343565b90506125b682600a613571565b836125c6878460ff1660126128cc565b6125d09190613008565b6125da9190613027565b9695505050505050565b60008054600160a81b900460ff161561262d578160ff1660011480156126095750303b155b6126255760405162461bcd60e51b815260040161068590613580565b506000919050565b60005460ff808416600160a01b909204161061265b5760405162461bcd60e51b815260040161068590613580565b506000805460ff909216600160a01b0260ff60a01b19909216919091179055600190565b919050565b600054600160a81b900460ff166126ad5760405162461bcd60e51b8152600401610685906135ce565b610d00612931565b60655460ff16156126d85760405162461bcd60e51b81526004016106859061317b565b6065805460ff191660011790557f62e78cea01bee320cd4e420270b5ea74000d11b0c9f74754ebdbfc544b05a258612492611b29565b60006018361080159061272b57506000546001600160a01b031633145b1561273d575060131936013560601c90565b503390565b6040516001600160a01b038316602482015260448101829052611bd290849063a9059cbb60e01b90606401611cf7565b60006127c7826040518060400160405280602081526020017f5361666545524332303a206c6f772d6c6576656c2063616c6c206661696c6564815250856001600160a01b031661296a9092919063ffffffff16565b805190915015611bd257808060200190518101906127e59190613619565b611bd25760405162461bcd60e51b815260206004820152602a60248201527f5361666545524332303a204552433230206f7065726174696f6e20646964206e6044820152691bdd081cdd58d8d9595960b21b6064820152608401610685565b604080518082018252828152426020808301918252600086815260cf9091529290922090518155905160019091015560cd546128805760cd8290555b8160ce5410156128905760ce8290555b5050565b6040516001600160a01b03808516602483015283166044820152606481018290526107149085906323b872dd60e01b90608401611cf7565b6000818314156128dd57508261292a565b8183101561290b576128ef8383613453565b6128fa90600a61363b565b6129049085613008565b905061292a565b6129158284613453565b61292090600a61363b565b6129049085613027565b9392505050565b600054600160a81b900460ff1661295a5760405162461bcd60e51b8152600401610685906135ce565b610d00612965611b29565b6123eb565b60606129798484600085612981565b949350505050565b6060824710156129e25760405162461bcd60e51b815260206004820152602660248201527f416464726573733a20696e73756666696369656e742062616c616e636520666f6044820152651c8818d85b1b60d21b6064820152608401610685565b6001600160a01b0385163b612a395760405162461bcd60e51b815260206004820152601d60248201527f416464726573733a2063616c6c20746f206e6f6e2d636f6e74726163740000006044820152606401610685565b600080866001600160a01b03168587604051612a559190613647565b60006040518083038185875af1925050503d8060008114612a92576040519150601f19603f3d011682016040523d82523d6000602084013e612a97565b606091505b5091509150612aa7828286612ab2565b979650505050505050565b60608315612ac157508161292a565b825115612ad15782518084602001fd5b8160405162461bcd60e51b81526004016106859190612b97565b600060208284031215612afd57600080fd5b5035919050565b6001600160a01b038116811461098b57600080fd5b600060208284031215612b2b57600080fd5b813561292a81612b04565b600080600060608486031215612b4b57600080fd5b8335612b5681612b04565b95602085013595506040909401359392505050565b60005b83811015612b86578181015183820152602001612b6e565b838111156107145750506000910152565b6020815260008251806020840152612bb6816040850160208701612b6b565b601f01601f19169190910160400192915050565b634e487b7160e01b600052604160045260246000fd5b604051601f8201601f1916810167ffffffffffffffff81118282101715612c0957612c09612bca565b604052919050565b600067ffffffffffffffff821115612c2b57612c2b612bca565b5060051b60200190565b600082601f830112612c4657600080fd5b81356020612c5b612c5683612c11565b612be0565b82815260059290921b84018101918181019086841115612c7a57600080fd5b8286015b84811015612c9e578035612c9181612b04565b8352918301918301612c7e565b509695505050505050565b600082601f830112612cba57600080fd5b81356020612cca612c5683612c11565b82815260059290921b84018101918181019086841115612ce957600080fd5b8286015b84811015612c9e5780358352918301918301612ced565b60008060008060808587031215612d1a57600080fd5b8435612d2581612b04565b9350602085013567ffffffffffffffff80821115612d4257600080fd5b612d4e88838901612c35565b94506040870135915080821115612d6457600080fd5b50612d7187828801612ca9565b949793965093946060013593505050565b60008060408385031215612d9557600080fd5b823567ffffffffffffffff80821115612dad57600080fd5b612db986838701612c35565b93506020850135915080821115612dcf57600080fd5b50612ddc85828601612ca9565b9150509250929050565b600081518084526020808501945080840160005b83811015612e1657815187529582019590820190600101612dfa565b509495945050505050565b600081518084526020808501945080840160005b83811015612e165781516001600160a01b031687529582019590820190600101612e35565b606081526000612e6d6060830186612de6565b8281036020840152612e7f8186612e21565b905082810360408401526125da8185612de6565b604081526000612ea66040830185612e21565b8281036020840152612eb88185612de6565b95945050505050565b60008060008060008060c08789031215612eda57600080fd5b8635612ee581612b04565b95506020870135612ef581612b04565b94506040870135612f0581612b04565b93506060870135612f1581612b04565b92506080870135612f2581612b04565b915060a0870135612f3581612b04565b809150509295509295509295565b60e081526000612f5660e083018a612de6565b8281036020840152612f68818a612e21565b90508281036040840152612f7c8189612de6565b90508281036060840152612f908188612de6565b90508281036080840152612fa48187612de6565b905082810360a0840152612fb88186612de6565b905082810360c0840152612fcc8185612de6565b9a9950505050505050505050565b634e487b7160e01b600052601160045260246000fd5b6000821982111561300357613003612fda565b500190565b600081600019048311821515161561302257613022612fda565b500290565b60008261304457634e487b7160e01b600052601260045260246000fd5b500490565b60208082526013908201527227b7363c9037bbb732b91037b91030b236b4b760691b604082015260600190565b60208082526014908201527314185d5cd8589b194e881b9bdd081c185d5cd95960621b604082015260600190565b6020808252818101527f4f776e61626c653a2063616c6c6572206973206e6f7420746865206f776e6572604082015260600190565b6000806000606084860312156130ee57600080fd5b8351925060208401519150604084015190509250925092565b6020808252600a908201526913db9b1e481859d95b9d60b21b604082015260600190565b6020808252601f908201527f5265656e7472616e637947756172643a207265656e7472616e742063616c6c00604082015260600190565b60006020828403121561317457600080fd5b5051919050565b60208082526010908201526f14185d5cd8589b194e881c185d5cd95960821b604082015260600190565b634e487b7160e01b600052603260045260246000fd5b60006000198214156131cf576131cf612fda565b5060010190565b6000816131e5576131e5612fda565b506000190190565b600082601f8301126131fe57600080fd5b8151602061320e612c5683612c11565b82815260059290921b8401810191818101908684111561322d57600080fd5b8286015b84811015612c9e57805161324481612b04565b8352918301918301613231565b600082601f83011261326257600080fd5b81516020613272612c5683612c11565b82815260059290921b8401810191818101908684111561329157600080fd5b8286015b84811015612c9e5780518352918301918301613295565b600080604083850312156132bf57600080fd5b825167ffffffffffffffff808211156132d757600080fd5b6132e3868387016131ed565b935060208501519150808211156132f957600080fd5b50612ddc85828601613251565b805160ff8116811461267f57600080fd5b6000806040838503121561332a57600080fd5b8251915061333a60208401613306565b90509250929050565b60006020828403121561335557600080fd5b61292a82613306565b60008060008060008060c0878903121561337757600080fd5b865167ffffffffffffffff8082111561338f57600080fd5b61339b8a838b016131ed565b975060208901519150808211156133b157600080fd5b6133bd8a838b01613251565b965060408901519150808211156133d357600080fd5b6133df8a838b01613251565b955060608901519150808211156133f557600080fd5b6134018a838b01613251565b9450608089015191508082111561341757600080fd5b6134238a838b01613251565b935060a089015191508082111561343957600080fd5b5061344689828a01613251565b9150509295509295509295565b60008282101561346557613465612fda565b500390565b600060ff821660ff84168082101561348457613484612fda565b90039392505050565b600181815b808511156134c85781600019048211156134ae576134ae612fda565b808516156134bb57918102915b93841c9390800290613492565b509250929050565b6000826134df575060016110c9565b816134ec575060006110c9565b8160018114613502576002811461350c57613528565b60019150506110c9565b60ff84111561351d5761351d612fda565b50506001821b6110c9565b5060208310610133831016604e8410600b841016171561354b575081810a6110c9565b613555838361348d565b806000190482111561356957613569612fda565b029392505050565b600061292a60ff8416836134d0565b6020808252602e908201527f496e697469616c697a61626c653a20636f6e747261637420697320616c72656160408201526d191e481a5b9a5d1a585b1a5e995960921b606082015260800190565b6020808252602b908201527f496e697469616c697a61626c653a20636f6e7472616374206973206e6f74206960408201526a6e697469616c697a696e6760a81b606082015260800190565b60006020828403121561362b57600080fd5b8151801515811461292a57600080fd5b600061292a83836134d0565b60008251613659818460208701612b6b565b919091019291505056fea2646970667358221220a4ca3c37db30db74cf5bb35492bbf0e286be7cd1a14cbb634d25ca8ffbf808d464736f6c63430008090033",
  "devdoc": {
    "kind": "dev",
    "methods": {
      "depositByAdmin(address,address[],uint256[],uint256)": {
        "params": {
          "_USDT6Amts": "amounts of USDT should be deposited to each pools. It's 6 decimals"
        }
      },
      "getUSDTPriceInUSD()": {
        "returns": {
          "_0": "the price of USDT in USD."
        }
      },
      "getWithdrawableSharePerc()": {
        "returns": {
          "chainID": "is the ID of the current chain",
          "sharePerc": "is percentage of the value in the vault of the total value. It's useful for calculating the withdrawable share under emergency status."
        }
      },
      "owner()": {
        "details": "Returns the address of the current owner."
      },
      "paused()": {
        "details": "Returns true if the contract is paused, and false otherwise."
      },
      "renounceOwnership()": {
        "details": "Leaves the contract without owner. It will not be possible to call `onlyOwner` functions anymore. Can only be called by the current owner. NOTE: Renouncing ownership will leave the contract without an owner, thereby removing any functionality that is only available to the owner."
      },
      "transferOwnership(address)": {
        "details": "Transfers ownership of the contract to a new account (`newOwner`). Can only be called by the current owner."
      },
      "withdrawPercByAdmin(address,uint256,uint256)": {
        "params": {
          "_sharePerc": "percentage of assets which should be withdrawn. It's 18 decimals"
        }
      }
    },
    "version": 1
  },
  "userdoc": {
    "kind": "user",
    "methods": {
      "depositByAdmin(address,address[],uint256[],uint256)": {
        "notice": "The length of array is based on token count. And the lengths should be same on the arraies."
      },
      "isTrustedForwarder(address)": {
        "notice": "return if the forwarder is trusted to forward relayed transactions to us. the forwarder is required to verify the sender's signature, and verify the call is not a replay."
      }
    },
    "version": 1
  },
  "storageLayout": {
    "storage": [
      {
        "astId": 66453,
        "contract": "contracts/sti/STIVault.sol:STIVault",
        "label": "trustedForwarder",
        "offset": 0,
        "slot": "0",
        "type": "t_address"
      },
      {
        "astId": 713,
        "contract": "contracts/sti/STIVault.sol:STIVault",
        "label": "_initialized",
        "offset": 20,
        "slot": "0",
        "type": "t_uint8"
      },
      {
        "astId": 716,
        "contract": "contracts/sti/STIVault.sol:STIVault",
        "label": "_initializing",
        "offset": 21,
        "slot": "0",
        "type": "t_bool"
      },
      {
        "astId": 973,
        "contract": "contracts/sti/STIVault.sol:STIVault",
        "label": "_status",
        "offset": 0,
        "slot": "1",
        "type": "t_uint256"
      },
      {
        "astId": 1017,
        "contract": "contracts/sti/STIVault.sol:STIVault",
        "label": "__gap",
        "offset": 0,
        "slot": "2",
        "type": "t_array(t_uint256)49_storage"
      },
      {
        "astId": 3292,
        "contract": "contracts/sti/STIVault.sol:STIVault",
        "label": "__gap",
        "offset": 0,
        "slot": "51",
        "type": "t_array(t_uint256)50_storage"
      },
      {
        "astId": 869,
        "contract": "contracts/sti/STIVault.sol:STIVault",
        "label": "_paused",
        "offset": 0,
        "slot": "101",
        "type": "t_bool"
      },
      {
        "astId": 958,
        "contract": "contracts/sti/STIVault.sol:STIVault",
        "label": "__gap",
        "offset": 0,
        "slot": "102",
        "type": "t_array(t_uint256)49_storage"
      },
      {
        "astId": 593,
        "contract": "contracts/sti/STIVault.sol:STIVault",
        "label": "_owner",
        "offset": 0,
        "slot": "151",
        "type": "t_address"
      },
      {
        "astId": 705,
        "contract": "contracts/sti/STIVault.sol:STIVault",
        "label": "__gap",
        "offset": 0,
        "slot": "152",
        "type": "t_array(t_uint256)49_storage"
      },
      {
        "astId": 47235,
        "contract": "contracts/sti/STIVault.sol:STIVault",
        "label": "USDT",
        "offset": 0,
        "slot": "201",
        "type": "t_contract(IERC20UpgradeableExt)65868"
      },
      {
        "astId": 47237,
        "contract": "contracts/sti/STIVault.sol:STIVault",
        "label": "usdtDecimals",
        "offset": 20,
        "slot": "201",
        "type": "t_uint8"
      },
      {
        "astId": 47239,
        "contract": "contracts/sti/STIVault.sol:STIVault",
        "label": "admin",
        "offset": 0,
        "slot": "202",
        "type": "t_address"
      },
      {
        "astId": 47242,
        "contract": "contracts/sti/STIVault.sol:STIVault",
        "label": "strategy",
        "offset": 0,
        "slot": "203",
        "type": "t_contract(IStrategy)47213"
      },
      {
        "astId": 47245,
        "contract": "contracts/sti/STIVault.sol:STIVault",
        "label": "priceOracle",
        "offset": 0,
        "slot": "204",
        "type": "t_contract(IPriceOracle)11910"
      },
      {
        "astId": 47247,
        "contract": "contracts/sti/STIVault.sol:STIVault",
        "label": "firstOperationNonce",
        "offset": 0,
        "slot": "205",
        "type": "t_uint256"
      },
      {
        "astId": 47249,
        "contract": "contracts/sti/STIVault.sol:STIVault",
        "label": "lastOperationNonce",
        "offset": 0,
        "slot": "206",
        "type": "t_uint256"
      },
      {
        "astId": 47254,
        "contract": "contracts/sti/STIVault.sol:STIVault",
        "label": "poolAtNonce",
        "offset": 0,
        "slot": "207",
        "type": "t_mapping(t_uint256,t_struct(PoolSnapshot)47232_storage)"
      },
      {
        "astId": 47258,
        "contract": "contracts/sti/STIVault.sol:STIVault",
        "label": "userLastOperationNonce",
        "offset": 0,
        "slot": "208",
        "type": "t_mapping(t_address,t_uint256)"
      },
      {
        "astId": 47262,
        "contract": "contracts/sti/STIVault.sol:STIVault",
        "label": "operationAmounts",
        "offset": 0,
        "slot": "209",
        "type": "t_mapping(t_uint256,t_uint256)"
      },
      {
        "astId": 47264,
        "contract": "contracts/sti/STIVault.sol:STIVault",
        "label": "userAgent",
        "offset": 0,
        "slot": "210",
        "type": "t_address"
      }
    ],
    "types": {
      "t_address": {
        "encoding": "inplace",
        "label": "address",
        "numberOfBytes": "20"
      },
      "t_array(t_uint256)49_storage": {
        "base": "t_uint256",
        "encoding": "inplace",
        "label": "uint256[49]",
        "numberOfBytes": "1568"
      },
      "t_array(t_uint256)50_storage": {
        "base": "t_uint256",
        "encoding": "inplace",
        "label": "uint256[50]",
        "numberOfBytes": "1600"
      },
      "t_bool": {
        "encoding": "inplace",
        "label": "bool",
        "numberOfBytes": "1"
      },
      "t_contract(IERC20UpgradeableExt)65868": {
        "encoding": "inplace",
        "label": "contract IERC20UpgradeableExt",
        "numberOfBytes": "20"
      },
      "t_contract(IPriceOracle)11910": {
        "encoding": "inplace",
        "label": "contract IPriceOracle",
        "numberOfBytes": "20"
      },
      "t_contract(IStrategy)47213": {
        "encoding": "inplace",
        "label": "contract IStrategy",
        "numberOfBytes": "20"
      },
      "t_mapping(t_address,t_uint256)": {
        "encoding": "mapping",
        "key": "t_address",
        "label": "mapping(address => uint256)",
        "numberOfBytes": "32",
        "value": "t_uint256"
      },
      "t_mapping(t_uint256,t_struct(PoolSnapshot)47232_storage)": {
        "encoding": "mapping",
        "key": "t_uint256",
        "label": "mapping(uint256 => struct STIVault.PoolSnapshot)",
        "numberOfBytes": "32",
        "value": "t_struct(PoolSnapshot)47232_storage"
      },
      "t_mapping(t_uint256,t_uint256)": {
        "encoding": "mapping",
        "key": "t_uint256",
        "label": "mapping(uint256 => uint256)",
        "numberOfBytes": "32",
        "value": "t_uint256"
      },
      "t_struct(PoolSnapshot)47232_storage": {
        "encoding": "inplace",
        "label": "struct STIVault.PoolSnapshot",
        "members": [
          {
            "astId": 47229,
            "contract": "contracts/sti/STIVault.sol:STIVault",
            "label": "poolInUSD",
            "offset": 0,
            "slot": "0",
            "type": "t_uint256"
          },
          {
            "astId": 47231,
            "contract": "contracts/sti/STIVault.sol:STIVault",
            "label": "ts",
            "offset": 0,
            "slot": "1",
            "type": "t_uint256"
          }
        ],
        "numberOfBytes": "64"
      },
      "t_uint256": {
        "encoding": "inplace",
        "label": "uint256",
        "numberOfBytes": "32"
      },
      "t_uint8": {
        "encoding": "inplace",
        "label": "uint8",
        "numberOfBytes": "1"
      }
    }
  }
}