{
  "address": "0xe1b46e1350b43E0Ea90F986B654BbF3796A4ecA8",
  "abi": [
    {
      "anonymous": false,
      "inputs": [
        {
          "indexed": false,
          "internalType": "uint8",
          "name": "version",
          "type": "uint8"
        }
      ],
      "name": "Initialized",
      "type": "event"
    },
    {
      "anonymous": false,
      "inputs": [
        {
          "indexed": true,
          "internalType": "address",
          "name": "previousOwner",
          "type": "address"
        },
        {
          "indexed": true,
          "internalType": "address",
          "name": "newOwner",
          "type": "address"
        }
      ],
      "name": "OwnershipTransferred",
      "type": "event"
    },
    {
      "anonymous": false,
      "inputs": [
        {
          "indexed": false,
          "internalType": "address",
          "name": "account",
          "type": "address"
        }
      ],
      "name": "Paused",
      "type": "event"
    },
    {
      "anonymous": false,
      "inputs": [
        {
          "indexed": true,
          "internalType": "bytes32",
          "name": "role",
          "type": "bytes32"
        },
        {
          "indexed": true,
          "internalType": "bytes32",
          "name": "previousAdminRole",
          "type": "bytes32"
        },
        {
          "indexed": true,
          "internalType": "bytes32",
          "name": "newAdminRole",
          "type": "bytes32"
        }
      ],
      "name": "RoleAdminChanged",
      "type": "event"
    },
    {
      "anonymous": false,
      "inputs": [
        {
          "indexed": true,
          "internalType": "bytes32",
          "name": "role",
          "type": "bytes32"
        },
        {
          "indexed": true,
          "internalType": "address",
          "name": "account",
          "type": "address"
        },
        {
          "indexed": true,
          "internalType": "address",
          "name": "sender",
          "type": "address"
        }
      ],
      "name": "RoleGranted",
      "type": "event"
    },
    {
      "anonymous": false,
      "inputs": [
        {
          "indexed": true,
          "internalType": "bytes32",
          "name": "role",
          "type": "bytes32"
        },
        {
          "indexed": true,
          "internalType": "address",
          "name": "account",
          "type": "address"
        },
        {
          "indexed": true,
          "internalType": "address",
          "name": "sender",
          "type": "address"
        }
      ],
      "name": "RoleRevoked",
      "type": "event"
    },
    {
      "anonymous": false,
      "inputs": [
        {
          "indexed": true,
          "internalType": "address",
          "name": "from",
          "type": "address"
        },
        {
          "indexed": false,
          "internalType": "address",
          "name": "token",
          "type": "address"
        },
        {
          "indexed": true,
          "internalType": "uint256",
          "name": "amount",
          "type": "uint256"
        },
        {
          "indexed": false,
          "internalType": "uint256",
          "name": "fromChainId",
          "type": "uint256"
        },
        {
          "indexed": true,
          "internalType": "uint256",
          "name": "toChainId",
          "type": "uint256"
        },
        {
          "indexed": false,
          "internalType": "address",
          "name": "to",
          "type": "address"
        },
        {
          "indexed": false,
          "internalType": "enum BasicUserAgentBase.AdapterType",
          "name": "adapterType",
          "type": "uint8"
        },
        {
          "indexed": false,
          "internalType": "uint256",
          "name": "nonce",
          "type": "uint256"
        }
      ],
      "name": "Transfer",
      "type": "event"
    },
    {
      "anonymous": false,
      "inputs": [
        {
          "indexed": false,
          "internalType": "address",
          "name": "account",
          "type": "address"
        }
      ],
      "name": "Unpaused",
      "type": "event"
    },
    {
      "inputs": [],
      "name": "ADAPTER_ROLE",
      "outputs": [
        {
          "internalType": "bytes32",
          "name": "",
          "type": "bytes32"
        }
      ],
      "stateMutability": "view",
      "type": "function"
    },
    {
      "inputs": [],
      "name": "DEFAULT_ADMIN_ROLE",
      "outputs": [
        {
          "internalType": "bytes32",
          "name": "",
          "type": "bytes32"
        }
      ],
      "stateMutability": "view",
      "type": "function"
    },
    {
      "inputs": [],
      "name": "USDC",
      "outputs": [
        {
          "internalType": "contract IERC20Upgradeable",
          "name": "",
          "type": "address"
        }
      ],
      "stateMutability": "view",
      "type": "function"
    },
    {
      "inputs": [],
      "name": "USDT",
      "outputs": [
        {
          "internalType": "contract IERC20Upgradeable",
          "name": "",
          "type": "address"
        }
      ],
      "stateMutability": "view",
      "type": "function"
    },
    {
      "inputs": [],
      "name": "admin",
      "outputs": [
        {
          "internalType": "address",
          "name": "",
          "type": "address"
        }
      ],
      "stateMutability": "view",
      "type": "function"
    },
    {
      "inputs": [],
      "name": "bniMinter",
      "outputs": [
        {
          "internalType": "contract IBNIMinter",
          "name": "",
          "type": "address"
        }
      ],
      "stateMutability": "view",
      "type": "function"
    },
    {
      "inputs": [],
      "name": "bniVault",
      "outputs": [
        {
          "internalType": "contract IBNIVault",
          "name": "",
          "type": "address"
        }
      ],
      "stateMutability": "view",
      "type": "function"
    },
    {
      "inputs": [
        {
          "internalType": "uint256",
          "name": "_pool",
          "type": "uint256"
        },
        {
          "internalType": "uint256",
          "name": "_share",
          "type": "uint256"
        }
      ],
      "name": "burn",
      "outputs": [
        {
          "internalType": "uint256",
          "name": "_feeAmt",
          "type": "uint256"
        }
      ],
      "stateMutability": "payable",
      "type": "function"
    },
    {
      "inputs": [
        {
          "internalType": "address",
          "name": "_account",
          "type": "address"
        },
        {
          "internalType": "uint256",
          "name": "_pool",
          "type": "uint256"
        },
        {
          "internalType": "uint256",
          "name": "_share",
          "type": "uint256"
        }
      ],
      "name": "burnByAdmin",
      "outputs": [],
      "stateMutability": "nonpayable",
      "type": "function"
    },
    {
      "inputs": [
        {
          "internalType": "uint256",
          "name": "",
          "type": "uint256"
        }
      ],
      "name": "callAdapterTypes",
      "outputs": [
        {
          "internalType": "enum BasicUserAgentBase.AdapterType",
          "name": "",
          "type": "uint8"
        }
      ],
      "stateMutability": "view",
      "type": "function"
    },
    {
      "inputs": [],
      "name": "cbridgeAdapter",
      "outputs": [
        {
          "internalType": "contract IXChainAdapter",
          "name": "",
          "type": "address"
        }
      ],
      "stateMutability": "view",
      "type": "function"
    },
    {
      "inputs": [
        {
          "internalType": "uint256",
          "name": "",
          "type": "uint256"
        }
      ],
      "name": "cbridgeSenders",
      "outputs": [
        {
          "internalType": "address",
          "name": "",
          "type": "address"
        }
      ],
      "stateMutability": "view",
      "type": "function"
    },
    {
      "inputs": [],
      "name": "chainIdOnLP",
      "outputs": [
        {
          "internalType": "uint256",
          "name": "",
          "type": "uint256"
        }
      ],
      "stateMutability": "view",
      "type": "function"
    },
    {
      "inputs": [
        {
          "internalType": "uint256[]",
          "name": "_toChainIds",
          "type": "uint256[]"
        },
        {
          "internalType": "address[]",
          "name": "_tokens",
          "type": "address[]"
        },
        {
          "internalType": "uint256[]",
          "name": "_USDT6Amts",
          "type": "uint256[]"
        },
        {
          "internalType": "uint256",
          "name": "_minterNonce",
          "type": "uint256"
        }
      ],
      "name": "deposit",
      "outputs": [
        {
          "internalType": "uint256",
          "name": "_feeAmt",
          "type": "uint256"
        }
      ],
      "stateMutability": "payable",
      "type": "function"
    },
    {
      "inputs": [
        {
          "internalType": "address",
          "name": "_account",
          "type": "address"
        },
        {
          "internalType": "address[]",
          "name": "_tokens",
          "type": "address[]"
        },
        {
          "internalType": "uint256[]",
          "name": "_USDT6Amts",
          "type": "uint256[]"
        },
        {
          "internalType": "uint256",
          "name": "_minterNonce",
          "type": "uint256"
        }
      ],
      "name": "depositByAgent",
      "outputs": [],
      "stateMutability": "nonpayable",
      "type": "function"
    },
    {
      "inputs": [
        {
          "internalType": "uint256",
          "name": "_gatheredAmount",
          "type": "uint256"
        }
      ],
      "name": "exitWithdrawal",
      "outputs": [
        {
          "internalType": "uint256",
          "name": "_feeAmt",
          "type": "uint256"
        }
      ],
      "stateMutability": "payable",
      "type": "function"
    },
    {
      "inputs": [
        {
          "internalType": "address",
          "name": "_account",
          "type": "address"
        }
      ],
      "name": "exitWithdrawalByAdmin",
      "outputs": [],
      "stateMutability": "nonpayable",
      "type": "function"
    },
    {
      "inputs": [
        {
          "internalType": "bytes4",
          "name": "",
          "type": "bytes4"
        }
      ],
      "name": "gasAmounts",
      "outputs": [
        {
          "internalType": "uint256",
          "name": "",
          "type": "uint256"
        }
      ],
      "stateMutability": "view",
      "type": "function"
    },
    {
      "inputs": [
        {
          "internalType": "uint256",
          "name": "",
          "type": "uint256"
        }
      ],
      "name": "gasCosts",
      "outputs": [
        {
          "internalType": "uint256",
          "name": "",
          "type": "uint256"
        }
      ],
      "stateMutability": "view",
      "type": "function"
    },
    {
      "inputs": [
        {
          "internalType": "uint256[]",
          "name": "_fromChainIds",
          "type": "uint256[]"
        },
        {
          "internalType": "enum BasicUserAgentBase.AdapterType[]",
          "name": "_adapterTypes",
          "type": "uint8[]"
        }
      ],
      "name": "gather",
      "outputs": [
        {
          "internalType": "uint256",
          "name": "_feeAmt",
          "type": "uint256"
        }
      ],
      "stateMutability": "payable",
      "type": "function"
    },
    {
      "inputs": [
        {
          "internalType": "address",
          "name": "_account",
          "type": "address"
        },
        {
          "internalType": "uint256",
          "name": "_toChainId",
          "type": "uint256"
        },
        {
          "internalType": "enum BasicUserAgentBase.AdapterType",
          "name": "_adapterType",
          "type": "uint8"
        }
      ],
      "name": "gatherByAdmin",
      "outputs": [],
      "stateMutability": "nonpayable",
      "type": "function"
    },
    {
      "inputs": [
        {
          "internalType": "bytes",
          "name": "message",
          "type": "bytes"
        }
      ],
      "name": "getMessageHashForSafe",
      "outputs": [
        {
          "internalType": "bytes32",
          "name": "",
          "type": "bytes32"
        }
      ],
      "stateMutability": "view",
      "type": "function"
    },
    {
      "inputs": [
        {
          "internalType": "bytes32",
          "name": "role",
          "type": "bytes32"
        }
      ],
      "name": "getRoleAdmin",
      "outputs": [
        {
          "internalType": "bytes32",
          "name": "",
          "type": "bytes32"
        }
      ],
      "stateMutability": "view",
      "type": "function"
    },
    {
      "inputs": [
        {
          "internalType": "bytes32",
          "name": "role",
          "type": "bytes32"
        },
        {
          "internalType": "uint256",
          "name": "index",
          "type": "uint256"
        }
      ],
      "name": "getRoleMember",
      "outputs": [
        {
          "internalType": "address",
          "name": "",
          "type": "address"
        }
      ],
      "stateMutability": "view",
      "type": "function"
    },
    {
      "inputs": [
        {
          "internalType": "bytes32",
          "name": "role",
          "type": "bytes32"
        }
      ],
      "name": "getRoleMemberCount",
      "outputs": [
        {
          "internalType": "uint256",
          "name": "",
          "type": "uint256"
        }
      ],
      "stateMutability": "view",
      "type": "function"
    },
    {
      "inputs": [
        {
          "internalType": "bytes32",
          "name": "role",
          "type": "bytes32"
        },
        {
          "internalType": "address",
          "name": "account",
          "type": "address"
        }
      ],
      "name": "grantRole",
      "outputs": [],
      "stateMutability": "nonpayable",
      "type": "function"
    },
    {
      "inputs": [
        {
          "internalType": "bytes32",
          "name": "role",
          "type": "bytes32"
        },
        {
          "internalType": "address",
          "name": "account",
          "type": "address"
        }
      ],
      "name": "hasRole",
      "outputs": [
        {
          "internalType": "bool",
          "name": "",
          "type": "bool"
        }
      ],
      "stateMutability": "view",
      "type": "function"
    },
    {
      "inputs": [],
      "name": "isLPChain",
      "outputs": [
        {
          "internalType": "bool",
          "name": "",
          "type": "bool"
        }
      ],
      "stateMutability": "view",
      "type": "function"
    },
    {
      "inputs": [
        {
          "internalType": "address",
          "name": "forwarder",
          "type": "address"
        }
      ],
      "name": "isTrustedForwarder",
      "outputs": [
        {
          "internalType": "bool",
          "name": "",
          "type": "bool"
        }
      ],
      "stateMutability": "view",
      "type": "function"
    },
    {
      "inputs": [
        {
          "internalType": "address",
          "name": "_account",
          "type": "address"
        },
        {
          "internalType": "bytes",
          "name": "_data",
          "type": "bytes"
        },
        {
          "internalType": "bytes",
          "name": "_signature",
          "type": "bytes"
        }
      ],
      "name": "isValidSignature",
      "outputs": [
        {
          "internalType": "bool",
          "name": "",
          "type": "bool"
        }
      ],
      "stateMutability": "view",
      "type": "function"
    },
    {
      "inputs": [
        {
          "internalType": "uint256",
          "name": "_USDT6Amt",
          "type": "uint256"
        }
      ],
      "name": "mint",
      "outputs": [
        {
          "internalType": "uint256",
          "name": "_feeAmt",
          "type": "uint256"
        }
      ],
      "stateMutability": "payable",
      "type": "function"
    },
    {
      "inputs": [
        {
          "internalType": "address",
          "name": "_account",
          "type": "address"
        },
        {
          "internalType": "uint256",
          "name": "_USDT6Amt",
          "type": "uint256"
        }
      ],
      "name": "mintByAdmin",
      "outputs": [],
      "stateMutability": "nonpayable",
      "type": "function"
    },
    {
      "inputs": [],
      "name": "multichainAdapter",
      "outputs": [
        {
          "internalType": "contract IXChainAdapter",
          "name": "",
          "type": "address"
        }
      ],
      "stateMutability": "view",
      "type": "function"
    },
    {
      "inputs": [
        {
          "internalType": "address",
          "name": "",
          "type": "address"
        }
      ],
      "name": "nonces",
      "outputs": [
        {
          "internalType": "uint256",
          "name": "",
          "type": "uint256"
        }
      ],
      "stateMutability": "view",
      "type": "function"
    },
    {
      "inputs": [],
      "name": "owner",
      "outputs": [
        {
          "internalType": "address",
          "name": "",
          "type": "address"
        }
      ],
      "stateMutability": "view",
      "type": "function"
    },
    {
      "inputs": [],
      "name": "paused",
      "outputs": [
        {
          "internalType": "bool",
          "name": "",
          "type": "bool"
        }
      ],
      "stateMutability": "view",
      "type": "function"
    },
    {
      "inputs": [],
      "name": "renounceOwnership",
      "outputs": [],
      "stateMutability": "nonpayable",
      "type": "function"
    },
    {
      "inputs": [
        {
          "internalType": "bytes32",
          "name": "role",
          "type": "bytes32"
        },
        {
          "internalType": "address",
          "name": "account",
          "type": "address"
        }
      ],
      "name": "renounceRole",
      "outputs": [],
      "stateMutability": "nonpayable",
      "type": "function"
    },
    {
      "inputs": [
        {
          "internalType": "bytes32",
          "name": "role",
          "type": "bytes32"
        },
        {
          "internalType": "address",
          "name": "account",
          "type": "address"
        }
      ],
      "name": "revokeRole",
      "outputs": [],
      "stateMutability": "nonpayable",
      "type": "function"
    },
    {
      "inputs": [],
      "name": "subImpl",
      "outputs": [
        {
          "internalType": "address",
          "name": "",
          "type": "address"
        }
      ],
      "stateMutability": "view",
      "type": "function"
    },
    {
      "inputs": [
        {
          "internalType": "bytes4",
          "name": "interfaceId",
          "type": "bytes4"
        }
      ],
      "name": "supportsInterface",
      "outputs": [
        {
          "internalType": "bool",
          "name": "",
          "type": "bool"
        }
      ],
      "stateMutability": "view",
      "type": "function"
    },
    {
      "inputs": [
        {
          "internalType": "uint256",
          "name": "_gatheredAmount",
          "type": "uint256"
        }
      ],
      "name": "takeOut",
      "outputs": [],
      "stateMutability": "nonpayable",
      "type": "function"
    },
    {
      "inputs": [
        {
          "internalType": "uint256[]",
          "name": "_amounts",
          "type": "uint256[]"
        },
        {
          "internalType": "uint256[]",
          "name": "_toChainIds",
          "type": "uint256[]"
        },
        {
          "internalType": "enum BasicUserAgentBase.AdapterType[]",
          "name": "_adapterTypes",
          "type": "uint8[]"
        }
      ],
      "name": "transfer",
      "outputs": [
        {
          "internalType": "uint256",
          "name": "_feeAmt",
          "type": "uint256"
        }
      ],
      "stateMutability": "payable",
      "type": "function"
    },
    {
      "inputs": [
        {
          "internalType": "address",
          "name": "newOwner",
          "type": "address"
        }
      ],
      "name": "transferOwnership",
      "outputs": [],
      "stateMutability": "nonpayable",
      "type": "function"
    },
    {
      "inputs": [],
      "name": "treasuryWallet",
      "outputs": [
        {
          "internalType": "address",
          "name": "",
          "type": "address"
        }
      ],
      "stateMutability": "view",
      "type": "function"
    },
    {
      "inputs": [],
      "name": "trustedForwarder",
      "outputs": [
        {
          "internalType": "address",
          "name": "",
          "type": "address"
        }
      ],
      "stateMutability": "view",
      "type": "function"
    },
    {
      "inputs": [
        {
          "internalType": "address",
          "name": "",
          "type": "address"
        }
      ],
      "name": "usdcBalances",
      "outputs": [
        {
          "internalType": "uint256",
          "name": "",
          "type": "uint256"
        }
      ],
      "stateMutability": "view",
      "type": "function"
    },
    {
      "inputs": [
        {
          "internalType": "address",
          "name": "",
          "type": "address"
        }
      ],
      "name": "usdtBalances",
      "outputs": [
        {
          "internalType": "uint256",
          "name": "",
          "type": "uint256"
        }
      ],
      "stateMutability": "view",
      "type": "function"
    },
    {
      "inputs": [
        {
          "internalType": "uint256",
          "name": "",
          "type": "uint256"
        }
      ],
      "name": "userAgents",
      "outputs": [
        {
          "internalType": "address",
          "name": "",
          "type": "address"
        }
      ],
      "stateMutability": "view",
      "type": "function"
    },
    {
      "inputs": [],
      "name": "versionRecipient",
      "outputs": [
        {
          "internalType": "string",
          "name": "",
          "type": "string"
        }
      ],
      "stateMutability": "pure",
      "type": "function"
    },
    {
      "inputs": [
        {
          "internalType": "uint256[]",
          "name": "_chainIds",
          "type": "uint256[]"
        },
        {
          "internalType": "uint256",
          "name": "_sharePerc",
          "type": "uint256"
        },
        {
          "internalType": "uint256",
          "name": "_minterNonce",
          "type": "uint256"
        }
      ],
      "name": "withdraw",
      "outputs": [
        {
          "internalType": "uint256",
          "name": "_feeAmt",
          "type": "uint256"
        }
      ],
      "stateMutability": "payable",
      "type": "function"
    },
    {
      "inputs": [
        {
          "internalType": "address",
          "name": "_account",
          "type": "address"
        },
        {
          "internalType": "uint256",
          "name": "_sharePerc",
          "type": "uint256"
        },
        {
          "internalType": "uint256",
          "name": "_minterNonce",
          "type": "uint256"
        }
      ],
      "name": "withdrawPercByAgent",
      "outputs": [],
      "stateMutability": "nonpayable",
      "type": "function"
    },
    {
      "stateMutability": "payable",
      "type": "receive"
    }
  ],
  "transactionHash": "0xa977d6b15b14ece817363d4ee6276f8b445ea540dddff6d0d2bd4d5b70df7bcd",
  "args": [],
  "numDeployments": 6,
  "solcInputHash": "50e9331d6c7fc61baa38d36668973de0",
  "bytecode": "0x608060405234801561001057600080fd5b50614d20806100206000396000f3fe6080604052600436106103035760003560e01c806389a3027111610190578063ca15c873116100dc578063e9e81a6a11610095578063f77de4861161006f578063f77de486146109a6578063f7bb364c146109c6578063f851a440146109e1578063fb76bb7e14610a0257600080fd5b8063e9e81a6a1461092f578063f2ea16181461094f578063f2fde38b1461098657600080fd5b8063ca15c87314610876578063caffbec714610896578063cd6c7f2d146108b6578063d547741f146108c9578063d843a400146108e9578063e629f7b31461090f57600080fd5b8063a7f4bdce11610149578063af3da2f411610123578063af3da2f414610802578063b390c0ab14610822578063c54e44eb14610835578063c7205bce1461085657600080fd5b8063a7f4bdce146107ae578063a99c68c5146107c1578063abe57f87146107ef57600080fd5b806389a30271146107065780638da5cb5b146107275780639010d07c1461074657806391d1485414610766578063a0712d6814610786578063a217fddf1461079957600080fd5b8063407a2e981161024f578063582712b1116102085780636ebf33ce116101e25780636ebf33ce1461066c578063715018a6146106a35780637da0a877146106b85780637ecebe00146106d857600080fd5b8063582712b1146106135780635c975abb1461063357806363032feb1461064b57600080fd5b8063407a2e98146105165780634626402b14610544578063486ff0cd14610565578063572b6c051461059557806357cdd7f9146105c4578063582489cb146105e557600080fd5b80631a5787d8116102bc57806328054fb71161029657806328054fb7146104765780632f2ff15d1461049857806336568abe146104b857806339dacedb146104d857600080fd5b80631a5787d81461041c578063218253cc14610433578063248a9ca31461044657600080fd5b8063013dee701461030f57806301ffc9a71461034d57806302a882e61461037d5780630c3a1821146103ad578063187f3c54146103ce57806319463093146103fc57600080fd5b3661030a57005b600080fd5b34801561031b57600080fd5b5061019554610330906001600160a01b031681565b6040516001600160a01b0390911681526020015b60405180910390f35b34801561035957600080fd5b5061036d610368366004614054565b610a15565b6040519015158152602001610344565b34801561038957600080fd5b5061039f600080516020614ccb83398151915281565b604051908152602001610344565b3480156103b957600080fd5b5061016654610330906001600160a01b031681565b3480156103da57600080fd5b5061039f6103e936600461407e565b61016c6020526000908152604090205481565b34801561040857600080fd5b5061039f61041736600461414c565b610a40565b34801561042857600080fd5b5061039f6101925481565b61039f610441366004614284565b610a8c565b34801561045257600080fd5b5061039f61046136600461407e565b60009081526097602052604090206001015490565b34801561048257600080fd5b50610496610491366004614320565b610b72565b005b3480156104a457600080fd5b506104966104b336600461435e565b610f20565b3480156104c457600080fd5b506104966104d336600461435e565b610f4a565b3480156104e457600080fd5b506105096104f336600461407e565b61016a6020526000908152604090205460ff1681565b60405161034491906143c6565b34801561052257600080fd5b5061039f610531366004614054565b61016b6020526000908152604090205481565b34801561055057600080fd5b5061016d54610330906001600160a01b031681565b34801561057157600080fd5b5060408051808201825260018152603160f81b60208201529051610344919061442c565b3480156105a157600080fd5b5061036d6105b036600461443f565b6000546001600160a01b0391821691161490565b3480156105d057600080fd5b5061016754610330906001600160a01b031681565b3480156105f157600080fd5b5061039f61060036600461443f565b6101656020526000908152604090205481565b34801561061f57600080fd5b5061049661062e3660046144c0565b610fd8565b34801561063f57600080fd5b5060fb5460ff1661036d565b34801561065757600080fd5b5061019454610330906001600160a01b031681565b34801561067857600080fd5b5061033061068736600461407e565b610169602052600090815260409020546001600160a01b031681565b3480156106af57600080fd5b50610496611060565b3480156106c457600080fd5b50600054610330906001600160a01b031681565b3480156106e457600080fd5b5061039f6106f336600461443f565b6101606020526000908152604090205481565b34801561071257600080fd5b5061016254610330906001600160a01b031681565b34801561073357600080fd5b5061012d546001600160a01b0316610330565b34801561075257600080fd5b5061033061076136600461453d565b6110b6565b34801561077257600080fd5b5061036d61078136600461435e565b6110d5565b61039f61079436600461407e565b611100565b3480156107a557600080fd5b5061039f600081565b61039f6107bc36600461455f565b611292565b3480156107cd57600080fd5b5061039f6107dc36600461443f565b6101646020526000908152604090205481565b61039f6107fd36600461407e565b61135b565b34801561080e57600080fd5b5061049661081d3660046145ac565b61150c565b61039f61083036600461453d565b611596565b34801561084157600080fd5b5061016354610330906001600160a01b031681565b34801561086257600080fd5b5061036d6108713660046145d8565b611714565b34801561088257600080fd5b5061039f61089136600461407e565b611893565b3480156108a257600080fd5b506104966108b136600461407e565b6118aa565b61039f6108c436600461467b565b611954565b3480156108d557600080fd5b506104966108e436600461435e565b611a41565b3480156108f557600080fd5b50610193546103309061010090046001600160a01b031681565b34801561091b57600080fd5b5061049661092a3660046146ca565b611a66565b34801561093b57600080fd5b5061049661094a3660046146ca565b611aef565b34801561095b57600080fd5b5061033061096a36600461407e565b610168602052600090815260409020546001600160a01b031681565b34801561099257600080fd5b506104966109a136600461443f565b611b26565b3480156109b257600080fd5b506104966109c136600461443f565b611be1565b3480156109d257600080fd5b506101935461036d9060ff1681565b3480156109ed57600080fd5b5061015f54610330906001600160a01b031681565b61039f610a103660046146ff565b611c63565b60006001600160e01b03198216635a05180f60e01b1480610a3a5750610a3a82611d43565b92915050565b805160209182012060015460408051601960f81b81860152600160f81b602182015260228101929092526042808301939093528051808303909301835260629091019052805191012090565b6000610a9a60fb5460ff1690565b15610ac05760405162461bcd60e51b8152600401610ab790614762565b60405180910390fd5b610ac8611d78565b6001600160a01b0316610ae461012d546001600160a01b031690565b6001600160a01b031614610b0a5760405162461bcd60e51b8152600401610ab79061478c565b6000610b14611d78565b905034600080610b2684898989611d87565b90925090508015610b575761016354610b519085906001600160a01b03168a8a868b878a6000611ff0565b90955092505b8215610b6757610b67848461204f565b505050509392505050565b600080516020614ccb833981519152610b8a81612102565b6001600160a01b038416600090815261016560205260409020548015610f1957600084815261016960205260409020546001600160a01b031680610c055760405162461bcd60e51b8152602060048201526012602482015271125b9d985b1a59081d5cd95c881859d95b9d60721b6044820152606401610ab7565b604080516001808252818301909252600091602080830190803683370190505090508281600081518110610c3b57610c3b6147c1565b60209081029190910101526040805160018082528183019092526000918160200160208202803683370190505090508681600081518110610c7e57610c7e6147c1565b60209081029190910101526040805160018082528183019092526000918160200160208202803683370190505090508381600081518110610cc157610cc16147c1565b6001600160a01b0392909216602092830291909101909101526040805160018082528183019092526000918160200160208202803683370190505090508781600081518110610d1257610d126147c1565b60200260200101906001811115610d2b57610d2b61438e565b90816001811115610d3e57610d3e61438e565b90525061016354600090610d64908c906001600160a01b03168787878760018881611ff0565b506101615461016354604051631d1c6b8360e11b81526001600160a01b03918216600482015260248101849052929350600092911690633a38d7069060440160206040518083038186803b158015610dbb57600080fd5b505afa158015610dcf573d6000803e3d6000fd5b505050506040513d601f19601f82011682018060405250810190610df391906147d7565b905080881115610f11576101615461016354604051632f66c82160e21b81526000926001600160a01b039081169263bd9b208492610e3b9290911690869088906004016147f0565b602060405180830381600087803b158015610e5557600080fd5b505af1158015610e69573d6000803e3d6000fd5b505050506040513d601f19601f82011682018060405250810190610e8d91906147d7565b9050610e99818a614827565b87600081518110610eac57610eac6147c1565b602002602001018181525050600061016560008f6001600160a01b03166001600160a01b0316815260200190815260200160002081905550610f0d8d61016360009054906101000a90046001600160a01b03168989898960018a6000611ff0565b5050505b505050505050505b5050505050565b600082815260976020526040902060010154610f3b81612102565b610f458383612113565b505050565b610f52611d78565b6001600160a01b0316816001600160a01b031614610fca5760405162461bcd60e51b815260206004820152602f60248201527f416363657373436f6e74726f6c3a2063616e206f6e6c792072656e6f756e636560448201526e103937b632b9903337b91039b2b63360891b6064820152608401610ab7565b610fd48282612135565b5050565b600080516020614ccb833981519152610ff081612102565b6101945460405163582712b160e01b81526001600160a01b039091169063582712b1906110279088908890889088906004016148b2565b600060405180830381600087803b15801561104157600080fd5b505af1158015611055573d6000803e3d6000fd5b505050505050505050565b611068611d78565b6001600160a01b031661108461012d546001600160a01b031690565b6001600160a01b0316146110aa5760405162461bcd60e51b8152600401610ab79061478c565b6110b46000612157565b565b600082815260c9602052604081206110ce90836121aa565b9392505050565b60009182526097602090815260408084206001600160a01b0393909316845291905290205460ff1690565b600061110e60fb5460ff1690565b1561112b5760405162461bcd60e51b8152600401610ab790614762565b611133611d78565b6001600160a01b031661114f61012d546001600160a01b031690565b6001600160a01b0316146111755760405162461bcd60e51b8152600401610ab79061478c565b600061117f611d78565b61019354909150349060ff16156112025761019354604051632bcf68bd60e21b81526001600160a01b038481166004830152602482018790526101009092049091169063af3da2f490604401600060405180830381600087803b1580156111e557600080fd5b505af11580156111f9573d6000803e3d6000fd5b5050505061127b565b604080516001600160a01b03848116602483015260448083018890528351808403909101815260649092018352602080830180516001600160e01b0316632bcf68bd60e21b908117909152610192546000818152610169909352948220549394611274949093169190859087836121b6565b9094509150505b801561128b5761128b828261204f565b5050919050565b600061129c611d78565b6001600160a01b03166112b861012d546001600160a01b031690565b6001600160a01b0316146112de5760405162461bcd60e51b8152600401610ab79061478c565b60006112e8611d78565b9050346000805b87518110156113405761131e8489838151811061130e5761130e6147c1565b60200260200101518989876123cb565b9350915061132c82866148fa565b94508061133881614912565b9150506112ef565b50811561135157611351838361204f565b5050509392505050565b6000611365611d78565b6001600160a01b031661138161012d546001600160a01b031690565b6001600160a01b0316146113a75760405162461bcd60e51b8152600401610ab79061478c565b60006113b1611d78565b61019354909150349060ff161561142d5761019354604051637bbef24360e11b81526001600160a01b0384811660048301526101009092049091169063f77de48690602401600060405180830381600087803b15801561141057600080fd5b505af1158015611424573d6000803e3d6000fd5b505050506114a2565b604080516001600160a01b038481166024808401919091528351808403909101815260449092018352602080830180516001600160e01b0316637bbef24360e11b90811790915261019254600081815261016990935294822054939461149b949093169190859087836121b6565b9094509150505b6001600160a01b038216600090815261016560205260408120546114c690866148fa565b6001600160a01b0380851660009081526101656020526040812055610163549192506114f491168483612488565b811561150457611504838361204f565b505050919050565b600080516020614ccb83398151915261152481612102565b61019354604051632bcf68bd60e21b81526001600160a01b038581166004830152602482018590526101009092049091169063af3da2f490604401600060405180830381600087803b15801561157957600080fd5b505af115801561158d573d6000803e3d6000fd5b50505050505050565b60006115a0611d78565b6001600160a01b03166115bc61012d546001600160a01b031690565b6001600160a01b0316146115e25760405162461bcd60e51b8152600401610ab79061478c565b60006115ec611d78565b61019354909150349060ff161561166d576101935460405163e629f7b360e01b81526101009091046001600160a01b03169063e629f7b390611636908590899089906004016147f0565b600060405180830381600087803b15801561165057600080fd5b505af1158015611664573d6000803e3d6000fd5b505050506116fc565b600063e629f7b360e01b83878760405160240161168c939291906147f0565b60408051601f19818403018152918152602080830180516001600160e01b03166001600160e01b031990951694909417909352610192546000818152610169909452908320549193506116f59290916001600160a01b0316908463e629f7b360e01b87836121b6565b9094509150505b801561170c5761170c828261204f565b505092915050565b60008061172085610a40565b90506001600160a01b0386163b1561177c5761177486828787878080601f0160208091040260200160405190810160405280939291908181526020018383808284376000920191909152506124eb92505050565b91505061188b565b60008060006117c087878080601f01602080910402602001604051908101604052809392919081815260200183838082843760009201829052509250612587915050565b6040517f19457468657265756d205369676e6564204d6573736167653a0a3332000000006020820152603c81018890529295509093509150600090605c0160408051601f198184030181528282528051602091820120600080855291840180845281905260ff88169284019290925260608301869052608083018590529092509060019060a0016020604051602081039080840390855afa158015611869573d6000803e3d6000fd5b5050604051601f1901516001600160a01b038d81169116149750505050505050505b949350505050565b600081815260c960205260408120610a3a906125a5565b6118b2611d78565b6001600160a01b03166118ce61012d546001600160a01b031690565b6001600160a01b0316146118f45760405162461bcd60e51b8152600401610ab79061478c565b60006118fe611d78565b6001600160a01b038116600090815261016560205260408120549192509061192690846148fa565b6001600160a01b038084166000908152610165602052604081205561016354919250610f4591168383612488565b600061196260fb5460ff1690565b1561197f5760405162461bcd60e51b8152600401610ab790614762565b611987611d78565b6001600160a01b03166119a361012d546001600160a01b031690565b6001600160a01b0316146119c95760405162461bcd60e51b8152600401610ab79061478c565b60006119d3611d78565b905034600080806119e68a8a8a846125af565b915091505b815115611a24576119fe858389876127c3565b94509250611a0c83876148fa565b9550611a1a8a8a8a846125af565b90925090506119eb565b8315611a3457611a34858561204f565b5050505050949350505050565b600082815260976020526040902060010154611a5c81612102565b610f458383612135565b600080516020614ccb833981519152611a7e81612102565b6101935460405163e629f7b360e01b81526101009091046001600160a01b03169063e629f7b390611ab7908790879087906004016147f0565b600060405180830381600087803b158015611ad157600080fd5b505af1158015611ae5573d6000803e3d6000fd5b5050505050505050565b600080516020614ccb833981519152611b0781612102565b61019454611b20906001600160a01b0316858585612a55565b50505050565b611b2e611d78565b6001600160a01b0316611b4a61012d546001600160a01b031690565b6001600160a01b031614611b705760405162461bcd60e51b8152600401610ab79061478c565b6001600160a01b038116611bd55760405162461bcd60e51b815260206004820152602660248201527f4f776e61626c653a206e6577206f776e657220697320746865207a65726f206160448201526564647265737360d01b6064820152608401610ab7565b611bde81612157565b50565b600080516020614ccb833981519152611bf981612102565b61019354604051637bbef24360e11b81526001600160a01b0384811660048301526101009092049091169063f77de48690602401600060405180830381600087803b158015611c4757600080fd5b505af1158015611c5b573d6000803e3d6000fd5b505050505050565b6000611c6d611d78565b6001600160a01b0316611c8961012d546001600160a01b031690565b6001600160a01b031614611caf5760405162461bcd60e51b8152600401610ab79061478c565b6000611cb9611d78565b9050346000805b8651811015611d2957611d0784888381518110611cdf57611cdf6147c1565b6020026020010151888481518110611cf957611cf96147c1565b602002602001015186612bf4565b93509150611d1582866148fa565b945080611d2181614912565b915050611cc0565b508115611d3a57611d3a838361204f565b50505092915050565b60006001600160e01b03198216637965db0b60e01b1480610a3a57506301ffc9a760e01b6001600160e01b0319831614610a3a565b6000611d82612c93565b905090565b8251606090600090806001600160401b03811115611da757611da7614097565b604051908082528060200260200182016040528015611dd0578160200160208202803683370190505b50925046600080805b84811015611f8e5760008a8281518110611df557611df56147c1565b6020026020010151905060008a8381518110611e1357611e136147c1565b6020026020010151905085811415611e3657611e2f82866148fa565b9450611f79565b828814611ed757818c8981518110611e5057611e506147c1565b602002602001018181525050808b8981518110611e6f57611e6f6147c1565b602002602001018181525050898381518110611e8d57611e8d6147c1565b60200260200101518a8981518110611ea757611ea76147c1565b60200260200101906001811115611ec057611ec061438e565b90816001811115611ed357611ed361438e565b9052505b600081815261016960205260409020546001600160a01b031680611f325760405162461bcd60e51b8152602060048201526012602482015271125b9d985b1a59081d5cd95c881859d95b9d60721b6044820152606401610ab7565b808a8a81518110611f4557611f456147c1565b6001600160a01b039092166020928302919091019091015288611f6781614912565b9950611f75905083866148fa565b9450505b50508080611f8690614912565b915050611dd9565b50611fb38a30611f9e84866148fa565b610163546001600160a01b0316929190612cc7565b6001600160a01b038a166000908152610165602052604081208054849290611fdc9084906148fa565b925050819055505050505094509492505050565b600082816120018a8a8a8a8a612cff565b905083158015612012575080515115155b15612022576120228c8c8361320b565b606081015151156120405761203a8c8c83858861334e565b90935091505b50995099975050505050505050565b604080516000808252602082019092526001600160a01b038416908390604051612079919061492d565b60006040518083038185875af1925050503d80600081146120b6576040519150601f19603f3d011682016040523d82523d6000602084013e6120bb565b606091505b5050905080610f455760405162461bcd60e51b8152602060048201526013602482015272115512081d1c985b9cd9995c8819985a5b1959606a1b6044820152606401610ab7565b611bde8161210e611d78565b613485565b61211d82826134e9565b600082815260c960205260409020610f459082613570565b61213f8282613585565b600082815260c960205260409020610f45908261360a565b61012d80546001600160a01b038381166001600160a01b0319831681179093556040519116919082907f8be0079c531659141344cd1fd0a4f28419497f9722a3daafe3b4186f6b6457e090600090a35050565b60006110ce838361361f565b6000826001600160a01b0388166122085760405162461bcd60e51b8152602060048201526016602482015275125b9d985b1a59081d185c99d95d10dbdb9d1c9858dd60521b6044820152606401610ab7565b60008060008b815261016a602052604090205460ff16600181111561222f5761222f61438e565b1461224657610167546001600160a01b0316612254565b610166546001600160a01b03165b90506000816001600160a01b031663bebc4f718c8c8c8c6040518563ffffffff1660e01b815260040161228a9493929190614949565b60206040518083038186803b1580156122a257600080fd5b505afa1580156122b6573d6000803e3d6000fd5b505050506040513d601f19601f820116820180604052508101906122da91906147d7565b610167549094508491506001600160a01b03838116911614156123385760008b815261016c60209081526040808320546001600160e01b03198b16845261016b9092529091205461232b9190614976565b61233590856148fa565b93505b841580156123465750838310155b156123bd576123558484614827565b9250816001600160a01b03166377cae758828d8d8d8d6040518663ffffffff1660e01b815260040161238a9493929190614949565b6000604051808303818588803b1580156123a357600080fd5b505af11580156123b7573d6000803e3d6000fd5b50505050505b505097509795505050505050565b600081468614156123f457610194546123ef906001600160a01b0316888787612a55565b61247e565b600063e9e81a6a60e01b888787604051602401612413939291906147f0565b60408051601f19818403018152918152602080830180516001600160e01b03166001600160e01b03199095169490941790935260008a81526101699093528220549092506124779189916001600160a01b0316908463117481fb60e21b87836121b6565b9093509150505b9550959350505050565b6040516001600160a01b038316602482015260448101829052610f4590849063a9059cbb60e01b906064015b60408051601f198184030181529190526020810180516001600160e01b03166001600160e01b031990931692909217909152613649565b600080856001600160a01b031663e75235b86040518163ffffffff1660e01b815260040160206040518083038186803b15801561252757600080fd5b505afa15801561253b573d6000803e3d6000fd5b505050506040513d601f19601f8201168201806040525081019061255f91906147d7565b90508061257057600091505061188b565b61257d868686868561371b565b9695505050505050565b60419081029190910160208101516040820151919092015160ff1692565b6000610a3a825490565b6125d360405180606001604052806000815260200160608152602001606081525090565b60008060608082865b8a51811015612650578461260b578a81815181106125fc576125fc6147c1565b60200260200101519450612630565b8a818151811061261d5761261d6147c1565b6020026020010151851461263057612650565b8161263a81614912565b925050808061264890614912565b9150506125dc565b5061265b81886148fa565b9450801561279e57806001600160401b0381111561267b5761267b614097565b6040519080825280602002602001820160405280156126a4578160200160208202803683370190505b509250806001600160401b038111156126bf576126bf614097565b6040519080825280602002602001820160405280156126e8578160200160208202803683370190505b50915060009050865b8581101561279c5789818151811061270b5761270b6147c1565b6020026020010151848381518110612725576127256147c1565b60200260200101906001600160a01b031690816001600160a01b031681525050888181518110612757576127576147c1565b6020026020010151838381518110612771576127716147c1565b60209081029190910101528161278681614912565b925050808061279490614912565b9150506126f1565b505b5060408051606081018252938452602084019290925290820152969095509350505050565b60008146855114156129b5576001600160a01b0386166000908152610165602052604081205490805b876040015151811015612836578760400151818151811061280f5761280f6147c1565b60200260200101518261282291906148fa565b91508061282e81614912565b9150506127ec565b50610163546040805163313ce56760e01b815290516006926001600160a01b03169163313ce567916004808301926020929190829003018186803b15801561287d57600080fd5b505afa158015612891573d6000803e3d6000fd5b505050506040513d601f19601f820116820180604052508101906128b59190614995565b6128bf91906149b8565b6128ca90600a614abf565b6128d49082614976565b90508082101561291d5760405162461bcd60e51b8152602060048201526014602482015273496e73756666696369656e742062616c616e636560601b6044820152606401610ab7565b6129278183614827565b6001600160a01b03808a16600090815261016560209081526040918290209390935561019454928a01518a820151915163582712b160e01b8152939092169263582712b19261297c928d928c906004016148b2565b600060405180830381600087803b15801561299657600080fd5b505af11580156129aa573d6000803e3d6000fd5b505050505050612a4c565b600063582712b160e01b8787602001518860400151886040516024016129de94939291906148b2565b60408051601f19818403018152918152602080830180516001600160e01b03166001600160e01b0319909516949094179093528851600081815261016990945290832054919350612a459290916001600160a01b031690846372f0cbbb60e11b87836121b6565b9093509150505b94509492505050565b610163546040516370a0823160e01b81523060048201526000916001600160a01b0316906370a082319060240160206040518083038186803b158015612a9a57600080fd5b505afa158015612aae573d6000803e3d6000fd5b505050506040513d601f19601f82011682018060405250810190612ad291906147d7565b6040516374f40d3560e11b81529091506001600160a01b0386169063e9e81a6a90612b05908790879087906004016147f0565b600060405180830381600087803b158015612b1f57600080fd5b505af1158015612b33573d6000803e3d6000fd5b5050610163546040516370a0823160e01b81523060048201528493506001600160a01b0390911691506370a082319060240160206040518083038186803b158015612b7d57600080fd5b505afa158015612b91573d6000803e3d6000fd5b505050506040513d601f19601f82011682018060405250810190612bb591906147d7565b612bbf9190614827565b6001600160a01b0385166000908152610165602052604081208054909190612be89084906148fa565b90915550505050505050565b60008146858114612c895760006328054fb760e01b888388604051602401612c1e93929190614ace565b60408051601f19818403018152918152602080830180516001600160e01b03166001600160e01b03199095169490941790935260008a8152610169909352822054909250612c829189916001600160a01b031690846328054fb760e01b88836121b6565b9094509250505b5094509492505050565b600060183610801590612cb057506000546001600160a01b031633145b15612cc2575060131936013560601c90565b503390565b6040516001600160a01b0380851660248301528316604482015260648101829052611b209085906323b872dd60e01b906084016124b4565b612d386040518060c001604052806060815260200160608152602001606081526020016060815260200160608152602001606081525090565b60008060005b84811015612dde576000868281518110612d5a57612d5a6147c1565b60200260200101516001811115612d7357612d7361438e565b1415612d8b5782612d8381614912565b935050612dcc565b6001868281518110612d9f57612d9f6147c1565b60200260200101516001811115612db857612db861438e565b1415612dcc5781612dc881614912565b9250505b80612dd681614912565b915050612d3e565b506040518060c00160405280836001600160401b03811115612e0257612e02614097565b604051908082528060200260200182016040528015612e2b578160200160208202803683370190505b508152602001836001600160401b03811115612e4957612e49614097565b604051908082528060200260200182016040528015612e72578160200160208202803683370190505b508152602001836001600160401b03811115612e9057612e90614097565b604051908082528060200260200182016040528015612eb9578160200160208202803683370190505b508152602001826001600160401b03811115612ed757612ed7614097565b604051908082528060200260200182016040528015612f00578160200160208202803683370190505b508152602001826001600160401b03811115612f1e57612f1e614097565b604051908082528060200260200182016040528015612f47578160200160208202803683370190505b508152602001826001600160401b03811115612f6557612f65614097565b604051908082528060200260200182016040528015612f8e578160200160208202803683370190505b509052925060009150819050805b848110156131ff576000868281518110612fb857612fb86147c1565b60200260200101516001811115612fd157612fd161438e565b14156130a957888181518110612fe957612fe96147c1565b602002602001015184600001518481518110613007576130076147c1565b602002602001018181525050878181518110613025576130256147c1565b602002602001015184602001518481518110613043576130436147c1565b602002602001018181525050868181518110613061576130616147c1565b60200260200101518460400151848151811061307f5761307f6147c1565b6001600160a01b0390921660209283029190910190910152826130a181614912565b9350506131ed565b60018682815181106130bd576130bd6147c1565b602002602001015160018111156130d6576130d661438e565b14156131ae578881815181106130ee576130ee6147c1565b60200260200101518460600151838151811061310c5761310c6147c1565b60200260200101818152505087818151811061312a5761312a6147c1565b602002602001015184608001518381518110613148576131486147c1565b602002602001018181525050868181518110613166576131666147c1565b60200260200101518460a001518381518110613184576131846147c1565b6001600160a01b0390921660209283029190910190910152816131a681614912565b9250506131ed565b60405162461bcd60e51b8152602060048201526014602482015273496e76616c69642061646170746572207479706560601b6044820152606401610ab7565b806131f781614912565b915050612f9c565b50505095945050505050565b80518051610166546020840151604080860151905163219d5ca560e01b815293946001600160a01b039093169363219d5ca5936132519389939192909190600401614af2565b600060405180830381600087803b15801561326b57600080fd5b505af115801561327f573d6000803e3d6000fd5b50505050600061328c4690565b905060005b82811015611c5b57836020015181815181106132af576132af6147c1565b6020026020010151846000015182815181106132cd576132cd6147c1565b6020026020010151876001600160a01b03167f3ba03e6b4cb24f75ab77e3b8fb7ea0a24af301c15f5fb5709dd68c3960488815888689604001518781518110613318576133186147c1565b6020026020010151600080604051613334959493929190614b3c565b60405180910390a48061334681614912565b915050613291565b6060830151516101675460408051633b11ca5160e01b8152905160009386939092859284926001600160a01b031691633b11ca51916004808301926020929190829003018186803b1580156133a257600080fd5b505afa1580156133b6573d6000803e3d6000fd5b505050506040513d601f19601f820116820180604052508101906133da91906147d7565b6133e49190614976565b46600090815261016c602090815260408220546305e5a4c160e11b90925261016b90527f2d70e6734fd5e0405ac12bd06c0e35dc8bbf9b8fc8cb72137e2af4c27ee117015491925083916134389190614976565b6134429190614976565b61344c90826148fa565b93508415801561345c5750838310155b156134795761346b8484614827565b925061347989898984613977565b50509550959350505050565b61348f82826110d5565b610fd4576134a7816001600160a01b03166014613b7a565b6134b2836020613b7a565b6040516020016134c3929190614b78565b60408051601f198184030181529082905262461bcd60e51b8252610ab79160040161442c565b6134f382826110d5565b610fd45760008281526097602090815260408083206001600160a01b03851684529091529020805460ff1916600117905561352c611d78565b6001600160a01b0316816001600160a01b0316837f2f8788117e7eff1d82e926ec794901d17c78024a50270940304540a733656f0d60405160405180910390a45050565b60006110ce836001600160a01b038416613d15565b61358f82826110d5565b15610fd45760008281526097602090815260408083206001600160a01b03851684529091529020805460ff191690556135c6611d78565b6001600160a01b0316816001600160a01b0316837ff6391f5c32d9c69d2a47ea670b442974b53935d1edc7fd64eb21e047a839171b60405160405180910390a45050565b60006110ce836001600160a01b038416613d64565b6000826000018281548110613636576136366147c1565b9060005260206000200154905092915050565b600061369e826040518060400160405280602081526020017f5361666545524332303a206c6f772d6c6576656c2063616c6c206661696c6564815250856001600160a01b0316613e579092919063ffffffff16565b805190915015610f4557808060200190518101906136bc9190614bed565b610f455760405162461bcd60e51b815260206004820152602a60248201527f5361666545524332303a204552433230206f7065726174696f6e20646964206e6044820152691bdd081cdd58d8d9595960b21b6064820152608401610ab7565b6000613728826041614976565b835110156137385750600061396e565b600080876001600160a01b031663a0e67e2b6040518163ffffffff1660e01b815260040160006040518083038186803b15801561377457600080fd5b505afa158015613788573d6000803e3d6000fd5b505050506040513d6000823e601f3d908101601f191682016040526137b09190810190614c0f565b905060008080805b878110156139635760418181028a0160208101516040820151919092015160ff1695509093509150836138935791945084916137f5886041614976565b82101561380b576000965050505050505061396e565b88516138188360206148fa565b111561382d576000965050505050505061396e565b6020828a018101518a51909182906138469086906148fa565b61385091906148fa565b111561386657600097505050505050505061396e565b898301602001613877888d83613e66565b61388c5760009850505050505050505061396e565b5050613934565b6040517f19457468657265756d205369676e6564204d6573736167653a0a3332000000006020820152603c81018c9052600190605c0160408051601f198184030181528282528051602091820120600084529083018083525260ff871690820152606081018590526080810184905260a0016020604051602081039080840390855afa158015613927573d6000803e3d6000fd5b5050506020604051035195505b61393e8587613e80565b613951576000965050505050505061396e565b8061395b81614912565b9150506137b8565b600196505050505050505b95945050505050565b610167546040805163057ff68760e51b815290516000926001600160a01b03169163affed0e0916004808301926020929190829003018186803b1580156139bd57600080fd5b505afa1580156139d1573d6000803e3d6000fd5b505050506040513d601f19601f820116820180604052508101906139f591906147d7565b610167546060850151608086015160a087015160405163219d5ca560e01b81529495506001600160a01b039093169363219d5ca5938793613a3e938b9391929091600401614af2565b6000604051808303818588803b158015613a5757600080fd5b505af1158015613a6b573d6000803e3d6000fd5b50505050506000613a794690565b905060005b84606001515181101561158d576000613a9782856148fa565b60008181526101686020526040902080546001600160a01b0319166001600160a01b038b16179055608087015180519192509083908110613ada57613ada6147c1565b602002602001015186606001518381518110613af857613af86147c1565b6020026020010151896001600160a01b03167f3ba03e6b4cb24f75ab77e3b8fb7ea0a24af301c15f5fb5709dd68c39604888158a878b60a001518881518110613b4357613b436147c1565b6020026020010151600188604051613b5f959493929190614b3c565b60405180910390a45080613b7281614912565b915050613a7e565b60606000613b89836002614976565b613b949060026148fa565b6001600160401b03811115613bab57613bab614097565b6040519080825280601f01601f191660200182016040528015613bd5576020820181803683370190505b509050600360fc1b81600081518110613bf057613bf06147c1565b60200101906001600160f81b031916908160001a905350600f60fb1b81600181518110613c1f57613c1f6147c1565b60200101906001600160f81b031916908160001a9053506000613c43846002614976565b613c4e9060016148fa565b90505b6001811115613cc6576f181899199a1a9b1b9c1cb0b131b232b360811b85600f1660108110613c8257613c826147c1565b1a60f81b828281518110613c9857613c986147c1565b60200101906001600160f81b031916908160001a90535060049490941c93613cbf81614c9d565b9050613c51565b5083156110ce5760405162461bcd60e51b815260206004820181905260248201527f537472696e67733a20686578206c656e67746820696e73756666696369656e746044820152606401610ab7565b6000818152600183016020526040812054613d5c57508154600181810184556000848152602080822090930184905584548482528286019093526040902091909155610a3a565b506000610a3a565b60008181526001830160205260408120548015613e4d576000613d88600183614827565b8554909150600090613d9c90600190614827565b9050818114613e01576000866000018281548110613dbc57613dbc6147c1565b9060005260206000200154905080876000018481548110613ddf57613ddf6147c1565b6000918252602080832090910192909255918252600188019052604090208390555b8554869080613e1257613e12614cb4565b600190038181906000526020600020016000905590558560010160008681526020019081526020016000206000905560019350505050610a3a565b6000915050610a3a565b606061188b8484600085613eea565b600080613e7284610a40565b905061396e858286866124eb565b8151600090815b81811015613edf57836001600160a01b0316858281518110613eab57613eab6147c1565b60200260200101516001600160a01b03161415613ecd57600192505050610a3a565b80613ed781614912565b915050613e87565b506000949350505050565b606082471015613f4b5760405162461bcd60e51b815260206004820152602660248201527f416464726573733a20696e73756666696369656e742062616c616e636520666f6044820152651c8818d85b1b60d21b6064820152608401610ab7565b6001600160a01b0385163b613fa25760405162461bcd60e51b815260206004820152601d60248201527f416464726573733a2063616c6c20746f206e6f6e2d636f6e74726163740000006044820152606401610ab7565b600080866001600160a01b03168587604051613fbe919061492d565b60006040518083038185875af1925050503d8060008114613ffb576040519150601f19603f3d011682016040523d82523d6000602084013e614000565b606091505b509150915061401082828661401b565b979650505050505050565b6060831561402a5750816110ce565b82511561403a5782518084602001fd5b8160405162461bcd60e51b8152600401610ab7919061442c565b60006020828403121561406657600080fd5b81356001600160e01b0319811681146110ce57600080fd5b60006020828403121561409057600080fd5b5035919050565b634e487b7160e01b600052604160045260246000fd5b604051601f8201601f191681016001600160401b03811182821017156140d5576140d5614097565b604052919050565b600082601f8301126140ee57600080fd5b81356001600160401b0381111561410757614107614097565b61411a601f8201601f19166020016140ad565b81815284602083860101111561412f57600080fd5b816020850160208301376000918101602001919091529392505050565b60006020828403121561415e57600080fd5b81356001600160401b0381111561417457600080fd5b61188b848285016140dd565b60006001600160401b0382111561419957614199614097565b5060051b60200190565b600082601f8301126141b457600080fd5b813560206141c96141c483614180565b6140ad565b82815260059290921b840181019181810190868411156141e857600080fd5b8286015b8481101561420357803583529183019183016141ec565b509695505050505050565b80356002811061421d57600080fd5b919050565b600082601f83011261423357600080fd5b813560206142436141c483614180565b82815260059290921b8401810191818101908684111561426257600080fd5b8286015b84811015614203576142778161420e565b8352918301918301614266565b60008060006060848603121561429957600080fd5b83356001600160401b03808211156142b057600080fd5b6142bc878388016141a3565b945060208601359150808211156142d257600080fd5b6142de878388016141a3565b935060408601359150808211156142f457600080fd5b5061430186828701614222565b9150509250925092565b6001600160a01b0381168114611bde57600080fd5b60008060006060848603121561433557600080fd5b83356143408161430b565b9250602084013591506143556040850161420e565b90509250925092565b6000806040838503121561437157600080fd5b8235915060208301356143838161430b565b809150509250929050565b634e487b7160e01b600052602160045260246000fd5b600281106143c257634e487b7160e01b600052602160045260246000fd5b9052565b60208101610a3a82846143a4565b60005b838110156143ef5781810151838201526020016143d7565b83811115611b205750506000910152565b600081518084526144188160208601602086016143d4565b601f01601f19169290920160200192915050565b6020815260006110ce6020830184614400565b60006020828403121561445157600080fd5b81356110ce8161430b565b600082601f83011261446d57600080fd5b8135602061447d6141c483614180565b82815260059290921b8401810191818101908684111561449c57600080fd5b8286015b848110156142035780356144b38161430b565b83529183019183016144a0565b600080600080608085870312156144d657600080fd5b84356144e18161430b565b935060208501356001600160401b03808211156144fd57600080fd5b6145098883890161445c565b9450604087013591508082111561451f57600080fd5b5061452c878288016141a3565b949793965093946060013593505050565b6000806040838503121561455057600080fd5b50508035926020909101359150565b60008060006060848603121561457457600080fd5b83356001600160401b0381111561458a57600080fd5b614596868287016141a3565b9660208601359650604090950135949350505050565b600080604083850312156145bf57600080fd5b82356145ca8161430b565b946020939093013593505050565b600080600080606085870312156145ee57600080fd5b84356145f98161430b565b935060208501356001600160401b038082111561461557600080fd5b614621888389016140dd565b9450604087013591508082111561463757600080fd5b818701915087601f83011261464b57600080fd5b81358181111561465a57600080fd5b88602082850101111561466c57600080fd5b95989497505060200194505050565b6000806000806080858703121561469157600080fd5b84356001600160401b03808211156146a857600080fd5b6146b4888389016141a3565b955060208701359150808211156144fd57600080fd5b6000806000606084860312156146df57600080fd5b83356146ea8161430b565b95602085013595506040909401359392505050565b6000806040838503121561471257600080fd5b82356001600160401b038082111561472957600080fd5b614735868387016141a3565b9350602085013591508082111561474b57600080fd5b5061475885828601614222565b9150509250929050565b60208082526010908201526f14185d5cd8589b194e881c185d5cd95960821b604082015260600190565b6020808252818101527f4f776e61626c653a2063616c6c6572206973206e6f7420746865206f776e6572604082015260600190565b634e487b7160e01b600052603260045260246000fd5b6000602082840312156147e957600080fd5b5051919050565b6001600160a01b039390931683526020830191909152604082015260600190565b634e487b7160e01b600052601160045260246000fd5b60008282101561483957614839614811565b500390565b600081518084526020808501945080840160005b838110156148775781516001600160a01b031687529582019590820190600101614852565b509495945050505050565b600081518084526020808501945080840160005b8381101561487757815187529582019590820190600101614896565b6001600160a01b03851681526080602082018190526000906148d69083018661483e565b82810360408401526148e88186614882565b91505082606083015295945050505050565b6000821982111561490d5761490d614811565b500190565b600060001982141561492657614926614811565b5060010190565b6000825161493f8184602087016143d4565b9190910192915050565b84815260018060a01b038416602082015282604082015260806060820152600061257d6080830184614400565b600081600019048311821515161561499057614990614811565b500290565b6000602082840312156149a757600080fd5b815160ff811681146110ce57600080fd5b600060ff821660ff8416808210156149d2576149d2614811565b90039392505050565b600181815b80851115614a165781600019048211156149fc576149fc614811565b80851615614a0957918102915b93841c93908002906149e0565b509250929050565b600082614a2d57506001610a3a565b81614a3a57506000610a3a565b8160018114614a505760028114614a5a57614a76565b6001915050610a3a565b60ff841115614a6b57614a6b614811565b50506001821b610a3a565b5060208310610133831016604e8410600b8410161715614a99575081810a610a3a565b614aa383836149db565b8060001904821115614ab757614ab7614811565b029392505050565b60006110ce60ff841683614a1e565b6001600160a01b0384168152602081018390526060810161188b60408301846143a4565b6001600160a01b0385168152608060208201819052600090614b1690830186614882565b8281036040840152614b288186614882565b90508281036060840152614010818561483e565b6001600160a01b038681168252602082018690528416604082015260a08101614b6860608301856143a4565b8260808301529695505050505050565b7f416363657373436f6e74726f6c3a206163636f756e7420000000000000000000815260008351614bb08160178501602088016143d4565b7001034b99036b4b9b9b4b733903937b6329607d1b6017918401918201528351614be18160288401602088016143d4565b01602801949350505050565b600060208284031215614bff57600080fd5b815180151581146110ce57600080fd5b60006020808385031215614c2257600080fd5b82516001600160401b03811115614c3857600080fd5b8301601f81018513614c4957600080fd5b8051614c576141c482614180565b81815260059190911b82018301908381019087831115614c7657600080fd5b928401925b82841015614010578351614c8e8161430b565b82529284019290840190614c7b565b600081614cac57614cac614811565b506000190190565b634e487b7160e01b600052603160045260246000fdfedbeb657137b1822b3d5418bea6fd641226d964b4c3871ef23546db2622258871a2646970667358221220fe4f6a17cdb577a51a8beff72d2e62f6c7bb123148a610444f3104182b4d111e64736f6c63430008090033",
  "devdoc": {
    "kind": "dev",
    "methods": {
      "burn(uint256,uint256)": {
        "details": "It calls burnByAdmin of BNIMinter.",
        "params": {
          "_pool": "total pool in USD",
          "_share": "amount of shares"
        }
      },
      "deposit(uint256[],address[],uint256[],uint256)": {
        "details": "It calls depositByAgent of BNIVaults."
      },
      "exitWithdrawal(uint256)": {
        "details": "It calls exitWithdrawalByAdmin of BNIMinter.",
        "params": {
          "_gatheredAmount": "is the amount of token that is gathered."
        }
      },
      "gather(uint256[],uint8[])": {
        "details": "It gathers withdrawn tokens of the user from user agents."
      },
      "getMessageHashForSafe(bytes)": {
        "details": "Returns hash of a message that can be signed by owners.",
        "params": {
          "message": "Message that should be hashed"
        },
        "returns": {
          "_0": "Message hash."
        }
      },
      "getRoleAdmin(bytes32)": {
        "details": "Returns the admin role that controls `role`. See {grantRole} and {revokeRole}. To change a role's admin, use {_setRoleAdmin}."
      },
      "getRoleMember(bytes32,uint256)": {
        "details": "Returns one of the accounts that have `role`. `index` must be a value between 0 and {getRoleMemberCount}, non-inclusive. Role bearers are not sorted in any particular way, and their ordering may change at any point. WARNING: When using {getRoleMember} and {getRoleMemberCount}, make sure you perform all queries on the same block. See the following https://forum.openzeppelin.com/t/iterating-over-elements-on-enumerableset-in-openzeppelin-contracts/2296[forum post] for more information."
      },
      "getRoleMemberCount(bytes32)": {
        "details": "Returns the number of accounts that have `role`. Can be used together with {getRoleMember} to enumerate all bearers of a role."
      },
      "grantRole(bytes32,address)": {
        "details": "Grants `role` to `account`. If `account` had not been already granted `role`, emits a {RoleGranted} event. Requirements: - the caller must have ``role``'s admin role."
      },
      "hasRole(bytes32,address)": {
        "details": "Returns `true` if `account` has been granted `role`."
      },
      "mint(uint256)": {
        "details": "It calls mintByAdmin of BNIMinter."
      },
      "owner()": {
        "details": "Returns the address of the current owner."
      },
      "paused()": {
        "details": "Returns true if the contract is paused, and false otherwise."
      },
      "renounceOwnership()": {
        "details": "Leaves the contract without owner. It will not be possible to call `onlyOwner` functions anymore. Can only be called by the current owner. NOTE: Renouncing ownership will leave the contract without an owner, thereby removing any functionality that is only available to the owner."
      },
      "renounceRole(bytes32,address)": {
        "details": "Revokes `role` from the calling account. Roles are often managed via {grantRole} and {revokeRole}: this function's purpose is to provide a mechanism for accounts to lose their privileges if they are compromised (such as when a trusted device is misplaced). If the calling account had been revoked `role`, emits a {RoleRevoked} event. Requirements: - the caller must be `account`."
      },
      "revokeRole(bytes32,address)": {
        "details": "Revokes `role` from `account`. If `account` had been granted `role`, emits a {RoleRevoked} event. Requirements: - the caller must have ``role``'s admin role."
      },
      "supportsInterface(bytes4)": {
        "details": "See {IERC165-supportsInterface}."
      },
      "takeOut(uint256)": {
        "details": "It takes out tokens from this agent.",
        "params": {
          "_gatheredAmount": "is the amount of token that is gathered."
        }
      },
      "transfer(uint256[],uint256[],uint8[])": {
        "details": "It transfers tokens to user agents"
      },
      "transferOwnership(address)": {
        "details": "Transfers ownership of the contract to a new account (`newOwner`). Can only be called by the current owner."
      },
      "withdraw(uint256[],uint256,uint256)": {
        "details": "It calls withdrawPercByAgent of BNIVaults."
      }
    },
    "version": 1
  },
  "userdoc": {
    "kind": "user",
    "methods": {
      "exitWithdrawal(uint256)": {
        "notice": "_gatheredAmount doesn't include the balance which is withdrawan in this agent."
      },
      "isTrustedForwarder(address)": {
        "notice": "return if the forwarder is trusted to forward relayed transactions to us. the forwarder is required to verify the sender's signature, and verify the call is not a replay."
      },
      "takeOut(uint256)": {
        "notice": "_gatheredAmount doesn't include the balance which is withdrawan in this agent."
      }
    },
    "version": 1
  },
  "storageLayout": {
    "storage": [
      {
        "astId": 69824,
        "contract": "contracts/xchain/agent/test/UserAgentSubTest.sol:UserAgentSubTest",
        "label": "trustedForwarder",
        "offset": 0,
        "slot": "0",
        "type": "t_address"
      },
      {
        "astId": 713,
        "contract": "contracts/xchain/agent/test/UserAgentSubTest.sol:UserAgentSubTest",
        "label": "_initialized",
        "offset": 20,
        "slot": "0",
        "type": "t_uint8"
      },
      {
        "astId": 716,
        "contract": "contracts/xchain/agent/test/UserAgentSubTest.sol:UserAgentSubTest",
        "label": "_initializing",
        "offset": 21,
        "slot": "0",
        "type": "t_bool"
      },
      {
        "astId": 70364,
        "contract": "contracts/xchain/agent/test/UserAgentSubTest.sol:UserAgentSubTest",
        "label": "separator",
        "offset": 0,
        "slot": "1",
        "type": "t_bytes32"
      },
      {
        "astId": 70781,
        "contract": "contracts/xchain/agent/test/UserAgentSubTest.sol:UserAgentSubTest",
        "label": "__gap",
        "offset": 0,
        "slot": "2",
        "type": "t_array(t_uint256)49_storage"
      },
      {
        "astId": 3292,
        "contract": "contracts/xchain/agent/test/UserAgentSubTest.sol:UserAgentSubTest",
        "label": "__gap",
        "offset": 0,
        "slot": "51",
        "type": "t_array(t_uint256)50_storage"
      },
      {
        "astId": 3946,
        "contract": "contracts/xchain/agent/test/UserAgentSubTest.sol:UserAgentSubTest",
        "label": "__gap",
        "offset": 0,
        "slot": "101",
        "type": "t_array(t_uint256)50_storage"
      },
      {
        "astId": 184,
        "contract": "contracts/xchain/agent/test/UserAgentSubTest.sol:UserAgentSubTest",
        "label": "_roles",
        "offset": 0,
        "slot": "151",
        "type": "t_mapping(t_bytes32,t_struct(RoleData)179_storage)"
      },
      {
        "astId": 483,
        "contract": "contracts/xchain/agent/test/UserAgentSubTest.sol:UserAgentSubTest",
        "label": "__gap",
        "offset": 0,
        "slot": "152",
        "type": "t_array(t_uint256)49_storage"
      },
      {
        "astId": 33,
        "contract": "contracts/xchain/agent/test/UserAgentSubTest.sol:UserAgentSubTest",
        "label": "_roleMembers",
        "offset": 0,
        "slot": "201",
        "type": "t_mapping(t_bytes32,t_struct(AddressSet)4359_storage)"
      },
      {
        "astId": 143,
        "contract": "contracts/xchain/agent/test/UserAgentSubTest.sol:UserAgentSubTest",
        "label": "__gap",
        "offset": 0,
        "slot": "202",
        "type": "t_array(t_uint256)49_storage"
      },
      {
        "astId": 869,
        "contract": "contracts/xchain/agent/test/UserAgentSubTest.sol:UserAgentSubTest",
        "label": "_paused",
        "offset": 0,
        "slot": "251",
        "type": "t_bool"
      },
      {
        "astId": 958,
        "contract": "contracts/xchain/agent/test/UserAgentSubTest.sol:UserAgentSubTest",
        "label": "__gap",
        "offset": 0,
        "slot": "252",
        "type": "t_array(t_uint256)49_storage"
      },
      {
        "astId": 593,
        "contract": "contracts/xchain/agent/test/UserAgentSubTest.sol:UserAgentSubTest",
        "label": "_owner",
        "offset": 0,
        "slot": "301",
        "type": "t_address"
      },
      {
        "astId": 705,
        "contract": "contracts/xchain/agent/test/UserAgentSubTest.sol:UserAgentSubTest",
        "label": "__gap",
        "offset": 0,
        "slot": "302",
        "type": "t_array(t_uint256)49_storage"
      },
      {
        "astId": 60170,
        "contract": "contracts/xchain/agent/test/UserAgentSubTest.sol:UserAgentSubTest",
        "label": "admin",
        "offset": 0,
        "slot": "351",
        "type": "t_address"
      },
      {
        "astId": 60174,
        "contract": "contracts/xchain/agent/test/UserAgentSubTest.sol:UserAgentSubTest",
        "label": "nonces",
        "offset": 0,
        "slot": "352",
        "type": "t_mapping(t_address,t_uint256)"
      },
      {
        "astId": 60177,
        "contract": "contracts/xchain/agent/test/UserAgentSubTest.sol:UserAgentSubTest",
        "label": "swap",
        "offset": 0,
        "slot": "353",
        "type": "t_contract(ISwap)56041"
      },
      {
        "astId": 60180,
        "contract": "contracts/xchain/agent/test/UserAgentSubTest.sol:UserAgentSubTest",
        "label": "USDC",
        "offset": 0,
        "slot": "354",
        "type": "t_contract(IERC20Upgradeable)1707"
      },
      {
        "astId": 60183,
        "contract": "contracts/xchain/agent/test/UserAgentSubTest.sol:UserAgentSubTest",
        "label": "USDT",
        "offset": 0,
        "slot": "355",
        "type": "t_contract(IERC20Upgradeable)1707"
      },
      {
        "astId": 60187,
        "contract": "contracts/xchain/agent/test/UserAgentSubTest.sol:UserAgentSubTest",
        "label": "usdcBalances",
        "offset": 0,
        "slot": "356",
        "type": "t_mapping(t_address,t_uint256)"
      },
      {
        "astId": 60191,
        "contract": "contracts/xchain/agent/test/UserAgentSubTest.sol:UserAgentSubTest",
        "label": "usdtBalances",
        "offset": 0,
        "slot": "357",
        "type": "t_mapping(t_address,t_uint256)"
      },
      {
        "astId": 60194,
        "contract": "contracts/xchain/agent/test/UserAgentSubTest.sol:UserAgentSubTest",
        "label": "multichainAdapter",
        "offset": 0,
        "slot": "358",
        "type": "t_contract(IXChainAdapter)56366"
      },
      {
        "astId": 60197,
        "contract": "contracts/xchain/agent/test/UserAgentSubTest.sol:UserAgentSubTest",
        "label": "cbridgeAdapter",
        "offset": 0,
        "slot": "359",
        "type": "t_contract(IXChainAdapter)56366"
      },
      {
        "astId": 60201,
        "contract": "contracts/xchain/agent/test/UserAgentSubTest.sol:UserAgentSubTest",
        "label": "cbridgeSenders",
        "offset": 0,
        "slot": "360",
        "type": "t_mapping(t_uint256,t_address)"
      },
      {
        "astId": 60205,
        "contract": "contracts/xchain/agent/test/UserAgentSubTest.sol:UserAgentSubTest",
        "label": "userAgents",
        "offset": 0,
        "slot": "361",
        "type": "t_mapping(t_uint256,t_address)"
      },
      {
        "astId": 60210,
        "contract": "contracts/xchain/agent/test/UserAgentSubTest.sol:UserAgentSubTest",
        "label": "callAdapterTypes",
        "offset": 0,
        "slot": "362",
        "type": "t_mapping(t_uint256,t_enum(AdapterType)60144)"
      },
      {
        "astId": 60214,
        "contract": "contracts/xchain/agent/test/UserAgentSubTest.sol:UserAgentSubTest",
        "label": "gasAmounts",
        "offset": 0,
        "slot": "363",
        "type": "t_mapping(t_bytes4,t_uint256)"
      },
      {
        "astId": 60218,
        "contract": "contracts/xchain/agent/test/UserAgentSubTest.sol:UserAgentSubTest",
        "label": "gasCosts",
        "offset": 0,
        "slot": "364",
        "type": "t_mapping(t_uint256,t_uint256)"
      },
      {
        "astId": 60220,
        "contract": "contracts/xchain/agent/test/UserAgentSubTest.sol:UserAgentSubTest",
        "label": "treasuryWallet",
        "offset": 0,
        "slot": "365",
        "type": "t_address"
      },
      {
        "astId": 60913,
        "contract": "contracts/xchain/agent/test/UserAgentSubTest.sol:UserAgentSubTest",
        "label": "__gap",
        "offset": 0,
        "slot": "366",
        "type": "t_array(t_uint256)36_storage"
      },
      {
        "astId": 57154,
        "contract": "contracts/xchain/agent/test/UserAgentSubTest.sol:UserAgentSubTest",
        "label": "chainIdOnLP",
        "offset": 0,
        "slot": "402",
        "type": "t_uint256"
      },
      {
        "astId": 57156,
        "contract": "contracts/xchain/agent/test/UserAgentSubTest.sol:UserAgentSubTest",
        "label": "isLPChain",
        "offset": 0,
        "slot": "403",
        "type": "t_bool"
      },
      {
        "astId": 57159,
        "contract": "contracts/xchain/agent/test/UserAgentSubTest.sol:UserAgentSubTest",
        "label": "bniMinter",
        "offset": 1,
        "slot": "403",
        "type": "t_contract(IBNIMinter)10340"
      },
      {
        "astId": 57162,
        "contract": "contracts/xchain/agent/test/UserAgentSubTest.sol:UserAgentSubTest",
        "label": "bniVault",
        "offset": 0,
        "slot": "404",
        "type": "t_contract(IBNIVault)10387"
      },
      {
        "astId": 57164,
        "contract": "contracts/xchain/agent/test/UserAgentSubTest.sol:UserAgentSubTest",
        "label": "subImpl",
        "offset": 0,
        "slot": "405",
        "type": "t_address"
      }
    ],
    "types": {
      "t_address": {
        "encoding": "inplace",
        "label": "address",
        "numberOfBytes": "20"
      },
      "t_array(t_bytes32)dyn_storage": {
        "base": "t_bytes32",
        "encoding": "dynamic_array",
        "label": "bytes32[]",
        "numberOfBytes": "32"
      },
      "t_array(t_uint256)36_storage": {
        "base": "t_uint256",
        "encoding": "inplace",
        "label": "uint256[36]",
        "numberOfBytes": "1152"
      },
      "t_array(t_uint256)49_storage": {
        "base": "t_uint256",
        "encoding": "inplace",
        "label": "uint256[49]",
        "numberOfBytes": "1568"
      },
      "t_array(t_uint256)50_storage": {
        "base": "t_uint256",
        "encoding": "inplace",
        "label": "uint256[50]",
        "numberOfBytes": "1600"
      },
      "t_bool": {
        "encoding": "inplace",
        "label": "bool",
        "numberOfBytes": "1"
      },
      "t_bytes32": {
        "encoding": "inplace",
        "label": "bytes32",
        "numberOfBytes": "32"
      },
      "t_bytes4": {
        "encoding": "inplace",
        "label": "bytes4",
        "numberOfBytes": "4"
      },
      "t_contract(IBNIMinter)10340": {
        "encoding": "inplace",
        "label": "contract IBNIMinter",
        "numberOfBytes": "20"
      },
      "t_contract(IBNIVault)10387": {
        "encoding": "inplace",
        "label": "contract IBNIVault",
        "numberOfBytes": "20"
      },
      "t_contract(IERC20Upgradeable)1707": {
        "encoding": "inplace",
        "label": "contract IERC20Upgradeable",
        "numberOfBytes": "20"
      },
      "t_contract(ISwap)56041": {
        "encoding": "inplace",
        "label": "contract ISwap",
        "numberOfBytes": "20"
      },
      "t_contract(IXChainAdapter)56366": {
        "encoding": "inplace",
        "label": "contract IXChainAdapter",
        "numberOfBytes": "20"
      },
      "t_enum(AdapterType)60144": {
        "encoding": "inplace",
        "label": "enum BasicUserAgentBase.AdapterType",
        "numberOfBytes": "1"
      },
      "t_mapping(t_address,t_bool)": {
        "encoding": "mapping",
        "key": "t_address",
        "label": "mapping(address => bool)",
        "numberOfBytes": "32",
        "value": "t_bool"
      },
      "t_mapping(t_address,t_uint256)": {
        "encoding": "mapping",
        "key": "t_address",
        "label": "mapping(address => uint256)",
        "numberOfBytes": "32",
        "value": "t_uint256"
      },
      "t_mapping(t_bytes32,t_struct(AddressSet)4359_storage)": {
        "encoding": "mapping",
        "key": "t_bytes32",
        "label": "mapping(bytes32 => struct EnumerableSetUpgradeable.AddressSet)",
        "numberOfBytes": "32",
        "value": "t_struct(AddressSet)4359_storage"
      },
      "t_mapping(t_bytes32,t_struct(RoleData)179_storage)": {
        "encoding": "mapping",
        "key": "t_bytes32",
        "label": "mapping(bytes32 => struct AccessControlUpgradeable.RoleData)",
        "numberOfBytes": "32",
        "value": "t_struct(RoleData)179_storage"
      },
      "t_mapping(t_bytes32,t_uint256)": {
        "encoding": "mapping",
        "key": "t_bytes32",
        "label": "mapping(bytes32 => uint256)",
        "numberOfBytes": "32",
        "value": "t_uint256"
      },
      "t_mapping(t_bytes4,t_uint256)": {
        "encoding": "mapping",
        "key": "t_bytes4",
        "label": "mapping(bytes4 => uint256)",
        "numberOfBytes": "32",
        "value": "t_uint256"
      },
      "t_mapping(t_uint256,t_address)": {
        "encoding": "mapping",
        "key": "t_uint256",
        "label": "mapping(uint256 => address)",
        "numberOfBytes": "32",
        "value": "t_address"
      },
      "t_mapping(t_uint256,t_enum(AdapterType)60144)": {
        "encoding": "mapping",
        "key": "t_uint256",
        "label": "mapping(uint256 => enum BasicUserAgentBase.AdapterType)",
        "numberOfBytes": "32",
        "value": "t_enum(AdapterType)60144"
      },
      "t_mapping(t_uint256,t_uint256)": {
        "encoding": "mapping",
        "key": "t_uint256",
        "label": "mapping(uint256 => uint256)",
        "numberOfBytes": "32",
        "value": "t_uint256"
      },
      "t_struct(AddressSet)4359_storage": {
        "encoding": "inplace",
        "label": "struct EnumerableSetUpgradeable.AddressSet",
        "members": [
          {
            "astId": 4358,
            "contract": "contracts/xchain/agent/test/UserAgentSubTest.sol:UserAgentSubTest",
            "label": "_inner",
            "offset": 0,
            "slot": "0",
            "type": "t_struct(Set)4058_storage"
          }
        ],
        "numberOfBytes": "64"
      },
      "t_struct(RoleData)179_storage": {
        "encoding": "inplace",
        "label": "struct AccessControlUpgradeable.RoleData",
        "members": [
          {
            "astId": 176,
            "contract": "contracts/xchain/agent/test/UserAgentSubTest.sol:UserAgentSubTest",
            "label": "members",
            "offset": 0,
            "slot": "0",
            "type": "t_mapping(t_address,t_bool)"
          },
          {
            "astId": 178,
            "contract": "contracts/xchain/agent/test/UserAgentSubTest.sol:UserAgentSubTest",
            "label": "adminRole",
            "offset": 0,
            "slot": "1",
            "type": "t_bytes32"
          }
        ],
        "numberOfBytes": "64"
      },
      "t_struct(Set)4058_storage": {
        "encoding": "inplace",
        "label": "struct EnumerableSetUpgradeable.Set",
        "members": [
          {
            "astId": 4053,
            "contract": "contracts/xchain/agent/test/UserAgentSubTest.sol:UserAgentSubTest",
            "label": "_values",
            "offset": 0,
            "slot": "0",
            "type": "t_array(t_bytes32)dyn_storage"
          },
          {
            "astId": 4057,
            "contract": "contracts/xchain/agent/test/UserAgentSubTest.sol:UserAgentSubTest",
            "label": "_indexes",
            "offset": 0,
            "slot": "1",
            "type": "t_mapping(t_bytes32,t_uint256)"
          }
        ],
        "numberOfBytes": "64"
      },
      "t_uint256": {
        "encoding": "inplace",
        "label": "uint256",
        "numberOfBytes": "32"
      },
      "t_uint8": {
        "encoding": "inplace",
        "label": "uint8",
        "numberOfBytes": "1"
      }
    }
  }
}