{
  "address": "0x561E00Bb99Aa9397f3B4EaB4cd18822822Bf33A8",
  "abi": [
    {
      "anonymous": false,
      "inputs": [
        {
          "indexed": false,
          "internalType": "uint256",
          "name": "USDTUSDCTargetPool",
          "type": "uint256"
        },
        {
          "indexed": false,
          "internalType": "uint256",
          "name": "USDTBUSDTargetPool",
          "type": "uint256"
        },
        {
          "indexed": false,
          "internalType": "uint256",
          "name": "USDCBUSDCurrentPool",
          "type": "uint256"
        }
      ],
      "name": "CurrentComposition",
      "type": "event"
    },
    {
      "anonymous": false,
      "inputs": [
        {
          "indexed": false,
          "internalType": "uint256",
          "name": "USDTAmt",
          "type": "uint256"
        }
      ],
      "name": "EmergencyWithdraw",
      "type": "event"
    },
    {
      "anonymous": false,
      "inputs": [
        {
          "indexed": false,
          "internalType": "uint8",
          "name": "version",
          "type": "uint8"
        }
      ],
      "name": "Initialized",
      "type": "event"
    },
    {
      "anonymous": false,
      "inputs": [
        {
          "indexed": false,
          "internalType": "uint256",
          "name": "USDTAmt",
          "type": "uint256"
        },
        {
          "indexed": false,
          "internalType": "uint256",
          "name": "USDCBUSDAmt",
          "type": "uint256"
        }
      ],
      "name": "InvestUSDCBUSD",
      "type": "event"
    },
    {
      "anonymous": false,
      "inputs": [
        {
          "indexed": false,
          "internalType": "uint256",
          "name": "USDTAmt",
          "type": "uint256"
        },
        {
          "indexed": false,
          "internalType": "uint256",
          "name": "USDTBUSDAmt",
          "type": "uint256"
        }
      ],
      "name": "InvestUSDTBUSD",
      "type": "event"
    },
    {
      "anonymous": false,
      "inputs": [
        {
          "indexed": false,
          "internalType": "uint256",
          "name": "USDTAmt",
          "type": "uint256"
        },
        {
          "indexed": false,
          "internalType": "uint256",
          "name": "USDTUSDCAmt",
          "type": "uint256"
        }
      ],
      "name": "InvestUSDTUSDC",
      "type": "event"
    },
    {
      "anonymous": false,
      "inputs": [
        {
          "indexed": true,
          "internalType": "address",
          "name": "previousOwner",
          "type": "address"
        },
        {
          "indexed": true,
          "internalType": "address",
          "name": "newOwner",
          "type": "address"
        }
      ],
      "name": "OwnershipTransferred",
      "type": "event"
    },
    {
      "anonymous": false,
      "inputs": [
        {
          "indexed": false,
          "internalType": "uint256",
          "name": "USDTUSDCTargetPool",
          "type": "uint256"
        },
        {
          "indexed": false,
          "internalType": "uint256",
          "name": "USDTBUSDTargetPool",
          "type": "uint256"
        },
        {
          "indexed": false,
          "internalType": "uint256",
          "name": "USDCBUSDTargetPool",
          "type": "uint256"
        }
      ],
      "name": "TargetComposition",
      "type": "event"
    },
    {
      "anonymous": false,
      "inputs": [
        {
          "indexed": false,
          "internalType": "uint256",
          "name": "sharePerc",
          "type": "uint256"
        },
        {
          "indexed": false,
          "internalType": "uint256",
          "name": "USDTAmt",
          "type": "uint256"
        }
      ],
      "name": "Withdraw",
      "type": "event"
    },
    {
      "anonymous": false,
      "inputs": [
        {
          "indexed": false,
          "internalType": "uint256",
          "name": "lpTokenAmt",
          "type": "uint256"
        },
        {
          "indexed": false,
          "internalType": "uint256",
          "name": "USDTAmt",
          "type": "uint256"
        }
      ],
      "name": "WithdrawUSDCBUSD",
      "type": "event"
    },
    {
      "anonymous": false,
      "inputs": [
        {
          "indexed": false,
          "internalType": "uint256",
          "name": "lpTokenAmt",
          "type": "uint256"
        },
        {
          "indexed": false,
          "internalType": "uint256",
          "name": "USDTAmt",
          "type": "uint256"
        }
      ],
      "name": "WithdrawUSDTBUSD",
      "type": "event"
    },
    {
      "anonymous": false,
      "inputs": [
        {
          "indexed": false,
          "internalType": "uint256",
          "name": "lpTokenAmt",
          "type": "uint256"
        },
        {
          "indexed": false,
          "internalType": "uint256",
          "name": "USDTAmt",
          "type": "uint256"
        }
      ],
      "name": "WithdrawUSDTUSDC",
      "type": "event"
    },
    {
      "inputs": [],
      "name": "BUSD",
      "outputs": [
        {
          "internalType": "contract IERC20Upgradeable",
          "name": "",
          "type": "address"
        }
      ],
      "stateMutability": "view",
      "type": "function"
    },
    {
      "inputs": [],
      "name": "PnckRouter",
      "outputs": [
        {
          "internalType": "contract IRouter",
          "name": "",
          "type": "address"
        }
      ],
      "stateMutability": "view",
      "type": "function"
    },
    {
      "inputs": [],
      "name": "USDC",
      "outputs": [
        {
          "internalType": "contract IERC20Upgradeable",
          "name": "",
          "type": "address"
        }
      ],
      "stateMutability": "view",
      "type": "function"
    },
    {
      "inputs": [],
      "name": "USDCBUSD",
      "outputs": [
        {
          "internalType": "contract IERC20Upgradeable",
          "name": "",
          "type": "address"
        }
      ],
      "stateMutability": "view",
      "type": "function"
    },
    {
      "inputs": [],
      "name": "USDCBUSDVault",
      "outputs": [
        {
          "internalType": "contract IL2Vault",
          "name": "",
          "type": "address"
        }
      ],
      "stateMutability": "view",
      "type": "function"
    },
    {
      "inputs": [],
      "name": "USDT",
      "outputs": [
        {
          "internalType": "contract IERC20Upgradeable",
          "name": "",
          "type": "address"
        }
      ],
      "stateMutability": "view",
      "type": "function"
    },
    {
      "inputs": [],
      "name": "USDTBUSD",
      "outputs": [
        {
          "internalType": "contract IERC20Upgradeable",
          "name": "",
          "type": "address"
        }
      ],
      "stateMutability": "view",
      "type": "function"
    },
    {
      "inputs": [],
      "name": "USDTBUSDVault",
      "outputs": [
        {
          "internalType": "contract IL2Vault",
          "name": "",
          "type": "address"
        }
      ],
      "stateMutability": "view",
      "type": "function"
    },
    {
      "inputs": [],
      "name": "USDTUSDC",
      "outputs": [
        {
          "internalType": "contract IERC20Upgradeable",
          "name": "",
          "type": "address"
        }
      ],
      "stateMutability": "view",
      "type": "function"
    },
    {
      "inputs": [],
      "name": "USDTUSDCVault",
      "outputs": [
        {
          "internalType": "contract IL2Vault",
          "name": "",
          "type": "address"
        }
      ],
      "stateMutability": "view",
      "type": "function"
    },
    {
      "inputs": [],
      "name": "emergencyWithdraw",
      "outputs": [],
      "stateMutability": "nonpayable",
      "type": "function"
    },
    {
      "inputs": [],
      "name": "getAPR",
      "outputs": [
        {
          "internalType": "uint256",
          "name": "",
          "type": "uint256"
        }
      ],
      "stateMutability": "view",
      "type": "function"
    },
    {
      "inputs": [],
      "name": "getAllPoolInUSD",
      "outputs": [
        {
          "internalType": "uint256",
          "name": "",
          "type": "uint256"
        }
      ],
      "stateMutability": "view",
      "type": "function"
    },
    {
      "inputs": [],
      "name": "getCurrentLPCompositionPerc",
      "outputs": [
        {
          "internalType": "uint256[]",
          "name": "percentages",
          "type": "uint256[]"
        }
      ],
      "stateMutability": "view",
      "type": "function"
    },
    {
      "inputs": [],
      "name": "getCurrentTokenCompositionPerc",
      "outputs": [
        {
          "internalType": "address[]",
          "name": "tokens",
          "type": "address[]"
        },
        {
          "internalType": "uint256[]",
          "name": "percentages",
          "type": "uint256[]"
        }
      ],
      "stateMutability": "view",
      "type": "function"
    },
    {
      "inputs": [
        {
          "internalType": "contract IL2Vault",
          "name": "_USDTUSDCVault",
          "type": "address"
        },
        {
          "internalType": "contract IL2Vault",
          "name": "_USDTBUSDVault",
          "type": "address"
        },
        {
          "internalType": "contract IL2Vault",
          "name": "_USDCBUSDVault",
          "type": "address"
        }
      ],
      "name": "initialize",
      "outputs": [],
      "stateMutability": "nonpayable",
      "type": "function"
    },
    {
      "inputs": [
        {
          "internalType": "uint256",
          "name": "USDTAmt",
          "type": "uint256"
        }
      ],
      "name": "invest",
      "outputs": [],
      "stateMutability": "nonpayable",
      "type": "function"
    },
    {
      "inputs": [],
      "name": "owner",
      "outputs": [
        {
          "internalType": "address",
          "name": "",
          "type": "address"
        }
      ],
      "stateMutability": "view",
      "type": "function"
    },
    {
      "inputs": [],
      "name": "renounceOwnership",
      "outputs": [],
      "stateMutability": "nonpayable",
      "type": "function"
    },
    {
      "inputs": [
        {
          "internalType": "uint256[]",
          "name": "_targetPerc",
          "type": "uint256[]"
        }
      ],
      "name": "setLPCompositionTargetPerc",
      "outputs": [],
      "stateMutability": "nonpayable",
      "type": "function"
    },
    {
      "inputs": [
        {
          "internalType": "address",
          "name": "_vault",
          "type": "address"
        }
      ],
      "name": "setVault",
      "outputs": [],
      "stateMutability": "nonpayable",
      "type": "function"
    },
    {
      "inputs": [
        {
          "internalType": "uint256",
          "name": "",
          "type": "uint256"
        }
      ],
      "name": "targetPercentages",
      "outputs": [
        {
          "internalType": "uint256",
          "name": "",
          "type": "uint256"
        }
      ],
      "stateMutability": "view",
      "type": "function"
    },
    {
      "inputs": [
        {
          "internalType": "address",
          "name": "newOwner",
          "type": "address"
        }
      ],
      "name": "transferOwnership",
      "outputs": [],
      "stateMutability": "nonpayable",
      "type": "function"
    },
    {
      "inputs": [],
      "name": "vault",
      "outputs": [
        {
          "internalType": "address",
          "name": "",
          "type": "address"
        }
      ],
      "stateMutability": "view",
      "type": "function"
    },
    {
      "inputs": [
        {
          "internalType": "uint256",
          "name": "farmIndex",
          "type": "uint256"
        },
        {
          "internalType": "uint256",
          "name": "sharePerc",
          "type": "uint256"
        }
      ],
      "name": "withdrawFromFarm",
      "outputs": [
        {
          "internalType": "uint256",
          "name": "USDTAmt",
          "type": "uint256"
        }
      ],
      "stateMutability": "nonpayable",
      "type": "function"
    },
    {
      "inputs": [
        {
          "internalType": "uint256",
          "name": "sharePerc",
          "type": "uint256"
        }
      ],
      "name": "withdrawPerc",
      "outputs": [
        {
          "internalType": "uint256",
          "name": "USDTAmt",
          "type": "uint256"
        }
      ],
      "stateMutability": "nonpayable",
      "type": "function"
    }
  ],
  "transactionHash": "0x6baa1321fa1b12e25ec7aeb66addcd68c3d06a30d74f42e86e27503f80ca8a9b",
  "args": [],
  "numDeployments": 1,
  "solcInputHash": "193be678b50e19b63a4c1742147ab0d4",
  "bytecode": "0x608060405234801561001057600080fd5b50613b22806100206000396000f3fe608060405234801561001057600080fd5b506004361061018e5760003560e01c8063993f64f3116100de578063c89d5b8b11610097578063ed47d90911610071578063ed47d9091461035d578063f177eb9914610370578063f2fde38b14610385578063fbfa77cf1461039857600080fd5b8063c89d5b8b1461033a578063db2e21bc14610342578063e1ee05af1461034a57600080fd5b8063993f64f3146102c95780639a6a839e146102e4578063a7645a20146102f7578063bd244af41461030a578063c0c53b8b14610312578063c54e44eb1461032557600080fd5b80635846dc2b1161014b578063715018a611610125578063715018a61461028857806384fed5f51461029057806389a30271146102a35780638da5cb5b146102b857600080fd5b80635846dc2b146102415780636817031b146102545780636e21950f1461026757600080fd5b806302910e3b146101935780632afcf480146101cb5780633779b8db146101e05780633e8f12a4146101fb5780634631b24614610216578063484f4ea91461022c575b600080fd5b6101ae7310ed43c718714eb63d5aa57b78b54704e256024e81565b6040516001600160a01b0390911681526020015b60405180910390f35b6101de6101d93660046134e9565b6103ab565b005b6101ae737efaef62fddcca950418312c6c91aef321375a0081565b6101ae732354ef4df11afacb85a5c7f98b624072eccddbb181565b61021e61091f565b6040516101c2929190613576565b6101ae600080516020613a8d83398151915281565b6066546101ae906001600160a01b031681565b6101de6102623660046135b9565b610b72565b61027a6102753660046135d6565b610c03565b6040519081526020016101c2565b6101de610d56565b6067546101ae906001600160a01b031681565b6101ae600080516020613acd83398151915281565b6033546001600160a01b03166101ae565b6101ae73ec6557348085aa57c72514d67070dc863c0a5a8c81565b6101de6102f23660046135f8565b610d8c565b61027a6103053660046134e9565b610ec1565b61027a610ee2565b6101de61032036600461366d565b610f5a565b6101ae600080516020613aad83398151915281565b61027a611217565b6101de611450565b6065546101ae906001600160a01b031681565b61027a61036b3660046134e9565b611590565b61037861178d565b6040516101c291906136b8565b6101de6103933660046135b9565b6118c2565b6069546101ae906001600160a01b031681565b6069546001600160a01b031633146103de5760405162461bcd60e51b81526004016103d5906136cb565b60405180910390fd5b60695461040590600080516020613aad833981519152906001600160a01b0316308461195d565b6040516370a0823160e01b8152306004820152600080516020613aad833981519152906370a082319060240160206040518083038186803b15801561044957600080fd5b505afa15801561045d573d6000803e3d6000fd5b505050506040513d601f19601f8201168201806040525081019061048191906136ef565b905060008061048e6119c8565b91509150600061049c611a5f565b90506000826104ab858761371e565b6104b5919061373d565b826002815181106104c8576104c861375f565b6020026020010151836001815181106104e3576104e361375f565b6020026020010151846000815181106104fe576104fe61375f565b60200260200101516105109190613775565b61051a9190613775565b6105249190613775565b6040805160038082526080820190925291925060009182916020820160608036833701905050905060005b600381101561061b576000612710606883815481106105705761057061375f565b906000526020600020015486610586919061371e565b610590919061373d565b9050808683815181106105a5576105a561375f565b602002602001015110156106085760008683815181106105c7576105c761375f565b6020026020010151826105da91906137a3565b9050808484815181106105ef576105ef61375f565b60209081029190910101526106048186613775565b9450505b5080610613816137ba565b91505061054f565b50604080516003808252608082019092526000916020820160608036833701905050905060005b60038110156106aa578383828151811061065e5761065e61375f565b60200260200101518a610671919061371e565b61067b919061373d565b82828151811061068d5761068d61375f565b6020908102919091010152806106a2816137ba565b915050610642565b506000816000815181106106c0576106c061375f565b602002602001015111156106f1576106f1816000815181106106e4576106e461375f565b6020026020010151611af9565b6000816001815181106107065761070661375f565b60200260200101511115610737576107378160018151811061072a5761072a61375f565b6020026020010151611c88565b60008160028151811061074c5761074c61375f565b602002602001015111156107df576040516370a0823160e01b81523060048201526107df90600080516020613aad833981519152906370a082319060240160206040518083038186803b1580156107a257600080fd5b505afa1580156107b6573d6000803e3d6000fd5b505050506040513d601f19601f820116820180604052508101906107da91906136ef565b611e08565b7ffe1569189b90a5384ab10f6f852b375150f2bfc96432e2ec3a161f817fe2bcce856000815181106108135761081361375f565b60200260200101518660018151811061082e5761082e61375f565b6020026020010151876002815181106108495761084961375f565b6020026020010151604051610871939291909283526020830191909152604082015260600190565b60405180910390a17f78ab7e568a4cc9615209aa598a68edf063eecc26e7267dbe086b18b4f299cddc60686000815481106108ae576108ae61375f565b906000526020600020015460686001815481106108cd576108cd61375f565b906000526020600020015460686002815481106108ec576108ec61375f565b60009182526020918290200154604080519485529184019290925282015260600160405180910390a15050505050505050565b606080600061092c61178d565b6040805160038082526080820190925291925060208201606080368337019050509250600080516020613aad833981519152836000815181106109715761097161375f565b60200260200101906001600160a01b031690816001600160a01b031681525050600080516020613acd833981519152836001815181106109b3576109b361375f565b60200260200101906001600160a01b031690816001600160a01b031681525050600080516020613a8d833981519152836002815181106109f5576109f561375f565b6001600160a01b039290921660209283029190910182015260408051600380825260808201909252918201606080368337019050509150600281600181518110610a4157610a4161375f565b602002602001015182600081518110610a5c57610a5c61375f565b6020026020010151610a6e9190613775565b610a78919061373d565b82600081518110610a8b57610a8b61375f565b602002602001018181525050600281600281518110610aac57610aac61375f565b602002602001015182600081518110610ac757610ac761375f565b6020026020010151610ad99190613775565b610ae3919061373d565b82600181518110610af657610af661375f565b602002602001018181525050600281600281518110610b1757610b1761375f565b602002602001015182600181518110610b3257610b3261375f565b6020026020010151610b449190613775565b610b4e919061373d565b82600281518110610b6157610b6161375f565b602002602001018181525050509091565b6033546001600160a01b03163314610b9c5760405162461bcd60e51b81526004016103d5906137d5565b6069546001600160a01b031615610be15760405162461bcd60e51b815260206004820152600960248201526815985d5b1d081cd95d60ba1b60448201526064016103d5565b606980546001600160a01b0319166001600160a01b0392909216919091179055565b6069546000906001600160a01b03163314610c305760405162461bcd60e51b81526004016103d5906136cb565b670de0b6b3a7640000821115610c745760405162461bcd60e51b81526020600482015260096024820152684f766572203130302560b81b60448201526064016103d5565b82610c8757610c8282612045565b610cab565b8260011415610c9957610c82826122f2565b8260021415610cab57610cab8261259b565b6040516370a0823160e01b8152306004820152600080516020613aad833981519152906370a082319060240160206040518083038186803b158015610cef57600080fd5b505afa158015610d03573d6000803e3d6000fd5b505050506040513d601f19601f82011682018060405250810190610d2791906136ef565b606954909150610d5090600080516020613aad833981519152906001600160a01b031683612900565b92915050565b6033546001600160a01b03163314610d805760405162461bcd60e51b81526004016103d5906137d5565b610d8a6000612935565b565b6033546001600160a01b03163314610db65760405162461bcd60e51b81526004016103d5906137d5565b60685481908114610df95760405162461bcd60e51b815260206004820152600d60248201526c125b9d985b1a590818dbdd5b9d609a1b60448201526064016103d5565b6000805b82811015610e7557848482818110610e1757610e1761375f565b9050602002013560688281548110610e3157610e3161375f565b600091825260209091200155848482818110610e4f57610e4f61375f565b9050602002013582610e619190613775565b915080610e6d816137ba565b915050610dfd565b506127108114610ebb5760405162461bcd60e51b815260206004820152601160248201527024b73b30b634b2103830b930b6b2ba32b960791b60448201526064016103d5565b50505050565b60688181548110610ed157600080fd5b600091825260209091200154905081565b600080610eed611a5f565b905080600281518110610f0257610f0261375f565b602002602001015181600181518110610f1d57610f1d61375f565b602002602001015182600081518110610f3857610f3861375f565b6020026020010151610f4a9190613775565b610f549190613775565b91505090565b6000610f666001612987565b90508015610f7e576000805461ff0019166101001790555b610f86612a0f565b606880546001818101835560008390526117707fa2153420d844928b4421650203c77babc8b33d7f2e7b450e2966db0c2209775392830155825480820184556107d090830181905583549182019093550155606580546001600160a01b038087166001600160a01b031992831617909255606680548684169083161790556067805492851692909116919091179055611044600080516020613aad8339815191527310ed43c718714eb63d5aa57b78b54704e256024e600019612a3e565b611073600080516020613acd8339815191527310ed43c718714eb63d5aa57b78b54704e256024e600019612a3e565b6110a2600080516020613a8d8339815191527310ed43c718714eb63d5aa57b78b54704e256024e600019612a3e565b6065546110d09073ec6557348085aa57c72514d67070dc863c0a5a8c906001600160a01b0316600019612a3e565b6066546110fe90737efaef62fddcca950418312c6c91aef321375a00906001600160a01b0316600019612a3e565b60675461112c90732354ef4df11afacb85a5c7f98b624072eccddbb1906001600160a01b0316600019612a3e565b61116173ec6557348085aa57c72514d67070dc863c0a5a8c7310ed43c718714eb63d5aa57b78b54704e256024e600019612a3e565b611196737efaef62fddcca950418312c6c91aef321375a007310ed43c718714eb63d5aa57b78b54704e256024e600019612a3e565b6111cb732354ef4df11afacb85a5c7f98b624072eccddbb17310ed43c718714eb63d5aa57b78b54704e256024e600019612a3e565b8015610ebb576000805461ff0019169055604051600181527f7f26b83ff96e1f2b6a682f133852f6798a09c465da95921460cefb3847402498906020015b60405180910390a150505050565b60008061122261178d565b90506000816002815181106112395761123961375f565b6020026020010151606760009054906101000a90046001600160a01b03166001600160a01b031663c89d5b8b6040518163ffffffff1660e01b815260040160206040518083038186803b15801561128f57600080fd5b505afa1580156112a3573d6000803e3d6000fd5b505050506040513d601f19601f820116820180604052508101906112c791906136ef565b6112d1919061371e565b826001815181106112e4576112e461375f565b6020026020010151606660009054906101000a90046001600160a01b03166001600160a01b031663c89d5b8b6040518163ffffffff1660e01b815260040160206040518083038186803b15801561133a57600080fd5b505afa15801561134e573d6000803e3d6000fd5b505050506040513d601f19601f8201168201806040525081019061137291906136ef565b61137c919061371e565b8360008151811061138f5761138f61375f565b6020026020010151606560009054906101000a90046001600160a01b03166001600160a01b031663c89d5b8b6040518163ffffffff1660e01b815260040160206040518083038186803b1580156113e557600080fd5b505afa1580156113f9573d6000803e3d6000fd5b505050506040513d601f19601f8201168201806040525081019061141d91906136ef565b611427919061371e565b6114319190613775565b61143b9190613775565b90506114496127108261373d565b9250505090565b6069546001600160a01b0316331461147a5760405162461bcd60e51b81526004016103d5906136cb565b61148b670de0b6b3a7640000612045565b61149c670de0b6b3a76400006122f2565b6114ad670de0b6b3a764000061259b565b6040516370a0823160e01b8152306004820152600090600080516020613aad833981519152906370a082319060240160206040518083038186803b1580156114f457600080fd5b505afa158015611508573d6000803e3d6000fd5b505050506040513d601f19601f8201168201806040525081019061152c91906136ef565b9050801561155a5760695461155a90600080516020613aad833981519152906001600160a01b031683612900565b6040518181527f99d7f8b71cfb9126984f7a5eed3a40e64a8959e9b0e442221546fb04ec6a489c9060200160405180910390a150565b6069546000906001600160a01b031633146115bd5760405162461bcd60e51b81526004016103d5906136cb565b670de0b6b3a76400008211156116015760405162461bcd60e51b81526020600482015260096024820152684f766572203130302560b81b60448201526064016103d5565b6040516370a0823160e01b8152306004820152600090600080516020613aad833981519152906370a082319060240160206040518083038186803b15801561164857600080fd5b505afa15801561165c573d6000803e3d6000fd5b505050506040513d601f19601f8201168201806040525081019061168091906136ef565b905061168b83612045565b611694836122f2565b61169d8361259b565b6040516370a0823160e01b81523060048201528190600080516020613aad833981519152906370a082319060240160206040518083038186803b1580156116e357600080fd5b505afa1580156116f7573d6000803e3d6000fd5b505050506040513d601f19601f8201168201806040525081019061171b91906136ef565b61172591906137a3565b60695490925061174e90600080516020613aad833981519152906001600160a01b031684612900565b60408051848152602081018490527f56ca301a9219608c91e7bcee90e083c19671d2cdcc96752c7af291cee5f9c8c8910160405180910390a150919050565b60606000611799611a5f565b90506000816002815181106117b0576117b061375f565b6020026020010151826001815181106117cb576117cb61375f565b6020026020010151836000815181106117e6576117e661375f565b60200260200101516117f89190613775565b6118029190613775565b604080516003808252608082019092529192506020820160608036833701905050925060005b60038110156118bc57811561186e578161271084838151811061184d5761184d61375f565b602002602001015161185f919061371e565b611869919061373d565b61188d565b606881815481106118815761188161375f565b90600052602060002001545b84828151811061189f5761189f61375f565b6020908102919091010152806118b4816137ba565b915050611828565b50505090565b6033546001600160a01b031633146118ec5760405162461bcd60e51b81526004016103d5906137d5565b6001600160a01b0381166119515760405162461bcd60e51b815260206004820152602660248201527f4f776e61626c653a206e6577206f776e657220697320746865207a65726f206160448201526564647265737360d01b60648201526084016103d5565b61195a81612935565b50565b6040516001600160a01b0380851660248301528316604482015260648101829052610ebb9085906323b872dd60e01b906084015b60408051601f198184030181529190526020810180516001600160e01b03166001600160e01b031990931692909217909152612b62565b600080600073b97ad0e74fa7d920791e90258a6e2085088b43206001600160a01b03166350d25bcd6040518163ffffffff1660e01b815260040160206040518083038186803b158015611a1a57600080fd5b505afa158015611a2e573d6000803e3d6000fd5b505050506040513d601f19601f82011682018060405250810190611a5291906136ef565b936305f5e1009350915050565b60408051600380825260808201909252606091602082018380368337019050509050611a89612c34565b81600081518110611a9c57611a9c61375f565b602002602001018181525050611ab0612de8565b81600181518110611ac357611ac361375f565b602002602001018181525050611ad7612f2f565b81600281518110611aea57611aea61375f565b60200260200101818152505090565b6000611b0660028361373d565b9050611b46600080516020613aad833981519152600080516020613acd833981519152836064611b3782606261371e565b611b41919061373d565b613076565b506040516370a0823160e01b8152306004820152600090600080516020613acd833981519152906370a082319060240160206040518083038186803b158015611b8e57600080fd5b505afa158015611ba2573d6000803e3d6000fd5b505050506040513d601f19601f82011682018060405250810190611bc691906136ef565b90506000611bf2600080516020613aad833981519152600080516020613acd83398151915285856131b5565b60655460405163b6b55f2560e01b8152600481018390529192506001600160a01b03169063b6b55f2590602401600060405180830381600087803b158015611c3957600080fd5b505af1158015611c4d573d6000803e3d6000fd5b505060408051878152602081018590527fa5747745c82ade5eeafbc0c66155d3fdf58650ec41cb08098b40c8dabf8a8d3b9350019050611209565b6000611c9560028361373d565b9050611cc6600080516020613aad833981519152600080516020613a8d833981519152836064611b3782606261371e565b506040516370a0823160e01b8152306004820152600090600080516020613a8d833981519152906370a082319060240160206040518083038186803b158015611d0e57600080fd5b505afa158015611d22573d6000803e3d6000fd5b505050506040513d601f19601f82011682018060405250810190611d4691906136ef565b90506000611d72600080516020613aad833981519152600080516020613a8d83398151915285856131b5565b60665460405163b6b55f2560e01b8152600481018390529192506001600160a01b03169063b6b55f2590602401600060405180830381600087803b158015611db957600080fd5b505af1158015611dcd573d6000803e3d6000fd5b505060408051878152602081018590527fa4e400572a2a0f1abc3ceb9c160f7c42f3e397510b1ee4c6929cb3000bfc8a439350019050611209565b6000611e1560028361373d565b9050611e46600080516020613aad833981519152600080516020613acd833981519152836064611b3782606261371e565b50611e76600080516020613aad833981519152600080516020613a8d833981519152836064611b3782606261371e565b506040516370a0823160e01b8152306004820152600090600080516020613acd833981519152906370a082319060240160206040518083038186803b158015611ebe57600080fd5b505afa158015611ed2573d6000803e3d6000fd5b505050506040513d601f19601f82011682018060405250810190611ef691906136ef565b6040516370a0823160e01b8152306004820152909150600090600080516020613a8d833981519152906370a082319060240160206040518083038186803b158015611f4057600080fd5b505afa158015611f54573d6000803e3d6000fd5b505050506040513d601f19601f82011682018060405250810190611f7891906136ef565b90506000611fa4600080516020613acd833981519152600080516020613a8d83398151915285856131b5565b60675460405163b6b55f2560e01b8152600481018390529192506001600160a01b03169063b6b55f2590602401600060405180830381600087803b158015611feb57600080fd5b505af1158015611fff573d6000803e3d6000fd5b505060408051888152602081018590527fa1605bcb566b8ee1a15b4f2083a61e6e23ce065f38cef3e8b4dd8783dab0fbd993500190505b60405180910390a15050505050565b6065546040516370a0823160e01b8152306004820152600091670de0b6b3a76400009184916001600160a01b0316906370a082319060240160206040518083038186803b15801561209557600080fd5b505afa1580156120a9573d6000803e3d6000fd5b505050506040513d601f19601f820116820180604052508101906120cd91906136ef565b6120d7919061371e565b6120e1919061373d565b905080156122ee57606554604051632e1a7d4d60e01b8152600481018390526001600160a01b0390911690632e1a7d4d90602401600060405180830381600087803b15801561212f57600080fd5b505af1158015612143573d6000803e3d6000fd5b50506040516370a0823160e01b81523060048201526000925073ec6557348085aa57c72514d67070dc863c0a5a8c91506370a082319060240160206040518083038186803b15801561219457600080fd5b505afa1580156121a8573d6000803e3d6000fd5b505050506040513d601f19601f820116820180604052508101906121cc91906136ef565b905060006121f7600080516020613aad833981519152600080516020613acd83398151915284613280565b506040516370a0823160e01b8152306004820152909150600090600080516020613acd833981519152906370a082319060240160206040518083038186803b15801561224257600080fd5b505afa158015612256573d6000803e3d6000fd5b505050506040513d601f19601f8201168201806040525081019061227a91906136ef565b90506122ab600080516020613acd833981519152600080516020613aad833981519152836064611b3782606261371e565b6122b59083613775565b60408051858152602081018390529193507fa75b70fca861358b5d9e6ef8d7133844f791f90824a43b88a3430d2f2148d2879101612036565b5050565b6066546040516370a0823160e01b8152306004820152600091670de0b6b3a76400009184916001600160a01b0316906370a082319060240160206040518083038186803b15801561234257600080fd5b505afa158015612356573d6000803e3d6000fd5b505050506040513d601f19601f8201168201806040525081019061237a91906136ef565b612384919061371e565b61238e919061373d565b905080156122ee57606654604051632e1a7d4d60e01b8152600481018390526001600160a01b0390911690632e1a7d4d90602401600060405180830381600087803b1580156123dc57600080fd5b505af11580156123f0573d6000803e3d6000fd5b50506040516370a0823160e01b815230600482015260009250737efaef62fddcca950418312c6c91aef321375a0091506370a082319060240160206040518083038186803b15801561244157600080fd5b505afa158015612455573d6000803e3d6000fd5b505050506040513d601f19601f8201168201806040525081019061247991906136ef565b905060006124a4600080516020613aad833981519152600080516020613a8d83398151915284613280565b506040516370a0823160e01b8152306004820152909150600090600080516020613a8d833981519152906370a082319060240160206040518083038186803b1580156124ef57600080fd5b505afa158015612503573d6000803e3d6000fd5b505050506040513d601f19601f8201168201806040525081019061252791906136ef565b9050612558600080516020613a8d833981519152600080516020613aad833981519152836064611b3782606261371e565b6125629083613775565b60408051858152602081018390529193507f88d437bfe011784cd9b1dba7765f54df616437217b5ba8f088a0302a658f1f6b9101612036565b6067546040516370a0823160e01b8152306004820152600091670de0b6b3a76400009184916001600160a01b0316906370a082319060240160206040518083038186803b1580156125eb57600080fd5b505afa1580156125ff573d6000803e3d6000fd5b505050506040513d601f19601f8201168201806040525081019061262391906136ef565b61262d919061371e565b612637919061373d565b905080156122ee57606754604051632e1a7d4d60e01b8152600481018390526001600160a01b0390911690632e1a7d4d90602401600060405180830381600087803b15801561268557600080fd5b505af1158015612699573d6000803e3d6000fd5b50506040516370a0823160e01b815230600482015260009250732354ef4df11afacb85a5c7f98b624072eccddbb191506370a082319060240160206040518083038186803b1580156126ea57600080fd5b505afa1580156126fe573d6000803e3d6000fd5b505050506040513d601f19601f8201168201806040525081019061272291906136ef565b905061274b600080516020613acd833981519152600080516020613a8d83398151915283613280565b50506040516370a0823160e01b8152306004820152600090600080516020613acd833981519152906370a082319060240160206040518083038186803b15801561279457600080fd5b505afa1580156127a8573d6000803e3d6000fd5b505050506040513d601f19601f820116820180604052508101906127cc91906136ef565b6040516370a0823160e01b8152306004820152909150600090600080516020613a8d833981519152906370a082319060240160206040518083038186803b15801561281657600080fd5b505afa15801561282a573d6000803e3d6000fd5b505050506040513d601f19601f8201168201806040525081019061284e91906136ef565b90506000612881600080516020613acd833981519152600080516020613aad833981519152856064611b3782606261371e565b90506128b2600080516020613a8d833981519152600080516020613aad833981519152846064611b3782606261371e565b6128bc9082613775565b60408051868152602081018390529192507f9bf4f058d2e48350e0c988966a158671879246ffbe404230e80f4d3f669a931d910160405180910390a1505050505050565b6040516001600160a01b03831660248201526044810182905261293090849063a9059cbb60e01b90606401611991565b505050565b603380546001600160a01b038381166001600160a01b0319831681179093556040519116919082907f8be0079c531659141344cd1fd0a4f28419497f9722a3daafe3b4186f6b6457e090600090a35050565b60008054610100900460ff16156129ce578160ff1660011480156129aa5750303b155b6129c65760405162461bcd60e51b81526004016103d59061380a565b506000919050565b60005460ff8084169116106129f55760405162461bcd60e51b81526004016103d59061380a565b506000805460ff191660ff92909216919091179055600190565b600054610100900460ff16612a365760405162461bcd60e51b81526004016103d590613858565b610d8a613346565b801580612ac75750604051636eb1769f60e11b81523060048201526001600160a01b03838116602483015284169063dd62ed3e9060440160206040518083038186803b158015612a8d57600080fd5b505afa158015612aa1573d6000803e3d6000fd5b505050506040513d601f19601f82011682018060405250810190612ac591906136ef565b155b612b325760405162461bcd60e51b815260206004820152603660248201527f5361666545524332303a20617070726f76652066726f6d206e6f6e2d7a65726f60448201527520746f206e6f6e2d7a65726f20616c6c6f77616e636560501b60648201526084016103d5565b6040516001600160a01b03831660248201526044810182905261293090849063095ea7b360e01b90606401611991565b6000612bb7826040518060400160405280602081526020017f5361666545524332303a206c6f772d6c6576656c2063616c6c206661696c6564815250856001600160a01b03166133769092919063ffffffff16565b8051909150156129305780806020019051810190612bd591906138a3565b6129305760405162461bcd60e51b815260206004820152602a60248201527f5361666545524332303a204552433230206f7065726174696f6e20646964206e6044820152691bdd081cdd58d8d9595960b21b60648201526084016103d5565b600080606560009054906101000a90046001600160a01b03166001600160a01b031663bd244af46040518163ffffffff1660e01b815260040160206040518083038186803b158015612c8557600080fd5b505afa158015612c99573d6000803e3d6000fd5b505050506040513d601f19601f82011682018060405250810190612cbd91906136ef565b90508015612de057606560009054906101000a90046001600160a01b03166001600160a01b03166318160ddd6040518163ffffffff1660e01b815260040160206040518083038186803b158015612d1357600080fd5b505afa158015612d27573d6000803e3d6000fd5b505050506040513d601f19601f82011682018060405250810190612d4b91906136ef565b6065546040516370a0823160e01b81523060048201526001600160a01b03909116906370a08231906024015b60206040518083038186803b158015612d8f57600080fd5b505afa158015612da3573d6000803e3d6000fd5b505050506040513d601f19601f82011682018060405250810190612dc791906136ef565b612dd1908361371e565b612ddb919061373d565b610f54565b600091505090565b600080606660009054906101000a90046001600160a01b03166001600160a01b031663bd244af46040518163ffffffff1660e01b815260040160206040518083038186803b158015612e3957600080fd5b505afa158015612e4d573d6000803e3d6000fd5b505050506040513d601f19601f82011682018060405250810190612e7191906136ef565b90508015612de057606660009054906101000a90046001600160a01b03166001600160a01b03166318160ddd6040518163ffffffff1660e01b815260040160206040518083038186803b158015612ec757600080fd5b505afa158015612edb573d6000803e3d6000fd5b505050506040513d601f19601f82011682018060405250810190612eff91906136ef565b6066546040516370a0823160e01b81523060048201526001600160a01b03909116906370a0823190602401612d77565b600080606760009054906101000a90046001600160a01b03166001600160a01b031663bd244af46040518163ffffffff1660e01b815260040160206040518083038186803b158015612f8057600080fd5b505afa158015612f94573d6000803e3d6000fd5b505050506040513d601f19601f82011682018060405250810190612fb891906136ef565b90508015612de057606760009054906101000a90046001600160a01b03166001600160a01b03166318160ddd6040518163ffffffff1660e01b815260040160206040518083038186803b15801561300e57600080fd5b505afa158015613022573d6000803e3d6000fd5b505050506040513d601f19601f8201168201806040525081019061304691906136ef565b6067546040516370a0823160e01b81523060048201526001600160a01b03909116906370a0823190602401612d77565b6040805160028082526060820183526000928392919060208301908036833701905050905085816000815181106130af576130af61375f565b60200260200101906001600160a01b031690816001600160a01b03168152505084816001815181106130e3576130e361375f565b6001600160a01b03909216602092830291909101909101526040516338ed173960e01b81527310ed43c718714eb63d5aa57b78b54704e256024e906338ed17399061313a90879087908690309042906004016138c5565b600060405180830381600087803b15801561315457600080fd5b505af1158015613168573d6000803e3d6000fd5b505050506040513d6000823e601f3d908101601f191682016040526131909190810190613901565b6001815181106131a2576131a261375f565b6020026020010151915050949350505050565b60405162e8e33760e81b81526001600160a01b03808616600483015284166024820152604481018390526064810182905260006084820181905260a482018190523060c48301524260e4830152907310ed43c718714eb63d5aa57b78b54704e256024e9063e8e337009061010401606060405180830381600087803b15801561323d57600080fd5b505af1158015613251573d6000803e3d6000fd5b505050506040513d601f19601f8201168201806040525081019061327591906139bf565b979650505050505050565b604051635d5155ef60e11b81526001600160a01b0380851660048301528316602482015260448101829052600060648201819052608482018190523060a48301524260c48301529081907310ed43c718714eb63d5aa57b78b54704e256024e9063baa2abde9060e4016040805180830381600087803b15801561330257600080fd5b505af1158015613316573d6000803e3d6000fd5b505050506040513d601f19601f8201168201806040525081019061333a91906139ed565b90969095509350505050565b600054610100900460ff1661336d5760405162461bcd60e51b81526004016103d590613858565b610d8a33612935565b6060613385848460008561338f565b90505b9392505050565b6060824710156133f05760405162461bcd60e51b815260206004820152602660248201527f416464726573733a20696e73756666696369656e742062616c616e636520666f6044820152651c8818d85b1b60d21b60648201526084016103d5565b6001600160a01b0385163b6134475760405162461bcd60e51b815260206004820152601d60248201527f416464726573733a2063616c6c20746f206e6f6e2d636f6e747261637400000060448201526064016103d5565b600080866001600160a01b031685876040516134639190613a3d565b60006040518083038185875af1925050503d80600081146134a0576040519150601f19603f3d011682016040523d82523d6000602084013e6134a5565b606091505b5091509150613275828286606083156134bf575081613388565b8251156134cf5782518084602001fd5b8160405162461bcd60e51b81526004016103d59190613a59565b6000602082840312156134fb57600080fd5b5035919050565b600081518084526020808501945080840160005b8381101561353b5781516001600160a01b031687529582019590820190600101613516565b509495945050505050565b600081518084526020808501945080840160005b8381101561353b5781518752958201959082019060010161355a565b6040815260006135896040830185613502565b828103602084015261359b8185613546565b95945050505050565b6001600160a01b038116811461195a57600080fd5b6000602082840312156135cb57600080fd5b8135613388816135a4565b600080604083850312156135e957600080fd5b50508035926020909101359150565b6000806020838503121561360b57600080fd5b823567ffffffffffffffff8082111561362357600080fd5b818501915085601f83011261363757600080fd5b81358181111561364657600080fd5b8660208260051b850101111561365b57600080fd5b60209290920196919550909350505050565b60008060006060848603121561368257600080fd5b833561368d816135a4565b9250602084013561369d816135a4565b915060408401356136ad816135a4565b809150509250925092565b6020815260006133886020830184613546565b6020808252600a908201526913db9b1e481d985d5b1d60b21b604082015260600190565b60006020828403121561370157600080fd5b5051919050565b634e487b7160e01b600052601160045260246000fd5b600081600019048311821515161561373857613738613708565b500290565b60008261375a57634e487b7160e01b600052601260045260246000fd5b500490565b634e487b7160e01b600052603260045260246000fd5b6000821982111561378857613788613708565b500190565b634e487b7160e01b600052604160045260246000fd5b6000828210156137b5576137b5613708565b500390565b60006000198214156137ce576137ce613708565b5060010190565b6020808252818101527f4f776e61626c653a2063616c6c6572206973206e6f7420746865206f776e6572604082015260600190565b6020808252602e908201527f496e697469616c697a61626c653a20636f6e747261637420697320616c72656160408201526d191e481a5b9a5d1a585b1a5e995960921b606082015260800190565b6020808252602b908201527f496e697469616c697a61626c653a20636f6e7472616374206973206e6f74206960408201526a6e697469616c697a696e6760a81b606082015260800190565b6000602082840312156138b557600080fd5b8151801515811461338857600080fd5b85815284602082015260a0604082015260006138e460a0830186613502565b6001600160a01b0394909416606083015250608001529392505050565b6000602080838503121561391457600080fd5b825167ffffffffffffffff8082111561392c57600080fd5b818501915085601f83011261394057600080fd5b8151818111156139525761395261378d565b8060051b604051601f19603f830116810181811085821117156139775761397761378d565b60405291825284820192508381018501918883111561399557600080fd5b938501935b828510156139b35784518452938501939285019261399a565b98975050505050505050565b6000806000606084860312156139d457600080fd5b8351925060208401519150604084015190509250925092565b60008060408385031215613a0057600080fd5b505080516020909101519092909150565b60005b83811015613a2c578181015183820152602001613a14565b83811115610ebb5750506000910152565b60008251613a4f818460208701613a11565b9190910192915050565b6020815260008251806020840152613a78816040850160208701613a11565b601f01601f1916919091016040019291505056fe000000000000000000000000e9e7cea3dedca5984780bafc599bd69add087d5600000000000000000000000055d398326f99059ff775485246999027b31979550000000000000000000000008ac76a51cc950d9822d68b83fe1ad97b32cd580da2646970667358221220e84c3be10f259c9b15082e8b103563619b08c3af555a3126ad997738a500eabb64736f6c63430008090033",
  "devdoc": {
    "kind": "dev",
    "methods": {
      "owner()": {
        "details": "Returns the address of the current owner."
      },
      "renounceOwnership()": {
        "details": "Leaves the contract without owner. It will not be possible to call `onlyOwner` functions anymore. Can only be called by the current owner. NOTE: Renouncing ownership will leave the contract without an owner, thereby removing any functionality that is only available to the owner."
      },
      "transferOwnership(address)": {
        "details": "Transfers ownership of the contract to a new account (`newOwner`). Can only be called by the current owner."
      }
    },
    "version": 1
  },
  "userdoc": {
    "kind": "user",
    "methods": {},
    "version": 1
  },
  "storageLayout": {
    "storage": [
      {
        "astId": 130,
        "contract": "contracts/lci/LCIStrategy.sol:LCIStrategy",
        "label": "_initialized",
        "offset": 0,
        "slot": "0",
        "type": "t_uint8"
      },
      {
        "astId": 133,
        "contract": "contracts/lci/LCIStrategy.sol:LCIStrategy",
        "label": "_initializing",
        "offset": 1,
        "slot": "0",
        "type": "t_bool"
      },
      {
        "astId": 1657,
        "contract": "contracts/lci/LCIStrategy.sol:LCIStrategy",
        "label": "__gap",
        "offset": 0,
        "slot": "1",
        "type": "t_array(t_uint256)50_storage"
      },
      {
        "astId": 10,
        "contract": "contracts/lci/LCIStrategy.sol:LCIStrategy",
        "label": "_owner",
        "offset": 0,
        "slot": "51",
        "type": "t_address"
      },
      {
        "astId": 122,
        "contract": "contracts/lci/LCIStrategy.sol:LCIStrategy",
        "label": "__gap",
        "offset": 0,
        "slot": "52",
        "type": "t_array(t_uint256)49_storage"
      },
      {
        "astId": 12094,
        "contract": "contracts/lci/LCIStrategy.sol:LCIStrategy",
        "label": "USDTUSDCVault",
        "offset": 0,
        "slot": "101",
        "type": "t_contract(IL2Vault)12040"
      },
      {
        "astId": 12097,
        "contract": "contracts/lci/LCIStrategy.sol:LCIStrategy",
        "label": "USDTBUSDVault",
        "offset": 0,
        "slot": "102",
        "type": "t_contract(IL2Vault)12040"
      },
      {
        "astId": 12100,
        "contract": "contracts/lci/LCIStrategy.sol:LCIStrategy",
        "label": "USDCBUSDVault",
        "offset": 0,
        "slot": "103",
        "type": "t_contract(IL2Vault)12040"
      },
      {
        "astId": 12106,
        "contract": "contracts/lci/LCIStrategy.sol:LCIStrategy",
        "label": "targetPercentages",
        "offset": 0,
        "slot": "104",
        "type": "t_array(t_uint256)dyn_storage"
      },
      {
        "astId": 12108,
        "contract": "contracts/lci/LCIStrategy.sol:LCIStrategy",
        "label": "vault",
        "offset": 0,
        "slot": "105",
        "type": "t_address"
      }
    ],
    "types": {
      "t_address": {
        "encoding": "inplace",
        "label": "address",
        "numberOfBytes": "20"
      },
      "t_array(t_uint256)49_storage": {
        "base": "t_uint256",
        "encoding": "inplace",
        "label": "uint256[49]",
        "numberOfBytes": "1568"
      },
      "t_array(t_uint256)50_storage": {
        "base": "t_uint256",
        "encoding": "inplace",
        "label": "uint256[50]",
        "numberOfBytes": "1600"
      },
      "t_array(t_uint256)dyn_storage": {
        "base": "t_uint256",
        "encoding": "dynamic_array",
        "label": "uint256[]",
        "numberOfBytes": "32"
      },
      "t_bool": {
        "encoding": "inplace",
        "label": "bool",
        "numberOfBytes": "1"
      },
      "t_contract(IL2Vault)12040": {
        "encoding": "inplace",
        "label": "contract IL2Vault",
        "numberOfBytes": "20"
      },
      "t_uint256": {
        "encoding": "inplace",
        "label": "uint256",
        "numberOfBytes": "32"
      },
      "t_uint8": {
        "encoding": "inplace",
        "label": "uint8",
        "numberOfBytes": "1"
      }
    }
  }
}