{
  "address": "0x9E1d67a8Ca84394e71bf077C105eA17E9B63C84c",
  "abi": [
    {
      "anonymous": false,
      "inputs": [
        {
          "indexed": false,
          "internalType": "uint256",
          "name": "currentWatermark",
          "type": "uint256"
        },
        {
          "indexed": false,
          "internalType": "uint256",
          "name": "lastWatermark",
          "type": "uint256"
        }
      ],
      "name": "AdjustWatermark",
      "type": "event"
    },
    {
      "anonymous": false,
      "inputs": [
        {
          "indexed": true,
          "internalType": "address",
          "name": "owner",
          "type": "address"
        },
        {
          "indexed": true,
          "internalType": "address",
          "name": "spender",
          "type": "address"
        },
        {
          "indexed": false,
          "internalType": "uint256",
          "name": "value",
          "type": "uint256"
        }
      ],
      "name": "Approval",
      "type": "event"
    },
    {
      "anonymous": false,
      "inputs": [
        {
          "indexed": false,
          "internalType": "uint256",
          "name": "currentWatermark",
          "type": "uint256"
        },
        {
          "indexed": false,
          "internalType": "uint256",
          "name": "lastWatermark",
          "type": "uint256"
        },
        {
          "indexed": false,
          "internalType": "uint256",
          "name": "fee",
          "type": "uint256"
        }
      ],
      "name": "CollectProfitAndUpdateWatermark",
      "type": "event"
    },
    {
      "anonymous": false,
      "inputs": [
        {
          "indexed": false,
          "internalType": "address",
          "name": "caller",
          "type": "address"
        },
        {
          "indexed": false,
          "internalType": "uint256",
          "name": "amtDeposit",
          "type": "uint256"
        },
        {
          "indexed": false,
          "internalType": "address",
          "name": "tokenDeposit",
          "type": "address"
        },
        {
          "indexed": false,
          "internalType": "uint256",
          "name": "shareMinted",
          "type": "uint256"
        }
      ],
      "name": "Deposit",
      "type": "event"
    },
    {
      "anonymous": false,
      "inputs": [
        {
          "indexed": false,
          "internalType": "uint8",
          "name": "version",
          "type": "uint8"
        }
      ],
      "name": "Initialized",
      "type": "event"
    },
    {
      "anonymous": false,
      "inputs": [
        {
          "indexed": true,
          "internalType": "address",
          "name": "previousOwner",
          "type": "address"
        },
        {
          "indexed": true,
          "internalType": "address",
          "name": "newOwner",
          "type": "address"
        }
      ],
      "name": "OwnershipTransferred",
      "type": "event"
    },
    {
      "anonymous": false,
      "inputs": [
        {
          "indexed": false,
          "internalType": "address",
          "name": "account",
          "type": "address"
        }
      ],
      "name": "Paused",
      "type": "event"
    },
    {
      "anonymous": false,
      "inputs": [
        {
          "indexed": false,
          "internalType": "uint256",
          "name": "farmIndex",
          "type": "uint256"
        },
        {
          "indexed": false,
          "internalType": "uint256",
          "name": "sharePerc",
          "type": "uint256"
        },
        {
          "indexed": false,
          "internalType": "uint256",
          "name": "amount",
          "type": "uint256"
        }
      ],
      "name": "Rebalance",
      "type": "event"
    },
    {
      "anonymous": false,
      "inputs": [
        {
          "indexed": false,
          "internalType": "uint256",
          "name": "amount",
          "type": "uint256"
        }
      ],
      "name": "Reinvest",
      "type": "event"
    },
    {
      "anonymous": false,
      "inputs": [
        {
          "indexed": false,
          "internalType": "address",
          "name": "oldAdmin",
          "type": "address"
        },
        {
          "indexed": false,
          "internalType": "address",
          "name": "newAdmin",
          "type": "address"
        }
      ],
      "name": "SetAdminWallet",
      "type": "event"
    },
    {
      "anonymous": false,
      "inputs": [
        {
          "indexed": false,
          "internalType": "address",
          "name": "oldBiconomy",
          "type": "address"
        },
        {
          "indexed": false,
          "internalType": "address",
          "name": "newBiconomy",
          "type": "address"
        }
      ],
      "name": "SetBiconomy",
      "type": "event"
    },
    {
      "anonymous": false,
      "inputs": [
        {
          "indexed": false,
          "internalType": "address",
          "name": "oldTreasuryWallet",
          "type": "address"
        },
        {
          "indexed": false,
          "internalType": "address",
          "name": "newTreasuryWallet",
          "type": "address"
        }
      ],
      "name": "SetTreasuryWallet",
      "type": "event"
    },
    {
      "anonymous": false,
      "inputs": [
        {
          "indexed": true,
          "internalType": "address",
          "name": "from",
          "type": "address"
        },
        {
          "indexed": true,
          "internalType": "address",
          "name": "to",
          "type": "address"
        },
        {
          "indexed": false,
          "internalType": "uint256",
          "name": "value",
          "type": "uint256"
        }
      ],
      "name": "Transfer",
      "type": "event"
    },
    {
      "anonymous": false,
      "inputs": [
        {
          "indexed": false,
          "internalType": "uint256",
          "name": "fees",
          "type": "uint256"
        },
        {
          "indexed": false,
          "internalType": "address",
          "name": "token",
          "type": "address"
        }
      ],
      "name": "TransferredOutFees",
      "type": "event"
    },
    {
      "anonymous": false,
      "inputs": [
        {
          "indexed": false,
          "internalType": "address",
          "name": "account",
          "type": "address"
        }
      ],
      "name": "Unpaused",
      "type": "event"
    },
    {
      "anonymous": false,
      "inputs": [
        {
          "indexed": false,
          "internalType": "address",
          "name": "caller",
          "type": "address"
        },
        {
          "indexed": false,
          "internalType": "uint256",
          "name": "amtWithdraw",
          "type": "uint256"
        },
        {
          "indexed": false,
          "internalType": "address",
          "name": "tokenWithdraw",
          "type": "address"
        },
        {
          "indexed": false,
          "internalType": "uint256",
          "name": "shareBurned",
          "type": "uint256"
        }
      ],
      "name": "Withdraw",
      "type": "event"
    },
    {
      "inputs": [],
      "name": "USDT",
      "outputs": [
        {
          "internalType": "contract IERC20Upgradeable",
          "name": "",
          "type": "address"
        }
      ],
      "stateMutability": "view",
      "type": "function"
    },
    {
      "inputs": [],
      "name": "admin",
      "outputs": [
        {
          "internalType": "address",
          "name": "",
          "type": "address"
        }
      ],
      "stateMutability": "view",
      "type": "function"
    },
    {
      "inputs": [
        {
          "internalType": "address",
          "name": "owner",
          "type": "address"
        },
        {
          "internalType": "address",
          "name": "spender",
          "type": "address"
        }
      ],
      "name": "allowance",
      "outputs": [
        {
          "internalType": "uint256",
          "name": "",
          "type": "uint256"
        }
      ],
      "stateMutability": "view",
      "type": "function"
    },
    {
      "inputs": [
        {
          "internalType": "address",
          "name": "spender",
          "type": "address"
        },
        {
          "internalType": "uint256",
          "name": "amount",
          "type": "uint256"
        }
      ],
      "name": "approve",
      "outputs": [
        {
          "internalType": "bool",
          "name": "",
          "type": "bool"
        }
      ],
      "stateMutability": "nonpayable",
      "type": "function"
    },
    {
      "inputs": [
        {
          "internalType": "address",
          "name": "account",
          "type": "address"
        }
      ],
      "name": "balanceOf",
      "outputs": [
        {
          "internalType": "uint256",
          "name": "",
          "type": "uint256"
        }
      ],
      "stateMutability": "view",
      "type": "function"
    },
    {
      "inputs": [],
      "name": "collectProfitAndUpdateWatermark",
      "outputs": [],
      "stateMutability": "nonpayable",
      "type": "function"
    },
    {
      "inputs": [],
      "name": "decimals",
      "outputs": [
        {
          "internalType": "uint8",
          "name": "",
          "type": "uint8"
        }
      ],
      "stateMutability": "view",
      "type": "function"
    },
    {
      "inputs": [
        {
          "internalType": "address",
          "name": "spender",
          "type": "address"
        },
        {
          "internalType": "uint256",
          "name": "subtractedValue",
          "type": "uint256"
        }
      ],
      "name": "decreaseAllowance",
      "outputs": [
        {
          "internalType": "bool",
          "name": "",
          "type": "bool"
        }
      ],
      "stateMutability": "nonpayable",
      "type": "function"
    },
    {
      "inputs": [
        {
          "internalType": "uint256",
          "name": "amount",
          "type": "uint256"
        }
      ],
      "name": "deposit",
      "outputs": [],
      "stateMutability": "nonpayable",
      "type": "function"
    },
    {
      "inputs": [
        {
          "internalType": "address",
          "name": "account",
          "type": "address"
        },
        {
          "internalType": "uint256",
          "name": "amount",
          "type": "uint256"
        }
      ],
      "name": "depositByAdmin",
      "outputs": [],
      "stateMutability": "nonpayable",
      "type": "function"
    },
    {
      "inputs": [],
      "name": "emergencyWithdraw",
      "outputs": [],
      "stateMutability": "nonpayable",
      "type": "function"
    },
    {
      "inputs": [],
      "name": "fees",
      "outputs": [
        {
          "internalType": "uint256",
          "name": "",
          "type": "uint256"
        }
      ],
      "stateMutability": "view",
      "type": "function"
    },
    {
      "inputs": [],
      "name": "getAPR",
      "outputs": [
        {
          "internalType": "uint256",
          "name": "",
          "type": "uint256"
        }
      ],
      "stateMutability": "view",
      "type": "function"
    },
    {
      "inputs": [],
      "name": "getAllPoolInUSD",
      "outputs": [
        {
          "internalType": "uint256",
          "name": "",
          "type": "uint256"
        }
      ],
      "stateMutability": "view",
      "type": "function"
    },
    {
      "inputs": [],
      "name": "getCurrentCompositionPerc",
      "outputs": [
        {
          "internalType": "address[]",
          "name": "tokens",
          "type": "address[]"
        },
        {
          "internalType": "uint256[]",
          "name": "percentages",
          "type": "uint256[]"
        }
      ],
      "stateMutability": "view",
      "type": "function"
    },
    {
      "inputs": [],
      "name": "getPricePerFullShare",
      "outputs": [
        {
          "internalType": "uint256",
          "name": "",
          "type": "uint256"
        }
      ],
      "stateMutability": "view",
      "type": "function"
    },
    {
      "inputs": [
        {
          "internalType": "address",
          "name": "spender",
          "type": "address"
        },
        {
          "internalType": "uint256",
          "name": "addedValue",
          "type": "uint256"
        }
      ],
      "name": "increaseAllowance",
      "outputs": [
        {
          "internalType": "bool",
          "name": "",
          "type": "bool"
        }
      ],
      "stateMutability": "nonpayable",
      "type": "function"
    },
    {
      "inputs": [
        {
          "internalType": "address",
          "name": "_treasuryWallet",
          "type": "address"
        },
        {
          "internalType": "address",
          "name": "_admin",
          "type": "address"
        },
        {
          "internalType": "address",
          "name": "_biconomy",
          "type": "address"
        },
        {
          "internalType": "address",
          "name": "_strategy",
          "type": "address"
        }
      ],
      "name": "initialize",
      "outputs": [],
      "stateMutability": "nonpayable",
      "type": "function"
    },
    {
      "inputs": [
        {
          "internalType": "address",
          "name": "forwarder",
          "type": "address"
        }
      ],
      "name": "isTrustedForwarder",
      "outputs": [
        {
          "internalType": "bool",
          "name": "",
          "type": "bool"
        }
      ],
      "stateMutability": "view",
      "type": "function"
    },
    {
      "inputs": [],
      "name": "name",
      "outputs": [
        {
          "internalType": "string",
          "name": "",
          "type": "string"
        }
      ],
      "stateMutability": "view",
      "type": "function"
    },
    {
      "inputs": [],
      "name": "owner",
      "outputs": [
        {
          "internalType": "address",
          "name": "",
          "type": "address"
        }
      ],
      "stateMutability": "view",
      "type": "function"
    },
    {
      "inputs": [],
      "name": "paused",
      "outputs": [
        {
          "internalType": "bool",
          "name": "",
          "type": "bool"
        }
      ],
      "stateMutability": "view",
      "type": "function"
    },
    {
      "inputs": [],
      "name": "profitFeePerc",
      "outputs": [
        {
          "internalType": "uint256",
          "name": "",
          "type": "uint256"
        }
      ],
      "stateMutability": "view",
      "type": "function"
    },
    {
      "inputs": [
        {
          "internalType": "uint256",
          "name": "farmIndex",
          "type": "uint256"
        },
        {
          "internalType": "uint256",
          "name": "sharePerc",
          "type": "uint256"
        }
      ],
      "name": "rebalance",
      "outputs": [],
      "stateMutability": "nonpayable",
      "type": "function"
    },
    {
      "inputs": [],
      "name": "reinvest",
      "outputs": [],
      "stateMutability": "nonpayable",
      "type": "function"
    },
    {
      "inputs": [],
      "name": "renounceOwnership",
      "outputs": [],
      "stateMutability": "nonpayable",
      "type": "function"
    },
    {
      "inputs": [
        {
          "internalType": "address",
          "name": "_admin",
          "type": "address"
        }
      ],
      "name": "setAdmin",
      "outputs": [],
      "stateMutability": "nonpayable",
      "type": "function"
    },
    {
      "inputs": [
        {
          "internalType": "address",
          "name": "_biconomy",
          "type": "address"
        }
      ],
      "name": "setBiconomy",
      "outputs": [],
      "stateMutability": "nonpayable",
      "type": "function"
    },
    {
      "inputs": [
        {
          "internalType": "uint256",
          "name": "_profitFeePerc",
          "type": "uint256"
        }
      ],
      "name": "setProfitFeePerc",
      "outputs": [],
      "stateMutability": "nonpayable",
      "type": "function"
    },
    {
      "inputs": [
        {
          "internalType": "address",
          "name": "_treasuryWallet",
          "type": "address"
        }
      ],
      "name": "setTreasuryWallet",
      "outputs": [],
      "stateMutability": "nonpayable",
      "type": "function"
    },
    {
      "inputs": [],
      "name": "strategy",
      "outputs": [
        {
          "internalType": "contract IStrategy",
          "name": "",
          "type": "address"
        }
      ],
      "stateMutability": "view",
      "type": "function"
    },
    {
      "inputs": [],
      "name": "symbol",
      "outputs": [
        {
          "internalType": "string",
          "name": "",
          "type": "string"
        }
      ],
      "stateMutability": "view",
      "type": "function"
    },
    {
      "inputs": [],
      "name": "totalSupply",
      "outputs": [
        {
          "internalType": "uint256",
          "name": "",
          "type": "uint256"
        }
      ],
      "stateMutability": "view",
      "type": "function"
    },
    {
      "inputs": [
        {
          "internalType": "address",
          "name": "to",
          "type": "address"
        },
        {
          "internalType": "uint256",
          "name": "amount",
          "type": "uint256"
        }
      ],
      "name": "transfer",
      "outputs": [
        {
          "internalType": "bool",
          "name": "",
          "type": "bool"
        }
      ],
      "stateMutability": "nonpayable",
      "type": "function"
    },
    {
      "inputs": [
        {
          "internalType": "address",
          "name": "from",
          "type": "address"
        },
        {
          "internalType": "address",
          "name": "to",
          "type": "address"
        },
        {
          "internalType": "uint256",
          "name": "amount",
          "type": "uint256"
        }
      ],
      "name": "transferFrom",
      "outputs": [
        {
          "internalType": "bool",
          "name": "",
          "type": "bool"
        }
      ],
      "stateMutability": "nonpayable",
      "type": "function"
    },
    {
      "inputs": [
        {
          "internalType": "address",
          "name": "newOwner",
          "type": "address"
        }
      ],
      "name": "transferOwnership",
      "outputs": [],
      "stateMutability": "nonpayable",
      "type": "function"
    },
    {
      "inputs": [],
      "name": "treasuryWallet",
      "outputs": [
        {
          "internalType": "address",
          "name": "",
          "type": "address"
        }
      ],
      "stateMutability": "view",
      "type": "function"
    },
    {
      "inputs": [],
      "name": "trustedForwarder",
      "outputs": [
        {
          "internalType": "address",
          "name": "",
          "type": "address"
        }
      ],
      "stateMutability": "view",
      "type": "function"
    },
    {
      "inputs": [],
      "name": "versionRecipient",
      "outputs": [
        {
          "internalType": "string",
          "name": "",
          "type": "string"
        }
      ],
      "stateMutability": "pure",
      "type": "function"
    },
    {
      "inputs": [],
      "name": "watermark",
      "outputs": [
        {
          "internalType": "uint256",
          "name": "",
          "type": "uint256"
        }
      ],
      "stateMutability": "view",
      "type": "function"
    },
    {
      "inputs": [
        {
          "internalType": "uint256",
          "name": "share",
          "type": "uint256"
        }
      ],
      "name": "withdraw",
      "outputs": [],
      "stateMutability": "nonpayable",
      "type": "function"
    },
    {
      "inputs": [
        {
          "internalType": "address",
          "name": "account",
          "type": "address"
        },
        {
          "internalType": "uint256",
          "name": "share",
          "type": "uint256"
        }
      ],
      "name": "withdrawByAdmin",
      "outputs": [],
      "stateMutability": "nonpayable",
      "type": "function"
    },
    {
      "inputs": [],
      "name": "withdrawFees",
      "outputs": [],
      "stateMutability": "nonpayable",
      "type": "function"
    }
  ],
  "transactionHash": "0x841bb53cdbbba5a6b7cd15a4ec3e0642186fa314480db7b67f7ea86603d55b73",
  "args": [],
  "numDeployments": 1,
  "solcInputHash": "193be678b50e19b63a4c1742147ab0d4",
  "bytecode": "0x608060405234801561001057600080fd5b50613399806100206000396000f3fe608060405234801561001057600080fd5b50600436106102695760003560e01c80637da0a87711610151578063c54e44eb116100c3578063efca0d0711610087578063efca0d0714610526578063f13dc2e214610530578063f2fde38b14610539578063f851a4401461054c578063f8c8765e1461055f578063fdb5a03e1461057257600080fd5b8063c54e44eb146104db578063c89d5b8b146104f0578063db2e21bc146104f8578063dd62ed3e14610500578063df8879b81461051357600080fd5b8063a8602fea11610115578063a8602fea14610471578063a8c62e7614610484578063a9059cbb14610497578063ac25f689146104aa578063b6b55f25146104c0578063bd244af4146104d357600080fd5b80637da0a877146104285780638da5cb5b1461043b57806395d89b411461044c5780639af1d35a14610454578063a457c2d71461045e57600080fd5b80634626402b116101ea578063572b6c05116101ae578063572b6c05146103af5780635c975abb146103d1578063704b6c02146103dc57806370a08231146103ef578063715018a61461041857806377c7b8fc1461042057600080fd5b80634626402b14610344578063470343d81461036f578063476343ee14610377578063486ff0cd1461037f578063487c35801461039c57600080fd5b806323b872dd1161023157806323b872dd146102e95780632d9c7dcf146102fc5780632e1a7d4d1461030f578063313ce56714610322578063395093511461033157600080fd5b806306fdde031461026e578063095ea7b31461028c5780630b47b7ff146102af5780630d8b76a8146102c457806318160ddd146102d7575b600080fd5b61027661057a565b6040516102839190612d45565b60405180910390f35b61029f61029a366004612d8d565b61060c565b6040519015158152602001610283565b6102c26102bd366004612db9565b61062e565b005b6102c26102d2366004612dd2565b6106da565b6035545b604051908152602001610283565b61029f6102f7366004612def565b610785565b6102c261030a366004612d8d565b6107b5565b6102c261031d366004612db9565b610802565b60405160128152602001610283565b61029f61033f366004612d8d565b61080f565b60fd54610357906001600160a01b031681565b6040516001600160a01b039091168152602001610283565b6102c261083b565b6102c26108a7565b6040805180820190915260018152603160f81b6020820152610276565b6102c26103aa366004612d8d565b610a13565b61029f6103bd366004612dd2565b60fb546001600160a01b0391821691161490565b60c95460ff1661029f565b6102c26103ea366004612dd2565b610a5c565b6102db6103fd366004612dd2565b6001600160a01b031660009081526033602052604090205490565b6102c2610aff565b6102db610b52565b60fb54610357906001600160a01b031681565b6065546001600160a01b0316610357565b610276610b9f565b6102db6101015481565b61029f61046c366004612d8d565b610bae565b6102c261047f366004612dd2565b610c3f565b60fc54610357906001600160a01b031681565b61029f6104a5366004612d8d565b610ce2565b6104b2610cfa565b604051610283929190612e30565b6102c26104ce366004612db9565b610d8f565b6102db610da0565b61035760008051602061334483398151915281565b6102db610f09565b6102c2610f8b565b6102db61050e366004612eb4565b611064565b6102c2610521366004612eed565b61108f565b6102db6101005481565b6102db60ff5481565b6102c2610547366004612dd2565b611202565b60fe54610357906001600160a01b031681565b6102c261056d366004612f0f565b6112b9565b6102c26113ef565b60606036805461058990612f6b565b80601f01602080910402602001604051908101604052809291908181526020018280546105b590612f6b565b80156106025780601f106105d757610100808354040283529160200191610602565b820191906000526020600020905b8154815290600101906020018083116105e557829003601f168201915b5050505050905090565b6000806106176115cf565b90506106248185856115d9565b5060019392505050565b6106366115cf565b6001600160a01b03166106516065546001600160a01b031690565b6001600160a01b0316146106805760405162461bcd60e51b815260040161067790612fa6565b60405180910390fd5b610bb961010054106106d45760405162461bcd60e51b815260206004820152601760248201527f50726f666974206665652063616e6e6f74203e203330250000000000000000006044820152606401610677565b61010055565b6106e26115cf565b6001600160a01b03166106fd6065546001600160a01b031690565b6001600160a01b0316146107235760405162461bcd60e51b815260040161067790612fa6565b60fb80546001600160a01b038381166001600160a01b031983168117909355604080519190921680825260208201939093527f56b079178193d2a52b3949d9cd8bc5503daadffd4a704722e18b8325021a974191015b60405180910390a15050565b6000806107906115cf565b905061079d8582856116fd565b6107a8858585611777565b60019150505b9392505050565b6065546001600160a01b03163314806107d8575060fe546001600160a01b031633145b6107f45760405162461bcd60e51b815260040161067790612fdb565b6107fe8282611945565b5050565b61080c3382611bbc565b50565b60008061081a6115cf565b905061062481858561082c8589611064565b610836919061301e565b6115d9565b6065546001600160a01b031633148061085e575060fe546001600160a01b031633145b61087a5760405162461bcd60e51b815260040161067790612fdb565b60c95460ff161561089d5760405162461bcd60e51b815260040161067790613036565b6108a5611fcb565b565b6065546001600160a01b03163314806108ca575060fe546001600160a01b031633145b6108e65760405162461bcd60e51b815260040161067790612fdb565b60c95460ff16610a0b5760fc5460408051632f4912bd60e21b815290516000926001600160a01b03169163bd244af4916004808301926020929190829003018186803b15801561093557600080fd5b505afa158015610949573d6000803e3d6000fd5b505050506040513d601f19601f8201168201806040525081019061096d9190613060565b61010154909150600082821061098b57670de0b6b3a76400006109a8565b8261099e83670de0b6b3a7640000613079565b6109a89190613098565b60fc5460405163ed47d90960e01b8152600481018390529192506001600160a01b03169063ed47d90990602401600060405180830381600087803b1580156109ef57600080fd5b505af1158015610a03573d6000803e3d6000fd5b505050505050505b61080c6120e1565b6065546001600160a01b0316331480610a36575060fe546001600160a01b031633145b610a525760405162461bcd60e51b815260040161067790612fdb565b6107fe8282611bbc565b610a646115cf565b6001600160a01b0316610a7f6065546001600160a01b031690565b6001600160a01b031614610aa55760405162461bcd60e51b815260040161067790612fa6565b60fe80546001600160a01b038381166001600160a01b031983168117909355604080519190921680825260208201939093527f9f0ac88be9159761bacf6c9e7c294c397ebf594607f6b3f2f70e7e0841ea68e89101610779565b610b076115cf565b6001600160a01b0316610b226065546001600160a01b031690565b6001600160a01b031614610b485760405162461bcd60e51b815260040161067790612fa6565b6108a56000612255565b600080610b5e60355490565b905080610b7457670de0b6b3a764000091505090565b80610b7d610da0565b610b8f90670de0b6b3a7640000613079565b610b999190613098565b91505090565b60606037805461058990612f6b565b600080610bb96115cf565b90506000610bc78286611064565b905083811015610c275760405162461bcd60e51b815260206004820152602560248201527f45524332303a2064656372656173656420616c6c6f77616e63652062656c6f77604482015264207a65726f60d81b6064820152608401610677565b610c3482868684036115d9565b506001949350505050565b610c476115cf565b6001600160a01b0316610c626065546001600160a01b031690565b6001600160a01b031614610c885760405162461bcd60e51b815260040161067790612fa6565b60fd80546001600160a01b038381166001600160a01b031983168117909355604080519190921680825260208201939093527febcecb9db04071cf4b4ecc1e2e1e4603e74c9382d6e36c3531f0b62af4c78ed79101610779565b600080610ced6115cf565b9050610624818585611777565b60608060fc60009054906101000a90046001600160a01b03166001600160a01b0316634631b2466040518163ffffffff1660e01b815260040160006040518083038186803b158015610d4b57600080fd5b505afa158015610d5f573d6000803e3d6000fd5b505050506040513d6000823e601f3d908101601f19168201604052610d879190810190613190565b915091509091565b61080c610d9a6115cf565b82611945565b600080610daf60c95460ff1690565b15610e6157600080610dbf6122a7565b6040516370a0823160e01b8152306004820152919350915081908390600080516020613344833981519152906370a082319060240160206040518083038186803b158015610e0c57600080fd5b505afa158015610e20573d6000803e3d6000fd5b505050506040513d601f19601f82011682018060405250810190610e449190613060565b610e4e9190613079565b610e589190613098565b92505050610eea565b60fc60009054906101000a90046001600160a01b03166001600160a01b031663bd244af46040518163ffffffff1660e01b815260040160206040518083038186803b158015610eaf57600080fd5b505afa158015610ec3573d6000803e3d6000fd5b505050506040513d601f19601f82011682018060405250810190610ee79190613060565b90505b610101548111610efb576000610b99565b61010154610b999082613255565b60fc546040805163c89d5b8b60e01b815290516000926001600160a01b03169163c89d5b8b916004808301926020929190829003018186803b158015610f4e57600080fd5b505afa158015610f62573d6000803e3d6000fd5b505050506040513d601f19601f82011682018060405250810190610f869190613060565b905090565b6065546001600160a01b0316331480610fae575060fe546001600160a01b031633145b610fca5760405162461bcd60e51b815260040161067790612fdb565b60c95460ff1615610fed5760405162461bcd60e51b815260040161067790613036565b610ff561233e565b60fc60009054906101000a90046001600160a01b03166001600160a01b031663db2e21bc6040518163ffffffff1660e01b8152600401600060405180830381600087803b15801561104557600080fd5b505af1158015611059573d6000803e3d6000fd5b5050600060ff555050565b6001600160a01b03918216600090815260346020908152604080832093909416825291909152205490565b6065546001600160a01b03163314806110b2575060fe546001600160a01b031633145b6110ce5760405162461bcd60e51b815260040161067790612fdb565b60fc54604051636e21950f60e01b815260048101849052602481018390526000916001600160a01b031690636e21950f90604401602060405180830381600087803b15801561111c57600080fd5b505af1158015611130573d6000803e3d6000fd5b505050506040513d601f19601f820116820180604052508101906111549190613060565b905080156111fd5760fc546040516255f9e960e71b8152600481018390526001600160a01b0390911690632afcf48090602401600060405180830381600087803b1580156111a157600080fd5b505af11580156111b5573d6000803e3d6000fd5b505060408051868152602081018690529081018490527fe0b4077da7dfa5015ff10fab6a214f37acc1b23d745f30336942d17e07848c6b925060600190505b60405180910390a15b505050565b61120a6115cf565b6001600160a01b03166112256065546001600160a01b031690565b6001600160a01b03161461124b5760405162461bcd60e51b815260040161067790612fa6565b6001600160a01b0381166112b05760405162461bcd60e51b815260206004820152602660248201527f4f776e61626c653a206e6577206f776e657220697320746865207a65726f206160448201526564647265737360d01b6064820152608401610677565b61080c81612255565b60006112c560016123b4565b905080156112dd576000805461ff0019166101001790555b61132f60405180604001604052806015815260200174098deee5ae4d2e6d64086e4f2e0e8de4092dcc8caf605b1b815250604051806040016040528060038152602001624c434960e81b81525061243c565b61133761246d565b60fc80546001600160a01b038085166001600160a01b0319928316811790935560fd805489831690841617905560fe805488831690841617905560fb8054918716919092161790556107d0610100556113a2906000805160206133448339815191529060001961249c565b80156113e8576000805461ff0019169055604051600181527f7f26b83ff96e1f2b6a682f133852f6798a09c465da95921460cefb38474024989060200160405180910390a15b5050505050565b6065546001600160a01b0316331480611412575060fe546001600160a01b031633145b61142e5760405162461bcd60e51b815260040161067790612fdb565b60c95460ff166114775760405162461bcd60e51b815260206004820152601460248201527314185d5cd8589b194e881b9bdd081c185d5cd95960621b6044820152606401610677565b61147f6125f3565b6040516370a0823160e01b8152306004820152600090600080516020613344833981519152906370a082319060240160206040518083038186803b1580156114c657600080fd5b505afa1580156114da573d6000803e3d6000fd5b505050506040513d601f19601f820116820180604052508101906114fe9190613060565b9050801561080c576000806115116122a7565b90925090506000816115238486613079565b61152d9190613098565b60fc546040516255f9e960e71b8152600481018790529192506001600160a01b031690632afcf48090602401600060405180830381600087803b15801561157357600080fd5b505af1158015611587573d6000803e3d6000fd5b5050505061159681600161266f565b6040518481527fc13e24d2b0a3bacd5d1a7c514125a1e27323abf7c86f6d36597f8752bbd7eed79060200160405180910390a150505050565b6000610f866126e8565b6001600160a01b03831661163b5760405162461bcd60e51b8152602060048201526024808201527f45524332303a20617070726f76652066726f6d20746865207a65726f206164646044820152637265737360e01b6064820152608401610677565b6001600160a01b03821661169c5760405162461bcd60e51b815260206004820152602260248201527f45524332303a20617070726f766520746f20746865207a65726f206164647265604482015261737360f01b6064820152608401610677565b6001600160a01b0383811660008181526034602090815260408083209487168084529482529182902085905590518481527f8c5be1e5ebec7d5bd14f71427d1e84f3dd0314c0f7b2291e5b200ac8c7c3b925910160405180910390a3505050565b60006117098484611064565b9050600019811461177157818110156117645760405162461bcd60e51b815260206004820152601d60248201527f45524332303a20696e73756666696369656e7420616c6c6f77616e63650000006044820152606401610677565b61177184848484036115d9565b50505050565b6001600160a01b0383166117db5760405162461bcd60e51b815260206004820152602560248201527f45524332303a207472616e736665722066726f6d20746865207a65726f206164604482015264647265737360d81b6064820152608401610677565b6001600160a01b03821661183d5760405162461bcd60e51b815260206004820152602360248201527f45524332303a207472616e7366657220746f20746865207a65726f206164647260448201526265737360e81b6064820152608401610677565b6001600160a01b038316600090815260336020526040902054818110156118b55760405162461bcd60e51b815260206004820152602660248201527f45524332303a207472616e7366657220616d6f756e7420657863656564732062604482015265616c616e636560d01b6064820152608401610677565b6001600160a01b038085166000908152603360205260408082208585039055918516815290812080548492906118ec90849061301e565b92505081905550826001600160a01b0316846001600160a01b03167fddf252ad1be2c89b69c2b068fc378daa952ba7f163c4a11628f55a4df523b3ef8460405161193891815260200190565b60405180910390a3611771565b600260975414156119985760405162461bcd60e51b815260206004820152601f60248201527f5265656e7472616e637947756172643a207265656e7472616e742063616c6c006044820152606401610677565b600260975560c95460ff16156119c05760405162461bcd60e51b815260040161067790613036565b60008111611a025760405162461bcd60e51b815260206004820152600f60248201526e0416d6f756e74206d757374203e203608c1b6044820152606401610677565b6001600160a01b038216600090815261010260205260408120439055611a26610da0565b9050611a4260008051602061334483398151915284308561271c565b600080611a4d6122a7565b9092509050600081611a5f8487613079565b611a699190613098565b60ff5490915015611a7c57611a7c611fcb565b6000611a866120e1565b90508015611aec5760fc546040516255f9e960e71b8152600481018890526001600160a01b0390911690632afcf48090602401600060405180830381600087803b158015611ad357600080fd5b505af1158015611ae7573d6000803e3d6000fd5b505050505b611af782600161266f565b6000611b0260355490565b905060008115611b265786611b178584613079565b611b219190613098565b611b28565b835b90506103e8611b39826103e5613079565b611b439190613098565b9050611b4f8982612754565b604080516001600160a01b038b16815260208101869052600080516020613344833981519152818301526060810183905290517fd2f8022f659fd9c8c558f30c00fd5ee7038f7cb56da45095c3e0e7d48b3e0c4b9181900360800190a15050600160975550505050505050565b60026097541415611c0f5760405162461bcd60e51b815260206004820152601f60248201527f5265656e7472616e637947756172643a207265656e7472616e742063616c6c006044820152606401610677565b600260975580611c535760405162461bcd60e51b815260206004820152600f60248201526e0536861726573206d757374203e203608c1b6044820152606401610677565b6001600160a01b038216600090815260336020526040902054811115611cbb5760405162461bcd60e51b815260206004820152601c60248201527f4e6f7420656e6f75676820736861726520746f207769746864726177000000006044820152606401610677565b6001600160a01b03821660009081526101026020526040902054431415611d245760405162461bcd60e51b815260206004820152601a60248201527f57697468647261772077697468696e2073616d6520626c6f636b0000000000006044820152606401610677565b6000611d2f60355490565b90506000611d3b610da0565b9050600082611d4a8584613079565b611d549190613098565b905060006101015483611d67919061301e565b611d7983670de0b6b3a7640000613079565b611d839190613098565b9050611d9160c95460ff1690565b611e9b5760fc5460405163ed47d90960e01b8152600481018390526001600160a01b039091169063ed47d90990602401600060405180830381600087803b158015611ddb57600080fd5b505af1158015611def573d6000803e3d6000fd5b50506040516370a0823160e01b8152306004820152611e8b9250889150600080516020613344833981519152906370a082319060240160206040518083038186803b158015611e3d57600080fd5b505afa158015611e51573d6000803e3d6000fd5b505050506040513d601f19601f82011682018060405250810190611e759190613060565b6000805160206133448339815191529190612833565b611e9682600061266f565b611f57565b6040516370a0823160e01b8152306004820152600090670de0b6b3a7640000908390600080516020613344833981519152906370a082319060240160206040518083038186803b158015611eee57600080fd5b505afa158015611f02573d6000803e3d6000fd5b505050506040513d601f19601f82011682018060405250810190611f269190613060565b611f309190613079565b611f3a9190613098565b9050611f556000805160206133448339815191528883612833565b505b611f618686612863565b604080516001600160a01b038816815260208101849052600080516020613344833981519152818301526060810187905290517f457f950b75085c30ff780acd57bde642ff1316cc4aad9f286af2c1ffc4163a789181900360800190a15050600160975550505050565b60fc5460408051632f4912bd60e21b815290516000926001600160a01b03169163bd244af4916004808301926020929190829003018186803b15801561201057600080fd5b505afa158015612024573d6000803e3d6000fd5b505050506040513d601f19601f820116820180604052508101906120489190613060565b60ff549091506000818311156120a35760006120648385613255565b905061271061010054826120789190613079565b6120829190613098565b9150816101016000828254612097919061301e565b90915550505060ff8390555b60408051848152602081018490529081018290527fa3e3c8c92ed1e364d04865f99cd96c3ae8f5a7d800f4a1d8148a58c6de6f1b71906060016111f4565b6040516370a0823160e01b8152306004820152600090600080516020613344833981519152906370a082319060240160206040518083038186803b15801561212857600080fd5b505afa15801561213c573d6000803e3d6000fd5b505050506040513d601f19601f820116820180604052508101906121609190613060565b610101549091508015612251576000806121786122a7565b909250905060008261218a8386613079565b6121949190613098565b9050848110156121b357600093506121ac8186613255565b94506121db565b816121be8487613079565b6121c89190613098565b6121d29085613255565b60009590945090505b61010184905560fd5461220790600080516020613344833981519152906001600160a01b031683612833565b6040805182815260008051602061334483398151915260208201527f6e027f1905abd7233c51c9483e29a545074ed10d39db528c9791a246b26741ff910160405180910390a15050505b5090565b606580546001600160a01b038381166001600160a01b0319831681179093556040519116919082907f8be0079c531659141344cd1fd0a4f28419497f9722a3daafe3b4186f6b6457e090600090a35050565b600080600073b97ad0e74fa7d920791e90258a6e2085088b43206001600160a01b03166350d25bcd6040518163ffffffff1660e01b815260040160206040518083038186803b1580156122f957600080fd5b505afa15801561230d573d6000803e3d6000fd5b505050506040513d601f19601f820116820180604052508101906123319190613060565b936305f5e1009350915050565b60c95460ff16156123615760405162461bcd60e51b815260040161067790613036565b60c9805460ff191660011790557f62e78cea01bee320cd4e420270b5ea74000d11b0c9f74754ebdbfc544b05a2586123976115cf565b6040516001600160a01b03909116815260200160405180910390a1565b60008054610100900460ff16156123fb578160ff1660011480156123d75750303b155b6123f35760405162461bcd60e51b81526004016106779061326c565b506000919050565b60005460ff8084169116106124225760405162461bcd60e51b81526004016106779061326c565b506000805460ff191660ff92909216919091179055600190565b600054610100900460ff166124635760405162461bcd60e51b8152600401610677906132ba565b6107fe82826129b1565b600054610100900460ff166124945760405162461bcd60e51b8152600401610677906132ba565b6108a56129ff565b8015806125255750604051636eb1769f60e11b81523060048201526001600160a01b03838116602483015284169063dd62ed3e9060440160206040518083038186803b1580156124eb57600080fd5b505afa1580156124ff573d6000803e3d6000fd5b505050506040513d601f19601f820116820180604052508101906125239190613060565b155b6125905760405162461bcd60e51b815260206004820152603660248201527f5361666545524332303a20617070726f76652066726f6d206e6f6e2d7a65726f60448201527520746f206e6f6e2d7a65726f20616c6c6f77616e636560501b6064820152608401610677565b6040516001600160a01b0383166024820152604481018290526111fd90849063095ea7b360e01b906064015b60408051601f198184030181529190526020810180516001600160e01b03166001600160e01b031990931692909217909152612a36565b60c95460ff1661263c5760405162461bcd60e51b815260206004820152601460248201527314185d5cd8589b194e881b9bdd081c185d5cd95960621b6044820152606401610677565b60c9805460ff191690557f5db9ee0a495bf2e6ff9c91a7834c1ba4fdd244a5e8aa4e537bd38aeae4b073aa6123976115cf565b60ff5460018215151461269f578260ff541161268c5760006126ad565b8260ff5461269a9190613255565b6126ad565b8260ff546126ad919061301e565b60ff81905560408051918252602082018390527f07b7fa586c4fdef11992d9448b97ba78814c23ddec7e1d4bf195fda6716e472691016111f4565b600060183610801590612705575060fb546001600160a01b031633145b15612717575060131936013560601c90565b503390565b6040516001600160a01b03808516602483015283166044820152606481018290526117719085906323b872dd60e01b906084016125bc565b6001600160a01b0382166127aa5760405162461bcd60e51b815260206004820152601f60248201527f45524332303a206d696e7420746f20746865207a65726f2061646472657373006044820152606401610677565b80603560008282546127bc919061301e565b90915550506001600160a01b038216600090815260336020526040812080548392906127e990849061301e565b90915550506040518181526001600160a01b038316906000907fddf252ad1be2c89b69c2b068fc378daa952ba7f163c4a11628f55a4df523b3ef9060200160405180910390a35050565b6040516001600160a01b0383166024820152604481018290526111fd90849063a9059cbb60e01b906064016125bc565b6001600160a01b0382166128c35760405162461bcd60e51b815260206004820152602160248201527f45524332303a206275726e2066726f6d20746865207a65726f206164647265736044820152607360f81b6064820152608401610677565b6001600160a01b038216600090815260336020526040902054818110156129375760405162461bcd60e51b815260206004820152602260248201527f45524332303a206275726e20616d6f756e7420657863656564732062616c616e604482015261636560f01b6064820152608401610677565b6001600160a01b0383166000908152603360205260408120838303905560358054849290612966908490613255565b90915550506040518281526000906001600160a01b038516907fddf252ad1be2c89b69c2b068fc378daa952ba7f163c4a11628f55a4df523b3ef9060200160405180910390a3505050565b600054610100900460ff166129d85760405162461bcd60e51b8152600401610677906132ba565b81516129eb906036906020850190612c89565b5080516111fd906037906020840190612c89565b600054610100900460ff16612a265760405162461bcd60e51b8152600401610677906132ba565b6108a5612a316115cf565b612255565b6000612a8b826040518060400160405280602081526020017f5361666545524332303a206c6f772d6c6576656c2063616c6c206661696c6564815250856001600160a01b0316612b089092919063ffffffff16565b8051909150156111fd5780806020019051810190612aa99190613305565b6111fd5760405162461bcd60e51b815260206004820152602a60248201527f5361666545524332303a204552433230206f7065726174696f6e20646964206e6044820152691bdd081cdd58d8d9595960b21b6064820152608401610677565b6060612b178484600085612b1f565b949350505050565b606082471015612b805760405162461bcd60e51b815260206004820152602660248201527f416464726573733a20696e73756666696369656e742062616c616e636520666f6044820152651c8818d85b1b60d21b6064820152608401610677565b6001600160a01b0385163b612bd75760405162461bcd60e51b815260206004820152601d60248201527f416464726573733a2063616c6c20746f206e6f6e2d636f6e74726163740000006044820152606401610677565b600080866001600160a01b03168587604051612bf39190613327565b60006040518083038185875af1925050503d8060008114612c30576040519150601f19603f3d011682016040523d82523d6000602084013e612c35565b606091505b5091509150612c45828286612c50565b979650505050505050565b60608315612c5f5750816107ae565b825115612c6f5782518084602001fd5b8160405162461bcd60e51b81526004016106779190612d45565b828054612c9590612f6b565b90600052602060002090601f016020900481019282612cb75760008555612cfd565b82601f10612cd057805160ff1916838001178555612cfd565b82800160010185558215612cfd579182015b82811115612cfd578251825591602001919060010190612ce2565b506122519291505b808211156122515760008155600101612d05565b60005b83811015612d34578181015183820152602001612d1c565b838111156117715750506000910152565b6020815260008251806020840152612d64816040850160208701612d19565b601f01601f19169190910160400192915050565b6001600160a01b038116811461080c57600080fd5b60008060408385031215612da057600080fd5b8235612dab81612d78565b946020939093013593505050565b600060208284031215612dcb57600080fd5b5035919050565b600060208284031215612de457600080fd5b81356107ae81612d78565b600080600060608486031215612e0457600080fd5b8335612e0f81612d78565b92506020840135612e1f81612d78565b929592945050506040919091013590565b604080825283519082018190526000906020906060840190828701845b82811015612e725781516001600160a01b031684529284019290840190600101612e4d565b5050508381038285015284518082528583019183019060005b81811015612ea757835183529284019291840191600101612e8b565b5090979650505050505050565b60008060408385031215612ec757600080fd5b8235612ed281612d78565b91506020830135612ee281612d78565b809150509250929050565b60008060408385031215612f0057600080fd5b50508035926020909101359150565b60008060008060808587031215612f2557600080fd5b8435612f3081612d78565b93506020850135612f4081612d78565b92506040850135612f5081612d78565b91506060850135612f6081612d78565b939692955090935050565b600181811c90821680612f7f57607f821691505b60208210811415612fa057634e487b7160e01b600052602260045260246000fd5b50919050565b6020808252818101527f4f776e61626c653a2063616c6c6572206973206e6f7420746865206f776e6572604082015260600190565b60208082526013908201527227b7363c9037bbb732b91037b91030b236b4b760691b604082015260600190565b634e487b7160e01b600052601160045260246000fd5b6000821982111561303157613031613008565b500190565b60208082526010908201526f14185d5cd8589b194e881c185d5cd95960821b604082015260600190565b60006020828403121561307257600080fd5b5051919050565b600081600019048311821515161561309357613093613008565b500290565b6000826130b557634e487b7160e01b600052601260045260246000fd5b500490565b634e487b7160e01b600052604160045260246000fd5b604051601f8201601f1916810167ffffffffffffffff811182821017156130f9576130f96130ba565b604052919050565b600067ffffffffffffffff82111561311b5761311b6130ba565b5060051b60200190565b600082601f83011261313657600080fd5b8151602061314b61314683613101565b6130d0565b82815260059290921b8401810191818101908684111561316a57600080fd5b8286015b84811015613185578051835291830191830161316e565b509695505050505050565b600080604083850312156131a357600080fd5b825167ffffffffffffffff808211156131bb57600080fd5b818501915085601f8301126131cf57600080fd5b815160206131df61314683613101565b82815260059290921b840181019181810190898411156131fe57600080fd5b948201945b8386101561322557855161321681612d78565b82529482019490820190613203565b9188015191965090935050508082111561323e57600080fd5b5061324b85828601613125565b9150509250929050565b60008282101561326757613267613008565b500390565b6020808252602e908201527f496e697469616c697a61626c653a20636f6e747261637420697320616c72656160408201526d191e481a5b9a5d1a585b1a5e995960921b606082015260800190565b6020808252602b908201527f496e697469616c697a61626c653a20636f6e7472616374206973206e6f74206960408201526a6e697469616c697a696e6760a81b606082015260800190565b60006020828403121561331757600080fd5b815180151581146107ae57600080fd5b60008251613339818460208701612d19565b919091019291505056fe00000000000000000000000055d398326f99059ff775485246999027b3197955a2646970667358221220276021de4eb7bfca121a410254a91eedaa48084e855929eff2e2d23cd2266eaa64736f6c63430008090033",
  "devdoc": {
    "kind": "dev",
    "methods": {
      "allowance(address,address)": {
        "details": "See {IERC20-allowance}."
      },
      "approve(address,uint256)": {
        "details": "See {IERC20-approve}. NOTE: If `amount` is the maximum `uint256`, the allowance is not updated on `transferFrom`. This is semantically equivalent to an infinite approval. Requirements: - `spender` cannot be the zero address."
      },
      "balanceOf(address)": {
        "details": "See {IERC20-balanceOf}."
      },
      "decimals()": {
        "details": "Returns the number of decimals used to get its user representation. For example, if `decimals` equals `2`, a balance of `505` tokens should be displayed to a user as `5.05` (`505 / 10 ** 2`). Tokens usually opt for a value of 18, imitating the relationship between Ether and Wei. This is the value {ERC20} uses, unless this function is overridden; NOTE: This information is only used for _display_ purposes: it in no way affects any of the arithmetic of the contract, including {IERC20-balanceOf} and {IERC20-transfer}."
      },
      "decreaseAllowance(address,uint256)": {
        "details": "Atomically decreases the allowance granted to `spender` by the caller. This is an alternative to {approve} that can be used as a mitigation for problems described in {IERC20-approve}. Emits an {Approval} event indicating the updated allowance. Requirements: - `spender` cannot be the zero address. - `spender` must have allowance for the caller of at least `subtractedValue`."
      },
      "increaseAllowance(address,uint256)": {
        "details": "Atomically increases the allowance granted to `spender` by the caller. This is an alternative to {approve} that can be used as a mitigation for problems described in {IERC20-approve}. Emits an {Approval} event indicating the updated allowance. Requirements: - `spender` cannot be the zero address."
      },
      "name()": {
        "details": "Returns the name of the token."
      },
      "owner()": {
        "details": "Returns the address of the current owner."
      },
      "paused()": {
        "details": "Returns true if the contract is paused, and false otherwise."
      },
      "renounceOwnership()": {
        "details": "Leaves the contract without owner. It will not be possible to call `onlyOwner` functions anymore. Can only be called by the current owner. NOTE: Renouncing ownership will leave the contract without an owner, thereby removing any functionality that is only available to the owner."
      },
      "symbol()": {
        "details": "Returns the symbol of the token, usually a shorter version of the name."
      },
      "totalSupply()": {
        "details": "See {IERC20-totalSupply}."
      },
      "transfer(address,uint256)": {
        "details": "See {IERC20-transfer}. Requirements: - `to` cannot be the zero address. - the caller must have a balance of at least `amount`."
      },
      "transferFrom(address,address,uint256)": {
        "details": "See {IERC20-transferFrom}. Emits an {Approval} event indicating the updated allowance. This is not required by the EIP. See the note at the beginning of {ERC20}. NOTE: Does not update the allowance if the current allowance is the maximum `uint256`. Requirements: - `from` and `to` cannot be the zero address. - `from` must have a balance of at least `amount`. - the caller must have allowance for ``from``'s tokens of at least `amount`."
      },
      "transferOwnership(address)": {
        "details": "Transfers ownership of the contract to a new account (`newOwner`). Can only be called by the current owner."
      }
    },
    "version": 1
  },
  "userdoc": {
    "kind": "user",
    "methods": {
      "getPricePerFullShare()": {
        "notice": "Can be use for calculate both user shares & APR    "
      },
      "isTrustedForwarder(address)": {
        "notice": "return if the forwarder is trusted to forward relayed transactions to us. the forwarder is required to verify the sender's signature, and verify the call is not a replay."
      }
    },
    "version": 1
  },
  "storageLayout": {
    "storage": [
      {
        "astId": 130,
        "contract": "contracts/lci/LCIVault.sol:LCIVault",
        "label": "_initialized",
        "offset": 0,
        "slot": "0",
        "type": "t_uint8"
      },
      {
        "astId": 133,
        "contract": "contracts/lci/LCIVault.sol:LCIVault",
        "label": "_initializing",
        "offset": 1,
        "slot": "0",
        "type": "t_bool"
      },
      {
        "astId": 1657,
        "contract": "contracts/lci/LCIVault.sol:LCIVault",
        "label": "__gap",
        "offset": 0,
        "slot": "1",
        "type": "t_array(t_uint256)50_storage"
      },
      {
        "astId": 454,
        "contract": "contracts/lci/LCIVault.sol:LCIVault",
        "label": "_balances",
        "offset": 0,
        "slot": "51",
        "type": "t_mapping(t_address,t_uint256)"
      },
      {
        "astId": 460,
        "contract": "contracts/lci/LCIVault.sol:LCIVault",
        "label": "_allowances",
        "offset": 0,
        "slot": "52",
        "type": "t_mapping(t_address,t_mapping(t_address,t_uint256))"
      },
      {
        "astId": 462,
        "contract": "contracts/lci/LCIVault.sol:LCIVault",
        "label": "_totalSupply",
        "offset": 0,
        "slot": "53",
        "type": "t_uint256"
      },
      {
        "astId": 464,
        "contract": "contracts/lci/LCIVault.sol:LCIVault",
        "label": "_name",
        "offset": 0,
        "slot": "54",
        "type": "t_string_storage"
      },
      {
        "astId": 466,
        "contract": "contracts/lci/LCIVault.sol:LCIVault",
        "label": "_symbol",
        "offset": 0,
        "slot": "55",
        "type": "t_string_storage"
      },
      {
        "astId": 1045,
        "contract": "contracts/lci/LCIVault.sol:LCIVault",
        "label": "__gap",
        "offset": 0,
        "slot": "56",
        "type": "t_array(t_uint256)45_storage"
      },
      {
        "astId": 10,
        "contract": "contracts/lci/LCIVault.sol:LCIVault",
        "label": "_owner",
        "offset": 0,
        "slot": "101",
        "type": "t_address"
      },
      {
        "astId": 122,
        "contract": "contracts/lci/LCIVault.sol:LCIVault",
        "label": "__gap",
        "offset": 0,
        "slot": "102",
        "type": "t_array(t_uint256)49_storage"
      },
      {
        "astId": 390,
        "contract": "contracts/lci/LCIVault.sol:LCIVault",
        "label": "_status",
        "offset": 0,
        "slot": "151",
        "type": "t_uint256"
      },
      {
        "astId": 434,
        "contract": "contracts/lci/LCIVault.sol:LCIVault",
        "label": "__gap",
        "offset": 0,
        "slot": "152",
        "type": "t_array(t_uint256)49_storage"
      },
      {
        "astId": 286,
        "contract": "contracts/lci/LCIVault.sol:LCIVault",
        "label": "_paused",
        "offset": 0,
        "slot": "201",
        "type": "t_bool"
      },
      {
        "astId": 375,
        "contract": "contracts/lci/LCIVault.sol:LCIVault",
        "label": "__gap",
        "offset": 0,
        "slot": "202",
        "type": "t_array(t_uint256)49_storage"
      },
      {
        "astId": 27775,
        "contract": "contracts/lci/LCIVault.sol:LCIVault",
        "label": "trustedForwarder",
        "offset": 0,
        "slot": "251",
        "type": "t_address"
      },
      {
        "astId": 15326,
        "contract": "contracts/lci/LCIVault.sol:LCIVault",
        "label": "strategy",
        "offset": 0,
        "slot": "252",
        "type": "t_contract(IStrategy)15303"
      },
      {
        "astId": 15328,
        "contract": "contracts/lci/LCIVault.sol:LCIVault",
        "label": "treasuryWallet",
        "offset": 0,
        "slot": "253",
        "type": "t_address"
      },
      {
        "astId": 15330,
        "contract": "contracts/lci/LCIVault.sol:LCIVault",
        "label": "admin",
        "offset": 0,
        "slot": "254",
        "type": "t_address"
      },
      {
        "astId": 15335,
        "contract": "contracts/lci/LCIVault.sol:LCIVault",
        "label": "watermark",
        "offset": 0,
        "slot": "255",
        "type": "t_uint256"
      },
      {
        "astId": 15337,
        "contract": "contracts/lci/LCIVault.sol:LCIVault",
        "label": "profitFeePerc",
        "offset": 0,
        "slot": "256",
        "type": "t_uint256"
      },
      {
        "astId": 15339,
        "contract": "contracts/lci/LCIVault.sol:LCIVault",
        "label": "fees",
        "offset": 0,
        "slot": "257",
        "type": "t_uint256"
      },
      {
        "astId": 15343,
        "contract": "contracts/lci/LCIVault.sol:LCIVault",
        "label": "depositedBlock",
        "offset": 0,
        "slot": "258",
        "type": "t_mapping(t_address,t_uint256)"
      }
    ],
    "types": {
      "t_address": {
        "encoding": "inplace",
        "label": "address",
        "numberOfBytes": "20"
      },
      "t_array(t_uint256)45_storage": {
        "base": "t_uint256",
        "encoding": "inplace",
        "label": "uint256[45]",
        "numberOfBytes": "1440"
      },
      "t_array(t_uint256)49_storage": {
        "base": "t_uint256",
        "encoding": "inplace",
        "label": "uint256[49]",
        "numberOfBytes": "1568"
      },
      "t_array(t_uint256)50_storage": {
        "base": "t_uint256",
        "encoding": "inplace",
        "label": "uint256[50]",
        "numberOfBytes": "1600"
      },
      "t_bool": {
        "encoding": "inplace",
        "label": "bool",
        "numberOfBytes": "1"
      },
      "t_contract(IStrategy)15303": {
        "encoding": "inplace",
        "label": "contract IStrategy",
        "numberOfBytes": "20"
      },
      "t_mapping(t_address,t_mapping(t_address,t_uint256))": {
        "encoding": "mapping",
        "key": "t_address",
        "label": "mapping(address => mapping(address => uint256))",
        "numberOfBytes": "32",
        "value": "t_mapping(t_address,t_uint256)"
      },
      "t_mapping(t_address,t_uint256)": {
        "encoding": "mapping",
        "key": "t_address",
        "label": "mapping(address => uint256)",
        "numberOfBytes": "32",
        "value": "t_uint256"
      },
      "t_string_storage": {
        "encoding": "bytes",
        "label": "string",
        "numberOfBytes": "32"
      },
      "t_uint256": {
        "encoding": "inplace",
        "label": "uint256",
        "numberOfBytes": "32"
      },
      "t_uint8": {
        "encoding": "inplace",
        "label": "uint8",
        "numberOfBytes": "1"
      }
    }
  }
}