{
  "address": "0x84528B207c68336CB0Bf8fD84Bc980138a996BF7",
  "abi": [
    {
      "anonymous": false,
      "inputs": [
        {
          "indexed": false,
          "internalType": "uint256",
          "name": "currentWatermark",
          "type": "uint256"
        },
        {
          "indexed": false,
          "internalType": "uint256",
          "name": "lastWatermark",
          "type": "uint256"
        }
      ],
      "name": "AdjustWatermark",
      "type": "event"
    },
    {
      "anonymous": false,
      "inputs": [
        {
          "indexed": true,
          "internalType": "address",
          "name": "owner",
          "type": "address"
        },
        {
          "indexed": true,
          "internalType": "address",
          "name": "spender",
          "type": "address"
        },
        {
          "indexed": false,
          "internalType": "uint256",
          "name": "value",
          "type": "uint256"
        }
      ],
      "name": "Approval",
      "type": "event"
    },
    {
      "anonymous": false,
      "inputs": [
        {
          "indexed": false,
          "internalType": "uint256",
          "name": "currentWatermark",
          "type": "uint256"
        },
        {
          "indexed": false,
          "internalType": "uint256",
          "name": "lastWatermark",
          "type": "uint256"
        },
        {
          "indexed": false,
          "internalType": "uint256",
          "name": "fee",
          "type": "uint256"
        }
      ],
      "name": "CollectProfitAndUpdateWatermark",
      "type": "event"
    },
    {
      "anonymous": false,
      "inputs": [
        {
          "indexed": false,
          "internalType": "address",
          "name": "caller",
          "type": "address"
        },
        {
          "indexed": false,
          "internalType": "uint256",
          "name": "amtDeposit",
          "type": "uint256"
        },
        {
          "indexed": false,
          "internalType": "address",
          "name": "tokenDeposit",
          "type": "address"
        },
        {
          "indexed": false,
          "internalType": "uint256",
          "name": "shareMinted",
          "type": "uint256"
        }
      ],
      "name": "Deposit",
      "type": "event"
    },
    {
      "anonymous": false,
      "inputs": [
        {
          "indexed": false,
          "internalType": "uint8",
          "name": "version",
          "type": "uint8"
        }
      ],
      "name": "Initialized",
      "type": "event"
    },
    {
      "anonymous": false,
      "inputs": [
        {
          "indexed": true,
          "internalType": "address",
          "name": "previousOwner",
          "type": "address"
        },
        {
          "indexed": true,
          "internalType": "address",
          "name": "newOwner",
          "type": "address"
        }
      ],
      "name": "OwnershipTransferred",
      "type": "event"
    },
    {
      "anonymous": false,
      "inputs": [
        {
          "indexed": false,
          "internalType": "address",
          "name": "account",
          "type": "address"
        }
      ],
      "name": "Paused",
      "type": "event"
    },
    {
      "anonymous": false,
      "inputs": [
        {
          "indexed": false,
          "internalType": "uint256",
          "name": "farmIndex",
          "type": "uint256"
        },
        {
          "indexed": false,
          "internalType": "uint256",
          "name": "sharePerc",
          "type": "uint256"
        },
        {
          "indexed": false,
          "internalType": "uint256",
          "name": "amount",
          "type": "uint256"
        }
      ],
      "name": "Rebalance",
      "type": "event"
    },
    {
      "anonymous": false,
      "inputs": [
        {
          "indexed": false,
          "internalType": "uint256",
          "name": "amount",
          "type": "uint256"
        }
      ],
      "name": "Reinvest",
      "type": "event"
    },
    {
      "anonymous": false,
      "inputs": [
        {
          "indexed": false,
          "internalType": "address",
          "name": "oldAdmin",
          "type": "address"
        },
        {
          "indexed": false,
          "internalType": "address",
          "name": "newAdmin",
          "type": "address"
        }
      ],
      "name": "SetAdminWallet",
      "type": "event"
    },
    {
      "anonymous": false,
      "inputs": [
        {
          "indexed": false,
          "internalType": "address",
          "name": "oldBiconomy",
          "type": "address"
        },
        {
          "indexed": false,
          "internalType": "address",
          "name": "newBiconomy",
          "type": "address"
        }
      ],
      "name": "SetBiconomy",
      "type": "event"
    },
    {
      "anonymous": false,
      "inputs": [
        {
          "indexed": false,
          "internalType": "address",
          "name": "oldTreasuryWallet",
          "type": "address"
        },
        {
          "indexed": false,
          "internalType": "address",
          "name": "newTreasuryWallet",
          "type": "address"
        }
      ],
      "name": "SetTreasuryWallet",
      "type": "event"
    },
    {
      "anonymous": false,
      "inputs": [
        {
          "indexed": true,
          "internalType": "address",
          "name": "from",
          "type": "address"
        },
        {
          "indexed": true,
          "internalType": "address",
          "name": "to",
          "type": "address"
        },
        {
          "indexed": false,
          "internalType": "uint256",
          "name": "value",
          "type": "uint256"
        }
      ],
      "name": "Transfer",
      "type": "event"
    },
    {
      "anonymous": false,
      "inputs": [
        {
          "indexed": false,
          "internalType": "uint256",
          "name": "fees",
          "type": "uint256"
        },
        {
          "indexed": false,
          "internalType": "address",
          "name": "token",
          "type": "address"
        }
      ],
      "name": "TransferredOutFees",
      "type": "event"
    },
    {
      "anonymous": false,
      "inputs": [
        {
          "indexed": false,
          "internalType": "address",
          "name": "account",
          "type": "address"
        }
      ],
      "name": "Unpaused",
      "type": "event"
    },
    {
      "anonymous": false,
      "inputs": [
        {
          "indexed": false,
          "internalType": "address",
          "name": "caller",
          "type": "address"
        },
        {
          "indexed": false,
          "internalType": "uint256",
          "name": "amtWithdraw",
          "type": "uint256"
        },
        {
          "indexed": false,
          "internalType": "address",
          "name": "tokenWithdraw",
          "type": "address"
        },
        {
          "indexed": false,
          "internalType": "uint256",
          "name": "shareBurned",
          "type": "uint256"
        }
      ],
      "name": "Withdraw",
      "type": "event"
    },
    {
      "inputs": [],
      "name": "USDT",
      "outputs": [
        {
          "internalType": "contract IERC20Upgradeable",
          "name": "",
          "type": "address"
        }
      ],
      "stateMutability": "view",
      "type": "function"
    },
    {
      "inputs": [],
      "name": "admin",
      "outputs": [
        {
          "internalType": "address",
          "name": "",
          "type": "address"
        }
      ],
      "stateMutability": "view",
      "type": "function"
    },
    {
      "inputs": [
        {
          "internalType": "address",
          "name": "owner",
          "type": "address"
        },
        {
          "internalType": "address",
          "name": "spender",
          "type": "address"
        }
      ],
      "name": "allowance",
      "outputs": [
        {
          "internalType": "uint256",
          "name": "",
          "type": "uint256"
        }
      ],
      "stateMutability": "view",
      "type": "function"
    },
    {
      "inputs": [
        {
          "internalType": "address",
          "name": "spender",
          "type": "address"
        },
        {
          "internalType": "uint256",
          "name": "amount",
          "type": "uint256"
        }
      ],
      "name": "approve",
      "outputs": [
        {
          "internalType": "bool",
          "name": "",
          "type": "bool"
        }
      ],
      "stateMutability": "nonpayable",
      "type": "function"
    },
    {
      "inputs": [
        {
          "internalType": "address",
          "name": "account",
          "type": "address"
        }
      ],
      "name": "balanceOf",
      "outputs": [
        {
          "internalType": "uint256",
          "name": "",
          "type": "uint256"
        }
      ],
      "stateMutability": "view",
      "type": "function"
    },
    {
      "inputs": [],
      "name": "collectProfitAndUpdateWatermark",
      "outputs": [],
      "stateMutability": "nonpayable",
      "type": "function"
    },
    {
      "inputs": [],
      "name": "decimals",
      "outputs": [
        {
          "internalType": "uint8",
          "name": "",
          "type": "uint8"
        }
      ],
      "stateMutability": "view",
      "type": "function"
    },
    {
      "inputs": [
        {
          "internalType": "address",
          "name": "spender",
          "type": "address"
        },
        {
          "internalType": "uint256",
          "name": "subtractedValue",
          "type": "uint256"
        }
      ],
      "name": "decreaseAllowance",
      "outputs": [
        {
          "internalType": "bool",
          "name": "",
          "type": "bool"
        }
      ],
      "stateMutability": "nonpayable",
      "type": "function"
    },
    {
      "inputs": [
        {
          "internalType": "uint256",
          "name": "amount",
          "type": "uint256"
        }
      ],
      "name": "deposit",
      "outputs": [],
      "stateMutability": "nonpayable",
      "type": "function"
    },
    {
      "inputs": [
        {
          "internalType": "address",
          "name": "account",
          "type": "address"
        },
        {
          "internalType": "uint256",
          "name": "amount",
          "type": "uint256"
        }
      ],
      "name": "depositByAdmin",
      "outputs": [],
      "stateMutability": "nonpayable",
      "type": "function"
    },
    {
      "inputs": [],
      "name": "emergencyWithdraw",
      "outputs": [],
      "stateMutability": "nonpayable",
      "type": "function"
    },
    {
      "inputs": [],
      "name": "fees",
      "outputs": [
        {
          "internalType": "uint256",
          "name": "",
          "type": "uint256"
        }
      ],
      "stateMutability": "view",
      "type": "function"
    },
    {
      "inputs": [],
      "name": "getAPR",
      "outputs": [
        {
          "internalType": "uint256",
          "name": "",
          "type": "uint256"
        }
      ],
      "stateMutability": "view",
      "type": "function"
    },
    {
      "inputs": [],
      "name": "getAllPoolInUSD",
      "outputs": [
        {
          "internalType": "uint256",
          "name": "",
          "type": "uint256"
        }
      ],
      "stateMutability": "view",
      "type": "function"
    },
    {
      "inputs": [],
      "name": "getCurrentCompositionPerc",
      "outputs": [
        {
          "internalType": "address[]",
          "name": "tokens",
          "type": "address[]"
        },
        {
          "internalType": "uint256[]",
          "name": "percentages",
          "type": "uint256[]"
        }
      ],
      "stateMutability": "view",
      "type": "function"
    },
    {
      "inputs": [],
      "name": "getPricePerFullShare",
      "outputs": [
        {
          "internalType": "uint256",
          "name": "",
          "type": "uint256"
        }
      ],
      "stateMutability": "view",
      "type": "function"
    },
    {
      "inputs": [
        {
          "internalType": "address",
          "name": "spender",
          "type": "address"
        },
        {
          "internalType": "uint256",
          "name": "addedValue",
          "type": "uint256"
        }
      ],
      "name": "increaseAllowance",
      "outputs": [
        {
          "internalType": "bool",
          "name": "",
          "type": "bool"
        }
      ],
      "stateMutability": "nonpayable",
      "type": "function"
    },
    {
      "inputs": [
        {
          "internalType": "address",
          "name": "_treasuryWallet",
          "type": "address"
        },
        {
          "internalType": "address",
          "name": "_admin",
          "type": "address"
        },
        {
          "internalType": "address",
          "name": "_biconomy",
          "type": "address"
        },
        {
          "internalType": "address",
          "name": "_strategy",
          "type": "address"
        }
      ],
      "name": "initialize",
      "outputs": [],
      "stateMutability": "nonpayable",
      "type": "function"
    },
    {
      "inputs": [
        {
          "internalType": "address",
          "name": "forwarder",
          "type": "address"
        }
      ],
      "name": "isTrustedForwarder",
      "outputs": [
        {
          "internalType": "bool",
          "name": "",
          "type": "bool"
        }
      ],
      "stateMutability": "view",
      "type": "function"
    },
    {
      "inputs": [],
      "name": "name",
      "outputs": [
        {
          "internalType": "string",
          "name": "",
          "type": "string"
        }
      ],
      "stateMutability": "view",
      "type": "function"
    },
    {
      "inputs": [],
      "name": "owner",
      "outputs": [
        {
          "internalType": "address",
          "name": "",
          "type": "address"
        }
      ],
      "stateMutability": "view",
      "type": "function"
    },
    {
      "inputs": [],
      "name": "paused",
      "outputs": [
        {
          "internalType": "bool",
          "name": "",
          "type": "bool"
        }
      ],
      "stateMutability": "view",
      "type": "function"
    },
    {
      "inputs": [],
      "name": "profitFeePerc",
      "outputs": [
        {
          "internalType": "uint256",
          "name": "",
          "type": "uint256"
        }
      ],
      "stateMutability": "view",
      "type": "function"
    },
    {
      "inputs": [
        {
          "internalType": "uint256",
          "name": "farmIndex",
          "type": "uint256"
        },
        {
          "internalType": "uint256",
          "name": "sharePerc",
          "type": "uint256"
        }
      ],
      "name": "rebalance",
      "outputs": [],
      "stateMutability": "nonpayable",
      "type": "function"
    },
    {
      "inputs": [],
      "name": "reinvest",
      "outputs": [],
      "stateMutability": "nonpayable",
      "type": "function"
    },
    {
      "inputs": [],
      "name": "renounceOwnership",
      "outputs": [],
      "stateMutability": "nonpayable",
      "type": "function"
    },
    {
      "inputs": [
        {
          "internalType": "address",
          "name": "_admin",
          "type": "address"
        }
      ],
      "name": "setAdmin",
      "outputs": [],
      "stateMutability": "nonpayable",
      "type": "function"
    },
    {
      "inputs": [
        {
          "internalType": "address",
          "name": "_biconomy",
          "type": "address"
        }
      ],
      "name": "setBiconomy",
      "outputs": [],
      "stateMutability": "nonpayable",
      "type": "function"
    },
    {
      "inputs": [
        {
          "internalType": "uint256",
          "name": "_profitFeePerc",
          "type": "uint256"
        }
      ],
      "name": "setProfitFeePerc",
      "outputs": [],
      "stateMutability": "nonpayable",
      "type": "function"
    },
    {
      "inputs": [
        {
          "internalType": "address",
          "name": "_treasuryWallet",
          "type": "address"
        }
      ],
      "name": "setTreasuryWallet",
      "outputs": [],
      "stateMutability": "nonpayable",
      "type": "function"
    },
    {
      "inputs": [],
      "name": "strategy",
      "outputs": [
        {
          "internalType": "contract IStrategy",
          "name": "",
          "type": "address"
        }
      ],
      "stateMutability": "view",
      "type": "function"
    },
    {
      "inputs": [],
      "name": "symbol",
      "outputs": [
        {
          "internalType": "string",
          "name": "",
          "type": "string"
        }
      ],
      "stateMutability": "view",
      "type": "function"
    },
    {
      "inputs": [],
      "name": "totalSupply",
      "outputs": [
        {
          "internalType": "uint256",
          "name": "",
          "type": "uint256"
        }
      ],
      "stateMutability": "view",
      "type": "function"
    },
    {
      "inputs": [
        {
          "internalType": "address",
          "name": "to",
          "type": "address"
        },
        {
          "internalType": "uint256",
          "name": "amount",
          "type": "uint256"
        }
      ],
      "name": "transfer",
      "outputs": [
        {
          "internalType": "bool",
          "name": "",
          "type": "bool"
        }
      ],
      "stateMutability": "nonpayable",
      "type": "function"
    },
    {
      "inputs": [
        {
          "internalType": "address",
          "name": "from",
          "type": "address"
        },
        {
          "internalType": "address",
          "name": "to",
          "type": "address"
        },
        {
          "internalType": "uint256",
          "name": "amount",
          "type": "uint256"
        }
      ],
      "name": "transferFrom",
      "outputs": [
        {
          "internalType": "bool",
          "name": "",
          "type": "bool"
        }
      ],
      "stateMutability": "nonpayable",
      "type": "function"
    },
    {
      "inputs": [
        {
          "internalType": "address",
          "name": "newOwner",
          "type": "address"
        }
      ],
      "name": "transferOwnership",
      "outputs": [],
      "stateMutability": "nonpayable",
      "type": "function"
    },
    {
      "inputs": [],
      "name": "treasuryWallet",
      "outputs": [
        {
          "internalType": "address",
          "name": "",
          "type": "address"
        }
      ],
      "stateMutability": "view",
      "type": "function"
    },
    {
      "inputs": [],
      "name": "trustedForwarder",
      "outputs": [
        {
          "internalType": "address",
          "name": "",
          "type": "address"
        }
      ],
      "stateMutability": "view",
      "type": "function"
    },
    {
      "inputs": [],
      "name": "versionRecipient",
      "outputs": [
        {
          "internalType": "string",
          "name": "",
          "type": "string"
        }
      ],
      "stateMutability": "pure",
      "type": "function"
    },
    {
      "inputs": [],
      "name": "watermark",
      "outputs": [
        {
          "internalType": "uint256",
          "name": "",
          "type": "uint256"
        }
      ],
      "stateMutability": "view",
      "type": "function"
    },
    {
      "inputs": [
        {
          "internalType": "uint256",
          "name": "share",
          "type": "uint256"
        }
      ],
      "name": "withdraw",
      "outputs": [],
      "stateMutability": "nonpayable",
      "type": "function"
    },
    {
      "inputs": [
        {
          "internalType": "address",
          "name": "account",
          "type": "address"
        },
        {
          "internalType": "uint256",
          "name": "share",
          "type": "uint256"
        }
      ],
      "name": "withdrawByAdmin",
      "outputs": [],
      "stateMutability": "nonpayable",
      "type": "function"
    },
    {
      "inputs": [],
      "name": "withdrawFees",
      "outputs": [],
      "stateMutability": "nonpayable",
      "type": "function"
    }
  ],
  "transactionHash": "0xac63110e4f0fc4b726d574877acb92fefadfde4d009830d6ab0450b691adf2dc",
  "args": [],
  "numDeployments": 2,
  "solcInputHash": "9a335077fa45839f87120ae1e6af8ee1",
  "bytecode": "0x608060405234801561001057600080fd5b50613199806100206000396000f3fe608060405234801561001057600080fd5b50600436106102695760003560e01c80637da0a87711610151578063c54e44eb116100c3578063efca0d0711610087578063efca0d0714610526578063f13dc2e214610530578063f2fde38b14610539578063f851a4401461054c578063f8c8765e1461055f578063fdb5a03e1461057257600080fd5b8063c54e44eb146104db578063c89d5b8b146104f0578063db2e21bc146104f8578063dd62ed3e14610500578063df8879b81461051357600080fd5b8063a8602fea11610115578063a8602fea14610471578063a8c62e7614610484578063a9059cbb14610497578063ac25f689146104aa578063b6b55f25146104c0578063bd244af4146104d357600080fd5b80637da0a877146104285780638da5cb5b1461043b57806395d89b411461044c5780639af1d35a14610454578063a457c2d71461045e57600080fd5b80634626402b116101ea578063572b6c05116101ae578063572b6c05146103af5780635c975abb146103d1578063704b6c02146103dc57806370a08231146103ef578063715018a61461041857806377c7b8fc1461042057600080fd5b80634626402b14610344578063470343d81461036f578063476343ee14610377578063486ff0cd1461037f578063487c35801461039c57600080fd5b806323b872dd1161023157806323b872dd146102e95780632d9c7dcf146102fc5780632e1a7d4d1461030f578063313ce56714610322578063395093511461033157600080fd5b806306fdde031461026e578063095ea7b31461028c5780630b47b7ff146102af5780630d8b76a8146102c457806318160ddd146102d7575b600080fd5b61027661057a565b6040516102839190612bf2565b60405180910390f35b61029f61029a366004612c3a565b61060c565b6040519015158152602001610283565b6102c26102bd366004612c66565b61062e565b005b6102c26102d2366004612c7f565b610695565b6035545b604051908152602001610283565b61029f6102f7366004612c9c565b6106ff565b6102c261030a366004612c3a565b61072f565b6102c261031d366004612c66565b61077c565b60405160128152602001610283565b61029f61033f366004612c3a565b610789565b60fd54610357906001600160a01b031681565b6040516001600160a01b039091168152602001610283565b6102c26107b5565b6102c2610806565b6040805180820190915260018152603160f81b6020820152610276565b6102c26103aa366004612c3a565b610972565b61029f6103bd366004612c7f565b60fb546001600160a01b0391821691161490565b60c95460ff1661029f565b6102c26103ea366004612c7f565b6109bb565b6102db6103fd366004612c7f565b6001600160a01b031660009081526033602052604090205490565b6102c2610a1d565b6102db610a2f565b60fb54610357906001600160a01b031681565b6065546001600160a01b0316610357565b610276610a7c565b6102db6101015481565b61029f61046c366004612c3a565b610a8b565b6102c261047f366004612c7f565b610b1c565b60fc54610357906001600160a01b031681565b61029f6104a5366004612c3a565b610b7e565b6104b2610b96565b604051610283929190612cdd565b6102c26104ce366004612c66565b610c2b565b6102db610c3c565b61035760008051602061314483398151915281565b6102db610da5565b6102c2610e27565b6102db61050e366004612d61565b610ee5565b6102c2610521366004612d9a565b610f10565b6102db6101005481565b6102db60ff5481565b6102c2610547366004612c7f565b611083565b60fe54610357906001600160a01b031681565b6102c261056d366004612dbc565b6110f9565b6102c26112cb565b60606036805461058990612e18565b80601f01602080910402602001604051908101604052809291908181526020018280546105b590612e18565b80156106025780601f106105d757610100808354040283529160200191610602565b820191906000526020600020905b8154815290600101906020018083116105e557829003601f168201915b5050505050905090565b60008061061761146a565b9050610624818585611474565b5060019392505050565b610636611598565b610bb9610100541061068f5760405162461bcd60e51b815260206004820152601760248201527f50726f666974206665652063616e6e6f74203e2033302500000000000000000060448201526064015b60405180910390fd5b61010055565b61069d611598565b60fb80546001600160a01b038381166001600160a01b031983168117909355604080519190921680825260208201939093527f56b079178193d2a52b3949d9cd8bc5503daadffd4a704722e18b8325021a974191015b60405180910390a15050565b60008061070a61146a565b9050610717858285611611565b61072285858561168b565b60019150505b9392505050565b6065546001600160a01b0316331480610752575060fe546001600160a01b031633145b61076e5760405162461bcd60e51b815260040161068690612e53565b6107788282611859565b5050565b6107863382611abe565b50565b60008061079461146a565b90506106248185856107a68589610ee5565b6107b09190612e96565b611474565b6065546001600160a01b03163314806107d8575060fe546001600160a01b031633145b6107f45760405162461bcd60e51b815260040161068690612e53565b6107fc611ecd565b610804611f13565b565b6065546001600160a01b0316331480610829575060fe546001600160a01b031633145b6108455760405162461bcd60e51b815260040161068690612e53565b60c95460ff1661096a5760fc5460408051632f4912bd60e21b815290516000926001600160a01b03169163bd244af4916004808301926020929190829003018186803b15801561089457600080fd5b505afa1580156108a8573d6000803e3d6000fd5b505050506040513d601f19601f820116820180604052508101906108cc9190612eae565b6101015490915060008282106108ea57670de0b6b3a7640000610907565b826108fd83670de0b6b3a7640000612ec7565b6109079190612ee6565b60fc5460405163ed47d90960e01b8152600481018390529192506001600160a01b03169063ed47d90990602401600060405180830381600087803b15801561094e57600080fd5b505af1158015610962573d6000803e3d6000fd5b505050505050505b610786612029565b6065546001600160a01b0316331480610995575060fe546001600160a01b031633145b6109b15760405162461bcd60e51b815260040161068690612e53565b6107788282611abe565b6109c3611598565b60fe80546001600160a01b038381166001600160a01b031983168117909355604080519190921680825260208201939093527f9f0ac88be9159761bacf6c9e7c294c397ebf594607f6b3f2f70e7e0841ea68e891016106f3565b610a25611598565b610804600061219d565b600080610a3b60355490565b905080610a5157670de0b6b3a764000091505090565b80610a5a610c3c565b610a6c90670de0b6b3a7640000612ec7565b610a769190612ee6565b91505090565b60606037805461058990612e18565b600080610a9661146a565b90506000610aa48286610ee5565b905083811015610b045760405162461bcd60e51b815260206004820152602560248201527f45524332303a2064656372656173656420616c6c6f77616e63652062656c6f77604482015264207a65726f60d81b6064820152608401610686565b610b118286868403611474565b506001949350505050565b610b24611598565b60fd80546001600160a01b038381166001600160a01b031983168117909355604080519190921680825260208201939093527febcecb9db04071cf4b4ecc1e2e1e4603e74c9382d6e36c3531f0b62af4c78ed791016106f3565b600080610b8961146a565b905061062481858561168b565b60608060fc60009054906101000a90046001600160a01b03166001600160a01b0316634631b2466040518163ffffffff1660e01b815260040160006040518083038186803b158015610be757600080fd5b505afa158015610bfb573d6000803e3d6000fd5b505050506040513d6000823e601f3d908101601f19168201604052610c239190810190612fde565b915091509091565b610786610c3661146a565b82611859565b600080610c4b60c95460ff1690565b15610cfd57600080610c5b6121ef565b6040516370a0823160e01b8152306004820152919350915081908390600080516020613144833981519152906370a082319060240160206040518083038186803b158015610ca857600080fd5b505afa158015610cbc573d6000803e3d6000fd5b505050506040513d601f19601f82011682018060405250810190610ce09190612eae565b610cea9190612ec7565b610cf49190612ee6565b92505050610d86565b60fc60009054906101000a90046001600160a01b03166001600160a01b031663bd244af46040518163ffffffff1660e01b815260040160206040518083038186803b158015610d4b57600080fd5b505afa158015610d5f573d6000803e3d6000fd5b505050506040513d601f19601f82011682018060405250810190610d839190612eae565b90505b610101548111610d97576000610a76565b61010154610a7690826130a3565b60fc546040805163c89d5b8b60e01b815290516000926001600160a01b03169163c89d5b8b916004808301926020929190829003018186803b158015610dea57600080fd5b505afa158015610dfe573d6000803e3d6000fd5b505050506040513d601f19601f82011682018060405250810190610e229190612eae565b905090565b6065546001600160a01b0316331480610e4a575060fe546001600160a01b031633145b610e665760405162461bcd60e51b815260040161068690612e53565b610e6e611ecd565b610e76612286565b60fc60009054906101000a90046001600160a01b03166001600160a01b031663db2e21bc6040518163ffffffff1660e01b8152600401600060405180830381600087803b158015610ec657600080fd5b505af1158015610eda573d6000803e3d6000fd5b5050600060ff555050565b6001600160a01b03918216600090815260346020908152604080832093909416825291909152205490565b6065546001600160a01b0316331480610f33575060fe546001600160a01b031633145b610f4f5760405162461bcd60e51b815260040161068690612e53565b60fc54604051636e21950f60e01b815260048101849052602481018390526000916001600160a01b031690636e21950f90604401602060405180830381600087803b158015610f9d57600080fd5b505af1158015610fb1573d6000803e3d6000fd5b505050506040513d601f19601f82011682018060405250810190610fd59190612eae565b9050801561107e5760fc546040516255f9e960e71b8152600481018390526001600160a01b0390911690632afcf48090602401600060405180830381600087803b15801561102257600080fd5b505af1158015611036573d6000803e3d6000fd5b505060408051868152602081018690529081018490527fe0b4077da7dfa5015ff10fab6a214f37acc1b23d745f30336942d17e07848c6b925060600190505b60405180910390a15b505050565b61108b611598565b6001600160a01b0381166110f05760405162461bcd60e51b815260206004820152602660248201527f4f776e61626c653a206e6577206f776e657220697320746865207a65726f206160448201526564647265737360d01b6064820152608401610686565b6107868161219d565b600054610100900460ff16158080156111195750600054600160ff909116105b806111335750303b158015611133575060005460ff166001145b6111965760405162461bcd60e51b815260206004820152602e60248201527f496e697469616c697a61626c653a20636f6e747261637420697320616c72656160448201526d191e481a5b9a5d1a585b1a5e995960921b6064820152608401610686565b6000805460ff1916600117905580156111b9576000805461ff0019166101001790555b61120b60405180604001604052806015815260200174098deee5ae4d2e6d64086e4f2e0e8de4092dcc8caf605b1b815250604051806040016040528060038152602001624c434960e81b8152506122e1565b611213612312565b60fc80546001600160a01b038085166001600160a01b0319928316811790935560fd805489831690841617905560fe805488831690841617905560fb8054918716919092161790556107d06101005561127e9060008051602061314483398151915290600019612341565b80156112c4576000805461ff0019169055604051600181527f7f26b83ff96e1f2b6a682f133852f6798a09c465da95921460cefb38474024989060200160405180910390a15b5050505050565b6065546001600160a01b03163314806112ee575060fe546001600160a01b031633145b61130a5760405162461bcd60e51b815260040161068690612e53565b611312612498565b61131a6124e1565b6040516370a0823160e01b8152306004820152600090600080516020613144833981519152906370a082319060240160206040518083038186803b15801561136157600080fd5b505afa158015611375573d6000803e3d6000fd5b505050506040513d601f19601f820116820180604052508101906113999190612eae565b90508015610786576000806113ac6121ef565b90925090506000816113be8486612ec7565b6113c89190612ee6565b60fc546040516255f9e960e71b8152600481018790529192506001600160a01b031690632afcf48090602401600060405180830381600087803b15801561140e57600080fd5b505af1158015611422573d6000803e3d6000fd5b5050505061143181600161251c565b6040518481527fc13e24d2b0a3bacd5d1a7c514125a1e27323abf7c86f6d36597f8752bbd7eed79060200160405180910390a150505050565b6000610e22612595565b6001600160a01b0383166114d65760405162461bcd60e51b8152602060048201526024808201527f45524332303a20617070726f76652066726f6d20746865207a65726f206164646044820152637265737360e01b6064820152608401610686565b6001600160a01b0382166115375760405162461bcd60e51b815260206004820152602260248201527f45524332303a20617070726f766520746f20746865207a65726f206164647265604482015261737360f01b6064820152608401610686565b6001600160a01b0383811660008181526034602090815260408083209487168084529482529182902085905590518481527f8c5be1e5ebec7d5bd14f71427d1e84f3dd0314c0f7b2291e5b200ac8c7c3b925910160405180910390a3505050565b6115a061146a565b6001600160a01b03166115bb6065546001600160a01b031690565b6001600160a01b0316146108045760405162461bcd60e51b815260206004820181905260248201527f4f776e61626c653a2063616c6c6572206973206e6f7420746865206f776e65726044820152606401610686565b600061161d8484610ee5565b9050600019811461168557818110156116785760405162461bcd60e51b815260206004820152601d60248201527f45524332303a20696e73756666696369656e7420616c6c6f77616e63650000006044820152606401610686565b6116858484848403611474565b50505050565b6001600160a01b0383166116ef5760405162461bcd60e51b815260206004820152602560248201527f45524332303a207472616e736665722066726f6d20746865207a65726f206164604482015264647265737360d81b6064820152608401610686565b6001600160a01b0382166117515760405162461bcd60e51b815260206004820152602360248201527f45524332303a207472616e7366657220746f20746865207a65726f206164647260448201526265737360e81b6064820152608401610686565b6001600160a01b038316600090815260336020526040902054818110156117c95760405162461bcd60e51b815260206004820152602660248201527f45524332303a207472616e7366657220616d6f756e7420657863656564732062604482015265616c616e636560d01b6064820152608401610686565b6001600160a01b03808516600090815260336020526040808220858503905591851681529081208054849290611800908490612e96565b92505081905550826001600160a01b0316846001600160a01b03167fddf252ad1be2c89b69c2b068fc378daa952ba7f163c4a11628f55a4df523b3ef8460405161184c91815260200190565b60405180910390a3611685565b600260975414156118ac5760405162461bcd60e51b815260206004820152601f60248201527f5265656e7472616e637947756172643a207265656e7472616e742063616c6c006044820152606401610686565b60026097556118b9611ecd565b600081116118fb5760405162461bcd60e51b815260206004820152600f60248201526e0416d6f756e74206d757374203e203608c1b6044820152606401610686565b6001600160a01b03821660009081526101026020526040812043905561191f610c3c565b905061193b6000805160206131448339815191528430856125c9565b6000806119466121ef565b90925090506000816119588487612ec7565b6119629190612ee6565b60ff549091501561197557611975611f13565b600061197f612029565b905080156119e55760fc546040516255f9e960e71b8152600481018390526001600160a01b0390911690632afcf48090602401600060405180830381600087803b1580156119cc57600080fd5b505af11580156119e0573d6000803e3d6000fd5b505050505b6119f082600161251c565b60006119fb60355490565b90506000861580611a0a575081155b611a285786611a198584612ec7565b611a239190612ee6565b611a2a565b835b90506103e8611a3b826103e5612ec7565b611a459190612ee6565b9050611a518982612601565b604080516001600160a01b038b16815260208101869052600080516020613144833981519152818301526060810183905290517fd2f8022f659fd9c8c558f30c00fd5ee7038f7cb56da45095c3e0e7d48b3e0c4b9181900360800190a15050600160975550505050505050565b60026097541415611b115760405162461bcd60e51b815260206004820152601f60248201527f5265656e7472616e637947756172643a207265656e7472616e742063616c6c006044820152606401610686565b600260975580611b555760405162461bcd60e51b815260206004820152600f60248201526e0536861726573206d757374203e203608c1b6044820152606401610686565b6001600160a01b038216600090815260336020526040902054811115611bbd5760405162461bcd60e51b815260206004820152601c60248201527f4e6f7420656e6f75676820736861726520746f207769746864726177000000006044820152606401610686565b6001600160a01b03821660009081526101026020526040902054431415611c265760405162461bcd60e51b815260206004820152601a60248201527f57697468647261772077697468696e2073616d6520626c6f636b0000000000006044820152606401610686565b6000611c3160355490565b90506000611c3d610c3c565b9050600082611c4c8584612ec7565b611c569190612ee6565b905060006101015483611c699190612e96565b611c7b83670de0b6b3a7640000612ec7565b611c859190612ee6565b9050611c9360c95460ff1690565b611d9d5760fc5460405163ed47d90960e01b8152600481018390526001600160a01b039091169063ed47d90990602401600060405180830381600087803b158015611cdd57600080fd5b505af1158015611cf1573d6000803e3d6000fd5b50506040516370a0823160e01b8152306004820152611d8d9250889150600080516020613144833981519152906370a082319060240160206040518083038186803b158015611d3f57600080fd5b505afa158015611d53573d6000803e3d6000fd5b505050506040513d601f19601f82011682018060405250810190611d779190612eae565b60008051602061314483398151915291906126e0565b611d9882600061251c565b611e59565b6040516370a0823160e01b8152306004820152600090670de0b6b3a7640000908390600080516020613144833981519152906370a082319060240160206040518083038186803b158015611df057600080fd5b505afa158015611e04573d6000803e3d6000fd5b505050506040513d601f19601f82011682018060405250810190611e289190612eae565b611e329190612ec7565b611e3c9190612ee6565b9050611e5760008051602061314483398151915288836126e0565b505b611e638686612710565b604080516001600160a01b038816815260208101849052600080516020613144833981519152818301526060810187905290517f457f950b75085c30ff780acd57bde642ff1316cc4aad9f286af2c1ffc4163a789181900360800190a15050600160975550505050565b60c95460ff16156108045760405162461bcd60e51b815260206004820152601060248201526f14185d5cd8589b194e881c185d5cd95960821b6044820152606401610686565b60fc5460408051632f4912bd60e21b815290516000926001600160a01b03169163bd244af4916004808301926020929190829003018186803b158015611f5857600080fd5b505afa158015611f6c573d6000803e3d6000fd5b505050506040513d601f19601f82011682018060405250810190611f909190612eae565b60ff54909150600081831115611feb576000611fac83856130a3565b90506127106101005482611fc09190612ec7565b611fca9190612ee6565b9150816101016000828254611fdf9190612e96565b90915550505060ff8390555b60408051848152602081018490529081018290527fa3e3c8c92ed1e364d04865f99cd96c3ae8f5a7d800f4a1d8148a58c6de6f1b7190606001611075565b6040516370a0823160e01b8152306004820152600090600080516020613144833981519152906370a082319060240160206040518083038186803b15801561207057600080fd5b505afa158015612084573d6000803e3d6000fd5b505050506040513d601f19601f820116820180604052508101906120a89190612eae565b610101549091508015612199576000806120c06121ef565b90925090506000826120d28386612ec7565b6120dc9190612ee6565b9050848110156120fb57600093506120f481866130a3565b9450612123565b816121068487612ec7565b6121109190612ee6565b61211a90856130a3565b60009590945090505b61010184905560fd5461214f90600080516020613144833981519152906001600160a01b0316836126e0565b6040805182815260008051602061314483398151915260208201527f6e027f1905abd7233c51c9483e29a545074ed10d39db528c9791a246b26741ff910160405180910390a15050505b5090565b606580546001600160a01b038381166001600160a01b0319831681179093556040519116919082907f8be0079c531659141344cd1fd0a4f28419497f9722a3daafe3b4186f6b6457e090600090a35050565b600080600073b97ad0e74fa7d920791e90258a6e2085088b43206001600160a01b03166350d25bcd6040518163ffffffff1660e01b815260040160206040518083038186803b15801561224157600080fd5b505afa158015612255573d6000803e3d6000fd5b505050506040513d601f19601f820116820180604052508101906122799190612eae565b936305f5e1009350915050565b61228e611ecd565b60c9805460ff191660011790557f62e78cea01bee320cd4e420270b5ea74000d11b0c9f74754ebdbfc544b05a2586122c461146a565b6040516001600160a01b03909116815260200160405180910390a1565b600054610100900460ff166123085760405162461bcd60e51b8152600401610686906130ba565b610778828261285e565b600054610100900460ff166123395760405162461bcd60e51b8152600401610686906130ba565b6108046128ac565b8015806123ca5750604051636eb1769f60e11b81523060048201526001600160a01b03838116602483015284169063dd62ed3e9060440160206040518083038186803b15801561239057600080fd5b505afa1580156123a4573d6000803e3d6000fd5b505050506040513d601f19601f820116820180604052508101906123c89190612eae565b155b6124355760405162461bcd60e51b815260206004820152603660248201527f5361666545524332303a20617070726f76652066726f6d206e6f6e2d7a65726f60448201527520746f206e6f6e2d7a65726f20616c6c6f77616e636560501b6064820152608401610686565b6040516001600160a01b03831660248201526044810182905261107e90849063095ea7b360e01b906064015b60408051601f198184030181529190526020810180516001600160e01b03166001600160e01b0319909316929092179091526128e3565b60c95460ff166108045760405162461bcd60e51b815260206004820152601460248201527314185d5cd8589b194e881b9bdd081c185d5cd95960621b6044820152606401610686565b6124e9612498565b60c9805460ff191690557f5db9ee0a495bf2e6ff9c91a7834c1ba4fdd244a5e8aa4e537bd38aeae4b073aa6122c461146a565b60ff5460018215151461254c578260ff541161253957600061255a565b8260ff5461254791906130a3565b61255a565b8260ff5461255a9190612e96565b60ff81905560408051918252602082018390527f07b7fa586c4fdef11992d9448b97ba78814c23ddec7e1d4bf195fda6716e47269101611075565b6000601836108015906125b2575060fb546001600160a01b031633145b156125c4575060131936013560601c90565b503390565b6040516001600160a01b03808516602483015283166044820152606481018290526116859085906323b872dd60e01b90608401612461565b6001600160a01b0382166126575760405162461bcd60e51b815260206004820152601f60248201527f45524332303a206d696e7420746f20746865207a65726f2061646472657373006044820152606401610686565b80603560008282546126699190612e96565b90915550506001600160a01b03821660009081526033602052604081208054839290612696908490612e96565b90915550506040518181526001600160a01b038316906000907fddf252ad1be2c89b69c2b068fc378daa952ba7f163c4a11628f55a4df523b3ef9060200160405180910390a35050565b6040516001600160a01b03831660248201526044810182905261107e90849063a9059cbb60e01b90606401612461565b6001600160a01b0382166127705760405162461bcd60e51b815260206004820152602160248201527f45524332303a206275726e2066726f6d20746865207a65726f206164647265736044820152607360f81b6064820152608401610686565b6001600160a01b038216600090815260336020526040902054818110156127e45760405162461bcd60e51b815260206004820152602260248201527f45524332303a206275726e20616d6f756e7420657863656564732062616c616e604482015261636560f01b6064820152608401610686565b6001600160a01b03831660009081526033602052604081208383039055603580548492906128139084906130a3565b90915550506040518281526000906001600160a01b038516907fddf252ad1be2c89b69c2b068fc378daa952ba7f163c4a11628f55a4df523b3ef9060200160405180910390a3505050565b600054610100900460ff166128855760405162461bcd60e51b8152600401610686906130ba565b8151612898906036906020850190612b36565b50805161107e906037906020840190612b36565b600054610100900460ff166128d35760405162461bcd60e51b8152600401610686906130ba565b6108046128de61146a565b61219d565b6000612938826040518060400160405280602081526020017f5361666545524332303a206c6f772d6c6576656c2063616c6c206661696c6564815250856001600160a01b03166129b59092919063ffffffff16565b80519091501561107e57808060200190518101906129569190613105565b61107e5760405162461bcd60e51b815260206004820152602a60248201527f5361666545524332303a204552433230206f7065726174696f6e20646964206e6044820152691bdd081cdd58d8d9595960b21b6064820152608401610686565b60606129c484846000856129cc565b949350505050565b606082471015612a2d5760405162461bcd60e51b815260206004820152602660248201527f416464726573733a20696e73756666696369656e742062616c616e636520666f6044820152651c8818d85b1b60d21b6064820152608401610686565b6001600160a01b0385163b612a845760405162461bcd60e51b815260206004820152601d60248201527f416464726573733a2063616c6c20746f206e6f6e2d636f6e74726163740000006044820152606401610686565b600080866001600160a01b03168587604051612aa09190613127565b60006040518083038185875af1925050503d8060008114612add576040519150601f19603f3d011682016040523d82523d6000602084013e612ae2565b606091505b5091509150612af2828286612afd565b979650505050505050565b60608315612b0c575081610728565b825115612b1c5782518084602001fd5b8160405162461bcd60e51b81526004016106869190612bf2565b828054612b4290612e18565b90600052602060002090601f016020900481019282612b645760008555612baa565b82601f10612b7d57805160ff1916838001178555612baa565b82800160010185558215612baa579182015b82811115612baa578251825591602001919060010190612b8f565b506121999291505b808211156121995760008155600101612bb2565b60005b83811015612be1578181015183820152602001612bc9565b838111156116855750506000910152565b6020815260008251806020840152612c11816040850160208701612bc6565b601f01601f19169190910160400192915050565b6001600160a01b038116811461078657600080fd5b60008060408385031215612c4d57600080fd5b8235612c5881612c25565b946020939093013593505050565b600060208284031215612c7857600080fd5b5035919050565b600060208284031215612c9157600080fd5b813561072881612c25565b600080600060608486031215612cb157600080fd5b8335612cbc81612c25565b92506020840135612ccc81612c25565b929592945050506040919091013590565b604080825283519082018190526000906020906060840190828701845b82811015612d1f5781516001600160a01b031684529284019290840190600101612cfa565b5050508381038285015284518082528583019183019060005b81811015612d5457835183529284019291840191600101612d38565b5090979650505050505050565b60008060408385031215612d7457600080fd5b8235612d7f81612c25565b91506020830135612d8f81612c25565b809150509250929050565b60008060408385031215612dad57600080fd5b50508035926020909101359150565b60008060008060808587031215612dd257600080fd5b8435612ddd81612c25565b93506020850135612ded81612c25565b92506040850135612dfd81612c25565b91506060850135612e0d81612c25565b939692955090935050565b600181811c90821680612e2c57607f821691505b60208210811415612e4d57634e487b7160e01b600052602260045260246000fd5b50919050565b60208082526013908201527227b7363c9037bbb732b91037b91030b236b4b760691b604082015260600190565b634e487b7160e01b600052601160045260246000fd5b60008219821115612ea957612ea9612e80565b500190565b600060208284031215612ec057600080fd5b5051919050565b6000816000190483118215151615612ee157612ee1612e80565b500290565b600082612f0357634e487b7160e01b600052601260045260246000fd5b500490565b634e487b7160e01b600052604160045260246000fd5b604051601f8201601f1916810167ffffffffffffffff81118282101715612f4757612f47612f08565b604052919050565b600067ffffffffffffffff821115612f6957612f69612f08565b5060051b60200190565b600082601f830112612f8457600080fd5b81516020612f99612f9483612f4f565b612f1e565b82815260059290921b84018101918181019086841115612fb857600080fd5b8286015b84811015612fd35780518352918301918301612fbc565b509695505050505050565b60008060408385031215612ff157600080fd5b825167ffffffffffffffff8082111561300957600080fd5b818501915085601f83011261301d57600080fd5b8151602061302d612f9483612f4f565b82815260059290921b8401810191818101908984111561304c57600080fd5b948201945b8386101561307357855161306481612c25565b82529482019490820190613051565b9188015191965090935050508082111561308c57600080fd5b5061309985828601612f73565b9150509250929050565b6000828210156130b5576130b5612e80565b500390565b6020808252602b908201527f496e697469616c697a61626c653a20636f6e7472616374206973206e6f74206960408201526a6e697469616c697a696e6760a81b606082015260800190565b60006020828403121561311757600080fd5b8151801515811461072857600080fd5b60008251613139818460208701612bc6565b919091019291505056fe00000000000000000000000055d398326f99059ff775485246999027b3197955a2646970667358221220cebe45922f84d4a61a736b21ab5e0c026bb689f05831befc7ed845ecf418abd564736f6c63430008090033",
  "devdoc": {
    "kind": "dev",
    "methods": {
      "allowance(address,address)": {
        "details": "See {IERC20-allowance}."
      },
      "approve(address,uint256)": {
        "details": "See {IERC20-approve}. NOTE: If `amount` is the maximum `uint256`, the allowance is not updated on `transferFrom`. This is semantically equivalent to an infinite approval. Requirements: - `spender` cannot be the zero address."
      },
      "balanceOf(address)": {
        "details": "See {IERC20-balanceOf}."
      },
      "decimals()": {
        "details": "Returns the number of decimals used to get its user representation. For example, if `decimals` equals `2`, a balance of `505` tokens should be displayed to a user as `5.05` (`505 / 10 ** 2`). Tokens usually opt for a value of 18, imitating the relationship between Ether and Wei. This is the value {ERC20} uses, unless this function is overridden; NOTE: This information is only used for _display_ purposes: it in no way affects any of the arithmetic of the contract, including {IERC20-balanceOf} and {IERC20-transfer}."
      },
      "decreaseAllowance(address,uint256)": {
        "details": "Atomically decreases the allowance granted to `spender` by the caller. This is an alternative to {approve} that can be used as a mitigation for problems described in {IERC20-approve}. Emits an {Approval} event indicating the updated allowance. Requirements: - `spender` cannot be the zero address. - `spender` must have allowance for the caller of at least `subtractedValue`."
      },
      "increaseAllowance(address,uint256)": {
        "details": "Atomically increases the allowance granted to `spender` by the caller. This is an alternative to {approve} that can be used as a mitigation for problems described in {IERC20-approve}. Emits an {Approval} event indicating the updated allowance. Requirements: - `spender` cannot be the zero address."
      },
      "name()": {
        "details": "Returns the name of the token."
      },
      "owner()": {
        "details": "Returns the address of the current owner."
      },
      "paused()": {
        "details": "Returns true if the contract is paused, and false otherwise."
      },
      "renounceOwnership()": {
        "details": "Leaves the contract without owner. It will not be possible to call `onlyOwner` functions anymore. Can only be called by the current owner. NOTE: Renouncing ownership will leave the contract without an owner, thereby removing any functionality that is only available to the owner."
      },
      "symbol()": {
        "details": "Returns the symbol of the token, usually a shorter version of the name."
      },
      "totalSupply()": {
        "details": "See {IERC20-totalSupply}."
      },
      "transfer(address,uint256)": {
        "details": "See {IERC20-transfer}. Requirements: - `to` cannot be the zero address. - the caller must have a balance of at least `amount`."
      },
      "transferFrom(address,address,uint256)": {
        "details": "See {IERC20-transferFrom}. Emits an {Approval} event indicating the updated allowance. This is not required by the EIP. See the note at the beginning of {ERC20}. NOTE: Does not update the allowance if the current allowance is the maximum `uint256`. Requirements: - `from` and `to` cannot be the zero address. - `from` must have a balance of at least `amount`. - the caller must have allowance for ``from``'s tokens of at least `amount`."
      },
      "transferOwnership(address)": {
        "details": "Transfers ownership of the contract to a new account (`newOwner`). Can only be called by the current owner."
      }
    },
    "version": 1
  },
  "userdoc": {
    "kind": "user",
    "methods": {
      "getPricePerFullShare()": {
        "notice": "Can be use for calculate both user shares & APR    "
      },
      "isTrustedForwarder(address)": {
        "notice": "return if the forwarder is trusted to forward relayed transactions to us. the forwarder is required to verify the sender's signature, and verify the call is not a replay."
      }
    },
    "version": 1
  },
  "storageLayout": {
    "storage": [
      {
        "astId": 138,
        "contract": "contracts/lci/LCIVault.sol:LCIVault",
        "label": "_initialized",
        "offset": 0,
        "slot": "0",
        "type": "t_uint8"
      },
      {
        "astId": 141,
        "contract": "contracts/lci/LCIVault.sol:LCIVault",
        "label": "_initializing",
        "offset": 1,
        "slot": "0",
        "type": "t_bool"
      },
      {
        "astId": 2836,
        "contract": "contracts/lci/LCIVault.sol:LCIVault",
        "label": "__gap",
        "offset": 0,
        "slot": "1",
        "type": "t_array(t_uint256)50_storage"
      },
      {
        "astId": 487,
        "contract": "contracts/lci/LCIVault.sol:LCIVault",
        "label": "_balances",
        "offset": 0,
        "slot": "51",
        "type": "t_mapping(t_address,t_uint256)"
      },
      {
        "astId": 493,
        "contract": "contracts/lci/LCIVault.sol:LCIVault",
        "label": "_allowances",
        "offset": 0,
        "slot": "52",
        "type": "t_mapping(t_address,t_mapping(t_address,t_uint256))"
      },
      {
        "astId": 495,
        "contract": "contracts/lci/LCIVault.sol:LCIVault",
        "label": "_totalSupply",
        "offset": 0,
        "slot": "53",
        "type": "t_uint256"
      },
      {
        "astId": 497,
        "contract": "contracts/lci/LCIVault.sol:LCIVault",
        "label": "_name",
        "offset": 0,
        "slot": "54",
        "type": "t_string_storage"
      },
      {
        "astId": 499,
        "contract": "contracts/lci/LCIVault.sol:LCIVault",
        "label": "_symbol",
        "offset": 0,
        "slot": "55",
        "type": "t_string_storage"
      },
      {
        "astId": 1078,
        "contract": "contracts/lci/LCIVault.sol:LCIVault",
        "label": "__gap",
        "offset": 0,
        "slot": "56",
        "type": "t_array(t_uint256)45_storage"
      },
      {
        "astId": 10,
        "contract": "contracts/lci/LCIVault.sol:LCIVault",
        "label": "_owner",
        "offset": 0,
        "slot": "101",
        "type": "t_address"
      },
      {
        "astId": 130,
        "contract": "contracts/lci/LCIVault.sol:LCIVault",
        "label": "__gap",
        "offset": 0,
        "slot": "102",
        "type": "t_array(t_uint256)49_storage"
      },
      {
        "astId": 423,
        "contract": "contracts/lci/LCIVault.sol:LCIVault",
        "label": "_status",
        "offset": 0,
        "slot": "151",
        "type": "t_uint256"
      },
      {
        "astId": 467,
        "contract": "contracts/lci/LCIVault.sol:LCIVault",
        "label": "__gap",
        "offset": 0,
        "slot": "152",
        "type": "t_array(t_uint256)49_storage"
      },
      {
        "astId": 303,
        "contract": "contracts/lci/LCIVault.sol:LCIVault",
        "label": "_paused",
        "offset": 0,
        "slot": "201",
        "type": "t_bool"
      },
      {
        "astId": 408,
        "contract": "contracts/lci/LCIVault.sol:LCIVault",
        "label": "__gap",
        "offset": 0,
        "slot": "202",
        "type": "t_array(t_uint256)49_storage"
      },
      {
        "astId": 48767,
        "contract": "contracts/lci/LCIVault.sol:LCIVault",
        "label": "trustedForwarder",
        "offset": 0,
        "slot": "251",
        "type": "t_address"
      },
      {
        "astId": 23814,
        "contract": "contracts/lci/LCIVault.sol:LCIVault",
        "label": "strategy",
        "offset": 0,
        "slot": "252",
        "type": "t_contract(IStrategy)23791"
      },
      {
        "astId": 23816,
        "contract": "contracts/lci/LCIVault.sol:LCIVault",
        "label": "treasuryWallet",
        "offset": 0,
        "slot": "253",
        "type": "t_address"
      },
      {
        "astId": 23818,
        "contract": "contracts/lci/LCIVault.sol:LCIVault",
        "label": "admin",
        "offset": 0,
        "slot": "254",
        "type": "t_address"
      },
      {
        "astId": 23823,
        "contract": "contracts/lci/LCIVault.sol:LCIVault",
        "label": "watermark",
        "offset": 0,
        "slot": "255",
        "type": "t_uint256"
      },
      {
        "astId": 23825,
        "contract": "contracts/lci/LCIVault.sol:LCIVault",
        "label": "profitFeePerc",
        "offset": 0,
        "slot": "256",
        "type": "t_uint256"
      },
      {
        "astId": 23827,
        "contract": "contracts/lci/LCIVault.sol:LCIVault",
        "label": "fees",
        "offset": 0,
        "slot": "257",
        "type": "t_uint256"
      },
      {
        "astId": 23831,
        "contract": "contracts/lci/LCIVault.sol:LCIVault",
        "label": "depositedBlock",
        "offset": 0,
        "slot": "258",
        "type": "t_mapping(t_address,t_uint256)"
      }
    ],
    "types": {
      "t_address": {
        "encoding": "inplace",
        "label": "address",
        "numberOfBytes": "20"
      },
      "t_array(t_uint256)45_storage": {
        "base": "t_uint256",
        "encoding": "inplace",
        "label": "uint256[45]",
        "numberOfBytes": "1440"
      },
      "t_array(t_uint256)49_storage": {
        "base": "t_uint256",
        "encoding": "inplace",
        "label": "uint256[49]",
        "numberOfBytes": "1568"
      },
      "t_array(t_uint256)50_storage": {
        "base": "t_uint256",
        "encoding": "inplace",
        "label": "uint256[50]",
        "numberOfBytes": "1600"
      },
      "t_bool": {
        "encoding": "inplace",
        "label": "bool",
        "numberOfBytes": "1"
      },
      "t_contract(IStrategy)23791": {
        "encoding": "inplace",
        "label": "contract IStrategy",
        "numberOfBytes": "20"
      },
      "t_mapping(t_address,t_mapping(t_address,t_uint256))": {
        "encoding": "mapping",
        "key": "t_address",
        "label": "mapping(address => mapping(address => uint256))",
        "numberOfBytes": "32",
        "value": "t_mapping(t_address,t_uint256)"
      },
      "t_mapping(t_address,t_uint256)": {
        "encoding": "mapping",
        "key": "t_address",
        "label": "mapping(address => uint256)",
        "numberOfBytes": "32",
        "value": "t_uint256"
      },
      "t_string_storage": {
        "encoding": "bytes",
        "label": "string",
        "numberOfBytes": "32"
      },
      "t_uint256": {
        "encoding": "inplace",
        "label": "uint256",
        "numberOfBytes": "32"
      },
      "t_uint8": {
        "encoding": "inplace",
        "label": "uint8",
        "numberOfBytes": "1"
      }
    }
  }
}