{
  "address": "0x16a6AfEdFb08689Af316a747B6d0ac1cB37142eF",
  "abi": [
    {
      "anonymous": false,
      "inputs": [
        {
          "indexed": true,
          "internalType": "address",
          "name": "owner",
          "type": "address"
        },
        {
          "indexed": true,
          "internalType": "address",
          "name": "spender",
          "type": "address"
        },
        {
          "indexed": false,
          "internalType": "uint256",
          "name": "value",
          "type": "uint256"
        }
      ],
      "name": "Approval",
      "type": "event"
    },
    {
      "anonymous": false,
      "inputs": [
        {
          "indexed": false,
          "internalType": "address",
          "name": "_user",
          "type": "address"
        },
        {
          "indexed": false,
          "internalType": "uint256",
          "name": "_amount",
          "type": "uint256"
        },
        {
          "indexed": false,
          "internalType": "uint256",
          "name": "_shares",
          "type": "uint256"
        }
      ],
      "name": "Deposit",
      "type": "event"
    },
    {
      "anonymous": false,
      "inputs": [
        {
          "indexed": false,
          "internalType": "uint256",
          "name": "_amount",
          "type": "uint256"
        }
      ],
      "name": "EmergencyWithdraw",
      "type": "event"
    },
    {
      "anonymous": false,
      "inputs": [
        {
          "indexed": false,
          "internalType": "uint8",
          "name": "version",
          "type": "uint8"
        }
      ],
      "name": "Initialized",
      "type": "event"
    },
    {
      "anonymous": false,
      "inputs": [
        {
          "indexed": false,
          "internalType": "uint256",
          "name": "_amount",
          "type": "uint256"
        }
      ],
      "name": "Invest",
      "type": "event"
    },
    {
      "anonymous": false,
      "inputs": [
        {
          "indexed": true,
          "internalType": "address",
          "name": "previousOwner",
          "type": "address"
        },
        {
          "indexed": true,
          "internalType": "address",
          "name": "newOwner",
          "type": "address"
        }
      ],
      "name": "OwnershipTransferred",
      "type": "event"
    },
    {
      "anonymous": false,
      "inputs": [
        {
          "indexed": false,
          "internalType": "address",
          "name": "account",
          "type": "address"
        }
      ],
      "name": "Paused",
      "type": "event"
    },
    {
      "anonymous": false,
      "inputs": [
        {
          "indexed": false,
          "internalType": "address",
          "name": "_oldAdmin",
          "type": "address"
        },
        {
          "indexed": false,
          "internalType": "address",
          "name": "_newAdmin",
          "type": "address"
        }
      ],
      "name": "SetAdmin",
      "type": "event"
    },
    {
      "anonymous": false,
      "inputs": [
        {
          "indexed": false,
          "internalType": "address",
          "name": "_wallet",
          "type": "address"
        }
      ],
      "name": "SetTreasuryWallet",
      "type": "event"
    },
    {
      "anonymous": false,
      "inputs": [
        {
          "indexed": false,
          "internalType": "uint256",
          "name": "_fee",
          "type": "uint256"
        }
      ],
      "name": "SetYieldFeePerc",
      "type": "event"
    },
    {
      "anonymous": false,
      "inputs": [
        {
          "indexed": true,
          "internalType": "address",
          "name": "from",
          "type": "address"
        },
        {
          "indexed": true,
          "internalType": "address",
          "name": "to",
          "type": "address"
        },
        {
          "indexed": false,
          "internalType": "uint256",
          "name": "value",
          "type": "uint256"
        }
      ],
      "name": "Transfer",
      "type": "event"
    },
    {
      "anonymous": false,
      "inputs": [
        {
          "indexed": false,
          "internalType": "address",
          "name": "account",
          "type": "address"
        }
      ],
      "name": "Unpaused",
      "type": "event"
    },
    {
      "anonymous": false,
      "inputs": [
        {
          "indexed": false,
          "internalType": "address",
          "name": "_user",
          "type": "address"
        },
        {
          "indexed": false,
          "internalType": "uint256",
          "name": "_amount",
          "type": "uint256"
        },
        {
          "indexed": false,
          "internalType": "uint256",
          "name": "_shares",
          "type": "uint256"
        }
      ],
      "name": "Withdraw",
      "type": "event"
    },
    {
      "anonymous": false,
      "inputs": [
        {
          "indexed": false,
          "internalType": "uint256",
          "name": "_amount",
          "type": "uint256"
        }
      ],
      "name": "Yield",
      "type": "event"
    },
    {
      "anonymous": false,
      "inputs": [
        {
          "indexed": false,
          "internalType": "uint256",
          "name": "_amount",
          "type": "uint256"
        }
      ],
      "name": "YieldFee",
      "type": "event"
    },
    {
      "inputs": [],
      "name": "CAKE",
      "outputs": [
        {
          "internalType": "contract IERC20Upgradeable",
          "name": "",
          "type": "address"
        }
      ],
      "stateMutability": "view",
      "type": "function"
    },
    {
      "inputs": [],
      "name": "MasterChefV2",
      "outputs": [
        {
          "internalType": "contract IMasterChefV2",
          "name": "",
          "type": "address"
        }
      ],
      "stateMutability": "view",
      "type": "function"
    },
    {
      "inputs": [],
      "name": "PckRouter",
      "outputs": [
        {
          "internalType": "contract IUniRouter",
          "name": "",
          "type": "address"
        }
      ],
      "stateMutability": "view",
      "type": "function"
    },
    {
      "inputs": [],
      "name": "WBNB",
      "outputs": [
        {
          "internalType": "contract IERC20Upgradeable",
          "name": "",
          "type": "address"
        }
      ],
      "stateMutability": "view",
      "type": "function"
    },
    {
      "inputs": [
        {
          "internalType": "uint256",
          "name": "lpAmt",
          "type": "uint256"
        }
      ],
      "name": "_getValueInBNB",
      "outputs": [
        {
          "internalType": "uint256",
          "name": "_valueInBNB",
          "type": "uint256"
        }
      ],
      "stateMutability": "view",
      "type": "function"
    },
    {
      "inputs": [
        {
          "internalType": "uint256",
          "name": "lpAmt",
          "type": "uint256"
        }
      ],
      "name": "_getValueInUSD",
      "outputs": [
        {
          "internalType": "uint256",
          "name": "_valueInUSD",
          "type": "uint256"
        },
        {
          "internalType": "bool",
          "name": "valid",
          "type": "bool"
        }
      ],
      "stateMutability": "view",
      "type": "function"
    },
    {
      "inputs": [],
      "name": "admin",
      "outputs": [
        {
          "internalType": "address",
          "name": "",
          "type": "address"
        }
      ],
      "stateMutability": "view",
      "type": "function"
    },
    {
      "inputs": [
        {
          "internalType": "address",
          "name": "owner",
          "type": "address"
        },
        {
          "internalType": "address",
          "name": "spender",
          "type": "address"
        }
      ],
      "name": "allowance",
      "outputs": [
        {
          "internalType": "uint256",
          "name": "",
          "type": "uint256"
        }
      ],
      "stateMutability": "view",
      "type": "function"
    },
    {
      "inputs": [
        {
          "internalType": "address",
          "name": "spender",
          "type": "address"
        },
        {
          "internalType": "uint256",
          "name": "amount",
          "type": "uint256"
        }
      ],
      "name": "approve",
      "outputs": [
        {
          "internalType": "bool",
          "name": "",
          "type": "bool"
        }
      ],
      "stateMutability": "nonpayable",
      "type": "function"
    },
    {
      "inputs": [
        {
          "internalType": "address",
          "name": "account",
          "type": "address"
        }
      ],
      "name": "balanceOf",
      "outputs": [
        {
          "internalType": "uint256",
          "name": "",
          "type": "uint256"
        }
      ],
      "stateMutability": "view",
      "type": "function"
    },
    {
      "inputs": [],
      "name": "decimals",
      "outputs": [
        {
          "internalType": "uint8",
          "name": "",
          "type": "uint8"
        }
      ],
      "stateMutability": "view",
      "type": "function"
    },
    {
      "inputs": [
        {
          "internalType": "address",
          "name": "spender",
          "type": "address"
        },
        {
          "internalType": "uint256",
          "name": "subtractedValue",
          "type": "uint256"
        }
      ],
      "name": "decreaseAllowance",
      "outputs": [
        {
          "internalType": "bool",
          "name": "",
          "type": "bool"
        }
      ],
      "stateMutability": "nonpayable",
      "type": "function"
    },
    {
      "inputs": [
        {
          "internalType": "uint256",
          "name": "_amount",
          "type": "uint256"
        }
      ],
      "name": "deposit",
      "outputs": [],
      "stateMutability": "nonpayable",
      "type": "function"
    },
    {
      "inputs": [],
      "name": "emergencyWithdraw",
      "outputs": [],
      "stateMutability": "nonpayable",
      "type": "function"
    },
    {
      "inputs": [],
      "name": "getAPR",
      "outputs": [
        {
          "internalType": "uint256",
          "name": "",
          "type": "uint256"
        }
      ],
      "stateMutability": "view",
      "type": "function"
    },
    {
      "inputs": [],
      "name": "getAllPool",
      "outputs": [
        {
          "internalType": "uint256",
          "name": "",
          "type": "uint256"
        }
      ],
      "stateMutability": "view",
      "type": "function"
    },
    {
      "inputs": [],
      "name": "getAllPoolInBNB",
      "outputs": [
        {
          "internalType": "uint256",
          "name": "_valueInBNB",
          "type": "uint256"
        }
      ],
      "stateMutability": "view",
      "type": "function"
    },
    {
      "inputs": [],
      "name": "getAllPoolInUSD",
      "outputs": [
        {
          "internalType": "uint256",
          "name": "",
          "type": "uint256"
        }
      ],
      "stateMutability": "view",
      "type": "function"
    },
    {
      "inputs": [],
      "name": "getCakeRewardApr",
      "outputs": [
        {
          "internalType": "uint256",
          "name": "",
          "type": "uint256"
        }
      ],
      "stateMutability": "view",
      "type": "function"
    },
    {
      "inputs": [],
      "name": "getLpRewardApr",
      "outputs": [
        {
          "internalType": "uint256",
          "name": "",
          "type": "uint256"
        },
        {
          "internalType": "uint256",
          "name": "",
          "type": "uint256"
        },
        {
          "internalType": "bool",
          "name": "",
          "type": "bool"
        }
      ],
      "stateMutability": "view",
      "type": "function"
    },
    {
      "inputs": [],
      "name": "getPendingRewards",
      "outputs": [
        {
          "internalType": "uint256",
          "name": "",
          "type": "uint256"
        }
      ],
      "stateMutability": "view",
      "type": "function"
    },
    {
      "inputs": [
        {
          "internalType": "bool",
          "name": "inUSD",
          "type": "bool"
        }
      ],
      "name": "getPricePerFullShare",
      "outputs": [
        {
          "internalType": "uint256",
          "name": "",
          "type": "uint256"
        }
      ],
      "stateMutability": "view",
      "type": "function"
    },
    {
      "inputs": [
        {
          "internalType": "address",
          "name": "spender",
          "type": "address"
        },
        {
          "internalType": "uint256",
          "name": "addedValue",
          "type": "uint256"
        }
      ],
      "name": "increaseAllowance",
      "outputs": [
        {
          "internalType": "bool",
          "name": "",
          "type": "bool"
        }
      ],
      "stateMutability": "nonpayable",
      "type": "function"
    },
    {
      "inputs": [
        {
          "internalType": "string",
          "name": "_name",
          "type": "string"
        },
        {
          "internalType": "string",
          "name": "_symbol",
          "type": "string"
        },
        {
          "internalType": "uint256",
          "name": "_pid",
          "type": "uint256"
        },
        {
          "internalType": "address",
          "name": "_treasury",
          "type": "address"
        },
        {
          "internalType": "address",
          "name": "_admin",
          "type": "address"
        }
      ],
      "name": "initialize",
      "outputs": [],
      "stateMutability": "nonpayable",
      "type": "function"
    },
    {
      "inputs": [],
      "name": "lpDataLastUpdate",
      "outputs": [
        {
          "internalType": "uint256",
          "name": "",
          "type": "uint256"
        }
      ],
      "stateMutability": "view",
      "type": "function"
    },
    {
      "inputs": [],
      "name": "lpReservePerShare",
      "outputs": [
        {
          "internalType": "uint256",
          "name": "",
          "type": "uint256"
        }
      ],
      "stateMutability": "view",
      "type": "function"
    },
    {
      "inputs": [],
      "name": "lpRewardApr",
      "outputs": [
        {
          "internalType": "uint256",
          "name": "",
          "type": "uint256"
        }
      ],
      "stateMutability": "view",
      "type": "function"
    },
    {
      "inputs": [],
      "name": "lpToken",
      "outputs": [
        {
          "internalType": "contract IUniPair",
          "name": "",
          "type": "address"
        }
      ],
      "stateMutability": "view",
      "type": "function"
    },
    {
      "inputs": [],
      "name": "name",
      "outputs": [
        {
          "internalType": "string",
          "name": "",
          "type": "string"
        }
      ],
      "stateMutability": "view",
      "type": "function"
    },
    {
      "inputs": [],
      "name": "owner",
      "outputs": [
        {
          "internalType": "address",
          "name": "",
          "type": "address"
        }
      ],
      "stateMutability": "view",
      "type": "function"
    },
    {
      "inputs": [],
      "name": "paused",
      "outputs": [
        {
          "internalType": "bool",
          "name": "",
          "type": "bool"
        }
      ],
      "stateMutability": "view",
      "type": "function"
    },
    {
      "inputs": [],
      "name": "pid",
      "outputs": [
        {
          "internalType": "uint256",
          "name": "",
          "type": "uint256"
        }
      ],
      "stateMutability": "view",
      "type": "function"
    },
    {
      "inputs": [],
      "name": "reinvest",
      "outputs": [],
      "stateMutability": "nonpayable",
      "type": "function"
    },
    {
      "inputs": [],
      "name": "renounceOwnership",
      "outputs": [],
      "stateMutability": "nonpayable",
      "type": "function"
    },
    {
      "inputs": [],
      "name": "resetLpRewardApr",
      "outputs": [],
      "stateMutability": "nonpayable",
      "type": "function"
    },
    {
      "inputs": [
        {
          "internalType": "address",
          "name": "_newAdmin",
          "type": "address"
        }
      ],
      "name": "setAdmin",
      "outputs": [],
      "stateMutability": "nonpayable",
      "type": "function"
    },
    {
      "inputs": [
        {
          "internalType": "uint256",
          "name": "_yieldFeePerc",
          "type": "uint256"
        }
      ],
      "name": "setFee",
      "outputs": [],
      "stateMutability": "nonpayable",
      "type": "function"
    },
    {
      "inputs": [
        {
          "internalType": "address",
          "name": "_wallet",
          "type": "address"
        }
      ],
      "name": "setTreasuryWallet",
      "outputs": [],
      "stateMutability": "nonpayable",
      "type": "function"
    },
    {
      "inputs": [],
      "name": "symbol",
      "outputs": [
        {
          "internalType": "string",
          "name": "",
          "type": "string"
        }
      ],
      "stateMutability": "view",
      "type": "function"
    },
    {
      "inputs": [],
      "name": "token0",
      "outputs": [
        {
          "internalType": "contract IERC20Upgradeable",
          "name": "",
          "type": "address"
        }
      ],
      "stateMutability": "view",
      "type": "function"
    },
    {
      "inputs": [],
      "name": "token1",
      "outputs": [
        {
          "internalType": "contract IERC20Upgradeable",
          "name": "",
          "type": "address"
        }
      ],
      "stateMutability": "view",
      "type": "function"
    },
    {
      "inputs": [],
      "name": "totalSupply",
      "outputs": [
        {
          "internalType": "uint256",
          "name": "",
          "type": "uint256"
        }
      ],
      "stateMutability": "view",
      "type": "function"
    },
    {
      "inputs": [
        {
          "internalType": "address",
          "name": "to",
          "type": "address"
        },
        {
          "internalType": "uint256",
          "name": "amount",
          "type": "uint256"
        }
      ],
      "name": "transfer",
      "outputs": [
        {
          "internalType": "bool",
          "name": "",
          "type": "bool"
        }
      ],
      "stateMutability": "nonpayable",
      "type": "function"
    },
    {
      "inputs": [
        {
          "internalType": "address",
          "name": "from",
          "type": "address"
        },
        {
          "internalType": "address",
          "name": "to",
          "type": "address"
        },
        {
          "internalType": "uint256",
          "name": "amount",
          "type": "uint256"
        }
      ],
      "name": "transferFrom",
      "outputs": [
        {
          "internalType": "bool",
          "name": "",
          "type": "bool"
        }
      ],
      "stateMutability": "nonpayable",
      "type": "function"
    },
    {
      "inputs": [
        {
          "internalType": "address",
          "name": "newOwner",
          "type": "address"
        }
      ],
      "name": "transferOwnership",
      "outputs": [],
      "stateMutability": "nonpayable",
      "type": "function"
    },
    {
      "inputs": [],
      "name": "treasuryWallet",
      "outputs": [
        {
          "internalType": "address",
          "name": "",
          "type": "address"
        }
      ],
      "stateMutability": "view",
      "type": "function"
    },
    {
      "inputs": [
        {
          "internalType": "uint256",
          "name": "_shares",
          "type": "uint256"
        }
      ],
      "name": "withdraw",
      "outputs": [],
      "stateMutability": "nonpayable",
      "type": "function"
    },
    {
      "inputs": [],
      "name": "yield",
      "outputs": [],
      "stateMutability": "nonpayable",
      "type": "function"
    },
    {
      "inputs": [],
      "name": "yieldFee",
      "outputs": [
        {
          "internalType": "uint256",
          "name": "",
          "type": "uint256"
        }
      ],
      "stateMutability": "view",
      "type": "function"
    }
  ],
  "transactionHash": "0x22b3f6e59ea015cb3fe423cb7e6573079b9099818c41030c9cb51b31e9b99b4a",
  "args": [],
  "numDeployments": 2,
  "solcInputHash": "5eaeebd8ca8f8c3ec206e5cef7cfe84a",
  "bytecode": "0x608060405234801561001057600080fd5b50614233806100206000396000f3fe608060405234801561001057600080fd5b50600436106102bb5760003560e01c8063715018a611610182578063afad96d1116100e9578063db2e21bc116100a2578063f10684541161007c578063f1068454146105f7578063f2fde38b14610600578063f851a44014610613578063fdb5a03e1461062757600080fd5b8063db2e21bc146105c7578063dd62ed3e146105cf578063e5653aa1146105e257600080fd5b8063afad96d11461057f578063b6b55f2514610589578063bd244af41461059c578063c89d5b8b146105a4578063d21220a7146105ac578063d9621f9e146105bf57600080fd5b80638dd950021161013b5780638dd950021461051b57806395d89b4114610536578063a20a4cb41461053e578063a457c2d714610546578063a8602fea14610559578063a9059cbb1461056c57600080fd5b8063715018a6146104b857806372d6460e146104c05780637e77c503146104e557806388ac86b2146104f85780638b6b7536146105005780638da5cb5b1461050a57600080fd5b806331970dd2116102265780635fcbd285116101df5780635fcbd28514610413578063676660561461042657806368fe53561461044e57806369fe0e2d14610469578063704b6c021461047c57806370a082311461048f57600080fd5b806331970dd2146103ab57806339509351146103be5780633a197e85146103d15780634626402b146103d95780634ca6ef28146103ed5780635c975abb1461040857600080fd5b80631f04221c116102785780631f04221c1461034f57806320f149081461035957806323b872dd1461036c578063285939841461037f5780632e1a7d4d14610389578063313ce5671461039c57600080fd5b8063034f4083146102c057806306fdde03146102dc578063095ea7b3146102f157806309c6c128146103145780630dfe16811461031c57806318160ddd14610347575b600080fd5b6102c960fb5481565b6040519081526020015b60405180910390f35b6102e461062f565b6040516102d39190613b0d565b6103046102ff366004613b55565b6106c1565b60405190151581526020016102d3565b6102c96106d9565b60fe5461032f906001600160a01b031681565b6040516001600160a01b0390911681526020016102d3565b6035546102c9565b6102c96101045481565b6102c9610367366004613b8f565b6107f3565b61030461037a366004613bac565b610876565b61038761089a565b005b610387610397366004613bed565b610918565b604051601281526020016102d3565b6102c96103b9366004613bed565b610bfb565b6103046103cc366004613b55565b610da1565b610387610dc3565b6101005461032f906001600160a01b031681565b61032f730e09fabb73bd3ade0a17ecc321fd13a19e81ce8281565b60975460ff16610304565b60fd5461032f906001600160a01b031681565b610439610434366004613bed565b610e07565b604080519283529015156020830152016102d3565b61032f7310ed43c718714eb63d5aa57b78b54704e256024e81565b610387610477366004613bed565b610fdd565b61038761048a366004613c06565b61108d565b6102c961049d366004613c06565b6001600160a01b031660009081526033602052604090205490565b610387611119565b6104c861114d565b6040805193845260208401929092521515908201526060016102d3565b6103876104f3366004613cda565b611232565b6102c961162f565b6102c96101055481565b6065546001600160a01b031661032f565b61032f73bb4cdb9cbd36b01bd1cbaebf2de08d9173bc095c81565b6102e4611641565b6102c9611650565b610304610554366004613b55565b61176e565b610387610567366004613c06565b6117e9565b61030461057a366004613b55565b6118a9565b6102c96101035481565b610387610597366004613bed565b6118b7565b6102c9611a9f565b6102c9611af5565b60ff5461032f906001600160a01b031681565b6102c9611b4a565b610387611c05565b6102c96105dd366004613d6f565b611da8565b61032f6000805160206141de83398151915281565b6102c960fc5481565b61038761060e366004613c06565b611dd3565b6101015461032f906001600160a01b031681565b610387611e6e565b60606036805461063e90613da8565b80601f016020809104026020016040519081016040528092919081815260200182805461066a90613da8565b80156106b75780601f1061068c576101008083540402835291602001916106b7565b820191906000526020600020905b81548152906001019060200180831161069a57829003601f168201915b5050505050905090565b6000336106cf818585611f07565b5060019392505050565b6000806106e461202b565b90506000806106f1612289565b90925090506000816107038486613df3565b61070d9190613e12565b60fd546040516370a0823160e01b81526000805160206141de833981519152600482015291925060009161079e916001600160a01b0316906370a082319060240160206040518083038186803b15801561076657600080fd5b505afa15801561077a573d6000803e3d6000fd5b505050506040513d601f19601f820116820180604052508101906103b99190613e34565b90506000806107ab612320565b90925090506000816107bd8486613df3565b6107c79190613e12565b9050806107dc86670de0b6b3a7640000613df3565b6107e69190613e12565b9850505050505050505090565b6000806107ff60355490565b9050806108165750670de0b6b3a764000092915050565b60018315151461084a5780610829611650565b61083b90670de0b6b3a7640000613df3565b6108459190613e12565b61086f565b80610853611a9f565b61086590670de0b6b3a7640000613df3565b61086f9190613e12565b9392505050565b600033610884858285612372565b61088f8585856123ec565b506001949350505050565b6065546001600160a01b03163314806108be5750610101546001600160a01b031633145b6108e35760405162461bcd60e51b81526004016108da90613e4d565b60405180910390fd5b60975460ff16156109065760405162461bcd60e51b81526004016108da90613e7a565b61090e6125ba565b610916612a5d565b565b600260c954141561096b5760405162461bcd60e51b815260206004820152601f60248201527f5265656e7472616e637947756172643a207265656e7472616e742063616c6c0060448201526064016108da565b600260c955806109ae5760405162461bcd60e51b815260206004820152600e60248201526d125b9d985b1a5908105b5bdd5b9d60921b60448201526064016108da565b33600090815260336020526040902054811115610a025760405162461bcd60e51b81526020600482015260126024820152714e6f7420656e6f7567682062616c616e636560701b60448201526064016108da565b3360009081526101026020526040902054431415610a625760405162461bcd60e51b815260206004820152601a60248201527f57697468647261772077697468696e2073616d6520626c6f636b00000000000060448201526064016108da565b6000610a6d60355490565b82610a76611650565b610a809190613df3565b610a8a9190613e12565b60fd546040516370a0823160e01b81523060048201529192506000916001600160a01b03909116906370a082319060240160206040518083038186803b158015610ad357600080fd5b505afa158015610ae7573d6000803e3d6000fd5b505050506040513d601f19601f82011682018060405250810190610b0b9190613e34565b905081811015610b8f5760fc546000805160206141de8339815191529063441a3e7090610b388486613ea4565b6040516001600160e01b031960e085901b16815260048101929092526024820152604401600060405180830381600087803b158015610b7657600080fd5b505af1158015610b8a573d6000803e3d6000fd5b505050505b610b993384612a8d565b60fd54610bb0906001600160a01b03163384612bdb565b60408051338152602081018490529081018490527ff279e6a1f5e320cca91135676d9cb6e44ca8a08c0b88342bcdb1144f6511b5689060600160405180910390a15050600160c95550565b60008060fd60009054906101000a90046001600160a01b03166001600160a01b03166318160ddd6040518163ffffffff1660e01b815260040160206040518083038186803b158015610c4c57600080fd5b505afa158015610c60573d6000803e3d6000fd5b505050506040513d601f19601f82011682018060405250810190610c849190613e34565b60fd5460408051630240bc6b60e21b8152815193945060009384936001600160a01b031692630902f1ac9260048082019391829003018186803b158015610cca57600080fd5b505afa158015610cde573d6000803e3d6000fd5b505050506040513d601f19601f82011682018060405250810190610d029190613ebb565b9092509050600083610d148488613df3565b610d1e9190613e12565b9050600084610d2d8489613df3565b610d379190613e12565b60ff54909150610d4f906001600160a01b0316612c3e565b610d599082613df3565b60fe54610d6e906001600160a01b0316612c3e565b610d789084613df3565b610d829190613edf565b9550610d96670de0b6b3a764000087613e12565b979650505050505050565b6000336106cf818585610db48383611da8565b610dbe9190613edf565b611f07565b6065546001600160a01b03163314610ded5760405162461bcd60e51b81526004016108da90613ef7565b600061010381905561010481905561010555610916612a5d565b600080600060fd60009054906101000a90046001600160a01b03166001600160a01b03166318160ddd6040518163ffffffff1660e01b815260040160206040518083038186803b158015610e5a57600080fd5b505afa158015610e6e573d6000803e3d6000fd5b505050506040513d601f19601f82011682018060405250810190610e929190613e34565b60fd5460408051630240bc6b60e21b8152815193945060009384936001600160a01b031692630902f1ac9260048082019391829003018186803b158015610ed857600080fd5b505afa158015610eec573d6000803e3d6000fd5b505050506040513d601f19601f82011682018060405250810190610f109190613ebb565b9092509050600083610f228489613df3565b610f2c9190613e12565b9050600084610f3b848a613df3565b610f459190613e12565b60fe54909150600090610f60906001600160a01b0316612dc5565b60ff54909150600090610f7b906001600160a01b0316612dc5565b9050811580610f88575080155b15610f9f57506000998a9950975050505050505050565b6305f5e100610fae8285613df3565b610fb88487613df3565b610fc29190613edf565b610fcc9190613e12565b9a60019a5098505050505050505050565b6065546001600160a01b031633146110075760405162461bcd60e51b81526004016108da90613ef7565b610bb981106110515760405162461bcd60e51b81526020600482015260166024820152755969656c64204665652063616e6e6f74203e2033302560501b60448201526064016108da565b60fb8190556040518181527f5cdc47cbc2be1e35e5429dd646b1e2047ab328f4108873ab71318989f7566ceb906020015b60405180910390a150565b6065546001600160a01b031633146110b75760405162461bcd60e51b81526004016108da90613ef7565b61010180546001600160a01b038381166001600160a01b031983168117909355604080519190921680825260208201939093527f848ac24ab84501710d6631faab117b66b79aba7ec6f7778cf3bcff428c1a4efc910160405180910390a15050565b6065546001600160a01b031633146111435760405162461bcd60e51b81526004016108da90613ef7565b6109166000612f63565b6000806000610103546000148061117557504262015180610105546111729190613edf565b11155b1561121e576000611184612fb5565b905061010454600010801561119b57508061010454105b1561121057600061010554426111b19190613ea4565b610104546111bf9190613df3565b6111ce6201518061016d613df3565b610104546111dc9085613ea4565b6111e69190613df3565b6111f890670de0b6b3a7640000613df3565b6112029190613e12565b959194506001935090915050565b600094909350600192509050565b505061010354610104549092909150600090565b600061123e60016130f4565b90508015611256576000805461ff0019166101001790555b6112608686613174565b6112686131a9565b6107d060fb5560fc8490556040516378ed5d1f60e01b8152600481018590526000906000805160206141de833981519152906378ed5d1f9060240160206040518083038186803b1580156112bb57600080fd5b505afa1580156112cf573d6000803e3d6000fd5b505050506040513d601f19601f820116820180604052508101906112f39190613f2c565b60fd80546001600160a01b0319166001600160a01b03831690811790915560408051630dfe168160e01b815290519293509091630dfe168191600480820192602092909190829003018186803b15801561134c57600080fd5b505afa158015611360573d6000803e3d6000fd5b505050506040513d601f19601f820116820180604052508101906113849190613f2c565b60fe80546001600160a01b0319166001600160a01b0392831617905560fd546040805163d21220a760e01b81529051919092169163d21220a7916004808301926020929190829003018186803b1580156113dd57600080fd5b505afa1580156113f1573d6000803e3d6000fd5b505050506040513d601f19601f820116820180604052508101906114159190613f2c565b60ff80546001600160a01b03199081166001600160a01b039384161790915561010080548216878416179055610101805490911685831617905560fd5461146e91166000805160206141de8339815191526000196131d8565b6114a3730e09fabb73bd3ade0a17ecc321fd13a19e81ce827310ed43c718714eb63d5aa57b78b54704e256024e6000196131d8565b60fe5460405163095ea7b360e01b81527310ed43c718714eb63d5aa57b78b54704e256024e600482015260001960248201526001600160a01b039091169063095ea7b390604401602060405180830381600087803b15801561150457600080fd5b505af1158015611518573d6000803e3d6000fd5b505050506040513d601f19601f8201168201806040525081019061153c9190613f49565b5060ff5460405163095ea7b360e01b81527310ed43c718714eb63d5aa57b78b54704e256024e600482015260001960248201526001600160a01b039091169063095ea7b390604401602060405180830381600087803b15801561159e57600080fd5b505af11580156115b2573d6000803e3d6000fd5b505050506040513d601f19601f820116820180604052508101906115d69190613f49565b506115df612a5d565b508015611627576000805461ff0019169055604051600181527f7f26b83ff96e1f2b6a682f133852f6798a09c465da95921460cefb3847402498906020015b60405180910390a15b505050505050565b600061163c6103b9611650565b905090565b60606037805461063e90613da8565b60fc546040516393f1a40b60e01b8152600481019190915230602482015260009081906000805160206141de833981519152906393f1a40b9060440160606040518083038186803b1580156116a457600080fd5b505afa1580156116b8573d6000803e3d6000fd5b505050506040513d601f19601f820116820180604052508101906116dc9190613f66565b505060fd546040516370a0823160e01b815230600482015291925082916001600160a01b03909116906370a082319060240160206040518083038186803b15801561172657600080fd5b505afa15801561173a573d6000803e3d6000fd5b505050506040513d601f19601f8201168201806040525081019061175e9190613e34565b6117689190613edf565b91505090565b6000338161177c8286611da8565b9050838110156117dc5760405162461bcd60e51b815260206004820152602560248201527f45524332303a2064656372656173656420616c6c6f77616e63652062656c6f77604482015264207a65726f60d81b60648201526084016108da565b61088f8286868403611f07565b6065546001600160a01b031633146118135760405162461bcd60e51b81526004016108da90613ef7565b6001600160a01b03811661185a5760405162461bcd60e51b815260206004820152600e60248201526d1dd85b1b195d081a5b9d985b1a5960921b60448201526064016108da565b61010080546001600160a01b0319166001600160a01b0383169081179091556040519081527f60edc991b058a7e279075cf86f19a6b478334efec47e089d09890b139c78232790602001611082565b6000336106cf8185856123ec565b600260c954141561190a5760405162461bcd60e51b815260206004820152601f60248201527f5265656e7472616e637947756172643a207265656e7472616e742063616c6c0060448201526064016108da565b600260c95560975460ff16156119325760405162461bcd60e51b81526004016108da90613e7a565b600081116119735760405162461bcd60e51b815260206004820152600e60248201526d125b9d985b1a5908185b5bdd5b9d60921b60448201526064016108da565b600061197d611650565b60fd54909150611998906001600160a01b03163330856132fc565b33600090815261010260205260409081902043905560fc549051631c57762b60e31b81526004810191909152602481018390526000805160206141de8339815191529063e2bbb15890604401600060405180830381600087803b1580156119fe57600080fd5b505af1158015611a12573d6000803e3d6000fd5b505050506000611a2160355490565b905060008115611a455782611a368386613df3565b611a409190613e12565b611a47565b835b9050611a533382613334565b60408051338152602081018690529081018290527f90890809c654f11d6e72a28fa60149770a0d11ec6c92319d6ceb2bb0a4ea1a159060600160405180910390a15050600160c9555050565b6000806000611aaf610434611650565b915091508015611abf5750919050565b600080611aca612320565b915091508082611ad861162f565b611ae29190613df3565b611aec9190613e12565b94505050505090565b600080611b0061114d565b505090506000611b0e6106d9565b905061271060fb54612710611b239190613ea4565b611b2d9083613df3565b611b379190613e12565b9050611b438183613edf565b9250505090565b60fc54604051631175a1dd60e01b8152600481019190915230602482015260009081906000805160206141de83398151915290631175a1dd9060440160206040518083038186803b158015611b9e57600080fd5b505afa158015611bb2573d6000803e3d6000fd5b505050506040513d601f19601f82011682018060405250810190611bd69190613e34565b9050600080611be3612289565b909250905080611bf38385613df3565b611bfd9190613e12565b935050505090565b6065546001600160a01b0316331480611c295750610101546001600160a01b031633145b611c455760405162461bcd60e51b81526004016108da90613e4d565b60975460ff1615611c685760405162461bcd60e51b81526004016108da90613e7a565b611c70613413565b611c786125ba565b60fc546040516393f1a40b60e01b815260048101919091523060248201526000906000805160206141de833981519152906393f1a40b9060440160606040518083038186803b158015611cca57600080fd5b505afa158015611cde573d6000803e3d6000fd5b505050506040513d601f19601f82011682018060405250810190611d029190613f66565b50909150508015611d785760fc54604051630441a3e760e41b81526004810191909152602481018290526000805160206141de8339815191529063441a3e7090604401600060405180830381600087803b158015611d5f57600080fd5b505af1158015611d73573d6000803e3d6000fd5b505050505b6040518181527f99d7f8b71cfb9126984f7a5eed3a40e64a8959e9b0e442221546fb04ec6a489c90602001611082565b6001600160a01b03918216600090815260346020908152604080832093909416825291909152205490565b6065546001600160a01b03163314611dfd5760405162461bcd60e51b81526004016108da90613ef7565b6001600160a01b038116611e625760405162461bcd60e51b815260206004820152602660248201527f4f776e61626c653a206e6577206f776e657220697320746865207a65726f206160448201526564647265737360d01b60648201526084016108da565b611e6b81612f63565b50565b6065546001600160a01b0316331480611e925750610101546001600160a01b031633145b611eae5760405162461bcd60e51b81526004016108da90613e4d565b60975460ff16611ef75760405162461bcd60e51b815260206004820152601460248201527314185d5cd8589b194e881b9bdd081c185d5cd95960621b60448201526064016108da565b611eff613488565b611e6b613502565b6001600160a01b038316611f695760405162461bcd60e51b8152602060048201526024808201527f45524332303a20617070726f76652066726f6d20746865207a65726f206164646044820152637265737360e01b60648201526084016108da565b6001600160a01b038216611fca5760405162461bcd60e51b815260206004820152602260248201527f45524332303a20617070726f766520746f20746865207a65726f206164647265604482015261737360f01b60648201526084016108da565b6001600160a01b0383811660008181526034602090815260408083209487168084529482529182902085905590518481527f8c5be1e5ebec7d5bd14f71427d1e84f3dd0314c0f7b2291e5b200ac8c7c3b925910160405180910390a3505050565b60fc54604051631526fe2760e01b8152600091829182916000805160206141de83398151915291631526fe27916120689160040190815260200190565b60a06040518083038186803b15801561208057600080fd5b505afa158015612094573d6000803e3d6000fd5b505050506040513d601f19601f820116820180604052508101906120b89190613f94565b9450509350505060008161214a576000805160206141de8339815191526001600160a01b03166399d7e84a6040518163ffffffff1660e01b815260040160206040518083038186803b15801561210d57600080fd5b505afa158015612121573d6000803e3d6000fd5b505050506040513d601f19601f820116820180604052508101906121459190613e34565b6121c9565b6000805160206141de8339815191526001600160a01b031663c40d337b6040518163ffffffff1660e01b815260040160206040518083038186803b15801561219157600080fd5b505afa1580156121a5573d6000803e3d6000fd5b505050506040513d601f19601f820116820180604052508101906121c99190613e34565b604051631e9b828b60e01b815283151560048201529091506000906000805160206141de83398151915290631e9b828b9060240160206040518083038186803b15801561221557600080fd5b505afa158015612229573d6000803e3d6000fd5b505050506040513d601f19601f8201168201806040525081019061224d9190613e34565b9050818461225d6003603c613e12565b61226890603c613df3565b612273906018613df3565b61227f9061016d613df3565b611ad89084613df3565b600080600073b6064ed41d4f67e353768aa239ca86f4f73665a16001600160a01b03166350d25bcd6040518163ffffffff1660e01b815260040160206040518083038186803b1580156122db57600080fd5b505afa1580156122ef573d6000803e3d6000fd5b505050506040513d601f19601f820116820180604052508101906123139190613e34565b936305f5e1009350915050565b6000806000730567f2323251f0aab15c8dfb1967e4e8a7d42aee6001600160a01b03166350d25bcd6040518163ffffffff1660e01b815260040160206040518083038186803b1580156122db57600080fd5b600061237e8484611da8565b905060001981146123e657818110156123d95760405162461bcd60e51b815260206004820152601d60248201527f45524332303a20696e73756666696369656e7420616c6c6f77616e636500000060448201526064016108da565b6123e68484848403611f07565b50505050565b6001600160a01b0383166124505760405162461bcd60e51b815260206004820152602560248201527f45524332303a207472616e736665722066726f6d20746865207a65726f206164604482015264647265737360d81b60648201526084016108da565b6001600160a01b0382166124b25760405162461bcd60e51b815260206004820152602360248201527f45524332303a207472616e7366657220746f20746865207a65726f206164647260448201526265737360e81b60648201526084016108da565b6001600160a01b0383166000908152603360205260409020548181101561252a5760405162461bcd60e51b815260206004820152602660248201527f45524332303a207472616e7366657220616d6f756e7420657863656564732062604482015265616c616e636560d01b60648201526084016108da565b6001600160a01b03808516600090815260336020526040808220858503905591851681529081208054849290612561908490613edf565b92505081905550826001600160a01b0316846001600160a01b03167fddf252ad1be2c89b69c2b068fc378daa952ba7f163c4a11628f55a4df523b3ef846040516125ad91815260200190565b60405180910390a36123e6565b60fc54604051631c57762b60e31b81526004810191909152600060248201526000805160206141de8339815191529063e2bbb15890604401600060405180830381600087803b15801561260c57600080fd5b505af1158015612620573d6000803e3d6000fd5b50506040516370a0823160e01b815230600482015260009250730e09fabb73bd3ade0a17ecc321fd13a19e81ce8291506370a082319060240160206040518083038186803b15801561267157600080fd5b505afa158015612685573d6000803e3d6000fd5b505050506040513d601f19601f820116820180604052508101906126a99190613e34565b90508015611e6b57600061271060fb54836126c49190613df3565b6126ce9190613e12565b610100549091506126fe90730e09fabb73bd3ade0a17ecc321fd13a19e81ce82906001600160a01b031683612bdb565b6127088183613ea4565b60fe549092506000906001600160a01b0316730e09fabb73bd3ade0a17ecc321fd13a19e81ce82141561274757612740600284613e12565b90506127fc565b60fe5461277d90730e09fabb73bd3ade0a17ecc321fd13a19e81ce82906001600160a01b0316612778600287613e12565b6135f4565b5060fe546040516370a0823160e01b81523060048201526001600160a01b03909116906370a082319060240160206040518083038186803b1580156127c157600080fd5b505afa1580156127d5573d6000803e3d6000fd5b505050506040513d601f19601f820116820180604052508101906127f99190613e34565b90505b60ff546000906001600160a01b0316730e09fabb73bd3ade0a17ecc321fd13a19e81ce82141561283857612831600285613e12565b90506128e8565b60ff5461286990730e09fabb73bd3ade0a17ecc321fd13a19e81ce82906001600160a01b0316612778600288613e12565b5060ff546040516370a0823160e01b81523060048201526001600160a01b03909116906370a082319060240160206040518083038186803b1580156128ad57600080fd5b505afa1580156128c1573d6000803e3d6000fd5b505050506040513d601f19601f820116820180604052508101906128e59190613e34565b90505b60fe5460ff5460405162e8e33760e81b81526001600160a01b03928316600482015291166024820152604481018390526064810182905260006084820181905260a48201523060c48201524260e48201527310ed43c718714eb63d5aa57b78b54704e256024e9063e8e337009061010401606060405180830381600087803b15801561297357600080fd5b505af1158015612987573d6000803e3d6000fd5b505050506040513d601f19601f820116820180604052508101906129ab9190613f66565b5050506129b6613502565b506000806129c2612289565b90925090507f913f67bfd2c6ac4a84007665147ed6861715996d03ed38d610c52e28c088380381836129f4888a613edf565b6129fe9190613df3565b612a089190613e12565b60405190815260200160405180910390a17f6d415483528749d9b4bfa85837aeca6271d845839c39bfa4614240e15dabeb1e81612a458488613df3565b612a4f9190613e12565b60405190815260200161161e565b6000806000612a6a61114d565b9250925092508015612a885761010383905561010482905542610105555b505050565b6001600160a01b038216612aed5760405162461bcd60e51b815260206004820152602160248201527f45524332303a206275726e2066726f6d20746865207a65726f206164647265736044820152607360f81b60648201526084016108da565b6001600160a01b03821660009081526033602052604090205481811015612b615760405162461bcd60e51b815260206004820152602260248201527f45524332303a206275726e20616d6f756e7420657863656564732062616c616e604482015261636560f01b60648201526084016108da565b6001600160a01b0383166000908152603360205260408120838303905560358054849290612b90908490613ea4565b90915550506040518281526000906001600160a01b038516907fddf252ad1be2c89b69c2b068fc378daa952ba7f163c4a11628f55a4df523b3ef9060200160405180910390a3505050565b6040516001600160a01b038316602482015260448101829052612a8890849063a9059cbb60e01b906064015b60408051601f198184030181529190526020810180516001600160e01b03166001600160e01b031990931692909217909152613718565b60006001600160a01b03821673bb4cdb9cbd36b01bd1cbaebf2de08d9173bc095c1415612c745750670de0b6b3a7640000919050565b6040805160028082526060820183526000926020830190803683370190505090508281600081518110612ca957612ca9613fd3565b60200260200101906001600160a01b031690816001600160a01b03168152505073bb4cdb9cbd36b01bd1cbaebf2de08d9173bc095c81600181518110612cf157612cf1613fd3565b6001600160a01b039092166020928302919091019091015260405163d06ca61f60e01b81527310ed43c718714eb63d5aa57b78b54704e256024e9063d06ca61f90612d4a90670de0b6b3a764000090859060040161402d565b60006040518083038186803b158015612d6257600080fd5b505afa158015612d76573d6000803e3d6000fd5b505050506040513d6000823e601f3d908101601f19168201604052612d9e9190810190614046565b600181518110612db057612db0613fd3565b6020026020010151915050919050565b919050565b60006001600160a01b0382167355d398326f99059ff775485246999027b31979551415612e775773b97ad0e74fa7d920791e90258a6e2085088b43206001600160a01b03166350d25bcd6040518163ffffffff1660e01b815260040160206040518083038186803b158015612e3957600080fd5b505afa158015612e4d573d6000803e3d6000fd5b505050506040513d601f19601f82011682018060405250810190612e719190613e34565b92915050565b6001600160a01b038216738ac76a51cc950d9822d68b83fe1ad97b32cd580d1415612ee9577351597f405303c4377e36123cbc172b13269ea1636001600160a01b03166350d25bcd6040518163ffffffff1660e01b815260040160206040518083038186803b158015612e3957600080fd5b6001600160a01b03821673e9e7cea3dedca5984780bafc599bd69add087d561415612f5b5773cbb98864ef56e9042e7d2efef76141f15731b82f6001600160a01b03166350d25bcd6040518163ffffffff1660e01b815260040160206040518083038186803b158015612e3957600080fd5b506000919050565b606580546001600160a01b038381166001600160a01b0319831681179093556040519116919082907f8be0079c531659141344cd1fd0a4f28419497f9722a3daafe3b4186f6b6457e090600090a35050565b60008060fd60009054906101000a90046001600160a01b03166001600160a01b03166318160ddd6040518163ffffffff1660e01b815260040160206040518083038186803b15801561300657600080fd5b505afa15801561301a573d6000803e3d6000fd5b505050506040513d601f19601f8201168201806040525081019061303e9190613e34565b90508061304d57600091505090565b60fd5460408051630240bc6b60e21b8152815160009384936001600160a01b0390911692630902f1ac9260048083019392829003018186803b15801561309257600080fd5b505afa1580156130a6573d6000803e3d6000fd5b505050506040513d601f19601f820116820180604052508101906130ca9190613ebb565b9092509050826130e26130dd8385613df3565b6137ea565b611bf390670de0b6b3a7640000613df3565b60008054610100900460ff1615613133578160ff1660011480156131175750303b155b612f5b5760405162461bcd60e51b81526004016108da906140ec565b60005460ff80841691161061315a5760405162461bcd60e51b81526004016108da906140ec565b506000805460ff191660ff92909216919091179055600190565b600054610100900460ff1661319b5760405162461bcd60e51b81526004016108da9061413a565b6131a58282613859565b5050565b600054610100900460ff166131d05760405162461bcd60e51b81526004016108da9061413a565b6109166138a7565b8015806132615750604051636eb1769f60e11b81523060048201526001600160a01b03838116602483015284169063dd62ed3e9060440160206040518083038186803b15801561322757600080fd5b505afa15801561323b573d6000803e3d6000fd5b505050506040513d601f19601f8201168201806040525081019061325f9190613e34565b155b6132cc5760405162461bcd60e51b815260206004820152603660248201527f5361666545524332303a20617070726f76652066726f6d206e6f6e2d7a65726f60448201527520746f206e6f6e2d7a65726f20616c6c6f77616e636560501b60648201526084016108da565b6040516001600160a01b038316602482015260448101829052612a8890849063095ea7b360e01b90606401612c07565b6040516001600160a01b03808516602483015283166044820152606481018290526123e69085906323b872dd60e01b90608401612c07565b6001600160a01b03821661338a5760405162461bcd60e51b815260206004820152601f60248201527f45524332303a206d696e7420746f20746865207a65726f20616464726573730060448201526064016108da565b806035600082825461339c9190613edf565b90915550506001600160a01b038216600090815260336020526040812080548392906133c9908490613edf565b90915550506040518181526001600160a01b038316906000907fddf252ad1be2c89b69c2b068fc378daa952ba7f163c4a11628f55a4df523b3ef9060200160405180910390a35050565b60975460ff16156134365760405162461bcd60e51b81526004016108da90613e7a565b6097805460ff191660011790557f62e78cea01bee320cd4e420270b5ea74000d11b0c9f74754ebdbfc544b05a25861346b3390565b6040516001600160a01b03909116815260200160405180910390a1565b60975460ff166134d15760405162461bcd60e51b815260206004820152601460248201527314185d5cd8589b194e881b9bdd081c185d5cd95960621b60448201526064016108da565b6097805460ff191690557f5db9ee0a495bf2e6ff9c91a7834c1ba4fdd244a5e8aa4e537bd38aeae4b073aa3361346b565b60fd546040516370a0823160e01b81523060048201526000916001600160a01b0316906370a082319060240160206040518083038186803b15801561354657600080fd5b505afa15801561355a573d6000803e3d6000fd5b505050506040513d601f19601f8201168201806040525081019061357e9190613e34565b905080156135f15760fc54604051631c57762b60e31b81526004810191909152602481018290526000805160206141de8339815191529063e2bbb15890604401600060405180830381600087803b1580156135d857600080fd5b505af11580156135ec573d6000803e3d6000fd5b505050505b90565b60408051600280825260608083018452926000929190602083019080368337019050509050848160008151811061362d5761362d613fd3565b60200260200101906001600160a01b031690816001600160a01b031681525050838160018151811061366157613661613fd3565b6001600160a01b03909216602092830291909101909101526040516338ed173960e01b81527310ed43c718714eb63d5aa57b78b54704e256024e906338ed1739906136b9908690600090869030904290600401614185565b600060405180830381600087803b1580156136d357600080fd5b505af11580156136e7573d6000803e3d6000fd5b505050506040513d6000823e601f3d908101601f1916820160405261370f9190810190614046565b95945050505050565b600061376d826040518060400160405280602081526020017f5361666545524332303a206c6f772d6c6576656c2063616c6c206661696c6564815250856001600160a01b03166138d79092919063ffffffff16565b805190915015612a88578080602001905181019061378b9190613f49565b612a885760405162461bcd60e51b815260206004820152602a60248201527f5361666545524332303a204552433230206f7065726174696f6e20646964206e6044820152691bdd081cdd58d8d9595960b21b60648201526084016108da565b6000600382111561384b5750806000613804600283613e12565b61380f906001613edf565b90505b818110156138455790508060028161382a8186613e12565b6138349190613edf565b61383e9190613e12565b9050613812565b50919050565b8115612dc057506001919050565b600054610100900460ff166138805760405162461bcd60e51b81526004016108da9061413a565b8151613893906036906020850190613a48565b508051612a88906037906020840190613a48565b600054610100900460ff166138ce5760405162461bcd60e51b81526004016108da9061413a565b61091633612f63565b60606138e684846000856138ee565b949350505050565b60608247101561394f5760405162461bcd60e51b815260206004820152602660248201527f416464726573733a20696e73756666696369656e742062616c616e636520666f6044820152651c8818d85b1b60d21b60648201526084016108da565b6001600160a01b0385163b6139a65760405162461bcd60e51b815260206004820152601d60248201527f416464726573733a2063616c6c20746f206e6f6e2d636f6e747261637400000060448201526064016108da565b600080866001600160a01b031685876040516139c291906141c1565b60006040518083038185875af1925050503d80600081146139ff576040519150601f19603f3d011682016040523d82523d6000602084013e613a04565b606091505b5091509150610d9682828660608315613a1e57508161086f565b825115613a2e5782518084602001fd5b8160405162461bcd60e51b81526004016108da9190613b0d565b828054613a5490613da8565b90600052602060002090601f016020900481019282613a765760008555613abc565b82601f10613a8f57805160ff1916838001178555613abc565b82800160010185558215613abc579182015b82811115613abc578251825591602001919060010190613aa1565b50613ac8929150613acc565b5090565b5b80821115613ac85760008155600101613acd565b60005b83811015613afc578181015183820152602001613ae4565b838111156123e65750506000910152565b6020815260008251806020840152613b2c816040850160208701613ae1565b601f01601f19169190910160400192915050565b6001600160a01b0381168114611e6b57600080fd5b60008060408385031215613b6857600080fd5b8235613b7381613b40565b946020939093013593505050565b8015158114611e6b57600080fd5b600060208284031215613ba157600080fd5b813561086f81613b81565b600080600060608486031215613bc157600080fd5b8335613bcc81613b40565b92506020840135613bdc81613b40565b929592945050506040919091013590565b600060208284031215613bff57600080fd5b5035919050565b600060208284031215613c1857600080fd5b813561086f81613b40565b634e487b7160e01b600052604160045260246000fd5b604051601f8201601f1916810167ffffffffffffffff81118282101715613c6257613c62613c23565b604052919050565b600082601f830112613c7b57600080fd5b813567ffffffffffffffff811115613c9557613c95613c23565b613ca8601f8201601f1916602001613c39565b818152846020838601011115613cbd57600080fd5b816020850160208301376000918101602001919091529392505050565b600080600080600060a08688031215613cf257600080fd5b853567ffffffffffffffff80821115613d0a57600080fd5b613d1689838a01613c6a565b96506020880135915080821115613d2c57600080fd5b50613d3988828901613c6a565b945050604086013592506060860135613d5181613b40565b91506080860135613d6181613b40565b809150509295509295909350565b60008060408385031215613d8257600080fd5b8235613d8d81613b40565b91506020830135613d9d81613b40565b809150509250929050565b600181811c90821680613dbc57607f821691505b6020821081141561384557634e487b7160e01b600052602260045260246000fd5b634e487b7160e01b600052601160045260246000fd5b6000816000190483118215151615613e0d57613e0d613ddd565b500290565b600082613e2f57634e487b7160e01b600052601260045260246000fd5b500490565b600060208284031215613e4657600080fd5b5051919050565b60208082526013908201527227b7363c9037bbb732b91037b91030b236b4b760691b604082015260600190565b60208082526010908201526f14185d5cd8589b194e881c185d5cd95960821b604082015260600190565b600082821015613eb657613eb6613ddd565b500390565b60008060408385031215613ece57600080fd5b505080516020909101519092909150565b60008219821115613ef257613ef2613ddd565b500190565b6020808252818101527f4f776e61626c653a2063616c6c6572206973206e6f7420746865206f776e6572604082015260600190565b600060208284031215613f3e57600080fd5b815161086f81613b40565b600060208284031215613f5b57600080fd5b815161086f81613b81565b600080600060608486031215613f7b57600080fd5b8351925060208401519150604084015190509250925092565b600080600080600060a08688031215613fac57600080fd5b855194506020860151935060408601519250606086015191506080860151613d6181613b81565b634e487b7160e01b600052603260045260246000fd5b600081518084526020808501945080840160005b838110156140225781516001600160a01b031687529582019590820190600101613ffd565b509495945050505050565b8281526040602082015260006138e66040830184613fe9565b6000602080838503121561405957600080fd5b825167ffffffffffffffff8082111561407157600080fd5b818501915085601f83011261408557600080fd5b81518181111561409757614097613c23565b8060051b91506140a8848301613c39565b81815291830184019184810190888411156140c257600080fd5b938501935b838510156140e0578451825293850193908501906140c7565b98975050505050505050565b6020808252602e908201527f496e697469616c697a61626c653a20636f6e747261637420697320616c72656160408201526d191e481a5b9a5d1a585b1a5e995960921b606082015260800190565b6020808252602b908201527f496e697469616c697a61626c653a20636f6e7472616374206973206e6f74206960408201526a6e697469616c697a696e6760a81b606082015260800190565b85815284602082015260a0604082015260006141a460a0830186613fe9565b6001600160a01b0394909416606083015250608001529392505050565b600082516141d3818460208701613ae1565b919091019291505056fe000000000000000000000000a5f8c5dbd5f286960b9d90548680ae5ebff07652a264697066735822122051691b5bbc793a7c63080bd607d10fef12d54aec8b5bf35aae1d033026d7ed3f64736f6c63430008090033",
  "devdoc": {
    "kind": "dev",
    "methods": {
      "allowance(address,address)": {
        "details": "See {IERC20-allowance}."
      },
      "approve(address,uint256)": {
        "details": "See {IERC20-approve}. NOTE: If `amount` is the maximum `uint256`, the allowance is not updated on `transferFrom`. This is semantically equivalent to an infinite approval. Requirements: - `spender` cannot be the zero address."
      },
      "balanceOf(address)": {
        "details": "See {IERC20-balanceOf}."
      },
      "decimals()": {
        "details": "Returns the number of decimals used to get its user representation. For example, if `decimals` equals `2`, a balance of `505` tokens should be displayed to a user as `5.05` (`505 / 10 ** 2`). Tokens usually opt for a value of 18, imitating the relationship between Ether and Wei. This is the value {ERC20} uses, unless this function is overridden; NOTE: This information is only used for _display_ purposes: it in no way affects any of the arithmetic of the contract, including {IERC20-balanceOf} and {IERC20-transfer}."
      },
      "decreaseAllowance(address,uint256)": {
        "details": "Atomically decreases the allowance granted to `spender` by the caller. This is an alternative to {approve} that can be used as a mitigation for problems described in {IERC20-approve}. Emits an {Approval} event indicating the updated allowance. Requirements: - `spender` cannot be the zero address. - `spender` must have allowance for the caller of at least `subtractedValue`."
      },
      "deposit(uint256)": {
        "params": {
          "_amount": "amount of lptokens to deposit"
        }
      },
      "increaseAllowance(address,uint256)": {
        "details": "Atomically increases the allowance granted to `spender` by the caller. This is an alternative to {approve} that can be used as a mitigation for problems described in {IERC20-approve}. Emits an {Approval} event indicating the updated allowance. Requirements: - `spender` cannot be the zero address."
      },
      "name()": {
        "details": "Returns the name of the token."
      },
      "owner()": {
        "details": "Returns the address of the current owner."
      },
      "paused()": {
        "details": "Returns true if the contract is paused, and false otherwise."
      },
      "renounceOwnership()": {
        "details": "Leaves the contract without owner. It will not be possible to call `onlyOwner` functions anymore. Can only be called by the current owner. NOTE: Renouncing ownership will leave the contract without an owner, thereby removing any functionality that is only available to the owner."
      },
      "setFee(uint256)": {
        "params": {
          "_yieldFeePerc": "deposit fee percentage. 2000 for 20%"
        }
      },
      "symbol()": {
        "details": "Returns the symbol of the token, usually a shorter version of the name."
      },
      "totalSupply()": {
        "details": "See {IERC20-totalSupply}."
      },
      "transfer(address,uint256)": {
        "details": "See {IERC20-transfer}. Requirements: - `to` cannot be the zero address. - the caller must have a balance of at least `amount`."
      },
      "transferFrom(address,address,uint256)": {
        "details": "See {IERC20-transferFrom}. Emits an {Approval} event indicating the updated allowance. This is not required by the EIP. See the note at the beginning of {ERC20}. NOTE: Does not update the allowance if the current allowance is the maximum `uint256`. Requirements: - `from` and `to` cannot be the zero address. - `from` must have a balance of at least `amount`. - the caller must have allowance for ``from``'s tokens of at least `amount`."
      },
      "transferOwnership(address)": {
        "details": "Transfers ownership of the contract to a new account (`newOwner`). Can only be called by the current owner."
      },
      "withdraw(uint256)": {
        "params": {
          "_shares": "amount of shares to burn"
        }
      }
    },
    "version": 1
  },
  "userdoc": {
    "kind": "user",
    "methods": {
      "emergencyWithdraw()": {
        "notice": "Withdraws funds staked in mirror to this vault and pauses deposit, yield, invest functions"
      },
      "getPendingRewards()": {
        "notice": "Returns the pending rewards in UDS."
      },
      "reinvest()": {
        "notice": "Unpauses deposit, yield, invest functions, and invests funds."
      },
      "setFee(uint256)": {
        "notice": "Function to set deposit and yield fee"
      }
    },
    "version": 1
  },
  "storageLayout": {
    "storage": [
      {
        "astId": 130,
        "contract": "contracts/lci/deps/PckFarm2Vault.sol:PckFarm2Vault",
        "label": "_initialized",
        "offset": 0,
        "slot": "0",
        "type": "t_uint8"
      },
      {
        "astId": 133,
        "contract": "contracts/lci/deps/PckFarm2Vault.sol:PckFarm2Vault",
        "label": "_initializing",
        "offset": 1,
        "slot": "0",
        "type": "t_bool"
      },
      {
        "astId": 1657,
        "contract": "contracts/lci/deps/PckFarm2Vault.sol:PckFarm2Vault",
        "label": "__gap",
        "offset": 0,
        "slot": "1",
        "type": "t_array(t_uint256)50_storage"
      },
      {
        "astId": 454,
        "contract": "contracts/lci/deps/PckFarm2Vault.sol:PckFarm2Vault",
        "label": "_balances",
        "offset": 0,
        "slot": "51",
        "type": "t_mapping(t_address,t_uint256)"
      },
      {
        "astId": 460,
        "contract": "contracts/lci/deps/PckFarm2Vault.sol:PckFarm2Vault",
        "label": "_allowances",
        "offset": 0,
        "slot": "52",
        "type": "t_mapping(t_address,t_mapping(t_address,t_uint256))"
      },
      {
        "astId": 462,
        "contract": "contracts/lci/deps/PckFarm2Vault.sol:PckFarm2Vault",
        "label": "_totalSupply",
        "offset": 0,
        "slot": "53",
        "type": "t_uint256"
      },
      {
        "astId": 464,
        "contract": "contracts/lci/deps/PckFarm2Vault.sol:PckFarm2Vault",
        "label": "_name",
        "offset": 0,
        "slot": "54",
        "type": "t_string_storage"
      },
      {
        "astId": 466,
        "contract": "contracts/lci/deps/PckFarm2Vault.sol:PckFarm2Vault",
        "label": "_symbol",
        "offset": 0,
        "slot": "55",
        "type": "t_string_storage"
      },
      {
        "astId": 1045,
        "contract": "contracts/lci/deps/PckFarm2Vault.sol:PckFarm2Vault",
        "label": "__gap",
        "offset": 0,
        "slot": "56",
        "type": "t_array(t_uint256)45_storage"
      },
      {
        "astId": 10,
        "contract": "contracts/lci/deps/PckFarm2Vault.sol:PckFarm2Vault",
        "label": "_owner",
        "offset": 0,
        "slot": "101",
        "type": "t_address"
      },
      {
        "astId": 122,
        "contract": "contracts/lci/deps/PckFarm2Vault.sol:PckFarm2Vault",
        "label": "__gap",
        "offset": 0,
        "slot": "102",
        "type": "t_array(t_uint256)49_storage"
      },
      {
        "astId": 286,
        "contract": "contracts/lci/deps/PckFarm2Vault.sol:PckFarm2Vault",
        "label": "_paused",
        "offset": 0,
        "slot": "151",
        "type": "t_bool"
      },
      {
        "astId": 375,
        "contract": "contracts/lci/deps/PckFarm2Vault.sol:PckFarm2Vault",
        "label": "__gap",
        "offset": 0,
        "slot": "152",
        "type": "t_array(t_uint256)49_storage"
      },
      {
        "astId": 390,
        "contract": "contracts/lci/deps/PckFarm2Vault.sol:PckFarm2Vault",
        "label": "_status",
        "offset": 0,
        "slot": "201",
        "type": "t_uint256"
      },
      {
        "astId": 434,
        "contract": "contracts/lci/deps/PckFarm2Vault.sol:PckFarm2Vault",
        "label": "__gap",
        "offset": 0,
        "slot": "202",
        "type": "t_array(t_uint256)49_storage"
      },
      {
        "astId": 17270,
        "contract": "contracts/lci/deps/PckFarm2Vault.sol:PckFarm2Vault",
        "label": "yieldFee",
        "offset": 0,
        "slot": "251",
        "type": "t_uint256"
      },
      {
        "astId": 17272,
        "contract": "contracts/lci/deps/PckFarm2Vault.sol:PckFarm2Vault",
        "label": "pid",
        "offset": 0,
        "slot": "252",
        "type": "t_uint256"
      },
      {
        "astId": 17275,
        "contract": "contracts/lci/deps/PckFarm2Vault.sol:PckFarm2Vault",
        "label": "lpToken",
        "offset": 0,
        "slot": "253",
        "type": "t_contract(IUniPair)27840"
      },
      {
        "astId": 17278,
        "contract": "contracts/lci/deps/PckFarm2Vault.sol:PckFarm2Vault",
        "label": "token0",
        "offset": 0,
        "slot": "254",
        "type": "t_contract(IERC20Upgradeable)1124"
      },
      {
        "astId": 17281,
        "contract": "contracts/lci/deps/PckFarm2Vault.sol:PckFarm2Vault",
        "label": "token1",
        "offset": 0,
        "slot": "255",
        "type": "t_contract(IERC20Upgradeable)1124"
      },
      {
        "astId": 17283,
        "contract": "contracts/lci/deps/PckFarm2Vault.sol:PckFarm2Vault",
        "label": "treasuryWallet",
        "offset": 0,
        "slot": "256",
        "type": "t_address"
      },
      {
        "astId": 17285,
        "contract": "contracts/lci/deps/PckFarm2Vault.sol:PckFarm2Vault",
        "label": "admin",
        "offset": 0,
        "slot": "257",
        "type": "t_address"
      },
      {
        "astId": 17289,
        "contract": "contracts/lci/deps/PckFarm2Vault.sol:PckFarm2Vault",
        "label": "depositedBlock",
        "offset": 0,
        "slot": "258",
        "type": "t_mapping(t_address,t_uint256)"
      },
      {
        "astId": 17314,
        "contract": "contracts/lci/deps/PckFarm2Vault.sol:PckFarm2Vault",
        "label": "lpRewardApr",
        "offset": 0,
        "slot": "259",
        "type": "t_uint256"
      },
      {
        "astId": 17316,
        "contract": "contracts/lci/deps/PckFarm2Vault.sol:PckFarm2Vault",
        "label": "lpReservePerShare",
        "offset": 0,
        "slot": "260",
        "type": "t_uint256"
      },
      {
        "astId": 17318,
        "contract": "contracts/lci/deps/PckFarm2Vault.sol:PckFarm2Vault",
        "label": "lpDataLastUpdate",
        "offset": 0,
        "slot": "261",
        "type": "t_uint256"
      }
    ],
    "types": {
      "t_address": {
        "encoding": "inplace",
        "label": "address",
        "numberOfBytes": "20"
      },
      "t_array(t_uint256)45_storage": {
        "base": "t_uint256",
        "encoding": "inplace",
        "label": "uint256[45]",
        "numberOfBytes": "1440"
      },
      "t_array(t_uint256)49_storage": {
        "base": "t_uint256",
        "encoding": "inplace",
        "label": "uint256[49]",
        "numberOfBytes": "1568"
      },
      "t_array(t_uint256)50_storage": {
        "base": "t_uint256",
        "encoding": "inplace",
        "label": "uint256[50]",
        "numberOfBytes": "1600"
      },
      "t_bool": {
        "encoding": "inplace",
        "label": "bool",
        "numberOfBytes": "1"
      },
      "t_contract(IERC20Upgradeable)1124": {
        "encoding": "inplace",
        "label": "contract IERC20Upgradeable",
        "numberOfBytes": "20"
      },
      "t_contract(IUniPair)27840": {
        "encoding": "inplace",
        "label": "contract IUniPair",
        "numberOfBytes": "20"
      },
      "t_mapping(t_address,t_mapping(t_address,t_uint256))": {
        "encoding": "mapping",
        "key": "t_address",
        "label": "mapping(address => mapping(address => uint256))",
        "numberOfBytes": "32",
        "value": "t_mapping(t_address,t_uint256)"
      },
      "t_mapping(t_address,t_uint256)": {
        "encoding": "mapping",
        "key": "t_address",
        "label": "mapping(address => uint256)",
        "numberOfBytes": "32",
        "value": "t_uint256"
      },
      "t_string_storage": {
        "encoding": "bytes",
        "label": "string",
        "numberOfBytes": "32"
      },
      "t_uint256": {
        "encoding": "inplace",
        "label": "uint256",
        "numberOfBytes": "32"
      },
      "t_uint8": {
        "encoding": "inplace",
        "label": "uint8",
        "numberOfBytes": "1"
      }
    }
  }
}