{
  "address": "0x2786618A8cDAD2c6D44D9Ee3843119BB7c885680",
  "abi": [
    {
      "anonymous": false,
      "inputs": [
        {
          "indexed": true,
          "internalType": "address",
          "name": "owner",
          "type": "address"
        },
        {
          "indexed": true,
          "internalType": "address",
          "name": "spender",
          "type": "address"
        },
        {
          "indexed": false,
          "internalType": "uint256",
          "name": "value",
          "type": "uint256"
        }
      ],
      "name": "Approval",
      "type": "event"
    },
    {
      "anonymous": false,
      "inputs": [
        {
          "indexed": false,
          "internalType": "address",
          "name": "_user",
          "type": "address"
        },
        {
          "indexed": false,
          "internalType": "uint256",
          "name": "_amount",
          "type": "uint256"
        },
        {
          "indexed": false,
          "internalType": "uint256",
          "name": "_shares",
          "type": "uint256"
        }
      ],
      "name": "Deposit",
      "type": "event"
    },
    {
      "anonymous": false,
      "inputs": [
        {
          "indexed": false,
          "internalType": "uint256",
          "name": "_amount",
          "type": "uint256"
        }
      ],
      "name": "EmergencyWithdraw",
      "type": "event"
    },
    {
      "anonymous": false,
      "inputs": [
        {
          "indexed": false,
          "internalType": "uint8",
          "name": "version",
          "type": "uint8"
        }
      ],
      "name": "Initialized",
      "type": "event"
    },
    {
      "anonymous": false,
      "inputs": [
        {
          "indexed": false,
          "internalType": "uint256",
          "name": "_amount",
          "type": "uint256"
        }
      ],
      "name": "Invest",
      "type": "event"
    },
    {
      "anonymous": false,
      "inputs": [
        {
          "indexed": true,
          "internalType": "address",
          "name": "previousOwner",
          "type": "address"
        },
        {
          "indexed": true,
          "internalType": "address",
          "name": "newOwner",
          "type": "address"
        }
      ],
      "name": "OwnershipTransferred",
      "type": "event"
    },
    {
      "anonymous": false,
      "inputs": [
        {
          "indexed": false,
          "internalType": "address",
          "name": "account",
          "type": "address"
        }
      ],
      "name": "Paused",
      "type": "event"
    },
    {
      "anonymous": false,
      "inputs": [
        {
          "indexed": false,
          "internalType": "address",
          "name": "_oldAdmin",
          "type": "address"
        },
        {
          "indexed": false,
          "internalType": "address",
          "name": "_newAdmin",
          "type": "address"
        }
      ],
      "name": "SetAdmin",
      "type": "event"
    },
    {
      "anonymous": false,
      "inputs": [
        {
          "indexed": false,
          "internalType": "address",
          "name": "_wallet",
          "type": "address"
        }
      ],
      "name": "SetTreasuryWallet",
      "type": "event"
    },
    {
      "anonymous": false,
      "inputs": [
        {
          "indexed": false,
          "internalType": "uint256",
          "name": "_fee",
          "type": "uint256"
        }
      ],
      "name": "SetYieldFeePerc",
      "type": "event"
    },
    {
      "anonymous": false,
      "inputs": [
        {
          "indexed": true,
          "internalType": "address",
          "name": "from",
          "type": "address"
        },
        {
          "indexed": true,
          "internalType": "address",
          "name": "to",
          "type": "address"
        },
        {
          "indexed": false,
          "internalType": "uint256",
          "name": "value",
          "type": "uint256"
        }
      ],
      "name": "Transfer",
      "type": "event"
    },
    {
      "anonymous": false,
      "inputs": [
        {
          "indexed": false,
          "internalType": "address",
          "name": "account",
          "type": "address"
        }
      ],
      "name": "Unpaused",
      "type": "event"
    },
    {
      "anonymous": false,
      "inputs": [
        {
          "indexed": false,
          "internalType": "address",
          "name": "_user",
          "type": "address"
        },
        {
          "indexed": false,
          "internalType": "uint256",
          "name": "_amount",
          "type": "uint256"
        },
        {
          "indexed": false,
          "internalType": "uint256",
          "name": "_shares",
          "type": "uint256"
        }
      ],
      "name": "Withdraw",
      "type": "event"
    },
    {
      "anonymous": false,
      "inputs": [
        {
          "indexed": false,
          "internalType": "uint256",
          "name": "_amount",
          "type": "uint256"
        }
      ],
      "name": "Yield",
      "type": "event"
    },
    {
      "anonymous": false,
      "inputs": [
        {
          "indexed": false,
          "internalType": "uint256",
          "name": "_amount",
          "type": "uint256"
        }
      ],
      "name": "YieldFee",
      "type": "event"
    },
    {
      "inputs": [],
      "name": "CAKE",
      "outputs": [
        {
          "internalType": "contract IERC20Upgradeable",
          "name": "",
          "type": "address"
        }
      ],
      "stateMutability": "view",
      "type": "function"
    },
    {
      "inputs": [],
      "name": "MasterChefV2",
      "outputs": [
        {
          "internalType": "contract IMasterChefV2",
          "name": "",
          "type": "address"
        }
      ],
      "stateMutability": "view",
      "type": "function"
    },
    {
      "inputs": [],
      "name": "PckRouter",
      "outputs": [
        {
          "internalType": "contract IUniRouter",
          "name": "",
          "type": "address"
        }
      ],
      "stateMutability": "view",
      "type": "function"
    },
    {
      "inputs": [],
      "name": "WBNB",
      "outputs": [
        {
          "internalType": "contract IERC20Upgradeable",
          "name": "",
          "type": "address"
        }
      ],
      "stateMutability": "view",
      "type": "function"
    },
    {
      "inputs": [
        {
          "internalType": "uint256",
          "name": "lpAmt",
          "type": "uint256"
        }
      ],
      "name": "_getValueInBNB",
      "outputs": [
        {
          "internalType": "uint256",
          "name": "_valueInBNB",
          "type": "uint256"
        }
      ],
      "stateMutability": "view",
      "type": "function"
    },
    {
      "inputs": [
        {
          "internalType": "uint256",
          "name": "lpAmt",
          "type": "uint256"
        }
      ],
      "name": "_getValueInUSD",
      "outputs": [
        {
          "internalType": "uint256",
          "name": "_valueInUSD",
          "type": "uint256"
        },
        {
          "internalType": "bool",
          "name": "valid",
          "type": "bool"
        }
      ],
      "stateMutability": "view",
      "type": "function"
    },
    {
      "inputs": [],
      "name": "admin",
      "outputs": [
        {
          "internalType": "address",
          "name": "",
          "type": "address"
        }
      ],
      "stateMutability": "view",
      "type": "function"
    },
    {
      "inputs": [
        {
          "internalType": "address",
          "name": "owner",
          "type": "address"
        },
        {
          "internalType": "address",
          "name": "spender",
          "type": "address"
        }
      ],
      "name": "allowance",
      "outputs": [
        {
          "internalType": "uint256",
          "name": "",
          "type": "uint256"
        }
      ],
      "stateMutability": "view",
      "type": "function"
    },
    {
      "inputs": [
        {
          "internalType": "address",
          "name": "spender",
          "type": "address"
        },
        {
          "internalType": "uint256",
          "name": "amount",
          "type": "uint256"
        }
      ],
      "name": "approve",
      "outputs": [
        {
          "internalType": "bool",
          "name": "",
          "type": "bool"
        }
      ],
      "stateMutability": "nonpayable",
      "type": "function"
    },
    {
      "inputs": [
        {
          "internalType": "address",
          "name": "account",
          "type": "address"
        }
      ],
      "name": "balanceOf",
      "outputs": [
        {
          "internalType": "uint256",
          "name": "",
          "type": "uint256"
        }
      ],
      "stateMutability": "view",
      "type": "function"
    },
    {
      "inputs": [],
      "name": "decimals",
      "outputs": [
        {
          "internalType": "uint8",
          "name": "",
          "type": "uint8"
        }
      ],
      "stateMutability": "view",
      "type": "function"
    },
    {
      "inputs": [
        {
          "internalType": "address",
          "name": "spender",
          "type": "address"
        },
        {
          "internalType": "uint256",
          "name": "subtractedValue",
          "type": "uint256"
        }
      ],
      "name": "decreaseAllowance",
      "outputs": [
        {
          "internalType": "bool",
          "name": "",
          "type": "bool"
        }
      ],
      "stateMutability": "nonpayable",
      "type": "function"
    },
    {
      "inputs": [
        {
          "internalType": "uint256",
          "name": "_amount",
          "type": "uint256"
        }
      ],
      "name": "deposit",
      "outputs": [],
      "stateMutability": "nonpayable",
      "type": "function"
    },
    {
      "inputs": [],
      "name": "emergencyWithdraw",
      "outputs": [],
      "stateMutability": "nonpayable",
      "type": "function"
    },
    {
      "inputs": [],
      "name": "getAPR",
      "outputs": [
        {
          "internalType": "uint256",
          "name": "",
          "type": "uint256"
        }
      ],
      "stateMutability": "view",
      "type": "function"
    },
    {
      "inputs": [],
      "name": "getAllPool",
      "outputs": [
        {
          "internalType": "uint256",
          "name": "",
          "type": "uint256"
        }
      ],
      "stateMutability": "view",
      "type": "function"
    },
    {
      "inputs": [],
      "name": "getAllPoolInBNB",
      "outputs": [
        {
          "internalType": "uint256",
          "name": "_valueInBNB",
          "type": "uint256"
        }
      ],
      "stateMutability": "view",
      "type": "function"
    },
    {
      "inputs": [],
      "name": "getAllPoolInUSD",
      "outputs": [
        {
          "internalType": "uint256",
          "name": "",
          "type": "uint256"
        }
      ],
      "stateMutability": "view",
      "type": "function"
    },
    {
      "inputs": [],
      "name": "getCakeRewardApr",
      "outputs": [
        {
          "internalType": "uint256",
          "name": "",
          "type": "uint256"
        }
      ],
      "stateMutability": "view",
      "type": "function"
    },
    {
      "inputs": [],
      "name": "getLpRewardApr",
      "outputs": [
        {
          "internalType": "uint256",
          "name": "",
          "type": "uint256"
        },
        {
          "internalType": "uint256",
          "name": "",
          "type": "uint256"
        },
        {
          "internalType": "bool",
          "name": "",
          "type": "bool"
        }
      ],
      "stateMutability": "view",
      "type": "function"
    },
    {
      "inputs": [],
      "name": "getPendingRewards",
      "outputs": [
        {
          "internalType": "uint256",
          "name": "",
          "type": "uint256"
        }
      ],
      "stateMutability": "view",
      "type": "function"
    },
    {
      "inputs": [
        {
          "internalType": "bool",
          "name": "inUSD",
          "type": "bool"
        }
      ],
      "name": "getPricePerFullShare",
      "outputs": [
        {
          "internalType": "uint256",
          "name": "",
          "type": "uint256"
        }
      ],
      "stateMutability": "view",
      "type": "function"
    },
    {
      "inputs": [
        {
          "internalType": "address",
          "name": "spender",
          "type": "address"
        },
        {
          "internalType": "uint256",
          "name": "addedValue",
          "type": "uint256"
        }
      ],
      "name": "increaseAllowance",
      "outputs": [
        {
          "internalType": "bool",
          "name": "",
          "type": "bool"
        }
      ],
      "stateMutability": "nonpayable",
      "type": "function"
    },
    {
      "inputs": [
        {
          "internalType": "string",
          "name": "_name",
          "type": "string"
        },
        {
          "internalType": "string",
          "name": "_symbol",
          "type": "string"
        },
        {
          "internalType": "uint256",
          "name": "_pid",
          "type": "uint256"
        },
        {
          "internalType": "address",
          "name": "_treasury",
          "type": "address"
        },
        {
          "internalType": "address",
          "name": "_admin",
          "type": "address"
        }
      ],
      "name": "initialize",
      "outputs": [],
      "stateMutability": "nonpayable",
      "type": "function"
    },
    {
      "inputs": [],
      "name": "lpDataLastUpdate",
      "outputs": [
        {
          "internalType": "uint256",
          "name": "",
          "type": "uint256"
        }
      ],
      "stateMutability": "view",
      "type": "function"
    },
    {
      "inputs": [],
      "name": "lpReservePerShare",
      "outputs": [
        {
          "internalType": "uint256",
          "name": "",
          "type": "uint256"
        }
      ],
      "stateMutability": "view",
      "type": "function"
    },
    {
      "inputs": [],
      "name": "lpRewardApr",
      "outputs": [
        {
          "internalType": "uint256",
          "name": "",
          "type": "uint256"
        }
      ],
      "stateMutability": "view",
      "type": "function"
    },
    {
      "inputs": [],
      "name": "lpToken",
      "outputs": [
        {
          "internalType": "contract IUniPair",
          "name": "",
          "type": "address"
        }
      ],
      "stateMutability": "view",
      "type": "function"
    },
    {
      "inputs": [],
      "name": "name",
      "outputs": [
        {
          "internalType": "string",
          "name": "",
          "type": "string"
        }
      ],
      "stateMutability": "view",
      "type": "function"
    },
    {
      "inputs": [],
      "name": "owner",
      "outputs": [
        {
          "internalType": "address",
          "name": "",
          "type": "address"
        }
      ],
      "stateMutability": "view",
      "type": "function"
    },
    {
      "inputs": [],
      "name": "paused",
      "outputs": [
        {
          "internalType": "bool",
          "name": "",
          "type": "bool"
        }
      ],
      "stateMutability": "view",
      "type": "function"
    },
    {
      "inputs": [],
      "name": "pid",
      "outputs": [
        {
          "internalType": "uint256",
          "name": "",
          "type": "uint256"
        }
      ],
      "stateMutability": "view",
      "type": "function"
    },
    {
      "inputs": [],
      "name": "reinvest",
      "outputs": [],
      "stateMutability": "nonpayable",
      "type": "function"
    },
    {
      "inputs": [],
      "name": "renounceOwnership",
      "outputs": [],
      "stateMutability": "nonpayable",
      "type": "function"
    },
    {
      "inputs": [],
      "name": "resetLpRewardApr",
      "outputs": [],
      "stateMutability": "nonpayable",
      "type": "function"
    },
    {
      "inputs": [
        {
          "internalType": "address",
          "name": "_newAdmin",
          "type": "address"
        }
      ],
      "name": "setAdmin",
      "outputs": [],
      "stateMutability": "nonpayable",
      "type": "function"
    },
    {
      "inputs": [
        {
          "internalType": "uint256",
          "name": "_yieldFeePerc",
          "type": "uint256"
        }
      ],
      "name": "setFee",
      "outputs": [],
      "stateMutability": "nonpayable",
      "type": "function"
    },
    {
      "inputs": [
        {
          "internalType": "address",
          "name": "_wallet",
          "type": "address"
        }
      ],
      "name": "setTreasuryWallet",
      "outputs": [],
      "stateMutability": "nonpayable",
      "type": "function"
    },
    {
      "inputs": [],
      "name": "symbol",
      "outputs": [
        {
          "internalType": "string",
          "name": "",
          "type": "string"
        }
      ],
      "stateMutability": "view",
      "type": "function"
    },
    {
      "inputs": [],
      "name": "token0",
      "outputs": [
        {
          "internalType": "contract IERC20Upgradeable",
          "name": "",
          "type": "address"
        }
      ],
      "stateMutability": "view",
      "type": "function"
    },
    {
      "inputs": [],
      "name": "token1",
      "outputs": [
        {
          "internalType": "contract IERC20Upgradeable",
          "name": "",
          "type": "address"
        }
      ],
      "stateMutability": "view",
      "type": "function"
    },
    {
      "inputs": [],
      "name": "totalSupply",
      "outputs": [
        {
          "internalType": "uint256",
          "name": "",
          "type": "uint256"
        }
      ],
      "stateMutability": "view",
      "type": "function"
    },
    {
      "inputs": [
        {
          "internalType": "address",
          "name": "to",
          "type": "address"
        },
        {
          "internalType": "uint256",
          "name": "amount",
          "type": "uint256"
        }
      ],
      "name": "transfer",
      "outputs": [
        {
          "internalType": "bool",
          "name": "",
          "type": "bool"
        }
      ],
      "stateMutability": "nonpayable",
      "type": "function"
    },
    {
      "inputs": [
        {
          "internalType": "address",
          "name": "from",
          "type": "address"
        },
        {
          "internalType": "address",
          "name": "to",
          "type": "address"
        },
        {
          "internalType": "uint256",
          "name": "amount",
          "type": "uint256"
        }
      ],
      "name": "transferFrom",
      "outputs": [
        {
          "internalType": "bool",
          "name": "",
          "type": "bool"
        }
      ],
      "stateMutability": "nonpayable",
      "type": "function"
    },
    {
      "inputs": [
        {
          "internalType": "address",
          "name": "newOwner",
          "type": "address"
        }
      ],
      "name": "transferOwnership",
      "outputs": [],
      "stateMutability": "nonpayable",
      "type": "function"
    },
    {
      "inputs": [],
      "name": "treasuryWallet",
      "outputs": [
        {
          "internalType": "address",
          "name": "",
          "type": "address"
        }
      ],
      "stateMutability": "view",
      "type": "function"
    },
    {
      "inputs": [
        {
          "internalType": "uint256",
          "name": "_shares",
          "type": "uint256"
        }
      ],
      "name": "withdraw",
      "outputs": [],
      "stateMutability": "nonpayable",
      "type": "function"
    },
    {
      "inputs": [],
      "name": "yield",
      "outputs": [],
      "stateMutability": "nonpayable",
      "type": "function"
    },
    {
      "inputs": [],
      "name": "yieldFee",
      "outputs": [
        {
          "internalType": "uint256",
          "name": "",
          "type": "uint256"
        }
      ],
      "stateMutability": "view",
      "type": "function"
    }
  ],
  "transactionHash": "0x7b927c5cf42e37f54e5f11c6f0b0b89c1a001bad681040b622cc897259987eee",
  "args": [],
  "numDeployments": 3,
  "solcInputHash": "9a335077fa45839f87120ae1e6af8ee1",
  "bytecode": "0x608060405234801561001057600080fd5b506140da806100206000396000f3fe608060405234801561001057600080fd5b50600436106102bb5760003560e01c8063715018a611610182578063afad96d1116100e9578063db2e21bc116100a2578063f10684541161007c578063f1068454146105f7578063f2fde38b14610600578063f851a44014610613578063fdb5a03e1461062757600080fd5b8063db2e21bc146105c7578063dd62ed3e146105cf578063e5653aa1146105e257600080fd5b8063afad96d11461057f578063b6b55f2514610589578063bd244af41461059c578063c89d5b8b146105a4578063d21220a7146105ac578063d9621f9e146105bf57600080fd5b80638dd950021161013b5780638dd950021461051b57806395d89b4114610536578063a20a4cb41461053e578063a457c2d714610546578063a8602fea14610559578063a9059cbb1461056c57600080fd5b8063715018a6146104b857806372d6460e146104c05780637e77c503146104e557806388ac86b2146104f85780638b6b7536146105005780638da5cb5b1461050a57600080fd5b806331970dd2116102265780635fcbd285116101df5780635fcbd28514610413578063676660561461042657806368fe53561461044e57806369fe0e2d14610469578063704b6c021461047c57806370a082311461048f57600080fd5b806331970dd2146103ab57806339509351146103be5780633a197e85146103d15780634626402b146103d95780634ca6ef28146103ed5780635c975abb1461040857600080fd5b80631f04221c116102785780631f04221c1461034f57806320f149081461035957806323b872dd1461036c578063285939841461037f5780632e1a7d4d14610389578063313ce5671461039c57600080fd5b8063034f4083146102c057806306fdde03146102dc578063095ea7b3146102f157806309c6c128146103145780630dfe16811461031c57806318160ddd14610347575b600080fd5b6102c960fb5481565b6040519081526020015b60405180910390f35b6102e461062f565b6040516102d39190613a61565b6103046102ff366004613aa9565b6106c1565b60405190151581526020016102d3565b6102c96106d9565b60fe5461032f906001600160a01b031681565b6040516001600160a01b0390911681526020016102d3565b6035546102c9565b6102c96101045481565b6102c9610367366004613ae3565b6107f3565b61030461037a366004613b00565b610876565b61038761089a565b005b610387610397366004613b41565b6108fd565b604051601281526020016102d3565b6102c96103b9366004613b41565b610be0565b6103046103cc366004613aa9565b610d86565b610387610da8565b6101005461032f906001600160a01b031681565b61032f730e09fabb73bd3ade0a17ecc321fd13a19e81ce8281565b60975460ff16610304565b60fd5461032f906001600160a01b031681565b610439610434366004613b41565b610dca565b604080519283529015156020830152016102d3565b61032f7310ed43c718714eb63d5aa57b78b54704e256024e81565b610387610477366004613b41565b610fa0565b61038761048a366004613b5a565b61102e565b6102c961049d366004613b5a565b6001600160a01b031660009081526033602052604090205490565b610387611098565b6104c86110aa565b6040805193845260208401929092521515908201526060016102d3565b6103876104f3366004613c2e565b61118f565b6102c9611628565b6102c96101055481565b6065546001600160a01b031661032f565b61032f73bb4cdb9cbd36b01bd1cbaebf2de08d9173bc095c81565b6102e461163a565b6102c9611649565b610304610554366004613aa9565b611767565b610387610567366004613b5a565b6117e2565b61030461057a366004613aa9565b611880565b6102c96101035481565b610387610597366004613b41565b61188e565b6102c9611a64565b6102c9611aba565b60ff5461032f906001600160a01b031681565b6102c9611b0f565b610387611bca565b6102c96105dd366004613cc3565b611d52565b61032f60008051602061408583398151915281565b6102c960fc5481565b61038761060e366004613b5a565b611d7d565b6101015461032f906001600160a01b031681565b610387611df6565b60606036805461063e90613cfc565b80601f016020809104026020016040519081016040528092919081815260200182805461066a90613cfc565b80156106b75780601f1061068c576101008083540402835291602001916106b7565b820191906000526020600020905b81548152906001019060200180831161069a57829003601f168201915b5050505050905090565b6000336106cf818585611e4e565b5060019392505050565b6000806106e4611f72565b90506000806106f16121d0565b90925090506000816107038486613d47565b61070d9190613d66565b60fd546040516370a0823160e01b8152600080516020614085833981519152600482015291925060009161079e916001600160a01b0316906370a082319060240160206040518083038186803b15801561076657600080fd5b505afa15801561077a573d6000803e3d6000fd5b505050506040513d601f19601f820116820180604052508101906103b99190613d88565b90506000806107ab612267565b90925090506000816107bd8486613d47565b6107c79190613d66565b9050806107dc86670de0b6b3a7640000613d47565b6107e69190613d66565b9850505050505050505090565b6000806107ff60355490565b9050806108165750670de0b6b3a764000092915050565b60018315151461084a5780610829611649565b61083b90670de0b6b3a7640000613d47565b6108459190613d66565b61086f565b80610853611a64565b61086590670de0b6b3a7640000613d47565b61086f9190613d66565b9392505050565b6000336108848582856122b9565b61088f858585612333565b506001949350505050565b6065546001600160a01b03163314806108be5750610101546001600160a01b031633145b6108e35760405162461bcd60e51b81526004016108da90613da1565b60405180910390fd5b6108eb612501565b6108f3612547565b6108fb6129ea565b565b600260c95414156109505760405162461bcd60e51b815260206004820152601f60248201527f5265656e7472616e637947756172643a207265656e7472616e742063616c6c0060448201526064016108da565b600260c955806109935760405162461bcd60e51b815260206004820152600e60248201526d125b9d985b1a5908105b5bdd5b9d60921b60448201526064016108da565b336000908152603360205260409020548111156109e75760405162461bcd60e51b81526020600482015260126024820152714e6f7420656e6f7567682062616c616e636560701b60448201526064016108da565b3360009081526101026020526040902054431415610a475760405162461bcd60e51b815260206004820152601a60248201527f57697468647261772077697468696e2073616d6520626c6f636b00000000000060448201526064016108da565b6000610a5260355490565b82610a5b611649565b610a659190613d47565b610a6f9190613d66565b60fd546040516370a0823160e01b81523060048201529192506000916001600160a01b03909116906370a082319060240160206040518083038186803b158015610ab857600080fd5b505afa158015610acc573d6000803e3d6000fd5b505050506040513d601f19601f82011682018060405250810190610af09190613d88565b905081811015610b745760fc546000805160206140858339815191529063441a3e7090610b1d8486613dce565b6040516001600160e01b031960e085901b16815260048101929092526024820152604401600060405180830381600087803b158015610b5b57600080fd5b505af1158015610b6f573d6000803e3d6000fd5b505050505b610b7e3384612a1a565b60fd54610b95906001600160a01b03163384612b68565b60408051338152602081018490529081018490527ff279e6a1f5e320cca91135676d9cb6e44ca8a08c0b88342bcdb1144f6511b5689060600160405180910390a15050600160c95550565b60008060fd60009054906101000a90046001600160a01b03166001600160a01b03166318160ddd6040518163ffffffff1660e01b815260040160206040518083038186803b158015610c3157600080fd5b505afa158015610c45573d6000803e3d6000fd5b505050506040513d601f19601f82011682018060405250810190610c699190613d88565b60fd5460408051630240bc6b60e21b8152815193945060009384936001600160a01b031692630902f1ac9260048082019391829003018186803b158015610caf57600080fd5b505afa158015610cc3573d6000803e3d6000fd5b505050506040513d601f19601f82011682018060405250810190610ce79190613de5565b9092509050600083610cf98488613d47565b610d039190613d66565b9050600084610d128489613d47565b610d1c9190613d66565b60ff54909150610d34906001600160a01b0316612bcb565b610d3e9082613d47565b60fe54610d53906001600160a01b0316612bcb565b610d5d9084613d47565b610d679190613e09565b9550610d7b670de0b6b3a764000087613d66565b979650505050505050565b6000336106cf818585610d998383611d52565b610da39190613e09565b611e4e565b610db0612d52565b6000610103819055610104819055610105556108fb6129ea565b600080600060fd60009054906101000a90046001600160a01b03166001600160a01b03166318160ddd6040518163ffffffff1660e01b815260040160206040518083038186803b158015610e1d57600080fd5b505afa158015610e31573d6000803e3d6000fd5b505050506040513d601f19601f82011682018060405250810190610e559190613d88565b60fd5460408051630240bc6b60e21b8152815193945060009384936001600160a01b031692630902f1ac9260048082019391829003018186803b158015610e9b57600080fd5b505afa158015610eaf573d6000803e3d6000fd5b505050506040513d601f19601f82011682018060405250810190610ed39190613de5565b9092509050600083610ee58489613d47565b610eef9190613d66565b9050600084610efe848a613d47565b610f089190613d66565b60fe54909150600090610f23906001600160a01b0316612dac565b60ff54909150600090610f3e906001600160a01b0316612dac565b9050811580610f4b575080155b15610f6257506000998a9950975050505050505050565b6305f5e100610f718285613d47565b610f7b8487613d47565b610f859190613e09565b610f8f9190613d66565b9a60019a5098505050505050505050565b610fa8612d52565b610bb98110610ff25760405162461bcd60e51b81526020600482015260166024820152755969656c64204665652063616e6e6f74203e2033302560501b60448201526064016108da565b60fb8190556040518181527f5cdc47cbc2be1e35e5429dd646b1e2047ab328f4108873ab71318989f7566ceb906020015b60405180910390a150565b611036612d52565b61010180546001600160a01b038381166001600160a01b031983168117909355604080519190921680825260208201939093527f848ac24ab84501710d6631faab117b66b79aba7ec6f7778cf3bcff428c1a4efc910160405180910390a15050565b6110a0612d52565b6108fb6000612f4a565b600080600061010354600014806110d257504262015180610105546110cf9190613e09565b11155b1561117b5760006110e1612f9c565b90506101045460001080156110f857508061010454105b1561116d576000610105544261110e9190613dce565b6101045461111c9190613d47565b61112b6201518061016d613d47565b610104546111399085613dce565b6111439190613d47565b61115590670de0b6b3a7640000613d47565b61115f9190613d66565b959194506001935090915050565b600094909350600192509050565b505061010354610104549092909150600090565b600054610100900460ff16158080156111af5750600054600160ff909116105b806111c95750303b1580156111c9575060005460ff166001145b61122c5760405162461bcd60e51b815260206004820152602e60248201527f496e697469616c697a61626c653a20636f6e747261637420697320616c72656160448201526d191e481a5b9a5d1a585b1a5e995960921b60648201526084016108da565b6000805460ff19166001179055801561124f576000805461ff0019166101001790555b61125986866130db565b611261613110565b6107d060fb5560fc8490556040516378ed5d1f60e01b815260048101859052600090600080516020614085833981519152906378ed5d1f9060240160206040518083038186803b1580156112b457600080fd5b505afa1580156112c8573d6000803e3d6000fd5b505050506040513d601f19601f820116820180604052508101906112ec9190613e21565b60fd80546001600160a01b0319166001600160a01b03831690811790915560408051630dfe168160e01b815290519293509091630dfe168191600480820192602092909190829003018186803b15801561134557600080fd5b505afa158015611359573d6000803e3d6000fd5b505050506040513d601f19601f8201168201806040525081019061137d9190613e21565b60fe80546001600160a01b0319166001600160a01b0392831617905560fd546040805163d21220a760e01b81529051919092169163d21220a7916004808301926020929190829003018186803b1580156113d657600080fd5b505afa1580156113ea573d6000803e3d6000fd5b505050506040513d601f19601f8201168201806040525081019061140e9190613e21565b60ff80546001600160a01b03199081166001600160a01b039384161790915561010080548216878416179055610101805490911685831617905560fd54611467911660008051602061408583398151915260001961313f565b61149c730e09fabb73bd3ade0a17ecc321fd13a19e81ce827310ed43c718714eb63d5aa57b78b54704e256024e60001961313f565b60fe5460405163095ea7b360e01b81527310ed43c718714eb63d5aa57b78b54704e256024e600482015260001960248201526001600160a01b039091169063095ea7b390604401602060405180830381600087803b1580156114fd57600080fd5b505af1158015611511573d6000803e3d6000fd5b505050506040513d601f19601f820116820180604052508101906115359190613e3e565b5060ff5460405163095ea7b360e01b81527310ed43c718714eb63d5aa57b78b54704e256024e600482015260001960248201526001600160a01b039091169063095ea7b390604401602060405180830381600087803b15801561159757600080fd5b505af11580156115ab573d6000803e3d6000fd5b505050506040513d601f19601f820116820180604052508101906115cf9190613e3e565b506115d86129ea565b508015611620576000805461ff0019169055604051600181527f7f26b83ff96e1f2b6a682f133852f6798a09c465da95921460cefb3847402498906020015b60405180910390a15b505050505050565b60006116356103b9611649565b905090565b60606037805461063e90613cfc565b60fc546040516393f1a40b60e01b815260048101919091523060248201526000908190600080516020614085833981519152906393f1a40b9060440160606040518083038186803b15801561169d57600080fd5b505afa1580156116b1573d6000803e3d6000fd5b505050506040513d601f19601f820116820180604052508101906116d59190613e5b565b505060fd546040516370a0823160e01b815230600482015291925082916001600160a01b03909116906370a082319060240160206040518083038186803b15801561171f57600080fd5b505afa158015611733573d6000803e3d6000fd5b505050506040513d601f19601f820116820180604052508101906117579190613d88565b6117619190613e09565b91505090565b600033816117758286611d52565b9050838110156117d55760405162461bcd60e51b815260206004820152602560248201527f45524332303a2064656372656173656420616c6c6f77616e63652062656c6f77604482015264207a65726f60d81b60648201526084016108da565b61088f8286868403611e4e565b6117ea612d52565b6001600160a01b0381166118315760405162461bcd60e51b815260206004820152600e60248201526d1dd85b1b195d081a5b9d985b1a5960921b60448201526064016108da565b61010080546001600160a01b0319166001600160a01b0383169081179091556040519081527f60edc991b058a7e279075cf86f19a6b478334efec47e089d09890b139c78232790602001611023565b6000336106cf818585612333565b600260c95414156118e15760405162461bcd60e51b815260206004820152601f60248201527f5265656e7472616e637947756172643a207265656e7472616e742063616c6c0060448201526064016108da565b600260c9556118ee612501565b6000811161192f5760405162461bcd60e51b815260206004820152600e60248201526d125b9d985b1a5908185b5bdd5b9d60921b60448201526064016108da565b6000611939611649565b60fd54909150611954906001600160a01b0316333085613263565b33600090815261010260205260409081902043905560fc549051631c57762b60e31b81526004810191909152602481018390526000805160206140858339815191529063e2bbb15890604401600060405180830381600087803b1580156119ba57600080fd5b505af11580156119ce573d6000803e3d6000fd5b5050505060006119dd60355490565b905060008215806119ec575081155b611a0a57826119fb8386613d47565b611a059190613d66565b611a0c565b835b9050611a18338261329b565b60408051338152602081018690529081018290527f90890809c654f11d6e72a28fa60149770a0d11ec6c92319d6ceb2bb0a4ea1a159060600160405180910390a15050600160c9555050565b6000806000611a74610434611649565b915091508015611a845750919050565b600080611a8f612267565b915091508082611a9d611628565b611aa79190613d47565b611ab19190613d66565b94505050505090565b600080611ac56110aa565b505090506000611ad36106d9565b905061271060fb54612710611ae89190613dce565b611af29083613d47565b611afc9190613d66565b9050611b088183613e09565b9250505090565b60fc54604051631175a1dd60e01b81526004810191909152306024820152600090819060008051602061408583398151915290631175a1dd9060440160206040518083038186803b158015611b6357600080fd5b505afa158015611b77573d6000803e3d6000fd5b505050506040513d601f19601f82011682018060405250810190611b9b9190613d88565b9050600080611ba86121d0565b909250905080611bb88385613d47565b611bc29190613d66565b935050505090565b6065546001600160a01b0316331480611bee5750610101546001600160a01b031633145b611c0a5760405162461bcd60e51b81526004016108da90613da1565b611c12612501565b611c1a61337a565b611c22612547565b60fc546040516393f1a40b60e01b81526004810191909152306024820152600090600080516020614085833981519152906393f1a40b9060440160606040518083038186803b158015611c7457600080fd5b505afa158015611c88573d6000803e3d6000fd5b505050506040513d601f19601f82011682018060405250810190611cac9190613e5b565b50909150508015611d225760fc54604051630441a3e760e41b81526004810191909152602481018290526000805160206140858339815191529063441a3e7090604401600060405180830381600087803b158015611d0957600080fd5b505af1158015611d1d573d6000803e3d6000fd5b505050505b6040518181527f99d7f8b71cfb9126984f7a5eed3a40e64a8959e9b0e442221546fb04ec6a489c90602001611023565b6001600160a01b03918216600090815260346020908152604080832093909416825291909152205490565b611d85612d52565b6001600160a01b038116611dea5760405162461bcd60e51b815260206004820152602660248201527f4f776e61626c653a206e6577206f776e657220697320746865207a65726f206160448201526564647265737360d01b60648201526084016108da565b611df381612f4a565b50565b6065546001600160a01b0316331480611e1a5750610101546001600160a01b031633145b611e365760405162461bcd60e51b81526004016108da90613da1565b611e3e6133d4565b611e4661341d565b611df3613456565b6001600160a01b038316611eb05760405162461bcd60e51b8152602060048201526024808201527f45524332303a20617070726f76652066726f6d20746865207a65726f206164646044820152637265737360e01b60648201526084016108da565b6001600160a01b038216611f115760405162461bcd60e51b815260206004820152602260248201527f45524332303a20617070726f766520746f20746865207a65726f206164647265604482015261737360f01b60648201526084016108da565b6001600160a01b0383811660008181526034602090815260408083209487168084529482529182902085905590518481527f8c5be1e5ebec7d5bd14f71427d1e84f3dd0314c0f7b2291e5b200ac8c7c3b925910160405180910390a3505050565b60fc54604051631526fe2760e01b81526000918291829160008051602061408583398151915291631526fe2791611faf9160040190815260200190565b60a06040518083038186803b158015611fc757600080fd5b505afa158015611fdb573d6000803e3d6000fd5b505050506040513d601f19601f82011682018060405250810190611fff9190613e89565b94505093505050600081612091576000805160206140858339815191526001600160a01b03166399d7e84a6040518163ffffffff1660e01b815260040160206040518083038186803b15801561205457600080fd5b505afa158015612068573d6000803e3d6000fd5b505050506040513d601f19601f8201168201806040525081019061208c9190613d88565b612110565b6000805160206140858339815191526001600160a01b031663c40d337b6040518163ffffffff1660e01b815260040160206040518083038186803b1580156120d857600080fd5b505afa1580156120ec573d6000803e3d6000fd5b505050506040513d601f19601f820116820180604052508101906121109190613d88565b604051631e9b828b60e01b8152831515600482015290915060009060008051602061408583398151915290631e9b828b9060240160206040518083038186803b15801561215c57600080fd5b505afa158015612170573d6000803e3d6000fd5b505050506040513d601f19601f820116820180604052508101906121949190613d88565b905081846121a46003603c613d66565b6121af90603c613d47565b6121ba906018613d47565b6121c69061016d613d47565b611a9d9084613d47565b600080600073b6064ed41d4f67e353768aa239ca86f4f73665a16001600160a01b03166350d25bcd6040518163ffffffff1660e01b815260040160206040518083038186803b15801561222257600080fd5b505afa158015612236573d6000803e3d6000fd5b505050506040513d601f19601f8201168201806040525081019061225a9190613d88565b936305f5e1009350915050565b6000806000730567f2323251f0aab15c8dfb1967e4e8a7d42aee6001600160a01b03166350d25bcd6040518163ffffffff1660e01b815260040160206040518083038186803b15801561222257600080fd5b60006122c58484611d52565b9050600019811461232d57818110156123205760405162461bcd60e51b815260206004820152601d60248201527f45524332303a20696e73756666696369656e7420616c6c6f77616e636500000060448201526064016108da565b61232d8484848403611e4e565b50505050565b6001600160a01b0383166123975760405162461bcd60e51b815260206004820152602560248201527f45524332303a207472616e736665722066726f6d20746865207a65726f206164604482015264647265737360d81b60648201526084016108da565b6001600160a01b0382166123f95760405162461bcd60e51b815260206004820152602360248201527f45524332303a207472616e7366657220746f20746865207a65726f206164647260448201526265737360e81b60648201526084016108da565b6001600160a01b038316600090815260336020526040902054818110156124715760405162461bcd60e51b815260206004820152602660248201527f45524332303a207472616e7366657220616d6f756e7420657863656564732062604482015265616c616e636560d01b60648201526084016108da565b6001600160a01b038085166000908152603360205260408082208585039055918516815290812080548492906124a8908490613e09565b92505081905550826001600160a01b0316846001600160a01b03167fddf252ad1be2c89b69c2b068fc378daa952ba7f163c4a11628f55a4df523b3ef846040516124f491815260200190565b60405180910390a361232d565b60975460ff16156108fb5760405162461bcd60e51b815260206004820152601060248201526f14185d5cd8589b194e881c185d5cd95960821b60448201526064016108da565b60fc54604051631c57762b60e31b81526004810191909152600060248201526000805160206140858339815191529063e2bbb15890604401600060405180830381600087803b15801561259957600080fd5b505af11580156125ad573d6000803e3d6000fd5b50506040516370a0823160e01b815230600482015260009250730e09fabb73bd3ade0a17ecc321fd13a19e81ce8291506370a082319060240160206040518083038186803b1580156125fe57600080fd5b505afa158015612612573d6000803e3d6000fd5b505050506040513d601f19601f820116820180604052508101906126369190613d88565b90508015611df357600061271060fb54836126519190613d47565b61265b9190613d66565b6101005490915061268b90730e09fabb73bd3ade0a17ecc321fd13a19e81ce82906001600160a01b031683612b68565b6126958183613dce565b60fe549092506000906001600160a01b0316730e09fabb73bd3ade0a17ecc321fd13a19e81ce8214156126d4576126cd600284613d66565b9050612789565b60fe5461270a90730e09fabb73bd3ade0a17ecc321fd13a19e81ce82906001600160a01b0316612705600287613d66565b613548565b5060fe546040516370a0823160e01b81523060048201526001600160a01b03909116906370a082319060240160206040518083038186803b15801561274e57600080fd5b505afa158015612762573d6000803e3d6000fd5b505050506040513d601f19601f820116820180604052508101906127869190613d88565b90505b60ff546000906001600160a01b0316730e09fabb73bd3ade0a17ecc321fd13a19e81ce8214156127c5576127be600285613d66565b9050612875565b60ff546127f690730e09fabb73bd3ade0a17ecc321fd13a19e81ce82906001600160a01b0316612705600288613d66565b5060ff546040516370a0823160e01b81523060048201526001600160a01b03909116906370a082319060240160206040518083038186803b15801561283a57600080fd5b505afa15801561284e573d6000803e3d6000fd5b505050506040513d601f19601f820116820180604052508101906128729190613d88565b90505b60fe5460ff5460405162e8e33760e81b81526001600160a01b03928316600482015291166024820152604481018390526064810182905260006084820181905260a48201523060c48201524260e48201527310ed43c718714eb63d5aa57b78b54704e256024e9063e8e337009061010401606060405180830381600087803b15801561290057600080fd5b505af1158015612914573d6000803e3d6000fd5b505050506040513d601f19601f820116820180604052508101906129389190613e5b565b505050612943613456565b5060008061294f6121d0565b90925090507f913f67bfd2c6ac4a84007665147ed6861715996d03ed38d610c52e28c08838038183612981888a613e09565b61298b9190613d47565b6129959190613d66565b60405190815260200160405180910390a17f6d415483528749d9b4bfa85837aeca6271d845839c39bfa4614240e15dabeb1e816129d28488613d47565b6129dc9190613d66565b604051908152602001611617565b60008060006129f76110aa565b9250925092508015612a155761010383905561010482905542610105555b505050565b6001600160a01b038216612a7a5760405162461bcd60e51b815260206004820152602160248201527f45524332303a206275726e2066726f6d20746865207a65726f206164647265736044820152607360f81b60648201526084016108da565b6001600160a01b03821660009081526033602052604090205481811015612aee5760405162461bcd60e51b815260206004820152602260248201527f45524332303a206275726e20616d6f756e7420657863656564732062616c616e604482015261636560f01b60648201526084016108da565b6001600160a01b0383166000908152603360205260408120838303905560358054849290612b1d908490613dce565b90915550506040518281526000906001600160a01b038516907fddf252ad1be2c89b69c2b068fc378daa952ba7f163c4a11628f55a4df523b3ef9060200160405180910390a3505050565b6040516001600160a01b038316602482015260448101829052612a1590849063a9059cbb60e01b906064015b60408051601f198184030181529190526020810180516001600160e01b03166001600160e01b03199093169290921790915261366c565b60006001600160a01b03821673bb4cdb9cbd36b01bd1cbaebf2de08d9173bc095c1415612c015750670de0b6b3a7640000919050565b6040805160028082526060820183526000926020830190803683370190505090508281600081518110612c3657612c36613ec8565b60200260200101906001600160a01b031690816001600160a01b03168152505073bb4cdb9cbd36b01bd1cbaebf2de08d9173bc095c81600181518110612c7e57612c7e613ec8565b6001600160a01b039092166020928302919091019091015260405163d06ca61f60e01b81527310ed43c718714eb63d5aa57b78b54704e256024e9063d06ca61f90612cd790670de0b6b3a7640000908590600401613f22565b60006040518083038186803b158015612cef57600080fd5b505afa158015612d03573d6000803e3d6000fd5b505050506040513d6000823e601f3d908101601f19168201604052612d2b9190810190613f3b565b600181518110612d3d57612d3d613ec8565b6020026020010151915050919050565b919050565b6065546001600160a01b031633146108fb5760405162461bcd60e51b815260206004820181905260248201527f4f776e61626c653a2063616c6c6572206973206e6f7420746865206f776e657260448201526064016108da565b60006001600160a01b0382167355d398326f99059ff775485246999027b31979551415612e5e5773b97ad0e74fa7d920791e90258a6e2085088b43206001600160a01b03166350d25bcd6040518163ffffffff1660e01b815260040160206040518083038186803b158015612e2057600080fd5b505afa158015612e34573d6000803e3d6000fd5b505050506040513d601f19601f82011682018060405250810190612e589190613d88565b92915050565b6001600160a01b038216738ac76a51cc950d9822d68b83fe1ad97b32cd580d1415612ed0577351597f405303c4377e36123cbc172b13269ea1636001600160a01b03166350d25bcd6040518163ffffffff1660e01b815260040160206040518083038186803b158015612e2057600080fd5b6001600160a01b03821673e9e7cea3dedca5984780bafc599bd69add087d561415612f425773cbb98864ef56e9042e7d2efef76141f15731b82f6001600160a01b03166350d25bcd6040518163ffffffff1660e01b815260040160206040518083038186803b158015612e2057600080fd5b506000919050565b606580546001600160a01b038381166001600160a01b0319831681179093556040519116919082907f8be0079c531659141344cd1fd0a4f28419497f9722a3daafe3b4186f6b6457e090600090a35050565b60008060fd60009054906101000a90046001600160a01b03166001600160a01b03166318160ddd6040518163ffffffff1660e01b815260040160206040518083038186803b158015612fed57600080fd5b505afa158015613001573d6000803e3d6000fd5b505050506040513d601f19601f820116820180604052508101906130259190613d88565b90508061303457600091505090565b60fd5460408051630240bc6b60e21b8152815160009384936001600160a01b0390911692630902f1ac9260048083019392829003018186803b15801561307957600080fd5b505afa15801561308d573d6000803e3d6000fd5b505050506040513d601f19601f820116820180604052508101906130b19190613de5565b9092509050826130c96130c48385613d47565b61373e565b611bb890670de0b6b3a7640000613d47565b600054610100900460ff166131025760405162461bcd60e51b81526004016108da90613fe1565b61310c82826137ad565b5050565b600054610100900460ff166131375760405162461bcd60e51b81526004016108da90613fe1565b6108fb6137fb565b8015806131c85750604051636eb1769f60e11b81523060048201526001600160a01b03838116602483015284169063dd62ed3e9060440160206040518083038186803b15801561318e57600080fd5b505afa1580156131a2573d6000803e3d6000fd5b505050506040513d601f19601f820116820180604052508101906131c69190613d88565b155b6132335760405162461bcd60e51b815260206004820152603660248201527f5361666545524332303a20617070726f76652066726f6d206e6f6e2d7a65726f60448201527520746f206e6f6e2d7a65726f20616c6c6f77616e636560501b60648201526084016108da565b6040516001600160a01b038316602482015260448101829052612a1590849063095ea7b360e01b90606401612b94565b6040516001600160a01b038085166024830152831660448201526064810182905261232d9085906323b872dd60e01b90608401612b94565b6001600160a01b0382166132f15760405162461bcd60e51b815260206004820152601f60248201527f45524332303a206d696e7420746f20746865207a65726f20616464726573730060448201526064016108da565b80603560008282546133039190613e09565b90915550506001600160a01b03821660009081526033602052604081208054839290613330908490613e09565b90915550506040518181526001600160a01b038316906000907fddf252ad1be2c89b69c2b068fc378daa952ba7f163c4a11628f55a4df523b3ef9060200160405180910390a35050565b613382612501565b6097805460ff191660011790557f62e78cea01bee320cd4e420270b5ea74000d11b0c9f74754ebdbfc544b05a2586133b73390565b6040516001600160a01b03909116815260200160405180910390a1565b60975460ff166108fb5760405162461bcd60e51b815260206004820152601460248201527314185d5cd8589b194e881b9bdd081c185d5cd95960621b60448201526064016108da565b6134256133d4565b6097805460ff191690557f5db9ee0a495bf2e6ff9c91a7834c1ba4fdd244a5e8aa4e537bd38aeae4b073aa336133b7565b60fd546040516370a0823160e01b81523060048201526000916001600160a01b0316906370a082319060240160206040518083038186803b15801561349a57600080fd5b505afa1580156134ae573d6000803e3d6000fd5b505050506040513d601f19601f820116820180604052508101906134d29190613d88565b905080156135455760fc54604051631c57762b60e31b81526004810191909152602481018290526000805160206140858339815191529063e2bbb15890604401600060405180830381600087803b15801561352c57600080fd5b505af1158015613540573d6000803e3d6000fd5b505050505b90565b60408051600280825260608083018452926000929190602083019080368337019050509050848160008151811061358157613581613ec8565b60200260200101906001600160a01b031690816001600160a01b03168152505083816001815181106135b5576135b5613ec8565b6001600160a01b03909216602092830291909101909101526040516338ed173960e01b81527310ed43c718714eb63d5aa57b78b54704e256024e906338ed17399061360d90869060009086903090429060040161402c565b600060405180830381600087803b15801561362757600080fd5b505af115801561363b573d6000803e3d6000fd5b505050506040513d6000823e601f3d908101601f191682016040526136639190810190613f3b565b95945050505050565b60006136c1826040518060400160405280602081526020017f5361666545524332303a206c6f772d6c6576656c2063616c6c206661696c6564815250856001600160a01b031661382b9092919063ffffffff16565b805190915015612a1557808060200190518101906136df9190613e3e565b612a155760405162461bcd60e51b815260206004820152602a60248201527f5361666545524332303a204552433230206f7065726174696f6e20646964206e6044820152691bdd081cdd58d8d9595960b21b60648201526084016108da565b6000600382111561379f5750806000613758600283613d66565b613763906001613e09565b90505b818110156137995790508060028161377e8186613d66565b6137889190613e09565b6137929190613d66565b9050613766565b50919050565b8115612d4d57506001919050565b600054610100900460ff166137d45760405162461bcd60e51b81526004016108da90613fe1565b81516137e790603690602085019061399c565b508051612a1590603790602084019061399c565b600054610100900460ff166138225760405162461bcd60e51b81526004016108da90613fe1565b6108fb33612f4a565b606061383a8484600085613842565b949350505050565b6060824710156138a35760405162461bcd60e51b815260206004820152602660248201527f416464726573733a20696e73756666696369656e742062616c616e636520666f6044820152651c8818d85b1b60d21b60648201526084016108da565b6001600160a01b0385163b6138fa5760405162461bcd60e51b815260206004820152601d60248201527f416464726573733a2063616c6c20746f206e6f6e2d636f6e747261637400000060448201526064016108da565b600080866001600160a01b031685876040516139169190614068565b60006040518083038185875af1925050503d8060008114613953576040519150601f19603f3d011682016040523d82523d6000602084013e613958565b606091505b5091509150610d7b8282866060831561397257508161086f565b8251156139825782518084602001fd5b8160405162461bcd60e51b81526004016108da9190613a61565b8280546139a890613cfc565b90600052602060002090601f0160209004810192826139ca5760008555613a10565b82601f106139e357805160ff1916838001178555613a10565b82800160010185558215613a10579182015b82811115613a105782518255916020019190600101906139f5565b50613a1c929150613a20565b5090565b5b80821115613a1c5760008155600101613a21565b60005b83811015613a50578181015183820152602001613a38565b8381111561232d5750506000910152565b6020815260008251806020840152613a80816040850160208701613a35565b601f01601f19169190910160400192915050565b6001600160a01b0381168114611df357600080fd5b60008060408385031215613abc57600080fd5b8235613ac781613a94565b946020939093013593505050565b8015158114611df357600080fd5b600060208284031215613af557600080fd5b813561086f81613ad5565b600080600060608486031215613b1557600080fd5b8335613b2081613a94565b92506020840135613b3081613a94565b929592945050506040919091013590565b600060208284031215613b5357600080fd5b5035919050565b600060208284031215613b6c57600080fd5b813561086f81613a94565b634e487b7160e01b600052604160045260246000fd5b604051601f8201601f1916810167ffffffffffffffff81118282101715613bb657613bb6613b77565b604052919050565b600082601f830112613bcf57600080fd5b813567ffffffffffffffff811115613be957613be9613b77565b613bfc601f8201601f1916602001613b8d565b818152846020838601011115613c1157600080fd5b816020850160208301376000918101602001919091529392505050565b600080600080600060a08688031215613c4657600080fd5b853567ffffffffffffffff80821115613c5e57600080fd5b613c6a89838a01613bbe565b96506020880135915080821115613c8057600080fd5b50613c8d88828901613bbe565b945050604086013592506060860135613ca581613a94565b91506080860135613cb581613a94565b809150509295509295909350565b60008060408385031215613cd657600080fd5b8235613ce181613a94565b91506020830135613cf181613a94565b809150509250929050565b600181811c90821680613d1057607f821691505b6020821081141561379957634e487b7160e01b600052602260045260246000fd5b634e487b7160e01b600052601160045260246000fd5b6000816000190483118215151615613d6157613d61613d31565b500290565b600082613d8357634e487b7160e01b600052601260045260246000fd5b500490565b600060208284031215613d9a57600080fd5b5051919050565b60208082526013908201527227b7363c9037bbb732b91037b91030b236b4b760691b604082015260600190565b600082821015613de057613de0613d31565b500390565b60008060408385031215613df857600080fd5b505080516020909101519092909150565b60008219821115613e1c57613e1c613d31565b500190565b600060208284031215613e3357600080fd5b815161086f81613a94565b600060208284031215613e5057600080fd5b815161086f81613ad5565b600080600060608486031215613e7057600080fd5b8351925060208401519150604084015190509250925092565b600080600080600060a08688031215613ea157600080fd5b855194506020860151935060408601519250606086015191506080860151613cb581613ad5565b634e487b7160e01b600052603260045260246000fd5b600081518084526020808501945080840160005b83811015613f175781516001600160a01b031687529582019590820190600101613ef2565b509495945050505050565b82815260406020820152600061383a6040830184613ede565b60006020808385031215613f4e57600080fd5b825167ffffffffffffffff80821115613f6657600080fd5b818501915085601f830112613f7a57600080fd5b815181811115613f8c57613f8c613b77565b8060051b9150613f9d848301613b8d565b8181529183018401918481019088841115613fb757600080fd5b938501935b83851015613fd557845182529385019390850190613fbc565b98975050505050505050565b6020808252602b908201527f496e697469616c697a61626c653a20636f6e7472616374206973206e6f74206960408201526a6e697469616c697a696e6760a81b606082015260800190565b85815284602082015260a06040820152600061404b60a0830186613ede565b6001600160a01b0394909416606083015250608001529392505050565b6000825161407a818460208701613a35565b919091019291505056fe000000000000000000000000a5f8c5dbd5f286960b9d90548680ae5ebff07652a2646970667358221220316e95f265c0e968016c8640de4777fe66d43dc0b29b32826101548050bcb51d64736f6c63430008090033",
  "devdoc": {
    "kind": "dev",
    "methods": {
      "allowance(address,address)": {
        "details": "See {IERC20-allowance}."
      },
      "approve(address,uint256)": {
        "details": "See {IERC20-approve}. NOTE: If `amount` is the maximum `uint256`, the allowance is not updated on `transferFrom`. This is semantically equivalent to an infinite approval. Requirements: - `spender` cannot be the zero address."
      },
      "balanceOf(address)": {
        "details": "See {IERC20-balanceOf}."
      },
      "decimals()": {
        "details": "Returns the number of decimals used to get its user representation. For example, if `decimals` equals `2`, a balance of `505` tokens should be displayed to a user as `5.05` (`505 / 10 ** 2`). Tokens usually opt for a value of 18, imitating the relationship between Ether and Wei. This is the value {ERC20} uses, unless this function is overridden; NOTE: This information is only used for _display_ purposes: it in no way affects any of the arithmetic of the contract, including {IERC20-balanceOf} and {IERC20-transfer}."
      },
      "decreaseAllowance(address,uint256)": {
        "details": "Atomically decreases the allowance granted to `spender` by the caller. This is an alternative to {approve} that can be used as a mitigation for problems described in {IERC20-approve}. Emits an {Approval} event indicating the updated allowance. Requirements: - `spender` cannot be the zero address. - `spender` must have allowance for the caller of at least `subtractedValue`."
      },
      "deposit(uint256)": {
        "params": {
          "_amount": "amount of lptokens to deposit"
        }
      },
      "increaseAllowance(address,uint256)": {
        "details": "Atomically increases the allowance granted to `spender` by the caller. This is an alternative to {approve} that can be used as a mitigation for problems described in {IERC20-approve}. Emits an {Approval} event indicating the updated allowance. Requirements: - `spender` cannot be the zero address."
      },
      "name()": {
        "details": "Returns the name of the token."
      },
      "owner()": {
        "details": "Returns the address of the current owner."
      },
      "paused()": {
        "details": "Returns true if the contract is paused, and false otherwise."
      },
      "renounceOwnership()": {
        "details": "Leaves the contract without owner. It will not be possible to call `onlyOwner` functions anymore. Can only be called by the current owner. NOTE: Renouncing ownership will leave the contract without an owner, thereby removing any functionality that is only available to the owner."
      },
      "setFee(uint256)": {
        "params": {
          "_yieldFeePerc": "deposit fee percentage. 2000 for 20%"
        }
      },
      "symbol()": {
        "details": "Returns the symbol of the token, usually a shorter version of the name."
      },
      "totalSupply()": {
        "details": "See {IERC20-totalSupply}."
      },
      "transfer(address,uint256)": {
        "details": "See {IERC20-transfer}. Requirements: - `to` cannot be the zero address. - the caller must have a balance of at least `amount`."
      },
      "transferFrom(address,address,uint256)": {
        "details": "See {IERC20-transferFrom}. Emits an {Approval} event indicating the updated allowance. This is not required by the EIP. See the note at the beginning of {ERC20}. NOTE: Does not update the allowance if the current allowance is the maximum `uint256`. Requirements: - `from` and `to` cannot be the zero address. - `from` must have a balance of at least `amount`. - the caller must have allowance for ``from``'s tokens of at least `amount`."
      },
      "transferOwnership(address)": {
        "details": "Transfers ownership of the contract to a new account (`newOwner`). Can only be called by the current owner."
      },
      "withdraw(uint256)": {
        "params": {
          "_shares": "amount of shares to burn"
        }
      }
    },
    "version": 1
  },
  "userdoc": {
    "kind": "user",
    "methods": {
      "emergencyWithdraw()": {
        "notice": "Withdraws funds staked in mirror to this vault and pauses deposit, yield, invest functions"
      },
      "getPendingRewards()": {
        "notice": "Returns the pending rewards in UDS."
      },
      "reinvest()": {
        "notice": "Unpauses deposit, yield, invest functions, and invests funds."
      },
      "setFee(uint256)": {
        "notice": "Function to set deposit and yield fee"
      }
    },
    "version": 1
  },
  "storageLayout": {
    "storage": [
      {
        "astId": 138,
        "contract": "contracts/lci/deps/PckFarm2Vault.sol:PckFarm2Vault",
        "label": "_initialized",
        "offset": 0,
        "slot": "0",
        "type": "t_uint8"
      },
      {
        "astId": 141,
        "contract": "contracts/lci/deps/PckFarm2Vault.sol:PckFarm2Vault",
        "label": "_initializing",
        "offset": 1,
        "slot": "0",
        "type": "t_bool"
      },
      {
        "astId": 2836,
        "contract": "contracts/lci/deps/PckFarm2Vault.sol:PckFarm2Vault",
        "label": "__gap",
        "offset": 0,
        "slot": "1",
        "type": "t_array(t_uint256)50_storage"
      },
      {
        "astId": 487,
        "contract": "contracts/lci/deps/PckFarm2Vault.sol:PckFarm2Vault",
        "label": "_balances",
        "offset": 0,
        "slot": "51",
        "type": "t_mapping(t_address,t_uint256)"
      },
      {
        "astId": 493,
        "contract": "contracts/lci/deps/PckFarm2Vault.sol:PckFarm2Vault",
        "label": "_allowances",
        "offset": 0,
        "slot": "52",
        "type": "t_mapping(t_address,t_mapping(t_address,t_uint256))"
      },
      {
        "astId": 495,
        "contract": "contracts/lci/deps/PckFarm2Vault.sol:PckFarm2Vault",
        "label": "_totalSupply",
        "offset": 0,
        "slot": "53",
        "type": "t_uint256"
      },
      {
        "astId": 497,
        "contract": "contracts/lci/deps/PckFarm2Vault.sol:PckFarm2Vault",
        "label": "_name",
        "offset": 0,
        "slot": "54",
        "type": "t_string_storage"
      },
      {
        "astId": 499,
        "contract": "contracts/lci/deps/PckFarm2Vault.sol:PckFarm2Vault",
        "label": "_symbol",
        "offset": 0,
        "slot": "55",
        "type": "t_string_storage"
      },
      {
        "astId": 1078,
        "contract": "contracts/lci/deps/PckFarm2Vault.sol:PckFarm2Vault",
        "label": "__gap",
        "offset": 0,
        "slot": "56",
        "type": "t_array(t_uint256)45_storage"
      },
      {
        "astId": 10,
        "contract": "contracts/lci/deps/PckFarm2Vault.sol:PckFarm2Vault",
        "label": "_owner",
        "offset": 0,
        "slot": "101",
        "type": "t_address"
      },
      {
        "astId": 130,
        "contract": "contracts/lci/deps/PckFarm2Vault.sol:PckFarm2Vault",
        "label": "__gap",
        "offset": 0,
        "slot": "102",
        "type": "t_array(t_uint256)49_storage"
      },
      {
        "astId": 303,
        "contract": "contracts/lci/deps/PckFarm2Vault.sol:PckFarm2Vault",
        "label": "_paused",
        "offset": 0,
        "slot": "151",
        "type": "t_bool"
      },
      {
        "astId": 408,
        "contract": "contracts/lci/deps/PckFarm2Vault.sol:PckFarm2Vault",
        "label": "__gap",
        "offset": 0,
        "slot": "152",
        "type": "t_array(t_uint256)49_storage"
      },
      {
        "astId": 423,
        "contract": "contracts/lci/deps/PckFarm2Vault.sol:PckFarm2Vault",
        "label": "_status",
        "offset": 0,
        "slot": "201",
        "type": "t_uint256"
      },
      {
        "astId": 467,
        "contract": "contracts/lci/deps/PckFarm2Vault.sol:PckFarm2Vault",
        "label": "__gap",
        "offset": 0,
        "slot": "202",
        "type": "t_array(t_uint256)49_storage"
      },
      {
        "astId": 25736,
        "contract": "contracts/lci/deps/PckFarm2Vault.sol:PckFarm2Vault",
        "label": "yieldFee",
        "offset": 0,
        "slot": "251",
        "type": "t_uint256"
      },
      {
        "astId": 25738,
        "contract": "contracts/lci/deps/PckFarm2Vault.sol:PckFarm2Vault",
        "label": "pid",
        "offset": 0,
        "slot": "252",
        "type": "t_uint256"
      },
      {
        "astId": 25741,
        "contract": "contracts/lci/deps/PckFarm2Vault.sol:PckFarm2Vault",
        "label": "lpToken",
        "offset": 0,
        "slot": "253",
        "type": "t_contract(IUniPair)48650"
      },
      {
        "astId": 25744,
        "contract": "contracts/lci/deps/PckFarm2Vault.sol:PckFarm2Vault",
        "label": "token0",
        "offset": 0,
        "slot": "254",
        "type": "t_contract(IERC20Upgradeable)1157"
      },
      {
        "astId": 25747,
        "contract": "contracts/lci/deps/PckFarm2Vault.sol:PckFarm2Vault",
        "label": "token1",
        "offset": 0,
        "slot": "255",
        "type": "t_contract(IERC20Upgradeable)1157"
      },
      {
        "astId": 25749,
        "contract": "contracts/lci/deps/PckFarm2Vault.sol:PckFarm2Vault",
        "label": "treasuryWallet",
        "offset": 0,
        "slot": "256",
        "type": "t_address"
      },
      {
        "astId": 25751,
        "contract": "contracts/lci/deps/PckFarm2Vault.sol:PckFarm2Vault",
        "label": "admin",
        "offset": 0,
        "slot": "257",
        "type": "t_address"
      },
      {
        "astId": 25755,
        "contract": "contracts/lci/deps/PckFarm2Vault.sol:PckFarm2Vault",
        "label": "depositedBlock",
        "offset": 0,
        "slot": "258",
        "type": "t_mapping(t_address,t_uint256)"
      },
      {
        "astId": 25780,
        "contract": "contracts/lci/deps/PckFarm2Vault.sol:PckFarm2Vault",
        "label": "lpRewardApr",
        "offset": 0,
        "slot": "259",
        "type": "t_uint256"
      },
      {
        "astId": 25782,
        "contract": "contracts/lci/deps/PckFarm2Vault.sol:PckFarm2Vault",
        "label": "lpReservePerShare",
        "offset": 0,
        "slot": "260",
        "type": "t_uint256"
      },
      {
        "astId": 25784,
        "contract": "contracts/lci/deps/PckFarm2Vault.sol:PckFarm2Vault",
        "label": "lpDataLastUpdate",
        "offset": 0,
        "slot": "261",
        "type": "t_uint256"
      }
    ],
    "types": {
      "t_address": {
        "encoding": "inplace",
        "label": "address",
        "numberOfBytes": "20"
      },
      "t_array(t_uint256)45_storage": {
        "base": "t_uint256",
        "encoding": "inplace",
        "label": "uint256[45]",
        "numberOfBytes": "1440"
      },
      "t_array(t_uint256)49_storage": {
        "base": "t_uint256",
        "encoding": "inplace",
        "label": "uint256[49]",
        "numberOfBytes": "1568"
      },
      "t_array(t_uint256)50_storage": {
        "base": "t_uint256",
        "encoding": "inplace",
        "label": "uint256[50]",
        "numberOfBytes": "1600"
      },
      "t_bool": {
        "encoding": "inplace",
        "label": "bool",
        "numberOfBytes": "1"
      },
      "t_contract(IERC20Upgradeable)1157": {
        "encoding": "inplace",
        "label": "contract IERC20Upgradeable",
        "numberOfBytes": "20"
      },
      "t_contract(IUniPair)48650": {
        "encoding": "inplace",
        "label": "contract IUniPair",
        "numberOfBytes": "20"
      },
      "t_mapping(t_address,t_mapping(t_address,t_uint256))": {
        "encoding": "mapping",
        "key": "t_address",
        "label": "mapping(address => mapping(address => uint256))",
        "numberOfBytes": "32",
        "value": "t_mapping(t_address,t_uint256)"
      },
      "t_mapping(t_address,t_uint256)": {
        "encoding": "mapping",
        "key": "t_address",
        "label": "mapping(address => uint256)",
        "numberOfBytes": "32",
        "value": "t_uint256"
      },
      "t_string_storage": {
        "encoding": "bytes",
        "label": "string",
        "numberOfBytes": "32"
      },
      "t_uint256": {
        "encoding": "inplace",
        "label": "uint256",
        "numberOfBytes": "32"
      },
      "t_uint8": {
        "encoding": "inplace",
        "label": "uint8",
        "numberOfBytes": "1"
      }
    }
  }
}