{
  "address": "0x07b4d7f3b5599E9c345d13813e0C8bad1010D30b",
  "abi": [
    {
      "anonymous": false,
      "inputs": [
        {
          "indexed": true,
          "internalType": "address",
          "name": "owner",
          "type": "address"
        },
        {
          "indexed": true,
          "internalType": "address",
          "name": "spender",
          "type": "address"
        },
        {
          "indexed": false,
          "internalType": "uint256",
          "name": "value",
          "type": "uint256"
        }
      ],
      "name": "Approval",
      "type": "event"
    },
    {
      "anonymous": false,
      "inputs": [
        {
          "indexed": false,
          "internalType": "address",
          "name": "_user",
          "type": "address"
        },
        {
          "indexed": false,
          "internalType": "uint256",
          "name": "_amount",
          "type": "uint256"
        },
        {
          "indexed": false,
          "internalType": "uint256",
          "name": "_shares",
          "type": "uint256"
        }
      ],
      "name": "Deposit",
      "type": "event"
    },
    {
      "anonymous": false,
      "inputs": [
        {
          "indexed": false,
          "internalType": "uint256",
          "name": "_amount",
          "type": "uint256"
        }
      ],
      "name": "EmergencyWithdraw",
      "type": "event"
    },
    {
      "anonymous": false,
      "inputs": [
        {
          "indexed": false,
          "internalType": "uint8",
          "name": "version",
          "type": "uint8"
        }
      ],
      "name": "Initialized",
      "type": "event"
    },
    {
      "anonymous": false,
      "inputs": [
        {
          "indexed": false,
          "internalType": "uint256",
          "name": "_amount",
          "type": "uint256"
        }
      ],
      "name": "Invest",
      "type": "event"
    },
    {
      "anonymous": false,
      "inputs": [
        {
          "indexed": true,
          "internalType": "address",
          "name": "previousOwner",
          "type": "address"
        },
        {
          "indexed": true,
          "internalType": "address",
          "name": "newOwner",
          "type": "address"
        }
      ],
      "name": "OwnershipTransferred",
      "type": "event"
    },
    {
      "anonymous": false,
      "inputs": [
        {
          "indexed": false,
          "internalType": "address",
          "name": "account",
          "type": "address"
        }
      ],
      "name": "Paused",
      "type": "event"
    },
    {
      "anonymous": false,
      "inputs": [
        {
          "indexed": false,
          "internalType": "address",
          "name": "_oldAdmin",
          "type": "address"
        },
        {
          "indexed": false,
          "internalType": "address",
          "name": "_newAdmin",
          "type": "address"
        }
      ],
      "name": "SetAdmin",
      "type": "event"
    },
    {
      "anonymous": false,
      "inputs": [
        {
          "indexed": false,
          "internalType": "address",
          "name": "_wallet",
          "type": "address"
        }
      ],
      "name": "SetTreasuryWallet",
      "type": "event"
    },
    {
      "anonymous": false,
      "inputs": [
        {
          "indexed": false,
          "internalType": "uint256",
          "name": "_fee",
          "type": "uint256"
        }
      ],
      "name": "SetYieldFeePerc",
      "type": "event"
    },
    {
      "anonymous": false,
      "inputs": [
        {
          "indexed": true,
          "internalType": "address",
          "name": "from",
          "type": "address"
        },
        {
          "indexed": true,
          "internalType": "address",
          "name": "to",
          "type": "address"
        },
        {
          "indexed": false,
          "internalType": "uint256",
          "name": "value",
          "type": "uint256"
        }
      ],
      "name": "Transfer",
      "type": "event"
    },
    {
      "anonymous": false,
      "inputs": [
        {
          "indexed": false,
          "internalType": "address",
          "name": "account",
          "type": "address"
        }
      ],
      "name": "Unpaused",
      "type": "event"
    },
    {
      "anonymous": false,
      "inputs": [
        {
          "indexed": false,
          "internalType": "address",
          "name": "_user",
          "type": "address"
        },
        {
          "indexed": false,
          "internalType": "uint256",
          "name": "_amount",
          "type": "uint256"
        },
        {
          "indexed": false,
          "internalType": "uint256",
          "name": "_shares",
          "type": "uint256"
        }
      ],
      "name": "Withdraw",
      "type": "event"
    },
    {
      "anonymous": false,
      "inputs": [
        {
          "indexed": false,
          "internalType": "uint256",
          "name": "_amount",
          "type": "uint256"
        }
      ],
      "name": "Yield",
      "type": "event"
    },
    {
      "anonymous": false,
      "inputs": [
        {
          "indexed": false,
          "internalType": "uint256",
          "name": "_amount",
          "type": "uint256"
        }
      ],
      "name": "YieldFee",
      "type": "event"
    },
    {
      "inputs": [],
      "name": "CAKE",
      "outputs": [
        {
          "internalType": "contract IERC20Upgradeable",
          "name": "",
          "type": "address"
        }
      ],
      "stateMutability": "view",
      "type": "function"
    },
    {
      "inputs": [],
      "name": "MasterChefV2",
      "outputs": [
        {
          "internalType": "contract IMasterChefV2",
          "name": "",
          "type": "address"
        }
      ],
      "stateMutability": "view",
      "type": "function"
    },
    {
      "inputs": [],
      "name": "PckRouter",
      "outputs": [
        {
          "internalType": "contract IUniRouter",
          "name": "",
          "type": "address"
        }
      ],
      "stateMutability": "view",
      "type": "function"
    },
    {
      "inputs": [],
      "name": "WBNB",
      "outputs": [
        {
          "internalType": "contract IERC20Upgradeable",
          "name": "",
          "type": "address"
        }
      ],
      "stateMutability": "view",
      "type": "function"
    },
    {
      "inputs": [
        {
          "internalType": "uint256",
          "name": "lpAmt",
          "type": "uint256"
        }
      ],
      "name": "_getValueInBNB",
      "outputs": [
        {
          "internalType": "uint256",
          "name": "_valueInBNB",
          "type": "uint256"
        }
      ],
      "stateMutability": "view",
      "type": "function"
    },
    {
      "inputs": [
        {
          "internalType": "uint256",
          "name": "lpAmt",
          "type": "uint256"
        }
      ],
      "name": "_getValueInUSD",
      "outputs": [
        {
          "internalType": "uint256",
          "name": "_valueInUSD",
          "type": "uint256"
        },
        {
          "internalType": "bool",
          "name": "valid",
          "type": "bool"
        }
      ],
      "stateMutability": "view",
      "type": "function"
    },
    {
      "inputs": [],
      "name": "admin",
      "outputs": [
        {
          "internalType": "address",
          "name": "",
          "type": "address"
        }
      ],
      "stateMutability": "view",
      "type": "function"
    },
    {
      "inputs": [
        {
          "internalType": "address",
          "name": "owner",
          "type": "address"
        },
        {
          "internalType": "address",
          "name": "spender",
          "type": "address"
        }
      ],
      "name": "allowance",
      "outputs": [
        {
          "internalType": "uint256",
          "name": "",
          "type": "uint256"
        }
      ],
      "stateMutability": "view",
      "type": "function"
    },
    {
      "inputs": [
        {
          "internalType": "address",
          "name": "spender",
          "type": "address"
        },
        {
          "internalType": "uint256",
          "name": "amount",
          "type": "uint256"
        }
      ],
      "name": "approve",
      "outputs": [
        {
          "internalType": "bool",
          "name": "",
          "type": "bool"
        }
      ],
      "stateMutability": "nonpayable",
      "type": "function"
    },
    {
      "inputs": [
        {
          "internalType": "address",
          "name": "account",
          "type": "address"
        }
      ],
      "name": "balanceOf",
      "outputs": [
        {
          "internalType": "uint256",
          "name": "",
          "type": "uint256"
        }
      ],
      "stateMutability": "view",
      "type": "function"
    },
    {
      "inputs": [],
      "name": "decimals",
      "outputs": [
        {
          "internalType": "uint8",
          "name": "",
          "type": "uint8"
        }
      ],
      "stateMutability": "view",
      "type": "function"
    },
    {
      "inputs": [
        {
          "internalType": "address",
          "name": "spender",
          "type": "address"
        },
        {
          "internalType": "uint256",
          "name": "subtractedValue",
          "type": "uint256"
        }
      ],
      "name": "decreaseAllowance",
      "outputs": [
        {
          "internalType": "bool",
          "name": "",
          "type": "bool"
        }
      ],
      "stateMutability": "nonpayable",
      "type": "function"
    },
    {
      "inputs": [
        {
          "internalType": "uint256",
          "name": "_amount",
          "type": "uint256"
        }
      ],
      "name": "deposit",
      "outputs": [],
      "stateMutability": "nonpayable",
      "type": "function"
    },
    {
      "inputs": [],
      "name": "emergencyWithdraw",
      "outputs": [],
      "stateMutability": "nonpayable",
      "type": "function"
    },
    {
      "inputs": [],
      "name": "getAPR",
      "outputs": [
        {
          "internalType": "uint256",
          "name": "",
          "type": "uint256"
        }
      ],
      "stateMutability": "view",
      "type": "function"
    },
    {
      "inputs": [],
      "name": "getAllPool",
      "outputs": [
        {
          "internalType": "uint256",
          "name": "",
          "type": "uint256"
        }
      ],
      "stateMutability": "view",
      "type": "function"
    },
    {
      "inputs": [],
      "name": "getAllPoolInBNB",
      "outputs": [
        {
          "internalType": "uint256",
          "name": "_valueInBNB",
          "type": "uint256"
        }
      ],
      "stateMutability": "view",
      "type": "function"
    },
    {
      "inputs": [],
      "name": "getAllPoolInUSD",
      "outputs": [
        {
          "internalType": "uint256",
          "name": "",
          "type": "uint256"
        }
      ],
      "stateMutability": "view",
      "type": "function"
    },
    {
      "inputs": [],
      "name": "getCakeRewardApr",
      "outputs": [
        {
          "internalType": "uint256",
          "name": "",
          "type": "uint256"
        }
      ],
      "stateMutability": "view",
      "type": "function"
    },
    {
      "inputs": [],
      "name": "getLpRewardApr",
      "outputs": [
        {
          "internalType": "uint256",
          "name": "",
          "type": "uint256"
        },
        {
          "internalType": "uint256",
          "name": "",
          "type": "uint256"
        },
        {
          "internalType": "bool",
          "name": "",
          "type": "bool"
        }
      ],
      "stateMutability": "view",
      "type": "function"
    },
    {
      "inputs": [],
      "name": "getPendingRewards",
      "outputs": [
        {
          "internalType": "uint256",
          "name": "",
          "type": "uint256"
        }
      ],
      "stateMutability": "view",
      "type": "function"
    },
    {
      "inputs": [
        {
          "internalType": "bool",
          "name": "inUSD",
          "type": "bool"
        }
      ],
      "name": "getPricePerFullShare",
      "outputs": [
        {
          "internalType": "uint256",
          "name": "",
          "type": "uint256"
        }
      ],
      "stateMutability": "view",
      "type": "function"
    },
    {
      "inputs": [
        {
          "internalType": "address",
          "name": "spender",
          "type": "address"
        },
        {
          "internalType": "uint256",
          "name": "addedValue",
          "type": "uint256"
        }
      ],
      "name": "increaseAllowance",
      "outputs": [
        {
          "internalType": "bool",
          "name": "",
          "type": "bool"
        }
      ],
      "stateMutability": "nonpayable",
      "type": "function"
    },
    {
      "inputs": [
        {
          "internalType": "string",
          "name": "_name",
          "type": "string"
        },
        {
          "internalType": "string",
          "name": "_symbol",
          "type": "string"
        },
        {
          "internalType": "uint256",
          "name": "_pid",
          "type": "uint256"
        },
        {
          "internalType": "address",
          "name": "_treasury",
          "type": "address"
        },
        {
          "internalType": "address",
          "name": "_admin",
          "type": "address"
        }
      ],
      "name": "initialize",
      "outputs": [],
      "stateMutability": "nonpayable",
      "type": "function"
    },
    {
      "inputs": [],
      "name": "lpDataLastUpdate",
      "outputs": [
        {
          "internalType": "uint256",
          "name": "",
          "type": "uint256"
        }
      ],
      "stateMutability": "view",
      "type": "function"
    },
    {
      "inputs": [],
      "name": "lpReservePerShare",
      "outputs": [
        {
          "internalType": "uint256",
          "name": "",
          "type": "uint256"
        }
      ],
      "stateMutability": "view",
      "type": "function"
    },
    {
      "inputs": [],
      "name": "lpRewardApr",
      "outputs": [
        {
          "internalType": "uint256",
          "name": "",
          "type": "uint256"
        }
      ],
      "stateMutability": "view",
      "type": "function"
    },
    {
      "inputs": [],
      "name": "lpToken",
      "outputs": [
        {
          "internalType": "contract IUniPair",
          "name": "",
          "type": "address"
        }
      ],
      "stateMutability": "view",
      "type": "function"
    },
    {
      "inputs": [],
      "name": "name",
      "outputs": [
        {
          "internalType": "string",
          "name": "",
          "type": "string"
        }
      ],
      "stateMutability": "view",
      "type": "function"
    },
    {
      "inputs": [],
      "name": "owner",
      "outputs": [
        {
          "internalType": "address",
          "name": "",
          "type": "address"
        }
      ],
      "stateMutability": "view",
      "type": "function"
    },
    {
      "inputs": [],
      "name": "paused",
      "outputs": [
        {
          "internalType": "bool",
          "name": "",
          "type": "bool"
        }
      ],
      "stateMutability": "view",
      "type": "function"
    },
    {
      "inputs": [],
      "name": "pid",
      "outputs": [
        {
          "internalType": "uint256",
          "name": "",
          "type": "uint256"
        }
      ],
      "stateMutability": "view",
      "type": "function"
    },
    {
      "inputs": [],
      "name": "reinvest",
      "outputs": [],
      "stateMutability": "nonpayable",
      "type": "function"
    },
    {
      "inputs": [],
      "name": "renounceOwnership",
      "outputs": [],
      "stateMutability": "nonpayable",
      "type": "function"
    },
    {
      "inputs": [
        {
          "internalType": "address",
          "name": "_newAdmin",
          "type": "address"
        }
      ],
      "name": "setAdmin",
      "outputs": [],
      "stateMutability": "nonpayable",
      "type": "function"
    },
    {
      "inputs": [
        {
          "internalType": "uint256",
          "name": "_yieldFeePerc",
          "type": "uint256"
        }
      ],
      "name": "setFee",
      "outputs": [],
      "stateMutability": "nonpayable",
      "type": "function"
    },
    {
      "inputs": [
        {
          "internalType": "address",
          "name": "_wallet",
          "type": "address"
        }
      ],
      "name": "setTreasuryWallet",
      "outputs": [],
      "stateMutability": "nonpayable",
      "type": "function"
    },
    {
      "inputs": [],
      "name": "symbol",
      "outputs": [
        {
          "internalType": "string",
          "name": "",
          "type": "string"
        }
      ],
      "stateMutability": "view",
      "type": "function"
    },
    {
      "inputs": [],
      "name": "token0",
      "outputs": [
        {
          "internalType": "contract IERC20Upgradeable",
          "name": "",
          "type": "address"
        }
      ],
      "stateMutability": "view",
      "type": "function"
    },
    {
      "inputs": [],
      "name": "token1",
      "outputs": [
        {
          "internalType": "contract IERC20Upgradeable",
          "name": "",
          "type": "address"
        }
      ],
      "stateMutability": "view",
      "type": "function"
    },
    {
      "inputs": [],
      "name": "totalSupply",
      "outputs": [
        {
          "internalType": "uint256",
          "name": "",
          "type": "uint256"
        }
      ],
      "stateMutability": "view",
      "type": "function"
    },
    {
      "inputs": [
        {
          "internalType": "address",
          "name": "to",
          "type": "address"
        },
        {
          "internalType": "uint256",
          "name": "amount",
          "type": "uint256"
        }
      ],
      "name": "transfer",
      "outputs": [
        {
          "internalType": "bool",
          "name": "",
          "type": "bool"
        }
      ],
      "stateMutability": "nonpayable",
      "type": "function"
    },
    {
      "inputs": [
        {
          "internalType": "address",
          "name": "from",
          "type": "address"
        },
        {
          "internalType": "address",
          "name": "to",
          "type": "address"
        },
        {
          "internalType": "uint256",
          "name": "amount",
          "type": "uint256"
        }
      ],
      "name": "transferFrom",
      "outputs": [
        {
          "internalType": "bool",
          "name": "",
          "type": "bool"
        }
      ],
      "stateMutability": "nonpayable",
      "type": "function"
    },
    {
      "inputs": [
        {
          "internalType": "address",
          "name": "newOwner",
          "type": "address"
        }
      ],
      "name": "transferOwnership",
      "outputs": [],
      "stateMutability": "nonpayable",
      "type": "function"
    },
    {
      "inputs": [],
      "name": "treasuryWallet",
      "outputs": [
        {
          "internalType": "address",
          "name": "",
          "type": "address"
        }
      ],
      "stateMutability": "view",
      "type": "function"
    },
    {
      "inputs": [
        {
          "internalType": "uint256",
          "name": "_shares",
          "type": "uint256"
        }
      ],
      "name": "withdraw",
      "outputs": [],
      "stateMutability": "nonpayable",
      "type": "function"
    },
    {
      "inputs": [],
      "name": "yield",
      "outputs": [],
      "stateMutability": "nonpayable",
      "type": "function"
    },
    {
      "inputs": [],
      "name": "yieldFee",
      "outputs": [
        {
          "internalType": "uint256",
          "name": "",
          "type": "uint256"
        }
      ],
      "stateMutability": "view",
      "type": "function"
    }
  ],
  "transactionHash": "0xa2789c41297647c2e71d712d2a5f3d20bb2feadfdf987d9ac7a4929f19f3d293",
  "args": [],
  "numDeployments": 1,
  "solcInputHash": "7d27042cdb095cd9854a58450914aa61",
  "bytecode": "0x608060405234801561001057600080fd5b506141ba806100206000396000f3fe608060405234801561001057600080fd5b50600436106102a05760003560e01c806372d6460e11610167578063b6b55f25116100ce578063dd62ed3e11610087578063dd62ed3e146105ac578063e5653aa1146105bf578063f1068454146105d4578063f2fde38b146105dd578063f851a440146105f0578063fdb5a03e1461060457600080fd5b8063b6b55f2514610566578063bd244af414610579578063c89d5b8b14610581578063d21220a714610589578063d9621f9e1461059c578063db2e21bc146105a457600080fd5b806395d89b411161012057806395d89b4114610513578063a20a4cb41461051b578063a457c2d714610523578063a8602fea14610536578063a9059cbb14610549578063afad96d11461055c57600080fd5b806372d6460e1461049d5780637e77c503146104c257806388ac86b2146104d55780638b6b7536146104dd5780638da5cb5b146104e75780638dd95002146104f857600080fd5b806331970dd21161020b57806367666056116101c4578063676660561461040357806368fe53561461042b57806369fe0e2d14610446578063704b6c021461045957806370a082311461046c578063715018a61461049557600080fd5b806331970dd21461039057806339509351146103a35780634626402b146103b65780634ca6ef28146103ca5780635c975abb146103e55780635fcbd285146103f057600080fd5b80631f04221c1161025d5780631f04221c1461033457806320f149081461033e57806323b872dd1461035157806328593984146103645780632e1a7d4d1461036e578063313ce5671461038157600080fd5b8063034f4083146102a557806306fdde03146102c1578063095ea7b3146102d657806309c6c128146102f95780630dfe16811461030157806318160ddd1461032c575b600080fd5b6102ae60fb5481565b6040519081526020015b60405180910390f35b6102c961060c565b6040516102b89190613a94565b6102e96102e4366004613adc565b61069e565b60405190151581526020016102b8565b6102ae6106b6565b60fe54610314906001600160a01b031681565b6040516001600160a01b0390911681526020016102b8565b6035546102ae565b6102ae6101045481565b6102ae61034c366004613b16565b6107d0565b6102e961035f366004613b33565b610853565b61036c610877565b005b61036c61037c366004613b74565b6108f5565b604051601281526020016102b8565b6102ae61039e366004613b74565b610bd8565b6102e96103b1366004613adc565b610d7e565b61010054610314906001600160a01b031681565b610314730e09fabb73bd3ade0a17ecc321fd13a19e81ce8281565b60975460ff166102e9565b60fd54610314906001600160a01b031681565b610416610411366004613b74565b610da0565b604080519283529015156020830152016102b8565b6103147310ed43c718714eb63d5aa57b78b54704e256024e81565b61036c610454366004613b74565b610f76565b61036c610467366004613b8d565b611026565b6102ae61047a366004613b8d565b6001600160a01b031660009081526033602052604090205490565b61036c6110b2565b6104a56110e6565b6040805193845260208401929092521515908201526060016102b8565b61036c6104d0366004613c61565b6111cb565b6102ae6115c8565b6102ae6101055481565b6065546001600160a01b0316610314565b61031473bb4cdb9cbd36b01bd1cbaebf2de08d9173bc095c81565b6102c96115da565b6102ae6115e9565b6102e9610531366004613adc565b611707565b61036c610544366004613b8d565b611782565b6102e9610557366004613adc565b611842565b6102ae6101035481565b61036c610574366004613b74565b611850565b6102ae611a38565b6102ae611a8e565b60ff54610314906001600160a01b031681565b6102ae611ae3565b61036c611b9e565b6102ae6105ba366004613cf6565b611d41565b61031460008051602061416583398151915281565b6102ae60fc5481565b61036c6105eb366004613b8d565b611d6c565b61010154610314906001600160a01b031681565b61036c611e07565b60606036805461061b90613d2f565b80601f016020809104026020016040519081016040528092919081815260200182805461064790613d2f565b80156106945780601f1061066957610100808354040283529160200191610694565b820191906000526020600020905b81548152906001019060200180831161067757829003601f168201915b5050505050905090565b6000336106ac818585611ea0565b5060019392505050565b6000806106c1611fc4565b90506000806106ce612222565b90925090506000816106e08486613d7a565b6106ea9190613d99565b60fd546040516370a0823160e01b8152600080516020614165833981519152600482015291925060009161077b916001600160a01b0316906370a082319060240160206040518083038186803b15801561074357600080fd5b505afa158015610757573d6000803e3d6000fd5b505050506040513d601f19601f8201168201806040525081019061039e9190613dbb565b90506000806107886122b9565b909250905060008161079a8486613d7a565b6107a49190613d99565b9050806107b986670de0b6b3a7640000613d7a565b6107c39190613d99565b9850505050505050505090565b6000806107dc60355490565b9050806107f35750670de0b6b3a764000092915050565b60018315151461082757806108066115e9565b61081890670de0b6b3a7640000613d7a565b6108229190613d99565b61084c565b80610830611a38565b61084290670de0b6b3a7640000613d7a565b61084c9190613d99565b9392505050565b60003361086185828561230b565b61086c858585612385565b506001949350505050565b6065546001600160a01b031633148061089b5750610101546001600160a01b031633145b6108c05760405162461bcd60e51b81526004016108b790613dd4565b60405180910390fd5b60975460ff16156108e35760405162461bcd60e51b81526004016108b790613e01565b6108eb612553565b6108f36129f6565b565b600260c95414156109485760405162461bcd60e51b815260206004820152601f60248201527f5265656e7472616e637947756172643a207265656e7472616e742063616c6c0060448201526064016108b7565b600260c9558061098b5760405162461bcd60e51b815260206004820152600e60248201526d125b9d985b1a5908105b5bdd5b9d60921b60448201526064016108b7565b336000908152603360205260409020548111156109df5760405162461bcd60e51b81526020600482015260126024820152714e6f7420656e6f7567682062616c616e636560701b60448201526064016108b7565b3360009081526101026020526040902054431415610a3f5760405162461bcd60e51b815260206004820152601a60248201527f57697468647261772077697468696e2073616d6520626c6f636b00000000000060448201526064016108b7565b6000610a4a60355490565b82610a536115e9565b610a5d9190613d7a565b610a679190613d99565b60fd546040516370a0823160e01b81523060048201529192506000916001600160a01b03909116906370a082319060240160206040518083038186803b158015610ab057600080fd5b505afa158015610ac4573d6000803e3d6000fd5b505050506040513d601f19601f82011682018060405250810190610ae89190613dbb565b905081811015610b6c5760fc546000805160206141658339815191529063441a3e7090610b158486613e2b565b6040516001600160e01b031960e085901b16815260048101929092526024820152604401600060405180830381600087803b158015610b5357600080fd5b505af1158015610b67573d6000803e3d6000fd5b505050505b610b763384612a26565b60fd54610b8d906001600160a01b03163384612b74565b60408051338152602081018490529081018490527ff279e6a1f5e320cca91135676d9cb6e44ca8a08c0b88342bcdb1144f6511b5689060600160405180910390a15050600160c95550565b60008060fd60009054906101000a90046001600160a01b03166001600160a01b03166318160ddd6040518163ffffffff1660e01b815260040160206040518083038186803b158015610c2957600080fd5b505afa158015610c3d573d6000803e3d6000fd5b505050506040513d601f19601f82011682018060405250810190610c619190613dbb565b60fd5460408051630240bc6b60e21b8152815193945060009384936001600160a01b031692630902f1ac9260048082019391829003018186803b158015610ca757600080fd5b505afa158015610cbb573d6000803e3d6000fd5b505050506040513d601f19601f82011682018060405250810190610cdf9190613e42565b9092509050600083610cf18488613d7a565b610cfb9190613d99565b9050600084610d0a8489613d7a565b610d149190613d99565b60ff54909150610d2c906001600160a01b0316612bd7565b610d369082613d7a565b60fe54610d4b906001600160a01b0316612bd7565b610d559084613d7a565b610d5f9190613e66565b9550610d73670de0b6b3a764000087613d99565b979650505050505050565b6000336106ac818585610d918383611d41565b610d9b9190613e66565b611ea0565b600080600060fd60009054906101000a90046001600160a01b03166001600160a01b03166318160ddd6040518163ffffffff1660e01b815260040160206040518083038186803b158015610df357600080fd5b505afa158015610e07573d6000803e3d6000fd5b505050506040513d601f19601f82011682018060405250810190610e2b9190613dbb565b60fd5460408051630240bc6b60e21b8152815193945060009384936001600160a01b031692630902f1ac9260048082019391829003018186803b158015610e7157600080fd5b505afa158015610e85573d6000803e3d6000fd5b505050506040513d601f19601f82011682018060405250810190610ea99190613e42565b9092509050600083610ebb8489613d7a565b610ec59190613d99565b9050600084610ed4848a613d7a565b610ede9190613d99565b60fe54909150600090610ef9906001600160a01b0316612d5e565b60ff54909150600090610f14906001600160a01b0316612d5e565b9050811580610f21575080155b15610f3857506000998a9950975050505050505050565b6305f5e100610f478285613d7a565b610f518487613d7a565b610f5b9190613e66565b610f659190613d99565b9a60019a5098505050505050505050565b6065546001600160a01b03163314610fa05760405162461bcd60e51b81526004016108b790613e7e565b610bb98110610fea5760405162461bcd60e51b81526020600482015260166024820152755969656c64204665652063616e6e6f74203e2033302560501b60448201526064016108b7565b60fb8190556040518181527f5cdc47cbc2be1e35e5429dd646b1e2047ab328f4108873ab71318989f7566ceb906020015b60405180910390a150565b6065546001600160a01b031633146110505760405162461bcd60e51b81526004016108b790613e7e565b61010180546001600160a01b038381166001600160a01b031983168117909355604080519190921680825260208201939093527f848ac24ab84501710d6631faab117b66b79aba7ec6f7778cf3bcff428c1a4efc910160405180910390a15050565b6065546001600160a01b031633146110dc5760405162461bcd60e51b81526004016108b790613e7e565b6108f36000612efc565b6000806000610103546000148061110e575042620151806101055461110b9190613e66565b11155b156111b757600061111d612f4e565b905061010454600010801561113457508061010454105b156111a9576000610105544261114a9190613e2b565b610104546111589190613d7a565b6111676201518061016d613d7a565b610104546111759085613e2b565b61117f9190613d7a565b61119190670de0b6b3a7640000613d7a565b61119b9190613d99565b959194506001935090915050565b600094909350600192509050565b505061010354610104549092909150600090565b60006111d7600161307b565b905080156111ef576000805461ff0019166101001790555b6111f986866130fb565b611201613130565b6107d060fb5560fc8490556040516378ed5d1f60e01b815260048101859052600090600080516020614165833981519152906378ed5d1f9060240160206040518083038186803b15801561125457600080fd5b505afa158015611268573d6000803e3d6000fd5b505050506040513d601f19601f8201168201806040525081019061128c9190613eb3565b60fd80546001600160a01b0319166001600160a01b03831690811790915560408051630dfe168160e01b815290519293509091630dfe168191600480820192602092909190829003018186803b1580156112e557600080fd5b505afa1580156112f9573d6000803e3d6000fd5b505050506040513d601f19601f8201168201806040525081019061131d9190613eb3565b60fe80546001600160a01b0319166001600160a01b0392831617905560fd546040805163d21220a760e01b81529051919092169163d21220a7916004808301926020929190829003018186803b15801561137657600080fd5b505afa15801561138a573d6000803e3d6000fd5b505050506040513d601f19601f820116820180604052508101906113ae9190613eb3565b60ff80546001600160a01b03199081166001600160a01b039384161790915561010080548216878416179055610101805490911685831617905560fd54611407911660008051602061416583398151915260001961315f565b61143c730e09fabb73bd3ade0a17ecc321fd13a19e81ce827310ed43c718714eb63d5aa57b78b54704e256024e60001961315f565b60fe5460405163095ea7b360e01b81527310ed43c718714eb63d5aa57b78b54704e256024e600482015260001960248201526001600160a01b039091169063095ea7b390604401602060405180830381600087803b15801561149d57600080fd5b505af11580156114b1573d6000803e3d6000fd5b505050506040513d601f19601f820116820180604052508101906114d59190613ed0565b5060ff5460405163095ea7b360e01b81527310ed43c718714eb63d5aa57b78b54704e256024e600482015260001960248201526001600160a01b039091169063095ea7b390604401602060405180830381600087803b15801561153757600080fd5b505af115801561154b573d6000803e3d6000fd5b505050506040513d601f19601f8201168201806040525081019061156f9190613ed0565b506115786129f6565b5080156115c0576000805461ff0019169055604051600181527f7f26b83ff96e1f2b6a682f133852f6798a09c465da95921460cefb3847402498906020015b60405180910390a15b505050505050565b60006115d561039e6115e9565b905090565b60606037805461061b90613d2f565b60fc546040516393f1a40b60e01b815260048101919091523060248201526000908190600080516020614165833981519152906393f1a40b9060440160606040518083038186803b15801561163d57600080fd5b505afa158015611651573d6000803e3d6000fd5b505050506040513d601f19601f820116820180604052508101906116759190613eed565b505060fd546040516370a0823160e01b815230600482015291925082916001600160a01b03909116906370a082319060240160206040518083038186803b1580156116bf57600080fd5b505afa1580156116d3573d6000803e3d6000fd5b505050506040513d601f19601f820116820180604052508101906116f79190613dbb565b6117019190613e66565b91505090565b600033816117158286611d41565b9050838110156117755760405162461bcd60e51b815260206004820152602560248201527f45524332303a2064656372656173656420616c6c6f77616e63652062656c6f77604482015264207a65726f60d81b60648201526084016108b7565b61086c8286868403611ea0565b6065546001600160a01b031633146117ac5760405162461bcd60e51b81526004016108b790613e7e565b6001600160a01b0381166117f35760405162461bcd60e51b815260206004820152600e60248201526d1dd85b1b195d081a5b9d985b1a5960921b60448201526064016108b7565b61010080546001600160a01b0319166001600160a01b0383169081179091556040519081527f60edc991b058a7e279075cf86f19a6b478334efec47e089d09890b139c7823279060200161101b565b6000336106ac818585612385565b600260c95414156118a35760405162461bcd60e51b815260206004820152601f60248201527f5265656e7472616e637947756172643a207265656e7472616e742063616c6c0060448201526064016108b7565b600260c95560975460ff16156118cb5760405162461bcd60e51b81526004016108b790613e01565b6000811161190c5760405162461bcd60e51b815260206004820152600e60248201526d125b9d985b1a5908185b5bdd5b9d60921b60448201526064016108b7565b60006119166115e9565b60fd54909150611931906001600160a01b0316333085613283565b33600090815261010260205260409081902043905560fc549051631c57762b60e31b81526004810191909152602481018390526000805160206141658339815191529063e2bbb15890604401600060405180830381600087803b15801561199757600080fd5b505af11580156119ab573d6000803e3d6000fd5b5050505060006119ba60355490565b9050600081156119de57826119cf8386613d7a565b6119d99190613d99565b6119e0565b835b90506119ec33826132bb565b60408051338152602081018690529081018290527f90890809c654f11d6e72a28fa60149770a0d11ec6c92319d6ceb2bb0a4ea1a159060600160405180910390a15050600160c9555050565b6000806000611a486104116115e9565b915091508015611a585750919050565b600080611a636122b9565b915091508082611a716115c8565b611a7b9190613d7a565b611a859190613d99565b94505050505090565b600080611a996110e6565b505090506000611aa76106b6565b905061271060fb54612710611abc9190613e2b565b611ac69083613d7a565b611ad09190613d99565b9050611adc8183613e66565b9250505090565b60fc54604051631175a1dd60e01b81526004810191909152306024820152600090819060008051602061416583398151915290631175a1dd9060440160206040518083038186803b158015611b3757600080fd5b505afa158015611b4b573d6000803e3d6000fd5b505050506040513d601f19601f82011682018060405250810190611b6f9190613dbb565b9050600080611b7c612222565b909250905080611b8c8385613d7a565b611b969190613d99565b935050505090565b6065546001600160a01b0316331480611bc25750610101546001600160a01b031633145b611bde5760405162461bcd60e51b81526004016108b790613dd4565b60975460ff1615611c015760405162461bcd60e51b81526004016108b790613e01565b611c0961339a565b611c11612553565b60fc546040516393f1a40b60e01b81526004810191909152306024820152600090600080516020614165833981519152906393f1a40b9060440160606040518083038186803b158015611c6357600080fd5b505afa158015611c77573d6000803e3d6000fd5b505050506040513d601f19601f82011682018060405250810190611c9b9190613eed565b50909150508015611d115760fc54604051630441a3e760e41b81526004810191909152602481018290526000805160206141658339815191529063441a3e7090604401600060405180830381600087803b158015611cf857600080fd5b505af1158015611d0c573d6000803e3d6000fd5b505050505b6040518181527f99d7f8b71cfb9126984f7a5eed3a40e64a8959e9b0e442221546fb04ec6a489c9060200161101b565b6001600160a01b03918216600090815260346020908152604080832093909416825291909152205490565b6065546001600160a01b03163314611d965760405162461bcd60e51b81526004016108b790613e7e565b6001600160a01b038116611dfb5760405162461bcd60e51b815260206004820152602660248201527f4f776e61626c653a206e6577206f776e657220697320746865207a65726f206160448201526564647265737360d01b60648201526084016108b7565b611e0481612efc565b50565b6065546001600160a01b0316331480611e2b5750610101546001600160a01b031633145b611e475760405162461bcd60e51b81526004016108b790613dd4565b60975460ff16611e905760405162461bcd60e51b815260206004820152601460248201527314185d5cd8589b194e881b9bdd081c185d5cd95960621b60448201526064016108b7565b611e9861340f565b611e04613489565b6001600160a01b038316611f025760405162461bcd60e51b8152602060048201526024808201527f45524332303a20617070726f76652066726f6d20746865207a65726f206164646044820152637265737360e01b60648201526084016108b7565b6001600160a01b038216611f635760405162461bcd60e51b815260206004820152602260248201527f45524332303a20617070726f766520746f20746865207a65726f206164647265604482015261737360f01b60648201526084016108b7565b6001600160a01b0383811660008181526034602090815260408083209487168084529482529182902085905590518481527f8c5be1e5ebec7d5bd14f71427d1e84f3dd0314c0f7b2291e5b200ac8c7c3b925910160405180910390a3505050565b60fc54604051631526fe2760e01b81526000918291829160008051602061416583398151915291631526fe27916120019160040190815260200190565b60a06040518083038186803b15801561201957600080fd5b505afa15801561202d573d6000803e3d6000fd5b505050506040513d601f19601f820116820180604052508101906120519190613f1b565b945050935050506000816120e3576000805160206141658339815191526001600160a01b03166399d7e84a6040518163ffffffff1660e01b815260040160206040518083038186803b1580156120a657600080fd5b505afa1580156120ba573d6000803e3d6000fd5b505050506040513d601f19601f820116820180604052508101906120de9190613dbb565b612162565b6000805160206141658339815191526001600160a01b031663c40d337b6040518163ffffffff1660e01b815260040160206040518083038186803b15801561212a57600080fd5b505afa15801561213e573d6000803e3d6000fd5b505050506040513d601f19601f820116820180604052508101906121629190613dbb565b604051631e9b828b60e01b8152831515600482015290915060009060008051602061416583398151915290631e9b828b9060240160206040518083038186803b1580156121ae57600080fd5b505afa1580156121c2573d6000803e3d6000fd5b505050506040513d601f19601f820116820180604052508101906121e69190613dbb565b905081846121f66003603c613d99565b61220190603c613d7a565b61220c906018613d7a565b6122189061016d613d7a565b611a719084613d7a565b600080600073b6064ed41d4f67e353768aa239ca86f4f73665a16001600160a01b03166350d25bcd6040518163ffffffff1660e01b815260040160206040518083038186803b15801561227457600080fd5b505afa158015612288573d6000803e3d6000fd5b505050506040513d601f19601f820116820180604052508101906122ac9190613dbb565b936305f5e1009350915050565b6000806000730567f2323251f0aab15c8dfb1967e4e8a7d42aee6001600160a01b03166350d25bcd6040518163ffffffff1660e01b815260040160206040518083038186803b15801561227457600080fd5b60006123178484611d41565b9050600019811461237f57818110156123725760405162461bcd60e51b815260206004820152601d60248201527f45524332303a20696e73756666696369656e7420616c6c6f77616e636500000060448201526064016108b7565b61237f8484848403611ea0565b50505050565b6001600160a01b0383166123e95760405162461bcd60e51b815260206004820152602560248201527f45524332303a207472616e736665722066726f6d20746865207a65726f206164604482015264647265737360d81b60648201526084016108b7565b6001600160a01b03821661244b5760405162461bcd60e51b815260206004820152602360248201527f45524332303a207472616e7366657220746f20746865207a65726f206164647260448201526265737360e81b60648201526084016108b7565b6001600160a01b038316600090815260336020526040902054818110156124c35760405162461bcd60e51b815260206004820152602660248201527f45524332303a207472616e7366657220616d6f756e7420657863656564732062604482015265616c616e636560d01b60648201526084016108b7565b6001600160a01b038085166000908152603360205260408082208585039055918516815290812080548492906124fa908490613e66565b92505081905550826001600160a01b0316846001600160a01b03167fddf252ad1be2c89b69c2b068fc378daa952ba7f163c4a11628f55a4df523b3ef8460405161254691815260200190565b60405180910390a361237f565b60fc54604051631c57762b60e31b81526004810191909152600060248201526000805160206141658339815191529063e2bbb15890604401600060405180830381600087803b1580156125a557600080fd5b505af11580156125b9573d6000803e3d6000fd5b50506040516370a0823160e01b815230600482015260009250730e09fabb73bd3ade0a17ecc321fd13a19e81ce8291506370a082319060240160206040518083038186803b15801561260a57600080fd5b505afa15801561261e573d6000803e3d6000fd5b505050506040513d601f19601f820116820180604052508101906126429190613dbb565b90508015611e0457600061271060fb548361265d9190613d7a565b6126679190613d99565b6101005490915061269790730e09fabb73bd3ade0a17ecc321fd13a19e81ce82906001600160a01b031683612b74565b6126a18183613e2b565b60fe549092506000906001600160a01b0316730e09fabb73bd3ade0a17ecc321fd13a19e81ce8214156126e0576126d9600284613d99565b9050612795565b60fe5461271690730e09fabb73bd3ade0a17ecc321fd13a19e81ce82906001600160a01b0316612711600287613d99565b61357b565b5060fe546040516370a0823160e01b81523060048201526001600160a01b03909116906370a082319060240160206040518083038186803b15801561275a57600080fd5b505afa15801561276e573d6000803e3d6000fd5b505050506040513d601f19601f820116820180604052508101906127929190613dbb565b90505b60ff546000906001600160a01b0316730e09fabb73bd3ade0a17ecc321fd13a19e81ce8214156127d1576127ca600285613d99565b9050612881565b60ff5461280290730e09fabb73bd3ade0a17ecc321fd13a19e81ce82906001600160a01b0316612711600288613d99565b5060ff546040516370a0823160e01b81523060048201526001600160a01b03909116906370a082319060240160206040518083038186803b15801561284657600080fd5b505afa15801561285a573d6000803e3d6000fd5b505050506040513d601f19601f8201168201806040525081019061287e9190613dbb565b90505b60fe5460ff5460405162e8e33760e81b81526001600160a01b03928316600482015291166024820152604481018390526064810182905260006084820181905260a48201523060c48201524260e48201527310ed43c718714eb63d5aa57b78b54704e256024e9063e8e337009061010401606060405180830381600087803b15801561290c57600080fd5b505af1158015612920573d6000803e3d6000fd5b505050506040513d601f19601f820116820180604052508101906129449190613eed565b50505061294f613489565b5060008061295b612222565b90925090507f913f67bfd2c6ac4a84007665147ed6861715996d03ed38d610c52e28c0883803818361298d888a613e66565b6129979190613d7a565b6129a19190613d99565b60405190815260200160405180910390a17f6d415483528749d9b4bfa85837aeca6271d845839c39bfa4614240e15dabeb1e816129de8488613d7a565b6129e89190613d99565b6040519081526020016115b7565b6000806000612a036110e6565b9250925092508015612a215761010383905561010482905542610105555b505050565b6001600160a01b038216612a865760405162461bcd60e51b815260206004820152602160248201527f45524332303a206275726e2066726f6d20746865207a65726f206164647265736044820152607360f81b60648201526084016108b7565b6001600160a01b03821660009081526033602052604090205481811015612afa5760405162461bcd60e51b815260206004820152602260248201527f45524332303a206275726e20616d6f756e7420657863656564732062616c616e604482015261636560f01b60648201526084016108b7565b6001600160a01b0383166000908152603360205260408120838303905560358054849290612b29908490613e2b565b90915550506040518281526000906001600160a01b038516907fddf252ad1be2c89b69c2b068fc378daa952ba7f163c4a11628f55a4df523b3ef9060200160405180910390a3505050565b6040516001600160a01b038316602482015260448101829052612a2190849063a9059cbb60e01b906064015b60408051601f198184030181529190526020810180516001600160e01b03166001600160e01b03199093169290921790915261369f565b60006001600160a01b03821673bb4cdb9cbd36b01bd1cbaebf2de08d9173bc095c1415612c0d5750670de0b6b3a7640000919050565b6040805160028082526060820183526000926020830190803683370190505090508281600081518110612c4257612c42613f5a565b60200260200101906001600160a01b031690816001600160a01b03168152505073bb4cdb9cbd36b01bd1cbaebf2de08d9173bc095c81600181518110612c8a57612c8a613f5a565b6001600160a01b039092166020928302919091019091015260405163d06ca61f60e01b81527310ed43c718714eb63d5aa57b78b54704e256024e9063d06ca61f90612ce390670de0b6b3a7640000908590600401613fb4565b60006040518083038186803b158015612cfb57600080fd5b505afa158015612d0f573d6000803e3d6000fd5b505050506040513d6000823e601f3d908101601f19168201604052612d379190810190613fcd565b600181518110612d4957612d49613f5a565b6020026020010151915050919050565b919050565b60006001600160a01b0382167355d398326f99059ff775485246999027b31979551415612e105773b97ad0e74fa7d920791e90258a6e2085088b43206001600160a01b03166350d25bcd6040518163ffffffff1660e01b815260040160206040518083038186803b158015612dd257600080fd5b505afa158015612de6573d6000803e3d6000fd5b505050506040513d601f19601f82011682018060405250810190612e0a9190613dbb565b92915050565b6001600160a01b038216738ac76a51cc950d9822d68b83fe1ad97b32cd580d1415612e82577351597f405303c4377e36123cbc172b13269ea1636001600160a01b03166350d25bcd6040518163ffffffff1660e01b815260040160206040518083038186803b158015612dd257600080fd5b6001600160a01b03821673e9e7cea3dedca5984780bafc599bd69add087d561415612ef45773cbb98864ef56e9042e7d2efef76141f15731b82f6001600160a01b03166350d25bcd6040518163ffffffff1660e01b815260040160206040518083038186803b158015612dd257600080fd5b506000919050565b606580546001600160a01b038381166001600160a01b0319831681179093556040519116919082907f8be0079c531659141344cd1fd0a4f28419497f9722a3daafe3b4186f6b6457e090600090a35050565b60008060fd60009054906101000a90046001600160a01b03166001600160a01b03166318160ddd6040518163ffffffff1660e01b815260040160206040518083038186803b158015612f9f57600080fd5b505afa158015612fb3573d6000803e3d6000fd5b505050506040513d601f19601f82011682018060405250810190612fd79190613dbb565b905080612fe657600091505090565b60fd5460408051630240bc6b60e21b8152815160009384936001600160a01b0390911692630902f1ac9260048083019392829003018186803b15801561302b57600080fd5b505afa15801561303f573d6000803e3d6000fd5b505050506040513d601f19601f820116820180604052508101906130639190613e42565b909250905082611b8c6130768385613d7a565b613771565b60008054610100900460ff16156130ba578160ff16600114801561309e5750303b155b612ef45760405162461bcd60e51b81526004016108b790614073565b60005460ff8084169116106130e15760405162461bcd60e51b81526004016108b790614073565b506000805460ff191660ff92909216919091179055600190565b600054610100900460ff166131225760405162461bcd60e51b81526004016108b7906140c1565b61312c82826137e0565b5050565b600054610100900460ff166131575760405162461bcd60e51b81526004016108b7906140c1565b6108f361382e565b8015806131e85750604051636eb1769f60e11b81523060048201526001600160a01b03838116602483015284169063dd62ed3e9060440160206040518083038186803b1580156131ae57600080fd5b505afa1580156131c2573d6000803e3d6000fd5b505050506040513d601f19601f820116820180604052508101906131e69190613dbb565b155b6132535760405162461bcd60e51b815260206004820152603660248201527f5361666545524332303a20617070726f76652066726f6d206e6f6e2d7a65726f60448201527520746f206e6f6e2d7a65726f20616c6c6f77616e636560501b60648201526084016108b7565b6040516001600160a01b038316602482015260448101829052612a2190849063095ea7b360e01b90606401612ba0565b6040516001600160a01b038085166024830152831660448201526064810182905261237f9085906323b872dd60e01b90608401612ba0565b6001600160a01b0382166133115760405162461bcd60e51b815260206004820152601f60248201527f45524332303a206d696e7420746f20746865207a65726f20616464726573730060448201526064016108b7565b80603560008282546133239190613e66565b90915550506001600160a01b03821660009081526033602052604081208054839290613350908490613e66565b90915550506040518181526001600160a01b038316906000907fddf252ad1be2c89b69c2b068fc378daa952ba7f163c4a11628f55a4df523b3ef9060200160405180910390a35050565b60975460ff16156133bd5760405162461bcd60e51b81526004016108b790613e01565b6097805460ff191660011790557f62e78cea01bee320cd4e420270b5ea74000d11b0c9f74754ebdbfc544b05a2586133f23390565b6040516001600160a01b03909116815260200160405180910390a1565b60975460ff166134585760405162461bcd60e51b815260206004820152601460248201527314185d5cd8589b194e881b9bdd081c185d5cd95960621b60448201526064016108b7565b6097805460ff191690557f5db9ee0a495bf2e6ff9c91a7834c1ba4fdd244a5e8aa4e537bd38aeae4b073aa336133f2565b60fd546040516370a0823160e01b81523060048201526000916001600160a01b0316906370a082319060240160206040518083038186803b1580156134cd57600080fd5b505afa1580156134e1573d6000803e3d6000fd5b505050506040513d601f19601f820116820180604052508101906135059190613dbb565b905080156135785760fc54604051631c57762b60e31b81526004810191909152602481018290526000805160206141658339815191529063e2bbb15890604401600060405180830381600087803b15801561355f57600080fd5b505af1158015613573573d6000803e3d6000fd5b505050505b90565b6040805160028082526060808301845292600092919060208301908036833701905050905084816000815181106135b4576135b4613f5a565b60200260200101906001600160a01b031690816001600160a01b03168152505083816001815181106135e8576135e8613f5a565b6001600160a01b03909216602092830291909101909101526040516338ed173960e01b81527310ed43c718714eb63d5aa57b78b54704e256024e906338ed17399061364090869060009086903090429060040161410c565b600060405180830381600087803b15801561365a57600080fd5b505af115801561366e573d6000803e3d6000fd5b505050506040513d6000823e601f3d908101601f191682016040526136969190810190613fcd565b95945050505050565b60006136f4826040518060400160405280602081526020017f5361666545524332303a206c6f772d6c6576656c2063616c6c206661696c6564815250856001600160a01b031661385e9092919063ffffffff16565b805190915015612a2157808060200190518101906137129190613ed0565b612a215760405162461bcd60e51b815260206004820152602a60248201527f5361666545524332303a204552433230206f7065726174696f6e20646964206e6044820152691bdd081cdd58d8d9595960b21b60648201526084016108b7565b600060038211156137d2575080600061378b600283613d99565b613796906001613e66565b90505b818110156137cc579050806002816137b18186613d99565b6137bb9190613e66565b6137c59190613d99565b9050613799565b50919050565b8115612d5957506001919050565b600054610100900460ff166138075760405162461bcd60e51b81526004016108b7906140c1565b815161381a9060369060208501906139cf565b508051612a219060379060208401906139cf565b600054610100900460ff166138555760405162461bcd60e51b81526004016108b7906140c1565b6108f333612efc565b606061386d8484600085613875565b949350505050565b6060824710156138d65760405162461bcd60e51b815260206004820152602660248201527f416464726573733a20696e73756666696369656e742062616c616e636520666f6044820152651c8818d85b1b60d21b60648201526084016108b7565b6001600160a01b0385163b61392d5760405162461bcd60e51b815260206004820152601d60248201527f416464726573733a2063616c6c20746f206e6f6e2d636f6e747261637400000060448201526064016108b7565b600080866001600160a01b031685876040516139499190614148565b60006040518083038185875af1925050503d8060008114613986576040519150601f19603f3d011682016040523d82523d6000602084013e61398b565b606091505b5091509150610d73828286606083156139a557508161084c565b8251156139b55782518084602001fd5b8160405162461bcd60e51b81526004016108b79190613a94565b8280546139db90613d2f565b90600052602060002090601f0160209004810192826139fd5760008555613a43565b82601f10613a1657805160ff1916838001178555613a43565b82800160010185558215613a43579182015b82811115613a43578251825591602001919060010190613a28565b50613a4f929150613a53565b5090565b5b80821115613a4f5760008155600101613a54565b60005b83811015613a83578181015183820152602001613a6b565b8381111561237f5750506000910152565b6020815260008251806020840152613ab3816040850160208701613a68565b601f01601f19169190910160400192915050565b6001600160a01b0381168114611e0457600080fd5b60008060408385031215613aef57600080fd5b8235613afa81613ac7565b946020939093013593505050565b8015158114611e0457600080fd5b600060208284031215613b2857600080fd5b813561084c81613b08565b600080600060608486031215613b4857600080fd5b8335613b5381613ac7565b92506020840135613b6381613ac7565b929592945050506040919091013590565b600060208284031215613b8657600080fd5b5035919050565b600060208284031215613b9f57600080fd5b813561084c81613ac7565b634e487b7160e01b600052604160045260246000fd5b604051601f8201601f1916810167ffffffffffffffff81118282101715613be957613be9613baa565b604052919050565b600082601f830112613c0257600080fd5b813567ffffffffffffffff811115613c1c57613c1c613baa565b613c2f601f8201601f1916602001613bc0565b818152846020838601011115613c4457600080fd5b816020850160208301376000918101602001919091529392505050565b600080600080600060a08688031215613c7957600080fd5b853567ffffffffffffffff80821115613c9157600080fd5b613c9d89838a01613bf1565b96506020880135915080821115613cb357600080fd5b50613cc088828901613bf1565b945050604086013592506060860135613cd881613ac7565b91506080860135613ce881613ac7565b809150509295509295909350565b60008060408385031215613d0957600080fd5b8235613d1481613ac7565b91506020830135613d2481613ac7565b809150509250929050565b600181811c90821680613d4357607f821691505b602082108114156137cc57634e487b7160e01b600052602260045260246000fd5b634e487b7160e01b600052601160045260246000fd5b6000816000190483118215151615613d9457613d94613d64565b500290565b600082613db657634e487b7160e01b600052601260045260246000fd5b500490565b600060208284031215613dcd57600080fd5b5051919050565b60208082526013908201527227b7363c9037bbb732b91037b91030b236b4b760691b604082015260600190565b60208082526010908201526f14185d5cd8589b194e881c185d5cd95960821b604082015260600190565b600082821015613e3d57613e3d613d64565b500390565b60008060408385031215613e5557600080fd5b505080516020909101519092909150565b60008219821115613e7957613e79613d64565b500190565b6020808252818101527f4f776e61626c653a2063616c6c6572206973206e6f7420746865206f776e6572604082015260600190565b600060208284031215613ec557600080fd5b815161084c81613ac7565b600060208284031215613ee257600080fd5b815161084c81613b08565b600080600060608486031215613f0257600080fd5b8351925060208401519150604084015190509250925092565b600080600080600060a08688031215613f3357600080fd5b855194506020860151935060408601519250606086015191506080860151613ce881613b08565b634e487b7160e01b600052603260045260246000fd5b600081518084526020808501945080840160005b83811015613fa95781516001600160a01b031687529582019590820190600101613f84565b509495945050505050565b82815260406020820152600061386d6040830184613f70565b60006020808385031215613fe057600080fd5b825167ffffffffffffffff80821115613ff857600080fd5b818501915085601f83011261400c57600080fd5b81518181111561401e5761401e613baa565b8060051b915061402f848301613bc0565b818152918301840191848101908884111561404957600080fd5b938501935b838510156140675784518252938501939085019061404e565b98975050505050505050565b6020808252602e908201527f496e697469616c697a61626c653a20636f6e747261637420697320616c72656160408201526d191e481a5b9a5d1a585b1a5e995960921b606082015260800190565b6020808252602b908201527f496e697469616c697a61626c653a20636f6e7472616374206973206e6f74206960408201526a6e697469616c697a696e6760a81b606082015260800190565b85815284602082015260a06040820152600061412b60a0830186613f70565b6001600160a01b0394909416606083015250608001529392505050565b6000825161415a818460208701613a68565b919091019291505056fe000000000000000000000000a5f8c5dbd5f286960b9d90548680ae5ebff07652a26469706673582212209bb7c8ee7857099b0a718d409e8fca93f017d518ee305146ef94014be674e8b664736f6c63430008090033",
  "devdoc": {
    "kind": "dev",
    "methods": {
      "allowance(address,address)": {
        "details": "See {IERC20-allowance}."
      },
      "approve(address,uint256)": {
        "details": "See {IERC20-approve}. NOTE: If `amount` is the maximum `uint256`, the allowance is not updated on `transferFrom`. This is semantically equivalent to an infinite approval. Requirements: - `spender` cannot be the zero address."
      },
      "balanceOf(address)": {
        "details": "See {IERC20-balanceOf}."
      },
      "decimals()": {
        "details": "Returns the number of decimals used to get its user representation. For example, if `decimals` equals `2`, a balance of `505` tokens should be displayed to a user as `5.05` (`505 / 10 ** 2`). Tokens usually opt for a value of 18, imitating the relationship between Ether and Wei. This is the value {ERC20} uses, unless this function is overridden; NOTE: This information is only used for _display_ purposes: it in no way affects any of the arithmetic of the contract, including {IERC20-balanceOf} and {IERC20-transfer}."
      },
      "decreaseAllowance(address,uint256)": {
        "details": "Atomically decreases the allowance granted to `spender` by the caller. This is an alternative to {approve} that can be used as a mitigation for problems described in {IERC20-approve}. Emits an {Approval} event indicating the updated allowance. Requirements: - `spender` cannot be the zero address. - `spender` must have allowance for the caller of at least `subtractedValue`."
      },
      "deposit(uint256)": {
        "params": {
          "_amount": "amount of lptokens to deposit"
        }
      },
      "increaseAllowance(address,uint256)": {
        "details": "Atomically increases the allowance granted to `spender` by the caller. This is an alternative to {approve} that can be used as a mitigation for problems described in {IERC20-approve}. Emits an {Approval} event indicating the updated allowance. Requirements: - `spender` cannot be the zero address."
      },
      "name()": {
        "details": "Returns the name of the token."
      },
      "owner()": {
        "details": "Returns the address of the current owner."
      },
      "paused()": {
        "details": "Returns true if the contract is paused, and false otherwise."
      },
      "renounceOwnership()": {
        "details": "Leaves the contract without owner. It will not be possible to call `onlyOwner` functions anymore. Can only be called by the current owner. NOTE: Renouncing ownership will leave the contract without an owner, thereby removing any functionality that is only available to the owner."
      },
      "setFee(uint256)": {
        "params": {
          "_yieldFeePerc": "deposit fee percentage. 2000 for 20%"
        }
      },
      "symbol()": {
        "details": "Returns the symbol of the token, usually a shorter version of the name."
      },
      "totalSupply()": {
        "details": "See {IERC20-totalSupply}."
      },
      "transfer(address,uint256)": {
        "details": "See {IERC20-transfer}. Requirements: - `to` cannot be the zero address. - the caller must have a balance of at least `amount`."
      },
      "transferFrom(address,address,uint256)": {
        "details": "See {IERC20-transferFrom}. Emits an {Approval} event indicating the updated allowance. This is not required by the EIP. See the note at the beginning of {ERC20}. NOTE: Does not update the allowance if the current allowance is the maximum `uint256`. Requirements: - `from` and `to` cannot be the zero address. - `from` must have a balance of at least `amount`. - the caller must have allowance for ``from``'s tokens of at least `amount`."
      },
      "transferOwnership(address)": {
        "details": "Transfers ownership of the contract to a new account (`newOwner`). Can only be called by the current owner."
      },
      "withdraw(uint256)": {
        "params": {
          "_shares": "amount of shares to burn"
        }
      }
    },
    "version": 1
  },
  "userdoc": {
    "kind": "user",
    "methods": {
      "emergencyWithdraw()": {
        "notice": "Withdraws funds staked in mirror to this vault and pauses deposit, yield, invest functions"
      },
      "getPendingRewards()": {
        "notice": "Returns the pending rewards in UDS."
      },
      "reinvest()": {
        "notice": "Unpauses deposit, yield, invest functions, and invests funds."
      },
      "setFee(uint256)": {
        "notice": "Function to set deposit and yield fee"
      }
    },
    "version": 1
  },
  "storageLayout": {
    "storage": [
      {
        "astId": 130,
        "contract": "contracts/lci/deps/PckFarm2Vault.sol:PckFarm2Vault",
        "label": "_initialized",
        "offset": 0,
        "slot": "0",
        "type": "t_uint8"
      },
      {
        "astId": 133,
        "contract": "contracts/lci/deps/PckFarm2Vault.sol:PckFarm2Vault",
        "label": "_initializing",
        "offset": 1,
        "slot": "0",
        "type": "t_bool"
      },
      {
        "astId": 1657,
        "contract": "contracts/lci/deps/PckFarm2Vault.sol:PckFarm2Vault",
        "label": "__gap",
        "offset": 0,
        "slot": "1",
        "type": "t_array(t_uint256)50_storage"
      },
      {
        "astId": 454,
        "contract": "contracts/lci/deps/PckFarm2Vault.sol:PckFarm2Vault",
        "label": "_balances",
        "offset": 0,
        "slot": "51",
        "type": "t_mapping(t_address,t_uint256)"
      },
      {
        "astId": 460,
        "contract": "contracts/lci/deps/PckFarm2Vault.sol:PckFarm2Vault",
        "label": "_allowances",
        "offset": 0,
        "slot": "52",
        "type": "t_mapping(t_address,t_mapping(t_address,t_uint256))"
      },
      {
        "astId": 462,
        "contract": "contracts/lci/deps/PckFarm2Vault.sol:PckFarm2Vault",
        "label": "_totalSupply",
        "offset": 0,
        "slot": "53",
        "type": "t_uint256"
      },
      {
        "astId": 464,
        "contract": "contracts/lci/deps/PckFarm2Vault.sol:PckFarm2Vault",
        "label": "_name",
        "offset": 0,
        "slot": "54",
        "type": "t_string_storage"
      },
      {
        "astId": 466,
        "contract": "contracts/lci/deps/PckFarm2Vault.sol:PckFarm2Vault",
        "label": "_symbol",
        "offset": 0,
        "slot": "55",
        "type": "t_string_storage"
      },
      {
        "astId": 1045,
        "contract": "contracts/lci/deps/PckFarm2Vault.sol:PckFarm2Vault",
        "label": "__gap",
        "offset": 0,
        "slot": "56",
        "type": "t_array(t_uint256)45_storage"
      },
      {
        "astId": 10,
        "contract": "contracts/lci/deps/PckFarm2Vault.sol:PckFarm2Vault",
        "label": "_owner",
        "offset": 0,
        "slot": "101",
        "type": "t_address"
      },
      {
        "astId": 122,
        "contract": "contracts/lci/deps/PckFarm2Vault.sol:PckFarm2Vault",
        "label": "__gap",
        "offset": 0,
        "slot": "102",
        "type": "t_array(t_uint256)49_storage"
      },
      {
        "astId": 286,
        "contract": "contracts/lci/deps/PckFarm2Vault.sol:PckFarm2Vault",
        "label": "_paused",
        "offset": 0,
        "slot": "151",
        "type": "t_bool"
      },
      {
        "astId": 375,
        "contract": "contracts/lci/deps/PckFarm2Vault.sol:PckFarm2Vault",
        "label": "__gap",
        "offset": 0,
        "slot": "152",
        "type": "t_array(t_uint256)49_storage"
      },
      {
        "astId": 390,
        "contract": "contracts/lci/deps/PckFarm2Vault.sol:PckFarm2Vault",
        "label": "_status",
        "offset": 0,
        "slot": "201",
        "type": "t_uint256"
      },
      {
        "astId": 434,
        "contract": "contracts/lci/deps/PckFarm2Vault.sol:PckFarm2Vault",
        "label": "__gap",
        "offset": 0,
        "slot": "202",
        "type": "t_array(t_uint256)49_storage"
      },
      {
        "astId": 17243,
        "contract": "contracts/lci/deps/PckFarm2Vault.sol:PckFarm2Vault",
        "label": "yieldFee",
        "offset": 0,
        "slot": "251",
        "type": "t_uint256"
      },
      {
        "astId": 17245,
        "contract": "contracts/lci/deps/PckFarm2Vault.sol:PckFarm2Vault",
        "label": "pid",
        "offset": 0,
        "slot": "252",
        "type": "t_uint256"
      },
      {
        "astId": 17248,
        "contract": "contracts/lci/deps/PckFarm2Vault.sol:PckFarm2Vault",
        "label": "lpToken",
        "offset": 0,
        "slot": "253",
        "type": "t_contract(IUniPair)27767"
      },
      {
        "astId": 17251,
        "contract": "contracts/lci/deps/PckFarm2Vault.sol:PckFarm2Vault",
        "label": "token0",
        "offset": 0,
        "slot": "254",
        "type": "t_contract(IERC20Upgradeable)1124"
      },
      {
        "astId": 17254,
        "contract": "contracts/lci/deps/PckFarm2Vault.sol:PckFarm2Vault",
        "label": "token1",
        "offset": 0,
        "slot": "255",
        "type": "t_contract(IERC20Upgradeable)1124"
      },
      {
        "astId": 17256,
        "contract": "contracts/lci/deps/PckFarm2Vault.sol:PckFarm2Vault",
        "label": "treasuryWallet",
        "offset": 0,
        "slot": "256",
        "type": "t_address"
      },
      {
        "astId": 17258,
        "contract": "contracts/lci/deps/PckFarm2Vault.sol:PckFarm2Vault",
        "label": "admin",
        "offset": 0,
        "slot": "257",
        "type": "t_address"
      },
      {
        "astId": 17262,
        "contract": "contracts/lci/deps/PckFarm2Vault.sol:PckFarm2Vault",
        "label": "depositedBlock",
        "offset": 0,
        "slot": "258",
        "type": "t_mapping(t_address,t_uint256)"
      },
      {
        "astId": 17287,
        "contract": "contracts/lci/deps/PckFarm2Vault.sol:PckFarm2Vault",
        "label": "lpRewardApr",
        "offset": 0,
        "slot": "259",
        "type": "t_uint256"
      },
      {
        "astId": 17289,
        "contract": "contracts/lci/deps/PckFarm2Vault.sol:PckFarm2Vault",
        "label": "lpReservePerShare",
        "offset": 0,
        "slot": "260",
        "type": "t_uint256"
      },
      {
        "astId": 17291,
        "contract": "contracts/lci/deps/PckFarm2Vault.sol:PckFarm2Vault",
        "label": "lpDataLastUpdate",
        "offset": 0,
        "slot": "261",
        "type": "t_uint256"
      }
    ],
    "types": {
      "t_address": {
        "encoding": "inplace",
        "label": "address",
        "numberOfBytes": "20"
      },
      "t_array(t_uint256)45_storage": {
        "base": "t_uint256",
        "encoding": "inplace",
        "label": "uint256[45]",
        "numberOfBytes": "1440"
      },
      "t_array(t_uint256)49_storage": {
        "base": "t_uint256",
        "encoding": "inplace",
        "label": "uint256[49]",
        "numberOfBytes": "1568"
      },
      "t_array(t_uint256)50_storage": {
        "base": "t_uint256",
        "encoding": "inplace",
        "label": "uint256[50]",
        "numberOfBytes": "1600"
      },
      "t_bool": {
        "encoding": "inplace",
        "label": "bool",
        "numberOfBytes": "1"
      },
      "t_contract(IERC20Upgradeable)1124": {
        "encoding": "inplace",
        "label": "contract IERC20Upgradeable",
        "numberOfBytes": "20"
      },
      "t_contract(IUniPair)27767": {
        "encoding": "inplace",
        "label": "contract IUniPair",
        "numberOfBytes": "20"
      },
      "t_mapping(t_address,t_mapping(t_address,t_uint256))": {
        "encoding": "mapping",
        "key": "t_address",
        "label": "mapping(address => mapping(address => uint256))",
        "numberOfBytes": "32",
        "value": "t_mapping(t_address,t_uint256)"
      },
      "t_mapping(t_address,t_uint256)": {
        "encoding": "mapping",
        "key": "t_address",
        "label": "mapping(address => uint256)",
        "numberOfBytes": "32",
        "value": "t_uint256"
      },
      "t_string_storage": {
        "encoding": "bytes",
        "label": "string",
        "numberOfBytes": "32"
      },
      "t_uint256": {
        "encoding": "inplace",
        "label": "uint256",
        "numberOfBytes": "32"
      },
      "t_uint8": {
        "encoding": "inplace",
        "label": "uint8",
        "numberOfBytes": "1"
      }
    }
  }
}