{
  "address": "0x523Cdcb92164786372F4d2C34483461846387817",
  "abi": [
    {
      "anonymous": false,
      "inputs": [
        {
          "indexed": false,
          "internalType": "address",
          "name": "token",
          "type": "address"
        },
        {
          "indexed": false,
          "internalType": "uint256",
          "name": "pid",
          "type": "uint256"
        }
      ],
      "name": "AddToken",
      "type": "event"
    },
    {
      "anonymous": false,
      "inputs": [
        {
          "indexed": false,
          "internalType": "address",
          "name": "claimer",
          "type": "address"
        },
        {
          "indexed": false,
          "internalType": "address",
          "name": "token",
          "type": "address"
        },
        {
          "indexed": false,
          "internalType": "uint256",
          "name": "tokenAmt",
          "type": "uint256"
        },
        {
          "indexed": false,
          "internalType": "uint256",
          "name": "USDTAmt",
          "type": "uint256"
        }
      ],
      "name": "Claim",
      "type": "event"
    },
    {
      "anonymous": false,
      "inputs": [
        {
          "indexed": false,
          "internalType": "uint256",
          "name": "USDTAmt",
          "type": "uint256"
        }
      ],
      "name": "EmergencyWithdraw",
      "type": "event"
    },
    {
      "anonymous": false,
      "inputs": [
        {
          "indexed": false,
          "internalType": "uint8",
          "name": "version",
          "type": "uint8"
        }
      ],
      "name": "Initialized",
      "type": "event"
    },
    {
      "anonymous": false,
      "inputs": [
        {
          "indexed": true,
          "internalType": "address",
          "name": "previousOwner",
          "type": "address"
        },
        {
          "indexed": true,
          "internalType": "address",
          "name": "newOwner",
          "type": "address"
        }
      ],
      "name": "OwnershipTransferred",
      "type": "event"
    },
    {
      "anonymous": false,
      "inputs": [
        {
          "indexed": false,
          "internalType": "address",
          "name": "account",
          "type": "address"
        }
      ],
      "name": "Paused",
      "type": "event"
    },
    {
      "anonymous": false,
      "inputs": [
        {
          "indexed": false,
          "internalType": "address",
          "name": "token",
          "type": "address"
        },
        {
          "indexed": false,
          "internalType": "uint256",
          "name": "pid",
          "type": "uint256"
        }
      ],
      "name": "RemoveToken",
      "type": "event"
    },
    {
      "anonymous": false,
      "inputs": [
        {
          "indexed": false,
          "internalType": "address",
          "name": "account",
          "type": "address"
        }
      ],
      "name": "Unpaused",
      "type": "event"
    },
    {
      "anonymous": false,
      "inputs": [
        {
          "indexed": false,
          "internalType": "uint256",
          "name": "sharePerc",
          "type": "uint256"
        },
        {
          "indexed": false,
          "internalType": "uint256",
          "name": "USDTAmt",
          "type": "uint256"
        }
      ],
      "name": "Withdraw",
      "type": "event"
    },
    {
      "inputs": [],
      "name": "BNBVault",
      "outputs": [
        {
          "internalType": "contract IStVault",
          "name": "",
          "type": "address"
        }
      ],
      "stateMutability": "view",
      "type": "function"
    },
    {
      "inputs": [],
      "name": "SWAP_BASE_TOKEN",
      "outputs": [
        {
          "internalType": "contract IERC20UpgradeableExt",
          "name": "",
          "type": "address"
        }
      ],
      "stateMutability": "view",
      "type": "function"
    },
    {
      "inputs": [],
      "name": "USDT",
      "outputs": [
        {
          "internalType": "contract IERC20UpgradeableExt",
          "name": "",
          "type": "address"
        }
      ],
      "stateMutability": "view",
      "type": "function"
    },
    {
      "inputs": [
        {
          "internalType": "address",
          "name": "_token",
          "type": "address"
        }
      ],
      "name": "addToken",
      "outputs": [],
      "stateMutability": "nonpayable",
      "type": "function"
    },
    {
      "inputs": [],
      "name": "admin",
      "outputs": [
        {
          "internalType": "address",
          "name": "",
          "type": "address"
        }
      ],
      "stateMutability": "view",
      "type": "function"
    },
    {
      "inputs": [
        {
          "internalType": "address",
          "name": "_claimer",
          "type": "address"
        }
      ],
      "name": "claim",
      "outputs": [
        {
          "internalType": "uint256",
          "name": "USDTAmt",
          "type": "uint256"
        }
      ],
      "stateMutability": "nonpayable",
      "type": "function"
    },
    {
      "inputs": [],
      "name": "claimEmergencyWithdrawal",
      "outputs": [],
      "stateMutability": "nonpayable",
      "type": "function"
    },
    {
      "inputs": [
        {
          "internalType": "address",
          "name": "",
          "type": "address"
        },
        {
          "internalType": "address",
          "name": "",
          "type": "address"
        },
        {
          "internalType": "uint256",
          "name": "",
          "type": "uint256"
        }
      ],
      "name": "claimer2ReqIds",
      "outputs": [
        {
          "internalType": "uint256",
          "name": "",
          "type": "uint256"
        }
      ],
      "stateMutability": "view",
      "type": "function"
    },
    {
      "inputs": [],
      "name": "emergencyWithdraw",
      "outputs": [],
      "stateMutability": "nonpayable",
      "type": "function"
    },
    {
      "inputs": [],
      "name": "getAPR",
      "outputs": [
        {
          "internalType": "uint256",
          "name": "",
          "type": "uint256"
        }
      ],
      "stateMutability": "view",
      "type": "function"
    },
    {
      "inputs": [],
      "name": "getAllPoolInUSD",
      "outputs": [
        {
          "internalType": "uint256",
          "name": "",
          "type": "uint256"
        }
      ],
      "stateMutability": "view",
      "type": "function"
    },
    {
      "inputs": [
        {
          "internalType": "address",
          "name": "_claimer",
          "type": "address"
        }
      ],
      "name": "getAllUnbonded",
      "outputs": [
        {
          "internalType": "uint256",
          "name": "waitingInUSD",
          "type": "uint256"
        },
        {
          "internalType": "uint256",
          "name": "unbondedInUSD",
          "type": "uint256"
        },
        {
          "internalType": "uint256",
          "name": "waitForTs",
          "type": "uint256"
        }
      ],
      "stateMutability": "view",
      "type": "function"
    },
    {
      "inputs": [],
      "name": "getCurrentTokenCompositionPerc",
      "outputs": [
        {
          "internalType": "address[]",
          "name": "",
          "type": "address[]"
        },
        {
          "internalType": "uint256[]",
          "name": "percentages",
          "type": "uint256[]"
        }
      ],
      "stateMutability": "view",
      "type": "function"
    },
    {
      "inputs": [],
      "name": "getEachPoolInUSD",
      "outputs": [
        {
          "internalType": "address[]",
          "name": "",
          "type": "address[]"
        },
        {
          "internalType": "uint256[]",
          "name": "pools",
          "type": "uint256[]"
        }
      ],
      "stateMutability": "view",
      "type": "function"
    },
    {
      "inputs": [],
      "name": "getEmergencyWithdrawalUnbonded",
      "outputs": [
        {
          "internalType": "uint256",
          "name": "waitingInUSD",
          "type": "uint256"
        },
        {
          "internalType": "uint256",
          "name": "unbondedInUSD",
          "type": "uint256"
        },
        {
          "internalType": "uint256",
          "name": "waitForTs",
          "type": "uint256"
        }
      ],
      "stateMutability": "view",
      "type": "function"
    },
    {
      "inputs": [],
      "name": "getPoolCount",
      "outputs": [
        {
          "internalType": "uint256",
          "name": "",
          "type": "uint256"
        }
      ],
      "stateMutability": "view",
      "type": "function"
    },
    {
      "inputs": [
        {
          "internalType": "address",
          "name": "_claimer",
          "type": "address"
        },
        {
          "internalType": "uint256",
          "name": "_pid",
          "type": "uint256"
        }
      ],
      "name": "getPoolUnbonded",
      "outputs": [
        {
          "internalType": "uint256",
          "name": "waiting",
          "type": "uint256"
        },
        {
          "internalType": "uint256",
          "name": "waitingInUSD",
          "type": "uint256"
        },
        {
          "internalType": "uint256",
          "name": "unbonded",
          "type": "uint256"
        },
        {
          "internalType": "uint256",
          "name": "unbondedInUSD",
          "type": "uint256"
        },
        {
          "internalType": "uint256",
          "name": "waitForTs",
          "type": "uint256"
        }
      ],
      "stateMutability": "view",
      "type": "function"
    },
    {
      "inputs": [
        {
          "internalType": "address",
          "name": "_claimer",
          "type": "address"
        }
      ],
      "name": "getPoolsUnbonded",
      "outputs": [
        {
          "internalType": "address[]",
          "name": "",
          "type": "address[]"
        },
        {
          "internalType": "uint256[]",
          "name": "waitings",
          "type": "uint256[]"
        },
        {
          "internalType": "uint256[]",
          "name": "waitingInUSDs",
          "type": "uint256[]"
        },
        {
          "internalType": "uint256[]",
          "name": "unbondeds",
          "type": "uint256[]"
        },
        {
          "internalType": "uint256[]",
          "name": "unbondedInUSDs",
          "type": "uint256[]"
        },
        {
          "internalType": "uint256[]",
          "name": "waitForTses",
          "type": "uint256[]"
        }
      ],
      "stateMutability": "view",
      "type": "function"
    },
    {
      "inputs": [],
      "name": "getTokens",
      "outputs": [
        {
          "internalType": "address[]",
          "name": "",
          "type": "address[]"
        }
      ],
      "stateMutability": "view",
      "type": "function"
    },
    {
      "inputs": [],
      "name": "getUSDTPriceInUSD",
      "outputs": [
        {
          "internalType": "uint256",
          "name": "",
          "type": "uint256"
        },
        {
          "internalType": "uint8",
          "name": "",
          "type": "uint8"
        }
      ],
      "stateMutability": "view",
      "type": "function"
    },
    {
      "inputs": [
        {
          "internalType": "address",
          "name": "_admin",
          "type": "address"
        },
        {
          "internalType": "address",
          "name": "_priceOracle",
          "type": "address"
        },
        {
          "internalType": "address",
          "name": "_router",
          "type": "address"
        },
        {
          "internalType": "address",
          "name": "_SWAP_BASE_TOKEN",
          "type": "address"
        },
        {
          "internalType": "address",
          "name": "_USDT",
          "type": "address"
        },
        {
          "internalType": "address",
          "name": "_token0",
          "type": "address"
        }
      ],
      "name": "initialize",
      "outputs": [],
      "stateMutability": "nonpayable",
      "type": "function"
    },
    {
      "inputs": [
        {
          "internalType": "address",
          "name": "_admin",
          "type": "address"
        },
        {
          "internalType": "address",
          "name": "_priceOracle",
          "type": "address"
        },
        {
          "internalType": "contract IStVault",
          "name": "_BNBVault",
          "type": "address"
        }
      ],
      "name": "initialize1",
      "outputs": [],
      "stateMutability": "nonpayable",
      "type": "function"
    },
    {
      "inputs": [
        {
          "internalType": "address[]",
          "name": "_tokens",
          "type": "address[]"
        },
        {
          "internalType": "uint256[]",
          "name": "_USDTAmts",
          "type": "uint256[]"
        }
      ],
      "name": "invest",
      "outputs": [],
      "stateMutability": "nonpayable",
      "type": "function"
    },
    {
      "inputs": [],
      "name": "owner",
      "outputs": [
        {
          "internalType": "address",
          "name": "",
          "type": "address"
        }
      ],
      "stateMutability": "view",
      "type": "function"
    },
    {
      "inputs": [],
      "name": "paused",
      "outputs": [
        {
          "internalType": "bool",
          "name": "",
          "type": "bool"
        }
      ],
      "stateMutability": "view",
      "type": "function"
    },
    {
      "inputs": [
        {
          "internalType": "address",
          "name": "",
          "type": "address"
        }
      ],
      "name": "pid",
      "outputs": [
        {
          "internalType": "uint256",
          "name": "",
          "type": "uint256"
        }
      ],
      "stateMutability": "view",
      "type": "function"
    },
    {
      "inputs": [],
      "name": "priceOracle",
      "outputs": [
        {
          "internalType": "contract IPriceOracle",
          "name": "",
          "type": "address"
        }
      ],
      "stateMutability": "view",
      "type": "function"
    },
    {
      "inputs": [
        {
          "internalType": "address[]",
          "name": "_tokens",
          "type": "address[]"
        },
        {
          "internalType": "uint256[]",
          "name": "_USDTAmts",
          "type": "uint256[]"
        }
      ],
      "name": "reinvest",
      "outputs": [],
      "stateMutability": "nonpayable",
      "type": "function"
    },
    {
      "inputs": [
        {
          "internalType": "uint256",
          "name": "_pid",
          "type": "uint256"
        }
      ],
      "name": "removeToken",
      "outputs": [],
      "stateMutability": "nonpayable",
      "type": "function"
    },
    {
      "inputs": [],
      "name": "renounceOwnership",
      "outputs": [],
      "stateMutability": "nonpayable",
      "type": "function"
    },
    {
      "inputs": [
        {
          "internalType": "address",
          "name": "",
          "type": "address"
        },
        {
          "internalType": "uint256",
          "name": "",
          "type": "uint256"
        }
      ],
      "name": "reqId2Index",
      "outputs": [
        {
          "internalType": "uint256",
          "name": "",
          "type": "uint256"
        }
      ],
      "stateMutability": "view",
      "type": "function"
    },
    {
      "inputs": [],
      "name": "router",
      "outputs": [
        {
          "internalType": "contract IUniRouter",
          "name": "",
          "type": "address"
        }
      ],
      "stateMutability": "view",
      "type": "function"
    },
    {
      "inputs": [
        {
          "internalType": "address",
          "name": "_admin",
          "type": "address"
        }
      ],
      "name": "setAdmin",
      "outputs": [],
      "stateMutability": "nonpayable",
      "type": "function"
    },
    {
      "inputs": [
        {
          "internalType": "contract IStVault",
          "name": "_BNBVault",
          "type": "address"
        }
      ],
      "name": "setStVault",
      "outputs": [],
      "stateMutability": "nonpayable",
      "type": "function"
    },
    {
      "inputs": [
        {
          "internalType": "address",
          "name": "_vault",
          "type": "address"
        }
      ],
      "name": "setVault",
      "outputs": [],
      "stateMutability": "nonpayable",
      "type": "function"
    },
    {
      "inputs": [
        {
          "internalType": "uint256",
          "name": "",
          "type": "uint256"
        }
      ],
      "name": "tokens",
      "outputs": [
        {
          "internalType": "address",
          "name": "",
          "type": "address"
        }
      ],
      "stateMutability": "view",
      "type": "function"
    },
    {
      "inputs": [
        {
          "internalType": "address",
          "name": "newOwner",
          "type": "address"
        }
      ],
      "name": "transferOwnership",
      "outputs": [],
      "stateMutability": "nonpayable",
      "type": "function"
    },
    {
      "inputs": [],
      "name": "vault",
      "outputs": [
        {
          "internalType": "address",
          "name": "",
          "type": "address"
        }
      ],
      "stateMutability": "view",
      "type": "function"
    },
    {
      "inputs": [
        {
          "internalType": "address",
          "name": "_claimer",
          "type": "address"
        },
        {
          "internalType": "uint256",
          "name": "_sharePerc",
          "type": "uint256"
        }
      ],
      "name": "withdrawPerc",
      "outputs": [
        {
          "internalType": "uint256",
          "name": "USDTAmt",
          "type": "uint256"
        }
      ],
      "stateMutability": "nonpayable",
      "type": "function"
    },
    {
      "stateMutability": "payable",
      "type": "receive"
    }
  ],
  "transactionHash": "0xbc4018f42d06d82bb9506187d8952943d5487c7b39ed9f07f0ce60faf8c8aba3",
  "args": [],
  "numDeployments": 2,
  "solcInputHash": "aa8af62c39c4987602902032509083cd",
  "bytecode": "0x608060405234801561001057600080fd5b5061491e806100206000396000f3fe6080604052600436106102345760003560e01c80639b8608821161012e578063d48bfca7116100ab578063e66fa5dc1161006f578063e66fa5dc146106b9578063f2fde38b14610701578063f851a44014610721578063f887ea4014610741578063fbfa77cf1461076157600080fd5b8063d48bfca7146105ed578063d8274d0a1461060d578063d9e063271461063a578063da454e6114610672578063db2e21bc146106a457600080fd5b8063c378022c116100f2578063c378022c14610558578063c54e44eb14610578578063c89d5b8b14610598578063cc2a9a5b146105ad578063d38d5fc4146105cd57600080fd5b80639b860882146104c0578063aa6ca808146104e0578063aae0923614610502578063b47c6a2714610517578063bd244af41461054357600080fd5b806337771a64116101bc5780636817031b116101805780636817031b14610438578063704b6c0214610458578063715018a6146104785780638da5cb5b1461048d5780638eec5d70146104ab57600080fd5b806337771a64146103925780634631b246146103b25780634f64b2be146103d55780634fb02c95146103f55780635c975abb1461041557600080fd5b80632630c12f116102035780632630c12f146102da57806326b89b7114610312578063297d0e4c1461033257806330703f321461035257806336c5d7241461037257600080fd5b806309b056f81461024057806317e6cdba146102575780631e83409a1461028a57806325b074f6146102aa57600080fd5b3661023b57005b600080fd5b34801561024c57600080fd5b50610255610781565b005b34801561026357600080fd5b50610277610272366004613e66565b6107c0565b6040519081526020015b60405180910390f35b34801561029657600080fd5b506102776102a5366004613ea7565b6107fe565b3480156102b657600080fd5b506102bf61083a565b60408051938452602084019290925290820152606001610281565b3480156102e657600080fd5b50609c546102fa906001600160a01b031681565b6040516001600160a01b039091168152602001610281565b34801561031e57600080fd5b5061025561032d366004613f98565b610853565b34801561033e57600080fd5b5061025561034d366004613ea7565b61088b565b34801561035e57600080fd5b506098546102fa906001600160a01b031681565b34801561037e57600080fd5b5061025561038d366004614059565b6108d7565b34801561039e57600080fd5b5060c8546102fa906001600160a01b031681565b3480156103be57600080fd5b506103c7610ad0565b6040516102819291906140e6565b3480156103e157600080fd5b506102fa6103f0366004614059565b610c6f565b34801561040157600080fd5b506102bf610410366004613ea7565b610c99565b34801561042157600080fd5b5060335460ff166040519015158152602001610281565b34801561044457600080fd5b50610255610453366004613ea7565b610cb4565b34801561046457600080fd5b50610255610473366004613ea7565b610d45565b34801561048457600080fd5b50610255610d91565b34801561049957600080fd5b506065546001600160a01b03166102fa565b3480156104b757600080fd5b50609d54610277565b3480156104cc57600080fd5b506102556104db366004613f98565b610dc7565b3480156104ec57600080fd5b506104f5610df9565b6040516102819190614114565b34801561050e57600080fd5b506103c7610e5b565b34801561052357600080fd5b5061052c610ec8565b6040805192835260ff909116602083015201610281565b34801561054f57600080fd5b50610277610f52565b34801561056457600080fd5b50610255610573366004614127565b610fe4565b34801561058457600080fd5b506099546102fa906001600160a01b031681565b3480156105a457600080fd5b506102776110c9565b3480156105b957600080fd5b506102556105c8366004614172565b6111f8565b3480156105d957600080fd5b506102776105e83660046141f4565b611585565b3480156105f957600080fd5b50610255610608366004613ea7565b611664565b34801561061957600080fd5b50610277610628366004613ea7565b609e6020526000908152604090205481565b34801561064657600080fd5b506102776106553660046141f4565b60a060209081526000928352604080842090915290825290205481565b34801561067e57600080fd5b5061069261068d366004613ea7565b61189d565b60405161028196959493929190614220565b3480156106b057600080fd5b50610255611b58565b3480156106c557600080fd5b506106d96106d43660046141f4565b611bf9565b604080519586526020860194909452928401919091526060830152608082015260a001610281565b34801561070d57600080fd5b5061025561071c366004613ea7565b611e00565b34801561072d57600080fd5b50609a546102fa906001600160a01b031681565b34801561074d57600080fd5b506097546102fa906001600160a01b031681565b34801561076d57600080fd5b50609b546102fa906001600160a01b031681565b609b546001600160a01b031633146107b45760405162461bcd60e51b81526004016107ab906142a2565b60405180910390fd5b6107bd30611e98565b50565b609f60205282600052604060002060205281600052604060002081815481106107e857600080fd5b9060005260206000200160009250925050505481565b609b546000906001600160a01b0316331461082b5760405162461bcd60e51b81526004016107ab906142a2565b61083482611e98565b92915050565b600080600061084830611efa565b925092509250909192565b609b546001600160a01b0316331461087d5760405162461bcd60e51b81526004016107ab906142a2565b6108878282611f79565b5050565b6065546001600160a01b031633146108b55760405162461bcd60e51b81526004016107ab906142c6565b60c880546001600160a01b0319166001600160a01b0392909216919091179055565b6065546001600160a01b031633146109015760405162461bcd60e51b81526004016107ab906142c6565b609d548082106109415760405162461bcd60e51b815260206004820152600b60248201526a125b9d985b1a59081c1a5960aa1b60448201526064016107ab565b600061094c836120af565b905080156109905760405162461bcd60e51b8152602060048201526011602482015270506f6f6c206973206e6f7420656d70747960781b60448201526064016107ab565b6000609d84815481106109a5576109a56142fb565b6000918252602090912001546001600160a01b03169050609d6109c9600185614327565b815481106109d9576109d96142fb565b600091825260209091200154609d80546001600160a01b039092169186908110610a0557610a056142fb565b9060005260206000200160006101000a8154816001600160a01b0302191690836001600160a01b03160217905550609d805480610a4457610a4461433e565b60008281526020808220830160001990810180546001600160a01b03191690559092019092556001600160a01b0383168252609e90526040812055610a8761212f565b604080516001600160a01b0383168152602081018690527f67f5552e5abc48ba6305130450943fa23b76a0b6eb18c29d3eea39559139fc5a91015b60405180910390a150505050565b6060806000610add6121f8565b80519091506000805b82811015610b2757838181518110610b0057610b006142fb565b602002602001015182610b139190614354565b915080610b1f8161436c565b915050610ae6565b5060008215610b4157610b3c83612710614387565b610b44565b60005b9050826001600160401b03811115610b5e57610b5e613ec4565b604051908082528060200260200182016040528015610b87578160200160208202803683370190505b50945060005b83811015610c03578215610bd25782612710868381518110610bb157610bb16142fb565b6020026020010151610bc391906143a9565b610bcd9190614387565b610bd4565b815b868281518110610be657610be66142fb565b602090810291909101015280610bfb8161436c565b915050610b8d565b50609d8581805480602002602001604051908101604052809291908181526020018280548015610c5c57602002820191906000526020600020905b81546001600160a01b03168152600190910190602001808311610c3e575b5050505050915095509550505050509091565b609d8181548110610c7f57600080fd5b6000918252602090912001546001600160a01b0316905081565b6000806000610ca784611efa565b9250925092509193909250565b6065546001600160a01b03163314610cde5760405162461bcd60e51b81526004016107ab906142c6565b609b546001600160a01b031615610d235760405162461bcd60e51b815260206004820152600960248201526815985d5b1d081cd95d60ba1b60448201526064016107ab565b609b80546001600160a01b0319166001600160a01b0392909216919091179055565b6065546001600160a01b03163314610d6f5760405162461bcd60e51b81526004016107ab906142c6565b609a80546001600160a01b0319166001600160a01b0392909216919091179055565b6065546001600160a01b03163314610dbb5760405162461bcd60e51b81526004016107ab906142c6565b610dc5600061228a565b565b609b546001600160a01b03163314610df15760405162461bcd60e51b81526004016107ab906142a2565b61087d6122dc565b6060609d805480602002602001604051908101604052809291908181526020018280548015610e5157602002820191906000526020600020905b81546001600160a01b03168152600190910190602001808311610e33575b5050505050905090565b606080609d610e686121f8565b815460408051602080840282018101909252828152918491830182828015610eb957602002820191906000526020600020905b81546001600160a01b03168152600190910190602001808311610e9b575b50505050509150915091509091565b609c5460995460405163b3596f0760e01b81526001600160a01b0391821660048201526000928392169063b3596f0790602401604080518083038186803b158015610f1257600080fd5b505afa158015610f26573d6000803e3d6000fd5b505050506040513d601f19601f82011682018060405250810190610f4a91906143d9565b915091509091565b600080610f5d6121f8565b80519091506000805b82811015610fa757838181518110610f8057610f806142fb565b602002602001015182610f939190614354565b915080610f9f8161436c565b915050610f66565b5060335460ff1615610fdd57600080610fbe61083a565b509092509050610fce8183614354565b610fd89084614354565b925050505b9392505050565b6000610ff0600161236f565b90508015611008576000805461ff0019166101001790555b6110668484739ac64cc6e4415144c455bd8e4837fea55603e5c373ae13d989dac2f0debff460ac112a837c89baa7cd731f326a8ca5399418a76ea0efa0403cbb00790c6773eeeeeeeeeeeeeeeeeeeeeeeeeeeeeeeeeeeeeeee6111f8565b60c880546001600160a01b0319166001600160a01b03841617905580156110c3576000805461ff0019169055604051600181527f7f26b83ff96e1f2b6a682f133852f6798a09c465da95921460cefb384740249890602001610ac2565b50505050565b60008060006110d6610ad0565b81519193509150600090815b818110156111e257600061111c609d8381548110611102576111026142fb565b6000918252602090912001546001600160a01b03166123fc565b90506001600160a01b038116156111cf5784828151811061113f5761113f6142fb565b6020026020010151816001600160a01b031663c89d5b8b6040518163ffffffff1660e01b815260040160206040518083038186803b15801561118057600080fd5b505afa158015611194573d6000803e3d6000fd5b505050506040513d601f19601f820116820180604052508101906111b89190614405565b6111c291906143a9565b6111cc9085614354565b93505b50806111da8161436c565b9150506110e2565b506111ef61271083614387565b94505050505090565b6000611204600161236f565b9050801561121c576000805461ff0019166101001790555b6001600160a01b0385166112635760405162461bcd60e51b815260206004820152600e60248201526d24b73b30b634b2103937baba32b960911b60448201526064016107ab565b6001600160a01b0384166112b95760405162461bcd60e51b815260206004820152601760248201527f496e76616c696420535741505f424153455f544f4b454e00000000000000000060448201526064016107ab565b6001600160a01b0383166112fe5760405162461bcd60e51b815260206004820152600c60248201526b125b9d985b1a59081554d11560a21b60448201526064016107ab565b6001600160a01b0382166113455760405162461bcd60e51b815260206004820152600e60248201526d0496e76616c696420746f6b656e360941b60448201526064016107ab565b61134d612434565b609a80546001600160a01b03808a166001600160a01b031992831617909255609c805489841690831617905560978054888416908316179055609880548784169083161790556099805492861692909116821790556040805163313ce56760e01b8152905163313ce56791600481810192602092909190829003018186803b1580156113d857600080fd5b505afa1580156113ec573d6000803e3d6000fd5b505050506040513d601f19601f82011682018060405250810190611410919061441e565b6099805460ff60a01b1916600160a01b60ff938416810291909117918290556006910490911610156114845760405162461bcd60e51b815260206004820152601760248201527f5553445420646563696d616c73206d757374203e3d203600000000000000000060448201526064016107ab565b609d80546001810182556000919091527fd26e832454299e9fabb89e0e5fffdc046d4e14431bc1bf607ffb2e8a1ddecf7b0180546001600160a01b0319166001600160a01b0384161790556114d761212f565b6097546099546114f6916001600160a01b039182169116600019612463565b6001600160a01b03821673eeeeeeeeeeeeeeeeeeeeeeeeeeeeeeeeeeeeeeee1461153657609754611536906001600160a01b038481169116600019612463565b801561157c576000805461ff0019169055604051600181527f7f26b83ff96e1f2b6a682f133852f6798a09c465da95921460cefb38474024989060200160405180910390a15b50505050505050565b609b546000906001600160a01b031633146115b25760405162461bcd60e51b81526004016107ab906142a2565b670de0b6b3a76400008211156115f65760405162461bcd60e51b81526020600482015260096024820152684f766572203130302560b81b60448201526064016107ab565b61160083836125ba565b9050801561162557609b54609954611625916001600160a01b039182169116836125fb565b60408051838152602081018390527f56ca301a9219608c91e7bcee90e083c19671d2cdcc96752c7af291cee5f9c8c8910160405180910390a192915050565b6065546001600160a01b0316331461168e5760405162461bcd60e51b81526004016107ab906142c6565b6001600160a01b0381166000908152609e6020526040902054801580156116e05750609d6000815481106116c4576116c46142fb565b6000918252602090912001546001600160a01b03838116911614155b61171c5760405162461bcd60e51b815260206004820152600d60248201526c105b1c9958591e481859191959609a1b60448201526064016107ab565b609d80546001808201835560008390527fd26e832454299e9fabb89e0e5fffdc046d4e14431bc1bf607ffb2e8a1ddecf7b90910180546001600160a01b0319166001600160a01b03861617905590546117759190614327565b6001600160a01b0383166000818152609e6020526040902082905590915073eeeeeeeeeeeeeeeeeeeeeeeeeeeeeeeeeeeeeeee148015906118365750609754604051636eb1769f60e11b81523060048201526001600160a01b0391821660248201529083169063dd62ed3e9060440160206040518083038186803b1580156117fc57600080fd5b505afa158015611810573d6000803e3d6000fd5b505050506040513d601f19601f820116820180604052508101906118349190614405565b155b1561185757609754611857906001600160a01b038481169116600019612463565b604080516001600160a01b0384168152602081018390527fe1bea1af9b1d1aede8b7fa043080de8690470a8ae61449360b3d0c0bf8104b46910160405180910390a15050565b6060806060806060806000609d805490509050806001600160401b038111156118c8576118c8613ec4565b6040519080825280602002602001820160405280156118f1578160200160208202803683370190505b509550806001600160401b0381111561190c5761190c613ec4565b604051908082528060200260200182016040528015611935578160200160208202803683370190505b509450806001600160401b0381111561195057611950613ec4565b604051908082528060200260200182016040528015611979578160200160208202803683370190505b509350806001600160401b0381111561199457611994613ec4565b6040519080825280602002602001820160405280156119bd578160200160208202803683370190505b509250806001600160401b038111156119d8576119d8613ec4565b604051908082528060200260200182016040528015611a01578160200160208202803683370190505b50915060005b81811015611ade576000806000806000611a218e87611bf9565b94509450945094509450848c8781518110611a3e57611a3e6142fb565b602002602001018181525050838b8781518110611a5d57611a5d6142fb565b602002602001018181525050828a8781518110611a7c57611a7c6142fb565b60200260200101818152505081898781518110611a9b57611a9b6142fb565b60200260200101818152505080888781518110611aba57611aba6142fb565b60200260200101818152505050505050508080611ad69061436c565b915050611a07565b50609d868686868685805480602002602001604051908101604052809291908181526020018280548015611b3b57602002820191906000526020600020905b81546001600160a01b03168152600190910190602001808311611b1d575b505050505095509650965096509650965096505091939550919395565b609b546001600160a01b03163314611b825760405162461bcd60e51b81526004016107ab906142a2565b611b8a61262b565b6000611b9e30670de0b6b3a76400006125ba565b90508015611bc357609b54609954611bc3916001600160a01b039182169116836125fb565b6040518181527f99d7f8b71cfb9126984f7a5eed3a40e64a8959e9b0e442221546fb04ec6a489c9060200160405180910390a150565b6000806000806000609d80549050861015611df6576000609d8781548110611c2357611c236142fb565b60009182526020822001546001600160a01b03169150611c42826123fc565b90506001600160a01b03811615611df3576001600160a01b038083166000908152609f60209081526040808320938d16835292815282822080548451818402810184019095528085529293929091830182828015611cbf57602002820191906000526020600020905b815481526020019060010190808311611cab575b5050505050905060005b8151811015611dca576000828281518110611ce657611ce66142fb565b602002602001015190506000806000866001600160a01b031663cc0fe4a4856040518263ffffffff1660e01b8152600401611d2391815260200190565b60a06040518083038186803b158015611d3b57600080fd5b505afa158015611d4f573d6000803e3d6000fd5b505050506040513d601f19601f82011682018060405250810190611d739190614449565b94505050925092508215611d9257611d8b828c614354565b9a50611db3565b611d9c828e614354565b9c50881580611daa57508089115b15611db3578098505b505050508080611dc29061436c565b915050611cc9565b508715611dde57611ddb83896126a6565b96505b8515611df157611dee83876126a6565b94505b505b50505b9295509295909350565b6065546001600160a01b03163314611e2a5760405162461bcd60e51b81526004016107ab906142c6565b6001600160a01b038116611e8f5760405162461bcd60e51b815260206004820152602660248201527f4f776e61626c653a206e6577206f776e657220697320746865207a65726f206160448201526564647265737360d01b60648201526084016107ab565b6107bd8161228a565b609d54600090815b81811015611ed057611eb28482612773565b611ebc9084614354565b925080611ec88161436c565b915050611ea0565b508115611ef457609b54609954611ef4916001600160a01b039182169116846125fb565b50919050565b609d5460009081908190815b81811015611f70576000806000611f1d8985611bf9565b94509450509350508288611f319190614354565b9750611f3d8288614354565b96508715611f5a57851580611f5157508086115b15611f5a578095505b5050508080611f689061436c565b915050611f06565b50509193909250565b8151609d5460009081906001600160401b03811115611f9a57611f9a613ec4565b604051908082528060200260200182016040528015611fc3578160200160208202803683370190505b50905060005b83811015612080576000858281518110611fe557611fe56142fb565b602002602001015190508084611ffb9190614354565b93506000609e6000898581518110612015576120156142fb565b60200260200101516001600160a01b03166001600160a01b0316815260200190815260200160002054905081848281518110612053576120536142fb565b602002602001018181516120679190614354565b90525082915061207890508161436c565b915050611fc9565b50609b5460995461209f916001600160a01b0391821691163085612a03565b6120a881612a3b565b5050505050565b600080609d83815481106120c5576120c56142fb565b60009182526020822001546001600160a01b031691506120e4826123fc565b90506001600160a01b03811615612105576120fe81612d79565b9250612128565b60006121118330612f01565b905080156121265761212383826126a6565b93505b505b5050919050565b6000609d80548060200260200160405190810160405280929190818152602001828054801561218757602002820191906000526020600020905b81546001600160a01b03168152600190910190602001808311612169575b505083519394506000925050505b818110156121f35780609e60008584815181106121b4576121b46142fb565b60200260200101516001600160a01b03166001600160a01b031681526020019081526020016000208190555080806121eb9061436c565b915050612195565b505050565b609d54606090806001600160401b0381111561221657612216613ec4565b60405190808252806020026020018201604052801561223f578160200160208202803683370190505b50915060005b8181101561228557612256816120af565b838281518110612268576122686142fb565b60209081029190910101528061227d8161436c565b915050612245565b505090565b606580546001600160a01b038381166001600160a01b0319831681179093556040519116919082907f8be0079c531659141344cd1fd0a4f28419497f9722a3daafe3b4186f6b6457e090600090a35050565b60335460ff166123255760405162461bcd60e51b815260206004820152601460248201527314185d5cd8589b194e881b9bdd081c185d5cd95960621b60448201526064016107ab565b6033805460ff191690557f5db9ee0a495bf2e6ff9c91a7834c1ba4fdd244a5e8aa4e537bd38aeae4b073aa335b6040516001600160a01b03909116815260200160405180910390a1565b60008054610100900460ff16156123b6578160ff1660011480156123925750303b155b6123ae5760405162461bcd60e51b81526004016107ab90614490565b506000919050565b60005460ff8084169116106123dd5760405162461bcd60e51b81526004016107ab90614490565b506000805460ff191660ff92909216919091179055600190565b919050565b60006001600160a01b03821673eeeeeeeeeeeeeeeeeeeeeeeeeeeeeeeeeeeeeeee14156123f757505060c8546001600160a01b031690565b600054610100900460ff1661245b5760405162461bcd60e51b81526004016107ab906144de565b610dc5612fb1565b8015806124ec5750604051636eb1769f60e11b81523060048201526001600160a01b03838116602483015284169063dd62ed3e9060440160206040518083038186803b1580156124b257600080fd5b505afa1580156124c6573d6000803e3d6000fd5b505050506040513d601f19601f820116820180604052508101906124ea9190614405565b155b6125575760405162461bcd60e51b815260206004820152603660248201527f5361666545524332303a20617070726f76652066726f6d206e6f6e2d7a65726f60448201527520746f206e6f6e2d7a65726f20616c6c6f77616e636560501b60648201526084016107ab565b6040516001600160a01b0383166024820152604481018290526121f390849063095ea7b360e01b906064015b60408051601f198184030181529190526020810180516001600160e01b03166001600160e01b031990931692909217909152612fe1565b609d54600090815b818110156125f3576125d58582866130b3565b6125df9084614354565b9250806125eb8161436c565b9150506125c2565b505092915050565b6040516001600160a01b0383166024820152604481018290526121f390849063a9059cbb60e01b90606401612583565b60335460ff16156126715760405162461bcd60e51b815260206004820152601060248201526f14185d5cd8589b194e881c185d5cd95960821b60448201526064016107ab565b6033805460ff191660011790557f62e78cea01bee320cd4e420270b5ea74000d11b0c9f74754ebdbfc544b05a2586123523390565b609c5460405163b3596f0760e01b81526001600160a01b038481166004830152600092839283929091169063b3596f0790602401604080518083038186803b1580156126f157600080fd5b505afa158015612705573d6000803e3d6000fd5b505050506040513d601f19601f8201168201806040525081019061272991906143d9565b915091506000612738866131b0565b905061274582600a614605565b83612755878460ff166012613254565b61275f91906143a9565b6127699190614387565b9695505050505050565b600080609d8381548110612789576127896142fb565b60009182526020822001546001600160a01b031691506127a8826123fc565b90506001600160a01b038116156125f3576001600160a01b038083166000908152609f6020908152604080832093891683529281528282208054845181840281018401909552808552929392909183018282801561282557602002820191906000526020600020905b815481526020019060010190808311612811575b505050505090506000806000846001600160a01b031663e4717f6a856040518263ffffffff1660e01b815260040161285d9190614614565b600060405180830381600087803b15801561287757600080fd5b505af115801561288b573d6000803e3d6000fd5b505050506040513d6000823e601f3d908101601f191682016040526128b39190810190614627565b9194509250905082156129f7576000826001600160401b038111156128da576128da613ec4565b604051908082528060200260200182016040528015612903578160200160208202803683370190505b5090506000805b865181101561298957838181518110612925576129256142fb565b60200260200101511561297757868181518110612944576129446142fb565b60200260200101518383806129589061436c565b94508151811061296a5761296a6142fb565b6020026020010181815250505b806129818161436c565b91505061290a565b50612995888c846132b2565b61299f8886613427565b604080516001600160a01b03808f1682528b166020820152908101879052606081018290529099507f865ca08d59f5cb456e85cd2f7ef63664ea4f73327414e9d8152c4158b0e946459060800160405180910390a150505b50505050505092915050565b6040516001600160a01b03808516602483015283166044820152606481018290526110c39085906323b872dd60e01b90608401612583565b805160005b818110156121f3576000838281518110612a5c57612a5c6142fb565b602002602001015190508060001415612a755750612d67565b6000609d8381548110612a8a57612a8a6142fb565b60009182526020822001546099546001600160a01b039182169350168214612c6a57600080612ab7610ec8565b609c5460405163b3596f0760e01b81526001600160a01b038881166004830152939550919350600092839291169063b3596f0790602401604080518083038186803b158015612b0557600080fd5b505afa158015612b19573d6000803e3d6000fd5b505050506040513d601f19601f82011682018060405250810190612b3d91906143d9565b915091506000612b4c876131b0565b90506000612b5a82846146d3565b612b6590600a614605565b612b6f90876143a9565b609954909150600090612b8c90600160a01b900460ff16876146d3565b612b9790600a614605565b612ba190866143a9565b90506000612bb08260646143a9565b612bba848d6143a9565b612bc59060556143a9565b612bcf9190614387565b90506001600160a01b038a1673eeeeeeeeeeeeeeeeeeeeeeeeeeeeeeeeeeeeeeee1415612c1457609954612c0d906001600160a01b03168c836135ea565b9850612c5d565b6098546001600160a01b038b811691161415612c4257609954612c0d906001600160a01b03168b8d84613713565b609954612c5a906001600160a01b03168b8d84613840565b98505b5050505050505050612c6d565b50815b6000612c78836123fc565b90506001600160a01b03811615612d62576001600160a01b03831673eeeeeeeeeeeeeeeeeeeeeeeeeeeeeeeeeeeeeeee1415612d0757806001600160a01b031663f6326fb3836040518263ffffffff1660e01b81526004016000604051808303818588803b158015612ce957600080fd5b505af1158015612cfd573d6000803e3d6000fd5b5050505050612d62565b60405163b6b55f2560e01b8152600481018390526001600160a01b0382169063b6b55f2590602401600060405180830381600087803b158015612d4957600080fd5b505af1158015612d5d573d6000803e3d6000fd5b505050505b505050505b80612d718161436c565b915050612a40565b600080826001600160a01b03166318160ddd6040518163ffffffff1660e01b815260040160206040518083038186803b158015612db557600080fd5b505afa158015612dc9573d6000803e3d6000fd5b505050506040513d601f19601f82011682018060405250810190612ded9190614405565b90508015612ef8576040516370a0823160e01b815230600482015281906001600160a01b038516906370a082319060240160206040518083038186803b158015612e3657600080fd5b505afa158015612e4a573d6000803e3d6000fd5b505050506040513d601f19601f82011682018060405250810190612e6e9190614405565b846001600160a01b031663bd244af46040518163ffffffff1660e01b815260040160206040518083038186803b158015612ea757600080fd5b505afa158015612ebb573d6000803e3d6000fd5b505050506040513d601f19601f82011682018060405250810190612edf9190614405565b612ee991906143a9565b612ef39190614387565b610fdd565b60009392505050565b60006001600160a01b03831673eeeeeeeeeeeeeeeeeeeeeeeeeeeeeeeeeeeeeeee1415612f3857816001600160a01b031631610fdd565b6040516370a0823160e01b81526001600160a01b0383811660048301528416906370a082319060240160206040518083038186803b158015612f7957600080fd5b505afa158015612f8d573d6000803e3d6000fd5b505050506040513d601f19601f82011682018060405250810190610fdd9190614405565b600054610100900460ff16612fd85760405162461bcd60e51b81526004016107ab906144de565b610dc53361228a565b6000613036826040518060400160405280602081526020017f5361666545524332303a206c6f772d6c6576656c2063616c6c206661696c6564815250856001600160a01b031661398c9092919063ffffffff16565b8051909150156121f3578080602001905181019061305491906146f8565b6121f35760405162461bcd60e51b815260206004820152602a60248201527f5361666545524332303a204552433230206f7065726174696f6e20646964206e6044820152691bdd081cdd58d8d9595960b21b60648201526084016107ab565b600080609d84815481106130c9576130c96142fb565b60009182526020822001546001600160a01b031691506130e8826123fc565b90506001600160a01b0381161561314857600061310582866139a3565b9094509050801561314257613142609d8781548110613126576131266142fb565b6000918252602090912001546001600160a01b03168883613b5b565b506131a7565b6000670de0b6b3a76400008561315e8530612f01565b61316891906143a9565b6131729190614387565b905080156131a5576099546001600160a01b0384811691161415613198578093506131a5565b6131a28382613427565b93505b505b50509392505050565b60006001600160a01b03821673eeeeeeeeeeeeeeeeeeeeeeeeeeeeeeeeeeeeeeee1461324c57816001600160a01b031663313ce5676040518163ffffffff1660e01b815260040160206040518083038186803b15801561320f57600080fd5b505afa158015613223573d6000803e3d6000fd5b505050506040513d601f19601f82011682018060405250810190613247919061441e565b610834565b601292915050565b600081831415613265575082610fdd565b81831015613293576132778383614327565b61328290600a614713565b61328c90856143a9565b9050610fdd565b61329d8284614327565b6132a890600a614713565b61328c9085614387565b6001600160a01b038084166000908152609f602090815260408083209386168352929052908120805490915b835181101561341f5760008482815181106132fb576132fb6142fb565b6020908102919091018101516001600160a01b038916600090815260a0835260408082208383529093529190912054909150613338600185614327565b81146133ae5760008561334c600187614327565b8154811061335c5761335c6142fb565b906000526020600020015490508086838154811061337c5761337c6142fb565b60009182526020808320909101929092556001600160a01b038b16815260a08252604080822093825292909152208190555b848054806133be576133be61433e565b6001900381819060005260206000200160009055905583806133df9061471f565b6001600160a01b038a16600090815260a06020908152604080832096835295905293842093909355509092508190506134178161436c565b9150506132de565b505050505050565b6000806000613434610ec8565b609c5460405163b3596f0760e01b81526001600160a01b038981166004830152939550919350600092839291169063b3596f0790602401604080518083038186803b15801561348257600080fd5b505afa158015613496573d6000803e3d6000fd5b505050506040513d601f19601f820116820180604052508101906134ba91906143d9565b9150915060006134c9886131b0565b6099549091506000906134e690600160a01b900460ff16866146d3565b6134f190600a614605565b6134fb90856143a9565b9050600061350983856146d3565b61351490600a614605565b61351e90886143a9565b9050600061352d8260646143a9565b613537848c6143a9565b6135429060556143a9565b61354c9190614387565b90506001600160a01b038b1673eeeeeeeeeeeeeeeeeeeeeeeeeeeeeeeeeeeeeeee14156135915760995461358a906001600160a01b03168b83613bd3565b98506135dc565b6098546001600160a01b038c8116911614156135c05760995461358a908c906001600160a01b03168c84613713565b6099546135d9908c906001600160a01b03168c84613840565b98505b505050505050505092915050565b604080516002808252606082018352600092839291906020830190803683370190505090508481600081518110613623576136236142fb565b6001600160a01b039283166020918202929092010152609854825191169082906001908110613654576136546142fb565b6001600160a01b0392831660209182029290920101526097546040516318cbafe560e01b81529116906318cbafe5906136999087908790869030904290600401614736565b600060405180830381600087803b1580156136b357600080fd5b505af11580156136c7573d6000803e3d6000fd5b505050506040513d6000823e601f3d908101601f191682016040526136ef9190810190614772565b600181518110613701576137016142fb565b60200260200101519150509392505050565b60408051600280825260608201835260009283929190602083019080368337019050509050858160008151811061374c5761374c6142fb565b60200260200101906001600160a01b031690816001600160a01b0316815250508481600181518110613780576137806142fb565b6001600160a01b0392831660209182029290920101526097546040516338ed173960e01b81529116906338ed1739906137c59087908790869030904290600401614736565b600060405180830381600087803b1580156137df57600080fd5b505af11580156137f3573d6000803e3d6000fd5b505050506040513d6000823e601f3d908101601f1916820160405261381b9190810190614772565b60018151811061382d5761382d6142fb565b6020026020010151915050949350505050565b6040805160038082526080820190925260009182919060208201606080368337019050509050858160008151811061387a5761387a6142fb565b6001600160a01b0392831660209182029290920101526098548251911690829060019081106138ab576138ab6142fb565b60200260200101906001600160a01b031690816001600160a01b03168152505084816002815181106138df576138df6142fb565b6001600160a01b0392831660209182029290920101526097546040516338ed173960e01b81529116906338ed1739906139249087908790869030904290600401614736565b600060405180830381600087803b15801561393e57600080fd5b505af1158015613952573d6000803e3d6000fd5b505050506040513d6000823e601f3d908101601f1916820160405261397a9190810190614772565b60028151811061382d5761382d6142fb565b606061399b8484600085613ce7565b949350505050565b6040516370a0823160e01b815230600482015260009081908190670de0b6b3a76400009085906001600160a01b038816906370a082319060240160206040518083038186803b1580156139f557600080fd5b505afa158015613a09573d6000803e3d6000fd5b505050506040513d601f19601f82011682018060405250810190613a2d9190614405565b613a3791906143a9565b613a419190614387565b90508015613b5357604051632e1a7d4d60e01b81526004810182905260009081906001600160a01b03881690632e1a7d4d906024016040805180830381600087803b158015613a8f57600080fd5b505af1158015613aa3573d6000803e3d6000fd5b505050506040513d601f19601f82011682018060405250810190613ac791906147f7565b90925090508115613b4f57613b4c876001600160a01b031663fc0c546a6040518163ffffffff1660e01b815260040160206040518083038186803b158015613b0e57600080fd5b505afa158015613b22573d6000803e3d6000fd5b505050506040513d601f19601f82011682018060405250810190613b46919061481b565b83613427565b94505b9250505b509250929050565b6001600160a01b038084166000908152609f6020908152604080832093861683529281529181208054600181810183558284529390922090910183905580549091613ba591614327565b6001600160a01b03909416600090815260a06020908152604080832094835293905291909120929092555050565b60408051600280825260608201835260009283929190602083019080368337505060985482519293506001600160a01b031691839150600090613c1857613c186142fb565b60200260200101906001600160a01b031690816001600160a01b0316815250508481600181518110613c4c57613c4c6142fb565b6001600160a01b039283166020918202929092010152609754604051637ff36ab560e01b8152911690637ff36ab5908690613c91908790869030904290600401614838565b6000604051808303818588803b158015613caa57600080fd5b505af1158015613cbe573d6000803e3d6000fd5b50505050506040513d6000823e601f3d908101601f191682016040526136ef9190810190614772565b606082471015613d485760405162461bcd60e51b815260206004820152602660248201527f416464726573733a20696e73756666696369656e742062616c616e636520666f6044820152651c8818d85b1b60d21b60648201526084016107ab565b6001600160a01b0385163b613d9f5760405162461bcd60e51b815260206004820152601d60248201527f416464726573733a2063616c6c20746f206e6f6e2d636f6e747261637400000060448201526064016107ab565b600080866001600160a01b03168587604051613dbb9190614899565b60006040518083038185875af1925050503d8060008114613df8576040519150601f19603f3d011682016040523d82523d6000602084013e613dfd565b606091505b5091509150613e0d828286613e18565b979650505050505050565b60608315613e27575081610fdd565b825115613e375782518084602001fd5b8160405162461bcd60e51b81526004016107ab91906148b5565b6001600160a01b03811681146107bd57600080fd5b600080600060608486031215613e7b57600080fd5b8335613e8681613e51565b92506020840135613e9681613e51565b929592945050506040919091013590565b600060208284031215613eb957600080fd5b8135610fdd81613e51565b634e487b7160e01b600052604160045260246000fd5b604051601f8201601f191681016001600160401b0381118282101715613f0257613f02613ec4565b604052919050565b60006001600160401b03821115613f2357613f23613ec4565b5060051b60200190565b600082601f830112613f3e57600080fd5b81356020613f53613f4e83613f0a565b613eda565b82815260059290921b84018101918181019086841115613f7257600080fd5b8286015b84811015613f8d5780358352918301918301613f76565b509695505050505050565b60008060408385031215613fab57600080fd5b82356001600160401b0380821115613fc257600080fd5b818501915085601f830112613fd657600080fd5b81356020613fe6613f4e83613f0a565b82815260059290921b8401810191818101908984111561400557600080fd5b948201945b8386101561402c57853561401d81613e51565b8252948201949082019061400a565b9650508601359250508082111561404257600080fd5b5061404f85828601613f2d565b9150509250929050565b60006020828403121561406b57600080fd5b5035919050565b600081518084526020808501945080840160005b838110156140ab5781516001600160a01b031687529582019590820190600101614086565b509495945050505050565b600081518084526020808501945080840160005b838110156140ab578151875295820195908201906001016140ca565b6040815260006140f96040830185614072565b828103602084015261410b81856140b6565b95945050505050565b602081526000610fdd6020830184614072565b60008060006060848603121561413c57600080fd5b833561414781613e51565b9250602084013561415781613e51565b9150604084013561416781613e51565b809150509250925092565b60008060008060008060c0878903121561418b57600080fd5b863561419681613e51565b955060208701356141a681613e51565b945060408701356141b681613e51565b935060608701356141c681613e51565b925060808701356141d681613e51565b915060a08701356141e681613e51565b809150509295509295509295565b6000806040838503121561420757600080fd5b823561421281613e51565b946020939093013593505050565b60c08152600061423360c0830189614072565b828103602084015261424581896140b6565b9050828103604084015261425981886140b6565b9050828103606084015261426d81876140b6565b9050828103608084015261428181866140b6565b905082810360a084015261429581856140b6565b9998505050505050505050565b6020808252600a908201526913db9b1e481d985d5b1d60b21b604082015260600190565b6020808252818101527f4f776e61626c653a2063616c6c6572206973206e6f7420746865206f776e6572604082015260600190565b634e487b7160e01b600052603260045260246000fd5b634e487b7160e01b600052601160045260246000fd5b60008282101561433957614339614311565b500390565b634e487b7160e01b600052603160045260246000fd5b6000821982111561436757614367614311565b500190565b600060001982141561438057614380614311565b5060010190565b6000826143a457634e487b7160e01b600052601260045260246000fd5b500490565b60008160001904831182151516156143c3576143c3614311565b500290565b805160ff811681146123f757600080fd5b600080604083850312156143ec57600080fd5b825191506143fc602084016143c8565b90509250929050565b60006020828403121561441757600080fd5b5051919050565b60006020828403121561443057600080fd5b610fdd826143c8565b805180151581146123f757600080fd5b600080600080600060a0868803121561446157600080fd5b61446a86614439565b602087015160408801516060890151608090990151929a91995097965090945092505050565b6020808252602e908201527f496e697469616c697a61626c653a20636f6e747261637420697320616c72656160408201526d191e481a5b9a5d1a585b1a5e995960921b606082015260800190565b6020808252602b908201527f496e697469616c697a61626c653a20636f6e7472616374206973206e6f74206960408201526a6e697469616c697a696e6760a81b606082015260800190565b600181815b80851115613b5357816000190482111561454a5761454a614311565b8085161561455757918102915b93841c939080029061452e565b60008261457357506001610834565b8161458057506000610834565b816001811461459657600281146145a0576145bc565b6001915050610834565b60ff8411156145b1576145b1614311565b50506001821b610834565b5060208310610133831016604e8410600b84101617156145df575081810a610834565b6145e98383614529565b80600019048211156145fd576145fd614311565b029392505050565b6000610fdd60ff841683614564565b602081526000610fdd60208301846140b6565b60008060006060848603121561463c57600080fd5b83519250602080850151925060408501516001600160401b0381111561466157600080fd5b8501601f8101871361467257600080fd5b8051614680613f4e82613f0a565b81815260059190911b8201830190838101908983111561469f57600080fd5b928401925b828410156146c4576146b584614439565b825292840192908401906146a4565b80955050505050509250925092565b600060ff821660ff84168060ff038211156146f0576146f0614311565b019392505050565b60006020828403121561470a57600080fd5b610fdd82614439565b6000610fdd8383614564565b60008161472e5761472e614311565b506000190190565b85815284602082015260a06040820152600061475560a0830186614072565b6001600160a01b0394909416606083015250608001529392505050565b6000602080838503121561478557600080fd5b82516001600160401b0381111561479b57600080fd5b8301601f810185136147ac57600080fd5b80516147ba613f4e82613f0a565b81815260059190911b820183019083810190878311156147d957600080fd5b928401925b82841015613e0d578351825292840192908401906147de565b6000806040838503121561480a57600080fd5b505080516020909101519092909150565b60006020828403121561482d57600080fd5b8151610fdd81613e51565b8481526080602082015260006148516080830186614072565b6001600160a01b03949094166040830152506060015292915050565b60005b83811015614888578181015183820152602001614870565b838111156110c35750506000910152565b600082516148ab81846020870161486d565b9190910192915050565b60208152600082518060208401526148d481604085016020870161486d565b601f01601f1916919091016040019291505056fea2646970667358221220767f5ec6d2b52f53e2b533ffc12ee267e9b6d5b8c141d0be4e6207ca4bb5156c64736f6c63430008090033",
  "devdoc": {
    "kind": "dev",
    "methods": {
      "getPoolUnbonded(address,uint256)": {
        "returns": {
          "unbonded": "is token amount that is unbonded.",
          "unbondedInUSD": "is USD value of token amount that is unbonded.",
          "waitForTs": "is timestamp to wait to the next claim.",
          "waiting": "is token amount that is not unbonded.",
          "waitingInUSD": "is USD value of token amount that is not unbonded."
        }
      },
      "getUSDTPriceInUSD()": {
        "returns": {
          "_0": "the price of USDT in USD."
        }
      },
      "invest(address[],uint256[])": {
        "params": {
          "_USDTAmts": "amounts of USDT should be deposited to each pools. They have been denominated in USDT decimals"
        }
      },
      "owner()": {
        "details": "Returns the address of the current owner."
      },
      "paused()": {
        "details": "Returns true if the contract is paused, and false otherwise."
      },
      "reinvest(address[],uint256[])": {
        "params": {
          "_USDTAmts": "amounts of USDT should be deposited to each pools. They have been denominated in USDT decimals"
        }
      },
      "renounceOwnership()": {
        "details": "Leaves the contract without owner. It will not be possible to call `onlyOwner` functions anymore. Can only be called by the current owner. NOTE: Renouncing ownership will leave the contract without an owner, thereby removing any functionality that is only available to the owner."
      },
      "transferOwnership(address)": {
        "details": "Transfers ownership of the contract to a new account (`newOwner`). Can only be called by the current owner."
      }
    },
    "version": 1
  },
  "userdoc": {
    "kind": "user",
    "methods": {},
    "version": 1
  },
  "storageLayout": {
    "storage": [
      {
        "astId": 713,
        "contract": "contracts/sti/strategy/BscSTIStrategyTest.sol:BscSTIStrategyTest",
        "label": "_initialized",
        "offset": 0,
        "slot": "0",
        "type": "t_uint8"
      },
      {
        "astId": 716,
        "contract": "contracts/sti/strategy/BscSTIStrategyTest.sol:BscSTIStrategyTest",
        "label": "_initializing",
        "offset": 1,
        "slot": "0",
        "type": "t_bool"
      },
      {
        "astId": 3292,
        "contract": "contracts/sti/strategy/BscSTIStrategyTest.sol:BscSTIStrategyTest",
        "label": "__gap",
        "offset": 0,
        "slot": "1",
        "type": "t_array(t_uint256)50_storage"
      },
      {
        "astId": 869,
        "contract": "contracts/sti/strategy/BscSTIStrategyTest.sol:BscSTIStrategyTest",
        "label": "_paused",
        "offset": 0,
        "slot": "51",
        "type": "t_bool"
      },
      {
        "astId": 958,
        "contract": "contracts/sti/strategy/BscSTIStrategyTest.sol:BscSTIStrategyTest",
        "label": "__gap",
        "offset": 0,
        "slot": "52",
        "type": "t_array(t_uint256)49_storage"
      },
      {
        "astId": 593,
        "contract": "contracts/sti/strategy/BscSTIStrategyTest.sol:BscSTIStrategyTest",
        "label": "_owner",
        "offset": 0,
        "slot": "101",
        "type": "t_address"
      },
      {
        "astId": 705,
        "contract": "contracts/sti/strategy/BscSTIStrategyTest.sol:BscSTIStrategyTest",
        "label": "__gap",
        "offset": 0,
        "slot": "102",
        "type": "t_array(t_uint256)49_storage"
      },
      {
        "astId": 49100,
        "contract": "contracts/sti/strategy/BscSTIStrategyTest.sol:BscSTIStrategyTest",
        "label": "router",
        "offset": 0,
        "slot": "151",
        "type": "t_contract(IUniRouter)66445"
      },
      {
        "astId": 49103,
        "contract": "contracts/sti/strategy/BscSTIStrategyTest.sol:BscSTIStrategyTest",
        "label": "SWAP_BASE_TOKEN",
        "offset": 0,
        "slot": "152",
        "type": "t_contract(IERC20UpgradeableExt)65868"
      },
      {
        "astId": 49106,
        "contract": "contracts/sti/strategy/BscSTIStrategyTest.sol:BscSTIStrategyTest",
        "label": "USDT",
        "offset": 0,
        "slot": "153",
        "type": "t_contract(IERC20UpgradeableExt)65868"
      },
      {
        "astId": 49108,
        "contract": "contracts/sti/strategy/BscSTIStrategyTest.sol:BscSTIStrategyTest",
        "label": "usdtDecimals",
        "offset": 20,
        "slot": "153",
        "type": "t_uint8"
      },
      {
        "astId": 49110,
        "contract": "contracts/sti/strategy/BscSTIStrategyTest.sol:BscSTIStrategyTest",
        "label": "admin",
        "offset": 0,
        "slot": "154",
        "type": "t_address"
      },
      {
        "astId": 49112,
        "contract": "contracts/sti/strategy/BscSTIStrategyTest.sol:BscSTIStrategyTest",
        "label": "vault",
        "offset": 0,
        "slot": "155",
        "type": "t_address"
      },
      {
        "astId": 49115,
        "contract": "contracts/sti/strategy/BscSTIStrategyTest.sol:BscSTIStrategyTest",
        "label": "priceOracle",
        "offset": 0,
        "slot": "156",
        "type": "t_contract(IPriceOracle)11910"
      },
      {
        "astId": 49118,
        "contract": "contracts/sti/strategy/BscSTIStrategyTest.sol:BscSTIStrategyTest",
        "label": "tokens",
        "offset": 0,
        "slot": "157",
        "type": "t_array(t_address)dyn_storage"
      },
      {
        "astId": 49122,
        "contract": "contracts/sti/strategy/BscSTIStrategyTest.sol:BscSTIStrategyTest",
        "label": "pid",
        "offset": 0,
        "slot": "158",
        "type": "t_mapping(t_address,t_uint256)"
      },
      {
        "astId": 49129,
        "contract": "contracts/sti/strategy/BscSTIStrategyTest.sol:BscSTIStrategyTest",
        "label": "claimer2ReqIds",
        "offset": 0,
        "slot": "159",
        "type": "t_mapping(t_address,t_mapping(t_address,t_array(t_uint256)dyn_storage))"
      },
      {
        "astId": 49135,
        "contract": "contracts/sti/strategy/BscSTIStrategyTest.sol:BscSTIStrategyTest",
        "label": "reqId2Index",
        "offset": 0,
        "slot": "160",
        "type": "t_mapping(t_address,t_mapping(t_uint256,t_uint256))"
      },
      {
        "astId": 51815,
        "contract": "contracts/sti/strategy/BscSTIStrategyTest.sol:BscSTIStrategyTest",
        "label": "__gap",
        "offset": 0,
        "slot": "161",
        "type": "t_array(t_uint256)39_storage"
      },
      {
        "astId": 54442,
        "contract": "contracts/sti/strategy/BscSTIStrategyTest.sol:BscSTIStrategyTest",
        "label": "BNBVault",
        "offset": 0,
        "slot": "200",
        "type": "t_contract(IStVault)66209"
      }
    ],
    "types": {
      "t_address": {
        "encoding": "inplace",
        "label": "address",
        "numberOfBytes": "20"
      },
      "t_array(t_address)dyn_storage": {
        "base": "t_address",
        "encoding": "dynamic_array",
        "label": "address[]",
        "numberOfBytes": "32"
      },
      "t_array(t_uint256)39_storage": {
        "base": "t_uint256",
        "encoding": "inplace",
        "label": "uint256[39]",
        "numberOfBytes": "1248"
      },
      "t_array(t_uint256)49_storage": {
        "base": "t_uint256",
        "encoding": "inplace",
        "label": "uint256[49]",
        "numberOfBytes": "1568"
      },
      "t_array(t_uint256)50_storage": {
        "base": "t_uint256",
        "encoding": "inplace",
        "label": "uint256[50]",
        "numberOfBytes": "1600"
      },
      "t_array(t_uint256)dyn_storage": {
        "base": "t_uint256",
        "encoding": "dynamic_array",
        "label": "uint256[]",
        "numberOfBytes": "32"
      },
      "t_bool": {
        "encoding": "inplace",
        "label": "bool",
        "numberOfBytes": "1"
      },
      "t_contract(IERC20UpgradeableExt)65868": {
        "encoding": "inplace",
        "label": "contract IERC20UpgradeableExt",
        "numberOfBytes": "20"
      },
      "t_contract(IPriceOracle)11910": {
        "encoding": "inplace",
        "label": "contract IPriceOracle",
        "numberOfBytes": "20"
      },
      "t_contract(IStVault)66209": {
        "encoding": "inplace",
        "label": "contract IStVault",
        "numberOfBytes": "20"
      },
      "t_contract(IUniRouter)66445": {
        "encoding": "inplace",
        "label": "contract IUniRouter",
        "numberOfBytes": "20"
      },
      "t_mapping(t_address,t_array(t_uint256)dyn_storage)": {
        "encoding": "mapping",
        "key": "t_address",
        "label": "mapping(address => uint256[])",
        "numberOfBytes": "32",
        "value": "t_array(t_uint256)dyn_storage"
      },
      "t_mapping(t_address,t_mapping(t_address,t_array(t_uint256)dyn_storage))": {
        "encoding": "mapping",
        "key": "t_address",
        "label": "mapping(address => mapping(address => uint256[]))",
        "numberOfBytes": "32",
        "value": "t_mapping(t_address,t_array(t_uint256)dyn_storage)"
      },
      "t_mapping(t_address,t_mapping(t_uint256,t_uint256))": {
        "encoding": "mapping",
        "key": "t_address",
        "label": "mapping(address => mapping(uint256 => uint256))",
        "numberOfBytes": "32",
        "value": "t_mapping(t_uint256,t_uint256)"
      },
      "t_mapping(t_address,t_uint256)": {
        "encoding": "mapping",
        "key": "t_address",
        "label": "mapping(address => uint256)",
        "numberOfBytes": "32",
        "value": "t_uint256"
      },
      "t_mapping(t_uint256,t_uint256)": {
        "encoding": "mapping",
        "key": "t_uint256",
        "label": "mapping(uint256 => uint256)",
        "numberOfBytes": "32",
        "value": "t_uint256"
      },
      "t_uint256": {
        "encoding": "inplace",
        "label": "uint256",
        "numberOfBytes": "32"
      },
      "t_uint8": {
        "encoding": "inplace",
        "label": "uint8",
        "numberOfBytes": "1"
      }
    }
  }
}