{
  "address": "0x857A1C877c11B354A264C1FD0ff9C988bE229faa",
  "abi": [
    {
      "anonymous": false,
      "inputs": [
        {
          "indexed": true,
          "internalType": "uint256",
          "name": "currentWatermark",
          "type": "uint256"
        },
        {
          "indexed": true,
          "internalType": "uint256",
          "name": "lastWatermark",
          "type": "uint256"
        }
      ],
      "name": "AdjustWatermark",
      "type": "event"
    },
    {
      "anonymous": false,
      "inputs": [
        {
          "indexed": true,
          "internalType": "address",
          "name": "owner",
          "type": "address"
        },
        {
          "indexed": true,
          "internalType": "address",
          "name": "spender",
          "type": "address"
        },
        {
          "indexed": false,
          "internalType": "uint256",
          "name": "value",
          "type": "uint256"
        }
      ],
      "name": "Approval",
      "type": "event"
    },
    {
      "anonymous": false,
      "inputs": [
        {
          "indexed": true,
          "internalType": "address",
          "name": "user",
          "type": "address"
        },
        {
          "indexed": true,
          "internalType": "uint256",
          "name": "reqId",
          "type": "uint256"
        },
        {
          "indexed": true,
          "internalType": "uint256",
          "name": "amount",
          "type": "uint256"
        }
      ],
      "name": "Claim",
      "type": "event"
    },
    {
      "anonymous": false,
      "inputs": [
        {
          "indexed": true,
          "internalType": "address",
          "name": "user",
          "type": "address"
        },
        {
          "indexed": true,
          "internalType": "uint256",
          "name": "amount",
          "type": "uint256"
        },
        {
          "indexed": true,
          "internalType": "uint256",
          "name": "claimedCount",
          "type": "uint256"
        }
      ],
      "name": "ClaimMulti",
      "type": "event"
    },
    {
      "anonymous": false,
      "inputs": [
        {
          "indexed": true,
          "internalType": "uint256",
          "name": "currentWatermark",
          "type": "uint256"
        },
        {
          "indexed": true,
          "internalType": "uint256",
          "name": "lastWatermark",
          "type": "uint256"
        },
        {
          "indexed": true,
          "internalType": "uint256",
          "name": "fee",
          "type": "uint256"
        }
      ],
      "name": "CollectProfitAndUpdateWatermark",
      "type": "event"
    },
    {
      "anonymous": false,
      "inputs": [
        {
          "indexed": true,
          "internalType": "address",
          "name": "user",
          "type": "address"
        },
        {
          "indexed": true,
          "internalType": "uint256",
          "name": "amount",
          "type": "uint256"
        },
        {
          "indexed": true,
          "internalType": "uint256",
          "name": "shares",
          "type": "uint256"
        }
      ],
      "name": "Deposit",
      "type": "event"
    },
    {
      "anonymous": false,
      "inputs": [
        {
          "indexed": true,
          "internalType": "uint256",
          "name": "stAmount",
          "type": "uint256"
        }
      ],
      "name": "EmergencyWithdraw",
      "type": "event"
    },
    {
      "anonymous": false,
      "inputs": [
        {
          "indexed": false,
          "internalType": "uint8",
          "name": "version",
          "type": "uint8"
        }
      ],
      "name": "Initialized",
      "type": "event"
    },
    {
      "anonymous": false,
      "inputs": [
        {
          "indexed": true,
          "internalType": "uint256",
          "name": "amount",
          "type": "uint256"
        }
      ],
      "name": "Invest",
      "type": "event"
    },
    {
      "anonymous": false,
      "inputs": [
        {
          "indexed": true,
          "internalType": "address",
          "name": "previousOwner",
          "type": "address"
        },
        {
          "indexed": true,
          "internalType": "address",
          "name": "newOwner",
          "type": "address"
        }
      ],
      "name": "OwnershipTransferred",
      "type": "event"
    },
    {
      "anonymous": false,
      "inputs": [
        {
          "indexed": false,
          "internalType": "address",
          "name": "account",
          "type": "address"
        }
      ],
      "name": "Paused",
      "type": "event"
    },
    {
      "anonymous": false,
      "inputs": [
        {
          "indexed": true,
          "internalType": "uint256",
          "name": "stAmount",
          "type": "uint256"
        }
      ],
      "name": "Redeem",
      "type": "event"
    },
    {
      "anonymous": false,
      "inputs": [
        {
          "indexed": true,
          "internalType": "address",
          "name": "from",
          "type": "address"
        },
        {
          "indexed": true,
          "internalType": "address",
          "name": "to",
          "type": "address"
        },
        {
          "indexed": false,
          "internalType": "uint256",
          "name": "value",
          "type": "uint256"
        }
      ],
      "name": "Transfer",
      "type": "event"
    },
    {
      "anonymous": false,
      "inputs": [
        {
          "indexed": true,
          "internalType": "uint256",
          "name": "fees",
          "type": "uint256"
        },
        {
          "indexed": true,
          "internalType": "address",
          "name": "token",
          "type": "address"
        }
      ],
      "name": "TransferredOutFees",
      "type": "event"
    },
    {
      "anonymous": false,
      "inputs": [
        {
          "indexed": false,
          "internalType": "address",
          "name": "account",
          "type": "address"
        }
      ],
      "name": "Unpaused",
      "type": "event"
    },
    {
      "anonymous": false,
      "inputs": [
        {
          "indexed": true,
          "internalType": "address",
          "name": "user",
          "type": "address"
        },
        {
          "indexed": false,
          "internalType": "uint256",
          "name": "shares",
          "type": "uint256"
        },
        {
          "indexed": true,
          "internalType": "uint256",
          "name": "amount",
          "type": "uint256"
        },
        {
          "indexed": false,
          "internalType": "uint256",
          "name": "reqId",
          "type": "uint256"
        },
        {
          "indexed": true,
          "internalType": "uint256",
          "name": "pendingAmount",
          "type": "uint256"
        }
      ],
      "name": "Withdraw",
      "type": "event"
    },
    {
      "inputs": [],
      "name": "admin",
      "outputs": [
        {
          "internalType": "address",
          "name": "",
          "type": "address"
        }
      ],
      "stateMutability": "view",
      "type": "function"
    },
    {
      "inputs": [
        {
          "internalType": "address",
          "name": "owner",
          "type": "address"
        },
        {
          "internalType": "address",
          "name": "spender",
          "type": "address"
        }
      ],
      "name": "allowance",
      "outputs": [
        {
          "internalType": "uint256",
          "name": "",
          "type": "uint256"
        }
      ],
      "stateMutability": "view",
      "type": "function"
    },
    {
      "inputs": [
        {
          "internalType": "address",
          "name": "spender",
          "type": "address"
        },
        {
          "internalType": "uint256",
          "name": "amount",
          "type": "uint256"
        }
      ],
      "name": "approve",
      "outputs": [
        {
          "internalType": "bool",
          "name": "",
          "type": "bool"
        }
      ],
      "stateMutability": "nonpayable",
      "type": "function"
    },
    {
      "inputs": [
        {
          "internalType": "address",
          "name": "account",
          "type": "address"
        }
      ],
      "name": "balanceOf",
      "outputs": [
        {
          "internalType": "uint256",
          "name": "",
          "type": "uint256"
        }
      ],
      "stateMutability": "view",
      "type": "function"
    },
    {
      "inputs": [],
      "name": "binancePool",
      "outputs": [
        {
          "internalType": "contract IBinancePool",
          "name": "",
          "type": "address"
        }
      ],
      "stateMutability": "view",
      "type": "function"
    },
    {
      "inputs": [],
      "name": "bufferedDeposits",
      "outputs": [
        {
          "internalType": "uint256",
          "name": "",
          "type": "uint256"
        }
      ],
      "stateMutability": "view",
      "type": "function"
    },
    {
      "inputs": [],
      "name": "bufferedWithdrawals",
      "outputs": [
        {
          "internalType": "uint256",
          "name": "",
          "type": "uint256"
        }
      ],
      "stateMutability": "view",
      "type": "function"
    },
    {
      "inputs": [
        {
          "internalType": "uint256",
          "name": "_reqId",
          "type": "uint256"
        }
      ],
      "name": "claim",
      "outputs": [
        {
          "internalType": "uint256",
          "name": "_amount",
          "type": "uint256"
        }
      ],
      "stateMutability": "nonpayable",
      "type": "function"
    },
    {
      "inputs": [
        {
          "internalType": "uint256[]",
          "name": "_reqIds",
          "type": "uint256[]"
        }
      ],
      "name": "claimMulti",
      "outputs": [
        {
          "internalType": "uint256",
          "name": "_amount",
          "type": "uint256"
        },
        {
          "internalType": "uint256",
          "name": "_claimedCount",
          "type": "uint256"
        },
        {
          "internalType": "bool[]",
          "name": "_claimed",
          "type": "bool[]"
        }
      ],
      "stateMutability": "nonpayable",
      "type": "function"
    },
    {
      "inputs": [],
      "name": "claimUnbonded",
      "outputs": [],
      "stateMutability": "nonpayable",
      "type": "function"
    },
    {
      "inputs": [],
      "name": "collectProfitAndUpdateWatermark",
      "outputs": [],
      "stateMutability": "nonpayable",
      "type": "function"
    },
    {
      "inputs": [],
      "name": "decimals",
      "outputs": [
        {
          "internalType": "uint8",
          "name": "",
          "type": "uint8"
        }
      ],
      "stateMutability": "view",
      "type": "function"
    },
    {
      "inputs": [
        {
          "internalType": "address",
          "name": "spender",
          "type": "address"
        },
        {
          "internalType": "uint256",
          "name": "subtractedValue",
          "type": "uint256"
        }
      ],
      "name": "decreaseAllowance",
      "outputs": [
        {
          "internalType": "bool",
          "name": "",
          "type": "bool"
        }
      ],
      "stateMutability": "nonpayable",
      "type": "function"
    },
    {
      "inputs": [
        {
          "internalType": "uint256",
          "name": "_amount",
          "type": "uint256"
        }
      ],
      "name": "deposit",
      "outputs": [],
      "stateMutability": "nonpayable",
      "type": "function"
    },
    {
      "inputs": [],
      "name": "depositETH",
      "outputs": [],
      "stateMutability": "payable",
      "type": "function"
    },
    {
      "inputs": [],
      "name": "emergencyPendingRedeems",
      "outputs": [
        {
          "internalType": "uint256",
          "name": "_redeems",
          "type": "uint256"
        }
      ],
      "stateMutability": "view",
      "type": "function"
    },
    {
      "inputs": [],
      "name": "emergencyRedeem",
      "outputs": [],
      "stateMutability": "nonpayable",
      "type": "function"
    },
    {
      "inputs": [],
      "name": "emergencyWithdraw",
      "outputs": [],
      "stateMutability": "nonpayable",
      "type": "function"
    },
    {
      "inputs": [],
      "name": "fees",
      "outputs": [
        {
          "internalType": "uint256",
          "name": "",
          "type": "uint256"
        }
      ],
      "stateMutability": "view",
      "type": "function"
    },
    {
      "inputs": [],
      "name": "getAPR",
      "outputs": [
        {
          "internalType": "uint256",
          "name": "",
          "type": "uint256"
        }
      ],
      "stateMutability": "view",
      "type": "function"
    },
    {
      "inputs": [],
      "name": "getAllPool",
      "outputs": [
        {
          "internalType": "uint256",
          "name": "_pool",
          "type": "uint256"
        }
      ],
      "stateMutability": "view",
      "type": "function"
    },
    {
      "inputs": [],
      "name": "getAllPoolInUSD",
      "outputs": [
        {
          "internalType": "uint256",
          "name": "",
          "type": "uint256"
        }
      ],
      "stateMutability": "view",
      "type": "function"
    },
    {
      "inputs": [],
      "name": "getBaseApr",
      "outputs": [
        {
          "internalType": "uint256",
          "name": "",
          "type": "uint256"
        },
        {
          "internalType": "uint256",
          "name": "",
          "type": "uint256"
        },
        {
          "internalType": "bool",
          "name": "",
          "type": "bool"
        }
      ],
      "stateMutability": "view",
      "type": "function"
    },
    {
      "inputs": [],
      "name": "getBaseAprData",
      "outputs": [
        {
          "internalType": "uint256",
          "name": "",
          "type": "uint256"
        },
        {
          "internalType": "uint256",
          "name": "",
          "type": "uint256"
        },
        {
          "internalType": "uint256",
          "name": "",
          "type": "uint256"
        }
      ],
      "stateMutability": "view",
      "type": "function"
    },
    {
      "inputs": [],
      "name": "getBufferedDeposits",
      "outputs": [
        {
          "internalType": "uint256",
          "name": "",
          "type": "uint256"
        }
      ],
      "stateMutability": "view",
      "type": "function"
    },
    {
      "inputs": [],
      "name": "getEmergencyUnbondings",
      "outputs": [
        {
          "internalType": "uint256",
          "name": "",
          "type": "uint256"
        }
      ],
      "stateMutability": "view",
      "type": "function"
    },
    {
      "inputs": [],
      "name": "getInvestedStTokens",
      "outputs": [
        {
          "internalType": "uint256",
          "name": "_stAmount",
          "type": "uint256"
        }
      ],
      "stateMutability": "view",
      "type": "function"
    },
    {
      "inputs": [],
      "name": "getPendingRewards",
      "outputs": [
        {
          "internalType": "uint256",
          "name": "",
          "type": "uint256"
        }
      ],
      "stateMutability": "view",
      "type": "function"
    },
    {
      "inputs": [
        {
          "internalType": "uint256",
          "name": "_shares",
          "type": "uint256"
        }
      ],
      "name": "getPoolByShares",
      "outputs": [
        {
          "internalType": "uint256",
          "name": "",
          "type": "uint256"
        }
      ],
      "stateMutability": "view",
      "type": "function"
    },
    {
      "inputs": [
        {
          "internalType": "uint256",
          "name": "_stAmount",
          "type": "uint256"
        }
      ],
      "name": "getPooledTokenByStToken",
      "outputs": [
        {
          "internalType": "uint256",
          "name": "",
          "type": "uint256"
        }
      ],
      "stateMutability": "view",
      "type": "function"
    },
    {
      "inputs": [
        {
          "internalType": "uint256",
          "name": "_amount",
          "type": "uint256"
        }
      ],
      "name": "getSharesByPool",
      "outputs": [
        {
          "internalType": "uint256",
          "name": "",
          "type": "uint256"
        }
      ],
      "stateMutability": "view",
      "type": "function"
    },
    {
      "inputs": [
        {
          "internalType": "uint256",
          "name": "_amount",
          "type": "uint256"
        }
      ],
      "name": "getStTokenByPooledToken",
      "outputs": [
        {
          "internalType": "uint256",
          "name": "",
          "type": "uint256"
        }
      ],
      "stateMutability": "view",
      "type": "function"
    },
    {
      "inputs": [],
      "name": "getTokenUnbonded",
      "outputs": [
        {
          "internalType": "uint256",
          "name": "",
          "type": "uint256"
        }
      ],
      "stateMutability": "view",
      "type": "function"
    },
    {
      "inputs": [
        {
          "internalType": "uint256",
          "name": "_reqId",
          "type": "uint256"
        }
      ],
      "name": "getWithdrawRequest",
      "outputs": [
        {
          "internalType": "bool",
          "name": "_claimable",
          "type": "bool"
        },
        {
          "internalType": "uint256",
          "name": "_tokenAmt",
          "type": "uint256"
        },
        {
          "internalType": "uint256",
          "name": "_stTokenAmt",
          "type": "uint256"
        },
        {
          "internalType": "uint256",
          "name": "_requestTs",
          "type": "uint256"
        },
        {
          "internalType": "uint256",
          "name": "_waitForTs",
          "type": "uint256"
        }
      ],
      "stateMutability": "view",
      "type": "function"
    },
    {
      "inputs": [
        {
          "internalType": "address",
          "name": "spender",
          "type": "address"
        },
        {
          "internalType": "uint256",
          "name": "addedValue",
          "type": "uint256"
        }
      ],
      "name": "increaseAllowance",
      "outputs": [
        {
          "internalType": "bool",
          "name": "",
          "type": "bool"
        }
      ],
      "stateMutability": "nonpayable",
      "type": "function"
    },
    {
      "inputs": [
        {
          "internalType": "string",
          "name": "_name",
          "type": "string"
        },
        {
          "internalType": "string",
          "name": "_symbol",
          "type": "string"
        },
        {
          "internalType": "address",
          "name": "_treasury",
          "type": "address"
        },
        {
          "internalType": "address",
          "name": "_admin",
          "type": "address"
        },
        {
          "internalType": "address",
          "name": "_priceOracle",
          "type": "address"
        },
        {
          "internalType": "address",
          "name": "_token",
          "type": "address"
        },
        {
          "internalType": "address",
          "name": "_stToken",
          "type": "address"
        }
      ],
      "name": "initialize",
      "outputs": [],
      "stateMutability": "nonpayable",
      "type": "function"
    },
    {
      "inputs": [
        {
          "internalType": "address",
          "name": "_treasury",
          "type": "address"
        },
        {
          "internalType": "address",
          "name": "_admin",
          "type": "address"
        },
        {
          "internalType": "address",
          "name": "_priceOracle",
          "type": "address"
        }
      ],
      "name": "initialize1",
      "outputs": [],
      "stateMutability": "nonpayable",
      "type": "function"
    },
    {
      "inputs": [],
      "name": "invest",
      "outputs": [],
      "stateMutability": "nonpayable",
      "type": "function"
    },
    {
      "inputs": [],
      "name": "investInterval",
      "outputs": [
        {
          "internalType": "uint256",
          "name": "",
          "type": "uint256"
        }
      ],
      "stateMutability": "view",
      "type": "function"
    },
    {
      "inputs": [],
      "name": "lastCollectProfitTs",
      "outputs": [
        {
          "internalType": "uint256",
          "name": "",
          "type": "uint256"
        }
      ],
      "stateMutability": "view",
      "type": "function"
    },
    {
      "inputs": [],
      "name": "lastInvestTs",
      "outputs": [
        {
          "internalType": "uint256",
          "name": "",
          "type": "uint256"
        }
      ],
      "stateMutability": "view",
      "type": "function"
    },
    {
      "inputs": [],
      "name": "lastRedeemTs",
      "outputs": [
        {
          "internalType": "uint256",
          "name": "",
          "type": "uint256"
        }
      ],
      "stateMutability": "view",
      "type": "function"
    },
    {
      "inputs": [],
      "name": "minInvestAmount",
      "outputs": [
        {
          "internalType": "uint256",
          "name": "",
          "type": "uint256"
        }
      ],
      "stateMutability": "view",
      "type": "function"
    },
    {
      "inputs": [],
      "name": "minRedeemAmount",
      "outputs": [
        {
          "internalType": "uint256",
          "name": "",
          "type": "uint256"
        }
      ],
      "stateMutability": "view",
      "type": "function"
    },
    {
      "inputs": [],
      "name": "name",
      "outputs": [
        {
          "internalType": "string",
          "name": "",
          "type": "string"
        }
      ],
      "stateMutability": "view",
      "type": "function"
    },
    {
      "inputs": [],
      "name": "nft",
      "outputs": [
        {
          "internalType": "contract IStVaultNFT",
          "name": "",
          "type": "address"
        }
      ],
      "stateMutability": "view",
      "type": "function"
    },
    {
      "inputs": [],
      "name": "oneEpoch",
      "outputs": [
        {
          "internalType": "uint256",
          "name": "",
          "type": "uint256"
        }
      ],
      "stateMutability": "view",
      "type": "function"
    },
    {
      "inputs": [],
      "name": "owner",
      "outputs": [
        {
          "internalType": "address",
          "name": "",
          "type": "address"
        }
      ],
      "stateMutability": "view",
      "type": "function"
    },
    {
      "inputs": [],
      "name": "paused",
      "outputs": [
        {
          "internalType": "bool",
          "name": "",
          "type": "bool"
        }
      ],
      "stateMutability": "view",
      "type": "function"
    },
    {
      "inputs": [],
      "name": "pendingRedeems",
      "outputs": [
        {
          "internalType": "uint256",
          "name": "",
          "type": "uint256"
        }
      ],
      "stateMutability": "view",
      "type": "function"
    },
    {
      "inputs": [],
      "name": "pendingWithdrawals",
      "outputs": [
        {
          "internalType": "uint256",
          "name": "",
          "type": "uint256"
        }
      ],
      "stateMutability": "view",
      "type": "function"
    },
    {
      "inputs": [],
      "name": "priceOracle",
      "outputs": [
        {
          "internalType": "contract IPriceOracle",
          "name": "",
          "type": "address"
        }
      ],
      "stateMutability": "view",
      "type": "function"
    },
    {
      "inputs": [],
      "name": "redeem",
      "outputs": [],
      "stateMutability": "nonpayable",
      "type": "function"
    },
    {
      "inputs": [],
      "name": "redeemInterval",
      "outputs": [
        {
          "internalType": "uint256",
          "name": "",
          "type": "uint256"
        }
      ],
      "stateMutability": "view",
      "type": "function"
    },
    {
      "inputs": [],
      "name": "reinvest",
      "outputs": [],
      "stateMutability": "nonpayable",
      "type": "function"
    },
    {
      "inputs": [],
      "name": "renounceOwnership",
      "outputs": [],
      "stateMutability": "nonpayable",
      "type": "function"
    },
    {
      "inputs": [],
      "name": "resetApr",
      "outputs": [],
      "stateMutability": "nonpayable",
      "type": "function"
    },
    {
      "inputs": [
        {
          "internalType": "address",
          "name": "_newAdmin",
          "type": "address"
        }
      ],
      "name": "setAdmin",
      "outputs": [],
      "stateMutability": "nonpayable",
      "type": "function"
    },
    {
      "inputs": [
        {
          "internalType": "uint256",
          "name": "_yieldFeePerc",
          "type": "uint256"
        }
      ],
      "name": "setFee",
      "outputs": [],
      "stateMutability": "nonpayable",
      "type": "function"
    },
    {
      "inputs": [
        {
          "internalType": "address",
          "name": "_nft",
          "type": "address"
        }
      ],
      "name": "setNFT",
      "outputs": [],
      "stateMutability": "nonpayable",
      "type": "function"
    },
    {
      "inputs": [
        {
          "internalType": "uint256",
          "name": "_minInvestAmount",
          "type": "uint256"
        },
        {
          "internalType": "uint256",
          "name": "_minRedeemAmount",
          "type": "uint256"
        }
      ],
      "name": "setStakingAmounts",
      "outputs": [],
      "stateMutability": "nonpayable",
      "type": "function"
    },
    {
      "inputs": [
        {
          "internalType": "uint256",
          "name": "_unbondingPeriod",
          "type": "uint256"
        },
        {
          "internalType": "uint256",
          "name": "_investInterval",
          "type": "uint256"
        },
        {
          "internalType": "uint256",
          "name": "_redeemInterval",
          "type": "uint256"
        },
        {
          "internalType": "uint256",
          "name": "_oneEpoch",
          "type": "uint256"
        }
      ],
      "name": "setStakingPeriods",
      "outputs": [],
      "stateMutability": "nonpayable",
      "type": "function"
    },
    {
      "inputs": [
        {
          "internalType": "address",
          "name": "_wallet",
          "type": "address"
        }
      ],
      "name": "setTreasuryWallet",
      "outputs": [],
      "stateMutability": "nonpayable",
      "type": "function"
    },
    {
      "inputs": [],
      "name": "stToken",
      "outputs": [
        {
          "internalType": "contract IERC20Upgradeable",
          "name": "",
          "type": "address"
        }
      ],
      "stateMutability": "view",
      "type": "function"
    },
    {
      "inputs": [],
      "name": "symbol",
      "outputs": [
        {
          "internalType": "string",
          "name": "",
          "type": "string"
        }
      ],
      "stateMutability": "view",
      "type": "function"
    },
    {
      "inputs": [],
      "name": "token",
      "outputs": [
        {
          "internalType": "contract IERC20Upgradeable",
          "name": "",
          "type": "address"
        }
      ],
      "stateMutability": "view",
      "type": "function"
    },
    {
      "inputs": [],
      "name": "totalSupply",
      "outputs": [
        {
          "internalType": "uint256",
          "name": "",
          "type": "uint256"
        }
      ],
      "stateMutability": "view",
      "type": "function"
    },
    {
      "inputs": [
        {
          "internalType": "address",
          "name": "to",
          "type": "address"
        },
        {
          "internalType": "uint256",
          "name": "amount",
          "type": "uint256"
        }
      ],
      "name": "transfer",
      "outputs": [
        {
          "internalType": "bool",
          "name": "",
          "type": "bool"
        }
      ],
      "stateMutability": "nonpayable",
      "type": "function"
    },
    {
      "inputs": [
        {
          "internalType": "address",
          "name": "from",
          "type": "address"
        },
        {
          "internalType": "address",
          "name": "to",
          "type": "address"
        },
        {
          "internalType": "uint256",
          "name": "amount",
          "type": "uint256"
        }
      ],
      "name": "transferFrom",
      "outputs": [
        {
          "internalType": "bool",
          "name": "",
          "type": "bool"
        }
      ],
      "stateMutability": "nonpayable",
      "type": "function"
    },
    {
      "inputs": [
        {
          "internalType": "address",
          "name": "newOwner",
          "type": "address"
        }
      ],
      "name": "transferOwnership",
      "outputs": [],
      "stateMutability": "nonpayable",
      "type": "function"
    },
    {
      "inputs": [],
      "name": "treasuryWallet",
      "outputs": [
        {
          "internalType": "address",
          "name": "",
          "type": "address"
        }
      ],
      "stateMutability": "view",
      "type": "function"
    },
    {
      "inputs": [],
      "name": "unbondingPeriod",
      "outputs": [
        {
          "internalType": "uint256",
          "name": "",
          "type": "uint256"
        }
      ],
      "stateMutability": "view",
      "type": "function"
    },
    {
      "inputs": [],
      "name": "watermark",
      "outputs": [
        {
          "internalType": "uint256",
          "name": "",
          "type": "uint256"
        }
      ],
      "stateMutability": "view",
      "type": "function"
    },
    {
      "inputs": [
        {
          "internalType": "uint256",
          "name": "_shares",
          "type": "uint256"
        }
      ],
      "name": "withdraw",
      "outputs": [
        {
          "internalType": "uint256",
          "name": "_amount",
          "type": "uint256"
        },
        {
          "internalType": "uint256",
          "name": "_reqId",
          "type": "uint256"
        }
      ],
      "stateMutability": "nonpayable",
      "type": "function"
    },
    {
      "inputs": [],
      "name": "withdrawFees",
      "outputs": [],
      "stateMutability": "nonpayable",
      "type": "function"
    },
    {
      "inputs": [],
      "name": "yield",
      "outputs": [],
      "stateMutability": "nonpayable",
      "type": "function"
    },
    {
      "inputs": [],
      "name": "yieldFee",
      "outputs": [
        {
          "internalType": "uint256",
          "name": "",
          "type": "uint256"
        }
      ],
      "stateMutability": "view",
      "type": "function"
    },
    {
      "stateMutability": "payable",
      "type": "receive"
    }
  ],
  "transactionHash": "0xc4279c9b69a722526053a09d38f303057531106dcc5706b7bb655b6f0e9f2753",
  "args": [],
  "numDeployments": 3,
  "solcInputHash": "aa8af62c39c4987602902032509083cd",
  "bytecode": "0x608060405234801561001057600080fd5b5061499c806100206000396000f3fe6080604052600436106104565760003560e01c80638954b3e01161023f578063c1c33f0e11610139578063e4717f6a116100b6578063f6326fb31161007a578063f6326fb314610c61578063f851a44014610c69578063fc0c546a14610c89578063fdb5a03e14610caa578063fe8fc02a14610cbf57600080fd5b8063e4717f6a14610bc7578063e8b5e51f14610bf6578063f13dc2e214610c0b578063f2fde38b14610c21578063f56e9c6614610c4157600080fd5b8063d36af3fc116100fd578063d36af3fc14610883578063d80dfc3b14610b5e578063d9621f9e14610883578063db2e21bc14610b92578063dd62ed3e14610ba757600080fd5b8063c1c33f0e14610a9f578063c378022c14610abf578063c89d5b8b14610adf578063c91f0c5314610af4578063cc0fe4a414610b1457600080fd5b8063a8602fea116101c7578063b6b55f251161018b578063b6b55f2514610a1e578063bb46554214610a3e578063bd244af414610a5e578063be040fb014610a73578063beca03d514610a8857600080fd5b8063a8602fea1461098f578063a9059cbb146109af578063ad251e27146109cf578063b09f5320146109f0578063b162d5dc14610a0757600080fd5b80639af1d35a1161020e5780639af1d35a146109165780639bceb8571461092c578063a20a4cb414610943578063a457c2d714610958578063a5ff3f801461097857600080fd5b80638954b3e0146108b75780638da5cb5b146108cc5780639119c067146108ea57806395d89b411461090157600080fd5b80633f690113116103505780635f86fe9c116102d8578063704b6c021161029c578063704b6c021461081857806370a0823114610838578063715018a61461086e57806373ff5f7c146108835780637e478b861461089757600080fd5b80635f86fe9c1461079a57806361bc47881461064a57806369fe0e2d146107cc5780636ba89784146107ec5780636cf6d6751461080157600080fd5b8063476343ee1161031f578063476343ee1461072257806347ccca02146107375780634a351b8a146107585780634b950d0f1461076d5780635c975abb1461078257600080fd5b80633f690113146106bf57806342050f58146106d65780634626402b146106ed578063470343d81461070d57600080fd5b80632630c12f116103de578063313ce567116103a2578063313ce5671461062e578063318ea9201461064a578063379607f51461066857806338f360b314610688578063395093511461069f57600080fd5b80632630c12f1461058e57806328593984146105af5780632a39e8e4146105c45780632d2009b0146105d95780632e1a7d4d146105f957600080fd5b806318160ddd1161042557806318160ddd146104f45780631a813a3c1461050957806323b6443e1461052057806323b872dd1461055957806324b1a1f71461057957600080fd5b8063034f40831461046257806306fdde031461048b5780630912ae6d146104ad578063095ea7b3146104c457600080fd5b3661045d57005b600080fd5b34801561046e57600080fd5b5061047860fb5481565b6040519081526020015b60405180910390f35b34801561049757600080fd5b506104a0610cd6565b6040516104829190614116565b3480156104b957600080fd5b5061047861010c5481565b3480156104d057600080fd5b506104e46104df366004614160565b610d68565b6040519015158152602001610482565b34801561050057600080fd5b50603554610478565b34801561051557600080fd5b5061051e610d82565b005b34801561052c57600080fd5b5061010354610541906001600160a01b031681565b6040516001600160a01b039091168152602001610482565b34801561056557600080fd5b506104e461057436600461418a565b610dcc565b34801561058557600080fd5b50610478610df2565b34801561059a57600080fd5b5061010054610541906001600160a01b031681565b3480156105bb57600080fd5b5061051e610e0d565b3480156105d057600080fd5b50610478610e6f565b3480156105e557600080fd5b5061051e6105f43660046141c6565b610e88565b34801561060557600080fd5b506106196106143660046141f8565b610eca565b60408051928352602083019190915201610482565b34801561063a57600080fd5b5060405160128152602001610482565b34801561065657600080fd5b506104786106653660046141f8565b90565b34801561067457600080fd5b506104786106833660046141f8565b61124e565b34801561069457600080fd5b5061047861010d5481565b3480156106ab57600080fd5b506104e46106ba366004614160565b6114d3565b3480156106cb57600080fd5b5061047861010f5481565b3480156106e257600080fd5b506104786101125481565b3480156106f957600080fd5b5060fe54610541906001600160a01b031681565b34801561071957600080fd5b5061051e6114f5565b34801561072e57600080fd5b5061051e61155f565b34801561074357600080fd5b5061010154610541906001600160a01b031681565b34801561076457600080fd5b506104786115a9565b34801561077957600080fd5b5061051e611638565b34801561078e57600080fd5b5060655460ff166104e4565b3480156107a657600080fd5b506107af611681565b604080519384526020840192909252151590820152606001610482565b3480156107d857600080fd5b5061051e6107e73660046141f8565b611757565b3480156107f857600080fd5b506104786117d0565b34801561080d57600080fd5b5061047861010a5481565b34801561082457600080fd5b5061051e610833366004614211565b611866565b34801561084457600080fd5b50610478610853366004614211565b6001600160a01b031660009081526033602052604090205490565b34801561087a57600080fd5b5061051e6118b2565b34801561088f57600080fd5b506000610478565b3480156108a357600080fd5b5061051e6108b236600461422c565b6118e6565b3480156108c357600080fd5b5061051e6119bd565b3480156108d857600080fd5b5060c9546001600160a01b0316610541565b3480156108f657600080fd5b506104786101085481565b34801561090d57600080fd5b506104a0611a26565b34801561092257600080fd5b5061047860fd5481565b34801561093857600080fd5b506104786101115481565b34801561094f57600080fd5b50610478611a35565b34801561096457600080fd5b506104e4610973366004614160565b611bd7565b34801561098457600080fd5b506104786101105481565b34801561099b57600080fd5b5061051e6109aa366004614211565b611c5d565b3480156109bb57600080fd5b506104e46109ca366004614160565b611cf0565b3480156109db57600080fd5b5061012c54610541906001600160a01b031681565b3480156109fc57600080fd5b506104786101065481565b348015610a1357600080fd5b5061047861010b5481565b348015610a2a57600080fd5b5061051e610a393660046141f8565b611cfe565b348015610a4a57600080fd5b50610478610a593660046141f8565b611d5b565b348015610a6a57600080fd5b50610478611d98565b348015610a7f57600080fd5b5061051e611dbd565b348015610a9457600080fd5b506104786101075481565b348015610aab57600080fd5b50610478610aba3660046141f8565b611f15565b348015610acb57600080fd5b5061051e610ada36600461424e565b611f32565b348015610aeb57600080fd5b506104786120a2565b348015610b0057600080fd5b5061051e610b0f366004614348565b6120b6565b348015610b2057600080fd5b50610b34610b2f3660046141f8565b6122ff565b6040805195151586526020860194909452928401919091526060830152608082015260a001610482565b348015610b6a57600080fd5b5061011554610116546101175460408051938452602084019290925290820152606001610482565b348015610b9e57600080fd5b5061051e612390565b348015610bb357600080fd5b50610478610bc23660046143ff565b6123ff565b348015610bd357600080fd5b50610be7610be2366004614432565b61242a565b604051610482939291906144d8565b348015610c0257600080fd5b5061051e6126fb565b348015610c1757600080fd5b5061047860fc5481565b348015610c2d57600080fd5b5061051e610c3c366004614211565b612765565b348015610c4d57600080fd5b5061051e610c5c366004614211565b6127fd565b61051e612892565b348015610c7557600080fd5b5060ff54610541906001600160a01b031681565b348015610c9557600080fd5b5061010254610541906001600160a01b031681565b348015610cb657600080fd5b5061051e6128ee565b348015610ccb57600080fd5b5061047861010e5481565b606060368054610ce59061452f565b80601f0160208091040260200160405190810160405280929190818152602001828054610d119061452f565b8015610d5e5780601f10610d3357610100808354040283529160200191610d5e565b820191906000526020600020905b815481529060010190602001808311610d4157829003601f168201915b5050505050905090565b600033610d768185856129c6565b60019150505b92915050565b60c9546001600160a01b0316331480610da5575060ff546001600160a01b031633145b610dca5760405162461bcd60e51b8152600401610dc190614564565b60405180910390fd5b565b600033610dda858285612aeb565b610de5858585612b5f565b60019150505b9392505050565b6000610e0861010654610e03612d2d565b612d5f565b905090565b60c9546001600160a01b0316331480610e30575060ff546001600160a01b031633145b610e4c5760405162461bcd60e51b8152600401610dc190614564565b60655460ff1615610dca5760405162461bcd60e51b8152600401610dc190614591565b600061010654610e7e30612d6f565b610e0891906145d1565b60c9546001600160a01b03163314610eb25760405162461bcd60e51b8152600401610dc1906145e8565b61010a9390935561010e919091556101105561011255565b60008060026097541415610ef05760405162461bcd60e51b8152600401610dc19061461d565b600260975582610f335760405162461bcd60e51b815260206004820152600e60248201526d125b9d985b1a5908105b5bdd5b9d60921b6044820152606401610dc1565b33600090815260336020526040902054831115610f875760405162461bcd60e51b81526020600482015260126024820152714e6f7420656e6f7567682062616c616e636560701b6044820152606401610dc1565b3360009081526101136020526040902054431415610fe75760405162461bcd60e51b815260206004820152601a60248201527f57697468647261772077697468696e2073616d6520626c6f636b0000000000006044820152606401610dc1565b6000610ff284611d5b565b9050610ffe3385612e28565b611009816000612f73565b6000611013610df2565b60fd549091506000818311156110355760fd5461103090846145d1565b611038565b60005b905083811061104c5792945060009261105c565b94508461105981856145d1565b93505b61106686846145d1565b6101065583156111ee57600061107c6101055490565b905060008186610105546110909190614654565b61109a9190614689565b9050600080610105546110ad8486614654565b6110b79190614689565b975082156111e9578761010760008282546110d2919061469d565b909155505060655460ff166110ff578261010860008282546110f4919061469d565b9091555061112b9050565b60006111096117d0565b9050838111156111225761111d84826145d1565b611125565b60005b61010955505b610101546040516335313c2160e11b81523360048201526001600160a01b0390911690636a62784290602401602060405180830381600087803b15801561117157600080fd5b505af1158015611185573d6000803e3d6000fd5b505050506040513d601f19601f820116820180604052508101906111a991906146b5565b604080516060810182528a815260208082018781524283850190815260008681526101149093529390912091518255516001820155905160029091015598505b505050505b85156111fe576111fe3387612fe7565b60408051888152602081018790528591889133917fe08737ac48a1dab4b1a46c7dc9398bd5bfc6d7ad6fabb7cd8caa254de14def35910160405180910390a4505050506001609781905550915091565b6000600260975414156112735760405162461bcd60e51b8152600401610dc19061461d565b60026097556101015460405163430c208160e01b8152336004820152602481018490526001600160a01b039091169063430c20819060440160206040518083038186803b1580156112c357600080fd5b505afa1580156112d7573d6000803e3d6000fd5b505050506040513d601f19601f820116820180604052508101906112fb91906146ce565b6113335760405162461bcd60e51b81526020600482015260096024820152682737ba1037bbb732b960b91b6044820152606401610dc1565b600082815261011460209081526040918290208251606081018452815481526001820154928101929092526002015491810182905261010a549091611378919061469d565b4210156113bf5760405162461bcd60e51b8152602060048201526015602482015274139bdd0818589b19481d1bc818db185a5b481e595d605a1b6044820152606401610dc1565b80516113d26113cc610e6f565b82613035565b9250600083116114165760405162461bcd60e51b815260206004820152600f60248201526e27379032b737bab3b4103a37b5b2b760891b6044820152606401610dc1565b61010154604051630852cd8d60e31b8152600481018690526001600160a01b03909116906342966c6890602401600060405180830381600087803b15801561145d57600080fd5b505af1158015611471573d6000803e3d6000fd5b5050505080610107600082825461148891906145d1565b9091555061149890503384612fe7565b6040518390859033907f34fcbac0073d7c3d388e51312faf357774904998eeb8fca628b9e6f65ee1cbf790600090a450506001609755919050565b600033610d768185856114e683836123ff565b6114f0919061469d565b6129c6565b60c9546001600160a01b0316331480611518575060ff546001600160a01b031633145b6115345760405162461bcd60e51b8152600401610dc190614564565b60655460ff16156115575760405162461bcd60e51b8152600401610dc190614591565b610dca613078565b60c9546001600160a01b0316331480611582575060ff546001600160a01b031633145b61159e5760405162461bcd60e51b8152600401610dc190614564565b6115a661311d565b50565b60006115b760655460ff1690565b1561066557610103546040516370a0823160e01b81523060048201526001600160a01b03909116906370a082319060240160206040518083038186803b15801561160057600080fd5b505afa158015611614573d6000803e3d6000fd5b505050506040513d601f19601f82011682018060405250810190610e0891906146b5565b60c9546001600160a01b031633146116625760405162461bcd60e51b8152600401610dc1906145e8565b611679600061011581905561011681905561011755565b610dca6131d3565b610115546101165461011754600092839283928215806116ad5750426116aa8262093a8061469d565b11155b156117495760006116c5670de0b6b3a7640000611d5b565b90508260001080156116d657508083105b156117385760006116e783426145d1565b6116f19085614654565b670de0b6b3a76400006301e1338061170987866145d1565b6117139190614654565b61171d9190614654565b6117279190614689565b989197506001965090945050505050565b600097909650600195509350505050565b509094909350600092509050565b60c9546001600160a01b031633146117815760405162461bcd60e51b8152600401610dc1906145e8565b610bb981106117cb5760405162461bcd60e51b81526020600482015260166024820152755969656c64204665652063616e6e6f74203e2033302560501b6044820152606401610dc1565b60fb55565b61012c54604051631fced62960e11b815230600482015260009182916001600160a01b0390911690633f9dac529060240160206040518083038186803b15801561181957600080fd5b505afa15801561182d573d6000803e3d6000fd5b505050506040513d601f19601f8201168201806040525081019061185191906146b5565b905061186081610109546131ff565b91505090565b60c9546001600160a01b031633146118905760405162461bcd60e51b8152600401610dc1906145e8565b60ff80546001600160a01b0319166001600160a01b0392909216919091179055565b60c9546001600160a01b031633146118dc5760405162461bcd60e51b8152600401610dc1906145e8565b610dca600061320e565b60c9546001600160a01b031633146119105760405162461bcd60e51b8152600401610dc1906145e8565b600082116119605760405162461bcd60e51b815260206004820152601b60248201527f6d696e496e76657374416d6f756e74206d757374206265203e203000000000006044820152606401610dc1565b600081116119b05760405162461bcd60e51b815260206004820152601b60248201527f6d696e52656465656d416d6f756e74206d757374206265203e203000000000006044820152606401610dc1565b61010b9190915561010c55565b60c9546001600160a01b03163314806119e0575060ff546001600160a01b031633145b6119fc5760405162461bcd60e51b8152600401610dc190614564565b60655460ff16611a1e5760405162461bcd60e51b8152600401610dc1906146f0565b610dca613260565b606060378054610ce59061452f565b6000611a4360655460ff1690565b611b0f57600061010854611a55600090565b610103546040516370a0823160e01b81523060048201526001600160a01b03909116906370a082319060240160206040518083038186803b158015611a9957600080fd5b505afa158015611aad573d6000803e3d6000fd5b505050506040513d601f19601f82011682018060405250810190611ad191906146b5565b611adb919061469d565b611ae591906145d1565b90508015611af1578091505b61010654611aff908361469d565b915060fd548261186091906145d1565b600061010854611b1d6117d0565b6000610103546040516370a0823160e01b81523060048201526001600160a01b03909116906370a082319060240160206040518083038186803b158015611b6357600080fd5b505afa158015611b77573d6000803e3d6000fd5b505050506040513d601f19601f82011682018060405250810190611b9b91906146b5565b611ba5919061469d565b611baf919061469d565b611bb991906145d1565b90508015611bc5578091505b611bcd612d2d565b611aff908361469d565b60003381611be582866123ff565b905083811015611c455760405162461bcd60e51b815260206004820152602560248201527f45524332303a2064656372656173656420616c6c6f77616e63652062656c6f77604482015264207a65726f60d81b6064820152608401610dc1565b611c5282868684036129c6565b506001949350505050565b60c9546001600160a01b03163314611c875760405162461bcd60e51b8152600401610dc1906145e8565b6001600160a01b038116611cce5760405162461bcd60e51b815260206004820152600e60248201526d1dd85b1b195d081a5b9d985b1a5960921b6044820152606401610dc1565b60fe80546001600160a01b0319166001600160a01b0392909216919091179055565b600033610d76818585612b5f565b60026097541415611d215760405162461bcd60e51b8152600401610dc19061461d565b600260975560655460ff1615611d495760405162461bcd60e51b8152600401610dc190614591565b611d5333826132db565b506001609755565b600080611d6760355490565b90508015611d915780611d78611a35565b611d829085614654565b611d8c9190614689565b610deb565b5090919050565b600080611da3611a35565b61010254909150611860906001600160a01b031682613431565b60c9546001600160a01b0316331480611de0575060ff546001600160a01b031633145b611dfc5760405162461bcd60e51b8152600401610dc190614564565b60655460ff1615611e1f5760405162461bcd60e51b8152600401610dc190614591565b6101085461010c54811015611e625760405162461bcd60e51b81526020600482015260096024820152681d1bdbc81cdb585b1b60ba1b6044820152606401610dc1565b6101105461010f54611e74919061469d565b421015611ebc5760405162461bcd60e51b8152602060048201526016602482015275139bdd0818589b19481d1bc81c995919595b481e595d60521b6044820152606401610dc1565b6000611ec7826134ff565b9050806101086000828254611edc91906145d1565b90915550504261010f5560405181907f702d5967f45f6513a38ffc42d6ba9bf230bd40e8f53b16363c7eb4fd2deb9a4490600090a25050565b600080611f20611a35565b90508015611d915780611d7860355490565b6000611f3e6001613600565b90508015611f56576000805461ff0019166101001790555b611fd46040518060400160405280600f81526020016e29aa249029ba30b5b4b7339021272160891b8152506040518060400160405280600881526020016739ba34a9ba21272160c11b81525086868673eeeeeeeeeeeeeeeeeeeeeeeeeeeeeeeeeeeeeeee73ab56897fe4e9f0757e02b54c27e81b9ddd6a30ae6120b6565b61012c80546001600160a01b031916733c9205b5d4b312ca7c4d28110c91fe2c74718a941790556212750061010a55610104546103e890612017906103ea614654565b6120219190614689565b61010b556101055461010c55620151806101125561012c5461010354612056916001600160a01b03918216911660001961368d565b801561209c576000805461ff0019169055604051600181527f7f26b83ff96e1f2b6a682f133852f6798a09c465da95921460cefb38474024989060200160405180910390a15b50505050565b6000806120ad611681565b50909392505050565b60006120c26001613600565b905080156120da576000805461ff0019166101001790555b6001600160a01b0386166121235760405162461bcd60e51b815260206004820152601060248201526f1d1c99585cdd5c9e481a5b9d985b1a5960821b6044820152606401610dc1565b61212b6137e4565b612133613814565b61213d888861383b565b6107d060fb5560fe80546001600160a01b038089166001600160a01b03199283161790925560ff80548884169083161790556101008054878416908316179055610102805486841690831681179091556101038054938616939092169290921790556121a890613889565b61010360146101000a81548160ff021916908360ff16021790555061010360009054906101000a90046001600160a01b03166001600160a01b031663313ce5676040518163ffffffff1660e01b815260040160206040518083038186803b15801561221257600080fd5b505afa158015612226573d6000803e3d6000fd5b505050506040513d601f19601f8201168201806040525081019061224a919061472f565b610103805460ff60a81b1916600160a81b60ff93841602179081905561227a91600160a01b90910416600a61482e565b610104556101035461229790600160a81b900460ff16600a61482e565b61010555600161010b81905561010c556122af6131d3565b80156122f5576000805461ff0019169055604051600181527f7f26b83ff96e1f2b6a682f133852f6798a09c465da95921460cefb38474024989060200160405180910390a15b5050505050505050565b60008181526101146020908152604080832081516060810183528154808252600183015494820185905260029092015492810183905261010a5491939291859190829061234c908561469d565b9050428111156123675761236042826145d1565b9250612385565b600061237a612374610e6f565b88613035565b111561238557600196505b505091939590929450565b60c9546001600160a01b03163314806123b3575060ff546001600160a01b031633145b6123cf5760405162461bcd60e51b8152600401610dc190614564565b60655460ff16156123f25760405162461bcd60e51b8152600401610dc190614591565b6123fa61392d565b611a1e565b6001600160a01b03918216600090815260346020908152604080832093909416825291909152205490565b6000806060600260975414156124525760405162461bcd60e51b8152600401610dc19061461d565b60026097556000612461610e6f565b85519091506000908067ffffffffffffffff81111561248257612482614291565b6040519080825280602002602001820160405280156124ab578160200160208202803683370190505b50935060005b818110156126ab5760008882815181106124cd576124cd61483d565b60209081029190910101516101015460405163430c208160e01b8152336004820152602481018390529192506001600160a01b03169063430c20819060440160206040518083038186803b15801561252457600080fd5b505afa158015612538573d6000803e3d6000fd5b505050506040513d601f19601f8201168201806040525081019061255c91906146ce565b6125665750612699565b600081815261011460209081526040918290208251606081018452815481526001820154928101929092526002015491810182905261010a5490916125ab919061469d565b4210156125b9575050612699565b80516125c58782613035565b9550856125d457505050612699565b6125de868b61469d565b99506125ea86886145d1565b96508061010760008282546125ff91906145d1565b909155505061010154604051630852cd8d60e31b8152600481018590526001600160a01b03909116906342966c6890602401600060405180830381600087803b15801561264b57600080fd5b505af115801561265f573d6000803e3d6000fd5b50505050888061266e90614853565b99505060018885815181106126855761268561483d565b911515602092830291909101909101525050505b806126a381614853565b9150506124b1565b5085156126ec576126bc3387612fe7565b6040518590879033907f1230003b239f7686d92a5b33084711bef8ae5f401f3d27f049d9196a138d448290600090a45b50506001609755509193909250565b60c9546001600160a01b031633148061271e575060ff546001600160a01b031633145b61273a5760405162461bcd60e51b8152600401610dc190614564565b60655460ff161561275d5760405162461bcd60e51b8152600401610dc190614591565b610dca6139a2565b60c9546001600160a01b0316331461278f5760405162461bcd60e51b8152600401610dc1906145e8565b6001600160a01b0381166127f45760405162461bcd60e51b815260206004820152602660248201527f4f776e61626c653a206e6577206f776e657220697320746865207a65726f206160448201526564647265737360d01b6064820152608401610dc1565b6115a68161320e565b60c9546001600160a01b031633146128275760405162461bcd60e51b8152600401610dc1906145e8565b610101546001600160a01b03161561286f5760405162461bcd60e51b815260206004820152600b60248201526a105b1c9958591e481cd95d60aa1b6044820152606401610dc1565b61010180546001600160a01b0319166001600160a01b0392909216919091179055565b600260975414156128b55760405162461bcd60e51b8152600401610dc19061461d565b600260975560655460ff16156128dd5760405162461bcd60e51b8152600401610dc190614591565b6128e733346132db565b6001609755565b60c9546001600160a01b0316331480612911575060ff546001600160a01b031633145b61292d5760405162461bcd60e51b8152600401610dc190614564565b60655460ff1661294f5760405162461bcd60e51b8152600401610dc1906146f0565b6129576117d0565b156129b05760405162461bcd60e51b815260206004820152602360248201527f456d657267656e637920756e626f6e64696e67206973206e6f742066696e69736044820152621a195960ea1b6064820152608401610dc1565b6129b8613a2e565b600061010955610dca6139a2565b6001600160a01b038316612a285760405162461bcd60e51b8152602060048201526024808201527f45524332303a20617070726f76652066726f6d20746865207a65726f206164646044820152637265737360e01b6064820152608401610dc1565b6001600160a01b038216612a895760405162461bcd60e51b815260206004820152602260248201527f45524332303a20617070726f766520746f20746865207a65726f206164647265604482015261737360f01b6064820152608401610dc1565b6001600160a01b0383811660008181526034602090815260408083209487168084529482529182902085905590518481527f8c5be1e5ebec7d5bd14f71427d1e84f3dd0314c0f7b2291e5b200ac8c7c3b92591015b60405180910390a3505050565b6000612af784846123ff565b9050600019811461209c5781811015612b525760405162461bcd60e51b815260206004820152601d60248201527f45524332303a20696e73756666696369656e7420616c6c6f77616e63650000006044820152606401610dc1565b61209c84848484036129c6565b6001600160a01b038316612bc35760405162461bcd60e51b815260206004820152602560248201527f45524332303a207472616e736665722066726f6d20746865207a65726f206164604482015264647265737360d81b6064820152608401610dc1565b6001600160a01b038216612c255760405162461bcd60e51b815260206004820152602360248201527f45524332303a207472616e7366657220746f20746865207a65726f206164647260448201526265737360e81b6064820152608401610dc1565b6001600160a01b03831660009081526033602052604090205481811015612c9d5760405162461bcd60e51b815260206004820152602660248201527f45524332303a207472616e7366657220616d6f756e7420657863656564732062604482015265616c616e636560d01b6064820152608401610dc1565b6001600160a01b03808516600090815260336020526040808220858503905591851681529081208054849290612cd490849061469d565b92505081905550826001600160a01b0316846001600160a01b03167fddf252ad1be2c89b69c2b068fc378daa952ba7f163c4a11628f55a4df523b3ef84604051612d2091815260200190565b60405180910390a361209c565b600080612d3930612d6f565b61010754909150808211612d4e576000612d58565b612d5881836145d1565b9250505090565b600081831015611d915781610deb565b610102546000906001600160a01b031673eeeeeeeeeeeeeeeeeeeeeeeeeeeeeeeeeeeeeeee1415612daa57816001600160a01b031631610d7c565b610102546040516370a0823160e01b81526001600160a01b038481166004830152909116906370a082319060240160206040518083038186803b158015612df057600080fd5b505afa158015612e04573d6000803e3d6000fd5b505050506040513d601f19601f82011682018060405250810190610d7c91906146b5565b6001600160a01b038216612e885760405162461bcd60e51b815260206004820152602160248201527f45524332303a206275726e2066726f6d20746865207a65726f206164647265736044820152607360f81b6064820152608401610dc1565b6001600160a01b03821660009081526033602052604090205481811015612efc5760405162461bcd60e51b815260206004820152602260248201527f45524332303a206275726e20616d6f756e7420657863656564732062616c616e604482015261636560f01b6064820152608401610dc1565b6001600160a01b0383166000908152603360205260408120838303905560358054849290612f2b9084906145d1565b90915550506040518281526000906001600160a01b038516907fddf252ad1be2c89b69c2b068fc378daa952ba7f163c4a11628f55a4df523b3ef90602001612ade565b505050565b60fc54600182151514612fa3578260fc5411612f90576000612fb1565b8260fc54612f9e91906145d1565b612fb1565b8260fc54612fb1919061469d565b60fc8190556040518291907f07b7fa586c4fdef11992d9448b97ba78814c23ddec7e1d4bf195fda6716e472690600090a3505050565b610102546001600160a01b031673eeeeeeeeeeeeeeeeeeeeeeeeeeeeeeeeeeeeeeee141561301d576130198282613a81565b5050565b61010254613019906001600160a01b03168383613b34565b6000806305f5e10061304b846305f5e0ff614654565b6130559190614689565b905080841061306d5761306884846131ff565b613070565b60005b949350505050565b6000613082611a35565b60fc549091506000818311156130e457600061309e83856145d1565b905061271060fb54826130b19190614654565b6130bb9190614689565b91508160fd60008282546130cf919061469d565b909155506130df905082856145d1565b60fc55505b42610111556040518190839085907fa3e3c8c92ed1e364d04865f99cd96c3ae8f5a7d800f4a1d8148a58c6de6f1b7190600090a4505050565b6000613127610df2565b60fd54909150801580159061313b57508115155b156131cf57808281101561315e576000915061315781846145d1565b9250613171565b61316883836145d1565b60009390925090505b60fd82905561010683905560fe54613192906001600160a01b031682612fe7565b610102546040516001600160a01b039091169082907f6e027f1905abd7233c51c9483e29a545074ed10d39db528c9791a246b26741ff90600090a3505b5090565b60008060006131e0611681565b9250925092508015612f6e575061011591909155610116554261011755565b6000818310611d915781610deb565b60c980546001600160a01b038381166001600160a01b0319831681179093556040519116919082907f8be0079c531659141344cd1fd0a4f28419497f9722a3daafe3b4186f6b6457e090600090a35050565b6101105461010f54613272919061469d565b4210610dca5761010854600061328782613b64565b9050808211156132a05761329b81836145d1565b6132a3565b60005b610108554261010f5560405181907f99d7f8b71cfb9126984f7a5eed3a40e64a8959e9b0e442221546fb04ec6a489c90600090a25050565b6000811161331c5760405162461bcd60e51b815260206004820152600e60248201526d125b9d985b1a5908185b5bdd5b9d60921b6044820152606401610dc1565b6001600160a01b03808316600090815261011360205260409020439055610102541673eeeeeeeeeeeeeeeeeeeeeeeeeeeeeeeeeeeeeeee146133715761010254613371906001600160a01b0316833084613c72565b806101066000828254613384919061469d565b909155506000905081613395611a35565b61339f91906145d1565b905060006133ac60355490565b905060008215806133bb575081155b6133d957826133ca8386614654565b6133d49190614689565b6133db565b835b90506133e78582613caa565b6133f2846001612f73565b8084866001600160a01b03167f90890809c654f11d6e72a28fa60149770a0d11ec6c92319d6ceb2bb0a4ea1a1560405160405180910390a45050505050565b6101005460405163b3596f0760e01b81526001600160a01b038481166004830152600092839283929091169063b3596f0790602401604080518083038186803b15801561347d57600080fd5b505afa158015613491573d6000803e3d6000fd5b505050506040513d601f19601f820116820180604052508101906134b5919061486e565b9150915060006134c486613889565b90506134d182600a61482e565b836134e1878460ff166012613d89565b6134eb9190614654565b6134f59190614689565b9695505050505050565b610103546040516370a0823160e01b815230600482015282916000916001600160a01b03909116906370a082319060240160206040518083038186803b15801561354857600080fd5b505afa15801561355c573d6000803e3d6000fd5b505050506040513d601f19601f8201168201806040525081019061358091906146b5565b905080156135fa5761012c546001600160a01b03166381c180b78285116135a757846135a9565b825b6040518263ffffffff1660e01b81526004016135c791815260200190565b600060405180830381600087803b1580156135e157600080fd5b505af11580156135f5573d6000803e3d6000fd5b505050505b50919050565b60008054610100900460ff1615613647578160ff1660011480156136235750303b155b61363f5760405162461bcd60e51b8152600401610dc190614891565b506000919050565b60005460ff80841691161061366e5760405162461bcd60e51b8152600401610dc190614891565b506000805460ff191660ff92909216919091179055600190565b919050565b8015806137165750604051636eb1769f60e11b81523060048201526001600160a01b03838116602483015284169063dd62ed3e9060440160206040518083038186803b1580156136dc57600080fd5b505afa1580156136f0573d6000803e3d6000fd5b505050506040513d601f19601f8201168201806040525081019061371491906146b5565b155b6137815760405162461bcd60e51b815260206004820152603660248201527f5361666545524332303a20617070726f76652066726f6d206e6f6e2d7a65726f60448201527520746f206e6f6e2d7a65726f20616c6c6f77616e636560501b6064820152608401610dc1565b6040516001600160a01b038316602482015260448101829052612f6e90849063095ea7b360e01b906064015b60408051601f198184030181529190526020810180516001600160e01b03166001600160e01b031990931692909217909152613de7565b600054610100900460ff1661380b5760405162461bcd60e51b8152600401610dc1906148df565b610dca3361320e565b600054610100900460ff166128e75760405162461bcd60e51b8152600401610dc1906148df565b600054610100900460ff166138625760405162461bcd60e51b8152600401610dc1906148df565b815161387590603690602085019061405a565b508051612f6e90603790602084019061405a565b60006001600160a01b03821673eeeeeeeeeeeeeeeeeeeeeeeeeeeeeeeeeeeeeeee1461392557816001600160a01b031663313ce5676040518163ffffffff1660e01b815260040160206040518083038186803b1580156138e857600080fd5b505afa1580156138fc573d6000803e3d6000fd5b505050506040513d601f19601f82011682018060405250810190613920919061472f565b610d7c565b601292915050565b60655460ff16156139505760405162461bcd60e51b8152600401610dc190614591565b6065805460ff191660011790557f62e78cea01bee320cd4e420270b5ea74000d11b0c9f74754ebdbfc544b05a2586139853390565b6040516001600160a01b03909116815260200160405180910390a1565b6139aa613078565b60006139b461311d565b905061010b5481101580156139da575061010e5461010d546139d6919061469d565b4210155b156115a65760006139ea82613eb9565b90506139f681836145d1565b610106554261010d5560405181907fa09b7ae452b7bffb9e204c3a016e80caeecf46f554d112644f36fa114dac6ffa90600090a25050565b60655460ff16613a505760405162461bcd60e51b8152600401610dc1906146f0565b6065805460ff191690557f5db9ee0a495bf2e6ff9c91a7834c1ba4fdd244a5e8aa4e537bd38aeae4b073aa33613985565b604080516000808252602082019092526001600160a01b038416908390604051613aab919061492a565b60006040518083038185875af1925050503d8060008114613ae8576040519150601f19603f3d011682016040523d82523d6000602084013e613aed565b606091505b5050905080612f6e5760405162461bcd60e51b8152602060048201526013602482015272115512081d1c985b9cd9995c8819985a5b1959606a1b6044820152606401610dc1565b6040516001600160a01b038316602482015260448101829052612f6e90849063a9059cbb60e01b906064016137ad565b610103546040516370a0823160e01b815230600482015260009182916001600160a01b03909116906370a082319060240160206040518083038186803b158015613bad57600080fd5b505afa158015613bc1573d6000803e3d6000fd5b505050506040513d601f19601f82011682018060405250810190613be591906146b5565b905061010c5481106135fa5761012c546040516381c180b760e01b8152600481018390526001600160a01b03909116906381c180b790602401600060405180830381600087803b158015613c3857600080fd5b505af1158015613c4c573d6000803e3d6000fd5b50505050828111613c5e576000613c68565b613c6883826145d1565b6101095592915050565b6040516001600160a01b038085166024830152831660448201526064810182905261209c9085906323b872dd60e01b906084016137ad565b6001600160a01b038216613d005760405162461bcd60e51b815260206004820152601f60248201527f45524332303a206d696e7420746f20746865207a65726f2061646472657373006044820152606401610dc1565b8060356000828254613d12919061469d565b90915550506001600160a01b03821660009081526033602052604081208054839290613d3f90849061469d565b90915550506040518181526001600160a01b038316906000907fddf252ad1be2c89b69c2b068fc378daa952ba7f163c4a11628f55a4df523b3ef9060200160405180910390a35050565b600081831415613d9a575082610deb565b81831015613dc857613dac83836145d1565b613db790600a614946565b613dc19085614654565b9050610deb565b613dd282846145d1565b613ddd90600a614946565b613dc19085614689565b6000613e3c826040518060400160405280602081526020017f5361666545524332303a206c6f772d6c6576656c2063616c6c206661696c6564815250856001600160a01b0316613f469092919063ffffffff16565b805190915015612f6e5780806020019051810190613e5a91906146ce565b612f6e5760405162461bcd60e51b815260206004820152602a60248201527f5361666545524332303a204552433230206f7065726174696f6e20646964206e6044820152691bdd081cdd58d8d9595960b21b6064820152608401610dc1565b6000613eca6402540be40083614952565b613ed490836145d1565b915061012c60009054906101000a90046001600160a01b03166001600160a01b0316639f893188836040518263ffffffff1660e01b81526004016000604051808303818588803b158015613f2757600080fd5b505af1158015613f3b573d6000803e3d6000fd5b509495945050505050565b60606130708484600085856001600160a01b0385163b613fa85760405162461bcd60e51b815260206004820152601d60248201527f416464726573733a2063616c6c20746f206e6f6e2d636f6e74726163740000006044820152606401610dc1565b600080866001600160a01b03168587604051613fc4919061492a565b60006040518083038185875af1925050503d8060008114614001576040519150601f19603f3d011682016040523d82523d6000602084013e614006565b606091505b5091509150614016828286614021565b979650505050505050565b60608315614030575081610deb565b8251156140405782518084602001fd5b8160405162461bcd60e51b8152600401610dc19190614116565b8280546140669061452f565b90600052602060002090601f01602090048101928261408857600085556140ce565b82601f106140a157805160ff19168380011785556140ce565b828001600101855582156140ce579182015b828111156140ce5782518255916020019190600101906140b3565b506131cf9291505b808211156131cf57600081556001016140d6565b60005b838110156141055781810151838201526020016140ed565b8381111561209c5750506000910152565b60208152600082518060208401526141358160408501602087016140ea565b601f01601f19169190910160400192915050565b80356001600160a01b038116811461368857600080fd5b6000806040838503121561417357600080fd5b61417c83614149565b946020939093013593505050565b60008060006060848603121561419f57600080fd5b6141a884614149565b92506141b660208501614149565b9150604084013590509250925092565b600080600080608085870312156141dc57600080fd5b5050823594602084013594506040840135936060013592509050565b60006020828403121561420a57600080fd5b5035919050565b60006020828403121561422357600080fd5b610deb82614149565b6000806040838503121561423f57600080fd5b50508035926020909101359150565b60008060006060848603121561426357600080fd5b61426c84614149565b925061427a60208501614149565b915061428860408501614149565b90509250925092565b634e487b7160e01b600052604160045260246000fd5b604051601f8201601f1916810167ffffffffffffffff811182821017156142d0576142d0614291565b604052919050565b600082601f8301126142e957600080fd5b813567ffffffffffffffff81111561430357614303614291565b614316601f8201601f19166020016142a7565b81815284602083860101111561432b57600080fd5b816020850160208301376000918101602001919091529392505050565b600080600080600080600060e0888a03121561436357600080fd5b873567ffffffffffffffff8082111561437b57600080fd5b6143878b838c016142d8565b985060208a013591508082111561439d57600080fd5b506143aa8a828b016142d8565b9650506143b960408901614149565b94506143c760608901614149565b93506143d560808901614149565b92506143e360a08901614149565b91506143f160c08901614149565b905092959891949750929550565b6000806040838503121561441257600080fd5b61441b83614149565b915061442960208401614149565b90509250929050565b6000602080838503121561444557600080fd5b823567ffffffffffffffff8082111561445d57600080fd5b818501915085601f83011261447157600080fd5b81358181111561448357614483614291565b8060051b91506144948483016142a7565b81815291830184019184810190888411156144ae57600080fd5b938501935b838510156144cc578435825293850193908501906144b3565b98975050505050505050565b6000606082018583526020858185015260606040850152818551808452608086019150828701935060005b81811015614521578451151583529383019391830191600101614503565b509098975050505050505050565b600181811c9082168061454357607f821691505b602082108114156135fa57634e487b7160e01b600052602260045260246000fd5b60208082526013908201527227b7363c9037bbb732b91037b91030b236b4b760691b604082015260600190565b60208082526010908201526f14185d5cd8589b194e881c185d5cd95960821b604082015260600190565b634e487b7160e01b600052601160045260246000fd5b6000828210156145e3576145e36145bb565b500390565b6020808252818101527f4f776e61626c653a2063616c6c6572206973206e6f7420746865206f776e6572604082015260600190565b6020808252601f908201527f5265656e7472616e637947756172643a207265656e7472616e742063616c6c00604082015260600190565b600081600019048311821515161561466e5761466e6145bb565b500290565b634e487b7160e01b600052601260045260246000fd5b60008261469857614698614673565b500490565b600082198211156146b0576146b06145bb565b500190565b6000602082840312156146c757600080fd5b5051919050565b6000602082840312156146e057600080fd5b81518015158114610deb57600080fd5b60208082526014908201527314185d5cd8589b194e881b9bdd081c185d5cd95960621b604082015260600190565b805160ff8116811461368857600080fd5b60006020828403121561474157600080fd5b610deb8261471e565b600181815b8085111561478557816000190482111561476b5761476b6145bb565b8085161561477857918102915b93841c939080029061474f565b509250929050565b60008261479c57506001610d7c565b816147a957506000610d7c565b81600181146147bf57600281146147c9576147e5565b6001915050610d7c565b60ff8411156147da576147da6145bb565b50506001821b610d7c565b5060208310610133831016604e8410600b8410161715614808575081810a610d7c565b614812838361474a565b8060001904821115614826576148266145bb565b029392505050565b6000610deb60ff84168361478d565b634e487b7160e01b600052603260045260246000fd5b6000600019821415614867576148676145bb565b5060010190565b6000806040838503121561488157600080fd5b825191506144296020840161471e565b6020808252602e908201527f496e697469616c697a61626c653a20636f6e747261637420697320616c72656160408201526d191e481a5b9a5d1a585b1a5e995960921b606082015260800190565b6020808252602b908201527f496e697469616c697a61626c653a20636f6e7472616374206973206e6f74206960408201526a6e697469616c697a696e6760a81b606082015260800190565b6000825161493c8184602087016140ea565b9190910192915050565b6000610deb838361478d565b60008261496157614961614673565b50069056fea26469706673582212209e19e38f88be4e04c91325d4687d592bdfbcf141db4bcafa0513e075bd31f89f64736f6c63430008090033",
  "devdoc": {
    "kind": "dev",
    "methods": {
      "allowance(address,address)": {
        "details": "See {IERC20-allowance}."
      },
      "approve(address,uint256)": {
        "details": "See {IERC20-approve}. NOTE: If `amount` is the maximum `uint256`, the allowance is not updated on `transferFrom`. This is semantically equivalent to an infinite approval. Requirements: - `spender` cannot be the zero address."
      },
      "balanceOf(address)": {
        "details": "See {IERC20-balanceOf}."
      },
      "claim(uint256)": {
        "details": "claim token with NFT token",
        "returns": {
          "_amount": "is the amount of claimed token."
        }
      },
      "claimMulti(uint256[])": {
        "details": "claim token with NFT tokens",
        "returns": {
          "_amount": "is the amount of claimed token.",
          "_claimed": "is the flag indicating whether the token is claimed.",
          "_claimedCount": "is the count of reqIds that are claimed."
        }
      },
      "claimUnbonded()": {
        "details": "claim the unbonded tokens from the staking pool. It's called by admin."
      },
      "collectProfitAndUpdateWatermark()": {
        "details": "collect profit and update the watermark"
      },
      "decimals()": {
        "details": "Returns the number of decimals used to get its user representation. For example, if `decimals` equals `2`, a balance of `505` tokens should be displayed to a user as `5.05` (`505 / 10 ** 2`). Tokens usually opt for a value of 18, imitating the relationship between Ether and Wei. This is the value {ERC20} uses, unless this function is overridden; NOTE: This information is only used for _display_ purposes: it in no way affects any of the arithmetic of the contract, including {IERC20-balanceOf} and {IERC20-transfer}."
      },
      "decreaseAllowance(address,uint256)": {
        "details": "Atomically decreases the allowance granted to `spender` by the caller. This is an alternative to {approve} that can be used as a mitigation for problems described in {IERC20-approve}. Emits an {Approval} event indicating the updated allowance. Requirements: - `spender` cannot be the zero address. - `spender` must have allowance for the caller of at least `subtractedValue`."
      },
      "deposit(uint256)": {
        "details": "deposit `_amount` of token."
      },
      "depositETH()": {
        "details": "deposit the native asset."
      },
      "emergencyPendingRedeems()": {
        "details": "the total amount of emergency withdrawal stToken that is not yet requested to the staking pool."
      },
      "emergencyRedeem()": {
        "details": "In emergency mode, redeem the rest of stTokens. Especially it's needed for stNEAR because the MetaPool has a buffer limit."
      },
      "getAPR()": {
        "returns": {
          "_0": "the APR in the vault. It's scaled by 1e18."
        }
      },
      "getAllPool()": {
        "details": "it doesn't include the unbonding stTokens according to the burnt shares."
      },
      "getAllPoolInUSD()": {
        "returns": {
          "_0": "the total USD value of tokens in the vault."
        }
      },
      "getPoolByShares(uint256)": {
        "returns": {
          "_0": "the amount of token that corresponds to `_shares` of shares."
        }
      },
      "getPooledTokenByStToken(uint256)": {
        "params": {
          "_stAmount": "Amount of stTokens"
        }
      },
      "getSharesByPool(uint256)": {
        "returns": {
          "_0": "the amount of shares that corresponds to `_amount` of token."
        }
      },
      "getStTokenByPooledToken(uint256)": {
        "params": {
          "_amount": "Amount of tokens"
        }
      },
      "getTokenUnbonded()": {
        "returns": {
          "_0": "the unbonded token amount that is claimable from the staking pool."
        }
      },
      "getWithdrawRequest(uint256)": {
        "returns": {
          "_claimable": "specifys whether user can claim tokens for it.",
          "_requestTs": "is timestmap when withdrawal requested.",
          "_stTokenAmt": "is amount of stToken to redeem.",
          "_tokenAmt": "is amount of token to claim.",
          "_waitForTs": "is timestamp to wait for."
        }
      },
      "increaseAllowance(address,uint256)": {
        "details": "Atomically increases the allowance granted to `spender` by the caller. This is an alternative to {approve} that can be used as a mitigation for problems described in {IERC20-approve}. Emits an {Approval} event indicating the updated allowance. Requirements: - `spender` cannot be the zero address."
      },
      "invest()": {
        "details": "stake the buffered deposits into the staking pool. It's called by admin."
      },
      "name()": {
        "details": "Returns the name of the token."
      },
      "owner()": {
        "details": "Returns the address of the current owner."
      },
      "paused()": {
        "details": "Returns true if the contract is paused, and false otherwise."
      },
      "redeem()": {
        "details": "redeem the requested withdrawals from the staking pool. It's called by admin."
      },
      "renounceOwnership()": {
        "details": "Leaves the contract without owner. It will not be possible to call `onlyOwner` functions anymore. Can only be called by the current owner. NOTE: Renouncing ownership will leave the contract without an owner, thereby removing any functionality that is only available to the owner."
      },
      "setFee(uint256)": {
        "params": {
          "_yieldFeePerc": "deposit fee percentage. 2000 for 20%"
        }
      },
      "symbol()": {
        "details": "Returns the symbol of the token, usually a shorter version of the name."
      },
      "totalSupply()": {
        "details": "See {IERC20-totalSupply}."
      },
      "transfer(address,uint256)": {
        "details": "See {IERC20-transfer}. Requirements: - `to` cannot be the zero address. - the caller must have a balance of at least `amount`."
      },
      "transferFrom(address,address,uint256)": {
        "details": "See {IERC20-transferFrom}. Emits an {Approval} event indicating the updated allowance. This is not required by the EIP. See the note at the beginning of {ERC20}. NOTE: Does not update the allowance if the current allowance is the maximum `uint256`. Requirements: - `from` and `to` cannot be the zero address. - `from` must have a balance of at least `amount`. - the caller must have allowance for ``from``'s tokens of at least `amount`."
      },
      "transferOwnership(address)": {
        "details": "Transfers ownership of the contract to a new account (`newOwner`). Can only be called by the current owner."
      },
      "withdraw(uint256)": {
        "details": "request a withdrawal that corresponds to `_shares` of shares.",
        "returns": {
          "_amount": "is the amount of withdrawn token.",
          "_reqId": "is the NFT token id indicating the request for rest of withdrawal. 0 if no request is made."
        }
      },
      "withdrawFees()": {
        "details": "transfer out fees."
      },
      "yield()": {
        "details": "take rewards and reinvest them. It's called by admin."
      }
    },
    "version": 1
  },
  "userdoc": {
    "kind": "user",
    "methods": {
      "emergencyWithdraw()": {
        "notice": "Withdraws funds staked in mirror to this vault and pauses deposit, yield, invest functions"
      },
      "getPendingRewards()": {
        "notice": "Returns the pending rewards in USD."
      },
      "reinvest()": {
        "notice": "Unpauses deposit, yield, invest functions, and invests funds."
      },
      "setFee(uint256)": {
        "notice": "Function to set deposit and yield fee"
      }
    },
    "version": 1
  },
  "storageLayout": {
    "storage": [
      {
        "astId": 713,
        "contract": "contracts/stVaults/ankr/BscStBNBVaultTest.sol:BscStBNBVaultTest",
        "label": "_initialized",
        "offset": 0,
        "slot": "0",
        "type": "t_uint8"
      },
      {
        "astId": 716,
        "contract": "contracts/stVaults/ankr/BscStBNBVaultTest.sol:BscStBNBVaultTest",
        "label": "_initializing",
        "offset": 1,
        "slot": "0",
        "type": "t_bool"
      },
      {
        "astId": 3292,
        "contract": "contracts/stVaults/ankr/BscStBNBVaultTest.sol:BscStBNBVaultTest",
        "label": "__gap",
        "offset": 0,
        "slot": "1",
        "type": "t_array(t_uint256)50_storage"
      },
      {
        "astId": 1037,
        "contract": "contracts/stVaults/ankr/BscStBNBVaultTest.sol:BscStBNBVaultTest",
        "label": "_balances",
        "offset": 0,
        "slot": "51",
        "type": "t_mapping(t_address,t_uint256)"
      },
      {
        "astId": 1043,
        "contract": "contracts/stVaults/ankr/BscStBNBVaultTest.sol:BscStBNBVaultTest",
        "label": "_allowances",
        "offset": 0,
        "slot": "52",
        "type": "t_mapping(t_address,t_mapping(t_address,t_uint256))"
      },
      {
        "astId": 1045,
        "contract": "contracts/stVaults/ankr/BscStBNBVaultTest.sol:BscStBNBVaultTest",
        "label": "_totalSupply",
        "offset": 0,
        "slot": "53",
        "type": "t_uint256"
      },
      {
        "astId": 1047,
        "contract": "contracts/stVaults/ankr/BscStBNBVaultTest.sol:BscStBNBVaultTest",
        "label": "_name",
        "offset": 0,
        "slot": "54",
        "type": "t_string_storage"
      },
      {
        "astId": 1049,
        "contract": "contracts/stVaults/ankr/BscStBNBVaultTest.sol:BscStBNBVaultTest",
        "label": "_symbol",
        "offset": 0,
        "slot": "55",
        "type": "t_string_storage"
      },
      {
        "astId": 1628,
        "contract": "contracts/stVaults/ankr/BscStBNBVaultTest.sol:BscStBNBVaultTest",
        "label": "__gap",
        "offset": 0,
        "slot": "56",
        "type": "t_array(t_uint256)45_storage"
      },
      {
        "astId": 869,
        "contract": "contracts/stVaults/ankr/BscStBNBVaultTest.sol:BscStBNBVaultTest",
        "label": "_paused",
        "offset": 0,
        "slot": "101",
        "type": "t_bool"
      },
      {
        "astId": 958,
        "contract": "contracts/stVaults/ankr/BscStBNBVaultTest.sol:BscStBNBVaultTest",
        "label": "__gap",
        "offset": 0,
        "slot": "102",
        "type": "t_array(t_uint256)49_storage"
      },
      {
        "astId": 973,
        "contract": "contracts/stVaults/ankr/BscStBNBVaultTest.sol:BscStBNBVaultTest",
        "label": "_status",
        "offset": 0,
        "slot": "151",
        "type": "t_uint256"
      },
      {
        "astId": 1017,
        "contract": "contracts/stVaults/ankr/BscStBNBVaultTest.sol:BscStBNBVaultTest",
        "label": "__gap",
        "offset": 0,
        "slot": "152",
        "type": "t_array(t_uint256)49_storage"
      },
      {
        "astId": 593,
        "contract": "contracts/stVaults/ankr/BscStBNBVaultTest.sol:BscStBNBVaultTest",
        "label": "_owner",
        "offset": 0,
        "slot": "201",
        "type": "t_address"
      },
      {
        "astId": 705,
        "contract": "contracts/stVaults/ankr/BscStBNBVaultTest.sol:BscStBNBVaultTest",
        "label": "__gap",
        "offset": 0,
        "slot": "202",
        "type": "t_array(t_uint256)49_storage"
      },
      {
        "astId": 37477,
        "contract": "contracts/stVaults/ankr/BscStBNBVaultTest.sol:BscStBNBVaultTest",
        "label": "yieldFee",
        "offset": 0,
        "slot": "251",
        "type": "t_uint256"
      },
      {
        "astId": 37479,
        "contract": "contracts/stVaults/ankr/BscStBNBVaultTest.sol:BscStBNBVaultTest",
        "label": "watermark",
        "offset": 0,
        "slot": "252",
        "type": "t_uint256"
      },
      {
        "astId": 37481,
        "contract": "contracts/stVaults/ankr/BscStBNBVaultTest.sol:BscStBNBVaultTest",
        "label": "fees",
        "offset": 0,
        "slot": "253",
        "type": "t_uint256"
      },
      {
        "astId": 37483,
        "contract": "contracts/stVaults/ankr/BscStBNBVaultTest.sol:BscStBNBVaultTest",
        "label": "treasuryWallet",
        "offset": 0,
        "slot": "254",
        "type": "t_address"
      },
      {
        "astId": 37485,
        "contract": "contracts/stVaults/ankr/BscStBNBVaultTest.sol:BscStBNBVaultTest",
        "label": "admin",
        "offset": 0,
        "slot": "255",
        "type": "t_address"
      },
      {
        "astId": 37488,
        "contract": "contracts/stVaults/ankr/BscStBNBVaultTest.sol:BscStBNBVaultTest",
        "label": "priceOracle",
        "offset": 0,
        "slot": "256",
        "type": "t_contract(IPriceOracle)11910"
      },
      {
        "astId": 37491,
        "contract": "contracts/stVaults/ankr/BscStBNBVaultTest.sol:BscStBNBVaultTest",
        "label": "nft",
        "offset": 0,
        "slot": "257",
        "type": "t_contract(IStVaultNFT)66253"
      },
      {
        "astId": 37494,
        "contract": "contracts/stVaults/ankr/BscStBNBVaultTest.sol:BscStBNBVaultTest",
        "label": "token",
        "offset": 0,
        "slot": "258",
        "type": "t_contract(IERC20Upgradeable)1707"
      },
      {
        "astId": 37497,
        "contract": "contracts/stVaults/ankr/BscStBNBVaultTest.sol:BscStBNBVaultTest",
        "label": "stToken",
        "offset": 0,
        "slot": "259",
        "type": "t_contract(IERC20Upgradeable)1707"
      },
      {
        "astId": 37499,
        "contract": "contracts/stVaults/ankr/BscStBNBVaultTest.sol:BscStBNBVaultTest",
        "label": "tokenDecimals",
        "offset": 20,
        "slot": "259",
        "type": "t_uint8"
      },
      {
        "astId": 37501,
        "contract": "contracts/stVaults/ankr/BscStBNBVaultTest.sol:BscStBNBVaultTest",
        "label": "stTokenDecimals",
        "offset": 21,
        "slot": "259",
        "type": "t_uint8"
      },
      {
        "astId": 37503,
        "contract": "contracts/stVaults/ankr/BscStBNBVaultTest.sol:BscStBNBVaultTest",
        "label": "oneToken",
        "offset": 0,
        "slot": "260",
        "type": "t_uint256"
      },
      {
        "astId": 37505,
        "contract": "contracts/stVaults/ankr/BscStBNBVaultTest.sol:BscStBNBVaultTest",
        "label": "oneStToken",
        "offset": 0,
        "slot": "261",
        "type": "t_uint256"
      },
      {
        "astId": 37507,
        "contract": "contracts/stVaults/ankr/BscStBNBVaultTest.sol:BscStBNBVaultTest",
        "label": "bufferedDeposits",
        "offset": 0,
        "slot": "262",
        "type": "t_uint256"
      },
      {
        "astId": 37509,
        "contract": "contracts/stVaults/ankr/BscStBNBVaultTest.sol:BscStBNBVaultTest",
        "label": "pendingWithdrawals",
        "offset": 0,
        "slot": "263",
        "type": "t_uint256"
      },
      {
        "astId": 37511,
        "contract": "contracts/stVaults/ankr/BscStBNBVaultTest.sol:BscStBNBVaultTest",
        "label": "pendingRedeems",
        "offset": 0,
        "slot": "264",
        "type": "t_uint256"
      },
      {
        "astId": 37513,
        "contract": "contracts/stVaults/ankr/BscStBNBVaultTest.sol:BscStBNBVaultTest",
        "label": "emergencyUnbondings",
        "offset": 0,
        "slot": "265",
        "type": "t_uint256"
      },
      {
        "astId": 37515,
        "contract": "contracts/stVaults/ankr/BscStBNBVaultTest.sol:BscStBNBVaultTest",
        "label": "unbondingPeriod",
        "offset": 0,
        "slot": "266",
        "type": "t_uint256"
      },
      {
        "astId": 37517,
        "contract": "contracts/stVaults/ankr/BscStBNBVaultTest.sol:BscStBNBVaultTest",
        "label": "minInvestAmount",
        "offset": 0,
        "slot": "267",
        "type": "t_uint256"
      },
      {
        "astId": 37519,
        "contract": "contracts/stVaults/ankr/BscStBNBVaultTest.sol:BscStBNBVaultTest",
        "label": "minRedeemAmount",
        "offset": 0,
        "slot": "268",
        "type": "t_uint256"
      },
      {
        "astId": 37521,
        "contract": "contracts/stVaults/ankr/BscStBNBVaultTest.sol:BscStBNBVaultTest",
        "label": "lastInvestTs",
        "offset": 0,
        "slot": "269",
        "type": "t_uint256"
      },
      {
        "astId": 37523,
        "contract": "contracts/stVaults/ankr/BscStBNBVaultTest.sol:BscStBNBVaultTest",
        "label": "investInterval",
        "offset": 0,
        "slot": "270",
        "type": "t_uint256"
      },
      {
        "astId": 37525,
        "contract": "contracts/stVaults/ankr/BscStBNBVaultTest.sol:BscStBNBVaultTest",
        "label": "lastRedeemTs",
        "offset": 0,
        "slot": "271",
        "type": "t_uint256"
      },
      {
        "astId": 37527,
        "contract": "contracts/stVaults/ankr/BscStBNBVaultTest.sol:BscStBNBVaultTest",
        "label": "redeemInterval",
        "offset": 0,
        "slot": "272",
        "type": "t_uint256"
      },
      {
        "astId": 37529,
        "contract": "contracts/stVaults/ankr/BscStBNBVaultTest.sol:BscStBNBVaultTest",
        "label": "lastCollectProfitTs",
        "offset": 0,
        "slot": "273",
        "type": "t_uint256"
      },
      {
        "astId": 37531,
        "contract": "contracts/stVaults/ankr/BscStBNBVaultTest.sol:BscStBNBVaultTest",
        "label": "oneEpoch",
        "offset": 0,
        "slot": "274",
        "type": "t_uint256"
      },
      {
        "astId": 37535,
        "contract": "contracts/stVaults/ankr/BscStBNBVaultTest.sol:BscStBNBVaultTest",
        "label": "depositedBlock",
        "offset": 0,
        "slot": "275",
        "type": "t_mapping(t_address,t_uint256)"
      },
      {
        "astId": 37540,
        "contract": "contracts/stVaults/ankr/BscStBNBVaultTest.sol:BscStBNBVaultTest",
        "label": "nft2WithdrawRequest",
        "offset": 0,
        "slot": "276",
        "type": "t_mapping(t_uint256,t_struct(WithdrawRequest)65955_storage)"
      },
      {
        "astId": 37542,
        "contract": "contracts/stVaults/ankr/BscStBNBVaultTest.sol:BscStBNBVaultTest",
        "label": "baseApr",
        "offset": 0,
        "slot": "277",
        "type": "t_uint256"
      },
      {
        "astId": 37544,
        "contract": "contracts/stVaults/ankr/BscStBNBVaultTest.sol:BscStBNBVaultTest",
        "label": "baseTokenRate",
        "offset": 0,
        "slot": "278",
        "type": "t_uint256"
      },
      {
        "astId": 37546,
        "contract": "contracts/stVaults/ankr/BscStBNBVaultTest.sol:BscStBNBVaultTest",
        "label": "baseAprLastUpdate",
        "offset": 0,
        "slot": "279",
        "type": "t_uint256"
      },
      {
        "astId": 39638,
        "contract": "contracts/stVaults/ankr/BscStBNBVaultTest.sol:BscStBNBVaultTest",
        "label": "__gap",
        "offset": 0,
        "slot": "280",
        "type": "t_array(t_uint256)20_storage"
      },
      {
        "astId": 41742,
        "contract": "contracts/stVaults/ankr/BscStBNBVaultTest.sol:BscStBNBVaultTest",
        "label": "binancePool",
        "offset": 0,
        "slot": "300",
        "type": "t_contract(IBinancePool)41710"
      }
    ],
    "types": {
      "t_address": {
        "encoding": "inplace",
        "label": "address",
        "numberOfBytes": "20"
      },
      "t_array(t_uint256)20_storage": {
        "base": "t_uint256",
        "encoding": "inplace",
        "label": "uint256[20]",
        "numberOfBytes": "640"
      },
      "t_array(t_uint256)45_storage": {
        "base": "t_uint256",
        "encoding": "inplace",
        "label": "uint256[45]",
        "numberOfBytes": "1440"
      },
      "t_array(t_uint256)49_storage": {
        "base": "t_uint256",
        "encoding": "inplace",
        "label": "uint256[49]",
        "numberOfBytes": "1568"
      },
      "t_array(t_uint256)50_storage": {
        "base": "t_uint256",
        "encoding": "inplace",
        "label": "uint256[50]",
        "numberOfBytes": "1600"
      },
      "t_bool": {
        "encoding": "inplace",
        "label": "bool",
        "numberOfBytes": "1"
      },
      "t_contract(IBinancePool)41710": {
        "encoding": "inplace",
        "label": "contract IBinancePool",
        "numberOfBytes": "20"
      },
      "t_contract(IERC20Upgradeable)1707": {
        "encoding": "inplace",
        "label": "contract IERC20Upgradeable",
        "numberOfBytes": "20"
      },
      "t_contract(IPriceOracle)11910": {
        "encoding": "inplace",
        "label": "contract IPriceOracle",
        "numberOfBytes": "20"
      },
      "t_contract(IStVaultNFT)66253": {
        "encoding": "inplace",
        "label": "contract IStVaultNFT",
        "numberOfBytes": "20"
      },
      "t_mapping(t_address,t_mapping(t_address,t_uint256))": {
        "encoding": "mapping",
        "key": "t_address",
        "label": "mapping(address => mapping(address => uint256))",
        "numberOfBytes": "32",
        "value": "t_mapping(t_address,t_uint256)"
      },
      "t_mapping(t_address,t_uint256)": {
        "encoding": "mapping",
        "key": "t_address",
        "label": "mapping(address => uint256)",
        "numberOfBytes": "32",
        "value": "t_uint256"
      },
      "t_mapping(t_uint256,t_struct(WithdrawRequest)65955_storage)": {
        "encoding": "mapping",
        "key": "t_uint256",
        "label": "mapping(uint256 => struct IStVault.WithdrawRequest)",
        "numberOfBytes": "32",
        "value": "t_struct(WithdrawRequest)65955_storage"
      },
      "t_string_storage": {
        "encoding": "bytes",
        "label": "string",
        "numberOfBytes": "32"
      },
      "t_struct(WithdrawRequest)65955_storage": {
        "encoding": "inplace",
        "label": "struct IStVault.WithdrawRequest",
        "members": [
          {
            "astId": 65950,
            "contract": "contracts/stVaults/ankr/BscStBNBVaultTest.sol:BscStBNBVaultTest",
            "label": "tokenAmt",
            "offset": 0,
            "slot": "0",
            "type": "t_uint256"
          },
          {
            "astId": 65952,
            "contract": "contracts/stVaults/ankr/BscStBNBVaultTest.sol:BscStBNBVaultTest",
            "label": "stTokenAmt",
            "offset": 0,
            "slot": "1",
            "type": "t_uint256"
          },
          {
            "astId": 65954,
            "contract": "contracts/stVaults/ankr/BscStBNBVaultTest.sol:BscStBNBVaultTest",
            "label": "requestTs",
            "offset": 0,
            "slot": "2",
            "type": "t_uint256"
          }
        ],
        "numberOfBytes": "96"
      },
      "t_uint256": {
        "encoding": "inplace",
        "label": "uint256",
        "numberOfBytes": "32"
      },
      "t_uint8": {
        "encoding": "inplace",
        "label": "uint8",
        "numberOfBytes": "1"
      }
    }
  }
}