{
  "address": "0x5ebA3C31fcb419D97cD4EEd836F0fA201F18353f",
  "abi": [
    {
      "inputs": [
        {
          "internalType": "address",
          "name": "_logic",
          "type": "address"
        }
      ],
      "stateMutability": "nonpayable",
      "type": "constructor"
    },
    {
      "anonymous": false,
      "inputs": [
        {
          "indexed": true,
          "internalType": "address",
          "name": "previousOwner",
          "type": "address"
        },
        {
          "indexed": true,
          "internalType": "address",
          "name": "newOwner",
          "type": "address"
        }
      ],
      "name": "OwnershipTransferred",
      "type": "event"
    },
    {
      "inputs": [
        {
          "internalType": "bytes",
          "name": "_data",
          "type": "bytes"
        }
      ],
      "name": "createVault",
      "outputs": [
        {
          "internalType": "address",
          "name": "_proxyAddress",
          "type": "address"
        }
      ],
      "stateMutability": "nonpayable",
      "type": "function"
    },
    {
      "inputs": [],
      "name": "getBeacon",
      "outputs": [
        {
          "internalType": "address",
          "name": "",
          "type": "address"
        }
      ],
      "stateMutability": "view",
      "type": "function"
    },
    {
      "inputs": [
        {
          "internalType": "uint256",
          "name": "_index",
          "type": "uint256"
        }
      ],
      "name": "getVault",
      "outputs": [
        {
          "internalType": "address",
          "name": "",
          "type": "address"
        }
      ],
      "stateMutability": "view",
      "type": "function"
    },
    {
      "inputs": [],
      "name": "owner",
      "outputs": [
        {
          "internalType": "address",
          "name": "",
          "type": "address"
        }
      ],
      "stateMutability": "view",
      "type": "function"
    },
    {
      "inputs": [],
      "name": "renounceOwnership",
      "outputs": [],
      "stateMutability": "nonpayable",
      "type": "function"
    },
    {
      "inputs": [],
      "name": "totalVaults",
      "outputs": [
        {
          "internalType": "uint256",
          "name": "",
          "type": "uint256"
        }
      ],
      "stateMutability": "view",
      "type": "function"
    },
    {
      "inputs": [
        {
          "internalType": "address",
          "name": "newOwner",
          "type": "address"
        }
      ],
      "name": "transferOwnership",
      "outputs": [],
      "stateMutability": "nonpayable",
      "type": "function"
    },
    {
      "inputs": [
        {
          "internalType": "address",
          "name": "_newImpl",
          "type": "address"
        }
      ],
      "name": "updateLogic",
      "outputs": [],
      "stateMutability": "nonpayable",
      "type": "function"
    },
    {
      "inputs": [
        {
          "internalType": "uint256",
          "name": "",
          "type": "uint256"
        }
      ],
      "name": "vaults",
      "outputs": [
        {
          "internalType": "address",
          "name": "",
          "type": "address"
        }
      ],
      "stateMutability": "view",
      "type": "function"
    }
  ],
  "transactionHash": "0xe6fcd0ce17b47e54d9d7427ab21dee9f4d30273f689ebccc1637d75a772ab22e",
  "args": [
    "0x0eDE164e5c79BC52519cEe511D000d89F56aA1fa"
  ],
  "numDeployments": 2,
  "solcInputHash": "ca62f8cce64d42393107cc385284d2bf",
  "bytecode": "0x60a060405234801561001057600080fd5b506040516116d83803806116d883398101604081905261002f916100e1565b61003833610084565b80604051610045906100d4565b6001600160a01b039091168152602001604051809103906000f080158015610071573d6000803e3d6000fd5b506001600160a01b031660805250610111565b600080546001600160a01b038381166001600160a01b0319831681178455604051919092169283917f8be0079c531659141344cd1fd0a4f28419497f9722a3daafe3b4186f6b6457e09190a35050565b610529806111af83390190565b6000602082840312156100f357600080fd5b81516001600160a01b038116811461010a57600080fd5b9392505050565b6080516110766101396000396000818160a601528181610216015261030701526110766000f3fe60806040523480156200001157600080fd5b50600436106200009f5760003560e01c80638d654023116200006e5780638d654023146200011d5780638da5cb5b146200012f5780639403b6341462000141578063c6cc49f81462000158578063f2fde38b146200016f57600080fd5b80632d6b3a6b14620000a4578063715018a614620000e3578063795e617e14620000ef5780638c64ea4a1462000106575b600080fd5b7f00000000000000000000000000000000000000000000000000000000000000005b6040516001600160a01b0390911681526020015b60405180910390f35b620000ed62000186565b005b620000ed620001003660046200053b565b620001ca565b620000c6620001173660046200056d565b62000277565b600154604051908152602001620000da565b6000546001600160a01b0316620000c6565b620000c6620001523660046200056d565b620002a2565b620000c66200016936600462000587565b620002d5565b620000ed620001803660046200053b565b6200043b565b6000546001600160a01b03163314620001bc5760405162461bcd60e51b8152600401620001b390620005fe565b60405180910390fd5b620001c86000620004dd565b565b6000546001600160a01b03163314620001f75760405162461bcd60e51b8152600401620001b390620005fe565b604051631b2ce7f360e11b81526001600160a01b0382811660048301527f00000000000000000000000000000000000000000000000000000000000000001690633659cfe690602401600060405180830381600087803b1580156200025b57600080fd5b505af115801562000270573d6000803e3d6000fd5b5050505050565b600181815481106200028857600080fd5b6000918252602090912001546001600160a01b0316905081565b600060018281548110620002ba57620002ba62000633565b6000918252602090912001546001600160a01b031692915050565b600080546001600160a01b03163314620003035760405162461bcd60e51b8152600401620001b390620005fe565b60007f0000000000000000000000000000000000000000000000000000000000000000848460405162000336906200052d565b620003449392919062000649565b604051809103906000f08015801562000361573d6000803e3d6000fd5b509050809150816001600160a01b031663f2fde38b620003896000546001600160a01b031690565b6040516001600160e01b031960e084901b1681526001600160a01b039091166004820152602401600060405180830381600087803b158015620003cb57600080fd5b505af1158015620003e0573d6000803e3d6000fd5b50506001805480820182556000919091527fb10e2d527612073b26eecdfd717e6a320cf44b4afac2b0732d9fcbe2b7fa0cf60180546001600160a01b0319166001600160a01b03949094169390931790925550909392505050565b6000546001600160a01b03163314620004685760405162461bcd60e51b8152600401620001b390620005fe565b6001600160a01b038116620004cf5760405162461bcd60e51b815260206004820152602660248201527f4f776e61626c653a206e6577206f776e657220697320746865207a65726f206160448201526564647265737360d01b6064820152608401620001b3565b620004da81620004dd565b50565b600080546001600160a01b038381166001600160a01b0319831681178455604051919092169283917f8be0079c531659141344cd1fd0a4f28419497f9722a3daafe3b4186f6b6457e09190a35050565b6109b7806200068a83390190565b6000602082840312156200054e57600080fd5b81356001600160a01b03811681146200056657600080fd5b9392505050565b6000602082840312156200058057600080fd5b5035919050565b600080602083850312156200059b57600080fd5b823567ffffffffffffffff80821115620005b457600080fd5b818501915085601f830112620005c957600080fd5b813581811115620005d957600080fd5b866020828501011115620005ec57600080fd5b60209290920196919550909350505050565b6020808252818101527f4f776e61626c653a2063616c6c6572206973206e6f7420746865206f776e6572604082015260600190565b634e487b7160e01b600052603260045260246000fd5b6001600160a01b03841681526040602082018190528101829052818360608301376000818301606090810191909152601f909201601f191601019291505056fe60806040526040516109b73803806109b7833981016040819052610022916104a9565b61004d60017fa3f0ad74e5423aebfd80d3ef4346578335a9a72aeaee59ff6cb3582b35133d51610569565b600080516020610970833981519152146100695761006961058e565b6100758282600061007c565b505061060e565b61008583610156565b6040516001600160a01b038416907f1cf3b03a6cf19fa2baba4df148e9dcabedea7f8a5c07840e207e5c089be95d3e90600090a26000825111806100c65750805b156101515761014f836001600160a01b0316635c60da1b6040518163ffffffff1660e01b815260040160206040518083038186803b15801561010757600080fd5b505afa15801561011b573d6000803e3d6000fd5b505050506040513d601f19601f8201168201806040525081019061013f91906105a4565b836102f660201b6100291760201c565b505b505050565b6101698161032260201b6100551760201c565b6101c85760405162461bcd60e51b815260206004820152602560248201527f455243313936373a206e657720626561636f6e206973206e6f74206120636f6e6044820152641d1c9858dd60da1b60648201526084015b60405180910390fd5b61024b816001600160a01b0316635c60da1b6040518163ffffffff1660e01b815260040160206040518083038186803b15801561020457600080fd5b505afa158015610218573d6000803e3d6000fd5b505050506040513d601f19601f8201168201806040525081019061023c91906105a4565b61032260201b6100551760201c565b6102b05760405162461bcd60e51b815260206004820152603060248201527f455243313936373a20626561636f6e20696d706c656d656e746174696f6e206960448201526f1cc81b9bdd08184818dbdb9d1c9858dd60821b60648201526084016101bf565b806102d560008051602061097083398151915260001b61033160201b6100641760201c565b80546001600160a01b0319166001600160a01b039290921691909117905550565b606061031b838360405180606001604052806027815260200161099060279139610334565b9392505050565b6001600160a01b03163b151590565b90565b60606001600160a01b0384163b61039c5760405162461bcd60e51b815260206004820152602660248201527f416464726573733a2064656c65676174652063616c6c20746f206e6f6e2d636f6044820152651b9d1c9858dd60d21b60648201526084016101bf565b600080856001600160a01b0316856040516103b791906105bf565b600060405180830381855af49150503d80600081146103f2576040519150601f19603f3d011682016040523d82523d6000602084013e6103f7565b606091505b509092509050610408828286610412565b9695505050505050565b6060831561042157508161031b565b8251156104315782518084602001fd5b8160405162461bcd60e51b81526004016101bf91906105db565b80516001600160a01b038116811461046257600080fd5b919050565b634e487b7160e01b600052604160045260246000fd5b60005b83811015610498578181015183820152602001610480565b8381111561014f5750506000910152565b600080604083850312156104bc57600080fd5b6104c58361044b565b60208401519092506001600160401b03808211156104e257600080fd5b818501915085601f8301126104f657600080fd5b81518181111561050857610508610467565b604051601f8201601f19908116603f0116810190838211818310171561053057610530610467565b8160405282815288602084870101111561054957600080fd5b61055a83602083016020880161047d565b80955050505050509250929050565b60008282101561058957634e487b7160e01b600052601160045260246000fd5b500390565b634e487b7160e01b600052600160045260246000fd5b6000602082840312156105b657600080fd5b61031b8261044b565b600082516105d181846020870161047d565b9190910192915050565b60208152600082518060208401526105fa81604085016020870161047d565b601f01601f19169190910160400192915050565b6103538061061d6000396000f3fe60806040523661001357610011610017565b005b6100115b610027610022610067565b61010f565b565b606061004e83836040518060600160405280602781526020016102f760279139610133565b9392505050565b6001600160a01b03163b151590565b90565b600061009a7fa3f0ad74e5423aebfd80d3ef4346578335a9a72aeaee59ff6cb3582b35133d50546001600160a01b031690565b6001600160a01b0316635c60da1b6040518163ffffffff1660e01b815260040160206040518083038186803b1580156100d257600080fd5b505afa1580156100e6573d6000803e3d6000fd5b505050506040513d601f19601f8201168201806040525081019061010a919061024e565b905090565b3660008037600080366000845af43d6000803e80801561012e573d6000f35b3d6000fd5b60606001600160a01b0384163b6101a05760405162461bcd60e51b815260206004820152602660248201527f416464726573733a2064656c65676174652063616c6c20746f206e6f6e2d636f6044820152651b9d1c9858dd60d21b60648201526084015b60405180910390fd5b600080856001600160a01b0316856040516101bb91906102a7565b600060405180830381855af49150503d80600081146101f6576040519150601f19603f3d011682016040523d82523d6000602084013e6101fb565b606091505b509150915061020b828286610215565b9695505050505050565b6060831561022457508161004e565b8251156102345782518084602001fd5b8160405162461bcd60e51b815260040161019791906102c3565b60006020828403121561026057600080fd5b81516001600160a01b038116811461004e57600080fd5b60005b8381101561029257818101518382015260200161027a565b838111156102a1576000848401525b50505050565b600082516102b9818460208701610277565b9190910192915050565b60208152600082518060208401526102e2816040850160208701610277565b601f01601f1916919091016040019291505056fe416464726573733a206c6f772d6c6576656c2064656c65676174652063616c6c206661696c6564a2646970667358221220369c11c1804b0b713ddb3c0907666cd5daedef47c721d74e72360c761ba1e8ee64736f6c63430008090033a3f0ad74e5423aebfd80d3ef4346578335a9a72aeaee59ff6cb3582b35133d50416464726573733a206c6f772d6c6576656c2064656c65676174652063616c6c206661696c6564a26469706673582212202bd8f90ab810fa6184cec6dc7497c7da25ebebc2f88e52a8629ae12cbd80172864736f6c63430008090033608060405234801561001057600080fd5b5060405161052938038061052983398101604081905261002f91610151565b61003833610047565b61004181610097565b50610181565b600080546001600160a01b038381166001600160a01b0319831681178455604051919092169283917f8be0079c531659141344cd1fd0a4f28419497f9722a3daafe3b4186f6b6457e09190a35050565b6100aa8161014260201b61020a1760201c565b6101205760405162461bcd60e51b815260206004820152603360248201527f5570677261646561626c65426561636f6e3a20696d706c656d656e746174696f60448201527f6e206973206e6f74206120636f6e747261637400000000000000000000000000606482015260840160405180910390fd5b600180546001600160a01b0319166001600160a01b0392909216919091179055565b6001600160a01b03163b151590565b60006020828403121561016357600080fd5b81516001600160a01b038116811461017a57600080fd5b9392505050565b610399806101906000396000f3fe608060405234801561001057600080fd5b50600436106100575760003560e01c80633659cfe61461005c5780635c60da1b14610071578063715018a61461009a5780638da5cb5b146100a2578063f2fde38b146100b3575b600080fd5b61006f61006a3660046102fe565b6100c6565b005b6001546001600160a01b03165b6040516001600160a01b03909116815260200160405180910390f35b61006f610139565b6000546001600160a01b031661007e565b61006f6100c13660046102fe565b61016f565b6000546001600160a01b031633146100f95760405162461bcd60e51b81526004016100f09061032e565b60405180910390fd5b61010281610219565b6040516001600160a01b038216907fbc7cd75a20ee27fd9adebab32041f755214dbc6bffa90cc0225b39da2e5c2d3b90600090a250565b6000546001600160a01b031633146101635760405162461bcd60e51b81526004016100f09061032e565b61016d60006102ae565b565b6000546001600160a01b031633146101995760405162461bcd60e51b81526004016100f09061032e565b6001600160a01b0381166101fe5760405162461bcd60e51b815260206004820152602660248201527f4f776e61626c653a206e6577206f776e657220697320746865207a65726f206160448201526564647265737360d01b60648201526084016100f0565b610207816102ae565b50565b6001600160a01b03163b151590565b6001600160a01b0381163b61028c5760405162461bcd60e51b815260206004820152603360248201527f5570677261646561626c65426561636f6e3a20696d706c656d656e746174696f6044820152721b881a5cc81b9bdd08184818dbdb9d1c9858dd606a1b60648201526084016100f0565b600180546001600160a01b0319166001600160a01b0392909216919091179055565b600080546001600160a01b038381166001600160a01b0319831681178455604051919092169283917f8be0079c531659141344cd1fd0a4f28419497f9722a3daafe3b4186f6b6457e09190a35050565b60006020828403121561031057600080fd5b81356001600160a01b038116811461032757600080fd5b9392505050565b6020808252818101527f4f776e61626c653a2063616c6c6572206973206e6f7420746865206f776e657260408201526060019056fea2646970667358221220499363d6ac5bbf87c128a3ce7af69949853454dbe053dc7ddeb7a09898141d4464736f6c63430008090033",
  "devdoc": {
    "kind": "dev",
    "methods": {
      "owner()": {
        "details": "Returns the address of the current owner."
      },
      "renounceOwnership()": {
        "details": "Leaves the contract without owner. It will not be possible to call `onlyOwner` functions anymore. Can only be called by the current owner. NOTE: Renouncing ownership will leave the contract without an owner, thereby removing any functionality that is only available to the owner."
      },
      "transferOwnership(address)": {
        "details": "Transfers ownership of the contract to a new account (`newOwner`). Can only be called by the current owner."
      }
    },
    "version": 1
  },
  "userdoc": {
    "kind": "user",
    "methods": {},
    "version": 1
  },
  "storageLayout": {
    "storage": [
      {
        "astId": 7,
        "contract": "contracts/lci/deps/Factory.sol:BscVaultFactory",
        "label": "_owner",
        "offset": 0,
        "slot": "0",
        "type": "t_address"
      },
      {
        "astId": 1047,
        "contract": "contracts/lci/deps/Factory.sol:BscVaultFactory",
        "label": "vaults",
        "offset": 0,
        "slot": "1",
        "type": "t_array(t_address)dyn_storage"
      }
    ],
    "types": {
      "t_address": {
        "encoding": "inplace",
        "label": "address",
        "numberOfBytes": "20"
      },
      "t_array(t_address)dyn_storage": {
        "base": "t_address",
        "encoding": "dynamic_array",
        "label": "address[]",
        "numberOfBytes": "32"
      }
    }
  }
}