{
  "address": "0xB536f65746cAcfb4EcCaCafd5F912BDdF230551C",
  "abi": [
    {
      "anonymous": false,
      "inputs": [
        {
          "indexed": true,
          "internalType": "address",
          "name": "owner",
          "type": "address"
        },
        {
          "indexed": true,
          "internalType": "address",
          "name": "spender",
          "type": "address"
        },
        {
          "indexed": false,
          "internalType": "uint256",
          "name": "value",
          "type": "uint256"
        }
      ],
      "name": "Approval",
      "type": "event"
    },
    {
      "anonymous": false,
      "inputs": [
        {
          "indexed": false,
          "internalType": "address",
          "name": "_user",
          "type": "address"
        },
        {
          "indexed": false,
          "internalType": "uint256",
          "name": "_amount",
          "type": "uint256"
        },
        {
          "indexed": false,
          "internalType": "uint256",
          "name": "_shares",
          "type": "uint256"
        }
      ],
      "name": "Deposit",
      "type": "event"
    },
    {
      "anonymous": false,
      "inputs": [
        {
          "indexed": false,
          "internalType": "uint256",
          "name": "_amount",
          "type": "uint256"
        }
      ],
      "name": "EmergencyWithdraw",
      "type": "event"
    },
    {
      "anonymous": false,
      "inputs": [
        {
          "indexed": false,
          "internalType": "uint8",
          "name": "version",
          "type": "uint8"
        }
      ],
      "name": "Initialized",
      "type": "event"
    },
    {
      "anonymous": false,
      "inputs": [
        {
          "indexed": false,
          "internalType": "uint256",
          "name": "_amount",
          "type": "uint256"
        }
      ],
      "name": "Invest",
      "type": "event"
    },
    {
      "anonymous": false,
      "inputs": [
        {
          "indexed": true,
          "internalType": "address",
          "name": "previousOwner",
          "type": "address"
        },
        {
          "indexed": true,
          "internalType": "address",
          "name": "newOwner",
          "type": "address"
        }
      ],
      "name": "OwnershipTransferred",
      "type": "event"
    },
    {
      "anonymous": false,
      "inputs": [
        {
          "indexed": false,
          "internalType": "address",
          "name": "account",
          "type": "address"
        }
      ],
      "name": "Paused",
      "type": "event"
    },
    {
      "anonymous": false,
      "inputs": [
        {
          "indexed": false,
          "internalType": "address",
          "name": "_oldAdmin",
          "type": "address"
        },
        {
          "indexed": false,
          "internalType": "address",
          "name": "_newAdmin",
          "type": "address"
        }
      ],
      "name": "SetAdmin",
      "type": "event"
    },
    {
      "anonymous": false,
      "inputs": [
        {
          "indexed": false,
          "internalType": "address",
          "name": "_wallet",
          "type": "address"
        }
      ],
      "name": "SetTreasuryWallet",
      "type": "event"
    },
    {
      "anonymous": false,
      "inputs": [
        {
          "indexed": false,
          "internalType": "uint256",
          "name": "_fee",
          "type": "uint256"
        }
      ],
      "name": "SetYieldFeePerc",
      "type": "event"
    },
    {
      "anonymous": false,
      "inputs": [
        {
          "indexed": true,
          "internalType": "address",
          "name": "from",
          "type": "address"
        },
        {
          "indexed": true,
          "internalType": "address",
          "name": "to",
          "type": "address"
        },
        {
          "indexed": false,
          "internalType": "uint256",
          "name": "value",
          "type": "uint256"
        }
      ],
      "name": "Transfer",
      "type": "event"
    },
    {
      "anonymous": false,
      "inputs": [
        {
          "indexed": false,
          "internalType": "address",
          "name": "account",
          "type": "address"
        }
      ],
      "name": "Unpaused",
      "type": "event"
    },
    {
      "anonymous": false,
      "inputs": [
        {
          "indexed": false,
          "internalType": "address",
          "name": "_user",
          "type": "address"
        },
        {
          "indexed": false,
          "internalType": "uint256",
          "name": "_amount",
          "type": "uint256"
        },
        {
          "indexed": false,
          "internalType": "uint256",
          "name": "_shares",
          "type": "uint256"
        }
      ],
      "name": "Withdraw",
      "type": "event"
    },
    {
      "anonymous": false,
      "inputs": [
        {
          "indexed": false,
          "internalType": "uint256",
          "name": "_amount",
          "type": "uint256"
        }
      ],
      "name": "Yield",
      "type": "event"
    },
    {
      "anonymous": false,
      "inputs": [
        {
          "indexed": false,
          "internalType": "uint256",
          "name": "_amount",
          "type": "uint256"
        }
      ],
      "name": "YieldFee",
      "type": "event"
    },
    {
      "inputs": [],
      "name": "CAKE",
      "outputs": [
        {
          "internalType": "contract IERC20Upgradeable",
          "name": "",
          "type": "address"
        }
      ],
      "stateMutability": "view",
      "type": "function"
    },
    {
      "inputs": [],
      "name": "MasterChefV2",
      "outputs": [
        {
          "internalType": "contract IMasterChefV2",
          "name": "",
          "type": "address"
        }
      ],
      "stateMutability": "view",
      "type": "function"
    },
    {
      "inputs": [],
      "name": "PckRouter",
      "outputs": [
        {
          "internalType": "contract IUniRouter",
          "name": "",
          "type": "address"
        }
      ],
      "stateMutability": "view",
      "type": "function"
    },
    {
      "inputs": [],
      "name": "WBNB",
      "outputs": [
        {
          "internalType": "contract IERC20Upgradeable",
          "name": "",
          "type": "address"
        }
      ],
      "stateMutability": "view",
      "type": "function"
    },
    {
      "inputs": [
        {
          "internalType": "uint256",
          "name": "lpAmt",
          "type": "uint256"
        }
      ],
      "name": "_getValueInBNB",
      "outputs": [
        {
          "internalType": "uint256",
          "name": "_valueInBNB",
          "type": "uint256"
        }
      ],
      "stateMutability": "view",
      "type": "function"
    },
    {
      "inputs": [],
      "name": "admin",
      "outputs": [
        {
          "internalType": "address",
          "name": "",
          "type": "address"
        }
      ],
      "stateMutability": "view",
      "type": "function"
    },
    {
      "inputs": [
        {
          "internalType": "address",
          "name": "owner",
          "type": "address"
        },
        {
          "internalType": "address",
          "name": "spender",
          "type": "address"
        }
      ],
      "name": "allowance",
      "outputs": [
        {
          "internalType": "uint256",
          "name": "",
          "type": "uint256"
        }
      ],
      "stateMutability": "view",
      "type": "function"
    },
    {
      "inputs": [
        {
          "internalType": "address",
          "name": "spender",
          "type": "address"
        },
        {
          "internalType": "uint256",
          "name": "amount",
          "type": "uint256"
        }
      ],
      "name": "approve",
      "outputs": [
        {
          "internalType": "bool",
          "name": "",
          "type": "bool"
        }
      ],
      "stateMutability": "nonpayable",
      "type": "function"
    },
    {
      "inputs": [
        {
          "internalType": "address",
          "name": "account",
          "type": "address"
        }
      ],
      "name": "balanceOf",
      "outputs": [
        {
          "internalType": "uint256",
          "name": "",
          "type": "uint256"
        }
      ],
      "stateMutability": "view",
      "type": "function"
    },
    {
      "inputs": [],
      "name": "decimals",
      "outputs": [
        {
          "internalType": "uint8",
          "name": "",
          "type": "uint8"
        }
      ],
      "stateMutability": "view",
      "type": "function"
    },
    {
      "inputs": [
        {
          "internalType": "address",
          "name": "spender",
          "type": "address"
        },
        {
          "internalType": "uint256",
          "name": "subtractedValue",
          "type": "uint256"
        }
      ],
      "name": "decreaseAllowance",
      "outputs": [
        {
          "internalType": "bool",
          "name": "",
          "type": "bool"
        }
      ],
      "stateMutability": "nonpayable",
      "type": "function"
    },
    {
      "inputs": [
        {
          "internalType": "uint256",
          "name": "_amount",
          "type": "uint256"
        }
      ],
      "name": "deposit",
      "outputs": [],
      "stateMutability": "nonpayable",
      "type": "function"
    },
    {
      "inputs": [],
      "name": "emergencyWithdraw",
      "outputs": [],
      "stateMutability": "nonpayable",
      "type": "function"
    },
    {
      "inputs": [],
      "name": "getAPR",
      "outputs": [
        {
          "internalType": "uint256",
          "name": "",
          "type": "uint256"
        }
      ],
      "stateMutability": "view",
      "type": "function"
    },
    {
      "inputs": [],
      "name": "getAllPool",
      "outputs": [
        {
          "internalType": "uint256",
          "name": "",
          "type": "uint256"
        }
      ],
      "stateMutability": "view",
      "type": "function"
    },
    {
      "inputs": [],
      "name": "getAllPoolInBNB",
      "outputs": [
        {
          "internalType": "uint256",
          "name": "_valueInBNB",
          "type": "uint256"
        }
      ],
      "stateMutability": "view",
      "type": "function"
    },
    {
      "inputs": [],
      "name": "getAllPoolInUSD",
      "outputs": [
        {
          "internalType": "uint256",
          "name": "",
          "type": "uint256"
        }
      ],
      "stateMutability": "view",
      "type": "function"
    },
    {
      "inputs": [],
      "name": "getCakeRewardApr",
      "outputs": [
        {
          "internalType": "uint256",
          "name": "",
          "type": "uint256"
        }
      ],
      "stateMutability": "view",
      "type": "function"
    },
    {
      "inputs": [],
      "name": "getLpRewardApr",
      "outputs": [
        {
          "internalType": "uint256",
          "name": "",
          "type": "uint256"
        },
        {
          "internalType": "uint256",
          "name": "",
          "type": "uint256"
        },
        {
          "internalType": "bool",
          "name": "",
          "type": "bool"
        }
      ],
      "stateMutability": "view",
      "type": "function"
    },
    {
      "inputs": [],
      "name": "getPendingRewards",
      "outputs": [
        {
          "internalType": "uint256",
          "name": "",
          "type": "uint256"
        }
      ],
      "stateMutability": "view",
      "type": "function"
    },
    {
      "inputs": [
        {
          "internalType": "bool",
          "name": "inUSD",
          "type": "bool"
        }
      ],
      "name": "getPricePerFullShare",
      "outputs": [
        {
          "internalType": "uint256",
          "name": "",
          "type": "uint256"
        }
      ],
      "stateMutability": "view",
      "type": "function"
    },
    {
      "inputs": [
        {
          "internalType": "address",
          "name": "spender",
          "type": "address"
        },
        {
          "internalType": "uint256",
          "name": "addedValue",
          "type": "uint256"
        }
      ],
      "name": "increaseAllowance",
      "outputs": [
        {
          "internalType": "bool",
          "name": "",
          "type": "bool"
        }
      ],
      "stateMutability": "nonpayable",
      "type": "function"
    },
    {
      "inputs": [
        {
          "internalType": "string",
          "name": "_name",
          "type": "string"
        },
        {
          "internalType": "string",
          "name": "_symbol",
          "type": "string"
        },
        {
          "internalType": "uint256",
          "name": "_pid",
          "type": "uint256"
        },
        {
          "internalType": "address",
          "name": "_treasury",
          "type": "address"
        },
        {
          "internalType": "address",
          "name": "_admin",
          "type": "address"
        }
      ],
      "name": "initialize",
      "outputs": [],
      "stateMutability": "nonpayable",
      "type": "function"
    },
    {
      "inputs": [],
      "name": "lpDataLastUpdate",
      "outputs": [
        {
          "internalType": "uint256",
          "name": "",
          "type": "uint256"
        }
      ],
      "stateMutability": "view",
      "type": "function"
    },
    {
      "inputs": [],
      "name": "lpReservePerShare",
      "outputs": [
        {
          "internalType": "uint256",
          "name": "",
          "type": "uint256"
        }
      ],
      "stateMutability": "view",
      "type": "function"
    },
    {
      "inputs": [],
      "name": "lpRewardApr",
      "outputs": [
        {
          "internalType": "uint256",
          "name": "",
          "type": "uint256"
        }
      ],
      "stateMutability": "view",
      "type": "function"
    },
    {
      "inputs": [],
      "name": "lpToken",
      "outputs": [
        {
          "internalType": "contract IUniPair",
          "name": "",
          "type": "address"
        }
      ],
      "stateMutability": "view",
      "type": "function"
    },
    {
      "inputs": [],
      "name": "name",
      "outputs": [
        {
          "internalType": "string",
          "name": "",
          "type": "string"
        }
      ],
      "stateMutability": "view",
      "type": "function"
    },
    {
      "inputs": [],
      "name": "owner",
      "outputs": [
        {
          "internalType": "address",
          "name": "",
          "type": "address"
        }
      ],
      "stateMutability": "view",
      "type": "function"
    },
    {
      "inputs": [],
      "name": "paused",
      "outputs": [
        {
          "internalType": "bool",
          "name": "",
          "type": "bool"
        }
      ],
      "stateMutability": "view",
      "type": "function"
    },
    {
      "inputs": [],
      "name": "pid",
      "outputs": [
        {
          "internalType": "uint256",
          "name": "",
          "type": "uint256"
        }
      ],
      "stateMutability": "view",
      "type": "function"
    },
    {
      "inputs": [],
      "name": "reinvest",
      "outputs": [],
      "stateMutability": "nonpayable",
      "type": "function"
    },
    {
      "inputs": [],
      "name": "renounceOwnership",
      "outputs": [],
      "stateMutability": "nonpayable",
      "type": "function"
    },
    {
      "inputs": [],
      "name": "resetLpRewardApr",
      "outputs": [],
      "stateMutability": "nonpayable",
      "type": "function"
    },
    {
      "inputs": [
        {
          "internalType": "address",
          "name": "_newAdmin",
          "type": "address"
        }
      ],
      "name": "setAdmin",
      "outputs": [],
      "stateMutability": "nonpayable",
      "type": "function"
    },
    {
      "inputs": [
        {
          "internalType": "uint256",
          "name": "_yieldFeePerc",
          "type": "uint256"
        }
      ],
      "name": "setFee",
      "outputs": [],
      "stateMutability": "nonpayable",
      "type": "function"
    },
    {
      "inputs": [
        {
          "internalType": "address",
          "name": "_wallet",
          "type": "address"
        }
      ],
      "name": "setTreasuryWallet",
      "outputs": [],
      "stateMutability": "nonpayable",
      "type": "function"
    },
    {
      "inputs": [],
      "name": "symbol",
      "outputs": [
        {
          "internalType": "string",
          "name": "",
          "type": "string"
        }
      ],
      "stateMutability": "view",
      "type": "function"
    },
    {
      "inputs": [],
      "name": "token0",
      "outputs": [
        {
          "internalType": "contract IERC20Upgradeable",
          "name": "",
          "type": "address"
        }
      ],
      "stateMutability": "view",
      "type": "function"
    },
    {
      "inputs": [],
      "name": "token1",
      "outputs": [
        {
          "internalType": "contract IERC20Upgradeable",
          "name": "",
          "type": "address"
        }
      ],
      "stateMutability": "view",
      "type": "function"
    },
    {
      "inputs": [],
      "name": "totalSupply",
      "outputs": [
        {
          "internalType": "uint256",
          "name": "",
          "type": "uint256"
        }
      ],
      "stateMutability": "view",
      "type": "function"
    },
    {
      "inputs": [
        {
          "internalType": "address",
          "name": "to",
          "type": "address"
        },
        {
          "internalType": "uint256",
          "name": "amount",
          "type": "uint256"
        }
      ],
      "name": "transfer",
      "outputs": [
        {
          "internalType": "bool",
          "name": "",
          "type": "bool"
        }
      ],
      "stateMutability": "nonpayable",
      "type": "function"
    },
    {
      "inputs": [
        {
          "internalType": "address",
          "name": "from",
          "type": "address"
        },
        {
          "internalType": "address",
          "name": "to",
          "type": "address"
        },
        {
          "internalType": "uint256",
          "name": "amount",
          "type": "uint256"
        }
      ],
      "name": "transferFrom",
      "outputs": [
        {
          "internalType": "bool",
          "name": "",
          "type": "bool"
        }
      ],
      "stateMutability": "nonpayable",
      "type": "function"
    },
    {
      "inputs": [
        {
          "internalType": "address",
          "name": "newOwner",
          "type": "address"
        }
      ],
      "name": "transferOwnership",
      "outputs": [],
      "stateMutability": "nonpayable",
      "type": "function"
    },
    {
      "inputs": [],
      "name": "treasuryWallet",
      "outputs": [
        {
          "internalType": "address",
          "name": "",
          "type": "address"
        }
      ],
      "stateMutability": "view",
      "type": "function"
    },
    {
      "inputs": [
        {
          "internalType": "uint256",
          "name": "_shares",
          "type": "uint256"
        }
      ],
      "name": "withdraw",
      "outputs": [],
      "stateMutability": "nonpayable",
      "type": "function"
    },
    {
      "inputs": [],
      "name": "yield",
      "outputs": [],
      "stateMutability": "nonpayable",
      "type": "function"
    },
    {
      "inputs": [],
      "name": "yieldFee",
      "outputs": [
        {
          "internalType": "uint256",
          "name": "",
          "type": "uint256"
        }
      ],
      "stateMutability": "view",
      "type": "function"
    }
  ],
  "transactionHash": "0x954cde0c7eb4168b6ec2bc42cad5b87f45a5ddd3daeb3e0be9e82200bd081528",
  "args": [],
  "numDeployments": 3,
  "solcInputHash": "5eaeebd8ca8f8c3ec206e5cef7cfe84a",
  "bytecode": "0x608060405234801561001057600080fd5b50611de7806100206000396000f3fe608060405234801561001057600080fd5b50600436106102a05760003560e01c806372d6460e11610167578063b6b55f25116100ce578063dd62ed3e11610087578063dd62ed3e14610588578063e5653aa11461059b578063f1068454146105b6578063f2fde38b146105bf578063f851a440146105d2578063fdb5a03e146105e657600080fd5b8063b6b55f2514610544578063bd244af4146104bc578063c89d5b8b14610557578063d21220a71461055f578063d9621f9e14610572578063db2e21bc1461058057600080fd5b806395d89b411161012057806395d89b41146104f9578063a20a4cb4146104bc578063a457c2d714610501578063a8602fea14610514578063a9059cbb14610527578063afad96d11461053a57600080fd5b806372d6460e1461048a5780637e77c503146104a957806388ac86b2146104bc5780638b6b7536146104c35780638da5cb5b146104cd5780638dd95002146104de57600080fd5b806331970dd21161020b5780635fcbd285116101c45780635fcbd2851461040557806368fe53561461041857806369fe0e2d14610433578063704b6c021461044657806370a0823114610459578063715018a61461048257600080fd5b806331970dd21461039d57806339509351146103b05780633a197e85146103c35780634626402b146103cb5780634ca6ef28146103df5780635c975abb146103fa57600080fd5b80631f04221c1161025d5780631f04221c1461033957806320f149081461034357806323b872dd1461035e57806328593984146103715780632e1a7d4d1461037b578063313ce5671461038e57600080fd5b8063034f4083146102a557806306fdde03146102c1578063095ea7b3146102d657806309c6c128146102f95780630dfe16811461030657806318160ddd14610331575b600080fd5b6102ae60fb5481565b6040519081526020015b60405180910390f35b6102c96105ee565b6040516102b891906117d3565b6102e96102e436600461183f565b610680565b60405190151581526020016102b8565b6618de76816d80006102ae565b60fe54610319906001600160a01b031681565b6040516001600160a01b0390911681526020016102b8565b6035546102ae565b6102ae6101045481565b6102ae610351366004611869565b50670de0b6b3a764000090565b6102e961036c366004611892565b610698565b6103796106bc565b005b6103796103893660046118ce565b61072a565b604051601281526020016102b8565b6102ae6103ab3660046118ce565b610785565b6102e96103be36600461183f565b61092b565b61037961094d565b61010054610319906001600160a01b031681565b610319730e09fabb73bd3ade0a17ecc321fd13a19e81ce8281565b60975460ff166102e9565b60fd54610319906001600160a01b031681565b6103197310ed43c718714eb63d5aa57b78b54704e256024e81565b6103796104413660046118ce565b61098b565b6103796104543660046118e7565b610a39565b6102ae6104673660046118e7565b6001600160a01b031660009081526033602052604090205490565b610379610ac5565b60408051600080825260208201819052918101919091526060016102b8565b6103796104b73660046119b9565b610af9565b60006102ae565b6102ae6101055481565b6065546001600160a01b0316610319565b61031973bb4cdb9cbd36b01bd1cbaebf2de08d9173bc095c81565b6102c9610bba565b6102e961050f36600461183f565b610bc9565b6103796105223660046118e7565b610c44565b6102e961053536600461183f565b610d04565b6102ae6101035481565b6103796105523660046118ce565b610d12565b6102ae610d8d565b60ff54610319906001600160a01b031681565b678ac7230489e800006102ae565b610379610dd5565b6102ae610596366004611a48565b610e40565b61031973a5f8c5dbd5f286960b9d90548680ae5ebff0765281565b6102ae60fc5481565b6103796105cd3660046118e7565b610e6b565b61010154610319906001600160a01b031681565b610379610f06565b6060603680546105fd90611a7b565b80601f016020809104026020016040519081016040528092919081815260200182805461062990611a7b565b80156106765780601f1061064b57610100808354040283529160200191610676565b820191906000526020600020905b81548152906001019060200180831161065957829003601f168201915b5050505050905090565b60003361068e818585610f97565b5060019392505050565b6000336106a68582856110bb565b6106b1858585611135565b506001949350505050565b6065546001600160a01b03163314806106e05750610101546001600160a01b031633145b6107055760405162461bcd60e51b81526004016106fc90611ab6565b60405180910390fd5b60975460ff16156107285760405162461bcd60e51b81526004016106fc90611ae3565b565b600260c954141561077d5760405162461bcd60e51b815260206004820152601f60248201527f5265656e7472616e637947756172643a207265656e7472616e742063616c6c0060448201526064016106fc565b50600160c955565b60008060fd60009054906101000a90046001600160a01b03166001600160a01b03166318160ddd6040518163ffffffff1660e01b815260040160206040518083038186803b1580156107d657600080fd5b505afa1580156107ea573d6000803e3d6000fd5b505050506040513d601f19601f8201168201806040525081019061080e9190611b0d565b60fd5460408051630240bc6b60e21b8152815193945060009384936001600160a01b031692630902f1ac9260048082019391829003018186803b15801561085457600080fd5b505afa158015610868573d6000803e3d6000fd5b505050506040513d601f19601f8201168201806040525081019061088c9190611b26565b909250905060008361089e8488611b60565b6108a89190611b7f565b90506000846108b78489611b60565b6108c19190611b7f565b60ff549091506108d9906001600160a01b0316611308565b6108e39082611b60565b60fe546108f8906001600160a01b0316611308565b6109029084611b60565b61090c9190611ba1565b9550610920670de0b6b3a764000087611b7f565b979650505050505050565b60003361068e81858561093e8383610e40565b6109489190611ba1565b610f97565b6065546001600160a01b031633146109775760405162461bcd60e51b81526004016106fc90611bb9565b600061010381905561010481905561010555565b6065546001600160a01b031633146109b55760405162461bcd60e51b81526004016106fc90611bb9565b61271081106109fd5760405162461bcd60e51b81526020600482015260146024820152731e5a595b1911995954195c98c81a5b9d985b1a5960621b60448201526064016106fc565b60fb8190556040518181527f5cdc47cbc2be1e35e5429dd646b1e2047ab328f4108873ab71318989f7566ceb906020015b60405180910390a150565b6065546001600160a01b03163314610a635760405162461bcd60e51b81526004016106fc90611bb9565b61010180546001600160a01b038381166001600160a01b031983168117909355604080519190921680825260208201939093527f848ac24ab84501710d6631faab117b66b79aba7ec6f7778cf3bcff428c1a4efc910160405180910390a15050565b6065546001600160a01b03163314610aef5760405162461bcd60e51b81526004016106fc90611bb9565b610728600061148f565b6000610b0560016114e1565b90508015610b1d576000805461ff0019166101001790555b610b278686611569565b610b2f61159e565b6107d060fb5560fc84905561010080546001600160a01b038086166001600160a01b0319928316179092556101018054928516929091169190911790558015610bb2576000805461ff0019169055604051600181527f7f26b83ff96e1f2b6a682f133852f6798a09c465da95921460cefb38474024989060200160405180910390a15b505050505050565b6060603780546105fd90611a7b565b60003381610bd78286610e40565b905083811015610c375760405162461bcd60e51b815260206004820152602560248201527f45524332303a2064656372656173656420616c6c6f77616e63652062656c6f77604482015264207a65726f60d81b60648201526084016106fc565b6106b18286868403610f97565b6065546001600160a01b03163314610c6e5760405162461bcd60e51b81526004016106fc90611bb9565b6001600160a01b038116610cb55760405162461bcd60e51b815260206004820152600e60248201526d1dd85b1b195d081a5b9d985b1a5960921b60448201526064016106fc565b61010080546001600160a01b0319166001600160a01b0383169081179091556040519081527f60edc991b058a7e279075cf86f19a6b478334efec47e089d09890b139c78232790602001610a2e565b60003361068e818585611135565b600260c9541415610d655760405162461bcd60e51b815260206004820152601f60248201527f5265656e7472616e637947756172643a207265656e7472616e742063616c6c0060448201526064016106fc565b600260c95560975460ff161561077d5760405162461bcd60e51b81526004016106fc90611ae3565b600080806618de76816d8000905061271060fb54612710610dae9190611bee565b610db89083611b60565b610dc29190611b7f565b9050610dce8183611ba1565b9250505090565b6065546001600160a01b0316331480610df95750610101546001600160a01b031633145b610e155760405162461bcd60e51b81526004016106fc90611ab6565b60975460ff1615610e385760405162461bcd60e51b81526004016106fc90611ae3565b6107286115cd565b6001600160a01b03918216600090815260346020908152604080832093909416825291909152205490565b6065546001600160a01b03163314610e955760405162461bcd60e51b81526004016106fc90611bb9565b6001600160a01b038116610efa5760405162461bcd60e51b815260206004820152602660248201527f4f776e61626c653a206e6577206f776e657220697320746865207a65726f206160448201526564647265737360d01b60648201526084016106fc565b610f038161148f565b50565b6065546001600160a01b0316331480610f2a5750610101546001600160a01b031633145b610f465760405162461bcd60e51b81526004016106fc90611ab6565b60975460ff16610f8f5760405162461bcd60e51b815260206004820152601460248201527314185d5cd8589b194e881b9bdd081c185d5cd95960621b60448201526064016106fc565b610728611642565b6001600160a01b038316610ff95760405162461bcd60e51b8152602060048201526024808201527f45524332303a20617070726f76652066726f6d20746865207a65726f206164646044820152637265737360e01b60648201526084016106fc565b6001600160a01b03821661105a5760405162461bcd60e51b815260206004820152602260248201527f45524332303a20617070726f766520746f20746865207a65726f206164647265604482015261737360f01b60648201526084016106fc565b6001600160a01b0383811660008181526034602090815260408083209487168084529482529182902085905590518481527f8c5be1e5ebec7d5bd14f71427d1e84f3dd0314c0f7b2291e5b200ac8c7c3b925910160405180910390a3505050565b60006110c78484610e40565b9050600019811461112f57818110156111225760405162461bcd60e51b815260206004820152601d60248201527f45524332303a20696e73756666696369656e7420616c6c6f77616e636500000060448201526064016106fc565b61112f8484848403610f97565b50505050565b6001600160a01b0383166111995760405162461bcd60e51b815260206004820152602560248201527f45524332303a207472616e736665722066726f6d20746865207a65726f206164604482015264647265737360d81b60648201526084016106fc565b6001600160a01b0382166111fb5760405162461bcd60e51b815260206004820152602360248201527f45524332303a207472616e7366657220746f20746865207a65726f206164647260448201526265737360e81b60648201526084016106fc565b6001600160a01b038316600090815260336020526040902054818110156112735760405162461bcd60e51b815260206004820152602660248201527f45524332303a207472616e7366657220616d6f756e7420657863656564732062604482015265616c616e636560d01b60648201526084016106fc565b6001600160a01b038085166000908152603360205260408082208585039055918516815290812080548492906112aa908490611ba1565b92505081905550826001600160a01b0316846001600160a01b03167fddf252ad1be2c89b69c2b068fc378daa952ba7f163c4a11628f55a4df523b3ef846040516112f691815260200190565b60405180910390a361112f565b505050565b60006001600160a01b03821673bb4cdb9cbd36b01bd1cbaebf2de08d9173bc095c141561133e5750670de0b6b3a7640000919050565b604080516002808252606082018352600092602083019080368337019050509050828160008151811061137357611373611c05565b60200260200101906001600160a01b031690816001600160a01b03168152505073bb4cdb9cbd36b01bd1cbaebf2de08d9173bc095c816001815181106113bb576113bb611c05565b6001600160a01b039092166020928302919091019091015260405163d06ca61f60e01b81527310ed43c718714eb63d5aa57b78b54704e256024e9063d06ca61f9061141490670de0b6b3a7640000908590600401611c1b565b60006040518083038186803b15801561142c57600080fd5b505afa158015611440573d6000803e3d6000fd5b505050506040513d6000823e601f3d908101601f191682016040526114689190810190611c72565b60018151811061147a5761147a611c05565b6020026020010151915050919050565b919050565b606580546001600160a01b038381166001600160a01b0319831681179093556040519116919082907f8be0079c531659141344cd1fd0a4f28419497f9722a3daafe3b4186f6b6457e090600090a35050565b60008054610100900460ff1615611528578160ff1660011480156115045750303b155b6115205760405162461bcd60e51b81526004016106fc90611d18565b506000919050565b60005460ff80841691161061154f5760405162461bcd60e51b81526004016106fc90611d18565b506000805460ff191660ff92909216919091179055600190565b600054610100900460ff166115905760405162461bcd60e51b81526004016106fc90611d66565b61159a82826116bc565b5050565b600054610100900460ff166115c55760405162461bcd60e51b81526004016106fc90611d66565b61072861170a565b60975460ff16156115f05760405162461bcd60e51b81526004016106fc90611ae3565b6097805460ff191660011790557f62e78cea01bee320cd4e420270b5ea74000d11b0c9f74754ebdbfc544b05a2586116253390565b6040516001600160a01b03909116815260200160405180910390a1565b60975460ff1661168b5760405162461bcd60e51b815260206004820152601460248201527314185d5cd8589b194e881b9bdd081c185d5cd95960621b60448201526064016106fc565b6097805460ff191690557f5db9ee0a495bf2e6ff9c91a7834c1ba4fdd244a5e8aa4e537bd38aeae4b073aa33611625565b600054610100900460ff166116e35760405162461bcd60e51b81526004016106fc90611d66565b81516116f690603690602085019061173a565b50805161130390603790602084019061173a565b600054610100900460ff166117315760405162461bcd60e51b81526004016106fc90611d66565b6107283361148f565b82805461174690611a7b565b90600052602060002090601f01602090048101928261176857600085556117ae565b82601f1061178157805160ff19168380011785556117ae565b828001600101855582156117ae579182015b828111156117ae578251825591602001919060010190611793565b506117ba9291506117be565b5090565b5b808211156117ba57600081556001016117bf565b600060208083528351808285015260005b81811015611800578581018301518582016040015282016117e4565b81811115611812576000604083870101525b50601f01601f1916929092016040019392505050565b80356001600160a01b038116811461148a57600080fd5b6000806040838503121561185257600080fd5b61185b83611828565b946020939093013593505050565b60006020828403121561187b57600080fd5b8135801515811461188b57600080fd5b9392505050565b6000806000606084860312156118a757600080fd5b6118b084611828565b92506118be60208501611828565b9150604084013590509250925092565b6000602082840312156118e057600080fd5b5035919050565b6000602082840312156118f957600080fd5b61188b82611828565b634e487b7160e01b600052604160045260246000fd5b604051601f8201601f1916810167ffffffffffffffff8111828210171561194157611941611902565b604052919050565b600082601f83011261195a57600080fd5b813567ffffffffffffffff81111561197457611974611902565b611987601f8201601f1916602001611918565b81815284602083860101111561199c57600080fd5b816020850160208301376000918101602001919091529392505050565b600080600080600060a086880312156119d157600080fd5b853567ffffffffffffffff808211156119e957600080fd5b6119f589838a01611949565b96506020880135915080821115611a0b57600080fd5b50611a1888828901611949565b94505060408601359250611a2e60608701611828565b9150611a3c60808701611828565b90509295509295909350565b60008060408385031215611a5b57600080fd5b611a6483611828565b9150611a7260208401611828565b90509250929050565b600181811c90821680611a8f57607f821691505b60208210811415611ab057634e487b7160e01b600052602260045260246000fd5b50919050565b60208082526013908201527227b7363c9037bbb732b91037b91030b236b4b760691b604082015260600190565b60208082526010908201526f14185d5cd8589b194e881c185d5cd95960821b604082015260600190565b600060208284031215611b1f57600080fd5b5051919050565b60008060408385031215611b3957600080fd5b505080516020909101519092909150565b634e487b7160e01b600052601160045260246000fd5b6000816000190483118215151615611b7a57611b7a611b4a565b500290565b600082611b9c57634e487b7160e01b600052601260045260246000fd5b500490565b60008219821115611bb457611bb4611b4a565b500190565b6020808252818101527f4f776e61626c653a2063616c6c6572206973206e6f7420746865206f776e6572604082015260600190565b600082821015611c0057611c00611b4a565b500390565b634e487b7160e01b600052603260045260246000fd5b6000604082018483526020604081850152818551808452606086019150828701935060005b81811015611c655784516001600160a01b031683529383019391830191600101611c40565b5090979650505050505050565b60006020808385031215611c8557600080fd5b825167ffffffffffffffff80821115611c9d57600080fd5b818501915085601f830112611cb157600080fd5b815181811115611cc357611cc3611902565b8060051b9150611cd4848301611918565b8181529183018401918481019088841115611cee57600080fd5b938501935b83851015611d0c57845182529385019390850190611cf3565b98975050505050505050565b6020808252602e908201527f496e697469616c697a61626c653a20636f6e747261637420697320616c72656160408201526d191e481a5b9a5d1a585b1a5e995960921b606082015260800190565b6020808252602b908201527f496e697469616c697a61626c653a20636f6e7472616374206973206e6f74206960408201526a6e697469616c697a696e6760a81b60608201526080019056fea26469706673582212204b43b0dfbe6181d040783552214864eeedf0acf11966a60d18650193e180cdac64736f6c63430008090033",
  "devdoc": {
    "kind": "dev",
    "methods": {
      "allowance(address,address)": {
        "details": "See {IERC20-allowance}."
      },
      "approve(address,uint256)": {
        "details": "See {IERC20-approve}. NOTE: If `amount` is the maximum `uint256`, the allowance is not updated on `transferFrom`. This is semantically equivalent to an infinite approval. Requirements: - `spender` cannot be the zero address."
      },
      "balanceOf(address)": {
        "details": "See {IERC20-balanceOf}."
      },
      "decimals()": {
        "details": "Returns the number of decimals used to get its user representation. For example, if `decimals` equals `2`, a balance of `505` tokens should be displayed to a user as `5.05` (`505 / 10 ** 2`). Tokens usually opt for a value of 18, imitating the relationship between Ether and Wei. This is the value {ERC20} uses, unless this function is overridden; NOTE: This information is only used for _display_ purposes: it in no way affects any of the arithmetic of the contract, including {IERC20-balanceOf} and {IERC20-transfer}."
      },
      "decreaseAllowance(address,uint256)": {
        "details": "Atomically decreases the allowance granted to `spender` by the caller. This is an alternative to {approve} that can be used as a mitigation for problems described in {IERC20-approve}. Emits an {Approval} event indicating the updated allowance. Requirements: - `spender` cannot be the zero address. - `spender` must have allowance for the caller of at least `subtractedValue`."
      },
      "deposit(uint256)": {
        "params": {
          "_amount": "amount of lptokens to deposit"
        }
      },
      "increaseAllowance(address,uint256)": {
        "details": "Atomically increases the allowance granted to `spender` by the caller. This is an alternative to {approve} that can be used as a mitigation for problems described in {IERC20-approve}. Emits an {Approval} event indicating the updated allowance. Requirements: - `spender` cannot be the zero address."
      },
      "name()": {
        "details": "Returns the name of the token."
      },
      "owner()": {
        "details": "Returns the address of the current owner."
      },
      "paused()": {
        "details": "Returns true if the contract is paused, and false otherwise."
      },
      "renounceOwnership()": {
        "details": "Leaves the contract without owner. It will not be possible to call `onlyOwner` functions anymore. Can only be called by the current owner. NOTE: Renouncing ownership will leave the contract without an owner, thereby removing any functionality that is only available to the owner."
      },
      "setFee(uint256)": {
        "params": {
          "_yieldFeePerc": "deposit fee percentage. 2000 for 20%"
        }
      },
      "symbol()": {
        "details": "Returns the symbol of the token, usually a shorter version of the name."
      },
      "totalSupply()": {
        "details": "See {IERC20-totalSupply}."
      },
      "transfer(address,uint256)": {
        "details": "See {IERC20-transfer}. Requirements: - `to` cannot be the zero address. - the caller must have a balance of at least `amount`."
      },
      "transferFrom(address,address,uint256)": {
        "details": "See {IERC20-transferFrom}. Emits an {Approval} event indicating the updated allowance. This is not required by the EIP. See the note at the beginning of {ERC20}. NOTE: Does not update the allowance if the current allowance is the maximum `uint256`. Requirements: - `from` and `to` cannot be the zero address. - `from` must have a balance of at least `amount`. - the caller must have allowance for ``from``'s tokens of at least `amount`."
      },
      "transferOwnership(address)": {
        "details": "Transfers ownership of the contract to a new account (`newOwner`). Can only be called by the current owner."
      },
      "withdraw(uint256)": {
        "params": {
          "_shares": "amount of shares to burn"
        }
      }
    },
    "version": 1
  },
  "userdoc": {
    "kind": "user",
    "methods": {
      "emergencyWithdraw()": {
        "notice": "Withdraws funds staked in mirror to this vault and pauses deposit, yield, invest functions"
      },
      "getPendingRewards()": {
        "notice": "Returns the pending rewards in UDS."
      },
      "reinvest()": {
        "notice": "Unpauses deposit, yield, invest functions, and invests funds."
      },
      "setFee(uint256)": {
        "notice": "Function to set deposit and yield fee"
      }
    },
    "version": 1
  },
  "storageLayout": {
    "storage": [
      {
        "astId": 130,
        "contract": "contracts/lci/deps/VaultTest.sol:BscVaultTest",
        "label": "_initialized",
        "offset": 0,
        "slot": "0",
        "type": "t_uint8"
      },
      {
        "astId": 133,
        "contract": "contracts/lci/deps/VaultTest.sol:BscVaultTest",
        "label": "_initializing",
        "offset": 1,
        "slot": "0",
        "type": "t_bool"
      },
      {
        "astId": 1657,
        "contract": "contracts/lci/deps/VaultTest.sol:BscVaultTest",
        "label": "__gap",
        "offset": 0,
        "slot": "1",
        "type": "t_array(t_uint256)50_storage"
      },
      {
        "astId": 454,
        "contract": "contracts/lci/deps/VaultTest.sol:BscVaultTest",
        "label": "_balances",
        "offset": 0,
        "slot": "51",
        "type": "t_mapping(t_address,t_uint256)"
      },
      {
        "astId": 460,
        "contract": "contracts/lci/deps/VaultTest.sol:BscVaultTest",
        "label": "_allowances",
        "offset": 0,
        "slot": "52",
        "type": "t_mapping(t_address,t_mapping(t_address,t_uint256))"
      },
      {
        "astId": 462,
        "contract": "contracts/lci/deps/VaultTest.sol:BscVaultTest",
        "label": "_totalSupply",
        "offset": 0,
        "slot": "53",
        "type": "t_uint256"
      },
      {
        "astId": 464,
        "contract": "contracts/lci/deps/VaultTest.sol:BscVaultTest",
        "label": "_name",
        "offset": 0,
        "slot": "54",
        "type": "t_string_storage"
      },
      {
        "astId": 466,
        "contract": "contracts/lci/deps/VaultTest.sol:BscVaultTest",
        "label": "_symbol",
        "offset": 0,
        "slot": "55",
        "type": "t_string_storage"
      },
      {
        "astId": 1045,
        "contract": "contracts/lci/deps/VaultTest.sol:BscVaultTest",
        "label": "__gap",
        "offset": 0,
        "slot": "56",
        "type": "t_array(t_uint256)45_storage"
      },
      {
        "astId": 10,
        "contract": "contracts/lci/deps/VaultTest.sol:BscVaultTest",
        "label": "_owner",
        "offset": 0,
        "slot": "101",
        "type": "t_address"
      },
      {
        "astId": 122,
        "contract": "contracts/lci/deps/VaultTest.sol:BscVaultTest",
        "label": "__gap",
        "offset": 0,
        "slot": "102",
        "type": "t_array(t_uint256)49_storage"
      },
      {
        "astId": 286,
        "contract": "contracts/lci/deps/VaultTest.sol:BscVaultTest",
        "label": "_paused",
        "offset": 0,
        "slot": "151",
        "type": "t_bool"
      },
      {
        "astId": 375,
        "contract": "contracts/lci/deps/VaultTest.sol:BscVaultTest",
        "label": "__gap",
        "offset": 0,
        "slot": "152",
        "type": "t_array(t_uint256)49_storage"
      },
      {
        "astId": 390,
        "contract": "contracts/lci/deps/VaultTest.sol:BscVaultTest",
        "label": "_status",
        "offset": 0,
        "slot": "201",
        "type": "t_uint256"
      },
      {
        "astId": 434,
        "contract": "contracts/lci/deps/VaultTest.sol:BscVaultTest",
        "label": "__gap",
        "offset": 0,
        "slot": "202",
        "type": "t_array(t_uint256)49_storage"
      },
      {
        "astId": 18942,
        "contract": "contracts/lci/deps/VaultTest.sol:BscVaultTest",
        "label": "yieldFee",
        "offset": 0,
        "slot": "251",
        "type": "t_uint256"
      },
      {
        "astId": 18944,
        "contract": "contracts/lci/deps/VaultTest.sol:BscVaultTest",
        "label": "pid",
        "offset": 0,
        "slot": "252",
        "type": "t_uint256"
      },
      {
        "astId": 18947,
        "contract": "contracts/lci/deps/VaultTest.sol:BscVaultTest",
        "label": "lpToken",
        "offset": 0,
        "slot": "253",
        "type": "t_contract(IUniPair)18819"
      },
      {
        "astId": 18950,
        "contract": "contracts/lci/deps/VaultTest.sol:BscVaultTest",
        "label": "token0",
        "offset": 0,
        "slot": "254",
        "type": "t_contract(IERC20Upgradeable)1124"
      },
      {
        "astId": 18953,
        "contract": "contracts/lci/deps/VaultTest.sol:BscVaultTest",
        "label": "token1",
        "offset": 0,
        "slot": "255",
        "type": "t_contract(IERC20Upgradeable)1124"
      },
      {
        "astId": 18955,
        "contract": "contracts/lci/deps/VaultTest.sol:BscVaultTest",
        "label": "treasuryWallet",
        "offset": 0,
        "slot": "256",
        "type": "t_address"
      },
      {
        "astId": 18957,
        "contract": "contracts/lci/deps/VaultTest.sol:BscVaultTest",
        "label": "admin",
        "offset": 0,
        "slot": "257",
        "type": "t_address"
      },
      {
        "astId": 18961,
        "contract": "contracts/lci/deps/VaultTest.sol:BscVaultTest",
        "label": "depositedBlock",
        "offset": 0,
        "slot": "258",
        "type": "t_mapping(t_address,t_uint256)"
      },
      {
        "astId": 18986,
        "contract": "contracts/lci/deps/VaultTest.sol:BscVaultTest",
        "label": "lpRewardApr",
        "offset": 0,
        "slot": "259",
        "type": "t_uint256"
      },
      {
        "astId": 18988,
        "contract": "contracts/lci/deps/VaultTest.sol:BscVaultTest",
        "label": "lpReservePerShare",
        "offset": 0,
        "slot": "260",
        "type": "t_uint256"
      },
      {
        "astId": 18990,
        "contract": "contracts/lci/deps/VaultTest.sol:BscVaultTest",
        "label": "lpDataLastUpdate",
        "offset": 0,
        "slot": "261",
        "type": "t_uint256"
      }
    ],
    "types": {
      "t_address": {
        "encoding": "inplace",
        "label": "address",
        "numberOfBytes": "20"
      },
      "t_array(t_uint256)45_storage": {
        "base": "t_uint256",
        "encoding": "inplace",
        "label": "uint256[45]",
        "numberOfBytes": "1440"
      },
      "t_array(t_uint256)49_storage": {
        "base": "t_uint256",
        "encoding": "inplace",
        "label": "uint256[49]",
        "numberOfBytes": "1568"
      },
      "t_array(t_uint256)50_storage": {
        "base": "t_uint256",
        "encoding": "inplace",
        "label": "uint256[50]",
        "numberOfBytes": "1600"
      },
      "t_bool": {
        "encoding": "inplace",
        "label": "bool",
        "numberOfBytes": "1"
      },
      "t_contract(IERC20Upgradeable)1124": {
        "encoding": "inplace",
        "label": "contract IERC20Upgradeable",
        "numberOfBytes": "20"
      },
      "t_contract(IUniPair)18819": {
        "encoding": "inplace",
        "label": "contract IUniPair",
        "numberOfBytes": "20"
      },
      "t_mapping(t_address,t_mapping(t_address,t_uint256))": {
        "encoding": "mapping",
        "key": "t_address",
        "label": "mapping(address => mapping(address => uint256))",
        "numberOfBytes": "32",
        "value": "t_mapping(t_address,t_uint256)"
      },
      "t_mapping(t_address,t_uint256)": {
        "encoding": "mapping",
        "key": "t_address",
        "label": "mapping(address => uint256)",
        "numberOfBytes": "32",
        "value": "t_uint256"
      },
      "t_string_storage": {
        "encoding": "bytes",
        "label": "string",
        "numberOfBytes": "32"
      },
      "t_uint256": {
        "encoding": "inplace",
        "label": "uint256",
        "numberOfBytes": "32"
      },
      "t_uint8": {
        "encoding": "inplace",
        "label": "uint8",
        "numberOfBytes": "1"
      }
    }
  }
}