{
  "address": "0x37498DE66CdB3cdE28C678003C7F2789B7BcAdf8",
  "abi": [
    {
      "anonymous": false,
      "inputs": [
        {
          "indexed": false,
          "internalType": "uint8",
          "name": "version",
          "type": "uint8"
        }
      ],
      "name": "Initialized",
      "type": "event"
    },
    {
      "anonymous": false,
      "inputs": [
        {
          "indexed": false,
          "internalType": "address",
          "name": "messageBus",
          "type": "address"
        }
      ],
      "name": "MessageBusUpdated",
      "type": "event"
    },
    {
      "anonymous": false,
      "inputs": [
        {
          "indexed": true,
          "internalType": "address",
          "name": "previousOwner",
          "type": "address"
        },
        {
          "indexed": true,
          "internalType": "address",
          "name": "newOwner",
          "type": "address"
        }
      ],
      "name": "OwnershipTransferred",
      "type": "event"
    },
    {
      "anonymous": false,
      "inputs": [
        {
          "indexed": true,
          "internalType": "uint256",
          "name": "fromChainId",
          "type": "uint256"
        },
        {
          "indexed": false,
          "internalType": "uint256",
          "name": "nonce",
          "type": "uint256"
        },
        {
          "indexed": true,
          "internalType": "address",
          "name": "token",
          "type": "address"
        },
        {
          "indexed": true,
          "internalType": "uint256",
          "name": "amount",
          "type": "uint256"
        },
        {
          "indexed": false,
          "internalType": "address",
          "name": "to",
          "type": "address"
        }
      ],
      "name": "Receive",
      "type": "event"
    },
    {
      "anonymous": false,
      "inputs": [
        {
          "indexed": false,
          "internalType": "uint256",
          "name": "nonce",
          "type": "uint256"
        },
        {
          "indexed": false,
          "internalType": "address",
          "name": "from",
          "type": "address"
        },
        {
          "indexed": true,
          "internalType": "address",
          "name": "token",
          "type": "address"
        },
        {
          "indexed": true,
          "internalType": "uint256",
          "name": "amount",
          "type": "uint256"
        },
        {
          "indexed": true,
          "internalType": "uint256",
          "name": "toChainId",
          "type": "uint256"
        },
        {
          "indexed": false,
          "internalType": "address",
          "name": "to",
          "type": "address"
        }
      ],
      "name": "Refund",
      "type": "event"
    },
    {
      "anonymous": false,
      "inputs": [
        {
          "indexed": true,
          "internalType": "bytes32",
          "name": "role",
          "type": "bytes32"
        },
        {
          "indexed": true,
          "internalType": "bytes32",
          "name": "previousAdminRole",
          "type": "bytes32"
        },
        {
          "indexed": true,
          "internalType": "bytes32",
          "name": "newAdminRole",
          "type": "bytes32"
        }
      ],
      "name": "RoleAdminChanged",
      "type": "event"
    },
    {
      "anonymous": false,
      "inputs": [
        {
          "indexed": true,
          "internalType": "bytes32",
          "name": "role",
          "type": "bytes32"
        },
        {
          "indexed": true,
          "internalType": "address",
          "name": "account",
          "type": "address"
        },
        {
          "indexed": true,
          "internalType": "address",
          "name": "sender",
          "type": "address"
        }
      ],
      "name": "RoleGranted",
      "type": "event"
    },
    {
      "anonymous": false,
      "inputs": [
        {
          "indexed": true,
          "internalType": "bytes32",
          "name": "role",
          "type": "bytes32"
        },
        {
          "indexed": true,
          "internalType": "address",
          "name": "account",
          "type": "address"
        },
        {
          "indexed": true,
          "internalType": "address",
          "name": "sender",
          "type": "address"
        }
      ],
      "name": "RoleRevoked",
      "type": "event"
    },
    {
      "anonymous": false,
      "inputs": [
        {
          "indexed": false,
          "internalType": "uint256",
          "name": "nonce",
          "type": "uint256"
        },
        {
          "indexed": false,
          "internalType": "address",
          "name": "from",
          "type": "address"
        },
        {
          "indexed": true,
          "internalType": "address",
          "name": "token",
          "type": "address"
        },
        {
          "indexed": true,
          "internalType": "uint256",
          "name": "amount",
          "type": "uint256"
        },
        {
          "indexed": true,
          "internalType": "uint256",
          "name": "toChainId",
          "type": "uint256"
        },
        {
          "indexed": false,
          "internalType": "address",
          "name": "to",
          "type": "address"
        }
      ],
      "name": "Transfer",
      "type": "event"
    },
    {
      "inputs": [],
      "name": "CLIENT_ROLE",
      "outputs": [
        {
          "internalType": "bytes32",
          "name": "",
          "type": "bytes32"
        }
      ],
      "stateMutability": "view",
      "type": "function"
    },
    {
      "inputs": [],
      "name": "DEFAULT_ADMIN_ROLE",
      "outputs": [
        {
          "internalType": "bytes32",
          "name": "",
          "type": "bytes32"
        }
      ],
      "stateMutability": "view",
      "type": "function"
    },
    {
      "inputs": [],
      "name": "USDC",
      "outputs": [
        {
          "internalType": "contract IERC20Upgradeable",
          "name": "",
          "type": "address"
        }
      ],
      "stateMutability": "view",
      "type": "function"
    },
    {
      "inputs": [],
      "name": "USDT",
      "outputs": [
        {
          "internalType": "contract IERC20Upgradeable",
          "name": "",
          "type": "address"
        }
      ],
      "stateMutability": "view",
      "type": "function"
    },
    {
      "inputs": [
        {
          "internalType": "uint256",
          "name": "",
          "type": "uint256"
        },
        {
          "internalType": "address",
          "name": "_targetContract",
          "type": "address"
        },
        {
          "internalType": "uint256",
          "name": "_targetCallValue",
          "type": "uint256"
        },
        {
          "internalType": "bytes",
          "name": "_targetCallData",
          "type": "bytes"
        }
      ],
      "name": "calcCallFee",
      "outputs": [
        {
          "internalType": "uint256",
          "name": "",
          "type": "uint256"
        }
      ],
      "stateMutability": "view",
      "type": "function"
    },
    {
      "inputs": [],
      "name": "calcTransferFee",
      "outputs": [
        {
          "internalType": "uint256",
          "name": "",
          "type": "uint256"
        }
      ],
      "stateMutability": "view",
      "type": "function"
    },
    {
      "inputs": [
        {
          "internalType": "uint256",
          "name": "_toChainId",
          "type": "uint256"
        },
        {
          "internalType": "address",
          "name": "_targetContract",
          "type": "address"
        },
        {
          "internalType": "uint256",
          "name": "_targetCallValue",
          "type": "uint256"
        },
        {
          "internalType": "bytes",
          "name": "_targetCallData",
          "type": "bytes"
        }
      ],
      "name": "call",
      "outputs": [],
      "stateMutability": "payable",
      "type": "function"
    },
    {
      "inputs": [
        {
          "internalType": "bytes",
          "name": "_sender",
          "type": "bytes"
        },
        {
          "internalType": "uint64",
          "name": "_srcChainId",
          "type": "uint64"
        },
        {
          "internalType": "bytes",
          "name": "_message",
          "type": "bytes"
        },
        {
          "internalType": "address",
          "name": "_executor",
          "type": "address"
        }
      ],
      "name": "executeMessage",
      "outputs": [
        {
          "internalType": "enum IMessageReceiverApp.ExecutionStatus",
          "name": "",
          "type": "uint8"
        }
      ],
      "stateMutability": "payable",
      "type": "function"
    },
    {
      "inputs": [
        {
          "internalType": "address",
          "name": "_sender",
          "type": "address"
        },
        {
          "internalType": "uint64",
          "name": "_srcChainId",
          "type": "uint64"
        },
        {
          "internalType": "bytes",
          "name": "_message",
          "type": "bytes"
        },
        {
          "internalType": "address",
          "name": "",
          "type": "address"
        }
      ],
      "name": "executeMessage",
      "outputs": [
        {
          "internalType": "enum IMessageReceiverApp.ExecutionStatus",
          "name": "",
          "type": "uint8"
        }
      ],
      "stateMutability": "payable",
      "type": "function"
    },
    {
      "inputs": [
        {
          "internalType": "address",
          "name": "_sender",
          "type": "address"
        },
        {
          "internalType": "address",
          "name": "_token",
          "type": "address"
        },
        {
          "internalType": "uint256",
          "name": "_amount",
          "type": "uint256"
        },
        {
          "internalType": "uint64",
          "name": "_srcChainId",
          "type": "uint64"
        },
        {
          "internalType": "bytes",
          "name": "_message",
          "type": "bytes"
        },
        {
          "internalType": "address",
          "name": "",
          "type": "address"
        }
      ],
      "name": "executeMessageWithTransfer",
      "outputs": [
        {
          "internalType": "enum IMessageReceiverApp.ExecutionStatus",
          "name": "",
          "type": "uint8"
        }
      ],
      "stateMutability": "payable",
      "type": "function"
    },
    {
      "inputs": [
        {
          "internalType": "address",
          "name": "",
          "type": "address"
        },
        {
          "internalType": "address",
          "name": "_token",
          "type": "address"
        },
        {
          "internalType": "uint256",
          "name": "_amount",
          "type": "uint256"
        },
        {
          "internalType": "uint64",
          "name": "_srcChainId",
          "type": "uint64"
        },
        {
          "internalType": "bytes",
          "name": "_message",
          "type": "bytes"
        },
        {
          "internalType": "address",
          "name": "",
          "type": "address"
        }
      ],
      "name": "executeMessageWithTransferFallback",
      "outputs": [
        {
          "internalType": "enum IMessageReceiverApp.ExecutionStatus",
          "name": "",
          "type": "uint8"
        }
      ],
      "stateMutability": "payable",
      "type": "function"
    },
    {
      "inputs": [
        {
          "internalType": "address",
          "name": "_token",
          "type": "address"
        },
        {
          "internalType": "uint256",
          "name": "_amount",
          "type": "uint256"
        },
        {
          "internalType": "bytes",
          "name": "_message",
          "type": "bytes"
        },
        {
          "internalType": "address",
          "name": "",
          "type": "address"
        }
      ],
      "name": "executeMessageWithTransferRefund",
      "outputs": [
        {
          "internalType": "enum IMessageReceiverApp.ExecutionStatus",
          "name": "",
          "type": "uint8"
        }
      ],
      "stateMutability": "payable",
      "type": "function"
    },
    {
      "inputs": [
        {
          "internalType": "uint256",
          "name": "",
          "type": "uint256"
        }
      ],
      "name": "fallbacks",
      "outputs": [
        {
          "internalType": "uint256",
          "name": "fromChainId",
          "type": "uint256"
        },
        {
          "internalType": "uint256",
          "name": "nonce",
          "type": "uint256"
        },
        {
          "internalType": "address",
          "name": "token",
          "type": "address"
        },
        {
          "internalType": "uint256",
          "name": "amount",
          "type": "uint256"
        },
        {
          "internalType": "uint256",
          "name": "toChainId",
          "type": "uint256"
        },
        {
          "internalType": "address",
          "name": "to",
          "type": "address"
        },
        {
          "internalType": "bool",
          "name": "handled",
          "type": "bool"
        }
      ],
      "stateMutability": "view",
      "type": "function"
    },
    {
      "inputs": [
        {
          "internalType": "bytes32",
          "name": "role",
          "type": "bytes32"
        }
      ],
      "name": "getRoleAdmin",
      "outputs": [
        {
          "internalType": "bytes32",
          "name": "",
          "type": "bytes32"
        }
      ],
      "stateMutability": "view",
      "type": "function"
    },
    {
      "inputs": [
        {
          "internalType": "bytes32",
          "name": "role",
          "type": "bytes32"
        },
        {
          "internalType": "uint256",
          "name": "index",
          "type": "uint256"
        }
      ],
      "name": "getRoleMember",
      "outputs": [
        {
          "internalType": "address",
          "name": "",
          "type": "address"
        }
      ],
      "stateMutability": "view",
      "type": "function"
    },
    {
      "inputs": [
        {
          "internalType": "bytes32",
          "name": "role",
          "type": "bytes32"
        }
      ],
      "name": "getRoleMemberCount",
      "outputs": [
        {
          "internalType": "uint256",
          "name": "",
          "type": "uint256"
        }
      ],
      "stateMutability": "view",
      "type": "function"
    },
    {
      "inputs": [
        {
          "internalType": "bytes32",
          "name": "role",
          "type": "bytes32"
        },
        {
          "internalType": "address",
          "name": "account",
          "type": "address"
        }
      ],
      "name": "grantRole",
      "outputs": [],
      "stateMutability": "nonpayable",
      "type": "function"
    },
    {
      "inputs": [
        {
          "internalType": "bytes32",
          "name": "role",
          "type": "bytes32"
        },
        {
          "internalType": "address",
          "name": "account",
          "type": "address"
        }
      ],
      "name": "hasRole",
      "outputs": [
        {
          "internalType": "bool",
          "name": "",
          "type": "bool"
        }
      ],
      "stateMutability": "view",
      "type": "function"
    },
    {
      "inputs": [],
      "name": "initialize",
      "outputs": [],
      "stateMutability": "nonpayable",
      "type": "function"
    },
    {
      "inputs": [
        {
          "internalType": "address",
          "name": "_messageBus",
          "type": "address"
        }
      ],
      "name": "initialize1",
      "outputs": [],
      "stateMutability": "nonpayable",
      "type": "function"
    },
    {
      "inputs": [],
      "name": "messageBus",
      "outputs": [
        {
          "internalType": "address",
          "name": "",
          "type": "address"
        }
      ],
      "stateMutability": "view",
      "type": "function"
    },
    {
      "inputs": [],
      "name": "nonce",
      "outputs": [
        {
          "internalType": "uint256",
          "name": "",
          "type": "uint256"
        }
      ],
      "stateMutability": "view",
      "type": "function"
    },
    {
      "inputs": [],
      "name": "owner",
      "outputs": [
        {
          "internalType": "address",
          "name": "",
          "type": "address"
        }
      ],
      "stateMutability": "view",
      "type": "function"
    },
    {
      "inputs": [
        {
          "internalType": "uint256",
          "name": "",
          "type": "uint256"
        }
      ],
      "name": "peers",
      "outputs": [
        {
          "internalType": "address",
          "name": "",
          "type": "address"
        }
      ],
      "stateMutability": "view",
      "type": "function"
    },
    {
      "inputs": [],
      "name": "renounceOwnership",
      "outputs": [],
      "stateMutability": "nonpayable",
      "type": "function"
    },
    {
      "inputs": [
        {
          "internalType": "bytes32",
          "name": "role",
          "type": "bytes32"
        },
        {
          "internalType": "address",
          "name": "account",
          "type": "address"
        }
      ],
      "name": "renounceRole",
      "outputs": [],
      "stateMutability": "nonpayable",
      "type": "function"
    },
    {
      "inputs": [
        {
          "internalType": "bytes32",
          "name": "role",
          "type": "bytes32"
        },
        {
          "internalType": "address",
          "name": "account",
          "type": "address"
        }
      ],
      "name": "revokeRole",
      "outputs": [],
      "stateMutability": "nonpayable",
      "type": "function"
    },
    {
      "inputs": [
        {
          "internalType": "address",
          "name": "_messageBus",
          "type": "address"
        }
      ],
      "name": "setMessageBus",
      "outputs": [],
      "stateMutability": "nonpayable",
      "type": "function"
    },
    {
      "inputs": [
        {
          "internalType": "uint256[]",
          "name": "_chainIds",
          "type": "uint256[]"
        },
        {
          "internalType": "address[]",
          "name": "_peers",
          "type": "address[]"
        }
      ],
      "name": "setPeers",
      "outputs": [],
      "stateMutability": "nonpayable",
      "type": "function"
    },
    {
      "inputs": [
        {
          "internalType": "bytes4",
          "name": "interfaceId",
          "type": "bytes4"
        }
      ],
      "name": "supportsInterface",
      "outputs": [
        {
          "internalType": "bool",
          "name": "",
          "type": "bool"
        }
      ],
      "stateMutability": "view",
      "type": "function"
    },
    {
      "inputs": [
        {
          "internalType": "enum Const.TokenID",
          "name": "_tokenId",
          "type": "uint8"
        },
        {
          "internalType": "uint256[]",
          "name": "_amounts",
          "type": "uint256[]"
        },
        {
          "internalType": "uint256[]",
          "name": "_toChainIds",
          "type": "uint256[]"
        },
        {
          "internalType": "address[]",
          "name": "_toAddresses",
          "type": "address[]"
        }
      ],
      "name": "transfer",
      "outputs": [],
      "stateMutability": "payable",
      "type": "function"
    },
    {
      "inputs": [
        {
          "internalType": "address",
          "name": "newOwner",
          "type": "address"
        }
      ],
      "name": "transferOwnership",
      "outputs": [],
      "stateMutability": "nonpayable",
      "type": "function"
    },
    {
      "inputs": [
        {
          "internalType": "uint256",
          "name": "",
          "type": "uint256"
        }
      ],
      "name": "transfers",
      "outputs": [
        {
          "internalType": "address",
          "name": "from",
          "type": "address"
        },
        {
          "internalType": "enum CBridgeXChainAdapter.TransferStatus",
          "name": "status",
          "type": "uint8"
        }
      ],
      "stateMutability": "view",
      "type": "function"
    },
    {
      "stateMutability": "payable",
      "type": "receive"
    }
  ],
  "transactionHash": "0x3662140cf6461da406df37c025383f1f80b4828fcbd536cbb3b45ff8f79eef2f",
  "args": [],
  "numDeployments": 1,
  "solcInputHash": "aa8af62c39c4987602902032509083cd",
  "bytecode": "0x608060405234801561001057600080fd5b50613bb5806100206000396000f3fe6080604052600436106101f25760003560e01c806389a302711161010d578063affed0e0116100a0578063ca15c8731161006f578063ca15c873146105d2578063d547741f146105f2578063df71713814610612578063eae6f65214610632578063f2fde38b1461066657600080fd5b8063affed0e014610544578063be4f3e8f1461055b578063bebc4f7114610591578063c54e44eb146105b157600080fd5b80639377d711116100dc5780639377d711146104ab5780639c649fdf146104fc578063a1a227fa1461050f578063a217fddf1461052f57600080fd5b806389a30271146104145780638da5cb5b1461044d5780639010d07c1461046b57806391d148541461048b57600080fd5b80633b11ca5111610185578063715018a611610154578063715018a6146103c457806377cae758146103d95780637cd2bffc146103ec5780638129fc1c146103ff57600080fd5b80633b11ca5114610369578063547cad121461037e5780635ab7afc61461039e57806365a130b4146103b157600080fd5b8063248a9ca3116101c1578063248a9ca3146102c95780632de2c8ad146103075780632f2ff15d1461032957806336568abe1461034957600080fd5b806301ffc9a7146101fe578063063ce4e5146102335780630bcb4982146102535780630d13b65d1461026657600080fd5b366101f957005b600080fd5b34801561020a57600080fd5b5061021e610219366004613005565b610686565b60405190151581526020015b60405180910390f35b6102466102413660046130a3565b6106b1565b60405161022a919061316c565b61024661026136600461317f565b6106f1565b34801561027257600080fd5b506102866102813660046131f2565b6108e1565b6040805197885260208801969096526001600160a01b0394851695870195909552606086019290925260808501521660a0830152151560c082015260e00161022a565b3480156102d557600080fd5b506102f96102e43660046131f2565b60009081526065602052604090206001015490565b60405190815260200161022a565b34801561031357600080fd5b5061032761032236600461336b565b610941565b005b34801561033557600080fd5b506103276103443660046133ce565b610a3b565b34801561035557600080fd5b506103276103643660046133ce565b610a65565b34801561037557600080fd5b506102f9610ae3565b34801561038a57600080fd5b506103276103993660046133fe565b610bbf565b6102466103ac366004613493565b610c3e565b6103276103bf366004613514565b610e1d565b3480156103d057600080fd5b50610327610fe3565b6103276103e73660046135b2565b611019565b6102466103fa366004613493565b6110cf565b34801561040b57600080fd5b50610327611207565b34801561042057600080fd5b5061012e54610435906001600160a01b031681565b6040516001600160a01b03909116815260200161022a565b34801561045957600080fd5b5060c9546001600160a01b0316610435565b34801561047757600080fd5b50610435610486366004613608565b611294565b34801561049757600080fd5b5061021e6104a63660046133ce565b6112b3565b3480156104b757600080fd5b506104ee6104c63660046131f2565b610131602052600090815260409020546001600160a01b03811690600160a01b900460ff1682565b60405161022a92919061362a565b61024661050a366004613650565b6112de565b34801561051b57600080fd5b5060fb54610435906001600160a01b031681565b34801561053b57600080fd5b506102f9600081565b34801561055057600080fd5b506102f96101305481565b34801561056757600080fd5b506104356105763660046131f2565b60fc602052600090815260409020546001600160a01b031681565b34801561059d57600080fd5b506102f96105ac3660046135b2565b61140f565b3480156105bd57600080fd5b5061012f54610435906001600160a01b031681565b3480156105de57600080fd5b506102f96105ed3660046131f2565b6114b6565b3480156105fe57600080fd5b5061032761060d3660046133ce565b6114cd565b34801561061e57600080fd5b5061032761062d3660046133fe565b6114f2565b34801561063e57600080fd5b506102f97fa5ff3ec7a96cdbba4d2d5172d66bbc73c6db3885f29b21be5da9fa7a7c02523281565b34801561067257600080fd5b506103276106813660046133fe565b6115d8565b60006001600160e01b03198216635a05180f60e01b14806106ab57506106ab8261160b565b92915050565b60fb546000906001600160a01b031633146106e75760405162461bcd60e51b81526004016106de906136c2565b60405180910390fd5b9695505050505050565b60fb546000906001600160a01b0316331461071e5760405162461bcd60e51b81526004016106de906136c2565b600061072c848601866136f9565b8051602082015160408301519293509091600260008481526101316020526040902054600160a01b900460ff16600281111561076a5761076a613138565b14156107ab5760405162461bcd60e51b815260206004820152601060248201526f105b1c9958591e481c99599d5b99195960821b60448201526064016106de565b6000838152610131602052604090208054600160a11b60ff60a01b198216179091556001600160a01b03908116906107e6908c16828c611640565b6001600160a01b0381163b1561086f5760405163472c38ff60e01b8152600481018590526001600160a01b038c81166024830152604482018c905260648201859052838116608483015282169063472c38ff9060a401600060405180830381600087803b15801561085657600080fd5b505af115801561086a573d6000803e3d6000fd5b505050505b828a8c6001600160a01b03167f63d0308ee4588438305445042ecb87ef5b77c2068e39365290d3212bad242e418785876040516108c8939291909283526001600160a01b03918216602084015216604082015260600190565b60405180910390a45060019a9950505050505050505050565b61013281815481106108f257600080fd5b600091825260209091206006909102018054600182015460028301546003840154600485015460059095015493955091936001600160a01b03918216939091811690600160a01b900460ff1687565b60c9546001600160a01b0316331461096b5760405162461bcd60e51b81526004016106de9061373b565b815160005b81811015610a3557600084828151811061098c5761098c613770565b6020026020010151905080600014156109d95760405162461bcd60e51b815260206004820152600f60248201526e125b9d985b1a590818da185a5b9251608a1b60448201526064016106de565b8382815181106109eb576109eb613770565b602090810291909101810151600092835260fc909152604090912080546001600160a01b0319166001600160a01b0390921691909117905580610a2d8161379c565b915050610970565b50505050565b600082815260656020526040902060010154610a56816116a3565b610a6083836116ad565b505050565b6001600160a01b0381163314610ad55760405162461bcd60e51b815260206004820152602f60248201527f416363657373436f6e74726f6c3a2063616e206f6e6c792072656e6f756e636560448201526e103937b632b9903337b91039b2b63360891b60648201526084016106de565b610adf82826116cf565b5050565b60408051606080820183526101305480835260006020808501828152948601828152865191820193909352935194840194909452516001600160a01b031690820152819060800160408051601f198184030181529082905260fb5463299aee5160e11b83529092506001600160a01b031690635335dca290610b6990849060040161380f565b60206040518083038186803b158015610b8157600080fd5b505afa158015610b95573d6000803e3d6000fd5b505050506040513d601f19601f82011682018060405250810190610bb99190613822565b91505090565b60c9546001600160a01b03163314610be95760405162461bcd60e51b81526004016106de9061373b565b60fb80546001600160a01b0319166001600160a01b0383169081179091556040519081527f3f8223bcd8b3b875473e9f9e14e1ad075451a2b5ffd31591655da9a01516bf5e906020015b60405180910390a150565b60fb546000906001600160a01b03163314610c6b5760405162461bcd60e51b81526004016106de906136c2565b600083806020019051810190610c81919061383b565b6040805160e0810182526001600160401b03979097168752815160208089019182526001600160a01b039a8b1689840190815260608a019a8b529084015160808a0190815293909201518a1660a08901908152600060c08a01818152610132805460018082018355919093529a517fc53bdfd4aa1ab65dfdaf681ca6bda958ae4a123d4ed68c4277796592280e783560069093029283015592517fc53bdfd4aa1ab65dfdaf681ca6bda958ae4a123d4ed68c4277796592280e783682015592517fc53bdfd4aa1ab65dfdaf681ca6bda958ae4a123d4ed68c4277796592280e7837840180546001600160a01b031916918d1691909117905598517fc53bdfd4aa1ab65dfdaf681ca6bda958ae4a123d4ed68c4277796592280e783883015591517fc53bdfd4aa1ab65dfdaf681ca6bda958ae4a123d4ed68c4277796592280e783982015596517fc53bdfd4aa1ab65dfdaf681ca6bda958ae4a123d4ed68c4277796592280e783a90970180549151979098166001600160a81b031990911617600160a01b96151596909602959095179095555090949350505050565b7fa5ff3ec7a96cdbba4d2d5172d66bbc73c6db3885f29b21be5da9fa7a7c025232610e47816116a3565b83516000610e53610ae3565b9050610e5f8282613871565b341015610e9e5760405162461bcd60e51b815260206004820152600d60248201526c4e6f20656e6f7567682066656560981b60448201526064016106de565b336000805b84811015610ee457888181518110610ebd57610ebd613770565b602002602001015182610ed09190613890565b915080610edc8161379c565b915050610ea3565b506000808a6001811115610efa57610efa613138565b1415610f13575061012f546001600160a01b0316610f4a565b60018a6001811115610f2757610f27613138565b1415610f40575061012e546001600160a01b0316610f4a565b5050505050610fdc565b610f5f6001600160a01b0382168430856116f1565b60005b85811015610fd557610fc384838c8481518110610f8157610f81613770565b60200260200101518c8581518110610f9b57610f9b613770565b60200260200101518c8681518110610fb557610fb5613770565b60200260200101518a611729565b80610fcd8161379c565b915050610f62565b5050505050505b5050505050565b60c9546001600160a01b0316331461100d5760405162461bcd60e51b81526004016106de9061373b565b61101760006118fa565b565b7fa5ff3ec7a96cdbba4d2d5172d66bbc73c6db3885f29b21be5da9fa7a7c025232611043816116a3565b600085815260fc60205260409020546001600160a01b0316806110925760405162461bcd60e51b81526020600482015260076024820152662737903832b2b960c91b60448201526064016106de565b60008585856040516020016110a9939291906138a8565b60405160208183030381529060405290506110c68288833461194c565b50505050505050565b60fb546000906001600160a01b031633146110fc5760405162461bcd60e51b81526004016106de906136c2565b6001600160401b038416600090815260fc60205260409020546001600160a01b0388811691161461115e5760405162461bcd60e51b815260206004820152600c60248201526b2bb937b7339039b2b73232b960a11b60448201526064016106de565b600083806020019051810190611174919061383b565b6040810151909150611191906001600160a01b0389169088611640565b85876001600160a01b0316866001600160401b03167fbf57462ba9b000305d6dc3fccd3bde576baffe803a6abf73974617798568506a846000015185604001516040516111f19291909182526001600160a01b0316602082015260400190565b60405180910390a4506001979650505050505050565b60006112136001611968565b9050801561122b576000805461ff0019166101001790555b6112336119f5565b61124f600061124a60c9546001600160a01b031690565b611a69565b8015611291576000805461ff0019169055604051600181527f7f26b83ff96e1f2b6a682f133852f6798a09c465da95921460cefb384740249890602001610c33565b50565b60008281526097602052604081206112ac9083611a73565b9392505050565b60009182526065602090815260408084206001600160a01b0393909316845291905290205460ff1690565b60fb546000906001600160a01b0316331461130b5760405162461bcd60e51b81526004016106de906136c2565b6001600160401b038416600090815260fc60205260409020546001600160a01b0386811691161461136d5760405162461bcd60e51b815260206004820152600c60248201526b2bb937b7339039b2b73232b960a11b60448201526064016106de565b60008060008580602001905181019061138691906138d8565b9250925092506000836001600160a01b031683836040516113a7919061396d565b60006040518083038185875af1925050503d80600081146113e4576040519150601f19603f3d011682016040523d82523d6000602084013e6113e9565b606091505b50909150506001811515146113ff576000611402565b60015b9998505050505050505050565b600080848484604051602001611427939291906138a8565b60408051601f198184030181529082905260fb5463299aee5160e11b83529092506001600160a01b031690635335dca29061146690849060040161380f565b60206040518083038186803b15801561147e57600080fd5b505afa158015611492573d6000803e3d6000fd5b505050506040513d601f19601f820116820180604052508101906106e79190613822565b60008181526097602052604081206106ab90611a7f565b6000828152606560205260409020600101546114e8816116a3565b610a6083836116cf565b60006114fe6001611968565b90508015611516576000805461ff0019166101001790555b61151e611207565b60fb80546001600160a01b0319166001600160a01b0384161790556115436001611a89565b61012e80546001600160a01b0319166001600160a01b039290921691909117905561156e6000611a89565b61012f80546001600160a01b0319166001600160a01b03929092169190911790558015610adf576000805461ff0019169055604051600181527f7f26b83ff96e1f2b6a682f133852f6798a09c465da95921460cefb38474024989060200160405180910390a15050565b60c9546001600160a01b031633146116025760405162461bcd60e51b81526004016106de9061373b565b61129181611ce9565b60006001600160e01b03198216637965db0b60e01b14806106ab57506301ffc9a760e01b6001600160e01b03198316146106ab565b6040516001600160a01b038316602482015260448101829052610a6090849063a9059cbb60e01b906064015b60408051601f198184030181529190526020810180516001600160e01b03166001600160e01b031990931692909217909152611d43565b6112918133611e15565b6116b78282611e79565b6000828152609760205260409020610a609082611eff565b6116d98282611f14565b6000828152609760205260409020610a609082611f7b565b6040516001600160a01b0380851660248301528316604482015260648101829052610a359085906323b872dd60e01b9060840161166c565b600083815260fc60205260409020546001600160a01b0316806117785760405162461bcd60e51b81526020600482015260076024820152662737903832b2b960c91b60448201526064016106de565b61013054604080518082019091526001600160a01b03891681526020810160009052600082815261013160209081526040909120825181546001600160a01b039091166001600160a01b031982168117835592840151919283916001600160a81b03191617600160a01b8360028111156117f4576117f4613138565b0217905550506040805160608101825283815260208082018990526001600160a01b03881682840152915160009350611852920181518152602080830151908201526040918201516001600160a01b03169181019190915260600190565b6040516020818303038152906040529050611877838989898661c3508760018c611f90565b5061013080549060006118898361379c565b91905055508587896001600160a01b03167f277f8efab4a541542121eec9cf9858f44e9f7b133d07da793167fd9781a29ff985338a6040516118e7939291909283526001600160a01b03918216602084015216604082015260600190565b60405180910390a4505050505050505050565b60c980546001600160a01b038381166001600160a01b0319831681179093556040519116919082907f8be0079c531659141344cd1fd0a4f28419497f9722a3daafe3b4186f6b6457e090600090a35050565b60fb54610a35908590859085906001600160a01b031685611fc7565b60008054610100900460ff16156119af578160ff16600114801561198b5750303b155b6119a75760405162461bcd60e51b81526004016106de90613989565b506000919050565b60005460ff8084169116106119d65760405162461bcd60e51b81526004016106de90613989565b506000805460ff191660ff92909216919091179055600190565b919050565b600054610100900460ff16611a605760405162461bcd60e51b815260206004820152602b60248201527f496e697469616c697a61626c653a20636f6e7472616374206973206e6f74206960448201526a6e697469616c697a696e6760a81b60648201526084016106de565b611017336118fa565b610adf82826116ad565b60006112ac8383612032565b60006106ab825490565b600046634e454153811415611b09576001836001811115611aac57611aac613138565b1415611ace575073cceca5c4a3355f8e7a0b7d2a7251eec012be7c5892915050565b6000836001811115611ae257611ae2613138565b1415611b04575073f9c249974c1acf96a59e5757cc9ba7035ce489b192915050565b611ce0565b61a869811415611b7f576001836001811115611b2757611b27613138565b1415611b495750737acdaba7ee51c1c3f7c6d605cc26b1c9aab0495a92915050565b6000836001811115611b5d57611b5d613138565b1415611b0457507378ae2880bd1672b49a33cf796cf53fe6db0ab01d92915050565b6061811415611bf4576001836001811115611b9c57611b9c613138565b1415611bbe575073da14d11d2c7d79f167b6057de3d9cc25c2c488d592915050565b6000836001811115611bd257611bd2613138565b1415611b045750731f326a8ca5399418a76ea0efa0403cbb00790c6792915050565b6004811415611c69576001836001811115611c1157611c11613138565b1415611c33575073df5324ebe6f6b852ff5cbf73627ee137e907527692915050565b6000836001811115611c4757611c47613138565b1415611b0457507321e48034753e490ff04f2f75f7caedf081b320d592915050565b62013881811415611ce0576001836001811115611c8857611c88613138565b1415611caa5750736600bec324ccdd12c70297311aefb37fafb1d68992915050565b6000836001811115611cbe57611cbe613138565b1415611ce05750737e4c234b1d634db790592d1550816b19e862f74492915050565b50600092915050565b60c9546001600160a01b03163314611d135760405162461bcd60e51b81526004016106de9061373b565b611d2f6000611d2a60c9546001600160a01b031690565b6116cf565b611d388161205c565b611291600082611a69565b6000611d98826040518060400160405280602081526020017f5361666545524332303a206c6f772d6c6576656c2063616c6c206661696c6564815250856001600160a01b03166120f49092919063ffffffff16565b805190915015610a605780806020019051810190611db691906139d7565b610a605760405162461bcd60e51b815260206004820152602a60248201527f5361666545524332303a204552433230206f7065726174696f6e20646964206e6044820152691bdd081cdd58d8d9595960b21b60648201526084016106de565b611e1f82826112b3565b610adf57611e37816001600160a01b0316601461210b565b611e4283602061210b565b604051602001611e539291906139f9565b60408051601f198184030181529082905262461bcd60e51b82526106de9160040161380f565b611e8382826112b3565b610adf5760008281526065602090815260408083206001600160a01b03851684529091529020805460ff19166001179055611ebb3390565b6001600160a01b0316816001600160a01b0316837f2f8788117e7eff1d82e926ec794901d17c78024a50270940304540a733656f0d60405160405180910390a45050565b60006112ac836001600160a01b0384166122a6565b611f1e82826112b3565b15610adf5760008281526065602090815260408083206001600160a01b0385168085529252808320805460ff1916905551339285917ff6391f5c32d9c69d2a47ea670b442974b53935d1edc7fd64eb21e047a839171b9190a45050565b60006112ac836001600160a01b0384166122f5565b6000611fb98a8a8a8a8a8a8a8a60fb60009054906101000a90046001600160a01b03168b6123e8565b9a9950505050505050505050565b604051634f9e72ad60e11b81526001600160a01b03831690639f3ce55a908390611ff990899089908990600401613a6e565b6000604051808303818588803b15801561201257600080fd5b505af1158015612026573d6000803e3d6000fd5b50505050505050505050565b600082600001828154811061204957612049613770565b9060005260206000200154905092915050565b60c9546001600160a01b031633146120865760405162461bcd60e51b81526004016106de9061373b565b6001600160a01b0381166120eb5760405162461bcd60e51b815260206004820152602660248201527f4f776e61626c653a206e6577206f776e657220697320746865207a65726f206160448201526564647265737360d01b60648201526084016106de565b611291816118fa565b606061210384846000856124f2565b949350505050565b6060600061211a836002613871565b612125906002613890565b6001600160401b0381111561213c5761213c61320b565b6040519080825280601f01601f191660200182016040528015612166576020820181803683370190505b509050600360fc1b8160008151811061218157612181613770565b60200101906001600160f81b031916908160001a905350600f60fb1b816001815181106121b0576121b0613770565b60200101906001600160f81b031916908160001a90535060006121d4846002613871565b6121df906001613890565b90505b6001811115612257576f181899199a1a9b1b9c1cb0b131b232b360811b85600f166010811061221357612213613770565b1a60f81b82828151811061222957612229613770565b60200101906001600160f81b031916908160001a90535060049490941c9361225081613aa1565b90506121e2565b5083156112ac5760405162461bcd60e51b815260206004820181905260248201527f537472696e67733a20686578206c656e67746820696e73756666696369656e7460448201526064016106de565b60008181526001830160205260408120546122ed575081546001818101845560008481526020808220909301849055845484825282860190935260409020919091556106ab565b5060006106ab565b600081815260018301602052604081205480156123de576000612319600183613ab8565b855490915060009061232d90600190613ab8565b905081811461239257600086600001828154811061234d5761234d613770565b906000526020600020015490508087600001848154811061237057612370613770565b6000918252602080832090910192909255918252600188019052604090208390555b85548690806123a3576123a3613acf565b6001900381819060005260206000200160009055905585600101600086815260200190815260200160002060009055600193505050506106ab565b60009150506106ab565b600060018460068111156123fe576123fe613138565b141561241c576124158b8b8b8b8b8b8b8a8a612623565b9050611fb9565b600284600681111561243057612430613138565b148061244d5750600484600681111561244b5761244b613138565b145b1561246357612415848c8c8c8c8c8b8a8a61282b565b600384600681111561247757612477613138565b14806124945750600584600681111561249257612492613138565b145b156124aa57612415848c8c8c8c8c8b8a8a612b1f565b60405162461bcd60e51b815260206004820152601960248201527f6272696467652074797065206e6f7420737570706f727465640000000000000060448201526064016106de565b6060824710156125535760405162461bcd60e51b815260206004820152602660248201527f416464726573733a20696e73756666696369656e742062616c616e636520666f6044820152651c8818d85b1b60d21b60648201526084016106de565b6001600160a01b0385163b6125aa5760405162461bcd60e51b815260206004820152601d60248201527f416464726573733a2063616c6c20746f206e6f6e2d636f6e747261637400000060448201526064016106de565b600080866001600160a01b031685876040516125c6919061396d565b60006040518083038185875af1925050503d8060008114612603576040519150601f19603f3d011682016040523d82523d6000602084013e612608565b606091505b5091509150612618828286612de7565b979650505050505050565b600080836001600160a01b03166382980dc46040518163ffffffff1660e01b815260040160206040518083038186803b15801561265f57600080fd5b505afa158015612673573d6000803e3d6000fd5b505050506040513d601f19601f820116820180604052508101906126979190613ae5565b90506126ad6001600160a01b038b16828b612e20565b60405163a5977fbb60e01b81526001600160a01b038c811660048301528b81166024830152604482018b90526001600160401b03808b1660648401528916608483015263ffffffff881660a483015282169063a5977fbb9060c401600060405180830381600087803b15801561272257600080fd5b505af1158015612736573d6000803e3d6000fd5b50506040516001600160601b031930606090811b821660208401528f811b821660348401528e901b166048820152605c81018c90526001600160c01b031960c08c811b8216607c8401528b811b8216608484015246901b16608c820152600092506094019050604051602081830303815290604052805190602001209050846001600160a01b0316634289fbb3858e8c86868c6040518763ffffffff1660e01b81526004016127e9959493929190613b02565b6000604051808303818588803b15801561280257600080fd5b505af1158015612816573d6000803e3d6000fd5b50939f9e505050505050505050505050505050565b60008060028b600681111561284257612842613138565b14156128c057836001600160a01b031663d8257d176040518163ffffffff1660e01b815260040160206040518083038186803b15801561288157600080fd5b505afa158015612895573d6000803e3d6000fd5b505050506040513d601f19601f820116820180604052508101906128b99190613ae5565b9050612934565b836001600160a01b031663c66a9c5a6040518163ffffffff1660e01b815260040160206040518083038186803b1580156128f957600080fd5b505afa15801561290d573d6000803e3d6000fd5b505050506040513d601f19601f820116820180604052508101906129319190613ae5565b90505b6129486001600160a01b038a16828a612e20565b600060028c600681111561295e5761295e613138565b1415612a6057816001600160a01b031663234636248b8b8b8f8c6040518663ffffffff1660e01b8152600401612998959493929190613b44565b600060405180830381600087803b1580156129b257600080fd5b505af11580156129c6573d6000803e3d6000fd5b50505050308a8a8a8e8b46604051602001612a439796959493929190606097881b6001600160601b0319908116825296881b87166014820152602881019590955260c093841b6001600160c01b031990811660488701529290961b909416605084015292811b831660648301529290921b16606c82015260740190565b604051602081830303815290604052805190602001209050612ae9565b816001600160a01b031663234636248b8b8b8f8c6040518663ffffffff1660e01b8152600401612a94959493929190613b44565b602060405180830381600087803b158015612aae57600080fd5b505af1158015612ac2573d6000803e3d6000fd5b505050506040513d601f19601f82011682018060405250810190612ae69190613822565b90505b604051634289fbb360e01b81526001600160a01b03861690634289fbb39086906127e9908f908d90889088908e90600401613b02565b60008060038b6006811115612b3657612b36613138565b1415612bb457836001600160a01b031663dfa2dbaf6040518163ffffffff1660e01b815260040160206040518083038186803b158015612b7557600080fd5b505afa158015612b89573d6000803e3d6000fd5b505050506040513d601f19601f82011682018060405250810190612bad9190613ae5565b9050612c28565b836001600160a01b03166395b12c276040518163ffffffff1660e01b815260040160206040518083038186803b158015612bed57600080fd5b505afa158015612c01573d6000803e3d6000fd5b505050506040513d601f19601f82011682018060405250810190612c259190613ae5565b90505b612c3c6001600160a01b038a16828a612e20565b600060038c6006811115612c5257612c52613138565b1415612d4957604051636f3c863f60e11b81526001600160a01b038b81166004830152602482018b90528c811660448301526001600160401b038916606483015283169063de790c7e90608401600060405180830381600087803b158015612cb957600080fd5b505af1158015612ccd573d6000803e3d6000fd5b50506040516001600160601b031930606090811b821660208401528e811b82166034840152604883018e90528f901b1660688201526001600160c01b031960c08b811b8216607c84015246901b166084820152608c019150612d2c9050565b604051602081830303815290604052805190602001209050612dd2565b816001600160a01b031663a00293018b8b8b8f8c6040518663ffffffff1660e01b8152600401612d7d959493929190613b44565b602060405180830381600087803b158015612d9757600080fd5b505af1158015612dab573d6000803e3d6000fd5b505050506040513d601f19601f82011682018060405250810190612dcf9190613822565b90505b612ae96001600160a01b038b16836000612ee1565b60608315612df65750816112ac565b825115612e065782518084602001fd5b8160405162461bcd60e51b81526004016106de919061380f565b604051636eb1769f60e11b81523060048201526001600160a01b038381166024830152600091839186169063dd62ed3e9060440160206040518083038186803b158015612e6c57600080fd5b505afa158015612e80573d6000803e3d6000fd5b505050506040513d601f19601f82011682018060405250810190612ea49190613822565b612eae9190613890565b6040516001600160a01b038516602482015260448101829052909150610a3590859063095ea7b360e01b9060640161166c565b801580612f6a5750604051636eb1769f60e11b81523060048201526001600160a01b03838116602483015284169063dd62ed3e9060440160206040518083038186803b158015612f3057600080fd5b505afa158015612f44573d6000803e3d6000fd5b505050506040513d601f19601f82011682018060405250810190612f689190613822565b155b612fd55760405162461bcd60e51b815260206004820152603660248201527f5361666545524332303a20617070726f76652066726f6d206e6f6e2d7a65726f60448201527520746f206e6f6e2d7a65726f20616c6c6f77616e636560501b60648201526084016106de565b6040516001600160a01b038316602482015260448101829052610a6090849063095ea7b360e01b9060640161166c565b60006020828403121561301757600080fd5b81356001600160e01b0319811681146112ac57600080fd5b60008083601f84011261304157600080fd5b5081356001600160401b0381111561305857600080fd5b60208301915083602082850101111561307057600080fd5b9250929050565b80356001600160401b03811681146119f057600080fd5b6001600160a01b038116811461129157600080fd5b600080600080600080608087890312156130bc57600080fd5b86356001600160401b03808211156130d357600080fd5b6130df8a838b0161302f565b90985096508691506130f360208a01613077565b9550604089013591508082111561310957600080fd5b5061311689828a0161302f565b909450925050606087013561312a8161308e565b809150509295509295509295565b634e487b7160e01b600052602160045260246000fd5b6003811061129157634e487b7160e01b600052602160045260246000fd5b602081016131798361314e565b91905290565b60008060008060006080868803121561319757600080fd5b85356131a28161308e565b94506020860135935060408601356001600160401b038111156131c457600080fd5b6131d08882890161302f565b90945092505060608601356131e48161308e565b809150509295509295909350565b60006020828403121561320457600080fd5b5035919050565b634e487b7160e01b600052604160045260246000fd5b604051606081016001600160401b03811182821017156132435761324361320b565b60405290565b604051601f8201601f191681016001600160401b03811182821017156132715761327161320b565b604052919050565b60006001600160401b038211156132925761329261320b565b5060051b60200190565b600082601f8301126132ad57600080fd5b813560206132c26132bd83613279565b613249565b82815260059290921b840181019181810190868411156132e157600080fd5b8286015b848110156132fc57803583529183019183016132e5565b509695505050505050565b600082601f83011261331857600080fd5b813560206133286132bd83613279565b82815260059290921b8401810191818101908684111561334757600080fd5b8286015b848110156132fc57803561335e8161308e565b835291830191830161334b565b6000806040838503121561337e57600080fd5b82356001600160401b038082111561339557600080fd5b6133a18683870161329c565b935060208501359150808211156133b757600080fd5b506133c485828601613307565b9150509250929050565b600080604083850312156133e157600080fd5b8235915060208301356133f38161308e565b809150509250929050565b60006020828403121561341057600080fd5b81356112ac8161308e565b60006001600160401b038211156134345761343461320b565b50601f01601f191660200190565b600082601f83011261345357600080fd5b81356134616132bd8261341b565b81815284602083860101111561347657600080fd5b816020850160208301376000918101602001919091529392505050565b60008060008060008060c087890312156134ac57600080fd5b86356134b78161308e565b955060208701356134c78161308e565b9450604087013593506134dc60608801613077565b925060808701356001600160401b038111156134f757600080fd5b61350389828a01613442565b92505060a087013561312a8161308e565b6000806000806080858703121561352a57600080fd5b84356002811061353957600080fd5b935060208501356001600160401b038082111561355557600080fd5b6135618883890161329c565b9450604087013591508082111561357757600080fd5b6135838883890161329c565b9350606087013591508082111561359957600080fd5b506135a687828801613307565b91505092959194509250565b600080600080608085870312156135c857600080fd5b8435935060208501356135da8161308e565b92506040850135915060608501356001600160401b038111156135fc57600080fd5b6135a687828801613442565b6000806040838503121561361b57600080fd5b50508035926020909101359150565b6001600160a01b0383168152604081016136438361314e565b8260208301529392505050565b6000806000806080858703121561366657600080fd5b84356136718161308e565b935061367f60208601613077565b925060408501356001600160401b0381111561369a57600080fd5b6136a687828801613442565b92505060608501356136b78161308e565b939692955090935050565b60208082526019908201527f63616c6c6572206973206e6f74206d6573736167652062757300000000000000604082015260600190565b60006060828403121561370b57600080fd5b613713613221565b8235815260208301356020820152604083013561372f8161308e565b60408201529392505050565b6020808252818101527f4f776e61626c653a2063616c6c6572206973206e6f7420746865206f776e6572604082015260600190565b634e487b7160e01b600052603260045260246000fd5b634e487b7160e01b600052601160045260246000fd5b60006000198214156137b0576137b0613786565b5060010190565b60005b838110156137d25781810151838201526020016137ba565b83811115610a355750506000910152565b600081518084526137fb8160208601602086016137b7565b601f01601f19169290920160200192915050565b6020815260006112ac60208301846137e3565b60006020828403121561383457600080fd5b5051919050565b60006060828403121561384d57600080fd5b613855613221565b8251815260208301516020820152604083015161372f8161308e565b600081600019048311821515161561388b5761388b613786565b500290565b600082198211156138a3576138a3613786565b500190565b60018060a01b03841681528260208201526060604082015260006138cf60608301846137e3565b95945050505050565b6000806000606084860312156138ed57600080fd5b83516138f88161308e565b6020850151604086015191945092506001600160401b0381111561391b57600080fd5b8401601f8101861361392c57600080fd5b805161393a6132bd8261341b565b81815287602083850101111561394f57600080fd5b6139608260208301602086016137b7565b8093505050509250925092565b6000825161397f8184602087016137b7565b9190910192915050565b6020808252602e908201527f496e697469616c697a61626c653a20636f6e747261637420697320616c72656160408201526d191e481a5b9a5d1a585b1a5e995960921b606082015260800190565b6000602082840312156139e957600080fd5b815180151581146112ac57600080fd5b7f416363657373436f6e74726f6c3a206163636f756e7420000000000000000000815260008351613a318160178501602088016137b7565b7001034b99036b4b9b9b4b733903937b6329607d1b6017918401918201528351613a628160288401602088016137b7565b01602801949350505050565b6001600160a01b03841681526001600160401b03831660208201526060604082018190526000906138cf908301846137e3565b600081613ab057613ab0613786565b506000190190565b600082821015613aca57613aca613786565b500390565b634e487b7160e01b600052603160045260246000fd5b600060208284031215613af757600080fd5b81516112ac8161308e565b6001600160a01b0386811682526001600160401b0386166020830152841660408201526060810183905260a060808201819052600090612618908301846137e3565b6001600160a01b03958616815260208101949094526001600160401b0392831660408501529316606083015291909116608082015260a0019056fea2646970667358221220b95b68f07ae709a33cc2e25e68c8207d2187621c4d9e290fad5b58ab7ea72d5964736f6c63430008090033",
  "devdoc": {
    "kind": "dev",
    "methods": {
      "getRoleAdmin(bytes32)": {
        "details": "Returns the admin role that controls `role`. See {grantRole} and {revokeRole}. To change a role's admin, use {_setRoleAdmin}."
      },
      "getRoleMember(bytes32,uint256)": {
        "details": "Returns one of the accounts that have `role`. `index` must be a value between 0 and {getRoleMemberCount}, non-inclusive. Role bearers are not sorted in any particular way, and their ordering may change at any point. WARNING: When using {getRoleMember} and {getRoleMemberCount}, make sure you perform all queries on the same block. See the following https://forum.openzeppelin.com/t/iterating-over-elements-on-enumerableset-in-openzeppelin-contracts/2296[forum post] for more information."
      },
      "getRoleMemberCount(bytes32)": {
        "details": "Returns the number of accounts that have `role`. Can be used together with {getRoleMember} to enumerate all bearers of a role."
      },
      "grantRole(bytes32,address)": {
        "details": "Grants `role` to `account`. If `account` had not been already granted `role`, emits a {RoleGranted} event. Requirements: - the caller must have ``role``'s admin role."
      },
      "hasRole(bytes32,address)": {
        "details": "Returns `true` if `account` has been granted `role`."
      },
      "owner()": {
        "details": "Returns the address of the current owner."
      },
      "renounceOwnership()": {
        "details": "Leaves the contract without owner. It will not be possible to call `onlyOwner` functions anymore. Can only be called by the current owner. NOTE: Renouncing ownership will leave the contract without an owner, thereby removing any functionality that is only available to the owner."
      },
      "renounceRole(bytes32,address)": {
        "details": "Revokes `role` from the calling account. Roles are often managed via {grantRole} and {revokeRole}: this function's purpose is to provide a mechanism for accounts to lose their privileges if they are compromised (such as when a trusted device is misplaced). If the calling account had been revoked `role`, emits a {RoleRevoked} event. Requirements: - the caller must be `account`."
      },
      "revokeRole(bytes32,address)": {
        "details": "Revokes `role` from `account`. If `account` had been granted `role`, emits a {RoleRevoked} event. Requirements: - the caller must have ``role``'s admin role."
      },
      "supportsInterface(bytes4)": {
        "details": "See {IERC165-supportsInterface}."
      }
    },
    "version": 1
  },
  "userdoc": {
    "kind": "user",
    "methods": {
      "executeMessageWithTransferFallback(address,address,uint256,uint64,bytes,address)": {
        "notice": "This functions won't be called because executeMessageWithTransfer always returns Success."
      }
    },
    "version": 1
  },
  "storageLayout": {
    "storage": [
      {
        "astId": 713,
        "contract": "contracts/xchain/cbridge/CBridgeXChainAdapterTest.sol:CBridgeXChainAdapterTest",
        "label": "_initialized",
        "offset": 0,
        "slot": "0",
        "type": "t_uint8"
      },
      {
        "astId": 716,
        "contract": "contracts/xchain/cbridge/CBridgeXChainAdapterTest.sol:CBridgeXChainAdapterTest",
        "label": "_initializing",
        "offset": 1,
        "slot": "0",
        "type": "t_bool"
      },
      {
        "astId": 3292,
        "contract": "contracts/xchain/cbridge/CBridgeXChainAdapterTest.sol:CBridgeXChainAdapterTest",
        "label": "__gap",
        "offset": 0,
        "slot": "1",
        "type": "t_array(t_uint256)50_storage"
      },
      {
        "astId": 3946,
        "contract": "contracts/xchain/cbridge/CBridgeXChainAdapterTest.sol:CBridgeXChainAdapterTest",
        "label": "__gap",
        "offset": 0,
        "slot": "51",
        "type": "t_array(t_uint256)50_storage"
      },
      {
        "astId": 184,
        "contract": "contracts/xchain/cbridge/CBridgeXChainAdapterTest.sol:CBridgeXChainAdapterTest",
        "label": "_roles",
        "offset": 0,
        "slot": "101",
        "type": "t_mapping(t_bytes32,t_struct(RoleData)179_storage)"
      },
      {
        "astId": 483,
        "contract": "contracts/xchain/cbridge/CBridgeXChainAdapterTest.sol:CBridgeXChainAdapterTest",
        "label": "__gap",
        "offset": 0,
        "slot": "102",
        "type": "t_array(t_uint256)49_storage"
      },
      {
        "astId": 33,
        "contract": "contracts/xchain/cbridge/CBridgeXChainAdapterTest.sol:CBridgeXChainAdapterTest",
        "label": "_roleMembers",
        "offset": 0,
        "slot": "151",
        "type": "t_mapping(t_bytes32,t_struct(AddressSet)4359_storage)"
      },
      {
        "astId": 143,
        "contract": "contracts/xchain/cbridge/CBridgeXChainAdapterTest.sol:CBridgeXChainAdapterTest",
        "label": "__gap",
        "offset": 0,
        "slot": "152",
        "type": "t_array(t_uint256)49_storage"
      },
      {
        "astId": 593,
        "contract": "contracts/xchain/cbridge/CBridgeXChainAdapterTest.sol:CBridgeXChainAdapterTest",
        "label": "_owner",
        "offset": 0,
        "slot": "201",
        "type": "t_address"
      },
      {
        "astId": 705,
        "contract": "contracts/xchain/cbridge/CBridgeXChainAdapterTest.sol:CBridgeXChainAdapterTest",
        "label": "__gap",
        "offset": 0,
        "slot": "202",
        "type": "t_array(t_uint256)49_storage"
      },
      {
        "astId": 64514,
        "contract": "contracts/xchain/cbridge/CBridgeXChainAdapterTest.sol:CBridgeXChainAdapterTest",
        "label": "messageBus",
        "offset": 0,
        "slot": "251",
        "type": "t_address"
      },
      {
        "astId": 55998,
        "contract": "contracts/xchain/cbridge/CBridgeXChainAdapterTest.sol:CBridgeXChainAdapterTest",
        "label": "peers",
        "offset": 0,
        "slot": "252",
        "type": "t_mapping(t_uint256,t_address)"
      },
      {
        "astId": 56156,
        "contract": "contracts/xchain/cbridge/CBridgeXChainAdapterTest.sol:CBridgeXChainAdapterTest",
        "label": "__gap",
        "offset": 0,
        "slot": "253",
        "type": "t_array(t_uint256)49_storage"
      },
      {
        "astId": 63719,
        "contract": "contracts/xchain/cbridge/CBridgeXChainAdapterTest.sol:CBridgeXChainAdapterTest",
        "label": "USDC",
        "offset": 0,
        "slot": "302",
        "type": "t_contract(IERC20Upgradeable)1707"
      },
      {
        "astId": 63722,
        "contract": "contracts/xchain/cbridge/CBridgeXChainAdapterTest.sol:CBridgeXChainAdapterTest",
        "label": "USDT",
        "offset": 0,
        "slot": "303",
        "type": "t_contract(IERC20Upgradeable)1707"
      },
      {
        "astId": 63724,
        "contract": "contracts/xchain/cbridge/CBridgeXChainAdapterTest.sol:CBridgeXChainAdapterTest",
        "label": "nonce",
        "offset": 0,
        "slot": "304",
        "type": "t_uint256"
      },
      {
        "astId": 63729,
        "contract": "contracts/xchain/cbridge/CBridgeXChainAdapterTest.sol:CBridgeXChainAdapterTest",
        "label": "transfers",
        "offset": 0,
        "slot": "305",
        "type": "t_mapping(t_uint256,t_struct(TransferEntry)63691_storage)"
      },
      {
        "astId": 63733,
        "contract": "contracts/xchain/cbridge/CBridgeXChainAdapterTest.sol:CBridgeXChainAdapterTest",
        "label": "fallbacks",
        "offset": 0,
        "slot": "306",
        "type": "t_array(t_struct(FallbackEntry)63713_storage)dyn_storage"
      }
    ],
    "types": {
      "t_address": {
        "encoding": "inplace",
        "label": "address",
        "numberOfBytes": "20"
      },
      "t_array(t_bytes32)dyn_storage": {
        "base": "t_bytes32",
        "encoding": "dynamic_array",
        "label": "bytes32[]",
        "numberOfBytes": "32"
      },
      "t_array(t_struct(FallbackEntry)63713_storage)dyn_storage": {
        "base": "t_struct(FallbackEntry)63713_storage",
        "encoding": "dynamic_array",
        "label": "struct CBridgeXChainAdapter.FallbackEntry[]",
        "numberOfBytes": "32"
      },
      "t_array(t_uint256)49_storage": {
        "base": "t_uint256",
        "encoding": "inplace",
        "label": "uint256[49]",
        "numberOfBytes": "1568"
      },
      "t_array(t_uint256)50_storage": {
        "base": "t_uint256",
        "encoding": "inplace",
        "label": "uint256[50]",
        "numberOfBytes": "1600"
      },
      "t_bool": {
        "encoding": "inplace",
        "label": "bool",
        "numberOfBytes": "1"
      },
      "t_bytes32": {
        "encoding": "inplace",
        "label": "bytes32",
        "numberOfBytes": "32"
      },
      "t_contract(IERC20Upgradeable)1707": {
        "encoding": "inplace",
        "label": "contract IERC20Upgradeable",
        "numberOfBytes": "20"
      },
      "t_enum(TransferStatus)63685": {
        "encoding": "inplace",
        "label": "enum CBridgeXChainAdapter.TransferStatus",
        "numberOfBytes": "1"
      },
      "t_mapping(t_address,t_bool)": {
        "encoding": "mapping",
        "key": "t_address",
        "label": "mapping(address => bool)",
        "numberOfBytes": "32",
        "value": "t_bool"
      },
      "t_mapping(t_bytes32,t_struct(AddressSet)4359_storage)": {
        "encoding": "mapping",
        "key": "t_bytes32",
        "label": "mapping(bytes32 => struct EnumerableSetUpgradeable.AddressSet)",
        "numberOfBytes": "32",
        "value": "t_struct(AddressSet)4359_storage"
      },
      "t_mapping(t_bytes32,t_struct(RoleData)179_storage)": {
        "encoding": "mapping",
        "key": "t_bytes32",
        "label": "mapping(bytes32 => struct AccessControlUpgradeable.RoleData)",
        "numberOfBytes": "32",
        "value": "t_struct(RoleData)179_storage"
      },
      "t_mapping(t_bytes32,t_uint256)": {
        "encoding": "mapping",
        "key": "t_bytes32",
        "label": "mapping(bytes32 => uint256)",
        "numberOfBytes": "32",
        "value": "t_uint256"
      },
      "t_mapping(t_uint256,t_address)": {
        "encoding": "mapping",
        "key": "t_uint256",
        "label": "mapping(uint256 => address)",
        "numberOfBytes": "32",
        "value": "t_address"
      },
      "t_mapping(t_uint256,t_struct(TransferEntry)63691_storage)": {
        "encoding": "mapping",
        "key": "t_uint256",
        "label": "mapping(uint256 => struct CBridgeXChainAdapter.TransferEntry)",
        "numberOfBytes": "32",
        "value": "t_struct(TransferEntry)63691_storage"
      },
      "t_struct(AddressSet)4359_storage": {
        "encoding": "inplace",
        "label": "struct EnumerableSetUpgradeable.AddressSet",
        "members": [
          {
            "astId": 4358,
            "contract": "contracts/xchain/cbridge/CBridgeXChainAdapterTest.sol:CBridgeXChainAdapterTest",
            "label": "_inner",
            "offset": 0,
            "slot": "0",
            "type": "t_struct(Set)4058_storage"
          }
        ],
        "numberOfBytes": "64"
      },
      "t_struct(FallbackEntry)63713_storage": {
        "encoding": "inplace",
        "label": "struct CBridgeXChainAdapter.FallbackEntry",
        "members": [
          {
            "astId": 63700,
            "contract": "contracts/xchain/cbridge/CBridgeXChainAdapterTest.sol:CBridgeXChainAdapterTest",
            "label": "fromChainId",
            "offset": 0,
            "slot": "0",
            "type": "t_uint256"
          },
          {
            "astId": 63702,
            "contract": "contracts/xchain/cbridge/CBridgeXChainAdapterTest.sol:CBridgeXChainAdapterTest",
            "label": "nonce",
            "offset": 0,
            "slot": "1",
            "type": "t_uint256"
          },
          {
            "astId": 63704,
            "contract": "contracts/xchain/cbridge/CBridgeXChainAdapterTest.sol:CBridgeXChainAdapterTest",
            "label": "token",
            "offset": 0,
            "slot": "2",
            "type": "t_address"
          },
          {
            "astId": 63706,
            "contract": "contracts/xchain/cbridge/CBridgeXChainAdapterTest.sol:CBridgeXChainAdapterTest",
            "label": "amount",
            "offset": 0,
            "slot": "3",
            "type": "t_uint256"
          },
          {
            "astId": 63708,
            "contract": "contracts/xchain/cbridge/CBridgeXChainAdapterTest.sol:CBridgeXChainAdapterTest",
            "label": "toChainId",
            "offset": 0,
            "slot": "4",
            "type": "t_uint256"
          },
          {
            "astId": 63710,
            "contract": "contracts/xchain/cbridge/CBridgeXChainAdapterTest.sol:CBridgeXChainAdapterTest",
            "label": "to",
            "offset": 0,
            "slot": "5",
            "type": "t_address"
          },
          {
            "astId": 63712,
            "contract": "contracts/xchain/cbridge/CBridgeXChainAdapterTest.sol:CBridgeXChainAdapterTest",
            "label": "handled",
            "offset": 20,
            "slot": "5",
            "type": "t_bool"
          }
        ],
        "numberOfBytes": "192"
      },
      "t_struct(RoleData)179_storage": {
        "encoding": "inplace",
        "label": "struct AccessControlUpgradeable.RoleData",
        "members": [
          {
            "astId": 176,
            "contract": "contracts/xchain/cbridge/CBridgeXChainAdapterTest.sol:CBridgeXChainAdapterTest",
            "label": "members",
            "offset": 0,
            "slot": "0",
            "type": "t_mapping(t_address,t_bool)"
          },
          {
            "astId": 178,
            "contract": "contracts/xchain/cbridge/CBridgeXChainAdapterTest.sol:CBridgeXChainAdapterTest",
            "label": "adminRole",
            "offset": 0,
            "slot": "1",
            "type": "t_bytes32"
          }
        ],
        "numberOfBytes": "64"
      },
      "t_struct(Set)4058_storage": {
        "encoding": "inplace",
        "label": "struct EnumerableSetUpgradeable.Set",
        "members": [
          {
            "astId": 4053,
            "contract": "contracts/xchain/cbridge/CBridgeXChainAdapterTest.sol:CBridgeXChainAdapterTest",
            "label": "_values",
            "offset": 0,
            "slot": "0",
            "type": "t_array(t_bytes32)dyn_storage"
          },
          {
            "astId": 4057,
            "contract": "contracts/xchain/cbridge/CBridgeXChainAdapterTest.sol:CBridgeXChainAdapterTest",
            "label": "_indexes",
            "offset": 0,
            "slot": "1",
            "type": "t_mapping(t_bytes32,t_uint256)"
          }
        ],
        "numberOfBytes": "64"
      },
      "t_struct(TransferEntry)63691_storage": {
        "encoding": "inplace",
        "label": "struct CBridgeXChainAdapter.TransferEntry",
        "members": [
          {
            "astId": 63687,
            "contract": "contracts/xchain/cbridge/CBridgeXChainAdapterTest.sol:CBridgeXChainAdapterTest",
            "label": "from",
            "offset": 0,
            "slot": "0",
            "type": "t_address"
          },
          {
            "astId": 63690,
            "contract": "contracts/xchain/cbridge/CBridgeXChainAdapterTest.sol:CBridgeXChainAdapterTest",
            "label": "status",
            "offset": 20,
            "slot": "0",
            "type": "t_enum(TransferStatus)63685"
          }
        ],
        "numberOfBytes": "32"
      },
      "t_uint256": {
        "encoding": "inplace",
        "label": "uint256",
        "numberOfBytes": "32"
      },
      "t_uint8": {
        "encoding": "inplace",
        "label": "uint8",
        "numberOfBytes": "1"
      }
    }
  }
}