{
  "address": "0x4F771Abf158a39A02a81E202e3C7beBf3e808FE2",
  "abi": [
    {
      "anonymous": false,
      "inputs": [
        {
          "indexed": false,
          "internalType": "uint8",
          "name": "version",
          "type": "uint8"
        }
      ],
      "name": "Initialized",
      "type": "event"
    },
    {
      "anonymous": false,
      "inputs": [
        {
          "indexed": false,
          "internalType": "address",
          "name": "messageBus",
          "type": "address"
        }
      ],
      "name": "MessageBusUpdated",
      "type": "event"
    },
    {
      "anonymous": false,
      "inputs": [
        {
          "indexed": true,
          "internalType": "address",
          "name": "previousOwner",
          "type": "address"
        },
        {
          "indexed": true,
          "internalType": "address",
          "name": "newOwner",
          "type": "address"
        }
      ],
      "name": "OwnershipTransferred",
      "type": "event"
    },
    {
      "anonymous": false,
      "inputs": [
        {
          "indexed": true,
          "internalType": "uint256",
          "name": "fromChainId",
          "type": "uint256"
        },
        {
          "indexed": false,
          "internalType": "uint256",
          "name": "nonce",
          "type": "uint256"
        },
        {
          "indexed": true,
          "internalType": "address",
          "name": "token",
          "type": "address"
        },
        {
          "indexed": true,
          "internalType": "uint256",
          "name": "amount",
          "type": "uint256"
        },
        {
          "indexed": false,
          "internalType": "address",
          "name": "to",
          "type": "address"
        }
      ],
      "name": "Receive",
      "type": "event"
    },
    {
      "anonymous": false,
      "inputs": [
        {
          "indexed": false,
          "internalType": "uint256",
          "name": "nonce",
          "type": "uint256"
        },
        {
          "indexed": false,
          "internalType": "address",
          "name": "from",
          "type": "address"
        },
        {
          "indexed": true,
          "internalType": "address",
          "name": "token",
          "type": "address"
        },
        {
          "indexed": true,
          "internalType": "uint256",
          "name": "amount",
          "type": "uint256"
        },
        {
          "indexed": true,
          "internalType": "uint256",
          "name": "toChainId",
          "type": "uint256"
        },
        {
          "indexed": false,
          "internalType": "address",
          "name": "to",
          "type": "address"
        }
      ],
      "name": "Refund",
      "type": "event"
    },
    {
      "anonymous": false,
      "inputs": [
        {
          "indexed": true,
          "internalType": "bytes32",
          "name": "role",
          "type": "bytes32"
        },
        {
          "indexed": true,
          "internalType": "bytes32",
          "name": "previousAdminRole",
          "type": "bytes32"
        },
        {
          "indexed": true,
          "internalType": "bytes32",
          "name": "newAdminRole",
          "type": "bytes32"
        }
      ],
      "name": "RoleAdminChanged",
      "type": "event"
    },
    {
      "anonymous": false,
      "inputs": [
        {
          "indexed": true,
          "internalType": "bytes32",
          "name": "role",
          "type": "bytes32"
        },
        {
          "indexed": true,
          "internalType": "address",
          "name": "account",
          "type": "address"
        },
        {
          "indexed": true,
          "internalType": "address",
          "name": "sender",
          "type": "address"
        }
      ],
      "name": "RoleGranted",
      "type": "event"
    },
    {
      "anonymous": false,
      "inputs": [
        {
          "indexed": true,
          "internalType": "bytes32",
          "name": "role",
          "type": "bytes32"
        },
        {
          "indexed": true,
          "internalType": "address",
          "name": "account",
          "type": "address"
        },
        {
          "indexed": true,
          "internalType": "address",
          "name": "sender",
          "type": "address"
        }
      ],
      "name": "RoleRevoked",
      "type": "event"
    },
    {
      "anonymous": false,
      "inputs": [
        {
          "indexed": false,
          "internalType": "uint256",
          "name": "nonce",
          "type": "uint256"
        },
        {
          "indexed": false,
          "internalType": "address",
          "name": "from",
          "type": "address"
        },
        {
          "indexed": true,
          "internalType": "address",
          "name": "token",
          "type": "address"
        },
        {
          "indexed": true,
          "internalType": "uint256",
          "name": "amount",
          "type": "uint256"
        },
        {
          "indexed": true,
          "internalType": "uint256",
          "name": "toChainId",
          "type": "uint256"
        },
        {
          "indexed": false,
          "internalType": "address",
          "name": "to",
          "type": "address"
        }
      ],
      "name": "Transfer",
      "type": "event"
    },
    {
      "inputs": [],
      "name": "CLIENT_ROLE",
      "outputs": [
        {
          "internalType": "bytes32",
          "name": "",
          "type": "bytes32"
        }
      ],
      "stateMutability": "view",
      "type": "function"
    },
    {
      "inputs": [],
      "name": "DEFAULT_ADMIN_ROLE",
      "outputs": [
        {
          "internalType": "bytes32",
          "name": "",
          "type": "bytes32"
        }
      ],
      "stateMutability": "view",
      "type": "function"
    },
    {
      "inputs": [
        {
          "internalType": "uint256",
          "name": "",
          "type": "uint256"
        },
        {
          "internalType": "address",
          "name": "_targetContract",
          "type": "address"
        },
        {
          "internalType": "uint256",
          "name": "_targetCallValue",
          "type": "uint256"
        },
        {
          "internalType": "bytes",
          "name": "_targetCallData",
          "type": "bytes"
        }
      ],
      "name": "calcCallFee",
      "outputs": [
        {
          "internalType": "uint256",
          "name": "",
          "type": "uint256"
        }
      ],
      "stateMutability": "view",
      "type": "function"
    },
    {
      "inputs": [],
      "name": "calcTransferFee",
      "outputs": [
        {
          "internalType": "uint256",
          "name": "",
          "type": "uint256"
        }
      ],
      "stateMutability": "view",
      "type": "function"
    },
    {
      "inputs": [
        {
          "internalType": "uint256",
          "name": "_toChainId",
          "type": "uint256"
        },
        {
          "internalType": "address",
          "name": "_targetContract",
          "type": "address"
        },
        {
          "internalType": "uint256",
          "name": "_targetCallValue",
          "type": "uint256"
        },
        {
          "internalType": "bytes",
          "name": "_targetCallData",
          "type": "bytes"
        }
      ],
      "name": "call",
      "outputs": [],
      "stateMutability": "payable",
      "type": "function"
    },
    {
      "inputs": [
        {
          "internalType": "bytes",
          "name": "_sender",
          "type": "bytes"
        },
        {
          "internalType": "uint64",
          "name": "_srcChainId",
          "type": "uint64"
        },
        {
          "internalType": "bytes",
          "name": "_message",
          "type": "bytes"
        },
        {
          "internalType": "address",
          "name": "_executor",
          "type": "address"
        }
      ],
      "name": "executeMessage",
      "outputs": [
        {
          "internalType": "enum IMessageReceiverApp.ExecutionStatus",
          "name": "",
          "type": "uint8"
        }
      ],
      "stateMutability": "payable",
      "type": "function"
    },
    {
      "inputs": [
        {
          "internalType": "address",
          "name": "_sender",
          "type": "address"
        },
        {
          "internalType": "uint64",
          "name": "_srcChainId",
          "type": "uint64"
        },
        {
          "internalType": "bytes",
          "name": "_message",
          "type": "bytes"
        },
        {
          "internalType": "address",
          "name": "",
          "type": "address"
        }
      ],
      "name": "executeMessage",
      "outputs": [
        {
          "internalType": "enum IMessageReceiverApp.ExecutionStatus",
          "name": "",
          "type": "uint8"
        }
      ],
      "stateMutability": "payable",
      "type": "function"
    },
    {
      "inputs": [
        {
          "internalType": "address",
          "name": "_sender",
          "type": "address"
        },
        {
          "internalType": "address",
          "name": "_token",
          "type": "address"
        },
        {
          "internalType": "uint256",
          "name": "_amount",
          "type": "uint256"
        },
        {
          "internalType": "uint64",
          "name": "_srcChainId",
          "type": "uint64"
        },
        {
          "internalType": "bytes",
          "name": "_message",
          "type": "bytes"
        },
        {
          "internalType": "address",
          "name": "",
          "type": "address"
        }
      ],
      "name": "executeMessageWithTransfer",
      "outputs": [
        {
          "internalType": "enum IMessageReceiverApp.ExecutionStatus",
          "name": "",
          "type": "uint8"
        }
      ],
      "stateMutability": "payable",
      "type": "function"
    },
    {
      "inputs": [
        {
          "internalType": "address",
          "name": "",
          "type": "address"
        },
        {
          "internalType": "address",
          "name": "_token",
          "type": "address"
        },
        {
          "internalType": "uint256",
          "name": "_amount",
          "type": "uint256"
        },
        {
          "internalType": "uint64",
          "name": "_srcChainId",
          "type": "uint64"
        },
        {
          "internalType": "bytes",
          "name": "_message",
          "type": "bytes"
        },
        {
          "internalType": "address",
          "name": "",
          "type": "address"
        }
      ],
      "name": "executeMessageWithTransferFallback",
      "outputs": [
        {
          "internalType": "enum IMessageReceiverApp.ExecutionStatus",
          "name": "",
          "type": "uint8"
        }
      ],
      "stateMutability": "payable",
      "type": "function"
    },
    {
      "inputs": [
        {
          "internalType": "address",
          "name": "_token",
          "type": "address"
        },
        {
          "internalType": "uint256",
          "name": "_amount",
          "type": "uint256"
        },
        {
          "internalType": "bytes",
          "name": "_message",
          "type": "bytes"
        },
        {
          "internalType": "address",
          "name": "",
          "type": "address"
        }
      ],
      "name": "executeMessageWithTransferRefund",
      "outputs": [
        {
          "internalType": "enum IMessageReceiverApp.ExecutionStatus",
          "name": "",
          "type": "uint8"
        }
      ],
      "stateMutability": "payable",
      "type": "function"
    },
    {
      "inputs": [
        {
          "internalType": "uint256",
          "name": "",
          "type": "uint256"
        }
      ],
      "name": "fallbacks",
      "outputs": [
        {
          "internalType": "uint256",
          "name": "fromChainId",
          "type": "uint256"
        },
        {
          "internalType": "uint256",
          "name": "nonce",
          "type": "uint256"
        },
        {
          "internalType": "address",
          "name": "token",
          "type": "address"
        },
        {
          "internalType": "uint256",
          "name": "amount",
          "type": "uint256"
        },
        {
          "internalType": "uint256",
          "name": "toChainId",
          "type": "uint256"
        },
        {
          "internalType": "address",
          "name": "to",
          "type": "address"
        },
        {
          "internalType": "bool",
          "name": "handled",
          "type": "bool"
        }
      ],
      "stateMutability": "view",
      "type": "function"
    },
    {
      "inputs": [
        {
          "internalType": "bytes32",
          "name": "role",
          "type": "bytes32"
        }
      ],
      "name": "getRoleAdmin",
      "outputs": [
        {
          "internalType": "bytes32",
          "name": "",
          "type": "bytes32"
        }
      ],
      "stateMutability": "view",
      "type": "function"
    },
    {
      "inputs": [
        {
          "internalType": "bytes32",
          "name": "role",
          "type": "bytes32"
        },
        {
          "internalType": "uint256",
          "name": "index",
          "type": "uint256"
        }
      ],
      "name": "getRoleMember",
      "outputs": [
        {
          "internalType": "address",
          "name": "",
          "type": "address"
        }
      ],
      "stateMutability": "view",
      "type": "function"
    },
    {
      "inputs": [
        {
          "internalType": "bytes32",
          "name": "role",
          "type": "bytes32"
        }
      ],
      "name": "getRoleMemberCount",
      "outputs": [
        {
          "internalType": "uint256",
          "name": "",
          "type": "uint256"
        }
      ],
      "stateMutability": "view",
      "type": "function"
    },
    {
      "inputs": [
        {
          "internalType": "bytes32",
          "name": "role",
          "type": "bytes32"
        },
        {
          "internalType": "address",
          "name": "account",
          "type": "address"
        }
      ],
      "name": "grantRole",
      "outputs": [],
      "stateMutability": "nonpayable",
      "type": "function"
    },
    {
      "inputs": [
        {
          "internalType": "bytes32",
          "name": "role",
          "type": "bytes32"
        },
        {
          "internalType": "address",
          "name": "account",
          "type": "address"
        }
      ],
      "name": "hasRole",
      "outputs": [
        {
          "internalType": "bool",
          "name": "",
          "type": "bool"
        }
      ],
      "stateMutability": "view",
      "type": "function"
    },
    {
      "inputs": [],
      "name": "initialize",
      "outputs": [],
      "stateMutability": "nonpayable",
      "type": "function"
    },
    {
      "inputs": [
        {
          "internalType": "address",
          "name": "_messageBus",
          "type": "address"
        }
      ],
      "name": "initialize1",
      "outputs": [],
      "stateMutability": "nonpayable",
      "type": "function"
    },
    {
      "inputs": [],
      "name": "maxSlippage",
      "outputs": [
        {
          "internalType": "uint32",
          "name": "",
          "type": "uint32"
        }
      ],
      "stateMutability": "view",
      "type": "function"
    },
    {
      "inputs": [],
      "name": "messageBus",
      "outputs": [
        {
          "internalType": "address",
          "name": "",
          "type": "address"
        }
      ],
      "stateMutability": "view",
      "type": "function"
    },
    {
      "inputs": [],
      "name": "nonce",
      "outputs": [
        {
          "internalType": "uint256",
          "name": "",
          "type": "uint256"
        }
      ],
      "stateMutability": "view",
      "type": "function"
    },
    {
      "inputs": [],
      "name": "owner",
      "outputs": [
        {
          "internalType": "address",
          "name": "",
          "type": "address"
        }
      ],
      "stateMutability": "view",
      "type": "function"
    },
    {
      "inputs": [
        {
          "internalType": "uint256",
          "name": "",
          "type": "uint256"
        }
      ],
      "name": "peers",
      "outputs": [
        {
          "internalType": "address",
          "name": "",
          "type": "address"
        }
      ],
      "stateMutability": "view",
      "type": "function"
    },
    {
      "inputs": [],
      "name": "renounceOwnership",
      "outputs": [],
      "stateMutability": "nonpayable",
      "type": "function"
    },
    {
      "inputs": [
        {
          "internalType": "bytes32",
          "name": "role",
          "type": "bytes32"
        },
        {
          "internalType": "address",
          "name": "account",
          "type": "address"
        }
      ],
      "name": "renounceRole",
      "outputs": [],
      "stateMutability": "nonpayable",
      "type": "function"
    },
    {
      "inputs": [
        {
          "internalType": "bytes32",
          "name": "role",
          "type": "bytes32"
        },
        {
          "internalType": "address",
          "name": "account",
          "type": "address"
        }
      ],
      "name": "revokeRole",
      "outputs": [],
      "stateMutability": "nonpayable",
      "type": "function"
    },
    {
      "inputs": [
        {
          "internalType": "uint32",
          "name": "_maxSlippage",
          "type": "uint32"
        }
      ],
      "name": "setMaxSlippage",
      "outputs": [],
      "stateMutability": "nonpayable",
      "type": "function"
    },
    {
      "inputs": [
        {
          "internalType": "address",
          "name": "_messageBus",
          "type": "address"
        }
      ],
      "name": "setMessageBus",
      "outputs": [],
      "stateMutability": "nonpayable",
      "type": "function"
    },
    {
      "inputs": [
        {
          "internalType": "uint256[]",
          "name": "_chainIds",
          "type": "uint256[]"
        },
        {
          "internalType": "address[]",
          "name": "_peers",
          "type": "address[]"
        }
      ],
      "name": "setPeers",
      "outputs": [],
      "stateMutability": "nonpayable",
      "type": "function"
    },
    {
      "inputs": [
        {
          "internalType": "bytes4",
          "name": "interfaceId",
          "type": "bytes4"
        }
      ],
      "name": "supportsInterface",
      "outputs": [
        {
          "internalType": "bool",
          "name": "",
          "type": "bool"
        }
      ],
      "stateMutability": "view",
      "type": "function"
    },
    {
      "inputs": [
        {
          "internalType": "address",
          "name": "_token",
          "type": "address"
        },
        {
          "internalType": "uint256[]",
          "name": "_amounts",
          "type": "uint256[]"
        },
        {
          "internalType": "uint256[]",
          "name": "_toChainIds",
          "type": "uint256[]"
        },
        {
          "internalType": "address[]",
          "name": "_toAddresses",
          "type": "address[]"
        }
      ],
      "name": "transfer",
      "outputs": [],
      "stateMutability": "payable",
      "type": "function"
    },
    {
      "inputs": [
        {
          "internalType": "address",
          "name": "newOwner",
          "type": "address"
        }
      ],
      "name": "transferOwnership",
      "outputs": [],
      "stateMutability": "nonpayable",
      "type": "function"
    },
    {
      "inputs": [
        {
          "internalType": "uint256",
          "name": "",
          "type": "uint256"
        }
      ],
      "name": "transfers",
      "outputs": [
        {
          "internalType": "address",
          "name": "from",
          "type": "address"
        },
        {
          "internalType": "enum CBridgeXChainAdapter.TransferStatus",
          "name": "status",
          "type": "uint8"
        }
      ],
      "stateMutability": "view",
      "type": "function"
    },
    {
      "stateMutability": "payable",
      "type": "receive"
    }
  ],
  "transactionHash": "0xb845e2854997f0c8d5caba94aba2f41efd8663173ff542aadf8d9fb3b71dc474",
  "args": [],
  "numDeployments": 1,
  "solcInputHash": "d804abab90110ec1311aab4f18ffccdd",
  "bytecode": "0x608060405234801561001057600080fd5b50613976806100206000396000f3fe6080604052600436106101f25760003560e01c80638c04166f1161010d578063ad3ea037116100a0578063ca15c8731161006f578063ca15c873146105df578063d547741f146105ff578063df7171381461061f578063eae6f6521461063f578063f2fde38b1461067357600080fd5b8063ad3ea03714610552578063affed0e014610572578063be4f3e8f14610589578063bebc4f71146105bf57600080fd5b80639377d711116100dc5780639377d711146104b95780639c649fdf1461050a578063a1a227fa1461051d578063a217fddf1461053d57600080fd5b80638c04166f146104145780638da5cb5b146104475780639010d07c1461047957806391d148541461049957600080fd5b806336568abe11610185578063715018a611610154578063715018a6146103c457806377cae758146103d95780637cd2bffc146103ec5780638129fc1c146103ff57600080fd5b806336568abe1461035c5780633b11ca511461037c578063547cad12146103915780635ab7afc6146103b157600080fd5b8063219d5ca5116101c1578063219d5ca5146102c9578063248a9ca3146102de5780632de2c8ad1461031c5780632f2ff15d1461033c57600080fd5b806301ffc9a7146101fe578063063ce4e5146102335780630bcb4982146102535780630d13b65d1461026657600080fd5b366101f957005b600080fd5b34801561020a57600080fd5b5061021e610219366004612da4565b610693565b60405190151581526020015b60405180910390f35b610246610241366004612e42565b6106be565b60405161022a9190612f0b565b610246610261366004612f1e565b6106fe565b34801561027257600080fd5b50610286610281366004612f91565b6108ee565b6040805197885260208801969096526001600160a01b0394851695870195909552606086019290925260808501521660a0830152151560c082015260e00161022a565b6102dc6102d736600461310a565b61094e565b005b3480156102ea57600080fd5b5061030e6102f9366004612f91565b60009081526065602052604090206001015490565b60405190815260200161022a565b34801561032857600080fd5b506102dc6103373660046131a4565b610aad565b34801561034857600080fd5b506102dc610357366004613207565b610ba7565b34801561036857600080fd5b506102dc610377366004613207565b610bd1565b34801561038857600080fd5b5061030e610c4f565b34801561039d57600080fd5b506102dc6103ac366004613237565b610d2b565b6102466103bf3660046132cc565b610daa565b3480156103d057600080fd5b506102dc610f89565b6102dc6103e736600461334d565b610fbf565b6102466103fa3660046132cc565b611075565b34801561040b57600080fd5b506102dc6111ad565b34801561042057600080fd5b5061012e546104329063ffffffff1681565b60405163ffffffff909116815260200161022a565b34801561045357600080fd5b5060c9546001600160a01b03165b6040516001600160a01b03909116815260200161022a565b34801561048557600080fd5b506104616104943660046133a3565b61123a565b3480156104a557600080fd5b5061021e6104b4366004613207565b611259565b3480156104c557600080fd5b506104fc6104d4366004612f91565b610130602052600090815260409020546001600160a01b03811690600160a01b900460ff1682565b60405161022a9291906133c5565b6102466105183660046133eb565b611284565b34801561052957600080fd5b5060fb54610461906001600160a01b031681565b34801561054957600080fd5b5061030e600081565b34801561055e57600080fd5b506102dc61056d36600461345d565b6113b5565b34801561057e57600080fd5b5061030e61012f5481565b34801561059557600080fd5b506104616105a4366004612f91565b60fc602052600090815260409020546001600160a01b031681565b3480156105cb57600080fd5b5061030e6105da36600461334d565b61144b565b3480156105eb57600080fd5b5061030e6105fa366004612f91565b6114f2565b34801561060b57600080fd5b506102dc61061a366004613207565b611509565b34801561062b57600080fd5b506102dc61063a366004613237565b61152e565b34801561064b57600080fd5b5061030e7fa5ff3ec7a96cdbba4d2d5172d66bbc73c6db3885f29b21be5da9fa7a7c02523281565b34801561067f57600080fd5b506102dc61068e366004613237565b6115d2565b60006001600160e01b03198216635a05180f60e01b14806106b857506106b882611605565b92915050565b60fb546000906001600160a01b031633146106f45760405162461bcd60e51b81526004016106eb90613483565b60405180910390fd5b9695505050505050565b60fb546000906001600160a01b0316331461072b5760405162461bcd60e51b81526004016106eb90613483565b6000610739848601866134ba565b8051602082015160408301519293509091600260008481526101306020526040902054600160a01b900460ff16600281111561077757610777612ed7565b14156107b85760405162461bcd60e51b815260206004820152601060248201526f105b1c9958591e481c99599d5b99195960821b60448201526064016106eb565b6000838152610130602052604090208054600160a11b60ff60a01b198216179091556001600160a01b03908116906107f3908c16828c61163a565b6001600160a01b0381163b1561087c5760405163472c38ff60e01b8152600481018590526001600160a01b038c81166024830152604482018c905260648201859052838116608483015282169063472c38ff9060a401600060405180830381600087803b15801561086357600080fd5b505af1158015610877573d6000803e3d6000fd5b505050505b828a8c6001600160a01b03167f63d0308ee4588438305445042ecb87ef5b77c2068e39365290d3212bad242e418785876040516108d5939291909283526001600160a01b03918216602084015216604082015260600190565b60405180910390a45060019a9950505050505050505050565b61013181815481106108ff57600080fd5b600091825260209091206006909102018054600182015460028301546003840154600485015460059095015493955091936001600160a01b03918216939091811690600160a01b900460ff1687565b7fa5ff3ec7a96cdbba4d2d5172d66bbc73c6db3885f29b21be5da9fa7a7c0252326109788161169d565b83516000610984610c4f565b90506109908282613512565b3410156109cf5760405162461bcd60e51b815260206004820152600d60248201526c4e6f20656e6f7567682066656560981b60448201526064016106eb565b336000805b84811015610a15578881815181106109ee576109ee613531565b602002602001015182610a019190613547565b915080610a0d8161355f565b9150506109d4565b50610a2b6001600160a01b038a168330846116a7565b60005b84811015610aa157610a8f838b8b8481518110610a4d57610a4d613531565b60200260200101518b8581518110610a6757610a67613531565b60200260200101518b8681518110610a8157610a81613531565b6020026020010151896116df565b80610a998161355f565b915050610a2e565b50505050505050505050565b60c9546001600160a01b03163314610ad75760405162461bcd60e51b81526004016106eb9061357a565b815160005b81811015610ba1576000848281518110610af857610af8613531565b602002602001015190508060001415610b455760405162461bcd60e51b815260206004820152600f60248201526e125b9d985b1a590818da185a5b9251608a1b60448201526064016106eb565b838281518110610b5757610b57613531565b602090810291909101810151600092835260fc909152604090912080546001600160a01b0319166001600160a01b0390921691909117905580610b998161355f565b915050610adc565b50505050565b600082815260656020526040902060010154610bc28161169d565b610bcc83836118c1565b505050565b6001600160a01b0381163314610c415760405162461bcd60e51b815260206004820152602f60248201527f416363657373436f6e74726f6c3a2063616e206f6e6c792072656e6f756e636560448201526e103937b632b9903337b91039b2b63360891b60648201526084016106eb565b610c4b82826118e3565b5050565b604080516060808201835261012f5480835260006020808501828152948601828152865191820193909352935194840194909452516001600160a01b031690820152819060800160408051601f198184030181529082905260fb5463299aee5160e11b83529092506001600160a01b031690635335dca290610cd5908490600401613607565b60206040518083038186803b158015610ced57600080fd5b505afa158015610d01573d6000803e3d6000fd5b505050506040513d601f19601f82011682018060405250810190610d25919061361a565b91505090565b60c9546001600160a01b03163314610d555760405162461bcd60e51b81526004016106eb9061357a565b60fb80546001600160a01b0319166001600160a01b0383169081179091556040519081527f3f8223bcd8b3b875473e9f9e14e1ad075451a2b5ffd31591655da9a01516bf5e906020015b60405180910390a150565b60fb546000906001600160a01b03163314610dd75760405162461bcd60e51b81526004016106eb90613483565b600083806020019051810190610ded9190613633565b6040805160e0810182526001600160401b03979097168752815160208089019182526001600160a01b039a8b1689840190815260608a019a8b529084015160808a0190815293909201518a1660a08901908152600060c08a01818152610131805460018082018355919093529a517fbd987ad6ccdb7c7567f7335ea839f95dc944431abcf935b6924f70215963db7360069093029283015592517fbd987ad6ccdb7c7567f7335ea839f95dc944431abcf935b6924f70215963db7482015592517fbd987ad6ccdb7c7567f7335ea839f95dc944431abcf935b6924f70215963db75840180546001600160a01b031916918d1691909117905598517fbd987ad6ccdb7c7567f7335ea839f95dc944431abcf935b6924f70215963db7683015591517fbd987ad6ccdb7c7567f7335ea839f95dc944431abcf935b6924f70215963db7782015596517fbd987ad6ccdb7c7567f7335ea839f95dc944431abcf935b6924f70215963db7890970180549151979098166001600160a81b031990911617600160a01b96151596909602959095179095555090949350505050565b60c9546001600160a01b03163314610fb35760405162461bcd60e51b81526004016106eb9061357a565b610fbd6000611905565b565b7fa5ff3ec7a96cdbba4d2d5172d66bbc73c6db3885f29b21be5da9fa7a7c025232610fe98161169d565b600085815260fc60205260409020546001600160a01b0316806110385760405162461bcd60e51b81526020600482015260076024820152662737903832b2b960c91b60448201526064016106eb565b600085858560405160200161104f93929190613669565b604051602081830303815290604052905061106c82888334611957565b50505050505050565b60fb546000906001600160a01b031633146110a25760405162461bcd60e51b81526004016106eb90613483565b6001600160401b038416600090815260fc60205260409020546001600160a01b038881169116146111045760405162461bcd60e51b815260206004820152600c60248201526b2bb937b7339039b2b73232b960a11b60448201526064016106eb565b60008380602001905181019061111a9190613633565b6040810151909150611137906001600160a01b038916908861163a565b85876001600160a01b0316866001600160401b03167fbf57462ba9b000305d6dc3fccd3bde576baffe803a6abf73974617798568506a846000015185604001516040516111979291909182526001600160a01b0316602082015260400190565b60405180910390a4506001979650505050505050565b60006111b96001611973565b905080156111d1576000805461ff0019166101001790555b6111d9611a00565b6111f560006111f060c9546001600160a01b031690565b611a74565b8015611237576000805461ff0019169055604051600181527f7f26b83ff96e1f2b6a682f133852f6798a09c465da95921460cefb384740249890602001610d9f565b50565b60008281526097602052604081206112529083611a7e565b9392505050565b60009182526065602090815260408084206001600160a01b0393909316845291905290205460ff1690565b60fb546000906001600160a01b031633146112b15760405162461bcd60e51b81526004016106eb90613483565b6001600160401b038416600090815260fc60205260409020546001600160a01b038681169116146113135760405162461bcd60e51b815260206004820152600c60248201526b2bb937b7339039b2b73232b960a11b60448201526064016106eb565b60008060008580602001905181019061132c9190613699565b9250925092506000836001600160a01b0316838360405161134d919061372e565b60006040518083038185875af1925050503d806000811461138a576040519150601f19603f3d011682016040523d82523d6000602084013e61138f565b606091505b50909150506001811515146113a55760006113a8565b60015b9998505050505050505050565b60c9546001600160a01b031633146113df5760405162461bcd60e51b81526004016106eb9061357a565b620f42408163ffffffff16111561142e5760405162461bcd60e51b8152602060048201526013602482015272496e76616c6964206d6178536c69707061676560681b60448201526064016106eb565b61012e805463ffffffff191663ffffffff92909216919091179055565b60008084848460405160200161146393929190613669565b60408051601f198184030181529082905260fb5463299aee5160e11b83529092506001600160a01b031690635335dca2906114a2908490600401613607565b60206040518083038186803b1580156114ba57600080fd5b505afa1580156114ce573d6000803e3d6000fd5b505050506040513d601f19601f820116820180604052508101906106f4919061361a565b60008181526097602052604081206106b890611a8a565b6000828152606560205260409020600101546115248161169d565b610bcc83836118e3565b600061153a6001611973565b90508015611552576000805461ff0019166101001790555b61155a6111ad565b60fb80546001600160a01b0384166001600160a01b031990911617905561012e805463ffffffff191661c3501790558015610c4b576000805461ff0019169055604051600181527f7f26b83ff96e1f2b6a682f133852f6798a09c465da95921460cefb38474024989060200160405180910390a15050565b60c9546001600160a01b031633146115fc5760405162461bcd60e51b81526004016106eb9061357a565b61123781611a94565b60006001600160e01b03198216637965db0b60e01b14806106b857506301ffc9a760e01b6001600160e01b03198316146106b8565b6040516001600160a01b038316602482015260448101829052610bcc90849063a9059cbb60e01b906064015b60408051601f198184030181529190526020810180516001600160e01b03166001600160e01b031990931692909217909152611aee565b6112378133611bc0565b6040516001600160a01b0380851660248301528316604482015260648101829052610ba19085906323b872dd60e01b90608401611666565b600083815260fc60205260409020546001600160a01b03168061172e5760405162461bcd60e51b81526020600482015260076024820152662737903832b2b960c91b60448201526064016106eb565b61012f54604080518082019091526001600160a01b03891681526020810160009052600082815261013060209081526040909120825181546001600160a01b039091166001600160a01b031982168117835592840151919283916001600160a81b03191617600160a01b8360028111156117aa576117aa612ed7565b0217905550506040805160608101825283815260208082018990526001600160a01b03881682840152915160009350611808920181518152602080830151908201526040918201516001600160a01b03169181019190915260600190565b604051602081830303815290604052905061183e838989898661012e60009054906101000a900463ffffffff168760018c611c24565b5061012f80549060006118508361355f565b91905055508587896001600160a01b03167f277f8efab4a541542121eec9cf9858f44e9f7b133d07da793167fd9781a29ff985338a6040516118ae939291909283526001600160a01b03918216602084015216604082015260600190565b60405180910390a4505050505050505050565b6118cb8282611c5b565b6000828152609760205260409020610bcc9082611ce1565b6118ed8282611cf6565b6000828152609760205260409020610bcc9082611d5d565b60c980546001600160a01b038381166001600160a01b0319831681179093556040519116919082907f8be0079c531659141344cd1fd0a4f28419497f9722a3daafe3b4186f6b6457e090600090a35050565b60fb54610ba1908590859085906001600160a01b031685611d72565b60008054610100900460ff16156119ba578160ff1660011480156119965750303b155b6119b25760405162461bcd60e51b81526004016106eb9061374a565b506000919050565b60005460ff8084169116106119e15760405162461bcd60e51b81526004016106eb9061374a565b506000805460ff191660ff92909216919091179055600190565b919050565b600054610100900460ff16611a6b5760405162461bcd60e51b815260206004820152602b60248201527f496e697469616c697a61626c653a20636f6e7472616374206973206e6f74206960448201526a6e697469616c697a696e6760a81b60648201526084016106eb565b610fbd33611905565b610c4b82826118c1565b60006112528383611dd1565b60006106b8825490565b60c9546001600160a01b03163314611abe5760405162461bcd60e51b81526004016106eb9061357a565b611ada6000611ad560c9546001600160a01b031690565b6118e3565b611ae381611dfb565b611237600082611a74565b6000611b43826040518060400160405280602081526020017f5361666545524332303a206c6f772d6c6576656c2063616c6c206661696c6564815250856001600160a01b0316611e939092919063ffffffff16565b805190915015610bcc5780806020019051810190611b619190613798565b610bcc5760405162461bcd60e51b815260206004820152602a60248201527f5361666545524332303a204552433230206f7065726174696f6e20646964206e6044820152691bdd081cdd58d8d9595960b21b60648201526084016106eb565b611bca8282611259565b610c4b57611be2816001600160a01b03166014611eaa565b611bed836020611eaa565b604051602001611bfe9291906137ba565b60408051601f198184030181529082905262461bcd60e51b82526106eb91600401613607565b6000611c4d8a8a8a8a8a8a8a8a60fb60009054906101000a90046001600160a01b03168b612045565b9a9950505050505050505050565b611c658282611259565b610c4b5760008281526065602090815260408083206001600160a01b03851684529091529020805460ff19166001179055611c9d3390565b6001600160a01b0316816001600160a01b0316837f2f8788117e7eff1d82e926ec794901d17c78024a50270940304540a733656f0d60405160405180910390a45050565b6000611252836001600160a01b03841661214f565b611d008282611259565b15610c4b5760008281526065602090815260408083206001600160a01b0385168085529252808320805460ff1916905551339285917ff6391f5c32d9c69d2a47ea670b442974b53935d1edc7fd64eb21e047a839171b9190a45050565b6000611252836001600160a01b03841661219e565b604051634f9e72ad60e11b81526001600160a01b03831690639f3ce55a908390611da49089908990899060040161382f565b6000604051808303818588803b158015611dbd57600080fd5b505af1158015610aa1573d6000803e3d6000fd5b6000826000018281548110611de857611de8613531565b9060005260206000200154905092915050565b60c9546001600160a01b03163314611e255760405162461bcd60e51b81526004016106eb9061357a565b6001600160a01b038116611e8a5760405162461bcd60e51b815260206004820152602660248201527f4f776e61626c653a206e6577206f776e657220697320746865207a65726f206160448201526564647265737360d01b60648201526084016106eb565b61123781611905565b6060611ea28484600085612291565b949350505050565b60606000611eb9836002613512565b611ec4906002613547565b6001600160401b03811115611edb57611edb612faa565b6040519080825280601f01601f191660200182016040528015611f05576020820181803683370190505b509050600360fc1b81600081518110611f2057611f20613531565b60200101906001600160f81b031916908160001a905350600f60fb1b81600181518110611f4f57611f4f613531565b60200101906001600160f81b031916908160001a9053506000611f73846002613512565b611f7e906001613547565b90505b6001811115611ff6576f181899199a1a9b1b9c1cb0b131b232b360811b85600f1660108110611fb257611fb2613531565b1a60f81b828281518110611fc857611fc8613531565b60200101906001600160f81b031916908160001a90535060049490941c93611fef81613862565b9050611f81565b5083156112525760405162461bcd60e51b815260206004820181905260248201527f537472696e67733a20686578206c656e67746820696e73756666696369656e7460448201526064016106eb565b6000600184600681111561205b5761205b612ed7565b1415612079576120728b8b8b8b8b8b8b8a8a6123c2565b9050611c4d565b600284600681111561208d5761208d612ed7565b14806120aa575060048460068111156120a8576120a8612ed7565b145b156120c057612072848c8c8c8c8c8b8a8a6125ca565b60038460068111156120d4576120d4612ed7565b14806120f1575060058460068111156120ef576120ef612ed7565b145b1561210757612072848c8c8c8c8c8b8a8a6128be565b60405162461bcd60e51b815260206004820152601960248201527f6272696467652074797065206e6f7420737570706f727465640000000000000060448201526064016106eb565b6000818152600183016020526040812054612196575081546001818101845560008481526020808220909301849055845484825282860190935260409020919091556106b8565b5060006106b8565b600081815260018301602052604081205480156122875760006121c2600183613879565b85549091506000906121d690600190613879565b905081811461223b5760008660000182815481106121f6576121f6613531565b906000526020600020015490508087600001848154811061221957612219613531565b6000918252602080832090910192909255918252600188019052604090208390555b855486908061224c5761224c613890565b6001900381819060005260206000200160009055905585600101600086815260200190815260200160002060009055600193505050506106b8565b60009150506106b8565b6060824710156122f25760405162461bcd60e51b815260206004820152602660248201527f416464726573733a20696e73756666696369656e742062616c616e636520666f6044820152651c8818d85b1b60d21b60648201526084016106eb565b6001600160a01b0385163b6123495760405162461bcd60e51b815260206004820152601d60248201527f416464726573733a2063616c6c20746f206e6f6e2d636f6e747261637400000060448201526064016106eb565b600080866001600160a01b03168587604051612365919061372e565b60006040518083038185875af1925050503d80600081146123a2576040519150601f19603f3d011682016040523d82523d6000602084013e6123a7565b606091505b50915091506123b7828286612b86565b979650505050505050565b600080836001600160a01b03166382980dc46040518163ffffffff1660e01b815260040160206040518083038186803b1580156123fe57600080fd5b505afa158015612412573d6000803e3d6000fd5b505050506040513d601f19601f8201168201806040525081019061243691906138a6565b905061244c6001600160a01b038b16828b612bbf565b60405163a5977fbb60e01b81526001600160a01b038c811660048301528b81166024830152604482018b90526001600160401b03808b1660648401528916608483015263ffffffff881660a483015282169063a5977fbb9060c401600060405180830381600087803b1580156124c157600080fd5b505af11580156124d5573d6000803e3d6000fd5b50506040516001600160601b031930606090811b821660208401528f811b821660348401528e901b166048820152605c81018c90526001600160c01b031960c08c811b8216607c8401528b811b8216608484015246901b16608c820152600092506094019050604051602081830303815290604052805190602001209050846001600160a01b0316634289fbb3858e8c86868c6040518763ffffffff1660e01b81526004016125889594939291906138c3565b6000604051808303818588803b1580156125a157600080fd5b505af11580156125b5573d6000803e3d6000fd5b50939f9e505050505050505050505050505050565b60008060028b60068111156125e1576125e1612ed7565b141561265f57836001600160a01b031663d8257d176040518163ffffffff1660e01b815260040160206040518083038186803b15801561262057600080fd5b505afa158015612634573d6000803e3d6000fd5b505050506040513d601f19601f8201168201806040525081019061265891906138a6565b90506126d3565b836001600160a01b031663c66a9c5a6040518163ffffffff1660e01b815260040160206040518083038186803b15801561269857600080fd5b505afa1580156126ac573d6000803e3d6000fd5b505050506040513d601f19601f820116820180604052508101906126d091906138a6565b90505b6126e76001600160a01b038a16828a612bbf565b600060028c60068111156126fd576126fd612ed7565b14156127ff57816001600160a01b031663234636248b8b8b8f8c6040518663ffffffff1660e01b8152600401612737959493929190613905565b600060405180830381600087803b15801561275157600080fd5b505af1158015612765573d6000803e3d6000fd5b50505050308a8a8a8e8b466040516020016127e29796959493929190606097881b6001600160601b0319908116825296881b87166014820152602881019590955260c093841b6001600160c01b031990811660488701529290961b909416605084015292811b831660648301529290921b16606c82015260740190565b604051602081830303815290604052805190602001209050612888565b816001600160a01b031663234636248b8b8b8f8c6040518663ffffffff1660e01b8152600401612833959493929190613905565b602060405180830381600087803b15801561284d57600080fd5b505af1158015612861573d6000803e3d6000fd5b505050506040513d601f19601f82011682018060405250810190612885919061361a565b90505b604051634289fbb360e01b81526001600160a01b03861690634289fbb3908690612588908f908d90889088908e906004016138c3565b60008060038b60068111156128d5576128d5612ed7565b141561295357836001600160a01b031663dfa2dbaf6040518163ffffffff1660e01b815260040160206040518083038186803b15801561291457600080fd5b505afa158015612928573d6000803e3d6000fd5b505050506040513d601f19601f8201168201806040525081019061294c91906138a6565b90506129c7565b836001600160a01b03166395b12c276040518163ffffffff1660e01b815260040160206040518083038186803b15801561298c57600080fd5b505afa1580156129a0573d6000803e3d6000fd5b505050506040513d601f19601f820116820180604052508101906129c491906138a6565b90505b6129db6001600160a01b038a16828a612bbf565b600060038c60068111156129f1576129f1612ed7565b1415612ae857604051636f3c863f60e11b81526001600160a01b038b81166004830152602482018b90528c811660448301526001600160401b038916606483015283169063de790c7e90608401600060405180830381600087803b158015612a5857600080fd5b505af1158015612a6c573d6000803e3d6000fd5b50506040516001600160601b031930606090811b821660208401528e811b82166034840152604883018e90528f901b1660688201526001600160c01b031960c08b811b8216607c84015246901b166084820152608c019150612acb9050565b604051602081830303815290604052805190602001209050612b71565b816001600160a01b031663a00293018b8b8b8f8c6040518663ffffffff1660e01b8152600401612b1c959493929190613905565b602060405180830381600087803b158015612b3657600080fd5b505af1158015612b4a573d6000803e3d6000fd5b505050506040513d601f19601f82011682018060405250810190612b6e919061361a565b90505b6128886001600160a01b038b16836000612c80565b60608315612b95575081611252565b825115612ba55782518084602001fd5b8160405162461bcd60e51b81526004016106eb9190613607565b604051636eb1769f60e11b81523060048201526001600160a01b038381166024830152600091839186169063dd62ed3e9060440160206040518083038186803b158015612c0b57600080fd5b505afa158015612c1f573d6000803e3d6000fd5b505050506040513d601f19601f82011682018060405250810190612c43919061361a565b612c4d9190613547565b6040516001600160a01b038516602482015260448101829052909150610ba190859063095ea7b360e01b90606401611666565b801580612d095750604051636eb1769f60e11b81523060048201526001600160a01b03838116602483015284169063dd62ed3e9060440160206040518083038186803b158015612ccf57600080fd5b505afa158015612ce3573d6000803e3d6000fd5b505050506040513d601f19601f82011682018060405250810190612d07919061361a565b155b612d745760405162461bcd60e51b815260206004820152603660248201527f5361666545524332303a20617070726f76652066726f6d206e6f6e2d7a65726f60448201527520746f206e6f6e2d7a65726f20616c6c6f77616e636560501b60648201526084016106eb565b6040516001600160a01b038316602482015260448101829052610bcc90849063095ea7b360e01b90606401611666565b600060208284031215612db657600080fd5b81356001600160e01b03198116811461125257600080fd5b60008083601f840112612de057600080fd5b5081356001600160401b03811115612df757600080fd5b602083019150836020828501011115612e0f57600080fd5b9250929050565b80356001600160401b03811681146119fb57600080fd5b6001600160a01b038116811461123757600080fd5b60008060008060008060808789031215612e5b57600080fd5b86356001600160401b0380821115612e7257600080fd5b612e7e8a838b01612dce565b9098509650869150612e9260208a01612e16565b95506040890135915080821115612ea857600080fd5b50612eb589828a01612dce565b9094509250506060870135612ec981612e2d565b809150509295509295509295565b634e487b7160e01b600052602160045260246000fd5b6003811061123757634e487b7160e01b600052602160045260246000fd5b60208101612f1883612eed565b91905290565b600080600080600060808688031215612f3657600080fd5b8535612f4181612e2d565b94506020860135935060408601356001600160401b03811115612f6357600080fd5b612f6f88828901612dce565b9094509250506060860135612f8381612e2d565b809150509295509295909350565b600060208284031215612fa357600080fd5b5035919050565b634e487b7160e01b600052604160045260246000fd5b604051606081016001600160401b0381118282101715612fe257612fe2612faa565b60405290565b604051601f8201601f191681016001600160401b038111828210171561301057613010612faa565b604052919050565b60006001600160401b0382111561303157613031612faa565b5060051b60200190565b600082601f83011261304c57600080fd5b8135602061306161305c83613018565b612fe8565b82815260059290921b8401810191818101908684111561308057600080fd5b8286015b8481101561309b5780358352918301918301613084565b509695505050505050565b600082601f8301126130b757600080fd5b813560206130c761305c83613018565b82815260059290921b840181019181810190868411156130e657600080fd5b8286015b8481101561309b5780356130fd81612e2d565b83529183019183016130ea565b6000806000806080858703121561312057600080fd5b843561312b81612e2d565b935060208501356001600160401b038082111561314757600080fd5b6131538883890161303b565b9450604087013591508082111561316957600080fd5b6131758883890161303b565b9350606087013591508082111561318b57600080fd5b50613198878288016130a6565b91505092959194509250565b600080604083850312156131b757600080fd5b82356001600160401b03808211156131ce57600080fd5b6131da8683870161303b565b935060208501359150808211156131f057600080fd5b506131fd858286016130a6565b9150509250929050565b6000806040838503121561321a57600080fd5b82359150602083013561322c81612e2d565b809150509250929050565b60006020828403121561324957600080fd5b813561125281612e2d565b60006001600160401b0382111561326d5761326d612faa565b50601f01601f191660200190565b600082601f83011261328c57600080fd5b813561329a61305c82613254565b8181528460208386010111156132af57600080fd5b816020850160208301376000918101602001919091529392505050565b60008060008060008060c087890312156132e557600080fd5b86356132f081612e2d565b9550602087013561330081612e2d565b94506040870135935061331560608801612e16565b925060808701356001600160401b0381111561333057600080fd5b61333c89828a0161327b565b92505060a0870135612ec981612e2d565b6000806000806080858703121561336357600080fd5b84359350602085013561337581612e2d565b92506040850135915060608501356001600160401b0381111561339757600080fd5b6131988782880161327b565b600080604083850312156133b657600080fd5b50508035926020909101359150565b6001600160a01b0383168152604081016133de83612eed565b8260208301529392505050565b6000806000806080858703121561340157600080fd5b843561340c81612e2d565b935061341a60208601612e16565b925060408501356001600160401b0381111561343557600080fd5b6134418782880161327b565b925050606085013561345281612e2d565b939692955090935050565b60006020828403121561346f57600080fd5b813563ffffffff8116811461125257600080fd5b60208082526019908201527f63616c6c6572206973206e6f74206d6573736167652062757300000000000000604082015260600190565b6000606082840312156134cc57600080fd5b6134d4612fc0565b823581526020830135602082015260408301356134f081612e2d565b60408201529392505050565b634e487b7160e01b600052601160045260246000fd5b600081600019048311821515161561352c5761352c6134fc565b500290565b634e487b7160e01b600052603260045260246000fd5b6000821982111561355a5761355a6134fc565b500190565b6000600019821415613573576135736134fc565b5060010190565b6020808252818101527f4f776e61626c653a2063616c6c6572206973206e6f7420746865206f776e6572604082015260600190565b60005b838110156135ca5781810151838201526020016135b2565b83811115610ba15750506000910152565b600081518084526135f38160208601602086016135af565b601f01601f19169290920160200192915050565b60208152600061125260208301846135db565b60006020828403121561362c57600080fd5b5051919050565b60006060828403121561364557600080fd5b61364d612fc0565b825181526020830151602082015260408301516134f081612e2d565b60018060a01b038416815282602082015260606040820152600061369060608301846135db565b95945050505050565b6000806000606084860312156136ae57600080fd5b83516136b981612e2d565b6020850151604086015191945092506001600160401b038111156136dc57600080fd5b8401601f810186136136ed57600080fd5b80516136fb61305c82613254565b81815287602083850101111561371057600080fd5b6137218260208301602086016135af565b8093505050509250925092565b600082516137408184602087016135af565b9190910192915050565b6020808252602e908201527f496e697469616c697a61626c653a20636f6e747261637420697320616c72656160408201526d191e481a5b9a5d1a585b1a5e995960921b606082015260800190565b6000602082840312156137aa57600080fd5b8151801515811461125257600080fd5b7f416363657373436f6e74726f6c3a206163636f756e74200000000000000000008152600083516137f28160178501602088016135af565b7001034b99036b4b9b9b4b733903937b6329607d1b60179184019182015283516138238160288401602088016135af565b01602801949350505050565b6001600160a01b03841681526001600160401b0383166020820152606060408201819052600090613690908301846135db565b600081613871576138716134fc565b506000190190565b60008282101561388b5761388b6134fc565b500390565b634e487b7160e01b600052603160045260246000fd5b6000602082840312156138b857600080fd5b815161125281612e2d565b6001600160a01b0386811682526001600160401b0386166020830152841660408201526060810183905260a0608082018190526000906123b7908301846135db565b6001600160a01b03958616815260208101949094526001600160401b0392831660408501529316606083015291909116608082015260a0019056fea2646970667358221220604e206e40e534e5f86c95bc4eeae057a7a180194ed77b9634961362a532e04264736f6c63430008090033",
  "devdoc": {
    "kind": "dev",
    "methods": {
      "getRoleAdmin(bytes32)": {
        "details": "Returns the admin role that controls `role`. See {grantRole} and {revokeRole}. To change a role's admin, use {_setRoleAdmin}."
      },
      "getRoleMember(bytes32,uint256)": {
        "details": "Returns one of the accounts that have `role`. `index` must be a value between 0 and {getRoleMemberCount}, non-inclusive. Role bearers are not sorted in any particular way, and their ordering may change at any point. WARNING: When using {getRoleMember} and {getRoleMemberCount}, make sure you perform all queries on the same block. See the following https://forum.openzeppelin.com/t/iterating-over-elements-on-enumerableset-in-openzeppelin-contracts/2296[forum post] for more information."
      },
      "getRoleMemberCount(bytes32)": {
        "details": "Returns the number of accounts that have `role`. Can be used together with {getRoleMember} to enumerate all bearers of a role."
      },
      "grantRole(bytes32,address)": {
        "details": "Grants `role` to `account`. If `account` had not been already granted `role`, emits a {RoleGranted} event. Requirements: - the caller must have ``role``'s admin role."
      },
      "hasRole(bytes32,address)": {
        "details": "Returns `true` if `account` has been granted `role`."
      },
      "owner()": {
        "details": "Returns the address of the current owner."
      },
      "renounceOwnership()": {
        "details": "Leaves the contract without owner. It will not be possible to call `onlyOwner` functions anymore. Can only be called by the current owner. NOTE: Renouncing ownership will leave the contract without an owner, thereby removing any functionality that is only available to the owner."
      },
      "renounceRole(bytes32,address)": {
        "details": "Revokes `role` from the calling account. Roles are often managed via {grantRole} and {revokeRole}: this function's purpose is to provide a mechanism for accounts to lose their privileges if they are compromised (such as when a trusted device is misplaced). If the calling account had been revoked `role`, emits a {RoleRevoked} event. Requirements: - the caller must be `account`."
      },
      "revokeRole(bytes32,address)": {
        "details": "Revokes `role` from `account`. If `account` had been granted `role`, emits a {RoleRevoked} event. Requirements: - the caller must have ``role``'s admin role."
      },
      "supportsInterface(bytes4)": {
        "details": "See {IERC165-supportsInterface}."
      }
    },
    "version": 1
  },
  "userdoc": {
    "kind": "user",
    "methods": {
      "executeMessageWithTransferFallback(address,address,uint256,uint64,bytes,address)": {
        "notice": "This functions won't be called because executeMessageWithTransfer always returns Success."
      }
    },
    "version": 1
  },
  "storageLayout": {
    "storage": [
      {
        "astId": 713,
        "contract": "contracts/xchain/cbridge/CBridgeXChainAdapterTest.sol:CBridgeXChainAdapterTest",
        "label": "_initialized",
        "offset": 0,
        "slot": "0",
        "type": "t_uint8"
      },
      {
        "astId": 716,
        "contract": "contracts/xchain/cbridge/CBridgeXChainAdapterTest.sol:CBridgeXChainAdapterTest",
        "label": "_initializing",
        "offset": 1,
        "slot": "0",
        "type": "t_bool"
      },
      {
        "astId": 3292,
        "contract": "contracts/xchain/cbridge/CBridgeXChainAdapterTest.sol:CBridgeXChainAdapterTest",
        "label": "__gap",
        "offset": 0,
        "slot": "1",
        "type": "t_array(t_uint256)50_storage"
      },
      {
        "astId": 3946,
        "contract": "contracts/xchain/cbridge/CBridgeXChainAdapterTest.sol:CBridgeXChainAdapterTest",
        "label": "__gap",
        "offset": 0,
        "slot": "51",
        "type": "t_array(t_uint256)50_storage"
      },
      {
        "astId": 184,
        "contract": "contracts/xchain/cbridge/CBridgeXChainAdapterTest.sol:CBridgeXChainAdapterTest",
        "label": "_roles",
        "offset": 0,
        "slot": "101",
        "type": "t_mapping(t_bytes32,t_struct(RoleData)179_storage)"
      },
      {
        "astId": 483,
        "contract": "contracts/xchain/cbridge/CBridgeXChainAdapterTest.sol:CBridgeXChainAdapterTest",
        "label": "__gap",
        "offset": 0,
        "slot": "102",
        "type": "t_array(t_uint256)49_storage"
      },
      {
        "astId": 33,
        "contract": "contracts/xchain/cbridge/CBridgeXChainAdapterTest.sol:CBridgeXChainAdapterTest",
        "label": "_roleMembers",
        "offset": 0,
        "slot": "151",
        "type": "t_mapping(t_bytes32,t_struct(AddressSet)4359_storage)"
      },
      {
        "astId": 143,
        "contract": "contracts/xchain/cbridge/CBridgeXChainAdapterTest.sol:CBridgeXChainAdapterTest",
        "label": "__gap",
        "offset": 0,
        "slot": "152",
        "type": "t_array(t_uint256)49_storage"
      },
      {
        "astId": 593,
        "contract": "contracts/xchain/cbridge/CBridgeXChainAdapterTest.sol:CBridgeXChainAdapterTest",
        "label": "_owner",
        "offset": 0,
        "slot": "201",
        "type": "t_address"
      },
      {
        "astId": 705,
        "contract": "contracts/xchain/cbridge/CBridgeXChainAdapterTest.sol:CBridgeXChainAdapterTest",
        "label": "__gap",
        "offset": 0,
        "slot": "202",
        "type": "t_array(t_uint256)49_storage"
      },
      {
        "astId": 65869,
        "contract": "contracts/xchain/cbridge/CBridgeXChainAdapterTest.sol:CBridgeXChainAdapterTest",
        "label": "messageBus",
        "offset": 0,
        "slot": "251",
        "type": "t_address"
      },
      {
        "astId": 56007,
        "contract": "contracts/xchain/cbridge/CBridgeXChainAdapterTest.sol:CBridgeXChainAdapterTest",
        "label": "peers",
        "offset": 0,
        "slot": "252",
        "type": "t_mapping(t_uint256,t_address)"
      },
      {
        "astId": 56164,
        "contract": "contracts/xchain/cbridge/CBridgeXChainAdapterTest.sol:CBridgeXChainAdapterTest",
        "label": "__gap",
        "offset": 0,
        "slot": "253",
        "type": "t_array(t_uint256)49_storage"
      },
      {
        "astId": 65149,
        "contract": "contracts/xchain/cbridge/CBridgeXChainAdapterTest.sol:CBridgeXChainAdapterTest",
        "label": "maxSlippage",
        "offset": 0,
        "slot": "302",
        "type": "t_uint32"
      },
      {
        "astId": 65151,
        "contract": "contracts/xchain/cbridge/CBridgeXChainAdapterTest.sol:CBridgeXChainAdapterTest",
        "label": "nonce",
        "offset": 0,
        "slot": "303",
        "type": "t_uint256"
      },
      {
        "astId": 65156,
        "contract": "contracts/xchain/cbridge/CBridgeXChainAdapterTest.sol:CBridgeXChainAdapterTest",
        "label": "transfers",
        "offset": 0,
        "slot": "304",
        "type": "t_mapping(t_uint256,t_struct(TransferEntry)65125_storage)"
      },
      {
        "astId": 65160,
        "contract": "contracts/xchain/cbridge/CBridgeXChainAdapterTest.sol:CBridgeXChainAdapterTest",
        "label": "fallbacks",
        "offset": 0,
        "slot": "305",
        "type": "t_array(t_struct(FallbackEntry)65147_storage)dyn_storage"
      }
    ],
    "types": {
      "t_address": {
        "encoding": "inplace",
        "label": "address",
        "numberOfBytes": "20"
      },
      "t_array(t_bytes32)dyn_storage": {
        "base": "t_bytes32",
        "encoding": "dynamic_array",
        "label": "bytes32[]",
        "numberOfBytes": "32"
      },
      "t_array(t_struct(FallbackEntry)65147_storage)dyn_storage": {
        "base": "t_struct(FallbackEntry)65147_storage",
        "encoding": "dynamic_array",
        "label": "struct CBridgeXChainAdapter.FallbackEntry[]",
        "numberOfBytes": "32"
      },
      "t_array(t_uint256)49_storage": {
        "base": "t_uint256",
        "encoding": "inplace",
        "label": "uint256[49]",
        "numberOfBytes": "1568"
      },
      "t_array(t_uint256)50_storage": {
        "base": "t_uint256",
        "encoding": "inplace",
        "label": "uint256[50]",
        "numberOfBytes": "1600"
      },
      "t_bool": {
        "encoding": "inplace",
        "label": "bool",
        "numberOfBytes": "1"
      },
      "t_bytes32": {
        "encoding": "inplace",
        "label": "bytes32",
        "numberOfBytes": "32"
      },
      "t_enum(TransferStatus)65119": {
        "encoding": "inplace",
        "label": "enum CBridgeXChainAdapter.TransferStatus",
        "numberOfBytes": "1"
      },
      "t_mapping(t_address,t_bool)": {
        "encoding": "mapping",
        "key": "t_address",
        "label": "mapping(address => bool)",
        "numberOfBytes": "32",
        "value": "t_bool"
      },
      "t_mapping(t_bytes32,t_struct(AddressSet)4359_storage)": {
        "encoding": "mapping",
        "key": "t_bytes32",
        "label": "mapping(bytes32 => struct EnumerableSetUpgradeable.AddressSet)",
        "numberOfBytes": "32",
        "value": "t_struct(AddressSet)4359_storage"
      },
      "t_mapping(t_bytes32,t_struct(RoleData)179_storage)": {
        "encoding": "mapping",
        "key": "t_bytes32",
        "label": "mapping(bytes32 => struct AccessControlUpgradeable.RoleData)",
        "numberOfBytes": "32",
        "value": "t_struct(RoleData)179_storage"
      },
      "t_mapping(t_bytes32,t_uint256)": {
        "encoding": "mapping",
        "key": "t_bytes32",
        "label": "mapping(bytes32 => uint256)",
        "numberOfBytes": "32",
        "value": "t_uint256"
      },
      "t_mapping(t_uint256,t_address)": {
        "encoding": "mapping",
        "key": "t_uint256",
        "label": "mapping(uint256 => address)",
        "numberOfBytes": "32",
        "value": "t_address"
      },
      "t_mapping(t_uint256,t_struct(TransferEntry)65125_storage)": {
        "encoding": "mapping",
        "key": "t_uint256",
        "label": "mapping(uint256 => struct CBridgeXChainAdapter.TransferEntry)",
        "numberOfBytes": "32",
        "value": "t_struct(TransferEntry)65125_storage"
      },
      "t_struct(AddressSet)4359_storage": {
        "encoding": "inplace",
        "label": "struct EnumerableSetUpgradeable.AddressSet",
        "members": [
          {
            "astId": 4358,
            "contract": "contracts/xchain/cbridge/CBridgeXChainAdapterTest.sol:CBridgeXChainAdapterTest",
            "label": "_inner",
            "offset": 0,
            "slot": "0",
            "type": "t_struct(Set)4058_storage"
          }
        ],
        "numberOfBytes": "64"
      },
      "t_struct(FallbackEntry)65147_storage": {
        "encoding": "inplace",
        "label": "struct CBridgeXChainAdapter.FallbackEntry",
        "members": [
          {
            "astId": 65134,
            "contract": "contracts/xchain/cbridge/CBridgeXChainAdapterTest.sol:CBridgeXChainAdapterTest",
            "label": "fromChainId",
            "offset": 0,
            "slot": "0",
            "type": "t_uint256"
          },
          {
            "astId": 65136,
            "contract": "contracts/xchain/cbridge/CBridgeXChainAdapterTest.sol:CBridgeXChainAdapterTest",
            "label": "nonce",
            "offset": 0,
            "slot": "1",
            "type": "t_uint256"
          },
          {
            "astId": 65138,
            "contract": "contracts/xchain/cbridge/CBridgeXChainAdapterTest.sol:CBridgeXChainAdapterTest",
            "label": "token",
            "offset": 0,
            "slot": "2",
            "type": "t_address"
          },
          {
            "astId": 65140,
            "contract": "contracts/xchain/cbridge/CBridgeXChainAdapterTest.sol:CBridgeXChainAdapterTest",
            "label": "amount",
            "offset": 0,
            "slot": "3",
            "type": "t_uint256"
          },
          {
            "astId": 65142,
            "contract": "contracts/xchain/cbridge/CBridgeXChainAdapterTest.sol:CBridgeXChainAdapterTest",
            "label": "toChainId",
            "offset": 0,
            "slot": "4",
            "type": "t_uint256"
          },
          {
            "astId": 65144,
            "contract": "contracts/xchain/cbridge/CBridgeXChainAdapterTest.sol:CBridgeXChainAdapterTest",
            "label": "to",
            "offset": 0,
            "slot": "5",
            "type": "t_address"
          },
          {
            "astId": 65146,
            "contract": "contracts/xchain/cbridge/CBridgeXChainAdapterTest.sol:CBridgeXChainAdapterTest",
            "label": "handled",
            "offset": 20,
            "slot": "5",
            "type": "t_bool"
          }
        ],
        "numberOfBytes": "192"
      },
      "t_struct(RoleData)179_storage": {
        "encoding": "inplace",
        "label": "struct AccessControlUpgradeable.RoleData",
        "members": [
          {
            "astId": 176,
            "contract": "contracts/xchain/cbridge/CBridgeXChainAdapterTest.sol:CBridgeXChainAdapterTest",
            "label": "members",
            "offset": 0,
            "slot": "0",
            "type": "t_mapping(t_address,t_bool)"
          },
          {
            "astId": 178,
            "contract": "contracts/xchain/cbridge/CBridgeXChainAdapterTest.sol:CBridgeXChainAdapterTest",
            "label": "adminRole",
            "offset": 0,
            "slot": "1",
            "type": "t_bytes32"
          }
        ],
        "numberOfBytes": "64"
      },
      "t_struct(Set)4058_storage": {
        "encoding": "inplace",
        "label": "struct EnumerableSetUpgradeable.Set",
        "members": [
          {
            "astId": 4053,
            "contract": "contracts/xchain/cbridge/CBridgeXChainAdapterTest.sol:CBridgeXChainAdapterTest",
            "label": "_values",
            "offset": 0,
            "slot": "0",
            "type": "t_array(t_bytes32)dyn_storage"
          },
          {
            "astId": 4057,
            "contract": "contracts/xchain/cbridge/CBridgeXChainAdapterTest.sol:CBridgeXChainAdapterTest",
            "label": "_indexes",
            "offset": 0,
            "slot": "1",
            "type": "t_mapping(t_bytes32,t_uint256)"
          }
        ],
        "numberOfBytes": "64"
      },
      "t_struct(TransferEntry)65125_storage": {
        "encoding": "inplace",
        "label": "struct CBridgeXChainAdapter.TransferEntry",
        "members": [
          {
            "astId": 65121,
            "contract": "contracts/xchain/cbridge/CBridgeXChainAdapterTest.sol:CBridgeXChainAdapterTest",
            "label": "from",
            "offset": 0,
            "slot": "0",
            "type": "t_address"
          },
          {
            "astId": 65124,
            "contract": "contracts/xchain/cbridge/CBridgeXChainAdapterTest.sol:CBridgeXChainAdapterTest",
            "label": "status",
            "offset": 20,
            "slot": "0",
            "type": "t_enum(TransferStatus)65119"
          }
        ],
        "numberOfBytes": "32"
      },
      "t_uint256": {
        "encoding": "inplace",
        "label": "uint256",
        "numberOfBytes": "32"
      },
      "t_uint32": {
        "encoding": "inplace",
        "label": "uint32",
        "numberOfBytes": "4"
      },
      "t_uint8": {
        "encoding": "inplace",
        "label": "uint8",
        "numberOfBytes": "1"
      }
    }
  }
}