{
  "address": "0xc7c76e5e35d00B27aeA363Ef7087aF71B511b59b",
  "abi": [
    {
      "anonymous": false,
      "inputs": [
        {
          "indexed": false,
          "internalType": "uint256",
          "name": "USDTUSDCTargetPool",
          "type": "uint256"
        },
        {
          "indexed": false,
          "internalType": "uint256",
          "name": "USDTBUSDTargetPool",
          "type": "uint256"
        },
        {
          "indexed": false,
          "internalType": "uint256",
          "name": "USDCBUSDCurrentPool",
          "type": "uint256"
        }
      ],
      "name": "CurrentComposition",
      "type": "event"
    },
    {
      "anonymous": false,
      "inputs": [
        {
          "indexed": false,
          "internalType": "uint256",
          "name": "USDTAmt",
          "type": "uint256"
        }
      ],
      "name": "EmergencyWithdraw",
      "type": "event"
    },
    {
      "anonymous": false,
      "inputs": [
        {
          "indexed": false,
          "internalType": "uint8",
          "name": "version",
          "type": "uint8"
        }
      ],
      "name": "Initialized",
      "type": "event"
    },
    {
      "anonymous": false,
      "inputs": [
        {
          "indexed": false,
          "internalType": "uint256",
          "name": "USDTAmt",
          "type": "uint256"
        },
        {
          "indexed": false,
          "internalType": "uint256",
          "name": "USDCBUSDAmt",
          "type": "uint256"
        }
      ],
      "name": "InvestUSDCBUSD",
      "type": "event"
    },
    {
      "anonymous": false,
      "inputs": [
        {
          "indexed": false,
          "internalType": "uint256",
          "name": "USDTAmt",
          "type": "uint256"
        },
        {
          "indexed": false,
          "internalType": "uint256",
          "name": "USDTBUSDAmt",
          "type": "uint256"
        }
      ],
      "name": "InvestUSDTBUSD",
      "type": "event"
    },
    {
      "anonymous": false,
      "inputs": [
        {
          "indexed": false,
          "internalType": "uint256",
          "name": "USDTAmt",
          "type": "uint256"
        },
        {
          "indexed": false,
          "internalType": "uint256",
          "name": "USDTUSDCAmt",
          "type": "uint256"
        }
      ],
      "name": "InvestUSDTUSDC",
      "type": "event"
    },
    {
      "anonymous": false,
      "inputs": [
        {
          "indexed": true,
          "internalType": "address",
          "name": "previousOwner",
          "type": "address"
        },
        {
          "indexed": true,
          "internalType": "address",
          "name": "newOwner",
          "type": "address"
        }
      ],
      "name": "OwnershipTransferred",
      "type": "event"
    },
    {
      "anonymous": false,
      "inputs": [
        {
          "indexed": false,
          "internalType": "uint256",
          "name": "USDTUSDCTargetPool",
          "type": "uint256"
        },
        {
          "indexed": false,
          "internalType": "uint256",
          "name": "USDTBUSDTargetPool",
          "type": "uint256"
        },
        {
          "indexed": false,
          "internalType": "uint256",
          "name": "USDCBUSDTargetPool",
          "type": "uint256"
        }
      ],
      "name": "TargetComposition",
      "type": "event"
    },
    {
      "anonymous": false,
      "inputs": [
        {
          "indexed": false,
          "internalType": "uint256",
          "name": "sharePerc",
          "type": "uint256"
        },
        {
          "indexed": false,
          "internalType": "uint256",
          "name": "USDTAmt",
          "type": "uint256"
        }
      ],
      "name": "Withdraw",
      "type": "event"
    },
    {
      "anonymous": false,
      "inputs": [
        {
          "indexed": false,
          "internalType": "uint256",
          "name": "lpTokenAmt",
          "type": "uint256"
        },
        {
          "indexed": false,
          "internalType": "uint256",
          "name": "USDTAmt",
          "type": "uint256"
        }
      ],
      "name": "WithdrawUSDCBUSD",
      "type": "event"
    },
    {
      "anonymous": false,
      "inputs": [
        {
          "indexed": false,
          "internalType": "uint256",
          "name": "lpTokenAmt",
          "type": "uint256"
        },
        {
          "indexed": false,
          "internalType": "uint256",
          "name": "USDTAmt",
          "type": "uint256"
        }
      ],
      "name": "WithdrawUSDTBUSD",
      "type": "event"
    },
    {
      "anonymous": false,
      "inputs": [
        {
          "indexed": false,
          "internalType": "uint256",
          "name": "lpTokenAmt",
          "type": "uint256"
        },
        {
          "indexed": false,
          "internalType": "uint256",
          "name": "USDTAmt",
          "type": "uint256"
        }
      ],
      "name": "WithdrawUSDTUSDC",
      "type": "event"
    },
    {
      "inputs": [],
      "name": "BUSD",
      "outputs": [
        {
          "internalType": "contract IERC20Upgradeable",
          "name": "",
          "type": "address"
        }
      ],
      "stateMutability": "view",
      "type": "function"
    },
    {
      "inputs": [],
      "name": "BUSD_MAIN",
      "outputs": [
        {
          "internalType": "contract IERC20Upgradeable",
          "name": "",
          "type": "address"
        }
      ],
      "stateMutability": "view",
      "type": "function"
    },
    {
      "inputs": [],
      "name": "PnckRouter",
      "outputs": [
        {
          "internalType": "contract IRouter",
          "name": "",
          "type": "address"
        }
      ],
      "stateMutability": "view",
      "type": "function"
    },
    {
      "inputs": [],
      "name": "USDC",
      "outputs": [
        {
          "internalType": "contract IERC20Upgradeable",
          "name": "",
          "type": "address"
        }
      ],
      "stateMutability": "view",
      "type": "function"
    },
    {
      "inputs": [],
      "name": "USDCBUSD",
      "outputs": [
        {
          "internalType": "contract IERC20Upgradeable",
          "name": "",
          "type": "address"
        }
      ],
      "stateMutability": "view",
      "type": "function"
    },
    {
      "inputs": [],
      "name": "USDCBUSDVault",
      "outputs": [
        {
          "internalType": "contract IL2Vault",
          "name": "",
          "type": "address"
        }
      ],
      "stateMutability": "view",
      "type": "function"
    },
    {
      "inputs": [],
      "name": "USDC_MAIN",
      "outputs": [
        {
          "internalType": "contract IERC20Upgradeable",
          "name": "",
          "type": "address"
        }
      ],
      "stateMutability": "view",
      "type": "function"
    },
    {
      "inputs": [],
      "name": "USDT",
      "outputs": [
        {
          "internalType": "contract IERC20Upgradeable",
          "name": "",
          "type": "address"
        }
      ],
      "stateMutability": "view",
      "type": "function"
    },
    {
      "inputs": [],
      "name": "USDTBUSD",
      "outputs": [
        {
          "internalType": "contract IERC20Upgradeable",
          "name": "",
          "type": "address"
        }
      ],
      "stateMutability": "view",
      "type": "function"
    },
    {
      "inputs": [],
      "name": "USDTBUSDVault",
      "outputs": [
        {
          "internalType": "contract IL2Vault",
          "name": "",
          "type": "address"
        }
      ],
      "stateMutability": "view",
      "type": "function"
    },
    {
      "inputs": [],
      "name": "USDTUSDC",
      "outputs": [
        {
          "internalType": "contract IERC20Upgradeable",
          "name": "",
          "type": "address"
        }
      ],
      "stateMutability": "view",
      "type": "function"
    },
    {
      "inputs": [],
      "name": "USDTUSDCVault",
      "outputs": [
        {
          "internalType": "contract IL2Vault",
          "name": "",
          "type": "address"
        }
      ],
      "stateMutability": "view",
      "type": "function"
    },
    {
      "inputs": [],
      "name": "USDT_MAIN",
      "outputs": [
        {
          "internalType": "contract IERC20Upgradeable",
          "name": "",
          "type": "address"
        }
      ],
      "stateMutability": "view",
      "type": "function"
    },
    {
      "inputs": [],
      "name": "emergencyWithdraw",
      "outputs": [],
      "stateMutability": "nonpayable",
      "type": "function"
    },
    {
      "inputs": [],
      "name": "getAPR",
      "outputs": [
        {
          "internalType": "uint256",
          "name": "",
          "type": "uint256"
        }
      ],
      "stateMutability": "view",
      "type": "function"
    },
    {
      "inputs": [],
      "name": "getAllPoolInUSD",
      "outputs": [
        {
          "internalType": "uint256",
          "name": "",
          "type": "uint256"
        }
      ],
      "stateMutability": "view",
      "type": "function"
    },
    {
      "inputs": [],
      "name": "getCurrentLPCompositionPerc",
      "outputs": [
        {
          "internalType": "uint256[]",
          "name": "percentages",
          "type": "uint256[]"
        }
      ],
      "stateMutability": "view",
      "type": "function"
    },
    {
      "inputs": [],
      "name": "getCurrentTokenCompositionPerc",
      "outputs": [
        {
          "internalType": "address[]",
          "name": "tokens",
          "type": "address[]"
        },
        {
          "internalType": "uint256[]",
          "name": "percentages",
          "type": "uint256[]"
        }
      ],
      "stateMutability": "view",
      "type": "function"
    },
    {
      "inputs": [
        {
          "internalType": "contract IL2Vault",
          "name": "_USDTUSDCVault",
          "type": "address"
        },
        {
          "internalType": "contract IL2Vault",
          "name": "_USDTBUSDVault",
          "type": "address"
        },
        {
          "internalType": "contract IL2Vault",
          "name": "_USDCBUSDVault",
          "type": "address"
        }
      ],
      "name": "initialize",
      "outputs": [],
      "stateMutability": "nonpayable",
      "type": "function"
    },
    {
      "inputs": [
        {
          "internalType": "uint256",
          "name": "USDTAmt",
          "type": "uint256"
        }
      ],
      "name": "invest",
      "outputs": [],
      "stateMutability": "nonpayable",
      "type": "function"
    },
    {
      "inputs": [],
      "name": "owner",
      "outputs": [
        {
          "internalType": "address",
          "name": "",
          "type": "address"
        }
      ],
      "stateMutability": "view",
      "type": "function"
    },
    {
      "inputs": [],
      "name": "renounceOwnership",
      "outputs": [],
      "stateMutability": "nonpayable",
      "type": "function"
    },
    {
      "inputs": [
        {
          "internalType": "address",
          "name": "_vault",
          "type": "address"
        }
      ],
      "name": "setVault",
      "outputs": [],
      "stateMutability": "nonpayable",
      "type": "function"
    },
    {
      "inputs": [
        {
          "internalType": "address",
          "name": "newOwner",
          "type": "address"
        }
      ],
      "name": "transferOwnership",
      "outputs": [],
      "stateMutability": "nonpayable",
      "type": "function"
    },
    {
      "inputs": [],
      "name": "vault",
      "outputs": [
        {
          "internalType": "address",
          "name": "",
          "type": "address"
        }
      ],
      "stateMutability": "view",
      "type": "function"
    },
    {
      "inputs": [
        {
          "internalType": "uint256",
          "name": "farmIndex",
          "type": "uint256"
        },
        {
          "internalType": "uint256",
          "name": "sharePerc",
          "type": "uint256"
        }
      ],
      "name": "withdrawFromFarm",
      "outputs": [
        {
          "internalType": "uint256",
          "name": "USDTAmt",
          "type": "uint256"
        }
      ],
      "stateMutability": "nonpayable",
      "type": "function"
    },
    {
      "inputs": [
        {
          "internalType": "uint256",
          "name": "sharePerc",
          "type": "uint256"
        }
      ],
      "name": "withdrawPerc",
      "outputs": [
        {
          "internalType": "uint256",
          "name": "USDTAmt",
          "type": "uint256"
        }
      ],
      "stateMutability": "nonpayable",
      "type": "function"
    }
  ],
  "transactionHash": "0x5db80d5e14fe24af5a747890a8dbc6ee5126cb23a9635b30a8665276008a91d5",
  "args": [],
  "numDeployments": 1,
  "solcInputHash": "faf2c66d38e5da5681c542e813bc043f",
  "bytecode": "0x608060405234801561001057600080fd5b506118e3806100206000396000f3fe608060405234801561001057600080fd5b50600436106101a95760003560e01c806384fed5f5116100f9578063c89d5b8b11610097578063ed47d90911610071578063ed47d9091461037f578063f177eb9914610392578063f2fde38b146103a7578063fbfa77cf146103ba57600080fd5b8063c89d5b8b1461035c578063db2e21bc14610364578063e1ee05af1461036c57600080fd5b8063993f64f3116100d3578063993f64f31461030b578063bd244af414610326578063c0c53b8b1461032e578063c54e44eb1461034157600080fd5b806384fed5f5146102e757806389a30271146102cc5780638da5cb5b146102fa57600080fd5b80634631b246116101665780636817031b116101405780636817031b146102905780636e21950f146102a3578063715018a6146102c457806382d0f273146102cc57600080fd5b80634631b24614610267578063484f4ea9146102015780635846dc2b1461027d57600080fd5b806302910e3b146101ae57806312166f1e146101e65780632839eec7146102015780632afcf4801461021c5780633779b8db146102315780633e8f12a41461024c575b600080fd5b6101c97310ed43c718714eb63d5aa57b78b54704e256024e81565b6040516001600160a01b0390911681526020015b60405180910390f35b6101c97355d398326f99059ff775485246999027b319795581565b6101c973e9e7cea3dedca5984780bafc599bd69add087d5681565b61022f61022a36600461151a565b6103cd565b005b6101c9737efaef62fddcca950418312c6c91aef321375a0081565b6101c9732354ef4df11afacb85a5c7f98b624072eccddbb181565b61026f610430565b6040516101dd92919061156e565b6066546101c9906001600160a01b031681565b61022f61029e3660046115e3565b610695565b6102b66102b1366004611600565b610726565b6040519081526020016101dd565b61022f61082a565b6101c9738ac76a51cc950d9822d68b83fe1ad97b32cd580d81565b6067546101c9906001600160a01b031681565b6033546001600160a01b03166101c9565b6101c973ec6557348085aa57c72514d67070dc863c0a5a8c81565b6102b6610860565b61022f61033c366004611622565b6108ea565b6101c9731f326a8ca5399418a76ea0efa0403cbb00790c6781565b6102b661099f565b61022f610bd8565b6065546101c9906001600160a01b031681565b6102b661038d36600461151a565b610cf1565b61039a610e71565b6040516101dd919061166d565b61022f6103b53660046115e3565b61102f565b6068546101c9906001600160a01b031681565b6068546001600160a01b031633146104005760405162461bcd60e51b81526004016103f790611680565b60405180910390fd5b60685461042d90731f326a8ca5399418a76ea0efa0403cbb00790c67906001600160a01b031630846110c7565b50565b606080600061043d610e71565b60408051600380825260808201909252919250602082016060803683370190505092507355d398326f99059ff775485246999027b319795583600081518110610488576104886116a4565b60200260200101906001600160a01b031690816001600160a01b031681525050738ac76a51cc950d9822d68b83fe1ad97b32cd580d836001815181106104d0576104d06116a4565b60200260200101906001600160a01b031690816001600160a01b03168152505073e9e7cea3dedca5984780bafc599bd69add087d5683600281518110610518576105186116a4565b6001600160a01b039290921660209283029190910182015260408051600380825260808201909252918201606080368337019050509150600281600181518110610564576105646116a4565b60200260200101518260008151811061057f5761057f6116a4565b602002602001015161059191906116d0565b61059b91906116e8565b826000815181106105ae576105ae6116a4565b6020026020010181815250506002816002815181106105cf576105cf6116a4565b6020026020010151826000815181106105ea576105ea6116a4565b60200260200101516105fc91906116d0565b61060691906116e8565b82600181518110610619576106196116a4565b60200260200101818152505060028160028151811061063a5761063a6116a4565b602002602001015182600181518110610655576106556116a4565b602002602001015161066791906116d0565b61067191906116e8565b82600281518110610684576106846116a4565b602002602001018181525050509091565b6033546001600160a01b031633146106bf5760405162461bcd60e51b81526004016103f79061170a565b6068546001600160a01b0316156107045760405162461bcd60e51b815260206004820152600960248201526815985d5b1d081cd95d60ba1b60448201526064016103f7565b606880546001600160a01b0319166001600160a01b0392909216919091179055565b6068546000906001600160a01b031633146107535760405162461bcd60e51b81526004016103f790611680565b6040516370a0823160e01b8152306004820152670de0b6b3a7640000908390731f326a8ca5399418a76ea0efa0403cbb00790c67906370a082319060240160206040518083038186803b1580156107a957600080fd5b505afa1580156107bd573d6000803e3d6000fd5b505050506040513d601f19601f820116820180604052508101906107e1919061173f565b6107eb9190611758565b6107f591906116e8565b60685490915061082490731f326a8ca5399418a76ea0efa0403cbb00790c67906001600160a01b031683611132565b92915050565b6033546001600160a01b031633146108545760405162461bcd60e51b81526004016103f79061170a565b61085e6000611167565b565b6040516370a0823160e01b8152306004820152600090731f326a8ca5399418a76ea0efa0403cbb00790c67906370a082319060240160206040518083038186803b1580156108ad57600080fd5b505afa1580156108c1573d6000803e3d6000fd5b505050506040513d601f19601f820116820180604052508101906108e5919061173f565b905090565b60006108f660016111b9565b9050801561090e576000805461ff0019166101001790555b610916611241565b606580546001600160a01b038087166001600160a01b0319928316179092556066805486841690831617905560678054928516929091169190911790558015610999576000805461ff0019169055604051600181527f7f26b83ff96e1f2b6a682f133852f6798a09c465da95921460cefb38474024989060200160405180910390a15b50505050565b6000806109aa610e71565b90506000816002815181106109c1576109c16116a4565b6020026020010151606760009054906101000a90046001600160a01b03166001600160a01b031663c89d5b8b6040518163ffffffff1660e01b815260040160206040518083038186803b158015610a1757600080fd5b505afa158015610a2b573d6000803e3d6000fd5b505050506040513d601f19601f82011682018060405250810190610a4f919061173f565b610a599190611758565b82600181518110610a6c57610a6c6116a4565b6020026020010151606660009054906101000a90046001600160a01b03166001600160a01b031663c89d5b8b6040518163ffffffff1660e01b815260040160206040518083038186803b158015610ac257600080fd5b505afa158015610ad6573d6000803e3d6000fd5b505050506040513d601f19601f82011682018060405250810190610afa919061173f565b610b049190611758565b83600081518110610b1757610b176116a4565b6020026020010151606560009054906101000a90046001600160a01b03166001600160a01b031663c89d5b8b6040518163ffffffff1660e01b815260040160206040518083038186803b158015610b6d57600080fd5b505afa158015610b81573d6000803e3d6000fd5b505050506040513d601f19601f82011682018060405250810190610ba5919061173f565b610baf9190611758565b610bb991906116d0565b610bc391906116d0565b9050610bd1612710826116e8565b9250505090565b6068546001600160a01b03163314610c025760405162461bcd60e51b81526004016103f790611680565b6040516370a0823160e01b8152306004820152600090731f326a8ca5399418a76ea0efa0403cbb00790c67906370a082319060240160206040518083038186803b158015610c4f57600080fd5b505afa158015610c63573d6000803e3d6000fd5b505050506040513d601f19601f82011682018060405250810190610c87919061173f565b90508015610cbb57606854610cbb90731f326a8ca5399418a76ea0efa0403cbb00790c67906001600160a01b031683611132565b6040518181527f99d7f8b71cfb9126984f7a5eed3a40e64a8959e9b0e442221546fb04ec6a489c9060200160405180910390a150565b6068546000906001600160a01b03163314610d1e5760405162461bcd60e51b81526004016103f790611680565b670de0b6b3a7640000821115610d625760405162461bcd60e51b81526020600482015260096024820152684f766572203130302560b81b60448201526064016103f7565b6040516370a0823160e01b8152306004820152670de0b6b3a7640000908390731f326a8ca5399418a76ea0efa0403cbb00790c67906370a082319060240160206040518083038186803b158015610db857600080fd5b505afa158015610dcc573d6000803e3d6000fd5b505050506040513d601f19601f82011682018060405250810190610df0919061173f565b610dfa9190611758565b610e0491906116e8565b606854909150610e3390731f326a8ca5399418a76ea0efa0403cbb00790c67906001600160a01b031683611132565b60408051838152602081018390527f56ca301a9219608c91e7bcee90e083c19671d2cdcc96752c7af291cee5f9c8c8910160405180910390a1919050565b60606000610e7d611270565b9050600081600281518110610e9457610e946116a4565b602002602001015182600181518110610eaf57610eaf6116a4565b602002602001015183600081518110610eca57610eca6116a4565b6020026020010151610edc91906116d0565b610ee691906116d0565b60408051600380825260808201909252919250602082016060803683370190505092508015610f47578061271083600081518110610f2657610f266116a4565b6020026020010151610f389190611758565b610f4291906116e8565b610f4b565b6117705b83600081518110610f5e57610f5e6116a4565b60209081029190910101528015610fa7578061271083600181518110610f8657610f866116a4565b6020026020010151610f989190611758565b610fa291906116e8565b610fab565b6107d05b83600181518110610fbe57610fbe6116a4565b60209081029190910101528015611007578061271083600281518110610fe657610fe66116a4565b6020026020010151610ff89190611758565b61100291906116e8565b61100b565b6107d05b8360028151811061101e5761101e6116a4565b602002602001018181525050505090565b6033546001600160a01b031633146110595760405162461bcd60e51b81526004016103f79061170a565b6001600160a01b0381166110be5760405162461bcd60e51b815260206004820152602660248201527f4f776e61626c653a206e6577206f776e657220697320746865207a65726f206160448201526564647265737360d01b60648201526084016103f7565b61042d81611167565b6040516001600160a01b03808516602483015283166044820152606481018290526109999085906323b872dd60e01b906084015b60408051601f198184030181529190526020810180516001600160e01b03166001600160e01b031990931692909217909152611295565b6040516001600160a01b03831660248201526044810182905261116290849063a9059cbb60e01b906064016110fb565b505050565b603380546001600160a01b038381166001600160a01b0319831681179093556040519116919082907f8be0079c531659141344cd1fd0a4f28419497f9722a3daafe3b4186f6b6457e090600090a35050565b60008054610100900460ff1615611200578160ff1660011480156111dc5750303b155b6111f85760405162461bcd60e51b81526004016103f790611777565b506000919050565b60005460ff8084169116106112275760405162461bcd60e51b81526004016103f790611777565b506000805460ff191660ff92909216919091179055600190565b600054610100900460ff166112685760405162461bcd60e51b81526004016103f7906117c5565b61085e611367565b6040805160038082526080820190925260609160208201838036833701905050905090565b60006112ea826040518060400160405280602081526020017f5361666545524332303a206c6f772d6c6576656c2063616c6c206661696c6564815250856001600160a01b03166113979092919063ffffffff16565b80519091501561116257808060200190518101906113089190611810565b6111625760405162461bcd60e51b815260206004820152602a60248201527f5361666545524332303a204552433230206f7065726174696f6e20646964206e6044820152691bdd081cdd58d8d9595960b21b60648201526084016103f7565b600054610100900460ff1661138e5760405162461bcd60e51b81526004016103f7906117c5565b61085e33611167565b60606113a684846000856113b0565b90505b9392505050565b6060824710156114115760405162461bcd60e51b815260206004820152602660248201527f416464726573733a20696e73756666696369656e742062616c616e636520666f6044820152651c8818d85b1b60d21b60648201526084016103f7565b6001600160a01b0385163b6114685760405162461bcd60e51b815260206004820152601d60248201527f416464726573733a2063616c6c20746f206e6f6e2d636f6e747261637400000060448201526064016103f7565b600080866001600160a01b03168587604051611484919061185e565b60006040518083038185875af1925050503d80600081146114c1576040519150601f19603f3d011682016040523d82523d6000602084013e6114c6565b606091505b50915091506114d68282866114e1565b979650505050505050565b606083156114f05750816113a9565b8251156115005782518084602001fd5b8160405162461bcd60e51b81526004016103f7919061187a565b60006020828403121561152c57600080fd5b5035919050565b600081518084526020808501945080840160005b8381101561156357815187529582019590820190600101611547565b509495945050505050565b604080825283519082018190526000906020906060840190828701845b828110156115b05781516001600160a01b03168452928401929084019060010161158b565b505050838103828501526115c48186611533565b9695505050505050565b6001600160a01b038116811461042d57600080fd5b6000602082840312156115f557600080fd5b81356113a9816115ce565b6000806040838503121561161357600080fd5b50508035926020909101359150565b60008060006060848603121561163757600080fd5b8335611642816115ce565b92506020840135611652816115ce565b91506040840135611662816115ce565b809150509250925092565b6020815260006113a96020830184611533565b6020808252600a908201526913db9b1e481d985d5b1d60b21b604082015260600190565b634e487b7160e01b600052603260045260246000fd5b634e487b7160e01b600052601160045260246000fd5b600082198211156116e3576116e36116ba565b500190565b60008261170557634e487b7160e01b600052601260045260246000fd5b500490565b6020808252818101527f4f776e61626c653a2063616c6c6572206973206e6f7420746865206f776e6572604082015260600190565b60006020828403121561175157600080fd5b5051919050565b6000816000190483118215151615611772576117726116ba565b500290565b6020808252602e908201527f496e697469616c697a61626c653a20636f6e747261637420697320616c72656160408201526d191e481a5b9a5d1a585b1a5e995960921b606082015260800190565b6020808252602b908201527f496e697469616c697a61626c653a20636f6e7472616374206973206e6f74206960408201526a6e697469616c697a696e6760a81b606082015260800190565b60006020828403121561182257600080fd5b815180151581146113a957600080fd5b60005b8381101561184d578181015183820152602001611835565b838111156109995750506000910152565b60008251611870818460208701611832565b9190910192915050565b6020815260008251806020840152611899816040850160208701611832565b601f01601f1916919091016040019291505056fea264697066735822122003e6ae66a1920d32a2101cac4c29900c44040be82e213d47e611cc265ec6183c64736f6c63430008090033",
  "devdoc": {
    "kind": "dev",
    "methods": {
      "owner()": {
        "details": "Returns the address of the current owner."
      },
      "renounceOwnership()": {
        "details": "Leaves the contract without owner. It will not be possible to call `onlyOwner` functions anymore. Can only be called by the current owner. NOTE: Renouncing ownership will leave the contract without an owner, thereby removing any functionality that is only available to the owner."
      },
      "transferOwnership(address)": {
        "details": "Transfers ownership of the contract to a new account (`newOwner`). Can only be called by the current owner."
      }
    },
    "version": 1
  },
  "userdoc": {
    "kind": "user",
    "methods": {},
    "version": 1
  },
  "storageLayout": {
    "storage": [
      {
        "astId": 130,
        "contract": "contracts/lci/LCIStrategyTest.sol:LCIStrategyTest",
        "label": "_initialized",
        "offset": 0,
        "slot": "0",
        "type": "t_uint8"
      },
      {
        "astId": 133,
        "contract": "contracts/lci/LCIStrategyTest.sol:LCIStrategyTest",
        "label": "_initializing",
        "offset": 1,
        "slot": "0",
        "type": "t_bool"
      },
      {
        "astId": 1657,
        "contract": "contracts/lci/LCIStrategyTest.sol:LCIStrategyTest",
        "label": "__gap",
        "offset": 0,
        "slot": "1",
        "type": "t_array(t_uint256)50_storage"
      },
      {
        "astId": 10,
        "contract": "contracts/lci/LCIStrategyTest.sol:LCIStrategyTest",
        "label": "_owner",
        "offset": 0,
        "slot": "51",
        "type": "t_address"
      },
      {
        "astId": 122,
        "contract": "contracts/lci/LCIStrategyTest.sol:LCIStrategyTest",
        "label": "__gap",
        "offset": 0,
        "slot": "52",
        "type": "t_array(t_uint256)49_storage"
      },
      {
        "astId": 3664,
        "contract": "contracts/lci/LCIStrategyTest.sol:LCIStrategyTest",
        "label": "USDTUSDCVault",
        "offset": 0,
        "slot": "101",
        "type": "t_contract(IL2Vault)3595"
      },
      {
        "astId": 3667,
        "contract": "contracts/lci/LCIStrategyTest.sol:LCIStrategyTest",
        "label": "USDTBUSDVault",
        "offset": 0,
        "slot": "102",
        "type": "t_contract(IL2Vault)3595"
      },
      {
        "astId": 3670,
        "contract": "contracts/lci/LCIStrategyTest.sol:LCIStrategyTest",
        "label": "USDCBUSDVault",
        "offset": 0,
        "slot": "103",
        "type": "t_contract(IL2Vault)3595"
      },
      {
        "astId": 3684,
        "contract": "contracts/lci/LCIStrategyTest.sol:LCIStrategyTest",
        "label": "vault",
        "offset": 0,
        "slot": "104",
        "type": "t_address"
      }
    ],
    "types": {
      "t_address": {
        "encoding": "inplace",
        "label": "address",
        "numberOfBytes": "20"
      },
      "t_array(t_uint256)49_storage": {
        "base": "t_uint256",
        "encoding": "inplace",
        "label": "uint256[49]",
        "numberOfBytes": "1568"
      },
      "t_array(t_uint256)50_storage": {
        "base": "t_uint256",
        "encoding": "inplace",
        "label": "uint256[50]",
        "numberOfBytes": "1600"
      },
      "t_bool": {
        "encoding": "inplace",
        "label": "bool",
        "numberOfBytes": "1"
      },
      "t_contract(IL2Vault)3595": {
        "encoding": "inplace",
        "label": "contract IL2Vault",
        "numberOfBytes": "20"
      },
      "t_uint256": {
        "encoding": "inplace",
        "label": "uint256",
        "numberOfBytes": "32"
      },
      "t_uint8": {
        "encoding": "inplace",
        "label": "uint8",
        "numberOfBytes": "1"
      }
    }
  }
}