{
  "address": "0x90B54d3d35b3Ca95bFB0C006188a56aFDBBDFE67",
  "abi": [
    {
      "anonymous": false,
      "inputs": [
        {
          "indexed": true,
          "internalType": "address",
          "name": "owner",
          "type": "address"
        },
        {
          "indexed": true,
          "internalType": "address",
          "name": "spender",
          "type": "address"
        },
        {
          "indexed": false,
          "internalType": "uint256",
          "name": "value",
          "type": "uint256"
        }
      ],
      "name": "Approval",
      "type": "event"
    },
    {
      "anonymous": false,
      "inputs": [
        {
          "indexed": false,
          "internalType": "address",
          "name": "caller",
          "type": "address"
        },
        {
          "indexed": false,
          "internalType": "uint256",
          "name": "amtDeposit",
          "type": "uint256"
        },
        {
          "indexed": false,
          "internalType": "address",
          "name": "tokenDeposit",
          "type": "address"
        },
        {
          "indexed": false,
          "internalType": "uint256",
          "name": "shareMinted",
          "type": "uint256"
        }
      ],
      "name": "Deposit",
      "type": "event"
    },
    {
      "anonymous": false,
      "inputs": [
        {
          "indexed": false,
          "internalType": "uint8",
          "name": "version",
          "type": "uint8"
        }
      ],
      "name": "Initialized",
      "type": "event"
    },
    {
      "anonymous": false,
      "inputs": [
        {
          "indexed": true,
          "internalType": "address",
          "name": "previousOwner",
          "type": "address"
        },
        {
          "indexed": true,
          "internalType": "address",
          "name": "newOwner",
          "type": "address"
        }
      ],
      "name": "OwnershipTransferred",
      "type": "event"
    },
    {
      "anonymous": false,
      "inputs": [
        {
          "indexed": false,
          "internalType": "address",
          "name": "account",
          "type": "address"
        }
      ],
      "name": "Paused",
      "type": "event"
    },
    {
      "anonymous": false,
      "inputs": [
        {
          "indexed": false,
          "internalType": "uint256",
          "name": "farmIndex",
          "type": "uint256"
        },
        {
          "indexed": false,
          "internalType": "uint256",
          "name": "sharePerc",
          "type": "uint256"
        },
        {
          "indexed": false,
          "internalType": "uint256",
          "name": "amount",
          "type": "uint256"
        }
      ],
      "name": "Rebalance",
      "type": "event"
    },
    {
      "anonymous": false,
      "inputs": [
        {
          "indexed": false,
          "internalType": "uint256",
          "name": "amount",
          "type": "uint256"
        }
      ],
      "name": "Reinvest",
      "type": "event"
    },
    {
      "anonymous": false,
      "inputs": [
        {
          "indexed": false,
          "internalType": "address",
          "name": "oldAdmin",
          "type": "address"
        },
        {
          "indexed": false,
          "internalType": "address",
          "name": "newAdmin",
          "type": "address"
        }
      ],
      "name": "SetAdminWallet",
      "type": "event"
    },
    {
      "anonymous": false,
      "inputs": [
        {
          "indexed": false,
          "internalType": "address",
          "name": "oldBiconomy",
          "type": "address"
        },
        {
          "indexed": false,
          "internalType": "address",
          "name": "newBiconomy",
          "type": "address"
        }
      ],
      "name": "SetBiconomy",
      "type": "event"
    },
    {
      "anonymous": false,
      "inputs": [
        {
          "indexed": false,
          "internalType": "address",
          "name": "oldTreasuryWallet",
          "type": "address"
        },
        {
          "indexed": false,
          "internalType": "address",
          "name": "newTreasuryWallet",
          "type": "address"
        }
      ],
      "name": "SetTreasuryWallet",
      "type": "event"
    },
    {
      "anonymous": false,
      "inputs": [
        {
          "indexed": true,
          "internalType": "address",
          "name": "from",
          "type": "address"
        },
        {
          "indexed": true,
          "internalType": "address",
          "name": "to",
          "type": "address"
        },
        {
          "indexed": false,
          "internalType": "uint256",
          "name": "value",
          "type": "uint256"
        }
      ],
      "name": "Transfer",
      "type": "event"
    },
    {
      "anonymous": false,
      "inputs": [
        {
          "indexed": false,
          "internalType": "address",
          "name": "account",
          "type": "address"
        }
      ],
      "name": "Unpaused",
      "type": "event"
    },
    {
      "anonymous": false,
      "inputs": [
        {
          "indexed": false,
          "internalType": "address",
          "name": "caller",
          "type": "address"
        },
        {
          "indexed": false,
          "internalType": "uint256",
          "name": "amtWithdraw",
          "type": "uint256"
        },
        {
          "indexed": false,
          "internalType": "address",
          "name": "tokenWithdraw",
          "type": "address"
        },
        {
          "indexed": false,
          "internalType": "uint256",
          "name": "shareBurned",
          "type": "uint256"
        }
      ],
      "name": "Withdraw",
      "type": "event"
    },
    {
      "inputs": [],
      "name": "USDT",
      "outputs": [
        {
          "internalType": "contract IERC20Upgradeable",
          "name": "",
          "type": "address"
        }
      ],
      "stateMutability": "view",
      "type": "function"
    },
    {
      "inputs": [],
      "name": "admin",
      "outputs": [
        {
          "internalType": "address",
          "name": "",
          "type": "address"
        }
      ],
      "stateMutability": "view",
      "type": "function"
    },
    {
      "inputs": [
        {
          "internalType": "address",
          "name": "owner",
          "type": "address"
        },
        {
          "internalType": "address",
          "name": "spender",
          "type": "address"
        }
      ],
      "name": "allowance",
      "outputs": [
        {
          "internalType": "uint256",
          "name": "",
          "type": "uint256"
        }
      ],
      "stateMutability": "view",
      "type": "function"
    },
    {
      "inputs": [
        {
          "internalType": "address",
          "name": "spender",
          "type": "address"
        },
        {
          "internalType": "uint256",
          "name": "amount",
          "type": "uint256"
        }
      ],
      "name": "approve",
      "outputs": [
        {
          "internalType": "bool",
          "name": "",
          "type": "bool"
        }
      ],
      "stateMutability": "nonpayable",
      "type": "function"
    },
    {
      "inputs": [
        {
          "internalType": "address",
          "name": "account",
          "type": "address"
        }
      ],
      "name": "balanceOf",
      "outputs": [
        {
          "internalType": "uint256",
          "name": "",
          "type": "uint256"
        }
      ],
      "stateMutability": "view",
      "type": "function"
    },
    {
      "inputs": [],
      "name": "decimals",
      "outputs": [
        {
          "internalType": "uint8",
          "name": "",
          "type": "uint8"
        }
      ],
      "stateMutability": "view",
      "type": "function"
    },
    {
      "inputs": [
        {
          "internalType": "address",
          "name": "spender",
          "type": "address"
        },
        {
          "internalType": "uint256",
          "name": "subtractedValue",
          "type": "uint256"
        }
      ],
      "name": "decreaseAllowance",
      "outputs": [
        {
          "internalType": "bool",
          "name": "",
          "type": "bool"
        }
      ],
      "stateMutability": "nonpayable",
      "type": "function"
    },
    {
      "inputs": [
        {
          "internalType": "uint256",
          "name": "amount",
          "type": "uint256"
        }
      ],
      "name": "deposit",
      "outputs": [],
      "stateMutability": "nonpayable",
      "type": "function"
    },
    {
      "inputs": [
        {
          "internalType": "address",
          "name": "account",
          "type": "address"
        },
        {
          "internalType": "uint256",
          "name": "amount",
          "type": "uint256"
        }
      ],
      "name": "depositByAdmin",
      "outputs": [],
      "stateMutability": "nonpayable",
      "type": "function"
    },
    {
      "inputs": [],
      "name": "emergencyWithdraw",
      "outputs": [],
      "stateMutability": "nonpayable",
      "type": "function"
    },
    {
      "inputs": [],
      "name": "getAPR",
      "outputs": [
        {
          "internalType": "uint256",
          "name": "",
          "type": "uint256"
        }
      ],
      "stateMutability": "view",
      "type": "function"
    },
    {
      "inputs": [],
      "name": "getAllPoolInUSD",
      "outputs": [
        {
          "internalType": "uint256",
          "name": "",
          "type": "uint256"
        }
      ],
      "stateMutability": "view",
      "type": "function"
    },
    {
      "inputs": [],
      "name": "getCurrentCompositionPerc",
      "outputs": [
        {
          "internalType": "address[]",
          "name": "tokens",
          "type": "address[]"
        },
        {
          "internalType": "uint256[]",
          "name": "percentages",
          "type": "uint256[]"
        }
      ],
      "stateMutability": "view",
      "type": "function"
    },
    {
      "inputs": [],
      "name": "getPricePerFullShare",
      "outputs": [
        {
          "internalType": "uint256",
          "name": "",
          "type": "uint256"
        }
      ],
      "stateMutability": "view",
      "type": "function"
    },
    {
      "inputs": [
        {
          "internalType": "address",
          "name": "spender",
          "type": "address"
        },
        {
          "internalType": "uint256",
          "name": "addedValue",
          "type": "uint256"
        }
      ],
      "name": "increaseAllowance",
      "outputs": [
        {
          "internalType": "bool",
          "name": "",
          "type": "bool"
        }
      ],
      "stateMutability": "nonpayable",
      "type": "function"
    },
    {
      "inputs": [
        {
          "internalType": "address",
          "name": "_treasuryWallet",
          "type": "address"
        },
        {
          "internalType": "address",
          "name": "_admin",
          "type": "address"
        },
        {
          "internalType": "address",
          "name": "_biconomy",
          "type": "address"
        },
        {
          "internalType": "address",
          "name": "_strategy",
          "type": "address"
        }
      ],
      "name": "initialize",
      "outputs": [],
      "stateMutability": "nonpayable",
      "type": "function"
    },
    {
      "inputs": [
        {
          "internalType": "address",
          "name": "forwarder",
          "type": "address"
        }
      ],
      "name": "isTrustedForwarder",
      "outputs": [
        {
          "internalType": "bool",
          "name": "",
          "type": "bool"
        }
      ],
      "stateMutability": "view",
      "type": "function"
    },
    {
      "inputs": [],
      "name": "name",
      "outputs": [
        {
          "internalType": "string",
          "name": "",
          "type": "string"
        }
      ],
      "stateMutability": "view",
      "type": "function"
    },
    {
      "inputs": [],
      "name": "owner",
      "outputs": [
        {
          "internalType": "address",
          "name": "",
          "type": "address"
        }
      ],
      "stateMutability": "view",
      "type": "function"
    },
    {
      "inputs": [],
      "name": "paused",
      "outputs": [
        {
          "internalType": "bool",
          "name": "",
          "type": "bool"
        }
      ],
      "stateMutability": "view",
      "type": "function"
    },
    {
      "inputs": [
        {
          "internalType": "uint256",
          "name": "farmIndex",
          "type": "uint256"
        },
        {
          "internalType": "uint256",
          "name": "sharePerc",
          "type": "uint256"
        }
      ],
      "name": "rebalance",
      "outputs": [],
      "stateMutability": "nonpayable",
      "type": "function"
    },
    {
      "inputs": [],
      "name": "reinvest",
      "outputs": [],
      "stateMutability": "nonpayable",
      "type": "function"
    },
    {
      "inputs": [],
      "name": "renounceOwnership",
      "outputs": [],
      "stateMutability": "nonpayable",
      "type": "function"
    },
    {
      "inputs": [
        {
          "internalType": "address",
          "name": "_admin",
          "type": "address"
        }
      ],
      "name": "setAdmin",
      "outputs": [],
      "stateMutability": "nonpayable",
      "type": "function"
    },
    {
      "inputs": [
        {
          "internalType": "address",
          "name": "_biconomy",
          "type": "address"
        }
      ],
      "name": "setBiconomy",
      "outputs": [],
      "stateMutability": "nonpayable",
      "type": "function"
    },
    {
      "inputs": [
        {
          "internalType": "address",
          "name": "_treasuryWallet",
          "type": "address"
        }
      ],
      "name": "setTreasuryWallet",
      "outputs": [],
      "stateMutability": "nonpayable",
      "type": "function"
    },
    {
      "inputs": [],
      "name": "strategy",
      "outputs": [
        {
          "internalType": "contract IStrategy",
          "name": "",
          "type": "address"
        }
      ],
      "stateMutability": "view",
      "type": "function"
    },
    {
      "inputs": [],
      "name": "symbol",
      "outputs": [
        {
          "internalType": "string",
          "name": "",
          "type": "string"
        }
      ],
      "stateMutability": "view",
      "type": "function"
    },
    {
      "inputs": [],
      "name": "totalSupply",
      "outputs": [
        {
          "internalType": "uint256",
          "name": "",
          "type": "uint256"
        }
      ],
      "stateMutability": "view",
      "type": "function"
    },
    {
      "inputs": [
        {
          "internalType": "address",
          "name": "to",
          "type": "address"
        },
        {
          "internalType": "uint256",
          "name": "amount",
          "type": "uint256"
        }
      ],
      "name": "transfer",
      "outputs": [
        {
          "internalType": "bool",
          "name": "",
          "type": "bool"
        }
      ],
      "stateMutability": "nonpayable",
      "type": "function"
    },
    {
      "inputs": [
        {
          "internalType": "address",
          "name": "from",
          "type": "address"
        },
        {
          "internalType": "address",
          "name": "to",
          "type": "address"
        },
        {
          "internalType": "uint256",
          "name": "amount",
          "type": "uint256"
        }
      ],
      "name": "transferFrom",
      "outputs": [
        {
          "internalType": "bool",
          "name": "",
          "type": "bool"
        }
      ],
      "stateMutability": "nonpayable",
      "type": "function"
    },
    {
      "inputs": [
        {
          "internalType": "address",
          "name": "newOwner",
          "type": "address"
        }
      ],
      "name": "transferOwnership",
      "outputs": [],
      "stateMutability": "nonpayable",
      "type": "function"
    },
    {
      "inputs": [],
      "name": "treasuryWallet",
      "outputs": [
        {
          "internalType": "address",
          "name": "",
          "type": "address"
        }
      ],
      "stateMutability": "view",
      "type": "function"
    },
    {
      "inputs": [],
      "name": "trustedForwarder",
      "outputs": [
        {
          "internalType": "address",
          "name": "",
          "type": "address"
        }
      ],
      "stateMutability": "view",
      "type": "function"
    },
    {
      "inputs": [],
      "name": "versionRecipient",
      "outputs": [
        {
          "internalType": "string",
          "name": "",
          "type": "string"
        }
      ],
      "stateMutability": "pure",
      "type": "function"
    },
    {
      "inputs": [
        {
          "internalType": "uint256",
          "name": "share",
          "type": "uint256"
        }
      ],
      "name": "withdraw",
      "outputs": [],
      "stateMutability": "nonpayable",
      "type": "function"
    },
    {
      "inputs": [
        {
          "internalType": "address",
          "name": "account",
          "type": "address"
        },
        {
          "internalType": "uint256",
          "name": "share",
          "type": "uint256"
        }
      ],
      "name": "withdrawByAdmin",
      "outputs": [],
      "stateMutability": "nonpayable",
      "type": "function"
    }
  ],
  "transactionHash": "0xcd4f558ed9435869e03b2357e7911ac85e8278e93c7278e2fb85334e121f6470",
  "args": [],
  "numDeployments": 2,
  "solcInputHash": "9fd7100f8a8af5144f123ff383628d14",
  "bytecode": "0x608060405234801561001057600080fd5b50612aec806100206000396000f3fe608060405234801561001057600080fd5b50600436106102275760003560e01c80637da0a87711610130578063bd244af4116100b8578063df8879b81161007c578063df8879b8146104aa578063f2fde38b146104bd578063f851a440146104d0578063f8c8765e146104e3578063fdb5a03e146104f657600080fd5b8063bd244af414610464578063c54e44eb1461046c578063c89d5b8b14610487578063db2e21bc1461048f578063dd62ed3e1461049757600080fd5b8063a8602fea116100ff578063a8602fea14610402578063a8c62e7614610415578063a9059cbb14610428578063ac25f6891461043b578063b6b55f251461045157600080fd5b80637da0a877146103c35780638da5cb5b146103d657806395d89b41146103e7578063a457c2d7146103ef57600080fd5b80634626402b116101b35780635c975abb116101825780635c975abb1461036c578063704b6c021461037757806370a082311461038a578063715018a6146103b357806377c7b8fc146103bb57600080fd5b80634626402b146102ef578063486ff0cd1461031a578063487c358014610337578063572b6c051461034a57600080fd5b806323b872dd116101fa57806323b872dd146102945780632d9c7dcf146102a75780632e1a7d4d146102ba578063313ce567146102cd57806339509351146102dc57600080fd5b806306fdde031461022c578063095ea7b31461024a5780630d8b76a81461026d57806318160ddd14610282575b600080fd5b6102346104fe565b60405161024191906124b8565b60405180910390f35b61025d610258366004612500565b610590565b6040519015158152602001610241565b61028061027b36600461252c565b6105b2565b005b6035545b604051908152602001610241565b61025d6102a2366004612549565b610666565b6102806102b5366004612500565b610696565b6102806102c836600461258a565b6106e3565b60405160128152602001610241565b61025d6102ea366004612500565b6106f0565b60fd54610302906001600160a01b031681565b6040516001600160a01b039091168152602001610241565b6040805180820190915260018152603160f81b6020820152610234565b610280610345366004612500565b61071c565b61025d61035836600461252c565b60fb546001600160a01b0391821691161490565b60c95460ff1661025d565b61028061038536600461252c565b610765565b61028661039836600461252c565b6001600160a01b031660009081526033602052604090205490565b610280610808565b61028661085d565b60fb54610302906001600160a01b031681565b6065546001600160a01b0316610302565b6102346108aa565b61025d6103fd366004612500565b6108b9565b61028061041036600461252c565b61094a565b60fc54610302906001600160a01b031681565b61025d610436366004612500565b6109ed565b610443610a05565b6040516102419291906125a3565b61028061045f36600461258a565b610a9a565b610286610aab565b610302731f326a8ca5399418a76ea0efa0403cbb00790c6781565b610286610b93565b610280610bd8565b6102866104a5366004612627565b610cac565b6102806104b8366004612660565b610cd7565b6102806104cb36600461252c565b610e49565b60fe54610302906001600160a01b031681565b6102806104f1366004612682565b610f00565b610280611035565b60606036805461050d906126de565b80601f0160208091040260200160405190810160405280929190818152602001828054610539906126de565b80156105865780601f1061055b57610100808354040283529160200191610586565b820191906000526020600020905b81548152906001019060200180831161056957829003601f168201915b5050505050905090565b60008061059b6111eb565b90506105a88185856111f5565b5060019392505050565b6105ba6111eb565b6001600160a01b03166105d56065546001600160a01b031690565b6001600160a01b0316146106045760405162461bcd60e51b81526004016105fb90612719565b60405180910390fd5b60fb80546001600160a01b038381166001600160a01b031983168117909355604080519190921680825260208201939093527f56b079178193d2a52b3949d9cd8bc5503daadffd4a704722e18b8325021a974191015b60405180910390a15050565b6000806106716111eb565b905061067e858285611319565b61068985858561138d565b60019150505b9392505050565b6065546001600160a01b03163314806106b9575060fe546001600160a01b031633145b6106d55760405162461bcd60e51b81526004016105fb9061274e565b6106df828261155b565b5050565b6106ed338261176b565b50565b6000806106fb6111eb565b90506105a881858561070d8589610cac565b6107179190612791565b6111f5565b6065546001600160a01b031633148061073f575060fe546001600160a01b031633145b61075b5760405162461bcd60e51b81526004016105fb9061274e565b6106df828261176b565b61076d6111eb565b6001600160a01b03166107886065546001600160a01b031690565b6001600160a01b0316146107ae5760405162461bcd60e51b81526004016105fb90612719565b60fe80546001600160a01b038381166001600160a01b031983168117909355604080519190921680825260208201939093527f9f0ac88be9159761bacf6c9e7c294c397ebf594607f6b3f2f70e7e0841ea68e8910161065a565b6108106111eb565b6001600160a01b031661082b6065546001600160a01b031690565b6001600160a01b0316146108515760405162461bcd60e51b81526004016105fb90612719565b61085b6000611acf565b565b60008061086960355490565b90508061087f57670de0b6b3a764000091505090565b80610888610aab565b61089a90670de0b6b3a76400006127a9565b6108a491906127c8565b91505090565b60606037805461050d906126de565b6000806108c46111eb565b905060006108d28286610cac565b9050838110156109325760405162461bcd60e51b815260206004820152602560248201527f45524332303a2064656372656173656420616c6c6f77616e63652062656c6f77604482015264207a65726f60d81b60648201526084016105fb565b61093f82868684036111f5565b506001949350505050565b6109526111eb565b6001600160a01b031661096d6065546001600160a01b031690565b6001600160a01b0316146109935760405162461bcd60e51b81526004016105fb90612719565b60fd80546001600160a01b038381166001600160a01b031983168117909355604080519190921680825260208201939093527febcecb9db04071cf4b4ecc1e2e1e4603e74c9382d6e36c3531f0b62af4c78ed7910161065a565b6000806109f86111eb565b90506105a881858561138d565b60608060fc60009054906101000a90046001600160a01b03166001600160a01b0316634631b2466040518163ffffffff1660e01b815260040160006040518083038186803b158015610a5657600080fd5b505afa158015610a6a573d6000803e3d6000fd5b505050506040513d6000823e601f3d908101601f19168201604052610a9291908101906128c0565b915091509091565b6106ed610aa56111eb565b8261155b565b6000610ab960c95460ff1690565b15610b45576040516370a0823160e01b8152306004820152731f326a8ca5399418a76ea0efa0403cbb00790c67906370a082319060240160206040518083038186803b158015610b0857600080fd5b505afa158015610b1c573d6000803e3d6000fd5b505050506040513d601f19601f82011682018060405250810190610b409190612985565b905090565b60fc60009054906101000a90046001600160a01b03166001600160a01b031663bd244af46040518163ffffffff1660e01b815260040160206040518083038186803b158015610b0857600080fd5b60fc546040805163c89d5b8b60e01b815290516000926001600160a01b03169163c89d5b8b916004808301926020929190829003018186803b158015610b0857600080fd5b6065546001600160a01b0316331480610bfb575060fe546001600160a01b031633145b610c175760405162461bcd60e51b81526004016105fb9061274e565b60c95460ff1615610c3a5760405162461bcd60e51b81526004016105fb9061299e565b610c42611b21565b60fc60009054906101000a90046001600160a01b03166001600160a01b031663db2e21bc6040518163ffffffff1660e01b8152600401600060405180830381600087803b158015610c9257600080fd5b505af1158015610ca6573d6000803e3d6000fd5b50505050565b6001600160a01b03918216600090815260346020908152604080832093909416825291909152205490565b6065546001600160a01b0316331480610cfa575060fe546001600160a01b031633145b610d165760405162461bcd60e51b81526004016105fb9061274e565b60fc54604051636e21950f60e01b815260048101849052602481018390526000916001600160a01b031690636e21950f90604401602060405180830381600087803b158015610d6457600080fd5b505af1158015610d78573d6000803e3d6000fd5b505050506040513d601f19601f82011682018060405250810190610d9c9190612985565b90508015610e445760fc546040516255f9e960e71b8152600481018390526001600160a01b0390911690632afcf48090602401600060405180830381600087803b158015610de957600080fd5b505af1158015610dfd573d6000803e3d6000fd5b505060408051868152602081018690529081018490527fe0b4077da7dfa5015ff10fab6a214f37acc1b23d745f30336942d17e07848c6b9250606001905060405180910390a15b505050565b610e516111eb565b6001600160a01b0316610e6c6065546001600160a01b031690565b6001600160a01b031614610e925760405162461bcd60e51b81526004016105fb90612719565b6001600160a01b038116610ef75760405162461bcd60e51b815260206004820152602660248201527f4f776e61626c653a206e6577206f776e657220697320746865207a65726f206160448201526564647265737360d01b60648201526084016105fb565b6106ed81611acf565b6000610f0c6001611b97565b90508015610f24576000805461ff0019166101001790555b610f7660405180604001604052806015815260200174098deee5ae4d2e6d64086e4f2e0e8de4092dcc8caf605b1b815250604051806040016040528060038152602001624c434960e81b815250611c1f565b610f7e611c50565b60fc80546001600160a01b038085166001600160a01b0319928316811790935560fd805489831690841617905560fe805488831690841617905560fb805491871691909216179055610fe890731f326a8ca5399418a76ea0efa0403cbb00790c6790600019611c7f565b801561102e576000805461ff0019169055604051600181527f7f26b83ff96e1f2b6a682f133852f6798a09c465da95921460cefb38474024989060200160405180910390a15b5050505050565b6065546001600160a01b0316331480611058575060fe546001600160a01b031633145b6110745760405162461bcd60e51b81526004016105fb9061274e565b60c95460ff166110bd5760405162461bcd60e51b815260206004820152601460248201527314185d5cd8589b194e881b9bdd081c185d5cd95960621b60448201526064016105fb565b6110c5611dd6565b6040516370a0823160e01b8152306004820152600090731f326a8ca5399418a76ea0efa0403cbb00790c67906370a082319060240160206040518083038186803b15801561111257600080fd5b505afa158015611126573d6000803e3d6000fd5b505050506040513d601f19601f8201168201806040525081019061114a9190612985565b905080156106ed5760fc546040516255f9e960e71b8152600481018390526001600160a01b0390911690632afcf48090602401600060405180830381600087803b15801561119757600080fd5b505af11580156111ab573d6000803e3d6000fd5b505050507fc13e24d2b0a3bacd5d1a7c514125a1e27323abf7c86f6d36597f8752bbd7eed7816040516111e091815260200190565b60405180910390a150565b6000610b40611e52565b6001600160a01b0383166112575760405162461bcd60e51b8152602060048201526024808201527f45524332303a20617070726f76652066726f6d20746865207a65726f206164646044820152637265737360e01b60648201526084016105fb565b6001600160a01b0382166112b85760405162461bcd60e51b815260206004820152602260248201527f45524332303a20617070726f766520746f20746865207a65726f206164647265604482015261737360f01b60648201526084016105fb565b6001600160a01b0383811660008181526034602090815260408083209487168084529482529182902085905590518481527f8c5be1e5ebec7d5bd14f71427d1e84f3dd0314c0f7b2291e5b200ac8c7c3b925910160405180910390a3505050565b60006113258484610cac565b90506000198114610ca657818110156113805760405162461bcd60e51b815260206004820152601d60248201527f45524332303a20696e73756666696369656e7420616c6c6f77616e636500000060448201526064016105fb565b610ca684848484036111f5565b6001600160a01b0383166113f15760405162461bcd60e51b815260206004820152602560248201527f45524332303a207472616e736665722066726f6d20746865207a65726f206164604482015264647265737360d81b60648201526084016105fb565b6001600160a01b0382166114535760405162461bcd60e51b815260206004820152602360248201527f45524332303a207472616e7366657220746f20746865207a65726f206164647260448201526265737360e81b60648201526084016105fb565b6001600160a01b038316600090815260336020526040902054818110156114cb5760405162461bcd60e51b815260206004820152602660248201527f45524332303a207472616e7366657220616d6f756e7420657863656564732062604482015265616c616e636560d01b60648201526084016105fb565b6001600160a01b03808516600090815260336020526040808220858503905591851681529081208054849290611502908490612791565b92505081905550826001600160a01b0316846001600160a01b03167fddf252ad1be2c89b69c2b068fc378daa952ba7f163c4a11628f55a4df523b3ef8460405161154e91815260200190565b60405180910390a3610ca6565b600260975414156115ae5760405162461bcd60e51b815260206004820152601f60248201527f5265656e7472616e637947756172643a207265656e7472616e742063616c6c0060448201526064016105fb565b600260975560c95460ff16156115d65760405162461bcd60e51b81526004016105fb9061299e565b600081116116185760405162461bcd60e51b815260206004820152600f60248201526e0416d6f756e74206d757374203e203608c1b60448201526064016105fb565b6001600160a01b038216600090815260ff6020526040812043905561163b610aab565b905061165d731f326a8ca5399418a76ea0efa0403cbb00790c67843085611e86565b60fc546040516255f9e960e71b8152600481018490526001600160a01b0390911690632afcf48090602401600060405180830381600087803b1580156116a257600080fd5b505af11580156116b6573d6000803e3d6000fd5b5050603554849250905060008115806116cf5750818411155b6116ed57836116de83856127a9565b6116e891906127c8565b6116ef565b825b90506116fb8682611ebe565b604080516001600160a01b038816815260208101859052731f326a8ca5399418a76ea0efa0403cbb00790c67818301526060810183905290517fd2f8022f659fd9c8c558f30c00fd5ee7038f7cb56da45095c3e0e7d48b3e0c4b9181900360800190a15050600160975550505050565b600260975414156117be5760405162461bcd60e51b815260206004820152601f60248201527f5265656e7472616e637947756172643a207265656e7472616e742063616c6c0060448201526064016105fb565b6002609755806118025760405162461bcd60e51b815260206004820152600f60248201526e0536861726573206d757374203e203608c1b60448201526064016105fb565b6001600160a01b03821660009081526033602052604090205481111561186a5760405162461bcd60e51b815260206004820152601c60248201527f4e6f7420656e6f75676820736861726520746f2077697468647261770000000060448201526064016105fb565b6001600160a01b038216600090815260ff60205260409020544314156118d25760405162461bcd60e51b815260206004820152601a60248201527f57697468647261772077697468696e2073616d6520626c6f636b00000000000060448201526064016105fb565b60006118dd60355490565b9050600081836118eb610aab565b6118f591906127a9565b6118ff91906127c8565b905061190d60c95460ff1690565b611a385760fc546001600160a01b031663ed47d9098361193586670de0b6b3a76400006127a9565b61193f91906127c8565b6040518263ffffffff1660e01b815260040161195d91815260200190565b600060405180830381600087803b15801561197757600080fd5b505af115801561198b573d6000803e3d6000fd5b50506040516370a0823160e01b8152306004820152611a339250869150731f326a8ca5399418a76ea0efa0403cbb00790c67906370a082319060240160206040518083038186803b1580156119df57600080fd5b505afa1580156119f3573d6000803e3d6000fd5b505050506040513d601f19601f82011682018060405250810190611a179190612985565b731f326a8ca5399418a76ea0efa0403cbb00790c679190611f9d565b611a57565b611a57731f326a8ca5399418a76ea0efa0403cbb00790c678583611f9d565b611a618484611fcd565b604080516001600160a01b038616815260208101839052731f326a8ca5399418a76ea0efa0403cbb00790c67818301526060810185905290517f457f950b75085c30ff780acd57bde642ff1316cc4aad9f286af2c1ffc4163a789181900360800190a1505060016097555050565b606580546001600160a01b038381166001600160a01b0319831681179093556040519116919082907f8be0079c531659141344cd1fd0a4f28419497f9722a3daafe3b4186f6b6457e090600090a35050565b60c95460ff1615611b445760405162461bcd60e51b81526004016105fb9061299e565b60c9805460ff191660011790557f62e78cea01bee320cd4e420270b5ea74000d11b0c9f74754ebdbfc544b05a258611b7a6111eb565b6040516001600160a01b03909116815260200160405180910390a1565b60008054610100900460ff1615611bde578160ff166001148015611bba5750303b155b611bd65760405162461bcd60e51b81526004016105fb906129c8565b506000919050565b60005460ff808416911610611c055760405162461bcd60e51b81526004016105fb906129c8565b506000805460ff191660ff92909216919091179055600190565b600054610100900460ff16611c465760405162461bcd60e51b81526004016105fb90612a16565b6106df828261211b565b600054610100900460ff16611c775760405162461bcd60e51b81526004016105fb90612a16565b61085b612169565b801580611d085750604051636eb1769f60e11b81523060048201526001600160a01b03838116602483015284169063dd62ed3e9060440160206040518083038186803b158015611cce57600080fd5b505afa158015611ce2573d6000803e3d6000fd5b505050506040513d601f19601f82011682018060405250810190611d069190612985565b155b611d735760405162461bcd60e51b815260206004820152603660248201527f5361666545524332303a20617070726f76652066726f6d206e6f6e2d7a65726f60448201527520746f206e6f6e2d7a65726f20616c6c6f77616e636560501b60648201526084016105fb565b6040516001600160a01b038316602482015260448101829052610e4490849063095ea7b360e01b906064015b60408051601f198184030181529190526020810180516001600160e01b03166001600160e01b0319909316929092179091526121a0565b60c95460ff16611e1f5760405162461bcd60e51b815260206004820152601460248201527314185d5cd8589b194e881b9bdd081c185d5cd95960621b60448201526064016105fb565b60c9805460ff191690557f5db9ee0a495bf2e6ff9c91a7834c1ba4fdd244a5e8aa4e537bd38aeae4b073aa611b7a6111eb565b600060183610801590611e6f575060fb546001600160a01b031633145b15611e81575060131936013560601c90565b503390565b6040516001600160a01b0380851660248301528316604482015260648101829052610ca69085906323b872dd60e01b90608401611d9f565b6001600160a01b038216611f145760405162461bcd60e51b815260206004820152601f60248201527f45524332303a206d696e7420746f20746865207a65726f20616464726573730060448201526064016105fb565b8060356000828254611f269190612791565b90915550506001600160a01b03821660009081526033602052604081208054839290611f53908490612791565b90915550506040518181526001600160a01b038316906000907fddf252ad1be2c89b69c2b068fc378daa952ba7f163c4a11628f55a4df523b3ef9060200160405180910390a35050565b6040516001600160a01b038316602482015260448101829052610e4490849063a9059cbb60e01b90606401611d9f565b6001600160a01b03821661202d5760405162461bcd60e51b815260206004820152602160248201527f45524332303a206275726e2066726f6d20746865207a65726f206164647265736044820152607360f81b60648201526084016105fb565b6001600160a01b038216600090815260336020526040902054818110156120a15760405162461bcd60e51b815260206004820152602260248201527f45524332303a206275726e20616d6f756e7420657863656564732062616c616e604482015261636560f01b60648201526084016105fb565b6001600160a01b03831660009081526033602052604081208383039055603580548492906120d0908490612a61565b90915550506040518281526000906001600160a01b038516907fddf252ad1be2c89b69c2b068fc378daa952ba7f163c4a11628f55a4df523b3ef9060200160405180910390a3505050565b600054610100900460ff166121425760405162461bcd60e51b81526004016105fb90612a16565b81516121559060369060208501906123f3565b508051610e449060379060208401906123f3565b600054610100900460ff166121905760405162461bcd60e51b81526004016105fb90612a16565b61085b61219b6111eb565b611acf565b60006121f5826040518060400160405280602081526020017f5361666545524332303a206c6f772d6c6576656c2063616c6c206661696c6564815250856001600160a01b03166122729092919063ffffffff16565b805190915015610e4457808060200190518101906122139190612a78565b610e445760405162461bcd60e51b815260206004820152602a60248201527f5361666545524332303a204552433230206f7065726174696f6e20646964206e6044820152691bdd081cdd58d8d9595960b21b60648201526084016105fb565b60606122818484600085612289565b949350505050565b6060824710156122ea5760405162461bcd60e51b815260206004820152602660248201527f416464726573733a20696e73756666696369656e742062616c616e636520666f6044820152651c8818d85b1b60d21b60648201526084016105fb565b6001600160a01b0385163b6123415760405162461bcd60e51b815260206004820152601d60248201527f416464726573733a2063616c6c20746f206e6f6e2d636f6e747261637400000060448201526064016105fb565b600080866001600160a01b0316858760405161235d9190612a9a565b60006040518083038185875af1925050503d806000811461239a576040519150601f19603f3d011682016040523d82523d6000602084013e61239f565b606091505b50915091506123af8282866123ba565b979650505050505050565b606083156123c957508161068f565b8251156123d95782518084602001fd5b8160405162461bcd60e51b81526004016105fb91906124b8565b8280546123ff906126de565b90600052602060002090601f0160209004810192826124215760008555612467565b82601f1061243a57805160ff1916838001178555612467565b82800160010185558215612467579182015b8281111561246757825182559160200191906001019061244c565b50612473929150612477565b5090565b5b808211156124735760008155600101612478565b60005b838110156124a757818101518382015260200161248f565b83811115610ca65750506000910152565b60208152600082518060208401526124d781604085016020870161248c565b601f01601f19169190910160400192915050565b6001600160a01b03811681146106ed57600080fd5b6000806040838503121561251357600080fd5b823561251e816124eb565b946020939093013593505050565b60006020828403121561253e57600080fd5b813561068f816124eb565b60008060006060848603121561255e57600080fd5b8335612569816124eb565b92506020840135612579816124eb565b929592945050506040919091013590565b60006020828403121561259c57600080fd5b5035919050565b604080825283519082018190526000906020906060840190828701845b828110156125e55781516001600160a01b0316845292840192908401906001016125c0565b5050508381038285015284518082528583019183019060005b8181101561261a578351835292840192918401916001016125fe565b5090979650505050505050565b6000806040838503121561263a57600080fd5b8235612645816124eb565b91506020830135612655816124eb565b809150509250929050565b6000806040838503121561267357600080fd5b50508035926020909101359150565b6000806000806080858703121561269857600080fd5b84356126a3816124eb565b935060208501356126b3816124eb565b925060408501356126c3816124eb565b915060608501356126d3816124eb565b939692955090935050565b600181811c908216806126f257607f821691505b6020821081141561271357634e487b7160e01b600052602260045260246000fd5b50919050565b6020808252818101527f4f776e61626c653a2063616c6c6572206973206e6f7420746865206f776e6572604082015260600190565b60208082526013908201527227b7363c9037bbb732b91037b91030b236b4b760691b604082015260600190565b634e487b7160e01b600052601160045260246000fd5b600082198211156127a4576127a461277b565b500190565b60008160001904831182151516156127c3576127c361277b565b500290565b6000826127e557634e487b7160e01b600052601260045260246000fd5b500490565b634e487b7160e01b600052604160045260246000fd5b604051601f8201601f1916810167ffffffffffffffff81118282101715612829576128296127ea565b604052919050565b600067ffffffffffffffff82111561284b5761284b6127ea565b5060051b60200190565b600082601f83011261286657600080fd5b8151602061287b61287683612831565b612800565b82815260059290921b8401810191818101908684111561289a57600080fd5b8286015b848110156128b5578051835291830191830161289e565b509695505050505050565b600080604083850312156128d357600080fd5b825167ffffffffffffffff808211156128eb57600080fd5b818501915085601f8301126128ff57600080fd5b8151602061290f61287683612831565b82815260059290921b8401810191818101908984111561292e57600080fd5b948201945b83861015612955578551612946816124eb565b82529482019490820190612933565b9188015191965090935050508082111561296e57600080fd5b5061297b85828601612855565b9150509250929050565b60006020828403121561299757600080fd5b5051919050565b60208082526010908201526f14185d5cd8589b194e881c185d5cd95960821b604082015260600190565b6020808252602e908201527f496e697469616c697a61626c653a20636f6e747261637420697320616c72656160408201526d191e481a5b9a5d1a585b1a5e995960921b606082015260800190565b6020808252602b908201527f496e697469616c697a61626c653a20636f6e7472616374206973206e6f74206960408201526a6e697469616c697a696e6760a81b606082015260800190565b600082821015612a7357612a7361277b565b500390565b600060208284031215612a8a57600080fd5b8151801515811461068f57600080fd5b60008251612aac81846020870161248c565b919091019291505056fea2646970667358221220128223452bf7373a74b501aa9ad8abf052c7c522ff50ac8fefc7ac439a95480c64736f6c63430008090033",
  "devdoc": {
    "kind": "dev",
    "methods": {
      "allowance(address,address)": {
        "details": "See {IERC20-allowance}."
      },
      "approve(address,uint256)": {
        "details": "See {IERC20-approve}. NOTE: If `amount` is the maximum `uint256`, the allowance is not updated on `transferFrom`. This is semantically equivalent to an infinite approval. Requirements: - `spender` cannot be the zero address."
      },
      "balanceOf(address)": {
        "details": "See {IERC20-balanceOf}."
      },
      "decimals()": {
        "details": "Returns the number of decimals used to get its user representation. For example, if `decimals` equals `2`, a balance of `505` tokens should be displayed to a user as `5.05` (`505 / 10 ** 2`). Tokens usually opt for a value of 18, imitating the relationship between Ether and Wei. This is the value {ERC20} uses, unless this function is overridden; NOTE: This information is only used for _display_ purposes: it in no way affects any of the arithmetic of the contract, including {IERC20-balanceOf} and {IERC20-transfer}."
      },
      "decreaseAllowance(address,uint256)": {
        "details": "Atomically decreases the allowance granted to `spender` by the caller. This is an alternative to {approve} that can be used as a mitigation for problems described in {IERC20-approve}. Emits an {Approval} event indicating the updated allowance. Requirements: - `spender` cannot be the zero address. - `spender` must have allowance for the caller of at least `subtractedValue`."
      },
      "increaseAllowance(address,uint256)": {
        "details": "Atomically increases the allowance granted to `spender` by the caller. This is an alternative to {approve} that can be used as a mitigation for problems described in {IERC20-approve}. Emits an {Approval} event indicating the updated allowance. Requirements: - `spender` cannot be the zero address."
      },
      "name()": {
        "details": "Returns the name of the token."
      },
      "owner()": {
        "details": "Returns the address of the current owner."
      },
      "paused()": {
        "details": "Returns true if the contract is paused, and false otherwise."
      },
      "renounceOwnership()": {
        "details": "Leaves the contract without owner. It will not be possible to call `onlyOwner` functions anymore. Can only be called by the current owner. NOTE: Renouncing ownership will leave the contract without an owner, thereby removing any functionality that is only available to the owner."
      },
      "symbol()": {
        "details": "Returns the symbol of the token, usually a shorter version of the name."
      },
      "totalSupply()": {
        "details": "See {IERC20-totalSupply}."
      },
      "transfer(address,uint256)": {
        "details": "See {IERC20-transfer}. Requirements: - `to` cannot be the zero address. - the caller must have a balance of at least `amount`."
      },
      "transferFrom(address,address,uint256)": {
        "details": "See {IERC20-transferFrom}. Emits an {Approval} event indicating the updated allowance. This is not required by the EIP. See the note at the beginning of {ERC20}. NOTE: Does not update the allowance if the current allowance is the maximum `uint256`. Requirements: - `from` and `to` cannot be the zero address. - `from` must have a balance of at least `amount`. - the caller must have allowance for ``from``'s tokens of at least `amount`."
      },
      "transferOwnership(address)": {
        "details": "Transfers ownership of the contract to a new account (`newOwner`). Can only be called by the current owner."
      }
    },
    "version": 1
  },
  "userdoc": {
    "kind": "user",
    "methods": {
      "getPricePerFullShare()": {
        "notice": "Can be use for calculate both user shares & APR    "
      },
      "isTrustedForwarder(address)": {
        "notice": "return if the forwarder is trusted to forward relayed transactions to us. the forwarder is required to verify the sender's signature, and verify the call is not a replay."
      }
    },
    "version": 1
  },
  "storageLayout": {
    "storage": [
      {
        "astId": 130,
        "contract": "contracts/lci/LCIVaultTest.sol:LCIVaultTest",
        "label": "_initialized",
        "offset": 0,
        "slot": "0",
        "type": "t_uint8"
      },
      {
        "astId": 133,
        "contract": "contracts/lci/LCIVaultTest.sol:LCIVaultTest",
        "label": "_initializing",
        "offset": 1,
        "slot": "0",
        "type": "t_bool"
      },
      {
        "astId": 1657,
        "contract": "contracts/lci/LCIVaultTest.sol:LCIVaultTest",
        "label": "__gap",
        "offset": 0,
        "slot": "1",
        "type": "t_array(t_uint256)50_storage"
      },
      {
        "astId": 454,
        "contract": "contracts/lci/LCIVaultTest.sol:LCIVaultTest",
        "label": "_balances",
        "offset": 0,
        "slot": "51",
        "type": "t_mapping(t_address,t_uint256)"
      },
      {
        "astId": 460,
        "contract": "contracts/lci/LCIVaultTest.sol:LCIVaultTest",
        "label": "_allowances",
        "offset": 0,
        "slot": "52",
        "type": "t_mapping(t_address,t_mapping(t_address,t_uint256))"
      },
      {
        "astId": 462,
        "contract": "contracts/lci/LCIVaultTest.sol:LCIVaultTest",
        "label": "_totalSupply",
        "offset": 0,
        "slot": "53",
        "type": "t_uint256"
      },
      {
        "astId": 464,
        "contract": "contracts/lci/LCIVaultTest.sol:LCIVaultTest",
        "label": "_name",
        "offset": 0,
        "slot": "54",
        "type": "t_string_storage"
      },
      {
        "astId": 466,
        "contract": "contracts/lci/LCIVaultTest.sol:LCIVaultTest",
        "label": "_symbol",
        "offset": 0,
        "slot": "55",
        "type": "t_string_storage"
      },
      {
        "astId": 1045,
        "contract": "contracts/lci/LCIVaultTest.sol:LCIVaultTest",
        "label": "__gap",
        "offset": 0,
        "slot": "56",
        "type": "t_array(t_uint256)45_storage"
      },
      {
        "astId": 10,
        "contract": "contracts/lci/LCIVaultTest.sol:LCIVaultTest",
        "label": "_owner",
        "offset": 0,
        "slot": "101",
        "type": "t_address"
      },
      {
        "astId": 122,
        "contract": "contracts/lci/LCIVaultTest.sol:LCIVaultTest",
        "label": "__gap",
        "offset": 0,
        "slot": "102",
        "type": "t_array(t_uint256)49_storage"
      },
      {
        "astId": 390,
        "contract": "contracts/lci/LCIVaultTest.sol:LCIVaultTest",
        "label": "_status",
        "offset": 0,
        "slot": "151",
        "type": "t_uint256"
      },
      {
        "astId": 434,
        "contract": "contracts/lci/LCIVaultTest.sol:LCIVaultTest",
        "label": "__gap",
        "offset": 0,
        "slot": "152",
        "type": "t_array(t_uint256)49_storage"
      },
      {
        "astId": 286,
        "contract": "contracts/lci/LCIVaultTest.sol:LCIVaultTest",
        "label": "_paused",
        "offset": 0,
        "slot": "201",
        "type": "t_bool"
      },
      {
        "astId": 375,
        "contract": "contracts/lci/LCIVaultTest.sol:LCIVaultTest",
        "label": "__gap",
        "offset": 0,
        "slot": "202",
        "type": "t_array(t_uint256)49_storage"
      },
      {
        "astId": 27776,
        "contract": "contracts/lci/LCIVaultTest.sol:LCIVaultTest",
        "label": "trustedForwarder",
        "offset": 0,
        "slot": "251",
        "type": "t_address"
      },
      {
        "astId": 16434,
        "contract": "contracts/lci/LCIVaultTest.sol:LCIVaultTest",
        "label": "strategy",
        "offset": 0,
        "slot": "252",
        "type": "t_contract(IStrategy)16411"
      },
      {
        "astId": 16436,
        "contract": "contracts/lci/LCIVaultTest.sol:LCIVaultTest",
        "label": "treasuryWallet",
        "offset": 0,
        "slot": "253",
        "type": "t_address"
      },
      {
        "astId": 16438,
        "contract": "contracts/lci/LCIVaultTest.sol:LCIVaultTest",
        "label": "admin",
        "offset": 0,
        "slot": "254",
        "type": "t_address"
      },
      {
        "astId": 16442,
        "contract": "contracts/lci/LCIVaultTest.sol:LCIVaultTest",
        "label": "depositedBlock",
        "offset": 0,
        "slot": "255",
        "type": "t_mapping(t_address,t_uint256)"
      }
    ],
    "types": {
      "t_address": {
        "encoding": "inplace",
        "label": "address",
        "numberOfBytes": "20"
      },
      "t_array(t_uint256)45_storage": {
        "base": "t_uint256",
        "encoding": "inplace",
        "label": "uint256[45]",
        "numberOfBytes": "1440"
      },
      "t_array(t_uint256)49_storage": {
        "base": "t_uint256",
        "encoding": "inplace",
        "label": "uint256[49]",
        "numberOfBytes": "1568"
      },
      "t_array(t_uint256)50_storage": {
        "base": "t_uint256",
        "encoding": "inplace",
        "label": "uint256[50]",
        "numberOfBytes": "1600"
      },
      "t_bool": {
        "encoding": "inplace",
        "label": "bool",
        "numberOfBytes": "1"
      },
      "t_contract(IStrategy)16411": {
        "encoding": "inplace",
        "label": "contract IStrategy",
        "numberOfBytes": "20"
      },
      "t_mapping(t_address,t_mapping(t_address,t_uint256))": {
        "encoding": "mapping",
        "key": "t_address",
        "label": "mapping(address => mapping(address => uint256))",
        "numberOfBytes": "32",
        "value": "t_mapping(t_address,t_uint256)"
      },
      "t_mapping(t_address,t_uint256)": {
        "encoding": "mapping",
        "key": "t_address",
        "label": "mapping(address => uint256)",
        "numberOfBytes": "32",
        "value": "t_uint256"
      },
      "t_string_storage": {
        "encoding": "bytes",
        "label": "string",
        "numberOfBytes": "32"
      },
      "t_uint256": {
        "encoding": "inplace",
        "label": "uint256",
        "numberOfBytes": "32"
      },
      "t_uint8": {
        "encoding": "inplace",
        "label": "uint8",
        "numberOfBytes": "1"
      }
    }
  }
}