{
  "address": "0x14AC9782D4D7CD5Dbf8f2422033107A20f047986",
  "abi": [
    {
      "anonymous": false,
      "inputs": [
        {
          "indexed": false,
          "internalType": "uint8",
          "name": "version",
          "type": "uint8"
        }
      ],
      "name": "Initialized",
      "type": "event"
    },
    {
      "anonymous": false,
      "inputs": [
        {
          "indexed": true,
          "internalType": "address",
          "name": "previousOwner",
          "type": "address"
        },
        {
          "indexed": true,
          "internalType": "address",
          "name": "newOwner",
          "type": "address"
        }
      ],
      "name": "OwnershipTransferred",
      "type": "event"
    },
    {
      "anonymous": false,
      "inputs": [
        {
          "indexed": false,
          "internalType": "address",
          "name": "account",
          "type": "address"
        }
      ],
      "name": "Paused",
      "type": "event"
    },
    {
      "anonymous": false,
      "inputs": [
        {
          "indexed": true,
          "internalType": "bytes32",
          "name": "role",
          "type": "bytes32"
        },
        {
          "indexed": true,
          "internalType": "bytes32",
          "name": "previousAdminRole",
          "type": "bytes32"
        },
        {
          "indexed": true,
          "internalType": "bytes32",
          "name": "newAdminRole",
          "type": "bytes32"
        }
      ],
      "name": "RoleAdminChanged",
      "type": "event"
    },
    {
      "anonymous": false,
      "inputs": [
        {
          "indexed": true,
          "internalType": "bytes32",
          "name": "role",
          "type": "bytes32"
        },
        {
          "indexed": true,
          "internalType": "address",
          "name": "account",
          "type": "address"
        },
        {
          "indexed": true,
          "internalType": "address",
          "name": "sender",
          "type": "address"
        }
      ],
      "name": "RoleGranted",
      "type": "event"
    },
    {
      "anonymous": false,
      "inputs": [
        {
          "indexed": true,
          "internalType": "bytes32",
          "name": "role",
          "type": "bytes32"
        },
        {
          "indexed": true,
          "internalType": "address",
          "name": "account",
          "type": "address"
        },
        {
          "indexed": true,
          "internalType": "address",
          "name": "sender",
          "type": "address"
        }
      ],
      "name": "RoleRevoked",
      "type": "event"
    },
    {
      "anonymous": false,
      "inputs": [
        {
          "indexed": true,
          "internalType": "address",
          "name": "from",
          "type": "address"
        },
        {
          "indexed": false,
          "internalType": "address",
          "name": "token",
          "type": "address"
        },
        {
          "indexed": true,
          "internalType": "uint256",
          "name": "amount",
          "type": "uint256"
        },
        {
          "indexed": false,
          "internalType": "uint256",
          "name": "fromChainId",
          "type": "uint256"
        },
        {
          "indexed": true,
          "internalType": "uint256",
          "name": "toChainId",
          "type": "uint256"
        },
        {
          "indexed": false,
          "internalType": "address",
          "name": "to",
          "type": "address"
        },
        {
          "indexed": false,
          "internalType": "enum BasicUserAgentBase.AdapterType",
          "name": "adapterType",
          "type": "uint8"
        },
        {
          "indexed": false,
          "internalType": "uint256",
          "name": "nonce",
          "type": "uint256"
        }
      ],
      "name": "Transfer",
      "type": "event"
    },
    {
      "anonymous": false,
      "inputs": [
        {
          "indexed": false,
          "internalType": "address",
          "name": "account",
          "type": "address"
        }
      ],
      "name": "Unpaused",
      "type": "event"
    },
    {
      "inputs": [],
      "name": "ADAPTER_ROLE",
      "outputs": [
        {
          "internalType": "bytes32",
          "name": "",
          "type": "bytes32"
        }
      ],
      "stateMutability": "view",
      "type": "function"
    },
    {
      "inputs": [],
      "name": "DEFAULT_ADMIN_ROLE",
      "outputs": [
        {
          "internalType": "bytes32",
          "name": "",
          "type": "bytes32"
        }
      ],
      "stateMutability": "view",
      "type": "function"
    },
    {
      "inputs": [],
      "name": "USDC",
      "outputs": [
        {
          "internalType": "contract IERC20Upgradeable",
          "name": "",
          "type": "address"
        }
      ],
      "stateMutability": "view",
      "type": "function"
    },
    {
      "inputs": [],
      "name": "USDT",
      "outputs": [
        {
          "internalType": "contract IERC20Upgradeable",
          "name": "",
          "type": "address"
        }
      ],
      "stateMutability": "view",
      "type": "function"
    },
    {
      "inputs": [],
      "name": "admin",
      "outputs": [
        {
          "internalType": "address",
          "name": "",
          "type": "address"
        }
      ],
      "stateMutability": "view",
      "type": "function"
    },
    {
      "inputs": [
        {
          "internalType": "uint256",
          "name": "_pool",
          "type": "uint256"
        },
        {
          "internalType": "uint256",
          "name": "_share",
          "type": "uint256"
        },
        {
          "internalType": "bytes",
          "name": "_signature",
          "type": "bytes"
        }
      ],
      "name": "burn",
      "outputs": [
        {
          "internalType": "uint256",
          "name": "_feeAmt",
          "type": "uint256"
        }
      ],
      "stateMutability": "payable",
      "type": "function"
    },
    {
      "inputs": [
        {
          "internalType": "address",
          "name": "_account",
          "type": "address"
        },
        {
          "internalType": "uint256",
          "name": "_pool",
          "type": "uint256"
        },
        {
          "internalType": "uint256",
          "name": "_share",
          "type": "uint256"
        }
      ],
      "name": "burnByAdmin",
      "outputs": [],
      "stateMutability": "nonpayable",
      "type": "function"
    },
    {
      "inputs": [
        {
          "internalType": "uint256",
          "name": "",
          "type": "uint256"
        }
      ],
      "name": "callAdapterTypes",
      "outputs": [
        {
          "internalType": "enum BasicUserAgentBase.AdapterType",
          "name": "",
          "type": "uint8"
        }
      ],
      "stateMutability": "view",
      "type": "function"
    },
    {
      "inputs": [],
      "name": "cbridgeAdapter",
      "outputs": [
        {
          "internalType": "contract IXChainAdapter",
          "name": "",
          "type": "address"
        }
      ],
      "stateMutability": "view",
      "type": "function"
    },
    {
      "inputs": [
        {
          "internalType": "uint256",
          "name": "",
          "type": "uint256"
        }
      ],
      "name": "cbridgeSenders",
      "outputs": [
        {
          "internalType": "address",
          "name": "",
          "type": "address"
        }
      ],
      "stateMutability": "view",
      "type": "function"
    },
    {
      "inputs": [],
      "name": "chainIdOnLP",
      "outputs": [
        {
          "internalType": "uint256",
          "name": "",
          "type": "uint256"
        }
      ],
      "stateMutability": "view",
      "type": "function"
    },
    {
      "inputs": [
        {
          "internalType": "uint256[]",
          "name": "_chainIds",
          "type": "uint256[]"
        },
        {
          "internalType": "bytes",
          "name": "_signature",
          "type": "bytes"
        }
      ],
      "name": "claim",
      "outputs": [
        {
          "internalType": "uint256",
          "name": "_feeAmt",
          "type": "uint256"
        }
      ],
      "stateMutability": "payable",
      "type": "function"
    },
    {
      "inputs": [
        {
          "internalType": "address",
          "name": "_account",
          "type": "address"
        }
      ],
      "name": "claimByAgent",
      "outputs": [],
      "stateMutability": "nonpayable",
      "type": "function"
    },
    {
      "inputs": [
        {
          "internalType": "uint256[]",
          "name": "_toChainIds",
          "type": "uint256[]"
        },
        {
          "internalType": "address[]",
          "name": "_tokens",
          "type": "address[]"
        },
        {
          "internalType": "uint256[]",
          "name": "_USDT6Amts",
          "type": "uint256[]"
        },
        {
          "internalType": "uint256",
          "name": "_minterNonce",
          "type": "uint256"
        },
        {
          "internalType": "bytes",
          "name": "_signature",
          "type": "bytes"
        }
      ],
      "name": "deposit",
      "outputs": [
        {
          "internalType": "uint256",
          "name": "_feeAmt",
          "type": "uint256"
        }
      ],
      "stateMutability": "payable",
      "type": "function"
    },
    {
      "inputs": [
        {
          "internalType": "address",
          "name": "_account",
          "type": "address"
        },
        {
          "internalType": "address[]",
          "name": "_tokens",
          "type": "address[]"
        },
        {
          "internalType": "uint256[]",
          "name": "_USDT6Amts",
          "type": "uint256[]"
        },
        {
          "internalType": "uint256",
          "name": "_minterNonce",
          "type": "uint256"
        }
      ],
      "name": "depositByAgent",
      "outputs": [],
      "stateMutability": "nonpayable",
      "type": "function"
    },
    {
      "inputs": [
        {
          "internalType": "uint256",
          "name": "_gatheredAmount",
          "type": "uint256"
        },
        {
          "internalType": "bytes",
          "name": "_signature",
          "type": "bytes"
        }
      ],
      "name": "exitWithdrawal",
      "outputs": [
        {
          "internalType": "uint256",
          "name": "_feeAmt",
          "type": "uint256"
        }
      ],
      "stateMutability": "payable",
      "type": "function"
    },
    {
      "inputs": [
        {
          "internalType": "address",
          "name": "_account",
          "type": "address"
        }
      ],
      "name": "exitWithdrawalByAdmin",
      "outputs": [],
      "stateMutability": "nonpayable",
      "type": "function"
    },
    {
      "inputs": [
        {
          "internalType": "uint256[]",
          "name": "_fromChainIds",
          "type": "uint256[]"
        },
        {
          "internalType": "enum BasicUserAgentBase.AdapterType[]",
          "name": "_adapterTypes",
          "type": "uint8[]"
        },
        {
          "internalType": "bytes",
          "name": "_signature",
          "type": "bytes"
        }
      ],
      "name": "gather",
      "outputs": [
        {
          "internalType": "uint256",
          "name": "_feeAmt",
          "type": "uint256"
        }
      ],
      "stateMutability": "payable",
      "type": "function"
    },
    {
      "inputs": [
        {
          "internalType": "address",
          "name": "_account",
          "type": "address"
        },
        {
          "internalType": "uint256",
          "name": "_toChainId",
          "type": "uint256"
        },
        {
          "internalType": "enum BasicUserAgentBase.AdapterType",
          "name": "_adapterType",
          "type": "uint8"
        }
      ],
      "name": "gatherByAdmin",
      "outputs": [],
      "stateMutability": "nonpayable",
      "type": "function"
    },
    {
      "inputs": [
        {
          "internalType": "bytes",
          "name": "message",
          "type": "bytes"
        }
      ],
      "name": "getMessageHashForSafe",
      "outputs": [
        {
          "internalType": "bytes32",
          "name": "",
          "type": "bytes32"
        }
      ],
      "stateMutability": "view",
      "type": "function"
    },
    {
      "inputs": [
        {
          "internalType": "bytes32",
          "name": "role",
          "type": "bytes32"
        }
      ],
      "name": "getRoleAdmin",
      "outputs": [
        {
          "internalType": "bytes32",
          "name": "",
          "type": "bytes32"
        }
      ],
      "stateMutability": "view",
      "type": "function"
    },
    {
      "inputs": [
        {
          "internalType": "bytes32",
          "name": "role",
          "type": "bytes32"
        },
        {
          "internalType": "uint256",
          "name": "index",
          "type": "uint256"
        }
      ],
      "name": "getRoleMember",
      "outputs": [
        {
          "internalType": "address",
          "name": "",
          "type": "address"
        }
      ],
      "stateMutability": "view",
      "type": "function"
    },
    {
      "inputs": [
        {
          "internalType": "bytes32",
          "name": "role",
          "type": "bytes32"
        }
      ],
      "name": "getRoleMemberCount",
      "outputs": [
        {
          "internalType": "uint256",
          "name": "",
          "type": "uint256"
        }
      ],
      "stateMutability": "view",
      "type": "function"
    },
    {
      "inputs": [
        {
          "internalType": "bytes32",
          "name": "role",
          "type": "bytes32"
        },
        {
          "internalType": "address",
          "name": "account",
          "type": "address"
        }
      ],
      "name": "grantRole",
      "outputs": [],
      "stateMutability": "nonpayable",
      "type": "function"
    },
    {
      "inputs": [
        {
          "internalType": "bytes32",
          "name": "role",
          "type": "bytes32"
        },
        {
          "internalType": "address",
          "name": "account",
          "type": "address"
        }
      ],
      "name": "hasRole",
      "outputs": [
        {
          "internalType": "bool",
          "name": "",
          "type": "bool"
        }
      ],
      "stateMutability": "view",
      "type": "function"
    },
    {
      "inputs": [],
      "name": "isLPChain",
      "outputs": [
        {
          "internalType": "bool",
          "name": "",
          "type": "bool"
        }
      ],
      "stateMutability": "view",
      "type": "function"
    },
    {
      "inputs": [
        {
          "internalType": "address",
          "name": "forwarder",
          "type": "address"
        }
      ],
      "name": "isTrustedForwarder",
      "outputs": [
        {
          "internalType": "bool",
          "name": "",
          "type": "bool"
        }
      ],
      "stateMutability": "view",
      "type": "function"
    },
    {
      "inputs": [
        {
          "internalType": "address",
          "name": "_account",
          "type": "address"
        },
        {
          "internalType": "bytes",
          "name": "_data",
          "type": "bytes"
        },
        {
          "internalType": "bytes",
          "name": "_signature",
          "type": "bytes"
        }
      ],
      "name": "isValidSignature",
      "outputs": [
        {
          "internalType": "bool",
          "name": "",
          "type": "bool"
        }
      ],
      "stateMutability": "view",
      "type": "function"
    },
    {
      "inputs": [
        {
          "internalType": "uint256",
          "name": "_USDT6Amt",
          "type": "uint256"
        },
        {
          "internalType": "bytes",
          "name": "_signature",
          "type": "bytes"
        }
      ],
      "name": "mint",
      "outputs": [
        {
          "internalType": "uint256",
          "name": "_feeAmt",
          "type": "uint256"
        }
      ],
      "stateMutability": "payable",
      "type": "function"
    },
    {
      "inputs": [
        {
          "internalType": "address",
          "name": "_account",
          "type": "address"
        },
        {
          "internalType": "uint256",
          "name": "_USDT6Amt",
          "type": "uint256"
        }
      ],
      "name": "mintByAdmin",
      "outputs": [],
      "stateMutability": "nonpayable",
      "type": "function"
    },
    {
      "inputs": [],
      "name": "multichainAdapter",
      "outputs": [
        {
          "internalType": "contract IXChainAdapter",
          "name": "",
          "type": "address"
        }
      ],
      "stateMutability": "view",
      "type": "function"
    },
    {
      "inputs": [
        {
          "internalType": "address",
          "name": "",
          "type": "address"
        }
      ],
      "name": "nonces",
      "outputs": [
        {
          "internalType": "uint256",
          "name": "",
          "type": "uint256"
        }
      ],
      "stateMutability": "view",
      "type": "function"
    },
    {
      "inputs": [],
      "name": "owner",
      "outputs": [
        {
          "internalType": "address",
          "name": "",
          "type": "address"
        }
      ],
      "stateMutability": "view",
      "type": "function"
    },
    {
      "inputs": [],
      "name": "paused",
      "outputs": [
        {
          "internalType": "bool",
          "name": "",
          "type": "bool"
        }
      ],
      "stateMutability": "view",
      "type": "function"
    },
    {
      "inputs": [],
      "name": "renounceOwnership",
      "outputs": [],
      "stateMutability": "nonpayable",
      "type": "function"
    },
    {
      "inputs": [
        {
          "internalType": "bytes32",
          "name": "role",
          "type": "bytes32"
        },
        {
          "internalType": "address",
          "name": "account",
          "type": "address"
        }
      ],
      "name": "renounceRole",
      "outputs": [],
      "stateMutability": "nonpayable",
      "type": "function"
    },
    {
      "inputs": [
        {
          "internalType": "bytes32",
          "name": "role",
          "type": "bytes32"
        },
        {
          "internalType": "address",
          "name": "account",
          "type": "address"
        }
      ],
      "name": "revokeRole",
      "outputs": [],
      "stateMutability": "nonpayable",
      "type": "function"
    },
    {
      "inputs": [],
      "name": "stiMinter",
      "outputs": [
        {
          "internalType": "contract ISTIMinter",
          "name": "",
          "type": "address"
        }
      ],
      "stateMutability": "view",
      "type": "function"
    },
    {
      "inputs": [],
      "name": "stiVault",
      "outputs": [
        {
          "internalType": "contract ISTIVault",
          "name": "",
          "type": "address"
        }
      ],
      "stateMutability": "view",
      "type": "function"
    },
    {
      "inputs": [],
      "name": "subImpl",
      "outputs": [
        {
          "internalType": "address",
          "name": "",
          "type": "address"
        }
      ],
      "stateMutability": "view",
      "type": "function"
    },
    {
      "inputs": [
        {
          "internalType": "bytes4",
          "name": "interfaceId",
          "type": "bytes4"
        }
      ],
      "name": "supportsInterface",
      "outputs": [
        {
          "internalType": "bool",
          "name": "",
          "type": "bool"
        }
      ],
      "stateMutability": "view",
      "type": "function"
    },
    {
      "inputs": [
        {
          "internalType": "uint256",
          "name": "_gatheredAmount",
          "type": "uint256"
        },
        {
          "internalType": "bytes",
          "name": "_signature",
          "type": "bytes"
        }
      ],
      "name": "takeOut",
      "outputs": [],
      "stateMutability": "nonpayable",
      "type": "function"
    },
    {
      "inputs": [
        {
          "internalType": "address",
          "name": "newOwner",
          "type": "address"
        }
      ],
      "name": "transferOwnership",
      "outputs": [],
      "stateMutability": "nonpayable",
      "type": "function"
    },
    {
      "inputs": [],
      "name": "trustedForwarder",
      "outputs": [
        {
          "internalType": "address",
          "name": "",
          "type": "address"
        }
      ],
      "stateMutability": "view",
      "type": "function"
    },
    {
      "inputs": [
        {
          "internalType": "address",
          "name": "",
          "type": "address"
        }
      ],
      "name": "usdcBalances",
      "outputs": [
        {
          "internalType": "uint256",
          "name": "",
          "type": "uint256"
        }
      ],
      "stateMutability": "view",
      "type": "function"
    },
    {
      "inputs": [
        {
          "internalType": "address",
          "name": "",
          "type": "address"
        }
      ],
      "name": "usdtBalances",
      "outputs": [
        {
          "internalType": "uint256",
          "name": "",
          "type": "uint256"
        }
      ],
      "stateMutability": "view",
      "type": "function"
    },
    {
      "inputs": [
        {
          "internalType": "uint256",
          "name": "",
          "type": "uint256"
        }
      ],
      "name": "userAgents",
      "outputs": [
        {
          "internalType": "address",
          "name": "",
          "type": "address"
        }
      ],
      "stateMutability": "view",
      "type": "function"
    },
    {
      "inputs": [],
      "name": "versionRecipient",
      "outputs": [
        {
          "internalType": "string",
          "name": "",
          "type": "string"
        }
      ],
      "stateMutability": "pure",
      "type": "function"
    },
    {
      "inputs": [
        {
          "internalType": "uint256[]",
          "name": "_chainIds",
          "type": "uint256[]"
        },
        {
          "internalType": "uint256",
          "name": "_sharePerc",
          "type": "uint256"
        },
        {
          "internalType": "uint256",
          "name": "_minterNonce",
          "type": "uint256"
        },
        {
          "internalType": "bytes",
          "name": "_signature",
          "type": "bytes"
        }
      ],
      "name": "withdraw",
      "outputs": [
        {
          "internalType": "uint256",
          "name": "_feeAmt",
          "type": "uint256"
        }
      ],
      "stateMutability": "payable",
      "type": "function"
    },
    {
      "inputs": [
        {
          "internalType": "address",
          "name": "_account",
          "type": "address"
        },
        {
          "internalType": "uint256",
          "name": "_sharePerc",
          "type": "uint256"
        },
        {
          "internalType": "uint256",
          "name": "_minterNonce",
          "type": "uint256"
        }
      ],
      "name": "withdrawPercByAgent",
      "outputs": [],
      "stateMutability": "nonpayable",
      "type": "function"
    },
    {
      "stateMutability": "payable",
      "type": "receive"
    }
  ],
  "transactionHash": "0xb3198512125935718389dabbaeb758835b409719c581ab35314786c0e152858f",
  "args": [],
  "numDeployments": 3,
  "solcInputHash": "2bca6ab8513ac2cd6e669f226b8d21f6",
  "bytecode": "0x608060405234801561001057600080fd5b506146a5806100206000396000f3fe6080604052600436106102cd5760003560e01c80638365d5ee11610175578063c7205bce116100dc578063e629f7b311610095578063f2fde38b1161006f578063f2fde38b14610906578063f77de48614610926578063f7bb364c14610946578063f851a4401461096157600080fd5b8063e629f7b31461088f578063e9e81a6a146108af578063f2ea1618146108cf57600080fd5b8063c7205bce146107e8578063ca15c87314610808578063d48a3d3d14610828578063d547741f1461083b578063db7fd4081461085b578063ddd879341461086e57600080fd5b8063918f1a5c1161012e578063918f1a5c1461073157806391d1485414610744578063a217fddf14610764578063a99c68c514610779578063af3da2f4146107a7578063c54e44eb146107c757600080fd5b80638365d5ee1461068557806384762739146106ab57806386355d96146106be57806389a30271146106d15780638da5cb5b146106f25780639010d07c1461071157600080fd5b8063486ff0cd116102345780636687977f116101ed578063715018a6116101c7578063715018a61461060f5780637da0a877146106245780637ecebe001461064457806380a5a3711461067257600080fd5b80636687977f146105a55780636e5677ce146105b85780636ebf33ce146105d857600080fd5b8063486ff0cd146104bf578063572b6c05146104ef57806357cdd7f91461051e578063582489cb1461053f578063582712b11461056d5780635c975abb1461058d57600080fd5b8063248a9ca311610286578063248a9ca3146103cf578063264489ce146103ff57806328054fb7146104215780632f2ff15d1461044157806336568abe1461046157806339dacedb1461048157600080fd5b8063013dee70146102d957806301ffc9a71461031757806302a882e6146103475780630c3a18211461037757806319463093146103985780631a5787d8146103b857600080fd5b366102d457005b600080fd5b3480156102e557600080fd5b50610195546102fa906001600160a01b031681565b6040516001600160a01b0390911681526020015b60405180910390f35b34801561032357600080fd5b506103376103323660046137f9565b610982565b604051901515815260200161030e565b34801561035357600080fd5b5061036960008051602061465083398151915281565b60405190815260200161030e565b34801561038357600080fd5b50610166546102fa906001600160a01b031681565b3480156103a457600080fd5b506103696103b33660046138d8565b6109ad565b3480156103c457600080fd5b506103696101925481565b3480156103db57600080fd5b506103696103ea36600461390c565b60009081526097602052604090206001015490565b34801561040b57600080fd5b5061041f61041a36600461393a565b6109f9565b005b34801561042d57600080fd5b5061041f61043c36600461396b565b610bab565b34801561044d57600080fd5b5061041f61045c3660046139a9565b610f28565b34801561046d57600080fd5b5061041f61047c3660046139a9565b610f52565b34801561048d57600080fd5b506104b261049c36600461390c565b61016a6020526000908152604090205460ff1681565b60405161030e9190613a0d565b3480156104cb57600080fd5b5060408051808201825260018152603160f81b6020820152905161030e9190613a4c565b3480156104fb57600080fd5b5061033761050a36600461393a565b6000546001600160a01b0391821691161490565b34801561052a57600080fd5b50610167546102fa906001600160a01b031681565b34801561054b57600080fd5b5061036961055a36600461393a565b6101656020526000908152604090205481565b34801561057957600080fd5b5061041f610588366004613b66565b610fe0565b34801561059957600080fd5b5060fb5460ff16610337565b6103696105b3366004613c2b565b611068565b3480156105c457600080fd5b5061041f6105d3366004613ca8565b611150565b3480156105e457600080fd5b506102fa6105f336600461390c565b610169602052600090815260409020546001600160a01b031681565b34801561061b57600080fd5b5061041f611232565b34801561063057600080fd5b506000546102fa906001600160a01b031681565b34801561065057600080fd5b5061036961065f36600461393a565b6101606020526000908152604090205481565b610369610680366004613cf3565b6112b8565b34801561069157600080fd5b50610193546102fa9061010090046001600160a01b031681565b6103696106b9366004613ca8565b6113d6565b6103696106cc366004613d45565b61151b565b3480156106dd57600080fd5b50610162546102fa906001600160a01b031681565b3480156106fe57600080fd5b5061012d546001600160a01b03166102fa565b34801561071d57600080fd5b506102fa61072c366004613e01565b611641565b61036961073f366004613e23565b611660565b34801561075057600080fd5b5061033761075f3660046139a9565b6116a6565b34801561077057600080fd5b50610369600081565b34801561078557600080fd5b5061036961079436600461393a565b6101646020526000908152604090205481565b3480156107b357600080fd5b5061041f6107c2366004613efc565b6116d1565b3480156107d357600080fd5b50610163546102fa906001600160a01b031681565b3480156107f457600080fd5b50610337610803366004613f28565b61175b565b34801561081457600080fd5b5061036961082336600461390c565b6118da565b610369610836366004613f87565b6118f1565b34801561084757600080fd5b5061041f6108563660046139a9565b61196a565b610369610869366004613ca8565b61198f565b34801561087a57600080fd5b50610194546102fa906001600160a01b031681565b34801561089b57600080fd5b5061041f6108aa366004613fe2565b611aa4565b3480156108bb57600080fd5b5061041f6108ca366004613fe2565b611b2d565b3480156108db57600080fd5b506102fa6108ea36600461390c565b610168602052600090815260409020546001600160a01b031681565b34801561091257600080fd5b5061041f61092136600461393a565b611b64565b34801561093257600080fd5b5061041f61094136600461393a565b611c4f565b34801561095257600080fd5b50610193546103379060ff1681565b34801561096d57600080fd5b5061015f546102fa906001600160a01b031681565b60006001600160e01b03198216635a05180f60e01b14806109a757506109a782611cd1565b92915050565b805160209182012060015460408051601960f81b81860152600160f81b602182015260228101929092526042808301939093528051808303909301835260629091019052805191012090565b600080516020614650833981519152610a1181611d06565b610163546040516370a0823160e01b81523060048201526000916001600160a01b0316906370a082319060240160206040518083038186803b158015610a5657600080fd5b505afa158015610a6a573d6000803e3d6000fd5b505050506040513d601f19601f82011682018060405250810190610a8e9190614017565b6101945460405163132244e760e11b81526001600160a01b03868116600483015292935091169063264489ce90602401600060405180830381600087803b158015610ad857600080fd5b505af1158015610aec573d6000803e3d6000fd5b5050610163546040516370a0823160e01b81523060048201528493506001600160a01b0390911691506370a082319060240160206040518083038186803b158015610b3657600080fd5b505afa158015610b4a573d6000803e3d6000fd5b505050506040513d601f19601f82011682018060405250810190610b6e9190614017565b610b789190614046565b6001600160a01b0384166000908152610165602052604081208054909190610ba190849061405d565b9091555050505050565b600080516020614650833981519152610bc381611d06565b6001600160a01b038416600090815261016560205260409020548015610f2157600084815261016960205260409020546001600160a01b031680610c435760405162461bcd60e51b8152602060048201526012602482015271125b9d985b1a59081d5cd95c881859d95b9d60721b60448201526064015b60405180910390fd5b604080516001808252818301909252600091602080830190803683370190505090508281600081518110610c7957610c79614075565b60209081029190910101526040805160018082528183019092526000918160200160208202803683370190505090508681600081518110610cbc57610cbc614075565b60209081029190910101526040805160018082528183019092526000918160200160208202803683370190505090508381600081518110610cff57610cff614075565b6001600160a01b0392909216602092830291909101909101526040805160018082528183019092526000918160200160208202803683370190505090508781600081518110610d5057610d50614075565b60200260200101906001811115610d6957610d696139d9565b90816001811115610d7c57610d7c6139d9565b9052506000610d928b8287878787600180611d17565b6101615461016354604051631d1c6b8360e11b81526001600160a01b03918216600482015260248101849052929350600092911690633a38d7069060440160206040518083038186803b158015610de857600080fd5b505afa158015610dfc573d6000803e3d6000fd5b505050506040513d601f19601f82011682018060405250810190610e209190614017565b905080881115610f19576101615461016354604051632f66c82160e21b81526000926001600160a01b039081169263bd9b208492610e6892909116908690889060040161408b565b602060405180830381600087803b158015610e8257600080fd5b505af1158015610e96573d6000803e3d6000fd5b505050506040513d601f19601f82011682018060405250810190610eba9190614017565b9050610ec6818a614046565b87600081518110610ed957610ed9614075565b6020908102919091018101919091526001600160a01b038e16600090815261016590915260408120819055610f16908e9089898989600185611d17565b50505b505050505050505b5050505050565b600082815260976020526040902060010154610f4381611d06565b610f4d8383611d89565b505050565b610f5a611dab565b6001600160a01b0316816001600160a01b031614610fd25760405162461bcd60e51b815260206004820152602f60248201527f416363657373436f6e74726f6c3a2063616e206f6e6c792072656e6f756e636560448201526e103937b632b9903337b91039b2b63360891b6064820152608401610c3a565b610fdc8282611dba565b5050565b600080516020614650833981519152610ff881611d06565b6101945460405163582712b160e01b81526001600160a01b039091169063582712b19061102f908890889088908890600401614120565b600060405180830381600087803b15801561104957600080fd5b505af115801561105d573d6000803e3d6000fd5b505050505050505050565b600080611073611dab565b6001600160a01b0381166000908152610160602090815260409182902054915192935090916110cd916110b091859185918d918d918d910161418d565b604051602081830303815290604052805190602001208686611ddc565b60005b885181101561111c576110fe838a83815181106110ef576110ef614075565b60200260200101518a8a611e50565b611108908561405d565b935080611114816141c6565b9150506110d0565b5061112881600161405d565b6001600160a01b03909216600090815261016060205260409020919091555095945050505050565b600061115a611dab565b6001600160a01b0381166000908152610160602090815260409182902054915192935090916111b09161119391859185918a91016141e1565b604051602081830303815290604052805190602001208585611ddc565b6001600160a01b038216600090815261016560205260408120546111d4908761405d565b6001600160a01b03808516600090815261016560205260408120556101635491925061120291168483611e83565b61120d82600161405d565b6001600160a01b03909316600090815261016060205260409020929092555050505050565b61123a611dab565b6001600160a01b031661125661012d546001600160a01b031690565b6001600160a01b0316146112ac5760405162461bcd60e51b815260206004820181905260248201527f4f776e61626c653a2063616c6c6572206973206e6f7420746865206f776e65726044820152606401610c3a565b6112b66000611ed5565b565b6000806112c3611dab565b6001600160a01b038116600090815261016060209081526040918290205491516bffffffffffffffffffffffff19606085901b169181019190915260348101829052605481018990526074810188905291925090611323906094016110b0565b6101935460ff161561139f576101935460405163e629f7b360e01b81526101009091046001600160a01b03169063e629f7b3906113689085908b908b9060040161408b565b600060405180830381600087803b15801561138257600080fd5b505af1158015611396573d6000803e3d6000fd5b505050506113a4565b600092505b6113af81600161405d565b6001600160a01b039092166000908152610160602052604090209190915550949350505050565b6000806113e1611dab565b6001600160a01b03811660009081526101606020908152604091829020549151929350909161141a916110b091859185918b91016141e1565b6101935460ff16156114915761019354604051637bbef24360e11b81526001600160a01b0384811660048301526101009092049091169063f77de48690602401600060405180830381600087803b15801561147457600080fd5b505af1158015611488573d6000803e3d6000fd5b50505050611496565b600092505b6001600160a01b038216600090815261016560205260408120546114ba908861405d565b6001600160a01b0380851660009081526101656020526040812055610163549192506114e891168483611e83565b6114f382600161405d565b6001600160a01b03909316600090815261016060205260409020929092555090949350505050565b600061152960fb5460ff1690565b156115695760405162461bcd60e51b815260206004820152601060248201526f14185d5cd8589b194e881c185d5cd95960821b6044820152606401610c3a565b6000611573611dab565b6001600160a01b0381166000908152610160602090815260409182902054915192935090916115b2916110b091859185918e918e918e918e910161420b565b6000806000806115c58d8d8d6000611f28565b93509350935093505b8315611608576115e1868585858e612105565b6115eb908861405d565b96506115f98d8d8d84611f28565b929650909450925090506115ce565b61161385600161405d565b6001600160a01b039096166000908152610160602052604090209590955550939a9950505050505050505050565b600082815260c96020526040812061165990836122f2565b9392505050565b60008061166b611dab565b6001600160a01b03811660009081526101606020908152604091829020549151929350909161139f916110b091859185918c918c910161427e565b60009182526097602090815260408084206001600160a01b0393909316845291905290205460ff1690565b6000805160206146508339815191526116e981611d06565b61019354604051632bcf68bd60e21b81526001600160a01b038581166004830152602482018590526101009092049091169063af3da2f490604401600060405180830381600087803b15801561173e57600080fd5b505af1158015611752573d6000803e3d6000fd5b50505050505050565b600080611767856109ad565b90506001600160a01b0386163b156117c3576117bb86828787878080601f0160208091040260200160405190810160405280939291908181526020018383808284376000920191909152506122fe92505050565b9150506118d2565b600080600061180787878080601f0160208091040260200160405190810160405280939291908181526020018383808284376000920182905250925061239a915050565b6040517f19457468657265756d205369676e6564204d6573736167653a0a3332000000006020820152603c81018890529295509093509150600090605c0160408051601f198184030181528282528051602091820120600080855291840180845281905260ff88169284019290925260608301869052608083018590529092509060019060a0016020604051602081039080840390855afa1580156118b0573d6000803e3d6000fd5b5050604051601f1901516001600160a01b038d81169116149750505050505050505b949350505050565b600081815260c9602052604081206109a7906123b8565b6000806118fc611dab565b6001600160a01b038116600090815261016060209081526040918290205491519293509091611935916110b091859185918b91016142e1565b6000925061194481600161405d565b6001600160a01b0390921660009081526101606020526040902091909155509392505050565b60008281526097602052604090206001015461198581611d06565b610f4d8383611dba565b600061199d60fb5460ff1690565b156119dd5760405162461bcd60e51b815260206004820152601060248201526f14185d5cd8589b194e881c185d5cd95960821b6044820152606401610c3a565b60006119e7611dab565b6001600160a01b038116600090815261016060209081526040918290205491519293509091611a20916110b091859185918b91016141e1565b6101935460ff16156119355761019354604051632bcf68bd60e21b81526001600160a01b038481166004830152602482018990526101009092049091169063af3da2f490604401600060405180830381600087803b158015611a8157600080fd5b505af1158015611a95573d6000803e3d6000fd5b5050505061194481600161405d565b600080516020614650833981519152611abc81611d06565b6101935460405163e629f7b360e01b81526101009091046001600160a01b03169063e629f7b390611af59087908790879060040161408b565b600060405180830381600087803b158015611b0f57600080fd5b505af1158015611b23573d6000803e3d6000fd5b5050505050505050565b600080516020614650833981519152611b4581611d06565b61019454611b5e906001600160a01b03168585856123c2565b50505050565b611b6c611dab565b6001600160a01b0316611b8861012d546001600160a01b031690565b6001600160a01b031614611bde5760405162461bcd60e51b815260206004820181905260248201527f4f776e61626c653a2063616c6c6572206973206e6f7420746865206f776e65726044820152606401610c3a565b6001600160a01b038116611c435760405162461bcd60e51b815260206004820152602660248201527f4f776e61626c653a206e6577206f776e657220697320746865207a65726f206160448201526564647265737360d01b6064820152608401610c3a565b611c4c81611ed5565b50565b600080516020614650833981519152611c6781611d06565b61019354604051637bbef24360e11b81526001600160a01b0384811660048301526101009092049091169063f77de48690602401600060405180830381600087803b158015611cb557600080fd5b505af1158015611cc9573d6000803e3d6000fd5b505050505050565b60006001600160e01b03198216637965db0b60e01b14806109a757506301ffc9a760e01b6001600160e01b03198316146109a7565b611c4c81611d12611dab565b612561565b6000806000806000806000611d2f8d8d8d8d8d6125c5565b949a5092985090965094509250905087158015611d4d575060008651115b15611d5f57611d5f8f8f888888612a73565b825115611d7757611d748f8f8585858d612bb4565b96505b50505050505098975050505050505050565b611d938282612e6a565b600082815260c960205260409020610f4d9082612ef1565b6000611db5612f06565b905090565b611dc48282612f3a565b600082815260c960205260409020610f4d9082612fbf565b61015f546040805160208101869052611e10926001600160a01b03169101604051602081830303815290604052848461175b565b610f4d5760405162461bcd60e51b8152602060048201526011602482015270496e76616c6964207369676e617475726560781b6044820152606401610c3a565b600046841415611e785761019454611e73906001600160a01b03168685856123c2565b6118d2565b506000949350505050565b604080516001600160a01b038416602482015260448082018490528251808303909101815260649091019091526020810180516001600160e01b031663a9059cbb60e01b179052610f4d908490612fd4565b61012d80546001600160a01b038381166001600160a01b0319831681179093556040519116919082907f8be0079c531659141344cd1fd0a4f28419497f9722a3daafe3b4186f6b6457e090600090a35050565b83516000906060908190839081865b82811015611faa5786611f65578a8181518110611f5657611f56614075565b60200260200101519650611f8a565b8a8181518110611f7757611f77614075565b60200260200101518714611f8a57611faa565b81611f94816141c6565b9250508080611fa2906141c6565b915050611f37565b50611fb5818861405d565b925080156120f857806001600160401b03811115611fd557611fd5613823565b604051908082528060200260200182016040528015611ffe578160200160208202803683370190505b509450806001600160401b0381111561201957612019613823565b604051908082528060200260200182016040528015612042578160200160208202803683370190505b50935060009050865b838110156120f65789818151811061206557612065614075565b602002602001015186838151811061207f5761207f614075565b60200260200101906001600160a01b031690816001600160a01b0316815250508881815181106120b1576120b1614075565b60200260200101518583815181106120cb576120cb614075565b6020908102919091010152816120e0816141c6565b92505080806120ee906141c6565b91505061204b565b505b5050945094509450949050565b6000468514156122e5576001600160a01b0386166000908152610165602052604081205490805b855181101561216e5785818151811061214757612147614075565b60200260200101518261215a919061405d565b915080612166816141c6565b91505061212c565b50610163546040805163313ce56760e01b815290516006926001600160a01b03169163313ce567916004808301926020929190829003018186803b1580156121b557600080fd5b505afa1580156121c9573d6000803e3d6000fd5b505050506040513d601f19601f820116820180604052508101906121ed9190614306565b6121f79190614329565b61220290600a614430565b61220c908261443f565b9050808210156122555760405162461bcd60e51b8152602060048201526014602482015273496e73756666696369656e742062616c616e636560601b6044820152606401610c3a565b61225f8183614046565b6001600160a01b03808a1660009081526101656020526040908190209290925561019454915163582712b160e01b815291169063582712b1906122ac908b908a908a908a90600401614120565b600060405180830381600087803b1580156122c657600080fd5b505af11580156122da573d6000803e3d6000fd5b5050505050506122e9565b5060005b95945050505050565b600061165983836130a6565b600080856001600160a01b031663e75235b86040518163ffffffff1660e01b815260040160206040518083038186803b15801561233a57600080fd5b505afa15801561234e573d6000803e3d6000fd5b505050506040513d601f19601f820116820180604052508101906123729190614017565b9050806123835760009150506118d2565b61239086868686856130d0565b9695505050505050565b60419081029190910160208101516040820151919092015160ff1692565b60006109a7825490565b610163546040516370a0823160e01b81523060048201526000916001600160a01b0316906370a082319060240160206040518083038186803b15801561240757600080fd5b505afa15801561241b573d6000803e3d6000fd5b505050506040513d601f19601f8201168201806040525081019061243f9190614017565b6040516374f40d3560e11b81529091506001600160a01b0386169063e9e81a6a906124729087908790879060040161408b565b600060405180830381600087803b15801561248c57600080fd5b505af11580156124a0573d6000803e3d6000fd5b5050610163546040516370a0823160e01b81523060048201528493506001600160a01b0390911691506370a082319060240160206040518083038186803b1580156124ea57600080fd5b505afa1580156124fe573d6000803e3d6000fd5b505050506040513d601f19601f820116820180604052508101906125229190614017565b61252c9190614046565b6001600160a01b038516600090815261016560205260408120805490919061255590849061405d565b90915550505050505050565b61256b82826116a6565b610fdc57612583816001600160a01b0316601461332a565b61258e83602061332a565b60405160200161259f92919061445e565b60408051601f198184030181529082905262461bcd60e51b8252610c3a91600401613a4c565b60608060608060608060008060005b898110156126745760018b82815181106125f0576125f0614075565b60200260200101516001811115612609576126096139d9565b14156126215782612619816141c6565b935050612662565b60008b828151811061263557612635614075565b6020026020010151600181111561264e5761264e6139d9565b1415612662578161265e816141c6565b9250505b8061266c816141c6565b9150506125d4565b50816001600160401b0381111561268d5761268d613823565b6040519080825280602002602001820160405280156126b6578160200160208202803683370190505b509750816001600160401b038111156126d1576126d1613823565b6040519080825280602002602001820160405280156126fa578160200160208202803683370190505b509650816001600160401b0381111561271557612715613823565b60405190808252806020026020018201604052801561273e578160200160208202803683370190505b509550806001600160401b0381111561275957612759613823565b604051908082528060200260200182016040528015612782578160200160208202803683370190505b509450806001600160401b0381111561279d5761279d613823565b6040519080825280602002602001820160405280156127c6578160200160208202803683370190505b509350806001600160401b038111156127e1576127e1613823565b60405190808252806020026020018201604052801561280a578160200160208202803683370190505b509250600091506000905060005b89811015612a635760018b828151811061283457612834614075565b6020026020010151600181111561284d5761284d6139d9565b1415612919578d818151811061286557612865614075565b602002602001015189848151811061287f5761287f614075565b6020026020010181815250508c818151811061289d5761289d614075565b60200260200101518884815181106128b7576128b7614075565b6020026020010181815250508b81815181106128d5576128d5614075565b60200260200101518784815181106128ef576128ef614075565b6001600160a01b039092166020928302919091019091015282612911816141c6565b935050612a51565b60008b828151811061292d5761292d614075565b60200260200101516001811115612946576129466139d9565b1415612a12578d818151811061295e5761295e614075565b602002602001015186838151811061297857612978614075565b6020026020010181815250508c818151811061299657612996614075565b60200260200101518583815181106129b0576129b0614075565b6020026020010181815250508b81815181106129ce576129ce614075565b60200260200101518483815181106129e8576129e8614075565b6001600160a01b039092166020928302919091019091015281612a0a816141c6565b925050612a51565b60405162461bcd60e51b8152602060048201526014602482015273496e76616c69642061646170746572207479706560601b6044820152606401610c3a565b80612a5b816141c6565b915050612818565b5050509550955095509550955095565b8251610166546040516319684c2d60e21b81526001600160a01b03909116906365a130b490612aac9088908890889088906004016144d3565b600060405180830381600087803b158015612ac657600080fd5b505af1158015612ada573d6000803e3d6000fd5b505050506000612ae74690565b905060005b82811015611b2357848181518110612b0657612b06614075565b6020026020010151868281518110612b2057612b20614075565b6020026020010151896001600160a01b03167f3ba03e6b4cb24f75ab77e3b8fb7ea0a24af301c15f5fb5709dd68c396048881561016360009054906101000a90046001600160a01b031686898781518110612b7d57612b7d614075565b602002602001015160016000604051612b9a95949392919061451b565b60405180910390a480612bac816141c6565b915050612aec565b600080855190508061016760009054906101000a90046001600160a01b03166001600160a01b0316633b11ca516040518163ffffffff1660e01b815260040160206040518083038186803b158015612c0b57600080fd5b505afa158015612c1f573d6000803e3d6000fd5b505050506040513d601f19601f82011682018060405250810190612c439190614017565b612c4d919061443f565b915082158015612c5d5750814710155b15612e5f57610167546040805163057ff68760e51b815290516000926001600160a01b03169163affed0e0916004808301926020929190829003018186803b158015612ca857600080fd5b505afa158015612cbc573d6000803e3d6000fd5b505050506040513d601f19601f82011682018060405250810190612ce09190614017565b610167546040516319684c2d60e21b81529192506001600160a01b0316906365a130b4908590612d1a908c908c908c908c906004016144d3565b6000604051808303818588803b158015612d3357600080fd5b505af1158015612d47573d6000803e3d6000fd5b50505050506000612d554690565b905060005b83811015612e5b576000612d6e828561405d565b60008181526101686020526040902080546001600160a01b0319166001600160a01b038f161790558951909150899083908110612dad57612dad614075565b60200260200101518a8381518110612dc757612dc7614075565b60200260200101518d6001600160a01b03167f3ba03e6b4cb24f75ab77e3b8fb7ea0a24af301c15f5fb5709dd68c396048881561016360009054906101000a90046001600160a01b0316878d8881518110612e2457612e24614075565b6020026020010151600088604051612e4095949392919061451b565b60405180910390a45080612e53816141c6565b915050612d5a565b5050505b509695505050505050565b612e7482826116a6565b610fdc5760008281526097602090815260408083206001600160a01b03851684529091529020805460ff19166001179055612ead611dab565b6001600160a01b0316816001600160a01b0316837f2f8788117e7eff1d82e926ec794901d17c78024a50270940304540a733656f0d60405160405180910390a45050565b6000611659836001600160a01b0384166134c5565b600060183610801590612f2357506000546001600160a01b031633145b15612f35575060131936013560601c90565b503390565b612f4482826116a6565b15610fdc5760008281526097602090815260408083206001600160a01b03851684529091529020805460ff19169055612f7b611dab565b6001600160a01b0316816001600160a01b0316837ff6391f5c32d9c69d2a47ea670b442974b53935d1edc7fd64eb21e047a839171b60405160405180910390a45050565b6000611659836001600160a01b038416613514565b6000613029826040518060400160405280602081526020017f5361666545524332303a206c6f772d6c6576656c2063616c6c206661696c6564815250856001600160a01b03166136079092919063ffffffff16565b805190915015610f4d57808060200190518101906130479190614556565b610f4d5760405162461bcd60e51b815260206004820152602a60248201527f5361666545524332303a204552433230206f7065726174696f6e20646964206e6044820152691bdd081cdd58d8d9595960b21b6064820152608401610c3a565b60008260000182815481106130bd576130bd614075565b9060005260206000200154905092915050565b60006130dd82604161443f565b835110156130ed575060006122e9565b600080876001600160a01b031663a0e67e2b6040518163ffffffff1660e01b815260040160006040518083038186803b15801561312957600080fd5b505afa15801561313d573d6000803e3d6000fd5b505050506040513d6000823e601f3d908101601f191682016040526131659190810190614578565b905060008080805b878110156133185760418181028a0160208101516040820151919092015160ff1695509093509150836132485791945084916131aa88604161443f565b8210156131c057600096505050505050506122e9565b88516131cd83602061405d565b11156131e257600096505050505050506122e9565b6020828a018101518a51909182906131fb90869061405d565b613205919061405d565b111561321b5760009750505050505050506122e9565b89830160200161322c888d83613616565b613241576000985050505050505050506122e9565b50506132e9565b6040517f19457468657265756d205369676e6564204d6573736167653a0a3332000000006020820152603c81018c9052600190605c0160408051601f198184030181528282528051602091820120600084529083018083525260ff871690820152606081018590526080810184905260a0016020604051602081039080840390855afa1580156132dc573d6000803e3d6000fd5b5050506020604051035195505b6132f38587613630565b61330657600096505050505050506122e9565b80613310816141c6565b91505061316d565b5060019b9a5050505050505050505050565b6060600061333983600261443f565b61334490600261405d565b6001600160401b0381111561335b5761335b613823565b6040519080825280601f01601f191660200182016040528015613385576020820181803683370190505b509050600360fc1b816000815181106133a0576133a0614075565b60200101906001600160f81b031916908160001a905350600f60fb1b816001815181106133cf576133cf614075565b60200101906001600160f81b031916908160001a90535060006133f384600261443f565b6133fe90600161405d565b90505b6001811115613476576f181899199a1a9b1b9c1cb0b131b232b360811b85600f166010811061343257613432614075565b1a60f81b82828151811061344857613448614075565b60200101906001600160f81b031916908160001a90535060049490941c9361346f81614606565b9050613401565b5083156116595760405162461bcd60e51b815260206004820181905260248201527f537472696e67733a20686578206c656e67746820696e73756666696369656e746044820152606401610c3a565b600081815260018301602052604081205461350c575081546001818101845560008481526020808220909301849055845484825282860190935260409020919091556109a7565b5060006109a7565b600081815260018301602052604081205480156135fd576000613538600183614046565b855490915060009061354c90600190614046565b90508181146135b157600086600001828154811061356c5761356c614075565b906000526020600020015490508087600001848154811061358f5761358f614075565b6000918252602080832090910192909255918252600188019052604090208390555b85548690806135c2576135c261461d565b6001900381819060005260206000200160009055905585600101600086815260200190815260200160002060009055600193505050506109a7565b60009150506109a7565b60606118d2848460008561368f565b600080613622846109ad565b90506122e9858286866122fe565b8151600090815b81811015611e7857836001600160a01b031685828151811061365b5761365b614075565b60200260200101516001600160a01b0316141561367d576001925050506109a7565b80613687816141c6565b915050613637565b6060824710156136f05760405162461bcd60e51b815260206004820152602660248201527f416464726573733a20696e73756666696369656e742062616c616e636520666f6044820152651c8818d85b1b60d21b6064820152608401610c3a565b6001600160a01b0385163b6137475760405162461bcd60e51b815260206004820152601d60248201527f416464726573733a2063616c6c20746f206e6f6e2d636f6e74726163740000006044820152606401610c3a565b600080866001600160a01b031685876040516137639190614633565b60006040518083038185875af1925050503d80600081146137a0576040519150601f19603f3d011682016040523d82523d6000602084013e6137a5565b606091505b50915091506137b58282866137c0565b979650505050505050565b606083156137cf575081611659565b8251156137df5782518084602001fd5b8160405162461bcd60e51b8152600401610c3a9190613a4c565b60006020828403121561380b57600080fd5b81356001600160e01b03198116811461165957600080fd5b634e487b7160e01b600052604160045260246000fd5b604051601f8201601f191681016001600160401b038111828210171561386157613861613823565b604052919050565b600082601f83011261387a57600080fd5b81356001600160401b0381111561389357613893613823565b6138a6601f8201601f1916602001613839565b8181528460208386010111156138bb57600080fd5b816020850160208301376000918101602001919091529392505050565b6000602082840312156138ea57600080fd5b81356001600160401b0381111561390057600080fd5b6118d284828501613869565b60006020828403121561391e57600080fd5b5035919050565b6001600160a01b0381168114611c4c57600080fd5b60006020828403121561394c57600080fd5b813561165981613925565b80356002811061396657600080fd5b919050565b60008060006060848603121561398057600080fd5b833561398b81613925565b9250602084013591506139a060408501613957565b90509250925092565b600080604083850312156139bc57600080fd5b8235915060208301356139ce81613925565b809150509250929050565b634e487b7160e01b600052602160045260246000fd5b60028110611c4c57634e487b7160e01b600052602160045260246000fd5b60208101613a1a836139ef565b91905290565b60005b83811015613a3b578181015183820152602001613a23565b83811115611b5e5750506000910152565b6020815260008251806020840152613a6b816040850160208701613a20565b601f01601f19169190910160400192915050565b60006001600160401b03821115613a9857613a98613823565b5060051b60200190565b600082601f830112613ab357600080fd5b81356020613ac8613ac383613a7f565b613839565b82815260059290921b84018101918181019086841115613ae757600080fd5b8286015b84811015612e5f578035613afe81613925565b8352918301918301613aeb565b600082601f830112613b1c57600080fd5b81356020613b2c613ac383613a7f565b82815260059290921b84018101918181019086841115613b4b57600080fd5b8286015b84811015612e5f5780358352918301918301613b4f565b60008060008060808587031215613b7c57600080fd5b8435613b8781613925565b935060208501356001600160401b0380821115613ba357600080fd5b613baf88838901613aa2565b94506040870135915080821115613bc557600080fd5b50613bd287828801613b0b565b949793965093946060013593505050565b60008083601f840112613bf557600080fd5b5081356001600160401b03811115613c0c57600080fd5b602083019150836020828501011115613c2457600080fd5b9250929050565b600080600080600060808688031215613c4357600080fd5b85356001600160401b0380821115613c5a57600080fd5b613c6689838a01613b0b565b965060208801359550604088013594506060880135915080821115613c8a57600080fd5b50613c9788828901613be3565b969995985093965092949392505050565b600080600060408486031215613cbd57600080fd5b8335925060208401356001600160401b03811115613cda57600080fd5b613ce686828701613be3565b9497909650939450505050565b60008060008060608587031215613d0957600080fd5b843593506020850135925060408501356001600160401b03811115613d2d57600080fd5b613d3987828801613be3565b95989497509550505050565b60008060008060008060a08789031215613d5e57600080fd5b86356001600160401b0380821115613d7557600080fd5b613d818a838b01613b0b565b97506020890135915080821115613d9757600080fd5b613da38a838b01613aa2565b96506040890135915080821115613db957600080fd5b613dc58a838b01613b0b565b9550606089013594506080890135915080821115613de257600080fd5b50613def89828a01613be3565b979a9699509497509295939492505050565b60008060408385031215613e1457600080fd5b50508035926020909101359150565b60008060008060608587031215613e3957600080fd5b84356001600160401b0380821115613e5057600080fd5b613e5c88838901613b0b565b9550602091508187013581811115613e7357600080fd5b8701601f81018913613e8457600080fd5b8035613e92613ac382613a7f565b81815260059190911b8201840190848101908b831115613eb157600080fd5b928501925b82841015613ed657613ec784613957565b82529285019290850190613eb6565b97505050506040870135915080821115613eef57600080fd5b50613d3987828801613be3565b60008060408385031215613f0f57600080fd5b8235613f1a81613925565b946020939093013593505050565b60008060008060608587031215613f3e57600080fd5b8435613f4981613925565b935060208501356001600160401b0380821115613f6557600080fd5b613f7188838901613869565b94506040870135915080821115613eef57600080fd5b600080600060408486031215613f9c57600080fd5b83356001600160401b0380821115613fb357600080fd5b613fbf87838801613b0b565b94506020860135915080821115613fd557600080fd5b50613ce686828701613be3565b600080600060608486031215613ff757600080fd5b833561400281613925565b95602085013595506040909401359392505050565b60006020828403121561402957600080fd5b5051919050565b634e487b7160e01b600052601160045260246000fd5b60008282101561405857614058614030565b500390565b6000821982111561407057614070614030565b500190565b634e487b7160e01b600052603260045260246000fd5b6001600160a01b039390931683526020830191909152604082015260600190565b600081518084526020808501945080840160005b838110156140e55781516001600160a01b0316875295820195908201906001016140c0565b509495945050505050565b600081518084526020808501945080840160005b838110156140e557815187529582019590820190600101614104565b6001600160a01b0385168152608060208201819052600090614144908301866140ac565b828103604084015261415681866140f0565b91505082606083015295945050505050565b805160009060208084018383156140e557815187529582019590820190600101614104565b6001600160601b03198660601b16815284601482015260006141b26034830186614168565b938452505060208201526040019392505050565b60006000198214156141da576141da614030565b5060010190565b60609390931b6bffffffffffffffffffffffff191683526014830191909152603482015260540190565b6001600160601b03198760601b16815285601482015260006142306034830187614168565b8551602080880160005b8381101561425f5781516001600160a01b03168552938201939082019060010161423a565b505061426b8388614168565b9586529094019998505050505050505050565b6001600160601b03198560601b16815283601482015260006142a36034830185614168565b8351602080860160005b838110156142d25781516142c0816139ef565b855293820193908201906001016142ad565b50929998505050505050505050565b6001600160601b03198460601b16815282601482015260006122e96034830184614168565b60006020828403121561431857600080fd5b815160ff8116811461165957600080fd5b600060ff821660ff84168082101561434357614343614030565b90039392505050565b600181815b8085111561438757816000190482111561436d5761436d614030565b8085161561437a57918102915b93841c9390800290614351565b509250929050565b60008261439e575060016109a7565b816143ab575060006109a7565b81600181146143c157600281146143cb576143e7565b60019150506109a7565b60ff8411156143dc576143dc614030565b50506001821b6109a7565b5060208310610133831016604e8410600b841016171561440a575081810a6109a7565b614414838361434c565b806000190482111561442857614428614030565b029392505050565b600061165960ff84168361438f565b600081600019048311821515161561445957614459614030565b500290565b7f416363657373436f6e74726f6c3a206163636f756e7420000000000000000000815260008351614496816017850160208801613a20565b7001034b99036b4b9b9b4b733903937b6329607d1b60179184019182015283516144c7816028840160208801613a20565b01602801949350505050565b6144dc856139ef565b8481526080602082015260006144f560808301866140f0565b828103604084015261450781866140f0565b905082810360608401526137b581856140ac565b6001600160a01b038681168252602082018690528416604082015260a08101614543846139ef565b6060820193909352608001529392505050565b60006020828403121561456857600080fd5b8151801515811461165957600080fd5b6000602080838503121561458b57600080fd5b82516001600160401b038111156145a157600080fd5b8301601f810185136145b257600080fd5b80516145c0613ac382613a7f565b81815260059190911b820183019083810190878311156145df57600080fd5b928401925b828410156137b55783516145f781613925565b825292840192908401906145e4565b60008161461557614615614030565b506000190190565b634e487b7160e01b600052603160045260246000fd5b60008251614645818460208701613a20565b919091019291505056fedbeb657137b1822b3d5418bea6fd641226d964b4c3871ef23546db2622258871a2646970667358221220e067a720665bbb4458cb53970ed8e8557455c7af857e5abbe7018c3e9ba625b364736f6c63430008090033",
  "devdoc": {
    "kind": "dev",
    "methods": {
      "burn(uint256,uint256,bytes)": {
        "details": "It calls burnByAdmin of STIMinter.",
        "params": {
          "_pool": "total pool in USD",
          "_share": "amount of shares"
        }
      },
      "claim(uint256[],bytes)": {
        "details": "It calls claimByAgent of STIVaults."
      },
      "deposit(uint256[],address[],uint256[],uint256,bytes)": {
        "details": "It calls depositByAgent of STIVaults."
      },
      "exitWithdrawal(uint256,bytes)": {
        "details": "It calls exitWithdrawalByAdmin of STIMinter.",
        "params": {
          "_gatheredAmount": "is the amount of token that is gathered."
        }
      },
      "gather(uint256[],uint8[],bytes)": {
        "details": "It gathers withdrawn tokens of the user from user agents."
      },
      "getMessageHashForSafe(bytes)": {
        "details": "Returns hash of a message that can be signed by owners.",
        "params": {
          "message": "Message that should be hashed"
        },
        "returns": {
          "_0": "Message hash."
        }
      },
      "getRoleAdmin(bytes32)": {
        "details": "Returns the admin role that controls `role`. See {grantRole} and {revokeRole}. To change a role's admin, use {_setRoleAdmin}."
      },
      "getRoleMember(bytes32,uint256)": {
        "details": "Returns one of the accounts that have `role`. `index` must be a value between 0 and {getRoleMemberCount}, non-inclusive. Role bearers are not sorted in any particular way, and their ordering may change at any point. WARNING: When using {getRoleMember} and {getRoleMemberCount}, make sure you perform all queries on the same block. See the following https://forum.openzeppelin.com/t/iterating-over-elements-on-enumerableset-in-openzeppelin-contracts/2296[forum post] for more information."
      },
      "getRoleMemberCount(bytes32)": {
        "details": "Returns the number of accounts that have `role`. Can be used together with {getRoleMember} to enumerate all bearers of a role."
      },
      "grantRole(bytes32,address)": {
        "details": "Grants `role` to `account`. If `account` had not been already granted `role`, emits a {RoleGranted} event. Requirements: - the caller must have ``role``'s admin role."
      },
      "hasRole(bytes32,address)": {
        "details": "Returns `true` if `account` has been granted `role`."
      },
      "mint(uint256,bytes)": {
        "details": "It calls mintByAdmin of STIMinter."
      },
      "owner()": {
        "details": "Returns the address of the current owner."
      },
      "paused()": {
        "details": "Returns true if the contract is paused, and false otherwise."
      },
      "renounceOwnership()": {
        "details": "Leaves the contract without owner. It will not be possible to call `onlyOwner` functions anymore. Can only be called by the current owner. NOTE: Renouncing ownership will leave the contract without an owner, thereby removing any functionality that is only available to the owner."
      },
      "renounceRole(bytes32,address)": {
        "details": "Revokes `role` from the calling account. Roles are often managed via {grantRole} and {revokeRole}: this function's purpose is to provide a mechanism for accounts to lose their privileges if they are compromised (such as when a trusted device is misplaced). If the calling account had been revoked `role`, emits a {RoleRevoked} event. Requirements: - the caller must be `account`."
      },
      "revokeRole(bytes32,address)": {
        "details": "Revokes `role` from `account`. If `account` had been granted `role`, emits a {RoleRevoked} event. Requirements: - the caller must have ``role``'s admin role."
      },
      "supportsInterface(bytes4)": {
        "details": "See {IERC165-supportsInterface}."
      },
      "takeOut(uint256,bytes)": {
        "details": "It takes out tokens from this agent.",
        "params": {
          "_gatheredAmount": "is the amount of token that is gathered."
        }
      },
      "transferOwnership(address)": {
        "details": "Transfers ownership of the contract to a new account (`newOwner`). Can only be called by the current owner."
      },
      "withdraw(uint256[],uint256,uint256,bytes)": {
        "details": "It calls withdrawPercByAgent of STIVaults."
      }
    },
    "version": 1
  },
  "userdoc": {
    "kind": "user",
    "methods": {
      "exitWithdrawal(uint256,bytes)": {
        "notice": "_gatheredAmount doesn't include the balance which is withdrawan in this agent."
      },
      "isTrustedForwarder(address)": {
        "notice": "return if the forwarder is trusted to forward relayed transactions to us. the forwarder is required to verify the sender's signature, and verify the call is not a replay."
      },
      "takeOut(uint256,bytes)": {
        "notice": "_gatheredAmount doesn't include the balance which is withdrawan in this agent."
      }
    },
    "version": 1
  },
  "storageLayout": {
    "storage": [
      {
        "astId": 65960,
        "contract": "contracts/xchain/agent/STIUserAgentSubTest.sol:STIUserAgentSubTest",
        "label": "trustedForwarder",
        "offset": 0,
        "slot": "0",
        "type": "t_address"
      },
      {
        "astId": 713,
        "contract": "contracts/xchain/agent/STIUserAgentSubTest.sol:STIUserAgentSubTest",
        "label": "_initialized",
        "offset": 20,
        "slot": "0",
        "type": "t_uint8"
      },
      {
        "astId": 716,
        "contract": "contracts/xchain/agent/STIUserAgentSubTest.sol:STIUserAgentSubTest",
        "label": "_initializing",
        "offset": 21,
        "slot": "0",
        "type": "t_bool"
      },
      {
        "astId": 66475,
        "contract": "contracts/xchain/agent/STIUserAgentSubTest.sol:STIUserAgentSubTest",
        "label": "separator",
        "offset": 0,
        "slot": "1",
        "type": "t_bytes32"
      },
      {
        "astId": 66892,
        "contract": "contracts/xchain/agent/STIUserAgentSubTest.sol:STIUserAgentSubTest",
        "label": "__gap",
        "offset": 0,
        "slot": "2",
        "type": "t_array(t_uint256)49_storage"
      },
      {
        "astId": 3292,
        "contract": "contracts/xchain/agent/STIUserAgentSubTest.sol:STIUserAgentSubTest",
        "label": "__gap",
        "offset": 0,
        "slot": "51",
        "type": "t_array(t_uint256)50_storage"
      },
      {
        "astId": 3946,
        "contract": "contracts/xchain/agent/STIUserAgentSubTest.sol:STIUserAgentSubTest",
        "label": "__gap",
        "offset": 0,
        "slot": "101",
        "type": "t_array(t_uint256)50_storage"
      },
      {
        "astId": 184,
        "contract": "contracts/xchain/agent/STIUserAgentSubTest.sol:STIUserAgentSubTest",
        "label": "_roles",
        "offset": 0,
        "slot": "151",
        "type": "t_mapping(t_bytes32,t_struct(RoleData)179_storage)"
      },
      {
        "astId": 483,
        "contract": "contracts/xchain/agent/STIUserAgentSubTest.sol:STIUserAgentSubTest",
        "label": "__gap",
        "offset": 0,
        "slot": "152",
        "type": "t_array(t_uint256)49_storage"
      },
      {
        "astId": 33,
        "contract": "contracts/xchain/agent/STIUserAgentSubTest.sol:STIUserAgentSubTest",
        "label": "_roleMembers",
        "offset": 0,
        "slot": "201",
        "type": "t_mapping(t_bytes32,t_struct(AddressSet)4359_storage)"
      },
      {
        "astId": 143,
        "contract": "contracts/xchain/agent/STIUserAgentSubTest.sol:STIUserAgentSubTest",
        "label": "__gap",
        "offset": 0,
        "slot": "202",
        "type": "t_array(t_uint256)49_storage"
      },
      {
        "astId": 869,
        "contract": "contracts/xchain/agent/STIUserAgentSubTest.sol:STIUserAgentSubTest",
        "label": "_paused",
        "offset": 0,
        "slot": "251",
        "type": "t_bool"
      },
      {
        "astId": 958,
        "contract": "contracts/xchain/agent/STIUserAgentSubTest.sol:STIUserAgentSubTest",
        "label": "__gap",
        "offset": 0,
        "slot": "252",
        "type": "t_array(t_uint256)49_storage"
      },
      {
        "astId": 593,
        "contract": "contracts/xchain/agent/STIUserAgentSubTest.sol:STIUserAgentSubTest",
        "label": "_owner",
        "offset": 0,
        "slot": "301",
        "type": "t_address"
      },
      {
        "astId": 705,
        "contract": "contracts/xchain/agent/STIUserAgentSubTest.sol:STIUserAgentSubTest",
        "label": "__gap",
        "offset": 0,
        "slot": "302",
        "type": "t_array(t_uint256)49_storage"
      },
      {
        "astId": 59413,
        "contract": "contracts/xchain/agent/STIUserAgentSubTest.sol:STIUserAgentSubTest",
        "label": "admin",
        "offset": 0,
        "slot": "351",
        "type": "t_address"
      },
      {
        "astId": 59417,
        "contract": "contracts/xchain/agent/STIUserAgentSubTest.sol:STIUserAgentSubTest",
        "label": "nonces",
        "offset": 0,
        "slot": "352",
        "type": "t_mapping(t_address,t_uint256)"
      },
      {
        "astId": 59420,
        "contract": "contracts/xchain/agent/STIUserAgentSubTest.sol:STIUserAgentSubTest",
        "label": "swap",
        "offset": 0,
        "slot": "353",
        "type": "t_contract(ISwap)55907"
      },
      {
        "astId": 59423,
        "contract": "contracts/xchain/agent/STIUserAgentSubTest.sol:STIUserAgentSubTest",
        "label": "USDC",
        "offset": 0,
        "slot": "354",
        "type": "t_contract(IERC20Upgradeable)1707"
      },
      {
        "astId": 59426,
        "contract": "contracts/xchain/agent/STIUserAgentSubTest.sol:STIUserAgentSubTest",
        "label": "USDT",
        "offset": 0,
        "slot": "355",
        "type": "t_contract(IERC20Upgradeable)1707"
      },
      {
        "astId": 59430,
        "contract": "contracts/xchain/agent/STIUserAgentSubTest.sol:STIUserAgentSubTest",
        "label": "usdcBalances",
        "offset": 0,
        "slot": "356",
        "type": "t_mapping(t_address,t_uint256)"
      },
      {
        "astId": 59434,
        "contract": "contracts/xchain/agent/STIUserAgentSubTest.sol:STIUserAgentSubTest",
        "label": "usdtBalances",
        "offset": 0,
        "slot": "357",
        "type": "t_mapping(t_address,t_uint256)"
      },
      {
        "astId": 59437,
        "contract": "contracts/xchain/agent/STIUserAgentSubTest.sol:STIUserAgentSubTest",
        "label": "multichainAdapter",
        "offset": 0,
        "slot": "358",
        "type": "t_contract(IXChainAdapter)56214"
      },
      {
        "astId": 59440,
        "contract": "contracts/xchain/agent/STIUserAgentSubTest.sol:STIUserAgentSubTest",
        "label": "cbridgeAdapter",
        "offset": 0,
        "slot": "359",
        "type": "t_contract(IXChainAdapter)56214"
      },
      {
        "astId": 59444,
        "contract": "contracts/xchain/agent/STIUserAgentSubTest.sol:STIUserAgentSubTest",
        "label": "cbridgeSenders",
        "offset": 0,
        "slot": "360",
        "type": "t_mapping(t_uint256,t_address)"
      },
      {
        "astId": 59448,
        "contract": "contracts/xchain/agent/STIUserAgentSubTest.sol:STIUserAgentSubTest",
        "label": "userAgents",
        "offset": 0,
        "slot": "361",
        "type": "t_mapping(t_uint256,t_address)"
      },
      {
        "astId": 59453,
        "contract": "contracts/xchain/agent/STIUserAgentSubTest.sol:STIUserAgentSubTest",
        "label": "callAdapterTypes",
        "offset": 0,
        "slot": "362",
        "type": "t_mapping(t_uint256,t_enum(AdapterType)59406)"
      },
      {
        "astId": 60098,
        "contract": "contracts/xchain/agent/STIUserAgentSubTest.sol:STIUserAgentSubTest",
        "label": "__gap",
        "offset": 0,
        "slot": "363",
        "type": "t_array(t_uint256)39_storage"
      },
      {
        "astId": 61047,
        "contract": "contracts/xchain/agent/STIUserAgentSubTest.sol:STIUserAgentSubTest",
        "label": "chainIdOnLP",
        "offset": 0,
        "slot": "402",
        "type": "t_uint256"
      },
      {
        "astId": 61049,
        "contract": "contracts/xchain/agent/STIUserAgentSubTest.sol:STIUserAgentSubTest",
        "label": "isLPChain",
        "offset": 0,
        "slot": "403",
        "type": "t_bool"
      },
      {
        "astId": 61052,
        "contract": "contracts/xchain/agent/STIUserAgentSubTest.sol:STIUserAgentSubTest",
        "label": "stiMinter",
        "offset": 1,
        "slot": "403",
        "type": "t_contract(ISTIMinter)44045"
      },
      {
        "astId": 61055,
        "contract": "contracts/xchain/agent/STIUserAgentSubTest.sol:STIUserAgentSubTest",
        "label": "stiVault",
        "offset": 0,
        "slot": "404",
        "type": "t_contract(ISTIVault)44102"
      },
      {
        "astId": 61057,
        "contract": "contracts/xchain/agent/STIUserAgentSubTest.sol:STIUserAgentSubTest",
        "label": "subImpl",
        "offset": 0,
        "slot": "405",
        "type": "t_address"
      }
    ],
    "types": {
      "t_address": {
        "encoding": "inplace",
        "label": "address",
        "numberOfBytes": "20"
      },
      "t_array(t_bytes32)dyn_storage": {
        "base": "t_bytes32",
        "encoding": "dynamic_array",
        "label": "bytes32[]",
        "numberOfBytes": "32"
      },
      "t_array(t_uint256)39_storage": {
        "base": "t_uint256",
        "encoding": "inplace",
        "label": "uint256[39]",
        "numberOfBytes": "1248"
      },
      "t_array(t_uint256)49_storage": {
        "base": "t_uint256",
        "encoding": "inplace",
        "label": "uint256[49]",
        "numberOfBytes": "1568"
      },
      "t_array(t_uint256)50_storage": {
        "base": "t_uint256",
        "encoding": "inplace",
        "label": "uint256[50]",
        "numberOfBytes": "1600"
      },
      "t_bool": {
        "encoding": "inplace",
        "label": "bool",
        "numberOfBytes": "1"
      },
      "t_bytes32": {
        "encoding": "inplace",
        "label": "bytes32",
        "numberOfBytes": "32"
      },
      "t_contract(IERC20Upgradeable)1707": {
        "encoding": "inplace",
        "label": "contract IERC20Upgradeable",
        "numberOfBytes": "20"
      },
      "t_contract(ISTIMinter)44045": {
        "encoding": "inplace",
        "label": "contract ISTIMinter",
        "numberOfBytes": "20"
      },
      "t_contract(ISTIVault)44102": {
        "encoding": "inplace",
        "label": "contract ISTIVault",
        "numberOfBytes": "20"
      },
      "t_contract(ISwap)55907": {
        "encoding": "inplace",
        "label": "contract ISwap",
        "numberOfBytes": "20"
      },
      "t_contract(IXChainAdapter)56214": {
        "encoding": "inplace",
        "label": "contract IXChainAdapter",
        "numberOfBytes": "20"
      },
      "t_enum(AdapterType)59406": {
        "encoding": "inplace",
        "label": "enum BasicUserAgentBase.AdapterType",
        "numberOfBytes": "1"
      },
      "t_mapping(t_address,t_bool)": {
        "encoding": "mapping",
        "key": "t_address",
        "label": "mapping(address => bool)",
        "numberOfBytes": "32",
        "value": "t_bool"
      },
      "t_mapping(t_address,t_uint256)": {
        "encoding": "mapping",
        "key": "t_address",
        "label": "mapping(address => uint256)",
        "numberOfBytes": "32",
        "value": "t_uint256"
      },
      "t_mapping(t_bytes32,t_struct(AddressSet)4359_storage)": {
        "encoding": "mapping",
        "key": "t_bytes32",
        "label": "mapping(bytes32 => struct EnumerableSetUpgradeable.AddressSet)",
        "numberOfBytes": "32",
        "value": "t_struct(AddressSet)4359_storage"
      },
      "t_mapping(t_bytes32,t_struct(RoleData)179_storage)": {
        "encoding": "mapping",
        "key": "t_bytes32",
        "label": "mapping(bytes32 => struct AccessControlUpgradeable.RoleData)",
        "numberOfBytes": "32",
        "value": "t_struct(RoleData)179_storage"
      },
      "t_mapping(t_bytes32,t_uint256)": {
        "encoding": "mapping",
        "key": "t_bytes32",
        "label": "mapping(bytes32 => uint256)",
        "numberOfBytes": "32",
        "value": "t_uint256"
      },
      "t_mapping(t_uint256,t_address)": {
        "encoding": "mapping",
        "key": "t_uint256",
        "label": "mapping(uint256 => address)",
        "numberOfBytes": "32",
        "value": "t_address"
      },
      "t_mapping(t_uint256,t_enum(AdapterType)59406)": {
        "encoding": "mapping",
        "key": "t_uint256",
        "label": "mapping(uint256 => enum BasicUserAgentBase.AdapterType)",
        "numberOfBytes": "32",
        "value": "t_enum(AdapterType)59406"
      },
      "t_struct(AddressSet)4359_storage": {
        "encoding": "inplace",
        "label": "struct EnumerableSetUpgradeable.AddressSet",
        "members": [
          {
            "astId": 4358,
            "contract": "contracts/xchain/agent/STIUserAgentSubTest.sol:STIUserAgentSubTest",
            "label": "_inner",
            "offset": 0,
            "slot": "0",
            "type": "t_struct(Set)4058_storage"
          }
        ],
        "numberOfBytes": "64"
      },
      "t_struct(RoleData)179_storage": {
        "encoding": "inplace",
        "label": "struct AccessControlUpgradeable.RoleData",
        "members": [
          {
            "astId": 176,
            "contract": "contracts/xchain/agent/STIUserAgentSubTest.sol:STIUserAgentSubTest",
            "label": "members",
            "offset": 0,
            "slot": "0",
            "type": "t_mapping(t_address,t_bool)"
          },
          {
            "astId": 178,
            "contract": "contracts/xchain/agent/STIUserAgentSubTest.sol:STIUserAgentSubTest",
            "label": "adminRole",
            "offset": 0,
            "slot": "1",
            "type": "t_bytes32"
          }
        ],
        "numberOfBytes": "64"
      },
      "t_struct(Set)4058_storage": {
        "encoding": "inplace",
        "label": "struct EnumerableSetUpgradeable.Set",
        "members": [
          {
            "astId": 4053,
            "contract": "contracts/xchain/agent/STIUserAgentSubTest.sol:STIUserAgentSubTest",
            "label": "_values",
            "offset": 0,
            "slot": "0",
            "type": "t_array(t_bytes32)dyn_storage"
          },
          {
            "astId": 4057,
            "contract": "contracts/xchain/agent/STIUserAgentSubTest.sol:STIUserAgentSubTest",
            "label": "_indexes",
            "offset": 0,
            "slot": "1",
            "type": "t_mapping(t_bytes32,t_uint256)"
          }
        ],
        "numberOfBytes": "64"
      },
      "t_uint256": {
        "encoding": "inplace",
        "label": "uint256",
        "numberOfBytes": "32"
      },
      "t_uint8": {
        "encoding": "inplace",
        "label": "uint8",
        "numberOfBytes": "1"
      }
    }
  }
}