{
  "address": "0x05bC553F34bE5e4fEAEf248cf4cCFAFAEF240f99",
  "abi": [
    {
      "anonymous": false,
      "inputs": [
        {
          "indexed": false,
          "internalType": "uint8",
          "name": "version",
          "type": "uint8"
        }
      ],
      "name": "Initialized",
      "type": "event"
    },
    {
      "anonymous": false,
      "inputs": [
        {
          "indexed": true,
          "internalType": "address",
          "name": "previousOwner",
          "type": "address"
        },
        {
          "indexed": true,
          "internalType": "address",
          "name": "newOwner",
          "type": "address"
        }
      ],
      "name": "OwnershipTransferred",
      "type": "event"
    },
    {
      "anonymous": false,
      "inputs": [
        {
          "indexed": false,
          "internalType": "address",
          "name": "account",
          "type": "address"
        }
      ],
      "name": "Paused",
      "type": "event"
    },
    {
      "anonymous": false,
      "inputs": [
        {
          "indexed": true,
          "internalType": "bytes32",
          "name": "role",
          "type": "bytes32"
        },
        {
          "indexed": true,
          "internalType": "bytes32",
          "name": "previousAdminRole",
          "type": "bytes32"
        },
        {
          "indexed": true,
          "internalType": "bytes32",
          "name": "newAdminRole",
          "type": "bytes32"
        }
      ],
      "name": "RoleAdminChanged",
      "type": "event"
    },
    {
      "anonymous": false,
      "inputs": [
        {
          "indexed": true,
          "internalType": "bytes32",
          "name": "role",
          "type": "bytes32"
        },
        {
          "indexed": true,
          "internalType": "address",
          "name": "account",
          "type": "address"
        },
        {
          "indexed": true,
          "internalType": "address",
          "name": "sender",
          "type": "address"
        }
      ],
      "name": "RoleGranted",
      "type": "event"
    },
    {
      "anonymous": false,
      "inputs": [
        {
          "indexed": true,
          "internalType": "bytes32",
          "name": "role",
          "type": "bytes32"
        },
        {
          "indexed": true,
          "internalType": "address",
          "name": "account",
          "type": "address"
        },
        {
          "indexed": true,
          "internalType": "address",
          "name": "sender",
          "type": "address"
        }
      ],
      "name": "RoleRevoked",
      "type": "event"
    },
    {
      "anonymous": false,
      "inputs": [
        {
          "indexed": true,
          "internalType": "address",
          "name": "from",
          "type": "address"
        },
        {
          "indexed": false,
          "internalType": "address",
          "name": "token",
          "type": "address"
        },
        {
          "indexed": true,
          "internalType": "uint256",
          "name": "amount",
          "type": "uint256"
        },
        {
          "indexed": false,
          "internalType": "uint256",
          "name": "fromChainId",
          "type": "uint256"
        },
        {
          "indexed": true,
          "internalType": "uint256",
          "name": "toChainId",
          "type": "uint256"
        },
        {
          "indexed": false,
          "internalType": "address",
          "name": "to",
          "type": "address"
        },
        {
          "indexed": false,
          "internalType": "enum BasicUserAgentBase.AdapterType",
          "name": "adapterType",
          "type": "uint8"
        },
        {
          "indexed": false,
          "internalType": "uint256",
          "name": "nonce",
          "type": "uint256"
        }
      ],
      "name": "Transfer",
      "type": "event"
    },
    {
      "anonymous": false,
      "inputs": [
        {
          "indexed": false,
          "internalType": "address",
          "name": "account",
          "type": "address"
        }
      ],
      "name": "Unpaused",
      "type": "event"
    },
    {
      "inputs": [],
      "name": "ADAPTER_ROLE",
      "outputs": [
        {
          "internalType": "bytes32",
          "name": "",
          "type": "bytes32"
        }
      ],
      "stateMutability": "view",
      "type": "function"
    },
    {
      "inputs": [],
      "name": "DEFAULT_ADMIN_ROLE",
      "outputs": [
        {
          "internalType": "bytes32",
          "name": "",
          "type": "bytes32"
        }
      ],
      "stateMutability": "view",
      "type": "function"
    },
    {
      "inputs": [],
      "name": "USDC",
      "outputs": [
        {
          "internalType": "contract IERC20Upgradeable",
          "name": "",
          "type": "address"
        }
      ],
      "stateMutability": "view",
      "type": "function"
    },
    {
      "inputs": [],
      "name": "USDT",
      "outputs": [
        {
          "internalType": "contract IERC20Upgradeable",
          "name": "",
          "type": "address"
        }
      ],
      "stateMutability": "view",
      "type": "function"
    },
    {
      "inputs": [],
      "name": "admin",
      "outputs": [
        {
          "internalType": "address",
          "name": "",
          "type": "address"
        }
      ],
      "stateMutability": "view",
      "type": "function"
    },
    {
      "inputs": [],
      "name": "bniMinter",
      "outputs": [
        {
          "internalType": "contract IBNIMinter",
          "name": "",
          "type": "address"
        }
      ],
      "stateMutability": "view",
      "type": "function"
    },
    {
      "inputs": [],
      "name": "bniVault",
      "outputs": [
        {
          "internalType": "contract IBNIVault",
          "name": "",
          "type": "address"
        }
      ],
      "stateMutability": "view",
      "type": "function"
    },
    {
      "inputs": [
        {
          "internalType": "uint256",
          "name": "_pool",
          "type": "uint256"
        },
        {
          "internalType": "uint256",
          "name": "_share",
          "type": "uint256"
        }
      ],
      "name": "burn",
      "outputs": [
        {
          "internalType": "uint256",
          "name": "_feeAmt",
          "type": "uint256"
        }
      ],
      "stateMutability": "payable",
      "type": "function"
    },
    {
      "inputs": [
        {
          "internalType": "address",
          "name": "_account",
          "type": "address"
        },
        {
          "internalType": "uint256",
          "name": "_pool",
          "type": "uint256"
        },
        {
          "internalType": "uint256",
          "name": "_share",
          "type": "uint256"
        }
      ],
      "name": "burnByAdmin",
      "outputs": [],
      "stateMutability": "nonpayable",
      "type": "function"
    },
    {
      "inputs": [
        {
          "internalType": "uint256",
          "name": "",
          "type": "uint256"
        }
      ],
      "name": "callAdapterTypes",
      "outputs": [
        {
          "internalType": "enum BasicUserAgentBase.AdapterType",
          "name": "",
          "type": "uint8"
        }
      ],
      "stateMutability": "view",
      "type": "function"
    },
    {
      "inputs": [],
      "name": "cbridgeAdapter",
      "outputs": [
        {
          "internalType": "contract IXChainAdapter",
          "name": "",
          "type": "address"
        }
      ],
      "stateMutability": "view",
      "type": "function"
    },
    {
      "inputs": [
        {
          "internalType": "uint256",
          "name": "",
          "type": "uint256"
        }
      ],
      "name": "cbridgeSenders",
      "outputs": [
        {
          "internalType": "address",
          "name": "",
          "type": "address"
        }
      ],
      "stateMutability": "view",
      "type": "function"
    },
    {
      "inputs": [],
      "name": "chainIdOnLP",
      "outputs": [
        {
          "internalType": "uint256",
          "name": "",
          "type": "uint256"
        }
      ],
      "stateMutability": "view",
      "type": "function"
    },
    {
      "inputs": [
        {
          "internalType": "uint256[]",
          "name": "_toChainIds",
          "type": "uint256[]"
        },
        {
          "internalType": "address[]",
          "name": "_tokens",
          "type": "address[]"
        },
        {
          "internalType": "uint256[]",
          "name": "_USDT6Amts",
          "type": "uint256[]"
        },
        {
          "internalType": "uint256",
          "name": "_minterNonce",
          "type": "uint256"
        }
      ],
      "name": "deposit",
      "outputs": [
        {
          "internalType": "uint256",
          "name": "_feeAmt",
          "type": "uint256"
        }
      ],
      "stateMutability": "payable",
      "type": "function"
    },
    {
      "inputs": [
        {
          "internalType": "address",
          "name": "_account",
          "type": "address"
        },
        {
          "internalType": "address[]",
          "name": "_tokens",
          "type": "address[]"
        },
        {
          "internalType": "uint256[]",
          "name": "_USDT6Amts",
          "type": "uint256[]"
        },
        {
          "internalType": "uint256",
          "name": "_minterNonce",
          "type": "uint256"
        }
      ],
      "name": "depositByAgent",
      "outputs": [],
      "stateMutability": "nonpayable",
      "type": "function"
    },
    {
      "inputs": [
        {
          "internalType": "uint256",
          "name": "_gatheredAmount",
          "type": "uint256"
        }
      ],
      "name": "exitWithdrawal",
      "outputs": [
        {
          "internalType": "uint256",
          "name": "_feeAmt",
          "type": "uint256"
        }
      ],
      "stateMutability": "payable",
      "type": "function"
    },
    {
      "inputs": [
        {
          "internalType": "address",
          "name": "_account",
          "type": "address"
        }
      ],
      "name": "exitWithdrawalByAdmin",
      "outputs": [],
      "stateMutability": "nonpayable",
      "type": "function"
    },
    {
      "inputs": [
        {
          "internalType": "uint256[]",
          "name": "_fromChainIds",
          "type": "uint256[]"
        },
        {
          "internalType": "enum BasicUserAgentBase.AdapterType[]",
          "name": "_adapterTypes",
          "type": "uint8[]"
        }
      ],
      "name": "gather",
      "outputs": [
        {
          "internalType": "uint256",
          "name": "_feeAmt",
          "type": "uint256"
        }
      ],
      "stateMutability": "payable",
      "type": "function"
    },
    {
      "inputs": [
        {
          "internalType": "address",
          "name": "_account",
          "type": "address"
        },
        {
          "internalType": "uint256",
          "name": "_toChainId",
          "type": "uint256"
        },
        {
          "internalType": "enum BasicUserAgentBase.AdapterType",
          "name": "_adapterType",
          "type": "uint8"
        }
      ],
      "name": "gatherByAdmin",
      "outputs": [],
      "stateMutability": "nonpayable",
      "type": "function"
    },
    {
      "inputs": [
        {
          "internalType": "bytes",
          "name": "message",
          "type": "bytes"
        }
      ],
      "name": "getMessageHashForSafe",
      "outputs": [
        {
          "internalType": "bytes32",
          "name": "",
          "type": "bytes32"
        }
      ],
      "stateMutability": "view",
      "type": "function"
    },
    {
      "inputs": [
        {
          "internalType": "bytes32",
          "name": "role",
          "type": "bytes32"
        }
      ],
      "name": "getRoleAdmin",
      "outputs": [
        {
          "internalType": "bytes32",
          "name": "",
          "type": "bytes32"
        }
      ],
      "stateMutability": "view",
      "type": "function"
    },
    {
      "inputs": [
        {
          "internalType": "bytes32",
          "name": "role",
          "type": "bytes32"
        },
        {
          "internalType": "uint256",
          "name": "index",
          "type": "uint256"
        }
      ],
      "name": "getRoleMember",
      "outputs": [
        {
          "internalType": "address",
          "name": "",
          "type": "address"
        }
      ],
      "stateMutability": "view",
      "type": "function"
    },
    {
      "inputs": [
        {
          "internalType": "bytes32",
          "name": "role",
          "type": "bytes32"
        }
      ],
      "name": "getRoleMemberCount",
      "outputs": [
        {
          "internalType": "uint256",
          "name": "",
          "type": "uint256"
        }
      ],
      "stateMutability": "view",
      "type": "function"
    },
    {
      "inputs": [
        {
          "internalType": "bytes32",
          "name": "role",
          "type": "bytes32"
        },
        {
          "internalType": "address",
          "name": "account",
          "type": "address"
        }
      ],
      "name": "grantRole",
      "outputs": [],
      "stateMutability": "nonpayable",
      "type": "function"
    },
    {
      "inputs": [
        {
          "internalType": "bytes32",
          "name": "role",
          "type": "bytes32"
        },
        {
          "internalType": "address",
          "name": "account",
          "type": "address"
        }
      ],
      "name": "hasRole",
      "outputs": [
        {
          "internalType": "bool",
          "name": "",
          "type": "bool"
        }
      ],
      "stateMutability": "view",
      "type": "function"
    },
    {
      "inputs": [],
      "name": "isLPChain",
      "outputs": [
        {
          "internalType": "bool",
          "name": "",
          "type": "bool"
        }
      ],
      "stateMutability": "view",
      "type": "function"
    },
    {
      "inputs": [
        {
          "internalType": "address",
          "name": "forwarder",
          "type": "address"
        }
      ],
      "name": "isTrustedForwarder",
      "outputs": [
        {
          "internalType": "bool",
          "name": "",
          "type": "bool"
        }
      ],
      "stateMutability": "view",
      "type": "function"
    },
    {
      "inputs": [
        {
          "internalType": "address",
          "name": "_account",
          "type": "address"
        },
        {
          "internalType": "bytes",
          "name": "_data",
          "type": "bytes"
        },
        {
          "internalType": "bytes",
          "name": "_signature",
          "type": "bytes"
        }
      ],
      "name": "isValidSignature",
      "outputs": [
        {
          "internalType": "bool",
          "name": "",
          "type": "bool"
        }
      ],
      "stateMutability": "view",
      "type": "function"
    },
    {
      "inputs": [
        {
          "internalType": "uint256",
          "name": "_USDT6Amt",
          "type": "uint256"
        }
      ],
      "name": "mint",
      "outputs": [
        {
          "internalType": "uint256",
          "name": "_feeAmt",
          "type": "uint256"
        }
      ],
      "stateMutability": "payable",
      "type": "function"
    },
    {
      "inputs": [
        {
          "internalType": "address",
          "name": "_account",
          "type": "address"
        },
        {
          "internalType": "uint256",
          "name": "_USDT6Amt",
          "type": "uint256"
        }
      ],
      "name": "mintByAdmin",
      "outputs": [],
      "stateMutability": "nonpayable",
      "type": "function"
    },
    {
      "inputs": [],
      "name": "multichainAdapter",
      "outputs": [
        {
          "internalType": "contract IXChainAdapter",
          "name": "",
          "type": "address"
        }
      ],
      "stateMutability": "view",
      "type": "function"
    },
    {
      "inputs": [
        {
          "internalType": "address",
          "name": "",
          "type": "address"
        }
      ],
      "name": "nonces",
      "outputs": [
        {
          "internalType": "uint256",
          "name": "",
          "type": "uint256"
        }
      ],
      "stateMutability": "view",
      "type": "function"
    },
    {
      "inputs": [],
      "name": "owner",
      "outputs": [
        {
          "internalType": "address",
          "name": "",
          "type": "address"
        }
      ],
      "stateMutability": "view",
      "type": "function"
    },
    {
      "inputs": [],
      "name": "paused",
      "outputs": [
        {
          "internalType": "bool",
          "name": "",
          "type": "bool"
        }
      ],
      "stateMutability": "view",
      "type": "function"
    },
    {
      "inputs": [],
      "name": "renounceOwnership",
      "outputs": [],
      "stateMutability": "nonpayable",
      "type": "function"
    },
    {
      "inputs": [
        {
          "internalType": "bytes32",
          "name": "role",
          "type": "bytes32"
        },
        {
          "internalType": "address",
          "name": "account",
          "type": "address"
        }
      ],
      "name": "renounceRole",
      "outputs": [],
      "stateMutability": "nonpayable",
      "type": "function"
    },
    {
      "inputs": [
        {
          "internalType": "bytes32",
          "name": "role",
          "type": "bytes32"
        },
        {
          "internalType": "address",
          "name": "account",
          "type": "address"
        }
      ],
      "name": "revokeRole",
      "outputs": [],
      "stateMutability": "nonpayable",
      "type": "function"
    },
    {
      "inputs": [],
      "name": "subImpl",
      "outputs": [
        {
          "internalType": "address",
          "name": "",
          "type": "address"
        }
      ],
      "stateMutability": "view",
      "type": "function"
    },
    {
      "inputs": [
        {
          "internalType": "bytes4",
          "name": "interfaceId",
          "type": "bytes4"
        }
      ],
      "name": "supportsInterface",
      "outputs": [
        {
          "internalType": "bool",
          "name": "",
          "type": "bool"
        }
      ],
      "stateMutability": "view",
      "type": "function"
    },
    {
      "inputs": [
        {
          "internalType": "uint256",
          "name": "_gatheredAmount",
          "type": "uint256"
        }
      ],
      "name": "takeOut",
      "outputs": [],
      "stateMutability": "nonpayable",
      "type": "function"
    },
    {
      "inputs": [
        {
          "internalType": "address",
          "name": "newOwner",
          "type": "address"
        }
      ],
      "name": "transferOwnership",
      "outputs": [],
      "stateMutability": "nonpayable",
      "type": "function"
    },
    {
      "inputs": [],
      "name": "trustedForwarder",
      "outputs": [
        {
          "internalType": "address",
          "name": "",
          "type": "address"
        }
      ],
      "stateMutability": "view",
      "type": "function"
    },
    {
      "inputs": [
        {
          "internalType": "address",
          "name": "",
          "type": "address"
        }
      ],
      "name": "usdcBalances",
      "outputs": [
        {
          "internalType": "uint256",
          "name": "",
          "type": "uint256"
        }
      ],
      "stateMutability": "view",
      "type": "function"
    },
    {
      "inputs": [
        {
          "internalType": "address",
          "name": "",
          "type": "address"
        }
      ],
      "name": "usdtBalances",
      "outputs": [
        {
          "internalType": "uint256",
          "name": "",
          "type": "uint256"
        }
      ],
      "stateMutability": "view",
      "type": "function"
    },
    {
      "inputs": [
        {
          "internalType": "uint256",
          "name": "",
          "type": "uint256"
        }
      ],
      "name": "userAgents",
      "outputs": [
        {
          "internalType": "address",
          "name": "",
          "type": "address"
        }
      ],
      "stateMutability": "view",
      "type": "function"
    },
    {
      "inputs": [],
      "name": "versionRecipient",
      "outputs": [
        {
          "internalType": "string",
          "name": "",
          "type": "string"
        }
      ],
      "stateMutability": "pure",
      "type": "function"
    },
    {
      "inputs": [
        {
          "internalType": "uint256[]",
          "name": "_chainIds",
          "type": "uint256[]"
        },
        {
          "internalType": "uint256",
          "name": "_sharePerc",
          "type": "uint256"
        },
        {
          "internalType": "uint256",
          "name": "_minterNonce",
          "type": "uint256"
        }
      ],
      "name": "withdraw",
      "outputs": [
        {
          "internalType": "uint256",
          "name": "_feeAmt",
          "type": "uint256"
        }
      ],
      "stateMutability": "payable",
      "type": "function"
    },
    {
      "inputs": [
        {
          "internalType": "address",
          "name": "_account",
          "type": "address"
        },
        {
          "internalType": "uint256",
          "name": "_sharePerc",
          "type": "uint256"
        },
        {
          "internalType": "uint256",
          "name": "_minterNonce",
          "type": "uint256"
        }
      ],
      "name": "withdrawPercByAgent",
      "outputs": [],
      "stateMutability": "nonpayable",
      "type": "function"
    },
    {
      "stateMutability": "payable",
      "type": "receive"
    }
  ],
  "transactionHash": "0x70444dec04a72ec4dbf392cfbf82c9c4170d8b9c599adef8c5eccca41c0d8b7c",
  "args": [],
  "numDeployments": 3,
  "solcInputHash": "361a3eca3263519da5909a492498684a",
  "bytecode": "0x608060405234801561001057600080fd5b506144d7806100206000396000f3fe6080604052600436106102975760003560e01c80639010d07c1161015a578063caffbec7116100c1578063f2ea16181161007a578063f2ea161814610853578063f2fde38b1461088a578063f77de486146108aa578063f7bb364c146108ca578063f851a440146108e5578063fb76bb7e1461090657600080fd5b8063caffbec71461079a578063cd6c7f2d146107ba578063d547741f146107cd578063d843a400146107ed578063e629f7b314610813578063e9e81a6a1461083357600080fd5b8063abe57f8711610113578063abe57f87146106f3578063af3da2f414610706578063b390c0ab14610726578063c54e44eb14610739578063c7205bce1461075a578063ca15c8731461077a57600080fd5b80639010d07c1461064a57806391d148541461066a578063a0712d681461068a578063a217fddf1461069d578063a7f4bdce146106b2578063a99c68c5146106c557600080fd5b8063572b6c05116101fe5780636ebf33ce116101b75780636ebf33ce14610570578063715018a6146105a75780637da0a877146105bc5780637ecebe00146105dc57806389a302711461060a5780638da5cb5b1461062b57600080fd5b8063572b6c051461049957806357cdd7f9146104c8578063582489cb146104e9578063582712b1146105175780635c975abb1461053757806363032feb1461054f57600080fd5b8063248a9ca311610250578063248a9ca31461039957806328054fb7146103c95780632f2ff15d146103eb57806336568abe1461040b57806339dacedb1461042b578063486ff0cd1461046957600080fd5b8063013dee70146102a357806301ffc9a7146102e157806302a882e6146103115780630c3a18211461034157806319463093146103625780631a5787d81461038257600080fd5b3661029e57005b600080fd5b3480156102af57600080fd5b50610195546102c4906001600160a01b031681565b6040516001600160a01b0390911681526020015b60405180910390f35b3480156102ed57600080fd5b506103016102fc3660046138cb565b610919565b60405190151581526020016102d8565b34801561031d57600080fd5b5061033360008051602061448283398151915281565b6040519081526020016102d8565b34801561034d57600080fd5b50610166546102c4906001600160a01b031681565b34801561036e57600080fd5b5061033361037d3660046139aa565b610944565b34801561038e57600080fd5b506103336101925481565b3480156103a557600080fd5b506103336103b43660046139de565b60009081526097602052604090206001015490565b3480156103d557600080fd5b506103e96103e4366004613a20565b610990565b005b3480156103f757600080fd5b506103e9610406366004613a5e565b610d3f565b34801561041757600080fd5b506103e9610426366004613a5e565b610d69565b34801561043757600080fd5b5061045c6104463660046139de565b61016a6020526000908152604090205460ff1681565b6040516102d89190613ac6565b34801561047557600080fd5b5060408051808201825260018152603160f81b602082015290516102d89190613b2c565b3480156104a557600080fd5b506103016104b4366004613b3f565b6000546001600160a01b0391821691161490565b3480156104d457600080fd5b50610167546102c4906001600160a01b031681565b3480156104f557600080fd5b50610333610504366004613b3f565b6101656020526000908152604090205481565b34801561052357600080fd5b506103e9610532366004613c43565b610df7565b34801561054357600080fd5b5060fb5460ff16610301565b34801561055b57600080fd5b50610194546102c4906001600160a01b031681565b34801561057c57600080fd5b506102c461058b3660046139de565b610169602052600090815260409020546001600160a01b031681565b3480156105b357600080fd5b506103e9610e7f565b3480156105c857600080fd5b506000546102c4906001600160a01b031681565b3480156105e857600080fd5b506103336105f7366004613b3f565b6101606020526000908152604090205481565b34801561061657600080fd5b50610162546102c4906001600160a01b031681565b34801561063757600080fd5b5061012d546001600160a01b03166102c4565b34801561065657600080fd5b506102c4610665366004613cc0565b610ed5565b34801561067657600080fd5b50610301610685366004613a5e565b610ef4565b6103336106983660046139de565b610f1f565b3480156106a957600080fd5b50610333600081565b6103336106c0366004613ce2565b6110b8565b3480156106d157600080fd5b506103336106e0366004613b3f565b6101646020526000908152604090205481565b6103336107013660046139de565b611168565b34801561071257600080fd5b506103e9610721366004613d2f565b6112fd565b610333610734366004613cc0565b611387565b34801561074557600080fd5b50610163546102c4906001600160a01b031681565b34801561076657600080fd5b50610301610775366004613d5b565b6114e6565b34801561078657600080fd5b506103336107953660046139de565b611665565b3480156107a657600080fd5b506103e96107b53660046139de565b61167c565b6103336107c8366004613dfe565b611726565b3480156107d957600080fd5b506103e96107e8366004613a5e565b61182d565b3480156107f957600080fd5b50610193546102c49061010090046001600160a01b031681565b34801561081f57600080fd5b506103e961082e366004613e4d565b611852565b34801561083f57600080fd5b506103e961084e366004613e4d565b6118db565b34801561085f57600080fd5b506102c461086e3660046139de565b610168602052600090815260409020546001600160a01b031681565b34801561089657600080fd5b506103e96108a5366004613b3f565b611912565b3480156108b657600080fd5b506103e96108c5366004613b3f565b6119cd565b3480156108d657600080fd5b50610193546103019060ff1681565b3480156108f157600080fd5b5061015f546102c4906001600160a01b031681565b610333610914366004613e82565b611a4f565b60006001600160e01b03198216635a05180f60e01b148061093e575061093e82611b16565b92915050565b805160209182012060015460408051601960f81b81860152600160f81b602182015260228101929092526042808301939093528051808303909301835260629091019052805191012090565b6000805160206144828339815191526109a881611b4b565b6001600160a01b038416600090815261016560205260409020548015610d3857600084815261016960205260409020546001600160a01b031680610a285760405162461bcd60e51b8152602060048201526012602482015271125b9d985b1a59081d5cd95c881859d95b9d60721b60448201526064015b60405180910390fd5b604080516001808252818301909252600091602080830190803683370190505090508281600081518110610a5e57610a5e613f43565b60209081029190910101526040805160018082528183019092526000918160200160208202803683370190505090508681600081518110610aa157610aa1613f43565b60209081029190910101526040805160018082528183019092526000918160200160208202803683370190505090508381600081518110610ae457610ae4613f43565b6001600160a01b0392909216602092830291909101909101526040805160018082528183019092526000918160200160208202803683370190505090508781600081518110610b3557610b35613f43565b60200260200101906001811115610b4e57610b4e613a8e565b90816001811115610b6157610b61613a8e565b90525061016354600090610b86908c906001600160a01b031687878787600180611b5c565b6101615461016354604051631d1c6b8360e11b81526001600160a01b03918216600482015260248101849052929350600092911690633a38d7069060440160206040518083038186803b158015610bdc57600080fd5b505afa158015610bf0573d6000803e3d6000fd5b505050506040513d601f19601f82011682018060405250810190610c149190613f59565b905080881115610d30576101615461016354604051632f66c82160e21b81526000926001600160a01b039081169263bd9b208492610c5c929091169086908890600401613f72565b602060405180830381600087803b158015610c7657600080fd5b505af1158015610c8a573d6000803e3d6000fd5b505050506040513d601f19601f82011682018060405250810190610cae9190613f59565b9050610cba818a613fa9565b87600081518110610ccd57610ccd613f43565b602002602001018181525050600061016560008f6001600160a01b03166001600160a01b0316815260200190815260200160002081905550610d2d8d61016360009054906101000a90046001600160a01b03168989898960016000611b5c565b50505b505050505050505b5050505050565b600082815260976020526040902060010154610d5a81611b4b565b610d648383611bce565b505050565b610d71611bf0565b6001600160a01b0316816001600160a01b031614610de95760405162461bcd60e51b815260206004820152602f60248201527f416363657373436f6e74726f6c3a2063616e206f6e6c792072656e6f756e636560448201526e103937b632b9903337b91039b2b63360891b6064820152608401610a1f565b610df38282611bff565b5050565b600080516020614482833981519152610e0f81611b4b565b6101945460405163582712b160e01b81526001600160a01b039091169063582712b190610e46908890889088908890600401614034565b600060405180830381600087803b158015610e6057600080fd5b505af1158015610e74573d6000803e3d6000fd5b505050505050505050565b610e87611bf0565b6001600160a01b0316610ea361012d546001600160a01b031690565b6001600160a01b031614610ec95760405162461bcd60e51b8152600401610a1f9061407c565b610ed36000611c21565b565b600082815260c960205260408120610eed9083611c74565b9392505050565b60009182526097602090815260408084206001600160a01b0393909316845291905290205460ff1690565b6000610f2d60fb5460ff1690565b15610f6d5760405162461bcd60e51b815260206004820152601060248201526f14185d5cd8589b194e881c185d5cd95960821b6044820152606401610a1f565b610f75611bf0565b6001600160a01b0316610f9161012d546001600160a01b031690565b6001600160a01b031614610fb75760405162461bcd60e51b8152600401610a1f9061407c565b6000610fc1611bf0565b6101935490915060ff16156110425761019354604051632bcf68bd60e21b81526001600160a01b038381166004830152602482018690526101009092049091169063af3da2f490604401600060405180830381600087803b15801561102557600080fd5b505af1158015611039573d6000803e3d6000fd5b505050506110b2565b604080516001600160a01b03838116602483015260448083018790528351808403909101815260649092018352602080830180516001600160e01b0316632bcf68bd60e21b1790526101925460008181526101699092529381205492936110ae93909216908481611c80565b9250505b50919050565b60006110c2611bf0565b6001600160a01b03166110de61012d546001600160a01b031690565b6001600160a01b0316146111045760405162461bcd60e51b8152600401610a1f9061407c565b600061110e611bf0565b905060005b855181101561115f576111418287838151811061113257611132613f43565b60200260200101518787611e28565b61114b90846140b1565b925080611157816140c9565b915050611113565b50509392505050565b6000611172611bf0565b6001600160a01b031661118e61012d546001600160a01b031690565b6001600160a01b0316146111b45760405162461bcd60e51b8152600401610a1f9061407c565b60006111be611bf0565b6101935490915060ff16156112385761019354604051637bbef24360e11b81526001600160a01b0383811660048301526101009092049091169063f77de48690602401600060405180830381600087803b15801561121b57600080fd5b505af115801561122f573d6000803e3d6000fd5b505050506112a4565b604080516001600160a01b038381166024808401919091528351808403909101815260449092018352602080830180516001600160e01b0316637bbef24360e11b1790526101925460008181526101699092529381205492936112a093909216908481611c80565b9250505b6001600160a01b038116600090815261016560205260408120546112c890856140b1565b6001600160a01b0380841660009081526101656020526040812055610163549192506112f691168383611ed4565b5050919050565b60008051602061448283398151915261131581611b4b565b61019354604051632bcf68bd60e21b81526001600160a01b038581166004830152602482018590526101009092049091169063af3da2f490604401600060405180830381600087803b15801561136a57600080fd5b505af115801561137e573d6000803e3d6000fd5b50505050505050565b6000611391611bf0565b6001600160a01b03166113ad61012d546001600160a01b031690565b6001600160a01b0316146113d35760405162461bcd60e51b8152600401610a1f9061407c565b60006113dd611bf0565b6101935490915060ff161561145c576101935460405163e629f7b360e01b81526101009091046001600160a01b03169063e629f7b39061142590849088908890600401613f72565b600060405180830381600087803b15801561143f57600080fd5b505af1158015611453573d6000803e3d6000fd5b505050506114df565b600063e629f7b360e01b82868660405160240161147b93929190613f72565b60408051601f19818403018152918152602080830180516001600160e01b03166001600160e01b031990951694909417909352610192546000818152610169909452908320549193506114db9290916001600160a01b0316908481611c80565b9250505b5092915050565b6000806114f285610944565b90506001600160a01b0386163b1561154e5761154686828787878080601f016020809104026020016040519081016040528093929190818152602001838380828437600092019190915250611f2692505050565b91505061165d565b600080600061159287878080601f01602080910402602001604051908101604052809392919081815260200183838082843760009201829052509250611fb8915050565b6040517f19457468657265756d205369676e6564204d6573736167653a0a3332000000006020820152603c81018890529295509093509150600090605c0160408051601f198184030181528282528051602091820120600080855291840180845281905260ff88169284019290925260608301869052608083018590529092509060019060a0016020604051602081039080840390855afa15801561163b573d6000803e3d6000fd5b5050604051601f1901516001600160a01b038d81169116149750505050505050505b949350505050565b600081815260c96020526040812061093e90611fd6565b611684611bf0565b6001600160a01b03166116a061012d546001600160a01b031690565b6001600160a01b0316146116c65760405162461bcd60e51b8152600401610a1f9061407c565b60006116d0611bf0565b6001600160a01b03811660009081526101656020526040812054919250906116f890846140b1565b6001600160a01b038084166000908152610165602052604081205561016354919250610d6491168383611ed4565b600061173460fb5460ff1690565b156117745760405162461bcd60e51b815260206004820152601060248201526f14185d5cd8589b194e881c185d5cd95960821b6044820152606401610a1f565b61177c611bf0565b6001600160a01b031661179861012d546001600160a01b031690565b6001600160a01b0316146117be5760405162461bcd60e51b8152600401610a1f9061407c565b60006117c8611bf0565b90506000806000806117dd8a8a8a6000611fe0565b93509350935093505b8315611820576117f9858585858b6121bd565b61180390876140b1565b95506118118a8a8a84611fe0565b929650909450925090506117e6565b5050505050949350505050565b60008281526097602052604090206001015461184881611b4b565b610d648383611bff565b60008051602061448283398151915261186a81611b4b565b6101935460405163e629f7b360e01b81526101009091046001600160a01b03169063e629f7b3906118a390879087908790600401613f72565b600060405180830381600087803b1580156118bd57600080fd5b505af11580156118d1573d6000803e3d6000fd5b5050505050505050565b6000805160206144828339815191526118f381611b4b565b6101945461190c906001600160a01b0316858585612426565b50505050565b61191a611bf0565b6001600160a01b031661193661012d546001600160a01b031690565b6001600160a01b03161461195c5760405162461bcd60e51b8152600401610a1f9061407c565b6001600160a01b0381166119c15760405162461bcd60e51b815260206004820152602660248201527f4f776e61626c653a206e6577206f776e657220697320746865207a65726f206160448201526564647265737360d01b6064820152608401610a1f565b6119ca81611c21565b50565b6000805160206144828339815191526119e581611b4b565b61019354604051637bbef24360e11b81526001600160a01b0384811660048301526101009092049091169063f77de48690602401600060405180830381600087803b158015611a3357600080fd5b505af1158015611a47573d6000803e3d6000fd5b505050505050565b6000611a59611bf0565b6001600160a01b0316611a7561012d546001600160a01b031690565b6001600160a01b031614611a9b5760405162461bcd60e51b8152600401610a1f9061407c565b6000611aa5611bf0565b905060005b8451811015611b0e57611af082868381518110611ac957611ac9613f43565b6020026020010151868481518110611ae357611ae3613f43565b60200260200101516125c5565b611afa90846140b1565b925080611b06816140c9565b915050611aaa565b505092915050565b60006001600160e01b03198216637965db0b60e01b148061093e57506301ffc9a760e01b6001600160e01b031983161461093e565b6119ca81611b57611bf0565b612655565b6000806000806000806000611b748d8d8d8d8d6126b9565b949a5092985090965094509250905087158015611b92575060008651115b15611ba457611ba48f8f888888612b67565b825115611bbc57611bb98f8f8585858d612c91565b96505b50505050505098975050505050505050565b611bd88282612f31565b600082815260c960205260409020610d649082612fb8565b6000611bfa612fcd565b905090565b611c098282613001565b600082815260c960205260409020610d649082613086565b61012d80546001600160a01b038381166001600160a01b0319831681179093556040519116919082907f8be0079c531659141344cd1fd0a4f28419497f9722a3daafe3b4186f6b6457e090600090a35050565b6000610eed838361309b565b60006001600160a01b038516611cd15760405162461bcd60e51b8152602060048201526016602482015275125b9d985b1a59081d185c99d95d10dbdb9d1c9858dd60521b6044820152606401610a1f565b600080600088815261016a602052604090205460ff166001811115611cf857611cf8613a8e565b14611d0f57610167546001600160a01b0316611d1d565b610166546001600160a01b03165b60405163bebc4f7160e01b81529091506001600160a01b0382169063bebc4f7190611d52908a908a908a908a906004016140e4565b60206040518083038186803b158015611d6a57600080fd5b505afa158015611d7e573d6000803e3d6000fd5b505050506040513d601f19601f82011682018060405250810190611da29190613f59565b915082158015611db25750814710155b15611e1e57604051630ef95ceb60e31b81526001600160a01b038216906377cae758908490611deb908b908b908b908b906004016140e4565b6000604051808303818588803b158015611e0457600080fd5b505af1158015611e18573d6000803e3d6000fd5b50505050505b5095945050505050565b600046841415611e505761019454611e4b906001600160a01b0316868585612426565b61165d565b600063e9e81a6a60e01b868585604051602401611e6f93929190613f72565b60408051601f19818403018152918152602080830180516001600160e01b03166001600160e01b0319909516949094179093526000888152610169909352822054909250611eca9187916001600160a01b0316908481611c80565b9695505050505050565b604080516001600160a01b038416602482015260448082018490528251808303909101815260649091019091526020810180516001600160e01b031663a9059cbb60e01b179052610d649084906130c5565b600080856001600160a01b031663e75235b86040518163ffffffff1660e01b815260040160206040518083038186803b158015611f6257600080fd5b505afa158015611f76573d6000803e3d6000fd5b505050506040513d601f19601f82011682018060405250810190611f9a9190613f59565b905080611fab57600091505061165d565b611eca8686868685613197565b60419081029190910160208101516040820151919092015160ff1692565b600061093e825490565b83516000906060908190839081865b82811015612062578661201d578a818151811061200e5761200e613f43565b60200260200101519650612042565b8a818151811061202f5761202f613f43565b6020026020010151871461204257612062565b8161204c816140c9565b925050808061205a906140c9565b915050611fef565b5061206d81886140b1565b925080156121b057806001600160401b0381111561208d5761208d6138f5565b6040519080825280602002602001820160405280156120b6578160200160208202803683370190505b509450806001600160401b038111156120d1576120d16138f5565b6040519080825280602002602001820160405280156120fa578160200160208202803683370190505b50935060009050865b838110156121ae5789818151811061211d5761211d613f43565b602002602001015186838151811061213757612137613f43565b60200260200101906001600160a01b031690816001600160a01b03168152505088818151811061216957612169613f43565b602002602001015185838151811061218357612183613f43565b602090810291909101015281612198816140c9565b92505080806121a6906140c9565b915050612103565b505b5050945094509450949050565b60004685141561239d576001600160a01b0386166000908152610165602052604081205490805b8551811015612226578581815181106121ff576121ff613f43565b60200260200101518261221291906140b1565b91508061221e816140c9565b9150506121e4565b50610163546040805163313ce56760e01b815290516006926001600160a01b03169163313ce567916004808301926020929190829003018186803b15801561226d57600080fd5b505afa158015612281573d6000803e3d6000fd5b505050506040513d601f19601f820116820180604052508101906122a59190614111565b6122af9190614134565b6122ba90600a61423b565b6122c4908261424a565b90508082101561230d5760405162461bcd60e51b8152602060048201526014602482015273496e73756666696369656e742062616c616e636560601b6044820152606401610a1f565b6123178183613fa9565b6001600160a01b03808a1660009081526101656020526040908190209290925561019454915163582712b160e01b815291169063582712b190612364908b908a908a908a90600401614034565b600060405180830381600087803b15801561237e57600080fd5b505af1158015612392573d6000803e3d6000fd5b50505050505061241d565b600063582712b160e01b878686866040516024016123be9493929190614034565b60408051601f19818403018152918152602080830180516001600160e01b03166001600160e01b03199095169490941790935260008981526101699093528220549092506124199188916001600160a01b0316908481611c80565b9150505b95945050505050565b610163546040516370a0823160e01b81523060048201526000916001600160a01b0316906370a082319060240160206040518083038186803b15801561246b57600080fd5b505afa15801561247f573d6000803e3d6000fd5b505050506040513d601f19601f820116820180604052508101906124a39190613f59565b6040516374f40d3560e11b81529091506001600160a01b0386169063e9e81a6a906124d690879087908790600401613f72565b600060405180830381600087803b1580156124f057600080fd5b505af1158015612504573d6000803e3d6000fd5b5050610163546040516370a0823160e01b81523060048201528493506001600160a01b0390911691506370a082319060240160206040518083038186803b15801561254e57600080fd5b505afa158015612562573d6000803e3d6000fd5b505050506040513d601f19601f820116820180604052508101906125869190613f59565b6125909190613fa9565b6001600160a01b03851660009081526101656020526040812080549091906125b99084906140b1565b90915550505050505050565b60004683811461264d5760006328054fb760e01b8683866040516024016125ee93929190614269565b60408051601f19818403018152918152602080830180516001600160e01b03166001600160e01b03199095169490941790935260008881526101699093528220549092506126499187916001600160a01b0316908481611c80565b9250505b509392505050565b61265f8282610ef4565b610df357612677816001600160a01b031660146133f1565b6126828360206133f1565b60405160200161269392919061428d565b60408051601f198184030181529082905262461bcd60e51b8252610a1f91600401613b2c565b60608060608060608060008060005b898110156127685760008b82815181106126e4576126e4613f43565b602002602001015160018111156126fd576126fd613a8e565b1415612715578261270d816140c9565b935050612756565b60018b828151811061272957612729613f43565b6020026020010151600181111561274257612742613a8e565b14156127565781612752816140c9565b9250505b80612760816140c9565b9150506126c8565b50816001600160401b03811115612781576127816138f5565b6040519080825280602002602001820160405280156127aa578160200160208202803683370190505b509750816001600160401b038111156127c5576127c56138f5565b6040519080825280602002602001820160405280156127ee578160200160208202803683370190505b509650816001600160401b03811115612809576128096138f5565b604051908082528060200260200182016040528015612832578160200160208202803683370190505b509550806001600160401b0381111561284d5761284d6138f5565b604051908082528060200260200182016040528015612876578160200160208202803683370190505b509450806001600160401b03811115612891576128916138f5565b6040519080825280602002602001820160405280156128ba578160200160208202803683370190505b509350806001600160401b038111156128d5576128d56138f5565b6040519080825280602002602001820160405280156128fe578160200160208202803683370190505b509250600091506000905060005b89811015612b575760008b828151811061292857612928613f43565b6020026020010151600181111561294157612941613a8e565b1415612a0d578d818151811061295957612959613f43565b602002602001015189848151811061297357612973613f43565b6020026020010181815250508c818151811061299157612991613f43565b60200260200101518884815181106129ab576129ab613f43565b6020026020010181815250508b81815181106129c9576129c9613f43565b60200260200101518784815181106129e3576129e3613f43565b6001600160a01b039092166020928302919091019091015282612a05816140c9565b935050612b45565b60018b8281518110612a2157612a21613f43565b60200260200101516001811115612a3a57612a3a613a8e565b1415612b06578d8181518110612a5257612a52613f43565b6020026020010151868381518110612a6c57612a6c613f43565b6020026020010181815250508c8181518110612a8a57612a8a613f43565b6020026020010151858381518110612aa457612aa4613f43565b6020026020010181815250508b8181518110612ac257612ac2613f43565b6020026020010151848381518110612adc57612adc613f43565b6001600160a01b039092166020928302919091019091015281612afe816140c9565b925050612b45565b60405162461bcd60e51b8152602060048201526014602482015273496e76616c69642061646170746572207479706560601b6044820152606401610a1f565b80612b4f816140c9565b91505061290c565b5050509550955095509550955095565b82516101665460405163219d5ca560e01b81526001600160a01b039091169063219d5ca590612ba0908890889088908890600401614302565b600060405180830381600087803b158015612bba57600080fd5b505af1158015612bce573d6000803e3d6000fd5b505050506000612bdb4690565b905060005b828110156118d157848181518110612bfa57612bfa613f43565b6020026020010151868281518110612c1457612c14613f43565b6020026020010151896001600160a01b03167f3ba03e6b4cb24f75ab77e3b8fb7ea0a24af301c15f5fb5709dd68c39604888158a86898781518110612c5b57612c5b613f43565b6020026020010151600080604051612c7795949392919061434c565b60405180910390a480612c89816140c9565b915050612be0565b600080855190508061016760009054906101000a90046001600160a01b03166001600160a01b0316633b11ca516040518163ffffffff1660e01b815260040160206040518083038186803b158015612ce857600080fd5b505afa158015612cfc573d6000803e3d6000fd5b505050506040513d601f19601f82011682018060405250810190612d209190613f59565b612d2a919061424a565b915082158015612d3a5750814710155b15612f2657610167546040805163057ff68760e51b815290516000926001600160a01b03169163affed0e0916004808301926020929190829003018186803b158015612d8557600080fd5b505afa158015612d99573d6000803e3d6000fd5b505050506040513d601f19601f82011682018060405250810190612dbd9190613f59565b6101675460405163219d5ca560e01b81529192506001600160a01b03169063219d5ca5908590612df7908c908c908c908c90600401614302565b6000604051808303818588803b158015612e1057600080fd5b505af1158015612e24573d6000803e3d6000fd5b50505050506000612e324690565b905060005b83811015612f22576000612e4b82856140b1565b60008181526101686020526040902080546001600160a01b0319166001600160a01b038f161790558951909150899083908110612e8a57612e8a613f43565b60200260200101518a8381518110612ea457612ea4613f43565b60200260200101518d6001600160a01b03167f3ba03e6b4cb24f75ab77e3b8fb7ea0a24af301c15f5fb5709dd68c39604888158e878d8881518110612eeb57612eeb613f43565b6020026020010151600188604051612f0795949392919061434c565b60405180910390a45080612f1a816140c9565b915050612e37565b5050505b509695505050505050565b612f3b8282610ef4565b610df35760008281526097602090815260408083206001600160a01b03851684529091529020805460ff19166001179055612f74611bf0565b6001600160a01b0316816001600160a01b0316837f2f8788117e7eff1d82e926ec794901d17c78024a50270940304540a733656f0d60405160405180910390a45050565b6000610eed836001600160a01b03841661358c565b600060183610801590612fea57506000546001600160a01b031633145b15612ffc575060131936013560601c90565b503390565b61300b8282610ef4565b15610df35760008281526097602090815260408083206001600160a01b03851684529091529020805460ff19169055613042611bf0565b6001600160a01b0316816001600160a01b0316837ff6391f5c32d9c69d2a47ea670b442974b53935d1edc7fd64eb21e047a839171b60405160405180910390a45050565b6000610eed836001600160a01b0384166135db565b60008260000182815481106130b2576130b2613f43565b9060005260206000200154905092915050565b600061311a826040518060400160405280602081526020017f5361666545524332303a206c6f772d6c6576656c2063616c6c206661696c6564815250856001600160a01b03166136ce9092919063ffffffff16565b805190915015610d6457808060200190518101906131389190614388565b610d645760405162461bcd60e51b815260206004820152602a60248201527f5361666545524332303a204552433230206f7065726174696f6e20646964206e6044820152691bdd081cdd58d8d9595960b21b6064820152608401610a1f565b60006131a482604161424a565b835110156131b45750600061241d565b600080876001600160a01b031663a0e67e2b6040518163ffffffff1660e01b815260040160006040518083038186803b1580156131f057600080fd5b505afa158015613204573d6000803e3d6000fd5b505050506040513d6000823e601f3d908101601f1916820160405261322c91908101906143aa565b905060008080805b878110156133df5760418181028a0160208101516040820151919092015160ff16955090935091508361330f57919450849161327188604161424a565b821015613287576000965050505050505061241d565b88516132948360206140b1565b11156132a9576000965050505050505061241d565b6020828a018101518a51909182906132c29086906140b1565b6132cc91906140b1565b11156132e257600097505050505050505061241d565b8983016020016132f3888d836136dd565b6133085760009850505050505050505061241d565b50506133b0565b6040517f19457468657265756d205369676e6564204d6573736167653a0a3332000000006020820152603c81018c9052600190605c0160408051601f198184030181528282528051602091820120600084529083018083525260ff871690820152606081018590526080810184905260a0016020604051602081039080840390855afa1580156133a3573d6000803e3d6000fd5b5050506020604051035195505b6133ba85876136f7565b6133cd576000965050505050505061241d565b806133d7816140c9565b915050613234565b5060019b9a5050505050505050505050565b6060600061340083600261424a565b61340b9060026140b1565b6001600160401b03811115613422576134226138f5565b6040519080825280601f01601f19166020018201604052801561344c576020820181803683370190505b509050600360fc1b8160008151811061346757613467613f43565b60200101906001600160f81b031916908160001a905350600f60fb1b8160018151811061349657613496613f43565b60200101906001600160f81b031916908160001a90535060006134ba84600261424a565b6134c59060016140b1565b90505b600181111561353d576f181899199a1a9b1b9c1cb0b131b232b360811b85600f16601081106134f9576134f9613f43565b1a60f81b82828151811061350f5761350f613f43565b60200101906001600160f81b031916908160001a90535060049490941c9361353681614438565b90506134c8565b508315610eed5760405162461bcd60e51b815260206004820181905260248201527f537472696e67733a20686578206c656e67746820696e73756666696369656e746044820152606401610a1f565b60008181526001830160205260408120546135d35750815460018181018455600084815260208082209093018490558454848252828601909352604090209190915561093e565b50600061093e565b600081815260018301602052604081205480156136c45760006135ff600183613fa9565b855490915060009061361390600190613fa9565b905081811461367857600086600001828154811061363357613633613f43565b906000526020600020015490508087600001848154811061365657613656613f43565b6000918252602080832090910192909255918252600188019052604090208390555b85548690806136895761368961444f565b60019003818190600052602060002001600090559055856001016000868152602001908152602001600020600090556001935050505061093e565b600091505061093e565b606061165d8484600085613761565b6000806136e984610944565b905061241d85828686611f26565b8151600090815b8181101561375657836001600160a01b031685828151811061372257613722613f43565b60200260200101516001600160a01b031614156137445760019250505061093e565b8061374e816140c9565b9150506136fe565b506000949350505050565b6060824710156137c25760405162461bcd60e51b815260206004820152602660248201527f416464726573733a20696e73756666696369656e742062616c616e636520666f6044820152651c8818d85b1b60d21b6064820152608401610a1f565b6001600160a01b0385163b6138195760405162461bcd60e51b815260206004820152601d60248201527f416464726573733a2063616c6c20746f206e6f6e2d636f6e74726163740000006044820152606401610a1f565b600080866001600160a01b031685876040516138359190614465565b60006040518083038185875af1925050503d8060008114613872576040519150601f19603f3d011682016040523d82523d6000602084013e613877565b606091505b5091509150613887828286613892565b979650505050505050565b606083156138a1575081610eed565b8251156138b15782518084602001fd5b8160405162461bcd60e51b8152600401610a1f9190613b2c565b6000602082840312156138dd57600080fd5b81356001600160e01b031981168114610eed57600080fd5b634e487b7160e01b600052604160045260246000fd5b604051601f8201601f191681016001600160401b0381118282101715613933576139336138f5565b604052919050565b600082601f83011261394c57600080fd5b81356001600160401b03811115613965576139656138f5565b613978601f8201601f191660200161390b565b81815284602083860101111561398d57600080fd5b816020850160208301376000918101602001919091529392505050565b6000602082840312156139bc57600080fd5b81356001600160401b038111156139d257600080fd5b61165d8482850161393b565b6000602082840312156139f057600080fd5b5035919050565b6001600160a01b03811681146119ca57600080fd5b803560028110613a1b57600080fd5b919050565b600080600060608486031215613a3557600080fd5b8335613a40816139f7565b925060208401359150613a5560408501613a0c565b90509250925092565b60008060408385031215613a7157600080fd5b823591506020830135613a83816139f7565b809150509250929050565b634e487b7160e01b600052602160045260246000fd5b60028110613ac257634e487b7160e01b600052602160045260246000fd5b9052565b6020810161093e8284613aa4565b60005b83811015613aef578181015183820152602001613ad7565b8381111561190c5750506000910152565b60008151808452613b18816020860160208601613ad4565b601f01601f19169290920160200192915050565b602081526000610eed6020830184613b00565b600060208284031215613b5157600080fd5b8135610eed816139f7565b60006001600160401b03821115613b7557613b756138f5565b5060051b60200190565b600082601f830112613b9057600080fd5b81356020613ba5613ba083613b5c565b61390b565b82815260059290921b84018101918181019086841115613bc457600080fd5b8286015b84811015612f26578035613bdb816139f7565b8352918301918301613bc8565b600082601f830112613bf957600080fd5b81356020613c09613ba083613b5c565b82815260059290921b84018101918181019086841115613c2857600080fd5b8286015b84811015612f265780358352918301918301613c2c565b60008060008060808587031215613c5957600080fd5b8435613c64816139f7565b935060208501356001600160401b0380821115613c8057600080fd5b613c8c88838901613b7f565b94506040870135915080821115613ca257600080fd5b50613caf87828801613be8565b949793965093946060013593505050565b60008060408385031215613cd357600080fd5b50508035926020909101359150565b600080600060608486031215613cf757600080fd5b83356001600160401b03811115613d0d57600080fd5b613d1986828701613be8565b9660208601359650604090950135949350505050565b60008060408385031215613d4257600080fd5b8235613d4d816139f7565b946020939093013593505050565b60008060008060608587031215613d7157600080fd5b8435613d7c816139f7565b935060208501356001600160401b0380821115613d9857600080fd5b613da48883890161393b565b94506040870135915080821115613dba57600080fd5b818701915087601f830112613dce57600080fd5b813581811115613ddd57600080fd5b886020828501011115613def57600080fd5b95989497505060200194505050565b60008060008060808587031215613e1457600080fd5b84356001600160401b0380821115613e2b57600080fd5b613e3788838901613be8565b95506020870135915080821115613c8057600080fd5b600080600060608486031215613e6257600080fd5b8335613e6d816139f7565b95602085013595506040909401359392505050565b60008060408385031215613e9557600080fd5b82356001600160401b0380821115613eac57600080fd5b613eb886838701613be8565b9350602091508185013581811115613ecf57600080fd5b85019050601f81018613613ee257600080fd5b8035613ef0613ba082613b5c565b81815260059190911b82018301908381019088831115613f0f57600080fd5b928401925b82841015613f3457613f2584613a0c565b82529284019290840190613f14565b80955050505050509250929050565b634e487b7160e01b600052603260045260246000fd5b600060208284031215613f6b57600080fd5b5051919050565b6001600160a01b039390931683526020830191909152604082015260600190565b634e487b7160e01b600052601160045260246000fd5b600082821015613fbb57613fbb613f93565b500390565b600081518084526020808501945080840160005b83811015613ff95781516001600160a01b031687529582019590820190600101613fd4565b509495945050505050565b600081518084526020808501945080840160005b83811015613ff957815187529582019590820190600101614018565b6001600160a01b038516815260806020820181905260009061405890830186613fc0565b828103604084015261406a8186614004565b91505082606083015295945050505050565b6020808252818101527f4f776e61626c653a2063616c6c6572206973206e6f7420746865206f776e6572604082015260600190565b600082198211156140c4576140c4613f93565b500190565b60006000198214156140dd576140dd613f93565b5060010190565b84815260018060a01b0384166020820152826040820152608060608201526000611eca6080830184613b00565b60006020828403121561412357600080fd5b815160ff81168114610eed57600080fd5b600060ff821660ff84168082101561414e5761414e613f93565b90039392505050565b600181815b8085111561419257816000190482111561417857614178613f93565b8085161561418557918102915b93841c939080029061415c565b509250929050565b6000826141a95750600161093e565b816141b65750600061093e565b81600181146141cc57600281146141d6576141f2565b600191505061093e565b60ff8411156141e7576141e7613f93565b50506001821b61093e565b5060208310610133831016604e8410600b8410161715614215575081810a61093e565b61421f8383614157565b806000190482111561423357614233613f93565b029392505050565b6000610eed60ff84168361419a565b600081600019048311821515161561426457614264613f93565b500290565b6001600160a01b0384168152602081018390526060810161165d6040830184613aa4565b7f416363657373436f6e74726f6c3a206163636f756e74200000000000000000008152600083516142c5816017850160208801613ad4565b7001034b99036b4b9b9b4b733903937b6329607d1b60179184019182015283516142f6816028840160208801613ad4565b01602801949350505050565b6001600160a01b038516815260806020820181905260009061432690830186614004565b82810360408401526143388186614004565b905082810360608401526124198185613fc0565b6001600160a01b038681168252602082018690528416604082015260a081016143786060830185613aa4565b8260808301529695505050505050565b60006020828403121561439a57600080fd5b81518015158114610eed57600080fd5b600060208083850312156143bd57600080fd5b82516001600160401b038111156143d357600080fd5b8301601f810185136143e457600080fd5b80516143f2613ba082613b5c565b81815260059190911b8201830190838101908783111561441157600080fd5b928401925b82841015613887578351614429816139f7565b82529284019290840190614416565b60008161444757614447613f93565b506000190190565b634e487b7160e01b600052603160045260246000fd5b60008251614477818460208701613ad4565b919091019291505056fedbeb657137b1822b3d5418bea6fd641226d964b4c3871ef23546db2622258871a264697066735822122007e188e1dd1f59d58b30da8c2d9ae65b58f6854bb7f8b4df4e76cf567e57497a64736f6c63430008090033",
  "devdoc": {
    "kind": "dev",
    "methods": {
      "burn(uint256,uint256)": {
        "details": "It calls burnByAdmin of BNIMinter.",
        "params": {
          "_pool": "total pool in USD",
          "_share": "amount of shares"
        }
      },
      "deposit(uint256[],address[],uint256[],uint256)": {
        "details": "It calls depositByAgent of BNIVaults."
      },
      "exitWithdrawal(uint256)": {
        "details": "It calls exitWithdrawalByAdmin of BNIMinter.",
        "params": {
          "_gatheredAmount": "is the amount of token that is gathered."
        }
      },
      "gather(uint256[],uint8[])": {
        "details": "It gathers withdrawn tokens of the user from user agents."
      },
      "getMessageHashForSafe(bytes)": {
        "details": "Returns hash of a message that can be signed by owners.",
        "params": {
          "message": "Message that should be hashed"
        },
        "returns": {
          "_0": "Message hash."
        }
      },
      "getRoleAdmin(bytes32)": {
        "details": "Returns the admin role that controls `role`. See {grantRole} and {revokeRole}. To change a role's admin, use {_setRoleAdmin}."
      },
      "getRoleMember(bytes32,uint256)": {
        "details": "Returns one of the accounts that have `role`. `index` must be a value between 0 and {getRoleMemberCount}, non-inclusive. Role bearers are not sorted in any particular way, and their ordering may change at any point. WARNING: When using {getRoleMember} and {getRoleMemberCount}, make sure you perform all queries on the same block. See the following https://forum.openzeppelin.com/t/iterating-over-elements-on-enumerableset-in-openzeppelin-contracts/2296[forum post] for more information."
      },
      "getRoleMemberCount(bytes32)": {
        "details": "Returns the number of accounts that have `role`. Can be used together with {getRoleMember} to enumerate all bearers of a role."
      },
      "grantRole(bytes32,address)": {
        "details": "Grants `role` to `account`. If `account` had not been already granted `role`, emits a {RoleGranted} event. Requirements: - the caller must have ``role``'s admin role."
      },
      "hasRole(bytes32,address)": {
        "details": "Returns `true` if `account` has been granted `role`."
      },
      "mint(uint256)": {
        "details": "It calls mintByAdmin of BNIMinter."
      },
      "owner()": {
        "details": "Returns the address of the current owner."
      },
      "paused()": {
        "details": "Returns true if the contract is paused, and false otherwise."
      },
      "renounceOwnership()": {
        "details": "Leaves the contract without owner. It will not be possible to call `onlyOwner` functions anymore. Can only be called by the current owner. NOTE: Renouncing ownership will leave the contract without an owner, thereby removing any functionality that is only available to the owner."
      },
      "renounceRole(bytes32,address)": {
        "details": "Revokes `role` from the calling account. Roles are often managed via {grantRole} and {revokeRole}: this function's purpose is to provide a mechanism for accounts to lose their privileges if they are compromised (such as when a trusted device is misplaced). If the calling account had been revoked `role`, emits a {RoleRevoked} event. Requirements: - the caller must be `account`."
      },
      "revokeRole(bytes32,address)": {
        "details": "Revokes `role` from `account`. If `account` had been granted `role`, emits a {RoleRevoked} event. Requirements: - the caller must have ``role``'s admin role."
      },
      "supportsInterface(bytes4)": {
        "details": "See {IERC165-supportsInterface}."
      },
      "takeOut(uint256)": {
        "details": "It takes out tokens from this agent.",
        "params": {
          "_gatheredAmount": "is the amount of token that is gathered."
        }
      },
      "transferOwnership(address)": {
        "details": "Transfers ownership of the contract to a new account (`newOwner`). Can only be called by the current owner."
      },
      "withdraw(uint256[],uint256,uint256)": {
        "details": "It calls withdrawPercByAgent of BNIVaults."
      }
    },
    "version": 1
  },
  "userdoc": {
    "kind": "user",
    "methods": {
      "exitWithdrawal(uint256)": {
        "notice": "_gatheredAmount doesn't include the balance which is withdrawan in this agent."
      },
      "isTrustedForwarder(address)": {
        "notice": "return if the forwarder is trusted to forward relayed transactions to us. the forwarder is required to verify the sender's signature, and verify the call is not a replay."
      },
      "takeOut(uint256)": {
        "notice": "_gatheredAmount doesn't include the balance which is withdrawan in this agent."
      }
    },
    "version": 1
  },
  "storageLayout": {
    "storage": [
      {
        "astId": 68210,
        "contract": "contracts/xchain/agent/test/UserAgentSubTest.sol:UserAgentSubTest",
        "label": "trustedForwarder",
        "offset": 0,
        "slot": "0",
        "type": "t_address"
      },
      {
        "astId": 713,
        "contract": "contracts/xchain/agent/test/UserAgentSubTest.sol:UserAgentSubTest",
        "label": "_initialized",
        "offset": 20,
        "slot": "0",
        "type": "t_uint8"
      },
      {
        "astId": 716,
        "contract": "contracts/xchain/agent/test/UserAgentSubTest.sol:UserAgentSubTest",
        "label": "_initializing",
        "offset": 21,
        "slot": "0",
        "type": "t_bool"
      },
      {
        "astId": 68750,
        "contract": "contracts/xchain/agent/test/UserAgentSubTest.sol:UserAgentSubTest",
        "label": "separator",
        "offset": 0,
        "slot": "1",
        "type": "t_bytes32"
      },
      {
        "astId": 69167,
        "contract": "contracts/xchain/agent/test/UserAgentSubTest.sol:UserAgentSubTest",
        "label": "__gap",
        "offset": 0,
        "slot": "2",
        "type": "t_array(t_uint256)49_storage"
      },
      {
        "astId": 3292,
        "contract": "contracts/xchain/agent/test/UserAgentSubTest.sol:UserAgentSubTest",
        "label": "__gap",
        "offset": 0,
        "slot": "51",
        "type": "t_array(t_uint256)50_storage"
      },
      {
        "astId": 3946,
        "contract": "contracts/xchain/agent/test/UserAgentSubTest.sol:UserAgentSubTest",
        "label": "__gap",
        "offset": 0,
        "slot": "101",
        "type": "t_array(t_uint256)50_storage"
      },
      {
        "astId": 184,
        "contract": "contracts/xchain/agent/test/UserAgentSubTest.sol:UserAgentSubTest",
        "label": "_roles",
        "offset": 0,
        "slot": "151",
        "type": "t_mapping(t_bytes32,t_struct(RoleData)179_storage)"
      },
      {
        "astId": 483,
        "contract": "contracts/xchain/agent/test/UserAgentSubTest.sol:UserAgentSubTest",
        "label": "__gap",
        "offset": 0,
        "slot": "152",
        "type": "t_array(t_uint256)49_storage"
      },
      {
        "astId": 33,
        "contract": "contracts/xchain/agent/test/UserAgentSubTest.sol:UserAgentSubTest",
        "label": "_roleMembers",
        "offset": 0,
        "slot": "201",
        "type": "t_mapping(t_bytes32,t_struct(AddressSet)4359_storage)"
      },
      {
        "astId": 143,
        "contract": "contracts/xchain/agent/test/UserAgentSubTest.sol:UserAgentSubTest",
        "label": "__gap",
        "offset": 0,
        "slot": "202",
        "type": "t_array(t_uint256)49_storage"
      },
      {
        "astId": 869,
        "contract": "contracts/xchain/agent/test/UserAgentSubTest.sol:UserAgentSubTest",
        "label": "_paused",
        "offset": 0,
        "slot": "251",
        "type": "t_bool"
      },
      {
        "astId": 958,
        "contract": "contracts/xchain/agent/test/UserAgentSubTest.sol:UserAgentSubTest",
        "label": "__gap",
        "offset": 0,
        "slot": "252",
        "type": "t_array(t_uint256)49_storage"
      },
      {
        "astId": 593,
        "contract": "contracts/xchain/agent/test/UserAgentSubTest.sol:UserAgentSubTest",
        "label": "_owner",
        "offset": 0,
        "slot": "301",
        "type": "t_address"
      },
      {
        "astId": 705,
        "contract": "contracts/xchain/agent/test/UserAgentSubTest.sol:UserAgentSubTest",
        "label": "__gap",
        "offset": 0,
        "slot": "302",
        "type": "t_array(t_uint256)49_storage"
      },
      {
        "astId": 59557,
        "contract": "contracts/xchain/agent/test/UserAgentSubTest.sol:UserAgentSubTest",
        "label": "admin",
        "offset": 0,
        "slot": "351",
        "type": "t_address"
      },
      {
        "astId": 59561,
        "contract": "contracts/xchain/agent/test/UserAgentSubTest.sol:UserAgentSubTest",
        "label": "nonces",
        "offset": 0,
        "slot": "352",
        "type": "t_mapping(t_address,t_uint256)"
      },
      {
        "astId": 59564,
        "contract": "contracts/xchain/agent/test/UserAgentSubTest.sol:UserAgentSubTest",
        "label": "swap",
        "offset": 0,
        "slot": "353",
        "type": "t_contract(ISwap)56041"
      },
      {
        "astId": 59567,
        "contract": "contracts/xchain/agent/test/UserAgentSubTest.sol:UserAgentSubTest",
        "label": "USDC",
        "offset": 0,
        "slot": "354",
        "type": "t_contract(IERC20Upgradeable)1707"
      },
      {
        "astId": 59570,
        "contract": "contracts/xchain/agent/test/UserAgentSubTest.sol:UserAgentSubTest",
        "label": "USDT",
        "offset": 0,
        "slot": "355",
        "type": "t_contract(IERC20Upgradeable)1707"
      },
      {
        "astId": 59574,
        "contract": "contracts/xchain/agent/test/UserAgentSubTest.sol:UserAgentSubTest",
        "label": "usdcBalances",
        "offset": 0,
        "slot": "356",
        "type": "t_mapping(t_address,t_uint256)"
      },
      {
        "astId": 59578,
        "contract": "contracts/xchain/agent/test/UserAgentSubTest.sol:UserAgentSubTest",
        "label": "usdtBalances",
        "offset": 0,
        "slot": "357",
        "type": "t_mapping(t_address,t_uint256)"
      },
      {
        "astId": 59581,
        "contract": "contracts/xchain/agent/test/UserAgentSubTest.sol:UserAgentSubTest",
        "label": "multichainAdapter",
        "offset": 0,
        "slot": "358",
        "type": "t_contract(IXChainAdapter)56345"
      },
      {
        "astId": 59584,
        "contract": "contracts/xchain/agent/test/UserAgentSubTest.sol:UserAgentSubTest",
        "label": "cbridgeAdapter",
        "offset": 0,
        "slot": "359",
        "type": "t_contract(IXChainAdapter)56345"
      },
      {
        "astId": 59588,
        "contract": "contracts/xchain/agent/test/UserAgentSubTest.sol:UserAgentSubTest",
        "label": "cbridgeSenders",
        "offset": 0,
        "slot": "360",
        "type": "t_mapping(t_uint256,t_address)"
      },
      {
        "astId": 59592,
        "contract": "contracts/xchain/agent/test/UserAgentSubTest.sol:UserAgentSubTest",
        "label": "userAgents",
        "offset": 0,
        "slot": "361",
        "type": "t_mapping(t_uint256,t_address)"
      },
      {
        "astId": 59597,
        "contract": "contracts/xchain/agent/test/UserAgentSubTest.sol:UserAgentSubTest",
        "label": "callAdapterTypes",
        "offset": 0,
        "slot": "362",
        "type": "t_mapping(t_uint256,t_enum(AdapterType)59550)"
      },
      {
        "astId": 60233,
        "contract": "contracts/xchain/agent/test/UserAgentSubTest.sol:UserAgentSubTest",
        "label": "__gap",
        "offset": 0,
        "slot": "363",
        "type": "t_array(t_uint256)39_storage"
      },
      {
        "astId": 57251,
        "contract": "contracts/xchain/agent/test/UserAgentSubTest.sol:UserAgentSubTest",
        "label": "chainIdOnLP",
        "offset": 0,
        "slot": "402",
        "type": "t_uint256"
      },
      {
        "astId": 57253,
        "contract": "contracts/xchain/agent/test/UserAgentSubTest.sol:UserAgentSubTest",
        "label": "isLPChain",
        "offset": 0,
        "slot": "403",
        "type": "t_bool"
      },
      {
        "astId": 57256,
        "contract": "contracts/xchain/agent/test/UserAgentSubTest.sol:UserAgentSubTest",
        "label": "bniMinter",
        "offset": 1,
        "slot": "403",
        "type": "t_contract(IBNIMinter)10340"
      },
      {
        "astId": 57259,
        "contract": "contracts/xchain/agent/test/UserAgentSubTest.sol:UserAgentSubTest",
        "label": "bniVault",
        "offset": 0,
        "slot": "404",
        "type": "t_contract(IBNIVault)10387"
      },
      {
        "astId": 57261,
        "contract": "contracts/xchain/agent/test/UserAgentSubTest.sol:UserAgentSubTest",
        "label": "subImpl",
        "offset": 0,
        "slot": "405",
        "type": "t_address"
      }
    ],
    "types": {
      "t_address": {
        "encoding": "inplace",
        "label": "address",
        "numberOfBytes": "20"
      },
      "t_array(t_bytes32)dyn_storage": {
        "base": "t_bytes32",
        "encoding": "dynamic_array",
        "label": "bytes32[]",
        "numberOfBytes": "32"
      },
      "t_array(t_uint256)39_storage": {
        "base": "t_uint256",
        "encoding": "inplace",
        "label": "uint256[39]",
        "numberOfBytes": "1248"
      },
      "t_array(t_uint256)49_storage": {
        "base": "t_uint256",
        "encoding": "inplace",
        "label": "uint256[49]",
        "numberOfBytes": "1568"
      },
      "t_array(t_uint256)50_storage": {
        "base": "t_uint256",
        "encoding": "inplace",
        "label": "uint256[50]",
        "numberOfBytes": "1600"
      },
      "t_bool": {
        "encoding": "inplace",
        "label": "bool",
        "numberOfBytes": "1"
      },
      "t_bytes32": {
        "encoding": "inplace",
        "label": "bytes32",
        "numberOfBytes": "32"
      },
      "t_contract(IBNIMinter)10340": {
        "encoding": "inplace",
        "label": "contract IBNIMinter",
        "numberOfBytes": "20"
      },
      "t_contract(IBNIVault)10387": {
        "encoding": "inplace",
        "label": "contract IBNIVault",
        "numberOfBytes": "20"
      },
      "t_contract(IERC20Upgradeable)1707": {
        "encoding": "inplace",
        "label": "contract IERC20Upgradeable",
        "numberOfBytes": "20"
      },
      "t_contract(ISwap)56041": {
        "encoding": "inplace",
        "label": "contract ISwap",
        "numberOfBytes": "20"
      },
      "t_contract(IXChainAdapter)56345": {
        "encoding": "inplace",
        "label": "contract IXChainAdapter",
        "numberOfBytes": "20"
      },
      "t_enum(AdapterType)59550": {
        "encoding": "inplace",
        "label": "enum BasicUserAgentBase.AdapterType",
        "numberOfBytes": "1"
      },
      "t_mapping(t_address,t_bool)": {
        "encoding": "mapping",
        "key": "t_address",
        "label": "mapping(address => bool)",
        "numberOfBytes": "32",
        "value": "t_bool"
      },
      "t_mapping(t_address,t_uint256)": {
        "encoding": "mapping",
        "key": "t_address",
        "label": "mapping(address => uint256)",
        "numberOfBytes": "32",
        "value": "t_uint256"
      },
      "t_mapping(t_bytes32,t_struct(AddressSet)4359_storage)": {
        "encoding": "mapping",
        "key": "t_bytes32",
        "label": "mapping(bytes32 => struct EnumerableSetUpgradeable.AddressSet)",
        "numberOfBytes": "32",
        "value": "t_struct(AddressSet)4359_storage"
      },
      "t_mapping(t_bytes32,t_struct(RoleData)179_storage)": {
        "encoding": "mapping",
        "key": "t_bytes32",
        "label": "mapping(bytes32 => struct AccessControlUpgradeable.RoleData)",
        "numberOfBytes": "32",
        "value": "t_struct(RoleData)179_storage"
      },
      "t_mapping(t_bytes32,t_uint256)": {
        "encoding": "mapping",
        "key": "t_bytes32",
        "label": "mapping(bytes32 => uint256)",
        "numberOfBytes": "32",
        "value": "t_uint256"
      },
      "t_mapping(t_uint256,t_address)": {
        "encoding": "mapping",
        "key": "t_uint256",
        "label": "mapping(uint256 => address)",
        "numberOfBytes": "32",
        "value": "t_address"
      },
      "t_mapping(t_uint256,t_enum(AdapterType)59550)": {
        "encoding": "mapping",
        "key": "t_uint256",
        "label": "mapping(uint256 => enum BasicUserAgentBase.AdapterType)",
        "numberOfBytes": "32",
        "value": "t_enum(AdapterType)59550"
      },
      "t_struct(AddressSet)4359_storage": {
        "encoding": "inplace",
        "label": "struct EnumerableSetUpgradeable.AddressSet",
        "members": [
          {
            "astId": 4358,
            "contract": "contracts/xchain/agent/test/UserAgentSubTest.sol:UserAgentSubTest",
            "label": "_inner",
            "offset": 0,
            "slot": "0",
            "type": "t_struct(Set)4058_storage"
          }
        ],
        "numberOfBytes": "64"
      },
      "t_struct(RoleData)179_storage": {
        "encoding": "inplace",
        "label": "struct AccessControlUpgradeable.RoleData",
        "members": [
          {
            "astId": 176,
            "contract": "contracts/xchain/agent/test/UserAgentSubTest.sol:UserAgentSubTest",
            "label": "members",
            "offset": 0,
            "slot": "0",
            "type": "t_mapping(t_address,t_bool)"
          },
          {
            "astId": 178,
            "contract": "contracts/xchain/agent/test/UserAgentSubTest.sol:UserAgentSubTest",
            "label": "adminRole",
            "offset": 0,
            "slot": "1",
            "type": "t_bytes32"
          }
        ],
        "numberOfBytes": "64"
      },
      "t_struct(Set)4058_storage": {
        "encoding": "inplace",
        "label": "struct EnumerableSetUpgradeable.Set",
        "members": [
          {
            "astId": 4053,
            "contract": "contracts/xchain/agent/test/UserAgentSubTest.sol:UserAgentSubTest",
            "label": "_values",
            "offset": 0,
            "slot": "0",
            "type": "t_array(t_bytes32)dyn_storage"
          },
          {
            "astId": 4057,
            "contract": "contracts/xchain/agent/test/UserAgentSubTest.sol:UserAgentSubTest",
            "label": "_indexes",
            "offset": 0,
            "slot": "1",
            "type": "t_mapping(t_bytes32,t_uint256)"
          }
        ],
        "numberOfBytes": "64"
      },
      "t_uint256": {
        "encoding": "inplace",
        "label": "uint256",
        "numberOfBytes": "32"
      },
      "t_uint8": {
        "encoding": "inplace",
        "label": "uint8",
        "numberOfBytes": "1"
      }
    }
  }
}