{
  "address": "0xb02068ae04bf5d184efde3583e09f2185a30da0e",
  "abi": [
    {
      "anonymous": false,
      "inputs": [
        {
          "indexed": false,
          "internalType": "uint8",
          "name": "version",
          "type": "uint8"
        }
      ],
      "name": "Initialized",
      "type": "event"
    },
    {
      "anonymous": false,
      "inputs": [
        {
          "indexed": true,
          "internalType": "address",
          "name": "previousOwner",
          "type": "address"
        },
        {
          "indexed": true,
          "internalType": "address",
          "name": "newOwner",
          "type": "address"
        }
      ],
      "name": "OwnershipTransferred",
      "type": "event"
    },
    {
      "inputs": [
        {
          "internalType": "address",
          "name": "asset",
          "type": "address"
        }
      ],
      "name": "getAssetPrice",
      "outputs": [
        {
          "internalType": "uint256",
          "name": "price",
          "type": "uint256"
        },
        {
          "internalType": "uint8",
          "name": "decimals",
          "type": "uint8"
        }
      ],
      "stateMutability": "view",
      "type": "function"
    },
    {
      "inputs": [
        {
          "internalType": "address[]",
          "name": "assets",
          "type": "address[]"
        }
      ],
      "name": "getAssetsPrices",
      "outputs": [
        {
          "internalType": "uint256[]",
          "name": "prices",
          "type": "uint256[]"
        },
        {
          "internalType": "uint8[]",
          "name": "decimalsArray",
          "type": "uint8[]"
        }
      ],
      "stateMutability": "view",
      "type": "function"
    },
    {
      "inputs": [
        {
          "internalType": "address",
          "name": "asset",
          "type": "address"
        }
      ],
      "name": "getSourceOfAsset",
      "outputs": [
        {
          "internalType": "address",
          "name": "",
          "type": "address"
        }
      ],
      "stateMutability": "view",
      "type": "function"
    },
    {
      "inputs": [],
      "name": "initialize",
      "outputs": [],
      "stateMutability": "nonpayable",
      "type": "function"
    },
    {
      "inputs": [],
      "name": "owner",
      "outputs": [
        {
          "internalType": "address",
          "name": "",
          "type": "address"
        }
      ],
      "stateMutability": "view",
      "type": "function"
    },
    {
      "inputs": [],
      "name": "renounceOwnership",
      "outputs": [],
      "stateMutability": "nonpayable",
      "type": "function"
    },
    {
      "inputs": [
        {
          "internalType": "address[]",
          "name": "assets",
          "type": "address[]"
        },
        {
          "internalType": "address[]",
          "name": "sources",
          "type": "address[]"
        }
      ],
      "name": "setAssetSources",
      "outputs": [],
      "stateMutability": "nonpayable",
      "type": "function"
    },
    {
      "inputs": [
        {
          "internalType": "address",
          "name": "newOwner",
          "type": "address"
        }
      ],
      "name": "transferOwnership",
      "outputs": [],
      "stateMutability": "nonpayable",
      "type": "function"
    }
  ],
  "transactionHash": "0x67e0d37751f5a4640994fce920751be3596270ff82a57790187585fc34200f62",
  "args": [],
  "numDeployments": 1,
  "solcInputHash": "eb0dd19259d6f962d3a3cdb8ebd85979",
  "bytecode": "0x608060405234801561001057600080fd5b5061114c806100206000396000f3fe608060405234801561001057600080fd5b50600436106100885760003560e01c80639d23d9f21161005b5780639d23d9f2146100f5578063abfd531014610116578063b3596f0714610129578063f2fde38b1461015357600080fd5b8063715018a61461008d5780638129fc1c146100975780638da5cb5b1461009f57806392bf2be0146100c9575b600080fd5b610095610166565b005b6100956101a5565b6033546001600160a01b03165b6040516001600160a01b0390911681526020015b60405180910390f35b6100ac6100d7366004610c18565b6001600160a01b039081166000908152606560205260409020541690565b610108610103366004610cf4565b61021a565b6040516100c0929190610d31565b610095610124366004610daf565b610341565b61013c610137366004610c18565b610456565b6040805192835260ff9091166020830152016100c0565b610095610161366004610c18565b6104f3565b6033546001600160a01b031633146101995760405162461bcd60e51b815260040161019090610e13565b60405180910390fd5b6101a36000610587565b565b60006101b160016105d9565b905080156101c9576000805461ff0019166101001790555b6101d1610666565b8015610217576000805461ff0019169055604051600181527f7f26b83ff96e1f2b6a682f133852f6798a09c465da95921460cefb38474024989060200160405180910390a15b50565b805160609081908067ffffffffffffffff81111561023a5761023a610c3c565b604051908082528060200260200182016040528015610263578160200160208202803683370190505b5092508067ffffffffffffffff81111561027f5761027f610c3c565b6040519080825280602002602001820160405280156102a8578160200160208202803683370190505b50915060005b8181101561033a576000806102db8784815181106102ce576102ce610e48565b6020026020010151610456565b91509150818684815181106102f2576102f2610e48565b6020026020010181815250508085848151811061031157610311610e48565b602002602001019060ff16908160ff16815250505050808061033290610e74565b9150506102ae565b5050915091565b6033546001600160a01b0316331461036b5760405162461bcd60e51b815260040161019090610e13565b8151815181146103b65760405162461bcd60e51b815260206004820152601660248201527509cdee840dac2e8c6d040c2e4e4c2f240d8cadccee8d60531b6044820152606401610190565b60005b81811015610450578281815181106103d3576103d3610e48565b6020026020010151606560008684815181106103f1576103f1610e48565b60200260200101516001600160a01b03166001600160a01b0316815260200190815260200160002060006101000a8154816001600160a01b0302191690836001600160a01b03160217905550808061044890610e74565b9150506103b9565b50505050565b6000806001600160a01b038316734988a896b1227218e4a686fde5eabdcabd91571f14806104a057506001600160a01b038316734988a896b1227218e4a686fde5eabdcabd91571f145b156104b457506305f5e10092600892509050565b6001600160a01b03831673c42c30ac6cc15fac9bd938618bcaa1a1fae8501d14156104ea576104e1610692565b91509150915091565b6104e183610722565b6033546001600160a01b0316331461051d5760405162461bcd60e51b815260040161019090610e13565b6001600160a01b0381166105825760405162461bcd60e51b815260206004820152602660248201527f4f776e61626c653a206e6577206f776e657220697320746865207a65726f206160448201526564647265737360d01b6064820152608401610190565b610217815b603380546001600160a01b038381166001600160a01b0319831681179093556040519116919082907f8be0079c531659141344cd1fd0a4f28419497f9722a3daafe3b4186f6b6457e090600090a35050565b60008054610100900460ff1615610620578160ff1660011480156105fc5750303b155b6106185760405162461bcd60e51b815260040161019090610e8f565b506000919050565b60005460ff8084169116106106475760405162461bcd60e51b815260040161019090610e8f565b506000805460ff191660ff92909216919091179055600190565b919050565b600061067260016105d9565b9050801561068a576000805461ff0019166101001790555b6101d1610844565b60008060006106c97303b666f3488a7992b2385b12df7f35156d7b29cd73c42c30ac6cc15fac9bd938618bcaa1a1fae8501d610873565b905060006106ff7320f8aefb5697b77e0bb835a8518be70775cda1b073c42c30ac6cc15fac9bd938618bcaa1a1fae8501d610873565b9050600261070d8284610edd565b6107179190610ef5565b946012945092505050565b6001600160a01b038082166000908152606560205260408120549091829116801561083e576000816001600160a01b03166350d25bcd6040518163ffffffff1660e01b815260040160206040518083038186803b15801561078257600080fd5b505afa158015610796573d6000803e3d6000fd5b505050506040513d601f19601f820116820180604052508101906107ba9190610f17565b905060008113156107c9578093505b816001600160a01b031663313ce5676040518163ffffffff1660e01b815260040160206040518083038186803b15801561080257600080fd5b505afa158015610816573d6000803e3d6000fd5b505050506040513d601f19601f8201168201806040525081019061083a9190610f30565b9250505b50915091565b600054610100900460ff1661086b5760405162461bcd60e51b815260040161019090610f53565b6101a3610bc8565b6000806000846001600160a01b0316630902f1ac6040518163ffffffff1660e01b8152600401604080518083038186803b1580156108b057600080fd5b505afa1580156108c4573d6000803e3d6000fd5b505050506040513d601f19601f820116820180604052508101906108e89190610f9e565b915091506000856001600160a01b0316630dfe16816040518163ffffffff1660e01b815260040160206040518083038186803b15801561092757600080fd5b505afa15801561093b573d6000803e3d6000fd5b505050506040513d601f19601f8201168201806040525081019061095f9190610fc2565b90506000866001600160a01b031663d21220a76040518163ffffffff1660e01b815260040160206040518083038186803b15801561099c57600080fd5b505afa1580156109b0573d6000803e3d6000fd5b505050506040513d601f19601f820116820180604052508101906109d49190610fc2565b90506000826001600160a01b031663313ce5676040518163ffffffff1660e01b815260040160206040518083038186803b158015610a1157600080fd5b505afa158015610a25573d6000803e3d6000fd5b505050506040513d601f19601f82011682018060405250810190610a499190610f30565b90506000826001600160a01b031663313ce5676040518163ffffffff1660e01b815260040160206040518083038186803b158015610a8657600080fd5b505afa158015610a9a573d6000803e3d6000fd5b505050506040513d601f19601f82011682018060405250810190610abe9190610f30565b9050600080896001600160a01b0316866001600160a01b03161415610b1b57610ae8846012610fdf565b610af390600a6110e8565b610afd90886110f7565b9150610b0a83600a6110e8565b610b1490896110f7565b9050610bad565b896001600160a01b0316856001600160a01b03161415610b6c57610b40836012610fdf565b610b4b90600a6110e8565b610b5590896110f7565b9150610b6284600a6110e8565b610b1490886110f7565b60405162461bcd60e51b815260206004820152601660248201527524b73b30b634b2103830b4b91030b732103a37b5b2b760511b6044820152606401610190565b610bb78183610ef5565b985050505050505050505b92915050565b600054610100900460ff16610bef5760405162461bcd60e51b815260040161019090610f53565b6101a333610587565b6001600160a01b038116811461021757600080fd5b803561066181610bf8565b600060208284031215610c2a57600080fd5b8135610c3581610bf8565b9392505050565b634e487b7160e01b600052604160045260246000fd5b600082601f830112610c6357600080fd5b8135602067ffffffffffffffff80831115610c8057610c80610c3c565b8260051b604051601f19603f83011681018181108482111715610ca557610ca5610c3c565b604052938452858101830193838101925087851115610cc357600080fd5b83870191505b84821015610ce957610cda82610c0d565b83529183019190830190610cc9565b979650505050505050565b600060208284031215610d0657600080fd5b813567ffffffffffffffff811115610d1d57600080fd5b610d2984828501610c52565b949350505050565b604080825283519082018190526000906020906060840190828701845b82811015610d6a57815184529284019290840190600101610d4e565b5050508381038285015284518082528583019183019060005b81811015610da257835160ff1683529284019291840191600101610d83565b5090979650505050505050565b60008060408385031215610dc257600080fd5b823567ffffffffffffffff80821115610dda57600080fd5b610de686838701610c52565b93506020850135915080821115610dfc57600080fd5b50610e0985828601610c52565b9150509250929050565b6020808252818101527f4f776e61626c653a2063616c6c6572206973206e6f7420746865206f776e6572604082015260600190565b634e487b7160e01b600052603260045260246000fd5b634e487b7160e01b600052601160045260246000fd5b6000600019821415610e8857610e88610e5e565b5060010190565b6020808252602e908201527f496e697469616c697a61626c653a20636f6e747261637420697320616c72656160408201526d191e481a5b9a5d1a585b1a5e995960921b606082015260800190565b60008219821115610ef057610ef0610e5e565b500190565b600082610f1257634e487b7160e01b600052601260045260246000fd5b500490565b600060208284031215610f2957600080fd5b5051919050565b600060208284031215610f4257600080fd5b815160ff81168114610c3557600080fd5b6020808252602b908201527f496e697469616c697a61626c653a20636f6e7472616374206973206e6f74206960408201526a6e697469616c697a696e6760a81b606082015260800190565b60008060408385031215610fb157600080fd5b505080516020909101519092909150565b600060208284031215610fd457600080fd5b8151610c3581610bf8565b600060ff821660ff84168060ff03821115610ffc57610ffc610e5e565b019392505050565b600181815b8085111561103f57816000190482111561102557611025610e5e565b8085161561103257918102915b93841c9390800290611009565b509250929050565b60008261105657506001610bc2565b8161106357506000610bc2565b816001811461107957600281146110835761109f565b6001915050610bc2565b60ff84111561109457611094610e5e565b50506001821b610bc2565b5060208310610133831016604e8410600b84101617156110c2575081810a610bc2565b6110cc8383611004565b80600019048211156110e0576110e0610e5e565b029392505050565b6000610c3560ff841683611047565b600081600019048311821515161561111157611111610e5e565b50029056fea2646970667358221220590bd58d7cb96da3f928ca72d0361bc42d30bef98f52d7513fea126673a7815064736f6c63430008090033",
  "devdoc": {
    "kind": "dev",
    "methods": {
      "getAssetsPrices(address[])": {
        "params": {
          "assets": "The list of assets addresses"
        },
        "returns": {
          "prices": "The prices of the given assets"
        }
      },
      "getSourceOfAsset(address)": {
        "params": {
          "asset": "The address of the asset"
        },
        "returns": {
          "_0": "The address of the source"
        }
      },
      "owner()": {
        "details": "Returns the address of the current owner."
      },
      "renounceOwnership()": {
        "details": "Leaves the contract without owner. It will not be possible to call `onlyOwner` functions anymore. Can only be called by the current owner. NOTE: Renouncing ownership will leave the contract without an owner, thereby removing any functionality that is only available to the owner."
      },
      "setAssetSources(address[],address[])": {
        "params": {
          "assets": "The addresses of the assets",
          "sources": "The addresses of the price sources"
        }
      },
      "transferOwnership(address)": {
        "details": "Transfers ownership of the contract to a new account (`newOwner`). Can only be called by the current owner."
      }
    },
    "version": 1
  },
  "userdoc": {
    "kind": "user",
    "methods": {
      "getAssetPrice(address)": {
        "notice": "Chainlink is not yet supported on Aurora."
      },
      "getAssetsPrices(address[])": {
        "notice": "Returns a list of prices from a list of assets addresses"
      },
      "getSourceOfAsset(address)": {
        "notice": "Returns the address of the source for an asset address"
      },
      "setAssetSources(address[],address[])": {
        "notice": "Sets or replaces price sources of assets"
      }
    },
    "version": 1
  },
  "storageLayout": {
    "storage": [
      {
        "astId": 130,
        "contract": "contracts/bni/priceOracle/AuroraPriceOracle.sol:AuroraPriceOracle",
        "label": "_initialized",
        "offset": 0,
        "slot": "0",
        "type": "t_uint8"
      },
      {
        "astId": 133,
        "contract": "contracts/bni/priceOracle/AuroraPriceOracle.sol:AuroraPriceOracle",
        "label": "_initializing",
        "offset": 1,
        "slot": "0",
        "type": "t_bool"
      },
      {
        "astId": 1657,
        "contract": "contracts/bni/priceOracle/AuroraPriceOracle.sol:AuroraPriceOracle",
        "label": "__gap",
        "offset": 0,
        "slot": "1",
        "type": "t_array(t_uint256)50_storage"
      },
      {
        "astId": 10,
        "contract": "contracts/bni/priceOracle/AuroraPriceOracle.sol:AuroraPriceOracle",
        "label": "_owner",
        "offset": 0,
        "slot": "51",
        "type": "t_address"
      },
      {
        "astId": 122,
        "contract": "contracts/bni/priceOracle/AuroraPriceOracle.sol:AuroraPriceOracle",
        "label": "__gap",
        "offset": 0,
        "slot": "52",
        "type": "t_array(t_uint256)49_storage"
      },
      {
        "astId": 6464,
        "contract": "contracts/bni/priceOracle/AuroraPriceOracle.sol:AuroraPriceOracle",
        "label": "assetsSources",
        "offset": 0,
        "slot": "101",
        "type": "t_mapping(t_address,t_contract(IChainlinkAggregator)6455)"
      }
    ],
    "types": {
      "t_address": {
        "encoding": "inplace",
        "label": "address",
        "numberOfBytes": "20"
      },
      "t_array(t_uint256)49_storage": {
        "base": "t_uint256",
        "encoding": "inplace",
        "label": "uint256[49]",
        "numberOfBytes": "1568"
      },
      "t_array(t_uint256)50_storage": {
        "base": "t_uint256",
        "encoding": "inplace",
        "label": "uint256[50]",
        "numberOfBytes": "1600"
      },
      "t_bool": {
        "encoding": "inplace",
        "label": "bool",
        "numberOfBytes": "1"
      },
      "t_contract(IChainlinkAggregator)6455": {
        "encoding": "inplace",
        "label": "contract IChainlinkAggregator",
        "numberOfBytes": "20"
      },
      "t_mapping(t_address,t_contract(IChainlinkAggregator)6455)": {
        "encoding": "mapping",
        "key": "t_address",
        "label": "mapping(address => contract IChainlinkAggregator)",
        "numberOfBytes": "32",
        "value": "t_contract(IChainlinkAggregator)6455"
      },
      "t_uint256": {
        "encoding": "inplace",
        "label": "uint256",
        "numberOfBytes": "32"
      },
      "t_uint8": {
        "encoding": "inplace",
        "label": "uint8",
        "numberOfBytes": "1"
      }
    }
  }
}