{
  "address": "0x0968Caa5A43C9D6D84D09C54061E3285665c56e5",
  "abi": [
    {
      "anonymous": false,
      "inputs": [
        {
          "indexed": false,
          "internalType": "uint8",
          "name": "version",
          "type": "uint8"
        }
      ],
      "name": "Initialized",
      "type": "event"
    },
    {
      "anonymous": false,
      "inputs": [
        {
          "indexed": true,
          "internalType": "address",
          "name": "previousOwner",
          "type": "address"
        },
        {
          "indexed": true,
          "internalType": "address",
          "name": "newOwner",
          "type": "address"
        }
      ],
      "name": "OwnershipTransferred",
      "type": "event"
    },
    {
      "inputs": [
        {
          "internalType": "address",
          "name": "asset",
          "type": "address"
        }
      ],
      "name": "getAssetPrice",
      "outputs": [
        {
          "internalType": "uint256",
          "name": "price",
          "type": "uint256"
        },
        {
          "internalType": "uint8",
          "name": "decimals",
          "type": "uint8"
        }
      ],
      "stateMutability": "view",
      "type": "function"
    },
    {
      "inputs": [
        {
          "internalType": "address[]",
          "name": "assets",
          "type": "address[]"
        }
      ],
      "name": "getAssetsPrices",
      "outputs": [
        {
          "internalType": "uint256[]",
          "name": "prices",
          "type": "uint256[]"
        },
        {
          "internalType": "uint8[]",
          "name": "decimalsArray",
          "type": "uint8[]"
        }
      ],
      "stateMutability": "view",
      "type": "function"
    },
    {
      "inputs": [
        {
          "internalType": "address",
          "name": "asset",
          "type": "address"
        }
      ],
      "name": "getSourceOfAsset",
      "outputs": [
        {
          "internalType": "address",
          "name": "",
          "type": "address"
        }
      ],
      "stateMutability": "view",
      "type": "function"
    },
    {
      "inputs": [],
      "name": "getWNEARPrice",
      "outputs": [
        {
          "internalType": "uint256",
          "name": "price",
          "type": "uint256"
        },
        {
          "internalType": "uint8",
          "name": "decimals",
          "type": "uint8"
        }
      ],
      "stateMutability": "view",
      "type": "function"
    },
    {
      "inputs": [],
      "name": "initialize",
      "outputs": [],
      "stateMutability": "nonpayable",
      "type": "function"
    },
    {
      "inputs": [],
      "name": "owner",
      "outputs": [
        {
          "internalType": "address",
          "name": "",
          "type": "address"
        }
      ],
      "stateMutability": "view",
      "type": "function"
    },
    {
      "inputs": [],
      "name": "renounceOwnership",
      "outputs": [],
      "stateMutability": "nonpayable",
      "type": "function"
    },
    {
      "inputs": [
        {
          "internalType": "address[]",
          "name": "assets",
          "type": "address[]"
        },
        {
          "internalType": "address[]",
          "name": "sources",
          "type": "address[]"
        }
      ],
      "name": "setAssetSources",
      "outputs": [],
      "stateMutability": "nonpayable",
      "type": "function"
    },
    {
      "inputs": [
        {
          "internalType": "address",
          "name": "newOwner",
          "type": "address"
        }
      ],
      "name": "transferOwnership",
      "outputs": [],
      "stateMutability": "nonpayable",
      "type": "function"
    }
  ],
  "transactionHash": "0x06bbeffda0ebdacdf0c38efc2b75cbf166764678cf9ba209c5a2d9e8cef63fbf",
  "args": [],
  "numDeployments": 2,
  "solcInputHash": "1680f73f157a708ef1e99d169e487044",
  "bytecode": "0x608060405234801561001057600080fd5b506114c1806100206000396000f3fe608060405234801561001057600080fd5b50600436106100935760003560e01c80639d23d9f2116100665780639d23d9f214610100578063abfd531014610121578063b3596f0714610134578063e6f497d81461015e578063f2fde38b1461016e57600080fd5b8063715018a6146100985780638129fc1c146100a25780638da5cb5b146100aa57806392bf2be0146100d4575b600080fd5b6100a0610181565b005b6100a06101c0565b6033546001600160a01b03165b6040516001600160a01b0390911681526020015b60405180910390f35b6100b76100e2366004610f6a565b6001600160a01b039081166000908152606560205260409020541690565b61011361010e366004611046565b610235565b6040516100cb929190611083565b6100a061012f366004611101565b61035c565b610147610142366004610f6a565b610471565b6040805192835260ff9091166020830152016100cb565b673ab3fa96a7e700006012610147565b6100a061017c366004610f6a565b6105ad565b6033546001600160a01b031633146101b45760405162461bcd60e51b81526004016101ab90611165565b60405180910390fd5b6101be6000610641565b565b60006101cc6001610693565b905080156101e4576000805461ff0019166101001790555b6101ec610720565b8015610232576000805461ff0019169055604051600181527f7f26b83ff96e1f2b6a682f133852f6798a09c465da95921460cefb38474024989060200160405180910390a15b50565b805160609081908067ffffffffffffffff81111561025557610255610f8e565b60405190808252806020026020018201604052801561027e578160200160208202803683370190505b5092508067ffffffffffffffff81111561029a5761029a610f8e565b6040519080825280602002602001820160405280156102c3578160200160208202803683370190505b50915060005b81811015610355576000806102f68784815181106102e9576102e961119a565b6020026020010151610471565b915091508186848151811061030d5761030d61119a565b6020026020010181815250508085848151811061032c5761032c61119a565b602002602001019060ff16908160ff16815250505050808061034d906111c6565b9150506102c9565b5050915091565b6033546001600160a01b031633146103865760405162461bcd60e51b81526004016101ab90611165565b8151815181146103d15760405162461bcd60e51b815260206004820152601660248201527509cdee840dac2e8c6d040c2e4e4c2f240d8cadccee8d60531b60448201526064016101ab565b60005b8181101561046b578281815181106103ee576103ee61119a565b60200260200101516065600086848151811061040c5761040c61119a565b60200260200101516001600160a01b03166001600160a01b0316815260200190815260200160002060006101000a8154816001600160a01b0302191690836001600160a01b031602179055508080610463906111c6565b9150506103d4565b50505050565b6000806001600160a01b038316734988a896b1227218e4a686fde5eabdcabd91571f14806104bb57506001600160a01b03831673b12bfca5a55806aaf64e99521918a4bf0fc40802145b156104cf57506305f5e10092600892509050565b6001600160a01b03831673c42c30ac6cc15fac9bd938618bcaa1a1fae8501d141561050957673ab3fa96a7e7000060125b91509150915091565b6001600160a01b038316739f1f933c660a1dc856f0e0fe058435879c5ccef014156105405750660c1448303c800092601292509050565b6001600160a01b03831673c21ff01229e982d7c8b8691163b0a3cb8f35745314156105775750662386f26fc1000092601292509050565b6001600160a01b0383167307f9f7f963c5cd2bbffd30ccfb964be114332e3014156105a45761050061074c565b610500836108b8565b6033546001600160a01b031633146105d75760405162461bcd60e51b81526004016101ab90611165565b6001600160a01b03811661063c5760405162461bcd60e51b815260206004820152602660248201527f4f776e61626c653a206e6577206f776e657220697320746865207a65726f206160448201526564647265737360d01b60648201526084016101ab565b610232815b603380546001600160a01b038381166001600160a01b0319831681179093556040519116919082907f8be0079c531659141344cd1fd0a4f28419497f9722a3daafe3b4186f6b6457e090600090a35050565b60008054610100900460ff16156106da578160ff1660011480156106b65750303b155b6106d25760405162461bcd60e51b81526004016101ab906111e1565b506000919050565b60005460ff8084169116106107015760405162461bcd60e51b81526004016101ab906111e1565b506000805460ff191660ff92909216919091179055600190565b919050565b600061072c6001610693565b90508015610744576000805461ff0019166101001790555b6101ec610a2f565b600080600061271073534bacf1126f60ea513f796a3377ff432be62cf96001600160a01b031663498049bd6040518163ffffffff1660e01b815260040160206040518083038186803b1580156107a157600080fd5b505afa1580156107b5573d6000803e3d6000fd5b505050506040513d601f19601f820116820180604052508101906107d9919061122f565b6107e99061ffff16612710611253565b73534bacf1126f60ea513f796a3377ff432be62cf96001600160a01b031663f79a4fb96040518163ffffffff1660e01b815260040160206040518083038186803b15801561083657600080fd5b505afa15801561084a573d6000803e3d6000fd5b505050506040513d601f19601f8201168201806040525081019061086e919061126a565b6108789190611283565b61088291906112a2565b9050673ab3fa96a7e70000601269d3c21bcecceda10000006108a48484611283565b6108ae91906112a2565b9590945092505050565b6000806001600160a01b038316734988a896b1227218e4a686fde5eabdcabd91571f148061090257506001600160a01b03831673b12bfca5a55806aaf64e99521918a4bf0fc40802145b1561091657506305f5e10092600892509050565b6001600160a01b03831673c42c30ac6cc15fac9bd938618bcaa1a1fae8501d141561094b57673ab3fa96a7e700006012610500565b6001600160a01b038316739f1f933c660a1dc856f0e0fe058435879c5ccef014156109a25761050073bbf3d4281f10e537d5b13ca80be22362310b2bf9739f1f933c660a1dc856f0e0fe058435879c5ccef0610a5e565b6001600160a01b03831673c21ff01229e982d7c8b8691163b0a3cb8f35745314156109f95761050073a8caaf35c0136033294dd286a14051fbf37aed0773c21ff01229e982d7c8b8691163b0a3cb8f357453610a5e565b6001600160a01b0383167307f9f7f963c5cd2bbffd30ccfb964be114332e301415610a265761050061074c565b61050083610aa3565b600054610100900460ff16610a565760405162461bcd60e51b81526004016101ab906112c4565b6101be610bc5565b6000806000610a6d8585610bf5565b9050673ab3fa96a7e700006012670de0b6b3a7640000610a8d8484611283565b610a9791906112a2565b97909650945050505050565b6001600160a01b0380821660009081526065602052604081205490918291168015610bbf576000816001600160a01b03166350d25bcd6040518163ffffffff1660e01b815260040160206040518083038186803b158015610b0357600080fd5b505afa158015610b17573d6000803e3d6000fd5b505050506040513d601f19601f82011682018060405250810190610b3b919061126a565b90506000811315610b4a578093505b816001600160a01b031663313ce5676040518163ffffffff1660e01b815260040160206040518083038186803b158015610b8357600080fd5b505afa158015610b97573d6000803e3d6000fd5b505050506040513d601f19601f82011682018060405250810190610bbb919061130f565b9250505b50915091565b600054610100900460ff16610bec5760405162461bcd60e51b81526004016101ab906112c4565b6101be33610641565b6000806000846001600160a01b0316630902f1ac6040518163ffffffff1660e01b8152600401604080518083038186803b158015610c3257600080fd5b505afa158015610c46573d6000803e3d6000fd5b505050506040513d601f19601f82011682018060405250810190610c6a9190611332565b915091506000856001600160a01b0316630dfe16816040518163ffffffff1660e01b815260040160206040518083038186803b158015610ca957600080fd5b505afa158015610cbd573d6000803e3d6000fd5b505050506040513d601f19601f82011682018060405250810190610ce19190611356565b90506000866001600160a01b031663d21220a76040518163ffffffff1660e01b815260040160206040518083038186803b158015610d1e57600080fd5b505afa158015610d32573d6000803e3d6000fd5b505050506040513d601f19601f82011682018060405250810190610d569190611356565b90506000826001600160a01b031663313ce5676040518163ffffffff1660e01b815260040160206040518083038186803b158015610d9357600080fd5b505afa158015610da7573d6000803e3d6000fd5b505050506040513d601f19601f82011682018060405250810190610dcb919061130f565b90506000826001600160a01b031663313ce5676040518163ffffffff1660e01b815260040160206040518083038186803b158015610e0857600080fd5b505afa158015610e1c573d6000803e3d6000fd5b505050506040513d601f19601f82011682018060405250810190610e40919061130f565b9050600080896001600160a01b0316866001600160a01b03161415610e9d57610e6a846012611373565b610e7590600a61147c565b610e7f9088611283565b9150610e8c83600a61147c565b610e969089611283565b9050610f2f565b896001600160a01b0316856001600160a01b03161415610eee57610ec2836012611373565b610ecd90600a61147c565b610ed79089611283565b9150610ee484600a61147c565b610e969088611283565b60405162461bcd60e51b815260206004820152601660248201527524b73b30b634b2103830b4b91030b732103a37b5b2b760511b60448201526064016101ab565b610f3981836112a2565b985050505050505050505b92915050565b6001600160a01b038116811461023257600080fd5b803561071b81610f4a565b600060208284031215610f7c57600080fd5b8135610f8781610f4a565b9392505050565b634e487b7160e01b600052604160045260246000fd5b600082601f830112610fb557600080fd5b8135602067ffffffffffffffff80831115610fd257610fd2610f8e565b8260051b604051601f19603f83011681018181108482111715610ff757610ff7610f8e565b60405293845285810183019383810192508785111561101557600080fd5b83870191505b8482101561103b5761102c82610f5f565b8352918301919083019061101b565b979650505050505050565b60006020828403121561105857600080fd5b813567ffffffffffffffff81111561106f57600080fd5b61107b84828501610fa4565b949350505050565b604080825283519082018190526000906020906060840190828701845b828110156110bc578151845292840192908401906001016110a0565b5050508381038285015284518082528583019183019060005b818110156110f457835160ff16835292840192918401916001016110d5565b5090979650505050505050565b6000806040838503121561111457600080fd5b823567ffffffffffffffff8082111561112c57600080fd5b61113886838701610fa4565b9350602085013591508082111561114e57600080fd5b5061115b85828601610fa4565b9150509250929050565b6020808252818101527f4f776e61626c653a2063616c6c6572206973206e6f7420746865206f776e6572604082015260600190565b634e487b7160e01b600052603260045260246000fd5b634e487b7160e01b600052601160045260246000fd5b60006000198214156111da576111da6111b0565b5060010190565b6020808252602e908201527f496e697469616c697a61626c653a20636f6e747261637420697320616c72656160408201526d191e481a5b9a5d1a585b1a5e995960921b606082015260800190565b60006020828403121561124157600080fd5b815161ffff81168114610f8757600080fd5b600082821015611265576112656111b0565b500390565b60006020828403121561127c57600080fd5b5051919050565b600081600019048311821515161561129d5761129d6111b0565b500290565b6000826112bf57634e487b7160e01b600052601260045260246000fd5b500490565b6020808252602b908201527f496e697469616c697a61626c653a20636f6e7472616374206973206e6f74206960408201526a6e697469616c697a696e6760a81b606082015260800190565b60006020828403121561132157600080fd5b815160ff81168114610f8757600080fd5b6000806040838503121561134557600080fd5b505080516020909101519092909150565b60006020828403121561136857600080fd5b8151610f8781610f4a565b600060ff821660ff84168060ff03821115611390576113906111b0565b019392505050565b600181815b808511156113d35781600019048211156113b9576113b96111b0565b808516156113c657918102915b93841c939080029061139d565b509250929050565b6000826113ea57506001610f44565b816113f757506000610f44565b816001811461140d576002811461141757611433565b6001915050610f44565b60ff841115611428576114286111b0565b50506001821b610f44565b5060208310610133831016604e8410600b8410161715611456575081810a610f44565b6114608383611398565b8060001904821115611474576114746111b0565b029392505050565b6000610f8760ff8416836113db56fea2646970667358221220525053e477920aca5b37a3e2037a185feb0e7bfe67a9432c0e1387b328ab601f64736f6c63430008090033",
  "devdoc": {
    "kind": "dev",
    "methods": {
      "getAssetsPrices(address[])": {
        "params": {
          "assets": "The list of assets addresses"
        },
        "returns": {
          "prices": "The prices of the given assets"
        }
      },
      "getSourceOfAsset(address)": {
        "params": {
          "asset": "The address of the asset"
        },
        "returns": {
          "_0": "The address of the source"
        }
      },
      "owner()": {
        "details": "Returns the address of the current owner."
      },
      "renounceOwnership()": {
        "details": "Leaves the contract without owner. It will not be possible to call `onlyOwner` functions anymore. Can only be called by the current owner. NOTE: Renouncing ownership will leave the contract without an owner, thereby removing any functionality that is only available to the owner."
      },
      "setAssetSources(address[],address[])": {
        "params": {
          "assets": "The addresses of the assets",
          "sources": "The addresses of the price sources"
        }
      },
      "transferOwnership(address)": {
        "details": "Transfers ownership of the contract to a new account (`newOwner`). Can only be called by the current owner."
      }
    },
    "version": 1
  },
  "userdoc": {
    "kind": "user",
    "methods": {
      "getAssetPrice(address)": {
        "notice": "Chainlink is not yet supported on Aurora."
      },
      "getAssetsPrices(address[])": {
        "notice": "Returns a list of prices from a list of assets addresses"
      },
      "getSourceOfAsset(address)": {
        "notice": "Returns the address of the source for an asset address"
      },
      "setAssetSources(address[],address[])": {
        "notice": "Sets or replaces price sources of assets"
      }
    },
    "version": 1
  },
  "storageLayout": {
    "storage": [
      {
        "astId": 130,
        "contract": "contracts/bni/priceOracle/AuroraPriceOracleTest.sol:AuroraPriceOracleTest",
        "label": "_initialized",
        "offset": 0,
        "slot": "0",
        "type": "t_uint8"
      },
      {
        "astId": 133,
        "contract": "contracts/bni/priceOracle/AuroraPriceOracleTest.sol:AuroraPriceOracleTest",
        "label": "_initializing",
        "offset": 1,
        "slot": "0",
        "type": "t_bool"
      },
      {
        "astId": 2709,
        "contract": "contracts/bni/priceOracle/AuroraPriceOracleTest.sol:AuroraPriceOracleTest",
        "label": "__gap",
        "offset": 0,
        "slot": "1",
        "type": "t_array(t_uint256)50_storage"
      },
      {
        "astId": 10,
        "contract": "contracts/bni/priceOracle/AuroraPriceOracleTest.sol:AuroraPriceOracleTest",
        "label": "_owner",
        "offset": 0,
        "slot": "51",
        "type": "t_address"
      },
      {
        "astId": 122,
        "contract": "contracts/bni/priceOracle/AuroraPriceOracleTest.sol:AuroraPriceOracleTest",
        "label": "__gap",
        "offset": 0,
        "slot": "52",
        "type": "t_array(t_uint256)49_storage"
      },
      {
        "astId": 10826,
        "contract": "contracts/bni/priceOracle/AuroraPriceOracleTest.sol:AuroraPriceOracleTest",
        "label": "assetsSources",
        "offset": 0,
        "slot": "101",
        "type": "t_mapping(t_address,t_contract(IChainlinkAggregator)10817)"
      },
      {
        "astId": 11028,
        "contract": "contracts/bni/priceOracle/AuroraPriceOracleTest.sol:AuroraPriceOracleTest",
        "label": "__gap",
        "offset": 0,
        "slot": "102",
        "type": "t_array(t_uint256)49_storage"
      }
    ],
    "types": {
      "t_address": {
        "encoding": "inplace",
        "label": "address",
        "numberOfBytes": "20"
      },
      "t_array(t_uint256)49_storage": {
        "base": "t_uint256",
        "encoding": "inplace",
        "label": "uint256[49]",
        "numberOfBytes": "1568"
      },
      "t_array(t_uint256)50_storage": {
        "base": "t_uint256",
        "encoding": "inplace",
        "label": "uint256[50]",
        "numberOfBytes": "1600"
      },
      "t_bool": {
        "encoding": "inplace",
        "label": "bool",
        "numberOfBytes": "1"
      },
      "t_contract(IChainlinkAggregator)10817": {
        "encoding": "inplace",
        "label": "contract IChainlinkAggregator",
        "numberOfBytes": "20"
      },
      "t_mapping(t_address,t_contract(IChainlinkAggregator)10817)": {
        "encoding": "mapping",
        "key": "t_address",
        "label": "mapping(address => contract IChainlinkAggregator)",
        "numberOfBytes": "32",
        "value": "t_contract(IChainlinkAggregator)10817"
      },
      "t_uint256": {
        "encoding": "inplace",
        "label": "uint256",
        "numberOfBytes": "32"
      },
      "t_uint8": {
        "encoding": "inplace",
        "label": "uint8",
        "numberOfBytes": "1"
      }
    }
  }
}