{
  "address": "0x441cd7576f8C915bc08C8E046054F8D0dE17a80f",
  "abi": [
    {
      "anonymous": false,
      "inputs": [
        {
          "indexed": true,
          "internalType": "uint256",
          "name": "currentWatermark",
          "type": "uint256"
        },
        {
          "indexed": true,
          "internalType": "uint256",
          "name": "lastWatermark",
          "type": "uint256"
        }
      ],
      "name": "AdjustWatermark",
      "type": "event"
    },
    {
      "anonymous": false,
      "inputs": [
        {
          "indexed": true,
          "internalType": "address",
          "name": "owner",
          "type": "address"
        },
        {
          "indexed": true,
          "internalType": "address",
          "name": "spender",
          "type": "address"
        },
        {
          "indexed": false,
          "internalType": "uint256",
          "name": "value",
          "type": "uint256"
        }
      ],
      "name": "Approval",
      "type": "event"
    },
    {
      "anonymous": false,
      "inputs": [
        {
          "indexed": true,
          "internalType": "address",
          "name": "user",
          "type": "address"
        },
        {
          "indexed": true,
          "internalType": "uint256",
          "name": "reqId",
          "type": "uint256"
        },
        {
          "indexed": true,
          "internalType": "uint256",
          "name": "amount",
          "type": "uint256"
        }
      ],
      "name": "Claim",
      "type": "event"
    },
    {
      "anonymous": false,
      "inputs": [
        {
          "indexed": true,
          "internalType": "address",
          "name": "user",
          "type": "address"
        },
        {
          "indexed": true,
          "internalType": "uint256",
          "name": "amount",
          "type": "uint256"
        },
        {
          "indexed": true,
          "internalType": "uint256",
          "name": "claimedCount",
          "type": "uint256"
        }
      ],
      "name": "ClaimMulti",
      "type": "event"
    },
    {
      "anonymous": false,
      "inputs": [
        {
          "indexed": true,
          "internalType": "uint256",
          "name": "currentWatermark",
          "type": "uint256"
        },
        {
          "indexed": true,
          "internalType": "uint256",
          "name": "lastWatermark",
          "type": "uint256"
        },
        {
          "indexed": true,
          "internalType": "uint256",
          "name": "fee",
          "type": "uint256"
        }
      ],
      "name": "CollectProfitAndUpdateWatermark",
      "type": "event"
    },
    {
      "anonymous": false,
      "inputs": [
        {
          "indexed": true,
          "internalType": "address",
          "name": "user",
          "type": "address"
        },
        {
          "indexed": true,
          "internalType": "uint256",
          "name": "amount",
          "type": "uint256"
        },
        {
          "indexed": true,
          "internalType": "uint256",
          "name": "shares",
          "type": "uint256"
        }
      ],
      "name": "Deposit",
      "type": "event"
    },
    {
      "anonymous": false,
      "inputs": [
        {
          "indexed": true,
          "internalType": "uint256",
          "name": "stAmount",
          "type": "uint256"
        }
      ],
      "name": "EmergencyWithdraw",
      "type": "event"
    },
    {
      "anonymous": false,
      "inputs": [
        {
          "indexed": false,
          "internalType": "uint8",
          "name": "version",
          "type": "uint8"
        }
      ],
      "name": "Initialized",
      "type": "event"
    },
    {
      "anonymous": false,
      "inputs": [
        {
          "indexed": true,
          "internalType": "uint256",
          "name": "amount",
          "type": "uint256"
        }
      ],
      "name": "Invest",
      "type": "event"
    },
    {
      "anonymous": false,
      "inputs": [
        {
          "indexed": true,
          "internalType": "address",
          "name": "previousOwner",
          "type": "address"
        },
        {
          "indexed": true,
          "internalType": "address",
          "name": "newOwner",
          "type": "address"
        }
      ],
      "name": "OwnershipTransferred",
      "type": "event"
    },
    {
      "anonymous": false,
      "inputs": [
        {
          "indexed": false,
          "internalType": "address",
          "name": "account",
          "type": "address"
        }
      ],
      "name": "Paused",
      "type": "event"
    },
    {
      "anonymous": false,
      "inputs": [
        {
          "indexed": true,
          "internalType": "uint256",
          "name": "stAmount",
          "type": "uint256"
        }
      ],
      "name": "Redeem",
      "type": "event"
    },
    {
      "anonymous": false,
      "inputs": [
        {
          "indexed": true,
          "internalType": "address",
          "name": "from",
          "type": "address"
        },
        {
          "indexed": true,
          "internalType": "address",
          "name": "to",
          "type": "address"
        },
        {
          "indexed": false,
          "internalType": "uint256",
          "name": "value",
          "type": "uint256"
        }
      ],
      "name": "Transfer",
      "type": "event"
    },
    {
      "anonymous": false,
      "inputs": [
        {
          "indexed": true,
          "internalType": "uint256",
          "name": "fees",
          "type": "uint256"
        },
        {
          "indexed": true,
          "internalType": "address",
          "name": "token",
          "type": "address"
        }
      ],
      "name": "TransferredOutFees",
      "type": "event"
    },
    {
      "anonymous": false,
      "inputs": [
        {
          "indexed": false,
          "internalType": "address",
          "name": "account",
          "type": "address"
        }
      ],
      "name": "Unpaused",
      "type": "event"
    },
    {
      "anonymous": false,
      "inputs": [
        {
          "indexed": true,
          "internalType": "address",
          "name": "user",
          "type": "address"
        },
        {
          "indexed": false,
          "internalType": "uint256",
          "name": "shares",
          "type": "uint256"
        },
        {
          "indexed": true,
          "internalType": "uint256",
          "name": "amount",
          "type": "uint256"
        },
        {
          "indexed": false,
          "internalType": "uint256",
          "name": "reqId",
          "type": "uint256"
        },
        {
          "indexed": true,
          "internalType": "uint256",
          "name": "pendingAmount",
          "type": "uint256"
        }
      ],
      "name": "Withdraw",
      "type": "event"
    },
    {
      "inputs": [],
      "name": "admin",
      "outputs": [
        {
          "internalType": "address",
          "name": "",
          "type": "address"
        }
      ],
      "stateMutability": "view",
      "type": "function"
    },
    {
      "inputs": [
        {
          "internalType": "address",
          "name": "owner",
          "type": "address"
        },
        {
          "internalType": "address",
          "name": "spender",
          "type": "address"
        }
      ],
      "name": "allowance",
      "outputs": [
        {
          "internalType": "uint256",
          "name": "",
          "type": "uint256"
        }
      ],
      "stateMutability": "view",
      "type": "function"
    },
    {
      "inputs": [
        {
          "internalType": "address",
          "name": "spender",
          "type": "address"
        },
        {
          "internalType": "uint256",
          "name": "amount",
          "type": "uint256"
        }
      ],
      "name": "approve",
      "outputs": [
        {
          "internalType": "bool",
          "name": "",
          "type": "bool"
        }
      ],
      "stateMutability": "nonpayable",
      "type": "function"
    },
    {
      "inputs": [
        {
          "internalType": "address",
          "name": "account",
          "type": "address"
        }
      ],
      "name": "balanceOf",
      "outputs": [
        {
          "internalType": "uint256",
          "name": "",
          "type": "uint256"
        }
      ],
      "stateMutability": "view",
      "type": "function"
    },
    {
      "inputs": [],
      "name": "bufferedDeposits",
      "outputs": [
        {
          "internalType": "uint256",
          "name": "",
          "type": "uint256"
        }
      ],
      "stateMutability": "view",
      "type": "function"
    },
    {
      "inputs": [],
      "name": "bufferedWithdrawals",
      "outputs": [
        {
          "internalType": "uint256",
          "name": "",
          "type": "uint256"
        }
      ],
      "stateMutability": "view",
      "type": "function"
    },
    {
      "inputs": [
        {
          "internalType": "uint256",
          "name": "_reqId",
          "type": "uint256"
        }
      ],
      "name": "claim",
      "outputs": [
        {
          "internalType": "uint256",
          "name": "_amount",
          "type": "uint256"
        }
      ],
      "stateMutability": "nonpayable",
      "type": "function"
    },
    {
      "inputs": [
        {
          "internalType": "uint256[]",
          "name": "_reqIds",
          "type": "uint256[]"
        }
      ],
      "name": "claimMulti",
      "outputs": [
        {
          "internalType": "uint256",
          "name": "_amount",
          "type": "uint256"
        },
        {
          "internalType": "uint256",
          "name": "_claimedCount",
          "type": "uint256"
        },
        {
          "internalType": "bool[]",
          "name": "_claimed",
          "type": "bool[]"
        }
      ],
      "stateMutability": "nonpayable",
      "type": "function"
    },
    {
      "inputs": [],
      "name": "claimUnbonded",
      "outputs": [],
      "stateMutability": "nonpayable",
      "type": "function"
    },
    {
      "inputs": [],
      "name": "collectProfitAndUpdateWatermark",
      "outputs": [],
      "stateMutability": "nonpayable",
      "type": "function"
    },
    {
      "inputs": [],
      "name": "decimals",
      "outputs": [
        {
          "internalType": "uint8",
          "name": "",
          "type": "uint8"
        }
      ],
      "stateMutability": "view",
      "type": "function"
    },
    {
      "inputs": [
        {
          "internalType": "address",
          "name": "spender",
          "type": "address"
        },
        {
          "internalType": "uint256",
          "name": "subtractedValue",
          "type": "uint256"
        }
      ],
      "name": "decreaseAllowance",
      "outputs": [
        {
          "internalType": "bool",
          "name": "",
          "type": "bool"
        }
      ],
      "stateMutability": "nonpayable",
      "type": "function"
    },
    {
      "inputs": [
        {
          "internalType": "uint256",
          "name": "_amount",
          "type": "uint256"
        }
      ],
      "name": "deposit",
      "outputs": [],
      "stateMutability": "nonpayable",
      "type": "function"
    },
    {
      "inputs": [],
      "name": "depositETH",
      "outputs": [],
      "stateMutability": "payable",
      "type": "function"
    },
    {
      "inputs": [],
      "name": "emergencyPendingRedeems",
      "outputs": [
        {
          "internalType": "uint256",
          "name": "_redeems",
          "type": "uint256"
        }
      ],
      "stateMutability": "view",
      "type": "function"
    },
    {
      "inputs": [],
      "name": "emergencyRedeem",
      "outputs": [],
      "stateMutability": "nonpayable",
      "type": "function"
    },
    {
      "inputs": [],
      "name": "emergencyWithdraw",
      "outputs": [],
      "stateMutability": "nonpayable",
      "type": "function"
    },
    {
      "inputs": [],
      "name": "fees",
      "outputs": [
        {
          "internalType": "uint256",
          "name": "",
          "type": "uint256"
        }
      ],
      "stateMutability": "view",
      "type": "function"
    },
    {
      "inputs": [],
      "name": "getAPR",
      "outputs": [
        {
          "internalType": "uint256",
          "name": "",
          "type": "uint256"
        }
      ],
      "stateMutability": "view",
      "type": "function"
    },
    {
      "inputs": [],
      "name": "getAllPool",
      "outputs": [
        {
          "internalType": "uint256",
          "name": "_pool",
          "type": "uint256"
        }
      ],
      "stateMutability": "view",
      "type": "function"
    },
    {
      "inputs": [],
      "name": "getAllPoolInUSD",
      "outputs": [
        {
          "internalType": "uint256",
          "name": "",
          "type": "uint256"
        }
      ],
      "stateMutability": "view",
      "type": "function"
    },
    {
      "inputs": [],
      "name": "getBaseApr",
      "outputs": [
        {
          "internalType": "uint256",
          "name": "",
          "type": "uint256"
        },
        {
          "internalType": "uint256",
          "name": "",
          "type": "uint256"
        },
        {
          "internalType": "bool",
          "name": "",
          "type": "bool"
        }
      ],
      "stateMutability": "view",
      "type": "function"
    },
    {
      "inputs": [],
      "name": "getBaseAprData",
      "outputs": [
        {
          "internalType": "uint256",
          "name": "",
          "type": "uint256"
        },
        {
          "internalType": "uint256",
          "name": "",
          "type": "uint256"
        },
        {
          "internalType": "uint256",
          "name": "",
          "type": "uint256"
        }
      ],
      "stateMutability": "view",
      "type": "function"
    },
    {
      "inputs": [],
      "name": "getBufferedDeposits",
      "outputs": [
        {
          "internalType": "uint256",
          "name": "",
          "type": "uint256"
        }
      ],
      "stateMutability": "view",
      "type": "function"
    },
    {
      "inputs": [],
      "name": "getEmergencyUnbondings",
      "outputs": [
        {
          "internalType": "uint256",
          "name": "",
          "type": "uint256"
        }
      ],
      "stateMutability": "view",
      "type": "function"
    },
    {
      "inputs": [],
      "name": "getInvestedStTokens",
      "outputs": [
        {
          "internalType": "uint256",
          "name": "_stAmount",
          "type": "uint256"
        }
      ],
      "stateMutability": "view",
      "type": "function"
    },
    {
      "inputs": [],
      "name": "getPendingRewards",
      "outputs": [
        {
          "internalType": "uint256",
          "name": "",
          "type": "uint256"
        }
      ],
      "stateMutability": "view",
      "type": "function"
    },
    {
      "inputs": [
        {
          "internalType": "uint256",
          "name": "_shares",
          "type": "uint256"
        }
      ],
      "name": "getPoolByShares",
      "outputs": [
        {
          "internalType": "uint256",
          "name": "",
          "type": "uint256"
        }
      ],
      "stateMutability": "view",
      "type": "function"
    },
    {
      "inputs": [
        {
          "internalType": "uint256",
          "name": "_stAmount",
          "type": "uint256"
        }
      ],
      "name": "getPooledTokenByStToken",
      "outputs": [
        {
          "internalType": "uint256",
          "name": "",
          "type": "uint256"
        }
      ],
      "stateMutability": "view",
      "type": "function"
    },
    {
      "inputs": [
        {
          "internalType": "uint256",
          "name": "_amount",
          "type": "uint256"
        }
      ],
      "name": "getSharesByPool",
      "outputs": [
        {
          "internalType": "uint256",
          "name": "",
          "type": "uint256"
        }
      ],
      "stateMutability": "view",
      "type": "function"
    },
    {
      "inputs": [
        {
          "internalType": "uint256",
          "name": "_amount",
          "type": "uint256"
        }
      ],
      "name": "getStTokenByPooledToken",
      "outputs": [
        {
          "internalType": "uint256",
          "name": "",
          "type": "uint256"
        }
      ],
      "stateMutability": "view",
      "type": "function"
    },
    {
      "inputs": [],
      "name": "getTokenUnbonded",
      "outputs": [
        {
          "internalType": "uint256",
          "name": "",
          "type": "uint256"
        }
      ],
      "stateMutability": "view",
      "type": "function"
    },
    {
      "inputs": [
        {
          "internalType": "uint256",
          "name": "_reqId",
          "type": "uint256"
        }
      ],
      "name": "getWithdrawRequest",
      "outputs": [
        {
          "internalType": "bool",
          "name": "_claimable",
          "type": "bool"
        },
        {
          "internalType": "uint256",
          "name": "_tokenAmt",
          "type": "uint256"
        },
        {
          "internalType": "uint256",
          "name": "_stTokenAmt",
          "type": "uint256"
        },
        {
          "internalType": "uint256",
          "name": "_requestTs",
          "type": "uint256"
        },
        {
          "internalType": "uint256",
          "name": "_waitForTs",
          "type": "uint256"
        }
      ],
      "stateMutability": "view",
      "type": "function"
    },
    {
      "inputs": [
        {
          "internalType": "address",
          "name": "spender",
          "type": "address"
        },
        {
          "internalType": "uint256",
          "name": "addedValue",
          "type": "uint256"
        }
      ],
      "name": "increaseAllowance",
      "outputs": [
        {
          "internalType": "bool",
          "name": "",
          "type": "bool"
        }
      ],
      "stateMutability": "nonpayable",
      "type": "function"
    },
    {
      "inputs": [
        {
          "internalType": "string",
          "name": "_name",
          "type": "string"
        },
        {
          "internalType": "string",
          "name": "_symbol",
          "type": "string"
        },
        {
          "internalType": "address",
          "name": "_treasury",
          "type": "address"
        },
        {
          "internalType": "address",
          "name": "_admin",
          "type": "address"
        },
        {
          "internalType": "address",
          "name": "_priceOracle",
          "type": "address"
        },
        {
          "internalType": "address",
          "name": "_token",
          "type": "address"
        },
        {
          "internalType": "address",
          "name": "_stToken",
          "type": "address"
        }
      ],
      "name": "initialize",
      "outputs": [],
      "stateMutability": "nonpayable",
      "type": "function"
    },
    {
      "inputs": [
        {
          "internalType": "address",
          "name": "_treasury",
          "type": "address"
        },
        {
          "internalType": "address",
          "name": "_admin",
          "type": "address"
        },
        {
          "internalType": "address",
          "name": "_priceOracle",
          "type": "address"
        },
        {
          "internalType": "contract IL2Vault",
          "name": "_stNEARVault",
          "type": "address"
        }
      ],
      "name": "initialize1",
      "outputs": [],
      "stateMutability": "nonpayable",
      "type": "function"
    },
    {
      "inputs": [],
      "name": "invest",
      "outputs": [],
      "stateMutability": "nonpayable",
      "type": "function"
    },
    {
      "inputs": [],
      "name": "investInterval",
      "outputs": [
        {
          "internalType": "uint256",
          "name": "",
          "type": "uint256"
        }
      ],
      "stateMutability": "view",
      "type": "function"
    },
    {
      "inputs": [],
      "name": "lastCollectProfitTs",
      "outputs": [
        {
          "internalType": "uint256",
          "name": "",
          "type": "uint256"
        }
      ],
      "stateMutability": "view",
      "type": "function"
    },
    {
      "inputs": [],
      "name": "lastInvestTs",
      "outputs": [
        {
          "internalType": "uint256",
          "name": "",
          "type": "uint256"
        }
      ],
      "stateMutability": "view",
      "type": "function"
    },
    {
      "inputs": [],
      "name": "lastRedeemTs",
      "outputs": [
        {
          "internalType": "uint256",
          "name": "",
          "type": "uint256"
        }
      ],
      "stateMutability": "view",
      "type": "function"
    },
    {
      "inputs": [],
      "name": "metaPool",
      "outputs": [
        {
          "internalType": "contract IMetaPool",
          "name": "",
          "type": "address"
        }
      ],
      "stateMutability": "view",
      "type": "function"
    },
    {
      "inputs": [],
      "name": "minInvestAmount",
      "outputs": [
        {
          "internalType": "uint256",
          "name": "",
          "type": "uint256"
        }
      ],
      "stateMutability": "view",
      "type": "function"
    },
    {
      "inputs": [],
      "name": "minRedeemAmount",
      "outputs": [
        {
          "internalType": "uint256",
          "name": "",
          "type": "uint256"
        }
      ],
      "stateMutability": "view",
      "type": "function"
    },
    {
      "inputs": [],
      "name": "name",
      "outputs": [
        {
          "internalType": "string",
          "name": "",
          "type": "string"
        }
      ],
      "stateMutability": "view",
      "type": "function"
    },
    {
      "inputs": [],
      "name": "nft",
      "outputs": [
        {
          "internalType": "contract IStVaultNFT",
          "name": "",
          "type": "address"
        }
      ],
      "stateMutability": "view",
      "type": "function"
    },
    {
      "inputs": [],
      "name": "oneEpoch",
      "outputs": [
        {
          "internalType": "uint256",
          "name": "",
          "type": "uint256"
        }
      ],
      "stateMutability": "view",
      "type": "function"
    },
    {
      "inputs": [],
      "name": "owner",
      "outputs": [
        {
          "internalType": "address",
          "name": "",
          "type": "address"
        }
      ],
      "stateMutability": "view",
      "type": "function"
    },
    {
      "inputs": [],
      "name": "paused",
      "outputs": [
        {
          "internalType": "bool",
          "name": "",
          "type": "bool"
        }
      ],
      "stateMutability": "view",
      "type": "function"
    },
    {
      "inputs": [],
      "name": "pendingRedeems",
      "outputs": [
        {
          "internalType": "uint256",
          "name": "",
          "type": "uint256"
        }
      ],
      "stateMutability": "view",
      "type": "function"
    },
    {
      "inputs": [],
      "name": "pendingWithdrawals",
      "outputs": [
        {
          "internalType": "uint256",
          "name": "",
          "type": "uint256"
        }
      ],
      "stateMutability": "view",
      "type": "function"
    },
    {
      "inputs": [],
      "name": "priceOracle",
      "outputs": [
        {
          "internalType": "contract IPriceOracle",
          "name": "",
          "type": "address"
        }
      ],
      "stateMutability": "view",
      "type": "function"
    },
    {
      "inputs": [],
      "name": "redeem",
      "outputs": [],
      "stateMutability": "nonpayable",
      "type": "function"
    },
    {
      "inputs": [],
      "name": "redeemInterval",
      "outputs": [
        {
          "internalType": "uint256",
          "name": "",
          "type": "uint256"
        }
      ],
      "stateMutability": "view",
      "type": "function"
    },
    {
      "inputs": [],
      "name": "reinvest",
      "outputs": [],
      "stateMutability": "nonpayable",
      "type": "function"
    },
    {
      "inputs": [],
      "name": "renounceOwnership",
      "outputs": [],
      "stateMutability": "nonpayable",
      "type": "function"
    },
    {
      "inputs": [],
      "name": "resetApr",
      "outputs": [],
      "stateMutability": "nonpayable",
      "type": "function"
    },
    {
      "inputs": [
        {
          "internalType": "address",
          "name": "_newAdmin",
          "type": "address"
        }
      ],
      "name": "setAdmin",
      "outputs": [],
      "stateMutability": "nonpayable",
      "type": "function"
    },
    {
      "inputs": [
        {
          "internalType": "uint256",
          "name": "_yieldFeePerc",
          "type": "uint256"
        }
      ],
      "name": "setFee",
      "outputs": [],
      "stateMutability": "nonpayable",
      "type": "function"
    },
    {
      "inputs": [
        {
          "internalType": "contract IL2Vault",
          "name": "_stNEARVault",
          "type": "address"
        }
      ],
      "name": "setL2Vault",
      "outputs": [],
      "stateMutability": "nonpayable",
      "type": "function"
    },
    {
      "inputs": [
        {
          "internalType": "address",
          "name": "_nft",
          "type": "address"
        }
      ],
      "name": "setNFT",
      "outputs": [],
      "stateMutability": "nonpayable",
      "type": "function"
    },
    {
      "inputs": [
        {
          "internalType": "uint256",
          "name": "_minInvestAmount",
          "type": "uint256"
        },
        {
          "internalType": "uint256",
          "name": "_minRedeemAmount",
          "type": "uint256"
        }
      ],
      "name": "setStakingAmounts",
      "outputs": [],
      "stateMutability": "nonpayable",
      "type": "function"
    },
    {
      "inputs": [
        {
          "internalType": "uint256",
          "name": "_unbondingPeriod",
          "type": "uint256"
        },
        {
          "internalType": "uint256",
          "name": "_investInterval",
          "type": "uint256"
        },
        {
          "internalType": "uint256",
          "name": "_redeemInterval",
          "type": "uint256"
        },
        {
          "internalType": "uint256",
          "name": "_oneEpoch",
          "type": "uint256"
        }
      ],
      "name": "setStakingPeriods",
      "outputs": [],
      "stateMutability": "nonpayable",
      "type": "function"
    },
    {
      "inputs": [
        {
          "internalType": "address",
          "name": "_wallet",
          "type": "address"
        }
      ],
      "name": "setTreasuryWallet",
      "outputs": [],
      "stateMutability": "nonpayable",
      "type": "function"
    },
    {
      "inputs": [],
      "name": "stNEARVault",
      "outputs": [
        {
          "internalType": "contract IL2Vault",
          "name": "",
          "type": "address"
        }
      ],
      "stateMutability": "view",
      "type": "function"
    },
    {
      "inputs": [],
      "name": "stToken",
      "outputs": [
        {
          "internalType": "contract IERC20Upgradeable",
          "name": "",
          "type": "address"
        }
      ],
      "stateMutability": "view",
      "type": "function"
    },
    {
      "inputs": [],
      "name": "symbol",
      "outputs": [
        {
          "internalType": "string",
          "name": "",
          "type": "string"
        }
      ],
      "stateMutability": "view",
      "type": "function"
    },
    {
      "inputs": [],
      "name": "token",
      "outputs": [
        {
          "internalType": "contract IERC20Upgradeable",
          "name": "",
          "type": "address"
        }
      ],
      "stateMutability": "view",
      "type": "function"
    },
    {
      "inputs": [],
      "name": "totalSupply",
      "outputs": [
        {
          "internalType": "uint256",
          "name": "",
          "type": "uint256"
        }
      ],
      "stateMutability": "view",
      "type": "function"
    },
    {
      "inputs": [
        {
          "internalType": "address",
          "name": "to",
          "type": "address"
        },
        {
          "internalType": "uint256",
          "name": "amount",
          "type": "uint256"
        }
      ],
      "name": "transfer",
      "outputs": [
        {
          "internalType": "bool",
          "name": "",
          "type": "bool"
        }
      ],
      "stateMutability": "nonpayable",
      "type": "function"
    },
    {
      "inputs": [
        {
          "internalType": "address",
          "name": "from",
          "type": "address"
        },
        {
          "internalType": "address",
          "name": "to",
          "type": "address"
        },
        {
          "internalType": "uint256",
          "name": "amount",
          "type": "uint256"
        }
      ],
      "name": "transferFrom",
      "outputs": [
        {
          "internalType": "bool",
          "name": "",
          "type": "bool"
        }
      ],
      "stateMutability": "nonpayable",
      "type": "function"
    },
    {
      "inputs": [
        {
          "internalType": "address",
          "name": "newOwner",
          "type": "address"
        }
      ],
      "name": "transferOwnership",
      "outputs": [],
      "stateMutability": "nonpayable",
      "type": "function"
    },
    {
      "inputs": [],
      "name": "treasuryWallet",
      "outputs": [
        {
          "internalType": "address",
          "name": "",
          "type": "address"
        }
      ],
      "stateMutability": "view",
      "type": "function"
    },
    {
      "inputs": [],
      "name": "unbondingPeriod",
      "outputs": [
        {
          "internalType": "uint256",
          "name": "",
          "type": "uint256"
        }
      ],
      "stateMutability": "view",
      "type": "function"
    },
    {
      "inputs": [],
      "name": "watermark",
      "outputs": [
        {
          "internalType": "uint256",
          "name": "",
          "type": "uint256"
        }
      ],
      "stateMutability": "view",
      "type": "function"
    },
    {
      "inputs": [
        {
          "internalType": "uint256",
          "name": "_shares",
          "type": "uint256"
        }
      ],
      "name": "withdraw",
      "outputs": [
        {
          "internalType": "uint256",
          "name": "_amount",
          "type": "uint256"
        },
        {
          "internalType": "uint256",
          "name": "_reqId",
          "type": "uint256"
        }
      ],
      "stateMutability": "nonpayable",
      "type": "function"
    },
    {
      "inputs": [],
      "name": "withdrawFees",
      "outputs": [],
      "stateMutability": "nonpayable",
      "type": "function"
    },
    {
      "inputs": [],
      "name": "yield",
      "outputs": [],
      "stateMutability": "nonpayable",
      "type": "function"
    },
    {
      "inputs": [],
      "name": "yieldFee",
      "outputs": [
        {
          "internalType": "uint256",
          "name": "",
          "type": "uint256"
        }
      ],
      "stateMutability": "view",
      "type": "function"
    },
    {
      "stateMutability": "payable",
      "type": "receive"
    }
  ],
  "transactionHash": "0x22dcdf708ad4492ee55b4e0161470d9cab222e670e469e90eae39dc27433dce8",
  "args": [],
  "numDeployments": 3,
  "solcInputHash": "aa8af62c39c4987602902032509083cd",
  "bytecode": "0x608060405234801561001057600080fd5b5061562880620000216000396000f3fe60806040526004361061046c5760003560e01c80637e478b861161024a578063beca03d511610139578063e4717f6a116100b6578063f6326fb31161007a578063f6326fb314610cf0578063f851a44014610cf8578063fc0c546a14610d18578063fdb5a03e14610d39578063fe8fc02a14610d4e57600080fd5b8063e4717f6a14610c56578063e8b5e51f14610c85578063f13dc2e214610c9a578063f2fde38b14610cb0578063f56e9c6614610cd057600080fd5b8063d36af3fc116100fd578063d36af3fc14610bd8578063d80dfc3b14610bed578063d9621f9e146108fd578063db2e21bc14610c21578063dd62ed3e14610c3657600080fd5b8063beca03d514610b22578063c1c33f0e14610b39578063c89d5b8b14610b59578063c91f0c5314610b6e578063cc0fe4a414610b8e57600080fd5b8063a5ff3f80116101c7578063b3e2f3c81161018b578063b3e2f3c814610a98578063b6b55f2514610ab8578063bb46554214610ad8578063bd244af414610af8578063be040fb014610b0d57600080fd5b8063a5ff3f8014610a13578063a8602fea14610a2a578063a9059cbb14610a4a578063b09f532014610a6a578063b162d5dc14610a8157600080fd5b806395d89b411161020e57806395d89b411461099c5780639af1d35a146109b15780639bceb857146109c7578063a20a4cb4146109de578063a457c2d7146109f357600080fd5b80637e478b86146109115780638954b3e0146109315780638da5cb5b146109465780639119c067146109645780639306c1da1461097b57600080fd5b80633f690113116103665780635c975abb116102e35780636cf6d675116102a75780636cf6d6751461087b578063704b6c021461089257806370a08231146108b2578063715018a6146108e857806373ff5f7c146108fd57600080fd5b80635c975abb146107db5780635f86fe9c146107f357806361bc47881461082557806369fe0e2d146108455780636ba897841461086557600080fd5b8063476343ee1161032a578063476343ee1461075a57806347ccca021461076f5780634a351b8a146107905780634b950d0f146107a55780635acb5da9146107ba57600080fd5b80633f690113146106d757806341c521d0146106ee57806342050f581461070e5780634626402b14610725578063470343d81461074557600080fd5b80632630c12f116103f4578063313ce567116103b8578063313ce56714610644578063318ea92014610660578063379607f51461068057806338f360b3146106a057806339509351146106b757600080fd5b80632630c12f146105a457806328593984146105c55780632a39e8e4146105da5780632d2009b0146105ef5780632e1a7d4d1461060f57600080fd5b806318160ddd1161043b57806318160ddd1461050a5780631a813a3c1461051f57806323b6443e1461053657806323b872dd1461056f57806324b1a1f71461058f57600080fd5b8063034f40831461047857806306fdde03146104a15780630912ae6d146104c3578063095ea7b3146104da57600080fd5b3661047357005b600080fd5b34801561048457600080fd5b5061048e60fb5481565b6040519081526020015b60405180910390f35b3480156104ad57600080fd5b506104b6610d65565b6040516104989190614d5f565b3480156104cf57600080fd5b5061048e61010c5481565b3480156104e657600080fd5b506104fa6104f5366004614da7565b610df7565b6040519015158152602001610498565b34801561051657600080fd5b5060355461048e565b34801561052b57600080fd5b50610534610e11565b005b34801561054257600080fd5b5061010354610557906001600160a01b031681565b6040516001600160a01b039091168152602001610498565b34801561057b57600080fd5b506104fa61058a366004614dd3565b610e5b565b34801561059b57600080fd5b5061048e610e81565b3480156105b057600080fd5b5061010054610557906001600160a01b031681565b3480156105d157600080fd5b50610534610e9c565b3480156105e657600080fd5b5061048e610efe565b3480156105fb57600080fd5b5061053461060a366004614e14565b610f17565b34801561061b57600080fd5b5061062f61062a366004614e46565b610f59565b60408051928352602083019190915201610498565b34801561065057600080fd5b5060405160128152602001610498565b34801561066c57600080fd5b5061048e61067b366004614e46565b61130e565b34801561068c57600080fd5b5061048e61069b366004614e46565b61146a565b3480156106ac57600080fd5b5061048e61010d5481565b3480156106c357600080fd5b506104fa6106d2366004614da7565b6116ef565b3480156106e357600080fd5b5061048e61010f5481565b3480156106fa57600080fd5b50610534610709366004614e5f565b611711565b34801561071a57600080fd5b5061048e6101125481565b34801561073157600080fd5b5060fe54610557906001600160a01b031681565b34801561075157600080fd5b506105346117ff565b34801561076657600080fd5b50610534611869565b34801561077b57600080fd5b5061010154610557906001600160a01b031681565b34801561079c57600080fd5b5061048e6118b0565b3480156107b157600080fd5b50610534611942565b3480156107c657600080fd5b5061012c54610557906001600160a01b031681565b3480156107e757600080fd5b5060655460ff166104fa565b3480156107ff57600080fd5b5061080861198b565b604080519384526020840192909252151590820152606001610498565b34801561083157600080fd5b5061048e610840366004614e46565b611a61565b34801561085157600080fd5b50610534610860366004614e46565b611b59565b34801561087157600080fd5b506101095461048e565b34801561088757600080fd5b5061048e61010a5481565b34801561089e57600080fd5b506105346108ad366004614e5f565b611bd2565b3480156108be57600080fd5b5061048e6108cd366004614e5f565b6001600160a01b031660009081526033602052604090205490565b3480156108f457600080fd5b50610534611c1e565b34801561090957600080fd5b50600061048e565b34801561091d57600080fd5b5061053461092c366004614e7c565b611c52565b34801561093d57600080fd5b50610534611d29565b34801561095257600080fd5b5060c9546001600160a01b0316610557565b34801561097057600080fd5b5061048e6101085481565b34801561098757600080fd5b5061012d54610557906001600160a01b031681565b3480156109a857600080fd5b506104b6611d92565b3480156109bd57600080fd5b5061048e60fd5481565b3480156109d357600080fd5b5061048e6101115481565b3480156109ea57600080fd5b5061048e611da1565b3480156109ff57600080fd5b506104fa610a0e366004614da7565b611f61565b348015610a1f57600080fd5b5061048e6101105481565b348015610a3657600080fd5b50610534610a45366004614e5f565b611fe7565b348015610a5657600080fd5b506104fa610a65366004614da7565b61207a565b348015610a7657600080fd5b5061048e6101065481565b348015610a8d57600080fd5b5061048e61010b5481565b348015610aa457600080fd5b50610534610ab3366004614e9e565b612088565b348015610ac457600080fd5b50610534610ad3366004614e46565b612234565b348015610ae457600080fd5b5061048e610af3366004614e46565b612291565b348015610b0457600080fd5b5061048e6122ce565b348015610b1957600080fd5b506105346122f3565b348015610b2e57600080fd5b5061048e6101075481565b348015610b4557600080fd5b5061048e610b54366004614e46565b61244b565b348015610b6557600080fd5b5061048e612468565b348015610b7a57600080fd5b50610534610b89366004614fb1565b61254b565b348015610b9a57600080fd5b50610bae610ba9366004614e46565b612794565b6040805195151586526020860194909452928401919091526060830152608082015260a001610498565b348015610be457600080fd5b5061048e612825565b348015610bf957600080fd5b5061011554610116546101175460408051938452602084019290925290820152606001610498565b348015610c2d57600080fd5b506105346129ca565b348015610c4257600080fd5b5061048e610c51366004615074565b612a39565b348015610c6257600080fd5b50610c76610c713660046150ad565b612a64565b60405161049893929190615153565b348015610c9157600080fd5b50610534612d35565b348015610ca657600080fd5b5061048e60fc5481565b348015610cbc57600080fd5b50610534610ccb366004614e5f565b612d9f565b348015610cdc57600080fd5b50610534610ceb366004614e5f565b612e37565b610534612ecc565b348015610d0457600080fd5b5060ff54610557906001600160a01b031681565b348015610d2457600080fd5b5061010254610557906001600160a01b031681565b348015610d4557600080fd5b50610534612f28565b348015610d5a57600080fd5b5061048e61010e5481565b606060368054610d74906151aa565b80601f0160208091040260200160405190810160405280929190818152602001828054610da0906151aa565b8015610ded5780601f10610dc257610100808354040283529160200191610ded565b820191906000526020600020905b815481529060010190602001808311610dd057829003601f168201915b5050505050905090565b600033610e05818585612ffc565b60019150505b92915050565b60c9546001600160a01b0316331480610e34575060ff546001600160a01b031633145b610e595760405162461bcd60e51b8152600401610e50906151df565b60405180910390fd5b565b600033610e69858285613121565b610e7485858561319b565b60019150505b9392505050565b6000610e9761010654610e92613369565b613394565b905090565b60c9546001600160a01b0316331480610ebf575060ff546001600160a01b031633145b610edb5760405162461bcd60e51b8152600401610e50906151df565b60655460ff1615610e595760405162461bcd60e51b8152600401610e509061520c565b600061010654610f0d306133a4565b610e97919061524c565b60c9546001600160a01b03163314610f415760405162461bcd60e51b8152600401610e5090615263565b61010a9390935561010e919091556101105561011255565b60008060026097541415610f7f5760405162461bcd60e51b8152600401610e5090615298565b600260975582610fc25760405162461bcd60e51b815260206004820152600e60248201526d125b9d985b1a5908105b5bdd5b9d60921b6044820152606401610e50565b336000908152603360205260409020548311156110165760405162461bcd60e51b81526020600482015260126024820152714e6f7420656e6f7567682062616c616e636560701b6044820152606401610e50565b33600090815261011360205260409020544314156110765760405162461bcd60e51b815260206004820152601a60248201527f57697468647261772077697468696e2073616d6520626c6f636b0000000000006044820152606401610e50565b600061108184612291565b905061108d338561345d565b6110988160006135a8565b60006110a2610e81565b60fd549091506000818311156110c45760fd546110bf908461524c565b6110c7565b60005b90508381106110db579294506000926110eb565b9450846110e8818561524c565b93505b6110f5868461524c565b6101065583156112ae57600061110d61010554611a61565b9050600081866101055461112191906152cf565b61112b91906152ee565b90506000806111398361361c565b9092509050811561115d5761114e818b615310565b995061115a828461524c565b92505b6101055461116b84866152cf565b61117591906152ee565b975082156112a9578761010760008282546111909190615310565b909155505060655460ff166111bd578261010860008282546111b29190615310565b909155506111eb9050565b60006111c96101095490565b9050838111156111e2576111dd848261524c565b6111e5565b60005b61010955505b610101546040516335313c2160e11b81523360048201526001600160a01b0390911690636a62784290602401602060405180830381600087803b15801561123157600080fd5b505af1158015611245573d6000803e3d6000fd5b505050506040513d601f19601f820116820180604052508101906112699190615328565b604080516060810182528a815260208082018781524283850190815260008681526101149093529390912091518255516001820155905160029091015598505b505050505b85156112be576112be338761373b565b60408051888152602081018790528591889133917fe08737ac48a1dab4b1a46c7dc9398bd5bfc6d7ad6fabb7cd8caa254de14def35910160405180910390a4505050506001609781905550915091565b60008061012c60009054906101000a90046001600160a01b03166001600160a01b031663f79a4fb96040518163ffffffff1660e01b815260040160206040518083038186803b15801561136057600080fd5b505afa158015611374573d6000803e3d6000fd5b505050506040513d601f19601f820116820180604052508101906113989190615328565b610105546113a690856152cf565b6113b091906152ee565b9050600061271061012c60009054906101000a90046001600160a01b03166001600160a01b031663bcb18e7c6040518163ffffffff1660e01b815260040160206040518083038186803b15801561140657600080fd5b505afa15801561141a573d6000803e3d6000fd5b505050506040513d601f19601f8201168201806040525081019061143e9190615341565b61144c9061ffff16846152cf565b61145691906152ee565b9050611462818361524c565b949350505050565b60006002609754141561148f5760405162461bcd60e51b8152600401610e5090615298565b60026097556101015460405163430c208160e01b8152336004820152602481018490526001600160a01b039091169063430c20819060440160206040518083038186803b1580156114df57600080fd5b505afa1580156114f3573d6000803e3d6000fd5b505050506040513d601f19601f820116820180604052508101906115179190615365565b61154f5760405162461bcd60e51b81526020600482015260096024820152682737ba1037bbb732b960b91b6044820152606401610e50565b600082815261011460209081526040918290208251606081018452815481526001820154928101929092526002015491810182905261010a5490916115949190615310565b4210156115db5760405162461bcd60e51b8152602060048201526015602482015274139bdd0818589b19481d1bc818db185a5b481e595d605a1b6044820152606401610e50565b80516115ee6115e8610efe565b82613789565b9250600083116116325760405162461bcd60e51b815260206004820152600f60248201526e27379032b737bab3b4103a37b5b2b760891b6044820152606401610e50565b61010154604051630852cd8d60e31b8152600481018690526001600160a01b03909116906342966c6890602401600060405180830381600087803b15801561167957600080fd5b505af115801561168d573d6000803e3d6000fd5b505050508061010760008282546116a4919061524c565b909155506116b49050338461373b565b6040518390859033907f34fcbac0073d7c3d388e51312faf357774904998eeb8fca628b9e6f65ee1cbf790600090a450506001609755919050565b600033610e058185856117028383612a39565b61170c9190615310565b612ffc565b60c9546001600160a01b0316331461173b5760405162461bcd60e51b8152600401610e5090615263565b61012d80546001600160a01b0319166001600160a01b0383811691821790925561010354604051636eb1769f60e11b815230600482015260248101929092529091169063dd62ed3e9060440160206040518083038186803b15801561179f57600080fd5b505afa1580156117b3573d6000803e3d6000fd5b505050506040513d601f19601f820116820180604052508101906117d79190615328565b6117fc5761012d54610103546117fc916001600160a01b0391821691166000196137cb565b50565b60c9546001600160a01b0316331480611822575060ff546001600160a01b031633145b61183e5760405162461bcd60e51b8152600401610e50906151df565b60655460ff16156118615760405162461bcd60e51b8152600401610e509061520c565b610e59613922565b60c9546001600160a01b031633148061188c575060ff546001600160a01b031633145b6118a85760405162461bcd60e51b8152600401610e50906151df565b6117fc6139c7565b60006118be60655460ff1690565b1561193f57610103546040516370a0823160e01b81523060048201526001600160a01b03909116906370a082319060240160206040518083038186803b15801561190757600080fd5b505afa15801561191b573d6000803e3d6000fd5b505050506040513d601f19601f82011682018060405250810190610e979190615328565b90565b60c9546001600160a01b0316331461196c5760405162461bcd60e51b8152600401610e5090615263565b611983600061011581905561011681905561011755565b610e59613a7c565b610115546101165461011754600092839283928215806119b75750426119b48262093a80615310565b11155b15611a535760006119cf670de0b6b3a7640000612291565b90508260001080156119e057508083105b15611a425760006119f1834261524c565b6119fb90856152cf565b670de0b6b3a76400006301e13380611a13878661524c565b611a1d91906152cf565b611a2791906152cf565b611a3191906152ee565b989197506001965090945050505050565b600097909650600195509350505050565b509094909350600092509050565b6000806101055461012c60009054906101000a90046001600160a01b03166001600160a01b031663f79a4fb96040518163ffffffff1660e01b815260040160206040518083038186803b158015611ab757600080fd5b505afa158015611acb573d6000803e3d6000fd5b505050506040513d601f19601f82011682018060405250810190611aef9190615328565b611af990856152cf565b611b0391906152ee565b9050600061271061012c60009054906101000a90046001600160a01b03166001600160a01b031663498049bd6040518163ffffffff1660e01b815260040160206040518083038186803b15801561140657600080fd5b60c9546001600160a01b03163314611b835760405162461bcd60e51b8152600401610e5090615263565b610bb98110611bcd5760405162461bcd60e51b81526020600482015260166024820152755969656c64204665652063616e6e6f74203e2033302560501b6044820152606401610e50565b60fb55565b60c9546001600160a01b03163314611bfc5760405162461bcd60e51b8152600401610e5090615263565b60ff80546001600160a01b0319166001600160a01b0392909216919091179055565b60c9546001600160a01b03163314611c485760405162461bcd60e51b8152600401610e5090615263565b610e596000613aa8565b60c9546001600160a01b03163314611c7c5760405162461bcd60e51b8152600401610e5090615263565b60008211611ccc5760405162461bcd60e51b815260206004820152601b60248201527f6d696e496e76657374416d6f756e74206d757374206265203e203000000000006044820152606401610e50565b60008111611d1c5760405162461bcd60e51b815260206004820152601b60248201527f6d696e52656465656d416d6f756e74206d757374206265203e203000000000006044820152606401610e50565b61010b9190915561010c55565b60c9546001600160a01b0316331480611d4c575060ff546001600160a01b031633145b611d685760405162461bcd60e51b8152600401610e50906151df565b60655460ff16611d8a5760405162461bcd60e51b8152600401610e5090615387565b610e59613afa565b606060378054610d74906151aa565b6000611daf60655460ff1690565b611e8957600061010854611dc1612825565b610103546040516370a0823160e01b81523060048201526001600160a01b03909116906370a082319060240160206040518083038186803b158015611e0557600080fd5b505afa158015611e19573d6000803e3d6000fd5b505050506040513d601f19601f82011682018060405250810190611e3d9190615328565b611e479190615310565b611e51919061524c565b90508015611e6557611e6281611a61565b91505b61010654611e739083615310565b915060fd5482611e83919061524c565b91505090565b600061010854611e996101095490565b611ea1612825565b610103546040516370a0823160e01b81523060048201526001600160a01b03909116906370a082319060240160206040518083038186803b158015611ee557600080fd5b505afa158015611ef9573d6000803e3d6000fd5b505050506040513d601f19601f82011682018060405250810190611f1d9190615328565b611f279190615310565b611f319190615310565b611f3b919061524c565b90508015611f4f57611f4c81611a61565b91505b611f57613369565b611e739083615310565b60003381611f6f8286612a39565b905083811015611fcf5760405162461bcd60e51b815260206004820152602560248201527f45524332303a2064656372656173656420616c6c6f77616e63652062656c6f77604482015264207a65726f60d81b6064820152608401610e50565b611fdc8286868403612ffc565b506001949350505050565b60c9546001600160a01b031633146120115760405162461bcd60e51b8152600401610e5090615263565b6001600160a01b0381166120585760405162461bcd60e51b815260206004820152600e60248201526d1dd85b1b195d081a5b9d985b1a5960921b6044820152606401610e50565b60fe80546001600160a01b0319166001600160a01b0392909216919091179055565b600033610e0581858561319b565b60006120946001613b75565b905080156120ac576000805461ff0019166101001790555b61212d6040518060400160405280601181526020017029aa249029ba30b5b4b733902ba722a0a960791b8152506040518060400160405280600981526020016839ba34a9ba2722a0a960b91b815250878787734861825e75ab14553e5af711ebbe6873d369d146732137df2e54abd6bf1c1a8c1739f2ea6a8c15f14461254b565b61012c80546001600160a01b0319908116730df588aabdd4e031f1903326cc0d8e79dfbd35669081178355610e1061010a556101045461010b5561010e8390556101109290925561a8c06101125561012d80546001600160a01b0386811691909316179055610102546121a5929116906000196137cb565b61012c54610103546121c6916001600160a01b0391821691166000196137cb565b61012d54610103546121e7916001600160a01b0391821691166000196137cb565b801561222d576000805461ff0019169055604051600181527f7f26b83ff96e1f2b6a682f133852f6798a09c465da95921460cefb38474024989060200160405180910390a15b5050505050565b600260975414156122575760405162461bcd60e51b8152600401610e5090615298565b600260975560655460ff161561227f5760405162461bcd60e51b8152600401610e509061520c565b6122893382613c02565b506001609755565b60008061229d60355490565b905080156122c757806122ae611da1565b6122b890856152cf565b6122c291906152ee565b610e7a565b5090919050565b6000806122d9611da1565b61010254909150611e83906001600160a01b031682613d58565b60c9546001600160a01b0316331480612316575060ff546001600160a01b031633145b6123325760405162461bcd60e51b8152600401610e50906151df565b60655460ff16156123555760405162461bcd60e51b8152600401610e509061520c565b6101085461010c548110156123985760405162461bcd60e51b81526020600482015260096024820152681d1bdbc81cdb585b1b60ba1b6044820152606401610e50565b6101105461010f546123aa9190615310565b4210156123f25760405162461bcd60e51b8152602060048201526016602482015275139bdd0818589b19481d1bc81c995919595b481e595d60521b6044820152606401610e50565b60006123fd82613e26565b9050806101086000828254612412919061524c565b90915550504261010f5560405181907f702d5967f45f6513a38ffc42d6ba9bf230bd40e8f53b16363c7eb4fd2deb9a4490600090a25050565b600080612456611da1565b905080156122c757806122ae60355490565b60008061247361407c565b9050600061012d60009054906101000a90046001600160a01b03166001600160a01b031663c89d5b8b6040518163ffffffff1660e01b815260040160206040518083038186803b1580156124c657600080fd5b505afa1580156124da573d6000803e3d6000fd5b505050506040513d601f19601f820116820180604052508101906124fe9190615328565b9050670de0b6b3a7640000806125148382615310565b61252685670de0b6b3a7640000615310565b61253091906152cf565b61253a91906152ee565b612544919061524c565b9250505090565b60006125576001613b75565b9050801561256f576000805461ff0019166101001790555b6001600160a01b0386166125b85760405162461bcd60e51b815260206004820152601060248201526f1d1c99585cdd5c9e481a5b9d985b1a5960821b6044820152606401610e50565b6125c0614090565b6125c86140c0565b6125d288886140e7565b6107d060fb5560fe80546001600160a01b038089166001600160a01b03199283161790925560ff805488841690831617905561010080548784169083161790556101028054868416908316811790915561010380549386169390921692909217905561263d90614135565b61010360146101000a81548160ff021916908360ff16021790555061010360009054906101000a90046001600160a01b03166001600160a01b031663313ce5676040518163ffffffff1660e01b815260040160206040518083038186803b1580156126a757600080fd5b505afa1580156126bb573d6000803e3d6000fd5b505050506040513d601f19601f820116820180604052508101906126df91906153c6565b610103805460ff60a81b1916600160a81b60ff93841602179081905561270f91600160a01b90910416600a6154c5565b610104556101035461272c90600160a81b900460ff16600a6154c5565b61010555600161010b81905561010c55612744613a7c565b801561278a576000805461ff0019169055604051600181527f7f26b83ff96e1f2b6a682f133852f6798a09c465da95921460cefb38474024989060200160405180910390a15b5050505050505050565b60008181526101146020908152604080832081516060810183528154808252600183015494820185905260029092015492810183905261010a549193929185919082906127e19085615310565b9050428111156127fc576127f5428261524c565b925061281a565b600061280f612809610efe565b88613789565b111561281a57600196505b505091939590929450565b61012d546040516370a0823160e01b815230600482015260009182916001600160a01b03909116906370a082319060240160206040518083038186803b15801561286e57600080fd5b505afa158015612882573d6000803e3d6000fd5b505050506040513d601f19601f820116820180604052508101906128a69190615328565b905080156129c65761012d60009054906101000a90046001600160a01b03166001600160a01b03166318160ddd6040518163ffffffff1660e01b815260040160206040518083038186803b1580156128fd57600080fd5b505afa158015612911573d6000803e3d6000fd5b505050506040513d601f19601f820116820180604052508101906129359190615328565b61012d5460408051632882932d60e21b8152905184926001600160a01b03169163a20a4cb4916004808301926020929190829003018186803b15801561297a57600080fd5b505afa15801561298e573d6000803e3d6000fd5b505050506040513d601f19601f820116820180604052508101906129b29190615328565b6129bc91906152cf565b611e8391906152ee565b5090565b60c9546001600160a01b03163314806129ed575060ff546001600160a01b031633145b612a095760405162461bcd60e51b8152600401610e50906151df565b60655460ff1615612a2c5760405162461bcd60e51b8152600401610e509061520c565b612a346141d9565b611d8a565b6001600160a01b03918216600090815260346020908152604080832093909416825291909152205490565b600080606060026097541415612a8c5760405162461bcd60e51b8152600401610e5090615298565b60026097556000612a9b610efe565b85519091506000908067ffffffffffffffff811115612abc57612abc614efa565b604051908082528060200260200182016040528015612ae5578160200160208202803683370190505b50935060005b81811015612ce5576000888281518110612b0757612b076154d4565b60209081029190910101516101015460405163430c208160e01b8152336004820152602481018390529192506001600160a01b03169063430c20819060440160206040518083038186803b158015612b5e57600080fd5b505afa158015612b72573d6000803e3d6000fd5b505050506040513d601f19601f82011682018060405250810190612b969190615365565b612ba05750612cd3565b600081815261011460209081526040918290208251606081018452815481526001820154928101929092526002015491810182905261010a549091612be59190615310565b421015612bf3575050612cd3565b8051612bff8782613789565b955085612c0e57505050612cd3565b612c18868b615310565b9950612c24868861524c565b9650806101076000828254612c39919061524c565b909155505061010154604051630852cd8d60e31b8152600481018590526001600160a01b03909116906342966c6890602401600060405180830381600087803b158015612c8557600080fd5b505af1158015612c99573d6000803e3d6000fd5b505050508880612ca8906154ea565b9950506001888581518110612cbf57612cbf6154d4565b911515602092830291909101909101525050505b80612cdd816154ea565b915050612aeb565b508515612d2657612cf6338761373b565b6040518590879033907f1230003b239f7686d92a5b33084711bef8ae5f401f3d27f049d9196a138d448290600090a45b50506001609755509193909250565b60c9546001600160a01b0316331480612d58575060ff546001600160a01b031633145b612d745760405162461bcd60e51b8152600401610e50906151df565b60655460ff1615612d975760405162461bcd60e51b8152600401610e509061520c565b610e5961424e565b60c9546001600160a01b03163314612dc95760405162461bcd60e51b8152600401610e5090615263565b6001600160a01b038116612e2e5760405162461bcd60e51b815260206004820152602660248201527f4f776e61626c653a206e6577206f776e657220697320746865207a65726f206160448201526564647265737360d01b6064820152608401610e50565b6117fc81613aa8565b60c9546001600160a01b03163314612e615760405162461bcd60e51b8152600401610e5090615263565b610101546001600160a01b031615612ea95760405162461bcd60e51b815260206004820152600b60248201526a105b1c9958591e481cd95d60aa1b6044820152606401610e50565b61010180546001600160a01b0319166001600160a01b0392909216919091179055565b60026097541415612eef5760405162461bcd60e51b8152600401610e5090615298565b600260975560655460ff1615612f175760405162461bcd60e51b8152600401610e509061520c565b612f213334613c02565b6001609755565b60c9546001600160a01b0316331480612f4b575060ff546001600160a01b031633145b612f675760405162461bcd60e51b8152600401610e50906151df565b60655460ff16612f895760405162461bcd60e51b8152600401610e5090615387565b6101095415612fe65760405162461bcd60e51b815260206004820152602360248201527f456d657267656e637920756e626f6e64696e67206973206e6f742066696e69736044820152621a195960ea1b6064820152608401610e50565b612fee6142da565b600061010955610e5961424e565b6001600160a01b03831661305e5760405162461bcd60e51b8152602060048201526024808201527f45524332303a20617070726f76652066726f6d20746865207a65726f206164646044820152637265737360e01b6064820152608401610e50565b6001600160a01b0382166130bf5760405162461bcd60e51b815260206004820152602260248201527f45524332303a20617070726f766520746f20746865207a65726f206164647265604482015261737360f01b6064820152608401610e50565b6001600160a01b0383811660008181526034602090815260408083209487168084529482529182902085905590518481527f8c5be1e5ebec7d5bd14f71427d1e84f3dd0314c0f7b2291e5b200ac8c7c3b92591015b60405180910390a3505050565b600061312d8484612a39565b9050600019811461319557818110156131885760405162461bcd60e51b815260206004820152601d60248201527f45524332303a20696e73756666696369656e7420616c6c6f77616e63650000006044820152606401610e50565b6131958484848403612ffc565b50505050565b6001600160a01b0383166131ff5760405162461bcd60e51b815260206004820152602560248201527f45524332303a207472616e736665722066726f6d20746865207a65726f206164604482015264647265737360d81b6064820152608401610e50565b6001600160a01b0382166132615760405162461bcd60e51b815260206004820152602360248201527f45524332303a207472616e7366657220746f20746865207a65726f206164647260448201526265737360e81b6064820152608401610e50565b6001600160a01b038316600090815260336020526040902054818110156132d95760405162461bcd60e51b815260206004820152602660248201527f45524332303a207472616e7366657220616d6f756e7420657863656564732062604482015265616c616e636560d01b6064820152608401610e50565b6001600160a01b03808516600090815260336020526040808220858503905591851681529081208054849290613310908490615310565b92505081905550826001600160a01b0316846001600160a01b03167fddf252ad1be2c89b69c2b068fc378daa952ba7f163c4a11628f55a4df523b3ef8460405161335c91815260200190565b60405180910390a3613195565b600080613375306133a4565b6101075490915080821161338a576000612544565b612544818361524c565b6000818310156122c75781610e7a565b610102546000906001600160a01b031673eeeeeeeeeeeeeeeeeeeeeeeeeeeeeeeeeeeeeeee14156133df57816001600160a01b031631610e0b565b610102546040516370a0823160e01b81526001600160a01b038481166004830152909116906370a082319060240160206040518083038186803b15801561342557600080fd5b505afa158015613439573d6000803e3d6000fd5b505050506040513d601f19601f82011682018060405250810190610e0b9190615328565b6001600160a01b0382166134bd5760405162461bcd60e51b815260206004820152602160248201527f45524332303a206275726e2066726f6d20746865207a65726f206164647265736044820152607360f81b6064820152608401610e50565b6001600160a01b038216600090815260336020526040902054818110156135315760405162461bcd60e51b815260206004820152602260248201527f45524332303a206275726e20616d6f756e7420657863656564732062616c616e604482015261636560f01b6064820152608401610e50565b6001600160a01b038316600090815260336020526040812083830390556035805484929061356090849061524c565b90915550506040518281526000906001600160a01b038516907fddf252ad1be2c89b69c2b068fc378daa952ba7f163c4a11628f55a4df523b3ef90602001613114565b505050565b60fc546001821515146135d8578260fc54116135c55760006135e6565b8260fc546135d3919061524c565b6135e6565b8260fc546135e69190615310565b60fc8190556040518291907f07b7fa586c4fdef11992d9448b97ba78814c23ddec7e1d4bf195fda6716e472690600090a3505050565b610102546040516370a0823160e01b8152306004820152600091829182916001600160a01b0316906370a082319060240160206040518083038186803b15801561366557600080fd5b505afa158015613679573d6000803e3d6000fd5b505050506040513d601f19601f8201168201806040525081019061369d9190615328565b90506136a884613e26565b610102546040516370a0823160e01b815230600482015291945082916001600160a01b03909116906370a082319060240160206040518083038186803b1580156136f157600080fd5b505afa158015613705573d6000803e3d6000fd5b505050506040513d601f19601f820116820180604052508101906137299190615328565b613733919061524c565b915050915091565b610102546001600160a01b031673eeeeeeeeeeeeeeeeeeeeeeeeeeeeeeeeeeeeeeee14156137715761376d828261432d565b5050565b6101025461376d906001600160a01b031683836143e0565b6000806305f5e10061379f846305f5e0ff6152cf565b6137a991906152ee565b90508084106137c1576137bc8484614410565b611462565b6000949350505050565b8015806138545750604051636eb1769f60e11b81523060048201526001600160a01b03838116602483015284169063dd62ed3e9060440160206040518083038186803b15801561381a57600080fd5b505afa15801561382e573d6000803e3d6000fd5b505050506040513d601f19601f820116820180604052508101906138529190615328565b155b6138bf5760405162461bcd60e51b815260206004820152603660248201527f5361666545524332303a20617070726f76652066726f6d206e6f6e2d7a65726f60448201527520746f206e6f6e2d7a65726f20616c6c6f77616e636560501b6064820152608401610e50565b6040516001600160a01b0383166024820152604481018290526135a390849063095ea7b360e01b906064015b60408051601f198184030181529190526020810180516001600160e01b03166001600160e01b03199093169290921790915261441f565b600061392c611da1565b60fc5490915060008183111561398e576000613948838561524c565b905061271060fb548261395b91906152cf565b61396591906152ee565b91508160fd60008282546139799190615310565b909155506139899050828561524c565b60fc55505b42610111556040518190839085907fa3e3c8c92ed1e364d04865f99cd96c3ae8f5a7d800f4a1d8148a58c6de6f1b7190600090a4505050565b60006139d1610e81565b60fd5490915080158015906139e557508115155b156129c6578082811015613a085760009150613a01818461524c565b9250613a1b565b613a12838361524c565b60009390925090505b60fd82905561010683905560fe54613a3c906001600160a01b03168261373b565b610102546040516001600160a01b039091169082907f6e027f1905abd7233c51c9483e29a545074ed10d39db528c9791a246b26741ff90600090a3505090565b6000806000613a8961198b565b92509250925080156135a3575061011591909155610116554261011755565b60c980546001600160a01b038381166001600160a01b0319831681179093556040519116919082907f8be0079c531659141344cd1fd0a4f28419497f9722a3daafe3b4186f6b6457e090600090a35050565b6101105461010f54613b0c9190615310565b4210610e5957610108546000613b21826144f1565b905080821115613b3a57613b35818361524c565b613b3d565b60005b610108554261010f5560405181907f99d7f8b71cfb9126984f7a5eed3a40e64a8959e9b0e442221546fb04ec6a489c90600090a25050565b60008054610100900460ff1615613bbc578160ff166001148015613b985750303b155b613bb45760405162461bcd60e51b8152600401610e5090615505565b506000919050565b60005460ff808416911610613be35760405162461bcd60e51b8152600401610e5090615505565b506000805460ff191660ff92909216919091179055600190565b919050565b60008111613c435760405162461bcd60e51b815260206004820152600e60248201526d125b9d985b1a5908185b5bdd5b9d60921b6044820152606401610e50565b6001600160a01b03808316600090815261011360205260409020439055610102541673eeeeeeeeeeeeeeeeeeeeeeeeeeeeeeeeeeeeeeee14613c985761010254613c98906001600160a01b0316833084614590565b806101066000828254613cab9190615310565b909155506000905081613cbc611da1565b613cc6919061524c565b90506000613cd360355490565b90506000821580613ce2575081155b613d005782613cf183866152cf565b613cfb91906152ee565b613d02565b835b9050613d0e85826145c8565b613d198460016135a8565b8084866001600160a01b03167f90890809c654f11d6e72a28fa60149770a0d11ec6c92319d6ceb2bb0a4ea1a1560405160405180910390a45050505050565b6101005460405163b3596f0760e01b81526001600160a01b038481166004830152600092839283929091169063b3596f0790602401604080518083038186803b158015613da457600080fd5b505afa158015613db8573d6000803e3d6000fd5b505050506040513d601f19601f82011682018060405250810190613ddc9190615553565b915091506000613deb86614135565b9050613df882600a6154c5565b83613e08878460ff1660126146a7565b613e1291906152cf565b613e1c91906152ee565b9695505050505050565b6101025461012c546040516370a0823160e01b81526001600160a01b039182166004820152600092839216906370a082319060240160206040518083038186803b158015613e7357600080fd5b505afa158015613e87573d6000803e3d6000fd5b505050506040513d601f19601f82011682018060405250810190613eab9190615328565b90508015614076576000613ebe84611a61565b905080821015613ee45780613ed383866152cf565b613edd91906152ee565b9250613ee8565b8392505b610103546040516370a0823160e01b81523060048201526000916001600160a01b0316906370a082319060240160206040518083038186803b158015613f2d57600080fd5b505afa158015613f41573d6000803e3d6000fd5b505050506040513d601f19601f82011682018060405250810190613f659190615328565b90508381101561400057613f81613f7c828661524c565b614705565b610103546040516370a0823160e01b81523060048201526001600160a01b03909116906370a082319060240160206040518083038186803b158015613fc557600080fd5b505afa158015613fd9573d6000803e3d6000fd5b505050506040513d601f19601f82011682018060405250810190613ffd9190615328565b90505b80156140735761012c546001600160a01b03166350e2c2626140228684614410565b6040518263ffffffff1660e01b815260040161404091815260200190565b600060405180830381600087803b15801561405a57600080fd5b505af115801561406e573d6000803e3d6000fd5b505050505b50505b50919050565b60008061408761198b565b50909392505050565b600054610100900460ff166140b75760405162461bcd60e51b8152600401610e509061557f565b610e5933613aa8565b600054610100900460ff16612f215760405162461bcd60e51b8152600401610e509061557f565b600054610100900460ff1661410e5760405162461bcd60e51b8152600401610e509061557f565b8151614121906036906020850190614ca3565b5080516135a3906037906020840190614ca3565b60006001600160a01b03821673eeeeeeeeeeeeeeeeeeeeeeeeeeeeeeeeeeeeeeee146141d157816001600160a01b031663313ce5676040518163ffffffff1660e01b815260040160206040518083038186803b15801561419457600080fd5b505afa1580156141a8573d6000803e3d6000fd5b505050506040513d601f19601f820116820180604052508101906141cc91906153c6565b610e0b565b601292915050565b60655460ff16156141fc5760405162461bcd60e51b8152600401610e509061520c565b6065805460ff191660011790557f62e78cea01bee320cd4e420270b5ea74000d11b0c9f74754ebdbfc544b05a2586142313390565b6040516001600160a01b03909116815260200160405180910390a1565b614256613922565b60006142606139c7565b905061010b548110158015614286575061010e5461010d546142829190615310565b4210155b156117fc57600061429682614926565b90506142a2818361524c565b610106554261010d5560405181907fa09b7ae452b7bffb9e204c3a016e80caeecf46f554d112644f36fa114dac6ffa90600090a25050565b60655460ff166142fc5760405162461bcd60e51b8152600401610e5090615387565b6065805460ff191690557f5db9ee0a495bf2e6ff9c91a7834c1ba4fdd244a5e8aa4e537bd38aeae4b073aa33614231565b604080516000808252602082019092526001600160a01b03841690839060405161435791906155ca565b60006040518083038185875af1925050503d8060008114614394576040519150601f19603f3d011682016040523d82523d6000602084013e614399565b606091505b50509050806135a35760405162461bcd60e51b8152602060048201526013602482015272115512081d1c985b9cd9995c8819985a5b1959606a1b6044820152606401610e50565b6040516001600160a01b0383166024820152604481018290526135a390849063a9059cbb60e01b906064016138eb565b60008183106122c75781610e7a565b6000614474826040518060400160405280602081526020017f5361666545524332303a206c6f772d6c6576656c2063616c6c206661696c6564815250856001600160a01b0316614a569092919063ffffffff16565b8051909150156135a357808060200190518101906144929190615365565b6135a35760405162461bcd60e51b815260206004820152602a60248201527f5361666545524332303a204552433230206f7065726174696f6e20646964206e6044820152691bdd081cdd58d8d9595960b21b6064820152608401610e50565b60006144fe600019614705565b610103546040516370a0823160e01b81523060048201526000916001600160a01b0316906370a082319060240160206040518083038186803b15801561454357600080fd5b505afa158015614557573d6000803e3d6000fd5b505050506040513d601f19601f8201168201806040525081019061457b9190615328565b905061010c54811061407657610e7a81613e26565b6040516001600160a01b03808516602483015283166044820152606481018290526131959085906323b872dd60e01b906084016138eb565b6001600160a01b03821661461e5760405162461bcd60e51b815260206004820152601f60248201527f45524332303a206d696e7420746f20746865207a65726f2061646472657373006044820152606401610e50565b80603560008282546146309190615310565b90915550506001600160a01b0382166000908152603360205260408120805483929061465d908490615310565b90915550506040518181526001600160a01b038316906000907fddf252ad1be2c89b69c2b068fc378daa952ba7f163c4a11628f55a4df523b3ef9060200160405180910390a35050565b6000818314156146b8575082610e7a565b818310156146e6576146ca838361524c565b6146d590600a6155e6565b6146df90856152cf565b9050610e7a565b6146f0828461524c565b6146fb90600a6155e6565b6146df90856152ee565b61012d546040516370a0823160e01b81523060048201526000916001600160a01b0316906370a082319060240160206040518083038186803b15801561474a57600080fd5b505afa15801561475e573d6000803e3d6000fd5b505050506040513d601f19601f820116820180604052508101906147829190615328565b9050801561376d57600060001983146148bf5761012d60009054906101000a90046001600160a01b03166001600160a01b031663a20a4cb46040518163ffffffff1660e01b815260040160206040518083038186803b1580156147e457600080fd5b505afa1580156147f8573d6000803e3d6000fd5b505050506040513d601f19601f8201168201806040525081019061481c9190615328565b61012d54604080516318160ddd60e01b8152905186926001600160a01b0316916318160ddd916004808301926020929190829003018186803b15801561486157600080fd5b505afa158015614875573d6000803e3d6000fd5b505050506040513d601f19601f820116820180604052508101906148999190615328565b6148a391906152cf565b6148ad91906152ee565b9050818111156148ba5750805b6148c2565b50805b61012d54604051632e1a7d4d60e01b8152600481018390526001600160a01b0390911690632e1a7d4d90602401600060405180830381600087803b15801561490957600080fd5b505af115801561491d573d6000803e3d6000fd5b50505050505050565b6101035461012c546040516370a0823160e01b81526001600160a01b039182166004820152600092839216906370a082319060240160206040518083038186803b15801561497357600080fd5b505afa158015614987573d6000803e3d6000fd5b505050506040513d601f19601f820116820180604052508101906149ab9190615328565b905080156140765760006149be8461130e565b9050808210156149e457806149d383866152cf565b6149dd91906152ee565b92506149e8565b8392505b61012c54604051630d53dcf760e21b8152600481018590526001600160a01b039091169063354f73dc90602401600060405180830381600087803b158015614a2f57600080fd5b505af1158015614a43573d6000803e3d6000fd5b50505050614a4f614a65565b5050919050565b60606114628484600085614b39565b61012d54610103546040516370a0823160e01b81523060048201526001600160a01b039283169263b6b55f259216906370a082319060240160206040518083038186803b158015614ab557600080fd5b505afa158015614ac9573d6000803e3d6000fd5b505050506040513d601f19601f82011682018060405250810190614aed9190615328565b6040518263ffffffff1660e01b8152600401614b0b91815260200190565b600060405180830381600087803b158015614b2557600080fd5b505af1158015613195573d6000803e3d6000fd5b606082471015614b9a5760405162461bcd60e51b815260206004820152602660248201527f416464726573733a20696e73756666696369656e742062616c616e636520666f6044820152651c8818d85b1b60d21b6064820152608401610e50565b6001600160a01b0385163b614bf15760405162461bcd60e51b815260206004820152601d60248201527f416464726573733a2063616c6c20746f206e6f6e2d636f6e74726163740000006044820152606401610e50565b600080866001600160a01b03168587604051614c0d91906155ca565b60006040518083038185875af1925050503d8060008114614c4a576040519150601f19603f3d011682016040523d82523d6000602084013e614c4f565b606091505b5091509150614c5f828286614c6a565b979650505050505050565b60608315614c79575081610e7a565b825115614c895782518084602001fd5b8160405162461bcd60e51b8152600401610e509190614d5f565b828054614caf906151aa565b90600052602060002090601f016020900481019282614cd15760008555614d17565b82601f10614cea57805160ff1916838001178555614d17565b82800160010185558215614d17579182015b82811115614d17578251825591602001919060010190614cfc565b506129c69291505b808211156129c65760008155600101614d1f565b60005b83811015614d4e578181015183820152602001614d36565b838111156131955750506000910152565b6020815260008251806020840152614d7e816040850160208701614d33565b601f01601f19169190910160400192915050565b6001600160a01b03811681146117fc57600080fd5b60008060408385031215614dba57600080fd5b8235614dc581614d92565b946020939093013593505050565b600080600060608486031215614de857600080fd5b8335614df381614d92565b92506020840135614e0381614d92565b929592945050506040919091013590565b60008060008060808587031215614e2a57600080fd5b5050823594602084013594506040840135936060013592509050565b600060208284031215614e5857600080fd5b5035919050565b600060208284031215614e7157600080fd5b8135610e7a81614d92565b60008060408385031215614e8f57600080fd5b50508035926020909101359150565b60008060008060808587031215614eb457600080fd5b8435614ebf81614d92565b93506020850135614ecf81614d92565b92506040850135614edf81614d92565b91506060850135614eef81614d92565b939692955090935050565b634e487b7160e01b600052604160045260246000fd5b604051601f8201601f1916810167ffffffffffffffff81118282101715614f3957614f39614efa565b604052919050565b600082601f830112614f5257600080fd5b813567ffffffffffffffff811115614f6c57614f6c614efa565b614f7f601f8201601f1916602001614f10565b818152846020838601011115614f9457600080fd5b816020850160208301376000918101602001919091529392505050565b600080600080600080600060e0888a031215614fcc57600080fd5b873567ffffffffffffffff80821115614fe457600080fd5b614ff08b838c01614f41565b985060208a013591508082111561500657600080fd5b506150138a828b01614f41565b965050604088013561502481614d92565b9450606088013561503481614d92565b9350608088013561504481614d92565b925060a088013561505481614d92565b915060c088013561506481614d92565b8091505092959891949750929550565b6000806040838503121561508757600080fd5b823561509281614d92565b915060208301356150a281614d92565b809150509250929050565b600060208083850312156150c057600080fd5b823567ffffffffffffffff808211156150d857600080fd5b818501915085601f8301126150ec57600080fd5b8135818111156150fe576150fe614efa565b8060051b915061510f848301614f10565b818152918301840191848101908884111561512957600080fd5b938501935b838510156151475784358252938501939085019061512e565b98975050505050505050565b6000606082018583526020858185015260606040850152818551808452608086019150828701935060005b8181101561519c57845115158352938301939183019160010161517e565b509098975050505050505050565b600181811c908216806151be57607f821691505b6020821081141561407657634e487b7160e01b600052602260045260246000fd5b60208082526013908201527227b7363c9037bbb732b91037b91030b236b4b760691b604082015260600190565b60208082526010908201526f14185d5cd8589b194e881c185d5cd95960821b604082015260600190565b634e487b7160e01b600052601160045260246000fd5b60008282101561525e5761525e615236565b500390565b6020808252818101527f4f776e61626c653a2063616c6c6572206973206e6f7420746865206f776e6572604082015260600190565b6020808252601f908201527f5265656e7472616e637947756172643a207265656e7472616e742063616c6c00604082015260600190565b60008160001904831182151516156152e9576152e9615236565b500290565b60008261530b57634e487b7160e01b600052601260045260246000fd5b500490565b6000821982111561532357615323615236565b500190565b60006020828403121561533a57600080fd5b5051919050565b60006020828403121561535357600080fd5b815161ffff81168114610e7a57600080fd5b60006020828403121561537757600080fd5b81518015158114610e7a57600080fd5b60208082526014908201527314185d5cd8589b194e881b9bdd081c185d5cd95960621b604082015260600190565b805160ff81168114613bfd57600080fd5b6000602082840312156153d857600080fd5b610e7a826153b5565b600181815b8085111561541c57816000190482111561540257615402615236565b8085161561540f57918102915b93841c93908002906153e6565b509250929050565b60008261543357506001610e0b565b8161544057506000610e0b565b816001811461545657600281146154605761547c565b6001915050610e0b565b60ff84111561547157615471615236565b50506001821b610e0b565b5060208310610133831016604e8410600b841016171561549f575081810a610e0b565b6154a983836153e1565b80600019048211156154bd576154bd615236565b029392505050565b6000610e7a60ff841683615424565b634e487b7160e01b600052603260045260246000fd5b60006000198214156154fe576154fe615236565b5060010190565b6020808252602e908201527f496e697469616c697a61626c653a20636f6e747261637420697320616c72656160408201526d191e481a5b9a5d1a585b1a5e995960921b606082015260800190565b6000806040838503121561556657600080fd5b82519150615576602084016153b5565b90509250929050565b6020808252602b908201527f496e697469616c697a61626c653a20636f6e7472616374206973206e6f74206960408201526a6e697469616c697a696e6760a81b606082015260800190565b600082516155dc818460208701614d33565b9190910192915050565b6000610e7a838361542456fea264697066735822122032160a2807eff06688975f83bd704f05726872dbcb70fa71ff48574af147205064736f6c63430008090033",
  "devdoc": {
    "kind": "dev",
    "methods": {
      "allowance(address,address)": {
        "details": "See {IERC20-allowance}."
      },
      "approve(address,uint256)": {
        "details": "See {IERC20-approve}. NOTE: If `amount` is the maximum `uint256`, the allowance is not updated on `transferFrom`. This is semantically equivalent to an infinite approval. Requirements: - `spender` cannot be the zero address."
      },
      "balanceOf(address)": {
        "details": "See {IERC20-balanceOf}."
      },
      "claim(uint256)": {
        "details": "claim token with NFT token",
        "returns": {
          "_amount": "is the amount of claimed token."
        }
      },
      "claimMulti(uint256[])": {
        "details": "claim token with NFT tokens",
        "returns": {
          "_amount": "is the amount of claimed token.",
          "_claimed": "is the flag indicating whether the token is claimed.",
          "_claimedCount": "is the count of reqIds that are claimed."
        }
      },
      "claimUnbonded()": {
        "details": "claim the unbonded tokens from the staking pool. It's called by admin."
      },
      "collectProfitAndUpdateWatermark()": {
        "details": "collect profit and update the watermark"
      },
      "decimals()": {
        "details": "Returns the number of decimals used to get its user representation. For example, if `decimals` equals `2`, a balance of `505` tokens should be displayed to a user as `5.05` (`505 / 10 ** 2`). Tokens usually opt for a value of 18, imitating the relationship between Ether and Wei. This is the value {ERC20} uses, unless this function is overridden; NOTE: This information is only used for _display_ purposes: it in no way affects any of the arithmetic of the contract, including {IERC20-balanceOf} and {IERC20-transfer}."
      },
      "decreaseAllowance(address,uint256)": {
        "details": "Atomically decreases the allowance granted to `spender` by the caller. This is an alternative to {approve} that can be used as a mitigation for problems described in {IERC20-approve}. Emits an {Approval} event indicating the updated allowance. Requirements: - `spender` cannot be the zero address. - `spender` must have allowance for the caller of at least `subtractedValue`."
      },
      "deposit(uint256)": {
        "details": "deposit `_amount` of token."
      },
      "depositETH()": {
        "details": "deposit the native asset."
      },
      "emergencyPendingRedeems()": {
        "details": "the total amount of emergency withdrawal stToken that is not yet requested to the staking pool."
      },
      "emergencyRedeem()": {
        "details": "In emergency mode, redeem the rest of stTokens. Especially it's needed for stNEAR because the MetaPool has a buffer limit."
      },
      "getAPR()": {
        "returns": {
          "_0": "the APR in the vault. It's scaled by 1e18."
        }
      },
      "getAllPool()": {
        "details": "it doesn't include the unbonding stTokens according to the burnt shares."
      },
      "getAllPoolInUSD()": {
        "returns": {
          "_0": "the total USD value of tokens in the vault."
        }
      },
      "getPoolByShares(uint256)": {
        "returns": {
          "_0": "the amount of token that corresponds to `_shares` of shares."
        }
      },
      "getPooledTokenByStToken(uint256)": {
        "details": "wNearSwapFee can be changed after redeem requested.",
        "params": {
          "_stAmount": "Amount of stTokens"
        }
      },
      "getSharesByPool(uint256)": {
        "returns": {
          "_0": "the amount of shares that corresponds to `_amount` of token."
        }
      },
      "getStTokenByPooledToken(uint256)": {
        "details": "stNearSwapFee can be changed after redeem requested.",
        "params": {
          "_amount": "Amount of tokens"
        }
      },
      "getTokenUnbonded()": {
        "returns": {
          "_0": "the unbonded token amount that is claimable from the staking pool."
        }
      },
      "getWithdrawRequest(uint256)": {
        "returns": {
          "_claimable": "specifys whether user can claim tokens for it.",
          "_requestTs": "is timestmap when withdrawal requested.",
          "_stTokenAmt": "is amount of stToken to redeem.",
          "_tokenAmt": "is amount of token to claim.",
          "_waitForTs": "is timestamp to wait for."
        }
      },
      "increaseAllowance(address,uint256)": {
        "details": "Atomically increases the allowance granted to `spender` by the caller. This is an alternative to {approve} that can be used as a mitigation for problems described in {IERC20-approve}. Emits an {Approval} event indicating the updated allowance. Requirements: - `spender` cannot be the zero address."
      },
      "invest()": {
        "details": "stake the buffered deposits into the staking pool. It's called by admin."
      },
      "name()": {
        "details": "Returns the name of the token."
      },
      "owner()": {
        "details": "Returns the address of the current owner."
      },
      "paused()": {
        "details": "Returns true if the contract is paused, and false otherwise."
      },
      "redeem()": {
        "details": "redeem the requested withdrawals from the staking pool. It's called by admin."
      },
      "renounceOwnership()": {
        "details": "Leaves the contract without owner. It will not be possible to call `onlyOwner` functions anymore. Can only be called by the current owner. NOTE: Renouncing ownership will leave the contract without an owner, thereby removing any functionality that is only available to the owner."
      },
      "setFee(uint256)": {
        "params": {
          "_yieldFeePerc": "deposit fee percentage. 2000 for 20%"
        }
      },
      "symbol()": {
        "details": "Returns the symbol of the token, usually a shorter version of the name."
      },
      "totalSupply()": {
        "details": "See {IERC20-totalSupply}."
      },
      "transfer(address,uint256)": {
        "details": "See {IERC20-transfer}. Requirements: - `to` cannot be the zero address. - the caller must have a balance of at least `amount`."
      },
      "transferFrom(address,address,uint256)": {
        "details": "See {IERC20-transferFrom}. Emits an {Approval} event indicating the updated allowance. This is not required by the EIP. See the note at the beginning of {ERC20}. NOTE: Does not update the allowance if the current allowance is the maximum `uint256`. Requirements: - `from` and `to` cannot be the zero address. - `from` must have a balance of at least `amount`. - the caller must have allowance for ``from``'s tokens of at least `amount`."
      },
      "transferOwnership(address)": {
        "details": "Transfers ownership of the contract to a new account (`newOwner`). Can only be called by the current owner."
      },
      "withdraw(uint256)": {
        "details": "request a withdrawal that corresponds to `_shares` of shares.",
        "returns": {
          "_amount": "is the amount of withdrawn token.",
          "_reqId": "is the NFT token id indicating the request for rest of withdrawal. 0 if no request is made."
        }
      },
      "withdrawFees()": {
        "details": "transfer out fees."
      },
      "yield()": {
        "details": "take rewards and reinvest them. It's called by admin."
      }
    },
    "version": 1
  },
  "userdoc": {
    "kind": "user",
    "methods": {
      "emergencyWithdraw()": {
        "notice": "Withdraws funds staked in mirror to this vault and pauses deposit, yield, invest functions"
      },
      "getPendingRewards()": {
        "notice": "Returns the pending rewards in USD."
      },
      "reinvest()": {
        "notice": "Unpauses deposit, yield, invest functions, and invests funds."
      },
      "setFee(uint256)": {
        "notice": "Function to set deposit and yield fee"
      }
    },
    "version": 1
  },
  "storageLayout": {
    "storage": [
      {
        "astId": 713,
        "contract": "contracts/stVaults/meta/AuroraStNEARVaultTest.sol:AuroraStNEARVaultTest",
        "label": "_initialized",
        "offset": 0,
        "slot": "0",
        "type": "t_uint8"
      },
      {
        "astId": 716,
        "contract": "contracts/stVaults/meta/AuroraStNEARVaultTest.sol:AuroraStNEARVaultTest",
        "label": "_initializing",
        "offset": 1,
        "slot": "0",
        "type": "t_bool"
      },
      {
        "astId": 3292,
        "contract": "contracts/stVaults/meta/AuroraStNEARVaultTest.sol:AuroraStNEARVaultTest",
        "label": "__gap",
        "offset": 0,
        "slot": "1",
        "type": "t_array(t_uint256)50_storage"
      },
      {
        "astId": 1037,
        "contract": "contracts/stVaults/meta/AuroraStNEARVaultTest.sol:AuroraStNEARVaultTest",
        "label": "_balances",
        "offset": 0,
        "slot": "51",
        "type": "t_mapping(t_address,t_uint256)"
      },
      {
        "astId": 1043,
        "contract": "contracts/stVaults/meta/AuroraStNEARVaultTest.sol:AuroraStNEARVaultTest",
        "label": "_allowances",
        "offset": 0,
        "slot": "52",
        "type": "t_mapping(t_address,t_mapping(t_address,t_uint256))"
      },
      {
        "astId": 1045,
        "contract": "contracts/stVaults/meta/AuroraStNEARVaultTest.sol:AuroraStNEARVaultTest",
        "label": "_totalSupply",
        "offset": 0,
        "slot": "53",
        "type": "t_uint256"
      },
      {
        "astId": 1047,
        "contract": "contracts/stVaults/meta/AuroraStNEARVaultTest.sol:AuroraStNEARVaultTest",
        "label": "_name",
        "offset": 0,
        "slot": "54",
        "type": "t_string_storage"
      },
      {
        "astId": 1049,
        "contract": "contracts/stVaults/meta/AuroraStNEARVaultTest.sol:AuroraStNEARVaultTest",
        "label": "_symbol",
        "offset": 0,
        "slot": "55",
        "type": "t_string_storage"
      },
      {
        "astId": 1628,
        "contract": "contracts/stVaults/meta/AuroraStNEARVaultTest.sol:AuroraStNEARVaultTest",
        "label": "__gap",
        "offset": 0,
        "slot": "56",
        "type": "t_array(t_uint256)45_storage"
      },
      {
        "astId": 869,
        "contract": "contracts/stVaults/meta/AuroraStNEARVaultTest.sol:AuroraStNEARVaultTest",
        "label": "_paused",
        "offset": 0,
        "slot": "101",
        "type": "t_bool"
      },
      {
        "astId": 958,
        "contract": "contracts/stVaults/meta/AuroraStNEARVaultTest.sol:AuroraStNEARVaultTest",
        "label": "__gap",
        "offset": 0,
        "slot": "102",
        "type": "t_array(t_uint256)49_storage"
      },
      {
        "astId": 973,
        "contract": "contracts/stVaults/meta/AuroraStNEARVaultTest.sol:AuroraStNEARVaultTest",
        "label": "_status",
        "offset": 0,
        "slot": "151",
        "type": "t_uint256"
      },
      {
        "astId": 1017,
        "contract": "contracts/stVaults/meta/AuroraStNEARVaultTest.sol:AuroraStNEARVaultTest",
        "label": "__gap",
        "offset": 0,
        "slot": "152",
        "type": "t_array(t_uint256)49_storage"
      },
      {
        "astId": 593,
        "contract": "contracts/stVaults/meta/AuroraStNEARVaultTest.sol:AuroraStNEARVaultTest",
        "label": "_owner",
        "offset": 0,
        "slot": "201",
        "type": "t_address"
      },
      {
        "astId": 705,
        "contract": "contracts/stVaults/meta/AuroraStNEARVaultTest.sol:AuroraStNEARVaultTest",
        "label": "__gap",
        "offset": 0,
        "slot": "202",
        "type": "t_array(t_uint256)49_storage"
      },
      {
        "astId": 37477,
        "contract": "contracts/stVaults/meta/AuroraStNEARVaultTest.sol:AuroraStNEARVaultTest",
        "label": "yieldFee",
        "offset": 0,
        "slot": "251",
        "type": "t_uint256"
      },
      {
        "astId": 37479,
        "contract": "contracts/stVaults/meta/AuroraStNEARVaultTest.sol:AuroraStNEARVaultTest",
        "label": "watermark",
        "offset": 0,
        "slot": "252",
        "type": "t_uint256"
      },
      {
        "astId": 37481,
        "contract": "contracts/stVaults/meta/AuroraStNEARVaultTest.sol:AuroraStNEARVaultTest",
        "label": "fees",
        "offset": 0,
        "slot": "253",
        "type": "t_uint256"
      },
      {
        "astId": 37483,
        "contract": "contracts/stVaults/meta/AuroraStNEARVaultTest.sol:AuroraStNEARVaultTest",
        "label": "treasuryWallet",
        "offset": 0,
        "slot": "254",
        "type": "t_address"
      },
      {
        "astId": 37485,
        "contract": "contracts/stVaults/meta/AuroraStNEARVaultTest.sol:AuroraStNEARVaultTest",
        "label": "admin",
        "offset": 0,
        "slot": "255",
        "type": "t_address"
      },
      {
        "astId": 37488,
        "contract": "contracts/stVaults/meta/AuroraStNEARVaultTest.sol:AuroraStNEARVaultTest",
        "label": "priceOracle",
        "offset": 0,
        "slot": "256",
        "type": "t_contract(IPriceOracle)11910"
      },
      {
        "astId": 37491,
        "contract": "contracts/stVaults/meta/AuroraStNEARVaultTest.sol:AuroraStNEARVaultTest",
        "label": "nft",
        "offset": 0,
        "slot": "257",
        "type": "t_contract(IStVaultNFT)66253"
      },
      {
        "astId": 37494,
        "contract": "contracts/stVaults/meta/AuroraStNEARVaultTest.sol:AuroraStNEARVaultTest",
        "label": "token",
        "offset": 0,
        "slot": "258",
        "type": "t_contract(IERC20Upgradeable)1707"
      },
      {
        "astId": 37497,
        "contract": "contracts/stVaults/meta/AuroraStNEARVaultTest.sol:AuroraStNEARVaultTest",
        "label": "stToken",
        "offset": 0,
        "slot": "259",
        "type": "t_contract(IERC20Upgradeable)1707"
      },
      {
        "astId": 37499,
        "contract": "contracts/stVaults/meta/AuroraStNEARVaultTest.sol:AuroraStNEARVaultTest",
        "label": "tokenDecimals",
        "offset": 20,
        "slot": "259",
        "type": "t_uint8"
      },
      {
        "astId": 37501,
        "contract": "contracts/stVaults/meta/AuroraStNEARVaultTest.sol:AuroraStNEARVaultTest",
        "label": "stTokenDecimals",
        "offset": 21,
        "slot": "259",
        "type": "t_uint8"
      },
      {
        "astId": 37503,
        "contract": "contracts/stVaults/meta/AuroraStNEARVaultTest.sol:AuroraStNEARVaultTest",
        "label": "oneToken",
        "offset": 0,
        "slot": "260",
        "type": "t_uint256"
      },
      {
        "astId": 37505,
        "contract": "contracts/stVaults/meta/AuroraStNEARVaultTest.sol:AuroraStNEARVaultTest",
        "label": "oneStToken",
        "offset": 0,
        "slot": "261",
        "type": "t_uint256"
      },
      {
        "astId": 37507,
        "contract": "contracts/stVaults/meta/AuroraStNEARVaultTest.sol:AuroraStNEARVaultTest",
        "label": "bufferedDeposits",
        "offset": 0,
        "slot": "262",
        "type": "t_uint256"
      },
      {
        "astId": 37509,
        "contract": "contracts/stVaults/meta/AuroraStNEARVaultTest.sol:AuroraStNEARVaultTest",
        "label": "pendingWithdrawals",
        "offset": 0,
        "slot": "263",
        "type": "t_uint256"
      },
      {
        "astId": 37511,
        "contract": "contracts/stVaults/meta/AuroraStNEARVaultTest.sol:AuroraStNEARVaultTest",
        "label": "pendingRedeems",
        "offset": 0,
        "slot": "264",
        "type": "t_uint256"
      },
      {
        "astId": 37513,
        "contract": "contracts/stVaults/meta/AuroraStNEARVaultTest.sol:AuroraStNEARVaultTest",
        "label": "emergencyUnbondings",
        "offset": 0,
        "slot": "265",
        "type": "t_uint256"
      },
      {
        "astId": 37515,
        "contract": "contracts/stVaults/meta/AuroraStNEARVaultTest.sol:AuroraStNEARVaultTest",
        "label": "unbondingPeriod",
        "offset": 0,
        "slot": "266",
        "type": "t_uint256"
      },
      {
        "astId": 37517,
        "contract": "contracts/stVaults/meta/AuroraStNEARVaultTest.sol:AuroraStNEARVaultTest",
        "label": "minInvestAmount",
        "offset": 0,
        "slot": "267",
        "type": "t_uint256"
      },
      {
        "astId": 37519,
        "contract": "contracts/stVaults/meta/AuroraStNEARVaultTest.sol:AuroraStNEARVaultTest",
        "label": "minRedeemAmount",
        "offset": 0,
        "slot": "268",
        "type": "t_uint256"
      },
      {
        "astId": 37521,
        "contract": "contracts/stVaults/meta/AuroraStNEARVaultTest.sol:AuroraStNEARVaultTest",
        "label": "lastInvestTs",
        "offset": 0,
        "slot": "269",
        "type": "t_uint256"
      },
      {
        "astId": 37523,
        "contract": "contracts/stVaults/meta/AuroraStNEARVaultTest.sol:AuroraStNEARVaultTest",
        "label": "investInterval",
        "offset": 0,
        "slot": "270",
        "type": "t_uint256"
      },
      {
        "astId": 37525,
        "contract": "contracts/stVaults/meta/AuroraStNEARVaultTest.sol:AuroraStNEARVaultTest",
        "label": "lastRedeemTs",
        "offset": 0,
        "slot": "271",
        "type": "t_uint256"
      },
      {
        "astId": 37527,
        "contract": "contracts/stVaults/meta/AuroraStNEARVaultTest.sol:AuroraStNEARVaultTest",
        "label": "redeemInterval",
        "offset": 0,
        "slot": "272",
        "type": "t_uint256"
      },
      {
        "astId": 37529,
        "contract": "contracts/stVaults/meta/AuroraStNEARVaultTest.sol:AuroraStNEARVaultTest",
        "label": "lastCollectProfitTs",
        "offset": 0,
        "slot": "273",
        "type": "t_uint256"
      },
      {
        "astId": 37531,
        "contract": "contracts/stVaults/meta/AuroraStNEARVaultTest.sol:AuroraStNEARVaultTest",
        "label": "oneEpoch",
        "offset": 0,
        "slot": "274",
        "type": "t_uint256"
      },
      {
        "astId": 37535,
        "contract": "contracts/stVaults/meta/AuroraStNEARVaultTest.sol:AuroraStNEARVaultTest",
        "label": "depositedBlock",
        "offset": 0,
        "slot": "275",
        "type": "t_mapping(t_address,t_uint256)"
      },
      {
        "astId": 37540,
        "contract": "contracts/stVaults/meta/AuroraStNEARVaultTest.sol:AuroraStNEARVaultTest",
        "label": "nft2WithdrawRequest",
        "offset": 0,
        "slot": "276",
        "type": "t_mapping(t_uint256,t_struct(WithdrawRequest)65955_storage)"
      },
      {
        "astId": 37542,
        "contract": "contracts/stVaults/meta/AuroraStNEARVaultTest.sol:AuroraStNEARVaultTest",
        "label": "baseApr",
        "offset": 0,
        "slot": "277",
        "type": "t_uint256"
      },
      {
        "astId": 37544,
        "contract": "contracts/stVaults/meta/AuroraStNEARVaultTest.sol:AuroraStNEARVaultTest",
        "label": "baseTokenRate",
        "offset": 0,
        "slot": "278",
        "type": "t_uint256"
      },
      {
        "astId": 37546,
        "contract": "contracts/stVaults/meta/AuroraStNEARVaultTest.sol:AuroraStNEARVaultTest",
        "label": "baseAprLastUpdate",
        "offset": 0,
        "slot": "279",
        "type": "t_uint256"
      },
      {
        "astId": 39638,
        "contract": "contracts/stVaults/meta/AuroraStNEARVaultTest.sol:AuroraStNEARVaultTest",
        "label": "__gap",
        "offset": 0,
        "slot": "280",
        "type": "t_array(t_uint256)20_storage"
      },
      {
        "astId": 43289,
        "contract": "contracts/stVaults/meta/AuroraStNEARVaultTest.sol:AuroraStNEARVaultTest",
        "label": "metaPool",
        "offset": 0,
        "slot": "300",
        "type": "t_contract(IMetaPool)43280"
      },
      {
        "astId": 43292,
        "contract": "contracts/stVaults/meta/AuroraStNEARVaultTest.sol:AuroraStNEARVaultTest",
        "label": "stNEARVault",
        "offset": 0,
        "slot": "301",
        "type": "t_contract(IL2Vault)65920"
      }
    ],
    "types": {
      "t_address": {
        "encoding": "inplace",
        "label": "address",
        "numberOfBytes": "20"
      },
      "t_array(t_uint256)20_storage": {
        "base": "t_uint256",
        "encoding": "inplace",
        "label": "uint256[20]",
        "numberOfBytes": "640"
      },
      "t_array(t_uint256)45_storage": {
        "base": "t_uint256",
        "encoding": "inplace",
        "label": "uint256[45]",
        "numberOfBytes": "1440"
      },
      "t_array(t_uint256)49_storage": {
        "base": "t_uint256",
        "encoding": "inplace",
        "label": "uint256[49]",
        "numberOfBytes": "1568"
      },
      "t_array(t_uint256)50_storage": {
        "base": "t_uint256",
        "encoding": "inplace",
        "label": "uint256[50]",
        "numberOfBytes": "1600"
      },
      "t_bool": {
        "encoding": "inplace",
        "label": "bool",
        "numberOfBytes": "1"
      },
      "t_contract(IERC20Upgradeable)1707": {
        "encoding": "inplace",
        "label": "contract IERC20Upgradeable",
        "numberOfBytes": "20"
      },
      "t_contract(IL2Vault)65920": {
        "encoding": "inplace",
        "label": "contract IL2Vault",
        "numberOfBytes": "20"
      },
      "t_contract(IMetaPool)43280": {
        "encoding": "inplace",
        "label": "contract IMetaPool",
        "numberOfBytes": "20"
      },
      "t_contract(IPriceOracle)11910": {
        "encoding": "inplace",
        "label": "contract IPriceOracle",
        "numberOfBytes": "20"
      },
      "t_contract(IStVaultNFT)66253": {
        "encoding": "inplace",
        "label": "contract IStVaultNFT",
        "numberOfBytes": "20"
      },
      "t_mapping(t_address,t_mapping(t_address,t_uint256))": {
        "encoding": "mapping",
        "key": "t_address",
        "label": "mapping(address => mapping(address => uint256))",
        "numberOfBytes": "32",
        "value": "t_mapping(t_address,t_uint256)"
      },
      "t_mapping(t_address,t_uint256)": {
        "encoding": "mapping",
        "key": "t_address",
        "label": "mapping(address => uint256)",
        "numberOfBytes": "32",
        "value": "t_uint256"
      },
      "t_mapping(t_uint256,t_struct(WithdrawRequest)65955_storage)": {
        "encoding": "mapping",
        "key": "t_uint256",
        "label": "mapping(uint256 => struct IStVault.WithdrawRequest)",
        "numberOfBytes": "32",
        "value": "t_struct(WithdrawRequest)65955_storage"
      },
      "t_string_storage": {
        "encoding": "bytes",
        "label": "string",
        "numberOfBytes": "32"
      },
      "t_struct(WithdrawRequest)65955_storage": {
        "encoding": "inplace",
        "label": "struct IStVault.WithdrawRequest",
        "members": [
          {
            "astId": 65950,
            "contract": "contracts/stVaults/meta/AuroraStNEARVaultTest.sol:AuroraStNEARVaultTest",
            "label": "tokenAmt",
            "offset": 0,
            "slot": "0",
            "type": "t_uint256"
          },
          {
            "astId": 65952,
            "contract": "contracts/stVaults/meta/AuroraStNEARVaultTest.sol:AuroraStNEARVaultTest",
            "label": "stTokenAmt",
            "offset": 0,
            "slot": "1",
            "type": "t_uint256"
          },
          {
            "astId": 65954,
            "contract": "contracts/stVaults/meta/AuroraStNEARVaultTest.sol:AuroraStNEARVaultTest",
            "label": "requestTs",
            "offset": 0,
            "slot": "2",
            "type": "t_uint256"
          }
        ],
        "numberOfBytes": "96"
      },
      "t_uint256": {
        "encoding": "inplace",
        "label": "uint256",
        "numberOfBytes": "32"
      },
      "t_uint8": {
        "encoding": "inplace",
        "label": "uint8",
        "numberOfBytes": "1"
      }
    }
  }
}