{
  "address": "0x09BE4DF001Af1944214A1BF2883E7EbDc79d174a",
  "abi": [
    {
      "anonymous": false,
      "inputs": [
        {
          "indexed": false,
          "internalType": "uint256",
          "name": "currentWatermark",
          "type": "uint256"
        },
        {
          "indexed": false,
          "internalType": "uint256",
          "name": "lastWatermark",
          "type": "uint256"
        }
      ],
      "name": "AdjustWatermark",
      "type": "event"
    },
    {
      "anonymous": false,
      "inputs": [
        {
          "indexed": true,
          "internalType": "address",
          "name": "owner",
          "type": "address"
        },
        {
          "indexed": true,
          "internalType": "address",
          "name": "spender",
          "type": "address"
        },
        {
          "indexed": false,
          "internalType": "uint256",
          "name": "value",
          "type": "uint256"
        }
      ],
      "name": "Approval",
      "type": "event"
    },
    {
      "anonymous": false,
      "inputs": [
        {
          "indexed": false,
          "internalType": "address",
          "name": "user",
          "type": "address"
        },
        {
          "indexed": false,
          "internalType": "uint256",
          "name": "reqId",
          "type": "uint256"
        },
        {
          "indexed": false,
          "internalType": "uint256",
          "name": "amount",
          "type": "uint256"
        }
      ],
      "name": "Claim",
      "type": "event"
    },
    {
      "anonymous": false,
      "inputs": [
        {
          "indexed": false,
          "internalType": "address",
          "name": "user",
          "type": "address"
        },
        {
          "indexed": false,
          "internalType": "uint256",
          "name": "amount",
          "type": "uint256"
        },
        {
          "indexed": false,
          "internalType": "uint256",
          "name": "claimedCount",
          "type": "uint256"
        }
      ],
      "name": "ClaimMulti",
      "type": "event"
    },
    {
      "anonymous": false,
      "inputs": [
        {
          "indexed": false,
          "internalType": "uint256",
          "name": "currentWatermark",
          "type": "uint256"
        },
        {
          "indexed": false,
          "internalType": "uint256",
          "name": "lastWatermark",
          "type": "uint256"
        },
        {
          "indexed": false,
          "internalType": "uint256",
          "name": "fee",
          "type": "uint256"
        }
      ],
      "name": "CollectProfitAndUpdateWatermark",
      "type": "event"
    },
    {
      "anonymous": false,
      "inputs": [
        {
          "indexed": false,
          "internalType": "address",
          "name": "user",
          "type": "address"
        },
        {
          "indexed": false,
          "internalType": "uint256",
          "name": "amount",
          "type": "uint256"
        },
        {
          "indexed": false,
          "internalType": "uint256",
          "name": "shares",
          "type": "uint256"
        }
      ],
      "name": "Deposit",
      "type": "event"
    },
    {
      "anonymous": false,
      "inputs": [
        {
          "indexed": false,
          "internalType": "uint256",
          "name": "stAmount",
          "type": "uint256"
        }
      ],
      "name": "EmergencyWithdraw",
      "type": "event"
    },
    {
      "anonymous": false,
      "inputs": [
        {
          "indexed": false,
          "internalType": "uint8",
          "name": "version",
          "type": "uint8"
        }
      ],
      "name": "Initialized",
      "type": "event"
    },
    {
      "anonymous": false,
      "inputs": [
        {
          "indexed": false,
          "internalType": "uint256",
          "name": "amount",
          "type": "uint256"
        }
      ],
      "name": "Invest",
      "type": "event"
    },
    {
      "anonymous": false,
      "inputs": [
        {
          "indexed": true,
          "internalType": "address",
          "name": "previousOwner",
          "type": "address"
        },
        {
          "indexed": true,
          "internalType": "address",
          "name": "newOwner",
          "type": "address"
        }
      ],
      "name": "OwnershipTransferred",
      "type": "event"
    },
    {
      "anonymous": false,
      "inputs": [
        {
          "indexed": false,
          "internalType": "address",
          "name": "account",
          "type": "address"
        }
      ],
      "name": "Paused",
      "type": "event"
    },
    {
      "anonymous": false,
      "inputs": [
        {
          "indexed": false,
          "internalType": "uint256",
          "name": "stAmount",
          "type": "uint256"
        }
      ],
      "name": "Redeem",
      "type": "event"
    },
    {
      "anonymous": false,
      "inputs": [
        {
          "indexed": true,
          "internalType": "address",
          "name": "from",
          "type": "address"
        },
        {
          "indexed": true,
          "internalType": "address",
          "name": "to",
          "type": "address"
        },
        {
          "indexed": false,
          "internalType": "uint256",
          "name": "value",
          "type": "uint256"
        }
      ],
      "name": "Transfer",
      "type": "event"
    },
    {
      "anonymous": false,
      "inputs": [
        {
          "indexed": false,
          "internalType": "uint256",
          "name": "fees",
          "type": "uint256"
        },
        {
          "indexed": false,
          "internalType": "address",
          "name": "token",
          "type": "address"
        }
      ],
      "name": "TransferredOutFees",
      "type": "event"
    },
    {
      "anonymous": false,
      "inputs": [
        {
          "indexed": false,
          "internalType": "address",
          "name": "account",
          "type": "address"
        }
      ],
      "name": "Unpaused",
      "type": "event"
    },
    {
      "anonymous": false,
      "inputs": [
        {
          "indexed": false,
          "internalType": "address",
          "name": "user",
          "type": "address"
        },
        {
          "indexed": false,
          "internalType": "uint256",
          "name": "shares",
          "type": "uint256"
        },
        {
          "indexed": false,
          "internalType": "uint256",
          "name": "amount",
          "type": "uint256"
        },
        {
          "indexed": false,
          "internalType": "uint256",
          "name": "reqId",
          "type": "uint256"
        },
        {
          "indexed": false,
          "internalType": "uint256",
          "name": "pendingAmount",
          "type": "uint256"
        }
      ],
      "name": "Withdraw",
      "type": "event"
    },
    {
      "inputs": [],
      "name": "admin",
      "outputs": [
        {
          "internalType": "address",
          "name": "",
          "type": "address"
        }
      ],
      "stateMutability": "view",
      "type": "function"
    },
    {
      "inputs": [
        {
          "internalType": "address",
          "name": "owner",
          "type": "address"
        },
        {
          "internalType": "address",
          "name": "spender",
          "type": "address"
        }
      ],
      "name": "allowance",
      "outputs": [
        {
          "internalType": "uint256",
          "name": "",
          "type": "uint256"
        }
      ],
      "stateMutability": "view",
      "type": "function"
    },
    {
      "inputs": [
        {
          "internalType": "address",
          "name": "spender",
          "type": "address"
        },
        {
          "internalType": "uint256",
          "name": "amount",
          "type": "uint256"
        }
      ],
      "name": "approve",
      "outputs": [
        {
          "internalType": "bool",
          "name": "",
          "type": "bool"
        }
      ],
      "stateMutability": "nonpayable",
      "type": "function"
    },
    {
      "inputs": [
        {
          "internalType": "address",
          "name": "account",
          "type": "address"
        }
      ],
      "name": "balanceOf",
      "outputs": [
        {
          "internalType": "uint256",
          "name": "",
          "type": "uint256"
        }
      ],
      "stateMutability": "view",
      "type": "function"
    },
    {
      "inputs": [],
      "name": "bufferedDeposits",
      "outputs": [
        {
          "internalType": "uint256",
          "name": "",
          "type": "uint256"
        }
      ],
      "stateMutability": "view",
      "type": "function"
    },
    {
      "inputs": [],
      "name": "bufferedWithdrawals",
      "outputs": [
        {
          "internalType": "uint256",
          "name": "",
          "type": "uint256"
        }
      ],
      "stateMutability": "view",
      "type": "function"
    },
    {
      "inputs": [
        {
          "internalType": "uint256",
          "name": "_reqId",
          "type": "uint256"
        }
      ],
      "name": "claim",
      "outputs": [
        {
          "internalType": "uint256",
          "name": "_amount",
          "type": "uint256"
        }
      ],
      "stateMutability": "nonpayable",
      "type": "function"
    },
    {
      "inputs": [
        {
          "internalType": "uint256[]",
          "name": "_reqIds",
          "type": "uint256[]"
        }
      ],
      "name": "claimMulti",
      "outputs": [
        {
          "internalType": "uint256",
          "name": "_amount",
          "type": "uint256"
        },
        {
          "internalType": "uint256",
          "name": "_claimedCount",
          "type": "uint256"
        },
        {
          "internalType": "bool[]",
          "name": "_claimed",
          "type": "bool[]"
        }
      ],
      "stateMutability": "nonpayable",
      "type": "function"
    },
    {
      "inputs": [],
      "name": "claimUnbonded",
      "outputs": [],
      "stateMutability": "nonpayable",
      "type": "function"
    },
    {
      "inputs": [],
      "name": "collectProfitAndUpdateWatermark",
      "outputs": [],
      "stateMutability": "nonpayable",
      "type": "function"
    },
    {
      "inputs": [],
      "name": "decimals",
      "outputs": [
        {
          "internalType": "uint8",
          "name": "",
          "type": "uint8"
        }
      ],
      "stateMutability": "view",
      "type": "function"
    },
    {
      "inputs": [
        {
          "internalType": "address",
          "name": "spender",
          "type": "address"
        },
        {
          "internalType": "uint256",
          "name": "subtractedValue",
          "type": "uint256"
        }
      ],
      "name": "decreaseAllowance",
      "outputs": [
        {
          "internalType": "bool",
          "name": "",
          "type": "bool"
        }
      ],
      "stateMutability": "nonpayable",
      "type": "function"
    },
    {
      "inputs": [
        {
          "internalType": "uint256",
          "name": "_amount",
          "type": "uint256"
        }
      ],
      "name": "deposit",
      "outputs": [],
      "stateMutability": "nonpayable",
      "type": "function"
    },
    {
      "inputs": [],
      "name": "depositETH",
      "outputs": [],
      "stateMutability": "payable",
      "type": "function"
    },
    {
      "inputs": [],
      "name": "emergencyPendingRedeems",
      "outputs": [
        {
          "internalType": "uint256",
          "name": "_redeems",
          "type": "uint256"
        }
      ],
      "stateMutability": "view",
      "type": "function"
    },
    {
      "inputs": [],
      "name": "emergencyRedeem",
      "outputs": [],
      "stateMutability": "nonpayable",
      "type": "function"
    },
    {
      "inputs": [],
      "name": "emergencyWithdraw",
      "outputs": [],
      "stateMutability": "nonpayable",
      "type": "function"
    },
    {
      "inputs": [],
      "name": "fees",
      "outputs": [
        {
          "internalType": "uint256",
          "name": "",
          "type": "uint256"
        }
      ],
      "stateMutability": "view",
      "type": "function"
    },
    {
      "inputs": [],
      "name": "getAPR",
      "outputs": [
        {
          "internalType": "uint256",
          "name": "",
          "type": "uint256"
        }
      ],
      "stateMutability": "view",
      "type": "function"
    },
    {
      "inputs": [],
      "name": "getAllPool",
      "outputs": [
        {
          "internalType": "uint256",
          "name": "_pool",
          "type": "uint256"
        }
      ],
      "stateMutability": "view",
      "type": "function"
    },
    {
      "inputs": [],
      "name": "getAllPoolInUSD",
      "outputs": [
        {
          "internalType": "uint256",
          "name": "",
          "type": "uint256"
        }
      ],
      "stateMutability": "view",
      "type": "function"
    },
    {
      "inputs": [],
      "name": "getBaseApr",
      "outputs": [
        {
          "internalType": "uint256",
          "name": "",
          "type": "uint256"
        },
        {
          "internalType": "uint256",
          "name": "",
          "type": "uint256"
        },
        {
          "internalType": "bool",
          "name": "",
          "type": "bool"
        }
      ],
      "stateMutability": "view",
      "type": "function"
    },
    {
      "inputs": [],
      "name": "getBaseAprData",
      "outputs": [
        {
          "internalType": "uint256",
          "name": "",
          "type": "uint256"
        },
        {
          "internalType": "uint256",
          "name": "",
          "type": "uint256"
        },
        {
          "internalType": "uint256",
          "name": "",
          "type": "uint256"
        }
      ],
      "stateMutability": "view",
      "type": "function"
    },
    {
      "inputs": [],
      "name": "getBufferedDeposits",
      "outputs": [
        {
          "internalType": "uint256",
          "name": "",
          "type": "uint256"
        }
      ],
      "stateMutability": "view",
      "type": "function"
    },
    {
      "inputs": [],
      "name": "getEmergencyUnbondings",
      "outputs": [
        {
          "internalType": "uint256",
          "name": "",
          "type": "uint256"
        }
      ],
      "stateMutability": "view",
      "type": "function"
    },
    {
      "inputs": [],
      "name": "getInvestedStTokens",
      "outputs": [
        {
          "internalType": "uint256",
          "name": "_stAmount",
          "type": "uint256"
        }
      ],
      "stateMutability": "view",
      "type": "function"
    },
    {
      "inputs": [],
      "name": "getPendingRewards",
      "outputs": [
        {
          "internalType": "uint256",
          "name": "",
          "type": "uint256"
        }
      ],
      "stateMutability": "view",
      "type": "function"
    },
    {
      "inputs": [
        {
          "internalType": "uint256",
          "name": "_shares",
          "type": "uint256"
        }
      ],
      "name": "getPoolByShares",
      "outputs": [
        {
          "internalType": "uint256",
          "name": "",
          "type": "uint256"
        }
      ],
      "stateMutability": "view",
      "type": "function"
    },
    {
      "inputs": [
        {
          "internalType": "uint256",
          "name": "_stAmount",
          "type": "uint256"
        }
      ],
      "name": "getPooledTokenByStToken",
      "outputs": [
        {
          "internalType": "uint256",
          "name": "",
          "type": "uint256"
        }
      ],
      "stateMutability": "view",
      "type": "function"
    },
    {
      "inputs": [
        {
          "internalType": "uint256",
          "name": "_amount",
          "type": "uint256"
        }
      ],
      "name": "getSharesByPool",
      "outputs": [
        {
          "internalType": "uint256",
          "name": "",
          "type": "uint256"
        }
      ],
      "stateMutability": "view",
      "type": "function"
    },
    {
      "inputs": [
        {
          "internalType": "uint256",
          "name": "_amount",
          "type": "uint256"
        }
      ],
      "name": "getStTokenByPooledToken",
      "outputs": [
        {
          "internalType": "uint256",
          "name": "",
          "type": "uint256"
        }
      ],
      "stateMutability": "view",
      "type": "function"
    },
    {
      "inputs": [],
      "name": "getTokenUnbonded",
      "outputs": [
        {
          "internalType": "uint256",
          "name": "",
          "type": "uint256"
        }
      ],
      "stateMutability": "view",
      "type": "function"
    },
    {
      "inputs": [
        {
          "internalType": "uint256",
          "name": "_reqId",
          "type": "uint256"
        }
      ],
      "name": "getWithdrawRequest",
      "outputs": [
        {
          "internalType": "bool",
          "name": "_claimable",
          "type": "bool"
        },
        {
          "internalType": "uint256",
          "name": "_tokenAmt",
          "type": "uint256"
        },
        {
          "internalType": "uint256",
          "name": "_stTokenAmt",
          "type": "uint256"
        },
        {
          "internalType": "uint256",
          "name": "_requestTs",
          "type": "uint256"
        },
        {
          "internalType": "uint256",
          "name": "_waitForTs",
          "type": "uint256"
        }
      ],
      "stateMutability": "view",
      "type": "function"
    },
    {
      "inputs": [
        {
          "internalType": "address",
          "name": "spender",
          "type": "address"
        },
        {
          "internalType": "uint256",
          "name": "addedValue",
          "type": "uint256"
        }
      ],
      "name": "increaseAllowance",
      "outputs": [
        {
          "internalType": "bool",
          "name": "",
          "type": "bool"
        }
      ],
      "stateMutability": "nonpayable",
      "type": "function"
    },
    {
      "inputs": [
        {
          "internalType": "string",
          "name": "_name",
          "type": "string"
        },
        {
          "internalType": "string",
          "name": "_symbol",
          "type": "string"
        },
        {
          "internalType": "address",
          "name": "_treasury",
          "type": "address"
        },
        {
          "internalType": "address",
          "name": "_admin",
          "type": "address"
        },
        {
          "internalType": "address",
          "name": "_priceOracle",
          "type": "address"
        },
        {
          "internalType": "address",
          "name": "_token",
          "type": "address"
        },
        {
          "internalType": "address",
          "name": "_stToken",
          "type": "address"
        }
      ],
      "name": "initialize",
      "outputs": [],
      "stateMutability": "nonpayable",
      "type": "function"
    },
    {
      "inputs": [
        {
          "internalType": "address",
          "name": "_treasury",
          "type": "address"
        },
        {
          "internalType": "address",
          "name": "_admin",
          "type": "address"
        },
        {
          "internalType": "address",
          "name": "_priceOracle",
          "type": "address"
        },
        {
          "internalType": "contract IL2Vault",
          "name": "_stNEARVault",
          "type": "address"
        }
      ],
      "name": "initialize1",
      "outputs": [],
      "stateMutability": "nonpayable",
      "type": "function"
    },
    {
      "inputs": [],
      "name": "invest",
      "outputs": [],
      "stateMutability": "nonpayable",
      "type": "function"
    },
    {
      "inputs": [],
      "name": "investInterval",
      "outputs": [
        {
          "internalType": "uint256",
          "name": "",
          "type": "uint256"
        }
      ],
      "stateMutability": "view",
      "type": "function"
    },
    {
      "inputs": [],
      "name": "lastCollectProfitTs",
      "outputs": [
        {
          "internalType": "uint256",
          "name": "",
          "type": "uint256"
        }
      ],
      "stateMutability": "view",
      "type": "function"
    },
    {
      "inputs": [],
      "name": "lastInvestTs",
      "outputs": [
        {
          "internalType": "uint256",
          "name": "",
          "type": "uint256"
        }
      ],
      "stateMutability": "view",
      "type": "function"
    },
    {
      "inputs": [],
      "name": "lastRedeemTs",
      "outputs": [
        {
          "internalType": "uint256",
          "name": "",
          "type": "uint256"
        }
      ],
      "stateMutability": "view",
      "type": "function"
    },
    {
      "inputs": [],
      "name": "metaPool",
      "outputs": [
        {
          "internalType": "contract IMetaPool",
          "name": "",
          "type": "address"
        }
      ],
      "stateMutability": "view",
      "type": "function"
    },
    {
      "inputs": [],
      "name": "minInvestAmount",
      "outputs": [
        {
          "internalType": "uint256",
          "name": "",
          "type": "uint256"
        }
      ],
      "stateMutability": "view",
      "type": "function"
    },
    {
      "inputs": [],
      "name": "minRedeemAmount",
      "outputs": [
        {
          "internalType": "uint256",
          "name": "",
          "type": "uint256"
        }
      ],
      "stateMutability": "view",
      "type": "function"
    },
    {
      "inputs": [],
      "name": "name",
      "outputs": [
        {
          "internalType": "string",
          "name": "",
          "type": "string"
        }
      ],
      "stateMutability": "view",
      "type": "function"
    },
    {
      "inputs": [],
      "name": "nft",
      "outputs": [
        {
          "internalType": "contract IStVaultNFT",
          "name": "",
          "type": "address"
        }
      ],
      "stateMutability": "view",
      "type": "function"
    },
    {
      "inputs": [],
      "name": "oneEpoch",
      "outputs": [
        {
          "internalType": "uint256",
          "name": "",
          "type": "uint256"
        }
      ],
      "stateMutability": "view",
      "type": "function"
    },
    {
      "inputs": [],
      "name": "owner",
      "outputs": [
        {
          "internalType": "address",
          "name": "",
          "type": "address"
        }
      ],
      "stateMutability": "view",
      "type": "function"
    },
    {
      "inputs": [],
      "name": "paused",
      "outputs": [
        {
          "internalType": "bool",
          "name": "",
          "type": "bool"
        }
      ],
      "stateMutability": "view",
      "type": "function"
    },
    {
      "inputs": [],
      "name": "pendingRedeems",
      "outputs": [
        {
          "internalType": "uint256",
          "name": "",
          "type": "uint256"
        }
      ],
      "stateMutability": "view",
      "type": "function"
    },
    {
      "inputs": [],
      "name": "pendingWithdrawals",
      "outputs": [
        {
          "internalType": "uint256",
          "name": "",
          "type": "uint256"
        }
      ],
      "stateMutability": "view",
      "type": "function"
    },
    {
      "inputs": [],
      "name": "priceOracle",
      "outputs": [
        {
          "internalType": "contract IPriceOracle",
          "name": "",
          "type": "address"
        }
      ],
      "stateMutability": "view",
      "type": "function"
    },
    {
      "inputs": [],
      "name": "redeem",
      "outputs": [],
      "stateMutability": "nonpayable",
      "type": "function"
    },
    {
      "inputs": [],
      "name": "redeemInterval",
      "outputs": [
        {
          "internalType": "uint256",
          "name": "",
          "type": "uint256"
        }
      ],
      "stateMutability": "view",
      "type": "function"
    },
    {
      "inputs": [],
      "name": "reinvest",
      "outputs": [],
      "stateMutability": "nonpayable",
      "type": "function"
    },
    {
      "inputs": [],
      "name": "renounceOwnership",
      "outputs": [],
      "stateMutability": "nonpayable",
      "type": "function"
    },
    {
      "inputs": [],
      "name": "resetApr",
      "outputs": [],
      "stateMutability": "nonpayable",
      "type": "function"
    },
    {
      "inputs": [
        {
          "internalType": "address",
          "name": "_newAdmin",
          "type": "address"
        }
      ],
      "name": "setAdmin",
      "outputs": [],
      "stateMutability": "nonpayable",
      "type": "function"
    },
    {
      "inputs": [
        {
          "internalType": "uint256",
          "name": "_yieldFeePerc",
          "type": "uint256"
        }
      ],
      "name": "setFee",
      "outputs": [],
      "stateMutability": "nonpayable",
      "type": "function"
    },
    {
      "inputs": [
        {
          "internalType": "contract IL2Vault",
          "name": "_stNEARVault",
          "type": "address"
        }
      ],
      "name": "setL2Vault",
      "outputs": [],
      "stateMutability": "nonpayable",
      "type": "function"
    },
    {
      "inputs": [
        {
          "internalType": "address",
          "name": "_nft",
          "type": "address"
        }
      ],
      "name": "setNFT",
      "outputs": [],
      "stateMutability": "nonpayable",
      "type": "function"
    },
    {
      "inputs": [
        {
          "internalType": "uint256",
          "name": "_minInvestAmount",
          "type": "uint256"
        },
        {
          "internalType": "uint256",
          "name": "_minRedeemAmount",
          "type": "uint256"
        }
      ],
      "name": "setStakingAmounts",
      "outputs": [],
      "stateMutability": "nonpayable",
      "type": "function"
    },
    {
      "inputs": [
        {
          "internalType": "uint256",
          "name": "_unbondingPeriod",
          "type": "uint256"
        },
        {
          "internalType": "uint256",
          "name": "_investInterval",
          "type": "uint256"
        },
        {
          "internalType": "uint256",
          "name": "_redeemInterval",
          "type": "uint256"
        },
        {
          "internalType": "uint256",
          "name": "_oneEpoch",
          "type": "uint256"
        }
      ],
      "name": "setStakingPeriods",
      "outputs": [],
      "stateMutability": "nonpayable",
      "type": "function"
    },
    {
      "inputs": [
        {
          "internalType": "address",
          "name": "_wallet",
          "type": "address"
        }
      ],
      "name": "setTreasuryWallet",
      "outputs": [],
      "stateMutability": "nonpayable",
      "type": "function"
    },
    {
      "inputs": [],
      "name": "stNEARVault",
      "outputs": [
        {
          "internalType": "contract IL2Vault",
          "name": "",
          "type": "address"
        }
      ],
      "stateMutability": "view",
      "type": "function"
    },
    {
      "inputs": [],
      "name": "stToken",
      "outputs": [
        {
          "internalType": "contract IERC20Upgradeable",
          "name": "",
          "type": "address"
        }
      ],
      "stateMutability": "view",
      "type": "function"
    },
    {
      "inputs": [],
      "name": "symbol",
      "outputs": [
        {
          "internalType": "string",
          "name": "",
          "type": "string"
        }
      ],
      "stateMutability": "view",
      "type": "function"
    },
    {
      "inputs": [],
      "name": "token",
      "outputs": [
        {
          "internalType": "contract IERC20Upgradeable",
          "name": "",
          "type": "address"
        }
      ],
      "stateMutability": "view",
      "type": "function"
    },
    {
      "inputs": [],
      "name": "totalSupply",
      "outputs": [
        {
          "internalType": "uint256",
          "name": "",
          "type": "uint256"
        }
      ],
      "stateMutability": "view",
      "type": "function"
    },
    {
      "inputs": [
        {
          "internalType": "address",
          "name": "to",
          "type": "address"
        },
        {
          "internalType": "uint256",
          "name": "amount",
          "type": "uint256"
        }
      ],
      "name": "transfer",
      "outputs": [
        {
          "internalType": "bool",
          "name": "",
          "type": "bool"
        }
      ],
      "stateMutability": "nonpayable",
      "type": "function"
    },
    {
      "inputs": [
        {
          "internalType": "address",
          "name": "from",
          "type": "address"
        },
        {
          "internalType": "address",
          "name": "to",
          "type": "address"
        },
        {
          "internalType": "uint256",
          "name": "amount",
          "type": "uint256"
        }
      ],
      "name": "transferFrom",
      "outputs": [
        {
          "internalType": "bool",
          "name": "",
          "type": "bool"
        }
      ],
      "stateMutability": "nonpayable",
      "type": "function"
    },
    {
      "inputs": [
        {
          "internalType": "address",
          "name": "newOwner",
          "type": "address"
        }
      ],
      "name": "transferOwnership",
      "outputs": [],
      "stateMutability": "nonpayable",
      "type": "function"
    },
    {
      "inputs": [],
      "name": "treasuryWallet",
      "outputs": [
        {
          "internalType": "address",
          "name": "",
          "type": "address"
        }
      ],
      "stateMutability": "view",
      "type": "function"
    },
    {
      "inputs": [],
      "name": "unbondingPeriod",
      "outputs": [
        {
          "internalType": "uint256",
          "name": "",
          "type": "uint256"
        }
      ],
      "stateMutability": "view",
      "type": "function"
    },
    {
      "inputs": [],
      "name": "watermark",
      "outputs": [
        {
          "internalType": "uint256",
          "name": "",
          "type": "uint256"
        }
      ],
      "stateMutability": "view",
      "type": "function"
    },
    {
      "inputs": [
        {
          "internalType": "uint256",
          "name": "_shares",
          "type": "uint256"
        }
      ],
      "name": "withdraw",
      "outputs": [
        {
          "internalType": "uint256",
          "name": "_amount",
          "type": "uint256"
        },
        {
          "internalType": "uint256",
          "name": "_reqId",
          "type": "uint256"
        }
      ],
      "stateMutability": "nonpayable",
      "type": "function"
    },
    {
      "inputs": [],
      "name": "withdrawFees",
      "outputs": [],
      "stateMutability": "nonpayable",
      "type": "function"
    },
    {
      "inputs": [],
      "name": "yield",
      "outputs": [],
      "stateMutability": "nonpayable",
      "type": "function"
    },
    {
      "inputs": [],
      "name": "yieldFee",
      "outputs": [
        {
          "internalType": "uint256",
          "name": "",
          "type": "uint256"
        }
      ],
      "stateMutability": "view",
      "type": "function"
    },
    {
      "stateMutability": "payable",
      "type": "receive"
    }
  ],
  "transactionHash": "0x514ba7048883294858bfe63e06cdd3837253cc333855c79c03e0574e0cc85f8a",
  "args": [],
  "numDeployments": 1,
  "solcInputHash": "6644b0a9238d655c0d3bed5065c63e58",
  "bytecode": "0x608060405234801561001057600080fd5b5061568e80620000216000396000f3fe60806040526004361061046c5760003560e01c80637e478b861161024a578063beca03d511610139578063e4717f6a116100b6578063f6326fb31161007a578063f6326fb314610cf0578063f851a44014610cf8578063fc0c546a14610d18578063fdb5a03e14610d39578063fe8fc02a14610d4e57600080fd5b8063e4717f6a14610c56578063e8b5e51f14610c85578063f13dc2e214610c9a578063f2fde38b14610cb0578063f56e9c6614610cd057600080fd5b8063d36af3fc116100fd578063d36af3fc14610bd8578063d80dfc3b14610bed578063d9621f9e146108fd578063db2e21bc14610c21578063dd62ed3e14610c3657600080fd5b8063beca03d514610b22578063c1c33f0e14610b39578063c89d5b8b14610b59578063c91f0c5314610b6e578063cc0fe4a414610b8e57600080fd5b8063a5ff3f80116101c7578063b3e2f3c81161018b578063b3e2f3c814610a98578063b6b55f2514610ab8578063bb46554214610ad8578063bd244af414610af8578063be040fb014610b0d57600080fd5b8063a5ff3f8014610a13578063a8602fea14610a2a578063a9059cbb14610a4a578063b09f532014610a6a578063b162d5dc14610a8157600080fd5b806395d89b411161020e57806395d89b411461099c5780639af1d35a146109b15780639bceb857146109c7578063a20a4cb4146109de578063a457c2d7146109f357600080fd5b80637e478b86146109115780638954b3e0146109315780638da5cb5b146109465780639119c067146109645780639306c1da1461097b57600080fd5b80633f690113116103665780635c975abb116102e35780636cf6d675116102a75780636cf6d6751461087b578063704b6c021461089257806370a08231146108b2578063715018a6146108e857806373ff5f7c146108fd57600080fd5b80635c975abb146107db5780635f86fe9c146107f357806361bc47881461082557806369fe0e2d146108455780636ba897841461086557600080fd5b8063476343ee1161032a578063476343ee1461075a57806347ccca021461076f5780634a351b8a146107905780634b950d0f146107a55780635acb5da9146107ba57600080fd5b80633f690113146106d757806341c521d0146106ee57806342050f581461070e5780634626402b14610725578063470343d81461074557600080fd5b80632630c12f116103f4578063313ce567116103b8578063313ce56714610644578063318ea92014610660578063379607f51461068057806338f360b3146106a057806339509351146106b757600080fd5b80632630c12f146105a457806328593984146105c55780632a39e8e4146105da5780632d2009b0146105ef5780632e1a7d4d1461060f57600080fd5b806318160ddd1161043b57806318160ddd1461050a5780631a813a3c1461051f57806323b6443e1461053657806323b872dd1461056f57806324b1a1f71461058f57600080fd5b8063034f40831461047857806306fdde03146104a15780630912ae6d146104c3578063095ea7b3146104da57600080fd5b3661047357005b600080fd5b34801561048457600080fd5b5061048e60fb5481565b6040519081526020015b60405180910390f35b3480156104ad57600080fd5b506104b6610d65565b6040516104989190614dc5565b3480156104cf57600080fd5b5061048e61010c5481565b3480156104e657600080fd5b506104fa6104f5366004614e0d565b610df7565b6040519015158152602001610498565b34801561051657600080fd5b5060355461048e565b34801561052b57600080fd5b50610534610e11565b005b34801561054257600080fd5b5061010354610557906001600160a01b031681565b6040516001600160a01b039091168152602001610498565b34801561057b57600080fd5b506104fa61058a366004614e39565b610e5b565b34801561059b57600080fd5b5061048e610e81565b3480156105b057600080fd5b5061010054610557906001600160a01b031681565b3480156105d157600080fd5b50610534610e9c565b3480156105e657600080fd5b5061048e610efe565b3480156105fb57600080fd5b5061053461060a366004614e7a565b610f17565b34801561061b57600080fd5b5061062f61062a366004614eac565b610f59565b60408051928352602083019190915201610498565b34801561065057600080fd5b5060405160128152602001610498565b34801561066c57600080fd5b5061048e61067b366004614eac565b61131e565b34801561068c57600080fd5b5061048e61069b366004614eac565b61147a565b3480156106ac57600080fd5b5061048e61010d5481565b3480156106c357600080fd5b506104fa6106d2366004614e0d565b611711565b3480156106e357600080fd5b5061048e61010f5481565b3480156106fa57600080fd5b50610534610709366004614ec5565b611733565b34801561071a57600080fd5b5061048e6101125481565b34801561073157600080fd5b5060fe54610557906001600160a01b031681565b34801561075157600080fd5b50610534611821565b34801561076657600080fd5b5061053461188b565b34801561077b57600080fd5b5061010154610557906001600160a01b031681565b34801561079c57600080fd5b5061048e6118d2565b3480156107b157600080fd5b50610534611964565b3480156107c657600080fd5b5061012c54610557906001600160a01b031681565b3480156107e757600080fd5b5060655460ff166104fa565b3480156107ff57600080fd5b506108086119ad565b604080519384526020840192909252151590820152606001610498565b34801561083157600080fd5b5061048e610840366004614eac565b611a83565b34801561085157600080fd5b50610534610860366004614eac565b611b7b565b34801561087157600080fd5b506101095461048e565b34801561088757600080fd5b5061048e61010a5481565b34801561089e57600080fd5b506105346108ad366004614ec5565b611bf4565b3480156108be57600080fd5b5061048e6108cd366004614ec5565b6001600160a01b031660009081526033602052604090205490565b3480156108f457600080fd5b50610534611c40565b34801561090957600080fd5b50600061048e565b34801561091d57600080fd5b5061053461092c366004614ee2565b611c74565b34801561093d57600080fd5b50610534611d4b565b34801561095257600080fd5b5060c9546001600160a01b0316610557565b34801561097057600080fd5b5061048e6101085481565b34801561098757600080fd5b5061012d54610557906001600160a01b031681565b3480156109a857600080fd5b506104b6611db4565b3480156109bd57600080fd5b5061048e60fd5481565b3480156109d357600080fd5b5061048e6101115481565b3480156109ea57600080fd5b5061048e611dc3565b3480156109ff57600080fd5b506104fa610a0e366004614e0d565b611f83565b348015610a1f57600080fd5b5061048e6101105481565b348015610a3657600080fd5b50610534610a45366004614ec5565b612009565b348015610a5657600080fd5b506104fa610a65366004614e0d565b61209c565b348015610a7657600080fd5b5061048e6101065481565b348015610a8d57600080fd5b5061048e61010b5481565b348015610aa457600080fd5b50610534610ab3366004614f04565b6120aa565b348015610ac457600080fd5b50610534610ad3366004614eac565b612257565b348015610ae457600080fd5b5061048e610af3366004614eac565b6122b4565b348015610b0457600080fd5b5061048e6122f1565b348015610b1957600080fd5b50610534612316565b348015610b2e57600080fd5b5061048e6101075481565b348015610b4557600080fd5b5061048e610b54366004614eac565b6123a3565b348015610b6557600080fd5b5061048e6123c0565b348015610b7a57600080fd5b50610534610b89366004615017565b6124a3565b348015610b9a57600080fd5b50610bae610ba9366004614eac565b6126ec565b6040805195151586526020860194909452928401919091526060830152608082015260a001610498565b348015610be457600080fd5b5061048e61277d565b348015610bf957600080fd5b5061011554610116546101175460408051938452602084019290925290820152606001610498565b348015610c2d57600080fd5b50610534612922565b348015610c4257600080fd5b5061048e610c513660046150da565b612991565b348015610c6257600080fd5b50610c76610c71366004615113565b6129bc565b604051610498939291906151b9565b348015610c9157600080fd5b50610534612c9f565b348015610ca657600080fd5b5061048e60fc5481565b348015610cbc57600080fd5b50610534610ccb366004614ec5565b612d09565b348015610cdc57600080fd5b50610534610ceb366004614ec5565b612da1565b610534612e36565b348015610d0457600080fd5b5060ff54610557906001600160a01b031681565b348015610d2457600080fd5b5061010254610557906001600160a01b031681565b348015610d4557600080fd5b50610534612e92565b348015610d5a57600080fd5b5061048e61010e5481565b606060368054610d7490615210565b80601f0160208091040260200160405190810160405280929190818152602001828054610da090615210565b8015610ded5780601f10610dc257610100808354040283529160200191610ded565b820191906000526020600020905b815481529060010190602001808311610dd057829003601f168201915b5050505050905090565b600033610e05818585612f66565b60019150505b92915050565b60c9546001600160a01b0316331480610e34575060ff546001600160a01b031633145b610e595760405162461bcd60e51b8152600401610e5090615245565b60405180910390fd5b565b600033610e6985828561308b565b610e74858585613105565b60019150505b9392505050565b6000610e9761010654610e926132d3565b6132fe565b905090565b60c9546001600160a01b0316331480610ebf575060ff546001600160a01b031633145b610edb5760405162461bcd60e51b8152600401610e5090615245565b60655460ff1615610e595760405162461bcd60e51b8152600401610e5090615272565b600061010654610f0d3061330e565b610e9791906152b2565b60c9546001600160a01b03163314610f415760405162461bcd60e51b8152600401610e50906152c9565b61010a9390935561010e919091556101105561011255565b60008060026097541415610f7f5760405162461bcd60e51b8152600401610e50906152fe565b600260975582610fc25760405162461bcd60e51b815260206004820152600e60248201526d125b9d985b1a5908105b5bdd5b9d60921b6044820152606401610e50565b336000908152603360205260409020548311156110165760405162461bcd60e51b81526020600482015260126024820152714e6f7420656e6f7567682062616c616e636560701b6044820152606401610e50565b33600090815261011360205260409020544314156110765760405162461bcd60e51b815260206004820152601a60248201527f57697468647261772077697468696e2073616d6520626c6f636b0000000000006044820152606401610e50565b6000611081846122b4565b905061108d33856133c7565b611098816000613512565b60006110a2610e81565b60fd549091506000818311156110c45760fd546110bf90846152b2565b6110c7565b60005b90508381106110db579294506000926110eb565b9450846110e881856152b2565b93505b6110f586846152b2565b6101065583156112ae57600061110d61010554611a83565b905060008186610105546111219190615335565b61112b9190615354565b905060008061113983613594565b9092509050811561115d5761114e818b615376565b995061115a82846152b2565b92505b6101055461116b8486615335565b6111759190615354565b975082156112a9578761010760008282546111909190615376565b909155505060655460ff166111bd578261010860008282546111b29190615376565b909155506111eb9050565b60006111c96101095490565b9050838111156111e2576111dd84826152b2565b6111e5565b60005b61010955505b610101546040516335313c2160e11b81523360048201526001600160a01b0390911690636a62784290602401602060405180830381600087803b15801561123157600080fd5b505af1158015611245573d6000803e3d6000fd5b505050506040513d601f19601f82011682018060405250810190611269919061538e565b604080516060810182528a815260208082018781524283850190815260008681526101149093529390912091518255516001820155905160029091015598505b505050505b85156112be576112be33876136b3565b604080513381526020810189905290810187905260608101869052608081018590527fe08737ac48a1dab4b1a46c7dc9398bd5bfc6d7ad6fabb7cd8caa254de14def359060a00160405180910390a1505050506001609781905550915091565b60008061012c60009054906101000a90046001600160a01b03166001600160a01b031663f79a4fb96040518163ffffffff1660e01b815260040160206040518083038186803b15801561137057600080fd5b505afa158015611384573d6000803e3d6000fd5b505050506040513d601f19601f820116820180604052508101906113a8919061538e565b610105546113b69085615335565b6113c09190615354565b9050600061271061012c60009054906101000a90046001600160a01b03166001600160a01b031663bcb18e7c6040518163ffffffff1660e01b815260040160206040518083038186803b15801561141657600080fd5b505afa15801561142a573d6000803e3d6000fd5b505050506040513d601f19601f8201168201806040525081019061144e91906153a7565b61145c9061ffff1684615335565b6114669190615354565b905061147281836152b2565b949350505050565b60006002609754141561149f5760405162461bcd60e51b8152600401610e50906152fe565b60026097556101015460405163430c208160e01b8152336004820152602481018490526001600160a01b039091169063430c20819060440160206040518083038186803b1580156114ef57600080fd5b505afa158015611503573d6000803e3d6000fd5b505050506040513d601f19601f8201168201806040525081019061152791906153cb565b61155f5760405162461bcd60e51b81526020600482015260096024820152682737ba1037bbb732b960b91b6044820152606401610e50565b600082815261011460209081526040918290208251606081018452815481526001820154928101929092526002015491810182905261010a5490916115a49190615376565b4210156115eb5760405162461bcd60e51b8152602060048201526015602482015274139bdd0818589b19481d1bc818db185a5b481e595d605a1b6044820152606401610e50565b80516115fe6115f8610efe565b82613701565b9250600083116116425760405162461bcd60e51b815260206004820152600f60248201526e27379032b737bab3b4103a37b5b2b760891b6044820152606401610e50565b61010154604051630852cd8d60e31b8152600481018690526001600160a01b03909116906342966c6890602401600060405180830381600087803b15801561168957600080fd5b505af115801561169d573d6000803e3d6000fd5b505050508061010760008282546116b491906152b2565b909155506116c4905033846136b3565b60408051338152602081018690529081018490527f34fcbac0073d7c3d388e51312faf357774904998eeb8fca628b9e6f65ee1cbf79060600160405180910390a150506001609755919050565b600033610e058185856117248383612991565b61172e9190615376565b612f66565b60c9546001600160a01b0316331461175d5760405162461bcd60e51b8152600401610e50906152c9565b61012d80546001600160a01b0319166001600160a01b0383811691821790925561010354604051636eb1769f60e11b815230600482015260248101929092529091169063dd62ed3e9060440160206040518083038186803b1580156117c157600080fd5b505afa1580156117d5573d6000803e3d6000fd5b505050506040513d601f19601f820116820180604052508101906117f9919061538e565b61181e5761012d546101035461181e916001600160a01b039182169116600019613743565b50565b60c9546001600160a01b0316331480611844575060ff546001600160a01b031633145b6118605760405162461bcd60e51b8152600401610e5090615245565b60655460ff16156118835760405162461bcd60e51b8152600401610e5090615272565b610e5961389a565b60c9546001600160a01b03163314806118ae575060ff546001600160a01b031633145b6118ca5760405162461bcd60e51b8152600401610e5090615245565b61181e613949565b60006118e060655460ff1690565b1561196157610103546040516370a0823160e01b81523060048201526001600160a01b03909116906370a082319060240160206040518083038186803b15801561192957600080fd5b505afa15801561193d573d6000803e3d6000fd5b505050506040513d601f19601f82011682018060405250810190610e97919061538e565b90565b60c9546001600160a01b0316331461198e5760405162461bcd60e51b8152600401610e50906152c9565b6119a5600061011581905561011681905561011755565b610e59613a09565b610115546101165461011754600092839283928215806119d95750426119d68262093a80615376565b11155b15611a755760006119f1670de0b6b3a76400006122b4565b9050826000108015611a0257508083105b15611a64576000611a1383426152b2565b611a1d9085615335565b670de0b6b3a76400006301e13380611a3587866152b2565b611a3f9190615335565b611a499190615335565b611a539190615354565b989197506001965090945050505050565b600097909650600195509350505050565b509094909350600092509050565b6000806101055461012c60009054906101000a90046001600160a01b03166001600160a01b031663f79a4fb96040518163ffffffff1660e01b815260040160206040518083038186803b158015611ad957600080fd5b505afa158015611aed573d6000803e3d6000fd5b505050506040513d601f19601f82011682018060405250810190611b11919061538e565b611b1b9085615335565b611b259190615354565b9050600061271061012c60009054906101000a90046001600160a01b03166001600160a01b031663498049bd6040518163ffffffff1660e01b815260040160206040518083038186803b15801561141657600080fd5b60c9546001600160a01b03163314611ba55760405162461bcd60e51b8152600401610e50906152c9565b610bb98110611bef5760405162461bcd60e51b81526020600482015260166024820152755969656c64204665652063616e6e6f74203e2033302560501b6044820152606401610e50565b60fb55565b60c9546001600160a01b03163314611c1e5760405162461bcd60e51b8152600401610e50906152c9565b60ff80546001600160a01b0319166001600160a01b0392909216919091179055565b60c9546001600160a01b03163314611c6a5760405162461bcd60e51b8152600401610e50906152c9565b610e596000613a35565b60c9546001600160a01b03163314611c9e5760405162461bcd60e51b8152600401610e50906152c9565b60008211611cee5760405162461bcd60e51b815260206004820152601b60248201527f6d696e496e76657374416d6f756e74206d757374206265203e203000000000006044820152606401610e50565b60008111611d3e5760405162461bcd60e51b815260206004820152601b60248201527f6d696e52656465656d416d6f756e74206d757374206265203e203000000000006044820152606401610e50565b61010b9190915561010c55565b60c9546001600160a01b0316331480611d6e575060ff546001600160a01b031633145b611d8a5760405162461bcd60e51b8152600401610e5090615245565b60655460ff16611dac5760405162461bcd60e51b8152600401610e50906153ed565b610e59613a87565b606060378054610d7490615210565b6000611dd160655460ff1690565b611eab57600061010854611de361277d565b610103546040516370a0823160e01b81523060048201526001600160a01b03909116906370a082319060240160206040518083038186803b158015611e2757600080fd5b505afa158015611e3b573d6000803e3d6000fd5b505050506040513d601f19601f82011682018060405250810190611e5f919061538e565b611e699190615376565b611e7391906152b2565b90508015611e8757611e8481611a83565b91505b61010654611e959083615376565b915060fd5482611ea591906152b2565b91505090565b600061010854611ebb6101095490565b611ec361277d565b610103546040516370a0823160e01b81523060048201526001600160a01b03909116906370a082319060240160206040518083038186803b158015611f0757600080fd5b505afa158015611f1b573d6000803e3d6000fd5b505050506040513d601f19601f82011682018060405250810190611f3f919061538e565b611f499190615376565b611f539190615376565b611f5d91906152b2565b90508015611f7157611f6e81611a83565b91505b611f796132d3565b611e959083615376565b60003381611f918286612991565b905083811015611ff15760405162461bcd60e51b815260206004820152602560248201527f45524332303a2064656372656173656420616c6c6f77616e63652062656c6f77604482015264207a65726f60d81b6064820152608401610e50565b611ffe8286868403612f66565b506001949350505050565b60c9546001600160a01b031633146120335760405162461bcd60e51b8152600401610e50906152c9565b6001600160a01b03811661207a5760405162461bcd60e51b815260206004820152600e60248201526d1dd85b1b195d081a5b9d985b1a5960921b6044820152606401610e50565b60fe80546001600160a01b0319166001600160a01b0392909216919091179055565b600033610e05818585613105565b60006120b66001613aee565b905080156120ce576000805461ff0019166101001790555b61214f6040518060400160405280601181526020017029aa249029ba30b5b4b733902ba722a0a960791b8152506040518060400160405280600981526020016839ba34a9ba2722a0a960b91b815250878787734861825e75ab14553e5af711ebbe6873d369d146732137df2e54abd6bf1c1a8c1739f2ea6a8c15f1446124a3565b61012c80546001600160a01b0319908116730df588aabdd4e031f1903326cc0d8e79dfbd35669081178355610e1061010a556101045461010b5561010e8390556101109290925561a8c06101125561012d80546001600160a01b0386811691909316179055610102546121c792911690600019613743565b61012c54610103546121e8916001600160a01b039182169116600019613743565b61012d5461010354612209916001600160a01b039182169116600019613743565b8015612250576000805461ff0019169055604051600181527f7f26b83ff96e1f2b6a682f133852f6798a09c465da95921460cefb3847402498906020015b60405180910390a15b5050505050565b6002609754141561227a5760405162461bcd60e51b8152600401610e50906152fe565b600260975560655460ff16156122a25760405162461bcd60e51b8152600401610e5090615272565b6122ac3382613b7b565b506001609755565b6000806122c060355490565b905080156122ea57806122d1611dc3565b6122db9085615335565b6122e59190615354565b610e7a565b5090919050565b6000806122fc611dc3565b61010254909150611ea5906001600160a01b031682613cd9565b60c9546001600160a01b0316331480612339575060ff546001600160a01b031633145b6123555760405162461bcd60e51b8152600401610e5090615245565b60655460ff16156123785760405162461bcd60e51b8152600401610e5090615272565b600061238661010854613da7565b905080610108600082825461239b91906152b2565b909155505050565b6000806123ae611dc3565b905080156122ea57806122d160355490565b6000806123cb613e8b565b9050600061012d60009054906101000a90046001600160a01b03166001600160a01b031663c89d5b8b6040518163ffffffff1660e01b815260040160206040518083038186803b15801561241e57600080fd5b505afa158015612432573d6000803e3d6000fd5b505050506040513d601f19601f82011682018060405250810190612456919061538e565b9050670de0b6b3a76400008061246c8382615376565b61247e85670de0b6b3a7640000615376565b6124889190615335565b6124929190615354565b61249c91906152b2565b9250505090565b60006124af6001613aee565b905080156124c7576000805461ff0019166101001790555b6001600160a01b0386166125105760405162461bcd60e51b815260206004820152601060248201526f1d1c99585cdd5c9e481a5b9d985b1a5960821b6044820152606401610e50565b612518613e9f565b612520613ecf565b61252a8888613ef6565b6107d060fb5560fe80546001600160a01b038089166001600160a01b03199283161790925560ff805488841690831617905561010080548784169083161790556101028054868416908316811790915561010380549386169390921692909217905561259590613f44565b61010360146101000a81548160ff021916908360ff16021790555061010360009054906101000a90046001600160a01b03166001600160a01b031663313ce5676040518163ffffffff1660e01b815260040160206040518083038186803b1580156125ff57600080fd5b505afa158015612613573d6000803e3d6000fd5b505050506040513d601f19601f82011682018060405250810190612637919061542c565b610103805460ff60a81b1916600160a81b60ff93841602179081905561266791600160a01b90910416600a61552b565b610104556101035461268490600160a81b900460ff16600a61552b565b61010555600161010b81905561010c5561269c613a09565b80156126e2576000805461ff0019169055604051600181527f7f26b83ff96e1f2b6a682f133852f6798a09c465da95921460cefb38474024989060200160405180910390a15b5050505050505050565b60008181526101146020908152604080832081516060810183528154808252600183015494820185905260029092015492810183905261010a549193929185919082906127399085615376565b9050428111156127545761274d42826152b2565b9250612772565b6000612767612761610efe565b88613701565b111561277257600196505b505091939590929450565b61012d546040516370a0823160e01b815230600482015260009182916001600160a01b03909116906370a082319060240160206040518083038186803b1580156127c657600080fd5b505afa1580156127da573d6000803e3d6000fd5b505050506040513d601f19601f820116820180604052508101906127fe919061538e565b9050801561291e5761012d60009054906101000a90046001600160a01b03166001600160a01b03166318160ddd6040518163ffffffff1660e01b815260040160206040518083038186803b15801561285557600080fd5b505afa158015612869573d6000803e3d6000fd5b505050506040513d601f19601f8201168201806040525081019061288d919061538e565b61012d5460408051632882932d60e21b8152905184926001600160a01b03169163a20a4cb4916004808301926020929190829003018186803b1580156128d257600080fd5b505afa1580156128e6573d6000803e3d6000fd5b505050506040513d601f19601f8201168201806040525081019061290a919061538e565b6129149190615335565b611ea59190615354565b5090565b60c9546001600160a01b0316331480612945575060ff546001600160a01b031633145b6129615760405162461bcd60e51b8152600401610e5090615245565b60655460ff16156129845760405162461bcd60e51b8152600401610e5090615272565b61298c613fe8565b611dac565b6001600160a01b03918216600090815260346020908152604080832093909416825291909152205490565b6000806060600260975414156129e45760405162461bcd60e51b8152600401610e50906152fe565b600260975560006129f3610efe565b85519091506000908067ffffffffffffffff811115612a1457612a14614f60565b604051908082528060200260200182016040528015612a3d578160200160208202803683370190505b50935060005b81811015612c3d576000888281518110612a5f57612a5f61553a565b60209081029190910101516101015460405163430c208160e01b8152336004820152602481018390529192506001600160a01b03169063430c20819060440160206040518083038186803b158015612ab657600080fd5b505afa158015612aca573d6000803e3d6000fd5b505050506040513d601f19601f82011682018060405250810190612aee91906153cb565b612af85750612c2b565b600081815261011460209081526040918290208251606081018452815481526001820154928101929092526002015491810182905261010a549091612b3d9190615376565b421015612b4b575050612c2b565b8051612b578782613701565b955085612b6657505050612c2b565b612b70868b615376565b9950612b7c86886152b2565b9650806101076000828254612b9191906152b2565b909155505061010154604051630852cd8d60e31b8152600481018590526001600160a01b03909116906342966c6890602401600060405180830381600087803b158015612bdd57600080fd5b505af1158015612bf1573d6000803e3d6000fd5b505050508880612c0090615550565b9950506001888581518110612c1757612c1761553a565b911515602092830291909101909101525050505b80612c3581615550565b915050612a43565b508515612c9057612c4e33876136b3565b60408051338152602081018890529081018690527f1230003b239f7686d92a5b33084711bef8ae5f401f3d27f049d9196a138d44829060600160405180910390a15b50506001609755509193909250565b60c9546001600160a01b0316331480612cc2575060ff546001600160a01b031633145b612cde5760405162461bcd60e51b8152600401610e5090615245565b60655460ff1615612d015760405162461bcd60e51b8152600401610e5090615272565b610e5961405d565b60c9546001600160a01b03163314612d335760405162461bcd60e51b8152600401610e50906152c9565b6001600160a01b038116612d985760405162461bcd60e51b815260206004820152602660248201527f4f776e61626c653a206e6577206f776e657220697320746865207a65726f206160448201526564647265737360d01b6064820152608401610e50565b61181e81613a35565b60c9546001600160a01b03163314612dcb5760405162461bcd60e51b8152600401610e50906152c9565b610101546001600160a01b031615612e135760405162461bcd60e51b815260206004820152600b60248201526a105b1c9958591e481cd95d60aa1b6044820152606401610e50565b61010180546001600160a01b0319166001600160a01b0392909216919091179055565b60026097541415612e595760405162461bcd60e51b8152600401610e50906152fe565b600260975560655460ff1615612e815760405162461bcd60e51b8152600401610e5090615272565b612e8b3334613b7b565b6001609755565b60c9546001600160a01b0316331480612eb5575060ff546001600160a01b031633145b612ed15760405162461bcd60e51b8152600401610e5090615245565b60655460ff16612ef35760405162461bcd60e51b8152600401610e50906153ed565b6101095415612f505760405162461bcd60e51b815260206004820152602360248201527f456d657267656e637920756e626f6e64696e67206973206e6f742066696e69736044820152621a195960ea1b6064820152608401610e50565b612f586140ea565b600061010955610e5961405d565b6001600160a01b038316612fc85760405162461bcd60e51b8152602060048201526024808201527f45524332303a20617070726f76652066726f6d20746865207a65726f206164646044820152637265737360e01b6064820152608401610e50565b6001600160a01b0382166130295760405162461bcd60e51b815260206004820152602260248201527f45524332303a20617070726f766520746f20746865207a65726f206164647265604482015261737360f01b6064820152608401610e50565b6001600160a01b0383811660008181526034602090815260408083209487168084529482529182902085905590518481527f8c5be1e5ebec7d5bd14f71427d1e84f3dd0314c0f7b2291e5b200ac8c7c3b92591015b60405180910390a3505050565b60006130978484612991565b905060001981146130ff57818110156130f25760405162461bcd60e51b815260206004820152601d60248201527f45524332303a20696e73756666696369656e7420616c6c6f77616e63650000006044820152606401610e50565b6130ff8484848403612f66565b50505050565b6001600160a01b0383166131695760405162461bcd60e51b815260206004820152602560248201527f45524332303a207472616e736665722066726f6d20746865207a65726f206164604482015264647265737360d81b6064820152608401610e50565b6001600160a01b0382166131cb5760405162461bcd60e51b815260206004820152602360248201527f45524332303a207472616e7366657220746f20746865207a65726f206164647260448201526265737360e81b6064820152608401610e50565b6001600160a01b038316600090815260336020526040902054818110156132435760405162461bcd60e51b815260206004820152602660248201527f45524332303a207472616e7366657220616d6f756e7420657863656564732062604482015265616c616e636560d01b6064820152608401610e50565b6001600160a01b0380851660009081526033602052604080822085850390559185168152908120805484929061327a908490615376565b92505081905550826001600160a01b0316846001600160a01b03167fddf252ad1be2c89b69c2b068fc378daa952ba7f163c4a11628f55a4df523b3ef846040516132c691815260200190565b60405180910390a36130ff565b6000806132df3061330e565b610107549091508082116132f457600061249c565b61249c81836152b2565b6000818310156122ea5781610e7a565b610102546000906001600160a01b031673eeeeeeeeeeeeeeeeeeeeeeeeeeeeeeeeeeeeeeee141561334957816001600160a01b031631610e0b565b610102546040516370a0823160e01b81526001600160a01b038481166004830152909116906370a082319060240160206040518083038186803b15801561338f57600080fd5b505afa1580156133a3573d6000803e3d6000fd5b505050506040513d601f19601f82011682018060405250810190610e0b919061538e565b6001600160a01b0382166134275760405162461bcd60e51b815260206004820152602160248201527f45524332303a206275726e2066726f6d20746865207a65726f206164647265736044820152607360f81b6064820152608401610e50565b6001600160a01b0382166000908152603360205260409020548181101561349b5760405162461bcd60e51b815260206004820152602260248201527f45524332303a206275726e20616d6f756e7420657863656564732062616c616e604482015261636560f01b6064820152608401610e50565b6001600160a01b03831660009081526033602052604081208383039055603580548492906134ca9084906152b2565b90915550506040518281526000906001600160a01b038516907fddf252ad1be2c89b69c2b068fc378daa952ba7f163c4a11628f55a4df523b3ef9060200161307e565b505050565b60fc54600182151514613542578260fc541161352f576000613550565b8260fc5461353d91906152b2565b613550565b8260fc546135509190615376565b60fc81905560408051918252602082018390527f07b7fa586c4fdef11992d9448b97ba78814c23ddec7e1d4bf195fda6716e472691015b60405180910390a1505050565b610102546040516370a0823160e01b8152306004820152600091829182916001600160a01b0316906370a082319060240160206040518083038186803b1580156135dd57600080fd5b505afa1580156135f1573d6000803e3d6000fd5b505050506040513d601f19601f82011682018060405250810190613615919061538e565b90506136208461413d565b610102546040516370a0823160e01b815230600482015291945082916001600160a01b03909116906370a082319060240160206040518083038186803b15801561366957600080fd5b505afa15801561367d573d6000803e3d6000fd5b505050506040513d601f19601f820116820180604052508101906136a1919061538e565b6136ab91906152b2565b915050915091565b610102546001600160a01b031673eeeeeeeeeeeeeeeeeeeeeeeeeeeeeeeeeeeeeeee14156136e9576136e58282614393565b5050565b610102546136e5906001600160a01b03168383614446565b6000806305f5e100613717846305f5e0ff615335565b6137219190615354565b9050808410613739576137348484614476565b611472565b6000949350505050565b8015806137cc5750604051636eb1769f60e11b81523060048201526001600160a01b03838116602483015284169063dd62ed3e9060440160206040518083038186803b15801561379257600080fd5b505afa1580156137a6573d6000803e3d6000fd5b505050506040513d601f19601f820116820180604052508101906137ca919061538e565b155b6138375760405162461bcd60e51b815260206004820152603660248201527f5361666545524332303a20617070726f76652066726f6d206e6f6e2d7a65726f60448201527520746f206e6f6e2d7a65726f20616c6c6f77616e636560501b6064820152608401610e50565b6040516001600160a01b03831660248201526044810182905261350d90849063095ea7b360e01b906064015b60408051601f198184030181529190526020810180516001600160e01b03166001600160e01b031990931692909217909152614485565b60006138a4611dc3565b60fc549091506000818311156139065760006138c083856152b2565b905061271060fb54826138d39190615335565b6138dd9190615354565b91508160fd60008282546138f19190615376565b90915550613901905082856152b2565b60fc55505b426101115560408051848152602081018490529081018290527fa3e3c8c92ed1e364d04865f99cd96c3ae8f5a7d800f4a1d8148a58c6de6f1b7190606001613587565b6000613953610e81565b60fd54909150801580159061396757508115155b1561291e57808281101561398a576000915061398381846152b2565b925061399d565b61399483836152b2565b60009390925090505b60fd82905561010683905560fe546139be906001600160a01b0316826136b3565b61010254604080518381526001600160a01b0390921660208301527f6e027f1905abd7233c51c9483e29a545074ed10d39db528c9791a246b26741ff910160405180910390a1505090565b6000806000613a166119ad565b925092509250801561350d575061011591909155610116554261011755565b60c980546001600160a01b038381166001600160a01b0319831681179093556040519116919082907f8be0079c531659141344cd1fd0a4f28419497f9722a3daafe3b4186f6b6457e090600090a35050565b610108546000613a9682614557565b905080821115613aaf57613aaa81836152b2565b613ab2565b60005b610108556040518181527f99d7f8b71cfb9126984f7a5eed3a40e64a8959e9b0e442221546fb04ec6a489c906020015b60405180910390a15050565b60008054610100900460ff1615613b35578160ff166001148015613b115750303b155b613b2d5760405162461bcd60e51b8152600401610e509061556b565b506000919050565b60005460ff808416911610613b5c5760405162461bcd60e51b8152600401610e509061556b565b506000805460ff191660ff92909216919091179055600190565b919050565b60008111613bbc5760405162461bcd60e51b815260206004820152600e60248201526d125b9d985b1a5908185b5bdd5b9d60921b6044820152606401610e50565b6001600160a01b03808316600090815261011360205260409020439055610102541673eeeeeeeeeeeeeeeeeeeeeeeeeeeeeeeeeeeeeeee14613c115761010254613c11906001600160a01b03168330846145f6565b806101066000828254613c249190615376565b909155506000905081613c35611dc3565b613c3f91906152b2565b90506000613c4c60355490565b90506000821580613c5b575081155b613c795782613c6a8386615335565b613c749190615354565b613c7b565b835b9050613c87858261462e565b613c92846001613512565b604080516001600160a01b0387168152602081018690529081018290527f90890809c654f11d6e72a28fa60149770a0d11ec6c92319d6ceb2bb0a4ea1a1590606001612247565b6101005460405163b3596f0760e01b81526001600160a01b038481166004830152600092839283929091169063b3596f0790602401604080518083038186803b158015613d2557600080fd5b505afa158015613d39573d6000803e3d6000fd5b505050506040513d601f19601f82011682018060405250810190613d5d91906155b9565b915091506000613d6c86613f44565b9050613d7982600a61552b565b83613d89878460ff16601261470d565b613d939190615335565b613d9d9190615354565b9695505050505050565b600061010c54821015613de85760405162461bcd60e51b81526020600482015260096024820152681d1bdbc81cdb585b1b60ba1b6044820152606401610e50565b6101105461010f54613dfa9190615376565b421015613e425760405162461bcd60e51b8152602060048201526016602482015275139bdd0818589b19481d1bc81c995919595b481e595d60521b6044820152606401610e50565b613e4b8261413d565b90507f702d5967f45f6513a38ffc42d6ba9bf230bd40e8f53b16363c7eb4fd2deb9a4481604051613e7e91815260200190565b60405180910390a1919050565b600080613e966119ad565b50909392505050565b600054610100900460ff16613ec65760405162461bcd60e51b8152600401610e50906155e5565b610e5933613a35565b600054610100900460ff16612e8b5760405162461bcd60e51b8152600401610e50906155e5565b600054610100900460ff16613f1d5760405162461bcd60e51b8152600401610e50906155e5565b8151613f30906036906020850190614d09565b50805161350d906037906020840190614d09565b60006001600160a01b03821673eeeeeeeeeeeeeeeeeeeeeeeeeeeeeeeeeeeeeeee14613fe057816001600160a01b031663313ce5676040518163ffffffff1660e01b815260040160206040518083038186803b158015613fa357600080fd5b505afa158015613fb7573d6000803e3d6000fd5b505050506040513d601f19601f82011682018060405250810190613fdb919061542c565b610e0b565b601292915050565b60655460ff161561400b5760405162461bcd60e51b8152600401610e5090615272565b6065805460ff191660011790557f62e78cea01bee320cd4e420270b5ea74000d11b0c9f74754ebdbfc544b05a2586140403390565b6040516001600160a01b03909116815260200160405180910390a1565b61406561389a565b600061406f613949565b905061010b548110158015614095575061010e5461010d546140919190615376565b4210155b1561181e5760006140a58261476b565b90506140b181836152b2565b610106554261010d556040518181527fa09b7ae452b7bffb9e204c3a016e80caeecf46f554d112644f36fa114dac6ffa90602001613ae2565b60655460ff1661410c5760405162461bcd60e51b8152600401610e50906153ed565b6065805460ff191690557f5db9ee0a495bf2e6ff9c91a7834c1ba4fdd244a5e8aa4e537bd38aeae4b073aa33614040565b6101025461012c546040516370a0823160e01b81526001600160a01b039182166004820152600092839216906370a082319060240160206040518083038186803b15801561418a57600080fd5b505afa15801561419e573d6000803e3d6000fd5b505050506040513d601f19601f820116820180604052508101906141c2919061538e565b9050801561438d5760006141d584611a83565b9050808210156141fb57806141ea8386615335565b6141f49190615354565b92506141ff565b8392505b610103546040516370a0823160e01b81523060048201526000916001600160a01b0316906370a082319060240160206040518083038186803b15801561424457600080fd5b505afa158015614258573d6000803e3d6000fd5b505050506040513d601f19601f8201168201806040525081019061427c919061538e565b9050838110156143175761429861429382866152b2565b61489b565b610103546040516370a0823160e01b81523060048201526001600160a01b03909116906370a082319060240160206040518083038186803b1580156142dc57600080fd5b505afa1580156142f0573d6000803e3d6000fd5b505050506040513d601f19601f82011682018060405250810190614314919061538e565b90505b801561438a5761012c546001600160a01b03166350e2c2626143398684614476565b6040518263ffffffff1660e01b815260040161435791815260200190565b600060405180830381600087803b15801561437157600080fd5b505af1158015614385573d6000803e3d6000fd5b505050505b50505b50919050565b604080516000808252602082019092526001600160a01b0384169083906040516143bd9190615630565b60006040518083038185875af1925050503d80600081146143fa576040519150601f19603f3d011682016040523d82523d6000602084013e6143ff565b606091505b505090508061350d5760405162461bcd60e51b8152602060048201526013602482015272115512081d1c985b9cd9995c8819985a5b1959606a1b6044820152606401610e50565b6040516001600160a01b03831660248201526044810182905261350d90849063a9059cbb60e01b90606401613863565b60008183106122ea5781610e7a565b60006144da826040518060400160405280602081526020017f5361666545524332303a206c6f772d6c6576656c2063616c6c206661696c6564815250856001600160a01b0316614abc9092919063ffffffff16565b80519091501561350d57808060200190518101906144f891906153cb565b61350d5760405162461bcd60e51b815260206004820152602a60248201527f5361666545524332303a204552433230206f7065726174696f6e20646964206e6044820152691bdd081cdd58d8d9595960b21b6064820152608401610e50565b600061456460001961489b565b610103546040516370a0823160e01b81523060048201526000916001600160a01b0316906370a082319060240160206040518083038186803b1580156145a957600080fd5b505afa1580156145bd573d6000803e3d6000fd5b505050506040513d601f19601f820116820180604052508101906145e1919061538e565b905061010c54811061438d57610e7a8161413d565b6040516001600160a01b03808516602483015283166044820152606481018290526130ff9085906323b872dd60e01b90608401613863565b6001600160a01b0382166146845760405162461bcd60e51b815260206004820152601f60248201527f45524332303a206d696e7420746f20746865207a65726f2061646472657373006044820152606401610e50565b80603560008282546146969190615376565b90915550506001600160a01b038216600090815260336020526040812080548392906146c3908490615376565b90915550506040518181526001600160a01b038316906000907fddf252ad1be2c89b69c2b068fc378daa952ba7f163c4a11628f55a4df523b3ef9060200160405180910390a35050565b60008183141561471e575082610e7a565b8183101561474c5761473083836152b2565b61473b90600a61564c565b6147459085615335565b9050610e7a565b61475682846152b2565b61476190600a61564c565b6147459085615354565b6101035461012c546040516370a0823160e01b81526001600160a01b039182166004820152600092839216906370a082319060240160206040518083038186803b1580156147b857600080fd5b505afa1580156147cc573d6000803e3d6000fd5b505050506040513d601f19601f820116820180604052508101906147f0919061538e565b9050801561438d5760006148038461131e565b90508082101561482957806148188386615335565b6148229190615354565b925061482d565b8392505b61012c54604051630d53dcf760e21b8152600481018590526001600160a01b039091169063354f73dc90602401600060405180830381600087803b15801561487457600080fd5b505af1158015614888573d6000803e3d6000fd5b50505050614894614acb565b5050919050565b61012d546040516370a0823160e01b81523060048201526000916001600160a01b0316906370a082319060240160206040518083038186803b1580156148e057600080fd5b505afa1580156148f4573d6000803e3d6000fd5b505050506040513d601f19601f82011682018060405250810190614918919061538e565b905080156136e55760006000198314614a555761012d60009054906101000a90046001600160a01b03166001600160a01b031663a20a4cb46040518163ffffffff1660e01b815260040160206040518083038186803b15801561497a57600080fd5b505afa15801561498e573d6000803e3d6000fd5b505050506040513d601f19601f820116820180604052508101906149b2919061538e565b61012d54604080516318160ddd60e01b8152905186926001600160a01b0316916318160ddd916004808301926020929190829003018186803b1580156149f757600080fd5b505afa158015614a0b573d6000803e3d6000fd5b505050506040513d601f19601f82011682018060405250810190614a2f919061538e565b614a399190615335565b614a439190615354565b905081811115614a505750805b614a58565b50805b61012d54604051632e1a7d4d60e01b8152600481018390526001600160a01b0390911690632e1a7d4d90602401600060405180830381600087803b158015614a9f57600080fd5b505af1158015614ab3573d6000803e3d6000fd5b50505050505050565b60606114728484600085614b9f565b61012d54610103546040516370a0823160e01b81523060048201526001600160a01b039283169263b6b55f259216906370a082319060240160206040518083038186803b158015614b1b57600080fd5b505afa158015614b2f573d6000803e3d6000fd5b505050506040513d601f19601f82011682018060405250810190614b53919061538e565b6040518263ffffffff1660e01b8152600401614b7191815260200190565b600060405180830381600087803b158015614b8b57600080fd5b505af11580156130ff573d6000803e3d6000fd5b606082471015614c005760405162461bcd60e51b815260206004820152602660248201527f416464726573733a20696e73756666696369656e742062616c616e636520666f6044820152651c8818d85b1b60d21b6064820152608401610e50565b6001600160a01b0385163b614c575760405162461bcd60e51b815260206004820152601d60248201527f416464726573733a2063616c6c20746f206e6f6e2d636f6e74726163740000006044820152606401610e50565b600080866001600160a01b03168587604051614c739190615630565b60006040518083038185875af1925050503d8060008114614cb0576040519150601f19603f3d011682016040523d82523d6000602084013e614cb5565b606091505b5091509150614cc5828286614cd0565b979650505050505050565b60608315614cdf575081610e7a565b825115614cef5782518084602001fd5b8160405162461bcd60e51b8152600401610e509190614dc5565b828054614d1590615210565b90600052602060002090601f016020900481019282614d375760008555614d7d565b82601f10614d5057805160ff1916838001178555614d7d565b82800160010185558215614d7d579182015b82811115614d7d578251825591602001919060010190614d62565b5061291e9291505b8082111561291e5760008155600101614d85565b60005b83811015614db4578181015183820152602001614d9c565b838111156130ff5750506000910152565b6020815260008251806020840152614de4816040850160208701614d99565b601f01601f19169190910160400192915050565b6001600160a01b038116811461181e57600080fd5b60008060408385031215614e2057600080fd5b8235614e2b81614df8565b946020939093013593505050565b600080600060608486031215614e4e57600080fd5b8335614e5981614df8565b92506020840135614e6981614df8565b929592945050506040919091013590565b60008060008060808587031215614e9057600080fd5b5050823594602084013594506040840135936060013592509050565b600060208284031215614ebe57600080fd5b5035919050565b600060208284031215614ed757600080fd5b8135610e7a81614df8565b60008060408385031215614ef557600080fd5b50508035926020909101359150565b60008060008060808587031215614f1a57600080fd5b8435614f2581614df8565b93506020850135614f3581614df8565b92506040850135614f4581614df8565b91506060850135614f5581614df8565b939692955090935050565b634e487b7160e01b600052604160045260246000fd5b604051601f8201601f1916810167ffffffffffffffff81118282101715614f9f57614f9f614f60565b604052919050565b600082601f830112614fb857600080fd5b813567ffffffffffffffff811115614fd257614fd2614f60565b614fe5601f8201601f1916602001614f76565b818152846020838601011115614ffa57600080fd5b816020850160208301376000918101602001919091529392505050565b600080600080600080600060e0888a03121561503257600080fd5b873567ffffffffffffffff8082111561504a57600080fd5b6150568b838c01614fa7565b985060208a013591508082111561506c57600080fd5b506150798a828b01614fa7565b965050604088013561508a81614df8565b9450606088013561509a81614df8565b935060808801356150aa81614df8565b925060a08801356150ba81614df8565b915060c08801356150ca81614df8565b8091505092959891949750929550565b600080604083850312156150ed57600080fd5b82356150f881614df8565b9150602083013561510881614df8565b809150509250929050565b6000602080838503121561512657600080fd5b823567ffffffffffffffff8082111561513e57600080fd5b818501915085601f83011261515257600080fd5b81358181111561516457615164614f60565b8060051b9150615175848301614f76565b818152918301840191848101908884111561518f57600080fd5b938501935b838510156151ad57843582529385019390850190615194565b98975050505050505050565b6000606082018583526020858185015260606040850152818551808452608086019150828701935060005b818110156152025784511515835293830193918301916001016151e4565b509098975050505050505050565b600181811c9082168061522457607f821691505b6020821081141561438d57634e487b7160e01b600052602260045260246000fd5b60208082526013908201527227b7363c9037bbb732b91037b91030b236b4b760691b604082015260600190565b60208082526010908201526f14185d5cd8589b194e881c185d5cd95960821b604082015260600190565b634e487b7160e01b600052601160045260246000fd5b6000828210156152c4576152c461529c565b500390565b6020808252818101527f4f776e61626c653a2063616c6c6572206973206e6f7420746865206f776e6572604082015260600190565b6020808252601f908201527f5265656e7472616e637947756172643a207265656e7472616e742063616c6c00604082015260600190565b600081600019048311821515161561534f5761534f61529c565b500290565b60008261537157634e487b7160e01b600052601260045260246000fd5b500490565b600082198211156153895761538961529c565b500190565b6000602082840312156153a057600080fd5b5051919050565b6000602082840312156153b957600080fd5b815161ffff81168114610e7a57600080fd5b6000602082840312156153dd57600080fd5b81518015158114610e7a57600080fd5b60208082526014908201527314185d5cd8589b194e881b9bdd081c185d5cd95960621b604082015260600190565b805160ff81168114613b7657600080fd5b60006020828403121561543e57600080fd5b610e7a8261541b565b600181815b808511156154825781600019048211156154685761546861529c565b8085161561547557918102915b93841c939080029061544c565b509250929050565b60008261549957506001610e0b565b816154a657506000610e0b565b81600181146154bc57600281146154c6576154e2565b6001915050610e0b565b60ff8411156154d7576154d761529c565b50506001821b610e0b565b5060208310610133831016604e8410600b8410161715615505575081810a610e0b565b61550f8383615447565b80600019048211156155235761552361529c565b029392505050565b6000610e7a60ff84168361548a565b634e487b7160e01b600052603260045260246000fd5b60006000198214156155645761556461529c565b5060010190565b6020808252602e908201527f496e697469616c697a61626c653a20636f6e747261637420697320616c72656160408201526d191e481a5b9a5d1a585b1a5e995960921b606082015260800190565b600080604083850312156155cc57600080fd5b825191506155dc6020840161541b565b90509250929050565b6020808252602b908201527f496e697469616c697a61626c653a20636f6e7472616374206973206e6f74206960408201526a6e697469616c697a696e6760a81b606082015260800190565b60008251615642818460208701614d99565b9190910192915050565b6000610e7a838361548a56fea26469706673582212200ce742ad4fa128eb581b3ef729e25013be57bb47c5c36c9fb7d90285a6f923e964736f6c63430008090033",
  "devdoc": {
    "kind": "dev",
    "methods": {
      "allowance(address,address)": {
        "details": "See {IERC20-allowance}."
      },
      "approve(address,uint256)": {
        "details": "See {IERC20-approve}. NOTE: If `amount` is the maximum `uint256`, the allowance is not updated on `transferFrom`. This is semantically equivalent to an infinite approval. Requirements: - `spender` cannot be the zero address."
      },
      "balanceOf(address)": {
        "details": "See {IERC20-balanceOf}."
      },
      "claim(uint256)": {
        "details": "claim token with NFT token",
        "returns": {
          "_amount": "is the amount of claimed token."
        }
      },
      "claimMulti(uint256[])": {
        "details": "claim token with NFT tokens",
        "returns": {
          "_amount": "is the amount of claimed token.",
          "_claimed": "is the flag indicating whether the token is claimed.",
          "_claimedCount": "is the count of reqIds that are claimed."
        }
      },
      "claimUnbonded()": {
        "details": "claim the unbonded tokens from the staking pool. It's called by admin."
      },
      "collectProfitAndUpdateWatermark()": {
        "details": "collect profit and update the watermark"
      },
      "decimals()": {
        "details": "Returns the number of decimals used to get its user representation. For example, if `decimals` equals `2`, a balance of `505` tokens should be displayed to a user as `5.05` (`505 / 10 ** 2`). Tokens usually opt for a value of 18, imitating the relationship between Ether and Wei. This is the value {ERC20} uses, unless this function is overridden; NOTE: This information is only used for _display_ purposes: it in no way affects any of the arithmetic of the contract, including {IERC20-balanceOf} and {IERC20-transfer}."
      },
      "decreaseAllowance(address,uint256)": {
        "details": "Atomically decreases the allowance granted to `spender` by the caller. This is an alternative to {approve} that can be used as a mitigation for problems described in {IERC20-approve}. Emits an {Approval} event indicating the updated allowance. Requirements: - `spender` cannot be the zero address. - `spender` must have allowance for the caller of at least `subtractedValue`."
      },
      "deposit(uint256)": {
        "details": "deposit `_amount` of token."
      },
      "depositETH()": {
        "details": "deposit the native asset."
      },
      "emergencyPendingRedeems()": {
        "details": "the total amount of emergency withdrawal stToken that is not yet requested to the staking pool."
      },
      "emergencyRedeem()": {
        "details": "In emergency mode, redeem the rest of stTokens. Especially it's needed for stNEAR because the MetaPool has a buffer limit."
      },
      "getAPR()": {
        "returns": {
          "_0": "the APR in the vault. It's scaled by 1e18."
        }
      },
      "getAllPool()": {
        "details": "it doesn't include the unbonding stTokens according to the burnt shares."
      },
      "getAllPoolInUSD()": {
        "returns": {
          "_0": "the total USD value of tokens in the vault."
        }
      },
      "getPoolByShares(uint256)": {
        "returns": {
          "_0": "the amount of token that corresponds to `_shares` of shares."
        }
      },
      "getPooledTokenByStToken(uint256)": {
        "details": "wNearSwapFee can be changed after redeem requested.",
        "params": {
          "_stAmount": "Amount of stTokens"
        }
      },
      "getSharesByPool(uint256)": {
        "returns": {
          "_0": "the amount of shares that corresponds to `_amount` of token."
        }
      },
      "getStTokenByPooledToken(uint256)": {
        "details": "stNearSwapFee can be changed after redeem requested.",
        "params": {
          "_amount": "Amount of tokens"
        }
      },
      "getTokenUnbonded()": {
        "returns": {
          "_0": "the unbonded token amount that is claimable from the staking pool."
        }
      },
      "getWithdrawRequest(uint256)": {
        "returns": {
          "_claimable": "specifys whether user can claim tokens for it.",
          "_requestTs": "is timestmap when withdrawal requested.",
          "_stTokenAmt": "is amount of stToken to redeem.",
          "_tokenAmt": "is amount of token to claim.",
          "_waitForTs": "is timestamp to wait for."
        }
      },
      "increaseAllowance(address,uint256)": {
        "details": "Atomically increases the allowance granted to `spender` by the caller. This is an alternative to {approve} that can be used as a mitigation for problems described in {IERC20-approve}. Emits an {Approval} event indicating the updated allowance. Requirements: - `spender` cannot be the zero address."
      },
      "invest()": {
        "details": "stake the buffered deposits into the staking pool. It's called by admin."
      },
      "name()": {
        "details": "Returns the name of the token."
      },
      "owner()": {
        "details": "Returns the address of the current owner."
      },
      "paused()": {
        "details": "Returns true if the contract is paused, and false otherwise."
      },
      "redeem()": {
        "details": "redeem the requested withdrawals from the staking pool. It's called by admin."
      },
      "renounceOwnership()": {
        "details": "Leaves the contract without owner. It will not be possible to call `onlyOwner` functions anymore. Can only be called by the current owner. NOTE: Renouncing ownership will leave the contract without an owner, thereby removing any functionality that is only available to the owner."
      },
      "setFee(uint256)": {
        "params": {
          "_yieldFeePerc": "deposit fee percentage. 2000 for 20%"
        }
      },
      "symbol()": {
        "details": "Returns the symbol of the token, usually a shorter version of the name."
      },
      "totalSupply()": {
        "details": "See {IERC20-totalSupply}."
      },
      "transfer(address,uint256)": {
        "details": "See {IERC20-transfer}. Requirements: - `to` cannot be the zero address. - the caller must have a balance of at least `amount`."
      },
      "transferFrom(address,address,uint256)": {
        "details": "See {IERC20-transferFrom}. Emits an {Approval} event indicating the updated allowance. This is not required by the EIP. See the note at the beginning of {ERC20}. NOTE: Does not update the allowance if the current allowance is the maximum `uint256`. Requirements: - `from` and `to` cannot be the zero address. - `from` must have a balance of at least `amount`. - the caller must have allowance for ``from``'s tokens of at least `amount`."
      },
      "transferOwnership(address)": {
        "details": "Transfers ownership of the contract to a new account (`newOwner`). Can only be called by the current owner."
      },
      "withdraw(uint256)": {
        "details": "request a withdrawal that corresponds to `_shares` of shares.",
        "returns": {
          "_amount": "is the amount of withdrawn token.",
          "_reqId": "is the NFT token id indicating the request for rest of withdrawal. 0 if no request is made."
        }
      },
      "withdrawFees()": {
        "details": "transfer out fees."
      },
      "yield()": {
        "details": "take rewards and reinvest them. It's called by admin."
      }
    },
    "version": 1
  },
  "userdoc": {
    "kind": "user",
    "methods": {
      "emergencyWithdraw()": {
        "notice": "Withdraws funds staked in mirror to this vault and pauses deposit, yield, invest functions"
      },
      "getPendingRewards()": {
        "notice": "Returns the pending rewards in USD."
      },
      "reinvest()": {
        "notice": "Unpauses deposit, yield, invest functions, and invests funds."
      },
      "setFee(uint256)": {
        "notice": "Function to set deposit and yield fee"
      }
    },
    "version": 1
  },
  "storageLayout": {
    "storage": [
      {
        "astId": 130,
        "contract": "contracts/stVaults/meta/AuroraStNEARVaultTest.sol:AuroraStNEARVaultTest",
        "label": "_initialized",
        "offset": 0,
        "slot": "0",
        "type": "t_uint8"
      },
      {
        "astId": 133,
        "contract": "contracts/stVaults/meta/AuroraStNEARVaultTest.sol:AuroraStNEARVaultTest",
        "label": "_initializing",
        "offset": 1,
        "slot": "0",
        "type": "t_bool"
      },
      {
        "astId": 2709,
        "contract": "contracts/stVaults/meta/AuroraStNEARVaultTest.sol:AuroraStNEARVaultTest",
        "label": "__gap",
        "offset": 0,
        "slot": "1",
        "type": "t_array(t_uint256)50_storage"
      },
      {
        "astId": 454,
        "contract": "contracts/stVaults/meta/AuroraStNEARVaultTest.sol:AuroraStNEARVaultTest",
        "label": "_balances",
        "offset": 0,
        "slot": "51",
        "type": "t_mapping(t_address,t_uint256)"
      },
      {
        "astId": 460,
        "contract": "contracts/stVaults/meta/AuroraStNEARVaultTest.sol:AuroraStNEARVaultTest",
        "label": "_allowances",
        "offset": 0,
        "slot": "52",
        "type": "t_mapping(t_address,t_mapping(t_address,t_uint256))"
      },
      {
        "astId": 462,
        "contract": "contracts/stVaults/meta/AuroraStNEARVaultTest.sol:AuroraStNEARVaultTest",
        "label": "_totalSupply",
        "offset": 0,
        "slot": "53",
        "type": "t_uint256"
      },
      {
        "astId": 464,
        "contract": "contracts/stVaults/meta/AuroraStNEARVaultTest.sol:AuroraStNEARVaultTest",
        "label": "_name",
        "offset": 0,
        "slot": "54",
        "type": "t_string_storage"
      },
      {
        "astId": 466,
        "contract": "contracts/stVaults/meta/AuroraStNEARVaultTest.sol:AuroraStNEARVaultTest",
        "label": "_symbol",
        "offset": 0,
        "slot": "55",
        "type": "t_string_storage"
      },
      {
        "astId": 1045,
        "contract": "contracts/stVaults/meta/AuroraStNEARVaultTest.sol:AuroraStNEARVaultTest",
        "label": "__gap",
        "offset": 0,
        "slot": "56",
        "type": "t_array(t_uint256)45_storage"
      },
      {
        "astId": 286,
        "contract": "contracts/stVaults/meta/AuroraStNEARVaultTest.sol:AuroraStNEARVaultTest",
        "label": "_paused",
        "offset": 0,
        "slot": "101",
        "type": "t_bool"
      },
      {
        "astId": 375,
        "contract": "contracts/stVaults/meta/AuroraStNEARVaultTest.sol:AuroraStNEARVaultTest",
        "label": "__gap",
        "offset": 0,
        "slot": "102",
        "type": "t_array(t_uint256)49_storage"
      },
      {
        "astId": 390,
        "contract": "contracts/stVaults/meta/AuroraStNEARVaultTest.sol:AuroraStNEARVaultTest",
        "label": "_status",
        "offset": 0,
        "slot": "151",
        "type": "t_uint256"
      },
      {
        "astId": 434,
        "contract": "contracts/stVaults/meta/AuroraStNEARVaultTest.sol:AuroraStNEARVaultTest",
        "label": "__gap",
        "offset": 0,
        "slot": "152",
        "type": "t_array(t_uint256)49_storage"
      },
      {
        "astId": 10,
        "contract": "contracts/stVaults/meta/AuroraStNEARVaultTest.sol:AuroraStNEARVaultTest",
        "label": "_owner",
        "offset": 0,
        "slot": "201",
        "type": "t_address"
      },
      {
        "astId": 122,
        "contract": "contracts/stVaults/meta/AuroraStNEARVaultTest.sol:AuroraStNEARVaultTest",
        "label": "__gap",
        "offset": 0,
        "slot": "202",
        "type": "t_array(t_uint256)49_storage"
      },
      {
        "astId": 36016,
        "contract": "contracts/stVaults/meta/AuroraStNEARVaultTest.sol:AuroraStNEARVaultTest",
        "label": "yieldFee",
        "offset": 0,
        "slot": "251",
        "type": "t_uint256"
      },
      {
        "astId": 36018,
        "contract": "contracts/stVaults/meta/AuroraStNEARVaultTest.sol:AuroraStNEARVaultTest",
        "label": "watermark",
        "offset": 0,
        "slot": "252",
        "type": "t_uint256"
      },
      {
        "astId": 36020,
        "contract": "contracts/stVaults/meta/AuroraStNEARVaultTest.sol:AuroraStNEARVaultTest",
        "label": "fees",
        "offset": 0,
        "slot": "253",
        "type": "t_uint256"
      },
      {
        "astId": 36022,
        "contract": "contracts/stVaults/meta/AuroraStNEARVaultTest.sol:AuroraStNEARVaultTest",
        "label": "treasuryWallet",
        "offset": 0,
        "slot": "254",
        "type": "t_address"
      },
      {
        "astId": 36024,
        "contract": "contracts/stVaults/meta/AuroraStNEARVaultTest.sol:AuroraStNEARVaultTest",
        "label": "admin",
        "offset": 0,
        "slot": "255",
        "type": "t_address"
      },
      {
        "astId": 36027,
        "contract": "contracts/stVaults/meta/AuroraStNEARVaultTest.sol:AuroraStNEARVaultTest",
        "label": "priceOracle",
        "offset": 0,
        "slot": "256",
        "type": "t_contract(IPriceOracle)11071"
      },
      {
        "astId": 36030,
        "contract": "contracts/stVaults/meta/AuroraStNEARVaultTest.sol:AuroraStNEARVaultTest",
        "label": "nft",
        "offset": 0,
        "slot": "257",
        "type": "t_contract(IStVaultNFT)52804"
      },
      {
        "astId": 36033,
        "contract": "contracts/stVaults/meta/AuroraStNEARVaultTest.sol:AuroraStNEARVaultTest",
        "label": "token",
        "offset": 0,
        "slot": "258",
        "type": "t_contract(IERC20Upgradeable)1124"
      },
      {
        "astId": 36036,
        "contract": "contracts/stVaults/meta/AuroraStNEARVaultTest.sol:AuroraStNEARVaultTest",
        "label": "stToken",
        "offset": 0,
        "slot": "259",
        "type": "t_contract(IERC20Upgradeable)1124"
      },
      {
        "astId": 36038,
        "contract": "contracts/stVaults/meta/AuroraStNEARVaultTest.sol:AuroraStNEARVaultTest",
        "label": "tokenDecimals",
        "offset": 20,
        "slot": "259",
        "type": "t_uint8"
      },
      {
        "astId": 36040,
        "contract": "contracts/stVaults/meta/AuroraStNEARVaultTest.sol:AuroraStNEARVaultTest",
        "label": "stTokenDecimals",
        "offset": 21,
        "slot": "259",
        "type": "t_uint8"
      },
      {
        "astId": 36042,
        "contract": "contracts/stVaults/meta/AuroraStNEARVaultTest.sol:AuroraStNEARVaultTest",
        "label": "oneToken",
        "offset": 0,
        "slot": "260",
        "type": "t_uint256"
      },
      {
        "astId": 36044,
        "contract": "contracts/stVaults/meta/AuroraStNEARVaultTest.sol:AuroraStNEARVaultTest",
        "label": "oneStToken",
        "offset": 0,
        "slot": "261",
        "type": "t_uint256"
      },
      {
        "astId": 36046,
        "contract": "contracts/stVaults/meta/AuroraStNEARVaultTest.sol:AuroraStNEARVaultTest",
        "label": "bufferedDeposits",
        "offset": 0,
        "slot": "262",
        "type": "t_uint256"
      },
      {
        "astId": 36048,
        "contract": "contracts/stVaults/meta/AuroraStNEARVaultTest.sol:AuroraStNEARVaultTest",
        "label": "pendingWithdrawals",
        "offset": 0,
        "slot": "263",
        "type": "t_uint256"
      },
      {
        "astId": 36050,
        "contract": "contracts/stVaults/meta/AuroraStNEARVaultTest.sol:AuroraStNEARVaultTest",
        "label": "pendingRedeems",
        "offset": 0,
        "slot": "264",
        "type": "t_uint256"
      },
      {
        "astId": 36052,
        "contract": "contracts/stVaults/meta/AuroraStNEARVaultTest.sol:AuroraStNEARVaultTest",
        "label": "emergencyUnbondings",
        "offset": 0,
        "slot": "265",
        "type": "t_uint256"
      },
      {
        "astId": 36054,
        "contract": "contracts/stVaults/meta/AuroraStNEARVaultTest.sol:AuroraStNEARVaultTest",
        "label": "unbondingPeriod",
        "offset": 0,
        "slot": "266",
        "type": "t_uint256"
      },
      {
        "astId": 36056,
        "contract": "contracts/stVaults/meta/AuroraStNEARVaultTest.sol:AuroraStNEARVaultTest",
        "label": "minInvestAmount",
        "offset": 0,
        "slot": "267",
        "type": "t_uint256"
      },
      {
        "astId": 36058,
        "contract": "contracts/stVaults/meta/AuroraStNEARVaultTest.sol:AuroraStNEARVaultTest",
        "label": "minRedeemAmount",
        "offset": 0,
        "slot": "268",
        "type": "t_uint256"
      },
      {
        "astId": 36060,
        "contract": "contracts/stVaults/meta/AuroraStNEARVaultTest.sol:AuroraStNEARVaultTest",
        "label": "lastInvestTs",
        "offset": 0,
        "slot": "269",
        "type": "t_uint256"
      },
      {
        "astId": 36062,
        "contract": "contracts/stVaults/meta/AuroraStNEARVaultTest.sol:AuroraStNEARVaultTest",
        "label": "investInterval",
        "offset": 0,
        "slot": "270",
        "type": "t_uint256"
      },
      {
        "astId": 36064,
        "contract": "contracts/stVaults/meta/AuroraStNEARVaultTest.sol:AuroraStNEARVaultTest",
        "label": "lastRedeemTs",
        "offset": 0,
        "slot": "271",
        "type": "t_uint256"
      },
      {
        "astId": 36066,
        "contract": "contracts/stVaults/meta/AuroraStNEARVaultTest.sol:AuroraStNEARVaultTest",
        "label": "redeemInterval",
        "offset": 0,
        "slot": "272",
        "type": "t_uint256"
      },
      {
        "astId": 36068,
        "contract": "contracts/stVaults/meta/AuroraStNEARVaultTest.sol:AuroraStNEARVaultTest",
        "label": "lastCollectProfitTs",
        "offset": 0,
        "slot": "273",
        "type": "t_uint256"
      },
      {
        "astId": 36070,
        "contract": "contracts/stVaults/meta/AuroraStNEARVaultTest.sol:AuroraStNEARVaultTest",
        "label": "oneEpoch",
        "offset": 0,
        "slot": "274",
        "type": "t_uint256"
      },
      {
        "astId": 36074,
        "contract": "contracts/stVaults/meta/AuroraStNEARVaultTest.sol:AuroraStNEARVaultTest",
        "label": "depositedBlock",
        "offset": 0,
        "slot": "275",
        "type": "t_mapping(t_address,t_uint256)"
      },
      {
        "astId": 36079,
        "contract": "contracts/stVaults/meta/AuroraStNEARVaultTest.sol:AuroraStNEARVaultTest",
        "label": "nft2WithdrawRequest",
        "offset": 0,
        "slot": "276",
        "type": "t_mapping(t_uint256,t_struct(WithdrawRequest)52506_storage)"
      },
      {
        "astId": 36081,
        "contract": "contracts/stVaults/meta/AuroraStNEARVaultTest.sol:AuroraStNEARVaultTest",
        "label": "baseApr",
        "offset": 0,
        "slot": "277",
        "type": "t_uint256"
      },
      {
        "astId": 36083,
        "contract": "contracts/stVaults/meta/AuroraStNEARVaultTest.sol:AuroraStNEARVaultTest",
        "label": "baseTokenRate",
        "offset": 0,
        "slot": "278",
        "type": "t_uint256"
      },
      {
        "astId": 36085,
        "contract": "contracts/stVaults/meta/AuroraStNEARVaultTest.sol:AuroraStNEARVaultTest",
        "label": "baseAprLastUpdate",
        "offset": 0,
        "slot": "279",
        "type": "t_uint256"
      },
      {
        "astId": 38168,
        "contract": "contracts/stVaults/meta/AuroraStNEARVaultTest.sol:AuroraStNEARVaultTest",
        "label": "__gap",
        "offset": 0,
        "slot": "280",
        "type": "t_array(t_uint256)20_storage"
      },
      {
        "astId": 41601,
        "contract": "contracts/stVaults/meta/AuroraStNEARVaultTest.sol:AuroraStNEARVaultTest",
        "label": "metaPool",
        "offset": 0,
        "slot": "300",
        "type": "t_contract(IMetaPool)41592"
      },
      {
        "astId": 41604,
        "contract": "contracts/stVaults/meta/AuroraStNEARVaultTest.sol:AuroraStNEARVaultTest",
        "label": "stNEARVault",
        "offset": 0,
        "slot": "301",
        "type": "t_contract(IL2Vault)52471"
      }
    ],
    "types": {
      "t_address": {
        "encoding": "inplace",
        "label": "address",
        "numberOfBytes": "20"
      },
      "t_array(t_uint256)20_storage": {
        "base": "t_uint256",
        "encoding": "inplace",
        "label": "uint256[20]",
        "numberOfBytes": "640"
      },
      "t_array(t_uint256)45_storage": {
        "base": "t_uint256",
        "encoding": "inplace",
        "label": "uint256[45]",
        "numberOfBytes": "1440"
      },
      "t_array(t_uint256)49_storage": {
        "base": "t_uint256",
        "encoding": "inplace",
        "label": "uint256[49]",
        "numberOfBytes": "1568"
      },
      "t_array(t_uint256)50_storage": {
        "base": "t_uint256",
        "encoding": "inplace",
        "label": "uint256[50]",
        "numberOfBytes": "1600"
      },
      "t_bool": {
        "encoding": "inplace",
        "label": "bool",
        "numberOfBytes": "1"
      },
      "t_contract(IERC20Upgradeable)1124": {
        "encoding": "inplace",
        "label": "contract IERC20Upgradeable",
        "numberOfBytes": "20"
      },
      "t_contract(IL2Vault)52471": {
        "encoding": "inplace",
        "label": "contract IL2Vault",
        "numberOfBytes": "20"
      },
      "t_contract(IMetaPool)41592": {
        "encoding": "inplace",
        "label": "contract IMetaPool",
        "numberOfBytes": "20"
      },
      "t_contract(IPriceOracle)11071": {
        "encoding": "inplace",
        "label": "contract IPriceOracle",
        "numberOfBytes": "20"
      },
      "t_contract(IStVaultNFT)52804": {
        "encoding": "inplace",
        "label": "contract IStVaultNFT",
        "numberOfBytes": "20"
      },
      "t_mapping(t_address,t_mapping(t_address,t_uint256))": {
        "encoding": "mapping",
        "key": "t_address",
        "label": "mapping(address => mapping(address => uint256))",
        "numberOfBytes": "32",
        "value": "t_mapping(t_address,t_uint256)"
      },
      "t_mapping(t_address,t_uint256)": {
        "encoding": "mapping",
        "key": "t_address",
        "label": "mapping(address => uint256)",
        "numberOfBytes": "32",
        "value": "t_uint256"
      },
      "t_mapping(t_uint256,t_struct(WithdrawRequest)52506_storage)": {
        "encoding": "mapping",
        "key": "t_uint256",
        "label": "mapping(uint256 => struct IStVault.WithdrawRequest)",
        "numberOfBytes": "32",
        "value": "t_struct(WithdrawRequest)52506_storage"
      },
      "t_string_storage": {
        "encoding": "bytes",
        "label": "string",
        "numberOfBytes": "32"
      },
      "t_struct(WithdrawRequest)52506_storage": {
        "encoding": "inplace",
        "label": "struct IStVault.WithdrawRequest",
        "members": [
          {
            "astId": 52501,
            "contract": "contracts/stVaults/meta/AuroraStNEARVaultTest.sol:AuroraStNEARVaultTest",
            "label": "tokenAmt",
            "offset": 0,
            "slot": "0",
            "type": "t_uint256"
          },
          {
            "astId": 52503,
            "contract": "contracts/stVaults/meta/AuroraStNEARVaultTest.sol:AuroraStNEARVaultTest",
            "label": "stTokenAmt",
            "offset": 0,
            "slot": "1",
            "type": "t_uint256"
          },
          {
            "astId": 52505,
            "contract": "contracts/stVaults/meta/AuroraStNEARVaultTest.sol:AuroraStNEARVaultTest",
            "label": "requestTs",
            "offset": 0,
            "slot": "2",
            "type": "t_uint256"
          }
        ],
        "numberOfBytes": "96"
      },
      "t_uint256": {
        "encoding": "inplace",
        "label": "uint256",
        "numberOfBytes": "32"
      },
      "t_uint8": {
        "encoding": "inplace",
        "label": "uint8",
        "numberOfBytes": "1"
      }
    }
  }
}