{
  "address": "0xeA6D92bd732E21FbA6C8491066d924Cc2fC5a07c",
  "abi": [
    {
      "anonymous": false,
      "inputs": [
        {
          "indexed": false,
          "internalType": "address",
          "name": "token",
          "type": "address"
        },
        {
          "indexed": false,
          "internalType": "uint256",
          "name": "pid",
          "type": "uint256"
        }
      ],
      "name": "AddToken",
      "type": "event"
    },
    {
      "anonymous": false,
      "inputs": [
        {
          "indexed": false,
          "internalType": "address",
          "name": "claimer",
          "type": "address"
        },
        {
          "indexed": false,
          "internalType": "address",
          "name": "token",
          "type": "address"
        },
        {
          "indexed": false,
          "internalType": "uint256",
          "name": "tokenAmt",
          "type": "uint256"
        },
        {
          "indexed": false,
          "internalType": "uint256",
          "name": "USDTAmt",
          "type": "uint256"
        }
      ],
      "name": "Claim",
      "type": "event"
    },
    {
      "anonymous": false,
      "inputs": [
        {
          "indexed": false,
          "internalType": "uint256",
          "name": "USDTAmt",
          "type": "uint256"
        }
      ],
      "name": "EmergencyWithdraw",
      "type": "event"
    },
    {
      "anonymous": false,
      "inputs": [
        {
          "indexed": false,
          "internalType": "uint8",
          "name": "version",
          "type": "uint8"
        }
      ],
      "name": "Initialized",
      "type": "event"
    },
    {
      "anonymous": false,
      "inputs": [
        {
          "indexed": true,
          "internalType": "address",
          "name": "previousOwner",
          "type": "address"
        },
        {
          "indexed": true,
          "internalType": "address",
          "name": "newOwner",
          "type": "address"
        }
      ],
      "name": "OwnershipTransferred",
      "type": "event"
    },
    {
      "anonymous": false,
      "inputs": [
        {
          "indexed": false,
          "internalType": "address",
          "name": "account",
          "type": "address"
        }
      ],
      "name": "Paused",
      "type": "event"
    },
    {
      "anonymous": false,
      "inputs": [
        {
          "indexed": false,
          "internalType": "address",
          "name": "token",
          "type": "address"
        },
        {
          "indexed": false,
          "internalType": "uint256",
          "name": "pid",
          "type": "uint256"
        }
      ],
      "name": "RemoveToken",
      "type": "event"
    },
    {
      "anonymous": false,
      "inputs": [
        {
          "indexed": false,
          "internalType": "address",
          "name": "oldAdmin",
          "type": "address"
        },
        {
          "indexed": false,
          "internalType": "address",
          "name": "newAdmin",
          "type": "address"
        }
      ],
      "name": "SetAdminWallet",
      "type": "event"
    },
    {
      "anonymous": false,
      "inputs": [
        {
          "indexed": false,
          "internalType": "address",
          "name": "oldTreasuryWallet",
          "type": "address"
        },
        {
          "indexed": false,
          "internalType": "address",
          "name": "newTreasuryWallet",
          "type": "address"
        }
      ],
      "name": "SetTreasuryWallet",
      "type": "event"
    },
    {
      "anonymous": false,
      "inputs": [
        {
          "indexed": false,
          "internalType": "address",
          "name": "account",
          "type": "address"
        }
      ],
      "name": "Unpaused",
      "type": "event"
    },
    {
      "anonymous": false,
      "inputs": [
        {
          "indexed": false,
          "internalType": "uint256",
          "name": "sharePerc",
          "type": "uint256"
        },
        {
          "indexed": false,
          "internalType": "uint256",
          "name": "USDTAmt",
          "type": "uint256"
        }
      ],
      "name": "Withdraw",
      "type": "event"
    },
    {
      "inputs": [],
      "name": "SWAP_BASE_TOKEN",
      "outputs": [
        {
          "internalType": "contract IERC20UpgradeableExt",
          "name": "",
          "type": "address"
        }
      ],
      "stateMutability": "view",
      "type": "function"
    },
    {
      "inputs": [],
      "name": "USDT",
      "outputs": [
        {
          "internalType": "contract IERC20UpgradeableExt",
          "name": "",
          "type": "address"
        }
      ],
      "stateMutability": "view",
      "type": "function"
    },
    {
      "inputs": [],
      "name": "WNEARVault",
      "outputs": [
        {
          "internalType": "contract IStVault",
          "name": "",
          "type": "address"
        }
      ],
      "stateMutability": "view",
      "type": "function"
    },
    {
      "inputs": [
        {
          "internalType": "address",
          "name": "_token",
          "type": "address"
        }
      ],
      "name": "addToken",
      "outputs": [],
      "stateMutability": "nonpayable",
      "type": "function"
    },
    {
      "inputs": [],
      "name": "admin",
      "outputs": [
        {
          "internalType": "address",
          "name": "",
          "type": "address"
        }
      ],
      "stateMutability": "view",
      "type": "function"
    },
    {
      "inputs": [
        {
          "internalType": "address",
          "name": "_claimer",
          "type": "address"
        }
      ],
      "name": "claim",
      "outputs": [
        {
          "internalType": "uint256",
          "name": "USDTAmt",
          "type": "uint256"
        }
      ],
      "stateMutability": "nonpayable",
      "type": "function"
    },
    {
      "inputs": [],
      "name": "claimEmergencyWithdrawal",
      "outputs": [],
      "stateMutability": "nonpayable",
      "type": "function"
    },
    {
      "inputs": [
        {
          "internalType": "address",
          "name": "",
          "type": "address"
        },
        {
          "internalType": "address",
          "name": "",
          "type": "address"
        },
        {
          "internalType": "uint256",
          "name": "",
          "type": "uint256"
        }
      ],
      "name": "claimer2ReqIds",
      "outputs": [
        {
          "internalType": "uint256",
          "name": "",
          "type": "uint256"
        }
      ],
      "stateMutability": "view",
      "type": "function"
    },
    {
      "inputs": [],
      "name": "emergencyWithdraw",
      "outputs": [],
      "stateMutability": "nonpayable",
      "type": "function"
    },
    {
      "inputs": [],
      "name": "getAPR",
      "outputs": [
        {
          "internalType": "uint256",
          "name": "",
          "type": "uint256"
        }
      ],
      "stateMutability": "view",
      "type": "function"
    },
    {
      "inputs": [],
      "name": "getAllPoolInUSD",
      "outputs": [
        {
          "internalType": "uint256",
          "name": "",
          "type": "uint256"
        }
      ],
      "stateMutability": "view",
      "type": "function"
    },
    {
      "inputs": [
        {
          "internalType": "address",
          "name": "_claimer",
          "type": "address"
        }
      ],
      "name": "getAllUnbonded",
      "outputs": [
        {
          "internalType": "uint256",
          "name": "waitingInUSD",
          "type": "uint256"
        },
        {
          "internalType": "uint256",
          "name": "unbondedInUSD",
          "type": "uint256"
        },
        {
          "internalType": "uint256",
          "name": "waitForTs",
          "type": "uint256"
        }
      ],
      "stateMutability": "view",
      "type": "function"
    },
    {
      "inputs": [],
      "name": "getCurrentTokenCompositionPerc",
      "outputs": [
        {
          "internalType": "address[]",
          "name": "",
          "type": "address[]"
        },
        {
          "internalType": "uint256[]",
          "name": "percentages",
          "type": "uint256[]"
        }
      ],
      "stateMutability": "view",
      "type": "function"
    },
    {
      "inputs": [],
      "name": "getEachPoolInUSD",
      "outputs": [
        {
          "internalType": "address[]",
          "name": "",
          "type": "address[]"
        },
        {
          "internalType": "uint256[]",
          "name": "pools",
          "type": "uint256[]"
        }
      ],
      "stateMutability": "view",
      "type": "function"
    },
    {
      "inputs": [],
      "name": "getEmergencyWithdrawalUnbonded",
      "outputs": [
        {
          "internalType": "uint256",
          "name": "waitingInUSD",
          "type": "uint256"
        },
        {
          "internalType": "uint256",
          "name": "unbondedInUSD",
          "type": "uint256"
        },
        {
          "internalType": "uint256",
          "name": "waitForTs",
          "type": "uint256"
        }
      ],
      "stateMutability": "view",
      "type": "function"
    },
    {
      "inputs": [],
      "name": "getPoolCount",
      "outputs": [
        {
          "internalType": "uint256",
          "name": "",
          "type": "uint256"
        }
      ],
      "stateMutability": "view",
      "type": "function"
    },
    {
      "inputs": [
        {
          "internalType": "address",
          "name": "_claimer",
          "type": "address"
        },
        {
          "internalType": "uint256",
          "name": "_pid",
          "type": "uint256"
        }
      ],
      "name": "getPoolUnbonded",
      "outputs": [
        {
          "internalType": "uint256",
          "name": "waiting",
          "type": "uint256"
        },
        {
          "internalType": "uint256",
          "name": "waitingInUSD",
          "type": "uint256"
        },
        {
          "internalType": "uint256",
          "name": "unbonded",
          "type": "uint256"
        },
        {
          "internalType": "uint256",
          "name": "unbondedInUSD",
          "type": "uint256"
        },
        {
          "internalType": "uint256",
          "name": "waitForTs",
          "type": "uint256"
        }
      ],
      "stateMutability": "view",
      "type": "function"
    },
    {
      "inputs": [
        {
          "internalType": "address",
          "name": "_claimer",
          "type": "address"
        }
      ],
      "name": "getPoolsUnbonded",
      "outputs": [
        {
          "internalType": "address[]",
          "name": "",
          "type": "address[]"
        },
        {
          "internalType": "uint256[]",
          "name": "waitings",
          "type": "uint256[]"
        },
        {
          "internalType": "uint256[]",
          "name": "waitingInUSDs",
          "type": "uint256[]"
        },
        {
          "internalType": "uint256[]",
          "name": "unbondeds",
          "type": "uint256[]"
        },
        {
          "internalType": "uint256[]",
          "name": "unbondedInUSDs",
          "type": "uint256[]"
        },
        {
          "internalType": "uint256[]",
          "name": "waitForTses",
          "type": "uint256[]"
        }
      ],
      "stateMutability": "view",
      "type": "function"
    },
    {
      "inputs": [],
      "name": "getTokens",
      "outputs": [
        {
          "internalType": "address[]",
          "name": "",
          "type": "address[]"
        }
      ],
      "stateMutability": "view",
      "type": "function"
    },
    {
      "inputs": [],
      "name": "getUSDTPriceInUSD",
      "outputs": [
        {
          "internalType": "uint256",
          "name": "",
          "type": "uint256"
        },
        {
          "internalType": "uint8",
          "name": "",
          "type": "uint8"
        }
      ],
      "stateMutability": "view",
      "type": "function"
    },
    {
      "inputs": [
        {
          "internalType": "address",
          "name": "_admin",
          "type": "address"
        },
        {
          "internalType": "address",
          "name": "_priceOracle",
          "type": "address"
        },
        {
          "internalType": "address",
          "name": "_router",
          "type": "address"
        },
        {
          "internalType": "address",
          "name": "_SWAP_BASE_TOKEN",
          "type": "address"
        },
        {
          "internalType": "address",
          "name": "_USDT",
          "type": "address"
        },
        {
          "internalType": "address",
          "name": "_token0",
          "type": "address"
        }
      ],
      "name": "initialize",
      "outputs": [],
      "stateMutability": "nonpayable",
      "type": "function"
    },
    {
      "inputs": [
        {
          "internalType": "address",
          "name": "_admin",
          "type": "address"
        },
        {
          "internalType": "address",
          "name": "_priceOracle",
          "type": "address"
        },
        {
          "internalType": "contract IStVault",
          "name": "_WNEARVault",
          "type": "address"
        }
      ],
      "name": "initialize1",
      "outputs": [],
      "stateMutability": "nonpayable",
      "type": "function"
    },
    {
      "inputs": [
        {
          "internalType": "address[]",
          "name": "_tokens",
          "type": "address[]"
        },
        {
          "internalType": "uint256[]",
          "name": "_USDTAmts",
          "type": "uint256[]"
        }
      ],
      "name": "invest",
      "outputs": [],
      "stateMutability": "nonpayable",
      "type": "function"
    },
    {
      "inputs": [],
      "name": "owner",
      "outputs": [
        {
          "internalType": "address",
          "name": "",
          "type": "address"
        }
      ],
      "stateMutability": "view",
      "type": "function"
    },
    {
      "inputs": [],
      "name": "paused",
      "outputs": [
        {
          "internalType": "bool",
          "name": "",
          "type": "bool"
        }
      ],
      "stateMutability": "view",
      "type": "function"
    },
    {
      "inputs": [
        {
          "internalType": "address",
          "name": "",
          "type": "address"
        }
      ],
      "name": "pid",
      "outputs": [
        {
          "internalType": "uint256",
          "name": "",
          "type": "uint256"
        }
      ],
      "stateMutability": "view",
      "type": "function"
    },
    {
      "inputs": [],
      "name": "priceOracle",
      "outputs": [
        {
          "internalType": "contract IPriceOracle",
          "name": "",
          "type": "address"
        }
      ],
      "stateMutability": "view",
      "type": "function"
    },
    {
      "inputs": [
        {
          "internalType": "address[]",
          "name": "_tokens",
          "type": "address[]"
        },
        {
          "internalType": "uint256[]",
          "name": "_USDTAmts",
          "type": "uint256[]"
        }
      ],
      "name": "reinvest",
      "outputs": [],
      "stateMutability": "nonpayable",
      "type": "function"
    },
    {
      "inputs": [
        {
          "internalType": "uint256",
          "name": "_pid",
          "type": "uint256"
        }
      ],
      "name": "removeToken",
      "outputs": [],
      "stateMutability": "nonpayable",
      "type": "function"
    },
    {
      "inputs": [],
      "name": "renounceOwnership",
      "outputs": [],
      "stateMutability": "nonpayable",
      "type": "function"
    },
    {
      "inputs": [
        {
          "internalType": "address",
          "name": "",
          "type": "address"
        },
        {
          "internalType": "uint256",
          "name": "",
          "type": "uint256"
        }
      ],
      "name": "reqId2Index",
      "outputs": [
        {
          "internalType": "uint256",
          "name": "",
          "type": "uint256"
        }
      ],
      "stateMutability": "view",
      "type": "function"
    },
    {
      "inputs": [],
      "name": "router",
      "outputs": [
        {
          "internalType": "contract IUniRouter",
          "name": "",
          "type": "address"
        }
      ],
      "stateMutability": "view",
      "type": "function"
    },
    {
      "inputs": [
        {
          "internalType": "address",
          "name": "_admin",
          "type": "address"
        }
      ],
      "name": "setAdmin",
      "outputs": [],
      "stateMutability": "nonpayable",
      "type": "function"
    },
    {
      "inputs": [
        {
          "internalType": "contract IStVault",
          "name": "_WNEARVault",
          "type": "address"
        }
      ],
      "name": "setStVault",
      "outputs": [],
      "stateMutability": "nonpayable",
      "type": "function"
    },
    {
      "inputs": [
        {
          "internalType": "address",
          "name": "_vault",
          "type": "address"
        }
      ],
      "name": "setVault",
      "outputs": [],
      "stateMutability": "nonpayable",
      "type": "function"
    },
    {
      "inputs": [
        {
          "internalType": "uint256",
          "name": "",
          "type": "uint256"
        }
      ],
      "name": "tokens",
      "outputs": [
        {
          "internalType": "address",
          "name": "",
          "type": "address"
        }
      ],
      "stateMutability": "view",
      "type": "function"
    },
    {
      "inputs": [
        {
          "internalType": "address",
          "name": "newOwner",
          "type": "address"
        }
      ],
      "name": "transferOwnership",
      "outputs": [],
      "stateMutability": "nonpayable",
      "type": "function"
    },
    {
      "inputs": [],
      "name": "vault",
      "outputs": [
        {
          "internalType": "address",
          "name": "",
          "type": "address"
        }
      ],
      "stateMutability": "view",
      "type": "function"
    },
    {
      "inputs": [
        {
          "internalType": "address",
          "name": "_claimer",
          "type": "address"
        },
        {
          "internalType": "uint256",
          "name": "_sharePerc",
          "type": "uint256"
        }
      ],
      "name": "withdrawPerc",
      "outputs": [
        {
          "internalType": "uint256",
          "name": "USDTAmt",
          "type": "uint256"
        }
      ],
      "stateMutability": "nonpayable",
      "type": "function"
    },
    {
      "stateMutability": "payable",
      "type": "receive"
    }
  ],
  "transactionHash": "0x95212cd7dab9029f103372888195f931ba9307d738a7f440a0ce1bf9c76df865",
  "args": [],
  "numDeployments": 2,
  "solcInputHash": "aa8af62c39c4987602902032509083cd",
  "bytecode": "0x608060405234801561001057600080fd5b506131be806100206000396000f3fe6080604052600436106102345760003560e01c80639b8608821161012e578063d48bfca7116100ab578063e66fa5dc1161006f578063e66fa5dc146106b9578063f2fde38b14610701578063f851a44014610721578063f887ea4014610741578063fbfa77cf1461076157600080fd5b8063d48bfca7146105ed578063d8274d0a1461060d578063d9e063271461063a578063da454e6114610672578063db2e21bc146106a457600080fd5b8063c378022c116100f2578063c378022c14610558578063c54e44eb14610578578063c89d5b8b14610598578063cc2a9a5b146105ad578063d38d5fc4146105cd57600080fd5b80639b860882146104c0578063aa6ca808146104e0578063aae0923614610502578063b47c6a2714610517578063bd244af41461054357600080fd5b80634546a6b3116101bc5780636817031b116101805780636817031b14610438578063704b6c0214610458578063715018a6146104785780638da5cb5b1461048d5780638eec5d70146104ab57600080fd5b80634546a6b3146103925780634631b246146103b25780634f64b2be146103d55780634fb02c95146103f55780635c975abb1461041557600080fd5b80632630c12f116102035780632630c12f146102da57806326b89b7114610312578063297d0e4c1461033257806330703f321461035257806336c5d7241461037257600080fd5b806309b056f81461024057806317e6cdba146102575780631e83409a1461028a57806325b074f6146102aa57600080fd5b3661023b57005b600080fd5b34801561024c57600080fd5b50610255610781565b005b34801561026357600080fd5b5061027761027236600461292d565b6107b9565b6040519081526020015b60405180910390f35b34801561029657600080fd5b506102776102a536600461296e565b6107f7565b3480156102b657600080fd5b506102bf61082d565b60408051938452602084019290925290820152606001610281565b3480156102e657600080fd5b50609c546102fa906001600160a01b031681565b6040516001600160a01b039091168152602001610281565b34801561031e57600080fd5b5061025561032d366004612a61565b610846565b34801561033e57600080fd5b5061025561034d36600461296e565b61087e565b34801561035e57600080fd5b506098546102fa906001600160a01b031681565b34801561037e57600080fd5b5061025561038d366004612b23565b6108ca565b34801561039e57600080fd5b5060c8546102fa906001600160a01b031681565b3480156103be57600080fd5b506103c7610ac3565b604051610281929190612bb0565b3480156103e157600080fd5b506102fa6103f0366004612b23565b610c63565b34801561040157600080fd5b506102bf61041036600461296e565b610c8d565b34801561042157600080fd5b5060335460ff166040519015158152602001610281565b34801561044457600080fd5b5061025561045336600461296e565b610ca8565b34801561046457600080fd5b5061025561047336600461296e565b610d39565b34801561048457600080fd5b50610255610dc5565b34801561049957600080fd5b506065546001600160a01b03166102fa565b3480156104b757600080fd5b50609d54610277565b3480156104cc57600080fd5b506102556104db366004612a61565b610df9565b3480156104ec57600080fd5b506104f5610e2b565b6040516102819190612bde565b34801561050e57600080fd5b506103c7610e8d565b34801561052357600080fd5b5061052c610efa565b6040805192835260ff909116602083015201610281565b34801561054f57600080fd5b50610277610f84565b34801561056457600080fd5b50610255610573366004612bf1565b611016565b34801561058457600080fd5b506099546102fa906001600160a01b031681565b3480156105a457600080fd5b506102776110fb565b3480156105b957600080fd5b506102556105c8366004612c3c565b61122a565b3480156105d957600080fd5b506102776105e8366004612cbe565b611558565b3480156105f957600080fd5b5061025561060836600461296e565b611637565b34801561061957600080fd5b5061027761062836600461296e565b609e6020526000908152604090205481565b34801561064657600080fd5b50610277610655366004612cbe565b60a060209081526000928352604080842090915290825290205481565b34801561067e57600080fd5b5061069261068d36600461296e565b61179c565b60405161028196959493929190612cea565b3480156106b057600080fd5b50610255611a5c565b3480156106c557600080fd5b506106d96106d4366004612cbe565b611afd565b604080519586526020860194909452928401919091526060830152608082015260a001610281565b34801561070d57600080fd5b5061025561071c36600461296e565b611d04565b34801561072d57600080fd5b50609a546102fa906001600160a01b031681565b34801561074d57600080fd5b506097546102fa906001600160a01b031681565b34801561076d57600080fd5b50609b546102fa906001600160a01b031681565b609b546001600160a01b031633146107b45760405162461bcd60e51b81526004016107ab90612d6c565b60405180910390fd5b565b50565b609f60205282600052604060002060205281600052604060002081815481106107e157600080fd5b9060005260206000200160009250925050505481565b609b546000906001600160a01b031633146108245760405162461bcd60e51b81526004016107ab90612d6c565b60005b92915050565b600080600061083b30611d9c565b925092509250909192565b609b546001600160a01b031633146108705760405162461bcd60e51b81526004016107ab90612d6c565b61087a8282611e1b565b5050565b6065546001600160a01b031633146108a85760405162461bcd60e51b81526004016107ab90612d90565b60c880546001600160a01b0319166001600160a01b0392909216919091179055565b6065546001600160a01b031633146108f45760405162461bcd60e51b81526004016107ab90612d90565b609d548082106109345760405162461bcd60e51b815260206004820152600b60248201526a125b9d985b1a59081c1a5960aa1b60448201526064016107ab565b600061093f83611f49565b905080156109835760405162461bcd60e51b8152602060048201526011602482015270506f6f6c206973206e6f7420656d70747960781b60448201526064016107ab565b6000609d848154811061099857610998612dc5565b6000918252602090912001546001600160a01b03169050609d6109bc600185612df1565b815481106109cc576109cc612dc5565b600091825260209091200154609d80546001600160a01b0390921691869081106109f8576109f8612dc5565b9060005260206000200160006101000a8154816001600160a01b0302191690836001600160a01b03160217905550609d805480610a3757610a37612e08565b60008281526020808220830160001990810180546001600160a01b03191690559092019092556001600160a01b0383168252609e90526040812055610a7a611fdf565b604080516001600160a01b0383168152602081018690527f67f5552e5abc48ba6305130450943fa23b76a0b6eb18c29d3eea39559139fc5a91015b60405180910390a150505050565b6060806000610ad06120a8565b80519091506000805b82811015610b1a57838181518110610af357610af3612dc5565b602002602001015182610b069190612e1e565b915080610b1281612e36565b915050610ad9565b5060008215610b3457610b2f83612710612e51565b610b37565b60005b90508267ffffffffffffffff811115610b5257610b5261298b565b604051908082528060200260200182016040528015610b7b578160200160208202803683370190505b50945060005b83811015610bf7578215610bc65782612710868381518110610ba557610ba5612dc5565b6020026020010151610bb79190612e73565b610bc19190612e51565b610bc8565b815b868281518110610bda57610bda612dc5565b602090810291909101015280610bef81612e36565b915050610b81565b50609d8581805480602002602001604051908101604052809291908181526020018280548015610c5057602002820191906000526020600020905b81546001600160a01b03168152600190910190602001808311610c32575b5050505050915095509550505050509091565b609d8181548110610c7357600080fd5b6000918252602090912001546001600160a01b0316905081565b6000806000610c9b84611d9c565b9250925092509193909250565b6065546001600160a01b03163314610cd25760405162461bcd60e51b81526004016107ab90612d90565b609b546001600160a01b031615610d175760405162461bcd60e51b815260206004820152600960248201526815985d5b1d081cd95d60ba1b60448201526064016107ab565b609b80546001600160a01b0319166001600160a01b0392909216919091179055565b6065546001600160a01b03163314610d635760405162461bcd60e51b81526004016107ab90612d90565b609a80546001600160a01b038381166001600160a01b031983168117909355604080519190921680825260208201939093527f9f0ac88be9159761bacf6c9e7c294c397ebf594607f6b3f2f70e7e0841ea68e891015b60405180910390a15050565b6065546001600160a01b03163314610def5760405162461bcd60e51b81526004016107ab90612d90565b6107b4600061213b565b609b546001600160a01b03163314610e235760405162461bcd60e51b81526004016107ab90612d6c565b61087061218d565b6060609d805480602002602001604051908101604052809291908181526020018280548015610e8357602002820191906000526020600020905b81546001600160a01b03168152600190910190602001808311610e65575b5050505050905090565b606080609d610e9a6120a8565b815460408051602080840282018101909252828152918491830182828015610eeb57602002820191906000526020600020905b81546001600160a01b03168152600190910190602001808311610ecd575b50505050509150915091509091565b609c5460995460405163b3596f0760e01b81526001600160a01b0391821660048201526000928392169063b3596f0790602401604080518083038186803b158015610f4457600080fd5b505afa158015610f58573d6000803e3d6000fd5b505050506040513d601f19601f82011682018060405250810190610f7c9190612ea3565b915091509091565b600080610f8f6120a8565b80519091506000805b82811015610fd957838181518110610fb257610fb2612dc5565b602002602001015182610fc59190612e1e565b915080610fd181612e36565b915050610f98565b5060335460ff161561100f57600080610ff061082d565b5090925090506110008183612e1e565b61100a9084612e1e565b925050505b9392505050565b60006110226001612220565b9050801561103a576000805461ff0019166101001790555b6110988484732cb45edb4517d5947afde3beabf95a582506858b734861825e75ab14553e5af711ebbe6873d369d14673f9c249974c1acf96a59e5757cc9ba7035ce489b1734861825e75ab14553e5af711ebbe6873d369d14661122a565b60c880546001600160a01b0319166001600160a01b03841617905580156110f5576000805461ff0019169055604051600181527f7f26b83ff96e1f2b6a682f133852f6798a09c465da95921460cefb384740249890602001610ab5565b50505050565b6000806000611108610ac3565b81519193509150600090815b8181101561121457600061114e609d838154811061113457611134612dc5565b6000918252602090912001546001600160a01b03166122ad565b90506001600160a01b038116156112015784828151811061117157611171612dc5565b6020026020010151816001600160a01b031663c89d5b8b6040518163ffffffff1660e01b815260040160206040518083038186803b1580156111b257600080fd5b505afa1580156111c6573d6000803e3d6000fd5b505050506040513d601f19601f820116820180604052508101906111ea9190612ecf565b6111f49190612e73565b6111fe9085612e1e565b93505b508061120c81612e36565b915050611114565b5061122161271083612e51565b94505050505090565b60006112366001612220565b9050801561124e576000805461ff0019166101001790555b6001600160a01b0385166112955760405162461bcd60e51b815260206004820152600e60248201526d24b73b30b634b2103937baba32b960911b60448201526064016107ab565b6001600160a01b0384166112eb5760405162461bcd60e51b815260206004820152601760248201527f496e76616c696420535741505f424153455f544f4b454e00000000000000000060448201526064016107ab565b6001600160a01b0383166113305760405162461bcd60e51b815260206004820152600c60248201526b125b9d985b1a59081554d11560a21b60448201526064016107ab565b6001600160a01b0382166113775760405162461bcd60e51b815260206004820152600e60248201526d0496e76616c696420746f6b656e360941b60448201526064016107ab565b61137f6122e5565b609a80546001600160a01b03808a166001600160a01b031992831617909255609c805489841690831617905560978054888416908316179055609880548784169083161790556099805492861692909116821790556040805163313ce56760e01b8152905163313ce56791600481810192602092909190829003018186803b15801561140a57600080fd5b505afa15801561141e573d6000803e3d6000fd5b505050506040513d601f19601f820116820180604052508101906114429190612ee8565b6099805460ff60a01b1916600160a01b60ff938416810291909117918290556006910490911610156114b65760405162461bcd60e51b815260206004820152601760248201527f5553445420646563696d616c73206d757374203e3d203600000000000000000060448201526064016107ab565b609d80546001810182556000919091527fd26e832454299e9fabb89e0e5fffdc046d4e14431bc1bf607ffb2e8a1ddecf7b0180546001600160a01b0319166001600160a01b038416179055611509611fdf565b801561154f576000805461ff0019169055604051600181527f7f26b83ff96e1f2b6a682f133852f6798a09c465da95921460cefb38474024989060200160405180910390a15b50505050505050565b609b546000906001600160a01b031633146115855760405162461bcd60e51b81526004016107ab90612d6c565b670de0b6b3a76400008211156115c95760405162461bcd60e51b81526020600482015260096024820152684f766572203130302560b81b60448201526064016107ab565b6115d38383612314565b905080156115f857609b546099546115f8916001600160a01b039182169116836123b0565b60408051838152602081018390527f56ca301a9219608c91e7bcee90e083c19671d2cdcc96752c7af291cee5f9c8c8910160405180910390a192915050565b6065546001600160a01b031633146116615760405162461bcd60e51b81526004016107ab90612d90565b6001600160a01b0381166000908152609e6020526040902054801580156116b35750609d60008154811061169757611697612dc5565b6000918252602090912001546001600160a01b03838116911614155b6116ef5760405162461bcd60e51b815260206004820152600d60248201526c105b1c9958591e481859191959609a1b60448201526064016107ab565b609d80546001808201835560008390527fd26e832454299e9fabb89e0e5fffdc046d4e14431bc1bf607ffb2e8a1ddecf7b90910180546001600160a01b0319166001600160a01b03861617905590546117489190612df1565b6001600160a01b0383166000818152609e6020908152604091829020849055815192835282018390529192507fe1bea1af9b1d1aede8b7fa043080de8690470a8ae61449360b3d0c0bf8104b469101610db9565b6060806060806060806000609d8054905090508067ffffffffffffffff8111156117c8576117c861298b565b6040519080825280602002602001820160405280156117f1578160200160208202803683370190505b5095508067ffffffffffffffff81111561180d5761180d61298b565b604051908082528060200260200182016040528015611836578160200160208202803683370190505b5094508067ffffffffffffffff8111156118525761185261298b565b60405190808252806020026020018201604052801561187b578160200160208202803683370190505b5093508067ffffffffffffffff8111156118975761189761298b565b6040519080825280602002602001820160405280156118c0578160200160208202803683370190505b5092508067ffffffffffffffff8111156118dc576118dc61298b565b604051908082528060200260200182016040528015611905578160200160208202803683370190505b50915060005b818110156119e25760008060008060006119258e87611afd565b94509450945094509450848c878151811061194257611942612dc5565b602002602001018181525050838b878151811061196157611961612dc5565b602002602001018181525050828a878151811061198057611980612dc5565b6020026020010181815250508189878151811061199f5761199f612dc5565b602002602001018181525050808887815181106119be576119be612dc5565b602002602001018181525050505050505080806119da90612e36565b91505061190b565b50609d868686868685805480602002602001604051908101604052809291908181526020018280548015611a3f57602002820191906000526020600020905b81546001600160a01b03168152600190910190602001808311611a21575b505050505095509650965096509650965096505091939550919395565b609b546001600160a01b03163314611a865760405162461bcd60e51b81526004016107ab90612d6c565b611a8e612413565b6000611aa230670de0b6b3a7640000612314565b90508015611ac757609b54609954611ac7916001600160a01b039182169116836123b0565b6040518181527f99d7f8b71cfb9126984f7a5eed3a40e64a8959e9b0e442221546fb04ec6a489c9060200160405180910390a150565b6000806000806000609d80549050861015611cfa576000609d8781548110611b2757611b27612dc5565b60009182526020822001546001600160a01b03169150611b46826122ad565b90506001600160a01b03811615611cf7576001600160a01b038083166000908152609f60209081526040808320938d16835292815282822080548451818402810184019095528085529293929091830182828015611bc357602002820191906000526020600020905b815481526020019060010190808311611baf575b5050505050905060005b8151811015611cce576000828281518110611bea57611bea612dc5565b602002602001015190506000806000866001600160a01b031663cc0fe4a4856040518263ffffffff1660e01b8152600401611c2791815260200190565b60a06040518083038186803b158015611c3f57600080fd5b505afa158015611c53573d6000803e3d6000fd5b505050506040513d601f19601f82011682018060405250810190611c779190612f13565b94505050925092508215611c9657611c8f828c612e1e565b9a50611cb7565b611ca0828e612e1e565b9c50881580611cae57508089115b15611cb7578098505b505050508080611cc690612e36565b915050611bcd565b508715611ce257611cdf838961248e565b96505b8515611cf557611cf2838761248e565b94505b505b50505b9295509295909350565b6065546001600160a01b03163314611d2e5760405162461bcd60e51b81526004016107ab90612d90565b6001600160a01b038116611d935760405162461bcd60e51b815260206004820152602660248201527f4f776e61626c653a206e6577206f776e657220697320746865207a65726f206160448201526564647265737360d01b60648201526084016107ab565b6107b68161213b565b609d5460009081908190815b81811015611e12576000806000611dbf8985611afd565b94509450509350508288611dd39190612e1e565b9750611ddf8288612e1e565b96508715611dfc57851580611df357508086115b15611dfc578095505b5050508080611e0a90612e36565b915050611da8565b50509193909250565b8151609d54600090819067ffffffffffffffff811115611e3d57611e3d61298b565b604051908082528060200260200182016040528015611e66578160200160208202803683370190505b50905060005b83811015611f23576000858281518110611e8857611e88612dc5565b602002602001015190508084611e9e9190612e1e565b93506000609e6000898581518110611eb857611eb8612dc5565b60200260200101516001600160a01b03166001600160a01b0316815260200190815260200160002054905081848281518110611ef657611ef6612dc5565b60200260200101818151611f0a9190612e1e565b905250829150611f1b905081612e36565b915050611e6c565b50609b54609954611f42916001600160a01b039182169116308561255b565b5050505050565b609954609d546040516370a0823160e01b8152306004820152600092610827926001600160a01b039091169182906370a082319060240160206040518083038186803b158015611f9857600080fd5b505afa158015611fac573d6000803e3d6000fd5b505050506040513d601f19601f82011682018060405250810190611fd09190612ecf565b611fda9190612e51565b61248e565b6000609d80548060200260200160405190810160405280929190818152602001828054801561203757602002820191906000526020600020905b81546001600160a01b03168152600190910190602001808311612019575b505083519394506000925050505b818110156120a35780609e600085848151811061206457612064612dc5565b60200260200101516001600160a01b03166001600160a01b0316815260200190815260200160002081905550808061209b90612e36565b915050612045565b505050565b609d546060908067ffffffffffffffff8111156120c7576120c761298b565b6040519080825280602002602001820160405280156120f0578160200160208202803683370190505b50915060005b818110156121365761210781611f49565b83828151811061211957612119612dc5565b60209081029190910101528061212e81612e36565b9150506120f6565b505090565b606580546001600160a01b038381166001600160a01b0319831681179093556040519116919082907f8be0079c531659141344cd1fd0a4f28419497f9722a3daafe3b4186f6b6457e090600090a35050565b60335460ff166121d65760405162461bcd60e51b815260206004820152601460248201527314185d5cd8589b194e881b9bdd081c185d5cd95960621b60448201526064016107ab565b6033805460ff191690557f5db9ee0a495bf2e6ff9c91a7834c1ba4fdd244a5e8aa4e537bd38aeae4b073aa335b6040516001600160a01b03909116815260200160405180910390a1565b60008054610100900460ff1615612267578160ff1660011480156122435750303b155b61225f5760405162461bcd60e51b81526004016107ab90612f5a565b506000919050565b60005460ff80841691161061228e5760405162461bcd60e51b81526004016107ab90612f5a565b506000805460ff191660ff92909216919091179055600190565b919050565b60006001600160a01b038216734861825e75ab14553e5af711ebbe6873d369d14614156122a857505060c8546001600160a01b031690565b600054610100900460ff1661230c5760405162461bcd60e51b81526004016107ab90612fa8565b6107b4612593565b6099546040516370a0823160e01b8152306004820152600091670de0b6b3a76400009184916001600160a01b0316906370a082319060240160206040518083038186803b15801561236457600080fd5b505afa158015612378573d6000803e3d6000fd5b505050506040513d601f19601f8201168201806040525081019061239c9190612ecf565b6123a69190612e73565b61100f9190612e51565b6040516001600160a01b0383166024820152604481018290526120a390849063a9059cbb60e01b906064015b60408051601f198184030181529190526020810180516001600160e01b03166001600160e01b0319909316929092179091526125c3565b60335460ff16156124595760405162461bcd60e51b815260206004820152601060248201526f14185d5cd8589b194e881c185d5cd95960821b60448201526064016107ab565b6033805460ff191660011790557f62e78cea01bee320cd4e420270b5ea74000d11b0c9f74754ebdbfc544b05a2586122033390565b609c5460405163b3596f0760e01b81526001600160a01b038481166004830152600092839283929091169063b3596f0790602401604080518083038186803b1580156124d957600080fd5b505afa1580156124ed573d6000803e3d6000fd5b505050506040513d601f19601f820116820180604052508101906125119190612ea3565b91509150600061252086612695565b905061252d82600a6130d7565b8361253d878460ff166012612739565b6125479190612e73565b6125519190612e51565b9695505050505050565b6040516001600160a01b03808516602483015283166044820152606481018290526110f59085906323b872dd60e01b906084016123dc565b600054610100900460ff166125ba5760405162461bcd60e51b81526004016107ab90612fa8565b6107b43361213b565b6000612618826040518060400160405280602081526020017f5361666545524332303a206c6f772d6c6576656c2063616c6c206661696c6564815250856001600160a01b03166127979092919063ffffffff16565b8051909150156120a3578080602001905181019061263691906130e6565b6120a35760405162461bcd60e51b815260206004820152602a60248201527f5361666545524332303a204552433230206f7065726174696f6e20646964206e6044820152691bdd081cdd58d8d9595960b21b60648201526084016107ab565b60006001600160a01b03821673eeeeeeeeeeeeeeeeeeeeeeeeeeeeeeeeeeeeeeee1461273157816001600160a01b031663313ce5676040518163ffffffff1660e01b815260040160206040518083038186803b1580156126f457600080fd5b505afa158015612708573d6000803e3d6000fd5b505050506040513d601f19601f8201168201806040525081019061272c9190612ee8565b610827565b601292915050565b60008183141561274a57508261100f565b818310156127785761275c8383612df1565b61276790600a613101565b6127719085612e73565b905061100f565b6127828284612df1565b61278d90600a613101565b6127719085612e51565b60606127a684846000856127ae565b949350505050565b60608247101561280f5760405162461bcd60e51b815260206004820152602660248201527f416464726573733a20696e73756666696369656e742062616c616e636520666f6044820152651c8818d85b1b60d21b60648201526084016107ab565b6001600160a01b0385163b6128665760405162461bcd60e51b815260206004820152601d60248201527f416464726573733a2063616c6c20746f206e6f6e2d636f6e747261637400000060448201526064016107ab565b600080866001600160a01b031685876040516128829190613139565b60006040518083038185875af1925050503d80600081146128bf576040519150601f19603f3d011682016040523d82523d6000602084013e6128c4565b606091505b50915091506128d48282866128df565b979650505050505050565b606083156128ee57508161100f565b8251156128fe5782518084602001fd5b8160405162461bcd60e51b81526004016107ab9190613155565b6001600160a01b03811681146107b657600080fd5b60008060006060848603121561294257600080fd5b833561294d81612918565b9250602084013561295d81612918565b929592945050506040919091013590565b60006020828403121561298057600080fd5b813561100f81612918565b634e487b7160e01b600052604160045260246000fd5b604051601f8201601f1916810167ffffffffffffffff811182821017156129ca576129ca61298b565b604052919050565b600067ffffffffffffffff8211156129ec576129ec61298b565b5060051b60200190565b600082601f830112612a0757600080fd5b81356020612a1c612a17836129d2565b6129a1565b82815260059290921b84018101918181019086841115612a3b57600080fd5b8286015b84811015612a565780358352918301918301612a3f565b509695505050505050565b60008060408385031215612a7457600080fd5b823567ffffffffffffffff80821115612a8c57600080fd5b818501915085601f830112612aa057600080fd5b81356020612ab0612a17836129d2565b82815260059290921b84018101918181019089841115612acf57600080fd5b948201945b83861015612af6578535612ae781612918565b82529482019490820190612ad4565b96505086013592505080821115612b0c57600080fd5b50612b19858286016129f6565b9150509250929050565b600060208284031215612b3557600080fd5b5035919050565b600081518084526020808501945080840160005b83811015612b755781516001600160a01b031687529582019590820190600101612b50565b509495945050505050565b600081518084526020808501945080840160005b83811015612b7557815187529582019590820190600101612b94565b604081526000612bc36040830185612b3c565b8281036020840152612bd58185612b80565b95945050505050565b60208152600061100f6020830184612b3c565b600080600060608486031215612c0657600080fd5b8335612c1181612918565b92506020840135612c2181612918565b91506040840135612c3181612918565b809150509250925092565b60008060008060008060c08789031215612c5557600080fd5b8635612c6081612918565b95506020870135612c7081612918565b94506040870135612c8081612918565b93506060870135612c9081612918565b92506080870135612ca081612918565b915060a0870135612cb081612918565b809150509295509295509295565b60008060408385031215612cd157600080fd5b8235612cdc81612918565b946020939093013593505050565b60c081526000612cfd60c0830189612b3c565b8281036020840152612d0f8189612b80565b90508281036040840152612d238188612b80565b90508281036060840152612d378187612b80565b90508281036080840152612d4b8186612b80565b905082810360a0840152612d5f8185612b80565b9998505050505050505050565b6020808252600a908201526913db9b1e481d985d5b1d60b21b604082015260600190565b6020808252818101527f4f776e61626c653a2063616c6c6572206973206e6f7420746865206f776e6572604082015260600190565b634e487b7160e01b600052603260045260246000fd5b634e487b7160e01b600052601160045260246000fd5b600082821015612e0357612e03612ddb565b500390565b634e487b7160e01b600052603160045260246000fd5b60008219821115612e3157612e31612ddb565b500190565b6000600019821415612e4a57612e4a612ddb565b5060010190565b600082612e6e57634e487b7160e01b600052601260045260246000fd5b500490565b6000816000190483118215151615612e8d57612e8d612ddb565b500290565b805160ff811681146122a857600080fd5b60008060408385031215612eb657600080fd5b82519150612ec660208401612e92565b90509250929050565b600060208284031215612ee157600080fd5b5051919050565b600060208284031215612efa57600080fd5b61100f82612e92565b805180151581146122a857600080fd5b600080600080600060a08688031215612f2b57600080fd5b612f3486612f03565b602087015160408801516060890151608090990151929a91995097965090945092505050565b6020808252602e908201527f496e697469616c697a61626c653a20636f6e747261637420697320616c72656160408201526d191e481a5b9a5d1a585b1a5e995960921b606082015260800190565b6020808252602b908201527f496e697469616c697a61626c653a20636f6e7472616374206973206e6f74206960408201526a6e697469616c697a696e6760a81b606082015260800190565b600181815b8085111561302e57816000190482111561301457613014612ddb565b8085161561302157918102915b93841c9390800290612ff8565b509250929050565b60008261304557506001610827565b8161305257506000610827565b816001811461306857600281146130725761308e565b6001915050610827565b60ff84111561308357613083612ddb565b50506001821b610827565b5060208310610133831016604e8410600b84101617156130b1575081810a610827565b6130bb8383612ff3565b80600019048211156130cf576130cf612ddb565b029392505050565b600061100f60ff841683613036565b6000602082840312156130f857600080fd5b61100f82612f03565b600061100f8383613036565b60005b83811015613128578181015183820152602001613110565b838111156110f55750506000910152565b6000825161314b81846020870161310d565b9190910192915050565b602081526000825180602084015261317481604085016020870161310d565b601f01601f1916919091016040019291505056fea26469706673582212207ebe652fb00833ac6769f871a3689ec5205d26770a4e7792ae35b577cf9c276b64736f6c63430008090033",
  "devdoc": {
    "kind": "dev",
    "methods": {
      "getPoolUnbonded(address,uint256)": {
        "returns": {
          "unbonded": "is token amount that is unbonded.",
          "unbondedInUSD": "is USD value of token amount that is unbonded.",
          "waitForTs": "is timestamp to wait to the next claim.",
          "waiting": "is token amount that is not unbonded.",
          "waitingInUSD": "is USD value of token amount that is not unbonded."
        }
      },
      "getUSDTPriceInUSD()": {
        "returns": {
          "_0": "the price of USDT in USD."
        }
      },
      "invest(address[],uint256[])": {
        "params": {
          "_USDTAmts": "amounts of USDT should be deposited to each pools. They have been denominated in USDT decimals"
        }
      },
      "owner()": {
        "details": "Returns the address of the current owner."
      },
      "paused()": {
        "details": "Returns true if the contract is paused, and false otherwise."
      },
      "reinvest(address[],uint256[])": {
        "params": {
          "_USDTAmts": "amounts of USDT should be deposited to each pools. They have been denominated in USDT decimals"
        }
      },
      "renounceOwnership()": {
        "details": "Leaves the contract without owner. It will not be possible to call `onlyOwner` functions anymore. Can only be called by the current owner. NOTE: Renouncing ownership will leave the contract without an owner, thereby removing any functionality that is only available to the owner."
      },
      "transferOwnership(address)": {
        "details": "Transfers ownership of the contract to a new account (`newOwner`). Can only be called by the current owner."
      }
    },
    "version": 1
  },
  "userdoc": {
    "kind": "user",
    "methods": {},
    "version": 1
  },
  "storageLayout": {
    "storage": [
      {
        "astId": 713,
        "contract": "contracts/sti/strategy/AuroraSTIStrategyTest.sol:AuroraSTIStrategyTest",
        "label": "_initialized",
        "offset": 0,
        "slot": "0",
        "type": "t_uint8"
      },
      {
        "astId": 716,
        "contract": "contracts/sti/strategy/AuroraSTIStrategyTest.sol:AuroraSTIStrategyTest",
        "label": "_initializing",
        "offset": 1,
        "slot": "0",
        "type": "t_bool"
      },
      {
        "astId": 3292,
        "contract": "contracts/sti/strategy/AuroraSTIStrategyTest.sol:AuroraSTIStrategyTest",
        "label": "__gap",
        "offset": 0,
        "slot": "1",
        "type": "t_array(t_uint256)50_storage"
      },
      {
        "astId": 869,
        "contract": "contracts/sti/strategy/AuroraSTIStrategyTest.sol:AuroraSTIStrategyTest",
        "label": "_paused",
        "offset": 0,
        "slot": "51",
        "type": "t_bool"
      },
      {
        "astId": 958,
        "contract": "contracts/sti/strategy/AuroraSTIStrategyTest.sol:AuroraSTIStrategyTest",
        "label": "__gap",
        "offset": 0,
        "slot": "52",
        "type": "t_array(t_uint256)49_storage"
      },
      {
        "astId": 593,
        "contract": "contracts/sti/strategy/AuroraSTIStrategyTest.sol:AuroraSTIStrategyTest",
        "label": "_owner",
        "offset": 0,
        "slot": "101",
        "type": "t_address"
      },
      {
        "astId": 705,
        "contract": "contracts/sti/strategy/AuroraSTIStrategyTest.sol:AuroraSTIStrategyTest",
        "label": "__gap",
        "offset": 0,
        "slot": "102",
        "type": "t_array(t_uint256)49_storage"
      },
      {
        "astId": 51839,
        "contract": "contracts/sti/strategy/AuroraSTIStrategyTest.sol:AuroraSTIStrategyTest",
        "label": "router",
        "offset": 0,
        "slot": "151",
        "type": "t_contract(IUniRouter)66445"
      },
      {
        "astId": 51842,
        "contract": "contracts/sti/strategy/AuroraSTIStrategyTest.sol:AuroraSTIStrategyTest",
        "label": "SWAP_BASE_TOKEN",
        "offset": 0,
        "slot": "152",
        "type": "t_contract(IERC20UpgradeableExt)65868"
      },
      {
        "astId": 51845,
        "contract": "contracts/sti/strategy/AuroraSTIStrategyTest.sol:AuroraSTIStrategyTest",
        "label": "USDT",
        "offset": 0,
        "slot": "153",
        "type": "t_contract(IERC20UpgradeableExt)65868"
      },
      {
        "astId": 51847,
        "contract": "contracts/sti/strategy/AuroraSTIStrategyTest.sol:AuroraSTIStrategyTest",
        "label": "usdtDecimals",
        "offset": 20,
        "slot": "153",
        "type": "t_uint8"
      },
      {
        "astId": 51849,
        "contract": "contracts/sti/strategy/AuroraSTIStrategyTest.sol:AuroraSTIStrategyTest",
        "label": "admin",
        "offset": 0,
        "slot": "154",
        "type": "t_address"
      },
      {
        "astId": 51851,
        "contract": "contracts/sti/strategy/AuroraSTIStrategyTest.sol:AuroraSTIStrategyTest",
        "label": "vault",
        "offset": 0,
        "slot": "155",
        "type": "t_address"
      },
      {
        "astId": 51854,
        "contract": "contracts/sti/strategy/AuroraSTIStrategyTest.sol:AuroraSTIStrategyTest",
        "label": "priceOracle",
        "offset": 0,
        "slot": "156",
        "type": "t_contract(IPriceOracle)11910"
      },
      {
        "astId": 51857,
        "contract": "contracts/sti/strategy/AuroraSTIStrategyTest.sol:AuroraSTIStrategyTest",
        "label": "tokens",
        "offset": 0,
        "slot": "157",
        "type": "t_array(t_address)dyn_storage"
      },
      {
        "astId": 51861,
        "contract": "contracts/sti/strategy/AuroraSTIStrategyTest.sol:AuroraSTIStrategyTest",
        "label": "pid",
        "offset": 0,
        "slot": "158",
        "type": "t_mapping(t_address,t_uint256)"
      },
      {
        "astId": 51868,
        "contract": "contracts/sti/strategy/AuroraSTIStrategyTest.sol:AuroraSTIStrategyTest",
        "label": "claimer2ReqIds",
        "offset": 0,
        "slot": "159",
        "type": "t_mapping(t_address,t_mapping(t_address,t_array(t_uint256)dyn_storage))"
      },
      {
        "astId": 51874,
        "contract": "contracts/sti/strategy/AuroraSTIStrategyTest.sol:AuroraSTIStrategyTest",
        "label": "reqId2Index",
        "offset": 0,
        "slot": "160",
        "type": "t_mapping(t_address,t_mapping(t_uint256,t_uint256))"
      },
      {
        "astId": 54424,
        "contract": "contracts/sti/strategy/AuroraSTIStrategyTest.sol:AuroraSTIStrategyTest",
        "label": "__gap",
        "offset": 0,
        "slot": "161",
        "type": "t_array(t_uint256)39_storage"
      },
      {
        "astId": 48761,
        "contract": "contracts/sti/strategy/AuroraSTIStrategyTest.sol:AuroraSTIStrategyTest",
        "label": "WNEARVault",
        "offset": 0,
        "slot": "200",
        "type": "t_contract(IStVault)66209"
      }
    ],
    "types": {
      "t_address": {
        "encoding": "inplace",
        "label": "address",
        "numberOfBytes": "20"
      },
      "t_array(t_address)dyn_storage": {
        "base": "t_address",
        "encoding": "dynamic_array",
        "label": "address[]",
        "numberOfBytes": "32"
      },
      "t_array(t_uint256)39_storage": {
        "base": "t_uint256",
        "encoding": "inplace",
        "label": "uint256[39]",
        "numberOfBytes": "1248"
      },
      "t_array(t_uint256)49_storage": {
        "base": "t_uint256",
        "encoding": "inplace",
        "label": "uint256[49]",
        "numberOfBytes": "1568"
      },
      "t_array(t_uint256)50_storage": {
        "base": "t_uint256",
        "encoding": "inplace",
        "label": "uint256[50]",
        "numberOfBytes": "1600"
      },
      "t_array(t_uint256)dyn_storage": {
        "base": "t_uint256",
        "encoding": "dynamic_array",
        "label": "uint256[]",
        "numberOfBytes": "32"
      },
      "t_bool": {
        "encoding": "inplace",
        "label": "bool",
        "numberOfBytes": "1"
      },
      "t_contract(IERC20UpgradeableExt)65868": {
        "encoding": "inplace",
        "label": "contract IERC20UpgradeableExt",
        "numberOfBytes": "20"
      },
      "t_contract(IPriceOracle)11910": {
        "encoding": "inplace",
        "label": "contract IPriceOracle",
        "numberOfBytes": "20"
      },
      "t_contract(IStVault)66209": {
        "encoding": "inplace",
        "label": "contract IStVault",
        "numberOfBytes": "20"
      },
      "t_contract(IUniRouter)66445": {
        "encoding": "inplace",
        "label": "contract IUniRouter",
        "numberOfBytes": "20"
      },
      "t_mapping(t_address,t_array(t_uint256)dyn_storage)": {
        "encoding": "mapping",
        "key": "t_address",
        "label": "mapping(address => uint256[])",
        "numberOfBytes": "32",
        "value": "t_array(t_uint256)dyn_storage"
      },
      "t_mapping(t_address,t_mapping(t_address,t_array(t_uint256)dyn_storage))": {
        "encoding": "mapping",
        "key": "t_address",
        "label": "mapping(address => mapping(address => uint256[]))",
        "numberOfBytes": "32",
        "value": "t_mapping(t_address,t_array(t_uint256)dyn_storage)"
      },
      "t_mapping(t_address,t_mapping(t_uint256,t_uint256))": {
        "encoding": "mapping",
        "key": "t_address",
        "label": "mapping(address => mapping(uint256 => uint256))",
        "numberOfBytes": "32",
        "value": "t_mapping(t_uint256,t_uint256)"
      },
      "t_mapping(t_address,t_uint256)": {
        "encoding": "mapping",
        "key": "t_address",
        "label": "mapping(address => uint256)",
        "numberOfBytes": "32",
        "value": "t_uint256"
      },
      "t_mapping(t_uint256,t_uint256)": {
        "encoding": "mapping",
        "key": "t_uint256",
        "label": "mapping(uint256 => uint256)",
        "numberOfBytes": "32",
        "value": "t_uint256"
      },
      "t_uint256": {
        "encoding": "inplace",
        "label": "uint256",
        "numberOfBytes": "32"
      },
      "t_uint8": {
        "encoding": "inplace",
        "label": "uint8",
        "numberOfBytes": "1"
      }
    }
  }
}