{
  "address": "0xaD626872739ba9A4E501D14D339EbC996C552572",
  "abi": [
    {
      "anonymous": false,
      "inputs": [
        {
          "indexed": false,
          "internalType": "uint8",
          "name": "version",
          "type": "uint8"
        }
      ],
      "name": "Initialized",
      "type": "event"
    },
    {
      "anonymous": false,
      "inputs": [
        {
          "indexed": true,
          "internalType": "address",
          "name": "previousOwner",
          "type": "address"
        },
        {
          "indexed": true,
          "internalType": "address",
          "name": "newOwner",
          "type": "address"
        }
      ],
      "name": "OwnershipTransferred",
      "type": "event"
    },
    {
      "anonymous": false,
      "inputs": [
        {
          "indexed": false,
          "internalType": "address",
          "name": "account",
          "type": "address"
        }
      ],
      "name": "Paused",
      "type": "event"
    },
    {
      "anonymous": false,
      "inputs": [
        {
          "indexed": true,
          "internalType": "bytes32",
          "name": "role",
          "type": "bytes32"
        },
        {
          "indexed": true,
          "internalType": "bytes32",
          "name": "previousAdminRole",
          "type": "bytes32"
        },
        {
          "indexed": true,
          "internalType": "bytes32",
          "name": "newAdminRole",
          "type": "bytes32"
        }
      ],
      "name": "RoleAdminChanged",
      "type": "event"
    },
    {
      "anonymous": false,
      "inputs": [
        {
          "indexed": true,
          "internalType": "bytes32",
          "name": "role",
          "type": "bytes32"
        },
        {
          "indexed": true,
          "internalType": "address",
          "name": "account",
          "type": "address"
        },
        {
          "indexed": true,
          "internalType": "address",
          "name": "sender",
          "type": "address"
        }
      ],
      "name": "RoleGranted",
      "type": "event"
    },
    {
      "anonymous": false,
      "inputs": [
        {
          "indexed": true,
          "internalType": "bytes32",
          "name": "role",
          "type": "bytes32"
        },
        {
          "indexed": true,
          "internalType": "address",
          "name": "account",
          "type": "address"
        },
        {
          "indexed": true,
          "internalType": "address",
          "name": "sender",
          "type": "address"
        }
      ],
      "name": "RoleRevoked",
      "type": "event"
    },
    {
      "anonymous": false,
      "inputs": [
        {
          "indexed": true,
          "internalType": "address",
          "name": "from",
          "type": "address"
        },
        {
          "indexed": false,
          "internalType": "address",
          "name": "token",
          "type": "address"
        },
        {
          "indexed": true,
          "internalType": "uint256",
          "name": "amount",
          "type": "uint256"
        },
        {
          "indexed": false,
          "internalType": "uint256",
          "name": "fromChainId",
          "type": "uint256"
        },
        {
          "indexed": true,
          "internalType": "uint256",
          "name": "toChainId",
          "type": "uint256"
        },
        {
          "indexed": false,
          "internalType": "address",
          "name": "to",
          "type": "address"
        },
        {
          "indexed": false,
          "internalType": "enum BasicUserAgentBase.AdapterType",
          "name": "adapterType",
          "type": "uint8"
        },
        {
          "indexed": false,
          "internalType": "uint256",
          "name": "nonce",
          "type": "uint256"
        }
      ],
      "name": "Transfer",
      "type": "event"
    },
    {
      "anonymous": false,
      "inputs": [
        {
          "indexed": false,
          "internalType": "address",
          "name": "account",
          "type": "address"
        }
      ],
      "name": "Unpaused",
      "type": "event"
    },
    {
      "inputs": [],
      "name": "ADAPTER_ROLE",
      "outputs": [
        {
          "internalType": "bytes32",
          "name": "",
          "type": "bytes32"
        }
      ],
      "stateMutability": "view",
      "type": "function"
    },
    {
      "inputs": [],
      "name": "DEFAULT_ADMIN_ROLE",
      "outputs": [
        {
          "internalType": "bytes32",
          "name": "",
          "type": "bytes32"
        }
      ],
      "stateMutability": "view",
      "type": "function"
    },
    {
      "inputs": [],
      "name": "USDC",
      "outputs": [
        {
          "internalType": "contract IERC20Upgradeable",
          "name": "",
          "type": "address"
        }
      ],
      "stateMutability": "view",
      "type": "function"
    },
    {
      "inputs": [],
      "name": "USDT",
      "outputs": [
        {
          "internalType": "contract IERC20Upgradeable",
          "name": "",
          "type": "address"
        }
      ],
      "stateMutability": "view",
      "type": "function"
    },
    {
      "inputs": [],
      "name": "admin",
      "outputs": [
        {
          "internalType": "address",
          "name": "",
          "type": "address"
        }
      ],
      "stateMutability": "view",
      "type": "function"
    },
    {
      "inputs": [],
      "name": "bniMinter",
      "outputs": [
        {
          "internalType": "contract IBNIMinter",
          "name": "",
          "type": "address"
        }
      ],
      "stateMutability": "view",
      "type": "function"
    },
    {
      "inputs": [],
      "name": "bniVault",
      "outputs": [
        {
          "internalType": "contract IBNIVault",
          "name": "",
          "type": "address"
        }
      ],
      "stateMutability": "view",
      "type": "function"
    },
    {
      "inputs": [
        {
          "internalType": "uint256",
          "name": "_pool",
          "type": "uint256"
        },
        {
          "internalType": "uint256",
          "name": "_share",
          "type": "uint256"
        },
        {
          "internalType": "bytes",
          "name": "_signature",
          "type": "bytes"
        }
      ],
      "name": "burn",
      "outputs": [
        {
          "internalType": "uint256",
          "name": "_feeAmt",
          "type": "uint256"
        }
      ],
      "stateMutability": "payable",
      "type": "function"
    },
    {
      "inputs": [
        {
          "internalType": "address",
          "name": "_account",
          "type": "address"
        },
        {
          "internalType": "uint256",
          "name": "_pool",
          "type": "uint256"
        },
        {
          "internalType": "uint256",
          "name": "_share",
          "type": "uint256"
        }
      ],
      "name": "burnByAdmin",
      "outputs": [],
      "stateMutability": "nonpayable",
      "type": "function"
    },
    {
      "inputs": [
        {
          "internalType": "uint256",
          "name": "",
          "type": "uint256"
        }
      ],
      "name": "callAdapterTypes",
      "outputs": [
        {
          "internalType": "enum BasicUserAgentBase.AdapterType",
          "name": "",
          "type": "uint8"
        }
      ],
      "stateMutability": "view",
      "type": "function"
    },
    {
      "inputs": [],
      "name": "cbridgeAdapter",
      "outputs": [
        {
          "internalType": "contract IXChainAdapter",
          "name": "",
          "type": "address"
        }
      ],
      "stateMutability": "view",
      "type": "function"
    },
    {
      "inputs": [
        {
          "internalType": "uint256",
          "name": "",
          "type": "uint256"
        }
      ],
      "name": "cbridgeSenders",
      "outputs": [
        {
          "internalType": "address",
          "name": "",
          "type": "address"
        }
      ],
      "stateMutability": "view",
      "type": "function"
    },
    {
      "inputs": [],
      "name": "chainIdOnLP",
      "outputs": [
        {
          "internalType": "uint256",
          "name": "",
          "type": "uint256"
        }
      ],
      "stateMutability": "view",
      "type": "function"
    },
    {
      "inputs": [
        {
          "internalType": "uint256[]",
          "name": "_toChainIds",
          "type": "uint256[]"
        },
        {
          "internalType": "address[]",
          "name": "_tokens",
          "type": "address[]"
        },
        {
          "internalType": "uint256[]",
          "name": "_USDT6Amts",
          "type": "uint256[]"
        },
        {
          "internalType": "uint256",
          "name": "_minterNonce",
          "type": "uint256"
        },
        {
          "internalType": "bytes",
          "name": "_signature",
          "type": "bytes"
        }
      ],
      "name": "deposit",
      "outputs": [
        {
          "internalType": "uint256",
          "name": "_feeAmt",
          "type": "uint256"
        }
      ],
      "stateMutability": "payable",
      "type": "function"
    },
    {
      "inputs": [
        {
          "internalType": "address",
          "name": "_account",
          "type": "address"
        },
        {
          "internalType": "address[]",
          "name": "_tokens",
          "type": "address[]"
        },
        {
          "internalType": "uint256[]",
          "name": "_USDT6Amts",
          "type": "uint256[]"
        },
        {
          "internalType": "uint256",
          "name": "_minterNonce",
          "type": "uint256"
        }
      ],
      "name": "depositByAgent",
      "outputs": [],
      "stateMutability": "nonpayable",
      "type": "function"
    },
    {
      "inputs": [
        {
          "internalType": "uint256",
          "name": "_gatheredAmount",
          "type": "uint256"
        },
        {
          "internalType": "bytes",
          "name": "_signature",
          "type": "bytes"
        }
      ],
      "name": "exitWithdrawal",
      "outputs": [
        {
          "internalType": "uint256",
          "name": "_feeAmt",
          "type": "uint256"
        }
      ],
      "stateMutability": "payable",
      "type": "function"
    },
    {
      "inputs": [
        {
          "internalType": "address",
          "name": "_account",
          "type": "address"
        }
      ],
      "name": "exitWithdrawalByAdmin",
      "outputs": [],
      "stateMutability": "nonpayable",
      "type": "function"
    },
    {
      "inputs": [
        {
          "internalType": "uint256[]",
          "name": "_fromChainIds",
          "type": "uint256[]"
        },
        {
          "internalType": "enum BasicUserAgentBase.AdapterType[]",
          "name": "_adapterTypes",
          "type": "uint8[]"
        },
        {
          "internalType": "bytes",
          "name": "_signature",
          "type": "bytes"
        }
      ],
      "name": "gather",
      "outputs": [
        {
          "internalType": "uint256",
          "name": "_feeAmt",
          "type": "uint256"
        }
      ],
      "stateMutability": "payable",
      "type": "function"
    },
    {
      "inputs": [
        {
          "internalType": "address",
          "name": "_account",
          "type": "address"
        },
        {
          "internalType": "uint256",
          "name": "_toChainId",
          "type": "uint256"
        },
        {
          "internalType": "enum BasicUserAgentBase.AdapterType",
          "name": "_adapterType",
          "type": "uint8"
        }
      ],
      "name": "gatherByAdmin",
      "outputs": [],
      "stateMutability": "nonpayable",
      "type": "function"
    },
    {
      "inputs": [
        {
          "internalType": "bytes",
          "name": "message",
          "type": "bytes"
        }
      ],
      "name": "getMessageHashForSafe",
      "outputs": [
        {
          "internalType": "bytes32",
          "name": "",
          "type": "bytes32"
        }
      ],
      "stateMutability": "view",
      "type": "function"
    },
    {
      "inputs": [
        {
          "internalType": "bytes32",
          "name": "role",
          "type": "bytes32"
        }
      ],
      "name": "getRoleAdmin",
      "outputs": [
        {
          "internalType": "bytes32",
          "name": "",
          "type": "bytes32"
        }
      ],
      "stateMutability": "view",
      "type": "function"
    },
    {
      "inputs": [
        {
          "internalType": "bytes32",
          "name": "role",
          "type": "bytes32"
        },
        {
          "internalType": "uint256",
          "name": "index",
          "type": "uint256"
        }
      ],
      "name": "getRoleMember",
      "outputs": [
        {
          "internalType": "address",
          "name": "",
          "type": "address"
        }
      ],
      "stateMutability": "view",
      "type": "function"
    },
    {
      "inputs": [
        {
          "internalType": "bytes32",
          "name": "role",
          "type": "bytes32"
        }
      ],
      "name": "getRoleMemberCount",
      "outputs": [
        {
          "internalType": "uint256",
          "name": "",
          "type": "uint256"
        }
      ],
      "stateMutability": "view",
      "type": "function"
    },
    {
      "inputs": [
        {
          "internalType": "bytes32",
          "name": "role",
          "type": "bytes32"
        },
        {
          "internalType": "address",
          "name": "account",
          "type": "address"
        }
      ],
      "name": "grantRole",
      "outputs": [],
      "stateMutability": "nonpayable",
      "type": "function"
    },
    {
      "inputs": [
        {
          "internalType": "bytes32",
          "name": "role",
          "type": "bytes32"
        },
        {
          "internalType": "address",
          "name": "account",
          "type": "address"
        }
      ],
      "name": "hasRole",
      "outputs": [
        {
          "internalType": "bool",
          "name": "",
          "type": "bool"
        }
      ],
      "stateMutability": "view",
      "type": "function"
    },
    {
      "inputs": [],
      "name": "isLPChain",
      "outputs": [
        {
          "internalType": "bool",
          "name": "",
          "type": "bool"
        }
      ],
      "stateMutability": "view",
      "type": "function"
    },
    {
      "inputs": [
        {
          "internalType": "address",
          "name": "forwarder",
          "type": "address"
        }
      ],
      "name": "isTrustedForwarder",
      "outputs": [
        {
          "internalType": "bool",
          "name": "",
          "type": "bool"
        }
      ],
      "stateMutability": "view",
      "type": "function"
    },
    {
      "inputs": [
        {
          "internalType": "address",
          "name": "_account",
          "type": "address"
        },
        {
          "internalType": "bytes",
          "name": "_data",
          "type": "bytes"
        },
        {
          "internalType": "bytes",
          "name": "_signature",
          "type": "bytes"
        }
      ],
      "name": "isValidSignature",
      "outputs": [
        {
          "internalType": "bool",
          "name": "",
          "type": "bool"
        }
      ],
      "stateMutability": "view",
      "type": "function"
    },
    {
      "inputs": [
        {
          "internalType": "uint256",
          "name": "_USDT6Amt",
          "type": "uint256"
        },
        {
          "internalType": "bytes",
          "name": "_signature",
          "type": "bytes"
        }
      ],
      "name": "mint",
      "outputs": [
        {
          "internalType": "uint256",
          "name": "_feeAmt",
          "type": "uint256"
        }
      ],
      "stateMutability": "payable",
      "type": "function"
    },
    {
      "inputs": [
        {
          "internalType": "address",
          "name": "_account",
          "type": "address"
        },
        {
          "internalType": "uint256",
          "name": "_USDT6Amt",
          "type": "uint256"
        }
      ],
      "name": "mintByAdmin",
      "outputs": [],
      "stateMutability": "nonpayable",
      "type": "function"
    },
    {
      "inputs": [],
      "name": "multichainAdapter",
      "outputs": [
        {
          "internalType": "contract IXChainAdapter",
          "name": "",
          "type": "address"
        }
      ],
      "stateMutability": "view",
      "type": "function"
    },
    {
      "inputs": [
        {
          "internalType": "address",
          "name": "",
          "type": "address"
        }
      ],
      "name": "nonces",
      "outputs": [
        {
          "internalType": "uint256",
          "name": "",
          "type": "uint256"
        }
      ],
      "stateMutability": "view",
      "type": "function"
    },
    {
      "inputs": [],
      "name": "owner",
      "outputs": [
        {
          "internalType": "address",
          "name": "",
          "type": "address"
        }
      ],
      "stateMutability": "view",
      "type": "function"
    },
    {
      "inputs": [],
      "name": "paused",
      "outputs": [
        {
          "internalType": "bool",
          "name": "",
          "type": "bool"
        }
      ],
      "stateMutability": "view",
      "type": "function"
    },
    {
      "inputs": [],
      "name": "renounceOwnership",
      "outputs": [],
      "stateMutability": "nonpayable",
      "type": "function"
    },
    {
      "inputs": [
        {
          "internalType": "bytes32",
          "name": "role",
          "type": "bytes32"
        },
        {
          "internalType": "address",
          "name": "account",
          "type": "address"
        }
      ],
      "name": "renounceRole",
      "outputs": [],
      "stateMutability": "nonpayable",
      "type": "function"
    },
    {
      "inputs": [
        {
          "internalType": "bytes32",
          "name": "role",
          "type": "bytes32"
        },
        {
          "internalType": "address",
          "name": "account",
          "type": "address"
        }
      ],
      "name": "revokeRole",
      "outputs": [],
      "stateMutability": "nonpayable",
      "type": "function"
    },
    {
      "inputs": [],
      "name": "subImpl",
      "outputs": [
        {
          "internalType": "address",
          "name": "",
          "type": "address"
        }
      ],
      "stateMutability": "view",
      "type": "function"
    },
    {
      "inputs": [
        {
          "internalType": "bytes4",
          "name": "interfaceId",
          "type": "bytes4"
        }
      ],
      "name": "supportsInterface",
      "outputs": [
        {
          "internalType": "bool",
          "name": "",
          "type": "bool"
        }
      ],
      "stateMutability": "view",
      "type": "function"
    },
    {
      "inputs": [
        {
          "internalType": "uint256",
          "name": "_gatheredAmount",
          "type": "uint256"
        },
        {
          "internalType": "bytes",
          "name": "_signature",
          "type": "bytes"
        }
      ],
      "name": "takeOut",
      "outputs": [],
      "stateMutability": "nonpayable",
      "type": "function"
    },
    {
      "inputs": [
        {
          "internalType": "address",
          "name": "newOwner",
          "type": "address"
        }
      ],
      "name": "transferOwnership",
      "outputs": [],
      "stateMutability": "nonpayable",
      "type": "function"
    },
    {
      "inputs": [],
      "name": "trustedForwarder",
      "outputs": [
        {
          "internalType": "address",
          "name": "",
          "type": "address"
        }
      ],
      "stateMutability": "view",
      "type": "function"
    },
    {
      "inputs": [
        {
          "internalType": "address",
          "name": "",
          "type": "address"
        }
      ],
      "name": "usdcBalances",
      "outputs": [
        {
          "internalType": "uint256",
          "name": "",
          "type": "uint256"
        }
      ],
      "stateMutability": "view",
      "type": "function"
    },
    {
      "inputs": [
        {
          "internalType": "address",
          "name": "",
          "type": "address"
        }
      ],
      "name": "usdtBalances",
      "outputs": [
        {
          "internalType": "uint256",
          "name": "",
          "type": "uint256"
        }
      ],
      "stateMutability": "view",
      "type": "function"
    },
    {
      "inputs": [
        {
          "internalType": "uint256",
          "name": "",
          "type": "uint256"
        }
      ],
      "name": "userAgents",
      "outputs": [
        {
          "internalType": "address",
          "name": "",
          "type": "address"
        }
      ],
      "stateMutability": "view",
      "type": "function"
    },
    {
      "inputs": [],
      "name": "versionRecipient",
      "outputs": [
        {
          "internalType": "string",
          "name": "",
          "type": "string"
        }
      ],
      "stateMutability": "pure",
      "type": "function"
    },
    {
      "inputs": [
        {
          "internalType": "uint256[]",
          "name": "_chainIds",
          "type": "uint256[]"
        },
        {
          "internalType": "uint256",
          "name": "_sharePerc",
          "type": "uint256"
        },
        {
          "internalType": "uint256",
          "name": "_minterNonce",
          "type": "uint256"
        },
        {
          "internalType": "bytes",
          "name": "_signature",
          "type": "bytes"
        }
      ],
      "name": "withdraw",
      "outputs": [
        {
          "internalType": "uint256",
          "name": "_feeAmt",
          "type": "uint256"
        }
      ],
      "stateMutability": "payable",
      "type": "function"
    },
    {
      "inputs": [
        {
          "internalType": "address",
          "name": "_account",
          "type": "address"
        },
        {
          "internalType": "uint256",
          "name": "_sharePerc",
          "type": "uint256"
        },
        {
          "internalType": "uint256",
          "name": "_minterNonce",
          "type": "uint256"
        }
      ],
      "name": "withdrawPercByAgent",
      "outputs": [],
      "stateMutability": "nonpayable",
      "type": "function"
    },
    {
      "stateMutability": "payable",
      "type": "receive"
    }
  ],
  "transactionHash": "0xa3c906006f95e8ab04181b71e59bfe1c5adf8d55a58d97e0777bf9a4dd065f84",
  "args": [],
  "numDeployments": 2,
  "solcInputHash": "7a1a941f0f1d0f442718fd37bdbeb092",
  "bytecode": "0x608060405234801561001057600080fd5b50614706806100206000396000f3fe6080604052600436106102975760003560e01c806380a5a3711161015a578063c7205bce116100c1578063e9e81a6a1161007a578063e9e81a6a14610846578063f2ea161814610866578063f2fde38b1461089d578063f77de486146108bd578063f7bb364c146108dd578063f851a440146108f857600080fd5b8063c7205bce1461078d578063ca15c873146107ad578063d547741f146107cd578063d843a400146107ed578063db7fd40814610813578063e629f7b31461082657600080fd5b8063918f1a5c11610113578063918f1a5c146106d657806391d14854146106e9578063a217fddf14610709578063a99c68c51461071e578063af3da2f41461074c578063c54e44eb1461076c57600080fd5b806380a5a3711461063d578063847627391461065057806386355d961461066357806389a30271146106765780638da5cb5b146106975780639010d07c146106b657600080fd5b8063572b6c05116101fe5780636687977f116101b75780636687977f146105705780636e5677ce146105835780636ebf33ce146105a3578063715018a6146105da5780637da0a877146105ef5780637ecebe001461060f57600080fd5b8063572b6c051461049957806357cdd7f9146104c8578063582489cb146104e9578063582712b1146105175780635c975abb1461053757806363032feb1461054f57600080fd5b8063248a9ca311610250578063248a9ca31461039957806328054fb7146103c95780632f2ff15d146103eb57806336568abe1461040b57806339dacedb1461042b578063486ff0cd1461046957600080fd5b8063013dee70146102a357806301ffc9a7146102e157806302a882e6146103115780630c3a18211461034157806319463093146103625780631a5787d81461038257600080fd5b3661029e57005b600080fd5b3480156102af57600080fd5b50610195546102c4906001600160a01b031681565b6040516001600160a01b0390911681526020015b60405180910390f35b3480156102ed57600080fd5b506103016102fc3660046138a1565b610919565b60405190151581526020016102d8565b34801561031d57600080fd5b506103336000805160206146b183398151915281565b6040519081526020016102d8565b34801561034d57600080fd5b50610166546102c4906001600160a01b031681565b34801561036e57600080fd5b5061033361037d366004613980565b610944565b34801561038e57600080fd5b506103336101925481565b3480156103a557600080fd5b506103336103b43660046139b4565b60009081526097602052604090206001015490565b3480156103d557600080fd5b506103e96103e43660046139f6565b610990565b005b3480156103f757600080fd5b506103e9610406366004613a34565b610d3f565b34801561041757600080fd5b506103e9610426366004613a34565b610d69565b34801561043757600080fd5b5061045c6104463660046139b4565b61016a6020526000908152604090205460ff1681565b6040516102d89190613a9c565b34801561047557600080fd5b5060408051808201825260018152603160f81b602082015290516102d89190613b02565b3480156104a557600080fd5b506103016104b4366004613b15565b6000546001600160a01b0391821691161490565b3480156104d457600080fd5b50610167546102c4906001600160a01b031681565b3480156104f557600080fd5b50610333610504366004613b15565b6101656020526000908152604090205481565b34801561052357600080fd5b506103e9610532366004613c19565b610df7565b34801561054357600080fd5b5060fb5460ff16610301565b34801561055b57600080fd5b50610194546102c4906001600160a01b031681565b61033361057e366004613cde565b610e7f565b34801561058f57600080fd5b506103e961059e366004613d5b565b610f67565b3480156105af57600080fd5b506102c46105be3660046139b4565b610169602052600090815260409020546001600160a01b031681565b3480156105e657600080fd5b506103e9611049565b3480156105fb57600080fd5b506000546102c4906001600160a01b031681565b34801561061b57600080fd5b5061033361062a366004613b15565b6101606020526000908152604090205481565b61033361064b366004613da6565b6110cf565b61033361065e366004613d5b565b61126b565b610333610671366004613df8565b611417565b34801561068257600080fd5b50610162546102c4906001600160a01b031681565b3480156106a357600080fd5b5061012d546001600160a01b03166102c4565b3480156106c257600080fd5b506102c46106d1366004613eb4565b61153d565b6103336106e4366004613ed6565b61155c565b3480156106f557600080fd5b50610301610704366004613a34565b6115b1565b34801561071557600080fd5b50610333600081565b34801561072a57600080fd5b50610333610739366004613b15565b6101646020526000908152604090205481565b34801561075857600080fd5b506103e9610767366004613faf565b6115dc565b34801561077857600080fd5b50610163546102c4906001600160a01b031681565b34801561079957600080fd5b506103016107a8366004613fdb565b611666565b3480156107b957600080fd5b506103336107c83660046139b4565b6117e5565b3480156107d957600080fd5b506103e96107e8366004613a34565b6117fc565b3480156107f957600080fd5b50610193546102c49061010090046001600160a01b031681565b610333610821366004613d5b565b611821565b34801561083257600080fd5b506103e961084136600461403a565b6119d1565b34801561085257600080fd5b506103e961086136600461403a565b611a5a565b34801561087257600080fd5b506102c46108813660046139b4565b610168602052600090815260409020546001600160a01b031681565b3480156108a957600080fd5b506103e96108b8366004613b15565b611a91565b3480156108c957600080fd5b506103e96108d8366004613b15565b611b7c565b3480156108e957600080fd5b50610193546103019060ff1681565b34801561090457600080fd5b5061015f546102c4906001600160a01b031681565b60006001600160e01b03198216635a05180f60e01b148061093e575061093e82611bfe565b92915050565b805160209182012060015460408051601960f81b81860152600160f81b602182015260228101929092526042808301939093528051808303909301835260629091019052805191012090565b6000805160206146b18339815191526109a881611c33565b6001600160a01b038416600090815261016560205260409020548015610d3857600084815261016960205260409020546001600160a01b031680610a285760405162461bcd60e51b8152602060048201526012602482015271125b9d985b1a59081d5cd95c881859d95b9d60721b60448201526064015b60405180910390fd5b604080516001808252818301909252600091602080830190803683370190505090508281600081518110610a5e57610a5e61406f565b60209081029190910101526040805160018082528183019092526000918160200160208202803683370190505090508681600081518110610aa157610aa161406f565b60209081029190910101526040805160018082528183019092526000918160200160208202803683370190505090508381600081518110610ae457610ae461406f565b6001600160a01b0392909216602092830291909101909101526040805160018082528183019092526000918160200160208202803683370190505090508781600081518110610b3557610b3561406f565b60200260200101906001811115610b4e57610b4e613a64565b90816001811115610b6157610b61613a64565b90525061016354600090610b86908c906001600160a01b031687878787600180611c44565b6101615461016354604051631d1c6b8360e11b81526001600160a01b03918216600482015260248101849052929350600092911690633a38d7069060440160206040518083038186803b158015610bdc57600080fd5b505afa158015610bf0573d6000803e3d6000fd5b505050506040513d601f19601f82011682018060405250810190610c149190614085565b905080881115610d30576101615461016354604051632f66c82160e21b81526000926001600160a01b039081169263bd9b208492610c5c92909116908690889060040161409e565b602060405180830381600087803b158015610c7657600080fd5b505af1158015610c8a573d6000803e3d6000fd5b505050506040513d601f19601f82011682018060405250810190610cae9190614085565b9050610cba818a6140d5565b87600081518110610ccd57610ccd61406f565b602002602001018181525050600061016560008f6001600160a01b03166001600160a01b0316815260200190815260200160002081905550610d2d8d61016360009054906101000a90046001600160a01b03168989898960016000611c44565b50505b505050505050505b5050505050565b600082815260976020526040902060010154610d5a81611c33565b610d648383611cb6565b505050565b610d71611cd8565b6001600160a01b0316816001600160a01b031614610de95760405162461bcd60e51b815260206004820152602f60248201527f416363657373436f6e74726f6c3a2063616e206f6e6c792072656e6f756e636560448201526e103937b632b9903337b91039b2b63360891b6064820152608401610a1f565b610df38282611ce7565b5050565b6000805160206146b1833981519152610e0f81611c33565b6101945460405163582712b160e01b81526001600160a01b039091169063582712b190610e46908890889088908890600401614160565b600060405180830381600087803b158015610e6057600080fd5b505af1158015610e74573d6000803e3d6000fd5b505050505050505050565b600080610e8a611cd8565b6001600160a01b038116600090815261016060209081526040918290205491519293509091610ee491610ec791859185918d918d918d91016141cd565b604051602081830303815290604052805190602001208686611d09565b60005b8851811015610f3357610f15838a8381518110610f0657610f0661406f565b60200260200101518a8a611d7d565b610f1f9085614206565b935080610f2b8161421e565b915050610ee7565b50610f3f816001614206565b6001600160a01b03909216600090815261016060205260409020919091555095945050505050565b6000610f71611cd8565b6001600160a01b038116600090815261016060209081526040918290205491519293509091610fc791610faa91859185918a9101614239565b604051602081830303815290604052805190602001208585611d09565b6001600160a01b03821660009081526101656020526040812054610feb9087614206565b6001600160a01b03808516600090815261016560205260408120556101635491925061101991168483611db0565b611024826001614206565b6001600160a01b03909316600090815261016060205260409020929092555050505050565b611051611cd8565b6001600160a01b031661106d61012d546001600160a01b031690565b6001600160a01b0316146110c35760405162461bcd60e51b815260206004820181905260248201527f4f776e61626c653a2063616c6c6572206973206e6f7420746865206f776e65726044820152606401610a1f565b6110cd6000611e02565b565b6000806110da611cd8565b6001600160a01b038116600090815261016060209081526040918290205491516bffffffffffffffffffffffff19606085901b16918101919091526034810182905260548101899052607481018890529192509061113a90609401610ec7565b6101935460ff16156111b6576101935460405163e629f7b360e01b81526101009091046001600160a01b03169063e629f7b39061117f9085908b908b9060040161409e565b600060405180830381600087803b15801561119957600080fd5b505af11580156111ad573d6000803e3d6000fd5b50505050611239565b600063e629f7b360e01b8389896040516024016111d59392919061409e565b60408051601f19818403018152918152602080830180516001600160e01b03166001600160e01b031990951694909417909352610192546000818152610169909452908320549193506112359290916001600160a01b0316908481611e55565b9350505b611244816001614206565b6001600160a01b039092166000908152610160602052604090209190915550949350505050565b600080611276611cd8565b6001600160a01b0381166000908152610160602090815260409182902054915192935090916112af91610ec791859185918b9101614239565b6101935460ff16156113265761019354604051637bbef24360e11b81526001600160a01b0384811660048301526101009092049091169063f77de48690602401600060405180830381600087803b15801561130957600080fd5b505af115801561131d573d6000803e3d6000fd5b50505050611392565b604080516001600160a01b038481166024808401919091528351808403909101815260449092018352602080830180516001600160e01b0316637bbef24360e11b17905261019254600081815261016990925293812054929361138e93909216908481611e55565b9350505b6001600160a01b038216600090815261016560205260408120546113b69088614206565b6001600160a01b0380851660009081526101656020526040812055610163549192506113e491168483611db0565b6113ef826001614206565b6001600160a01b03909316600090815261016060205260409020929092555090949350505050565b600061142560fb5460ff1690565b156114655760405162461bcd60e51b815260206004820152601060248201526f14185d5cd8589b194e881c185d5cd95960821b6044820152606401610a1f565b600061146f611cd8565b6001600160a01b0381166000908152610160602090815260409182902054915192935090916114ae91610ec791859185918e918e918e918e9101614263565b6000806000806114c18d8d8d6000611ffd565b93509350935093505b8315611504576114dd868585858e6121da565b6114e79088614206565b96506114f58d8d8d84611ffd565b929650909450925090506114ca565b61150f856001614206565b6001600160a01b039096166000908152610160602052604090209590955550939a9950505050505050505050565b600082815260c96020526040812061155590836123c7565b9392505050565b600080611567611cd8565b6001600160a01b0381166000908152610160602090815260409182902054915192935090916115a291610ec791859185918c918c91016142d6565b60009250611244816001614206565b60009182526097602090815260408084206001600160a01b0393909316845291905290205460ff1690565b6000805160206146b18339815191526115f481611c33565b61019354604051632bcf68bd60e21b81526001600160a01b038581166004830152602482018590526101009092049091169063af3da2f490604401600060405180830381600087803b15801561164957600080fd5b505af115801561165d573d6000803e3d6000fd5b50505050505050565b60008061167285610944565b90506001600160a01b0386163b156116ce576116c686828787878080601f0160208091040260200160405190810160405280939291908181526020018383808284376000920191909152506123d392505050565b9150506117dd565b600080600061171287878080601f0160208091040260200160405190810160405280939291908181526020018383808284376000920182905250925061246f915050565b6040517f19457468657265756d205369676e6564204d6573736167653a0a3332000000006020820152603c81018890529295509093509150600090605c0160408051601f198184030181528282528051602091820120600080855291840180845281905260ff88169284019290925260608301869052608083018590529092509060019060a0016020604051602081039080840390855afa1580156117bb573d6000803e3d6000fd5b5050604051601f1901516001600160a01b038d81169116149750505050505050505b949350505050565b600081815260c96020526040812061093e9061248d565b60008281526097602052604090206001015461181781611c33565b610d648383611ce7565b600061182f60fb5460ff1690565b1561186f5760405162461bcd60e51b815260206004820152601060248201526f14185d5cd8589b194e881c185d5cd95960821b6044820152606401610a1f565b6000611879611cd8565b6001600160a01b0381166000908152610160602090815260409182902054915192935090916118b291610ec791859185918b9101614239565b6101935460ff16156119305761019354604051632bcf68bd60e21b81526001600160a01b038481166004830152602482018990526101009092049091169063af3da2f490604401600060405180830381600087803b15801561191357600080fd5b505af1158015611927573d6000803e3d6000fd5b505050506119a0565b604080516001600160a01b03848116602483015260448083018a90528351808403909101815260649092018352602080830180516001600160e01b0316632bcf68bd60e21b17905261019254600081815261016990925293812054929361199c93909216908481611e55565b9350505b6119ab816001614206565b6001600160a01b0390921660009081526101606020526040902091909155509392505050565b6000805160206146b18339815191526119e981611c33565b6101935460405163e629f7b360e01b81526101009091046001600160a01b03169063e629f7b390611a229087908790879060040161409e565b600060405180830381600087803b158015611a3c57600080fd5b505af1158015611a50573d6000803e3d6000fd5b5050505050505050565b6000805160206146b1833981519152611a7281611c33565b61019454611a8b906001600160a01b0316858585612497565b50505050565b611a99611cd8565b6001600160a01b0316611ab561012d546001600160a01b031690565b6001600160a01b031614611b0b5760405162461bcd60e51b815260206004820181905260248201527f4f776e61626c653a2063616c6c6572206973206e6f7420746865206f776e65726044820152606401610a1f565b6001600160a01b038116611b705760405162461bcd60e51b815260206004820152602660248201527f4f776e61626c653a206e6577206f776e657220697320746865207a65726f206160448201526564647265737360d01b6064820152608401610a1f565b611b7981611e02565b50565b6000805160206146b1833981519152611b9481611c33565b61019354604051637bbef24360e11b81526001600160a01b0384811660048301526101009092049091169063f77de48690602401600060405180830381600087803b158015611be257600080fd5b505af1158015611bf6573d6000803e3d6000fd5b505050505050565b60006001600160e01b03198216637965db0b60e01b148061093e57506301ffc9a760e01b6001600160e01b031983161461093e565b611b7981611c3f611cd8565b612636565b6000806000806000806000611c5c8d8d8d8d8d61269a565b949a5092985090965094509250905087158015611c7a575060008651115b15611c8c57611c8c8f8f888888612b48565b825115611ca457611ca18f8f8585858d612c72565b96505b50505050505098975050505050505050565b611cc08282612f12565b600082815260c960205260409020610d649082612f99565b6000611ce2612fae565b905090565b611cf18282612fe2565b600082815260c960205260409020610d649082613067565b61015f546040805160208101869052611d3d926001600160a01b031691016040516020818303038152906040528484611666565b610d645760405162461bcd60e51b8152602060048201526011602482015270496e76616c6964207369676e617475726560781b6044820152606401610a1f565b600046841415611da55761019454611da0906001600160a01b0316868585612497565b6117dd565b506000949350505050565b604080516001600160a01b038416602482015260448082018490528251808303909101815260649091019091526020810180516001600160e01b031663a9059cbb60e01b179052610d6490849061307c565b61012d80546001600160a01b038381166001600160a01b0319831681179093556040519116919082907f8be0079c531659141344cd1fd0a4f28419497f9722a3daafe3b4186f6b6457e090600090a35050565b60006001600160a01b038516611ea65760405162461bcd60e51b8152602060048201526016602482015275125b9d985b1a59081d185c99d95d10dbdb9d1c9858dd60521b6044820152606401610a1f565b600080600088815261016a602052604090205460ff166001811115611ecd57611ecd613a64565b14611ee457610167546001600160a01b0316611ef2565b610166546001600160a01b03165b60405163bebc4f7160e01b81529091506001600160a01b0382169063bebc4f7190611f27908a908a908a908a90600401614337565b60206040518083038186803b158015611f3f57600080fd5b505afa158015611f53573d6000803e3d6000fd5b505050506040513d601f19601f82011682018060405250810190611f779190614085565b915082158015611f875750814710155b15611ff357604051630ef95ceb60e31b81526001600160a01b038216906377cae758908490611fc0908b908b908b908b90600401614337565b6000604051808303818588803b158015611fd957600080fd5b505af1158015611fed573d6000803e3d6000fd5b50505050505b5095945050505050565b83516000906060908190839081865b8281101561207f578661203a578a818151811061202b5761202b61406f565b6020026020010151965061205f565b8a818151811061204c5761204c61406f565b6020026020010151871461205f5761207f565b816120698161421e565b92505080806120779061421e565b91505061200c565b5061208a8188614206565b925080156121cd57806001600160401b038111156120aa576120aa6138cb565b6040519080825280602002602001820160405280156120d3578160200160208202803683370190505b509450806001600160401b038111156120ee576120ee6138cb565b604051908082528060200260200182016040528015612117578160200160208202803683370190505b50935060009050865b838110156121cb5789818151811061213a5761213a61406f565b60200260200101518683815181106121545761215461406f565b60200260200101906001600160a01b031690816001600160a01b0316815250508881815181106121865761218661406f565b60200260200101518583815181106121a0576121a061406f565b6020908102919091010152816121b58161421e565b92505080806121c39061421e565b915050612120565b505b5050945094509450949050565b6000468514156123ba576001600160a01b0386166000908152610165602052604081205490805b85518110156122435785818151811061221c5761221c61406f565b60200260200101518261222f9190614206565b91508061223b8161421e565b915050612201565b50610163546040805163313ce56760e01b815290516006926001600160a01b03169163313ce567916004808301926020929190829003018186803b15801561228a57600080fd5b505afa15801561229e573d6000803e3d6000fd5b505050506040513d601f19601f820116820180604052508101906122c29190614364565b6122cc9190614387565b6122d790600a61448e565b6122e1908261449d565b90508082101561232a5760405162461bcd60e51b8152602060048201526014602482015273496e73756666696369656e742062616c616e636560601b6044820152606401610a1f565b61233481836140d5565b6001600160a01b03808a1660009081526101656020526040908190209290925561019454915163582712b160e01b815291169063582712b190612381908b908a908a908a90600401614160565b600060405180830381600087803b15801561239b57600080fd5b505af11580156123af573d6000803e3d6000fd5b5050505050506123be565b5060005b95945050505050565b6000611555838361314e565b600080856001600160a01b031663e75235b86040518163ffffffff1660e01b815260040160206040518083038186803b15801561240f57600080fd5b505afa158015612423573d6000803e3d6000fd5b505050506040513d601f19601f820116820180604052508101906124479190614085565b9050806124585760009150506117dd565b6124658686868685613178565b9695505050505050565b60419081029190910160208101516040820151919092015160ff1692565b600061093e825490565b610163546040516370a0823160e01b81523060048201526000916001600160a01b0316906370a082319060240160206040518083038186803b1580156124dc57600080fd5b505afa1580156124f0573d6000803e3d6000fd5b505050506040513d601f19601f820116820180604052508101906125149190614085565b6040516374f40d3560e11b81529091506001600160a01b0386169063e9e81a6a906125479087908790879060040161409e565b600060405180830381600087803b15801561256157600080fd5b505af1158015612575573d6000803e3d6000fd5b5050610163546040516370a0823160e01b81523060048201528493506001600160a01b0390911691506370a082319060240160206040518083038186803b1580156125bf57600080fd5b505afa1580156125d3573d6000803e3d6000fd5b505050506040513d601f19601f820116820180604052508101906125f79190614085565b61260191906140d5565b6001600160a01b038516600090815261016560205260408120805490919061262a908490614206565b90915550505050505050565b61264082826115b1565b610df357612658816001600160a01b031660146133d2565b6126638360206133d2565b6040516020016126749291906144bc565b60408051601f198184030181529082905262461bcd60e51b8252610a1f91600401613b02565b60608060608060608060008060005b898110156127495760008b82815181106126c5576126c561406f565b602002602001015160018111156126de576126de613a64565b14156126f657826126ee8161421e565b935050612737565b60018b828151811061270a5761270a61406f565b6020026020010151600181111561272357612723613a64565b141561273757816127338161421e565b9250505b806127418161421e565b9150506126a9565b50816001600160401b03811115612762576127626138cb565b60405190808252806020026020018201604052801561278b578160200160208202803683370190505b509750816001600160401b038111156127a6576127a66138cb565b6040519080825280602002602001820160405280156127cf578160200160208202803683370190505b509650816001600160401b038111156127ea576127ea6138cb565b604051908082528060200260200182016040528015612813578160200160208202803683370190505b509550806001600160401b0381111561282e5761282e6138cb565b604051908082528060200260200182016040528015612857578160200160208202803683370190505b509450806001600160401b03811115612872576128726138cb565b60405190808252806020026020018201604052801561289b578160200160208202803683370190505b509350806001600160401b038111156128b6576128b66138cb565b6040519080825280602002602001820160405280156128df578160200160208202803683370190505b509250600091506000905060005b89811015612b385760008b82815181106129095761290961406f565b6020026020010151600181111561292257612922613a64565b14156129ee578d818151811061293a5761293a61406f565b60200260200101518984815181106129545761295461406f565b6020026020010181815250508c81815181106129725761297261406f565b602002602001015188848151811061298c5761298c61406f565b6020026020010181815250508b81815181106129aa576129aa61406f565b60200260200101518784815181106129c4576129c461406f565b6001600160a01b0390921660209283029190910190910152826129e68161421e565b935050612b26565b60018b8281518110612a0257612a0261406f565b60200260200101516001811115612a1b57612a1b613a64565b1415612ae7578d8181518110612a3357612a3361406f565b6020026020010151868381518110612a4d57612a4d61406f565b6020026020010181815250508c8181518110612a6b57612a6b61406f565b6020026020010151858381518110612a8557612a8561406f565b6020026020010181815250508b8181518110612aa357612aa361406f565b6020026020010151848381518110612abd57612abd61406f565b6001600160a01b039092166020928302919091019091015281612adf8161421e565b925050612b26565b60405162461bcd60e51b8152602060048201526014602482015273496e76616c69642061646170746572207479706560601b6044820152606401610a1f565b80612b308161421e565b9150506128ed565b5050509550955095509550955095565b82516101665460405163219d5ca560e01b81526001600160a01b039091169063219d5ca590612b81908890889088908890600401614531565b600060405180830381600087803b158015612b9b57600080fd5b505af1158015612baf573d6000803e3d6000fd5b505050506000612bbc4690565b905060005b82811015611a5057848181518110612bdb57612bdb61406f565b6020026020010151868281518110612bf557612bf561406f565b6020026020010151896001600160a01b03167f3ba03e6b4cb24f75ab77e3b8fb7ea0a24af301c15f5fb5709dd68c39604888158a86898781518110612c3c57612c3c61406f565b6020026020010151600080604051612c5895949392919061457b565b60405180910390a480612c6a8161421e565b915050612bc1565b600080855190508061016760009054906101000a90046001600160a01b03166001600160a01b0316633b11ca516040518163ffffffff1660e01b815260040160206040518083038186803b158015612cc957600080fd5b505afa158015612cdd573d6000803e3d6000fd5b505050506040513d601f19601f82011682018060405250810190612d019190614085565b612d0b919061449d565b915082158015612d1b5750814710155b15612f0757610167546040805163057ff68760e51b815290516000926001600160a01b03169163affed0e0916004808301926020929190829003018186803b158015612d6657600080fd5b505afa158015612d7a573d6000803e3d6000fd5b505050506040513d601f19601f82011682018060405250810190612d9e9190614085565b6101675460405163219d5ca560e01b81529192506001600160a01b03169063219d5ca5908590612dd8908c908c908c908c90600401614531565b6000604051808303818588803b158015612df157600080fd5b505af1158015612e05573d6000803e3d6000fd5b50505050506000612e134690565b905060005b83811015612f03576000612e2c8285614206565b60008181526101686020526040902080546001600160a01b0319166001600160a01b038f161790558951909150899083908110612e6b57612e6b61406f565b60200260200101518a8381518110612e8557612e8561406f565b60200260200101518d6001600160a01b03167f3ba03e6b4cb24f75ab77e3b8fb7ea0a24af301c15f5fb5709dd68c39604888158e878d8881518110612ecc57612ecc61406f565b6020026020010151600188604051612ee895949392919061457b565b60405180910390a45080612efb8161421e565b915050612e18565b5050505b509695505050505050565b612f1c82826115b1565b610df35760008281526097602090815260408083206001600160a01b03851684529091529020805460ff19166001179055612f55611cd8565b6001600160a01b0316816001600160a01b0316837f2f8788117e7eff1d82e926ec794901d17c78024a50270940304540a733656f0d60405160405180910390a45050565b6000611555836001600160a01b03841661356d565b600060183610801590612fcb57506000546001600160a01b031633145b15612fdd575060131936013560601c90565b503390565b612fec82826115b1565b15610df35760008281526097602090815260408083206001600160a01b03851684529091529020805460ff19169055613023611cd8565b6001600160a01b0316816001600160a01b0316837ff6391f5c32d9c69d2a47ea670b442974b53935d1edc7fd64eb21e047a839171b60405160405180910390a45050565b6000611555836001600160a01b0384166135bc565b60006130d1826040518060400160405280602081526020017f5361666545524332303a206c6f772d6c6576656c2063616c6c206661696c6564815250856001600160a01b03166136af9092919063ffffffff16565b805190915015610d6457808060200190518101906130ef91906145b7565b610d645760405162461bcd60e51b815260206004820152602a60248201527f5361666545524332303a204552433230206f7065726174696f6e20646964206e6044820152691bdd081cdd58d8d9595960b21b6064820152608401610a1f565b60008260000182815481106131655761316561406f565b9060005260206000200154905092915050565b600061318582604161449d565b83511015613195575060006123be565b600080876001600160a01b031663a0e67e2b6040518163ffffffff1660e01b815260040160006040518083038186803b1580156131d157600080fd5b505afa1580156131e5573d6000803e3d6000fd5b505050506040513d6000823e601f3d908101601f1916820160405261320d91908101906145d9565b905060008080805b878110156133c05760418181028a0160208101516040820151919092015160ff1695509093509150836132f057919450849161325288604161449d565b82101561326857600096505050505050506123be565b8851613275836020614206565b111561328a57600096505050505050506123be565b6020828a018101518a51909182906132a3908690614206565b6132ad9190614206565b11156132c35760009750505050505050506123be565b8983016020016132d4888d836136be565b6132e9576000985050505050505050506123be565b5050613391565b6040517f19457468657265756d205369676e6564204d6573736167653a0a3332000000006020820152603c81018c9052600190605c0160408051601f198184030181528282528051602091820120600084529083018083525260ff871690820152606081018590526080810184905260a0016020604051602081039080840390855afa158015613384573d6000803e3d6000fd5b5050506020604051035195505b61339b85876136d8565b6133ae57600096505050505050506123be565b806133b88161421e565b915050613215565b5060019b9a5050505050505050505050565b606060006133e183600261449d565b6133ec906002614206565b6001600160401b03811115613403576134036138cb565b6040519080825280601f01601f19166020018201604052801561342d576020820181803683370190505b509050600360fc1b816000815181106134485761344861406f565b60200101906001600160f81b031916908160001a905350600f60fb1b816001815181106134775761347761406f565b60200101906001600160f81b031916908160001a905350600061349b84600261449d565b6134a6906001614206565b90505b600181111561351e576f181899199a1a9b1b9c1cb0b131b232b360811b85600f16601081106134da576134da61406f565b1a60f81b8282815181106134f0576134f061406f565b60200101906001600160f81b031916908160001a90535060049490941c9361351781614667565b90506134a9565b5083156115555760405162461bcd60e51b815260206004820181905260248201527f537472696e67733a20686578206c656e67746820696e73756666696369656e746044820152606401610a1f565b60008181526001830160205260408120546135b45750815460018181018455600084815260208082209093018490558454848252828601909352604090209190915561093e565b50600061093e565b600081815260018301602052604081205480156136a55760006135e06001836140d5565b85549091506000906135f4906001906140d5565b90508181146136595760008660000182815481106136145761361461406f565b90600052602060002001549050808760000184815481106136375761363761406f565b6000918252602080832090910192909255918252600188019052604090208390555b855486908061366a5761366a61467e565b60019003818190600052602060002001600090559055856001016000868152602001908152602001600020600090556001935050505061093e565b600091505061093e565b60606117dd8484600085613737565b6000806136ca84610944565b90506123be858286866123d3565b8151600090815b81811015611da557836001600160a01b03168582815181106137035761370361406f565b60200260200101516001600160a01b031614156137255760019250505061093e565b8061372f8161421e565b9150506136df565b6060824710156137985760405162461bcd60e51b815260206004820152602660248201527f416464726573733a20696e73756666696369656e742062616c616e636520666f6044820152651c8818d85b1b60d21b6064820152608401610a1f565b6001600160a01b0385163b6137ef5760405162461bcd60e51b815260206004820152601d60248201527f416464726573733a2063616c6c20746f206e6f6e2d636f6e74726163740000006044820152606401610a1f565b600080866001600160a01b0316858760405161380b9190614694565b60006040518083038185875af1925050503d8060008114613848576040519150601f19603f3d011682016040523d82523d6000602084013e61384d565b606091505b509150915061385d828286613868565b979650505050505050565b60608315613877575081611555565b8251156138875782518084602001fd5b8160405162461bcd60e51b8152600401610a1f9190613b02565b6000602082840312156138b357600080fd5b81356001600160e01b03198116811461155557600080fd5b634e487b7160e01b600052604160045260246000fd5b604051601f8201601f191681016001600160401b0381118282101715613909576139096138cb565b604052919050565b600082601f83011261392257600080fd5b81356001600160401b0381111561393b5761393b6138cb565b61394e601f8201601f19166020016138e1565b81815284602083860101111561396357600080fd5b816020850160208301376000918101602001919091529392505050565b60006020828403121561399257600080fd5b81356001600160401b038111156139a857600080fd5b6117dd84828501613911565b6000602082840312156139c657600080fd5b5035919050565b6001600160a01b0381168114611b7957600080fd5b8035600281106139f157600080fd5b919050565b600080600060608486031215613a0b57600080fd5b8335613a16816139cd565b925060208401359150613a2b604085016139e2565b90509250925092565b60008060408385031215613a4757600080fd5b823591506020830135613a59816139cd565b809150509250929050565b634e487b7160e01b600052602160045260246000fd5b60028110613a9857634e487b7160e01b600052602160045260246000fd5b9052565b6020810161093e8284613a7a565b60005b83811015613ac5578181015183820152602001613aad565b83811115611a8b5750506000910152565b60008151808452613aee816020860160208601613aaa565b601f01601f19169290920160200192915050565b6020815260006115556020830184613ad6565b600060208284031215613b2757600080fd5b8135611555816139cd565b60006001600160401b03821115613b4b57613b4b6138cb565b5060051b60200190565b600082601f830112613b6657600080fd5b81356020613b7b613b7683613b32565b6138e1565b82815260059290921b84018101918181019086841115613b9a57600080fd5b8286015b84811015612f07578035613bb1816139cd565b8352918301918301613b9e565b600082601f830112613bcf57600080fd5b81356020613bdf613b7683613b32565b82815260059290921b84018101918181019086841115613bfe57600080fd5b8286015b84811015612f075780358352918301918301613c02565b60008060008060808587031215613c2f57600080fd5b8435613c3a816139cd565b935060208501356001600160401b0380821115613c5657600080fd5b613c6288838901613b55565b94506040870135915080821115613c7857600080fd5b50613c8587828801613bbe565b949793965093946060013593505050565b60008083601f840112613ca857600080fd5b5081356001600160401b03811115613cbf57600080fd5b602083019150836020828501011115613cd757600080fd5b9250929050565b600080600080600060808688031215613cf657600080fd5b85356001600160401b0380821115613d0d57600080fd5b613d1989838a01613bbe565b965060208801359550604088013594506060880135915080821115613d3d57600080fd5b50613d4a88828901613c96565b969995985093965092949392505050565b600080600060408486031215613d7057600080fd5b8335925060208401356001600160401b03811115613d8d57600080fd5b613d9986828701613c96565b9497909650939450505050565b60008060008060608587031215613dbc57600080fd5b843593506020850135925060408501356001600160401b03811115613de057600080fd5b613dec87828801613c96565b95989497509550505050565b60008060008060008060a08789031215613e1157600080fd5b86356001600160401b0380821115613e2857600080fd5b613e348a838b01613bbe565b97506020890135915080821115613e4a57600080fd5b613e568a838b01613b55565b96506040890135915080821115613e6c57600080fd5b613e788a838b01613bbe565b9550606089013594506080890135915080821115613e9557600080fd5b50613ea289828a01613c96565b979a9699509497509295939492505050565b60008060408385031215613ec757600080fd5b50508035926020909101359150565b60008060008060608587031215613eec57600080fd5b84356001600160401b0380821115613f0357600080fd5b613f0f88838901613bbe565b9550602091508187013581811115613f2657600080fd5b8701601f81018913613f3757600080fd5b8035613f45613b7682613b32565b81815260059190911b8201840190848101908b831115613f6457600080fd5b928501925b82841015613f8957613f7a846139e2565b82529285019290850190613f69565b97505050506040870135915080821115613fa257600080fd5b50613dec87828801613c96565b60008060408385031215613fc257600080fd5b8235613fcd816139cd565b946020939093013593505050565b60008060008060608587031215613ff157600080fd5b8435613ffc816139cd565b935060208501356001600160401b038082111561401857600080fd5b61402488838901613911565b94506040870135915080821115613fa257600080fd5b60008060006060848603121561404f57600080fd5b833561405a816139cd565b95602085013595506040909401359392505050565b634e487b7160e01b600052603260045260246000fd5b60006020828403121561409757600080fd5b5051919050565b6001600160a01b039390931683526020830191909152604082015260600190565b634e487b7160e01b600052601160045260246000fd5b6000828210156140e7576140e76140bf565b500390565b600081518084526020808501945080840160005b838110156141255781516001600160a01b031687529582019590820190600101614100565b509495945050505050565b600081518084526020808501945080840160005b8381101561412557815187529582019590820190600101614144565b6001600160a01b0385168152608060208201819052600090614184908301866140ec565b82810360408401526141968186614130565b91505082606083015295945050505050565b8051600090602080840183831561412557815187529582019590820190600101614144565b6001600160601b03198660601b16815284601482015260006141f260348301866141a8565b938452505060208201526040019392505050565b60008219821115614219576142196140bf565b500190565b6000600019821415614232576142326140bf565b5060010190565b60609390931b6bffffffffffffffffffffffff191683526014830191909152603482015260540190565b6001600160601b03198760601b168152856014820152600061428860348301876141a8565b8551602080880160005b838110156142b75781516001600160a01b031685529382019390820190600101614292565b50506142c383886141a8565b9586529094019998505050505050505050565b6001600160601b03198560601b16815283601482015260006142fb60348301856141a8565b8351602080860160005b8381101561432857614318858351613a7a565b9382019390820190600101614305565b50929998505050505050505050565b84815260018060a01b03841660208201528260408201526080606082015260006124656080830184613ad6565b60006020828403121561437657600080fd5b815160ff8116811461155557600080fd5b600060ff821660ff8416808210156143a1576143a16140bf565b90039392505050565b600181815b808511156143e55781600019048211156143cb576143cb6140bf565b808516156143d857918102915b93841c93908002906143af565b509250929050565b6000826143fc5750600161093e565b816144095750600061093e565b816001811461441f576002811461442957614445565b600191505061093e565b60ff84111561443a5761443a6140bf565b50506001821b61093e565b5060208310610133831016604e8410600b8410161715614468575081810a61093e565b61447283836143aa565b8060001904821115614486576144866140bf565b029392505050565b600061155560ff8416836143ed565b60008160001904831182151516156144b7576144b76140bf565b500290565b7f416363657373436f6e74726f6c3a206163636f756e74200000000000000000008152600083516144f4816017850160208801613aaa565b7001034b99036b4b9b9b4b733903937b6329607d1b6017918401918201528351614525816028840160208801613aaa565b01602801949350505050565b6001600160a01b038516815260806020820181905260009061455590830186614130565b82810360408401526145678186614130565b9050828103606084015261385d81856140ec565b6001600160a01b038681168252602082018690528416604082015260a081016145a76060830185613a7a565b8260808301529695505050505050565b6000602082840312156145c957600080fd5b8151801515811461155557600080fd5b600060208083850312156145ec57600080fd5b82516001600160401b0381111561460257600080fd5b8301601f8101851361461357600080fd5b8051614621613b7682613b32565b81815260059190911b8201830190838101908783111561464057600080fd5b928401925b8284101561385d578351614658816139cd565b82529284019290840190614645565b600081614676576146766140bf565b506000190190565b634e487b7160e01b600052603160045260246000fd5b600082516146a6818460208701613aaa565b919091019291505056fedbeb657137b1822b3d5418bea6fd641226d964b4c3871ef23546db2622258871a2646970667358221220acc824cb764925af9e658794159e3abd1a40d8419a8265549ced70a48da3349864736f6c63430008090033",
  "devdoc": {
    "kind": "dev",
    "methods": {
      "burn(uint256,uint256,bytes)": {
        "details": "It calls burnByAdmin of BNIMinter.",
        "params": {
          "_pool": "total pool in USD",
          "_share": "amount of shares"
        }
      },
      "deposit(uint256[],address[],uint256[],uint256,bytes)": {
        "details": "It calls depositByAgent of BNIVaults."
      },
      "exitWithdrawal(uint256,bytes)": {
        "details": "It calls exitWithdrawalByAdmin of BNIMinter.",
        "params": {
          "_gatheredAmount": "is the amount of token that is gathered."
        }
      },
      "gather(uint256[],uint8[],bytes)": {
        "details": "It gathers withdrawn tokens of the user from user agents."
      },
      "getMessageHashForSafe(bytes)": {
        "details": "Returns hash of a message that can be signed by owners.",
        "params": {
          "message": "Message that should be hashed"
        },
        "returns": {
          "_0": "Message hash."
        }
      },
      "getRoleAdmin(bytes32)": {
        "details": "Returns the admin role that controls `role`. See {grantRole} and {revokeRole}. To change a role's admin, use {_setRoleAdmin}."
      },
      "getRoleMember(bytes32,uint256)": {
        "details": "Returns one of the accounts that have `role`. `index` must be a value between 0 and {getRoleMemberCount}, non-inclusive. Role bearers are not sorted in any particular way, and their ordering may change at any point. WARNING: When using {getRoleMember} and {getRoleMemberCount}, make sure you perform all queries on the same block. See the following https://forum.openzeppelin.com/t/iterating-over-elements-on-enumerableset-in-openzeppelin-contracts/2296[forum post] for more information."
      },
      "getRoleMemberCount(bytes32)": {
        "details": "Returns the number of accounts that have `role`. Can be used together with {getRoleMember} to enumerate all bearers of a role."
      },
      "grantRole(bytes32,address)": {
        "details": "Grants `role` to `account`. If `account` had not been already granted `role`, emits a {RoleGranted} event. Requirements: - the caller must have ``role``'s admin role."
      },
      "hasRole(bytes32,address)": {
        "details": "Returns `true` if `account` has been granted `role`."
      },
      "mint(uint256,bytes)": {
        "details": "It calls mintByAdmin of BNIMinter."
      },
      "owner()": {
        "details": "Returns the address of the current owner."
      },
      "paused()": {
        "details": "Returns true if the contract is paused, and false otherwise."
      },
      "renounceOwnership()": {
        "details": "Leaves the contract without owner. It will not be possible to call `onlyOwner` functions anymore. Can only be called by the current owner. NOTE: Renouncing ownership will leave the contract without an owner, thereby removing any functionality that is only available to the owner."
      },
      "renounceRole(bytes32,address)": {
        "details": "Revokes `role` from the calling account. Roles are often managed via {grantRole} and {revokeRole}: this function's purpose is to provide a mechanism for accounts to lose their privileges if they are compromised (such as when a trusted device is misplaced). If the calling account had been revoked `role`, emits a {RoleRevoked} event. Requirements: - the caller must be `account`."
      },
      "revokeRole(bytes32,address)": {
        "details": "Revokes `role` from `account`. If `account` had been granted `role`, emits a {RoleRevoked} event. Requirements: - the caller must have ``role``'s admin role."
      },
      "supportsInterface(bytes4)": {
        "details": "See {IERC165-supportsInterface}."
      },
      "takeOut(uint256,bytes)": {
        "details": "It takes out tokens from this agent.",
        "params": {
          "_gatheredAmount": "is the amount of token that is gathered."
        }
      },
      "transferOwnership(address)": {
        "details": "Transfers ownership of the contract to a new account (`newOwner`). Can only be called by the current owner."
      },
      "withdraw(uint256[],uint256,uint256,bytes)": {
        "details": "It calls withdrawPercByAgent of BNIVaults."
      }
    },
    "version": 1
  },
  "userdoc": {
    "kind": "user",
    "methods": {
      "exitWithdrawal(uint256,bytes)": {
        "notice": "_gatheredAmount doesn't include the balance which is withdrawan in this agent."
      },
      "isTrustedForwarder(address)": {
        "notice": "return if the forwarder is trusted to forward relayed transactions to us. the forwarder is required to verify the sender's signature, and verify the call is not a replay."
      },
      "takeOut(uint256,bytes)": {
        "notice": "_gatheredAmount doesn't include the balance which is withdrawan in this agent."
      }
    },
    "version": 1
  },
  "storageLayout": {
    "storage": [
      {
        "astId": 68200,
        "contract": "contracts/xchain/agent/BNIUserAgentSubTest.sol:BNIUserAgentSubTest",
        "label": "trustedForwarder",
        "offset": 0,
        "slot": "0",
        "type": "t_address"
      },
      {
        "astId": 713,
        "contract": "contracts/xchain/agent/BNIUserAgentSubTest.sol:BNIUserAgentSubTest",
        "label": "_initialized",
        "offset": 20,
        "slot": "0",
        "type": "t_uint8"
      },
      {
        "astId": 716,
        "contract": "contracts/xchain/agent/BNIUserAgentSubTest.sol:BNIUserAgentSubTest",
        "label": "_initializing",
        "offset": 21,
        "slot": "0",
        "type": "t_bool"
      },
      {
        "astId": 68740,
        "contract": "contracts/xchain/agent/BNIUserAgentSubTest.sol:BNIUserAgentSubTest",
        "label": "separator",
        "offset": 0,
        "slot": "1",
        "type": "t_bytes32"
      },
      {
        "astId": 69157,
        "contract": "contracts/xchain/agent/BNIUserAgentSubTest.sol:BNIUserAgentSubTest",
        "label": "__gap",
        "offset": 0,
        "slot": "2",
        "type": "t_array(t_uint256)49_storage"
      },
      {
        "astId": 3292,
        "contract": "contracts/xchain/agent/BNIUserAgentSubTest.sol:BNIUserAgentSubTest",
        "label": "__gap",
        "offset": 0,
        "slot": "51",
        "type": "t_array(t_uint256)50_storage"
      },
      {
        "astId": 3946,
        "contract": "contracts/xchain/agent/BNIUserAgentSubTest.sol:BNIUserAgentSubTest",
        "label": "__gap",
        "offset": 0,
        "slot": "101",
        "type": "t_array(t_uint256)50_storage"
      },
      {
        "astId": 184,
        "contract": "contracts/xchain/agent/BNIUserAgentSubTest.sol:BNIUserAgentSubTest",
        "label": "_roles",
        "offset": 0,
        "slot": "151",
        "type": "t_mapping(t_bytes32,t_struct(RoleData)179_storage)"
      },
      {
        "astId": 483,
        "contract": "contracts/xchain/agent/BNIUserAgentSubTest.sol:BNIUserAgentSubTest",
        "label": "__gap",
        "offset": 0,
        "slot": "152",
        "type": "t_array(t_uint256)49_storage"
      },
      {
        "astId": 33,
        "contract": "contracts/xchain/agent/BNIUserAgentSubTest.sol:BNIUserAgentSubTest",
        "label": "_roleMembers",
        "offset": 0,
        "slot": "201",
        "type": "t_mapping(t_bytes32,t_struct(AddressSet)4359_storage)"
      },
      {
        "astId": 143,
        "contract": "contracts/xchain/agent/BNIUserAgentSubTest.sol:BNIUserAgentSubTest",
        "label": "__gap",
        "offset": 0,
        "slot": "202",
        "type": "t_array(t_uint256)49_storage"
      },
      {
        "astId": 869,
        "contract": "contracts/xchain/agent/BNIUserAgentSubTest.sol:BNIUserAgentSubTest",
        "label": "_paused",
        "offset": 0,
        "slot": "251",
        "type": "t_bool"
      },
      {
        "astId": 958,
        "contract": "contracts/xchain/agent/BNIUserAgentSubTest.sol:BNIUserAgentSubTest",
        "label": "__gap",
        "offset": 0,
        "slot": "252",
        "type": "t_array(t_uint256)49_storage"
      },
      {
        "astId": 593,
        "contract": "contracts/xchain/agent/BNIUserAgentSubTest.sol:BNIUserAgentSubTest",
        "label": "_owner",
        "offset": 0,
        "slot": "301",
        "type": "t_address"
      },
      {
        "astId": 705,
        "contract": "contracts/xchain/agent/BNIUserAgentSubTest.sol:BNIUserAgentSubTest",
        "label": "__gap",
        "offset": 0,
        "slot": "302",
        "type": "t_array(t_uint256)49_storage"
      },
      {
        "astId": 59557,
        "contract": "contracts/xchain/agent/BNIUserAgentSubTest.sol:BNIUserAgentSubTest",
        "label": "admin",
        "offset": 0,
        "slot": "351",
        "type": "t_address"
      },
      {
        "astId": 59561,
        "contract": "contracts/xchain/agent/BNIUserAgentSubTest.sol:BNIUserAgentSubTest",
        "label": "nonces",
        "offset": 0,
        "slot": "352",
        "type": "t_mapping(t_address,t_uint256)"
      },
      {
        "astId": 59564,
        "contract": "contracts/xchain/agent/BNIUserAgentSubTest.sol:BNIUserAgentSubTest",
        "label": "swap",
        "offset": 0,
        "slot": "353",
        "type": "t_contract(ISwap)56041"
      },
      {
        "astId": 59567,
        "contract": "contracts/xchain/agent/BNIUserAgentSubTest.sol:BNIUserAgentSubTest",
        "label": "USDC",
        "offset": 0,
        "slot": "354",
        "type": "t_contract(IERC20Upgradeable)1707"
      },
      {
        "astId": 59570,
        "contract": "contracts/xchain/agent/BNIUserAgentSubTest.sol:BNIUserAgentSubTest",
        "label": "USDT",
        "offset": 0,
        "slot": "355",
        "type": "t_contract(IERC20Upgradeable)1707"
      },
      {
        "astId": 59574,
        "contract": "contracts/xchain/agent/BNIUserAgentSubTest.sol:BNIUserAgentSubTest",
        "label": "usdcBalances",
        "offset": 0,
        "slot": "356",
        "type": "t_mapping(t_address,t_uint256)"
      },
      {
        "astId": 59578,
        "contract": "contracts/xchain/agent/BNIUserAgentSubTest.sol:BNIUserAgentSubTest",
        "label": "usdtBalances",
        "offset": 0,
        "slot": "357",
        "type": "t_mapping(t_address,t_uint256)"
      },
      {
        "astId": 59581,
        "contract": "contracts/xchain/agent/BNIUserAgentSubTest.sol:BNIUserAgentSubTest",
        "label": "multichainAdapter",
        "offset": 0,
        "slot": "358",
        "type": "t_contract(IXChainAdapter)56345"
      },
      {
        "astId": 59584,
        "contract": "contracts/xchain/agent/BNIUserAgentSubTest.sol:BNIUserAgentSubTest",
        "label": "cbridgeAdapter",
        "offset": 0,
        "slot": "359",
        "type": "t_contract(IXChainAdapter)56345"
      },
      {
        "astId": 59588,
        "contract": "contracts/xchain/agent/BNIUserAgentSubTest.sol:BNIUserAgentSubTest",
        "label": "cbridgeSenders",
        "offset": 0,
        "slot": "360",
        "type": "t_mapping(t_uint256,t_address)"
      },
      {
        "astId": 59592,
        "contract": "contracts/xchain/agent/BNIUserAgentSubTest.sol:BNIUserAgentSubTest",
        "label": "userAgents",
        "offset": 0,
        "slot": "361",
        "type": "t_mapping(t_uint256,t_address)"
      },
      {
        "astId": 59597,
        "contract": "contracts/xchain/agent/BNIUserAgentSubTest.sol:BNIUserAgentSubTest",
        "label": "callAdapterTypes",
        "offset": 0,
        "slot": "362",
        "type": "t_mapping(t_uint256,t_enum(AdapterType)59550)"
      },
      {
        "astId": 60233,
        "contract": "contracts/xchain/agent/BNIUserAgentSubTest.sol:BNIUserAgentSubTest",
        "label": "__gap",
        "offset": 0,
        "slot": "363",
        "type": "t_array(t_uint256)39_storage"
      },
      {
        "astId": 57251,
        "contract": "contracts/xchain/agent/BNIUserAgentSubTest.sol:BNIUserAgentSubTest",
        "label": "chainIdOnLP",
        "offset": 0,
        "slot": "402",
        "type": "t_uint256"
      },
      {
        "astId": 57253,
        "contract": "contracts/xchain/agent/BNIUserAgentSubTest.sol:BNIUserAgentSubTest",
        "label": "isLPChain",
        "offset": 0,
        "slot": "403",
        "type": "t_bool"
      },
      {
        "astId": 57256,
        "contract": "contracts/xchain/agent/BNIUserAgentSubTest.sol:BNIUserAgentSubTest",
        "label": "bniMinter",
        "offset": 1,
        "slot": "403",
        "type": "t_contract(IBNIMinter)10340"
      },
      {
        "astId": 57259,
        "contract": "contracts/xchain/agent/BNIUserAgentSubTest.sol:BNIUserAgentSubTest",
        "label": "bniVault",
        "offset": 0,
        "slot": "404",
        "type": "t_contract(IBNIVault)10387"
      },
      {
        "astId": 57261,
        "contract": "contracts/xchain/agent/BNIUserAgentSubTest.sol:BNIUserAgentSubTest",
        "label": "subImpl",
        "offset": 0,
        "slot": "405",
        "type": "t_address"
      }
    ],
    "types": {
      "t_address": {
        "encoding": "inplace",
        "label": "address",
        "numberOfBytes": "20"
      },
      "t_array(t_bytes32)dyn_storage": {
        "base": "t_bytes32",
        "encoding": "dynamic_array",
        "label": "bytes32[]",
        "numberOfBytes": "32"
      },
      "t_array(t_uint256)39_storage": {
        "base": "t_uint256",
        "encoding": "inplace",
        "label": "uint256[39]",
        "numberOfBytes": "1248"
      },
      "t_array(t_uint256)49_storage": {
        "base": "t_uint256",
        "encoding": "inplace",
        "label": "uint256[49]",
        "numberOfBytes": "1568"
      },
      "t_array(t_uint256)50_storage": {
        "base": "t_uint256",
        "encoding": "inplace",
        "label": "uint256[50]",
        "numberOfBytes": "1600"
      },
      "t_bool": {
        "encoding": "inplace",
        "label": "bool",
        "numberOfBytes": "1"
      },
      "t_bytes32": {
        "encoding": "inplace",
        "label": "bytes32",
        "numberOfBytes": "32"
      },
      "t_contract(IBNIMinter)10340": {
        "encoding": "inplace",
        "label": "contract IBNIMinter",
        "numberOfBytes": "20"
      },
      "t_contract(IBNIVault)10387": {
        "encoding": "inplace",
        "label": "contract IBNIVault",
        "numberOfBytes": "20"
      },
      "t_contract(IERC20Upgradeable)1707": {
        "encoding": "inplace",
        "label": "contract IERC20Upgradeable",
        "numberOfBytes": "20"
      },
      "t_contract(ISwap)56041": {
        "encoding": "inplace",
        "label": "contract ISwap",
        "numberOfBytes": "20"
      },
      "t_contract(IXChainAdapter)56345": {
        "encoding": "inplace",
        "label": "contract IXChainAdapter",
        "numberOfBytes": "20"
      },
      "t_enum(AdapterType)59550": {
        "encoding": "inplace",
        "label": "enum BasicUserAgentBase.AdapterType",
        "numberOfBytes": "1"
      },
      "t_mapping(t_address,t_bool)": {
        "encoding": "mapping",
        "key": "t_address",
        "label": "mapping(address => bool)",
        "numberOfBytes": "32",
        "value": "t_bool"
      },
      "t_mapping(t_address,t_uint256)": {
        "encoding": "mapping",
        "key": "t_address",
        "label": "mapping(address => uint256)",
        "numberOfBytes": "32",
        "value": "t_uint256"
      },
      "t_mapping(t_bytes32,t_struct(AddressSet)4359_storage)": {
        "encoding": "mapping",
        "key": "t_bytes32",
        "label": "mapping(bytes32 => struct EnumerableSetUpgradeable.AddressSet)",
        "numberOfBytes": "32",
        "value": "t_struct(AddressSet)4359_storage"
      },
      "t_mapping(t_bytes32,t_struct(RoleData)179_storage)": {
        "encoding": "mapping",
        "key": "t_bytes32",
        "label": "mapping(bytes32 => struct AccessControlUpgradeable.RoleData)",
        "numberOfBytes": "32",
        "value": "t_struct(RoleData)179_storage"
      },
      "t_mapping(t_bytes32,t_uint256)": {
        "encoding": "mapping",
        "key": "t_bytes32",
        "label": "mapping(bytes32 => uint256)",
        "numberOfBytes": "32",
        "value": "t_uint256"
      },
      "t_mapping(t_uint256,t_address)": {
        "encoding": "mapping",
        "key": "t_uint256",
        "label": "mapping(uint256 => address)",
        "numberOfBytes": "32",
        "value": "t_address"
      },
      "t_mapping(t_uint256,t_enum(AdapterType)59550)": {
        "encoding": "mapping",
        "key": "t_uint256",
        "label": "mapping(uint256 => enum BasicUserAgentBase.AdapterType)",
        "numberOfBytes": "32",
        "value": "t_enum(AdapterType)59550"
      },
      "t_struct(AddressSet)4359_storage": {
        "encoding": "inplace",
        "label": "struct EnumerableSetUpgradeable.AddressSet",
        "members": [
          {
            "astId": 4358,
            "contract": "contracts/xchain/agent/BNIUserAgentSubTest.sol:BNIUserAgentSubTest",
            "label": "_inner",
            "offset": 0,
            "slot": "0",
            "type": "t_struct(Set)4058_storage"
          }
        ],
        "numberOfBytes": "64"
      },
      "t_struct(RoleData)179_storage": {
        "encoding": "inplace",
        "label": "struct AccessControlUpgradeable.RoleData",
        "members": [
          {
            "astId": 176,
            "contract": "contracts/xchain/agent/BNIUserAgentSubTest.sol:BNIUserAgentSubTest",
            "label": "members",
            "offset": 0,
            "slot": "0",
            "type": "t_mapping(t_address,t_bool)"
          },
          {
            "astId": 178,
            "contract": "contracts/xchain/agent/BNIUserAgentSubTest.sol:BNIUserAgentSubTest",
            "label": "adminRole",
            "offset": 0,
            "slot": "1",
            "type": "t_bytes32"
          }
        ],
        "numberOfBytes": "64"
      },
      "t_struct(Set)4058_storage": {
        "encoding": "inplace",
        "label": "struct EnumerableSetUpgradeable.Set",
        "members": [
          {
            "astId": 4053,
            "contract": "contracts/xchain/agent/BNIUserAgentSubTest.sol:BNIUserAgentSubTest",
            "label": "_values",
            "offset": 0,
            "slot": "0",
            "type": "t_array(t_bytes32)dyn_storage"
          },
          {
            "astId": 4057,
            "contract": "contracts/xchain/agent/BNIUserAgentSubTest.sol:BNIUserAgentSubTest",
            "label": "_indexes",
            "offset": 0,
            "slot": "1",
            "type": "t_mapping(t_bytes32,t_uint256)"
          }
        ],
        "numberOfBytes": "64"
      },
      "t_uint256": {
        "encoding": "inplace",
        "label": "uint256",
        "numberOfBytes": "32"
      },
      "t_uint8": {
        "encoding": "inplace",
        "label": "uint8",
        "numberOfBytes": "1"
      }
    }
  }
}