{
  "address": "0xD3a0EA24d03C21D65D7b436813F7ac7640bB255C",
  "abi": [
    {
      "anonymous": false,
      "inputs": [
        {
          "indexed": false,
          "internalType": "uint8",
          "name": "version",
          "type": "uint8"
        }
      ],
      "name": "Initialized",
      "type": "event"
    },
    {
      "anonymous": false,
      "inputs": [
        {
          "indexed": true,
          "internalType": "address",
          "name": "previousOwner",
          "type": "address"
        },
        {
          "indexed": true,
          "internalType": "address",
          "name": "newOwner",
          "type": "address"
        }
      ],
      "name": "OwnershipTransferred",
      "type": "event"
    },
    {
      "anonymous": false,
      "inputs": [
        {
          "indexed": false,
          "internalType": "address",
          "name": "account",
          "type": "address"
        }
      ],
      "name": "Paused",
      "type": "event"
    },
    {
      "anonymous": false,
      "inputs": [
        {
          "indexed": true,
          "internalType": "bytes32",
          "name": "role",
          "type": "bytes32"
        },
        {
          "indexed": true,
          "internalType": "bytes32",
          "name": "previousAdminRole",
          "type": "bytes32"
        },
        {
          "indexed": true,
          "internalType": "bytes32",
          "name": "newAdminRole",
          "type": "bytes32"
        }
      ],
      "name": "RoleAdminChanged",
      "type": "event"
    },
    {
      "anonymous": false,
      "inputs": [
        {
          "indexed": true,
          "internalType": "bytes32",
          "name": "role",
          "type": "bytes32"
        },
        {
          "indexed": true,
          "internalType": "address",
          "name": "account",
          "type": "address"
        },
        {
          "indexed": true,
          "internalType": "address",
          "name": "sender",
          "type": "address"
        }
      ],
      "name": "RoleGranted",
      "type": "event"
    },
    {
      "anonymous": false,
      "inputs": [
        {
          "indexed": true,
          "internalType": "bytes32",
          "name": "role",
          "type": "bytes32"
        },
        {
          "indexed": true,
          "internalType": "address",
          "name": "account",
          "type": "address"
        },
        {
          "indexed": true,
          "internalType": "address",
          "name": "sender",
          "type": "address"
        }
      ],
      "name": "RoleRevoked",
      "type": "event"
    },
    {
      "anonymous": false,
      "inputs": [
        {
          "indexed": false,
          "internalType": "uint256",
          "name": "fromChainId",
          "type": "uint256"
        },
        {
          "indexed": false,
          "internalType": "address",
          "name": "token",
          "type": "address"
        },
        {
          "indexed": true,
          "internalType": "uint256",
          "name": "amount",
          "type": "uint256"
        },
        {
          "indexed": true,
          "internalType": "uint256",
          "name": "toChainId",
          "type": "uint256"
        },
        {
          "indexed": true,
          "internalType": "address",
          "name": "account",
          "type": "address"
        }
      ],
      "name": "Transfer",
      "type": "event"
    },
    {
      "anonymous": false,
      "inputs": [
        {
          "indexed": false,
          "internalType": "address",
          "name": "account",
          "type": "address"
        }
      ],
      "name": "Unpaused",
      "type": "event"
    },
    {
      "inputs": [],
      "name": "ADAPTER_ROLE",
      "outputs": [
        {
          "internalType": "bytes32",
          "name": "",
          "type": "bytes32"
        }
      ],
      "stateMutability": "view",
      "type": "function"
    },
    {
      "inputs": [],
      "name": "DEFAULT_ADMIN_ROLE",
      "outputs": [
        {
          "internalType": "bytes32",
          "name": "",
          "type": "bytes32"
        }
      ],
      "stateMutability": "view",
      "type": "function"
    },
    {
      "inputs": [],
      "name": "USDC",
      "outputs": [
        {
          "internalType": "contract IERC20Upgradeable",
          "name": "",
          "type": "address"
        }
      ],
      "stateMutability": "view",
      "type": "function"
    },
    {
      "inputs": [],
      "name": "USDT",
      "outputs": [
        {
          "internalType": "contract IERC20Upgradeable",
          "name": "",
          "type": "address"
        }
      ],
      "stateMutability": "view",
      "type": "function"
    },
    {
      "inputs": [],
      "name": "admin",
      "outputs": [
        {
          "internalType": "address",
          "name": "",
          "type": "address"
        }
      ],
      "stateMutability": "view",
      "type": "function"
    },
    {
      "inputs": [],
      "name": "bniMinter",
      "outputs": [
        {
          "internalType": "contract IBNIMinter",
          "name": "",
          "type": "address"
        }
      ],
      "stateMutability": "view",
      "type": "function"
    },
    {
      "inputs": [
        {
          "internalType": "uint256",
          "name": "",
          "type": "uint256"
        }
      ],
      "name": "bniVaults",
      "outputs": [
        {
          "internalType": "contract IBNIVault",
          "name": "",
          "type": "address"
        }
      ],
      "stateMutability": "view",
      "type": "function"
    },
    {
      "inputs": [
        {
          "internalType": "uint256",
          "name": "_pool",
          "type": "uint256"
        },
        {
          "internalType": "uint256",
          "name": "_share",
          "type": "uint256"
        },
        {
          "internalType": "bytes",
          "name": "_signature",
          "type": "bytes"
        }
      ],
      "name": "burn",
      "outputs": [
        {
          "internalType": "uint256",
          "name": "_feeAmt",
          "type": "uint256"
        }
      ],
      "stateMutability": "payable",
      "type": "function"
    },
    {
      "inputs": [
        {
          "internalType": "address",
          "name": "_account",
          "type": "address"
        },
        {
          "internalType": "uint256",
          "name": "_pool",
          "type": "uint256"
        },
        {
          "internalType": "uint256",
          "name": "_share",
          "type": "uint256"
        }
      ],
      "name": "burnByAdmin",
      "outputs": [],
      "stateMutability": "nonpayable",
      "type": "function"
    },
    {
      "inputs": [
        {
          "internalType": "uint256",
          "name": "",
          "type": "uint256"
        }
      ],
      "name": "callAdapterTypes",
      "outputs": [
        {
          "internalType": "enum BasicUserAgentBase.AdapterType",
          "name": "",
          "type": "uint8"
        }
      ],
      "stateMutability": "view",
      "type": "function"
    },
    {
      "inputs": [],
      "name": "cbridgeAdapter",
      "outputs": [
        {
          "internalType": "contract IXChainAdapter",
          "name": "",
          "type": "address"
        }
      ],
      "stateMutability": "view",
      "type": "function"
    },
    {
      "inputs": [
        {
          "internalType": "uint256",
          "name": "",
          "type": "uint256"
        }
      ],
      "name": "cbridgeSenders",
      "outputs": [
        {
          "internalType": "address",
          "name": "",
          "type": "address"
        }
      ],
      "stateMutability": "view",
      "type": "function"
    },
    {
      "inputs": [],
      "name": "chainIdOnLP",
      "outputs": [
        {
          "internalType": "uint256",
          "name": "",
          "type": "uint256"
        }
      ],
      "stateMutability": "view",
      "type": "function"
    },
    {
      "inputs": [
        {
          "internalType": "uint256[]",
          "name": "_toChainIds",
          "type": "uint256[]"
        },
        {
          "internalType": "address[]",
          "name": "_tokens",
          "type": "address[]"
        },
        {
          "internalType": "uint256[]",
          "name": "_USDT6Amts",
          "type": "uint256[]"
        },
        {
          "internalType": "uint256",
          "name": "_minterNonce",
          "type": "uint256"
        },
        {
          "internalType": "bytes",
          "name": "_signature",
          "type": "bytes"
        }
      ],
      "name": "deposit",
      "outputs": [
        {
          "internalType": "uint256",
          "name": "_feeAmt",
          "type": "uint256"
        }
      ],
      "stateMutability": "payable",
      "type": "function"
    },
    {
      "inputs": [
        {
          "internalType": "address",
          "name": "_account",
          "type": "address"
        },
        {
          "internalType": "address[]",
          "name": "_tokens",
          "type": "address[]"
        },
        {
          "internalType": "uint256[]",
          "name": "_USDT6Amts",
          "type": "uint256[]"
        },
        {
          "internalType": "uint256",
          "name": "_minterNonce",
          "type": "uint256"
        }
      ],
      "name": "depositByAgent",
      "outputs": [],
      "stateMutability": "nonpayable",
      "type": "function"
    },
    {
      "inputs": [
        {
          "internalType": "uint256",
          "name": "_gatheredAmount",
          "type": "uint256"
        },
        {
          "internalType": "bytes",
          "name": "_signature",
          "type": "bytes"
        }
      ],
      "name": "exitWithdrawal",
      "outputs": [
        {
          "internalType": "uint256",
          "name": "_feeAmt",
          "type": "uint256"
        }
      ],
      "stateMutability": "payable",
      "type": "function"
    },
    {
      "inputs": [
        {
          "internalType": "address",
          "name": "_account",
          "type": "address"
        }
      ],
      "name": "exitWithdrawalByAdmin",
      "outputs": [],
      "stateMutability": "nonpayable",
      "type": "function"
    },
    {
      "inputs": [
        {
          "internalType": "uint256[]",
          "name": "_fromChainIds",
          "type": "uint256[]"
        },
        {
          "internalType": "enum BasicUserAgentBase.AdapterType[]",
          "name": "_adapterTypes",
          "type": "uint8[]"
        },
        {
          "internalType": "bytes",
          "name": "_signature",
          "type": "bytes"
        }
      ],
      "name": "gather",
      "outputs": [
        {
          "internalType": "uint256",
          "name": "_feeAmt",
          "type": "uint256"
        }
      ],
      "stateMutability": "payable",
      "type": "function"
    },
    {
      "inputs": [
        {
          "internalType": "address",
          "name": "_account",
          "type": "address"
        },
        {
          "internalType": "uint256",
          "name": "_toChainId",
          "type": "uint256"
        },
        {
          "internalType": "enum BasicUserAgentBase.AdapterType",
          "name": "_adapterType",
          "type": "uint8"
        }
      ],
      "name": "gatherByAdmin",
      "outputs": [],
      "stateMutability": "nonpayable",
      "type": "function"
    },
    {
      "inputs": [
        {
          "internalType": "bytes",
          "name": "message",
          "type": "bytes"
        }
      ],
      "name": "getMessageHashForSafe",
      "outputs": [
        {
          "internalType": "bytes32",
          "name": "",
          "type": "bytes32"
        }
      ],
      "stateMutability": "view",
      "type": "function"
    },
    {
      "inputs": [
        {
          "internalType": "bytes32",
          "name": "role",
          "type": "bytes32"
        }
      ],
      "name": "getRoleAdmin",
      "outputs": [
        {
          "internalType": "bytes32",
          "name": "",
          "type": "bytes32"
        }
      ],
      "stateMutability": "view",
      "type": "function"
    },
    {
      "inputs": [
        {
          "internalType": "bytes32",
          "name": "role",
          "type": "bytes32"
        },
        {
          "internalType": "uint256",
          "name": "index",
          "type": "uint256"
        }
      ],
      "name": "getRoleMember",
      "outputs": [
        {
          "internalType": "address",
          "name": "",
          "type": "address"
        }
      ],
      "stateMutability": "view",
      "type": "function"
    },
    {
      "inputs": [
        {
          "internalType": "bytes32",
          "name": "role",
          "type": "bytes32"
        }
      ],
      "name": "getRoleMemberCount",
      "outputs": [
        {
          "internalType": "uint256",
          "name": "",
          "type": "uint256"
        }
      ],
      "stateMutability": "view",
      "type": "function"
    },
    {
      "inputs": [
        {
          "internalType": "bytes32",
          "name": "role",
          "type": "bytes32"
        },
        {
          "internalType": "address",
          "name": "account",
          "type": "address"
        }
      ],
      "name": "grantRole",
      "outputs": [],
      "stateMutability": "nonpayable",
      "type": "function"
    },
    {
      "inputs": [
        {
          "internalType": "bytes32",
          "name": "role",
          "type": "bytes32"
        },
        {
          "internalType": "address",
          "name": "account",
          "type": "address"
        }
      ],
      "name": "hasRole",
      "outputs": [
        {
          "internalType": "bool",
          "name": "",
          "type": "bool"
        }
      ],
      "stateMutability": "view",
      "type": "function"
    },
    {
      "inputs": [],
      "name": "isLPChain",
      "outputs": [
        {
          "internalType": "bool",
          "name": "",
          "type": "bool"
        }
      ],
      "stateMutability": "view",
      "type": "function"
    },
    {
      "inputs": [
        {
          "internalType": "address",
          "name": "forwarder",
          "type": "address"
        }
      ],
      "name": "isTrustedForwarder",
      "outputs": [
        {
          "internalType": "bool",
          "name": "",
          "type": "bool"
        }
      ],
      "stateMutability": "view",
      "type": "function"
    },
    {
      "inputs": [
        {
          "internalType": "address",
          "name": "_account",
          "type": "address"
        },
        {
          "internalType": "bytes",
          "name": "_data",
          "type": "bytes"
        },
        {
          "internalType": "bytes",
          "name": "_signature",
          "type": "bytes"
        }
      ],
      "name": "isValidSignature",
      "outputs": [
        {
          "internalType": "bool",
          "name": "",
          "type": "bool"
        }
      ],
      "stateMutability": "view",
      "type": "function"
    },
    {
      "inputs": [
        {
          "internalType": "uint256",
          "name": "_USDT6Amt",
          "type": "uint256"
        },
        {
          "internalType": "bytes",
          "name": "_signature",
          "type": "bytes"
        }
      ],
      "name": "mint",
      "outputs": [
        {
          "internalType": "uint256",
          "name": "_feeAmt",
          "type": "uint256"
        }
      ],
      "stateMutability": "payable",
      "type": "function"
    },
    {
      "inputs": [
        {
          "internalType": "address",
          "name": "_account",
          "type": "address"
        },
        {
          "internalType": "uint256",
          "name": "_USDT6Amt",
          "type": "uint256"
        }
      ],
      "name": "mintByAdmin",
      "outputs": [],
      "stateMutability": "nonpayable",
      "type": "function"
    },
    {
      "inputs": [],
      "name": "multichainAdapter",
      "outputs": [
        {
          "internalType": "contract IXChainAdapter",
          "name": "",
          "type": "address"
        }
      ],
      "stateMutability": "view",
      "type": "function"
    },
    {
      "inputs": [
        {
          "internalType": "address",
          "name": "",
          "type": "address"
        }
      ],
      "name": "nonces",
      "outputs": [
        {
          "internalType": "uint256",
          "name": "",
          "type": "uint256"
        }
      ],
      "stateMutability": "view",
      "type": "function"
    },
    {
      "inputs": [],
      "name": "owner",
      "outputs": [
        {
          "internalType": "address",
          "name": "",
          "type": "address"
        }
      ],
      "stateMutability": "view",
      "type": "function"
    },
    {
      "inputs": [],
      "name": "paused",
      "outputs": [
        {
          "internalType": "bool",
          "name": "",
          "type": "bool"
        }
      ],
      "stateMutability": "view",
      "type": "function"
    },
    {
      "inputs": [],
      "name": "renounceOwnership",
      "outputs": [],
      "stateMutability": "nonpayable",
      "type": "function"
    },
    {
      "inputs": [
        {
          "internalType": "bytes32",
          "name": "role",
          "type": "bytes32"
        },
        {
          "internalType": "address",
          "name": "account",
          "type": "address"
        }
      ],
      "name": "renounceRole",
      "outputs": [],
      "stateMutability": "nonpayable",
      "type": "function"
    },
    {
      "inputs": [
        {
          "internalType": "bytes32",
          "name": "role",
          "type": "bytes32"
        },
        {
          "internalType": "address",
          "name": "account",
          "type": "address"
        }
      ],
      "name": "revokeRole",
      "outputs": [],
      "stateMutability": "nonpayable",
      "type": "function"
    },
    {
      "inputs": [],
      "name": "subImpl",
      "outputs": [
        {
          "internalType": "address",
          "name": "",
          "type": "address"
        }
      ],
      "stateMutability": "view",
      "type": "function"
    },
    {
      "inputs": [
        {
          "internalType": "bytes4",
          "name": "interfaceId",
          "type": "bytes4"
        }
      ],
      "name": "supportsInterface",
      "outputs": [
        {
          "internalType": "bool",
          "name": "",
          "type": "bool"
        }
      ],
      "stateMutability": "view",
      "type": "function"
    },
    {
      "inputs": [
        {
          "internalType": "uint256",
          "name": "_gatheredAmount",
          "type": "uint256"
        },
        {
          "internalType": "bytes",
          "name": "_signature",
          "type": "bytes"
        }
      ],
      "name": "takeOut",
      "outputs": [],
      "stateMutability": "nonpayable",
      "type": "function"
    },
    {
      "inputs": [
        {
          "internalType": "address",
          "name": "newOwner",
          "type": "address"
        }
      ],
      "name": "transferOwnership",
      "outputs": [],
      "stateMutability": "nonpayable",
      "type": "function"
    },
    {
      "inputs": [],
      "name": "trustedForwarder",
      "outputs": [
        {
          "internalType": "address",
          "name": "",
          "type": "address"
        }
      ],
      "stateMutability": "view",
      "type": "function"
    },
    {
      "inputs": [
        {
          "internalType": "address",
          "name": "",
          "type": "address"
        }
      ],
      "name": "usdcBalances",
      "outputs": [
        {
          "internalType": "uint256",
          "name": "",
          "type": "uint256"
        }
      ],
      "stateMutability": "view",
      "type": "function"
    },
    {
      "inputs": [
        {
          "internalType": "address",
          "name": "",
          "type": "address"
        }
      ],
      "name": "usdtBalances",
      "outputs": [
        {
          "internalType": "uint256",
          "name": "",
          "type": "uint256"
        }
      ],
      "stateMutability": "view",
      "type": "function"
    },
    {
      "inputs": [
        {
          "internalType": "uint256",
          "name": "",
          "type": "uint256"
        }
      ],
      "name": "userAgents",
      "outputs": [
        {
          "internalType": "address",
          "name": "",
          "type": "address"
        }
      ],
      "stateMutability": "view",
      "type": "function"
    },
    {
      "inputs": [],
      "name": "versionRecipient",
      "outputs": [
        {
          "internalType": "string",
          "name": "",
          "type": "string"
        }
      ],
      "stateMutability": "pure",
      "type": "function"
    },
    {
      "inputs": [
        {
          "internalType": "uint256[]",
          "name": "_chainIds",
          "type": "uint256[]"
        },
        {
          "internalType": "uint256",
          "name": "_sharePerc",
          "type": "uint256"
        },
        {
          "internalType": "uint256",
          "name": "_minterNonce",
          "type": "uint256"
        },
        {
          "internalType": "bytes",
          "name": "_signature",
          "type": "bytes"
        }
      ],
      "name": "withdraw",
      "outputs": [
        {
          "internalType": "uint256",
          "name": "_feeAmt",
          "type": "uint256"
        }
      ],
      "stateMutability": "payable",
      "type": "function"
    },
    {
      "inputs": [
        {
          "internalType": "address",
          "name": "_account",
          "type": "address"
        },
        {
          "internalType": "uint256",
          "name": "_sharePerc",
          "type": "uint256"
        },
        {
          "internalType": "uint256",
          "name": "_minterNonce",
          "type": "uint256"
        }
      ],
      "name": "withdrawPercByAgent",
      "outputs": [],
      "stateMutability": "nonpayable",
      "type": "function"
    },
    {
      "stateMutability": "payable",
      "type": "receive"
    }
  ],
  "transactionHash": "0x9274504493778c4215a59226639e8b044e88b6034db5cef8462cc5b3f45f3147",
  "args": [],
  "numDeployments": 1,
  "solcInputHash": "aa8af62c39c4987602902032509083cd",
  "bytecode": "0x608060405234801561001057600080fd5b50614333806100206000396000f3fe6080604052600436106102975760003560e01c806380a5a3711161015a578063c7205bce116100c1578063e9e81a6a1161007a578063e9e81a6a1461085c578063f2ea16181461087c578063f2fde38b146108b3578063f77de486146108d3578063f7bb364c146108f3578063f851a4401461090e57600080fd5b8063c7205bce146107a3578063ca15c873146107c3578063d547741f146107e3578063d843a40014610803578063db7fd40814610829578063e629f7b31461083c57600080fd5b8063918f1a5c11610113578063918f1a5c146106ec57806391d14854146106ff578063a217fddf1461071f578063a99c68c514610734578063af3da2f414610762578063c54e44eb1461078257600080fd5b806380a5a37114610653578063847627391461066657806386355d961461067957806389a302711461068c5780638da5cb5b146106ad5780639010d07c146106cc57600080fd5b8063486ff0cd116101fe5780636687977f116101b75780636687977f146105865780636e5677ce146105995780636ebf33ce146105b9578063715018a6146105f05780637da0a877146106055780637ecebe001461062557600080fd5b8063486ff0cd146104a0578063572b6c05146104d057806357cdd7f9146104ff578063582489cb14610520578063582712b11461054e5780635c975abb1461056e57600080fd5b8063248a9ca311610250578063248a9ca31461039957806328054fb7146103c95780632f2ff15d146103eb5780632ff33e1a1461040b57806336568abe1461044257806339dacedb1461046257600080fd5b8063013dee70146102a357806301ffc9a7146102e157806302a882e6146103115780630c3a18211461034157806319463093146103625780631a5787d81461038257600080fd5b3661029e57005b600080fd5b3480156102af57600080fd5b50610195546102c4906001600160a01b031681565b6040516001600160a01b0390911681526020015b60405180910390f35b3480156102ed57600080fd5b506103016102fc366004613542565b61092f565b60405190151581526020016102d8565b34801561031d57600080fd5b506103336000805160206142de83398151915281565b6040519081526020016102d8565b34801561034d57600080fd5b50610166546102c4906001600160a01b031681565b34801561036e57600080fd5b5061033361037d366004613621565b61095a565b34801561038e57600080fd5b506103336101925481565b3480156103a557600080fd5b506103336103b4366004613655565b60009081526097602052604090206001015490565b3480156103d557600080fd5b506103e96103e4366004613697565b6109a6565b005b3480156103f757600080fd5b506103e96104063660046136d5565b610d75565b34801561041757600080fd5b506102c4610426366004613655565b610194602052600090815260409020546001600160a01b031681565b34801561044e57600080fd5b506103e961045d3660046136d5565b610d9f565b34801561046e57600080fd5b5061049361047d366004613655565b61016a6020526000908152604090205460ff1681565b6040516102d89190613739565b3480156104ac57600080fd5b5060408051808201825260018152603160f81b602082015290516102d89190613778565b3480156104dc57600080fd5b506103016104eb3660046137ab565b6000546001600160a01b0391821691161490565b34801561050b57600080fd5b50610167546102c4906001600160a01b031681565b34801561052c57600080fd5b5061033361053b3660046137ab565b6101656020526000908152604090205481565b34801561055a57600080fd5b506103e96105693660046138af565b610e2d565b34801561057a57600080fd5b5060fb5460ff16610301565b610333610594366004613974565b610ec6565b3480156105a557600080fd5b506103e96105b43660046139f1565b610fae565b3480156105c557600080fd5b506102c46105d4366004613655565b610169602052600090815260409020546001600160a01b031681565b3480156105fc57600080fd5b506103e9611090565b34801561061157600080fd5b506000546102c4906001600160a01b031681565b34801561063157600080fd5b506103336106403660046137ab565b6101606020526000908152604090205481565b610333610661366004613a3c565b611116565b6103336106743660046139f1565b611234565b610333610687366004613a8e565b611379565b34801561069857600080fd5b50610162546102c4906001600160a01b031681565b3480156106b957600080fd5b5061012d546001600160a01b03166102c4565b3480156106d857600080fd5b506102c46106e7366004613b4a565b61149f565b6103336106fa366004613b6c565b6114be565b34801561070b57600080fd5b5061030161071a3660046136d5565b611504565b34801561072b57600080fd5b50610333600081565b34801561074057600080fd5b5061033361074f3660046137ab565b6101646020526000908152604090205481565b34801561076e57600080fd5b506103e961077d366004613c45565b61152f565b34801561078e57600080fd5b50610163546102c4906001600160a01b031681565b3480156107af57600080fd5b506103016107be366004613c71565b6115b9565b3480156107cf57600080fd5b506103336107de366004613655565b611746565b3480156107ef57600080fd5b506103e96107fe3660046136d5565b61175d565b34801561080f57600080fd5b50610193546102c49061010090046001600160a01b031681565b6103336108373660046139f1565b611782565b34801561084857600080fd5b506103e9610857366004613cd0565b6118c7565b34801561086857600080fd5b506103e9610877366004613cd0565b611950565b34801561088857600080fd5b506102c4610897366004613655565b610168602052600090815260409020546001600160a01b031681565b3480156108bf57600080fd5b506103e96108ce3660046137ab565b611994565b3480156108df57600080fd5b506103e96108ee3660046137ab565b611a7f565b3480156108ff57600080fd5b50610193546103019060ff1681565b34801561091a57600080fd5b5061015f546102c4906001600160a01b031681565b60006001600160e01b03198216635a05180f60e01b1480610954575061095482611b01565b92915050565b805160209182012060015460408051601960f81b81860152600160f81b602182015260228101929092526042808301939093528051808303909301835260629091019052805191012090565b6000805160206142de8339815191526109be81611b36565b6001600160a01b038416600090815261016560205260409020548015610d6e57600084815261016960205260409020546001600160a01b031680610a3e5760405162461bcd60e51b8152602060048201526012602482015271125b9d985b1a59081d5cd95c881859d95b9d60721b60448201526064015b60405180910390fd5b604080516001808252818301909252600091602080830190803683370190505090508281600081518110610a7457610a74613d05565b60209081029190910101526040805160018082528183019092526000918160200160208202803683370190505090508681600081518110610ab757610ab7613d05565b60209081029190910101526040805160018082528183019092526000918160200160208202803683370190505090508381600081518110610afa57610afa613d05565b6001600160a01b0392909216602092830291909101909101526040805160018082528183019092526000918160200160208202803683370190505090508781600081518110610b4b57610b4b613d05565b60200260200101906001811115610b6457610b64613705565b90816001811115610b7757610b77613705565b9052506000610b8d8b8287878787600180611b47565b6101615461016354604051631d1c6b8360e11b81526001600160a01b03918216600482015260248101849052929350600092911690633a38d7069060440160206040518083038186803b158015610be357600080fd5b505afa158015610bf7573d6000803e3d6000fd5b505050506040513d601f19601f82011682018060405250810190610c1b9190613d1b565b905080881115610d66576101615461016354604051632f66c82160e21b81526000926001600160a01b039081169263bd9b208492610c63929091169086908890600401613d34565b602060405180830381600087803b158015610c7d57600080fd5b505af1158015610c91573d6000803e3d6000fd5b505050506040513d601f19601f82011682018060405250810190610cb59190613d1b565b9050610cc1818a613d6b565b87600081518110610cd457610cd4613d05565b6020908102919091018101919091526001600160a01b038e16600090815261016590915260408120819055610d11908e9089898989600185611b47565b506001600160a01b038d168c8a7f4b435ccc56b601078848376dd01c26d5427d126f72431adea9e4ee614129cd394661016354604080519283526001600160a01b0390911660208301520160405180910390a4505b505050505050505b5050505050565b600082815260976020526040902060010154610d9081611b36565b610d9a8383611c27565b505050565b610da7611c49565b6001600160a01b0316816001600160a01b031614610e1f5760405162461bcd60e51b815260206004820152602f60248201527f416363657373436f6e74726f6c3a2063616e206f6e6c792072656e6f756e636560448201526e103937b632b9903337b91039b2b63360891b6064820152608401610a35565b610e298282611c58565b5050565b6000805160206142de833981519152610e4581611b36565b46600090815261019460205260409081902054905163582712b160e01b81526001600160a01b0390911690819063582712b190610e8c908990899089908990600401613df6565b600060405180830381600087803b158015610ea657600080fd5b505af1158015610eba573d6000803e3d6000fd5b50505050505050505050565b600080610ed1611c49565b6001600160a01b038116600090815261016060209081526040918290205491519293509091610f2b91610f0e91859185918d918d918d9101613e63565b604051602081830303815290604052805190602001208686611c7a565b60005b8851811015610f7a57610f5c838a8381518110610f4d57610f4d613d05565b60200260200101518a8a611cee565b610f669085613e9c565b935080610f7281613eb4565b915050610f2e565b50610f86816001613e9c565b6001600160a01b03909216600090815261016060205260409020919091555095945050505050565b6000610fb8611c49565b6001600160a01b03811660009081526101606020908152604091829020549151929350909161100e91610ff191859185918a9101613ecf565b604051602081830303815290604052805190602001208585611c7a565b6001600160a01b038216600090815261016560205260408120546110329087613e9c565b6001600160a01b03808516600090815261016560205260408120556101635491925061106091168483611d6c565b61106b826001613e9c565b6001600160a01b03909316600090815261016060205260409020929092555050505050565b611098611c49565b6001600160a01b03166110b461012d546001600160a01b031690565b6001600160a01b03161461110a5760405162461bcd60e51b815260206004820181905260248201527f4f776e61626c653a2063616c6c6572206973206e6f7420746865206f776e65726044820152606401610a35565b6111146000611dbe565b565b600080611121611c49565b6001600160a01b038116600090815261016060209081526040918290205491516bffffffffffffffffffffffff19606085901b16918101919091526034810182905260548101899052607481018890529192509061118190609401610f0e565b6101935460ff16156111fd576101935460405163e629f7b360e01b81526101009091046001600160a01b03169063e629f7b3906111c69085908b908b90600401613d34565b600060405180830381600087803b1580156111e057600080fd5b505af11580156111f4573d6000803e3d6000fd5b50505050611202565b600092505b61120d816001613e9c565b6001600160a01b039092166000908152610160602052604090209190915550949350505050565b60008061123f611c49565b6001600160a01b03811660009081526101606020908152604091829020549151929350909161127891610f0e91859185918b9101613ecf565b6101935460ff16156112ef5761019354604051637bbef24360e11b81526001600160a01b0384811660048301526101009092049091169063f77de48690602401600060405180830381600087803b1580156112d257600080fd5b505af11580156112e6573d6000803e3d6000fd5b505050506112f4565b600092505b6001600160a01b038216600090815261016560205260408120546113189088613e9c565b6001600160a01b03808516600090815261016560205260408120556101635491925061134691168483611d6c565b611351826001613e9c565b6001600160a01b03909316600090815261016060205260409020929092555090949350505050565b600061138760fb5460ff1690565b156113c75760405162461bcd60e51b815260206004820152601060248201526f14185d5cd8589b194e881c185d5cd95960821b6044820152606401610a35565b60006113d1611c49565b6001600160a01b03811660009081526101606020908152604091829020549151929350909161141091610f0e91859185918e918e918e918e9101613ef9565b6000806000806114238d8d8d6000611e11565b93509350935093505b83156114665761143f868585858e611fee565b6114499088613e9c565b96506114578d8d8d84611e11565b9296509094509250905061142c565b611471856001613e9c565b6001600160a01b039096166000908152610160602052604090209590955550939a9950505050505050505050565b600082815260c9602052604081206114b79083612231565b9392505050565b6000806114c9611c49565b6001600160a01b0381166000908152610160602090815260409182902054915192935090916111fd91610f0e91859185918c918c9101613f6c565b60009182526097602090815260408084206001600160a01b0393909316845291905290205460ff1690565b6000805160206142de83398151915261154781611b36565b61019354604051632bcf68bd60e21b81526001600160a01b038581166004830152602482018590526101009092049091169063af3da2f490604401600060405180830381600087803b15801561159c57600080fd5b505af11580156115b0573d6000803e3d6000fd5b50505050505050565b6000806115c58561095a565b90506001600160a01b0386163b156116215761161986828787878080601f01602080910402602001604051908101604052809392919081815260200183838082843760009201919091525061223d92505050565b91505061173e565b600080600061166587878080601f016020809104026020016040519081016040528093929190818152602001838380828437600092018290525092506122d9915050565b6040517f19457468657265756d205369676e6564204d6573736167653a0a3332000000006020820152603c81018890529295509093509150600090605c0160408051601f198184030181528282528051602091820120600080855291840180845281905260ff88169284019290925260608301869052608083018590529092509060019060a0016020604051602081039080840390855afa15801561170e573d6000803e3d6000fd5b5050506020604051035190508a6001600160a01b0316816001600160a01b031614965050505050505061173e565b505b949350505050565b600081815260c960205260408120610954906122f7565b60008281526097602052604090206001015461177881611b36565b610d9a8383611c58565b600061179060fb5460ff1690565b156117d05760405162461bcd60e51b815260206004820152601060248201526f14185d5cd8589b194e881c185d5cd95960821b6044820152606401610a35565b60006117da611c49565b6001600160a01b03811660009081526101606020908152604091829020549151929350909161181391610f0e91859185918b9101613ecf565b6101935460ff16156118915761019354604051632bcf68bd60e21b81526001600160a01b038481166004830152602482018990526101009092049091169063af3da2f490604401600060405180830381600087803b15801561187457600080fd5b505af1158015611888573d6000803e3d6000fd5b50505050611896565b600092505b6118a1816001613e9c565b6001600160a01b0390921660009081526101606020526040902091909155509392505050565b6000805160206142de8339815191526118df81611b36565b6101935460405163e629f7b360e01b81526101009091046001600160a01b03169063e629f7b39061191890879087908790600401613d34565b600060405180830381600087803b15801561193257600080fd5b505af1158015611946573d6000803e3d6000fd5b5050505050505050565b6000805160206142de83398151915261196881611b36565b466000908152610194602052604090205461198e906001600160a01b0316858585612301565b50505050565b61199c611c49565b6001600160a01b03166119b861012d546001600160a01b031690565b6001600160a01b031614611a0e5760405162461bcd60e51b815260206004820181905260248201527f4f776e61626c653a2063616c6c6572206973206e6f7420746865206f776e65726044820152606401610a35565b6001600160a01b038116611a735760405162461bcd60e51b815260206004820152602660248201527f4f776e61626c653a206e6577206f776e657220697320746865207a65726f206160448201526564647265737360d01b6064820152608401610a35565b611a7c81611dbe565b50565b6000805160206142de833981519152611a9781611b36565b61019354604051637bbef24360e11b81526001600160a01b0384811660048301526101009092049091169063f77de48690602401600060405180830381600087803b158015611ae557600080fd5b505af1158015611af9573d6000803e3d6000fd5b505050505050565b60006001600160e01b03198216637965db0b60e01b148061095457506301ffc9a760e01b6001600160e01b0319831614610954565b611a7c81611b42611c49565b6124a0565b6000806000806000806000611b5f8d8d8d8d8d612504565b949a5092985090965094509250905087158015611b7d575060008651115b15611bfd5761016660009054906101000a90046001600160a01b03166001600160a01b03166365a130b48f8888886040518563ffffffff1660e01b8152600401611bca9493929190613fcf565b600060405180830381600087803b158015611be457600080fd5b505af1158015611bf8573d6000803e3d6000fd5b505050505b825115611c1557611c128f8f8585858d6129b2565b96505b50505050505098975050505050505050565b611c318282612ba6565b600082815260c960205260409020610d9a9082612c2d565b6000611c53612c42565b905090565b611c628282612c76565b600082815260c960205260409020610d9a9082612cfb565b61015f546040805160208101869052611cae926001600160a01b0316910160405160208183030381529060405284846115b9565b610d9a5760405162461bcd60e51b8152602060048201526011602482015270496e76616c6964207369676e617475726560781b6044820152606401610a35565b600083815261019460205260408120546001600160a01b031680611d475760405162461bcd60e51b815260206004820152601060248201526f125b9d985b1a5908189b9a55985d5b1d60821b6044820152606401610a35565b46851415611d6057611d5b81878686612301565b61173c565b50600095945050505050565b604080516001600160a01b038416602482015260448082018490528251808303909101815260649091019091526020810180516001600160e01b031663a9059cbb60e01b179052610d9a908490612d10565b61012d80546001600160a01b038381166001600160a01b0319831681179093556040519116919082907f8be0079c531659141344cd1fd0a4f28419497f9722a3daafe3b4186f6b6457e090600090a35050565b83516000906060908190839081865b82811015611e935786611e4e578a8181518110611e3f57611e3f613d05565b60200260200101519650611e73565b8a8181518110611e6057611e60613d05565b60200260200101518714611e7357611e93565b81611e7d81613eb4565b9250508080611e8b90613eb4565b915050611e20565b50611e9e8188613e9c565b92508015611fe157806001600160401b03811115611ebe57611ebe61356c565b604051908082528060200260200182016040528015611ee7578160200160208202803683370190505b509450806001600160401b03811115611f0257611f0261356c565b604051908082528060200260200182016040528015611f2b578160200160208202803683370190505b50935060009050865b83811015611fdf57898181518110611f4e57611f4e613d05565b6020026020010151868381518110611f6857611f68613d05565b60200260200101906001600160a01b031690816001600160a01b031681525050888181518110611f9a57611f9a613d05565b6020026020010151858381518110611fb457611fb4613d05565b602090810291909101015281611fc981613eb4565b9250508080611fd790613eb4565b915050611f34565b505b5050945094509450949050565b600084815261019460205260408120546001600160a01b0316806120475760405162461bcd60e51b815260206004820152601060248201526f125b9d985b1a5908189b9a55985d5b1d60821b6044820152606401610a35565b46861415612222576001600160a01b0387166000908152610165602052604081205490805b86518110156120ae5786818151811061208757612087613d05565b60200260200101518261209a9190613e9c565b9150806120a681613eb4565b91505061206c565b50610163546040805163313ce56760e01b815290516006926001600160a01b03169163313ce567916004808301926020929190829003018186803b1580156120f557600080fd5b505afa158015612109573d6000803e3d6000fd5b505050506040513d601f19601f8201168201806040525081019061212d9190614017565b612137919061403a565b61214290600a614141565b61214c9082614150565b9050808210156121955760405162461bcd60e51b8152602060048201526014602482015273496e73756666696369656e742062616c616e636560601b6044820152606401610a35565b61219f8183613d6b565b6001600160a01b03808b16600090815261016560205260409081902092909255905163582712b160e01b81529084169063582712b1906121e9908c908b908b908b90600401613df6565b600060405180830381600087803b15801561220357600080fd5b505af1158015612217573d6000803e3d6000fd5b505050505050612227565b600091505b5095945050505050565b60006114b78383612de2565b600080856001600160a01b031663e75235b86040518163ffffffff1660e01b815260040160206040518083038186803b15801561227957600080fd5b505afa15801561228d573d6000803e3d6000fd5b505050506040513d601f19601f820116820180604052508101906122b19190613d1b565b9050806122c257600091505061173e565b6122cf8686868685612e0c565b9695505050505050565b60419081029190910160208101516040820151919092015160ff1692565b6000610954825490565b610163546040516370a0823160e01b81523060048201526000916001600160a01b0316906370a082319060240160206040518083038186803b15801561234657600080fd5b505afa15801561235a573d6000803e3d6000fd5b505050506040513d601f19601f8201168201806040525081019061237e9190613d1b565b6040516374f40d3560e11b81529091506001600160a01b0386169063e9e81a6a906123b190879087908790600401613d34565b600060405180830381600087803b1580156123cb57600080fd5b505af11580156123df573d6000803e3d6000fd5b5050610163546040516370a0823160e01b81523060048201528493506001600160a01b0390911691506370a082319060240160206040518083038186803b15801561242957600080fd5b505afa15801561243d573d6000803e3d6000fd5b505050506040513d601f19601f820116820180604052508101906124619190613d1b565b61246b9190613d6b565b6001600160a01b0385166000908152610165602052604081208054909190612494908490613e9c565b90915550505050505050565b6124aa8282611504565b610e29576124c2816001600160a01b03166014613068565b6124cd836020613068565b6040516020016124de92919061416f565b60408051601f198184030181529082905262461bcd60e51b8252610a3591600401613778565b60608060608060608060008060005b898110156125b35760018b828151811061252f5761252f613d05565b6020026020010151600181111561254857612548613705565b1415612560578261255881613eb4565b9350506125a1565b60008b828151811061257457612574613d05565b6020026020010151600181111561258d5761258d613705565b14156125a1578161259d81613eb4565b9250505b806125ab81613eb4565b915050612513565b50816001600160401b038111156125cc576125cc61356c565b6040519080825280602002602001820160405280156125f5578160200160208202803683370190505b509750816001600160401b038111156126105761261061356c565b604051908082528060200260200182016040528015612639578160200160208202803683370190505b509650816001600160401b038111156126545761265461356c565b60405190808252806020026020018201604052801561267d578160200160208202803683370190505b509550806001600160401b038111156126985761269861356c565b6040519080825280602002602001820160405280156126c1578160200160208202803683370190505b509450806001600160401b038111156126dc576126dc61356c565b604051908082528060200260200182016040528015612705578160200160208202803683370190505b509350806001600160401b038111156127205761272061356c565b604051908082528060200260200182016040528015612749578160200160208202803683370190505b509250600091506000905060005b898110156129a25760018b828151811061277357612773613d05565b6020026020010151600181111561278c5761278c613705565b1415612858578d81815181106127a4576127a4613d05565b60200260200101518984815181106127be576127be613d05565b6020026020010181815250508c81815181106127dc576127dc613d05565b60200260200101518884815181106127f6576127f6613d05565b6020026020010181815250508b818151811061281457612814613d05565b602002602001015187848151811061282e5761282e613d05565b6001600160a01b03909216602092830291909101909101528261285081613eb4565b935050612990565b60008b828151811061286c5761286c613d05565b6020026020010151600181111561288557612885613705565b1415612951578d818151811061289d5761289d613d05565b60200260200101518683815181106128b7576128b7613d05565b6020026020010181815250508c81815181106128d5576128d5613d05565b60200260200101518583815181106128ef576128ef613d05565b6020026020010181815250508b818151811061290d5761290d613d05565b602002602001015184838151811061292757612927613d05565b6001600160a01b03909216602092830291909101909101528161294981613eb4565b925050612990565b60405162461bcd60e51b8152602060048201526014602482015273496e76616c69642061646170746572207479706560601b6044820152606401610a35565b8061299a81613eb4565b915050612757565b5050509550955095509550955095565b600080855190508061016760009054906101000a90046001600160a01b03166001600160a01b0316633b11ca516040518163ffffffff1660e01b815260040160206040518083038186803b158015612a0957600080fd5b505afa158015612a1d573d6000803e3d6000fd5b505050506040513d601f19601f82011682018060405250810190612a419190613d1b565b612a4b9190614150565b915082158015612a5b5750814710155b15612b9b57610167546040805163057ff68760e51b815290516000926001600160a01b03169163affed0e0916004808301926020929190829003018186803b158015612aa657600080fd5b505afa158015612aba573d6000803e3d6000fd5b505050506040513d601f19601f82011682018060405250810190612ade9190613d1b565b610167546040516319684c2d60e21b81529192506001600160a01b0316906365a130b4908590612b18908c908c908c908c90600401613fcf565b6000604051808303818588803b158015612b3157600080fd5b505af1158015612b45573d6000803e3d6000fd5b508493505050505b612b578383613e9c565b811015612b985760008181526101686020526040902080546001600160a01b0319166001600160a01b038c1617905580612b9081613eb4565b915050612b4d565b50505b509695505050505050565b612bb08282611504565b610e295760008281526097602090815260408083206001600160a01b03851684529091529020805460ff19166001179055612be9611c49565b6001600160a01b0316816001600160a01b0316837f2f8788117e7eff1d82e926ec794901d17c78024a50270940304540a733656f0d60405160405180910390a45050565b60006114b7836001600160a01b038416613203565b600060183610801590612c5f57506000546001600160a01b031633145b15612c71575060131936013560601c90565b503390565b612c808282611504565b15610e295760008281526097602090815260408083206001600160a01b03851684529091529020805460ff19169055612cb7611c49565b6001600160a01b0316816001600160a01b0316837ff6391f5c32d9c69d2a47ea670b442974b53935d1edc7fd64eb21e047a839171b60405160405180910390a45050565b60006114b7836001600160a01b038416613252565b6000612d65826040518060400160405280602081526020017f5361666545524332303a206c6f772d6c6576656c2063616c6c206661696c6564815250856001600160a01b03166133459092919063ffffffff16565b805190915015610d9a5780806020019051810190612d8391906141e4565b610d9a5760405162461bcd60e51b815260206004820152602a60248201527f5361666545524332303a204552433230206f7065726174696f6e20646964206e6044820152691bdd081cdd58d8d9595960b21b6064820152608401610a35565b6000826000018281548110612df957612df9613d05565b9060005260206000200154905092915050565b6000612e19826041614150565b83511015612e295750600061305f565b600080876001600160a01b031663a0e67e2b6040518163ffffffff1660e01b815260040160006040518083038186803b158015612e6557600080fd5b505afa158015612e79573d6000803e3d6000fd5b505050506040513d6000823e601f3d908101601f19168201604052612ea19190810190614206565b905060008080805b878110156130545760418181028a0160208101516040820151919092015160ff169550909350915083612f84579194508491612ee6886041614150565b821015612efc576000965050505050505061305f565b8851612f09836020613e9c565b1115612f1e576000965050505050505061305f565b6020828a018101518a5190918290612f37908690613e9c565b612f419190613e9c565b1115612f5757600097505050505050505061305f565b898301602001612f68888d83613354565b612f7d5760009850505050505050505061305f565b5050613025565b6040517f19457468657265756d205369676e6564204d6573736167653a0a3332000000006020820152603c81018c9052600190605c0160408051601f198184030181528282528051602091820120600084529083018083525260ff871690820152606081018590526080810184905260a0016020604051602081039080840390855afa158015613018573d6000803e3d6000fd5b5050506020604051035195505b61302f858761336e565b613042576000965050505050505061305f565b8061304c81613eb4565b915050612ea9565b600196505050505050505b95945050505050565b60606000613077836002614150565b613082906002613e9c565b6001600160401b038111156130995761309961356c565b6040519080825280601f01601f1916602001820160405280156130c3576020820181803683370190505b509050600360fc1b816000815181106130de576130de613d05565b60200101906001600160f81b031916908160001a905350600f60fb1b8160018151811061310d5761310d613d05565b60200101906001600160f81b031916908160001a9053506000613131846002614150565b61313c906001613e9c565b90505b60018111156131b4576f181899199a1a9b1b9c1cb0b131b232b360811b85600f166010811061317057613170613d05565b1a60f81b82828151811061318657613186613d05565b60200101906001600160f81b031916908160001a90535060049490941c936131ad81614294565b905061313f565b5083156114b75760405162461bcd60e51b815260206004820181905260248201527f537472696e67733a20686578206c656e67746820696e73756666696369656e746044820152606401610a35565b600081815260018301602052604081205461324a57508154600181810184556000848152602080822090930184905584548482528286019093526040902091909155610954565b506000610954565b6000818152600183016020526040812054801561333b576000613276600183613d6b565b855490915060009061328a90600190613d6b565b90508181146132ef5760008660000182815481106132aa576132aa613d05565b90600052602060002001549050808760000184815481106132cd576132cd613d05565b6000918252602080832090910192909255918252600188019052604090208390555b8554869080613300576133006142ab565b600190038181906000526020600020016000905590558560010160008681526020019081526020016000206000905560019350505050610954565b6000915050610954565b606061173e84846000856133d8565b6000806133608461095a565b905061305f8582868661223d565b8151600090815b818110156133cd57836001600160a01b031685828151811061339957613399613d05565b60200260200101516001600160a01b031614156133bb57600192505050610954565b806133c581613eb4565b915050613375565b506000949350505050565b6060824710156134395760405162461bcd60e51b815260206004820152602660248201527f416464726573733a20696e73756666696369656e742062616c616e636520666f6044820152651c8818d85b1b60d21b6064820152608401610a35565b6001600160a01b0385163b6134905760405162461bcd60e51b815260206004820152601d60248201527f416464726573733a2063616c6c20746f206e6f6e2d636f6e74726163740000006044820152606401610a35565b600080866001600160a01b031685876040516134ac91906142c1565b60006040518083038185875af1925050503d80600081146134e9576040519150601f19603f3d011682016040523d82523d6000602084013e6134ee565b606091505b50915091506134fe828286613509565b979650505050505050565b606083156135185750816114b7565b8251156135285782518084602001fd5b8160405162461bcd60e51b8152600401610a359190613778565b60006020828403121561355457600080fd5b81356001600160e01b0319811681146114b757600080fd5b634e487b7160e01b600052604160045260246000fd5b604051601f8201601f191681016001600160401b03811182821017156135aa576135aa61356c565b604052919050565b600082601f8301126135c357600080fd5b81356001600160401b038111156135dc576135dc61356c565b6135ef601f8201601f1916602001613582565b81815284602083860101111561360457600080fd5b816020850160208301376000918101602001919091529392505050565b60006020828403121561363357600080fd5b81356001600160401b0381111561364957600080fd5b61173e848285016135b2565b60006020828403121561366757600080fd5b5035919050565b6001600160a01b0381168114611a7c57600080fd5b80356002811061369257600080fd5b919050565b6000806000606084860312156136ac57600080fd5b83356136b78161366e565b9250602084013591506136cc60408501613683565b90509250925092565b600080604083850312156136e857600080fd5b8235915060208301356136fa8161366e565b809150509250929050565b634e487b7160e01b600052602160045260246000fd5b60028110611a7c57634e487b7160e01b600052602160045260246000fd5b602081016137468361371b565b91905290565b60005b8381101561376757818101518382015260200161374f565b8381111561198e5750506000910152565b602081526000825180602084015261379781604085016020870161374c565b601f01601f19169190910160400192915050565b6000602082840312156137bd57600080fd5b81356114b78161366e565b60006001600160401b038211156137e1576137e161356c565b5060051b60200190565b600082601f8301126137fc57600080fd5b8135602061381161380c836137c8565b613582565b82815260059290921b8401810191818101908684111561383057600080fd5b8286015b84811015612b9b5780356138478161366e565b8352918301918301613834565b600082601f83011261386557600080fd5b8135602061387561380c836137c8565b82815260059290921b8401810191818101908684111561389457600080fd5b8286015b84811015612b9b5780358352918301918301613898565b600080600080608085870312156138c557600080fd5b84356138d08161366e565b935060208501356001600160401b03808211156138ec57600080fd5b6138f8888389016137eb565b9450604087013591508082111561390e57600080fd5b5061391b87828801613854565b949793965093946060013593505050565b60008083601f84011261393e57600080fd5b5081356001600160401b0381111561395557600080fd5b60208301915083602082850101111561396d57600080fd5b9250929050565b60008060008060006080868803121561398c57600080fd5b85356001600160401b03808211156139a357600080fd5b6139af89838a01613854565b9650602088013595506040880135945060608801359150808211156139d357600080fd5b506139e08882890161392c565b969995985093965092949392505050565b600080600060408486031215613a0657600080fd5b8335925060208401356001600160401b03811115613a2357600080fd5b613a2f8682870161392c565b9497909650939450505050565b60008060008060608587031215613a5257600080fd5b843593506020850135925060408501356001600160401b03811115613a7657600080fd5b613a828782880161392c565b95989497509550505050565b60008060008060008060a08789031215613aa757600080fd5b86356001600160401b0380821115613abe57600080fd5b613aca8a838b01613854565b97506020890135915080821115613ae057600080fd5b613aec8a838b016137eb565b96506040890135915080821115613b0257600080fd5b613b0e8a838b01613854565b9550606089013594506080890135915080821115613b2b57600080fd5b50613b3889828a0161392c565b979a9699509497509295939492505050565b60008060408385031215613b5d57600080fd5b50508035926020909101359150565b60008060008060608587031215613b8257600080fd5b84356001600160401b0380821115613b9957600080fd5b613ba588838901613854565b9550602091508187013581811115613bbc57600080fd5b8701601f81018913613bcd57600080fd5b8035613bdb61380c826137c8565b81815260059190911b8201840190848101908b831115613bfa57600080fd5b928501925b82841015613c1f57613c1084613683565b82529285019290850190613bff565b97505050506040870135915080821115613c3857600080fd5b50613a828782880161392c565b60008060408385031215613c5857600080fd5b8235613c638161366e565b946020939093013593505050565b60008060008060608587031215613c8757600080fd5b8435613c928161366e565b935060208501356001600160401b0380821115613cae57600080fd5b613cba888389016135b2565b94506040870135915080821115613c3857600080fd5b600080600060608486031215613ce557600080fd5b8335613cf08161366e565b95602085013595506040909401359392505050565b634e487b7160e01b600052603260045260246000fd5b600060208284031215613d2d57600080fd5b5051919050565b6001600160a01b039390931683526020830191909152604082015260600190565b634e487b7160e01b600052601160045260246000fd5b600082821015613d7d57613d7d613d55565b500390565b600081518084526020808501945080840160005b83811015613dbb5781516001600160a01b031687529582019590820190600101613d96565b509495945050505050565b600081518084526020808501945080840160005b83811015613dbb57815187529582019590820190600101613dda565b6001600160a01b0385168152608060208201819052600090613e1a90830186613d82565b8281036040840152613e2c8186613dc6565b91505082606083015295945050505050565b80516000906020808401838315613dbb57815187529582019590820190600101613dda565b6001600160601b03198660601b1681528460148201526000613e886034830186613e3e565b938452505060208201526040019392505050565b60008219821115613eaf57613eaf613d55565b500190565b6000600019821415613ec857613ec8613d55565b5060010190565b60609390931b6bffffffffffffffffffffffff191683526014830191909152603482015260540190565b6001600160601b03198760601b1681528560148201526000613f1e6034830187613e3e565b8551602080880160005b83811015613f4d5781516001600160a01b031685529382019390820190600101613f28565b5050613f598388613e3e565b9586529094019998505050505050505050565b6001600160601b03198560601b1681528360148201526000613f916034830185613e3e565b8351602080860160005b83811015613fc0578151613fae8161371b565b85529382019390820190600101613f9b565b50929998505050505050505050565b613fd88561371b565b848152608060208201526000613ff16080830186613dc6565b82810360408401526140038186613dc6565b905082810360608401526134fe8185613d82565b60006020828403121561402957600080fd5b815160ff811681146114b757600080fd5b600060ff821660ff84168082101561405457614054613d55565b90039392505050565b600181815b8085111561409857816000190482111561407e5761407e613d55565b8085161561408b57918102915b93841c9390800290614062565b509250929050565b6000826140af57506001610954565b816140bc57506000610954565b81600181146140d257600281146140dc576140f8565b6001915050610954565b60ff8411156140ed576140ed613d55565b50506001821b610954565b5060208310610133831016604e8410600b841016171561411b575081810a610954565b614125838361405d565b806000190482111561413957614139613d55565b029392505050565b60006114b760ff8416836140a0565b600081600019048311821515161561416a5761416a613d55565b500290565b7f416363657373436f6e74726f6c3a206163636f756e74200000000000000000008152600083516141a781601785016020880161374c565b7001034b99036b4b9b9b4b733903937b6329607d1b60179184019182015283516141d881602884016020880161374c565b01602801949350505050565b6000602082840312156141f657600080fd5b815180151581146114b757600080fd5b6000602080838503121561421957600080fd5b82516001600160401b0381111561422f57600080fd5b8301601f8101851361424057600080fd5b805161424e61380c826137c8565b81815260059190911b8201830190838101908783111561426d57600080fd5b928401925b828410156134fe5783516142858161366e565b82529284019290840190614272565b6000816142a3576142a3613d55565b506000190190565b634e487b7160e01b600052603160045260246000fd5b600082516142d381846020870161374c565b919091019291505056fedbeb657137b1822b3d5418bea6fd641226d964b4c3871ef23546db2622258871a26469706673582212200f0bf72c54ff8183aede9174eeb6d1be2702fdb1efad80ea226195d5d4c4275364736f6c63430008090033",
  "devdoc": {
    "kind": "dev",
    "methods": {
      "burn(uint256,uint256,bytes)": {
        "details": "It calls burnByAdmin of BNIMinter.",
        "params": {
          "_pool": "total pool in USD",
          "_share": "amount of shares"
        }
      },
      "deposit(uint256[],address[],uint256[],uint256,bytes)": {
        "details": "It calls depositByAgent of BNIVaults."
      },
      "exitWithdrawal(uint256,bytes)": {
        "details": "It calls exitWithdrawalByAdmin of BNIMinter.",
        "params": {
          "_gatheredAmount": "is the amount of token that is gathered."
        }
      },
      "gather(uint256[],uint8[],bytes)": {
        "details": "It gathers withdrawn tokens of the user from user agents."
      },
      "getMessageHashForSafe(bytes)": {
        "details": "Returns hash of a message that can be signed by owners.",
        "params": {
          "message": "Message that should be hashed"
        },
        "returns": {
          "_0": "Message hash."
        }
      },
      "getRoleAdmin(bytes32)": {
        "details": "Returns the admin role that controls `role`. See {grantRole} and {revokeRole}. To change a role's admin, use {_setRoleAdmin}."
      },
      "getRoleMember(bytes32,uint256)": {
        "details": "Returns one of the accounts that have `role`. `index` must be a value between 0 and {getRoleMemberCount}, non-inclusive. Role bearers are not sorted in any particular way, and their ordering may change at any point. WARNING: When using {getRoleMember} and {getRoleMemberCount}, make sure you perform all queries on the same block. See the following https://forum.openzeppelin.com/t/iterating-over-elements-on-enumerableset-in-openzeppelin-contracts/2296[forum post] for more information."
      },
      "getRoleMemberCount(bytes32)": {
        "details": "Returns the number of accounts that have `role`. Can be used together with {getRoleMember} to enumerate all bearers of a role."
      },
      "grantRole(bytes32,address)": {
        "details": "Grants `role` to `account`. If `account` had not been already granted `role`, emits a {RoleGranted} event. Requirements: - the caller must have ``role``'s admin role."
      },
      "hasRole(bytes32,address)": {
        "details": "Returns `true` if `account` has been granted `role`."
      },
      "mint(uint256,bytes)": {
        "details": "It calls mintByAdmin of BNIMinter."
      },
      "owner()": {
        "details": "Returns the address of the current owner."
      },
      "paused()": {
        "details": "Returns true if the contract is paused, and false otherwise."
      },
      "renounceOwnership()": {
        "details": "Leaves the contract without owner. It will not be possible to call `onlyOwner` functions anymore. Can only be called by the current owner. NOTE: Renouncing ownership will leave the contract without an owner, thereby removing any functionality that is only available to the owner."
      },
      "renounceRole(bytes32,address)": {
        "details": "Revokes `role` from the calling account. Roles are often managed via {grantRole} and {revokeRole}: this function's purpose is to provide a mechanism for accounts to lose their privileges if they are compromised (such as when a trusted device is misplaced). If the calling account had been revoked `role`, emits a {RoleRevoked} event. Requirements: - the caller must be `account`."
      },
      "revokeRole(bytes32,address)": {
        "details": "Revokes `role` from `account`. If `account` had been granted `role`, emits a {RoleRevoked} event. Requirements: - the caller must have ``role``'s admin role."
      },
      "supportsInterface(bytes4)": {
        "details": "See {IERC165-supportsInterface}."
      },
      "takeOut(uint256,bytes)": {
        "details": "It takes out tokens from this agent.",
        "params": {
          "_gatheredAmount": "is the amount of token that is gathered."
        }
      },
      "transferOwnership(address)": {
        "details": "Transfers ownership of the contract to a new account (`newOwner`). Can only be called by the current owner."
      },
      "withdraw(uint256[],uint256,uint256,bytes)": {
        "details": "It calls withdrawPercByAgent of BNIVaults."
      }
    },
    "version": 1
  },
  "userdoc": {
    "kind": "user",
    "methods": {
      "exitWithdrawal(uint256,bytes)": {
        "notice": "_gatheredAmount doesn't include the balance which is withdrawan in this agent."
      },
      "isTrustedForwarder(address)": {
        "notice": "return if the forwarder is trusted to forward relayed transactions to us. the forwarder is required to verify the sender's signature, and verify the call is not a replay."
      },
      "takeOut(uint256,bytes)": {
        "notice": "_gatheredAmount doesn't include the balance which is withdrawan in this agent."
      }
    },
    "version": 1
  },
  "storageLayout": {
    "storage": [
      {
        "astId": 66453,
        "contract": "contracts/xchain/agent/BNIUserAgentSubTest.sol:BNIUserAgentSubTest",
        "label": "trustedForwarder",
        "offset": 0,
        "slot": "0",
        "type": "t_address"
      },
      {
        "astId": 713,
        "contract": "contracts/xchain/agent/BNIUserAgentSubTest.sol:BNIUserAgentSubTest",
        "label": "_initialized",
        "offset": 20,
        "slot": "0",
        "type": "t_uint8"
      },
      {
        "astId": 716,
        "contract": "contracts/xchain/agent/BNIUserAgentSubTest.sol:BNIUserAgentSubTest",
        "label": "_initializing",
        "offset": 21,
        "slot": "0",
        "type": "t_bool"
      },
      {
        "astId": 66968,
        "contract": "contracts/xchain/agent/BNIUserAgentSubTest.sol:BNIUserAgentSubTest",
        "label": "separator",
        "offset": 0,
        "slot": "1",
        "type": "t_bytes32"
      },
      {
        "astId": 67385,
        "contract": "contracts/xchain/agent/BNIUserAgentSubTest.sol:BNIUserAgentSubTest",
        "label": "__gap",
        "offset": 0,
        "slot": "2",
        "type": "t_array(t_uint256)49_storage"
      },
      {
        "astId": 3292,
        "contract": "contracts/xchain/agent/BNIUserAgentSubTest.sol:BNIUserAgentSubTest",
        "label": "__gap",
        "offset": 0,
        "slot": "51",
        "type": "t_array(t_uint256)50_storage"
      },
      {
        "astId": 3946,
        "contract": "contracts/xchain/agent/BNIUserAgentSubTest.sol:BNIUserAgentSubTest",
        "label": "__gap",
        "offset": 0,
        "slot": "101",
        "type": "t_array(t_uint256)50_storage"
      },
      {
        "astId": 184,
        "contract": "contracts/xchain/agent/BNIUserAgentSubTest.sol:BNIUserAgentSubTest",
        "label": "_roles",
        "offset": 0,
        "slot": "151",
        "type": "t_mapping(t_bytes32,t_struct(RoleData)179_storage)"
      },
      {
        "astId": 483,
        "contract": "contracts/xchain/agent/BNIUserAgentSubTest.sol:BNIUserAgentSubTest",
        "label": "__gap",
        "offset": 0,
        "slot": "152",
        "type": "t_array(t_uint256)49_storage"
      },
      {
        "astId": 33,
        "contract": "contracts/xchain/agent/BNIUserAgentSubTest.sol:BNIUserAgentSubTest",
        "label": "_roleMembers",
        "offset": 0,
        "slot": "201",
        "type": "t_mapping(t_bytes32,t_struct(AddressSet)4359_storage)"
      },
      {
        "astId": 143,
        "contract": "contracts/xchain/agent/BNIUserAgentSubTest.sol:BNIUserAgentSubTest",
        "label": "__gap",
        "offset": 0,
        "slot": "202",
        "type": "t_array(t_uint256)49_storage"
      },
      {
        "astId": 869,
        "contract": "contracts/xchain/agent/BNIUserAgentSubTest.sol:BNIUserAgentSubTest",
        "label": "_paused",
        "offset": 0,
        "slot": "251",
        "type": "t_bool"
      },
      {
        "astId": 958,
        "contract": "contracts/xchain/agent/BNIUserAgentSubTest.sol:BNIUserAgentSubTest",
        "label": "__gap",
        "offset": 0,
        "slot": "252",
        "type": "t_array(t_uint256)49_storage"
      },
      {
        "astId": 593,
        "contract": "contracts/xchain/agent/BNIUserAgentSubTest.sol:BNIUserAgentSubTest",
        "label": "_owner",
        "offset": 0,
        "slot": "301",
        "type": "t_address"
      },
      {
        "astId": 705,
        "contract": "contracts/xchain/agent/BNIUserAgentSubTest.sol:BNIUserAgentSubTest",
        "label": "__gap",
        "offset": 0,
        "slot": "302",
        "type": "t_array(t_uint256)49_storage"
      },
      {
        "astId": 59830,
        "contract": "contracts/xchain/agent/BNIUserAgentSubTest.sol:BNIUserAgentSubTest",
        "label": "admin",
        "offset": 0,
        "slot": "351",
        "type": "t_address"
      },
      {
        "astId": 59834,
        "contract": "contracts/xchain/agent/BNIUserAgentSubTest.sol:BNIUserAgentSubTest",
        "label": "nonces",
        "offset": 0,
        "slot": "352",
        "type": "t_mapping(t_address,t_uint256)"
      },
      {
        "astId": 59837,
        "contract": "contracts/xchain/agent/BNIUserAgentSubTest.sol:BNIUserAgentSubTest",
        "label": "swap",
        "offset": 0,
        "slot": "353",
        "type": "t_contract(ISwap)55898"
      },
      {
        "astId": 59840,
        "contract": "contracts/xchain/agent/BNIUserAgentSubTest.sol:BNIUserAgentSubTest",
        "label": "USDC",
        "offset": 0,
        "slot": "354",
        "type": "t_contract(IERC20Upgradeable)1707"
      },
      {
        "astId": 59843,
        "contract": "contracts/xchain/agent/BNIUserAgentSubTest.sol:BNIUserAgentSubTest",
        "label": "USDT",
        "offset": 0,
        "slot": "355",
        "type": "t_contract(IERC20Upgradeable)1707"
      },
      {
        "astId": 59847,
        "contract": "contracts/xchain/agent/BNIUserAgentSubTest.sol:BNIUserAgentSubTest",
        "label": "usdcBalances",
        "offset": 0,
        "slot": "356",
        "type": "t_mapping(t_address,t_uint256)"
      },
      {
        "astId": 59851,
        "contract": "contracts/xchain/agent/BNIUserAgentSubTest.sol:BNIUserAgentSubTest",
        "label": "usdtBalances",
        "offset": 0,
        "slot": "357",
        "type": "t_mapping(t_address,t_uint256)"
      },
      {
        "astId": 59854,
        "contract": "contracts/xchain/agent/BNIUserAgentSubTest.sol:BNIUserAgentSubTest",
        "label": "multichainAdapter",
        "offset": 0,
        "slot": "358",
        "type": "t_contract(IXChainAdapter)56205"
      },
      {
        "astId": 59857,
        "contract": "contracts/xchain/agent/BNIUserAgentSubTest.sol:BNIUserAgentSubTest",
        "label": "cbridgeAdapter",
        "offset": 0,
        "slot": "359",
        "type": "t_contract(IXChainAdapter)56205"
      },
      {
        "astId": 59861,
        "contract": "contracts/xchain/agent/BNIUserAgentSubTest.sol:BNIUserAgentSubTest",
        "label": "cbridgeSenders",
        "offset": 0,
        "slot": "360",
        "type": "t_mapping(t_uint256,t_address)"
      },
      {
        "astId": 59865,
        "contract": "contracts/xchain/agent/BNIUserAgentSubTest.sol:BNIUserAgentSubTest",
        "label": "userAgents",
        "offset": 0,
        "slot": "361",
        "type": "t_mapping(t_uint256,t_address)"
      },
      {
        "astId": 59870,
        "contract": "contracts/xchain/agent/BNIUserAgentSubTest.sol:BNIUserAgentSubTest",
        "label": "callAdapterTypes",
        "offset": 0,
        "slot": "362",
        "type": "t_mapping(t_uint256,t_enum(AdapterType)59823)"
      },
      {
        "astId": 60396,
        "contract": "contracts/xchain/agent/BNIUserAgentSubTest.sol:BNIUserAgentSubTest",
        "label": "__gap",
        "offset": 0,
        "slot": "363",
        "type": "t_array(t_uint256)39_storage"
      },
      {
        "astId": 57150,
        "contract": "contracts/xchain/agent/BNIUserAgentSubTest.sol:BNIUserAgentSubTest",
        "label": "chainIdOnLP",
        "offset": 0,
        "slot": "402",
        "type": "t_uint256"
      },
      {
        "astId": 57152,
        "contract": "contracts/xchain/agent/BNIUserAgentSubTest.sol:BNIUserAgentSubTest",
        "label": "isLPChain",
        "offset": 0,
        "slot": "403",
        "type": "t_bool"
      },
      {
        "astId": 57155,
        "contract": "contracts/xchain/agent/BNIUserAgentSubTest.sol:BNIUserAgentSubTest",
        "label": "bniMinter",
        "offset": 1,
        "slot": "403",
        "type": "t_contract(IBNIMinter)10331"
      },
      {
        "astId": 57160,
        "contract": "contracts/xchain/agent/BNIUserAgentSubTest.sol:BNIUserAgentSubTest",
        "label": "bniVaults",
        "offset": 0,
        "slot": "404",
        "type": "t_mapping(t_uint256,t_contract(IBNIVault)10378)"
      },
      {
        "astId": 57162,
        "contract": "contracts/xchain/agent/BNIUserAgentSubTest.sol:BNIUserAgentSubTest",
        "label": "subImpl",
        "offset": 0,
        "slot": "405",
        "type": "t_address"
      }
    ],
    "types": {
      "t_address": {
        "encoding": "inplace",
        "label": "address",
        "numberOfBytes": "20"
      },
      "t_array(t_bytes32)dyn_storage": {
        "base": "t_bytes32",
        "encoding": "dynamic_array",
        "label": "bytes32[]",
        "numberOfBytes": "32"
      },
      "t_array(t_uint256)39_storage": {
        "base": "t_uint256",
        "encoding": "inplace",
        "label": "uint256[39]",
        "numberOfBytes": "1248"
      },
      "t_array(t_uint256)49_storage": {
        "base": "t_uint256",
        "encoding": "inplace",
        "label": "uint256[49]",
        "numberOfBytes": "1568"
      },
      "t_array(t_uint256)50_storage": {
        "base": "t_uint256",
        "encoding": "inplace",
        "label": "uint256[50]",
        "numberOfBytes": "1600"
      },
      "t_bool": {
        "encoding": "inplace",
        "label": "bool",
        "numberOfBytes": "1"
      },
      "t_bytes32": {
        "encoding": "inplace",
        "label": "bytes32",
        "numberOfBytes": "32"
      },
      "t_contract(IBNIMinter)10331": {
        "encoding": "inplace",
        "label": "contract IBNIMinter",
        "numberOfBytes": "20"
      },
      "t_contract(IBNIVault)10378": {
        "encoding": "inplace",
        "label": "contract IBNIVault",
        "numberOfBytes": "20"
      },
      "t_contract(IERC20Upgradeable)1707": {
        "encoding": "inplace",
        "label": "contract IERC20Upgradeable",
        "numberOfBytes": "20"
      },
      "t_contract(ISwap)55898": {
        "encoding": "inplace",
        "label": "contract ISwap",
        "numberOfBytes": "20"
      },
      "t_contract(IXChainAdapter)56205": {
        "encoding": "inplace",
        "label": "contract IXChainAdapter",
        "numberOfBytes": "20"
      },
      "t_enum(AdapterType)59823": {
        "encoding": "inplace",
        "label": "enum BasicUserAgentBase.AdapterType",
        "numberOfBytes": "1"
      },
      "t_mapping(t_address,t_bool)": {
        "encoding": "mapping",
        "key": "t_address",
        "label": "mapping(address => bool)",
        "numberOfBytes": "32",
        "value": "t_bool"
      },
      "t_mapping(t_address,t_uint256)": {
        "encoding": "mapping",
        "key": "t_address",
        "label": "mapping(address => uint256)",
        "numberOfBytes": "32",
        "value": "t_uint256"
      },
      "t_mapping(t_bytes32,t_struct(AddressSet)4359_storage)": {
        "encoding": "mapping",
        "key": "t_bytes32",
        "label": "mapping(bytes32 => struct EnumerableSetUpgradeable.AddressSet)",
        "numberOfBytes": "32",
        "value": "t_struct(AddressSet)4359_storage"
      },
      "t_mapping(t_bytes32,t_struct(RoleData)179_storage)": {
        "encoding": "mapping",
        "key": "t_bytes32",
        "label": "mapping(bytes32 => struct AccessControlUpgradeable.RoleData)",
        "numberOfBytes": "32",
        "value": "t_struct(RoleData)179_storage"
      },
      "t_mapping(t_bytes32,t_uint256)": {
        "encoding": "mapping",
        "key": "t_bytes32",
        "label": "mapping(bytes32 => uint256)",
        "numberOfBytes": "32",
        "value": "t_uint256"
      },
      "t_mapping(t_uint256,t_address)": {
        "encoding": "mapping",
        "key": "t_uint256",
        "label": "mapping(uint256 => address)",
        "numberOfBytes": "32",
        "value": "t_address"
      },
      "t_mapping(t_uint256,t_contract(IBNIVault)10378)": {
        "encoding": "mapping",
        "key": "t_uint256",
        "label": "mapping(uint256 => contract IBNIVault)",
        "numberOfBytes": "32",
        "value": "t_contract(IBNIVault)10378"
      },
      "t_mapping(t_uint256,t_enum(AdapterType)59823)": {
        "encoding": "mapping",
        "key": "t_uint256",
        "label": "mapping(uint256 => enum BasicUserAgentBase.AdapterType)",
        "numberOfBytes": "32",
        "value": "t_enum(AdapterType)59823"
      },
      "t_struct(AddressSet)4359_storage": {
        "encoding": "inplace",
        "label": "struct EnumerableSetUpgradeable.AddressSet",
        "members": [
          {
            "astId": 4358,
            "contract": "contracts/xchain/agent/BNIUserAgentSubTest.sol:BNIUserAgentSubTest",
            "label": "_inner",
            "offset": 0,
            "slot": "0",
            "type": "t_struct(Set)4058_storage"
          }
        ],
        "numberOfBytes": "64"
      },
      "t_struct(RoleData)179_storage": {
        "encoding": "inplace",
        "label": "struct AccessControlUpgradeable.RoleData",
        "members": [
          {
            "astId": 176,
            "contract": "contracts/xchain/agent/BNIUserAgentSubTest.sol:BNIUserAgentSubTest",
            "label": "members",
            "offset": 0,
            "slot": "0",
            "type": "t_mapping(t_address,t_bool)"
          },
          {
            "astId": 178,
            "contract": "contracts/xchain/agent/BNIUserAgentSubTest.sol:BNIUserAgentSubTest",
            "label": "adminRole",
            "offset": 0,
            "slot": "1",
            "type": "t_bytes32"
          }
        ],
        "numberOfBytes": "64"
      },
      "t_struct(Set)4058_storage": {
        "encoding": "inplace",
        "label": "struct EnumerableSetUpgradeable.Set",
        "members": [
          {
            "astId": 4053,
            "contract": "contracts/xchain/agent/BNIUserAgentSubTest.sol:BNIUserAgentSubTest",
            "label": "_values",
            "offset": 0,
            "slot": "0",
            "type": "t_array(t_bytes32)dyn_storage"
          },
          {
            "astId": 4057,
            "contract": "contracts/xchain/agent/BNIUserAgentSubTest.sol:BNIUserAgentSubTest",
            "label": "_indexes",
            "offset": 0,
            "slot": "1",
            "type": "t_mapping(t_bytes32,t_uint256)"
          }
        ],
        "numberOfBytes": "64"
      },
      "t_uint256": {
        "encoding": "inplace",
        "label": "uint256",
        "numberOfBytes": "32"
      },
      "t_uint8": {
        "encoding": "inplace",
        "label": "uint8",
        "numberOfBytes": "1"
      }
    }
  }
}