{
  "address": "0xb0165Bb8429a63B1c8a62A4c5CeAfBEa769642Eb",
  "abi": [
    {
      "anonymous": false,
      "inputs": [
        {
          "indexed": false,
          "internalType": "uint256",
          "name": "currentWatermark",
          "type": "uint256"
        },
        {
          "indexed": false,
          "internalType": "uint256",
          "name": "lastWatermark",
          "type": "uint256"
        }
      ],
      "name": "AdjustWatermark",
      "type": "event"
    },
    {
      "anonymous": false,
      "inputs": [
        {
          "indexed": false,
          "internalType": "uint256",
          "name": "currentWatermark",
          "type": "uint256"
        },
        {
          "indexed": false,
          "internalType": "uint256",
          "name": "lastWatermark",
          "type": "uint256"
        },
        {
          "indexed": false,
          "internalType": "uint256",
          "name": "fee",
          "type": "uint256"
        }
      ],
      "name": "CollectProfitAndUpdateWatermark",
      "type": "event"
    },
    {
      "anonymous": false,
      "inputs": [
        {
          "indexed": false,
          "internalType": "address",
          "name": "caller",
          "type": "address"
        },
        {
          "indexed": false,
          "internalType": "uint256",
          "name": "amtDeposit",
          "type": "uint256"
        },
        {
          "indexed": false,
          "internalType": "address",
          "name": "tokenDeposit",
          "type": "address"
        }
      ],
      "name": "Deposit",
      "type": "event"
    },
    {
      "anonymous": false,
      "inputs": [
        {
          "indexed": false,
          "internalType": "uint8",
          "name": "version",
          "type": "uint8"
        }
      ],
      "name": "Initialized",
      "type": "event"
    },
    {
      "anonymous": false,
      "inputs": [
        {
          "indexed": true,
          "internalType": "address",
          "name": "previousOwner",
          "type": "address"
        },
        {
          "indexed": true,
          "internalType": "address",
          "name": "newOwner",
          "type": "address"
        }
      ],
      "name": "OwnershipTransferred",
      "type": "event"
    },
    {
      "anonymous": false,
      "inputs": [
        {
          "indexed": false,
          "internalType": "address",
          "name": "account",
          "type": "address"
        }
      ],
      "name": "Paused",
      "type": "event"
    },
    {
      "anonymous": false,
      "inputs": [
        {
          "indexed": false,
          "internalType": "uint256",
          "name": "pid",
          "type": "uint256"
        },
        {
          "indexed": false,
          "internalType": "uint256",
          "name": "sharePerc",
          "type": "uint256"
        },
        {
          "indexed": false,
          "internalType": "uint256",
          "name": "amount",
          "type": "uint256"
        },
        {
          "indexed": false,
          "internalType": "address",
          "name": "target",
          "type": "address"
        }
      ],
      "name": "Rebalance",
      "type": "event"
    },
    {
      "anonymous": false,
      "inputs": [
        {
          "indexed": false,
          "internalType": "uint256",
          "name": "amount",
          "type": "uint256"
        }
      ],
      "name": "Reinvest",
      "type": "event"
    },
    {
      "anonymous": false,
      "inputs": [
        {
          "indexed": false,
          "internalType": "address",
          "name": "oldAdmin",
          "type": "address"
        },
        {
          "indexed": false,
          "internalType": "address",
          "name": "newAdmin",
          "type": "address"
        }
      ],
      "name": "SetAdminWallet",
      "type": "event"
    },
    {
      "anonymous": false,
      "inputs": [
        {
          "indexed": false,
          "internalType": "address",
          "name": "oldTreasuryWallet",
          "type": "address"
        },
        {
          "indexed": false,
          "internalType": "address",
          "name": "newTreasuryWallet",
          "type": "address"
        }
      ],
      "name": "SetTreasuryWallet",
      "type": "event"
    },
    {
      "anonymous": false,
      "inputs": [
        {
          "indexed": false,
          "internalType": "uint256",
          "name": "fees",
          "type": "uint256"
        },
        {
          "indexed": false,
          "internalType": "address",
          "name": "token",
          "type": "address"
        }
      ],
      "name": "TransferredOutFees",
      "type": "event"
    },
    {
      "anonymous": false,
      "inputs": [
        {
          "indexed": false,
          "internalType": "address",
          "name": "account",
          "type": "address"
        }
      ],
      "name": "Unpaused",
      "type": "event"
    },
    {
      "anonymous": false,
      "inputs": [
        {
          "indexed": false,
          "internalType": "address",
          "name": "caller",
          "type": "address"
        },
        {
          "indexed": false,
          "internalType": "uint256",
          "name": "amtWithdraw",
          "type": "uint256"
        },
        {
          "indexed": false,
          "internalType": "address",
          "name": "tokenWithdraw",
          "type": "address"
        },
        {
          "indexed": false,
          "internalType": "uint256",
          "name": "sharePerc",
          "type": "uint256"
        }
      ],
      "name": "Withdraw",
      "type": "event"
    },
    {
      "inputs": [],
      "name": "USDT",
      "outputs": [
        {
          "internalType": "contract IERC20UpgradeableExt",
          "name": "",
          "type": "address"
        }
      ],
      "stateMutability": "view",
      "type": "function"
    },
    {
      "inputs": [],
      "name": "admin",
      "outputs": [
        {
          "internalType": "address",
          "name": "",
          "type": "address"
        }
      ],
      "stateMutability": "view",
      "type": "function"
    },
    {
      "inputs": [],
      "name": "collectProfitAndUpdateWatermark",
      "outputs": [],
      "stateMutability": "nonpayable",
      "type": "function"
    },
    {
      "inputs": [
        {
          "internalType": "address",
          "name": "_account",
          "type": "address"
        },
        {
          "internalType": "address[]",
          "name": "_tokens",
          "type": "address[]"
        },
        {
          "internalType": "uint256[]",
          "name": "_USDTAmts",
          "type": "uint256[]"
        },
        {
          "internalType": "uint256",
          "name": "_nonce",
          "type": "uint256"
        }
      ],
      "name": "deposit",
      "outputs": [],
      "stateMutability": "nonpayable",
      "type": "function"
    },
    {
      "inputs": [],
      "name": "emergencyWithdraw",
      "outputs": [],
      "stateMutability": "nonpayable",
      "type": "function"
    },
    {
      "inputs": [],
      "name": "fees",
      "outputs": [
        {
          "internalType": "uint256",
          "name": "",
          "type": "uint256"
        }
      ],
      "stateMutability": "view",
      "type": "function"
    },
    {
      "inputs": [],
      "name": "firstOperationNonce",
      "outputs": [
        {
          "internalType": "uint256",
          "name": "",
          "type": "uint256"
        }
      ],
      "stateMutability": "view",
      "type": "function"
    },
    {
      "inputs": [],
      "name": "getAPR",
      "outputs": [
        {
          "internalType": "uint256",
          "name": "",
          "type": "uint256"
        }
      ],
      "stateMutability": "view",
      "type": "function"
    },
    {
      "inputs": [],
      "name": "getAllPoolInUSD",
      "outputs": [
        {
          "internalType": "uint256",
          "name": "",
          "type": "uint256"
        }
      ],
      "stateMutability": "view",
      "type": "function"
    },
    {
      "inputs": [
        {
          "internalType": "uint256",
          "name": "_nonce",
          "type": "uint256"
        }
      ],
      "name": "getAllPoolInUSDAtNonce",
      "outputs": [
        {
          "internalType": "uint256",
          "name": "",
          "type": "uint256"
        }
      ],
      "stateMutability": "view",
      "type": "function"
    },
    {
      "inputs": [],
      "name": "getChainID",
      "outputs": [
        {
          "internalType": "uint256",
          "name": "id",
          "type": "uint256"
        }
      ],
      "stateMutability": "view",
      "type": "function"
    },
    {
      "inputs": [],
      "name": "getCurrentCompositionPerc",
      "outputs": [
        {
          "internalType": "address[]",
          "name": "tokens",
          "type": "address[]"
        },
        {
          "internalType": "uint256[]",
          "name": "percentages",
          "type": "uint256[]"
        }
      ],
      "stateMutability": "view",
      "type": "function"
    },
    {
      "inputs": [],
      "name": "getEachPoolInUSD",
      "outputs": [
        {
          "internalType": "uint256[]",
          "name": "chainIDs",
          "type": "uint256[]"
        },
        {
          "internalType": "address[]",
          "name": "tokens",
          "type": "address[]"
        },
        {
          "internalType": "uint256[]",
          "name": "pools",
          "type": "uint256[]"
        }
      ],
      "stateMutability": "view",
      "type": "function"
    },
    {
      "inputs": [],
      "name": "getUSDTPriceInUSD",
      "outputs": [
        {
          "internalType": "uint256",
          "name": "",
          "type": "uint256"
        },
        {
          "internalType": "uint8",
          "name": "",
          "type": "uint8"
        }
      ],
      "stateMutability": "view",
      "type": "function"
    },
    {
      "inputs": [
        {
          "internalType": "address",
          "name": "_treasuryWallet",
          "type": "address"
        },
        {
          "internalType": "address",
          "name": "_admin",
          "type": "address"
        },
        {
          "internalType": "address",
          "name": "_strategy",
          "type": "address"
        },
        {
          "internalType": "address",
          "name": "_priceOracle",
          "type": "address"
        },
        {
          "internalType": "address",
          "name": "_USDT",
          "type": "address"
        }
      ],
      "name": "initialize",
      "outputs": [],
      "stateMutability": "nonpayable",
      "type": "function"
    },
    {
      "inputs": [
        {
          "internalType": "address",
          "name": "forwarder",
          "type": "address"
        }
      ],
      "name": "isTrustedForwarder",
      "outputs": [
        {
          "internalType": "bool",
          "name": "",
          "type": "bool"
        }
      ],
      "stateMutability": "view",
      "type": "function"
    },
    {
      "inputs": [],
      "name": "lastOperationNonce",
      "outputs": [
        {
          "internalType": "uint256",
          "name": "",
          "type": "uint256"
        }
      ],
      "stateMutability": "view",
      "type": "function"
    },
    {
      "inputs": [
        {
          "internalType": "uint256",
          "name": "",
          "type": "uint256"
        }
      ],
      "name": "operationAmounts",
      "outputs": [
        {
          "internalType": "uint256",
          "name": "",
          "type": "uint256"
        }
      ],
      "stateMutability": "view",
      "type": "function"
    },
    {
      "inputs": [],
      "name": "owner",
      "outputs": [
        {
          "internalType": "address",
          "name": "",
          "type": "address"
        }
      ],
      "stateMutability": "view",
      "type": "function"
    },
    {
      "inputs": [],
      "name": "paused",
      "outputs": [
        {
          "internalType": "bool",
          "name": "",
          "type": "bool"
        }
      ],
      "stateMutability": "view",
      "type": "function"
    },
    {
      "inputs": [
        {
          "internalType": "uint256",
          "name": "",
          "type": "uint256"
        }
      ],
      "name": "poolAtNonce",
      "outputs": [
        {
          "internalType": "uint256",
          "name": "poolInUSD",
          "type": "uint256"
        },
        {
          "internalType": "uint256",
          "name": "ts",
          "type": "uint256"
        }
      ],
      "stateMutability": "view",
      "type": "function"
    },
    {
      "inputs": [],
      "name": "priceOracle",
      "outputs": [
        {
          "internalType": "contract IPriceOracle",
          "name": "",
          "type": "address"
        }
      ],
      "stateMutability": "view",
      "type": "function"
    },
    {
      "inputs": [],
      "name": "profitFeePerc",
      "outputs": [
        {
          "internalType": "uint256",
          "name": "",
          "type": "uint256"
        }
      ],
      "stateMutability": "view",
      "type": "function"
    },
    {
      "inputs": [
        {
          "internalType": "uint256",
          "name": "_pid",
          "type": "uint256"
        },
        {
          "internalType": "uint256",
          "name": "_sharePerc",
          "type": "uint256"
        },
        {
          "internalType": "address",
          "name": "_target",
          "type": "address"
        }
      ],
      "name": "rebalance",
      "outputs": [],
      "stateMutability": "nonpayable",
      "type": "function"
    },
    {
      "inputs": [
        {
          "internalType": "address[]",
          "name": "_tokens",
          "type": "address[]"
        },
        {
          "internalType": "uint256[]",
          "name": "_perc",
          "type": "uint256[]"
        }
      ],
      "name": "reinvest",
      "outputs": [],
      "stateMutability": "nonpayable",
      "type": "function"
    },
    {
      "inputs": [],
      "name": "renounceOwnership",
      "outputs": [],
      "stateMutability": "nonpayable",
      "type": "function"
    },
    {
      "inputs": [
        {
          "internalType": "address",
          "name": "_admin",
          "type": "address"
        }
      ],
      "name": "setAdmin",
      "outputs": [],
      "stateMutability": "nonpayable",
      "type": "function"
    },
    {
      "inputs": [
        {
          "internalType": "address",
          "name": "_biconomy",
          "type": "address"
        }
      ],
      "name": "setBiconomy",
      "outputs": [],
      "stateMutability": "nonpayable",
      "type": "function"
    },
    {
      "inputs": [
        {
          "internalType": "address",
          "name": "_priceOracle",
          "type": "address"
        }
      ],
      "name": "setPriceOracle",
      "outputs": [],
      "stateMutability": "nonpayable",
      "type": "function"
    },
    {
      "inputs": [
        {
          "internalType": "uint256",
          "name": "_profitFeePerc",
          "type": "uint256"
        }
      ],
      "name": "setProfitFeePerc",
      "outputs": [],
      "stateMutability": "nonpayable",
      "type": "function"
    },
    {
      "inputs": [
        {
          "internalType": "address",
          "name": "_strategy",
          "type": "address"
        }
      ],
      "name": "setStrategy",
      "outputs": [],
      "stateMutability": "nonpayable",
      "type": "function"
    },
    {
      "inputs": [
        {
          "internalType": "address",
          "name": "_treasuryWallet",
          "type": "address"
        }
      ],
      "name": "setTreasuryWallet",
      "outputs": [],
      "stateMutability": "nonpayable",
      "type": "function"
    },
    {
      "inputs": [],
      "name": "strategy",
      "outputs": [
        {
          "internalType": "contract IStrategy",
          "name": "",
          "type": "address"
        }
      ],
      "stateMutability": "view",
      "type": "function"
    },
    {
      "inputs": [
        {
          "internalType": "address",
          "name": "newOwner",
          "type": "address"
        }
      ],
      "name": "transferOwnership",
      "outputs": [],
      "stateMutability": "nonpayable",
      "type": "function"
    },
    {
      "inputs": [],
      "name": "treasuryWallet",
      "outputs": [
        {
          "internalType": "address",
          "name": "",
          "type": "address"
        }
      ],
      "stateMutability": "view",
      "type": "function"
    },
    {
      "inputs": [],
      "name": "trustedForwarder",
      "outputs": [
        {
          "internalType": "address",
          "name": "",
          "type": "address"
        }
      ],
      "stateMutability": "view",
      "type": "function"
    },
    {
      "inputs": [
        {
          "internalType": "address",
          "name": "",
          "type": "address"
        }
      ],
      "name": "userLastOperationNonce",
      "outputs": [
        {
          "internalType": "uint256",
          "name": "",
          "type": "uint256"
        }
      ],
      "stateMutability": "view",
      "type": "function"
    },
    {
      "inputs": [],
      "name": "versionRecipient",
      "outputs": [
        {
          "internalType": "string",
          "name": "",
          "type": "string"
        }
      ],
      "stateMutability": "pure",
      "type": "function"
    },
    {
      "inputs": [],
      "name": "watermark",
      "outputs": [
        {
          "internalType": "uint256",
          "name": "",
          "type": "uint256"
        }
      ],
      "stateMutability": "view",
      "type": "function"
    },
    {
      "inputs": [],
      "name": "withdrawFees",
      "outputs": [],
      "stateMutability": "nonpayable",
      "type": "function"
    },
    {
      "inputs": [
        {
          "internalType": "address",
          "name": "_account",
          "type": "address"
        },
        {
          "internalType": "uint256",
          "name": "_sharePerc",
          "type": "uint256"
        },
        {
          "internalType": "uint256",
          "name": "_nonce",
          "type": "uint256"
        }
      ],
      "name": "withdrawPerc",
      "outputs": [],
      "stateMutability": "nonpayable",
      "type": "function"
    }
  ],
  "transactionHash": "0x0cd6a71616e7d20f180d4d2a4c453f56367ecb0cb5fabd785fe8f0483ee2a144",
  "args": [],
  "numDeployments": 3,
  "solcInputHash": "65990422acdb912633d4fd920b593175",
  "bytecode": "0x608060405234801561001057600080fd5b506137b8806100206000396000f3fe608060405234801561001057600080fd5b50600436106102535760003560e01c80638855c91a11610146578063b47c6a27116100c3578063e63cfa3b11610087578063e63cfa3b1461050d578063efca0d0714610549578063f13dc2e214610552578063f2fde38b1461055b578063f851a4401461056e578063ffec4eb11461058157600080fd5b8063b47c6a27146104c3578063bd244af4146104e2578063c54e44eb146104ea578063c89d5b8b146104fd578063db2e21bc1461050557600080fd5b8063a8602fea1161010a578063a8602fea1461045d578063a8c62e7614610470578063a9d98f5914610483578063aae0923614610496578063ac25f689146104ad57600080fd5b80638855c91a146104145780638da5cb5b1461041d5780639af1d35a1461042e5780639b860882146104375780639d4537421461044a57600080fd5b8063476343ee116101d45780635c975abb116101985780635c975abb146103c85780636d2b3d7b146103d3578063704b6c02146103e6578063715018a6146103f95780637da0a8771461040157600080fd5b8063476343ee14610352578063486ff0cd1461035a578063530e784f1461037d578063564b81ef14610390578063572b6c051461039657600080fd5b806319dac5af1161021b57806319dac5af146102d95780632630c12f146102f957806333a100ca146103245780634626402b14610337578063470343d81461034a57600080fd5b8063057feb99146102585780630b47b7ff1461028b5780630d8b76a8146102a0578063135c494e146102b35780631459457a146102c6575b600080fd5b610278610266366004612e2a565b60d66020526000908152604090205481565b6040519081526020015b60405180910390f35b61029e610299366004612e2a565b61058a565b005b61029e6102ae366004612e58565b610634565b61029e6102c1366004612faf565b61069f565b61029e6102d436600461302d565b610b02565b6102786102e7366004612e58565b60d56020526000908152604090205481565b60cc5461030c906001600160a01b031681565b6040516001600160a01b039091168152602001610282565b61029e610332366004612e58565b610cd7565b60ce5461030c906001600160a01b031681565b61029e610de0565b61029e610e4c565b60408051808201825260018152603160f81b6020820152905161028291906130ca565b61029e61038b366004612e58565b611044565b46610278565b6103b86103a4366004612e58565b60d1546001600160a01b0391821691161490565b6040519015158152602001610282565b60655460ff166103b8565b61029e6103e13660046130fd565b6110af565b61029e6103f4366004612e58565b6112c6565b61029e611371565b60d15461030c906001600160a01b031681565b61027860d35481565b6097546001600160a01b031661030c565b61027860d05481565b61029e610445366004613136565b6113c4565b61029e61045836600461319a565b611720565b61029e61046b366004612e58565b611b37565b60cb5461030c906001600160a01b031681565b610278610491366004612e2a565b611bda565b61049e611c64565b60405161028293929190613243565b6104b5611f23565b604051610282929190613286565b6104cb611fb8565b6040805192835260ff909116602083015201610282565b61027861203a565b60c95461030c906001600160a01b031681565b6102786121dc565b61029e61225e565b61053461051b366004612e2a565b60d4602052600090815260409020805460019091015482565b60408051928352602083019190915201610282565b61027860cd5481565b61027860cf5481565b61029e610569366004612e58565b612337565b60ca5461030c906001600160a01b031681565b61027860d25481565b6105926123ee565b6001600160a01b03166105ad6097546001600160a01b031690565b6001600160a01b0316146105dc5760405162461bcd60e51b81526004016105d3906132b4565b60405180910390fd5b610bb960cd541061062f5760405162461bcd60e51b815260206004820152601760248201527f50726f666974206665652063616e6e6f74203e2033302500000000000000000060448201526064016105d3565b60cd55565b61063c6123ee565b6001600160a01b03166106576097546001600160a01b031690565b6001600160a01b03161461067d5760405162461bcd60e51b81526004016105d3906132b4565b60d180546001600160a01b0319166001600160a01b0392909216919091179055565b6097546001600160a01b03163314806106c2575060ca546001600160a01b031633145b6106de5760405162461bcd60e51b81526004016105d3906132e9565b600260015414156107315760405162461bcd60e51b815260206004820152601f60248201527f5265656e7472616e637947756172643a207265656e7472616e742063616c6c0060448201526064016105d3565b600260015560655460ff16156107595760405162461bcd60e51b81526004016105d390613316565b6001600160a01b0384166107a15760405162461bcd60e51b815260206004820152600f60248201526e125b9d985b1a59081858d8dbdd5b9d608a1b60448201526064016105d3565b8251825181146107ec5760405162461bcd60e51b815260206004820152601660248201527509cdee840dac2e8c6d040c2e4e4c2f240d8cadccee8d60531b60448201526064016105d3565b60c95460009061080890600690600160a01b900460ff16613356565b61081390600a61345d565b90506000805b8381101561089d57828682815181106108345761083461346c565b60200260200101516108469190613482565b8682815181106108585761085861346c565b6020026020010181815250508581815181106108765761087661346c565b60200260200101518261088991906134a1565b915080610895816134b9565b915050610819565b50806000106108e15760405162461bcd60e51b815260206004820152601060248201526f0416d6f756e7473206d757374203e20360841b60448201526064016105d3565b6001600160a01b038716600090815260d56020526040902054841161093a5760405162461bcd60e51b815260206004820152600f60248201526e139bdb98d9481a5cc818995a1a5b99608a1b60448201526064016105d3565b6001600160a01b038716600090815260d56020908152604080832087905586835260d690915290208190556109768461097161203a565b612422565b60c95461098e906001600160a01b031688308461246e565b600080610999611fb8565b909250905060006109ab82600a61345d565b60c95484906109c590600160a01b900460ff166012613356565b6109d090600a61345d565b6109da9087613482565b6109e49190613482565b6109ee91906134d4565b60cf5490915015610a0157610a016124d9565b600080610a0e868b6125f6565b90925090508115610a7e5760cb546040516326b89b7160e01b81526001600160a01b03909116906326b89b7190610a4b908e908590600401613286565b600060405180830381600087803b158015610a6557600080fd5b505af1158015610a79573d6000803e3d6000fd5b505050505b610a898360016127cc565b60c9546040517fe31c7b8d08ee7db0afa68782e1028ef92305caeea8626633ad44d413e30f6b2f91610ae8918f918a916001600160a01b03909116906001600160a01b0393841681526020810192909252909116604082015260600190565b60405180910390a150506001805550505050505050505050565b6000610b0e6001612845565b90508015610b26576000805461ff0019166101001790555b610b2e6128d2565b60ce80546001600160a01b038089166001600160a01b03199283161790925560ca805488841690831617905560cb805487841690831617905560cc80548684169083161790556107d060cd5560c9805492851692909116821790556040805163313ce56760e01b8152905163313ce56791600481810192602092909190829003018186803b158015610bbf57600080fd5b505afa158015610bd3573d6000803e3d6000fd5b505050506040513d601f19601f82011682018060405250810190610bf79190613507565b60c9805460ff60a01b1916600160a01b60ff9384168102919091179182905590041660061115610c695760405162461bcd60e51b815260206004820152601760248201527f5553445420646563696d616c73206d757374203e3d203600000000000000000060448201526064016105d3565b60cb5460c954610c88916001600160a01b039182169116600019612901565b8015610ccf576000805461ff0019169055604051600181527f7f26b83ff96e1f2b6a682f133852f6798a09c465da95921460cefb3847402498906020015b60405180910390a15b505050505050565b610cdf6123ee565b6001600160a01b0316610cfa6097546001600160a01b031690565b6001600160a01b031614610d205760405162461bcd60e51b81526004016105d3906132b4565b60cb80546001600160a01b0319166001600160a01b0383811691821790925560c954604051636eb1769f60e11b815230600482015260248101929092529091169063dd62ed3e9060440160206040518083038186803b158015610d8257600080fd5b505afa158015610d96573d6000803e3d6000fd5b505050506040513d601f19601f82011682018060405250810190610dba9190613522565b610ddd5760cb5460c954610ddd916001600160a01b039182169116600019612901565b50565b6097546001600160a01b0316331480610e03575060ca546001600160a01b031633145b610e1f5760405162461bcd60e51b81526004016105d3906132e9565b60655460ff1615610e425760405162461bcd60e51b81526004016105d390613316565b610e4a6124d9565b565b6097546001600160a01b0316331480610e6f575060ca546001600160a01b031633145b610e8b5760405162461bcd60e51b81526004016105d3906132e9565b60655460ff16610faf5760cb5460408051632f4912bd60e21b815290516000926001600160a01b03169163bd244af4916004808301926020929190829003018186803b158015610eda57600080fd5b505afa158015610eee573d6000803e3d6000fd5b505050506040513d601f19601f82011682018060405250810190610f129190613522565b60d0549091506000828210610f2f57670de0b6b3a7640000610f4c565b82610f4283670de0b6b3a7640000613482565b610f4c91906134d4565b60cb5460405163ed47d90960e01b8152600481018390529192506001600160a01b03169063ed47d90990602401600060405180830381600087803b158015610f9357600080fd5b505af1158015610fa7573d6000803e3d6000fd5b505050505050505b60c9546040516370a0823160e01b8152306004820152611040916001600160a01b0316906370a082319060240160206040518083038186803b158015610ff457600080fd5b505afa158015611008573d6000803e3d6000fd5b505050506040513d601f19601f8201168201806040525081019061102c9190613522565b6040805160008152602081019091526125f6565b5050565b61104c6123ee565b6001600160a01b03166110676097546001600160a01b031690565b6001600160a01b03161461108d5760405162461bcd60e51b81526004016105d3906132b4565b60cc80546001600160a01b0319166001600160a01b0392909216919091179055565b6097546001600160a01b03163314806110d2575060ca546001600160a01b031633145b6110ee5760405162461bcd60e51b81526004016105d3906132e9565b60cb5460405163778d98b360e11b815260048101859052602481018490526000916001600160a01b03169063ef1b316690604401602060405180830381600087803b15801561113c57600080fd5b505af1158015611150573d6000803e3d6000fd5b505050506040513d601f19601f820116820180604052508101906111749190613522565b905080156112c0576040805160018082528183019092526000916020808301908036833701905050905082816000815181106111b2576111b261346c565b6001600160a01b03929092166020928302919091019091015260408051600180825281830190925260009181602001602082028036833701905050905082816000815181106112035761120361346c565b602090810291909101015260cb546040516326b89b7160e01b81526001600160a01b03909116906326b89b71906112409085908590600401613286565b600060405180830381600087803b15801561125a57600080fd5b505af115801561126e573d6000803e3d6000fd5b505060408051898152602081018990529081018690526001600160a01b03871660608201527f2be1fd30870a31378112c815f24e8611c8a87ed036bce5cf5670a8e34dbf210a92506080019050610cc6565b50505050565b6112ce6123ee565b6001600160a01b03166112e96097546001600160a01b031690565b6001600160a01b03161461130f5760405162461bcd60e51b81526004016105d3906132b4565b60ca80546001600160a01b038381166001600160a01b031983168117909355604080519190921680825260208201939093527f9f0ac88be9159761bacf6c9e7c294c397ebf594607f6b3f2f70e7e0841ea68e891015b60405180910390a15050565b6113796123ee565b6001600160a01b03166113946097546001600160a01b031690565b6001600160a01b0316146113ba5760405162461bcd60e51b81526004016105d3906132b4565b610e4a6000612a2a565b6097546001600160a01b03163314806113e7575060ca546001600160a01b031633145b6114035760405162461bcd60e51b81526004016105d3906132e9565b60655460ff1661144c5760405162461bcd60e51b815260206004820152601460248201527314185d5cd8589b194e881b9bdd081c185d5cd95960621b60448201526064016105d3565b8151815181146114975760405162461bcd60e51b815260206004820152601660248201527509cdee840dac2e8c6d040c2e4e4c2f240d8cadccee8d60531b60448201526064016105d3565b61149f612a7c565b60c9546040516370a0823160e01b81523060048201526000916001600160a01b0316906370a082319060240160206040518083038186803b1580156114e357600080fd5b505afa1580156114f7573d6000803e3d6000fd5b505050506040513d601f19601f8201168201806040525081019061151b9190613522565b905080156112c05760008061152e611fb8565b9092509050600061154082600a61345d565b60c954849061155a90600160a01b900460ff166012613356565b61156590600a61345d565b61156f9087613482565b6115799190613482565b61158391906134d4565b90506000805b868110156115c0578781815181106115a3576115a361346c565b6020026020010151915080806115b8906134b9565b915050611589565b5060008667ffffffffffffffff8111156115dc576115dc612e75565b604051908082528060200260200182016040528015611605578160200160208202803683370190505b50905060005b878110156116725782878a83815181106116275761162761346c565b60200260200101516116399190613482565b61164391906134d4565b8282815181106116555761165561346c565b60209081029190910101528061166a816134b9565b91505061160b565b5060cb546040516326b89b7160e01b81526001600160a01b03909116906326b89b71906116a5908c908590600401613286565b600060405180830381600087803b1580156116bf57600080fd5b505af11580156116d3573d6000803e3d6000fd5b505050506116e28360016127cc565b6040518681527fc13e24d2b0a3bacd5d1a7c514125a1e27323abf7c86f6d36597f8752bbd7eed79060200160405180910390a1505050505050505050565b6097546001600160a01b0316331480611743575060ca546001600160a01b031633145b61175f5760405162461bcd60e51b81526004016105d3906132e9565b600260015414156117b25760405162461bcd60e51b815260206004820152601f60248201527f5265656e7472616e637947756172643a207265656e7472616e742063616c6c0060448201526064016105d3565b6002600155816117f95760405162461bcd60e51b81526020600482015260126024820152710536861726550657263206d757374203e20360741b60448201526064016105d3565b670de0b6b3a764000082111561183d5760405162461bcd60e51b81526020600482015260096024820152684f766572203130302560b81b60448201526064016105d3565b6001600160a01b038316600090815260d5602052604090205481116118965760405162461bcd60e51b815260206004820152600f60248201526e139bdb98d9481a5cc818995a1a5b99608a1b60448201526064016105d3565b6001600160a01b038316600090815260d56020908152604080832084905583835260d690915281208390556118c961203a565b90506118d58282612422565b6000670de0b6b3a76400006118ea8584613482565b6118f491906134d4565b9050600060d0548361190691906134a1565b61191883670de0b6b3a7640000613482565b61192291906134d4565b9050600061193260655460ff1690565b611a215760cb5460405163ed47d90960e01b8152600481018490526001600160a01b039091169063ed47d90990602401600060405180830381600087803b15801561197c57600080fd5b505af1158015611990573d6000803e3d6000fd5b505060c9546040516370a0823160e01b81523060048201526001600160a01b0390911692506370a08231915060240160206040518083038186803b1580156119d757600080fd5b505afa1580156119eb573d6000803e3d6000fd5b505050506040513d601f19601f82011682018060405250810190611a0f9190613522565b9050611a1c8360006127cc565b611abf565b60c9546040516370a0823160e01b8152306004820152670de0b6b3a76400009184916001600160a01b03909116906370a082319060240160206040518083038186803b158015611a7057600080fd5b505afa158015611a84573d6000803e3d6000fd5b505050506040513d601f19601f82011682018060405250810190611aa89190613522565b611ab29190613482565b611abc91906134d4565b90505b60c954611ad6906001600160a01b03168883612b15565b60c954604080516001600160a01b038a81168252602082018790529092168282015260608201889052517f457f950b75085c30ff780acd57bde642ff1316cc4aad9f286af2c1ffc4163a789181900360800190a15050600180555050505050565b611b3f6123ee565b6001600160a01b0316611b5a6097546001600160a01b031690565b6001600160a01b031614611b805760405162461bcd60e51b81526004016105d3906132b4565b60ce80546001600160a01b038381166001600160a01b031983168117909355604080519190921680825260208201939093527febcecb9db04071cf4b4ecc1e2e1e4603e74c9382d6e36c3531f0b62af4c78ed79101611365565b600060d254600014611c565760d254821015611bf857506000919050565b60d3548211611c5657815b60d2548110611c5457600081815260d460209081526040918290208251808401909352805483526001015490820181905215611c4157519392505050565b5080611c4c8161353b565b915050611c03565b505b611c5e61203a565b92915050565b606080606060cb60009054906101000a90046001600160a01b03166001600160a01b031663aae092366040518163ffffffff1660e01b815260040160006040518083038186803b158015611cb757600080fd5b505afa158015611ccb573d6000803e3d6000fd5b505050506040513d6000823e601f3d908101601f19168201604052611cf391908101906135ad565b80519193509150468167ffffffffffffffff811115611d1457611d14612e75565b604051908082528060200260200182016040528015611d3d578160200160208202803683370190505b50945060005b82811015611d7b5781868281518110611d5e57611d5e61346c565b602090810291909101015280611d73816134b9565b915050611d43565b5060c9546040516370a0823160e01b81523060048201526000916001600160a01b0316906370a082319060240160206040518083038186803b158015611dc057600080fd5b505afa158015611dd4573d6000803e3d6000fd5b505050506040513d601f19601f82011682018060405250810190611df89190613522565b9050600081118015611e0a5750600083115b15611f1b57600080611e1a611fb8565b90925090506000611e2c82600a61345d565b60c9548490611e4690600160a01b900460ff166012613356565b611e5190600a61345d565b60c9546040516370a0823160e01b81523060048201526001600160a01b03909116906370a082319060240160206040518083038186803b158015611e9457600080fd5b505afa158015611ea8573d6000803e3d6000fd5b505050506040513d601f19601f82011682018060405250810190611ecc9190613522565b611ed69190613482565b611ee09190613482565b611eea91906134d4565b90508087600081518110611f0057611f0061346c565b60200260200101818151611f1491906134a1565b9052505050505b505050909192565b60608060cb60009054906101000a90046001600160a01b03166001600160a01b0316634631b2466040518163ffffffff1660e01b815260040160006040518083038186803b158015611f7457600080fd5b505afa158015611f88573d6000803e3d6000fd5b505050506040513d6000823e601f3d908101601f19168201604052611fb091908101906135ad565b915091509091565b60cc5460c95460405163b3596f0760e01b81526001600160a01b0391821660048201526000928392169063b3596f0790602401604080518083038186803b15801561200257600080fd5b505afa158015612016573d6000803e3d6000fd5b505050506040513d601f19601f82011682018060405250810190611fb09190613668565b60008061204960655460ff1690565b1561213057600080612059611fb8565b909250905061206981600a61345d565b60c954839061208390600160a01b900460ff166012613356565b61208e90600a61345d565b60c9546040516370a0823160e01b81523060048201526001600160a01b03909116906370a082319060240160206040518083038186803b1580156120d157600080fd5b505afa1580156120e5573d6000803e3d6000fd5b505050506040513d601f19601f820116820180604052508101906121099190613522565b6121139190613482565b61211d9190613482565b61212791906134d4565b925050506121b9565b60cb60009054906101000a90046001600160a01b03166001600160a01b031663bd244af46040518163ffffffff1660e01b815260040160206040518083038186803b15801561217e57600080fd5b505afa158015612192573d6000803e3d6000fd5b505050506040513d601f19601f820116820180604052508101906121b69190613522565b90505b60d05481116121c95760006121d6565b60d0546121d69082613694565b91505090565b60cb546040805163c89d5b8b60e01b815290516000926001600160a01b03169163c89d5b8b916004808301926020929190829003018186803b15801561222157600080fd5b505afa158015612235573d6000803e3d6000fd5b505050506040513d601f19601f820116820180604052508101906122599190613522565b905090565b6097546001600160a01b0316331480612281575060ca546001600160a01b031633145b61229d5760405162461bcd60e51b81526004016105d3906132e9565b60655460ff16156122c05760405162461bcd60e51b81526004016105d390613316565b6122c8612b45565b60cb60009054906101000a90046001600160a01b03166001600160a01b031663db2e21bc6040518163ffffffff1660e01b8152600401600060405180830381600087803b15801561231857600080fd5b505af115801561232c573d6000803e3d6000fd5b5050600060cf555050565b61233f6123ee565b6001600160a01b031661235a6097546001600160a01b031690565b6001600160a01b0316146123805760405162461bcd60e51b81526004016105d3906132b4565b6001600160a01b0381166123e55760405162461bcd60e51b815260206004820152602660248201527f4f776e61626c653a206e6577206f776e657220697320746865207a65726f206160448201526564647265737360d01b60648201526084016105d3565b610ddd81612a2a565b60006018361080159061240b575060d1546001600160a01b031633145b1561241d575060131936013560601c90565b503390565b604080518082018252828152426020808301918252600086815260d49091529290922090518155905160019091015560d25461245e5760d28290555b8160d3541015611040575060d355565b6040516001600160a01b03808516602483015283166044820152606481018290526112c09085906323b872dd60e01b906084015b60408051601f198184030181529190526020810180516001600160e01b03166001600160e01b031990931692909217909152612b9e565b60cb5460408051632f4912bd60e21b815290516000926001600160a01b03169163bd244af4916004808301926020929190829003018186803b15801561251e57600080fd5b505afa158015612532573d6000803e3d6000fd5b505050506040513d601f19601f820116820180604052508101906125569190613522565b60cf549091506000818311156125af5760006125728385613694565b905061271060cd54826125859190613482565b61258f91906134d4565b91508160d060008282546125a391906134a1565b90915550505060cf8390555b60408051848152602081018490529081018290527fa3e3c8c92ed1e364d04865f99cd96c3ae8f5a7d800f4a1d8148a58c6de6f1b71906060015b60405180910390a1505050565b60d05460009060609080156127c357600080612610611fb8565b60c9549193509150600090839061263290600160a01b900460ff166012613356565b61263d90600a61345d565b6126479190613482565b61265283600a61345d565b61265c9086613482565b61266691906134d4565b875190915088908183101561268a5760009550612683838b613694565b99506126eb565b61269584600a61345d565b60c95486906126af90600160a01b900460ff166012613356565b6126ba90600a61345d565b6126c4908d613482565b6126ce9190613482565b6126d891906134d4565b6126e29087613694565b60009a90965092505b60d086905560005b8181101561275a57828b8b838151811061270f5761270f61346c565b60200260200101516127219190613482565b61272b91906134d4565b8a828151811061273d5761273d61346c565b602090810291909101015280612752816134b9565b9150506126f3565b5060ce5460c954612778916001600160a01b03918216911685612b15565b60c954604080518581526001600160a01b0390921660208301527f6e027f1905abd7233c51c9483e29a545074ed10d39db528c9791a246b26741ff910160405180910390a150505050505b50929391925050565b60cf546001821515146127fc578260cf54116127e957600061280a565b8260cf546127f79190613694565b61280a565b8260cf5461280a91906134a1565b60cf81905560408051918252602082018390527f07b7fa586c4fdef11992d9448b97ba78814c23ddec7e1d4bf195fda6716e472691016125e9565b60008054610100900460ff161561288c578160ff1660011480156128685750303b155b6128845760405162461bcd60e51b81526004016105d3906136ab565b506000919050565b60005460ff8084169116106128b35760405162461bcd60e51b81526004016105d3906136ab565b506000805460ff191660ff92909216919091179055600190565b919050565b600054610100900460ff166128f95760405162461bcd60e51b81526004016105d3906136f9565b610e4a612c70565b80158061298a5750604051636eb1769f60e11b81523060048201526001600160a01b03838116602483015284169063dd62ed3e9060440160206040518083038186803b15801561295057600080fd5b505afa158015612964573d6000803e3d6000fd5b505050506040513d601f19601f820116820180604052508101906129889190613522565b155b6129f55760405162461bcd60e51b815260206004820152603660248201527f5361666545524332303a20617070726f76652066726f6d206e6f6e2d7a65726f60448201527520746f206e6f6e2d7a65726f20616c6c6f77616e636560501b60648201526084016105d3565b6040516001600160a01b038316602482015260448101829052612a2590849063095ea7b360e01b906064016124a2565b505050565b609780546001600160a01b038381166001600160a01b0319831681179093556040519116919082907f8be0079c531659141344cd1fd0a4f28419497f9722a3daafe3b4186f6b6457e090600090a35050565b60655460ff16612ac55760405162461bcd60e51b815260206004820152601460248201527314185d5cd8589b194e881b9bdd081c185d5cd95960621b60448201526064016105d3565b6065805460ff191690557f5db9ee0a495bf2e6ff9c91a7834c1ba4fdd244a5e8aa4e537bd38aeae4b073aa612af86123ee565b6040516001600160a01b03909116815260200160405180910390a1565b6040516001600160a01b038316602482015260448101829052612a2590849063a9059cbb60e01b906064016124a2565b60655460ff1615612b685760405162461bcd60e51b81526004016105d390613316565b6065805460ff191660011790557f62e78cea01bee320cd4e420270b5ea74000d11b0c9f74754ebdbfc544b05a258612af86123ee565b6000612bf3826040518060400160405280602081526020017f5361666545524332303a206c6f772d6c6576656c2063616c6c206661696c6564815250856001600160a01b0316612ca79092919063ffffffff16565b805190915015612a255780806020019051810190612c119190613744565b612a255760405162461bcd60e51b815260206004820152602a60248201527f5361666545524332303a204552433230206f7065726174696f6e20646964206e6044820152691bdd081cdd58d8d9595960b21b60648201526084016105d3565b600054610100900460ff16612c975760405162461bcd60e51b81526004016105d3906136f9565b610e4a612ca26123ee565b612a2a565b6060612cb68484600085612cc0565b90505b9392505050565b606082471015612d215760405162461bcd60e51b815260206004820152602660248201527f416464726573733a20696e73756666696369656e742062616c616e636520666f6044820152651c8818d85b1b60d21b60648201526084016105d3565b6001600160a01b0385163b612d785760405162461bcd60e51b815260206004820152601d60248201527f416464726573733a2063616c6c20746f206e6f6e2d636f6e747261637400000060448201526064016105d3565b600080866001600160a01b03168587604051612d949190613766565b60006040518083038185875af1925050503d8060008114612dd1576040519150601f19603f3d011682016040523d82523d6000602084013e612dd6565b606091505b5091509150612de6828286612df1565b979650505050505050565b60608315612e00575081612cb9565b825115612e105782518084602001fd5b8160405162461bcd60e51b81526004016105d391906130ca565b600060208284031215612e3c57600080fd5b5035919050565b6001600160a01b0381168114610ddd57600080fd5b600060208284031215612e6a57600080fd5b8135612cb981612e43565b634e487b7160e01b600052604160045260246000fd5b604051601f8201601f1916810167ffffffffffffffff81118282101715612eb457612eb4612e75565b604052919050565b600067ffffffffffffffff821115612ed657612ed6612e75565b5060051b60200190565b600082601f830112612ef157600080fd5b81356020612f06612f0183612ebc565b612e8b565b82815260059290921b84018101918181019086841115612f2557600080fd5b8286015b84811015612f49578035612f3c81612e43565b8352918301918301612f29565b509695505050505050565b600082601f830112612f6557600080fd5b81356020612f75612f0183612ebc565b82815260059290921b84018101918181019086841115612f9457600080fd5b8286015b84811015612f495780358352918301918301612f98565b60008060008060808587031215612fc557600080fd5b8435612fd081612e43565b9350602085013567ffffffffffffffff80821115612fed57600080fd5b612ff988838901612ee0565b9450604087013591508082111561300f57600080fd5b5061301c87828801612f54565b949793965093946060013593505050565b600080600080600060a0868803121561304557600080fd5b853561305081612e43565b9450602086013561306081612e43565b9350604086013561307081612e43565b9250606086013561308081612e43565b9150608086013561309081612e43565b809150509295509295909350565b60005b838110156130b95781810151838201526020016130a1565b838111156112c05750506000910152565b60208152600082518060208401526130e981604085016020870161309e565b601f01601f19169190910160400192915050565b60008060006060848603121561311257600080fd5b8335925060208401359150604084013561312b81612e43565b809150509250925092565b6000806040838503121561314957600080fd5b823567ffffffffffffffff8082111561316157600080fd5b61316d86838701612ee0565b9350602085013591508082111561318357600080fd5b5061319085828601612f54565b9150509250929050565b6000806000606084860312156131af57600080fd5b83356131ba81612e43565b95602085013595506040909401359392505050565b600081518084526020808501945080840160005b838110156131ff578151875295820195908201906001016131e3565b509495945050505050565b600081518084526020808501945080840160005b838110156131ff5781516001600160a01b03168752958201959082019060010161321e565b60608152600061325660608301866131cf565b8281036020840152613268818661320a565b9050828103604084015261327c81856131cf565b9695505050505050565b604081526000613299604083018561320a565b82810360208401526132ab81856131cf565b95945050505050565b6020808252818101527f4f776e61626c653a2063616c6c6572206973206e6f7420746865206f776e6572604082015260600190565b60208082526013908201527227b7363c9037bbb732b91037b91030b236b4b760691b604082015260600190565b60208082526010908201526f14185d5cd8589b194e881c185d5cd95960821b604082015260600190565b634e487b7160e01b600052601160045260246000fd5b600060ff821660ff84168082101561337057613370613340565b90039392505050565b600181815b808511156133b457816000190482111561339a5761339a613340565b808516156133a757918102915b93841c939080029061337e565b509250929050565b6000826133cb57506001611c5e565b816133d857506000611c5e565b81600181146133ee57600281146133f857613414565b6001915050611c5e565b60ff84111561340957613409613340565b50506001821b611c5e565b5060208310610133831016604e8410600b8410161715613437575081810a611c5e565b6134418383613379565b806000190482111561345557613455613340565b029392505050565b6000612cb960ff8416836133bc565b634e487b7160e01b600052603260045260246000fd5b600081600019048311821515161561349c5761349c613340565b500290565b600082198211156134b4576134b4613340565b500190565b60006000198214156134cd576134cd613340565b5060010190565b6000826134f157634e487b7160e01b600052601260045260246000fd5b500490565b805160ff811681146128cd57600080fd5b60006020828403121561351957600080fd5b612cb9826134f6565b60006020828403121561353457600080fd5b5051919050565b60008161354a5761354a613340565b506000190190565b600082601f83011261356357600080fd5b81516020613573612f0183612ebc565b82815260059290921b8401810191818101908684111561359257600080fd5b8286015b84811015612f495780518352918301918301613596565b600080604083850312156135c057600080fd5b825167ffffffffffffffff808211156135d857600080fd5b818501915085601f8301126135ec57600080fd5b815160206135fc612f0183612ebc565b82815260059290921b8401810191818101908984111561361b57600080fd5b948201945b8386101561364257855161363381612e43565b82529482019490820190613620565b9188015191965090935050508082111561365b57600080fd5b5061319085828601613552565b6000806040838503121561367b57600080fd5b8251915061368b602084016134f6565b90509250929050565b6000828210156136a6576136a6613340565b500390565b6020808252602e908201527f496e697469616c697a61626c653a20636f6e747261637420697320616c72656160408201526d191e481a5b9a5d1a585b1a5e995960921b606082015260800190565b6020808252602b908201527f496e697469616c697a61626c653a20636f6e7472616374206973206e6f74206960408201526a6e697469616c697a696e6760a81b606082015260800190565b60006020828403121561375657600080fd5b81518015158114612cb957600080fd5b6000825161377881846020870161309e565b919091019291505056fea26469706673582212206df9742e5584543acfb1e111b9725487040e7d5d585f5f35c8bb2ad5c0c1f3a064736f6c63430008090033",
  "devdoc": {
    "kind": "dev",
    "methods": {
      "deposit(address,address[],uint256[],uint256)": {
        "params": {
          "_USDTAmts": "amounts of USDT should be deposited to each pools. It's 6 decimals"
        }
      },
      "getUSDTPriceInUSD()": {
        "returns": {
          "_0": "the price of USDT in USD."
        }
      },
      "owner()": {
        "details": "Returns the address of the current owner."
      },
      "paused()": {
        "details": "Returns true if the contract is paused, and false otherwise."
      },
      "renounceOwnership()": {
        "details": "Leaves the contract without owner. It will not be possible to call `onlyOwner` functions anymore. Can only be called by the current owner. NOTE: Renouncing ownership will leave the contract without an owner, thereby removing any functionality that is only available to the owner."
      },
      "transferOwnership(address)": {
        "details": "Transfers ownership of the contract to a new account (`newOwner`). Can only be called by the current owner."
      },
      "withdrawPerc(address,uint256,uint256)": {
        "params": {
          "_sharePerc": "percentage of assets which should be withdrawn. It's 18 decimals"
        }
      }
    },
    "version": 1
  },
  "userdoc": {
    "kind": "user",
    "methods": {
      "deposit(address,address[],uint256[],uint256)": {
        "notice": "The length of array is based on token count. And the lengths should be same on the arraies."
      }
    },
    "version": 1
  },
  "storageLayout": {
    "storage": [
      {
        "astId": 130,
        "contract": "contracts/bni/BNIVaultTest.sol:BNIVaultTest",
        "label": "_initialized",
        "offset": 0,
        "slot": "0",
        "type": "t_uint8"
      },
      {
        "astId": 133,
        "contract": "contracts/bni/BNIVaultTest.sol:BNIVaultTest",
        "label": "_initializing",
        "offset": 1,
        "slot": "0",
        "type": "t_bool"
      },
      {
        "astId": 390,
        "contract": "contracts/bni/BNIVaultTest.sol:BNIVaultTest",
        "label": "_status",
        "offset": 0,
        "slot": "1",
        "type": "t_uint256"
      },
      {
        "astId": 434,
        "contract": "contracts/bni/BNIVaultTest.sol:BNIVaultTest",
        "label": "__gap",
        "offset": 0,
        "slot": "2",
        "type": "t_array(t_uint256)49_storage"
      },
      {
        "astId": 2709,
        "contract": "contracts/bni/BNIVaultTest.sol:BNIVaultTest",
        "label": "__gap",
        "offset": 0,
        "slot": "51",
        "type": "t_array(t_uint256)50_storage"
      },
      {
        "astId": 286,
        "contract": "contracts/bni/BNIVaultTest.sol:BNIVaultTest",
        "label": "_paused",
        "offset": 0,
        "slot": "101",
        "type": "t_bool"
      },
      {
        "astId": 375,
        "contract": "contracts/bni/BNIVaultTest.sol:BNIVaultTest",
        "label": "__gap",
        "offset": 0,
        "slot": "102",
        "type": "t_array(t_uint256)49_storage"
      },
      {
        "astId": 10,
        "contract": "contracts/bni/BNIVaultTest.sol:BNIVaultTest",
        "label": "_owner",
        "offset": 0,
        "slot": "151",
        "type": "t_address"
      },
      {
        "astId": 122,
        "contract": "contracts/bni/BNIVaultTest.sol:BNIVaultTest",
        "label": "__gap",
        "offset": 0,
        "slot": "152",
        "type": "t_array(t_uint256)49_storage"
      },
      {
        "astId": 5869,
        "contract": "contracts/bni/BNIVaultTest.sol:BNIVaultTest",
        "label": "USDT",
        "offset": 0,
        "slot": "201",
        "type": "t_contract(IERC20UpgradeableExt)5851"
      },
      {
        "astId": 5871,
        "contract": "contracts/bni/BNIVaultTest.sol:BNIVaultTest",
        "label": "usdtDecimals",
        "offset": 20,
        "slot": "201",
        "type": "t_uint8"
      },
      {
        "astId": 5873,
        "contract": "contracts/bni/BNIVaultTest.sol:BNIVaultTest",
        "label": "admin",
        "offset": 0,
        "slot": "202",
        "type": "t_address"
      },
      {
        "astId": 5876,
        "contract": "contracts/bni/BNIVaultTest.sol:BNIVaultTest",
        "label": "strategy",
        "offset": 0,
        "slot": "203",
        "type": "t_contract(IStrategy)5843"
      },
      {
        "astId": 5879,
        "contract": "contracts/bni/BNIVaultTest.sol:BNIVaultTest",
        "label": "priceOracle",
        "offset": 0,
        "slot": "204",
        "type": "t_contract(IPriceOracle)8979"
      },
      {
        "astId": 5881,
        "contract": "contracts/bni/BNIVaultTest.sol:BNIVaultTest",
        "label": "profitFeePerc",
        "offset": 0,
        "slot": "205",
        "type": "t_uint256"
      },
      {
        "astId": 5883,
        "contract": "contracts/bni/BNIVaultTest.sol:BNIVaultTest",
        "label": "treasuryWallet",
        "offset": 0,
        "slot": "206",
        "type": "t_address"
      },
      {
        "astId": 5885,
        "contract": "contracts/bni/BNIVaultTest.sol:BNIVaultTest",
        "label": "watermark",
        "offset": 0,
        "slot": "207",
        "type": "t_uint256"
      },
      {
        "astId": 5887,
        "contract": "contracts/bni/BNIVaultTest.sol:BNIVaultTest",
        "label": "fees",
        "offset": 0,
        "slot": "208",
        "type": "t_uint256"
      },
      {
        "astId": 5889,
        "contract": "contracts/bni/BNIVaultTest.sol:BNIVaultTest",
        "label": "trustedForwarder",
        "offset": 0,
        "slot": "209",
        "type": "t_address"
      },
      {
        "astId": 5891,
        "contract": "contracts/bni/BNIVaultTest.sol:BNIVaultTest",
        "label": "firstOperationNonce",
        "offset": 0,
        "slot": "210",
        "type": "t_uint256"
      },
      {
        "astId": 5893,
        "contract": "contracts/bni/BNIVaultTest.sol:BNIVaultTest",
        "label": "lastOperationNonce",
        "offset": 0,
        "slot": "211",
        "type": "t_uint256"
      },
      {
        "astId": 5898,
        "contract": "contracts/bni/BNIVaultTest.sol:BNIVaultTest",
        "label": "poolAtNonce",
        "offset": 0,
        "slot": "212",
        "type": "t_mapping(t_uint256,t_struct(PoolSnapshot)5866_storage)"
      },
      {
        "astId": 5902,
        "contract": "contracts/bni/BNIVaultTest.sol:BNIVaultTest",
        "label": "userLastOperationNonce",
        "offset": 0,
        "slot": "213",
        "type": "t_mapping(t_address,t_uint256)"
      },
      {
        "astId": 5906,
        "contract": "contracts/bni/BNIVaultTest.sol:BNIVaultTest",
        "label": "operationAmounts",
        "offset": 0,
        "slot": "214",
        "type": "t_mapping(t_uint256,t_uint256)"
      }
    ],
    "types": {
      "t_address": {
        "encoding": "inplace",
        "label": "address",
        "numberOfBytes": "20"
      },
      "t_array(t_uint256)49_storage": {
        "base": "t_uint256",
        "encoding": "inplace",
        "label": "uint256[49]",
        "numberOfBytes": "1568"
      },
      "t_array(t_uint256)50_storage": {
        "base": "t_uint256",
        "encoding": "inplace",
        "label": "uint256[50]",
        "numberOfBytes": "1600"
      },
      "t_bool": {
        "encoding": "inplace",
        "label": "bool",
        "numberOfBytes": "1"
      },
      "t_contract(IERC20UpgradeableExt)5851": {
        "encoding": "inplace",
        "label": "contract IERC20UpgradeableExt",
        "numberOfBytes": "20"
      },
      "t_contract(IPriceOracle)8979": {
        "encoding": "inplace",
        "label": "contract IPriceOracle",
        "numberOfBytes": "20"
      },
      "t_contract(IStrategy)5843": {
        "encoding": "inplace",
        "label": "contract IStrategy",
        "numberOfBytes": "20"
      },
      "t_mapping(t_address,t_uint256)": {
        "encoding": "mapping",
        "key": "t_address",
        "label": "mapping(address => uint256)",
        "numberOfBytes": "32",
        "value": "t_uint256"
      },
      "t_mapping(t_uint256,t_struct(PoolSnapshot)5866_storage)": {
        "encoding": "mapping",
        "key": "t_uint256",
        "label": "mapping(uint256 => struct BNIVault.PoolSnapshot)",
        "numberOfBytes": "32",
        "value": "t_struct(PoolSnapshot)5866_storage"
      },
      "t_mapping(t_uint256,t_uint256)": {
        "encoding": "mapping",
        "key": "t_uint256",
        "label": "mapping(uint256 => uint256)",
        "numberOfBytes": "32",
        "value": "t_uint256"
      },
      "t_struct(PoolSnapshot)5866_storage": {
        "encoding": "inplace",
        "label": "struct BNIVault.PoolSnapshot",
        "members": [
          {
            "astId": 5863,
            "contract": "contracts/bni/BNIVaultTest.sol:BNIVaultTest",
            "label": "poolInUSD",
            "offset": 0,
            "slot": "0",
            "type": "t_uint256"
          },
          {
            "astId": 5865,
            "contract": "contracts/bni/BNIVaultTest.sol:BNIVaultTest",
            "label": "ts",
            "offset": 0,
            "slot": "1",
            "type": "t_uint256"
          }
        ],
        "numberOfBytes": "64"
      },
      "t_uint256": {
        "encoding": "inplace",
        "label": "uint256",
        "numberOfBytes": "32"
      },
      "t_uint8": {
        "encoding": "inplace",
        "label": "uint8",
        "numberOfBytes": "1"
      }
    }
  }
}