{
  "address": "0x2e313A66cf9fD7B485daC1d10ABE9Cac758e9542",
  "abi": [
    {
      "anonymous": false,
      "inputs": [
        {
          "indexed": false,
          "internalType": "address",
          "name": "caller",
          "type": "address"
        },
        {
          "indexed": false,
          "internalType": "uint256",
          "name": "amtDeposit",
          "type": "uint256"
        },
        {
          "indexed": false,
          "internalType": "address",
          "name": "tokenDeposit",
          "type": "address"
        }
      ],
      "name": "Deposit",
      "type": "event"
    },
    {
      "anonymous": false,
      "inputs": [
        {
          "indexed": false,
          "internalType": "uint8",
          "name": "version",
          "type": "uint8"
        }
      ],
      "name": "Initialized",
      "type": "event"
    },
    {
      "anonymous": false,
      "inputs": [
        {
          "indexed": true,
          "internalType": "address",
          "name": "previousOwner",
          "type": "address"
        },
        {
          "indexed": true,
          "internalType": "address",
          "name": "newOwner",
          "type": "address"
        }
      ],
      "name": "OwnershipTransferred",
      "type": "event"
    },
    {
      "anonymous": false,
      "inputs": [
        {
          "indexed": false,
          "internalType": "address",
          "name": "account",
          "type": "address"
        }
      ],
      "name": "Paused",
      "type": "event"
    },
    {
      "anonymous": false,
      "inputs": [
        {
          "indexed": false,
          "internalType": "uint256",
          "name": "pid",
          "type": "uint256"
        },
        {
          "indexed": false,
          "internalType": "uint256",
          "name": "sharePerc",
          "type": "uint256"
        },
        {
          "indexed": false,
          "internalType": "uint256",
          "name": "amount",
          "type": "uint256"
        },
        {
          "indexed": false,
          "internalType": "address",
          "name": "target",
          "type": "address"
        }
      ],
      "name": "Rebalance",
      "type": "event"
    },
    {
      "anonymous": false,
      "inputs": [
        {
          "indexed": false,
          "internalType": "uint256",
          "name": "amount",
          "type": "uint256"
        }
      ],
      "name": "Reinvest",
      "type": "event"
    },
    {
      "anonymous": false,
      "inputs": [
        {
          "indexed": false,
          "internalType": "address",
          "name": "oldAdmin",
          "type": "address"
        },
        {
          "indexed": false,
          "internalType": "address",
          "name": "newAdmin",
          "type": "address"
        }
      ],
      "name": "SetAdminWallet",
      "type": "event"
    },
    {
      "anonymous": false,
      "inputs": [
        {
          "indexed": false,
          "internalType": "address",
          "name": "account",
          "type": "address"
        }
      ],
      "name": "Unpaused",
      "type": "event"
    },
    {
      "anonymous": false,
      "inputs": [
        {
          "indexed": false,
          "internalType": "address",
          "name": "caller",
          "type": "address"
        },
        {
          "indexed": false,
          "internalType": "uint256",
          "name": "amtWithdraw",
          "type": "uint256"
        },
        {
          "indexed": false,
          "internalType": "address",
          "name": "tokenWithdraw",
          "type": "address"
        },
        {
          "indexed": false,
          "internalType": "uint256",
          "name": "sharePerc",
          "type": "uint256"
        }
      ],
      "name": "Withdraw",
      "type": "event"
    },
    {
      "inputs": [],
      "name": "USDT",
      "outputs": [
        {
          "internalType": "contract IERC20UpgradeableExt",
          "name": "",
          "type": "address"
        }
      ],
      "stateMutability": "view",
      "type": "function"
    },
    {
      "inputs": [],
      "name": "admin",
      "outputs": [
        {
          "internalType": "address",
          "name": "",
          "type": "address"
        }
      ],
      "stateMutability": "view",
      "type": "function"
    },
    {
      "inputs": [
        {
          "internalType": "address",
          "name": "_account",
          "type": "address"
        },
        {
          "internalType": "address[]",
          "name": "_tokens",
          "type": "address[]"
        },
        {
          "internalType": "uint256[]",
          "name": "_USDTAmts",
          "type": "uint256[]"
        }
      ],
      "name": "deposit",
      "outputs": [],
      "stateMutability": "nonpayable",
      "type": "function"
    },
    {
      "inputs": [],
      "name": "emergencyWithdraw",
      "outputs": [],
      "stateMutability": "nonpayable",
      "type": "function"
    },
    {
      "inputs": [],
      "name": "getAPR",
      "outputs": [
        {
          "internalType": "uint256",
          "name": "",
          "type": "uint256"
        }
      ],
      "stateMutability": "view",
      "type": "function"
    },
    {
      "inputs": [],
      "name": "getAllPoolInUSD",
      "outputs": [
        {
          "internalType": "uint256",
          "name": "",
          "type": "uint256"
        }
      ],
      "stateMutability": "view",
      "type": "function"
    },
    {
      "inputs": [],
      "name": "getChainID",
      "outputs": [
        {
          "internalType": "uint256",
          "name": "id",
          "type": "uint256"
        }
      ],
      "stateMutability": "view",
      "type": "function"
    },
    {
      "inputs": [],
      "name": "getCurrentCompositionPerc",
      "outputs": [
        {
          "internalType": "address[]",
          "name": "tokens",
          "type": "address[]"
        },
        {
          "internalType": "uint256[]",
          "name": "percentages",
          "type": "uint256[]"
        }
      ],
      "stateMutability": "view",
      "type": "function"
    },
    {
      "inputs": [],
      "name": "getEachPoolInUSD",
      "outputs": [
        {
          "internalType": "uint256[]",
          "name": "chainIDs",
          "type": "uint256[]"
        },
        {
          "internalType": "address[]",
          "name": "tokens",
          "type": "address[]"
        },
        {
          "internalType": "uint256[]",
          "name": "pools",
          "type": "uint256[]"
        }
      ],
      "stateMutability": "view",
      "type": "function"
    },
    {
      "inputs": [],
      "name": "getUSDTPriceInUSD",
      "outputs": [
        {
          "internalType": "uint256",
          "name": "",
          "type": "uint256"
        },
        {
          "internalType": "uint8",
          "name": "",
          "type": "uint8"
        }
      ],
      "stateMutability": "view",
      "type": "function"
    },
    {
      "inputs": [
        {
          "internalType": "address",
          "name": "_admin",
          "type": "address"
        },
        {
          "internalType": "address",
          "name": "_strategy",
          "type": "address"
        },
        {
          "internalType": "address",
          "name": "_priceOracle",
          "type": "address"
        },
        {
          "internalType": "address",
          "name": "_USDT",
          "type": "address"
        }
      ],
      "name": "initialize",
      "outputs": [],
      "stateMutability": "nonpayable",
      "type": "function"
    },
    {
      "inputs": [],
      "name": "owner",
      "outputs": [
        {
          "internalType": "address",
          "name": "",
          "type": "address"
        }
      ],
      "stateMutability": "view",
      "type": "function"
    },
    {
      "inputs": [],
      "name": "paused",
      "outputs": [
        {
          "internalType": "bool",
          "name": "",
          "type": "bool"
        }
      ],
      "stateMutability": "view",
      "type": "function"
    },
    {
      "inputs": [],
      "name": "priceOracle",
      "outputs": [
        {
          "internalType": "contract IPriceOracle",
          "name": "",
          "type": "address"
        }
      ],
      "stateMutability": "view",
      "type": "function"
    },
    {
      "inputs": [
        {
          "internalType": "uint256",
          "name": "_pid",
          "type": "uint256"
        },
        {
          "internalType": "uint256",
          "name": "_sharePerc",
          "type": "uint256"
        },
        {
          "internalType": "address",
          "name": "_target",
          "type": "address"
        }
      ],
      "name": "rebalance",
      "outputs": [],
      "stateMutability": "nonpayable",
      "type": "function"
    },
    {
      "inputs": [
        {
          "internalType": "address[]",
          "name": "_tokens",
          "type": "address[]"
        },
        {
          "internalType": "uint256[]",
          "name": "_perc",
          "type": "uint256[]"
        }
      ],
      "name": "reinvest",
      "outputs": [],
      "stateMutability": "nonpayable",
      "type": "function"
    },
    {
      "inputs": [],
      "name": "renounceOwnership",
      "outputs": [],
      "stateMutability": "nonpayable",
      "type": "function"
    },
    {
      "inputs": [
        {
          "internalType": "address",
          "name": "_admin",
          "type": "address"
        }
      ],
      "name": "setAdmin",
      "outputs": [],
      "stateMutability": "nonpayable",
      "type": "function"
    },
    {
      "inputs": [],
      "name": "strategy",
      "outputs": [
        {
          "internalType": "contract IStrategy",
          "name": "",
          "type": "address"
        }
      ],
      "stateMutability": "view",
      "type": "function"
    },
    {
      "inputs": [
        {
          "internalType": "address",
          "name": "newOwner",
          "type": "address"
        }
      ],
      "name": "transferOwnership",
      "outputs": [],
      "stateMutability": "nonpayable",
      "type": "function"
    },
    {
      "inputs": [
        {
          "internalType": "address",
          "name": "_account",
          "type": "address"
        },
        {
          "internalType": "uint256",
          "name": "_sharePerc",
          "type": "uint256"
        }
      ],
      "name": "withdrawPerc",
      "outputs": [],
      "stateMutability": "nonpayable",
      "type": "function"
    }
  ],
  "transactionHash": "0x9d615ce004258f94ae7538743ed91497db83f65528475fb2dfe38ad631a09547",
  "args": [],
  "numDeployments": 1,
  "solcInputHash": "eb0dd19259d6f962d3a3cdb8ebd85979",
  "bytecode": "0x608060405234801561001057600080fd5b50612624806100206000396000f3fe608060405234801561001057600080fd5b50600436106101375760003560e01c8063aae09236116100b8578063c89d5b8b1161007c578063c89d5b8b1461026c578063d38d5fc414610274578063db2e21bc14610287578063f2fde38b1461028f578063f851a440146102a2578063f8c8765e146102b557600080fd5b8063aae092361461020c578063ac25f68914610223578063b47c6a2714610239578063bd244af414610251578063c54e44eb1461025957600080fd5b8063704b6c02116100ff578063704b6c02146101ba578063715018a6146101cd5780638da5cb5b146101d55780639b860882146101e6578063a8c62e76146101f957600080fd5b80632630c12f1461013c578063562fa0df1461016c578063564b81ef146101815780635c975abb146101915780636d2b3d7b146101a7575b600080fd5b60cc5461014f906001600160a01b031681565b6040516001600160a01b0390911681526020015b60405180910390f35b61017f61017a366004611e85565b6102c8565b005b465b604051908152602001610163565b60655460ff166040519015158152602001610163565b61017f6101b5366004611efb565b6105e9565b61017f6101c8366004611f34565b610807565b61017f610892565b6097546001600160a01b031661014f565b61017f6101f4366004611f51565b6108c8565b60cb5461014f906001600160a01b031681565b610214610baa565b60405161016393929190612029565b61022b610e60565b60405161016392919061206c565b604080516305f5e10081526008602082015201610163565b610183610ef5565b60c95461014f906001600160a01b031681565b61018361106a565b61017f61028236600461209a565b6110af565b61017f6113d0565b61017f61029d366004611f34565b61149e565b60ca5461014f906001600160a01b031681565b61017f6102c33660046120c6565b611539565b6097546001600160a01b03163314806102eb575060ca546001600160a01b031633145b6103105760405162461bcd60e51b815260040161030790612122565b60405180910390fd5b600260015414156103635760405162461bcd60e51b815260206004820152601f60248201527f5265656e7472616e637947756172643a207265656e7472616e742063616c6c006044820152606401610307565b600260015560655460ff161561038b5760405162461bcd60e51b81526004016103079061214f565b6001600160a01b0383166103d35760405162461bcd60e51b815260206004820152600f60248201526e125b9d985b1a59081858d8dbdd5b9d608a1b6044820152606401610307565b81518151811461041e5760405162461bcd60e51b815260206004820152601660248201527509cdee840dac2e8c6d040c2e4e4c2f240d8cadccee8d60531b6044820152606401610307565b60c95460009061043a90600690600160a01b900460ff1661218f565b61044590600a612298565b90506000805b838110156104cf5782858281518110610466576104666122a7565b602002602001015161047891906122bd565b85828151811061048a5761048a6122a7565b6020026020010181815250508481815181106104a8576104a86122a7565b6020026020010151826104bb91906122dc565b9150806104c7816122f4565b91505061044b565b50806000106105135760405162461bcd60e51b815260206004820152601060248201526f0416d6f756e7473206d757374203e20360841b6044820152606401610307565b60c95461052b906001600160a01b03168730846116f9565b60cb546040516326b89b7160e01b81526001600160a01b03909116906326b89b719061055d908890889060040161206c565b600060405180830381600087803b15801561057757600080fd5b505af115801561058b573d6000803e3d6000fd5b505060c954604080516001600160a01b038b811682526020820187905290921682820152517fe31c7b8d08ee7db0afa68782e1028ef92305caeea8626633ad44d413e30f6b2f9350908190036060019150a150506001805550505050565b6097546001600160a01b031633148061060c575060ca546001600160a01b031633145b6106285760405162461bcd60e51b815260040161030790612122565b60cb5460405163778d98b360e11b815260048101859052602481018490526000916001600160a01b03169063ef1b316690604401602060405180830381600087803b15801561067657600080fd5b505af115801561068a573d6000803e3d6000fd5b505050506040513d601f19601f820116820180604052508101906106ae919061230f565b90508015610801576040805160018082528183019092526000916020808301908036833701905050905082816000815181106106ec576106ec6122a7565b6001600160a01b039290921660209283029190910190910152604080516001808252818301909252600091816020016020820280368337019050509050828160008151811061073d5761073d6122a7565b602090810291909101015260cb546040516326b89b7160e01b81526001600160a01b03909116906326b89b719061077a908590859060040161206c565b600060405180830381600087803b15801561079457600080fd5b505af11580156107a8573d6000803e3d6000fd5b505060408051898152602081018990529081018690526001600160a01b03871660608201527f2be1fd30870a31378112c815f24e8611c8a87ed036bce5cf5670a8e34dbf210a925060800190505b60405180910390a150505b50505050565b6097546001600160a01b031633146108315760405162461bcd60e51b815260040161030790612328565b60ca80546001600160a01b038381166001600160a01b031983168117909355604080519190921680825260208201939093527f9f0ac88be9159761bacf6c9e7c294c397ebf594607f6b3f2f70e7e0841ea68e8910160405180910390a15050565b6097546001600160a01b031633146108bc5760405162461bcd60e51b815260040161030790612328565b6108c66000611764565b565b6097546001600160a01b03163314806108eb575060ca546001600160a01b031633145b6109075760405162461bcd60e51b815260040161030790612122565b60655460ff166109505760405162461bcd60e51b815260206004820152601460248201527314185d5cd8589b194e881b9bdd081c185d5cd95960621b6044820152606401610307565b81518151811461099b5760405162461bcd60e51b815260206004820152601660248201527509cdee840dac2e8c6d040c2e4e4c2f240d8cadccee8d60531b6044820152606401610307565b6109a36117b6565b60c9546040516370a0823160e01b81523060048201526000916001600160a01b0316906370a082319060240160206040518083038186803b1580156109e757600080fd5b505afa1580156109fb573d6000803e3d6000fd5b505050506040513d601f19601f82011682018060405250810190610a1f919061230f565b90508015610801576000805b83811015610a6257848181518110610a4557610a456122a7565b602002602001015191508080610a5a906122f4565b915050610a2b565b5060008367ffffffffffffffff811115610a7e57610a7e611d4b565b604051908082528060200260200182016040528015610aa7578160200160208202803683370190505b50905060005b84811015610b14578284878381518110610ac957610ac96122a7565b6020026020010151610adb91906122bd565b610ae5919061235d565b828281518110610af757610af76122a7565b602090810291909101015280610b0c816122f4565b915050610aad565b5060cb546040516326b89b7160e01b81526001600160a01b03909116906326b89b7190610b47908990859060040161206c565b600060405180830381600087803b158015610b6157600080fd5b505af1158015610b75573d6000803e3d6000fd5b505050507fc13e24d2b0a3bacd5d1a7c514125a1e27323abf7c86f6d36597f8752bbd7eed7836040516107f691815260200190565b606080606060cb60009054906101000a90046001600160a01b03166001600160a01b031663aae092366040518163ffffffff1660e01b815260040160006040518083038186803b158015610bfd57600080fd5b505afa158015610c11573d6000803e3d6000fd5b505050506040513d6000823e601f3d908101601f19168201604052610c3991908101906123da565b80519193509150468167ffffffffffffffff811115610c5a57610c5a611d4b565b604051908082528060200260200182016040528015610c83578160200160208202803683370190505b50945060005b82811015610cc15781868281518110610ca457610ca46122a7565b602090810291909101015280610cb9816122f4565b915050610c89565b5060c9546040516370a0823160e01b81523060048201526000916001600160a01b0316906370a082319060240160206040518083038186803b158015610d0657600080fd5b505afa158015610d1a573d6000803e3d6000fd5b505050506040513d601f19601f82011682018060405250810190610d3e919061230f565b9050600081118015610d505750600083115b15610e58576305f5e10060086000610d6982600a612298565b60c9548490610d8390600160a01b900460ff16601261218f565b610d8e90600a612298565b60c9546040516370a0823160e01b81523060048201526001600160a01b03909116906370a082319060240160206040518083038186803b158015610dd157600080fd5b505afa158015610de5573d6000803e3d6000fd5b505050506040513d601f19601f82011682018060405250810190610e09919061230f565b610e1391906122bd565b610e1d91906122bd565b610e27919061235d565b90508087600081518110610e3d57610e3d6122a7565b60200260200101818151610e5191906122dc565b9052505050505b505050909192565b60608060cb60009054906101000a90046001600160a01b03166001600160a01b0316634631b2466040518163ffffffff1660e01b815260040160006040518083038186803b158015610eb157600080fd5b505afa158015610ec5573d6000803e3d6000fd5b505050506040513d6000823e601f3d908101601f19168201604052610eed91908101906123da565b915091509091565b6000610f0360655460ff1690565b15610fdf576305f5e1006008610f1a81600a612298565b60c9548390610f3490600160a01b900460ff16601261218f565b610f3f90600a612298565b60c9546040516370a0823160e01b81523060048201526001600160a01b03909116906370a082319060240160206040518083038186803b158015610f8257600080fd5b505afa158015610f96573d6000803e3d6000fd5b505050506040513d601f19601f82011682018060405250810190610fba919061230f565b610fc491906122bd565b610fce91906122bd565b610fd8919061235d565b9250505090565b60cb60009054906101000a90046001600160a01b03166001600160a01b031663bd244af46040518163ffffffff1660e01b815260040160206040518083038186803b15801561102d57600080fd5b505afa158015611041573d6000803e3d6000fd5b505050506040513d601f19601f82011682018060405250810190611065919061230f565b905090565b60cb546040805163c89d5b8b60e01b815290516000926001600160a01b03169163c89d5b8b916004808301926020929190829003018186803b15801561102d57600080fd5b6097546001600160a01b03163314806110d2575060ca546001600160a01b031633145b6110ee5760405162461bcd60e51b815260040161030790612122565b600260015414156111415760405162461bcd60e51b815260206004820152601f60248201527f5265656e7472616e637947756172643a207265656e7472616e742063616c6c006044820152606401610307565b6002600155806111885760405162461bcd60e51b81526020600482015260126024820152710536861726550657263206d757374203e20360741b6044820152606401610307565b670de0b6b3a76400008111156111cc5760405162461bcd60e51b81526020600482015260096024820152684f766572203130302560b81b6044820152606401610307565b60006111da60655460ff1690565b6112be5760cb5460405163ed47d90960e01b8152600481018490526001600160a01b039091169063ed47d90990602401600060405180830381600087803b15801561122457600080fd5b505af1158015611238573d6000803e3d6000fd5b505060c9546040516370a0823160e01b81523060048201526001600160a01b0390911692506370a08231915060240160206040518083038186803b15801561127f57600080fd5b505afa158015611293573d6000803e3d6000fd5b505050506040513d601f19601f820116820180604052508101906112b7919061230f565b905061135c565b60c9546040516370a0823160e01b8152306004820152670de0b6b3a76400009184916001600160a01b03909116906370a082319060240160206040518083038186803b15801561130d57600080fd5b505afa158015611321573d6000803e3d6000fd5b505050506040513d601f19601f82011682018060405250810190611345919061230f565b61134f91906122bd565b611359919061235d565b90505b60c954611373906001600160a01b03168483611849565b60c954604080516001600160a01b038681168252602082018590529092168282015260608201849052517f457f950b75085c30ff780acd57bde642ff1316cc4aad9f286af2c1ffc4163a789181900360800190a150506001805550565b6097546001600160a01b03163314806113f3575060ca546001600160a01b031633145b61140f5760405162461bcd60e51b815260040161030790612122565b60655460ff16156114325760405162461bcd60e51b81526004016103079061214f565b61143a61187e565b60cb60009054906101000a90046001600160a01b03166001600160a01b031663db2e21bc6040518163ffffffff1660e01b8152600401600060405180830381600087803b15801561148a57600080fd5b505af1158015610801573d6000803e3d6000fd5b6097546001600160a01b031633146114c85760405162461bcd60e51b815260040161030790612328565b6001600160a01b03811661152d5760405162461bcd60e51b815260206004820152602660248201527f4f776e61626c653a206e6577206f776e657220697320746865207a65726f206160448201526564647265737360d01b6064820152608401610307565b61153681611764565b50565b600061154560016118d6565b9050801561155d576000805461ff0019166101001790555b61156561195e565b60cb80546001600160a01b038087166001600160a01b03199283161790925560ca805488841690831617905560cc805486841690831617905560c9805492851692909116821790556040805163313ce56760e01b8152905163313ce56791600480820192602092909190829003018186803b1580156115e357600080fd5b505afa1580156115f7573d6000803e3d6000fd5b505050506040513d601f19601f8201168201806040525081019061161b9190612495565b60c9805460ff60a01b1916600160a01b60ff938416810291909117918290559004166006111561168d5760405162461bcd60e51b815260206004820152601760248201527f5553445420646563696d616c73206d757374203e3d20360000000000000000006044820152606401610307565b60cb5460c9546116ac916001600160a01b03918216911660001961198d565b80156116f2576000805461ff0019169055604051600181527f7f26b83ff96e1f2b6a682f133852f6798a09c465da95921460cefb38474024989060200160405180910390a15b5050505050565b6040516001600160a01b03808516602483015283166044820152606481018290526108019085906323b872dd60e01b906084015b60408051601f198184030181529190526020810180516001600160e01b03166001600160e01b031990931692909217909152611ab1565b609780546001600160a01b038381166001600160a01b0319831681179093556040519116919082907f8be0079c531659141344cd1fd0a4f28419497f9722a3daafe3b4186f6b6457e090600090a35050565b60655460ff166117ff5760405162461bcd60e51b815260206004820152601460248201527314185d5cd8589b194e881b9bdd081c185d5cd95960621b6044820152606401610307565b6065805460ff191690557f5db9ee0a495bf2e6ff9c91a7834c1ba4fdd244a5e8aa4e537bd38aeae4b073aa335b6040516001600160a01b03909116815260200160405180910390a1565b6040516001600160a01b03831660248201526044810182905261187990849063a9059cbb60e01b9060640161172d565b505050565b60655460ff16156118a15760405162461bcd60e51b81526004016103079061214f565b6065805460ff191660011790557f62e78cea01bee320cd4e420270b5ea74000d11b0c9f74754ebdbfc544b05a25861182c3390565b60008054610100900460ff161561191d578160ff1660011480156118f95750303b155b6119155760405162461bcd60e51b8152600401610307906124b8565b506000919050565b60005460ff8084169116106119445760405162461bcd60e51b8152600401610307906124b8565b506000805460ff191660ff92909216919091179055600190565b600054610100900460ff166119855760405162461bcd60e51b815260040161030790612506565b6108c6611b83565b801580611a165750604051636eb1769f60e11b81523060048201526001600160a01b03838116602483015284169063dd62ed3e9060440160206040518083038186803b1580156119dc57600080fd5b505afa1580156119f0573d6000803e3d6000fd5b505050506040513d601f19601f82011682018060405250810190611a14919061230f565b155b611a815760405162461bcd60e51b815260206004820152603660248201527f5361666545524332303a20617070726f76652066726f6d206e6f6e2d7a65726f60448201527520746f206e6f6e2d7a65726f20616c6c6f77616e636560501b6064820152608401610307565b6040516001600160a01b03831660248201526044810182905261187990849063095ea7b360e01b9060640161172d565b6000611b06826040518060400160405280602081526020017f5361666545524332303a206c6f772d6c6576656c2063616c6c206661696c6564815250856001600160a01b0316611bb39092919063ffffffff16565b8051909150156118795780806020019051810190611b249190612551565b6118795760405162461bcd60e51b815260206004820152602a60248201527f5361666545524332303a204552433230206f7065726174696f6e20646964206e6044820152691bdd081cdd58d8d9595960b21b6064820152608401610307565b600054610100900460ff16611baa5760405162461bcd60e51b815260040161030790612506565b6108c633611764565b6060611bc28484600085611bcc565b90505b9392505050565b606082471015611c2d5760405162461bcd60e51b815260206004820152602660248201527f416464726573733a20696e73756666696369656e742062616c616e636520666f6044820152651c8818d85b1b60d21b6064820152608401610307565b6001600160a01b0385163b611c845760405162461bcd60e51b815260206004820152601d60248201527f416464726573733a2063616c6c20746f206e6f6e2d636f6e74726163740000006044820152606401610307565b600080866001600160a01b03168587604051611ca0919061259f565b60006040518083038185875af1925050503d8060008114611cdd576040519150601f19603f3d011682016040523d82523d6000602084013e611ce2565b606091505b5091509150611cf2828286611cfd565b979650505050505050565b60608315611d0c575081611bc5565b825115611d1c5782518084602001fd5b8160405162461bcd60e51b815260040161030791906125bb565b6001600160a01b038116811461153657600080fd5b634e487b7160e01b600052604160045260246000fd5b604051601f8201601f1916810167ffffffffffffffff81118282101715611d8a57611d8a611d4b565b604052919050565b600067ffffffffffffffff821115611dac57611dac611d4b565b5060051b60200190565b600082601f830112611dc757600080fd5b81356020611ddc611dd783611d92565b611d61565b82815260059290921b84018101918181019086841115611dfb57600080fd5b8286015b84811015611e1f578035611e1281611d36565b8352918301918301611dff565b509695505050505050565b600082601f830112611e3b57600080fd5b81356020611e4b611dd783611d92565b82815260059290921b84018101918181019086841115611e6a57600080fd5b8286015b84811015611e1f5780358352918301918301611e6e565b600080600060608486031215611e9a57600080fd5b8335611ea581611d36565b9250602084013567ffffffffffffffff80821115611ec257600080fd5b611ece87838801611db6565b93506040860135915080821115611ee457600080fd5b50611ef186828701611e2a565b9150509250925092565b600080600060608486031215611f1057600080fd5b83359250602084013591506040840135611f2981611d36565b809150509250925092565b600060208284031215611f4657600080fd5b8135611bc581611d36565b60008060408385031215611f6457600080fd5b823567ffffffffffffffff80821115611f7c57600080fd5b611f8886838701611db6565b93506020850135915080821115611f9e57600080fd5b50611fab85828601611e2a565b9150509250929050565b600081518084526020808501945080840160005b83811015611fe557815187529582019590820190600101611fc9565b509495945050505050565b600081518084526020808501945080840160005b83811015611fe55781516001600160a01b031687529582019590820190600101612004565b60608152600061203c6060830186611fb5565b828103602084015261204e8186611ff0565b905082810360408401526120628185611fb5565b9695505050505050565b60408152600061207f6040830185611ff0565b82810360208401526120918185611fb5565b95945050505050565b600080604083850312156120ad57600080fd5b82356120b881611d36565b946020939093013593505050565b600080600080608085870312156120dc57600080fd5b84356120e781611d36565b935060208501356120f781611d36565b9250604085013561210781611d36565b9150606085013561211781611d36565b939692955090935050565b60208082526013908201527227b7363c9037bbb732b91037b91030b236b4b760691b604082015260600190565b60208082526010908201526f14185d5cd8589b194e881c185d5cd95960821b604082015260600190565b634e487b7160e01b600052601160045260246000fd5b600060ff821660ff8416808210156121a9576121a9612179565b90039392505050565b600181815b808511156121ed5781600019048211156121d3576121d3612179565b808516156121e057918102915b93841c93908002906121b7565b509250929050565b60008261220457506001612292565b8161221157506000612292565b816001811461222757600281146122315761224d565b6001915050612292565b60ff84111561224257612242612179565b50506001821b612292565b5060208310610133831016604e8410600b8410161715612270575081810a612292565b61227a83836121b2565b806000190482111561228e5761228e612179565b0290505b92915050565b6000611bc560ff8416836121f5565b634e487b7160e01b600052603260045260246000fd5b60008160001904831182151516156122d7576122d7612179565b500290565b600082198211156122ef576122ef612179565b500190565b600060001982141561230857612308612179565b5060010190565b60006020828403121561232157600080fd5b5051919050565b6020808252818101527f4f776e61626c653a2063616c6c6572206973206e6f7420746865206f776e6572604082015260600190565b60008261237a57634e487b7160e01b600052601260045260246000fd5b500490565b600082601f83011261239057600080fd5b815160206123a0611dd783611d92565b82815260059290921b840181019181810190868411156123bf57600080fd5b8286015b84811015611e1f57805183529183019183016123c3565b600080604083850312156123ed57600080fd5b825167ffffffffffffffff8082111561240557600080fd5b818501915085601f83011261241957600080fd5b81516020612429611dd783611d92565b82815260059290921b8401810191818101908984111561244857600080fd5b948201945b8386101561246f57855161246081611d36565b8252948201949082019061244d565b9188015191965090935050508082111561248857600080fd5b50611fab8582860161237f565b6000602082840312156124a757600080fd5b815160ff81168114611bc557600080fd5b6020808252602e908201527f496e697469616c697a61626c653a20636f6e747261637420697320616c72656160408201526d191e481a5b9a5d1a585b1a5e995960921b606082015260800190565b6020808252602b908201527f496e697469616c697a61626c653a20636f6e7472616374206973206e6f74206960408201526a6e697469616c697a696e6760a81b606082015260800190565b60006020828403121561256357600080fd5b81518015158114611bc557600080fd5b60005b8381101561258e578181015183820152602001612576565b838111156108015750506000910152565b600082516125b1818460208701612573565b9190910192915050565b60208152600082518060208401526125da816040850160208701612573565b601f01601f1916919091016040019291505056fea2646970667358221220139d449778d14dab64ac4858875c3cd4512147f89ce154d99d7fe22ee5806a4664736f6c63430008090033",
  "devdoc": {
    "kind": "dev",
    "methods": {
      "deposit(address,address[],uint256[])": {
        "params": {
          "_USDTAmts": "amounts of USDT should be deposited to each pools. It's 6 decimals"
        }
      },
      "getUSDTPriceInUSD()": {
        "returns": {
          "_0": "the price of USDT in USD."
        }
      },
      "owner()": {
        "details": "Returns the address of the current owner."
      },
      "paused()": {
        "details": "Returns true if the contract is paused, and false otherwise."
      },
      "renounceOwnership()": {
        "details": "Leaves the contract without owner. It will not be possible to call `onlyOwner` functions anymore. Can only be called by the current owner. NOTE: Renouncing ownership will leave the contract without an owner, thereby removing any functionality that is only available to the owner."
      },
      "transferOwnership(address)": {
        "details": "Transfers ownership of the contract to a new account (`newOwner`). Can only be called by the current owner."
      },
      "withdrawPerc(address,uint256)": {
        "params": {
          "_sharePerc": "percentage of assets which should be withdrawn. It's 18 decimals"
        }
      }
    },
    "version": 1
  },
  "userdoc": {
    "kind": "user",
    "methods": {
      "deposit(address,address[],uint256[])": {
        "notice": "The length of array is based on token count. And the lengths should be same on the arraies."
      }
    },
    "version": 1
  },
  "storageLayout": {
    "storage": [
      {
        "astId": 130,
        "contract": "contracts/bni/BNIVaultTest.sol:BNIVaultTest",
        "label": "_initialized",
        "offset": 0,
        "slot": "0",
        "type": "t_uint8"
      },
      {
        "astId": 133,
        "contract": "contracts/bni/BNIVaultTest.sol:BNIVaultTest",
        "label": "_initializing",
        "offset": 1,
        "slot": "0",
        "type": "t_bool"
      },
      {
        "astId": 390,
        "contract": "contracts/bni/BNIVaultTest.sol:BNIVaultTest",
        "label": "_status",
        "offset": 0,
        "slot": "1",
        "type": "t_uint256"
      },
      {
        "astId": 434,
        "contract": "contracts/bni/BNIVaultTest.sol:BNIVaultTest",
        "label": "__gap",
        "offset": 0,
        "slot": "2",
        "type": "t_array(t_uint256)49_storage"
      },
      {
        "astId": 1657,
        "contract": "contracts/bni/BNIVaultTest.sol:BNIVaultTest",
        "label": "__gap",
        "offset": 0,
        "slot": "51",
        "type": "t_array(t_uint256)50_storage"
      },
      {
        "astId": 286,
        "contract": "contracts/bni/BNIVaultTest.sol:BNIVaultTest",
        "label": "_paused",
        "offset": 0,
        "slot": "101",
        "type": "t_bool"
      },
      {
        "astId": 375,
        "contract": "contracts/bni/BNIVaultTest.sol:BNIVaultTest",
        "label": "__gap",
        "offset": 0,
        "slot": "102",
        "type": "t_array(t_uint256)49_storage"
      },
      {
        "astId": 10,
        "contract": "contracts/bni/BNIVaultTest.sol:BNIVaultTest",
        "label": "_owner",
        "offset": 0,
        "slot": "151",
        "type": "t_address"
      },
      {
        "astId": 122,
        "contract": "contracts/bni/BNIVaultTest.sol:BNIVaultTest",
        "label": "__gap",
        "offset": 0,
        "slot": "152",
        "type": "t_array(t_uint256)49_storage"
      },
      {
        "astId": 5157,
        "contract": "contracts/bni/BNIVaultTest.sol:BNIVaultTest",
        "label": "USDT",
        "offset": 0,
        "slot": "201",
        "type": "t_contract(IERC20UpgradeableExt)5144"
      },
      {
        "astId": 5159,
        "contract": "contracts/bni/BNIVaultTest.sol:BNIVaultTest",
        "label": "usdtDecimals",
        "offset": 20,
        "slot": "201",
        "type": "t_uint8"
      },
      {
        "astId": 5161,
        "contract": "contracts/bni/BNIVaultTest.sol:BNIVaultTest",
        "label": "admin",
        "offset": 0,
        "slot": "202",
        "type": "t_address"
      },
      {
        "astId": 5164,
        "contract": "contracts/bni/BNIVaultTest.sol:BNIVaultTest",
        "label": "strategy",
        "offset": 0,
        "slot": "203",
        "type": "t_contract(IStrategy)5136"
      },
      {
        "astId": 5167,
        "contract": "contracts/bni/BNIVaultTest.sol:BNIVaultTest",
        "label": "priceOracle",
        "offset": 0,
        "slot": "204",
        "type": "t_contract(IPriceOracle)6330"
      }
    ],
    "types": {
      "t_address": {
        "encoding": "inplace",
        "label": "address",
        "numberOfBytes": "20"
      },
      "t_array(t_uint256)49_storage": {
        "base": "t_uint256",
        "encoding": "inplace",
        "label": "uint256[49]",
        "numberOfBytes": "1568"
      },
      "t_array(t_uint256)50_storage": {
        "base": "t_uint256",
        "encoding": "inplace",
        "label": "uint256[50]",
        "numberOfBytes": "1600"
      },
      "t_bool": {
        "encoding": "inplace",
        "label": "bool",
        "numberOfBytes": "1"
      },
      "t_contract(IERC20UpgradeableExt)5144": {
        "encoding": "inplace",
        "label": "contract IERC20UpgradeableExt",
        "numberOfBytes": "20"
      },
      "t_contract(IPriceOracle)6330": {
        "encoding": "inplace",
        "label": "contract IPriceOracle",
        "numberOfBytes": "20"
      },
      "t_contract(IStrategy)5136": {
        "encoding": "inplace",
        "label": "contract IStrategy",
        "numberOfBytes": "20"
      },
      "t_uint256": {
        "encoding": "inplace",
        "label": "uint256",
        "numberOfBytes": "32"
      },
      "t_uint8": {
        "encoding": "inplace",
        "label": "uint8",
        "numberOfBytes": "1"
      }
    }
  }
}