{
  "address": "0xdB8fD89D6e9b7Ea44AE7927276A2e61A5737D5B2",
  "abi": [
    {
      "anonymous": false,
      "inputs": [
        {
          "indexed": false,
          "internalType": "uint256",
          "name": "currentWatermark",
          "type": "uint256"
        },
        {
          "indexed": false,
          "internalType": "uint256",
          "name": "lastWatermark",
          "type": "uint256"
        }
      ],
      "name": "AdjustWatermark",
      "type": "event"
    },
    {
      "anonymous": false,
      "inputs": [
        {
          "indexed": false,
          "internalType": "uint256",
          "name": "currentWatermark",
          "type": "uint256"
        },
        {
          "indexed": false,
          "internalType": "uint256",
          "name": "lastWatermark",
          "type": "uint256"
        },
        {
          "indexed": false,
          "internalType": "uint256",
          "name": "fee",
          "type": "uint256"
        }
      ],
      "name": "CollectProfitAndUpdateWatermark",
      "type": "event"
    },
    {
      "anonymous": false,
      "inputs": [
        {
          "indexed": false,
          "internalType": "address",
          "name": "caller",
          "type": "address"
        },
        {
          "indexed": false,
          "internalType": "uint256",
          "name": "amtDeposit",
          "type": "uint256"
        },
        {
          "indexed": false,
          "internalType": "address",
          "name": "tokenDeposit",
          "type": "address"
        }
      ],
      "name": "Deposit",
      "type": "event"
    },
    {
      "anonymous": false,
      "inputs": [
        {
          "indexed": false,
          "internalType": "uint8",
          "name": "version",
          "type": "uint8"
        }
      ],
      "name": "Initialized",
      "type": "event"
    },
    {
      "anonymous": false,
      "inputs": [
        {
          "indexed": true,
          "internalType": "address",
          "name": "previousOwner",
          "type": "address"
        },
        {
          "indexed": true,
          "internalType": "address",
          "name": "newOwner",
          "type": "address"
        }
      ],
      "name": "OwnershipTransferred",
      "type": "event"
    },
    {
      "anonymous": false,
      "inputs": [
        {
          "indexed": false,
          "internalType": "address",
          "name": "account",
          "type": "address"
        }
      ],
      "name": "Paused",
      "type": "event"
    },
    {
      "anonymous": false,
      "inputs": [
        {
          "indexed": false,
          "internalType": "uint256",
          "name": "pid",
          "type": "uint256"
        },
        {
          "indexed": false,
          "internalType": "uint256",
          "name": "sharePerc",
          "type": "uint256"
        },
        {
          "indexed": false,
          "internalType": "uint256",
          "name": "amount",
          "type": "uint256"
        },
        {
          "indexed": false,
          "internalType": "address",
          "name": "target",
          "type": "address"
        }
      ],
      "name": "Rebalance",
      "type": "event"
    },
    {
      "anonymous": false,
      "inputs": [
        {
          "indexed": false,
          "internalType": "uint256",
          "name": "amount",
          "type": "uint256"
        }
      ],
      "name": "Reinvest",
      "type": "event"
    },
    {
      "anonymous": false,
      "inputs": [
        {
          "indexed": false,
          "internalType": "address",
          "name": "oldAdmin",
          "type": "address"
        },
        {
          "indexed": false,
          "internalType": "address",
          "name": "newAdmin",
          "type": "address"
        }
      ],
      "name": "SetAdminWallet",
      "type": "event"
    },
    {
      "anonymous": false,
      "inputs": [
        {
          "indexed": false,
          "internalType": "address",
          "name": "oldTreasuryWallet",
          "type": "address"
        },
        {
          "indexed": false,
          "internalType": "address",
          "name": "newTreasuryWallet",
          "type": "address"
        }
      ],
      "name": "SetTreasuryWallet",
      "type": "event"
    },
    {
      "anonymous": false,
      "inputs": [
        {
          "indexed": false,
          "internalType": "uint256",
          "name": "fees",
          "type": "uint256"
        },
        {
          "indexed": false,
          "internalType": "address",
          "name": "token",
          "type": "address"
        }
      ],
      "name": "TransferredOutFees",
      "type": "event"
    },
    {
      "anonymous": false,
      "inputs": [
        {
          "indexed": false,
          "internalType": "address",
          "name": "account",
          "type": "address"
        }
      ],
      "name": "Unpaused",
      "type": "event"
    },
    {
      "anonymous": false,
      "inputs": [
        {
          "indexed": false,
          "internalType": "address",
          "name": "caller",
          "type": "address"
        },
        {
          "indexed": false,
          "internalType": "uint256",
          "name": "amtWithdraw",
          "type": "uint256"
        },
        {
          "indexed": false,
          "internalType": "address",
          "name": "tokenWithdraw",
          "type": "address"
        },
        {
          "indexed": false,
          "internalType": "uint256",
          "name": "sharePerc",
          "type": "uint256"
        }
      ],
      "name": "Withdraw",
      "type": "event"
    },
    {
      "inputs": [],
      "name": "USDT",
      "outputs": [
        {
          "internalType": "contract IERC20UpgradeableExt",
          "name": "",
          "type": "address"
        }
      ],
      "stateMutability": "view",
      "type": "function"
    },
    {
      "inputs": [],
      "name": "admin",
      "outputs": [
        {
          "internalType": "address",
          "name": "",
          "type": "address"
        }
      ],
      "stateMutability": "view",
      "type": "function"
    },
    {
      "inputs": [],
      "name": "collectProfitAndUpdateWatermark",
      "outputs": [],
      "stateMutability": "nonpayable",
      "type": "function"
    },
    {
      "inputs": [
        {
          "internalType": "address",
          "name": "_account",
          "type": "address"
        },
        {
          "internalType": "address[]",
          "name": "_tokens",
          "type": "address[]"
        },
        {
          "internalType": "uint256[]",
          "name": "_USDTAmts",
          "type": "uint256[]"
        },
        {
          "internalType": "uint256",
          "name": "_nonce",
          "type": "uint256"
        }
      ],
      "name": "depositByAdmin",
      "outputs": [],
      "stateMutability": "nonpayable",
      "type": "function"
    },
    {
      "inputs": [],
      "name": "emergencyWithdraw",
      "outputs": [],
      "stateMutability": "nonpayable",
      "type": "function"
    },
    {
      "inputs": [],
      "name": "fees",
      "outputs": [
        {
          "internalType": "uint256",
          "name": "",
          "type": "uint256"
        }
      ],
      "stateMutability": "view",
      "type": "function"
    },
    {
      "inputs": [],
      "name": "firstOperationNonce",
      "outputs": [
        {
          "internalType": "uint256",
          "name": "",
          "type": "uint256"
        }
      ],
      "stateMutability": "view",
      "type": "function"
    },
    {
      "inputs": [],
      "name": "getAPR",
      "outputs": [
        {
          "internalType": "uint256",
          "name": "",
          "type": "uint256"
        }
      ],
      "stateMutability": "view",
      "type": "function"
    },
    {
      "inputs": [],
      "name": "getAllPoolInUSD",
      "outputs": [
        {
          "internalType": "uint256",
          "name": "",
          "type": "uint256"
        }
      ],
      "stateMutability": "view",
      "type": "function"
    },
    {
      "inputs": [
        {
          "internalType": "uint256",
          "name": "_nonce",
          "type": "uint256"
        }
      ],
      "name": "getAllPoolInUSDAtNonce",
      "outputs": [
        {
          "internalType": "uint256",
          "name": "",
          "type": "uint256"
        }
      ],
      "stateMutability": "view",
      "type": "function"
    },
    {
      "inputs": [],
      "name": "getChainID",
      "outputs": [
        {
          "internalType": "uint256",
          "name": "id",
          "type": "uint256"
        }
      ],
      "stateMutability": "view",
      "type": "function"
    },
    {
      "inputs": [],
      "name": "getCurrentCompositionPerc",
      "outputs": [
        {
          "internalType": "address[]",
          "name": "tokens",
          "type": "address[]"
        },
        {
          "internalType": "uint256[]",
          "name": "percentages",
          "type": "uint256[]"
        }
      ],
      "stateMutability": "view",
      "type": "function"
    },
    {
      "inputs": [],
      "name": "getEachPoolInUSD",
      "outputs": [
        {
          "internalType": "uint256[]",
          "name": "chainIDs",
          "type": "uint256[]"
        },
        {
          "internalType": "address[]",
          "name": "tokens",
          "type": "address[]"
        },
        {
          "internalType": "uint256[]",
          "name": "pools",
          "type": "uint256[]"
        }
      ],
      "stateMutability": "view",
      "type": "function"
    },
    {
      "inputs": [],
      "name": "getUSDTPriceInUSD",
      "outputs": [
        {
          "internalType": "uint256",
          "name": "",
          "type": "uint256"
        },
        {
          "internalType": "uint8",
          "name": "",
          "type": "uint8"
        }
      ],
      "stateMutability": "view",
      "type": "function"
    },
    {
      "inputs": [
        {
          "internalType": "address",
          "name": "_treasuryWallet",
          "type": "address"
        },
        {
          "internalType": "address",
          "name": "_admin",
          "type": "address"
        },
        {
          "internalType": "address",
          "name": "_strategy",
          "type": "address"
        },
        {
          "internalType": "address",
          "name": "_priceOracle",
          "type": "address"
        },
        {
          "internalType": "address",
          "name": "_USDT",
          "type": "address"
        }
      ],
      "name": "initialize",
      "outputs": [],
      "stateMutability": "nonpayable",
      "type": "function"
    },
    {
      "inputs": [
        {
          "internalType": "address",
          "name": "forwarder",
          "type": "address"
        }
      ],
      "name": "isTrustedForwarder",
      "outputs": [
        {
          "internalType": "bool",
          "name": "",
          "type": "bool"
        }
      ],
      "stateMutability": "view",
      "type": "function"
    },
    {
      "inputs": [],
      "name": "lastOperationNonce",
      "outputs": [
        {
          "internalType": "uint256",
          "name": "",
          "type": "uint256"
        }
      ],
      "stateMutability": "view",
      "type": "function"
    },
    {
      "inputs": [
        {
          "internalType": "uint256",
          "name": "",
          "type": "uint256"
        }
      ],
      "name": "operationAmounts",
      "outputs": [
        {
          "internalType": "uint256",
          "name": "",
          "type": "uint256"
        }
      ],
      "stateMutability": "view",
      "type": "function"
    },
    {
      "inputs": [],
      "name": "owner",
      "outputs": [
        {
          "internalType": "address",
          "name": "",
          "type": "address"
        }
      ],
      "stateMutability": "view",
      "type": "function"
    },
    {
      "inputs": [],
      "name": "paused",
      "outputs": [
        {
          "internalType": "bool",
          "name": "",
          "type": "bool"
        }
      ],
      "stateMutability": "view",
      "type": "function"
    },
    {
      "inputs": [
        {
          "internalType": "uint256",
          "name": "",
          "type": "uint256"
        }
      ],
      "name": "poolAtNonce",
      "outputs": [
        {
          "internalType": "uint256",
          "name": "poolInUSD",
          "type": "uint256"
        },
        {
          "internalType": "uint256",
          "name": "ts",
          "type": "uint256"
        }
      ],
      "stateMutability": "view",
      "type": "function"
    },
    {
      "inputs": [],
      "name": "priceOracle",
      "outputs": [
        {
          "internalType": "contract IPriceOracle",
          "name": "",
          "type": "address"
        }
      ],
      "stateMutability": "view",
      "type": "function"
    },
    {
      "inputs": [],
      "name": "profitFeePerc",
      "outputs": [
        {
          "internalType": "uint256",
          "name": "",
          "type": "uint256"
        }
      ],
      "stateMutability": "view",
      "type": "function"
    },
    {
      "inputs": [
        {
          "internalType": "uint256",
          "name": "_pid",
          "type": "uint256"
        },
        {
          "internalType": "uint256",
          "name": "_sharePerc",
          "type": "uint256"
        },
        {
          "internalType": "address",
          "name": "_target",
          "type": "address"
        }
      ],
      "name": "rebalance",
      "outputs": [],
      "stateMutability": "nonpayable",
      "type": "function"
    },
    {
      "inputs": [
        {
          "internalType": "address[]",
          "name": "_tokens",
          "type": "address[]"
        },
        {
          "internalType": "uint256[]",
          "name": "_perc",
          "type": "uint256[]"
        }
      ],
      "name": "reinvest",
      "outputs": [],
      "stateMutability": "nonpayable",
      "type": "function"
    },
    {
      "inputs": [],
      "name": "renounceOwnership",
      "outputs": [],
      "stateMutability": "nonpayable",
      "type": "function"
    },
    {
      "inputs": [
        {
          "internalType": "address",
          "name": "_admin",
          "type": "address"
        }
      ],
      "name": "setAdmin",
      "outputs": [],
      "stateMutability": "nonpayable",
      "type": "function"
    },
    {
      "inputs": [
        {
          "internalType": "address",
          "name": "_biconomy",
          "type": "address"
        }
      ],
      "name": "setBiconomy",
      "outputs": [],
      "stateMutability": "nonpayable",
      "type": "function"
    },
    {
      "inputs": [
        {
          "internalType": "address",
          "name": "_priceOracle",
          "type": "address"
        }
      ],
      "name": "setPriceOracle",
      "outputs": [],
      "stateMutability": "nonpayable",
      "type": "function"
    },
    {
      "inputs": [
        {
          "internalType": "uint256",
          "name": "_profitFeePerc",
          "type": "uint256"
        }
      ],
      "name": "setProfitFeePerc",
      "outputs": [],
      "stateMutability": "nonpayable",
      "type": "function"
    },
    {
      "inputs": [
        {
          "internalType": "address",
          "name": "_strategy",
          "type": "address"
        }
      ],
      "name": "setStrategy",
      "outputs": [],
      "stateMutability": "nonpayable",
      "type": "function"
    },
    {
      "inputs": [
        {
          "internalType": "address",
          "name": "_treasuryWallet",
          "type": "address"
        }
      ],
      "name": "setTreasuryWallet",
      "outputs": [],
      "stateMutability": "nonpayable",
      "type": "function"
    },
    {
      "inputs": [],
      "name": "strategy",
      "outputs": [
        {
          "internalType": "contract IStrategy",
          "name": "",
          "type": "address"
        }
      ],
      "stateMutability": "view",
      "type": "function"
    },
    {
      "inputs": [
        {
          "internalType": "address",
          "name": "newOwner",
          "type": "address"
        }
      ],
      "name": "transferOwnership",
      "outputs": [],
      "stateMutability": "nonpayable",
      "type": "function"
    },
    {
      "inputs": [],
      "name": "treasuryWallet",
      "outputs": [
        {
          "internalType": "address",
          "name": "",
          "type": "address"
        }
      ],
      "stateMutability": "view",
      "type": "function"
    },
    {
      "inputs": [],
      "name": "trustedForwarder",
      "outputs": [
        {
          "internalType": "address",
          "name": "",
          "type": "address"
        }
      ],
      "stateMutability": "view",
      "type": "function"
    },
    {
      "inputs": [
        {
          "internalType": "address",
          "name": "",
          "type": "address"
        }
      ],
      "name": "userLastOperationNonce",
      "outputs": [
        {
          "internalType": "uint256",
          "name": "",
          "type": "uint256"
        }
      ],
      "stateMutability": "view",
      "type": "function"
    },
    {
      "inputs": [],
      "name": "versionRecipient",
      "outputs": [
        {
          "internalType": "string",
          "name": "",
          "type": "string"
        }
      ],
      "stateMutability": "pure",
      "type": "function"
    },
    {
      "inputs": [],
      "name": "watermark",
      "outputs": [
        {
          "internalType": "uint256",
          "name": "",
          "type": "uint256"
        }
      ],
      "stateMutability": "view",
      "type": "function"
    },
    {
      "inputs": [],
      "name": "withdrawFees",
      "outputs": [],
      "stateMutability": "nonpayable",
      "type": "function"
    },
    {
      "inputs": [
        {
          "internalType": "address",
          "name": "_account",
          "type": "address"
        },
        {
          "internalType": "uint256",
          "name": "_sharePerc",
          "type": "uint256"
        },
        {
          "internalType": "uint256",
          "name": "_nonce",
          "type": "uint256"
        }
      ],
      "name": "withdrawPercByAdmin",
      "outputs": [],
      "stateMutability": "nonpayable",
      "type": "function"
    }
  ],
  "transactionHash": "0x99f132ae7e1d9da24c699ec85be1e0e20dc9935b0b6b1bd6e091fe406a5f0d9e",
  "args": [],
  "numDeployments": 4,
  "solcInputHash": "fee212e58a442b7ae3c8a033b3783538",
  "bytecode": "0x608060405234801561001057600080fd5b506137b8806100206000396000f3fe608060405234801561001057600080fd5b50600436106102535760003560e01c80638855c91a11610146578063bd244af4116100c3578063e63cfa3b11610087578063e63cfa3b1461050d578063efca0d0714610549578063f13dc2e214610552578063f2fde38b1461055b578063f851a4401461056e578063ffec4eb11461058157600080fd5b8063bd244af4146104cf578063c54e44eb146104d7578063c89d5b8b146104ea578063db2e21bc146104f2578063e5e19776146104fa57600080fd5b8063a8c62e761161010a578063a8c62e761461045d578063a9d98f5914610470578063aae0923614610483578063ac25f6891461049a578063b47c6a27146104b057600080fd5b80638855c91a146104145780638da5cb5b1461041d5780639af1d35a1461042e5780639b86088214610437578063a8602fea1461044a57600080fd5b8063476343ee116101d45780635c975abb116101985780635c975abb146103c85780636d2b3d7b146103d3578063704b6c02146103e6578063715018a6146103f95780637da0a8771461040157600080fd5b8063476343ee14610352578063486ff0cd1461035a578063530e784f1461037d578063564b81ef14610390578063572b6c051461039657600080fd5b80632630c12f1161021b5780632630c12f146102e657806333a100ca1461031157806345d207ec146103245780634626402b14610337578063470343d81461034a57600080fd5b8063057feb99146102585780630b47b7ff1461028b5780630d8b76a8146102a05780631459457a146102b357806319dac5af146102c6575b600080fd5b610278610266366004612e2a565b60d66020526000908152604090205481565b6040519081526020015b60405180910390f35b61029e610299366004612e2a565b61058a565b005b61029e6102ae366004612e58565b610634565b61029e6102c1366004612e75565b61069f565b6102786102d4366004612e58565b60d56020526000908152604090205481565b60cc546102f9906001600160a01b031681565b6040516001600160a01b039091168152602001610282565b61029e61031f366004612e58565b610874565b61029e610332366004612ee6565b61097d565b60ce546102f9906001600160a01b031681565b61029e610d94565b61029e610e00565b60408051808201825260018152603160f81b602082015290516102829190612f47565b61029e61038b366004612e58565b610ff8565b46610278565b6103b86103a4366004612e58565b60d1546001600160a01b0391821691161490565b6040519015158152602001610282565b60655460ff166103b8565b61029e6103e1366004612f7a565b611063565b61029e6103f4366004612e58565b61127a565b61029e611325565b60d1546102f9906001600160a01b031681565b61027860d35481565b6097546001600160a01b03166102f9565b61027860d05481565b61029e6104453660046130ed565b611378565b61029e610458366004612e58565b6116d4565b60cb546102f9906001600160a01b031681565b61027861047e366004612e2a565b611777565b61048b611801565b604051610282939291906131c5565b6104a2611ac0565b604051610282929190613208565b6104b8611b55565b6040805192835260ff909116602083015201610282565b610278611bd7565b60c9546102f9906001600160a01b031681565b610278611d79565b61029e611dfb565b61029e610508366004613236565b611ed4565b61053461051b366004612e2a565b60d4602052600090815260409020805460019091015482565b60408051928352602083019190915201610282565b61027860cd5481565b61027860cf5481565b61029e610569366004612e58565b612337565b60ca546102f9906001600160a01b031681565b61027860d25481565b6105926123ee565b6001600160a01b03166105ad6097546001600160a01b031690565b6001600160a01b0316146105dc5760405162461bcd60e51b81526004016105d3906132b4565b60405180910390fd5b610bb960cd541061062f5760405162461bcd60e51b815260206004820152601760248201527f50726f666974206665652063616e6e6f74203e2033302500000000000000000060448201526064016105d3565b60cd55565b61063c6123ee565b6001600160a01b03166106576097546001600160a01b031690565b6001600160a01b03161461067d5760405162461bcd60e51b81526004016105d3906132b4565b60d180546001600160a01b0319166001600160a01b0392909216919091179055565b60006106ab6001612422565b905080156106c3576000805461ff0019166101001790555b6106cb6124af565b60ce80546001600160a01b038089166001600160a01b03199283161790925560ca805488841690831617905560cb805487841690831617905560cc80548684169083161790556107d060cd5560c9805492851692909116821790556040805163313ce56760e01b8152905163313ce56791600481810192602092909190829003018186803b15801561075c57600080fd5b505afa158015610770573d6000803e3d6000fd5b505050506040513d601f19601f8201168201806040525081019061079491906132fa565b60c9805460ff60a01b1916600160a01b60ff93841681029190911791829055900416600611156108065760405162461bcd60e51b815260206004820152601760248201527f5553445420646563696d616c73206d757374203e3d203600000000000000000060448201526064016105d3565b60cb5460c954610825916001600160a01b0391821691166000196124de565b801561086c576000805461ff0019169055604051600181527f7f26b83ff96e1f2b6a682f133852f6798a09c465da95921460cefb3847402498906020015b60405180910390a15b505050505050565b61087c6123ee565b6001600160a01b03166108976097546001600160a01b031690565b6001600160a01b0316146108bd5760405162461bcd60e51b81526004016105d3906132b4565b60cb80546001600160a01b0319166001600160a01b0383811691821790925560c954604051636eb1769f60e11b815230600482015260248101929092529091169063dd62ed3e9060440160206040518083038186803b15801561091f57600080fd5b505afa158015610933573d6000803e3d6000fd5b505050506040513d601f19601f820116820180604052508101906109579190613315565b61097a5760cb5460c95461097a916001600160a01b0391821691166000196124de565b50565b6097546001600160a01b03163314806109a0575060ca546001600160a01b031633145b6109bc5760405162461bcd60e51b81526004016105d39061332e565b60026001541415610a0f5760405162461bcd60e51b815260206004820152601f60248201527f5265656e7472616e637947756172643a207265656e7472616e742063616c6c0060448201526064016105d3565b600260015581610a565760405162461bcd60e51b81526020600482015260126024820152710536861726550657263206d757374203e20360741b60448201526064016105d3565b670de0b6b3a7640000821115610a9a5760405162461bcd60e51b81526020600482015260096024820152684f766572203130302560b81b60448201526064016105d3565b6001600160a01b038316600090815260d560205260409020548111610af35760405162461bcd60e51b815260206004820152600f60248201526e139bdb98d9481a5cc818995a1a5b99608a1b60448201526064016105d3565b6001600160a01b038316600090815260d56020908152604080832084905583835260d69091528120839055610b26611bd7565b9050610b32828261263a565b6000670de0b6b3a7640000610b478584613371565b610b519190613390565b9050600060d05483610b6391906133b2565b610b7583670de0b6b3a7640000613371565b610b7f9190613390565b90506000610b8f60655460ff1690565b610c7e5760cb5460405163ed47d90960e01b8152600481018490526001600160a01b039091169063ed47d90990602401600060405180830381600087803b158015610bd957600080fd5b505af1158015610bed573d6000803e3d6000fd5b505060c9546040516370a0823160e01b81523060048201526001600160a01b0390911692506370a08231915060240160206040518083038186803b158015610c3457600080fd5b505afa158015610c48573d6000803e3d6000fd5b505050506040513d601f19601f82011682018060405250810190610c6c9190613315565b9050610c79836000612686565b610d1c565b60c9546040516370a0823160e01b8152306004820152670de0b6b3a76400009184916001600160a01b03909116906370a082319060240160206040518083038186803b158015610ccd57600080fd5b505afa158015610ce1573d6000803e3d6000fd5b505050506040513d601f19601f82011682018060405250810190610d059190613315565b610d0f9190613371565b610d199190613390565b90505b60c954610d33906001600160a01b03168883612708565b60c954604080516001600160a01b038a81168252602082018790529092168282015260608201889052517f457f950b75085c30ff780acd57bde642ff1316cc4aad9f286af2c1ffc4163a789181900360800190a15050600180555050505050565b6097546001600160a01b0316331480610db7575060ca546001600160a01b031633145b610dd35760405162461bcd60e51b81526004016105d39061332e565b60655460ff1615610df65760405162461bcd60e51b81526004016105d3906133ca565b610dfe612738565b565b6097546001600160a01b0316331480610e23575060ca546001600160a01b031633145b610e3f5760405162461bcd60e51b81526004016105d39061332e565b60655460ff16610f635760cb5460408051632f4912bd60e21b815290516000926001600160a01b03169163bd244af4916004808301926020929190829003018186803b158015610e8e57600080fd5b505afa158015610ea2573d6000803e3d6000fd5b505050506040513d601f19601f82011682018060405250810190610ec69190613315565b60d0549091506000828210610ee357670de0b6b3a7640000610f00565b82610ef683670de0b6b3a7640000613371565b610f009190613390565b60cb5460405163ed47d90960e01b8152600481018390529192506001600160a01b03169063ed47d90990602401600060405180830381600087803b158015610f4757600080fd5b505af1158015610f5b573d6000803e3d6000fd5b505050505050505b60c9546040516370a0823160e01b8152306004820152610ff4916001600160a01b0316906370a082319060240160206040518083038186803b158015610fa857600080fd5b505afa158015610fbc573d6000803e3d6000fd5b505050506040513d601f19601f82011682018060405250810190610fe09190613315565b60408051600081526020810190915261284c565b5050565b6110006123ee565b6001600160a01b031661101b6097546001600160a01b031690565b6001600160a01b0316146110415760405162461bcd60e51b81526004016105d3906132b4565b60cc80546001600160a01b0319166001600160a01b0392909216919091179055565b6097546001600160a01b0316331480611086575060ca546001600160a01b031633145b6110a25760405162461bcd60e51b81526004016105d39061332e565b60cb5460405163778d98b360e11b815260048101859052602481018490526000916001600160a01b03169063ef1b316690604401602060405180830381600087803b1580156110f057600080fd5b505af1158015611104573d6000803e3d6000fd5b505050506040513d601f19601f820116820180604052508101906111289190613315565b9050801561127457604080516001808252818301909252600091602080830190803683370190505090508281600081518110611166576111666133f4565b6001600160a01b03929092166020928302919091019091015260408051600180825281830190925260009181602001602082028036833701905050905082816000815181106111b7576111b76133f4565b602090810291909101015260cb546040516326b89b7160e01b81526001600160a01b03909116906326b89b71906111f49085908590600401613208565b600060405180830381600087803b15801561120e57600080fd5b505af1158015611222573d6000803e3d6000fd5b505060408051898152602081018990529081018690526001600160a01b03871660608201527f2be1fd30870a31378112c815f24e8611c8a87ed036bce5cf5670a8e34dbf210a92506080019050610863565b50505050565b6112826123ee565b6001600160a01b031661129d6097546001600160a01b031690565b6001600160a01b0316146112c35760405162461bcd60e51b81526004016105d3906132b4565b60ca80546001600160a01b038381166001600160a01b031983168117909355604080519190921680825260208201939093527f9f0ac88be9159761bacf6c9e7c294c397ebf594607f6b3f2f70e7e0841ea68e891015b60405180910390a15050565b61132d6123ee565b6001600160a01b03166113486097546001600160a01b031690565b6001600160a01b03161461136e5760405162461bcd60e51b81526004016105d3906132b4565b610dfe6000612a22565b6097546001600160a01b031633148061139b575060ca546001600160a01b031633145b6113b75760405162461bcd60e51b81526004016105d39061332e565b60655460ff166114005760405162461bcd60e51b815260206004820152601460248201527314185d5cd8589b194e881b9bdd081c185d5cd95960621b60448201526064016105d3565b81518151811461144b5760405162461bcd60e51b815260206004820152601660248201527509cdee840dac2e8c6d040c2e4e4c2f240d8cadccee8d60531b60448201526064016105d3565b611453612a74565b60c9546040516370a0823160e01b81523060048201526000916001600160a01b0316906370a082319060240160206040518083038186803b15801561149757600080fd5b505afa1580156114ab573d6000803e3d6000fd5b505050506040513d601f19601f820116820180604052508101906114cf9190613315565b90508015611274576000806114e2611b55565b909250905060006114f482600a6134ee565b60c954849061150e90600160a01b900460ff1660126134fd565b61151990600a6134ee565b6115239087613371565b61152d9190613371565b6115379190613390565b90506000805b8681101561157457878181518110611557576115576133f4565b60200260200101519150808061156c90613520565b91505061153d565b5060008667ffffffffffffffff81111561159057611590612fb3565b6040519080825280602002602001820160405280156115b9578160200160208202803683370190505b50905060005b878110156116265782878a83815181106115db576115db6133f4565b60200260200101516115ed9190613371565b6115f79190613390565b828281518110611609576116096133f4565b60209081029190910101528061161e81613520565b9150506115bf565b5060cb546040516326b89b7160e01b81526001600160a01b03909116906326b89b7190611659908c908590600401613208565b600060405180830381600087803b15801561167357600080fd5b505af1158015611687573d6000803e3d6000fd5b50505050611696836001612686565b6040518681527fc13e24d2b0a3bacd5d1a7c514125a1e27323abf7c86f6d36597f8752bbd7eed79060200160405180910390a1505050505050505050565b6116dc6123ee565b6001600160a01b03166116f76097546001600160a01b031690565b6001600160a01b03161461171d5760405162461bcd60e51b81526004016105d3906132b4565b60ce80546001600160a01b038381166001600160a01b031983168117909355604080519190921680825260208201939093527febcecb9db04071cf4b4ecc1e2e1e4603e74c9382d6e36c3531f0b62af4c78ed79101611319565b600060d2546000146117f35760d25482101561179557506000919050565b60d35482116117f357815b60d25481106117f157600081815260d4602090815260409182902082518084019093528054835260010154908201819052156117de57519392505050565b50806117e98161353b565b9150506117a0565b505b6117fb611bd7565b92915050565b606080606060cb60009054906101000a90046001600160a01b03166001600160a01b031663aae092366040518163ffffffff1660e01b815260040160006040518083038186803b15801561185457600080fd5b505afa158015611868573d6000803e3d6000fd5b505050506040513d6000823e601f3d908101601f1916820160405261189091908101906135ad565b80519193509150468167ffffffffffffffff8111156118b1576118b1612fb3565b6040519080825280602002602001820160405280156118da578160200160208202803683370190505b50945060005b8281101561191857818682815181106118fb576118fb6133f4565b60209081029190910101528061191081613520565b9150506118e0565b5060c9546040516370a0823160e01b81523060048201526000916001600160a01b0316906370a082319060240160206040518083038186803b15801561195d57600080fd5b505afa158015611971573d6000803e3d6000fd5b505050506040513d601f19601f820116820180604052508101906119959190613315565b90506000811180156119a75750600083115b15611ab8576000806119b7611b55565b909250905060006119c982600a6134ee565b60c95484906119e390600160a01b900460ff1660126134fd565b6119ee90600a6134ee565b60c9546040516370a0823160e01b81523060048201526001600160a01b03909116906370a082319060240160206040518083038186803b158015611a3157600080fd5b505afa158015611a45573d6000803e3d6000fd5b505050506040513d601f19601f82011682018060405250810190611a699190613315565b611a739190613371565b611a7d9190613371565b611a879190613390565b90508087600081518110611a9d57611a9d6133f4565b60200260200101818151611ab191906133b2565b9052505050505b505050909192565b60608060cb60009054906101000a90046001600160a01b03166001600160a01b0316634631b2466040518163ffffffff1660e01b815260040160006040518083038186803b158015611b1157600080fd5b505afa158015611b25573d6000803e3d6000fd5b505050506040513d6000823e601f3d908101601f19168201604052611b4d91908101906135ad565b915091509091565b60cc5460c95460405163b3596f0760e01b81526001600160a01b0391821660048201526000928392169063b3596f0790602401604080518083038186803b158015611b9f57600080fd5b505afa158015611bb3573d6000803e3d6000fd5b505050506040513d601f19601f82011682018060405250810190611b4d9190613668565b600080611be660655460ff1690565b15611ccd57600080611bf6611b55565b9092509050611c0681600a6134ee565b60c9548390611c2090600160a01b900460ff1660126134fd565b611c2b90600a6134ee565b60c9546040516370a0823160e01b81523060048201526001600160a01b03909116906370a082319060240160206040518083038186803b158015611c6e57600080fd5b505afa158015611c82573d6000803e3d6000fd5b505050506040513d601f19601f82011682018060405250810190611ca69190613315565b611cb09190613371565b611cba9190613371565b611cc49190613390565b92505050611d56565b60cb60009054906101000a90046001600160a01b03166001600160a01b031663bd244af46040518163ffffffff1660e01b815260040160206040518083038186803b158015611d1b57600080fd5b505afa158015611d2f573d6000803e3d6000fd5b505050506040513d601f19601f82011682018060405250810190611d539190613315565b90505b60d0548111611d66576000611d73565b60d054611d739082613694565b91505090565b60cb546040805163c89d5b8b60e01b815290516000926001600160a01b03169163c89d5b8b916004808301926020929190829003018186803b158015611dbe57600080fd5b505afa158015611dd2573d6000803e3d6000fd5b505050506040513d601f19601f82011682018060405250810190611df69190613315565b905090565b6097546001600160a01b0316331480611e1e575060ca546001600160a01b031633145b611e3a5760405162461bcd60e51b81526004016105d39061332e565b60655460ff1615611e5d5760405162461bcd60e51b81526004016105d3906133ca565b611e65612b0d565b60cb60009054906101000a90046001600160a01b03166001600160a01b031663db2e21bc6040518163ffffffff1660e01b8152600401600060405180830381600087803b158015611eb557600080fd5b505af1158015611ec9573d6000803e3d6000fd5b5050600060cf555050565b6097546001600160a01b0316331480611ef7575060ca546001600160a01b031633145b611f135760405162461bcd60e51b81526004016105d39061332e565b60026001541415611f665760405162461bcd60e51b815260206004820152601f60248201527f5265656e7472616e637947756172643a207265656e7472616e742063616c6c0060448201526064016105d3565b600260015560655460ff1615611f8e5760405162461bcd60e51b81526004016105d3906133ca565b6001600160a01b038416611fd65760405162461bcd60e51b815260206004820152600f60248201526e125b9d985b1a59081858d8dbdd5b9d608a1b60448201526064016105d3565b8251825181146120215760405162461bcd60e51b815260206004820152601660248201527509cdee840dac2e8c6d040c2e4e4c2f240d8cadccee8d60531b60448201526064016105d3565b60c95460009061203d90600690600160a01b900460ff166134fd565b61204890600a6134ee565b90506000805b838110156120d25782868281518110612069576120696133f4565b602002602001015161207b9190613371565b86828151811061208d5761208d6133f4565b6020026020010181815250508581815181106120ab576120ab6133f4565b6020026020010151826120be91906133b2565b9150806120ca81613520565b91505061204e565b50806000106121165760405162461bcd60e51b815260206004820152601060248201526f0416d6f756e7473206d757374203e20360841b60448201526064016105d3565b6001600160a01b038716600090815260d56020526040902054841161216f5760405162461bcd60e51b815260206004820152600f60248201526e139bdb98d9481a5cc818995a1a5b99608a1b60448201526064016105d3565b6001600160a01b038716600090815260d56020908152604080832087905586835260d690915290208190556121ab846121a6611bd7565b61263a565b60c9546121c3906001600160a01b0316883084612b66565b6000806121ce611b55565b909250905060006121e082600a6134ee565b60c95484906121fa90600160a01b900460ff1660126134fd565b61220590600a6134ee565b61220f9087613371565b6122199190613371565b6122239190613390565b60cf549091501561223657612236612738565b600080612243868b61284c565b909250905081156122b35760cb546040516326b89b7160e01b81526001600160a01b03909116906326b89b7190612280908e908590600401613208565b600060405180830381600087803b15801561229a57600080fd5b505af11580156122ae573d6000803e3d6000fd5b505050505b6122be836001612686565b60c9546040517fe31c7b8d08ee7db0afa68782e1028ef92305caeea8626633ad44d413e30f6b2f9161231d918f918a916001600160a01b03909116906001600160a01b0393841681526020810192909252909116604082015260600190565b60405180910390a150506001805550505050505050505050565b61233f6123ee565b6001600160a01b031661235a6097546001600160a01b031690565b6001600160a01b0316146123805760405162461bcd60e51b81526004016105d3906132b4565b6001600160a01b0381166123e55760405162461bcd60e51b815260206004820152602660248201527f4f776e61626c653a206e6577206f776e657220697320746865207a65726f206160448201526564647265737360d01b60648201526084016105d3565b61097a81612a22565b60006018361080159061240b575060d1546001600160a01b031633145b1561241d575060131936013560601c90565b503390565b60008054610100900460ff1615612469578160ff1660011480156124455750303b155b6124615760405162461bcd60e51b81526004016105d3906136ab565b506000919050565b60005460ff8084169116106124905760405162461bcd60e51b81526004016105d3906136ab565b506000805460ff191660ff92909216919091179055600190565b919050565b600054610100900460ff166124d65760405162461bcd60e51b81526004016105d3906136f9565b610dfe612b9e565b8015806125675750604051636eb1769f60e11b81523060048201526001600160a01b03838116602483015284169063dd62ed3e9060440160206040518083038186803b15801561252d57600080fd5b505afa158015612541573d6000803e3d6000fd5b505050506040513d601f19601f820116820180604052508101906125659190613315565b155b6125d25760405162461bcd60e51b815260206004820152603660248201527f5361666545524332303a20617070726f76652066726f6d206e6f6e2d7a65726f60448201527520746f206e6f6e2d7a65726f20616c6c6f77616e636560501b60648201526084016105d3565b6040516001600160a01b03831660248201526044810182905261263590849063095ea7b360e01b906064015b60408051601f198184030181529190526020810180516001600160e01b03166001600160e01b031990931692909217909152612bd5565b505050565b604080518082018252828152426020808301918252600086815260d49091529290922090518155905160019091015560d2546126765760d28290555b8160d3541015610ff4575060d355565b60cf546001821515146126b6578260cf54116126a35760006126c4565b8260cf546126b19190613694565b6126c4565b8260cf546126c491906133b2565b60cf81905560408051918252602082018390527f07b7fa586c4fdef11992d9448b97ba78814c23ddec7e1d4bf195fda6716e472691015b60405180910390a1505050565b6040516001600160a01b03831660248201526044810182905261263590849063a9059cbb60e01b906064016125fe565b60cb5460408051632f4912bd60e21b815290516000926001600160a01b03169163bd244af4916004808301926020929190829003018186803b15801561277d57600080fd5b505afa158015612791573d6000803e3d6000fd5b505050506040513d601f19601f820116820180604052508101906127b59190613315565b60cf5490915060008183111561280e5760006127d18385613694565b905061271060cd54826127e49190613371565b6127ee9190613390565b91508160d0600082825461280291906133b2565b90915550505060cf8390555b60408051848152602081018490529081018290527fa3e3c8c92ed1e364d04865f99cd96c3ae8f5a7d800f4a1d8148a58c6de6f1b71906060016126fb565b60d0546000906060908015612a1957600080612866611b55565b60c9549193509150600090839061288890600160a01b900460ff1660126134fd565b61289390600a6134ee565b61289d9190613371565b6128a883600a6134ee565b6128b29086613371565b6128bc9190613390565b87519091508890818310156128e057600095506128d9838b613694565b9950612941565b6128eb84600a6134ee565b60c954869061290590600160a01b900460ff1660126134fd565b61291090600a6134ee565b61291a908d613371565b6129249190613371565b61292e9190613390565b6129389087613694565b60009a90965092505b60d086905560005b818110156129b057828b8b8381518110612965576129656133f4565b60200260200101516129779190613371565b6129819190613390565b8a8281518110612993576129936133f4565b6020908102919091010152806129a881613520565b915050612949565b5060ce5460c9546129ce916001600160a01b03918216911685612708565b60c954604080518581526001600160a01b0390921660208301527f6e027f1905abd7233c51c9483e29a545074ed10d39db528c9791a246b26741ff910160405180910390a150505050505b50929391925050565b609780546001600160a01b038381166001600160a01b0319831681179093556040519116919082907f8be0079c531659141344cd1fd0a4f28419497f9722a3daafe3b4186f6b6457e090600090a35050565b60655460ff16612abd5760405162461bcd60e51b815260206004820152601460248201527314185d5cd8589b194e881b9bdd081c185d5cd95960621b60448201526064016105d3565b6065805460ff191690557f5db9ee0a495bf2e6ff9c91a7834c1ba4fdd244a5e8aa4e537bd38aeae4b073aa612af06123ee565b6040516001600160a01b03909116815260200160405180910390a1565b60655460ff1615612b305760405162461bcd60e51b81526004016105d3906133ca565b6065805460ff191660011790557f62e78cea01bee320cd4e420270b5ea74000d11b0c9f74754ebdbfc544b05a258612af06123ee565b6040516001600160a01b03808516602483015283166044820152606481018290526112749085906323b872dd60e01b906084016125fe565b600054610100900460ff16612bc55760405162461bcd60e51b81526004016105d3906136f9565b610dfe612bd06123ee565b612a22565b6000612c2a826040518060400160405280602081526020017f5361666545524332303a206c6f772d6c6576656c2063616c6c206661696c6564815250856001600160a01b0316612ca79092919063ffffffff16565b8051909150156126355780806020019051810190612c489190613744565b6126355760405162461bcd60e51b815260206004820152602a60248201527f5361666545524332303a204552433230206f7065726174696f6e20646964206e6044820152691bdd081cdd58d8d9595960b21b60648201526084016105d3565b6060612cb68484600085612cc0565b90505b9392505050565b606082471015612d215760405162461bcd60e51b815260206004820152602660248201527f416464726573733a20696e73756666696369656e742062616c616e636520666f6044820152651c8818d85b1b60d21b60648201526084016105d3565b6001600160a01b0385163b612d785760405162461bcd60e51b815260206004820152601d60248201527f416464726573733a2063616c6c20746f206e6f6e2d636f6e747261637400000060448201526064016105d3565b600080866001600160a01b03168587604051612d949190613766565b60006040518083038185875af1925050503d8060008114612dd1576040519150601f19603f3d011682016040523d82523d6000602084013e612dd6565b606091505b5091509150612de6828286612df1565b979650505050505050565b60608315612e00575081612cb9565b825115612e105782518084602001fd5b8160405162461bcd60e51b81526004016105d39190612f47565b600060208284031215612e3c57600080fd5b5035919050565b6001600160a01b038116811461097a57600080fd5b600060208284031215612e6a57600080fd5b8135612cb981612e43565b600080600080600060a08688031215612e8d57600080fd5b8535612e9881612e43565b94506020860135612ea881612e43565b93506040860135612eb881612e43565b92506060860135612ec881612e43565b91506080860135612ed881612e43565b809150509295509295909350565b600080600060608486031215612efb57600080fd5b8335612f0681612e43565b95602085013595506040909401359392505050565b60005b83811015612f36578181015183820152602001612f1e565b838111156112745750506000910152565b6020815260008251806020840152612f66816040850160208701612f1b565b601f01601f19169190910160400192915050565b600080600060608486031215612f8f57600080fd5b83359250602084013591506040840135612fa881612e43565b809150509250925092565b634e487b7160e01b600052604160045260246000fd5b604051601f8201601f1916810167ffffffffffffffff81118282101715612ff257612ff2612fb3565b604052919050565b600067ffffffffffffffff82111561301457613014612fb3565b5060051b60200190565b600082601f83011261302f57600080fd5b8135602061304461303f83612ffa565b612fc9565b82815260059290921b8401810191818101908684111561306357600080fd5b8286015b8481101561308757803561307a81612e43565b8352918301918301613067565b509695505050505050565b600082601f8301126130a357600080fd5b813560206130b361303f83612ffa565b82815260059290921b840181019181810190868411156130d257600080fd5b8286015b8481101561308757803583529183019183016130d6565b6000806040838503121561310057600080fd5b823567ffffffffffffffff8082111561311857600080fd5b6131248683870161301e565b9350602085013591508082111561313a57600080fd5b5061314785828601613092565b9150509250929050565b600081518084526020808501945080840160005b8381101561318157815187529582019590820190600101613165565b509495945050505050565b600081518084526020808501945080840160005b838110156131815781516001600160a01b0316875295820195908201906001016131a0565b6060815260006131d86060830186613151565b82810360208401526131ea818661318c565b905082810360408401526131fe8185613151565b9695505050505050565b60408152600061321b604083018561318c565b828103602084015261322d8185613151565b95945050505050565b6000806000806080858703121561324c57600080fd5b843561325781612e43565b9350602085013567ffffffffffffffff8082111561327457600080fd5b6132808883890161301e565b9450604087013591508082111561329657600080fd5b506132a387828801613092565b949793965093946060013593505050565b6020808252818101527f4f776e61626c653a2063616c6c6572206973206e6f7420746865206f776e6572604082015260600190565b805160ff811681146124aa57600080fd5b60006020828403121561330c57600080fd5b612cb9826132e9565b60006020828403121561332757600080fd5b5051919050565b60208082526013908201527227b7363c9037bbb732b91037b91030b236b4b760691b604082015260600190565b634e487b7160e01b600052601160045260246000fd5b600081600019048311821515161561338b5761338b61335b565b500290565b6000826133ad57634e487b7160e01b600052601260045260246000fd5b500490565b600082198211156133c5576133c561335b565b500190565b60208082526010908201526f14185d5cd8589b194e881c185d5cd95960821b604082015260600190565b634e487b7160e01b600052603260045260246000fd5b600181815b8085111561344557816000190482111561342b5761342b61335b565b8085161561343857918102915b93841c939080029061340f565b509250929050565b60008261345c575060016117fb565b81613469575060006117fb565b816001811461347f5760028114613489576134a5565b60019150506117fb565b60ff84111561349a5761349a61335b565b50506001821b6117fb565b5060208310610133831016604e8410600b84101617156134c8575081810a6117fb565b6134d2838361340a565b80600019048211156134e6576134e661335b565b029392505050565b6000612cb960ff84168361344d565b600060ff821660ff8416808210156135175761351761335b565b90039392505050565b60006000198214156135345761353461335b565b5060010190565b60008161354a5761354a61335b565b506000190190565b600082601f83011261356357600080fd5b8151602061357361303f83612ffa565b82815260059290921b8401810191818101908684111561359257600080fd5b8286015b848110156130875780518352918301918301613596565b600080604083850312156135c057600080fd5b825167ffffffffffffffff808211156135d857600080fd5b818501915085601f8301126135ec57600080fd5b815160206135fc61303f83612ffa565b82815260059290921b8401810191818101908984111561361b57600080fd5b948201945b8386101561364257855161363381612e43565b82529482019490820190613620565b9188015191965090935050508082111561365b57600080fd5b5061314785828601613552565b6000806040838503121561367b57600080fd5b8251915061368b602084016132e9565b90509250929050565b6000828210156136a6576136a661335b565b500390565b6020808252602e908201527f496e697469616c697a61626c653a20636f6e747261637420697320616c72656160408201526d191e481a5b9a5d1a585b1a5e995960921b606082015260800190565b6020808252602b908201527f496e697469616c697a61626c653a20636f6e7472616374206973206e6f74206960408201526a6e697469616c697a696e6760a81b606082015260800190565b60006020828403121561375657600080fd5b81518015158114612cb957600080fd5b60008251613778818460208701612f1b565b919091019291505056fea264697066735822122072abd38f86789d63ebee8eb69f748a250782a12c8f2b91383160ef0b1cf019fb64736f6c63430008090033",
  "devdoc": {
    "kind": "dev",
    "methods": {
      "depositByAdmin(address,address[],uint256[],uint256)": {
        "params": {
          "_USDTAmts": "amounts of USDT should be deposited to each pools. It's 6 decimals"
        }
      },
      "getUSDTPriceInUSD()": {
        "returns": {
          "_0": "the price of USDT in USD."
        }
      },
      "owner()": {
        "details": "Returns the address of the current owner."
      },
      "paused()": {
        "details": "Returns true if the contract is paused, and false otherwise."
      },
      "renounceOwnership()": {
        "details": "Leaves the contract without owner. It will not be possible to call `onlyOwner` functions anymore. Can only be called by the current owner. NOTE: Renouncing ownership will leave the contract without an owner, thereby removing any functionality that is only available to the owner."
      },
      "transferOwnership(address)": {
        "details": "Transfers ownership of the contract to a new account (`newOwner`). Can only be called by the current owner."
      },
      "withdrawPercByAdmin(address,uint256,uint256)": {
        "params": {
          "_sharePerc": "percentage of assets which should be withdrawn. It's 18 decimals"
        }
      }
    },
    "version": 1
  },
  "userdoc": {
    "kind": "user",
    "methods": {
      "depositByAdmin(address,address[],uint256[],uint256)": {
        "notice": "The length of array is based on token count. And the lengths should be same on the arraies."
      }
    },
    "version": 1
  },
  "storageLayout": {
    "storage": [
      {
        "astId": 130,
        "contract": "contracts/bni/BNIVaultTest.sol:BNIVaultTest",
        "label": "_initialized",
        "offset": 0,
        "slot": "0",
        "type": "t_uint8"
      },
      {
        "astId": 133,
        "contract": "contracts/bni/BNIVaultTest.sol:BNIVaultTest",
        "label": "_initializing",
        "offset": 1,
        "slot": "0",
        "type": "t_bool"
      },
      {
        "astId": 390,
        "contract": "contracts/bni/BNIVaultTest.sol:BNIVaultTest",
        "label": "_status",
        "offset": 0,
        "slot": "1",
        "type": "t_uint256"
      },
      {
        "astId": 434,
        "contract": "contracts/bni/BNIVaultTest.sol:BNIVaultTest",
        "label": "__gap",
        "offset": 0,
        "slot": "2",
        "type": "t_array(t_uint256)49_storage"
      },
      {
        "astId": 2709,
        "contract": "contracts/bni/BNIVaultTest.sol:BNIVaultTest",
        "label": "__gap",
        "offset": 0,
        "slot": "51",
        "type": "t_array(t_uint256)50_storage"
      },
      {
        "astId": 286,
        "contract": "contracts/bni/BNIVaultTest.sol:BNIVaultTest",
        "label": "_paused",
        "offset": 0,
        "slot": "101",
        "type": "t_bool"
      },
      {
        "astId": 375,
        "contract": "contracts/bni/BNIVaultTest.sol:BNIVaultTest",
        "label": "__gap",
        "offset": 0,
        "slot": "102",
        "type": "t_array(t_uint256)49_storage"
      },
      {
        "astId": 10,
        "contract": "contracts/bni/BNIVaultTest.sol:BNIVaultTest",
        "label": "_owner",
        "offset": 0,
        "slot": "151",
        "type": "t_address"
      },
      {
        "astId": 122,
        "contract": "contracts/bni/BNIVaultTest.sol:BNIVaultTest",
        "label": "__gap",
        "offset": 0,
        "slot": "152",
        "type": "t_array(t_uint256)49_storage"
      },
      {
        "astId": 5869,
        "contract": "contracts/bni/BNIVaultTest.sol:BNIVaultTest",
        "label": "USDT",
        "offset": 0,
        "slot": "201",
        "type": "t_contract(IERC20UpgradeableExt)5851"
      },
      {
        "astId": 5871,
        "contract": "contracts/bni/BNIVaultTest.sol:BNIVaultTest",
        "label": "usdtDecimals",
        "offset": 20,
        "slot": "201",
        "type": "t_uint8"
      },
      {
        "astId": 5873,
        "contract": "contracts/bni/BNIVaultTest.sol:BNIVaultTest",
        "label": "admin",
        "offset": 0,
        "slot": "202",
        "type": "t_address"
      },
      {
        "astId": 5876,
        "contract": "contracts/bni/BNIVaultTest.sol:BNIVaultTest",
        "label": "strategy",
        "offset": 0,
        "slot": "203",
        "type": "t_contract(IStrategy)5843"
      },
      {
        "astId": 5879,
        "contract": "contracts/bni/BNIVaultTest.sol:BNIVaultTest",
        "label": "priceOracle",
        "offset": 0,
        "slot": "204",
        "type": "t_contract(IPriceOracle)8979"
      },
      {
        "astId": 5881,
        "contract": "contracts/bni/BNIVaultTest.sol:BNIVaultTest",
        "label": "profitFeePerc",
        "offset": 0,
        "slot": "205",
        "type": "t_uint256"
      },
      {
        "astId": 5883,
        "contract": "contracts/bni/BNIVaultTest.sol:BNIVaultTest",
        "label": "treasuryWallet",
        "offset": 0,
        "slot": "206",
        "type": "t_address"
      },
      {
        "astId": 5885,
        "contract": "contracts/bni/BNIVaultTest.sol:BNIVaultTest",
        "label": "watermark",
        "offset": 0,
        "slot": "207",
        "type": "t_uint256"
      },
      {
        "astId": 5887,
        "contract": "contracts/bni/BNIVaultTest.sol:BNIVaultTest",
        "label": "fees",
        "offset": 0,
        "slot": "208",
        "type": "t_uint256"
      },
      {
        "astId": 5889,
        "contract": "contracts/bni/BNIVaultTest.sol:BNIVaultTest",
        "label": "trustedForwarder",
        "offset": 0,
        "slot": "209",
        "type": "t_address"
      },
      {
        "astId": 5891,
        "contract": "contracts/bni/BNIVaultTest.sol:BNIVaultTest",
        "label": "firstOperationNonce",
        "offset": 0,
        "slot": "210",
        "type": "t_uint256"
      },
      {
        "astId": 5893,
        "contract": "contracts/bni/BNIVaultTest.sol:BNIVaultTest",
        "label": "lastOperationNonce",
        "offset": 0,
        "slot": "211",
        "type": "t_uint256"
      },
      {
        "astId": 5898,
        "contract": "contracts/bni/BNIVaultTest.sol:BNIVaultTest",
        "label": "poolAtNonce",
        "offset": 0,
        "slot": "212",
        "type": "t_mapping(t_uint256,t_struct(PoolSnapshot)5866_storage)"
      },
      {
        "astId": 5902,
        "contract": "contracts/bni/BNIVaultTest.sol:BNIVaultTest",
        "label": "userLastOperationNonce",
        "offset": 0,
        "slot": "213",
        "type": "t_mapping(t_address,t_uint256)"
      },
      {
        "astId": 5906,
        "contract": "contracts/bni/BNIVaultTest.sol:BNIVaultTest",
        "label": "operationAmounts",
        "offset": 0,
        "slot": "214",
        "type": "t_mapping(t_uint256,t_uint256)"
      }
    ],
    "types": {
      "t_address": {
        "encoding": "inplace",
        "label": "address",
        "numberOfBytes": "20"
      },
      "t_array(t_uint256)49_storage": {
        "base": "t_uint256",
        "encoding": "inplace",
        "label": "uint256[49]",
        "numberOfBytes": "1568"
      },
      "t_array(t_uint256)50_storage": {
        "base": "t_uint256",
        "encoding": "inplace",
        "label": "uint256[50]",
        "numberOfBytes": "1600"
      },
      "t_bool": {
        "encoding": "inplace",
        "label": "bool",
        "numberOfBytes": "1"
      },
      "t_contract(IERC20UpgradeableExt)5851": {
        "encoding": "inplace",
        "label": "contract IERC20UpgradeableExt",
        "numberOfBytes": "20"
      },
      "t_contract(IPriceOracle)8979": {
        "encoding": "inplace",
        "label": "contract IPriceOracle",
        "numberOfBytes": "20"
      },
      "t_contract(IStrategy)5843": {
        "encoding": "inplace",
        "label": "contract IStrategy",
        "numberOfBytes": "20"
      },
      "t_mapping(t_address,t_uint256)": {
        "encoding": "mapping",
        "key": "t_address",
        "label": "mapping(address => uint256)",
        "numberOfBytes": "32",
        "value": "t_uint256"
      },
      "t_mapping(t_uint256,t_struct(PoolSnapshot)5866_storage)": {
        "encoding": "mapping",
        "key": "t_uint256",
        "label": "mapping(uint256 => struct BNIVault.PoolSnapshot)",
        "numberOfBytes": "32",
        "value": "t_struct(PoolSnapshot)5866_storage"
      },
      "t_mapping(t_uint256,t_uint256)": {
        "encoding": "mapping",
        "key": "t_uint256",
        "label": "mapping(uint256 => uint256)",
        "numberOfBytes": "32",
        "value": "t_uint256"
      },
      "t_struct(PoolSnapshot)5866_storage": {
        "encoding": "inplace",
        "label": "struct BNIVault.PoolSnapshot",
        "members": [
          {
            "astId": 5863,
            "contract": "contracts/bni/BNIVaultTest.sol:BNIVaultTest",
            "label": "poolInUSD",
            "offset": 0,
            "slot": "0",
            "type": "t_uint256"
          },
          {
            "astId": 5865,
            "contract": "contracts/bni/BNIVaultTest.sol:BNIVaultTest",
            "label": "ts",
            "offset": 0,
            "slot": "1",
            "type": "t_uint256"
          }
        ],
        "numberOfBytes": "64"
      },
      "t_uint256": {
        "encoding": "inplace",
        "label": "uint256",
        "numberOfBytes": "32"
      },
      "t_uint8": {
        "encoding": "inplace",
        "label": "uint8",
        "numberOfBytes": "1"
      }
    }
  }
}