{
  "address": "0xE01a4A2a6dbC9039b0F933dD3818be7C28423056",
  "abi": [
    {
      "anonymous": false,
      "inputs": [
        {
          "indexed": false,
          "internalType": "uint8",
          "name": "version",
          "type": "uint8"
        }
      ],
      "name": "Initialized",
      "type": "event"
    },
    {
      "anonymous": false,
      "inputs": [
        {
          "indexed": true,
          "internalType": "address",
          "name": "previousOwner",
          "type": "address"
        },
        {
          "indexed": true,
          "internalType": "address",
          "name": "newOwner",
          "type": "address"
        }
      ],
      "name": "OwnershipTransferred",
      "type": "event"
    },
    {
      "anonymous": false,
      "inputs": [
        {
          "indexed": false,
          "internalType": "address",
          "name": "account",
          "type": "address"
        }
      ],
      "name": "Paused",
      "type": "event"
    },
    {
      "anonymous": false,
      "inputs": [
        {
          "indexed": true,
          "internalType": "bytes32",
          "name": "role",
          "type": "bytes32"
        },
        {
          "indexed": true,
          "internalType": "bytes32",
          "name": "previousAdminRole",
          "type": "bytes32"
        },
        {
          "indexed": true,
          "internalType": "bytes32",
          "name": "newAdminRole",
          "type": "bytes32"
        }
      ],
      "name": "RoleAdminChanged",
      "type": "event"
    },
    {
      "anonymous": false,
      "inputs": [
        {
          "indexed": true,
          "internalType": "bytes32",
          "name": "role",
          "type": "bytes32"
        },
        {
          "indexed": true,
          "internalType": "address",
          "name": "account",
          "type": "address"
        },
        {
          "indexed": true,
          "internalType": "address",
          "name": "sender",
          "type": "address"
        }
      ],
      "name": "RoleGranted",
      "type": "event"
    },
    {
      "anonymous": false,
      "inputs": [
        {
          "indexed": true,
          "internalType": "bytes32",
          "name": "role",
          "type": "bytes32"
        },
        {
          "indexed": true,
          "internalType": "address",
          "name": "account",
          "type": "address"
        },
        {
          "indexed": true,
          "internalType": "address",
          "name": "sender",
          "type": "address"
        }
      ],
      "name": "RoleRevoked",
      "type": "event"
    },
    {
      "anonymous": false,
      "inputs": [
        {
          "indexed": true,
          "internalType": "address",
          "name": "from",
          "type": "address"
        },
        {
          "indexed": false,
          "internalType": "address",
          "name": "token",
          "type": "address"
        },
        {
          "indexed": true,
          "internalType": "uint256",
          "name": "amount",
          "type": "uint256"
        },
        {
          "indexed": false,
          "internalType": "uint256",
          "name": "fromChainId",
          "type": "uint256"
        },
        {
          "indexed": true,
          "internalType": "uint256",
          "name": "toChainId",
          "type": "uint256"
        },
        {
          "indexed": false,
          "internalType": "address",
          "name": "to",
          "type": "address"
        },
        {
          "indexed": false,
          "internalType": "enum BasicUserAgentBase.AdapterType",
          "name": "adapterType",
          "type": "uint8"
        },
        {
          "indexed": false,
          "internalType": "uint256",
          "name": "nonce",
          "type": "uint256"
        }
      ],
      "name": "Transfer",
      "type": "event"
    },
    {
      "anonymous": false,
      "inputs": [
        {
          "indexed": false,
          "internalType": "address",
          "name": "account",
          "type": "address"
        }
      ],
      "name": "Unpaused",
      "type": "event"
    },
    {
      "inputs": [],
      "name": "ADAPTER_ROLE",
      "outputs": [
        {
          "internalType": "bytes32",
          "name": "",
          "type": "bytes32"
        }
      ],
      "stateMutability": "view",
      "type": "function"
    },
    {
      "inputs": [],
      "name": "DEFAULT_ADMIN_ROLE",
      "outputs": [
        {
          "internalType": "bytes32",
          "name": "",
          "type": "bytes32"
        }
      ],
      "stateMutability": "view",
      "type": "function"
    },
    {
      "inputs": [],
      "name": "USDC",
      "outputs": [
        {
          "internalType": "contract IERC20Upgradeable",
          "name": "",
          "type": "address"
        }
      ],
      "stateMutability": "view",
      "type": "function"
    },
    {
      "inputs": [],
      "name": "USDT",
      "outputs": [
        {
          "internalType": "contract IERC20Upgradeable",
          "name": "",
          "type": "address"
        }
      ],
      "stateMutability": "view",
      "type": "function"
    },
    {
      "inputs": [],
      "name": "admin",
      "outputs": [
        {
          "internalType": "address",
          "name": "",
          "type": "address"
        }
      ],
      "stateMutability": "view",
      "type": "function"
    },
    {
      "inputs": [
        {
          "internalType": "uint256",
          "name": "_pool",
          "type": "uint256"
        },
        {
          "internalType": "uint256",
          "name": "_share",
          "type": "uint256"
        },
        {
          "internalType": "bytes",
          "name": "_signature",
          "type": "bytes"
        }
      ],
      "name": "burn",
      "outputs": [
        {
          "internalType": "uint256",
          "name": "_feeAmt",
          "type": "uint256"
        }
      ],
      "stateMutability": "payable",
      "type": "function"
    },
    {
      "inputs": [
        {
          "internalType": "address",
          "name": "_account",
          "type": "address"
        },
        {
          "internalType": "uint256",
          "name": "_pool",
          "type": "uint256"
        },
        {
          "internalType": "uint256",
          "name": "_share",
          "type": "uint256"
        }
      ],
      "name": "burnByAdmin",
      "outputs": [],
      "stateMutability": "nonpayable",
      "type": "function"
    },
    {
      "inputs": [
        {
          "internalType": "uint256",
          "name": "",
          "type": "uint256"
        }
      ],
      "name": "callAdapterTypes",
      "outputs": [
        {
          "internalType": "enum BasicUserAgentBase.AdapterType",
          "name": "",
          "type": "uint8"
        }
      ],
      "stateMutability": "view",
      "type": "function"
    },
    {
      "inputs": [],
      "name": "cbridgeAdapter",
      "outputs": [
        {
          "internalType": "contract IXChainAdapter",
          "name": "",
          "type": "address"
        }
      ],
      "stateMutability": "view",
      "type": "function"
    },
    {
      "inputs": [
        {
          "internalType": "uint256",
          "name": "",
          "type": "uint256"
        }
      ],
      "name": "cbridgeSenders",
      "outputs": [
        {
          "internalType": "address",
          "name": "",
          "type": "address"
        }
      ],
      "stateMutability": "view",
      "type": "function"
    },
    {
      "inputs": [],
      "name": "chainIdOnLP",
      "outputs": [
        {
          "internalType": "uint256",
          "name": "",
          "type": "uint256"
        }
      ],
      "stateMutability": "view",
      "type": "function"
    },
    {
      "inputs": [
        {
          "internalType": "uint256[]",
          "name": "_chainIds",
          "type": "uint256[]"
        },
        {
          "internalType": "bytes",
          "name": "_signature",
          "type": "bytes"
        }
      ],
      "name": "claim",
      "outputs": [
        {
          "internalType": "uint256",
          "name": "_feeAmt",
          "type": "uint256"
        }
      ],
      "stateMutability": "payable",
      "type": "function"
    },
    {
      "inputs": [
        {
          "internalType": "address",
          "name": "_account",
          "type": "address"
        }
      ],
      "name": "claimByAgent",
      "outputs": [],
      "stateMutability": "nonpayable",
      "type": "function"
    },
    {
      "inputs": [
        {
          "internalType": "uint256[]",
          "name": "_toChainIds",
          "type": "uint256[]"
        },
        {
          "internalType": "address[]",
          "name": "_tokens",
          "type": "address[]"
        },
        {
          "internalType": "uint256[]",
          "name": "_USDTAmts",
          "type": "uint256[]"
        },
        {
          "internalType": "uint256",
          "name": "_minterNonce",
          "type": "uint256"
        },
        {
          "internalType": "bytes",
          "name": "_signature",
          "type": "bytes"
        }
      ],
      "name": "deposit",
      "outputs": [
        {
          "internalType": "uint256",
          "name": "_feeAmt",
          "type": "uint256"
        }
      ],
      "stateMutability": "payable",
      "type": "function"
    },
    {
      "inputs": [
        {
          "internalType": "address",
          "name": "_account",
          "type": "address"
        },
        {
          "internalType": "address[]",
          "name": "_tokens",
          "type": "address[]"
        },
        {
          "internalType": "uint256[]",
          "name": "_USDTAmts",
          "type": "uint256[]"
        },
        {
          "internalType": "uint256",
          "name": "_minterNonce",
          "type": "uint256"
        }
      ],
      "name": "depositByAgent",
      "outputs": [],
      "stateMutability": "nonpayable",
      "type": "function"
    },
    {
      "inputs": [
        {
          "internalType": "uint256",
          "name": "_gatheredAmount",
          "type": "uint256"
        },
        {
          "internalType": "bytes",
          "name": "_signature",
          "type": "bytes"
        }
      ],
      "name": "exitWithdrawal",
      "outputs": [
        {
          "internalType": "uint256",
          "name": "_feeAmt",
          "type": "uint256"
        }
      ],
      "stateMutability": "payable",
      "type": "function"
    },
    {
      "inputs": [
        {
          "internalType": "address",
          "name": "_account",
          "type": "address"
        }
      ],
      "name": "exitWithdrawalByAdmin",
      "outputs": [],
      "stateMutability": "nonpayable",
      "type": "function"
    },
    {
      "inputs": [
        {
          "internalType": "uint256[]",
          "name": "_fromChainIds",
          "type": "uint256[]"
        },
        {
          "internalType": "enum BasicUserAgentBase.AdapterType[]",
          "name": "_adapterTypes",
          "type": "uint8[]"
        },
        {
          "internalType": "bytes",
          "name": "_signature",
          "type": "bytes"
        }
      ],
      "name": "gather",
      "outputs": [
        {
          "internalType": "uint256",
          "name": "_feeAmt",
          "type": "uint256"
        }
      ],
      "stateMutability": "payable",
      "type": "function"
    },
    {
      "inputs": [
        {
          "internalType": "address",
          "name": "_account",
          "type": "address"
        },
        {
          "internalType": "uint256",
          "name": "_toChainId",
          "type": "uint256"
        },
        {
          "internalType": "enum BasicUserAgentBase.AdapterType",
          "name": "_adapterType",
          "type": "uint8"
        }
      ],
      "name": "gatherByAdmin",
      "outputs": [],
      "stateMutability": "nonpayable",
      "type": "function"
    },
    {
      "inputs": [
        {
          "internalType": "bytes",
          "name": "message",
          "type": "bytes"
        }
      ],
      "name": "getMessageHashForSafe",
      "outputs": [
        {
          "internalType": "bytes32",
          "name": "",
          "type": "bytes32"
        }
      ],
      "stateMutability": "view",
      "type": "function"
    },
    {
      "inputs": [
        {
          "internalType": "bytes32",
          "name": "role",
          "type": "bytes32"
        }
      ],
      "name": "getRoleAdmin",
      "outputs": [
        {
          "internalType": "bytes32",
          "name": "",
          "type": "bytes32"
        }
      ],
      "stateMutability": "view",
      "type": "function"
    },
    {
      "inputs": [
        {
          "internalType": "bytes32",
          "name": "role",
          "type": "bytes32"
        },
        {
          "internalType": "uint256",
          "name": "index",
          "type": "uint256"
        }
      ],
      "name": "getRoleMember",
      "outputs": [
        {
          "internalType": "address",
          "name": "",
          "type": "address"
        }
      ],
      "stateMutability": "view",
      "type": "function"
    },
    {
      "inputs": [
        {
          "internalType": "bytes32",
          "name": "role",
          "type": "bytes32"
        }
      ],
      "name": "getRoleMemberCount",
      "outputs": [
        {
          "internalType": "uint256",
          "name": "",
          "type": "uint256"
        }
      ],
      "stateMutability": "view",
      "type": "function"
    },
    {
      "inputs": [
        {
          "internalType": "bytes32",
          "name": "role",
          "type": "bytes32"
        },
        {
          "internalType": "address",
          "name": "account",
          "type": "address"
        }
      ],
      "name": "grantRole",
      "outputs": [],
      "stateMutability": "nonpayable",
      "type": "function"
    },
    {
      "inputs": [
        {
          "internalType": "bytes32",
          "name": "role",
          "type": "bytes32"
        },
        {
          "internalType": "address",
          "name": "account",
          "type": "address"
        }
      ],
      "name": "hasRole",
      "outputs": [
        {
          "internalType": "bool",
          "name": "",
          "type": "bool"
        }
      ],
      "stateMutability": "view",
      "type": "function"
    },
    {
      "inputs": [
        {
          "internalType": "uint256",
          "name": "_pool",
          "type": "uint256"
        },
        {
          "internalType": "uint256",
          "name": "_USDT6Amt",
          "type": "uint256"
        },
        {
          "internalType": "bytes",
          "name": "_signature",
          "type": "bytes"
        }
      ],
      "name": "initDeposit",
      "outputs": [
        {
          "internalType": "uint256",
          "name": "_feeAmt",
          "type": "uint256"
        }
      ],
      "stateMutability": "payable",
      "type": "function"
    },
    {
      "inputs": [
        {
          "internalType": "address",
          "name": "_account",
          "type": "address"
        },
        {
          "internalType": "uint256",
          "name": "_pool",
          "type": "uint256"
        },
        {
          "internalType": "uint256",
          "name": "_USDT6Amt",
          "type": "uint256"
        }
      ],
      "name": "initDepositByAdmin",
      "outputs": [],
      "stateMutability": "nonpayable",
      "type": "function"
    },
    {
      "inputs": [
        {
          "internalType": "address",
          "name": "_admin",
          "type": "address"
        },
        {
          "internalType": "contract ISwap",
          "name": "_swap",
          "type": "address"
        },
        {
          "internalType": "contract IXChainAdapter",
          "name": "_multichainAdapter",
          "type": "address"
        },
        {
          "internalType": "contract IXChainAdapter",
          "name": "_cbridgeAdapter",
          "type": "address"
        }
      ],
      "name": "initialize",
      "outputs": [],
      "stateMutability": "nonpayable",
      "type": "function"
    },
    {
      "inputs": [
        {
          "internalType": "address",
          "name": "_subImpl",
          "type": "address"
        },
        {
          "internalType": "address",
          "name": "_admin",
          "type": "address"
        },
        {
          "internalType": "contract ISwap",
          "name": "_swap",
          "type": "address"
        },
        {
          "internalType": "contract IXChainAdapter",
          "name": "_multichainAdapter",
          "type": "address"
        },
        {
          "internalType": "contract IXChainAdapter",
          "name": "_cbridgeAdapter",
          "type": "address"
        },
        {
          "internalType": "contract ISTIMinter",
          "name": "_stiMinter",
          "type": "address"
        },
        {
          "internalType": "contract ISTIVault",
          "name": "_stiVault",
          "type": "address"
        }
      ],
      "name": "initialize1",
      "outputs": [],
      "stateMutability": "nonpayable",
      "type": "function"
    },
    {
      "inputs": [],
      "name": "isLPChain",
      "outputs": [
        {
          "internalType": "bool",
          "name": "",
          "type": "bool"
        }
      ],
      "stateMutability": "view",
      "type": "function"
    },
    {
      "inputs": [
        {
          "internalType": "address",
          "name": "forwarder",
          "type": "address"
        }
      ],
      "name": "isTrustedForwarder",
      "outputs": [
        {
          "internalType": "bool",
          "name": "",
          "type": "bool"
        }
      ],
      "stateMutability": "view",
      "type": "function"
    },
    {
      "inputs": [
        {
          "internalType": "address",
          "name": "_account",
          "type": "address"
        },
        {
          "internalType": "bytes",
          "name": "_data",
          "type": "bytes"
        },
        {
          "internalType": "bytes",
          "name": "_signature",
          "type": "bytes"
        }
      ],
      "name": "isValidSignature",
      "outputs": [
        {
          "internalType": "bool",
          "name": "",
          "type": "bool"
        }
      ],
      "stateMutability": "view",
      "type": "function"
    },
    {
      "inputs": [
        {
          "internalType": "uint256",
          "name": "_USDT6Amt",
          "type": "uint256"
        },
        {
          "internalType": "bytes",
          "name": "_signature",
          "type": "bytes"
        }
      ],
      "name": "mint",
      "outputs": [
        {
          "internalType": "uint256",
          "name": "_feeAmt",
          "type": "uint256"
        }
      ],
      "stateMutability": "payable",
      "type": "function"
    },
    {
      "inputs": [
        {
          "internalType": "address",
          "name": "_account",
          "type": "address"
        },
        {
          "internalType": "uint256",
          "name": "_USDT6Amt",
          "type": "uint256"
        }
      ],
      "name": "mintByAdmin",
      "outputs": [],
      "stateMutability": "nonpayable",
      "type": "function"
    },
    {
      "inputs": [],
      "name": "multichainAdapter",
      "outputs": [
        {
          "internalType": "contract IXChainAdapter",
          "name": "",
          "type": "address"
        }
      ],
      "stateMutability": "view",
      "type": "function"
    },
    {
      "inputs": [
        {
          "internalType": "address",
          "name": "",
          "type": "address"
        }
      ],
      "name": "nonces",
      "outputs": [
        {
          "internalType": "uint256",
          "name": "",
          "type": "uint256"
        }
      ],
      "stateMutability": "view",
      "type": "function"
    },
    {
      "inputs": [
        {
          "internalType": "uint256",
          "name": "_cbridgeNonce",
          "type": "uint256"
        },
        {
          "internalType": "address",
          "name": "_token",
          "type": "address"
        },
        {
          "internalType": "uint256",
          "name": "amount",
          "type": "uint256"
        },
        {
          "internalType": "uint256",
          "name": "",
          "type": "uint256"
        },
        {
          "internalType": "address",
          "name": "",
          "type": "address"
        }
      ],
      "name": "onRefunded",
      "outputs": [],
      "stateMutability": "nonpayable",
      "type": "function"
    },
    {
      "inputs": [],
      "name": "owner",
      "outputs": [
        {
          "internalType": "address",
          "name": "",
          "type": "address"
        }
      ],
      "stateMutability": "view",
      "type": "function"
    },
    {
      "inputs": [],
      "name": "pause",
      "outputs": [],
      "stateMutability": "nonpayable",
      "type": "function"
    },
    {
      "inputs": [],
      "name": "paused",
      "outputs": [
        {
          "internalType": "bool",
          "name": "",
          "type": "bool"
        }
      ],
      "stateMutability": "view",
      "type": "function"
    },
    {
      "inputs": [],
      "name": "renounceOwnership",
      "outputs": [],
      "stateMutability": "nonpayable",
      "type": "function"
    },
    {
      "inputs": [
        {
          "internalType": "bytes32",
          "name": "role",
          "type": "bytes32"
        },
        {
          "internalType": "address",
          "name": "account",
          "type": "address"
        }
      ],
      "name": "renounceRole",
      "outputs": [],
      "stateMutability": "nonpayable",
      "type": "function"
    },
    {
      "inputs": [
        {
          "internalType": "bytes32",
          "name": "role",
          "type": "bytes32"
        },
        {
          "internalType": "address",
          "name": "account",
          "type": "address"
        }
      ],
      "name": "revokeRole",
      "outputs": [],
      "stateMutability": "nonpayable",
      "type": "function"
    },
    {
      "inputs": [
        {
          "internalType": "address",
          "name": "_admin",
          "type": "address"
        }
      ],
      "name": "setAdmin",
      "outputs": [],
      "stateMutability": "nonpayable",
      "type": "function"
    },
    {
      "inputs": [
        {
          "internalType": "address",
          "name": "_biconomy",
          "type": "address"
        }
      ],
      "name": "setBiconomy",
      "outputs": [],
      "stateMutability": "nonpayable",
      "type": "function"
    },
    {
      "inputs": [
        {
          "internalType": "contract IXChainAdapter",
          "name": "_cbridgeAdapter",
          "type": "address"
        }
      ],
      "name": "setCBridgeAdapter",
      "outputs": [],
      "stateMutability": "nonpayable",
      "type": "function"
    },
    {
      "inputs": [
        {
          "internalType": "uint256[]",
          "name": "_chainIds",
          "type": "uint256[]"
        },
        {
          "internalType": "enum BasicUserAgentBase.AdapterType[]",
          "name": "_adapterTypes",
          "type": "uint8[]"
        }
      ],
      "name": "setCallAdapterTypes",
      "outputs": [],
      "stateMutability": "nonpayable",
      "type": "function"
    },
    {
      "inputs": [
        {
          "internalType": "contract IXChainAdapter",
          "name": "_multichainAdapter",
          "type": "address"
        }
      ],
      "name": "setMultichainAdapter",
      "outputs": [],
      "stateMutability": "nonpayable",
      "type": "function"
    },
    {
      "inputs": [
        {
          "internalType": "contract ISTIMinter",
          "name": "_stiMinter",
          "type": "address"
        }
      ],
      "name": "setSTIMinter",
      "outputs": [],
      "stateMutability": "nonpayable",
      "type": "function"
    },
    {
      "inputs": [
        {
          "internalType": "contract ISTIVault",
          "name": "_stiVault",
          "type": "address"
        }
      ],
      "name": "setSTIVault",
      "outputs": [],
      "stateMutability": "nonpayable",
      "type": "function"
    },
    {
      "inputs": [
        {
          "internalType": "address",
          "name": "_subImpl",
          "type": "address"
        }
      ],
      "name": "setSubImpl",
      "outputs": [],
      "stateMutability": "nonpayable",
      "type": "function"
    },
    {
      "inputs": [
        {
          "internalType": "uint256[]",
          "name": "_chainIds",
          "type": "uint256[]"
        },
        {
          "internalType": "address[]",
          "name": "_userAgents",
          "type": "address[]"
        }
      ],
      "name": "setUserAgents",
      "outputs": [],
      "stateMutability": "nonpayable",
      "type": "function"
    },
    {
      "inputs": [],
      "name": "stiMinter",
      "outputs": [
        {
          "internalType": "contract ISTIMinter",
          "name": "",
          "type": "address"
        }
      ],
      "stateMutability": "view",
      "type": "function"
    },
    {
      "inputs": [],
      "name": "stiVault",
      "outputs": [
        {
          "internalType": "contract ISTIVault",
          "name": "",
          "type": "address"
        }
      ],
      "stateMutability": "view",
      "type": "function"
    },
    {
      "inputs": [],
      "name": "subImpl",
      "outputs": [
        {
          "internalType": "address",
          "name": "",
          "type": "address"
        }
      ],
      "stateMutability": "view",
      "type": "function"
    },
    {
      "inputs": [
        {
          "internalType": "bytes4",
          "name": "interfaceId",
          "type": "bytes4"
        }
      ],
      "name": "supportsInterface",
      "outputs": [
        {
          "internalType": "bool",
          "name": "",
          "type": "bool"
        }
      ],
      "stateMutability": "view",
      "type": "function"
    },
    {
      "inputs": [
        {
          "internalType": "uint256",
          "name": "_gatheredAmount",
          "type": "uint256"
        },
        {
          "internalType": "bytes",
          "name": "_signature",
          "type": "bytes"
        }
      ],
      "name": "takeOut",
      "outputs": [],
      "stateMutability": "nonpayable",
      "type": "function"
    },
    {
      "inputs": [
        {
          "internalType": "uint256[]",
          "name": "_amounts",
          "type": "uint256[]"
        },
        {
          "internalType": "uint256[]",
          "name": "_toChainIds",
          "type": "uint256[]"
        },
        {
          "internalType": "enum BasicUserAgentBase.AdapterType[]",
          "name": "_adapterTypes",
          "type": "uint8[]"
        },
        {
          "internalType": "bytes",
          "name": "_signature",
          "type": "bytes"
        }
      ],
      "name": "transfer",
      "outputs": [
        {
          "internalType": "uint256",
          "name": "_feeAmt",
          "type": "uint256"
        }
      ],
      "stateMutability": "payable",
      "type": "function"
    },
    {
      "inputs": [
        {
          "internalType": "address",
          "name": "newOwner",
          "type": "address"
        }
      ],
      "name": "transferOwnership",
      "outputs": [],
      "stateMutability": "nonpayable",
      "type": "function"
    },
    {
      "inputs": [],
      "name": "trustedForwarder",
      "outputs": [
        {
          "internalType": "address",
          "name": "",
          "type": "address"
        }
      ],
      "stateMutability": "view",
      "type": "function"
    },
    {
      "inputs": [],
      "name": "unpause",
      "outputs": [],
      "stateMutability": "nonpayable",
      "type": "function"
    },
    {
      "inputs": [
        {
          "internalType": "address",
          "name": "",
          "type": "address"
        }
      ],
      "name": "usdcBalances",
      "outputs": [
        {
          "internalType": "uint256",
          "name": "",
          "type": "uint256"
        }
      ],
      "stateMutability": "view",
      "type": "function"
    },
    {
      "inputs": [
        {
          "internalType": "address",
          "name": "",
          "type": "address"
        }
      ],
      "name": "usdtBalances",
      "outputs": [
        {
          "internalType": "uint256",
          "name": "",
          "type": "uint256"
        }
      ],
      "stateMutability": "view",
      "type": "function"
    },
    {
      "inputs": [
        {
          "internalType": "uint256",
          "name": "",
          "type": "uint256"
        }
      ],
      "name": "userAgents",
      "outputs": [
        {
          "internalType": "address",
          "name": "",
          "type": "address"
        }
      ],
      "stateMutability": "view",
      "type": "function"
    },
    {
      "inputs": [],
      "name": "versionRecipient",
      "outputs": [
        {
          "internalType": "string",
          "name": "",
          "type": "string"
        }
      ],
      "stateMutability": "pure",
      "type": "function"
    },
    {
      "inputs": [
        {
          "internalType": "uint256[]",
          "name": "_chainIds",
          "type": "uint256[]"
        },
        {
          "internalType": "uint256",
          "name": "_sharePerc",
          "type": "uint256"
        },
        {
          "internalType": "uint256",
          "name": "_minterNonce",
          "type": "uint256"
        },
        {
          "internalType": "bytes",
          "name": "_signature",
          "type": "bytes"
        }
      ],
      "name": "withdraw",
      "outputs": [
        {
          "internalType": "uint256",
          "name": "_feeAmt",
          "type": "uint256"
        }
      ],
      "stateMutability": "payable",
      "type": "function"
    },
    {
      "inputs": [
        {
          "internalType": "address",
          "name": "_account",
          "type": "address"
        },
        {
          "internalType": "uint256",
          "name": "_sharePerc",
          "type": "uint256"
        },
        {
          "internalType": "uint256",
          "name": "_minterNonce",
          "type": "uint256"
        }
      ],
      "name": "withdrawPercByAgent",
      "outputs": [],
      "stateMutability": "nonpayable",
      "type": "function"
    },
    {
      "stateMutability": "payable",
      "type": "receive"
    }
  ],
  "transactionHash": "0x9a8d15adbb9fea6bcd37f207ed05b89fa9d6a0cf83b1572fb28d7456a51f66fb",
  "args": [],
  "numDeployments": 3,
  "solcInputHash": "2bca6ab8513ac2cd6e669f226b8d21f6",
  "bytecode": "0x608060405234801561001057600080fd5b50614b08806100206000396000f3fe6080604052600436106103e85760003560e01c80637ecebe0011610208578063b8a6752d11610118578063ddd87934116100ab578063f2fde38b1161007a578063f2fde38b14610baa578063f77de4861461053c578063f7bb364c14610bca578063f851a44014610be5578063f8c8765e14610c0657600080fd5b8063ddd8793414610b37578063e629f7b314610b58578063e9e81a6a14610b58578063f2ea161814610b7357600080fd5b8063d1dbbc60116100e7578063d1dbbc6014610af6578063d48a3d3d14610b09578063d547741f14610b17578063db7fd4081461092b57600080fd5b8063b8a6752d14610a82578063c54e44eb14610a95578063c7205bce14610ab6578063ca15c87314610ad657600080fd5b806389a302711161019b57806391d148541161016a57806391d14854146109df5780639e17747a146109ff578063a217fddf14610a1f578063a99c68c514610a34578063af3da2f414610a6257600080fd5b806389a30271146109715780638da5cb5b146109925780639010d07c146109b1578063918f1a5c146109d157600080fd5b80638456cb59116101d75780638456cb5914610916578063847627391461092b57806386355d961461093e578063897fd4691461095157600080fd5b80637ecebe001461088f5780638033a805146108bd57806380a5a371146108dd5780638365d5ee146108f057600080fd5b806343a463c7116103035780635f2b373711610296578063704013591161026557806370401359146107fa578063704b6c021461081a578063715018a61461083a578063754fc0c81461084f5780637da0a8771461086f57600080fd5b80635f2b3737146107755780636687977f146107955780636e5677ce146107a85780636ebf33ce146107c357600080fd5b806357cdd7f9116102d257806357cdd7f9146106ee578063582489cb1461070f578063582712b11461073d5780635c975abb1461075d57600080fd5b806343a463c71461064f578063472c38ff1461066f578063486ff0cd1461068f578063572b6c05146106bf57600080fd5b8063264489ce1161037b57806336568abe1161034a57806336568abe146105bc57806339dacedb146105dc5780633f4ba83a1461061a5780634107c4f61461062f57600080fd5b8063264489ce1461053c57806328054fb71461055c5780632f2ff15d1461057c57806331e8df891461059c57600080fd5b80630d8b76a8116103b75780630d8b76a8146104b357806319463093146104d55780631a5787d8146104f5578063248a9ca31461050c57600080fd5b8063013dee70146103f457806301ffc9a71461043257806302a882e6146104625780630c3a18211461049257600080fd5b366103ef57005b600080fd5b34801561040057600080fd5b5061019554610415906001600160a01b031681565b6040516001600160a01b0390911681526020015b60405180910390f35b34801561043e57600080fd5b5061045261044d366004613c49565b610c26565b6040519015158152602001610429565b34801561046e57600080fd5b50610484600080516020614ab383398151915281565b604051908152602001610429565b34801561049e57600080fd5b5061016654610415906001600160a01b031681565b3480156104bf57600080fd5b506104d36104ce366004613c88565b610c51565b005b3480156104e157600080fd5b506104846104f0366004613d5a565b610cc6565b34801561050157600080fd5b506104846101925481565b34801561051857600080fd5b50610484610527366004613d8e565b60009081526097602052604090206001015490565b34801561054857600080fd5b506104d3610557366004613c88565b610d12565b34801561056857600080fd5b506104d3610577366004613db6565b610d1e565b34801561058857600080fd5b506104d3610597366004613df4565b610d2c565b3480156105a857600080fd5b506104d36105b7366004613c88565b610d56565b3480156105c857600080fd5b506104d36105d7366004613df4565b610dda565b3480156105e857600080fd5b5061060d6105f7366004613d8e565b61016a6020526000908152604090205460ff1681565b6040516104299190613e5c565b34801561062657600080fd5b506104d3610e64565b34801561063b57600080fd5b506104d361064a366004613e6a565b6111b1565b34801561065b57600080fd5b506104d361066a366004613f00565b611342565b34801561067b57600080fd5b506104d361068a366004613f35565b6113ca565b34801561069b57600080fd5b5060408051808201825260018152603160f81b602082015290516104299190613fb7565b3480156106cb57600080fd5b506104526106da366004613c88565b6000546001600160a01b0391821691161490565b3480156106fa57600080fd5b5061016754610415906001600160a01b031681565b34801561071b57600080fd5b5061048461072a366004613c88565b6101656020526000908152604090205481565b34801561074957600080fd5b506104d36107583660046140d1565b6114c1565b34801561076957600080fd5b5060fb5460ff16610452565b34801561078157600080fd5b506104d36107903660046141b0565b6114d0565b6104846107a336600461425b565b6115e8565b3480156107b457600080fd5b506104d36105773660046142d8565b3480156107cf57600080fd5b506104156107de366004613d8e565b610169602052600090815260409020546001600160a01b031681565b34801561080657600080fd5b506104d3610815366004613c88565b6115fc565b34801561082657600080fd5b506104d3610835366004613c88565b61182d565b34801561084657600080fd5b506104d361189a565b34801561085b57600080fd5b506104d361086a366004613c88565b6118ee565b34801561087b57600080fd5b50600054610415906001600160a01b031681565b34801561089b57600080fd5b506104846108aa366004613c88565b6101606020526000908152604090205481565b3480156108c957600080fd5b506104d36108d8366004613c88565b611961565b6104846108eb366004614323565b611a16565b3480156108fc57600080fd5b50610193546104159061010090046001600160a01b031681565b34801561092257600080fd5b506104d3611a29565b6104846109393660046142d8565b611b1e565b61048461094c366004614375565b611b30565b34801561095d57600080fd5b506104d361096c366004614431565b611b45565b34801561097d57600080fd5b5061016254610415906001600160a01b031681565b34801561099e57600080fd5b5061012d546001600160a01b0316610415565b3480156109bd57600080fd5b506104156109cc36600461448a565b611c5a565b6104846108eb3660046144ac565b3480156109eb57600080fd5b506104526109fa366004613df4565b611c79565b348015610a0b57600080fd5b506104d3610a1a366004613c88565b611ca4565b348015610a2b57600080fd5b50610484600081565b348015610a4057600080fd5b50610484610a4f366004613c88565b6101646020526000908152604090205481565b348015610a6e57600080fd5b506104d3610a7d36600461452a565b611d28565b610484610a90366004614323565b611d30565b348015610aa157600080fd5b5061016354610415906001600160a01b031681565b348015610ac257600080fd5b50610452610ad1366004614556565b611e9a565b348015610ae257600080fd5b50610484610af1366004613d8e565b612019565b610484610b0436600461459f565b612030565b610484610939366004614634565b348015610b2357600080fd5b506104d3610b32366004613df4565b6120e8565b348015610b4357600080fd5b5061019454610415906001600160a01b031681565b348015610b6457600080fd5b506104d3610577366004613f00565b348015610b7f57600080fd5b50610415610b8e366004613d8e565b610168602052600090815260409020546001600160a01b031681565b348015610bb657600080fd5b506104d3610bc5366004613c88565b61210d565b348015610bd657600080fd5b50610193546104529060ff1681565b348015610bf157600080fd5b5061015f54610415906001600160a01b031681565b348015610c1257600080fd5b506104d3610c2136600461468f565b612163565b60006001600160e01b03198216635a05180f60e01b1480610c4b5750610c4b82612286565b92915050565b610c596122bb565b6001600160a01b0316610c7561012d546001600160a01b031690565b6001600160a01b031614610ca45760405162461bcd60e51b8152600401610c9b906146eb565b60405180910390fd5b600080546001600160a01b0319166001600160a01b0392909216919091179055565b805160209182012060015460408051601960f81b81860152600160f81b602182015260228101929092526042808301939093528051808303909301835260629091019052805191012090565b610d1a6122ca565b5050565b610d266122ca565b50505050565b600082815260976020526040902060010154610d478161234b565b610d51838361235c565b505050565b610d5e6122bb565b6001600160a01b0316610d7a61012d546001600160a01b031690565b6001600160a01b031614610da05760405162461bcd60e51b8152600401610c9b906146eb565b61016754610db7906001600160a01b03168261237e565b61016780546001600160a01b0319166001600160a01b0392909216919091179055565b610de26122bb565b6001600160a01b0316816001600160a01b031614610e5a5760405162461bcd60e51b815260206004820152602f60248201527f416363657373436f6e74726f6c3a2063616e206f6e6c792072656e6f756e636560448201526e103937b632b9903337b91039b2b63360891b6064820152608401610c9b565b610d1a8282612450565b610e6c6122bb565b6001600160a01b0316610e8861012d546001600160a01b031690565b6001600160a01b031614610eae5760405162461bcd60e51b8152600401610c9b906146eb565b60fb5460ff16610ef75760405162461bcd60e51b815260206004820152601460248201527314185d5cd8589b194e881b9bdd081c185d5cd95960621b6044820152606401610c9b565b610eff612472565b6101635461016654604051636eb1769f60e11b81523060048201526001600160a01b03918216602482015291169063dd62ed3e9060440160206040518083038186803b158015610f4e57600080fd5b505afa158015610f62573d6000803e3d6000fd5b505050506040513d601f19601f82011682018060405250810190610f869190614720565b610fab576101665461016354610fab916001600160a01b03918216911660001961250b565b6101625461016654604051636eb1769f60e11b81523060048201526001600160a01b03918216602482015291169063dd62ed3e9060440160206040518083038186803b158015610ffa57600080fd5b505afa15801561100e573d6000803e3d6000fd5b505050506040513d601f19601f820116820180604052508101906110329190614720565b611057576101665461016254611057916001600160a01b03918216911660001961250b565b6101635461016754604051636eb1769f60e11b81523060048201526001600160a01b03918216602482015291169063dd62ed3e9060440160206040518083038186803b1580156110a657600080fd5b505afa1580156110ba573d6000803e3d6000fd5b505050506040513d601f19601f820116820180604052508101906110de9190614720565b611103576101675461016354611103916001600160a01b03918216911660001961250b565b6101625461016754604051636eb1769f60e11b81523060048201526001600160a01b03918216602482015291169063dd62ed3e9060440160206040518083038186803b15801561115257600080fd5b505afa158015611166573d6000803e3d6000fd5b505050506040513d601f19601f8201168201806040525081019061118a9190614720565b6111af5761016754610162546111af916001600160a01b03918216911660001961250b565b565b60006111bd6001612662565b905080156111d9576000805460ff60a81b1916600160a81b1790555b6111e1612702565b6111fe60006111f961012d546001600160a01b031690565b61273b565b611206612745565b61121060016127cd565b61016280546001600160a01b0319166001600160a01b039290921691909117905561123b60006127cd565b61016380546001600160a01b03199081166001600160a01b039384161790915561015f805482168a8416179055610161805490911691881691909117905561128285611ca4565b61128b84610d56565b61019580546001600160a01b0319166001600160a01b038a16179055600046600461019281905561019380546001600160a81b031916918314610100600160a81b031916919091176101006001600160a01b0388160217905590506112ef836115fc565b508015611338576000805460ff60a81b19169055604051600181527f7f26b83ff96e1f2b6a682f133852f6798a09c465da95921460cefb38474024989060200160405180910390a15b5050505050505050565b600080516020614ab383398151915261135a8161234b565b610193546040516343a463c760e01b81526001600160a01b0386811660048301526024820186905260448201859052610100909204909116906343a463c790606401600060405180830381600087803b1580156113b657600080fd5b505af1158015611338573d6000803e3d6000fd5b610167546001600160a01b031633146114145760405162461bcd60e51b815260206004820152600c60248201526b4f6e6c79206342726964676560a01b6044820152606401610c9b565b60008581526101686020526040902054610163546001600160a01b039182169186811691161415611473576001600160a01b038116600090815261016560205260408120805486929061146890849061474f565b909155506114b99050565b610162546001600160a01b03868116911614156114b9576001600160a01b03811660009081526101646020526040812080548692906114b390849061474f565b90915550505b505050505050565b6114c96122ca565b5050505050565b6114d86122bb565b6001600160a01b03166114f461012d546001600160a01b031690565b6001600160a01b03161461151a5760405162461bcd60e51b8152600401610c9b906146eb565b815160005b81811015610d2657600084828151811061153b5761153b614767565b6020026020010151905080600014156115885760405162461bcd60e51b815260206004820152600f60248201526e125b9d985b1a590818da185a5b9251608a1b6044820152606401610c9b565b83828151811061159a5761159a614767565b602090810291909101810151600083815261016a9092526040909120805460ff1916600183818111156115cf576115cf613e24565b02179055505080806115e09061477d565b91505061151f565b60006115f26122ca565b5095945050505050565b6116046122bb565b6001600160a01b031661162061012d546001600160a01b031690565b6001600160a01b0316146116465760405162461bcd60e51b8152600401610c9b906146eb565b6001600160a01b03811661168c5760405162461bcd60e51b815260206004820152600d60248201526c125b9d985b1a59081d985d5b1d609a1b6044820152606401610c9b565b610194546001600160a01b031680156116d157610163546116b8906001600160a01b031682600061250b565b610162546116d1906001600160a01b031682600061250b565b61019480546001600160a01b0319166001600160a01b0384811691821790925561016354604051636eb1769f60e11b815230600482015260248101929092529091169063dd62ed3e9060440160206040518083038186803b15801561173557600080fd5b505afa158015611749573d6000803e3d6000fd5b505050506040513d601f19601f8201168201806040525081019061176d9190614720565b61178b576101635461178b906001600160a01b03168360001961250b565b61016254604051636eb1769f60e11b81523060048201526001600160a01b0384811660248301529091169063dd62ed3e9060440160206040518083038186803b1580156117d757600080fd5b505afa1580156117eb573d6000803e3d6000fd5b505050506040513d601f19601f8201168201806040525081019061180f9190614720565b610d1a5761016254610d1a906001600160a01b03168360001961250b565b6118356122bb565b6001600160a01b031661185161012d546001600160a01b031690565b6001600160a01b0316146118775760405162461bcd60e51b8152600401610c9b906146eb565b61015f80546001600160a01b0319166001600160a01b0392909216919091179055565b6118a26122bb565b6001600160a01b03166118be61012d546001600160a01b031690565b6001600160a01b0316146118e45760405162461bcd60e51b8152600401610c9b906146eb565b6111af6000612a2d565b6118f66122bb565b6001600160a01b031661191261012d546001600160a01b031690565b6001600160a01b0316146119385760405162461bcd60e51b8152600401610c9b906146eb565b61019380546001600160a01b0390921661010002610100600160a81b0319909216919091179055565b6119696122bb565b6001600160a01b031661198561012d546001600160a01b031690565b6001600160a01b0316146119ab5760405162461bcd60e51b8152600401610c9b906146eb565b6001600160a01b0381166119f35760405162461bcd60e51b815260206004820152600f60248201526e496e76616c6964206164647265737360881b6044820152606401610c9b565b61019580546001600160a01b0319166001600160a01b0392909216919091179055565b6000611a206122ca565b50949350505050565b611a316122bb565b6001600160a01b0316611a4d61012d546001600160a01b031690565b6001600160a01b031614611a735760405162461bcd60e51b8152600401610c9b906146eb565b60fb5460ff1615611a965760405162461bcd60e51b8152600401610c9b90614798565b611a9e612a80565b6101665461016354611abe916001600160a01b039182169116600061250b565b6101665461016254611ade916001600160a01b039182169116600061250b565b6101675461016354611afe916001600160a01b039182169116600061250b565b61016754610162546111af916001600160a01b039182169116600061250b565b6000611b286122ca565b509392505050565b6000611b3a6122ca565b509695505050505050565b611b4d6122bb565b6001600160a01b0316611b6961012d546001600160a01b031690565b6001600160a01b031614611b8f5760405162461bcd60e51b8152600401610c9b906146eb565b815160005b81811015610d26576000848281518110611bb057611bb0614767565b602002602001015190508060001415611bfd5760405162461bcd60e51b815260206004820152600f60248201526e125b9d985b1a590818da185a5b9251608a1b6044820152606401610c9b565b838281518110611c0f57611c0f614767565b6020908102919091018101516000928352610169909152604090912080546001600160a01b0319166001600160a01b0390921691909117905580611c528161477d565b915050611b94565b600082815260c960205260408120611c729083612ad9565b9392505050565b60009182526097602090815260408084206001600160a01b0393909316845291905290205460ff1690565b611cac6122bb565b6001600160a01b0316611cc861012d546001600160a01b031690565b6001600160a01b031614611cee5760405162461bcd60e51b8152600401610c9b906146eb565b61016654611d05906001600160a01b03168261237e565b61016680546001600160a01b0319166001600160a01b0392909216919091179055565b610d516122ca565b6000611d3e60fb5460ff1690565b15611d5b5760405162461bcd60e51b8152600401610c9b90614798565b6000611d656122bb565b6001600160a01b038116600090815261016060209081526040918290205491516bffffffffffffffffffffffff19606085901b169181019190915260348101829052605481018990526074810188905291925090611dde906094015b604051602081830303815290604052805190602001208686612ae5565b6101935460ff1615611e6357610193546040516343a463c760e01b81526001600160a01b038481166004830152602482018a905260448201899052610100909204909116906343a463c790606401600060405180830381600087803b158015611e4657600080fd5b505af1158015611e5a573d6000803e3d6000fd5b50505050611e68565b600092505b611e7381600161474f565b6001600160a01b039092166000908152610160602052604090209190915550949350505050565b600080611ea685610cc6565b90506001600160a01b0386163b15611f0257611efa86828787878080601f016020809104026020016040519081016040528093929190818152602001838380828437600092019190915250612b5992505050565b915050612011565b6000806000611f4687878080601f01602080910402602001604051908101604052809392919081815260200183838082843760009201829052509250612bf5915050565b6040517f19457468657265756d205369676e6564204d6573736167653a0a3332000000006020820152603c81018890529295509093509150600090605c0160408051601f198184030181528282528051602091820120600080855291840180845281905260ff88169284019290925260608301869052608083018590529092509060019060a0016020604051602081039080840390855afa158015611fef573d6000803e3d6000fd5b5050604051601f1901516001600160a01b038d81169116149750505050505050505b949350505050565b600081815260c960205260408120610c4b90612c13565b600061203e60fb5460ff1690565b1561205b5760405162461bcd60e51b8152600401610c9b90614798565b60006120656122bb565b6001600160a01b0381166000908152610160602090815260409182902054915192935090916120a291611dc191859185918d918d918d91016147f5565b6120ae82898989612c1d565b50600093506120c0905081600161474f565b6001600160a01b03909216600090815261016060205260409020919091555095945050505050565b6000828152609760205260409020600101546121038161234b565b610d518383612450565b6121156122bb565b6001600160a01b031661213161012d546001600160a01b031690565b6001600160a01b0316146121575760405162461bcd60e51b8152600401610c9b906146eb565b61216081612e8e565b50565b600061216f6001612662565b9050801561218b576000805460ff60a81b1916600160a81b1790555b612193612702565b6121ab60006111f961012d546001600160a01b031690565b6121b3612745565b6121bd6001612f09565b61016280546001600160a01b0319166001600160a01b03929092169190911790556121e86000612f09565b61016380546001600160a01b03199081166001600160a01b039384161790915561015f80548216888416179055610161805490911691861691909117905561222f83611ca4565b61223882610d56565b80156114c9576000805460ff60a81b19169055604051600181527f7f26b83ff96e1f2b6a682f133852f6798a09c465da95921460cefb38474024989060200160405180910390a15050505050565b60006001600160e01b03198216637965db0b60e01b1480610c4b57506301ffc9a760e01b6001600160e01b0319831614610c4b565b60006122c5613159565b905090565b610195546040516060916000916001600160a01b03909116906122f09083903690614865565b600060405180830381855af49150503d806000811461232b576040519150601f19603f3d011682016040523d82523d6000602084013e612330565b606091505b505090506040513d6000823e818015612347573d82f35b3d82fd5b612160816123576122bb565b61318d565b61236682826131f1565b600082815260c960205260409020610d519082613278565b806001600160a01b0316826001600160a01b0316141561239c575050565b6001600160a01b038216156123f5576123c3600080516020614ab383398151915283612450565b610163546123dc906001600160a01b031683600061250b565b610162546123f5906001600160a01b031683600061250b565b6001600160a01b03811615610d1a5761241c600080516020614ab38339815191528261273b565b61016254612436906001600160a01b03168260001961250b565b61016354610d1a906001600160a01b03168260001961250b565b61245a828261328d565b600082815260c960205260409020610d519082613312565b60fb5460ff166124bb5760405162461bcd60e51b815260206004820152601460248201527314185d5cd8589b194e881b9bdd081c185d5cd95960621b6044820152606401610c9b565b60fb805460ff191690557f5db9ee0a495bf2e6ff9c91a7834c1ba4fdd244a5e8aa4e537bd38aeae4b073aa6124ee6122bb565b6040516001600160a01b03909116815260200160405180910390a1565b8015806125945750604051636eb1769f60e11b81523060048201526001600160a01b03838116602483015284169063dd62ed3e9060440160206040518083038186803b15801561255a57600080fd5b505afa15801561256e573d6000803e3d6000fd5b505050506040513d601f19601f820116820180604052508101906125929190614720565b155b6125ff5760405162461bcd60e51b815260206004820152603660248201527f5361666545524332303a20617070726f76652066726f6d206e6f6e2d7a65726f60448201527520746f206e6f6e2d7a65726f20616c6c6f77616e636560501b6064820152608401610c9b565b6040516001600160a01b038316602482015260448101829052610d5190849063095ea7b360e01b906064015b60408051601f198184030181529190526020810180516001600160e01b03166001600160e01b031990931692909217909152613327565b60008054600160a81b900460ff16156126ab578160ff1660011480156126875750303b155b6126a35760405162461bcd60e51b8152600401610c9b90614875565b506000919050565b60005460ff808416600160a01b90920416106126d95760405162461bcd60e51b8152600401610c9b90614875565b506000805460ff909216600160a01b0260ff60a01b19909216919091179055600190565b919050565b600054600160a81b900460ff1661272b5760405162461bcd60e51b8152600401610c9b906148c3565b6111af6127366122bb565b612a2d565b610d1a828261235c565b600054600160a81b900460ff1661276e5760405162461bcd60e51b8152600401610c9b906148c3565b6127c860007f47e79534a245952e8b16893a336b85a3d9ea9fa8c573f3d803afb92a794692184660408051602081019390935282015230606082015260800160405160208183030381529060405280519060200120905090565b600155565b600046634e45415381141561284d5760018360018111156127f0576127f0613e24565b1415612812575073cceca5c4a3355f8e7a0b7d2a7251eec012be7c5892915050565b600083600181111561282657612826613e24565b1415612848575073f9c249974c1acf96a59e5757cc9ba7035ce489b192915050565b612a24565b61a8698114156128c357600183600181111561286b5761286b613e24565b141561288d5750737acdaba7ee51c1c3f7c6d605cc26b1c9aab0495a92915050565b60008360018111156128a1576128a1613e24565b141561284857507378ae2880bd1672b49a33cf796cf53fe6db0ab01d92915050565b60618114156129385760018360018111156128e0576128e0613e24565b1415612902575073da14d11d2c7d79f167b6057de3d9cc25c2c488d592915050565b600083600181111561291657612916613e24565b14156128485750731f326a8ca5399418a76ea0efa0403cbb00790c6792915050565b60048114156129ad57600183600181111561295557612955613e24565b1415612977575073df5324ebe6f6b852ff5cbf73627ee137e907527692915050565b600083600181111561298b5761298b613e24565b141561284857507321e48034753e490ff04f2f75f7caedf081b320d592915050565b62013881811415612a245760018360018111156129cc576129cc613e24565b14156129ee5750736600bec324ccdd12c70297311aefb37fafb1d68992915050565b6000836001811115612a0257612a02613e24565b1415612a245750737e4c234b1d634db790592d1550816b19e862f74492915050565b50600092915050565b61012d80546001600160a01b038381166001600160a01b0319831681179093556040519116919082907f8be0079c531659141344cd1fd0a4f28419497f9722a3daafe3b4186f6b6457e090600090a35050565b60fb5460ff1615612aa35760405162461bcd60e51b8152600401610c9b90614798565b60fb805460ff191660011790557f62e78cea01bee320cd4e420270b5ea74000d11b0c9f74754ebdbfc544b05a2586124ee6122bb565b6000611c7283836133f9565b61015f546040805160208101869052612b19926001600160a01b031691016040516020818303038152906040528484611e9a565b610d515760405162461bcd60e51b8152602060048201526011602482015270496e76616c6964207369676e617475726560781b6044820152606401610c9b565b600080856001600160a01b031663e75235b86040518163ffffffff1660e01b815260040160206040518083038186803b158015612b9557600080fd5b505afa158015612ba9573d6000803e3d6000fd5b505050506040513d601f19601f82011682018060405250810190612bcd9190614720565b905080612bde576000915050612011565b612beb8686868685613423565b9695505050505050565b60419081029190910160208101516040820151919092015160ff1692565b6000610c4b825490565b8251606090600090806001600160401b03811115612c3d57612c3d613ca5565b604051908082528060200260200182016040528015612c66578160200160208202803683370190505b50925046600080805b84811015612e2c5760008a8281518110612c8b57612c8b614767565b6020026020010151905060008a8381518110612ca957612ca9614767565b6020026020010151905085811415612ccc57612cc5828661474f565b9450612e17565b828814612dfc57818c8981518110612ce657612ce6614767565b602002602001018181525050808b8981518110612d0557612d05614767565b602002602001018181525050898381518110612d2357612d23614767565b60200260200101518a8981518110612d3d57612d3d614767565b60200260200101906001811115612d5657612d56613e24565b90816001811115612d6957612d69613e24565b905250600081815261016960205260409020546001600160a01b031680612dc75760405162461bcd60e51b8152602060048201526012602482015271125b9d985b1a59081d5cd95c881859d95b9d60721b6044820152606401610c9b565b808a8a81518110612dda57612dda614767565b60200260200101906001600160a01b031690816001600160a01b031681525050505b87612e068161477d565b9850612e149050828561474f565b93505b50508080612e249061477d565b915050612c6f565b50612e518a30612e3c848661474f565b610163546001600160a01b031692919061367f565b6001600160a01b038a166000908152610165602052604081208054849290612e7a90849061474f565b925050819055505050505094509492505050565b612e966122bb565b6001600160a01b0316612eb261012d546001600160a01b031690565b6001600160a01b031614612ed85760405162461bcd60e51b8152600401610c9b906146eb565b612ef56000612ef061012d546001600160a01b031690565b612450565b612efe816136b7565b61216060008261273b565b600046634e454152811415612f84576001836001811115612f2c57612f2c613e24565b1415612f4e575073b12bfca5a55806aaf64e99521918a4bf0fc4080292915050565b6000836001811115612f6257612f62613e24565b14156128485750734988a896b1227218e4a686fde5eabdcabd91571f92915050565b61a86a811415612ffa576001836001811115612fa257612fa2613e24565b1415612fc4575073a7d7079b0fead91f3e65f86e8915cb59c1a4c66492915050565b6000836001811115612fd857612fd8613e24565b1415612848575073c7198437980c041c805a1edcba50c1ce5db9511892915050565b603881141561306f57600183600181111561301757613017613e24565b14156130395750738ac76a51cc950d9822d68b83fe1ad97b32cd580d92915050565b600083600181111561304d5761304d613e24565b141561284857507355d398326f99059ff775485246999027b319795592915050565b60018114156130e457600183600181111561308c5761308c613e24565b14156130ae575073a0b86991c6218b36c1d19d4a2e9eb0ce3606eb4892915050565b60008360018111156130c2576130c2613e24565b1415612848575073dac17f958d2ee523a2206206994597c13d831ec792915050565b6089811415612a2457600183600181111561310157613101613e24565b14156131235750732791bca1f2de4661ed88a30c99a7a9449aa8417492915050565b600083600181111561313757613137613e24565b1415612a24575073c2132d05d31c914a87c6611c10748aeb04b58e8f92915050565b60006018361080159061317657506000546001600160a01b031633145b15613188575060131936013560601c90565b503390565b6131978282611c79565b610d1a576131af816001600160a01b0316601461376f565b6131ba83602061376f565b6040516020016131cb92919061490e565b60408051601f198184030181529082905262461bcd60e51b8252610c9b91600401613fb7565b6131fb8282611c79565b610d1a5760008281526097602090815260408083206001600160a01b03851684529091529020805460ff191660011790556132346122bb565b6001600160a01b0316816001600160a01b0316837f2f8788117e7eff1d82e926ec794901d17c78024a50270940304540a733656f0d60405160405180910390a45050565b6000611c72836001600160a01b03841661390a565b6132978282611c79565b15610d1a5760008281526097602090815260408083206001600160a01b03851684529091529020805460ff191690556132ce6122bb565b6001600160a01b0316816001600160a01b0316837ff6391f5c32d9c69d2a47ea670b442974b53935d1edc7fd64eb21e047a839171b60405160405180910390a45050565b6000611c72836001600160a01b038416613959565b600061337c826040518060400160405280602081526020017f5361666545524332303a206c6f772d6c6576656c2063616c6c206661696c6564815250856001600160a01b0316613a4c9092919063ffffffff16565b805190915015610d51578080602001905181019061339a9190614983565b610d515760405162461bcd60e51b815260206004820152602a60248201527f5361666545524332303a204552433230206f7065726174696f6e20646964206e6044820152691bdd081cdd58d8d9595960b21b6064820152608401610c9b565b600082600001828154811061341057613410614767565b9060005260206000200154905092915050565b60006134308260416149a5565b8351101561344057506000613676565b600080876001600160a01b031663a0e67e2b6040518163ffffffff1660e01b815260040160006040518083038186803b15801561347c57600080fd5b505afa158015613490573d6000803e3d6000fd5b505050506040513d6000823e601f3d908101601f191682016040526134b891908101906149c4565b905060008080805b8781101561366b5760418181028a0160208101516040820151919092015160ff16955090935091508361359b5791945084916134fd8860416149a5565b8210156135135760009650505050505050613676565b885161352083602061474f565b11156135355760009650505050505050613676565b6020828a018101518a519091829061354e90869061474f565b613558919061474f565b111561356e576000975050505050505050613676565b89830160200161357f888d83613a5b565b61359457600098505050505050505050613676565b505061363c565b6040517f19457468657265756d205369676e6564204d6573736167653a0a3332000000006020820152603c81018c9052600190605c0160408051601f198184030181528282528051602091820120600084529083018083525260ff871690820152606081018590526080810184905260a0016020604051602081039080840390855afa15801561362f573d6000803e3d6000fd5b5050506020604051035195505b6136468587613a75565b6136595760009650505050505050613676565b806136638161477d565b9150506134c0565b600196505050505050505b95945050505050565b6040516001600160a01b0380851660248301528316604482015260648101829052610d269085906323b872dd60e01b9060840161262b565b6136bf6122bb565b6001600160a01b03166136db61012d546001600160a01b031690565b6001600160a01b0316146137015760405162461bcd60e51b8152600401610c9b906146eb565b6001600160a01b0381166137665760405162461bcd60e51b815260206004820152602660248201527f4f776e61626c653a206e6577206f776e657220697320746865207a65726f206160448201526564647265737360d01b6064820152608401610c9b565b61216081612a2d565b6060600061377e8360026149a5565b61378990600261474f565b6001600160401b038111156137a0576137a0613ca5565b6040519080825280601f01601f1916602001820160405280156137ca576020820181803683370190505b509050600360fc1b816000815181106137e5576137e5614767565b60200101906001600160f81b031916908160001a905350600f60fb1b8160018151811061381457613814614767565b60200101906001600160f81b031916908160001a90535060006138388460026149a5565b61384390600161474f565b90505b60018111156138bb576f181899199a1a9b1b9c1cb0b131b232b360811b85600f166010811061387757613877614767565b1a60f81b82828151811061388d5761388d614767565b60200101906001600160f81b031916908160001a90535060049490941c936138b481614a52565b9050613846565b508315611c725760405162461bcd60e51b815260206004820181905260248201527f537472696e67733a20686578206c656e67746820696e73756666696369656e746044820152606401610c9b565b600081815260018301602052604081205461395157508154600181810184556000848152602080822090930184905584548482528286019093526040902091909155610c4b565b506000610c4b565b60008181526001830160205260408120548015613a4257600061397d600183614a69565b855490915060009061399190600190614a69565b90508181146139f65760008660000182815481106139b1576139b1614767565b90600052602060002001549050808760000184815481106139d4576139d4614767565b6000918252602080832090910192909255918252600188019052604090208390555b8554869080613a0757613a07614a80565b600190038181906000526020600020016000905590558560010160008681526020019081526020016000206000905560019350505050610c4b565b6000915050610c4b565b60606120118484600085613adf565b600080613a6784610cc6565b905061367685828686612b59565b8151600090815b81811015613ad457836001600160a01b0316858281518110613aa057613aa0614767565b60200260200101516001600160a01b03161415613ac257600192505050610c4b565b80613acc8161477d565b915050613a7c565b506000949350505050565b606082471015613b405760405162461bcd60e51b815260206004820152602660248201527f416464726573733a20696e73756666696369656e742062616c616e636520666f6044820152651c8818d85b1b60d21b6064820152608401610c9b565b6001600160a01b0385163b613b975760405162461bcd60e51b815260206004820152601d60248201527f416464726573733a2063616c6c20746f206e6f6e2d636f6e74726163740000006044820152606401610c9b565b600080866001600160a01b03168587604051613bb39190614a96565b60006040518083038185875af1925050503d8060008114613bf0576040519150601f19603f3d011682016040523d82523d6000602084013e613bf5565b606091505b5091509150613c05828286613c10565b979650505050505050565b60608315613c1f575081611c72565b825115613c2f5782518084602001fd5b8160405162461bcd60e51b8152600401610c9b9190613fb7565b600060208284031215613c5b57600080fd5b81356001600160e01b031981168114611c7257600080fd5b6001600160a01b038116811461216057600080fd5b600060208284031215613c9a57600080fd5b8135611c7281613c73565b634e487b7160e01b600052604160045260246000fd5b604051601f8201601f191681016001600160401b0381118282101715613ce357613ce3613ca5565b604052919050565b600082601f830112613cfc57600080fd5b81356001600160401b03811115613d1557613d15613ca5565b613d28601f8201601f1916602001613cbb565b818152846020838601011115613d3d57600080fd5b816020850160208301376000918101602001919091529392505050565b600060208284031215613d6c57600080fd5b81356001600160401b03811115613d8257600080fd5b61201184828501613ceb565b600060208284031215613da057600080fd5b5035919050565b8035600281106126fd57600080fd5b600080600060608486031215613dcb57600080fd5b8335613dd681613c73565b925060208401359150613deb60408501613da7565b90509250925092565b60008060408385031215613e0757600080fd5b823591506020830135613e1981613c73565b809150509250929050565b634e487b7160e01b600052602160045260246000fd5b60028110613e5857634e487b7160e01b600052602160045260246000fd5b9052565b60208101610c4b8284613e3a565b600080600080600080600060e0888a031215613e8557600080fd5b8735613e9081613c73565b96506020880135613ea081613c73565b95506040880135613eb081613c73565b94506060880135613ec081613c73565b93506080880135613ed081613c73565b925060a0880135613ee081613c73565b915060c0880135613ef081613c73565b8091505092959891949750929550565b600080600060608486031215613f1557600080fd5b8335613f2081613c73565b95602085013595506040909401359392505050565b600080600080600060a08688031215613f4d57600080fd5b853594506020860135613f5f81613c73565b935060408601359250606086013591506080860135613f7d81613c73565b809150509295509295909350565b60005b83811015613fa6578181015183820152602001613f8e565b83811115610d265750506000910152565b6020815260008251806020840152613fd6816040850160208701613f8b565b601f01601f19169190910160400192915050565b60006001600160401b0382111561400357614003613ca5565b5060051b60200190565b600082601f83011261401e57600080fd5b8135602061403361402e83613fea565b613cbb565b82815260059290921b8401810191818101908684111561405257600080fd5b8286015b84811015611b3a57803561406981613c73565b8352918301918301614056565b600082601f83011261408757600080fd5b8135602061409761402e83613fea565b82815260059290921b840181019181810190868411156140b657600080fd5b8286015b84811015611b3a57803583529183019183016140ba565b600080600080608085870312156140e757600080fd5b84356140f281613c73565b935060208501356001600160401b038082111561410e57600080fd5b61411a8883890161400d565b9450604087013591508082111561413057600080fd5b5061413d87828801614076565b949793965093946060013593505050565b600082601f83011261415f57600080fd5b8135602061416f61402e83613fea565b82815260059290921b8401810191818101908684111561418e57600080fd5b8286015b84811015611b3a576141a381613da7565b8352918301918301614192565b600080604083850312156141c357600080fd5b82356001600160401b03808211156141da57600080fd5b6141e686838701614076565b935060208501359150808211156141fc57600080fd5b506142098582860161414e565b9150509250929050565b60008083601f84011261422557600080fd5b5081356001600160401b0381111561423c57600080fd5b60208301915083602082850101111561425457600080fd5b9250929050565b60008060008060006080868803121561427357600080fd5b85356001600160401b038082111561428a57600080fd5b61429689838a01614076565b9650602088013595506040880135945060608801359150808211156142ba57600080fd5b506142c788828901614213565b969995985093965092949392505050565b6000806000604084860312156142ed57600080fd5b8335925060208401356001600160401b0381111561430a57600080fd5b61431686828701614213565b9497909650939450505050565b6000806000806060858703121561433957600080fd5b843593506020850135925060408501356001600160401b0381111561435d57600080fd5b61436987828801614213565b95989497509550505050565b60008060008060008060a0878903121561438e57600080fd5b86356001600160401b03808211156143a557600080fd5b6143b18a838b01614076565b975060208901359150808211156143c757600080fd5b6143d38a838b0161400d565b965060408901359150808211156143e957600080fd5b6143f58a838b01614076565b955060608901359450608089013591508082111561441257600080fd5b5061441f89828a01614213565b979a9699509497509295939492505050565b6000806040838503121561444457600080fd5b82356001600160401b038082111561445b57600080fd5b61446786838701614076565b9350602085013591508082111561447d57600080fd5b506142098582860161400d565b6000806040838503121561449d57600080fd5b50508035926020909101359150565b600080600080606085870312156144c257600080fd5b84356001600160401b03808211156144d957600080fd5b6144e588838901614076565b955060208701359150808211156144fb57600080fd5b6145078883890161414e565b9450604087013591508082111561451d57600080fd5b5061436987828801614213565b6000806040838503121561453d57600080fd5b823561454881613c73565b946020939093013593505050565b6000806000806060858703121561456c57600080fd5b843561457781613c73565b935060208501356001600160401b038082111561459357600080fd5b61450788838901613ceb565b6000806000806000608086880312156145b757600080fd5b85356001600160401b03808211156145ce57600080fd5b6145da89838a01614076565b965060208801359150808211156145f057600080fd5b6145fc89838a01614076565b9550604088013591508082111561461257600080fd5b61461e89838a0161414e565b945060608801359150808211156142ba57600080fd5b60008060006040848603121561464957600080fd5b83356001600160401b038082111561466057600080fd5b61466c87838801614076565b9450602086013591508082111561468257600080fd5b5061431686828701614213565b600080600080608085870312156146a557600080fd5b84356146b081613c73565b935060208501356146c081613c73565b925060408501356146d081613c73565b915060608501356146e081613c73565b939692955090935050565b6020808252818101527f4f776e61626c653a2063616c6c6572206973206e6f7420746865206f776e6572604082015260600190565b60006020828403121561473257600080fd5b5051919050565b634e487b7160e01b600052601160045260246000fd5b6000821982111561476257614762614739565b500190565b634e487b7160e01b600052603260045260246000fd5b600060001982141561479157614791614739565b5060010190565b60208082526010908201526f14185d5cd8589b194e881c185d5cd95960821b604082015260600190565b60008151602080840160005b838110156147ea578151875295820195908201906001016147ce565b509495945050505050565b6bffffffffffffffffffffffff198660601b168152846014820152600061482861482260348401876147c2565b856147c2565b8351602080860160005b8381101561485557614845858351613e3a565b9382019390820190600101614832565b50929a9950505050505050505050565b8183823760009101908152919050565b6020808252602e908201527f496e697469616c697a61626c653a20636f6e747261637420697320616c72656160408201526d191e481a5b9a5d1a585b1a5e995960921b606082015260800190565b6020808252602b908201527f496e697469616c697a61626c653a20636f6e7472616374206973206e6f74206960408201526a6e697469616c697a696e6760a81b606082015260800190565b7f416363657373436f6e74726f6c3a206163636f756e7420000000000000000000815260008351614946816017850160208801613f8b565b7001034b99036b4b9b9b4b733903937b6329607d1b6017918401918201528351614977816028840160208801613f8b565b01602801949350505050565b60006020828403121561499557600080fd5b81518015158114611c7257600080fd5b60008160001904831182151516156149bf576149bf614739565b500290565b600060208083850312156149d757600080fd5b82516001600160401b038111156149ed57600080fd5b8301601f810185136149fe57600080fd5b8051614a0c61402e82613fea565b81815260059190911b82018301908381019087831115614a2b57600080fd5b928401925b82841015613c05578351614a4381613c73565b82529284019290840190614a30565b600081614a6157614a61614739565b506000190190565b600082821015614a7b57614a7b614739565b500390565b634e487b7160e01b600052603160045260246000fd5b60008251614aa8818460208701613f8b565b919091019291505056fedbeb657137b1822b3d5418bea6fd641226d964b4c3871ef23546db2622258871a2646970667358221220be504b7766210ab084b8789de773301c4557a65a9a197757dce38eecb1d2f5e864736f6c63430008090033",
  "devdoc": {
    "kind": "dev",
    "methods": {
      "burn(uint256,uint256,bytes)": {
        "details": "It calls burnByAdmin of STIMinter.",
        "params": {
          "_pool": "total pool in USD",
          "_share": "amount of shares"
        }
      },
      "claim(uint256[],bytes)": {
        "details": "It calls claimByAdmin of STIVaults."
      },
      "deposit(uint256[],address[],uint256[],uint256,bytes)": {
        "details": "It calls depositByAdmin of STIVaults."
      },
      "exitWithdrawal(uint256,bytes)": {
        "details": "It calls exitWithdrawalByAdmin of STIMinter.",
        "params": {
          "_gatheredAmount": "is the amount of token that is gathered."
        }
      },
      "gather(uint256[],uint8[],bytes)": {
        "details": "It gathers withdrawn tokens of the user from user agents."
      },
      "getMessageHashForSafe(bytes)": {
        "details": "Returns hash of a message that can be signed by owners.",
        "params": {
          "message": "Message that should be hashed"
        },
        "returns": {
          "_0": "Message hash."
        }
      },
      "getRoleAdmin(bytes32)": {
        "details": "Returns the admin role that controls `role`. See {grantRole} and {revokeRole}. To change a role's admin, use {_setRoleAdmin}."
      },
      "getRoleMember(bytes32,uint256)": {
        "details": "Returns one of the accounts that have `role`. `index` must be a value between 0 and {getRoleMemberCount}, non-inclusive. Role bearers are not sorted in any particular way, and their ordering may change at any point. WARNING: When using {getRoleMember} and {getRoleMemberCount}, make sure you perform all queries on the same block. See the following https://forum.openzeppelin.com/t/iterating-over-elements-on-enumerableset-in-openzeppelin-contracts/2296[forum post] for more information."
      },
      "getRoleMemberCount(bytes32)": {
        "details": "Returns the number of accounts that have `role`. Can be used together with {getRoleMember} to enumerate all bearers of a role."
      },
      "grantRole(bytes32,address)": {
        "details": "Grants `role` to `account`. If `account` had not been already granted `role`, emits a {RoleGranted} event. Requirements: - the caller must have ``role``'s admin role."
      },
      "hasRole(bytes32,address)": {
        "details": "Returns `true` if `account` has been granted `role`."
      },
      "initDeposit(uint256,uint256,bytes)": {
        "details": "It calls initDepositByAdmin of STIMinter.",
        "params": {
          "_USDT6Amt": "USDT with 6 decimals to be deposited",
          "_pool": "total pool in USD"
        }
      },
      "mint(uint256,bytes)": {
        "details": "It calls mintByAdmin of STIMinter."
      },
      "owner()": {
        "details": "Returns the address of the current owner."
      },
      "paused()": {
        "details": "Returns true if the contract is paused, and false otherwise."
      },
      "renounceOwnership()": {
        "details": "Leaves the contract without owner. It will not be possible to call `onlyOwner` functions anymore. Can only be called by the current owner. NOTE: Renouncing ownership will leave the contract without an owner, thereby removing any functionality that is only available to the owner."
      },
      "renounceRole(bytes32,address)": {
        "details": "Revokes `role` from the calling account. Roles are often managed via {grantRole} and {revokeRole}: this function's purpose is to provide a mechanism for accounts to lose their privileges if they are compromised (such as when a trusted device is misplaced). If the calling account had been revoked `role`, emits a {RoleRevoked} event. Requirements: - the caller must be `account`."
      },
      "revokeRole(bytes32,address)": {
        "details": "Revokes `role` from `account`. If `account` had been granted `role`, emits a {RoleRevoked} event. Requirements: - the caller must have ``role``'s admin role."
      },
      "setSubImpl(address)": {
        "details": "Delegate to sub contract"
      },
      "supportsInterface(bytes4)": {
        "details": "See {IERC165-supportsInterface}."
      },
      "takeOut(uint256,bytes)": {
        "details": "It takes out tokens from this agent.",
        "params": {
          "_gatheredAmount": "is the amount of token that is gathered."
        }
      },
      "transfer(uint256[],uint256[],uint8[],bytes)": {
        "details": "It transfers tokens to user agents"
      },
      "withdraw(uint256[],uint256,uint256,bytes)": {
        "details": "It calls withdrawPercByAdmin of STIVaults."
      }
    },
    "version": 1
  },
  "userdoc": {
    "kind": "user",
    "methods": {
      "exitWithdrawal(uint256,bytes)": {
        "notice": "_gatheredAmount doesn't include the balance which is withdrawan in this agent."
      },
      "isTrustedForwarder(address)": {
        "notice": "return if the forwarder is trusted to forward relayed transactions to us. the forwarder is required to verify the sender's signature, and verify the call is not a replay."
      },
      "onRefunded(uint256,address,uint256,uint256,address)": {
        "notice": "Never revert in this function. If not, cbridgeAdapter.executeMessageWithTransferRefund will be failed."
      },
      "takeOut(uint256,bytes)": {
        "notice": "_gatheredAmount doesn't include the balance which is withdrawan in this agent."
      }
    },
    "version": 1
  },
  "storageLayout": {
    "storage": [
      {
        "astId": 65960,
        "contract": "contracts/xchain/agent/STIUserAgentTest.sol:STIUserAgentTest",
        "label": "trustedForwarder",
        "offset": 0,
        "slot": "0",
        "type": "t_address"
      },
      {
        "astId": 713,
        "contract": "contracts/xchain/agent/STIUserAgentTest.sol:STIUserAgentTest",
        "label": "_initialized",
        "offset": 20,
        "slot": "0",
        "type": "t_uint8"
      },
      {
        "astId": 716,
        "contract": "contracts/xchain/agent/STIUserAgentTest.sol:STIUserAgentTest",
        "label": "_initializing",
        "offset": 21,
        "slot": "0",
        "type": "t_bool"
      },
      {
        "astId": 66475,
        "contract": "contracts/xchain/agent/STIUserAgentTest.sol:STIUserAgentTest",
        "label": "separator",
        "offset": 0,
        "slot": "1",
        "type": "t_bytes32"
      },
      {
        "astId": 66892,
        "contract": "contracts/xchain/agent/STIUserAgentTest.sol:STIUserAgentTest",
        "label": "__gap",
        "offset": 0,
        "slot": "2",
        "type": "t_array(t_uint256)49_storage"
      },
      {
        "astId": 3292,
        "contract": "contracts/xchain/agent/STIUserAgentTest.sol:STIUserAgentTest",
        "label": "__gap",
        "offset": 0,
        "slot": "51",
        "type": "t_array(t_uint256)50_storage"
      },
      {
        "astId": 3946,
        "contract": "contracts/xchain/agent/STIUserAgentTest.sol:STIUserAgentTest",
        "label": "__gap",
        "offset": 0,
        "slot": "101",
        "type": "t_array(t_uint256)50_storage"
      },
      {
        "astId": 184,
        "contract": "contracts/xchain/agent/STIUserAgentTest.sol:STIUserAgentTest",
        "label": "_roles",
        "offset": 0,
        "slot": "151",
        "type": "t_mapping(t_bytes32,t_struct(RoleData)179_storage)"
      },
      {
        "astId": 483,
        "contract": "contracts/xchain/agent/STIUserAgentTest.sol:STIUserAgentTest",
        "label": "__gap",
        "offset": 0,
        "slot": "152",
        "type": "t_array(t_uint256)49_storage"
      },
      {
        "astId": 33,
        "contract": "contracts/xchain/agent/STIUserAgentTest.sol:STIUserAgentTest",
        "label": "_roleMembers",
        "offset": 0,
        "slot": "201",
        "type": "t_mapping(t_bytes32,t_struct(AddressSet)4359_storage)"
      },
      {
        "astId": 143,
        "contract": "contracts/xchain/agent/STIUserAgentTest.sol:STIUserAgentTest",
        "label": "__gap",
        "offset": 0,
        "slot": "202",
        "type": "t_array(t_uint256)49_storage"
      },
      {
        "astId": 869,
        "contract": "contracts/xchain/agent/STIUserAgentTest.sol:STIUserAgentTest",
        "label": "_paused",
        "offset": 0,
        "slot": "251",
        "type": "t_bool"
      },
      {
        "astId": 958,
        "contract": "contracts/xchain/agent/STIUserAgentTest.sol:STIUserAgentTest",
        "label": "__gap",
        "offset": 0,
        "slot": "252",
        "type": "t_array(t_uint256)49_storage"
      },
      {
        "astId": 593,
        "contract": "contracts/xchain/agent/STIUserAgentTest.sol:STIUserAgentTest",
        "label": "_owner",
        "offset": 0,
        "slot": "301",
        "type": "t_address"
      },
      {
        "astId": 705,
        "contract": "contracts/xchain/agent/STIUserAgentTest.sol:STIUserAgentTest",
        "label": "__gap",
        "offset": 0,
        "slot": "302",
        "type": "t_array(t_uint256)49_storage"
      },
      {
        "astId": 59413,
        "contract": "contracts/xchain/agent/STIUserAgentTest.sol:STIUserAgentTest",
        "label": "admin",
        "offset": 0,
        "slot": "351",
        "type": "t_address"
      },
      {
        "astId": 59417,
        "contract": "contracts/xchain/agent/STIUserAgentTest.sol:STIUserAgentTest",
        "label": "nonces",
        "offset": 0,
        "slot": "352",
        "type": "t_mapping(t_address,t_uint256)"
      },
      {
        "astId": 59420,
        "contract": "contracts/xchain/agent/STIUserAgentTest.sol:STIUserAgentTest",
        "label": "swap",
        "offset": 0,
        "slot": "353",
        "type": "t_contract(ISwap)55907"
      },
      {
        "astId": 59423,
        "contract": "contracts/xchain/agent/STIUserAgentTest.sol:STIUserAgentTest",
        "label": "USDC",
        "offset": 0,
        "slot": "354",
        "type": "t_contract(IERC20Upgradeable)1707"
      },
      {
        "astId": 59426,
        "contract": "contracts/xchain/agent/STIUserAgentTest.sol:STIUserAgentTest",
        "label": "USDT",
        "offset": 0,
        "slot": "355",
        "type": "t_contract(IERC20Upgradeable)1707"
      },
      {
        "astId": 59430,
        "contract": "contracts/xchain/agent/STIUserAgentTest.sol:STIUserAgentTest",
        "label": "usdcBalances",
        "offset": 0,
        "slot": "356",
        "type": "t_mapping(t_address,t_uint256)"
      },
      {
        "astId": 59434,
        "contract": "contracts/xchain/agent/STIUserAgentTest.sol:STIUserAgentTest",
        "label": "usdtBalances",
        "offset": 0,
        "slot": "357",
        "type": "t_mapping(t_address,t_uint256)"
      },
      {
        "astId": 59437,
        "contract": "contracts/xchain/agent/STIUserAgentTest.sol:STIUserAgentTest",
        "label": "multichainAdapter",
        "offset": 0,
        "slot": "358",
        "type": "t_contract(IXChainAdapter)56214"
      },
      {
        "astId": 59440,
        "contract": "contracts/xchain/agent/STIUserAgentTest.sol:STIUserAgentTest",
        "label": "cbridgeAdapter",
        "offset": 0,
        "slot": "359",
        "type": "t_contract(IXChainAdapter)56214"
      },
      {
        "astId": 59444,
        "contract": "contracts/xchain/agent/STIUserAgentTest.sol:STIUserAgentTest",
        "label": "cbridgeSenders",
        "offset": 0,
        "slot": "360",
        "type": "t_mapping(t_uint256,t_address)"
      },
      {
        "astId": 59448,
        "contract": "contracts/xchain/agent/STIUserAgentTest.sol:STIUserAgentTest",
        "label": "userAgents",
        "offset": 0,
        "slot": "361",
        "type": "t_mapping(t_uint256,t_address)"
      },
      {
        "astId": 59453,
        "contract": "contracts/xchain/agent/STIUserAgentTest.sol:STIUserAgentTest",
        "label": "callAdapterTypes",
        "offset": 0,
        "slot": "362",
        "type": "t_mapping(t_uint256,t_enum(AdapterType)59406)"
      },
      {
        "astId": 60098,
        "contract": "contracts/xchain/agent/STIUserAgentTest.sol:STIUserAgentTest",
        "label": "__gap",
        "offset": 0,
        "slot": "363",
        "type": "t_array(t_uint256)39_storage"
      },
      {
        "astId": 61047,
        "contract": "contracts/xchain/agent/STIUserAgentTest.sol:STIUserAgentTest",
        "label": "chainIdOnLP",
        "offset": 0,
        "slot": "402",
        "type": "t_uint256"
      },
      {
        "astId": 61049,
        "contract": "contracts/xchain/agent/STIUserAgentTest.sol:STIUserAgentTest",
        "label": "isLPChain",
        "offset": 0,
        "slot": "403",
        "type": "t_bool"
      },
      {
        "astId": 61052,
        "contract": "contracts/xchain/agent/STIUserAgentTest.sol:STIUserAgentTest",
        "label": "stiMinter",
        "offset": 1,
        "slot": "403",
        "type": "t_contract(ISTIMinter)44045"
      },
      {
        "astId": 61055,
        "contract": "contracts/xchain/agent/STIUserAgentTest.sol:STIUserAgentTest",
        "label": "stiVault",
        "offset": 0,
        "slot": "404",
        "type": "t_contract(ISTIVault)44102"
      },
      {
        "astId": 61057,
        "contract": "contracts/xchain/agent/STIUserAgentTest.sol:STIUserAgentTest",
        "label": "subImpl",
        "offset": 0,
        "slot": "405",
        "type": "t_address"
      }
    ],
    "types": {
      "t_address": {
        "encoding": "inplace",
        "label": "address",
        "numberOfBytes": "20"
      },
      "t_array(t_bytes32)dyn_storage": {
        "base": "t_bytes32",
        "encoding": "dynamic_array",
        "label": "bytes32[]",
        "numberOfBytes": "32"
      },
      "t_array(t_uint256)39_storage": {
        "base": "t_uint256",
        "encoding": "inplace",
        "label": "uint256[39]",
        "numberOfBytes": "1248"
      },
      "t_array(t_uint256)49_storage": {
        "base": "t_uint256",
        "encoding": "inplace",
        "label": "uint256[49]",
        "numberOfBytes": "1568"
      },
      "t_array(t_uint256)50_storage": {
        "base": "t_uint256",
        "encoding": "inplace",
        "label": "uint256[50]",
        "numberOfBytes": "1600"
      },
      "t_bool": {
        "encoding": "inplace",
        "label": "bool",
        "numberOfBytes": "1"
      },
      "t_bytes32": {
        "encoding": "inplace",
        "label": "bytes32",
        "numberOfBytes": "32"
      },
      "t_contract(IERC20Upgradeable)1707": {
        "encoding": "inplace",
        "label": "contract IERC20Upgradeable",
        "numberOfBytes": "20"
      },
      "t_contract(ISTIMinter)44045": {
        "encoding": "inplace",
        "label": "contract ISTIMinter",
        "numberOfBytes": "20"
      },
      "t_contract(ISTIVault)44102": {
        "encoding": "inplace",
        "label": "contract ISTIVault",
        "numberOfBytes": "20"
      },
      "t_contract(ISwap)55907": {
        "encoding": "inplace",
        "label": "contract ISwap",
        "numberOfBytes": "20"
      },
      "t_contract(IXChainAdapter)56214": {
        "encoding": "inplace",
        "label": "contract IXChainAdapter",
        "numberOfBytes": "20"
      },
      "t_enum(AdapterType)59406": {
        "encoding": "inplace",
        "label": "enum BasicUserAgentBase.AdapterType",
        "numberOfBytes": "1"
      },
      "t_mapping(t_address,t_bool)": {
        "encoding": "mapping",
        "key": "t_address",
        "label": "mapping(address => bool)",
        "numberOfBytes": "32",
        "value": "t_bool"
      },
      "t_mapping(t_address,t_uint256)": {
        "encoding": "mapping",
        "key": "t_address",
        "label": "mapping(address => uint256)",
        "numberOfBytes": "32",
        "value": "t_uint256"
      },
      "t_mapping(t_bytes32,t_struct(AddressSet)4359_storage)": {
        "encoding": "mapping",
        "key": "t_bytes32",
        "label": "mapping(bytes32 => struct EnumerableSetUpgradeable.AddressSet)",
        "numberOfBytes": "32",
        "value": "t_struct(AddressSet)4359_storage"
      },
      "t_mapping(t_bytes32,t_struct(RoleData)179_storage)": {
        "encoding": "mapping",
        "key": "t_bytes32",
        "label": "mapping(bytes32 => struct AccessControlUpgradeable.RoleData)",
        "numberOfBytes": "32",
        "value": "t_struct(RoleData)179_storage"
      },
      "t_mapping(t_bytes32,t_uint256)": {
        "encoding": "mapping",
        "key": "t_bytes32",
        "label": "mapping(bytes32 => uint256)",
        "numberOfBytes": "32",
        "value": "t_uint256"
      },
      "t_mapping(t_uint256,t_address)": {
        "encoding": "mapping",
        "key": "t_uint256",
        "label": "mapping(uint256 => address)",
        "numberOfBytes": "32",
        "value": "t_address"
      },
      "t_mapping(t_uint256,t_enum(AdapterType)59406)": {
        "encoding": "mapping",
        "key": "t_uint256",
        "label": "mapping(uint256 => enum BasicUserAgentBase.AdapterType)",
        "numberOfBytes": "32",
        "value": "t_enum(AdapterType)59406"
      },
      "t_struct(AddressSet)4359_storage": {
        "encoding": "inplace",
        "label": "struct EnumerableSetUpgradeable.AddressSet",
        "members": [
          {
            "astId": 4358,
            "contract": "contracts/xchain/agent/STIUserAgentTest.sol:STIUserAgentTest",
            "label": "_inner",
            "offset": 0,
            "slot": "0",
            "type": "t_struct(Set)4058_storage"
          }
        ],
        "numberOfBytes": "64"
      },
      "t_struct(RoleData)179_storage": {
        "encoding": "inplace",
        "label": "struct AccessControlUpgradeable.RoleData",
        "members": [
          {
            "astId": 176,
            "contract": "contracts/xchain/agent/STIUserAgentTest.sol:STIUserAgentTest",
            "label": "members",
            "offset": 0,
            "slot": "0",
            "type": "t_mapping(t_address,t_bool)"
          },
          {
            "astId": 178,
            "contract": "contracts/xchain/agent/STIUserAgentTest.sol:STIUserAgentTest",
            "label": "adminRole",
            "offset": 0,
            "slot": "1",
            "type": "t_bytes32"
          }
        ],
        "numberOfBytes": "64"
      },
      "t_struct(Set)4058_storage": {
        "encoding": "inplace",
        "label": "struct EnumerableSetUpgradeable.Set",
        "members": [
          {
            "astId": 4053,
            "contract": "contracts/xchain/agent/STIUserAgentTest.sol:STIUserAgentTest",
            "label": "_values",
            "offset": 0,
            "slot": "0",
            "type": "t_array(t_bytes32)dyn_storage"
          },
          {
            "astId": 4057,
            "contract": "contracts/xchain/agent/STIUserAgentTest.sol:STIUserAgentTest",
            "label": "_indexes",
            "offset": 0,
            "slot": "1",
            "type": "t_mapping(t_bytes32,t_uint256)"
          }
        ],
        "numberOfBytes": "64"
      },
      "t_uint256": {
        "encoding": "inplace",
        "label": "uint256",
        "numberOfBytes": "32"
      },
      "t_uint8": {
        "encoding": "inplace",
        "label": "uint8",
        "numberOfBytes": "1"
      }
    }
  }
}