{
  "address": "0x0B8154A5aaEea5d852E9eFc01C2f75AC3aFB6300",
  "abi": [
    {
      "anonymous": false,
      "inputs": [
        {
          "indexed": false,
          "internalType": "uint8",
          "name": "version",
          "type": "uint8"
        }
      ],
      "name": "Initialized",
      "type": "event"
    },
    {
      "anonymous": false,
      "inputs": [
        {
          "indexed": true,
          "internalType": "address",
          "name": "previousOwner",
          "type": "address"
        },
        {
          "indexed": true,
          "internalType": "address",
          "name": "newOwner",
          "type": "address"
        }
      ],
      "name": "OwnershipTransferred",
      "type": "event"
    },
    {
      "anonymous": false,
      "inputs": [
        {
          "indexed": false,
          "internalType": "address",
          "name": "account",
          "type": "address"
        }
      ],
      "name": "Paused",
      "type": "event"
    },
    {
      "anonymous": false,
      "inputs": [
        {
          "indexed": true,
          "internalType": "bytes32",
          "name": "role",
          "type": "bytes32"
        },
        {
          "indexed": true,
          "internalType": "bytes32",
          "name": "previousAdminRole",
          "type": "bytes32"
        },
        {
          "indexed": true,
          "internalType": "bytes32",
          "name": "newAdminRole",
          "type": "bytes32"
        }
      ],
      "name": "RoleAdminChanged",
      "type": "event"
    },
    {
      "anonymous": false,
      "inputs": [
        {
          "indexed": true,
          "internalType": "bytes32",
          "name": "role",
          "type": "bytes32"
        },
        {
          "indexed": true,
          "internalType": "address",
          "name": "account",
          "type": "address"
        },
        {
          "indexed": true,
          "internalType": "address",
          "name": "sender",
          "type": "address"
        }
      ],
      "name": "RoleGranted",
      "type": "event"
    },
    {
      "anonymous": false,
      "inputs": [
        {
          "indexed": true,
          "internalType": "bytes32",
          "name": "role",
          "type": "bytes32"
        },
        {
          "indexed": true,
          "internalType": "address",
          "name": "account",
          "type": "address"
        },
        {
          "indexed": true,
          "internalType": "address",
          "name": "sender",
          "type": "address"
        }
      ],
      "name": "RoleRevoked",
      "type": "event"
    },
    {
      "anonymous": false,
      "inputs": [
        {
          "indexed": true,
          "internalType": "address",
          "name": "from",
          "type": "address"
        },
        {
          "indexed": false,
          "internalType": "address",
          "name": "token",
          "type": "address"
        },
        {
          "indexed": true,
          "internalType": "uint256",
          "name": "amount",
          "type": "uint256"
        },
        {
          "indexed": false,
          "internalType": "uint256",
          "name": "fromChainId",
          "type": "uint256"
        },
        {
          "indexed": true,
          "internalType": "uint256",
          "name": "toChainId",
          "type": "uint256"
        },
        {
          "indexed": false,
          "internalType": "address",
          "name": "to",
          "type": "address"
        },
        {
          "indexed": false,
          "internalType": "enum BasicUserAgentBase.AdapterType",
          "name": "adapterType",
          "type": "uint8"
        },
        {
          "indexed": false,
          "internalType": "uint256",
          "name": "nonce",
          "type": "uint256"
        }
      ],
      "name": "Transfer",
      "type": "event"
    },
    {
      "anonymous": false,
      "inputs": [
        {
          "indexed": false,
          "internalType": "address",
          "name": "account",
          "type": "address"
        }
      ],
      "name": "Unpaused",
      "type": "event"
    },
    {
      "inputs": [],
      "name": "ADAPTER_ROLE",
      "outputs": [
        {
          "internalType": "bytes32",
          "name": "",
          "type": "bytes32"
        }
      ],
      "stateMutability": "view",
      "type": "function"
    },
    {
      "inputs": [],
      "name": "DEFAULT_ADMIN_ROLE",
      "outputs": [
        {
          "internalType": "bytes32",
          "name": "",
          "type": "bytes32"
        }
      ],
      "stateMutability": "view",
      "type": "function"
    },
    {
      "inputs": [],
      "name": "USDC",
      "outputs": [
        {
          "internalType": "contract IERC20Upgradeable",
          "name": "",
          "type": "address"
        }
      ],
      "stateMutability": "view",
      "type": "function"
    },
    {
      "inputs": [],
      "name": "USDT",
      "outputs": [
        {
          "internalType": "contract IERC20Upgradeable",
          "name": "",
          "type": "address"
        }
      ],
      "stateMutability": "view",
      "type": "function"
    },
    {
      "inputs": [],
      "name": "admin",
      "outputs": [
        {
          "internalType": "address",
          "name": "",
          "type": "address"
        }
      ],
      "stateMutability": "view",
      "type": "function"
    },
    {
      "inputs": [
        {
          "internalType": "uint256",
          "name": "_pool",
          "type": "uint256"
        },
        {
          "internalType": "uint256",
          "name": "_share",
          "type": "uint256"
        },
        {
          "internalType": "bytes",
          "name": "_signature",
          "type": "bytes"
        }
      ],
      "name": "burn",
      "outputs": [
        {
          "internalType": "uint256",
          "name": "_feeAmt",
          "type": "uint256"
        }
      ],
      "stateMutability": "payable",
      "type": "function"
    },
    {
      "inputs": [
        {
          "internalType": "address",
          "name": "_account",
          "type": "address"
        },
        {
          "internalType": "uint256",
          "name": "_pool",
          "type": "uint256"
        },
        {
          "internalType": "uint256",
          "name": "_share",
          "type": "uint256"
        }
      ],
      "name": "burnByAdmin",
      "outputs": [],
      "stateMutability": "nonpayable",
      "type": "function"
    },
    {
      "inputs": [
        {
          "internalType": "uint256",
          "name": "",
          "type": "uint256"
        }
      ],
      "name": "callAdapterTypes",
      "outputs": [
        {
          "internalType": "enum BasicUserAgentBase.AdapterType",
          "name": "",
          "type": "uint8"
        }
      ],
      "stateMutability": "view",
      "type": "function"
    },
    {
      "inputs": [],
      "name": "cbridgeAdapter",
      "outputs": [
        {
          "internalType": "contract IXChainAdapter",
          "name": "",
          "type": "address"
        }
      ],
      "stateMutability": "view",
      "type": "function"
    },
    {
      "inputs": [
        {
          "internalType": "uint256",
          "name": "",
          "type": "uint256"
        }
      ],
      "name": "cbridgeSenders",
      "outputs": [
        {
          "internalType": "address",
          "name": "",
          "type": "address"
        }
      ],
      "stateMutability": "view",
      "type": "function"
    },
    {
      "inputs": [],
      "name": "chainIdOnLP",
      "outputs": [
        {
          "internalType": "uint256",
          "name": "",
          "type": "uint256"
        }
      ],
      "stateMutability": "view",
      "type": "function"
    },
    {
      "inputs": [
        {
          "internalType": "uint256[]",
          "name": "_chainIds",
          "type": "uint256[]"
        },
        {
          "internalType": "bytes",
          "name": "_signature",
          "type": "bytes"
        }
      ],
      "name": "claim",
      "outputs": [
        {
          "internalType": "uint256",
          "name": "_feeAmt",
          "type": "uint256"
        }
      ],
      "stateMutability": "payable",
      "type": "function"
    },
    {
      "inputs": [
        {
          "internalType": "address",
          "name": "_account",
          "type": "address"
        }
      ],
      "name": "claimByAgent",
      "outputs": [],
      "stateMutability": "nonpayable",
      "type": "function"
    },
    {
      "inputs": [
        {
          "internalType": "uint256[]",
          "name": "_toChainIds",
          "type": "uint256[]"
        },
        {
          "internalType": "address[]",
          "name": "_tokens",
          "type": "address[]"
        },
        {
          "internalType": "uint256[]",
          "name": "_USDT6Amts",
          "type": "uint256[]"
        },
        {
          "internalType": "uint256",
          "name": "_minterNonce",
          "type": "uint256"
        },
        {
          "internalType": "bytes",
          "name": "_signature",
          "type": "bytes"
        }
      ],
      "name": "deposit",
      "outputs": [
        {
          "internalType": "uint256",
          "name": "_feeAmt",
          "type": "uint256"
        }
      ],
      "stateMutability": "payable",
      "type": "function"
    },
    {
      "inputs": [
        {
          "internalType": "address",
          "name": "_account",
          "type": "address"
        },
        {
          "internalType": "address[]",
          "name": "_tokens",
          "type": "address[]"
        },
        {
          "internalType": "uint256[]",
          "name": "_USDT6Amts",
          "type": "uint256[]"
        },
        {
          "internalType": "uint256",
          "name": "_minterNonce",
          "type": "uint256"
        }
      ],
      "name": "depositByAgent",
      "outputs": [],
      "stateMutability": "nonpayable",
      "type": "function"
    },
    {
      "inputs": [
        {
          "internalType": "uint256",
          "name": "_gatheredAmount",
          "type": "uint256"
        },
        {
          "internalType": "bytes",
          "name": "_signature",
          "type": "bytes"
        }
      ],
      "name": "exitWithdrawal",
      "outputs": [
        {
          "internalType": "uint256",
          "name": "_feeAmt",
          "type": "uint256"
        }
      ],
      "stateMutability": "payable",
      "type": "function"
    },
    {
      "inputs": [
        {
          "internalType": "address",
          "name": "_account",
          "type": "address"
        }
      ],
      "name": "exitWithdrawalByAdmin",
      "outputs": [],
      "stateMutability": "nonpayable",
      "type": "function"
    },
    {
      "inputs": [
        {
          "internalType": "uint256[]",
          "name": "_fromChainIds",
          "type": "uint256[]"
        },
        {
          "internalType": "enum BasicUserAgentBase.AdapterType[]",
          "name": "_adapterTypes",
          "type": "uint8[]"
        },
        {
          "internalType": "bytes",
          "name": "_signature",
          "type": "bytes"
        }
      ],
      "name": "gather",
      "outputs": [
        {
          "internalType": "uint256",
          "name": "_feeAmt",
          "type": "uint256"
        }
      ],
      "stateMutability": "payable",
      "type": "function"
    },
    {
      "inputs": [
        {
          "internalType": "address",
          "name": "_account",
          "type": "address"
        },
        {
          "internalType": "uint256",
          "name": "_toChainId",
          "type": "uint256"
        },
        {
          "internalType": "enum BasicUserAgentBase.AdapterType",
          "name": "_adapterType",
          "type": "uint8"
        }
      ],
      "name": "gatherByAdmin",
      "outputs": [],
      "stateMutability": "nonpayable",
      "type": "function"
    },
    {
      "inputs": [
        {
          "internalType": "bytes",
          "name": "message",
          "type": "bytes"
        }
      ],
      "name": "getMessageHashForSafe",
      "outputs": [
        {
          "internalType": "bytes32",
          "name": "",
          "type": "bytes32"
        }
      ],
      "stateMutability": "view",
      "type": "function"
    },
    {
      "inputs": [
        {
          "internalType": "bytes32",
          "name": "role",
          "type": "bytes32"
        }
      ],
      "name": "getRoleAdmin",
      "outputs": [
        {
          "internalType": "bytes32",
          "name": "",
          "type": "bytes32"
        }
      ],
      "stateMutability": "view",
      "type": "function"
    },
    {
      "inputs": [
        {
          "internalType": "bytes32",
          "name": "role",
          "type": "bytes32"
        },
        {
          "internalType": "uint256",
          "name": "index",
          "type": "uint256"
        }
      ],
      "name": "getRoleMember",
      "outputs": [
        {
          "internalType": "address",
          "name": "",
          "type": "address"
        }
      ],
      "stateMutability": "view",
      "type": "function"
    },
    {
      "inputs": [
        {
          "internalType": "bytes32",
          "name": "role",
          "type": "bytes32"
        }
      ],
      "name": "getRoleMemberCount",
      "outputs": [
        {
          "internalType": "uint256",
          "name": "",
          "type": "uint256"
        }
      ],
      "stateMutability": "view",
      "type": "function"
    },
    {
      "inputs": [
        {
          "internalType": "bytes32",
          "name": "role",
          "type": "bytes32"
        },
        {
          "internalType": "address",
          "name": "account",
          "type": "address"
        }
      ],
      "name": "grantRole",
      "outputs": [],
      "stateMutability": "nonpayable",
      "type": "function"
    },
    {
      "inputs": [
        {
          "internalType": "bytes32",
          "name": "role",
          "type": "bytes32"
        },
        {
          "internalType": "address",
          "name": "account",
          "type": "address"
        }
      ],
      "name": "hasRole",
      "outputs": [
        {
          "internalType": "bool",
          "name": "",
          "type": "bool"
        }
      ],
      "stateMutability": "view",
      "type": "function"
    },
    {
      "inputs": [],
      "name": "isLPChain",
      "outputs": [
        {
          "internalType": "bool",
          "name": "",
          "type": "bool"
        }
      ],
      "stateMutability": "view",
      "type": "function"
    },
    {
      "inputs": [
        {
          "internalType": "address",
          "name": "forwarder",
          "type": "address"
        }
      ],
      "name": "isTrustedForwarder",
      "outputs": [
        {
          "internalType": "bool",
          "name": "",
          "type": "bool"
        }
      ],
      "stateMutability": "view",
      "type": "function"
    },
    {
      "inputs": [
        {
          "internalType": "address",
          "name": "_account",
          "type": "address"
        },
        {
          "internalType": "bytes",
          "name": "_data",
          "type": "bytes"
        },
        {
          "internalType": "bytes",
          "name": "_signature",
          "type": "bytes"
        }
      ],
      "name": "isValidSignature",
      "outputs": [
        {
          "internalType": "bool",
          "name": "",
          "type": "bool"
        }
      ],
      "stateMutability": "view",
      "type": "function"
    },
    {
      "inputs": [
        {
          "internalType": "uint256",
          "name": "_USDT6Amt",
          "type": "uint256"
        },
        {
          "internalType": "bytes",
          "name": "_signature",
          "type": "bytes"
        }
      ],
      "name": "mint",
      "outputs": [
        {
          "internalType": "uint256",
          "name": "_feeAmt",
          "type": "uint256"
        }
      ],
      "stateMutability": "payable",
      "type": "function"
    },
    {
      "inputs": [
        {
          "internalType": "address",
          "name": "_account",
          "type": "address"
        },
        {
          "internalType": "uint256",
          "name": "_USDT6Amt",
          "type": "uint256"
        }
      ],
      "name": "mintByAdmin",
      "outputs": [],
      "stateMutability": "nonpayable",
      "type": "function"
    },
    {
      "inputs": [],
      "name": "multichainAdapter",
      "outputs": [
        {
          "internalType": "contract IXChainAdapter",
          "name": "",
          "type": "address"
        }
      ],
      "stateMutability": "view",
      "type": "function"
    },
    {
      "inputs": [
        {
          "internalType": "address",
          "name": "",
          "type": "address"
        }
      ],
      "name": "nonces",
      "outputs": [
        {
          "internalType": "uint256",
          "name": "",
          "type": "uint256"
        }
      ],
      "stateMutability": "view",
      "type": "function"
    },
    {
      "inputs": [],
      "name": "owner",
      "outputs": [
        {
          "internalType": "address",
          "name": "",
          "type": "address"
        }
      ],
      "stateMutability": "view",
      "type": "function"
    },
    {
      "inputs": [],
      "name": "paused",
      "outputs": [
        {
          "internalType": "bool",
          "name": "",
          "type": "bool"
        }
      ],
      "stateMutability": "view",
      "type": "function"
    },
    {
      "inputs": [],
      "name": "renounceOwnership",
      "outputs": [],
      "stateMutability": "nonpayable",
      "type": "function"
    },
    {
      "inputs": [
        {
          "internalType": "bytes32",
          "name": "role",
          "type": "bytes32"
        },
        {
          "internalType": "address",
          "name": "account",
          "type": "address"
        }
      ],
      "name": "renounceRole",
      "outputs": [],
      "stateMutability": "nonpayable",
      "type": "function"
    },
    {
      "inputs": [
        {
          "internalType": "bytes32",
          "name": "role",
          "type": "bytes32"
        },
        {
          "internalType": "address",
          "name": "account",
          "type": "address"
        }
      ],
      "name": "revokeRole",
      "outputs": [],
      "stateMutability": "nonpayable",
      "type": "function"
    },
    {
      "inputs": [],
      "name": "stiMinter",
      "outputs": [
        {
          "internalType": "contract ISTIMinter",
          "name": "",
          "type": "address"
        }
      ],
      "stateMutability": "view",
      "type": "function"
    },
    {
      "inputs": [],
      "name": "stiVault",
      "outputs": [
        {
          "internalType": "contract ISTIVault",
          "name": "",
          "type": "address"
        }
      ],
      "stateMutability": "view",
      "type": "function"
    },
    {
      "inputs": [],
      "name": "subImpl",
      "outputs": [
        {
          "internalType": "address",
          "name": "",
          "type": "address"
        }
      ],
      "stateMutability": "view",
      "type": "function"
    },
    {
      "inputs": [
        {
          "internalType": "bytes4",
          "name": "interfaceId",
          "type": "bytes4"
        }
      ],
      "name": "supportsInterface",
      "outputs": [
        {
          "internalType": "bool",
          "name": "",
          "type": "bool"
        }
      ],
      "stateMutability": "view",
      "type": "function"
    },
    {
      "inputs": [
        {
          "internalType": "uint256",
          "name": "_gatheredAmount",
          "type": "uint256"
        },
        {
          "internalType": "bytes",
          "name": "_signature",
          "type": "bytes"
        }
      ],
      "name": "takeOut",
      "outputs": [],
      "stateMutability": "nonpayable",
      "type": "function"
    },
    {
      "inputs": [
        {
          "internalType": "address",
          "name": "newOwner",
          "type": "address"
        }
      ],
      "name": "transferOwnership",
      "outputs": [],
      "stateMutability": "nonpayable",
      "type": "function"
    },
    {
      "inputs": [],
      "name": "trustedForwarder",
      "outputs": [
        {
          "internalType": "address",
          "name": "",
          "type": "address"
        }
      ],
      "stateMutability": "view",
      "type": "function"
    },
    {
      "inputs": [
        {
          "internalType": "address",
          "name": "",
          "type": "address"
        }
      ],
      "name": "usdcBalances",
      "outputs": [
        {
          "internalType": "uint256",
          "name": "",
          "type": "uint256"
        }
      ],
      "stateMutability": "view",
      "type": "function"
    },
    {
      "inputs": [
        {
          "internalType": "address",
          "name": "",
          "type": "address"
        }
      ],
      "name": "usdtBalances",
      "outputs": [
        {
          "internalType": "uint256",
          "name": "",
          "type": "uint256"
        }
      ],
      "stateMutability": "view",
      "type": "function"
    },
    {
      "inputs": [
        {
          "internalType": "uint256",
          "name": "",
          "type": "uint256"
        }
      ],
      "name": "userAgents",
      "outputs": [
        {
          "internalType": "address",
          "name": "",
          "type": "address"
        }
      ],
      "stateMutability": "view",
      "type": "function"
    },
    {
      "inputs": [],
      "name": "versionRecipient",
      "outputs": [
        {
          "internalType": "string",
          "name": "",
          "type": "string"
        }
      ],
      "stateMutability": "pure",
      "type": "function"
    },
    {
      "inputs": [
        {
          "internalType": "uint256[]",
          "name": "_chainIds",
          "type": "uint256[]"
        },
        {
          "internalType": "uint256",
          "name": "_sharePerc",
          "type": "uint256"
        },
        {
          "internalType": "uint256",
          "name": "_minterNonce",
          "type": "uint256"
        },
        {
          "internalType": "bytes",
          "name": "_signature",
          "type": "bytes"
        }
      ],
      "name": "withdraw",
      "outputs": [
        {
          "internalType": "uint256",
          "name": "_feeAmt",
          "type": "uint256"
        }
      ],
      "stateMutability": "payable",
      "type": "function"
    },
    {
      "inputs": [
        {
          "internalType": "address",
          "name": "_account",
          "type": "address"
        },
        {
          "internalType": "uint256",
          "name": "_sharePerc",
          "type": "uint256"
        },
        {
          "internalType": "uint256",
          "name": "_minterNonce",
          "type": "uint256"
        }
      ],
      "name": "withdrawPercByAgent",
      "outputs": [],
      "stateMutability": "nonpayable",
      "type": "function"
    },
    {
      "stateMutability": "payable",
      "type": "receive"
    }
  ],
  "transactionHash": "0x7be5c73e1f2634fc2c16c7c6b5ce6fab49851377ceab0cff7bf9dd5784a393b2",
  "args": [],
  "numDeployments": 2,
  "solcInputHash": "9ec5fef45cff5c628e27c09dec5539e7",
  "bytecode": "0x608060405234801561001057600080fd5b506146aa806100206000396000f3fe6080604052600436106102cd5760003560e01c80638365d5ee11610175578063c7205bce116100dc578063e629f7b311610095578063f2fde38b1161006f578063f2fde38b14610906578063f77de48614610926578063f7bb364c14610946578063f851a4401461096157600080fd5b8063e629f7b31461088f578063e9e81a6a146108af578063f2ea1618146108cf57600080fd5b8063c7205bce146107e8578063ca15c87314610808578063d48a3d3d14610828578063d547741f1461083b578063db7fd4081461085b578063ddd879341461086e57600080fd5b8063918f1a5c1161012e578063918f1a5c1461073157806391d1485414610744578063a217fddf14610764578063a99c68c514610779578063af3da2f4146107a7578063c54e44eb146107c757600080fd5b80638365d5ee1461068557806384762739146106ab57806386355d96146106be57806389a30271146106d15780638da5cb5b146106f25780639010d07c1461071157600080fd5b8063486ff0cd116102345780636687977f116101ed578063715018a6116101c7578063715018a61461060f5780637da0a877146106245780637ecebe001461064457806380a5a3711461067257600080fd5b80636687977f146105a55780636e5677ce146105b85780636ebf33ce146105d857600080fd5b8063486ff0cd146104bf578063572b6c05146104ef57806357cdd7f91461051e578063582489cb1461053f578063582712b11461056d5780635c975abb1461058d57600080fd5b8063248a9ca311610286578063248a9ca3146103cf578063264489ce146103ff57806328054fb7146104215780632f2ff15d1461044157806336568abe1461046157806339dacedb1461048157600080fd5b8063013dee70146102d957806301ffc9a71461031757806302a882e6146103475780630c3a18211461037757806319463093146103985780631a5787d8146103b857600080fd5b366102d457005b600080fd5b3480156102e557600080fd5b50610195546102fa906001600160a01b031681565b6040516001600160a01b0390911681526020015b60405180910390f35b34801561032357600080fd5b506103376103323660046137fe565b610982565b604051901515815260200161030e565b34801561035357600080fd5b5061036960008051602061465583398151915281565b60405190815260200161030e565b34801561038357600080fd5b50610166546102fa906001600160a01b031681565b3480156103a457600080fd5b506103696103b33660046138dd565b6109ad565b3480156103c457600080fd5b506103696101925481565b3480156103db57600080fd5b506103696103ea366004613911565b60009081526097602052604090206001015490565b34801561040b57600080fd5b5061041f61041a36600461393f565b6109f9565b005b34801561042d57600080fd5b5061041f61043c366004613970565b610bab565b34801561044d57600080fd5b5061041f61045c3660046139ae565b610f5a565b34801561046d57600080fd5b5061041f61047c3660046139ae565b610f84565b34801561048d57600080fd5b506104b261049c366004613911565b61016a6020526000908152604090205460ff1681565b60405161030e9190613a16565b3480156104cb57600080fd5b5060408051808201825260018152603160f81b6020820152905161030e9190613a50565b3480156104fb57600080fd5b5061033761050a36600461393f565b6000546001600160a01b0391821691161490565b34801561052a57600080fd5b50610167546102fa906001600160a01b031681565b34801561054b57600080fd5b5061036961055a36600461393f565b6101656020526000908152604090205481565b34801561057957600080fd5b5061041f610588366004613b6a565b611012565b34801561059957600080fd5b5060fb5460ff16610337565b6103696105b3366004613c2f565b61109a565b3480156105c457600080fd5b5061041f6105d3366004613cac565b611182565b3480156105e457600080fd5b506102fa6105f3366004613911565b610169602052600090815260409020546001600160a01b031681565b34801561061b57600080fd5b5061041f611264565b34801561063057600080fd5b506000546102fa906001600160a01b031681565b34801561065057600080fd5b5061036961065f36600461393f565b6101606020526000908152604090205481565b610369610680366004613cf7565b6112ea565b34801561069157600080fd5b50610193546102fa9061010090046001600160a01b031681565b6103696106b9366004613cac565b611408565b6103696106cc366004613d49565b61154d565b3480156106dd57600080fd5b50610162546102fa906001600160a01b031681565b3480156106fe57600080fd5b5061012d546001600160a01b03166102fa565b34801561071d57600080fd5b506102fa61072c366004613e05565b611673565b61036961073f366004613e27565b611692565b34801561075057600080fd5b5061033761075f3660046139ae565b6116d8565b34801561077057600080fd5b50610369600081565b34801561078557600080fd5b5061036961079436600461393f565b6101646020526000908152604090205481565b3480156107b357600080fd5b5061041f6107c2366004613f00565b611703565b3480156107d357600080fd5b50610163546102fa906001600160a01b031681565b3480156107f457600080fd5b50610337610803366004613f2c565b61178d565b34801561081457600080fd5b50610369610823366004613911565b61190c565b610369610836366004613f8b565b611923565b34801561084757600080fd5b5061041f6108563660046139ae565b61199c565b610369610869366004613cac565b6119c1565b34801561087a57600080fd5b50610194546102fa906001600160a01b031681565b34801561089b57600080fd5b5061041f6108aa366004613fe6565b611ad6565b3480156108bb57600080fd5b5061041f6108ca366004613fe6565b611b5f565b3480156108db57600080fd5b506102fa6108ea366004613911565b610168602052600090815260409020546001600160a01b031681565b34801561091257600080fd5b5061041f61092136600461393f565b611b96565b34801561093257600080fd5b5061041f61094136600461393f565b611c81565b34801561095257600080fd5b50610193546103379060ff1681565b34801561096d57600080fd5b5061015f546102fa906001600160a01b031681565b60006001600160e01b03198216635a05180f60e01b14806109a757506109a782611d03565b92915050565b805160209182012060015460408051601960f81b81860152600160f81b602182015260228101929092526042808301939093528051808303909301835260629091019052805191012090565b600080516020614655833981519152610a1181611d38565b610163546040516370a0823160e01b81523060048201526000916001600160a01b0316906370a082319060240160206040518083038186803b158015610a5657600080fd5b505afa158015610a6a573d6000803e3d6000fd5b505050506040513d601f19601f82011682018060405250810190610a8e919061401b565b6101945460405163132244e760e11b81526001600160a01b03868116600483015292935091169063264489ce90602401600060405180830381600087803b158015610ad857600080fd5b505af1158015610aec573d6000803e3d6000fd5b5050610163546040516370a0823160e01b81523060048201528493506001600160a01b0390911691506370a082319060240160206040518083038186803b158015610b3657600080fd5b505afa158015610b4a573d6000803e3d6000fd5b505050506040513d601f19601f82011682018060405250810190610b6e919061401b565b610b78919061404a565b6001600160a01b0384166000908152610165602052604081208054909190610ba1908490614061565b9091555050505050565b600080516020614655833981519152610bc381611d38565b6001600160a01b038416600090815261016560205260409020548015610f5357600084815261016960205260409020546001600160a01b031680610c435760405162461bcd60e51b8152602060048201526012602482015271125b9d985b1a59081d5cd95c881859d95b9d60721b60448201526064015b60405180910390fd5b604080516001808252818301909252600091602080830190803683370190505090508281600081518110610c7957610c79614079565b60209081029190910101526040805160018082528183019092526000918160200160208202803683370190505090508681600081518110610cbc57610cbc614079565b60209081029190910101526040805160018082528183019092526000918160200160208202803683370190505090508381600081518110610cff57610cff614079565b6001600160a01b0392909216602092830291909101909101526040805160018082528183019092526000918160200160208202803683370190505090508781600081518110610d5057610d50614079565b60200260200101906001811115610d6957610d696139de565b90816001811115610d7c57610d7c6139de565b90525061016354600090610da1908c906001600160a01b031687878787600180611d49565b6101615461016354604051631d1c6b8360e11b81526001600160a01b03918216600482015260248101849052929350600092911690633a38d7069060440160206040518083038186803b158015610df757600080fd5b505afa158015610e0b573d6000803e3d6000fd5b505050506040513d601f19601f82011682018060405250810190610e2f919061401b565b905080881115610f4b576101615461016354604051632f66c82160e21b81526000926001600160a01b039081169263bd9b208492610e7792909116908690889060040161408f565b602060405180830381600087803b158015610e9157600080fd5b505af1158015610ea5573d6000803e3d6000fd5b505050506040513d601f19601f82011682018060405250810190610ec9919061401b565b9050610ed5818a61404a565b87600081518110610ee857610ee8614079565b602002602001018181525050600061016560008f6001600160a01b03166001600160a01b0316815260200190815260200160002081905550610f488d61016360009054906101000a90046001600160a01b03168989898960016000611d49565b50505b505050505050505b5050505050565b600082815260976020526040902060010154610f7581611d38565b610f7f8383611dbb565b505050565b610f8c611ddd565b6001600160a01b0316816001600160a01b0316146110045760405162461bcd60e51b815260206004820152602f60248201527f416363657373436f6e74726f6c3a2063616e206f6e6c792072656e6f756e636560448201526e103937b632b9903337b91039b2b63360891b6064820152608401610c3a565b61100e8282611dec565b5050565b60008051602061465583398151915261102a81611d38565b6101945460405163582712b160e01b81526001600160a01b039091169063582712b190611061908890889088908890600401614124565b600060405180830381600087803b15801561107b57600080fd5b505af115801561108f573d6000803e3d6000fd5b505050505050505050565b6000806110a5611ddd565b6001600160a01b0381166000908152610160602090815260409182902054915192935090916110ff916110e291859185918d918d918d9101614191565b604051602081830303815290604052805190602001208686611e0e565b60005b885181101561114e57611130838a838151811061112157611121614079565b60200260200101518a8a611e82565b61113a9085614061565b935080611146816141ca565b915050611102565b5061115a816001614061565b6001600160a01b03909216600090815261016060205260409020919091555095945050505050565b600061118c611ddd565b6001600160a01b0381166000908152610160602090815260409182902054915192935090916111e2916111c591859185918a91016141e5565b604051602081830303815290604052805190602001208585611e0e565b6001600160a01b038216600090815261016560205260408120546112069087614061565b6001600160a01b03808516600090815261016560205260408120556101635491925061123491168483611eb5565b61123f826001614061565b6001600160a01b03909316600090815261016060205260409020929092555050505050565b61126c611ddd565b6001600160a01b031661128861012d546001600160a01b031690565b6001600160a01b0316146112de5760405162461bcd60e51b815260206004820181905260248201527f4f776e61626c653a2063616c6c6572206973206e6f7420746865206f776e65726044820152606401610c3a565b6112e86000611f07565b565b6000806112f5611ddd565b6001600160a01b038116600090815261016060209081526040918290205491516bffffffffffffffffffffffff19606085901b169181019190915260348101829052605481018990526074810188905291925090611355906094016110e2565b6101935460ff16156113d1576101935460405163e629f7b360e01b81526101009091046001600160a01b03169063e629f7b39061139a9085908b908b9060040161408f565b600060405180830381600087803b1580156113b457600080fd5b505af11580156113c8573d6000803e3d6000fd5b505050506113d6565b600092505b6113e1816001614061565b6001600160a01b039092166000908152610160602052604090209190915550949350505050565b600080611413611ddd565b6001600160a01b03811660009081526101606020908152604091829020549151929350909161144c916110e291859185918b91016141e5565b6101935460ff16156114c35761019354604051637bbef24360e11b81526001600160a01b0384811660048301526101009092049091169063f77de48690602401600060405180830381600087803b1580156114a657600080fd5b505af11580156114ba573d6000803e3d6000fd5b505050506114c8565b600092505b6001600160a01b038216600090815261016560205260408120546114ec9088614061565b6001600160a01b03808516600090815261016560205260408120556101635491925061151a91168483611eb5565b611525826001614061565b6001600160a01b03909316600090815261016060205260409020929092555090949350505050565b600061155b60fb5460ff1690565b1561159b5760405162461bcd60e51b815260206004820152601060248201526f14185d5cd8589b194e881c185d5cd95960821b6044820152606401610c3a565b60006115a5611ddd565b6001600160a01b0381166000908152610160602090815260409182902054915192935090916115e4916110e291859185918e918e918e918e910161420f565b6000806000806115f78d8d8d6000611f5a565b93509350935093505b831561163a57611613868585858e612137565b61161d9088614061565b965061162b8d8d8d84611f5a565b92965090945092509050611600565b611645856001614061565b6001600160a01b039096166000908152610160602052604090209590955550939a9950505050505050505050565b600082815260c96020526040812061168b9083612324565b9392505050565b60008061169d611ddd565b6001600160a01b0381166000908152610160602090815260409182902054915192935090916113d1916110e291859185918c918c9101614282565b60009182526097602090815260408084206001600160a01b0393909316845291905290205460ff1690565b60008051602061465583398151915261171b81611d38565b61019354604051632bcf68bd60e21b81526001600160a01b038581166004830152602482018590526101009092049091169063af3da2f490604401600060405180830381600087803b15801561177057600080fd5b505af1158015611784573d6000803e3d6000fd5b50505050505050565b600080611799856109ad565b90506001600160a01b0386163b156117f5576117ed86828787878080601f01602080910402602001604051908101604052809392919081815260200183838082843760009201919091525061233092505050565b915050611904565b600080600061183987878080601f016020809104026020016040519081016040528093929190818152602001838380828437600092018290525092506123cc915050565b6040517f19457468657265756d205369676e6564204d6573736167653a0a3332000000006020820152603c81018890529295509093509150600090605c0160408051601f198184030181528282528051602091820120600080855291840180845281905260ff88169284019290925260608301869052608083018590529092509060019060a0016020604051602081039080840390855afa1580156118e2573d6000803e3d6000fd5b5050604051601f1901516001600160a01b038d81169116149750505050505050505b949350505050565b600081815260c9602052604081206109a7906123ea565b60008061192e611ddd565b6001600160a01b038116600090815261016060209081526040918290205491519293509091611967916110e291859185918b91016142e3565b60009250611976816001614061565b6001600160a01b0390921660009081526101606020526040902091909155509392505050565b6000828152609760205260409020600101546119b781611d38565b610f7f8383611dec565b60006119cf60fb5460ff1690565b15611a0f5760405162461bcd60e51b815260206004820152601060248201526f14185d5cd8589b194e881c185d5cd95960821b6044820152606401610c3a565b6000611a19611ddd565b6001600160a01b038116600090815261016060209081526040918290205491519293509091611a52916110e291859185918b91016141e5565b6101935460ff16156119675761019354604051632bcf68bd60e21b81526001600160a01b038481166004830152602482018990526101009092049091169063af3da2f490604401600060405180830381600087803b158015611ab357600080fd5b505af1158015611ac7573d6000803e3d6000fd5b50505050611976816001614061565b600080516020614655833981519152611aee81611d38565b6101935460405163e629f7b360e01b81526101009091046001600160a01b03169063e629f7b390611b279087908790879060040161408f565b600060405180830381600087803b158015611b4157600080fd5b505af1158015611b55573d6000803e3d6000fd5b5050505050505050565b600080516020614655833981519152611b7781611d38565b61019454611b90906001600160a01b03168585856123f4565b50505050565b611b9e611ddd565b6001600160a01b0316611bba61012d546001600160a01b031690565b6001600160a01b031614611c105760405162461bcd60e51b815260206004820181905260248201527f4f776e61626c653a2063616c6c6572206973206e6f7420746865206f776e65726044820152606401610c3a565b6001600160a01b038116611c755760405162461bcd60e51b815260206004820152602660248201527f4f776e61626c653a206e6577206f776e657220697320746865207a65726f206160448201526564647265737360d01b6064820152608401610c3a565b611c7e81611f07565b50565b600080516020614655833981519152611c9981611d38565b61019354604051637bbef24360e11b81526001600160a01b0384811660048301526101009092049091169063f77de48690602401600060405180830381600087803b158015611ce757600080fd5b505af1158015611cfb573d6000803e3d6000fd5b505050505050565b60006001600160e01b03198216637965db0b60e01b14806109a757506301ffc9a760e01b6001600160e01b03198316146109a7565b611c7e81611d44611ddd565b612593565b6000806000806000806000611d618d8d8d8d8d6125f7565b949a5092985090965094509250905087158015611d7f575060008651115b15611d9157611d918f8f888888612aa5565b825115611da957611da68f8f8585858d612bcf565b96505b50505050505098975050505050505050565b611dc58282612e6f565b600082815260c960205260409020610f7f9082612ef6565b6000611de7612f0b565b905090565b611df68282612f3f565b600082815260c960205260409020610f7f9082612fc4565b61015f546040805160208101869052611e42926001600160a01b03169101604051602081830303815290604052848461178d565b610f7f5760405162461bcd60e51b8152602060048201526011602482015270496e76616c6964207369676e617475726560781b6044820152606401610c3a565b600046841415611eaa5761019454611ea5906001600160a01b03168685856123f4565b611904565b506000949350505050565b604080516001600160a01b038416602482015260448082018490528251808303909101815260649091019091526020810180516001600160e01b031663a9059cbb60e01b179052610f7f908490612fd9565b61012d80546001600160a01b038381166001600160a01b0319831681179093556040519116919082907f8be0079c531659141344cd1fd0a4f28419497f9722a3daafe3b4186f6b6457e090600090a35050565b83516000906060908190839081865b82811015611fdc5786611f97578a8181518110611f8857611f88614079565b60200260200101519650611fbc565b8a8181518110611fa957611fa9614079565b60200260200101518714611fbc57611fdc565b81611fc6816141ca565b9250508080611fd4906141ca565b915050611f69565b50611fe78188614061565b9250801561212a57806001600160401b0381111561200757612007613828565b604051908082528060200260200182016040528015612030578160200160208202803683370190505b509450806001600160401b0381111561204b5761204b613828565b604051908082528060200260200182016040528015612074578160200160208202803683370190505b50935060009050865b838110156121285789818151811061209757612097614079565b60200260200101518683815181106120b1576120b1614079565b60200260200101906001600160a01b031690816001600160a01b0316815250508881815181106120e3576120e3614079565b60200260200101518583815181106120fd576120fd614079565b602090810291909101015281612112816141ca565b9250508080612120906141ca565b91505061207d565b505b5050945094509450949050565b600046851415612317576001600160a01b0386166000908152610165602052604081205490805b85518110156121a05785818151811061217957612179614079565b60200260200101518261218c9190614061565b915080612198816141ca565b91505061215e565b50610163546040805163313ce56760e01b815290516006926001600160a01b03169163313ce567916004808301926020929190829003018186803b1580156121e757600080fd5b505afa1580156121fb573d6000803e3d6000fd5b505050506040513d601f19601f8201168201806040525081019061221f9190614308565b612229919061432b565b61223490600a614432565b61223e9082614441565b9050808210156122875760405162461bcd60e51b8152602060048201526014602482015273496e73756666696369656e742062616c616e636560601b6044820152606401610c3a565b612291818361404a565b6001600160a01b03808a1660009081526101656020526040908190209290925561019454915163582712b160e01b815291169063582712b1906122de908b908a908a908a90600401614124565b600060405180830381600087803b1580156122f857600080fd5b505af115801561230c573d6000803e3d6000fd5b50505050505061231b565b5060005b95945050505050565b600061168b83836130ab565b600080856001600160a01b031663e75235b86040518163ffffffff1660e01b815260040160206040518083038186803b15801561236c57600080fd5b505afa158015612380573d6000803e3d6000fd5b505050506040513d601f19601f820116820180604052508101906123a4919061401b565b9050806123b5576000915050611904565b6123c286868686856130d5565b9695505050505050565b60419081029190910160208101516040820151919092015160ff1692565b60006109a7825490565b610163546040516370a0823160e01b81523060048201526000916001600160a01b0316906370a082319060240160206040518083038186803b15801561243957600080fd5b505afa15801561244d573d6000803e3d6000fd5b505050506040513d601f19601f82011682018060405250810190612471919061401b565b6040516374f40d3560e11b81529091506001600160a01b0386169063e9e81a6a906124a49087908790879060040161408f565b600060405180830381600087803b1580156124be57600080fd5b505af11580156124d2573d6000803e3d6000fd5b5050610163546040516370a0823160e01b81523060048201528493506001600160a01b0390911691506370a082319060240160206040518083038186803b15801561251c57600080fd5b505afa158015612530573d6000803e3d6000fd5b505050506040513d601f19601f82011682018060405250810190612554919061401b565b61255e919061404a565b6001600160a01b0385166000908152610165602052604081208054909190612587908490614061565b90915550505050505050565b61259d82826116d8565b61100e576125b5816001600160a01b0316601461332f565b6125c083602061332f565b6040516020016125d1929190614460565b60408051601f198184030181529082905262461bcd60e51b8252610c3a91600401613a50565b60608060608060608060008060005b898110156126a65760008b828151811061262257612622614079565b6020026020010151600181111561263b5761263b6139de565b1415612653578261264b816141ca565b935050612694565b60018b828151811061266757612667614079565b60200260200101516001811115612680576126806139de565b14156126945781612690816141ca565b9250505b8061269e816141ca565b915050612606565b50816001600160401b038111156126bf576126bf613828565b6040519080825280602002602001820160405280156126e8578160200160208202803683370190505b509750816001600160401b0381111561270357612703613828565b60405190808252806020026020018201604052801561272c578160200160208202803683370190505b509650816001600160401b0381111561274757612747613828565b604051908082528060200260200182016040528015612770578160200160208202803683370190505b509550806001600160401b0381111561278b5761278b613828565b6040519080825280602002602001820160405280156127b4578160200160208202803683370190505b509450806001600160401b038111156127cf576127cf613828565b6040519080825280602002602001820160405280156127f8578160200160208202803683370190505b509350806001600160401b0381111561281357612813613828565b60405190808252806020026020018201604052801561283c578160200160208202803683370190505b509250600091506000905060005b89811015612a955760008b828151811061286657612866614079565b6020026020010151600181111561287f5761287f6139de565b141561294b578d818151811061289757612897614079565b60200260200101518984815181106128b1576128b1614079565b6020026020010181815250508c81815181106128cf576128cf614079565b60200260200101518884815181106128e9576128e9614079565b6020026020010181815250508b818151811061290757612907614079565b602002602001015187848151811061292157612921614079565b6001600160a01b039092166020928302919091019091015282612943816141ca565b935050612a83565b60018b828151811061295f5761295f614079565b60200260200101516001811115612978576129786139de565b1415612a44578d818151811061299057612990614079565b60200260200101518683815181106129aa576129aa614079565b6020026020010181815250508c81815181106129c8576129c8614079565b60200260200101518583815181106129e2576129e2614079565b6020026020010181815250508b8181518110612a0057612a00614079565b6020026020010151848381518110612a1a57612a1a614079565b6001600160a01b039092166020928302919091019091015281612a3c816141ca565b925050612a83565b60405162461bcd60e51b8152602060048201526014602482015273496e76616c69642061646170746572207479706560601b6044820152606401610c3a565b80612a8d816141ca565b91505061284a565b5050509550955095509550955095565b82516101665460405163219d5ca560e01b81526001600160a01b039091169063219d5ca590612ade9088908890889088906004016144d5565b600060405180830381600087803b158015612af857600080fd5b505af1158015612b0c573d6000803e3d6000fd5b505050506000612b194690565b905060005b82811015611b5557848181518110612b3857612b38614079565b6020026020010151868281518110612b5257612b52614079565b6020026020010151896001600160a01b03167f3ba03e6b4cb24f75ab77e3b8fb7ea0a24af301c15f5fb5709dd68c39604888158a86898781518110612b9957612b99614079565b6020026020010151600080604051612bb595949392919061451f565b60405180910390a480612bc7816141ca565b915050612b1e565b600080855190508061016760009054906101000a90046001600160a01b03166001600160a01b0316633b11ca516040518163ffffffff1660e01b815260040160206040518083038186803b158015612c2657600080fd5b505afa158015612c3a573d6000803e3d6000fd5b505050506040513d601f19601f82011682018060405250810190612c5e919061401b565b612c689190614441565b915082158015612c785750814710155b15612e6457610167546040805163057ff68760e51b815290516000926001600160a01b03169163affed0e0916004808301926020929190829003018186803b158015612cc357600080fd5b505afa158015612cd7573d6000803e3d6000fd5b505050506040513d601f19601f82011682018060405250810190612cfb919061401b565b6101675460405163219d5ca560e01b81529192506001600160a01b03169063219d5ca5908590612d35908c908c908c908c906004016144d5565b6000604051808303818588803b158015612d4e57600080fd5b505af1158015612d62573d6000803e3d6000fd5b50505050506000612d704690565b905060005b83811015612e60576000612d898285614061565b60008181526101686020526040902080546001600160a01b0319166001600160a01b038f161790558951909150899083908110612dc857612dc8614079565b60200260200101518a8381518110612de257612de2614079565b60200260200101518d6001600160a01b03167f3ba03e6b4cb24f75ab77e3b8fb7ea0a24af301c15f5fb5709dd68c39604888158e878d8881518110612e2957612e29614079565b6020026020010151600188604051612e4595949392919061451f565b60405180910390a45080612e58816141ca565b915050612d75565b5050505b509695505050505050565b612e7982826116d8565b61100e5760008281526097602090815260408083206001600160a01b03851684529091529020805460ff19166001179055612eb2611ddd565b6001600160a01b0316816001600160a01b0316837f2f8788117e7eff1d82e926ec794901d17c78024a50270940304540a733656f0d60405160405180910390a45050565b600061168b836001600160a01b0384166134ca565b600060183610801590612f2857506000546001600160a01b031633145b15612f3a575060131936013560601c90565b503390565b612f4982826116d8565b1561100e5760008281526097602090815260408083206001600160a01b03851684529091529020805460ff19169055612f80611ddd565b6001600160a01b0316816001600160a01b0316837ff6391f5c32d9c69d2a47ea670b442974b53935d1edc7fd64eb21e047a839171b60405160405180910390a45050565b600061168b836001600160a01b038416613519565b600061302e826040518060400160405280602081526020017f5361666545524332303a206c6f772d6c6576656c2063616c6c206661696c6564815250856001600160a01b031661360c9092919063ffffffff16565b805190915015610f7f578080602001905181019061304c919061455b565b610f7f5760405162461bcd60e51b815260206004820152602a60248201527f5361666545524332303a204552433230206f7065726174696f6e20646964206e6044820152691bdd081cdd58d8d9595960b21b6064820152608401610c3a565b60008260000182815481106130c2576130c2614079565b9060005260206000200154905092915050565b60006130e2826041614441565b835110156130f25750600061231b565b600080876001600160a01b031663a0e67e2b6040518163ffffffff1660e01b815260040160006040518083038186803b15801561312e57600080fd5b505afa158015613142573d6000803e3d6000fd5b505050506040513d6000823e601f3d908101601f1916820160405261316a919081019061457d565b905060008080805b8781101561331d5760418181028a0160208101516040820151919092015160ff16955090935091508361324d5791945084916131af886041614441565b8210156131c5576000965050505050505061231b565b88516131d2836020614061565b11156131e7576000965050505050505061231b565b6020828a018101518a5190918290613200908690614061565b61320a9190614061565b111561322057600097505050505050505061231b565b898301602001613231888d8361361b565b6132465760009850505050505050505061231b565b50506132ee565b6040517f19457468657265756d205369676e6564204d6573736167653a0a3332000000006020820152603c81018c9052600190605c0160408051601f198184030181528282528051602091820120600084529083018083525260ff871690820152606081018590526080810184905260a0016020604051602081039080840390855afa1580156132e1573d6000803e3d6000fd5b5050506020604051035195505b6132f88587613635565b61330b576000965050505050505061231b565b80613315816141ca565b915050613172565b5060019b9a5050505050505050505050565b6060600061333e836002614441565b613349906002614061565b6001600160401b0381111561336057613360613828565b6040519080825280601f01601f19166020018201604052801561338a576020820181803683370190505b509050600360fc1b816000815181106133a5576133a5614079565b60200101906001600160f81b031916908160001a905350600f60fb1b816001815181106133d4576133d4614079565b60200101906001600160f81b031916908160001a90535060006133f8846002614441565b613403906001614061565b90505b600181111561347b576f181899199a1a9b1b9c1cb0b131b232b360811b85600f166010811061343757613437614079565b1a60f81b82828151811061344d5761344d614079565b60200101906001600160f81b031916908160001a90535060049490941c936134748161460b565b9050613406565b50831561168b5760405162461bcd60e51b815260206004820181905260248201527f537472696e67733a20686578206c656e67746820696e73756666696369656e746044820152606401610c3a565b6000818152600183016020526040812054613511575081546001818101845560008481526020808220909301849055845484825282860190935260409020919091556109a7565b5060006109a7565b6000818152600183016020526040812054801561360257600061353d60018361404a565b85549091506000906135519060019061404a565b90508181146135b657600086600001828154811061357157613571614079565b906000526020600020015490508087600001848154811061359457613594614079565b6000918252602080832090910192909255918252600188019052604090208390555b85548690806135c7576135c7614622565b6001900381819060005260206000200160009055905585600101600086815260200190815260200160002060009055600193505050506109a7565b60009150506109a7565b60606119048484600085613694565b600080613627846109ad565b905061231b85828686612330565b8151600090815b81811015611eaa57836001600160a01b031685828151811061366057613660614079565b60200260200101516001600160a01b03161415613682576001925050506109a7565b8061368c816141ca565b91505061363c565b6060824710156136f55760405162461bcd60e51b815260206004820152602660248201527f416464726573733a20696e73756666696369656e742062616c616e636520666f6044820152651c8818d85b1b60d21b6064820152608401610c3a565b6001600160a01b0385163b61374c5760405162461bcd60e51b815260206004820152601d60248201527f416464726573733a2063616c6c20746f206e6f6e2d636f6e74726163740000006044820152606401610c3a565b600080866001600160a01b031685876040516137689190614638565b60006040518083038185875af1925050503d80600081146137a5576040519150601f19603f3d011682016040523d82523d6000602084013e6137aa565b606091505b50915091506137ba8282866137c5565b979650505050505050565b606083156137d457508161168b565b8251156137e45782518084602001fd5b8160405162461bcd60e51b8152600401610c3a9190613a50565b60006020828403121561381057600080fd5b81356001600160e01b03198116811461168b57600080fd5b634e487b7160e01b600052604160045260246000fd5b604051601f8201601f191681016001600160401b038111828210171561386657613866613828565b604052919050565b600082601f83011261387f57600080fd5b81356001600160401b0381111561389857613898613828565b6138ab601f8201601f191660200161383e565b8181528460208386010111156138c057600080fd5b816020850160208301376000918101602001919091529392505050565b6000602082840312156138ef57600080fd5b81356001600160401b0381111561390557600080fd5b6119048482850161386e565b60006020828403121561392357600080fd5b5035919050565b6001600160a01b0381168114611c7e57600080fd5b60006020828403121561395157600080fd5b813561168b8161392a565b80356002811061396b57600080fd5b919050565b60008060006060848603121561398557600080fd5b83356139908161392a565b9250602084013591506139a56040850161395c565b90509250925092565b600080604083850312156139c157600080fd5b8235915060208301356139d38161392a565b809150509250929050565b634e487b7160e01b600052602160045260246000fd5b60028110613a1257634e487b7160e01b600052602160045260246000fd5b9052565b602081016109a782846139f4565b60005b83811015613a3f578181015183820152602001613a27565b83811115611b905750506000910152565b6020815260008251806020840152613a6f816040850160208701613a24565b601f01601f19169190910160400192915050565b60006001600160401b03821115613a9c57613a9c613828565b5060051b60200190565b600082601f830112613ab757600080fd5b81356020613acc613ac783613a83565b61383e565b82815260059290921b84018101918181019086841115613aeb57600080fd5b8286015b84811015612e64578035613b028161392a565b8352918301918301613aef565b600082601f830112613b2057600080fd5b81356020613b30613ac783613a83565b82815260059290921b84018101918181019086841115613b4f57600080fd5b8286015b84811015612e645780358352918301918301613b53565b60008060008060808587031215613b8057600080fd5b8435613b8b8161392a565b935060208501356001600160401b0380821115613ba757600080fd5b613bb388838901613aa6565b94506040870135915080821115613bc957600080fd5b50613bd687828801613b0f565b949793965093946060013593505050565b60008083601f840112613bf957600080fd5b5081356001600160401b03811115613c1057600080fd5b602083019150836020828501011115613c2857600080fd5b9250929050565b600080600080600060808688031215613c4757600080fd5b85356001600160401b0380821115613c5e57600080fd5b613c6a89838a01613b0f565b965060208801359550604088013594506060880135915080821115613c8e57600080fd5b50613c9b88828901613be7565b969995985093965092949392505050565b600080600060408486031215613cc157600080fd5b8335925060208401356001600160401b03811115613cde57600080fd5b613cea86828701613be7565b9497909650939450505050565b60008060008060608587031215613d0d57600080fd5b843593506020850135925060408501356001600160401b03811115613d3157600080fd5b613d3d87828801613be7565b95989497509550505050565b60008060008060008060a08789031215613d6257600080fd5b86356001600160401b0380821115613d7957600080fd5b613d858a838b01613b0f565b97506020890135915080821115613d9b57600080fd5b613da78a838b01613aa6565b96506040890135915080821115613dbd57600080fd5b613dc98a838b01613b0f565b9550606089013594506080890135915080821115613de657600080fd5b50613df389828a01613be7565b979a9699509497509295939492505050565b60008060408385031215613e1857600080fd5b50508035926020909101359150565b60008060008060608587031215613e3d57600080fd5b84356001600160401b0380821115613e5457600080fd5b613e6088838901613b0f565b9550602091508187013581811115613e7757600080fd5b8701601f81018913613e8857600080fd5b8035613e96613ac782613a83565b81815260059190911b8201840190848101908b831115613eb557600080fd5b928501925b82841015613eda57613ecb8461395c565b82529285019290850190613eba565b97505050506040870135915080821115613ef357600080fd5b50613d3d87828801613be7565b60008060408385031215613f1357600080fd5b8235613f1e8161392a565b946020939093013593505050565b60008060008060608587031215613f4257600080fd5b8435613f4d8161392a565b935060208501356001600160401b0380821115613f6957600080fd5b613f758883890161386e565b94506040870135915080821115613ef357600080fd5b600080600060408486031215613fa057600080fd5b83356001600160401b0380821115613fb757600080fd5b613fc387838801613b0f565b94506020860135915080821115613fd957600080fd5b50613cea86828701613be7565b600080600060608486031215613ffb57600080fd5b83356140068161392a565b95602085013595506040909401359392505050565b60006020828403121561402d57600080fd5b5051919050565b634e487b7160e01b600052601160045260246000fd5b60008282101561405c5761405c614034565b500390565b6000821982111561407457614074614034565b500190565b634e487b7160e01b600052603260045260246000fd5b6001600160a01b039390931683526020830191909152604082015260600190565b600081518084526020808501945080840160005b838110156140e95781516001600160a01b0316875295820195908201906001016140c4565b509495945050505050565b600081518084526020808501945080840160005b838110156140e957815187529582019590820190600101614108565b6001600160a01b0385168152608060208201819052600090614148908301866140b0565b828103604084015261415a81866140f4565b91505082606083015295945050505050565b805160009060208084018383156140e957815187529582019590820190600101614108565b6001600160601b03198660601b16815284601482015260006141b6603483018661416c565b938452505060208201526040019392505050565b60006000198214156141de576141de614034565b5060010190565b60609390931b6bffffffffffffffffffffffff191683526014830191909152603482015260540190565b6001600160601b03198760601b1681528560148201526000614234603483018761416c565b8551602080880160005b838110156142635781516001600160a01b03168552938201939082019060010161423e565b505061426f838861416c565b9586529094019998505050505050505050565b6001600160601b03198560601b16815283601482015260006142a7603483018561416c565b8351602080860160005b838110156142d4576142c48583516139f4565b93820193908201906001016142b1565b50929998505050505050505050565b6001600160601b03198460601b168152826014820152600061231b603483018461416c565b60006020828403121561431a57600080fd5b815160ff8116811461168b57600080fd5b600060ff821660ff84168082101561434557614345614034565b90039392505050565b600181815b8085111561438957816000190482111561436f5761436f614034565b8085161561437c57918102915b93841c9390800290614353565b509250929050565b6000826143a0575060016109a7565b816143ad575060006109a7565b81600181146143c357600281146143cd576143e9565b60019150506109a7565b60ff8411156143de576143de614034565b50506001821b6109a7565b5060208310610133831016604e8410600b841016171561440c575081810a6109a7565b614416838361434e565b806000190482111561442a5761442a614034565b029392505050565b600061168b60ff841683614391565b600081600019048311821515161561445b5761445b614034565b500290565b7f416363657373436f6e74726f6c3a206163636f756e7420000000000000000000815260008351614498816017850160208801613a24565b7001034b99036b4b9b9b4b733903937b6329607d1b60179184019182015283516144c9816028840160208801613a24565b01602801949350505050565b6001600160a01b03851681526080602082018190526000906144f9908301866140f4565b828103604084015261450b81866140f4565b905082810360608401526137ba81856140b0565b6001600160a01b038681168252602082018690528416604082015260a0810161454b60608301856139f4565b8260808301529695505050505050565b60006020828403121561456d57600080fd5b8151801515811461168b57600080fd5b6000602080838503121561459057600080fd5b82516001600160401b038111156145a657600080fd5b8301601f810185136145b757600080fd5b80516145c5613ac782613a83565b81815260059190911b820183019083810190878311156145e457600080fd5b928401925b828410156137ba5783516145fc8161392a565b825292840192908401906145e9565b60008161461a5761461a614034565b506000190190565b634e487b7160e01b600052603160045260246000fd5b6000825161464a818460208701613a24565b919091019291505056fedbeb657137b1822b3d5418bea6fd641226d964b4c3871ef23546db2622258871a2646970667358221220e2b4810532ef6de74b10fb774aeb0f27398a5d4f0f6afe67ffbbed6fc1e846c464736f6c63430008090033",
  "devdoc": {
    "kind": "dev",
    "methods": {
      "burn(uint256,uint256,bytes)": {
        "details": "It calls burnByAdmin of STIMinter.",
        "params": {
          "_pool": "total pool in USD",
          "_share": "amount of shares"
        }
      },
      "claim(uint256[],bytes)": {
        "details": "It calls claimByAgent of STIVaults."
      },
      "deposit(uint256[],address[],uint256[],uint256,bytes)": {
        "details": "It calls depositByAgent of STIVaults."
      },
      "exitWithdrawal(uint256,bytes)": {
        "details": "It calls exitWithdrawalByAdmin of STIMinter.",
        "params": {
          "_gatheredAmount": "is the amount of token that is gathered."
        }
      },
      "gather(uint256[],uint8[],bytes)": {
        "details": "It gathers withdrawn tokens of the user from user agents."
      },
      "getMessageHashForSafe(bytes)": {
        "details": "Returns hash of a message that can be signed by owners.",
        "params": {
          "message": "Message that should be hashed"
        },
        "returns": {
          "_0": "Message hash."
        }
      },
      "getRoleAdmin(bytes32)": {
        "details": "Returns the admin role that controls `role`. See {grantRole} and {revokeRole}. To change a role's admin, use {_setRoleAdmin}."
      },
      "getRoleMember(bytes32,uint256)": {
        "details": "Returns one of the accounts that have `role`. `index` must be a value between 0 and {getRoleMemberCount}, non-inclusive. Role bearers are not sorted in any particular way, and their ordering may change at any point. WARNING: When using {getRoleMember} and {getRoleMemberCount}, make sure you perform all queries on the same block. See the following https://forum.openzeppelin.com/t/iterating-over-elements-on-enumerableset-in-openzeppelin-contracts/2296[forum post] for more information."
      },
      "getRoleMemberCount(bytes32)": {
        "details": "Returns the number of accounts that have `role`. Can be used together with {getRoleMember} to enumerate all bearers of a role."
      },
      "grantRole(bytes32,address)": {
        "details": "Grants `role` to `account`. If `account` had not been already granted `role`, emits a {RoleGranted} event. Requirements: - the caller must have ``role``'s admin role."
      },
      "hasRole(bytes32,address)": {
        "details": "Returns `true` if `account` has been granted `role`."
      },
      "mint(uint256,bytes)": {
        "details": "It calls mintByAdmin of STIMinter."
      },
      "owner()": {
        "details": "Returns the address of the current owner."
      },
      "paused()": {
        "details": "Returns true if the contract is paused, and false otherwise."
      },
      "renounceOwnership()": {
        "details": "Leaves the contract without owner. It will not be possible to call `onlyOwner` functions anymore. Can only be called by the current owner. NOTE: Renouncing ownership will leave the contract without an owner, thereby removing any functionality that is only available to the owner."
      },
      "renounceRole(bytes32,address)": {
        "details": "Revokes `role` from the calling account. Roles are often managed via {grantRole} and {revokeRole}: this function's purpose is to provide a mechanism for accounts to lose their privileges if they are compromised (such as when a trusted device is misplaced). If the calling account had been revoked `role`, emits a {RoleRevoked} event. Requirements: - the caller must be `account`."
      },
      "revokeRole(bytes32,address)": {
        "details": "Revokes `role` from `account`. If `account` had been granted `role`, emits a {RoleRevoked} event. Requirements: - the caller must have ``role``'s admin role."
      },
      "supportsInterface(bytes4)": {
        "details": "See {IERC165-supportsInterface}."
      },
      "takeOut(uint256,bytes)": {
        "details": "It takes out tokens from this agent.",
        "params": {
          "_gatheredAmount": "is the amount of token that is gathered."
        }
      },
      "transferOwnership(address)": {
        "details": "Transfers ownership of the contract to a new account (`newOwner`). Can only be called by the current owner."
      },
      "withdraw(uint256[],uint256,uint256,bytes)": {
        "details": "It calls withdrawPercByAgent of STIVaults."
      }
    },
    "version": 1
  },
  "userdoc": {
    "kind": "user",
    "methods": {
      "exitWithdrawal(uint256,bytes)": {
        "notice": "_gatheredAmount doesn't include the balance which is withdrawan in this agent."
      },
      "isTrustedForwarder(address)": {
        "notice": "return if the forwarder is trusted to forward relayed transactions to us. the forwarder is required to verify the sender's signature, and verify the call is not a replay."
      },
      "takeOut(uint256,bytes)": {
        "notice": "_gatheredAmount doesn't include the balance which is withdrawan in this agent."
      }
    },
    "version": 1
  },
  "storageLayout": {
    "storage": [
      {
        "astId": 68220,
        "contract": "contracts/xchain/agent/STIUserAgentSubTest.sol:STIUserAgentSubTest",
        "label": "trustedForwarder",
        "offset": 0,
        "slot": "0",
        "type": "t_address"
      },
      {
        "astId": 713,
        "contract": "contracts/xchain/agent/STIUserAgentSubTest.sol:STIUserAgentSubTest",
        "label": "_initialized",
        "offset": 20,
        "slot": "0",
        "type": "t_uint8"
      },
      {
        "astId": 716,
        "contract": "contracts/xchain/agent/STIUserAgentSubTest.sol:STIUserAgentSubTest",
        "label": "_initializing",
        "offset": 21,
        "slot": "0",
        "type": "t_bool"
      },
      {
        "astId": 68760,
        "contract": "contracts/xchain/agent/STIUserAgentSubTest.sol:STIUserAgentSubTest",
        "label": "separator",
        "offset": 0,
        "slot": "1",
        "type": "t_bytes32"
      },
      {
        "astId": 69177,
        "contract": "contracts/xchain/agent/STIUserAgentSubTest.sol:STIUserAgentSubTest",
        "label": "__gap",
        "offset": 0,
        "slot": "2",
        "type": "t_array(t_uint256)49_storage"
      },
      {
        "astId": 3292,
        "contract": "contracts/xchain/agent/STIUserAgentSubTest.sol:STIUserAgentSubTest",
        "label": "__gap",
        "offset": 0,
        "slot": "51",
        "type": "t_array(t_uint256)50_storage"
      },
      {
        "astId": 3946,
        "contract": "contracts/xchain/agent/STIUserAgentSubTest.sol:STIUserAgentSubTest",
        "label": "__gap",
        "offset": 0,
        "slot": "101",
        "type": "t_array(t_uint256)50_storage"
      },
      {
        "astId": 184,
        "contract": "contracts/xchain/agent/STIUserAgentSubTest.sol:STIUserAgentSubTest",
        "label": "_roles",
        "offset": 0,
        "slot": "151",
        "type": "t_mapping(t_bytes32,t_struct(RoleData)179_storage)"
      },
      {
        "astId": 483,
        "contract": "contracts/xchain/agent/STIUserAgentSubTest.sol:STIUserAgentSubTest",
        "label": "__gap",
        "offset": 0,
        "slot": "152",
        "type": "t_array(t_uint256)49_storage"
      },
      {
        "astId": 33,
        "contract": "contracts/xchain/agent/STIUserAgentSubTest.sol:STIUserAgentSubTest",
        "label": "_roleMembers",
        "offset": 0,
        "slot": "201",
        "type": "t_mapping(t_bytes32,t_struct(AddressSet)4359_storage)"
      },
      {
        "astId": 143,
        "contract": "contracts/xchain/agent/STIUserAgentSubTest.sol:STIUserAgentSubTest",
        "label": "__gap",
        "offset": 0,
        "slot": "202",
        "type": "t_array(t_uint256)49_storage"
      },
      {
        "astId": 869,
        "contract": "contracts/xchain/agent/STIUserAgentSubTest.sol:STIUserAgentSubTest",
        "label": "_paused",
        "offset": 0,
        "slot": "251",
        "type": "t_bool"
      },
      {
        "astId": 958,
        "contract": "contracts/xchain/agent/STIUserAgentSubTest.sol:STIUserAgentSubTest",
        "label": "__gap",
        "offset": 0,
        "slot": "252",
        "type": "t_array(t_uint256)49_storage"
      },
      {
        "astId": 593,
        "contract": "contracts/xchain/agent/STIUserAgentSubTest.sol:STIUserAgentSubTest",
        "label": "_owner",
        "offset": 0,
        "slot": "301",
        "type": "t_address"
      },
      {
        "astId": 705,
        "contract": "contracts/xchain/agent/STIUserAgentSubTest.sol:STIUserAgentSubTest",
        "label": "__gap",
        "offset": 0,
        "slot": "302",
        "type": "t_array(t_uint256)49_storage"
      },
      {
        "astId": 59577,
        "contract": "contracts/xchain/agent/STIUserAgentSubTest.sol:STIUserAgentSubTest",
        "label": "admin",
        "offset": 0,
        "slot": "351",
        "type": "t_address"
      },
      {
        "astId": 59581,
        "contract": "contracts/xchain/agent/STIUserAgentSubTest.sol:STIUserAgentSubTest",
        "label": "nonces",
        "offset": 0,
        "slot": "352",
        "type": "t_mapping(t_address,t_uint256)"
      },
      {
        "astId": 59584,
        "contract": "contracts/xchain/agent/STIUserAgentSubTest.sol:STIUserAgentSubTest",
        "label": "swap",
        "offset": 0,
        "slot": "353",
        "type": "t_contract(ISwap)56041"
      },
      {
        "astId": 59587,
        "contract": "contracts/xchain/agent/STIUserAgentSubTest.sol:STIUserAgentSubTest",
        "label": "USDC",
        "offset": 0,
        "slot": "354",
        "type": "t_contract(IERC20Upgradeable)1707"
      },
      {
        "astId": 59590,
        "contract": "contracts/xchain/agent/STIUserAgentSubTest.sol:STIUserAgentSubTest",
        "label": "USDT",
        "offset": 0,
        "slot": "355",
        "type": "t_contract(IERC20Upgradeable)1707"
      },
      {
        "astId": 59594,
        "contract": "contracts/xchain/agent/STIUserAgentSubTest.sol:STIUserAgentSubTest",
        "label": "usdcBalances",
        "offset": 0,
        "slot": "356",
        "type": "t_mapping(t_address,t_uint256)"
      },
      {
        "astId": 59598,
        "contract": "contracts/xchain/agent/STIUserAgentSubTest.sol:STIUserAgentSubTest",
        "label": "usdtBalances",
        "offset": 0,
        "slot": "357",
        "type": "t_mapping(t_address,t_uint256)"
      },
      {
        "astId": 59601,
        "contract": "contracts/xchain/agent/STIUserAgentSubTest.sol:STIUserAgentSubTest",
        "label": "multichainAdapter",
        "offset": 0,
        "slot": "358",
        "type": "t_contract(IXChainAdapter)56345"
      },
      {
        "astId": 59604,
        "contract": "contracts/xchain/agent/STIUserAgentSubTest.sol:STIUserAgentSubTest",
        "label": "cbridgeAdapter",
        "offset": 0,
        "slot": "359",
        "type": "t_contract(IXChainAdapter)56345"
      },
      {
        "astId": 59608,
        "contract": "contracts/xchain/agent/STIUserAgentSubTest.sol:STIUserAgentSubTest",
        "label": "cbridgeSenders",
        "offset": 0,
        "slot": "360",
        "type": "t_mapping(t_uint256,t_address)"
      },
      {
        "astId": 59612,
        "contract": "contracts/xchain/agent/STIUserAgentSubTest.sol:STIUserAgentSubTest",
        "label": "userAgents",
        "offset": 0,
        "slot": "361",
        "type": "t_mapping(t_uint256,t_address)"
      },
      {
        "astId": 59617,
        "contract": "contracts/xchain/agent/STIUserAgentSubTest.sol:STIUserAgentSubTest",
        "label": "callAdapterTypes",
        "offset": 0,
        "slot": "362",
        "type": "t_mapping(t_uint256,t_enum(AdapterType)59570)"
      },
      {
        "astId": 60253,
        "contract": "contracts/xchain/agent/STIUserAgentSubTest.sol:STIUserAgentSubTest",
        "label": "__gap",
        "offset": 0,
        "slot": "363",
        "type": "t_array(t_uint256)39_storage"
      },
      {
        "astId": 61208,
        "contract": "contracts/xchain/agent/STIUserAgentSubTest.sol:STIUserAgentSubTest",
        "label": "chainIdOnLP",
        "offset": 0,
        "slot": "402",
        "type": "t_uint256"
      },
      {
        "astId": 61210,
        "contract": "contracts/xchain/agent/STIUserAgentSubTest.sol:STIUserAgentSubTest",
        "label": "isLPChain",
        "offset": 0,
        "slot": "403",
        "type": "t_bool"
      },
      {
        "astId": 61213,
        "contract": "contracts/xchain/agent/STIUserAgentSubTest.sol:STIUserAgentSubTest",
        "label": "stiMinter",
        "offset": 1,
        "slot": "403",
        "type": "t_contract(ISTIMinter)44167"
      },
      {
        "astId": 61216,
        "contract": "contracts/xchain/agent/STIUserAgentSubTest.sol:STIUserAgentSubTest",
        "label": "stiVault",
        "offset": 0,
        "slot": "404",
        "type": "t_contract(ISTIVault)44224"
      },
      {
        "astId": 61218,
        "contract": "contracts/xchain/agent/STIUserAgentSubTest.sol:STIUserAgentSubTest",
        "label": "subImpl",
        "offset": 0,
        "slot": "405",
        "type": "t_address"
      }
    ],
    "types": {
      "t_address": {
        "encoding": "inplace",
        "label": "address",
        "numberOfBytes": "20"
      },
      "t_array(t_bytes32)dyn_storage": {
        "base": "t_bytes32",
        "encoding": "dynamic_array",
        "label": "bytes32[]",
        "numberOfBytes": "32"
      },
      "t_array(t_uint256)39_storage": {
        "base": "t_uint256",
        "encoding": "inplace",
        "label": "uint256[39]",
        "numberOfBytes": "1248"
      },
      "t_array(t_uint256)49_storage": {
        "base": "t_uint256",
        "encoding": "inplace",
        "label": "uint256[49]",
        "numberOfBytes": "1568"
      },
      "t_array(t_uint256)50_storage": {
        "base": "t_uint256",
        "encoding": "inplace",
        "label": "uint256[50]",
        "numberOfBytes": "1600"
      },
      "t_bool": {
        "encoding": "inplace",
        "label": "bool",
        "numberOfBytes": "1"
      },
      "t_bytes32": {
        "encoding": "inplace",
        "label": "bytes32",
        "numberOfBytes": "32"
      },
      "t_contract(IERC20Upgradeable)1707": {
        "encoding": "inplace",
        "label": "contract IERC20Upgradeable",
        "numberOfBytes": "20"
      },
      "t_contract(ISTIMinter)44167": {
        "encoding": "inplace",
        "label": "contract ISTIMinter",
        "numberOfBytes": "20"
      },
      "t_contract(ISTIVault)44224": {
        "encoding": "inplace",
        "label": "contract ISTIVault",
        "numberOfBytes": "20"
      },
      "t_contract(ISwap)56041": {
        "encoding": "inplace",
        "label": "contract ISwap",
        "numberOfBytes": "20"
      },
      "t_contract(IXChainAdapter)56345": {
        "encoding": "inplace",
        "label": "contract IXChainAdapter",
        "numberOfBytes": "20"
      },
      "t_enum(AdapterType)59570": {
        "encoding": "inplace",
        "label": "enum BasicUserAgentBase.AdapterType",
        "numberOfBytes": "1"
      },
      "t_mapping(t_address,t_bool)": {
        "encoding": "mapping",
        "key": "t_address",
        "label": "mapping(address => bool)",
        "numberOfBytes": "32",
        "value": "t_bool"
      },
      "t_mapping(t_address,t_uint256)": {
        "encoding": "mapping",
        "key": "t_address",
        "label": "mapping(address => uint256)",
        "numberOfBytes": "32",
        "value": "t_uint256"
      },
      "t_mapping(t_bytes32,t_struct(AddressSet)4359_storage)": {
        "encoding": "mapping",
        "key": "t_bytes32",
        "label": "mapping(bytes32 => struct EnumerableSetUpgradeable.AddressSet)",
        "numberOfBytes": "32",
        "value": "t_struct(AddressSet)4359_storage"
      },
      "t_mapping(t_bytes32,t_struct(RoleData)179_storage)": {
        "encoding": "mapping",
        "key": "t_bytes32",
        "label": "mapping(bytes32 => struct AccessControlUpgradeable.RoleData)",
        "numberOfBytes": "32",
        "value": "t_struct(RoleData)179_storage"
      },
      "t_mapping(t_bytes32,t_uint256)": {
        "encoding": "mapping",
        "key": "t_bytes32",
        "label": "mapping(bytes32 => uint256)",
        "numberOfBytes": "32",
        "value": "t_uint256"
      },
      "t_mapping(t_uint256,t_address)": {
        "encoding": "mapping",
        "key": "t_uint256",
        "label": "mapping(uint256 => address)",
        "numberOfBytes": "32",
        "value": "t_address"
      },
      "t_mapping(t_uint256,t_enum(AdapterType)59570)": {
        "encoding": "mapping",
        "key": "t_uint256",
        "label": "mapping(uint256 => enum BasicUserAgentBase.AdapterType)",
        "numberOfBytes": "32",
        "value": "t_enum(AdapterType)59570"
      },
      "t_struct(AddressSet)4359_storage": {
        "encoding": "inplace",
        "label": "struct EnumerableSetUpgradeable.AddressSet",
        "members": [
          {
            "astId": 4358,
            "contract": "contracts/xchain/agent/STIUserAgentSubTest.sol:STIUserAgentSubTest",
            "label": "_inner",
            "offset": 0,
            "slot": "0",
            "type": "t_struct(Set)4058_storage"
          }
        ],
        "numberOfBytes": "64"
      },
      "t_struct(RoleData)179_storage": {
        "encoding": "inplace",
        "label": "struct AccessControlUpgradeable.RoleData",
        "members": [
          {
            "astId": 176,
            "contract": "contracts/xchain/agent/STIUserAgentSubTest.sol:STIUserAgentSubTest",
            "label": "members",
            "offset": 0,
            "slot": "0",
            "type": "t_mapping(t_address,t_bool)"
          },
          {
            "astId": 178,
            "contract": "contracts/xchain/agent/STIUserAgentSubTest.sol:STIUserAgentSubTest",
            "label": "adminRole",
            "offset": 0,
            "slot": "1",
            "type": "t_bytes32"
          }
        ],
        "numberOfBytes": "64"
      },
      "t_struct(Set)4058_storage": {
        "encoding": "inplace",
        "label": "struct EnumerableSetUpgradeable.Set",
        "members": [
          {
            "astId": 4053,
            "contract": "contracts/xchain/agent/STIUserAgentSubTest.sol:STIUserAgentSubTest",
            "label": "_values",
            "offset": 0,
            "slot": "0",
            "type": "t_array(t_bytes32)dyn_storage"
          },
          {
            "astId": 4057,
            "contract": "contracts/xchain/agent/STIUserAgentSubTest.sol:STIUserAgentSubTest",
            "label": "_indexes",
            "offset": 0,
            "slot": "1",
            "type": "t_mapping(t_bytes32,t_uint256)"
          }
        ],
        "numberOfBytes": "64"
      },
      "t_uint256": {
        "encoding": "inplace",
        "label": "uint256",
        "numberOfBytes": "32"
      },
      "t_uint8": {
        "encoding": "inplace",
        "label": "uint8",
        "numberOfBytes": "1"
      }
    }
  }
}