{
  "address": "0x4d1bc6A0E740af7dCbE69afA753bEcdfa7726b97",
  "abi": [
    {
      "anonymous": false,
      "inputs": [
        {
          "indexed": true,
          "internalType": "address",
          "name": "owner",
          "type": "address"
        },
        {
          "indexed": true,
          "internalType": "address",
          "name": "approved",
          "type": "address"
        },
        {
          "indexed": true,
          "internalType": "uint256",
          "name": "tokenId",
          "type": "uint256"
        }
      ],
      "name": "Approval",
      "type": "event"
    },
    {
      "anonymous": false,
      "inputs": [
        {
          "indexed": true,
          "internalType": "address",
          "name": "owner",
          "type": "address"
        },
        {
          "indexed": true,
          "internalType": "address",
          "name": "operator",
          "type": "address"
        },
        {
          "indexed": false,
          "internalType": "bool",
          "name": "approved",
          "type": "bool"
        }
      ],
      "name": "ApprovalForAll",
      "type": "event"
    },
    {
      "anonymous": false,
      "inputs": [
        {
          "indexed": false,
          "internalType": "uint8",
          "name": "version",
          "type": "uint8"
        }
      ],
      "name": "Initialized",
      "type": "event"
    },
    {
      "anonymous": false,
      "inputs": [
        {
          "indexed": true,
          "internalType": "address",
          "name": "previousOwner",
          "type": "address"
        },
        {
          "indexed": true,
          "internalType": "address",
          "name": "newOwner",
          "type": "address"
        }
      ],
      "name": "OwnershipTransferred",
      "type": "event"
    },
    {
      "anonymous": false,
      "inputs": [
        {
          "indexed": true,
          "internalType": "address",
          "name": "from",
          "type": "address"
        },
        {
          "indexed": true,
          "internalType": "address",
          "name": "to",
          "type": "address"
        },
        {
          "indexed": true,
          "internalType": "uint256",
          "name": "tokenId",
          "type": "uint256"
        }
      ],
      "name": "Transfer",
      "type": "event"
    },
    {
      "inputs": [
        {
          "internalType": "address",
          "name": "to",
          "type": "address"
        },
        {
          "internalType": "uint256",
          "name": "tokenId",
          "type": "uint256"
        }
      ],
      "name": "approve",
      "outputs": [],
      "stateMutability": "nonpayable",
      "type": "function"
    },
    {
      "inputs": [
        {
          "internalType": "address",
          "name": "owner",
          "type": "address"
        }
      ],
      "name": "balanceOf",
      "outputs": [
        {
          "internalType": "uint256",
          "name": "",
          "type": "uint256"
        }
      ],
      "stateMutability": "view",
      "type": "function"
    },
    {
      "inputs": [
        {
          "internalType": "uint256",
          "name": "_tokenId",
          "type": "uint256"
        }
      ],
      "name": "burn",
      "outputs": [],
      "stateMutability": "nonpayable",
      "type": "function"
    },
    {
      "inputs": [
        {
          "internalType": "uint256",
          "name": "_tokenId",
          "type": "uint256"
        }
      ],
      "name": "exists",
      "outputs": [
        {
          "internalType": "bool",
          "name": "",
          "type": "bool"
        }
      ],
      "stateMutability": "view",
      "type": "function"
    },
    {
      "inputs": [
        {
          "internalType": "uint256",
          "name": "tokenId",
          "type": "uint256"
        }
      ],
      "name": "getApproved",
      "outputs": [
        {
          "internalType": "address",
          "name": "",
          "type": "address"
        }
      ],
      "stateMutability": "view",
      "type": "function"
    },
    {
      "inputs": [
        {
          "internalType": "string",
          "name": "_name",
          "type": "string"
        },
        {
          "internalType": "string",
          "name": "_symbol",
          "type": "string"
        },
        {
          "internalType": "address",
          "name": "_stVault",
          "type": "address"
        }
      ],
      "name": "initialize",
      "outputs": [],
      "stateMutability": "nonpayable",
      "type": "function"
    },
    {
      "inputs": [
        {
          "internalType": "address",
          "name": "owner",
          "type": "address"
        },
        {
          "internalType": "address",
          "name": "operator",
          "type": "address"
        }
      ],
      "name": "isApprovedForAll",
      "outputs": [
        {
          "internalType": "bool",
          "name": "",
          "type": "bool"
        }
      ],
      "stateMutability": "view",
      "type": "function"
    },
    {
      "inputs": [
        {
          "internalType": "address",
          "name": "_spender",
          "type": "address"
        },
        {
          "internalType": "uint256",
          "name": "_tokenId",
          "type": "uint256"
        }
      ],
      "name": "isApprovedOrOwner",
      "outputs": [
        {
          "internalType": "bool",
          "name": "",
          "type": "bool"
        }
      ],
      "stateMutability": "view",
      "type": "function"
    },
    {
      "inputs": [
        {
          "internalType": "address",
          "name": "_to",
          "type": "address"
        }
      ],
      "name": "mint",
      "outputs": [
        {
          "internalType": "uint256",
          "name": "",
          "type": "uint256"
        }
      ],
      "stateMutability": "nonpayable",
      "type": "function"
    },
    {
      "inputs": [],
      "name": "name",
      "outputs": [
        {
          "internalType": "string",
          "name": "",
          "type": "string"
        }
      ],
      "stateMutability": "view",
      "type": "function"
    },
    {
      "inputs": [],
      "name": "owner",
      "outputs": [
        {
          "internalType": "address",
          "name": "",
          "type": "address"
        }
      ],
      "stateMutability": "view",
      "type": "function"
    },
    {
      "inputs": [
        {
          "internalType": "uint256",
          "name": "tokenId",
          "type": "uint256"
        }
      ],
      "name": "ownerOf",
      "outputs": [
        {
          "internalType": "address",
          "name": "",
          "type": "address"
        }
      ],
      "stateMutability": "view",
      "type": "function"
    },
    {
      "inputs": [],
      "name": "renounceOwnership",
      "outputs": [],
      "stateMutability": "nonpayable",
      "type": "function"
    },
    {
      "inputs": [
        {
          "internalType": "address",
          "name": "from",
          "type": "address"
        },
        {
          "internalType": "address",
          "name": "to",
          "type": "address"
        },
        {
          "internalType": "uint256",
          "name": "tokenId",
          "type": "uint256"
        }
      ],
      "name": "safeTransferFrom",
      "outputs": [],
      "stateMutability": "nonpayable",
      "type": "function"
    },
    {
      "inputs": [
        {
          "internalType": "address",
          "name": "from",
          "type": "address"
        },
        {
          "internalType": "address",
          "name": "to",
          "type": "address"
        },
        {
          "internalType": "uint256",
          "name": "tokenId",
          "type": "uint256"
        },
        {
          "internalType": "bytes",
          "name": "_data",
          "type": "bytes"
        }
      ],
      "name": "safeTransferFrom",
      "outputs": [],
      "stateMutability": "nonpayable",
      "type": "function"
    },
    {
      "inputs": [
        {
          "internalType": "address",
          "name": "operator",
          "type": "address"
        },
        {
          "internalType": "bool",
          "name": "approved",
          "type": "bool"
        }
      ],
      "name": "setApprovalForAll",
      "outputs": [],
      "stateMutability": "nonpayable",
      "type": "function"
    },
    {
      "inputs": [
        {
          "internalType": "address",
          "name": "_stVault",
          "type": "address"
        }
      ],
      "name": "setStVault",
      "outputs": [],
      "stateMutability": "nonpayable",
      "type": "function"
    },
    {
      "inputs": [],
      "name": "stVault",
      "outputs": [
        {
          "internalType": "address",
          "name": "",
          "type": "address"
        }
      ],
      "stateMutability": "view",
      "type": "function"
    },
    {
      "inputs": [
        {
          "internalType": "bytes4",
          "name": "interfaceId",
          "type": "bytes4"
        }
      ],
      "name": "supportsInterface",
      "outputs": [
        {
          "internalType": "bool",
          "name": "",
          "type": "bool"
        }
      ],
      "stateMutability": "view",
      "type": "function"
    },
    {
      "inputs": [],
      "name": "symbol",
      "outputs": [
        {
          "internalType": "string",
          "name": "",
          "type": "string"
        }
      ],
      "stateMutability": "view",
      "type": "function"
    },
    {
      "inputs": [],
      "name": "tokenIdIndex",
      "outputs": [
        {
          "internalType": "uint256",
          "name": "",
          "type": "uint256"
        }
      ],
      "stateMutability": "view",
      "type": "function"
    },
    {
      "inputs": [
        {
          "internalType": "uint256",
          "name": "tokenId",
          "type": "uint256"
        }
      ],
      "name": "tokenURI",
      "outputs": [
        {
          "internalType": "string",
          "name": "",
          "type": "string"
        }
      ],
      "stateMutability": "view",
      "type": "function"
    },
    {
      "inputs": [],
      "name": "totalSupply",
      "outputs": [
        {
          "internalType": "uint256",
          "name": "",
          "type": "uint256"
        }
      ],
      "stateMutability": "view",
      "type": "function"
    },
    {
      "inputs": [
        {
          "internalType": "address",
          "name": "from",
          "type": "address"
        },
        {
          "internalType": "address",
          "name": "to",
          "type": "address"
        },
        {
          "internalType": "uint256",
          "name": "tokenId",
          "type": "uint256"
        }
      ],
      "name": "transferFrom",
      "outputs": [],
      "stateMutability": "nonpayable",
      "type": "function"
    },
    {
      "inputs": [
        {
          "internalType": "address",
          "name": "newOwner",
          "type": "address"
        }
      ],
      "name": "transferOwnership",
      "outputs": [],
      "stateMutability": "nonpayable",
      "type": "function"
    }
  ],
  "transactionHash": "0x35f70b240024b635687bebeb7dd14920d94d6f921d3ccd5327b9ea55430afc5d",
  "args": [],
  "numDeployments": 1,
  "solcInputHash": "edcae27c6a79eea11083dd34b02ab1f5",
  "bytecode": "0x608060405234801561001057600080fd5b50611c3f806100206000396000f3fe608060405234801561001057600080fd5b50600436106101735760003560e01c80634f558e79116100de5780638da5cb5b11610097578063b88d4fde11610071578063b88d4fde1461031a578063c87b56dd1461032d578063e985e9c514610340578063f2fde38b1461037c57600080fd5b80638da5cb5b146102ee57806395d89b41146102ff578063a22cb4651461030757600080fd5b80634f558e79146102915780636352211e146102a45780636a627842146102b75780636d5a7411146102ca57806370a08231146102d3578063715018a6146102e657600080fd5b806323b872dd1161013057806323b872dd1461021f578063297d0e4c14610232578063389b3f951461024557806342842e0e1461025857806342966c681461026b578063430c20811461027e57600080fd5b806301ffc9a71461017857806306fdde03146101a0578063077f224a146101b5578063081812fc146101ca578063095ea7b3146101f557806318160ddd14610208575b600080fd5b61018b6101863660046115c5565b61038f565b60405190151581526020015b60405180910390f35b6101a86103e1565b604051610197919061163a565b6101c86101c3366004611710565b610473565b005b6101dd6101d8366004611784565b610510565b6040516001600160a01b039091168152602001610197565b6101c861020336600461179d565b6105aa565b61021160cb5481565b604051908152602001610197565b6101c861022d3660046117c7565b6106c0565b6101c8610240366004611803565b6106f1565b60c9546101dd906001600160a01b031681565b6101c86102663660046117c7565b61073d565b6101c8610279366004611784565b610758565b61018b61028c36600461179d565b6107be565b61018b61029f366004611784565b6107d1565b6101dd6102b2366004611784565b6107f0565b6102116102c5366004611803565b610867565b61021160ca5481565b6102116102e1366004611803565b6108eb565b6101c8610972565b6097546001600160a01b03166101dd565b6101a86109a8565b6101c861031536600461181e565b6109b7565b6101c861032836600461185a565b6109c6565b6101a861033b366004611784565b6109f8565b61018b61034e3660046118d6565b6001600160a01b039182166000908152606a6020908152604080832093909416825291909152205460ff1690565b6101c861038a366004611803565b610adf565b60006001600160e01b031982166380ac58cd60e01b14806103c057506001600160e01b03198216635b5e139f60e01b145b806103db57506301ffc9a760e01b6001600160e01b03198316145b92915050565b6060606580546103f090611909565b80601f016020809104026020016040519081016040528092919081815260200182805461041c90611909565b80156104695780601f1061043e57610100808354040283529160200191610469565b820191906000526020600020905b81548152906001019060200180831161044c57829003601f168201915b5050505050905090565b600061047f6001610b77565b90508015610497576000805461ff0019166101001790555b61049f610bff565b6104a98484610c2f565b60c980546001600160a01b0319166001600160a01b038416179055801561050a576000805461ff0019169055604051600181527f7f26b83ff96e1f2b6a682f133852f6798a09c465da95921460cefb38474024989060200160405180910390a15b50505050565b6000818152606760205260408120546001600160a01b031661058e5760405162461bcd60e51b815260206004820152602c60248201527f4552433732313a20617070726f76656420717565727920666f72206e6f6e657860448201526b34b9ba32b73a103a37b5b2b760a11b60648201526084015b60405180910390fd5b506000908152606960205260409020546001600160a01b031690565b60006105b5826107f0565b9050806001600160a01b0316836001600160a01b031614156106235760405162461bcd60e51b815260206004820152602160248201527f4552433732313a20617070726f76616c20746f2063757272656e74206f776e656044820152603960f91b6064820152608401610585565b336001600160a01b038216148061063f575061063f813361034e565b6106b15760405162461bcd60e51b815260206004820152603860248201527f4552433732313a20617070726f76652063616c6c6572206973206e6f74206f7760448201527f6e6572206e6f7220617070726f76656420666f7220616c6c00000000000000006064820152608401610585565b6106bb8383610c7d565b505050565b6106ca3382610ceb565b6106e65760405162461bcd60e51b815260040161058590611944565b6106bb838383610de2565b6097546001600160a01b0316331461071b5760405162461bcd60e51b815260040161058590611995565b60c980546001600160a01b0319166001600160a01b0392909216919091179055565b6106bb838383604051806020016040528060008152506109c6565b60c9546001600160a01b031633146107b25760405162461bcd60e51b815260206004820152601e60248201527f43616c6c6572206973206e6f742073745661756c7420636f6e747261637400006044820152606401610585565b6107bb81610f84565b50565b60006107ca8383610ceb565b9392505050565b6000818152606760205260408120546001600160a01b031615156103db565b6000818152606760205260408120546001600160a01b0316806103db5760405162461bcd60e51b815260206004820152602960248201527f4552433732313a206f776e657220717565727920666f72206e6f6e657869737460448201526832b73a103a37b5b2b760b91b6064820152608401610585565b60c9546000906001600160a01b031633146108c45760405162461bcd60e51b815260206004820152601e60248201527f43616c6c6572206973206e6f742073745661756c7420636f6e747261637400006044820152606401610585565b60ca54806108d1816119e0565b9150506108de8382611027565b60ca81905590505b919050565b60006001600160a01b0382166109565760405162461bcd60e51b815260206004820152602a60248201527f4552433732313a2062616c616e636520717565727920666f7220746865207a65604482015269726f206164647265737360b01b6064820152608401610585565b506001600160a01b031660009081526068602052604090205490565b6097546001600160a01b0316331461099c5760405162461bcd60e51b815260040161058590611995565b6109a66000611171565b565b6060606680546103f090611909565b6109c23383836111c3565b5050565b6109d03383610ceb565b6109ec5760405162461bcd60e51b815260040161058590611944565b61050a84848484611292565b6000818152606760205260409020546060906001600160a01b0316610a775760405162461bcd60e51b815260206004820152602f60248201527f4552433732314d657461646174613a2055524920717565727920666f72206e6f60448201526e3732bc34b9ba32b73a103a37b5b2b760891b6064820152608401610585565b6000610a8e60408051602081019091526000815290565b90506000815111610aae57604051806020016040528060008152506107ca565b80610ab8846112c5565b604051602001610ac99291906119fb565b6040516020818303038152906040529392505050565b6097546001600160a01b03163314610b095760405162461bcd60e51b815260040161058590611995565b6001600160a01b038116610b6e5760405162461bcd60e51b815260206004820152602660248201527f4f776e61626c653a206e6577206f776e657220697320746865207a65726f206160448201526564647265737360d01b6064820152608401610585565b6107bb81611171565b60008054610100900460ff1615610bbe578160ff166001148015610b9a5750303b155b610bb65760405162461bcd60e51b815260040161058590611a2a565b506000919050565b60005460ff808416911610610be55760405162461bcd60e51b815260040161058590611a2a565b506000805460ff191660ff92909216919091179055600190565b600054610100900460ff16610c265760405162461bcd60e51b815260040161058590611a78565b6109a633611171565b600054610100900460ff16610c565760405162461bcd60e51b815260040161058590611a78565b8151610c69906065906020850190611516565b5080516106bb906066906020840190611516565b600081815260696020526040902080546001600160a01b0319166001600160a01b0384169081179091558190610cb2826107f0565b6001600160a01b03167f8c5be1e5ebec7d5bd14f71427d1e84f3dd0314c0f7b2291e5b200ac8c7c3b92560405160405180910390a45050565b6000818152606760205260408120546001600160a01b0316610d645760405162461bcd60e51b815260206004820152602c60248201527f4552433732313a206f70657261746f7220717565727920666f72206e6f6e657860448201526b34b9ba32b73a103a37b5b2b760a11b6064820152608401610585565b6000610d6f836107f0565b9050806001600160a01b0316846001600160a01b03161480610db657506001600160a01b038082166000908152606a602090815260408083209388168352929052205460ff165b80610dda5750836001600160a01b0316610dcf84610510565b6001600160a01b0316145b949350505050565b826001600160a01b0316610df5826107f0565b6001600160a01b031614610e595760405162461bcd60e51b815260206004820152602560248201527f4552433732313a207472616e736665722066726f6d20696e636f72726563742060448201526437bbb732b960d91b6064820152608401610585565b6001600160a01b038216610ebb5760405162461bcd60e51b8152602060048201526024808201527f4552433732313a207472616e7366657220746f20746865207a65726f206164646044820152637265737360e01b6064820152608401610585565b610ec6600082610c7d565b6001600160a01b0383166000908152606860205260408120805460019290610eef908490611ac3565b90915550506001600160a01b0382166000908152606860205260408120805460019290610f1d908490611ada565b909155505060008181526067602052604080822080546001600160a01b0319166001600160a01b0386811691821790925591518493918716917fddf252ad1be2c89b69c2b068fc378daa952ba7f163c4a11628f55a4df523b3ef91a46106bb8383836113c3565b6000610f8f826107f0565b9050610f9c600083610c7d565b6001600160a01b0381166000908152606860205260408120805460019290610fc5908490611ac3565b909155505060008281526067602052604080822080546001600160a01b0319169055518391906001600160a01b038416907fddf252ad1be2c89b69c2b068fc378daa952ba7f163c4a11628f55a4df523b3ef908390a46109c2816000846113c3565b6001600160a01b03821661107d5760405162461bcd60e51b815260206004820181905260248201527f4552433732313a206d696e7420746f20746865207a65726f20616464726573736044820152606401610585565b6000818152606760205260409020546001600160a01b0316156110e25760405162461bcd60e51b815260206004820152601c60248201527f4552433732313a20746f6b656e20616c7265616479206d696e746564000000006044820152606401610585565b6001600160a01b038216600090815260686020526040812080546001929061110b908490611ada565b909155505060008181526067602052604080822080546001600160a01b0319166001600160a01b03861690811790915590518392907fddf252ad1be2c89b69c2b068fc378daa952ba7f163c4a11628f55a4df523b3ef908290a46109c2600083836113c3565b609780546001600160a01b038381166001600160a01b0319831681179093556040519116919082907f8be0079c531659141344cd1fd0a4f28419497f9722a3daafe3b4186f6b6457e090600090a35050565b816001600160a01b0316836001600160a01b031614156112255760405162461bcd60e51b815260206004820152601960248201527f4552433732313a20617070726f766520746f2063616c6c6572000000000000006044820152606401610585565b6001600160a01b038381166000818152606a6020908152604080832094871680845294825291829020805460ff191686151590811790915591519182527f17307eab39ab6107e8899845ad3d59bd9653f200f220920489ca2b5937696c31910160405180910390a3505050565b61129d848484610de2565b6112a984848484611409565b61050a5760405162461bcd60e51b815260040161058590611af2565b6060816112e95750506040805180820190915260018152600360fc1b602082015290565b8160005b811561131357806112fd816119e0565b915061130c9050600a83611b5a565b91506112ed565b60008167ffffffffffffffff81111561132e5761132e61164d565b6040519080825280601f01601f191660200182016040528015611358576020820181803683370190505b5090505b8415610dda5761136d600183611ac3565b915061137a600a86611b6e565b611385906030611ada565b60f81b81838151811061139a5761139a611b82565b60200101906001600160f81b031916908160001a9053506113bc600a86611b5a565b945061135c565b6001600160a01b0383166113eb5760cb80549060006113e1836119e0565b9190505550505050565b6001600160a01b0382166106bb5760cb80549060006113e183611b98565b60006001600160a01b0384163b1561150b57604051630a85bd0160e11b81526001600160a01b0385169063150b7a029061144d903390899088908890600401611baf565b602060405180830381600087803b15801561146757600080fd5b505af1925050508015611497575060408051601f3d908101601f1916820190925261149491810190611bec565b60015b6114f1573d8080156114c5576040519150601f19603f3d011682016040523d82523d6000602084013e6114ca565b606091505b5080516114e95760405162461bcd60e51b815260040161058590611af2565b805181602001fd5b6001600160e01b031916630a85bd0160e11b149050610dda565b506001949350505050565b82805461152290611909565b90600052602060002090601f016020900481019282611544576000855561158a565b82601f1061155d57805160ff191683800117855561158a565b8280016001018555821561158a579182015b8281111561158a57825182559160200191906001019061156f565b5061159692915061159a565b5090565b5b80821115611596576000815560010161159b565b6001600160e01b0319811681146107bb57600080fd5b6000602082840312156115d757600080fd5b81356107ca816115af565b60005b838110156115fd5781810151838201526020016115e5565b8381111561050a5750506000910152565b600081518084526116268160208601602086016115e2565b601f01601f19169290920160200192915050565b6020815260006107ca602083018461160e565b634e487b7160e01b600052604160045260246000fd5b600067ffffffffffffffff8084111561167e5761167e61164d565b604051601f8501601f19908116603f011681019082821181831017156116a6576116a661164d565b816040528093508581528686860111156116bf57600080fd5b858560208301376000602087830101525050509392505050565b600082601f8301126116ea57600080fd5b6107ca83833560208501611663565b80356001600160a01b03811681146108e657600080fd5b60008060006060848603121561172557600080fd5b833567ffffffffffffffff8082111561173d57600080fd5b611749878388016116d9565b9450602086013591508082111561175f57600080fd5b5061176c868287016116d9565b92505061177b604085016116f9565b90509250925092565b60006020828403121561179657600080fd5b5035919050565b600080604083850312156117b057600080fd5b6117b9836116f9565b946020939093013593505050565b6000806000606084860312156117dc57600080fd5b6117e5846116f9565b92506117f3602085016116f9565b9150604084013590509250925092565b60006020828403121561181557600080fd5b6107ca826116f9565b6000806040838503121561183157600080fd5b61183a836116f9565b91506020830135801515811461184f57600080fd5b809150509250929050565b6000806000806080858703121561187057600080fd5b611879856116f9565b9350611887602086016116f9565b925060408501359150606085013567ffffffffffffffff8111156118aa57600080fd5b8501601f810187136118bb57600080fd5b6118ca87823560208401611663565b91505092959194509250565b600080604083850312156118e957600080fd5b6118f2836116f9565b9150611900602084016116f9565b90509250929050565b600181811c9082168061191d57607f821691505b6020821081141561193e57634e487b7160e01b600052602260045260246000fd5b50919050565b60208082526031908201527f4552433732313a207472616e736665722063616c6c6572206973206e6f74206f6040820152701ddb995c881b9bdc88185c1c1c9bdd9959607a1b606082015260800190565b6020808252818101527f4f776e61626c653a2063616c6c6572206973206e6f7420746865206f776e6572604082015260600190565b634e487b7160e01b600052601160045260246000fd5b60006000198214156119f4576119f46119ca565b5060010190565b60008351611a0d8184602088016115e2565b835190830190611a218183602088016115e2565b01949350505050565b6020808252602e908201527f496e697469616c697a61626c653a20636f6e747261637420697320616c72656160408201526d191e481a5b9a5d1a585b1a5e995960921b606082015260800190565b6020808252602b908201527f496e697469616c697a61626c653a20636f6e7472616374206973206e6f74206960408201526a6e697469616c697a696e6760a81b606082015260800190565b600082821015611ad557611ad56119ca565b500390565b60008219821115611aed57611aed6119ca565b500190565b60208082526032908201527f4552433732313a207472616e7366657220746f206e6f6e20455243373231526560408201527131b2b4bb32b91034b6b83632b6b2b73a32b960711b606082015260800190565b634e487b7160e01b600052601260045260246000fd5b600082611b6957611b69611b44565b500490565b600082611b7d57611b7d611b44565b500690565b634e487b7160e01b600052603260045260246000fd5b600081611ba757611ba76119ca565b506000190190565b6001600160a01b0385811682528416602082015260408101839052608060608201819052600090611be29083018461160e565b9695505050505050565b600060208284031215611bfe57600080fd5b81516107ca816115af56fea26469706673582212201cd5af2b8570b49789b5b7230dbed162acd571d6deadc51a7f0ea9459c1d140564736f6c63430008090033",
  "devdoc": {
    "kind": "dev",
    "methods": {
      "approve(address,uint256)": {
        "details": "See {IERC721-approve}."
      },
      "balanceOf(address)": {
        "details": "See {IERC721-balanceOf}."
      },
      "burn(uint256)": {
        "details": "Burn the token with specified _tokenId",
        "params": {
          "_tokenId": "- Id of the token that will be burned"
        }
      },
      "getApproved(uint256)": {
        "details": "See {IERC721-getApproved}."
      },
      "isApprovedForAll(address,address)": {
        "details": "See {IERC721-isApprovedForAll}."
      },
      "mint(address)": {
        "details": "Increments the token supply and mints the token based on that index",
        "params": {
          "_to": "- Address that will be the owner of minted token"
        },
        "returns": {
          "_0": "Index of the minted token"
        }
      },
      "name()": {
        "details": "See {IERC721Metadata-name}."
      },
      "owner()": {
        "details": "Returns the address of the current owner."
      },
      "ownerOf(uint256)": {
        "details": "See {IERC721-ownerOf}."
      },
      "renounceOwnership()": {
        "details": "Leaves the contract without owner. It will not be possible to call `onlyOwner` functions anymore. Can only be called by the current owner. NOTE: Renouncing ownership will leave the contract without an owner, thereby removing any functionality that is only available to the owner."
      },
      "safeTransferFrom(address,address,uint256)": {
        "details": "See {IERC721-safeTransferFrom}."
      },
      "safeTransferFrom(address,address,uint256,bytes)": {
        "details": "See {IERC721-safeTransferFrom}."
      },
      "setApprovalForAll(address,bool)": {
        "details": "See {IERC721-setApprovalForAll}."
      },
      "setStVault(address)": {
        "details": "Set stVault contract address",
        "params": {
          "_stVault": "- address of the stVault contract"
        }
      },
      "supportsInterface(bytes4)": {
        "details": "See {IERC165-supportsInterface}."
      },
      "symbol()": {
        "details": "See {IERC721Metadata-symbol}."
      },
      "tokenURI(uint256)": {
        "details": "See {IERC721Metadata-tokenURI}."
      },
      "transferFrom(address,address,uint256)": {
        "details": "See {IERC721-transferFrom}."
      },
      "transferOwnership(address)": {
        "details": "Transfers ownership of the contract to a new account (`newOwner`). Can only be called by the current owner."
      }
    },
    "version": 1
  },
  "userdoc": {
    "kind": "user",
    "methods": {},
    "version": 1
  },
  "storageLayout": {
    "storage": [
      {
        "astId": 130,
        "contract": "contracts/stVaults/StVaultNFT.sol:StVaultNFT",
        "label": "_initialized",
        "offset": 0,
        "slot": "0",
        "type": "t_uint8"
      },
      {
        "astId": 133,
        "contract": "contracts/stVaults/StVaultNFT.sol:StVaultNFT",
        "label": "_initializing",
        "offset": 1,
        "slot": "0",
        "type": "t_bool"
      },
      {
        "astId": 2709,
        "contract": "contracts/stVaults/StVaultNFT.sol:StVaultNFT",
        "label": "__gap",
        "offset": 0,
        "slot": "1",
        "type": "t_array(t_uint256)50_storage"
      },
      {
        "astId": 3363,
        "contract": "contracts/stVaults/StVaultNFT.sol:StVaultNFT",
        "label": "__gap",
        "offset": 0,
        "slot": "51",
        "type": "t_array(t_uint256)50_storage"
      },
      {
        "astId": 1402,
        "contract": "contracts/stVaults/StVaultNFT.sol:StVaultNFT",
        "label": "_name",
        "offset": 0,
        "slot": "101",
        "type": "t_string_storage"
      },
      {
        "astId": 1404,
        "contract": "contracts/stVaults/StVaultNFT.sol:StVaultNFT",
        "label": "_symbol",
        "offset": 0,
        "slot": "102",
        "type": "t_string_storage"
      },
      {
        "astId": 1408,
        "contract": "contracts/stVaults/StVaultNFT.sol:StVaultNFT",
        "label": "_owners",
        "offset": 0,
        "slot": "103",
        "type": "t_mapping(t_uint256,t_address)"
      },
      {
        "astId": 1412,
        "contract": "contracts/stVaults/StVaultNFT.sol:StVaultNFT",
        "label": "_balances",
        "offset": 0,
        "slot": "104",
        "type": "t_mapping(t_address,t_uint256)"
      },
      {
        "astId": 1416,
        "contract": "contracts/stVaults/StVaultNFT.sol:StVaultNFT",
        "label": "_tokenApprovals",
        "offset": 0,
        "slot": "105",
        "type": "t_mapping(t_uint256,t_address)"
      },
      {
        "astId": 1422,
        "contract": "contracts/stVaults/StVaultNFT.sol:StVaultNFT",
        "label": "_operatorApprovals",
        "offset": 0,
        "slot": "106",
        "type": "t_mapping(t_address,t_mapping(t_address,t_bool))"
      },
      {
        "astId": 2263,
        "contract": "contracts/stVaults/StVaultNFT.sol:StVaultNFT",
        "label": "__gap",
        "offset": 0,
        "slot": "107",
        "type": "t_array(t_uint256)44_storage"
      },
      {
        "astId": 10,
        "contract": "contracts/stVaults/StVaultNFT.sol:StVaultNFT",
        "label": "_owner",
        "offset": 0,
        "slot": "151",
        "type": "t_address"
      },
      {
        "astId": 122,
        "contract": "contracts/stVaults/StVaultNFT.sol:StVaultNFT",
        "label": "__gap",
        "offset": 0,
        "slot": "152",
        "type": "t_array(t_uint256)49_storage"
      },
      {
        "astId": 39441,
        "contract": "contracts/stVaults/StVaultNFT.sol:StVaultNFT",
        "label": "stVault",
        "offset": 0,
        "slot": "201",
        "type": "t_address"
      },
      {
        "astId": 39443,
        "contract": "contracts/stVaults/StVaultNFT.sol:StVaultNFT",
        "label": "tokenIdIndex",
        "offset": 0,
        "slot": "202",
        "type": "t_uint256"
      },
      {
        "astId": 39445,
        "contract": "contracts/stVaults/StVaultNFT.sol:StVaultNFT",
        "label": "totalSupply",
        "offset": 0,
        "slot": "203",
        "type": "t_uint256"
      }
    ],
    "types": {
      "t_address": {
        "encoding": "inplace",
        "label": "address",
        "numberOfBytes": "20"
      },
      "t_array(t_uint256)44_storage": {
        "base": "t_uint256",
        "encoding": "inplace",
        "label": "uint256[44]",
        "numberOfBytes": "1408"
      },
      "t_array(t_uint256)49_storage": {
        "base": "t_uint256",
        "encoding": "inplace",
        "label": "uint256[49]",
        "numberOfBytes": "1568"
      },
      "t_array(t_uint256)50_storage": {
        "base": "t_uint256",
        "encoding": "inplace",
        "label": "uint256[50]",
        "numberOfBytes": "1600"
      },
      "t_bool": {
        "encoding": "inplace",
        "label": "bool",
        "numberOfBytes": "1"
      },
      "t_mapping(t_address,t_bool)": {
        "encoding": "mapping",
        "key": "t_address",
        "label": "mapping(address => bool)",
        "numberOfBytes": "32",
        "value": "t_bool"
      },
      "t_mapping(t_address,t_mapping(t_address,t_bool))": {
        "encoding": "mapping",
        "key": "t_address",
        "label": "mapping(address => mapping(address => bool))",
        "numberOfBytes": "32",
        "value": "t_mapping(t_address,t_bool)"
      },
      "t_mapping(t_address,t_uint256)": {
        "encoding": "mapping",
        "key": "t_address",
        "label": "mapping(address => uint256)",
        "numberOfBytes": "32",
        "value": "t_uint256"
      },
      "t_mapping(t_uint256,t_address)": {
        "encoding": "mapping",
        "key": "t_uint256",
        "label": "mapping(uint256 => address)",
        "numberOfBytes": "32",
        "value": "t_address"
      },
      "t_string_storage": {
        "encoding": "bytes",
        "label": "string",
        "numberOfBytes": "32"
      },
      "t_uint256": {
        "encoding": "inplace",
        "label": "uint256",
        "numberOfBytes": "32"
      },
      "t_uint8": {
        "encoding": "inplace",
        "label": "uint8",
        "numberOfBytes": "1"
      }
    }
  }
}