{
  "address": "0x1b5Ac43759f786B0dcEfBD60cC23dd8B052ce2Ab",
  "abi": [
    {
      "anonymous": false,
      "inputs": [
        {
          "indexed": false,
          "internalType": "uint8",
          "name": "version",
          "type": "uint8"
        }
      ],
      "name": "Initialized",
      "type": "event"
    },
    {
      "anonymous": false,
      "inputs": [
        {
          "indexed": false,
          "internalType": "address",
          "name": "messageBus",
          "type": "address"
        }
      ],
      "name": "MessageBusUpdated",
      "type": "event"
    },
    {
      "anonymous": false,
      "inputs": [
        {
          "indexed": true,
          "internalType": "address",
          "name": "previousOwner",
          "type": "address"
        },
        {
          "indexed": true,
          "internalType": "address",
          "name": "newOwner",
          "type": "address"
        }
      ],
      "name": "OwnershipTransferred",
      "type": "event"
    },
    {
      "anonymous": false,
      "inputs": [
        {
          "indexed": true,
          "internalType": "uint256",
          "name": "fromChainId",
          "type": "uint256"
        },
        {
          "indexed": false,
          "internalType": "uint256",
          "name": "nonce",
          "type": "uint256"
        },
        {
          "indexed": true,
          "internalType": "address",
          "name": "token",
          "type": "address"
        },
        {
          "indexed": true,
          "internalType": "uint256",
          "name": "amount",
          "type": "uint256"
        },
        {
          "indexed": false,
          "internalType": "address",
          "name": "to",
          "type": "address"
        }
      ],
      "name": "Receive",
      "type": "event"
    },
    {
      "anonymous": false,
      "inputs": [
        {
          "indexed": false,
          "internalType": "uint256",
          "name": "nonce",
          "type": "uint256"
        },
        {
          "indexed": false,
          "internalType": "address",
          "name": "from",
          "type": "address"
        },
        {
          "indexed": true,
          "internalType": "address",
          "name": "token",
          "type": "address"
        },
        {
          "indexed": true,
          "internalType": "uint256",
          "name": "amount",
          "type": "uint256"
        },
        {
          "indexed": true,
          "internalType": "uint256",
          "name": "toChainId",
          "type": "uint256"
        },
        {
          "indexed": false,
          "internalType": "address",
          "name": "to",
          "type": "address"
        }
      ],
      "name": "Refund",
      "type": "event"
    },
    {
      "anonymous": false,
      "inputs": [
        {
          "indexed": true,
          "internalType": "bytes32",
          "name": "role",
          "type": "bytes32"
        },
        {
          "indexed": true,
          "internalType": "bytes32",
          "name": "previousAdminRole",
          "type": "bytes32"
        },
        {
          "indexed": true,
          "internalType": "bytes32",
          "name": "newAdminRole",
          "type": "bytes32"
        }
      ],
      "name": "RoleAdminChanged",
      "type": "event"
    },
    {
      "anonymous": false,
      "inputs": [
        {
          "indexed": true,
          "internalType": "bytes32",
          "name": "role",
          "type": "bytes32"
        },
        {
          "indexed": true,
          "internalType": "address",
          "name": "account",
          "type": "address"
        },
        {
          "indexed": true,
          "internalType": "address",
          "name": "sender",
          "type": "address"
        }
      ],
      "name": "RoleGranted",
      "type": "event"
    },
    {
      "anonymous": false,
      "inputs": [
        {
          "indexed": true,
          "internalType": "bytes32",
          "name": "role",
          "type": "bytes32"
        },
        {
          "indexed": true,
          "internalType": "address",
          "name": "account",
          "type": "address"
        },
        {
          "indexed": true,
          "internalType": "address",
          "name": "sender",
          "type": "address"
        }
      ],
      "name": "RoleRevoked",
      "type": "event"
    },
    {
      "anonymous": false,
      "inputs": [
        {
          "indexed": false,
          "internalType": "uint256",
          "name": "nonce",
          "type": "uint256"
        },
        {
          "indexed": false,
          "internalType": "address",
          "name": "from",
          "type": "address"
        },
        {
          "indexed": true,
          "internalType": "address",
          "name": "token",
          "type": "address"
        },
        {
          "indexed": true,
          "internalType": "uint256",
          "name": "amount",
          "type": "uint256"
        },
        {
          "indexed": true,
          "internalType": "uint256",
          "name": "toChainId",
          "type": "uint256"
        },
        {
          "indexed": false,
          "internalType": "address",
          "name": "to",
          "type": "address"
        }
      ],
      "name": "Transfer",
      "type": "event"
    },
    {
      "inputs": [],
      "name": "CLIENT_ROLE",
      "outputs": [
        {
          "internalType": "bytes32",
          "name": "",
          "type": "bytes32"
        }
      ],
      "stateMutability": "view",
      "type": "function"
    },
    {
      "inputs": [],
      "name": "DEFAULT_ADMIN_ROLE",
      "outputs": [
        {
          "internalType": "bytes32",
          "name": "",
          "type": "bytes32"
        }
      ],
      "stateMutability": "view",
      "type": "function"
    },
    {
      "inputs": [],
      "name": "bridge",
      "outputs": [
        {
          "internalType": "contract ICBridge",
          "name": "",
          "type": "address"
        }
      ],
      "stateMutability": "view",
      "type": "function"
    },
    {
      "inputs": [
        {
          "internalType": "uint256",
          "name": "",
          "type": "uint256"
        },
        {
          "internalType": "address",
          "name": "_targetContract",
          "type": "address"
        },
        {
          "internalType": "uint256",
          "name": "_targetCallValue",
          "type": "uint256"
        },
        {
          "internalType": "bytes",
          "name": "_targetCallData",
          "type": "bytes"
        }
      ],
      "name": "calcCallFee",
      "outputs": [
        {
          "internalType": "uint256",
          "name": "",
          "type": "uint256"
        }
      ],
      "stateMutability": "view",
      "type": "function"
    },
    {
      "inputs": [],
      "name": "calcTransferFee",
      "outputs": [
        {
          "internalType": "uint256",
          "name": "",
          "type": "uint256"
        }
      ],
      "stateMutability": "view",
      "type": "function"
    },
    {
      "inputs": [
        {
          "internalType": "uint256",
          "name": "_toChainId",
          "type": "uint256"
        },
        {
          "internalType": "address",
          "name": "_targetContract",
          "type": "address"
        },
        {
          "internalType": "uint256",
          "name": "_targetCallValue",
          "type": "uint256"
        },
        {
          "internalType": "bytes",
          "name": "_targetCallData",
          "type": "bytes"
        }
      ],
      "name": "call",
      "outputs": [],
      "stateMutability": "payable",
      "type": "function"
    },
    {
      "inputs": [
        {
          "internalType": "bytes",
          "name": "_sender",
          "type": "bytes"
        },
        {
          "internalType": "uint64",
          "name": "_srcChainId",
          "type": "uint64"
        },
        {
          "internalType": "bytes",
          "name": "_message",
          "type": "bytes"
        },
        {
          "internalType": "address",
          "name": "_executor",
          "type": "address"
        }
      ],
      "name": "executeMessage",
      "outputs": [
        {
          "internalType": "enum IMessageReceiverApp.ExecutionStatus",
          "name": "",
          "type": "uint8"
        }
      ],
      "stateMutability": "payable",
      "type": "function"
    },
    {
      "inputs": [
        {
          "internalType": "address",
          "name": "_sender",
          "type": "address"
        },
        {
          "internalType": "uint64",
          "name": "_srcChainId",
          "type": "uint64"
        },
        {
          "internalType": "bytes",
          "name": "_message",
          "type": "bytes"
        },
        {
          "internalType": "address",
          "name": "",
          "type": "address"
        }
      ],
      "name": "executeMessage",
      "outputs": [
        {
          "internalType": "enum IMessageReceiverApp.ExecutionStatus",
          "name": "",
          "type": "uint8"
        }
      ],
      "stateMutability": "payable",
      "type": "function"
    },
    {
      "inputs": [
        {
          "internalType": "address",
          "name": "_sender",
          "type": "address"
        },
        {
          "internalType": "address",
          "name": "_token",
          "type": "address"
        },
        {
          "internalType": "uint256",
          "name": "_amount",
          "type": "uint256"
        },
        {
          "internalType": "uint64",
          "name": "_srcChainId",
          "type": "uint64"
        },
        {
          "internalType": "bytes",
          "name": "_message",
          "type": "bytes"
        },
        {
          "internalType": "address",
          "name": "",
          "type": "address"
        }
      ],
      "name": "executeMessageWithTransfer",
      "outputs": [
        {
          "internalType": "enum IMessageReceiverApp.ExecutionStatus",
          "name": "",
          "type": "uint8"
        }
      ],
      "stateMutability": "payable",
      "type": "function"
    },
    {
      "inputs": [
        {
          "internalType": "address",
          "name": "",
          "type": "address"
        },
        {
          "internalType": "address",
          "name": "_token",
          "type": "address"
        },
        {
          "internalType": "uint256",
          "name": "_amount",
          "type": "uint256"
        },
        {
          "internalType": "uint64",
          "name": "_srcChainId",
          "type": "uint64"
        },
        {
          "internalType": "bytes",
          "name": "_message",
          "type": "bytes"
        },
        {
          "internalType": "address",
          "name": "",
          "type": "address"
        }
      ],
      "name": "executeMessageWithTransferFallback",
      "outputs": [
        {
          "internalType": "enum IMessageReceiverApp.ExecutionStatus",
          "name": "",
          "type": "uint8"
        }
      ],
      "stateMutability": "payable",
      "type": "function"
    },
    {
      "inputs": [
        {
          "internalType": "address",
          "name": "_token",
          "type": "address"
        },
        {
          "internalType": "uint256",
          "name": "_amount",
          "type": "uint256"
        },
        {
          "internalType": "bytes",
          "name": "_message",
          "type": "bytes"
        },
        {
          "internalType": "address",
          "name": "",
          "type": "address"
        }
      ],
      "name": "executeMessageWithTransferRefund",
      "outputs": [
        {
          "internalType": "enum IMessageReceiverApp.ExecutionStatus",
          "name": "",
          "type": "uint8"
        }
      ],
      "stateMutability": "payable",
      "type": "function"
    },
    {
      "inputs": [
        {
          "internalType": "uint256",
          "name": "",
          "type": "uint256"
        }
      ],
      "name": "fallbacks",
      "outputs": [
        {
          "internalType": "uint256",
          "name": "fromChainId",
          "type": "uint256"
        },
        {
          "internalType": "uint256",
          "name": "nonce",
          "type": "uint256"
        },
        {
          "internalType": "address",
          "name": "token",
          "type": "address"
        },
        {
          "internalType": "uint256",
          "name": "amount",
          "type": "uint256"
        },
        {
          "internalType": "uint256",
          "name": "toChainId",
          "type": "uint256"
        },
        {
          "internalType": "address",
          "name": "to",
          "type": "address"
        },
        {
          "internalType": "bool",
          "name": "handled",
          "type": "bool"
        }
      ],
      "stateMutability": "view",
      "type": "function"
    },
    {
      "inputs": [
        {
          "internalType": "bytes32",
          "name": "role",
          "type": "bytes32"
        }
      ],
      "name": "getRoleAdmin",
      "outputs": [
        {
          "internalType": "bytes32",
          "name": "",
          "type": "bytes32"
        }
      ],
      "stateMutability": "view",
      "type": "function"
    },
    {
      "inputs": [
        {
          "internalType": "bytes32",
          "name": "role",
          "type": "bytes32"
        },
        {
          "internalType": "uint256",
          "name": "index",
          "type": "uint256"
        }
      ],
      "name": "getRoleMember",
      "outputs": [
        {
          "internalType": "address",
          "name": "",
          "type": "address"
        }
      ],
      "stateMutability": "view",
      "type": "function"
    },
    {
      "inputs": [
        {
          "internalType": "bytes32",
          "name": "role",
          "type": "bytes32"
        }
      ],
      "name": "getRoleMemberCount",
      "outputs": [
        {
          "internalType": "uint256",
          "name": "",
          "type": "uint256"
        }
      ],
      "stateMutability": "view",
      "type": "function"
    },
    {
      "inputs": [
        {
          "internalType": "bytes32",
          "name": "role",
          "type": "bytes32"
        },
        {
          "internalType": "address",
          "name": "account",
          "type": "address"
        }
      ],
      "name": "grantRole",
      "outputs": [],
      "stateMutability": "nonpayable",
      "type": "function"
    },
    {
      "inputs": [
        {
          "internalType": "bytes32",
          "name": "role",
          "type": "bytes32"
        },
        {
          "internalType": "address",
          "name": "account",
          "type": "address"
        }
      ],
      "name": "hasRole",
      "outputs": [
        {
          "internalType": "bool",
          "name": "",
          "type": "bool"
        }
      ],
      "stateMutability": "view",
      "type": "function"
    },
    {
      "inputs": [],
      "name": "initialize",
      "outputs": [],
      "stateMutability": "nonpayable",
      "type": "function"
    },
    {
      "inputs": [
        {
          "internalType": "address",
          "name": "_messageBus",
          "type": "address"
        },
        {
          "internalType": "contract ICBridge",
          "name": "_bridge",
          "type": "address"
        }
      ],
      "name": "initialize1",
      "outputs": [],
      "stateMutability": "nonpayable",
      "type": "function"
    },
    {
      "inputs": [],
      "name": "maxSlippage",
      "outputs": [
        {
          "internalType": "uint32",
          "name": "",
          "type": "uint32"
        }
      ],
      "stateMutability": "view",
      "type": "function"
    },
    {
      "inputs": [],
      "name": "messageBus",
      "outputs": [
        {
          "internalType": "address",
          "name": "",
          "type": "address"
        }
      ],
      "stateMutability": "view",
      "type": "function"
    },
    {
      "inputs": [
        {
          "internalType": "address",
          "name": "_token",
          "type": "address"
        },
        {
          "internalType": "uint256",
          "name": "",
          "type": "uint256"
        }
      ],
      "name": "minTransfer",
      "outputs": [
        {
          "internalType": "uint256",
          "name": "",
          "type": "uint256"
        }
      ],
      "stateMutability": "view",
      "type": "function"
    },
    {
      "inputs": [],
      "name": "nonce",
      "outputs": [
        {
          "internalType": "uint256",
          "name": "",
          "type": "uint256"
        }
      ],
      "stateMutability": "view",
      "type": "function"
    },
    {
      "inputs": [],
      "name": "owner",
      "outputs": [
        {
          "internalType": "address",
          "name": "",
          "type": "address"
        }
      ],
      "stateMutability": "view",
      "type": "function"
    },
    {
      "inputs": [
        {
          "internalType": "uint256",
          "name": "",
          "type": "uint256"
        }
      ],
      "name": "peers",
      "outputs": [
        {
          "internalType": "address",
          "name": "",
          "type": "address"
        }
      ],
      "stateMutability": "view",
      "type": "function"
    },
    {
      "inputs": [],
      "name": "renounceOwnership",
      "outputs": [],
      "stateMutability": "nonpayable",
      "type": "function"
    },
    {
      "inputs": [
        {
          "internalType": "bytes32",
          "name": "role",
          "type": "bytes32"
        },
        {
          "internalType": "address",
          "name": "account",
          "type": "address"
        }
      ],
      "name": "renounceRole",
      "outputs": [],
      "stateMutability": "nonpayable",
      "type": "function"
    },
    {
      "inputs": [
        {
          "internalType": "bytes32",
          "name": "role",
          "type": "bytes32"
        },
        {
          "internalType": "address",
          "name": "account",
          "type": "address"
        }
      ],
      "name": "revokeRole",
      "outputs": [],
      "stateMutability": "nonpayable",
      "type": "function"
    },
    {
      "inputs": [
        {
          "internalType": "contract ICBridge",
          "name": "_bridge",
          "type": "address"
        }
      ],
      "name": "setBridge",
      "outputs": [],
      "stateMutability": "nonpayable",
      "type": "function"
    },
    {
      "inputs": [
        {
          "internalType": "uint32",
          "name": "_maxSlippage",
          "type": "uint32"
        }
      ],
      "name": "setMaxSlippage",
      "outputs": [],
      "stateMutability": "nonpayable",
      "type": "function"
    },
    {
      "inputs": [
        {
          "internalType": "address",
          "name": "_messageBus",
          "type": "address"
        }
      ],
      "name": "setMessageBus",
      "outputs": [],
      "stateMutability": "nonpayable",
      "type": "function"
    },
    {
      "inputs": [
        {
          "internalType": "uint256[]",
          "name": "_chainIds",
          "type": "uint256[]"
        },
        {
          "internalType": "address[]",
          "name": "_peers",
          "type": "address[]"
        }
      ],
      "name": "setPeers",
      "outputs": [],
      "stateMutability": "nonpayable",
      "type": "function"
    },
    {
      "inputs": [
        {
          "internalType": "bytes4",
          "name": "interfaceId",
          "type": "bytes4"
        }
      ],
      "name": "supportsInterface",
      "outputs": [
        {
          "internalType": "bool",
          "name": "",
          "type": "bool"
        }
      ],
      "stateMutability": "view",
      "type": "function"
    },
    {
      "inputs": [
        {
          "internalType": "address",
          "name": "_token",
          "type": "address"
        },
        {
          "internalType": "uint256[]",
          "name": "_amounts",
          "type": "uint256[]"
        },
        {
          "internalType": "uint256[]",
          "name": "_toChainIds",
          "type": "uint256[]"
        },
        {
          "internalType": "address[]",
          "name": "_toAddresses",
          "type": "address[]"
        }
      ],
      "name": "transfer",
      "outputs": [],
      "stateMutability": "payable",
      "type": "function"
    },
    {
      "inputs": [
        {
          "internalType": "address",
          "name": "newOwner",
          "type": "address"
        }
      ],
      "name": "transferOwnership",
      "outputs": [],
      "stateMutability": "nonpayable",
      "type": "function"
    },
    {
      "inputs": [
        {
          "internalType": "uint256",
          "name": "",
          "type": "uint256"
        }
      ],
      "name": "transfers",
      "outputs": [
        {
          "internalType": "address",
          "name": "from",
          "type": "address"
        },
        {
          "internalType": "enum CBridgeXChainAdapter.TransferStatus",
          "name": "status",
          "type": "uint8"
        }
      ],
      "stateMutability": "view",
      "type": "function"
    },
    {
      "stateMutability": "payable",
      "type": "receive"
    }
  ],
  "transactionHash": "0x0e4a2e580f9fa2371ea362040c78faa115a8d53b7c6a19962adc40d742778859",
  "args": [],
  "numDeployments": 3,
  "solcInputHash": "8664de0f911ef7794e267c0f68606d13",
  "bytecode": "0x608060405234801561001057600080fd5b50613b77806100206000396000f3fe6080604052600436106102135760003560e01c80638c04166f11610118578063ad3ea037116100a0578063ca15c8731161006f578063ca15c87314610660578063d547741f14610680578063e78cea92146106a0578063eae6f652146106c1578063f2fde38b146106f557600080fd5b8063ad3ea037146105d3578063affed0e0146105f3578063be4f3e8f1461060a578063bebc4f711461064057600080fd5b806391d14854116100e757806391d148541461051a5780639377d7111461053a5780639c649fdf1461058b578063a1a227fa1461059e578063a217fddf146105be57600080fd5b80638c04166f146104755780638da5cb5b146104a85780638dd14802146104da5780639010d07c146104fa57600080fd5b80633b11ca511161019b5780635ab7afc61161016a5780635ab7afc614610412578063715018a61461042557806377cae7581461043a5780637cd2bffc1461044d5780638129fc1c1461046057600080fd5b80633b11ca511461039d5780634d51fe18146103b2578063547cad12146103d257806357b73032146103f257600080fd5b8063219d5ca5116101e2578063219d5ca5146102ea578063248a9ca3146102ff5780632de2c8ad1461033d5780632f2ff15d1461035d57806336568abe1461037d57600080fd5b806301ffc9a71461021f578063063ce4e5146102545780630bcb4982146102745780630d13b65d1461028757600080fd5b3661021a57005b600080fd5b34801561022b57600080fd5b5061023f61023a366004612f4b565b610715565b60405190151581526020015b60405180910390f35b610267610262366004612fe9565b610740565b60405161024b91906130b2565b6102676102823660046130c5565b610780565b34801561029357600080fd5b506102a76102a2366004613138565b610970565b6040805197885260208801969096526001600160a01b0394851695870195909552606086019290925260808501521660a0830152151560c082015260e00161024b565b6102fd6102f83660046132b1565b6109d0565b005b34801561030b57600080fd5b5061032f61031a366004613138565b60009081526065602052604090206001015490565b60405190815260200161024b565b34801561034957600080fd5b506102fd61035836600461334b565b610b2f565b34801561036957600080fd5b506102fd6103783660046133ae565b610c29565b34801561038957600080fd5b506102fd6103983660046133ae565b610c53565b3480156103a957600080fd5b5061032f610cd1565b3480156103be57600080fd5b506102fd6103cd3660046133de565b610dad565b3480156103de57600080fd5b506102fd6103ed36600461340c565b610e66565b3480156103fe57600080fd5b5061032f61040d366004613429565b610ee5565b6102676104203660046134cd565b610f6b565b34801561043157600080fd5b506102fd61114a565b6102fd61044836600461354e565b611180565b61026761045b3660046134cd565b611236565b34801561046c57600080fd5b506102fd61136e565b34801561048157600080fd5b5061012e546104939063ffffffff1681565b60405163ffffffff909116815260200161024b565b3480156104b457600080fd5b5060c9546001600160a01b03165b6040516001600160a01b03909116815260200161024b565b3480156104e657600080fd5b506102fd6104f536600461340c565b6113fb565b34801561050657600080fd5b506104c26105153660046135a4565b611448565b34801561052657600080fd5b5061023f6105353660046133ae565b611460565b34801561054657600080fd5b5061057d610555366004613138565b610130602052600090815260409020546001600160a01b03811690600160a01b900460ff1682565b60405161024b9291906135c6565b6102676105993660046135ec565b61148b565b3480156105aa57600080fd5b5060fb546104c2906001600160a01b031681565b3480156105ca57600080fd5b5061032f600081565b3480156105df57600080fd5b506102fd6105ee36600461365e565b6115bc565b3480156105ff57600080fd5b5061032f61012f5481565b34801561061657600080fd5b506104c2610625366004613138565b60fc602052600090815260409020546001600160a01b031681565b34801561064c57600080fd5b5061032f61065b36600461354e565b611652565b34801561066c57600080fd5b5061032f61067b366004613138565b6116f9565b34801561068c57600080fd5b506102fd61069b3660046133ae565b611710565b3480156106ac57600080fd5b50610132546104c2906001600160a01b031681565b3480156106cd57600080fd5b5061032f7fa5ff3ec7a96cdbba4d2d5172d66bbc73c6db3885f29b21be5da9fa7a7c02523281565b34801561070157600080fd5b506102fd61071036600461340c565b611735565b60006001600160e01b03198216635a05180f60e01b148061073a575061073a82611768565b92915050565b60fb546000906001600160a01b031633146107765760405162461bcd60e51b815260040161076d90613684565b60405180910390fd5b9695505050505050565b60fb546000906001600160a01b031633146107ad5760405162461bcd60e51b815260040161076d90613684565b60006107bb848601866136bb565b8051602082015160408301519293509091600260008481526101306020526040902054600160a01b900460ff1660028111156107f9576107f961307e565b141561083a5760405162461bcd60e51b815260206004820152601060248201526f105b1c9958591e481c99599d5b99195960821b604482015260640161076d565b6000838152610130602052604090208054600160a11b60ff60a01b198216179091556001600160a01b0390811690610875908c16828c61179d565b6001600160a01b0381163b156108fe5760405163472c38ff60e01b8152600481018590526001600160a01b038c81166024830152604482018c905260648201859052838116608483015282169063472c38ff9060a401600060405180830381600087803b1580156108e557600080fd5b505af11580156108f9573d6000803e3d6000fd5b505050505b828a8c6001600160a01b03167f63d0308ee4588438305445042ecb87ef5b77c2068e39365290d3212bad242e41878587604051610957939291909283526001600160a01b03918216602084015216604082015260600190565b60405180910390a45060019a9950505050505050505050565b610131818154811061098157600080fd5b600091825260209091206006909102018054600182015460028301546003840154600485015460059095015493955091936001600160a01b03918216939091811690600160a01b900460ff1687565b7fa5ff3ec7a96cdbba4d2d5172d66bbc73c6db3885f29b21be5da9fa7a7c0252326109fa81611800565b83516000610a06610cd1565b9050610a128282613713565b341015610a515760405162461bcd60e51b815260206004820152600d60248201526c4e6f20656e6f7567682066656560981b604482015260640161076d565b336000805b84811015610a9757888181518110610a7057610a70613732565b602002602001015182610a839190613748565b915080610a8f81613760565b915050610a56565b50610aad6001600160a01b038a1683308461180a565b60005b84811015610b2357610b11838b8b8481518110610acf57610acf613732565b60200260200101518b8581518110610ae957610ae9613732565b60200260200101518b8681518110610b0357610b03613732565b602002602001015189611842565b80610b1b81613760565b915050610ab0565b50505050505050505050565b60c9546001600160a01b03163314610b595760405162461bcd60e51b815260040161076d9061377b565b815160005b81811015610c23576000848281518110610b7a57610b7a613732565b602002602001015190508060001415610bc75760405162461bcd60e51b815260206004820152600f60248201526e125b9d985b1a590818da185a5b9251608a1b604482015260640161076d565b838281518110610bd957610bd9613732565b602090810291909101810151600092835260fc909152604090912080546001600160a01b0319166001600160a01b0390921691909117905580610c1b81613760565b915050610b5e565b50505050565b600082815260656020526040902060010154610c4481611800565b610c4e8383611a68565b505050565b6001600160a01b0381163314610cc35760405162461bcd60e51b815260206004820152602f60248201527f416363657373436f6e74726f6c3a2063616e206f6e6c792072656e6f756e636560448201526e103937b632b9903337b91039b2b63360891b606482015260840161076d565b610ccd8282611a8a565b5050565b604080516060808201835261012f5480835260006020808501828152948601828152865191820193909352935194840194909452516001600160a01b031690820152819060800160408051601f198184030181529082905260fb5463299aee5160e11b83529092506001600160a01b031690635335dca290610d57908490600401613808565b60206040518083038186803b158015610d6f57600080fd5b505afa158015610d83573d6000803e3d6000fd5b505050506040513d601f19601f82011682018060405250810190610da7919061381b565b91505090565b6000610db96001611aac565b90508015610dd1576000805461ff0019166101001790555b610dd961136e565b60fb80546001600160a01b038086166001600160a01b03199283161790925561013280549285169290911691909117905561012e805463ffffffff191661c3501790558015610c4e576000805461ff0019169055604051600181527f7f26b83ff96e1f2b6a682f133852f6798a09c465da95921460cefb38474024989060200160405180910390a1505050565b60c9546001600160a01b03163314610e905760405162461bcd60e51b815260040161076d9061377b565b60fb80546001600160a01b0319166001600160a01b0383169081179091556040519081527f3f8223bcd8b3b875473e9f9e14e1ad075451a2b5ffd31591655da9a01516bf5e906020015b60405180910390a150565b6101325460405163f8b30d7d60e01b81526001600160a01b038481166004830152600092169063f8b30d7d9060240160206040518083038186803b158015610f2c57600080fd5b505afa158015610f40573d6000803e3d6000fd5b505050506040513d601f19601f82011682018060405250810190610f64919061381b565b9392505050565b60fb546000906001600160a01b03163314610f985760405162461bcd60e51b815260040161076d90613684565b600083806020019051810190610fae9190613834565b6040805160e0810182526001600160401b03979097168752815160208089019182526001600160a01b039a8b1689840190815260608a019a8b529084015160808a0190815293909201518a1660a08901908152600060c08a01818152610131805460018082018355919093529a517fbd987ad6ccdb7c7567f7335ea839f95dc944431abcf935b6924f70215963db7360069093029283015592517fbd987ad6ccdb7c7567f7335ea839f95dc944431abcf935b6924f70215963db7482015592517fbd987ad6ccdb7c7567f7335ea839f95dc944431abcf935b6924f70215963db75840180546001600160a01b031916918d1691909117905598517fbd987ad6ccdb7c7567f7335ea839f95dc944431abcf935b6924f70215963db7683015591517fbd987ad6ccdb7c7567f7335ea839f95dc944431abcf935b6924f70215963db7782015596517fbd987ad6ccdb7c7567f7335ea839f95dc944431abcf935b6924f70215963db7890970180549151979098166001600160a81b031990911617600160a01b96151596909602959095179095555090949350505050565b60c9546001600160a01b031633146111745760405162461bcd60e51b815260040161076d9061377b565b61117e6000611b39565b565b7fa5ff3ec7a96cdbba4d2d5172d66bbc73c6db3885f29b21be5da9fa7a7c0252326111aa81611800565b600085815260fc60205260409020546001600160a01b0316806111f95760405162461bcd60e51b81526020600482015260076024820152662737903832b2b960c91b604482015260640161076d565b60008585856040516020016112109392919061386a565b604051602081830303815290604052905061122d82888334611b8b565b50505050505050565b60fb546000906001600160a01b031633146112635760405162461bcd60e51b815260040161076d90613684565b6001600160401b038416600090815260fc60205260409020546001600160a01b038881169116146112c55760405162461bcd60e51b815260206004820152600c60248201526b2bb937b7339039b2b73232b960a11b604482015260640161076d565b6000838060200190518101906112db9190613834565b60408101519091506112f8906001600160a01b038916908861179d565b85876001600160a01b0316866001600160401b03167fbf57462ba9b000305d6dc3fccd3bde576baffe803a6abf73974617798568506a846000015185604001516040516113589291909182526001600160a01b0316602082015260400190565b60405180910390a4506001979650505050505050565b600061137a6001611aac565b90508015611392576000805461ff0019166101001790555b61139a611ba7565b6113b660006113b160c9546001600160a01b031690565b611c1b565b80156113f8576000805461ff0019169055604051600181527f7f26b83ff96e1f2b6a682f133852f6798a09c465da95921460cefb384740249890602001610eda565b50565b60c9546001600160a01b031633146114255760405162461bcd60e51b815260040161076d9061377b565b61013280546001600160a01b0319166001600160a01b0392909216919091179055565b6000828152609760205260408120610f649083611c25565b60009182526065602090815260408084206001600160a01b0393909316845291905290205460ff1690565b60fb546000906001600160a01b031633146114b85760405162461bcd60e51b815260040161076d90613684565b6001600160401b038416600090815260fc60205260409020546001600160a01b0386811691161461151a5760405162461bcd60e51b815260206004820152600c60248201526b2bb937b7339039b2b73232b960a11b604482015260640161076d565b600080600085806020019051810190611533919061389a565b9250925092506000836001600160a01b03168383604051611554919061392f565b60006040518083038185875af1925050503d8060008114611591576040519150601f19603f3d011682016040523d82523d6000602084013e611596565b606091505b50909150506001811515146115ac5760006115af565b60015b9998505050505050505050565b60c9546001600160a01b031633146115e65760405162461bcd60e51b815260040161076d9061377b565b620f42408163ffffffff1611156116355760405162461bcd60e51b8152602060048201526013602482015272496e76616c6964206d6178536c69707061676560681b604482015260640161076d565b61012e805463ffffffff191663ffffffff92909216919091179055565b60008084848460405160200161166a9392919061386a565b60408051601f198184030181529082905260fb5463299aee5160e11b83529092506001600160a01b031690635335dca2906116a9908490600401613808565b60206040518083038186803b1580156116c157600080fd5b505afa1580156116d5573d6000803e3d6000fd5b505050506040513d601f19601f82011682018060405250810190610776919061381b565b600081815260976020526040812061073a90611c31565b60008281526065602052604090206001015461172b81611800565b610c4e8383611a8a565b60c9546001600160a01b0316331461175f5760405162461bcd60e51b815260040161076d9061377b565b6113f881611c3b565b60006001600160e01b03198216637965db0b60e01b148061073a57506301ffc9a760e01b6001600160e01b031983161461073a565b6040516001600160a01b038316602482015260448101829052610c4e90849063a9059cbb60e01b906064015b60408051601f198184030181529190526020810180516001600160e01b03166001600160e01b031990931692909217909152611c95565b6113f88133611d67565b6040516001600160a01b0380851660248301528316604482015260648101829052610c239085906323b872dd60e01b906084016117c9565b600083815260fc60205260409020546001600160a01b0316806118915760405162461bcd60e51b81526020600482015260076024820152662737903832b2b960c91b604482015260640161076d565b6001600160a01b0383166118d55760405162461bcd60e51b815260206004820152600b60248201526a496e76616c6964205f746f60a81b604482015260640161076d565b61012f54604080518082019091526001600160a01b03891681526020810160009052600082815261013060209081526040909120825181546001600160a01b039091166001600160a01b031982168117835592840151919283916001600160a81b03191617600160a01b8360028111156119515761195161307e565b0217905550506040805160608101825283815260208082018990526001600160a01b038816828401529151600093506119af920181518152602080830151908201526040918201516001600160a01b03169181019190915260600190565b60405160208183030381529060405290506119e5838989898661012e60009054906101000a900463ffffffff168760018c611dcb565b5061012f80549060006119f783613760565b91905055508587896001600160a01b03167f277f8efab4a541542121eec9cf9858f44e9f7b133d07da793167fd9781a29ff985338a604051611a55939291909283526001600160a01b03918216602084015216604082015260600190565b60405180910390a4505050505050505050565b611a728282611e02565b6000828152609760205260409020610c4e9082611e88565b611a948282611e9d565b6000828152609760205260409020610c4e9082611f04565b60008054610100900460ff1615611af3578160ff166001148015611acf5750303b155b611aeb5760405162461bcd60e51b815260040161076d9061394b565b506000919050565b60005460ff808416911610611b1a5760405162461bcd60e51b815260040161076d9061394b565b506000805460ff191660ff92909216919091179055600190565b919050565b60c980546001600160a01b038381166001600160a01b0319831681179093556040519116919082907f8be0079c531659141344cd1fd0a4f28419497f9722a3daafe3b4186f6b6457e090600090a35050565b60fb54610c23908590859085906001600160a01b031685611f19565b600054610100900460ff16611c125760405162461bcd60e51b815260206004820152602b60248201527f496e697469616c697a61626c653a20636f6e7472616374206973206e6f74206960448201526a6e697469616c697a696e6760a81b606482015260840161076d565b61117e33611b39565b610ccd8282611a68565b6000610f648383611f78565b600061073a825490565b60c9546001600160a01b03163314611c655760405162461bcd60e51b815260040161076d9061377b565b611c816000611c7c60c9546001600160a01b031690565b611a8a565b611c8a81611fa2565b6113f8600082611c1b565b6000611cea826040518060400160405280602081526020017f5361666545524332303a206c6f772d6c6576656c2063616c6c206661696c6564815250856001600160a01b031661203a9092919063ffffffff16565b805190915015610c4e5780806020019051810190611d089190613999565b610c4e5760405162461bcd60e51b815260206004820152602a60248201527f5361666545524332303a204552433230206f7065726174696f6e20646964206e6044820152691bdd081cdd58d8d9595960b21b606482015260840161076d565b611d718282611460565b610ccd57611d89816001600160a01b03166014612051565b611d94836020612051565b604051602001611da59291906139bb565b60408051601f198184030181529082905262461bcd60e51b825261076d91600401613808565b6000611df48a8a8a8a8a8a8a8a60fb60009054906101000a90046001600160a01b03168b6121ec565b9a9950505050505050505050565b611e0c8282611460565b610ccd5760008281526065602090815260408083206001600160a01b03851684529091529020805460ff19166001179055611e443390565b6001600160a01b0316816001600160a01b0316837f2f8788117e7eff1d82e926ec794901d17c78024a50270940304540a733656f0d60405160405180910390a45050565b6000610f64836001600160a01b0384166122f6565b611ea78282611460565b15610ccd5760008281526065602090815260408083206001600160a01b0385168085529252808320805460ff1916905551339285917ff6391f5c32d9c69d2a47ea670b442974b53935d1edc7fd64eb21e047a839171b9190a45050565b6000610f64836001600160a01b038416612345565b604051634f9e72ad60e11b81526001600160a01b03831690639f3ce55a908390611f4b90899089908990600401613a30565b6000604051808303818588803b158015611f6457600080fd5b505af1158015610b23573d6000803e3d6000fd5b6000826000018281548110611f8f57611f8f613732565b9060005260206000200154905092915050565b60c9546001600160a01b03163314611fcc5760405162461bcd60e51b815260040161076d9061377b565b6001600160a01b0381166120315760405162461bcd60e51b815260206004820152602660248201527f4f776e61626c653a206e6577206f776e657220697320746865207a65726f206160448201526564647265737360d01b606482015260840161076d565b6113f881611b39565b60606120498484600085612438565b949350505050565b60606000612060836002613713565b61206b906002613748565b6001600160401b0381111561208257612082613151565b6040519080825280601f01601f1916602001820160405280156120ac576020820181803683370190505b509050600360fc1b816000815181106120c7576120c7613732565b60200101906001600160f81b031916908160001a905350600f60fb1b816001815181106120f6576120f6613732565b60200101906001600160f81b031916908160001a905350600061211a846002613713565b612125906001613748565b90505b600181111561219d576f181899199a1a9b1b9c1cb0b131b232b360811b85600f166010811061215957612159613732565b1a60f81b82828151811061216f5761216f613732565b60200101906001600160f81b031916908160001a90535060049490941c9361219681613a63565b9050612128565b508315610f645760405162461bcd60e51b815260206004820181905260248201527f537472696e67733a20686578206c656e67746820696e73756666696369656e74604482015260640161076d565b600060018460068111156122025761220261307e565b1415612220576122198b8b8b8b8b8b8b8a8a612569565b9050611df4565b60028460068111156122345761223461307e565b14806122515750600484600681111561224f5761224f61307e565b145b1561226757612219848c8c8c8c8c8b8a8a612771565b600384600681111561227b5761227b61307e565b1480612298575060058460068111156122965761229661307e565b145b156122ae57612219848c8c8c8c8c8b8a8a612a65565b60405162461bcd60e51b815260206004820152601960248201527f6272696467652074797065206e6f7420737570706f7274656400000000000000604482015260640161076d565b600081815260018301602052604081205461233d5750815460018181018455600084815260208082209093018490558454848252828601909352604090209190915561073a565b50600061073a565b6000818152600183016020526040812054801561242e576000612369600183613a7a565b855490915060009061237d90600190613a7a565b90508181146123e257600086600001828154811061239d5761239d613732565b90600052602060002001549050808760000184815481106123c0576123c0613732565b6000918252602080832090910192909255918252600188019052604090208390555b85548690806123f3576123f3613a91565b60019003818190600052602060002001600090559055856001016000868152602001908152602001600020600090556001935050505061073a565b600091505061073a565b6060824710156124995760405162461bcd60e51b815260206004820152602660248201527f416464726573733a20696e73756666696369656e742062616c616e636520666f6044820152651c8818d85b1b60d21b606482015260840161076d565b6001600160a01b0385163b6124f05760405162461bcd60e51b815260206004820152601d60248201527f416464726573733a2063616c6c20746f206e6f6e2d636f6e7472616374000000604482015260640161076d565b600080866001600160a01b0316858760405161250c919061392f565b60006040518083038185875af1925050503d8060008114612549576040519150601f19603f3d011682016040523d82523d6000602084013e61254e565b606091505b509150915061255e828286612d2d565b979650505050505050565b600080836001600160a01b03166382980dc46040518163ffffffff1660e01b815260040160206040518083038186803b1580156125a557600080fd5b505afa1580156125b9573d6000803e3d6000fd5b505050506040513d601f19601f820116820180604052508101906125dd9190613aa7565b90506125f36001600160a01b038b16828b612d66565b60405163a5977fbb60e01b81526001600160a01b038c811660048301528b81166024830152604482018b90526001600160401b03808b1660648401528916608483015263ffffffff881660a483015282169063a5977fbb9060c401600060405180830381600087803b15801561266857600080fd5b505af115801561267c573d6000803e3d6000fd5b50506040516001600160601b031930606090811b821660208401528f811b821660348401528e901b166048820152605c81018c90526001600160c01b031960c08c811b8216607c8401528b811b8216608484015246901b16608c820152600092506094019050604051602081830303815290604052805190602001209050846001600160a01b0316634289fbb3858e8c86868c6040518763ffffffff1660e01b815260040161272f959493929190613ac4565b6000604051808303818588803b15801561274857600080fd5b505af115801561275c573d6000803e3d6000fd5b50939f9e505050505050505050505050505050565b60008060028b60068111156127885761278861307e565b141561280657836001600160a01b031663d8257d176040518163ffffffff1660e01b815260040160206040518083038186803b1580156127c757600080fd5b505afa1580156127db573d6000803e3d6000fd5b505050506040513d601f19601f820116820180604052508101906127ff9190613aa7565b905061287a565b836001600160a01b031663c66a9c5a6040518163ffffffff1660e01b815260040160206040518083038186803b15801561283f57600080fd5b505afa158015612853573d6000803e3d6000fd5b505050506040513d601f19601f820116820180604052508101906128779190613aa7565b90505b61288e6001600160a01b038a16828a612d66565b600060028c60068111156128a4576128a461307e565b14156129a657816001600160a01b031663234636248b8b8b8f8c6040518663ffffffff1660e01b81526004016128de959493929190613b06565b600060405180830381600087803b1580156128f857600080fd5b505af115801561290c573d6000803e3d6000fd5b50505050308a8a8a8e8b466040516020016129899796959493929190606097881b6001600160601b0319908116825296881b87166014820152602881019590955260c093841b6001600160c01b031990811660488701529290961b909416605084015292811b831660648301529290921b16606c82015260740190565b604051602081830303815290604052805190602001209050612a2f565b816001600160a01b031663234636248b8b8b8f8c6040518663ffffffff1660e01b81526004016129da959493929190613b06565b602060405180830381600087803b1580156129f457600080fd5b505af1158015612a08573d6000803e3d6000fd5b505050506040513d601f19601f82011682018060405250810190612a2c919061381b565b90505b604051634289fbb360e01b81526001600160a01b03861690634289fbb390869061272f908f908d90889088908e90600401613ac4565b60008060038b6006811115612a7c57612a7c61307e565b1415612afa57836001600160a01b031663dfa2dbaf6040518163ffffffff1660e01b815260040160206040518083038186803b158015612abb57600080fd5b505afa158015612acf573d6000803e3d6000fd5b505050506040513d601f19601f82011682018060405250810190612af39190613aa7565b9050612b6e565b836001600160a01b03166395b12c276040518163ffffffff1660e01b815260040160206040518083038186803b158015612b3357600080fd5b505afa158015612b47573d6000803e3d6000fd5b505050506040513d601f19601f82011682018060405250810190612b6b9190613aa7565b90505b612b826001600160a01b038a16828a612d66565b600060038c6006811115612b9857612b9861307e565b1415612c8f57604051636f3c863f60e11b81526001600160a01b038b81166004830152602482018b90528c811660448301526001600160401b038916606483015283169063de790c7e90608401600060405180830381600087803b158015612bff57600080fd5b505af1158015612c13573d6000803e3d6000fd5b50506040516001600160601b031930606090811b821660208401528e811b82166034840152604883018e90528f901b1660688201526001600160c01b031960c08b811b8216607c84015246901b166084820152608c019150612c729050565b604051602081830303815290604052805190602001209050612d18565b816001600160a01b031663a00293018b8b8b8f8c6040518663ffffffff1660e01b8152600401612cc3959493929190613b06565b602060405180830381600087803b158015612cdd57600080fd5b505af1158015612cf1573d6000803e3d6000fd5b505050506040513d601f19601f82011682018060405250810190612d15919061381b565b90505b612a2f6001600160a01b038b16836000612e27565b60608315612d3c575081610f64565b825115612d4c5782518084602001fd5b8160405162461bcd60e51b815260040161076d9190613808565b604051636eb1769f60e11b81523060048201526001600160a01b038381166024830152600091839186169063dd62ed3e9060440160206040518083038186803b158015612db257600080fd5b505afa158015612dc6573d6000803e3d6000fd5b505050506040513d601f19601f82011682018060405250810190612dea919061381b565b612df49190613748565b6040516001600160a01b038516602482015260448101829052909150610c2390859063095ea7b360e01b906064016117c9565b801580612eb05750604051636eb1769f60e11b81523060048201526001600160a01b03838116602483015284169063dd62ed3e9060440160206040518083038186803b158015612e7657600080fd5b505afa158015612e8a573d6000803e3d6000fd5b505050506040513d601f19601f82011682018060405250810190612eae919061381b565b155b612f1b5760405162461bcd60e51b815260206004820152603660248201527f5361666545524332303a20617070726f76652066726f6d206e6f6e2d7a65726f60448201527520746f206e6f6e2d7a65726f20616c6c6f77616e636560501b606482015260840161076d565b6040516001600160a01b038316602482015260448101829052610c4e90849063095ea7b360e01b906064016117c9565b600060208284031215612f5d57600080fd5b81356001600160e01b031981168114610f6457600080fd5b60008083601f840112612f8757600080fd5b5081356001600160401b03811115612f9e57600080fd5b602083019150836020828501011115612fb657600080fd5b9250929050565b80356001600160401b0381168114611b3457600080fd5b6001600160a01b03811681146113f857600080fd5b6000806000806000806080878903121561300257600080fd5b86356001600160401b038082111561301957600080fd5b6130258a838b01612f75565b909850965086915061303960208a01612fbd565b9550604089013591508082111561304f57600080fd5b5061305c89828a01612f75565b909450925050606087013561307081612fd4565b809150509295509295509295565b634e487b7160e01b600052602160045260246000fd5b600381106113f857634e487b7160e01b600052602160045260246000fd5b602081016130bf83613094565b91905290565b6000806000806000608086880312156130dd57600080fd5b85356130e881612fd4565b94506020860135935060408601356001600160401b0381111561310a57600080fd5b61311688828901612f75565b909450925050606086013561312a81612fd4565b809150509295509295909350565b60006020828403121561314a57600080fd5b5035919050565b634e487b7160e01b600052604160045260246000fd5b604051606081016001600160401b038111828210171561318957613189613151565b60405290565b604051601f8201601f191681016001600160401b03811182821017156131b7576131b7613151565b604052919050565b60006001600160401b038211156131d8576131d8613151565b5060051b60200190565b600082601f8301126131f357600080fd5b81356020613208613203836131bf565b61318f565b82815260059290921b8401810191818101908684111561322757600080fd5b8286015b84811015613242578035835291830191830161322b565b509695505050505050565b600082601f83011261325e57600080fd5b8135602061326e613203836131bf565b82815260059290921b8401810191818101908684111561328d57600080fd5b8286015b848110156132425780356132a481612fd4565b8352918301918301613291565b600080600080608085870312156132c757600080fd5b84356132d281612fd4565b935060208501356001600160401b03808211156132ee57600080fd5b6132fa888389016131e2565b9450604087013591508082111561331057600080fd5b61331c888389016131e2565b9350606087013591508082111561333257600080fd5b5061333f8782880161324d565b91505092959194509250565b6000806040838503121561335e57600080fd5b82356001600160401b038082111561337557600080fd5b613381868387016131e2565b9350602085013591508082111561339757600080fd5b506133a48582860161324d565b9150509250929050565b600080604083850312156133c157600080fd5b8235915060208301356133d381612fd4565b809150509250929050565b600080604083850312156133f157600080fd5b82356133fc81612fd4565b915060208301356133d381612fd4565b60006020828403121561341e57600080fd5b8135610f6481612fd4565b6000806040838503121561343c57600080fd5b823561344781612fd4565b946020939093013593505050565b60006001600160401b0382111561346e5761346e613151565b50601f01601f191660200190565b600082601f83011261348d57600080fd5b813561349b61320382613455565b8181528460208386010111156134b057600080fd5b816020850160208301376000918101602001919091529392505050565b60008060008060008060c087890312156134e657600080fd5b86356134f181612fd4565b9550602087013561350181612fd4565b94506040870135935061351660608801612fbd565b925060808701356001600160401b0381111561353157600080fd5b61353d89828a0161347c565b92505060a087013561307081612fd4565b6000806000806080858703121561356457600080fd5b84359350602085013561357681612fd4565b92506040850135915060608501356001600160401b0381111561359857600080fd5b61333f8782880161347c565b600080604083850312156135b757600080fd5b50508035926020909101359150565b6001600160a01b0383168152604081016135df83613094565b8260208301529392505050565b6000806000806080858703121561360257600080fd5b843561360d81612fd4565b935061361b60208601612fbd565b925060408501356001600160401b0381111561363657600080fd5b6136428782880161347c565b925050606085013561365381612fd4565b939692955090935050565b60006020828403121561367057600080fd5b813563ffffffff81168114610f6457600080fd5b60208082526019908201527f63616c6c6572206973206e6f74206d6573736167652062757300000000000000604082015260600190565b6000606082840312156136cd57600080fd5b6136d5613167565b823581526020830135602082015260408301356136f181612fd4565b60408201529392505050565b634e487b7160e01b600052601160045260246000fd5b600081600019048311821515161561372d5761372d6136fd565b500290565b634e487b7160e01b600052603260045260246000fd5b6000821982111561375b5761375b6136fd565b500190565b6000600019821415613774576137746136fd565b5060010190565b6020808252818101527f4f776e61626c653a2063616c6c6572206973206e6f7420746865206f776e6572604082015260600190565b60005b838110156137cb5781810151838201526020016137b3565b83811115610c235750506000910152565b600081518084526137f48160208601602086016137b0565b601f01601f19169290920160200192915050565b602081526000610f6460208301846137dc565b60006020828403121561382d57600080fd5b5051919050565b60006060828403121561384657600080fd5b61384e613167565b825181526020830151602082015260408301516136f181612fd4565b60018060a01b038416815282602082015260606040820152600061389160608301846137dc565b95945050505050565b6000806000606084860312156138af57600080fd5b83516138ba81612fd4565b6020850151604086015191945092506001600160401b038111156138dd57600080fd5b8401601f810186136138ee57600080fd5b80516138fc61320382613455565b81815287602083850101111561391157600080fd5b6139228260208301602086016137b0565b8093505050509250925092565b600082516139418184602087016137b0565b9190910192915050565b6020808252602e908201527f496e697469616c697a61626c653a20636f6e747261637420697320616c72656160408201526d191e481a5b9a5d1a585b1a5e995960921b606082015260800190565b6000602082840312156139ab57600080fd5b81518015158114610f6457600080fd5b7f416363657373436f6e74726f6c3a206163636f756e74200000000000000000008152600083516139f38160178501602088016137b0565b7001034b99036b4b9b9b4b733903937b6329607d1b6017918401918201528351613a248160288401602088016137b0565b01602801949350505050565b6001600160a01b03841681526001600160401b0383166020820152606060408201819052600090613891908301846137dc565b600081613a7257613a726136fd565b506000190190565b600082821015613a8c57613a8c6136fd565b500390565b634e487b7160e01b600052603160045260246000fd5b600060208284031215613ab957600080fd5b8151610f6481612fd4565b6001600160a01b0386811682526001600160401b0386166020830152841660408201526060810183905260a06080820181905260009061255e908301846137dc565b6001600160a01b03958616815260208101949094526001600160401b0392831660408501529316606083015291909116608082015260a0019056fea26469706673582212206ab07ace0733b8d9b00815bc5c599dc59504dda3b76536a1ce25a57f6452564564736f6c63430008090033",
  "devdoc": {
    "kind": "dev",
    "methods": {
      "getRoleAdmin(bytes32)": {
        "details": "Returns the admin role that controls `role`. See {grantRole} and {revokeRole}. To change a role's admin, use {_setRoleAdmin}."
      },
      "getRoleMember(bytes32,uint256)": {
        "details": "Returns one of the accounts that have `role`. `index` must be a value between 0 and {getRoleMemberCount}, non-inclusive. Role bearers are not sorted in any particular way, and their ordering may change at any point. WARNING: When using {getRoleMember} and {getRoleMemberCount}, make sure you perform all queries on the same block. See the following https://forum.openzeppelin.com/t/iterating-over-elements-on-enumerableset-in-openzeppelin-contracts/2296[forum post] for more information."
      },
      "getRoleMemberCount(bytes32)": {
        "details": "Returns the number of accounts that have `role`. Can be used together with {getRoleMember} to enumerate all bearers of a role."
      },
      "grantRole(bytes32,address)": {
        "details": "Grants `role` to `account`. If `account` had not been already granted `role`, emits a {RoleGranted} event. Requirements: - the caller must have ``role``'s admin role."
      },
      "hasRole(bytes32,address)": {
        "details": "Returns `true` if `account` has been granted `role`."
      },
      "owner()": {
        "details": "Returns the address of the current owner."
      },
      "renounceOwnership()": {
        "details": "Leaves the contract without owner. It will not be possible to call `onlyOwner` functions anymore. Can only be called by the current owner. NOTE: Renouncing ownership will leave the contract without an owner, thereby removing any functionality that is only available to the owner."
      },
      "renounceRole(bytes32,address)": {
        "details": "Revokes `role` from the calling account. Roles are often managed via {grantRole} and {revokeRole}: this function's purpose is to provide a mechanism for accounts to lose their privileges if they are compromised (such as when a trusted device is misplaced). If the calling account had been revoked `role`, emits a {RoleRevoked} event. Requirements: - the caller must be `account`."
      },
      "revokeRole(bytes32,address)": {
        "details": "Revokes `role` from `account`. If `account` had been granted `role`, emits a {RoleRevoked} event. Requirements: - the caller must have ``role``'s admin role."
      },
      "supportsInterface(bytes4)": {
        "details": "See {IERC165-supportsInterface}."
      }
    },
    "version": 1
  },
  "userdoc": {
    "kind": "user",
    "methods": {
      "executeMessageWithTransferFallback(address,address,uint256,uint64,bytes,address)": {
        "notice": "This functions won't be called because executeMessageWithTransfer always returns Success."
      }
    },
    "version": 1
  },
  "storageLayout": {
    "storage": [
      {
        "astId": 713,
        "contract": "contracts/xchain/cbridge/CBridgeXChainAdapterTest.sol:CBridgeXChainAdapterTest",
        "label": "_initialized",
        "offset": 0,
        "slot": "0",
        "type": "t_uint8"
      },
      {
        "astId": 716,
        "contract": "contracts/xchain/cbridge/CBridgeXChainAdapterTest.sol:CBridgeXChainAdapterTest",
        "label": "_initializing",
        "offset": 1,
        "slot": "0",
        "type": "t_bool"
      },
      {
        "astId": 3292,
        "contract": "contracts/xchain/cbridge/CBridgeXChainAdapterTest.sol:CBridgeXChainAdapterTest",
        "label": "__gap",
        "offset": 0,
        "slot": "1",
        "type": "t_array(t_uint256)50_storage"
      },
      {
        "astId": 3946,
        "contract": "contracts/xchain/cbridge/CBridgeXChainAdapterTest.sol:CBridgeXChainAdapterTest",
        "label": "__gap",
        "offset": 0,
        "slot": "51",
        "type": "t_array(t_uint256)50_storage"
      },
      {
        "astId": 184,
        "contract": "contracts/xchain/cbridge/CBridgeXChainAdapterTest.sol:CBridgeXChainAdapterTest",
        "label": "_roles",
        "offset": 0,
        "slot": "101",
        "type": "t_mapping(t_bytes32,t_struct(RoleData)179_storage)"
      },
      {
        "astId": 483,
        "contract": "contracts/xchain/cbridge/CBridgeXChainAdapterTest.sol:CBridgeXChainAdapterTest",
        "label": "__gap",
        "offset": 0,
        "slot": "102",
        "type": "t_array(t_uint256)49_storage"
      },
      {
        "astId": 33,
        "contract": "contracts/xchain/cbridge/CBridgeXChainAdapterTest.sol:CBridgeXChainAdapterTest",
        "label": "_roleMembers",
        "offset": 0,
        "slot": "151",
        "type": "t_mapping(t_bytes32,t_struct(AddressSet)4359_storage)"
      },
      {
        "astId": 143,
        "contract": "contracts/xchain/cbridge/CBridgeXChainAdapterTest.sol:CBridgeXChainAdapterTest",
        "label": "__gap",
        "offset": 0,
        "slot": "152",
        "type": "t_array(t_uint256)49_storage"
      },
      {
        "astId": 593,
        "contract": "contracts/xchain/cbridge/CBridgeXChainAdapterTest.sol:CBridgeXChainAdapterTest",
        "label": "_owner",
        "offset": 0,
        "slot": "201",
        "type": "t_address"
      },
      {
        "astId": 705,
        "contract": "contracts/xchain/cbridge/CBridgeXChainAdapterTest.sol:CBridgeXChainAdapterTest",
        "label": "__gap",
        "offset": 0,
        "slot": "202",
        "type": "t_array(t_uint256)49_storage"
      },
      {
        "astId": 66194,
        "contract": "contracts/xchain/cbridge/CBridgeXChainAdapterTest.sol:CBridgeXChainAdapterTest",
        "label": "messageBus",
        "offset": 0,
        "slot": "251",
        "type": "t_address"
      },
      {
        "astId": 56141,
        "contract": "contracts/xchain/cbridge/CBridgeXChainAdapterTest.sol:CBridgeXChainAdapterTest",
        "label": "peers",
        "offset": 0,
        "slot": "252",
        "type": "t_mapping(t_uint256,t_address)"
      },
      {
        "astId": 56310,
        "contract": "contracts/xchain/cbridge/CBridgeXChainAdapterTest.sol:CBridgeXChainAdapterTest",
        "label": "__gap",
        "offset": 0,
        "slot": "253",
        "type": "t_array(t_uint256)49_storage"
      },
      {
        "astId": 65408,
        "contract": "contracts/xchain/cbridge/CBridgeXChainAdapterTest.sol:CBridgeXChainAdapterTest",
        "label": "maxSlippage",
        "offset": 0,
        "slot": "302",
        "type": "t_uint32"
      },
      {
        "astId": 65410,
        "contract": "contracts/xchain/cbridge/CBridgeXChainAdapterTest.sol:CBridgeXChainAdapterTest",
        "label": "nonce",
        "offset": 0,
        "slot": "303",
        "type": "t_uint256"
      },
      {
        "astId": 65415,
        "contract": "contracts/xchain/cbridge/CBridgeXChainAdapterTest.sol:CBridgeXChainAdapterTest",
        "label": "transfers",
        "offset": 0,
        "slot": "304",
        "type": "t_mapping(t_uint256,t_struct(TransferEntry)65384_storage)"
      },
      {
        "astId": 65419,
        "contract": "contracts/xchain/cbridge/CBridgeXChainAdapterTest.sol:CBridgeXChainAdapterTest",
        "label": "fallbacks",
        "offset": 0,
        "slot": "305",
        "type": "t_array(t_struct(FallbackEntry)65406_storage)dyn_storage"
      },
      {
        "astId": 65422,
        "contract": "contracts/xchain/cbridge/CBridgeXChainAdapterTest.sol:CBridgeXChainAdapterTest",
        "label": "bridge",
        "offset": 0,
        "slot": "306",
        "type": "t_contract(ICBridge)66183"
      }
    ],
    "types": {
      "t_address": {
        "encoding": "inplace",
        "label": "address",
        "numberOfBytes": "20"
      },
      "t_array(t_bytes32)dyn_storage": {
        "base": "t_bytes32",
        "encoding": "dynamic_array",
        "label": "bytes32[]",
        "numberOfBytes": "32"
      },
      "t_array(t_struct(FallbackEntry)65406_storage)dyn_storage": {
        "base": "t_struct(FallbackEntry)65406_storage",
        "encoding": "dynamic_array",
        "label": "struct CBridgeXChainAdapter.FallbackEntry[]",
        "numberOfBytes": "32"
      },
      "t_array(t_uint256)49_storage": {
        "base": "t_uint256",
        "encoding": "inplace",
        "label": "uint256[49]",
        "numberOfBytes": "1568"
      },
      "t_array(t_uint256)50_storage": {
        "base": "t_uint256",
        "encoding": "inplace",
        "label": "uint256[50]",
        "numberOfBytes": "1600"
      },
      "t_bool": {
        "encoding": "inplace",
        "label": "bool",
        "numberOfBytes": "1"
      },
      "t_bytes32": {
        "encoding": "inplace",
        "label": "bytes32",
        "numberOfBytes": "32"
      },
      "t_contract(ICBridge)66183": {
        "encoding": "inplace",
        "label": "contract ICBridge",
        "numberOfBytes": "20"
      },
      "t_enum(TransferStatus)65378": {
        "encoding": "inplace",
        "label": "enum CBridgeXChainAdapter.TransferStatus",
        "numberOfBytes": "1"
      },
      "t_mapping(t_address,t_bool)": {
        "encoding": "mapping",
        "key": "t_address",
        "label": "mapping(address => bool)",
        "numberOfBytes": "32",
        "value": "t_bool"
      },
      "t_mapping(t_bytes32,t_struct(AddressSet)4359_storage)": {
        "encoding": "mapping",
        "key": "t_bytes32",
        "label": "mapping(bytes32 => struct EnumerableSetUpgradeable.AddressSet)",
        "numberOfBytes": "32",
        "value": "t_struct(AddressSet)4359_storage"
      },
      "t_mapping(t_bytes32,t_struct(RoleData)179_storage)": {
        "encoding": "mapping",
        "key": "t_bytes32",
        "label": "mapping(bytes32 => struct AccessControlUpgradeable.RoleData)",
        "numberOfBytes": "32",
        "value": "t_struct(RoleData)179_storage"
      },
      "t_mapping(t_bytes32,t_uint256)": {
        "encoding": "mapping",
        "key": "t_bytes32",
        "label": "mapping(bytes32 => uint256)",
        "numberOfBytes": "32",
        "value": "t_uint256"
      },
      "t_mapping(t_uint256,t_address)": {
        "encoding": "mapping",
        "key": "t_uint256",
        "label": "mapping(uint256 => address)",
        "numberOfBytes": "32",
        "value": "t_address"
      },
      "t_mapping(t_uint256,t_struct(TransferEntry)65384_storage)": {
        "encoding": "mapping",
        "key": "t_uint256",
        "label": "mapping(uint256 => struct CBridgeXChainAdapter.TransferEntry)",
        "numberOfBytes": "32",
        "value": "t_struct(TransferEntry)65384_storage"
      },
      "t_struct(AddressSet)4359_storage": {
        "encoding": "inplace",
        "label": "struct EnumerableSetUpgradeable.AddressSet",
        "members": [
          {
            "astId": 4358,
            "contract": "contracts/xchain/cbridge/CBridgeXChainAdapterTest.sol:CBridgeXChainAdapterTest",
            "label": "_inner",
            "offset": 0,
            "slot": "0",
            "type": "t_struct(Set)4058_storage"
          }
        ],
        "numberOfBytes": "64"
      },
      "t_struct(FallbackEntry)65406_storage": {
        "encoding": "inplace",
        "label": "struct CBridgeXChainAdapter.FallbackEntry",
        "members": [
          {
            "astId": 65393,
            "contract": "contracts/xchain/cbridge/CBridgeXChainAdapterTest.sol:CBridgeXChainAdapterTest",
            "label": "fromChainId",
            "offset": 0,
            "slot": "0",
            "type": "t_uint256"
          },
          {
            "astId": 65395,
            "contract": "contracts/xchain/cbridge/CBridgeXChainAdapterTest.sol:CBridgeXChainAdapterTest",
            "label": "nonce",
            "offset": 0,
            "slot": "1",
            "type": "t_uint256"
          },
          {
            "astId": 65397,
            "contract": "contracts/xchain/cbridge/CBridgeXChainAdapterTest.sol:CBridgeXChainAdapterTest",
            "label": "token",
            "offset": 0,
            "slot": "2",
            "type": "t_address"
          },
          {
            "astId": 65399,
            "contract": "contracts/xchain/cbridge/CBridgeXChainAdapterTest.sol:CBridgeXChainAdapterTest",
            "label": "amount",
            "offset": 0,
            "slot": "3",
            "type": "t_uint256"
          },
          {
            "astId": 65401,
            "contract": "contracts/xchain/cbridge/CBridgeXChainAdapterTest.sol:CBridgeXChainAdapterTest",
            "label": "toChainId",
            "offset": 0,
            "slot": "4",
            "type": "t_uint256"
          },
          {
            "astId": 65403,
            "contract": "contracts/xchain/cbridge/CBridgeXChainAdapterTest.sol:CBridgeXChainAdapterTest",
            "label": "to",
            "offset": 0,
            "slot": "5",
            "type": "t_address"
          },
          {
            "astId": 65405,
            "contract": "contracts/xchain/cbridge/CBridgeXChainAdapterTest.sol:CBridgeXChainAdapterTest",
            "label": "handled",
            "offset": 20,
            "slot": "5",
            "type": "t_bool"
          }
        ],
        "numberOfBytes": "192"
      },
      "t_struct(RoleData)179_storage": {
        "encoding": "inplace",
        "label": "struct AccessControlUpgradeable.RoleData",
        "members": [
          {
            "astId": 176,
            "contract": "contracts/xchain/cbridge/CBridgeXChainAdapterTest.sol:CBridgeXChainAdapterTest",
            "label": "members",
            "offset": 0,
            "slot": "0",
            "type": "t_mapping(t_address,t_bool)"
          },
          {
            "astId": 178,
            "contract": "contracts/xchain/cbridge/CBridgeXChainAdapterTest.sol:CBridgeXChainAdapterTest",
            "label": "adminRole",
            "offset": 0,
            "slot": "1",
            "type": "t_bytes32"
          }
        ],
        "numberOfBytes": "64"
      },
      "t_struct(Set)4058_storage": {
        "encoding": "inplace",
        "label": "struct EnumerableSetUpgradeable.Set",
        "members": [
          {
            "astId": 4053,
            "contract": "contracts/xchain/cbridge/CBridgeXChainAdapterTest.sol:CBridgeXChainAdapterTest",
            "label": "_values",
            "offset": 0,
            "slot": "0",
            "type": "t_array(t_bytes32)dyn_storage"
          },
          {
            "astId": 4057,
            "contract": "contracts/xchain/cbridge/CBridgeXChainAdapterTest.sol:CBridgeXChainAdapterTest",
            "label": "_indexes",
            "offset": 0,
            "slot": "1",
            "type": "t_mapping(t_bytes32,t_uint256)"
          }
        ],
        "numberOfBytes": "64"
      },
      "t_struct(TransferEntry)65384_storage": {
        "encoding": "inplace",
        "label": "struct CBridgeXChainAdapter.TransferEntry",
        "members": [
          {
            "astId": 65380,
            "contract": "contracts/xchain/cbridge/CBridgeXChainAdapterTest.sol:CBridgeXChainAdapterTest",
            "label": "from",
            "offset": 0,
            "slot": "0",
            "type": "t_address"
          },
          {
            "astId": 65383,
            "contract": "contracts/xchain/cbridge/CBridgeXChainAdapterTest.sol:CBridgeXChainAdapterTest",
            "label": "status",
            "offset": 20,
            "slot": "0",
            "type": "t_enum(TransferStatus)65378"
          }
        ],
        "numberOfBytes": "32"
      },
      "t_uint256": {
        "encoding": "inplace",
        "label": "uint256",
        "numberOfBytes": "32"
      },
      "t_uint32": {
        "encoding": "inplace",
        "label": "uint32",
        "numberOfBytes": "4"
      },
      "t_uint8": {
        "encoding": "inplace",
        "label": "uint8",
        "numberOfBytes": "1"
      }
    }
  }
}