{
  "address": "0x744e24ACa66e6E02964C4bE248fD727585a8BDe4",
  "abi": [
    {
      "anonymous": false,
      "inputs": [
        {
          "indexed": false,
          "internalType": "uint8",
          "name": "version",
          "type": "uint8"
        }
      ],
      "name": "Initialized",
      "type": "event"
    },
    {
      "anonymous": false,
      "inputs": [
        {
          "indexed": true,
          "internalType": "address",
          "name": "previousOwner",
          "type": "address"
        },
        {
          "indexed": true,
          "internalType": "address",
          "name": "newOwner",
          "type": "address"
        }
      ],
      "name": "OwnershipTransferred",
      "type": "event"
    },
    {
      "anonymous": false,
      "inputs": [
        {
          "indexed": true,
          "internalType": "bytes32",
          "name": "role",
          "type": "bytes32"
        },
        {
          "indexed": true,
          "internalType": "bytes32",
          "name": "previousAdminRole",
          "type": "bytes32"
        },
        {
          "indexed": true,
          "internalType": "bytes32",
          "name": "newAdminRole",
          "type": "bytes32"
        }
      ],
      "name": "RoleAdminChanged",
      "type": "event"
    },
    {
      "anonymous": false,
      "inputs": [
        {
          "indexed": true,
          "internalType": "bytes32",
          "name": "role",
          "type": "bytes32"
        },
        {
          "indexed": true,
          "internalType": "address",
          "name": "account",
          "type": "address"
        },
        {
          "indexed": true,
          "internalType": "address",
          "name": "sender",
          "type": "address"
        }
      ],
      "name": "RoleGranted",
      "type": "event"
    },
    {
      "anonymous": false,
      "inputs": [
        {
          "indexed": true,
          "internalType": "bytes32",
          "name": "role",
          "type": "bytes32"
        },
        {
          "indexed": true,
          "internalType": "address",
          "name": "account",
          "type": "address"
        },
        {
          "indexed": true,
          "internalType": "address",
          "name": "sender",
          "type": "address"
        }
      ],
      "name": "RoleRevoked",
      "type": "event"
    },
    {
      "anonymous": false,
      "inputs": [
        {
          "indexed": false,
          "internalType": "address",
          "name": "from",
          "type": "address"
        },
        {
          "indexed": true,
          "internalType": "address",
          "name": "token",
          "type": "address"
        },
        {
          "indexed": true,
          "internalType": "uint256",
          "name": "amount",
          "type": "uint256"
        },
        {
          "indexed": true,
          "internalType": "uint256",
          "name": "toChainId",
          "type": "uint256"
        },
        {
          "indexed": false,
          "internalType": "address",
          "name": "to",
          "type": "address"
        }
      ],
      "name": "Transfer",
      "type": "event"
    },
    {
      "inputs": [],
      "name": "CLIENT_ROLE",
      "outputs": [
        {
          "internalType": "bytes32",
          "name": "",
          "type": "bytes32"
        }
      ],
      "stateMutability": "view",
      "type": "function"
    },
    {
      "inputs": [],
      "name": "DEFAULT_ADMIN_ROLE",
      "outputs": [
        {
          "internalType": "bytes32",
          "name": "",
          "type": "bytes32"
        }
      ],
      "stateMutability": "view",
      "type": "function"
    },
    {
      "inputs": [
        {
          "internalType": "bytes",
          "name": "data",
          "type": "bytes"
        }
      ],
      "name": "anyExecute",
      "outputs": [
        {
          "internalType": "bool",
          "name": "success",
          "type": "bool"
        },
        {
          "internalType": "bytes",
          "name": "result",
          "type": "bytes"
        }
      ],
      "stateMutability": "nonpayable",
      "type": "function"
    },
    {
      "inputs": [],
      "name": "anycallExecutor",
      "outputs": [
        {
          "internalType": "contract IAnycallExecutor",
          "name": "",
          "type": "address"
        }
      ],
      "stateMutability": "view",
      "type": "function"
    },
    {
      "inputs": [],
      "name": "anycallRouterTest",
      "outputs": [
        {
          "internalType": "contract IAnycallV6Proxy",
          "name": "",
          "type": "address"
        }
      ],
      "stateMutability": "view",
      "type": "function"
    },
    {
      "inputs": [
        {
          "internalType": "address",
          "name": "",
          "type": "address"
        },
        {
          "internalType": "uint256",
          "name": "",
          "type": "uint256"
        }
      ],
      "name": "anyswapMap",
      "outputs": [
        {
          "internalType": "address",
          "name": "router",
          "type": "address"
        },
        {
          "internalType": "address",
          "name": "underlying",
          "type": "address"
        },
        {
          "internalType": "address",
          "name": "anyToken",
          "type": "address"
        },
        {
          "internalType": "uint8",
          "name": "underlyingDecimals",
          "type": "uint8"
        },
        {
          "internalType": "uint8",
          "name": "anyTokenDecimals",
          "type": "uint8"
        },
        {
          "internalType": "uint256",
          "name": "minimumSwap",
          "type": "uint256"
        }
      ],
      "stateMutability": "view",
      "type": "function"
    },
    {
      "inputs": [
        {
          "internalType": "uint256",
          "name": "_toChainId",
          "type": "uint256"
        },
        {
          "internalType": "address",
          "name": "_targetContract",
          "type": "address"
        },
        {
          "internalType": "uint256",
          "name": "_targetCallValue",
          "type": "uint256"
        },
        {
          "internalType": "bytes",
          "name": "_targetCallData",
          "type": "bytes"
        }
      ],
      "name": "calcCallFee",
      "outputs": [
        {
          "internalType": "uint256",
          "name": "",
          "type": "uint256"
        }
      ],
      "stateMutability": "view",
      "type": "function"
    },
    {
      "inputs": [],
      "name": "calcTransferFee",
      "outputs": [
        {
          "internalType": "uint256",
          "name": "",
          "type": "uint256"
        }
      ],
      "stateMutability": "view",
      "type": "function"
    },
    {
      "inputs": [
        {
          "internalType": "uint256",
          "name": "_toChainId",
          "type": "uint256"
        },
        {
          "internalType": "address",
          "name": "_targetContract",
          "type": "address"
        },
        {
          "internalType": "uint256",
          "name": "_targetCallValue",
          "type": "uint256"
        },
        {
          "internalType": "bytes",
          "name": "_targetCallData",
          "type": "bytes"
        }
      ],
      "name": "call",
      "outputs": [],
      "stateMutability": "payable",
      "type": "function"
    },
    {
      "inputs": [
        {
          "internalType": "bytes32",
          "name": "role",
          "type": "bytes32"
        }
      ],
      "name": "getRoleAdmin",
      "outputs": [
        {
          "internalType": "bytes32",
          "name": "",
          "type": "bytes32"
        }
      ],
      "stateMutability": "view",
      "type": "function"
    },
    {
      "inputs": [
        {
          "internalType": "bytes32",
          "name": "role",
          "type": "bytes32"
        },
        {
          "internalType": "uint256",
          "name": "index",
          "type": "uint256"
        }
      ],
      "name": "getRoleMember",
      "outputs": [
        {
          "internalType": "address",
          "name": "",
          "type": "address"
        }
      ],
      "stateMutability": "view",
      "type": "function"
    },
    {
      "inputs": [
        {
          "internalType": "bytes32",
          "name": "role",
          "type": "bytes32"
        }
      ],
      "name": "getRoleMemberCount",
      "outputs": [
        {
          "internalType": "uint256",
          "name": "",
          "type": "uint256"
        }
      ],
      "stateMutability": "view",
      "type": "function"
    },
    {
      "inputs": [
        {
          "internalType": "bytes32",
          "name": "role",
          "type": "bytes32"
        },
        {
          "internalType": "address",
          "name": "account",
          "type": "address"
        }
      ],
      "name": "grantRole",
      "outputs": [],
      "stateMutability": "nonpayable",
      "type": "function"
    },
    {
      "inputs": [
        {
          "internalType": "bytes32",
          "name": "role",
          "type": "bytes32"
        },
        {
          "internalType": "address",
          "name": "account",
          "type": "address"
        }
      ],
      "name": "hasRole",
      "outputs": [
        {
          "internalType": "bool",
          "name": "",
          "type": "bool"
        }
      ],
      "stateMutability": "view",
      "type": "function"
    },
    {
      "inputs": [],
      "name": "initAnycallProxy",
      "outputs": [],
      "stateMutability": "nonpayable",
      "type": "function"
    },
    {
      "inputs": [],
      "name": "initialize",
      "outputs": [],
      "stateMutability": "nonpayable",
      "type": "function"
    },
    {
      "inputs": [
        {
          "internalType": "address",
          "name": "_token",
          "type": "address"
        },
        {
          "internalType": "uint256",
          "name": "_toChainId",
          "type": "uint256"
        }
      ],
      "name": "minTransfer",
      "outputs": [
        {
          "internalType": "uint256",
          "name": "",
          "type": "uint256"
        }
      ],
      "stateMutability": "view",
      "type": "function"
    },
    {
      "inputs": [],
      "name": "owner",
      "outputs": [
        {
          "internalType": "address",
          "name": "",
          "type": "address"
        }
      ],
      "stateMutability": "view",
      "type": "function"
    },
    {
      "inputs": [
        {
          "internalType": "uint256",
          "name": "",
          "type": "uint256"
        }
      ],
      "name": "peers",
      "outputs": [
        {
          "internalType": "address",
          "name": "",
          "type": "address"
        }
      ],
      "stateMutability": "view",
      "type": "function"
    },
    {
      "inputs": [],
      "name": "renounceOwnership",
      "outputs": [],
      "stateMutability": "nonpayable",
      "type": "function"
    },
    {
      "inputs": [
        {
          "internalType": "bytes32",
          "name": "role",
          "type": "bytes32"
        },
        {
          "internalType": "address",
          "name": "account",
          "type": "address"
        }
      ],
      "name": "renounceRole",
      "outputs": [],
      "stateMutability": "nonpayable",
      "type": "function"
    },
    {
      "inputs": [
        {
          "internalType": "bytes32",
          "name": "role",
          "type": "bytes32"
        },
        {
          "internalType": "address",
          "name": "account",
          "type": "address"
        }
      ],
      "name": "revokeRole",
      "outputs": [],
      "stateMutability": "nonpayable",
      "type": "function"
    },
    {
      "inputs": [
        {
          "internalType": "address",
          "name": "_token",
          "type": "address"
        },
        {
          "internalType": "uint256",
          "name": "_chainId",
          "type": "uint256"
        },
        {
          "internalType": "address",
          "name": "_router",
          "type": "address"
        },
        {
          "internalType": "address",
          "name": "_unterlying",
          "type": "address"
        },
        {
          "internalType": "address",
          "name": "_anyToken",
          "type": "address"
        },
        {
          "internalType": "uint8",
          "name": "_underlyingDecimals",
          "type": "uint8"
        },
        {
          "internalType": "uint8",
          "name": "_anyTokenDecimals",
          "type": "uint8"
        },
        {
          "internalType": "uint256",
          "name": "_minimumSwap",
          "type": "uint256"
        }
      ],
      "name": "setAnyswapEntry",
      "outputs": [],
      "stateMutability": "nonpayable",
      "type": "function"
    },
    {
      "inputs": [
        {
          "internalType": "uint256[]",
          "name": "_chainIds",
          "type": "uint256[]"
        },
        {
          "internalType": "address[]",
          "name": "_peers",
          "type": "address[]"
        }
      ],
      "name": "setPeers",
      "outputs": [],
      "stateMutability": "nonpayable",
      "type": "function"
    },
    {
      "inputs": [
        {
          "internalType": "bytes4",
          "name": "interfaceId",
          "type": "bytes4"
        }
      ],
      "name": "supportsInterface",
      "outputs": [
        {
          "internalType": "bool",
          "name": "",
          "type": "bool"
        }
      ],
      "stateMutability": "view",
      "type": "function"
    },
    {
      "inputs": [
        {
          "internalType": "address",
          "name": "_token",
          "type": "address"
        },
        {
          "internalType": "uint256[]",
          "name": "_amounts",
          "type": "uint256[]"
        },
        {
          "internalType": "uint256[]",
          "name": "_toChainIds",
          "type": "uint256[]"
        },
        {
          "internalType": "address[]",
          "name": "_toAddresses",
          "type": "address[]"
        }
      ],
      "name": "transfer",
      "outputs": [],
      "stateMutability": "payable",
      "type": "function"
    },
    {
      "inputs": [
        {
          "internalType": "address",
          "name": "newOwner",
          "type": "address"
        }
      ],
      "name": "transferOwnership",
      "outputs": [],
      "stateMutability": "nonpayable",
      "type": "function"
    },
    {
      "stateMutability": "payable",
      "type": "receive"
    }
  ],
  "transactionHash": "0x66bed639cca2f2adb51a7010316f87db9a3832b0173a98ee5e69ed584c830ba0",
  "args": [],
  "numDeployments": 4,
  "solcInputHash": "8664de0f911ef7794e267c0f68606d13",
  "bytecode": "0x608060405234801561001057600080fd5b5061295e806100206000396000f3fe6080604052600436106101a05760003560e01c80638da5cb5b116100ec578063c3f9db531161008a578063d547741f11610064578063d547741f1461054d578063eae6f6521461056d578063f2fde38b146105a1578063f5382b75146105c157600080fd5b8063c3f9db53146104ec578063ca15c8731461050c578063d2c7dfcc1461052c57600080fd5b80639abaf479116100c65780639abaf47914610453578063a217fddf14610481578063be4f3e8f14610496578063bebc4f71146104cc57600080fd5b80638da5cb5b146103f55780639010d07c1461041357806391d148541461043357600080fd5b806336568abe1161015957806357b730321161013357806357b7303214610398578063715018a6146103b857806377cae758146103cd5780638129fc1c146103e057600080fd5b806336568abe146102ad5780633b11ca51146102cd57806351f727df146102e157600080fd5b806301ffc9a7146101ac57806303cf3a5d146101e1578063219d5ca51461021a578063248a9ca31461022f5780632de2c8ad1461026d5780632f2ff15d1461028d57600080fd5b366101a757005b600080fd5b3480156101b857600080fd5b506101cc6101c7366004611f5b565b6105d6565b60405190151581526020015b60405180910390f35b3480156101ed57600080fd5b5061012f54610202906001600160a01b031681565b6040516001600160a01b0390911681526020016101d8565b61022d6102283660046120d4565b610601565b005b34801561023b57600080fd5b5061025f61024a36600461216f565b60009081526065602052604090206001015490565b6040519081526020016101d8565b34801561027957600080fd5b5061022d610288366004612188565b61076f565b34801561029957600080fd5b5061022d6102a83660046121ec565b610869565b3480156102b957600080fd5b5061022d6102c83660046121ec565b610893565b3480156102d957600080fd5b50600061025f565b3480156102ed57600080fd5b506103546102fc36600461221c565b61012d60209081526000928352604080842090915290825290208054600182015460028301546003909301546001600160a01b03928316939183169282169160ff600160a01b8204811692600160a81b909204169086565b604080516001600160a01b0397881681529587166020870152939095169284019290925260ff908116606084015216608082015260a081019190915260c0016101d8565b3480156103a457600080fd5b5061025f6103b336600461221c565b610911565b3480156103c457600080fd5b5061022d6109cc565b61022d6103db3660046122b8565b610a02565b3480156103ec57600080fd5b5061022d610b30565b34801561040157600080fd5b5060c9546001600160a01b0316610202565b34801561041f57600080fd5b5061020261042e36600461230f565b610bad565b34801561043f57600080fd5b506101cc61044e3660046121ec565b610bcc565b34801561045f57600080fd5b5061047361046e366004612331565b610bf7565b6040516101d89291906123fb565b34801561048d57600080fd5b5061025f600081565b3480156104a257600080fd5b506102026104b136600461216f565b60fb602052600090815260409020546001600160a01b031681565b3480156104d857600080fd5b5061025f6104e73660046122b8565b610d68565b3480156104f857600080fd5b5061022d610507366004612425565b610e46565b34801561051857600080fd5b5061025f61052736600461216f565b6110c5565b34801561053857600080fd5b5061012e54610202906001600160a01b031681565b34801561055957600080fd5b5061022d6105683660046121ec565b6110dc565b34801561057957600080fd5b5061025f7fa5ff3ec7a96cdbba4d2d5172d66bbc73c6db3885f29b21be5da9fa7a7c02523281565b3480156105ad57600080fd5b5061022d6105bc3660046124bc565b611101565b3480156105cd57600080fd5b5061022d61115b565b60006001600160e01b03198216635a05180f60e01b14806105fb57506105fb82611298565b92915050565b7fa5ff3ec7a96cdbba4d2d5172d66bbc73c6db3885f29b21be5da9fa7a7c02523261062b816112cd565b341561066e5760405162461bcd60e51b815260206004820152600d60248201526c139bc8199959481b9959591959609a1b60448201526064015b60405180910390fd5b835146336000805b848110156106b757888181518110610690576106906124d9565b6020026020010151826106a39190612505565b9150806106af8161251d565b915050610676565b506001600160a01b03808a16600090815261012d602090815260408083208784529091529020600101546106ee91168330846112d7565b60005b84811015610763576107518a8a838151811061070f5761070f6124d9565b6020026020010151868b858151811061072a5761072a6124d9565b60200260200101518b8681518110610744576107446124d9565b6020026020010151611342565b8061075b8161251d565b9150506106f1565b50505050505050505050565b60c9546001600160a01b031633146107995760405162461bcd60e51b815260040161066590612538565b815160005b818110156108635760008482815181106107ba576107ba6124d9565b6020026020010151905080600014156108075760405162461bcd60e51b815260206004820152600f60248201526e125b9d985b1a590818da185a5b9251608a1b6044820152606401610665565b838281518110610819576108196124d9565b602090810291909101810151600092835260fb909152604090912080546001600160a01b0319166001600160a01b039092169190911790558061085b8161251d565b91505061079e565b50505050565b600082815260656020526040902060010154610884816112cd565b61088e83836114d7565b505050565b6001600160a01b03811633146109035760405162461bcd60e51b815260206004820152602f60248201527f416363657373436f6e74726f6c3a2063616e206f6e6c792072656e6f756e636560448201526e103937b632b9903337b91039b2b63360891b6064820152608401610665565b61090d82826114f9565b5050565b600080836001600160a01b031663313ce5676040518163ffffffff1660e01b815260040160206040518083038186803b15801561094d57600080fd5b505afa158015610961573d6000803e3d6000fd5b505050506040513d601f19601f82011682018060405250810190610985919061256d565b905061099281600a61266e565b6001600160a01b038516600090815261012d602090815260408083208784529091529020600301546109c4919061267d565b949350505050565b60c9546001600160a01b031633146109f65760405162461bcd60e51b815260040161066590612538565b610a00600061151b565b565b7fa5ff3ec7a96cdbba4d2d5172d66bbc73c6db3885f29b21be5da9fa7a7c025232610a2c816112cd565b61012f546001600160a01b0316610a4257610b29565b600085815260fb60205260409020546001600160a01b031680610a915760405162461bcd60e51b81526020600482015260076024820152662737903832b2b960c91b6044820152606401610665565b6000858585604051602001610aa89392919061269c565b60408051601f198184030181529082905261012f5463bd45c4e760e01b83529092506001600160a01b03169063bd45c4e7903490610af490869086906000908e906002906004016126cc565b6000604051808303818588803b158015610b0d57600080fd5b505af1158015610b21573d6000803e3d6000fd5b505050505050505b5050505050565b6000610b3c600161156d565b90508015610b54576000805461ff0019166101001790555b610b5c6115f5565b610b6461115b565b8015610baa576000805461ff0019169055604051600181527f7f26b83ff96e1f2b6a682f133852f6798a09c465da95921460cefb38474024989060200160405180910390a15b50565b6000828152609760205260408120610bc5908361163d565b9392505050565b60009182526065602090815260408084206001600160a01b0393909316845291905290205460ff1690565b6000606060008061012e60009054906101000a90046001600160a01b03166001600160a01b031663d0496d6a6040518163ffffffff1660e01b8152600401606060405180830381600087803b158015610c4f57600080fd5b505af1158015610c63573d6000803e3d6000fd5b505050506040513d601f19601f82011682018060405250810190610c87919061270a565b50600081815260fb602052604090205491935091506001600160a01b03808416911614610ce65760405162461bcd60e51b815260206004820152600d60248201526c15dc9bdb99c818dbdb9d195e1d609a1b6044820152606401610665565b60008080610cf6888a018a612741565b925092509250826001600160a01b03168282604051610d15919061279a565b60006040518083038185875af1925050503d8060008114610d52576040519150601f19603f3d011682016040523d82523d6000602084013e610d57565b606091505b50909a909950975050505050505050565b61012f546000906001600160a01b0316610d84575060006109c4565b6000848484604051602001610d9b9392919061269c565b60408051808303601f190181529082905261012f5481516366c96b3760e01b84526060600485015260006064850152602484018a905260448401529092506001600160a01b0316906366c96b379060840160206040518083038186803b158015610e0457600080fd5b505afa158015610e18573d6000803e3d6000fd5b505050506040513d601f19601f82011682018060405250810190610e3c91906127b6565b9695505050505050565b60c9546001600160a01b03163314610e705760405162461bcd60e51b815260040161066590612538565b6001600160a01b03808916600090815261012d602090815260408083208b8452909152902054168015610eb257610eb26001600160a01b038a16826000611649565b6040518060c00160405280886001600160a01b03168152602001876001600160a01b03168152602001866001600160a01b031681526020018560ff1681526020018460ff1681526020018381525061012d60008b6001600160a01b03166001600160a01b0316815260200190815260200160002060008a815260200190815260200160002060008201518160000160006101000a8154816001600160a01b0302191690836001600160a01b0316021790555060208201518160010160006101000a8154816001600160a01b0302191690836001600160a01b0316021790555060408201518160020160006101000a8154816001600160a01b0302191690836001600160a01b0316021790555060608201518160020160146101000a81548160ff021916908360ff16021790555060808201518160020160156101000a81548160ff021916908360ff16021790555060a08201518160030155905050856001600160a01b031663dd62ed3e30896040518363ffffffff1660e01b81526004016110509291906001600160a01b0392831681529116602082015260400190565b60206040518083038186803b15801561106857600080fd5b505afa15801561107c573d6000803e3d6000fd5b505050506040513d601f19601f820116820180604052508101906110a091906127b6565b6110ba576110ba6001600160a01b03871688600019611649565b505050505050505050565b60008181526097602052604081206105fb9061176d565b6000828152606560205260409020600101546110f7816112cd565b61088e83836114f9565b60c9546001600160a01b0316331461112b5760405162461bcd60e51b815260040161066590612538565b611147600061114260c9546001600160a01b031690565b6114f9565b61115081611777565b610baa60008261180f565b60c9546001600160a01b031633146111855760405162461bcd60e51b815260040161066590612538565b4660048114156111bb5761012f80546001600160a01b03191673273a4ffceb31b8473d51051ad2a2edbb7ac8ce021790556111ed565b610fa2811415610baa5761012f80546001600160a01b03191673d7c295e399ca928a3a14b01d760e794f1adf89901790555b61012f60009054906101000a90046001600160a01b03166001600160a01b031663c34c08e56040518163ffffffff1660e01b815260040160206040518083038186803b15801561123c57600080fd5b505afa158015611250573d6000803e3d6000fd5b505050506040513d601f19601f8201168201806040525081019061127491906127cf565b61012e80546001600160a01b0319166001600160a01b039290921691909117905550565b60006001600160e01b03198216637965db0b60e01b14806105fb57506301ffc9a760e01b6001600160e01b03198316146105fb565b610baa8133611819565b6040516001600160a01b03808516602483015283166044820152606481018290526108639085906323b872dd60e01b906084015b60408051601f198184030181529190526020810180516001600160e01b03166001600160e01b03199093169290921790915261187d565b61134c8583610911565b84101561138e5760405162461bcd60e51b815260206004820152601060248201526f151bdbc81cdb585b1b08185b5bdd5b9d60821b6044820152606401610665565b6001600160a01b03858116600090815261012d60209081526040808320878452825291829020825160c081018452815485168082526001830154861693820193909352600282015480861682860181905260ff600160a01b830481166060850152600160a81b909204909116608083015260039092015460a082015292516376defaf160e11b8152600481019190915292841660248401526044830187905260648301859052909163edbdf5e290608401600060405180830381600087803b15801561145957600080fd5b505af115801561146d573d6000803e3d6000fd5b50505050828582602001516001600160a01b03167f3a92e15f876cc81488721650bc1ba6d625ea349cff7bff2502b86ac0d24e88b833866040516114c79291906001600160a01b0392831681529116602082015260400190565b60405180910390a4505050505050565b6114e1828261194f565b600082815260976020526040902061088e90826119d5565b61150382826119ea565b600082815260976020526040902061088e9082611a51565b60c980546001600160a01b038381166001600160a01b0319831681179093556040519116919082907f8be0079c531659141344cd1fd0a4f28419497f9722a3daafe3b4186f6b6457e090600090a35050565b60008054610100900460ff16156115b4578160ff1660011480156115905750303b155b6115ac5760405162461bcd60e51b8152600401610665906127ec565b506000919050565b60005460ff8084169116106115db5760405162461bcd60e51b8152600401610665906127ec565b506000805460ff191660ff92909216919091179055600190565b6000611601600161156d565b90508015611619576000805461ff0019166101001790555b611621611a66565b610b64600061163860c9546001600160a01b031690565b61180f565b6000610bc58383611ada565b8015806116d25750604051636eb1769f60e11b81523060048201526001600160a01b03838116602483015284169063dd62ed3e9060440160206040518083038186803b15801561169857600080fd5b505afa1580156116ac573d6000803e3d6000fd5b505050506040513d601f19601f820116820180604052508101906116d091906127b6565b155b61173d5760405162461bcd60e51b815260206004820152603660248201527f5361666545524332303a20617070726f76652066726f6d206e6f6e2d7a65726f60448201527520746f206e6f6e2d7a65726f20616c6c6f77616e636560501b6064820152608401610665565b6040516001600160a01b03831660248201526044810182905261088e90849063095ea7b360e01b9060640161130b565b60006105fb825490565b60c9546001600160a01b031633146117a15760405162461bcd60e51b815260040161066590612538565b6001600160a01b0381166118065760405162461bcd60e51b815260206004820152602660248201527f4f776e61626c653a206e6577206f776e657220697320746865207a65726f206160448201526564647265737360d01b6064820152608401610665565b610baa8161151b565b61090d82826114d7565b6118238282610bcc565b61090d5761183b816001600160a01b03166014611b04565b611846836020611b04565b60405160200161185792919061283a565b60408051601f198184030181529082905262461bcd60e51b8252610665916004016128af565b60006118d2826040518060400160405280602081526020017f5361666545524332303a206c6f772d6c6576656c2063616c6c206661696c6564815250856001600160a01b0316611ca09092919063ffffffff16565b80519091501561088e57808060200190518101906118f091906128c2565b61088e5760405162461bcd60e51b815260206004820152602a60248201527f5361666545524332303a204552433230206f7065726174696f6e20646964206e6044820152691bdd081cdd58d8d9595960b21b6064820152608401610665565b6119598282610bcc565b61090d5760008281526065602090815260408083206001600160a01b03851684529091529020805460ff191660011790556119913390565b6001600160a01b0316816001600160a01b0316837f2f8788117e7eff1d82e926ec794901d17c78024a50270940304540a733656f0d60405160405180910390a45050565b6000610bc5836001600160a01b038416611caf565b6119f48282610bcc565b1561090d5760008281526065602090815260408083206001600160a01b0385168085529252808320805460ff1916905551339285917ff6391f5c32d9c69d2a47ea670b442974b53935d1edc7fd64eb21e047a839171b9190a45050565b6000610bc5836001600160a01b038416611cfe565b600054610100900460ff16611ad15760405162461bcd60e51b815260206004820152602b60248201527f496e697469616c697a61626c653a20636f6e7472616374206973206e6f74206960448201526a6e697469616c697a696e6760a81b6064820152608401610665565b610a003361151b565b6000826000018281548110611af157611af16124d9565b9060005260206000200154905092915050565b60606000611b1383600261267d565b611b1e906002612505565b67ffffffffffffffff811115611b3657611b36611f9a565b6040519080825280601f01601f191660200182016040528015611b60576020820181803683370190505b509050600360fc1b81600081518110611b7b57611b7b6124d9565b60200101906001600160f81b031916908160001a905350600f60fb1b81600181518110611baa57611baa6124d9565b60200101906001600160f81b031916908160001a9053506000611bce84600261267d565b611bd9906001612505565b90505b6001811115611c51576f181899199a1a9b1b9c1cb0b131b232b360811b85600f1660108110611c0d57611c0d6124d9565b1a60f81b828281518110611c2357611c236124d9565b60200101906001600160f81b031916908160001a90535060049490941c93611c4a816128e4565b9050611bdc565b508315610bc55760405162461bcd60e51b815260206004820181905260248201527f537472696e67733a20686578206c656e67746820696e73756666696369656e746044820152606401610665565b60606109c48484600085611df1565b6000818152600183016020526040812054611cf6575081546001818101845560008481526020808220909301849055845484825282860190935260409020919091556105fb565b5060006105fb565b60008181526001830160205260408120548015611de7576000611d226001836128fb565b8554909150600090611d36906001906128fb565b9050818114611d9b576000866000018281548110611d5657611d566124d9565b9060005260206000200154905080876000018481548110611d7957611d796124d9565b6000918252602080832090910192909255918252600188019052604090208390555b8554869080611dac57611dac612912565b6001900381819060005260206000200160009055905585600101600086815260200190815260200160002060009055600193505050506105fb565b60009150506105fb565b606082471015611e525760405162461bcd60e51b815260206004820152602660248201527f416464726573733a20696e73756666696369656e742062616c616e636520666f6044820152651c8818d85b1b60d21b6064820152608401610665565b6001600160a01b0385163b611ea95760405162461bcd60e51b815260206004820152601d60248201527f416464726573733a2063616c6c20746f206e6f6e2d636f6e74726163740000006044820152606401610665565b600080866001600160a01b03168587604051611ec5919061279a565b60006040518083038185875af1925050503d8060008114611f02576040519150601f19603f3d011682016040523d82523d6000602084013e611f07565b606091505b5091509150611f17828286611f22565b979650505050505050565b60608315611f31575081610bc5565b825115611f415782518084602001fd5b8160405162461bcd60e51b815260040161066591906128af565b600060208284031215611f6d57600080fd5b81356001600160e01b031981168114610bc557600080fd5b6001600160a01b0381168114610baa57600080fd5b634e487b7160e01b600052604160045260246000fd5b604051601f8201601f1916810167ffffffffffffffff81118282101715611fd957611fd9611f9a565b604052919050565b600067ffffffffffffffff821115611ffb57611ffb611f9a565b5060051b60200190565b600082601f83011261201657600080fd5b8135602061202b61202683611fe1565b611fb0565b82815260059290921b8401810191818101908684111561204a57600080fd5b8286015b84811015612065578035835291830191830161204e565b509695505050505050565b600082601f83011261208157600080fd5b8135602061209161202683611fe1565b82815260059290921b840181019181810190868411156120b057600080fd5b8286015b848110156120655780356120c781611f85565b83529183019183016120b4565b600080600080608085870312156120ea57600080fd5b84356120f581611f85565b9350602085013567ffffffffffffffff8082111561211257600080fd5b61211e88838901612005565b9450604087013591508082111561213457600080fd5b61214088838901612005565b9350606087013591508082111561215657600080fd5b5061216387828801612070565b91505092959194509250565b60006020828403121561218157600080fd5b5035919050565b6000806040838503121561219b57600080fd5b823567ffffffffffffffff808211156121b357600080fd5b6121bf86838701612005565b935060208501359150808211156121d557600080fd5b506121e285828601612070565b9150509250929050565b600080604083850312156121ff57600080fd5b82359150602083013561221181611f85565b809150509250929050565b6000806040838503121561222f57600080fd5b823561223a81611f85565b946020939093013593505050565b600082601f83011261225957600080fd5b813567ffffffffffffffff81111561227357612273611f9a565b612286601f8201601f1916602001611fb0565b81815284602083860101111561229b57600080fd5b816020850160208301376000918101602001919091529392505050565b600080600080608085870312156122ce57600080fd5b8435935060208501356122e081611f85565b925060408501359150606085013567ffffffffffffffff81111561230357600080fd5b61216387828801612248565b6000806040838503121561232257600080fd5b50508035926020909101359150565b6000806020838503121561234457600080fd5b823567ffffffffffffffff8082111561235c57600080fd5b818501915085601f83011261237057600080fd5b81358181111561237f57600080fd5b86602082850101111561239157600080fd5b60209290920196919550909350505050565b60005b838110156123be5781810151838201526020016123a6565b838111156108635750506000910152565b600081518084526123e78160208601602086016123a3565b601f01601f19169290920160200192915050565b82151581526040602082015260006109c460408301846123cf565b60ff81168114610baa57600080fd5b600080600080600080600080610100898b03121561244257600080fd5b883561244d81611f85565b975060208901359650604089013561246481611f85565b9550606089013561247481611f85565b9450608089013561248481611f85565b935060a089013561249481612416565b925060c08901356124a481612416565b8092505060e089013590509295985092959890939650565b6000602082840312156124ce57600080fd5b8135610bc581611f85565b634e487b7160e01b600052603260045260246000fd5b634e487b7160e01b600052601160045260246000fd5b60008219821115612518576125186124ef565b500190565b6000600019821415612531576125316124ef565b5060010190565b6020808252818101527f4f776e61626c653a2063616c6c6572206973206e6f7420746865206f776e6572604082015260600190565b60006020828403121561257f57600080fd5b8151610bc581612416565b600181815b808511156125c55781600019048211156125ab576125ab6124ef565b808516156125b857918102915b93841c939080029061258f565b509250929050565b6000826125dc575060016105fb565b816125e9575060006105fb565b81600181146125ff576002811461260957612625565b60019150506105fb565b60ff84111561261a5761261a6124ef565b50506001821b6105fb565b5060208310610133831016604e8410600b8410161715612648575081810a6105fb565b612652838361258a565b8060001904821115612666576126666124ef565b029392505050565b6000610bc560ff8416836125cd565b6000816000190483118215151615612697576126976124ef565b500290565b60018060a01b03841681528260208201526060604082015260006126c360608301846123cf565b95945050505050565b600060018060a01b03808816835260a060208401526126ee60a08401886123cf565b9516604083015250606081019290925260809091015292915050565b60008060006060848603121561271f57600080fd5b835161272a81611f85565b602085015160409095015190969495509392505050565b60008060006060848603121561275657600080fd5b833561276181611f85565b925060208401359150604084013567ffffffffffffffff81111561278457600080fd5b61279086828701612248565b9150509250925092565b600082516127ac8184602087016123a3565b9190910192915050565b6000602082840312156127c857600080fd5b5051919050565b6000602082840312156127e157600080fd5b8151610bc581611f85565b6020808252602e908201527f496e697469616c697a61626c653a20636f6e747261637420697320616c72656160408201526d191e481a5b9a5d1a585b1a5e995960921b606082015260800190565b7f416363657373436f6e74726f6c3a206163636f756e74200000000000000000008152600083516128728160178501602088016123a3565b7001034b99036b4b9b9b4b733903937b6329607d1b60179184019182015283516128a38160288401602088016123a3565b01602801949350505050565b602081526000610bc560208301846123cf565b6000602082840312156128d457600080fd5b81518015158114610bc557600080fd5b6000816128f3576128f36124ef565b506000190190565b60008282101561290d5761290d6124ef565b500390565b634e487b7160e01b600052603160045260246000fdfea264697066735822122018f1db98213d43adff21ff4787cf0c471cced78c0e68f6006366cb8d2d54efd364736f6c63430008090033",
  "devdoc": {
    "kind": "dev",
    "methods": {
      "anyExecute(bytes)": {
        "details": "The function to receive message from anycall router. The syntax must not be changed."
      },
      "getRoleAdmin(bytes32)": {
        "details": "Returns the admin role that controls `role`. See {grantRole} and {revokeRole}. To change a role's admin, use {_setRoleAdmin}."
      },
      "getRoleMember(bytes32,uint256)": {
        "details": "Returns one of the accounts that have `role`. `index` must be a value between 0 and {getRoleMemberCount}, non-inclusive. Role bearers are not sorted in any particular way, and their ordering may change at any point. WARNING: When using {getRoleMember} and {getRoleMemberCount}, make sure you perform all queries on the same block. See the following https://forum.openzeppelin.com/t/iterating-over-elements-on-enumerableset-in-openzeppelin-contracts/2296[forum post] for more information."
      },
      "getRoleMemberCount(bytes32)": {
        "details": "Returns the number of accounts that have `role`. Can be used together with {getRoleMember} to enumerate all bearers of a role."
      },
      "grantRole(bytes32,address)": {
        "details": "Grants `role` to `account`. If `account` had not been already granted `role`, emits a {RoleGranted} event. Requirements: - the caller must have ``role``'s admin role."
      },
      "hasRole(bytes32,address)": {
        "details": "Returns `true` if `account` has been granted `role`."
      },
      "owner()": {
        "details": "Returns the address of the current owner."
      },
      "renounceOwnership()": {
        "details": "Leaves the contract without owner. It will not be possible to call `onlyOwner` functions anymore. Can only be called by the current owner. NOTE: Renouncing ownership will leave the contract without an owner, thereby removing any functionality that is only available to the owner."
      },
      "renounceRole(bytes32,address)": {
        "details": "Revokes `role` from the calling account. Roles are often managed via {grantRole} and {revokeRole}: this function's purpose is to provide a mechanism for accounts to lose their privileges if they are compromised (such as when a trusted device is misplaced). If the calling account had been revoked `role`, emits a {RoleRevoked} event. Requirements: - the caller must be `account`."
      },
      "revokeRole(bytes32,address)": {
        "details": "Revokes `role` from `account`. If `account` had been granted `role`, emits a {RoleRevoked} event. Requirements: - the caller must have ``role``'s admin role."
      },
      "supportsInterface(bytes4)": {
        "details": "See {IERC165-supportsInterface}."
      },
      "transferOwnership(address)": {
        "details": "Transfers ownership of the contract to a new account (`newOwner`). Can only be called by the current owner."
      }
    },
    "version": 1
  },
  "userdoc": {
    "kind": "user",
    "methods": {},
    "version": 1
  },
  "storageLayout": {
    "storage": [
      {
        "astId": 713,
        "contract": "contracts/xchain/multichain/MultichainXChainAdapterTest.sol:MultichainXChainAdapterTest",
        "label": "_initialized",
        "offset": 0,
        "slot": "0",
        "type": "t_uint8"
      },
      {
        "astId": 716,
        "contract": "contracts/xchain/multichain/MultichainXChainAdapterTest.sol:MultichainXChainAdapterTest",
        "label": "_initializing",
        "offset": 1,
        "slot": "0",
        "type": "t_bool"
      },
      {
        "astId": 3292,
        "contract": "contracts/xchain/multichain/MultichainXChainAdapterTest.sol:MultichainXChainAdapterTest",
        "label": "__gap",
        "offset": 0,
        "slot": "1",
        "type": "t_array(t_uint256)50_storage"
      },
      {
        "astId": 3946,
        "contract": "contracts/xchain/multichain/MultichainXChainAdapterTest.sol:MultichainXChainAdapterTest",
        "label": "__gap",
        "offset": 0,
        "slot": "51",
        "type": "t_array(t_uint256)50_storage"
      },
      {
        "astId": 184,
        "contract": "contracts/xchain/multichain/MultichainXChainAdapterTest.sol:MultichainXChainAdapterTest",
        "label": "_roles",
        "offset": 0,
        "slot": "101",
        "type": "t_mapping(t_bytes32,t_struct(RoleData)179_storage)"
      },
      {
        "astId": 483,
        "contract": "contracts/xchain/multichain/MultichainXChainAdapterTest.sol:MultichainXChainAdapterTest",
        "label": "__gap",
        "offset": 0,
        "slot": "102",
        "type": "t_array(t_uint256)49_storage"
      },
      {
        "astId": 33,
        "contract": "contracts/xchain/multichain/MultichainXChainAdapterTest.sol:MultichainXChainAdapterTest",
        "label": "_roleMembers",
        "offset": 0,
        "slot": "151",
        "type": "t_mapping(t_bytes32,t_struct(AddressSet)4359_storage)"
      },
      {
        "astId": 143,
        "contract": "contracts/xchain/multichain/MultichainXChainAdapterTest.sol:MultichainXChainAdapterTest",
        "label": "__gap",
        "offset": 0,
        "slot": "152",
        "type": "t_array(t_uint256)49_storage"
      },
      {
        "astId": 593,
        "contract": "contracts/xchain/multichain/MultichainXChainAdapterTest.sol:MultichainXChainAdapterTest",
        "label": "_owner",
        "offset": 0,
        "slot": "201",
        "type": "t_address"
      },
      {
        "astId": 705,
        "contract": "contracts/xchain/multichain/MultichainXChainAdapterTest.sol:MultichainXChainAdapterTest",
        "label": "__gap",
        "offset": 0,
        "slot": "202",
        "type": "t_array(t_uint256)49_storage"
      },
      {
        "astId": 56141,
        "contract": "contracts/xchain/multichain/MultichainXChainAdapterTest.sol:MultichainXChainAdapterTest",
        "label": "peers",
        "offset": 0,
        "slot": "251",
        "type": "t_mapping(t_uint256,t_address)"
      },
      {
        "astId": 56310,
        "contract": "contracts/xchain/multichain/MultichainXChainAdapterTest.sol:MultichainXChainAdapterTest",
        "label": "__gap",
        "offset": 0,
        "slot": "252",
        "type": "t_array(t_uint256)49_storage"
      },
      {
        "astId": 66938,
        "contract": "contracts/xchain/multichain/MultichainXChainAdapterTest.sol:MultichainXChainAdapterTest",
        "label": "anyswapMap",
        "offset": 0,
        "slot": "301",
        "type": "t_mapping(t_address,t_mapping(t_uint256,t_struct(Entry)66521_storage))"
      },
      {
        "astId": 66941,
        "contract": "contracts/xchain/multichain/MultichainXChainAdapterTest.sol:MultichainXChainAdapterTest",
        "label": "anycallExecutor",
        "offset": 0,
        "slot": "302",
        "type": "t_contract(IAnycallExecutor)66718"
      },
      {
        "astId": 67483,
        "contract": "contracts/xchain/multichain/MultichainXChainAdapterTest.sol:MultichainXChainAdapterTest",
        "label": "anycallRouterTest",
        "offset": 0,
        "slot": "303",
        "type": "t_contract(IAnycallV6Proxy)66748"
      }
    ],
    "types": {
      "t_address": {
        "encoding": "inplace",
        "label": "address",
        "numberOfBytes": "20"
      },
      "t_array(t_bytes32)dyn_storage": {
        "base": "t_bytes32",
        "encoding": "dynamic_array",
        "label": "bytes32[]",
        "numberOfBytes": "32"
      },
      "t_array(t_uint256)49_storage": {
        "base": "t_uint256",
        "encoding": "inplace",
        "label": "uint256[49]",
        "numberOfBytes": "1568"
      },
      "t_array(t_uint256)50_storage": {
        "base": "t_uint256",
        "encoding": "inplace",
        "label": "uint256[50]",
        "numberOfBytes": "1600"
      },
      "t_bool": {
        "encoding": "inplace",
        "label": "bool",
        "numberOfBytes": "1"
      },
      "t_bytes32": {
        "encoding": "inplace",
        "label": "bytes32",
        "numberOfBytes": "32"
      },
      "t_contract(IAnycallExecutor)66718": {
        "encoding": "inplace",
        "label": "contract IAnycallExecutor",
        "numberOfBytes": "20"
      },
      "t_contract(IAnycallV6Proxy)66748": {
        "encoding": "inplace",
        "label": "contract IAnycallV6Proxy",
        "numberOfBytes": "20"
      },
      "t_mapping(t_address,t_bool)": {
        "encoding": "mapping",
        "key": "t_address",
        "label": "mapping(address => bool)",
        "numberOfBytes": "32",
        "value": "t_bool"
      },
      "t_mapping(t_address,t_mapping(t_uint256,t_struct(Entry)66521_storage))": {
        "encoding": "mapping",
        "key": "t_address",
        "label": "mapping(address => mapping(uint256 => struct AnyswapMap.Entry))",
        "numberOfBytes": "32",
        "value": "t_mapping(t_uint256,t_struct(Entry)66521_storage)"
      },
      "t_mapping(t_bytes32,t_struct(AddressSet)4359_storage)": {
        "encoding": "mapping",
        "key": "t_bytes32",
        "label": "mapping(bytes32 => struct EnumerableSetUpgradeable.AddressSet)",
        "numberOfBytes": "32",
        "value": "t_struct(AddressSet)4359_storage"
      },
      "t_mapping(t_bytes32,t_struct(RoleData)179_storage)": {
        "encoding": "mapping",
        "key": "t_bytes32",
        "label": "mapping(bytes32 => struct AccessControlUpgradeable.RoleData)",
        "numberOfBytes": "32",
        "value": "t_struct(RoleData)179_storage"
      },
      "t_mapping(t_bytes32,t_uint256)": {
        "encoding": "mapping",
        "key": "t_bytes32",
        "label": "mapping(bytes32 => uint256)",
        "numberOfBytes": "32",
        "value": "t_uint256"
      },
      "t_mapping(t_uint256,t_address)": {
        "encoding": "mapping",
        "key": "t_uint256",
        "label": "mapping(uint256 => address)",
        "numberOfBytes": "32",
        "value": "t_address"
      },
      "t_mapping(t_uint256,t_struct(Entry)66521_storage)": {
        "encoding": "mapping",
        "key": "t_uint256",
        "label": "mapping(uint256 => struct AnyswapMap.Entry)",
        "numberOfBytes": "32",
        "value": "t_struct(Entry)66521_storage"
      },
      "t_struct(AddressSet)4359_storage": {
        "encoding": "inplace",
        "label": "struct EnumerableSetUpgradeable.AddressSet",
        "members": [
          {
            "astId": 4358,
            "contract": "contracts/xchain/multichain/MultichainXChainAdapterTest.sol:MultichainXChainAdapterTest",
            "label": "_inner",
            "offset": 0,
            "slot": "0",
            "type": "t_struct(Set)4058_storage"
          }
        ],
        "numberOfBytes": "64"
      },
      "t_struct(Entry)66521_storage": {
        "encoding": "inplace",
        "label": "struct AnyswapMap.Entry",
        "members": [
          {
            "astId": 66510,
            "contract": "contracts/xchain/multichain/MultichainXChainAdapterTest.sol:MultichainXChainAdapterTest",
            "label": "router",
            "offset": 0,
            "slot": "0",
            "type": "t_address"
          },
          {
            "astId": 66512,
            "contract": "contracts/xchain/multichain/MultichainXChainAdapterTest.sol:MultichainXChainAdapterTest",
            "label": "underlying",
            "offset": 0,
            "slot": "1",
            "type": "t_address"
          },
          {
            "astId": 66514,
            "contract": "contracts/xchain/multichain/MultichainXChainAdapterTest.sol:MultichainXChainAdapterTest",
            "label": "anyToken",
            "offset": 0,
            "slot": "2",
            "type": "t_address"
          },
          {
            "astId": 66516,
            "contract": "contracts/xchain/multichain/MultichainXChainAdapterTest.sol:MultichainXChainAdapterTest",
            "label": "underlyingDecimals",
            "offset": 20,
            "slot": "2",
            "type": "t_uint8"
          },
          {
            "astId": 66518,
            "contract": "contracts/xchain/multichain/MultichainXChainAdapterTest.sol:MultichainXChainAdapterTest",
            "label": "anyTokenDecimals",
            "offset": 21,
            "slot": "2",
            "type": "t_uint8"
          },
          {
            "astId": 66520,
            "contract": "contracts/xchain/multichain/MultichainXChainAdapterTest.sol:MultichainXChainAdapterTest",
            "label": "minimumSwap",
            "offset": 0,
            "slot": "3",
            "type": "t_uint256"
          }
        ],
        "numberOfBytes": "128"
      },
      "t_struct(RoleData)179_storage": {
        "encoding": "inplace",
        "label": "struct AccessControlUpgradeable.RoleData",
        "members": [
          {
            "astId": 176,
            "contract": "contracts/xchain/multichain/MultichainXChainAdapterTest.sol:MultichainXChainAdapterTest",
            "label": "members",
            "offset": 0,
            "slot": "0",
            "type": "t_mapping(t_address,t_bool)"
          },
          {
            "astId": 178,
            "contract": "contracts/xchain/multichain/MultichainXChainAdapterTest.sol:MultichainXChainAdapterTest",
            "label": "adminRole",
            "offset": 0,
            "slot": "1",
            "type": "t_bytes32"
          }
        ],
        "numberOfBytes": "64"
      },
      "t_struct(Set)4058_storage": {
        "encoding": "inplace",
        "label": "struct EnumerableSetUpgradeable.Set",
        "members": [
          {
            "astId": 4053,
            "contract": "contracts/xchain/multichain/MultichainXChainAdapterTest.sol:MultichainXChainAdapterTest",
            "label": "_values",
            "offset": 0,
            "slot": "0",
            "type": "t_array(t_bytes32)dyn_storage"
          },
          {
            "astId": 4057,
            "contract": "contracts/xchain/multichain/MultichainXChainAdapterTest.sol:MultichainXChainAdapterTest",
            "label": "_indexes",
            "offset": 0,
            "slot": "1",
            "type": "t_mapping(t_bytes32,t_uint256)"
          }
        ],
        "numberOfBytes": "64"
      },
      "t_uint256": {
        "encoding": "inplace",
        "label": "uint256",
        "numberOfBytes": "32"
      },
      "t_uint8": {
        "encoding": "inplace",
        "label": "uint8",
        "numberOfBytes": "1"
      }
    }
  }
}