{
  "address": "0xCEf177B916140958f382e214BaBB5e318DAdcA77",
  "abi": [
    {
      "anonymous": false,
      "inputs": [
        {
          "indexed": false,
          "internalType": "uint8",
          "name": "version",
          "type": "uint8"
        }
      ],
      "name": "Initialized",
      "type": "event"
    },
    {
      "anonymous": false,
      "inputs": [
        {
          "indexed": true,
          "internalType": "address",
          "name": "previousOwner",
          "type": "address"
        },
        {
          "indexed": true,
          "internalType": "address",
          "name": "newOwner",
          "type": "address"
        }
      ],
      "name": "OwnershipTransferred",
      "type": "event"
    },
    {
      "anonymous": false,
      "inputs": [
        {
          "indexed": false,
          "internalType": "address",
          "name": "account",
          "type": "address"
        }
      ],
      "name": "Paused",
      "type": "event"
    },
    {
      "anonymous": false,
      "inputs": [
        {
          "indexed": true,
          "internalType": "bytes32",
          "name": "role",
          "type": "bytes32"
        },
        {
          "indexed": true,
          "internalType": "bytes32",
          "name": "previousAdminRole",
          "type": "bytes32"
        },
        {
          "indexed": true,
          "internalType": "bytes32",
          "name": "newAdminRole",
          "type": "bytes32"
        }
      ],
      "name": "RoleAdminChanged",
      "type": "event"
    },
    {
      "anonymous": false,
      "inputs": [
        {
          "indexed": true,
          "internalType": "bytes32",
          "name": "role",
          "type": "bytes32"
        },
        {
          "indexed": true,
          "internalType": "address",
          "name": "account",
          "type": "address"
        },
        {
          "indexed": true,
          "internalType": "address",
          "name": "sender",
          "type": "address"
        }
      ],
      "name": "RoleGranted",
      "type": "event"
    },
    {
      "anonymous": false,
      "inputs": [
        {
          "indexed": true,
          "internalType": "bytes32",
          "name": "role",
          "type": "bytes32"
        },
        {
          "indexed": true,
          "internalType": "address",
          "name": "account",
          "type": "address"
        },
        {
          "indexed": true,
          "internalType": "address",
          "name": "sender",
          "type": "address"
        }
      ],
      "name": "RoleRevoked",
      "type": "event"
    },
    {
      "anonymous": false,
      "inputs": [
        {
          "indexed": false,
          "internalType": "uint256",
          "name": "newTestValue",
          "type": "uint256"
        }
      ],
      "name": "TestCall",
      "type": "event"
    },
    {
      "anonymous": false,
      "inputs": [
        {
          "indexed": true,
          "internalType": "address",
          "name": "from",
          "type": "address"
        },
        {
          "indexed": false,
          "internalType": "address",
          "name": "token",
          "type": "address"
        },
        {
          "indexed": true,
          "internalType": "uint256",
          "name": "amount",
          "type": "uint256"
        },
        {
          "indexed": false,
          "internalType": "uint256",
          "name": "fromChainId",
          "type": "uint256"
        },
        {
          "indexed": true,
          "internalType": "uint256",
          "name": "toChainId",
          "type": "uint256"
        },
        {
          "indexed": false,
          "internalType": "address",
          "name": "to",
          "type": "address"
        },
        {
          "indexed": false,
          "internalType": "enum BasicUserAgentBase.AdapterType",
          "name": "adapterType",
          "type": "uint8"
        },
        {
          "indexed": false,
          "internalType": "uint256",
          "name": "nonce",
          "type": "uint256"
        }
      ],
      "name": "Transfer",
      "type": "event"
    },
    {
      "anonymous": false,
      "inputs": [
        {
          "indexed": false,
          "internalType": "address",
          "name": "account",
          "type": "address"
        }
      ],
      "name": "Unpaused",
      "type": "event"
    },
    {
      "inputs": [],
      "name": "ADAPTER_ROLE",
      "outputs": [
        {
          "internalType": "bytes32",
          "name": "",
          "type": "bytes32"
        }
      ],
      "stateMutability": "view",
      "type": "function"
    },
    {
      "inputs": [],
      "name": "DEFAULT_ADMIN_ROLE",
      "outputs": [
        {
          "internalType": "bytes32",
          "name": "",
          "type": "bytes32"
        }
      ],
      "stateMutability": "view",
      "type": "function"
    },
    {
      "inputs": [],
      "name": "USDC",
      "outputs": [
        {
          "internalType": "contract IERC20Upgradeable",
          "name": "",
          "type": "address"
        }
      ],
      "stateMutability": "view",
      "type": "function"
    },
    {
      "inputs": [],
      "name": "USDT",
      "outputs": [
        {
          "internalType": "contract IERC20Upgradeable",
          "name": "",
          "type": "address"
        }
      ],
      "stateMutability": "view",
      "type": "function"
    },
    {
      "inputs": [],
      "name": "admin",
      "outputs": [
        {
          "internalType": "address",
          "name": "",
          "type": "address"
        }
      ],
      "stateMutability": "view",
      "type": "function"
    },
    {
      "inputs": [],
      "name": "bniMinter",
      "outputs": [
        {
          "internalType": "contract IBNIMinter",
          "name": "",
          "type": "address"
        }
      ],
      "stateMutability": "view",
      "type": "function"
    },
    {
      "inputs": [],
      "name": "bniVault",
      "outputs": [
        {
          "internalType": "contract IBNIVault",
          "name": "",
          "type": "address"
        }
      ],
      "stateMutability": "view",
      "type": "function"
    },
    {
      "inputs": [
        {
          "internalType": "uint256",
          "name": "_pool",
          "type": "uint256"
        },
        {
          "internalType": "uint256",
          "name": "_share",
          "type": "uint256"
        }
      ],
      "name": "burn",
      "outputs": [
        {
          "internalType": "uint256",
          "name": "_feeAmt",
          "type": "uint256"
        }
      ],
      "stateMutability": "payable",
      "type": "function"
    },
    {
      "inputs": [
        {
          "internalType": "address",
          "name": "_account",
          "type": "address"
        },
        {
          "internalType": "uint256",
          "name": "_pool",
          "type": "uint256"
        },
        {
          "internalType": "uint256",
          "name": "_share",
          "type": "uint256"
        }
      ],
      "name": "burnByAdmin",
      "outputs": [],
      "stateMutability": "nonpayable",
      "type": "function"
    },
    {
      "inputs": [
        {
          "internalType": "uint256",
          "name": "",
          "type": "uint256"
        }
      ],
      "name": "callAdapterTypes",
      "outputs": [
        {
          "internalType": "enum BasicUserAgentBase.AdapterType",
          "name": "",
          "type": "uint8"
        }
      ],
      "stateMutability": "view",
      "type": "function"
    },
    {
      "inputs": [],
      "name": "cbridgeAdapter",
      "outputs": [
        {
          "internalType": "contract IXChainAdapter",
          "name": "",
          "type": "address"
        }
      ],
      "stateMutability": "view",
      "type": "function"
    },
    {
      "inputs": [
        {
          "internalType": "uint256",
          "name": "",
          "type": "uint256"
        }
      ],
      "name": "cbridgeSenders",
      "outputs": [
        {
          "internalType": "address",
          "name": "",
          "type": "address"
        }
      ],
      "stateMutability": "view",
      "type": "function"
    },
    {
      "inputs": [],
      "name": "chainIdOnLP",
      "outputs": [
        {
          "internalType": "uint256",
          "name": "",
          "type": "uint256"
        }
      ],
      "stateMutability": "view",
      "type": "function"
    },
    {
      "inputs": [
        {
          "internalType": "uint256[]",
          "name": "_toChainIds",
          "type": "uint256[]"
        },
        {
          "internalType": "address[]",
          "name": "_tokens",
          "type": "address[]"
        },
        {
          "internalType": "uint256[]",
          "name": "_USDTAmts",
          "type": "uint256[]"
        },
        {
          "internalType": "uint256",
          "name": "_minterNonce",
          "type": "uint256"
        }
      ],
      "name": "deposit",
      "outputs": [
        {
          "internalType": "uint256",
          "name": "_feeAmt",
          "type": "uint256"
        }
      ],
      "stateMutability": "payable",
      "type": "function"
    },
    {
      "inputs": [
        {
          "internalType": "address",
          "name": "_account",
          "type": "address"
        },
        {
          "internalType": "address[]",
          "name": "_tokens",
          "type": "address[]"
        },
        {
          "internalType": "uint256[]",
          "name": "_USDTAmts",
          "type": "uint256[]"
        },
        {
          "internalType": "uint256",
          "name": "_minterNonce",
          "type": "uint256"
        }
      ],
      "name": "depositByAgent",
      "outputs": [],
      "stateMutability": "nonpayable",
      "type": "function"
    },
    {
      "inputs": [
        {
          "internalType": "uint256",
          "name": "_gatheredAmount",
          "type": "uint256"
        }
      ],
      "name": "exitWithdrawal",
      "outputs": [
        {
          "internalType": "uint256",
          "name": "_feeAmt",
          "type": "uint256"
        }
      ],
      "stateMutability": "payable",
      "type": "function"
    },
    {
      "inputs": [
        {
          "internalType": "address",
          "name": "_account",
          "type": "address"
        }
      ],
      "name": "exitWithdrawalByAdmin",
      "outputs": [],
      "stateMutability": "nonpayable",
      "type": "function"
    },
    {
      "inputs": [
        {
          "internalType": "bytes4",
          "name": "",
          "type": "bytes4"
        }
      ],
      "name": "gasAmounts",
      "outputs": [
        {
          "internalType": "uint256",
          "name": "",
          "type": "uint256"
        }
      ],
      "stateMutability": "view",
      "type": "function"
    },
    {
      "inputs": [
        {
          "internalType": "uint256",
          "name": "",
          "type": "uint256"
        }
      ],
      "name": "gasCosts",
      "outputs": [
        {
          "internalType": "uint256",
          "name": "",
          "type": "uint256"
        }
      ],
      "stateMutability": "view",
      "type": "function"
    },
    {
      "inputs": [
        {
          "internalType": "uint256[]",
          "name": "_fromChainIds",
          "type": "uint256[]"
        },
        {
          "internalType": "enum BasicUserAgentBase.AdapterType[]",
          "name": "_adapterTypes",
          "type": "uint8[]"
        }
      ],
      "name": "gather",
      "outputs": [
        {
          "internalType": "uint256",
          "name": "_feeAmt",
          "type": "uint256"
        }
      ],
      "stateMutability": "payable",
      "type": "function"
    },
    {
      "inputs": [
        {
          "internalType": "address",
          "name": "_account",
          "type": "address"
        },
        {
          "internalType": "uint256",
          "name": "_toChainId",
          "type": "uint256"
        },
        {
          "internalType": "enum BasicUserAgentBase.AdapterType",
          "name": "_adapterType",
          "type": "uint8"
        }
      ],
      "name": "gatherByAdmin",
      "outputs": [],
      "stateMutability": "nonpayable",
      "type": "function"
    },
    {
      "inputs": [
        {
          "internalType": "bytes",
          "name": "message",
          "type": "bytes"
        }
      ],
      "name": "getMessageHashForSafe",
      "outputs": [
        {
          "internalType": "bytes32",
          "name": "",
          "type": "bytes32"
        }
      ],
      "stateMutability": "view",
      "type": "function"
    },
    {
      "inputs": [
        {
          "internalType": "bytes32",
          "name": "role",
          "type": "bytes32"
        }
      ],
      "name": "getRoleAdmin",
      "outputs": [
        {
          "internalType": "bytes32",
          "name": "",
          "type": "bytes32"
        }
      ],
      "stateMutability": "view",
      "type": "function"
    },
    {
      "inputs": [
        {
          "internalType": "bytes32",
          "name": "role",
          "type": "bytes32"
        },
        {
          "internalType": "uint256",
          "name": "index",
          "type": "uint256"
        }
      ],
      "name": "getRoleMember",
      "outputs": [
        {
          "internalType": "address",
          "name": "",
          "type": "address"
        }
      ],
      "stateMutability": "view",
      "type": "function"
    },
    {
      "inputs": [
        {
          "internalType": "bytes32",
          "name": "role",
          "type": "bytes32"
        }
      ],
      "name": "getRoleMemberCount",
      "outputs": [
        {
          "internalType": "uint256",
          "name": "",
          "type": "uint256"
        }
      ],
      "stateMutability": "view",
      "type": "function"
    },
    {
      "inputs": [
        {
          "internalType": "bytes32",
          "name": "role",
          "type": "bytes32"
        },
        {
          "internalType": "address",
          "name": "account",
          "type": "address"
        }
      ],
      "name": "grantRole",
      "outputs": [],
      "stateMutability": "nonpayable",
      "type": "function"
    },
    {
      "inputs": [
        {
          "internalType": "bytes32",
          "name": "role",
          "type": "bytes32"
        },
        {
          "internalType": "address",
          "name": "account",
          "type": "address"
        }
      ],
      "name": "hasRole",
      "outputs": [
        {
          "internalType": "bool",
          "name": "",
          "type": "bool"
        }
      ],
      "stateMutability": "view",
      "type": "function"
    },
    {
      "inputs": [
        {
          "internalType": "uint256",
          "name": "_pool",
          "type": "uint256"
        },
        {
          "internalType": "uint256",
          "name": "_USDT6Amt",
          "type": "uint256"
        }
      ],
      "name": "initDeposit",
      "outputs": [
        {
          "internalType": "uint256",
          "name": "_feeAmt",
          "type": "uint256"
        }
      ],
      "stateMutability": "payable",
      "type": "function"
    },
    {
      "inputs": [
        {
          "internalType": "address",
          "name": "_account",
          "type": "address"
        },
        {
          "internalType": "uint256",
          "name": "_pool",
          "type": "uint256"
        },
        {
          "internalType": "uint256",
          "name": "_USDT6Amt",
          "type": "uint256"
        }
      ],
      "name": "initDepositByAdmin",
      "outputs": [],
      "stateMutability": "nonpayable",
      "type": "function"
    },
    {
      "inputs": [
        {
          "internalType": "address",
          "name": "_treasury",
          "type": "address"
        },
        {
          "internalType": "address",
          "name": "_admin",
          "type": "address"
        },
        {
          "internalType": "contract ISwap",
          "name": "_swap",
          "type": "address"
        },
        {
          "internalType": "contract IXChainAdapter",
          "name": "_multichainAdapter",
          "type": "address"
        },
        {
          "internalType": "contract IXChainAdapter",
          "name": "_cbridgeAdapter",
          "type": "address"
        }
      ],
      "name": "initialize",
      "outputs": [],
      "stateMutability": "nonpayable",
      "type": "function"
    },
    {
      "inputs": [
        {
          "internalType": "address",
          "name": "_subImpl",
          "type": "address"
        },
        {
          "internalType": "address",
          "name": "_treasury",
          "type": "address"
        },
        {
          "internalType": "address",
          "name": "_admin",
          "type": "address"
        },
        {
          "internalType": "contract ISwap",
          "name": "_swap",
          "type": "address"
        },
        {
          "internalType": "contract IXChainAdapter",
          "name": "_multichainAdapter",
          "type": "address"
        },
        {
          "internalType": "contract IXChainAdapter",
          "name": "_cbridgeAdapter",
          "type": "address"
        },
        {
          "internalType": "contract IBNIMinter",
          "name": "_bniMinter",
          "type": "address"
        },
        {
          "internalType": "contract IBNIVault",
          "name": "_bniVault",
          "type": "address"
        }
      ],
      "name": "initialize1",
      "outputs": [],
      "stateMutability": "nonpayable",
      "type": "function"
    },
    {
      "inputs": [],
      "name": "isLPChain",
      "outputs": [
        {
          "internalType": "bool",
          "name": "",
          "type": "bool"
        }
      ],
      "stateMutability": "view",
      "type": "function"
    },
    {
      "inputs": [
        {
          "internalType": "address",
          "name": "forwarder",
          "type": "address"
        }
      ],
      "name": "isTrustedForwarder",
      "outputs": [
        {
          "internalType": "bool",
          "name": "",
          "type": "bool"
        }
      ],
      "stateMutability": "view",
      "type": "function"
    },
    {
      "inputs": [
        {
          "internalType": "address",
          "name": "_account",
          "type": "address"
        },
        {
          "internalType": "bytes",
          "name": "_data",
          "type": "bytes"
        },
        {
          "internalType": "bytes",
          "name": "_signature",
          "type": "bytes"
        }
      ],
      "name": "isValidSignature",
      "outputs": [
        {
          "internalType": "bool",
          "name": "",
          "type": "bool"
        }
      ],
      "stateMutability": "view",
      "type": "function"
    },
    {
      "inputs": [
        {
          "internalType": "uint256",
          "name": "_USDT6Amt",
          "type": "uint256"
        }
      ],
      "name": "mint",
      "outputs": [
        {
          "internalType": "uint256",
          "name": "_feeAmt",
          "type": "uint256"
        }
      ],
      "stateMutability": "payable",
      "type": "function"
    },
    {
      "inputs": [
        {
          "internalType": "address",
          "name": "_account",
          "type": "address"
        },
        {
          "internalType": "uint256",
          "name": "_USDT6Amt",
          "type": "uint256"
        }
      ],
      "name": "mintByAdmin",
      "outputs": [],
      "stateMutability": "nonpayable",
      "type": "function"
    },
    {
      "inputs": [],
      "name": "multichainAdapter",
      "outputs": [
        {
          "internalType": "contract IXChainAdapter",
          "name": "",
          "type": "address"
        }
      ],
      "stateMutability": "view",
      "type": "function"
    },
    {
      "inputs": [
        {
          "internalType": "address",
          "name": "",
          "type": "address"
        }
      ],
      "name": "nonces",
      "outputs": [
        {
          "internalType": "uint256",
          "name": "",
          "type": "uint256"
        }
      ],
      "stateMutability": "view",
      "type": "function"
    },
    {
      "inputs": [
        {
          "internalType": "uint256",
          "name": "_cbridgeNonce",
          "type": "uint256"
        },
        {
          "internalType": "address",
          "name": "_token",
          "type": "address"
        },
        {
          "internalType": "uint256",
          "name": "amount",
          "type": "uint256"
        },
        {
          "internalType": "uint256",
          "name": "",
          "type": "uint256"
        },
        {
          "internalType": "address",
          "name": "",
          "type": "address"
        }
      ],
      "name": "onRefunded",
      "outputs": [],
      "stateMutability": "nonpayable",
      "type": "function"
    },
    {
      "inputs": [],
      "name": "owner",
      "outputs": [
        {
          "internalType": "address",
          "name": "",
          "type": "address"
        }
      ],
      "stateMutability": "view",
      "type": "function"
    },
    {
      "inputs": [],
      "name": "pause",
      "outputs": [],
      "stateMutability": "nonpayable",
      "type": "function"
    },
    {
      "inputs": [],
      "name": "paused",
      "outputs": [
        {
          "internalType": "bool",
          "name": "",
          "type": "bool"
        }
      ],
      "stateMutability": "view",
      "type": "function"
    },
    {
      "inputs": [],
      "name": "renounceOwnership",
      "outputs": [],
      "stateMutability": "nonpayable",
      "type": "function"
    },
    {
      "inputs": [
        {
          "internalType": "bytes32",
          "name": "role",
          "type": "bytes32"
        },
        {
          "internalType": "address",
          "name": "account",
          "type": "address"
        }
      ],
      "name": "renounceRole",
      "outputs": [],
      "stateMutability": "nonpayable",
      "type": "function"
    },
    {
      "inputs": [
        {
          "internalType": "bytes32",
          "name": "role",
          "type": "bytes32"
        },
        {
          "internalType": "address",
          "name": "account",
          "type": "address"
        }
      ],
      "name": "revokeRole",
      "outputs": [],
      "stateMutability": "nonpayable",
      "type": "function"
    },
    {
      "inputs": [
        {
          "internalType": "address",
          "name": "_admin",
          "type": "address"
        }
      ],
      "name": "setAdmin",
      "outputs": [],
      "stateMutability": "nonpayable",
      "type": "function"
    },
    {
      "inputs": [
        {
          "internalType": "contract IBNIMinter",
          "name": "_bniMinter",
          "type": "address"
        }
      ],
      "name": "setBNIMinter",
      "outputs": [],
      "stateMutability": "nonpayable",
      "type": "function"
    },
    {
      "inputs": [
        {
          "internalType": "contract IBNIVault",
          "name": "_bniVault",
          "type": "address"
        }
      ],
      "name": "setBNIVault",
      "outputs": [],
      "stateMutability": "nonpayable",
      "type": "function"
    },
    {
      "inputs": [
        {
          "internalType": "address",
          "name": "_biconomy",
          "type": "address"
        }
      ],
      "name": "setBiconomy",
      "outputs": [],
      "stateMutability": "nonpayable",
      "type": "function"
    },
    {
      "inputs": [
        {
          "internalType": "contract IXChainAdapter",
          "name": "_cbridgeAdapter",
          "type": "address"
        }
      ],
      "name": "setCBridgeAdapter",
      "outputs": [],
      "stateMutability": "nonpayable",
      "type": "function"
    },
    {
      "inputs": [
        {
          "internalType": "uint256[]",
          "name": "_chainIds",
          "type": "uint256[]"
        },
        {
          "internalType": "enum BasicUserAgentBase.AdapterType[]",
          "name": "_adapterTypes",
          "type": "uint8[]"
        }
      ],
      "name": "setCallAdapterTypes",
      "outputs": [],
      "stateMutability": "nonpayable",
      "type": "function"
    },
    {
      "inputs": [
        {
          "internalType": "bytes4[]",
          "name": "_selectors",
          "type": "bytes4[]"
        },
        {
          "internalType": "uint256[]",
          "name": "_amounts",
          "type": "uint256[]"
        }
      ],
      "name": "setGasAmounts",
      "outputs": [],
      "stateMutability": "nonpayable",
      "type": "function"
    },
    {
      "inputs": [
        {
          "internalType": "uint256[]",
          "name": "_chainIds",
          "type": "uint256[]"
        },
        {
          "internalType": "uint256[]",
          "name": "_costs",
          "type": "uint256[]"
        }
      ],
      "name": "setGasCosts",
      "outputs": [],
      "stateMutability": "nonpayable",
      "type": "function"
    },
    {
      "inputs": [
        {
          "internalType": "contract IXChainAdapter",
          "name": "_multichainAdapter",
          "type": "address"
        }
      ],
      "name": "setMultichainAdapter",
      "outputs": [],
      "stateMutability": "nonpayable",
      "type": "function"
    },
    {
      "inputs": [
        {
          "internalType": "address",
          "name": "_subImpl",
          "type": "address"
        }
      ],
      "name": "setSubImpl",
      "outputs": [],
      "stateMutability": "nonpayable",
      "type": "function"
    },
    {
      "inputs": [
        {
          "internalType": "contract ISwap",
          "name": "_swap",
          "type": "address"
        }
      ],
      "name": "setSwapper",
      "outputs": [],
      "stateMutability": "nonpayable",
      "type": "function"
    },
    {
      "inputs": [
        {
          "internalType": "address",
          "name": "_wallet",
          "type": "address"
        }
      ],
      "name": "setTreasuryWallet",
      "outputs": [],
      "stateMutability": "nonpayable",
      "type": "function"
    },
    {
      "inputs": [
        {
          "internalType": "uint256[]",
          "name": "_chainIds",
          "type": "uint256[]"
        },
        {
          "internalType": "address[]",
          "name": "_userAgents",
          "type": "address[]"
        }
      ],
      "name": "setUserAgents",
      "outputs": [],
      "stateMutability": "nonpayable",
      "type": "function"
    },
    {
      "inputs": [],
      "name": "subImpl",
      "outputs": [
        {
          "internalType": "address",
          "name": "",
          "type": "address"
        }
      ],
      "stateMutability": "view",
      "type": "function"
    },
    {
      "inputs": [
        {
          "internalType": "bytes4",
          "name": "interfaceId",
          "type": "bytes4"
        }
      ],
      "name": "supportsInterface",
      "outputs": [
        {
          "internalType": "bool",
          "name": "",
          "type": "bool"
        }
      ],
      "stateMutability": "view",
      "type": "function"
    },
    {
      "inputs": [
        {
          "internalType": "uint256",
          "name": "_gatheredAmount",
          "type": "uint256"
        }
      ],
      "name": "takeOut",
      "outputs": [],
      "stateMutability": "nonpayable",
      "type": "function"
    },
    {
      "inputs": [
        {
          "internalType": "uint256",
          "name": "_toChainId",
          "type": "uint256"
        },
        {
          "internalType": "uint256",
          "name": "_value",
          "type": "uint256"
        }
      ],
      "name": "testCall",
      "outputs": [
        {
          "internalType": "uint256",
          "name": "_feeAmt",
          "type": "uint256"
        }
      ],
      "stateMutability": "payable",
      "type": "function"
    },
    {
      "inputs": [
        {
          "internalType": "uint256",
          "name": "_value",
          "type": "uint256"
        }
      ],
      "name": "testCallByAdmin",
      "outputs": [],
      "stateMutability": "nonpayable",
      "type": "function"
    },
    {
      "inputs": [],
      "name": "testValue",
      "outputs": [
        {
          "internalType": "uint256",
          "name": "",
          "type": "uint256"
        }
      ],
      "stateMutability": "view",
      "type": "function"
    },
    {
      "inputs": [
        {
          "internalType": "uint256[]",
          "name": "_amounts",
          "type": "uint256[]"
        },
        {
          "internalType": "uint256[]",
          "name": "_toChainIds",
          "type": "uint256[]"
        },
        {
          "internalType": "enum BasicUserAgentBase.AdapterType[]",
          "name": "_adapterTypes",
          "type": "uint8[]"
        }
      ],
      "name": "transfer",
      "outputs": [
        {
          "internalType": "uint256",
          "name": "_feeAmt",
          "type": "uint256"
        }
      ],
      "stateMutability": "payable",
      "type": "function"
    },
    {
      "inputs": [
        {
          "internalType": "address",
          "name": "newOwner",
          "type": "address"
        }
      ],
      "name": "transferOwnership",
      "outputs": [],
      "stateMutability": "nonpayable",
      "type": "function"
    },
    {
      "inputs": [],
      "name": "treasuryWallet",
      "outputs": [
        {
          "internalType": "address",
          "name": "",
          "type": "address"
        }
      ],
      "stateMutability": "view",
      "type": "function"
    },
    {
      "inputs": [],
      "name": "trustedForwarder",
      "outputs": [
        {
          "internalType": "address",
          "name": "",
          "type": "address"
        }
      ],
      "stateMutability": "view",
      "type": "function"
    },
    {
      "inputs": [],
      "name": "unpause",
      "outputs": [],
      "stateMutability": "nonpayable",
      "type": "function"
    },
    {
      "inputs": [
        {
          "internalType": "address",
          "name": "",
          "type": "address"
        }
      ],
      "name": "usdcBalances",
      "outputs": [
        {
          "internalType": "uint256",
          "name": "",
          "type": "uint256"
        }
      ],
      "stateMutability": "view",
      "type": "function"
    },
    {
      "inputs": [
        {
          "internalType": "address",
          "name": "",
          "type": "address"
        }
      ],
      "name": "usdtBalances",
      "outputs": [
        {
          "internalType": "uint256",
          "name": "",
          "type": "uint256"
        }
      ],
      "stateMutability": "view",
      "type": "function"
    },
    {
      "inputs": [
        {
          "internalType": "uint256",
          "name": "",
          "type": "uint256"
        }
      ],
      "name": "userAgents",
      "outputs": [
        {
          "internalType": "address",
          "name": "",
          "type": "address"
        }
      ],
      "stateMutability": "view",
      "type": "function"
    },
    {
      "inputs": [],
      "name": "versionRecipient",
      "outputs": [
        {
          "internalType": "string",
          "name": "",
          "type": "string"
        }
      ],
      "stateMutability": "pure",
      "type": "function"
    },
    {
      "inputs": [
        {
          "internalType": "uint256[]",
          "name": "_chainIds",
          "type": "uint256[]"
        },
        {
          "internalType": "uint256",
          "name": "_sharePerc",
          "type": "uint256"
        },
        {
          "internalType": "uint256",
          "name": "_minterNonce",
          "type": "uint256"
        }
      ],
      "name": "withdraw",
      "outputs": [
        {
          "internalType": "uint256",
          "name": "_feeAmt",
          "type": "uint256"
        }
      ],
      "stateMutability": "payable",
      "type": "function"
    },
    {
      "inputs": [],
      "name": "withdrawFee",
      "outputs": [],
      "stateMutability": "nonpayable",
      "type": "function"
    },
    {
      "inputs": [
        {
          "internalType": "address",
          "name": "_account",
          "type": "address"
        },
        {
          "internalType": "uint256",
          "name": "_sharePerc",
          "type": "uint256"
        },
        {
          "internalType": "uint256",
          "name": "_minterNonce",
          "type": "uint256"
        }
      ],
      "name": "withdrawPercByAgent",
      "outputs": [],
      "stateMutability": "nonpayable",
      "type": "function"
    },
    {
      "stateMutability": "payable",
      "type": "receive"
    }
  ],
  "transactionHash": "0x1135c472e03e52df36a910d1e346c67ae844c96932253698eb85c5260eaab295",
  "args": [],
  "numDeployments": 14,
  "solcInputHash": "60a6728e6c94fe17669b6b3988b0be47",
  "bytecode": "0x608060405234801561001057600080fd5b506151bd806100206000396000f3fe60806040526004361061044b5760003560e01c80637ecebe0011610234578063c54e44eb1161012e578063e941fa78116100b6578063f77de4861161007a578063f77de48614610d4d578063f7bb364c14610d68578063f851a44014610d83578063fb76bb7e14610da4578063fc637c3c14610db257600080fd5b8063e941fa7814610cc1578063e9e81a6a14610ca6578063f203d04714610cd6578063f2ea161814610cf6578063f2fde38b14610d2d57600080fd5b8063cd6c7f2d116100fd578063cd6c7f2d14610c3a578063d547741f14610c4d578063d843a40014610c6d578063e5293eca14610c93578063e629f7b314610ca657600080fd5b8063c54e44eb14610bb9578063c7205bce14610bda578063ca15c87314610bfa578063caffbec714610c1a57600080fd5b80639c82f2a4116101bc578063a8602fea11610180578063a8602fea14610b38578063a99c68c514610b58578063abe57f8714610b02578063af3da2f414610b86578063b390c0ab14610ba657600080fd5b80639c82f2a414610ac25780639e17747a14610ae2578063a0712d6814610b02578063a217fddf14610b15578063a7f4bdce14610b2a57600080fd5b806389a302711161020357806389a3027114610a2b5780638af5de7214610a4c5780638da5cb5b14610a635780639010d07c14610a8257806391d1485414610aa257600080fd5b80637ecebe00146109a85780638033a805146109d65780638456cb59146109f6578063897fd46914610a0b57600080fd5b8063407a2e9811610345578063582712b1116102cd5780636ebf33ce116102915780636ebf33ce146108fc5780636f6a886214610933578063704b6c0214610953578063715018a6146109735780637da0a8771461098857600080fd5b8063582712b1146108705780635c975abb146108905780635f2b3737146108a8578063615ce6b4146108c857806363032feb146108db57600080fd5b8063486ff0cd11610314578063486ff0cd146107a25780634d944755146107d2578063572b6c05146107f257806357cdd7f914610821578063582489cb1461084257600080fd5b8063407a2e981461071357806343a463c7146107415780634626402b14610761578063472c38ff1461078257600080fd5b8063218253cc116103d35780632f2ff15d116103975780632f2ff15d1461066057806331e8df891461068057806336568abe146106a057806339dacedb146106c05780633f4ba83a146106fe57600080fd5b8063218253cc146105bd578063248a9ca3146105d0578063278758a81461060057806328054fb7146106205780632aaf62d71461064057600080fd5b80630d8b76a81161041a5780630d8b76a8146105165780631459457a14610538578063187f3c541461055857806319463093146105865780631a5787d8146105a657600080fd5b8063013dee701461045757806301ffc9a71461049557806302a882e6146104c55780630c3a1821146104f557600080fd5b3661045257005b600080fd5b34801561046357600080fd5b5061019554610478906001600160a01b031681565b6040516001600160a01b0390911681526020015b60405180910390f35b3480156104a157600080fd5b506104b56104b0366004614468565b610dd2565b604051901515815260200161048c565b3480156104d157600080fd5b506104e760008051602061516883398151915281565b60405190815260200161048c565b34801561050157600080fd5b5061016654610478906001600160a01b031681565b34801561052257600080fd5b50610536610531366004614498565b610dfd565b005b34801561054457600080fd5b506105366105533660046144b5565b610e72565b34801561056457600080fd5b506104e7610573366004614526565b61016c6020526000908152604090205481565b34801561059257600080fd5b506104e76105a13660046145f4565b611025565b3480156105b257600080fd5b506104e76101925481565b6104e76105cb366004614727565b611071565b3480156105dc57600080fd5b506104e76105eb366004614526565b60009081526097602052604090206001015490565b34801561060c57600080fd5b5061053661061b366004614498565b611083565b34801561062c57600080fd5b5061053661063b3660046147ae565b6111ca565b34801561064c57600080fd5b5061053661065b366004614526565b6111d8565b34801561066c57600080fd5b5061053661067b3660046147ec565b61122d565b34801561068c57600080fd5b5061053661069b366004614498565b611257565b3480156106ac57600080fd5b506105366106bb3660046147ec565b6112db565b3480156106cc57600080fd5b506106f16106db366004614526565b61016a6020526000908152604090205460ff1681565b60405161048c9190614832565b34801561070a57600080fd5b50610536611365565b34801561071f57600080fd5b506104e761072e366004614468565b61016b6020526000908152604090205481565b34801561074d57600080fd5b5061053661075c36600461485a565b6116b2565b34801561076d57600080fd5b5061016d54610478906001600160a01b031681565b34801561078e57600080fd5b5061053661079d36600461488f565b611744565b3480156107ae57600080fd5b5060408051808201825260018152603160f81b6020820152905161048c919061492f565b3480156107de57600080fd5b506105366107ed366004614942565b61183a565b3480156107fe57600080fd5b506104b561080d366004614498565b6000546001600160a01b0391821691161490565b34801561082d57600080fd5b5061016754610478906001600160a01b031681565b34801561084e57600080fd5b506104e761085d366004614498565b6101656020526000908152604090205481565b34801561087c57600080fd5b5061053661088b366004614a65565b6118fa565b34801561089c57600080fd5b5060fb5460ff166104b5565b3480156108b457600080fd5b506105366108c3366004614ae2565b611909565b6104e76108d6366004614b3b565b611a21565b3480156108e757600080fd5b5061019454610478906001600160a01b031681565b34801561090857600080fd5b50610478610917366004614526565b610169602052600090815260409020546001600160a01b031681565b34801561093f57600080fd5b5061053661094e366004614b5d565b611b0d565b34801561095f57600080fd5b5061053661096e366004614498565b611bc2565b34801561097f57600080fd5b50610536611c2f565b34801561099457600080fd5b50600054610478906001600160a01b031681565b3480156109b457600080fd5b506104e76109c3366004614498565b6101606020526000908152604090205481565b3480156109e257600080fd5b506105366109f1366004614498565b611c83565b348015610a0257600080fd5b50610536611d38565b348015610a1757600080fd5b50610536610a26366004614ba9565b611e2d565b348015610a3757600080fd5b5061016254610478906001600160a01b031681565b348015610a5857600080fd5b506104e76101965481565b348015610a6f57600080fd5b5061012d546001600160a01b0316610478565b348015610a8e57600080fd5b50610478610a9d366004614b3b565b611f42565b348015610aae57600080fd5b506104b5610abd3660046147ec565b611f61565b348015610ace57600080fd5b50610536610add366004614498565b611f8c565b348015610aee57600080fd5b50610536610afd366004614498565b612010565b6104e7610b10366004614526565b612094565b348015610b2157600080fd5b506104e7600081565b6104e76105cb366004614c02565b348015610b4457600080fd5b50610536610b53366004614498565b6120a4565b348015610b6457600080fd5b506104e7610b73366004614498565b6101646020526000908152604090205481565b348015610b9257600080fd5b50610536610ba1366004614c4f565b612158565b6104e7610bb4366004614b3b565b612160565b348015610bc557600080fd5b5061016354610478906001600160a01b031681565b348015610be657600080fd5b506104b5610bf5366004614c7b565b612171565b348015610c0657600080fd5b506104e7610c15366004614526565b6122fe565b348015610c2657600080fd5b50610536610c35366004614526565b612315565b6104e7610c48366004614d1e565b61231d565b348015610c5957600080fd5b50610536610c683660046147ec565b612327565b348015610c7957600080fd5b50610193546104789061010090046001600160a01b031681565b6104e7610ca1366004614b3b565b61234c565b348015610cb257600080fd5b5061053661063b36600461485a565b348015610ccd57600080fd5b506105366124ce565b348015610ce257600080fd5b50610536610cf1366004614d6d565b61252f565b348015610d0257600080fd5b50610478610d11366004614526565b610168602052600090815260409020546001600160a01b031681565b348015610d3957600080fd5b50610536610d48366004614498565b612842565b348015610d5957600080fd5b50610536610c35366004614498565b348015610d7457600080fd5b50610193546104b59060ff1681565b348015610d8f57600080fd5b5061015f54610478906001600160a01b031681565b6104e7610bb4366004614ae2565b348015610dbe57600080fd5b50610536610dcd366004614498565b612898565b60006001600160e01b03198216635a05180f60e01b1480610df75750610df78261290b565b92915050565b610e05612940565b6001600160a01b0316610e2161012d546001600160a01b031690565b6001600160a01b031614610e505760405162461bcd60e51b8152600401610e4790614e16565b60405180910390fd5b600080546001600160a01b0319166001600160a01b0392909216919091179055565b6000610e7e600161294f565b90508015610e9a576000805460ff60a81b1916600160a81b1790555b6001600160a01b038616610ee35760405162461bcd60e51b815260206004820152601060248201526f1d1c99585cdd5c9e481a5b9d985b1a5960821b6044820152606401610e47565b610eeb6129ef565b610f086000610f0361012d546001600160a01b031690565b612a28565b610f10612a32565b610f1a6001612aba565b61016280546001600160a01b0319166001600160a01b0392909216919091179055610f456000612aba565b61016380546001600160a01b03199081166001600160a01b039384161790915561016d8054821689841617905561015f8054909116918716919091179055610f8c84611f8c565b610f9583612010565b610f9e82611257565b6305e5a4c160e11b60005261016b602052620283077f2d70e6734fd5e0405ac12bd06c0e35dc8bbf9b8fc8cb72137e2af4c27ee1170155801561101d576000805460ff60a81b19169055604051600181527f7f26b83ff96e1f2b6a682f133852f6798a09c465da95921460cefb38474024989060200160405180910390a15b505050505050565b805160209182012060015460408051601960f81b81860152600160f81b602182015260228101929092526042808301939093528051808303909301835260629091019052805191012090565b600061107b612d18565b509392505050565b61108b612940565b6001600160a01b03166110a761012d546001600160a01b031690565b6001600160a01b0316146110cd5760405162461bcd60e51b8152600401610e4790614e16565b610194546001600160a01b031680156110f957610163546110f9906001600160a01b0316826000612d99565b61019480546001600160a01b0319166001600160a01b038416908117909155158015906111a7575061016354604051636eb1769f60e11b81523060048201526001600160a01b0384811660248301529091169063dd62ed3e9060440160206040518083038186803b15801561116d57600080fd5b505afa158015611181573d6000803e3d6000fd5b505050506040513d601f19601f820116820180604052508101906111a59190614e4b565b155b156111c657610163546111c6906001600160a01b031683600019612d99565b5050565b6111d2612d18565b50505050565b6000805160206151688339815191526111f081612edf565b6101968290556040518281527fd7d38c38bbd30bbca4f00bb551cbb24ecefef53d6dd0165fb1ebee05277234dc9060200160405180910390a15050565b60008281526097602052604090206001015461124881612edf565b6112528383612ef0565b505050565b61125f612940565b6001600160a01b031661127b61012d546001600160a01b031690565b6001600160a01b0316146112a15760405162461bcd60e51b8152600401610e4790614e16565b610167546112b8906001600160a01b031682612f12565b61016780546001600160a01b0319166001600160a01b0392909216919091179055565b6112e3612940565b6001600160a01b0316816001600160a01b03161461135b5760405162461bcd60e51b815260206004820152602f60248201527f416363657373436f6e74726f6c3a2063616e206f6e6c792072656e6f756e636560448201526e103937b632b9903337b91039b2b63360891b6064820152608401610e47565b6111c68282612fe4565b61136d612940565b6001600160a01b031661138961012d546001600160a01b031690565b6001600160a01b0316146113af5760405162461bcd60e51b8152600401610e4790614e16565b60fb5460ff166113f85760405162461bcd60e51b815260206004820152601460248201527314185d5cd8589b194e881b9bdd081c185d5cd95960621b6044820152606401610e47565b611400613006565b6101635461016654604051636eb1769f60e11b81523060048201526001600160a01b03918216602482015291169063dd62ed3e9060440160206040518083038186803b15801561144f57600080fd5b505afa158015611463573d6000803e3d6000fd5b505050506040513d601f19601f820116820180604052508101906114879190614e4b565b6114ac5761016654610163546114ac916001600160a01b039182169116600019612d99565b6101625461016654604051636eb1769f60e11b81523060048201526001600160a01b03918216602482015291169063dd62ed3e9060440160206040518083038186803b1580156114fb57600080fd5b505afa15801561150f573d6000803e3d6000fd5b505050506040513d601f19601f820116820180604052508101906115339190614e4b565b611558576101665461016254611558916001600160a01b039182169116600019612d99565b6101635461016754604051636eb1769f60e11b81523060048201526001600160a01b03918216602482015291169063dd62ed3e9060440160206040518083038186803b1580156115a757600080fd5b505afa1580156115bb573d6000803e3d6000fd5b505050506040513d601f19601f820116820180604052508101906115df9190614e4b565b611604576101675461016354611604916001600160a01b039182169116600019612d99565b6101625461016754604051636eb1769f60e11b81523060048201526001600160a01b03918216602482015291169063dd62ed3e9060440160206040518083038186803b15801561165357600080fd5b505afa158015611667573d6000803e3d6000fd5b505050506040513d601f19601f8201168201806040525081019061168b9190614e4b565b6116b05761016754610162546116b0916001600160a01b039182169116600019612d99565b565b6000805160206151688339815191526116ca81612edf565b610193546040516343a463c760e01b81526001600160a01b0386811660048301526024820186905260448201859052610100909204909116906343a463c790606401600060405180830381600087803b15801561172657600080fd5b505af115801561173a573d6000803e3d6000fd5b5050505050505050565b610167546001600160a01b0316331461178e5760405162461bcd60e51b815260206004820152600c60248201526b4f6e6c79206342726964676560a01b6044820152606401610e47565b60008581526101686020526040902054610163546001600160a01b0391821691868116911614156117ed576001600160a01b03811660009081526101656020526040812080548692906117e2908490614e7a565b9091555061101d9050565b610162546001600160a01b038681169116141561101d576001600160a01b038116600090815261016460205260408120805486929061182d908490614e7a565b9091555050505050505050565b611842612940565b6001600160a01b031661185e61012d546001600160a01b031690565b6001600160a01b0316146118845760405162461bcd60e51b8152600401610e4790614e16565b60005b82518110156112525760008382815181106118a4576118a4614e92565b602002602001015190508282815181106118c0576118c0614e92565b6020908102919091018101516001600160e01b0319909216600090815261016b9091526040902055806118f281614ea8565b915050611887565b611902612d18565b5050505050565b611911612940565b6001600160a01b031661192d61012d546001600160a01b031690565b6001600160a01b0316146119535760405162461bcd60e51b8152600401610e4790614e16565b815160005b818110156111d257600084828151811061197457611974614e92565b6020026020010151905080600014156119c15760405162461bcd60e51b815260206004820152600f60248201526e125b9d985b1a590818da185a5b9251608a1b6044820152606401610e47565b8382815181106119d3576119d3614e92565b602090810291909101810151600083815261016a9092526040909120805460ff191660018381811115611a0857611a0861481c565b0217905550508080611a1990614ea8565b915050611958565b6000611a2b612940565b6001600160a01b0316611a4761012d546001600160a01b031690565b6001600160a01b031614611a6d5760405162461bcd60e51b8152600401610e4790614e16565b6000611a77612940565b61019354909150349060ff16611af5576040805160248082018790528251808303909101815260449091018252602080820180516001600160e01b0316632aaf62d760e01b9081179091526000898152610169909252928120549192611aee9289926001600160a01b03909116918590878361309f565b9094509150505b8015611b0557611b0582826132b4565b505092915050565b611b15612940565b6001600160a01b0316611b3161012d546001600160a01b031690565b6001600160a01b031614611b575760405162461bcd60e51b8152600401610e4790614e16565b60005b8251811015611252576000838281518110611b7757611b77614e92565b60200260200101519050828281518110611b9357611b93614e92565b602090810291909101810151600092835261016c90915260409091205580611bba81614ea8565b915050611b5a565b611bca612940565b6001600160a01b0316611be661012d546001600160a01b031690565b6001600160a01b031614611c0c5760405162461bcd60e51b8152600401610e4790614e16565b61015f80546001600160a01b0319166001600160a01b0392909216919091179055565b611c37612940565b6001600160a01b0316611c5361012d546001600160a01b031690565b6001600160a01b031614611c795760405162461bcd60e51b8152600401610e4790614e16565b6116b06000613367565b611c8b612940565b6001600160a01b0316611ca761012d546001600160a01b031690565b6001600160a01b031614611ccd5760405162461bcd60e51b8152600401610e4790614e16565b6001600160a01b038116611d155760405162461bcd60e51b815260206004820152600f60248201526e496e76616c6964206164647265737360881b6044820152606401610e47565b61019580546001600160a01b0319166001600160a01b0392909216919091179055565b611d40612940565b6001600160a01b0316611d5c61012d546001600160a01b031690565b6001600160a01b031614611d825760405162461bcd60e51b8152600401610e4790614e16565b60fb5460ff1615611da55760405162461bcd60e51b8152600401610e4790614ec3565b611dad6133ba565b6101665461016354611dcd916001600160a01b0391821691166000612d99565b6101665461016254611ded916001600160a01b0391821691166000612d99565b6101675461016354611e0d916001600160a01b0391821691166000612d99565b61016754610162546116b0916001600160a01b0391821691166000612d99565b611e35612940565b6001600160a01b0316611e5161012d546001600160a01b031690565b6001600160a01b031614611e775760405162461bcd60e51b8152600401610e4790614e16565b815160005b818110156111d2576000848281518110611e9857611e98614e92565b602002602001015190508060001415611ee55760405162461bcd60e51b815260206004820152600f60248201526e125b9d985b1a590818da185a5b9251608a1b6044820152606401610e47565b838281518110611ef757611ef7614e92565b6020908102919091018101516000928352610169909152604090912080546001600160a01b0319166001600160a01b0390921691909117905580611f3a81614ea8565b915050611e7c565b600082815260c960205260408120611f5a9083613413565b9392505050565b60009182526097602090815260408084206001600160a01b0393909316845291905290205460ff1690565b611f94612940565b6001600160a01b0316611fb061012d546001600160a01b031690565b6001600160a01b031614611fd65760405162461bcd60e51b8152600401610e4790614e16565b61016154611fed906001600160a01b03168261341f565b61016180546001600160a01b0319166001600160a01b0392909216919091179055565b612018612940565b6001600160a01b031661203461012d546001600160a01b031690565b6001600160a01b03161461205a5760405162461bcd60e51b8152600401610e4790614e16565b61016654612071906001600160a01b031682612f12565b61016680546001600160a01b0319166001600160a01b0392909216919091179055565b600061209e612d18565b50919050565b6120ac612940565b6001600160a01b03166120c861012d546001600160a01b031690565b6001600160a01b0316146120ee5760405162461bcd60e51b8152600401610e4790614e16565b6001600160a01b0381166121355760405162461bcd60e51b815260206004820152600e60248201526d1dd85b1b195d081a5b9d985b1a5960921b6044820152606401610e47565b61016d80546001600160a01b0319166001600160a01b0392909216919091179055565b611252612d18565b600061216a612d18565b5092915050565b60008061217d85611025565b90506001600160a01b0386163b156121d9576121d186828787878080601f0160208091040260200160405190810160405280939291908181526020018383808284376000920191909152506134a792505050565b9150506122f6565b600080600061221d87878080601f01602080910402602001604051908101604052809392919081815260200183838082843760009201829052509250613543915050565b6040517f19457468657265756d205369676e6564204d6573736167653a0a3332000000006020820152603c81018890529295509093509150600090605c0160408051601f198184030181528282528051602091820120600080855291840180845281905260ff88169284019290925260608301869052608083018590529092509060019060a0016020604051602081039080840390855afa1580156122c6573d6000803e3d6000fd5b5050506020604051035190508a6001600160a01b0316816001600160a01b03161496505050505050506122f6565b505b949350505050565b600081815260c960205260408120610df790613561565b6111c6612d18565b60006122f4612d18565b60008281526097602052604090206001015461234281612edf565b6112528383612fe4565b600061235a60fb5460ff1690565b156123775760405162461bcd60e51b8152600401610e4790614ec3565b61237f612940565b6001600160a01b031661239b61012d546001600160a01b031690565b6001600160a01b0316146123c15760405162461bcd60e51b8152600401610e4790614e16565b60006123cb612940565b61019354909150349060ff161561245557610193546040516343a463c760e01b81526001600160a01b0384811660048301526024820188905260448201879052610100909204909116906343a463c790606401600060405180830381600087803b15801561243857600080fd5b505af115801561244c573d6000803e3d6000fd5b50505050611af5565b604080516001600160a01b0384811660248301526044820188905260648083018890528351808403909101815260849092018352602080830180516001600160e01b03166343a463c760e01b908117909152610192546000818152610169909352948220549394611aee9490931691908590878361309f565b6124d6612940565b6001600160a01b03166124f261012d546001600160a01b031690565b6001600160a01b0316146125185760405162461bcd60e51b8152600401610e4790614e16565b61016d546116b0906001600160a01b0316476132b4565b600061253b600161294f565b90508015612557576000805460ff60a81b1916600160a81b1790555b61255f6129ef565b6125776000610f0361012d546001600160a01b031690565b61257f612a32565b612589600161356b565b61016280546001600160a01b0319166001600160a01b03929092169190911790556125b2613833565b61016380546001600160a01b03199081166001600160a01b039384161790915561016d805482168b841617905561015f80549091169189169190911790556125f986611f8c565b61260285612010565b61260b84611257565b61019580546001600160a01b0319166001600160a01b038b1617905561a8696101925546610192546101938054634e45415360005261016a6020527f6c585d855e16497087f6ed093c621ebf17e5140687c03b009023a4cdb199a0f4805460ff191660011790556001600160a01b03871661010002610100600160a81b031994909314939093166001600160a81b0319909316929092171790556126ae82611083565b61016b6020526202085d7f0b582bb3eaff83dbf968c6793272c3caad7548876a22f91aaf9608b413010a22556202910d7fa7f4e7f52e00151b36175de5336a3c4fbbb63a58db2d4ee345354204e526a978556202588f7f456aa95b1d4171a6b7ceeed07677ec362a126f3f126e752f92758f752c0c9dc955620110d57f6a8619f610ec0326db9663f5c30929f4c448994d4ba02f45f6c43739d22e2f28556208dc467fb14f9cbe4209fb26e504871c5d11cda7e1994f33d3b370eeb16841fe270ba62055620aef877f88ab0bc2526ea72b44a73e5e031479419bac4d6bbf7210c298ba94837583e2c45562068ad17fbcd6055bbe7cf8314f1536581757352700e9e4b538962a30acb2bd9e2d141044556305e5a4c160e11b600052620283077f2d70e6734fd5e0405ac12bd06c0e35dc8bbf9b8fc8cb72137e2af4c27ee11701558015612837576000805460ff60a81b19169055604051600181527f7f26b83ff96e1f2b6a682f133852f6798a09c465da95921460cefb38474024989060200160405180910390a15b505050505050505050565b61284a612940565b6001600160a01b031661286661012d546001600160a01b031690565b6001600160a01b03161461288c5760405162461bcd60e51b8152600401610e4790614e16565b6128958161391d565b50565b6128a0612940565b6001600160a01b03166128bc61012d546001600160a01b031690565b6001600160a01b0316146128e25760405162461bcd60e51b8152600401610e4790614e16565b61019380546001600160a01b0390921661010002610100600160a81b0319909216919091179055565b60006001600160e01b03198216637965db0b60e01b1480610df757506301ffc9a760e01b6001600160e01b0319831614610df7565b600061294a613998565b905090565b60008054600160a81b900460ff1615612998578160ff1660011480156129745750303b155b6129905760405162461bcd60e51b8152600401610e4790614eed565b506000919050565b60005460ff808416600160a01b90920416106129c65760405162461bcd60e51b8152600401610e4790614eed565b506000805460ff909216600160a01b0260ff60a01b19909216919091179055600190565b919050565b600054600160a81b900460ff16612a185760405162461bcd60e51b8152600401610e4790614f3b565b6116b0612a23612940565b613367565b6111c68282612ef0565b600054600160a81b900460ff16612a5b5760405162461bcd60e51b8152600401610e4790614f3b565b612ab560007f47e79534a245952e8b16893a336b85a3d9ea9fa8c573f3d803afb92a794692184660408051602081019390935282015230606082015260800160405160208183030381529060405280519060200120905090565b600155565b600046634e454152811415612b3a576001836001811115612add57612add61481c565b1415612aff575073b12bfca5a55806aaf64e99521918a4bf0fc4080292915050565b6000836001811115612b1357612b1361481c565b1415612b355750734988a896b1227218e4a686fde5eabdcabd91571f92915050565b612d0f565b61a86a811415612bb0576001836001811115612b5857612b5861481c565b1415612b7a575073a7d7079b0fead91f3e65f86e8915cb59c1a4c66492915050565b6000836001811115612b8e57612b8e61481c565b1415612b35575073c7198437980c041c805a1edcba50c1ce5db9511892915050565b6038811415612c25576001836001811115612bcd57612bcd61481c565b1415612bef5750738ac76a51cc950d9822d68b83fe1ad97b32cd580d92915050565b6000836001811115612c0357612c0361481c565b1415612b3557507355d398326f99059ff775485246999027b319795592915050565b6001811415612c9a576001836001811115612c4257612c4261481c565b1415612c64575073a0b86991c6218b36c1d19d4a2e9eb0ce3606eb4892915050565b6000836001811115612c7857612c7861481c565b1415612b35575073dac17f958d2ee523a2206206994597c13d831ec792915050565b6089811415612d0f576001836001811115612cb757612cb761481c565b1415612cd95750732791bca1f2de4661ed88a30c99a7a9449aa8417492915050565b6000836001811115612ced57612ced61481c565b1415612d0f575073c2132d05d31c914a87c6611c10748aeb04b58e8f92915050565b50600092915050565b610195546040516060916000916001600160a01b0390911690612d3e9083903690614f86565b600060405180830381855af49150503d8060008114612d79576040519150601f19603f3d011682016040523d82523d6000602084013e612d7e565b606091505b505090506040513d6000823e818015612d95573d82f35b3d82fd5b801580612e225750604051636eb1769f60e11b81523060048201526001600160a01b03838116602483015284169063dd62ed3e9060440160206040518083038186803b158015612de857600080fd5b505afa158015612dfc573d6000803e3d6000fd5b505050506040513d601f19601f82011682018060405250810190612e209190614e4b565b155b612e8d5760405162461bcd60e51b815260206004820152603660248201527f5361666545524332303a20617070726f76652066726f6d206e6f6e2d7a65726f60448201527520746f206e6f6e2d7a65726f20616c6c6f77616e636560501b6064820152608401610e47565b604080516001600160a01b038416602482015260448082018490528251808303909101815260649091019091526020810180516001600160e01b031663095ea7b360e01b1790526112529084906139cc565b61289581612eeb612940565b613a9e565b612efa8282613b02565b600082815260c9602052604090206112529082613b89565b806001600160a01b0316826001600160a01b03161415612f30575050565b6001600160a01b03821615612f8957612f5760008051602061516883398151915283612fe4565b61016354612f70906001600160a01b0316836000612d99565b61016254612f89906001600160a01b0316836000612d99565b6001600160a01b038116156111c657612fb060008051602061516883398151915282612a28565b61016254612fca906001600160a01b031682600019612d99565b610163546111c6906001600160a01b031682600019612d99565b612fee8282613b9e565b600082815260c9602052604090206112529082613c23565b60fb5460ff1661304f5760405162461bcd60e51b815260206004820152601460248201527314185d5cd8589b194e881b9bdd081c185d5cd95960621b6044820152606401610e47565b60fb805460ff191690557f5db9ee0a495bf2e6ff9c91a7834c1ba4fdd244a5e8aa4e537bd38aeae4b073aa613082612940565b6040516001600160a01b03909116815260200160405180910390a1565b6000826001600160a01b0388166130f15760405162461bcd60e51b8152602060048201526016602482015275125b9d985b1a59081d185c99d95d10dbdb9d1c9858dd60521b6044820152606401610e47565b60008060008b815261016a602052604090205460ff1660018111156131185761311861481c565b1461312f57610167546001600160a01b031661313d565b610166546001600160a01b03165b90506000816001600160a01b031663bebc4f718c8c8c8c6040518563ffffffff1660e01b81526004016131739493929190614f96565b60206040518083038186803b15801561318b57600080fd5b505afa15801561319f573d6000803e3d6000fd5b505050506040513d601f19601f820116820180604052508101906131c39190614e4b565b610167549094508491506001600160a01b03838116911614156132215760008b815261016c60209081526040808320546001600160e01b03198b16845261016b909252909120546132149190614fc3565b61321e9085614e7a565b93505b8415801561322f5750838310155b156132a65761323e8484614fe2565b9250816001600160a01b03166377cae758828d8d8d8d6040518663ffffffff1660e01b81526004016132739493929190614f96565b6000604051808303818588803b15801561328c57600080fd5b505af11580156132a0573d6000803e3d6000fd5b50505050505b505097509795505050505050565b604080516000808252602082019092526001600160a01b0384169083906040516132de9190614ff9565b60006040518083038185875af1925050503d806000811461331b576040519150601f19603f3d011682016040523d82523d6000602084013e613320565b606091505b50509050806112525760405162461bcd60e51b8152602060048201526013602482015272115512081d1c985b9cd9995c8819985a5b1959606a1b6044820152606401610e47565b61012d80546001600160a01b038381166001600160a01b0319831681179093556040519116919082907f8be0079c531659141344cd1fd0a4f28419497f9722a3daafe3b4186f6b6457e090600090a35050565b60fb5460ff16156133dd5760405162461bcd60e51b8152600401610e4790614ec3565b60fb805460ff191660011790557f62e78cea01bee320cd4e420270b5ea74000d11b0c9f74754ebdbfc544b05a258613082612940565b6000611f5a8383613c38565b806001600160a01b0316826001600160a01b0316141561343d575050565b6001600160a01b0382161561347e5761016354613465906001600160a01b0316836000612d99565b6101625461347e906001600160a01b0316836000612d99565b6001600160a01b038116156111c65761016254612fca906001600160a01b031682600019612d99565b600080856001600160a01b031663e75235b86040518163ffffffff1660e01b815260040160206040518083038186803b1580156134e357600080fd5b505afa1580156134f7573d6000803e3d6000fd5b505050506040513d601f19601f8201168201806040525081019061351b9190614e4b565b90508061352c5760009150506122f6565b6135398686868685613c62565b9695505050505050565b60419081029190910160208101516040820151919092015160ff1692565b6000610df7825490565b600046634e4541538114156135e657600183600181111561358e5761358e61481c565b14156135b0575073cceca5c4a3355f8e7a0b7d2a7251eec012be7c5892915050565b60008360018111156135c4576135c461481c565b1415612b35575073f9c249974c1acf96a59e5757cc9ba7035ce489b192915050565b61a86981141561365c5760018360018111156136045761360461481c565b14156136265750737acdaba7ee51c1c3f7c6d605cc26b1c9aab0495a92915050565b600083600181111561363a5761363a61481c565b1415612b3557507378ae2880bd1672b49a33cf796cf53fe6db0ab01d92915050565b60618114156136d15760018360018111156136795761367961481c565b141561369b575073da14d11d2c7d79f167b6057de3d9cc25c2c488d592915050565b60008360018111156136af576136af61481c565b1415612b355750731f326a8ca5399418a76ea0efa0403cbb00790c6792915050565b60048114156137465760018360018111156136ee576136ee61481c565b1415613710575073df5324ebe6f6b852ff5cbf73627ee137e907527692915050565b60008360018111156137245761372461481c565b1415612b3557507321e48034753e490ff04f2f75f7caedf081b320d592915050565b610fa28114156137bc5760018360018111156137645761376461481c565b1415613786575073147abee959a578f2ae5f9bc996dcf6259ebd3a8992915050565b600083600181111561379a5761379a61481c565b1415612b35575073b02068ae04bf5d184efde3583e09f2185a30da0e92915050565b62013881811415612d0f5760018360018111156137db576137db61481c565b14156137fd5750736600bec324ccdd12c70297311aefb37fafb1d68992915050565b60008360018111156138115761381161481c565b1415612d0f5750737e4c234b1d634db790592d1550816b19e862f74492915050565b600046634e45415381141561385d5773f9c249974c1acf96a59e5757cc9ba7035ce489b191505090565b61a869811415613882577378ae2880bd1672b49a33cf796cf53fe6db0ab01d91505090565b60618114156138a657737d43aabc515c356145049227cee54b608342c0ad91505090565b60048114156138ca577321e48034753e490ff04f2f75f7caedf081b320d591505090565b610fa28114156138ef57737d43aabc515c356145049227cee54b608342c0ad91505090565b6201388181141561391557737e4c234b1d634db790592d1550816b19e862f74491505090565b600091505090565b613925612940565b6001600160a01b031661394161012d546001600160a01b031690565b6001600160a01b0316146139675760405162461bcd60e51b8152600401610e4790614e16565b613984600061397f61012d546001600160a01b031690565b612fe4565b61398d81613ebe565b612895600082612a28565b6000601836108015906139b557506000546001600160a01b031633145b156139c7575060131936013560601c90565b503390565b6000613a21826040518060400160405280602081526020017f5361666545524332303a206c6f772d6c6576656c2063616c6c206661696c6564815250856001600160a01b0316613f769092919063ffffffff16565b8051909150156112525780806020019051810190613a3f9190615015565b6112525760405162461bcd60e51b815260206004820152602a60248201527f5361666545524332303a204552433230206f7065726174696f6e20646964206e6044820152691bdd081cdd58d8d9595960b21b6064820152608401610e47565b613aa88282611f61565b6111c657613ac0816001600160a01b03166014613f85565b613acb836020613f85565b604051602001613adc929190615037565b60408051601f198184030181529082905262461bcd60e51b8252610e479160040161492f565b613b0c8282611f61565b6111c65760008281526097602090815260408083206001600160a01b03851684529091529020805460ff19166001179055613b45612940565b6001600160a01b0316816001600160a01b0316837f2f8788117e7eff1d82e926ec794901d17c78024a50270940304540a733656f0d60405160405180910390a45050565b6000611f5a836001600160a01b038416614120565b613ba88282611f61565b156111c65760008281526097602090815260408083206001600160a01b03851684529091529020805460ff19169055613bdf612940565b6001600160a01b0316816001600160a01b0316837ff6391f5c32d9c69d2a47ea670b442974b53935d1edc7fd64eb21e047a839171b60405160405180910390a45050565b6000611f5a836001600160a01b03841661416f565b6000826000018281548110613c4f57613c4f614e92565b9060005260206000200154905092915050565b6000613c6f826041614fc3565b83511015613c7f57506000613eb5565b600080876001600160a01b031663a0e67e2b6040518163ffffffff1660e01b815260040160006040518083038186803b158015613cbb57600080fd5b505afa158015613ccf573d6000803e3d6000fd5b505050506040513d6000823e601f3d908101601f19168201604052613cf791908101906150ac565b905060008080805b87811015613eaa5760418181028a0160208101516040820151919092015160ff169550909350915083613dda579194508491613d3c886041614fc3565b821015613d525760009650505050505050613eb5565b8851613d5f836020614e7a565b1115613d745760009650505050505050613eb5565b6020828a018101518a5190918290613d8d908690614e7a565b613d979190614e7a565b1115613dad576000975050505050505050613eb5565b898301602001613dbe888d83614262565b613dd357600098505050505050505050613eb5565b5050613e7b565b6040517f19457468657265756d205369676e6564204d6573736167653a0a3332000000006020820152603c81018c9052600190605c0160408051601f198184030181528282528051602091820120600084529083018083525260ff871690820152606081018590526080810184905260a0016020604051602081039080840390855afa158015613e6e573d6000803e3d6000fd5b5050506020604051035195505b613e85858761427c565b613e985760009650505050505050613eb5565b80613ea281614ea8565b915050613cff565b600196505050505050505b95945050505050565b613ec6612940565b6001600160a01b0316613ee261012d546001600160a01b031690565b6001600160a01b031614613f085760405162461bcd60e51b8152600401610e4790614e16565b6001600160a01b038116613f6d5760405162461bcd60e51b815260206004820152602660248201527f4f776e61626c653a206e6577206f776e657220697320746865207a65726f206160448201526564647265737360d01b6064820152608401610e47565b61289581613367565b60606122f684846000856142e6565b60606000613f94836002614fc3565b613f9f906002614e7a565b6001600160401b03811115613fb657613fb661453f565b6040519080825280601f01601f191660200182016040528015613fe0576020820181803683370190505b509050600360fc1b81600081518110613ffb57613ffb614e92565b60200101906001600160f81b031916908160001a905350600f60fb1b8160018151811061402a5761402a614e92565b60200101906001600160f81b031916908160001a905350600061404e846002614fc3565b614059906001614e7a565b90505b60018111156140d1576f181899199a1a9b1b9c1cb0b131b232b360811b85600f166010811061408d5761408d614e92565b1a60f81b8282815181106140a3576140a3614e92565b60200101906001600160f81b031916908160001a90535060049490941c936140ca8161513a565b905061405c565b508315611f5a5760405162461bcd60e51b815260206004820181905260248201527f537472696e67733a20686578206c656e67746820696e73756666696369656e746044820152606401610e47565b600081815260018301602052604081205461416757508154600181810184556000848152602080822090930184905584548482528286019093526040902091909155610df7565b506000610df7565b60008181526001830160205260408120548015614258576000614193600183614fe2565b85549091506000906141a790600190614fe2565b905081811461420c5760008660000182815481106141c7576141c7614e92565b90600052602060002001549050808760000184815481106141ea576141ea614e92565b6000918252602080832090910192909255918252600188019052604090208390555b855486908061421d5761421d615151565b600190038181906000526020600020016000905590558560010160008681526020019081526020016000206000905560019350505050610df7565b6000915050610df7565b60008061426e84611025565b9050613eb5858286866134a7565b8151600090815b818110156142db57836001600160a01b03168582815181106142a7576142a7614e92565b60200260200101516001600160a01b031614156142c957600192505050610df7565b806142d381614ea8565b915050614283565b506000949350505050565b6060824710156143475760405162461bcd60e51b815260206004820152602660248201527f416464726573733a20696e73756666696369656e742062616c616e636520666f6044820152651c8818d85b1b60d21b6064820152608401610e47565b6001600160a01b0385163b61439e5760405162461bcd60e51b815260206004820152601d60248201527f416464726573733a2063616c6c20746f206e6f6e2d636f6e74726163740000006044820152606401610e47565b600080866001600160a01b031685876040516143ba9190614ff9565b60006040518083038185875af1925050503d80600081146143f7576040519150601f19603f3d011682016040523d82523d6000602084013e6143fc565b606091505b509150915061440c828286614417565b979650505050505050565b60608315614426575081611f5a565b8251156144365782518084602001fd5b8160405162461bcd60e51b8152600401610e47919061492f565b80356001600160e01b0319811681146129ea57600080fd5b60006020828403121561447a57600080fd5b611f5a82614450565b6001600160a01b038116811461289557600080fd5b6000602082840312156144aa57600080fd5b8135611f5a81614483565b600080600080600060a086880312156144cd57600080fd5b85356144d881614483565b945060208601356144e881614483565b935060408601356144f881614483565b9250606086013561450881614483565b9150608086013561451881614483565b809150509295509295909350565b60006020828403121561453857600080fd5b5035919050565b634e487b7160e01b600052604160045260246000fd5b604051601f8201601f191681016001600160401b038111828210171561457d5761457d61453f565b604052919050565b600082601f83011261459657600080fd5b81356001600160401b038111156145af576145af61453f565b6145c2601f8201601f1916602001614555565b8181528460208386010111156145d757600080fd5b816020850160208301376000918101602001919091529392505050565b60006020828403121561460657600080fd5b81356001600160401b0381111561461c57600080fd5b6122f684828501614585565b60006001600160401b038211156146415761464161453f565b5060051b60200190565b600082601f83011261465c57600080fd5b8135602061467161466c83614628565b614555565b82815260059290921b8401810191818101908684111561469057600080fd5b8286015b848110156146ab5780358352918301918301614694565b509695505050505050565b8035600281106129ea57600080fd5b600082601f8301126146d657600080fd5b813560206146e661466c83614628565b82815260059290921b8401810191818101908684111561470557600080fd5b8286015b848110156146ab5761471a816146b6565b8352918301918301614709565b60008060006060848603121561473c57600080fd5b83356001600160401b038082111561475357600080fd5b61475f8783880161464b565b9450602086013591508082111561477557600080fd5b6147818783880161464b565b9350604086013591508082111561479757600080fd5b506147a4868287016146c5565b9150509250925092565b6000806000606084860312156147c357600080fd5b83356147ce81614483565b9250602084013591506147e3604085016146b6565b90509250925092565b600080604083850312156147ff57600080fd5b82359150602083013561481181614483565b809150509250929050565b634e487b7160e01b600052602160045260246000fd5b602081016002831061485457634e487b7160e01b600052602160045260246000fd5b91905290565b60008060006060848603121561486f57600080fd5b833561487a81614483565b95602085013595506040909401359392505050565b600080600080600060a086880312156148a757600080fd5b8535945060208601356148b981614483565b93506040860135925060608601359150608086013561451881614483565b60005b838110156148f25781810151838201526020016148da565b838111156111d25750506000910152565b6000815180845261491b8160208601602086016148d7565b601f01601f19169290920160200192915050565b602081526000611f5a6020830184614903565b6000806040838503121561495557600080fd5b82356001600160401b038082111561496c57600080fd5b818501915085601f83011261498057600080fd5b8135602061499061466c83614628565b82815260059290921b840181019181810190898411156149af57600080fd5b948201945b838610156149d4576149c586614450565b825294820194908201906149b4565b965050860135925050808211156149ea57600080fd5b506149f78582860161464b565b9150509250929050565b600082601f830112614a1257600080fd5b81356020614a2261466c83614628565b82815260059290921b84018101918181019086841115614a4157600080fd5b8286015b848110156146ab578035614a5881614483565b8352918301918301614a45565b60008060008060808587031215614a7b57600080fd5b8435614a8681614483565b935060208501356001600160401b0380821115614aa257600080fd5b614aae88838901614a01565b94506040870135915080821115614ac457600080fd5b50614ad18782880161464b565b949793965093946060013593505050565b60008060408385031215614af557600080fd5b82356001600160401b0380821115614b0c57600080fd5b614b188683870161464b565b93506020850135915080821115614b2e57600080fd5b506149f7858286016146c5565b60008060408385031215614b4e57600080fd5b50508035926020909101359150565b60008060408385031215614b7057600080fd5b82356001600160401b0380821115614b8757600080fd5b614b938683870161464b565b935060208501359150808211156149ea57600080fd5b60008060408385031215614bbc57600080fd5b82356001600160401b0380821115614bd357600080fd5b614bdf8683870161464b565b93506020850135915080821115614bf557600080fd5b506149f785828601614a01565b600080600060608486031215614c1757600080fd5b83356001600160401b03811115614c2d57600080fd5b614c398682870161464b565b9660208601359650604090950135949350505050565b60008060408385031215614c6257600080fd5b8235614c6d81614483565b946020939093013593505050565b60008060008060608587031215614c9157600080fd5b8435614c9c81614483565b935060208501356001600160401b0380821115614cb857600080fd5b614cc488838901614585565b94506040870135915080821115614cda57600080fd5b818701915087601f830112614cee57600080fd5b813581811115614cfd57600080fd5b886020828501011115614d0f57600080fd5b95989497505060200194505050565b60008060008060808587031215614d3457600080fd5b84356001600160401b0380821115614d4b57600080fd5b614d578883890161464b565b95506020870135915080821115614aa257600080fd5b600080600080600080600080610100898b031215614d8a57600080fd5b8835614d9581614483565b97506020890135614da581614483565b96506040890135614db581614483565b95506060890135614dc581614483565b94506080890135614dd581614483565b935060a0890135614de581614483565b925060c0890135614df581614483565b915060e0890135614e0581614483565b809150509295985092959890939650565b6020808252818101527f4f776e61626c653a2063616c6c6572206973206e6f7420746865206f776e6572604082015260600190565b600060208284031215614e5d57600080fd5b5051919050565b634e487b7160e01b600052601160045260246000fd5b60008219821115614e8d57614e8d614e64565b500190565b634e487b7160e01b600052603260045260246000fd5b6000600019821415614ebc57614ebc614e64565b5060010190565b60208082526010908201526f14185d5cd8589b194e881c185d5cd95960821b604082015260600190565b6020808252602e908201527f496e697469616c697a61626c653a20636f6e747261637420697320616c72656160408201526d191e481a5b9a5d1a585b1a5e995960921b606082015260800190565b6020808252602b908201527f496e697469616c697a61626c653a20636f6e7472616374206973206e6f74206960408201526a6e697469616c697a696e6760a81b606082015260800190565b8183823760009101908152919050565b84815260018060a01b03841660208201528260408201526080606082015260006135396080830184614903565b6000816000190483118215151615614fdd57614fdd614e64565b500290565b600082821015614ff457614ff4614e64565b500390565b6000825161500b8184602087016148d7565b9190910192915050565b60006020828403121561502757600080fd5b81518015158114611f5a57600080fd5b7f416363657373436f6e74726f6c3a206163636f756e742000000000000000000081526000835161506f8160178501602088016148d7565b7001034b99036b4b9b9b4b733903937b6329607d1b60179184019182015283516150a08160288401602088016148d7565b01602801949350505050565b600060208083850312156150bf57600080fd5b82516001600160401b038111156150d557600080fd5b8301601f810185136150e657600080fd5b80516150f461466c82614628565b81815260059190911b8201830190838101908783111561511357600080fd5b928401925b8284101561440c57835161512b81614483565b82529284019290840190615118565b60008161514957615149614e64565b506000190190565b634e487b7160e01b600052603160045260246000fdfedbeb657137b1822b3d5418bea6fd641226d964b4c3871ef23546db2622258871a26469706673582212207820c1798d8ffecf48899efaf6d091d0735bdef2b2047e025a9886c51584142b64736f6c63430008090033",
  "devdoc": {
    "kind": "dev",
    "methods": {
      "burn(uint256,uint256)": {
        "details": "It calls burnByAdmin of BNIMinter.",
        "params": {
          "_pool": "total pool in USD",
          "_share": "amount of shares"
        }
      },
      "deposit(uint256[],address[],uint256[],uint256)": {
        "details": "It calls depositByAdmin of BNIVaults."
      },
      "exitWithdrawal(uint256)": {
        "details": "It calls exitWithdrawalByAdmin of BNIMinter.",
        "params": {
          "_gatheredAmount": "is the amount of token that is gathered."
        }
      },
      "gather(uint256[],uint8[])": {
        "details": "It gathers withdrawn tokens of the user from user agents."
      },
      "getMessageHashForSafe(bytes)": {
        "details": "Returns hash of a message that can be signed by owners.",
        "params": {
          "message": "Message that should be hashed"
        },
        "returns": {
          "_0": "Message hash."
        }
      },
      "getRoleAdmin(bytes32)": {
        "details": "Returns the admin role that controls `role`. See {grantRole} and {revokeRole}. To change a role's admin, use {_setRoleAdmin}."
      },
      "getRoleMember(bytes32,uint256)": {
        "details": "Returns one of the accounts that have `role`. `index` must be a value between 0 and {getRoleMemberCount}, non-inclusive. Role bearers are not sorted in any particular way, and their ordering may change at any point. WARNING: When using {getRoleMember} and {getRoleMemberCount}, make sure you perform all queries on the same block. See the following https://forum.openzeppelin.com/t/iterating-over-elements-on-enumerableset-in-openzeppelin-contracts/2296[forum post] for more information."
      },
      "getRoleMemberCount(bytes32)": {
        "details": "Returns the number of accounts that have `role`. Can be used together with {getRoleMember} to enumerate all bearers of a role."
      },
      "grantRole(bytes32,address)": {
        "details": "Grants `role` to `account`. If `account` had not been already granted `role`, emits a {RoleGranted} event. Requirements: - the caller must have ``role``'s admin role."
      },
      "hasRole(bytes32,address)": {
        "details": "Returns `true` if `account` has been granted `role`."
      },
      "initDeposit(uint256,uint256)": {
        "details": "It calls initDepositByAdmin of BNIMinter.",
        "params": {
          "_USDT6Amt": "USDT with 6 decimals to be deposited",
          "_pool": "total pool in USD"
        }
      },
      "mint(uint256)": {
        "details": "It calls mintByAdmin of BNIMinter."
      },
      "owner()": {
        "details": "Returns the address of the current owner."
      },
      "paused()": {
        "details": "Returns true if the contract is paused, and false otherwise."
      },
      "renounceOwnership()": {
        "details": "Leaves the contract without owner. It will not be possible to call `onlyOwner` functions anymore. Can only be called by the current owner. NOTE: Renouncing ownership will leave the contract without an owner, thereby removing any functionality that is only available to the owner."
      },
      "renounceRole(bytes32,address)": {
        "details": "Revokes `role` from the calling account. Roles are often managed via {grantRole} and {revokeRole}: this function's purpose is to provide a mechanism for accounts to lose their privileges if they are compromised (such as when a trusted device is misplaced). If the calling account had been revoked `role`, emits a {RoleRevoked} event. Requirements: - the caller must be `account`."
      },
      "revokeRole(bytes32,address)": {
        "details": "Revokes `role` from `account`. If `account` had been granted `role`, emits a {RoleRevoked} event. Requirements: - the caller must have ``role``'s admin role."
      },
      "setSubImpl(address)": {
        "details": "Delegate to sub contract"
      },
      "supportsInterface(bytes4)": {
        "details": "See {IERC165-supportsInterface}."
      },
      "takeOut(uint256)": {
        "details": "It takes out tokens from this agent.",
        "params": {
          "_gatheredAmount": "is the amount of token that is gathered."
        }
      },
      "transfer(uint256[],uint256[],uint8[])": {
        "details": "It transfers tokens to user agents"
      },
      "withdraw(uint256[],uint256,uint256)": {
        "details": "It calls withdrawPercByAdmin of BNIVaults."
      }
    },
    "version": 1
  },
  "userdoc": {
    "kind": "user",
    "methods": {
      "exitWithdrawal(uint256)": {
        "notice": "_gatheredAmount doesn't include the balance which is withdrawan in this agent."
      },
      "isTrustedForwarder(address)": {
        "notice": "return if the forwarder is trusted to forward relayed transactions to us. the forwarder is required to verify the sender's signature, and verify the call is not a replay."
      },
      "onRefunded(uint256,address,uint256,uint256,address)": {
        "notice": "Never revert in this function. If not, cbridgeAdapter.executeMessageWithTransferRefund will be failed."
      },
      "takeOut(uint256)": {
        "notice": "_gatheredAmount doesn't include the balance which is withdrawan in this agent."
      }
    },
    "version": 1
  },
  "storageLayout": {
    "storage": [
      {
        "astId": 69824,
        "contract": "contracts/xchain/agent/test/UserAgentTest.sol:UserAgentTest",
        "label": "trustedForwarder",
        "offset": 0,
        "slot": "0",
        "type": "t_address"
      },
      {
        "astId": 713,
        "contract": "contracts/xchain/agent/test/UserAgentTest.sol:UserAgentTest",
        "label": "_initialized",
        "offset": 20,
        "slot": "0",
        "type": "t_uint8"
      },
      {
        "astId": 716,
        "contract": "contracts/xchain/agent/test/UserAgentTest.sol:UserAgentTest",
        "label": "_initializing",
        "offset": 21,
        "slot": "0",
        "type": "t_bool"
      },
      {
        "astId": 70364,
        "contract": "contracts/xchain/agent/test/UserAgentTest.sol:UserAgentTest",
        "label": "separator",
        "offset": 0,
        "slot": "1",
        "type": "t_bytes32"
      },
      {
        "astId": 70781,
        "contract": "contracts/xchain/agent/test/UserAgentTest.sol:UserAgentTest",
        "label": "__gap",
        "offset": 0,
        "slot": "2",
        "type": "t_array(t_uint256)49_storage"
      },
      {
        "astId": 3292,
        "contract": "contracts/xchain/agent/test/UserAgentTest.sol:UserAgentTest",
        "label": "__gap",
        "offset": 0,
        "slot": "51",
        "type": "t_array(t_uint256)50_storage"
      },
      {
        "astId": 3946,
        "contract": "contracts/xchain/agent/test/UserAgentTest.sol:UserAgentTest",
        "label": "__gap",
        "offset": 0,
        "slot": "101",
        "type": "t_array(t_uint256)50_storage"
      },
      {
        "astId": 184,
        "contract": "contracts/xchain/agent/test/UserAgentTest.sol:UserAgentTest",
        "label": "_roles",
        "offset": 0,
        "slot": "151",
        "type": "t_mapping(t_bytes32,t_struct(RoleData)179_storage)"
      },
      {
        "astId": 483,
        "contract": "contracts/xchain/agent/test/UserAgentTest.sol:UserAgentTest",
        "label": "__gap",
        "offset": 0,
        "slot": "152",
        "type": "t_array(t_uint256)49_storage"
      },
      {
        "astId": 33,
        "contract": "contracts/xchain/agent/test/UserAgentTest.sol:UserAgentTest",
        "label": "_roleMembers",
        "offset": 0,
        "slot": "201",
        "type": "t_mapping(t_bytes32,t_struct(AddressSet)4359_storage)"
      },
      {
        "astId": 143,
        "contract": "contracts/xchain/agent/test/UserAgentTest.sol:UserAgentTest",
        "label": "__gap",
        "offset": 0,
        "slot": "202",
        "type": "t_array(t_uint256)49_storage"
      },
      {
        "astId": 869,
        "contract": "contracts/xchain/agent/test/UserAgentTest.sol:UserAgentTest",
        "label": "_paused",
        "offset": 0,
        "slot": "251",
        "type": "t_bool"
      },
      {
        "astId": 958,
        "contract": "contracts/xchain/agent/test/UserAgentTest.sol:UserAgentTest",
        "label": "__gap",
        "offset": 0,
        "slot": "252",
        "type": "t_array(t_uint256)49_storage"
      },
      {
        "astId": 593,
        "contract": "contracts/xchain/agent/test/UserAgentTest.sol:UserAgentTest",
        "label": "_owner",
        "offset": 0,
        "slot": "301",
        "type": "t_address"
      },
      {
        "astId": 705,
        "contract": "contracts/xchain/agent/test/UserAgentTest.sol:UserAgentTest",
        "label": "__gap",
        "offset": 0,
        "slot": "302",
        "type": "t_array(t_uint256)49_storage"
      },
      {
        "astId": 60170,
        "contract": "contracts/xchain/agent/test/UserAgentTest.sol:UserAgentTest",
        "label": "admin",
        "offset": 0,
        "slot": "351",
        "type": "t_address"
      },
      {
        "astId": 60174,
        "contract": "contracts/xchain/agent/test/UserAgentTest.sol:UserAgentTest",
        "label": "nonces",
        "offset": 0,
        "slot": "352",
        "type": "t_mapping(t_address,t_uint256)"
      },
      {
        "astId": 60177,
        "contract": "contracts/xchain/agent/test/UserAgentTest.sol:UserAgentTest",
        "label": "swap",
        "offset": 0,
        "slot": "353",
        "type": "t_contract(ISwap)56041"
      },
      {
        "astId": 60180,
        "contract": "contracts/xchain/agent/test/UserAgentTest.sol:UserAgentTest",
        "label": "USDC",
        "offset": 0,
        "slot": "354",
        "type": "t_contract(IERC20Upgradeable)1707"
      },
      {
        "astId": 60183,
        "contract": "contracts/xchain/agent/test/UserAgentTest.sol:UserAgentTest",
        "label": "USDT",
        "offset": 0,
        "slot": "355",
        "type": "t_contract(IERC20Upgradeable)1707"
      },
      {
        "astId": 60187,
        "contract": "contracts/xchain/agent/test/UserAgentTest.sol:UserAgentTest",
        "label": "usdcBalances",
        "offset": 0,
        "slot": "356",
        "type": "t_mapping(t_address,t_uint256)"
      },
      {
        "astId": 60191,
        "contract": "contracts/xchain/agent/test/UserAgentTest.sol:UserAgentTest",
        "label": "usdtBalances",
        "offset": 0,
        "slot": "357",
        "type": "t_mapping(t_address,t_uint256)"
      },
      {
        "astId": 60194,
        "contract": "contracts/xchain/agent/test/UserAgentTest.sol:UserAgentTest",
        "label": "multichainAdapter",
        "offset": 0,
        "slot": "358",
        "type": "t_contract(IXChainAdapter)56366"
      },
      {
        "astId": 60197,
        "contract": "contracts/xchain/agent/test/UserAgentTest.sol:UserAgentTest",
        "label": "cbridgeAdapter",
        "offset": 0,
        "slot": "359",
        "type": "t_contract(IXChainAdapter)56366"
      },
      {
        "astId": 60201,
        "contract": "contracts/xchain/agent/test/UserAgentTest.sol:UserAgentTest",
        "label": "cbridgeSenders",
        "offset": 0,
        "slot": "360",
        "type": "t_mapping(t_uint256,t_address)"
      },
      {
        "astId": 60205,
        "contract": "contracts/xchain/agent/test/UserAgentTest.sol:UserAgentTest",
        "label": "userAgents",
        "offset": 0,
        "slot": "361",
        "type": "t_mapping(t_uint256,t_address)"
      },
      {
        "astId": 60210,
        "contract": "contracts/xchain/agent/test/UserAgentTest.sol:UserAgentTest",
        "label": "callAdapterTypes",
        "offset": 0,
        "slot": "362",
        "type": "t_mapping(t_uint256,t_enum(AdapterType)60144)"
      },
      {
        "astId": 60214,
        "contract": "contracts/xchain/agent/test/UserAgentTest.sol:UserAgentTest",
        "label": "gasAmounts",
        "offset": 0,
        "slot": "363",
        "type": "t_mapping(t_bytes4,t_uint256)"
      },
      {
        "astId": 60218,
        "contract": "contracts/xchain/agent/test/UserAgentTest.sol:UserAgentTest",
        "label": "gasCosts",
        "offset": 0,
        "slot": "364",
        "type": "t_mapping(t_uint256,t_uint256)"
      },
      {
        "astId": 60220,
        "contract": "contracts/xchain/agent/test/UserAgentTest.sol:UserAgentTest",
        "label": "treasuryWallet",
        "offset": 0,
        "slot": "365",
        "type": "t_address"
      },
      {
        "astId": 60913,
        "contract": "contracts/xchain/agent/test/UserAgentTest.sol:UserAgentTest",
        "label": "__gap",
        "offset": 0,
        "slot": "366",
        "type": "t_array(t_uint256)36_storage"
      },
      {
        "astId": 57154,
        "contract": "contracts/xchain/agent/test/UserAgentTest.sol:UserAgentTest",
        "label": "chainIdOnLP",
        "offset": 0,
        "slot": "402",
        "type": "t_uint256"
      },
      {
        "astId": 57156,
        "contract": "contracts/xchain/agent/test/UserAgentTest.sol:UserAgentTest",
        "label": "isLPChain",
        "offset": 0,
        "slot": "403",
        "type": "t_bool"
      },
      {
        "astId": 57159,
        "contract": "contracts/xchain/agent/test/UserAgentTest.sol:UserAgentTest",
        "label": "bniMinter",
        "offset": 1,
        "slot": "403",
        "type": "t_contract(IBNIMinter)10340"
      },
      {
        "astId": 57162,
        "contract": "contracts/xchain/agent/test/UserAgentTest.sol:UserAgentTest",
        "label": "bniVault",
        "offset": 0,
        "slot": "404",
        "type": "t_contract(IBNIVault)10387"
      },
      {
        "astId": 57164,
        "contract": "contracts/xchain/agent/test/UserAgentTest.sol:UserAgentTest",
        "label": "subImpl",
        "offset": 0,
        "slot": "405",
        "type": "t_address"
      },
      {
        "astId": 66010,
        "contract": "contracts/xchain/agent/test/UserAgentTest.sol:UserAgentTest",
        "label": "testValue",
        "offset": 0,
        "slot": "406",
        "type": "t_uint256"
      }
    ],
    "types": {
      "t_address": {
        "encoding": "inplace",
        "label": "address",
        "numberOfBytes": "20"
      },
      "t_array(t_bytes32)dyn_storage": {
        "base": "t_bytes32",
        "encoding": "dynamic_array",
        "label": "bytes32[]",
        "numberOfBytes": "32"
      },
      "t_array(t_uint256)36_storage": {
        "base": "t_uint256",
        "encoding": "inplace",
        "label": "uint256[36]",
        "numberOfBytes": "1152"
      },
      "t_array(t_uint256)49_storage": {
        "base": "t_uint256",
        "encoding": "inplace",
        "label": "uint256[49]",
        "numberOfBytes": "1568"
      },
      "t_array(t_uint256)50_storage": {
        "base": "t_uint256",
        "encoding": "inplace",
        "label": "uint256[50]",
        "numberOfBytes": "1600"
      },
      "t_bool": {
        "encoding": "inplace",
        "label": "bool",
        "numberOfBytes": "1"
      },
      "t_bytes32": {
        "encoding": "inplace",
        "label": "bytes32",
        "numberOfBytes": "32"
      },
      "t_bytes4": {
        "encoding": "inplace",
        "label": "bytes4",
        "numberOfBytes": "4"
      },
      "t_contract(IBNIMinter)10340": {
        "encoding": "inplace",
        "label": "contract IBNIMinter",
        "numberOfBytes": "20"
      },
      "t_contract(IBNIVault)10387": {
        "encoding": "inplace",
        "label": "contract IBNIVault",
        "numberOfBytes": "20"
      },
      "t_contract(IERC20Upgradeable)1707": {
        "encoding": "inplace",
        "label": "contract IERC20Upgradeable",
        "numberOfBytes": "20"
      },
      "t_contract(ISwap)56041": {
        "encoding": "inplace",
        "label": "contract ISwap",
        "numberOfBytes": "20"
      },
      "t_contract(IXChainAdapter)56366": {
        "encoding": "inplace",
        "label": "contract IXChainAdapter",
        "numberOfBytes": "20"
      },
      "t_enum(AdapterType)60144": {
        "encoding": "inplace",
        "label": "enum BasicUserAgentBase.AdapterType",
        "numberOfBytes": "1"
      },
      "t_mapping(t_address,t_bool)": {
        "encoding": "mapping",
        "key": "t_address",
        "label": "mapping(address => bool)",
        "numberOfBytes": "32",
        "value": "t_bool"
      },
      "t_mapping(t_address,t_uint256)": {
        "encoding": "mapping",
        "key": "t_address",
        "label": "mapping(address => uint256)",
        "numberOfBytes": "32",
        "value": "t_uint256"
      },
      "t_mapping(t_bytes32,t_struct(AddressSet)4359_storage)": {
        "encoding": "mapping",
        "key": "t_bytes32",
        "label": "mapping(bytes32 => struct EnumerableSetUpgradeable.AddressSet)",
        "numberOfBytes": "32",
        "value": "t_struct(AddressSet)4359_storage"
      },
      "t_mapping(t_bytes32,t_struct(RoleData)179_storage)": {
        "encoding": "mapping",
        "key": "t_bytes32",
        "label": "mapping(bytes32 => struct AccessControlUpgradeable.RoleData)",
        "numberOfBytes": "32",
        "value": "t_struct(RoleData)179_storage"
      },
      "t_mapping(t_bytes32,t_uint256)": {
        "encoding": "mapping",
        "key": "t_bytes32",
        "label": "mapping(bytes32 => uint256)",
        "numberOfBytes": "32",
        "value": "t_uint256"
      },
      "t_mapping(t_bytes4,t_uint256)": {
        "encoding": "mapping",
        "key": "t_bytes4",
        "label": "mapping(bytes4 => uint256)",
        "numberOfBytes": "32",
        "value": "t_uint256"
      },
      "t_mapping(t_uint256,t_address)": {
        "encoding": "mapping",
        "key": "t_uint256",
        "label": "mapping(uint256 => address)",
        "numberOfBytes": "32",
        "value": "t_address"
      },
      "t_mapping(t_uint256,t_enum(AdapterType)60144)": {
        "encoding": "mapping",
        "key": "t_uint256",
        "label": "mapping(uint256 => enum BasicUserAgentBase.AdapterType)",
        "numberOfBytes": "32",
        "value": "t_enum(AdapterType)60144"
      },
      "t_mapping(t_uint256,t_uint256)": {
        "encoding": "mapping",
        "key": "t_uint256",
        "label": "mapping(uint256 => uint256)",
        "numberOfBytes": "32",
        "value": "t_uint256"
      },
      "t_struct(AddressSet)4359_storage": {
        "encoding": "inplace",
        "label": "struct EnumerableSetUpgradeable.AddressSet",
        "members": [
          {
            "astId": 4358,
            "contract": "contracts/xchain/agent/test/UserAgentTest.sol:UserAgentTest",
            "label": "_inner",
            "offset": 0,
            "slot": "0",
            "type": "t_struct(Set)4058_storage"
          }
        ],
        "numberOfBytes": "64"
      },
      "t_struct(RoleData)179_storage": {
        "encoding": "inplace",
        "label": "struct AccessControlUpgradeable.RoleData",
        "members": [
          {
            "astId": 176,
            "contract": "contracts/xchain/agent/test/UserAgentTest.sol:UserAgentTest",
            "label": "members",
            "offset": 0,
            "slot": "0",
            "type": "t_mapping(t_address,t_bool)"
          },
          {
            "astId": 178,
            "contract": "contracts/xchain/agent/test/UserAgentTest.sol:UserAgentTest",
            "label": "adminRole",
            "offset": 0,
            "slot": "1",
            "type": "t_bytes32"
          }
        ],
        "numberOfBytes": "64"
      },
      "t_struct(Set)4058_storage": {
        "encoding": "inplace",
        "label": "struct EnumerableSetUpgradeable.Set",
        "members": [
          {
            "astId": 4053,
            "contract": "contracts/xchain/agent/test/UserAgentTest.sol:UserAgentTest",
            "label": "_values",
            "offset": 0,
            "slot": "0",
            "type": "t_array(t_bytes32)dyn_storage"
          },
          {
            "astId": 4057,
            "contract": "contracts/xchain/agent/test/UserAgentTest.sol:UserAgentTest",
            "label": "_indexes",
            "offset": 0,
            "slot": "1",
            "type": "t_mapping(t_bytes32,t_uint256)"
          }
        ],
        "numberOfBytes": "64"
      },
      "t_uint256": {
        "encoding": "inplace",
        "label": "uint256",
        "numberOfBytes": "32"
      },
      "t_uint8": {
        "encoding": "inplace",
        "label": "uint8",
        "numberOfBytes": "1"
      }
    }
  }
}