{
  "address": "0x423CacFB725C07d0d79C3cfa8bEe10eFA822645D",
  "abi": [
    {
      "anonymous": false,
      "inputs": [
        {
          "indexed": false,
          "internalType": "uint8",
          "name": "version",
          "type": "uint8"
        }
      ],
      "name": "Initialized",
      "type": "event"
    },
    {
      "anonymous": false,
      "inputs": [
        {
          "indexed": true,
          "internalType": "address",
          "name": "previousOwner",
          "type": "address"
        },
        {
          "indexed": true,
          "internalType": "address",
          "name": "newOwner",
          "type": "address"
        }
      ],
      "name": "OwnershipTransferred",
      "type": "event"
    },
    {
      "anonymous": false,
      "inputs": [
        {
          "indexed": false,
          "internalType": "address",
          "name": "account",
          "type": "address"
        }
      ],
      "name": "Paused",
      "type": "event"
    },
    {
      "anonymous": false,
      "inputs": [
        {
          "indexed": true,
          "internalType": "bytes32",
          "name": "role",
          "type": "bytes32"
        },
        {
          "indexed": true,
          "internalType": "bytes32",
          "name": "previousAdminRole",
          "type": "bytes32"
        },
        {
          "indexed": true,
          "internalType": "bytes32",
          "name": "newAdminRole",
          "type": "bytes32"
        }
      ],
      "name": "RoleAdminChanged",
      "type": "event"
    },
    {
      "anonymous": false,
      "inputs": [
        {
          "indexed": true,
          "internalType": "bytes32",
          "name": "role",
          "type": "bytes32"
        },
        {
          "indexed": true,
          "internalType": "address",
          "name": "account",
          "type": "address"
        },
        {
          "indexed": true,
          "internalType": "address",
          "name": "sender",
          "type": "address"
        }
      ],
      "name": "RoleGranted",
      "type": "event"
    },
    {
      "anonymous": false,
      "inputs": [
        {
          "indexed": true,
          "internalType": "bytes32",
          "name": "role",
          "type": "bytes32"
        },
        {
          "indexed": true,
          "internalType": "address",
          "name": "account",
          "type": "address"
        },
        {
          "indexed": true,
          "internalType": "address",
          "name": "sender",
          "type": "address"
        }
      ],
      "name": "RoleRevoked",
      "type": "event"
    },
    {
      "anonymous": false,
      "inputs": [
        {
          "indexed": false,
          "internalType": "uint256",
          "name": "newTestValue",
          "type": "uint256"
        }
      ],
      "name": "TestCall",
      "type": "event"
    },
    {
      "anonymous": false,
      "inputs": [
        {
          "indexed": true,
          "internalType": "address",
          "name": "from",
          "type": "address"
        },
        {
          "indexed": false,
          "internalType": "address",
          "name": "token",
          "type": "address"
        },
        {
          "indexed": true,
          "internalType": "uint256",
          "name": "amount",
          "type": "uint256"
        },
        {
          "indexed": false,
          "internalType": "uint256",
          "name": "fromChainId",
          "type": "uint256"
        },
        {
          "indexed": true,
          "internalType": "uint256",
          "name": "toChainId",
          "type": "uint256"
        },
        {
          "indexed": false,
          "internalType": "address",
          "name": "to",
          "type": "address"
        },
        {
          "indexed": false,
          "internalType": "enum BasicUserAgentBase.AdapterType",
          "name": "adapterType",
          "type": "uint8"
        },
        {
          "indexed": false,
          "internalType": "uint256",
          "name": "nonce",
          "type": "uint256"
        }
      ],
      "name": "Transfer",
      "type": "event"
    },
    {
      "anonymous": false,
      "inputs": [
        {
          "indexed": false,
          "internalType": "address",
          "name": "account",
          "type": "address"
        }
      ],
      "name": "Unpaused",
      "type": "event"
    },
    {
      "inputs": [],
      "name": "ADAPTER_ROLE",
      "outputs": [
        {
          "internalType": "bytes32",
          "name": "",
          "type": "bytes32"
        }
      ],
      "stateMutability": "view",
      "type": "function"
    },
    {
      "inputs": [],
      "name": "DEFAULT_ADMIN_ROLE",
      "outputs": [
        {
          "internalType": "bytes32",
          "name": "",
          "type": "bytes32"
        }
      ],
      "stateMutability": "view",
      "type": "function"
    },
    {
      "inputs": [],
      "name": "USDC",
      "outputs": [
        {
          "internalType": "contract IERC20Upgradeable",
          "name": "",
          "type": "address"
        }
      ],
      "stateMutability": "view",
      "type": "function"
    },
    {
      "inputs": [],
      "name": "USDT",
      "outputs": [
        {
          "internalType": "contract IERC20Upgradeable",
          "name": "",
          "type": "address"
        }
      ],
      "stateMutability": "view",
      "type": "function"
    },
    {
      "inputs": [],
      "name": "admin",
      "outputs": [
        {
          "internalType": "address",
          "name": "",
          "type": "address"
        }
      ],
      "stateMutability": "view",
      "type": "function"
    },
    {
      "inputs": [],
      "name": "bniMinter",
      "outputs": [
        {
          "internalType": "contract IBNIMinter",
          "name": "",
          "type": "address"
        }
      ],
      "stateMutability": "view",
      "type": "function"
    },
    {
      "inputs": [],
      "name": "bniVault",
      "outputs": [
        {
          "internalType": "contract IBNIVault",
          "name": "",
          "type": "address"
        }
      ],
      "stateMutability": "view",
      "type": "function"
    },
    {
      "inputs": [
        {
          "internalType": "uint256",
          "name": "_pool",
          "type": "uint256"
        },
        {
          "internalType": "uint256",
          "name": "_share",
          "type": "uint256"
        }
      ],
      "name": "burn",
      "outputs": [
        {
          "internalType": "uint256",
          "name": "_feeAmt",
          "type": "uint256"
        }
      ],
      "stateMutability": "payable",
      "type": "function"
    },
    {
      "inputs": [
        {
          "internalType": "address",
          "name": "_account",
          "type": "address"
        },
        {
          "internalType": "uint256",
          "name": "_pool",
          "type": "uint256"
        },
        {
          "internalType": "uint256",
          "name": "_share",
          "type": "uint256"
        }
      ],
      "name": "burnByAdmin",
      "outputs": [],
      "stateMutability": "nonpayable",
      "type": "function"
    },
    {
      "inputs": [
        {
          "internalType": "uint256",
          "name": "",
          "type": "uint256"
        }
      ],
      "name": "callAdapterTypes",
      "outputs": [
        {
          "internalType": "enum BasicUserAgentBase.AdapterType",
          "name": "",
          "type": "uint8"
        }
      ],
      "stateMutability": "view",
      "type": "function"
    },
    {
      "inputs": [],
      "name": "cbridgeAdapter",
      "outputs": [
        {
          "internalType": "contract IXChainAdapter",
          "name": "",
          "type": "address"
        }
      ],
      "stateMutability": "view",
      "type": "function"
    },
    {
      "inputs": [
        {
          "internalType": "uint256",
          "name": "",
          "type": "uint256"
        }
      ],
      "name": "cbridgeSenders",
      "outputs": [
        {
          "internalType": "address",
          "name": "",
          "type": "address"
        }
      ],
      "stateMutability": "view",
      "type": "function"
    },
    {
      "inputs": [],
      "name": "chainIdOnLP",
      "outputs": [
        {
          "internalType": "uint256",
          "name": "",
          "type": "uint256"
        }
      ],
      "stateMutability": "view",
      "type": "function"
    },
    {
      "inputs": [
        {
          "internalType": "uint256[]",
          "name": "_toChainIds",
          "type": "uint256[]"
        },
        {
          "internalType": "address[]",
          "name": "_tokens",
          "type": "address[]"
        },
        {
          "internalType": "uint256[]",
          "name": "_USDTAmts",
          "type": "uint256[]"
        },
        {
          "internalType": "uint256",
          "name": "_minterNonce",
          "type": "uint256"
        }
      ],
      "name": "deposit",
      "outputs": [
        {
          "internalType": "uint256",
          "name": "_feeAmt",
          "type": "uint256"
        }
      ],
      "stateMutability": "payable",
      "type": "function"
    },
    {
      "inputs": [
        {
          "internalType": "address",
          "name": "_account",
          "type": "address"
        },
        {
          "internalType": "address[]",
          "name": "_tokens",
          "type": "address[]"
        },
        {
          "internalType": "uint256[]",
          "name": "_USDTAmts",
          "type": "uint256[]"
        },
        {
          "internalType": "uint256",
          "name": "_minterNonce",
          "type": "uint256"
        }
      ],
      "name": "depositByAgent",
      "outputs": [],
      "stateMutability": "nonpayable",
      "type": "function"
    },
    {
      "inputs": [
        {
          "internalType": "uint256",
          "name": "_gatheredAmount",
          "type": "uint256"
        }
      ],
      "name": "exitWithdrawal",
      "outputs": [
        {
          "internalType": "uint256",
          "name": "_feeAmt",
          "type": "uint256"
        }
      ],
      "stateMutability": "payable",
      "type": "function"
    },
    {
      "inputs": [
        {
          "internalType": "address",
          "name": "_account",
          "type": "address"
        }
      ],
      "name": "exitWithdrawalByAdmin",
      "outputs": [],
      "stateMutability": "nonpayable",
      "type": "function"
    },
    {
      "inputs": [
        {
          "internalType": "uint256[]",
          "name": "_fromChainIds",
          "type": "uint256[]"
        },
        {
          "internalType": "enum BasicUserAgentBase.AdapterType[]",
          "name": "_adapterTypes",
          "type": "uint8[]"
        }
      ],
      "name": "gather",
      "outputs": [
        {
          "internalType": "uint256",
          "name": "_feeAmt",
          "type": "uint256"
        }
      ],
      "stateMutability": "payable",
      "type": "function"
    },
    {
      "inputs": [
        {
          "internalType": "address",
          "name": "_account",
          "type": "address"
        },
        {
          "internalType": "uint256",
          "name": "_toChainId",
          "type": "uint256"
        },
        {
          "internalType": "enum BasicUserAgentBase.AdapterType",
          "name": "_adapterType",
          "type": "uint8"
        }
      ],
      "name": "gatherByAdmin",
      "outputs": [],
      "stateMutability": "nonpayable",
      "type": "function"
    },
    {
      "inputs": [
        {
          "internalType": "bytes",
          "name": "message",
          "type": "bytes"
        }
      ],
      "name": "getMessageHashForSafe",
      "outputs": [
        {
          "internalType": "bytes32",
          "name": "",
          "type": "bytes32"
        }
      ],
      "stateMutability": "view",
      "type": "function"
    },
    {
      "inputs": [
        {
          "internalType": "bytes32",
          "name": "role",
          "type": "bytes32"
        }
      ],
      "name": "getRoleAdmin",
      "outputs": [
        {
          "internalType": "bytes32",
          "name": "",
          "type": "bytes32"
        }
      ],
      "stateMutability": "view",
      "type": "function"
    },
    {
      "inputs": [
        {
          "internalType": "bytes32",
          "name": "role",
          "type": "bytes32"
        },
        {
          "internalType": "uint256",
          "name": "index",
          "type": "uint256"
        }
      ],
      "name": "getRoleMember",
      "outputs": [
        {
          "internalType": "address",
          "name": "",
          "type": "address"
        }
      ],
      "stateMutability": "view",
      "type": "function"
    },
    {
      "inputs": [
        {
          "internalType": "bytes32",
          "name": "role",
          "type": "bytes32"
        }
      ],
      "name": "getRoleMemberCount",
      "outputs": [
        {
          "internalType": "uint256",
          "name": "",
          "type": "uint256"
        }
      ],
      "stateMutability": "view",
      "type": "function"
    },
    {
      "inputs": [
        {
          "internalType": "bytes32",
          "name": "role",
          "type": "bytes32"
        },
        {
          "internalType": "address",
          "name": "account",
          "type": "address"
        }
      ],
      "name": "grantRole",
      "outputs": [],
      "stateMutability": "nonpayable",
      "type": "function"
    },
    {
      "inputs": [
        {
          "internalType": "bytes32",
          "name": "role",
          "type": "bytes32"
        },
        {
          "internalType": "address",
          "name": "account",
          "type": "address"
        }
      ],
      "name": "hasRole",
      "outputs": [
        {
          "internalType": "bool",
          "name": "",
          "type": "bool"
        }
      ],
      "stateMutability": "view",
      "type": "function"
    },
    {
      "inputs": [
        {
          "internalType": "uint256",
          "name": "_pool",
          "type": "uint256"
        },
        {
          "internalType": "uint256",
          "name": "_USDT6Amt",
          "type": "uint256"
        }
      ],
      "name": "initDeposit",
      "outputs": [
        {
          "internalType": "uint256",
          "name": "_feeAmt",
          "type": "uint256"
        }
      ],
      "stateMutability": "payable",
      "type": "function"
    },
    {
      "inputs": [
        {
          "internalType": "address",
          "name": "_account",
          "type": "address"
        },
        {
          "internalType": "uint256",
          "name": "_pool",
          "type": "uint256"
        },
        {
          "internalType": "uint256",
          "name": "_USDT6Amt",
          "type": "uint256"
        }
      ],
      "name": "initDepositByAdmin",
      "outputs": [],
      "stateMutability": "nonpayable",
      "type": "function"
    },
    {
      "inputs": [
        {
          "internalType": "address",
          "name": "_admin",
          "type": "address"
        },
        {
          "internalType": "contract ISwap",
          "name": "_swap",
          "type": "address"
        },
        {
          "internalType": "contract IXChainAdapter",
          "name": "_multichainAdapter",
          "type": "address"
        },
        {
          "internalType": "contract IXChainAdapter",
          "name": "_cbridgeAdapter",
          "type": "address"
        }
      ],
      "name": "initialize",
      "outputs": [],
      "stateMutability": "nonpayable",
      "type": "function"
    },
    {
      "inputs": [
        {
          "internalType": "address",
          "name": "_subImpl",
          "type": "address"
        },
        {
          "internalType": "address",
          "name": "_admin",
          "type": "address"
        },
        {
          "internalType": "contract ISwap",
          "name": "_swap",
          "type": "address"
        },
        {
          "internalType": "contract IXChainAdapter",
          "name": "_multichainAdapter",
          "type": "address"
        },
        {
          "internalType": "contract IXChainAdapter",
          "name": "_cbridgeAdapter",
          "type": "address"
        },
        {
          "internalType": "contract IBNIMinter",
          "name": "_bniMinter",
          "type": "address"
        },
        {
          "internalType": "contract IBNIVault",
          "name": "_bniVault",
          "type": "address"
        }
      ],
      "name": "initialize1",
      "outputs": [],
      "stateMutability": "nonpayable",
      "type": "function"
    },
    {
      "inputs": [],
      "name": "isLPChain",
      "outputs": [
        {
          "internalType": "bool",
          "name": "",
          "type": "bool"
        }
      ],
      "stateMutability": "view",
      "type": "function"
    },
    {
      "inputs": [
        {
          "internalType": "address",
          "name": "forwarder",
          "type": "address"
        }
      ],
      "name": "isTrustedForwarder",
      "outputs": [
        {
          "internalType": "bool",
          "name": "",
          "type": "bool"
        }
      ],
      "stateMutability": "view",
      "type": "function"
    },
    {
      "inputs": [
        {
          "internalType": "address",
          "name": "_account",
          "type": "address"
        },
        {
          "internalType": "bytes",
          "name": "_data",
          "type": "bytes"
        },
        {
          "internalType": "bytes",
          "name": "_signature",
          "type": "bytes"
        }
      ],
      "name": "isValidSignature",
      "outputs": [
        {
          "internalType": "bool",
          "name": "",
          "type": "bool"
        }
      ],
      "stateMutability": "view",
      "type": "function"
    },
    {
      "inputs": [
        {
          "internalType": "uint256",
          "name": "_USDT6Amt",
          "type": "uint256"
        }
      ],
      "name": "mint",
      "outputs": [
        {
          "internalType": "uint256",
          "name": "_feeAmt",
          "type": "uint256"
        }
      ],
      "stateMutability": "payable",
      "type": "function"
    },
    {
      "inputs": [
        {
          "internalType": "address",
          "name": "_account",
          "type": "address"
        },
        {
          "internalType": "uint256",
          "name": "_USDT6Amt",
          "type": "uint256"
        }
      ],
      "name": "mintByAdmin",
      "outputs": [],
      "stateMutability": "nonpayable",
      "type": "function"
    },
    {
      "inputs": [],
      "name": "multichainAdapter",
      "outputs": [
        {
          "internalType": "contract IXChainAdapter",
          "name": "",
          "type": "address"
        }
      ],
      "stateMutability": "view",
      "type": "function"
    },
    {
      "inputs": [
        {
          "internalType": "address",
          "name": "",
          "type": "address"
        }
      ],
      "name": "nonces",
      "outputs": [
        {
          "internalType": "uint256",
          "name": "",
          "type": "uint256"
        }
      ],
      "stateMutability": "view",
      "type": "function"
    },
    {
      "inputs": [
        {
          "internalType": "uint256",
          "name": "_cbridgeNonce",
          "type": "uint256"
        },
        {
          "internalType": "address",
          "name": "_token",
          "type": "address"
        },
        {
          "internalType": "uint256",
          "name": "amount",
          "type": "uint256"
        },
        {
          "internalType": "uint256",
          "name": "",
          "type": "uint256"
        },
        {
          "internalType": "address",
          "name": "",
          "type": "address"
        }
      ],
      "name": "onRefunded",
      "outputs": [],
      "stateMutability": "nonpayable",
      "type": "function"
    },
    {
      "inputs": [],
      "name": "owner",
      "outputs": [
        {
          "internalType": "address",
          "name": "",
          "type": "address"
        }
      ],
      "stateMutability": "view",
      "type": "function"
    },
    {
      "inputs": [],
      "name": "pause",
      "outputs": [],
      "stateMutability": "nonpayable",
      "type": "function"
    },
    {
      "inputs": [],
      "name": "paused",
      "outputs": [
        {
          "internalType": "bool",
          "name": "",
          "type": "bool"
        }
      ],
      "stateMutability": "view",
      "type": "function"
    },
    {
      "inputs": [],
      "name": "renounceOwnership",
      "outputs": [],
      "stateMutability": "nonpayable",
      "type": "function"
    },
    {
      "inputs": [
        {
          "internalType": "bytes32",
          "name": "role",
          "type": "bytes32"
        },
        {
          "internalType": "address",
          "name": "account",
          "type": "address"
        }
      ],
      "name": "renounceRole",
      "outputs": [],
      "stateMutability": "nonpayable",
      "type": "function"
    },
    {
      "inputs": [
        {
          "internalType": "bytes32",
          "name": "role",
          "type": "bytes32"
        },
        {
          "internalType": "address",
          "name": "account",
          "type": "address"
        }
      ],
      "name": "revokeRole",
      "outputs": [],
      "stateMutability": "nonpayable",
      "type": "function"
    },
    {
      "inputs": [
        {
          "internalType": "address",
          "name": "_admin",
          "type": "address"
        }
      ],
      "name": "setAdmin",
      "outputs": [],
      "stateMutability": "nonpayable",
      "type": "function"
    },
    {
      "inputs": [
        {
          "internalType": "contract IBNIMinter",
          "name": "_bniMinter",
          "type": "address"
        }
      ],
      "name": "setBNIMinter",
      "outputs": [],
      "stateMutability": "nonpayable",
      "type": "function"
    },
    {
      "inputs": [
        {
          "internalType": "contract IBNIVault",
          "name": "_bniVault",
          "type": "address"
        }
      ],
      "name": "setBNIVault",
      "outputs": [],
      "stateMutability": "nonpayable",
      "type": "function"
    },
    {
      "inputs": [
        {
          "internalType": "address",
          "name": "_biconomy",
          "type": "address"
        }
      ],
      "name": "setBiconomy",
      "outputs": [],
      "stateMutability": "nonpayable",
      "type": "function"
    },
    {
      "inputs": [
        {
          "internalType": "contract IXChainAdapter",
          "name": "_cbridgeAdapter",
          "type": "address"
        }
      ],
      "name": "setCBridgeAdapter",
      "outputs": [],
      "stateMutability": "nonpayable",
      "type": "function"
    },
    {
      "inputs": [
        {
          "internalType": "uint256[]",
          "name": "_chainIds",
          "type": "uint256[]"
        },
        {
          "internalType": "enum BasicUserAgentBase.AdapterType[]",
          "name": "_adapterTypes",
          "type": "uint8[]"
        }
      ],
      "name": "setCallAdapterTypes",
      "outputs": [],
      "stateMutability": "nonpayable",
      "type": "function"
    },
    {
      "inputs": [
        {
          "internalType": "contract IXChainAdapter",
          "name": "_multichainAdapter",
          "type": "address"
        }
      ],
      "name": "setMultichainAdapter",
      "outputs": [],
      "stateMutability": "nonpayable",
      "type": "function"
    },
    {
      "inputs": [
        {
          "internalType": "address",
          "name": "_subImpl",
          "type": "address"
        }
      ],
      "name": "setSubImpl",
      "outputs": [],
      "stateMutability": "nonpayable",
      "type": "function"
    },
    {
      "inputs": [
        {
          "internalType": "uint256[]",
          "name": "_chainIds",
          "type": "uint256[]"
        },
        {
          "internalType": "address[]",
          "name": "_userAgents",
          "type": "address[]"
        }
      ],
      "name": "setUserAgents",
      "outputs": [],
      "stateMutability": "nonpayable",
      "type": "function"
    },
    {
      "inputs": [],
      "name": "subImpl",
      "outputs": [
        {
          "internalType": "address",
          "name": "",
          "type": "address"
        }
      ],
      "stateMutability": "view",
      "type": "function"
    },
    {
      "inputs": [
        {
          "internalType": "bytes4",
          "name": "interfaceId",
          "type": "bytes4"
        }
      ],
      "name": "supportsInterface",
      "outputs": [
        {
          "internalType": "bool",
          "name": "",
          "type": "bool"
        }
      ],
      "stateMutability": "view",
      "type": "function"
    },
    {
      "inputs": [
        {
          "internalType": "uint256",
          "name": "_gatheredAmount",
          "type": "uint256"
        }
      ],
      "name": "takeOut",
      "outputs": [],
      "stateMutability": "nonpayable",
      "type": "function"
    },
    {
      "inputs": [
        {
          "internalType": "uint256",
          "name": "_toChainId",
          "type": "uint256"
        },
        {
          "internalType": "uint256",
          "name": "_value",
          "type": "uint256"
        }
      ],
      "name": "testCall",
      "outputs": [
        {
          "internalType": "uint256",
          "name": "_feeAmt",
          "type": "uint256"
        }
      ],
      "stateMutability": "payable",
      "type": "function"
    },
    {
      "inputs": [
        {
          "internalType": "uint256",
          "name": "_value",
          "type": "uint256"
        }
      ],
      "name": "testCallByAdmin",
      "outputs": [],
      "stateMutability": "nonpayable",
      "type": "function"
    },
    {
      "inputs": [],
      "name": "testValue",
      "outputs": [
        {
          "internalType": "uint256",
          "name": "",
          "type": "uint256"
        }
      ],
      "stateMutability": "view",
      "type": "function"
    },
    {
      "inputs": [
        {
          "internalType": "uint256[]",
          "name": "_amounts",
          "type": "uint256[]"
        },
        {
          "internalType": "uint256[]",
          "name": "_toChainIds",
          "type": "uint256[]"
        },
        {
          "internalType": "enum BasicUserAgentBase.AdapterType[]",
          "name": "_adapterTypes",
          "type": "uint8[]"
        }
      ],
      "name": "transfer",
      "outputs": [
        {
          "internalType": "uint256",
          "name": "_feeAmt",
          "type": "uint256"
        }
      ],
      "stateMutability": "payable",
      "type": "function"
    },
    {
      "inputs": [
        {
          "internalType": "address",
          "name": "newOwner",
          "type": "address"
        }
      ],
      "name": "transferOwnership",
      "outputs": [],
      "stateMutability": "nonpayable",
      "type": "function"
    },
    {
      "inputs": [],
      "name": "trustedForwarder",
      "outputs": [
        {
          "internalType": "address",
          "name": "",
          "type": "address"
        }
      ],
      "stateMutability": "view",
      "type": "function"
    },
    {
      "inputs": [],
      "name": "unpause",
      "outputs": [],
      "stateMutability": "nonpayable",
      "type": "function"
    },
    {
      "inputs": [
        {
          "internalType": "address",
          "name": "",
          "type": "address"
        }
      ],
      "name": "usdcBalances",
      "outputs": [
        {
          "internalType": "uint256",
          "name": "",
          "type": "uint256"
        }
      ],
      "stateMutability": "view",
      "type": "function"
    },
    {
      "inputs": [
        {
          "internalType": "address",
          "name": "",
          "type": "address"
        }
      ],
      "name": "usdtBalances",
      "outputs": [
        {
          "internalType": "uint256",
          "name": "",
          "type": "uint256"
        }
      ],
      "stateMutability": "view",
      "type": "function"
    },
    {
      "inputs": [
        {
          "internalType": "uint256",
          "name": "",
          "type": "uint256"
        }
      ],
      "name": "userAgents",
      "outputs": [
        {
          "internalType": "address",
          "name": "",
          "type": "address"
        }
      ],
      "stateMutability": "view",
      "type": "function"
    },
    {
      "inputs": [],
      "name": "versionRecipient",
      "outputs": [
        {
          "internalType": "string",
          "name": "",
          "type": "string"
        }
      ],
      "stateMutability": "pure",
      "type": "function"
    },
    {
      "inputs": [
        {
          "internalType": "uint256[]",
          "name": "_chainIds",
          "type": "uint256[]"
        },
        {
          "internalType": "uint256",
          "name": "_sharePerc",
          "type": "uint256"
        },
        {
          "internalType": "uint256",
          "name": "_minterNonce",
          "type": "uint256"
        }
      ],
      "name": "withdraw",
      "outputs": [
        {
          "internalType": "uint256",
          "name": "_feeAmt",
          "type": "uint256"
        }
      ],
      "stateMutability": "payable",
      "type": "function"
    },
    {
      "inputs": [
        {
          "internalType": "address",
          "name": "_account",
          "type": "address"
        },
        {
          "internalType": "uint256",
          "name": "_sharePerc",
          "type": "uint256"
        },
        {
          "internalType": "uint256",
          "name": "_minterNonce",
          "type": "uint256"
        }
      ],
      "name": "withdrawPercByAgent",
      "outputs": [],
      "stateMutability": "nonpayable",
      "type": "function"
    },
    {
      "stateMutability": "payable",
      "type": "receive"
    }
  ],
  "transactionHash": "0x1a438221a0b455dbdbf8ed775c6775b9f25be1fbcb4216f53cf8209c865a95e7",
  "args": [],
  "numDeployments": 6,
  "solcInputHash": "cccea99f359fc15adf864bd8b8d1d76a",
  "bytecode": "0x608060405234801561001057600080fd5b506155cd80620000216000396000f3fe6080604052600436106103f35760003560e01c80638033a80511610208578063c7205bce11610118578063e9e81a6a116100ab578063f7bb364c1161007a578063f7bb364c14610be3578063f851a44014610bfe578063f8c8765e14610c1f578063fb76bb7e14610c3f578063fc637c3c14610c4d57600080fd5b8063e9e81a6a14610b56578063f2ea161814610b71578063f2fde38b14610ba8578063f77de48614610bc857600080fd5b8063d547741f116100e7578063d547741f14610afd578063d843a40014610b1d578063e5293eca14610b43578063e629f7b314610b5657600080fd5b8063c7205bce14610a8a578063ca15c87314610aaa578063caffbec714610aca578063cd6c7f2d14610aea57600080fd5b80639e17747a1161019b578063a99c68c51161016a578063a99c68c514610a08578063abe57f87146109cd578063af3da2f414610a36578063b390c0ab14610a56578063c54e44eb14610a6957600080fd5b80639e17747a146109ad578063a0712d68146109cd578063a217fddf146109e0578063a7f4bdce146109f557600080fd5b80638af5de72116101d75780638af5de72146109375780638da5cb5b1461094e5780639010d07c1461096d57806391d148541461098d57600080fd5b80638033a805146108c15780638456cb59146108e1578063897fd469146108f657806389a302711461091657600080fd5b80634107c4f6116103035780635c975abb116102965780636ebf33ce116102655780636ebf33ce14610807578063704b6c021461083e578063715018a61461085e5780637da0a877146108735780637ecebe001461089357600080fd5b80635c975abb1461079b5780635f2b3737146107b3578063615ce6b4146107d357806363032feb146107e657600080fd5b8063572b6c05116102d2578063572b6c05146106fd57806357cdd7f91461072c578063582489cb1461074d578063582712b11461077b57600080fd5b80634107c4f61461066d57806343a463c71461068d578063472c38ff146106ad578063486ff0cd146106cd57600080fd5b8063248a9ca3116103865780632f2ff15d116103555780632f2ff15d146105ba57806331e8df89146105da57806336568abe146105fa57806339dacedb1461061a5780633f4ba83a1461065857600080fd5b8063248a9ca31461052a578063278758a81461055a57806328054fb71461057a5780632aaf62d71461059a57600080fd5b80630d8b76a8116103c25780630d8b76a8146104be57806319463093146104e05780631a5787d814610500578063218253cc1461051757600080fd5b8063013dee70146103ff57806301ffc9a71461043d57806302a882e61461046d5780630c3a18211461049d57600080fd5b366103fa57005b600080fd5b34801561040b57600080fd5b5061019554610420906001600160a01b031681565b6040516001600160a01b0390911681526020015b60405180910390f35b34801561044957600080fd5b5061045d610458366004614894565b610c6d565b6040519015158152602001610434565b34801561047957600080fd5b5061048f60008051602061557883398151915281565b604051908152602001610434565b3480156104a957600080fd5b5061016654610420906001600160a01b031681565b3480156104ca57600080fd5b506104de6104d93660046148d3565b610c98565b005b3480156104ec57600080fd5b5061048f6104fb3660046149a5565b610d0d565b34801561050c57600080fd5b5061048f6101925481565b61048f610525366004614acd565b610d59565b34801561053657600080fd5b5061048f610545366004614b54565b60009081526097602052604090206001015490565b34801561056657600080fd5b506104de6105753660046148d3565b610e20565b34801561058657600080fd5b506104de610595366004614b6d565b610f67565b3480156105a657600080fd5b506104de6105b5366004614b54565b610f75565b3480156105c657600080fd5b506104de6105d5366004614bab565b610fca565b3480156105e657600080fd5b506104de6105f53660046148d3565b610ff4565b34801561060657600080fd5b506104de610615366004614bab565b611078565b34801561062657600080fd5b5061064b610635366004614b54565b61016a6020526000908152604090205460ff1681565b6040516104349190614c13565b34801561066457600080fd5b506104de611102565b34801561067957600080fd5b506104de610688366004614c21565b61144f565b34801561069957600080fd5b506104de6106a8366004614cb7565b61161c565b3480156106b957600080fd5b506104de6106c8366004614cec565b6116a4565b3480156106d957600080fd5b5060408051808201825260018152603160f81b602082015290516104349190614d9a565b34801561070957600080fd5b5061045d6107183660046148d3565b6000546001600160a01b0391821691161490565b34801561073857600080fd5b5061016754610420906001600160a01b031681565b34801561075957600080fd5b5061048f6107683660046148d3565b6101656020526000908152604090205481565b34801561078757600080fd5b506104de610796366004614e11565b61179b565b3480156107a757600080fd5b5060fb5460ff1661045d565b3480156107bf57600080fd5b506104de6107ce366004614e8e565b6117aa565b61048f6107e1366004614ef1565b6118c2565b3480156107f257600080fd5b5061019454610420906001600160a01b031681565b34801561081357600080fd5b50610420610822366004614b54565b610169602052600090815260409020546001600160a01b031681565b34801561084a57600080fd5b506104de6108593660046148d3565b611983565b34801561086a57600080fd5b506104de6119f0565b34801561087f57600080fd5b50600054610420906001600160a01b031681565b34801561089f57600080fd5b5061048f6108ae3660046148d3565b6101606020526000908152604090205481565b3480156108cd57600080fd5b506104de6108dc3660046148d3565b611a44565b3480156108ed57600080fd5b506104de611af9565b34801561090257600080fd5b506104de610911366004614f13565b611bee565b34801561092257600080fd5b5061016254610420906001600160a01b031681565b34801561094357600080fd5b5061048f6101965481565b34801561095a57600080fd5b5061012d546001600160a01b0316610420565b34801561097957600080fd5b50610420610988366004614ef1565b611d03565b34801561099957600080fd5b5061045d6109a8366004614bab565b611d22565b3480156109b957600080fd5b506104de6109c83660046148d3565b611d4d565b61048f6109db366004614b54565b611dd1565b3480156109ec57600080fd5b5061048f600081565b61048f610a03366004614f6c565b611de1565b348015610a1457600080fd5b5061048f610a233660046148d3565b6101646020526000908152604090205481565b348015610a4257600080fd5b506104de610a51366004614fb9565b611df3565b61048f610a64366004614ef1565b611dfb565b348015610a7557600080fd5b5061016354610420906001600160a01b031681565b348015610a9657600080fd5b5061045d610aa5366004614fe5565b611e0c565b348015610ab657600080fd5b5061048f610ac5366004614b54565b611f98565b348015610ad657600080fd5b506104de610ae5366004614b54565b611faf565b61048f610af8366004615088565b611fb7565b348015610b0957600080fd5b506104de610b18366004614bab565b611fc1565b348015610b2957600080fd5b50610193546104209061010090046001600160a01b031681565b61048f610b51366004614ef1565b611fe6565b348015610b6257600080fd5b506104de610595366004614cb7565b348015610b7d57600080fd5b50610420610b8c366004614b54565b610168602052600090815260409020546001600160a01b031681565b348015610bb457600080fd5b506104de610bc33660046148d3565b612169565b348015610bd457600080fd5b506104de610ae53660046148d3565b348015610bef57600080fd5b506101935461045d9060ff1681565b348015610c0a57600080fd5b5061015f54610420906001600160a01b031681565b348015610c2b57600080fd5b506104de610c3a3660046150d7565b6121bf565b61048f610a64366004614e8e565b348015610c5957600080fd5b506104de610c683660046148d3565b6122e2565b60006001600160e01b03198216635a05180f60e01b1480610c925750610c9282612355565b92915050565b610ca061238a565b6001600160a01b0316610cbc61012d546001600160a01b031690565b6001600160a01b031614610ceb5760405162461bcd60e51b8152600401610ce290615133565b60405180910390fd5b600080546001600160a01b0319166001600160a01b0392909216919091179055565b805160209182012060015460408051601960f81b81860152600160f81b602182015260228101929092526042808301939093528051808303909301835260629091019052805191012090565b6000610d6760fb5460ff1690565b15610d845760405162461bcd60e51b8152600401610ce290615168565b610d8c61238a565b6001600160a01b0316610da861012d546001600160a01b031690565b6001600160a01b031614610dce5760405162461bcd60e51b8152600401610ce290615133565b6000610dd861238a565b9050600080610de983888888612399565b90925090508015610e165761016354610e139084906001600160a01b03168989868a87600061260a565b93505b5050509392505050565b610e2861238a565b6001600160a01b0316610e4461012d546001600160a01b031690565b6001600160a01b031614610e6a5760405162461bcd60e51b8152600401610ce290615133565b610194546001600160a01b03168015610e965761016354610e96906001600160a01b031682600061267c565b61019480546001600160a01b0319166001600160a01b03841690811790915515801590610f44575061016354604051636eb1769f60e11b81523060048201526001600160a01b0384811660248301529091169063dd62ed3e9060440160206040518083038186803b158015610f0a57600080fd5b505afa158015610f1e573d6000803e3d6000fd5b505050506040513d601f19601f82011682018060405250810190610f429190615192565b155b15610f635761016354610f63906001600160a01b03168360001961267c565b5050565b610f6f6127d3565b50505050565b600080516020615578833981519152610f8d81612854565b6101968290556040518281527fd7d38c38bbd30bbca4f00bb551cbb24ecefef53d6dd0165fb1ebee05277234dc9060200160405180910390a15050565b600082815260976020526040902060010154610fe581612854565b610fef8383612865565b505050565b610ffc61238a565b6001600160a01b031661101861012d546001600160a01b031690565b6001600160a01b03161461103e5760405162461bcd60e51b8152600401610ce290615133565b61016754611055906001600160a01b031682612887565b61016780546001600160a01b0319166001600160a01b0392909216919091179055565b61108061238a565b6001600160a01b0316816001600160a01b0316146110f85760405162461bcd60e51b815260206004820152602f60248201527f416363657373436f6e74726f6c3a2063616e206f6e6c792072656e6f756e636560448201526e103937b632b9903337b91039b2b63360891b6064820152608401610ce2565b610f638282612959565b61110a61238a565b6001600160a01b031661112661012d546001600160a01b031690565b6001600160a01b03161461114c5760405162461bcd60e51b8152600401610ce290615133565b60fb5460ff166111955760405162461bcd60e51b815260206004820152601460248201527314185d5cd8589b194e881b9bdd081c185d5cd95960621b6044820152606401610ce2565b61119d61297b565b6101635461016654604051636eb1769f60e11b81523060048201526001600160a01b03918216602482015291169063dd62ed3e9060440160206040518083038186803b1580156111ec57600080fd5b505afa158015611200573d6000803e3d6000fd5b505050506040513d601f19601f820116820180604052508101906112249190615192565b611249576101665461016354611249916001600160a01b03918216911660001961267c565b6101625461016654604051636eb1769f60e11b81523060048201526001600160a01b03918216602482015291169063dd62ed3e9060440160206040518083038186803b15801561129857600080fd5b505afa1580156112ac573d6000803e3d6000fd5b505050506040513d601f19601f820116820180604052508101906112d09190615192565b6112f55761016654610162546112f5916001600160a01b03918216911660001961267c565b6101635461016754604051636eb1769f60e11b81523060048201526001600160a01b03918216602482015291169063dd62ed3e9060440160206040518083038186803b15801561134457600080fd5b505afa158015611358573d6000803e3d6000fd5b505050506040513d601f19601f8201168201806040525081019061137c9190615192565b6113a15761016754610163546113a1916001600160a01b03918216911660001961267c565b6101625461016754604051636eb1769f60e11b81523060048201526001600160a01b03918216602482015291169063dd62ed3e9060440160206040518083038186803b1580156113f057600080fd5b505afa158015611404573d6000803e3d6000fd5b505050506040513d601f19601f820116820180604052508101906114289190615192565b61144d57610167546101625461144d916001600160a01b03918216911660001961267c565b565b600061145b6001612a14565b90508015611477576000805460ff60a81b1916600160a81b1790555b61147f612ab4565b61149c600061149761012d546001600160a01b031690565b612aed565b6114a4612af7565b6114ae6001612b7f565b61016280546001600160a01b0319166001600160a01b03929092169190911790556114d7612e55565b61016380546001600160a01b03199081166001600160a01b039384161790915561015f805482168a8416179055610161805490911691881691909117905561151e85611d4d565b61152784610ff4565b61019580546001600160a01b0319166001600160a01b038a1617905561a8696101925546610192546101938054634e45415360005261016a6020527f6c585d855e16497087f6ed093c621ebf17e5140687c03b009023a4cdb199a0f4805460ff191660011790556001600160a01b03871661010002610100600160a81b031994909314939093166001600160a81b0319909316929092171790556115ca82610e20565b8015611612576000805460ff60a81b19169055604051600181527f7f26b83ff96e1f2b6a682f133852f6798a09c465da95921460cefb38474024989060200160405180910390a15b5050505050505050565b60008051602061557883398151915261163481612854565b610193546040516343a463c760e01b81526001600160a01b0386811660048301526024820186905260448201859052610100909204909116906343a463c790606401600060405180830381600087803b15801561169057600080fd5b505af1158015611612573d6000803e3d6000fd5b610167546001600160a01b031633146116ee5760405162461bcd60e51b815260206004820152600c60248201526b4f6e6c79206342726964676560a01b6044820152606401610ce2565b60008581526101686020526040902054610163546001600160a01b03918216918681169116141561174d576001600160a01b03811660009081526101656020526040812080548692906117429084906151c1565b909155506117939050565b610162546001600160a01b0386811691161415611793576001600160a01b038116600090815261016460205260408120805486929061178d9084906151c1565b90915550505b505050505050565b6117a36127d3565b5050505050565b6117b261238a565b6001600160a01b03166117ce61012d546001600160a01b031690565b6001600160a01b0316146117f45760405162461bcd60e51b8152600401610ce290615133565b815160005b81811015610f6f576000848281518110611815576118156151d9565b6020026020010151905080600014156118625760405162461bcd60e51b815260206004820152600f60248201526e125b9d985b1a590818da185a5b9251608a1b6044820152606401610ce2565b838281518110611874576118746151d9565b602090810291909101810151600083815261016a9092526040909120805460ff1916600183818111156118a9576118a9614bdb565b02179055505080806118ba906151ef565b9150506117f9565b60006118cc61238a565b6001600160a01b03166118e861012d546001600160a01b031690565b6001600160a01b03161461190e5760405162461bcd60e51b8152600401610ce290615133565b6101935460ff16610c92576040805160248082018590528251808303909101815260449091018252602080820180516001600160e01b0316632aaf62d760e01b179052600086815261016990915291822054909161197b9186916001600160a01b03909116908481612f3f565b949350505050565b61198b61238a565b6001600160a01b03166119a761012d546001600160a01b031690565b6001600160a01b0316146119cd5760405162461bcd60e51b8152600401610ce290615133565b61015f80546001600160a01b0319166001600160a01b0392909216919091179055565b6119f861238a565b6001600160a01b0316611a1461012d546001600160a01b031690565b6001600160a01b031614611a3a5760405162461bcd60e51b8152600401610ce290615133565b61144d60006130e7565b611a4c61238a565b6001600160a01b0316611a6861012d546001600160a01b031690565b6001600160a01b031614611a8e5760405162461bcd60e51b8152600401610ce290615133565b6001600160a01b038116611ad65760405162461bcd60e51b815260206004820152600f60248201526e496e76616c6964206164647265737360881b6044820152606401610ce2565b61019580546001600160a01b0319166001600160a01b0392909216919091179055565b611b0161238a565b6001600160a01b0316611b1d61012d546001600160a01b031690565b6001600160a01b031614611b435760405162461bcd60e51b8152600401610ce290615133565b60fb5460ff1615611b665760405162461bcd60e51b8152600401610ce290615168565b611b6e61313a565b6101665461016354611b8e916001600160a01b039182169116600061267c565b6101665461016254611bae916001600160a01b039182169116600061267c565b6101675461016354611bce916001600160a01b039182169116600061267c565b610167546101625461144d916001600160a01b039182169116600061267c565b611bf661238a565b6001600160a01b0316611c1261012d546001600160a01b031690565b6001600160a01b031614611c385760405162461bcd60e51b8152600401610ce290615133565b815160005b81811015610f6f576000848281518110611c5957611c596151d9565b602002602001015190508060001415611ca65760405162461bcd60e51b815260206004820152600f60248201526e125b9d985b1a590818da185a5b9251608a1b6044820152606401610ce2565b838281518110611cb857611cb86151d9565b6020908102919091018101516000928352610169909152604090912080546001600160a01b0319166001600160a01b0390921691909117905580611cfb816151ef565b915050611c3d565b600082815260c960205260408120611d1b9083613193565b9392505050565b60009182526097602090815260408084206001600160a01b0393909316845291905290205460ff1690565b611d5561238a565b6001600160a01b0316611d7161012d546001600160a01b031690565b6001600160a01b031614611d975760405162461bcd60e51b8152600401610ce290615133565b61016654611dae906001600160a01b031682612887565b61016680546001600160a01b0319166001600160a01b0392909216919091179055565b6000611ddb6127d3565b50919050565b6000611deb6127d3565b509392505050565b610fef6127d3565b6000611e056127d3565b5092915050565b600080611e1885610d0d565b90506001600160a01b0386163b15611e7457611e6c86828787878080601f01602080910402602001604051908101604052809392919081815260200183838082843760009201919091525061319f92505050565b91505061197b565b6000806000611eb887878080601f0160208091040260200160405190810160405280939291908181526020018383808284376000920182905250925061323b915050565b6040517f19457468657265756d205369676e6564204d6573736167653a0a3332000000006020820152603c81018890529295509093509150600090605c0160408051601f198184030181528282528051602091820120600080855291840180845281905260ff88169284019290925260608301869052608083018590529092509060019060a0016020604051602081039080840390855afa158015611f61573d6000803e3d6000fd5b5050506020604051035190508a6001600160a01b0316816001600160a01b031614965050505050505061197b565b50949350505050565b600081815260c960205260408120610c9290613259565b610f636127d3565b6000611f8f6127d3565b600082815260976020526040902060010154611fdc81612854565b610fef8383612959565b6000611ff460fb5460ff1690565b156120115760405162461bcd60e51b8152600401610ce290615168565b61201961238a565b6001600160a01b031661203561012d546001600160a01b031690565b6001600160a01b03161461205b5760405162461bcd60e51b8152600401610ce290615133565b600061206561238a565b6101935490915060ff16156120ed57610193546040516343a463c760e01b81526001600160a01b0383811660048301526024820187905260448201869052610100909204909116906343a463c790606401600060405180830381600087803b1580156120d057600080fd5b505af11580156120e4573d6000803e3d6000fd5b50505050611e05565b604080516001600160a01b0383811660248301526044820187905260648083018790528351808403909101815260849092018352602080830180516001600160e01b03166343a463c760e01b17905261019254600081815261016990925293812054929361216093909216908481612f3f565b95945050505050565b61217161238a565b6001600160a01b031661218d61012d546001600160a01b031690565b6001600160a01b0316146121b35760405162461bcd60e51b8152600401610ce290615133565b6121bc81613263565b50565b60006121cb6001612a14565b905080156121e7576000805460ff60a81b1916600160a81b1790555b6121ef612ab4565b612207600061149761012d546001600160a01b031690565b61220f612af7565b61221960016132de565b61016280546001600160a01b0319166001600160a01b039290921691909117905561224460006132de565b61016380546001600160a01b03199081166001600160a01b039384161790915561015f80548216888416179055610161805490911691861691909117905561228b83611d4d565b61229482610ff4565b80156117a3576000805460ff60a81b19169055604051600181527f7f26b83ff96e1f2b6a682f133852f6798a09c465da95921460cefb38474024989060200160405180910390a15050505050565b6122ea61238a565b6001600160a01b031661230661012d546001600160a01b031690565b6001600160a01b03161461232c5760405162461bcd60e51b8152600401610ce290615133565b61019380546001600160a01b0390921661010002610100600160a81b0319909216919091179055565b60006001600160e01b03198216637965db0b60e01b1480610c9257506301ffc9a760e01b6001600160e01b0319831614610c92565b600061239461352e565b905090565b8251606090600090806001600160401b038111156123b9576123b96148f0565b6040519080825280602002602001820160405280156123e2578160200160208202803683370190505b50925046600080805b848110156125a85760008a8281518110612407576124076151d9565b6020026020010151905060008a8381518110612425576124256151d9565b60200260200101519050858114156124485761244182866151c1565b9450612593565b82881461257857818c8981518110612462576124626151d9565b602002602001018181525050808b8981518110612481576124816151d9565b60200260200101818152505089838151811061249f5761249f6151d9565b60200260200101518a89815181106124b9576124b96151d9565b602002602001019060018111156124d2576124d2614bdb565b908160018111156124e5576124e5614bdb565b905250600081815261016960205260409020546001600160a01b0316806125435760405162461bcd60e51b8152602060048201526012602482015271125b9d985b1a59081d5cd95c881859d95b9d60721b6044820152606401610ce2565b808a8a81518110612556576125566151d9565b60200260200101906001600160a01b031690816001600160a01b031681525050505b87612582816151ef565b9850612590905082856151c1565b93505b505080806125a0906151ef565b9150506123eb565b506125cd8a306125b884866151c1565b610163546001600160a01b0316929190613562565b6001600160a01b038a1660009081526101656020526040812080548492906125f69084906151c1565b925050819055505050505094509492505050565b60008060008060008060006126228d8d8d8d8d61359a565b949a5092985090965094509250905087158015612640575060008651115b15612652576126528f8f888888613a48565b82511561266a576126678f8f8585858d613b72565b96505b50505050505098975050505050505050565b8015806127055750604051636eb1769f60e11b81523060048201526001600160a01b03838116602483015284169063dd62ed3e9060440160206040518083038186803b1580156126cb57600080fd5b505afa1580156126df573d6000803e3d6000fd5b505050506040513d601f19601f820116820180604052508101906127039190615192565b155b6127705760405162461bcd60e51b815260206004820152603660248201527f5361666545524332303a20617070726f76652066726f6d206e6f6e2d7a65726f60448201527520746f206e6f6e2d7a65726f20616c6c6f77616e636560501b6064820152608401610ce2565b6040516001600160a01b038316602482015260448101829052610fef90849063095ea7b360e01b906064015b60408051601f198184030181529190526020810180516001600160e01b03166001600160e01b031990931692909217909152613e12565b610195546040516060916000916001600160a01b03909116906127f9908390369061520a565b600060405180830381855af49150503d8060008114612834576040519150601f19603f3d011682016040523d82523d6000602084013e612839565b606091505b505090506040513d6000823e818015612850573d82f35b3d82fd5b6121bc8161286061238a565b613ee4565b61286f8282613f48565b600082815260c960205260409020610fef9082613fcf565b806001600160a01b0316826001600160a01b031614156128a5575050565b6001600160a01b038216156128fe576128cc60008051602061557883398151915283612959565b610163546128e5906001600160a01b031683600061267c565b610162546128fe906001600160a01b031683600061267c565b6001600160a01b03811615610f635761292560008051602061557883398151915282612aed565b6101625461293f906001600160a01b03168260001961267c565b61016354610f63906001600160a01b03168260001961267c565b6129638282613fe4565b600082815260c960205260409020610fef9082614069565b60fb5460ff166129c45760405162461bcd60e51b815260206004820152601460248201527314185d5cd8589b194e881b9bdd081c185d5cd95960621b6044820152606401610ce2565b60fb805460ff191690557f5db9ee0a495bf2e6ff9c91a7834c1ba4fdd244a5e8aa4e537bd38aeae4b073aa6129f761238a565b6040516001600160a01b03909116815260200160405180910390a1565b60008054600160a81b900460ff1615612a5d578160ff166001148015612a395750303b155b612a555760405162461bcd60e51b8152600401610ce29061521a565b506000919050565b60005460ff808416600160a01b9092041610612a8b5760405162461bcd60e51b8152600401610ce29061521a565b506000805460ff909216600160a01b0260ff60a01b19909216919091179055600190565b919050565b600054600160a81b900460ff16612add5760405162461bcd60e51b8152600401610ce290615268565b61144d612ae861238a565b6130e7565b610f638282612865565b600054600160a81b900460ff16612b205760405162461bcd60e51b8152600401610ce290615268565b612b7a60007f47e79534a245952e8b16893a336b85a3d9ea9fa8c573f3d803afb92a794692184660408051602081019390935282015230606082015260800160405160208183030381529060405280519060200120905090565b600155565b600046634e454153811415612bff576001836001811115612ba257612ba2614bdb565b1415612bc4575073cceca5c4a3355f8e7a0b7d2a7251eec012be7c5892915050565b6000836001811115612bd857612bd8614bdb565b1415612bfa575073f9c249974c1acf96a59e5757cc9ba7035ce489b192915050565b612e4c565b61a869811415612c75576001836001811115612c1d57612c1d614bdb565b1415612c3f5750737acdaba7ee51c1c3f7c6d605cc26b1c9aab0495a92915050565b6000836001811115612c5357612c53614bdb565b1415612bfa57507378ae2880bd1672b49a33cf796cf53fe6db0ab01d92915050565b6061811415612cea576001836001811115612c9257612c92614bdb565b1415612cb4575073da14d11d2c7d79f167b6057de3d9cc25c2c488d592915050565b6000836001811115612cc857612cc8614bdb565b1415612bfa5750731f326a8ca5399418a76ea0efa0403cbb00790c6792915050565b6004811415612d5f576001836001811115612d0757612d07614bdb565b1415612d29575073df5324ebe6f6b852ff5cbf73627ee137e907527692915050565b6000836001811115612d3d57612d3d614bdb565b1415612bfa57507321e48034753e490ff04f2f75f7caedf081b320d592915050565b610fa2811415612dd5576001836001811115612d7d57612d7d614bdb565b1415612d9f575073147abee959a578f2ae5f9bc996dcf6259ebd3a8992915050565b6000836001811115612db357612db3614bdb565b1415612bfa575073b02068ae04bf5d184efde3583e09f2185a30da0e92915050565b62013881811415612e4c576001836001811115612df457612df4614bdb565b1415612e165750736600bec324ccdd12c70297311aefb37fafb1d68992915050565b6000836001811115612e2a57612e2a614bdb565b1415612e4c5750737e4c234b1d634db790592d1550816b19e862f74492915050565b50600092915050565b600046634e454153811415612e7f5773f9c249974c1acf96a59e5757cc9ba7035ce489b191505090565b61a869811415612ea4577378ae2880bd1672b49a33cf796cf53fe6db0ab01d91505090565b6061811415612ec857737d43aabc515c356145049227cee54b608342c0ad91505090565b6004811415612eec577321e48034753e490ff04f2f75f7caedf081b320d591505090565b610fa2811415612f1157737d43aabc515c356145049227cee54b608342c0ad91505090565b62013881811415612f3757737e4c234b1d634db790592d1550816b19e862f74491505090565b600091505090565b60006001600160a01b038516612f905760405162461bcd60e51b8152602060048201526016602482015275125b9d985b1a59081d185c99d95d10dbdb9d1c9858dd60521b6044820152606401610ce2565b600080600088815261016a602052604090205460ff166001811115612fb757612fb7614bdb565b14612fce57610167546001600160a01b0316612fdc565b610166546001600160a01b03165b60405163bebc4f7160e01b81529091506001600160a01b0382169063bebc4f7190613011908a908a908a908a906004016152b3565b60206040518083038186803b15801561302957600080fd5b505afa15801561303d573d6000803e3d6000fd5b505050506040513d601f19601f820116820180604052508101906130619190615192565b9150821580156130715750814710155b156130dd57604051630ef95ceb60e31b81526001600160a01b038216906377cae7589084906130aa908b908b908b908b906004016152b3565b6000604051808303818588803b1580156130c357600080fd5b505af11580156130d7573d6000803e3d6000fd5b50505050505b5095945050505050565b61012d80546001600160a01b038381166001600160a01b0319831681179093556040519116919082907f8be0079c531659141344cd1fd0a4f28419497f9722a3daafe3b4186f6b6457e090600090a35050565b60fb5460ff161561315d5760405162461bcd60e51b8152600401610ce290615168565b60fb805460ff191660011790557f62e78cea01bee320cd4e420270b5ea74000d11b0c9f74754ebdbfc544b05a2586129f761238a565b6000611d1b838361407e565b600080856001600160a01b031663e75235b86040518163ffffffff1660e01b815260040160206040518083038186803b1580156131db57600080fd5b505afa1580156131ef573d6000803e3d6000fd5b505050506040513d601f19601f820116820180604052508101906132139190615192565b90508061322457600091505061197b565b61323186868686856140a8565b9695505050505050565b60419081029190910160208101516040820151919092015160ff1692565b6000610c92825490565b61326b61238a565b6001600160a01b031661328761012d546001600160a01b031690565b6001600160a01b0316146132ad5760405162461bcd60e51b8152600401610ce290615133565b6132ca60006132c561012d546001600160a01b031690565b612959565b6132d381614302565b6121bc600082612aed565b600046634e45415281141561335957600183600181111561330157613301614bdb565b1415613323575073b12bfca5a55806aaf64e99521918a4bf0fc4080292915050565b600083600181111561333757613337614bdb565b1415612bfa5750734988a896b1227218e4a686fde5eabdcabd91571f92915050565b61a86a8114156133cf57600183600181111561337757613377614bdb565b1415613399575073a7d7079b0fead91f3e65f86e8915cb59c1a4c66492915050565b60008360018111156133ad576133ad614bdb565b1415612bfa575073c7198437980c041c805a1edcba50c1ce5db9511892915050565b60388114156134445760018360018111156133ec576133ec614bdb565b141561340e5750738ac76a51cc950d9822d68b83fe1ad97b32cd580d92915050565b600083600181111561342257613422614bdb565b1415612bfa57507355d398326f99059ff775485246999027b319795592915050565b60018114156134b957600183600181111561346157613461614bdb565b1415613483575073a0b86991c6218b36c1d19d4a2e9eb0ce3606eb4892915050565b600083600181111561349757613497614bdb565b1415612bfa575073dac17f958d2ee523a2206206994597c13d831ec792915050565b6089811415612e4c5760018360018111156134d6576134d6614bdb565b14156134f85750732791bca1f2de4661ed88a30c99a7a9449aa8417492915050565b600083600181111561350c5761350c614bdb565b1415612e4c575073c2132d05d31c914a87c6611c10748aeb04b58e8f92915050565b60006018361080159061354b57506000546001600160a01b031633145b1561355d575060131936013560601c90565b503390565b6040516001600160a01b0380851660248301528316604482015260648101829052610f6f9085906323b872dd60e01b9060840161279c565b60608060608060608060008060005b898110156136495760008b82815181106135c5576135c56151d9565b602002602001015160018111156135de576135de614bdb565b14156135f657826135ee816151ef565b935050613637565b60018b828151811061360a5761360a6151d9565b6020026020010151600181111561362357613623614bdb565b14156136375781613633816151ef565b9250505b80613641816151ef565b9150506135a9565b50816001600160401b03811115613662576136626148f0565b60405190808252806020026020018201604052801561368b578160200160208202803683370190505b509750816001600160401b038111156136a6576136a66148f0565b6040519080825280602002602001820160405280156136cf578160200160208202803683370190505b509650816001600160401b038111156136ea576136ea6148f0565b604051908082528060200260200182016040528015613713578160200160208202803683370190505b509550806001600160401b0381111561372e5761372e6148f0565b604051908082528060200260200182016040528015613757578160200160208202803683370190505b509450806001600160401b03811115613772576137726148f0565b60405190808252806020026020018201604052801561379b578160200160208202803683370190505b509350806001600160401b038111156137b6576137b66148f0565b6040519080825280602002602001820160405280156137df578160200160208202803683370190505b509250600091506000905060005b89811015613a385760008b8281518110613809576138096151d9565b6020026020010151600181111561382257613822614bdb565b14156138ee578d818151811061383a5761383a6151d9565b6020026020010151898481518110613854576138546151d9565b6020026020010181815250508c8181518110613872576138726151d9565b602002602001015188848151811061388c5761388c6151d9565b6020026020010181815250508b81815181106138aa576138aa6151d9565b60200260200101518784815181106138c4576138c46151d9565b6001600160a01b0390921660209283029190910190910152826138e6816151ef565b935050613a26565b60018b8281518110613902576139026151d9565b6020026020010151600181111561391b5761391b614bdb565b14156139e7578d8181518110613933576139336151d9565b602002602001015186838151811061394d5761394d6151d9565b6020026020010181815250508c818151811061396b5761396b6151d9565b6020026020010151858381518110613985576139856151d9565b6020026020010181815250508b81815181106139a3576139a36151d9565b60200260200101518483815181106139bd576139bd6151d9565b6001600160a01b0390921660209283029190910190910152816139df816151ef565b925050613a26565b60405162461bcd60e51b8152602060048201526014602482015273496e76616c69642061646170746572207479706560601b6044820152606401610ce2565b80613a30816151ef565b9150506137ed565b5050509550955095509550955095565b82516101665460405163219d5ca560e01b81526001600160a01b039091169063219d5ca590613a8190889088908890889060040161531b565b600060405180830381600087803b158015613a9b57600080fd5b505af1158015613aaf573d6000803e3d6000fd5b505050506000613abc4690565b905060005b8281101561161257848181518110613adb57613adb6151d9565b6020026020010151868281518110613af557613af56151d9565b6020026020010151896001600160a01b03167f3ba03e6b4cb24f75ab77e3b8fb7ea0a24af301c15f5fb5709dd68c39604888158a86898781518110613b3c57613b3c6151d9565b6020026020010151600080604051613b58959493929190615397565b60405180910390a480613b6a816151ef565b915050613ac1565b600080855190508061016760009054906101000a90046001600160a01b03166001600160a01b0316633b11ca516040518163ffffffff1660e01b815260040160206040518083038186803b158015613bc957600080fd5b505afa158015613bdd573d6000803e3d6000fd5b505050506040513d601f19601f82011682018060405250810190613c019190615192565b613c0b91906153d3565b915082158015613c1b5750814710155b15613e0757610167546040805163057ff68760e51b815290516000926001600160a01b03169163affed0e0916004808301926020929190829003018186803b158015613c6657600080fd5b505afa158015613c7a573d6000803e3d6000fd5b505050506040513d601f19601f82011682018060405250810190613c9e9190615192565b6101675460405163219d5ca560e01b81529192506001600160a01b03169063219d5ca5908590613cd8908c908c908c908c9060040161531b565b6000604051808303818588803b158015613cf157600080fd5b505af1158015613d05573d6000803e3d6000fd5b50505050506000613d134690565b905060005b83811015613e03576000613d2c82856151c1565b60008181526101686020526040902080546001600160a01b0319166001600160a01b038f161790558951909150899083908110613d6b57613d6b6151d9565b60200260200101518a8381518110613d8557613d856151d9565b60200260200101518d6001600160a01b03167f3ba03e6b4cb24f75ab77e3b8fb7ea0a24af301c15f5fb5709dd68c39604888158e878d8881518110613dcc57613dcc6151d9565b6020026020010151600188604051613de8959493929190615397565b60405180910390a45080613dfb816151ef565b915050613d18565b5050505b509695505050505050565b6000613e67826040518060400160405280602081526020017f5361666545524332303a206c6f772d6c6576656c2063616c6c206661696c6564815250856001600160a01b03166143ba9092919063ffffffff16565b805190915015610fef5780806020019051810190613e8591906153f2565b610fef5760405162461bcd60e51b815260206004820152602a60248201527f5361666545524332303a204552433230206f7065726174696f6e20646964206e6044820152691bdd081cdd58d8d9595960b21b6064820152608401610ce2565b613eee8282611d22565b610f6357613f06816001600160a01b031660146143c9565b613f118360206143c9565b604051602001613f22929190615414565b60408051601f198184030181529082905262461bcd60e51b8252610ce291600401614d9a565b613f528282611d22565b610f635760008281526097602090815260408083206001600160a01b03851684529091529020805460ff19166001179055613f8b61238a565b6001600160a01b0316816001600160a01b0316837f2f8788117e7eff1d82e926ec794901d17c78024a50270940304540a733656f0d60405160405180910390a45050565b6000611d1b836001600160a01b038416614564565b613fee8282611d22565b15610f635760008281526097602090815260408083206001600160a01b03851684529091529020805460ff1916905561402561238a565b6001600160a01b0316816001600160a01b0316837ff6391f5c32d9c69d2a47ea670b442974b53935d1edc7fd64eb21e047a839171b60405160405180910390a45050565b6000611d1b836001600160a01b0384166145b3565b6000826000018281548110614095576140956151d9565b9060005260206000200154905092915050565b60006140b58260416153d3565b835110156140c557506000612160565b600080876001600160a01b031663a0e67e2b6040518163ffffffff1660e01b815260040160006040518083038186803b15801561410157600080fd5b505afa158015614115573d6000803e3d6000fd5b505050506040513d6000823e601f3d908101601f1916820160405261413d9190810190615489565b905060008080805b878110156142f05760418181028a0160208101516040820151919092015160ff1695509093509150836142205791945084916141828860416153d3565b8210156141985760009650505050505050612160565b88516141a58360206151c1565b11156141ba5760009650505050505050612160565b6020828a018101518a51909182906141d39086906151c1565b6141dd91906151c1565b11156141f3576000975050505050505050612160565b898301602001614204888d836146a6565b61421957600098505050505050505050612160565b50506142c1565b6040517f19457468657265756d205369676e6564204d6573736167653a0a3332000000006020820152603c81018c9052600190605c0160408051601f198184030181528282528051602091820120600084529083018083525260ff871690820152606081018590526080810184905260a0016020604051602081039080840390855afa1580156142b4573d6000803e3d6000fd5b5050506020604051035195505b6142cb85876146c0565b6142de5760009650505050505050612160565b806142e8816151ef565b915050614145565b5060019b9a5050505050505050505050565b61430a61238a565b6001600160a01b031661432661012d546001600160a01b031690565b6001600160a01b03161461434c5760405162461bcd60e51b8152600401610ce290615133565b6001600160a01b0381166143b15760405162461bcd60e51b815260206004820152602660248201527f4f776e61626c653a206e6577206f776e657220697320746865207a65726f206160448201526564647265737360d01b6064820152608401610ce2565b6121bc816130e7565b606061197b848460008561472a565b606060006143d88360026153d3565b6143e39060026151c1565b6001600160401b038111156143fa576143fa6148f0565b6040519080825280601f01601f191660200182016040528015614424576020820181803683370190505b509050600360fc1b8160008151811061443f5761443f6151d9565b60200101906001600160f81b031916908160001a905350600f60fb1b8160018151811061446e5761446e6151d9565b60200101906001600160f81b031916908160001a90535060006144928460026153d3565b61449d9060016151c1565b90505b6001811115614515576f181899199a1a9b1b9c1cb0b131b232b360811b85600f16601081106144d1576144d16151d9565b1a60f81b8282815181106144e7576144e76151d9565b60200101906001600160f81b031916908160001a90535060049490941c9361450e81615517565b90506144a0565b508315611d1b5760405162461bcd60e51b815260206004820181905260248201527f537472696e67733a20686578206c656e67746820696e73756666696369656e746044820152606401610ce2565b60008181526001830160205260408120546145ab57508154600181810184556000848152602080822090930184905584548482528286019093526040902091909155610c92565b506000610c92565b6000818152600183016020526040812054801561469c5760006145d760018361552e565b85549091506000906145eb9060019061552e565b905081811461465057600086600001828154811061460b5761460b6151d9565b906000526020600020015490508087600001848154811061462e5761462e6151d9565b6000918252602080832090910192909255918252600188019052604090208390555b855486908061466157614661615545565b600190038181906000526020600020016000905590558560010160008681526020019081526020016000206000905560019350505050610c92565b6000915050610c92565b6000806146b284610d0d565b90506121608582868661319f565b8151600090815b8181101561471f57836001600160a01b03168582815181106146eb576146eb6151d9565b60200260200101516001600160a01b0316141561470d57600192505050610c92565b80614717816151ef565b9150506146c7565b506000949350505050565b60608247101561478b5760405162461bcd60e51b815260206004820152602660248201527f416464726573733a20696e73756666696369656e742062616c616e636520666f6044820152651c8818d85b1b60d21b6064820152608401610ce2565b6001600160a01b0385163b6147e25760405162461bcd60e51b815260206004820152601d60248201527f416464726573733a2063616c6c20746f206e6f6e2d636f6e74726163740000006044820152606401610ce2565b600080866001600160a01b031685876040516147fe919061555b565b60006040518083038185875af1925050503d806000811461483b576040519150601f19603f3d011682016040523d82523d6000602084013e614840565b606091505b509150915061485082828661485b565b979650505050505050565b6060831561486a575081611d1b565b82511561487a5782518084602001fd5b8160405162461bcd60e51b8152600401610ce29190614d9a565b6000602082840312156148a657600080fd5b81356001600160e01b031981168114611d1b57600080fd5b6001600160a01b03811681146121bc57600080fd5b6000602082840312156148e557600080fd5b8135611d1b816148be565b634e487b7160e01b600052604160045260246000fd5b604051601f8201601f191681016001600160401b038111828210171561492e5761492e6148f0565b604052919050565b600082601f83011261494757600080fd5b81356001600160401b03811115614960576149606148f0565b614973601f8201601f1916602001614906565b81815284602083860101111561498857600080fd5b816020850160208301376000918101602001919091529392505050565b6000602082840312156149b757600080fd5b81356001600160401b038111156149cd57600080fd5b61197b84828501614936565b60006001600160401b038211156149f2576149f26148f0565b5060051b60200190565b600082601f830112614a0d57600080fd5b81356020614a22614a1d836149d9565b614906565b82815260059290921b84018101918181019086841115614a4157600080fd5b8286015b84811015613e075780358352918301918301614a45565b803560028110612aaf57600080fd5b600082601f830112614a7c57600080fd5b81356020614a8c614a1d836149d9565b82815260059290921b84018101918181019086841115614aab57600080fd5b8286015b84811015613e0757614ac081614a5c565b8352918301918301614aaf565b600080600060608486031215614ae257600080fd5b83356001600160401b0380821115614af957600080fd5b614b05878388016149fc565b94506020860135915080821115614b1b57600080fd5b614b27878388016149fc565b93506040860135915080821115614b3d57600080fd5b50614b4a86828701614a6b565b9150509250925092565b600060208284031215614b6657600080fd5b5035919050565b600080600060608486031215614b8257600080fd5b8335614b8d816148be565b925060208401359150614ba260408501614a5c565b90509250925092565b60008060408385031215614bbe57600080fd5b823591506020830135614bd0816148be565b809150509250929050565b634e487b7160e01b600052602160045260246000fd5b60028110614c0f57634e487b7160e01b600052602160045260246000fd5b9052565b60208101610c928284614bf1565b600080600080600080600060e0888a031215614c3c57600080fd5b8735614c47816148be565b96506020880135614c57816148be565b95506040880135614c67816148be565b94506060880135614c77816148be565b93506080880135614c87816148be565b925060a0880135614c97816148be565b915060c0880135614ca7816148be565b8091505092959891949750929550565b600080600060608486031215614ccc57600080fd5b8335614cd7816148be565b95602085013595506040909401359392505050565b600080600080600060a08688031215614d0457600080fd5b853594506020860135614d16816148be565b935060408601359250606086013591506080860135614d34816148be565b809150509295509295909350565b60005b83811015614d5d578181015183820152602001614d45565b83811115610f6f5750506000910152565b60008151808452614d86816020860160208601614d42565b601f01601f19169290920160200192915050565b602081526000611d1b6020830184614d6e565b600082601f830112614dbe57600080fd5b81356020614dce614a1d836149d9565b82815260059290921b84018101918181019086841115614ded57600080fd5b8286015b84811015613e07578035614e04816148be565b8352918301918301614df1565b60008060008060808587031215614e2757600080fd5b8435614e32816148be565b935060208501356001600160401b0380821115614e4e57600080fd5b614e5a88838901614dad565b94506040870135915080821115614e7057600080fd5b50614e7d878288016149fc565b949793965093946060013593505050565b60008060408385031215614ea157600080fd5b82356001600160401b0380821115614eb857600080fd5b614ec4868387016149fc565b93506020850135915080821115614eda57600080fd5b50614ee785828601614a6b565b9150509250929050565b60008060408385031215614f0457600080fd5b50508035926020909101359150565b60008060408385031215614f2657600080fd5b82356001600160401b0380821115614f3d57600080fd5b614f49868387016149fc565b93506020850135915080821115614f5f57600080fd5b50614ee785828601614dad565b600080600060608486031215614f8157600080fd5b83356001600160401b03811115614f9757600080fd5b614fa3868287016149fc565b9660208601359650604090950135949350505050565b60008060408385031215614fcc57600080fd5b8235614fd7816148be565b946020939093013593505050565b60008060008060608587031215614ffb57600080fd5b8435615006816148be565b935060208501356001600160401b038082111561502257600080fd5b61502e88838901614936565b9450604087013591508082111561504457600080fd5b818701915087601f83011261505857600080fd5b81358181111561506757600080fd5b88602082850101111561507957600080fd5b95989497505060200194505050565b6000806000806080858703121561509e57600080fd5b84356001600160401b03808211156150b557600080fd5b6150c1888389016149fc565b95506020870135915080821115614e4e57600080fd5b600080600080608085870312156150ed57600080fd5b84356150f8816148be565b93506020850135615108816148be565b92506040850135615118816148be565b91506060850135615128816148be565b939692955090935050565b6020808252818101527f4f776e61626c653a2063616c6c6572206973206e6f7420746865206f776e6572604082015260600190565b60208082526010908201526f14185d5cd8589b194e881c185d5cd95960821b604082015260600190565b6000602082840312156151a457600080fd5b5051919050565b634e487b7160e01b600052601160045260246000fd5b600082198211156151d4576151d46151ab565b500190565b634e487b7160e01b600052603260045260246000fd5b6000600019821415615203576152036151ab565b5060010190565b8183823760009101908152919050565b6020808252602e908201527f496e697469616c697a61626c653a20636f6e747261637420697320616c72656160408201526d191e481a5b9a5d1a585b1a5e995960921b606082015260800190565b6020808252602b908201527f496e697469616c697a61626c653a20636f6e7472616374206973206e6f74206960408201526a6e697469616c697a696e6760a81b606082015260800190565b84815260018060a01b03841660208201528260408201526080606082015260006132316080830184614d6e565b600081518084526020808501945080840160005b83811015615310578151875295820195908201906001016152f4565b509495945050505050565b600060018060a01b038087168352602060808185015261533e60808501886152e0565b848103604086015261535081886152e0565b8581036060870152865180825283880192509083019060005b81811015615387578351861683529284019291840191600101615369565b50909a9950505050505050505050565b6001600160a01b038681168252602082018690528416604082015260a081016153c36060830185614bf1565b8260808301529695505050505050565b60008160001904831182151516156153ed576153ed6151ab565b500290565b60006020828403121561540457600080fd5b81518015158114611d1b57600080fd5b7f416363657373436f6e74726f6c3a206163636f756e742000000000000000000081526000835161544c816017850160208801614d42565b7001034b99036b4b9b9b4b733903937b6329607d1b601791840191820152835161547d816028840160208801614d42565b01602801949350505050565b6000602080838503121561549c57600080fd5b82516001600160401b038111156154b257600080fd5b8301601f810185136154c357600080fd5b80516154d1614a1d826149d9565b81815260059190911b820183019083810190878311156154f057600080fd5b928401925b82841015614850578351615508816148be565b825292840192908401906154f5565b600081615526576155266151ab565b506000190190565b600082821015615540576155406151ab565b500390565b634e487b7160e01b600052603160045260246000fd5b6000825161556d818460208701614d42565b919091019291505056fedbeb657137b1822b3d5418bea6fd641226d964b4c3871ef23546db2622258871a26469706673582212209ab98f76909438dca2ae056d4881d1a0b9d9270c761cda3e92991cc899e8f9b164736f6c63430008090033",
  "devdoc": {
    "kind": "dev",
    "methods": {
      "burn(uint256,uint256)": {
        "details": "It calls burnByAdmin of BNIMinter.",
        "params": {
          "_pool": "total pool in USD",
          "_share": "amount of shares"
        }
      },
      "deposit(uint256[],address[],uint256[],uint256)": {
        "details": "It calls depositByAdmin of BNIVaults."
      },
      "exitWithdrawal(uint256)": {
        "details": "It calls exitWithdrawalByAdmin of BNIMinter.",
        "params": {
          "_gatheredAmount": "is the amount of token that is gathered."
        }
      },
      "gather(uint256[],uint8[])": {
        "details": "It gathers withdrawn tokens of the user from user agents."
      },
      "getMessageHashForSafe(bytes)": {
        "details": "Returns hash of a message that can be signed by owners.",
        "params": {
          "message": "Message that should be hashed"
        },
        "returns": {
          "_0": "Message hash."
        }
      },
      "getRoleAdmin(bytes32)": {
        "details": "Returns the admin role that controls `role`. See {grantRole} and {revokeRole}. To change a role's admin, use {_setRoleAdmin}."
      },
      "getRoleMember(bytes32,uint256)": {
        "details": "Returns one of the accounts that have `role`. `index` must be a value between 0 and {getRoleMemberCount}, non-inclusive. Role bearers are not sorted in any particular way, and their ordering may change at any point. WARNING: When using {getRoleMember} and {getRoleMemberCount}, make sure you perform all queries on the same block. See the following https://forum.openzeppelin.com/t/iterating-over-elements-on-enumerableset-in-openzeppelin-contracts/2296[forum post] for more information."
      },
      "getRoleMemberCount(bytes32)": {
        "details": "Returns the number of accounts that have `role`. Can be used together with {getRoleMember} to enumerate all bearers of a role."
      },
      "grantRole(bytes32,address)": {
        "details": "Grants `role` to `account`. If `account` had not been already granted `role`, emits a {RoleGranted} event. Requirements: - the caller must have ``role``'s admin role."
      },
      "hasRole(bytes32,address)": {
        "details": "Returns `true` if `account` has been granted `role`."
      },
      "initDeposit(uint256,uint256)": {
        "details": "It calls initDepositByAdmin of BNIMinter.",
        "params": {
          "_USDT6Amt": "USDT with 6 decimals to be deposited",
          "_pool": "total pool in USD"
        }
      },
      "mint(uint256)": {
        "details": "It calls mintByAdmin of BNIMinter."
      },
      "owner()": {
        "details": "Returns the address of the current owner."
      },
      "paused()": {
        "details": "Returns true if the contract is paused, and false otherwise."
      },
      "renounceOwnership()": {
        "details": "Leaves the contract without owner. It will not be possible to call `onlyOwner` functions anymore. Can only be called by the current owner. NOTE: Renouncing ownership will leave the contract without an owner, thereby removing any functionality that is only available to the owner."
      },
      "renounceRole(bytes32,address)": {
        "details": "Revokes `role` from the calling account. Roles are often managed via {grantRole} and {revokeRole}: this function's purpose is to provide a mechanism for accounts to lose their privileges if they are compromised (such as when a trusted device is misplaced). If the calling account had been revoked `role`, emits a {RoleRevoked} event. Requirements: - the caller must be `account`."
      },
      "revokeRole(bytes32,address)": {
        "details": "Revokes `role` from `account`. If `account` had been granted `role`, emits a {RoleRevoked} event. Requirements: - the caller must have ``role``'s admin role."
      },
      "setSubImpl(address)": {
        "details": "Delegate to sub contract"
      },
      "supportsInterface(bytes4)": {
        "details": "See {IERC165-supportsInterface}."
      },
      "takeOut(uint256)": {
        "details": "It takes out tokens from this agent.",
        "params": {
          "_gatheredAmount": "is the amount of token that is gathered."
        }
      },
      "transfer(uint256[],uint256[],uint8[])": {
        "details": "It transfers tokens to user agents"
      },
      "withdraw(uint256[],uint256,uint256)": {
        "details": "It calls withdrawPercByAdmin of BNIVaults."
      }
    },
    "version": 1
  },
  "userdoc": {
    "kind": "user",
    "methods": {
      "exitWithdrawal(uint256)": {
        "notice": "_gatheredAmount doesn't include the balance which is withdrawan in this agent."
      },
      "isTrustedForwarder(address)": {
        "notice": "return if the forwarder is trusted to forward relayed transactions to us. the forwarder is required to verify the sender's signature, and verify the call is not a replay."
      },
      "onRefunded(uint256,address,uint256,uint256,address)": {
        "notice": "Never revert in this function. If not, cbridgeAdapter.executeMessageWithTransferRefund will be failed."
      },
      "takeOut(uint256)": {
        "notice": "_gatheredAmount doesn't include the balance which is withdrawan in this agent."
      }
    },
    "version": 1
  },
  "storageLayout": {
    "storage": [
      {
        "astId": 68200,
        "contract": "contracts/xchain/agent/test/UserAgentTest.sol:UserAgentTest",
        "label": "trustedForwarder",
        "offset": 0,
        "slot": "0",
        "type": "t_address"
      },
      {
        "astId": 713,
        "contract": "contracts/xchain/agent/test/UserAgentTest.sol:UserAgentTest",
        "label": "_initialized",
        "offset": 20,
        "slot": "0",
        "type": "t_uint8"
      },
      {
        "astId": 716,
        "contract": "contracts/xchain/agent/test/UserAgentTest.sol:UserAgentTest",
        "label": "_initializing",
        "offset": 21,
        "slot": "0",
        "type": "t_bool"
      },
      {
        "astId": 68740,
        "contract": "contracts/xchain/agent/test/UserAgentTest.sol:UserAgentTest",
        "label": "separator",
        "offset": 0,
        "slot": "1",
        "type": "t_bytes32"
      },
      {
        "astId": 69157,
        "contract": "contracts/xchain/agent/test/UserAgentTest.sol:UserAgentTest",
        "label": "__gap",
        "offset": 0,
        "slot": "2",
        "type": "t_array(t_uint256)49_storage"
      },
      {
        "astId": 3292,
        "contract": "contracts/xchain/agent/test/UserAgentTest.sol:UserAgentTest",
        "label": "__gap",
        "offset": 0,
        "slot": "51",
        "type": "t_array(t_uint256)50_storage"
      },
      {
        "astId": 3946,
        "contract": "contracts/xchain/agent/test/UserAgentTest.sol:UserAgentTest",
        "label": "__gap",
        "offset": 0,
        "slot": "101",
        "type": "t_array(t_uint256)50_storage"
      },
      {
        "astId": 184,
        "contract": "contracts/xchain/agent/test/UserAgentTest.sol:UserAgentTest",
        "label": "_roles",
        "offset": 0,
        "slot": "151",
        "type": "t_mapping(t_bytes32,t_struct(RoleData)179_storage)"
      },
      {
        "astId": 483,
        "contract": "contracts/xchain/agent/test/UserAgentTest.sol:UserAgentTest",
        "label": "__gap",
        "offset": 0,
        "slot": "152",
        "type": "t_array(t_uint256)49_storage"
      },
      {
        "astId": 33,
        "contract": "contracts/xchain/agent/test/UserAgentTest.sol:UserAgentTest",
        "label": "_roleMembers",
        "offset": 0,
        "slot": "201",
        "type": "t_mapping(t_bytes32,t_struct(AddressSet)4359_storage)"
      },
      {
        "astId": 143,
        "contract": "contracts/xchain/agent/test/UserAgentTest.sol:UserAgentTest",
        "label": "__gap",
        "offset": 0,
        "slot": "202",
        "type": "t_array(t_uint256)49_storage"
      },
      {
        "astId": 869,
        "contract": "contracts/xchain/agent/test/UserAgentTest.sol:UserAgentTest",
        "label": "_paused",
        "offset": 0,
        "slot": "251",
        "type": "t_bool"
      },
      {
        "astId": 958,
        "contract": "contracts/xchain/agent/test/UserAgentTest.sol:UserAgentTest",
        "label": "__gap",
        "offset": 0,
        "slot": "252",
        "type": "t_array(t_uint256)49_storage"
      },
      {
        "astId": 593,
        "contract": "contracts/xchain/agent/test/UserAgentTest.sol:UserAgentTest",
        "label": "_owner",
        "offset": 0,
        "slot": "301",
        "type": "t_address"
      },
      {
        "astId": 705,
        "contract": "contracts/xchain/agent/test/UserAgentTest.sol:UserAgentTest",
        "label": "__gap",
        "offset": 0,
        "slot": "302",
        "type": "t_array(t_uint256)49_storage"
      },
      {
        "astId": 59557,
        "contract": "contracts/xchain/agent/test/UserAgentTest.sol:UserAgentTest",
        "label": "admin",
        "offset": 0,
        "slot": "351",
        "type": "t_address"
      },
      {
        "astId": 59561,
        "contract": "contracts/xchain/agent/test/UserAgentTest.sol:UserAgentTest",
        "label": "nonces",
        "offset": 0,
        "slot": "352",
        "type": "t_mapping(t_address,t_uint256)"
      },
      {
        "astId": 59564,
        "contract": "contracts/xchain/agent/test/UserAgentTest.sol:UserAgentTest",
        "label": "swap",
        "offset": 0,
        "slot": "353",
        "type": "t_contract(ISwap)56041"
      },
      {
        "astId": 59567,
        "contract": "contracts/xchain/agent/test/UserAgentTest.sol:UserAgentTest",
        "label": "USDC",
        "offset": 0,
        "slot": "354",
        "type": "t_contract(IERC20Upgradeable)1707"
      },
      {
        "astId": 59570,
        "contract": "contracts/xchain/agent/test/UserAgentTest.sol:UserAgentTest",
        "label": "USDT",
        "offset": 0,
        "slot": "355",
        "type": "t_contract(IERC20Upgradeable)1707"
      },
      {
        "astId": 59574,
        "contract": "contracts/xchain/agent/test/UserAgentTest.sol:UserAgentTest",
        "label": "usdcBalances",
        "offset": 0,
        "slot": "356",
        "type": "t_mapping(t_address,t_uint256)"
      },
      {
        "astId": 59578,
        "contract": "contracts/xchain/agent/test/UserAgentTest.sol:UserAgentTest",
        "label": "usdtBalances",
        "offset": 0,
        "slot": "357",
        "type": "t_mapping(t_address,t_uint256)"
      },
      {
        "astId": 59581,
        "contract": "contracts/xchain/agent/test/UserAgentTest.sol:UserAgentTest",
        "label": "multichainAdapter",
        "offset": 0,
        "slot": "358",
        "type": "t_contract(IXChainAdapter)56345"
      },
      {
        "astId": 59584,
        "contract": "contracts/xchain/agent/test/UserAgentTest.sol:UserAgentTest",
        "label": "cbridgeAdapter",
        "offset": 0,
        "slot": "359",
        "type": "t_contract(IXChainAdapter)56345"
      },
      {
        "astId": 59588,
        "contract": "contracts/xchain/agent/test/UserAgentTest.sol:UserAgentTest",
        "label": "cbridgeSenders",
        "offset": 0,
        "slot": "360",
        "type": "t_mapping(t_uint256,t_address)"
      },
      {
        "astId": 59592,
        "contract": "contracts/xchain/agent/test/UserAgentTest.sol:UserAgentTest",
        "label": "userAgents",
        "offset": 0,
        "slot": "361",
        "type": "t_mapping(t_uint256,t_address)"
      },
      {
        "astId": 59597,
        "contract": "contracts/xchain/agent/test/UserAgentTest.sol:UserAgentTest",
        "label": "callAdapterTypes",
        "offset": 0,
        "slot": "362",
        "type": "t_mapping(t_uint256,t_enum(AdapterType)59550)"
      },
      {
        "astId": 60233,
        "contract": "contracts/xchain/agent/test/UserAgentTest.sol:UserAgentTest",
        "label": "__gap",
        "offset": 0,
        "slot": "363",
        "type": "t_array(t_uint256)39_storage"
      },
      {
        "astId": 57251,
        "contract": "contracts/xchain/agent/test/UserAgentTest.sol:UserAgentTest",
        "label": "chainIdOnLP",
        "offset": 0,
        "slot": "402",
        "type": "t_uint256"
      },
      {
        "astId": 57253,
        "contract": "contracts/xchain/agent/test/UserAgentTest.sol:UserAgentTest",
        "label": "isLPChain",
        "offset": 0,
        "slot": "403",
        "type": "t_bool"
      },
      {
        "astId": 57256,
        "contract": "contracts/xchain/agent/test/UserAgentTest.sol:UserAgentTest",
        "label": "bniMinter",
        "offset": 1,
        "slot": "403",
        "type": "t_contract(IBNIMinter)10340"
      },
      {
        "astId": 57259,
        "contract": "contracts/xchain/agent/test/UserAgentTest.sol:UserAgentTest",
        "label": "bniVault",
        "offset": 0,
        "slot": "404",
        "type": "t_contract(IBNIVault)10387"
      },
      {
        "astId": 57261,
        "contract": "contracts/xchain/agent/test/UserAgentTest.sol:UserAgentTest",
        "label": "subImpl",
        "offset": 0,
        "slot": "405",
        "type": "t_address"
      },
      {
        "astId": 64409,
        "contract": "contracts/xchain/agent/test/UserAgentTest.sol:UserAgentTest",
        "label": "testValue",
        "offset": 0,
        "slot": "406",
        "type": "t_uint256"
      }
    ],
    "types": {
      "t_address": {
        "encoding": "inplace",
        "label": "address",
        "numberOfBytes": "20"
      },
      "t_array(t_bytes32)dyn_storage": {
        "base": "t_bytes32",
        "encoding": "dynamic_array",
        "label": "bytes32[]",
        "numberOfBytes": "32"
      },
      "t_array(t_uint256)39_storage": {
        "base": "t_uint256",
        "encoding": "inplace",
        "label": "uint256[39]",
        "numberOfBytes": "1248"
      },
      "t_array(t_uint256)49_storage": {
        "base": "t_uint256",
        "encoding": "inplace",
        "label": "uint256[49]",
        "numberOfBytes": "1568"
      },
      "t_array(t_uint256)50_storage": {
        "base": "t_uint256",
        "encoding": "inplace",
        "label": "uint256[50]",
        "numberOfBytes": "1600"
      },
      "t_bool": {
        "encoding": "inplace",
        "label": "bool",
        "numberOfBytes": "1"
      },
      "t_bytes32": {
        "encoding": "inplace",
        "label": "bytes32",
        "numberOfBytes": "32"
      },
      "t_contract(IBNIMinter)10340": {
        "encoding": "inplace",
        "label": "contract IBNIMinter",
        "numberOfBytes": "20"
      },
      "t_contract(IBNIVault)10387": {
        "encoding": "inplace",
        "label": "contract IBNIVault",
        "numberOfBytes": "20"
      },
      "t_contract(IERC20Upgradeable)1707": {
        "encoding": "inplace",
        "label": "contract IERC20Upgradeable",
        "numberOfBytes": "20"
      },
      "t_contract(ISwap)56041": {
        "encoding": "inplace",
        "label": "contract ISwap",
        "numberOfBytes": "20"
      },
      "t_contract(IXChainAdapter)56345": {
        "encoding": "inplace",
        "label": "contract IXChainAdapter",
        "numberOfBytes": "20"
      },
      "t_enum(AdapterType)59550": {
        "encoding": "inplace",
        "label": "enum BasicUserAgentBase.AdapterType",
        "numberOfBytes": "1"
      },
      "t_mapping(t_address,t_bool)": {
        "encoding": "mapping",
        "key": "t_address",
        "label": "mapping(address => bool)",
        "numberOfBytes": "32",
        "value": "t_bool"
      },
      "t_mapping(t_address,t_uint256)": {
        "encoding": "mapping",
        "key": "t_address",
        "label": "mapping(address => uint256)",
        "numberOfBytes": "32",
        "value": "t_uint256"
      },
      "t_mapping(t_bytes32,t_struct(AddressSet)4359_storage)": {
        "encoding": "mapping",
        "key": "t_bytes32",
        "label": "mapping(bytes32 => struct EnumerableSetUpgradeable.AddressSet)",
        "numberOfBytes": "32",
        "value": "t_struct(AddressSet)4359_storage"
      },
      "t_mapping(t_bytes32,t_struct(RoleData)179_storage)": {
        "encoding": "mapping",
        "key": "t_bytes32",
        "label": "mapping(bytes32 => struct AccessControlUpgradeable.RoleData)",
        "numberOfBytes": "32",
        "value": "t_struct(RoleData)179_storage"
      },
      "t_mapping(t_bytes32,t_uint256)": {
        "encoding": "mapping",
        "key": "t_bytes32",
        "label": "mapping(bytes32 => uint256)",
        "numberOfBytes": "32",
        "value": "t_uint256"
      },
      "t_mapping(t_uint256,t_address)": {
        "encoding": "mapping",
        "key": "t_uint256",
        "label": "mapping(uint256 => address)",
        "numberOfBytes": "32",
        "value": "t_address"
      },
      "t_mapping(t_uint256,t_enum(AdapterType)59550)": {
        "encoding": "mapping",
        "key": "t_uint256",
        "label": "mapping(uint256 => enum BasicUserAgentBase.AdapterType)",
        "numberOfBytes": "32",
        "value": "t_enum(AdapterType)59550"
      },
      "t_struct(AddressSet)4359_storage": {
        "encoding": "inplace",
        "label": "struct EnumerableSetUpgradeable.AddressSet",
        "members": [
          {
            "astId": 4358,
            "contract": "contracts/xchain/agent/test/UserAgentTest.sol:UserAgentTest",
            "label": "_inner",
            "offset": 0,
            "slot": "0",
            "type": "t_struct(Set)4058_storage"
          }
        ],
        "numberOfBytes": "64"
      },
      "t_struct(RoleData)179_storage": {
        "encoding": "inplace",
        "label": "struct AccessControlUpgradeable.RoleData",
        "members": [
          {
            "astId": 176,
            "contract": "contracts/xchain/agent/test/UserAgentTest.sol:UserAgentTest",
            "label": "members",
            "offset": 0,
            "slot": "0",
            "type": "t_mapping(t_address,t_bool)"
          },
          {
            "astId": 178,
            "contract": "contracts/xchain/agent/test/UserAgentTest.sol:UserAgentTest",
            "label": "adminRole",
            "offset": 0,
            "slot": "1",
            "type": "t_bytes32"
          }
        ],
        "numberOfBytes": "64"
      },
      "t_struct(Set)4058_storage": {
        "encoding": "inplace",
        "label": "struct EnumerableSetUpgradeable.Set",
        "members": [
          {
            "astId": 4053,
            "contract": "contracts/xchain/agent/test/UserAgentTest.sol:UserAgentTest",
            "label": "_values",
            "offset": 0,
            "slot": "0",
            "type": "t_array(t_bytes32)dyn_storage"
          },
          {
            "astId": 4057,
            "contract": "contracts/xchain/agent/test/UserAgentTest.sol:UserAgentTest",
            "label": "_indexes",
            "offset": 0,
            "slot": "1",
            "type": "t_mapping(t_bytes32,t_uint256)"
          }
        ],
        "numberOfBytes": "64"
      },
      "t_uint256": {
        "encoding": "inplace",
        "label": "uint256",
        "numberOfBytes": "32"
      },
      "t_uint8": {
        "encoding": "inplace",
        "label": "uint8",
        "numberOfBytes": "1"
      }
    }
  }
}