{
  "address": "0xC4509573445EF303b6db432D3D2488cB81F2aFca",
  "abi": [
    {
      "anonymous": false,
      "inputs": [
        {
          "indexed": false,
          "internalType": "uint8",
          "name": "version",
          "type": "uint8"
        }
      ],
      "name": "Initialized",
      "type": "event"
    },
    {
      "anonymous": false,
      "inputs": [
        {
          "indexed": true,
          "internalType": "address",
          "name": "previousOwner",
          "type": "address"
        },
        {
          "indexed": true,
          "internalType": "address",
          "name": "newOwner",
          "type": "address"
        }
      ],
      "name": "OwnershipTransferred",
      "type": "event"
    },
    {
      "anonymous": false,
      "inputs": [
        {
          "indexed": false,
          "internalType": "address",
          "name": "account",
          "type": "address"
        }
      ],
      "name": "Paused",
      "type": "event"
    },
    {
      "anonymous": false,
      "inputs": [
        {
          "indexed": true,
          "internalType": "bytes32",
          "name": "role",
          "type": "bytes32"
        },
        {
          "indexed": true,
          "internalType": "bytes32",
          "name": "previousAdminRole",
          "type": "bytes32"
        },
        {
          "indexed": true,
          "internalType": "bytes32",
          "name": "newAdminRole",
          "type": "bytes32"
        }
      ],
      "name": "RoleAdminChanged",
      "type": "event"
    },
    {
      "anonymous": false,
      "inputs": [
        {
          "indexed": true,
          "internalType": "bytes32",
          "name": "role",
          "type": "bytes32"
        },
        {
          "indexed": true,
          "internalType": "address",
          "name": "account",
          "type": "address"
        },
        {
          "indexed": true,
          "internalType": "address",
          "name": "sender",
          "type": "address"
        }
      ],
      "name": "RoleGranted",
      "type": "event"
    },
    {
      "anonymous": false,
      "inputs": [
        {
          "indexed": true,
          "internalType": "bytes32",
          "name": "role",
          "type": "bytes32"
        },
        {
          "indexed": true,
          "internalType": "address",
          "name": "account",
          "type": "address"
        },
        {
          "indexed": true,
          "internalType": "address",
          "name": "sender",
          "type": "address"
        }
      ],
      "name": "RoleRevoked",
      "type": "event"
    },
    {
      "anonymous": false,
      "inputs": [
        {
          "indexed": false,
          "internalType": "uint256",
          "name": "fromChainId",
          "type": "uint256"
        },
        {
          "indexed": false,
          "internalType": "address",
          "name": "token",
          "type": "address"
        },
        {
          "indexed": true,
          "internalType": "uint256",
          "name": "amount",
          "type": "uint256"
        },
        {
          "indexed": true,
          "internalType": "uint256",
          "name": "toChainId",
          "type": "uint256"
        },
        {
          "indexed": true,
          "internalType": "address",
          "name": "account",
          "type": "address"
        }
      ],
      "name": "Transfer",
      "type": "event"
    },
    {
      "anonymous": false,
      "inputs": [
        {
          "indexed": false,
          "internalType": "address",
          "name": "account",
          "type": "address"
        }
      ],
      "name": "Unpaused",
      "type": "event"
    },
    {
      "inputs": [],
      "name": "ADAPTER_ROLE",
      "outputs": [
        {
          "internalType": "bytes32",
          "name": "",
          "type": "bytes32"
        }
      ],
      "stateMutability": "view",
      "type": "function"
    },
    {
      "inputs": [],
      "name": "DEFAULT_ADMIN_ROLE",
      "outputs": [
        {
          "internalType": "bytes32",
          "name": "",
          "type": "bytes32"
        }
      ],
      "stateMutability": "view",
      "type": "function"
    },
    {
      "inputs": [],
      "name": "USDC",
      "outputs": [
        {
          "internalType": "contract IERC20Upgradeable",
          "name": "",
          "type": "address"
        }
      ],
      "stateMutability": "view",
      "type": "function"
    },
    {
      "inputs": [],
      "name": "USDT",
      "outputs": [
        {
          "internalType": "contract IERC20Upgradeable",
          "name": "",
          "type": "address"
        }
      ],
      "stateMutability": "view",
      "type": "function"
    },
    {
      "inputs": [],
      "name": "admin",
      "outputs": [
        {
          "internalType": "address",
          "name": "",
          "type": "address"
        }
      ],
      "stateMutability": "view",
      "type": "function"
    },
    {
      "inputs": [],
      "name": "bniMinter",
      "outputs": [
        {
          "internalType": "contract IBNIMinter",
          "name": "",
          "type": "address"
        }
      ],
      "stateMutability": "view",
      "type": "function"
    },
    {
      "inputs": [
        {
          "internalType": "uint256",
          "name": "",
          "type": "uint256"
        }
      ],
      "name": "bniVaults",
      "outputs": [
        {
          "internalType": "contract IBNIVault",
          "name": "",
          "type": "address"
        }
      ],
      "stateMutability": "view",
      "type": "function"
    },
    {
      "inputs": [
        {
          "internalType": "uint256",
          "name": "_pool",
          "type": "uint256"
        },
        {
          "internalType": "uint256",
          "name": "_share",
          "type": "uint256"
        },
        {
          "internalType": "bytes",
          "name": "_signature",
          "type": "bytes"
        }
      ],
      "name": "burn",
      "outputs": [
        {
          "internalType": "uint256",
          "name": "_feeAmt",
          "type": "uint256"
        }
      ],
      "stateMutability": "payable",
      "type": "function"
    },
    {
      "inputs": [
        {
          "internalType": "address",
          "name": "_account",
          "type": "address"
        },
        {
          "internalType": "uint256",
          "name": "_pool",
          "type": "uint256"
        },
        {
          "internalType": "uint256",
          "name": "_share",
          "type": "uint256"
        }
      ],
      "name": "burnByAdmin",
      "outputs": [],
      "stateMutability": "nonpayable",
      "type": "function"
    },
    {
      "inputs": [
        {
          "internalType": "uint256",
          "name": "",
          "type": "uint256"
        }
      ],
      "name": "callAdapterTypes",
      "outputs": [
        {
          "internalType": "enum BasicUserAgentBase.AdapterType",
          "name": "",
          "type": "uint8"
        }
      ],
      "stateMutability": "view",
      "type": "function"
    },
    {
      "inputs": [],
      "name": "cbridgeAdapter",
      "outputs": [
        {
          "internalType": "contract IXChainAdapter",
          "name": "",
          "type": "address"
        }
      ],
      "stateMutability": "view",
      "type": "function"
    },
    {
      "inputs": [
        {
          "internalType": "uint256",
          "name": "",
          "type": "uint256"
        }
      ],
      "name": "cbridgeSenders",
      "outputs": [
        {
          "internalType": "address",
          "name": "",
          "type": "address"
        }
      ],
      "stateMutability": "view",
      "type": "function"
    },
    {
      "inputs": [],
      "name": "chainIdOnLP",
      "outputs": [
        {
          "internalType": "uint256",
          "name": "",
          "type": "uint256"
        }
      ],
      "stateMutability": "view",
      "type": "function"
    },
    {
      "inputs": [
        {
          "internalType": "uint256[]",
          "name": "_toChainIds",
          "type": "uint256[]"
        },
        {
          "internalType": "address[]",
          "name": "_tokens",
          "type": "address[]"
        },
        {
          "internalType": "uint256[]",
          "name": "_USDT6Amts",
          "type": "uint256[]"
        },
        {
          "internalType": "uint256",
          "name": "_minterNonce",
          "type": "uint256"
        },
        {
          "internalType": "bytes",
          "name": "_signature",
          "type": "bytes"
        }
      ],
      "name": "deposit",
      "outputs": [
        {
          "internalType": "uint256",
          "name": "_feeAmt",
          "type": "uint256"
        }
      ],
      "stateMutability": "payable",
      "type": "function"
    },
    {
      "inputs": [
        {
          "internalType": "address",
          "name": "_account",
          "type": "address"
        },
        {
          "internalType": "address[]",
          "name": "_tokens",
          "type": "address[]"
        },
        {
          "internalType": "uint256[]",
          "name": "_USDT6Amts",
          "type": "uint256[]"
        },
        {
          "internalType": "uint256",
          "name": "_minterNonce",
          "type": "uint256"
        }
      ],
      "name": "depositByAgent",
      "outputs": [],
      "stateMutability": "nonpayable",
      "type": "function"
    },
    {
      "inputs": [
        {
          "internalType": "uint256",
          "name": "_gatheredAmount",
          "type": "uint256"
        },
        {
          "internalType": "bytes",
          "name": "_signature",
          "type": "bytes"
        }
      ],
      "name": "exitWithdrawal",
      "outputs": [
        {
          "internalType": "uint256",
          "name": "_feeAmt",
          "type": "uint256"
        }
      ],
      "stateMutability": "payable",
      "type": "function"
    },
    {
      "inputs": [
        {
          "internalType": "address",
          "name": "_account",
          "type": "address"
        }
      ],
      "name": "exitWithdrawalByAdmin",
      "outputs": [],
      "stateMutability": "nonpayable",
      "type": "function"
    },
    {
      "inputs": [
        {
          "internalType": "uint256[]",
          "name": "_fromChainIds",
          "type": "uint256[]"
        },
        {
          "internalType": "enum BasicUserAgentBase.AdapterType[]",
          "name": "_adapterTypes",
          "type": "uint8[]"
        },
        {
          "internalType": "bytes",
          "name": "_signature",
          "type": "bytes"
        }
      ],
      "name": "gather",
      "outputs": [
        {
          "internalType": "uint256",
          "name": "_feeAmt",
          "type": "uint256"
        }
      ],
      "stateMutability": "payable",
      "type": "function"
    },
    {
      "inputs": [
        {
          "internalType": "address",
          "name": "_account",
          "type": "address"
        },
        {
          "internalType": "uint256",
          "name": "_toChainId",
          "type": "uint256"
        },
        {
          "internalType": "enum BasicUserAgentBase.AdapterType",
          "name": "_adapterType",
          "type": "uint8"
        }
      ],
      "name": "gatherByAdmin",
      "outputs": [],
      "stateMutability": "nonpayable",
      "type": "function"
    },
    {
      "inputs": [
        {
          "internalType": "bytes",
          "name": "message",
          "type": "bytes"
        }
      ],
      "name": "getMessageHashForSafe",
      "outputs": [
        {
          "internalType": "bytes32",
          "name": "",
          "type": "bytes32"
        }
      ],
      "stateMutability": "view",
      "type": "function"
    },
    {
      "inputs": [
        {
          "internalType": "bytes32",
          "name": "role",
          "type": "bytes32"
        }
      ],
      "name": "getRoleAdmin",
      "outputs": [
        {
          "internalType": "bytes32",
          "name": "",
          "type": "bytes32"
        }
      ],
      "stateMutability": "view",
      "type": "function"
    },
    {
      "inputs": [
        {
          "internalType": "bytes32",
          "name": "role",
          "type": "bytes32"
        },
        {
          "internalType": "uint256",
          "name": "index",
          "type": "uint256"
        }
      ],
      "name": "getRoleMember",
      "outputs": [
        {
          "internalType": "address",
          "name": "",
          "type": "address"
        }
      ],
      "stateMutability": "view",
      "type": "function"
    },
    {
      "inputs": [
        {
          "internalType": "bytes32",
          "name": "role",
          "type": "bytes32"
        }
      ],
      "name": "getRoleMemberCount",
      "outputs": [
        {
          "internalType": "uint256",
          "name": "",
          "type": "uint256"
        }
      ],
      "stateMutability": "view",
      "type": "function"
    },
    {
      "inputs": [
        {
          "internalType": "bytes32",
          "name": "role",
          "type": "bytes32"
        },
        {
          "internalType": "address",
          "name": "account",
          "type": "address"
        }
      ],
      "name": "grantRole",
      "outputs": [],
      "stateMutability": "nonpayable",
      "type": "function"
    },
    {
      "inputs": [
        {
          "internalType": "bytes32",
          "name": "role",
          "type": "bytes32"
        },
        {
          "internalType": "address",
          "name": "account",
          "type": "address"
        }
      ],
      "name": "hasRole",
      "outputs": [
        {
          "internalType": "bool",
          "name": "",
          "type": "bool"
        }
      ],
      "stateMutability": "view",
      "type": "function"
    },
    {
      "inputs": [],
      "name": "isLPChain",
      "outputs": [
        {
          "internalType": "bool",
          "name": "",
          "type": "bool"
        }
      ],
      "stateMutability": "view",
      "type": "function"
    },
    {
      "inputs": [
        {
          "internalType": "address",
          "name": "forwarder",
          "type": "address"
        }
      ],
      "name": "isTrustedForwarder",
      "outputs": [
        {
          "internalType": "bool",
          "name": "",
          "type": "bool"
        }
      ],
      "stateMutability": "view",
      "type": "function"
    },
    {
      "inputs": [
        {
          "internalType": "address",
          "name": "_account",
          "type": "address"
        },
        {
          "internalType": "bytes",
          "name": "_data",
          "type": "bytes"
        },
        {
          "internalType": "bytes",
          "name": "_signature",
          "type": "bytes"
        }
      ],
      "name": "isValidSignature",
      "outputs": [
        {
          "internalType": "bool",
          "name": "",
          "type": "bool"
        }
      ],
      "stateMutability": "view",
      "type": "function"
    },
    {
      "inputs": [
        {
          "internalType": "uint256",
          "name": "_USDT6Amt",
          "type": "uint256"
        },
        {
          "internalType": "bytes",
          "name": "_signature",
          "type": "bytes"
        }
      ],
      "name": "mint",
      "outputs": [
        {
          "internalType": "uint256",
          "name": "_feeAmt",
          "type": "uint256"
        }
      ],
      "stateMutability": "payable",
      "type": "function"
    },
    {
      "inputs": [
        {
          "internalType": "address",
          "name": "_account",
          "type": "address"
        },
        {
          "internalType": "uint256",
          "name": "_USDT6Amt",
          "type": "uint256"
        }
      ],
      "name": "mintByAdmin",
      "outputs": [],
      "stateMutability": "nonpayable",
      "type": "function"
    },
    {
      "inputs": [],
      "name": "multichainAdapter",
      "outputs": [
        {
          "internalType": "contract IXChainAdapter",
          "name": "",
          "type": "address"
        }
      ],
      "stateMutability": "view",
      "type": "function"
    },
    {
      "inputs": [
        {
          "internalType": "address",
          "name": "",
          "type": "address"
        }
      ],
      "name": "nonces",
      "outputs": [
        {
          "internalType": "uint256",
          "name": "",
          "type": "uint256"
        }
      ],
      "stateMutability": "view",
      "type": "function"
    },
    {
      "inputs": [],
      "name": "owner",
      "outputs": [
        {
          "internalType": "address",
          "name": "",
          "type": "address"
        }
      ],
      "stateMutability": "view",
      "type": "function"
    },
    {
      "inputs": [],
      "name": "paused",
      "outputs": [
        {
          "internalType": "bool",
          "name": "",
          "type": "bool"
        }
      ],
      "stateMutability": "view",
      "type": "function"
    },
    {
      "inputs": [],
      "name": "renounceOwnership",
      "outputs": [],
      "stateMutability": "nonpayable",
      "type": "function"
    },
    {
      "inputs": [
        {
          "internalType": "bytes32",
          "name": "role",
          "type": "bytes32"
        },
        {
          "internalType": "address",
          "name": "account",
          "type": "address"
        }
      ],
      "name": "renounceRole",
      "outputs": [],
      "stateMutability": "nonpayable",
      "type": "function"
    },
    {
      "inputs": [
        {
          "internalType": "bytes32",
          "name": "role",
          "type": "bytes32"
        },
        {
          "internalType": "address",
          "name": "account",
          "type": "address"
        }
      ],
      "name": "revokeRole",
      "outputs": [],
      "stateMutability": "nonpayable",
      "type": "function"
    },
    {
      "inputs": [],
      "name": "subImpl",
      "outputs": [
        {
          "internalType": "address",
          "name": "",
          "type": "address"
        }
      ],
      "stateMutability": "view",
      "type": "function"
    },
    {
      "inputs": [
        {
          "internalType": "bytes4",
          "name": "interfaceId",
          "type": "bytes4"
        }
      ],
      "name": "supportsInterface",
      "outputs": [
        {
          "internalType": "bool",
          "name": "",
          "type": "bool"
        }
      ],
      "stateMutability": "view",
      "type": "function"
    },
    {
      "inputs": [
        {
          "internalType": "uint256",
          "name": "_gatheredAmount",
          "type": "uint256"
        },
        {
          "internalType": "bytes",
          "name": "_signature",
          "type": "bytes"
        }
      ],
      "name": "takeOut",
      "outputs": [],
      "stateMutability": "nonpayable",
      "type": "function"
    },
    {
      "inputs": [
        {
          "internalType": "address",
          "name": "newOwner",
          "type": "address"
        }
      ],
      "name": "transferOwnership",
      "outputs": [],
      "stateMutability": "nonpayable",
      "type": "function"
    },
    {
      "inputs": [],
      "name": "trustedForwarder",
      "outputs": [
        {
          "internalType": "address",
          "name": "",
          "type": "address"
        }
      ],
      "stateMutability": "view",
      "type": "function"
    },
    {
      "inputs": [
        {
          "internalType": "address",
          "name": "",
          "type": "address"
        }
      ],
      "name": "usdcBalances",
      "outputs": [
        {
          "internalType": "uint256",
          "name": "",
          "type": "uint256"
        }
      ],
      "stateMutability": "view",
      "type": "function"
    },
    {
      "inputs": [
        {
          "internalType": "address",
          "name": "",
          "type": "address"
        }
      ],
      "name": "usdtBalances",
      "outputs": [
        {
          "internalType": "uint256",
          "name": "",
          "type": "uint256"
        }
      ],
      "stateMutability": "view",
      "type": "function"
    },
    {
      "inputs": [
        {
          "internalType": "uint256",
          "name": "",
          "type": "uint256"
        }
      ],
      "name": "userAgents",
      "outputs": [
        {
          "internalType": "address",
          "name": "",
          "type": "address"
        }
      ],
      "stateMutability": "view",
      "type": "function"
    },
    {
      "inputs": [],
      "name": "versionRecipient",
      "outputs": [
        {
          "internalType": "string",
          "name": "",
          "type": "string"
        }
      ],
      "stateMutability": "pure",
      "type": "function"
    },
    {
      "inputs": [
        {
          "internalType": "uint256[]",
          "name": "_chainIds",
          "type": "uint256[]"
        },
        {
          "internalType": "uint256",
          "name": "_sharePerc",
          "type": "uint256"
        },
        {
          "internalType": "uint256",
          "name": "_minterNonce",
          "type": "uint256"
        },
        {
          "internalType": "bytes",
          "name": "_signature",
          "type": "bytes"
        }
      ],
      "name": "withdraw",
      "outputs": [
        {
          "internalType": "uint256",
          "name": "_feeAmt",
          "type": "uint256"
        }
      ],
      "stateMutability": "payable",
      "type": "function"
    },
    {
      "inputs": [
        {
          "internalType": "address",
          "name": "_account",
          "type": "address"
        },
        {
          "internalType": "uint256",
          "name": "_sharePerc",
          "type": "uint256"
        },
        {
          "internalType": "uint256",
          "name": "_minterNonce",
          "type": "uint256"
        }
      ],
      "name": "withdrawPercByAgent",
      "outputs": [],
      "stateMutability": "nonpayable",
      "type": "function"
    },
    {
      "stateMutability": "payable",
      "type": "receive"
    }
  ],
  "transactionHash": "0x7347f4d6ea4b351028e3e1c8304181ff9b2d19ae836bf568f402c45079b85abc",
  "args": [],
  "numDeployments": 2,
  "solcInputHash": "b856b9b528ee17a2db5854e1b46914bb",
  "bytecode": "0x608060405234801561001057600080fd5b50614672806100206000396000f3fe6080604052600436106102975760003560e01c806380a5a3711161015a578063c7205bce116100c1578063e9e81a6a1161007a578063e9e81a6a1461085c578063f2ea16181461087c578063f2fde38b146108b3578063f77de486146108d3578063f7bb364c146108f3578063f851a4401461090e57600080fd5b8063c7205bce146107a3578063ca15c873146107c3578063d547741f146107e3578063d843a40014610803578063db7fd40814610829578063e629f7b31461083c57600080fd5b8063918f1a5c11610113578063918f1a5c146106ec57806391d14854146106ff578063a217fddf1461071f578063a99c68c514610734578063af3da2f414610762578063c54e44eb1461078257600080fd5b806380a5a37114610653578063847627391461066657806386355d961461067957806389a302711461068c5780638da5cb5b146106ad5780639010d07c146106cc57600080fd5b8063486ff0cd116101fe5780636687977f116101b75780636687977f146105865780636e5677ce146105995780636ebf33ce146105b9578063715018a6146105f05780637da0a877146106055780637ecebe001461062557600080fd5b8063486ff0cd146104a0578063572b6c05146104d057806357cdd7f9146104ff578063582489cb14610520578063582712b11461054e5780635c975abb1461056e57600080fd5b8063248a9ca311610250578063248a9ca31461039957806328054fb7146103c95780632f2ff15d146103eb5780632ff33e1a1461040b57806336568abe1461044257806339dacedb1461046257600080fd5b8063013dee70146102a357806301ffc9a7146102e157806302a882e6146103115780630c3a18211461034157806319463093146103625780631a5787d81461038257600080fd5b3661029e57005b600080fd5b3480156102af57600080fd5b50610195546102c4906001600160a01b031681565b6040516001600160a01b0390911681526020015b60405180910390f35b3480156102ed57600080fd5b506103016102fc366004613848565b61092f565b60405190151581526020016102d8565b34801561031d57600080fd5b5061033360008051602061461d83398151915281565b6040519081526020016102d8565b34801561034d57600080fd5b50610166546102c4906001600160a01b031681565b34801561036e57600080fd5b5061033361037d366004613927565b61095a565b34801561038e57600080fd5b506103336101925481565b3480156103a557600080fd5b506103336103b436600461395b565b60009081526097602052604090206001015490565b3480156103d557600080fd5b506103e96103e436600461399d565b6109a6565b005b3480156103f757600080fd5b506103e96104063660046139db565b610d75565b34801561041757600080fd5b506102c461042636600461395b565b610194602052600090815260409020546001600160a01b031681565b34801561044e57600080fd5b506103e961045d3660046139db565b610d9f565b34801561046e57600080fd5b5061049361047d36600461395b565b61016a6020526000908152604090205460ff1681565b6040516102d89190613a3f565b3480156104ac57600080fd5b5060408051808201825260018152603160f81b602082015290516102d89190613aaa565b3480156104dc57600080fd5b506103016104eb366004613abd565b6000546001600160a01b0391821691161490565b34801561050b57600080fd5b50610167546102c4906001600160a01b031681565b34801561052c57600080fd5b5061033361053b366004613abd565b6101656020526000908152604090205481565b34801561055a57600080fd5b506103e9610569366004613bc1565b610e2d565b34801561057a57600080fd5b5060fb5460ff16610301565b610333610594366004613c86565b610ec6565b3480156105a557600080fd5b506103e96105b4366004613d03565b610fae565b3480156105c557600080fd5b506102c46105d436600461395b565b610169602052600090815260409020546001600160a01b031681565b3480156105fc57600080fd5b506103e9611090565b34801561061157600080fd5b506000546102c4906001600160a01b031681565b34801561063157600080fd5b50610333610640366004613abd565b6101606020526000908152604090205481565b610333610661366004613d4e565b611116565b610333610674366004613d03565b6112b2565b610333610687366004613da0565b61145e565b34801561069857600080fd5b50610162546102c4906001600160a01b031681565b3480156106b957600080fd5b5061012d546001600160a01b03166102c4565b3480156106d857600080fd5b506102c46106e7366004613e5c565b611584565b6103336106fa366004613e7e565b6115a3565b34801561070b57600080fd5b5061030161071a3660046139db565b6115f8565b34801561072b57600080fd5b50610333600081565b34801561074057600080fd5b5061033361074f366004613abd565b6101646020526000908152604090205481565b34801561076e57600080fd5b506103e961077d366004613f57565b611623565b34801561078e57600080fd5b50610163546102c4906001600160a01b031681565b3480156107af57600080fd5b506103016107be366004613f83565b6116ad565b3480156107cf57600080fd5b506103336107de36600461395b565b61183a565b3480156107ef57600080fd5b506103e96107fe3660046139db565b611851565b34801561080f57600080fd5b50610193546102c49061010090046001600160a01b031681565b610333610837366004613d03565b611876565b34801561084857600080fd5b506103e9610857366004613fe2565b611a26565b34801561086857600080fd5b506103e9610877366004613fe2565b611aaf565b34801561088857600080fd5b506102c461089736600461395b565b610168602052600090815260409020546001600160a01b031681565b3480156108bf57600080fd5b506103e96108ce366004613abd565b611af3565b3480156108df57600080fd5b506103e96108ee366004613abd565b611bde565b3480156108ff57600080fd5b50610193546103019060ff1681565b34801561091a57600080fd5b5061015f546102c4906001600160a01b031681565b60006001600160e01b03198216635a05180f60e01b1480610954575061095482611c60565b92915050565b805160209182012060015460408051601960f81b81860152600160f81b602182015260228101929092526042808301939093528051808303909301835260629091019052805191012090565b60008051602061461d8339815191526109be81611c95565b6001600160a01b038416600090815261016560205260409020548015610d6e57600084815261016960205260409020546001600160a01b031680610a3e5760405162461bcd60e51b8152602060048201526012602482015271125b9d985b1a59081d5cd95c881859d95b9d60721b60448201526064015b60405180910390fd5b604080516001808252818301909252600091602080830190803683370190505090508281600081518110610a7457610a74614017565b60209081029190910101526040805160018082528183019092526000918160200160208202803683370190505090508681600081518110610ab757610ab7614017565b60209081029190910101526040805160018082528183019092526000918160200160208202803683370190505090508381600081518110610afa57610afa614017565b6001600160a01b0392909216602092830291909101909101526040805160018082528183019092526000918160200160208202803683370190505090508781600081518110610b4b57610b4b614017565b60200260200101906001811115610b6457610b64613a0b565b90816001811115610b7757610b77613a0b565b9052506000610b8d8b8287878787600180611ca6565b6101615461016354604051631d1c6b8360e11b81526001600160a01b03918216600482015260248101849052929350600092911690633a38d7069060440160206040518083038186803b158015610be357600080fd5b505afa158015610bf7573d6000803e3d6000fd5b505050506040513d601f19601f82011682018060405250810190610c1b919061402d565b905080881115610d66576101615461016354604051632f66c82160e21b81526000926001600160a01b039081169263bd9b208492610c63929091169086908890600401614046565b602060405180830381600087803b158015610c7d57600080fd5b505af1158015610c91573d6000803e3d6000fd5b505050506040513d601f19601f82011682018060405250810190610cb5919061402d565b9050610cc1818a61407d565b87600081518110610cd457610cd4614017565b6020908102919091018101919091526001600160a01b038e16600090815261016590915260408120819055610d11908e9089898989600185611ca6565b506001600160a01b038d168c8a7f4b435ccc56b601078848376dd01c26d5427d126f72431adea9e4ee614129cd394661016354604080519283526001600160a01b0390911660208301520160405180910390a4505b505050505050505b5050505050565b600082815260976020526040902060010154610d9081611c95565b610d9a8383611d86565b505050565b610da7611da8565b6001600160a01b0316816001600160a01b031614610e1f5760405162461bcd60e51b815260206004820152602f60248201527f416363657373436f6e74726f6c3a2063616e206f6e6c792072656e6f756e636560448201526e103937b632b9903337b91039b2b63360891b6064820152608401610a35565b610e298282611db7565b5050565b60008051602061461d833981519152610e4581611c95565b46600090815261019460205260409081902054905163582712b160e01b81526001600160a01b0390911690819063582712b190610e8c908990899089908990600401614108565b600060405180830381600087803b158015610ea657600080fd5b505af1158015610eba573d6000803e3d6000fd5b50505050505050505050565b600080610ed1611da8565b6001600160a01b038116600090815261016060209081526040918290205491519293509091610f2b91610f0e91859185918d918d918d9101614175565b604051602081830303815290604052805190602001208686611dd9565b60005b8851811015610f7a57610f5c838a8381518110610f4d57610f4d614017565b60200260200101518a8a611e4d565b610f6690856141ae565b935080610f72816141c6565b915050610f2e565b50610f868160016141ae565b6001600160a01b03909216600090815261016060205260409020919091555095945050505050565b6000610fb8611da8565b6001600160a01b03811660009081526101606020908152604091829020549151929350909161100e91610ff191859185918a91016141e1565b604051602081830303815290604052805190602001208585611dd9565b6001600160a01b0382166000908152610165602052604081205461103290876141ae565b6001600160a01b03808516600090815261016560205260408120556101635491925061106091168483611ecb565b61106b8260016141ae565b6001600160a01b03909316600090815261016060205260409020929092555050505050565b611098611da8565b6001600160a01b03166110b461012d546001600160a01b031690565b6001600160a01b03161461110a5760405162461bcd60e51b815260206004820181905260248201527f4f776e61626c653a2063616c6c6572206973206e6f7420746865206f776e65726044820152606401610a35565b6111146000611f1d565b565b600080611121611da8565b6001600160a01b038116600090815261016060209081526040918290205491516bffffffffffffffffffffffff19606085901b16918101919091526034810182905260548101899052607481018890529192509061118190609401610f0e565b6101935460ff16156111fd576101935460405163e629f7b360e01b81526101009091046001600160a01b03169063e629f7b3906111c69085908b908b90600401614046565b600060405180830381600087803b1580156111e057600080fd5b505af11580156111f4573d6000803e3d6000fd5b50505050611280565b600063e629f7b360e01b83898960405160240161121c93929190614046565b60408051601f19818403018152918152602080830180516001600160e01b03166001600160e01b0319909516949094179093526101925460008181526101699094529083205491935061127c9290916001600160a01b0316908481611f70565b9350505b61128b8160016141ae565b6001600160a01b039092166000908152610160602052604090209190915550949350505050565b6000806112bd611da8565b6001600160a01b0381166000908152610160602090815260409182902054915192935090916112f691610f0e91859185918b91016141e1565b6101935460ff161561136d5761019354604051637bbef24360e11b81526001600160a01b0384811660048301526101009092049091169063f77de48690602401600060405180830381600087803b15801561135057600080fd5b505af1158015611364573d6000803e3d6000fd5b505050506113d9565b604080516001600160a01b038481166024808401919091528351808403909101815260449092018352602080830180516001600160e01b0316637bbef24360e11b1790526101925460008181526101699092529381205492936113d593909216908481611f70565b9350505b6001600160a01b038216600090815261016560205260408120546113fd90886141ae565b6001600160a01b03808516600090815261016560205260408120556101635491925061142b91168483611ecb565b6114368260016141ae565b6001600160a01b03909316600090815261016060205260409020929092555090949350505050565b600061146c60fb5460ff1690565b156114ac5760405162461bcd60e51b815260206004820152601060248201526f14185d5cd8589b194e881c185d5cd95960821b6044820152606401610a35565b60006114b6611da8565b6001600160a01b0381166000908152610160602090815260409182902054915192935090916114f591610f0e91859185918e918e918e918e910161420b565b6000806000806115088d8d8d6000612119565b93509350935093505b831561154b57611524868585858e6122f6565b61152e90886141ae565b965061153c8d8d8d84612119565b92965090945092509050611511565b6115568560016141ae565b6001600160a01b039096166000908152610160602052604090209590955550939a9950505050505050505050565b600082815260c96020526040812061159c9083612537565b9392505050565b6000806115ae611da8565b6001600160a01b0381166000908152610160602090815260409182902054915192935090916115e991610f0e91859185918c918c910161427e565b6000925061128b8160016141ae565b60009182526097602090815260408084206001600160a01b0393909316845291905290205460ff1690565b60008051602061461d83398151915261163b81611c95565b61019354604051632bcf68bd60e21b81526001600160a01b038581166004830152602482018590526101009092049091169063af3da2f490604401600060405180830381600087803b15801561169057600080fd5b505af11580156116a4573d6000803e3d6000fd5b50505050505050565b6000806116b98561095a565b90506001600160a01b0386163b156117155761170d86828787878080601f01602080910402602001604051908101604052809392919081815260200183838082843760009201919091525061254392505050565b915050611832565b600080600061175987878080601f016020809104026020016040519081016040528093929190818152602001838380828437600092018290525092506125df915050565b6040517f19457468657265756d205369676e6564204d6573736167653a0a3332000000006020820152603c81018890529295509093509150600090605c0160408051601f198184030181528282528051602091820120600080855291840180845281905260ff88169284019290925260608301869052608083018590529092509060019060a0016020604051602081039080840390855afa158015611802573d6000803e3d6000fd5b5050506020604051035190508a6001600160a01b0316816001600160a01b0316149650505050505050611832565b505b949350505050565b600081815260c960205260408120610954906125fd565b60008281526097602052604090206001015461186c81611c95565b610d9a8383611db7565b600061188460fb5460ff1690565b156118c45760405162461bcd60e51b815260206004820152601060248201526f14185d5cd8589b194e881c185d5cd95960821b6044820152606401610a35565b60006118ce611da8565b6001600160a01b03811660009081526101606020908152604091829020549151929350909161190791610f0e91859185918b91016141e1565b6101935460ff16156119855761019354604051632bcf68bd60e21b81526001600160a01b038481166004830152602482018990526101009092049091169063af3da2f490604401600060405180830381600087803b15801561196857600080fd5b505af115801561197c573d6000803e3d6000fd5b505050506119f5565b604080516001600160a01b03848116602483015260448083018a90528351808403909101815260649092018352602080830180516001600160e01b0316632bcf68bd60e21b1790526101925460008181526101699092529381205492936119f193909216908481611f70565b9350505b611a008160016141ae565b6001600160a01b0390921660009081526101606020526040902091909155509392505050565b60008051602061461d833981519152611a3e81611c95565b6101935460405163e629f7b360e01b81526101009091046001600160a01b03169063e629f7b390611a7790879087908790600401614046565b600060405180830381600087803b158015611a9157600080fd5b505af1158015611aa5573d6000803e3d6000fd5b5050505050505050565b60008051602061461d833981519152611ac781611c95565b4660009081526101946020526040902054611aed906001600160a01b0316858585612607565b50505050565b611afb611da8565b6001600160a01b0316611b1761012d546001600160a01b031690565b6001600160a01b031614611b6d5760405162461bcd60e51b815260206004820181905260248201527f4f776e61626c653a2063616c6c6572206973206e6f7420746865206f776e65726044820152606401610a35565b6001600160a01b038116611bd25760405162461bcd60e51b815260206004820152602660248201527f4f776e61626c653a206e6577206f776e657220697320746865207a65726f206160448201526564647265737360d01b6064820152608401610a35565b611bdb81611f1d565b50565b60008051602061461d833981519152611bf681611c95565b61019354604051637bbef24360e11b81526001600160a01b0384811660048301526101009092049091169063f77de48690602401600060405180830381600087803b158015611c4457600080fd5b505af1158015611c58573d6000803e3d6000fd5b505050505050565b60006001600160e01b03198216637965db0b60e01b148061095457506301ffc9a760e01b6001600160e01b0319831614610954565b611bdb81611ca1611da8565b6127a6565b6000806000806000806000611cbe8d8d8d8d8d61280a565b949a5092985090965094509250905087158015611cdc575060008651115b15611d5c5761016660009054906101000a90046001600160a01b03166001600160a01b03166365a130b48f8888886040518563ffffffff1660e01b8152600401611d2994939291906142e1565b600060405180830381600087803b158015611d4357600080fd5b505af1158015611d57573d6000803e3d6000fd5b505050505b825115611d7457611d718f8f8585858d612cb8565b96505b50505050505098975050505050505050565b611d908282612eac565b600082815260c960205260409020610d9a9082612f33565b6000611db2612f48565b905090565b611dc18282612f7c565b600082815260c960205260409020610d9a9082613001565b61015f546040805160208101869052611e0d926001600160a01b0316910160405160208183030381529060405284846116ad565b610d9a5760405162461bcd60e51b8152602060048201526011602482015270496e76616c6964207369676e617475726560781b6044820152606401610a35565b600083815261019460205260408120546001600160a01b031680611ea65760405162461bcd60e51b815260206004820152601060248201526f125b9d985b1a5908189b9a55985d5b1d60821b6044820152606401610a35565b46851415611ebf57611eba81878686612607565b611830565b50600095945050505050565b604080516001600160a01b038416602482015260448082018490528251808303909101815260649091019091526020810180516001600160e01b031663a9059cbb60e01b179052610d9a908490613016565b61012d80546001600160a01b038381166001600160a01b0319831681179093556040519116919082907f8be0079c531659141344cd1fd0a4f28419497f9722a3daafe3b4186f6b6457e090600090a35050565b60006001600160a01b038516611fc15760405162461bcd60e51b8152602060048201526016602482015275125b9d985b1a59081d185c99d95d10dbdb9d1c9858dd60521b6044820152606401610a35565b60006001600088815261016a602052604090205460ff166001811115611fe957611fe9613a0b565b1461200057610167546001600160a01b031661200e565b610166546001600160a01b03165b60405163bebc4f7160e01b81529091506001600160a01b0382169063bebc4f7190612043908a908a908a908a90600401614329565b60206040518083038186803b15801561205b57600080fd5b505afa15801561206f573d6000803e3d6000fd5b505050506040513d601f19601f82011682018060405250810190612093919061402d565b9150821580156120a35750814710155b1561210f57604051630ef95ceb60e31b81526001600160a01b038216906377cae7589084906120dc908b908b908b908b90600401614329565b6000604051808303818588803b1580156120f557600080fd5b505af1158015612109573d6000803e3d6000fd5b50505050505b5095945050505050565b83516000906060908190839081865b8281101561219b5786612156578a818151811061214757612147614017565b6020026020010151965061217b565b8a818151811061216857612168614017565b6020026020010151871461217b5761219b565b81612185816141c6565b9250508080612193906141c6565b915050612128565b506121a681886141ae565b925080156122e957806001600160401b038111156121c6576121c6613872565b6040519080825280602002602001820160405280156121ef578160200160208202803683370190505b509450806001600160401b0381111561220a5761220a613872565b604051908082528060200260200182016040528015612233578160200160208202803683370190505b50935060009050865b838110156122e75789818151811061225657612256614017565b602002602001015186838151811061227057612270614017565b60200260200101906001600160a01b031690816001600160a01b0316815250508881815181106122a2576122a2614017565b60200260200101518583815181106122bc576122bc614017565b6020908102919091010152816122d1816141c6565b92505080806122df906141c6565b91505061223c565b505b5050945094509450949050565b600084815261019460205260408120546001600160a01b03168061234f5760405162461bcd60e51b815260206004820152601060248201526f125b9d985b1a5908189b9a55985d5b1d60821b6044820152606401610a35565b4686141561252a576001600160a01b0387166000908152610165602052604081205490805b86518110156123b65786818151811061238f5761238f614017565b6020026020010151826123a291906141ae565b9150806123ae816141c6565b915050612374565b50610163546040805163313ce56760e01b815290516006926001600160a01b03169163313ce567916004808301926020929190829003018186803b1580156123fd57600080fd5b505afa158015612411573d6000803e3d6000fd5b505050506040513d601f19601f820116820180604052508101906124359190614356565b61243f9190614379565b61244a90600a614480565b612454908261448f565b90508082101561249d5760405162461bcd60e51b8152602060048201526014602482015273496e73756666696369656e742062616c616e636560601b6044820152606401610a35565b6124a7818361407d565b6001600160a01b03808b16600090815261016560205260409081902092909255905163582712b160e01b81529084169063582712b1906124f1908c908b908b908b90600401614108565b600060405180830381600087803b15801561250b57600080fd5b505af115801561251f573d6000803e3d6000fd5b50505050505061210f565b5060009695505050505050565b600061159c83836130e8565b600080856001600160a01b031663e75235b86040518163ffffffff1660e01b815260040160206040518083038186803b15801561257f57600080fd5b505afa158015612593573d6000803e3d6000fd5b505050506040513d601f19601f820116820180604052508101906125b7919061402d565b9050806125c8576000915050611832565b6125d58686868685613112565b9695505050505050565b60419081029190910160208101516040820151919092015160ff1692565b6000610954825490565b610163546040516370a0823160e01b81523060048201526000916001600160a01b0316906370a082319060240160206040518083038186803b15801561264c57600080fd5b505afa158015612660573d6000803e3d6000fd5b505050506040513d601f19601f82011682018060405250810190612684919061402d565b6040516374f40d3560e11b81529091506001600160a01b0386169063e9e81a6a906126b790879087908790600401614046565b600060405180830381600087803b1580156126d157600080fd5b505af11580156126e5573d6000803e3d6000fd5b5050610163546040516370a0823160e01b81523060048201528493506001600160a01b0390911691506370a082319060240160206040518083038186803b15801561272f57600080fd5b505afa158015612743573d6000803e3d6000fd5b505050506040513d601f19601f82011682018060405250810190612767919061402d565b612771919061407d565b6001600160a01b038516600090815261016560205260408120805490919061279a9084906141ae565b90915550505050505050565b6127b082826115f8565b610e29576127c8816001600160a01b0316601461336e565b6127d383602061336e565b6040516020016127e49291906144ae565b60408051601f198184030181529082905262461bcd60e51b8252610a3591600401613aaa565b60608060608060608060008060005b898110156128b95760018b828151811061283557612835614017565b6020026020010151600181111561284e5761284e613a0b565b1415612866578261285e816141c6565b9350506128a7565b60008b828151811061287a5761287a614017565b6020026020010151600181111561289357612893613a0b565b14156128a757816128a3816141c6565b9250505b806128b1816141c6565b915050612819565b50816001600160401b038111156128d2576128d2613872565b6040519080825280602002602001820160405280156128fb578160200160208202803683370190505b509750816001600160401b0381111561291657612916613872565b60405190808252806020026020018201604052801561293f578160200160208202803683370190505b509650816001600160401b0381111561295a5761295a613872565b604051908082528060200260200182016040528015612983578160200160208202803683370190505b509550806001600160401b0381111561299e5761299e613872565b6040519080825280602002602001820160405280156129c7578160200160208202803683370190505b509450806001600160401b038111156129e2576129e2613872565b604051908082528060200260200182016040528015612a0b578160200160208202803683370190505b509350806001600160401b03811115612a2657612a26613872565b604051908082528060200260200182016040528015612a4f578160200160208202803683370190505b509250600091506000905060005b89811015612ca85760018b8281518110612a7957612a79614017565b60200260200101516001811115612a9257612a92613a0b565b1415612b5e578d8181518110612aaa57612aaa614017565b6020026020010151898481518110612ac457612ac4614017565b6020026020010181815250508c8181518110612ae257612ae2614017565b6020026020010151888481518110612afc57612afc614017565b6020026020010181815250508b8181518110612b1a57612b1a614017565b6020026020010151878481518110612b3457612b34614017565b6001600160a01b039092166020928302919091019091015282612b56816141c6565b935050612c96565b60008b8281518110612b7257612b72614017565b60200260200101516001811115612b8b57612b8b613a0b565b1415612c57578d8181518110612ba357612ba3614017565b6020026020010151868381518110612bbd57612bbd614017565b6020026020010181815250508c8181518110612bdb57612bdb614017565b6020026020010151858381518110612bf557612bf5614017565b6020026020010181815250508b8181518110612c1357612c13614017565b6020026020010151848381518110612c2d57612c2d614017565b6001600160a01b039092166020928302919091019091015281612c4f816141c6565b925050612c96565b60405162461bcd60e51b8152602060048201526014602482015273496e76616c69642061646170746572207479706560601b6044820152606401610a35565b80612ca0816141c6565b915050612a5d565b5050509550955095509550955095565b600080855190508061016760009054906101000a90046001600160a01b03166001600160a01b0316633b11ca516040518163ffffffff1660e01b815260040160206040518083038186803b158015612d0f57600080fd5b505afa158015612d23573d6000803e3d6000fd5b505050506040513d601f19601f82011682018060405250810190612d47919061402d565b612d51919061448f565b915082158015612d615750814710155b15612ea157610167546040805163057ff68760e51b815290516000926001600160a01b03169163affed0e0916004808301926020929190829003018186803b158015612dac57600080fd5b505afa158015612dc0573d6000803e3d6000fd5b505050506040513d601f19601f82011682018060405250810190612de4919061402d565b610167546040516319684c2d60e21b81529192506001600160a01b0316906365a130b4908590612e1e908c908c908c908c906004016142e1565b6000604051808303818588803b158015612e3757600080fd5b505af1158015612e4b573d6000803e3d6000fd5b508493505050505b612e5d83836141ae565b811015612e9e5760008181526101686020526040902080546001600160a01b0319166001600160a01b038c1617905580612e96816141c6565b915050612e53565b50505b509695505050505050565b612eb682826115f8565b610e295760008281526097602090815260408083206001600160a01b03851684529091529020805460ff19166001179055612eef611da8565b6001600160a01b0316816001600160a01b0316837f2f8788117e7eff1d82e926ec794901d17c78024a50270940304540a733656f0d60405160405180910390a45050565b600061159c836001600160a01b038416613509565b600060183610801590612f6557506000546001600160a01b031633145b15612f77575060131936013560601c90565b503390565b612f8682826115f8565b15610e295760008281526097602090815260408083206001600160a01b03851684529091529020805460ff19169055612fbd611da8565b6001600160a01b0316816001600160a01b0316837ff6391f5c32d9c69d2a47ea670b442974b53935d1edc7fd64eb21e047a839171b60405160405180910390a45050565b600061159c836001600160a01b038416613558565b600061306b826040518060400160405280602081526020017f5361666545524332303a206c6f772d6c6576656c2063616c6c206661696c6564815250856001600160a01b031661364b9092919063ffffffff16565b805190915015610d9a57808060200190518101906130899190614523565b610d9a5760405162461bcd60e51b815260206004820152602a60248201527f5361666545524332303a204552433230206f7065726174696f6e20646964206e6044820152691bdd081cdd58d8d9595960b21b6064820152608401610a35565b60008260000182815481106130ff576130ff614017565b9060005260206000200154905092915050565b600061311f82604161448f565b8351101561312f57506000613365565b600080876001600160a01b031663a0e67e2b6040518163ffffffff1660e01b815260040160006040518083038186803b15801561316b57600080fd5b505afa15801561317f573d6000803e3d6000fd5b505050506040513d6000823e601f3d908101601f191682016040526131a79190810190614545565b905060008080805b8781101561335a5760418181028a0160208101516040820151919092015160ff16955090935091508361328a5791945084916131ec88604161448f565b8210156132025760009650505050505050613365565b885161320f8360206141ae565b11156132245760009650505050505050613365565b6020828a018101518a519091829061323d9086906141ae565b61324791906141ae565b111561325d576000975050505050505050613365565b89830160200161326e888d8361365a565b61328357600098505050505050505050613365565b505061332b565b6040517f19457468657265756d205369676e6564204d6573736167653a0a3332000000006020820152603c81018c9052600190605c0160408051601f198184030181528282528051602091820120600084529083018083525260ff871690820152606081018590526080810184905260a0016020604051602081039080840390855afa15801561331e573d6000803e3d6000fd5b5050506020604051035195505b6133358587613674565b6133485760009650505050505050613365565b80613352816141c6565b9150506131af565b600196505050505050505b95945050505050565b6060600061337d83600261448f565b6133889060026141ae565b6001600160401b0381111561339f5761339f613872565b6040519080825280601f01601f1916602001820160405280156133c9576020820181803683370190505b509050600360fc1b816000815181106133e4576133e4614017565b60200101906001600160f81b031916908160001a905350600f60fb1b8160018151811061341357613413614017565b60200101906001600160f81b031916908160001a905350600061343784600261448f565b6134429060016141ae565b90505b60018111156134ba576f181899199a1a9b1b9c1cb0b131b232b360811b85600f166010811061347657613476614017565b1a60f81b82828151811061348c5761348c614017565b60200101906001600160f81b031916908160001a90535060049490941c936134b3816145d3565b9050613445565b50831561159c5760405162461bcd60e51b815260206004820181905260248201527f537472696e67733a20686578206c656e67746820696e73756666696369656e746044820152606401610a35565b600081815260018301602052604081205461355057508154600181810184556000848152602080822090930184905584548482528286019093526040902091909155610954565b506000610954565b6000818152600183016020526040812054801561364157600061357c60018361407d565b85549091506000906135909060019061407d565b90508181146135f55760008660000182815481106135b0576135b0614017565b90600052602060002001549050808760000184815481106135d3576135d3614017565b6000918252602080832090910192909255918252600188019052604090208390555b8554869080613606576136066145ea565b600190038181906000526020600020016000905590558560010160008681526020019081526020016000206000905560019350505050610954565b6000915050610954565b606061183284846000856136de565b6000806136668461095a565b905061336585828686612543565b8151600090815b818110156136d357836001600160a01b031685828151811061369f5761369f614017565b60200260200101516001600160a01b031614156136c157600192505050610954565b806136cb816141c6565b91505061367b565b506000949350505050565b60608247101561373f5760405162461bcd60e51b815260206004820152602660248201527f416464726573733a20696e73756666696369656e742062616c616e636520666f6044820152651c8818d85b1b60d21b6064820152608401610a35565b6001600160a01b0385163b6137965760405162461bcd60e51b815260206004820152601d60248201527f416464726573733a2063616c6c20746f206e6f6e2d636f6e74726163740000006044820152606401610a35565b600080866001600160a01b031685876040516137b29190614600565b60006040518083038185875af1925050503d80600081146137ef576040519150601f19603f3d011682016040523d82523d6000602084013e6137f4565b606091505b509150915061380482828661380f565b979650505050505050565b6060831561381e57508161159c565b82511561382e5782518084602001fd5b8160405162461bcd60e51b8152600401610a359190613aaa565b60006020828403121561385a57600080fd5b81356001600160e01b03198116811461159c57600080fd5b634e487b7160e01b600052604160045260246000fd5b604051601f8201601f191681016001600160401b03811182821017156138b0576138b0613872565b604052919050565b600082601f8301126138c957600080fd5b81356001600160401b038111156138e2576138e2613872565b6138f5601f8201601f1916602001613888565b81815284602083860101111561390a57600080fd5b816020850160208301376000918101602001919091529392505050565b60006020828403121561393957600080fd5b81356001600160401b0381111561394f57600080fd5b611832848285016138b8565b60006020828403121561396d57600080fd5b5035919050565b6001600160a01b0381168114611bdb57600080fd5b80356002811061399857600080fd5b919050565b6000806000606084860312156139b257600080fd5b83356139bd81613974565b9250602084013591506139d260408501613989565b90509250925092565b600080604083850312156139ee57600080fd5b823591506020830135613a0081613974565b809150509250929050565b634e487b7160e01b600052602160045260246000fd5b60028110611bdb57634e487b7160e01b600052602160045260246000fd5b60208101613a4c83613a21565b91905290565b60005b83811015613a6d578181015183820152602001613a55565b83811115611aed5750506000910152565b60008151808452613a96816020860160208601613a52565b601f01601f19169290920160200192915050565b60208152600061159c6020830184613a7e565b600060208284031215613acf57600080fd5b813561159c81613974565b60006001600160401b03821115613af357613af3613872565b5060051b60200190565b600082601f830112613b0e57600080fd5b81356020613b23613b1e83613ada565b613888565b82815260059290921b84018101918181019086841115613b4257600080fd5b8286015b84811015612ea1578035613b5981613974565b8352918301918301613b46565b600082601f830112613b7757600080fd5b81356020613b87613b1e83613ada565b82815260059290921b84018101918181019086841115613ba657600080fd5b8286015b84811015612ea15780358352918301918301613baa565b60008060008060808587031215613bd757600080fd5b8435613be281613974565b935060208501356001600160401b0380821115613bfe57600080fd5b613c0a88838901613afd565b94506040870135915080821115613c2057600080fd5b50613c2d87828801613b66565b949793965093946060013593505050565b60008083601f840112613c5057600080fd5b5081356001600160401b03811115613c6757600080fd5b602083019150836020828501011115613c7f57600080fd5b9250929050565b600080600080600060808688031215613c9e57600080fd5b85356001600160401b0380821115613cb557600080fd5b613cc189838a01613b66565b965060208801359550604088013594506060880135915080821115613ce557600080fd5b50613cf288828901613c3e565b969995985093965092949392505050565b600080600060408486031215613d1857600080fd5b8335925060208401356001600160401b03811115613d3557600080fd5b613d4186828701613c3e565b9497909650939450505050565b60008060008060608587031215613d6457600080fd5b843593506020850135925060408501356001600160401b03811115613d8857600080fd5b613d9487828801613c3e565b95989497509550505050565b60008060008060008060a08789031215613db957600080fd5b86356001600160401b0380821115613dd057600080fd5b613ddc8a838b01613b66565b97506020890135915080821115613df257600080fd5b613dfe8a838b01613afd565b96506040890135915080821115613e1457600080fd5b613e208a838b01613b66565b9550606089013594506080890135915080821115613e3d57600080fd5b50613e4a89828a01613c3e565b979a9699509497509295939492505050565b60008060408385031215613e6f57600080fd5b50508035926020909101359150565b60008060008060608587031215613e9457600080fd5b84356001600160401b0380821115613eab57600080fd5b613eb788838901613b66565b9550602091508187013581811115613ece57600080fd5b8701601f81018913613edf57600080fd5b8035613eed613b1e82613ada565b81815260059190911b8201840190848101908b831115613f0c57600080fd5b928501925b82841015613f3157613f2284613989565b82529285019290850190613f11565b97505050506040870135915080821115613f4a57600080fd5b50613d9487828801613c3e565b60008060408385031215613f6a57600080fd5b8235613f7581613974565b946020939093013593505050565b60008060008060608587031215613f9957600080fd5b8435613fa481613974565b935060208501356001600160401b0380821115613fc057600080fd5b613fcc888389016138b8565b94506040870135915080821115613f4a57600080fd5b600080600060608486031215613ff757600080fd5b833561400281613974565b95602085013595506040909401359392505050565b634e487b7160e01b600052603260045260246000fd5b60006020828403121561403f57600080fd5b5051919050565b6001600160a01b039390931683526020830191909152604082015260600190565b634e487b7160e01b600052601160045260246000fd5b60008282101561408f5761408f614067565b500390565b600081518084526020808501945080840160005b838110156140cd5781516001600160a01b0316875295820195908201906001016140a8565b509495945050505050565b600081518084526020808501945080840160005b838110156140cd578151875295820195908201906001016140ec565b6001600160a01b038516815260806020820181905260009061412c90830186614094565b828103604084015261413e81866140d8565b91505082606083015295945050505050565b805160009060208084018383156140cd578151875295820195908201906001016140ec565b6001600160601b03198660601b168152846014820152600061419a6034830186614150565b938452505060208201526040019392505050565b600082198211156141c1576141c1614067565b500190565b60006000198214156141da576141da614067565b5060010190565b60609390931b6bffffffffffffffffffffffff191683526014830191909152603482015260540190565b6001600160601b03198760601b16815285601482015260006142306034830187614150565b8551602080880160005b8381101561425f5781516001600160a01b03168552938201939082019060010161423a565b505061426b8388614150565b9586529094019998505050505050505050565b6001600160601b03198560601b16815283601482015260006142a36034830185614150565b8351602080860160005b838110156142d25781516142c081613a21565b855293820193908201906001016142ad565b50929998505050505050505050565b6142ea85613a21565b84815260806020820152600061430360808301866140d8565b828103604084015261431581866140d8565b905082810360608401526138048185614094565b84815260018060a01b03841660208201528260408201526080606082015260006125d56080830184613a7e565b60006020828403121561436857600080fd5b815160ff8116811461159c57600080fd5b600060ff821660ff84168082101561439357614393614067565b90039392505050565b600181815b808511156143d75781600019048211156143bd576143bd614067565b808516156143ca57918102915b93841c93908002906143a1565b509250929050565b6000826143ee57506001610954565b816143fb57506000610954565b8160018114614411576002811461441b57614437565b6001915050610954565b60ff84111561442c5761442c614067565b50506001821b610954565b5060208310610133831016604e8410600b841016171561445a575081810a610954565b614464838361439c565b806000190482111561447857614478614067565b029392505050565b600061159c60ff8416836143df565b60008160001904831182151516156144a9576144a9614067565b500290565b7f416363657373436f6e74726f6c3a206163636f756e74200000000000000000008152600083516144e6816017850160208801613a52565b7001034b99036b4b9b9b4b733903937b6329607d1b6017918401918201528351614517816028840160208801613a52565b01602801949350505050565b60006020828403121561453557600080fd5b8151801515811461159c57600080fd5b6000602080838503121561455857600080fd5b82516001600160401b0381111561456e57600080fd5b8301601f8101851361457f57600080fd5b805161458d613b1e82613ada565b81815260059190911b820183019083810190878311156145ac57600080fd5b928401925b828410156138045783516145c481613974565b825292840192908401906145b1565b6000816145e2576145e2614067565b506000190190565b634e487b7160e01b600052603160045260246000fd5b60008251614612818460208701613a52565b919091019291505056fedbeb657137b1822b3d5418bea6fd641226d964b4c3871ef23546db2622258871a2646970667358221220121892c6aac45fd9d06fa1ad26e1ee03a89fac1e08b5dd7c1414eed0190bf52864736f6c63430008090033",
  "devdoc": {
    "kind": "dev",
    "methods": {
      "burn(uint256,uint256,bytes)": {
        "details": "It calls burnByAdmin of BNIMinter.",
        "params": {
          "_pool": "total pool in USD",
          "_share": "amount of shares"
        }
      },
      "deposit(uint256[],address[],uint256[],uint256,bytes)": {
        "details": "It calls depositByAgent of BNIVaults."
      },
      "exitWithdrawal(uint256,bytes)": {
        "details": "It calls exitWithdrawalByAdmin of BNIMinter.",
        "params": {
          "_gatheredAmount": "is the amount of token that is gathered."
        }
      },
      "gather(uint256[],uint8[],bytes)": {
        "details": "It gathers withdrawn tokens of the user from user agents."
      },
      "getMessageHashForSafe(bytes)": {
        "details": "Returns hash of a message that can be signed by owners.",
        "params": {
          "message": "Message that should be hashed"
        },
        "returns": {
          "_0": "Message hash."
        }
      },
      "getRoleAdmin(bytes32)": {
        "details": "Returns the admin role that controls `role`. See {grantRole} and {revokeRole}. To change a role's admin, use {_setRoleAdmin}."
      },
      "getRoleMember(bytes32,uint256)": {
        "details": "Returns one of the accounts that have `role`. `index` must be a value between 0 and {getRoleMemberCount}, non-inclusive. Role bearers are not sorted in any particular way, and their ordering may change at any point. WARNING: When using {getRoleMember} and {getRoleMemberCount}, make sure you perform all queries on the same block. See the following https://forum.openzeppelin.com/t/iterating-over-elements-on-enumerableset-in-openzeppelin-contracts/2296[forum post] for more information."
      },
      "getRoleMemberCount(bytes32)": {
        "details": "Returns the number of accounts that have `role`. Can be used together with {getRoleMember} to enumerate all bearers of a role."
      },
      "grantRole(bytes32,address)": {
        "details": "Grants `role` to `account`. If `account` had not been already granted `role`, emits a {RoleGranted} event. Requirements: - the caller must have ``role``'s admin role."
      },
      "hasRole(bytes32,address)": {
        "details": "Returns `true` if `account` has been granted `role`."
      },
      "mint(uint256,bytes)": {
        "details": "It calls mintByAdmin of BNIMinter."
      },
      "owner()": {
        "details": "Returns the address of the current owner."
      },
      "paused()": {
        "details": "Returns true if the contract is paused, and false otherwise."
      },
      "renounceOwnership()": {
        "details": "Leaves the contract without owner. It will not be possible to call `onlyOwner` functions anymore. Can only be called by the current owner. NOTE: Renouncing ownership will leave the contract without an owner, thereby removing any functionality that is only available to the owner."
      },
      "renounceRole(bytes32,address)": {
        "details": "Revokes `role` from the calling account. Roles are often managed via {grantRole} and {revokeRole}: this function's purpose is to provide a mechanism for accounts to lose their privileges if they are compromised (such as when a trusted device is misplaced). If the calling account had been revoked `role`, emits a {RoleRevoked} event. Requirements: - the caller must be `account`."
      },
      "revokeRole(bytes32,address)": {
        "details": "Revokes `role` from `account`. If `account` had been granted `role`, emits a {RoleRevoked} event. Requirements: - the caller must have ``role``'s admin role."
      },
      "supportsInterface(bytes4)": {
        "details": "See {IERC165-supportsInterface}."
      },
      "takeOut(uint256,bytes)": {
        "details": "It takes out tokens from this agent.",
        "params": {
          "_gatheredAmount": "is the amount of token that is gathered."
        }
      },
      "transferOwnership(address)": {
        "details": "Transfers ownership of the contract to a new account (`newOwner`). Can only be called by the current owner."
      },
      "withdraw(uint256[],uint256,uint256,bytes)": {
        "details": "It calls withdrawPercByAgent of BNIVaults."
      }
    },
    "version": 1
  },
  "userdoc": {
    "kind": "user",
    "methods": {
      "exitWithdrawal(uint256,bytes)": {
        "notice": "_gatheredAmount doesn't include the balance which is withdrawan in this agent."
      },
      "isTrustedForwarder(address)": {
        "notice": "return if the forwarder is trusted to forward relayed transactions to us. the forwarder is required to verify the sender's signature, and verify the call is not a replay."
      },
      "takeOut(uint256,bytes)": {
        "notice": "_gatheredAmount doesn't include the balance which is withdrawan in this agent."
      }
    },
    "version": 1
  },
  "storageLayout": {
    "storage": [
      {
        "astId": 66202,
        "contract": "contracts/xchain/agent/BNIUserAgentSubTest.sol:BNIUserAgentSubTest",
        "label": "trustedForwarder",
        "offset": 0,
        "slot": "0",
        "type": "t_address"
      },
      {
        "astId": 713,
        "contract": "contracts/xchain/agent/BNIUserAgentSubTest.sol:BNIUserAgentSubTest",
        "label": "_initialized",
        "offset": 20,
        "slot": "0",
        "type": "t_uint8"
      },
      {
        "astId": 716,
        "contract": "contracts/xchain/agent/BNIUserAgentSubTest.sol:BNIUserAgentSubTest",
        "label": "_initializing",
        "offset": 21,
        "slot": "0",
        "type": "t_bool"
      },
      {
        "astId": 66717,
        "contract": "contracts/xchain/agent/BNIUserAgentSubTest.sol:BNIUserAgentSubTest",
        "label": "separator",
        "offset": 0,
        "slot": "1",
        "type": "t_bytes32"
      },
      {
        "astId": 67134,
        "contract": "contracts/xchain/agent/BNIUserAgentSubTest.sol:BNIUserAgentSubTest",
        "label": "__gap",
        "offset": 0,
        "slot": "2",
        "type": "t_array(t_uint256)49_storage"
      },
      {
        "astId": 3292,
        "contract": "contracts/xchain/agent/BNIUserAgentSubTest.sol:BNIUserAgentSubTest",
        "label": "__gap",
        "offset": 0,
        "slot": "51",
        "type": "t_array(t_uint256)50_storage"
      },
      {
        "astId": 3946,
        "contract": "contracts/xchain/agent/BNIUserAgentSubTest.sol:BNIUserAgentSubTest",
        "label": "__gap",
        "offset": 0,
        "slot": "101",
        "type": "t_array(t_uint256)50_storage"
      },
      {
        "astId": 184,
        "contract": "contracts/xchain/agent/BNIUserAgentSubTest.sol:BNIUserAgentSubTest",
        "label": "_roles",
        "offset": 0,
        "slot": "151",
        "type": "t_mapping(t_bytes32,t_struct(RoleData)179_storage)"
      },
      {
        "astId": 483,
        "contract": "contracts/xchain/agent/BNIUserAgentSubTest.sol:BNIUserAgentSubTest",
        "label": "__gap",
        "offset": 0,
        "slot": "152",
        "type": "t_array(t_uint256)49_storage"
      },
      {
        "astId": 33,
        "contract": "contracts/xchain/agent/BNIUserAgentSubTest.sol:BNIUserAgentSubTest",
        "label": "_roleMembers",
        "offset": 0,
        "slot": "201",
        "type": "t_mapping(t_bytes32,t_struct(AddressSet)4359_storage)"
      },
      {
        "astId": 143,
        "contract": "contracts/xchain/agent/BNIUserAgentSubTest.sol:BNIUserAgentSubTest",
        "label": "__gap",
        "offset": 0,
        "slot": "202",
        "type": "t_array(t_uint256)49_storage"
      },
      {
        "astId": 869,
        "contract": "contracts/xchain/agent/BNIUserAgentSubTest.sol:BNIUserAgentSubTest",
        "label": "_paused",
        "offset": 0,
        "slot": "251",
        "type": "t_bool"
      },
      {
        "astId": 958,
        "contract": "contracts/xchain/agent/BNIUserAgentSubTest.sol:BNIUserAgentSubTest",
        "label": "__gap",
        "offset": 0,
        "slot": "252",
        "type": "t_array(t_uint256)49_storage"
      },
      {
        "astId": 593,
        "contract": "contracts/xchain/agent/BNIUserAgentSubTest.sol:BNIUserAgentSubTest",
        "label": "_owner",
        "offset": 0,
        "slot": "301",
        "type": "t_address"
      },
      {
        "astId": 705,
        "contract": "contracts/xchain/agent/BNIUserAgentSubTest.sol:BNIUserAgentSubTest",
        "label": "__gap",
        "offset": 0,
        "slot": "302",
        "type": "t_array(t_uint256)49_storage"
      },
      {
        "astId": 59579,
        "contract": "contracts/xchain/agent/BNIUserAgentSubTest.sol:BNIUserAgentSubTest",
        "label": "admin",
        "offset": 0,
        "slot": "351",
        "type": "t_address"
      },
      {
        "astId": 59583,
        "contract": "contracts/xchain/agent/BNIUserAgentSubTest.sol:BNIUserAgentSubTest",
        "label": "nonces",
        "offset": 0,
        "slot": "352",
        "type": "t_mapping(t_address,t_uint256)"
      },
      {
        "astId": 59586,
        "contract": "contracts/xchain/agent/BNIUserAgentSubTest.sol:BNIUserAgentSubTest",
        "label": "swap",
        "offset": 0,
        "slot": "353",
        "type": "t_contract(ISwap)55907"
      },
      {
        "astId": 59589,
        "contract": "contracts/xchain/agent/BNIUserAgentSubTest.sol:BNIUserAgentSubTest",
        "label": "USDC",
        "offset": 0,
        "slot": "354",
        "type": "t_contract(IERC20Upgradeable)1707"
      },
      {
        "astId": 59592,
        "contract": "contracts/xchain/agent/BNIUserAgentSubTest.sol:BNIUserAgentSubTest",
        "label": "USDT",
        "offset": 0,
        "slot": "355",
        "type": "t_contract(IERC20Upgradeable)1707"
      },
      {
        "astId": 59596,
        "contract": "contracts/xchain/agent/BNIUserAgentSubTest.sol:BNIUserAgentSubTest",
        "label": "usdcBalances",
        "offset": 0,
        "slot": "356",
        "type": "t_mapping(t_address,t_uint256)"
      },
      {
        "astId": 59600,
        "contract": "contracts/xchain/agent/BNIUserAgentSubTest.sol:BNIUserAgentSubTest",
        "label": "usdtBalances",
        "offset": 0,
        "slot": "357",
        "type": "t_mapping(t_address,t_uint256)"
      },
      {
        "astId": 59603,
        "contract": "contracts/xchain/agent/BNIUserAgentSubTest.sol:BNIUserAgentSubTest",
        "label": "multichainAdapter",
        "offset": 0,
        "slot": "358",
        "type": "t_contract(IXChainAdapter)56214"
      },
      {
        "astId": 59606,
        "contract": "contracts/xchain/agent/BNIUserAgentSubTest.sol:BNIUserAgentSubTest",
        "label": "cbridgeAdapter",
        "offset": 0,
        "slot": "359",
        "type": "t_contract(IXChainAdapter)56214"
      },
      {
        "astId": 59610,
        "contract": "contracts/xchain/agent/BNIUserAgentSubTest.sol:BNIUserAgentSubTest",
        "label": "cbridgeSenders",
        "offset": 0,
        "slot": "360",
        "type": "t_mapping(t_uint256,t_address)"
      },
      {
        "astId": 59614,
        "contract": "contracts/xchain/agent/BNIUserAgentSubTest.sol:BNIUserAgentSubTest",
        "label": "userAgents",
        "offset": 0,
        "slot": "361",
        "type": "t_mapping(t_uint256,t_address)"
      },
      {
        "astId": 59619,
        "contract": "contracts/xchain/agent/BNIUserAgentSubTest.sol:BNIUserAgentSubTest",
        "label": "callAdapterTypes",
        "offset": 0,
        "slot": "362",
        "type": "t_mapping(t_uint256,t_enum(AdapterType)59572)"
      },
      {
        "astId": 60145,
        "contract": "contracts/xchain/agent/BNIUserAgentSubTest.sol:BNIUserAgentSubTest",
        "label": "__gap",
        "offset": 0,
        "slot": "363",
        "type": "t_array(t_uint256)39_storage"
      },
      {
        "astId": 57159,
        "contract": "contracts/xchain/agent/BNIUserAgentSubTest.sol:BNIUserAgentSubTest",
        "label": "chainIdOnLP",
        "offset": 0,
        "slot": "402",
        "type": "t_uint256"
      },
      {
        "astId": 57161,
        "contract": "contracts/xchain/agent/BNIUserAgentSubTest.sol:BNIUserAgentSubTest",
        "label": "isLPChain",
        "offset": 0,
        "slot": "403",
        "type": "t_bool"
      },
      {
        "astId": 57164,
        "contract": "contracts/xchain/agent/BNIUserAgentSubTest.sol:BNIUserAgentSubTest",
        "label": "bniMinter",
        "offset": 1,
        "slot": "403",
        "type": "t_contract(IBNIMinter)10340"
      },
      {
        "astId": 57169,
        "contract": "contracts/xchain/agent/BNIUserAgentSubTest.sol:BNIUserAgentSubTest",
        "label": "bniVaults",
        "offset": 0,
        "slot": "404",
        "type": "t_mapping(t_uint256,t_contract(IBNIVault)10387)"
      },
      {
        "astId": 57171,
        "contract": "contracts/xchain/agent/BNIUserAgentSubTest.sol:BNIUserAgentSubTest",
        "label": "subImpl",
        "offset": 0,
        "slot": "405",
        "type": "t_address"
      }
    ],
    "types": {
      "t_address": {
        "encoding": "inplace",
        "label": "address",
        "numberOfBytes": "20"
      },
      "t_array(t_bytes32)dyn_storage": {
        "base": "t_bytes32",
        "encoding": "dynamic_array",
        "label": "bytes32[]",
        "numberOfBytes": "32"
      },
      "t_array(t_uint256)39_storage": {
        "base": "t_uint256",
        "encoding": "inplace",
        "label": "uint256[39]",
        "numberOfBytes": "1248"
      },
      "t_array(t_uint256)49_storage": {
        "base": "t_uint256",
        "encoding": "inplace",
        "label": "uint256[49]",
        "numberOfBytes": "1568"
      },
      "t_array(t_uint256)50_storage": {
        "base": "t_uint256",
        "encoding": "inplace",
        "label": "uint256[50]",
        "numberOfBytes": "1600"
      },
      "t_bool": {
        "encoding": "inplace",
        "label": "bool",
        "numberOfBytes": "1"
      },
      "t_bytes32": {
        "encoding": "inplace",
        "label": "bytes32",
        "numberOfBytes": "32"
      },
      "t_contract(IBNIMinter)10340": {
        "encoding": "inplace",
        "label": "contract IBNIMinter",
        "numberOfBytes": "20"
      },
      "t_contract(IBNIVault)10387": {
        "encoding": "inplace",
        "label": "contract IBNIVault",
        "numberOfBytes": "20"
      },
      "t_contract(IERC20Upgradeable)1707": {
        "encoding": "inplace",
        "label": "contract IERC20Upgradeable",
        "numberOfBytes": "20"
      },
      "t_contract(ISwap)55907": {
        "encoding": "inplace",
        "label": "contract ISwap",
        "numberOfBytes": "20"
      },
      "t_contract(IXChainAdapter)56214": {
        "encoding": "inplace",
        "label": "contract IXChainAdapter",
        "numberOfBytes": "20"
      },
      "t_enum(AdapterType)59572": {
        "encoding": "inplace",
        "label": "enum BasicUserAgentBase.AdapterType",
        "numberOfBytes": "1"
      },
      "t_mapping(t_address,t_bool)": {
        "encoding": "mapping",
        "key": "t_address",
        "label": "mapping(address => bool)",
        "numberOfBytes": "32",
        "value": "t_bool"
      },
      "t_mapping(t_address,t_uint256)": {
        "encoding": "mapping",
        "key": "t_address",
        "label": "mapping(address => uint256)",
        "numberOfBytes": "32",
        "value": "t_uint256"
      },
      "t_mapping(t_bytes32,t_struct(AddressSet)4359_storage)": {
        "encoding": "mapping",
        "key": "t_bytes32",
        "label": "mapping(bytes32 => struct EnumerableSetUpgradeable.AddressSet)",
        "numberOfBytes": "32",
        "value": "t_struct(AddressSet)4359_storage"
      },
      "t_mapping(t_bytes32,t_struct(RoleData)179_storage)": {
        "encoding": "mapping",
        "key": "t_bytes32",
        "label": "mapping(bytes32 => struct AccessControlUpgradeable.RoleData)",
        "numberOfBytes": "32",
        "value": "t_struct(RoleData)179_storage"
      },
      "t_mapping(t_bytes32,t_uint256)": {
        "encoding": "mapping",
        "key": "t_bytes32",
        "label": "mapping(bytes32 => uint256)",
        "numberOfBytes": "32",
        "value": "t_uint256"
      },
      "t_mapping(t_uint256,t_address)": {
        "encoding": "mapping",
        "key": "t_uint256",
        "label": "mapping(uint256 => address)",
        "numberOfBytes": "32",
        "value": "t_address"
      },
      "t_mapping(t_uint256,t_contract(IBNIVault)10387)": {
        "encoding": "mapping",
        "key": "t_uint256",
        "label": "mapping(uint256 => contract IBNIVault)",
        "numberOfBytes": "32",
        "value": "t_contract(IBNIVault)10387"
      },
      "t_mapping(t_uint256,t_enum(AdapterType)59572)": {
        "encoding": "mapping",
        "key": "t_uint256",
        "label": "mapping(uint256 => enum BasicUserAgentBase.AdapterType)",
        "numberOfBytes": "32",
        "value": "t_enum(AdapterType)59572"
      },
      "t_struct(AddressSet)4359_storage": {
        "encoding": "inplace",
        "label": "struct EnumerableSetUpgradeable.AddressSet",
        "members": [
          {
            "astId": 4358,
            "contract": "contracts/xchain/agent/BNIUserAgentSubTest.sol:BNIUserAgentSubTest",
            "label": "_inner",
            "offset": 0,
            "slot": "0",
            "type": "t_struct(Set)4058_storage"
          }
        ],
        "numberOfBytes": "64"
      },
      "t_struct(RoleData)179_storage": {
        "encoding": "inplace",
        "label": "struct AccessControlUpgradeable.RoleData",
        "members": [
          {
            "astId": 176,
            "contract": "contracts/xchain/agent/BNIUserAgentSubTest.sol:BNIUserAgentSubTest",
            "label": "members",
            "offset": 0,
            "slot": "0",
            "type": "t_mapping(t_address,t_bool)"
          },
          {
            "astId": 178,
            "contract": "contracts/xchain/agent/BNIUserAgentSubTest.sol:BNIUserAgentSubTest",
            "label": "adminRole",
            "offset": 0,
            "slot": "1",
            "type": "t_bytes32"
          }
        ],
        "numberOfBytes": "64"
      },
      "t_struct(Set)4058_storage": {
        "encoding": "inplace",
        "label": "struct EnumerableSetUpgradeable.Set",
        "members": [
          {
            "astId": 4053,
            "contract": "contracts/xchain/agent/BNIUserAgentSubTest.sol:BNIUserAgentSubTest",
            "label": "_values",
            "offset": 0,
            "slot": "0",
            "type": "t_array(t_bytes32)dyn_storage"
          },
          {
            "astId": 4057,
            "contract": "contracts/xchain/agent/BNIUserAgentSubTest.sol:BNIUserAgentSubTest",
            "label": "_indexes",
            "offset": 0,
            "slot": "1",
            "type": "t_mapping(t_bytes32,t_uint256)"
          }
        ],
        "numberOfBytes": "64"
      },
      "t_uint256": {
        "encoding": "inplace",
        "label": "uint256",
        "numberOfBytes": "32"
      },
      "t_uint8": {
        "encoding": "inplace",
        "label": "uint8",
        "numberOfBytes": "1"
      }
    }
  }
}