{
  "address": "0x6Cc7E34a368Bc602A0AfffFBF0D3bb52DC6Ea722",
  "abi": [
    {
      "anonymous": false,
      "inputs": [
        {
          "indexed": false,
          "internalType": "uint8",
          "name": "version",
          "type": "uint8"
        }
      ],
      "name": "Initialized",
      "type": "event"
    },
    {
      "anonymous": false,
      "inputs": [
        {
          "indexed": true,
          "internalType": "address",
          "name": "previousOwner",
          "type": "address"
        },
        {
          "indexed": true,
          "internalType": "address",
          "name": "newOwner",
          "type": "address"
        }
      ],
      "name": "OwnershipTransferred",
      "type": "event"
    },
    {
      "anonymous": false,
      "inputs": [
        {
          "indexed": false,
          "internalType": "address",
          "name": "account",
          "type": "address"
        }
      ],
      "name": "Paused",
      "type": "event"
    },
    {
      "anonymous": false,
      "inputs": [
        {
          "indexed": true,
          "internalType": "bytes32",
          "name": "role",
          "type": "bytes32"
        },
        {
          "indexed": true,
          "internalType": "bytes32",
          "name": "previousAdminRole",
          "type": "bytes32"
        },
        {
          "indexed": true,
          "internalType": "bytes32",
          "name": "newAdminRole",
          "type": "bytes32"
        }
      ],
      "name": "RoleAdminChanged",
      "type": "event"
    },
    {
      "anonymous": false,
      "inputs": [
        {
          "indexed": true,
          "internalType": "bytes32",
          "name": "role",
          "type": "bytes32"
        },
        {
          "indexed": true,
          "internalType": "address",
          "name": "account",
          "type": "address"
        },
        {
          "indexed": true,
          "internalType": "address",
          "name": "sender",
          "type": "address"
        }
      ],
      "name": "RoleGranted",
      "type": "event"
    },
    {
      "anonymous": false,
      "inputs": [
        {
          "indexed": true,
          "internalType": "bytes32",
          "name": "role",
          "type": "bytes32"
        },
        {
          "indexed": true,
          "internalType": "address",
          "name": "account",
          "type": "address"
        },
        {
          "indexed": true,
          "internalType": "address",
          "name": "sender",
          "type": "address"
        }
      ],
      "name": "RoleRevoked",
      "type": "event"
    },
    {
      "anonymous": false,
      "inputs": [
        {
          "indexed": true,
          "internalType": "address",
          "name": "from",
          "type": "address"
        },
        {
          "indexed": false,
          "internalType": "address",
          "name": "token",
          "type": "address"
        },
        {
          "indexed": true,
          "internalType": "uint256",
          "name": "amount",
          "type": "uint256"
        },
        {
          "indexed": false,
          "internalType": "uint256",
          "name": "fromChainId",
          "type": "uint256"
        },
        {
          "indexed": true,
          "internalType": "uint256",
          "name": "toChainId",
          "type": "uint256"
        },
        {
          "indexed": false,
          "internalType": "address",
          "name": "to",
          "type": "address"
        },
        {
          "indexed": false,
          "internalType": "enum BasicUserAgentBase.AdapterType",
          "name": "adapterType",
          "type": "uint8"
        },
        {
          "indexed": false,
          "internalType": "uint256",
          "name": "nonce",
          "type": "uint256"
        }
      ],
      "name": "Transfer",
      "type": "event"
    },
    {
      "anonymous": false,
      "inputs": [
        {
          "indexed": false,
          "internalType": "address",
          "name": "account",
          "type": "address"
        }
      ],
      "name": "Unpaused",
      "type": "event"
    },
    {
      "inputs": [],
      "name": "ADAPTER_ROLE",
      "outputs": [
        {
          "internalType": "bytes32",
          "name": "",
          "type": "bytes32"
        }
      ],
      "stateMutability": "view",
      "type": "function"
    },
    {
      "inputs": [],
      "name": "DEFAULT_ADMIN_ROLE",
      "outputs": [
        {
          "internalType": "bytes32",
          "name": "",
          "type": "bytes32"
        }
      ],
      "stateMutability": "view",
      "type": "function"
    },
    {
      "inputs": [],
      "name": "USDC",
      "outputs": [
        {
          "internalType": "contract IERC20Upgradeable",
          "name": "",
          "type": "address"
        }
      ],
      "stateMutability": "view",
      "type": "function"
    },
    {
      "inputs": [],
      "name": "USDT",
      "outputs": [
        {
          "internalType": "contract IERC20Upgradeable",
          "name": "",
          "type": "address"
        }
      ],
      "stateMutability": "view",
      "type": "function"
    },
    {
      "inputs": [],
      "name": "admin",
      "outputs": [
        {
          "internalType": "address",
          "name": "",
          "type": "address"
        }
      ],
      "stateMutability": "view",
      "type": "function"
    },
    {
      "inputs": [],
      "name": "bniMinter",
      "outputs": [
        {
          "internalType": "contract IBNIMinter",
          "name": "",
          "type": "address"
        }
      ],
      "stateMutability": "view",
      "type": "function"
    },
    {
      "inputs": [
        {
          "internalType": "uint256",
          "name": "",
          "type": "uint256"
        }
      ],
      "name": "bniVaults",
      "outputs": [
        {
          "internalType": "contract IBNIVault",
          "name": "",
          "type": "address"
        }
      ],
      "stateMutability": "view",
      "type": "function"
    },
    {
      "inputs": [
        {
          "internalType": "uint256",
          "name": "_pool",
          "type": "uint256"
        },
        {
          "internalType": "uint256",
          "name": "_share",
          "type": "uint256"
        },
        {
          "internalType": "bytes",
          "name": "_signature",
          "type": "bytes"
        }
      ],
      "name": "burn",
      "outputs": [
        {
          "internalType": "uint256",
          "name": "_feeAmt",
          "type": "uint256"
        }
      ],
      "stateMutability": "payable",
      "type": "function"
    },
    {
      "inputs": [
        {
          "internalType": "address",
          "name": "_account",
          "type": "address"
        },
        {
          "internalType": "uint256",
          "name": "_pool",
          "type": "uint256"
        },
        {
          "internalType": "uint256",
          "name": "_share",
          "type": "uint256"
        }
      ],
      "name": "burnByAdmin",
      "outputs": [],
      "stateMutability": "nonpayable",
      "type": "function"
    },
    {
      "inputs": [
        {
          "internalType": "uint256",
          "name": "",
          "type": "uint256"
        }
      ],
      "name": "callAdapterTypes",
      "outputs": [
        {
          "internalType": "enum BasicUserAgentBase.AdapterType",
          "name": "",
          "type": "uint8"
        }
      ],
      "stateMutability": "view",
      "type": "function"
    },
    {
      "inputs": [],
      "name": "cbridgeAdapter",
      "outputs": [
        {
          "internalType": "contract IXChainAdapter",
          "name": "",
          "type": "address"
        }
      ],
      "stateMutability": "view",
      "type": "function"
    },
    {
      "inputs": [
        {
          "internalType": "uint256",
          "name": "",
          "type": "uint256"
        }
      ],
      "name": "cbridgeSenders",
      "outputs": [
        {
          "internalType": "address",
          "name": "",
          "type": "address"
        }
      ],
      "stateMutability": "view",
      "type": "function"
    },
    {
      "inputs": [],
      "name": "chainIdOnLP",
      "outputs": [
        {
          "internalType": "uint256",
          "name": "",
          "type": "uint256"
        }
      ],
      "stateMutability": "view",
      "type": "function"
    },
    {
      "inputs": [
        {
          "internalType": "uint256[]",
          "name": "_toChainIds",
          "type": "uint256[]"
        },
        {
          "internalType": "address[]",
          "name": "_tokens",
          "type": "address[]"
        },
        {
          "internalType": "uint256[]",
          "name": "_USDTAmts",
          "type": "uint256[]"
        },
        {
          "internalType": "uint256",
          "name": "_minterNonce",
          "type": "uint256"
        },
        {
          "internalType": "bytes",
          "name": "_signature",
          "type": "bytes"
        }
      ],
      "name": "deposit",
      "outputs": [
        {
          "internalType": "uint256",
          "name": "_feeAmt",
          "type": "uint256"
        }
      ],
      "stateMutability": "payable",
      "type": "function"
    },
    {
      "inputs": [
        {
          "internalType": "address",
          "name": "_account",
          "type": "address"
        },
        {
          "internalType": "address[]",
          "name": "_tokens",
          "type": "address[]"
        },
        {
          "internalType": "uint256[]",
          "name": "_USDTAmts",
          "type": "uint256[]"
        },
        {
          "internalType": "uint256",
          "name": "_minterNonce",
          "type": "uint256"
        }
      ],
      "name": "depositByAgent",
      "outputs": [],
      "stateMutability": "nonpayable",
      "type": "function"
    },
    {
      "inputs": [
        {
          "internalType": "uint256",
          "name": "_gatheredAmount",
          "type": "uint256"
        },
        {
          "internalType": "bytes",
          "name": "_signature",
          "type": "bytes"
        }
      ],
      "name": "exitWithdrawal",
      "outputs": [
        {
          "internalType": "uint256",
          "name": "_feeAmt",
          "type": "uint256"
        }
      ],
      "stateMutability": "payable",
      "type": "function"
    },
    {
      "inputs": [
        {
          "internalType": "address",
          "name": "_account",
          "type": "address"
        }
      ],
      "name": "exitWithdrawalByAdmin",
      "outputs": [],
      "stateMutability": "nonpayable",
      "type": "function"
    },
    {
      "inputs": [
        {
          "internalType": "uint256[]",
          "name": "_fromChainIds",
          "type": "uint256[]"
        },
        {
          "internalType": "enum BasicUserAgentBase.AdapterType[]",
          "name": "_adapterTypes",
          "type": "uint8[]"
        },
        {
          "internalType": "bytes",
          "name": "_signature",
          "type": "bytes"
        }
      ],
      "name": "gather",
      "outputs": [
        {
          "internalType": "uint256",
          "name": "_feeAmt",
          "type": "uint256"
        }
      ],
      "stateMutability": "payable",
      "type": "function"
    },
    {
      "inputs": [
        {
          "internalType": "address",
          "name": "_account",
          "type": "address"
        },
        {
          "internalType": "uint256",
          "name": "_toChainId",
          "type": "uint256"
        },
        {
          "internalType": "enum BasicUserAgentBase.AdapterType",
          "name": "_adapterType",
          "type": "uint8"
        }
      ],
      "name": "gatherByAdmin",
      "outputs": [],
      "stateMutability": "nonpayable",
      "type": "function"
    },
    {
      "inputs": [
        {
          "internalType": "bytes",
          "name": "message",
          "type": "bytes"
        }
      ],
      "name": "getMessageHashForSafe",
      "outputs": [
        {
          "internalType": "bytes32",
          "name": "",
          "type": "bytes32"
        }
      ],
      "stateMutability": "view",
      "type": "function"
    },
    {
      "inputs": [
        {
          "internalType": "bytes32",
          "name": "role",
          "type": "bytes32"
        }
      ],
      "name": "getRoleAdmin",
      "outputs": [
        {
          "internalType": "bytes32",
          "name": "",
          "type": "bytes32"
        }
      ],
      "stateMutability": "view",
      "type": "function"
    },
    {
      "inputs": [
        {
          "internalType": "bytes32",
          "name": "role",
          "type": "bytes32"
        },
        {
          "internalType": "uint256",
          "name": "index",
          "type": "uint256"
        }
      ],
      "name": "getRoleMember",
      "outputs": [
        {
          "internalType": "address",
          "name": "",
          "type": "address"
        }
      ],
      "stateMutability": "view",
      "type": "function"
    },
    {
      "inputs": [
        {
          "internalType": "bytes32",
          "name": "role",
          "type": "bytes32"
        }
      ],
      "name": "getRoleMemberCount",
      "outputs": [
        {
          "internalType": "uint256",
          "name": "",
          "type": "uint256"
        }
      ],
      "stateMutability": "view",
      "type": "function"
    },
    {
      "inputs": [
        {
          "internalType": "bytes32",
          "name": "role",
          "type": "bytes32"
        },
        {
          "internalType": "address",
          "name": "account",
          "type": "address"
        }
      ],
      "name": "grantRole",
      "outputs": [],
      "stateMutability": "nonpayable",
      "type": "function"
    },
    {
      "inputs": [
        {
          "internalType": "bytes32",
          "name": "role",
          "type": "bytes32"
        },
        {
          "internalType": "address",
          "name": "account",
          "type": "address"
        }
      ],
      "name": "hasRole",
      "outputs": [
        {
          "internalType": "bool",
          "name": "",
          "type": "bool"
        }
      ],
      "stateMutability": "view",
      "type": "function"
    },
    {
      "inputs": [
        {
          "internalType": "uint256",
          "name": "_pool",
          "type": "uint256"
        },
        {
          "internalType": "uint256",
          "name": "_USDT6Amt",
          "type": "uint256"
        },
        {
          "internalType": "bytes",
          "name": "_signature",
          "type": "bytes"
        }
      ],
      "name": "initDeposit",
      "outputs": [
        {
          "internalType": "uint256",
          "name": "_feeAmt",
          "type": "uint256"
        }
      ],
      "stateMutability": "payable",
      "type": "function"
    },
    {
      "inputs": [
        {
          "internalType": "address",
          "name": "_account",
          "type": "address"
        },
        {
          "internalType": "uint256",
          "name": "_pool",
          "type": "uint256"
        },
        {
          "internalType": "uint256",
          "name": "_USDT6Amt",
          "type": "uint256"
        }
      ],
      "name": "initDepositByAdmin",
      "outputs": [],
      "stateMutability": "nonpayable",
      "type": "function"
    },
    {
      "inputs": [
        {
          "internalType": "address",
          "name": "_admin",
          "type": "address"
        },
        {
          "internalType": "contract ISwap",
          "name": "_swap",
          "type": "address"
        },
        {
          "internalType": "contract IXChainAdapter",
          "name": "_multichainAdapter",
          "type": "address"
        },
        {
          "internalType": "contract IXChainAdapter",
          "name": "_cbridgeAdapter",
          "type": "address"
        }
      ],
      "name": "initialize",
      "outputs": [],
      "stateMutability": "nonpayable",
      "type": "function"
    },
    {
      "inputs": [
        {
          "internalType": "address",
          "name": "_subImpl",
          "type": "address"
        },
        {
          "internalType": "address",
          "name": "_admin",
          "type": "address"
        },
        {
          "internalType": "contract ISwap",
          "name": "_swap",
          "type": "address"
        },
        {
          "internalType": "contract IXChainAdapter",
          "name": "_multichainAdapter",
          "type": "address"
        },
        {
          "internalType": "contract IXChainAdapter",
          "name": "_cbridgeAdapter",
          "type": "address"
        },
        {
          "internalType": "contract IBNIMinter",
          "name": "_bniMinter",
          "type": "address"
        },
        {
          "internalType": "contract IBNIVault",
          "name": "_bniVault",
          "type": "address"
        }
      ],
      "name": "initialize1",
      "outputs": [],
      "stateMutability": "nonpayable",
      "type": "function"
    },
    {
      "inputs": [],
      "name": "isLPChain",
      "outputs": [
        {
          "internalType": "bool",
          "name": "",
          "type": "bool"
        }
      ],
      "stateMutability": "view",
      "type": "function"
    },
    {
      "inputs": [
        {
          "internalType": "address",
          "name": "forwarder",
          "type": "address"
        }
      ],
      "name": "isTrustedForwarder",
      "outputs": [
        {
          "internalType": "bool",
          "name": "",
          "type": "bool"
        }
      ],
      "stateMutability": "view",
      "type": "function"
    },
    {
      "inputs": [
        {
          "internalType": "address",
          "name": "_account",
          "type": "address"
        },
        {
          "internalType": "bytes",
          "name": "_data",
          "type": "bytes"
        },
        {
          "internalType": "bytes",
          "name": "_signature",
          "type": "bytes"
        }
      ],
      "name": "isValidSignature",
      "outputs": [
        {
          "internalType": "bool",
          "name": "",
          "type": "bool"
        }
      ],
      "stateMutability": "view",
      "type": "function"
    },
    {
      "inputs": [
        {
          "internalType": "uint256",
          "name": "_USDT6Amt",
          "type": "uint256"
        },
        {
          "internalType": "bytes",
          "name": "_signature",
          "type": "bytes"
        }
      ],
      "name": "mint",
      "outputs": [
        {
          "internalType": "uint256",
          "name": "_feeAmt",
          "type": "uint256"
        }
      ],
      "stateMutability": "payable",
      "type": "function"
    },
    {
      "inputs": [
        {
          "internalType": "address",
          "name": "_account",
          "type": "address"
        },
        {
          "internalType": "uint256",
          "name": "_USDT6Amt",
          "type": "uint256"
        }
      ],
      "name": "mintByAdmin",
      "outputs": [],
      "stateMutability": "nonpayable",
      "type": "function"
    },
    {
      "inputs": [],
      "name": "multichainAdapter",
      "outputs": [
        {
          "internalType": "contract IXChainAdapter",
          "name": "",
          "type": "address"
        }
      ],
      "stateMutability": "view",
      "type": "function"
    },
    {
      "inputs": [
        {
          "internalType": "address",
          "name": "",
          "type": "address"
        }
      ],
      "name": "nonces",
      "outputs": [
        {
          "internalType": "uint256",
          "name": "",
          "type": "uint256"
        }
      ],
      "stateMutability": "view",
      "type": "function"
    },
    {
      "inputs": [
        {
          "internalType": "uint256",
          "name": "_cbridgeNonce",
          "type": "uint256"
        },
        {
          "internalType": "address",
          "name": "_token",
          "type": "address"
        },
        {
          "internalType": "uint256",
          "name": "amount",
          "type": "uint256"
        },
        {
          "internalType": "uint256",
          "name": "",
          "type": "uint256"
        },
        {
          "internalType": "address",
          "name": "",
          "type": "address"
        }
      ],
      "name": "onRefunded",
      "outputs": [],
      "stateMutability": "nonpayable",
      "type": "function"
    },
    {
      "inputs": [],
      "name": "owner",
      "outputs": [
        {
          "internalType": "address",
          "name": "",
          "type": "address"
        }
      ],
      "stateMutability": "view",
      "type": "function"
    },
    {
      "inputs": [],
      "name": "pause",
      "outputs": [],
      "stateMutability": "nonpayable",
      "type": "function"
    },
    {
      "inputs": [],
      "name": "paused",
      "outputs": [
        {
          "internalType": "bool",
          "name": "",
          "type": "bool"
        }
      ],
      "stateMutability": "view",
      "type": "function"
    },
    {
      "inputs": [],
      "name": "renounceOwnership",
      "outputs": [],
      "stateMutability": "nonpayable",
      "type": "function"
    },
    {
      "inputs": [
        {
          "internalType": "bytes32",
          "name": "role",
          "type": "bytes32"
        },
        {
          "internalType": "address",
          "name": "account",
          "type": "address"
        }
      ],
      "name": "renounceRole",
      "outputs": [],
      "stateMutability": "nonpayable",
      "type": "function"
    },
    {
      "inputs": [
        {
          "internalType": "bytes32",
          "name": "role",
          "type": "bytes32"
        },
        {
          "internalType": "address",
          "name": "account",
          "type": "address"
        }
      ],
      "name": "revokeRole",
      "outputs": [],
      "stateMutability": "nonpayable",
      "type": "function"
    },
    {
      "inputs": [
        {
          "internalType": "address",
          "name": "_admin",
          "type": "address"
        }
      ],
      "name": "setAdmin",
      "outputs": [],
      "stateMutability": "nonpayable",
      "type": "function"
    },
    {
      "inputs": [
        {
          "internalType": "contract IBNIMinter",
          "name": "_bniMinter",
          "type": "address"
        }
      ],
      "name": "setBNIMinter",
      "outputs": [],
      "stateMutability": "nonpayable",
      "type": "function"
    },
    {
      "inputs": [
        {
          "internalType": "uint256[]",
          "name": "_chainIds",
          "type": "uint256[]"
        },
        {
          "internalType": "contract IBNIVault[]",
          "name": "_bniVaults",
          "type": "address[]"
        }
      ],
      "name": "setBNIVaults",
      "outputs": [],
      "stateMutability": "nonpayable",
      "type": "function"
    },
    {
      "inputs": [
        {
          "internalType": "address",
          "name": "_biconomy",
          "type": "address"
        }
      ],
      "name": "setBiconomy",
      "outputs": [],
      "stateMutability": "nonpayable",
      "type": "function"
    },
    {
      "inputs": [
        {
          "internalType": "contract IXChainAdapter",
          "name": "_cbridgeAdapter",
          "type": "address"
        }
      ],
      "name": "setCBridgeAdapter",
      "outputs": [],
      "stateMutability": "nonpayable",
      "type": "function"
    },
    {
      "inputs": [
        {
          "internalType": "uint256[]",
          "name": "_chainIds",
          "type": "uint256[]"
        },
        {
          "internalType": "enum BasicUserAgentBase.AdapterType[]",
          "name": "_adapterTypes",
          "type": "uint8[]"
        }
      ],
      "name": "setCallAdapterTypes",
      "outputs": [],
      "stateMutability": "nonpayable",
      "type": "function"
    },
    {
      "inputs": [
        {
          "internalType": "contract IXChainAdapter",
          "name": "_multichainAdapter",
          "type": "address"
        }
      ],
      "name": "setMultichainAdapter",
      "outputs": [],
      "stateMutability": "nonpayable",
      "type": "function"
    },
    {
      "inputs": [
        {
          "internalType": "address",
          "name": "_subImpl",
          "type": "address"
        }
      ],
      "name": "setSubImpl",
      "outputs": [],
      "stateMutability": "nonpayable",
      "type": "function"
    },
    {
      "inputs": [
        {
          "internalType": "uint256[]",
          "name": "_chainIds",
          "type": "uint256[]"
        },
        {
          "internalType": "address[]",
          "name": "_userAgents",
          "type": "address[]"
        }
      ],
      "name": "setUserAgents",
      "outputs": [],
      "stateMutability": "nonpayable",
      "type": "function"
    },
    {
      "inputs": [],
      "name": "subImpl",
      "outputs": [
        {
          "internalType": "address",
          "name": "",
          "type": "address"
        }
      ],
      "stateMutability": "view",
      "type": "function"
    },
    {
      "inputs": [
        {
          "internalType": "bytes4",
          "name": "interfaceId",
          "type": "bytes4"
        }
      ],
      "name": "supportsInterface",
      "outputs": [
        {
          "internalType": "bool",
          "name": "",
          "type": "bool"
        }
      ],
      "stateMutability": "view",
      "type": "function"
    },
    {
      "inputs": [
        {
          "internalType": "uint256",
          "name": "_gatheredAmount",
          "type": "uint256"
        },
        {
          "internalType": "bytes",
          "name": "_signature",
          "type": "bytes"
        }
      ],
      "name": "takeOut",
      "outputs": [],
      "stateMutability": "nonpayable",
      "type": "function"
    },
    {
      "inputs": [
        {
          "internalType": "uint256[]",
          "name": "_amounts",
          "type": "uint256[]"
        },
        {
          "internalType": "uint256[]",
          "name": "_toChainIds",
          "type": "uint256[]"
        },
        {
          "internalType": "enum BasicUserAgentBase.AdapterType[]",
          "name": "_adapterTypes",
          "type": "uint8[]"
        },
        {
          "internalType": "bytes",
          "name": "_signature",
          "type": "bytes"
        }
      ],
      "name": "transfer",
      "outputs": [
        {
          "internalType": "uint256",
          "name": "_feeAmt",
          "type": "uint256"
        }
      ],
      "stateMutability": "payable",
      "type": "function"
    },
    {
      "inputs": [
        {
          "internalType": "address",
          "name": "newOwner",
          "type": "address"
        }
      ],
      "name": "transferOwnership",
      "outputs": [],
      "stateMutability": "nonpayable",
      "type": "function"
    },
    {
      "inputs": [],
      "name": "trustedForwarder",
      "outputs": [
        {
          "internalType": "address",
          "name": "",
          "type": "address"
        }
      ],
      "stateMutability": "view",
      "type": "function"
    },
    {
      "inputs": [],
      "name": "unpause",
      "outputs": [],
      "stateMutability": "nonpayable",
      "type": "function"
    },
    {
      "inputs": [
        {
          "internalType": "address",
          "name": "",
          "type": "address"
        }
      ],
      "name": "usdcBalances",
      "outputs": [
        {
          "internalType": "uint256",
          "name": "",
          "type": "uint256"
        }
      ],
      "stateMutability": "view",
      "type": "function"
    },
    {
      "inputs": [
        {
          "internalType": "address",
          "name": "",
          "type": "address"
        }
      ],
      "name": "usdtBalances",
      "outputs": [
        {
          "internalType": "uint256",
          "name": "",
          "type": "uint256"
        }
      ],
      "stateMutability": "view",
      "type": "function"
    },
    {
      "inputs": [
        {
          "internalType": "uint256",
          "name": "",
          "type": "uint256"
        }
      ],
      "name": "userAgents",
      "outputs": [
        {
          "internalType": "address",
          "name": "",
          "type": "address"
        }
      ],
      "stateMutability": "view",
      "type": "function"
    },
    {
      "inputs": [],
      "name": "versionRecipient",
      "outputs": [
        {
          "internalType": "string",
          "name": "",
          "type": "string"
        }
      ],
      "stateMutability": "pure",
      "type": "function"
    },
    {
      "inputs": [
        {
          "internalType": "uint256[]",
          "name": "_chainIds",
          "type": "uint256[]"
        },
        {
          "internalType": "uint256",
          "name": "_sharePerc",
          "type": "uint256"
        },
        {
          "internalType": "uint256",
          "name": "_minterNonce",
          "type": "uint256"
        },
        {
          "internalType": "bytes",
          "name": "_signature",
          "type": "bytes"
        }
      ],
      "name": "withdraw",
      "outputs": [
        {
          "internalType": "uint256",
          "name": "_feeAmt",
          "type": "uint256"
        }
      ],
      "stateMutability": "payable",
      "type": "function"
    },
    {
      "inputs": [
        {
          "internalType": "address",
          "name": "_account",
          "type": "address"
        },
        {
          "internalType": "uint256",
          "name": "_sharePerc",
          "type": "uint256"
        },
        {
          "internalType": "uint256",
          "name": "_minterNonce",
          "type": "uint256"
        }
      ],
      "name": "withdrawPercByAgent",
      "outputs": [],
      "stateMutability": "nonpayable",
      "type": "function"
    },
    {
      "stateMutability": "payable",
      "type": "receive"
    }
  ],
  "transactionHash": "0xbddc211fe4ef06c1a6627c45d75b8429c4f36cad924a67266d6bc95751312fcf",
  "args": [],
  "numDeployments": 4,
  "solcInputHash": "f46c759a62ac9309f7dcc958137622d7",
  "bytecode": "0x608060405234801561001057600080fd5b50614d4d806100206000396000f3fe6080604052600436106103d25760003560e01c80638033a805116101fd578063b8a6752d11610118578063e629f7b3116100ab578063f77de4861161007a578063f77de48614610b7c578063f7bb364c14610b9c578063f851a44014610bb7578063f8c8765e14610bd8578063fc637c3c14610bf857600080fd5b8063e629f7b314610b0a578063e9e81a6a14610b0a578063f2ea161814610b25578063f2fde38b14610b5c57600080fd5b8063d1dbbc60116100e7578063d1dbbc6014610ab1578063d547741f14610ac4578063d843a40014610ae4578063db7fd408146108c657600080fd5b8063b8a6752d14610a3d578063c54e44eb14610a50578063c7205bce14610a71578063ca15c87314610a9157600080fd5b80639010d07c11610190578063a217fddf1161015f578063a217fddf146109ba578063a99c68c5146109cf578063af3da2f4146109fd578063afb7137414610a1d57600080fd5b80639010d07c1461094c578063918f1a5c1461096c57806391d148541461097a5780639e17747a1461099a57600080fd5b806386355d96116101cc57806386355d96146108d9578063897fd469146108ec57806389a302711461090c5780638da5cb5b1461092d57600080fd5b80638033a8051461087e57806380a5a3711461089e5780638456cb59146108b157806384762739146108c657600080fd5b806343a463c7116102ed5780635f2b373711610280578063704b6c021161024f578063704b6c02146107fb578063715018a61461081b5780637da0a877146108305780637ecebe001461085057600080fd5b80635f2b3737146107765780636687977f146107965780636e5677ce146107a95780636ebf33ce146107c457600080fd5b806357cdd7f9116102bc57806357cdd7f9146106ef578063582489cb14610710578063582712b11461073e5780635c975abb1461075e57600080fd5b806343a463c714610650578063472c38ff14610670578063486ff0cd14610690578063572b6c05146106c057600080fd5b806328054fb71161036557806336568abe1161033457806336568abe146105bd57806339dacedb146105dd5780633f4ba83a1461061b5780634107c4f61461063057600080fd5b806328054fb7146105265780632f2ff15d146105465780632ff33e1a1461056657806331e8df891461059d57600080fd5b80630d8b76a8116103a15780630d8b76a81461049d57806319463093146104bf5780631a5787d8146104df578063248a9ca3146104f657600080fd5b8063013dee70146103de57806301ffc9a71461041c57806302a882e61461044c5780630c3a18211461047c57600080fd5b366103d957005b600080fd5b3480156103ea57600080fd5b50610195546103ff906001600160a01b031681565b6040516001600160a01b0390911681526020015b60405180910390f35b34801561042857600080fd5b5061043c610437366004613dc4565b610c18565b6040519015158152602001610413565b34801561045857600080fd5b5061046e600080516020614cf883398151915281565b604051908152602001610413565b34801561048857600080fd5b50610166546103ff906001600160a01b031681565b3480156104a957600080fd5b506104bd6104b8366004613e03565b610c43565b005b3480156104cb57600080fd5b5061046e6104da366004613ed5565b610cb8565b3480156104eb57600080fd5b5061046e6101925481565b34801561050257600080fd5b5061046e610511366004613f09565b60009081526097602052604090206001015490565b34801561053257600080fd5b506104bd610541366004613f31565b610d04565b34801561055257600080fd5b506104bd610561366004613f6f565b610d12565b34801561057257600080fd5b506103ff610581366004613f09565b610194602052600090815260409020546001600160a01b031681565b3480156105a957600080fd5b506104bd6105b8366004613e03565b610d3c565b3480156105c957600080fd5b506104bd6105d8366004613f6f565b610dc0565b3480156105e957600080fd5b5061060e6105f8366004613f09565b61016a6020526000908152604090205460ff1681565b6040516104139190613fd7565b34801561062757600080fd5b506104bd610e4e565b34801561063c57600080fd5b506104bd61064b366004613fe5565b61119b565b34801561065c57600080fd5b506104bd61066b36600461407b565b61132e565b34801561067c57600080fd5b506104bd61068b3660046140b0565b6113b6565b34801561069c57600080fd5b5060408051808201825260018152603160f81b60208201529051610413919061415e565b3480156106cc57600080fd5b5061043c6106db366004613e03565b6000546001600160a01b0391821691161490565b3480156106fb57600080fd5b50610167546103ff906001600160a01b031681565b34801561071c57600080fd5b5061046e61072b366004613e03565b6101656020526000908152604090205481565b34801561074a57600080fd5b506104bd610759366004614258565b6114ad565b34801561076a57600080fd5b5060fb5460ff1661043c565b34801561078257600080fd5b506104bd610791366004614337565b6114bc565b61046e6107a43660046143e2565b6115b2565b3480156107b557600080fd5b506104bd61054136600461445f565b3480156107d057600080fd5b506103ff6107df366004613f09565b610169602052600090815260409020546001600160a01b031681565b34801561080757600080fd5b506104bd610816366004613e03565b6115c6565b34801561082757600080fd5b506104bd611633565b34801561083c57600080fd5b506000546103ff906001600160a01b031681565b34801561085c57600080fd5b5061046e61086b366004613e03565b6101606020526000908152604090205481565b34801561088a57600080fd5b506104bd610899366004613e03565b611687565b61046e6108ac3660046144aa565b61173c565b3480156108bd57600080fd5b506104bd61174f565b61046e6108d436600461445f565b611844565b61046e6108e73660046144fc565b611856565b3480156108f857600080fd5b506104bd6109073660046145b8565b61186b565b34801561091857600080fd5b50610162546103ff906001600160a01b031681565b34801561093957600080fd5b5061012d546001600160a01b03166103ff565b34801561095857600080fd5b506103ff610967366004614611565b61195e565b61046e6108ac366004614633565b34801561098657600080fd5b5061043c610995366004613f6f565b61197d565b3480156109a657600080fd5b506104bd6109b5366004613e03565b6119a8565b3480156109c657600080fd5b5061046e600081565b3480156109db57600080fd5b5061046e6109ea366004613e03565b6101646020526000908152604090205481565b348015610a0957600080fd5b506104bd610a183660046146b1565b611a2c565b348015610a2957600080fd5b506104bd610a383660046146dd565b611a34565b61046e610a4b3660046144aa565b611b00565b348015610a5c57600080fd5b50610163546103ff906001600160a01b031681565b348015610a7d57600080fd5b5061043c610a8c3660046147a0565b611cdc565b348015610a9d57600080fd5b5061046e610aac366004613f09565b611e5b565b61046e610abf3660046147e9565b611e72565b348015610ad057600080fd5b506104bd610adf366004613f6f565b611f2a565b348015610af057600080fd5b50610193546103ff9061010090046001600160a01b031681565b348015610b1657600080fd5b506104bd61054136600461407b565b348015610b3157600080fd5b506103ff610b40366004613f09565b610168602052600090815260409020546001600160a01b031681565b348015610b6857600080fd5b506104bd610b77366004613e03565b611f4f565b348015610b8857600080fd5b506104bd610b97366004613e03565b611fa5565b348015610ba857600080fd5b506101935461043c9060ff1681565b348015610bc357600080fd5b5061015f546103ff906001600160a01b031681565b348015610be457600080fd5b506104bd610bf336600461487e565b611fad565b348015610c0457600080fd5b506104bd610c13366004613e03565b6120d0565b60006001600160e01b03198216635a05180f60e01b1480610c3d5750610c3d82612143565b92915050565b610c4b612178565b6001600160a01b0316610c6761012d546001600160a01b031690565b6001600160a01b031614610c965760405162461bcd60e51b8152600401610c8d906148da565b60405180910390fd5b600080546001600160a01b0319166001600160a01b0392909216919091179055565b805160209182012060015460408051601960f81b81860152600160f81b602182015260228101929092526042808301939093528051808303909301835260629091019052805191012090565b610d0c612187565b50505050565b600082815260976020526040902060010154610d2d81612208565b610d378383612219565b505050565b610d44612178565b6001600160a01b0316610d6061012d546001600160a01b031690565b6001600160a01b031614610d865760405162461bcd60e51b8152600401610c8d906148da565b61016754610d9d906001600160a01b03168261223b565b61016780546001600160a01b0319166001600160a01b0392909216919091179055565b610dc8612178565b6001600160a01b0316816001600160a01b031614610e405760405162461bcd60e51b815260206004820152602f60248201527f416363657373436f6e74726f6c3a2063616e206f6e6c792072656e6f756e636560448201526e103937b632b9903337b91039b2b63360891b6064820152608401610c8d565b610e4a828261230d565b5050565b610e56612178565b6001600160a01b0316610e7261012d546001600160a01b031690565b6001600160a01b031614610e985760405162461bcd60e51b8152600401610c8d906148da565b60fb5460ff16610ee15760405162461bcd60e51b815260206004820152601460248201527314185d5cd8589b194e881b9bdd081c185d5cd95960621b6044820152606401610c8d565b610ee961232f565b6101635461016654604051636eb1769f60e11b81523060048201526001600160a01b03918216602482015291169063dd62ed3e9060440160206040518083038186803b158015610f3857600080fd5b505afa158015610f4c573d6000803e3d6000fd5b505050506040513d601f19601f82011682018060405250810190610f70919061490f565b610f95576101665461016354610f95916001600160a01b0391821691166000196123c8565b6101625461016654604051636eb1769f60e11b81523060048201526001600160a01b03918216602482015291169063dd62ed3e9060440160206040518083038186803b158015610fe457600080fd5b505afa158015610ff8573d6000803e3d6000fd5b505050506040513d601f19601f8201168201806040525081019061101c919061490f565b611041576101665461016254611041916001600160a01b0391821691166000196123c8565b6101635461016754604051636eb1769f60e11b81523060048201526001600160a01b03918216602482015291169063dd62ed3e9060440160206040518083038186803b15801561109057600080fd5b505afa1580156110a4573d6000803e3d6000fd5b505050506040513d601f19601f820116820180604052508101906110c8919061490f565b6110ed5761016754610163546110ed916001600160a01b0391821691166000196123c8565b6101625461016754604051636eb1769f60e11b81523060048201526001600160a01b03918216602482015291169063dd62ed3e9060440160206040518083038186803b15801561113c57600080fd5b505afa158015611150573d6000803e3d6000fd5b505050506040513d601f19601f82011682018060405250810190611174919061490f565b611199576101675461016254611199916001600160a01b0391821691166000196123c8565b565b60006111a7600161251f565b905080156111c3576000805460ff60a81b1916600160a81b1790555b6111cb6125bf565b6111e860006111e361012d546001600160a01b031690565b6125f8565b6111f0612602565b6111fa600161268a565b61016280546001600160a01b0319166001600160a01b0392909216919091179055611225600061268a565b61016380546001600160a01b03199081166001600160a01b039384161790915561015f805482168a8416179055610161805490911691881691909117905561126c856119a8565b61127584610d3c565b61019580546001600160a01b0319166001600160a01b038a1617905560004661a86a61019281905561019380546001600160a81b031916918314610100600160a81b031916919091176101006001600160a01b0388160217905590506112db81846128ea565b508015611324576000805460ff60a81b19169055604051600181527f7f26b83ff96e1f2b6a682f133852f6798a09c465da95921460cefb38474024989060200160405180910390a15b5050505050505050565b600080516020614cf883398151915261134681612208565b610193546040516343a463c760e01b81526001600160a01b0386811660048301526024820186905260448201859052610100909204909116906343a463c790606401600060405180830381600087803b1580156113a257600080fd5b505af1158015611324573d6000803e3d6000fd5b610167546001600160a01b031633146114005760405162461bcd60e51b815260206004820152600c60248201526b4f6e6c79206342726964676560a01b6044820152606401610c8d565b60008581526101686020526040902054610163546001600160a01b03918216918681169116141561145f576001600160a01b038116600090815261016560205260408120805486929061145490849061493e565b909155506114a59050565b610162546001600160a01b03868116911614156114a5576001600160a01b038116600090815261016460205260408120805486929061149f90849061493e565b90915550505b505050505050565b6114b5612187565b5050505050565b6114c4612178565b6001600160a01b03166114e061012d546001600160a01b031690565b6001600160a01b0316146115065760405162461bcd60e51b8152600401610c8d906148da565b815160005b81811015610d0c57600084828151811061152757611527614956565b6020026020010151905080600014156115525760405162461bcd60e51b8152600401610c8d9061496c565b83828151811061156457611564614956565b602090810291909101810151600083815261016a9092526040909120805460ff19166001838181111561159957611599613f9f565b02179055505080806115aa90614995565b91505061150b565b60006115bc612187565b5095945050505050565b6115ce612178565b6001600160a01b03166115ea61012d546001600160a01b031690565b6001600160a01b0316146116105760405162461bcd60e51b8152600401610c8d906148da565b61015f80546001600160a01b0319166001600160a01b0392909216919091179055565b61163b612178565b6001600160a01b031661165761012d546001600160a01b031690565b6001600160a01b03161461167d5760405162461bcd60e51b8152600401610c8d906148da565b61119960006129a8565b61168f612178565b6001600160a01b03166116ab61012d546001600160a01b031690565b6001600160a01b0316146116d15760405162461bcd60e51b8152600401610c8d906148da565b6001600160a01b0381166117195760405162461bcd60e51b815260206004820152600f60248201526e496e76616c6964206164647265737360881b6044820152606401610c8d565b61019580546001600160a01b0319166001600160a01b0392909216919091179055565b6000611746612187565b50949350505050565b611757612178565b6001600160a01b031661177361012d546001600160a01b031690565b6001600160a01b0316146117995760405162461bcd60e51b8152600401610c8d906148da565b60fb5460ff16156117bc5760405162461bcd60e51b8152600401610c8d906149b0565b6117c46129fb565b61016654610163546117e4916001600160a01b03918216911660006123c8565b6101665461016254611804916001600160a01b03918216911660006123c8565b6101675461016354611824916001600160a01b03918216911660006123c8565b6101675461016254611199916001600160a01b03918216911660006123c8565b600061184e612187565b509392505050565b6000611860612187565b509695505050505050565b611873612178565b6001600160a01b031661188f61012d546001600160a01b031690565b6001600160a01b0316146118b55760405162461bcd60e51b8152600401610c8d906148da565b815160005b81811015610d0c5760008482815181106118d6576118d6614956565b6020026020010151905080600014156119015760405162461bcd60e51b8152600401610c8d9061496c565b83828151811061191357611913614956565b6020908102919091018101516000928352610169909152604090912080546001600160a01b0319166001600160a01b039092169190911790558061195681614995565b9150506118ba565b600082815260c9602052604081206119769083612a54565b9392505050565b60009182526097602090815260408084206001600160a01b0393909316845291905290205460ff1690565b6119b0612178565b6001600160a01b03166119cc61012d546001600160a01b031690565b6001600160a01b0316146119f25760405162461bcd60e51b8152600401610c8d906148da565b61016654611a09906001600160a01b03168261223b565b61016680546001600160a01b0319166001600160a01b0392909216919091179055565b610d37612187565b611a3c612178565b6001600160a01b0316611a5861012d546001600160a01b031690565b6001600160a01b031614611a7e5760405162461bcd60e51b8152600401610c8d906148da565b815160005b81811015610d0c576000848281518110611a9f57611a9f614956565b602002602001015190508060001415611aca5760405162461bcd60e51b8152600401610c8d9061496c565b611aed81858481518110611ae057611ae0614956565b60200260200101516128ea565b5080611af881614995565b915050611a83565b6000611b0e60fb5460ff1690565b15611b2b5760405162461bcd60e51b8152600401610c8d906149b0565b6000611b35612178565b6001600160a01b038116600090815261016060209081526040918290205491516bffffffffffffffffffffffff19606085901b169181019190915260348101829052605481018990526074810188905291925090611bae906094015b604051602081830303815290604052805190602001208686612a60565b6101935460ff1615611c3357610193546040516343a463c760e01b81526001600160a01b038481166004830152602482018a905260448201899052610100909204909116906343a463c790606401600060405180830381600087803b158015611c1657600080fd5b505af1158015611c2a573d6000803e3d6000fd5b50505050611caa565b604080516001600160a01b038481166024830152604482018a905260648083018a90528351808403909101815260849092018352602080830180516001600160e01b03166343a463c760e01b179052610192546000818152610169909252938120549293611ca693909216908481612ad4565b9350505b611cb581600161493e565b6001600160a01b039092166000908152610160602052604090209190915550949350505050565b600080611ce885610cb8565b90506001600160a01b0386163b15611d4457611d3c86828787878080601f016020809104026020016040519081016040528093929190818152602001838380828437600092019190915250612c7c92505050565b915050611e53565b6000806000611d8887878080601f01602080910402602001604051908101604052809392919081815260200183838082843760009201829052509250612d18915050565b6040517f19457468657265756d205369676e6564204d6573736167653a0a3332000000006020820152603c81018890529295509093509150600090605c0160408051601f198184030181528282528051602091820120600080855291840180845281905260ff88169284019290925260608301869052608083018590529092509060019060a0016020604051602081039080840390855afa158015611e31573d6000803e3d6000fd5b5050604051601f1901516001600160a01b038d81169116149750505050505050505b949350505050565b600081815260c960205260408120610c3d90612d36565b6000611e8060fb5460ff1690565b15611e9d5760405162461bcd60e51b8152600401610c8d906149b0565b6000611ea7612178565b6001600160a01b038116600090815261016060209081526040918290205491519293509091611ee491611b9191859185918d918d918d9101614a0d565b611ef082898989612d40565b5060009350611f02905081600161493e565b6001600160a01b03909216600090815261016060205260409020919091555095945050505050565b600082815260976020526040902060010154611f4581612208565b610d37838361230d565b611f57612178565b6001600160a01b0316611f7361012d546001600160a01b031690565b6001600160a01b031614611f995760405162461bcd60e51b8152600401610c8d906148da565b611fa281613009565b50565b610e4a612187565b6000611fb9600161251f565b90508015611fd5576000805460ff60a81b1916600160a81b1790555b611fdd6125bf565b611ff560006111e361012d546001600160a01b031690565b611ffd612602565b6120076001613084565b61016280546001600160a01b0319166001600160a01b03929092169190911790556120326000613084565b61016380546001600160a01b03199081166001600160a01b039384161790915561015f805482168884161790556101618054909116918616919091179055612079836119a8565b61208282610d3c565b80156114b5576000805460ff60a81b19169055604051600181527f7f26b83ff96e1f2b6a682f133852f6798a09c465da95921460cefb38474024989060200160405180910390a15050505050565b6120d8612178565b6001600160a01b03166120f461012d546001600160a01b031690565b6001600160a01b03161461211a5760405162461bcd60e51b8152600401610c8d906148da565b61019380546001600160a01b0390921661010002610100600160a81b0319909216919091179055565b60006001600160e01b03198216637965db0b60e01b1480610c3d57506301ffc9a760e01b6001600160e01b0319831614610c3d565b60006121826132d4565b905090565b610195546040516060916000916001600160a01b03909116906121ad9083903690614a7d565b600060405180830381855af49150503d80600081146121e8576040519150601f19603f3d011682016040523d82523d6000602084013e6121ed565b606091505b505090506040513d6000823e818015612204573d82f35b3d82fd5b611fa281612214612178565b613308565b612223828261336c565b600082815260c960205260409020610d3790826133f3565b806001600160a01b0316826001600160a01b03161415612259575050565b6001600160a01b038216156122b257612280600080516020614cf88339815191528361230d565b61016354612299906001600160a01b03168360006123c8565b610162546122b2906001600160a01b03168360006123c8565b6001600160a01b03811615610e4a576122d9600080516020614cf8833981519152826125f8565b610162546122f3906001600160a01b0316826000196123c8565b61016354610e4a906001600160a01b0316826000196123c8565b6123178282613408565b600082815260c960205260409020610d37908261348d565b60fb5460ff166123785760405162461bcd60e51b815260206004820152601460248201527314185d5cd8589b194e881b9bdd081c185d5cd95960621b6044820152606401610c8d565b60fb805460ff191690557f5db9ee0a495bf2e6ff9c91a7834c1ba4fdd244a5e8aa4e537bd38aeae4b073aa6123ab612178565b6040516001600160a01b03909116815260200160405180910390a1565b8015806124515750604051636eb1769f60e11b81523060048201526001600160a01b03838116602483015284169063dd62ed3e9060440160206040518083038186803b15801561241757600080fd5b505afa15801561242b573d6000803e3d6000fd5b505050506040513d601f19601f8201168201806040525081019061244f919061490f565b155b6124bc5760405162461bcd60e51b815260206004820152603660248201527f5361666545524332303a20617070726f76652066726f6d206e6f6e2d7a65726f60448201527520746f206e6f6e2d7a65726f20616c6c6f77616e636560501b6064820152608401610c8d565b6040516001600160a01b038316602482015260448101829052610d3790849063095ea7b360e01b906064015b60408051601f198184030181529190526020810180516001600160e01b03166001600160e01b0319909316929092179091526134a2565b60008054600160a81b900460ff1615612568578160ff1660011480156125445750303b155b6125605760405162461bcd60e51b8152600401610c8d90614a8d565b506000919050565b60005460ff808416600160a01b90920416106125965760405162461bcd60e51b8152600401610c8d90614a8d565b506000805460ff909216600160a01b0260ff60a01b19909216919091179055600190565b919050565b600054600160a81b900460ff166125e85760405162461bcd60e51b8152600401610c8d90614adb565b6111996125f3612178565b6129a8565b610e4a8282612219565b600054600160a81b900460ff1661262b5760405162461bcd60e51b8152600401610c8d90614adb565b61268560007f47e79534a245952e8b16893a336b85a3d9ea9fa8c573f3d803afb92a794692184660408051602081019390935282015230606082015260800160405160208183030381529060405280519060200120905090565b600155565b600046634e45415381141561270a5760018360018111156126ad576126ad613f9f565b14156126cf575073cceca5c4a3355f8e7a0b7d2a7251eec012be7c5892915050565b60008360018111156126e3576126e3613f9f565b1415612705575073f9c249974c1acf96a59e5757cc9ba7035ce489b192915050565b6128e1565b61a86981141561278057600183600181111561272857612728613f9f565b141561274a5750737acdaba7ee51c1c3f7c6d605cc26b1c9aab0495a92915050565b600083600181111561275e5761275e613f9f565b141561270557507378ae2880bd1672b49a33cf796cf53fe6db0ab01d92915050565b60618114156127f557600183600181111561279d5761279d613f9f565b14156127bf575073da14d11d2c7d79f167b6057de3d9cc25c2c488d592915050565b60008360018111156127d3576127d3613f9f565b14156127055750731f326a8ca5399418a76ea0efa0403cbb00790c6792915050565b600481141561286a57600183600181111561281257612812613f9f565b1415612834575073df5324ebe6f6b852ff5cbf73627ee137e907527692915050565b600083600181111561284857612848613f9f565b141561270557507321e48034753e490ff04f2f75f7caedf081b320d592915050565b620138818114156128e157600183600181111561288957612889613f9f565b14156128ab5750736600bec324ccdd12c70297311aefb37fafb1d68992915050565b60008360018111156128bf576128bf613f9f565b14156128e15750737e4c234b1d634db790592d1550816b19e862f74492915050565b50600092915050565b60008281526101946020526040902080546001600160a01b038381166001600160a01b03198316179092551661291d4690565b831415610d37576001600160a01b03811615612965576101635461294c906001600160a01b03168260006123c8565b61016254612965906001600160a01b03168260006123c8565b6001600160a01b03821615610d37576101635461298e906001600160a01b0316836000196123c8565b61016254610d37906001600160a01b0316836000196123c8565b61012d80546001600160a01b038381166001600160a01b0319831681179093556040519116919082907f8be0079c531659141344cd1fd0a4f28419497f9722a3daafe3b4186f6b6457e090600090a35050565b60fb5460ff1615612a1e5760405162461bcd60e51b8152600401610c8d906149b0565b60fb805460ff191660011790557f62e78cea01bee320cd4e420270b5ea74000d11b0c9f74754ebdbfc544b05a2586123ab612178565b60006119768383613574565b61015f546040805160208101869052612a94926001600160a01b031691016040516020818303038152906040528484611cdc565b610d375760405162461bcd60e51b8152602060048201526011602482015270496e76616c6964207369676e617475726560781b6044820152606401610c8d565b60006001600160a01b038516612b255760405162461bcd60e51b8152602060048201526016602482015275125b9d985b1a59081d185c99d95d10dbdb9d1c9858dd60521b6044820152606401610c8d565b60006001600088815261016a602052604090205460ff166001811115612b4d57612b4d613f9f565b14612b6457610167546001600160a01b0316612b72565b610166546001600160a01b03165b60405163bebc4f7160e01b81529091506001600160a01b0382169063bebc4f7190612ba7908a908a908a908a90600401614b26565b60206040518083038186803b158015612bbf57600080fd5b505afa158015612bd3573d6000803e3d6000fd5b505050506040513d601f19601f82011682018060405250810190612bf7919061490f565b915082158015612c075750814710155b156115bc57604051630ef95ceb60e31b81526001600160a01b038216906377cae758908490612c40908b908b908b908b90600401614b26565b6000604051808303818588803b158015612c5957600080fd5b505af1158015612c6d573d6000803e3d6000fd5b50505050505095945050505050565b600080856001600160a01b031663e75235b86040518163ffffffff1660e01b815260040160206040518083038186803b158015612cb857600080fd5b505afa158015612ccc573d6000803e3d6000fd5b505050506040513d601f19601f82011682018060405250810190612cf0919061490f565b905080612d01576000915050611e53565b612d0e868686868561359e565b9695505050505050565b60419081029190910160208101516040820151919092015160ff1692565b6000610c3d825490565b8251606090600090806001600160401b03811115612d6057612d60613e20565b604051908082528060200260200182016040528015612d89578160200160208202803683370190505b50925046600080805b84811015612fa75760008a8281518110612dae57612dae614956565b6020026020010151905060008a8381518110612dcc57612dcc614956565b6020026020010151905085811415612e4757600086815261019460205260409020546001600160a01b0316612e365760405162461bcd60e51b815260206004820152601060248201526f125b9d985b1a5908189b9a55985d5b1d60821b6044820152606401610c8d565b612e40828661493e565b9450612f92565b828814612f7757818c8981518110612e6157612e61614956565b602002602001018181525050808b8981518110612e8057612e80614956565b602002602001018181525050898381518110612e9e57612e9e614956565b60200260200101518a8981518110612eb857612eb8614956565b60200260200101906001811115612ed157612ed1613f9f565b90816001811115612ee457612ee4613f9f565b905250600081815261016960205260409020546001600160a01b031680612f425760405162461bcd60e51b8152602060048201526012602482015271125b9d985b1a59081d5cd95c881859d95b9d60721b6044820152606401610c8d565b808a8a81518110612f5557612f55614956565b60200260200101906001600160a01b031690816001600160a01b031681525050505b87612f8181614995565b9850612f8f9050828561493e565b93505b50508080612f9f90614995565b915050612d92565b50612fcc8a30612fb7848661493e565b610163546001600160a01b03169291906137fa565b6001600160a01b038a166000908152610165602052604081208054849290612ff590849061493e565b925050819055505050505094509492505050565b613011612178565b6001600160a01b031661302d61012d546001600160a01b031690565b6001600160a01b0316146130535760405162461bcd60e51b8152600401610c8d906148da565b613070600061306b61012d546001600160a01b031690565b61230d565b61307981613832565b611fa26000826125f8565b600046634e4541528114156130ff5760018360018111156130a7576130a7613f9f565b14156130c9575073b12bfca5a55806aaf64e99521918a4bf0fc4080292915050565b60008360018111156130dd576130dd613f9f565b14156127055750734988a896b1227218e4a686fde5eabdcabd91571f92915050565b61a86a81141561317557600183600181111561311d5761311d613f9f565b141561313f575073a7d7079b0fead91f3e65f86e8915cb59c1a4c66492915050565b600083600181111561315357613153613f9f565b1415612705575073c7198437980c041c805a1edcba50c1ce5db9511892915050565b60388114156131ea57600183600181111561319257613192613f9f565b14156131b45750738ac76a51cc950d9822d68b83fe1ad97b32cd580d92915050565b60008360018111156131c8576131c8613f9f565b141561270557507355d398326f99059ff775485246999027b319795592915050565b600181141561325f57600183600181111561320757613207613f9f565b1415613229575073a0b86991c6218b36c1d19d4a2e9eb0ce3606eb4892915050565b600083600181111561323d5761323d613f9f565b1415612705575073dac17f958d2ee523a2206206994597c13d831ec792915050565b60898114156128e157600183600181111561327c5761327c613f9f565b141561329e5750732791bca1f2de4661ed88a30c99a7a9449aa8417492915050565b60008360018111156132b2576132b2613f9f565b14156128e1575073c2132d05d31c914a87c6611c10748aeb04b58e8f92915050565b6000601836108015906132f157506000546001600160a01b031633145b15613303575060131936013560601c90565b503390565b613312828261197d565b610e4a5761332a816001600160a01b031660146138ea565b6133358360206138ea565b604051602001613346929190614b53565b60408051601f198184030181529082905262461bcd60e51b8252610c8d9160040161415e565b613376828261197d565b610e4a5760008281526097602090815260408083206001600160a01b03851684529091529020805460ff191660011790556133af612178565b6001600160a01b0316816001600160a01b0316837f2f8788117e7eff1d82e926ec794901d17c78024a50270940304540a733656f0d60405160405180910390a45050565b6000611976836001600160a01b038416613a85565b613412828261197d565b15610e4a5760008281526097602090815260408083206001600160a01b03851684529091529020805460ff19169055613449612178565b6001600160a01b0316816001600160a01b0316837ff6391f5c32d9c69d2a47ea670b442974b53935d1edc7fd64eb21e047a839171b60405160405180910390a45050565b6000611976836001600160a01b038416613ad4565b60006134f7826040518060400160405280602081526020017f5361666545524332303a206c6f772d6c6576656c2063616c6c206661696c6564815250856001600160a01b0316613bc79092919063ffffffff16565b805190915015610d3757808060200190518101906135159190614bc8565b610d375760405162461bcd60e51b815260206004820152602a60248201527f5361666545524332303a204552433230206f7065726174696f6e20646964206e6044820152691bdd081cdd58d8d9595960b21b6064820152608401610c8d565b600082600001828154811061358b5761358b614956565b9060005260206000200154905092915050565b60006135ab826041614bea565b835110156135bb575060006137f1565b600080876001600160a01b031663a0e67e2b6040518163ffffffff1660e01b815260040160006040518083038186803b1580156135f757600080fd5b505afa15801561360b573d6000803e3d6000fd5b505050506040513d6000823e601f3d908101601f191682016040526136339190810190614c09565b905060008080805b878110156137e65760418181028a0160208101516040820151919092015160ff169550909350915083613716579194508491613678886041614bea565b82101561368e57600096505050505050506137f1565b885161369b83602061493e565b11156136b057600096505050505050506137f1565b6020828a018101518a51909182906136c990869061493e565b6136d3919061493e565b11156136e95760009750505050505050506137f1565b8983016020016136fa888d83613bd6565b61370f576000985050505050505050506137f1565b50506137b7565b6040517f19457468657265756d205369676e6564204d6573736167653a0a3332000000006020820152603c81018c9052600190605c0160408051601f198184030181528282528051602091820120600084529083018083525260ff871690820152606081018590526080810184905260a0016020604051602081039080840390855afa1580156137aa573d6000803e3d6000fd5b5050506020604051035195505b6137c18587613bf0565b6137d457600096505050505050506137f1565b806137de81614995565b91505061363b565b600196505050505050505b95945050505050565b6040516001600160a01b0380851660248301528316604482015260648101829052610d0c9085906323b872dd60e01b906084016124e8565b61383a612178565b6001600160a01b031661385661012d546001600160a01b031690565b6001600160a01b03161461387c5760405162461bcd60e51b8152600401610c8d906148da565b6001600160a01b0381166138e15760405162461bcd60e51b815260206004820152602660248201527f4f776e61626c653a206e6577206f776e657220697320746865207a65726f206160448201526564647265737360d01b6064820152608401610c8d565b611fa2816129a8565b606060006138f9836002614bea565b61390490600261493e565b6001600160401b0381111561391b5761391b613e20565b6040519080825280601f01601f191660200182016040528015613945576020820181803683370190505b509050600360fc1b8160008151811061396057613960614956565b60200101906001600160f81b031916908160001a905350600f60fb1b8160018151811061398f5761398f614956565b60200101906001600160f81b031916908160001a90535060006139b3846002614bea565b6139be90600161493e565b90505b6001811115613a36576f181899199a1a9b1b9c1cb0b131b232b360811b85600f16601081106139f2576139f2614956565b1a60f81b828281518110613a0857613a08614956565b60200101906001600160f81b031916908160001a90535060049490941c93613a2f81614c97565b90506139c1565b5083156119765760405162461bcd60e51b815260206004820181905260248201527f537472696e67733a20686578206c656e67746820696e73756666696369656e746044820152606401610c8d565b6000818152600183016020526040812054613acc57508154600181810184556000848152602080822090930184905584548482528286019093526040902091909155610c3d565b506000610c3d565b60008181526001830160205260408120548015613bbd576000613af8600183614cae565b8554909150600090613b0c90600190614cae565b9050818114613b71576000866000018281548110613b2c57613b2c614956565b9060005260206000200154905080876000018481548110613b4f57613b4f614956565b6000918252602080832090910192909255918252600188019052604090208390555b8554869080613b8257613b82614cc5565b600190038181906000526020600020016000905590558560010160008681526020019081526020016000206000905560019350505050610c3d565b6000915050610c3d565b6060611e538484600085613c5a565b600080613be284610cb8565b90506137f185828686612c7c565b8151600090815b81811015613c4f57836001600160a01b0316858281518110613c1b57613c1b614956565b60200260200101516001600160a01b03161415613c3d57600192505050610c3d565b80613c4781614995565b915050613bf7565b506000949350505050565b606082471015613cbb5760405162461bcd60e51b815260206004820152602660248201527f416464726573733a20696e73756666696369656e742062616c616e636520666f6044820152651c8818d85b1b60d21b6064820152608401610c8d565b6001600160a01b0385163b613d125760405162461bcd60e51b815260206004820152601d60248201527f416464726573733a2063616c6c20746f206e6f6e2d636f6e74726163740000006044820152606401610c8d565b600080866001600160a01b03168587604051613d2e9190614cdb565b60006040518083038185875af1925050503d8060008114613d6b576040519150601f19603f3d011682016040523d82523d6000602084013e613d70565b606091505b5091509150613d80828286613d8b565b979650505050505050565b60608315613d9a575081611976565b825115613daa5782518084602001fd5b8160405162461bcd60e51b8152600401610c8d919061415e565b600060208284031215613dd657600080fd5b81356001600160e01b03198116811461197657600080fd5b6001600160a01b0381168114611fa257600080fd5b600060208284031215613e1557600080fd5b813561197681613dee565b634e487b7160e01b600052604160045260246000fd5b604051601f8201601f191681016001600160401b0381118282101715613e5e57613e5e613e20565b604052919050565b600082601f830112613e7757600080fd5b81356001600160401b03811115613e9057613e90613e20565b613ea3601f8201601f1916602001613e36565b818152846020838601011115613eb857600080fd5b816020850160208301376000918101602001919091529392505050565b600060208284031215613ee757600080fd5b81356001600160401b03811115613efd57600080fd5b611e5384828501613e66565b600060208284031215613f1b57600080fd5b5035919050565b8035600281106125ba57600080fd5b600080600060608486031215613f4657600080fd5b8335613f5181613dee565b925060208401359150613f6660408501613f22565b90509250925092565b60008060408385031215613f8257600080fd5b823591506020830135613f9481613dee565b809150509250929050565b634e487b7160e01b600052602160045260246000fd5b60028110613fd357634e487b7160e01b600052602160045260246000fd5b9052565b60208101610c3d8284613fb5565b600080600080600080600060e0888a03121561400057600080fd5b873561400b81613dee565b9650602088013561401b81613dee565b9550604088013561402b81613dee565b9450606088013561403b81613dee565b9350608088013561404b81613dee565b925060a088013561405b81613dee565b915060c088013561406b81613dee565b8091505092959891949750929550565b60008060006060848603121561409057600080fd5b833561409b81613dee565b95602085013595506040909401359392505050565b600080600080600060a086880312156140c857600080fd5b8535945060208601356140da81613dee565b9350604086013592506060860135915060808601356140f881613dee565b809150509295509295909350565b60005b83811015614121578181015183820152602001614109565b83811115610d0c5750506000910152565b6000815180845261414a816020860160208601614106565b601f01601f19169290920160200192915050565b6020815260006119766020830184614132565b60006001600160401b0382111561418a5761418a613e20565b5060051b60200190565b600082601f8301126141a557600080fd5b813560206141ba6141b583614171565b613e36565b82815260059290921b840181019181810190868411156141d957600080fd5b8286015b848110156118605780356141f081613dee565b83529183019183016141dd565b600082601f83011261420e57600080fd5b8135602061421e6141b583614171565b82815260059290921b8401810191818101908684111561423d57600080fd5b8286015b848110156118605780358352918301918301614241565b6000806000806080858703121561426e57600080fd5b843561427981613dee565b935060208501356001600160401b038082111561429557600080fd5b6142a188838901614194565b945060408701359150808211156142b757600080fd5b506142c4878288016141fd565b949793965093946060013593505050565b600082601f8301126142e657600080fd5b813560206142f66141b583614171565b82815260059290921b8401810191818101908684111561431557600080fd5b8286015b848110156118605761432a81613f22565b8352918301918301614319565b6000806040838503121561434a57600080fd5b82356001600160401b038082111561436157600080fd5b61436d868387016141fd565b9350602085013591508082111561438357600080fd5b50614390858286016142d5565b9150509250929050565b60008083601f8401126143ac57600080fd5b5081356001600160401b038111156143c357600080fd5b6020830191508360208285010111156143db57600080fd5b9250929050565b6000806000806000608086880312156143fa57600080fd5b85356001600160401b038082111561441157600080fd5b61441d89838a016141fd565b96506020880135955060408801359450606088013591508082111561444157600080fd5b5061444e8882890161439a565b969995985093965092949392505050565b60008060006040848603121561447457600080fd5b8335925060208401356001600160401b0381111561449157600080fd5b61449d8682870161439a565b9497909650939450505050565b600080600080606085870312156144c057600080fd5b843593506020850135925060408501356001600160401b038111156144e457600080fd5b6144f08782880161439a565b95989497509550505050565b60008060008060008060a0878903121561451557600080fd5b86356001600160401b038082111561452c57600080fd5b6145388a838b016141fd565b9750602089013591508082111561454e57600080fd5b61455a8a838b01614194565b9650604089013591508082111561457057600080fd5b61457c8a838b016141fd565b955060608901359450608089013591508082111561459957600080fd5b506145a689828a0161439a565b979a9699509497509295939492505050565b600080604083850312156145cb57600080fd5b82356001600160401b03808211156145e257600080fd5b6145ee868387016141fd565b9350602085013591508082111561460457600080fd5b5061439085828601614194565b6000806040838503121561462457600080fd5b50508035926020909101359150565b6000806000806060858703121561464957600080fd5b84356001600160401b038082111561466057600080fd5b61466c888389016141fd565b9550602087013591508082111561468257600080fd5b61468e888389016142d5565b945060408701359150808211156146a457600080fd5b506144f08782880161439a565b600080604083850312156146c457600080fd5b82356146cf81613dee565b946020939093013593505050565b600080604083850312156146f057600080fd5b82356001600160401b038082111561470757600080fd5b614713868387016141fd565b935060209150818501358181111561472a57600080fd5b85019050601f8101861361473d57600080fd5b803561474b6141b582614171565b81815260059190911b8201830190838101908883111561476a57600080fd5b928401925b8284101561479157833561478281613dee565b8252928401929084019061476f565b80955050505050509250929050565b600080600080606085870312156147b657600080fd5b84356147c181613dee565b935060208501356001600160401b03808211156147dd57600080fd5b61468e88838901613e66565b60008060008060006080868803121561480157600080fd5b85356001600160401b038082111561481857600080fd5b61482489838a016141fd565b9650602088013591508082111561483a57600080fd5b61484689838a016141fd565b9550604088013591508082111561485c57600080fd5b61486889838a016142d5565b9450606088013591508082111561444157600080fd5b6000806000806080858703121561489457600080fd5b843561489f81613dee565b935060208501356148af81613dee565b925060408501356148bf81613dee565b915060608501356148cf81613dee565b939692955090935050565b6020808252818101527f4f776e61626c653a2063616c6c6572206973206e6f7420746865206f776e6572604082015260600190565b60006020828403121561492157600080fd5b5051919050565b634e487b7160e01b600052601160045260246000fd5b6000821982111561495157614951614928565b500190565b634e487b7160e01b600052603260045260246000fd5b6020808252600f908201526e125b9d985b1a590818da185a5b9251608a1b604082015260600190565b60006000198214156149a9576149a9614928565b5060010190565b60208082526010908201526f14185d5cd8589b194e881c185d5cd95960821b604082015260600190565b60008151602080840160005b83811015614a02578151875295820195908201906001016149e6565b509495945050505050565b6bffffffffffffffffffffffff198660601b1681528460148201526000614a40614a3a60348401876149da565b856149da565b8351602080860160005b83811015614a6d57614a5d858351613fb5565b9382019390820190600101614a4a565b50929a9950505050505050505050565b8183823760009101908152919050565b6020808252602e908201527f496e697469616c697a61626c653a20636f6e747261637420697320616c72656160408201526d191e481a5b9a5d1a585b1a5e995960921b606082015260800190565b6020808252602b908201527f496e697469616c697a61626c653a20636f6e7472616374206973206e6f74206960408201526a6e697469616c697a696e6760a81b606082015260800190565b84815260018060a01b0384166020820152826040820152608060608201526000612d0e6080830184614132565b7f416363657373436f6e74726f6c3a206163636f756e7420000000000000000000815260008351614b8b816017850160208801614106565b7001034b99036b4b9b9b4b733903937b6329607d1b6017918401918201528351614bbc816028840160208801614106565b01602801949350505050565b600060208284031215614bda57600080fd5b8151801515811461197657600080fd5b6000816000190483118215151615614c0457614c04614928565b500290565b60006020808385031215614c1c57600080fd5b82516001600160401b03811115614c3257600080fd5b8301601f81018513614c4357600080fd5b8051614c516141b582614171565b81815260059190911b82018301908381019087831115614c7057600080fd5b928401925b82841015613d80578351614c8881613dee565b82529284019290840190614c75565b600081614ca657614ca6614928565b506000190190565b600082821015614cc057614cc0614928565b500390565b634e487b7160e01b600052603160045260246000fd5b60008251614ced818460208701614106565b919091019291505056fedbeb657137b1822b3d5418bea6fd641226d964b4c3871ef23546db2622258871a264697066735822122078bdc62692351eb5938dc770c0667989bf9cf4bd9a2dfa9be39c315c58f6f29d64736f6c63430008090033",
  "devdoc": {
    "kind": "dev",
    "methods": {
      "burn(uint256,uint256,bytes)": {
        "details": "It calls burnByAdmin of BNIMinter.",
        "params": {
          "_pool": "total pool in USD",
          "_share": "amount of shares"
        }
      },
      "deposit(uint256[],address[],uint256[],uint256,bytes)": {
        "details": "It calls depositByAdmin of BNIVaults."
      },
      "exitWithdrawal(uint256,bytes)": {
        "details": "It calls exitWithdrawalByAdmin of BNIMinter.",
        "params": {
          "_gatheredAmount": "is the amount of token that is gathered."
        }
      },
      "gather(uint256[],uint8[],bytes)": {
        "details": "It gathers withdrawn tokens of the user from user agents."
      },
      "getMessageHashForSafe(bytes)": {
        "details": "Returns hash of a message that can be signed by owners.",
        "params": {
          "message": "Message that should be hashed"
        },
        "returns": {
          "_0": "Message hash."
        }
      },
      "getRoleAdmin(bytes32)": {
        "details": "Returns the admin role that controls `role`. See {grantRole} and {revokeRole}. To change a role's admin, use {_setRoleAdmin}."
      },
      "getRoleMember(bytes32,uint256)": {
        "details": "Returns one of the accounts that have `role`. `index` must be a value between 0 and {getRoleMemberCount}, non-inclusive. Role bearers are not sorted in any particular way, and their ordering may change at any point. WARNING: When using {getRoleMember} and {getRoleMemberCount}, make sure you perform all queries on the same block. See the following https://forum.openzeppelin.com/t/iterating-over-elements-on-enumerableset-in-openzeppelin-contracts/2296[forum post] for more information."
      },
      "getRoleMemberCount(bytes32)": {
        "details": "Returns the number of accounts that have `role`. Can be used together with {getRoleMember} to enumerate all bearers of a role."
      },
      "grantRole(bytes32,address)": {
        "details": "Grants `role` to `account`. If `account` had not been already granted `role`, emits a {RoleGranted} event. Requirements: - the caller must have ``role``'s admin role."
      },
      "hasRole(bytes32,address)": {
        "details": "Returns `true` if `account` has been granted `role`."
      },
      "initDeposit(uint256,uint256,bytes)": {
        "details": "It calls initDepositByAdmin of BNIMinter.",
        "params": {
          "_USDT6Amt": "USDT with 6 decimals to be deposited",
          "_pool": "total pool in USD"
        }
      },
      "mint(uint256,bytes)": {
        "details": "It calls mintByAdmin of BNIMinter."
      },
      "owner()": {
        "details": "Returns the address of the current owner."
      },
      "paused()": {
        "details": "Returns true if the contract is paused, and false otherwise."
      },
      "renounceOwnership()": {
        "details": "Leaves the contract without owner. It will not be possible to call `onlyOwner` functions anymore. Can only be called by the current owner. NOTE: Renouncing ownership will leave the contract without an owner, thereby removing any functionality that is only available to the owner."
      },
      "renounceRole(bytes32,address)": {
        "details": "Revokes `role` from the calling account. Roles are often managed via {grantRole} and {revokeRole}: this function's purpose is to provide a mechanism for accounts to lose their privileges if they are compromised (such as when a trusted device is misplaced). If the calling account had been revoked `role`, emits a {RoleRevoked} event. Requirements: - the caller must be `account`."
      },
      "revokeRole(bytes32,address)": {
        "details": "Revokes `role` from `account`. If `account` had been granted `role`, emits a {RoleRevoked} event. Requirements: - the caller must have ``role``'s admin role."
      },
      "setSubImpl(address)": {
        "details": "Delegate to sub contract"
      },
      "supportsInterface(bytes4)": {
        "details": "See {IERC165-supportsInterface}."
      },
      "takeOut(uint256,bytes)": {
        "details": "It takes out tokens from this agent.",
        "params": {
          "_gatheredAmount": "is the amount of token that is gathered."
        }
      },
      "transfer(uint256[],uint256[],uint8[],bytes)": {
        "details": "It transfers tokens to user agents"
      },
      "withdraw(uint256[],uint256,uint256,bytes)": {
        "details": "It calls withdrawPercByAdmin of BNIVaults."
      }
    },
    "version": 1
  },
  "userdoc": {
    "kind": "user",
    "methods": {
      "exitWithdrawal(uint256,bytes)": {
        "notice": "_gatheredAmount doesn't include the balance which is withdrawan in this agent."
      },
      "isTrustedForwarder(address)": {
        "notice": "return if the forwarder is trusted to forward relayed transactions to us. the forwarder is required to verify the sender's signature, and verify the call is not a replay."
      },
      "onRefunded(uint256,address,uint256,uint256,address)": {
        "notice": "Never revert in this function. If not, cbridgeAdapter.executeMessageWithTransferRefund will be failed."
      },
      "takeOut(uint256,bytes)": {
        "notice": "_gatheredAmount doesn't include the balance which is withdrawan in this agent."
      }
    },
    "version": 1
  },
  "storageLayout": {
    "storage": [
      {
        "astId": 66271,
        "contract": "contracts/xchain/agent/BNIUserAgentTest.sol:BNIUserAgentTest",
        "label": "trustedForwarder",
        "offset": 0,
        "slot": "0",
        "type": "t_address"
      },
      {
        "astId": 713,
        "contract": "contracts/xchain/agent/BNIUserAgentTest.sol:BNIUserAgentTest",
        "label": "_initialized",
        "offset": 20,
        "slot": "0",
        "type": "t_uint8"
      },
      {
        "astId": 716,
        "contract": "contracts/xchain/agent/BNIUserAgentTest.sol:BNIUserAgentTest",
        "label": "_initializing",
        "offset": 21,
        "slot": "0",
        "type": "t_bool"
      },
      {
        "astId": 66786,
        "contract": "contracts/xchain/agent/BNIUserAgentTest.sol:BNIUserAgentTest",
        "label": "separator",
        "offset": 0,
        "slot": "1",
        "type": "t_bytes32"
      },
      {
        "astId": 67203,
        "contract": "contracts/xchain/agent/BNIUserAgentTest.sol:BNIUserAgentTest",
        "label": "__gap",
        "offset": 0,
        "slot": "2",
        "type": "t_array(t_uint256)49_storage"
      },
      {
        "astId": 3292,
        "contract": "contracts/xchain/agent/BNIUserAgentTest.sol:BNIUserAgentTest",
        "label": "__gap",
        "offset": 0,
        "slot": "51",
        "type": "t_array(t_uint256)50_storage"
      },
      {
        "astId": 3946,
        "contract": "contracts/xchain/agent/BNIUserAgentTest.sol:BNIUserAgentTest",
        "label": "__gap",
        "offset": 0,
        "slot": "101",
        "type": "t_array(t_uint256)50_storage"
      },
      {
        "astId": 184,
        "contract": "contracts/xchain/agent/BNIUserAgentTest.sol:BNIUserAgentTest",
        "label": "_roles",
        "offset": 0,
        "slot": "151",
        "type": "t_mapping(t_bytes32,t_struct(RoleData)179_storage)"
      },
      {
        "astId": 483,
        "contract": "contracts/xchain/agent/BNIUserAgentTest.sol:BNIUserAgentTest",
        "label": "__gap",
        "offset": 0,
        "slot": "152",
        "type": "t_array(t_uint256)49_storage"
      },
      {
        "astId": 33,
        "contract": "contracts/xchain/agent/BNIUserAgentTest.sol:BNIUserAgentTest",
        "label": "_roleMembers",
        "offset": 0,
        "slot": "201",
        "type": "t_mapping(t_bytes32,t_struct(AddressSet)4359_storage)"
      },
      {
        "astId": 143,
        "contract": "contracts/xchain/agent/BNIUserAgentTest.sol:BNIUserAgentTest",
        "label": "__gap",
        "offset": 0,
        "slot": "202",
        "type": "t_array(t_uint256)49_storage"
      },
      {
        "astId": 869,
        "contract": "contracts/xchain/agent/BNIUserAgentTest.sol:BNIUserAgentTest",
        "label": "_paused",
        "offset": 0,
        "slot": "251",
        "type": "t_bool"
      },
      {
        "astId": 958,
        "contract": "contracts/xchain/agent/BNIUserAgentTest.sol:BNIUserAgentTest",
        "label": "__gap",
        "offset": 0,
        "slot": "252",
        "type": "t_array(t_uint256)49_storage"
      },
      {
        "astId": 593,
        "contract": "contracts/xchain/agent/BNIUserAgentTest.sol:BNIUserAgentTest",
        "label": "_owner",
        "offset": 0,
        "slot": "301",
        "type": "t_address"
      },
      {
        "astId": 705,
        "contract": "contracts/xchain/agent/BNIUserAgentTest.sol:BNIUserAgentTest",
        "label": "__gap",
        "offset": 0,
        "slot": "302",
        "type": "t_array(t_uint256)49_storage"
      },
      {
        "astId": 59554,
        "contract": "contracts/xchain/agent/BNIUserAgentTest.sol:BNIUserAgentTest",
        "label": "admin",
        "offset": 0,
        "slot": "351",
        "type": "t_address"
      },
      {
        "astId": 59558,
        "contract": "contracts/xchain/agent/BNIUserAgentTest.sol:BNIUserAgentTest",
        "label": "nonces",
        "offset": 0,
        "slot": "352",
        "type": "t_mapping(t_address,t_uint256)"
      },
      {
        "astId": 59561,
        "contract": "contracts/xchain/agent/BNIUserAgentTest.sol:BNIUserAgentTest",
        "label": "swap",
        "offset": 0,
        "slot": "353",
        "type": "t_contract(ISwap)55907"
      },
      {
        "astId": 59564,
        "contract": "contracts/xchain/agent/BNIUserAgentTest.sol:BNIUserAgentTest",
        "label": "USDC",
        "offset": 0,
        "slot": "354",
        "type": "t_contract(IERC20Upgradeable)1707"
      },
      {
        "astId": 59567,
        "contract": "contracts/xchain/agent/BNIUserAgentTest.sol:BNIUserAgentTest",
        "label": "USDT",
        "offset": 0,
        "slot": "355",
        "type": "t_contract(IERC20Upgradeable)1707"
      },
      {
        "astId": 59571,
        "contract": "contracts/xchain/agent/BNIUserAgentTest.sol:BNIUserAgentTest",
        "label": "usdcBalances",
        "offset": 0,
        "slot": "356",
        "type": "t_mapping(t_address,t_uint256)"
      },
      {
        "astId": 59575,
        "contract": "contracts/xchain/agent/BNIUserAgentTest.sol:BNIUserAgentTest",
        "label": "usdtBalances",
        "offset": 0,
        "slot": "357",
        "type": "t_mapping(t_address,t_uint256)"
      },
      {
        "astId": 59578,
        "contract": "contracts/xchain/agent/BNIUserAgentTest.sol:BNIUserAgentTest",
        "label": "multichainAdapter",
        "offset": 0,
        "slot": "358",
        "type": "t_contract(IXChainAdapter)56214"
      },
      {
        "astId": 59581,
        "contract": "contracts/xchain/agent/BNIUserAgentTest.sol:BNIUserAgentTest",
        "label": "cbridgeAdapter",
        "offset": 0,
        "slot": "359",
        "type": "t_contract(IXChainAdapter)56214"
      },
      {
        "astId": 59585,
        "contract": "contracts/xchain/agent/BNIUserAgentTest.sol:BNIUserAgentTest",
        "label": "cbridgeSenders",
        "offset": 0,
        "slot": "360",
        "type": "t_mapping(t_uint256,t_address)"
      },
      {
        "astId": 59589,
        "contract": "contracts/xchain/agent/BNIUserAgentTest.sol:BNIUserAgentTest",
        "label": "userAgents",
        "offset": 0,
        "slot": "361",
        "type": "t_mapping(t_uint256,t_address)"
      },
      {
        "astId": 59594,
        "contract": "contracts/xchain/agent/BNIUserAgentTest.sol:BNIUserAgentTest",
        "label": "callAdapterTypes",
        "offset": 0,
        "slot": "362",
        "type": "t_mapping(t_uint256,t_enum(AdapterType)59547)"
      },
      {
        "astId": 60239,
        "contract": "contracts/xchain/agent/BNIUserAgentTest.sol:BNIUserAgentTest",
        "label": "__gap",
        "offset": 0,
        "slot": "363",
        "type": "t_array(t_uint256)39_storage"
      },
      {
        "astId": 57159,
        "contract": "contracts/xchain/agent/BNIUserAgentTest.sol:BNIUserAgentTest",
        "label": "chainIdOnLP",
        "offset": 0,
        "slot": "402",
        "type": "t_uint256"
      },
      {
        "astId": 57161,
        "contract": "contracts/xchain/agent/BNIUserAgentTest.sol:BNIUserAgentTest",
        "label": "isLPChain",
        "offset": 0,
        "slot": "403",
        "type": "t_bool"
      },
      {
        "astId": 57164,
        "contract": "contracts/xchain/agent/BNIUserAgentTest.sol:BNIUserAgentTest",
        "label": "bniMinter",
        "offset": 1,
        "slot": "403",
        "type": "t_contract(IBNIMinter)10340"
      },
      {
        "astId": 57169,
        "contract": "contracts/xchain/agent/BNIUserAgentTest.sol:BNIUserAgentTest",
        "label": "bniVaults",
        "offset": 0,
        "slot": "404",
        "type": "t_mapping(t_uint256,t_contract(IBNIVault)10387)"
      },
      {
        "astId": 57171,
        "contract": "contracts/xchain/agent/BNIUserAgentTest.sol:BNIUserAgentTest",
        "label": "subImpl",
        "offset": 0,
        "slot": "405",
        "type": "t_address"
      }
    ],
    "types": {
      "t_address": {
        "encoding": "inplace",
        "label": "address",
        "numberOfBytes": "20"
      },
      "t_array(t_bytes32)dyn_storage": {
        "base": "t_bytes32",
        "encoding": "dynamic_array",
        "label": "bytes32[]",
        "numberOfBytes": "32"
      },
      "t_array(t_uint256)39_storage": {
        "base": "t_uint256",
        "encoding": "inplace",
        "label": "uint256[39]",
        "numberOfBytes": "1248"
      },
      "t_array(t_uint256)49_storage": {
        "base": "t_uint256",
        "encoding": "inplace",
        "label": "uint256[49]",
        "numberOfBytes": "1568"
      },
      "t_array(t_uint256)50_storage": {
        "base": "t_uint256",
        "encoding": "inplace",
        "label": "uint256[50]",
        "numberOfBytes": "1600"
      },
      "t_bool": {
        "encoding": "inplace",
        "label": "bool",
        "numberOfBytes": "1"
      },
      "t_bytes32": {
        "encoding": "inplace",
        "label": "bytes32",
        "numberOfBytes": "32"
      },
      "t_contract(IBNIMinter)10340": {
        "encoding": "inplace",
        "label": "contract IBNIMinter",
        "numberOfBytes": "20"
      },
      "t_contract(IBNIVault)10387": {
        "encoding": "inplace",
        "label": "contract IBNIVault",
        "numberOfBytes": "20"
      },
      "t_contract(IERC20Upgradeable)1707": {
        "encoding": "inplace",
        "label": "contract IERC20Upgradeable",
        "numberOfBytes": "20"
      },
      "t_contract(ISwap)55907": {
        "encoding": "inplace",
        "label": "contract ISwap",
        "numberOfBytes": "20"
      },
      "t_contract(IXChainAdapter)56214": {
        "encoding": "inplace",
        "label": "contract IXChainAdapter",
        "numberOfBytes": "20"
      },
      "t_enum(AdapterType)59547": {
        "encoding": "inplace",
        "label": "enum BasicUserAgentBase.AdapterType",
        "numberOfBytes": "1"
      },
      "t_mapping(t_address,t_bool)": {
        "encoding": "mapping",
        "key": "t_address",
        "label": "mapping(address => bool)",
        "numberOfBytes": "32",
        "value": "t_bool"
      },
      "t_mapping(t_address,t_uint256)": {
        "encoding": "mapping",
        "key": "t_address",
        "label": "mapping(address => uint256)",
        "numberOfBytes": "32",
        "value": "t_uint256"
      },
      "t_mapping(t_bytes32,t_struct(AddressSet)4359_storage)": {
        "encoding": "mapping",
        "key": "t_bytes32",
        "label": "mapping(bytes32 => struct EnumerableSetUpgradeable.AddressSet)",
        "numberOfBytes": "32",
        "value": "t_struct(AddressSet)4359_storage"
      },
      "t_mapping(t_bytes32,t_struct(RoleData)179_storage)": {
        "encoding": "mapping",
        "key": "t_bytes32",
        "label": "mapping(bytes32 => struct AccessControlUpgradeable.RoleData)",
        "numberOfBytes": "32",
        "value": "t_struct(RoleData)179_storage"
      },
      "t_mapping(t_bytes32,t_uint256)": {
        "encoding": "mapping",
        "key": "t_bytes32",
        "label": "mapping(bytes32 => uint256)",
        "numberOfBytes": "32",
        "value": "t_uint256"
      },
      "t_mapping(t_uint256,t_address)": {
        "encoding": "mapping",
        "key": "t_uint256",
        "label": "mapping(uint256 => address)",
        "numberOfBytes": "32",
        "value": "t_address"
      },
      "t_mapping(t_uint256,t_contract(IBNIVault)10387)": {
        "encoding": "mapping",
        "key": "t_uint256",
        "label": "mapping(uint256 => contract IBNIVault)",
        "numberOfBytes": "32",
        "value": "t_contract(IBNIVault)10387"
      },
      "t_mapping(t_uint256,t_enum(AdapterType)59547)": {
        "encoding": "mapping",
        "key": "t_uint256",
        "label": "mapping(uint256 => enum BasicUserAgentBase.AdapterType)",
        "numberOfBytes": "32",
        "value": "t_enum(AdapterType)59547"
      },
      "t_struct(AddressSet)4359_storage": {
        "encoding": "inplace",
        "label": "struct EnumerableSetUpgradeable.AddressSet",
        "members": [
          {
            "astId": 4358,
            "contract": "contracts/xchain/agent/BNIUserAgentTest.sol:BNIUserAgentTest",
            "label": "_inner",
            "offset": 0,
            "slot": "0",
            "type": "t_struct(Set)4058_storage"
          }
        ],
        "numberOfBytes": "64"
      },
      "t_struct(RoleData)179_storage": {
        "encoding": "inplace",
        "label": "struct AccessControlUpgradeable.RoleData",
        "members": [
          {
            "astId": 176,
            "contract": "contracts/xchain/agent/BNIUserAgentTest.sol:BNIUserAgentTest",
            "label": "members",
            "offset": 0,
            "slot": "0",
            "type": "t_mapping(t_address,t_bool)"
          },
          {
            "astId": 178,
            "contract": "contracts/xchain/agent/BNIUserAgentTest.sol:BNIUserAgentTest",
            "label": "adminRole",
            "offset": 0,
            "slot": "1",
            "type": "t_bytes32"
          }
        ],
        "numberOfBytes": "64"
      },
      "t_struct(Set)4058_storage": {
        "encoding": "inplace",
        "label": "struct EnumerableSetUpgradeable.Set",
        "members": [
          {
            "astId": 4053,
            "contract": "contracts/xchain/agent/BNIUserAgentTest.sol:BNIUserAgentTest",
            "label": "_values",
            "offset": 0,
            "slot": "0",
            "type": "t_array(t_bytes32)dyn_storage"
          },
          {
            "astId": 4057,
            "contract": "contracts/xchain/agent/BNIUserAgentTest.sol:BNIUserAgentTest",
            "label": "_indexes",
            "offset": 0,
            "slot": "1",
            "type": "t_mapping(t_bytes32,t_uint256)"
          }
        ],
        "numberOfBytes": "64"
      },
      "t_uint256": {
        "encoding": "inplace",
        "label": "uint256",
        "numberOfBytes": "32"
      },
      "t_uint8": {
        "encoding": "inplace",
        "label": "uint8",
        "numberOfBytes": "1"
      }
    }
  }
}