{
  "address": "0xDFF0F1F6CBE25BFbf43d0646cA4D0a8699D63De2",
  "abi": [
    {
      "anonymous": false,
      "inputs": [
        {
          "indexed": false,
          "internalType": "uint8",
          "name": "version",
          "type": "uint8"
        }
      ],
      "name": "Initialized",
      "type": "event"
    },
    {
      "anonymous": false,
      "inputs": [
        {
          "indexed": true,
          "internalType": "address",
          "name": "previousOwner",
          "type": "address"
        },
        {
          "indexed": true,
          "internalType": "address",
          "name": "newOwner",
          "type": "address"
        }
      ],
      "name": "OwnershipTransferred",
      "type": "event"
    },
    {
      "anonymous": false,
      "inputs": [
        {
          "indexed": true,
          "internalType": "bytes32",
          "name": "role",
          "type": "bytes32"
        },
        {
          "indexed": true,
          "internalType": "bytes32",
          "name": "previousAdminRole",
          "type": "bytes32"
        },
        {
          "indexed": true,
          "internalType": "bytes32",
          "name": "newAdminRole",
          "type": "bytes32"
        }
      ],
      "name": "RoleAdminChanged",
      "type": "event"
    },
    {
      "anonymous": false,
      "inputs": [
        {
          "indexed": true,
          "internalType": "bytes32",
          "name": "role",
          "type": "bytes32"
        },
        {
          "indexed": true,
          "internalType": "address",
          "name": "account",
          "type": "address"
        },
        {
          "indexed": true,
          "internalType": "address",
          "name": "sender",
          "type": "address"
        }
      ],
      "name": "RoleGranted",
      "type": "event"
    },
    {
      "anonymous": false,
      "inputs": [
        {
          "indexed": true,
          "internalType": "bytes32",
          "name": "role",
          "type": "bytes32"
        },
        {
          "indexed": true,
          "internalType": "address",
          "name": "account",
          "type": "address"
        },
        {
          "indexed": true,
          "internalType": "address",
          "name": "sender",
          "type": "address"
        }
      ],
      "name": "RoleRevoked",
      "type": "event"
    },
    {
      "anonymous": false,
      "inputs": [
        {
          "indexed": false,
          "internalType": "address",
          "name": "from",
          "type": "address"
        },
        {
          "indexed": true,
          "internalType": "address",
          "name": "token",
          "type": "address"
        },
        {
          "indexed": true,
          "internalType": "uint256",
          "name": "amount",
          "type": "uint256"
        },
        {
          "indexed": true,
          "internalType": "uint256",
          "name": "toChainId",
          "type": "uint256"
        },
        {
          "indexed": false,
          "internalType": "address",
          "name": "to",
          "type": "address"
        }
      ],
      "name": "Transfer",
      "type": "event"
    },
    {
      "inputs": [],
      "name": "CLIENT_ROLE",
      "outputs": [
        {
          "internalType": "bytes32",
          "name": "",
          "type": "bytes32"
        }
      ],
      "stateMutability": "view",
      "type": "function"
    },
    {
      "inputs": [],
      "name": "DEFAULT_ADMIN_ROLE",
      "outputs": [
        {
          "internalType": "bytes32",
          "name": "",
          "type": "bytes32"
        }
      ],
      "stateMutability": "view",
      "type": "function"
    },
    {
      "inputs": [
        {
          "internalType": "bytes",
          "name": "data",
          "type": "bytes"
        }
      ],
      "name": "anyExecute",
      "outputs": [
        {
          "internalType": "bool",
          "name": "success",
          "type": "bool"
        },
        {
          "internalType": "bytes",
          "name": "result",
          "type": "bytes"
        }
      ],
      "stateMutability": "nonpayable",
      "type": "function"
    },
    {
      "inputs": [],
      "name": "anycallExecutor",
      "outputs": [
        {
          "internalType": "contract IAnycallExecutor",
          "name": "",
          "type": "address"
        }
      ],
      "stateMutability": "view",
      "type": "function"
    },
    {
      "inputs": [
        {
          "internalType": "address",
          "name": "",
          "type": "address"
        },
        {
          "internalType": "uint256",
          "name": "",
          "type": "uint256"
        }
      ],
      "name": "anyswapMap",
      "outputs": [
        {
          "internalType": "address",
          "name": "router",
          "type": "address"
        },
        {
          "internalType": "address",
          "name": "underlying",
          "type": "address"
        },
        {
          "internalType": "address",
          "name": "anyToken",
          "type": "address"
        },
        {
          "internalType": "uint8",
          "name": "underlyingDecimals",
          "type": "uint8"
        },
        {
          "internalType": "uint8",
          "name": "anyTokenDecimals",
          "type": "uint8"
        },
        {
          "internalType": "uint256",
          "name": "minimumSwap",
          "type": "uint256"
        }
      ],
      "stateMutability": "view",
      "type": "function"
    },
    {
      "inputs": [
        {
          "internalType": "uint256",
          "name": "",
          "type": "uint256"
        },
        {
          "internalType": "address",
          "name": "",
          "type": "address"
        },
        {
          "internalType": "uint256",
          "name": "",
          "type": "uint256"
        },
        {
          "internalType": "bytes",
          "name": "",
          "type": "bytes"
        }
      ],
      "name": "calcCallFee",
      "outputs": [
        {
          "internalType": "uint256",
          "name": "",
          "type": "uint256"
        }
      ],
      "stateMutability": "view",
      "type": "function"
    },
    {
      "inputs": [],
      "name": "calcTransferFee",
      "outputs": [
        {
          "internalType": "uint256",
          "name": "",
          "type": "uint256"
        }
      ],
      "stateMutability": "view",
      "type": "function"
    },
    {
      "inputs": [
        {
          "internalType": "uint256",
          "name": "",
          "type": "uint256"
        },
        {
          "internalType": "address",
          "name": "",
          "type": "address"
        },
        {
          "internalType": "uint256",
          "name": "",
          "type": "uint256"
        },
        {
          "internalType": "bytes",
          "name": "",
          "type": "bytes"
        }
      ],
      "name": "call",
      "outputs": [],
      "stateMutability": "payable",
      "type": "function"
    },
    {
      "inputs": [
        {
          "internalType": "bytes32",
          "name": "role",
          "type": "bytes32"
        }
      ],
      "name": "getRoleAdmin",
      "outputs": [
        {
          "internalType": "bytes32",
          "name": "",
          "type": "bytes32"
        }
      ],
      "stateMutability": "view",
      "type": "function"
    },
    {
      "inputs": [
        {
          "internalType": "bytes32",
          "name": "role",
          "type": "bytes32"
        },
        {
          "internalType": "uint256",
          "name": "index",
          "type": "uint256"
        }
      ],
      "name": "getRoleMember",
      "outputs": [
        {
          "internalType": "address",
          "name": "",
          "type": "address"
        }
      ],
      "stateMutability": "view",
      "type": "function"
    },
    {
      "inputs": [
        {
          "internalType": "bytes32",
          "name": "role",
          "type": "bytes32"
        }
      ],
      "name": "getRoleMemberCount",
      "outputs": [
        {
          "internalType": "uint256",
          "name": "",
          "type": "uint256"
        }
      ],
      "stateMutability": "view",
      "type": "function"
    },
    {
      "inputs": [
        {
          "internalType": "bytes32",
          "name": "role",
          "type": "bytes32"
        },
        {
          "internalType": "address",
          "name": "account",
          "type": "address"
        }
      ],
      "name": "grantRole",
      "outputs": [],
      "stateMutability": "nonpayable",
      "type": "function"
    },
    {
      "inputs": [
        {
          "internalType": "bytes32",
          "name": "role",
          "type": "bytes32"
        },
        {
          "internalType": "address",
          "name": "account",
          "type": "address"
        }
      ],
      "name": "hasRole",
      "outputs": [
        {
          "internalType": "bool",
          "name": "",
          "type": "bool"
        }
      ],
      "stateMutability": "view",
      "type": "function"
    },
    {
      "inputs": [],
      "name": "initialize",
      "outputs": [],
      "stateMutability": "nonpayable",
      "type": "function"
    },
    {
      "inputs": [],
      "name": "owner",
      "outputs": [
        {
          "internalType": "address",
          "name": "",
          "type": "address"
        }
      ],
      "stateMutability": "view",
      "type": "function"
    },
    {
      "inputs": [
        {
          "internalType": "uint256",
          "name": "",
          "type": "uint256"
        }
      ],
      "name": "peers",
      "outputs": [
        {
          "internalType": "address",
          "name": "",
          "type": "address"
        }
      ],
      "stateMutability": "view",
      "type": "function"
    },
    {
      "inputs": [],
      "name": "renounceOwnership",
      "outputs": [],
      "stateMutability": "nonpayable",
      "type": "function"
    },
    {
      "inputs": [
        {
          "internalType": "bytes32",
          "name": "role",
          "type": "bytes32"
        },
        {
          "internalType": "address",
          "name": "account",
          "type": "address"
        }
      ],
      "name": "renounceRole",
      "outputs": [],
      "stateMutability": "nonpayable",
      "type": "function"
    },
    {
      "inputs": [
        {
          "internalType": "bytes32",
          "name": "role",
          "type": "bytes32"
        },
        {
          "internalType": "address",
          "name": "account",
          "type": "address"
        }
      ],
      "name": "revokeRole",
      "outputs": [],
      "stateMutability": "nonpayable",
      "type": "function"
    },
    {
      "inputs": [
        {
          "internalType": "address",
          "name": "_token",
          "type": "address"
        },
        {
          "internalType": "uint256",
          "name": "_chainId",
          "type": "uint256"
        },
        {
          "internalType": "address",
          "name": "_router",
          "type": "address"
        },
        {
          "internalType": "address",
          "name": "_unterlying",
          "type": "address"
        },
        {
          "internalType": "address",
          "name": "_anyToken",
          "type": "address"
        },
        {
          "internalType": "uint8",
          "name": "_underlyingDecimals",
          "type": "uint8"
        },
        {
          "internalType": "uint8",
          "name": "_anyTokenDecimals",
          "type": "uint8"
        },
        {
          "internalType": "uint256",
          "name": "_minimumSwap",
          "type": "uint256"
        }
      ],
      "name": "setAnyswapEntry",
      "outputs": [],
      "stateMutability": "nonpayable",
      "type": "function"
    },
    {
      "inputs": [
        {
          "internalType": "uint256[]",
          "name": "_chainIds",
          "type": "uint256[]"
        },
        {
          "internalType": "address[]",
          "name": "_peers",
          "type": "address[]"
        }
      ],
      "name": "setPeers",
      "outputs": [],
      "stateMutability": "nonpayable",
      "type": "function"
    },
    {
      "inputs": [
        {
          "internalType": "bytes4",
          "name": "interfaceId",
          "type": "bytes4"
        }
      ],
      "name": "supportsInterface",
      "outputs": [
        {
          "internalType": "bool",
          "name": "",
          "type": "bool"
        }
      ],
      "stateMutability": "view",
      "type": "function"
    },
    {
      "inputs": [
        {
          "internalType": "address",
          "name": "_token",
          "type": "address"
        },
        {
          "internalType": "uint256[]",
          "name": "_amounts",
          "type": "uint256[]"
        },
        {
          "internalType": "uint256[]",
          "name": "_toChainIds",
          "type": "uint256[]"
        },
        {
          "internalType": "address[]",
          "name": "_toAddresses",
          "type": "address[]"
        }
      ],
      "name": "transfer",
      "outputs": [],
      "stateMutability": "payable",
      "type": "function"
    },
    {
      "inputs": [
        {
          "internalType": "address",
          "name": "newOwner",
          "type": "address"
        }
      ],
      "name": "transferOwnership",
      "outputs": [],
      "stateMutability": "nonpayable",
      "type": "function"
    },
    {
      "stateMutability": "payable",
      "type": "receive"
    }
  ],
  "transactionHash": "0xf6f12142ebdd6b440a3154a65e1e1e3a55bb2898fa282a0f8f560f36c954e4ae",
  "args": [],
  "numDeployments": 1,
  "solcInputHash": "edb706d083ef01999bd2474e31a78068",
  "bytecode": "0x608060405234801561001057600080fd5b50612483806100206000396000f3fe60806040526004361061014f5760003560e01c80639010d07c116100b6578063c3f9db531161006f578063c3f9db531461045b578063ca15c8731461047b578063d2c7dfcc1461049b578063d547741f146104bc578063eae6f652146104dc578063f2fde38b1461051057600080fd5b80639010d07c1461037d57806391d148541461039d5780639abaf479146103bd578063a217fddf146103eb578063be4f3e8f14610400578063bebc4f711461043657600080fd5b80633b11ca51116101085780633b11ca511461024357806351f727df14610257578063715018a61461030e57806377cae758146103235780638129fc1c146103365780638da5cb5b1461034b57600080fd5b806301ffc9a71461015b578063219d5ca514610190578063248a9ca3146101a55780632de2c8ad146101e35780632f2ff15d1461020357806336568abe1461022357600080fd5b3661015657005b600080fd5b34801561016757600080fd5b5061017b610176366004611b2c565b610530565b60405190151581526020015b60405180910390f35b6101a361019e366004611ca5565b61055b565b005b3480156101b157600080fd5b506101d56101c0366004611d40565b60009081526065602052604090206001015490565b604051908152602001610187565b3480156101ef57600080fd5b506101a36101fe366004611d59565b6106c9565b34801561020f57600080fd5b506101a361021e366004611dbd565b6107c3565b34801561022f57600080fd5b506101a361023e366004611dbd565b6107ed565b34801561024f57600080fd5b5060006101d5565b34801561026357600080fd5b506102ca610272366004611ded565b61012d60209081526000928352604080842090915290825290208054600182015460028301546003909301546001600160a01b03928316939183169282169160ff600160a01b8204811692600160a81b909204169086565b604080516001600160a01b0397881681529587166020870152939095169284019290925260ff908116606084015216608082015260a081019190915260c001610187565b34801561031a57600080fd5b506101a361086b565b6101a3610331366004611e89565b6108a1565b34801561034257600080fd5b506101a36108d2565b34801561035757600080fd5b5060c9546001600160a01b03165b6040516001600160a01b039091168152602001610187565b34801561038957600080fd5b50610365610398366004611ee0565b610947565b3480156103a957600080fd5b5061017b6103b8366004611dbd565b610966565b3480156103c957600080fd5b506103dd6103d8366004611f02565b610991565b604051610187929190611fcc565b3480156103f757600080fd5b506101d5600081565b34801561040c57600080fd5b5061036561041b366004611d40565b60fb602052600090815260409020546001600160a01b031681565b34801561044257600080fd5b506101d5610451366004611e89565b6000949350505050565b34801561046757600080fd5b506101a3610476366004611ff8565b610b02565b34801561048757600080fd5b506101d5610496366004611d40565b610d81565b3480156104a757600080fd5b5061012e54610365906001600160a01b031681565b3480156104c857600080fd5b506101a36104d7366004611dbd565b610d98565b3480156104e857600080fd5b506101d57fa5ff3ec7a96cdbba4d2d5172d66bbc73c6db3885f29b21be5da9fa7a7c02523281565b34801561051c57600080fd5b506101a361052b366004612089565b610dbd565b60006001600160e01b03198216635a05180f60e01b1480610555575061055582610e17565b92915050565b7fa5ff3ec7a96cdbba4d2d5172d66bbc73c6db3885f29b21be5da9fa7a7c02523261058581610e4c565b34156105c85760405162461bcd60e51b815260206004820152600d60248201526c139bc8199959481b9959591959609a1b60448201526064015b60405180910390fd5b835146336000805b84811015610611578881815181106105ea576105ea6120a6565b6020026020010151826105fd91906120d2565b915080610609816120ea565b9150506105d0565b506001600160a01b03808a16600090815261012d602090815260408083208784529091529020600101546106489116833084610e56565b60005b848110156106bd576106ab8a8a8381518110610669576106696120a6565b6020026020010151868b8581518110610684576106846120a6565b60200260200101518b868151811061069e5761069e6120a6565b6020026020010151610ec1565b806106b5816120ea565b91505061064b565b50505050505050505050565b60c9546001600160a01b031633146106f35760405162461bcd60e51b81526004016105bf90612105565b815160005b818110156107bd576000848281518110610714576107146120a6565b6020026020010151905080600014156107615760405162461bcd60e51b815260206004820152600f60248201526e125b9d985b1a590818da185a5b9251608a1b60448201526064016105bf565b838281518110610773576107736120a6565b602090810291909101810151600092835260fb909152604090912080546001600160a01b0319166001600160a01b03909216919091179055806107b5816120ea565b9150506106f8565b50505050565b6000828152606560205260409020600101546107de81610e4c565b6107e8838361109b565b505050565b6001600160a01b038116331461085d5760405162461bcd60e51b815260206004820152602f60248201527f416363657373436f6e74726f6c3a2063616e206f6e6c792072656e6f756e636560448201526e103937b632b9903337b91039b2b63360891b60648201526084016105bf565b61086782826110bd565b5050565b60c9546001600160a01b031633146108955760405162461bcd60e51b81526004016105bf90612105565b61089f60006110df565b565b7fa5ff3ec7a96cdbba4d2d5172d66bbc73c6db3885f29b21be5da9fa7a7c0252326108cb81610e4c565b5050505050565b60006108de6001611131565b905080156108f6576000805461ff0019166101001790555b6108fe6111be565b8015610944576000805461ff0019169055604051600181527f7f26b83ff96e1f2b6a682f133852f6798a09c465da95921460cefb38474024989060200160405180910390a15b50565b600082815260976020526040812061095f9083611206565b9392505050565b60009182526065602090815260408084206001600160a01b0393909316845291905290205460ff1690565b6000606060008061012e60009054906101000a90046001600160a01b03166001600160a01b031663d0496d6a6040518163ffffffff1660e01b8152600401606060405180830381600087803b1580156109e957600080fd5b505af11580156109fd573d6000803e3d6000fd5b505050506040513d601f19601f82011682018060405250810190610a21919061213a565b50600081815260fb602052604090205491935091506001600160a01b03808416911614610a805760405162461bcd60e51b815260206004820152600d60248201526c15dc9bdb99c818dbdb9d195e1d609a1b60448201526064016105bf565b60008080610a90888a018a612171565b925092509250826001600160a01b03168282604051610aaf91906121ca565b60006040518083038185875af1925050503d8060008114610aec576040519150601f19603f3d011682016040523d82523d6000602084013e610af1565b606091505b50909a909950975050505050505050565b60c9546001600160a01b03163314610b2c5760405162461bcd60e51b81526004016105bf90612105565b6001600160a01b03808916600090815261012d602090815260408083208b8452909152902054168015610b6e57610b6e6001600160a01b038a16826000611212565b6040518060c00160405280886001600160a01b03168152602001876001600160a01b03168152602001866001600160a01b031681526020018560ff1681526020018460ff1681526020018381525061012d60008b6001600160a01b03166001600160a01b0316815260200190815260200160002060008a815260200190815260200160002060008201518160000160006101000a8154816001600160a01b0302191690836001600160a01b0316021790555060208201518160010160006101000a8154816001600160a01b0302191690836001600160a01b0316021790555060408201518160020160006101000a8154816001600160a01b0302191690836001600160a01b0316021790555060608201518160020160146101000a81548160ff021916908360ff16021790555060808201518160020160156101000a81548160ff021916908360ff16021790555060a08201518160030155905050856001600160a01b031663dd62ed3e30896040518363ffffffff1660e01b8152600401610d0c9291906001600160a01b0392831681529116602082015260400190565b60206040518083038186803b158015610d2457600080fd5b505afa158015610d38573d6000803e3d6000fd5b505050506040513d601f19601f82011682018060405250810190610d5c91906121e6565b610d7657610d766001600160a01b03871688600019611212565b505050505050505050565b600081815260976020526040812061055590611336565b600082815260656020526040902060010154610db381610e4c565b6107e883836110bd565b60c9546001600160a01b03163314610de75760405162461bcd60e51b81526004016105bf90612105565b610e036000610dfe60c9546001600160a01b031690565b6110bd565b610e0c81611340565b6109446000826113d8565b60006001600160e01b03198216637965db0b60e01b148061055557506301ffc9a760e01b6001600160e01b0319831614610555565b61094481336113e2565b6040516001600160a01b03808516602483015283166044820152606481018290526107bd9085906323b872dd60e01b906084015b60408051601f198184030181529190526020810180516001600160e01b03166001600160e01b031990931692909217909152611446565b6001600160a01b03808616600090815261012d60209081526040808320878452825291829020825160c081018452815485168152600182015485169281019290925260028101549384169282019290925260ff600160a01b8404811660608301819052600160a81b90940416608082015260039091015460a082015290610f4990600a6122e3565b6001600160a01b038716600090815261012d60209081526040808320878452909152902060030154610f7b91906122f2565b851015610fbd5760405162461bcd60e51b815260206004820152601060248201526f151bdbc81cdb585b1b08185b5bdd5b9d60821b60448201526064016105bf565b805160408083015190516376defaf160e11b81526001600160a01b0391821660048201528482166024820152604481018890526064810186905291169063edbdf5e290608401600060405180830381600087803b15801561101d57600080fd5b505af1158015611031573d6000803e3d6000fd5b50505050828582602001516001600160a01b03167f3a92e15f876cc81488721650bc1ba6d625ea349cff7bff2502b86ac0d24e88b8338660405161108b9291906001600160a01b0392831681529116602082015260400190565b60405180910390a4505050505050565b6110a58282611518565b60008281526097602052604090206107e8908261159e565b6110c782826115b3565b60008281526097602052604090206107e8908261161a565b60c980546001600160a01b038381166001600160a01b0319831681179093556040519116919082907f8be0079c531659141344cd1fd0a4f28419497f9722a3daafe3b4186f6b6457e090600090a35050565b60008054610100900460ff1615611178578160ff1660011480156111545750303b155b6111705760405162461bcd60e51b81526004016105bf90612311565b506000919050565b60005460ff80841691161061119f5760405162461bcd60e51b81526004016105bf90612311565b506000805460ff191660ff92909216919091179055600190565b919050565b60006111ca6001611131565b905080156111e2576000805461ff0019166101001790555b6111ea61162f565b6108fe600061120160c9546001600160a01b031690565b6113d8565b600061095f83836116a3565b80158061129b5750604051636eb1769f60e11b81523060048201526001600160a01b03838116602483015284169063dd62ed3e9060440160206040518083038186803b15801561126157600080fd5b505afa158015611275573d6000803e3d6000fd5b505050506040513d601f19601f8201168201806040525081019061129991906121e6565b155b6113065760405162461bcd60e51b815260206004820152603660248201527f5361666545524332303a20617070726f76652066726f6d206e6f6e2d7a65726f60448201527520746f206e6f6e2d7a65726f20616c6c6f77616e636560501b60648201526084016105bf565b6040516001600160a01b0383166024820152604481018290526107e890849063095ea7b360e01b90606401610e8a565b6000610555825490565b60c9546001600160a01b0316331461136a5760405162461bcd60e51b81526004016105bf90612105565b6001600160a01b0381166113cf5760405162461bcd60e51b815260206004820152602660248201527f4f776e61626c653a206e6577206f776e657220697320746865207a65726f206160448201526564647265737360d01b60648201526084016105bf565b610944816110df565b610867828261109b565b6113ec8282610966565b61086757611404816001600160a01b031660146116cd565b61140f8360206116cd565b60405160200161142092919061235f565b60408051601f198184030181529082905262461bcd60e51b82526105bf916004016123d4565b600061149b826040518060400160405280602081526020017f5361666545524332303a206c6f772d6c6576656c2063616c6c206661696c6564815250856001600160a01b03166118699092919063ffffffff16565b8051909150156107e857808060200190518101906114b991906123e7565b6107e85760405162461bcd60e51b815260206004820152602a60248201527f5361666545524332303a204552433230206f7065726174696f6e20646964206e6044820152691bdd081cdd58d8d9595960b21b60648201526084016105bf565b6115228282610966565b6108675760008281526065602090815260408083206001600160a01b03851684529091529020805460ff1916600117905561155a3390565b6001600160a01b0316816001600160a01b0316837f2f8788117e7eff1d82e926ec794901d17c78024a50270940304540a733656f0d60405160405180910390a45050565b600061095f836001600160a01b038416611880565b6115bd8282610966565b156108675760008281526065602090815260408083206001600160a01b0385168085529252808320805460ff1916905551339285917ff6391f5c32d9c69d2a47ea670b442974b53935d1edc7fd64eb21e047a839171b9190a45050565b600061095f836001600160a01b0384166118cf565b600054610100900460ff1661169a5760405162461bcd60e51b815260206004820152602b60248201527f496e697469616c697a61626c653a20636f6e7472616374206973206e6f74206960448201526a6e697469616c697a696e6760a81b60648201526084016105bf565b61089f336110df565b60008260000182815481106116ba576116ba6120a6565b9060005260206000200154905092915050565b606060006116dc8360026122f2565b6116e79060026120d2565b67ffffffffffffffff8111156116ff576116ff611b6b565b6040519080825280601f01601f191660200182016040528015611729576020820181803683370190505b509050600360fc1b81600081518110611744576117446120a6565b60200101906001600160f81b031916908160001a905350600f60fb1b81600181518110611773576117736120a6565b60200101906001600160f81b031916908160001a90535060006117978460026122f2565b6117a29060016120d2565b90505b600181111561181a576f181899199a1a9b1b9c1cb0b131b232b360811b85600f16601081106117d6576117d66120a6565b1a60f81b8282815181106117ec576117ec6120a6565b60200101906001600160f81b031916908160001a90535060049490941c9361181381612409565b90506117a5565b50831561095f5760405162461bcd60e51b815260206004820181905260248201527f537472696e67733a20686578206c656e67746820696e73756666696369656e7460448201526064016105bf565b606061187884846000856119c2565b949350505050565b60008181526001830160205260408120546118c757508154600181810184556000848152602080822090930184905584548482528286019093526040902091909155610555565b506000610555565b600081815260018301602052604081205480156119b85760006118f3600183612420565b855490915060009061190790600190612420565b905081811461196c576000866000018281548110611927576119276120a6565b906000526020600020015490508087600001848154811061194a5761194a6120a6565b6000918252602080832090910192909255918252600188019052604090208390555b855486908061197d5761197d612437565b600190038181906000526020600020016000905590558560010160008681526020019081526020016000206000905560019350505050610555565b6000915050610555565b606082471015611a235760405162461bcd60e51b815260206004820152602660248201527f416464726573733a20696e73756666696369656e742062616c616e636520666f6044820152651c8818d85b1b60d21b60648201526084016105bf565b6001600160a01b0385163b611a7a5760405162461bcd60e51b815260206004820152601d60248201527f416464726573733a2063616c6c20746f206e6f6e2d636f6e747261637400000060448201526064016105bf565b600080866001600160a01b03168587604051611a9691906121ca565b60006040518083038185875af1925050503d8060008114611ad3576040519150601f19603f3d011682016040523d82523d6000602084013e611ad8565b606091505b5091509150611ae8828286611af3565b979650505050505050565b60608315611b0257508161095f565b825115611b125782518084602001fd5b8160405162461bcd60e51b81526004016105bf91906123d4565b600060208284031215611b3e57600080fd5b81356001600160e01b03198116811461095f57600080fd5b6001600160a01b038116811461094457600080fd5b634e487b7160e01b600052604160045260246000fd5b604051601f8201601f1916810167ffffffffffffffff81118282101715611baa57611baa611b6b565b604052919050565b600067ffffffffffffffff821115611bcc57611bcc611b6b565b5060051b60200190565b600082601f830112611be757600080fd5b81356020611bfc611bf783611bb2565b611b81565b82815260059290921b84018101918181019086841115611c1b57600080fd5b8286015b84811015611c365780358352918301918301611c1f565b509695505050505050565b600082601f830112611c5257600080fd5b81356020611c62611bf783611bb2565b82815260059290921b84018101918181019086841115611c8157600080fd5b8286015b84811015611c36578035611c9881611b56565b8352918301918301611c85565b60008060008060808587031215611cbb57600080fd5b8435611cc681611b56565b9350602085013567ffffffffffffffff80821115611ce357600080fd5b611cef88838901611bd6565b94506040870135915080821115611d0557600080fd5b611d1188838901611bd6565b93506060870135915080821115611d2757600080fd5b50611d3487828801611c41565b91505092959194509250565b600060208284031215611d5257600080fd5b5035919050565b60008060408385031215611d6c57600080fd5b823567ffffffffffffffff80821115611d8457600080fd5b611d9086838701611bd6565b93506020850135915080821115611da657600080fd5b50611db385828601611c41565b9150509250929050565b60008060408385031215611dd057600080fd5b823591506020830135611de281611b56565b809150509250929050565b60008060408385031215611e0057600080fd5b8235611e0b81611b56565b946020939093013593505050565b600082601f830112611e2a57600080fd5b813567ffffffffffffffff811115611e4457611e44611b6b565b611e57601f8201601f1916602001611b81565b818152846020838601011115611e6c57600080fd5b816020850160208301376000918101602001919091529392505050565b60008060008060808587031215611e9f57600080fd5b843593506020850135611eb181611b56565b925060408501359150606085013567ffffffffffffffff811115611ed457600080fd5b611d3487828801611e19565b60008060408385031215611ef357600080fd5b50508035926020909101359150565b60008060208385031215611f1557600080fd5b823567ffffffffffffffff80821115611f2d57600080fd5b818501915085601f830112611f4157600080fd5b813581811115611f5057600080fd5b866020828501011115611f6257600080fd5b60209290920196919550909350505050565b60005b83811015611f8f578181015183820152602001611f77565b838111156107bd5750506000910152565b60008151808452611fb8816020860160208601611f74565b601f01601f19169290920160200192915050565b82151581526040602082015260006118786040830184611fa0565b803560ff811681146111b957600080fd5b600080600080600080600080610100898b03121561201557600080fd5b883561202081611b56565b975060208901359650604089013561203781611b56565b9550606089013561204781611b56565b9450608089013561205781611b56565b935061206560a08a01611fe7565b925061207360c08a01611fe7565b915060e089013590509295985092959890939650565b60006020828403121561209b57600080fd5b813561095f81611b56565b634e487b7160e01b600052603260045260246000fd5b634e487b7160e01b600052601160045260246000fd5b600082198211156120e5576120e56120bc565b500190565b60006000198214156120fe576120fe6120bc565b5060010190565b6020808252818101527f4f776e61626c653a2063616c6c6572206973206e6f7420746865206f776e6572604082015260600190565b60008060006060848603121561214f57600080fd5b835161215a81611b56565b602085015160409095015190969495509392505050565b60008060006060848603121561218657600080fd5b833561219181611b56565b925060208401359150604084013567ffffffffffffffff8111156121b457600080fd5b6121c086828701611e19565b9150509250925092565b600082516121dc818460208701611f74565b9190910192915050565b6000602082840312156121f857600080fd5b5051919050565b600181815b8085111561223a578160001904821115612220576122206120bc565b8085161561222d57918102915b93841c9390800290612204565b509250929050565b60008261225157506001610555565b8161225e57506000610555565b8160018114612274576002811461227e5761229a565b6001915050610555565b60ff84111561228f5761228f6120bc565b50506001821b610555565b5060208310610133831016604e8410600b84101617156122bd575081810a610555565b6122c783836121ff565b80600019048211156122db576122db6120bc565b029392505050565b600061095f60ff841683612242565b600081600019048311821515161561230c5761230c6120bc565b500290565b6020808252602e908201527f496e697469616c697a61626c653a20636f6e747261637420697320616c72656160408201526d191e481a5b9a5d1a585b1a5e995960921b606082015260800190565b7f416363657373436f6e74726f6c3a206163636f756e7420000000000000000000815260008351612397816017850160208801611f74565b7001034b99036b4b9b9b4b733903937b6329607d1b60179184019182015283516123c8816028840160208801611f74565b01602801949350505050565b60208152600061095f6020830184611fa0565b6000602082840312156123f957600080fd5b8151801515811461095f57600080fd5b600081612418576124186120bc565b506000190190565b600082821015612432576124326120bc565b500390565b634e487b7160e01b600052603160045260246000fdfea264697066735822122053a173d876a99696b6788422c0dd41a935a84030a6aebe0124e6c107e169c6c664736f6c63430008090033",
  "devdoc": {
    "kind": "dev",
    "methods": {
      "anyExecute(bytes)": {
        "details": "The function to receive message from anycall router. The syntax must not be changed."
      },
      "getRoleAdmin(bytes32)": {
        "details": "Returns the admin role that controls `role`. See {grantRole} and {revokeRole}. To change a role's admin, use {_setRoleAdmin}."
      },
      "getRoleMember(bytes32,uint256)": {
        "details": "Returns one of the accounts that have `role`. `index` must be a value between 0 and {getRoleMemberCount}, non-inclusive. Role bearers are not sorted in any particular way, and their ordering may change at any point. WARNING: When using {getRoleMember} and {getRoleMemberCount}, make sure you perform all queries on the same block. See the following https://forum.openzeppelin.com/t/iterating-over-elements-on-enumerableset-in-openzeppelin-contracts/2296[forum post] for more information."
      },
      "getRoleMemberCount(bytes32)": {
        "details": "Returns the number of accounts that have `role`. Can be used together with {getRoleMember} to enumerate all bearers of a role."
      },
      "grantRole(bytes32,address)": {
        "details": "Grants `role` to `account`. If `account` had not been already granted `role`, emits a {RoleGranted} event. Requirements: - the caller must have ``role``'s admin role."
      },
      "hasRole(bytes32,address)": {
        "details": "Returns `true` if `account` has been granted `role`."
      },
      "owner()": {
        "details": "Returns the address of the current owner."
      },
      "renounceOwnership()": {
        "details": "Leaves the contract without owner. It will not be possible to call `onlyOwner` functions anymore. Can only be called by the current owner. NOTE: Renouncing ownership will leave the contract without an owner, thereby removing any functionality that is only available to the owner."
      },
      "renounceRole(bytes32,address)": {
        "details": "Revokes `role` from the calling account. Roles are often managed via {grantRole} and {revokeRole}: this function's purpose is to provide a mechanism for accounts to lose their privileges if they are compromised (such as when a trusted device is misplaced). If the calling account had been revoked `role`, emits a {RoleRevoked} event. Requirements: - the caller must be `account`."
      },
      "revokeRole(bytes32,address)": {
        "details": "Revokes `role` from `account`. If `account` had been granted `role`, emits a {RoleRevoked} event. Requirements: - the caller must have ``role``'s admin role."
      },
      "supportsInterface(bytes4)": {
        "details": "See {IERC165-supportsInterface}."
      },
      "transferOwnership(address)": {
        "details": "Transfers ownership of the contract to a new account (`newOwner`). Can only be called by the current owner."
      }
    },
    "version": 1
  },
  "userdoc": {
    "kind": "user",
    "methods": {},
    "version": 1
  },
  "storageLayout": {
    "storage": [
      {
        "astId": 713,
        "contract": "contracts/xchain/multichain/MultichainXChainAdapterTest.sol:MultichainXChainAdapterTest",
        "label": "_initialized",
        "offset": 0,
        "slot": "0",
        "type": "t_uint8"
      },
      {
        "astId": 716,
        "contract": "contracts/xchain/multichain/MultichainXChainAdapterTest.sol:MultichainXChainAdapterTest",
        "label": "_initializing",
        "offset": 1,
        "slot": "0",
        "type": "t_bool"
      },
      {
        "astId": 3292,
        "contract": "contracts/xchain/multichain/MultichainXChainAdapterTest.sol:MultichainXChainAdapterTest",
        "label": "__gap",
        "offset": 0,
        "slot": "1",
        "type": "t_array(t_uint256)50_storage"
      },
      {
        "astId": 3946,
        "contract": "contracts/xchain/multichain/MultichainXChainAdapterTest.sol:MultichainXChainAdapterTest",
        "label": "__gap",
        "offset": 0,
        "slot": "51",
        "type": "t_array(t_uint256)50_storage"
      },
      {
        "astId": 184,
        "contract": "contracts/xchain/multichain/MultichainXChainAdapterTest.sol:MultichainXChainAdapterTest",
        "label": "_roles",
        "offset": 0,
        "slot": "101",
        "type": "t_mapping(t_bytes32,t_struct(RoleData)179_storage)"
      },
      {
        "astId": 483,
        "contract": "contracts/xchain/multichain/MultichainXChainAdapterTest.sol:MultichainXChainAdapterTest",
        "label": "__gap",
        "offset": 0,
        "slot": "102",
        "type": "t_array(t_uint256)49_storage"
      },
      {
        "astId": 33,
        "contract": "contracts/xchain/multichain/MultichainXChainAdapterTest.sol:MultichainXChainAdapterTest",
        "label": "_roleMembers",
        "offset": 0,
        "slot": "151",
        "type": "t_mapping(t_bytes32,t_struct(AddressSet)4359_storage)"
      },
      {
        "astId": 143,
        "contract": "contracts/xchain/multichain/MultichainXChainAdapterTest.sol:MultichainXChainAdapterTest",
        "label": "__gap",
        "offset": 0,
        "slot": "152",
        "type": "t_array(t_uint256)49_storage"
      },
      {
        "astId": 593,
        "contract": "contracts/xchain/multichain/MultichainXChainAdapterTest.sol:MultichainXChainAdapterTest",
        "label": "_owner",
        "offset": 0,
        "slot": "201",
        "type": "t_address"
      },
      {
        "astId": 705,
        "contract": "contracts/xchain/multichain/MultichainXChainAdapterTest.sol:MultichainXChainAdapterTest",
        "label": "__gap",
        "offset": 0,
        "slot": "202",
        "type": "t_array(t_uint256)49_storage"
      },
      {
        "astId": 56007,
        "contract": "contracts/xchain/multichain/MultichainXChainAdapterTest.sol:MultichainXChainAdapterTest",
        "label": "peers",
        "offset": 0,
        "slot": "251",
        "type": "t_mapping(t_uint256,t_address)"
      },
      {
        "astId": 56164,
        "contract": "contracts/xchain/multichain/MultichainXChainAdapterTest.sol:MultichainXChainAdapterTest",
        "label": "__gap",
        "offset": 0,
        "slot": "252",
        "type": "t_array(t_uint256)49_storage"
      },
      {
        "astId": 66612,
        "contract": "contracts/xchain/multichain/MultichainXChainAdapterTest.sol:MultichainXChainAdapterTest",
        "label": "anyswapMap",
        "offset": 0,
        "slot": "301",
        "type": "t_mapping(t_address,t_mapping(t_uint256,t_struct(Entry)66196_storage))"
      },
      {
        "astId": 66615,
        "contract": "contracts/xchain/multichain/MultichainXChainAdapterTest.sol:MultichainXChainAdapterTest",
        "label": "anycallExecutor",
        "offset": 0,
        "slot": "302",
        "type": "t_contract(IAnycallExecutor)66393"
      }
    ],
    "types": {
      "t_address": {
        "encoding": "inplace",
        "label": "address",
        "numberOfBytes": "20"
      },
      "t_array(t_bytes32)dyn_storage": {
        "base": "t_bytes32",
        "encoding": "dynamic_array",
        "label": "bytes32[]",
        "numberOfBytes": "32"
      },
      "t_array(t_uint256)49_storage": {
        "base": "t_uint256",
        "encoding": "inplace",
        "label": "uint256[49]",
        "numberOfBytes": "1568"
      },
      "t_array(t_uint256)50_storage": {
        "base": "t_uint256",
        "encoding": "inplace",
        "label": "uint256[50]",
        "numberOfBytes": "1600"
      },
      "t_bool": {
        "encoding": "inplace",
        "label": "bool",
        "numberOfBytes": "1"
      },
      "t_bytes32": {
        "encoding": "inplace",
        "label": "bytes32",
        "numberOfBytes": "32"
      },
      "t_contract(IAnycallExecutor)66393": {
        "encoding": "inplace",
        "label": "contract IAnycallExecutor",
        "numberOfBytes": "20"
      },
      "t_mapping(t_address,t_bool)": {
        "encoding": "mapping",
        "key": "t_address",
        "label": "mapping(address => bool)",
        "numberOfBytes": "32",
        "value": "t_bool"
      },
      "t_mapping(t_address,t_mapping(t_uint256,t_struct(Entry)66196_storage))": {
        "encoding": "mapping",
        "key": "t_address",
        "label": "mapping(address => mapping(uint256 => struct AnyswapMap.Entry))",
        "numberOfBytes": "32",
        "value": "t_mapping(t_uint256,t_struct(Entry)66196_storage)"
      },
      "t_mapping(t_bytes32,t_struct(AddressSet)4359_storage)": {
        "encoding": "mapping",
        "key": "t_bytes32",
        "label": "mapping(bytes32 => struct EnumerableSetUpgradeable.AddressSet)",
        "numberOfBytes": "32",
        "value": "t_struct(AddressSet)4359_storage"
      },
      "t_mapping(t_bytes32,t_struct(RoleData)179_storage)": {
        "encoding": "mapping",
        "key": "t_bytes32",
        "label": "mapping(bytes32 => struct AccessControlUpgradeable.RoleData)",
        "numberOfBytes": "32",
        "value": "t_struct(RoleData)179_storage"
      },
      "t_mapping(t_bytes32,t_uint256)": {
        "encoding": "mapping",
        "key": "t_bytes32",
        "label": "mapping(bytes32 => uint256)",
        "numberOfBytes": "32",
        "value": "t_uint256"
      },
      "t_mapping(t_uint256,t_address)": {
        "encoding": "mapping",
        "key": "t_uint256",
        "label": "mapping(uint256 => address)",
        "numberOfBytes": "32",
        "value": "t_address"
      },
      "t_mapping(t_uint256,t_struct(Entry)66196_storage)": {
        "encoding": "mapping",
        "key": "t_uint256",
        "label": "mapping(uint256 => struct AnyswapMap.Entry)",
        "numberOfBytes": "32",
        "value": "t_struct(Entry)66196_storage"
      },
      "t_struct(AddressSet)4359_storage": {
        "encoding": "inplace",
        "label": "struct EnumerableSetUpgradeable.AddressSet",
        "members": [
          {
            "astId": 4358,
            "contract": "contracts/xchain/multichain/MultichainXChainAdapterTest.sol:MultichainXChainAdapterTest",
            "label": "_inner",
            "offset": 0,
            "slot": "0",
            "type": "t_struct(Set)4058_storage"
          }
        ],
        "numberOfBytes": "64"
      },
      "t_struct(Entry)66196_storage": {
        "encoding": "inplace",
        "label": "struct AnyswapMap.Entry",
        "members": [
          {
            "astId": 66185,
            "contract": "contracts/xchain/multichain/MultichainXChainAdapterTest.sol:MultichainXChainAdapterTest",
            "label": "router",
            "offset": 0,
            "slot": "0",
            "type": "t_address"
          },
          {
            "astId": 66187,
            "contract": "contracts/xchain/multichain/MultichainXChainAdapterTest.sol:MultichainXChainAdapterTest",
            "label": "underlying",
            "offset": 0,
            "slot": "1",
            "type": "t_address"
          },
          {
            "astId": 66189,
            "contract": "contracts/xchain/multichain/MultichainXChainAdapterTest.sol:MultichainXChainAdapterTest",
            "label": "anyToken",
            "offset": 0,
            "slot": "2",
            "type": "t_address"
          },
          {
            "astId": 66191,
            "contract": "contracts/xchain/multichain/MultichainXChainAdapterTest.sol:MultichainXChainAdapterTest",
            "label": "underlyingDecimals",
            "offset": 20,
            "slot": "2",
            "type": "t_uint8"
          },
          {
            "astId": 66193,
            "contract": "contracts/xchain/multichain/MultichainXChainAdapterTest.sol:MultichainXChainAdapterTest",
            "label": "anyTokenDecimals",
            "offset": 21,
            "slot": "2",
            "type": "t_uint8"
          },
          {
            "astId": 66195,
            "contract": "contracts/xchain/multichain/MultichainXChainAdapterTest.sol:MultichainXChainAdapterTest",
            "label": "minimumSwap",
            "offset": 0,
            "slot": "3",
            "type": "t_uint256"
          }
        ],
        "numberOfBytes": "128"
      },
      "t_struct(RoleData)179_storage": {
        "encoding": "inplace",
        "label": "struct AccessControlUpgradeable.RoleData",
        "members": [
          {
            "astId": 176,
            "contract": "contracts/xchain/multichain/MultichainXChainAdapterTest.sol:MultichainXChainAdapterTest",
            "label": "members",
            "offset": 0,
            "slot": "0",
            "type": "t_mapping(t_address,t_bool)"
          },
          {
            "astId": 178,
            "contract": "contracts/xchain/multichain/MultichainXChainAdapterTest.sol:MultichainXChainAdapterTest",
            "label": "adminRole",
            "offset": 0,
            "slot": "1",
            "type": "t_bytes32"
          }
        ],
        "numberOfBytes": "64"
      },
      "t_struct(Set)4058_storage": {
        "encoding": "inplace",
        "label": "struct EnumerableSetUpgradeable.Set",
        "members": [
          {
            "astId": 4053,
            "contract": "contracts/xchain/multichain/MultichainXChainAdapterTest.sol:MultichainXChainAdapterTest",
            "label": "_values",
            "offset": 0,
            "slot": "0",
            "type": "t_array(t_bytes32)dyn_storage"
          },
          {
            "astId": 4057,
            "contract": "contracts/xchain/multichain/MultichainXChainAdapterTest.sol:MultichainXChainAdapterTest",
            "label": "_indexes",
            "offset": 0,
            "slot": "1",
            "type": "t_mapping(t_bytes32,t_uint256)"
          }
        ],
        "numberOfBytes": "64"
      },
      "t_uint256": {
        "encoding": "inplace",
        "label": "uint256",
        "numberOfBytes": "32"
      },
      "t_uint8": {
        "encoding": "inplace",
        "label": "uint8",
        "numberOfBytes": "1"
      }
    }
  }
}