{
  "address": "0x16DAC3a04f0289cC450e06420b12aE9e4894C269",
  "abi": [
    {
      "anonymous": false,
      "inputs": [
        {
          "indexed": true,
          "internalType": "address",
          "name": "owner",
          "type": "address"
        },
        {
          "indexed": true,
          "internalType": "address",
          "name": "spender",
          "type": "address"
        },
        {
          "indexed": false,
          "internalType": "uint256",
          "name": "value",
          "type": "uint256"
        }
      ],
      "name": "Approval",
      "type": "event"
    },
    {
      "anonymous": false,
      "inputs": [
        {
          "indexed": false,
          "internalType": "address",
          "name": "_user",
          "type": "address"
        },
        {
          "indexed": false,
          "internalType": "uint256",
          "name": "_amount",
          "type": "uint256"
        },
        {
          "indexed": false,
          "internalType": "uint256",
          "name": "_shares",
          "type": "uint256"
        }
      ],
      "name": "Deposit",
      "type": "event"
    },
    {
      "anonymous": false,
      "inputs": [
        {
          "indexed": false,
          "internalType": "uint256",
          "name": "_amount",
          "type": "uint256"
        }
      ],
      "name": "EmergencyWithdraw",
      "type": "event"
    },
    {
      "anonymous": false,
      "inputs": [
        {
          "indexed": false,
          "internalType": "uint8",
          "name": "version",
          "type": "uint8"
        }
      ],
      "name": "Initialized",
      "type": "event"
    },
    {
      "anonymous": false,
      "inputs": [
        {
          "indexed": false,
          "internalType": "uint256",
          "name": "_amount",
          "type": "uint256"
        }
      ],
      "name": "Invest",
      "type": "event"
    },
    {
      "anonymous": false,
      "inputs": [
        {
          "indexed": true,
          "internalType": "address",
          "name": "previousOwner",
          "type": "address"
        },
        {
          "indexed": true,
          "internalType": "address",
          "name": "newOwner",
          "type": "address"
        }
      ],
      "name": "OwnershipTransferred",
      "type": "event"
    },
    {
      "anonymous": false,
      "inputs": [
        {
          "indexed": false,
          "internalType": "address",
          "name": "account",
          "type": "address"
        }
      ],
      "name": "Paused",
      "type": "event"
    },
    {
      "anonymous": false,
      "inputs": [
        {
          "indexed": false,
          "internalType": "address",
          "name": "_oldAdmin",
          "type": "address"
        },
        {
          "indexed": false,
          "internalType": "address",
          "name": "_newAdmin",
          "type": "address"
        }
      ],
      "name": "SetAdmin",
      "type": "event"
    },
    {
      "anonymous": false,
      "inputs": [
        {
          "indexed": false,
          "internalType": "address",
          "name": "_wallet",
          "type": "address"
        }
      ],
      "name": "SetTreasuryWallet",
      "type": "event"
    },
    {
      "anonymous": false,
      "inputs": [
        {
          "indexed": false,
          "internalType": "uint256",
          "name": "_fee",
          "type": "uint256"
        }
      ],
      "name": "SetYieldFeePerc",
      "type": "event"
    },
    {
      "anonymous": false,
      "inputs": [
        {
          "indexed": true,
          "internalType": "address",
          "name": "from",
          "type": "address"
        },
        {
          "indexed": true,
          "internalType": "address",
          "name": "to",
          "type": "address"
        },
        {
          "indexed": false,
          "internalType": "uint256",
          "name": "value",
          "type": "uint256"
        }
      ],
      "name": "Transfer",
      "type": "event"
    },
    {
      "anonymous": false,
      "inputs": [
        {
          "indexed": false,
          "internalType": "address",
          "name": "account",
          "type": "address"
        }
      ],
      "name": "Unpaused",
      "type": "event"
    },
    {
      "anonymous": false,
      "inputs": [
        {
          "indexed": false,
          "internalType": "address",
          "name": "_user",
          "type": "address"
        },
        {
          "indexed": false,
          "internalType": "uint256",
          "name": "_amount",
          "type": "uint256"
        },
        {
          "indexed": false,
          "internalType": "uint256",
          "name": "_shares",
          "type": "uint256"
        }
      ],
      "name": "Withdraw",
      "type": "event"
    },
    {
      "anonymous": false,
      "inputs": [
        {
          "indexed": false,
          "internalType": "uint256",
          "name": "_amount",
          "type": "uint256"
        }
      ],
      "name": "Yield",
      "type": "event"
    },
    {
      "anonymous": false,
      "inputs": [
        {
          "indexed": false,
          "internalType": "uint256",
          "name": "_amount",
          "type": "uint256"
        }
      ],
      "name": "YieldFee",
      "type": "event"
    },
    {
      "inputs": [],
      "name": "Router",
      "outputs": [
        {
          "internalType": "contract IUniRouter",
          "name": "",
          "type": "address"
        }
      ],
      "stateMutability": "view",
      "type": "function"
    },
    {
      "inputs": [],
      "name": "WNEAR",
      "outputs": [
        {
          "internalType": "contract IERC20Upgradeable",
          "name": "",
          "type": "address"
        }
      ],
      "stateMutability": "view",
      "type": "function"
    },
    {
      "inputs": [],
      "name": "admin",
      "outputs": [
        {
          "internalType": "address",
          "name": "",
          "type": "address"
        }
      ],
      "stateMutability": "view",
      "type": "function"
    },
    {
      "inputs": [
        {
          "internalType": "address",
          "name": "owner",
          "type": "address"
        },
        {
          "internalType": "address",
          "name": "spender",
          "type": "address"
        }
      ],
      "name": "allowance",
      "outputs": [
        {
          "internalType": "uint256",
          "name": "",
          "type": "uint256"
        }
      ],
      "stateMutability": "view",
      "type": "function"
    },
    {
      "inputs": [
        {
          "internalType": "address",
          "name": "spender",
          "type": "address"
        },
        {
          "internalType": "uint256",
          "name": "amount",
          "type": "uint256"
        }
      ],
      "name": "approve",
      "outputs": [
        {
          "internalType": "bool",
          "name": "",
          "type": "bool"
        }
      ],
      "stateMutability": "nonpayable",
      "type": "function"
    },
    {
      "inputs": [
        {
          "internalType": "address",
          "name": "account",
          "type": "address"
        }
      ],
      "name": "balanceOf",
      "outputs": [
        {
          "internalType": "uint256",
          "name": "",
          "type": "uint256"
        }
      ],
      "stateMutability": "view",
      "type": "function"
    },
    {
      "inputs": [],
      "name": "cToken",
      "outputs": [
        {
          "internalType": "contract ICToken",
          "name": "",
          "type": "address"
        }
      ],
      "stateMutability": "view",
      "type": "function"
    },
    {
      "inputs": [],
      "name": "comptroller",
      "outputs": [
        {
          "internalType": "contract IComptroller",
          "name": "",
          "type": "address"
        }
      ],
      "stateMutability": "view",
      "type": "function"
    },
    {
      "inputs": [],
      "name": "decimals",
      "outputs": [
        {
          "internalType": "uint8",
          "name": "",
          "type": "uint8"
        }
      ],
      "stateMutability": "view",
      "type": "function"
    },
    {
      "inputs": [
        {
          "internalType": "address",
          "name": "spender",
          "type": "address"
        },
        {
          "internalType": "uint256",
          "name": "subtractedValue",
          "type": "uint256"
        }
      ],
      "name": "decreaseAllowance",
      "outputs": [
        {
          "internalType": "bool",
          "name": "",
          "type": "bool"
        }
      ],
      "stateMutability": "nonpayable",
      "type": "function"
    },
    {
      "inputs": [
        {
          "internalType": "uint256",
          "name": "_amount",
          "type": "uint256"
        }
      ],
      "name": "deposit",
      "outputs": [],
      "stateMutability": "nonpayable",
      "type": "function"
    },
    {
      "inputs": [],
      "name": "emergencyWithdraw",
      "outputs": [],
      "stateMutability": "nonpayable",
      "type": "function"
    },
    {
      "inputs": [],
      "name": "getAPR",
      "outputs": [
        {
          "internalType": "uint256",
          "name": "",
          "type": "uint256"
        }
      ],
      "stateMutability": "view",
      "type": "function"
    },
    {
      "inputs": [],
      "name": "getAllPool",
      "outputs": [
        {
          "internalType": "uint256",
          "name": "",
          "type": "uint256"
        }
      ],
      "stateMutability": "view",
      "type": "function"
    },
    {
      "inputs": [],
      "name": "getAllPoolInUSD",
      "outputs": [
        {
          "internalType": "uint256",
          "name": "",
          "type": "uint256"
        }
      ],
      "stateMutability": "view",
      "type": "function"
    },
    {
      "inputs": [],
      "name": "getBlocksPerYear",
      "outputs": [
        {
          "internalType": "uint256",
          "name": "",
          "type": "uint256"
        }
      ],
      "stateMutability": "view",
      "type": "function"
    },
    {
      "inputs": [],
      "name": "getPendingRewards",
      "outputs": [
        {
          "internalType": "uint256",
          "name": "",
          "type": "uint256"
        }
      ],
      "stateMutability": "view",
      "type": "function"
    },
    {
      "inputs": [
        {
          "internalType": "bool",
          "name": "inUSD",
          "type": "bool"
        }
      ],
      "name": "getPricePerFullShare",
      "outputs": [
        {
          "internalType": "uint256",
          "name": "",
          "type": "uint256"
        }
      ],
      "stateMutability": "view",
      "type": "function"
    },
    {
      "inputs": [
        {
          "internalType": "address",
          "name": "spender",
          "type": "address"
        },
        {
          "internalType": "uint256",
          "name": "addedValue",
          "type": "uint256"
        }
      ],
      "name": "increaseAllowance",
      "outputs": [
        {
          "internalType": "bool",
          "name": "",
          "type": "bool"
        }
      ],
      "stateMutability": "nonpayable",
      "type": "function"
    },
    {
      "inputs": [
        {
          "internalType": "string",
          "name": "_name",
          "type": "string"
        },
        {
          "internalType": "string",
          "name": "_symbol",
          "type": "string"
        },
        {
          "internalType": "address",
          "name": "_treasury",
          "type": "address"
        },
        {
          "internalType": "address",
          "name": "_admin",
          "type": "address"
        },
        {
          "internalType": "address",
          "name": "_priceOracle",
          "type": "address"
        },
        {
          "internalType": "contract ICToken",
          "name": "_cToken",
          "type": "address"
        }
      ],
      "name": "initialize",
      "outputs": [],
      "stateMutability": "nonpayable",
      "type": "function"
    },
    {
      "inputs": [],
      "name": "name",
      "outputs": [
        {
          "internalType": "string",
          "name": "",
          "type": "string"
        }
      ],
      "stateMutability": "view",
      "type": "function"
    },
    {
      "inputs": [],
      "name": "owner",
      "outputs": [
        {
          "internalType": "address",
          "name": "",
          "type": "address"
        }
      ],
      "stateMutability": "view",
      "type": "function"
    },
    {
      "inputs": [],
      "name": "paused",
      "outputs": [
        {
          "internalType": "bool",
          "name": "",
          "type": "bool"
        }
      ],
      "stateMutability": "view",
      "type": "function"
    },
    {
      "inputs": [],
      "name": "priceOracle",
      "outputs": [
        {
          "internalType": "contract IPriceOracle",
          "name": "",
          "type": "address"
        }
      ],
      "stateMutability": "view",
      "type": "function"
    },
    {
      "inputs": [],
      "name": "reinvest",
      "outputs": [],
      "stateMutability": "nonpayable",
      "type": "function"
    },
    {
      "inputs": [],
      "name": "renounceOwnership",
      "outputs": [],
      "stateMutability": "nonpayable",
      "type": "function"
    },
    {
      "inputs": [],
      "name": "rewardDistributor",
      "outputs": [
        {
          "internalType": "contract IRewardDistributor",
          "name": "",
          "type": "address"
        }
      ],
      "stateMutability": "view",
      "type": "function"
    },
    {
      "inputs": [
        {
          "internalType": "address",
          "name": "_newAdmin",
          "type": "address"
        }
      ],
      "name": "setAdmin",
      "outputs": [],
      "stateMutability": "nonpayable",
      "type": "function"
    },
    {
      "inputs": [
        {
          "internalType": "uint256",
          "name": "_yieldFeePerc",
          "type": "uint256"
        }
      ],
      "name": "setFee",
      "outputs": [],
      "stateMutability": "nonpayable",
      "type": "function"
    },
    {
      "inputs": [
        {
          "internalType": "address",
          "name": "_wallet",
          "type": "address"
        }
      ],
      "name": "setTreasuryWallet",
      "outputs": [],
      "stateMutability": "nonpayable",
      "type": "function"
    },
    {
      "inputs": [],
      "name": "symbol",
      "outputs": [
        {
          "internalType": "string",
          "name": "",
          "type": "string"
        }
      ],
      "stateMutability": "view",
      "type": "function"
    },
    {
      "inputs": [],
      "name": "token",
      "outputs": [
        {
          "internalType": "contract IERC20Upgradeable",
          "name": "",
          "type": "address"
        }
      ],
      "stateMutability": "view",
      "type": "function"
    },
    {
      "inputs": [],
      "name": "totalSupply",
      "outputs": [
        {
          "internalType": "uint256",
          "name": "",
          "type": "uint256"
        }
      ],
      "stateMutability": "view",
      "type": "function"
    },
    {
      "inputs": [
        {
          "internalType": "address",
          "name": "to",
          "type": "address"
        },
        {
          "internalType": "uint256",
          "name": "amount",
          "type": "uint256"
        }
      ],
      "name": "transfer",
      "outputs": [
        {
          "internalType": "bool",
          "name": "",
          "type": "bool"
        }
      ],
      "stateMutability": "nonpayable",
      "type": "function"
    },
    {
      "inputs": [
        {
          "internalType": "address",
          "name": "from",
          "type": "address"
        },
        {
          "internalType": "address",
          "name": "to",
          "type": "address"
        },
        {
          "internalType": "uint256",
          "name": "amount",
          "type": "uint256"
        }
      ],
      "name": "transferFrom",
      "outputs": [
        {
          "internalType": "bool",
          "name": "",
          "type": "bool"
        }
      ],
      "stateMutability": "nonpayable",
      "type": "function"
    },
    {
      "inputs": [
        {
          "internalType": "address",
          "name": "newOwner",
          "type": "address"
        }
      ],
      "name": "transferOwnership",
      "outputs": [],
      "stateMutability": "nonpayable",
      "type": "function"
    },
    {
      "inputs": [],
      "name": "treasuryWallet",
      "outputs": [
        {
          "internalType": "address",
          "name": "",
          "type": "address"
        }
      ],
      "stateMutability": "view",
      "type": "function"
    },
    {
      "inputs": [],
      "name": "updateRewardDistributor",
      "outputs": [],
      "stateMutability": "nonpayable",
      "type": "function"
    },
    {
      "inputs": [
        {
          "internalType": "uint256",
          "name": "_shares",
          "type": "uint256"
        }
      ],
      "name": "withdraw",
      "outputs": [],
      "stateMutability": "nonpayable",
      "type": "function"
    },
    {
      "inputs": [],
      "name": "yield",
      "outputs": [],
      "stateMutability": "nonpayable",
      "type": "function"
    },
    {
      "inputs": [],
      "name": "yieldFee",
      "outputs": [
        {
          "internalType": "uint256",
          "name": "",
          "type": "uint256"
        }
      ],
      "stateMutability": "view",
      "type": "function"
    }
  ],
  "transactionHash": "0x8c6d516144f5a998f6119a7dece5e220955f07da26b5c953d43263338e608ea3",
  "args": [],
  "numDeployments": 1,
  "solcInputHash": "fd38603a9c3024f7d905d075d5033bd0",
  "bytecode": "0x608060405234801561001057600080fd5b506142a8806100206000396000f3fe608060405234801561001057600080fd5b50600436106102535760003560e01c80638da5cb5b11610146578063c89d5b8b116100c3578063f2fde38b11610087578063f2fde38b146104cc578063f66fed26146104df578063f6d7eade146104e7578063f851a44014610502578063fc0c546a14610516578063fdb5a03e1461052957600080fd5b8063c89d5b8b1461048e578063d9621f9e14610496578063db2e21bc1461049e578063dd62ed3e146104a6578063e56f2fe4146104b957600080fd5b8063a9059cbb1161010a578063a9059cbb14610431578063acc2166a14610444578063b6b55f2514610458578063b9875f531461046b578063bd244af41461048657600080fd5b80638da5cb5b146103ea57806395d89b41146103fb578063a20a4cb414610403578063a457c2d71461040b578063a8602fea1461041e57600080fd5b806339509351116101d457806369fe0e2d1161019857806369fe0e2d14610389578063704b6c021461039c57806370a08231146103af578063715018a6146103d8578063741de148146103e057600080fd5b806339509351146103325780634626402b146103455780635c975abb146103585780635fe3b5671461036357806369e527da1461037657600080fd5b806323b872dd1161021b57806323b872dd146102c75780632630c12f146102da57806328593984146103065780632e1a7d4d14610310578063313ce5671461032357600080fd5b8063034f40831461025857806306fdde0314610274578063095ea7b31461028957806318160ddd146102ac57806320f14908146102b4575b600080fd5b61026160fb5481565b6040519081526020015b60405180910390f35b61027c610531565b60405161026b91906139e3565b61029c610297366004613a2b565b6105c3565b604051901515815260200161026b565b603554610261565b6102616102c2366004613a65565b6105dd565b61029c6102d5366004613a82565b610660565b610101546102ee906001600160a01b031681565b6040516001600160a01b03909116815260200161026b565b61030e610684565b005b61030e61031e366004613ac3565b6106fa565b6040516012815260200161026b565b61029c610340366004613a2b565b610b0b565b60ff546102ee906001600160a01b031681565b60975460ff1661029c565b60fe546102ee906001600160a01b031681565b60fc546102ee906001600160a01b031681565b61030e610397366004613ac3565b610b2d565b61030e6103aa366004613adc565b610bdd565b6102616103bd366004613adc565b6001600160a01b031660009081526033602052604090205490565b61030e610c69565b6301b919e0610261565b6065546001600160a01b03166102ee565b61027c610c9d565b610261610cac565b61029c610419366004613a2b565b610e67565b61030e61042c366004613adc565b610ee2565b61029c61043f366004613a2b565b610fa1565b61012c546102ee906001600160a01b031681565b61030e610466366004613ac3565b610faf565b6102ee73c42c30ac6cc15fac9bd938618bcaa1a1fae8501d81565b610261611216565b610261611240565b610261611560565b61030e611638565b6102616104b4366004613af9565b6117df565b61030e6104c7366004613be9565b61180a565b61030e6104da366004613adc565b611894565b61030e61192f565b6102ee732cb45edb4517d5947afde3beabf95a582506858b81565b610100546102ee906001600160a01b031681565b60fd546102ee906001600160a01b031681565b61030e611961565b60606036805461054090613c98565b80601f016020809104026020016040519081016040528092919081815260200182805461056c90613c98565b80156105b95780601f1061058e576101008083540402835291602001916105b9565b820191906000526020600020905b81548152906001019060200180831161059c57829003601f168201915b5050505050905090565b6000336105d18185856119fa565b60019150505b92915050565b6000806105e960355490565b9050806106005750670de0b6b3a764000092915050565b6001831515146106345780610613610cac565b61062590670de0b6b3a7640000613ce3565b61062f9190613d02565b610659565b8061063d611216565b61064f90670de0b6b3a7640000613ce3565b6106599190613d02565b9392505050565b60003361066e858285611b1f565b610679858585611b99565b506001949350505050565b6065546001600160a01b03163314806106a85750610100546001600160a01b031633145b6106cd5760405162461bcd60e51b81526004016106c490613d24565b60405180910390fd5b60975460ff16156106f05760405162461bcd60e51b81526004016106c490613d51565b6106f8611d67565b565b600260c954141561074d5760405162461bcd60e51b815260206004820152601f60248201527f5265656e7472616e637947756172643a207265656e7472616e742063616c6c0060448201526064016106c4565b600260c955806107905760405162461bcd60e51b815260206004820152600e60248201526d125b9d985b1a5908105b5bdd5b9d60921b60448201526064016106c4565b336000908152603360205260409020548111156107e45760405162461bcd60e51b81526020600482015260126024820152714e6f7420656e6f7567682062616c616e636560701b60448201526064016106c4565b33600090815261010260205260409020544314156108445760405162461bcd60e51b815260206004820152601a60248201527f57697468647261772077697468696e2073616d6520626c6f636b00000000000060448201526064016106c4565b600061084e610cac565b9050600061085b60355490565b6108658484613ce3565b61086f9190613d02565b60fd546040516370a0823160e01b81523060048201529192506000916001600160a01b03909116906370a082319060240160206040518083038186803b1580156108b857600080fd5b505afa1580156108cc573d6000803e3d6000fd5b505050506040513d601f19601f820116820180604052508101906108f09190613d7b565b905081811015610a9d5760fc546001600160a01b031663db006a756109158386613d94565b61091f8486613d94565b60fc546040516370a0823160e01b81523060048201526001600160a01b03909116906370a082319060240160206040518083038186803b15801561096257600080fd5b505afa158015610976573d6000803e3d6000fd5b505050506040513d601f19601f8201168201806040525081019061099a9190613d7b565b6109a49190613ce3565b6109ae9190613d02565b6040518263ffffffff1660e01b81526004016109cc91815260200190565b602060405180830381600087803b1580156109e657600080fd5b505af11580156109fa573d6000803e3d6000fd5b505050506040513d601f19601f82011682018060405250810190610a1e9190613d7b565b5060fd546040516370a0823160e01b81523060048201526001600160a01b03909116906370a082319060240160206040518083038186803b158015610a6257600080fd5b505afa158015610a76573d6000803e3d6000fd5b505050506040513d601f19601f82011682018060405250810190610a9a9190613d7b565b91505b610aa733856120e5565b60fd54610abe906001600160a01b03163384612230565b60408051338152602081018490529081018590527ff279e6a1f5e320cca91135676d9cb6e44ca8a08c0b88342bcdb1144f6511b568906060015b60405180910390a15050600160c9555050565b6000336105d1818585610b1e83836117df565b610b289190613dab565b6119fa565b6065546001600160a01b03163314610b575760405162461bcd60e51b81526004016106c490613dc3565b610bb98110610ba15760405162461bcd60e51b81526020600482015260166024820152755969656c64204665652063616e6e6f74203e2033302560501b60448201526064016106c4565b60fb8190556040518181527f5cdc47cbc2be1e35e5429dd646b1e2047ab328f4108873ab71318989f7566ceb906020015b60405180910390a150565b6065546001600160a01b03163314610c075760405162461bcd60e51b81526004016106c490613dc3565b61010080546001600160a01b038381166001600160a01b031983168117909355604080519190921680825260208201939093527f848ac24ab84501710d6631faab117b66b79aba7ec6f7778cf3bcff428c1a4efc910160405180910390a15050565b6065546001600160a01b03163314610c935760405162461bcd60e51b81526004016106c490613dc3565b6106f86000612293565b60606037805461054090613c98565b60008060fc60009054906101000a90046001600160a01b03166001600160a01b031663182df0f56040518163ffffffff1660e01b815260040160206040518083038186803b158015610cfd57600080fd5b505afa158015610d11573d6000803e3d6000fd5b505050506040513d601f19601f82011682018060405250810190610d359190613d7b565b60fc546040516370a0823160e01b8152306004820152919250600091670de0b6b3a76400009184916001600160a01b03909116906370a082319060240160206040518083038186803b158015610d8a57600080fd5b505afa158015610d9e573d6000803e3d6000fd5b505050506040513d601f19601f82011682018060405250810190610dc29190613d7b565b610dcc9190613ce3565b610dd69190613d02565b60fd546040516370a0823160e01b815230600482015291925082916001600160a01b03909116906370a082319060240160206040518083038186803b158015610e1e57600080fd5b505afa158015610e32573d6000803e3d6000fd5b505050506040513d601f19601f82011682018060405250810190610e569190613d7b565b610e609190613dab565b9250505090565b60003381610e7582866117df565b905083811015610ed55760405162461bcd60e51b815260206004820152602560248201527f45524332303a2064656372656173656420616c6c6f77616e63652062656c6f77604482015264207a65726f60d81b60648201526084016106c4565b61067982868684036119fa565b6065546001600160a01b03163314610f0c5760405162461bcd60e51b81526004016106c490613dc3565b6001600160a01b038116610f535760405162461bcd60e51b815260206004820152600e60248201526d1dd85b1b195d081a5b9d985b1a5960921b60448201526064016106c4565b60ff80546001600160a01b0319166001600160a01b0383169081179091556040519081527f60edc991b058a7e279075cf86f19a6b478334efec47e089d09890b139c78232790602001610bd2565b6000336105d1818585611b99565b600260c95414156110025760405162461bcd60e51b815260206004820152601f60248201527f5265656e7472616e637947756172643a207265656e7472616e742063616c6c0060448201526064016106c4565b600260c95560975460ff161561102a5760405162461bcd60e51b81526004016106c490613d51565b6000811161106b5760405162461bcd60e51b815260206004820152600e60248201526d125b9d985b1a5908185b5bdd5b9d60921b60448201526064016106c4565b6000611075610cac565b60fd54909150611090906001600160a01b03163330856122e5565b33600090815261010260205260409081902043905560fc5460fd5491516370a0823160e01b81523060048201526001600160a01b039182169263a0712d689216906370a082319060240160206040518083038186803b1580156110f257600080fd5b505afa158015611106573d6000803e3d6000fd5b505050506040513d601f19601f8201168201806040525081019061112a9190613d7b565b6040518263ffffffff1660e01b815260040161114891815260200190565b602060405180830381600087803b15801561116257600080fd5b505af1158015611176573d6000803e3d6000fd5b505050506040513d601f19601f8201168201806040525081019061119a9190613d7b565b5060006111a660355490565b9050600081156111ca57826111bb8386613ce3565b6111c59190613d02565b6111cc565b835b90506111d8338261231d565b60408051338152602081018690529081018290527f90890809c654f11d6e72a28fa60149770a0d11ec6c92319d6ceb2bb0a4ea1a1590606001610af8565b600080611221610cac565b60fd5490915061123a906001600160a01b0316826123fc565b91505090565b60008060005b60028110156113a75761012c5460fc5460405162619cc760e31b815260ff841660048201526001600160a01b039182166024820152600092919091169063030ce6389060440160206040518083038186803b1580156112a457600080fd5b505afa1580156112b8573d6000803e3d6000fd5b505050506040513d601f19601f820116820180604052508101906112dc9190613d7b565b905080156113945761012c54604051632c36c65960e21b8152600481018490526000916001600160a01b03169063b0db19649060240160206040518083038186803b15801561132a57600080fd5b505afa15801561133e573d6000803e3d6000fd5b505050506040513d601f19601f820116820180604052508101906113629190613df8565b9050611386816113776201518061016d613ce3565b6113819085613ce3565b6123fc565b6113909085613dab565b9350505b508061139f81613e15565b915050611246565b508015611554576000670de0b6b3a764000060fc60009054906101000a90046001600160a01b03166001600160a01b031663182df0f56040518163ffffffff1660e01b815260040160206040518083038186803b15801561140757600080fd5b505afa15801561141b573d6000803e3d6000fd5b505050506040513d601f19601f8201168201806040525081019061143f9190613d7b565b60fc60009054906101000a90046001600160a01b03166001600160a01b03166318160ddd6040518163ffffffff1660e01b815260040160206040518083038186803b15801561148d57600080fd5b505afa1580156114a1573d6000803e3d6000fd5b505050506040513d601f19601f820116820180604052508101906114c59190613d7b565b6114cf9190613ce3565b6114d99190613d02565b60fd549091506000906114f5906001600160a01b0316836123fc565b61150784670de0b6b3a7640000613ce3565b6115119190613d02565b905061271060fb546127106115269190613d94565b6115309083613ce3565b61153a9190613d02565b611542612532565b61154c9190613dab565b935050505090565b61123a612532565b5090565b60008060005b60028160ff16101561163257600061157d826125ce565b9050801561161f5761012c54604051632c36c65960e21b815260ff841660048201526000916001600160a01b03169063b0db19649060240160206040518083038186803b1580156115cd57600080fd5b505afa1580156115e1573d6000803e3d6000fd5b505050506040513d601f19601f820116820180604052508101906116059190613df8565b905061161181836123fc565b61161b9085613dab565b9350505b508061162a81613e30565b915050611566565b50919050565b6065546001600160a01b031633148061165c5750610100546001600160a01b031633145b6116785760405162461bcd60e51b81526004016106c490613d24565b60975460ff161561169b5760405162461bcd60e51b81526004016106c490613d51565b6116a3612a0d565b6116ab611d67565b60fc546040516370a0823160e01b81523060048201526000916001600160a01b0316906370a082319060240160206040518083038186803b1580156116ef57600080fd5b505afa158015611703573d6000803e3d6000fd5b505050506040513d601f19601f820116820180604052508101906117279190613d7b565b905080156117af5760fc5460405163db006a7560e01b8152600481018390526001600160a01b039091169063db006a7590602401602060405180830381600087803b15801561177557600080fd5b505af1158015611789573d6000803e3d6000fd5b505050506040513d601f19601f820116820180604052508101906117ad9190613d7b565b505b6040518181527f99d7f8b71cfb9126984f7a5eed3a40e64a8959e9b0e442221546fb04ec6a489c90602001610bd2565b6001600160a01b03918216600090815260346020908152604080832093909416825291909152205490565b60006118166001612a82565b9050801561182e576000805461ff0019166101001790555b61183c878787878787612b0f565b611844612eda565b801561188b576000805461ff0019169055604051600181527f7f26b83ff96e1f2b6a682f133852f6798a09c465da95921460cefb3847402498906020015b60405180910390a15b50505050505050565b6065546001600160a01b031633146118be5760405162461bcd60e51b81526004016106c490613dc3565b6001600160a01b0381166119235760405162461bcd60e51b815260206004820152602660248201527f4f776e61626c653a206e6577206f776e657220697320746865207a65726f206160448201526564647265737360d01b60648201526084016106c4565b61192c81612293565b50565b6065546001600160a01b031633146119595760405162461bcd60e51b81526004016106c490613dc3565b6106f8612eda565b6065546001600160a01b03163314806119855750610100546001600160a01b031633145b6119a15760405162461bcd60e51b81526004016106c490613d24565b60975460ff166119ea5760405162461bcd60e51b815260206004820152601460248201527314185d5cd8589b194e881b9bdd081c185d5cd95960621b60448201526064016106c4565b6119f261304f565b61192c6130c9565b6001600160a01b038316611a5c5760405162461bcd60e51b8152602060048201526024808201527f45524332303a20617070726f76652066726f6d20746865207a65726f206164646044820152637265737360e01b60648201526084016106c4565b6001600160a01b038216611abd5760405162461bcd60e51b815260206004820152602260248201527f45524332303a20617070726f766520746f20746865207a65726f206164647265604482015261737360f01b60648201526084016106c4565b6001600160a01b0383811660008181526034602090815260408083209487168084529482529182902085905590518481527f8c5be1e5ebec7d5bd14f71427d1e84f3dd0314c0f7b2291e5b200ac8c7c3b92591015b60405180910390a3505050565b6000611b2b84846117df565b90506000198114611b935781811015611b865760405162461bcd60e51b815260206004820152601d60248201527f45524332303a20696e73756666696369656e7420616c6c6f77616e636500000060448201526064016106c4565b611b9384848484036119fa565b50505050565b6001600160a01b038316611bfd5760405162461bcd60e51b815260206004820152602560248201527f45524332303a207472616e736665722066726f6d20746865207a65726f206164604482015264647265737360d81b60648201526084016106c4565b6001600160a01b038216611c5f5760405162461bcd60e51b815260206004820152602360248201527f45524332303a207472616e7366657220746f20746865207a65726f206164647260448201526265737360e81b60648201526084016106c4565b6001600160a01b03831660009081526033602052604090205481811015611cd75760405162461bcd60e51b815260206004820152602660248201527f45524332303a207472616e7366657220616d6f756e7420657863656564732062604482015265616c616e636560d01b60648201526084016106c4565b6001600160a01b03808516600090815260336020526040808220858503905591851681529081208054849290611d0e908490613dab565b92505081905550826001600160a01b0316846001600160a01b03167fddf252ad1be2c89b69c2b068fc378daa952ba7f163c4a11628f55a4df523b3ef84604051611d5a91815260200190565b60405180910390a3611b93565b60408051600180825281830190925260009160208083019080368337505060fc5482519293506001600160a01b031691839150600090611da957611da9613e50565b60200260200101906001600160a01b031690816001600160a01b03168152505060005b60028160ff1610156120d85761012c54604051633a22995760e11b81526001600160a01b039091169063744532ae90611e0d90849030908790600401613eaa565b600060405180830381600087803b158015611e2757600080fd5b505af1158015611e3b573d6000803e3d6000fd5b505061012c54604051632c36c65960e21b815260ff85166004820152600093506001600160a01b03909116915063b0db19649060240160206040518083038186803b158015611e8957600080fd5b505afa158015611e9d573d6000803e3d6000fd5b505050506040513d601f19601f82011682018060405250810190611ec19190613df8565b6040516370a0823160e01b81523060048201529091506000906001600160a01b038316906370a082319060240160206040518083038186803b158015611f0657600080fd5b505afa158015611f1a573d6000803e3d6000fd5b505050506040513d601f19601f82011682018060405250810190611f3e9190613d7b565b905080156120c357600061271060fb5483611f599190613ce3565b611f639190613d02565b60ff54909150611f80906001600160a01b03858116911683612230565b611f8a8183613d94565b60fd549092506001600160a01b038481169116146120285760fd546001600160a01b031673c42c30ac6cc15fac9bd938618bcaa1a1fae8501d1480611feb57506001600160a01b03831673c42c30ac6cc15fac9bd938618bcaa1a1fae8501d145b1561200e5760fd546120089084906001600160a01b0316846131ce565b50612028565b60fd546120269084906001600160a01b03168461330d565b505b6000612038846113818486613dab565b90507f913f67bfd2c6ac4a84007665147ed6861715996d03ed38d610c52e28c08838038160405161206b91815260200190565b60405180910390a17f6d415483528749d9b4bfa85837aeca6271d845839c39bfa4614240e15dabeb1e61271060fb54836120a59190613ce3565b6120af9190613d02565b60405190815260200160405180910390a150505b505080806120d090613e30565b915050611dcc565b506120e16130c9565b5050565b6001600160a01b0382166121455760405162461bcd60e51b815260206004820152602160248201527f45524332303a206275726e2066726f6d20746865207a65726f206164647265736044820152607360f81b60648201526084016106c4565b6001600160a01b038216600090815260336020526040902054818110156121b95760405162461bcd60e51b815260206004820152602260248201527f45524332303a206275726e20616d6f756e7420657863656564732062616c616e604482015261636560f01b60648201526084016106c4565b6001600160a01b03831660009081526033602052604081208383039055603580548492906121e8908490613d94565b90915550506040518281526000906001600160a01b038516907fddf252ad1be2c89b69c2b068fc378daa952ba7f163c4a11628f55a4df523b3ef90602001611b12565b505050565b6040516001600160a01b03831660248201526044810182905261222b90849063a9059cbb60e01b906064015b60408051601f198184030181529190526020810180516001600160e01b03166001600160e01b031990931692909217909152613483565b606580546001600160a01b038381166001600160a01b0319831681179093556040519116919082907f8be0079c531659141344cd1fd0a4f28419497f9722a3daafe3b4186f6b6457e090600090a35050565b6040516001600160a01b0380851660248301528316604482015260648101829052611b939085906323b872dd60e01b9060840161225c565b6001600160a01b0382166123735760405162461bcd60e51b815260206004820152601f60248201527f45524332303a206d696e7420746f20746865207a65726f20616464726573730060448201526064016106c4565b80603560008282546123859190613dab565b90915550506001600160a01b038216600090815260336020526040812080548392906123b2908490613dab565b90915550506040518181526001600160a01b038316906000907fddf252ad1be2c89b69c2b068fc378daa952ba7f163c4a11628f55a4df523b3ef9060200160405180910390a35050565b6101015460405163b3596f0760e01b81526001600160a01b038481166004830152600092839283929091169063b3596f0790602401604080518083038186803b15801561244857600080fd5b505afa15801561245c573d6000803e3d6000fd5b505050506040513d601f19601f820116820180604052508101906124809190613ef1565b915091506000856001600160a01b031663313ce5676040518163ffffffff1660e01b815260040160206040518083038186803b1580156124bf57600080fd5b505afa1580156124d3573d6000803e3d6000fd5b505050506040513d601f19601f820116820180604052508101906124f79190613f1d565b905061250482600a61401c565b83612514878460ff166012613555565b61251e9190613ce3565b6125289190613d02565b9695505050505050565b60006301b919e060fc60009054906101000a90046001600160a01b03166001600160a01b031663ae9d70b06040518163ffffffff1660e01b815260040160206040518083038186803b15801561258757600080fd5b505afa15801561259b573d6000803e3d6000fd5b505050506040513d601f19601f820116820180604052508101906125bf9190613d7b565b6125c99190613ce3565b905090565b61012c5460fc5460405163d81c5e4560e01b815260ff841660048201526001600160a01b0391821660248201526000928392169063d81c5e4590604401604080518083038186803b15801561262257600080fd5b505afa158015612636573d6000803e3d6000fd5b505050506040513d601f19601f8201168201806040525081019061265a919061402b565b61012c5460fc5460405162619cc760e31b815260ff871660048201526001600160a01b03918216602482015292935060009291169063030ce6389060440160206040518083038186803b1580156126b057600080fd5b505afa1580156126c4573d6000803e3d6000fd5b505050506040513d601f19601f820116820180604052508101906126e89190613d7b565b90506000826020015163ffffffff16426127029190613d94565b90506000811180156127145750600082115b15612a055760fc54604080516318160ddd60e01b815290516000926001600160a01b0316916318160ddd916004808301926020929190829003018186803b15801561275e57600080fd5b505afa158015612772573d6000803e3d6000fd5b505050506040513d601f19601f820116820180604052508101906127969190613d7b565b905060006127a48484613ce3565b905060008083116127b65760006127da565b826127d06ec097ce7bc90715b34b9f100000000084613ce3565b6127da9190613d02565b905060008187600001516001600160e01b03166127f79190613dab565b61012c5460fc5460405163111d2e5760e31b815260ff8d1660048201526001600160a01b0391821660248201523060448201529293506000929116906388e972b89060640160206040518083038186803b15801561285457600080fd5b505afa158015612868573d6000803e3d6000fd5b505050506040513d601f19601f8201168201806040525081019061288c9190613d7b565b90508015801561289c5750600082115b156128b357506ec097ce7bc90715b34b9f10000000005b60006128bf8284613d94565b60fc546040516370a0823160e01b81523060048201529192506000916ec097ce7bc90715b34b9f10000000009184916001600160a01b03909116906370a082319060240160206040518083038186803b15801561291b57600080fd5b505afa15801561292f573d6000803e3d6000fd5b505050506040513d601f19601f820116820180604052508101906129539190613d7b565b61295d9190613ce3565b6129679190613d02565b61012c546040516305b9783d60e01b815260ff8f16600482015230602482015291925082916001600160a01b03909116906305b9783d9060440160206040518083038186803b1580156129b957600080fd5b505afa1580156129cd573d6000803e3d6000fd5b505050506040513d601f19601f820116820180604052508101906129f19190613d7b565b6129fb9190613dab565b9a50505050505050505b505050919050565b60975460ff1615612a305760405162461bcd60e51b81526004016106c490613d51565b6097805460ff191660011790557f62e78cea01bee320cd4e420270b5ea74000d11b0c9f74754ebdbfc544b05a258612a653390565b6040516001600160a01b03909116815260200160405180910390a1565b60008054610100900460ff1615612ac9578160ff166001148015612aa55750303b155b612ac15760405162461bcd60e51b81526004016106c49061409f565b506000919050565b60005460ff808416911610612af05760405162461bcd60e51b81526004016106c49061409f565b506000805460ff191660ff92909216919091179055600190565b919050565b6000612b1b6001612a82565b90508015612b33576000805461ff0019166101001790555b612b3d87876135a4565b612b456135d5565b60ff80546001600160a01b038088166001600160a01b031992831617909255610100805487841690831617905561010180548684169083161790556107d060fb5560fc8054928516929091168217905560408051636f307dc360e01b81529051636f307dc391600481810192602092909190829003018186803b158015612bcb57600080fd5b505afa158015612bdf573d6000803e3d6000fd5b505050506040513d601f19601f82011682018060405250810190612c039190613df8565b60fd60006101000a8154816001600160a01b0302191690836001600160a01b03160217905550816001600160a01b031663313ce5676040518163ffffffff1660e01b815260040160206040518083038186803b158015612c6257600080fd5b505afa158015612c76573d6000803e3d6000fd5b505050506040513d601f19601f82011682018060405250810190612c9a9190613f1d565b60fd60146101000a81548160ff021916908360ff160217905550816001600160a01b0316635fe3b5676040518163ffffffff1660e01b815260040160206040518083038186803b158015612ced57600080fd5b505afa158015612d01573d6000803e3d6000fd5b505050506040513d601f19601f82011682018060405250810190612d259190613df8565b60fe80546001600160a01b0319166001600160a01b0392909216919091179055604080516001808252818301909252600091602080830190803683370190505090508281600081518110612d7b57612d7b613e50565b6001600160a01b03928316602091820292909201015260fe54604051631853304760e31b815291169063c299823890612db89084906004016140ed565b600060405180830381600087803b158015612dd257600080fd5b505af1158015612de6573d6000803e3d6000fd5b505050506040513d6000823e601f3d908101601f19168201604052612e0e9190810190614100565b5060fd5460405163095ea7b360e01b81526001600160a01b03858116600483015260001960248301529091169063095ea7b390604401602060405180830381600087803b158015612e5e57600080fd5b505af1158015612e72573d6000803e3d6000fd5b505050506040513d601f19601f82011682018060405250810190612e9691906141a6565b5050801561188b576000805461ff0019169055604051600181527f7f26b83ff96e1f2b6a682f133852f6798a09c465da95921460cefb384740249890602001611882565b60fe60009054906101000a90046001600160a01b03166001600160a01b031663acc2166a6040518163ffffffff1660e01b815260040160206040518083038186803b158015612f2857600080fd5b505afa158015612f3c573d6000803e3d6000fd5b505050506040513d601f19601f82011682018060405250810190612f609190613df8565b61012c80546001600160a01b0319166001600160a01b039290921691909117905560005b60028160ff16101561192c5761012c54604051632c36c65960e21b815260ff831660048201526000916001600160a01b03169063b0db19649060240160206040518083038186803b158015612fd857600080fd5b505afa158015612fec573d6000803e3d6000fd5b505050506040513d601f19601f820116820180604052508101906130109190613df8565b905061303c6001600160a01b038216732cb45edb4517d5947afde3beabf95a582506858b600019613604565b508061304781613e30565b915050612f84565b60975460ff166130985760405162461bcd60e51b815260206004820152601460248201527314185d5cd8589b194e881b9bdd081c185d5cd95960621b60448201526064016106c4565b6097805460ff191690557f5db9ee0a495bf2e6ff9c91a7834c1ba4fdd244a5e8aa4e537bd38aeae4b073aa33612a65565b60fd546040516370a0823160e01b81523060048201526000916001600160a01b0316906370a082319060240160206040518083038186803b15801561310d57600080fd5b505afa158015613121573d6000803e3d6000fd5b505050506040513d601f19601f820116820180604052508101906131459190613d7b565b905080156131cb5760fc5460405163140e25ad60e31b8152600481018390526001600160a01b039091169063a0712d6890602401602060405180830381600087803b15801561319357600080fd5b505af11580156131a7573d6000803e3d6000fd5b505050506040513d601f19601f8201168201806040525081019061155c9190613d7b565b90565b60408051600280825260608201835260009283929190602083019080368337019050509050848160008151811061320757613207613e50565b60200260200101906001600160a01b031690816001600160a01b031681525050838160018151811061323b5761323b613e50565b6001600160a01b03909216602092830291909101909101526040516338ed173960e01b8152732cb45edb4517d5947afde3beabf95a582506858b906338ed1739906132939086906000908690309042906004016141c3565b600060405180830381600087803b1580156132ad57600080fd5b505af11580156132c1573d6000803e3d6000fd5b505050506040513d6000823e601f3d908101601f191682016040526132e99190810190614100565b6001815181106132fb576132fb613e50565b60200260200101519150509392505050565b6040805160038082526080820190925260009182919060208201606080368337019050509050848160008151811061334757613347613e50565b60200260200101906001600160a01b031690816001600160a01b03168152505073c42c30ac6cc15fac9bd938618bcaa1a1fae8501d8160018151811061338f5761338f613e50565b60200260200101906001600160a01b031690816001600160a01b03168152505083816002815181106133c3576133c3613e50565b6001600160a01b03909216602092830291909101909101526040516338ed173960e01b8152732cb45edb4517d5947afde3beabf95a582506858b906338ed17399061341b9086906000908690309042906004016141c3565b600060405180830381600087803b15801561343557600080fd5b505af1158015613449573d6000803e3d6000fd5b505050506040513d6000823e601f3d908101601f191682016040526134719190810190614100565b6002815181106132fb576132fb613e50565b60006134d8826040518060400160405280602081526020017f5361666545524332303a206c6f772d6c6576656c2063616c6c206661696c6564815250856001600160a01b03166137289092919063ffffffff16565b80519091501561222b57808060200190518101906134f691906141a6565b61222b5760405162461bcd60e51b815260206004820152602a60248201527f5361666545524332303a204552433230206f7065726174696f6e20646964206e6044820152691bdd081cdd58d8d9595960b21b60648201526084016106c4565b600081831015613585576135698383613d94565b61357490600a6141ff565b61357e9085613ce3565b9050610659565b61358f8284613d94565b61359a90600a6141ff565b61357e9085613d02565b600054610100900460ff166135cb5760405162461bcd60e51b81526004016106c49061420b565b6120e1828261373f565b600054610100900460ff166135fc5760405162461bcd60e51b81526004016106c49061420b565b6106f861378d565b80158061368d5750604051636eb1769f60e11b81523060048201526001600160a01b03838116602483015284169063dd62ed3e9060440160206040518083038186803b15801561365357600080fd5b505afa158015613667573d6000803e3d6000fd5b505050506040513d601f19601f8201168201806040525081019061368b9190613d7b565b155b6136f85760405162461bcd60e51b815260206004820152603660248201527f5361666545524332303a20617070726f76652066726f6d206e6f6e2d7a65726f60448201527520746f206e6f6e2d7a65726f20616c6c6f77616e636560501b60648201526084016106c4565b6040516001600160a01b03831660248201526044810182905261222b90849063095ea7b360e01b9060640161225c565b606061373784846000856137bd565b949350505050565b600054610100900460ff166137665760405162461bcd60e51b81526004016106c49061420b565b8151613779906036906020850190613927565b50805161222b906037906020840190613927565b600054610100900460ff166137b45760405162461bcd60e51b81526004016106c49061420b565b6106f833612293565b60608247101561381e5760405162461bcd60e51b815260206004820152602660248201527f416464726573733a20696e73756666696369656e742062616c616e636520666f6044820152651c8818d85b1b60d21b60648201526084016106c4565b6001600160a01b0385163b6138755760405162461bcd60e51b815260206004820152601d60248201527f416464726573733a2063616c6c20746f206e6f6e2d636f6e747261637400000060448201526064016106c4565b600080866001600160a01b031685876040516138919190614256565b60006040518083038185875af1925050503d80600081146138ce576040519150601f19603f3d011682016040523d82523d6000602084013e6138d3565b606091505b50915091506138e38282866138ee565b979650505050505050565b606083156138fd575081610659565b82511561390d5782518084602001fd5b8160405162461bcd60e51b81526004016106c491906139e3565b82805461393390613c98565b90600052602060002090601f016020900481019282613955576000855561399b565b82601f1061396e57805160ff191683800117855561399b565b8280016001018555821561399b579182015b8281111561399b578251825591602001919060010190613980565b5061155c9291505b8082111561155c57600081556001016139a3565b60005b838110156139d25781810151838201526020016139ba565b83811115611b935750506000910152565b6020815260008251806020840152613a028160408501602087016139b7565b601f01601f19169190910160400192915050565b6001600160a01b038116811461192c57600080fd5b60008060408385031215613a3e57600080fd5b8235613a4981613a16565b946020939093013593505050565b801515811461192c57600080fd5b600060208284031215613a7757600080fd5b813561065981613a57565b600080600060608486031215613a9757600080fd5b8335613aa281613a16565b92506020840135613ab281613a16565b929592945050506040919091013590565b600060208284031215613ad557600080fd5b5035919050565b600060208284031215613aee57600080fd5b813561065981613a16565b60008060408385031215613b0c57600080fd5b8235613b1781613a16565b91506020830135613b2781613a16565b809150509250929050565b634e487b7160e01b600052604160045260246000fd5b604051601f8201601f1916810167ffffffffffffffff81118282101715613b7157613b71613b32565b604052919050565b600082601f830112613b8a57600080fd5b813567ffffffffffffffff811115613ba457613ba4613b32565b613bb7601f8201601f1916602001613b48565b818152846020838601011115613bcc57600080fd5b816020850160208301376000918101602001919091529392505050565b60008060008060008060c08789031215613c0257600080fd5b863567ffffffffffffffff80821115613c1a57600080fd5b613c268a838b01613b79565b97506020890135915080821115613c3c57600080fd5b50613c4989828a01613b79565b9550506040870135613c5a81613a16565b93506060870135613c6a81613a16565b92506080870135613c7a81613a16565b915060a0870135613c8a81613a16565b809150509295509295509295565b600181811c90821680613cac57607f821691505b6020821081141561163257634e487b7160e01b600052602260045260246000fd5b634e487b7160e01b600052601160045260246000fd5b6000816000190483118215151615613cfd57613cfd613ccd565b500290565b600082613d1f57634e487b7160e01b600052601260045260246000fd5b500490565b60208082526013908201527227b7363c9037bbb732b91037b91030b236b4b760691b604082015260600190565b60208082526010908201526f14185d5cd8589b194e881c185d5cd95960821b604082015260600190565b600060208284031215613d8d57600080fd5b5051919050565b600082821015613da657613da6613ccd565b500390565b60008219821115613dbe57613dbe613ccd565b500190565b6020808252818101527f4f776e61626c653a2063616c6c6572206973206e6f7420746865206f776e6572604082015260600190565b600060208284031215613e0a57600080fd5b815161065981613a16565b6000600019821415613e2957613e29613ccd565b5060010190565b600060ff821660ff811415613e4757613e47613ccd565b60010192915050565b634e487b7160e01b600052603260045260246000fd5b600081518084526020808501945080840160005b83811015613e9f5781516001600160a01b031687529582019590820190600101613e7a565b509495945050505050565b60ff841681526001600160a01b0383166020820152606060408201819052600090613ed790830184613e66565b95945050505050565b805160ff81168114612b0a57600080fd5b60008060408385031215613f0457600080fd5b82519150613f1460208401613ee0565b90509250929050565b600060208284031215613f2f57600080fd5b61065982613ee0565b600181815b80851115613f73578160001904821115613f5957613f59613ccd565b80851615613f6657918102915b93841c9390800290613f3d565b509250929050565b600082613f8a575060016105d7565b81613f97575060006105d7565b8160018114613fad5760028114613fb757613fd3565b60019150506105d7565b60ff841115613fc857613fc8613ccd565b50506001821b6105d7565b5060208310610133831016604e8410600b8410161715613ff6575081810a6105d7565b6140008383613f38565b806000190482111561401457614014613ccd565b029392505050565b600061065960ff841683613f7b565b60006040828403121561403d57600080fd5b6040516040810181811067ffffffffffffffff8211171561406057614060613b32565b60405282516001600160e01b038116811461407a57600080fd5b8152602083015163ffffffff8116811461409357600080fd5b60208201529392505050565b6020808252602e908201527f496e697469616c697a61626c653a20636f6e747261637420697320616c72656160408201526d191e481a5b9a5d1a585b1a5e995960921b606082015260800190565b6020815260006106596020830184613e66565b6000602080838503121561411357600080fd5b825167ffffffffffffffff8082111561412b57600080fd5b818501915085601f83011261413f57600080fd5b81518181111561415157614151613b32565b8060051b9150614162848301613b48565b818152918301840191848101908884111561417c57600080fd5b938501935b8385101561419a57845182529385019390850190614181565b98975050505050505050565b6000602082840312156141b857600080fd5b815161065981613a57565b85815284602082015260a0604082015260006141e260a0830186613e66565b6001600160a01b0394909416606083015250608001529392505050565b60006106598383613f7b565b6020808252602b908201527f496e697469616c697a61626c653a20636f6e7472616374206973206e6f74206960408201526a6e697469616c697a696e6760a81b606082015260800190565b600082516142688184602087016139b7565b919091019291505056fea26469706673582212204112f2e28ff536b2c4771f48692df77f3b7983a37e8f9b7327d7cb24a5d2708a64736f6c63430008090033",
  "devdoc": {
    "kind": "dev",
    "methods": {
      "allowance(address,address)": {
        "details": "See {IERC20-allowance}."
      },
      "approve(address,uint256)": {
        "details": "See {IERC20-approve}. NOTE: If `amount` is the maximum `uint256`, the allowance is not updated on `transferFrom`. This is semantically equivalent to an infinite approval. Requirements: - `spender` cannot be the zero address."
      },
      "balanceOf(address)": {
        "details": "See {IERC20-balanceOf}."
      },
      "decimals()": {
        "details": "Returns the number of decimals used to get its user representation. For example, if `decimals` equals `2`, a balance of `505` tokens should be displayed to a user as `5.05` (`505 / 10 ** 2`). Tokens usually opt for a value of 18, imitating the relationship between Ether and Wei. This is the value {ERC20} uses, unless this function is overridden; NOTE: This information is only used for _display_ purposes: it in no way affects any of the arithmetic of the contract, including {IERC20-balanceOf} and {IERC20-transfer}."
      },
      "decreaseAllowance(address,uint256)": {
        "details": "Atomically decreases the allowance granted to `spender` by the caller. This is an alternative to {approve} that can be used as a mitigation for problems described in {IERC20-approve}. Emits an {Approval} event indicating the updated allowance. Requirements: - `spender` cannot be the zero address. - `spender` must have allowance for the caller of at least `subtractedValue`."
      },
      "deposit(uint256)": {
        "params": {
          "_amount": "amount of lptokens to deposit"
        }
      },
      "getAPR()": {
        "details": "It's scaled by 1e18"
      },
      "increaseAllowance(address,uint256)": {
        "details": "Atomically increases the allowance granted to `spender` by the caller. This is an alternative to {approve} that can be used as a mitigation for problems described in {IERC20-approve}. Emits an {Approval} event indicating the updated allowance. Requirements: - `spender` cannot be the zero address."
      },
      "name()": {
        "details": "Returns the name of the token."
      },
      "owner()": {
        "details": "Returns the address of the current owner."
      },
      "paused()": {
        "details": "Returns true if the contract is paused, and false otherwise."
      },
      "renounceOwnership()": {
        "details": "Leaves the contract without owner. It will not be possible to call `onlyOwner` functions anymore. Can only be called by the current owner. NOTE: Renouncing ownership will leave the contract without an owner, thereby removing any functionality that is only available to the owner."
      },
      "setFee(uint256)": {
        "params": {
          "_yieldFeePerc": "deposit fee percentage. 2000 for 20%"
        }
      },
      "symbol()": {
        "details": "Returns the symbol of the token, usually a shorter version of the name."
      },
      "totalSupply()": {
        "details": "See {IERC20-totalSupply}."
      },
      "transfer(address,uint256)": {
        "details": "See {IERC20-transfer}. Requirements: - `to` cannot be the zero address. - the caller must have a balance of at least `amount`."
      },
      "transferFrom(address,address,uint256)": {
        "details": "See {IERC20-transferFrom}. Emits an {Approval} event indicating the updated allowance. This is not required by the EIP. See the note at the beginning of {ERC20}. NOTE: Does not update the allowance if the current allowance is the maximum `uint256`. Requirements: - `from` and `to` cannot be the zero address. - `from` must have a balance of at least `amount`. - the caller must have allowance for ``from``'s tokens of at least `amount`."
      },
      "transferOwnership(address)": {
        "details": "Transfers ownership of the contract to a new account (`newOwner`). Can only be called by the current owner."
      },
      "withdraw(uint256)": {
        "params": {
          "_shares": "amount of shares to burn"
        }
      }
    },
    "version": 1
  },
  "userdoc": {
    "kind": "user",
    "methods": {
      "emergencyWithdraw()": {
        "notice": "Withdraws funds staked in mirror to this vault and pauses deposit, yield, invest functions"
      },
      "getPendingRewards()": {
        "notice": "Returns the pending rewards in USD."
      },
      "reinvest()": {
        "notice": "Unpauses deposit, yield, invest functions, and invests funds."
      },
      "setFee(uint256)": {
        "notice": "Function to set deposit and yield fee"
      }
    },
    "version": 1
  },
  "storageLayout": {
    "storage": [
      {
        "astId": 130,
        "contract": "contracts/l2Vaults/compound/AuroraBastionVault.sol:AuroraBastionVault",
        "label": "_initialized",
        "offset": 0,
        "slot": "0",
        "type": "t_uint8"
      },
      {
        "astId": 133,
        "contract": "contracts/l2Vaults/compound/AuroraBastionVault.sol:AuroraBastionVault",
        "label": "_initializing",
        "offset": 1,
        "slot": "0",
        "type": "t_bool"
      },
      {
        "astId": 1657,
        "contract": "contracts/l2Vaults/compound/AuroraBastionVault.sol:AuroraBastionVault",
        "label": "__gap",
        "offset": 0,
        "slot": "1",
        "type": "t_array(t_uint256)50_storage"
      },
      {
        "astId": 454,
        "contract": "contracts/l2Vaults/compound/AuroraBastionVault.sol:AuroraBastionVault",
        "label": "_balances",
        "offset": 0,
        "slot": "51",
        "type": "t_mapping(t_address,t_uint256)"
      },
      {
        "astId": 460,
        "contract": "contracts/l2Vaults/compound/AuroraBastionVault.sol:AuroraBastionVault",
        "label": "_allowances",
        "offset": 0,
        "slot": "52",
        "type": "t_mapping(t_address,t_mapping(t_address,t_uint256))"
      },
      {
        "astId": 462,
        "contract": "contracts/l2Vaults/compound/AuroraBastionVault.sol:AuroraBastionVault",
        "label": "_totalSupply",
        "offset": 0,
        "slot": "53",
        "type": "t_uint256"
      },
      {
        "astId": 464,
        "contract": "contracts/l2Vaults/compound/AuroraBastionVault.sol:AuroraBastionVault",
        "label": "_name",
        "offset": 0,
        "slot": "54",
        "type": "t_string_storage"
      },
      {
        "astId": 466,
        "contract": "contracts/l2Vaults/compound/AuroraBastionVault.sol:AuroraBastionVault",
        "label": "_symbol",
        "offset": 0,
        "slot": "55",
        "type": "t_string_storage"
      },
      {
        "astId": 1045,
        "contract": "contracts/l2Vaults/compound/AuroraBastionVault.sol:AuroraBastionVault",
        "label": "__gap",
        "offset": 0,
        "slot": "56",
        "type": "t_array(t_uint256)45_storage"
      },
      {
        "astId": 10,
        "contract": "contracts/l2Vaults/compound/AuroraBastionVault.sol:AuroraBastionVault",
        "label": "_owner",
        "offset": 0,
        "slot": "101",
        "type": "t_address"
      },
      {
        "astId": 122,
        "contract": "contracts/l2Vaults/compound/AuroraBastionVault.sol:AuroraBastionVault",
        "label": "__gap",
        "offset": 0,
        "slot": "102",
        "type": "t_array(t_uint256)49_storage"
      },
      {
        "astId": 286,
        "contract": "contracts/l2Vaults/compound/AuroraBastionVault.sol:AuroraBastionVault",
        "label": "_paused",
        "offset": 0,
        "slot": "151",
        "type": "t_bool"
      },
      {
        "astId": 375,
        "contract": "contracts/l2Vaults/compound/AuroraBastionVault.sol:AuroraBastionVault",
        "label": "__gap",
        "offset": 0,
        "slot": "152",
        "type": "t_array(t_uint256)49_storage"
      },
      {
        "astId": 390,
        "contract": "contracts/l2Vaults/compound/AuroraBastionVault.sol:AuroraBastionVault",
        "label": "_status",
        "offset": 0,
        "slot": "201",
        "type": "t_uint256"
      },
      {
        "astId": 434,
        "contract": "contracts/l2Vaults/compound/AuroraBastionVault.sol:AuroraBastionVault",
        "label": "__gap",
        "offset": 0,
        "slot": "202",
        "type": "t_array(t_uint256)49_storage"
      },
      {
        "astId": 16033,
        "contract": "contracts/l2Vaults/compound/AuroraBastionVault.sol:AuroraBastionVault",
        "label": "yieldFee",
        "offset": 0,
        "slot": "251",
        "type": "t_uint256"
      },
      {
        "astId": 16036,
        "contract": "contracts/l2Vaults/compound/AuroraBastionVault.sol:AuroraBastionVault",
        "label": "cToken",
        "offset": 0,
        "slot": "252",
        "type": "t_contract(ICToken)15997"
      },
      {
        "astId": 16039,
        "contract": "contracts/l2Vaults/compound/AuroraBastionVault.sol:AuroraBastionVault",
        "label": "token",
        "offset": 0,
        "slot": "253",
        "type": "t_contract(IERC20Upgradeable)1124"
      },
      {
        "astId": 16041,
        "contract": "contracts/l2Vaults/compound/AuroraBastionVault.sol:AuroraBastionVault",
        "label": "tokenDecimals",
        "offset": 20,
        "slot": "253",
        "type": "t_uint8"
      },
      {
        "astId": 16044,
        "contract": "contracts/l2Vaults/compound/AuroraBastionVault.sol:AuroraBastionVault",
        "label": "comptroller",
        "offset": 0,
        "slot": "254",
        "type": "t_contract(IComptroller)16014"
      },
      {
        "astId": 16046,
        "contract": "contracts/l2Vaults/compound/AuroraBastionVault.sol:AuroraBastionVault",
        "label": "treasuryWallet",
        "offset": 0,
        "slot": "255",
        "type": "t_address"
      },
      {
        "astId": 16048,
        "contract": "contracts/l2Vaults/compound/AuroraBastionVault.sol:AuroraBastionVault",
        "label": "admin",
        "offset": 0,
        "slot": "256",
        "type": "t_address"
      },
      {
        "astId": 16051,
        "contract": "contracts/l2Vaults/compound/AuroraBastionVault.sol:AuroraBastionVault",
        "label": "priceOracle",
        "offset": 0,
        "slot": "257",
        "type": "t_contract(IPriceOracle)8761"
      },
      {
        "astId": 16055,
        "contract": "contracts/l2Vaults/compound/AuroraBastionVault.sol:AuroraBastionVault",
        "label": "depositedBlock",
        "offset": 0,
        "slot": "258",
        "type": "t_mapping(t_address,t_uint256)"
      },
      {
        "astId": 16781,
        "contract": "contracts/l2Vaults/compound/AuroraBastionVault.sol:AuroraBastionVault",
        "label": "__gap",
        "offset": 0,
        "slot": "259",
        "type": "t_array(t_uint256)41_storage"
      },
      {
        "astId": 15227,
        "contract": "contracts/l2Vaults/compound/AuroraBastionVault.sol:AuroraBastionVault",
        "label": "rewardDistributor",
        "offset": 0,
        "slot": "300",
        "type": "t_contract(IRewardDistributor)15197"
      }
    ],
    "types": {
      "t_address": {
        "encoding": "inplace",
        "label": "address",
        "numberOfBytes": "20"
      },
      "t_array(t_uint256)41_storage": {
        "base": "t_uint256",
        "encoding": "inplace",
        "label": "uint256[41]",
        "numberOfBytes": "1312"
      },
      "t_array(t_uint256)45_storage": {
        "base": "t_uint256",
        "encoding": "inplace",
        "label": "uint256[45]",
        "numberOfBytes": "1440"
      },
      "t_array(t_uint256)49_storage": {
        "base": "t_uint256",
        "encoding": "inplace",
        "label": "uint256[49]",
        "numberOfBytes": "1568"
      },
      "t_array(t_uint256)50_storage": {
        "base": "t_uint256",
        "encoding": "inplace",
        "label": "uint256[50]",
        "numberOfBytes": "1600"
      },
      "t_bool": {
        "encoding": "inplace",
        "label": "bool",
        "numberOfBytes": "1"
      },
      "t_contract(ICToken)15997": {
        "encoding": "inplace",
        "label": "contract ICToken",
        "numberOfBytes": "20"
      },
      "t_contract(IComptroller)16014": {
        "encoding": "inplace",
        "label": "contract IComptroller",
        "numberOfBytes": "20"
      },
      "t_contract(IERC20Upgradeable)1124": {
        "encoding": "inplace",
        "label": "contract IERC20Upgradeable",
        "numberOfBytes": "20"
      },
      "t_contract(IPriceOracle)8761": {
        "encoding": "inplace",
        "label": "contract IPriceOracle",
        "numberOfBytes": "20"
      },
      "t_contract(IRewardDistributor)15197": {
        "encoding": "inplace",
        "label": "contract IRewardDistributor",
        "numberOfBytes": "20"
      },
      "t_mapping(t_address,t_mapping(t_address,t_uint256))": {
        "encoding": "mapping",
        "key": "t_address",
        "label": "mapping(address => mapping(address => uint256))",
        "numberOfBytes": "32",
        "value": "t_mapping(t_address,t_uint256)"
      },
      "t_mapping(t_address,t_uint256)": {
        "encoding": "mapping",
        "key": "t_address",
        "label": "mapping(address => uint256)",
        "numberOfBytes": "32",
        "value": "t_uint256"
      },
      "t_string_storage": {
        "encoding": "bytes",
        "label": "string",
        "numberOfBytes": "32"
      },
      "t_uint256": {
        "encoding": "inplace",
        "label": "uint256",
        "numberOfBytes": "32"
      },
      "t_uint8": {
        "encoding": "inplace",
        "label": "uint8",
        "numberOfBytes": "1"
      }
    }
  }
}