{
  "address": "0x11ac2c91BD7128cfC14e625cDaA5ec5d2a9C65D7",
  "abi": [
    {
      "anonymous": false,
      "inputs": [
        {
          "indexed": false,
          "internalType": "address",
          "name": "token",
          "type": "address"
        },
        {
          "indexed": false,
          "internalType": "uint256",
          "name": "pid",
          "type": "uint256"
        }
      ],
      "name": "AddToken",
      "type": "event"
    },
    {
      "anonymous": false,
      "inputs": [
        {
          "indexed": false,
          "internalType": "uint256",
          "name": "USDTAmt",
          "type": "uint256"
        }
      ],
      "name": "EmergencyWithdraw",
      "type": "event"
    },
    {
      "anonymous": false,
      "inputs": [
        {
          "indexed": false,
          "internalType": "uint8",
          "name": "version",
          "type": "uint8"
        }
      ],
      "name": "Initialized",
      "type": "event"
    },
    {
      "anonymous": false,
      "inputs": [
        {
          "indexed": false,
          "internalType": "uint256",
          "name": "USDTAmt",
          "type": "uint256"
        },
        {
          "indexed": false,
          "internalType": "uint256",
          "name": "WNEARAmt",
          "type": "uint256"
        }
      ],
      "name": "InvestWNEAR",
      "type": "event"
    },
    {
      "anonymous": false,
      "inputs": [
        {
          "indexed": true,
          "internalType": "address",
          "name": "previousOwner",
          "type": "address"
        },
        {
          "indexed": true,
          "internalType": "address",
          "name": "newOwner",
          "type": "address"
        }
      ],
      "name": "OwnershipTransferred",
      "type": "event"
    },
    {
      "anonymous": false,
      "inputs": [
        {
          "indexed": false,
          "internalType": "address",
          "name": "token",
          "type": "address"
        },
        {
          "indexed": false,
          "internalType": "uint256",
          "name": "pid",
          "type": "uint256"
        }
      ],
      "name": "RemoveToken",
      "type": "event"
    },
    {
      "anonymous": false,
      "inputs": [
        {
          "indexed": false,
          "internalType": "address",
          "name": "oldAdmin",
          "type": "address"
        },
        {
          "indexed": false,
          "internalType": "address",
          "name": "newAdmin",
          "type": "address"
        }
      ],
      "name": "SetAdminWallet",
      "type": "event"
    },
    {
      "anonymous": false,
      "inputs": [
        {
          "indexed": false,
          "internalType": "address",
          "name": "oldTreasuryWallet",
          "type": "address"
        },
        {
          "indexed": false,
          "internalType": "address",
          "name": "newTreasuryWallet",
          "type": "address"
        }
      ],
      "name": "SetTreasuryWallet",
      "type": "event"
    },
    {
      "anonymous": false,
      "inputs": [
        {
          "indexed": false,
          "internalType": "uint256",
          "name": "sharePerc",
          "type": "uint256"
        },
        {
          "indexed": false,
          "internalType": "uint256",
          "name": "USDTAmt",
          "type": "uint256"
        }
      ],
      "name": "Withdraw",
      "type": "event"
    },
    {
      "anonymous": false,
      "inputs": [
        {
          "indexed": false,
          "internalType": "uint256",
          "name": "WNEARAmt",
          "type": "uint256"
        },
        {
          "indexed": false,
          "internalType": "uint256",
          "name": "USDTAmt",
          "type": "uint256"
        }
      ],
      "name": "WithdrawWNEAR",
      "type": "event"
    },
    {
      "inputs": [],
      "name": "SWAP_BASE_TOKEN",
      "outputs": [
        {
          "internalType": "contract IERC20UpgradeableExt",
          "name": "",
          "type": "address"
        }
      ],
      "stateMutability": "view",
      "type": "function"
    },
    {
      "inputs": [],
      "name": "USDT",
      "outputs": [
        {
          "internalType": "contract IERC20UpgradeableExt",
          "name": "",
          "type": "address"
        }
      ],
      "stateMutability": "view",
      "type": "function"
    },
    {
      "inputs": [],
      "name": "WNEAR",
      "outputs": [
        {
          "internalType": "contract IERC20Upgradeable",
          "name": "",
          "type": "address"
        }
      ],
      "stateMutability": "view",
      "type": "function"
    },
    {
      "inputs": [],
      "name": "WNEARVault",
      "outputs": [
        {
          "internalType": "contract IL2Vault",
          "name": "",
          "type": "address"
        }
      ],
      "stateMutability": "view",
      "type": "function"
    },
    {
      "inputs": [
        {
          "internalType": "address",
          "name": "_token",
          "type": "address"
        }
      ],
      "name": "addToken",
      "outputs": [],
      "stateMutability": "nonpayable",
      "type": "function"
    },
    {
      "inputs": [],
      "name": "admin",
      "outputs": [
        {
          "internalType": "address",
          "name": "",
          "type": "address"
        }
      ],
      "stateMutability": "view",
      "type": "function"
    },
    {
      "inputs": [],
      "name": "emergencyWithdraw",
      "outputs": [],
      "stateMutability": "nonpayable",
      "type": "function"
    },
    {
      "inputs": [],
      "name": "getAPR",
      "outputs": [
        {
          "internalType": "uint256",
          "name": "",
          "type": "uint256"
        }
      ],
      "stateMutability": "view",
      "type": "function"
    },
    {
      "inputs": [],
      "name": "getAllPoolInUSD",
      "outputs": [
        {
          "internalType": "uint256",
          "name": "",
          "type": "uint256"
        }
      ],
      "stateMutability": "view",
      "type": "function"
    },
    {
      "inputs": [],
      "name": "getCurrentTokenCompositionPerc",
      "outputs": [
        {
          "internalType": "address[]",
          "name": "",
          "type": "address[]"
        },
        {
          "internalType": "uint256[]",
          "name": "percentages",
          "type": "uint256[]"
        }
      ],
      "stateMutability": "view",
      "type": "function"
    },
    {
      "inputs": [],
      "name": "getEachPoolInUSD",
      "outputs": [
        {
          "internalType": "address[]",
          "name": "",
          "type": "address[]"
        },
        {
          "internalType": "uint256[]",
          "name": "pools",
          "type": "uint256[]"
        }
      ],
      "stateMutability": "view",
      "type": "function"
    },
    {
      "inputs": [],
      "name": "getUSDTPriceInUSD",
      "outputs": [
        {
          "internalType": "uint256",
          "name": "",
          "type": "uint256"
        },
        {
          "internalType": "uint8",
          "name": "",
          "type": "uint8"
        }
      ],
      "stateMutability": "view",
      "type": "function"
    },
    {
      "inputs": [
        {
          "internalType": "address",
          "name": "_treasuryWallet",
          "type": "address"
        },
        {
          "internalType": "address",
          "name": "_admin",
          "type": "address"
        },
        {
          "internalType": "address",
          "name": "_priceOracle",
          "type": "address"
        },
        {
          "internalType": "address",
          "name": "_router",
          "type": "address"
        },
        {
          "internalType": "address",
          "name": "_SWAP_BASE_TOKEN",
          "type": "address"
        },
        {
          "internalType": "address",
          "name": "_USDT",
          "type": "address"
        },
        {
          "internalType": "address",
          "name": "_token0",
          "type": "address"
        }
      ],
      "name": "initialize",
      "outputs": [],
      "stateMutability": "nonpayable",
      "type": "function"
    },
    {
      "inputs": [
        {
          "internalType": "address[]",
          "name": "_tokens",
          "type": "address[]"
        },
        {
          "internalType": "uint256[]",
          "name": "_USDTAmts",
          "type": "uint256[]"
        }
      ],
      "name": "invest",
      "outputs": [],
      "stateMutability": "nonpayable",
      "type": "function"
    },
    {
      "inputs": [],
      "name": "owner",
      "outputs": [
        {
          "internalType": "address",
          "name": "",
          "type": "address"
        }
      ],
      "stateMutability": "view",
      "type": "function"
    },
    {
      "inputs": [
        {
          "internalType": "address",
          "name": "",
          "type": "address"
        }
      ],
      "name": "pid",
      "outputs": [
        {
          "internalType": "uint256",
          "name": "",
          "type": "uint256"
        }
      ],
      "stateMutability": "view",
      "type": "function"
    },
    {
      "inputs": [],
      "name": "priceOracle",
      "outputs": [
        {
          "internalType": "contract IPriceOracle",
          "name": "",
          "type": "address"
        }
      ],
      "stateMutability": "view",
      "type": "function"
    },
    {
      "inputs": [
        {
          "internalType": "uint256",
          "name": "_pid",
          "type": "uint256"
        }
      ],
      "name": "removeToken",
      "outputs": [],
      "stateMutability": "nonpayable",
      "type": "function"
    },
    {
      "inputs": [],
      "name": "renounceOwnership",
      "outputs": [],
      "stateMutability": "nonpayable",
      "type": "function"
    },
    {
      "inputs": [],
      "name": "router",
      "outputs": [
        {
          "internalType": "contract IUniRouter",
          "name": "",
          "type": "address"
        }
      ],
      "stateMutability": "view",
      "type": "function"
    },
    {
      "inputs": [
        {
          "internalType": "address",
          "name": "_admin",
          "type": "address"
        }
      ],
      "name": "setAdmin",
      "outputs": [],
      "stateMutability": "nonpayable",
      "type": "function"
    },
    {
      "inputs": [
        {
          "internalType": "address",
          "name": "_treasuryWallet",
          "type": "address"
        }
      ],
      "name": "setTreasuryWallet",
      "outputs": [],
      "stateMutability": "nonpayable",
      "type": "function"
    },
    {
      "inputs": [
        {
          "internalType": "address",
          "name": "_vault",
          "type": "address"
        }
      ],
      "name": "setVault",
      "outputs": [],
      "stateMutability": "nonpayable",
      "type": "function"
    },
    {
      "inputs": [
        {
          "internalType": "contract IL2Vault",
          "name": "_WNEARVault",
          "type": "address"
        }
      ],
      "name": "setWNEARVault",
      "outputs": [],
      "stateMutability": "nonpayable",
      "type": "function"
    },
    {
      "inputs": [
        {
          "internalType": "uint256",
          "name": "",
          "type": "uint256"
        }
      ],
      "name": "tokens",
      "outputs": [
        {
          "internalType": "address",
          "name": "",
          "type": "address"
        }
      ],
      "stateMutability": "view",
      "type": "function"
    },
    {
      "inputs": [
        {
          "internalType": "address",
          "name": "newOwner",
          "type": "address"
        }
      ],
      "name": "transferOwnership",
      "outputs": [],
      "stateMutability": "nonpayable",
      "type": "function"
    },
    {
      "inputs": [],
      "name": "treasuryWallet",
      "outputs": [
        {
          "internalType": "address",
          "name": "",
          "type": "address"
        }
      ],
      "stateMutability": "view",
      "type": "function"
    },
    {
      "inputs": [],
      "name": "vault",
      "outputs": [
        {
          "internalType": "address",
          "name": "",
          "type": "address"
        }
      ],
      "stateMutability": "view",
      "type": "function"
    },
    {
      "inputs": [
        {
          "internalType": "uint256",
          "name": "_pid",
          "type": "uint256"
        },
        {
          "internalType": "uint256",
          "name": "_sharePerc",
          "type": "uint256"
        }
      ],
      "name": "withdrawFromPool",
      "outputs": [
        {
          "internalType": "uint256",
          "name": "USDTAmt",
          "type": "uint256"
        }
      ],
      "stateMutability": "nonpayable",
      "type": "function"
    },
    {
      "inputs": [
        {
          "internalType": "uint256",
          "name": "_sharePerc",
          "type": "uint256"
        }
      ],
      "name": "withdrawPerc",
      "outputs": [
        {
          "internalType": "uint256",
          "name": "USDTAmt",
          "type": "uint256"
        }
      ],
      "stateMutability": "nonpayable",
      "type": "function"
    }
  ],
  "transactionHash": "0xee906f6bbcf0131503b6d4add259f72375905fbc96e56c6c4d1e487a6a437aba",
  "args": [],
  "numDeployments": 3,
  "solcInputHash": "9a335077fa45839f87120ae1e6af8ee1",
  "bytecode": "0x608060405234801561001057600080fd5b506134fe806100206000396000f3fe608060405234801561001057600080fd5b50600436106101da5760003560e01c8063aae0923611610104578063d8274d0a116100a2578063f2fde38b11610071578063f2fde38b146103e5578063f851a440146103f8578063f887ea401461040b578063fbfa77cf1461041e57600080fd5b8063d8274d0a14610397578063db2e21bc146103b7578063ed47d909146103bf578063ef1b3166146103d257600080fd5b8063bd244af4116100de578063bd244af414610353578063c54e44eb14610369578063c89d5b8b1461037c578063d48bfca71461038457600080fd5b8063aae0923614610311578063b47c6a2714610319578063b9875f531461033857600080fd5b80634626402b1161017c578063704b6c021161014b578063704b6c02146102d2578063715018a6146102e55780638da5cb5b146102ed578063a8602fea146102fe57600080fd5b80634626402b146102835780634631b246146102965780634f64b2be146102ac5780636817031b146102bf57600080fd5b806330703f32116101b857806330703f3214610237578063358764761461024a57806336c5d7241461025d5780634546a6b31461027057600080fd5b8063257d08fa146101df5780632630c12f146101f457806326b89b7114610224575b600080fd5b6101f26101ed366004612d72565b610431565b005b606b54610207906001600160a01b031681565b6040516001600160a01b0390911681526020015b60405180910390f35b6101f2610232366004612e65565b610516565b606654610207906001600160a01b031681565b6101f2610258366004612f27565b610680565b6101f261026b366004612fbd565b610a90565b609654610207906001600160a01b031681565b606854610207906001600160a01b031681565b61029e610c66565b60405161021b92919061301a565b6102076102ba366004612fbd565b610e06565b6101f26102cd366004612d72565b610e30565b6101f26102e0366004612d72565b610e9f565b6101f2610f09565b6033546001600160a01b0316610207565b6101f261030c366004612d72565b610f1d565b61029e610f7f565b610321610fec565b6040805192835260ff90911660208301520161021b565b61020773c42c30ac6cc15fac9bd938618bcaa1a1fae8501d81565b61035b611076565b60405190815260200161021b565b606754610207906001600160a01b031681565b61035b6110d3565b6101f2610392366004612d72565b611220565b61035b6103a5366004612d72565b606d6020526000908152604090205481565b6101f2611404565b61035b6103cd366004612fbd565b61149c565b61035b6103e0366004613071565b611574565b6101f26103f3366004612d72565b611615565b606954610207906001600160a01b031681565b606554610207906001600160a01b031681565b606a54610207906001600160a01b031681565b61043961168b565b609680546001600160a01b0319166001600160a01b038316908117909155604051636eb1769f60e11b8152306004820152602481019190915273c42c30ac6cc15fac9bd938618bcaa1a1fae8501d9063dd62ed3e9060440160206040518083038186803b1580156104a957600080fd5b505afa1580156104bd573d6000803e3d6000fd5b505050506040513d601f19601f820116820180604052508101906104e19190613093565b610513576096546105139073c42c30ac6cc15fac9bd938618bcaa1a1fae8501d906001600160a01b03166000196116e5565b50565b606a546001600160a01b031633146105495760405162461bcd60e51b8152600401610540906130ac565b60405180910390fd5b8151606c54600090819067ffffffffffffffff81111561056b5761056b612d8f565b604051908082528060200260200182016040528015610594578160200160208202803683370190505b50905060005b838110156106515760008582815181106105b6576105b66130d0565b6020026020010151905080846105cc91906130fc565b93506000606d60008985815181106105e6576105e66130d0565b60200260200101516001600160a01b03166001600160a01b0316815260200190815260200160002054905081848281518110610624576106246130d0565b6020026020010181815161063891906130fc565b905250829150610649905081613114565b91505061059a565b50606a54606754610670916001600160a01b0391821691163085611841565b6106798161187f565b5050505050565b600054610100900460ff16158080156106a05750600054600160ff909116105b806106ba5750303b1580156106ba575060005460ff166001145b61071d5760405162461bcd60e51b815260206004820152602e60248201527f496e697469616c697a61626c653a20636f6e747261637420697320616c72656160448201526d191e481a5b9a5d1a585b1a5e995960921b6064820152608401610540565b6000805460ff191660011790558015610740576000805461ff0019166101001790555b6001600160a01b0385166107875760405162461bcd60e51b815260206004820152600e60248201526d24b73b30b634b2103937baba32b960911b6044820152606401610540565b6001600160a01b0384166107dd5760405162461bcd60e51b815260206004820152601760248201527f496e76616c696420535741505f424153455f544f4b454e0000000000000000006044820152606401610540565b6001600160a01b0383166108225760405162461bcd60e51b815260206004820152600c60248201526b125b9d985b1a59081554d11560a21b6044820152606401610540565b6001600160a01b0382166108695760405162461bcd60e51b815260206004820152600e60248201526d0496e76616c696420746f6b656e360941b6044820152606401610540565b610871611912565b606880546001600160a01b03199081166001600160a01b038b8116919091179092556069805482168a8416179055606b805482168984161790556065805482168884161790556066805482168784161790556067805490911691851691821790556040805163313ce56760e01b8152905163313ce56791600481810192602092909190829003018186803b15801561090857600080fd5b505afa15801561091c573d6000803e3d6000fd5b505050506040513d601f19601f820116820180604052508101906109409190613145565b6067805460ff60a01b1916600160a01b60ff93841681029190911791829055900416600611156109b25760405162461bcd60e51b815260206004820152601760248201527f5553445420646563696d616c73206d757374203e3d20360000000000000000006044820152606401610540565b606c80546001810182556000919091527f2b4a51ab505fc96a0952efda2ba61bcd3078d4c02c39a186ec16f21883fbe0160180546001600160a01b0319166001600160a01b038416179055610a05611941565b606554606754610a24916001600160a01b0391821691166000196116e5565b606554610a40906001600160a01b0384811691166000196116e5565b8015610a86576000805461ff0019169055604051600181527f7f26b83ff96e1f2b6a682f133852f6798a09c465da95921460cefb38474024989060200160405180910390a15b5050505050505050565b610a9861168b565b606c54808210610ad85760405162461bcd60e51b815260206004820152600b60248201526a125b9d985b1a59081c1a5960aa1b6044820152606401610540565b6000610ae383611a05565b90508015610b275760405162461bcd60e51b8152602060048201526011602482015270506f6f6c206973206e6f7420656d70747960781b6044820152606401610540565b6000606c8481548110610b3c57610b3c6130d0565b6000918252602090912001546001600160a01b03169050606c610b60600185613160565b81548110610b7057610b706130d0565b600091825260209091200154606c80546001600160a01b039092169186908110610b9c57610b9c6130d0565b9060005260206000200160006101000a8154816001600160a01b0302191690836001600160a01b03160217905550606c805480610bdb57610bdb613177565b60008281526020808220830160001990810180546001600160a01b03191690559092019092556001600160a01b0383168252606d90526040812055610c1e611941565b604080516001600160a01b0383168152602081018690527f67f5552e5abc48ba6305130450943fa23b76a0b6eb18c29d3eea39559139fc5a910160405180910390a150505050565b6060806000610c73611a6f565b80519091506000805b82811015610cbd57838181518110610c9657610c966130d0565b602002602001015182610ca991906130fc565b915080610cb581613114565b915050610c7c565b5060008215610cd757610cd28361271061318d565b610cda565b60005b90508267ffffffffffffffff811115610cf557610cf5612d8f565b604051908082528060200260200182016040528015610d1e578160200160208202803683370190505b50945060005b83811015610d9a578215610d695782612710868381518110610d4857610d486130d0565b6020026020010151610d5a91906131af565b610d64919061318d565b610d6b565b815b868281518110610d7d57610d7d6130d0565b602090810291909101015280610d9281613114565b915050610d24565b50606c8581805480602002602001604051908101604052809291908181526020018280548015610df357602002820191906000526020600020905b81546001600160a01b03168152600190910190602001808311610dd5575b5050505050915095509550505050509091565b606c8181548110610e1657600080fd5b6000918252602090912001546001600160a01b0316905081565b610e3861168b565b606a546001600160a01b031615610e7d5760405162461bcd60e51b815260206004820152600960248201526815985d5b1d081cd95d60ba1b6044820152606401610540565b606a80546001600160a01b0319166001600160a01b0392909216919091179055565b610ea761168b565b606980546001600160a01b038381166001600160a01b031983168117909355604080519190921680825260208201939093527f9f0ac88be9159761bacf6c9e7c294c397ebf594607f6b3f2f70e7e0841ea68e891015b60405180910390a15050565b610f1161168b565b610f1b6000611b02565b565b610f2561168b565b606880546001600160a01b038381166001600160a01b031983168117909355604080519190921680825260208201939093527febcecb9db04071cf4b4ecc1e2e1e4603e74c9382d6e36c3531f0b62af4c78ed79101610efd565b606080606c610f8c611a6f565b815460408051602080840282018101909252828152918491830182828015610fdd57602002820191906000526020600020905b81546001600160a01b03168152600190910190602001808311610fbf575b50505050509150915091509091565b606b5460675460405163b3596f0760e01b81526001600160a01b0391821660048201526000928392169063b3596f0790602401604080518083038186803b15801561103657600080fd5b505afa15801561104a573d6000803e3d6000fd5b505050506040513d601f19601f8201168201806040525081019061106e91906131ce565b915091509091565b600080611081611a6f565b80519091506000805b828110156110cb578381815181106110a4576110a46130d0565b6020026020010151826110b791906130fc565b9150806110c381613114565b91505061108a565b509392505050565b60008060006110e0610c66565b81519193509150600090815b8181101561120a576000858281518110611108576111086130d0565b6020026020010151905073c42c30ac6cc15fac9bd938618bcaa1a1fae8501d6001600160a01b0316816001600160a01b031614156111f757848281518110611152576111526130d0565b6020026020010151609660009054906101000a90046001600160a01b03166001600160a01b031663c89d5b8b6040518163ffffffff1660e01b815260040160206040518083038186803b1580156111a857600080fd5b505afa1580156111bc573d6000803e3d6000fd5b505050506040513d601f19601f820116820180604052508101906111e09190613093565b6111ea91906131af565b6111f490856130fc565b93505b508061120281613114565b9150506110ec565b506112176127108361318d565b94505050505090565b61122861168b565b6001600160a01b0381166000908152606d60205260409020548015801561127a5750606c60008154811061125e5761125e6130d0565b6000918252602090912001546001600160a01b03838116911614155b6112b65760405162461bcd60e51b815260206004820152600d60248201526c105b1c9958591e481859191959609a1b6044820152606401610540565b606c80546001808201835560008390527f2b4a51ab505fc96a0952efda2ba61bcd3078d4c02c39a186ec16f21883fbe01690910180546001600160a01b0319166001600160a01b038616179055905461130f9190613160565b6001600160a01b038381166000818152606d6020526040908190208490556065549051636eb1769f60e11b81523060048201529216602483015291925063dd62ed3e9060440160206040518083038186803b15801561136d57600080fd5b505afa158015611381573d6000803e3d6000fd5b505050506040513d601f19601f820116820180604052508101906113a59190613093565b6113c5576065546113c5906001600160a01b0384811691166000196116e5565b604080516001600160a01b0384168152602081018390527fe1bea1af9b1d1aede8b7fa043080de8690470a8ae61449360b3d0c0bf8104b469101610efd565b606a546001600160a01b0316331461142e5760405162461bcd60e51b8152600401610540906130ac565b6000611441670de0b6b3a7640000611b54565b9050801561146657606a54606754611466916001600160a01b03918216911683611b93565b6040518181527f99d7f8b71cfb9126984f7a5eed3a40e64a8959e9b0e442221546fb04ec6a489c9060200160405180910390a150565b606a546000906001600160a01b031633146114c95760405162461bcd60e51b8152600401610540906130ac565b670de0b6b3a764000082111561150d5760405162461bcd60e51b81526020600482015260096024820152684f766572203130302560b81b6044820152606401610540565b61151682611b54565b606a54606754919250611536916001600160a01b03908116911683611b93565b60408051838152602081018390527f56ca301a9219608c91e7bcee90e083c19671d2cdcc96752c7af291cee5f9c8c8910160405180910390a1919050565b606a546000906001600160a01b031633146115a15760405162461bcd60e51b8152600401610540906130ac565b670de0b6b3a76400008211156115e55760405162461bcd60e51b81526020600482015260096024820152684f766572203130302560b81b6044820152606401610540565b6115ef8383611bc3565b606a5460675491925061160f916001600160a01b03908116911683611b93565b92915050565b61161d61168b565b6001600160a01b0381166116825760405162461bcd60e51b815260206004820152602660248201527f4f776e61626c653a206e6577206f776e657220697320746865207a65726f206160448201526564647265737360d01b6064820152608401610540565b61051381611b02565b6033546001600160a01b03163314610f1b5760405162461bcd60e51b815260206004820181905260248201527f4f776e61626c653a2063616c6c6572206973206e6f7420746865206f776e65726044820152606401610540565b80158061176e5750604051636eb1769f60e11b81523060048201526001600160a01b03838116602483015284169063dd62ed3e9060440160206040518083038186803b15801561173457600080fd5b505afa158015611748573d6000803e3d6000fd5b505050506040513d601f19601f8201168201806040525081019061176c9190613093565b155b6117d95760405162461bcd60e51b815260206004820152603660248201527f5361666545524332303a20617070726f76652066726f6d206e6f6e2d7a65726f60448201527520746f206e6f6e2d7a65726f20616c6c6f77616e636560501b6064820152608401610540565b6040516001600160a01b03831660248201526044810182905261183c90849063095ea7b360e01b906064015b60408051601f198184030181529190526020810180516001600160e01b03166001600160e01b031990931692909217909152611c30565b505050565b6040516001600160a01b03808516602483015283166044820152606481018290526118799085906323b872dd60e01b90608401611805565b50505050565b61188881611d02565b805160005b8181101561183c576000606c82815481106118aa576118aa6130d0565b6000918252602090912001546001600160a01b0316905073c42c30ac6cc15fac9bd938618bcaa1a1fae8501d8114156118ff576118ff8483815181106118f2576118f26130d0565b6020026020010151611f65565b508061190a81613114565b91505061188d565b600054610100900460ff166119395760405162461bcd60e51b8152600401610540906131fa565b610f1b61208b565b6000606c80548060200260200160405190810160405280929190818152602001828054801561199957602002820191906000526020600020905b81546001600160a01b0316815260019091019060200180831161197b575b505083519394506000925050505b8181101561183c5780606d60008584815181106119c6576119c66130d0565b60200260200101516001600160a01b03166001600160a01b031681526020019081526020016000208190555080806119fd90613114565b9150506119a7565b600080606c8381548110611a1b57611a1b6130d0565b6000918252602090912001546001600160a01b0316905073c42c30ac6cc15fac9bd938618bcaa1a1fae8501d811415611a5d57611a566120bb565b9150611a69565b611a6683612267565b91505b50919050565b606c546060908067ffffffffffffffff811115611a8e57611a8e612d8f565b604051908082528060200260200182016040528015611ab7578160200160208202803683370190505b50915060005b81811015611afd57611ace81611a05565b838281518110611ae057611ae06130d0565b602090810291909101015280611af581613114565b915050611abd565b505090565b603380546001600160a01b038381166001600160a01b0319831681179093556040519116919082907f8be0079c531659141344cd1fd0a4f28419497f9722a3daafe3b4186f6b6457e090600090a35050565b606c54600090815b81811015611b8c57611b6e8185611bc3565b611b7890846130fc565b925080611b8481613114565b915050611b5c565b5050919050565b6040516001600160a01b03831660248201526044810182905261183c90849063a9059cbb60e01b90606401611805565b600080606c8481548110611bd957611bd96130d0565b6000918252602090912001546001600160a01b0316905073c42c30ac6cc15fac9bd938618bcaa1a1fae8501d811415611c1c57611c158361243e565b9150611c29565b611c26848461262c565b91505b5092915050565b6000611c85826040518060400160405280602081526020017f5361666545524332303a206c6f772d6c6576656c2063616c6c206661696c6564815250856001600160a01b03166127239092919063ffffffff16565b80519091501561183c5780806020019051810190611ca39190613245565b61183c5760405162461bcd60e51b815260206004820152602a60248201527f5361666545524332303a204552433230206f7065726174696f6e20646964206e6044820152691bdd081cdd58d8d9595960b21b6064820152608401610540565b805160005b8181101561183c576000606c8281548110611d2457611d246130d0565b6000918252602090912001546067546001600160a01b03918216925016811415611d4e5750611f53565b6000848381518110611d6257611d626130d0565b60200260200101519050600080611d77610fec565b606b5460405163b3596f0760e01b81526001600160a01b038881166004830152939550919350600092839291169063b3596f0790602401604080518083038186803b158015611dc557600080fd5b505afa158015611dd9573d6000803e3d6000fd5b505050506040513d601f19601f82011682018060405250810190611dfd91906131ce565b915091506000866001600160a01b031663313ce5676040518163ffffffff1660e01b815260040160206040518083038186803b158015611e3c57600080fd5b505afa158015611e50573d6000803e3d6000fd5b505050506040513d601f19601f82011682018060405250810190611e749190613145565b90506000611e828284613267565b611e8d90600a613370565b611e9790876131af565b606754909150600090611eb490600160a01b900460ff1687613267565b611ebf90600a613370565b611ec990866131af565b90506000611ed88260646131af565b611ee2848b6131af565b611eed90605f6131af565b611ef7919061318d565b6066549091506001600160a01b038b811691161415611f2e57606754611f28906001600160a01b03168b8b8461273c565b50611f48565b606754611f46906001600160a01b03168b8b84612869565b505b505050505050505050505b80611f5d81613114565b915050611d07565b6040516370a0823160e01b815230600482015260009073c42c30ac6cc15fac9bd938618bcaa1a1fae8501d906370a082319060240160206040518083038186803b158015611fb257600080fd5b505afa158015611fc6573d6000803e3d6000fd5b505050506040513d601f19601f82011682018060405250810190611fea9190613093565b905080156120875760965460405163b6b55f2560e01b8152600481018390526001600160a01b039091169063b6b55f2590602401600060405180830381600087803b15801561203857600080fd5b505af115801561204c573d6000803e3d6000fd5b505060408051858152602081018590527f31e40961986a39e656a57340144b7626972a686782c2d15c6c7a5f309fd4e9629350019050610efd565b5050565b600054610100900460ff166120b25760405162461bcd60e51b8152600401610540906131fa565b610f1b33611b02565b6096546040516370a0823160e01b815230600482015260009182916001600160a01b03909116906370a082319060240160206040518083038186803b15801561210357600080fd5b505afa158015612117573d6000803e3d6000fd5b505050506040513d601f19601f8201168201806040525081019061213b9190613093565b9050801561225e57609660009054906101000a90046001600160a01b03166001600160a01b03166318160ddd6040518163ffffffff1660e01b815260040160206040518083038186803b15801561219157600080fd5b505afa1580156121a5573d6000803e3d6000fd5b505050506040513d601f19601f820116820180604052508101906121c99190613093565b60965460408051632f4912bd60e21b8152905184926001600160a01b03169163bd244af4916004808301926020929190829003018186803b15801561220d57600080fd5b505afa158015612221573d6000803e3d6000fd5b505050506040513d601f19601f820116820180604052508101906122459190613093565b61224f91906131af565b612259919061318d565b612261565b60005b91505090565b600080606c838154811061227d5761227d6130d0565b60009182526020822001546040516370a0823160e01b81523060048201526001600160a01b03909116925082906370a082319060240160206040518083038186803b1580156122cb57600080fd5b505afa1580156122df573d6000803e3d6000fd5b505050506040513d601f19601f820116820180604052508101906123039190613093565b90508015611b8c57606b5460405163b3596f0760e01b81526001600160a01b038481166004830152600092839291169063b3596f0790602401604080518083038186803b15801561235357600080fd5b505afa158015612367573d6000803e3d6000fd5b505050506040513d601f19601f8201168201806040525081019061238b91906131ce565b915091506000846001600160a01b031663313ce5676040518163ffffffff1660e01b815260040160206040518083038186803b1580156123ca57600080fd5b505afa1580156123de573d6000803e3d6000fd5b505050506040513d601f19601f820116820180604052508101906124029190613145565b905061240f82600a613370565b8361241f868460ff1660126129b5565b61242991906131af565b612433919061318d565b979650505050505050565b6096546040516370a0823160e01b81523060048201526000918291670de0b6b3a76400009185916001600160a01b03909116906370a082319060240160206040518083038186803b15801561249257600080fd5b505afa1580156124a6573d6000803e3d6000fd5b505050506040513d601f19601f820116820180604052508101906124ca9190613093565b6124d491906131af565b6124de919061318d565b90508015611a6957609654604051632e1a7d4d60e01b8152600481018390526001600160a01b0390911690632e1a7d4d90602401600060405180830381600087803b15801561252c57600080fd5b505af1158015612540573d6000803e3d6000fd5b50506040516370a0823160e01b81523060048201526000925073c42c30ac6cc15fac9bd938618bcaa1a1fae8501d91506370a082319060240160206040518083038186803b15801561259157600080fd5b505afa1580156125a5573d6000803e3d6000fd5b505050506040513d601f19601f820116820180604052508101906125c99190613093565b90506125e973c42c30ac6cc15fac9bd938618bcaa1a1fae8501d82612a13565b60408051838152602081018390529194507ffcffb91a3a11e02999f8ad803b6c75a0a655fc55c8b1a0eb489e6b5a94a0ce19910160405180910390a15050919050565b600080606c8481548110612642576126426130d0565b60009182526020822001546040516370a0823160e01b81523060048201526001600160a01b039091169250670de0b6b3a764000090859084906370a082319060240160206040518083038186803b15801561269c57600080fd5b505afa1580156126b0573d6000803e3d6000fd5b505050506040513d601f19601f820116820180604052508101906126d49190613093565b6126de91906131af565b6126e8919061318d565b9050801561271b576067546001600160a01b038381169116141561270e5780925061271b565b6127188282612a13565b92505b505092915050565b60606127328484600085612c03565b90505b9392505050565b604080516002808252606082018352600092839291906020830190803683370190505090508581600081518110612775576127756130d0565b60200260200101906001600160a01b031690816001600160a01b03168152505084816001815181106127a9576127a96130d0565b6001600160a01b0392831660209182029290920101526065546040516338ed173960e01b81529116906338ed1739906127ee908790879086903090429060040161337f565b600060405180830381600087803b15801561280857600080fd5b505af115801561281c573d6000803e3d6000fd5b505050506040513d6000823e601f3d908101601f1916820160405261284491908101906133bb565b600181518110612856576128566130d0565b6020026020010151915050949350505050565b604080516003808252608082019092526000918291906020820160608036833701905050905085816000815181106128a3576128a36130d0565b6001600160a01b0392831660209182029290920101526066548251911690829060019081106128d4576128d46130d0565b60200260200101906001600160a01b031690816001600160a01b0316815250508481600281518110612908576129086130d0565b6001600160a01b0392831660209182029290920101526065546040516338ed173960e01b81529116906338ed17399061294d908790879086903090429060040161337f565b600060405180830381600087803b15801561296757600080fd5b505af115801561297b573d6000803e3d6000fd5b505050506040513d6000823e601f3d908101601f191682016040526129a391908101906133bb565b600281518110612856576128566130d0565b6000818314156129c6575082612735565b818310156129f4576129d88383613160565b6129e390600a613441565b6129ed90856131af565b9050612735565b6129fe8284613160565b612a0990600a613441565b6129ed908561318d565b6000806000612a20610fec565b606b5460405163b3596f0760e01b81526001600160a01b038981166004830152939550919350600092839291169063b3596f0790602401604080518083038186803b158015612a6e57600080fd5b505afa158015612a82573d6000803e3d6000fd5b505050506040513d601f19601f82011682018060405250810190612aa691906131ce565b915091506000876001600160a01b031663313ce5676040518163ffffffff1660e01b815260040160206040518083038186803b158015612ae557600080fd5b505afa158015612af9573d6000803e3d6000fd5b505050506040513d601f19601f82011682018060405250810190612b1d9190613145565b606754909150600090612b3a90600160a01b900460ff1686613267565b612b4590600a613370565b612b4f90856131af565b90506000612b5d8385613267565b612b6890600a613370565b612b7290886131af565b90506000612b818260646131af565b612b8b848c6131af565b612b9690605f6131af565b612ba0919061318d565b6066549091506001600160a01b038c811691161415612bd957606754612bd2908c906001600160a01b03168c8461273c565b9850612bf5565b606754612bf2908c906001600160a01b03168c84612869565b98505b505050505050505092915050565b606082471015612c645760405162461bcd60e51b815260206004820152602660248201527f416464726573733a20696e73756666696369656e742062616c616e636520666f6044820152651c8818d85b1b60d21b6064820152608401610540565b6001600160a01b0385163b612cbb5760405162461bcd60e51b815260206004820152601d60248201527f416464726573733a2063616c6c20746f206e6f6e2d636f6e74726163740000006044820152606401610540565b600080866001600160a01b03168587604051612cd79190613479565b60006040518083038185875af1925050503d8060008114612d14576040519150601f19603f3d011682016040523d82523d6000602084013e612d19565b606091505b509150915061243382828660608315612d33575081612735565b825115612d435782518084602001fd5b8160405162461bcd60e51b81526004016105409190613495565b6001600160a01b038116811461051357600080fd5b600060208284031215612d8457600080fd5b813561273581612d5d565b634e487b7160e01b600052604160045260246000fd5b604051601f8201601f1916810167ffffffffffffffff81118282101715612dce57612dce612d8f565b604052919050565b600067ffffffffffffffff821115612df057612df0612d8f565b5060051b60200190565b600082601f830112612e0b57600080fd5b81356020612e20612e1b83612dd6565b612da5565b82815260059290921b84018101918181019086841115612e3f57600080fd5b8286015b84811015612e5a5780358352918301918301612e43565b509695505050505050565b60008060408385031215612e7857600080fd5b823567ffffffffffffffff80821115612e9057600080fd5b818501915085601f830112612ea457600080fd5b81356020612eb4612e1b83612dd6565b82815260059290921b84018101918181019089841115612ed357600080fd5b948201945b83861015612efa578535612eeb81612d5d565b82529482019490820190612ed8565b96505086013592505080821115612f1057600080fd5b50612f1d85828601612dfa565b9150509250929050565b600080600080600080600060e0888a031215612f4257600080fd5b8735612f4d81612d5d565b96506020880135612f5d81612d5d565b95506040880135612f6d81612d5d565b94506060880135612f7d81612d5d565b93506080880135612f8d81612d5d565b925060a0880135612f9d81612d5d565b915060c0880135612fad81612d5d565b8091505092959891949750929550565b600060208284031215612fcf57600080fd5b5035919050565b600081518084526020808501945080840160005b8381101561300f5781516001600160a01b031687529582019590820190600101612fea565b509495945050505050565b60408152600061302d6040830185612fd6565b82810360208481019190915284518083528582019282019060005b8181101561306457845183529383019391830191600101613048565b5090979650505050505050565b6000806040838503121561308457600080fd5b50508035926020909101359150565b6000602082840312156130a557600080fd5b5051919050565b6020808252600a908201526913db9b1e481d985d5b1d60b21b604082015260600190565b634e487b7160e01b600052603260045260246000fd5b634e487b7160e01b600052601160045260246000fd5b6000821982111561310f5761310f6130e6565b500190565b6000600019821415613128576131286130e6565b5060010190565b805160ff8116811461314057600080fd5b919050565b60006020828403121561315757600080fd5b6127358261312f565b600082821015613172576131726130e6565b500390565b634e487b7160e01b600052603160045260246000fd5b6000826131aa57634e487b7160e01b600052601260045260246000fd5b500490565b60008160001904831182151516156131c9576131c96130e6565b500290565b600080604083850312156131e157600080fd5b825191506131f16020840161312f565b90509250929050565b6020808252602b908201527f496e697469616c697a61626c653a20636f6e7472616374206973206e6f74206960408201526a6e697469616c697a696e6760a81b606082015260800190565b60006020828403121561325757600080fd5b8151801515811461273557600080fd5b600060ff821660ff84168060ff03821115613284576132846130e6565b019392505050565b600181815b808511156132c75781600019048211156132ad576132ad6130e6565b808516156132ba57918102915b93841c9390800290613291565b509250929050565b6000826132de5750600161160f565b816132eb5750600061160f565b8160018114613301576002811461330b57613327565b600191505061160f565b60ff84111561331c5761331c6130e6565b50506001821b61160f565b5060208310610133831016604e8410600b841016171561334a575081810a61160f565b613354838361328c565b8060001904821115613368576133686130e6565b029392505050565b600061273560ff8416836132cf565b85815284602082015260a06040820152600061339e60a0830186612fd6565b6001600160a01b0394909416606083015250608001529392505050565b600060208083850312156133ce57600080fd5b825167ffffffffffffffff8111156133e557600080fd5b8301601f810185136133f657600080fd5b8051613404612e1b82612dd6565b81815260059190911b8201830190838101908783111561342357600080fd5b928401925b8284101561243357835182529284019290840190613428565b600061273583836132cf565b60005b83811015613468578181015183820152602001613450565b838111156118795750506000910152565b6000825161348b81846020870161344d565b9190910192915050565b60208152600082518060208401526134b481604085016020870161344d565b601f01601f1916919091016040019291505056fea2646970667358221220ee319318c2983ae70167e9cd991a5878591b0d798b93930c817925711115a21d64736f6c63430008090033",
  "devdoc": {
    "kind": "dev",
    "methods": {
      "getUSDTPriceInUSD()": {
        "returns": {
          "_0": "the price of USDT in USD."
        }
      },
      "invest(address[],uint256[])": {
        "params": {
          "_USDTAmts": "amounts of USDT should be deposited to each pools. They have been denominated in USDT decimals"
        }
      },
      "owner()": {
        "details": "Returns the address of the current owner."
      },
      "renounceOwnership()": {
        "details": "Leaves the contract without owner. It will not be possible to call `onlyOwner` functions anymore. Can only be called by the current owner. NOTE: Renouncing ownership will leave the contract without an owner, thereby removing any functionality that is only available to the owner."
      },
      "transferOwnership(address)": {
        "details": "Transfers ownership of the contract to a new account (`newOwner`). Can only be called by the current owner."
      }
    },
    "version": 1
  },
  "userdoc": {
    "kind": "user",
    "methods": {},
    "version": 1
  },
  "storageLayout": {
    "storage": [
      {
        "astId": 138,
        "contract": "contracts/bni/strategy/AuroraBNIStrategy.sol:AuroraBNIStrategy",
        "label": "_initialized",
        "offset": 0,
        "slot": "0",
        "type": "t_uint8"
      },
      {
        "astId": 141,
        "contract": "contracts/bni/strategy/AuroraBNIStrategy.sol:AuroraBNIStrategy",
        "label": "_initializing",
        "offset": 1,
        "slot": "0",
        "type": "t_bool"
      },
      {
        "astId": 2836,
        "contract": "contracts/bni/strategy/AuroraBNIStrategy.sol:AuroraBNIStrategy",
        "label": "__gap",
        "offset": 0,
        "slot": "1",
        "type": "t_array(t_uint256)50_storage"
      },
      {
        "astId": 10,
        "contract": "contracts/bni/strategy/AuroraBNIStrategy.sol:AuroraBNIStrategy",
        "label": "_owner",
        "offset": 0,
        "slot": "51",
        "type": "t_address"
      },
      {
        "astId": 130,
        "contract": "contracts/bni/strategy/AuroraBNIStrategy.sol:AuroraBNIStrategy",
        "label": "__gap",
        "offset": 0,
        "slot": "52",
        "type": "t_array(t_uint256)49_storage"
      },
      {
        "astId": 12938,
        "contract": "contracts/bni/strategy/AuroraBNIStrategy.sol:AuroraBNIStrategy",
        "label": "router",
        "offset": 0,
        "slot": "101",
        "type": "t_contract(IUniRouter)48759"
      },
      {
        "astId": 12941,
        "contract": "contracts/bni/strategy/AuroraBNIStrategy.sol:AuroraBNIStrategy",
        "label": "SWAP_BASE_TOKEN",
        "offset": 0,
        "slot": "102",
        "type": "t_contract(IERC20UpgradeableExt)48263"
      },
      {
        "astId": 12944,
        "contract": "contracts/bni/strategy/AuroraBNIStrategy.sol:AuroraBNIStrategy",
        "label": "USDT",
        "offset": 0,
        "slot": "103",
        "type": "t_contract(IERC20UpgradeableExt)48263"
      },
      {
        "astId": 12946,
        "contract": "contracts/bni/strategy/AuroraBNIStrategy.sol:AuroraBNIStrategy",
        "label": "usdtDecimals",
        "offset": 20,
        "slot": "103",
        "type": "t_uint8"
      },
      {
        "astId": 12951,
        "contract": "contracts/bni/strategy/AuroraBNIStrategy.sol:AuroraBNIStrategy",
        "label": "treasuryWallet",
        "offset": 0,
        "slot": "104",
        "type": "t_address"
      },
      {
        "astId": 12953,
        "contract": "contracts/bni/strategy/AuroraBNIStrategy.sol:AuroraBNIStrategy",
        "label": "admin",
        "offset": 0,
        "slot": "105",
        "type": "t_address"
      },
      {
        "astId": 12955,
        "contract": "contracts/bni/strategy/AuroraBNIStrategy.sol:AuroraBNIStrategy",
        "label": "vault",
        "offset": 0,
        "slot": "106",
        "type": "t_address"
      },
      {
        "astId": 12958,
        "contract": "contracts/bni/strategy/AuroraBNIStrategy.sol:AuroraBNIStrategy",
        "label": "priceOracle",
        "offset": 0,
        "slot": "107",
        "type": "t_contract(IPriceOracle)11580"
      },
      {
        "astId": 12961,
        "contract": "contracts/bni/strategy/AuroraBNIStrategy.sol:AuroraBNIStrategy",
        "label": "tokens",
        "offset": 0,
        "slot": "108",
        "type": "t_array(t_address)dyn_storage"
      },
      {
        "astId": 12965,
        "contract": "contracts/bni/strategy/AuroraBNIStrategy.sol:AuroraBNIStrategy",
        "label": "pid",
        "offset": 0,
        "slot": "109",
        "type": "t_mapping(t_address,t_uint256)"
      },
      {
        "astId": 14342,
        "contract": "contracts/bni/strategy/AuroraBNIStrategy.sol:AuroraBNIStrategy",
        "label": "__gap",
        "offset": 0,
        "slot": "110",
        "type": "t_array(t_uint256)40_storage"
      },
      {
        "astId": 12159,
        "contract": "contracts/bni/strategy/AuroraBNIStrategy.sol:AuroraBNIStrategy",
        "label": "WNEARVault",
        "offset": 0,
        "slot": "150",
        "type": "t_contract(IL2Vault)48294"
      }
    ],
    "types": {
      "t_address": {
        "encoding": "inplace",
        "label": "address",
        "numberOfBytes": "20"
      },
      "t_array(t_address)dyn_storage": {
        "base": "t_address",
        "encoding": "dynamic_array",
        "label": "address[]",
        "numberOfBytes": "32"
      },
      "t_array(t_uint256)40_storage": {
        "base": "t_uint256",
        "encoding": "inplace",
        "label": "uint256[40]",
        "numberOfBytes": "1280"
      },
      "t_array(t_uint256)49_storage": {
        "base": "t_uint256",
        "encoding": "inplace",
        "label": "uint256[49]",
        "numberOfBytes": "1568"
      },
      "t_array(t_uint256)50_storage": {
        "base": "t_uint256",
        "encoding": "inplace",
        "label": "uint256[50]",
        "numberOfBytes": "1600"
      },
      "t_bool": {
        "encoding": "inplace",
        "label": "bool",
        "numberOfBytes": "1"
      },
      "t_contract(IERC20UpgradeableExt)48263": {
        "encoding": "inplace",
        "label": "contract IERC20UpgradeableExt",
        "numberOfBytes": "20"
      },
      "t_contract(IL2Vault)48294": {
        "encoding": "inplace",
        "label": "contract IL2Vault",
        "numberOfBytes": "20"
      },
      "t_contract(IPriceOracle)11580": {
        "encoding": "inplace",
        "label": "contract IPriceOracle",
        "numberOfBytes": "20"
      },
      "t_contract(IUniRouter)48759": {
        "encoding": "inplace",
        "label": "contract IUniRouter",
        "numberOfBytes": "20"
      },
      "t_mapping(t_address,t_uint256)": {
        "encoding": "mapping",
        "key": "t_address",
        "label": "mapping(address => uint256)",
        "numberOfBytes": "32",
        "value": "t_uint256"
      },
      "t_uint256": {
        "encoding": "inplace",
        "label": "uint256",
        "numberOfBytes": "32"
      },
      "t_uint8": {
        "encoding": "inplace",
        "label": "uint8",
        "numberOfBytes": "1"
      }
    }
  }
}