{
  "address": "0x577cE34Cb42d915d2DcA430223634026D429C33D",
  "abi": [
    {
      "anonymous": false,
      "inputs": [
        {
          "indexed": false,
          "internalType": "uint8",
          "name": "version",
          "type": "uint8"
        }
      ],
      "name": "Initialized",
      "type": "event"
    },
    {
      "anonymous": false,
      "inputs": [
        {
          "indexed": true,
          "internalType": "address",
          "name": "previousOwner",
          "type": "address"
        },
        {
          "indexed": true,
          "internalType": "address",
          "name": "newOwner",
          "type": "address"
        }
      ],
      "name": "OwnershipTransferred",
      "type": "event"
    },
    {
      "inputs": [
        {
          "internalType": "address",
          "name": "asset",
          "type": "address"
        }
      ],
      "name": "getAssetPrice",
      "outputs": [
        {
          "internalType": "uint256",
          "name": "price",
          "type": "uint256"
        },
        {
          "internalType": "uint8",
          "name": "decimals",
          "type": "uint8"
        }
      ],
      "stateMutability": "view",
      "type": "function"
    },
    {
      "inputs": [
        {
          "internalType": "address[]",
          "name": "assets",
          "type": "address[]"
        }
      ],
      "name": "getAssetsPrices",
      "outputs": [
        {
          "internalType": "uint256[]",
          "name": "prices",
          "type": "uint256[]"
        },
        {
          "internalType": "uint8[]",
          "name": "decimalsArray",
          "type": "uint8[]"
        }
      ],
      "stateMutability": "view",
      "type": "function"
    },
    {
      "inputs": [
        {
          "internalType": "address",
          "name": "asset",
          "type": "address"
        }
      ],
      "name": "getSourceOfAsset",
      "outputs": [
        {
          "internalType": "address",
          "name": "",
          "type": "address"
        }
      ],
      "stateMutability": "view",
      "type": "function"
    },
    {
      "inputs": [],
      "name": "getWNEARPrice",
      "outputs": [
        {
          "internalType": "uint256",
          "name": "price",
          "type": "uint256"
        },
        {
          "internalType": "uint8",
          "name": "decimals",
          "type": "uint8"
        }
      ],
      "stateMutability": "view",
      "type": "function"
    },
    {
      "inputs": [],
      "name": "initialize",
      "outputs": [],
      "stateMutability": "nonpayable",
      "type": "function"
    },
    {
      "inputs": [],
      "name": "owner",
      "outputs": [
        {
          "internalType": "address",
          "name": "",
          "type": "address"
        }
      ],
      "stateMutability": "view",
      "type": "function"
    },
    {
      "inputs": [],
      "name": "renounceOwnership",
      "outputs": [],
      "stateMutability": "nonpayable",
      "type": "function"
    },
    {
      "inputs": [
        {
          "internalType": "address[]",
          "name": "assets",
          "type": "address[]"
        },
        {
          "internalType": "address[]",
          "name": "sources",
          "type": "address[]"
        }
      ],
      "name": "setAssetSources",
      "outputs": [],
      "stateMutability": "nonpayable",
      "type": "function"
    },
    {
      "inputs": [
        {
          "internalType": "address",
          "name": "newOwner",
          "type": "address"
        }
      ],
      "name": "transferOwnership",
      "outputs": [],
      "stateMutability": "nonpayable",
      "type": "function"
    }
  ],
  "transactionHash": "0x49d78c3983f77b39ed5aa514a2dd1f91dac0087825f1fa54d068ecd341158c80",
  "args": [],
  "numDeployments": 3,
  "solcInputHash": "9a335077fa45839f87120ae1e6af8ee1",
  "bytecode": "0x608060405234801561001057600080fd5b50611389806100206000396000f3fe608060405234801561001057600080fd5b50600436106100935760003560e01c80639d23d9f2116100665780639d23d9f214610100578063abfd531014610121578063b3596f0714610134578063e6f497d81461015e578063f2fde38b1461016657600080fd5b8063715018a6146100985780638129fc1c146100a25780638da5cb5b146100aa57806392bf2be0146100d4575b600080fd5b6100a0610179565b005b6100a061018d565b6033546001600160a01b03165b6040516001600160a01b0390911681526020015b60405180910390f35b6100b76100e2366004610e9d565b6001600160a01b039081166000908152606560205260409020541690565b61011361010e366004610f79565b6102a3565b6040516100cb929190610fb6565b6100a061012f366004611034565b6103ca565b610147610142366004610e9d565b6104bd565b6040805192835260ff9091166020830152016100cb565b610147610635565b6100a0610174366004610e9d565b6106c5565b61018161073b565b61018b6000610795565b565b600054610100900460ff16158080156101ad5750600054600160ff909116105b806101c75750303b1580156101c7575060005460ff166001145b61022f5760405162461bcd60e51b815260206004820152602e60248201527f496e697469616c697a61626c653a20636f6e747261637420697320616c72656160448201526d191e481a5b9a5d1a585b1a5e995960921b60648201526084015b60405180910390fd5b6000805460ff191660011790558015610252576000805461ff0019166101001790555b61025a6107e7565b80156102a0576000805461ff0019169055604051600181527f7f26b83ff96e1f2b6a682f133852f6798a09c465da95921460cefb38474024989060200160405180910390a15b50565b805160609081908067ffffffffffffffff8111156102c3576102c3610ec1565b6040519080825280602002602001820160405280156102ec578160200160208202803683370190505b5092508067ffffffffffffffff81111561030857610308610ec1565b604051908082528060200260200182016040528015610331578160200160208202803683370190505b50915060005b818110156103c35760008061036487848151811061035757610357611098565b60200260200101516104bd565b915091508186848151811061037b5761037b611098565b6020026020010181815250508085848151811061039a5761039a611098565b602002602001019060ff16908160ff1681525050505080806103bb906110c4565b915050610337565b5050915091565b6103d261073b565b81518151811461041d5760405162461bcd60e51b815260206004820152601660248201527509cdee840dac2e8c6d040c2e4e4c2f240d8cadccee8d60531b6044820152606401610226565b60005b818110156104b75782818151811061043a5761043a611098565b60200260200101516065600086848151811061045857610458611098565b60200260200101516001600160a01b03166001600160a01b0316815260200190815260200160002060006101000a8154816001600160a01b0302191690836001600160a01b0316021790555080806104af906110c4565b915050610420565b50505050565b6000806001600160a01b038316734988a896b1227218e4a686fde5eabdcabd91571f148061050757506001600160a01b03831673b12bfca5a55806aaf64e99521918a4bf0fc40802145b1561051b57506305f5e10092600892509050565b6001600160a01b03831673c42c30ac6cc15fac9bd938618bcaa1a1fae8501d141561055157610548610635565b91509150915091565b6001600160a01b038316739f1f933c660a1dc856f0e0fe058435879c5ccef014156105a85761054873bbf3d4281f10e537d5b13ca80be22362310b2bf9739f1f933c660a1dc856f0e0fe058435879c5ccef0610816565b6001600160a01b03831673c21ff01229e982d7c8b8691163b0a3cb8f35745314156105ff5761054873a8caaf35c0136033294dd286a14051fbf37aed0773c21ff01229e982d7c8b8691163b0a3cb8f357453610816565b6001600160a01b0383167307f9f7f963c5cd2bbffd30ccfb964be114332e30141561062c57610548610860565b610548836109d1565b600080600061066c7303b666f3488a7992b2385b12df7f35156d7b29cd73c42c30ac6cc15fac9bd938618bcaa1a1fae8501d610af3565b905060006106a27320f8aefb5697b77e0bb835a8518be70775cda1b073c42c30ac6cc15fac9bd938618bcaa1a1fae8501d610af3565b905060026106b082846110df565b6106ba91906110f7565b946012945092505050565b6106cd61073b565b6001600160a01b0381166107325760405162461bcd60e51b815260206004820152602660248201527f4f776e61626c653a206e6577206f776e657220697320746865207a65726f206160448201526564647265737360d01b6064820152608401610226565b6102a081610795565b6033546001600160a01b0316331461018b5760405162461bcd60e51b815260206004820181905260248201527f4f776e61626c653a2063616c6c6572206973206e6f7420746865206f776e65726044820152606401610226565b603380546001600160a01b038381166001600160a01b0319831681179093556040519116919082907f8be0079c531659141344cd1fd0a4f28419497f9722a3daafe3b4186f6b6457e090600090a35050565b600054610100900460ff1661080e5760405162461bcd60e51b815260040161022690611119565b61018b610e48565b60008060006108258585610af3565b9050600080610832610635565b9092509050670de0b6b3a764000061084a8484611164565b61085491906110f7565b97909650945050505050565b600080600061271073534bacf1126f60ea513f796a3377ff432be62cf96001600160a01b031663498049bd6040518163ffffffff1660e01b815260040160206040518083038186803b1580156108b557600080fd5b505afa1580156108c9573d6000803e3d6000fd5b505050506040513d601f19601f820116820180604052508101906108ed9190611183565b6108fd9061ffff166127106111a7565b73534bacf1126f60ea513f796a3377ff432be62cf96001600160a01b031663f79a4fb96040518163ffffffff1660e01b815260040160206040518083038186803b15801561094a57600080fd5b505afa15801561095e573d6000803e3d6000fd5b505050506040513d601f19601f8201168201806040525081019061098291906111be565b61098c9190611164565b61099691906110f7565b90506000806109a3610635565b909250905069d3c21bcecceda10000006109bd8484611164565b6109c791906110f7565b9590945092505050565b6001600160a01b0380821660009081526065602052604081205490918291168015610aed576000816001600160a01b03166350d25bcd6040518163ffffffff1660e01b815260040160206040518083038186803b158015610a3157600080fd5b505afa158015610a45573d6000803e3d6000fd5b505050506040513d601f19601f82011682018060405250810190610a6991906111be565b90506000811315610a78578093505b816001600160a01b031663313ce5676040518163ffffffff1660e01b815260040160206040518083038186803b158015610ab157600080fd5b505afa158015610ac5573d6000803e3d6000fd5b505050506040513d601f19601f82011682018060405250810190610ae991906111d7565b9250505b50915091565b6000806000846001600160a01b0316630902f1ac6040518163ffffffff1660e01b8152600401604080518083038186803b158015610b3057600080fd5b505afa158015610b44573d6000803e3d6000fd5b505050506040513d601f19601f82011682018060405250810190610b6891906111fa565b915091506000856001600160a01b0316630dfe16816040518163ffffffff1660e01b815260040160206040518083038186803b158015610ba757600080fd5b505afa158015610bbb573d6000803e3d6000fd5b505050506040513d601f19601f82011682018060405250810190610bdf919061121e565b90506000866001600160a01b031663d21220a76040518163ffffffff1660e01b815260040160206040518083038186803b158015610c1c57600080fd5b505afa158015610c30573d6000803e3d6000fd5b505050506040513d601f19601f82011682018060405250810190610c54919061121e565b90506000826001600160a01b031663313ce5676040518163ffffffff1660e01b815260040160206040518083038186803b158015610c9157600080fd5b505afa158015610ca5573d6000803e3d6000fd5b505050506040513d601f19601f82011682018060405250810190610cc991906111d7565b90506000826001600160a01b031663313ce5676040518163ffffffff1660e01b815260040160206040518083038186803b158015610d0657600080fd5b505afa158015610d1a573d6000803e3d6000fd5b505050506040513d601f19601f82011682018060405250810190610d3e91906111d7565b9050600080896001600160a01b0316866001600160a01b03161415610d9b57610d6884601261123b565b610d7390600a611344565b610d7d9088611164565b9150610d8a83600a611344565b610d949089611164565b9050610e2d565b896001600160a01b0316856001600160a01b03161415610dec57610dc083601261123b565b610dcb90600a611344565b610dd59089611164565b9150610de284600a611344565b610d949088611164565b60405162461bcd60e51b815260206004820152601660248201527524b73b30b634b2103830b4b91030b732103a37b5b2b760511b6044820152606401610226565b610e3781836110f7565b985050505050505050505b92915050565b600054610100900460ff16610e6f5760405162461bcd60e51b815260040161022690611119565b61018b33610795565b6001600160a01b03811681146102a057600080fd5b8035610e9881610e78565b919050565b600060208284031215610eaf57600080fd5b8135610eba81610e78565b9392505050565b634e487b7160e01b600052604160045260246000fd5b600082601f830112610ee857600080fd5b8135602067ffffffffffffffff80831115610f0557610f05610ec1565b8260051b604051601f19603f83011681018181108482111715610f2a57610f2a610ec1565b604052938452858101830193838101925087851115610f4857600080fd5b83870191505b84821015610f6e57610f5f82610e8d565b83529183019190830190610f4e565b979650505050505050565b600060208284031215610f8b57600080fd5b813567ffffffffffffffff811115610fa257600080fd5b610fae84828501610ed7565b949350505050565b604080825283519082018190526000906020906060840190828701845b82811015610fef57815184529284019290840190600101610fd3565b5050508381038285015284518082528583019183019060005b8181101561102757835160ff1683529284019291840191600101611008565b5090979650505050505050565b6000806040838503121561104757600080fd5b823567ffffffffffffffff8082111561105f57600080fd5b61106b86838701610ed7565b9350602085013591508082111561108157600080fd5b5061108e85828601610ed7565b9150509250929050565b634e487b7160e01b600052603260045260246000fd5b634e487b7160e01b600052601160045260246000fd5b60006000198214156110d8576110d86110ae565b5060010190565b600082198211156110f2576110f26110ae565b500190565b60008261111457634e487b7160e01b600052601260045260246000fd5b500490565b6020808252602b908201527f496e697469616c697a61626c653a20636f6e7472616374206973206e6f74206960408201526a6e697469616c697a696e6760a81b606082015260800190565b600081600019048311821515161561117e5761117e6110ae565b500290565b60006020828403121561119557600080fd5b815161ffff81168114610eba57600080fd5b6000828210156111b9576111b96110ae565b500390565b6000602082840312156111d057600080fd5b5051919050565b6000602082840312156111e957600080fd5b815160ff81168114610eba57600080fd5b6000806040838503121561120d57600080fd5b505080516020909101519092909150565b60006020828403121561123057600080fd5b8151610eba81610e78565b600060ff821660ff84168060ff03821115611258576112586110ae565b019392505050565b600181815b8085111561129b578160001904821115611281576112816110ae565b8085161561128e57918102915b93841c9390800290611265565b509250929050565b6000826112b257506001610e42565b816112bf57506000610e42565b81600181146112d557600281146112df576112fb565b6001915050610e42565b60ff8411156112f0576112f06110ae565b50506001821b610e42565b5060208310610133831016604e8410600b841016171561131e575081810a610e42565b6113288383611260565b806000190482111561133c5761133c6110ae565b029392505050565b6000610eba60ff8416836112a356fea26469706673582212208a8b57032e78ad2fe71d02c7a90421ffe064071720142fd0d8866d6ab514e08e64736f6c63430008090033",
  "devdoc": {
    "kind": "dev",
    "methods": {
      "getAssetsPrices(address[])": {
        "params": {
          "assets": "The list of assets addresses"
        },
        "returns": {
          "prices": "The prices of the given assets"
        }
      },
      "getSourceOfAsset(address)": {
        "params": {
          "asset": "The address of the asset"
        },
        "returns": {
          "_0": "The address of the source"
        }
      },
      "owner()": {
        "details": "Returns the address of the current owner."
      },
      "renounceOwnership()": {
        "details": "Leaves the contract without owner. It will not be possible to call `onlyOwner` functions anymore. Can only be called by the current owner. NOTE: Renouncing ownership will leave the contract without an owner, thereby removing any functionality that is only available to the owner."
      },
      "setAssetSources(address[],address[])": {
        "params": {
          "assets": "The addresses of the assets",
          "sources": "The addresses of the price sources"
        }
      },
      "transferOwnership(address)": {
        "details": "Transfers ownership of the contract to a new account (`newOwner`). Can only be called by the current owner."
      }
    },
    "version": 1
  },
  "userdoc": {
    "kind": "user",
    "methods": {
      "getAssetPrice(address)": {
        "notice": "Chainlink is not yet supported on Aurora."
      },
      "getAssetsPrices(address[])": {
        "notice": "Returns a list of prices from a list of assets addresses"
      },
      "getSourceOfAsset(address)": {
        "notice": "Returns the address of the source for an asset address"
      },
      "setAssetSources(address[],address[])": {
        "notice": "Sets or replaces price sources of assets"
      }
    },
    "version": 1
  },
  "storageLayout": {
    "storage": [
      {
        "astId": 138,
        "contract": "contracts/bni/priceOracle/AuroraPriceOracle.sol:AuroraPriceOracle",
        "label": "_initialized",
        "offset": 0,
        "slot": "0",
        "type": "t_uint8"
      },
      {
        "astId": 141,
        "contract": "contracts/bni/priceOracle/AuroraPriceOracle.sol:AuroraPriceOracle",
        "label": "_initializing",
        "offset": 1,
        "slot": "0",
        "type": "t_bool"
      },
      {
        "astId": 2836,
        "contract": "contracts/bni/priceOracle/AuroraPriceOracle.sol:AuroraPriceOracle",
        "label": "__gap",
        "offset": 0,
        "slot": "1",
        "type": "t_array(t_uint256)50_storage"
      },
      {
        "astId": 10,
        "contract": "contracts/bni/priceOracle/AuroraPriceOracle.sol:AuroraPriceOracle",
        "label": "_owner",
        "offset": 0,
        "slot": "51",
        "type": "t_address"
      },
      {
        "astId": 130,
        "contract": "contracts/bni/priceOracle/AuroraPriceOracle.sol:AuroraPriceOracle",
        "label": "__gap",
        "offset": 0,
        "slot": "52",
        "type": "t_array(t_uint256)49_storage"
      },
      {
        "astId": 11935,
        "contract": "contracts/bni/priceOracle/AuroraPriceOracle.sol:AuroraPriceOracle",
        "label": "assetsSources",
        "offset": 0,
        "slot": "101",
        "type": "t_mapping(t_address,t_contract(IChainlinkAggregator)11926)"
      },
      {
        "astId": 12137,
        "contract": "contracts/bni/priceOracle/AuroraPriceOracle.sol:AuroraPriceOracle",
        "label": "__gap",
        "offset": 0,
        "slot": "102",
        "type": "t_array(t_uint256)49_storage"
      }
    ],
    "types": {
      "t_address": {
        "encoding": "inplace",
        "label": "address",
        "numberOfBytes": "20"
      },
      "t_array(t_uint256)49_storage": {
        "base": "t_uint256",
        "encoding": "inplace",
        "label": "uint256[49]",
        "numberOfBytes": "1568"
      },
      "t_array(t_uint256)50_storage": {
        "base": "t_uint256",
        "encoding": "inplace",
        "label": "uint256[50]",
        "numberOfBytes": "1600"
      },
      "t_bool": {
        "encoding": "inplace",
        "label": "bool",
        "numberOfBytes": "1"
      },
      "t_contract(IChainlinkAggregator)11926": {
        "encoding": "inplace",
        "label": "contract IChainlinkAggregator",
        "numberOfBytes": "20"
      },
      "t_mapping(t_address,t_contract(IChainlinkAggregator)11926)": {
        "encoding": "mapping",
        "key": "t_address",
        "label": "mapping(address => contract IChainlinkAggregator)",
        "numberOfBytes": "32",
        "value": "t_contract(IChainlinkAggregator)11926"
      },
      "t_uint256": {
        "encoding": "inplace",
        "label": "uint256",
        "numberOfBytes": "32"
      },
      "t_uint8": {
        "encoding": "inplace",
        "label": "uint8",
        "numberOfBytes": "1"
      }
    }
  }
}