{
  "address": "0xEBADF005F74a0d96FB75232Aa947C346535F57Ec",
  "abi": [
    {
      "anonymous": false,
      "inputs": [
        {
          "indexed": false,
          "internalType": "uint256",
          "name": "currentWatermark",
          "type": "uint256"
        },
        {
          "indexed": false,
          "internalType": "uint256",
          "name": "lastWatermark",
          "type": "uint256"
        }
      ],
      "name": "AdjustWatermark",
      "type": "event"
    },
    {
      "anonymous": false,
      "inputs": [
        {
          "indexed": false,
          "internalType": "uint256",
          "name": "currentWatermark",
          "type": "uint256"
        },
        {
          "indexed": false,
          "internalType": "uint256",
          "name": "lastWatermark",
          "type": "uint256"
        },
        {
          "indexed": false,
          "internalType": "uint256",
          "name": "fee",
          "type": "uint256"
        }
      ],
      "name": "CollectProfitAndUpdateWatermark",
      "type": "event"
    },
    {
      "anonymous": false,
      "inputs": [
        {
          "indexed": false,
          "internalType": "address",
          "name": "caller",
          "type": "address"
        },
        {
          "indexed": false,
          "internalType": "uint256",
          "name": "amtDeposit",
          "type": "uint256"
        },
        {
          "indexed": false,
          "internalType": "address",
          "name": "tokenDeposit",
          "type": "address"
        }
      ],
      "name": "Deposit",
      "type": "event"
    },
    {
      "anonymous": false,
      "inputs": [
        {
          "indexed": false,
          "internalType": "uint8",
          "name": "version",
          "type": "uint8"
        }
      ],
      "name": "Initialized",
      "type": "event"
    },
    {
      "anonymous": false,
      "inputs": [
        {
          "indexed": true,
          "internalType": "address",
          "name": "previousOwner",
          "type": "address"
        },
        {
          "indexed": true,
          "internalType": "address",
          "name": "newOwner",
          "type": "address"
        }
      ],
      "name": "OwnershipTransferred",
      "type": "event"
    },
    {
      "anonymous": false,
      "inputs": [
        {
          "indexed": false,
          "internalType": "address",
          "name": "account",
          "type": "address"
        }
      ],
      "name": "Paused",
      "type": "event"
    },
    {
      "anonymous": false,
      "inputs": [
        {
          "indexed": false,
          "internalType": "uint256",
          "name": "pid",
          "type": "uint256"
        },
        {
          "indexed": false,
          "internalType": "uint256",
          "name": "sharePerc",
          "type": "uint256"
        },
        {
          "indexed": false,
          "internalType": "uint256",
          "name": "amount",
          "type": "uint256"
        },
        {
          "indexed": false,
          "internalType": "address",
          "name": "target",
          "type": "address"
        }
      ],
      "name": "Rebalance",
      "type": "event"
    },
    {
      "anonymous": false,
      "inputs": [
        {
          "indexed": false,
          "internalType": "uint256",
          "name": "amount",
          "type": "uint256"
        }
      ],
      "name": "Reinvest",
      "type": "event"
    },
    {
      "anonymous": false,
      "inputs": [
        {
          "indexed": false,
          "internalType": "address",
          "name": "oldAdmin",
          "type": "address"
        },
        {
          "indexed": false,
          "internalType": "address",
          "name": "newAdmin",
          "type": "address"
        }
      ],
      "name": "SetAdminWallet",
      "type": "event"
    },
    {
      "anonymous": false,
      "inputs": [
        {
          "indexed": false,
          "internalType": "address",
          "name": "oldTreasuryWallet",
          "type": "address"
        },
        {
          "indexed": false,
          "internalType": "address",
          "name": "newTreasuryWallet",
          "type": "address"
        }
      ],
      "name": "SetTreasuryWallet",
      "type": "event"
    },
    {
      "anonymous": false,
      "inputs": [
        {
          "indexed": false,
          "internalType": "uint256",
          "name": "fees",
          "type": "uint256"
        },
        {
          "indexed": false,
          "internalType": "address",
          "name": "token",
          "type": "address"
        }
      ],
      "name": "TransferredOutFees",
      "type": "event"
    },
    {
      "anonymous": false,
      "inputs": [
        {
          "indexed": false,
          "internalType": "address",
          "name": "account",
          "type": "address"
        }
      ],
      "name": "Unpaused",
      "type": "event"
    },
    {
      "anonymous": false,
      "inputs": [
        {
          "indexed": false,
          "internalType": "address",
          "name": "caller",
          "type": "address"
        },
        {
          "indexed": false,
          "internalType": "uint256",
          "name": "amtWithdraw",
          "type": "uint256"
        },
        {
          "indexed": false,
          "internalType": "address",
          "name": "tokenWithdraw",
          "type": "address"
        },
        {
          "indexed": false,
          "internalType": "uint256",
          "name": "sharePerc",
          "type": "uint256"
        }
      ],
      "name": "Withdraw",
      "type": "event"
    },
    {
      "inputs": [],
      "name": "USDT",
      "outputs": [
        {
          "internalType": "contract IERC20UpgradeableExt",
          "name": "",
          "type": "address"
        }
      ],
      "stateMutability": "view",
      "type": "function"
    },
    {
      "inputs": [],
      "name": "admin",
      "outputs": [
        {
          "internalType": "address",
          "name": "",
          "type": "address"
        }
      ],
      "stateMutability": "view",
      "type": "function"
    },
    {
      "inputs": [],
      "name": "collectProfitAndUpdateWatermark",
      "outputs": [],
      "stateMutability": "nonpayable",
      "type": "function"
    },
    {
      "inputs": [
        {
          "internalType": "address",
          "name": "_account",
          "type": "address"
        },
        {
          "internalType": "address[]",
          "name": "_tokens",
          "type": "address[]"
        },
        {
          "internalType": "uint256[]",
          "name": "_USDTAmts",
          "type": "uint256[]"
        }
      ],
      "name": "deposit",
      "outputs": [],
      "stateMutability": "nonpayable",
      "type": "function"
    },
    {
      "inputs": [],
      "name": "emergencyWithdraw",
      "outputs": [],
      "stateMutability": "nonpayable",
      "type": "function"
    },
    {
      "inputs": [],
      "name": "fees",
      "outputs": [
        {
          "internalType": "uint256",
          "name": "",
          "type": "uint256"
        }
      ],
      "stateMutability": "view",
      "type": "function"
    },
    {
      "inputs": [],
      "name": "getAPR",
      "outputs": [
        {
          "internalType": "uint256",
          "name": "",
          "type": "uint256"
        }
      ],
      "stateMutability": "view",
      "type": "function"
    },
    {
      "inputs": [],
      "name": "getAllPoolInUSD",
      "outputs": [
        {
          "internalType": "uint256",
          "name": "",
          "type": "uint256"
        }
      ],
      "stateMutability": "view",
      "type": "function"
    },
    {
      "inputs": [],
      "name": "getChainID",
      "outputs": [
        {
          "internalType": "uint256",
          "name": "id",
          "type": "uint256"
        }
      ],
      "stateMutability": "view",
      "type": "function"
    },
    {
      "inputs": [],
      "name": "getCurrentCompositionPerc",
      "outputs": [
        {
          "internalType": "address[]",
          "name": "tokens",
          "type": "address[]"
        },
        {
          "internalType": "uint256[]",
          "name": "percentages",
          "type": "uint256[]"
        }
      ],
      "stateMutability": "view",
      "type": "function"
    },
    {
      "inputs": [],
      "name": "getEachPoolInUSD",
      "outputs": [
        {
          "internalType": "uint256[]",
          "name": "chainIDs",
          "type": "uint256[]"
        },
        {
          "internalType": "address[]",
          "name": "tokens",
          "type": "address[]"
        },
        {
          "internalType": "uint256[]",
          "name": "pools",
          "type": "uint256[]"
        }
      ],
      "stateMutability": "view",
      "type": "function"
    },
    {
      "inputs": [],
      "name": "getUSDTPriceInUSD",
      "outputs": [
        {
          "internalType": "uint256",
          "name": "",
          "type": "uint256"
        },
        {
          "internalType": "uint8",
          "name": "",
          "type": "uint8"
        }
      ],
      "stateMutability": "view",
      "type": "function"
    },
    {
      "inputs": [
        {
          "internalType": "address",
          "name": "_treasuryWallet",
          "type": "address"
        },
        {
          "internalType": "address",
          "name": "_admin",
          "type": "address"
        },
        {
          "internalType": "address",
          "name": "_strategy",
          "type": "address"
        },
        {
          "internalType": "address",
          "name": "_priceOracle",
          "type": "address"
        },
        {
          "internalType": "address",
          "name": "_USDT",
          "type": "address"
        }
      ],
      "name": "initialize",
      "outputs": [],
      "stateMutability": "nonpayable",
      "type": "function"
    },
    {
      "inputs": [],
      "name": "owner",
      "outputs": [
        {
          "internalType": "address",
          "name": "",
          "type": "address"
        }
      ],
      "stateMutability": "view",
      "type": "function"
    },
    {
      "inputs": [],
      "name": "paused",
      "outputs": [
        {
          "internalType": "bool",
          "name": "",
          "type": "bool"
        }
      ],
      "stateMutability": "view",
      "type": "function"
    },
    {
      "inputs": [],
      "name": "priceOracle",
      "outputs": [
        {
          "internalType": "contract IPriceOracle",
          "name": "",
          "type": "address"
        }
      ],
      "stateMutability": "view",
      "type": "function"
    },
    {
      "inputs": [],
      "name": "profitFeePerc",
      "outputs": [
        {
          "internalType": "uint256",
          "name": "",
          "type": "uint256"
        }
      ],
      "stateMutability": "view",
      "type": "function"
    },
    {
      "inputs": [
        {
          "internalType": "uint256",
          "name": "_pid",
          "type": "uint256"
        },
        {
          "internalType": "uint256",
          "name": "_sharePerc",
          "type": "uint256"
        },
        {
          "internalType": "address",
          "name": "_target",
          "type": "address"
        }
      ],
      "name": "rebalance",
      "outputs": [],
      "stateMutability": "nonpayable",
      "type": "function"
    },
    {
      "inputs": [
        {
          "internalType": "address[]",
          "name": "_tokens",
          "type": "address[]"
        },
        {
          "internalType": "uint256[]",
          "name": "_perc",
          "type": "uint256[]"
        }
      ],
      "name": "reinvest",
      "outputs": [],
      "stateMutability": "nonpayable",
      "type": "function"
    },
    {
      "inputs": [],
      "name": "renounceOwnership",
      "outputs": [],
      "stateMutability": "nonpayable",
      "type": "function"
    },
    {
      "inputs": [
        {
          "internalType": "address",
          "name": "_admin",
          "type": "address"
        }
      ],
      "name": "setAdmin",
      "outputs": [],
      "stateMutability": "nonpayable",
      "type": "function"
    },
    {
      "inputs": [
        {
          "internalType": "uint256",
          "name": "_profitFeePerc",
          "type": "uint256"
        }
      ],
      "name": "setProfitFeePerc",
      "outputs": [],
      "stateMutability": "nonpayable",
      "type": "function"
    },
    {
      "inputs": [
        {
          "internalType": "address",
          "name": "_treasuryWallet",
          "type": "address"
        }
      ],
      "name": "setTreasuryWallet",
      "outputs": [],
      "stateMutability": "nonpayable",
      "type": "function"
    },
    {
      "inputs": [],
      "name": "strategy",
      "outputs": [
        {
          "internalType": "contract IStrategy",
          "name": "",
          "type": "address"
        }
      ],
      "stateMutability": "view",
      "type": "function"
    },
    {
      "inputs": [
        {
          "internalType": "address",
          "name": "newOwner",
          "type": "address"
        }
      ],
      "name": "transferOwnership",
      "outputs": [],
      "stateMutability": "nonpayable",
      "type": "function"
    },
    {
      "inputs": [],
      "name": "treasuryWallet",
      "outputs": [
        {
          "internalType": "address",
          "name": "",
          "type": "address"
        }
      ],
      "stateMutability": "view",
      "type": "function"
    },
    {
      "inputs": [],
      "name": "watermark",
      "outputs": [
        {
          "internalType": "uint256",
          "name": "",
          "type": "uint256"
        }
      ],
      "stateMutability": "view",
      "type": "function"
    },
    {
      "inputs": [],
      "name": "withdrawFees",
      "outputs": [],
      "stateMutability": "nonpayable",
      "type": "function"
    },
    {
      "inputs": [
        {
          "internalType": "address",
          "name": "_account",
          "type": "address"
        },
        {
          "internalType": "uint256",
          "name": "_sharePerc",
          "type": "uint256"
        }
      ],
      "name": "withdrawPerc",
      "outputs": [],
      "stateMutability": "nonpayable",
      "type": "function"
    }
  ],
  "transactionHash": "0x6488f7ea0a4ab135e88d6c835f550276175799cd785f98e757fd004ee196ef8e",
  "args": [],
  "numDeployments": 2,
  "solcInputHash": "13943275061d90e43ded9a72e85534a6",
  "bytecode": "0x608060405234801561001057600080fd5b50613107806100206000396000f3fe608060405234801561001057600080fd5b50600436106101cf5760003560e01c80639b86088211610104578063c54e44eb116100a2578063efca0d0711610071578063efca0d0714610393578063f13dc2e21461039c578063f2fde38b146103a5578063f851a440146103b857600080fd5b8063c54e44eb1461035d578063c89d5b8b14610370578063d38d5fc414610378578063db2e21bc1461038b57600080fd5b8063aae09236116100de578063aae0923614610309578063ac25f68914610320578063b47c6a2714610336578063bd244af41461035557600080fd5b80639b860882146102d0578063a8602fea146102e3578063a8c62e76146102f657600080fd5b8063564b81ef11610171578063704b6c021161014b578063704b6c021461029b578063715018a6146102ae5780638da5cb5b146102b65780639af1d35a146102c757600080fd5b8063564b81ef146102625780635c975abb146102725780636d2b3d7b1461028857600080fd5b80634626402b116101ad5780634626402b1461022c578063470343d81461023f578063476343ee14610247578063562fa0df1461024f57600080fd5b80630b47b7ff146101d45780631459457a146101e95780632630c12f146101fc575b600080fd5b6101e76101e236600461279f565b6103cb565b005b6101e76101f73660046127cd565b610456565b60cc5461020f906001600160a01b031681565b6040516001600160a01b0390911681526020015b60405180910390f35b60ce5461020f906001600160a01b031681565b6101e761062b565b6101e7610697565b6101e761025d366004612978565b61088f565b465b604051908152602001610223565b60655460ff166040519015158152602001610223565b6101e76102963660046129ee565b610c42565b6101e76102a9366004612a27565b610e59565b6101e7610ee5565b6097546001600160a01b031661020f565b61026460d05481565b6101e76102de366004612a44565b610f19565b6101e76102f1366004612a27565b611275565b60cb5461020f906001600160a01b031681565b6103116112f9565b60405161022393929190612b1c565b6103286115b8565b604051610223929190612b5f565b61033e61164d565b6040805192835260ff909116602083015201610223565b6102646116cf565b60c95461020f906001600160a01b031681565b610264611871565b6101e7610386366004612b8d565b6118f3565b6101e7611c7d565b61026460cd5481565b61026460cf5481565b6101e76103b3366004612a27565b611d56565b60ca5461020f906001600160a01b031681565b6097546001600160a01b031633146103fe5760405162461bcd60e51b81526004016103f590612bb9565b60405180910390fd5b610bb960cd54106104515760405162461bcd60e51b815260206004820152601760248201527f50726f666974206665652063616e6e6f74203e2033302500000000000000000060448201526064016103f5565b60cd55565b60006104626001611df1565b9050801561047a576000805461ff0019166101001790555b610482611e7e565b60ce80546001600160a01b038089166001600160a01b03199283161790925560ca805488841690831617905560cb805487841690831617905560cc80548684169083161790556107d060cd5560c9805492851692909116821790556040805163313ce56760e01b8152905163313ce56791600481810192602092909190829003018186803b15801561051357600080fd5b505afa158015610527573d6000803e3d6000fd5b505050506040513d601f19601f8201168201806040525081019061054b9190612bff565b60c9805460ff60a01b1916600160a01b60ff93841681029190911791829055900416600611156105bd5760405162461bcd60e51b815260206004820152601760248201527f5553445420646563696d616c73206d757374203e3d203600000000000000000060448201526064016103f5565b60cb5460c9546105dc916001600160a01b039182169116600019611ead565b8015610623576000805461ff0019169055604051600181527f7f26b83ff96e1f2b6a682f133852f6798a09c465da95921460cefb3847402498906020015b60405180910390a15b505050505050565b6097546001600160a01b031633148061064e575060ca546001600160a01b031633145b61066a5760405162461bcd60e51b81526004016103f590612c1a565b60655460ff161561068d5760405162461bcd60e51b81526004016103f590612c47565b610695612009565b565b6097546001600160a01b03163314806106ba575060ca546001600160a01b031633145b6106d65760405162461bcd60e51b81526004016103f590612c1a565b60655460ff166107fa5760cb5460408051632f4912bd60e21b815290516000926001600160a01b03169163bd244af4916004808301926020929190829003018186803b15801561072557600080fd5b505afa158015610739573d6000803e3d6000fd5b505050506040513d601f19601f8201168201806040525081019061075d9190612c71565b60d054909150600082821061077a57670de0b6b3a7640000610797565b8261078d83670de0b6b3a7640000612ca0565b6107979190612cbf565b60cb5460405163ed47d90960e01b8152600481018390529192506001600160a01b03169063ed47d90990602401600060405180830381600087803b1580156107de57600080fd5b505af11580156107f2573d6000803e3d6000fd5b505050505050505b60c9546040516370a0823160e01b815230600482015261088b916001600160a01b0316906370a082319060240160206040518083038186803b15801561083f57600080fd5b505afa158015610853573d6000803e3d6000fd5b505050506040513d601f19601f820116820180604052508101906108779190612c71565b604080516000815260208101909152612126565b5050565b6097546001600160a01b03163314806108b2575060ca546001600160a01b031633145b6108ce5760405162461bcd60e51b81526004016103f590612c1a565b600260015414156109215760405162461bcd60e51b815260206004820152601f60248201527f5265656e7472616e637947756172643a207265656e7472616e742063616c6c0060448201526064016103f5565b600260015560655460ff16156109495760405162461bcd60e51b81526004016103f590612c47565b6001600160a01b0383166109915760405162461bcd60e51b815260206004820152600f60248201526e125b9d985b1a59081858d8dbdd5b9d608a1b60448201526064016103f5565b8151815181146109dc5760405162461bcd60e51b815260206004820152601660248201527509cdee840dac2e8c6d040c2e4e4c2f240d8cadccee8d60531b60448201526064016103f5565b60c9546000906109f890600690600160a01b900460ff16612ce1565b610a0390600a612dea565b90506000805b83811015610a8d5782858281518110610a2457610a24612df9565b6020026020010151610a369190612ca0565b858281518110610a4857610a48612df9565b602002602001018181525050848181518110610a6657610a66612df9565b602002602001015182610a799190612e0f565b915080610a8581612e27565b915050610a09565b5080600010610ad15760405162461bcd60e51b815260206004820152601060248201526f0416d6f756e7473206d757374203e20360841b60448201526064016103f5565b60c954610ae9906001600160a01b03168730846122fc565b600080610af461164d565b90925090506000610b0682600a612dea565b60c9548490610b2090600160a01b900460ff166012612ce1565b610b2b90600a612dea565b610b359087612ca0565b610b3f9190612ca0565b610b499190612cbf565b60cf5490915015610b5c57610b5c612009565b600080610b69868a612126565b90925090508115610bd95760cb546040516326b89b7160e01b81526001600160a01b03909116906326b89b7190610ba6908d908590600401612b5f565b600060405180830381600087803b158015610bc057600080fd5b505af1158015610bd4573d6000803e3d6000fd5b505050505b610be4836001612334565b60c954604080516001600160a01b038e81168252602082018a905290921682820152517fe31c7b8d08ee7db0afa68782e1028ef92305caeea8626633ad44d413e30f6b2f9181900360600190a1505060018055505050505050505050565b6097546001600160a01b0316331480610c65575060ca546001600160a01b031633145b610c815760405162461bcd60e51b81526004016103f590612c1a565b60cb5460405163778d98b360e11b815260048101859052602481018490526000916001600160a01b03169063ef1b316690604401602060405180830381600087803b158015610ccf57600080fd5b505af1158015610ce3573d6000803e3d6000fd5b505050506040513d601f19601f82011682018060405250810190610d079190612c71565b90508015610e5357604080516001808252818301909252600091602080830190803683370190505090508281600081518110610d4557610d45612df9565b6001600160a01b0392909216602092830291909101909101526040805160018082528183019092526000918160200160208202803683370190505090508281600081518110610d9657610d96612df9565b602090810291909101015260cb546040516326b89b7160e01b81526001600160a01b03909116906326b89b7190610dd39085908590600401612b5f565b600060405180830381600087803b158015610ded57600080fd5b505af1158015610e01573d6000803e3d6000fd5b505060408051898152602081018990529081018690526001600160a01b03871660608201527f2be1fd30870a31378112c815f24e8611c8a87ed036bce5cf5670a8e34dbf210a9250608001905061061a565b50505050565b6097546001600160a01b03163314610e835760405162461bcd60e51b81526004016103f590612bb9565b60ca80546001600160a01b038381166001600160a01b031983168117909355604080519190921680825260208201939093527f9f0ac88be9159761bacf6c9e7c294c397ebf594607f6b3f2f70e7e0841ea68e891015b60405180910390a15050565b6097546001600160a01b03163314610f0f5760405162461bcd60e51b81526004016103f590612bb9565b61069560006123ad565b6097546001600160a01b0316331480610f3c575060ca546001600160a01b031633145b610f585760405162461bcd60e51b81526004016103f590612c1a565b60655460ff16610fa15760405162461bcd60e51b815260206004820152601460248201527314185d5cd8589b194e881b9bdd081c185d5cd95960621b60448201526064016103f5565b815181518114610fec5760405162461bcd60e51b815260206004820152601660248201527509cdee840dac2e8c6d040c2e4e4c2f240d8cadccee8d60531b60448201526064016103f5565b610ff46123ff565b60c9546040516370a0823160e01b81523060048201526000916001600160a01b0316906370a082319060240160206040518083038186803b15801561103857600080fd5b505afa15801561104c573d6000803e3d6000fd5b505050506040513d601f19601f820116820180604052508101906110709190612c71565b90508015610e535760008061108361164d565b9092509050600061109582600a612dea565b60c95484906110af90600160a01b900460ff166012612ce1565b6110ba90600a612dea565b6110c49087612ca0565b6110ce9190612ca0565b6110d89190612cbf565b90506000805b86811015611115578781815181106110f8576110f8612df9565b60200260200101519150808061110d90612e27565b9150506110de565b5060008667ffffffffffffffff8111156111315761113161283e565b60405190808252806020026020018201604052801561115a578160200160208202803683370190505b50905060005b878110156111c75782878a838151811061117c5761117c612df9565b602002602001015161118e9190612ca0565b6111989190612cbf565b8282815181106111aa576111aa612df9565b6020908102919091010152806111bf81612e27565b915050611160565b5060cb546040516326b89b7160e01b81526001600160a01b03909116906326b89b71906111fa908c908590600401612b5f565b600060405180830381600087803b15801561121457600080fd5b505af1158015611228573d6000803e3d6000fd5b50505050611237836001612334565b6040518681527fc13e24d2b0a3bacd5d1a7c514125a1e27323abf7c86f6d36597f8752bbd7eed79060200160405180910390a1505050505050505050565b6097546001600160a01b0316331461129f5760405162461bcd60e51b81526004016103f590612bb9565b60ce80546001600160a01b038381166001600160a01b031983168117909355604080519190921680825260208201939093527febcecb9db04071cf4b4ecc1e2e1e4603e74c9382d6e36c3531f0b62af4c78ed79101610ed9565b606080606060cb60009054906101000a90046001600160a01b03166001600160a01b031663aae092366040518163ffffffff1660e01b815260040160006040518083038186803b15801561134c57600080fd5b505afa158015611360573d6000803e3d6000fd5b505050506040513d6000823e601f3d908101601f191682016040526113889190810190612e9d565b80519193509150468167ffffffffffffffff8111156113a9576113a961283e565b6040519080825280602002602001820160405280156113d2578160200160208202803683370190505b50945060005b8281101561141057818682815181106113f3576113f3612df9565b60209081029190910101528061140881612e27565b9150506113d8565b5060c9546040516370a0823160e01b81523060048201526000916001600160a01b0316906370a082319060240160206040518083038186803b15801561145557600080fd5b505afa158015611469573d6000803e3d6000fd5b505050506040513d601f19601f8201168201806040525081019061148d9190612c71565b905060008111801561149f5750600083115b156115b0576000806114af61164d565b909250905060006114c182600a612dea565b60c95484906114db90600160a01b900460ff166012612ce1565b6114e690600a612dea565b60c9546040516370a0823160e01b81523060048201526001600160a01b03909116906370a082319060240160206040518083038186803b15801561152957600080fd5b505afa15801561153d573d6000803e3d6000fd5b505050506040513d601f19601f820116820180604052508101906115619190612c71565b61156b9190612ca0565b6115759190612ca0565b61157f9190612cbf565b9050808760008151811061159557611595612df9565b602002602001018181516115a99190612e0f565b9052505050505b505050909192565b60608060cb60009054906101000a90046001600160a01b03166001600160a01b0316634631b2466040518163ffffffff1660e01b815260040160006040518083038186803b15801561160957600080fd5b505afa15801561161d573d6000803e3d6000fd5b505050506040513d6000823e601f3d908101601f191682016040526116459190810190612e9d565b915091509091565b60cc5460c95460405163b3596f0760e01b81526001600160a01b0391821660048201526000928392169063b3596f0790602401604080518083038186803b15801561169757600080fd5b505afa1580156116ab573d6000803e3d6000fd5b505050506040513d601f19601f820116820180604052508101906116459190612f58565b6000806116de60655460ff1690565b156117c5576000806116ee61164d565b90925090506116fe81600a612dea565b60c954839061171890600160a01b900460ff166012612ce1565b61172390600a612dea565b60c9546040516370a0823160e01b81523060048201526001600160a01b03909116906370a082319060240160206040518083038186803b15801561176657600080fd5b505afa15801561177a573d6000803e3d6000fd5b505050506040513d601f19601f8201168201806040525081019061179e9190612c71565b6117a89190612ca0565b6117b29190612ca0565b6117bc9190612cbf565b9250505061184e565b60cb60009054906101000a90046001600160a01b03166001600160a01b031663bd244af46040518163ffffffff1660e01b815260040160206040518083038186803b15801561181357600080fd5b505afa158015611827573d6000803e3d6000fd5b505050506040513d601f19601f8201168201806040525081019061184b9190612c71565b90505b60d054811161185e57600061186b565b60d05461186b9082612f84565b91505090565b60cb546040805163c89d5b8b60e01b815290516000926001600160a01b03169163c89d5b8b916004808301926020929190829003018186803b1580156118b657600080fd5b505afa1580156118ca573d6000803e3d6000fd5b505050506040513d601f19601f820116820180604052508101906118ee9190612c71565b905090565b6097546001600160a01b0316331480611916575060ca546001600160a01b031633145b6119325760405162461bcd60e51b81526004016103f590612c1a565b600260015414156119855760405162461bcd60e51b815260206004820152601f60248201527f5265656e7472616e637947756172643a207265656e7472616e742063616c6c0060448201526064016103f5565b6002600155806119cc5760405162461bcd60e51b81526020600482015260126024820152710536861726550657263206d757374203e20360741b60448201526064016103f5565b670de0b6b3a7640000811115611a105760405162461bcd60e51b81526020600482015260096024820152684f766572203130302560b81b60448201526064016103f5565b6000611a1a6116cf565b90506000670de0b6b3a7640000611a318484612ca0565b611a3b9190612cbf565b9050600060d05483611a4d9190612e0f565b611a5f83670de0b6b3a7640000612ca0565b611a699190612cbf565b90506000611a7960655460ff1690565b611b685760cb5460405163ed47d90960e01b8152600481018490526001600160a01b039091169063ed47d90990602401600060405180830381600087803b158015611ac357600080fd5b505af1158015611ad7573d6000803e3d6000fd5b505060c9546040516370a0823160e01b81523060048201526001600160a01b0390911692506370a08231915060240160206040518083038186803b158015611b1e57600080fd5b505afa158015611b32573d6000803e3d6000fd5b505050506040513d601f19601f82011682018060405250810190611b569190612c71565b9050611b63836000612334565b611c06565b60c9546040516370a0823160e01b8152306004820152670de0b6b3a76400009184916001600160a01b03909116906370a082319060240160206040518083038186803b158015611bb757600080fd5b505afa158015611bcb573d6000803e3d6000fd5b505050506040513d601f19601f82011682018060405250810190611bef9190612c71565b611bf99190612ca0565b611c039190612cbf565b90505b60c954611c1d906001600160a01b03168783612492565b60c954604080516001600160a01b038981168252602082018790529092168282015260608201879052517f457f950b75085c30ff780acd57bde642ff1316cc4aad9f286af2c1ffc4163a789181900360800190a150506001805550505050565b6097546001600160a01b0316331480611ca0575060ca546001600160a01b031633145b611cbc5760405162461bcd60e51b81526004016103f590612c1a565b60655460ff1615611cdf5760405162461bcd60e51b81526004016103f590612c47565b611ce76124c2565b60cb60009054906101000a90046001600160a01b03166001600160a01b031663db2e21bc6040518163ffffffff1660e01b8152600401600060405180830381600087803b158015611d3757600080fd5b505af1158015611d4b573d6000803e3d6000fd5b5050600060cf555050565b6097546001600160a01b03163314611d805760405162461bcd60e51b81526004016103f590612bb9565b6001600160a01b038116611de55760405162461bcd60e51b815260206004820152602660248201527f4f776e61626c653a206e6577206f776e657220697320746865207a65726f206160448201526564647265737360d01b60648201526084016103f5565b611dee816123ad565b50565b60008054610100900460ff1615611e38578160ff166001148015611e145750303b155b611e305760405162461bcd60e51b81526004016103f590612f9b565b506000919050565b60005460ff808416911610611e5f5760405162461bcd60e51b81526004016103f590612f9b565b506000805460ff191660ff92909216919091179055600190565b919050565b600054610100900460ff16611ea55760405162461bcd60e51b81526004016103f590612fe9565b61069561251a565b801580611f365750604051636eb1769f60e11b81523060048201526001600160a01b03838116602483015284169063dd62ed3e9060440160206040518083038186803b158015611efc57600080fd5b505afa158015611f10573d6000803e3d6000fd5b505050506040513d601f19601f82011682018060405250810190611f349190612c71565b155b611fa15760405162461bcd60e51b815260206004820152603660248201527f5361666545524332303a20617070726f76652066726f6d206e6f6e2d7a65726f60448201527520746f206e6f6e2d7a65726f20616c6c6f77616e636560501b60648201526084016103f5565b6040516001600160a01b03831660248201526044810182905261200490849063095ea7b360e01b906064015b60408051601f198184030181529190526020810180516001600160e01b03166001600160e01b03199093169290921790915261254a565b505050565b60cb5460408051632f4912bd60e21b815290516000926001600160a01b03169163bd244af4916004808301926020929190829003018186803b15801561204e57600080fd5b505afa158015612062573d6000803e3d6000fd5b505050506040513d601f19601f820116820180604052508101906120869190612c71565b60cf549091506000818311156120df5760006120a28385612f84565b905061271060cd54826120b59190612ca0565b6120bf9190612cbf565b91508160d060008282546120d39190612e0f565b90915550505060cf8390555b60408051848152602081018490529081018290527fa3e3c8c92ed1e364d04865f99cd96c3ae8f5a7d800f4a1d8148a58c6de6f1b71906060015b60405180910390a1505050565b60d05460009060609080156122f35760008061214061164d565b60c9549193509150600090839061216290600160a01b900460ff166012612ce1565b61216d90600a612dea565b6121779190612ca0565b61218283600a612dea565b61218c9086612ca0565b6121969190612cbf565b87519091508890818310156121ba57600095506121b3838b612f84565b995061221b565b6121c584600a612dea565b60c95486906121df90600160a01b900460ff166012612ce1565b6121ea90600a612dea565b6121f4908d612ca0565b6121fe9190612ca0565b6122089190612cbf565b6122129087612f84565b60009a90965092505b60d086905560005b8181101561228a57828b8b838151811061223f5761223f612df9565b60200260200101516122519190612ca0565b61225b9190612cbf565b8a828151811061226d5761226d612df9565b60209081029190910101528061228281612e27565b915050612223565b5060ce5460c9546122a8916001600160a01b03918216911685612492565b60c954604080518581526001600160a01b0390921660208301527f6e027f1905abd7233c51c9483e29a545074ed10d39db528c9791a246b26741ff910160405180910390a150505050505b50929391925050565b6040516001600160a01b0380851660248301528316604482015260648101829052610e539085906323b872dd60e01b90608401611fcd565b60cf54600182151514612364578260cf5411612351576000612372565b8260cf5461235f9190612f84565b612372565b8260cf546123729190612e0f565b60cf81905560408051918252602082018390527f07b7fa586c4fdef11992d9448b97ba78814c23ddec7e1d4bf195fda6716e47269101612119565b609780546001600160a01b038381166001600160a01b0319831681179093556040519116919082907f8be0079c531659141344cd1fd0a4f28419497f9722a3daafe3b4186f6b6457e090600090a35050565b60655460ff166124485760405162461bcd60e51b815260206004820152601460248201527314185d5cd8589b194e881b9bdd081c185d5cd95960621b60448201526064016103f5565b6065805460ff191690557f5db9ee0a495bf2e6ff9c91a7834c1ba4fdd244a5e8aa4e537bd38aeae4b073aa335b6040516001600160a01b03909116815260200160405180910390a1565b6040516001600160a01b03831660248201526044810182905261200490849063a9059cbb60e01b90606401611fcd565b60655460ff16156124e55760405162461bcd60e51b81526004016103f590612c47565b6065805460ff191660011790557f62e78cea01bee320cd4e420270b5ea74000d11b0c9f74754ebdbfc544b05a2586124753390565b600054610100900460ff166125415760405162461bcd60e51b81526004016103f590612fe9565b610695336123ad565b600061259f826040518060400160405280602081526020017f5361666545524332303a206c6f772d6c6576656c2063616c6c206661696c6564815250856001600160a01b031661261c9092919063ffffffff16565b80519091501561200457808060200190518101906125bd9190613034565b6120045760405162461bcd60e51b815260206004820152602a60248201527f5361666545524332303a204552433230206f7065726174696f6e20646964206e6044820152691bdd081cdd58d8d9595960b21b60648201526084016103f5565b606061262b8484600085612635565b90505b9392505050565b6060824710156126965760405162461bcd60e51b815260206004820152602660248201527f416464726573733a20696e73756666696369656e742062616c616e636520666f6044820152651c8818d85b1b60d21b60648201526084016103f5565b6001600160a01b0385163b6126ed5760405162461bcd60e51b815260206004820152601d60248201527f416464726573733a2063616c6c20746f206e6f6e2d636f6e747261637400000060448201526064016103f5565b600080866001600160a01b031685876040516127099190613082565b60006040518083038185875af1925050503d8060008114612746576040519150601f19603f3d011682016040523d82523d6000602084013e61274b565b606091505b509150915061275b828286612766565b979650505050505050565b6060831561277557508161262e565b8251156127855782518084602001fd5b8160405162461bcd60e51b81526004016103f5919061309e565b6000602082840312156127b157600080fd5b5035919050565b6001600160a01b0381168114611dee57600080fd5b600080600080600060a086880312156127e557600080fd5b85356127f0816127b8565b94506020860135612800816127b8565b93506040860135612810816127b8565b92506060860135612820816127b8565b91506080860135612830816127b8565b809150509295509295909350565b634e487b7160e01b600052604160045260246000fd5b604051601f8201601f1916810167ffffffffffffffff8111828210171561287d5761287d61283e565b604052919050565b600067ffffffffffffffff82111561289f5761289f61283e565b5060051b60200190565b600082601f8301126128ba57600080fd5b813560206128cf6128ca83612885565b612854565b82815260059290921b840181019181810190868411156128ee57600080fd5b8286015b84811015612912578035612905816127b8565b83529183019183016128f2565b509695505050505050565b600082601f83011261292e57600080fd5b8135602061293e6128ca83612885565b82815260059290921b8401810191818101908684111561295d57600080fd5b8286015b848110156129125780358352918301918301612961565b60008060006060848603121561298d57600080fd5b8335612998816127b8565b9250602084013567ffffffffffffffff808211156129b557600080fd5b6129c1878388016128a9565b935060408601359150808211156129d757600080fd5b506129e48682870161291d565b9150509250925092565b600080600060608486031215612a0357600080fd5b83359250602084013591506040840135612a1c816127b8565b809150509250925092565b600060208284031215612a3957600080fd5b813561262e816127b8565b60008060408385031215612a5757600080fd5b823567ffffffffffffffff80821115612a6f57600080fd5b612a7b868387016128a9565b93506020850135915080821115612a9157600080fd5b50612a9e8582860161291d565b9150509250929050565b600081518084526020808501945080840160005b83811015612ad857815187529582019590820190600101612abc565b509495945050505050565b600081518084526020808501945080840160005b83811015612ad85781516001600160a01b031687529582019590820190600101612af7565b606081526000612b2f6060830186612aa8565b8281036020840152612b418186612ae3565b90508281036040840152612b558185612aa8565b9695505050505050565b604081526000612b726040830185612ae3565b8281036020840152612b848185612aa8565b95945050505050565b60008060408385031215612ba057600080fd5b8235612bab816127b8565b946020939093013593505050565b6020808252818101527f4f776e61626c653a2063616c6c6572206973206e6f7420746865206f776e6572604082015260600190565b805160ff81168114611e7957600080fd5b600060208284031215612c1157600080fd5b61262e82612bee565b60208082526013908201527227b7363c9037bbb732b91037b91030b236b4b760691b604082015260600190565b60208082526010908201526f14185d5cd8589b194e881c185d5cd95960821b604082015260600190565b600060208284031215612c8357600080fd5b5051919050565b634e487b7160e01b600052601160045260246000fd5b6000816000190483118215151615612cba57612cba612c8a565b500290565b600082612cdc57634e487b7160e01b600052601260045260246000fd5b500490565b600060ff821660ff841680821015612cfb57612cfb612c8a565b90039392505050565b600181815b80851115612d3f578160001904821115612d2557612d25612c8a565b80851615612d3257918102915b93841c9390800290612d09565b509250929050565b600082612d5657506001612de4565b81612d6357506000612de4565b8160018114612d795760028114612d8357612d9f565b6001915050612de4565b60ff841115612d9457612d94612c8a565b50506001821b612de4565b5060208310610133831016604e8410600b8410161715612dc2575081810a612de4565b612dcc8383612d04565b8060001904821115612de057612de0612c8a565b0290505b92915050565b600061262e60ff841683612d47565b634e487b7160e01b600052603260045260246000fd5b60008219821115612e2257612e22612c8a565b500190565b6000600019821415612e3b57612e3b612c8a565b5060010190565b600082601f830112612e5357600080fd5b81516020612e636128ca83612885565b82815260059290921b84018101918181019086841115612e8257600080fd5b8286015b848110156129125780518352918301918301612e86565b60008060408385031215612eb057600080fd5b825167ffffffffffffffff80821115612ec857600080fd5b818501915085601f830112612edc57600080fd5b81516020612eec6128ca83612885565b82815260059290921b84018101918181019089841115612f0b57600080fd5b948201945b83861015612f32578551612f23816127b8565b82529482019490820190612f10565b91880151919650909350505080821115612f4b57600080fd5b50612a9e85828601612e42565b60008060408385031215612f6b57600080fd5b82519150612f7b60208401612bee565b90509250929050565b600082821015612f9657612f96612c8a565b500390565b6020808252602e908201527f496e697469616c697a61626c653a20636f6e747261637420697320616c72656160408201526d191e481a5b9a5d1a585b1a5e995960921b606082015260800190565b6020808252602b908201527f496e697469616c697a61626c653a20636f6e7472616374206973206e6f74206960408201526a6e697469616c697a696e6760a81b606082015260800190565b60006020828403121561304657600080fd5b8151801515811461262e57600080fd5b60005b83811015613071578181015183820152602001613059565b83811115610e535750506000910152565b60008251613094818460208701613056565b9190910192915050565b60208152600082518060208401526130bd816040850160208701613056565b601f01601f1916919091016040019291505056fea26469706673582212205493e170782627925eb4ae102f8c1e5b41cab50cf90260ea07b58b66ba52830864736f6c63430008090033",
  "devdoc": {
    "kind": "dev",
    "methods": {
      "deposit(address,address[],uint256[])": {
        "params": {
          "_USDTAmts": "amounts of USDT should be deposited to each pools. It's 6 decimals"
        }
      },
      "getUSDTPriceInUSD()": {
        "returns": {
          "_0": "the price of USDT in USD."
        }
      },
      "owner()": {
        "details": "Returns the address of the current owner."
      },
      "paused()": {
        "details": "Returns true if the contract is paused, and false otherwise."
      },
      "renounceOwnership()": {
        "details": "Leaves the contract without owner. It will not be possible to call `onlyOwner` functions anymore. Can only be called by the current owner. NOTE: Renouncing ownership will leave the contract without an owner, thereby removing any functionality that is only available to the owner."
      },
      "transferOwnership(address)": {
        "details": "Transfers ownership of the contract to a new account (`newOwner`). Can only be called by the current owner."
      },
      "withdrawPerc(address,uint256)": {
        "params": {
          "_sharePerc": "percentage of assets which should be withdrawn. It's 18 decimals"
        }
      }
    },
    "version": 1
  },
  "userdoc": {
    "kind": "user",
    "methods": {
      "deposit(address,address[],uint256[])": {
        "notice": "The length of array is based on token count. And the lengths should be same on the arraies."
      }
    },
    "version": 1
  },
  "storageLayout": {
    "storage": [
      {
        "astId": 130,
        "contract": "contracts/bni/BNIVault.sol:BNIVault",
        "label": "_initialized",
        "offset": 0,
        "slot": "0",
        "type": "t_uint8"
      },
      {
        "astId": 133,
        "contract": "contracts/bni/BNIVault.sol:BNIVault",
        "label": "_initializing",
        "offset": 1,
        "slot": "0",
        "type": "t_bool"
      },
      {
        "astId": 390,
        "contract": "contracts/bni/BNIVault.sol:BNIVault",
        "label": "_status",
        "offset": 0,
        "slot": "1",
        "type": "t_uint256"
      },
      {
        "astId": 434,
        "contract": "contracts/bni/BNIVault.sol:BNIVault",
        "label": "__gap",
        "offset": 0,
        "slot": "2",
        "type": "t_array(t_uint256)49_storage"
      },
      {
        "astId": 1657,
        "contract": "contracts/bni/BNIVault.sol:BNIVault",
        "label": "__gap",
        "offset": 0,
        "slot": "51",
        "type": "t_array(t_uint256)50_storage"
      },
      {
        "astId": 286,
        "contract": "contracts/bni/BNIVault.sol:BNIVault",
        "label": "_paused",
        "offset": 0,
        "slot": "101",
        "type": "t_bool"
      },
      {
        "astId": 375,
        "contract": "contracts/bni/BNIVault.sol:BNIVault",
        "label": "__gap",
        "offset": 0,
        "slot": "102",
        "type": "t_array(t_uint256)49_storage"
      },
      {
        "astId": 10,
        "contract": "contracts/bni/BNIVault.sol:BNIVault",
        "label": "_owner",
        "offset": 0,
        "slot": "151",
        "type": "t_address"
      },
      {
        "astId": 122,
        "contract": "contracts/bni/BNIVault.sol:BNIVault",
        "label": "__gap",
        "offset": 0,
        "slot": "152",
        "type": "t_array(t_uint256)49_storage"
      },
      {
        "astId": 6141,
        "contract": "contracts/bni/BNIVault.sol:BNIVault",
        "label": "USDT",
        "offset": 0,
        "slot": "201",
        "type": "t_contract(IERC20UpgradeableExt)6128"
      },
      {
        "astId": 6143,
        "contract": "contracts/bni/BNIVault.sol:BNIVault",
        "label": "usdtDecimals",
        "offset": 20,
        "slot": "201",
        "type": "t_uint8"
      },
      {
        "astId": 6145,
        "contract": "contracts/bni/BNIVault.sol:BNIVault",
        "label": "admin",
        "offset": 0,
        "slot": "202",
        "type": "t_address"
      },
      {
        "astId": 6148,
        "contract": "contracts/bni/BNIVault.sol:BNIVault",
        "label": "strategy",
        "offset": 0,
        "slot": "203",
        "type": "t_contract(IStrategy)6120"
      },
      {
        "astId": 6151,
        "contract": "contracts/bni/BNIVault.sol:BNIVault",
        "label": "priceOracle",
        "offset": 0,
        "slot": "204",
        "type": "t_contract(IPriceOracle)8690"
      },
      {
        "astId": 6156,
        "contract": "contracts/bni/BNIVault.sol:BNIVault",
        "label": "profitFeePerc",
        "offset": 0,
        "slot": "205",
        "type": "t_uint256"
      },
      {
        "astId": 6158,
        "contract": "contracts/bni/BNIVault.sol:BNIVault",
        "label": "treasuryWallet",
        "offset": 0,
        "slot": "206",
        "type": "t_address"
      },
      {
        "astId": 6160,
        "contract": "contracts/bni/BNIVault.sol:BNIVault",
        "label": "watermark",
        "offset": 0,
        "slot": "207",
        "type": "t_uint256"
      },
      {
        "astId": 6162,
        "contract": "contracts/bni/BNIVault.sol:BNIVault",
        "label": "fees",
        "offset": 0,
        "slot": "208",
        "type": "t_uint256"
      }
    ],
    "types": {
      "t_address": {
        "encoding": "inplace",
        "label": "address",
        "numberOfBytes": "20"
      },
      "t_array(t_uint256)49_storage": {
        "base": "t_uint256",
        "encoding": "inplace",
        "label": "uint256[49]",
        "numberOfBytes": "1568"
      },
      "t_array(t_uint256)50_storage": {
        "base": "t_uint256",
        "encoding": "inplace",
        "label": "uint256[50]",
        "numberOfBytes": "1600"
      },
      "t_bool": {
        "encoding": "inplace",
        "label": "bool",
        "numberOfBytes": "1"
      },
      "t_contract(IERC20UpgradeableExt)6128": {
        "encoding": "inplace",
        "label": "contract IERC20UpgradeableExt",
        "numberOfBytes": "20"
      },
      "t_contract(IPriceOracle)8690": {
        "encoding": "inplace",
        "label": "contract IPriceOracle",
        "numberOfBytes": "20"
      },
      "t_contract(IStrategy)6120": {
        "encoding": "inplace",
        "label": "contract IStrategy",
        "numberOfBytes": "20"
      },
      "t_uint256": {
        "encoding": "inplace",
        "label": "uint256",
        "numberOfBytes": "32"
      },
      "t_uint8": {
        "encoding": "inplace",
        "label": "uint8",
        "numberOfBytes": "1"
      }
    }
  }
}