{
  "address": "0xB39d24C31A6e4c1F79E22198dE512c0dc18B2B3F",
  "abi": [
    {
      "anonymous": false,
      "inputs": [
        {
          "indexed": true,
          "internalType": "address",
          "name": "owner",
          "type": "address"
        },
        {
          "indexed": true,
          "internalType": "address",
          "name": "spender",
          "type": "address"
        },
        {
          "indexed": false,
          "internalType": "uint256",
          "name": "value",
          "type": "uint256"
        }
      ],
      "name": "Approval",
      "type": "event"
    },
    {
      "anonymous": false,
      "inputs": [
        {
          "indexed": false,
          "internalType": "address",
          "name": "_user",
          "type": "address"
        },
        {
          "indexed": false,
          "internalType": "uint256",
          "name": "_amount",
          "type": "uint256"
        },
        {
          "indexed": false,
          "internalType": "uint256",
          "name": "_shares",
          "type": "uint256"
        }
      ],
      "name": "Deposit",
      "type": "event"
    },
    {
      "anonymous": false,
      "inputs": [
        {
          "indexed": false,
          "internalType": "uint256",
          "name": "_amount",
          "type": "uint256"
        }
      ],
      "name": "EmergencyWithdraw",
      "type": "event"
    },
    {
      "anonymous": false,
      "inputs": [
        {
          "indexed": false,
          "internalType": "uint8",
          "name": "version",
          "type": "uint8"
        }
      ],
      "name": "Initialized",
      "type": "event"
    },
    {
      "anonymous": false,
      "inputs": [
        {
          "indexed": false,
          "internalType": "uint256",
          "name": "_amount",
          "type": "uint256"
        }
      ],
      "name": "Invest",
      "type": "event"
    },
    {
      "anonymous": false,
      "inputs": [
        {
          "indexed": true,
          "internalType": "address",
          "name": "previousOwner",
          "type": "address"
        },
        {
          "indexed": true,
          "internalType": "address",
          "name": "newOwner",
          "type": "address"
        }
      ],
      "name": "OwnershipTransferred",
      "type": "event"
    },
    {
      "anonymous": false,
      "inputs": [
        {
          "indexed": false,
          "internalType": "address",
          "name": "account",
          "type": "address"
        }
      ],
      "name": "Paused",
      "type": "event"
    },
    {
      "anonymous": false,
      "inputs": [
        {
          "indexed": false,
          "internalType": "address",
          "name": "_oldAdmin",
          "type": "address"
        },
        {
          "indexed": false,
          "internalType": "address",
          "name": "_newAdmin",
          "type": "address"
        }
      ],
      "name": "SetAdmin",
      "type": "event"
    },
    {
      "anonymous": false,
      "inputs": [
        {
          "indexed": false,
          "internalType": "address",
          "name": "_wallet",
          "type": "address"
        }
      ],
      "name": "SetTreasuryWallet",
      "type": "event"
    },
    {
      "anonymous": false,
      "inputs": [
        {
          "indexed": false,
          "internalType": "uint256",
          "name": "_fee",
          "type": "uint256"
        }
      ],
      "name": "SetYieldFeePerc",
      "type": "event"
    },
    {
      "anonymous": false,
      "inputs": [
        {
          "indexed": true,
          "internalType": "address",
          "name": "from",
          "type": "address"
        },
        {
          "indexed": true,
          "internalType": "address",
          "name": "to",
          "type": "address"
        },
        {
          "indexed": false,
          "internalType": "uint256",
          "name": "value",
          "type": "uint256"
        }
      ],
      "name": "Transfer",
      "type": "event"
    },
    {
      "anonymous": false,
      "inputs": [
        {
          "indexed": false,
          "internalType": "address",
          "name": "account",
          "type": "address"
        }
      ],
      "name": "Unpaused",
      "type": "event"
    },
    {
      "anonymous": false,
      "inputs": [
        {
          "indexed": false,
          "internalType": "address",
          "name": "_user",
          "type": "address"
        },
        {
          "indexed": false,
          "internalType": "uint256",
          "name": "_amount",
          "type": "uint256"
        },
        {
          "indexed": false,
          "internalType": "uint256",
          "name": "_shares",
          "type": "uint256"
        }
      ],
      "name": "Withdraw",
      "type": "event"
    },
    {
      "anonymous": false,
      "inputs": [
        {
          "indexed": false,
          "internalType": "uint256",
          "name": "_amount",
          "type": "uint256"
        }
      ],
      "name": "Yield",
      "type": "event"
    },
    {
      "anonymous": false,
      "inputs": [
        {
          "indexed": false,
          "internalType": "uint256",
          "name": "_amount",
          "type": "uint256"
        }
      ],
      "name": "YieldFee",
      "type": "event"
    },
    {
      "inputs": [],
      "name": "JoeRouter",
      "outputs": [
        {
          "internalType": "contract IUniRouter",
          "name": "",
          "type": "address"
        }
      ],
      "stateMutability": "view",
      "type": "function"
    },
    {
      "inputs": [],
      "name": "WAVAX",
      "outputs": [
        {
          "internalType": "contract IERC20Upgradeable",
          "name": "",
          "type": "address"
        }
      ],
      "stateMutability": "view",
      "type": "function"
    },
    {
      "inputs": [],
      "name": "aPool",
      "outputs": [
        {
          "internalType": "contract IPool",
          "name": "",
          "type": "address"
        }
      ],
      "stateMutability": "view",
      "type": "function"
    },
    {
      "inputs": [],
      "name": "aRewardsController",
      "outputs": [
        {
          "internalType": "contract IRewardsController",
          "name": "",
          "type": "address"
        }
      ],
      "stateMutability": "view",
      "type": "function"
    },
    {
      "inputs": [],
      "name": "aToken",
      "outputs": [
        {
          "internalType": "contract IAToken",
          "name": "",
          "type": "address"
        }
      ],
      "stateMutability": "view",
      "type": "function"
    },
    {
      "inputs": [],
      "name": "admin",
      "outputs": [
        {
          "internalType": "address",
          "name": "",
          "type": "address"
        }
      ],
      "stateMutability": "view",
      "type": "function"
    },
    {
      "inputs": [
        {
          "internalType": "address",
          "name": "owner",
          "type": "address"
        },
        {
          "internalType": "address",
          "name": "spender",
          "type": "address"
        }
      ],
      "name": "allowance",
      "outputs": [
        {
          "internalType": "uint256",
          "name": "",
          "type": "uint256"
        }
      ],
      "stateMutability": "view",
      "type": "function"
    },
    {
      "inputs": [
        {
          "internalType": "address",
          "name": "spender",
          "type": "address"
        },
        {
          "internalType": "uint256",
          "name": "amount",
          "type": "uint256"
        }
      ],
      "name": "approve",
      "outputs": [
        {
          "internalType": "bool",
          "name": "",
          "type": "bool"
        }
      ],
      "stateMutability": "nonpayable",
      "type": "function"
    },
    {
      "inputs": [
        {
          "internalType": "address",
          "name": "account",
          "type": "address"
        }
      ],
      "name": "balanceOf",
      "outputs": [
        {
          "internalType": "uint256",
          "name": "",
          "type": "uint256"
        }
      ],
      "stateMutability": "view",
      "type": "function"
    },
    {
      "inputs": [],
      "name": "decimals",
      "outputs": [
        {
          "internalType": "uint8",
          "name": "",
          "type": "uint8"
        }
      ],
      "stateMutability": "view",
      "type": "function"
    },
    {
      "inputs": [
        {
          "internalType": "address",
          "name": "spender",
          "type": "address"
        },
        {
          "internalType": "uint256",
          "name": "subtractedValue",
          "type": "uint256"
        }
      ],
      "name": "decreaseAllowance",
      "outputs": [
        {
          "internalType": "bool",
          "name": "",
          "type": "bool"
        }
      ],
      "stateMutability": "nonpayable",
      "type": "function"
    },
    {
      "inputs": [
        {
          "internalType": "uint256",
          "name": "_amount",
          "type": "uint256"
        }
      ],
      "name": "deposit",
      "outputs": [],
      "stateMutability": "nonpayable",
      "type": "function"
    },
    {
      "inputs": [],
      "name": "emergencyWithdraw",
      "outputs": [],
      "stateMutability": "nonpayable",
      "type": "function"
    },
    {
      "inputs": [],
      "name": "getAPR",
      "outputs": [
        {
          "internalType": "uint256",
          "name": "",
          "type": "uint256"
        }
      ],
      "stateMutability": "view",
      "type": "function"
    },
    {
      "inputs": [],
      "name": "getAllPool",
      "outputs": [
        {
          "internalType": "uint256",
          "name": "",
          "type": "uint256"
        }
      ],
      "stateMutability": "view",
      "type": "function"
    },
    {
      "inputs": [],
      "name": "getAllPoolInUSD",
      "outputs": [
        {
          "internalType": "uint256",
          "name": "",
          "type": "uint256"
        }
      ],
      "stateMutability": "view",
      "type": "function"
    },
    {
      "inputs": [],
      "name": "getPendingRewards",
      "outputs": [
        {
          "internalType": "uint256",
          "name": "",
          "type": "uint256"
        }
      ],
      "stateMutability": "view",
      "type": "function"
    },
    {
      "inputs": [
        {
          "internalType": "bool",
          "name": "inUSD",
          "type": "bool"
        }
      ],
      "name": "getPricePerFullShare",
      "outputs": [
        {
          "internalType": "uint256",
          "name": "",
          "type": "uint256"
        }
      ],
      "stateMutability": "view",
      "type": "function"
    },
    {
      "inputs": [
        {
          "internalType": "address",
          "name": "spender",
          "type": "address"
        },
        {
          "internalType": "uint256",
          "name": "addedValue",
          "type": "uint256"
        }
      ],
      "name": "increaseAllowance",
      "outputs": [
        {
          "internalType": "bool",
          "name": "",
          "type": "bool"
        }
      ],
      "stateMutability": "nonpayable",
      "type": "function"
    },
    {
      "inputs": [
        {
          "internalType": "string",
          "name": "_name",
          "type": "string"
        },
        {
          "internalType": "string",
          "name": "_symbol",
          "type": "string"
        },
        {
          "internalType": "contract IAToken",
          "name": "_aToken",
          "type": "address"
        },
        {
          "internalType": "address",
          "name": "_treasury",
          "type": "address"
        },
        {
          "internalType": "address",
          "name": "_admin",
          "type": "address"
        }
      ],
      "name": "initialize",
      "outputs": [],
      "stateMutability": "nonpayable",
      "type": "function"
    },
    {
      "inputs": [],
      "name": "name",
      "outputs": [
        {
          "internalType": "string",
          "name": "",
          "type": "string"
        }
      ],
      "stateMutability": "view",
      "type": "function"
    },
    {
      "inputs": [],
      "name": "owner",
      "outputs": [
        {
          "internalType": "address",
          "name": "",
          "type": "address"
        }
      ],
      "stateMutability": "view",
      "type": "function"
    },
    {
      "inputs": [],
      "name": "paused",
      "outputs": [
        {
          "internalType": "bool",
          "name": "",
          "type": "bool"
        }
      ],
      "stateMutability": "view",
      "type": "function"
    },
    {
      "inputs": [],
      "name": "reinvest",
      "outputs": [],
      "stateMutability": "nonpayable",
      "type": "function"
    },
    {
      "inputs": [],
      "name": "renounceOwnership",
      "outputs": [],
      "stateMutability": "nonpayable",
      "type": "function"
    },
    {
      "inputs": [
        {
          "internalType": "address",
          "name": "_newAdmin",
          "type": "address"
        }
      ],
      "name": "setAdmin",
      "outputs": [],
      "stateMutability": "nonpayable",
      "type": "function"
    },
    {
      "inputs": [
        {
          "internalType": "uint256",
          "name": "_yieldFeePerc",
          "type": "uint256"
        }
      ],
      "name": "setFee",
      "outputs": [],
      "stateMutability": "nonpayable",
      "type": "function"
    },
    {
      "inputs": [
        {
          "internalType": "address",
          "name": "_wallet",
          "type": "address"
        }
      ],
      "name": "setTreasuryWallet",
      "outputs": [],
      "stateMutability": "nonpayable",
      "type": "function"
    },
    {
      "inputs": [],
      "name": "symbol",
      "outputs": [
        {
          "internalType": "string",
          "name": "",
          "type": "string"
        }
      ],
      "stateMutability": "view",
      "type": "function"
    },
    {
      "inputs": [],
      "name": "token",
      "outputs": [
        {
          "internalType": "contract IERC20Upgradeable",
          "name": "",
          "type": "address"
        }
      ],
      "stateMutability": "view",
      "type": "function"
    },
    {
      "inputs": [],
      "name": "totalSupply",
      "outputs": [
        {
          "internalType": "uint256",
          "name": "",
          "type": "uint256"
        }
      ],
      "stateMutability": "view",
      "type": "function"
    },
    {
      "inputs": [
        {
          "internalType": "address",
          "name": "to",
          "type": "address"
        },
        {
          "internalType": "uint256",
          "name": "amount",
          "type": "uint256"
        }
      ],
      "name": "transfer",
      "outputs": [
        {
          "internalType": "bool",
          "name": "",
          "type": "bool"
        }
      ],
      "stateMutability": "nonpayable",
      "type": "function"
    },
    {
      "inputs": [
        {
          "internalType": "address",
          "name": "from",
          "type": "address"
        },
        {
          "internalType": "address",
          "name": "to",
          "type": "address"
        },
        {
          "internalType": "uint256",
          "name": "amount",
          "type": "uint256"
        }
      ],
      "name": "transferFrom",
      "outputs": [
        {
          "internalType": "bool",
          "name": "",
          "type": "bool"
        }
      ],
      "stateMutability": "nonpayable",
      "type": "function"
    },
    {
      "inputs": [
        {
          "internalType": "address",
          "name": "newOwner",
          "type": "address"
        }
      ],
      "name": "transferOwnership",
      "outputs": [],
      "stateMutability": "nonpayable",
      "type": "function"
    },
    {
      "inputs": [],
      "name": "treasuryWallet",
      "outputs": [
        {
          "internalType": "address",
          "name": "",
          "type": "address"
        }
      ],
      "stateMutability": "view",
      "type": "function"
    },
    {
      "inputs": [
        {
          "internalType": "uint256",
          "name": "_shares",
          "type": "uint256"
        }
      ],
      "name": "withdraw",
      "outputs": [],
      "stateMutability": "nonpayable",
      "type": "function"
    },
    {
      "inputs": [],
      "name": "yield",
      "outputs": [],
      "stateMutability": "nonpayable",
      "type": "function"
    },
    {
      "inputs": [],
      "name": "yieldFee",
      "outputs": [
        {
          "internalType": "uint256",
          "name": "",
          "type": "uint256"
        }
      ],
      "stateMutability": "view",
      "type": "function"
    }
  ],
  "transactionHash": "0xe021e5bb47622e14dedf1424254f90778eca3fa40b86171437e3e68b03c85b54",
  "args": [],
  "numDeployments": 1,
  "solcInputHash": "7d27042cdb095cd9854a58450914aa61",
  "bytecode": "0x608060405234801561001057600080fd5b50613d23806100206000396000f3fe608060405234801561001057600080fd5b50600436106102325760003560e01c806395d89b4111610130578063c89d5b8b116100b8578063e595cbb61161007c578063e595cbb614610495578063f2fde38b146104a8578063f851a440146104bb578063fc0c546a146104cf578063fdb5a03e146104e257600080fd5b8063c89d5b8b14610457578063d9621f9e1461045f578063db0ed6a014610467578063db2e21bc1461047a578063dd62ed3e1461048257600080fd5b8063a8602fea116100ff578063a8602fea146103fb578063a9059cbb1461040e578063b6b55f2514610421578063bd244af414610434578063c12f857f1461043c57600080fd5b806395d89b41146103c5578063a0c1f15e146103cd578063a20a4cb4146103e0578063a457c2d7146103e857600080fd5b8063313ce567116101be578063704b6c0211610182578063704b6c021461035557806370a0823114610368578063715018a61461039157806373b295c2146103995780638da5cb5b146103b457600080fd5b8063313ce5671461030157806339509351146103105780634626402b146103235780635c975abb1461033757806369fe0e2d1461034257600080fd5b806318160ddd1161020557806318160ddd146102b657806320f14908146102be57806323b872dd146102d157806328593984146102e45780632e1a7d4d146102ee57600080fd5b8063034f40831461023757806306fdde0314610253578063095ea7b31461026857806314085ff01461028b575b600080fd5b61024060fb5481565b6040519081526020015b60405180910390f35b61025b6104ea565b60405161024a919061319f565b61027b6102763660046131e7565b61057c565b604051901515815260200161024a565b60ff5461029e906001600160a01b031681565b6040516001600160a01b03909116815260200161024a565b603554610240565b6102406102cc366004613221565b610596565b61027b6102df36600461323e565b610619565b6102ec61063d565b005b6102ec6102fc36600461327f565b6106b3565b6040516012815260200161024a565b61027b61031e3660046131e7565b6109c5565b6101005461029e906001600160a01b031681565b60975460ff1661027b565b6102ec61035036600461327f565b6109e7565b6102ec610363366004613298565b610a97565b610240610376366004613298565b6001600160a01b031660009081526033602052604090205490565b6102ec610b23565b61029e73b31f66aa3c1e785363f0875a1b74e27b85fd66c781565b6065546001600160a01b031661029e565b61025b610b57565b60fc5461029e906001600160a01b031681565b610240610b66565b61027b6103f63660046131e7565b610c6c565b6102ec610409366004613298565b610ce7565b61027b61041c3660046131e7565b610da7565b6102ec61042f36600461327f565b610db5565b610240611026565b61029e7360ae616a2155ee3d9a68541ba4544862310933d481565b6102406110b5565b6102406114b4565b6102ec610475366004613396565b61171d565b6102ec611bd8565b610240610490366004613434565b611d8f565b60fe5461029e906001600160a01b031681565b6102ec6104b6366004613298565b611dba565b6101015461029e906001600160a01b031681565b60fd5461029e906001600160a01b031681565b6102ec611e55565b6060603680546104f99061346d565b80601f01602080910402602001604051908101604052809291908181526020018280546105259061346d565b80156105725780601f1061054757610100808354040283529160200191610572565b820191906000526020600020905b81548152906001019060200180831161055557829003601f168201915b5050505050905090565b60003361058a818585611eee565b60019150505b92915050565b6000806105a260355490565b9050806105b95750670de0b6b3a764000092915050565b6001831515146105ed57806105cc610b66565b6105de90670de0b6b3a76400006134be565b6105e891906134f3565b610612565b806105f6611026565b61060890670de0b6b3a76400006134be565b61061291906134f3565b9392505050565b600033610627858285612013565b61063285858561208d565b506001949350505050565b6065546001600160a01b03163314806106615750610101546001600160a01b031633145b6106865760405162461bcd60e51b815260040161067d90613507565b60405180910390fd5b60975460ff16156106a95760405162461bcd60e51b815260040161067d90613534565b6106b161225b565b565b600260c95414156107065760405162461bcd60e51b815260206004820152601f60248201527f5265656e7472616e637947756172643a207265656e7472616e742063616c6c00604482015260640161067d565b600260c955806107495760405162461bcd60e51b815260206004820152600e60248201526d125b9d985b1a5908105b5bdd5b9d60921b604482015260640161067d565b3360009081526033602052604090205481111561079d5760405162461bcd60e51b81526020600482015260126024820152714e6f7420656e6f7567682062616c616e636560701b604482015260640161067d565b33600090815261010260205260409020544314156107fd5760405162461bcd60e51b815260206004820152601a60248201527f57697468647261772077697468696e2073616d6520626c6f636b000000000000604482015260640161067d565b600061080860355490565b82610811610b66565b61081b91906134be565b61082591906134f3565b60fd546040516370a0823160e01b81523060048201529192506000916001600160a01b03909116906370a082319060240160206040518083038186803b15801561086e57600080fd5b505afa158015610882573d6000803e3d6000fd5b505050506040513d601f19601f820116820180604052508101906108a6919061355e565b9050818110156109595760fe5460fd546001600160a01b03918216916369328dec91166108d38486613577565b6040516001600160e01b031960e085901b1681526001600160a01b0390921660048301526024820152306044820152606401602060405180830381600087803b15801561091f57600080fd5b505af1158015610933573d6000803e3d6000fd5b505050506040513d601f19601f82011682018060405250810190610957919061355e565b505b61096333846125f5565b60fd5461097a906001600160a01b03163384612740565b60408051338152602081018490529081018490527ff279e6a1f5e320cca91135676d9cb6e44ca8a08c0b88342bcdb1144f6511b5689060600160405180910390a15050600160c95550565b60003361058a8185856109d88383611d8f565b6109e2919061358e565b611eee565b6065546001600160a01b03163314610a115760405162461bcd60e51b815260040161067d906135a6565b610bb98110610a5b5760405162461bcd60e51b81526020600482015260166024820152755969656c64204665652063616e6e6f74203e2033302560501b604482015260640161067d565b60fb8190556040518181527f5cdc47cbc2be1e35e5429dd646b1e2047ab328f4108873ab71318989f7566ceb906020015b60405180910390a150565b6065546001600160a01b03163314610ac15760405162461bcd60e51b815260040161067d906135a6565b61010180546001600160a01b038381166001600160a01b031983168117909355604080519190921680825260208201939093527f848ac24ab84501710d6631faab117b66b79aba7ec6f7778cf3bcff428c1a4efc910160405180910390a15050565b6065546001600160a01b03163314610b4d5760405162461bcd60e51b815260040161067d906135a6565b6106b160006127a3565b6060603780546104f99061346d565b60fc546040516370a0823160e01b81523060048201526000916001600160a01b0316906370a082319060240160206040518083038186803b158015610baa57600080fd5b505afa158015610bbe573d6000803e3d6000fd5b505050506040513d601f19601f82011682018060405250810190610be2919061355e565b60fd546040516370a0823160e01b81523060048201526001600160a01b03909116906370a082319060240160206040518083038186803b158015610c2557600080fd5b505afa158015610c39573d6000803e3d6000fd5b505050506040513d601f19601f82011682018060405250810190610c5d919061355e565b610c67919061358e565b905090565b60003381610c7a8286611d8f565b905083811015610cda5760405162461bcd60e51b815260206004820152602560248201527f45524332303a2064656372656173656420616c6c6f77616e63652062656c6f77604482015264207a65726f60d81b606482015260840161067d565b6106328286868403611eee565b6065546001600160a01b03163314610d115760405162461bcd60e51b815260040161067d906135a6565b6001600160a01b038116610d585760405162461bcd60e51b815260206004820152600e60248201526d1dd85b1b195d081a5b9d985b1a5960921b604482015260640161067d565b61010080546001600160a01b0319166001600160a01b0383169081179091556040519081527f60edc991b058a7e279075cf86f19a6b478334efec47e089d09890b139c78232790602001610a8c565b60003361058a81858561208d565b600260c9541415610e085760405162461bcd60e51b815260206004820152601f60248201527f5265656e7472616e637947756172643a207265656e7472616e742063616c6c00604482015260640161067d565b600260c95560975460ff1615610e305760405162461bcd60e51b815260040161067d90613534565b60008111610e715760405162461bcd60e51b815260206004820152600e60248201526d125b9d985b1a5908185b5bdd5b9d60921b604482015260640161067d565b6000610e7b610b66565b60fd54909150610e96906001600160a01b03163330856127f5565b33600090815261010260205260409081902043905560fe5460fd5491516370a0823160e01b81523060048201526001600160a01b039182169263617ba03792169081906370a082319060240160206040518083038186803b158015610efa57600080fd5b505afa158015610f0e573d6000803e3d6000fd5b505050506040513d601f19601f82011682018060405250810190610f32919061355e565b6040516001600160e01b031960e085901b1681526001600160a01b039092166004830152602482015230604482015260006064820152608401600060405180830381600087803b158015610f8557600080fd5b505af1158015610f99573d6000803e3d6000fd5b505050506000610fa860355490565b905060008115610fcc5782610fbd83866134be565b610fc791906134f3565b610fce565b835b9050610fda338261282d565b60408051338152602081018690529081018290527f90890809c654f11d6e72a28fa60149770a0d11ec6c92319d6ceb2bb0a4ea1a159060600160405180910390a15050600160c9555050565b60fd546000908190611040906001600160a01b031661290d565b9050600061104c610b66565b60fd549091506012600160a01b90910460ff1610156110955760fd5461107d90600160a01b900460ff1660126135db565b61108890600a6136e2565b61109290826134be565b90505b6305f5e1006110a483836134be565b6110ae91906134f3565b9250505090565b60fe5460fd546040516335ea6a7560e01b81526001600160a01b039182166004820152600092839216906335ea6a75906024016101e06040518083038186803b15801561110157600080fd5b505afa158015611115573d6000803e3d6000fd5b505050506040513d601f19601f82011682018060405250810190611139919061377c565b90506000633b9aca008260400151611151919061389f565b60ff5460fc54604051636657732f60e01b81526001600160a01b0391821660048201526001600160801b03939093169350600092911690636657732f9060240160006040518083038186803b1580156111a957600080fd5b505afa1580156111bd573d6000803e3d6000fd5b505050506040513d6000823e601f3d908101601f191682016040526111e5919081019061395d565b9050600081519050600060fc60009054906101000a90046001600160a01b03166001600160a01b03166318160ddd6040518163ffffffff1660e01b815260040160206040518083038186803b15801561123d57600080fd5b505afa158015611251573d6000803e3d6000fd5b505050506040513d601f19601f82011682018060405250810190611275919061355e565b60fd54909150600090611290906001600160a01b031661290d565b90506000805b848110156114765760008682815181106112b2576112b2613992565b602090810291909101015160ff5460fc54604051630fdfe97560e31b81526001600160a01b0391821660048201528184166024820152929350600092911690637eff4ba89060440160806040518083038186803b15801561131257600080fd5b505afa158015611326573d6000803e3d6000fd5b505050506040513d601f19601f8201168201806040525081019061134a91906139a8565b5050915050600061135a8361290d565b60fd5490915060009061137890600160a01b900460ff1660126139de565b60ff1690506000846001600160a01b031663313ce5676040518163ffffffff1660e01b815260040160206040518083038186803b1580156113b857600080fd5b505afa1580156113cc573d6000803e3d6000fd5b505050506040513d601f19601f820116820180604052508101906113f09190613a03565b60ff1690506000611401898b6134be565b61140b8385613577565b61141690600a613a26565b85876114276201518061016d6134be565b61143191906134be565b61143b91906134be565b61144591906134be565b61144f91906134f3565b905061145b818961358e565b9750505050505050808061146e90613a32565b915050611296565b5061271060fb5461271061148a9190613577565b61149490836134be565b61149e91906134f3565b6114a8908761358e565b97505050505050505090565b60408051600180825281830190925260009182919060208083019080368337505060fc5482519293506001600160a01b0316918391506000906114f9576114f9613992565b6001600160a01b03928316602091820292909201015260ff54604051634c0369c360e01b815260009283921690634c0369c39061153c9086903090600401613a91565b60006040518083038186803b15801561155457600080fd5b505afa158015611568573d6000803e3d6000fd5b505050506040513d6000823e601f3d908101601f191682016040526115909190810190613b16565b815191935091506000805b828110156117135760008582815181106115b7576115b7613992565b6020026020010151905060006115cc8261290d565b90506000601290506000836001600160a01b031663313ce5676040518163ffffffff1660e01b815260040160206040518083038186803b15801561160f57600080fd5b505afa158015611623573d6000803e3d6000fd5b505050506040513d601f19601f820116820180604052508101906116479190613a03565b6116529060086139de565b60ff16905060008183106116a95761166a8284613577565b61167590600a613a26565b848a888151811061168857611688613992565b602002602001015161169a91906134be565b6116a491906134be565b6116ed565b6116b38383613577565b6116be90600a613a26565b848a88815181106116d1576116d1613992565b60200260200101516116e391906134be565b6116ed91906134f3565b90506116f9818861358e565b96505050505050808061170b90613a32565b91505061159b565b5095945050505050565b60006117296001612a0c565b90508015611741576000805461ff0019166101001790555b61174b8686612a99565b611753612aca565b6107d060fb5560fc80546001600160a01b0319166001600160a01b038616908117909155604080516358b50cef60e11b8152905163b16a19de91600480820192602092909190829003018186803b1580156117ad57600080fd5b505afa1580156117c1573d6000803e3d6000fd5b505050506040513d601f19601f820116820180604052508101906117e59190613b7a565b60fd80546001600160a01b0319166001600160a01b039290921691821790556040805163313ce56760e01b8152905163313ce56791600480820192602092909190829003018186803b15801561183a57600080fd5b505afa15801561184e573d6000803e3d6000fd5b505050506040513d601f19601f820116820180604052508101906118729190613a03565b60fd60146101000a81548160ff021916908360ff16021790555060fc60009054906101000a90046001600160a01b03166001600160a01b0316637535d2466040518163ffffffff1660e01b815260040160206040518083038186803b1580156118da57600080fd5b505afa1580156118ee573d6000803e3d6000fd5b505050506040513d601f19601f820116820180604052508101906119129190613b7a565b60fe80546001600160a01b0319166001600160a01b0392831617905560fc54604080516375d2641360e01b8152905191909216916375d26413916004808301926020929190829003018186803b15801561196b57600080fd5b505afa15801561197f573d6000803e3d6000fd5b505050506040513d601f19601f820116820180604052508101906119a39190613b7a565b60ff80546001600160a01b03199081166001600160a01b039384161790915561010080548216868416179055610101805490911684831617905560fd5460fe5460405163095ea7b360e01b81529083166004820152600019602482015291169063095ea7b390604401602060405180830381600087803b158015611a2657600080fd5b505af1158015611a3a573d6000803e3d6000fd5b505050506040513d601f19601f82011682018060405250810190611a5e9190613b97565b5060fc5460fe5460405163095ea7b360e01b81526001600160a01b039182166004820152600019602482015291169063095ea7b390604401602060405180830381600087803b158015611ab057600080fd5b505af1158015611ac4573d6000803e3d6000fd5b505050506040513d601f19601f82011682018060405250810190611ae89190613b97565b5060405163095ea7b360e01b81527360ae616a2155ee3d9a68541ba4544862310933d46004820152600019602482015273b31f66aa3c1e785363f0875a1b74e27b85fd66c79063095ea7b390604401602060405180830381600087803b158015611b5157600080fd5b505af1158015611b65573d6000803e3d6000fd5b505050506040513d601f19601f82011682018060405250810190611b899190613b97565b508015611bd0576000805461ff0019169055604051600181527f7f26b83ff96e1f2b6a682f133852f6798a09c465da95921460cefb38474024989060200160405180910390a15b505050505050565b6065546001600160a01b0316331480611bfc5750610101546001600160a01b031633145b611c185760405162461bcd60e51b815260040161067d90613507565b60975460ff1615611c3b5760405162461bcd60e51b815260040161067d90613534565b611c43612af9565b611c4b61225b565b60fc546040516370a0823160e01b81523060048201526000916001600160a01b0316906370a082319060240160206040518083038186803b158015611c8f57600080fd5b505afa158015611ca3573d6000803e3d6000fd5b505050506040513d601f19601f82011682018060405250810190611cc7919061355e565b90508015611d5f5760fe5460fd54604051631a4ca37b60e21b81526001600160a01b039182166004820152602481018490523060448201529116906369328dec90606401602060405180830381600087803b158015611d2557600080fd5b505af1158015611d39573d6000803e3d6000fd5b505050506040513d601f19601f82011682018060405250810190611d5d919061355e565b505b6040518181527f99d7f8b71cfb9126984f7a5eed3a40e64a8959e9b0e442221546fb04ec6a489c90602001610a8c565b6001600160a01b03918216600090815260346020908152604080832093909416825291909152205490565b6065546001600160a01b03163314611de45760405162461bcd60e51b815260040161067d906135a6565b6001600160a01b038116611e495760405162461bcd60e51b815260206004820152602660248201527f4f776e61626c653a206e6577206f776e657220697320746865207a65726f206160448201526564647265737360d01b606482015260840161067d565b611e52816127a3565b50565b6065546001600160a01b0316331480611e795750610101546001600160a01b031633145b611e955760405162461bcd60e51b815260040161067d90613507565b60975460ff16611ede5760405162461bcd60e51b815260206004820152601460248201527314185d5cd8589b194e881b9bdd081c185d5cd95960621b604482015260640161067d565b611ee6612b6e565b611e52612be8565b6001600160a01b038316611f505760405162461bcd60e51b8152602060048201526024808201527f45524332303a20617070726f76652066726f6d20746865207a65726f206164646044820152637265737360e01b606482015260840161067d565b6001600160a01b038216611fb15760405162461bcd60e51b815260206004820152602260248201527f45524332303a20617070726f766520746f20746865207a65726f206164647265604482015261737360f01b606482015260840161067d565b6001600160a01b0383811660008181526034602090815260408083209487168084529482529182902085905590518481527f8c5be1e5ebec7d5bd14f71427d1e84f3dd0314c0f7b2291e5b200ac8c7c3b92591015b60405180910390a3505050565b600061201f8484611d8f565b90506000198114612087578181101561207a5760405162461bcd60e51b815260206004820152601d60248201527f45524332303a20696e73756666696369656e7420616c6c6f77616e6365000000604482015260640161067d565b6120878484848403611eee565b50505050565b6001600160a01b0383166120f15760405162461bcd60e51b815260206004820152602560248201527f45524332303a207472616e736665722066726f6d20746865207a65726f206164604482015264647265737360d81b606482015260840161067d565b6001600160a01b0382166121535760405162461bcd60e51b815260206004820152602360248201527f45524332303a207472616e7366657220746f20746865207a65726f206164647260448201526265737360e81b606482015260840161067d565b6001600160a01b038316600090815260336020526040902054818110156121cb5760405162461bcd60e51b815260206004820152602660248201527f45524332303a207472616e7366657220616d6f756e7420657863656564732062604482015265616c616e636560d01b606482015260840161067d565b6001600160a01b0380851660009081526033602052604080822085850390559185168152908120805484929061220290849061358e565b92505081905550826001600160a01b0316846001600160a01b03167fddf252ad1be2c89b69c2b068fc378daa952ba7f163c4a11628f55a4df523b3ef8460405161224e91815260200190565b60405180910390a3612087565b60408051600180825281830190925260009160208083019080368337505060fc5482519293506001600160a01b03169183915060009061229d5761229d613992565b6001600160a01b03928316602091820292909201015260ff54604051635fc87b1d60e11b81526000928392169063bf90f63a906122de908690600401613bb4565b600060405180830381600087803b1580156122f857600080fd5b505af115801561230c573d6000803e3d6000fd5b505050506040513d6000823e601f3d908101601f191682016040526123349190810190613b16565b8151919350915060005b818110156123e457600084828151811061235a5761235a613992565b60200260200101519050600084838151811061237857612378613992565b602002602001015190508060001080156123af57506001600160a01b03821673b31f66aa3c1e785363f0875a1b74e27b85fd66c714155b156123cf57610100546123cf906001600160a01b03848116911683612740565b505080806123dc90613a32565b91505061233e565b506040516370a0823160e01b815230600482015260009073b31f66aa3c1e785363f0875a1b74e27b85fd66c7906370a082319060240160206040518083038186803b15801561243257600080fd5b505afa158015612446573d6000803e3d6000fd5b505050506040513d601f19601f8201168201806040525081019061246a919061355e565b905080156125ee57600061271060fb548361248591906134be565b61248f91906134f3565b610100549091506124bf9073b31f66aa3c1e785363f0875a1b74e27b85fd66c7906001600160a01b031683612740565b6124c98183613577565b60fd549092506001600160a01b031673b31f66aa3c1e785363f0875a1b74e27b85fd66c7146125205760fd5461251e9073b31f66aa3c1e785363f0875a1b74e27b85fd66c7906001600160a01b031684612ce5565b505b612528612be8565b50600061254873b31f66aa3c1e785363f0875a1b74e27b85fd66c761290d565b90507f913f67bfd2c6ac4a84007665147ed6861715996d03ed38d610c52e28c08838036305f5e1008261257b858761358e565b61258591906134be565b61258f91906134f3565b60405190815260200160405180910390a17f6d415483528749d9b4bfa85837aeca6271d845839c39bfa4614240e15dabeb1e6305f5e1006125d083856134be565b6125da91906134f3565b60405190815260200160405180910390a150505b5050505050565b6001600160a01b0382166126555760405162461bcd60e51b815260206004820152602160248201527f45524332303a206275726e2066726f6d20746865207a65726f206164647265736044820152607360f81b606482015260840161067d565b6001600160a01b038216600090815260336020526040902054818110156126c95760405162461bcd60e51b815260206004820152602260248201527f45524332303a206275726e20616d6f756e7420657863656564732062616c616e604482015261636560f01b606482015260840161067d565b6001600160a01b03831660009081526033602052604081208383039055603580548492906126f8908490613577565b90915550506040518281526000906001600160a01b038516907fddf252ad1be2c89b69c2b068fc378daa952ba7f163c4a11628f55a4df523b3ef90602001612006565b505050565b6040516001600160a01b03831660248201526044810182905261273b90849063a9059cbb60e01b906064015b60408051601f198184030181529190526020810180516001600160e01b03166001600160e01b031990931692909217909152612e09565b606580546001600160a01b038381166001600160a01b0319831681179093556040519116919082907f8be0079c531659141344cd1fd0a4f28419497f9722a3daafe3b4186f6b6457e090600090a35050565b6040516001600160a01b03808516602483015283166044820152606481018290526120879085906323b872dd60e01b9060840161276c565b6001600160a01b0382166128835760405162461bcd60e51b815260206004820152601f60248201527f45524332303a206d696e7420746f20746865207a65726f206164647265737300604482015260640161067d565b8060356000828254612895919061358e565b90915550506001600160a01b038216600090815260336020526040812080548392906128c290849061358e565b90915550506040518181526001600160a01b038316906000907fddf252ad1be2c89b69c2b068fc378daa952ba7f163c4a11628f55a4df523b3ef9060200160405180910390a35b5050565b60006001600160a01b03821673c7198437980c041c805a1edcba50c1ce5db9511814156129b95773ebe676ee90fe1112671f19b6b7459bc678b67e8a6001600160a01b03166350d25bcd6040518163ffffffff1660e01b815260040160206040518083038186803b15801561298157600080fd5b505afa158015612995573d6000803e3d6000fd5b505050506040513d601f19601f82011682018060405250810190610590919061355e565b60405163b3596f0760e01b81526001600160a01b038316600482015273ebd36016b3ed09d4693ed4251c67bd858c3c7c9c9063b3596f079060240160206040518083038186803b15801561298157600080fd5b60008054610100900460ff1615612a53578160ff166001148015612a2f5750303b155b612a4b5760405162461bcd60e51b815260040161067d90613bc7565b506000919050565b60005460ff808416911610612a7a5760405162461bcd60e51b815260040161067d90613bc7565b506000805460ff191660ff92909216919091179055600190565b919050565b600054610100900460ff16612ac05760405162461bcd60e51b815260040161067d90613c15565b6129098282612edb565b600054610100900460ff16612af15760405162461bcd60e51b815260040161067d90613c15565b6106b1612f29565b60975460ff1615612b1c5760405162461bcd60e51b815260040161067d90613534565b6097805460ff191660011790557f62e78cea01bee320cd4e420270b5ea74000d11b0c9f74754ebdbfc544b05a258612b513390565b6040516001600160a01b03909116815260200160405180910390a1565b60975460ff16612bb75760405162461bcd60e51b815260206004820152601460248201527314185d5cd8589b194e881b9bdd081c185d5cd95960621b604482015260640161067d565b6097805460ff191690557f5db9ee0a495bf2e6ff9c91a7834c1ba4fdd244a5e8aa4e537bd38aeae4b073aa33612b51565b60fd546040516370a0823160e01b81523060048201526000916001600160a01b0316906370a082319060240160206040518083038186803b158015612c2c57600080fd5b505afa158015612c40573d6000803e3d6000fd5b505050506040513d601f19601f82011682018060405250810190612c64919061355e565b90508015612ce25760fe5460fd5460405163617ba03760e01b81526001600160a01b039182166004820152602481018490523060448201526000606482015291169063617ba03790608401600060405180830381600087803b158015612cc957600080fd5b505af1158015612cdd573d6000803e3d6000fd5b505050505b90565b604080516002808252606080830184529260009291906020830190803683370190505090508481600081518110612d1e57612d1e613992565b60200260200101906001600160a01b031690816001600160a01b0316815250508381600181518110612d5257612d52613992565b6001600160a01b03909216602092830291909101909101526040516338ed173960e01b81527360ae616a2155ee3d9a68541ba4544862310933d4906338ed173990612daa908690600090869030904290600401613c60565b600060405180830381600087803b158015612dc457600080fd5b505af1158015612dd8573d6000803e3d6000fd5b505050506040513d6000823e601f3d908101601f19168201604052612e009190810190613c9c565b95945050505050565b6000612e5e826040518060400160405280602081526020017f5361666545524332303a206c6f772d6c6576656c2063616c6c206661696c6564815250856001600160a01b0316612f599092919063ffffffff16565b80519091501561273b5780806020019051810190612e7c9190613b97565b61273b5760405162461bcd60e51b815260206004820152602a60248201527f5361666545524332303a204552433230206f7065726174696f6e20646964206e6044820152691bdd081cdd58d8d9595960b21b606482015260840161067d565b600054610100900460ff16612f025760405162461bcd60e51b815260040161067d90613c15565b8151612f159060369060208501906130da565b50805161273b9060379060208401906130da565b600054610100900460ff16612f505760405162461bcd60e51b815260040161067d90613c15565b6106b1336127a3565b6060612f688484600085612f70565b949350505050565b606082471015612fd15760405162461bcd60e51b815260206004820152602660248201527f416464726573733a20696e73756666696369656e742062616c616e636520666f6044820152651c8818d85b1b60d21b606482015260840161067d565b6001600160a01b0385163b6130285760405162461bcd60e51b815260206004820152601d60248201527f416464726573733a2063616c6c20746f206e6f6e2d636f6e7472616374000000604482015260640161067d565b600080866001600160a01b031685876040516130449190613cd1565b60006040518083038185875af1925050503d8060008114613081576040519150601f19603f3d011682016040523d82523d6000602084013e613086565b606091505b50915091506130968282866130a1565b979650505050505050565b606083156130b0575081610612565b8251156130c05782518084602001fd5b8160405162461bcd60e51b815260040161067d919061319f565b8280546130e69061346d565b90600052602060002090601f016020900481019282613108576000855561314e565b82601f1061312157805160ff191683800117855561314e565b8280016001018555821561314e579182015b8281111561314e578251825591602001919060010190613133565b5061315a92915061315e565b5090565b5b8082111561315a576000815560010161315f565b60005b8381101561318e578181015183820152602001613176565b838111156120875750506000910152565b60208152600082518060208401526131be816040850160208701613173565b601f01601f19169190910160400192915050565b6001600160a01b0381168114611e5257600080fd5b600080604083850312156131fa57600080fd5b8235613205816131d2565b946020939093013593505050565b8015158114611e5257600080fd5b60006020828403121561323357600080fd5b813561061281613213565b60008060006060848603121561325357600080fd5b833561325e816131d2565b9250602084013561326e816131d2565b929592945050506040919091013590565b60006020828403121561329157600080fd5b5035919050565b6000602082840312156132aa57600080fd5b8135610612816131d2565b634e487b7160e01b600052604160045260246000fd5b6040516101e0810167ffffffffffffffff811182821017156132ef576132ef6132b5565b60405290565b604051601f8201601f1916810167ffffffffffffffff8111828210171561331e5761331e6132b5565b604052919050565b600082601f83011261333757600080fd5b813567ffffffffffffffff811115613351576133516132b5565b613364601f8201601f19166020016132f5565b81815284602083860101111561337957600080fd5b816020850160208301376000918101602001919091529392505050565b600080600080600060a086880312156133ae57600080fd5b853567ffffffffffffffff808211156133c657600080fd5b6133d289838a01613326565b965060208801359150808211156133e857600080fd5b506133f588828901613326565b9450506040860135613406816131d2565b92506060860135613416816131d2565b91506080860135613426816131d2565b809150509295509295909350565b6000806040838503121561344757600080fd5b8235613452816131d2565b91506020830135613462816131d2565b809150509250929050565b600181811c9082168061348157607f821691505b602082108114156134a257634e487b7160e01b600052602260045260246000fd5b50919050565b634e487b7160e01b600052601160045260246000fd5b60008160001904831182151516156134d8576134d86134a8565b500290565b634e487b7160e01b600052601260045260246000fd5b600082613502576135026134dd565b500490565b60208082526013908201527227b7363c9037bbb732b91037b91030b236b4b760691b604082015260600190565b60208082526010908201526f14185d5cd8589b194e881c185d5cd95960821b604082015260600190565b60006020828403121561357057600080fd5b5051919050565b600082821015613589576135896134a8565b500390565b600082198211156135a1576135a16134a8565b500190565b6020808252818101527f4f776e61626c653a2063616c6c6572206973206e6f7420746865206f776e6572604082015260600190565b600060ff821660ff8416808210156135f5576135f56134a8565b90039392505050565b600181815b8085111561363957816000190482111561361f5761361f6134a8565b8085161561362c57918102915b93841c9390800290613603565b509250929050565b60008261365057506001610590565b8161365d57506000610590565b8160018114613673576002811461367d57613699565b6001915050610590565b60ff84111561368e5761368e6134a8565b50506001821b610590565b5060208310610133831016604e8410600b84101617156136bc575081810a610590565b6136c683836135fe565b80600019048211156136da576136da6134a8565b029392505050565b600061061260ff841683613641565b60006020828403121561370357600080fd5b6040516020810181811067ffffffffffffffff82111715613726576137266132b5565b6040529151825250919050565b80516001600160801b0381168114612a9457600080fd5b805164ffffffffff81168114612a9457600080fd5b805161ffff81168114612a9457600080fd5b8051612a94816131d2565b60006101e0828403121561378f57600080fd5b6137976132cb565b6137a184846136f1565b81526137af60208401613733565b60208201526137c060408401613733565b60408201526137d160608401613733565b60608201526137e260808401613733565b60808201526137f360a08401613733565b60a082015261380460c0840161374a565b60c082015261381560e0840161375f565b60e0820152610100613828818501613771565b9082015261012061383a848201613771565b9082015261014061384c848201613771565b9082015261016061385e848201613771565b90820152610180613870848201613733565b908201526101a0613882848201613733565b908201526101c0613894848201613733565b908201529392505050565b60006001600160801b03808416806138b9576138b96134dd565b92169190910492915050565b600067ffffffffffffffff8211156138df576138df6132b5565b5060051b60200190565b600082601f8301126138fa57600080fd5b8151602061390f61390a836138c5565b6132f5565b82815260059290921b8401810191818101908684111561392e57600080fd5b8286015b84811015613952578051613945816131d2565b8352918301918301613932565b509695505050505050565b60006020828403121561396f57600080fd5b815167ffffffffffffffff81111561398657600080fd5b612f68848285016138e9565b634e487b7160e01b600052603260045260246000fd5b600080600080608085870312156139be57600080fd5b505082516020840151604085015160609095015191969095509092509050565b600060ff821660ff84168060ff038211156139fb576139fb6134a8565b019392505050565b600060208284031215613a1557600080fd5b815160ff8116811461061257600080fd5b60006106128383613641565b6000600019821415613a4657613a466134a8565b5060010190565b600081518084526020808501945080840160005b83811015613a865781516001600160a01b031687529582019590820190600101613a61565b509495945050505050565b604081526000613aa46040830185613a4d565b905060018060a01b03831660208301529392505050565b600082601f830112613acc57600080fd5b81516020613adc61390a836138c5565b82815260059290921b84018101918181019086841115613afb57600080fd5b8286015b848110156139525780518352918301918301613aff565b60008060408385031215613b2957600080fd5b825167ffffffffffffffff80821115613b4157600080fd5b613b4d868387016138e9565b93506020850151915080821115613b6357600080fd5b50613b7085828601613abb565b9150509250929050565b600060208284031215613b8c57600080fd5b8151610612816131d2565b600060208284031215613ba957600080fd5b815161061281613213565b6020815260006106126020830184613a4d565b6020808252602e908201527f496e697469616c697a61626c653a20636f6e747261637420697320616c72656160408201526d191e481a5b9a5d1a585b1a5e995960921b606082015260800190565b6020808252602b908201527f496e697469616c697a61626c653a20636f6e7472616374206973206e6f74206960408201526a6e697469616c697a696e6760a81b606082015260800190565b85815284602082015260a060408201526000613c7f60a0830186613a4d565b6001600160a01b0394909416606083015250608001529392505050565b600060208284031215613cae57600080fd5b815167ffffffffffffffff811115613cc557600080fd5b612f6884828501613abb565b60008251613ce3818460208701613173565b919091019291505056fea2646970667358221220979e59b1859e6dda600a7dafcf9ebbcfdf3f2245dc795de689cdae0d4689507c64736f6c63430008090033",
  "devdoc": {
    "kind": "dev",
    "methods": {
      "allowance(address,address)": {
        "details": "See {IERC20-allowance}."
      },
      "approve(address,uint256)": {
        "details": "See {IERC20-approve}. NOTE: If `amount` is the maximum `uint256`, the allowance is not updated on `transferFrom`. This is semantically equivalent to an infinite approval. Requirements: - `spender` cannot be the zero address."
      },
      "balanceOf(address)": {
        "details": "See {IERC20-balanceOf}."
      },
      "decimals()": {
        "details": "Returns the number of decimals used to get its user representation. For example, if `decimals` equals `2`, a balance of `505` tokens should be displayed to a user as `5.05` (`505 / 10 ** 2`). Tokens usually opt for a value of 18, imitating the relationship between Ether and Wei. This is the value {ERC20} uses, unless this function is overridden; NOTE: This information is only used for _display_ purposes: it in no way affects any of the arithmetic of the contract, including {IERC20-balanceOf} and {IERC20-transfer}."
      },
      "decreaseAllowance(address,uint256)": {
        "details": "Atomically decreases the allowance granted to `spender` by the caller. This is an alternative to {approve} that can be used as a mitigation for problems described in {IERC20-approve}. Emits an {Approval} event indicating the updated allowance. Requirements: - `spender` cannot be the zero address. - `spender` must have allowance for the caller of at least `subtractedValue`."
      },
      "deposit(uint256)": {
        "params": {
          "_amount": "amount of lptokens to deposit"
        }
      },
      "increaseAllowance(address,uint256)": {
        "details": "Atomically increases the allowance granted to `spender` by the caller. This is an alternative to {approve} that can be used as a mitigation for problems described in {IERC20-approve}. Emits an {Approval} event indicating the updated allowance. Requirements: - `spender` cannot be the zero address."
      },
      "name()": {
        "details": "Returns the name of the token."
      },
      "owner()": {
        "details": "Returns the address of the current owner."
      },
      "paused()": {
        "details": "Returns true if the contract is paused, and false otherwise."
      },
      "renounceOwnership()": {
        "details": "Leaves the contract without owner. It will not be possible to call `onlyOwner` functions anymore. Can only be called by the current owner. NOTE: Renouncing ownership will leave the contract without an owner, thereby removing any functionality that is only available to the owner."
      },
      "setFee(uint256)": {
        "params": {
          "_yieldFeePerc": "deposit fee percentage. 2000 for 20%"
        }
      },
      "symbol()": {
        "details": "Returns the symbol of the token, usually a shorter version of the name."
      },
      "totalSupply()": {
        "details": "See {IERC20-totalSupply}."
      },
      "transfer(address,uint256)": {
        "details": "See {IERC20-transfer}. Requirements: - `to` cannot be the zero address. - the caller must have a balance of at least `amount`."
      },
      "transferFrom(address,address,uint256)": {
        "details": "See {IERC20-transferFrom}. Emits an {Approval} event indicating the updated allowance. This is not required by the EIP. See the note at the beginning of {ERC20}. NOTE: Does not update the allowance if the current allowance is the maximum `uint256`. Requirements: - `from` and `to` cannot be the zero address. - `from` must have a balance of at least `amount`. - the caller must have allowance for ``from``'s tokens of at least `amount`."
      },
      "transferOwnership(address)": {
        "details": "Transfers ownership of the contract to a new account (`newOwner`). Can only be called by the current owner."
      },
      "withdraw(uint256)": {
        "params": {
          "_shares": "amount of shares to burn"
        }
      }
    },
    "version": 1
  },
  "userdoc": {
    "kind": "user",
    "methods": {
      "emergencyWithdraw()": {
        "notice": "Withdraws funds staked in mirror to this vault and pauses deposit, yield, invest functions"
      },
      "getPendingRewards()": {
        "notice": "Returns the pending rewards in USD."
      },
      "reinvest()": {
        "notice": "Unpauses deposit, yield, invest functions, and invests funds."
      },
      "setFee(uint256)": {
        "notice": "Function to set deposit and yield fee"
      }
    },
    "version": 1
  },
  "storageLayout": {
    "storage": [
      {
        "astId": 130,
        "contract": "contracts/mwi/deps/Aave3Vault.sol:Aave3Vault",
        "label": "_initialized",
        "offset": 0,
        "slot": "0",
        "type": "t_uint8"
      },
      {
        "astId": 133,
        "contract": "contracts/mwi/deps/Aave3Vault.sol:Aave3Vault",
        "label": "_initializing",
        "offset": 1,
        "slot": "0",
        "type": "t_bool"
      },
      {
        "astId": 1657,
        "contract": "contracts/mwi/deps/Aave3Vault.sol:Aave3Vault",
        "label": "__gap",
        "offset": 0,
        "slot": "1",
        "type": "t_array(t_uint256)50_storage"
      },
      {
        "astId": 454,
        "contract": "contracts/mwi/deps/Aave3Vault.sol:Aave3Vault",
        "label": "_balances",
        "offset": 0,
        "slot": "51",
        "type": "t_mapping(t_address,t_uint256)"
      },
      {
        "astId": 460,
        "contract": "contracts/mwi/deps/Aave3Vault.sol:Aave3Vault",
        "label": "_allowances",
        "offset": 0,
        "slot": "52",
        "type": "t_mapping(t_address,t_mapping(t_address,t_uint256))"
      },
      {
        "astId": 462,
        "contract": "contracts/mwi/deps/Aave3Vault.sol:Aave3Vault",
        "label": "_totalSupply",
        "offset": 0,
        "slot": "53",
        "type": "t_uint256"
      },
      {
        "astId": 464,
        "contract": "contracts/mwi/deps/Aave3Vault.sol:Aave3Vault",
        "label": "_name",
        "offset": 0,
        "slot": "54",
        "type": "t_string_storage"
      },
      {
        "astId": 466,
        "contract": "contracts/mwi/deps/Aave3Vault.sol:Aave3Vault",
        "label": "_symbol",
        "offset": 0,
        "slot": "55",
        "type": "t_string_storage"
      },
      {
        "astId": 1045,
        "contract": "contracts/mwi/deps/Aave3Vault.sol:Aave3Vault",
        "label": "__gap",
        "offset": 0,
        "slot": "56",
        "type": "t_array(t_uint256)45_storage"
      },
      {
        "astId": 10,
        "contract": "contracts/mwi/deps/Aave3Vault.sol:Aave3Vault",
        "label": "_owner",
        "offset": 0,
        "slot": "101",
        "type": "t_address"
      },
      {
        "astId": 122,
        "contract": "contracts/mwi/deps/Aave3Vault.sol:Aave3Vault",
        "label": "__gap",
        "offset": 0,
        "slot": "102",
        "type": "t_array(t_uint256)49_storage"
      },
      {
        "astId": 286,
        "contract": "contracts/mwi/deps/Aave3Vault.sol:Aave3Vault",
        "label": "_paused",
        "offset": 0,
        "slot": "151",
        "type": "t_bool"
      },
      {
        "astId": 375,
        "contract": "contracts/mwi/deps/Aave3Vault.sol:Aave3Vault",
        "label": "__gap",
        "offset": 0,
        "slot": "152",
        "type": "t_array(t_uint256)49_storage"
      },
      {
        "astId": 390,
        "contract": "contracts/mwi/deps/Aave3Vault.sol:Aave3Vault",
        "label": "_status",
        "offset": 0,
        "slot": "201",
        "type": "t_uint256"
      },
      {
        "astId": 434,
        "contract": "contracts/mwi/deps/Aave3Vault.sol:Aave3Vault",
        "label": "__gap",
        "offset": 0,
        "slot": "202",
        "type": "t_array(t_uint256)49_storage"
      },
      {
        "astId": 25578,
        "contract": "contracts/mwi/deps/Aave3Vault.sol:Aave3Vault",
        "label": "yieldFee",
        "offset": 0,
        "slot": "251",
        "type": "t_uint256"
      },
      {
        "astId": 25581,
        "contract": "contracts/mwi/deps/Aave3Vault.sol:Aave3Vault",
        "label": "aToken",
        "offset": 0,
        "slot": "252",
        "type": "t_contract(IAToken)25439"
      },
      {
        "astId": 25584,
        "contract": "contracts/mwi/deps/Aave3Vault.sol:Aave3Vault",
        "label": "token",
        "offset": 0,
        "slot": "253",
        "type": "t_contract(IERC20Upgradeable)1124"
      },
      {
        "astId": 25586,
        "contract": "contracts/mwi/deps/Aave3Vault.sol:Aave3Vault",
        "label": "tokenDecimals",
        "offset": 20,
        "slot": "253",
        "type": "t_uint8"
      },
      {
        "astId": 25589,
        "contract": "contracts/mwi/deps/Aave3Vault.sol:Aave3Vault",
        "label": "aPool",
        "offset": 0,
        "slot": "254",
        "type": "t_contract(IPool)25470"
      },
      {
        "astId": 25592,
        "contract": "contracts/mwi/deps/Aave3Vault.sol:Aave3Vault",
        "label": "aRewardsController",
        "offset": 0,
        "slot": "255",
        "type": "t_contract(IRewardsController)25547"
      },
      {
        "astId": 25594,
        "contract": "contracts/mwi/deps/Aave3Vault.sol:Aave3Vault",
        "label": "treasuryWallet",
        "offset": 0,
        "slot": "256",
        "type": "t_address"
      },
      {
        "astId": 25596,
        "contract": "contracts/mwi/deps/Aave3Vault.sol:Aave3Vault",
        "label": "admin",
        "offset": 0,
        "slot": "257",
        "type": "t_address"
      },
      {
        "astId": 25600,
        "contract": "contracts/mwi/deps/Aave3Vault.sol:Aave3Vault",
        "label": "depositedBlock",
        "offset": 0,
        "slot": "258",
        "type": "t_mapping(t_address,t_uint256)"
      }
    ],
    "types": {
      "t_address": {
        "encoding": "inplace",
        "label": "address",
        "numberOfBytes": "20"
      },
      "t_array(t_uint256)45_storage": {
        "base": "t_uint256",
        "encoding": "inplace",
        "label": "uint256[45]",
        "numberOfBytes": "1440"
      },
      "t_array(t_uint256)49_storage": {
        "base": "t_uint256",
        "encoding": "inplace",
        "label": "uint256[49]",
        "numberOfBytes": "1568"
      },
      "t_array(t_uint256)50_storage": {
        "base": "t_uint256",
        "encoding": "inplace",
        "label": "uint256[50]",
        "numberOfBytes": "1600"
      },
      "t_bool": {
        "encoding": "inplace",
        "label": "bool",
        "numberOfBytes": "1"
      },
      "t_contract(IAToken)25439": {
        "encoding": "inplace",
        "label": "contract IAToken",
        "numberOfBytes": "20"
      },
      "t_contract(IERC20Upgradeable)1124": {
        "encoding": "inplace",
        "label": "contract IERC20Upgradeable",
        "numberOfBytes": "20"
      },
      "t_contract(IPool)25470": {
        "encoding": "inplace",
        "label": "contract IPool",
        "numberOfBytes": "20"
      },
      "t_contract(IRewardsController)25547": {
        "encoding": "inplace",
        "label": "contract IRewardsController",
        "numberOfBytes": "20"
      },
      "t_mapping(t_address,t_mapping(t_address,t_uint256))": {
        "encoding": "mapping",
        "key": "t_address",
        "label": "mapping(address => mapping(address => uint256))",
        "numberOfBytes": "32",
        "value": "t_mapping(t_address,t_uint256)"
      },
      "t_mapping(t_address,t_uint256)": {
        "encoding": "mapping",
        "key": "t_address",
        "label": "mapping(address => uint256)",
        "numberOfBytes": "32",
        "value": "t_uint256"
      },
      "t_string_storage": {
        "encoding": "bytes",
        "label": "string",
        "numberOfBytes": "32"
      },
      "t_uint256": {
        "encoding": "inplace",
        "label": "uint256",
        "numberOfBytes": "32"
      },
      "t_uint8": {
        "encoding": "inplace",
        "label": "uint8",
        "numberOfBytes": "1"
      }
    }
  }
}