{
  "address": "0xcbF2A5714Bc0a9b3B034EC10aDB468ed652539B4",
  "abi": [
    {
      "inputs": [
        {
          "internalType": "address",
          "name": "sender",
          "type": "address"
        },
        {
          "internalType": "string[]",
          "name": "urls",
          "type": "string[]"
        },
        {
          "internalType": "bytes",
          "name": "callData",
          "type": "bytes"
        },
        {
          "internalType": "bytes4",
          "name": "callbackFunction",
          "type": "bytes4"
        },
        {
          "internalType": "bytes",
          "name": "extraData",
          "type": "bytes"
        }
      ],
      "name": "OffchainLookup",
      "type": "error"
    },
    {
      "anonymous": false,
      "inputs": [
        {
          "indexed": false,
          "internalType": "uint256",
          "name": "chainID",
          "type": "uint256"
        },
        {
          "indexed": false,
          "internalType": "address",
          "name": "token",
          "type": "address"
        },
        {
          "indexed": false,
          "internalType": "uint256",
          "name": "tid",
          "type": "uint256"
        }
      ],
      "name": "AddToken",
      "type": "event"
    },
    {
      "anonymous": false,
      "inputs": [
        {
          "indexed": false,
          "internalType": "address",
          "name": "caller",
          "type": "address"
        },
        {
          "indexed": false,
          "internalType": "uint256",
          "name": "shareBurned",
          "type": "uint256"
        }
      ],
      "name": "Burn",
      "type": "event"
    },
    {
      "anonymous": false,
      "inputs": [
        {
          "indexed": false,
          "internalType": "uint8",
          "name": "version",
          "type": "uint8"
        }
      ],
      "name": "Initialized",
      "type": "event"
    },
    {
      "anonymous": false,
      "inputs": [
        {
          "indexed": false,
          "internalType": "address",
          "name": "caller",
          "type": "address"
        },
        {
          "indexed": false,
          "internalType": "uint256",
          "name": "amtDeposit",
          "type": "uint256"
        },
        {
          "indexed": false,
          "internalType": "uint256",
          "name": "shareMinted",
          "type": "uint256"
        }
      ],
      "name": "Mint",
      "type": "event"
    },
    {
      "anonymous": false,
      "inputs": [
        {
          "indexed": true,
          "internalType": "address",
          "name": "previousOwner",
          "type": "address"
        },
        {
          "indexed": true,
          "internalType": "address",
          "name": "newOwner",
          "type": "address"
        }
      ],
      "name": "OwnershipTransferred",
      "type": "event"
    },
    {
      "anonymous": false,
      "inputs": [
        {
          "indexed": false,
          "internalType": "address",
          "name": "account",
          "type": "address"
        }
      ],
      "name": "Paused",
      "type": "event"
    },
    {
      "anonymous": false,
      "inputs": [
        {
          "indexed": false,
          "internalType": "uint256",
          "name": "chainID",
          "type": "uint256"
        },
        {
          "indexed": false,
          "internalType": "address",
          "name": "token",
          "type": "address"
        },
        {
          "indexed": false,
          "internalType": "uint256",
          "name": "targetPerc",
          "type": "uint256"
        },
        {
          "indexed": false,
          "internalType": "uint256",
          "name": "tid",
          "type": "uint256"
        }
      ],
      "name": "RemoveToken",
      "type": "event"
    },
    {
      "anonymous": false,
      "inputs": [
        {
          "indexed": false,
          "internalType": "address",
          "name": "oldAdmin",
          "type": "address"
        },
        {
          "indexed": false,
          "internalType": "address",
          "name": "newAdmin",
          "type": "address"
        }
      ],
      "name": "SetAdminWallet",
      "type": "event"
    },
    {
      "anonymous": false,
      "inputs": [
        {
          "indexed": false,
          "internalType": "address",
          "name": "account",
          "type": "address"
        }
      ],
      "name": "Unpaused",
      "type": "event"
    },
    {
      "inputs": [],
      "name": "BNI",
      "outputs": [
        {
          "internalType": "contract IBNI",
          "name": "",
          "type": "address"
        }
      ],
      "stateMutability": "view",
      "type": "function"
    },
    {
      "inputs": [
        {
          "internalType": "uint256",
          "name": "_chainID",
          "type": "uint256"
        },
        {
          "internalType": "address",
          "name": "_token",
          "type": "address"
        }
      ],
      "name": "addToken",
      "outputs": [],
      "stateMutability": "nonpayable",
      "type": "function"
    },
    {
      "inputs": [],
      "name": "admin",
      "outputs": [
        {
          "internalType": "address",
          "name": "",
          "type": "address"
        }
      ],
      "stateMutability": "view",
      "type": "function"
    },
    {
      "inputs": [
        {
          "internalType": "address",
          "name": "_account",
          "type": "address"
        },
        {
          "internalType": "uint256",
          "name": "_share",
          "type": "uint256"
        }
      ],
      "name": "burn",
      "outputs": [],
      "stateMutability": "nonpayable",
      "type": "function"
    },
    {
      "inputs": [
        {
          "internalType": "uint256",
          "name": "",
          "type": "uint256"
        }
      ],
      "name": "chainIDs",
      "outputs": [
        {
          "internalType": "uint256",
          "name": "",
          "type": "uint256"
        }
      ],
      "stateMutability": "view",
      "type": "function"
    },
    {
      "inputs": [],
      "name": "gatewaySigner",
      "outputs": [
        {
          "internalType": "address",
          "name": "",
          "type": "address"
        }
      ],
      "stateMutability": "view",
      "type": "function"
    },
    {
      "inputs": [
        {
          "internalType": "uint256[]",
          "name": "_allPoolInUSDs",
          "type": "uint256[]"
        },
        {
          "internalType": "uint256[]",
          "name": "_APRs",
          "type": "uint256[]"
        }
      ],
      "name": "getAPR",
      "outputs": [
        {
          "internalType": "uint256",
          "name": "",
          "type": "uint256"
        }
      ],
      "stateMutability": "pure",
      "type": "function"
    },
    {
      "inputs": [],
      "name": "getAPR1",
      "outputs": [
        {
          "internalType": "uint256",
          "name": "",
          "type": "uint256"
        }
      ],
      "stateMutability": "view",
      "type": "function"
    },
    {
      "inputs": [
        {
          "internalType": "bytes",
          "name": "result",
          "type": "bytes"
        },
        {
          "internalType": "bytes",
          "name": "extraData",
          "type": "bytes"
        }
      ],
      "name": "getAPR1WithSig",
      "outputs": [
        {
          "internalType": "uint256",
          "name": "",
          "type": "uint256"
        }
      ],
      "stateMutability": "view",
      "type": "function"
    },
    {
      "inputs": [
        {
          "internalType": "uint256[]",
          "name": "_allPoolInUSDs",
          "type": "uint256[]"
        }
      ],
      "name": "getAllPoolInUSD",
      "outputs": [
        {
          "internalType": "uint256",
          "name": "",
          "type": "uint256"
        }
      ],
      "stateMutability": "pure",
      "type": "function"
    },
    {
      "inputs": [],
      "name": "getAllPoolInUSD1",
      "outputs": [
        {
          "internalType": "uint256",
          "name": "",
          "type": "uint256"
        }
      ],
      "stateMutability": "view",
      "type": "function"
    },
    {
      "inputs": [
        {
          "internalType": "bytes",
          "name": "result",
          "type": "bytes"
        },
        {
          "internalType": "bytes",
          "name": "extraData",
          "type": "bytes"
        }
      ],
      "name": "getAllPoolInUSD1WithSig",
      "outputs": [
        {
          "internalType": "uint256",
          "name": "",
          "type": "uint256"
        }
      ],
      "stateMutability": "view",
      "type": "function"
    },
    {
      "inputs": [
        {
          "internalType": "uint256[]",
          "name": "_chainIDs",
          "type": "uint256[]"
        },
        {
          "internalType": "address[]",
          "name": "_tokens",
          "type": "address[]"
        },
        {
          "internalType": "uint256[]",
          "name": "_poolInUSDs",
          "type": "uint256[]"
        }
      ],
      "name": "getCurrentTokenCompositionPerc",
      "outputs": [
        {
          "internalType": "uint256[]",
          "name": "",
          "type": "uint256[]"
        },
        {
          "internalType": "address[]",
          "name": "",
          "type": "address[]"
        },
        {
          "internalType": "uint256[]",
          "name": "pools",
          "type": "uint256[]"
        },
        {
          "internalType": "uint256[]",
          "name": "percentages",
          "type": "uint256[]"
        }
      ],
      "stateMutability": "view",
      "type": "function"
    },
    {
      "inputs": [],
      "name": "getCurrentTokenCompositionPerc1",
      "outputs": [
        {
          "internalType": "uint256[]",
          "name": "",
          "type": "uint256[]"
        },
        {
          "internalType": "address[]",
          "name": "",
          "type": "address[]"
        },
        {
          "internalType": "uint256[]",
          "name": "",
          "type": "uint256[]"
        },
        {
          "internalType": "uint256[]",
          "name": "",
          "type": "uint256[]"
        }
      ],
      "stateMutability": "view",
      "type": "function"
    },
    {
      "inputs": [
        {
          "internalType": "bytes",
          "name": "result",
          "type": "bytes"
        },
        {
          "internalType": "bytes",
          "name": "extraData",
          "type": "bytes"
        }
      ],
      "name": "getCurrentTokenCompositionPercWithSig",
      "outputs": [
        {
          "internalType": "uint256[]",
          "name": "",
          "type": "uint256[]"
        },
        {
          "internalType": "address[]",
          "name": "",
          "type": "address[]"
        },
        {
          "internalType": "uint256[]",
          "name": "",
          "type": "uint256[]"
        },
        {
          "internalType": "uint256[]",
          "name": "",
          "type": "uint256[]"
        }
      ],
      "stateMutability": "view",
      "type": "function"
    },
    {
      "inputs": [
        {
          "internalType": "uint256[]",
          "name": "_chainIDs",
          "type": "uint256[]"
        },
        {
          "internalType": "address[]",
          "name": "_tokens",
          "type": "address[]"
        },
        {
          "internalType": "uint256[]",
          "name": "_poolInUSDs",
          "type": "uint256[]"
        },
        {
          "internalType": "uint256",
          "name": "_USDTAmt",
          "type": "uint256"
        }
      ],
      "name": "getDepositTokenComposition",
      "outputs": [
        {
          "internalType": "uint256[]",
          "name": "",
          "type": "uint256[]"
        },
        {
          "internalType": "address[]",
          "name": "",
          "type": "address[]"
        },
        {
          "internalType": "uint256[]",
          "name": "_USDTAmts",
          "type": "uint256[]"
        }
      ],
      "stateMutability": "view",
      "type": "function"
    },
    {
      "inputs": [
        {
          "internalType": "uint256",
          "name": "_USDTAmt",
          "type": "uint256"
        }
      ],
      "name": "getDepositTokenComposition1",
      "outputs": [
        {
          "internalType": "uint256[]",
          "name": "",
          "type": "uint256[]"
        },
        {
          "internalType": "address[]",
          "name": "",
          "type": "address[]"
        },
        {
          "internalType": "uint256[]",
          "name": "",
          "type": "uint256[]"
        }
      ],
      "stateMutability": "view",
      "type": "function"
    },
    {
      "inputs": [
        {
          "internalType": "bytes",
          "name": "result",
          "type": "bytes"
        },
        {
          "internalType": "bytes",
          "name": "extraData",
          "type": "bytes"
        }
      ],
      "name": "getDepositTokenComposition1WithSig",
      "outputs": [
        {
          "internalType": "uint256[]",
          "name": "",
          "type": "uint256[]"
        },
        {
          "internalType": "address[]",
          "name": "",
          "type": "address[]"
        },
        {
          "internalType": "uint256[]",
          "name": "",
          "type": "uint256[]"
        }
      ],
      "stateMutability": "view",
      "type": "function"
    },
    {
      "inputs": [
        {
          "internalType": "uint256[]",
          "name": "_allPoolInUSDs",
          "type": "uint256[]"
        }
      ],
      "name": "getPricePerFullShare",
      "outputs": [
        {
          "internalType": "uint256",
          "name": "",
          "type": "uint256"
        }
      ],
      "stateMutability": "view",
      "type": "function"
    },
    {
      "inputs": [],
      "name": "getPricePerFullShare1",
      "outputs": [
        {
          "internalType": "uint256",
          "name": "",
          "type": "uint256"
        }
      ],
      "stateMutability": "view",
      "type": "function"
    },
    {
      "inputs": [
        {
          "internalType": "bytes",
          "name": "result",
          "type": "bytes"
        },
        {
          "internalType": "bytes",
          "name": "extraData",
          "type": "bytes"
        }
      ],
      "name": "getPricePerFullShare1WithSig",
      "outputs": [
        {
          "internalType": "uint256",
          "name": "",
          "type": "uint256"
        }
      ],
      "stateMutability": "view",
      "type": "function"
    },
    {
      "inputs": [],
      "name": "getUSDTPriceInUSD",
      "outputs": [
        {
          "internalType": "uint256",
          "name": "",
          "type": "uint256"
        },
        {
          "internalType": "uint8",
          "name": "",
          "type": "uint8"
        }
      ],
      "stateMutability": "view",
      "type": "function"
    },
    {
      "inputs": [
        {
          "internalType": "address",
          "name": "_account",
          "type": "address"
        },
        {
          "internalType": "uint256",
          "name": "_share",
          "type": "uint256"
        }
      ],
      "name": "getWithdrawPerc",
      "outputs": [
        {
          "internalType": "uint256",
          "name": "_sharePerc",
          "type": "uint256"
        }
      ],
      "stateMutability": "view",
      "type": "function"
    },
    {
      "inputs": [
        {
          "internalType": "address",
          "name": "_admin",
          "type": "address"
        },
        {
          "internalType": "address",
          "name": "_BNI",
          "type": "address"
        },
        {
          "internalType": "address",
          "name": "_priceOracle",
          "type": "address"
        }
      ],
      "name": "initialize",
      "outputs": [],
      "stateMutability": "nonpayable",
      "type": "function"
    },
    {
      "inputs": [
        {
          "internalType": "uint256",
          "name": "_pool",
          "type": "uint256"
        },
        {
          "internalType": "address",
          "name": "_account",
          "type": "address"
        },
        {
          "internalType": "uint256",
          "name": "_USDTAmt",
          "type": "uint256"
        }
      ],
      "name": "mint",
      "outputs": [],
      "stateMutability": "nonpayable",
      "type": "function"
    },
    {
      "inputs": [],
      "name": "owner",
      "outputs": [
        {
          "internalType": "address",
          "name": "",
          "type": "address"
        }
      ],
      "stateMutability": "view",
      "type": "function"
    },
    {
      "inputs": [],
      "name": "paused",
      "outputs": [
        {
          "internalType": "bool",
          "name": "",
          "type": "bool"
        }
      ],
      "stateMutability": "view",
      "type": "function"
    },
    {
      "inputs": [],
      "name": "priceOracle",
      "outputs": [
        {
          "internalType": "contract IPriceOracle",
          "name": "",
          "type": "address"
        }
      ],
      "stateMutability": "view",
      "type": "function"
    },
    {
      "inputs": [
        {
          "internalType": "uint256",
          "name": "_tid",
          "type": "uint256"
        }
      ],
      "name": "removeToken",
      "outputs": [],
      "stateMutability": "nonpayable",
      "type": "function"
    },
    {
      "inputs": [],
      "name": "renounceOwnership",
      "outputs": [],
      "stateMutability": "nonpayable",
      "type": "function"
    },
    {
      "inputs": [
        {
          "internalType": "address",
          "name": "_admin",
          "type": "address"
        }
      ],
      "name": "setAdmin",
      "outputs": [],
      "stateMutability": "nonpayable",
      "type": "function"
    },
    {
      "inputs": [
        {
          "internalType": "address",
          "name": "_signer",
          "type": "address"
        }
      ],
      "name": "setGatewaySigner",
      "outputs": [],
      "stateMutability": "nonpayable",
      "type": "function"
    },
    {
      "inputs": [
        {
          "internalType": "uint256[]",
          "name": "_targetPerc",
          "type": "uint256[]"
        }
      ],
      "name": "setTokenCompositionTargetPerc",
      "outputs": [],
      "stateMutability": "nonpayable",
      "type": "function"
    },
    {
      "inputs": [
        {
          "internalType": "string[]",
          "name": "_urls",
          "type": "string[]"
        }
      ],
      "name": "setUrls",
      "outputs": [],
      "stateMutability": "nonpayable",
      "type": "function"
    },
    {
      "inputs": [
        {
          "internalType": "uint256",
          "name": "",
          "type": "uint256"
        }
      ],
      "name": "targetPercentages",
      "outputs": [
        {
          "internalType": "uint256",
          "name": "",
          "type": "uint256"
        }
      ],
      "stateMutability": "view",
      "type": "function"
    },
    {
      "inputs": [
        {
          "internalType": "uint256",
          "name": "",
          "type": "uint256"
        },
        {
          "internalType": "address",
          "name": "",
          "type": "address"
        }
      ],
      "name": "tid",
      "outputs": [
        {
          "internalType": "uint256",
          "name": "",
          "type": "uint256"
        }
      ],
      "stateMutability": "view",
      "type": "function"
    },
    {
      "inputs": [
        {
          "internalType": "uint256",
          "name": "",
          "type": "uint256"
        }
      ],
      "name": "tokens",
      "outputs": [
        {
          "internalType": "address",
          "name": "",
          "type": "address"
        }
      ],
      "stateMutability": "view",
      "type": "function"
    },
    {
      "inputs": [
        {
          "internalType": "address",
          "name": "newOwner",
          "type": "address"
        }
      ],
      "name": "transferOwnership",
      "outputs": [],
      "stateMutability": "nonpayable",
      "type": "function"
    },
    {
      "inputs": [
        {
          "internalType": "uint256",
          "name": "",
          "type": "uint256"
        }
      ],
      "name": "urls",
      "outputs": [
        {
          "internalType": "string",
          "name": "",
          "type": "string"
        }
      ],
      "stateMutability": "view",
      "type": "function"
    }
  ],
  "transactionHash": "0xa2838bc8bfe3d3100a8f74b1c7def0d30c6a5f00360b14bc48c557d5990f18e7",
  "args": [],
  "numDeployments": 2,
  "solcInputHash": "ca5f127aa3313c3dcf3672fd7fb2439d",
  "bytecode": "0x608060405234801561001057600080fd5b50613b72806100206000396000f3fe608060405234801561001057600080fd5b506004361061023d5760003560e01c80638da5cb5b1161013b578063cb25bb65116100b8578063ece90e901161007c578063ece90e901461051a578063f2fde38b14610522578063f3253c6314610535578063f851a44014610548578063fd6878cc1461055b57600080fd5b8063cb25bb65146104bb578063d3b974a0146104ce578063da3bc85c146104e1578063dd8aae41146104f4578063ec2e54c71461050757600080fd5b8063a7645a20116100ff578063a7645a201461045b578063af05a7491461046e578063b47c6a2714610476578063b9bd5bb514610495578063c0c53b8b146104a857600080fd5b80638da5cb5b146103fe57806397cd02e61461040f5780639dc29fac146104225780639f86d4dd14610435578063a08ce5201461044857600080fd5b806357016b0a116101c9578063715018a61161018d578063715018a61461039d578063796676be146103a55780637ed66ec6146103c55780637fb2df42146103d8578063836a1040146103eb57600080fd5b806357016b0a146103465780635796d0b0146103595780635c975abb146103615780636cc895a914610377578063704b6c021461038a57600080fd5b806338a871631161021057806338a87163146102d357806340b8e57f146102f657806349445553146103095780634f64b2be1461032b5780635042f9b61461033e57600080fd5b806309d23e24146102425780631c60ffc3146102685780632630c12f1461029357806336c5d724146102be575b600080fd5b610255610250366004612cde565b61056e565b6040519081526020015b60405180910390f35b610255610276366004612d0e565b60cc60209081526000928352604080842090915290825290205481565b60cf546102a6906001600160a01b031681565b6040516001600160a01b03909116815260200161025f565b6102d16102cc366004612cde565b61058f565b005b6102e66102e1366004612d7b565b61087f565b60405161025f9493929190612e5a565b610255610304366004612d7b565b610978565b61031c610317366004612cde565b6109ef565b60405161025f93929190612eb2565b6102a6610339366004612cde565b610a63565b610255610a8d565b6102d1610354366004612d0e565b610ad8565b6102e6610ce4565b60655460ff16604051901515815260200161025f565b6102d1610385366004612fab565b610d37565b6102d1610398366004613075565b610d78565b6102d1610e03565b6103b86103b3366004612cde565b610e39565b60405161025f91906130dd565b61031c6103d3366004612d7b565b610ee5565b6102d16103e63660046130f0565b610f7f565b6102d16103f9366004613164565b6110b4565b6097546001600160a01b03166102a6565b61025561041d3660046131ff565b6113a7565b6102d161043036600461323b565b611474565b61025561044336600461323b565b6116b0565b610255610456366004612d7b565b61182c565b610255610469366004612cde565b61189c565b6102556118ac565b61047e6118f7565b6040805192835260ff90911660208301520161025f565b6102d16104a3366004613075565b611992565b6102d16104b6366004613265565b6119de565b6102e66104c936600461330a565b611c5e565b61031c6104dc366004613391565b611e5c565b6102556104ef366004613420565b612193565b6102556105023660046131ff565b61227c565b60ce546102a6906001600160a01b031681565b6102556122cd565b6102d1610530366004613075565b612318565b60d1546102a6906001600160a01b031681565b60cd546102a6906001600160a01b031681565b610255610569366004612d7b565b6123b3565b60c9818154811061057e57600080fd5b600091825260209091200154905081565b6097546001600160a01b031633146105c25760405162461bcd60e51b81526004016105b990613483565b60405180910390fd5b60ca548082106106025760405162461bcd60e51b815260206004820152600b60248201526a125b9d985b1a59081d1a5960aa1b60448201526064016105b9565b600060c98381548110610617576106176134b8565b90600052602060002001549050600060ca8481548110610639576106396134b8565b600091825260208220015460cb80546001600160a01b0390921693509086908110610666576106666134b8565b9060005260206000200154905060c960018561068291906134e4565b81548110610692576106926134b8565b906000526020600020015460c986815481106106b0576106b06134b8565b60009182526020909120015560c98054806106cd576106cd6134fb565b6001900381819060005260206000200160009055905560ca6001856106f291906134e4565b81548110610702576107026134b8565b60009182526020909120015460ca80546001600160a01b03909216918790811061072e5761072e6134b8565b9060005260206000200160006101000a8154816001600160a01b0302191690836001600160a01b0316021790555060ca80548061076d5761076d6134fb565b600082815260209020810160001990810180546001600160a01b031916905501905560cb61079c6001866134e4565b815481106107ac576107ac6134b8565b906000526020600020015460cb86815481106107ca576107ca6134b8565b60009182526020909120015560cb8054806107e7576107e76134fb565b60008281526020808220830160001990810183905590920190925584825260cc815260408083206001600160a01b0386168452909152812055610828612417565b604080518481526001600160a01b0384166020820152908101829052606081018690527fd8cc1d279bf727e9ee02c4ed116f7c12f4965ace9b477482de71a7929a1871b39060800160405180910390a15050505050565b606080808060008080806108958b8d018d613531565b93509350935093506000610925828686866040516020016108b893929190613602565b60408051601f198184030181529082905280516020918201207f19457468657265756d205369676e6564204d6573736167653a0a33320000000091830191909152603c820152605c016040516020818303038152906040528051906020012061255a90919063ffffffff16565b60d1549091506001600160a01b038083169116146109555760405162461bcd60e51b81526004016105b99061364b565b610960858585611c5e565b98509850985098505050505050945094509450949050565b600080808061098987890189613678565b92509250925060006109a88285856040516020016108b89291906136f5565b60d1549091506001600160a01b038083169116146109d85760405162461bcd60e51b81526004016105b99061364b565b6109e28484612193565b9998505050505050505050565b6040805160048152602481018252602080820180516001600160e01b0316633c1d708960e01b179052825190810184905260609283928392309260d09291633f6b376360e11b91015b60408051601f1981840301815290829052630556f18360e41b82526105b99594939291600401613745565b60ca8181548110610a7357600080fd5b6000918252602090912001546001600160a01b0316905081565b6040805160048152602481018252602080820180516001600160e01b03166328217cdb60e11b179052825160009181018290529092309260d0929091630504672960e51b9101610a38565b6097546001600160a01b03163314610b025760405162461bcd60e51b81526004016105b990613483565b600082815260cc602090815260408083206001600160a01b038516845290915290205480158015610b51575060c9600081548110610b4257610b426134b8565b90600052602060002001548314155b8015610b88575060ca600081548110610b6c57610b6c6134b8565b6000918252602090912001546001600160a01b03838116911614155b610bc45760405162461bcd60e51b815260206004820152600d60248201526c105b1c9958591e481859191959609a1b60448201526064016105b9565b60c9805460018082019092557f66be4f155c5ef2ebd3772b228f2f00681e4ed5826cdb3b1943cc11ad15ad1d280184905560ca805480830182557f42d72674974f694b5f5159593243114d38a5c39c89d6b62fee061ff523240ee10180546001600160a01b0319166001600160a01b03861617905560cb8054808401825560009182527fa7ce836d032b2bf62b7e2097a8e0a6d8aeb35405ad15271e96d3b0188a1d06fb015554610c7591906134e4565b600084815260cc602090815260408083206001600160a01b038716808552908352928190208490558051878152918201929092529081018290529091507fefa15d4fefbb71d07b3cdc624ab208ebe2d3b6933946582fd8b807e8a5bc93cc9060600160405180910390a1505050565b6040805160048152602481018252602080820180516001600160e01b03166305796d0b60e41b1790528251600091810191909152606092839283928392309260d09290916338a8716360e01b9101610a38565b6097546001600160a01b03163314610d615760405162461bcd60e51b81526004016105b990613483565b8051610d749060d0906020840190612b95565b5050565b6097546001600160a01b03163314610da25760405162461bcd60e51b81526004016105b990613483565b60cd80546001600160a01b038381166001600160a01b031983168117909355604080519190921680825260208201939093527f9f0ac88be9159761bacf6c9e7c294c397ebf594607f6b3f2f70e7e0841ea68e8910160405180910390a15050565b6097546001600160a01b03163314610e2d5760405162461bcd60e51b81526004016105b990613483565b610e376000612576565b565b60d08181548110610e4957600080fd5b906000526020600020016000915090508054610e649061370a565b80601f0160208091040260200160405190810160405280929190818152602001828054610e909061370a565b8015610edd5780601f10610eb257610100808354040283529160200191610edd565b820191906000526020600020905b815481529060010190602001808311610ec057829003601f168201915b505050505081565b606080806000610ef785870187612cde565b90506000808080610f0a8b8d018d613531565b93509350935093506000610f2d828686866040516020016108b893929190613602565b60d1549091506001600160a01b03808316911614610f5d5760405162461bcd60e51b81526004016105b99061364b565b610f6985858589611e5c565b9850985098505050505050509450945094915050565b6097546001600160a01b03163314610fa95760405162461bcd60e51b81526004016105b990613483565b60cb5481908114610fec5760405162461bcd60e51b815260206004820152600d60248201526c125b9d985b1a590818dbdd5b9d609a1b60448201526064016105b9565b6000805b828110156110685784848281811061100a5761100a6134b8565b9050602002013560cb8281548110611024576110246134b8565b600091825260209091200155848482818110611042576110426134b8565b90506020020135826110549190613872565b9150806110608161388a565b915050610ff0565b5061271081146110ae5760405162461bcd60e51b815260206004820152601160248201527024b73b30b634b2103830b930b6b2ba32b960791b60448201526064016105b9565b50505050565b6097546001600160a01b03163314806110d7575060cd546001600160a01b031633145b6111195760405162461bcd60e51b815260206004820152601360248201527227b7363c9037bbb732b91037b91030b236b4b760691b60448201526064016105b9565b6002600154141561116c5760405162461bcd60e51b815260206004820152601f60248201527f5265656e7472616e637947756172643a207265656e7472616e742063616c6c0060448201526064016105b9565b600260015560655460ff16156111b75760405162461bcd60e51b815260206004820152601060248201526f14185d5cd8589b194e881c185d5cd95960821b60448201526064016105b9565b6000806111c26118f7565b909250905060006111d482600a613989565b836111e48664e8d4a51000613998565b6111ee9190613998565b6111f891906139b7565b9050858110611208576000611212565b61121281876134e4565b9550600060ce60009054906101000a90046001600160a01b03166001600160a01b03166318160ddd6040518163ffffffff1660e01b815260040160206040518083038186803b15801561126457600080fd5b505afa158015611278573d6000803e3d6000fd5b505050506040513d601f19601f8201168201806040525081019061129c91906139d9565b905060008115806112ab575087155b6112c957876112ba8484613998565b6112c491906139b7565b6112cb565b825b90506103e86112dc826103e5613998565b6112e691906139b7565b60ce546040516340c10f1960e01b81526001600160a01b038a81166004830152602482018490529293509116906340c10f1990604401600060405180830381600087803b15801561133657600080fd5b505af115801561134a573d6000803e3d6000fd5b5050604080516001600160a01b038b168152602081018790529081018490527f4c209b5fc8ad50758f13e2e1088ba56a560dff690a1c6fef26394f4c03821c4f9250606001905060405180910390a1505060018055505050505050565b60008060ce60009054906101000a90046001600160a01b03166001600160a01b03166318160ddd6040518163ffffffff1660e01b815260040160206040518083038186803b1580156113f857600080fd5b505afa15801561140c573d6000803e3d6000fd5b505050506040513d601f19601f8201168201806040525081019061143091906139d9565b9050806114475750670de0b6b3a764000092915050565b806114518461227c565b61146390670de0b6b3a7640000613998565b61146d91906139b7565b9392505050565b6097546001600160a01b0316331480611497575060cd546001600160a01b031633145b6114d95760405162461bcd60e51b815260206004820152601360248201527227b7363c9037bbb732b91037b91030b236b4b760691b60448201526064016105b9565b6002600154141561152c5760405162461bcd60e51b815260206004820152601f60248201527f5265656e7472616e637947756172643a207265656e7472616e742063616c6c0060448201526064016105b9565b600260015580158015906115bc575060ce546040516370a0823160e01b81526001600160a01b038481166004830152909116906370a082319060240160206040518083038186803b15801561158057600080fd5b505afa158015611594573d6000803e3d6000fd5b505050506040513d601f19601f820116820180604052508101906115b891906139d9565b8111155b6115ff5760405162461bcd60e51b8152602060048201526014602482015273125b9d985b1a59081cda185c9948185b5bdd5b9d60621b60448201526064016105b9565b60ce5460405163079cc67960e41b81526001600160a01b03848116600483015260248201849052909116906379cc679090604401600060405180830381600087803b15801561164d57600080fd5b505af1158015611661573d6000803e3d6000fd5b5050604080516001600160a01b0386168152602081018590527fcc16f5dbb4873280815c1ee09dbd06736cffcc184412cf7a71a0fdb75d397ca5935001905060405180910390a1505060018055565b600081600010801561173e575060ce546040516370a0823160e01b81526001600160a01b038581166004830152909116906370a082319060240160206040518083038186803b15801561170257600080fd5b505afa158015611716573d6000803e3d6000fd5b505050506040513d601f19601f8201168201806040525081019061173a91906139d9565b8211155b6117815760405162461bcd60e51b8152602060048201526014602482015273125b9d985b1a59081cda185c9948185b5bdd5b9d60621b60448201526064016105b9565b60ce60009054906101000a90046001600160a01b03166001600160a01b03166318160ddd6040518163ffffffff1660e01b815260040160206040518083038186803b1580156117cf57600080fd5b505afa1580156117e3573d6000803e3d6000fd5b505050506040513d601f19601f8201168201806040525081019061180791906139d9565b61181983670de0b6b3a7640000613998565b61182391906139b7565b90505b92915050565b6000808061183c868801886139f2565b91509150600061185782846040516020016108b89190613a4b565b60d1549091506001600160a01b038083169116146118875760405162461bcd60e51b81526004016105b99061364b565b6118908361227c565b98975050505050505050565b60cb818154811061057e57600080fd5b6040805160048152602481018252602080820180516001600160e01b031663af05a74960e01b179052825160009181018290529092309260d0929091633f5a1e3360e21b9101610a38565b60cf5460405163b3596f0760e01b815273c7198437980c041c805a1edcba50c1ce5db95118600482015260009182916001600160a01b039091169063b3596f0790602401604080518083038186803b15801561195257600080fd5b505afa158015611966573d6000803e3d6000fd5b505050506040513d601f19601f8201168201806040525081019061198a9190613a57565b915091509091565b6097546001600160a01b031633146119bc5760405162461bcd60e51b81526004016105b990613483565b60d180546001600160a01b0319166001600160a01b0392909216919091179055565b60006119ea60016125c8565b90508015611a02576000805461ff0019166101001790555b611a0a612655565b60cd80546001600160a01b038087166001600160a01b03199283161790925560ce805486841690831617905560cf80549285169282169290921790915560c980546001818101835560897f66be4f155c5ef2ebd3772b228f2f00681e4ed5826cdb3b1943cc11ad15ad1d28928301558254808201845561a86a908301558254808201909355634e454152929091019190915560ca805480830182557f42d72674974f694b5f5159593243114d38a5c39c89d6b62fee061ff523240ee190810180548516730d500b1d8e8ef31e21c99d1db9a6444d3adf12701790558154808401835581018054851673b31f66aa3c1e785363f0875a1b74e27b85fd66c7179055815480840190925501805490921673c42c30ac6cc15fac9bd938618bcaa1a1fae8501d1790915560cb805480830182556000829052610fa07fa7ce836d032b2bf62b7e2097a8e0a6d8aeb35405ad15271e96d3b0188a1d06fb9182018190558254808501845582015581549283019091556107d0910155611b89612417565b60d0805460018101825560009190915260408051808201909152601680825275687474703a2f2f6c6f63616c686f73743a383030302f60501b6020909201918252611bf7927fe89d44c8fd6a9bac8af33ce47f56337617d449bf7ff3956b618c646de829cbcb019190612bf2565b5060d180546001600160a01b0319166001600160a01b03861617905580156110ae576000805461ff0019169055604051600181527f7f26b83ff96e1f2b6a682f133852f6798a09c465da95921460cefb38474024989060200160405180910390a150505050565b606080606080611c6f878787612684565b80519092506000805b82811015611cb957848181518110611c9257611c926134b8565b602002602001015182611ca59190613872565b915080611cb18161388a565b915050611c78565b50816001600160401b03811115611cd257611cd2612eeb565b604051908082528060200260200182016040528015611cfb578160200160208202803683370190505b50925060005b82811015611d94578115611d465781612710868381518110611d2557611d256134b8565b6020026020010151611d379190613998565b611d4191906139b7565b611d65565b60cb8181548110611d5957611d596134b8565b90600052602060002001545b848281518110611d7757611d776134b8565b602090810291909101015280611d8c8161388a565b915050611d01565b5060c960ca858583805480602002602001604051908101604052809291908181526020018280548015611de657602002820191906000526020600020905b815481526020019060010190808311611dd2575b5050505050935082805480602002602001604051908101604052809291908181526020018280548015611e4257602002820191906000526020600020905b81546001600160a01b03168152600190910190602001808311611e24575b505050505092509550955095509550505093509350935093565b6060806060600080611e6f898989611c5e565b935093505050600081519050600080611e866118f7565b90925090506000611e9882600a613989565b83611ea88c64e8d4a51000613998565b611eb29190613998565b611ebc91906139b7565b905060005b84811015611f0257868181518110611edb57611edb6134b8565b602002602001015182611eee9190613872565b915080611efa8161388a565b915050611ec1565b50600080856001600160401b03811115611f1e57611f1e612eeb565b604051908082528060200260200182016040528015611f47578160200160208202803683370190505b50905060005b8681101561201857600061271060cb8381548110611f6d57611f6d6134b8565b906000526020600020015486611f839190613998565b611f8d91906139b7565b9050808a8381518110611fa257611fa26134b8565b602002602001015110156120055760008a8381518110611fc457611fc46134b8565b602002602001015182611fd791906134e4565b905080848481518110611fec57611fec6134b8565b60209081029190910101526120018186613872565b9450505b50806120108161388a565b915050611f4d565b50856001600160401b0381111561203157612031612eeb565b60405190808252806020026020018201604052801561205a578160200160208202803683370190505b50985060005b868110156120c7578282828151811061207b5761207b6134b8565b60200260200101518e61208e9190613998565b61209891906139b7565b8a82815181106120aa576120aa6134b8565b6020908102919091010152806120bf8161388a565b915050612060565b5060c960ca8a8280548060200260200160405190810160405280929190818152602001828054801561211857602002820191906000526020600020905b815481526020019060010190808311612104575b505050505092508180548060200260200160405190810160405280929190818152602001828054801561217457602002820191906000526020600020905b81546001600160a01b03168152600190910190602001808311612156575b505050505091509a509a509a5050505050505050509450945094915050565b815181516000919081146121e25760405162461bcd60e51b815260206004820152601660248201527509cdee840dac2e8c6d040c2e4e4c2f240d8cadccee8d60531b60448201526064016105b9565b60006121ed8561227c565b9050806121ff57600092505050611826565b6000805b838110156122675786818151811061221d5761221d6134b8565b6020026020010151868281518110612237576122376134b8565b60200260200101516122499190613998565b6122539083613872565b91508061225f8161388a565b915050612203565b5061227282826139b7565b9695505050505050565b805160009081805b828110156122c55784818151811061229e5761229e6134b8565b6020026020010151826122b19190613872565b9150806122bd8161388a565b915050612284565b509392505050565b6040805160048152602481018252602080820180516001600160e01b0316630ece90e960e41b179052825160009181018290529092309260d09290916340b8e57f60e01b9101610a38565b6097546001600160a01b031633146123425760405162461bcd60e51b81526004016105b990613483565b6001600160a01b0381166123a75760405162461bcd60e51b815260206004820152602660248201527f4f776e61626c653a206e6577206f776e657220697320746865207a65726f206160448201526564647265737360d01b60648201526084016105b9565b6123b081612576565b50565b600080806123c3868801886139f2565b9150915060006123de82846040516020016108b89190613a4b565b60d1549091506001600160a01b0380831691161461240e5760405162461bcd60e51b81526004016105b99061364b565b611890836113a7565b600060c980548060200260200160405190810160405280929190818152602001828054801561246557602002820191906000526020600020905b815481526020019060010190808311612451575b50505050509050600060ca8054806020026020016040519081016040528092919081815260200182805480156124c457602002820191906000526020600020905b81546001600160a01b031681526001909101906020018083116124a6575b505083519394506000925050505b818110156110ae578060cc60008684815181106124f1576124f16134b8565b60200260200101518152602001908152602001600020600085848151811061251b5761251b6134b8565b60200260200101516001600160a01b03166001600160a01b031681526020019081526020016000208190555080806125529061388a565b9150506124d2565b60008060006125698585612814565b915091506122c581612884565b609780546001600160a01b038381166001600160a01b0319831681179093556040519116919082907f8be0079c531659141344cd1fd0a4f28419497f9722a3daafe3b4186f6b6457e090600090a35050565b60008054610100900460ff161561260f578160ff1660011480156125eb5750303b155b6126075760405162461bcd60e51b81526004016105b990613a8d565b506000919050565b60005460ff8084169116106126365760405162461bcd60e51b81526004016105b990613a8d565b506000805460ff191660ff92909216919091179055600190565b919050565b600054610100900460ff1661267c5760405162461bcd60e51b81526004016105b990613adb565b610e37612a3f565b815160ca5460609190806001600160401b038111156126a5576126a5612eeb565b6040519080825280602002602001820160405280156126ce578160200160208202803683370190505b50925060005b8281101561280a5760008782815181106126f0576126f06134b8565b60200260200101519050600087838151811061270e5761270e6134b8565b602090810291909101810151600084815260cc835260408082206001600160a01b0384168352909352919091205490915080851161274e575050506127f8565b801580156127af575060c960008154811061276b5761276b6134b8565b9060005260206000200154831415806127af575060ca600081548110612793576127936134b8565b6000918252602090912001546001600160a01b03838116911614155b156127bc575050506127f8565b8784815181106127ce576127ce6134b8565b60200260200101518782815181106127e8576127e86134b8565b6020026020010181815250505050505b806128028161388a565b9150506126d4565b5050509392505050565b60008082516041141561284b5760208301516040840151606085015160001a61283f87828585612a6f565b9450945050505061287d565b825160401415612875576020830151604084015161286a868383612b5c565b93509350505061287d565b506000905060025b9250929050565b600081600481111561289857612898613b26565b14156128a15750565b60018160048111156128b5576128b5613b26565b14156129035760405162461bcd60e51b815260206004820152601860248201527f45434453413a20696e76616c6964207369676e6174757265000000000000000060448201526064016105b9565b600281600481111561291757612917613b26565b14156129655760405162461bcd60e51b815260206004820152601f60248201527f45434453413a20696e76616c6964207369676e6174757265206c656e6774680060448201526064016105b9565b600381600481111561297957612979613b26565b14156129d25760405162461bcd60e51b815260206004820152602260248201527f45434453413a20696e76616c6964207369676e6174757265202773272076616c604482015261756560f01b60648201526084016105b9565b60048160048111156129e6576129e6613b26565b14156123b05760405162461bcd60e51b815260206004820152602260248201527f45434453413a20696e76616c6964207369676e6174757265202776272076616c604482015261756560f01b60648201526084016105b9565b600054610100900460ff16612a665760405162461bcd60e51b81526004016105b990613adb565b610e3733612576565b6000807f7fffffffffffffffffffffffffffffff5d576e7357a4501ddfe92f46681b20a0831115612aa65750600090506003612b53565b8460ff16601b14158015612abe57508460ff16601c14155b15612acf5750600090506004612b53565b6040805160008082526020820180845289905260ff881692820192909252606081018690526080810185905260019060a0016020604051602081039080840390855afa158015612b23573d6000803e3d6000fd5b5050604051601f1901519150506001600160a01b038116612b4c57600060019250925050612b53565b9150600090505b94509492505050565b6000806001600160ff1b03831681612b7960ff86901c601b613872565b9050612b8787828885612a6f565b935093505050935093915050565b828054828255906000526020600020908101928215612be2579160200282015b82811115612be25782518051612bd2918491602090910190612bf2565b5091602001919060010190612bb5565b50612bee929150612c72565b5090565b828054612bfe9061370a565b90600052602060002090601f016020900481019282612c205760008555612c66565b82601f10612c3957805160ff1916838001178555612c66565b82800160010185558215612c66579182015b82811115612c66578251825591602001919060010190612c4b565b50612bee929150612c8f565b80821115612bee576000612c868282612ca4565b50600101612c72565b5b80821115612bee5760008155600101612c90565b508054612cb09061370a565b6000825580601f10612cc0575050565b601f0160209004906000526020600020908101906123b09190612c8f565b600060208284031215612cf057600080fd5b5035919050565b80356001600160a01b038116811461265057600080fd5b60008060408385031215612d2157600080fd5b82359150612d3160208401612cf7565b90509250929050565b60008083601f840112612d4c57600080fd5b5081356001600160401b03811115612d6357600080fd5b60208301915083602082850101111561287d57600080fd5b60008060008060408587031215612d9157600080fd5b84356001600160401b0380821115612da857600080fd5b612db488838901612d3a565b90965094506020870135915080821115612dcd57600080fd5b50612dda87828801612d3a565b95989497509550505050565b600081518084526020808501945080840160005b83811015612e1657815187529582019590820190600101612dfa565b509495945050505050565b600081518084526020808501945080840160005b83811015612e165781516001600160a01b031687529582019590820190600101612e35565b608081526000612e6d6080830187612de6565b8281036020840152612e7f8187612e21565b90508281036040840152612e938186612de6565b90508281036060840152612ea78185612de6565b979650505050505050565b606081526000612ec56060830186612de6565b8281036020840152612ed78186612e21565b905082810360408401526122728185612de6565b634e487b7160e01b600052604160045260246000fd5b604051601f8201601f191681016001600160401b0381118282101715612f2957612f29612eeb565b604052919050565b60006001600160401b03821115612f4a57612f4a612eeb565b5060051b60200190565b60006001600160401b03831115612f6d57612f6d612eeb565b612f80601f8401601f1916602001612f01565b9050828152838383011115612f9457600080fd5b828260208301376000602084830101529392505050565b60006020808385031215612fbe57600080fd5b82356001600160401b0380821115612fd557600080fd5b818501915085601f830112612fe957600080fd5b8135612ffc612ff782612f31565b612f01565b81815260059190911b8301840190848101908883111561301b57600080fd5b8585015b83811015613068578035858111156130375760008081fd5b8601603f81018b136130495760008081fd5b61305a8b8983013560408401612f54565b84525091860191860161301f565b5098975050505050505050565b60006020828403121561308757600080fd5b61182382612cf7565b6000815180845260005b818110156130b65760208185018101518683018201520161309a565b818111156130c8576000602083870101525b50601f01601f19169290920160200192915050565b6020815260006118236020830184613090565b6000806020838503121561310357600080fd5b82356001600160401b038082111561311a57600080fd5b818501915085601f83011261312e57600080fd5b81358181111561313d57600080fd5b8660208260051b850101111561315257600080fd5b60209290920196919550909350505050565b60008060006060848603121561317957600080fd5b8335925061318960208501612cf7565b9150604084013590509250925092565b600082601f8301126131aa57600080fd5b813560206131ba612ff783612f31565b82815260059290921b840181019181810190868411156131d957600080fd5b8286015b848110156131f457803583529183019183016131dd565b509695505050505050565b60006020828403121561321157600080fd5b81356001600160401b0381111561322757600080fd5b61323384828501613199565b949350505050565b6000806040838503121561324e57600080fd5b61325783612cf7565b946020939093013593505050565b60008060006060848603121561327a57600080fd5b61328384612cf7565b925061329160208501612cf7565b915061329f60408501612cf7565b90509250925092565b600082601f8301126132b957600080fd5b813560206132c9612ff783612f31565b82815260059290921b840181019181810190868411156132e857600080fd5b8286015b848110156131f4576132fd81612cf7565b83529183019183016132ec565b60008060006060848603121561331f57600080fd5b83356001600160401b038082111561333657600080fd5b61334287838801613199565b9450602086013591508082111561335857600080fd5b613364878388016132a8565b9350604086013591508082111561337a57600080fd5b5061338786828701613199565b9150509250925092565b600080600080608085870312156133a757600080fd5b84356001600160401b03808211156133be57600080fd5b6133ca88838901613199565b955060208701359150808211156133e057600080fd5b6133ec888389016132a8565b9450604087013591508082111561340257600080fd5b5061340f87828801613199565b949793965093946060013593505050565b6000806040838503121561343357600080fd5b82356001600160401b038082111561344a57600080fd5b61345686838701613199565b9350602085013591508082111561346c57600080fd5b5061347985828601613199565b9150509250929050565b6020808252818101527f4f776e61626c653a2063616c6c6572206973206e6f7420746865206f776e6572604082015260600190565b634e487b7160e01b600052603260045260246000fd5b634e487b7160e01b600052601160045260246000fd5b6000828210156134f6576134f66134ce565b500390565b634e487b7160e01b600052603160045260246000fd5b600082601f83011261352257600080fd5b61182383833560208501612f54565b6000806000806080858703121561354757600080fd5b84356001600160401b038082111561355e57600080fd5b61356a88838901613199565b9550602087013591508082111561358057600080fd5b61358c888389016132a8565b945060408701359150808211156135a257600080fd5b6135ae88838901613199565b935060608701359150808211156135c457600080fd5b506135d187828801613511565b91505092959194509250565b80516000906020808401838315612e1657815187529582019590820190600101612dfa565b600061360e82866135dd565b8451602080870160005b8381101561363d5781516001600160a01b031685529382019390820190600101613618565b5050505061227281856135dd565b60208082526013908201527214da59db995c881a5cc81a5b98dbdc9c9958dd606a1b604082015260600190565b60008060006060848603121561368d57600080fd5b83356001600160401b03808211156136a457600080fd5b6136b087838801613199565b945060208601359150808211156136c657600080fd5b6136d287838801613199565b935060408601359150808211156136e857600080fd5b5061338786828701613511565b600061323361370483866135dd565b846135dd565b600181811c9082168061371e57607f821691505b6020821081141561373f57634e487b7160e01b600052602260045260246000fd5b50919050565b600060a0820160018060a01b0388168352602060a08185015281885480845260c08601915060c08160051b870101935060008a8152838120815b838110156138365788870360bf1901855281548390600181811c90808316806137a957607f831692505b8a83108114156137c757634e487b7160e01b88526022600452602488fd5b828c5260208c018180156137e257600181146137f35761381d565b60ff19861682528c8201965061381d565b6000898152602090208a5b8681101561381757815484820152908501908e016137fe565b83019750505b50949b505097890197949094019350505060010161377f565b505050505050828103604084015261384e8187613090565b6001600160e01b031986166060850152905082810360808401526118908185613090565b60008219821115613885576138856134ce565b500190565b600060001982141561389e5761389e6134ce565b5060010190565b600181815b808511156138e05781600019048211156138c6576138c66134ce565b808516156138d357918102915b93841c93908002906138aa565b509250929050565b6000826138f757506001611826565b8161390457506000611826565b816001811461391a576002811461392457613940565b6001915050611826565b60ff841115613935576139356134ce565b50506001821b611826565b5060208310610133831016604e8410600b8410161715613963575081810a611826565b61396d83836138a5565b8060001904821115613981576139816134ce565b029392505050565b600061182360ff8416836138e8565b60008160001904831182151516156139b2576139b26134ce565b500290565b6000826139d457634e487b7160e01b600052601260045260246000fd5b500490565b6000602082840312156139eb57600080fd5b5051919050565b60008060408385031215613a0557600080fd5b82356001600160401b0380821115613a1c57600080fd5b613a2886838701613199565b93506020850135915080821115613a3e57600080fd5b5061347985828601613511565b600061182382846135dd565b60008060408385031215613a6a57600080fd5b82519150602083015160ff81168114613a8257600080fd5b809150509250929050565b6020808252602e908201527f496e697469616c697a61626c653a20636f6e747261637420697320616c72656160408201526d191e481a5b9a5d1a585b1a5e995960921b606082015260800190565b6020808252602b908201527f496e697469616c697a61626c653a20636f6e7472616374206973206e6f74206960408201526a6e697469616c697a696e6760a81b606082015260800190565b634e487b7160e01b600052602160045260246000fdfea2646970667358221220c5afdabf9adf7c27756426e3d4e18d9ac4e044d7d37f766bc9b402e899687ebc64736f6c63430008090033",
  "devdoc": {
    "kind": "dev",
    "methods": {
      "burn(address,uint256)": {
        "details": "mint BNIs according to the deposited USDT",
        "params": {
          "_account": "account to which BNIs will be minted",
          "_share": "amount of BNI to be burnt"
        }
      },
      "getDepositTokenComposition(uint256[],address[],uint256[],uint256)": {
        "params": {
          "_USDTAmt": "amount of USDT with 6 decimals"
        },
        "returns": {
          "_0": "_USDTAmts amount of USDT should be deposited to each pools"
        }
      },
      "getUSDTPriceInUSD()": {
        "returns": {
          "_0": "the price of USDT in USD."
        }
      },
      "getWithdrawPerc(address,uint256)": {
        "params": {
          "_share": "amount of BNI to be withdrawn"
        },
        "returns": {
          "_sharePerc": "percentage of assets which should be withdrawn. It's 18 decimals"
        }
      },
      "mint(uint256,address,uint256)": {
        "details": "mint BNIs according to the deposited USDT",
        "params": {
          "_USDTAmt": "the deposited amount of USDT with 6 decimals",
          "_account": "account to which BNIs will be minted",
          "_pool": "total USD worth in all pools of BNI after deposited"
        }
      },
      "owner()": {
        "details": "Returns the address of the current owner."
      },
      "paused()": {
        "details": "Returns true if the contract is paused, and false otherwise."
      },
      "renounceOwnership()": {
        "details": "Leaves the contract without owner. It will not be possible to call `onlyOwner` functions anymore. Can only be called by the current owner. NOTE: Renouncing ownership will leave the contract without an owner, thereby removing any functionality that is only available to the owner."
      },
      "transferOwnership(address)": {
        "details": "Transfers ownership of the contract to a new account (`newOwner`). Can only be called by the current owner."
      }
    },
    "version": 1
  },
  "userdoc": {
    "kind": "user",
    "methods": {
      "addToken(uint256,address)": {
        "notice": "After this method called, setTokenCompositionTargetPerc should be called to adjust percentages."
      },
      "getAPR(uint256[],uint256[])": {
        "notice": "The length of array is based on network count. And the lengths should be same on the arraies."
      },
      "getAllPoolInUSD(uint256[])": {
        "notice": "The length of array is based on network count. And the lengths should be same on the arraies."
      },
      "getCurrentTokenCompositionPerc(uint256[],address[],uint256[])": {
        "notice": "The length of array is based on token count. And the lengths should be same on the arraies."
      },
      "getDepositTokenComposition(uint256[],address[],uint256[],uint256)": {
        "notice": "The length of array is based on token count. And the lengths should be same on the arraies."
      },
      "getPricePerFullShare(uint256[])": {
        "notice": "Can be used for calculate both user shares & APR"
      },
      "getWithdrawPerc(address,uint256)": {
        "notice": "The length of array is based on token count. And the lengths should be same on the arraies."
      },
      "removeToken(uint256)": {
        "notice": "After this method called, setTokenCompositionTargetPerc should be called to adjust percentages."
      },
      "setTokenCompositionTargetPerc(uint256[])": {
        "notice": "The length of array is based on token count."
      }
    },
    "version": 1
  },
  "storageLayout": {
    "storage": [
      {
        "astId": 130,
        "contract": "contracts/bni/BNIMinter.sol:BNIMinter",
        "label": "_initialized",
        "offset": 0,
        "slot": "0",
        "type": "t_uint8"
      },
      {
        "astId": 133,
        "contract": "contracts/bni/BNIMinter.sol:BNIMinter",
        "label": "_initializing",
        "offset": 1,
        "slot": "0",
        "type": "t_bool"
      },
      {
        "astId": 390,
        "contract": "contracts/bni/BNIMinter.sol:BNIMinter",
        "label": "_status",
        "offset": 0,
        "slot": "1",
        "type": "t_uint256"
      },
      {
        "astId": 434,
        "contract": "contracts/bni/BNIMinter.sol:BNIMinter",
        "label": "__gap",
        "offset": 0,
        "slot": "2",
        "type": "t_array(t_uint256)49_storage"
      },
      {
        "astId": 1657,
        "contract": "contracts/bni/BNIMinter.sol:BNIMinter",
        "label": "__gap",
        "offset": 0,
        "slot": "51",
        "type": "t_array(t_uint256)50_storage"
      },
      {
        "astId": 286,
        "contract": "contracts/bni/BNIMinter.sol:BNIMinter",
        "label": "_paused",
        "offset": 0,
        "slot": "101",
        "type": "t_bool"
      },
      {
        "astId": 375,
        "contract": "contracts/bni/BNIMinter.sol:BNIMinter",
        "label": "__gap",
        "offset": 0,
        "slot": "102",
        "type": "t_array(t_uint256)49_storage"
      },
      {
        "astId": 10,
        "contract": "contracts/bni/BNIMinter.sol:BNIMinter",
        "label": "_owner",
        "offset": 0,
        "slot": "151",
        "type": "t_address"
      },
      {
        "astId": 122,
        "contract": "contracts/bni/BNIMinter.sol:BNIMinter",
        "label": "__gap",
        "offset": 0,
        "slot": "152",
        "type": "t_array(t_uint256)49_storage"
      },
      {
        "astId": 2504,
        "contract": "contracts/bni/BNIMinter.sol:BNIMinter",
        "label": "chainIDs",
        "offset": 0,
        "slot": "201",
        "type": "t_array(t_uint256)dyn_storage"
      },
      {
        "astId": 2507,
        "contract": "contracts/bni/BNIMinter.sol:BNIMinter",
        "label": "tokens",
        "offset": 0,
        "slot": "202",
        "type": "t_array(t_address)dyn_storage"
      },
      {
        "astId": 2510,
        "contract": "contracts/bni/BNIMinter.sol:BNIMinter",
        "label": "targetPercentages",
        "offset": 0,
        "slot": "203",
        "type": "t_array(t_uint256)dyn_storage"
      },
      {
        "astId": 2516,
        "contract": "contracts/bni/BNIMinter.sol:BNIMinter",
        "label": "tid",
        "offset": 0,
        "slot": "204",
        "type": "t_mapping(t_uint256,t_mapping(t_address,t_uint256))"
      },
      {
        "astId": 2518,
        "contract": "contracts/bni/BNIMinter.sol:BNIMinter",
        "label": "admin",
        "offset": 0,
        "slot": "205",
        "type": "t_address"
      },
      {
        "astId": 2521,
        "contract": "contracts/bni/BNIMinter.sol:BNIMinter",
        "label": "BNI",
        "offset": 0,
        "slot": "206",
        "type": "t_contract(IBNI)2420"
      },
      {
        "astId": 2524,
        "contract": "contracts/bni/BNIMinter.sol:BNIMinter",
        "label": "priceOracle",
        "offset": 0,
        "slot": "207",
        "type": "t_contract(IPriceOracle)8708"
      },
      {
        "astId": 2527,
        "contract": "contracts/bni/BNIMinter.sol:BNIMinter",
        "label": "urls",
        "offset": 0,
        "slot": "208",
        "type": "t_array(t_string_storage)dyn_storage"
      },
      {
        "astId": 2529,
        "contract": "contracts/bni/BNIMinter.sol:BNIMinter",
        "label": "gatewaySigner",
        "offset": 0,
        "slot": "209",
        "type": "t_address"
      }
    ],
    "types": {
      "t_address": {
        "encoding": "inplace",
        "label": "address",
        "numberOfBytes": "20"
      },
      "t_array(t_address)dyn_storage": {
        "base": "t_address",
        "encoding": "dynamic_array",
        "label": "address[]",
        "numberOfBytes": "32"
      },
      "t_array(t_string_storage)dyn_storage": {
        "base": "t_string_storage",
        "encoding": "dynamic_array",
        "label": "string[]",
        "numberOfBytes": "32"
      },
      "t_array(t_uint256)49_storage": {
        "base": "t_uint256",
        "encoding": "inplace",
        "label": "uint256[49]",
        "numberOfBytes": "1568"
      },
      "t_array(t_uint256)50_storage": {
        "base": "t_uint256",
        "encoding": "inplace",
        "label": "uint256[50]",
        "numberOfBytes": "1600"
      },
      "t_array(t_uint256)dyn_storage": {
        "base": "t_uint256",
        "encoding": "dynamic_array",
        "label": "uint256[]",
        "numberOfBytes": "32"
      },
      "t_bool": {
        "encoding": "inplace",
        "label": "bool",
        "numberOfBytes": "1"
      },
      "t_contract(IBNI)2420": {
        "encoding": "inplace",
        "label": "contract IBNI",
        "numberOfBytes": "20"
      },
      "t_contract(IPriceOracle)8708": {
        "encoding": "inplace",
        "label": "contract IPriceOracle",
        "numberOfBytes": "20"
      },
      "t_mapping(t_address,t_uint256)": {
        "encoding": "mapping",
        "key": "t_address",
        "label": "mapping(address => uint256)",
        "numberOfBytes": "32",
        "value": "t_uint256"
      },
      "t_mapping(t_uint256,t_mapping(t_address,t_uint256))": {
        "encoding": "mapping",
        "key": "t_uint256",
        "label": "mapping(uint256 => mapping(address => uint256))",
        "numberOfBytes": "32",
        "value": "t_mapping(t_address,t_uint256)"
      },
      "t_string_storage": {
        "encoding": "bytes",
        "label": "string",
        "numberOfBytes": "32"
      },
      "t_uint256": {
        "encoding": "inplace",
        "label": "uint256",
        "numberOfBytes": "32"
      },
      "t_uint8": {
        "encoding": "inplace",
        "label": "uint8",
        "numberOfBytes": "1"
      }
    }
  }
}