{
  "address": "0x853F5d3c3850bD422FEB38D774827B609b4Cc84e",
  "abi": [
    {
      "anonymous": false,
      "inputs": [
        {
          "indexed": false,
          "internalType": "uint256",
          "name": "WBTCTargetPool",
          "type": "uint256"
        },
        {
          "indexed": false,
          "internalType": "uint256",
          "name": "WETHTargetPool",
          "type": "uint256"
        },
        {
          "indexed": false,
          "internalType": "uint256",
          "name": "WAVAXCurrentPool",
          "type": "uint256"
        },
        {
          "indexed": false,
          "internalType": "uint256",
          "name": "USDTCurrentPool",
          "type": "uint256"
        }
      ],
      "name": "CurrentComposition",
      "type": "event"
    },
    {
      "anonymous": false,
      "inputs": [
        {
          "indexed": false,
          "internalType": "uint256",
          "name": "USDTAmt",
          "type": "uint256"
        }
      ],
      "name": "EmergencyWithdraw",
      "type": "event"
    },
    {
      "anonymous": false,
      "inputs": [
        {
          "indexed": false,
          "internalType": "uint8",
          "name": "version",
          "type": "uint8"
        }
      ],
      "name": "Initialized",
      "type": "event"
    },
    {
      "anonymous": false,
      "inputs": [
        {
          "indexed": false,
          "internalType": "uint256",
          "name": "USDTAmt",
          "type": "uint256"
        },
        {
          "indexed": false,
          "internalType": "uint256",
          "name": "USDtAmt",
          "type": "uint256"
        }
      ],
      "name": "InvestUSDT",
      "type": "event"
    },
    {
      "anonymous": false,
      "inputs": [
        {
          "indexed": false,
          "internalType": "uint256",
          "name": "USDTAmt",
          "type": "uint256"
        },
        {
          "indexed": false,
          "internalType": "uint256",
          "name": "WAVAXAmt",
          "type": "uint256"
        }
      ],
      "name": "InvestWAVAX",
      "type": "event"
    },
    {
      "anonymous": false,
      "inputs": [
        {
          "indexed": false,
          "internalType": "uint256",
          "name": "USDTAmt",
          "type": "uint256"
        },
        {
          "indexed": false,
          "internalType": "uint256",
          "name": "WBTCAmt",
          "type": "uint256"
        }
      ],
      "name": "InvestWBTC",
      "type": "event"
    },
    {
      "anonymous": false,
      "inputs": [
        {
          "indexed": false,
          "internalType": "uint256",
          "name": "USDTAmt",
          "type": "uint256"
        },
        {
          "indexed": false,
          "internalType": "uint256",
          "name": "WETHAmt",
          "type": "uint256"
        }
      ],
      "name": "InvestWETH",
      "type": "event"
    },
    {
      "anonymous": false,
      "inputs": [
        {
          "indexed": true,
          "internalType": "address",
          "name": "previousOwner",
          "type": "address"
        },
        {
          "indexed": true,
          "internalType": "address",
          "name": "newOwner",
          "type": "address"
        }
      ],
      "name": "OwnershipTransferred",
      "type": "event"
    },
    {
      "anonymous": false,
      "inputs": [
        {
          "indexed": false,
          "internalType": "uint256",
          "name": "WBTCTargetPool",
          "type": "uint256"
        },
        {
          "indexed": false,
          "internalType": "uint256",
          "name": "WETHTargetPool",
          "type": "uint256"
        },
        {
          "indexed": false,
          "internalType": "uint256",
          "name": "WAVAXTargetPool",
          "type": "uint256"
        },
        {
          "indexed": false,
          "internalType": "uint256",
          "name": "USDTTargetPool",
          "type": "uint256"
        }
      ],
      "name": "TargetComposition",
      "type": "event"
    },
    {
      "anonymous": false,
      "inputs": [
        {
          "indexed": false,
          "internalType": "uint256",
          "name": "sharePerc",
          "type": "uint256"
        },
        {
          "indexed": false,
          "internalType": "uint256",
          "name": "USDTAmt",
          "type": "uint256"
        }
      ],
      "name": "Withdraw",
      "type": "event"
    },
    {
      "anonymous": false,
      "inputs": [
        {
          "indexed": false,
          "internalType": "uint256",
          "name": "USDtAmt",
          "type": "uint256"
        },
        {
          "indexed": false,
          "internalType": "uint256",
          "name": "USDTAmt",
          "type": "uint256"
        }
      ],
      "name": "WithdrawUSDT",
      "type": "event"
    },
    {
      "anonymous": false,
      "inputs": [
        {
          "indexed": false,
          "internalType": "uint256",
          "name": "WAVAXAmt",
          "type": "uint256"
        },
        {
          "indexed": false,
          "internalType": "uint256",
          "name": "USDTAmt",
          "type": "uint256"
        }
      ],
      "name": "WithdrawWAVAX",
      "type": "event"
    },
    {
      "anonymous": false,
      "inputs": [
        {
          "indexed": false,
          "internalType": "uint256",
          "name": "WBTCAmt",
          "type": "uint256"
        },
        {
          "indexed": false,
          "internalType": "uint256",
          "name": "USDTAmt",
          "type": "uint256"
        }
      ],
      "name": "WithdrawWBTC",
      "type": "event"
    },
    {
      "anonymous": false,
      "inputs": [
        {
          "indexed": false,
          "internalType": "uint256",
          "name": "WETHAmt",
          "type": "uint256"
        },
        {
          "indexed": false,
          "internalType": "uint256",
          "name": "USDTAmt",
          "type": "uint256"
        }
      ],
      "name": "WithdrawWETH",
      "type": "event"
    },
    {
      "inputs": [],
      "name": "JoeRouter",
      "outputs": [
        {
          "internalType": "contract IRouter",
          "name": "",
          "type": "address"
        }
      ],
      "stateMutability": "view",
      "type": "function"
    },
    {
      "inputs": [],
      "name": "USDT",
      "outputs": [
        {
          "internalType": "contract IERC20Upgradeable",
          "name": "",
          "type": "address"
        }
      ],
      "stateMutability": "view",
      "type": "function"
    },
    {
      "inputs": [],
      "name": "USDTVault",
      "outputs": [
        {
          "internalType": "contract IL2Vault",
          "name": "",
          "type": "address"
        }
      ],
      "stateMutability": "view",
      "type": "function"
    },
    {
      "inputs": [],
      "name": "USDt",
      "outputs": [
        {
          "internalType": "contract IERC20Upgradeable",
          "name": "",
          "type": "address"
        }
      ],
      "stateMutability": "view",
      "type": "function"
    },
    {
      "inputs": [],
      "name": "WAVAX",
      "outputs": [
        {
          "internalType": "contract IERC20Upgradeable",
          "name": "",
          "type": "address"
        }
      ],
      "stateMutability": "view",
      "type": "function"
    },
    {
      "inputs": [],
      "name": "WAVAXVault",
      "outputs": [
        {
          "internalType": "contract IL2Vault",
          "name": "",
          "type": "address"
        }
      ],
      "stateMutability": "view",
      "type": "function"
    },
    {
      "inputs": [],
      "name": "WBTC",
      "outputs": [
        {
          "internalType": "contract IERC20Upgradeable",
          "name": "",
          "type": "address"
        }
      ],
      "stateMutability": "view",
      "type": "function"
    },
    {
      "inputs": [],
      "name": "WBTCVault",
      "outputs": [
        {
          "internalType": "contract IL2Vault",
          "name": "",
          "type": "address"
        }
      ],
      "stateMutability": "view",
      "type": "function"
    },
    {
      "inputs": [],
      "name": "WETH",
      "outputs": [
        {
          "internalType": "contract IERC20Upgradeable",
          "name": "",
          "type": "address"
        }
      ],
      "stateMutability": "view",
      "type": "function"
    },
    {
      "inputs": [],
      "name": "WETHVault",
      "outputs": [
        {
          "internalType": "contract IL2Vault",
          "name": "",
          "type": "address"
        }
      ],
      "stateMutability": "view",
      "type": "function"
    },
    {
      "inputs": [],
      "name": "emergencyWithdraw",
      "outputs": [],
      "stateMutability": "nonpayable",
      "type": "function"
    },
    {
      "inputs": [],
      "name": "getAPR",
      "outputs": [
        {
          "internalType": "uint256",
          "name": "",
          "type": "uint256"
        }
      ],
      "stateMutability": "view",
      "type": "function"
    },
    {
      "inputs": [],
      "name": "getAllPoolInUSD",
      "outputs": [
        {
          "internalType": "uint256",
          "name": "",
          "type": "uint256"
        }
      ],
      "stateMutability": "view",
      "type": "function"
    },
    {
      "inputs": [],
      "name": "getCurrentTokenCompositionPerc",
      "outputs": [
        {
          "internalType": "address[]",
          "name": "tokens",
          "type": "address[]"
        },
        {
          "internalType": "uint256[]",
          "name": "percentages",
          "type": "uint256[]"
        }
      ],
      "stateMutability": "view",
      "type": "function"
    },
    {
      "inputs": [
        {
          "internalType": "contract IL2Vault",
          "name": "_WBTCVault",
          "type": "address"
        },
        {
          "internalType": "contract IL2Vault",
          "name": "_WETHVault",
          "type": "address"
        },
        {
          "internalType": "contract IL2Vault",
          "name": "_WAVAXVault",
          "type": "address"
        },
        {
          "internalType": "contract IL2Vault",
          "name": "_USDTVault",
          "type": "address"
        }
      ],
      "name": "initialize",
      "outputs": [],
      "stateMutability": "nonpayable",
      "type": "function"
    },
    {
      "inputs": [
        {
          "internalType": "uint256",
          "name": "USDTAmt",
          "type": "uint256"
        }
      ],
      "name": "invest",
      "outputs": [],
      "stateMutability": "nonpayable",
      "type": "function"
    },
    {
      "inputs": [],
      "name": "owner",
      "outputs": [
        {
          "internalType": "address",
          "name": "",
          "type": "address"
        }
      ],
      "stateMutability": "view",
      "type": "function"
    },
    {
      "inputs": [],
      "name": "renounceOwnership",
      "outputs": [],
      "stateMutability": "nonpayable",
      "type": "function"
    },
    {
      "inputs": [
        {
          "internalType": "uint256[]",
          "name": "_targetPerc",
          "type": "uint256[]"
        }
      ],
      "name": "setTokenCompositionTargetPerc",
      "outputs": [],
      "stateMutability": "nonpayable",
      "type": "function"
    },
    {
      "inputs": [
        {
          "internalType": "address",
          "name": "_vault",
          "type": "address"
        }
      ],
      "name": "setVault",
      "outputs": [],
      "stateMutability": "nonpayable",
      "type": "function"
    },
    {
      "inputs": [
        {
          "internalType": "uint256",
          "name": "",
          "type": "uint256"
        }
      ],
      "name": "targetPercentages",
      "outputs": [
        {
          "internalType": "uint256",
          "name": "",
          "type": "uint256"
        }
      ],
      "stateMutability": "view",
      "type": "function"
    },
    {
      "inputs": [
        {
          "internalType": "address",
          "name": "newOwner",
          "type": "address"
        }
      ],
      "name": "transferOwnership",
      "outputs": [],
      "stateMutability": "nonpayable",
      "type": "function"
    },
    {
      "inputs": [],
      "name": "vault",
      "outputs": [
        {
          "internalType": "address",
          "name": "",
          "type": "address"
        }
      ],
      "stateMutability": "view",
      "type": "function"
    },
    {
      "inputs": [
        {
          "internalType": "uint256",
          "name": "farmIndex",
          "type": "uint256"
        },
        {
          "internalType": "uint256",
          "name": "sharePerc",
          "type": "uint256"
        }
      ],
      "name": "withdrawFromFarm",
      "outputs": [
        {
          "internalType": "uint256",
          "name": "USDTAmt",
          "type": "uint256"
        }
      ],
      "stateMutability": "nonpayable",
      "type": "function"
    },
    {
      "inputs": [
        {
          "internalType": "uint256",
          "name": "sharePerc",
          "type": "uint256"
        }
      ],
      "name": "withdrawPerc",
      "outputs": [
        {
          "internalType": "uint256",
          "name": "USDTAmt",
          "type": "uint256"
        }
      ],
      "stateMutability": "nonpayable",
      "type": "function"
    }
  ],
  "transactionHash": "0xe951b96eafe094c4537f56db278759631c3e87963e9044627dbef975b99687f0",
  "args": [],
  "numDeployments": 1,
  "solcInputHash": "193be678b50e19b63a4c1742147ab0d4",
  "bytecode": "0x608060405234801561001057600080fd5b50613bff806100206000396000f3fe608060405234801561001057600080fd5b50600436106101735760003560e01c8063a7645a20116100de578063db2e21bc11610097578063eede27b611610071578063eede27b61461032b578063f2fde38b14610346578063f8c8765e14610359578063fbfa77cf1461036c57600080fd5b8063db2e21bc146102fd578063e8e3318b14610305578063ed47d9091461031857600080fd5b8063a7645a201461028f578063ad5c4648146102a2578063bd244af4146102bd578063c12f857f146102c5578063c54e44eb146102e0578063c89d5b8b146102f557600080fd5b80636817031b116101305780636817031b146102145780636e21950f14610227578063715018a61461024857806373b295c2146102505780637fb2df421461026b5780638da5cb5b1461027e57600080fd5b80630b450cb81461017857806326abc068146101a85780632afcf480146101bb5780633acf3654146101d05780634631b246146101e35780634dede3de146101f9575b600080fd5b60655461018b906001600160a01b031681565b6040516001600160a01b0390911681526020015b60405180910390f35b60685461018b906001600160a01b031681565b6101ce6101c9366004613661565b61037f565b005b60675461018b906001600160a01b031681565b6101eb610948565b60405161019f9291906136be565b61018b7350b7545627a5162f82a992c33b87adc75187b21881565b6101ce61022236600461372a565b610be7565b61023a610235366004613747565b610c78565b60405190815260200161019f565b6101ce610dfc565b61018b73b31f66aa3c1e785363f0875a1b74e27b85fd66c781565b6101ce610279366004613769565b610e32565b6033546001600160a01b031661018b565b61023a61029d366004613661565b610f67565b61018b7349d5c2bdffac6ce2bfdb6640f4f80f226bc10bab81565b61023a610f88565b61018b7360ae616a2155ee3d9a68541ba4544862310933d481565b61018b600080516020613baa83398151915281565b61023a611025565b6101ce611314565b60665461018b906001600160a01b031681565b61023a610326366004613661565b611485565b61018b739702230a8ea53601f5cd2dc00fdbc13d4df4a8c781565b6101ce61035436600461372a565b6116aa565b6101ce6103673660046137de565b611745565b606a5461018b906001600160a01b031681565b606a546001600160a01b031633146103b25760405162461bcd60e51b81526004016103a99061383a565b60405180910390fd5b606a546103d990600080516020613baa833981519152906001600160a01b03163084611a26565b6040516370a0823160e01b8152306004820152600080516020613baa833981519152906370a082319060240160206040518083038186803b15801561041d57600080fd5b505afa158015610431573d6000803e3d6000fd5b505050506040513d601f19601f82011682018060405250810190610455919061385e565b90506000610470600080516020613baa833981519152611a91565b9050600061047c611b90565b9050600061048a838561388d565b6104969061271061388d565b826003815181106104a9576104a96138ac565b6020026020010151836002815181106104c4576104c46138ac565b6020026020010151846001815181106104df576104df6138ac565b6020026020010151856000815181106104fa576104fa6138ac565b602002602001015161050c91906138c2565b61051691906138c2565b61052091906138c2565b61052a91906138c2565b60408051600480825260a0820190925291925060009182916020820160808036833701905050905060005b600481101561062157600061271060698381548110610576576105766138ac565b90600052602060002001548661058c919061388d565b61059691906138f0565b9050808683815181106105ab576105ab6138ac565b6020026020010151101561060e5760008683815181106105cd576105cd6138ac565b6020026020010151826105e09190613912565b9050808484815181106105f5576105f56138ac565b602090810291909101015261060a81866138c2565b9450505b508061061981613929565b915050610555565b5060408051600480825260a082019092526000916020820160808036833701905050905060005b60048110156106b05783838281518110610664576106646138ac565b602002602001015189610677919061388d565b61068191906138f0565b828281518110610693576106936138ac565b6020908102919091010152806106a881613929565b915050610648565b506000816000815181106106c6576106c66138ac565b602002602001015111156106f8576106f8816000815181106106ea576106ea6138ac565b602002602001015187611c52565b60008160018151811061070d5761070d6138ac565b6020026020010151111561073f5761073f81600181518110610731576107316138ac565b602002602001015187611d73565b600081600281518110610754576107546138ac565b602002602001015111156107865761078681600281518110610778576107786138ac565b602002602001015187611e89565b60008160038151811061079b5761079b6138ac565b602002602001015111156107cc576107cc816003815181106107bf576107bf6138ac565b6020026020010151611fae565b7f39ea5dcef6ffe8954c9fcb7a40f4900d7de325b4f487111c7b6cedd8e235fcea85600081518110610800576108006138ac565b60200260200101518660018151811061081b5761081b6138ac565b602002602001015187600281518110610836576108366138ac565b602002602001015188600381518110610851576108516138ac565b6020908102919091018101516040805195865291850193909352830152606082015260800160405180910390a17f8bcc13af583b71350079d8dac925b69156723f068f9647dd8151ff95f3da5f5d60696000815481106108b3576108b36138ac565b906000526020600020015460696001815481106108d2576108d26138ac565b906000526020600020015460696002815481106108f1576108f16138ac565b90600052602060002001546069600381548110610910576109106138ac565b60009182526020918290200154604080519586529185019390935283015260608201526080015b60405180910390a150505050505050565b60408051600480825260a08201909252606091829190602082016080803683370190505091507350b7545627a5162f82a992c33b87adc75187b21882600081518110610996576109966138ac565b60200260200101906001600160a01b031690816001600160a01b0316815250507349d5c2bdffac6ce2bfdb6640f4f80f226bc10bab826001815181106109de576109de6138ac565b60200260200101906001600160a01b031690816001600160a01b03168152505073b31f66aa3c1e785363f0875a1b74e27b85fd66c782600281518110610a2657610a266138ac565b60200260200101906001600160a01b031690816001600160a01b031681525050739702230a8ea53601f5cd2dc00fdbc13d4df4a8c782600381518110610a6e57610a6e6138ac565b60200260200101906001600160a01b031690816001600160a01b0316815250506000610a98611b90565b9050600081600381518110610aaf57610aaf6138ac565b602002602001015182600281518110610aca57610aca6138ac565b602002602001015183600181518110610ae557610ae56138ac565b602002602001015184600081518110610b0057610b006138ac565b6020026020010151610b1291906138c2565b610b1c91906138c2565b610b2691906138c2565b60408051600480825260a082019092529192506020820160808036833701905050925060005b6004811015610be0578115610b925781612710848381518110610b7157610b716138ac565b6020026020010151610b83919061388d565b610b8d91906138f0565b610bb1565b60698181548110610ba557610ba56138ac565b90600052602060002001545b848281518110610bc357610bc36138ac565b602090810291909101015280610bd881613929565b915050610b4c565b5050509091565b6033546001600160a01b03163314610c115760405162461bcd60e51b81526004016103a990613944565b606a546001600160a01b031615610c565760405162461bcd60e51b815260206004820152600960248201526815985d5b1d081cd95d60ba1b60448201526064016103a9565b606a80546001600160a01b0319166001600160a01b0392909216919091179055565b606a546000906001600160a01b03163314610ca55760405162461bcd60e51b81526004016103a99061383a565b670de0b6b3a7640000821115610ce95760405162461bcd60e51b81526020600482015260096024820152684f766572203130302560b81b60448201526064016103a9565b6000610d02600080516020613baa833981519152611a91565b905083610d1857610d13838261207b565b610d50565b8360011415610d2b57610d1383826122bd565b8360021415610d3e57610d1383826124fe565b8360031415610d5057610d508361273f565b6040516370a0823160e01b8152306004820152600080516020613baa833981519152906370a082319060240160206040518083038186803b158015610d9457600080fd5b505afa158015610da8573d6000803e3d6000fd5b505050506040513d601f19601f82011682018060405250810190610dcc919061385e565b606a54909250610df590600080516020613baa833981519152906001600160a01b031684612942565b5092915050565b6033546001600160a01b03163314610e265760405162461bcd60e51b81526004016103a990613944565b610e306000612972565b565b6033546001600160a01b03163314610e5c5760405162461bcd60e51b81526004016103a990613944565b60695481908114610e9f5760405162461bcd60e51b815260206004820152600d60248201526c125b9d985b1a590818dbdd5b9d609a1b60448201526064016103a9565b6000805b82811015610f1b57848482818110610ebd57610ebd6138ac565b9050602002013560698281548110610ed757610ed76138ac565b600091825260209091200155848482818110610ef557610ef56138ac565b9050602002013582610f0791906138c2565b915080610f1381613929565b915050610ea3565b506127108114610f615760405162461bcd60e51b815260206004820152601160248201527024b73b30b634b2103830b930b6b2ba32b960791b60448201526064016103a9565b50505050565b60698181548110610f7757600080fd5b600091825260209091200154905081565b600080610f93611b90565b905080600381518110610fa857610fa86138ac565b602002602001015181600281518110610fc357610fc36138ac565b602002602001015182600181518110610fde57610fde6138ac565b602002602001015183600081518110610ff957610ff96138ac565b602002602001015161100b91906138c2565b61101591906138c2565b61101f91906138c2565b91505090565b600080611030610948565b915050600081600381518110611048576110486138ac565b6020026020010151606860009054906101000a90046001600160a01b03166001600160a01b031663c89d5b8b6040518163ffffffff1660e01b815260040160206040518083038186803b15801561109e57600080fd5b505afa1580156110b2573d6000803e3d6000fd5b505050506040513d601f19601f820116820180604052508101906110d6919061385e565b6110e0919061388d565b826002815181106110f3576110f36138ac565b6020026020010151606760009054906101000a90046001600160a01b03166001600160a01b031663c89d5b8b6040518163ffffffff1660e01b815260040160206040518083038186803b15801561114957600080fd5b505afa15801561115d573d6000803e3d6000fd5b505050506040513d601f19601f82011682018060405250810190611181919061385e565b61118b919061388d565b8360018151811061119e5761119e6138ac565b6020026020010151606660009054906101000a90046001600160a01b03166001600160a01b031663c89d5b8b6040518163ffffffff1660e01b815260040160206040518083038186803b1580156111f457600080fd5b505afa158015611208573d6000803e3d6000fd5b505050506040513d601f19601f8201168201806040525081019061122c919061385e565b611236919061388d565b84600081518110611249576112496138ac565b6020026020010151606560009054906101000a90046001600160a01b03166001600160a01b031663c89d5b8b6040518163ffffffff1660e01b815260040160206040518083038186803b15801561129f57600080fd5b505afa1580156112b3573d6000803e3d6000fd5b505050506040513d601f19601f820116820180604052508101906112d7919061385e565b6112e1919061388d565b6112eb91906138c2565b6112f591906138c2565b6112ff91906138c2565b905061130d612710826138f0565b9250505090565b606a546001600160a01b0316331461133e5760405162461bcd60e51b81526004016103a99061383a565b6000611357600080516020613baa833981519152611a91565b905061136b670de0b6b3a76400008261207b565b61137d670de0b6b3a7640000826122bd565b61138f670de0b6b3a7640000826124fe565b6113a0670de0b6b3a764000061273f565b6040516370a0823160e01b8152306004820152600090600080516020613baa833981519152906370a082319060240160206040518083038186803b1580156113e757600080fd5b505afa1580156113fb573d6000803e3d6000fd5b505050506040513d601f19601f8201168201806040525081019061141f919061385e565b9050801561144d57606a5461144d90600080516020613baa833981519152906001600160a01b031683612942565b6040518181527f99d7f8b71cfb9126984f7a5eed3a40e64a8959e9b0e442221546fb04ec6a489c906020015b60405180910390a15050565b606a546000906001600160a01b031633146114b25760405162461bcd60e51b81526004016103a99061383a565b670de0b6b3a76400008211156114f65760405162461bcd60e51b81526020600482015260096024820152684f766572203130302560b81b60448201526064016103a9565b6040516370a0823160e01b8152306004820152600090600080516020613baa833981519152906370a082319060240160206040518083038186803b15801561153d57600080fd5b505afa158015611551573d6000803e3d6000fd5b505050506040513d601f19601f82011682018060405250810190611575919061385e565b90506000611590600080516020613baa833981519152611a91565b905061159c848261207b565b6115a684826122bd565b6115b084826124fe565b6115b98461273f565b6040516370a0823160e01b81523060048201528290600080516020613baa833981519152906370a082319060240160206040518083038186803b1580156115ff57600080fd5b505afa158015611613573d6000803e3d6000fd5b505050506040513d601f19601f82011682018060405250810190611637919061385e565b6116419190613912565b606a5490935061166a90600080516020613baa833981519152906001600160a01b031685612942565b60408051858152602081018590527f56ca301a9219608c91e7bcee90e083c19671d2cdcc96752c7af291cee5f9c8c8910160405180910390a15050919050565b6033546001600160a01b031633146116d45760405162461bcd60e51b81526004016103a990613944565b6001600160a01b0381166117395760405162461bcd60e51b815260206004820152602660248201527f4f776e61626c653a206e6577206f776e657220697320746865207a65726f206160448201526564647265737360d01b60648201526084016103a9565b61174281612972565b50565b600061175160016129c4565b90508015611769576000805461ff0019166101001790555b611771612a4c565b606980546001818101835560008390526111947f7fb4302e8e91f9110a6554c2c0a24601252c2a42c2220ca988efcfe3999143089283015582548082018455610dac90830155825480820184556105dc9083015582549081019092556101f4910155606580546001600160a01b038088166001600160a01b0319928316179092556066805487841690831617905560678054868416908316179055606880549285169290911691909117905561184c600080516020613baa8339815191527360ae616a2155ee3d9a68541ba4544862310933d4600019612a7b565b6118817350b7545627a5162f82a992c33b87adc75187b2187360ae616a2155ee3d9a68541ba4544862310933d4600019612a7b565b6118b67349d5c2bdffac6ce2bfdb6640f4f80f226bc10bab7360ae616a2155ee3d9a68541ba4544862310933d4600019612a7b565b6118eb73b31f66aa3c1e785363f0875a1b74e27b85fd66c77360ae616a2155ee3d9a68541ba4544862310933d4600019612a7b565b611920739702230a8ea53601f5cd2dc00fdbc13d4df4a8c77360ae616a2155ee3d9a68541ba4544862310933d4600019612a7b565b60655461194e907350b7545627a5162f82a992c33b87adc75187b218906001600160a01b0316600019612a7b565b60665461197c907349d5c2bdffac6ce2bfdb6640f4f80f226bc10bab906001600160a01b0316600019612a7b565b6067546119aa9073b31f66aa3c1e785363f0875a1b74e27b85fd66c7906001600160a01b0316600019612a7b565b6068546119d890739702230a8ea53601f5cd2dc00fdbc13d4df4a8c7906001600160a01b0316600019612a7b565b8015611a1f576000805461ff0019169055604051600181527f7f26b83ff96e1f2b6a682f133852f6798a09c465da95921460cefb3847402498906020015b60405180910390a15b5050505050565b6040516001600160a01b0380851660248301528316604482015260648101829052610f619085906323b872dd60e01b906084015b60408051601f198184030181529190526020810180516001600160e01b03166001600160e01b031990931692909217909152612b9f565b60006001600160a01b038216600080516020613baa8339815191521415611b3d5773ebe676ee90fe1112671f19b6b7459bc678b67e8a6001600160a01b03166350d25bcd6040518163ffffffff1660e01b815260040160206040518083038186803b158015611aff57600080fd5b505afa158015611b13573d6000803e3d6000fd5b505050506040513d601f19601f82011682018060405250810190611b37919061385e565b92915050565b60405163b3596f0760e01b81526001600160a01b038316600482015273ebd36016b3ed09d4693ed4251c67bd858c3c7c9c9063b3596f079060240160206040518083038186803b158015611aff57600080fd5b60408051600480825260a0820190925260609160208201608080368337019050509050611bbb612c71565b81600081518110611bce57611bce6138ac565b602002602001018181525050611be2612e25565b81600181518110611bf557611bf56138ac565b602002602001018181525050611c09612f6c565b81600281518110611c1c57611c1c6138ac565b602002602001018181525050611c306130b3565b81600381518110611c4357611c436138ac565b60200260200101818152505090565b6000611c717350b7545627a5162f82a992c33b87adc75187b218611a91565b9050600081611c80848661388d565b611c8b90606461388d565b611c9591906138f0565b90506000611cdd600080516020613baa8339815191527350b7545627a5162f82a992c33b87adc75187b218876064611cce87605f61388d565b611cd891906138f0565b6131fa565b60655460405163b6b55f2560e01b8152600481018390529192506001600160a01b03169063b6b55f2590602401600060405180830381600087803b158015611d2457600080fd5b505af1158015611d38573d6000803e3d6000fd5b505060408051888152602081018590527fbf1df74b26e65e89ae5d51bd506862865562314b93d19b4edc85d5c599e95e299350019050611a16565b6000611d927349d5c2bdffac6ce2bfdb6640f4f80f226bc10bab611a91565b9050600081611da1848661388d565b611db09064e8d4a5100061388d565b611dba91906138f0565b90506000611df3600080516020613baa8339815191527349d5c2bdffac6ce2bfdb6640f4f80f226bc10bab876064611cce87605f61388d565b60665460405163b6b55f2560e01b8152600481018390529192506001600160a01b03169063b6b55f2590602401600060405180830381600087803b158015611e3a57600080fd5b505af1158015611e4e573d6000803e3d6000fd5b505060408051888152602081018590527fa9467001048b3bf504294c65eb1fd450d5273b58b916ccfcc07a13b6a8ff0c0c9350019050611a16565b6000611ea873b31f66aa3c1e785363f0875a1b74e27b85fd66c7611a91565b9050600081611eb7848661388d565b611ec69064e8d4a5100061388d565b611ed091906138f0565b90506000611f18600080516020613baa83398151915273b31f66aa3c1e785363f0875a1b74e27b85fd66c7876064611f0987605f61388d565b611f1391906138f0565b613382565b60675460405163b6b55f2560e01b8152600481018390529192506001600160a01b03169063b6b55f2590602401600060405180830381600087803b158015611f5f57600080fd5b505af1158015611f73573d6000803e3d6000fd5b505060408051888152602081018590527fd7862f5d8dd515ad5e0f279ab2382ecb18537dff2d85d8e04aca497ea6cabbf89350019050611a16565b6000611fe5600080516020613baa833981519152739702230a8ea53601f5cd2dc00fdbc13d4df4a8c7846064611f0982606361388d565b60685460405163b6b55f2560e01b8152600481018390529192506001600160a01b03169063b6b55f2590602401600060405180830381600087803b15801561202c57600080fd5b505af1158015612040573d6000803e3d6000fd5b505060408051858152602081018590527fb83a6f4f54d3f23fa394cbb40f56f2a370631a3957def5b0eaf834249acbfd9a9350019050611479565b6065546040516370a0823160e01b8152306004820152600091670de0b6b3a76400009185916001600160a01b0316906370a082319060240160206040518083038186803b1580156120cb57600080fd5b505afa1580156120df573d6000803e3d6000fd5b505050506040513d601f19601f82011682018060405250810190612103919061385e565b61210d919061388d565b61211791906138f0565b905080156122b857606554604051632e1a7d4d60e01b8152600481018390526001600160a01b0390911690632e1a7d4d90602401600060405180830381600087803b15801561216557600080fd5b505af1158015612179573d6000803e3d6000fd5b50506040516370a0823160e01b8152306004820152600092507350b7545627a5162f82a992c33b87adc75187b21891506370a082319060240160206040518083038186803b1580156121ca57600080fd5b505afa1580156121de573d6000803e3d6000fd5b505050506040513d601f19601f82011682018060405250810190612202919061385e565b905060006122237350b7545627a5162f82a992c33b87adc75187b218611a91565b9050600061223285606461388d565b61223c838561388d565b61224691906138f0565b9050600061227f7350b7545627a5162f82a992c33b87adc75187b218600080516020613baa833981519152866064611cce87605f61388d565b60408051868152602081018390529192507f2b40d355bb1f77bd59be42a0b31bae8cdeabf9742501131bd13721c17b330c4f9101610937565b505050565b6066546040516370a0823160e01b8152306004820152600091670de0b6b3a76400009185916001600160a01b0316906370a082319060240160206040518083038186803b15801561230d57600080fd5b505afa158015612321573d6000803e3d6000fd5b505050506040513d601f19601f82011682018060405250810190612345919061385e565b61234f919061388d565b61235991906138f0565b905080156122b857606654604051632e1a7d4d60e01b8152600481018390526001600160a01b0390911690632e1a7d4d90602401600060405180830381600087803b1580156123a757600080fd5b505af11580156123bb573d6000803e3d6000fd5b50506040516370a0823160e01b8152306004820152600092507349d5c2bdffac6ce2bfdb6640f4f80f226bc10bab91506370a082319060240160206040518083038186803b15801561240c57600080fd5b505afa158015612420573d6000803e3d6000fd5b505050506040513d601f19601f82011682018060405250810190612444919061385e565b905060006124657349d5c2bdffac6ce2bfdb6640f4f80f226bc10bab611a91565b905060006124788564e8d4a5100061388d565b612482838561388d565b61248c91906138f0565b905060006124c57349d5c2bdffac6ce2bfdb6640f4f80f226bc10bab600080516020613baa833981519152866064611cce87605f61388d565b60408051868152602081018390529192507fb5ad212fcc131c42595455ad4c23526ff5569548cc3a4af552a15fcc7348b3359101610937565b6067546040516370a0823160e01b8152306004820152600091670de0b6b3a76400009185916001600160a01b0316906370a082319060240160206040518083038186803b15801561254e57600080fd5b505afa158015612562573d6000803e3d6000fd5b505050506040513d601f19601f82011682018060405250810190612586919061385e565b612590919061388d565b61259a91906138f0565b905080156122b857606754604051632e1a7d4d60e01b8152600481018390526001600160a01b0390911690632e1a7d4d90602401600060405180830381600087803b1580156125e857600080fd5b505af11580156125fc573d6000803e3d6000fd5b50506040516370a0823160e01b81523060048201526000925073b31f66aa3c1e785363f0875a1b74e27b85fd66c791506370a082319060240160206040518083038186803b15801561264d57600080fd5b505afa158015612661573d6000803e3d6000fd5b505050506040513d601f19601f82011682018060405250810190612685919061385e565b905060006126a673b31f66aa3c1e785363f0875a1b74e27b85fd66c7611a91565b905060006126b98564e8d4a5100061388d565b6126c3838561388d565b6126cd91906138f0565b9050600061270673b31f66aa3c1e785363f0875a1b74e27b85fd66c7600080516020613baa833981519152866064611f0987605f61388d565b60408051868152602081018390529192507ffe4be6880aac6b75b6c8bf553a9157fa365e629815171f9a0a95e9401bc57ddc9101610937565b6068546040516370a0823160e01b8152306004820152600091670de0b6b3a76400009184916001600160a01b0316906370a082319060240160206040518083038186803b15801561278f57600080fd5b505afa1580156127a3573d6000803e3d6000fd5b505050506040513d601f19601f820116820180604052508101906127c7919061385e565b6127d1919061388d565b6127db91906138f0565b9050801561293e57606854604051632e1a7d4d60e01b8152600481018390526001600160a01b0390911690632e1a7d4d90602401600060405180830381600087803b15801561282957600080fd5b505af115801561283d573d6000803e3d6000fd5b50506040516370a0823160e01b815230600482015260009250739702230a8ea53601f5cd2dc00fdbc13d4df4a8c791506370a082319060240160206040518083038186803b15801561288e57600080fd5b505afa1580156128a2573d6000803e3d6000fd5b505050506040513d601f19601f820116820180604052508101906128c6919061385e565b905060006128ff739702230a8ea53601f5cd2dc00fdbc13d4df4a8c7600080516020613baa833981519152846064611f0982606361388d565b60408051848152602081018390529192507f55697eba25e5e652e8bf9deb3c1d594084eb15fcf95553c63ec65c17ec18bb1e910160405180910390a150505b5050565b6040516001600160a01b0383166024820152604481018290526122b890849063a9059cbb60e01b90606401611a5a565b603380546001600160a01b038381166001600160a01b0319831681179093556040519116919082907f8be0079c531659141344cd1fd0a4f28419497f9722a3daafe3b4186f6b6457e090600090a35050565b60008054610100900460ff1615612a0b578160ff1660011480156129e75750303b155b612a035760405162461bcd60e51b81526004016103a990613979565b506000919050565b60005460ff808416911610612a325760405162461bcd60e51b81526004016103a990613979565b506000805460ff191660ff92909216919091179055600190565b600054610100900460ff16612a735760405162461bcd60e51b81526004016103a9906139c7565b610e306134ae565b801580612b045750604051636eb1769f60e11b81523060048201526001600160a01b03838116602483015284169063dd62ed3e9060440160206040518083038186803b158015612aca57600080fd5b505afa158015612ade573d6000803e3d6000fd5b505050506040513d601f19601f82011682018060405250810190612b02919061385e565b155b612b6f5760405162461bcd60e51b815260206004820152603660248201527f5361666545524332303a20617070726f76652066726f6d206e6f6e2d7a65726f60448201527520746f206e6f6e2d7a65726f20616c6c6f77616e636560501b60648201526084016103a9565b6040516001600160a01b0383166024820152604481018290526122b890849063095ea7b360e01b90606401611a5a565b6000612bf4826040518060400160405280602081526020017f5361666545524332303a206c6f772d6c6576656c2063616c6c206661696c6564815250856001600160a01b03166134de9092919063ffffffff16565b8051909150156122b85780806020019051810190612c129190613a12565b6122b85760405162461bcd60e51b815260206004820152602a60248201527f5361666545524332303a204552433230206f7065726174696f6e20646964206e6044820152691bdd081cdd58d8d9595960b21b60648201526084016103a9565b600080606560009054906101000a90046001600160a01b03166001600160a01b031663bd244af46040518163ffffffff1660e01b815260040160206040518083038186803b158015612cc257600080fd5b505afa158015612cd6573d6000803e3d6000fd5b505050506040513d601f19601f82011682018060405250810190612cfa919061385e565b90508015612e1d57606560009054906101000a90046001600160a01b03166001600160a01b03166318160ddd6040518163ffffffff1660e01b815260040160206040518083038186803b158015612d5057600080fd5b505afa158015612d64573d6000803e3d6000fd5b505050506040513d601f19601f82011682018060405250810190612d88919061385e565b6065546040516370a0823160e01b81523060048201526001600160a01b03909116906370a08231906024015b60206040518083038186803b158015612dcc57600080fd5b505afa158015612de0573d6000803e3d6000fd5b505050506040513d601f19601f82011682018060405250810190612e04919061385e565b612e0e908361388d565b612e1891906138f0565b61101f565b600091505090565b600080606660009054906101000a90046001600160a01b03166001600160a01b031663bd244af46040518163ffffffff1660e01b815260040160206040518083038186803b158015612e7657600080fd5b505afa158015612e8a573d6000803e3d6000fd5b505050506040513d601f19601f82011682018060405250810190612eae919061385e565b90508015612e1d57606660009054906101000a90046001600160a01b03166001600160a01b03166318160ddd6040518163ffffffff1660e01b815260040160206040518083038186803b158015612f0457600080fd5b505afa158015612f18573d6000803e3d6000fd5b505050506040513d601f19601f82011682018060405250810190612f3c919061385e565b6066546040516370a0823160e01b81523060048201526001600160a01b03909116906370a0823190602401612db4565b600080606760009054906101000a90046001600160a01b03166001600160a01b031663bd244af46040518163ffffffff1660e01b815260040160206040518083038186803b158015612fbd57600080fd5b505afa158015612fd1573d6000803e3d6000fd5b505050506040513d601f19601f82011682018060405250810190612ff5919061385e565b90508015612e1d57606760009054906101000a90046001600160a01b03166001600160a01b03166318160ddd6040518163ffffffff1660e01b815260040160206040518083038186803b15801561304b57600080fd5b505afa15801561305f573d6000803e3d6000fd5b505050506040513d601f19601f82011682018060405250810190613083919061385e565b6067546040516370a0823160e01b81523060048201526001600160a01b03909116906370a0823190602401612db4565b600080606860009054906101000a90046001600160a01b03166001600160a01b031663bd244af46040518163ffffffff1660e01b815260040160206040518083038186803b15801561310457600080fd5b505afa158015613118573d6000803e3d6000fd5b505050506040513d601f19601f8201168201806040525081019061313c919061385e565b90508015612e1d57606860009054906101000a90046001600160a01b03166001600160a01b03166318160ddd6040518163ffffffff1660e01b815260040160206040518083038186803b15801561319257600080fd5b505afa1580156131a6573d6000803e3d6000fd5b505050506040513d601f19601f820116820180604052508101906131ca919061385e565b6068546040516370a0823160e01b81523060048201526001600160a01b03909116906370a0823190602401612db4565b60408051600380825260808201909252600091829190602082016060803683370190505090508581600081518110613234576132346138ac565b60200260200101906001600160a01b031690816001600160a01b03168152505073b31f66aa3c1e785363f0875a1b74e27b85fd66c78160018151811061327c5761327c6138ac565b60200260200101906001600160a01b031690816001600160a01b03168152505084816002815181106132b0576132b06138ac565b6001600160a01b03909216602092830291909101909101526040516338ed173960e01b81527360ae616a2155ee3d9a68541ba4544862310933d4906338ed1739906133079087908790869030904290600401613a34565b600060405180830381600087803b15801561332157600080fd5b505af1158015613335573d6000803e3d6000fd5b505050506040513d6000823e601f3d908101601f1916820160405261335d9190810190613a70565b60028151811061336f5761336f6138ac565b6020026020010151915050949350505050565b6040805160028082526060820183526000928392919060208301908036833701905050905085816000815181106133bb576133bb6138ac565b60200260200101906001600160a01b031690816001600160a01b03168152505084816001815181106133ef576133ef6138ac565b6001600160a01b03909216602092830291909101909101526040516338ed173960e01b81527360ae616a2155ee3d9a68541ba4544862310933d4906338ed1739906134469087908790869030904290600401613a34565b600060405180830381600087803b15801561346057600080fd5b505af1158015613474573d6000803e3d6000fd5b505050506040513d6000823e601f3d908101601f1916820160405261349c9190810190613a70565b60018151811061336f5761336f6138ac565b600054610100900460ff166134d55760405162461bcd60e51b81526004016103a9906139c7565b610e3033612972565b60606134ed84846000856134f7565b90505b9392505050565b6060824710156135585760405162461bcd60e51b815260206004820152602660248201527f416464726573733a20696e73756666696369656e742062616c616e636520666f6044820152651c8818d85b1b60d21b60648201526084016103a9565b6001600160a01b0385163b6135af5760405162461bcd60e51b815260206004820152601d60248201527f416464726573733a2063616c6c20746f206e6f6e2d636f6e747261637400000060448201526064016103a9565b600080866001600160a01b031685876040516135cb9190613b5a565b60006040518083038185875af1925050503d8060008114613608576040519150601f19603f3d011682016040523d82523d6000602084013e61360d565b606091505b509150915061361d828286613628565b979650505050505050565b606083156136375750816134f0565b8251156136475782518084602001fd5b8160405162461bcd60e51b81526004016103a99190613b76565b60006020828403121561367357600080fd5b5035919050565b600081518084526020808501945080840160005b838110156136b35781516001600160a01b03168752958201959082019060010161368e565b509495945050505050565b6040815260006136d1604083018561367a565b82810360208481019190915284518083528582019282019060005b81811015613708578451835293830193918301916001016136ec565b5090979650505050505050565b6001600160a01b038116811461174257600080fd5b60006020828403121561373c57600080fd5b81356134f081613715565b6000806040838503121561375a57600080fd5b50508035926020909101359150565b6000806020838503121561377c57600080fd5b823567ffffffffffffffff8082111561379457600080fd5b818501915085601f8301126137a857600080fd5b8135818111156137b757600080fd5b8660208260051b85010111156137cc57600080fd5b60209290920196919550909350505050565b600080600080608085870312156137f457600080fd5b84356137ff81613715565b9350602085013561380f81613715565b9250604085013561381f81613715565b9150606085013561382f81613715565b939692955090935050565b6020808252600a908201526913db9b1e481d985d5b1d60b21b604082015260600190565b60006020828403121561387057600080fd5b5051919050565b634e487b7160e01b600052601160045260246000fd5b60008160001904831182151516156138a7576138a7613877565b500290565b634e487b7160e01b600052603260045260246000fd5b600082198211156138d5576138d5613877565b500190565b634e487b7160e01b600052604160045260246000fd5b60008261390d57634e487b7160e01b600052601260045260246000fd5b500490565b60008282101561392457613924613877565b500390565b600060001982141561393d5761393d613877565b5060010190565b6020808252818101527f4f776e61626c653a2063616c6c6572206973206e6f7420746865206f776e6572604082015260600190565b6020808252602e908201527f496e697469616c697a61626c653a20636f6e747261637420697320616c72656160408201526d191e481a5b9a5d1a585b1a5e995960921b606082015260800190565b6020808252602b908201527f496e697469616c697a61626c653a20636f6e7472616374206973206e6f74206960408201526a6e697469616c697a696e6760a81b606082015260800190565b600060208284031215613a2457600080fd5b815180151581146134f057600080fd5b85815284602082015260a060408201526000613a5360a083018661367a565b6001600160a01b0394909416606083015250608001529392505050565b60006020808385031215613a8357600080fd5b825167ffffffffffffffff80821115613a9b57600080fd5b818501915085601f830112613aaf57600080fd5b815181811115613ac157613ac16138da565b8060051b604051601f19603f83011681018181108582111715613ae657613ae66138da565b604052918252848201925083810185019188831115613b0457600080fd5b938501935b82851015613b2257845184529385019392850192613b09565b98975050505050505050565b60005b83811015613b49578181015183820152602001613b31565b83811115610f615750506000910152565b60008251613b6c818460208701613b2e565b9190910192915050565b6020815260008251806020840152613b95816040850160208701613b2e565b601f01601f1916919091016040019291505056fe000000000000000000000000c7198437980c041c805a1edcba50c1ce5db95118a26469706673582212207ba1054440712b2714569a8028d271bcc1b4a61eae8922c9d2df74d94e47fbd364736f6c63430008090033",
  "devdoc": {
    "kind": "dev",
    "methods": {
      "owner()": {
        "details": "Returns the address of the current owner."
      },
      "renounceOwnership()": {
        "details": "Leaves the contract without owner. It will not be possible to call `onlyOwner` functions anymore. Can only be called by the current owner. NOTE: Renouncing ownership will leave the contract without an owner, thereby removing any functionality that is only available to the owner."
      },
      "transferOwnership(address)": {
        "details": "Transfers ownership of the contract to a new account (`newOwner`). Can only be called by the current owner."
      }
    },
    "version": 1
  },
  "userdoc": {
    "kind": "user",
    "methods": {},
    "version": 1
  },
  "storageLayout": {
    "storage": [
      {
        "astId": 130,
        "contract": "contracts/mwi/MWIStrategy.sol:MWIStrategy",
        "label": "_initialized",
        "offset": 0,
        "slot": "0",
        "type": "t_uint8"
      },
      {
        "astId": 133,
        "contract": "contracts/mwi/MWIStrategy.sol:MWIStrategy",
        "label": "_initializing",
        "offset": 1,
        "slot": "0",
        "type": "t_bool"
      },
      {
        "astId": 1657,
        "contract": "contracts/mwi/MWIStrategy.sol:MWIStrategy",
        "label": "__gap",
        "offset": 0,
        "slot": "1",
        "type": "t_array(t_uint256)50_storage"
      },
      {
        "astId": 10,
        "contract": "contracts/mwi/MWIStrategy.sol:MWIStrategy",
        "label": "_owner",
        "offset": 0,
        "slot": "51",
        "type": "t_address"
      },
      {
        "astId": 122,
        "contract": "contracts/mwi/MWIStrategy.sol:MWIStrategy",
        "label": "__gap",
        "offset": 0,
        "slot": "52",
        "type": "t_array(t_uint256)49_storage"
      },
      {
        "astId": 20090,
        "contract": "contracts/mwi/MWIStrategy.sol:MWIStrategy",
        "label": "WBTCVault",
        "offset": 0,
        "slot": "101",
        "type": "t_contract(IL2Vault)20042"
      },
      {
        "astId": 20093,
        "contract": "contracts/mwi/MWIStrategy.sol:MWIStrategy",
        "label": "WETHVault",
        "offset": 0,
        "slot": "102",
        "type": "t_contract(IL2Vault)20042"
      },
      {
        "astId": 20096,
        "contract": "contracts/mwi/MWIStrategy.sol:MWIStrategy",
        "label": "WAVAXVault",
        "offset": 0,
        "slot": "103",
        "type": "t_contract(IL2Vault)20042"
      },
      {
        "astId": 20099,
        "contract": "contracts/mwi/MWIStrategy.sol:MWIStrategy",
        "label": "USDTVault",
        "offset": 0,
        "slot": "104",
        "type": "t_contract(IL2Vault)20042"
      },
      {
        "astId": 20105,
        "contract": "contracts/mwi/MWIStrategy.sol:MWIStrategy",
        "label": "targetPercentages",
        "offset": 0,
        "slot": "105",
        "type": "t_array(t_uint256)dyn_storage"
      },
      {
        "astId": 20107,
        "contract": "contracts/mwi/MWIStrategy.sol:MWIStrategy",
        "label": "vault",
        "offset": 0,
        "slot": "106",
        "type": "t_address"
      }
    ],
    "types": {
      "t_address": {
        "encoding": "inplace",
        "label": "address",
        "numberOfBytes": "20"
      },
      "t_array(t_uint256)49_storage": {
        "base": "t_uint256",
        "encoding": "inplace",
        "label": "uint256[49]",
        "numberOfBytes": "1568"
      },
      "t_array(t_uint256)50_storage": {
        "base": "t_uint256",
        "encoding": "inplace",
        "label": "uint256[50]",
        "numberOfBytes": "1600"
      },
      "t_array(t_uint256)dyn_storage": {
        "base": "t_uint256",
        "encoding": "dynamic_array",
        "label": "uint256[]",
        "numberOfBytes": "32"
      },
      "t_bool": {
        "encoding": "inplace",
        "label": "bool",
        "numberOfBytes": "1"
      },
      "t_contract(IL2Vault)20042": {
        "encoding": "inplace",
        "label": "contract IL2Vault",
        "numberOfBytes": "20"
      },
      "t_uint256": {
        "encoding": "inplace",
        "label": "uint256",
        "numberOfBytes": "32"
      },
      "t_uint8": {
        "encoding": "inplace",
        "label": "uint8",
        "numberOfBytes": "1"
      }
    }
  }
}