{
  "address": "0xE6539a9aCa0aeA9A866c2Be648680be8f4c32281",
  "abi": [
    {
      "anonymous": false,
      "inputs": [
        {
          "indexed": false,
          "internalType": "uint256",
          "name": "currentWatermark",
          "type": "uint256"
        },
        {
          "indexed": false,
          "internalType": "uint256",
          "name": "lastWatermark",
          "type": "uint256"
        }
      ],
      "name": "AdjustWatermark",
      "type": "event"
    },
    {
      "anonymous": false,
      "inputs": [
        {
          "indexed": false,
          "internalType": "uint256",
          "name": "currentWatermark",
          "type": "uint256"
        },
        {
          "indexed": false,
          "internalType": "uint256",
          "name": "lastWatermark",
          "type": "uint256"
        },
        {
          "indexed": false,
          "internalType": "uint256",
          "name": "fee",
          "type": "uint256"
        }
      ],
      "name": "CollectProfitAndUpdateWatermark",
      "type": "event"
    },
    {
      "anonymous": false,
      "inputs": [
        {
          "indexed": false,
          "internalType": "address",
          "name": "caller",
          "type": "address"
        },
        {
          "indexed": false,
          "internalType": "uint256",
          "name": "amtDeposit",
          "type": "uint256"
        },
        {
          "indexed": false,
          "internalType": "address",
          "name": "tokenDeposit",
          "type": "address"
        }
      ],
      "name": "Deposit",
      "type": "event"
    },
    {
      "anonymous": false,
      "inputs": [
        {
          "indexed": false,
          "internalType": "uint8",
          "name": "version",
          "type": "uint8"
        }
      ],
      "name": "Initialized",
      "type": "event"
    },
    {
      "anonymous": false,
      "inputs": [
        {
          "indexed": true,
          "internalType": "address",
          "name": "previousOwner",
          "type": "address"
        },
        {
          "indexed": true,
          "internalType": "address",
          "name": "newOwner",
          "type": "address"
        }
      ],
      "name": "OwnershipTransferred",
      "type": "event"
    },
    {
      "anonymous": false,
      "inputs": [
        {
          "indexed": false,
          "internalType": "address",
          "name": "account",
          "type": "address"
        }
      ],
      "name": "Paused",
      "type": "event"
    },
    {
      "anonymous": false,
      "inputs": [
        {
          "indexed": false,
          "internalType": "uint256",
          "name": "pid",
          "type": "uint256"
        },
        {
          "indexed": false,
          "internalType": "uint256",
          "name": "sharePerc",
          "type": "uint256"
        },
        {
          "indexed": false,
          "internalType": "uint256",
          "name": "amount",
          "type": "uint256"
        },
        {
          "indexed": false,
          "internalType": "address",
          "name": "target",
          "type": "address"
        }
      ],
      "name": "Rebalance",
      "type": "event"
    },
    {
      "anonymous": false,
      "inputs": [
        {
          "indexed": false,
          "internalType": "uint256",
          "name": "amount",
          "type": "uint256"
        }
      ],
      "name": "Reinvest",
      "type": "event"
    },
    {
      "anonymous": false,
      "inputs": [
        {
          "indexed": false,
          "internalType": "address",
          "name": "oldAdmin",
          "type": "address"
        },
        {
          "indexed": false,
          "internalType": "address",
          "name": "newAdmin",
          "type": "address"
        }
      ],
      "name": "SetAdminWallet",
      "type": "event"
    },
    {
      "anonymous": false,
      "inputs": [
        {
          "indexed": false,
          "internalType": "address",
          "name": "oldTreasuryWallet",
          "type": "address"
        },
        {
          "indexed": false,
          "internalType": "address",
          "name": "newTreasuryWallet",
          "type": "address"
        }
      ],
      "name": "SetTreasuryWallet",
      "type": "event"
    },
    {
      "anonymous": false,
      "inputs": [
        {
          "indexed": false,
          "internalType": "uint256",
          "name": "fees",
          "type": "uint256"
        },
        {
          "indexed": false,
          "internalType": "address",
          "name": "token",
          "type": "address"
        }
      ],
      "name": "TransferredOutFees",
      "type": "event"
    },
    {
      "anonymous": false,
      "inputs": [
        {
          "indexed": false,
          "internalType": "address",
          "name": "account",
          "type": "address"
        }
      ],
      "name": "Unpaused",
      "type": "event"
    },
    {
      "anonymous": false,
      "inputs": [
        {
          "indexed": false,
          "internalType": "address",
          "name": "caller",
          "type": "address"
        },
        {
          "indexed": false,
          "internalType": "uint256",
          "name": "amtWithdraw",
          "type": "uint256"
        },
        {
          "indexed": false,
          "internalType": "address",
          "name": "tokenWithdraw",
          "type": "address"
        },
        {
          "indexed": false,
          "internalType": "uint256",
          "name": "sharePerc",
          "type": "uint256"
        }
      ],
      "name": "Withdraw",
      "type": "event"
    },
    {
      "inputs": [],
      "name": "USDT",
      "outputs": [
        {
          "internalType": "contract IERC20UpgradeableExt",
          "name": "",
          "type": "address"
        }
      ],
      "stateMutability": "view",
      "type": "function"
    },
    {
      "inputs": [],
      "name": "admin",
      "outputs": [
        {
          "internalType": "address",
          "name": "",
          "type": "address"
        }
      ],
      "stateMutability": "view",
      "type": "function"
    },
    {
      "inputs": [],
      "name": "collectProfitAndUpdateWatermark",
      "outputs": [],
      "stateMutability": "nonpayable",
      "type": "function"
    },
    {
      "inputs": [
        {
          "internalType": "address",
          "name": "_account",
          "type": "address"
        },
        {
          "internalType": "address[]",
          "name": "_tokens",
          "type": "address[]"
        },
        {
          "internalType": "uint256[]",
          "name": "_USDTAmts",
          "type": "uint256[]"
        }
      ],
      "name": "deposit",
      "outputs": [],
      "stateMutability": "nonpayable",
      "type": "function"
    },
    {
      "inputs": [],
      "name": "emergencyWithdraw",
      "outputs": [],
      "stateMutability": "nonpayable",
      "type": "function"
    },
    {
      "inputs": [],
      "name": "fees",
      "outputs": [
        {
          "internalType": "uint256",
          "name": "",
          "type": "uint256"
        }
      ],
      "stateMutability": "view",
      "type": "function"
    },
    {
      "inputs": [],
      "name": "getAPR",
      "outputs": [
        {
          "internalType": "uint256",
          "name": "",
          "type": "uint256"
        }
      ],
      "stateMutability": "view",
      "type": "function"
    },
    {
      "inputs": [],
      "name": "getAllPoolInUSD",
      "outputs": [
        {
          "internalType": "uint256",
          "name": "",
          "type": "uint256"
        }
      ],
      "stateMutability": "view",
      "type": "function"
    },
    {
      "inputs": [],
      "name": "getChainID",
      "outputs": [
        {
          "internalType": "uint256",
          "name": "id",
          "type": "uint256"
        }
      ],
      "stateMutability": "view",
      "type": "function"
    },
    {
      "inputs": [],
      "name": "getCurrentCompositionPerc",
      "outputs": [
        {
          "internalType": "address[]",
          "name": "tokens",
          "type": "address[]"
        },
        {
          "internalType": "uint256[]",
          "name": "percentages",
          "type": "uint256[]"
        }
      ],
      "stateMutability": "view",
      "type": "function"
    },
    {
      "inputs": [],
      "name": "getEachPoolInUSD",
      "outputs": [
        {
          "internalType": "uint256[]",
          "name": "chainIDs",
          "type": "uint256[]"
        },
        {
          "internalType": "address[]",
          "name": "tokens",
          "type": "address[]"
        },
        {
          "internalType": "uint256[]",
          "name": "pools",
          "type": "uint256[]"
        }
      ],
      "stateMutability": "view",
      "type": "function"
    },
    {
      "inputs": [],
      "name": "getUSDTPriceInUSD",
      "outputs": [
        {
          "internalType": "uint256",
          "name": "",
          "type": "uint256"
        },
        {
          "internalType": "uint8",
          "name": "",
          "type": "uint8"
        }
      ],
      "stateMutability": "view",
      "type": "function"
    },
    {
      "inputs": [
        {
          "internalType": "address",
          "name": "_treasuryWallet",
          "type": "address"
        },
        {
          "internalType": "address",
          "name": "_admin",
          "type": "address"
        },
        {
          "internalType": "address",
          "name": "_strategy",
          "type": "address"
        },
        {
          "internalType": "address",
          "name": "_priceOracle",
          "type": "address"
        },
        {
          "internalType": "address",
          "name": "_USDT",
          "type": "address"
        }
      ],
      "name": "initialize",
      "outputs": [],
      "stateMutability": "nonpayable",
      "type": "function"
    },
    {
      "inputs": [],
      "name": "owner",
      "outputs": [
        {
          "internalType": "address",
          "name": "",
          "type": "address"
        }
      ],
      "stateMutability": "view",
      "type": "function"
    },
    {
      "inputs": [],
      "name": "paused",
      "outputs": [
        {
          "internalType": "bool",
          "name": "",
          "type": "bool"
        }
      ],
      "stateMutability": "view",
      "type": "function"
    },
    {
      "inputs": [],
      "name": "priceOracle",
      "outputs": [
        {
          "internalType": "contract IPriceOracle",
          "name": "",
          "type": "address"
        }
      ],
      "stateMutability": "view",
      "type": "function"
    },
    {
      "inputs": [],
      "name": "profitFeePerc",
      "outputs": [
        {
          "internalType": "uint256",
          "name": "",
          "type": "uint256"
        }
      ],
      "stateMutability": "view",
      "type": "function"
    },
    {
      "inputs": [
        {
          "internalType": "uint256",
          "name": "_pid",
          "type": "uint256"
        },
        {
          "internalType": "uint256",
          "name": "_sharePerc",
          "type": "uint256"
        },
        {
          "internalType": "address",
          "name": "_target",
          "type": "address"
        }
      ],
      "name": "rebalance",
      "outputs": [],
      "stateMutability": "nonpayable",
      "type": "function"
    },
    {
      "inputs": [
        {
          "internalType": "address[]",
          "name": "_tokens",
          "type": "address[]"
        },
        {
          "internalType": "uint256[]",
          "name": "_perc",
          "type": "uint256[]"
        }
      ],
      "name": "reinvest",
      "outputs": [],
      "stateMutability": "nonpayable",
      "type": "function"
    },
    {
      "inputs": [],
      "name": "renounceOwnership",
      "outputs": [],
      "stateMutability": "nonpayable",
      "type": "function"
    },
    {
      "inputs": [
        {
          "internalType": "address",
          "name": "_admin",
          "type": "address"
        }
      ],
      "name": "setAdmin",
      "outputs": [],
      "stateMutability": "nonpayable",
      "type": "function"
    },
    {
      "inputs": [
        {
          "internalType": "uint256",
          "name": "_profitFeePerc",
          "type": "uint256"
        }
      ],
      "name": "setProfitFeePerc",
      "outputs": [],
      "stateMutability": "nonpayable",
      "type": "function"
    },
    {
      "inputs": [
        {
          "internalType": "address",
          "name": "_strategy",
          "type": "address"
        }
      ],
      "name": "setStrategy",
      "outputs": [],
      "stateMutability": "nonpayable",
      "type": "function"
    },
    {
      "inputs": [
        {
          "internalType": "address",
          "name": "_treasuryWallet",
          "type": "address"
        }
      ],
      "name": "setTreasuryWallet",
      "outputs": [],
      "stateMutability": "nonpayable",
      "type": "function"
    },
    {
      "inputs": [],
      "name": "strategy",
      "outputs": [
        {
          "internalType": "contract IStrategy",
          "name": "",
          "type": "address"
        }
      ],
      "stateMutability": "view",
      "type": "function"
    },
    {
      "inputs": [
        {
          "internalType": "address",
          "name": "newOwner",
          "type": "address"
        }
      ],
      "name": "transferOwnership",
      "outputs": [],
      "stateMutability": "nonpayable",
      "type": "function"
    },
    {
      "inputs": [],
      "name": "treasuryWallet",
      "outputs": [
        {
          "internalType": "address",
          "name": "",
          "type": "address"
        }
      ],
      "stateMutability": "view",
      "type": "function"
    },
    {
      "inputs": [],
      "name": "watermark",
      "outputs": [
        {
          "internalType": "uint256",
          "name": "",
          "type": "uint256"
        }
      ],
      "stateMutability": "view",
      "type": "function"
    },
    {
      "inputs": [],
      "name": "withdrawFees",
      "outputs": [],
      "stateMutability": "nonpayable",
      "type": "function"
    },
    {
      "inputs": [
        {
          "internalType": "address",
          "name": "_account",
          "type": "address"
        },
        {
          "internalType": "uint256",
          "name": "_sharePerc",
          "type": "uint256"
        }
      ],
      "name": "withdrawPerc",
      "outputs": [],
      "stateMutability": "nonpayable",
      "type": "function"
    }
  ],
  "transactionHash": "0xb6a9841a56153d528be387a41c2bc5014fd7a0f46b4b52b16c170cacc23472c5",
  "args": [],
  "numDeployments": 2,
  "solcInputHash": "a72de07d3c0925422aa823316ff07d54",
  "bytecode": "0x608060405234801561001057600080fd5b50613003806100206000396000f3fe608060405234801561001057600080fd5b50600436106101da5760003560e01c80639b86088211610104578063c54e44eb116100a2578063efca0d0711610071578063efca0d07146103b1578063f13dc2e2146103ba578063f2fde38b146103c3578063f851a440146103d657600080fd5b8063c54e44eb1461037b578063c89d5b8b1461038e578063d38d5fc414610396578063db2e21bc146103a957600080fd5b8063aae09236116100de578063aae0923614610327578063ac25f6891461033e578063b47c6a2714610354578063bd244af41461037357600080fd5b80639b860882146102ee578063a8602fea14610301578063a8c62e761461031457600080fd5b8063562fa0df1161017c578063704b6c021161014b578063704b6c02146102b9578063715018a6146102cc5780638da5cb5b146102d45780639af1d35a146102e557600080fd5b8063562fa0df1461026d578063564b81ef146102805780635c975abb146102905780636d2b3d7b146102a657600080fd5b806333a100ca116101b857806333a100ca146102375780634626402b1461024a578063470343d81461025d578063476343ee1461026557600080fd5b80630b47b7ff146101df5780631459457a146101f45780632630c12f14610207575b600080fd5b6101f26101ed366004612743565b6103e9565b005b6101f2610202366004612771565b61044e565b60cc5461021a906001600160a01b031681565b6040516001600160a01b0390911681526020015b60405180910390f35b6101f26102453660046127e2565b6106bf565b60ce5461021a906001600160a01b031681565b6101f26106e9565b6101f261073a565b6101f261027b366004612939565b610932565b465b60405190815260200161022e565b60655460ff16604051901515815260200161022e565b6101f26102b43660046129af565b610cca565b6101f26102c73660046127e2565b610ee1565b6101f2610f4b565b6097546001600160a01b031661021a565b61028260d05481565b6101f26102fc3660046129e8565b610f5d565b6101f261030f3660046127e2565b611278565b60cb5461021a906001600160a01b031681565b61032f6112da565b60405161022e93929190612ac0565b610346611599565b60405161022e929190612b03565b61035c61162e565b6040805192835260ff90911660208301520161022e565b6102826116b0565b60c95461021a906001600160a01b031681565b610282611852565b6101f26103a4366004612b31565b6118d4565b6101f2611c5e565b61028260cd5481565b61028260cf5481565b6101f26103d13660046127e2565b611d1c565b60ca5461021a906001600160a01b031681565b6103f1611d95565b610bb960cd54106104495760405162461bcd60e51b815260206004820152601760248201527f50726f666974206665652063616e6e6f74203e2033302500000000000000000060448201526064015b60405180910390fd5b60cd55565b600054610100900460ff161580801561046e5750600054600160ff909116105b806104885750303b158015610488575060005460ff166001145b6104eb5760405162461bcd60e51b815260206004820152602e60248201527f496e697469616c697a61626c653a20636f6e747261637420697320616c72656160448201526d191e481a5b9a5d1a585b1a5e995960921b6064820152608401610440565b6000805460ff19166001179055801561050e576000805461ff0019166101001790555b610516611def565b60ce80546001600160a01b038089166001600160a01b03199283161790925560ca805488841690831617905560cb805487841690831617905560cc80548684169083161790556107d060cd5560c9805492851692909116821790556040805163313ce56760e01b8152905163313ce56791600481810192602092909190829003018186803b1580156105a757600080fd5b505afa1580156105bb573d6000803e3d6000fd5b505050506040513d601f19601f820116820180604052508101906105df9190612b73565b60c9805460ff60a01b1916600160a01b60ff93841681029190911791829055900416600611156106515760405162461bcd60e51b815260206004820152601760248201527f5553445420646563696d616c73206d757374203e3d20360000000000000000006044820152606401610440565b60cb5460c954610670916001600160a01b039182169116600019611e1e565b80156106b7576000805461ff0019169055604051600181527f7f26b83ff96e1f2b6a682f133852f6798a09c465da95921460cefb3847402498906020015b60405180910390a15b505050505050565b6106c7611d95565b60cb80546001600160a01b0319166001600160a01b0392909216919091179055565b6097546001600160a01b031633148061070c575060ca546001600160a01b031633145b6107285760405162461bcd60e51b815260040161044090612b8e565b610730611f7a565b610738611fc0565b565b6097546001600160a01b031633148061075d575060ca546001600160a01b031633145b6107795760405162461bcd60e51b815260040161044090612b8e565b60655460ff1661089d5760cb5460408051632f4912bd60e21b815290516000926001600160a01b03169163bd244af4916004808301926020929190829003018186803b1580156107c857600080fd5b505afa1580156107dc573d6000803e3d6000fd5b505050506040513d601f19601f820116820180604052508101906108009190612bbb565b60d054909150600082821061081d57670de0b6b3a764000061083a565b8261083083670de0b6b3a7640000612bea565b61083a9190612c09565b60cb5460405163ed47d90960e01b8152600481018390529192506001600160a01b03169063ed47d90990602401600060405180830381600087803b15801561088157600080fd5b505af1158015610895573d6000803e3d6000fd5b505050505050505b60c9546040516370a0823160e01b815230600482015261092e916001600160a01b0316906370a082319060240160206040518083038186803b1580156108e257600080fd5b505afa1580156108f6573d6000803e3d6000fd5b505050506040513d601f19601f8201168201806040525081019061091a9190612bbb565b6040805160008152602081019091526120dd565b5050565b6097546001600160a01b0316331480610955575060ca546001600160a01b031633145b6109715760405162461bcd60e51b815260040161044090612b8e565b600260015414156109c45760405162461bcd60e51b815260206004820152601f60248201527f5265656e7472616e637947756172643a207265656e7472616e742063616c6c006044820152606401610440565b60026001556109d1611f7a565b6001600160a01b038316610a195760405162461bcd60e51b815260206004820152600f60248201526e125b9d985b1a59081858d8dbdd5b9d608a1b6044820152606401610440565b815181518114610a645760405162461bcd60e51b815260206004820152601660248201527509cdee840dac2e8c6d040c2e4e4c2f240d8cadccee8d60531b6044820152606401610440565b60c954600090610a8090600690600160a01b900460ff16612c2b565b610a8b90600a612d34565b90506000805b83811015610b155782858281518110610aac57610aac612d43565b6020026020010151610abe9190612bea565b858281518110610ad057610ad0612d43565b602002602001018181525050848181518110610aee57610aee612d43565b602002602001015182610b019190612d59565b915080610b0d81612d71565b915050610a91565b5080600010610b595760405162461bcd60e51b815260206004820152601060248201526f0416d6f756e7473206d757374203e20360841b6044820152606401610440565b60c954610b71906001600160a01b03168730846122b3565b600080610b7c61162e565b90925090506000610b8e82600a612d34565b60c9548490610ba890600160a01b900460ff166012612c2b565b610bb390600a612d34565b610bbd9087612bea565b610bc79190612bea565b610bd19190612c09565b60cf5490915015610be457610be4611fc0565b600080610bf1868a6120dd565b90925090508115610c615760cb546040516326b89b7160e01b81526001600160a01b03909116906326b89b7190610c2e908d908590600401612b03565b600060405180830381600087803b158015610c4857600080fd5b505af1158015610c5c573d6000803e3d6000fd5b505050505b610c6c8360016122eb565b60c954604080516001600160a01b038e81168252602082018a905290921682820152517fe31c7b8d08ee7db0afa68782e1028ef92305caeea8626633ad44d413e30f6b2f9181900360600190a1505060018055505050505050505050565b6097546001600160a01b0316331480610ced575060ca546001600160a01b031633145b610d095760405162461bcd60e51b815260040161044090612b8e565b60cb5460405163778d98b360e11b815260048101859052602481018490526000916001600160a01b03169063ef1b316690604401602060405180830381600087803b158015610d5757600080fd5b505af1158015610d6b573d6000803e3d6000fd5b505050506040513d601f19601f82011682018060405250810190610d8f9190612bbb565b90508015610edb57604080516001808252818301909252600091602080830190803683370190505090508281600081518110610dcd57610dcd612d43565b6001600160a01b0392909216602092830291909101909101526040805160018082528183019092526000918160200160208202803683370190505090508281600081518110610e1e57610e1e612d43565b602090810291909101015260cb546040516326b89b7160e01b81526001600160a01b03909116906326b89b7190610e5b9085908590600401612b03565b600060405180830381600087803b158015610e7557600080fd5b505af1158015610e89573d6000803e3d6000fd5b505060408051898152602081018990529081018690526001600160a01b03871660608201527f2be1fd30870a31378112c815f24e8611c8a87ed036bce5cf5670a8e34dbf210a925060800190506106ae565b50505050565b610ee9611d95565b60ca80546001600160a01b038381166001600160a01b031983168117909355604080519190921680825260208201939093527f9f0ac88be9159761bacf6c9e7c294c397ebf594607f6b3f2f70e7e0841ea68e891015b60405180910390a15050565b610f53611d95565b6107386000612364565b6097546001600160a01b0316331480610f80575060ca546001600160a01b031633145b610f9c5760405162461bcd60e51b815260040161044090612b8e565b610fa46123b6565b815181518114610fef5760405162461bcd60e51b815260206004820152601660248201527509cdee840dac2e8c6d040c2e4e4c2f240d8cadccee8d60531b6044820152606401610440565b610ff76123ff565b60c9546040516370a0823160e01b81523060048201526000916001600160a01b0316906370a082319060240160206040518083038186803b15801561103b57600080fd5b505afa15801561104f573d6000803e3d6000fd5b505050506040513d601f19601f820116820180604052508101906110739190612bbb565b90508015610edb5760008061108661162e565b9092509050600061109882600a612d34565b60c95484906110b290600160a01b900460ff166012612c2b565b6110bd90600a612d34565b6110c79087612bea565b6110d19190612bea565b6110db9190612c09565b90506000805b86811015611118578781815181106110fb576110fb612d43565b60200260200101519150808061111090612d71565b9150506110e1565b5060008667ffffffffffffffff811115611134576111346127ff565b60405190808252806020026020018201604052801561115d578160200160208202803683370190505b50905060005b878110156111ca5782878a838151811061117f5761117f612d43565b60200260200101516111919190612bea565b61119b9190612c09565b8282815181106111ad576111ad612d43565b6020908102919091010152806111c281612d71565b915050611163565b5060cb546040516326b89b7160e01b81526001600160a01b03909116906326b89b71906111fd908c908590600401612b03565b600060405180830381600087803b15801561121757600080fd5b505af115801561122b573d6000803e3d6000fd5b5050505061123a8360016122eb565b6040518681527fc13e24d2b0a3bacd5d1a7c514125a1e27323abf7c86f6d36597f8752bbd7eed79060200160405180910390a1505050505050505050565b611280611d95565b60ce80546001600160a01b038381166001600160a01b031983168117909355604080519190921680825260208201939093527febcecb9db04071cf4b4ecc1e2e1e4603e74c9382d6e36c3531f0b62af4c78ed79101610f3f565b606080606060cb60009054906101000a90046001600160a01b03166001600160a01b031663aae092366040518163ffffffff1660e01b815260040160006040518083038186803b15801561132d57600080fd5b505afa158015611341573d6000803e3d6000fd5b505050506040513d6000823e601f3d908101601f191682016040526113699190810190612de7565b80519193509150468167ffffffffffffffff81111561138a5761138a6127ff565b6040519080825280602002602001820160405280156113b3578160200160208202803683370190505b50945060005b828110156113f157818682815181106113d4576113d4612d43565b6020908102919091010152806113e981612d71565b9150506113b9565b5060c9546040516370a0823160e01b81523060048201526000916001600160a01b0316906370a082319060240160206040518083038186803b15801561143657600080fd5b505afa15801561144a573d6000803e3d6000fd5b505050506040513d601f19601f8201168201806040525081019061146e9190612bbb565b90506000811180156114805750600083115b156115915760008061149061162e565b909250905060006114a282600a612d34565b60c95484906114bc90600160a01b900460ff166012612c2b565b6114c790600a612d34565b60c9546040516370a0823160e01b81523060048201526001600160a01b03909116906370a082319060240160206040518083038186803b15801561150a57600080fd5b505afa15801561151e573d6000803e3d6000fd5b505050506040513d601f19601f820116820180604052508101906115429190612bbb565b61154c9190612bea565b6115569190612bea565b6115609190612c09565b9050808760008151811061157657611576612d43565b6020026020010181815161158a9190612d59565b9052505050505b505050909192565b60608060cb60009054906101000a90046001600160a01b03166001600160a01b0316634631b2466040518163ffffffff1660e01b815260040160006040518083038186803b1580156115ea57600080fd5b505afa1580156115fe573d6000803e3d6000fd5b505050506040513d6000823e601f3d908101601f191682016040526116269190810190612de7565b915091509091565b60cc5460c95460405163b3596f0760e01b81526001600160a01b0391821660048201526000928392169063b3596f0790602401604080518083038186803b15801561167857600080fd5b505afa15801561168c573d6000803e3d6000fd5b505050506040513d601f19601f820116820180604052508101906116269190612ea2565b6000806116bf60655460ff1690565b156117a6576000806116cf61162e565b90925090506116df81600a612d34565b60c95483906116f990600160a01b900460ff166012612c2b565b61170490600a612d34565b60c9546040516370a0823160e01b81523060048201526001600160a01b03909116906370a082319060240160206040518083038186803b15801561174757600080fd5b505afa15801561175b573d6000803e3d6000fd5b505050506040513d601f19601f8201168201806040525081019061177f9190612bbb565b6117899190612bea565b6117939190612bea565b61179d9190612c09565b9250505061182f565b60cb60009054906101000a90046001600160a01b03166001600160a01b031663bd244af46040518163ffffffff1660e01b815260040160206040518083038186803b1580156117f457600080fd5b505afa158015611808573d6000803e3d6000fd5b505050506040513d601f19601f8201168201806040525081019061182c9190612bbb565b90505b60d054811161183f57600061184c565b60d05461184c9082612ece565b91505090565b60cb546040805163c89d5b8b60e01b815290516000926001600160a01b03169163c89d5b8b916004808301926020929190829003018186803b15801561189757600080fd5b505afa1580156118ab573d6000803e3d6000fd5b505050506040513d601f19601f820116820180604052508101906118cf9190612bbb565b905090565b6097546001600160a01b03163314806118f7575060ca546001600160a01b031633145b6119135760405162461bcd60e51b815260040161044090612b8e565b600260015414156119665760405162461bcd60e51b815260206004820152601f60248201527f5265656e7472616e637947756172643a207265656e7472616e742063616c6c006044820152606401610440565b6002600155806119ad5760405162461bcd60e51b81526020600482015260126024820152710536861726550657263206d757374203e20360741b6044820152606401610440565b670de0b6b3a76400008111156119f15760405162461bcd60e51b81526020600482015260096024820152684f766572203130302560b81b6044820152606401610440565b60006119fb6116b0565b90506000670de0b6b3a7640000611a128484612bea565b611a1c9190612c09565b9050600060d05483611a2e9190612d59565b611a4083670de0b6b3a7640000612bea565b611a4a9190612c09565b90506000611a5a60655460ff1690565b611b495760cb5460405163ed47d90960e01b8152600481018490526001600160a01b039091169063ed47d90990602401600060405180830381600087803b158015611aa457600080fd5b505af1158015611ab8573d6000803e3d6000fd5b505060c9546040516370a0823160e01b81523060048201526001600160a01b0390911692506370a08231915060240160206040518083038186803b158015611aff57600080fd5b505afa158015611b13573d6000803e3d6000fd5b505050506040513d601f19601f82011682018060405250810190611b379190612bbb565b9050611b448360006122eb565b611be7565b60c9546040516370a0823160e01b8152306004820152670de0b6b3a76400009184916001600160a01b03909116906370a082319060240160206040518083038186803b158015611b9857600080fd5b505afa158015611bac573d6000803e3d6000fd5b505050506040513d601f19601f82011682018060405250810190611bd09190612bbb565b611bda9190612bea565b611be49190612c09565b90505b60c954611bfe906001600160a01b03168783612451565b60c954604080516001600160a01b038981168252602082018790529092168282015260608201879052517f457f950b75085c30ff780acd57bde642ff1316cc4aad9f286af2c1ffc4163a789181900360800190a150506001805550505050565b6097546001600160a01b0316331480611c81575060ca546001600160a01b031633145b611c9d5760405162461bcd60e51b815260040161044090612b8e565b611ca5611f7a565b611cad612481565b60cb60009054906101000a90046001600160a01b03166001600160a01b031663db2e21bc6040518163ffffffff1660e01b8152600401600060405180830381600087803b158015611cfd57600080fd5b505af1158015611d11573d6000803e3d6000fd5b5050600060cf555050565b611d24611d95565b6001600160a01b038116611d895760405162461bcd60e51b815260206004820152602660248201527f4f776e61626c653a206e6577206f776e657220697320746865207a65726f206160448201526564647265737360d01b6064820152608401610440565b611d9281612364565b50565b6097546001600160a01b031633146107385760405162461bcd60e51b815260206004820181905260248201527f4f776e61626c653a2063616c6c6572206973206e6f7420746865206f776e65726044820152606401610440565b600054610100900460ff16611e165760405162461bcd60e51b815260040161044090612ee5565b6107386124be565b801580611ea75750604051636eb1769f60e11b81523060048201526001600160a01b03838116602483015284169063dd62ed3e9060440160206040518083038186803b158015611e6d57600080fd5b505afa158015611e81573d6000803e3d6000fd5b505050506040513d601f19601f82011682018060405250810190611ea59190612bbb565b155b611f125760405162461bcd60e51b815260206004820152603660248201527f5361666545524332303a20617070726f76652066726f6d206e6f6e2d7a65726f60448201527520746f206e6f6e2d7a65726f20616c6c6f77616e636560501b6064820152608401610440565b6040516001600160a01b038316602482015260448101829052611f7590849063095ea7b360e01b906064015b60408051601f198184030181529190526020810180516001600160e01b03166001600160e01b0319909316929092179091526124ee565b505050565b60655460ff16156107385760405162461bcd60e51b815260206004820152601060248201526f14185d5cd8589b194e881c185d5cd95960821b6044820152606401610440565b60cb5460408051632f4912bd60e21b815290516000926001600160a01b03169163bd244af4916004808301926020929190829003018186803b15801561200557600080fd5b505afa158015612019573d6000803e3d6000fd5b505050506040513d601f19601f8201168201806040525081019061203d9190612bbb565b60cf549091506000818311156120965760006120598385612ece565b905061271060cd548261206c9190612bea565b6120769190612c09565b91508160d0600082825461208a9190612d59565b90915550505060cf8390555b60408051848152602081018490529081018290527fa3e3c8c92ed1e364d04865f99cd96c3ae8f5a7d800f4a1d8148a58c6de6f1b71906060015b60405180910390a1505050565b60d05460009060609080156122aa576000806120f761162e565b60c9549193509150600090839061211990600160a01b900460ff166012612c2b565b61212490600a612d34565b61212e9190612bea565b61213983600a612d34565b6121439086612bea565b61214d9190612c09565b8751909150889081831015612171576000955061216a838b612ece565b99506121d2565b61217c84600a612d34565b60c954869061219690600160a01b900460ff166012612c2b565b6121a190600a612d34565b6121ab908d612bea565b6121b59190612bea565b6121bf9190612c09565b6121c99087612ece565b60009a90965092505b60d086905560005b8181101561224157828b8b83815181106121f6576121f6612d43565b60200260200101516122089190612bea565b6122129190612c09565b8a828151811061222457612224612d43565b60209081029190910101528061223981612d71565b9150506121da565b5060ce5460c95461225f916001600160a01b03918216911685612451565b60c954604080518581526001600160a01b0390921660208301527f6e027f1905abd7233c51c9483e29a545074ed10d39db528c9791a246b26741ff910160405180910390a150505050505b50929391925050565b6040516001600160a01b0380851660248301528316604482015260648101829052610edb9085906323b872dd60e01b90608401611f3e565b60cf5460018215151461231b578260cf5411612308576000612329565b8260cf546123169190612ece565b612329565b8260cf546123299190612d59565b60cf81905560408051918252602082018390527f07b7fa586c4fdef11992d9448b97ba78814c23ddec7e1d4bf195fda6716e472691016120d0565b609780546001600160a01b038381166001600160a01b0319831681179093556040519116919082907f8be0079c531659141344cd1fd0a4f28419497f9722a3daafe3b4186f6b6457e090600090a35050565b60655460ff166107385760405162461bcd60e51b815260206004820152601460248201527314185d5cd8589b194e881b9bdd081c185d5cd95960621b6044820152606401610440565b6124076123b6565b6065805460ff191690557f5db9ee0a495bf2e6ff9c91a7834c1ba4fdd244a5e8aa4e537bd38aeae4b073aa335b6040516001600160a01b03909116815260200160405180910390a1565b6040516001600160a01b038316602482015260448101829052611f7590849063a9059cbb60e01b90606401611f3e565b612489611f7a565b6065805460ff191660011790557f62e78cea01bee320cd4e420270b5ea74000d11b0c9f74754ebdbfc544b05a2586124343390565b600054610100900460ff166124e55760405162461bcd60e51b815260040161044090612ee5565b61073833612364565b6000612543826040518060400160405280602081526020017f5361666545524332303a206c6f772d6c6576656c2063616c6c206661696c6564815250856001600160a01b03166125c09092919063ffffffff16565b805190915015611f7557808060200190518101906125619190612f30565b611f755760405162461bcd60e51b815260206004820152602a60248201527f5361666545524332303a204552433230206f7065726174696f6e20646964206e6044820152691bdd081cdd58d8d9595960b21b6064820152608401610440565b60606125cf84846000856125d9565b90505b9392505050565b60608247101561263a5760405162461bcd60e51b815260206004820152602660248201527f416464726573733a20696e73756666696369656e742062616c616e636520666f6044820152651c8818d85b1b60d21b6064820152608401610440565b6001600160a01b0385163b6126915760405162461bcd60e51b815260206004820152601d60248201527f416464726573733a2063616c6c20746f206e6f6e2d636f6e74726163740000006044820152606401610440565b600080866001600160a01b031685876040516126ad9190612f7e565b60006040518083038185875af1925050503d80600081146126ea576040519150601f19603f3d011682016040523d82523d6000602084013e6126ef565b606091505b50915091506126ff82828661270a565b979650505050505050565b606083156127195750816125d2565b8251156127295782518084602001fd5b8160405162461bcd60e51b81526004016104409190612f9a565b60006020828403121561275557600080fd5b5035919050565b6001600160a01b0381168114611d9257600080fd5b600080600080600060a0868803121561278957600080fd5b85356127948161275c565b945060208601356127a48161275c565b935060408601356127b48161275c565b925060608601356127c48161275c565b915060808601356127d48161275c565b809150509295509295909350565b6000602082840312156127f457600080fd5b81356125d28161275c565b634e487b7160e01b600052604160045260246000fd5b604051601f8201601f1916810167ffffffffffffffff8111828210171561283e5761283e6127ff565b604052919050565b600067ffffffffffffffff821115612860576128606127ff565b5060051b60200190565b600082601f83011261287b57600080fd5b8135602061289061288b83612846565b612815565b82815260059290921b840181019181810190868411156128af57600080fd5b8286015b848110156128d35780356128c68161275c565b83529183019183016128b3565b509695505050505050565b600082601f8301126128ef57600080fd5b813560206128ff61288b83612846565b82815260059290921b8401810191818101908684111561291e57600080fd5b8286015b848110156128d35780358352918301918301612922565b60008060006060848603121561294e57600080fd5b83356129598161275c565b9250602084013567ffffffffffffffff8082111561297657600080fd5b6129828783880161286a565b9350604086013591508082111561299857600080fd5b506129a5868287016128de565b9150509250925092565b6000806000606084860312156129c457600080fd5b833592506020840135915060408401356129dd8161275c565b809150509250925092565b600080604083850312156129fb57600080fd5b823567ffffffffffffffff80821115612a1357600080fd5b612a1f8683870161286a565b93506020850135915080821115612a3557600080fd5b50612a42858286016128de565b9150509250929050565b600081518084526020808501945080840160005b83811015612a7c57815187529582019590820190600101612a60565b509495945050505050565b600081518084526020808501945080840160005b83811015612a7c5781516001600160a01b031687529582019590820190600101612a9b565b606081526000612ad36060830186612a4c565b8281036020840152612ae58186612a87565b90508281036040840152612af98185612a4c565b9695505050505050565b604081526000612b166040830185612a87565b8281036020840152612b288185612a4c565b95945050505050565b60008060408385031215612b4457600080fd5b8235612b4f8161275c565b946020939093013593505050565b805160ff81168114612b6e57600080fd5b919050565b600060208284031215612b8557600080fd5b6125d282612b5d565b60208082526013908201527227b7363c9037bbb732b91037b91030b236b4b760691b604082015260600190565b600060208284031215612bcd57600080fd5b5051919050565b634e487b7160e01b600052601160045260246000fd5b6000816000190483118215151615612c0457612c04612bd4565b500290565b600082612c2657634e487b7160e01b600052601260045260246000fd5b500490565b600060ff821660ff841680821015612c4557612c45612bd4565b90039392505050565b600181815b80851115612c89578160001904821115612c6f57612c6f612bd4565b80851615612c7c57918102915b93841c9390800290612c53565b509250929050565b600082612ca057506001612d2e565b81612cad57506000612d2e565b8160018114612cc35760028114612ccd57612ce9565b6001915050612d2e565b60ff841115612cde57612cde612bd4565b50506001821b612d2e565b5060208310610133831016604e8410600b8410161715612d0c575081810a612d2e565b612d168383612c4e565b8060001904821115612d2a57612d2a612bd4565b0290505b92915050565b60006125d260ff841683612c91565b634e487b7160e01b600052603260045260246000fd5b60008219821115612d6c57612d6c612bd4565b500190565b6000600019821415612d8557612d85612bd4565b5060010190565b600082601f830112612d9d57600080fd5b81516020612dad61288b83612846565b82815260059290921b84018101918181019086841115612dcc57600080fd5b8286015b848110156128d35780518352918301918301612dd0565b60008060408385031215612dfa57600080fd5b825167ffffffffffffffff80821115612e1257600080fd5b818501915085601f830112612e2657600080fd5b81516020612e3661288b83612846565b82815260059290921b84018101918181019089841115612e5557600080fd5b948201945b83861015612e7c578551612e6d8161275c565b82529482019490820190612e5a565b91880151919650909350505080821115612e9557600080fd5b50612a4285828601612d8c565b60008060408385031215612eb557600080fd5b82519150612ec560208401612b5d565b90509250929050565b600082821015612ee057612ee0612bd4565b500390565b6020808252602b908201527f496e697469616c697a61626c653a20636f6e7472616374206973206e6f74206960408201526a6e697469616c697a696e6760a81b606082015260800190565b600060208284031215612f4257600080fd5b815180151581146125d257600080fd5b60005b83811015612f6d578181015183820152602001612f55565b83811115610edb5750506000910152565b60008251612f90818460208701612f52565b9190910192915050565b6020815260008251806020840152612fb9816040850160208701612f52565b601f01601f1916919091016040019291505056fea2646970667358221220c78d28724e76e9f78fc8fc89a09e05d025c3ef71db907defc0e21c131879ea2564736f6c63430008090033",
  "devdoc": {
    "kind": "dev",
    "methods": {
      "deposit(address,address[],uint256[])": {
        "params": {
          "_USDTAmts": "amounts of USDT should be deposited to each pools. It's 6 decimals"
        }
      },
      "getUSDTPriceInUSD()": {
        "returns": {
          "_0": "the price of USDT in USD."
        }
      },
      "owner()": {
        "details": "Returns the address of the current owner."
      },
      "paused()": {
        "details": "Returns true if the contract is paused, and false otherwise."
      },
      "renounceOwnership()": {
        "details": "Leaves the contract without owner. It will not be possible to call `onlyOwner` functions anymore. Can only be called by the current owner. NOTE: Renouncing ownership will leave the contract without an owner, thereby removing any functionality that is only available to the owner."
      },
      "transferOwnership(address)": {
        "details": "Transfers ownership of the contract to a new account (`newOwner`). Can only be called by the current owner."
      },
      "withdrawPerc(address,uint256)": {
        "params": {
          "_sharePerc": "percentage of assets which should be withdrawn. It's 18 decimals"
        }
      }
    },
    "version": 1
  },
  "userdoc": {
    "kind": "user",
    "methods": {
      "deposit(address,address[],uint256[])": {
        "notice": "The length of array is based on token count. And the lengths should be same on the arraies."
      }
    },
    "version": 1
  },
  "storageLayout": {
    "storage": [
      {
        "astId": 138,
        "contract": "contracts/bni/BNIVault.sol:BNIVault",
        "label": "_initialized",
        "offset": 0,
        "slot": "0",
        "type": "t_uint8"
      },
      {
        "astId": 141,
        "contract": "contracts/bni/BNIVault.sol:BNIVault",
        "label": "_initializing",
        "offset": 1,
        "slot": "0",
        "type": "t_bool"
      },
      {
        "astId": 423,
        "contract": "contracts/bni/BNIVault.sol:BNIVault",
        "label": "_status",
        "offset": 0,
        "slot": "1",
        "type": "t_uint256"
      },
      {
        "astId": 467,
        "contract": "contracts/bni/BNIVault.sol:BNIVault",
        "label": "__gap",
        "offset": 0,
        "slot": "2",
        "type": "t_array(t_uint256)49_storage"
      },
      {
        "astId": 1783,
        "contract": "contracts/bni/BNIVault.sol:BNIVault",
        "label": "__gap",
        "offset": 0,
        "slot": "51",
        "type": "t_array(t_uint256)50_storage"
      },
      {
        "astId": 303,
        "contract": "contracts/bni/BNIVault.sol:BNIVault",
        "label": "_paused",
        "offset": 0,
        "slot": "101",
        "type": "t_bool"
      },
      {
        "astId": 408,
        "contract": "contracts/bni/BNIVault.sol:BNIVault",
        "label": "__gap",
        "offset": 0,
        "slot": "102",
        "type": "t_array(t_uint256)49_storage"
      },
      {
        "astId": 10,
        "contract": "contracts/bni/BNIVault.sol:BNIVault",
        "label": "_owner",
        "offset": 0,
        "slot": "151",
        "type": "t_address"
      },
      {
        "astId": 130,
        "contract": "contracts/bni/BNIVault.sol:BNIVault",
        "label": "__gap",
        "offset": 0,
        "slot": "152",
        "type": "t_array(t_uint256)49_storage"
      },
      {
        "astId": 6308,
        "contract": "contracts/bni/BNIVault.sol:BNIVault",
        "label": "USDT",
        "offset": 0,
        "slot": "201",
        "type": "t_contract(IERC20UpgradeableExt)6295"
      },
      {
        "astId": 6310,
        "contract": "contracts/bni/BNIVault.sol:BNIVault",
        "label": "usdtDecimals",
        "offset": 20,
        "slot": "201",
        "type": "t_uint8"
      },
      {
        "astId": 6312,
        "contract": "contracts/bni/BNIVault.sol:BNIVault",
        "label": "admin",
        "offset": 0,
        "slot": "202",
        "type": "t_address"
      },
      {
        "astId": 6315,
        "contract": "contracts/bni/BNIVault.sol:BNIVault",
        "label": "strategy",
        "offset": 0,
        "slot": "203",
        "type": "t_contract(IStrategy)6287"
      },
      {
        "astId": 6318,
        "contract": "contracts/bni/BNIVault.sol:BNIVault",
        "label": "priceOracle",
        "offset": 0,
        "slot": "204",
        "type": "t_contract(IPriceOracle)8924"
      },
      {
        "astId": 6323,
        "contract": "contracts/bni/BNIVault.sol:BNIVault",
        "label": "profitFeePerc",
        "offset": 0,
        "slot": "205",
        "type": "t_uint256"
      },
      {
        "astId": 6325,
        "contract": "contracts/bni/BNIVault.sol:BNIVault",
        "label": "treasuryWallet",
        "offset": 0,
        "slot": "206",
        "type": "t_address"
      },
      {
        "astId": 6327,
        "contract": "contracts/bni/BNIVault.sol:BNIVault",
        "label": "watermark",
        "offset": 0,
        "slot": "207",
        "type": "t_uint256"
      },
      {
        "astId": 6329,
        "contract": "contracts/bni/BNIVault.sol:BNIVault",
        "label": "fees",
        "offset": 0,
        "slot": "208",
        "type": "t_uint256"
      }
    ],
    "types": {
      "t_address": {
        "encoding": "inplace",
        "label": "address",
        "numberOfBytes": "20"
      },
      "t_array(t_uint256)49_storage": {
        "base": "t_uint256",
        "encoding": "inplace",
        "label": "uint256[49]",
        "numberOfBytes": "1568"
      },
      "t_array(t_uint256)50_storage": {
        "base": "t_uint256",
        "encoding": "inplace",
        "label": "uint256[50]",
        "numberOfBytes": "1600"
      },
      "t_bool": {
        "encoding": "inplace",
        "label": "bool",
        "numberOfBytes": "1"
      },
      "t_contract(IERC20UpgradeableExt)6295": {
        "encoding": "inplace",
        "label": "contract IERC20UpgradeableExt",
        "numberOfBytes": "20"
      },
      "t_contract(IPriceOracle)8924": {
        "encoding": "inplace",
        "label": "contract IPriceOracle",
        "numberOfBytes": "20"
      },
      "t_contract(IStrategy)6287": {
        "encoding": "inplace",
        "label": "contract IStrategy",
        "numberOfBytes": "20"
      },
      "t_uint256": {
        "encoding": "inplace",
        "label": "uint256",
        "numberOfBytes": "32"
      },
      "t_uint8": {
        "encoding": "inplace",
        "label": "uint8",
        "numberOfBytes": "1"
      }
    }
  }
}