{
  "address": "0xF4cb227fF596346125447cD1F73abE2D9D341B57",
  "abi": [
    {
      "anonymous": false,
      "inputs": [
        {
          "indexed": false,
          "internalType": "address",
          "name": "token",
          "type": "address"
        },
        {
          "indexed": false,
          "internalType": "uint256",
          "name": "pid",
          "type": "uint256"
        }
      ],
      "name": "AddToken",
      "type": "event"
    },
    {
      "anonymous": false,
      "inputs": [
        {
          "indexed": false,
          "internalType": "uint256",
          "name": "USDTAmt",
          "type": "uint256"
        }
      ],
      "name": "EmergencyWithdraw",
      "type": "event"
    },
    {
      "anonymous": false,
      "inputs": [
        {
          "indexed": false,
          "internalType": "uint8",
          "name": "version",
          "type": "uint8"
        }
      ],
      "name": "Initialized",
      "type": "event"
    },
    {
      "anonymous": false,
      "inputs": [
        {
          "indexed": true,
          "internalType": "address",
          "name": "previousOwner",
          "type": "address"
        },
        {
          "indexed": true,
          "internalType": "address",
          "name": "newOwner",
          "type": "address"
        }
      ],
      "name": "OwnershipTransferred",
      "type": "event"
    },
    {
      "anonymous": false,
      "inputs": [
        {
          "indexed": false,
          "internalType": "address",
          "name": "token",
          "type": "address"
        },
        {
          "indexed": false,
          "internalType": "uint256",
          "name": "pid",
          "type": "uint256"
        }
      ],
      "name": "RemoveToken",
      "type": "event"
    },
    {
      "anonymous": false,
      "inputs": [
        {
          "indexed": false,
          "internalType": "address",
          "name": "oldAdmin",
          "type": "address"
        },
        {
          "indexed": false,
          "internalType": "address",
          "name": "newAdmin",
          "type": "address"
        }
      ],
      "name": "SetAdminWallet",
      "type": "event"
    },
    {
      "anonymous": false,
      "inputs": [
        {
          "indexed": false,
          "internalType": "address",
          "name": "oldTreasuryWallet",
          "type": "address"
        },
        {
          "indexed": false,
          "internalType": "address",
          "name": "newTreasuryWallet",
          "type": "address"
        }
      ],
      "name": "SetTreasuryWallet",
      "type": "event"
    },
    {
      "anonymous": false,
      "inputs": [
        {
          "indexed": false,
          "internalType": "uint256",
          "name": "sharePerc",
          "type": "uint256"
        },
        {
          "indexed": false,
          "internalType": "uint256",
          "name": "USDTAmt",
          "type": "uint256"
        }
      ],
      "name": "Withdraw",
      "type": "event"
    },
    {
      "inputs": [],
      "name": "SWAP_BASE_TOKEN",
      "outputs": [
        {
          "internalType": "contract IERC20UpgradeableExt",
          "name": "",
          "type": "address"
        }
      ],
      "stateMutability": "view",
      "type": "function"
    },
    {
      "inputs": [],
      "name": "USDT",
      "outputs": [
        {
          "internalType": "contract IERC20UpgradeableExt",
          "name": "",
          "type": "address"
        }
      ],
      "stateMutability": "view",
      "type": "function"
    },
    {
      "inputs": [
        {
          "internalType": "address",
          "name": "_token",
          "type": "address"
        }
      ],
      "name": "addToken",
      "outputs": [],
      "stateMutability": "nonpayable",
      "type": "function"
    },
    {
      "inputs": [],
      "name": "admin",
      "outputs": [
        {
          "internalType": "address",
          "name": "",
          "type": "address"
        }
      ],
      "stateMutability": "view",
      "type": "function"
    },
    {
      "inputs": [],
      "name": "emergencyWithdraw",
      "outputs": [],
      "stateMutability": "nonpayable",
      "type": "function"
    },
    {
      "inputs": [],
      "name": "getAPR",
      "outputs": [
        {
          "internalType": "uint256",
          "name": "",
          "type": "uint256"
        }
      ],
      "stateMutability": "view",
      "type": "function"
    },
    {
      "inputs": [],
      "name": "getAllPoolInUSD",
      "outputs": [
        {
          "internalType": "uint256",
          "name": "",
          "type": "uint256"
        }
      ],
      "stateMutability": "view",
      "type": "function"
    },
    {
      "inputs": [],
      "name": "getCurrentTokenCompositionPerc",
      "outputs": [
        {
          "internalType": "address[]",
          "name": "",
          "type": "address[]"
        },
        {
          "internalType": "uint256[]",
          "name": "percentages",
          "type": "uint256[]"
        }
      ],
      "stateMutability": "view",
      "type": "function"
    },
    {
      "inputs": [],
      "name": "getEachPoolInUSD",
      "outputs": [
        {
          "internalType": "address[]",
          "name": "",
          "type": "address[]"
        },
        {
          "internalType": "uint256[]",
          "name": "pools",
          "type": "uint256[]"
        }
      ],
      "stateMutability": "view",
      "type": "function"
    },
    {
      "inputs": [],
      "name": "getUSDTPriceInUSD",
      "outputs": [
        {
          "internalType": "uint256",
          "name": "",
          "type": "uint256"
        },
        {
          "internalType": "uint8",
          "name": "",
          "type": "uint8"
        }
      ],
      "stateMutability": "view",
      "type": "function"
    },
    {
      "inputs": [
        {
          "internalType": "address",
          "name": "_treasuryWallet",
          "type": "address"
        },
        {
          "internalType": "address",
          "name": "_admin",
          "type": "address"
        },
        {
          "internalType": "address",
          "name": "_priceOracle",
          "type": "address"
        },
        {
          "internalType": "address",
          "name": "_router",
          "type": "address"
        },
        {
          "internalType": "address",
          "name": "_SWAP_BASE_TOKEN",
          "type": "address"
        },
        {
          "internalType": "address",
          "name": "_USDT",
          "type": "address"
        },
        {
          "internalType": "address",
          "name": "_token0",
          "type": "address"
        }
      ],
      "name": "initialize",
      "outputs": [],
      "stateMutability": "nonpayable",
      "type": "function"
    },
    {
      "inputs": [
        {
          "internalType": "address[]",
          "name": "_tokens",
          "type": "address[]"
        },
        {
          "internalType": "uint256[]",
          "name": "_USDTAmts",
          "type": "uint256[]"
        }
      ],
      "name": "invest",
      "outputs": [],
      "stateMutability": "nonpayable",
      "type": "function"
    },
    {
      "inputs": [],
      "name": "owner",
      "outputs": [
        {
          "internalType": "address",
          "name": "",
          "type": "address"
        }
      ],
      "stateMutability": "view",
      "type": "function"
    },
    {
      "inputs": [
        {
          "internalType": "address",
          "name": "",
          "type": "address"
        }
      ],
      "name": "pid",
      "outputs": [
        {
          "internalType": "uint256",
          "name": "",
          "type": "uint256"
        }
      ],
      "stateMutability": "view",
      "type": "function"
    },
    {
      "inputs": [],
      "name": "priceOracle",
      "outputs": [
        {
          "internalType": "contract IPriceOracle",
          "name": "",
          "type": "address"
        }
      ],
      "stateMutability": "view",
      "type": "function"
    },
    {
      "inputs": [
        {
          "internalType": "uint256",
          "name": "_pid",
          "type": "uint256"
        }
      ],
      "name": "removeToken",
      "outputs": [],
      "stateMutability": "nonpayable",
      "type": "function"
    },
    {
      "inputs": [],
      "name": "renounceOwnership",
      "outputs": [],
      "stateMutability": "nonpayable",
      "type": "function"
    },
    {
      "inputs": [],
      "name": "router",
      "outputs": [
        {
          "internalType": "contract IRouter",
          "name": "",
          "type": "address"
        }
      ],
      "stateMutability": "view",
      "type": "function"
    },
    {
      "inputs": [
        {
          "internalType": "address",
          "name": "_admin",
          "type": "address"
        }
      ],
      "name": "setAdmin",
      "outputs": [],
      "stateMutability": "nonpayable",
      "type": "function"
    },
    {
      "inputs": [
        {
          "internalType": "address",
          "name": "_treasuryWallet",
          "type": "address"
        }
      ],
      "name": "setTreasuryWallet",
      "outputs": [],
      "stateMutability": "nonpayable",
      "type": "function"
    },
    {
      "inputs": [
        {
          "internalType": "address",
          "name": "_vault",
          "type": "address"
        }
      ],
      "name": "setVault",
      "outputs": [],
      "stateMutability": "nonpayable",
      "type": "function"
    },
    {
      "inputs": [
        {
          "internalType": "uint256",
          "name": "",
          "type": "uint256"
        }
      ],
      "name": "tokens",
      "outputs": [
        {
          "internalType": "address",
          "name": "",
          "type": "address"
        }
      ],
      "stateMutability": "view",
      "type": "function"
    },
    {
      "inputs": [
        {
          "internalType": "address",
          "name": "newOwner",
          "type": "address"
        }
      ],
      "name": "transferOwnership",
      "outputs": [],
      "stateMutability": "nonpayable",
      "type": "function"
    },
    {
      "inputs": [],
      "name": "treasuryWallet",
      "outputs": [
        {
          "internalType": "address",
          "name": "",
          "type": "address"
        }
      ],
      "stateMutability": "view",
      "type": "function"
    },
    {
      "inputs": [],
      "name": "vault",
      "outputs": [
        {
          "internalType": "address",
          "name": "",
          "type": "address"
        }
      ],
      "stateMutability": "view",
      "type": "function"
    },
    {
      "inputs": [
        {
          "internalType": "uint256",
          "name": "_pid",
          "type": "uint256"
        },
        {
          "internalType": "uint256",
          "name": "_sharePerc",
          "type": "uint256"
        }
      ],
      "name": "withdrawFromPool",
      "outputs": [
        {
          "internalType": "uint256",
          "name": "USDTAmt",
          "type": "uint256"
        }
      ],
      "stateMutability": "nonpayable",
      "type": "function"
    },
    {
      "inputs": [
        {
          "internalType": "uint256",
          "name": "_sharePerc",
          "type": "uint256"
        }
      ],
      "name": "withdrawPerc",
      "outputs": [
        {
          "internalType": "uint256",
          "name": "USDTAmt",
          "type": "uint256"
        }
      ],
      "stateMutability": "nonpayable",
      "type": "function"
    }
  ],
  "transactionHash": "0x204eff4952d064ce46ef61c4c957b90328503c0fe55ca9240aab3fd84104daa1",
  "args": [],
  "numDeployments": 1,
  "solcInputHash": "7d27042cdb095cd9854a58450914aa61",
  "bytecode": "0x608060405234801561001057600080fd5b50612d10806100206000396000f3fe608060405234801561001057600080fd5b50600436106101a95760003560e01c8063aae09236116100f9578063db2e21bc11610097578063f2fde38b11610071578063f2fde38b14610372578063f851a44014610385578063f887ea4014610398578063fbfa77cf146103ab57600080fd5b8063db2e21bc14610344578063ed47d9091461034c578063ef1b31661461035f57600080fd5b8063c54e44eb116100d3578063c54e44eb146102f7578063c89d5b8b1461030a578063d48bfca714610311578063d8274d0a1461032457600080fd5b8063aae09236146102ba578063b47c6a27146102c2578063bd244af4146102e157600080fd5b80634631b24611610166578063704b6c0211610140578063704b6c021461027b578063715018a61461028e5780638da5cb5b14610296578063a8602fea146102a757600080fd5b80634631b2461461023f5780634f64b2be146102555780636817031b1461026857600080fd5b80632630c12f146101ae57806326b89b71146101de57806330703f32146101f3578063358764761461020657806336c5d724146102195780634626402b1461022c575b600080fd5b606b546101c1906001600160a01b031681565b6040516001600160a01b0390911681526020015b60405180910390f35b6101f16101ec3660046125f0565b6103be565b005b6066546101c1906001600160a01b031681565b6101f16102143660046126b0565b610528565b6101f1610227366004612736565b61089c565b6068546101c1906001600160a01b031681565b610247610a94565b6040516101d5929190612793565b6101c1610263366004612736565b610c34565b6101f16102763660046127ea565b610c5e565b6101f16102893660046127ea565b610cef565b6101f1610d7b565b6033546001600160a01b03166101c1565b6101f16102b53660046127ea565b610db1565b610247610e35565b6102ca610ea2565b6040805192835260ff9091166020830152016101d5565b6102e9610f2c565b6040519081526020016101d5565b6067546101c1906001600160a01b031681565b60006102e9565b6101f161031f3660046127ea565b610f89565b6102e96103323660046127ea565b606d6020526000908152604090205481565b6101f161118f565b6102e961035a366004612736565b611227565b6102e961036d366004612805565b6112ff565b6101f16103803660046127ea565b6113a0565b6069546101c1906001600160a01b031681565b6065546101c1906001600160a01b031681565b606a546101c1906001600160a01b031681565b606a546001600160a01b031633146103f15760405162461bcd60e51b81526004016103e890612827565b60405180910390fd5b8151606c54600090819067ffffffffffffffff81111561041357610413612503565b60405190808252806020026020018201604052801561043c578160200160208202803683370190505b50905060005b838110156104f957600085828151811061045e5761045e61284b565b6020026020010151905080846104749190612877565b93506000606d600089858151811061048e5761048e61284b565b60200260200101516001600160a01b03166001600160a01b03168152602001908152602001600020549050818482815181106104cc576104cc61284b565b602002602001018181516104e09190612877565b9052508291506104f190508161288f565b915050610442565b50606a54606754610518916001600160a01b039182169116308561143b565b610521816114ac565b5050505050565b60006105346001611714565b9050801561054c576000805461ff0019166101001790555b6001600160a01b0385166105935760405162461bcd60e51b815260206004820152600e60248201526d24b73b30b634b2103937baba32b960911b60448201526064016103e8565b6001600160a01b0384166105e95760405162461bcd60e51b815260206004820152601760248201527f496e76616c696420535741505f424153455f544f4b454e00000000000000000060448201526064016103e8565b6001600160a01b03831661062e5760405162461bcd60e51b815260206004820152600c60248201526b125b9d985b1a59081554d11560a21b60448201526064016103e8565b6001600160a01b0382166106755760405162461bcd60e51b815260206004820152600e60248201526d0496e76616c696420746f6b656e360941b60448201526064016103e8565b61067d6117a1565b606880546001600160a01b03199081166001600160a01b038b8116919091179092556069805482168a8416179055606b805482168984161790556065805482168884161790556066805482168784161790556067805490911691851691821790556040805163313ce56760e01b8152905163313ce56791600481810192602092909190829003018186803b15801561071457600080fd5b505afa158015610728573d6000803e3d6000fd5b505050506040513d601f19601f8201168201806040525081019061074c91906128bb565b6067805460ff60a01b1916600160a01b60ff93841681029190911791829055900416600611156107be5760405162461bcd60e51b815260206004820152601760248201527f5553445420646563696d616c73206d757374203e3d203600000000000000000060448201526064016103e8565b606c80546001810182556000919091527f2b4a51ab505fc96a0952efda2ba61bcd3078d4c02c39a186ec16f21883fbe0160180546001600160a01b0319166001600160a01b0384161790556108116117d0565b606554606754610830916001600160a01b039182169116600019611894565b60655461084c906001600160a01b038481169116600019611894565b8015610892576000805461ff0019169055604051600181527f7f26b83ff96e1f2b6a682f133852f6798a09c465da95921460cefb38474024989060200160405180910390a15b5050505050505050565b6033546001600160a01b031633146108c65760405162461bcd60e51b81526004016103e8906128d6565b606c548082106109065760405162461bcd60e51b815260206004820152600b60248201526a125b9d985b1a59081c1a5960aa1b60448201526064016103e8565b6000610911836119b8565b905080156109555760405162461bcd60e51b8152602060048201526011602482015270506f6f6c206973206e6f7420656d70747960781b60448201526064016103e8565b6000606c848154811061096a5761096a61284b565b6000918252602090912001546001600160a01b03169050606c61098e60018561290b565b8154811061099e5761099e61284b565b600091825260209091200154606c80546001600160a01b0390921691869081106109ca576109ca61284b565b9060005260206000200160006101000a8154816001600160a01b0302191690836001600160a01b03160217905550606c805480610a0957610a09612922565b60008281526020808220830160001990810180546001600160a01b03191690559092019092556001600160a01b0383168252606d90526040812055610a4c6117d0565b604080516001600160a01b0383168152602081018690527f67f5552e5abc48ba6305130450943fa23b76a0b6eb18c29d3eea39559139fc5a910160405180910390a150505050565b6060806000610aa1611b91565b80519091506000805b82811015610aeb57838181518110610ac457610ac461284b565b602002602001015182610ad79190612877565b915080610ae38161288f565b915050610aaa565b5060008215610b0557610b0083612710612938565b610b08565b60005b90508267ffffffffffffffff811115610b2357610b23612503565b604051908082528060200260200182016040528015610b4c578160200160208202803683370190505b50945060005b83811015610bc8578215610b975782612710868381518110610b7657610b7661284b565b6020026020010151610b88919061295a565b610b929190612938565b610b99565b815b868281518110610bab57610bab61284b565b602090810291909101015280610bc08161288f565b915050610b52565b50606c8581805480602002602001604051908101604052809291908181526020018280548015610c2157602002820191906000526020600020905b81546001600160a01b03168152600190910190602001808311610c03575b5050505050915095509550505050509091565b606c8181548110610c4457600080fd5b6000918252602090912001546001600160a01b0316905081565b6033546001600160a01b03163314610c885760405162461bcd60e51b81526004016103e8906128d6565b606a546001600160a01b031615610ccd5760405162461bcd60e51b815260206004820152600960248201526815985d5b1d081cd95d60ba1b60448201526064016103e8565b606a80546001600160a01b0319166001600160a01b0392909216919091179055565b6033546001600160a01b03163314610d195760405162461bcd60e51b81526004016103e8906128d6565b606980546001600160a01b038381166001600160a01b031983168117909355604080519190921680825260208201939093527f9f0ac88be9159761bacf6c9e7c294c397ebf594607f6b3f2f70e7e0841ea68e891015b60405180910390a15050565b6033546001600160a01b03163314610da55760405162461bcd60e51b81526004016103e8906128d6565b610daf6000611c24565b565b6033546001600160a01b03163314610ddb5760405162461bcd60e51b81526004016103e8906128d6565b606880546001600160a01b038381166001600160a01b031983168117909355604080519190921680825260208201939093527febcecb9db04071cf4b4ecc1e2e1e4603e74c9382d6e36c3531f0b62af4c78ed79101610d6f565b606080606c610e42611b91565b815460408051602080840282018101909252828152918491830182828015610e9357602002820191906000526020600020905b81546001600160a01b03168152600190910190602001808311610e75575b50505050509150915091509091565b606b5460675460405163b3596f0760e01b81526001600160a01b0391821660048201526000928392169063b3596f0790602401604080518083038186803b158015610eec57600080fd5b505afa158015610f00573d6000803e3d6000fd5b505050506040513d601f19601f82011682018060405250810190610f249190612979565b915091509091565b600080610f37611b91565b80519091506000805b82811015610f8157838181518110610f5a57610f5a61284b565b602002602001015182610f6d9190612877565b915080610f798161288f565b915050610f40565b509392505050565b6033546001600160a01b03163314610fb35760405162461bcd60e51b81526004016103e8906128d6565b6001600160a01b0381166000908152606d6020526040902054801580156110055750606c600081548110610fe957610fe961284b565b6000918252602090912001546001600160a01b03838116911614155b6110415760405162461bcd60e51b815260206004820152600d60248201526c105b1c9958591e481859191959609a1b60448201526064016103e8565b606c80546001808201835560008390527f2b4a51ab505fc96a0952efda2ba61bcd3078d4c02c39a186ec16f21883fbe01690910180546001600160a01b0319166001600160a01b038616179055905461109a919061290b565b6001600160a01b038381166000818152606d6020526040908190208490556065549051636eb1769f60e11b81523060048201529216602483015291925063dd62ed3e9060440160206040518083038186803b1580156110f857600080fd5b505afa15801561110c573d6000803e3d6000fd5b505050506040513d601f19601f8201168201806040525081019061113091906129a5565b61115057606554611150906001600160a01b038481169116600019611894565b604080516001600160a01b0384168152602081018390527fe1bea1af9b1d1aede8b7fa043080de8690470a8ae61449360b3d0c0bf8104b469101610d6f565b606a546001600160a01b031633146111b95760405162461bcd60e51b81526004016103e890612827565b60006111cc670de0b6b3a7640000611c76565b905080156111f157606a546067546111f1916001600160a01b03918216911683611cae565b6040518181527f99d7f8b71cfb9126984f7a5eed3a40e64a8959e9b0e442221546fb04ec6a489c9060200160405180910390a150565b606a546000906001600160a01b031633146112545760405162461bcd60e51b81526004016103e890612827565b670de0b6b3a76400008211156112985760405162461bcd60e51b81526020600482015260096024820152684f766572203130302560b81b60448201526064016103e8565b6112a182611c76565b606a546067549192506112c1916001600160a01b03908116911683611cae565b60408051838152602081018390527f56ca301a9219608c91e7bcee90e083c19671d2cdcc96752c7af291cee5f9c8c8910160405180910390a1919050565b606a546000906001600160a01b0316331461132c5760405162461bcd60e51b81526004016103e890612827565b670de0b6b3a76400008211156113705760405162461bcd60e51b81526020600482015260096024820152684f766572203130302560b81b60448201526064016103e8565b61137a8383611cde565b606a5460675491925061139a916001600160a01b03908116911683611cae565b92915050565b6033546001600160a01b031633146113ca5760405162461bcd60e51b81526004016103e8906128d6565b6001600160a01b03811661142f5760405162461bcd60e51b815260206004820152602660248201527f4f776e61626c653a206e6577206f776e657220697320746865207a65726f206160448201526564647265737360d01b60648201526084016103e8565b61143881611c24565b50565b6040516001600160a01b03808516602483015283166044820152606481018290526114a69085906323b872dd60e01b906084015b60408051601f198184030181529190526020810180516001600160e01b03166001600160e01b031990931692909217909152611fb1565b50505050565b805160005b8181101561170f576000606c82815481106114ce576114ce61284b565b6000918252602090912001546067546001600160a01b039182169250168114156114f857506116fd565b600084838151811061150c5761150c61284b565b60200260200101519050600080611521610ea2565b606b5460405163b3596f0760e01b81526001600160a01b038881166004830152939550919350600092839291169063b3596f0790602401604080518083038186803b15801561156f57600080fd5b505afa158015611583573d6000803e3d6000fd5b505050506040513d601f19601f820116820180604052508101906115a79190612979565b915091506000866001600160a01b031663313ce5676040518163ffffffff1660e01b815260040160206040518083038186803b1580156115e657600080fd5b505afa1580156115fa573d6000803e3d6000fd5b505050506040513d601f19601f8201168201806040525081019061161e91906128bb565b9050600061162c82846129be565b61163790600a612ac7565b611641908761295a565b60675490915060009061165e90600160a01b900460ff16876129be565b61166990600a612ac7565b611673908661295a565b9050600061168282606461295a565b61168c848b61295a565b61169790605f61295a565b6116a19190612938565b6066549091506001600160a01b038b8116911614156116d8576067546116d2906001600160a01b03168b8b84612083565b506116f2565b6067546116f0906001600160a01b03168b8b846121b0565b505b505050505050505050505b806117078161288f565b9150506114b1565b505050565b60008054610100900460ff161561175b578160ff1660011480156117375750303b155b6117535760405162461bcd60e51b81526004016103e890612ad6565b506000919050565b60005460ff8084169116106117825760405162461bcd60e51b81526004016103e890612ad6565b506000805460ff191660ff92909216919091179055600190565b919050565b600054610100900460ff166117c85760405162461bcd60e51b81526004016103e890612b24565b610daf6122fc565b6000606c80548060200260200160405190810160405280929190818152602001828054801561182857602002820191906000526020600020905b81546001600160a01b0316815260019091019060200180831161180a575b505083519394506000925050505b8181101561170f5780606d60008584815181106118555761185561284b565b60200260200101516001600160a01b03166001600160a01b0316815260200190815260200160002081905550808061188c9061288f565b915050611836565b80158061191d5750604051636eb1769f60e11b81523060048201526001600160a01b03838116602483015284169063dd62ed3e9060440160206040518083038186803b1580156118e357600080fd5b505afa1580156118f7573d6000803e3d6000fd5b505050506040513d601f19601f8201168201806040525081019061191b91906129a5565b155b6119885760405162461bcd60e51b815260206004820152603660248201527f5361666545524332303a20617070726f76652066726f6d206e6f6e2d7a65726f60448201527520746f206e6f6e2d7a65726f20616c6c6f77616e636560501b60648201526084016103e8565b6040516001600160a01b03831660248201526044810182905261170f90849063095ea7b360e01b9060640161146f565b600080606c83815481106119ce576119ce61284b565b60009182526020822001546040516370a0823160e01b81523060048201526001600160a01b03909116925082906370a082319060240160206040518083038186803b158015611a1c57600080fd5b505afa158015611a30573d6000803e3d6000fd5b505050506040513d601f19601f82011682018060405250810190611a5491906129a5565b90508015611b8a57606b5460405163b3596f0760e01b81526001600160a01b038481166004830152600092839291169063b3596f0790602401604080518083038186803b158015611aa457600080fd5b505afa158015611ab8573d6000803e3d6000fd5b505050506040513d601f19601f82011682018060405250810190611adc9190612979565b915091506000846001600160a01b031663313ce5676040518163ffffffff1660e01b815260040160206040518083038186803b158015611b1b57600080fd5b505afa158015611b2f573d6000803e3d6000fd5b505050506040513d601f19601f82011682018060405250810190611b5391906128bb565b9050611b6082600a612ac7565b83611b70868460ff16601261232c565b611b7a919061295a565b611b849190612938565b95505050505b5050919050565b606c546060908067ffffffffffffffff811115611bb057611bb0612503565b604051908082528060200260200182016040528015611bd9578160200160208202803683370190505b50915060005b81811015611c1f57611bf0816119b8565b838281518110611c0257611c0261284b565b602090810291909101015280611c178161288f565b915050611bdf565b505090565b603380546001600160a01b038381166001600160a01b0319831681179093556040519116919082907f8be0079c531659141344cd1fd0a4f28419497f9722a3daafe3b4186f6b6457e090600090a35050565b606c54600090815b81811015611b8a57611c908185611cde565b611c9a9084612877565b925080611ca68161288f565b915050611c7e565b6040516001600160a01b03831660248201526044810182905261170f90849063a9059cbb60e01b9060640161146f565b600080606c8481548110611cf457611cf461284b565b60009182526020822001546040516370a0823160e01b81523060048201526001600160a01b039091169250670de0b6b3a764000090859084906370a082319060240160206040518083038186803b158015611d4e57600080fd5b505afa158015611d62573d6000803e3d6000fd5b505050506040513d601f19601f82011682018060405250810190611d8691906129a5565b611d90919061295a565b611d9a9190612938565b90508015611fa9576067546001600160a01b0383811691161415611dc057809250611fa9565b600080611dcb610ea2565b606b5460405163b3596f0760e01b81526001600160a01b038881166004830152939550919350600092839291169063b3596f0790602401604080518083038186803b158015611e1957600080fd5b505afa158015611e2d573d6000803e3d6000fd5b505050506040513d601f19601f82011682018060405250810190611e519190612979565b915091506000866001600160a01b031663313ce5676040518163ffffffff1660e01b815260040160206040518083038186803b158015611e9057600080fd5b505afa158015611ea4573d6000803e3d6000fd5b505050506040513d601f19601f82011682018060405250810190611ec891906128bb565b606754909150600090611ee590600160a01b900460ff16866129be565b611ef090600a612ac7565b611efa908561295a565b90506000611f0883856129be565b611f1390600a612ac7565b611f1d908861295a565b90506000611f2c82606461295a565b611f36848b61295a565b611f4190605f61295a565b611f4b9190612938565b6066549091506001600160a01b038b811691161415611f8457606754611f7d908b906001600160a01b03168b84612083565b9a50611fa0565b606754611f9d908b906001600160a01b03168b846121b0565b9a505b50505050505050505b505092915050565b6000612006826040518060400160405280602081526020017f5361666545524332303a206c6f772d6c6576656c2063616c6c206661696c6564815250856001600160a01b03166123829092919063ffffffff16565b80519091501561170f57808060200190518101906120249190612b6f565b61170f5760405162461bcd60e51b815260206004820152602a60248201527f5361666545524332303a204552433230206f7065726174696f6e20646964206e6044820152691bdd081cdd58d8d9595960b21b60648201526084016103e8565b6040805160028082526060820183526000928392919060208301908036833701905050905085816000815181106120bc576120bc61284b565b60200260200101906001600160a01b031690816001600160a01b03168152505084816001815181106120f0576120f061284b565b6001600160a01b0392831660209182029290920101526065546040516338ed173960e01b81529116906338ed1739906121359087908790869030904290600401612b91565b600060405180830381600087803b15801561214f57600080fd5b505af1158015612163573d6000803e3d6000fd5b505050506040513d6000823e601f3d908101601f1916820160405261218b9190810190612bcd565b60018151811061219d5761219d61284b565b6020026020010151915050949350505050565b604080516003808252608082019092526000918291906020820160608036833701905050905085816000815181106121ea576121ea61284b565b6001600160a01b03928316602091820292909201015260665482519116908290600190811061221b5761221b61284b565b60200260200101906001600160a01b031690816001600160a01b031681525050848160028151811061224f5761224f61284b565b6001600160a01b0392831660209182029290920101526065546040516338ed173960e01b81529116906338ed1739906122949087908790869030904290600401612b91565b600060405180830381600087803b1580156122ae57600080fd5b505af11580156122c2573d6000803e3d6000fd5b505050506040513d6000823e601f3d908101601f191682016040526122ea9190810190612bcd565b60028151811061219d5761219d61284b565b600054610100900460ff166123235760405162461bcd60e51b81526004016103e890612b24565b610daf33611c24565b60008183101561235c57612340838361290b565b61234b90600a612c53565b612355908561295a565b905061237b565b612366828461290b565b61237190600a612c53565b6123559085612938565b9392505050565b60606123918484600085612399565b949350505050565b6060824710156123fa5760405162461bcd60e51b815260206004820152602660248201527f416464726573733a20696e73756666696369656e742062616c616e636520666f6044820152651c8818d85b1b60d21b60648201526084016103e8565b6001600160a01b0385163b6124515760405162461bcd60e51b815260206004820152601d60248201527f416464726573733a2063616c6c20746f206e6f6e2d636f6e747261637400000060448201526064016103e8565b600080866001600160a01b0316858760405161246d9190612c8b565b60006040518083038185875af1925050503d80600081146124aa576040519150601f19603f3d011682016040523d82523d6000602084013e6124af565b606091505b50915091506124bf8282866124ca565b979650505050505050565b606083156124d957508161237b565b8251156124e95782518084602001fd5b8160405162461bcd60e51b81526004016103e89190612ca7565b634e487b7160e01b600052604160045260246000fd5b604051601f8201601f1916810167ffffffffffffffff8111828210171561254257612542612503565b604052919050565b600067ffffffffffffffff82111561256457612564612503565b5060051b60200190565b80356001600160a01b038116811461179c57600080fd5b600082601f83011261259657600080fd5b813560206125ab6125a68361254a565b612519565b82815260059290921b840181019181810190868411156125ca57600080fd5b8286015b848110156125e557803583529183019183016125ce565b509695505050505050565b6000806040838503121561260357600080fd5b823567ffffffffffffffff8082111561261b57600080fd5b818501915085601f83011261262f57600080fd5b8135602061263f6125a68361254a565b82815260059290921b8401810191818101908984111561265e57600080fd5b948201945b83861015612683576126748661256e565b82529482019490820190612663565b9650508601359250508082111561269957600080fd5b506126a685828601612585565b9150509250929050565b600080600080600080600060e0888a0312156126cb57600080fd5b6126d48861256e565b96506126e26020890161256e565b95506126f06040890161256e565b94506126fe6060890161256e565b935061270c6080890161256e565b925061271a60a0890161256e565b915061272860c0890161256e565b905092959891949750929550565b60006020828403121561274857600080fd5b5035919050565b600081518084526020808501945080840160005b838110156127885781516001600160a01b031687529582019590820190600101612763565b509495945050505050565b6040815260006127a6604083018561274f565b82810360208481019190915284518083528582019282019060005b818110156127dd578451835293830193918301916001016127c1565b5090979650505050505050565b6000602082840312156127fc57600080fd5b61237b8261256e565b6000806040838503121561281857600080fd5b50508035926020909101359150565b6020808252600a908201526913db9b1e481d985d5b1d60b21b604082015260600190565b634e487b7160e01b600052603260045260246000fd5b634e487b7160e01b600052601160045260246000fd5b6000821982111561288a5761288a612861565b500190565b60006000198214156128a3576128a3612861565b5060010190565b805160ff8116811461179c57600080fd5b6000602082840312156128cd57600080fd5b61237b826128aa565b6020808252818101527f4f776e61626c653a2063616c6c6572206973206e6f7420746865206f776e6572604082015260600190565b60008282101561291d5761291d612861565b500390565b634e487b7160e01b600052603160045260246000fd5b60008261295557634e487b7160e01b600052601260045260246000fd5b500490565b600081600019048311821515161561297457612974612861565b500290565b6000806040838503121561298c57600080fd5b8251915061299c602084016128aa565b90509250929050565b6000602082840312156129b757600080fd5b5051919050565b600060ff821660ff84168060ff038211156129db576129db612861565b019392505050565b600181815b80851115612a1e578160001904821115612a0457612a04612861565b80851615612a1157918102915b93841c93908002906129e8565b509250929050565b600082612a355750600161139a565b81612a425750600061139a565b8160018114612a585760028114612a6257612a7e565b600191505061139a565b60ff841115612a7357612a73612861565b50506001821b61139a565b5060208310610133831016604e8410600b8410161715612aa1575081810a61139a565b612aab83836129e3565b8060001904821115612abf57612abf612861565b029392505050565b600061237b60ff841683612a26565b6020808252602e908201527f496e697469616c697a61626c653a20636f6e747261637420697320616c72656160408201526d191e481a5b9a5d1a585b1a5e995960921b606082015260800190565b6020808252602b908201527f496e697469616c697a61626c653a20636f6e7472616374206973206e6f74206960408201526a6e697469616c697a696e6760a81b606082015260800190565b600060208284031215612b8157600080fd5b8151801515811461237b57600080fd5b85815284602082015260a060408201526000612bb060a083018661274f565b6001600160a01b0394909416606083015250608001529392505050565b60006020808385031215612be057600080fd5b825167ffffffffffffffff811115612bf757600080fd5b8301601f81018513612c0857600080fd5b8051612c166125a68261254a565b81815260059190911b82018301908381019087831115612c3557600080fd5b928401925b828410156124bf57835182529284019290840190612c3a565b600061237b8383612a26565b60005b83811015612c7a578181015183820152602001612c62565b838111156114a65750506000910152565b60008251612c9d818460208701612c5f565b9190910192915050565b6020815260008251806020840152612cc6816040850160208701612c5f565b601f01601f1916919091016040019291505056fea264697066735822122036b1b21a5713ad3e142a12e780f360f38620b5ba41d3cee47af222a4892f2e3864736f6c63430008090033",
  "devdoc": {
    "kind": "dev",
    "methods": {
      "getUSDTPriceInUSD()": {
        "returns": {
          "_0": "the price of USDT in USD."
        }
      },
      "invest(address[],uint256[])": {
        "params": {
          "_USDTAmts": "amounts of USDT should be deposited to each pools. They have been denominated in USDT decimals"
        }
      },
      "owner()": {
        "details": "Returns the address of the current owner."
      },
      "renounceOwnership()": {
        "details": "Leaves the contract without owner. It will not be possible to call `onlyOwner` functions anymore. Can only be called by the current owner. NOTE: Renouncing ownership will leave the contract without an owner, thereby removing any functionality that is only available to the owner."
      },
      "transferOwnership(address)": {
        "details": "Transfers ownership of the contract to a new account (`newOwner`). Can only be called by the current owner."
      }
    },
    "version": 1
  },
  "userdoc": {
    "kind": "user",
    "methods": {},
    "version": 1
  },
  "storageLayout": {
    "storage": [
      {
        "astId": 130,
        "contract": "contracts/bni/strategy/MaticBNIStrategy.sol:MaticBNIStrategy",
        "label": "_initialized",
        "offset": 0,
        "slot": "0",
        "type": "t_uint8"
      },
      {
        "astId": 133,
        "contract": "contracts/bni/strategy/MaticBNIStrategy.sol:MaticBNIStrategy",
        "label": "_initializing",
        "offset": 1,
        "slot": "0",
        "type": "t_bool"
      },
      {
        "astId": 1657,
        "contract": "contracts/bni/strategy/MaticBNIStrategy.sol:MaticBNIStrategy",
        "label": "__gap",
        "offset": 0,
        "slot": "1",
        "type": "t_array(t_uint256)50_storage"
      },
      {
        "astId": 10,
        "contract": "contracts/bni/strategy/MaticBNIStrategy.sol:MaticBNIStrategy",
        "label": "_owner",
        "offset": 0,
        "slot": "51",
        "type": "t_address"
      },
      {
        "astId": 122,
        "contract": "contracts/bni/strategy/MaticBNIStrategy.sol:MaticBNIStrategy",
        "label": "__gap",
        "offset": 0,
        "slot": "52",
        "type": "t_array(t_uint256)49_storage"
      },
      {
        "astId": 9116,
        "contract": "contracts/bni/strategy/MaticBNIStrategy.sol:MaticBNIStrategy",
        "label": "router",
        "offset": 0,
        "slot": "101",
        "type": "t_contract(IRouter)9099"
      },
      {
        "astId": 9119,
        "contract": "contracts/bni/strategy/MaticBNIStrategy.sol:MaticBNIStrategy",
        "label": "SWAP_BASE_TOKEN",
        "offset": 0,
        "slot": "102",
        "type": "t_contract(IERC20UpgradeableExt)9107"
      },
      {
        "astId": 9122,
        "contract": "contracts/bni/strategy/MaticBNIStrategy.sol:MaticBNIStrategy",
        "label": "USDT",
        "offset": 0,
        "slot": "103",
        "type": "t_contract(IERC20UpgradeableExt)9107"
      },
      {
        "astId": 9124,
        "contract": "contracts/bni/strategy/MaticBNIStrategy.sol:MaticBNIStrategy",
        "label": "usdtDecimals",
        "offset": 20,
        "slot": "103",
        "type": "t_uint8"
      },
      {
        "astId": 9129,
        "contract": "contracts/bni/strategy/MaticBNIStrategy.sol:MaticBNIStrategy",
        "label": "treasuryWallet",
        "offset": 0,
        "slot": "104",
        "type": "t_address"
      },
      {
        "astId": 9131,
        "contract": "contracts/bni/strategy/MaticBNIStrategy.sol:MaticBNIStrategy",
        "label": "admin",
        "offset": 0,
        "slot": "105",
        "type": "t_address"
      },
      {
        "astId": 9133,
        "contract": "contracts/bni/strategy/MaticBNIStrategy.sol:MaticBNIStrategy",
        "label": "vault",
        "offset": 0,
        "slot": "106",
        "type": "t_address"
      },
      {
        "astId": 9136,
        "contract": "contracts/bni/strategy/MaticBNIStrategy.sol:MaticBNIStrategy",
        "label": "priceOracle",
        "offset": 0,
        "slot": "107",
        "type": "t_contract(IPriceOracle)8663"
      },
      {
        "astId": 9139,
        "contract": "contracts/bni/strategy/MaticBNIStrategy.sol:MaticBNIStrategy",
        "label": "tokens",
        "offset": 0,
        "slot": "108",
        "type": "t_array(t_address)dyn_storage"
      },
      {
        "astId": 9143,
        "contract": "contracts/bni/strategy/MaticBNIStrategy.sol:MaticBNIStrategy",
        "label": "pid",
        "offset": 0,
        "slot": "109",
        "type": "t_mapping(t_address,t_uint256)"
      },
      {
        "astId": 10537,
        "contract": "contracts/bni/strategy/MaticBNIStrategy.sol:MaticBNIStrategy",
        "label": "__gap",
        "offset": 0,
        "slot": "110",
        "type": "t_array(t_uint256)40_storage"
      }
    ],
    "types": {
      "t_address": {
        "encoding": "inplace",
        "label": "address",
        "numberOfBytes": "20"
      },
      "t_array(t_address)dyn_storage": {
        "base": "t_address",
        "encoding": "dynamic_array",
        "label": "address[]",
        "numberOfBytes": "32"
      },
      "t_array(t_uint256)40_storage": {
        "base": "t_uint256",
        "encoding": "inplace",
        "label": "uint256[40]",
        "numberOfBytes": "1280"
      },
      "t_array(t_uint256)49_storage": {
        "base": "t_uint256",
        "encoding": "inplace",
        "label": "uint256[49]",
        "numberOfBytes": "1568"
      },
      "t_array(t_uint256)50_storage": {
        "base": "t_uint256",
        "encoding": "inplace",
        "label": "uint256[50]",
        "numberOfBytes": "1600"
      },
      "t_bool": {
        "encoding": "inplace",
        "label": "bool",
        "numberOfBytes": "1"
      },
      "t_contract(IERC20UpgradeableExt)9107": {
        "encoding": "inplace",
        "label": "contract IERC20UpgradeableExt",
        "numberOfBytes": "20"
      },
      "t_contract(IPriceOracle)8663": {
        "encoding": "inplace",
        "label": "contract IPriceOracle",
        "numberOfBytes": "20"
      },
      "t_contract(IRouter)9099": {
        "encoding": "inplace",
        "label": "contract IRouter",
        "numberOfBytes": "20"
      },
      "t_mapping(t_address,t_uint256)": {
        "encoding": "mapping",
        "key": "t_address",
        "label": "mapping(address => uint256)",
        "numberOfBytes": "32",
        "value": "t_uint256"
      },
      "t_uint256": {
        "encoding": "inplace",
        "label": "uint256",
        "numberOfBytes": "32"
      },
      "t_uint8": {
        "encoding": "inplace",
        "label": "uint8",
        "numberOfBytes": "1"
      }
    }
  }
}