{
  "address": "0xAA68b3A157904C176E95007AC0cca7cBdd112d17",
  "abi": [
    {
      "anonymous": false,
      "inputs": [
        {
          "indexed": true,
          "internalType": "address",
          "name": "owner",
          "type": "address"
        },
        {
          "indexed": true,
          "internalType": "address",
          "name": "spender",
          "type": "address"
        },
        {
          "indexed": false,
          "internalType": "uint256",
          "name": "value",
          "type": "uint256"
        }
      ],
      "name": "Approval",
      "type": "event"
    },
    {
      "anonymous": false,
      "inputs": [
        {
          "indexed": false,
          "internalType": "address",
          "name": "_user",
          "type": "address"
        },
        {
          "indexed": false,
          "internalType": "uint256",
          "name": "_amount",
          "type": "uint256"
        },
        {
          "indexed": false,
          "internalType": "uint256",
          "name": "_shares",
          "type": "uint256"
        }
      ],
      "name": "Deposit",
      "type": "event"
    },
    {
      "anonymous": false,
      "inputs": [
        {
          "indexed": false,
          "internalType": "uint256",
          "name": "_amount",
          "type": "uint256"
        }
      ],
      "name": "EmergencyWithdraw",
      "type": "event"
    },
    {
      "anonymous": false,
      "inputs": [
        {
          "indexed": false,
          "internalType": "uint8",
          "name": "version",
          "type": "uint8"
        }
      ],
      "name": "Initialized",
      "type": "event"
    },
    {
      "anonymous": false,
      "inputs": [
        {
          "indexed": false,
          "internalType": "uint256",
          "name": "_amount",
          "type": "uint256"
        }
      ],
      "name": "Invest",
      "type": "event"
    },
    {
      "anonymous": false,
      "inputs": [
        {
          "indexed": true,
          "internalType": "address",
          "name": "previousOwner",
          "type": "address"
        },
        {
          "indexed": true,
          "internalType": "address",
          "name": "newOwner",
          "type": "address"
        }
      ],
      "name": "OwnershipTransferred",
      "type": "event"
    },
    {
      "anonymous": false,
      "inputs": [
        {
          "indexed": false,
          "internalType": "address",
          "name": "account",
          "type": "address"
        }
      ],
      "name": "Paused",
      "type": "event"
    },
    {
      "anonymous": false,
      "inputs": [
        {
          "indexed": false,
          "internalType": "address",
          "name": "_oldAdmin",
          "type": "address"
        },
        {
          "indexed": false,
          "internalType": "address",
          "name": "_newAdmin",
          "type": "address"
        }
      ],
      "name": "SetAdmin",
      "type": "event"
    },
    {
      "anonymous": false,
      "inputs": [
        {
          "indexed": false,
          "internalType": "address",
          "name": "_wallet",
          "type": "address"
        }
      ],
      "name": "SetTreasuryWallet",
      "type": "event"
    },
    {
      "anonymous": false,
      "inputs": [
        {
          "indexed": false,
          "internalType": "uint256",
          "name": "_fee",
          "type": "uint256"
        }
      ],
      "name": "SetYieldFeePerc",
      "type": "event"
    },
    {
      "anonymous": false,
      "inputs": [
        {
          "indexed": true,
          "internalType": "address",
          "name": "from",
          "type": "address"
        },
        {
          "indexed": true,
          "internalType": "address",
          "name": "to",
          "type": "address"
        },
        {
          "indexed": false,
          "internalType": "uint256",
          "name": "value",
          "type": "uint256"
        }
      ],
      "name": "Transfer",
      "type": "event"
    },
    {
      "anonymous": false,
      "inputs": [
        {
          "indexed": false,
          "internalType": "address",
          "name": "account",
          "type": "address"
        }
      ],
      "name": "Unpaused",
      "type": "event"
    },
    {
      "anonymous": false,
      "inputs": [
        {
          "indexed": false,
          "internalType": "address",
          "name": "_user",
          "type": "address"
        },
        {
          "indexed": false,
          "internalType": "uint256",
          "name": "_amount",
          "type": "uint256"
        },
        {
          "indexed": false,
          "internalType": "uint256",
          "name": "_shares",
          "type": "uint256"
        }
      ],
      "name": "Withdraw",
      "type": "event"
    },
    {
      "anonymous": false,
      "inputs": [
        {
          "indexed": false,
          "internalType": "uint256",
          "name": "_amount",
          "type": "uint256"
        }
      ],
      "name": "Yield",
      "type": "event"
    },
    {
      "anonymous": false,
      "inputs": [
        {
          "indexed": false,
          "internalType": "uint256",
          "name": "_amount",
          "type": "uint256"
        }
      ],
      "name": "YieldFee",
      "type": "event"
    },
    {
      "inputs": [],
      "name": "Router",
      "outputs": [
        {
          "internalType": "contract IUniRouter",
          "name": "",
          "type": "address"
        }
      ],
      "stateMutability": "view",
      "type": "function"
    },
    {
      "inputs": [],
      "name": "WMATIC",
      "outputs": [
        {
          "internalType": "contract IERC20Upgradeable",
          "name": "",
          "type": "address"
        }
      ],
      "stateMutability": "view",
      "type": "function"
    },
    {
      "inputs": [],
      "name": "aPool",
      "outputs": [
        {
          "internalType": "contract IPool",
          "name": "",
          "type": "address"
        }
      ],
      "stateMutability": "view",
      "type": "function"
    },
    {
      "inputs": [],
      "name": "aRewardsController",
      "outputs": [
        {
          "internalType": "contract IRewardsController",
          "name": "",
          "type": "address"
        }
      ],
      "stateMutability": "view",
      "type": "function"
    },
    {
      "inputs": [],
      "name": "aToken",
      "outputs": [
        {
          "internalType": "contract IAToken",
          "name": "",
          "type": "address"
        }
      ],
      "stateMutability": "view",
      "type": "function"
    },
    {
      "inputs": [],
      "name": "admin",
      "outputs": [
        {
          "internalType": "address",
          "name": "",
          "type": "address"
        }
      ],
      "stateMutability": "view",
      "type": "function"
    },
    {
      "inputs": [
        {
          "internalType": "address",
          "name": "owner",
          "type": "address"
        },
        {
          "internalType": "address",
          "name": "spender",
          "type": "address"
        }
      ],
      "name": "allowance",
      "outputs": [
        {
          "internalType": "uint256",
          "name": "",
          "type": "uint256"
        }
      ],
      "stateMutability": "view",
      "type": "function"
    },
    {
      "inputs": [
        {
          "internalType": "address",
          "name": "spender",
          "type": "address"
        },
        {
          "internalType": "uint256",
          "name": "amount",
          "type": "uint256"
        }
      ],
      "name": "approve",
      "outputs": [
        {
          "internalType": "bool",
          "name": "",
          "type": "bool"
        }
      ],
      "stateMutability": "nonpayable",
      "type": "function"
    },
    {
      "inputs": [
        {
          "internalType": "address",
          "name": "account",
          "type": "address"
        }
      ],
      "name": "balanceOf",
      "outputs": [
        {
          "internalType": "uint256",
          "name": "",
          "type": "uint256"
        }
      ],
      "stateMutability": "view",
      "type": "function"
    },
    {
      "inputs": [],
      "name": "decimals",
      "outputs": [
        {
          "internalType": "uint8",
          "name": "",
          "type": "uint8"
        }
      ],
      "stateMutability": "view",
      "type": "function"
    },
    {
      "inputs": [
        {
          "internalType": "address",
          "name": "spender",
          "type": "address"
        },
        {
          "internalType": "uint256",
          "name": "subtractedValue",
          "type": "uint256"
        }
      ],
      "name": "decreaseAllowance",
      "outputs": [
        {
          "internalType": "bool",
          "name": "",
          "type": "bool"
        }
      ],
      "stateMutability": "nonpayable",
      "type": "function"
    },
    {
      "inputs": [
        {
          "internalType": "uint256",
          "name": "_amount",
          "type": "uint256"
        }
      ],
      "name": "deposit",
      "outputs": [],
      "stateMutability": "nonpayable",
      "type": "function"
    },
    {
      "inputs": [],
      "name": "emergencyWithdraw",
      "outputs": [],
      "stateMutability": "nonpayable",
      "type": "function"
    },
    {
      "inputs": [],
      "name": "getAPR",
      "outputs": [
        {
          "internalType": "uint256",
          "name": "",
          "type": "uint256"
        }
      ],
      "stateMutability": "view",
      "type": "function"
    },
    {
      "inputs": [],
      "name": "getAllPool",
      "outputs": [
        {
          "internalType": "uint256",
          "name": "",
          "type": "uint256"
        }
      ],
      "stateMutability": "view",
      "type": "function"
    },
    {
      "inputs": [],
      "name": "getAllPoolInUSD",
      "outputs": [
        {
          "internalType": "uint256",
          "name": "",
          "type": "uint256"
        }
      ],
      "stateMutability": "view",
      "type": "function"
    },
    {
      "inputs": [],
      "name": "getPendingRewards",
      "outputs": [
        {
          "internalType": "uint256",
          "name": "",
          "type": "uint256"
        }
      ],
      "stateMutability": "view",
      "type": "function"
    },
    {
      "inputs": [
        {
          "internalType": "bool",
          "name": "inUSD",
          "type": "bool"
        }
      ],
      "name": "getPricePerFullShare",
      "outputs": [
        {
          "internalType": "uint256",
          "name": "",
          "type": "uint256"
        }
      ],
      "stateMutability": "view",
      "type": "function"
    },
    {
      "inputs": [
        {
          "internalType": "address",
          "name": "spender",
          "type": "address"
        },
        {
          "internalType": "uint256",
          "name": "addedValue",
          "type": "uint256"
        }
      ],
      "name": "increaseAllowance",
      "outputs": [
        {
          "internalType": "bool",
          "name": "",
          "type": "bool"
        }
      ],
      "stateMutability": "nonpayable",
      "type": "function"
    },
    {
      "inputs": [
        {
          "internalType": "string",
          "name": "_name",
          "type": "string"
        },
        {
          "internalType": "string",
          "name": "_symbol",
          "type": "string"
        },
        {
          "internalType": "address",
          "name": "_treasury",
          "type": "address"
        },
        {
          "internalType": "address",
          "name": "_admin",
          "type": "address"
        },
        {
          "internalType": "address",
          "name": "_priceOracle",
          "type": "address"
        },
        {
          "internalType": "contract IAToken",
          "name": "_aToken",
          "type": "address"
        }
      ],
      "name": "initialize",
      "outputs": [],
      "stateMutability": "nonpayable",
      "type": "function"
    },
    {
      "inputs": [],
      "name": "name",
      "outputs": [
        {
          "internalType": "string",
          "name": "",
          "type": "string"
        }
      ],
      "stateMutability": "view",
      "type": "function"
    },
    {
      "inputs": [],
      "name": "owner",
      "outputs": [
        {
          "internalType": "address",
          "name": "",
          "type": "address"
        }
      ],
      "stateMutability": "view",
      "type": "function"
    },
    {
      "inputs": [],
      "name": "paused",
      "outputs": [
        {
          "internalType": "bool",
          "name": "",
          "type": "bool"
        }
      ],
      "stateMutability": "view",
      "type": "function"
    },
    {
      "inputs": [],
      "name": "priceOracle",
      "outputs": [
        {
          "internalType": "contract IPriceOracle",
          "name": "",
          "type": "address"
        }
      ],
      "stateMutability": "view",
      "type": "function"
    },
    {
      "inputs": [],
      "name": "reinvest",
      "outputs": [],
      "stateMutability": "nonpayable",
      "type": "function"
    },
    {
      "inputs": [],
      "name": "renounceOwnership",
      "outputs": [],
      "stateMutability": "nonpayable",
      "type": "function"
    },
    {
      "inputs": [
        {
          "internalType": "address",
          "name": "_newAdmin",
          "type": "address"
        }
      ],
      "name": "setAdmin",
      "outputs": [],
      "stateMutability": "nonpayable",
      "type": "function"
    },
    {
      "inputs": [
        {
          "internalType": "uint256",
          "name": "_yieldFeePerc",
          "type": "uint256"
        }
      ],
      "name": "setFee",
      "outputs": [],
      "stateMutability": "nonpayable",
      "type": "function"
    },
    {
      "inputs": [
        {
          "internalType": "address",
          "name": "_wallet",
          "type": "address"
        }
      ],
      "name": "setTreasuryWallet",
      "outputs": [],
      "stateMutability": "nonpayable",
      "type": "function"
    },
    {
      "inputs": [],
      "name": "symbol",
      "outputs": [
        {
          "internalType": "string",
          "name": "",
          "type": "string"
        }
      ],
      "stateMutability": "view",
      "type": "function"
    },
    {
      "inputs": [],
      "name": "token",
      "outputs": [
        {
          "internalType": "contract IERC20Upgradeable",
          "name": "",
          "type": "address"
        }
      ],
      "stateMutability": "view",
      "type": "function"
    },
    {
      "inputs": [],
      "name": "totalSupply",
      "outputs": [
        {
          "internalType": "uint256",
          "name": "",
          "type": "uint256"
        }
      ],
      "stateMutability": "view",
      "type": "function"
    },
    {
      "inputs": [
        {
          "internalType": "address",
          "name": "to",
          "type": "address"
        },
        {
          "internalType": "uint256",
          "name": "amount",
          "type": "uint256"
        }
      ],
      "name": "transfer",
      "outputs": [
        {
          "internalType": "bool",
          "name": "",
          "type": "bool"
        }
      ],
      "stateMutability": "nonpayable",
      "type": "function"
    },
    {
      "inputs": [
        {
          "internalType": "address",
          "name": "from",
          "type": "address"
        },
        {
          "internalType": "address",
          "name": "to",
          "type": "address"
        },
        {
          "internalType": "uint256",
          "name": "amount",
          "type": "uint256"
        }
      ],
      "name": "transferFrom",
      "outputs": [
        {
          "internalType": "bool",
          "name": "",
          "type": "bool"
        }
      ],
      "stateMutability": "nonpayable",
      "type": "function"
    },
    {
      "inputs": [
        {
          "internalType": "address",
          "name": "newOwner",
          "type": "address"
        }
      ],
      "name": "transferOwnership",
      "outputs": [],
      "stateMutability": "nonpayable",
      "type": "function"
    },
    {
      "inputs": [],
      "name": "treasuryWallet",
      "outputs": [
        {
          "internalType": "address",
          "name": "",
          "type": "address"
        }
      ],
      "stateMutability": "view",
      "type": "function"
    },
    {
      "inputs": [
        {
          "internalType": "uint256",
          "name": "_shares",
          "type": "uint256"
        }
      ],
      "name": "withdraw",
      "outputs": [],
      "stateMutability": "nonpayable",
      "type": "function"
    },
    {
      "inputs": [],
      "name": "yield",
      "outputs": [],
      "stateMutability": "nonpayable",
      "type": "function"
    },
    {
      "inputs": [],
      "name": "yieldFee",
      "outputs": [
        {
          "internalType": "uint256",
          "name": "",
          "type": "uint256"
        }
      ],
      "stateMutability": "view",
      "type": "function"
    }
  ],
  "transactionHash": "0x553269dcaa3c0767fcc701389d6c78fd98ece9f037f498e25150cb63f1f98efd",
  "args": [],
  "numDeployments": 2,
  "solcInputHash": "9a335077fa45839f87120ae1e6af8ee1",
  "bytecode": "0x608060405234801561001057600080fd5b50613da9806100206000396000f3fe608060405234801561001057600080fd5b506004361061023d5760003560e01c80638da5cb5b1161013b578063d9621f9e116100b8578063f2fde38b1161007c578063f2fde38b146104ac578063f6d7eade146104bf578063f851a440146104da578063fc0c546a146104ee578063fdb5a03e1461050157600080fd5b8063d9621f9e14610463578063db2e21bc1461046b578063dd62ed3e14610473578063e56f2fe414610486578063e595cbb61461049957600080fd5b8063a8602fea116100ff578063a8602fea1461041a578063a9059cbb1461042d578063b6b55f2514610440578063bd244af414610453578063c89d5b8b1461045b57600080fd5b80638da5cb5b146103d357806395d89b41146103e4578063a0c1f15e146103ec578063a20a4cb4146103ff578063a457c2d71461040757600080fd5b80632e1a7d4d116101c95780635c975abb1161018d5780635c975abb1461037157806369fe0e2d1461037c578063704b6c021461038f57806370a08231146103a2578063715018a6146103cb57600080fd5b80632e1a7d4d1461030d578063313ce56714610320578063395093511461032f5780634626402b146103425780634d95cad91461035657600080fd5b806318160ddd1161021057806318160ddd146102c157806320f14908146102c957806323b872dd146102dc5780632630c12f146102ef578063285939841461030357600080fd5b8063034f40831461024257806306fdde031461025e578063095ea7b31461027357806314085ff014610296575b600080fd5b61024b60fb5481565b6040519081526020015b60405180910390f35b610266610509565b6040516102559190613281565b6102866102813660046132c9565b61059b565b6040519015158152602001610255565b60ff546102a9906001600160a01b031681565b6040516001600160a01b039091168152602001610255565b60355461024b565b61024b6102d7366004613303565b6105b5565b6102866102ea366004613320565b610638565b610102546102a9906001600160a01b031681565b61030b61065c565b005b61030b61031b366004613361565b6106b7565b60405160128152602001610255565b61028661033d3660046132c9565b610a46565b610100546102a9906001600160a01b031681565b6102a9730d500b1d8e8ef31e21c99d1db9a6444d3adf127081565b60975460ff16610286565b61030b61038a366004613361565b610a68565b61030b61039d36600461337a565b610af6565b61024b6103b036600461337a565b6001600160a01b031660009081526033602052604090205490565b61030b610b60565b6065546001600160a01b03166102a9565b610266610b72565b60fc546102a9906001600160a01b031681565b61024b610b81565b6102866104153660046132c9565b610c87565b61030b61042836600461337a565b610d02565b61028661043b3660046132c9565b610da0565b61030b61044e366004613361565b610dae565b61024b61100d565b61024b611037565b61024b611356565b61030b6114a9565b61024b610481366004613397565b611645565b61030b6104943660046134b1565b611670565b60fe546102a9906001600160a01b031681565b61030b6104ba36600461337a565b611747565b6102a973a5e0829caced8ffdd4de3c43696c57f7d7a678ff81565b610101546102a9906001600160a01b031681565b60fd546102a9906001600160a01b031681565b61030b6117c0565b60606036805461051890613560565b80601f016020809104026020016040519081016040528092919081815260200182805461054490613560565b80156105915780601f1061056657610100808354040283529160200191610591565b820191906000526020600020905b81548152906001019060200180831161057457829003601f168201915b5050505050905090565b6000336105a9818585611818565b60019150505b92915050565b6000806105c160355490565b9050806105d85750670de0b6b3a764000092915050565b60018315151461060c57806105eb610b81565b6105fd90670de0b6b3a76400006135b1565b61060791906135e6565b610631565b8061061561100d565b61062790670de0b6b3a76400006135b1565b61063191906135e6565b9392505050565b60003361064685828561193d565b6106518585856119b7565b506001949350505050565b6065546001600160a01b03163314806106805750610101546001600160a01b031633145b6106a55760405162461bcd60e51b815260040161069c906135fa565b60405180910390fd5b6106ad611b85565b6106b5611bcb565b565b600260c954141561070a5760405162461bcd60e51b815260206004820152601f60248201527f5265656e7472616e637947756172643a207265656e7472616e742063616c6c00604482015260640161069c565b600260c9558061074d5760405162461bcd60e51b815260206004820152600e60248201526d125b9d985b1a5908105b5bdd5b9d60921b604482015260640161069c565b336000908152603360205260409020548111156107a15760405162461bcd60e51b81526020600482015260126024820152714e6f7420656e6f7567682062616c616e636560701b604482015260640161069c565b33600090815261010360205260409020544314156108015760405162461bcd60e51b815260206004820152601a60248201527f57697468647261772077697468696e2073616d6520626c6f636b000000000000604482015260640161069c565b600061080c60355490565b82610815610b81565b61081f91906135b1565b61082991906135e6565b60fd546040516370a0823160e01b81523060048201529192506000916001600160a01b03909116906370a082319060240160206040518083038186803b15801561087257600080fd5b505afa158015610886573d6000803e3d6000fd5b505050506040513d601f19601f820116820180604052508101906108aa9190613627565b9050818110156109da5760fe5460fd546001600160a01b03918216916369328dec91166108d78486613640565b6040516001600160e01b031960e085901b1681526001600160a01b0390921660048301526024820152306044820152606401602060405180830381600087803b15801561092357600080fd5b505af1158015610937573d6000803e3d6000fd5b505050506040513d601f19601f8201168201806040525081019061095b9190613627565b5060fd546040516370a0823160e01b81523060048201526001600160a01b03909116906370a082319060240160206040518083038186803b15801561099f57600080fd5b505afa1580156109b3573d6000803e3d6000fd5b505050506040513d601f19601f820116820180604052508101906109d79190613627565b91505b6109e43384611f61565b60fd546109fb906001600160a01b031633846120ac565b60408051338152602081018490529081018490527ff279e6a1f5e320cca91135676d9cb6e44ca8a08c0b88342bcdb1144f6511b5689060600160405180910390a15050600160c95550565b6000336105a9818585610a598383611645565b610a639190613657565b611818565b610a7061210f565b610bb98110610aba5760405162461bcd60e51b81526020600482015260166024820152755969656c64204665652063616e6e6f74203e2033302560501b604482015260640161069c565b60fb8190556040518181527f5cdc47cbc2be1e35e5429dd646b1e2047ab328f4108873ab71318989f7566ceb906020015b60405180910390a150565b610afe61210f565b61010180546001600160a01b038381166001600160a01b031983168117909355604080519190921680825260208201939093527f848ac24ab84501710d6631faab117b66b79aba7ec6f7778cf3bcff428c1a4efc910160405180910390a15050565b610b6861210f565b6106b56000612169565b60606037805461051890613560565b60fc546040516370a0823160e01b81523060048201526000916001600160a01b0316906370a082319060240160206040518083038186803b158015610bc557600080fd5b505afa158015610bd9573d6000803e3d6000fd5b505050506040513d601f19601f82011682018060405250810190610bfd9190613627565b60fd546040516370a0823160e01b81523060048201526001600160a01b03909116906370a082319060240160206040518083038186803b158015610c4057600080fd5b505afa158015610c54573d6000803e3d6000fd5b505050506040513d601f19601f82011682018060405250810190610c789190613627565b610c829190613657565b905090565b60003381610c958286611645565b905083811015610cf55760405162461bcd60e51b815260206004820152602560248201527f45524332303a2064656372656173656420616c6c6f77616e63652062656c6f77604482015264207a65726f60d81b606482015260840161069c565b6106518286868403611818565b610d0a61210f565b6001600160a01b038116610d515760405162461bcd60e51b815260206004820152600e60248201526d1dd85b1b195d081a5b9d985b1a5960921b604482015260640161069c565b61010080546001600160a01b0319166001600160a01b0383169081179091556040519081527f60edc991b058a7e279075cf86f19a6b478334efec47e089d09890b139c78232790602001610aeb565b6000336105a98185856119b7565b600260c9541415610e015760405162461bcd60e51b815260206004820152601f60248201527f5265656e7472616e637947756172643a207265656e7472616e742063616c6c00604482015260640161069c565b600260c955610e0e611b85565b60008111610e4f5760405162461bcd60e51b815260206004820152600e60248201526d125b9d985b1a5908185b5bdd5b9d60921b604482015260640161069c565b6000610e59610b81565b60fd54909150610e74906001600160a01b03163330856121bb565b33600090815261010360205260409081902043905560fe5460fd5491516370a0823160e01b81523060048201526001600160a01b039182169263617ba03792169081906370a082319060240160206040518083038186803b158015610ed857600080fd5b505afa158015610eec573d6000803e3d6000fd5b505050506040513d601f19601f82011682018060405250810190610f109190613627565b6040516001600160e01b031960e085901b1681526001600160a01b039092166004830152602482015230604482015260006064820152608401600060405180830381600087803b158015610f6357600080fd5b505af1158015610f77573d6000803e3d6000fd5b505050506000610f8660355490565b90506000821580610f95575081155b610fb35782610fa483866135b1565b610fae91906135e6565b610fb5565b835b9050610fc133826121f3565b60408051338152602081018690529081018290527f90890809c654f11d6e72a28fa60149770a0d11ec6c92319d6ceb2bb0a4ea1a159060600160405180910390a15050600160c9555050565b600080611018610b81565b60fd54909150611031906001600160a01b0316826122d3565b91505090565b60fe5460fd546040516335ea6a7560e01b81526001600160a01b039182166004820152600092839216906335ea6a75906024016101e06040518083038186803b15801561108357600080fd5b505afa158015611097573d6000803e3d6000fd5b505050506040513d601f19601f820116820180604052508101906110bb91906136ff565b90506000633b9aca0082604001516110d39190613822565b60ff5460fc54604051636657732f60e01b81526001600160a01b0391821660048201526001600160801b03939093169350600092911690636657732f9060240160006040518083038186803b15801561112b57600080fd5b505afa15801561113f573d6000803e3d6000fd5b505050506040513d6000823e601f3d908101601f1916820160405261116791908101906138e0565b805160fd5460fc54604080516318160ddd60e01b8152905194955092936000936111fc936001600160a01b039081169316916318160ddd91600480820192602092909190829003018186803b1580156111bf57600080fd5b505afa1580156111d3573d6000803e3d6000fd5b505050506040513d601f19601f820116820180604052508101906111f79190613627565b6122d3565b90506000805b8381101561131957600085828151811061121e5761121e613915565b602090810291909101015160ff5460fc54604051630fdfe97560e31b81526001600160a01b0391821660048201528184166024820152929350600092911690637eff4ba89060440160806040518083038186803b15801561127e57600080fd5b505afa158015611292573d6000803e3d6000fd5b505050506040513d601f19601f820116820180604052508101906112b6919061392b565b5050915050846112dc83836201518061016d6112d291906135b1565b6111f791906135b1565b6112ee90670de0b6b3a76400006135b1565b6112f891906135e6565b6113029085613657565b93505050808061131190613961565b915050611202565b5061271060fb5461271061132d9190613640565b61133790836135b1565b61134191906135e6565b61134b9086613657565b965050505050505090565b60408051600180825281830190925260009182919060208083019080368337505060fc5482519293506001600160a01b03169183915060009061139b5761139b613915565b6001600160a01b03928316602091820292909201015260ff54604051634c0369c360e01b815260009283921690634c0369c3906113de90869030906004016139c0565b60006040518083038186803b1580156113f657600080fd5b505afa15801561140a573d6000803e3d6000fd5b505050506040513d6000823e601f3d908101601f191682016040526114329190810190613a45565b815191935091506000805b8281101561149f5761148185828151811061145a5761145a613915565b602002602001015185838151811061147457611474613915565b60200260200101516122d3565b61148b9083613657565b91508061149781613961565b91505061143d565b5095945050505050565b6065546001600160a01b03163314806114cd5750610101546001600160a01b031633145b6114e95760405162461bcd60e51b815260040161069c906135fa565b6114f1611b85565b6114f9612409565b611501611bcb565b60fc546040516370a0823160e01b81523060048201526000916001600160a01b0316906370a082319060240160206040518083038186803b15801561154557600080fd5b505afa158015611559573d6000803e3d6000fd5b505050506040513d601f19601f8201168201806040525081019061157d9190613627565b905080156116155760fe5460fd54604051631a4ca37b60e21b81526001600160a01b039182166004820152602481018490523060448201529116906369328dec90606401602060405180830381600087803b1580156115db57600080fd5b505af11580156115ef573d6000803e3d6000fd5b505050506040513d601f19601f820116820180604052508101906116139190613627565b505b6040518181527f99d7f8b71cfb9126984f7a5eed3a40e64a8959e9b0e442221546fb04ec6a489c90602001610aeb565b6001600160a01b03918216600090815260346020908152604080832093909416825291909152205490565b600054610100900460ff16158080156116905750600054600160ff909116105b806116aa5750303b1580156116aa575060005460ff166001145b6116c65760405162461bcd60e51b815260040161069c90613aa9565b6000805460ff1916600117905580156116e9576000805461ff0019166101001790555b6116f7878787878787612463565b801561173e576000805461ff0019169055604051600181527f7f26b83ff96e1f2b6a682f133852f6798a09c465da95921460cefb3847402498906020015b60405180910390a15b50505050505050565b61174f61210f565b6001600160a01b0381166117b45760405162461bcd60e51b815260206004820152602660248201527f4f776e61626c653a206e6577206f776e657220697320746865207a65726f206160448201526564647265737360d01b606482015260840161069c565b6117bd81612169565b50565b6065546001600160a01b03163314806117e45750610101546001600160a01b031633145b6118005760405162461bcd60e51b815260040161069c906135fa565b6118086128d5565b61181061291e565b6117bd612957565b6001600160a01b03831661187a5760405162461bcd60e51b8152602060048201526024808201527f45524332303a20617070726f76652066726f6d20746865207a65726f206164646044820152637265737360e01b606482015260840161069c565b6001600160a01b0382166118db5760405162461bcd60e51b815260206004820152602260248201527f45524332303a20617070726f766520746f20746865207a65726f206164647265604482015261737360f01b606482015260840161069c565b6001600160a01b0383811660008181526034602090815260408083209487168084529482529182902085905590518481527f8c5be1e5ebec7d5bd14f71427d1e84f3dd0314c0f7b2291e5b200ac8c7c3b92591015b60405180910390a3505050565b60006119498484611645565b905060001981146119b157818110156119a45760405162461bcd60e51b815260206004820152601d60248201527f45524332303a20696e73756666696369656e7420616c6c6f77616e6365000000604482015260640161069c565b6119b18484848403611818565b50505050565b6001600160a01b038316611a1b5760405162461bcd60e51b815260206004820152602560248201527f45524332303a207472616e736665722066726f6d20746865207a65726f206164604482015264647265737360d81b606482015260840161069c565b6001600160a01b038216611a7d5760405162461bcd60e51b815260206004820152602360248201527f45524332303a207472616e7366657220746f20746865207a65726f206164647260448201526265737360e81b606482015260840161069c565b6001600160a01b03831660009081526033602052604090205481811015611af55760405162461bcd60e51b815260206004820152602660248201527f45524332303a207472616e7366657220616d6f756e7420657863656564732062604482015265616c616e636560d01b606482015260840161069c565b6001600160a01b03808516600090815260336020526040808220858503905591851681529081208054849290611b2c908490613657565b92505081905550826001600160a01b0316846001600160a01b03167fddf252ad1be2c89b69c2b068fc378daa952ba7f163c4a11628f55a4df523b3ef84604051611b7891815260200190565b60405180910390a36119b1565b60975460ff16156106b55760405162461bcd60e51b815260206004820152601060248201526f14185d5cd8589b194e881c185d5cd95960821b604482015260640161069c565b60408051600180825281830190925260009160208083019080368337505060fc5482519293506001600160a01b031691839150600090611c0d57611c0d613915565b6001600160a01b03928316602091820292909201015260ff54604051635fc87b1d60e11b81526000928392169063bf90f63a90611c4e908690600401613af7565b600060405180830381600087803b158015611c6857600080fd5b505af1158015611c7c573d6000803e3d6000fd5b505050506040513d6000823e601f3d908101601f19168201604052611ca49190810190613a45565b8151919350915060005b81811015611f51576000848281518110611cca57611cca613915565b602002602001015190506000848381518110611ce857611ce8613915565b602002602001015190508060001015611f3c57600061271060fb5483611d0e91906135b1565b611d1891906135e6565b61010054909150611d36906001600160a01b038581169116836120ac565b611d408183613640565b604051636eb1769f60e11b815230600482015273a5e0829caced8ffdd4de3c43696c57f7d7a678ff602482015290925082906001600160a01b0385169063dd62ed3e9060440160206040518083038186803b158015611d9e57600080fd5b505afa158015611db2573d6000803e3d6000fd5b505050506040513d601f19601f82011682018060405250810190611dd69190613627565b1015611e0657611e066001600160a01b03841673a5e0829caced8ffdd4de3c43696c57f7d7a678ff600019612a54565b60fd546001600160a01b03848116911614611ea15760fd546001600160a01b0316730d500b1d8e8ef31e21c99d1db9a6444d3adf12701480611e6457506001600160a01b038316730d500b1d8e8ef31e21c99d1db9a6444d3adf1270145b15611e875760fd54611e819084906001600160a01b031684612b78565b50611ea1565b60fd54611e9f9084906001600160a01b031684612cb7565b505b6000611eb1846111f78486613657565b90507f913f67bfd2c6ac4a84007665147ed6861715996d03ed38d610c52e28c088380381604051611ee491815260200190565b60405180910390a17f6d415483528749d9b4bfa85837aeca6271d845839c39bfa4614240e15dabeb1e61271060fb5483611f1e91906135b1565b611f2891906135e6565b60405190815260200160405180910390a150505b50508080611f4990613961565b915050611cae565b50611f5a612957565b5050505050565b6001600160a01b038216611fc15760405162461bcd60e51b815260206004820152602160248201527f45524332303a206275726e2066726f6d20746865207a65726f206164647265736044820152607360f81b606482015260840161069c565b6001600160a01b038216600090815260336020526040902054818110156120355760405162461bcd60e51b815260206004820152602260248201527f45524332303a206275726e20616d6f756e7420657863656564732062616c616e604482015261636560f01b606482015260840161069c565b6001600160a01b0383166000908152603360205260408120838303905560358054849290612064908490613640565b90915550506040518281526000906001600160a01b038516907fddf252ad1be2c89b69c2b068fc378daa952ba7f163c4a11628f55a4df523b3ef90602001611930565b505050565b6040516001600160a01b0383166024820152604481018290526120a790849063a9059cbb60e01b906064015b60408051601f198184030181529190526020810180516001600160e01b03166001600160e01b031990931692909217909152612e2d565b6065546001600160a01b031633146106b55760405162461bcd60e51b815260206004820181905260248201527f4f776e61626c653a2063616c6c6572206973206e6f7420746865206f776e6572604482015260640161069c565b606580546001600160a01b038381166001600160a01b0319831681179093556040519116919082907f8be0079c531659141344cd1fd0a4f28419497f9722a3daafe3b4186f6b6457e090600090a35050565b6040516001600160a01b03808516602483015283166044820152606481018290526119b19085906323b872dd60e01b906084016120d8565b6001600160a01b0382166122495760405162461bcd60e51b815260206004820152601f60248201527f45524332303a206d696e7420746f20746865207a65726f206164647265737300604482015260640161069c565b806035600082825461225b9190613657565b90915550506001600160a01b03821660009081526033602052604081208054839290612288908490613657565b90915550506040518181526001600160a01b038316906000907fddf252ad1be2c89b69c2b068fc378daa952ba7f163c4a11628f55a4df523b3ef9060200160405180910390a35b5050565b6101025460405163b3596f0760e01b81526001600160a01b038481166004830152600092839283929091169063b3596f0790602401604080518083038186803b15801561231f57600080fd5b505afa158015612333573d6000803e3d6000fd5b505050506040513d601f19601f820116820180604052508101906123579190613b1b565b915091506000856001600160a01b031663313ce5676040518163ffffffff1660e01b815260040160206040518083038186803b15801561239657600080fd5b505afa1580156123aa573d6000803e3d6000fd5b505050506040513d601f19601f820116820180604052508101906123ce9190613b47565b90506123db82600a613c46565b836123eb878460ff166012612eff565b6123f591906135b1565b6123ff91906135e6565b9695505050505050565b612411611b85565b6097805460ff191660011790557f62e78cea01bee320cd4e420270b5ea74000d11b0c9f74754ebdbfc544b05a2586124463390565b6040516001600160a01b03909116815260200160405180910390a1565b600054610100900460ff16158080156124835750600054600160ff909116105b8061249d5750303b15801561249d575060005460ff166001145b6124b95760405162461bcd60e51b815260040161069c90613aa9565b6000805460ff1916600117905580156124dc576000805461ff0019166101001790555b6124e68787612f5d565b6124ee612f8e565b61010080546001600160a01b038088166001600160a01b031992831617909255610101805487841690831617905561010280548684169083161790556107d060fb5560fc80549285169290911682179055604080516358b50cef60e11b8152905163b16a19de91600481810192602092909190829003018186803b15801561257557600080fd5b505afa158015612589573d6000803e3d6000fd5b505050506040513d601f19601f820116820180604052508101906125ad9190613c55565b60fd80546001600160a01b0319166001600160a01b039290921691821790556040805163313ce56760e01b8152905163313ce56791600480820192602092909190829003018186803b15801561260257600080fd5b505afa158015612616573d6000803e3d6000fd5b505050506040513d601f19601f8201168201806040525081019061263a9190613b47565b60fd60146101000a81548160ff021916908360ff16021790555060fc60009054906101000a90046001600160a01b03166001600160a01b0316637535d2466040518163ffffffff1660e01b815260040160206040518083038186803b1580156126a257600080fd5b505afa1580156126b6573d6000803e3d6000fd5b505050506040513d601f19601f820116820180604052508101906126da9190613c55565b60fe80546001600160a01b0319166001600160a01b0392831617905560fc54604080516375d2641360e01b8152905191909216916375d26413916004808301926020929190829003018186803b15801561273357600080fd5b505afa158015612747573d6000803e3d6000fd5b505050506040513d601f19601f8201168201806040525081019061276b9190613c55565b60ff80546001600160a01b0319166001600160a01b0392831617905560fd5460fe5460405163095ea7b360e01b81529083166004820152600019602482015291169063095ea7b390604401602060405180830381600087803b1580156127d057600080fd5b505af11580156127e4573d6000803e3d6000fd5b505050506040513d601f19601f820116820180604052508101906128089190613c72565b5060fc5460fe5460405163095ea7b360e01b81526001600160a01b039182166004820152600019602482015291169063095ea7b390604401602060405180830381600087803b15801561285a57600080fd5b505af115801561286e573d6000803e3d6000fd5b505050506040513d601f19601f820116820180604052508101906128929190613c72565b50801561173e576000805461ff0019169055604051600181527f7f26b83ff96e1f2b6a682f133852f6798a09c465da95921460cefb384740249890602001611735565b60975460ff166106b55760405162461bcd60e51b815260206004820152601460248201527314185d5cd8589b194e881b9bdd081c185d5cd95960621b604482015260640161069c565b6129266128d5565b6097805460ff191690557f5db9ee0a495bf2e6ff9c91a7834c1ba4fdd244a5e8aa4e537bd38aeae4b073aa33612446565b60fd546040516370a0823160e01b81523060048201526000916001600160a01b0316906370a082319060240160206040518083038186803b15801561299b57600080fd5b505afa1580156129af573d6000803e3d6000fd5b505050506040513d601f19601f820116820180604052508101906129d39190613627565b90508015612a515760fe5460fd5460405163617ba03760e01b81526001600160a01b039182166004820152602481018490523060448201526000606482015291169063617ba03790608401600060405180830381600087803b158015612a3857600080fd5b505af1158015612a4c573d6000803e3d6000fd5b505050505b90565b801580612add5750604051636eb1769f60e11b81523060048201526001600160a01b03838116602483015284169063dd62ed3e9060440160206040518083038186803b158015612aa357600080fd5b505afa158015612ab7573d6000803e3d6000fd5b505050506040513d601f19601f82011682018060405250810190612adb9190613627565b155b612b485760405162461bcd60e51b815260206004820152603660248201527f5361666545524332303a20617070726f76652066726f6d206e6f6e2d7a65726f60448201527520746f206e6f6e2d7a65726f20616c6c6f77616e636560501b606482015260840161069c565b6040516001600160a01b0383166024820152604481018290526120a790849063095ea7b360e01b906064016120d8565b604080516002808252606082018352600092839291906020830190803683370190505090508481600081518110612bb157612bb1613915565b60200260200101906001600160a01b031690816001600160a01b0316815250508381600181518110612be557612be5613915565b6001600160a01b03909216602092830291909101909101526040516338ed173960e01b815273a5e0829caced8ffdd4de3c43696c57f7d7a678ff906338ed173990612c3d908690600090869030904290600401613c8f565b600060405180830381600087803b158015612c5757600080fd5b505af1158015612c6b573d6000803e3d6000fd5b505050506040513d6000823e601f3d908101601f19168201604052612c939190810190613ccb565b600181518110612ca557612ca5613915565b60200260200101519150509392505050565b60408051600380825260808201909252600091829190602082016060803683370190505090508481600081518110612cf157612cf1613915565b60200260200101906001600160a01b031690816001600160a01b031681525050730d500b1d8e8ef31e21c99d1db9a6444d3adf127081600181518110612d3957612d39613915565b60200260200101906001600160a01b031690816001600160a01b0316815250508381600281518110612d6d57612d6d613915565b6001600160a01b03909216602092830291909101909101526040516338ed173960e01b815273a5e0829caced8ffdd4de3c43696c57f7d7a678ff906338ed173990612dc5908690600090869030904290600401613c8f565b600060405180830381600087803b158015612ddf57600080fd5b505af1158015612df3573d6000803e3d6000fd5b505050506040513d6000823e601f3d908101601f19168201604052612e1b9190810190613ccb565b600281518110612ca557612ca5613915565b6000612e82826040518060400160405280602081526020017f5361666545524332303a206c6f772d6c6576656c2063616c6c206661696c6564815250856001600160a01b0316612fbd9092919063ffffffff16565b8051909150156120a75780806020019051810190612ea09190613c72565b6120a75760405162461bcd60e51b815260206004820152602a60248201527f5361666545524332303a204552433230206f7065726174696f6e20646964206e6044820152691bdd081cdd58d8d9595960b21b606482015260840161069c565b600081831415612f10575082610631565b81831015612f3e57612f228383613640565b612f2d90600a613d00565b612f3790856135b1565b9050610631565b612f488284613640565b612f5390600a613d00565b612f3790856135e6565b600054610100900460ff16612f845760405162461bcd60e51b815260040161069c90613d0c565b6122cf8282612fd4565b600054610100900460ff16612fb55760405162461bcd60e51b815260040161069c90613d0c565b6106b5613022565b6060612fcc8484600085613052565b949350505050565b600054610100900460ff16612ffb5760405162461bcd60e51b815260040161069c90613d0c565b815161300e9060369060208501906131bc565b5080516120a79060379060208401906131bc565b600054610100900460ff166130495760405162461bcd60e51b815260040161069c90613d0c565b6106b533612169565b6060824710156130b35760405162461bcd60e51b815260206004820152602660248201527f416464726573733a20696e73756666696369656e742062616c616e636520666f6044820152651c8818d85b1b60d21b606482015260840161069c565b6001600160a01b0385163b61310a5760405162461bcd60e51b815260206004820152601d60248201527f416464726573733a2063616c6c20746f206e6f6e2d636f6e7472616374000000604482015260640161069c565b600080866001600160a01b031685876040516131269190613d57565b60006040518083038185875af1925050503d8060008114613163576040519150601f19603f3d011682016040523d82523d6000602084013e613168565b606091505b5091509150613178828286613183565b979650505050505050565b60608315613192575081610631565b8251156131a25782518084602001fd5b8160405162461bcd60e51b815260040161069c9190613281565b8280546131c890613560565b90600052602060002090601f0160209004810192826131ea5760008555613230565b82601f1061320357805160ff1916838001178555613230565b82800160010185558215613230579182015b82811115613230578251825591602001919060010190613215565b5061323c929150613240565b5090565b5b8082111561323c5760008155600101613241565b60005b83811015613270578181015183820152602001613258565b838111156119b15750506000910152565b60208152600082518060208401526132a0816040850160208701613255565b601f01601f19169190910160400192915050565b6001600160a01b03811681146117bd57600080fd5b600080604083850312156132dc57600080fd5b82356132e7816132b4565b946020939093013593505050565b80151581146117bd57600080fd5b60006020828403121561331557600080fd5b8135610631816132f5565b60008060006060848603121561333557600080fd5b8335613340816132b4565b92506020840135613350816132b4565b929592945050506040919091013590565b60006020828403121561337357600080fd5b5035919050565b60006020828403121561338c57600080fd5b8135610631816132b4565b600080604083850312156133aa57600080fd5b82356133b5816132b4565b915060208301356133c5816132b4565b809150509250929050565b634e487b7160e01b600052604160045260246000fd5b6040516101e0810167ffffffffffffffff8111828210171561340a5761340a6133d0565b60405290565b604051601f8201601f1916810167ffffffffffffffff81118282101715613439576134396133d0565b604052919050565b600082601f83011261345257600080fd5b813567ffffffffffffffff81111561346c5761346c6133d0565b61347f601f8201601f1916602001613410565b81815284602083860101111561349457600080fd5b816020850160208301376000918101602001919091529392505050565b60008060008060008060c087890312156134ca57600080fd5b863567ffffffffffffffff808211156134e257600080fd5b6134ee8a838b01613441565b9750602089013591508082111561350457600080fd5b5061351189828a01613441565b9550506040870135613522816132b4565b93506060870135613532816132b4565b92506080870135613542816132b4565b915060a0870135613552816132b4565b809150509295509295509295565b600181811c9082168061357457607f821691505b6020821081141561359557634e487b7160e01b600052602260045260246000fd5b50919050565b634e487b7160e01b600052601160045260246000fd5b60008160001904831182151516156135cb576135cb61359b565b500290565b634e487b7160e01b600052601260045260246000fd5b6000826135f5576135f56135d0565b500490565b60208082526013908201527227b7363c9037bbb732b91037b91030b236b4b760691b604082015260600190565b60006020828403121561363957600080fd5b5051919050565b6000828210156136525761365261359b565b500390565b6000821982111561366a5761366a61359b565b500190565b60006020828403121561368157600080fd5b6040516020810181811067ffffffffffffffff821117156136a4576136a46133d0565b6040529151825250919050565b80516001600160801b03811681146136c857600080fd5b919050565b805164ffffffffff811681146136c857600080fd5b805161ffff811681146136c857600080fd5b80516136c8816132b4565b60006101e0828403121561371257600080fd5b61371a6133e6565b613724848461366f565b8152613732602084016136b1565b6020820152613743604084016136b1565b6040820152613754606084016136b1565b6060820152613765608084016136b1565b608082015261377660a084016136b1565b60a082015261378760c084016136cd565b60c082015261379860e084016136e2565b60e08201526101006137ab8185016136f4565b908201526101206137bd8482016136f4565b908201526101406137cf8482016136f4565b908201526101606137e18482016136f4565b908201526101806137f38482016136b1565b908201526101a06138058482016136b1565b908201526101c06138178482016136b1565b908201529392505050565b60006001600160801b038084168061383c5761383c6135d0565b92169190910492915050565b600067ffffffffffffffff821115613862576138626133d0565b5060051b60200190565b600082601f83011261387d57600080fd5b8151602061389261388d83613848565b613410565b82815260059290921b840181019181810190868411156138b157600080fd5b8286015b848110156138d55780516138c8816132b4565b83529183019183016138b5565b509695505050505050565b6000602082840312156138f257600080fd5b815167ffffffffffffffff81111561390957600080fd5b612fcc8482850161386c565b634e487b7160e01b600052603260045260246000fd5b6000806000806080858703121561394157600080fd5b505082516020840151604085015160609095015191969095509092509050565b60006000198214156139755761397561359b565b5060010190565b600081518084526020808501945080840160005b838110156139b55781516001600160a01b031687529582019590820190600101613990565b509495945050505050565b6040815260006139d3604083018561397c565b905060018060a01b03831660208301529392505050565b600082601f8301126139fb57600080fd5b81516020613a0b61388d83613848565b82815260059290921b84018101918181019086841115613a2a57600080fd5b8286015b848110156138d55780518352918301918301613a2e565b60008060408385031215613a5857600080fd5b825167ffffffffffffffff80821115613a7057600080fd5b613a7c8683870161386c565b93506020850151915080821115613a9257600080fd5b50613a9f858286016139ea565b9150509250929050565b6020808252602e908201527f496e697469616c697a61626c653a20636f6e747261637420697320616c72656160408201526d191e481a5b9a5d1a585b1a5e995960921b606082015260800190565b602081526000610631602083018461397c565b805160ff811681146136c857600080fd5b60008060408385031215613b2e57600080fd5b82519150613b3e60208401613b0a565b90509250929050565b600060208284031215613b5957600080fd5b61063182613b0a565b600181815b80851115613b9d578160001904821115613b8357613b8361359b565b80851615613b9057918102915b93841c9390800290613b67565b509250929050565b600082613bb4575060016105af565b81613bc1575060006105af565b8160018114613bd75760028114613be157613bfd565b60019150506105af565b60ff841115613bf257613bf261359b565b50506001821b6105af565b5060208310610133831016604e8410600b8410161715613c20575081810a6105af565b613c2a8383613b62565b8060001904821115613c3e57613c3e61359b565b029392505050565b600061063160ff841683613ba5565b600060208284031215613c6757600080fd5b8151610631816132b4565b600060208284031215613c8457600080fd5b8151610631816132f5565b85815284602082015260a060408201526000613cae60a083018661397c565b6001600160a01b0394909416606083015250608001529392505050565b600060208284031215613cdd57600080fd5b815167ffffffffffffffff811115613cf457600080fd5b612fcc848285016139ea565b60006106318383613ba5565b6020808252602b908201527f496e697469616c697a61626c653a20636f6e7472616374206973206e6f74206960408201526a6e697469616c697a696e6760a81b606082015260800190565b60008251613d69818460208701613255565b919091019291505056fea2646970667358221220109aad58cf6e6df835db5d0fb81b81b05f238c861a1f74c23a07efeee8e651d664736f6c63430008090033",
  "devdoc": {
    "kind": "dev",
    "methods": {
      "allowance(address,address)": {
        "details": "See {IERC20-allowance}."
      },
      "approve(address,uint256)": {
        "details": "See {IERC20-approve}. NOTE: If `amount` is the maximum `uint256`, the allowance is not updated on `transferFrom`. This is semantically equivalent to an infinite approval. Requirements: - `spender` cannot be the zero address."
      },
      "balanceOf(address)": {
        "details": "See {IERC20-balanceOf}."
      },
      "decimals()": {
        "details": "Returns the number of decimals used to get its user representation. For example, if `decimals` equals `2`, a balance of `505` tokens should be displayed to a user as `5.05` (`505 / 10 ** 2`). Tokens usually opt for a value of 18, imitating the relationship between Ether and Wei. This is the value {ERC20} uses, unless this function is overridden; NOTE: This information is only used for _display_ purposes: it in no way affects any of the arithmetic of the contract, including {IERC20-balanceOf} and {IERC20-transfer}."
      },
      "decreaseAllowance(address,uint256)": {
        "details": "Atomically decreases the allowance granted to `spender` by the caller. This is an alternative to {approve} that can be used as a mitigation for problems described in {IERC20-approve}. Emits an {Approval} event indicating the updated allowance. Requirements: - `spender` cannot be the zero address. - `spender` must have allowance for the caller of at least `subtractedValue`."
      },
      "deposit(uint256)": {
        "params": {
          "_amount": "amount of lptokens to deposit"
        }
      },
      "increaseAllowance(address,uint256)": {
        "details": "Atomically increases the allowance granted to `spender` by the caller. This is an alternative to {approve} that can be used as a mitigation for problems described in {IERC20-approve}. Emits an {Approval} event indicating the updated allowance. Requirements: - `spender` cannot be the zero address."
      },
      "name()": {
        "details": "Returns the name of the token."
      },
      "owner()": {
        "details": "Returns the address of the current owner."
      },
      "paused()": {
        "details": "Returns true if the contract is paused, and false otherwise."
      },
      "renounceOwnership()": {
        "details": "Leaves the contract without owner. It will not be possible to call `onlyOwner` functions anymore. Can only be called by the current owner. NOTE: Renouncing ownership will leave the contract without an owner, thereby removing any functionality that is only available to the owner."
      },
      "setFee(uint256)": {
        "params": {
          "_yieldFeePerc": "deposit fee percentage. 2000 for 20%"
        }
      },
      "symbol()": {
        "details": "Returns the symbol of the token, usually a shorter version of the name."
      },
      "totalSupply()": {
        "details": "See {IERC20-totalSupply}."
      },
      "transfer(address,uint256)": {
        "details": "See {IERC20-transfer}. Requirements: - `to` cannot be the zero address. - the caller must have a balance of at least `amount`."
      },
      "transferFrom(address,address,uint256)": {
        "details": "See {IERC20-transferFrom}. Emits an {Approval} event indicating the updated allowance. This is not required by the EIP. See the note at the beginning of {ERC20}. NOTE: Does not update the allowance if the current allowance is the maximum `uint256`. Requirements: - `from` and `to` cannot be the zero address. - `from` must have a balance of at least `amount`. - the caller must have allowance for ``from``'s tokens of at least `amount`."
      },
      "transferOwnership(address)": {
        "details": "Transfers ownership of the contract to a new account (`newOwner`). Can only be called by the current owner."
      },
      "withdraw(uint256)": {
        "params": {
          "_shares": "amount of shares to burn"
        }
      }
    },
    "version": 1
  },
  "userdoc": {
    "kind": "user",
    "methods": {
      "emergencyWithdraw()": {
        "notice": "Withdraws funds staked in mirror to this vault and pauses deposit, yield, invest functions"
      },
      "getPendingRewards()": {
        "notice": "Returns the pending rewards in USD."
      },
      "reinvest()": {
        "notice": "Unpauses deposit, yield, invest functions, and invests funds."
      },
      "setFee(uint256)": {
        "notice": "Function to set deposit and yield fee"
      }
    },
    "version": 1
  },
  "storageLayout": {
    "storage": [
      {
        "astId": 138,
        "contract": "contracts/l2Vaults/aave3/MaticAave3Vault.sol:MaticAave3Vault",
        "label": "_initialized",
        "offset": 0,
        "slot": "0",
        "type": "t_uint8"
      },
      {
        "astId": 141,
        "contract": "contracts/l2Vaults/aave3/MaticAave3Vault.sol:MaticAave3Vault",
        "label": "_initializing",
        "offset": 1,
        "slot": "0",
        "type": "t_bool"
      },
      {
        "astId": 2836,
        "contract": "contracts/l2Vaults/aave3/MaticAave3Vault.sol:MaticAave3Vault",
        "label": "__gap",
        "offset": 0,
        "slot": "1",
        "type": "t_array(t_uint256)50_storage"
      },
      {
        "astId": 487,
        "contract": "contracts/l2Vaults/aave3/MaticAave3Vault.sol:MaticAave3Vault",
        "label": "_balances",
        "offset": 0,
        "slot": "51",
        "type": "t_mapping(t_address,t_uint256)"
      },
      {
        "astId": 493,
        "contract": "contracts/l2Vaults/aave3/MaticAave3Vault.sol:MaticAave3Vault",
        "label": "_allowances",
        "offset": 0,
        "slot": "52",
        "type": "t_mapping(t_address,t_mapping(t_address,t_uint256))"
      },
      {
        "astId": 495,
        "contract": "contracts/l2Vaults/aave3/MaticAave3Vault.sol:MaticAave3Vault",
        "label": "_totalSupply",
        "offset": 0,
        "slot": "53",
        "type": "t_uint256"
      },
      {
        "astId": 497,
        "contract": "contracts/l2Vaults/aave3/MaticAave3Vault.sol:MaticAave3Vault",
        "label": "_name",
        "offset": 0,
        "slot": "54",
        "type": "t_string_storage"
      },
      {
        "astId": 499,
        "contract": "contracts/l2Vaults/aave3/MaticAave3Vault.sol:MaticAave3Vault",
        "label": "_symbol",
        "offset": 0,
        "slot": "55",
        "type": "t_string_storage"
      },
      {
        "astId": 1078,
        "contract": "contracts/l2Vaults/aave3/MaticAave3Vault.sol:MaticAave3Vault",
        "label": "__gap",
        "offset": 0,
        "slot": "56",
        "type": "t_array(t_uint256)45_storage"
      },
      {
        "astId": 10,
        "contract": "contracts/l2Vaults/aave3/MaticAave3Vault.sol:MaticAave3Vault",
        "label": "_owner",
        "offset": 0,
        "slot": "101",
        "type": "t_address"
      },
      {
        "astId": 130,
        "contract": "contracts/l2Vaults/aave3/MaticAave3Vault.sol:MaticAave3Vault",
        "label": "__gap",
        "offset": 0,
        "slot": "102",
        "type": "t_array(t_uint256)49_storage"
      },
      {
        "astId": 303,
        "contract": "contracts/l2Vaults/aave3/MaticAave3Vault.sol:MaticAave3Vault",
        "label": "_paused",
        "offset": 0,
        "slot": "151",
        "type": "t_bool"
      },
      {
        "astId": 408,
        "contract": "contracts/l2Vaults/aave3/MaticAave3Vault.sol:MaticAave3Vault",
        "label": "__gap",
        "offset": 0,
        "slot": "152",
        "type": "t_array(t_uint256)49_storage"
      },
      {
        "astId": 423,
        "contract": "contracts/l2Vaults/aave3/MaticAave3Vault.sol:MaticAave3Vault",
        "label": "_status",
        "offset": 0,
        "slot": "201",
        "type": "t_uint256"
      },
      {
        "astId": 467,
        "contract": "contracts/l2Vaults/aave3/MaticAave3Vault.sol:MaticAave3Vault",
        "label": "__gap",
        "offset": 0,
        "slot": "202",
        "type": "t_array(t_uint256)49_storage"
      },
      {
        "astId": 16322,
        "contract": "contracts/l2Vaults/aave3/MaticAave3Vault.sol:MaticAave3Vault",
        "label": "yieldFee",
        "offset": 0,
        "slot": "251",
        "type": "t_uint256"
      },
      {
        "astId": 16325,
        "contract": "contracts/l2Vaults/aave3/MaticAave3Vault.sol:MaticAave3Vault",
        "label": "aToken",
        "offset": 0,
        "slot": "252",
        "type": "t_contract(IAToken)16195"
      },
      {
        "astId": 16328,
        "contract": "contracts/l2Vaults/aave3/MaticAave3Vault.sol:MaticAave3Vault",
        "label": "token",
        "offset": 0,
        "slot": "253",
        "type": "t_contract(IERC20Upgradeable)1157"
      },
      {
        "astId": 16330,
        "contract": "contracts/l2Vaults/aave3/MaticAave3Vault.sol:MaticAave3Vault",
        "label": "tokenDecimals",
        "offset": 20,
        "slot": "253",
        "type": "t_uint8"
      },
      {
        "astId": 16333,
        "contract": "contracts/l2Vaults/aave3/MaticAave3Vault.sol:MaticAave3Vault",
        "label": "aPool",
        "offset": 0,
        "slot": "254",
        "type": "t_contract(IPool)16226"
      },
      {
        "astId": 16336,
        "contract": "contracts/l2Vaults/aave3/MaticAave3Vault.sol:MaticAave3Vault",
        "label": "aRewardsController",
        "offset": 0,
        "slot": "255",
        "type": "t_contract(IRewardsController)16303"
      },
      {
        "astId": 16338,
        "contract": "contracts/l2Vaults/aave3/MaticAave3Vault.sol:MaticAave3Vault",
        "label": "treasuryWallet",
        "offset": 0,
        "slot": "256",
        "type": "t_address"
      },
      {
        "astId": 16340,
        "contract": "contracts/l2Vaults/aave3/MaticAave3Vault.sol:MaticAave3Vault",
        "label": "admin",
        "offset": 0,
        "slot": "257",
        "type": "t_address"
      },
      {
        "astId": 16343,
        "contract": "contracts/l2Vaults/aave3/MaticAave3Vault.sol:MaticAave3Vault",
        "label": "priceOracle",
        "offset": 0,
        "slot": "258",
        "type": "t_contract(IPriceOracle)11580"
      },
      {
        "astId": 16347,
        "contract": "contracts/l2Vaults/aave3/MaticAave3Vault.sol:MaticAave3Vault",
        "label": "depositedBlock",
        "offset": 0,
        "slot": "259",
        "type": "t_mapping(t_address,t_uint256)"
      },
      {
        "astId": 17231,
        "contract": "contracts/l2Vaults/aave3/MaticAave3Vault.sol:MaticAave3Vault",
        "label": "__gap",
        "offset": 0,
        "slot": "260",
        "type": "t_array(t_uint256)40_storage"
      }
    ],
    "types": {
      "t_address": {
        "encoding": "inplace",
        "label": "address",
        "numberOfBytes": "20"
      },
      "t_array(t_uint256)40_storage": {
        "base": "t_uint256",
        "encoding": "inplace",
        "label": "uint256[40]",
        "numberOfBytes": "1280"
      },
      "t_array(t_uint256)45_storage": {
        "base": "t_uint256",
        "encoding": "inplace",
        "label": "uint256[45]",
        "numberOfBytes": "1440"
      },
      "t_array(t_uint256)49_storage": {
        "base": "t_uint256",
        "encoding": "inplace",
        "label": "uint256[49]",
        "numberOfBytes": "1568"
      },
      "t_array(t_uint256)50_storage": {
        "base": "t_uint256",
        "encoding": "inplace",
        "label": "uint256[50]",
        "numberOfBytes": "1600"
      },
      "t_bool": {
        "encoding": "inplace",
        "label": "bool",
        "numberOfBytes": "1"
      },
      "t_contract(IAToken)16195": {
        "encoding": "inplace",
        "label": "contract IAToken",
        "numberOfBytes": "20"
      },
      "t_contract(IERC20Upgradeable)1157": {
        "encoding": "inplace",
        "label": "contract IERC20Upgradeable",
        "numberOfBytes": "20"
      },
      "t_contract(IPool)16226": {
        "encoding": "inplace",
        "label": "contract IPool",
        "numberOfBytes": "20"
      },
      "t_contract(IPriceOracle)11580": {
        "encoding": "inplace",
        "label": "contract IPriceOracle",
        "numberOfBytes": "20"
      },
      "t_contract(IRewardsController)16303": {
        "encoding": "inplace",
        "label": "contract IRewardsController",
        "numberOfBytes": "20"
      },
      "t_mapping(t_address,t_mapping(t_address,t_uint256))": {
        "encoding": "mapping",
        "key": "t_address",
        "label": "mapping(address => mapping(address => uint256))",
        "numberOfBytes": "32",
        "value": "t_mapping(t_address,t_uint256)"
      },
      "t_mapping(t_address,t_uint256)": {
        "encoding": "mapping",
        "key": "t_address",
        "label": "mapping(address => uint256)",
        "numberOfBytes": "32",
        "value": "t_uint256"
      },
      "t_string_storage": {
        "encoding": "bytes",
        "label": "string",
        "numberOfBytes": "32"
      },
      "t_uint256": {
        "encoding": "inplace",
        "label": "uint256",
        "numberOfBytes": "32"
      },
      "t_uint8": {
        "encoding": "inplace",
        "label": "uint8",
        "numberOfBytes": "1"
      }
    }
  }
}